{
    "tests/ported_static/stDelegatecallTestHomestead/test_deleagate_call_after_value_transfer.py::test_deleagate_call_after_value_transfer[fork_Cancun-blockchain_test_from_state_test]": {
        "network": "Cancun",
        "genesisBlockHeader": {
            "parentHash": "0x0000000000000000000000000000000000000000000000000000000000000000",
            "uncleHash": "0x1dcc4de8dec75d7aab85b567b6ccd41ad312451b948a7413f0a142fd40d49347",
            "coinbase": "0x0000000000000000000000000000000000000000",
            "stateRoot": "0x4395fafdec123301e773f51843114e7a6b32a4d5888bf878585b26a00e8c07fa",
            "transactionsTrie": "0x56e81f171bcc55a6ff8345e692c0f86e5b48e01b996cadc001622fb5e363b421",
            "receiptTrie": "0x56e81f171bcc55a6ff8345e692c0f86e5b48e01b996cadc001622fb5e363b421",
            "bloom": "0x00000000000000000000000000000000000000000000000000000000000000000000000000000000000000000000000000000000000000000000000000000000000000000000000000000000000000000000000000000000000000000000000000000000000000000000000000000000000000000000000000000000000000000000000000000000000000000000000000000000000000000000000000000000000000000000000000000000000000000000000000000000000000000000000000000000000000000000000000000000000000000000000000000000000000000000000000000000000000000000000000000000000000000000000000000000",
            "difficulty": "0x00",
            "number": "0x00",
            "gasLimit": "0x0f4240",
            "gasUsed": "0x00",
            "timestamp": "0x00",
            "extraData": "0x00",
            "mixHash": "0x0000000000000000000000000000000000000000000000000000000000000000",
            "nonce": "0x0000000000000000",
            "baseFeePerGas": "0x0b",
            "withdrawalsRoot": "0x56e81f171bcc55a6ff8345e692c0f86e5b48e01b996cadc001622fb5e363b421",
            "blobGasUsed": "0x00",
            "excessBlobGas": "0x00",
            "parentBeaconBlockRoot": "0x0000000000000000000000000000000000000000000000000000000000000000",
            "hash": "0x2bb4a3f0c892189d365242f03ca56be16c521d28a23570b7fccd959baac820fa"
        },
        "pre": {
            "0x000f3df6d732807ef1319fb7b8bb8522d0beac02": {
                "nonce": "0x01",
                "balance": "0x00",
                "code": "0x3373fffffffffffffffffffffffffffffffffffffffe14604d57602036146024575f5ffd5b5f35801560495762001fff810690815414603c575f5ffd5b62001fff01545f5260205ff35b5f5ffd5b62001fff42064281555f359062001fff015500",
                "storage": {}
            },
            "0xea5ac3be403b1bf93d247f91598330a31990c5d9": {
                "nonce": "0x00",
                "balance": "0x2386f26fc10000",
                "code": "0x",
                "storage": {}
            },
            "0x62b8b0f27ac801e35bcb257b710b4d862d999950": {
                "nonce": "0x00",
                "balance": "0x00",
                "code": "0x346000553360015560003560025500",
                "storage": {}
            },
            "0x7cb5b639b8d2ed47637bd447c95e94f53183a2b6": {
                "nonce": "0x00",
                "balance": "0x10c8e0",
                "code": "0x600160005260406000604060007362b8b0f27ac801e35bcb257b710b4d862d999950620186a0f400",
                "storage": {}
            }
        },
        "postState": {
            "0x000f3df6d732807ef1319fb7b8bb8522d0beac02": {
                "nonce": "0x01",
                "balance": "0x00",
                "code": "0x3373fffffffffffffffffffffffffffffffffffffffe14604d57602036146024575f5ffd5b5f35801560495762001fff810690815414603c575f5ffd5b62001fff01545f5260205ff35b5f5ffd5b62001fff42064281555f359062001fff015500",
                "storage": {
                    "0x03e8": "0x03e8"
                }
            },
            "0xea5ac3be403b1bf93d247f91598330a31990c5d9": {
                "nonce": "0x01",
                "balance": "0x2386f26fb64f98",
                "code": "0x",
                "storage": {}
            },
            "0x62b8b0f27ac801e35bcb257b710b4d862d999950": {
                "nonce": "0x00",
                "balance": "0x00",
                "code": "0x346000553360015560003560025500",
                "storage": {}
            },
            "0x7cb5b639b8d2ed47637bd447c95e94f53183a2b6": {
                "nonce": "0x00",
                "balance": "0x10c8e0",
                "code": "0x600160005260406000604060007362b8b0f27ac801e35bcb257b710b4d862d999950620186a0f400",
                "storage": {
                    "0x01": "0xea5ac3be403b1bf93d247f91598330a31990c5d9",
                    "0x02": "0x01"
                }
            }
        },
        "lastblockhash": "0x4f805de910207425d2b27d571dd3799d1167559826b283b6218b2a315f1bb0a9",
        "config": {
            "network": "Cancun",
            "chainid": "0x01",
            "blobSchedule": {
                "Cancun": {
                    "target": "0x03",
                    "max": "0x06",
                    "baseFeeUpdateFraction": "0x32f0ed"
                }
            }
        },
        "genesisRLP": "0xf9023bf90235a00000000000000000000000000000000000000000000000000000000000000000a01dcc4de8dec75d7aab85b567b6ccd41ad312451b948a7413f0a142fd40d49347940000000000000000000000000000000000000000a04395fafdec123301e773f51843114e7a6b32a4d5888bf878585b26a00e8c07faa056e81f171bcc55a6ff8345e692c0f86e5b48e01b996cadc001622fb5e363b421a056e81f171bcc55a6ff8345e692c0f86e5b48e01b996cadc001622fb5e363b421b90100000000000000000000000000000000000000000000000000000000000000000000000000000000000000000000000000000000000000000000000000000000000000000000000000000000000000000000000000000000000000000000000000000000000000000000000000000000000000000000000000000000000000000000000000000000000000000000000000000000000000000000000000000000000000000000000000000000000000000000000000000000000000000000000000000000000000000000000000000000000000000000000000000000000000000000000000000000000000000000000000000000000000000000000000000000008080830f4240808000a000000000000000000000000000000000000000000000000000000000000000008800000000000000000ba056e81f171bcc55a6ff8345e692c0f86e5b48e01b996cadc001622fb5e363b4218080a00000000000000000000000000000000000000000000000000000000000000000c0c0c0",
        "blocks": [
            {
                "blockHeader": {
                    "parentHash": "0x2bb4a3f0c892189d365242f03ca56be16c521d28a23570b7fccd959baac820fa",
                    "uncleHash": "0x1dcc4de8dec75d7aab85b567b6ccd41ad312451b948a7413f0a142fd40d49347",
                    "coinbase": "0x2adc25665018aa1fe0e6bc666dac8fc2697ff9ba",
                    "stateRoot": "0xe2dabaa0f41a6c3bddb1c7719edb61bb09ec647d5722c12f019068c8fbbb85d0",
                    "transactionsTrie": "0x0ed21dfe0c4974ce197f78d96e2abb0fd12187e6e8effcc975f86da9dc12c726",
                    "receiptTrie": "0xdcfa543bb8a5f47b19bb483fb3ede973c167f487edbec291c4a8fc77e44b9ac3",
                    "bloom": "0x00000000000000000000000000000000000000000000000000000000000000000000000000000000000000000000000000000000000000000000000000000000000000000000000000000000000000000000000000000000000000000000000000000000000000000000000000000000000000000000000000000000000000000000000000000000000000000000000000000000000000000000000000000000000000000000000000000000000000000000000000000000000000000000000000000000000000000000000000000000000000000000000000000000000000000000000000000000000000000000000000000000000000000000000000000000",
                    "difficulty": "0x00",
                    "number": "0x01",
                    "gasLimit": "0x0f4240",
                    "gasUsed": "0x0111a4",
                    "timestamp": "0x03e8",
                    "extraData": "0x00",
                    "mixHash": "0x0000000000000000000000000000000000000000000000000000000000020000",
                    "nonce": "0x0000000000000000",
                    "baseFeePerGas": "0x0a",
                    "withdrawalsRoot": "0x56e81f171bcc55a6ff8345e692c0f86e5b48e01b996cadc001622fb5e363b421",
                    "blobGasUsed": "0x00",
                    "excessBlobGas": "0x00",
                    "parentBeaconBlockRoot": "0x0000000000000000000000000000000000000000000000000000000000000000",
                    "hash": "0x4f805de910207425d2b27d571dd3799d1167559826b283b6218b2a315f1bb0a9"
                },
                "transactions": [
                    {
                        "type": "0x00",
                        "chainId": "0x01",
                        "nonce": "0x00",
                        "gasPrice": "0x0a",
                        "gasLimit": "0x06e9d9",
                        "to": "0x7cb5b639b8d2ed47637bd447c95e94f53183a2b6",
                        "value": "0x00",
                        "data": "0x",
                        "v": "0x25",
                        "r": "0x36f0bc563f81e927abaab251fa96e16f36ba6c1775569750b9db09b47966b2cf",
                        "s": "0x2a150e58be33af6f8bc72ad1657445aa3cdb055f2b3a6edb8fe9a292d056ac88",
                        "sender": "0xea5ac3be403b1bf93d247f91598330a31990c5d9"
                    }
                ],
                "uncleHeaders": [],
                "withdrawals": [],
                "receipts": [
                    {
                        "transactionHash": "0x8f6c2c428ce39d90587dfdeb6cfe25c1ca963b7281d7b23b83da83e94c6c5401",
                        "type": "0x00",
                        "cumulativeGasUsed": "0x0111a4",
                        "bloom": "0x00000000000000000000000000000000000000000000000000000000000000000000000000000000000000000000000000000000000000000000000000000000000000000000000000000000000000000000000000000000000000000000000000000000000000000000000000000000000000000000000000000000000000000000000000000000000000000000000000000000000000000000000000000000000000000000000000000000000000000000000000000000000000000000000000000000000000000000000000000000000000000000000000000000000000000000000000000000000000000000000000000000000000000000000000000000",
                        "logs": [],
                        "status": true,
                        "rlp": "0xf9010901830111a4b9010000000000000000000000000000000000000000000000000000000000000000000000000000000000000000000000000000000000000000000000000000000000000000000000000000000000000000000000000000000000000000000000000000000000000000000000000000000000000000000000000000000000000000000000000000000000000000000000000000000000000000000000000000000000000000000000000000000000000000000000000000000000000000000000000000000000000000000000000000000000000000000000000000000000000000000000000000000000000000000000000000000000000000000000000000000000c0"
                    }
                ],
                "rlp": "0xf902a3f9023aa02bb4a3f0c892189d365242f03ca56be16c521d28a23570b7fccd959baac820faa01dcc4de8dec75d7aab85b567b6ccd41ad312451b948a7413f0a142fd40d49347942adc25665018aa1fe0e6bc666dac8fc2697ff9baa0e2dabaa0f41a6c3bddb1c7719edb61bb09ec647d5722c12f019068c8fbbb85d0a00ed21dfe0c4974ce197f78d96e2abb0fd12187e6e8effcc975f86da9dc12c726a0dcfa543bb8a5f47b19bb483fb3ede973c167f487edbec291c4a8fc77e44b9ac3b90100000000000000000000000000000000000000000000000000000000000000000000000000000000000000000000000000000000000000000000000000000000000000000000000000000000000000000000000000000000000000000000000000000000000000000000000000000000000000000000000000000000000000000000000000000000000000000000000000000000000000000000000000000000000000000000000000000000000000000000000000000000000000000000000000000000000000000000000000000000000000000000000000000000000000000000000000000000000000000000000000000000000000000000000000000000008001830f4240830111a48203e800a000000000000000000000000000000000000000000000000000000000000200008800000000000000000aa056e81f171bcc55a6ff8345e692c0f86e5b48e01b996cadc001622fb5e363b4218080a00000000000000000000000000000000000000000000000000000000000000000f862f860800a8306e9d9947cb5b639b8d2ed47637bd447c95e94f53183a2b6808025a036f0bc563f81e927abaab251fa96e16f36ba6c1775569750b9db09b47966b2cfa02a150e58be33af6f8bc72ad1657445aa3cdb055f2b3a6edb8fe9a292d056ac88c0c0",
                "blocknumber": "1"
            }
        ],
        "sealEngine": "NoProof",
        "_info": {
            "hash": "0x86a1b688ccd874d8278a5dae00413427f6bf0153b15754e03f1208b457557bd3",
            "fixture-format": "blockchain_test",
            "comment": "`execution-specs` generated test",
            "filling-transition-tool": "2.19.0",
            "description": "Test_deleagate_call_after_value_transfer.",
            "url": "https://github.com/ethereum/execution-specs/blob/tests-snobal-devnet-5@v8037.0.0/tests/ported_static/stDelegatecallTestHomestead/test_deleagate_call_after_value_transfer.py#L24",
            "metadata": {
                "opcode_count": {}
            }
        }
    }
}