{
    "tests/ported_static/stTransactionTest/test_store_clears_and_internal_call_store_clears_success.py::test_store_clears_and_internal_call_store_clears_success[fork_Cancun-blockchain_test_from_state_test]": {
        "network": "Cancun",
        "genesisBlockHeader": {
            "parentHash": "0x0000000000000000000000000000000000000000000000000000000000000000",
            "uncleHash": "0x1dcc4de8dec75d7aab85b567b6ccd41ad312451b948a7413f0a142fd40d49347",
            "coinbase": "0x0000000000000000000000000000000000000000",
            "stateRoot": "0x8338dfb0c34a84a27c0408e89385c751f9715841aae11eb6be922a32aac9f084",
            "transactionsTrie": "0x56e81f171bcc55a6ff8345e692c0f86e5b48e01b996cadc001622fb5e363b421",
            "receiptTrie": "0x56e81f171bcc55a6ff8345e692c0f86e5b48e01b996cadc001622fb5e363b421",
            "bloom": "0x00000000000000000000000000000000000000000000000000000000000000000000000000000000000000000000000000000000000000000000000000000000000000000000000000000000000000000000000000000000000000000000000000000000000000000000000000000000000000000000000000000000000000000000000000000000000000000000000000000000000000000000000000000000000000000000000000000000000000000000000000000000000000000000000000000000000000000000000000000000000000000000000000000000000000000000000000000000000000000000000000000000000000000000000000000000",
            "difficulty": "0x00",
            "number": "0x00",
            "gasLimit": "0x989680",
            "gasUsed": "0x00",
            "timestamp": "0x00",
            "extraData": "0x00",
            "mixHash": "0x0000000000000000000000000000000000000000000000000000000000000000",
            "nonce": "0x0000000000000000",
            "baseFeePerGas": "0x0b",
            "withdrawalsRoot": "0x56e81f171bcc55a6ff8345e692c0f86e5b48e01b996cadc001622fb5e363b421",
            "blobGasUsed": "0x00",
            "excessBlobGas": "0x00",
            "parentBeaconBlockRoot": "0x0000000000000000000000000000000000000000000000000000000000000000",
            "hash": "0x2d037f07c37a0bf466d53321b0f4bf102dd935db990d5027818b189a564db18b"
        },
        "pre": {
            "0x000f3df6d732807ef1319fb7b8bb8522d0beac02": {
                "nonce": "0x01",
                "balance": "0x00",
                "code": "0x3373fffffffffffffffffffffffffffffffffffffffe14604d57602036146024575f5ffd5b5f35801560495762001fff810690815414603c575f5ffd5b62001fff01545f5260205ff35b5f5ffd5b62001fff42064281555f359062001fff015500",
                "storage": {}
            },
            "0xad534b3e645e73a210fa977d4e7577c1ce6c032c": {
                "nonce": "0x00",
                "balance": "0x1dcd6500",
                "code": "0x",
                "storage": {}
            },
            "0x2ead99225a8a6a579fecdaa6a50e93f1bb478124": {
                "nonce": "0x00",
                "balance": "0x00",
                "code": "0x600060005560006001556000600255600060035560006004556000600555600060065560006007556000600855600060095500",
                "storage": {
                    "0x00": "0x0c",
                    "0x01": "0x0c",
                    "0x02": "0x0c",
                    "0x03": "0x0c",
                    "0x04": "0x0c",
                    "0x05": "0x0c",
                    "0x06": "0x0c",
                    "0x07": "0x0c",
                    "0x08": "0x0c",
                    "0x09": "0x0c"
                }
            },
            "0x81abbbcd72750b836eb89f763e6228a3e97b16b3": {
                "nonce": "0x00",
                "balance": "0x0a",
                "code": "0x600060005560006001556000600255600060035560006000600060006001732ead99225a8a6a579fecdaa6a50e93f1bb47812461c350f100",
                "storage": {
                    "0x00": "0x0c",
                    "0x01": "0x0c",
                    "0x02": "0x0c",
                    "0x03": "0x0c",
                    "0x04": "0x0c"
                }
            }
        },
        "postState": {
            "0x000f3df6d732807ef1319fb7b8bb8522d0beac02": {
                "nonce": "0x01",
                "balance": "0x00",
                "code": "0x3373fffffffffffffffffffffffffffffffffffffffe14604d57602036146024575f5ffd5b5f35801560495762001fff810690815414603c575f5ffd5b62001fff01545f5260205ff35b5f5ffd5b62001fff42064281555f359062001fff015500",
                "storage": {
                    "0x03e8": "0x03e8"
                }
            },
            "0xad534b3e645e73a210fa977d4e7577c1ce6c032c": {
                "nonce": "0x01",
                "balance": "0x1dc1234e",
                "code": "0x",
                "storage": {}
            },
            "0x2ead99225a8a6a579fecdaa6a50e93f1bb478124": {
                "nonce": "0x00",
                "balance": "0x01",
                "code": "0x600060005560006001556000600255600060035560006004556000600555600060065560006007556000600855600060095500",
                "storage": {}
            },
            "0x81abbbcd72750b836eb89f763e6228a3e97b16b3": {
                "nonce": "0x00",
                "balance": "0x13",
                "code": "0x600060005560006001556000600255600060035560006000600060006001732ead99225a8a6a579fecdaa6a50e93f1bb47812461c350f100",
                "storage": {
                    "0x04": "0x0c"
                }
            }
        },
        "lastblockhash": "0x623ecf5d864fc8ee2e5f00c12fb2a320481d083d40fe7f2dd2a76fc5dab04dae",
        "config": {
            "network": "Cancun",
            "chainid": "0x01",
            "blobSchedule": {
                "Cancun": {
                    "target": "0x03",
                    "max": "0x06",
                    "baseFeeUpdateFraction": "0x32f0ed"
                }
            }
        },
        "genesisRLP": "0xf9023bf90235a00000000000000000000000000000000000000000000000000000000000000000a01dcc4de8dec75d7aab85b567b6ccd41ad312451b948a7413f0a142fd40d49347940000000000000000000000000000000000000000a08338dfb0c34a84a27c0408e89385c751f9715841aae11eb6be922a32aac9f084a056e81f171bcc55a6ff8345e692c0f86e5b48e01b996cadc001622fb5e363b421a056e81f171bcc55a6ff8345e692c0f86e5b48e01b996cadc001622fb5e363b421b9010000000000000000000000000000000000000000000000000000000000000000000000000000000000000000000000000000000000000000000000000000000000000000000000000000000000000000000000000000000000000000000000000000000000000000000000000000000000000000000000000000000000000000000000000000000000000000000000000000000000000000000000000000000000000000000000000000000000000000000000000000000000000000000000000000000000000000000000000000000000000000000000000000000000000000000000000000000000000000000000000000000000000000000000000000000000808083989680808000a000000000000000000000000000000000000000000000000000000000000000008800000000000000000ba056e81f171bcc55a6ff8345e692c0f86e5b48e01b996cadc001622fb5e363b4218080a00000000000000000000000000000000000000000000000000000000000000000c0c0c0",
        "blocks": [
            {
                "blockHeader": {
                    "parentHash": "0x2d037f07c37a0bf466d53321b0f4bf102dd935db990d5027818b189a564db18b",
                    "uncleHash": "0x1dcc4de8dec75d7aab85b567b6ccd41ad312451b948a7413f0a142fd40d49347",
                    "coinbase": "0xb94f5374fce5edbc8e2a8697c15331677e6ebf0b",
                    "stateRoot": "0x1577c7336d3648308a0e3095460cfd95a6b023dbd33b4ec32f9c07e37a58e983",
                    "transactionsTrie": "0x6ee693f5fd8023ff6d4b62a50dc8365949e95ad79efccaf5fb988a3baa8a4057",
                    "receiptTrie": "0xf8883284e9f0a0a1efead71154967dc2bd838f2190bd3c12e02250f53b04e291",
                    "bloom": "0x00000000000000000000000000000000000000000000000000000000000000000000000000000000000000000000000000000000000000000000000000000000000000000000000000000000000000000000000000000000000000000000000000000000000000000000000000000000000000000000000000000000000000000000000000000000000000000000000000000000000000000000000000000000000000000000000000000000000000000000000000000000000000000000000000000000000000000000000000000000000000000000000000000000000000000000000000000000000000000000000000000000000000000000000000000000",
                    "difficulty": "0x00",
                    "number": "0x01",
                    "gasLimit": "0x989680",
                    "gasUsed": "0x0139c4",
                    "timestamp": "0x03e8",
                    "extraData": "0x00",
                    "mixHash": "0x0000000000000000000000000000000000000000000000000000000000020000",
                    "nonce": "0x0000000000000000",
                    "baseFeePerGas": "0x0a",
                    "withdrawalsRoot": "0x56e81f171bcc55a6ff8345e692c0f86e5b48e01b996cadc001622fb5e363b421",
                    "blobGasUsed": "0x00",
                    "excessBlobGas": "0x00",
                    "parentBeaconBlockRoot": "0x0000000000000000000000000000000000000000000000000000000000000000",
                    "hash": "0x623ecf5d864fc8ee2e5f00c12fb2a320481d083d40fe7f2dd2a76fc5dab04dae"
                },
                "transactions": [
                    {
                        "type": "0x00",
                        "chainId": "0x01",
                        "nonce": "0x00",
                        "gasPrice": "0x0a",
                        "gasLimit": "0x030d40",
                        "to": "0x81abbbcd72750b836eb89f763e6228a3e97b16b3",
                        "value": "0x0a",
                        "data": "0x",
                        "v": "0x25",
                        "r": "0x26b4c1f200864f6401d47db702b570feec1912d8fac5bfc204b14f60ef0c0797",
                        "s": "0x30645fd326209029cd19f9ea36c3f9b4f05b9089323e6705617138b7e61c83b7",
                        "sender": "0xad534b3e645e73a210fa977d4e7577c1ce6c032c"
                    }
                ],
                "uncleHeaders": [],
                "withdrawals": [],
                "receipts": [
                    {
                        "transactionHash": "0x494b01124e3756c0b9e264807a5b036250aa993fdd367fce2ad20bb68b79aa90",
                        "type": "0x00",
                        "cumulativeGasUsed": "0x0139c4",
                        "bloom": "0x00000000000000000000000000000000000000000000000000000000000000000000000000000000000000000000000000000000000000000000000000000000000000000000000000000000000000000000000000000000000000000000000000000000000000000000000000000000000000000000000000000000000000000000000000000000000000000000000000000000000000000000000000000000000000000000000000000000000000000000000000000000000000000000000000000000000000000000000000000000000000000000000000000000000000000000000000000000000000000000000000000000000000000000000000000000",
                        "logs": [],
                        "status": true,
                        "rlp": "0xf9010901830139c4b9010000000000000000000000000000000000000000000000000000000000000000000000000000000000000000000000000000000000000000000000000000000000000000000000000000000000000000000000000000000000000000000000000000000000000000000000000000000000000000000000000000000000000000000000000000000000000000000000000000000000000000000000000000000000000000000000000000000000000000000000000000000000000000000000000000000000000000000000000000000000000000000000000000000000000000000000000000000000000000000000000000000000000000000000000000000000c0"
                    }
                ],
                "rlp": "0xf902a3f9023aa02d037f07c37a0bf466d53321b0f4bf102dd935db990d5027818b189a564db18ba01dcc4de8dec75d7aab85b567b6ccd41ad312451b948a7413f0a142fd40d4934794b94f5374fce5edbc8e2a8697c15331677e6ebf0ba01577c7336d3648308a0e3095460cfd95a6b023dbd33b4ec32f9c07e37a58e983a06ee693f5fd8023ff6d4b62a50dc8365949e95ad79efccaf5fb988a3baa8a4057a0f8883284e9f0a0a1efead71154967dc2bd838f2190bd3c12e02250f53b04e291b9010000000000000000000000000000000000000000000000000000000000000000000000000000000000000000000000000000000000000000000000000000000000000000000000000000000000000000000000000000000000000000000000000000000000000000000000000000000000000000000000000000000000000000000000000000000000000000000000000000000000000000000000000000000000000000000000000000000000000000000000000000000000000000000000000000000000000000000000000000000000000000000000000000000000000000000000000000000000000000000000000000000000000000000000000000000000800183989680830139c48203e800a000000000000000000000000000000000000000000000000000000000000200008800000000000000000aa056e81f171bcc55a6ff8345e692c0f86e5b48e01b996cadc001622fb5e363b4218080a00000000000000000000000000000000000000000000000000000000000000000f862f860800a83030d409481abbbcd72750b836eb89f763e6228a3e97b16b30a8025a026b4c1f200864f6401d47db702b570feec1912d8fac5bfc204b14f60ef0c0797a030645fd326209029cd19f9ea36c3f9b4f05b9089323e6705617138b7e61c83b7c0c0",
                "blocknumber": "1"
            }
        ],
        "sealEngine": "NoProof",
        "_info": {
            "hash": "0xe68a780ae25eeafc2b9fd878a99ba0e93b479f6fe2282ab754a48f1ae0bf1df5",
            "fixture-format": "blockchain_test",
            "comment": "`execution-specs` generated test",
            "filling-transition-tool": "2.19.0",
            "description": "Test_store_clears_and_internal_call_store_clears_success.",
            "url": "https://github.com/ethereum/execution-specs/blob/tests-snobal-devnet-5@v8037.0.0/tests/ported_static/stTransactionTest/test_store_clears_and_internal_call_store_clears_success.py#L24",
            "metadata": {
                "opcode_count": {}
            }
        }
    }
}