{
    "tests/ported_static/stDelegatecallTestHomestead/test_call_recursive_bomb_pre_call.py::test_call_recursive_bomb_pre_call[fork_Cancun-blockchain_test_from_state_test]": {
        "network": "Cancun",
        "genesisBlockHeader": {
            "parentHash": "0x0000000000000000000000000000000000000000000000000000000000000000",
            "uncleHash": "0x1dcc4de8dec75d7aab85b567b6ccd41ad312451b948a7413f0a142fd40d49347",
            "coinbase": "0x0000000000000000000000000000000000000000",
            "stateRoot": "0x3539eb672eef38ae91f38c13761d1f0fab06023a94948d282ed1e0c3188779ab",
            "transactionsTrie": "0x56e81f171bcc55a6ff8345e692c0f86e5b48e01b996cadc001622fb5e363b421",
            "receiptTrie": "0x56e81f171bcc55a6ff8345e692c0f86e5b48e01b996cadc001622fb5e363b421",
            "bloom": "0x00000000000000000000000000000000000000000000000000000000000000000000000000000000000000000000000000000000000000000000000000000000000000000000000000000000000000000000000000000000000000000000000000000000000000000000000000000000000000000000000000000000000000000000000000000000000000000000000000000000000000000000000000000000000000000000000000000000000000000000000000000000000000000000000000000000000000000000000000000000000000000000000000000000000000000000000000000000000000000000000000000000000000000000000000000000",
            "difficulty": "0x00",
            "number": "0x00",
            "gasLimit": "0x7fffffffffffffff",
            "gasUsed": "0x00",
            "timestamp": "0x00",
            "extraData": "0x00",
            "mixHash": "0x0000000000000000000000000000000000000000000000000000000000000000",
            "nonce": "0x0000000000000000",
            "baseFeePerGas": "0x0b",
            "withdrawalsRoot": "0x56e81f171bcc55a6ff8345e692c0f86e5b48e01b996cadc001622fb5e363b421",
            "blobGasUsed": "0x00",
            "excessBlobGas": "0x00",
            "parentBeaconBlockRoot": "0x0000000000000000000000000000000000000000000000000000000000000000",
            "hash": "0x41aa21369083b4fb638b4d43993bb23ff34f8177d34f52e30163dc030d2c8e4d"
        },
        "pre": {
            "0x000f3df6d732807ef1319fb7b8bb8522d0beac02": {
                "nonce": "0x01",
                "balance": "0x00",
                "code": "0x3373fffffffffffffffffffffffffffffffffffffffe14604d57602036146024575f5ffd5b5f35801560495762001fff810690815414603c575f5ffd5b62001fff01545f5260205ff35b5f5ffd5b62001fff42064281555f359062001fff015500",
                "storage": {}
            },
            "0x43bd0534d01632772d2b631a761b77a00a265797": {
                "nonce": "0x00",
                "balance": "0x0fffffffffffffffffffffffffffffff",
                "code": "0x",
                "storage": {}
            },
            "0x7a11b1b8911ecccfccb030a17f9cebde63a92190": {
                "nonce": "0x00",
                "balance": "0x0fffffffffffffffffffffffffffffff",
                "code": "0x6000600060006000601773bad304eb96065b2a98b57a48a06ae28d285a71b5620186a0f1506000600060006000733046257c307a51f1a8ae73f6f6360937dd21138e6707fffffffffffffff400",
                "storage": {}
            },
            "0x3046257c307a51f1a8ae73f6f6360937dd21138e": {
                "nonce": "0x00",
                "balance": "0x0de0b6b3a7640000",
                "code": "0x60016000540160005560006000600060006000733046257c307a51f1a8ae73f6f6360937dd21138e62036b005a03f160015500",
                "storage": {}
            }
        },
        "postState": {
            "0x000f3df6d732807ef1319fb7b8bb8522d0beac02": {
                "nonce": "0x01",
                "balance": "0x00",
                "code": "0x3373fffffffffffffffffffffffffffffffffffffffe14604d57602036146024575f5ffd5b5f35801560495762001fff810690815414603c575f5ffd5b62001fff01545f5260205ff35b5f5ffd5b62001fff42064281555f359062001fff015500",
                "storage": {
                    "0x03e8": "0x03e8"
                }
            },
            "0x43bd0534d01632772d2b631a761b77a00a265797": {
                "nonce": "0x01",
                "balance": "0x0fffffffffffffffffffffffffa4dafd",
                "code": "0x",
                "storage": {}
            },
            "0x7a11b1b8911ecccfccb030a17f9cebde63a92190": {
                "nonce": "0x00",
                "balance": "0x0fffffffffffffffffffffffffffffe8",
                "code": "0x6000600060006000601773bad304eb96065b2a98b57a48a06ae28d285a71b5620186a0f1506000600060006000733046257c307a51f1a8ae73f6f6360937dd21138e6707fffffffffffffff400",
                "storage": {
                    "0x00": "0x01",
                    "0x01": "0x01"
                }
            },
            "0x3046257c307a51f1a8ae73f6f6360937dd21138e": {
                "nonce": "0x00",
                "balance": "0x0de0b6b3a7640000",
                "code": "0x60016000540160005560006000600060006000733046257c307a51f1a8ae73f6f6360937dd21138e62036b005a03f160015500",
                "storage": {
                    "0x00": "0x03ff",
                    "0x01": "0x01"
                }
            },
            "0xbad304eb96065b2a98b57a48a06ae28d285a71b5": {
                "nonce": "0x00",
                "balance": "0x17",
                "code": "0x",
                "storage": {}
            }
        },
        "lastblockhash": "0x123084ed3b5fdb763ea4a0dfa4fe0cf14e50ff5c3b81eef2526d82b7f0a0c78c",
        "config": {
            "network": "Cancun",
            "chainid": "0x01",
            "blobSchedule": {
                "Cancun": {
                    "target": "0x03",
                    "max": "0x06",
                    "baseFeeUpdateFraction": "0x32f0ed"
                }
            }
        },
        "genesisRLP": "0xf90240f9023aa00000000000000000000000000000000000000000000000000000000000000000a01dcc4de8dec75d7aab85b567b6ccd41ad312451b948a7413f0a142fd40d49347940000000000000000000000000000000000000000a03539eb672eef38ae91f38c13761d1f0fab06023a94948d282ed1e0c3188779aba056e81f171bcc55a6ff8345e692c0f86e5b48e01b996cadc001622fb5e363b421a056e81f171bcc55a6ff8345e692c0f86e5b48e01b996cadc001622fb5e363b421b90100000000000000000000000000000000000000000000000000000000000000000000000000000000000000000000000000000000000000000000000000000000000000000000000000000000000000000000000000000000000000000000000000000000000000000000000000000000000000000000000000000000000000000000000000000000000000000000000000000000000000000000000000000000000000000000000000000000000000000000000000000000000000000000000000000000000000000000000000000000000000000000000000000000000000000000000000000000000000000000000000000000000000000000000000000000008080887fffffffffffffff808000a000000000000000000000000000000000000000000000000000000000000000008800000000000000000ba056e81f171bcc55a6ff8345e692c0f86e5b48e01b996cadc001622fb5e363b4218080a00000000000000000000000000000000000000000000000000000000000000000c0c0c0",
        "blocks": [
            {
                "blockHeader": {
                    "parentHash": "0x41aa21369083b4fb638b4d43993bb23ff34f8177d34f52e30163dc030d2c8e4d",
                    "uncleHash": "0x1dcc4de8dec75d7aab85b567b6ccd41ad312451b948a7413f0a142fd40d49347",
                    "coinbase": "0x2adc25665018aa1fe0e6bc666dac8fc2697ff9ba",
                    "stateRoot": "0x524280419c199b197f0287db1c70a79f38e8c55c7fee9db401c7fa48216e1f85",
                    "transactionsTrie": "0x7e85dc6524f8e35dc74bd024eaf023e9bd85550bac1e695aa39b8f8c96259df7",
                    "receiptTrie": "0xff04cab029f574656001d94b9939f09e2036acb3a26fd7dfdcf3163b37bdb8bf",
                    "bloom": "0x00000000000000000000000000000000000000000000000000000000000000000000000000000000000000000000000000000000000000000000000000000000000000000000000000000000000000000000000000000000000000000000000000000000000000000000000000000000000000000000000000000000000000000000000000000000000000000000000000000000000000000000000000000000000000000000000000000000000000000000000000000000000000000000000000000000000000000000000000000000000000000000000000000000000000000000000000000000000000000000000000000000000000000000000000000000",
                    "difficulty": "0x00",
                    "number": "0x01",
                    "gasLimit": "0x7fffffffffffffff",
                    "gasUsed": "0x091d4d",
                    "timestamp": "0x03e8",
                    "extraData": "0x00",
                    "mixHash": "0x0000000000000000000000000000000000000000000000000000000000020000",
                    "nonce": "0x0000000000000000",
                    "baseFeePerGas": "0x0a",
                    "withdrawalsRoot": "0x56e81f171bcc55a6ff8345e692c0f86e5b48e01b996cadc001622fb5e363b421",
                    "blobGasUsed": "0x00",
                    "excessBlobGas": "0x00",
                    "parentBeaconBlockRoot": "0x0000000000000000000000000000000000000000000000000000000000000000",
                    "hash": "0x123084ed3b5fdb763ea4a0dfa4fe0cf14e50ff5c3b81eef2526d82b7f0a0c78c"
                },
                "transactions": [
                    {
                        "type": "0x00",
                        "chainId": "0x01",
                        "nonce": "0x00",
                        "gasPrice": "0x0a",
                        "gasLimit": "0x7fe0000000000001",
                        "to": "0x7a11b1b8911ecccfccb030a17f9cebde63a92190",
                        "value": "0x00",
                        "data": "0x",
                        "v": "0x25",
                        "r": "0x5f07b2f3560b02b826515ecef5bc121a94cf8a0006c93a4ec83eacfa88606c7a",
                        "s": "0x2dec341da20cfd36bef258b174d21d7a8132bf7f324ceddf02567912c5bac5b0",
                        "sender": "0x43bd0534d01632772d2b631a761b77a00a265797"
                    }
                ],
                "uncleHeaders": [],
                "withdrawals": [],
                "receipts": [
                    {
                        "transactionHash": "0xb099212dbf7023e860c58def7f9e554f791a8db58426e2f12cfd02ccc31528a8",
                        "type": "0x00",
                        "cumulativeGasUsed": "0x091d4d",
                        "bloom": "0x00000000000000000000000000000000000000000000000000000000000000000000000000000000000000000000000000000000000000000000000000000000000000000000000000000000000000000000000000000000000000000000000000000000000000000000000000000000000000000000000000000000000000000000000000000000000000000000000000000000000000000000000000000000000000000000000000000000000000000000000000000000000000000000000000000000000000000000000000000000000000000000000000000000000000000000000000000000000000000000000000000000000000000000000000000000",
                        "logs": [],
                        "status": true,
                        "rlp": "0xf901090183091d4db9010000000000000000000000000000000000000000000000000000000000000000000000000000000000000000000000000000000000000000000000000000000000000000000000000000000000000000000000000000000000000000000000000000000000000000000000000000000000000000000000000000000000000000000000000000000000000000000000000000000000000000000000000000000000000000000000000000000000000000000000000000000000000000000000000000000000000000000000000000000000000000000000000000000000000000000000000000000000000000000000000000000000000000000000000000000000c0"
                    }
                ],
                "rlp": "0xf902adf9023fa041aa21369083b4fb638b4d43993bb23ff34f8177d34f52e30163dc030d2c8e4da01dcc4de8dec75d7aab85b567b6ccd41ad312451b948a7413f0a142fd40d49347942adc25665018aa1fe0e6bc666dac8fc2697ff9baa0524280419c199b197f0287db1c70a79f38e8c55c7fee9db401c7fa48216e1f85a07e85dc6524f8e35dc74bd024eaf023e9bd85550bac1e695aa39b8f8c96259df7a0ff04cab029f574656001d94b9939f09e2036acb3a26fd7dfdcf3163b37bdb8bfb90100000000000000000000000000000000000000000000000000000000000000000000000000000000000000000000000000000000000000000000000000000000000000000000000000000000000000000000000000000000000000000000000000000000000000000000000000000000000000000000000000000000000000000000000000000000000000000000000000000000000000000000000000000000000000000000000000000000000000000000000000000000000000000000000000000000000000000000000000000000000000000000000000000000000000000000000000000000000000000000000000000000000000000000000000000000008001887fffffffffffffff83091d4d8203e800a000000000000000000000000000000000000000000000000000000000000200008800000000000000000aa056e81f171bcc55a6ff8345e692c0f86e5b48e01b996cadc001622fb5e363b4218080a00000000000000000000000000000000000000000000000000000000000000000f867f865800a887fe0000000000001947a11b1b8911ecccfccb030a17f9cebde63a92190808025a05f07b2f3560b02b826515ecef5bc121a94cf8a0006c93a4ec83eacfa88606c7aa02dec341da20cfd36bef258b174d21d7a8132bf7f324ceddf02567912c5bac5b0c0c0",
                "blocknumber": "1"
            }
        ],
        "sealEngine": "NoProof",
        "_info": {
            "hash": "0xd29c7a864915ae3698b34a18345ae60093bcd54cfb809ade749cdec058103320",
            "fixture-format": "blockchain_test",
            "comment": "`execution-specs` generated test",
            "filling-transition-tool": "2.19.0",
            "description": "Test_call_recursive_bomb_pre_call.",
            "url": "https://github.com/ethereum/execution-specs/blob/tests-snobal-devnet-5@v8037.0.0/tests/ported_static/stDelegatecallTestHomestead/test_call_recursive_bomb_pre_call.py#L24",
            "metadata": {
                "opcode_count": {}
            }
        }
    }
}