{
    "tests/constantinople/eip1014_create2/test_create2_revert.py::test_create2_succeeds_after_reverted_create2[fork_Cancun-blockchain_test_from_state_test]": {
        "network": "Cancun",
        "genesisBlockHeader": {
            "parentHash": "0x0000000000000000000000000000000000000000000000000000000000000000",
            "uncleHash": "0x1dcc4de8dec75d7aab85b567b6ccd41ad312451b948a7413f0a142fd40d49347",
            "coinbase": "0x0000000000000000000000000000000000000000",
            "stateRoot": "0xdb58398477cc6a3e007c1a4f758bb2ae50458a51f139699b3fb32b1a982e688d",
            "transactionsTrie": "0x56e81f171bcc55a6ff8345e692c0f86e5b48e01b996cadc001622fb5e363b421",
            "receiptTrie": "0x56e81f171bcc55a6ff8345e692c0f86e5b48e01b996cadc001622fb5e363b421",
            "bloom": "0x00000000000000000000000000000000000000000000000000000000000000000000000000000000000000000000000000000000000000000000000000000000000000000000000000000000000000000000000000000000000000000000000000000000000000000000000000000000000000000000000000000000000000000000000000000000000000000000000000000000000000000000000000000000000000000000000000000000000000000000000000000000000000000000000000000000000000000000000000000000000000000000000000000000000000000000000000000000000000000000000000000000000000000000000000000000",
            "difficulty": "0x00",
            "number": "0x00",
            "gasLimit": "0x07270e00",
            "gasUsed": "0x00",
            "timestamp": "0x00",
            "extraData": "0x00",
            "mixHash": "0x0000000000000000000000000000000000000000000000000000000000000000",
            "nonce": "0x0000000000000000",
            "baseFeePerGas": "0x07",
            "withdrawalsRoot": "0x56e81f171bcc55a6ff8345e692c0f86e5b48e01b996cadc001622fb5e363b421",
            "blobGasUsed": "0x00",
            "excessBlobGas": "0x00",
            "parentBeaconBlockRoot": "0x0000000000000000000000000000000000000000000000000000000000000000",
            "hash": "0x20c0f034b3073fa100ba2a733a74cb942e96695ea53a37bbd4e81036fb688388"
        },
        "pre": {
            "0x000f3df6d732807ef1319fb7b8bb8522d0beac02": {
                "nonce": "0x01",
                "balance": "0x00",
                "code": "0x3373fffffffffffffffffffffffffffffffffffffffe14604d57602036146024575f5ffd5b5f35801560495762001fff810690815414603c575f5ffd5b62001fff01545f5260205ff35b5f5ffd5b62001fff42064281555f359062001fff015500",
                "storage": {}
            },
            "0x05c3d882bb1be7405324c13cf9be1a0002aeaae9": {
                "nonce": "0x01",
                "balance": "0x00",
                "code": "0x36600060003760013660006000f560005500",
                "storage": {}
            },
            "0x67efc01369fcf9277e2b6a9903c11c94a580194a": {
                "nonce": "0x01",
                "balance": "0x00",
                "code": "0x3660006000376000600036600060007305c3d882bb1be7405324c13cf9be1a0002aeaae962030d40f15060006000fd",
                "storage": {}
            },
            "0x335f443afcdea75ae3b82f65f210014fedf5578a": {
                "nonce": "0x01",
                "balance": "0x00",
                "code": "0x3660006000376000600036600060007367efc01369fcf9277e2b6a9903c11c94a580194a620493e0f16000556000600036600060007305c3d882bb1be7405324c13cf9be1a0002aeaae9620493e0f160015500",
                "storage": {
                    "0x00": "0xba5e"
                }
            },
            "0x1ad9bc24818784172ff393bb6f89f094d4d2ca29": {
                "nonce": "0x00",
                "balance": "0x3635c9adc5dea00000",
                "code": "0x",
                "storage": {}
            }
        },
        "postState": {
            "0x000f3df6d732807ef1319fb7b8bb8522d0beac02": {
                "nonce": "0x01",
                "balance": "0x00",
                "code": "0x3373fffffffffffffffffffffffffffffffffffffffe14604d57602036146024575f5ffd5b5f35801560495762001fff810690815414603c575f5ffd5b62001fff01545f5260205ff35b5f5ffd5b62001fff42064281555f359062001fff015500",
                "storage": {
                    "0x03e8": "0x03e8"
                }
            },
            "0x05c3d882bb1be7405324c13cf9be1a0002aeaae9": {
                "nonce": "0x02",
                "balance": "0x00",
                "code": "0x36600060003760013660006000f560005500",
                "storage": {
                    "0x00": "0x0bd877619648a201f6cef43d9ddef56179f4f765"
                }
            },
            "0x67efc01369fcf9277e2b6a9903c11c94a580194a": {
                "nonce": "0x01",
                "balance": "0x00",
                "code": "0x3660006000376000600036600060007305c3d882bb1be7405324c13cf9be1a0002aeaae962030d40f15060006000fd",
                "storage": {}
            },
            "0x335f443afcdea75ae3b82f65f210014fedf5578a": {
                "nonce": "0x01",
                "balance": "0x00",
                "code": "0x3660006000376000600036600060007367efc01369fcf9277e2b6a9903c11c94a580194a620493e0f16000556000600036600060007305c3d882bb1be7405324c13cf9be1a0002aeaae9620493e0f160015500",
                "storage": {
                    "0x01": "0x01"
                }
            },
            "0x1ad9bc24818784172ff393bb6f89f094d4d2ca29": {
                "nonce": "0x01",
                "balance": "0x3635c9adc5de8741b4",
                "code": "0x",
                "storage": {}
            },
            "0x0bd877619648a201f6cef43d9ddef56179f4f765": {
                "nonce": "0x01",
                "balance": "0x00",
                "code": "0x600160005500",
                "storage": {}
            },
            "0x2adc25665018aa1fe0e6bc666dac8fc2697ff9ba": {
                "nonce": "0x00",
                "balance": "0x076c4a",
                "code": "0x",
                "storage": {}
            }
        },
        "lastblockhash": "0x29ac3b789046dc88f05b4d06f1749df42748bb510b6ec2a8c5e6514265955eb3",
        "config": {
            "network": "Cancun",
            "chainid": "0x01",
            "blobSchedule": {
                "Cancun": {
                    "target": "0x03",
                    "max": "0x06",
                    "baseFeeUpdateFraction": "0x32f0ed"
                }
            }
        },
        "genesisRLP": "0xf9023cf90236a00000000000000000000000000000000000000000000000000000000000000000a01dcc4de8dec75d7aab85b567b6ccd41ad312451b948a7413f0a142fd40d49347940000000000000000000000000000000000000000a0db58398477cc6a3e007c1a4f758bb2ae50458a51f139699b3fb32b1a982e688da056e81f171bcc55a6ff8345e692c0f86e5b48e01b996cadc001622fb5e363b421a056e81f171bcc55a6ff8345e692c0f86e5b48e01b996cadc001622fb5e363b421b901000000000000000000000000000000000000000000000000000000000000000000000000000000000000000000000000000000000000000000000000000000000000000000000000000000000000000000000000000000000000000000000000000000000000000000000000000000000000000000000000000000000000000000000000000000000000000000000000000000000000000000000000000000000000000000000000000000000000000000000000000000000000000000000000000000000000000000000000000000000000000000000000000000000000000000000000000000000000000000000000000000000000000000000000000000000080808407270e00808000a0000000000000000000000000000000000000000000000000000000000000000088000000000000000007a056e81f171bcc55a6ff8345e692c0f86e5b48e01b996cadc001622fb5e363b4218080a00000000000000000000000000000000000000000000000000000000000000000c0c0c0",
        "blocks": [
            {
                "blockHeader": {
                    "parentHash": "0x20c0f034b3073fa100ba2a733a74cb942e96695ea53a37bbd4e81036fb688388",
                    "uncleHash": "0x1dcc4de8dec75d7aab85b567b6ccd41ad312451b948a7413f0a142fd40d49347",
                    "coinbase": "0x2adc25665018aa1fe0e6bc666dac8fc2697ff9ba",
                    "stateRoot": "0xfc41fe9425056ce6962dc3e03374d3d6aaad362b624531bba824e04248b391b8",
                    "transactionsTrie": "0xc598bd502862a613c059261bf88b31cb48acf30ea8cf08d4c37b3862898c332c",
                    "receiptTrie": "0x61a1fc84536b4ed0ebbbf78305482ce765e4cdc7324a594c0a1a1e154db7f4f8",
                    "bloom": "0x00000000000000000000000000000000000000000000000000000000000000000000000000000000000000000000000000000000000000000000000000000000000000000000000000000000000000000000000000000000000000000000000000000000000000000000000000000000000000000000000000000000000000000000000000000000000000000000000000000000000000000000000000000000000000000000000000000000000000000000000000000000000000000000000000000000000000000000000000000000000000000000000000000000000000000000000000000000000000000000000000000000000000000000000000000000",
                    "difficulty": "0x00",
                    "number": "0x01",
                    "gasLimit": "0x07270e00",
                    "gasUsed": "0x02796e",
                    "timestamp": "0x03e8",
                    "extraData": "0x00",
                    "mixHash": "0x0000000000000000000000000000000000000000000000000000000000000000",
                    "nonce": "0x0000000000000000",
                    "baseFeePerGas": "0x07",
                    "withdrawalsRoot": "0x56e81f171bcc55a6ff8345e692c0f86e5b48e01b996cadc001622fb5e363b421",
                    "blobGasUsed": "0x00",
                    "excessBlobGas": "0x00",
                    "parentBeaconBlockRoot": "0x0000000000000000000000000000000000000000000000000000000000000000",
                    "hash": "0x29ac3b789046dc88f05b4d06f1749df42748bb510b6ec2a8c5e6514265955eb3"
                },
                "transactions": [
                    {
                        "type": "0x00",
                        "chainId": "0x01",
                        "nonce": "0x00",
                        "gasPrice": "0x0a",
                        "gasLimit": "0x1e8480",
                        "to": "0x335f443afcdea75ae3b82f65f210014fedf5578a",
                        "value": "0x00",
                        "data": "0x610006600081600b8239f3600160005500",
                        "v": "0x25",
                        "r": "0xfb90ca2978c56d19473ec7ce9aced33c08a0bc39ecaf25932b96b1a00967578d",
                        "s": "0x2c6396d8edd138b8442467ba441d5e114669d25c7250def0e9f5d81f5790fe34",
                        "sender": "0x1ad9bc24818784172ff393bb6f89f094d4d2ca29"
                    }
                ],
                "uncleHeaders": [],
                "withdrawals": [],
                "receipts": [
                    {
                        "transactionHash": "0xfb5dcc1b35271d0c2bfb32013d171a20047e0c17265b4ca56224c5b3e9af0624",
                        "type": "0x00",
                        "cumulativeGasUsed": "0x02796e",
                        "bloom": "0x00000000000000000000000000000000000000000000000000000000000000000000000000000000000000000000000000000000000000000000000000000000000000000000000000000000000000000000000000000000000000000000000000000000000000000000000000000000000000000000000000000000000000000000000000000000000000000000000000000000000000000000000000000000000000000000000000000000000000000000000000000000000000000000000000000000000000000000000000000000000000000000000000000000000000000000000000000000000000000000000000000000000000000000000000000000",
                        "logs": [],
                        "status": true,
                        "rlp": "0xf90109018302796eb9010000000000000000000000000000000000000000000000000000000000000000000000000000000000000000000000000000000000000000000000000000000000000000000000000000000000000000000000000000000000000000000000000000000000000000000000000000000000000000000000000000000000000000000000000000000000000000000000000000000000000000000000000000000000000000000000000000000000000000000000000000000000000000000000000000000000000000000000000000000000000000000000000000000000000000000000000000000000000000000000000000000000000000000000000000000000c0"
                    }
                ],
                "rlp": "0xf902b5f9023ba020c0f034b3073fa100ba2a733a74cb942e96695ea53a37bbd4e81036fb688388a01dcc4de8dec75d7aab85b567b6ccd41ad312451b948a7413f0a142fd40d49347942adc25665018aa1fe0e6bc666dac8fc2697ff9baa0fc41fe9425056ce6962dc3e03374d3d6aaad362b624531bba824e04248b391b8a0c598bd502862a613c059261bf88b31cb48acf30ea8cf08d4c37b3862898c332ca061a1fc84536b4ed0ebbbf78305482ce765e4cdc7324a594c0a1a1e154db7f4f8b901000000000000000000000000000000000000000000000000000000000000000000000000000000000000000000000000000000000000000000000000000000000000000000000000000000000000000000000000000000000000000000000000000000000000000000000000000000000000000000000000000000000000000000000000000000000000000000000000000000000000000000000000000000000000000000000000000000000000000000000000000000000000000000000000000000000000000000000000000000000000000000000000000000000000000000000000000000000000000000000000000000000000000000000000000000000080018407270e008302796e8203e800a0000000000000000000000000000000000000000000000000000000000000000088000000000000000007a056e81f171bcc55a6ff8345e692c0f86e5b48e01b996cadc001622fb5e363b4218080a00000000000000000000000000000000000000000000000000000000000000000f873f871800a831e848094335f443afcdea75ae3b82f65f210014fedf5578a8091610006600081600b8239f360016000550025a0fb90ca2978c56d19473ec7ce9aced33c08a0bc39ecaf25932b96b1a00967578da02c6396d8edd138b8442467ba441d5e114669d25c7250def0e9f5d81f5790fe34c0c0",
                "blocknumber": "1"
            }
        ],
        "sealEngine": "NoProof",
        "_info": {
            "hash": "0xaccbdaf1ec0ebd13f8d63eeacec752aebdfba10aa671a164bb23af7788b730f0",
            "fixture-format": "blockchain_test",
            "comment": "`execution-specs` generated test",
            "filling-transition-tool": "2.19.0",
            "description": "Test that CREATE2 succeeds after a previous CREATE2 at the same address\nwas reverted.\n\nInner call does CREATE2 then REVERTs. Outer call then does the same\nCREATE2 which should succeed since the first was rolled back.",
            "url": "https://github.com/ethereum/execution-specs/blob/tests-sn\u00f8bal-devnet-4@v1.0.0/tests/constantinople/eip1014_create2/test_create2_revert.py#L86",
            "metadata": {
                "opcode_count": {}
            },
            "reference-spec": "https://github.com/ethereum/EIPs/blob/master/EIPS/eip-1014.md",
            "reference-spec-version": "31d4d62ec1dfc9f2bb26ca648f05d4cc2f47da09"
        }
    }
}