{
    "tests/static/state_tests/stShift/sar_2^255-1_256Filler.json::sar_2^255-1_256[fork_Cancun-state_test-]": {
        "env": {
            "currentCoinbase": "0x2adc25665018aa1fe0e6bc666dac8fc2697ff9ba",
            "currentGasLimit": "0x0f4240",
            "currentNumber": "0x01",
            "currentTimestamp": "0x03e8",
            "currentRandom": "0x0000000000000000000000000000000000000000000000000000000000020000",
            "currentDifficulty": "0x00",
            "currentBaseFee": "0x0a",
            "currentExcessBlobGas": "0x00"
        },
        "pre": {
            "0x6f159f59e519b455defd36fb6bf97ceef39f576e": {
                "nonce": "0x00",
                "balance": "0x0de0b6b3a7640000",
                "code": "0x",
                "storage": {}
            },
            "0xee54ffc32e5588b9699754ff9f2e3c070a4a7c24": {
                "nonce": "0x00",
                "balance": "0x0de0b6b3a7640000",
                "code": "0x7f7fffffffffffffffffffffffffffffffffffffffffffffffffffffffffffffff6101001d600055",
                "storage": {
                    "0x00": "0x03"
                }
            }
        },
        "transaction": {
            "nonce": "0x00",
            "gasPrice": "0x0a",
            "gasLimit": [
                "0x061a80"
            ],
            "to": "0xee54ffc32e5588b9699754ff9f2e3c070a4a7c24",
            "value": [
                "0x0186a0"
            ],
            "data": [
                "0x"
            ],
            "sender": "0x6f159f59e519b455defd36fb6bf97ceef39f576e",
            "secretKey": "0x7fb3a8e6d1d35c1d3c6febe8ee54ffc32e5588b9699754ff9f2e3c070a4a7c24"
        },
        "post": {
            "Cancun": [
                {
                    "hash": "0x02a98ddc6292055d3394d3411aca936bb6a9cf497f44ee6893404cf3e92cf570",
                    "logs": "0x1dcc4de8dec75d7aab85b567b6ccd41ad312451b948a7413f0a142fd40d49347",
                    "txbytes": "0xf863800a83061a8094ee54ffc32e5588b9699754ff9f2e3c070a4a7c24830186a08026a07e15659b07147c6f31ceae966cb67edf6ad3f76ddab8aceb8722013e97b8f6d8a07ad018510ea6dca675dfd56346026a41877ee8786c7030ccc93f5cfd09f4a956",
                    "indexes": {
                        "data": 0,
                        "gas": 0,
                        "value": 0
                    },
                    "state": {
                        "0x6f159f59e519b455defd36fb6bf97ceef39f576e": {
                            "nonce": "0x01",
                            "balance": "0x0de0b6b3a75f3cc8",
                            "code": "0x",
                            "storage": {}
                        },
                        "0xee54ffc32e5588b9699754ff9f2e3c070a4a7c24": {
                            "nonce": "0x00",
                            "balance": "0x0de0b6b3a76586a0",
                            "code": "0x7f7fffffffffffffffffffffffffffffffffffffffffffffffffffffffffffffff6101001d600055",
                            "storage": {}
                        }
                    }
                }
            ]
        },
        "config": {
            "blobSchedule": {
                "Cancun": {
                    "target": "0x03",
                    "max": "0x06",
                    "baseFeeUpdateFraction": "0x32f0ed"
                }
            },
            "chainid": "0x01"
        },
        "_info": {
            "hash": "0x9e4f2b43d6f56dc5856a1480d6e5e7eddf1098bf41735364a66ff3705102e35b",
            "comment": "`execution-spec-tests` generated test",
            "filling-transition-tool": "ethereum-spec-evm-resolver 0.0.5",
            "description": "No description available - add a docstring to the python test class or function.",
            "url": "",
            "fixture-format": "state_test",
            "eels-resolution": {
                "git-url": "https://github.com/ethereum/execution-specs.git",
                "branch": "forks/bpos",
                "commit": "7aacb2c54111391af5e98c505d5010b5698a770f"
            }
        }
    },
    "tests/static/state_tests/stShift/sar_2^255-1_256Filler.json::sar_2^255-1_256[fork_Osaka-state_test-]": {
        "env": {
            "currentCoinbase": "0x2adc25665018aa1fe0e6bc666dac8fc2697ff9ba",
            "currentGasLimit": "0x0f4240",
            "currentNumber": "0x01",
            "currentTimestamp": "0x03e8",
            "currentRandom": "0x0000000000000000000000000000000000000000000000000000000000020000",
            "currentDifficulty": "0x00",
            "currentBaseFee": "0x0a",
            "currentExcessBlobGas": "0x00"
        },
        "pre": {
            "0x6f159f59e519b455defd36fb6bf97ceef39f576e": {
                "nonce": "0x00",
                "balance": "0x0de0b6b3a7640000",
                "code": "0x",
                "storage": {}
            },
            "0xee54ffc32e5588b9699754ff9f2e3c070a4a7c24": {
                "nonce": "0x00",
                "balance": "0x0de0b6b3a7640000",
                "code": "0x7f7fffffffffffffffffffffffffffffffffffffffffffffffffffffffffffffff6101001d600055",
                "storage": {
                    "0x00": "0x03"
                }
            }
        },
        "transaction": {
            "nonce": "0x00",
            "gasPrice": "0x0a",
            "gasLimit": [
                "0x061a80"
            ],
            "to": "0xee54ffc32e5588b9699754ff9f2e3c070a4a7c24",
            "value": [
                "0x0186a0"
            ],
            "data": [
                "0x"
            ],
            "sender": "0x6f159f59e519b455defd36fb6bf97ceef39f576e",
            "secretKey": "0x7fb3a8e6d1d35c1d3c6febe8ee54ffc32e5588b9699754ff9f2e3c070a4a7c24"
        },
        "post": {
            "Osaka": [
                {
                    "hash": "0x02a98ddc6292055d3394d3411aca936bb6a9cf497f44ee6893404cf3e92cf570",
                    "logs": "0x1dcc4de8dec75d7aab85b567b6ccd41ad312451b948a7413f0a142fd40d49347",
                    "txbytes": "0xf863800a83061a8094ee54ffc32e5588b9699754ff9f2e3c070a4a7c24830186a08026a07e15659b07147c6f31ceae966cb67edf6ad3f76ddab8aceb8722013e97b8f6d8a07ad018510ea6dca675dfd56346026a41877ee8786c7030ccc93f5cfd09f4a956",
                    "indexes": {
                        "data": 0,
                        "gas": 0,
                        "value": 0
                    },
                    "state": {
                        "0x6f159f59e519b455defd36fb6bf97ceef39f576e": {
                            "nonce": "0x01",
                            "balance": "0x0de0b6b3a75f3cc8",
                            "code": "0x",
                            "storage": {}
                        },
                        "0xee54ffc32e5588b9699754ff9f2e3c070a4a7c24": {
                            "nonce": "0x00",
                            "balance": "0x0de0b6b3a76586a0",
                            "code": "0x7f7fffffffffffffffffffffffffffffffffffffffffffffffffffffffffffffff6101001d600055",
                            "storage": {}
                        }
                    }
                }
            ]
        },
        "config": {
            "blobSchedule": {
                "Cancun": {
                    "target": "0x03",
                    "max": "0x06",
                    "baseFeeUpdateFraction": "0x32f0ed"
                },
                "Prague": {
                    "target": "0x06",
                    "max": "0x09",
                    "baseFeeUpdateFraction": "0x4c6964"
                },
                "Osaka": {
                    "target": "0x06",
                    "max": "0x09",
                    "baseFeeUpdateFraction": "0x4c6964"
                }
            },
            "chainid": "0x01"
        },
        "_info": {
            "hash": "0x9f55cb3489e7de8eee00417c8010d2f2294469d65bd12696d72d04d4db8f046c",
            "comment": "`execution-spec-tests` generated test",
            "filling-transition-tool": "ethereum-spec-evm-resolver 0.0.5",
            "description": "No description available - add a docstring to the python test class or function.",
            "url": "",
            "fixture-format": "state_test",
            "eels-resolution": {
                "git-url": "https://github.com/ethereum/execution-specs.git",
                "branch": "forks/bpos",
                "commit": "7aacb2c54111391af5e98c505d5010b5698a770f"
            }
        }
    },
    "tests/static/state_tests/stShift/sar_2^255-1_256Filler.json::sar_2^255-1_256[fork_Prague-state_test-]": {
        "env": {
            "currentCoinbase": "0x2adc25665018aa1fe0e6bc666dac8fc2697ff9ba",
            "currentGasLimit": "0x0f4240",
            "currentNumber": "0x01",
            "currentTimestamp": "0x03e8",
            "currentRandom": "0x0000000000000000000000000000000000000000000000000000000000020000",
            "currentDifficulty": "0x00",
            "currentBaseFee": "0x0a",
            "currentExcessBlobGas": "0x00"
        },
        "pre": {
            "0x6f159f59e519b455defd36fb6bf97ceef39f576e": {
                "nonce": "0x00",
                "balance": "0x0de0b6b3a7640000",
                "code": "0x",
                "storage": {}
            },
            "0xee54ffc32e5588b9699754ff9f2e3c070a4a7c24": {
                "nonce": "0x00",
                "balance": "0x0de0b6b3a7640000",
                "code": "0x7f7fffffffffffffffffffffffffffffffffffffffffffffffffffffffffffffff6101001d600055",
                "storage": {
                    "0x00": "0x03"
                }
            }
        },
        "transaction": {
            "nonce": "0x00",
            "gasPrice": "0x0a",
            "gasLimit": [
                "0x061a80"
            ],
            "to": "0xee54ffc32e5588b9699754ff9f2e3c070a4a7c24",
            "value": [
                "0x0186a0"
            ],
            "data": [
                "0x"
            ],
            "sender": "0x6f159f59e519b455defd36fb6bf97ceef39f576e",
            "secretKey": "0x7fb3a8e6d1d35c1d3c6febe8ee54ffc32e5588b9699754ff9f2e3c070a4a7c24"
        },
        "post": {
            "Prague": [
                {
                    "hash": "0x02a98ddc6292055d3394d3411aca936bb6a9cf497f44ee6893404cf3e92cf570",
                    "logs": "0x1dcc4de8dec75d7aab85b567b6ccd41ad312451b948a7413f0a142fd40d49347",
                    "txbytes": "0xf863800a83061a8094ee54ffc32e5588b9699754ff9f2e3c070a4a7c24830186a08026a07e15659b07147c6f31ceae966cb67edf6ad3f76ddab8aceb8722013e97b8f6d8a07ad018510ea6dca675dfd56346026a41877ee8786c7030ccc93f5cfd09f4a956",
                    "indexes": {
                        "data": 0,
                        "gas": 0,
                        "value": 0
                    },
                    "state": {
                        "0x6f159f59e519b455defd36fb6bf97ceef39f576e": {
                            "nonce": "0x01",
                            "balance": "0x0de0b6b3a75f3cc8",
                            "code": "0x",
                            "storage": {}
                        },
                        "0xee54ffc32e5588b9699754ff9f2e3c070a4a7c24": {
                            "nonce": "0x00",
                            "balance": "0x0de0b6b3a76586a0",
                            "code": "0x7f7fffffffffffffffffffffffffffffffffffffffffffffffffffffffffffffff6101001d600055",
                            "storage": {}
                        }
                    }
                }
            ]
        },
        "config": {
            "blobSchedule": {
                "Cancun": {
                    "target": "0x03",
                    "max": "0x06",
                    "baseFeeUpdateFraction": "0x32f0ed"
                },
                "Prague": {
                    "target": "0x06",
                    "max": "0x09",
                    "baseFeeUpdateFraction": "0x4c6964"
                }
            },
            "chainid": "0x01"
        },
        "_info": {
            "hash": "0x338f59ec449be2499075df6fcddacdf6d4728baaae018b19db2dc5b85700ba86",
            "comment": "`execution-spec-tests` generated test",
            "filling-transition-tool": "ethereum-spec-evm-resolver 0.0.5",
            "description": "No description available - add a docstring to the python test class or function.",
            "url": "",
            "fixture-format": "state_test",
            "eels-resolution": {
                "git-url": "https://github.com/ethereum/execution-specs.git",
                "branch": "forks/bpos",
                "commit": "7aacb2c54111391af5e98c505d5010b5698a770f"
            }
        }
    }
}