{
    "tests/static/state_tests/stShift/sar_0_256-1Filler.json::sar_0_256-1[fork_Cancun-state_test-]": {
        "env": {
            "currentCoinbase": "0x2adc25665018aa1fe0e6bc666dac8fc2697ff9ba",
            "currentGasLimit": "0x0f4240",
            "currentNumber": "0x01",
            "currentTimestamp": "0x03e8",
            "currentRandom": "0x0000000000000000000000000000000000000000000000000000000000020000",
            "currentDifficulty": "0x00",
            "currentBaseFee": "0x0a",
            "currentExcessBlobGas": "0x00"
        },
        "pre": {
            "0xe79d2050dd6a306750c13d9f9f6902a6364d9a26": {
                "nonce": "0x00",
                "balance": "0x0de0b6b3a7640000",
                "code": "0x",
                "storage": {}
            },
            "0x0e4102f13cf10d576eb6637d876bc037568d4ea9": {
                "nonce": "0x00",
                "balance": "0x0de0b6b3a7640000",
                "code": "0x7fffffffffffffffffffffffffffffffffffffffffffffffffffffffffffffffff60001d60005500",
                "storage": {
                    "0x00": "0x03"
                }
            }
        },
        "transaction": {
            "nonce": "0x00",
            "gasPrice": "0x0a",
            "gasLimit": [
                "0x061a80"
            ],
            "to": "0x0e4102f13cf10d576eb6637d876bc037568d4ea9",
            "value": [
                "0x0186a0"
            ],
            "data": [
                "0x"
            ],
            "sender": "0xe79d2050dd6a306750c13d9f9f6902a6364d9a26",
            "secretKey": "0x8e50d43f235b760f9cdae9540e4102f13cf10d576eb6637d876bc037568d4ea9"
        },
        "post": {
            "Cancun": [
                {
                    "hash": "0x39b982012f18d8698149a74541d3fbd7680cd6d213716dc1264018313c78c940",
                    "logs": "0x1dcc4de8dec75d7aab85b567b6ccd41ad312451b948a7413f0a142fd40d49347",
                    "txbytes": "0xf863800a83061a80940e4102f13cf10d576eb6637d876bc037568d4ea9830186a08026a031191bc7c0c7f8eeaa6923509c66b0349e2c7a8789d962df2e23bcbec9933895a02f10cabf1994cb31608244077e8c863f96c5f2f30f9a876e976a1ae4ebd572c4",
                    "indexes": {
                        "data": 0,
                        "gas": 0,
                        "value": 0
                    },
                    "state": {
                        "0xe79d2050dd6a306750c13d9f9f6902a6364d9a26": {
                            "nonce": "0x01",
                            "balance": "0x0de0b6b3a75e8148",
                            "code": "0x",
                            "storage": {}
                        },
                        "0x0e4102f13cf10d576eb6637d876bc037568d4ea9": {
                            "nonce": "0x00",
                            "balance": "0x0de0b6b3a76586a0",
                            "code": "0x7fffffffffffffffffffffffffffffffffffffffffffffffffffffffffffffffff60001d60005500",
                            "storage": {
                                "0x00": "0xffffffffffffffffffffffffffffffffffffffffffffffffffffffffffffffff"
                            }
                        }
                    }
                }
            ]
        },
        "config": {
            "blobSchedule": {
                "Cancun": {
                    "target": "0x03",
                    "max": "0x06",
                    "baseFeeUpdateFraction": "0x32f0ed"
                }
            },
            "chainid": "0x01"
        },
        "_info": {
            "hash": "0x9cfd1eef57528adb436e43ddc084e2b23151250094fd412772a20009f8b7848f",
            "comment": "`execution-spec-tests` generated test",
            "filling-transition-tool": "ethereum-spec-evm-resolver 0.0.5",
            "description": "No description available - add a docstring to the python test class or function.",
            "url": "",
            "fixture-format": "state_test",
            "eels-resolution": {
                "git-url": "https://github.com/ethereum/execution-specs.git",
                "branch": "forks/bpos",
                "commit": "7aacb2c54111391af5e98c505d5010b5698a770f"
            }
        }
    },
    "tests/static/state_tests/stShift/sar_0_256-1Filler.json::sar_0_256-1[fork_Osaka-state_test-]": {
        "env": {
            "currentCoinbase": "0x2adc25665018aa1fe0e6bc666dac8fc2697ff9ba",
            "currentGasLimit": "0x0f4240",
            "currentNumber": "0x01",
            "currentTimestamp": "0x03e8",
            "currentRandom": "0x0000000000000000000000000000000000000000000000000000000000020000",
            "currentDifficulty": "0x00",
            "currentBaseFee": "0x0a",
            "currentExcessBlobGas": "0x00"
        },
        "pre": {
            "0xe79d2050dd6a306750c13d9f9f6902a6364d9a26": {
                "nonce": "0x00",
                "balance": "0x0de0b6b3a7640000",
                "code": "0x",
                "storage": {}
            },
            "0x0e4102f13cf10d576eb6637d876bc037568d4ea9": {
                "nonce": "0x00",
                "balance": "0x0de0b6b3a7640000",
                "code": "0x7fffffffffffffffffffffffffffffffffffffffffffffffffffffffffffffffff60001d60005500",
                "storage": {
                    "0x00": "0x03"
                }
            }
        },
        "transaction": {
            "nonce": "0x00",
            "gasPrice": "0x0a",
            "gasLimit": [
                "0x061a80"
            ],
            "to": "0x0e4102f13cf10d576eb6637d876bc037568d4ea9",
            "value": [
                "0x0186a0"
            ],
            "data": [
                "0x"
            ],
            "sender": "0xe79d2050dd6a306750c13d9f9f6902a6364d9a26",
            "secretKey": "0x8e50d43f235b760f9cdae9540e4102f13cf10d576eb6637d876bc037568d4ea9"
        },
        "post": {
            "Osaka": [
                {
                    "hash": "0x39b982012f18d8698149a74541d3fbd7680cd6d213716dc1264018313c78c940",
                    "logs": "0x1dcc4de8dec75d7aab85b567b6ccd41ad312451b948a7413f0a142fd40d49347",
                    "txbytes": "0xf863800a83061a80940e4102f13cf10d576eb6637d876bc037568d4ea9830186a08026a031191bc7c0c7f8eeaa6923509c66b0349e2c7a8789d962df2e23bcbec9933895a02f10cabf1994cb31608244077e8c863f96c5f2f30f9a876e976a1ae4ebd572c4",
                    "indexes": {
                        "data": 0,
                        "gas": 0,
                        "value": 0
                    },
                    "state": {
                        "0xe79d2050dd6a306750c13d9f9f6902a6364d9a26": {
                            "nonce": "0x01",
                            "balance": "0x0de0b6b3a75e8148",
                            "code": "0x",
                            "storage": {}
                        },
                        "0x0e4102f13cf10d576eb6637d876bc037568d4ea9": {
                            "nonce": "0x00",
                            "balance": "0x0de0b6b3a76586a0",
                            "code": "0x7fffffffffffffffffffffffffffffffffffffffffffffffffffffffffffffffff60001d60005500",
                            "storage": {
                                "0x00": "0xffffffffffffffffffffffffffffffffffffffffffffffffffffffffffffffff"
                            }
                        }
                    }
                }
            ]
        },
        "config": {
            "blobSchedule": {
                "Cancun": {
                    "target": "0x03",
                    "max": "0x06",
                    "baseFeeUpdateFraction": "0x32f0ed"
                },
                "Prague": {
                    "target": "0x06",
                    "max": "0x09",
                    "baseFeeUpdateFraction": "0x4c6964"
                },
                "Osaka": {
                    "target": "0x06",
                    "max": "0x09",
                    "baseFeeUpdateFraction": "0x4c6964"
                }
            },
            "chainid": "0x01"
        },
        "_info": {
            "hash": "0x2aa356acdce3726fd6560cf1a517616b4b3c59489f791e0da17af9f8e7e2af26",
            "comment": "`execution-spec-tests` generated test",
            "filling-transition-tool": "ethereum-spec-evm-resolver 0.0.5",
            "description": "No description available - add a docstring to the python test class or function.",
            "url": "",
            "fixture-format": "state_test",
            "eels-resolution": {
                "git-url": "https://github.com/ethereum/execution-specs.git",
                "branch": "forks/bpos",
                "commit": "7aacb2c54111391af5e98c505d5010b5698a770f"
            }
        }
    },
    "tests/static/state_tests/stShift/sar_0_256-1Filler.json::sar_0_256-1[fork_Prague-state_test-]": {
        "env": {
            "currentCoinbase": "0x2adc25665018aa1fe0e6bc666dac8fc2697ff9ba",
            "currentGasLimit": "0x0f4240",
            "currentNumber": "0x01",
            "currentTimestamp": "0x03e8",
            "currentRandom": "0x0000000000000000000000000000000000000000000000000000000000020000",
            "currentDifficulty": "0x00",
            "currentBaseFee": "0x0a",
            "currentExcessBlobGas": "0x00"
        },
        "pre": {
            "0xe79d2050dd6a306750c13d9f9f6902a6364d9a26": {
                "nonce": "0x00",
                "balance": "0x0de0b6b3a7640000",
                "code": "0x",
                "storage": {}
            },
            "0x0e4102f13cf10d576eb6637d876bc037568d4ea9": {
                "nonce": "0x00",
                "balance": "0x0de0b6b3a7640000",
                "code": "0x7fffffffffffffffffffffffffffffffffffffffffffffffffffffffffffffffff60001d60005500",
                "storage": {
                    "0x00": "0x03"
                }
            }
        },
        "transaction": {
            "nonce": "0x00",
            "gasPrice": "0x0a",
            "gasLimit": [
                "0x061a80"
            ],
            "to": "0x0e4102f13cf10d576eb6637d876bc037568d4ea9",
            "value": [
                "0x0186a0"
            ],
            "data": [
                "0x"
            ],
            "sender": "0xe79d2050dd6a306750c13d9f9f6902a6364d9a26",
            "secretKey": "0x8e50d43f235b760f9cdae9540e4102f13cf10d576eb6637d876bc037568d4ea9"
        },
        "post": {
            "Prague": [
                {
                    "hash": "0x39b982012f18d8698149a74541d3fbd7680cd6d213716dc1264018313c78c940",
                    "logs": "0x1dcc4de8dec75d7aab85b567b6ccd41ad312451b948a7413f0a142fd40d49347",
                    "txbytes": "0xf863800a83061a80940e4102f13cf10d576eb6637d876bc037568d4ea9830186a08026a031191bc7c0c7f8eeaa6923509c66b0349e2c7a8789d962df2e23bcbec9933895a02f10cabf1994cb31608244077e8c863f96c5f2f30f9a876e976a1ae4ebd572c4",
                    "indexes": {
                        "data": 0,
                        "gas": 0,
                        "value": 0
                    },
                    "state": {
                        "0xe79d2050dd6a306750c13d9f9f6902a6364d9a26": {
                            "nonce": "0x01",
                            "balance": "0x0de0b6b3a75e8148",
                            "code": "0x",
                            "storage": {}
                        },
                        "0x0e4102f13cf10d576eb6637d876bc037568d4ea9": {
                            "nonce": "0x00",
                            "balance": "0x0de0b6b3a76586a0",
                            "code": "0x7fffffffffffffffffffffffffffffffffffffffffffffffffffffffffffffffff60001d60005500",
                            "storage": {
                                "0x00": "0xffffffffffffffffffffffffffffffffffffffffffffffffffffffffffffffff"
                            }
                        }
                    }
                }
            ]
        },
        "config": {
            "blobSchedule": {
                "Cancun": {
                    "target": "0x03",
                    "max": "0x06",
                    "baseFeeUpdateFraction": "0x32f0ed"
                },
                "Prague": {
                    "target": "0x06",
                    "max": "0x09",
                    "baseFeeUpdateFraction": "0x4c6964"
                }
            },
            "chainid": "0x01"
        },
        "_info": {
            "hash": "0xd6a96e1af5656ff617ddd73f55d8afe25bc38ba25243189252b98cb0b4b44f41",
            "comment": "`execution-spec-tests` generated test",
            "filling-transition-tool": "ethereum-spec-evm-resolver 0.0.5",
            "description": "No description available - add a docstring to the python test class or function.",
            "url": "",
            "fixture-format": "state_test",
            "eels-resolution": {
                "git-url": "https://github.com/ethereum/execution-specs.git",
                "branch": "forks/bpos",
                "commit": "7aacb2c54111391af5e98c505d5010b5698a770f"
            }
        }
    }
}