{
    "tests/static/state_tests/stShift/shl01-0100Filler.json::shl01-0100[fork_Cancun-state_test-]": {
        "env": {
            "currentCoinbase": "0x2adc25665018aa1fe0e6bc666dac8fc2697ff9ba",
            "currentGasLimit": "0x0f4240",
            "currentNumber": "0x01",
            "currentTimestamp": "0x03e8",
            "currentRandom": "0x0000000000000000000000000000000000000000000000000000000000020000",
            "currentDifficulty": "0x00",
            "currentBaseFee": "0x0a",
            "currentExcessBlobGas": "0x00"
        },
        "pre": {
            "0xf6732e37938de5da3394bd7535e4ee54083d7c04": {
                "nonce": "0x00",
                "balance": "0x0de0b6b3a7640000",
                "code": "0x",
                "storage": {}
            },
            "0x41547777ec9c9d872cb6d98908b977927f00ee03": {
                "nonce": "0x00",
                "balance": "0x0de0b6b3a7640000",
                "code": "0x60016101001b600055",
                "storage": {
                    "0x00": "0x03"
                }
            }
        },
        "transaction": {
            "nonce": "0x00",
            "gasPrice": "0x0a",
            "gasLimit": [
                "0x061a80"
            ],
            "to": "0x41547777ec9c9d872cb6d98908b977927f00ee03",
            "value": [
                "0x0186a0"
            ],
            "data": [
                "0x"
            ],
            "sender": "0xf6732e37938de5da3394bd7535e4ee54083d7c04",
            "secretKey": "0x79d74a1962c6189af8fe206741547777ec9c9d872cb6d98908b977927f00ee03"
        },
        "post": {
            "Cancun": [
                {
                    "hash": "0x88f7e824d58f97d939e87a4c3784b03e2bfc10c7f2bd1ea4894ebceb1fdfdd66",
                    "logs": "0x1dcc4de8dec75d7aab85b567b6ccd41ad312451b948a7413f0a142fd40d49347",
                    "txbytes": "0xf863800a83061a809441547777ec9c9d872cb6d98908b977927f00ee03830186a08026a0b7c705f8d1e731595891334b775177603e760c54c14fb3d0f066070493c5f12ea0365d1dd3dd0afb571d00ebf3d3aef8f764c9eb977968c14f2b9477ebce37d13e",
                    "indexes": {
                        "data": 0,
                        "gas": 0,
                        "value": 0
                    },
                    "state": {
                        "0xf6732e37938de5da3394bd7535e4ee54083d7c04": {
                            "nonce": "0x01",
                            "balance": "0x0de0b6b3a75f3cc8",
                            "code": "0x",
                            "storage": {}
                        },
                        "0x41547777ec9c9d872cb6d98908b977927f00ee03": {
                            "nonce": "0x00",
                            "balance": "0x0de0b6b3a76586a0",
                            "code": "0x60016101001b600055",
                            "storage": {}
                        }
                    }
                }
            ]
        },
        "config": {
            "blobSchedule": {
                "Cancun": {
                    "target": "0x03",
                    "max": "0x06",
                    "baseFeeUpdateFraction": "0x32f0ed"
                }
            },
            "chainid": "0x01"
        },
        "_info": {
            "hash": "0x4937c374caf0001a18b85034405212a81199e1f4c4f537729beb7f1dae742bc5",
            "comment": "`execution-specs` generated test",
            "filling-transition-tool": "2.18.0rc6",
            "description": "No description available - add a docstring to the python test class or function.",
            "url": "",
            "fixture-format": "state_test"
        }
    },
    "tests/static/state_tests/stShift/shl01-0100Filler.json::shl01-0100[fork_Osaka-state_test-]": {
        "env": {
            "currentCoinbase": "0x2adc25665018aa1fe0e6bc666dac8fc2697ff9ba",
            "currentGasLimit": "0x0f4240",
            "currentNumber": "0x01",
            "currentTimestamp": "0x03e8",
            "currentRandom": "0x0000000000000000000000000000000000000000000000000000000000020000",
            "currentDifficulty": "0x00",
            "currentBaseFee": "0x0a",
            "currentExcessBlobGas": "0x00"
        },
        "pre": {
            "0xf6732e37938de5da3394bd7535e4ee54083d7c04": {
                "nonce": "0x00",
                "balance": "0x0de0b6b3a7640000",
                "code": "0x",
                "storage": {}
            },
            "0x41547777ec9c9d872cb6d98908b977927f00ee03": {
                "nonce": "0x00",
                "balance": "0x0de0b6b3a7640000",
                "code": "0x60016101001b600055",
                "storage": {
                    "0x00": "0x03"
                }
            }
        },
        "transaction": {
            "nonce": "0x00",
            "gasPrice": "0x0a",
            "gasLimit": [
                "0x061a80"
            ],
            "to": "0x41547777ec9c9d872cb6d98908b977927f00ee03",
            "value": [
                "0x0186a0"
            ],
            "data": [
                "0x"
            ],
            "sender": "0xf6732e37938de5da3394bd7535e4ee54083d7c04",
            "secretKey": "0x79d74a1962c6189af8fe206741547777ec9c9d872cb6d98908b977927f00ee03"
        },
        "post": {
            "Osaka": [
                {
                    "hash": "0x88f7e824d58f97d939e87a4c3784b03e2bfc10c7f2bd1ea4894ebceb1fdfdd66",
                    "logs": "0x1dcc4de8dec75d7aab85b567b6ccd41ad312451b948a7413f0a142fd40d49347",
                    "txbytes": "0xf863800a83061a809441547777ec9c9d872cb6d98908b977927f00ee03830186a08026a0b7c705f8d1e731595891334b775177603e760c54c14fb3d0f066070493c5f12ea0365d1dd3dd0afb571d00ebf3d3aef8f764c9eb977968c14f2b9477ebce37d13e",
                    "indexes": {
                        "data": 0,
                        "gas": 0,
                        "value": 0
                    },
                    "state": {
                        "0xf6732e37938de5da3394bd7535e4ee54083d7c04": {
                            "nonce": "0x01",
                            "balance": "0x0de0b6b3a75f3cc8",
                            "code": "0x",
                            "storage": {}
                        },
                        "0x41547777ec9c9d872cb6d98908b977927f00ee03": {
                            "nonce": "0x00",
                            "balance": "0x0de0b6b3a76586a0",
                            "code": "0x60016101001b600055",
                            "storage": {}
                        }
                    }
                }
            ]
        },
        "config": {
            "blobSchedule": {
                "Cancun": {
                    "target": "0x03",
                    "max": "0x06",
                    "baseFeeUpdateFraction": "0x32f0ed"
                },
                "Prague": {
                    "target": "0x06",
                    "max": "0x09",
                    "baseFeeUpdateFraction": "0x4c6964"
                },
                "Osaka": {
                    "target": "0x06",
                    "max": "0x09",
                    "baseFeeUpdateFraction": "0x4c6964"
                }
            },
            "chainid": "0x01"
        },
        "_info": {
            "hash": "0x605db836b54b31a065f1684ea1dece497fcc7d9dd58c5c7b51eecb6dea64ac58",
            "comment": "`execution-specs` generated test",
            "filling-transition-tool": "2.18.0rc6",
            "description": "No description available - add a docstring to the python test class or function.",
            "url": "",
            "fixture-format": "state_test"
        }
    },
    "tests/static/state_tests/stShift/shl01-0100Filler.json::shl01-0100[fork_Prague-state_test-]": {
        "env": {
            "currentCoinbase": "0x2adc25665018aa1fe0e6bc666dac8fc2697ff9ba",
            "currentGasLimit": "0x0f4240",
            "currentNumber": "0x01",
            "currentTimestamp": "0x03e8",
            "currentRandom": "0x0000000000000000000000000000000000000000000000000000000000020000",
            "currentDifficulty": "0x00",
            "currentBaseFee": "0x0a",
            "currentExcessBlobGas": "0x00"
        },
        "pre": {
            "0xf6732e37938de5da3394bd7535e4ee54083d7c04": {
                "nonce": "0x00",
                "balance": "0x0de0b6b3a7640000",
                "code": "0x",
                "storage": {}
            },
            "0x41547777ec9c9d872cb6d98908b977927f00ee03": {
                "nonce": "0x00",
                "balance": "0x0de0b6b3a7640000",
                "code": "0x60016101001b600055",
                "storage": {
                    "0x00": "0x03"
                }
            }
        },
        "transaction": {
            "nonce": "0x00",
            "gasPrice": "0x0a",
            "gasLimit": [
                "0x061a80"
            ],
            "to": "0x41547777ec9c9d872cb6d98908b977927f00ee03",
            "value": [
                "0x0186a0"
            ],
            "data": [
                "0x"
            ],
            "sender": "0xf6732e37938de5da3394bd7535e4ee54083d7c04",
            "secretKey": "0x79d74a1962c6189af8fe206741547777ec9c9d872cb6d98908b977927f00ee03"
        },
        "post": {
            "Prague": [
                {
                    "hash": "0x88f7e824d58f97d939e87a4c3784b03e2bfc10c7f2bd1ea4894ebceb1fdfdd66",
                    "logs": "0x1dcc4de8dec75d7aab85b567b6ccd41ad312451b948a7413f0a142fd40d49347",
                    "txbytes": "0xf863800a83061a809441547777ec9c9d872cb6d98908b977927f00ee03830186a08026a0b7c705f8d1e731595891334b775177603e760c54c14fb3d0f066070493c5f12ea0365d1dd3dd0afb571d00ebf3d3aef8f764c9eb977968c14f2b9477ebce37d13e",
                    "indexes": {
                        "data": 0,
                        "gas": 0,
                        "value": 0
                    },
                    "state": {
                        "0xf6732e37938de5da3394bd7535e4ee54083d7c04": {
                            "nonce": "0x01",
                            "balance": "0x0de0b6b3a75f3cc8",
                            "code": "0x",
                            "storage": {}
                        },
                        "0x41547777ec9c9d872cb6d98908b977927f00ee03": {
                            "nonce": "0x00",
                            "balance": "0x0de0b6b3a76586a0",
                            "code": "0x60016101001b600055",
                            "storage": {}
                        }
                    }
                }
            ]
        },
        "config": {
            "blobSchedule": {
                "Cancun": {
                    "target": "0x03",
                    "max": "0x06",
                    "baseFeeUpdateFraction": "0x32f0ed"
                },
                "Prague": {
                    "target": "0x06",
                    "max": "0x09",
                    "baseFeeUpdateFraction": "0x4c6964"
                }
            },
            "chainid": "0x01"
        },
        "_info": {
            "hash": "0xfe4132647e3f458f313e0e55eb017dc48c94e8dfd1ad5d97aaad24f92a363167",
            "comment": "`execution-specs` generated test",
            "filling-transition-tool": "2.18.0rc6",
            "description": "No description available - add a docstring to the python test class or function.",
            "url": "",
            "fixture-format": "state_test"
        }
    }
}