{
    "tests/static/state_tests/stShift/shl_-1_0Filler.json::shl_-1_0[fork_Cancun-state_test-]": {
        "env": {
            "currentCoinbase": "0x2adc25665018aa1fe0e6bc666dac8fc2697ff9ba",
            "currentGasLimit": "0x0f4240",
            "currentNumber": "0x01",
            "currentTimestamp": "0x03e8",
            "currentRandom": "0x0000000000000000000000000000000000000000000000000000000000020000",
            "currentDifficulty": "0x00",
            "currentBaseFee": "0x0a",
            "currentExcessBlobGas": "0x00"
        },
        "pre": {
            "0xad54d0ffe7b2cc5ab99f796db4d9c7303d058ae2": {
                "nonce": "0x00",
                "balance": "0x0de0b6b3a7640000",
                "code": "0x",
                "storage": {}
            },
            "0x03da3c26adaeffe38cbc94e76adf28f76e5cc661": {
                "nonce": "0x00",
                "balance": "0x0de0b6b3a7640000",
                "code": "0x7fffffffffffffffffffffffffffffffffffffffffffffffffffffffffffffffff60001b600055",
                "storage": {
                    "0x00": "0x03"
                }
            }
        },
        "transaction": {
            "nonce": "0x00",
            "gasPrice": "0x0a",
            "gasLimit": [
                "0x061a80"
            ],
            "to": "0x03da3c26adaeffe38cbc94e76adf28f76e5cc661",
            "value": [
                "0x0186a0"
            ],
            "data": [
                "0x"
            ],
            "sender": "0xad54d0ffe7b2cc5ab99f796db4d9c7303d058ae2",
            "secretKey": "0x40e15da9b6df50be00159b3f03da3c26adaeffe38cbc94e76adf28f76e5cc661"
        },
        "post": {
            "Cancun": [
                {
                    "hash": "0x2c7805700abb1f0ba961901c6c793004454bde628f3d6e3b84b503ea2f5a9d63",
                    "logs": "0x1dcc4de8dec75d7aab85b567b6ccd41ad312451b948a7413f0a142fd40d49347",
                    "txbytes": "0xf863800a83061a809403da3c26adaeffe38cbc94e76adf28f76e5cc661830186a08025a02b0c1609fb2c1a5137ea038cc774caba0430477896355484be27d3fe16d75c25a00b360e54dda15db618bb3b568be2941f2ba431df25cdd35740ef6576af60605c",
                    "indexes": {
                        "data": 0,
                        "gas": 0,
                        "value": 0
                    },
                    "state": {
                        "0xad54d0ffe7b2cc5ab99f796db4d9c7303d058ae2": {
                            "nonce": "0x01",
                            "balance": "0x0de0b6b3a75e8148",
                            "code": "0x",
                            "storage": {}
                        },
                        "0x03da3c26adaeffe38cbc94e76adf28f76e5cc661": {
                            "nonce": "0x00",
                            "balance": "0x0de0b6b3a76586a0",
                            "code": "0x7fffffffffffffffffffffffffffffffffffffffffffffffffffffffffffffffff60001b600055",
                            "storage": {
                                "0x00": "0xffffffffffffffffffffffffffffffffffffffffffffffffffffffffffffffff"
                            }
                        }
                    }
                }
            ]
        },
        "config": {
            "blobSchedule": {
                "Cancun": {
                    "target": "0x03",
                    "max": "0x06",
                    "baseFeeUpdateFraction": "0x32f0ed"
                }
            },
            "chainid": "0x01"
        },
        "_info": {
            "hash": "0x39da7feae21b416017a28741edff08b7b7b28e22508ed4795330843fd8bb60eb",
            "comment": "`execution-specs` generated test",
            "filling-transition-tool": "2.18.0rc6",
            "description": "No description available - add a docstring to the python test class or function.",
            "url": "",
            "fixture-format": "state_test"
        }
    },
    "tests/static/state_tests/stShift/shl_-1_0Filler.json::shl_-1_0[fork_Osaka-state_test-]": {
        "env": {
            "currentCoinbase": "0x2adc25665018aa1fe0e6bc666dac8fc2697ff9ba",
            "currentGasLimit": "0x0f4240",
            "currentNumber": "0x01",
            "currentTimestamp": "0x03e8",
            "currentRandom": "0x0000000000000000000000000000000000000000000000000000000000020000",
            "currentDifficulty": "0x00",
            "currentBaseFee": "0x0a",
            "currentExcessBlobGas": "0x00"
        },
        "pre": {
            "0xad54d0ffe7b2cc5ab99f796db4d9c7303d058ae2": {
                "nonce": "0x00",
                "balance": "0x0de0b6b3a7640000",
                "code": "0x",
                "storage": {}
            },
            "0x03da3c26adaeffe38cbc94e76adf28f76e5cc661": {
                "nonce": "0x00",
                "balance": "0x0de0b6b3a7640000",
                "code": "0x7fffffffffffffffffffffffffffffffffffffffffffffffffffffffffffffffff60001b600055",
                "storage": {
                    "0x00": "0x03"
                }
            }
        },
        "transaction": {
            "nonce": "0x00",
            "gasPrice": "0x0a",
            "gasLimit": [
                "0x061a80"
            ],
            "to": "0x03da3c26adaeffe38cbc94e76adf28f76e5cc661",
            "value": [
                "0x0186a0"
            ],
            "data": [
                "0x"
            ],
            "sender": "0xad54d0ffe7b2cc5ab99f796db4d9c7303d058ae2",
            "secretKey": "0x40e15da9b6df50be00159b3f03da3c26adaeffe38cbc94e76adf28f76e5cc661"
        },
        "post": {
            "Osaka": [
                {
                    "hash": "0x2c7805700abb1f0ba961901c6c793004454bde628f3d6e3b84b503ea2f5a9d63",
                    "logs": "0x1dcc4de8dec75d7aab85b567b6ccd41ad312451b948a7413f0a142fd40d49347",
                    "txbytes": "0xf863800a83061a809403da3c26adaeffe38cbc94e76adf28f76e5cc661830186a08025a02b0c1609fb2c1a5137ea038cc774caba0430477896355484be27d3fe16d75c25a00b360e54dda15db618bb3b568be2941f2ba431df25cdd35740ef6576af60605c",
                    "indexes": {
                        "data": 0,
                        "gas": 0,
                        "value": 0
                    },
                    "state": {
                        "0xad54d0ffe7b2cc5ab99f796db4d9c7303d058ae2": {
                            "nonce": "0x01",
                            "balance": "0x0de0b6b3a75e8148",
                            "code": "0x",
                            "storage": {}
                        },
                        "0x03da3c26adaeffe38cbc94e76adf28f76e5cc661": {
                            "nonce": "0x00",
                            "balance": "0x0de0b6b3a76586a0",
                            "code": "0x7fffffffffffffffffffffffffffffffffffffffffffffffffffffffffffffffff60001b600055",
                            "storage": {
                                "0x00": "0xffffffffffffffffffffffffffffffffffffffffffffffffffffffffffffffff"
                            }
                        }
                    }
                }
            ]
        },
        "config": {
            "blobSchedule": {
                "Cancun": {
                    "target": "0x03",
                    "max": "0x06",
                    "baseFeeUpdateFraction": "0x32f0ed"
                },
                "Prague": {
                    "target": "0x06",
                    "max": "0x09",
                    "baseFeeUpdateFraction": "0x4c6964"
                },
                "Osaka": {
                    "target": "0x06",
                    "max": "0x09",
                    "baseFeeUpdateFraction": "0x4c6964"
                }
            },
            "chainid": "0x01"
        },
        "_info": {
            "hash": "0x355937c775ca0ca2e188adaf919b4742dc5cbab2d2f916fe6a5410da308b6e30",
            "comment": "`execution-specs` generated test",
            "filling-transition-tool": "2.18.0rc6",
            "description": "No description available - add a docstring to the python test class or function.",
            "url": "",
            "fixture-format": "state_test"
        }
    },
    "tests/static/state_tests/stShift/shl_-1_0Filler.json::shl_-1_0[fork_Prague-state_test-]": {
        "env": {
            "currentCoinbase": "0x2adc25665018aa1fe0e6bc666dac8fc2697ff9ba",
            "currentGasLimit": "0x0f4240",
            "currentNumber": "0x01",
            "currentTimestamp": "0x03e8",
            "currentRandom": "0x0000000000000000000000000000000000000000000000000000000000020000",
            "currentDifficulty": "0x00",
            "currentBaseFee": "0x0a",
            "currentExcessBlobGas": "0x00"
        },
        "pre": {
            "0xad54d0ffe7b2cc5ab99f796db4d9c7303d058ae2": {
                "nonce": "0x00",
                "balance": "0x0de0b6b3a7640000",
                "code": "0x",
                "storage": {}
            },
            "0x03da3c26adaeffe38cbc94e76adf28f76e5cc661": {
                "nonce": "0x00",
                "balance": "0x0de0b6b3a7640000",
                "code": "0x7fffffffffffffffffffffffffffffffffffffffffffffffffffffffffffffffff60001b600055",
                "storage": {
                    "0x00": "0x03"
                }
            }
        },
        "transaction": {
            "nonce": "0x00",
            "gasPrice": "0x0a",
            "gasLimit": [
                "0x061a80"
            ],
            "to": "0x03da3c26adaeffe38cbc94e76adf28f76e5cc661",
            "value": [
                "0x0186a0"
            ],
            "data": [
                "0x"
            ],
            "sender": "0xad54d0ffe7b2cc5ab99f796db4d9c7303d058ae2",
            "secretKey": "0x40e15da9b6df50be00159b3f03da3c26adaeffe38cbc94e76adf28f76e5cc661"
        },
        "post": {
            "Prague": [
                {
                    "hash": "0x2c7805700abb1f0ba961901c6c793004454bde628f3d6e3b84b503ea2f5a9d63",
                    "logs": "0x1dcc4de8dec75d7aab85b567b6ccd41ad312451b948a7413f0a142fd40d49347",
                    "txbytes": "0xf863800a83061a809403da3c26adaeffe38cbc94e76adf28f76e5cc661830186a08025a02b0c1609fb2c1a5137ea038cc774caba0430477896355484be27d3fe16d75c25a00b360e54dda15db618bb3b568be2941f2ba431df25cdd35740ef6576af60605c",
                    "indexes": {
                        "data": 0,
                        "gas": 0,
                        "value": 0
                    },
                    "state": {
                        "0xad54d0ffe7b2cc5ab99f796db4d9c7303d058ae2": {
                            "nonce": "0x01",
                            "balance": "0x0de0b6b3a75e8148",
                            "code": "0x",
                            "storage": {}
                        },
                        "0x03da3c26adaeffe38cbc94e76adf28f76e5cc661": {
                            "nonce": "0x00",
                            "balance": "0x0de0b6b3a76586a0",
                            "code": "0x7fffffffffffffffffffffffffffffffffffffffffffffffffffffffffffffffff60001b600055",
                            "storage": {
                                "0x00": "0xffffffffffffffffffffffffffffffffffffffffffffffffffffffffffffffff"
                            }
                        }
                    }
                }
            ]
        },
        "config": {
            "blobSchedule": {
                "Cancun": {
                    "target": "0x03",
                    "max": "0x06",
                    "baseFeeUpdateFraction": "0x32f0ed"
                },
                "Prague": {
                    "target": "0x06",
                    "max": "0x09",
                    "baseFeeUpdateFraction": "0x4c6964"
                }
            },
            "chainid": "0x01"
        },
        "_info": {
            "hash": "0x5b907c28aa2e4a529ba544722f1e55192687817f19694d1552cb7634cbb32239",
            "comment": "`execution-specs` generated test",
            "filling-transition-tool": "2.18.0rc6",
            "description": "No description available - add a docstring to the python test class or function.",
            "url": "",
            "fixture-format": "state_test"
        }
    }
}