{
    "tests/static/state_tests/stShift/shr_2^255_256Filler.json::shr_2^255_256[fork_Cancun-state_test-]": {
        "env": {
            "currentCoinbase": "0x2adc25665018aa1fe0e6bc666dac8fc2697ff9ba",
            "currentGasLimit": "0x0f4240",
            "currentNumber": "0x01",
            "currentTimestamp": "0x03e8",
            "currentRandom": "0x0000000000000000000000000000000000000000000000000000000000020000",
            "currentDifficulty": "0x00",
            "currentBaseFee": "0x0a",
            "currentExcessBlobGas": "0x00"
        },
        "pre": {
            "0x510d7eb3108e6abb1b4cf14eac740cd29746e1fc": {
                "nonce": "0x00",
                "balance": "0x0de0b6b3a7640000",
                "code": "0x",
                "storage": {}
            },
            "0x0040cc427cc2b165c670b01c3d80ebaa567a2e8d": {
                "nonce": "0x00",
                "balance": "0x0de0b6b3a7640000",
                "code": "0x7f80000000000000000000000000000000000000000000000000000000000000006101001c600055",
                "storage": {
                    "0x00": "0x03"
                }
            }
        },
        "transaction": {
            "nonce": "0x00",
            "gasPrice": "0x0a",
            "gasLimit": [
                "0x061a80"
            ],
            "to": "0x0040cc427cc2b165c670b01c3d80ebaa567a2e8d",
            "value": [
                "0x0186a0"
            ],
            "data": [
                "0x"
            ],
            "sender": "0x510d7eb3108e6abb1b4cf14eac740cd29746e1fc",
            "secretKey": "0x4cf3b88f4129c45b5b85661e0040cc427cc2b165c670b01c3d80ebaa567a2e8d"
        },
        "post": {
            "Cancun": [
                {
                    "hash": "0xf62a6cccf30474956a86ec68125a3fc85f23455c5d0038563eb1b0e500db5700",
                    "logs": "0x1dcc4de8dec75d7aab85b567b6ccd41ad312451b948a7413f0a142fd40d49347",
                    "txbytes": "0xf863800a83061a80940040cc427cc2b165c670b01c3d80ebaa567a2e8d830186a08026a0a2224defe154eb8e23be9d3bcb14941d6c5ca3fe5a6baeab19e78725c4826b53a004c4151c93b5662f7c6fb60977fdf8ead85ab570fe21ee5fca7250bbf1cb837e",
                    "indexes": {
                        "data": 0,
                        "gas": 0,
                        "value": 0
                    },
                    "state": {
                        "0x510d7eb3108e6abb1b4cf14eac740cd29746e1fc": {
                            "nonce": "0x01",
                            "balance": "0x0de0b6b3a75f3cc8",
                            "code": "0x",
                            "storage": {}
                        },
                        "0x0040cc427cc2b165c670b01c3d80ebaa567a2e8d": {
                            "nonce": "0x00",
                            "balance": "0x0de0b6b3a76586a0",
                            "code": "0x7f80000000000000000000000000000000000000000000000000000000000000006101001c600055",
                            "storage": {}
                        }
                    }
                }
            ]
        },
        "config": {
            "blobSchedule": {
                "Cancun": {
                    "target": "0x03",
                    "max": "0x06",
                    "baseFeeUpdateFraction": "0x32f0ed"
                }
            },
            "chainid": "0x01"
        },
        "_info": {
            "hash": "0xcb0ba09b0fa2578c028ee51fd1be7fa6aa0e58812cdf71a035a179789c980250",
            "comment": "`execution-specs` generated test",
            "filling-transition-tool": "2.18.0rc6",
            "description": "No description available - add a docstring to the python test class or function.",
            "url": "",
            "fixture-format": "state_test"
        }
    },
    "tests/static/state_tests/stShift/shr_2^255_256Filler.json::shr_2^255_256[fork_Osaka-state_test-]": {
        "env": {
            "currentCoinbase": "0x2adc25665018aa1fe0e6bc666dac8fc2697ff9ba",
            "currentGasLimit": "0x0f4240",
            "currentNumber": "0x01",
            "currentTimestamp": "0x03e8",
            "currentRandom": "0x0000000000000000000000000000000000000000000000000000000000020000",
            "currentDifficulty": "0x00",
            "currentBaseFee": "0x0a",
            "currentExcessBlobGas": "0x00"
        },
        "pre": {
            "0x510d7eb3108e6abb1b4cf14eac740cd29746e1fc": {
                "nonce": "0x00",
                "balance": "0x0de0b6b3a7640000",
                "code": "0x",
                "storage": {}
            },
            "0x0040cc427cc2b165c670b01c3d80ebaa567a2e8d": {
                "nonce": "0x00",
                "balance": "0x0de0b6b3a7640000",
                "code": "0x7f80000000000000000000000000000000000000000000000000000000000000006101001c600055",
                "storage": {
                    "0x00": "0x03"
                }
            }
        },
        "transaction": {
            "nonce": "0x00",
            "gasPrice": "0x0a",
            "gasLimit": [
                "0x061a80"
            ],
            "to": "0x0040cc427cc2b165c670b01c3d80ebaa567a2e8d",
            "value": [
                "0x0186a0"
            ],
            "data": [
                "0x"
            ],
            "sender": "0x510d7eb3108e6abb1b4cf14eac740cd29746e1fc",
            "secretKey": "0x4cf3b88f4129c45b5b85661e0040cc427cc2b165c670b01c3d80ebaa567a2e8d"
        },
        "post": {
            "Osaka": [
                {
                    "hash": "0xf62a6cccf30474956a86ec68125a3fc85f23455c5d0038563eb1b0e500db5700",
                    "logs": "0x1dcc4de8dec75d7aab85b567b6ccd41ad312451b948a7413f0a142fd40d49347",
                    "txbytes": "0xf863800a83061a80940040cc427cc2b165c670b01c3d80ebaa567a2e8d830186a08026a0a2224defe154eb8e23be9d3bcb14941d6c5ca3fe5a6baeab19e78725c4826b53a004c4151c93b5662f7c6fb60977fdf8ead85ab570fe21ee5fca7250bbf1cb837e",
                    "indexes": {
                        "data": 0,
                        "gas": 0,
                        "value": 0
                    },
                    "state": {
                        "0x510d7eb3108e6abb1b4cf14eac740cd29746e1fc": {
                            "nonce": "0x01",
                            "balance": "0x0de0b6b3a75f3cc8",
                            "code": "0x",
                            "storage": {}
                        },
                        "0x0040cc427cc2b165c670b01c3d80ebaa567a2e8d": {
                            "nonce": "0x00",
                            "balance": "0x0de0b6b3a76586a0",
                            "code": "0x7f80000000000000000000000000000000000000000000000000000000000000006101001c600055",
                            "storage": {}
                        }
                    }
                }
            ]
        },
        "config": {
            "blobSchedule": {
                "Cancun": {
                    "target": "0x03",
                    "max": "0x06",
                    "baseFeeUpdateFraction": "0x32f0ed"
                },
                "Prague": {
                    "target": "0x06",
                    "max": "0x09",
                    "baseFeeUpdateFraction": "0x4c6964"
                },
                "Osaka": {
                    "target": "0x06",
                    "max": "0x09",
                    "baseFeeUpdateFraction": "0x4c6964"
                }
            },
            "chainid": "0x01"
        },
        "_info": {
            "hash": "0xa7a5627ed5355e0ccad8a814bb7ab1ad550d6816f6ea802c880ad7da7f15f679",
            "comment": "`execution-specs` generated test",
            "filling-transition-tool": "2.18.0rc6",
            "description": "No description available - add a docstring to the python test class or function.",
            "url": "",
            "fixture-format": "state_test"
        }
    },
    "tests/static/state_tests/stShift/shr_2^255_256Filler.json::shr_2^255_256[fork_Prague-state_test-]": {
        "env": {
            "currentCoinbase": "0x2adc25665018aa1fe0e6bc666dac8fc2697ff9ba",
            "currentGasLimit": "0x0f4240",
            "currentNumber": "0x01",
            "currentTimestamp": "0x03e8",
            "currentRandom": "0x0000000000000000000000000000000000000000000000000000000000020000",
            "currentDifficulty": "0x00",
            "currentBaseFee": "0x0a",
            "currentExcessBlobGas": "0x00"
        },
        "pre": {
            "0x510d7eb3108e6abb1b4cf14eac740cd29746e1fc": {
                "nonce": "0x00",
                "balance": "0x0de0b6b3a7640000",
                "code": "0x",
                "storage": {}
            },
            "0x0040cc427cc2b165c670b01c3d80ebaa567a2e8d": {
                "nonce": "0x00",
                "balance": "0x0de0b6b3a7640000",
                "code": "0x7f80000000000000000000000000000000000000000000000000000000000000006101001c600055",
                "storage": {
                    "0x00": "0x03"
                }
            }
        },
        "transaction": {
            "nonce": "0x00",
            "gasPrice": "0x0a",
            "gasLimit": [
                "0x061a80"
            ],
            "to": "0x0040cc427cc2b165c670b01c3d80ebaa567a2e8d",
            "value": [
                "0x0186a0"
            ],
            "data": [
                "0x"
            ],
            "sender": "0x510d7eb3108e6abb1b4cf14eac740cd29746e1fc",
            "secretKey": "0x4cf3b88f4129c45b5b85661e0040cc427cc2b165c670b01c3d80ebaa567a2e8d"
        },
        "post": {
            "Prague": [
                {
                    "hash": "0xf62a6cccf30474956a86ec68125a3fc85f23455c5d0038563eb1b0e500db5700",
                    "logs": "0x1dcc4de8dec75d7aab85b567b6ccd41ad312451b948a7413f0a142fd40d49347",
                    "txbytes": "0xf863800a83061a80940040cc427cc2b165c670b01c3d80ebaa567a2e8d830186a08026a0a2224defe154eb8e23be9d3bcb14941d6c5ca3fe5a6baeab19e78725c4826b53a004c4151c93b5662f7c6fb60977fdf8ead85ab570fe21ee5fca7250bbf1cb837e",
                    "indexes": {
                        "data": 0,
                        "gas": 0,
                        "value": 0
                    },
                    "state": {
                        "0x510d7eb3108e6abb1b4cf14eac740cd29746e1fc": {
                            "nonce": "0x01",
                            "balance": "0x0de0b6b3a75f3cc8",
                            "code": "0x",
                            "storage": {}
                        },
                        "0x0040cc427cc2b165c670b01c3d80ebaa567a2e8d": {
                            "nonce": "0x00",
                            "balance": "0x0de0b6b3a76586a0",
                            "code": "0x7f80000000000000000000000000000000000000000000000000000000000000006101001c600055",
                            "storage": {}
                        }
                    }
                }
            ]
        },
        "config": {
            "blobSchedule": {
                "Cancun": {
                    "target": "0x03",
                    "max": "0x06",
                    "baseFeeUpdateFraction": "0x32f0ed"
                },
                "Prague": {
                    "target": "0x06",
                    "max": "0x09",
                    "baseFeeUpdateFraction": "0x4c6964"
                }
            },
            "chainid": "0x01"
        },
        "_info": {
            "hash": "0x70fbb8cdfcd446385b20a4a1a1840e8c00a2613362f68ef77fca1498dae4bebb",
            "comment": "`execution-specs` generated test",
            "filling-transition-tool": "2.18.0rc6",
            "description": "No description available - add a docstring to the python test class or function.",
            "url": "",
            "fixture-format": "state_test"
        }
    }
}