{
    "tests/static/state_tests/stShift/shr_-1_255Filler.json::shr_-1_255[fork_Cancun-state_test-]": {
        "env": {
            "currentCoinbase": "0x2adc25665018aa1fe0e6bc666dac8fc2697ff9ba",
            "currentGasLimit": "0x0f4240",
            "currentNumber": "0x01",
            "currentTimestamp": "0x03e8",
            "currentRandom": "0x0000000000000000000000000000000000000000000000000000000000020000",
            "currentDifficulty": "0x00",
            "currentBaseFee": "0x0a",
            "currentExcessBlobGas": "0x00"
        },
        "pre": {
            "0x453750ef771b1c6ef738f0d119c05985f9430dec": {
                "nonce": "0x00",
                "balance": "0x0de0b6b3a7640000",
                "code": "0x",
                "storage": {}
            },
            "0x3fbe6b8722b1438ec30b8ac05e785832a220a7e6": {
                "nonce": "0x00",
                "balance": "0x0de0b6b3a7640000",
                "code": "0x7fffffffffffffffffffffffffffffffffffffffffffffffffffffffffffffffff60ff1c600055",
                "storage": {
                    "0x00": "0x03"
                }
            }
        },
        "transaction": {
            "nonce": "0x00",
            "gasPrice": "0x0a",
            "gasLimit": [
                "0x061a80"
            ],
            "to": "0x3fbe6b8722b1438ec30b8ac05e785832a220a7e6",
            "value": [
                "0x0186a0"
            ],
            "data": [
                "0x"
            ],
            "sender": "0x453750ef771b1c6ef738f0d119c05985f9430dec",
            "secretKey": "0xe04131cac14117d18cd341f53fbe6b8722b1438ec30b8ac05e785832a220a7e6"
        },
        "post": {
            "Cancun": [
                {
                    "hash": "0xb361e0e82ead424ca180e4ab239a58aed8e0189b6ffc1fa41ad85f2165eb39a6",
                    "logs": "0x1dcc4de8dec75d7aab85b567b6ccd41ad312451b948a7413f0a142fd40d49347",
                    "txbytes": "0xf863800a83061a80943fbe6b8722b1438ec30b8ac05e785832a220a7e6830186a08025a02c87b5cb48f24c34704dfe58ad07ed4c737c43b4efca2f7fc0f3803934a4c238a01e7c87fbece4df6f2c319ba807d0e2816202b3f57b6493a97b0fc638332a0c03",
                    "indexes": {
                        "data": 0,
                        "gas": 0,
                        "value": 0
                    },
                    "state": {
                        "0x453750ef771b1c6ef738f0d119c05985f9430dec": {
                            "nonce": "0x01",
                            "balance": "0x0de0b6b3a75e8148",
                            "code": "0x",
                            "storage": {}
                        },
                        "0x3fbe6b8722b1438ec30b8ac05e785832a220a7e6": {
                            "nonce": "0x00",
                            "balance": "0x0de0b6b3a76586a0",
                            "code": "0x7fffffffffffffffffffffffffffffffffffffffffffffffffffffffffffffffff60ff1c600055",
                            "storage": {
                                "0x00": "0x01"
                            }
                        }
                    }
                }
            ]
        },
        "config": {
            "blobSchedule": {
                "Cancun": {
                    "target": "0x03",
                    "max": "0x06",
                    "baseFeeUpdateFraction": "0x32f0ed"
                }
            },
            "chainid": "0x01"
        },
        "_info": {
            "hash": "0x92e9387a7369ee9c9911272b7809d0be44072187be09c5970191ffc64d81dd49",
            "comment": "`execution-spec-tests` generated test",
            "filling-transition-tool": "ethereum-spec-evm-resolver 0.0.5",
            "description": "No description available - add a docstring to the python test class or function.",
            "url": "",
            "fixture-format": "state_test",
            "eels-resolution": {
                "git-url": "https://github.com/marioevz/execution-specs.git",
                "branch": "forks/bpo1",
                "commit": "3387e5f4aedfe99becfdc39b444d6371e25e0924"
            }
        }
    },
    "tests/static/state_tests/stShift/shr_-1_255Filler.json::shr_-1_255[fork_Osaka-state_test-]": {
        "env": {
            "currentCoinbase": "0x2adc25665018aa1fe0e6bc666dac8fc2697ff9ba",
            "currentGasLimit": "0x0f4240",
            "currentNumber": "0x01",
            "currentTimestamp": "0x03e8",
            "currentRandom": "0x0000000000000000000000000000000000000000000000000000000000020000",
            "currentDifficulty": "0x00",
            "currentBaseFee": "0x0a",
            "currentExcessBlobGas": "0x00"
        },
        "pre": {
            "0x453750ef771b1c6ef738f0d119c05985f9430dec": {
                "nonce": "0x00",
                "balance": "0x0de0b6b3a7640000",
                "code": "0x",
                "storage": {}
            },
            "0x3fbe6b8722b1438ec30b8ac05e785832a220a7e6": {
                "nonce": "0x00",
                "balance": "0x0de0b6b3a7640000",
                "code": "0x7fffffffffffffffffffffffffffffffffffffffffffffffffffffffffffffffff60ff1c600055",
                "storage": {
                    "0x00": "0x03"
                }
            }
        },
        "transaction": {
            "nonce": "0x00",
            "gasPrice": "0x0a",
            "gasLimit": [
                "0x061a80"
            ],
            "to": "0x3fbe6b8722b1438ec30b8ac05e785832a220a7e6",
            "value": [
                "0x0186a0"
            ],
            "data": [
                "0x"
            ],
            "sender": "0x453750ef771b1c6ef738f0d119c05985f9430dec",
            "secretKey": "0xe04131cac14117d18cd341f53fbe6b8722b1438ec30b8ac05e785832a220a7e6"
        },
        "post": {
            "Osaka": [
                {
                    "hash": "0xb361e0e82ead424ca180e4ab239a58aed8e0189b6ffc1fa41ad85f2165eb39a6",
                    "logs": "0x1dcc4de8dec75d7aab85b567b6ccd41ad312451b948a7413f0a142fd40d49347",
                    "txbytes": "0xf863800a83061a80943fbe6b8722b1438ec30b8ac05e785832a220a7e6830186a08025a02c87b5cb48f24c34704dfe58ad07ed4c737c43b4efca2f7fc0f3803934a4c238a01e7c87fbece4df6f2c319ba807d0e2816202b3f57b6493a97b0fc638332a0c03",
                    "indexes": {
                        "data": 0,
                        "gas": 0,
                        "value": 0
                    },
                    "state": {
                        "0x453750ef771b1c6ef738f0d119c05985f9430dec": {
                            "nonce": "0x01",
                            "balance": "0x0de0b6b3a75e8148",
                            "code": "0x",
                            "storage": {}
                        },
                        "0x3fbe6b8722b1438ec30b8ac05e785832a220a7e6": {
                            "nonce": "0x00",
                            "balance": "0x0de0b6b3a76586a0",
                            "code": "0x7fffffffffffffffffffffffffffffffffffffffffffffffffffffffffffffffff60ff1c600055",
                            "storage": {
                                "0x00": "0x01"
                            }
                        }
                    }
                }
            ]
        },
        "config": {
            "blobSchedule": {
                "Cancun": {
                    "target": "0x03",
                    "max": "0x06",
                    "baseFeeUpdateFraction": "0x32f0ed"
                },
                "Prague": {
                    "target": "0x06",
                    "max": "0x09",
                    "baseFeeUpdateFraction": "0x4c6964"
                },
                "Osaka": {
                    "target": "0x06",
                    "max": "0x09",
                    "baseFeeUpdateFraction": "0x4c6964"
                }
            },
            "chainid": "0x01"
        },
        "_info": {
            "hash": "0xa02a3094015d7c1737892cda356f4c6df5fbd93d611c3703f6d502588397d879",
            "comment": "`execution-spec-tests` generated test",
            "filling-transition-tool": "ethereum-spec-evm-resolver 0.0.5",
            "description": "No description available - add a docstring to the python test class or function.",
            "url": "",
            "fixture-format": "state_test",
            "eels-resolution": {
                "git-url": "https://github.com/marioevz/execution-specs.git",
                "branch": "forks/bpo1",
                "commit": "3387e5f4aedfe99becfdc39b444d6371e25e0924"
            }
        }
    },
    "tests/static/state_tests/stShift/shr_-1_255Filler.json::shr_-1_255[fork_Prague-state_test-]": {
        "env": {
            "currentCoinbase": "0x2adc25665018aa1fe0e6bc666dac8fc2697ff9ba",
            "currentGasLimit": "0x0f4240",
            "currentNumber": "0x01",
            "currentTimestamp": "0x03e8",
            "currentRandom": "0x0000000000000000000000000000000000000000000000000000000000020000",
            "currentDifficulty": "0x00",
            "currentBaseFee": "0x0a",
            "currentExcessBlobGas": "0x00"
        },
        "pre": {
            "0x453750ef771b1c6ef738f0d119c05985f9430dec": {
                "nonce": "0x00",
                "balance": "0x0de0b6b3a7640000",
                "code": "0x",
                "storage": {}
            },
            "0x3fbe6b8722b1438ec30b8ac05e785832a220a7e6": {
                "nonce": "0x00",
                "balance": "0x0de0b6b3a7640000",
                "code": "0x7fffffffffffffffffffffffffffffffffffffffffffffffffffffffffffffffff60ff1c600055",
                "storage": {
                    "0x00": "0x03"
                }
            }
        },
        "transaction": {
            "nonce": "0x00",
            "gasPrice": "0x0a",
            "gasLimit": [
                "0x061a80"
            ],
            "to": "0x3fbe6b8722b1438ec30b8ac05e785832a220a7e6",
            "value": [
                "0x0186a0"
            ],
            "data": [
                "0x"
            ],
            "sender": "0x453750ef771b1c6ef738f0d119c05985f9430dec",
            "secretKey": "0xe04131cac14117d18cd341f53fbe6b8722b1438ec30b8ac05e785832a220a7e6"
        },
        "post": {
            "Prague": [
                {
                    "hash": "0xb361e0e82ead424ca180e4ab239a58aed8e0189b6ffc1fa41ad85f2165eb39a6",
                    "logs": "0x1dcc4de8dec75d7aab85b567b6ccd41ad312451b948a7413f0a142fd40d49347",
                    "txbytes": "0xf863800a83061a80943fbe6b8722b1438ec30b8ac05e785832a220a7e6830186a08025a02c87b5cb48f24c34704dfe58ad07ed4c737c43b4efca2f7fc0f3803934a4c238a01e7c87fbece4df6f2c319ba807d0e2816202b3f57b6493a97b0fc638332a0c03",
                    "indexes": {
                        "data": 0,
                        "gas": 0,
                        "value": 0
                    },
                    "state": {
                        "0x453750ef771b1c6ef738f0d119c05985f9430dec": {
                            "nonce": "0x01",
                            "balance": "0x0de0b6b3a75e8148",
                            "code": "0x",
                            "storage": {}
                        },
                        "0x3fbe6b8722b1438ec30b8ac05e785832a220a7e6": {
                            "nonce": "0x00",
                            "balance": "0x0de0b6b3a76586a0",
                            "code": "0x7fffffffffffffffffffffffffffffffffffffffffffffffffffffffffffffffff60ff1c600055",
                            "storage": {
                                "0x00": "0x01"
                            }
                        }
                    }
                }
            ]
        },
        "config": {
            "blobSchedule": {
                "Cancun": {
                    "target": "0x03",
                    "max": "0x06",
                    "baseFeeUpdateFraction": "0x32f0ed"
                },
                "Prague": {
                    "target": "0x06",
                    "max": "0x09",
                    "baseFeeUpdateFraction": "0x4c6964"
                }
            },
            "chainid": "0x01"
        },
        "_info": {
            "hash": "0x48eb7047371a9117c074bbd8b0918e12dfa477bd258185bdcadfeb127181fcd1",
            "comment": "`execution-spec-tests` generated test",
            "filling-transition-tool": "ethereum-spec-evm-resolver 0.0.5",
            "description": "No description available - add a docstring to the python test class or function.",
            "url": "",
            "fixture-format": "state_test",
            "eels-resolution": {
                "git-url": "https://github.com/marioevz/execution-specs.git",
                "branch": "forks/bpo1",
                "commit": "3387e5f4aedfe99becfdc39b444d6371e25e0924"
            }
        }
    }
}