{
    "tests/static/state_tests/stShift/shr_-1_256Filler.json::shr_-1_256[fork_Cancun-state_test-]": {
        "env": {
            "currentCoinbase": "0x2adc25665018aa1fe0e6bc666dac8fc2697ff9ba",
            "currentGasLimit": "0x0f4240",
            "currentNumber": "0x01",
            "currentTimestamp": "0x03e8",
            "currentRandom": "0x0000000000000000000000000000000000000000000000000000000000020000",
            "currentDifficulty": "0x00",
            "currentBaseFee": "0x0a",
            "currentExcessBlobGas": "0x00"
        },
        "pre": {
            "0x9826a9d19b756346780e16acd6c0e49bc00ec91e": {
                "nonce": "0x00",
                "balance": "0x0de0b6b3a7640000",
                "code": "0x",
                "storage": {}
            },
            "0x013ab6fc36676eee92c2d683fb17622502569831": {
                "nonce": "0x00",
                "balance": "0x0de0b6b3a7640000",
                "code": "0x7fffffffffffffffffffffffffffffffffffffffffffffffffffffffffffffffff6101001c600055",
                "storage": {
                    "0x00": "0x03"
                }
            }
        },
        "transaction": {
            "nonce": "0x00",
            "gasPrice": "0x0a",
            "gasLimit": [
                "0x061a80"
            ],
            "to": "0x013ab6fc36676eee92c2d683fb17622502569831",
            "value": [
                "0x0186a0"
            ],
            "data": [
                "0x"
            ],
            "sender": "0x9826a9d19b756346780e16acd6c0e49bc00ec91e",
            "secretKey": "0xf4944eafd5fbfe3e01408312013ab6fc36676eee92c2d683fb17622502569831"
        },
        "post": {
            "Cancun": [
                {
                    "hash": "0x0b2830790cf892ba3c8f5fd46b8dee8b337460c7510512110c5e38f8448894c8",
                    "logs": "0x1dcc4de8dec75d7aab85b567b6ccd41ad312451b948a7413f0a142fd40d49347",
                    "txbytes": "0xf863800a83061a8094013ab6fc36676eee92c2d683fb17622502569831830186a08026a08aac9af8aa76395695d99f3037652cb18e24f5b5b4a06eb304b97e7367190b22a04d9604be4f39cf8ac354458bc2b411e23ffd0f887d33cf590ad94b15675c94ea",
                    "indexes": {
                        "data": 0,
                        "gas": 0,
                        "value": 0
                    },
                    "state": {
                        "0x9826a9d19b756346780e16acd6c0e49bc00ec91e": {
                            "nonce": "0x01",
                            "balance": "0x0de0b6b3a75f3cc8",
                            "code": "0x",
                            "storage": {}
                        },
                        "0x013ab6fc36676eee92c2d683fb17622502569831": {
                            "nonce": "0x00",
                            "balance": "0x0de0b6b3a76586a0",
                            "code": "0x7fffffffffffffffffffffffffffffffffffffffffffffffffffffffffffffffff6101001c600055",
                            "storage": {}
                        }
                    }
                }
            ]
        },
        "config": {
            "blobSchedule": {
                "Cancun": {
                    "target": "0x03",
                    "max": "0x06",
                    "baseFeeUpdateFraction": "0x32f0ed"
                }
            },
            "chainid": "0x01"
        },
        "_info": {
            "hash": "0x9cb1631b55f926ec07982982f1f8c96e885324b9a298249a24ea0796fae27519",
            "comment": "`execution-spec-tests` generated test",
            "filling-transition-tool": "ethereum-spec-evm-resolver 0.0.5",
            "description": "No description available - add a docstring to the python test class or function.",
            "url": "",
            "fixture-format": "state_test",
            "eels-resolution": {
                "git-url": "https://github.com/ethereum/execution-specs.git",
                "branch": "forks/bpos",
                "commit": "7aacb2c54111391af5e98c505d5010b5698a770f"
            }
        }
    },
    "tests/static/state_tests/stShift/shr_-1_256Filler.json::shr_-1_256[fork_Osaka-state_test-]": {
        "env": {
            "currentCoinbase": "0x2adc25665018aa1fe0e6bc666dac8fc2697ff9ba",
            "currentGasLimit": "0x0f4240",
            "currentNumber": "0x01",
            "currentTimestamp": "0x03e8",
            "currentRandom": "0x0000000000000000000000000000000000000000000000000000000000020000",
            "currentDifficulty": "0x00",
            "currentBaseFee": "0x0a",
            "currentExcessBlobGas": "0x00"
        },
        "pre": {
            "0x9826a9d19b756346780e16acd6c0e49bc00ec91e": {
                "nonce": "0x00",
                "balance": "0x0de0b6b3a7640000",
                "code": "0x",
                "storage": {}
            },
            "0x013ab6fc36676eee92c2d683fb17622502569831": {
                "nonce": "0x00",
                "balance": "0x0de0b6b3a7640000",
                "code": "0x7fffffffffffffffffffffffffffffffffffffffffffffffffffffffffffffffff6101001c600055",
                "storage": {
                    "0x00": "0x03"
                }
            }
        },
        "transaction": {
            "nonce": "0x00",
            "gasPrice": "0x0a",
            "gasLimit": [
                "0x061a80"
            ],
            "to": "0x013ab6fc36676eee92c2d683fb17622502569831",
            "value": [
                "0x0186a0"
            ],
            "data": [
                "0x"
            ],
            "sender": "0x9826a9d19b756346780e16acd6c0e49bc00ec91e",
            "secretKey": "0xf4944eafd5fbfe3e01408312013ab6fc36676eee92c2d683fb17622502569831"
        },
        "post": {
            "Osaka": [
                {
                    "hash": "0x0b2830790cf892ba3c8f5fd46b8dee8b337460c7510512110c5e38f8448894c8",
                    "logs": "0x1dcc4de8dec75d7aab85b567b6ccd41ad312451b948a7413f0a142fd40d49347",
                    "txbytes": "0xf863800a83061a8094013ab6fc36676eee92c2d683fb17622502569831830186a08026a08aac9af8aa76395695d99f3037652cb18e24f5b5b4a06eb304b97e7367190b22a04d9604be4f39cf8ac354458bc2b411e23ffd0f887d33cf590ad94b15675c94ea",
                    "indexes": {
                        "data": 0,
                        "gas": 0,
                        "value": 0
                    },
                    "state": {
                        "0x9826a9d19b756346780e16acd6c0e49bc00ec91e": {
                            "nonce": "0x01",
                            "balance": "0x0de0b6b3a75f3cc8",
                            "code": "0x",
                            "storage": {}
                        },
                        "0x013ab6fc36676eee92c2d683fb17622502569831": {
                            "nonce": "0x00",
                            "balance": "0x0de0b6b3a76586a0",
                            "code": "0x7fffffffffffffffffffffffffffffffffffffffffffffffffffffffffffffffff6101001c600055",
                            "storage": {}
                        }
                    }
                }
            ]
        },
        "config": {
            "blobSchedule": {
                "Cancun": {
                    "target": "0x03",
                    "max": "0x06",
                    "baseFeeUpdateFraction": "0x32f0ed"
                },
                "Prague": {
                    "target": "0x06",
                    "max": "0x09",
                    "baseFeeUpdateFraction": "0x4c6964"
                },
                "Osaka": {
                    "target": "0x06",
                    "max": "0x09",
                    "baseFeeUpdateFraction": "0x4c6964"
                }
            },
            "chainid": "0x01"
        },
        "_info": {
            "hash": "0x20eeff48e667280e571dc21e798d3843e0b22ddc9c65df235102ca247a31fa18",
            "comment": "`execution-spec-tests` generated test",
            "filling-transition-tool": "ethereum-spec-evm-resolver 0.0.5",
            "description": "No description available - add a docstring to the python test class or function.",
            "url": "",
            "fixture-format": "state_test",
            "eels-resolution": {
                "git-url": "https://github.com/ethereum/execution-specs.git",
                "branch": "forks/bpos",
                "commit": "7aacb2c54111391af5e98c505d5010b5698a770f"
            }
        }
    },
    "tests/static/state_tests/stShift/shr_-1_256Filler.json::shr_-1_256[fork_Prague-state_test-]": {
        "env": {
            "currentCoinbase": "0x2adc25665018aa1fe0e6bc666dac8fc2697ff9ba",
            "currentGasLimit": "0x0f4240",
            "currentNumber": "0x01",
            "currentTimestamp": "0x03e8",
            "currentRandom": "0x0000000000000000000000000000000000000000000000000000000000020000",
            "currentDifficulty": "0x00",
            "currentBaseFee": "0x0a",
            "currentExcessBlobGas": "0x00"
        },
        "pre": {
            "0x9826a9d19b756346780e16acd6c0e49bc00ec91e": {
                "nonce": "0x00",
                "balance": "0x0de0b6b3a7640000",
                "code": "0x",
                "storage": {}
            },
            "0x013ab6fc36676eee92c2d683fb17622502569831": {
                "nonce": "0x00",
                "balance": "0x0de0b6b3a7640000",
                "code": "0x7fffffffffffffffffffffffffffffffffffffffffffffffffffffffffffffffff6101001c600055",
                "storage": {
                    "0x00": "0x03"
                }
            }
        },
        "transaction": {
            "nonce": "0x00",
            "gasPrice": "0x0a",
            "gasLimit": [
                "0x061a80"
            ],
            "to": "0x013ab6fc36676eee92c2d683fb17622502569831",
            "value": [
                "0x0186a0"
            ],
            "data": [
                "0x"
            ],
            "sender": "0x9826a9d19b756346780e16acd6c0e49bc00ec91e",
            "secretKey": "0xf4944eafd5fbfe3e01408312013ab6fc36676eee92c2d683fb17622502569831"
        },
        "post": {
            "Prague": [
                {
                    "hash": "0x0b2830790cf892ba3c8f5fd46b8dee8b337460c7510512110c5e38f8448894c8",
                    "logs": "0x1dcc4de8dec75d7aab85b567b6ccd41ad312451b948a7413f0a142fd40d49347",
                    "txbytes": "0xf863800a83061a8094013ab6fc36676eee92c2d683fb17622502569831830186a08026a08aac9af8aa76395695d99f3037652cb18e24f5b5b4a06eb304b97e7367190b22a04d9604be4f39cf8ac354458bc2b411e23ffd0f887d33cf590ad94b15675c94ea",
                    "indexes": {
                        "data": 0,
                        "gas": 0,
                        "value": 0
                    },
                    "state": {
                        "0x9826a9d19b756346780e16acd6c0e49bc00ec91e": {
                            "nonce": "0x01",
                            "balance": "0x0de0b6b3a75f3cc8",
                            "code": "0x",
                            "storage": {}
                        },
                        "0x013ab6fc36676eee92c2d683fb17622502569831": {
                            "nonce": "0x00",
                            "balance": "0x0de0b6b3a76586a0",
                            "code": "0x7fffffffffffffffffffffffffffffffffffffffffffffffffffffffffffffffff6101001c600055",
                            "storage": {}
                        }
                    }
                }
            ]
        },
        "config": {
            "blobSchedule": {
                "Cancun": {
                    "target": "0x03",
                    "max": "0x06",
                    "baseFeeUpdateFraction": "0x32f0ed"
                },
                "Prague": {
                    "target": "0x06",
                    "max": "0x09",
                    "baseFeeUpdateFraction": "0x4c6964"
                }
            },
            "chainid": "0x01"
        },
        "_info": {
            "hash": "0x7a88abe192031d45bf09c9c1300c0a369e27aaafcab21e2fbb54e5cc442ef8dd",
            "comment": "`execution-spec-tests` generated test",
            "filling-transition-tool": "ethereum-spec-evm-resolver 0.0.5",
            "description": "No description available - add a docstring to the python test class or function.",
            "url": "",
            "fixture-format": "state_test",
            "eels-resolution": {
                "git-url": "https://github.com/ethereum/execution-specs.git",
                "branch": "forks/bpos",
                "commit": "7aacb2c54111391af5e98c505d5010b5698a770f"
            }
        }
    }
}