{
    "tests/ported_static/stStaticCall/test_static_callcallcall_000_oogm_after.py::test_static_callcallcall_000_oogm_after[fork_Cancun-blockchain_test_from_state_test]": {
        "network": "Cancun",
        "genesisBlockHeader": {
            "parentHash": "0x0000000000000000000000000000000000000000000000000000000000000000",
            "uncleHash": "0x1dcc4de8dec75d7aab85b567b6ccd41ad312451b948a7413f0a142fd40d49347",
            "coinbase": "0x0000000000000000000000000000000000000000",
            "stateRoot": "0x4b4ca73757baef5d8d2d684ecce955f98e03aeba526165d84ed0b8b4df065c9e",
            "transactionsTrie": "0x56e81f171bcc55a6ff8345e692c0f86e5b48e01b996cadc001622fb5e363b421",
            "receiptTrie": "0x56e81f171bcc55a6ff8345e692c0f86e5b48e01b996cadc001622fb5e363b421",
            "bloom": "0x00000000000000000000000000000000000000000000000000000000000000000000000000000000000000000000000000000000000000000000000000000000000000000000000000000000000000000000000000000000000000000000000000000000000000000000000000000000000000000000000000000000000000000000000000000000000000000000000000000000000000000000000000000000000000000000000000000000000000000000000000000000000000000000000000000000000000000000000000000000000000000000000000000000000000000000000000000000000000000000000000000000000000000000000000000000",
            "difficulty": "0x00",
            "number": "0x00",
            "gasLimit": "0x989680",
            "gasUsed": "0x00",
            "timestamp": "0x00",
            "extraData": "0x00",
            "mixHash": "0x0000000000000000000000000000000000000000000000000000000000000000",
            "nonce": "0x0000000000000000",
            "baseFeePerGas": "0x0b",
            "withdrawalsRoot": "0x56e81f171bcc55a6ff8345e692c0f86e5b48e01b996cadc001622fb5e363b421",
            "blobGasUsed": "0x00",
            "excessBlobGas": "0x00",
            "parentBeaconBlockRoot": "0x0000000000000000000000000000000000000000000000000000000000000000",
            "hash": "0x88b31b865345c09a66bda980a12ab14e0315046c79d496b0c5ff28296f91a69c"
        },
        "pre": {
            "0x000f3df6d732807ef1319fb7b8bb8522d0beac02": {
                "nonce": "0x01",
                "balance": "0x00",
                "code": "0x3373fffffffffffffffffffffffffffffffffffffffe14604d57602036146024575f5ffd5b5f35801560495762001fff810690815414603c575f5ffd5b62001fff01545f5260205ff35b5f5ffd5b62001fff42064281555f359062001fff015500",
                "storage": {}
            },
            "0xd66f224cbd2fabb21b17bb53c56118f32f62ebd6": {
                "nonce": "0x00",
                "balance": "0x0de0b6b3a7640000",
                "code": "0x",
                "storage": {}
            },
            "0x75a5c9cc0efb8bc7f2115d547f0327a153212014": {
                "nonce": "0x00",
                "balance": "0x00",
                "code": "0x600160035200",
                "storage": {}
            },
            "0x1d70c412285bcee4a11d0e3a46e2e5ccb5c95667": {
                "nonce": "0x00",
                "balance": "0x00",
                "code": "0x600160035260406000604060007375a5c9cc0efb8bc7f2115d547f0327a1532120146201d4d4fa50600160205200",
                "storage": {}
            },
            "0x590c2caef870b51a4671c2b20b802bc6d338d4ca": {
                "nonce": "0x00",
                "balance": "0x00",
                "code": "0x60016003526040600060406000731d70c412285bcee4a11d0e3a46e2e5ccb5c9566762061ad0fa50600160035500",
                "storage": {}
            },
            "0xf5c334d86f20ff65c09ab503d40bd6358cc39277": {
                "nonce": "0x00",
                "balance": "0x0de0b6b3a7640000",
                "code": "0x604060006040600073590c2caef870b51a4671c2b20b802bc6d338d4ca62092856fa6000556001606f5500",
                "storage": {}
            }
        },
        "postState": {
            "0x000f3df6d732807ef1319fb7b8bb8522d0beac02": {
                "nonce": "0x01",
                "balance": "0x00",
                "code": "0x3373fffffffffffffffffffffffffffffffffffffffe14604d57602036146024575f5ffd5b5f35801560495762001fff810690815414603c575f5ffd5b62001fff01545f5260205ff35b5f5ffd5b62001fff42064281555f359062001fff015500",
                "storage": {
                    "0x03e8": "0x03e8"
                }
            },
            "0xd66f224cbd2fabb21b17bb53c56118f32f62ebd6": {
                "nonce": "0x01",
                "balance": "0x0de0b6b3a7011c42",
                "code": "0x",
                "storage": {}
            },
            "0x75a5c9cc0efb8bc7f2115d547f0327a153212014": {
                "nonce": "0x00",
                "balance": "0x00",
                "code": "0x600160035200",
                "storage": {}
            },
            "0x1d70c412285bcee4a11d0e3a46e2e5ccb5c95667": {
                "nonce": "0x00",
                "balance": "0x00",
                "code": "0x600160035260406000604060007375a5c9cc0efb8bc7f2115d547f0327a1532120146201d4d4fa50600160205200",
                "storage": {}
            },
            "0x590c2caef870b51a4671c2b20b802bc6d338d4ca": {
                "nonce": "0x00",
                "balance": "0x00",
                "code": "0x60016003526040600060406000731d70c412285bcee4a11d0e3a46e2e5ccb5c9566762061ad0fa50600160035500",
                "storage": {}
            },
            "0xf5c334d86f20ff65c09ab503d40bd6358cc39277": {
                "nonce": "0x00",
                "balance": "0x0de0b6b3a7640000",
                "code": "0x604060006040600073590c2caef870b51a4671c2b20b802bc6d338d4ca62092856fa6000556001606f5500",
                "storage": {
                    "0x6f": "0x01"
                }
            }
        },
        "lastblockhash": "0x81bc79fa027aa09af4c236ea06e5077c53a6e835ce73c2154c8c2accee7ca77d",
        "config": {
            "network": "Cancun",
            "chainid": "0x01",
            "blobSchedule": {
                "Cancun": {
                    "target": "0x03",
                    "max": "0x06",
                    "baseFeeUpdateFraction": "0x32f0ed"
                }
            }
        },
        "genesisRLP": "0xf9023bf90235a00000000000000000000000000000000000000000000000000000000000000000a01dcc4de8dec75d7aab85b567b6ccd41ad312451b948a7413f0a142fd40d49347940000000000000000000000000000000000000000a04b4ca73757baef5d8d2d684ecce955f98e03aeba526165d84ed0b8b4df065c9ea056e81f171bcc55a6ff8345e692c0f86e5b48e01b996cadc001622fb5e363b421a056e81f171bcc55a6ff8345e692c0f86e5b48e01b996cadc001622fb5e363b421b9010000000000000000000000000000000000000000000000000000000000000000000000000000000000000000000000000000000000000000000000000000000000000000000000000000000000000000000000000000000000000000000000000000000000000000000000000000000000000000000000000000000000000000000000000000000000000000000000000000000000000000000000000000000000000000000000000000000000000000000000000000000000000000000000000000000000000000000000000000000000000000000000000000000000000000000000000000000000000000000000000000000000000000000000000000000000808083989680808000a000000000000000000000000000000000000000000000000000000000000000008800000000000000000ba056e81f171bcc55a6ff8345e692c0f86e5b48e01b996cadc001622fb5e363b4218080a00000000000000000000000000000000000000000000000000000000000000000c0c0c0",
        "blocks": [
            {
                "blockHeader": {
                    "parentHash": "0x88b31b865345c09a66bda980a12ab14e0315046c79d496b0c5ff28296f91a69c",
                    "uncleHash": "0x1dcc4de8dec75d7aab85b567b6ccd41ad312451b948a7413f0a142fd40d49347",
                    "coinbase": "0x2adc25665018aa1fe0e6bc666dac8fc2697ff9ba",
                    "stateRoot": "0x1db071d3c729407f8ee8877932d34a8be7f768b7e540c43b0c0b7a743388b21b",
                    "transactionsTrie": "0x9220bbbd29a9bafec2339dc45219cf4d48626d0ec3debf4baac4640ef91cc29b",
                    "receiptTrie": "0x07cb3c54294f992a7a2e1621213f8fd64f0b61a6af504b5b21717a4f7aaa06b2",
                    "bloom": "0x00000000000000000000000000000000000000000000000000000000000000000000000000000000000000000000000000000000000000000000000000000000000000000000000000000000000000000000000000000000000000000000000000000000000000000000000000000000000000000000000000000000000000000000000000000000000000000000000000000000000000000000000000000000000000000000000000000000000000000000000000000000000000000000000000000000000000000000000000000000000000000000000000000000000000000000000000000000000000000000000000000000000000000000000000000000",
                    "difficulty": "0x00",
                    "number": "0x01",
                    "gasLimit": "0x989680",
                    "gasUsed": "0x09e393",
                    "timestamp": "0x03e8",
                    "extraData": "0x00",
                    "mixHash": "0x0000000000000000000000000000000000000000000000000000000000020000",
                    "nonce": "0x0000000000000000",
                    "baseFeePerGas": "0x0a",
                    "withdrawalsRoot": "0x56e81f171bcc55a6ff8345e692c0f86e5b48e01b996cadc001622fb5e363b421",
                    "blobGasUsed": "0x00",
                    "excessBlobGas": "0x00",
                    "parentBeaconBlockRoot": "0x0000000000000000000000000000000000000000000000000000000000000000",
                    "hash": "0x81bc79fa027aa09af4c236ea06e5077c53a6e835ce73c2154c8c2accee7ca77d"
                },
                "transactions": [
                    {
                        "type": "0x00",
                        "chainId": "0x01",
                        "nonce": "0x00",
                        "gasPrice": "0x0a",
                        "gasLimit": "0x1a3ec0",
                        "to": "0xf5c334d86f20ff65c09ab503d40bd6358cc39277",
                        "value": "0x00",
                        "data": "0x",
                        "v": "0x26",
                        "r": "0x78d78f3c19f3d4fcc1b1038505e75e1600b8253fb94d0729d55d24e0dea241ed",
                        "s": "0x027010d39870c235a897c11e2c30b168cb109b50d13e90e41d7b4267ace3bcf6",
                        "sender": "0xd66f224cbd2fabb21b17bb53c56118f32f62ebd6"
                    }
                ],
                "uncleHeaders": [],
                "withdrawals": [],
                "receipts": [
                    {
                        "transactionHash": "0xaa7a171b075f968460edbeda33791287fd2a5aa5e77659500015bb6ba88aa707",
                        "type": "0x00",
                        "cumulativeGasUsed": "0x09e393",
                        "bloom": "0x00000000000000000000000000000000000000000000000000000000000000000000000000000000000000000000000000000000000000000000000000000000000000000000000000000000000000000000000000000000000000000000000000000000000000000000000000000000000000000000000000000000000000000000000000000000000000000000000000000000000000000000000000000000000000000000000000000000000000000000000000000000000000000000000000000000000000000000000000000000000000000000000000000000000000000000000000000000000000000000000000000000000000000000000000000000",
                        "logs": [],
                        "status": true,
                        "rlp": "0xf90109018309e393b9010000000000000000000000000000000000000000000000000000000000000000000000000000000000000000000000000000000000000000000000000000000000000000000000000000000000000000000000000000000000000000000000000000000000000000000000000000000000000000000000000000000000000000000000000000000000000000000000000000000000000000000000000000000000000000000000000000000000000000000000000000000000000000000000000000000000000000000000000000000000000000000000000000000000000000000000000000000000000000000000000000000000000000000000000000000000c0"
                    }
                ],
                "rlp": "0xf902a3f9023aa088b31b865345c09a66bda980a12ab14e0315046c79d496b0c5ff28296f91a69ca01dcc4de8dec75d7aab85b567b6ccd41ad312451b948a7413f0a142fd40d49347942adc25665018aa1fe0e6bc666dac8fc2697ff9baa01db071d3c729407f8ee8877932d34a8be7f768b7e540c43b0c0b7a743388b21ba09220bbbd29a9bafec2339dc45219cf4d48626d0ec3debf4baac4640ef91cc29ba007cb3c54294f992a7a2e1621213f8fd64f0b61a6af504b5b21717a4f7aaa06b2b90100000000000000000000000000000000000000000000000000000000000000000000000000000000000000000000000000000000000000000000000000000000000000000000000000000000000000000000000000000000000000000000000000000000000000000000000000000000000000000000000000000000000000000000000000000000000000000000000000000000000000000000000000000000000000000000000000000000000000000000000000000000000000000000000000000000000000000000000000000000000000000000000000000000000000000000000000000000000000000000000000000000000000000000000000000000008001839896808309e3938203e800a000000000000000000000000000000000000000000000000000000000000200008800000000000000000aa056e81f171bcc55a6ff8345e692c0f86e5b48e01b996cadc001622fb5e363b4218080a00000000000000000000000000000000000000000000000000000000000000000f862f860800a831a3ec094f5c334d86f20ff65c09ab503d40bd6358cc39277808026a078d78f3c19f3d4fcc1b1038505e75e1600b8253fb94d0729d55d24e0dea241eda0027010d39870c235a897c11e2c30b168cb109b50d13e90e41d7b4267ace3bcf6c0c0",
                "blocknumber": "1"
            }
        ],
        "sealEngine": "NoProof",
        "_info": {
            "hash": "0x8d1d6528a5a3775dcea455df6c0601b25fb8d2ae62d57900eac23b57f315c3f8",
            "fixture-format": "blockchain_test",
            "comment": "`execution-specs` generated test",
            "filling-transition-tool": "2.19.0",
            "description": "Test_static_callcallcall_000_oogm_after.",
            "url": "https://github.com/ethereum/execution-specs/blob/tests-snobal-devnet-5@v8037.0.0/tests/ported_static/stStaticCall/test_static_callcallcall_000_oogm_after.py#L24",
            "metadata": {
                "opcode_count": {}
            }
        }
    }
}