{
    "tests/ported_static/stStaticCall/test_static_callcallcall_000_oogm_after.py::test_static_callcallcall_000_oogm_after[fork_Cancun-blockchain_test_from_state_test]": {
        "network": "Cancun",
        "genesisBlockHeader": {
            "parentHash": "0x0000000000000000000000000000000000000000000000000000000000000000",
            "uncleHash": "0x1dcc4de8dec75d7aab85b567b6ccd41ad312451b948a7413f0a142fd40d49347",
            "coinbase": "0x0000000000000000000000000000000000000000",
            "stateRoot": "0x5f7e47abe47b0db4b1c77e4be4cfd0a242e4b17a1f2e11900a97d4f61ed90744",
            "transactionsTrie": "0x56e81f171bcc55a6ff8345e692c0f86e5b48e01b996cadc001622fb5e363b421",
            "receiptTrie": "0x56e81f171bcc55a6ff8345e692c0f86e5b48e01b996cadc001622fb5e363b421",
            "bloom": "0x00000000000000000000000000000000000000000000000000000000000000000000000000000000000000000000000000000000000000000000000000000000000000000000000000000000000000000000000000000000000000000000000000000000000000000000000000000000000000000000000000000000000000000000000000000000000000000000000000000000000000000000000000000000000000000000000000000000000000000000000000000000000000000000000000000000000000000000000000000000000000000000000000000000000000000000000000000000000000000000000000000000000000000000000000000000",
            "difficulty": "0x00",
            "number": "0x00",
            "gasLimit": "0x989680",
            "gasUsed": "0x00",
            "timestamp": "0x00",
            "extraData": "0x00",
            "mixHash": "0x0000000000000000000000000000000000000000000000000000000000000000",
            "nonce": "0x0000000000000000",
            "baseFeePerGas": "0x0b",
            "withdrawalsRoot": "0x56e81f171bcc55a6ff8345e692c0f86e5b48e01b996cadc001622fb5e363b421",
            "blobGasUsed": "0x00",
            "excessBlobGas": "0x00",
            "parentBeaconBlockRoot": "0x0000000000000000000000000000000000000000000000000000000000000000",
            "hash": "0x052c45b65115367255cd952829fcf963bde32cffe67fa1f983fa8cfa268a8142"
        },
        "pre": {
            "0x000f3df6d732807ef1319fb7b8bb8522d0beac02": {
                "nonce": "0x01",
                "balance": "0x00",
                "code": "0x3373fffffffffffffffffffffffffffffffffffffffe14604d57602036146024575f5ffd5b5f35801560495762001fff810690815414603c575f5ffd5b62001fff01545f5260205ff35b5f5ffd5b62001fff42064281555f359062001fff015500",
                "storage": {}
            },
            "0x03681c634a188409b5f9b8ca2382c1a1499d8a0d": {
                "nonce": "0x00",
                "balance": "0x0de0b6b3a7640000",
                "code": "0x6040600060406000738ff16542095de9f85f7c395d6d543d19b30d97d762092856fa6000556001606f5500",
                "storage": {}
            },
            "0x8ff16542095de9f85f7c395d6d543d19b30d97d7": {
                "nonce": "0x00",
                "balance": "0x00",
                "code": "0x6001600352604060006040600073c2234f6b4a777db8df1447c9c2d0c8cee376de7662061ad0fa50600160035500",
                "storage": {}
            },
            "0xc2234f6b4a777db8df1447c9c2d0c8cee376de76": {
                "nonce": "0x00",
                "balance": "0x00",
                "code": "0x6001600352604060006040600073335c5531b84765a7626e6e76688f18b81be5259c6201d4d4fa50600160205200",
                "storage": {}
            },
            "0x335c5531b84765a7626e6e76688f18b81be5259c": {
                "nonce": "0x00",
                "balance": "0x00",
                "code": "0x600160035200",
                "storage": {}
            },
            "0xebaf50debf10e08302fe4280c32df010463ca297": {
                "nonce": "0x00",
                "balance": "0x0de0b6b3a7640000",
                "code": "0x",
                "storage": {}
            }
        },
        "postState": {
            "0x000f3df6d732807ef1319fb7b8bb8522d0beac02": {
                "nonce": "0x01",
                "balance": "0x00",
                "code": "0x3373fffffffffffffffffffffffffffffffffffffffe14604d57602036146024575f5ffd5b5f35801560495762001fff810690815414603c575f5ffd5b62001fff01545f5260205ff35b5f5ffd5b62001fff42064281555f359062001fff015500",
                "storage": {
                    "0x03e8": "0x03e8"
                }
            },
            "0x03681c634a188409b5f9b8ca2382c1a1499d8a0d": {
                "nonce": "0x00",
                "balance": "0x0de0b6b3a7640000",
                "code": "0x6040600060406000738ff16542095de9f85f7c395d6d543d19b30d97d762092856fa6000556001606f5500",
                "storage": {
                    "0x6f": "0x01"
                }
            },
            "0x8ff16542095de9f85f7c395d6d543d19b30d97d7": {
                "nonce": "0x00",
                "balance": "0x00",
                "code": "0x6001600352604060006040600073c2234f6b4a777db8df1447c9c2d0c8cee376de7662061ad0fa50600160035500",
                "storage": {}
            },
            "0xc2234f6b4a777db8df1447c9c2d0c8cee376de76": {
                "nonce": "0x00",
                "balance": "0x00",
                "code": "0x6001600352604060006040600073335c5531b84765a7626e6e76688f18b81be5259c6201d4d4fa50600160205200",
                "storage": {}
            },
            "0x335c5531b84765a7626e6e76688f18b81be5259c": {
                "nonce": "0x00",
                "balance": "0x00",
                "code": "0x600160035200",
                "storage": {}
            },
            "0xebaf50debf10e08302fe4280c32df010463ca297": {
                "nonce": "0x01",
                "balance": "0x0de0b6b3a7011c42",
                "code": "0x",
                "storage": {}
            }
        },
        "lastblockhash": "0xa9820f69a29302b3b8768b84d57c45dc8b28b4619ae5deda1eb9883cb764aab9",
        "config": {
            "network": "Cancun",
            "chainid": "0x01",
            "blobSchedule": {
                "Cancun": {
                    "target": "0x03",
                    "max": "0x06",
                    "baseFeeUpdateFraction": "0x32f0ed"
                }
            }
        },
        "genesisRLP": "0xf9023bf90235a00000000000000000000000000000000000000000000000000000000000000000a01dcc4de8dec75d7aab85b567b6ccd41ad312451b948a7413f0a142fd40d49347940000000000000000000000000000000000000000a05f7e47abe47b0db4b1c77e4be4cfd0a242e4b17a1f2e11900a97d4f61ed90744a056e81f171bcc55a6ff8345e692c0f86e5b48e01b996cadc001622fb5e363b421a056e81f171bcc55a6ff8345e692c0f86e5b48e01b996cadc001622fb5e363b421b9010000000000000000000000000000000000000000000000000000000000000000000000000000000000000000000000000000000000000000000000000000000000000000000000000000000000000000000000000000000000000000000000000000000000000000000000000000000000000000000000000000000000000000000000000000000000000000000000000000000000000000000000000000000000000000000000000000000000000000000000000000000000000000000000000000000000000000000000000000000000000000000000000000000000000000000000000000000000000000000000000000000000000000000000000000000000808083989680808000a000000000000000000000000000000000000000000000000000000000000000008800000000000000000ba056e81f171bcc55a6ff8345e692c0f86e5b48e01b996cadc001622fb5e363b4218080a00000000000000000000000000000000000000000000000000000000000000000c0c0c0",
        "blocks": [
            {
                "blockHeader": {
                    "parentHash": "0x052c45b65115367255cd952829fcf963bde32cffe67fa1f983fa8cfa268a8142",
                    "uncleHash": "0x1dcc4de8dec75d7aab85b567b6ccd41ad312451b948a7413f0a142fd40d49347",
                    "coinbase": "0x2adc25665018aa1fe0e6bc666dac8fc2697ff9ba",
                    "stateRoot": "0x1a0f428dfaff91f3819f80ed6e008a6341ab84f80182c27a0cf522b2c43716fc",
                    "transactionsTrie": "0x5ac54514cf35cf8b5842fb308e9feda291fddd3d7bb9f2497e017794cdf0c00a",
                    "receiptTrie": "0x07cb3c54294f992a7a2e1621213f8fd64f0b61a6af504b5b21717a4f7aaa06b2",
                    "bloom": "0x00000000000000000000000000000000000000000000000000000000000000000000000000000000000000000000000000000000000000000000000000000000000000000000000000000000000000000000000000000000000000000000000000000000000000000000000000000000000000000000000000000000000000000000000000000000000000000000000000000000000000000000000000000000000000000000000000000000000000000000000000000000000000000000000000000000000000000000000000000000000000000000000000000000000000000000000000000000000000000000000000000000000000000000000000000000",
                    "difficulty": "0x00",
                    "number": "0x01",
                    "gasLimit": "0x989680",
                    "gasUsed": "0x09e393",
                    "timestamp": "0x03e8",
                    "extraData": "0x00",
                    "mixHash": "0x0000000000000000000000000000000000000000000000000000000000020000",
                    "nonce": "0x0000000000000000",
                    "baseFeePerGas": "0x0a",
                    "withdrawalsRoot": "0x56e81f171bcc55a6ff8345e692c0f86e5b48e01b996cadc001622fb5e363b421",
                    "blobGasUsed": "0x00",
                    "excessBlobGas": "0x00",
                    "parentBeaconBlockRoot": "0x0000000000000000000000000000000000000000000000000000000000000000",
                    "hash": "0xa9820f69a29302b3b8768b84d57c45dc8b28b4619ae5deda1eb9883cb764aab9"
                },
                "transactions": [
                    {
                        "type": "0x00",
                        "chainId": "0x01",
                        "nonce": "0x00",
                        "gasPrice": "0x0a",
                        "gasLimit": "0x1a3ec0",
                        "to": "0x03681c634a188409b5f9b8ca2382c1a1499d8a0d",
                        "value": "0x00",
                        "data": "0x",
                        "v": "0x25",
                        "r": "0x48e9ebf4f7c6f51287f4567042e82c9fa7851c32fff2928ec3a71ef80ee3d16b",
                        "s": "0x55dd0f9ff270f7ce35a3c97d347f5081cd077b66797ae79630563384f38b4f91",
                        "sender": "0xebaf50debf10e08302fe4280c32df010463ca297"
                    }
                ],
                "uncleHeaders": [],
                "withdrawals": [],
                "receipts": [
                    {
                        "transactionHash": "0xd55ca18c74884d52fe54229db9eca230735bb1c3fca95d7f593445ce945d7025",
                        "type": "0x00",
                        "cumulativeGasUsed": "0x09e393",
                        "bloom": "0x00000000000000000000000000000000000000000000000000000000000000000000000000000000000000000000000000000000000000000000000000000000000000000000000000000000000000000000000000000000000000000000000000000000000000000000000000000000000000000000000000000000000000000000000000000000000000000000000000000000000000000000000000000000000000000000000000000000000000000000000000000000000000000000000000000000000000000000000000000000000000000000000000000000000000000000000000000000000000000000000000000000000000000000000000000000",
                        "logs": [],
                        "status": true,
                        "rlp": "0xf90109018309e393b9010000000000000000000000000000000000000000000000000000000000000000000000000000000000000000000000000000000000000000000000000000000000000000000000000000000000000000000000000000000000000000000000000000000000000000000000000000000000000000000000000000000000000000000000000000000000000000000000000000000000000000000000000000000000000000000000000000000000000000000000000000000000000000000000000000000000000000000000000000000000000000000000000000000000000000000000000000000000000000000000000000000000000000000000000000000000c0"
                    }
                ],
                "rlp": "0xf902a3f9023aa0052c45b65115367255cd952829fcf963bde32cffe67fa1f983fa8cfa268a8142a01dcc4de8dec75d7aab85b567b6ccd41ad312451b948a7413f0a142fd40d49347942adc25665018aa1fe0e6bc666dac8fc2697ff9baa01a0f428dfaff91f3819f80ed6e008a6341ab84f80182c27a0cf522b2c43716fca05ac54514cf35cf8b5842fb308e9feda291fddd3d7bb9f2497e017794cdf0c00aa007cb3c54294f992a7a2e1621213f8fd64f0b61a6af504b5b21717a4f7aaa06b2b90100000000000000000000000000000000000000000000000000000000000000000000000000000000000000000000000000000000000000000000000000000000000000000000000000000000000000000000000000000000000000000000000000000000000000000000000000000000000000000000000000000000000000000000000000000000000000000000000000000000000000000000000000000000000000000000000000000000000000000000000000000000000000000000000000000000000000000000000000000000000000000000000000000000000000000000000000000000000000000000000000000000000000000000000000000000008001839896808309e3938203e800a000000000000000000000000000000000000000000000000000000000000200008800000000000000000aa056e81f171bcc55a6ff8345e692c0f86e5b48e01b996cadc001622fb5e363b4218080a00000000000000000000000000000000000000000000000000000000000000000f862f860800a831a3ec09403681c634a188409b5f9b8ca2382c1a1499d8a0d808025a048e9ebf4f7c6f51287f4567042e82c9fa7851c32fff2928ec3a71ef80ee3d16ba055dd0f9ff270f7ce35a3c97d347f5081cd077b66797ae79630563384f38b4f91c0c0",
                "blocknumber": "1"
            }
        ],
        "sealEngine": "NoProof",
        "_info": {
            "hash": "0x20ecb125c4471432dca72d619f21820f9faebab9b65a34fc6f3cc7ede447510a",
            "fixture-format": "blockchain_test",
            "comment": "`execution-specs` generated test",
            "filling-transition-tool": "2.19.0",
            "description": "Test_static_callcallcall_000_oogm_after.",
            "url": "https://github.com/ethereum/execution-specs/blob/tests-bal@v5.6.1/tests/ported_static/stStaticCall/test_static_callcallcall_000_oogm_after.py#L25",
            "metadata": {
                "opcode_count": {}
            }
        }
    }
}