{
    "tests/ported_static/stCallCodes/test_callcodecallcodecall_110_oogm_after.py::test_callcodecallcodecall_110_oogm_after[fork_Cancun-blockchain_test_from_state_test]": {
        "network": "Cancun",
        "genesisBlockHeader": {
            "parentHash": "0x0000000000000000000000000000000000000000000000000000000000000000",
            "uncleHash": "0x1dcc4de8dec75d7aab85b567b6ccd41ad312451b948a7413f0a142fd40d49347",
            "coinbase": "0x0000000000000000000000000000000000000000",
            "stateRoot": "0xe43d0e248b430258a061bf155d8e2daf44b3361d9f02c9e5226cf9b278ed7201",
            "transactionsTrie": "0x56e81f171bcc55a6ff8345e692c0f86e5b48e01b996cadc001622fb5e363b421",
            "receiptTrie": "0x56e81f171bcc55a6ff8345e692c0f86e5b48e01b996cadc001622fb5e363b421",
            "bloom": "0x00000000000000000000000000000000000000000000000000000000000000000000000000000000000000000000000000000000000000000000000000000000000000000000000000000000000000000000000000000000000000000000000000000000000000000000000000000000000000000000000000000000000000000000000000000000000000000000000000000000000000000000000000000000000000000000000000000000000000000000000000000000000000000000000000000000000000000000000000000000000000000000000000000000000000000000000000000000000000000000000000000000000000000000000000000000",
            "difficulty": "0x00",
            "number": "0x00",
            "gasLimit": "0x01c9c380",
            "gasUsed": "0x00",
            "timestamp": "0x00",
            "extraData": "0x00",
            "mixHash": "0x0000000000000000000000000000000000000000000000000000000000000000",
            "nonce": "0x0000000000000000",
            "baseFeePerGas": "0x0b",
            "withdrawalsRoot": "0x56e81f171bcc55a6ff8345e692c0f86e5b48e01b996cadc001622fb5e363b421",
            "blobGasUsed": "0x00",
            "excessBlobGas": "0x00",
            "parentBeaconBlockRoot": "0x0000000000000000000000000000000000000000000000000000000000000000",
            "hash": "0x2e6b8e708634565f311ae77c49cd32ddad8ef98a2edeb5cd3825605bbf97d559"
        },
        "pre": {
            "0x000f3df6d732807ef1319fb7b8bb8522d0beac02": {
                "nonce": "0x01",
                "balance": "0x00",
                "code": "0x3373fffffffffffffffffffffffffffffffffffffffe14604d57602036146024575f5ffd5b5f35801560495762001fff810690815414603c575f5ffd5b62001fff01545f5260205ff35b5f5ffd5b62001fff42064281555f359062001fff015500",
                "storage": {}
            },
            "0x400347dada8c51a2aac4b4c31ae726ba8551e2b9": {
                "nonce": "0x00",
                "balance": "0x0de0b6b3a7640000",
                "code": "0x604060006040600060007337e72dd6ff3c2ac8c1ddab092a26164a2ad5988c620c3500f26000556001600b5500",
                "storage": {}
            },
            "0x37e72dd6ff3c2ac8c1ddab092a26164a2ad5988c": {
                "nonce": "0x00",
                "balance": "0x00",
                "code": "0x604060006040600060007383b7d129b58ab5315b795f9a8d34294ec60c9d63620927c0f2600155622fffff60002000",
                "storage": {}
            },
            "0x83b7d129b58ab5315b795f9a8d34294ec60c9d63": {
                "nonce": "0x00",
                "balance": "0x00",
                "code": "0x6040600060406000600073b126c622075b1189fb6c45e851641cfaddf65b3662061a80f160025500",
                "storage": {}
            },
            "0xb126c622075b1189fb6c45e851641cfaddf65b36": {
                "nonce": "0x00",
                "balance": "0x00",
                "code": "0x600160035500",
                "storage": {}
            },
            "0xebaf50debf10e08302fe4280c32df010463ca297": {
                "nonce": "0x00",
                "balance": "0x0de0b6b3a7640000",
                "code": "0x",
                "storage": {}
            }
        },
        "postState": {
            "0x000f3df6d732807ef1319fb7b8bb8522d0beac02": {
                "nonce": "0x01",
                "balance": "0x00",
                "code": "0x3373fffffffffffffffffffffffffffffffffffffffe14604d57602036146024575f5ffd5b5f35801560495762001fff810690815414603c575f5ffd5b62001fff01545f5260205ff35b5f5ffd5b62001fff42064281555f359062001fff015500",
                "storage": {
                    "0x03e8": "0x03e8"
                }
            },
            "0x400347dada8c51a2aac4b4c31ae726ba8551e2b9": {
                "nonce": "0x00",
                "balance": "0x0de0b6b3a7640000",
                "code": "0x604060006040600060007337e72dd6ff3c2ac8c1ddab092a26164a2ad5988c620c3500f26000556001600b5500",
                "storage": {
                    "0x0b": "0x01"
                }
            },
            "0x37e72dd6ff3c2ac8c1ddab092a26164a2ad5988c": {
                "nonce": "0x00",
                "balance": "0x00",
                "code": "0x604060006040600060007383b7d129b58ab5315b795f9a8d34294ec60c9d63620927c0f2600155622fffff60002000",
                "storage": {}
            },
            "0x83b7d129b58ab5315b795f9a8d34294ec60c9d63": {
                "nonce": "0x00",
                "balance": "0x00",
                "code": "0x6040600060406000600073b126c622075b1189fb6c45e851641cfaddf65b3662061a80f160025500",
                "storage": {}
            },
            "0xb126c622075b1189fb6c45e851641cfaddf65b36": {
                "nonce": "0x00",
                "balance": "0x00",
                "code": "0x600160035500",
                "storage": {}
            },
            "0xebaf50debf10e08302fe4280c32df010463ca297": {
                "nonce": "0x01",
                "balance": "0x0de0b6b3a6e29d80",
                "code": "0x",
                "storage": {}
            }
        },
        "lastblockhash": "0x7a3f5d6644eed2fd38b88becaa1cd4b43d5d4cf87466db5ad4de1bff51eb8dd7",
        "config": {
            "network": "Cancun",
            "chainid": "0x01",
            "blobSchedule": {
                "Cancun": {
                    "target": "0x03",
                    "max": "0x06",
                    "baseFeeUpdateFraction": "0x32f0ed"
                }
            }
        },
        "genesisRLP": "0xf9023cf90236a00000000000000000000000000000000000000000000000000000000000000000a01dcc4de8dec75d7aab85b567b6ccd41ad312451b948a7413f0a142fd40d49347940000000000000000000000000000000000000000a0e43d0e248b430258a061bf155d8e2daf44b3361d9f02c9e5226cf9b278ed7201a056e81f171bcc55a6ff8345e692c0f86e5b48e01b996cadc001622fb5e363b421a056e81f171bcc55a6ff8345e692c0f86e5b48e01b996cadc001622fb5e363b421b901000000000000000000000000000000000000000000000000000000000000000000000000000000000000000000000000000000000000000000000000000000000000000000000000000000000000000000000000000000000000000000000000000000000000000000000000000000000000000000000000000000000000000000000000000000000000000000000000000000000000000000000000000000000000000000000000000000000000000000000000000000000000000000000000000000000000000000000000000000000000000000000000000000000000000000000000000000000000000000000000000000000000000000000000000000000080808401c9c380808000a000000000000000000000000000000000000000000000000000000000000000008800000000000000000ba056e81f171bcc55a6ff8345e692c0f86e5b48e01b996cadc001622fb5e363b4218080a00000000000000000000000000000000000000000000000000000000000000000c0c0c0",
        "blocks": [
            {
                "blockHeader": {
                    "parentHash": "0x2e6b8e708634565f311ae77c49cd32ddad8ef98a2edeb5cd3825605bbf97d559",
                    "uncleHash": "0x1dcc4de8dec75d7aab85b567b6ccd41ad312451b948a7413f0a142fd40d49347",
                    "coinbase": "0x2adc25665018aa1fe0e6bc666dac8fc2697ff9ba",
                    "stateRoot": "0x15f8dd1434fc8f54a646df15c19db03ae5138e5f4e5508d97ac674ab8a5a51c3",
                    "transactionsTrie": "0x5ce03124bc25ba13c32270fcd7f882f212d3a8d815ecd5cfbf2a0368e845ef2a",
                    "receiptTrie": "0xbf46d4ee9345a2cdd98065ff4c648060f294884bf381cd4bb5f993c6ff02f50e",
                    "bloom": "0x00000000000000000000000000000000000000000000000000000000000000000000000000000000000000000000000000000000000000000000000000000000000000000000000000000000000000000000000000000000000000000000000000000000000000000000000000000000000000000000000000000000000000000000000000000000000000000000000000000000000000000000000000000000000000000000000000000000000000000000000000000000000000000000000000000000000000000000000000000000000000000000000000000000000000000000000000000000000000000000000000000000000000000000000000000000",
                    "difficulty": "0x00",
                    "number": "0x01",
                    "gasLimit": "0x01c9c380",
                    "gasUsed": "0x0cf040",
                    "timestamp": "0x03e8",
                    "extraData": "0x00",
                    "mixHash": "0x0000000000000000000000000000000000000000000000000000000000020000",
                    "nonce": "0x0000000000000000",
                    "baseFeePerGas": "0x0a",
                    "withdrawalsRoot": "0x56e81f171bcc55a6ff8345e692c0f86e5b48e01b996cadc001622fb5e363b421",
                    "blobGasUsed": "0x00",
                    "excessBlobGas": "0x00",
                    "parentBeaconBlockRoot": "0x0000000000000000000000000000000000000000000000000000000000000000",
                    "hash": "0x7a3f5d6644eed2fd38b88becaa1cd4b43d5d4cf87466db5ad4de1bff51eb8dd7"
                },
                "transactions": [
                    {
                        "type": "0x00",
                        "chainId": "0x01",
                        "nonce": "0x00",
                        "gasPrice": "0x0a",
                        "gasLimit": "0x0f4240",
                        "to": "0x400347dada8c51a2aac4b4c31ae726ba8551e2b9",
                        "value": "0x00",
                        "data": "0x",
                        "v": "0x25",
                        "r": "0x81159cb52f56493dc3c062a8a5b4c17addee59bc800f81736d65d5b3f5ba1a85",
                        "s": "0x22c89866e28cb490f4612cf25113cd8a7c60992b906116854045e3ce75beadab",
                        "sender": "0xebaf50debf10e08302fe4280c32df010463ca297"
                    }
                ],
                "uncleHeaders": [],
                "withdrawals": [],
                "receipts": [
                    {
                        "transactionHash": "0xcd491ddfbb7dbad4a4ab69fec4a60924cb1a2a4f692237867cd7566d59502711",
                        "type": "0x00",
                        "cumulativeGasUsed": "0x0cf040",
                        "bloom": "0x00000000000000000000000000000000000000000000000000000000000000000000000000000000000000000000000000000000000000000000000000000000000000000000000000000000000000000000000000000000000000000000000000000000000000000000000000000000000000000000000000000000000000000000000000000000000000000000000000000000000000000000000000000000000000000000000000000000000000000000000000000000000000000000000000000000000000000000000000000000000000000000000000000000000000000000000000000000000000000000000000000000000000000000000000000000",
                        "logs": [],
                        "status": true,
                        "rlp": "0xf9010901830cf040b9010000000000000000000000000000000000000000000000000000000000000000000000000000000000000000000000000000000000000000000000000000000000000000000000000000000000000000000000000000000000000000000000000000000000000000000000000000000000000000000000000000000000000000000000000000000000000000000000000000000000000000000000000000000000000000000000000000000000000000000000000000000000000000000000000000000000000000000000000000000000000000000000000000000000000000000000000000000000000000000000000000000000000000000000000000000000c0"
                    }
                ],
                "rlp": "0xf902a4f9023ba02e6b8e708634565f311ae77c49cd32ddad8ef98a2edeb5cd3825605bbf97d559a01dcc4de8dec75d7aab85b567b6ccd41ad312451b948a7413f0a142fd40d49347942adc25665018aa1fe0e6bc666dac8fc2697ff9baa015f8dd1434fc8f54a646df15c19db03ae5138e5f4e5508d97ac674ab8a5a51c3a05ce03124bc25ba13c32270fcd7f882f212d3a8d815ecd5cfbf2a0368e845ef2aa0bf46d4ee9345a2cdd98065ff4c648060f294884bf381cd4bb5f993c6ff02f50eb901000000000000000000000000000000000000000000000000000000000000000000000000000000000000000000000000000000000000000000000000000000000000000000000000000000000000000000000000000000000000000000000000000000000000000000000000000000000000000000000000000000000000000000000000000000000000000000000000000000000000000000000000000000000000000000000000000000000000000000000000000000000000000000000000000000000000000000000000000000000000000000000000000000000000000000000000000000000000000000000000000000000000000000000000000000000080018401c9c380830cf0408203e800a000000000000000000000000000000000000000000000000000000000000200008800000000000000000aa056e81f171bcc55a6ff8345e692c0f86e5b48e01b996cadc001622fb5e363b4218080a00000000000000000000000000000000000000000000000000000000000000000f862f860800a830f424094400347dada8c51a2aac4b4c31ae726ba8551e2b9808025a081159cb52f56493dc3c062a8a5b4c17addee59bc800f81736d65d5b3f5ba1a85a022c89866e28cb490f4612cf25113cd8a7c60992b906116854045e3ce75beadabc0c0",
                "blocknumber": "1"
            }
        ],
        "sealEngine": "NoProof",
        "_info": {
            "hash": "0x7c1a2830812fb3246747a189fc0ea662004a41fd25c34b69bfe4995e1dafdb99",
            "fixture-format": "blockchain_test",
            "comment": "`execution-specs` generated test",
            "filling-transition-tool": "2.19.0",
            "description": "Callcode -> callcode (oog) -> call -> code.",
            "url": "https://github.com/ethereum/execution-specs/blob/tests-sn\u00f8bal-devnet-4@v1.0.0/tests/ported_static/stCallCodes/test_callcodecallcodecall_110_oogm_after.py#L25",
            "metadata": {
                "opcode_count": {}
            }
        }
    }
}