{
    "tests/osaka/eip7883_modexp_gas_increase/test_modexp_thresholds.py::test_modexp_call_operations[fork_Berlin-blockchain_test_from_state_test-base-heavy-call_opcode_CALLCODE]": {
        "network": "Berlin",
        "genesisBlockHeader": {
            "parentHash": "0x0000000000000000000000000000000000000000000000000000000000000000",
            "uncleHash": "0x1dcc4de8dec75d7aab85b567b6ccd41ad312451b948a7413f0a142fd40d49347",
            "coinbase": "0x0000000000000000000000000000000000000000",
            "stateRoot": "0xdf845e6c839ef140940ac42b04c1794d315377b84db1728e745bfda0b4998c1e",
            "transactionsTrie": "0x56e81f171bcc55a6ff8345e692c0f86e5b48e01b996cadc001622fb5e363b421",
            "receiptTrie": "0x56e81f171bcc55a6ff8345e692c0f86e5b48e01b996cadc001622fb5e363b421",
            "bloom": "0x00000000000000000000000000000000000000000000000000000000000000000000000000000000000000000000000000000000000000000000000000000000000000000000000000000000000000000000000000000000000000000000000000000000000000000000000000000000000000000000000000000000000000000000000000000000000000000000000000000000000000000000000000000000000000000000000000000000000000000000000000000000000000000000000000000000000000000000000000000000000000000000000000000000000000000000000000000000000000000000000000000000000000000000000000000000",
            "difficulty": "0x020000",
            "number": "0x00",
            "gasLimit": "0x07270e00",
            "gasUsed": "0x00",
            "timestamp": "0x00",
            "extraData": "0x00",
            "mixHash": "0x0000000000000000000000000000000000000000000000000000000000000000",
            "nonce": "0x0000000000000000",
            "hash": "0x366191e6144d4d1042805bd914632b390ef64655b64c015d6ea91c182ad0bc49"
        },
        "pre": {
            "0xd242ff7bfd36f89e49e50e0ffb67c0c24c9b6764": {
                "nonce": "0x01",
                "balance": "0x00",
                "code": "0x3660006000375a600060003660006000600560c8f25a906000553d60015561007a0190036002553d600060003e3d600020600355",
                "storage": {}
            },
            "0x1ad9bc24818784172ff393bb6f89f094d4d2ca29": {
                "nonce": "0x00",
                "balance": "0x3635c9adc5dea00000",
                "code": "0x",
                "storage": {}
            }
        },
        "postState": {
            "0xd242ff7bfd36f89e49e50e0ffb67c0c24c9b6764": {
                "nonce": "0x01",
                "balance": "0x00",
                "code": "0x3660006000375a600060003660006000600560c8f25a906000553d60015561007a0190036002553d600060003e3d600020600355",
                "storage": {
                    "0x00": "0x01",
                    "0x01": "0x28",
                    "0x02": "0xc8",
                    "0x03": "0x7f8a6c56dfa7eb36c5813257a65db0d4503a9c3b69afc9247d97efb4af16ac18"
                }
            },
            "0x1ad9bc24818784172ff393bb6f89f094d4d2ca29": {
                "nonce": "0x01",
                "balance": "0x3635c9adc5de8ef878",
                "code": "0x",
                "storage": {}
            },
            "0x2adc25665018aa1fe0e6bc666dac8fc2697ff9ba": {
                "nonce": "0x00",
                "balance": "0x1bc16d674ed90788",
                "code": "0x",
                "storage": {}
            }
        },
        "lastblockhash": "0x6c96a12acc03987c64f16dd8979b1e4b3f78e7a1fd4ebf4dec5ec7fe34451248",
        "config": {
            "network": "Berlin",
            "chainid": "0x01"
        },
        "genesisRLP": "0xf901f9f901f4a00000000000000000000000000000000000000000000000000000000000000000a01dcc4de8dec75d7aab85b567b6ccd41ad312451b948a7413f0a142fd40d49347940000000000000000000000000000000000000000a0df845e6c839ef140940ac42b04c1794d315377b84db1728e745bfda0b4998c1ea056e81f171bcc55a6ff8345e692c0f86e5b48e01b996cadc001622fb5e363b421a056e81f171bcc55a6ff8345e692c0f86e5b48e01b996cadc001622fb5e363b421b901000000000000000000000000000000000000000000000000000000000000000000000000000000000000000000000000000000000000000000000000000000000000000000000000000000000000000000000000000000000000000000000000000000000000000000000000000000000000000000000000000000000000000000000000000000000000000000000000000000000000000000000000000000000000000000000000000000000000000000000000000000000000000000000000000000000000000000000000000000000000000000000000000000000000000000000000000000000000000000000000000000000000000000000000000000000083020000808407270e00808000a00000000000000000000000000000000000000000000000000000000000000000880000000000000000c0c0",
        "blocks": [
            {
                "blockHeader": {
                    "parentHash": "0x366191e6144d4d1042805bd914632b390ef64655b64c015d6ea91c182ad0bc49",
                    "uncleHash": "0x1dcc4de8dec75d7aab85b567b6ccd41ad312451b948a7413f0a142fd40d49347",
                    "coinbase": "0x2adc25665018aa1fe0e6bc666dac8fc2697ff9ba",
                    "stateRoot": "0x7ba16eaf3d60690f03298903d6d8749088adebfd3d5a880828e46d416b93a1f1",
                    "transactionsTrie": "0x0a6b40609bfea46e92643d6f518029950e552710767f28faa82f72b571def0e4",
                    "receiptTrie": "0x0df53ea30262ade984def3d5a89475ed0650ef632952b6159fb56759743c1f0c",
                    "bloom": "0x00000000000000000000000000000000000000000000000000000000000000000000000000000000000000000000000000000000000000000000000000000000000000000000000000000000000000000000000000000000000000000000000000000000000000000000000000000000000000000000000000000000000000000000000000000000000000000000000000000000000000000000000000000000000000000000000000000000000000000000000000000000000000000000000000000000000000000000000000000000000000000000000000000000000000000000000000000000000000000000000000000000000000000000000000000000",
                    "difficulty": "0x020000",
                    "number": "0x01",
                    "gasLimit": "0x07270e00",
                    "gasUsed": "0x01b3f4",
                    "timestamp": "0x03e8",
                    "extraData": "0x00",
                    "mixHash": "0x0000000000000000000000000000000000000000000000000000000000000000",
                    "nonce": "0x0000000000000000",
                    "hash": "0x6c96a12acc03987c64f16dd8979b1e4b3f78e7a1fd4ebf4dec5ec7fe34451248"
                },
                "transactions": [
                    {
                        "type": "0x00",
                        "chainId": "0x01",
                        "nonce": "0x00",
                        "gasPrice": "0x0a",
                        "gasLimit": "0x0848ee",
                        "to": "0xd242ff7bfd36f89e49e50e0ffb67c0c24c9b6764",
                        "value": "0x00",
                        "data": "0x000000000000000000000000000000000000000000000000000000000000002800000000000000000000000000000000000000000000000000000000000000040000000000000000000000000000000000000000000000000000000000000028e8e77626586f73b955364c7b4bbf0bb7f7685ebd40e852b164633a4acbd3244c000102030405060701fffffff01681d2220bfea4bb888a5543db8c0916274ddb1ea93b144c042c01d8164c950001020304050607",
                        "v": "0x26",
                        "r": "0x4e3996e51585360575e8148dd52595ce9fd1192b2464e62381fbb38c4f4894b6",
                        "s": "0x5975df6438d5723e84fbbbd3e11112847f7e62d462f201ec43d0b6a502b62022",
                        "sender": "0x1ad9bc24818784172ff393bb6f89f094d4d2ca29"
                    }
                ],
                "uncleHeaders": [],
                "receipts": [
                    {
                        "transactionHash": "0xd95e52b3916a2d418c3d19d4a3aa92a0f6e8956fc0d047b50c8c814d8b1fec0f",
                        "type": "0x00",
                        "cumulativeGasUsed": "0x01b3f4",
                        "bloom": "0x00000000000000000000000000000000000000000000000000000000000000000000000000000000000000000000000000000000000000000000000000000000000000000000000000000000000000000000000000000000000000000000000000000000000000000000000000000000000000000000000000000000000000000000000000000000000000000000000000000000000000000000000000000000000000000000000000000000000000000000000000000000000000000000000000000000000000000000000000000000000000000000000000000000000000000000000000000000000000000000000000000000000000000000000000000000",
                        "logs": [],
                        "status": true,
                        "rlp": "0xf90109018301b3f4b9010000000000000000000000000000000000000000000000000000000000000000000000000000000000000000000000000000000000000000000000000000000000000000000000000000000000000000000000000000000000000000000000000000000000000000000000000000000000000000000000000000000000000000000000000000000000000000000000000000000000000000000000000000000000000000000000000000000000000000000000000000000000000000000000000000000000000000000000000000000000000000000000000000000000000000000000000000000000000000000000000000000000000000000000000000000000c0"
                    }
                ],
                "rlp": "0xf90318f901f9a0366191e6144d4d1042805bd914632b390ef64655b64c015d6ea91c182ad0bc49a01dcc4de8dec75d7aab85b567b6ccd41ad312451b948a7413f0a142fd40d49347942adc25665018aa1fe0e6bc666dac8fc2697ff9baa07ba16eaf3d60690f03298903d6d8749088adebfd3d5a880828e46d416b93a1f1a00a6b40609bfea46e92643d6f518029950e552710767f28faa82f72b571def0e4a00df53ea30262ade984def3d5a89475ed0650ef632952b6159fb56759743c1f0cb901000000000000000000000000000000000000000000000000000000000000000000000000000000000000000000000000000000000000000000000000000000000000000000000000000000000000000000000000000000000000000000000000000000000000000000000000000000000000000000000000000000000000000000000000000000000000000000000000000000000000000000000000000000000000000000000000000000000000000000000000000000000000000000000000000000000000000000000000000000000000000000000000000000000000000000000000000000000000000000000000000000000000000000000000000000000083020000018407270e008301b3f48203e800a00000000000000000000000000000000000000000000000000000000000000000880000000000000000f90118f90115800a830848ee94d242ff7bfd36f89e49e50e0ffb67c0c24c9b676480b8b4000000000000000000000000000000000000000000000000000000000000002800000000000000000000000000000000000000000000000000000000000000040000000000000000000000000000000000000000000000000000000000000028e8e77626586f73b955364c7b4bbf0bb7f7685ebd40e852b164633a4acbd3244c000102030405060701fffffff01681d2220bfea4bb888a5543db8c0916274ddb1ea93b144c042c01d8164c95000102030405060726a04e3996e51585360575e8148dd52595ce9fd1192b2464e62381fbb38c4f4894b6a05975df6438d5723e84fbbbd3e11112847f7e62d462f201ec43d0b6a502b62022c0",
                "blocknumber": "1"
            }
        ],
        "sealEngine": "NoProof",
        "_info": {
            "hash": "0x1a3f886749a1a340fbb7b024cf121363b6419754803027af847366eab0b67477",
            "fixture-format": "blockchain_test",
            "comment": "`execution-specs` generated test",
            "filling-transition-tool": "2.19.0",
            "description": "Test ModExp call related operations with EIP-7883.",
            "url": "https://github.com/ethereum/execution-specs/blob/tests-bal@v5.3.0/tests/osaka/eip7883_modexp_gas_increase/test_modexp_thresholds.py#L184",
            "opcode_count": {},
            "reference-spec": "https://github.com/ethereum/EIPs/blob/master/EIPS/eip-7883.md",
            "reference-spec-version": "13aa65810336d4f243d4563a828d5afe36035d23"
        }
    },
    "tests/osaka/eip7883_modexp_gas_increase/test_modexp_thresholds.py::test_modexp_call_operations[fork_Berlin-blockchain_test_from_state_test-base-heavy-call_opcode_CALL]": {
        "network": "Berlin",
        "genesisBlockHeader": {
            "parentHash": "0x0000000000000000000000000000000000000000000000000000000000000000",
            "uncleHash": "0x1dcc4de8dec75d7aab85b567b6ccd41ad312451b948a7413f0a142fd40d49347",
            "coinbase": "0x0000000000000000000000000000000000000000",
            "stateRoot": "0x0457e30b1c7884af6805461626c57360d94c0a19e38908a8deb3fea85cf9e5b3",
            "transactionsTrie": "0x56e81f171bcc55a6ff8345e692c0f86e5b48e01b996cadc001622fb5e363b421",
            "receiptTrie": "0x56e81f171bcc55a6ff8345e692c0f86e5b48e01b996cadc001622fb5e363b421",
            "bloom": "0x00000000000000000000000000000000000000000000000000000000000000000000000000000000000000000000000000000000000000000000000000000000000000000000000000000000000000000000000000000000000000000000000000000000000000000000000000000000000000000000000000000000000000000000000000000000000000000000000000000000000000000000000000000000000000000000000000000000000000000000000000000000000000000000000000000000000000000000000000000000000000000000000000000000000000000000000000000000000000000000000000000000000000000000000000000000",
            "difficulty": "0x020000",
            "number": "0x00",
            "gasLimit": "0x07270e00",
            "gasUsed": "0x00",
            "timestamp": "0x00",
            "extraData": "0x00",
            "mixHash": "0x0000000000000000000000000000000000000000000000000000000000000000",
            "nonce": "0x0000000000000000",
            "hash": "0xf5c0094799431e86a1aaaa75113c244dc44cf9b8a425430a19826a105785f7f8"
        },
        "pre": {
            "0xdec6233551179d0ae1449879f4f6de9e6cabeb29": {
                "nonce": "0x01",
                "balance": "0x00",
                "code": "0x3660006000375a600060003660006000600560c8f15a906000553d60015561007a0190036002553d600060003e3d600020600355",
                "storage": {}
            },
            "0x1ad9bc24818784172ff393bb6f89f094d4d2ca29": {
                "nonce": "0x00",
                "balance": "0x3635c9adc5dea00000",
                "code": "0x",
                "storage": {}
            }
        },
        "postState": {
            "0xdec6233551179d0ae1449879f4f6de9e6cabeb29": {
                "nonce": "0x01",
                "balance": "0x00",
                "code": "0x3660006000375a600060003660006000600560c8f15a906000553d60015561007a0190036002553d600060003e3d600020600355",
                "storage": {
                    "0x00": "0x01",
                    "0x01": "0x28",
                    "0x02": "0xc8",
                    "0x03": "0x7f8a6c56dfa7eb36c5813257a65db0d4503a9c3b69afc9247d97efb4af16ac18"
                }
            },
            "0x1ad9bc24818784172ff393bb6f89f094d4d2ca29": {
                "nonce": "0x01",
                "balance": "0x3635c9adc5de8ef878",
                "code": "0x",
                "storage": {}
            },
            "0x2adc25665018aa1fe0e6bc666dac8fc2697ff9ba": {
                "nonce": "0x00",
                "balance": "0x1bc16d674ed90788",
                "code": "0x",
                "storage": {}
            }
        },
        "lastblockhash": "0x1230ff25b1f4c9e1f6513a117e55cd9ed3d0374120972dea7b3c47a2d17d3d18",
        "config": {
            "network": "Berlin",
            "chainid": "0x01"
        },
        "genesisRLP": "0xf901f9f901f4a00000000000000000000000000000000000000000000000000000000000000000a01dcc4de8dec75d7aab85b567b6ccd41ad312451b948a7413f0a142fd40d49347940000000000000000000000000000000000000000a00457e30b1c7884af6805461626c57360d94c0a19e38908a8deb3fea85cf9e5b3a056e81f171bcc55a6ff8345e692c0f86e5b48e01b996cadc001622fb5e363b421a056e81f171bcc55a6ff8345e692c0f86e5b48e01b996cadc001622fb5e363b421b901000000000000000000000000000000000000000000000000000000000000000000000000000000000000000000000000000000000000000000000000000000000000000000000000000000000000000000000000000000000000000000000000000000000000000000000000000000000000000000000000000000000000000000000000000000000000000000000000000000000000000000000000000000000000000000000000000000000000000000000000000000000000000000000000000000000000000000000000000000000000000000000000000000000000000000000000000000000000000000000000000000000000000000000000000000000083020000808407270e00808000a00000000000000000000000000000000000000000000000000000000000000000880000000000000000c0c0",
        "blocks": [
            {
                "blockHeader": {
                    "parentHash": "0xf5c0094799431e86a1aaaa75113c244dc44cf9b8a425430a19826a105785f7f8",
                    "uncleHash": "0x1dcc4de8dec75d7aab85b567b6ccd41ad312451b948a7413f0a142fd40d49347",
                    "coinbase": "0x2adc25665018aa1fe0e6bc666dac8fc2697ff9ba",
                    "stateRoot": "0x7920afdf88b7d97b40832c90fcb63e5da837a11544a11f2506f76ba1da553caa",
                    "transactionsTrie": "0xa062c77c3770dfa2a63383d3f02c5e0578f8c29a36ac0a984229d20b65c0121c",
                    "receiptTrie": "0x0df53ea30262ade984def3d5a89475ed0650ef632952b6159fb56759743c1f0c",
                    "bloom": "0x00000000000000000000000000000000000000000000000000000000000000000000000000000000000000000000000000000000000000000000000000000000000000000000000000000000000000000000000000000000000000000000000000000000000000000000000000000000000000000000000000000000000000000000000000000000000000000000000000000000000000000000000000000000000000000000000000000000000000000000000000000000000000000000000000000000000000000000000000000000000000000000000000000000000000000000000000000000000000000000000000000000000000000000000000000000",
                    "difficulty": "0x020000",
                    "number": "0x01",
                    "gasLimit": "0x07270e00",
                    "gasUsed": "0x01b3f4",
                    "timestamp": "0x03e8",
                    "extraData": "0x00",
                    "mixHash": "0x0000000000000000000000000000000000000000000000000000000000000000",
                    "nonce": "0x0000000000000000",
                    "hash": "0x1230ff25b1f4c9e1f6513a117e55cd9ed3d0374120972dea7b3c47a2d17d3d18"
                },
                "transactions": [
                    {
                        "type": "0x00",
                        "chainId": "0x01",
                        "nonce": "0x00",
                        "gasPrice": "0x0a",
                        "gasLimit": "0x0848ee",
                        "to": "0xdec6233551179d0ae1449879f4f6de9e6cabeb29",
                        "value": "0x00",
                        "data": "0x000000000000000000000000000000000000000000000000000000000000002800000000000000000000000000000000000000000000000000000000000000040000000000000000000000000000000000000000000000000000000000000028e8e77626586f73b955364c7b4bbf0bb7f7685ebd40e852b164633a4acbd3244c000102030405060701fffffff01681d2220bfea4bb888a5543db8c0916274ddb1ea93b144c042c01d8164c950001020304050607",
                        "v": "0x26",
                        "r": "0x1b5712250358594c54a01996407399ee3f88bcedf38269ba8a443363bc26546b",
                        "s": "0x7a3c8b8e0767c1a82bcee34956b6336ac4b806e0c99b08461c707a2f3403e4ba",
                        "sender": "0x1ad9bc24818784172ff393bb6f89f094d4d2ca29"
                    }
                ],
                "uncleHeaders": [],
                "receipts": [
                    {
                        "transactionHash": "0xde83a7f2c27fb2dc0c655097bc8ec2711590582ecb812aedd554d27c971bdbe1",
                        "type": "0x00",
                        "cumulativeGasUsed": "0x01b3f4",
                        "bloom": "0x00000000000000000000000000000000000000000000000000000000000000000000000000000000000000000000000000000000000000000000000000000000000000000000000000000000000000000000000000000000000000000000000000000000000000000000000000000000000000000000000000000000000000000000000000000000000000000000000000000000000000000000000000000000000000000000000000000000000000000000000000000000000000000000000000000000000000000000000000000000000000000000000000000000000000000000000000000000000000000000000000000000000000000000000000000000",
                        "logs": [],
                        "status": true,
                        "rlp": "0xf90109018301b3f4b9010000000000000000000000000000000000000000000000000000000000000000000000000000000000000000000000000000000000000000000000000000000000000000000000000000000000000000000000000000000000000000000000000000000000000000000000000000000000000000000000000000000000000000000000000000000000000000000000000000000000000000000000000000000000000000000000000000000000000000000000000000000000000000000000000000000000000000000000000000000000000000000000000000000000000000000000000000000000000000000000000000000000000000000000000000000000c0"
                    }
                ],
                "rlp": "0xf90318f901f9a0f5c0094799431e86a1aaaa75113c244dc44cf9b8a425430a19826a105785f7f8a01dcc4de8dec75d7aab85b567b6ccd41ad312451b948a7413f0a142fd40d49347942adc25665018aa1fe0e6bc666dac8fc2697ff9baa07920afdf88b7d97b40832c90fcb63e5da837a11544a11f2506f76ba1da553caaa0a062c77c3770dfa2a63383d3f02c5e0578f8c29a36ac0a984229d20b65c0121ca00df53ea30262ade984def3d5a89475ed0650ef632952b6159fb56759743c1f0cb901000000000000000000000000000000000000000000000000000000000000000000000000000000000000000000000000000000000000000000000000000000000000000000000000000000000000000000000000000000000000000000000000000000000000000000000000000000000000000000000000000000000000000000000000000000000000000000000000000000000000000000000000000000000000000000000000000000000000000000000000000000000000000000000000000000000000000000000000000000000000000000000000000000000000000000000000000000000000000000000000000000000000000000000000000000000083020000018407270e008301b3f48203e800a00000000000000000000000000000000000000000000000000000000000000000880000000000000000f90118f90115800a830848ee94dec6233551179d0ae1449879f4f6de9e6cabeb2980b8b4000000000000000000000000000000000000000000000000000000000000002800000000000000000000000000000000000000000000000000000000000000040000000000000000000000000000000000000000000000000000000000000028e8e77626586f73b955364c7b4bbf0bb7f7685ebd40e852b164633a4acbd3244c000102030405060701fffffff01681d2220bfea4bb888a5543db8c0916274ddb1ea93b144c042c01d8164c95000102030405060726a01b5712250358594c54a01996407399ee3f88bcedf38269ba8a443363bc26546ba07a3c8b8e0767c1a82bcee34956b6336ac4b806e0c99b08461c707a2f3403e4bac0",
                "blocknumber": "1"
            }
        ],
        "sealEngine": "NoProof",
        "_info": {
            "hash": "0x1b1a3f6598a93bab6d64ce55d0ee80b20cac5da80fbd876cbaa7700956ee67be",
            "fixture-format": "blockchain_test",
            "comment": "`execution-specs` generated test",
            "filling-transition-tool": "2.19.0",
            "description": "Test ModExp call related operations with EIP-7883.",
            "url": "https://github.com/ethereum/execution-specs/blob/tests-bal@v5.3.0/tests/osaka/eip7883_modexp_gas_increase/test_modexp_thresholds.py#L184",
            "opcode_count": {},
            "reference-spec": "https://github.com/ethereum/EIPs/blob/master/EIPS/eip-7883.md",
            "reference-spec-version": "13aa65810336d4f243d4563a828d5afe36035d23"
        }
    },
    "tests/osaka/eip7883_modexp_gas_increase/test_modexp_thresholds.py::test_modexp_call_operations[fork_Berlin-blockchain_test_from_state_test-base-heavy-call_opcode_DELEGATECALL]": {
        "network": "Berlin",
        "genesisBlockHeader": {
            "parentHash": "0x0000000000000000000000000000000000000000000000000000000000000000",
            "uncleHash": "0x1dcc4de8dec75d7aab85b567b6ccd41ad312451b948a7413f0a142fd40d49347",
            "coinbase": "0x0000000000000000000000000000000000000000",
            "stateRoot": "0xc7eef385736a4d097c5ffcc0992572c8cb6664bf7721eaf7d18c39618f5d1ed0",
            "transactionsTrie": "0x56e81f171bcc55a6ff8345e692c0f86e5b48e01b996cadc001622fb5e363b421",
            "receiptTrie": "0x56e81f171bcc55a6ff8345e692c0f86e5b48e01b996cadc001622fb5e363b421",
            "bloom": "0x00000000000000000000000000000000000000000000000000000000000000000000000000000000000000000000000000000000000000000000000000000000000000000000000000000000000000000000000000000000000000000000000000000000000000000000000000000000000000000000000000000000000000000000000000000000000000000000000000000000000000000000000000000000000000000000000000000000000000000000000000000000000000000000000000000000000000000000000000000000000000000000000000000000000000000000000000000000000000000000000000000000000000000000000000000000",
            "difficulty": "0x020000",
            "number": "0x00",
            "gasLimit": "0x07270e00",
            "gasUsed": "0x00",
            "timestamp": "0x00",
            "extraData": "0x00",
            "mixHash": "0x0000000000000000000000000000000000000000000000000000000000000000",
            "nonce": "0x0000000000000000",
            "hash": "0xd68072876eda8c742240a22438168aa536c5cec2e2c8fce5d5fd0e338d291ffa"
        },
        "pre": {
            "0x5d9271de4f5f724b54bb490166f6b8f4add16461": {
                "nonce": "0x01",
                "balance": "0x00",
                "code": "0x3660006000375a60006000366000600560c8f45a906000553d6001556100770190036002553d600060003e3d600020600355",
                "storage": {}
            },
            "0x1ad9bc24818784172ff393bb6f89f094d4d2ca29": {
                "nonce": "0x00",
                "balance": "0x3635c9adc5dea00000",
                "code": "0x",
                "storage": {}
            }
        },
        "postState": {
            "0x5d9271de4f5f724b54bb490166f6b8f4add16461": {
                "nonce": "0x01",
                "balance": "0x00",
                "code": "0x3660006000375a60006000366000600560c8f45a906000553d6001556100770190036002553d600060003e3d600020600355",
                "storage": {
                    "0x00": "0x01",
                    "0x01": "0x28",
                    "0x02": "0xc8",
                    "0x03": "0x7f8a6c56dfa7eb36c5813257a65db0d4503a9c3b69afc9247d97efb4af16ac18"
                }
            },
            "0x1ad9bc24818784172ff393bb6f89f094d4d2ca29": {
                "nonce": "0x01",
                "balance": "0x3635c9adc5de8ef896",
                "code": "0x",
                "storage": {}
            },
            "0x2adc25665018aa1fe0e6bc666dac8fc2697ff9ba": {
                "nonce": "0x00",
                "balance": "0x1bc16d674ed9076a",
                "code": "0x",
                "storage": {}
            }
        },
        "lastblockhash": "0x1a312a0c8e02fc81a0f0f75201339af78b743f54cd78c1151eff5239d183033e",
        "config": {
            "network": "Berlin",
            "chainid": "0x01"
        },
        "genesisRLP": "0xf901f9f901f4a00000000000000000000000000000000000000000000000000000000000000000a01dcc4de8dec75d7aab85b567b6ccd41ad312451b948a7413f0a142fd40d49347940000000000000000000000000000000000000000a0c7eef385736a4d097c5ffcc0992572c8cb6664bf7721eaf7d18c39618f5d1ed0a056e81f171bcc55a6ff8345e692c0f86e5b48e01b996cadc001622fb5e363b421a056e81f171bcc55a6ff8345e692c0f86e5b48e01b996cadc001622fb5e363b421b901000000000000000000000000000000000000000000000000000000000000000000000000000000000000000000000000000000000000000000000000000000000000000000000000000000000000000000000000000000000000000000000000000000000000000000000000000000000000000000000000000000000000000000000000000000000000000000000000000000000000000000000000000000000000000000000000000000000000000000000000000000000000000000000000000000000000000000000000000000000000000000000000000000000000000000000000000000000000000000000000000000000000000000000000000000000083020000808407270e00808000a00000000000000000000000000000000000000000000000000000000000000000880000000000000000c0c0",
        "blocks": [
            {
                "blockHeader": {
                    "parentHash": "0xd68072876eda8c742240a22438168aa536c5cec2e2c8fce5d5fd0e338d291ffa",
                    "uncleHash": "0x1dcc4de8dec75d7aab85b567b6ccd41ad312451b948a7413f0a142fd40d49347",
                    "coinbase": "0x2adc25665018aa1fe0e6bc666dac8fc2697ff9ba",
                    "stateRoot": "0x8b0137f67ff4be0a3a0864baa011c6cab13e201c1dfb36391b74c746dc0b1ae6",
                    "transactionsTrie": "0xffa828044ea3f9801241e368af8306e9d327ba0177a2aa3ff5ad41d00ab28f47",
                    "receiptTrie": "0x4ea831b0331948ed69283ff6b942f183d3d52a40fe2915ad164fd694bebfe915",
                    "bloom": "0x00000000000000000000000000000000000000000000000000000000000000000000000000000000000000000000000000000000000000000000000000000000000000000000000000000000000000000000000000000000000000000000000000000000000000000000000000000000000000000000000000000000000000000000000000000000000000000000000000000000000000000000000000000000000000000000000000000000000000000000000000000000000000000000000000000000000000000000000000000000000000000000000000000000000000000000000000000000000000000000000000000000000000000000000000000000",
                    "difficulty": "0x020000",
                    "number": "0x01",
                    "gasLimit": "0x07270e00",
                    "gasUsed": "0x01b3f1",
                    "timestamp": "0x03e8",
                    "extraData": "0x00",
                    "mixHash": "0x0000000000000000000000000000000000000000000000000000000000000000",
                    "nonce": "0x0000000000000000",
                    "hash": "0x1a312a0c8e02fc81a0f0f75201339af78b743f54cd78c1151eff5239d183033e"
                },
                "transactions": [
                    {
                        "type": "0x00",
                        "chainId": "0x01",
                        "nonce": "0x00",
                        "gasPrice": "0x0a",
                        "gasLimit": "0x0848ee",
                        "to": "0x5d9271de4f5f724b54bb490166f6b8f4add16461",
                        "value": "0x00",
                        "data": "0x000000000000000000000000000000000000000000000000000000000000002800000000000000000000000000000000000000000000000000000000000000040000000000000000000000000000000000000000000000000000000000000028e8e77626586f73b955364c7b4bbf0bb7f7685ebd40e852b164633a4acbd3244c000102030405060701fffffff01681d2220bfea4bb888a5543db8c0916274ddb1ea93b144c042c01d8164c950001020304050607",
                        "v": "0x26",
                        "r": "0x91c04e3cc492a20239e5fa742eacd2bc05da7081e318974bbba360170061e395",
                        "s": "0x3a103498b226de63e3d99398bec136c35bc5061296cd5cf23d0ff5389aec37b6",
                        "sender": "0x1ad9bc24818784172ff393bb6f89f094d4d2ca29"
                    }
                ],
                "uncleHeaders": [],
                "receipts": [
                    {
                        "transactionHash": "0x5e3a9284e2fdf4e4af3873dd88725e2405264a684f9222977275f387384b0b61",
                        "type": "0x00",
                        "cumulativeGasUsed": "0x01b3f1",
                        "bloom": "0x00000000000000000000000000000000000000000000000000000000000000000000000000000000000000000000000000000000000000000000000000000000000000000000000000000000000000000000000000000000000000000000000000000000000000000000000000000000000000000000000000000000000000000000000000000000000000000000000000000000000000000000000000000000000000000000000000000000000000000000000000000000000000000000000000000000000000000000000000000000000000000000000000000000000000000000000000000000000000000000000000000000000000000000000000000000",
                        "logs": [],
                        "status": true,
                        "rlp": "0xf90109018301b3f1b9010000000000000000000000000000000000000000000000000000000000000000000000000000000000000000000000000000000000000000000000000000000000000000000000000000000000000000000000000000000000000000000000000000000000000000000000000000000000000000000000000000000000000000000000000000000000000000000000000000000000000000000000000000000000000000000000000000000000000000000000000000000000000000000000000000000000000000000000000000000000000000000000000000000000000000000000000000000000000000000000000000000000000000000000000000000000c0"
                    }
                ],
                "rlp": "0xf90318f901f9a0d68072876eda8c742240a22438168aa536c5cec2e2c8fce5d5fd0e338d291ffaa01dcc4de8dec75d7aab85b567b6ccd41ad312451b948a7413f0a142fd40d49347942adc25665018aa1fe0e6bc666dac8fc2697ff9baa08b0137f67ff4be0a3a0864baa011c6cab13e201c1dfb36391b74c746dc0b1ae6a0ffa828044ea3f9801241e368af8306e9d327ba0177a2aa3ff5ad41d00ab28f47a04ea831b0331948ed69283ff6b942f183d3d52a40fe2915ad164fd694bebfe915b901000000000000000000000000000000000000000000000000000000000000000000000000000000000000000000000000000000000000000000000000000000000000000000000000000000000000000000000000000000000000000000000000000000000000000000000000000000000000000000000000000000000000000000000000000000000000000000000000000000000000000000000000000000000000000000000000000000000000000000000000000000000000000000000000000000000000000000000000000000000000000000000000000000000000000000000000000000000000000000000000000000000000000000000000000000000083020000018407270e008301b3f18203e800a00000000000000000000000000000000000000000000000000000000000000000880000000000000000f90118f90115800a830848ee945d9271de4f5f724b54bb490166f6b8f4add1646180b8b4000000000000000000000000000000000000000000000000000000000000002800000000000000000000000000000000000000000000000000000000000000040000000000000000000000000000000000000000000000000000000000000028e8e77626586f73b955364c7b4bbf0bb7f7685ebd40e852b164633a4acbd3244c000102030405060701fffffff01681d2220bfea4bb888a5543db8c0916274ddb1ea93b144c042c01d8164c95000102030405060726a091c04e3cc492a20239e5fa742eacd2bc05da7081e318974bbba360170061e395a03a103498b226de63e3d99398bec136c35bc5061296cd5cf23d0ff5389aec37b6c0",
                "blocknumber": "1"
            }
        ],
        "sealEngine": "NoProof",
        "_info": {
            "hash": "0xbee94b1420673d4c94d3849714a9460c7181453c798e5d1421d90e27febef530",
            "fixture-format": "blockchain_test",
            "comment": "`execution-specs` generated test",
            "filling-transition-tool": "2.19.0",
            "description": "Test ModExp call related operations with EIP-7883.",
            "url": "https://github.com/ethereum/execution-specs/blob/tests-bal@v5.3.0/tests/osaka/eip7883_modexp_gas_increase/test_modexp_thresholds.py#L184",
            "opcode_count": {},
            "reference-spec": "https://github.com/ethereum/EIPs/blob/master/EIPS/eip-7883.md",
            "reference-spec-version": "13aa65810336d4f243d4563a828d5afe36035d23"
        }
    },
    "tests/osaka/eip7883_modexp_gas_increase/test_modexp_thresholds.py::test_modexp_call_operations[fork_Berlin-blockchain_test_from_state_test-base-heavy-call_opcode_STATICCALL]": {
        "network": "Berlin",
        "genesisBlockHeader": {
            "parentHash": "0x0000000000000000000000000000000000000000000000000000000000000000",
            "uncleHash": "0x1dcc4de8dec75d7aab85b567b6ccd41ad312451b948a7413f0a142fd40d49347",
            "coinbase": "0x0000000000000000000000000000000000000000",
            "stateRoot": "0x27c852cb4b1f567449dee59ce9b4d3c19b44b669ee56f709e4bcbcc89c166e86",
            "transactionsTrie": "0x56e81f171bcc55a6ff8345e692c0f86e5b48e01b996cadc001622fb5e363b421",
            "receiptTrie": "0x56e81f171bcc55a6ff8345e692c0f86e5b48e01b996cadc001622fb5e363b421",
            "bloom": "0x00000000000000000000000000000000000000000000000000000000000000000000000000000000000000000000000000000000000000000000000000000000000000000000000000000000000000000000000000000000000000000000000000000000000000000000000000000000000000000000000000000000000000000000000000000000000000000000000000000000000000000000000000000000000000000000000000000000000000000000000000000000000000000000000000000000000000000000000000000000000000000000000000000000000000000000000000000000000000000000000000000000000000000000000000000000",
            "difficulty": "0x020000",
            "number": "0x00",
            "gasLimit": "0x07270e00",
            "gasUsed": "0x00",
            "timestamp": "0x00",
            "extraData": "0x00",
            "mixHash": "0x0000000000000000000000000000000000000000000000000000000000000000",
            "nonce": "0x0000000000000000",
            "hash": "0x2691c4b132d8bb4a2ac281283db6a5103c11b6575c905c3c2c697c032006c283"
        },
        "pre": {
            "0x77c538cced05ddf45e7050c7e63bb9d45f0ea2f6": {
                "nonce": "0x01",
                "balance": "0x00",
                "code": "0x3660006000375a60006000366000600560c8fa5a906000553d6001556100770190036002553d600060003e3d600020600355",
                "storage": {}
            },
            "0x1ad9bc24818784172ff393bb6f89f094d4d2ca29": {
                "nonce": "0x00",
                "balance": "0x3635c9adc5dea00000",
                "code": "0x",
                "storage": {}
            }
        },
        "postState": {
            "0x77c538cced05ddf45e7050c7e63bb9d45f0ea2f6": {
                "nonce": "0x01",
                "balance": "0x00",
                "code": "0x3660006000375a60006000366000600560c8fa5a906000553d6001556100770190036002553d600060003e3d600020600355",
                "storage": {
                    "0x00": "0x01",
                    "0x01": "0x28",
                    "0x02": "0xc8",
                    "0x03": "0x7f8a6c56dfa7eb36c5813257a65db0d4503a9c3b69afc9247d97efb4af16ac18"
                }
            },
            "0x1ad9bc24818784172ff393bb6f89f094d4d2ca29": {
                "nonce": "0x01",
                "balance": "0x3635c9adc5de8ef896",
                "code": "0x",
                "storage": {}
            },
            "0x2adc25665018aa1fe0e6bc666dac8fc2697ff9ba": {
                "nonce": "0x00",
                "balance": "0x1bc16d674ed9076a",
                "code": "0x",
                "storage": {}
            }
        },
        "lastblockhash": "0xa02a2bf1e034499b6b916efc3b209cb30276f6bc71b153ba76a818a1f08b68c0",
        "config": {
            "network": "Berlin",
            "chainid": "0x01"
        },
        "genesisRLP": "0xf901f9f901f4a00000000000000000000000000000000000000000000000000000000000000000a01dcc4de8dec75d7aab85b567b6ccd41ad312451b948a7413f0a142fd40d49347940000000000000000000000000000000000000000a027c852cb4b1f567449dee59ce9b4d3c19b44b669ee56f709e4bcbcc89c166e86a056e81f171bcc55a6ff8345e692c0f86e5b48e01b996cadc001622fb5e363b421a056e81f171bcc55a6ff8345e692c0f86e5b48e01b996cadc001622fb5e363b421b901000000000000000000000000000000000000000000000000000000000000000000000000000000000000000000000000000000000000000000000000000000000000000000000000000000000000000000000000000000000000000000000000000000000000000000000000000000000000000000000000000000000000000000000000000000000000000000000000000000000000000000000000000000000000000000000000000000000000000000000000000000000000000000000000000000000000000000000000000000000000000000000000000000000000000000000000000000000000000000000000000000000000000000000000000000000083020000808407270e00808000a00000000000000000000000000000000000000000000000000000000000000000880000000000000000c0c0",
        "blocks": [
            {
                "blockHeader": {
                    "parentHash": "0x2691c4b132d8bb4a2ac281283db6a5103c11b6575c905c3c2c697c032006c283",
                    "uncleHash": "0x1dcc4de8dec75d7aab85b567b6ccd41ad312451b948a7413f0a142fd40d49347",
                    "coinbase": "0x2adc25665018aa1fe0e6bc666dac8fc2697ff9ba",
                    "stateRoot": "0x2a5844598d723b01952a87f422c3cb5e1348bd7a073d4b06fbb6b7a40829257a",
                    "transactionsTrie": "0xaae39b26dd9fda3c046fc851253800c28b4355225e8786dc50b1a30e1dee9d2b",
                    "receiptTrie": "0x4ea831b0331948ed69283ff6b942f183d3d52a40fe2915ad164fd694bebfe915",
                    "bloom": "0x00000000000000000000000000000000000000000000000000000000000000000000000000000000000000000000000000000000000000000000000000000000000000000000000000000000000000000000000000000000000000000000000000000000000000000000000000000000000000000000000000000000000000000000000000000000000000000000000000000000000000000000000000000000000000000000000000000000000000000000000000000000000000000000000000000000000000000000000000000000000000000000000000000000000000000000000000000000000000000000000000000000000000000000000000000000",
                    "difficulty": "0x020000",
                    "number": "0x01",
                    "gasLimit": "0x07270e00",
                    "gasUsed": "0x01b3f1",
                    "timestamp": "0x03e8",
                    "extraData": "0x00",
                    "mixHash": "0x0000000000000000000000000000000000000000000000000000000000000000",
                    "nonce": "0x0000000000000000",
                    "hash": "0xa02a2bf1e034499b6b916efc3b209cb30276f6bc71b153ba76a818a1f08b68c0"
                },
                "transactions": [
                    {
                        "type": "0x00",
                        "chainId": "0x01",
                        "nonce": "0x00",
                        "gasPrice": "0x0a",
                        "gasLimit": "0x0848ee",
                        "to": "0x77c538cced05ddf45e7050c7e63bb9d45f0ea2f6",
                        "value": "0x00",
                        "data": "0x000000000000000000000000000000000000000000000000000000000000002800000000000000000000000000000000000000000000000000000000000000040000000000000000000000000000000000000000000000000000000000000028e8e77626586f73b955364c7b4bbf0bb7f7685ebd40e852b164633a4acbd3244c000102030405060701fffffff01681d2220bfea4bb888a5543db8c0916274ddb1ea93b144c042c01d8164c950001020304050607",
                        "v": "0x25",
                        "r": "0xa667e8ec2da6e1ecdc2a1925cbd1e07543eb209f64a0bc7a5e7d6d8da065dd85",
                        "s": "0x5a161b3defc7daf10b083603237c4fe2d1849d8e801d17f733efc90dd4708495",
                        "sender": "0x1ad9bc24818784172ff393bb6f89f094d4d2ca29"
                    }
                ],
                "uncleHeaders": [],
                "receipts": [
                    {
                        "transactionHash": "0x4dd69dd753d68932e183fbcdfc7041571b69b101e785c5c0a6352f923ea8ebb1",
                        "type": "0x00",
                        "cumulativeGasUsed": "0x01b3f1",
                        "bloom": "0x00000000000000000000000000000000000000000000000000000000000000000000000000000000000000000000000000000000000000000000000000000000000000000000000000000000000000000000000000000000000000000000000000000000000000000000000000000000000000000000000000000000000000000000000000000000000000000000000000000000000000000000000000000000000000000000000000000000000000000000000000000000000000000000000000000000000000000000000000000000000000000000000000000000000000000000000000000000000000000000000000000000000000000000000000000000",
                        "logs": [],
                        "status": true,
                        "rlp": "0xf90109018301b3f1b9010000000000000000000000000000000000000000000000000000000000000000000000000000000000000000000000000000000000000000000000000000000000000000000000000000000000000000000000000000000000000000000000000000000000000000000000000000000000000000000000000000000000000000000000000000000000000000000000000000000000000000000000000000000000000000000000000000000000000000000000000000000000000000000000000000000000000000000000000000000000000000000000000000000000000000000000000000000000000000000000000000000000000000000000000000000000c0"
                    }
                ],
                "rlp": "0xf90318f901f9a02691c4b132d8bb4a2ac281283db6a5103c11b6575c905c3c2c697c032006c283a01dcc4de8dec75d7aab85b567b6ccd41ad312451b948a7413f0a142fd40d49347942adc25665018aa1fe0e6bc666dac8fc2697ff9baa02a5844598d723b01952a87f422c3cb5e1348bd7a073d4b06fbb6b7a40829257aa0aae39b26dd9fda3c046fc851253800c28b4355225e8786dc50b1a30e1dee9d2ba04ea831b0331948ed69283ff6b942f183d3d52a40fe2915ad164fd694bebfe915b901000000000000000000000000000000000000000000000000000000000000000000000000000000000000000000000000000000000000000000000000000000000000000000000000000000000000000000000000000000000000000000000000000000000000000000000000000000000000000000000000000000000000000000000000000000000000000000000000000000000000000000000000000000000000000000000000000000000000000000000000000000000000000000000000000000000000000000000000000000000000000000000000000000000000000000000000000000000000000000000000000000000000000000000000000000000083020000018407270e008301b3f18203e800a00000000000000000000000000000000000000000000000000000000000000000880000000000000000f90118f90115800a830848ee9477c538cced05ddf45e7050c7e63bb9d45f0ea2f680b8b4000000000000000000000000000000000000000000000000000000000000002800000000000000000000000000000000000000000000000000000000000000040000000000000000000000000000000000000000000000000000000000000028e8e77626586f73b955364c7b4bbf0bb7f7685ebd40e852b164633a4acbd3244c000102030405060701fffffff01681d2220bfea4bb888a5543db8c0916274ddb1ea93b144c042c01d8164c95000102030405060725a0a667e8ec2da6e1ecdc2a1925cbd1e07543eb209f64a0bc7a5e7d6d8da065dd85a05a161b3defc7daf10b083603237c4fe2d1849d8e801d17f733efc90dd4708495c0",
                "blocknumber": "1"
            }
        ],
        "sealEngine": "NoProof",
        "_info": {
            "hash": "0x1fe0071a0e46bd01b3a1f412366d784de1c104b025aa89dd8ed41fddc7c02f22",
            "fixture-format": "blockchain_test",
            "comment": "`execution-specs` generated test",
            "filling-transition-tool": "2.19.0",
            "description": "Test ModExp call related operations with EIP-7883.",
            "url": "https://github.com/ethereum/execution-specs/blob/tests-bal@v5.3.0/tests/osaka/eip7883_modexp_gas_increase/test_modexp_thresholds.py#L184",
            "opcode_count": {},
            "reference-spec": "https://github.com/ethereum/EIPs/blob/master/EIPS/eip-7883.md",
            "reference-spec-version": "13aa65810336d4f243d4563a828d5afe36035d23"
        }
    }
}