{
    "tests/ported_static/stRevertTest/test_revert_prefound_call_oog.py::test_revert_prefound_call_oog[fork_Cancun-blockchain_test_from_state_test]": {
        "network": "Cancun",
        "genesisBlockHeader": {
            "parentHash": "0x0000000000000000000000000000000000000000000000000000000000000000",
            "uncleHash": "0x1dcc4de8dec75d7aab85b567b6ccd41ad312451b948a7413f0a142fd40d49347",
            "coinbase": "0x0000000000000000000000000000000000000000",
            "stateRoot": "0x289adfa43be44846c04dd5cb4a1912bf43033b2e84f128d0ad6444ed2dadcd5a",
            "transactionsTrie": "0x56e81f171bcc55a6ff8345e692c0f86e5b48e01b996cadc001622fb5e363b421",
            "receiptTrie": "0x56e81f171bcc55a6ff8345e692c0f86e5b48e01b996cadc001622fb5e363b421",
            "bloom": "0x00000000000000000000000000000000000000000000000000000000000000000000000000000000000000000000000000000000000000000000000000000000000000000000000000000000000000000000000000000000000000000000000000000000000000000000000000000000000000000000000000000000000000000000000000000000000000000000000000000000000000000000000000000000000000000000000000000000000000000000000000000000000000000000000000000000000000000000000000000000000000000000000000000000000000000000000000000000000000000000000000000000000000000000000000000000",
            "difficulty": "0x00",
            "number": "0x00",
            "gasLimit": "0x989680",
            "gasUsed": "0x00",
            "timestamp": "0x00",
            "extraData": "0x00",
            "mixHash": "0x0000000000000000000000000000000000000000000000000000000000000000",
            "nonce": "0x0000000000000000",
            "baseFeePerGas": "0x0b",
            "withdrawalsRoot": "0x56e81f171bcc55a6ff8345e692c0f86e5b48e01b996cadc001622fb5e363b421",
            "blobGasUsed": "0x00",
            "excessBlobGas": "0x00",
            "parentBeaconBlockRoot": "0x0000000000000000000000000000000000000000000000000000000000000000",
            "hash": "0xc486f9434044b12f30670c64563637f819386f3768042f524a93ee74b983af8c"
        },
        "pre": {
            "0x000f3df6d732807ef1319fb7b8bb8522d0beac02": {
                "nonce": "0x01",
                "balance": "0x00",
                "code": "0x3373fffffffffffffffffffffffffffffffffffffffe14604d57602036146024575f5ffd5b5f35801560495762001fff810690815414603c575f5ffd5b62001fff01545f5260205ff35b5f5ffd5b62001fff42064281555f359062001fff015500",
                "storage": {}
            },
            "0xfaa10b404ab607779993c016cd5da73ae1f29d7e": {
                "nonce": "0x00",
                "balance": "0xe8d4a51000",
                "code": "0x",
                "storage": {}
            },
            "0x85fdde91fd0ce22a2968e1f1b2ebb9f9e5a180ba": {
                "nonce": "0x00",
                "balance": "0x01",
                "code": "0x",
                "storage": {}
            },
            "0xf679bfe5f61e7640b9a66db191d5d86abc7b5c0a": {
                "nonce": "0x00",
                "balance": "0x01",
                "code": "0x602060006020600060007385fdde91fd0ce22a2968e1f1b2ebb9f9e5a180ba61c350f1600055600c600155600c60025500",
                "storage": {}
            }
        },
        "postState": {
            "0x000f3df6d732807ef1319fb7b8bb8522d0beac02": {
                "nonce": "0x01",
                "balance": "0x00",
                "code": "0x3373fffffffffffffffffffffffffffffffffffffffe14604d57602036146024575f5ffd5b5f35801560495762001fff810690815414603c575f5ffd5b62001fff01545f5260205ff35b5f5ffd5b62001fff42064281555f359062001fff015500",
                "storage": {
                    "0x03e8": "0x03e8"
                }
            },
            "0xfaa10b404ab607779993c016cd5da73ae1f29d7e": {
                "nonce": "0x01",
                "balance": "0xe8d49b7310",
                "code": "0x",
                "storage": {}
            },
            "0x85fdde91fd0ce22a2968e1f1b2ebb9f9e5a180ba": {
                "nonce": "0x00",
                "balance": "0x01",
                "code": "0x",
                "storage": {}
            },
            "0xf679bfe5f61e7640b9a66db191d5d86abc7b5c0a": {
                "nonce": "0x00",
                "balance": "0x01",
                "code": "0x602060006020600060007385fdde91fd0ce22a2968e1f1b2ebb9f9e5a180ba61c350f1600055600c600155600c60025500",
                "storage": {}
            }
        },
        "lastblockhash": "0xf34e034394282f339fd62dff9c2137c248673edcbe4c52ac0db30ba4441c5135",
        "config": {
            "network": "Cancun",
            "chainid": "0x01",
            "blobSchedule": {
                "Cancun": {
                    "target": "0x03",
                    "max": "0x06",
                    "baseFeeUpdateFraction": "0x32f0ed"
                }
            }
        },
        "genesisRLP": "0xf9023bf90235a00000000000000000000000000000000000000000000000000000000000000000a01dcc4de8dec75d7aab85b567b6ccd41ad312451b948a7413f0a142fd40d49347940000000000000000000000000000000000000000a0289adfa43be44846c04dd5cb4a1912bf43033b2e84f128d0ad6444ed2dadcd5aa056e81f171bcc55a6ff8345e692c0f86e5b48e01b996cadc001622fb5e363b421a056e81f171bcc55a6ff8345e692c0f86e5b48e01b996cadc001622fb5e363b421b9010000000000000000000000000000000000000000000000000000000000000000000000000000000000000000000000000000000000000000000000000000000000000000000000000000000000000000000000000000000000000000000000000000000000000000000000000000000000000000000000000000000000000000000000000000000000000000000000000000000000000000000000000000000000000000000000000000000000000000000000000000000000000000000000000000000000000000000000000000000000000000000000000000000000000000000000000000000000000000000000000000000000000000000000000000000000808083989680808000a000000000000000000000000000000000000000000000000000000000000000008800000000000000000ba056e81f171bcc55a6ff8345e692c0f86e5b48e01b996cadc001622fb5e363b4218080a00000000000000000000000000000000000000000000000000000000000000000c0c0c0",
        "blocks": [
            {
                "blockHeader": {
                    "parentHash": "0xc486f9434044b12f30670c64563637f819386f3768042f524a93ee74b983af8c",
                    "uncleHash": "0x1dcc4de8dec75d7aab85b567b6ccd41ad312451b948a7413f0a142fd40d49347",
                    "coinbase": "0x2adc25665018aa1fe0e6bc666dac8fc2697ff9ba",
                    "stateRoot": "0x555a7704b8882243420c8f98163f1914d114fd3999f19d4755fd78e6e9b877fe",
                    "transactionsTrie": "0x04e0f64743ed890215ad52ef6d40d4fcfba331cd24ad52a1491b37918c0a572a",
                    "receiptTrie": "0xea5612179b7b4a1f92bf7fc46c363bfe9555bf38b5b90fcb10d6815123883474",
                    "bloom": "0x00000000000000000000000000000000000000000000000000000000000000000000000000000000000000000000000000000000000000000000000000000000000000000000000000000000000000000000000000000000000000000000000000000000000000000000000000000000000000000000000000000000000000000000000000000000000000000000000000000000000000000000000000000000000000000000000000000000000000000000000000000000000000000000000000000000000000000000000000000000000000000000000000000000000000000000000000000000000000000000000000000000000000000000000000000000",
                    "difficulty": "0x00",
                    "number": "0x01",
                    "gasLimit": "0x989680",
                    "gasUsed": "0xf618",
                    "timestamp": "0x03e8",
                    "extraData": "0x00",
                    "mixHash": "0x0000000000000000000000000000000000000000000000000000000000020000",
                    "nonce": "0x0000000000000000",
                    "baseFeePerGas": "0x0a",
                    "withdrawalsRoot": "0x56e81f171bcc55a6ff8345e692c0f86e5b48e01b996cadc001622fb5e363b421",
                    "blobGasUsed": "0x00",
                    "excessBlobGas": "0x00",
                    "parentBeaconBlockRoot": "0x0000000000000000000000000000000000000000000000000000000000000000",
                    "hash": "0xf34e034394282f339fd62dff9c2137c248673edcbe4c52ac0db30ba4441c5135"
                },
                "transactions": [
                    {
                        "type": "0x00",
                        "chainId": "0x01",
                        "nonce": "0x00",
                        "gasPrice": "0x0a",
                        "gasLimit": "0xf618",
                        "to": "0xf679bfe5f61e7640b9a66db191d5d86abc7b5c0a",
                        "value": "0x00",
                        "data": "0x",
                        "v": "0x25",
                        "r": "0xa6b57c0ea007e8dde8d80445514b05ef32cb2fe5eb6cfe0db31dc022746da6d8",
                        "s": "0x220db3df8b673fc300f199350eb86ed213cc6bef579f6b1b761fb9cfc3fc2bfb",
                        "sender": "0xfaa10b404ab607779993c016cd5da73ae1f29d7e"
                    }
                ],
                "uncleHeaders": [],
                "withdrawals": [],
                "receipts": [
                    {
                        "transactionHash": "0x8cda9ed7e7a93ce547e45c8bc505094b56f938ef8b3bf0aaa88c9614dbb0e62b",
                        "type": "0x00",
                        "cumulativeGasUsed": "0xf618",
                        "bloom": "0x00000000000000000000000000000000000000000000000000000000000000000000000000000000000000000000000000000000000000000000000000000000000000000000000000000000000000000000000000000000000000000000000000000000000000000000000000000000000000000000000000000000000000000000000000000000000000000000000000000000000000000000000000000000000000000000000000000000000000000000000000000000000000000000000000000000000000000000000000000000000000000000000000000000000000000000000000000000000000000000000000000000000000000000000000000000",
                        "logs": [],
                        "status": false,
                        "rlp": "0xf901088082f618b9010000000000000000000000000000000000000000000000000000000000000000000000000000000000000000000000000000000000000000000000000000000000000000000000000000000000000000000000000000000000000000000000000000000000000000000000000000000000000000000000000000000000000000000000000000000000000000000000000000000000000000000000000000000000000000000000000000000000000000000000000000000000000000000000000000000000000000000000000000000000000000000000000000000000000000000000000000000000000000000000000000000000000000000000000000000000c0"
                    }
                ],
                "rlp": "0xf902a1f90239a0c486f9434044b12f30670c64563637f819386f3768042f524a93ee74b983af8ca01dcc4de8dec75d7aab85b567b6ccd41ad312451b948a7413f0a142fd40d49347942adc25665018aa1fe0e6bc666dac8fc2697ff9baa0555a7704b8882243420c8f98163f1914d114fd3999f19d4755fd78e6e9b877fea004e0f64743ed890215ad52ef6d40d4fcfba331cd24ad52a1491b37918c0a572aa0ea5612179b7b4a1f92bf7fc46c363bfe9555bf38b5b90fcb10d6815123883474b901000000000000000000000000000000000000000000000000000000000000000000000000000000000000000000000000000000000000000000000000000000000000000000000000000000000000000000000000000000000000000000000000000000000000000000000000000000000000000000000000000000000000000000000000000000000000000000000000000000000000000000000000000000000000000000000000000000000000000000000000000000000000000000000000000000000000000000000000000000000000000000000000000000000000000000000000000000000000000000000000000000000000000000000000000000000080018398968082f6188203e800a000000000000000000000000000000000000000000000000000000000000200008800000000000000000aa056e81f171bcc55a6ff8345e692c0f86e5b48e01b996cadc001622fb5e363b4218080a00000000000000000000000000000000000000000000000000000000000000000f861f85f800a82f61894f679bfe5f61e7640b9a66db191d5d86abc7b5c0a808025a0a6b57c0ea007e8dde8d80445514b05ef32cb2fe5eb6cfe0db31dc022746da6d8a0220db3df8b673fc300f199350eb86ed213cc6bef579f6b1b761fb9cfc3fc2bfbc0c0",
                "blocknumber": "1"
            }
        ],
        "sealEngine": "NoProof",
        "_info": {
            "hash": "0xdec4fb227bb88e8db7b5d9d69e66757157a5a41e86d81af60db1f2dd5b8bce22",
            "fixture-format": "blockchain_test",
            "comment": "`execution-specs` generated test",
            "filling-transition-tool": "2.19.0",
            "description": "Test_revert_prefound_call_oog.",
            "url": "https://github.com/ethereum/execution-specs/blob/tests-bal@v5.7.0/tests/ported_static/stRevertTest/test_revert_prefound_call_oog.py#L25",
            "metadata": {
                "opcode_count": {}
            }
        }
    }
}