{
    "tests/constantinople/eip1052_extcodehash/test_extcodehash.py::test_extcodehash_after_selfdestruct[fork_Berlin-blockchain_test_from_state_test-create2]": {
        "network": "Berlin",
        "genesisBlockHeader": {
            "parentHash": "0x0000000000000000000000000000000000000000000000000000000000000000",
            "uncleHash": "0x1dcc4de8dec75d7aab85b567b6ccd41ad312451b948a7413f0a142fd40d49347",
            "coinbase": "0x0000000000000000000000000000000000000000",
            "stateRoot": "0x9e2fdf39992380b8f727f111b0f7ad0689561a9617cb049818deb585725894ab",
            "transactionsTrie": "0x56e81f171bcc55a6ff8345e692c0f86e5b48e01b996cadc001622fb5e363b421",
            "receiptTrie": "0x56e81f171bcc55a6ff8345e692c0f86e5b48e01b996cadc001622fb5e363b421",
            "bloom": "0x00000000000000000000000000000000000000000000000000000000000000000000000000000000000000000000000000000000000000000000000000000000000000000000000000000000000000000000000000000000000000000000000000000000000000000000000000000000000000000000000000000000000000000000000000000000000000000000000000000000000000000000000000000000000000000000000000000000000000000000000000000000000000000000000000000000000000000000000000000000000000000000000000000000000000000000000000000000000000000000000000000000000000000000000000000000",
            "difficulty": "0x020000",
            "number": "0x00",
            "gasLimit": "0x07270e00",
            "gasUsed": "0x00",
            "timestamp": "0x00",
            "extraData": "0x00",
            "mixHash": "0x0000000000000000000000000000000000000000000000000000000000000000",
            "nonce": "0x0000000000000000",
            "hash": "0x958e94f0ef33a5be0c49360c88c244ec3a767d67c7f86aa1f2429d582c5b38e0"
        },
        "pre": {
            "0x41a518d831226e823f596a55c095b9d7bc73f8ff": {
                "nonce": "0x01",
                "balance": "0x00",
                "code": "0x7f610002600081600b8239f332ff000000000000000000000000000000000000006000526000600d60006000f56000556000543f6001556000543b60025560006000526002600060006000543c60005160035560006000600060006000600054620186a0f1506000543f6004556000543b60055560006000526002600060006000543c600051600655",
                "storage": {
                    "0x00": "0xba5e"
                }
            },
            "0x1ad9bc24818784172ff393bb6f89f094d4d2ca29": {
                "nonce": "0x00",
                "balance": "0x3635c9adc5dea00000",
                "code": "0x",
                "storage": {}
            }
        },
        "postState": {
            "0x41a518d831226e823f596a55c095b9d7bc73f8ff": {
                "nonce": "0x02",
                "balance": "0x00",
                "code": "0x7f610002600081600b8239f332ff000000000000000000000000000000000000006000526000600d60006000f56000556000543f6001556000543b60025560006000526002600060006000543c60005160035560006000600060006000600054620186a0f1506000543f6004556000543b60055560006000526002600060006000543c600051600655",
                "storage": {
                    "0x00": "0x7575a1682d901310b571843daa185b1823a2d31d",
                    "0x01": "0x3a6ca0f2fdba9798ec7350fb5106f9dd4102ec04a5cbd39ec60cd921c3d7af06",
                    "0x02": "0x02",
                    "0x03": "0x32ff000000000000000000000000000000000000000000000000000000000000",
                    "0x04": "0x3a6ca0f2fdba9798ec7350fb5106f9dd4102ec04a5cbd39ec60cd921c3d7af06",
                    "0x05": "0x02",
                    "0x06": "0x32ff000000000000000000000000000000000000000000000000000000000000"
                }
            },
            "0x1ad9bc24818784172ff393bb6f89f094d4d2ca29": {
                "nonce": "0x01",
                "balance": "0x3635c9adc5de8583d8",
                "code": "0x",
                "storage": {}
            },
            "0x2adc25665018aa1fe0e6bc666dac8fc2697ff9ba": {
                "nonce": "0x00",
                "balance": "0x1bc16d674ee27c28",
                "code": "0x",
                "storage": {}
            }
        },
        "lastblockhash": "0xac0e250b961690e1868e59a63c906b07cdd287388a69c236c22427a0e98be309",
        "config": {
            "network": "Berlin",
            "chainid": "0x01"
        },
        "genesisRLP": "0xf901f9f901f4a00000000000000000000000000000000000000000000000000000000000000000a01dcc4de8dec75d7aab85b567b6ccd41ad312451b948a7413f0a142fd40d49347940000000000000000000000000000000000000000a09e2fdf39992380b8f727f111b0f7ad0689561a9617cb049818deb585725894aba056e81f171bcc55a6ff8345e692c0f86e5b48e01b996cadc001622fb5e363b421a056e81f171bcc55a6ff8345e692c0f86e5b48e01b996cadc001622fb5e363b421b901000000000000000000000000000000000000000000000000000000000000000000000000000000000000000000000000000000000000000000000000000000000000000000000000000000000000000000000000000000000000000000000000000000000000000000000000000000000000000000000000000000000000000000000000000000000000000000000000000000000000000000000000000000000000000000000000000000000000000000000000000000000000000000000000000000000000000000000000000000000000000000000000000000000000000000000000000000000000000000000000000000000000000000000000000000000083020000808407270e00808000a00000000000000000000000000000000000000000000000000000000000000000880000000000000000c0c0",
        "blocks": [
            {
                "blockHeader": {
                    "parentHash": "0x958e94f0ef33a5be0c49360c88c244ec3a767d67c7f86aa1f2429d582c5b38e0",
                    "uncleHash": "0x1dcc4de8dec75d7aab85b567b6ccd41ad312451b948a7413f0a142fd40d49347",
                    "coinbase": "0x2adc25665018aa1fe0e6bc666dac8fc2697ff9ba",
                    "stateRoot": "0x8b26adc1fbe8672e25b3771a71ad7a8a50357b61374ec47fd14fb1a374767c6a",
                    "transactionsTrie": "0x99bf405f36e9710619abd671d102c79e58e749f82eaf7614f342e1a27eed9384",
                    "receiptTrie": "0xfa786aef6b64d98555d60162b2dcfe48fb301ce01b409826131b0f8af6d2ac8e",
                    "bloom": "0x00000000000000000000000000000000000000000000000000000000000000000000000000000000000000000000000000000000000000000000000000000000000000000000000000000000000000000000000000000000000000000000000000000000000000000000000000000000000000000000000000000000000000000000000000000000000000000000000000000000000000000000000000000000000000000000000000000000000000000000000000000000000000000000000000000000000000000000000000000000000000000000000000000000000000000000000000000000000000000000000000000000000000000000000000000000",
                    "difficulty": "0x020000",
                    "number": "0x01",
                    "gasLimit": "0x07270e00",
                    "gasUsed": "0x02a604",
                    "timestamp": "0x03e8",
                    "extraData": "0x00",
                    "mixHash": "0x0000000000000000000000000000000000000000000000000000000000000000",
                    "nonce": "0x0000000000000000",
                    "hash": "0xac0e250b961690e1868e59a63c906b07cdd287388a69c236c22427a0e98be309"
                },
                "transactions": [
                    {
                        "type": "0x00",
                        "chainId": "0x01",
                        "nonce": "0x00",
                        "gasPrice": "0x0a",
                        "gasLimit": "0x0f4240",
                        "to": "0x41a518d831226e823f596a55c095b9d7bc73f8ff",
                        "value": "0x00",
                        "data": "0x",
                        "v": "0x26",
                        "r": "0xe7c1863ff7ff9233906b3506465aa79342857de2c72105108388738b4b1952ad",
                        "s": "0x11b6886b8b1f80218d7d68abac344561a9d72eb60aeaadc32a731557959e46ec",
                        "sender": "0x1ad9bc24818784172ff393bb6f89f094d4d2ca29"
                    }
                ],
                "uncleHeaders": [],
                "receipts": [
                    {
                        "transactionHash": "0xf3148008c9c9bdc0fffa94d78fb59b52208a6cee1222cf47518ea6d13dd50a66",
                        "type": "0x00",
                        "cumulativeGasUsed": "0x02a604",
                        "bloom": "0x00000000000000000000000000000000000000000000000000000000000000000000000000000000000000000000000000000000000000000000000000000000000000000000000000000000000000000000000000000000000000000000000000000000000000000000000000000000000000000000000000000000000000000000000000000000000000000000000000000000000000000000000000000000000000000000000000000000000000000000000000000000000000000000000000000000000000000000000000000000000000000000000000000000000000000000000000000000000000000000000000000000000000000000000000000000",
                        "logs": [],
                        "status": true,
                        "rlp": "0xf90109018302a604b9010000000000000000000000000000000000000000000000000000000000000000000000000000000000000000000000000000000000000000000000000000000000000000000000000000000000000000000000000000000000000000000000000000000000000000000000000000000000000000000000000000000000000000000000000000000000000000000000000000000000000000000000000000000000000000000000000000000000000000000000000000000000000000000000000000000000000000000000000000000000000000000000000000000000000000000000000000000000000000000000000000000000000000000000000000000000c0"
                    }
                ],
                "rlp": "0xf90261f901f9a0958e94f0ef33a5be0c49360c88c244ec3a767d67c7f86aa1f2429d582c5b38e0a01dcc4de8dec75d7aab85b567b6ccd41ad312451b948a7413f0a142fd40d49347942adc25665018aa1fe0e6bc666dac8fc2697ff9baa08b26adc1fbe8672e25b3771a71ad7a8a50357b61374ec47fd14fb1a374767c6aa099bf405f36e9710619abd671d102c79e58e749f82eaf7614f342e1a27eed9384a0fa786aef6b64d98555d60162b2dcfe48fb301ce01b409826131b0f8af6d2ac8eb901000000000000000000000000000000000000000000000000000000000000000000000000000000000000000000000000000000000000000000000000000000000000000000000000000000000000000000000000000000000000000000000000000000000000000000000000000000000000000000000000000000000000000000000000000000000000000000000000000000000000000000000000000000000000000000000000000000000000000000000000000000000000000000000000000000000000000000000000000000000000000000000000000000000000000000000000000000000000000000000000000000000000000000000000000000000083020000018407270e008302a6048203e800a00000000000000000000000000000000000000000000000000000000000000000880000000000000000f862f860800a830f42409441a518d831226e823f596a55c095b9d7bc73f8ff808026a0e7c1863ff7ff9233906b3506465aa79342857de2c72105108388738b4b1952ada011b6886b8b1f80218d7d68abac344561a9d72eb60aeaadc32a731557959e46ecc0",
                "blocknumber": "1"
            }
        ],
        "sealEngine": "NoProof",
        "_info": {
            "hash": "0xdde534b1ef52e1dd2db864394815253888ce2b499d6b9ec4dabb90e53dfc94e3",
            "fixture-format": "blockchain_test",
            "comment": "`execution-specs` generated test",
            "filling-transition-tool": "2.19.0",
            "description": "Test EXTCODEHASH/EXTCODESIZE/EXTCODECOPY before and after SELFDESTRUCT.\n\nVerifies that code hash, size, and copied code remain unchanged\nwithin the transaction after SELFDESTRUCT is triggered.\nPre-Cancun, all selfdestructed accounts are deleted. From Cancun\n(EIP-6780), only accounts created in the same transaction are\ndeleted; pre-existing accounts persist with balance drained.",
            "url": "https://github.com/ethereum/execution-specs/blob/tests-bal@v5.4.0/tests/constantinople/eip1052_extcodehash/test_extcodehash.py#L740",
            "opcode_count": {},
            "reference-spec": "https://github.com/ethereum/EIPs/blob/master/EIPS/eip-1052.md",
            "reference-spec-version": "2dcbc7ce1563e9624e137e9d447374600af876fa"
        }
    },
    "tests/constantinople/eip1052_extcodehash/test_extcodehash.py::test_extcodehash_after_selfdestruct[fork_Berlin-blockchain_test_from_state_test-create]": {
        "network": "Berlin",
        "genesisBlockHeader": {
            "parentHash": "0x0000000000000000000000000000000000000000000000000000000000000000",
            "uncleHash": "0x1dcc4de8dec75d7aab85b567b6ccd41ad312451b948a7413f0a142fd40d49347",
            "coinbase": "0x0000000000000000000000000000000000000000",
            "stateRoot": "0xe3d7b455d825946d9a93f4073ebe5a9b3b5dcbc7e6a47bf4952e93994fbd7ca3",
            "transactionsTrie": "0x56e81f171bcc55a6ff8345e692c0f86e5b48e01b996cadc001622fb5e363b421",
            "receiptTrie": "0x56e81f171bcc55a6ff8345e692c0f86e5b48e01b996cadc001622fb5e363b421",
            "bloom": "0x00000000000000000000000000000000000000000000000000000000000000000000000000000000000000000000000000000000000000000000000000000000000000000000000000000000000000000000000000000000000000000000000000000000000000000000000000000000000000000000000000000000000000000000000000000000000000000000000000000000000000000000000000000000000000000000000000000000000000000000000000000000000000000000000000000000000000000000000000000000000000000000000000000000000000000000000000000000000000000000000000000000000000000000000000000000",
            "difficulty": "0x020000",
            "number": "0x00",
            "gasLimit": "0x07270e00",
            "gasUsed": "0x00",
            "timestamp": "0x00",
            "extraData": "0x00",
            "mixHash": "0x0000000000000000000000000000000000000000000000000000000000000000",
            "nonce": "0x0000000000000000",
            "hash": "0x20d465de285650549e46e87700b8abe4e1338f9f29a4dfd63b70ac361136049b"
        },
        "pre": {
            "0xe7186ea0c9fd562f61de9fc9a27b47cabad7894a": {
                "nonce": "0x01",
                "balance": "0x00",
                "code": "0x7f610002600081600b8239f332ff00000000000000000000000000000000000000600052600d60006000f06000556000543f6001556000543b60025560006000526002600060006000543c60005160035560006000600060006000600054620186a0f1506000543f6004556000543b60055560006000526002600060006000543c600051600655",
                "storage": {
                    "0x00": "0xba5e"
                }
            },
            "0x1ad9bc24818784172ff393bb6f89f094d4d2ca29": {
                "nonce": "0x00",
                "balance": "0x3635c9adc5dea00000",
                "code": "0x",
                "storage": {}
            }
        },
        "postState": {
            "0xe7186ea0c9fd562f61de9fc9a27b47cabad7894a": {
                "nonce": "0x02",
                "balance": "0x00",
                "code": "0x7f610002600081600b8239f332ff00000000000000000000000000000000000000600052600d60006000f06000556000543f6001556000543b60025560006000526002600060006000543c60005160035560006000600060006000600054620186a0f1506000543f6004556000543b60055560006000526002600060006000543c600051600655",
                "storage": {
                    "0x00": "0xdbfe21295c375d2a148ba776410ff63e09ac78b5",
                    "0x01": "0x3a6ca0f2fdba9798ec7350fb5106f9dd4102ec04a5cbd39ec60cd921c3d7af06",
                    "0x02": "0x02",
                    "0x03": "0x32ff000000000000000000000000000000000000000000000000000000000000",
                    "0x04": "0x3a6ca0f2fdba9798ec7350fb5106f9dd4102ec04a5cbd39ec60cd921c3d7af06",
                    "0x05": "0x02",
                    "0x06": "0x32ff000000000000000000000000000000000000000000000000000000000000"
                }
            },
            "0x1ad9bc24818784172ff393bb6f89f094d4d2ca29": {
                "nonce": "0x01",
                "balance": "0x3635c9adc5de858432",
                "code": "0x",
                "storage": {}
            },
            "0x2adc25665018aa1fe0e6bc666dac8fc2697ff9ba": {
                "nonce": "0x00",
                "balance": "0x1bc16d674ee27bce",
                "code": "0x",
                "storage": {}
            }
        },
        "lastblockhash": "0xc7953fc23089b9dc16e861d498d2ac256fec627dc35670b6d529e18aca90457c",
        "config": {
            "network": "Berlin",
            "chainid": "0x01"
        },
        "genesisRLP": "0xf901f9f901f4a00000000000000000000000000000000000000000000000000000000000000000a01dcc4de8dec75d7aab85b567b6ccd41ad312451b948a7413f0a142fd40d49347940000000000000000000000000000000000000000a0e3d7b455d825946d9a93f4073ebe5a9b3b5dcbc7e6a47bf4952e93994fbd7ca3a056e81f171bcc55a6ff8345e692c0f86e5b48e01b996cadc001622fb5e363b421a056e81f171bcc55a6ff8345e692c0f86e5b48e01b996cadc001622fb5e363b421b901000000000000000000000000000000000000000000000000000000000000000000000000000000000000000000000000000000000000000000000000000000000000000000000000000000000000000000000000000000000000000000000000000000000000000000000000000000000000000000000000000000000000000000000000000000000000000000000000000000000000000000000000000000000000000000000000000000000000000000000000000000000000000000000000000000000000000000000000000000000000000000000000000000000000000000000000000000000000000000000000000000000000000000000000000000000083020000808407270e00808000a00000000000000000000000000000000000000000000000000000000000000000880000000000000000c0c0",
        "blocks": [
            {
                "blockHeader": {
                    "parentHash": "0x20d465de285650549e46e87700b8abe4e1338f9f29a4dfd63b70ac361136049b",
                    "uncleHash": "0x1dcc4de8dec75d7aab85b567b6ccd41ad312451b948a7413f0a142fd40d49347",
                    "coinbase": "0x2adc25665018aa1fe0e6bc666dac8fc2697ff9ba",
                    "stateRoot": "0x24b7a84f1521cf1c503f716d45f681a36cfd1046aecc13d9ca17bf0a4ae61624",
                    "transactionsTrie": "0x83a7e18c1a211249aa116f7a2958a3f2a9cfd0c0c2367fde375f7a1a9794651a",
                    "receiptTrie": "0x0171a4e4ca5ab38222d40100b0fdea3f3a606f5631a41b6159946b1623ff4ba1",
                    "bloom": "0x00000000000000000000000000000000000000000000000000000000000000000000000000000000000000000000000000000000000000000000000000000000000000000000000000000000000000000000000000000000000000000000000000000000000000000000000000000000000000000000000000000000000000000000000000000000000000000000000000000000000000000000000000000000000000000000000000000000000000000000000000000000000000000000000000000000000000000000000000000000000000000000000000000000000000000000000000000000000000000000000000000000000000000000000000000000",
                    "difficulty": "0x020000",
                    "number": "0x01",
                    "gasLimit": "0x07270e00",
                    "gasUsed": "0x02a5fb",
                    "timestamp": "0x03e8",
                    "extraData": "0x00",
                    "mixHash": "0x0000000000000000000000000000000000000000000000000000000000000000",
                    "nonce": "0x0000000000000000",
                    "hash": "0xc7953fc23089b9dc16e861d498d2ac256fec627dc35670b6d529e18aca90457c"
                },
                "transactions": [
                    {
                        "type": "0x00",
                        "chainId": "0x01",
                        "nonce": "0x00",
                        "gasPrice": "0x0a",
                        "gasLimit": "0x0f4240",
                        "to": "0xe7186ea0c9fd562f61de9fc9a27b47cabad7894a",
                        "value": "0x00",
                        "data": "0x",
                        "v": "0x26",
                        "r": "0x7dba1838521b2cef8c51940b327e3400c5a657c2532e00e55413deefaa9303e4",
                        "s": "0x59f693d883fe647e4b6a196e0d643600d7f02128afe0083ad411c9411cd522e9",
                        "sender": "0x1ad9bc24818784172ff393bb6f89f094d4d2ca29"
                    }
                ],
                "uncleHeaders": [],
                "receipts": [
                    {
                        "transactionHash": "0xab32026b6dac80b92b713992abbb0b7d45867e993a50c79ea130085b81ff8c49",
                        "type": "0x00",
                        "cumulativeGasUsed": "0x02a5fb",
                        "bloom": "0x00000000000000000000000000000000000000000000000000000000000000000000000000000000000000000000000000000000000000000000000000000000000000000000000000000000000000000000000000000000000000000000000000000000000000000000000000000000000000000000000000000000000000000000000000000000000000000000000000000000000000000000000000000000000000000000000000000000000000000000000000000000000000000000000000000000000000000000000000000000000000000000000000000000000000000000000000000000000000000000000000000000000000000000000000000000",
                        "logs": [],
                        "status": true,
                        "rlp": "0xf90109018302a5fbb9010000000000000000000000000000000000000000000000000000000000000000000000000000000000000000000000000000000000000000000000000000000000000000000000000000000000000000000000000000000000000000000000000000000000000000000000000000000000000000000000000000000000000000000000000000000000000000000000000000000000000000000000000000000000000000000000000000000000000000000000000000000000000000000000000000000000000000000000000000000000000000000000000000000000000000000000000000000000000000000000000000000000000000000000000000000000c0"
                    }
                ],
                "rlp": "0xf90261f901f9a020d465de285650549e46e87700b8abe4e1338f9f29a4dfd63b70ac361136049ba01dcc4de8dec75d7aab85b567b6ccd41ad312451b948a7413f0a142fd40d49347942adc25665018aa1fe0e6bc666dac8fc2697ff9baa024b7a84f1521cf1c503f716d45f681a36cfd1046aecc13d9ca17bf0a4ae61624a083a7e18c1a211249aa116f7a2958a3f2a9cfd0c0c2367fde375f7a1a9794651aa00171a4e4ca5ab38222d40100b0fdea3f3a606f5631a41b6159946b1623ff4ba1b901000000000000000000000000000000000000000000000000000000000000000000000000000000000000000000000000000000000000000000000000000000000000000000000000000000000000000000000000000000000000000000000000000000000000000000000000000000000000000000000000000000000000000000000000000000000000000000000000000000000000000000000000000000000000000000000000000000000000000000000000000000000000000000000000000000000000000000000000000000000000000000000000000000000000000000000000000000000000000000000000000000000000000000000000000000000083020000018407270e008302a5fb8203e800a00000000000000000000000000000000000000000000000000000000000000000880000000000000000f862f860800a830f424094e7186ea0c9fd562f61de9fc9a27b47cabad7894a808026a07dba1838521b2cef8c51940b327e3400c5a657c2532e00e55413deefaa9303e4a059f693d883fe647e4b6a196e0d643600d7f02128afe0083ad411c9411cd522e9c0",
                "blocknumber": "1"
            }
        ],
        "sealEngine": "NoProof",
        "_info": {
            "hash": "0xc1314a3c944fa59332c3033930aeaf4b85c0467689622dcd29d41779790c34f1",
            "fixture-format": "blockchain_test",
            "comment": "`execution-specs` generated test",
            "filling-transition-tool": "2.19.0",
            "description": "Test EXTCODEHASH/EXTCODESIZE/EXTCODECOPY before and after SELFDESTRUCT.\n\nVerifies that code hash, size, and copied code remain unchanged\nwithin the transaction after SELFDESTRUCT is triggered.\nPre-Cancun, all selfdestructed accounts are deleted. From Cancun\n(EIP-6780), only accounts created in the same transaction are\ndeleted; pre-existing accounts persist with balance drained.",
            "url": "https://github.com/ethereum/execution-specs/blob/tests-bal@v5.4.0/tests/constantinople/eip1052_extcodehash/test_extcodehash.py#L740",
            "opcode_count": {},
            "reference-spec": "https://github.com/ethereum/EIPs/blob/master/EIPS/eip-1052.md",
            "reference-spec-version": "2dcbc7ce1563e9624e137e9d447374600af876fa"
        }
    },
    "tests/constantinople/eip1052_extcodehash/test_extcodehash.py::test_extcodehash_after_selfdestruct[fork_Berlin-blockchain_test_from_state_test-pre_existing]": {
        "network": "Berlin",
        "genesisBlockHeader": {
            "parentHash": "0x0000000000000000000000000000000000000000000000000000000000000000",
            "uncleHash": "0x1dcc4de8dec75d7aab85b567b6ccd41ad312451b948a7413f0a142fd40d49347",
            "coinbase": "0x0000000000000000000000000000000000000000",
            "stateRoot": "0x50d8a7f925a9486e8a2ccc79a1f18840768e39609d7f105a415fddcdf286a107",
            "transactionsTrie": "0x56e81f171bcc55a6ff8345e692c0f86e5b48e01b996cadc001622fb5e363b421",
            "receiptTrie": "0x56e81f171bcc55a6ff8345e692c0f86e5b48e01b996cadc001622fb5e363b421",
            "bloom": "0x00000000000000000000000000000000000000000000000000000000000000000000000000000000000000000000000000000000000000000000000000000000000000000000000000000000000000000000000000000000000000000000000000000000000000000000000000000000000000000000000000000000000000000000000000000000000000000000000000000000000000000000000000000000000000000000000000000000000000000000000000000000000000000000000000000000000000000000000000000000000000000000000000000000000000000000000000000000000000000000000000000000000000000000000000000000",
            "difficulty": "0x020000",
            "number": "0x00",
            "gasLimit": "0x07270e00",
            "gasUsed": "0x00",
            "timestamp": "0x00",
            "extraData": "0x00",
            "mixHash": "0x0000000000000000000000000000000000000000000000000000000000000000",
            "nonce": "0x0000000000000000",
            "hash": "0x62ddabd6dfea63a99761ca270a6251d5e67ea9769dea70d3035801bd141d7f49"
        },
        "pre": {
            "0x4e79bc2cd8a7eb5b08159b6d1c42d2b768d9fefd": {
                "nonce": "0x01",
                "balance": "0x01",
                "code": "0x32ff",
                "storage": {}
            },
            "0x8efc5703232bdedd935b8c5723760398fbae28a6": {
                "nonce": "0x01",
                "balance": "0x00",
                "code": "0x734e79bc2cd8a7eb5b08159b6d1c42d2b768d9fefd3f600055734e79bc2cd8a7eb5b08159b6d1c42d2b768d9fefd3b6001556000600052600260006000734e79bc2cd8a7eb5b08159b6d1c42d2b768d9fefd3c60005160025560006000600060006000734e79bc2cd8a7eb5b08159b6d1c42d2b768d9fefd620186a0f150734e79bc2cd8a7eb5b08159b6d1c42d2b768d9fefd3f600355734e79bc2cd8a7eb5b08159b6d1c42d2b768d9fefd3b6004556000600052600260006000734e79bc2cd8a7eb5b08159b6d1c42d2b768d9fefd3c600051600555",
                "storage": {}
            },
            "0x1ad9bc24818784172ff393bb6f89f094d4d2ca29": {
                "nonce": "0x00",
                "balance": "0x3635c9adc5dea00000",
                "code": "0x",
                "storage": {}
            }
        },
        "postState": {
            "0x8efc5703232bdedd935b8c5723760398fbae28a6": {
                "nonce": "0x01",
                "balance": "0x00",
                "code": "0x734e79bc2cd8a7eb5b08159b6d1c42d2b768d9fefd3f600055734e79bc2cd8a7eb5b08159b6d1c42d2b768d9fefd3b6001556000600052600260006000734e79bc2cd8a7eb5b08159b6d1c42d2b768d9fefd3c60005160025560006000600060006000734e79bc2cd8a7eb5b08159b6d1c42d2b768d9fefd620186a0f150734e79bc2cd8a7eb5b08159b6d1c42d2b768d9fefd3f600355734e79bc2cd8a7eb5b08159b6d1c42d2b768d9fefd3b6004556000600052600260006000734e79bc2cd8a7eb5b08159b6d1c42d2b768d9fefd3c600051600555",
                "storage": {
                    "0x00": "0x3a6ca0f2fdba9798ec7350fb5106f9dd4102ec04a5cbd39ec60cd921c3d7af06",
                    "0x01": "0x02",
                    "0x02": "0x32ff000000000000000000000000000000000000000000000000000000000000",
                    "0x03": "0x3a6ca0f2fdba9798ec7350fb5106f9dd4102ec04a5cbd39ec60cd921c3d7af06",
                    "0x04": "0x02",
                    "0x05": "0x32ff000000000000000000000000000000000000000000000000000000000000"
                }
            },
            "0x1ad9bc24818784172ff393bb6f89f094d4d2ca29": {
                "nonce": "0x01",
                "balance": "0x3635c9adc5de8af495",
                "code": "0x",
                "storage": {}
            },
            "0x2adc25665018aa1fe0e6bc666dac8fc2697ff9ba": {
                "nonce": "0x00",
                "balance": "0x1bc16d674edd0b6c",
                "code": "0x",
                "storage": {}
            }
        },
        "lastblockhash": "0xdb70f07c93e24539dadd02c4062a28dca5fd2143365e412a0827bd0e4194e00c",
        "config": {
            "network": "Berlin",
            "chainid": "0x01"
        },
        "genesisRLP": "0xf901f9f901f4a00000000000000000000000000000000000000000000000000000000000000000a01dcc4de8dec75d7aab85b567b6ccd41ad312451b948a7413f0a142fd40d49347940000000000000000000000000000000000000000a050d8a7f925a9486e8a2ccc79a1f18840768e39609d7f105a415fddcdf286a107a056e81f171bcc55a6ff8345e692c0f86e5b48e01b996cadc001622fb5e363b421a056e81f171bcc55a6ff8345e692c0f86e5b48e01b996cadc001622fb5e363b421b901000000000000000000000000000000000000000000000000000000000000000000000000000000000000000000000000000000000000000000000000000000000000000000000000000000000000000000000000000000000000000000000000000000000000000000000000000000000000000000000000000000000000000000000000000000000000000000000000000000000000000000000000000000000000000000000000000000000000000000000000000000000000000000000000000000000000000000000000000000000000000000000000000000000000000000000000000000000000000000000000000000000000000000000000000000000083020000808407270e00808000a00000000000000000000000000000000000000000000000000000000000000000880000000000000000c0c0",
        "blocks": [
            {
                "blockHeader": {
                    "parentHash": "0x62ddabd6dfea63a99761ca270a6251d5e67ea9769dea70d3035801bd141d7f49",
                    "uncleHash": "0x1dcc4de8dec75d7aab85b567b6ccd41ad312451b948a7413f0a142fd40d49347",
                    "coinbase": "0x2adc25665018aa1fe0e6bc666dac8fc2697ff9ba",
                    "stateRoot": "0x3640643753c737f5afb4abd6fbdc0f1b6dea057f6d18b113d30319352b9cb2b9",
                    "transactionsTrie": "0x6cfeb4f3fb95c49100689631bc8145a1603fbd1132bbfb9bdad38239a6f34200",
                    "receiptTrie": "0xc13335d2f75ae1ff8d32a4d67e2fe8986f093ffcf2119ab48c39d60c862cef93",
                    "bloom": "0x00000000000000000000000000000000000000000000000000000000000000000000000000000000000000000000000000000000000000000000000000000000000000000000000000000000000000000000000000000000000000000000000000000000000000000000000000000000000000000000000000000000000000000000000000000000000000000000000000000000000000000000000000000000000000000000000000000000000000000000000000000000000000000000000000000000000000000000000000000000000000000000000000000000000000000000000000000000000000000000000000000000000000000000000000000000",
                    "difficulty": "0x020000",
                    "number": "0x01",
                    "gasLimit": "0x07270e00",
                    "gasUsed": "0x021abe",
                    "timestamp": "0x03e8",
                    "extraData": "0x00",
                    "mixHash": "0x0000000000000000000000000000000000000000000000000000000000000000",
                    "nonce": "0x0000000000000000",
                    "hash": "0xdb70f07c93e24539dadd02c4062a28dca5fd2143365e412a0827bd0e4194e00c"
                },
                "transactions": [
                    {
                        "type": "0x00",
                        "chainId": "0x01",
                        "nonce": "0x00",
                        "gasPrice": "0x0a",
                        "gasLimit": "0x0f4240",
                        "to": "0x8efc5703232bdedd935b8c5723760398fbae28a6",
                        "value": "0x00",
                        "data": "0x",
                        "v": "0x25",
                        "r": "0x205b8aaff6fd0d37f0a9861ebfca2eb75527bbbb9d22a2e3f67cffd553ffd697",
                        "s": "0x26542725f3fe9fcc55bb4542d7320c50c300ce11a36a75529deceff58d873d6f",
                        "sender": "0x1ad9bc24818784172ff393bb6f89f094d4d2ca29"
                    }
                ],
                "uncleHeaders": [],
                "receipts": [
                    {
                        "transactionHash": "0xb046db43ebc8aa503d2634d9fabf1b0d9fbc357bfb401b784da9e2b98375f3d7",
                        "type": "0x00",
                        "cumulativeGasUsed": "0x021abe",
                        "bloom": "0x00000000000000000000000000000000000000000000000000000000000000000000000000000000000000000000000000000000000000000000000000000000000000000000000000000000000000000000000000000000000000000000000000000000000000000000000000000000000000000000000000000000000000000000000000000000000000000000000000000000000000000000000000000000000000000000000000000000000000000000000000000000000000000000000000000000000000000000000000000000000000000000000000000000000000000000000000000000000000000000000000000000000000000000000000000000",
                        "logs": [],
                        "status": true,
                        "rlp": "0xf901090183021abeb9010000000000000000000000000000000000000000000000000000000000000000000000000000000000000000000000000000000000000000000000000000000000000000000000000000000000000000000000000000000000000000000000000000000000000000000000000000000000000000000000000000000000000000000000000000000000000000000000000000000000000000000000000000000000000000000000000000000000000000000000000000000000000000000000000000000000000000000000000000000000000000000000000000000000000000000000000000000000000000000000000000000000000000000000000000000000c0"
                    }
                ],
                "rlp": "0xf90261f901f9a062ddabd6dfea63a99761ca270a6251d5e67ea9769dea70d3035801bd141d7f49a01dcc4de8dec75d7aab85b567b6ccd41ad312451b948a7413f0a142fd40d49347942adc25665018aa1fe0e6bc666dac8fc2697ff9baa03640643753c737f5afb4abd6fbdc0f1b6dea057f6d18b113d30319352b9cb2b9a06cfeb4f3fb95c49100689631bc8145a1603fbd1132bbfb9bdad38239a6f34200a0c13335d2f75ae1ff8d32a4d67e2fe8986f093ffcf2119ab48c39d60c862cef93b901000000000000000000000000000000000000000000000000000000000000000000000000000000000000000000000000000000000000000000000000000000000000000000000000000000000000000000000000000000000000000000000000000000000000000000000000000000000000000000000000000000000000000000000000000000000000000000000000000000000000000000000000000000000000000000000000000000000000000000000000000000000000000000000000000000000000000000000000000000000000000000000000000000000000000000000000000000000000000000000000000000000000000000000000000000000083020000018407270e0083021abe8203e800a00000000000000000000000000000000000000000000000000000000000000000880000000000000000f862f860800a830f4240948efc5703232bdedd935b8c5723760398fbae28a6808025a0205b8aaff6fd0d37f0a9861ebfca2eb75527bbbb9d22a2e3f67cffd553ffd697a026542725f3fe9fcc55bb4542d7320c50c300ce11a36a75529deceff58d873d6fc0",
                "blocknumber": "1"
            }
        ],
        "sealEngine": "NoProof",
        "_info": {
            "hash": "0xe8ee6f0ca9db287a3123c3c1b5e106f54093df470b4a9af4d16884c11507626b",
            "fixture-format": "blockchain_test",
            "comment": "`execution-specs` generated test",
            "filling-transition-tool": "2.19.0",
            "description": "Test EXTCODEHASH/EXTCODESIZE/EXTCODECOPY before and after SELFDESTRUCT.\n\nVerifies that code hash, size, and copied code remain unchanged\nwithin the transaction after SELFDESTRUCT is triggered.\nPre-Cancun, all selfdestructed accounts are deleted. From Cancun\n(EIP-6780), only accounts created in the same transaction are\ndeleted; pre-existing accounts persist with balance drained.",
            "url": "https://github.com/ethereum/execution-specs/blob/tests-bal@v5.4.0/tests/constantinople/eip1052_extcodehash/test_extcodehash.py#L740",
            "opcode_count": {},
            "reference-spec": "https://github.com/ethereum/EIPs/blob/master/EIPS/eip-1052.md",
            "reference-spec-version": "2dcbc7ce1563e9624e137e9d447374600af876fa"
        }
    }
}