{
    "tests/static/state_tests/Cancun/stEIP1153_transientStorage/14_revertAfterNestedStaticcallFiller.yml::14_revertAfterNestedStaticcall[fork_Cancun-blockchain_test_from_state_test-]": {
        "network": "Cancun",
        "genesisBlockHeader": {
            "parentHash": "0x0000000000000000000000000000000000000000000000000000000000000000",
            "uncleHash": "0x1dcc4de8dec75d7aab85b567b6ccd41ad312451b948a7413f0a142fd40d49347",
            "coinbase": "0x0000000000000000000000000000000000000000",
            "stateRoot": "0x8168cad5b49140494ce649b2dfc4b9b3a96e4523526fb6a99e73eb10600ca6b7",
            "transactionsTrie": "0x56e81f171bcc55a6ff8345e692c0f86e5b48e01b996cadc001622fb5e363b421",
            "receiptTrie": "0x56e81f171bcc55a6ff8345e692c0f86e5b48e01b996cadc001622fb5e363b421",
            "bloom": "0x00000000000000000000000000000000000000000000000000000000000000000000000000000000000000000000000000000000000000000000000000000000000000000000000000000000000000000000000000000000000000000000000000000000000000000000000000000000000000000000000000000000000000000000000000000000000000000000000000000000000000000000000000000000000000000000000000000000000000000000000000000000000000000000000000000000000000000000000000000000000000000000000000000000000000000000000000000000000000000000000000000000000000000000000000000000",
            "difficulty": "0x00",
            "number": "0x00",
            "gasLimit": "0x10000000000000",
            "gasUsed": "0x00",
            "timestamp": "0x00",
            "extraData": "0x00",
            "mixHash": "0x0000000000000000000000000000000000000000000000000000000000000000",
            "nonce": "0x0000000000000000",
            "baseFeePerGas": "0x0b",
            "withdrawalsRoot": "0x56e81f171bcc55a6ff8345e692c0f86e5b48e01b996cadc001622fb5e363b421",
            "blobGasUsed": "0x00",
            "excessBlobGas": "0x00",
            "parentBeaconBlockRoot": "0x0000000000000000000000000000000000000000000000000000000000000000",
            "hash": "0xd125446cb3d1dc6fa3b1d4b65c18058517a7fe17e2fdee7c6cdbff933a3b6f5a"
        },
        "pre": {
            "0x000f3df6d732807ef1319fb7b8bb8522d0beac02": {
                "nonce": "0x01",
                "balance": "0x00",
                "code": "0x3373fffffffffffffffffffffffffffffffffffffffe14604d57602036146024575f5ffd5b5f35801560495762001fff810690815414603c575f5ffd5b62001fff01545f5260205ff35b5f5ffd5b62001fff42064281555f359062001fff015500",
                "storage": {}
            },
            "0xcef5f3b33e31360216fab2c61046840df9bd788e": {
                "nonce": "0x00",
                "balance": "0x3635c9adc5dea00000",
                "code": "0x",
                "storage": {}
            },
            "0x1150baff55fdcea5fd92b0995358ec0c416debe3": {
                "nonce": "0x00",
                "balance": "0x0de0b6b3a7640000",
                "code": "0x5f3560e01c8063f5f4059014602f578063f8dfc2d014602b576362fdb9be14602357005b60296077565b005b605d565b506029600a5f5d5f5c5f55630f8dfc2d60e41b5f5260205f81813061fffffa5f516001556002555f5c600355565b63317edcdf60e11b5f525f8060208180305af15f5260205ff35b600b5f5d56",
                "storage": {
                    "0x01": "0xffff"
                }
            }
        },
        "postState": {
            "0x000f3df6d732807ef1319fb7b8bb8522d0beac02": {
                "nonce": "0x01",
                "balance": "0x00",
                "code": "0x3373fffffffffffffffffffffffffffffffffffffffe14604d57602036146024575f5ffd5b5f35801560495762001fff810690815414603c575f5ffd5b62001fff01545f5260205ff35b5f5ffd5b62001fff42064281555f359062001fff015500",
                "storage": {
                    "0x03e8": "0x03e8"
                }
            },
            "0xcef5f3b33e31360216fab2c61046840df9bd788e": {
                "nonce": "0x01",
                "balance": "0x3635c9adc5de88b742",
                "code": "0x",
                "storage": {}
            },
            "0x1150baff55fdcea5fd92b0995358ec0c416debe3": {
                "nonce": "0x00",
                "balance": "0x0de0b6b3a7640000",
                "code": "0x5f3560e01c8063f5f4059014602f578063f8dfc2d014602b576362fdb9be14602357005b60296077565b005b605d565b506029600a5f5d5f5c5f55630f8dfc2d60e41b5f5260205f81813061fffffa5f516001556002555f5c600355565b63317edcdf60e11b5f525f8060208180305af15f5260205ff35b600b5f5d56",
                "storage": {
                    "0x00": "0x0a",
                    "0x02": "0x01",
                    "0x03": "0x0a"
                }
            }
        },
        "lastblockhash": "0x625be5c1b45e8d3f15a45b70d1c722ad2afd3285589f689e54c038525411c178",
        "config": {
            "network": "Cancun",
            "chainid": "0x01",
            "blobSchedule": {
                "Cancun": {
                    "target": "0x03",
                    "max": "0x06",
                    "baseFeeUpdateFraction": "0x32f0ed"
                }
            }
        },
        "genesisRLP": "0xf9023ff90239a00000000000000000000000000000000000000000000000000000000000000000a01dcc4de8dec75d7aab85b567b6ccd41ad312451b948a7413f0a142fd40d49347940000000000000000000000000000000000000000a08168cad5b49140494ce649b2dfc4b9b3a96e4523526fb6a99e73eb10600ca6b7a056e81f171bcc55a6ff8345e692c0f86e5b48e01b996cadc001622fb5e363b421a056e81f171bcc55a6ff8345e692c0f86e5b48e01b996cadc001622fb5e363b421b901000000000000000000000000000000000000000000000000000000000000000000000000000000000000000000000000000000000000000000000000000000000000000000000000000000000000000000000000000000000000000000000000000000000000000000000000000000000000000000000000000000000000000000000000000000000000000000000000000000000000000000000000000000000000000000000000000000000000000000000000000000000000000000000000000000000000000000000000000000000000000000000000000000000000000000000000000000000000000000000000000000000000000000000000000000000080808710000000000000808000a000000000000000000000000000000000000000000000000000000000000000008800000000000000000ba056e81f171bcc55a6ff8345e692c0f86e5b48e01b996cadc001622fb5e363b4218080a00000000000000000000000000000000000000000000000000000000000000000c0c0c0",
        "blocks": [
            {
                "blockHeader": {
                    "parentHash": "0xd125446cb3d1dc6fa3b1d4b65c18058517a7fe17e2fdee7c6cdbff933a3b6f5a",
                    "uncleHash": "0x1dcc4de8dec75d7aab85b567b6ccd41ad312451b948a7413f0a142fd40d49347",
                    "coinbase": "0x2adc25665018aa1fe0e6bc666dac8fc2697ff9ba",
                    "stateRoot": "0xbd6be4e35c607f310fd9177aa18bea62d0463a88372cc7e5fcd870ed5e290ce4",
                    "transactionsTrie": "0xf856dd84cc2c5d7067a65f9b0837290d6ab1132b414d36fbe4eb11507467f367",
                    "receiptTrie": "0x5b86e43efafca98197580a1072dab0f45de168290626530e70fd5ec30d515250",
                    "bloom": "0x00000000000000000000000000000000000000000000000000000000000000000000000000000000000000000000000000000000000000000000000000000000000000000000000000000000000000000000000000000000000000000000000000000000000000000000000000000000000000000000000000000000000000000000000000000000000000000000000000000000000000000000000000000000000000000000000000000000000000000000000000000000000000000000000000000000000000000000000000000000000000000000000000000000000000000000000000000000000000000000000000000000000000000000000000000000",
                    "difficulty": "0x00",
                    "number": "0x01",
                    "gasLimit": "0x10000000000000",
                    "gasUsed": "0x025413",
                    "timestamp": "0x03e8",
                    "extraData": "0x00",
                    "mixHash": "0x0000000000000000000000000000000000000000000000000000000000020000",
                    "nonce": "0x0000000000000000",
                    "baseFeePerGas": "0x0a",
                    "withdrawalsRoot": "0x56e81f171bcc55a6ff8345e692c0f86e5b48e01b996cadc001622fb5e363b421",
                    "blobGasUsed": "0x00",
                    "excessBlobGas": "0x00",
                    "parentBeaconBlockRoot": "0x0000000000000000000000000000000000000000000000000000000000000000",
                    "hash": "0x625be5c1b45e8d3f15a45b70d1c722ad2afd3285589f689e54c038525411c178"
                },
                "transactions": [
                    {
                        "type": "0x02",
                        "chainId": "0x01",
                        "nonce": "0x00",
                        "maxPriorityFeePerGas": "0x00",
                        "maxFeePerGas": "0x07d0",
                        "gasLimit": "0x061a80",
                        "to": "0x1150baff55fdcea5fd92b0995358ec0c416debe3",
                        "value": "0x00",
                        "data": "0xf5f40590",
                        "accessList": [],
                        "v": "0x01",
                        "r": "0xbf8690b09e1211aadef8d053613fe303cce88f3805de88f4eec325de5a3f99f8",
                        "s": "0x1cf9ff7eb904cd0f34dc6083bdefad924699549cdc647f3b5ddf69f24eb1f294",
                        "sender": "0xcef5f3b33e31360216fab2c61046840df9bd788e"
                    }
                ],
                "uncleHeaders": [],
                "withdrawals": [],
                "receipts": [
                    {
                        "transactionHash": "0x0ad78340f8664ade01155c3ca4ff7dd7ade1aaf1ad67583da47a2bdcd4484aeb",
                        "type": "0x02",
                        "cumulativeGasUsed": "0x025413",
                        "bloom": "0x00000000000000000000000000000000000000000000000000000000000000000000000000000000000000000000000000000000000000000000000000000000000000000000000000000000000000000000000000000000000000000000000000000000000000000000000000000000000000000000000000000000000000000000000000000000000000000000000000000000000000000000000000000000000000000000000000000000000000000000000000000000000000000000000000000000000000000000000000000000000000000000000000000000000000000000000000000000000000000000000000000000000000000000000000000000",
                        "logs": [],
                        "status": true,
                        "rlp": "0x02f901090183025413b9010000000000000000000000000000000000000000000000000000000000000000000000000000000000000000000000000000000000000000000000000000000000000000000000000000000000000000000000000000000000000000000000000000000000000000000000000000000000000000000000000000000000000000000000000000000000000000000000000000000000000000000000000000000000000000000000000000000000000000000000000000000000000000000000000000000000000000000000000000000000000000000000000000000000000000000000000000000000000000000000000000000000000000000000000000000000c0"
                    }
                ],
                "rlp": "0xf902b3f9023ea0d125446cb3d1dc6fa3b1d4b65c18058517a7fe17e2fdee7c6cdbff933a3b6f5aa01dcc4de8dec75d7aab85b567b6ccd41ad312451b948a7413f0a142fd40d49347942adc25665018aa1fe0e6bc666dac8fc2697ff9baa0bd6be4e35c607f310fd9177aa18bea62d0463a88372cc7e5fcd870ed5e290ce4a0f856dd84cc2c5d7067a65f9b0837290d6ab1132b414d36fbe4eb11507467f367a05b86e43efafca98197580a1072dab0f45de168290626530e70fd5ec30d515250b901000000000000000000000000000000000000000000000000000000000000000000000000000000000000000000000000000000000000000000000000000000000000000000000000000000000000000000000000000000000000000000000000000000000000000000000000000000000000000000000000000000000000000000000000000000000000000000000000000000000000000000000000000000000000000000000000000000000000000000000000000000000000000000000000000000000000000000000000000000000000000000000000000000000000000000000000000000000000000000000000000000000000000000000000000000000080018710000000000000830254138203e800a000000000000000000000000000000000000000000000000000000000000200008800000000000000000aa056e81f171bcc55a6ff8345e692c0f86e5b48e01b996cadc001622fb5e363b4218080a00000000000000000000000000000000000000000000000000000000000000000f86eb86c02f8690180808207d083061a80941150baff55fdcea5fd92b0995358ec0c416debe38084f5f40590c001a0bf8690b09e1211aadef8d053613fe303cce88f3805de88f4eec325de5a3f99f8a01cf9ff7eb904cd0f34dc6083bdefad924699549cdc647f3b5ddf69f24eb1f294c0c0",
                "blocknumber": "1"
            }
        ],
        "sealEngine": "NoProof",
        "_info": {
            "hash": "0xfa293f86066f432fb5a38ad3aaa20ca9b920736fda336df6f8d5f0076b3110e0",
            "fixture-format": "blockchain_test",
            "comment": "`execution-specs` generated test",
            "filling-transition-tool": "2.19.0",
            "description": "No description available - add a docstring to the python test class or function.",
            "url": "",
            "opcode_count": {},
            "reference-spec": "https://github.com/ethereum/EIPs/blob/master/",
            "reference-spec-version": ""
        }
    }
}