{
    "tests/frontier/opcodes/test_call.py::test_call_memory_expands_on_early_revert[fork_Shanghai-blockchain_test_from_state_test]": {
        "network": "Shanghai",
        "genesisBlockHeader": {
            "parentHash": "0x0000000000000000000000000000000000000000000000000000000000000000",
            "uncleHash": "0x1dcc4de8dec75d7aab85b567b6ccd41ad312451b948a7413f0a142fd40d49347",
            "coinbase": "0x0000000000000000000000000000000000000000",
            "stateRoot": "0x6a057eff532334343ed737c6d15e9ba3f07af9a110c222940af6976da692ae05",
            "transactionsTrie": "0x56e81f171bcc55a6ff8345e692c0f86e5b48e01b996cadc001622fb5e363b421",
            "receiptTrie": "0x56e81f171bcc55a6ff8345e692c0f86e5b48e01b996cadc001622fb5e363b421",
            "bloom": "0x00000000000000000000000000000000000000000000000000000000000000000000000000000000000000000000000000000000000000000000000000000000000000000000000000000000000000000000000000000000000000000000000000000000000000000000000000000000000000000000000000000000000000000000000000000000000000000000000000000000000000000000000000000000000000000000000000000000000000000000000000000000000000000000000000000000000000000000000000000000000000000000000000000000000000000000000000000000000000000000000000000000000000000000000000000000",
            "difficulty": "0x00",
            "number": "0x00",
            "gasLimit": "0x07270e00",
            "gasUsed": "0x00",
            "timestamp": "0x00",
            "extraData": "0x00",
            "mixHash": "0x0000000000000000000000000000000000000000000000000000000000000000",
            "nonce": "0x0000000000000000",
            "baseFeePerGas": "0x07",
            "withdrawalsRoot": "0x56e81f171bcc55a6ff8345e692c0f86e5b48e01b996cadc001622fb5e363b421",
            "hash": "0x6600954ef85b9390c3806a44c690384cf522987ff6eb0e5e25c4a3a41deff675"
        },
        "pre": {
            "0x1ad9bc24818784172ff393bb6f89f094d4d2ca29": {
                "nonce": "0x00",
                "balance": "0x3635c9adc5dea00000",
                "code": "0x",
                "storage": {}
            },
            "0x0274b48aad3b6592b8d174fae9f059413e13815a": {
                "nonce": "0x01",
                "balance": "0x00",
                "code": "0x5a6080600060006000606460006000f15a9050900360155a5a90030190036000555a60016040525a900360065a5a900301900360015500",
                "storage": {}
            }
        },
        "postState": {
            "0x1ad9bc24818784172ff393bb6f89f094d4d2ca29": {
                "nonce": "0x01",
                "balance": "0x3635c9adc5de90ccb6",
                "code": "0x",
                "storage": {}
            },
            "0x0274b48aad3b6592b8d174fae9f059413e13815a": {
                "nonce": "0x01",
                "balance": "0x00",
                "code": "0x5a6080600060006000606460006000f15a9050900360155a5a90030190036000555a60016040525a900360065a5a900301900360015500",
                "storage": {
                    "0x00": "0x8608",
                    "0x01": "0x03"
                }
            },
            "0x2adc25665018aa1fe0e6bc666dac8fc2697ff9ba": {
                "nonce": "0x00",
                "balance": "0x048f63",
                "code": "0x",
                "storage": {}
            }
        },
        "lastblockhash": "0xb9f644b9ca2a348e2e76ce290a32db43949aeb9b4cdf941299d85acc51427ad9",
        "config": {
            "network": "Shanghai",
            "chainid": "0x01"
        },
        "genesisRLP": "0xf90219f90213a00000000000000000000000000000000000000000000000000000000000000000a01dcc4de8dec75d7aab85b567b6ccd41ad312451b948a7413f0a142fd40d49347940000000000000000000000000000000000000000a06a057eff532334343ed737c6d15e9ba3f07af9a110c222940af6976da692ae05a056e81f171bcc55a6ff8345e692c0f86e5b48e01b996cadc001622fb5e363b421a056e81f171bcc55a6ff8345e692c0f86e5b48e01b996cadc001622fb5e363b421b901000000000000000000000000000000000000000000000000000000000000000000000000000000000000000000000000000000000000000000000000000000000000000000000000000000000000000000000000000000000000000000000000000000000000000000000000000000000000000000000000000000000000000000000000000000000000000000000000000000000000000000000000000000000000000000000000000000000000000000000000000000000000000000000000000000000000000000000000000000000000000000000000000000000000000000000000000000000000000000000000000000000000000000000000000000000080808407270e00808000a0000000000000000000000000000000000000000000000000000000000000000088000000000000000007a056e81f171bcc55a6ff8345e692c0f86e5b48e01b996cadc001622fb5e363b421c0c0c0",
        "blocks": [
            {
                "blockHeader": {
                    "parentHash": "0x6600954ef85b9390c3806a44c690384cf522987ff6eb0e5e25c4a3a41deff675",
                    "uncleHash": "0x1dcc4de8dec75d7aab85b567b6ccd41ad312451b948a7413f0a142fd40d49347",
                    "coinbase": "0x2adc25665018aa1fe0e6bc666dac8fc2697ff9ba",
                    "stateRoot": "0x192527cc7d12ca673b44ed348244e74f49a0f84bb004cd3d213f069a838fcb23",
                    "transactionsTrie": "0x2cc2739ef6827c5fb7458a3b8efc0e7fff7ccce5c13bb6d60df49e9bc8e2dd81",
                    "receiptTrie": "0xe0d5fa97cbdede20714db6cd84ad4a293e66adf894c95bcbfabb416963a8308a",
                    "bloom": "0x00000000000000000000000000000000000000000000000000000000000000000000000000000000000000000000000000000000000000000000000000000000000000000000000000000000000000000000000000000000000000000000000000000000000000000000000000000000000000000000000000000000000000000000000000000000000000000000000000000000000000000000000000000000000000000000000000000000000000000000000000000000000000000000000000000000000000000000000000000000000000000000000000000000000000000000000000000000000000000000000000000000000000000000000000000000",
                    "difficulty": "0x00",
                    "number": "0x01",
                    "gasLimit": "0x07270e00",
                    "gasUsed": "0x018521",
                    "timestamp": "0x03e8",
                    "extraData": "0x00",
                    "mixHash": "0x0000000000000000000000000000000000000000000000000000000000000000",
                    "nonce": "0x0000000000000000",
                    "baseFeePerGas": "0x07",
                    "withdrawalsRoot": "0x56e81f171bcc55a6ff8345e692c0f86e5b48e01b996cadc001622fb5e363b421",
                    "hash": "0xb9f644b9ca2a348e2e76ce290a32db43949aeb9b4cdf941299d85acc51427ad9"
                },
                "transactions": [
                    {
                        "type": "0x00",
                        "chainId": "0x01",
                        "nonce": "0x00",
                        "gasPrice": "0x0a",
                        "gasLimit": "0x07a120",
                        "to": "0x0274b48aad3b6592b8d174fae9f059413e13815a",
                        "value": "0x00",
                        "data": "0x",
                        "v": "0x25",
                        "r": "0x6deb1afb9d50e014935d6c106146c3ec6081b3c17a6164c591f2d015ab6fb14d",
                        "s": "0x71ae6dc2f223a20f4f80c75c3110439109912a2ff7f35962744dc69868211ce5",
                        "sender": "0x1ad9bc24818784172ff393bb6f89f094d4d2ca29"
                    }
                ],
                "uncleHeaders": [],
                "withdrawals": [],
                "receipts": [
                    {
                        "transactionHash": "0x8acf3d1c4cb18a610ed46b89b5ce74f919ad0890a01c203ea5293256b9be0384",
                        "type": "0x00",
                        "cumulativeGasUsed": "0x018521",
                        "bloom": "0x00000000000000000000000000000000000000000000000000000000000000000000000000000000000000000000000000000000000000000000000000000000000000000000000000000000000000000000000000000000000000000000000000000000000000000000000000000000000000000000000000000000000000000000000000000000000000000000000000000000000000000000000000000000000000000000000000000000000000000000000000000000000000000000000000000000000000000000000000000000000000000000000000000000000000000000000000000000000000000000000000000000000000000000000000000000",
                        "logs": [],
                        "status": true,
                        "rlp": "0xf901090183018521b9010000000000000000000000000000000000000000000000000000000000000000000000000000000000000000000000000000000000000000000000000000000000000000000000000000000000000000000000000000000000000000000000000000000000000000000000000000000000000000000000000000000000000000000000000000000000000000000000000000000000000000000000000000000000000000000000000000000000000000000000000000000000000000000000000000000000000000000000000000000000000000000000000000000000000000000000000000000000000000000000000000000000000000000000000000000000c0"
                    }
                ],
                "rlp": "0xf90281f90218a06600954ef85b9390c3806a44c690384cf522987ff6eb0e5e25c4a3a41deff675a01dcc4de8dec75d7aab85b567b6ccd41ad312451b948a7413f0a142fd40d49347942adc25665018aa1fe0e6bc666dac8fc2697ff9baa0192527cc7d12ca673b44ed348244e74f49a0f84bb004cd3d213f069a838fcb23a02cc2739ef6827c5fb7458a3b8efc0e7fff7ccce5c13bb6d60df49e9bc8e2dd81a0e0d5fa97cbdede20714db6cd84ad4a293e66adf894c95bcbfabb416963a8308ab901000000000000000000000000000000000000000000000000000000000000000000000000000000000000000000000000000000000000000000000000000000000000000000000000000000000000000000000000000000000000000000000000000000000000000000000000000000000000000000000000000000000000000000000000000000000000000000000000000000000000000000000000000000000000000000000000000000000000000000000000000000000000000000000000000000000000000000000000000000000000000000000000000000000000000000000000000000000000000000000000000000000000000000000000000000000080018407270e00830185218203e800a0000000000000000000000000000000000000000000000000000000000000000088000000000000000007a056e81f171bcc55a6ff8345e692c0f86e5b48e01b996cadc001622fb5e363b421f862f860800a8307a120940274b48aad3b6592b8d174fae9f059413e13815a808025a06deb1afb9d50e014935d6c106146c3ec6081b3c17a6164c591f2d015ab6fb14da071ae6dc2f223a20f4f80c75c3110439109912a2ff7f35962744dc69868211ce5c0c0",
                "blocknumber": "1"
            }
        ],
        "sealEngine": "NoProof",
        "_info": {
            "hash": "0x1d2ec04386edd651f6bc93f3be74a193344a241b4d08fa5a022729c36f8e7611",
            "fixture-format": "blockchain_test",
            "comment": "`execution-specs` generated test",
            "filling-transition-tool": "2.19.0",
            "description": "When CALL reverts early (e.g. because of not enough balance by the sender),\nmemory should be expanded anyway. We check this with an MSTORE.\n\nThis is for a bug in an EVM implementation where memory is expanded after\nexecuting a CALL, but not when an early revert happens.",
            "url": "https://github.com/ethereum/execution-specs/blob/tests-bal@v5.4.0/tests/frontier/opcodes/test_call.py#L86",
            "opcode_count": {}
        }
    }
}