{
    "tests/frontier/opcodes/test_data_copy_oog.py::test_codecopy_word_copy_oog[fork_Shanghai-blockchain_test_from_state_test-insufficient_gas_for_word_copy_cost]": {
        "network": "Shanghai",
        "genesisBlockHeader": {
            "parentHash": "0x0000000000000000000000000000000000000000000000000000000000000000",
            "uncleHash": "0x1dcc4de8dec75d7aab85b567b6ccd41ad312451b948a7413f0a142fd40d49347",
            "coinbase": "0x0000000000000000000000000000000000000000",
            "stateRoot": "0x2909a1b966f24aa0e714dc7351a0c93fb0964c013dac86ed332a7f742476c16d",
            "transactionsTrie": "0x56e81f171bcc55a6ff8345e692c0f86e5b48e01b996cadc001622fb5e363b421",
            "receiptTrie": "0x56e81f171bcc55a6ff8345e692c0f86e5b48e01b996cadc001622fb5e363b421",
            "bloom": "0x00000000000000000000000000000000000000000000000000000000000000000000000000000000000000000000000000000000000000000000000000000000000000000000000000000000000000000000000000000000000000000000000000000000000000000000000000000000000000000000000000000000000000000000000000000000000000000000000000000000000000000000000000000000000000000000000000000000000000000000000000000000000000000000000000000000000000000000000000000000000000000000000000000000000000000000000000000000000000000000000000000000000000000000000000000000",
            "difficulty": "0x00",
            "number": "0x00",
            "gasLimit": "0x07270e00",
            "gasUsed": "0x00",
            "timestamp": "0x00",
            "extraData": "0x00",
            "mixHash": "0x0000000000000000000000000000000000000000000000000000000000000000",
            "nonce": "0x0000000000000000",
            "baseFeePerGas": "0x07",
            "withdrawalsRoot": "0x56e81f171bcc55a6ff8345e692c0f86e5b48e01b996cadc001622fb5e363b421",
            "hash": "0x3d1be4469ebdea23d18473e2bafb9d02939d12301e59411cdfffc20bfc53b97a"
        },
        "pre": {
            "0x9bd615aa19aa7e639e1bc7f5147b63f045551b78": {
                "nonce": "0x01",
                "balance": "0x00",
                "code": "0x60006103e0526104006000600039600160005360016000f3",
                "storage": {}
            },
            "0x144aadf61023a7f8d8e9319d5647b4847c638fc1": {
                "nonce": "0x01",
                "balance": "0x00",
                "code": "0x60016000600060006000739bd615aa19aa7e639e1bc7f5147b63f045551b786096f160005500",
                "storage": {}
            },
            "0x1ad9bc24818784172ff393bb6f89f094d4d2ca29": {
                "nonce": "0x00",
                "balance": "0x3635c9adc5dea00000",
                "code": "0x",
                "storage": {}
            }
        },
        "postState": {
            "0x9bd615aa19aa7e639e1bc7f5147b63f045551b78": {
                "nonce": "0x01",
                "balance": "0x00",
                "code": "0x60006103e0526104006000600039600160005360016000f3",
                "storage": {}
            },
            "0x144aadf61023a7f8d8e9319d5647b4847c638fc1": {
                "nonce": "0x01",
                "balance": "0x00",
                "code": "0x60016000600060006000739bd615aa19aa7e639e1bc7f5147b63f045551b786096f160005500",
                "storage": {}
            },
            "0x1ad9bc24818784172ff393bb6f89f094d4d2ca29": {
                "nonce": "0x01",
                "balance": "0x3635c9adc5de9c0946",
                "code": "0x",
                "storage": {}
            },
            "0x2adc25665018aa1fe0e6bc666dac8fc2697ff9ba": {
                "nonce": "0x00",
                "balance": "0x01306b",
                "code": "0x",
                "storage": {}
            }
        },
        "lastblockhash": "0xf9dee2a66419951f4005d924eca2dd3f653c6de404efce7800d2cbc14a87b2d6",
        "config": {
            "network": "Shanghai",
            "chainid": "0x01"
        },
        "genesisRLP": "0xf90219f90213a00000000000000000000000000000000000000000000000000000000000000000a01dcc4de8dec75d7aab85b567b6ccd41ad312451b948a7413f0a142fd40d49347940000000000000000000000000000000000000000a02909a1b966f24aa0e714dc7351a0c93fb0964c013dac86ed332a7f742476c16da056e81f171bcc55a6ff8345e692c0f86e5b48e01b996cadc001622fb5e363b421a056e81f171bcc55a6ff8345e692c0f86e5b48e01b996cadc001622fb5e363b421b901000000000000000000000000000000000000000000000000000000000000000000000000000000000000000000000000000000000000000000000000000000000000000000000000000000000000000000000000000000000000000000000000000000000000000000000000000000000000000000000000000000000000000000000000000000000000000000000000000000000000000000000000000000000000000000000000000000000000000000000000000000000000000000000000000000000000000000000000000000000000000000000000000000000000000000000000000000000000000000000000000000000000000000000000000000000080808407270e00808000a0000000000000000000000000000000000000000000000000000000000000000088000000000000000007a056e81f171bcc55a6ff8345e692c0f86e5b48e01b996cadc001622fb5e363b421c0c0c0",
        "blocks": [
            {
                "blockHeader": {
                    "parentHash": "0x3d1be4469ebdea23d18473e2bafb9d02939d12301e59411cdfffc20bfc53b97a",
                    "uncleHash": "0x1dcc4de8dec75d7aab85b567b6ccd41ad312451b948a7413f0a142fd40d49347",
                    "coinbase": "0x2adc25665018aa1fe0e6bc666dac8fc2697ff9ba",
                    "stateRoot": "0xf0d7a2f0efe609a4b0ee2801fe98acf9d85fe181b21f5bec567a65b84dd52f7b",
                    "transactionsTrie": "0x33deb81ca252f08f3c2f7c97e0ce93fc5094834c033069d0d92044f59de2357f",
                    "receiptTrie": "0x3bd71c4a4757ad9419b30c53fa94dcf3ea74f205d0354a67747f07608e7f2548",
                    "bloom": "0x00000000000000000000000000000000000000000000000000000000000000000000000000000000000000000000000000000000000000000000000000000000000000000000000000000000000000000000000000000000000000000000000000000000000000000000000000000000000000000000000000000000000000000000000000000000000000000000000000000000000000000000000000000000000000000000000000000000000000000000000000000000000000000000000000000000000000000000000000000000000000000000000000000000000000000000000000000000000000000000000000000000000000000000000000000000",
                    "difficulty": "0x00",
                    "number": "0x01",
                    "gasLimit": "0x07270e00",
                    "gasUsed": "0x6579",
                    "timestamp": "0x03e8",
                    "extraData": "0x00",
                    "mixHash": "0x0000000000000000000000000000000000000000000000000000000000000000",
                    "nonce": "0x0000000000000000",
                    "baseFeePerGas": "0x07",
                    "withdrawalsRoot": "0x56e81f171bcc55a6ff8345e692c0f86e5b48e01b996cadc001622fb5e363b421",
                    "hash": "0xf9dee2a66419951f4005d924eca2dd3f653c6de404efce7800d2cbc14a87b2d6"
                },
                "transactions": [
                    {
                        "type": "0x00",
                        "chainId": "0x01",
                        "nonce": "0x00",
                        "gasPrice": "0x0a",
                        "gasLimit": "0x07a120",
                        "to": "0x144aadf61023a7f8d8e9319d5647b4847c638fc1",
                        "value": "0x00",
                        "data": "0x",
                        "v": "0x26",
                        "r": "0xbd84bd7b74f5ff3566e12cbedeff66b57625faab2438e9e25744ed3bf08c3f07",
                        "s": "0x6a6fd841eef7cd6dc2230b91de4cb07ea111e0c02ace272c427a740abba59bec",
                        "sender": "0x1ad9bc24818784172ff393bb6f89f094d4d2ca29"
                    }
                ],
                "uncleHeaders": [],
                "withdrawals": [],
                "receipts": [
                    {
                        "transactionHash": "0xe5eb5e90e97069ab059a79d61590e36b18e9cf0882945b782862d5a4eebcc839",
                        "type": "0x00",
                        "cumulativeGasUsed": "0x6579",
                        "bloom": "0x00000000000000000000000000000000000000000000000000000000000000000000000000000000000000000000000000000000000000000000000000000000000000000000000000000000000000000000000000000000000000000000000000000000000000000000000000000000000000000000000000000000000000000000000000000000000000000000000000000000000000000000000000000000000000000000000000000000000000000000000000000000000000000000000000000000000000000000000000000000000000000000000000000000000000000000000000000000000000000000000000000000000000000000000000000000",
                        "logs": [],
                        "status": true,
                        "rlp": "0xf9010801826579b9010000000000000000000000000000000000000000000000000000000000000000000000000000000000000000000000000000000000000000000000000000000000000000000000000000000000000000000000000000000000000000000000000000000000000000000000000000000000000000000000000000000000000000000000000000000000000000000000000000000000000000000000000000000000000000000000000000000000000000000000000000000000000000000000000000000000000000000000000000000000000000000000000000000000000000000000000000000000000000000000000000000000000000000000000000000000c0"
                    }
                ],
                "rlp": "0xf90280f90217a03d1be4469ebdea23d18473e2bafb9d02939d12301e59411cdfffc20bfc53b97aa01dcc4de8dec75d7aab85b567b6ccd41ad312451b948a7413f0a142fd40d49347942adc25665018aa1fe0e6bc666dac8fc2697ff9baa0f0d7a2f0efe609a4b0ee2801fe98acf9d85fe181b21f5bec567a65b84dd52f7ba033deb81ca252f08f3c2f7c97e0ce93fc5094834c033069d0d92044f59de2357fa03bd71c4a4757ad9419b30c53fa94dcf3ea74f205d0354a67747f07608e7f2548b901000000000000000000000000000000000000000000000000000000000000000000000000000000000000000000000000000000000000000000000000000000000000000000000000000000000000000000000000000000000000000000000000000000000000000000000000000000000000000000000000000000000000000000000000000000000000000000000000000000000000000000000000000000000000000000000000000000000000000000000000000000000000000000000000000000000000000000000000000000000000000000000000000000000000000000000000000000000000000000000000000000000000000000000000000000000080018407270e008265798203e800a0000000000000000000000000000000000000000000000000000000000000000088000000000000000007a056e81f171bcc55a6ff8345e692c0f86e5b48e01b996cadc001622fb5e363b421f862f860800a8307a12094144aadf61023a7f8d8e9319d5647b4847c638fc1808026a0bd84bd7b74f5ff3566e12cbedeff66b57625faab2438e9e25744ed3bf08c3f07a06a6fd841eef7cd6dc2230b91de4cb07ea111e0c02ace272c427a740abba59becc0c0",
                "blocknumber": "1"
            }
        ],
        "sealEngine": "NoProof",
        "_info": {
            "hash": "0xdabf3caef2dcb4c43d90a9401183da5265f5cc18fd7b926ad12d03a2dc4678c3",
            "fixture-format": "blockchain_test",
            "comment": "`execution-specs` generated test",
            "filling-transition-tool": "2.19.0",
            "description": "Test that CODECOPY properly consumes gas for word copy cost.",
            "url": "https://github.com/ethereum/execution-specs/blob/tests-bal@v5.4.0/tests/frontier/opcodes/test_data_copy_oog.py#L123",
            "opcode_count": {}
        }
    },
    "tests/frontier/opcodes/test_data_copy_oog.py::test_codecopy_word_copy_oog[fork_Shanghai-blockchain_test_from_state_test-sufficient_gas]": {
        "network": "Shanghai",
        "genesisBlockHeader": {
            "parentHash": "0x0000000000000000000000000000000000000000000000000000000000000000",
            "uncleHash": "0x1dcc4de8dec75d7aab85b567b6ccd41ad312451b948a7413f0a142fd40d49347",
            "coinbase": "0x0000000000000000000000000000000000000000",
            "stateRoot": "0x807e5d75e29a5c081ceeabe9942f05a38027bbf7e53741aa509da12dc9b18d55",
            "transactionsTrie": "0x56e81f171bcc55a6ff8345e692c0f86e5b48e01b996cadc001622fb5e363b421",
            "receiptTrie": "0x56e81f171bcc55a6ff8345e692c0f86e5b48e01b996cadc001622fb5e363b421",
            "bloom": "0x00000000000000000000000000000000000000000000000000000000000000000000000000000000000000000000000000000000000000000000000000000000000000000000000000000000000000000000000000000000000000000000000000000000000000000000000000000000000000000000000000000000000000000000000000000000000000000000000000000000000000000000000000000000000000000000000000000000000000000000000000000000000000000000000000000000000000000000000000000000000000000000000000000000000000000000000000000000000000000000000000000000000000000000000000000000",
            "difficulty": "0x00",
            "number": "0x00",
            "gasLimit": "0x07270e00",
            "gasUsed": "0x00",
            "timestamp": "0x00",
            "extraData": "0x00",
            "mixHash": "0x0000000000000000000000000000000000000000000000000000000000000000",
            "nonce": "0x0000000000000000",
            "baseFeePerGas": "0x07",
            "withdrawalsRoot": "0x56e81f171bcc55a6ff8345e692c0f86e5b48e01b996cadc001622fb5e363b421",
            "hash": "0x432483f22bba9db70a00018d014e2f631f31a0d5d2814905063a52eea96f2bce"
        },
        "pre": {
            "0x9bd615aa19aa7e639e1bc7f5147b63f045551b78": {
                "nonce": "0x01",
                "balance": "0x00",
                "code": "0x60006103e0526104006000600039600160005360016000f3",
                "storage": {}
            },
            "0xa3f0c7d9be314eb6ec5e9fe77ca2721c3aad843c": {
                "nonce": "0x01",
                "balance": "0x00",
                "code": "0x60016000600060006000739bd615aa19aa7e639e1bc7f5147b63f045551b78611388f160005500",
                "storage": {}
            },
            "0x1ad9bc24818784172ff393bb6f89f094d4d2ca29": {
                "nonce": "0x00",
                "balance": "0x3635c9adc5dea00000",
                "code": "0x",
                "storage": {}
            }
        },
        "postState": {
            "0x9bd615aa19aa7e639e1bc7f5147b63f045551b78": {
                "nonce": "0x01",
                "balance": "0x00",
                "code": "0x60006103e0526104006000600039600160005360016000f3",
                "storage": {}
            },
            "0xa3f0c7d9be314eb6ec5e9fe77ca2721c3aad843c": {
                "nonce": "0x01",
                "balance": "0x00",
                "code": "0x60016000600060006000739bd615aa19aa7e639e1bc7f5147b63f045551b78611388f160005500",
                "storage": {
                    "0x00": "0x01"
                }
            },
            "0x1ad9bc24818784172ff393bb6f89f094d4d2ca29": {
                "nonce": "0x01",
                "balance": "0x3635c9adc5de98fcce",
                "code": "0x",
                "storage": {}
            },
            "0x2adc25665018aa1fe0e6bc666dac8fc2697ff9ba": {
                "nonce": "0x00",
                "balance": "0x021a8f",
                "code": "0x",
                "storage": {}
            }
        },
        "lastblockhash": "0x38a5a73126bde425204192a793b8a0a0abd93c2145cf3850b53f93d822601f48",
        "config": {
            "network": "Shanghai",
            "chainid": "0x01"
        },
        "genesisRLP": "0xf90219f90213a00000000000000000000000000000000000000000000000000000000000000000a01dcc4de8dec75d7aab85b567b6ccd41ad312451b948a7413f0a142fd40d49347940000000000000000000000000000000000000000a0807e5d75e29a5c081ceeabe9942f05a38027bbf7e53741aa509da12dc9b18d55a056e81f171bcc55a6ff8345e692c0f86e5b48e01b996cadc001622fb5e363b421a056e81f171bcc55a6ff8345e692c0f86e5b48e01b996cadc001622fb5e363b421b901000000000000000000000000000000000000000000000000000000000000000000000000000000000000000000000000000000000000000000000000000000000000000000000000000000000000000000000000000000000000000000000000000000000000000000000000000000000000000000000000000000000000000000000000000000000000000000000000000000000000000000000000000000000000000000000000000000000000000000000000000000000000000000000000000000000000000000000000000000000000000000000000000000000000000000000000000000000000000000000000000000000000000000000000000000000080808407270e00808000a0000000000000000000000000000000000000000000000000000000000000000088000000000000000007a056e81f171bcc55a6ff8345e692c0f86e5b48e01b996cadc001622fb5e363b421c0c0c0",
        "blocks": [
            {
                "blockHeader": {
                    "parentHash": "0x432483f22bba9db70a00018d014e2f631f31a0d5d2814905063a52eea96f2bce",
                    "uncleHash": "0x1dcc4de8dec75d7aab85b567b6ccd41ad312451b948a7413f0a142fd40d49347",
                    "coinbase": "0x2adc25665018aa1fe0e6bc666dac8fc2697ff9ba",
                    "stateRoot": "0x0cb96cec20e143ac2ce5e51c034d6c18e48580a936bd88f8cf7182be7e110309",
                    "transactionsTrie": "0xf414949a90b007098b2d2d61e6a5e368c8184c9a78792ffa6d6cdd53ee0a6ade",
                    "receiptTrie": "0x68bc091a52442103614984ef63f591b62d1f2ca9351801011a50e0f5a53a42a7",
                    "bloom": "0x00000000000000000000000000000000000000000000000000000000000000000000000000000000000000000000000000000000000000000000000000000000000000000000000000000000000000000000000000000000000000000000000000000000000000000000000000000000000000000000000000000000000000000000000000000000000000000000000000000000000000000000000000000000000000000000000000000000000000000000000000000000000000000000000000000000000000000000000000000000000000000000000000000000000000000000000000000000000000000000000000000000000000000000000000000000",
                    "difficulty": "0x00",
                    "number": "0x01",
                    "gasLimit": "0x07270e00",
                    "gasUsed": "0xb385",
                    "timestamp": "0x03e8",
                    "extraData": "0x00",
                    "mixHash": "0x0000000000000000000000000000000000000000000000000000000000000000",
                    "nonce": "0x0000000000000000",
                    "baseFeePerGas": "0x07",
                    "withdrawalsRoot": "0x56e81f171bcc55a6ff8345e692c0f86e5b48e01b996cadc001622fb5e363b421",
                    "hash": "0x38a5a73126bde425204192a793b8a0a0abd93c2145cf3850b53f93d822601f48"
                },
                "transactions": [
                    {
                        "type": "0x00",
                        "chainId": "0x01",
                        "nonce": "0x00",
                        "gasPrice": "0x0a",
                        "gasLimit": "0x07a120",
                        "to": "0xa3f0c7d9be314eb6ec5e9fe77ca2721c3aad843c",
                        "value": "0x00",
                        "data": "0x",
                        "v": "0x25",
                        "r": "0xd12bbbcaf950b6d68f2288e001775145231441772dc5e8d2f442ee82c3f8ca31",
                        "s": "0x397c80513991cccaa22505efef8797e155b755a9d407125c1be98a8267a79e45",
                        "sender": "0x1ad9bc24818784172ff393bb6f89f094d4d2ca29"
                    }
                ],
                "uncleHeaders": [],
                "withdrawals": [],
                "receipts": [
                    {
                        "transactionHash": "0x74c2c5506d46c99b4f8130c296ec34cc4ff2042b4a937042f16cae20481818d0",
                        "type": "0x00",
                        "cumulativeGasUsed": "0xb385",
                        "bloom": "0x00000000000000000000000000000000000000000000000000000000000000000000000000000000000000000000000000000000000000000000000000000000000000000000000000000000000000000000000000000000000000000000000000000000000000000000000000000000000000000000000000000000000000000000000000000000000000000000000000000000000000000000000000000000000000000000000000000000000000000000000000000000000000000000000000000000000000000000000000000000000000000000000000000000000000000000000000000000000000000000000000000000000000000000000000000000",
                        "logs": [],
                        "status": true,
                        "rlp": "0xf901080182b385b9010000000000000000000000000000000000000000000000000000000000000000000000000000000000000000000000000000000000000000000000000000000000000000000000000000000000000000000000000000000000000000000000000000000000000000000000000000000000000000000000000000000000000000000000000000000000000000000000000000000000000000000000000000000000000000000000000000000000000000000000000000000000000000000000000000000000000000000000000000000000000000000000000000000000000000000000000000000000000000000000000000000000000000000000000000000000c0"
                    }
                ],
                "rlp": "0xf90280f90217a0432483f22bba9db70a00018d014e2f631f31a0d5d2814905063a52eea96f2bcea01dcc4de8dec75d7aab85b567b6ccd41ad312451b948a7413f0a142fd40d49347942adc25665018aa1fe0e6bc666dac8fc2697ff9baa00cb96cec20e143ac2ce5e51c034d6c18e48580a936bd88f8cf7182be7e110309a0f414949a90b007098b2d2d61e6a5e368c8184c9a78792ffa6d6cdd53ee0a6adea068bc091a52442103614984ef63f591b62d1f2ca9351801011a50e0f5a53a42a7b901000000000000000000000000000000000000000000000000000000000000000000000000000000000000000000000000000000000000000000000000000000000000000000000000000000000000000000000000000000000000000000000000000000000000000000000000000000000000000000000000000000000000000000000000000000000000000000000000000000000000000000000000000000000000000000000000000000000000000000000000000000000000000000000000000000000000000000000000000000000000000000000000000000000000000000000000000000000000000000000000000000000000000000000000000000000080018407270e0082b3858203e800a0000000000000000000000000000000000000000000000000000000000000000088000000000000000007a056e81f171bcc55a6ff8345e692c0f86e5b48e01b996cadc001622fb5e363b421f862f860800a8307a12094a3f0c7d9be314eb6ec5e9fe77ca2721c3aad843c808025a0d12bbbcaf950b6d68f2288e001775145231441772dc5e8d2f442ee82c3f8ca31a0397c80513991cccaa22505efef8797e155b755a9d407125c1be98a8267a79e45c0c0",
                "blocknumber": "1"
            }
        ],
        "sealEngine": "NoProof",
        "_info": {
            "hash": "0x30983c82a096d3af8ba8cdea055c0ed96617016b73ed40ae1db5f16dd307afdd",
            "fixture-format": "blockchain_test",
            "comment": "`execution-specs` generated test",
            "filling-transition-tool": "2.19.0",
            "description": "Test that CODECOPY properly consumes gas for word copy cost.",
            "url": "https://github.com/ethereum/execution-specs/blob/tests-bal@v5.4.0/tests/frontier/opcodes/test_data_copy_oog.py#L123",
            "opcode_count": {}
        }
    }
}