{
    "tests/ported_static/stCallDelegateCodesHomestead/test_callcodecallcallcode_101_oogm_before.py::test_callcodecallcallcode_101_oogm_before[fork_Cancun-blockchain_test_from_state_test]": {
        "network": "Cancun",
        "genesisBlockHeader": {
            "parentHash": "0x0000000000000000000000000000000000000000000000000000000000000000",
            "uncleHash": "0x1dcc4de8dec75d7aab85b567b6ccd41ad312451b948a7413f0a142fd40d49347",
            "coinbase": "0x0000000000000000000000000000000000000000",
            "stateRoot": "0xe78d5b69d31afa260c6e3832f0217eaae5f0f8fb60fea8b521bd99ffaef1a7b9",
            "transactionsTrie": "0x56e81f171bcc55a6ff8345e692c0f86e5b48e01b996cadc001622fb5e363b421",
            "receiptTrie": "0x56e81f171bcc55a6ff8345e692c0f86e5b48e01b996cadc001622fb5e363b421",
            "bloom": "0x00000000000000000000000000000000000000000000000000000000000000000000000000000000000000000000000000000000000000000000000000000000000000000000000000000000000000000000000000000000000000000000000000000000000000000000000000000000000000000000000000000000000000000000000000000000000000000000000000000000000000000000000000000000000000000000000000000000000000000000000000000000000000000000000000000000000000000000000000000000000000000000000000000000000000000000000000000000000000000000000000000000000000000000000000000000",
            "difficulty": "0x00",
            "number": "0x00",
            "gasLimit": "0x01c9c380",
            "gasUsed": "0x00",
            "timestamp": "0x00",
            "extraData": "0x00",
            "mixHash": "0x0000000000000000000000000000000000000000000000000000000000000000",
            "nonce": "0x0000000000000000",
            "baseFeePerGas": "0x0b",
            "withdrawalsRoot": "0x56e81f171bcc55a6ff8345e692c0f86e5b48e01b996cadc001622fb5e363b421",
            "blobGasUsed": "0x00",
            "excessBlobGas": "0x00",
            "parentBeaconBlockRoot": "0x0000000000000000000000000000000000000000000000000000000000000000",
            "hash": "0x699a267c379b2caaa97cac4eabb0aa419514859ccd392d0f4595c14aef914074"
        },
        "pre": {
            "0x000f3df6d732807ef1319fb7b8bb8522d0beac02": {
                "nonce": "0x01",
                "balance": "0x00",
                "code": "0x3373fffffffffffffffffffffffffffffffffffffffe14604d57602036146024575f5ffd5b5f35801560495762001fff810690815414603c575f5ffd5b62001fff01545f5260205ff35b5f5ffd5b62001fff42064281555f359062001fff015500",
                "storage": {}
            },
            "0xd66f224cbd2fabb21b17bb53c56118f32f62ebd6": {
                "nonce": "0x00",
                "balance": "0x0de0b6b3a7640000",
                "code": "0x",
                "storage": {}
            },
            "0xf68e9b59ad48df3b9601ded50f7a1049113d801d": {
                "nonce": "0x00",
                "balance": "0x00",
                "code": "0x600160035500",
                "storage": {}
            },
            "0xdaa564d905e65830af3b86daf3e8e44a7a0583a7": {
                "nonce": "0x00",
                "balance": "0x00",
                "code": "0x622fffff60002050604060006040600073f68e9b59ad48df3b9601ded50f7a1049113d801d62061a80f460025500",
                "storage": {}
            },
            "0x5eb8616c8413a4c4182dd9b763b5ded7d1ab75fb": {
                "nonce": "0x00",
                "balance": "0x00",
                "code": "0x6040600060406000600073daa564d905e65830af3b86daf3e8e44a7a0583a7620927c0f16001556001600b5500",
                "storage": {}
            },
            "0x3cce2f50107b884cd9d31167bb4c3faad1936c07": {
                "nonce": "0x00",
                "balance": "0x0de0b6b3a7640000",
                "code": "0x6040600060406000735eb8616c8413a4c4182dd9b763b5ded7d1ab75fb620c3500f460005500",
                "storage": {}
            }
        },
        "postState": {
            "0x000f3df6d732807ef1319fb7b8bb8522d0beac02": {
                "nonce": "0x01",
                "balance": "0x00",
                "code": "0x3373fffffffffffffffffffffffffffffffffffffffe14604d57602036146024575f5ffd5b5f35801560495762001fff810690815414603c575f5ffd5b62001fff01545f5260205ff35b5f5ffd5b62001fff42064281555f359062001fff015500",
                "storage": {
                    "0x03e8": "0x03e8"
                }
            },
            "0xd66f224cbd2fabb21b17bb53c56118f32f62ebd6": {
                "nonce": "0x01",
                "balance": "0x0de0b6b3a6fd5c1a",
                "code": "0x",
                "storage": {}
            },
            "0xf68e9b59ad48df3b9601ded50f7a1049113d801d": {
                "nonce": "0x00",
                "balance": "0x00",
                "code": "0x600160035500",
                "storage": {}
            },
            "0xdaa564d905e65830af3b86daf3e8e44a7a0583a7": {
                "nonce": "0x00",
                "balance": "0x00",
                "code": "0x622fffff60002050604060006040600073f68e9b59ad48df3b9601ded50f7a1049113d801d62061a80f460025500",
                "storage": {}
            },
            "0x5eb8616c8413a4c4182dd9b763b5ded7d1ab75fb": {
                "nonce": "0x00",
                "balance": "0x00",
                "code": "0x6040600060406000600073daa564d905e65830af3b86daf3e8e44a7a0583a7620927c0f16001556001600b5500",
                "storage": {}
            },
            "0x3cce2f50107b884cd9d31167bb4c3faad1936c07": {
                "nonce": "0x00",
                "balance": "0x0de0b6b3a7640000",
                "code": "0x6040600060406000735eb8616c8413a4c4182dd9b763b5ded7d1ab75fb620c3500f460005500",
                "storage": {
                    "0x0b": "0x01",
                    "0x00": "0x01"
                }
            }
        },
        "lastblockhash": "0xf51e3cedc91447cfe62381a613471527cda567c1d650d74b30962061557f3d95",
        "config": {
            "network": "Cancun",
            "chainid": "0x01",
            "blobSchedule": {
                "Cancun": {
                    "target": "0x03",
                    "max": "0x06",
                    "baseFeeUpdateFraction": "0x32f0ed"
                }
            }
        },
        "genesisRLP": "0xf9023cf90236a00000000000000000000000000000000000000000000000000000000000000000a01dcc4de8dec75d7aab85b567b6ccd41ad312451b948a7413f0a142fd40d49347940000000000000000000000000000000000000000a0e78d5b69d31afa260c6e3832f0217eaae5f0f8fb60fea8b521bd99ffaef1a7b9a056e81f171bcc55a6ff8345e692c0f86e5b48e01b996cadc001622fb5e363b421a056e81f171bcc55a6ff8345e692c0f86e5b48e01b996cadc001622fb5e363b421b901000000000000000000000000000000000000000000000000000000000000000000000000000000000000000000000000000000000000000000000000000000000000000000000000000000000000000000000000000000000000000000000000000000000000000000000000000000000000000000000000000000000000000000000000000000000000000000000000000000000000000000000000000000000000000000000000000000000000000000000000000000000000000000000000000000000000000000000000000000000000000000000000000000000000000000000000000000000000000000000000000000000000000000000000000000000080808401c9c380808000a000000000000000000000000000000000000000000000000000000000000000008800000000000000000ba056e81f171bcc55a6ff8345e692c0f86e5b48e01b996cadc001622fb5e363b4218080a00000000000000000000000000000000000000000000000000000000000000000c0c0c0",
        "blocks": [
            {
                "blockHeader": {
                    "parentHash": "0x699a267c379b2caaa97cac4eabb0aa419514859ccd392d0f4595c14aef914074",
                    "uncleHash": "0x1dcc4de8dec75d7aab85b567b6ccd41ad312451b948a7413f0a142fd40d49347",
                    "coinbase": "0x2adc25665018aa1fe0e6bc666dac8fc2697ff9ba",
                    "stateRoot": "0x3263509c3b25c4d4feba46aab8a1e377892cb7d3f3851bde84037d7c871106e6",
                    "transactionsTrie": "0x438e12a25086c0f997d71fc91e5d1e3677e6bd6ba27b074346a6ef524e4fa0d5",
                    "receiptTrie": "0xf6ded63c4734847fb17e8e6776e516cfb2a93625a3b8ead678e77597e534c482",
                    "bloom": "0x00000000000000000000000000000000000000000000000000000000000000000000000000000000000000000000000000000000000000000000000000000000000000000000000000000000000000000000000000000000000000000000000000000000000000000000000000000000000000000000000000000000000000000000000000000000000000000000000000000000000000000000000000000000000000000000000000000000000000000000000000000000000000000000000000000000000000000000000000000000000000000000000000000000000000000000000000000000000000000000000000000000000000000000000000000000",
                    "difficulty": "0x00",
                    "number": "0x01",
                    "gasLimit": "0x01c9c380",
                    "gasUsed": "0x0a4397",
                    "timestamp": "0x03e8",
                    "extraData": "0x00",
                    "mixHash": "0x0000000000000000000000000000000000000000000000000000000000020000",
                    "nonce": "0x0000000000000000",
                    "baseFeePerGas": "0x0a",
                    "withdrawalsRoot": "0x56e81f171bcc55a6ff8345e692c0f86e5b48e01b996cadc001622fb5e363b421",
                    "blobGasUsed": "0x00",
                    "excessBlobGas": "0x00",
                    "parentBeaconBlockRoot": "0x0000000000000000000000000000000000000000000000000000000000000000",
                    "hash": "0xf51e3cedc91447cfe62381a613471527cda567c1d650d74b30962061557f3d95"
                },
                "transactions": [
                    {
                        "type": "0x00",
                        "chainId": "0x01",
                        "nonce": "0x00",
                        "gasPrice": "0x0a",
                        "gasLimit": "0x0f4240",
                        "to": "0x3cce2f50107b884cd9d31167bb4c3faad1936c07",
                        "value": "0x00",
                        "data": "0x",
                        "v": "0x26",
                        "r": "0x8325602bd6ab1d6f7b018f1d33d768de50ec1a707f570245bee93cfc422d3667",
                        "s": "0x3882fdd3078e126fd50b28e26b1f883a512220c80e043142807bd333d36af514",
                        "sender": "0xd66f224cbd2fabb21b17bb53c56118f32f62ebd6"
                    }
                ],
                "uncleHeaders": [],
                "withdrawals": [],
                "receipts": [
                    {
                        "transactionHash": "0x85f29b81b99c7afc007774ac51dc601e58ded2dcc8ed91e967a94a349ccfa3e3",
                        "type": "0x00",
                        "cumulativeGasUsed": "0x0a4397",
                        "bloom": "0x00000000000000000000000000000000000000000000000000000000000000000000000000000000000000000000000000000000000000000000000000000000000000000000000000000000000000000000000000000000000000000000000000000000000000000000000000000000000000000000000000000000000000000000000000000000000000000000000000000000000000000000000000000000000000000000000000000000000000000000000000000000000000000000000000000000000000000000000000000000000000000000000000000000000000000000000000000000000000000000000000000000000000000000000000000000",
                        "logs": [],
                        "status": true,
                        "rlp": "0xf9010901830a4397b9010000000000000000000000000000000000000000000000000000000000000000000000000000000000000000000000000000000000000000000000000000000000000000000000000000000000000000000000000000000000000000000000000000000000000000000000000000000000000000000000000000000000000000000000000000000000000000000000000000000000000000000000000000000000000000000000000000000000000000000000000000000000000000000000000000000000000000000000000000000000000000000000000000000000000000000000000000000000000000000000000000000000000000000000000000000000c0"
                    }
                ],
                "rlp": "0xf902a4f9023ba0699a267c379b2caaa97cac4eabb0aa419514859ccd392d0f4595c14aef914074a01dcc4de8dec75d7aab85b567b6ccd41ad312451b948a7413f0a142fd40d49347942adc25665018aa1fe0e6bc666dac8fc2697ff9baa03263509c3b25c4d4feba46aab8a1e377892cb7d3f3851bde84037d7c871106e6a0438e12a25086c0f997d71fc91e5d1e3677e6bd6ba27b074346a6ef524e4fa0d5a0f6ded63c4734847fb17e8e6776e516cfb2a93625a3b8ead678e77597e534c482b901000000000000000000000000000000000000000000000000000000000000000000000000000000000000000000000000000000000000000000000000000000000000000000000000000000000000000000000000000000000000000000000000000000000000000000000000000000000000000000000000000000000000000000000000000000000000000000000000000000000000000000000000000000000000000000000000000000000000000000000000000000000000000000000000000000000000000000000000000000000000000000000000000000000000000000000000000000000000000000000000000000000000000000000000000000000080018401c9c380830a43978203e800a000000000000000000000000000000000000000000000000000000000000200008800000000000000000aa056e81f171bcc55a6ff8345e692c0f86e5b48e01b996cadc001622fb5e363b4218080a00000000000000000000000000000000000000000000000000000000000000000f862f860800a830f4240943cce2f50107b884cd9d31167bb4c3faad1936c07808026a08325602bd6ab1d6f7b018f1d33d768de50ec1a707f570245bee93cfc422d3667a03882fdd3078e126fd50b28e26b1f883a512220c80e043142807bd333d36af514c0c0",
                "blocknumber": "1"
            }
        ],
        "sealEngine": "NoProof",
        "_info": {
            "hash": "0x04ca14e94cfe051d7b707b6fb067038f1ff12a6cb7accb5d7dac77fb203904a8",
            "fixture-format": "blockchain_test",
            "comment": "`execution-specs` generated test",
            "filling-transition-tool": "2.19.0",
            "description": "DELEGATE -> CALL -> OOG DELEGATE -> CODE.",
            "url": "https://github.com/ethereum/execution-specs/blob/tests-snobal-devnet-5@v8037.0.0/tests/ported_static/stCallDelegateCodesHomestead/test_callcodecallcallcode_101_oogm_before.py#L24",
            "metadata": {
                "opcode_count": {}
            }
        }
    }
}