{
    "tests/cancun/eip6780_selfdestruct/test_journal_revert.py::test_selfdestruct_balance_transfer_reverted[fork_Cancun-blockchain_test_from_state_test]": {
        "network": "Cancun",
        "genesisBlockHeader": {
            "parentHash": "0x0000000000000000000000000000000000000000000000000000000000000000",
            "uncleHash": "0x1dcc4de8dec75d7aab85b567b6ccd41ad312451b948a7413f0a142fd40d49347",
            "coinbase": "0x0000000000000000000000000000000000000000",
            "stateRoot": "0xe01bec12666e98075e68d258d7151dbed01dea76ec4e22f2ebf256f4c03ccf3c",
            "transactionsTrie": "0x56e81f171bcc55a6ff8345e692c0f86e5b48e01b996cadc001622fb5e363b421",
            "receiptTrie": "0x56e81f171bcc55a6ff8345e692c0f86e5b48e01b996cadc001622fb5e363b421",
            "bloom": "0x00000000000000000000000000000000000000000000000000000000000000000000000000000000000000000000000000000000000000000000000000000000000000000000000000000000000000000000000000000000000000000000000000000000000000000000000000000000000000000000000000000000000000000000000000000000000000000000000000000000000000000000000000000000000000000000000000000000000000000000000000000000000000000000000000000000000000000000000000000000000000000000000000000000000000000000000000000000000000000000000000000000000000000000000000000000",
            "difficulty": "0x00",
            "number": "0x00",
            "gasLimit": "0x07270e00",
            "gasUsed": "0x00",
            "timestamp": "0x00",
            "extraData": "0x00",
            "mixHash": "0x0000000000000000000000000000000000000000000000000000000000000000",
            "nonce": "0x0000000000000000",
            "baseFeePerGas": "0x07",
            "withdrawalsRoot": "0x56e81f171bcc55a6ff8345e692c0f86e5b48e01b996cadc001622fb5e363b421",
            "blobGasUsed": "0x00",
            "excessBlobGas": "0x00",
            "parentBeaconBlockRoot": "0x0000000000000000000000000000000000000000000000000000000000000000",
            "hash": "0x9fee826e6c66fe8a0b977e7f5585c3e0a7820b05d4471a283cf5c27bd9224395"
        },
        "pre": {
            "0x000f3df6d732807ef1319fb7b8bb8522d0beac02": {
                "nonce": "0x01",
                "balance": "0x00",
                "code": "0x3373fffffffffffffffffffffffffffffffffffffffe14604d57602036146024575f5ffd5b5f35801560495762001fff810690815414603c575f5ffd5b62001fff01545f5260205ff35b5f5ffd5b62001fff42064281555f359062001fff015500",
                "storage": {}
            },
            "0xf36afef4dcb45e52f80cb039335952f77cec8960": {
                "nonce": "0x00",
                "balance": "0x01",
                "code": "0x",
                "storage": {}
            },
            "0xd7d7426daf5909df92ebea4cd70f4bd67ef02a39": {
                "nonce": "0x01",
                "balance": "0x01",
                "code": "0x73f36afef4dcb45e52f80cb039335952f77cec8960ff",
                "storage": {}
            },
            "0x1d4933891a968ad7b8cfb5612a241be230dd3329": {
                "nonce": "0x01",
                "balance": "0x00",
                "code": "0x6000600060006000600073d7d7426daf5909df92ebea4cd70f4bd67ef02a39620186a0f15060006000fd",
                "storage": {}
            },
            "0x7bcabe92bd68595b30970595008b963a75ad7722": {
                "nonce": "0x01",
                "balance": "0x00",
                "code": "0x60006000600060006000731d4933891a968ad7b8cfb5612a241be230dd332962030d40f15073f36afef4dcb45e52f80cb039335952f77cec89603160005573d7d7426daf5909df92ebea4cd70f4bd67ef02a393160015500",
                "storage": {}
            },
            "0x1ad9bc24818784172ff393bb6f89f094d4d2ca29": {
                "nonce": "0x00",
                "balance": "0x3635c9adc5dea00000",
                "code": "0x",
                "storage": {}
            }
        },
        "postState": {
            "0x000f3df6d732807ef1319fb7b8bb8522d0beac02": {
                "nonce": "0x01",
                "balance": "0x00",
                "code": "0x3373fffffffffffffffffffffffffffffffffffffffe14604d57602036146024575f5ffd5b5f35801560495762001fff810690815414603c575f5ffd5b62001fff01545f5260205ff35b5f5ffd5b62001fff42064281555f359062001fff015500",
                "storage": {
                    "0x03e8": "0x03e8"
                }
            },
            "0xf36afef4dcb45e52f80cb039335952f77cec8960": {
                "nonce": "0x00",
                "balance": "0x01",
                "code": "0x",
                "storage": {}
            },
            "0xd7d7426daf5909df92ebea4cd70f4bd67ef02a39": {
                "nonce": "0x01",
                "balance": "0x01",
                "code": "0x73f36afef4dcb45e52f80cb039335952f77cec8960ff",
                "storage": {}
            },
            "0x1d4933891a968ad7b8cfb5612a241be230dd3329": {
                "nonce": "0x01",
                "balance": "0x00",
                "code": "0x6000600060006000600073d7d7426daf5909df92ebea4cd70f4bd67ef02a39620186a0f15060006000fd",
                "storage": {}
            },
            "0x7bcabe92bd68595b30970595008b963a75ad7722": {
                "nonce": "0x01",
                "balance": "0x00",
                "code": "0x60006000600060006000731d4933891a968ad7b8cfb5612a241be230dd332962030d40f15073f36afef4dcb45e52f80cb039335952f77cec89603160005573d7d7426daf5909df92ebea4cd70f4bd67ef02a393160015500",
                "storage": {
                    "0x00": "0x01",
                    "0x01": "0x01"
                }
            },
            "0x1ad9bc24818784172ff393bb6f89f094d4d2ca29": {
                "nonce": "0x01",
                "balance": "0x3635c9adc5de934b62",
                "code": "0x",
                "storage": {}
            },
            "0x2adc25665018aa1fe0e6bc666dac8fc2697ff9ba": {
                "nonce": "0x00",
                "balance": "0x03cfc9",
                "code": "0x",
                "storage": {}
            }
        },
        "lastblockhash": "0xadfb50658dd4853c6ae3991335125a8f7070dbfe5e1d1225155b9151905cef88",
        "config": {
            "network": "Cancun",
            "chainid": "0x01",
            "blobSchedule": {
                "Cancun": {
                    "target": "0x03",
                    "max": "0x06",
                    "baseFeeUpdateFraction": "0x32f0ed"
                }
            }
        },
        "genesisRLP": "0xf9023cf90236a00000000000000000000000000000000000000000000000000000000000000000a01dcc4de8dec75d7aab85b567b6ccd41ad312451b948a7413f0a142fd40d49347940000000000000000000000000000000000000000a0e01bec12666e98075e68d258d7151dbed01dea76ec4e22f2ebf256f4c03ccf3ca056e81f171bcc55a6ff8345e692c0f86e5b48e01b996cadc001622fb5e363b421a056e81f171bcc55a6ff8345e692c0f86e5b48e01b996cadc001622fb5e363b421b901000000000000000000000000000000000000000000000000000000000000000000000000000000000000000000000000000000000000000000000000000000000000000000000000000000000000000000000000000000000000000000000000000000000000000000000000000000000000000000000000000000000000000000000000000000000000000000000000000000000000000000000000000000000000000000000000000000000000000000000000000000000000000000000000000000000000000000000000000000000000000000000000000000000000000000000000000000000000000000000000000000000000000000000000000000000080808407270e00808000a0000000000000000000000000000000000000000000000000000000000000000088000000000000000007a056e81f171bcc55a6ff8345e692c0f86e5b48e01b996cadc001622fb5e363b4218080a00000000000000000000000000000000000000000000000000000000000000000c0c0c0",
        "blocks": [
            {
                "blockHeader": {
                    "parentHash": "0x9fee826e6c66fe8a0b977e7f5585c3e0a7820b05d4471a283cf5c27bd9224395",
                    "uncleHash": "0x1dcc4de8dec75d7aab85b567b6ccd41ad312451b948a7413f0a142fd40d49347",
                    "coinbase": "0x2adc25665018aa1fe0e6bc666dac8fc2697ff9ba",
                    "stateRoot": "0x260e3c1d1a86e6d6eed97581826a3694d53911d791c3dc32209d5a9f532ea067",
                    "transactionsTrie": "0x64a2ec06b55ed95ab5d397ea92442f462a34fd803eeab3c57170333181fac71d",
                    "receiptTrie": "0x480d5ce7326b30532d0d28ba7162a5f13c7bc475f262812a7f6605bdeb0c6dd1",
                    "bloom": "0x00000000000000000000000000000000000000000000000000000000000000000000000000000000000000000000000000000000000000000000000000000000000000000000000000000000000000000000000000000000000000000000000000000000000000000000000000000000000000000000000000000000000000000000000000000000000000000000000000000000000000000000000000000000000000000000000000000000000000000000000000000000000000000000000000000000000000000000000000000000000000000000000000000000000000000000000000000000000000000000000000000000000000000000000000000000",
                    "difficulty": "0x00",
                    "number": "0x01",
                    "gasLimit": "0x07270e00",
                    "gasUsed": "0x014543",
                    "timestamp": "0x03e8",
                    "extraData": "0x00",
                    "mixHash": "0x0000000000000000000000000000000000000000000000000000000000000000",
                    "nonce": "0x0000000000000000",
                    "baseFeePerGas": "0x07",
                    "withdrawalsRoot": "0x56e81f171bcc55a6ff8345e692c0f86e5b48e01b996cadc001622fb5e363b421",
                    "blobGasUsed": "0x00",
                    "excessBlobGas": "0x00",
                    "parentBeaconBlockRoot": "0x0000000000000000000000000000000000000000000000000000000000000000",
                    "hash": "0xadfb50658dd4853c6ae3991335125a8f7070dbfe5e1d1225155b9151905cef88"
                },
                "transactions": [
                    {
                        "type": "0x00",
                        "chainId": "0x01",
                        "nonce": "0x00",
                        "gasPrice": "0x0a",
                        "gasLimit": "0x0f4240",
                        "to": "0x7bcabe92bd68595b30970595008b963a75ad7722",
                        "value": "0x00",
                        "data": "0x",
                        "v": "0x26",
                        "r": "0xb8c73d1ff3439a2f2e06fcf82673d7875f4f17b40f45b0f03af71df4d09ba117",
                        "s": "0x6e0c39449258b5d3c2a20f1d0deb5d77493a15e36fe44f86c667db72ab2ea50f",
                        "sender": "0x1ad9bc24818784172ff393bb6f89f094d4d2ca29"
                    }
                ],
                "uncleHeaders": [],
                "withdrawals": [],
                "receipts": [
                    {
                        "transactionHash": "0x44319b515e5465a90d17cf5a6d7bc7da61f0002892c4ee5ea6223f542aa7067c",
                        "type": "0x00",
                        "cumulativeGasUsed": "0x014543",
                        "bloom": "0x00000000000000000000000000000000000000000000000000000000000000000000000000000000000000000000000000000000000000000000000000000000000000000000000000000000000000000000000000000000000000000000000000000000000000000000000000000000000000000000000000000000000000000000000000000000000000000000000000000000000000000000000000000000000000000000000000000000000000000000000000000000000000000000000000000000000000000000000000000000000000000000000000000000000000000000000000000000000000000000000000000000000000000000000000000000",
                        "logs": [],
                        "status": true,
                        "rlp": "0xf901090183014543b9010000000000000000000000000000000000000000000000000000000000000000000000000000000000000000000000000000000000000000000000000000000000000000000000000000000000000000000000000000000000000000000000000000000000000000000000000000000000000000000000000000000000000000000000000000000000000000000000000000000000000000000000000000000000000000000000000000000000000000000000000000000000000000000000000000000000000000000000000000000000000000000000000000000000000000000000000000000000000000000000000000000000000000000000000000000000c0"
                    }
                ],
                "rlp": "0xf902a4f9023ba09fee826e6c66fe8a0b977e7f5585c3e0a7820b05d4471a283cf5c27bd9224395a01dcc4de8dec75d7aab85b567b6ccd41ad312451b948a7413f0a142fd40d49347942adc25665018aa1fe0e6bc666dac8fc2697ff9baa0260e3c1d1a86e6d6eed97581826a3694d53911d791c3dc32209d5a9f532ea067a064a2ec06b55ed95ab5d397ea92442f462a34fd803eeab3c57170333181fac71da0480d5ce7326b30532d0d28ba7162a5f13c7bc475f262812a7f6605bdeb0c6dd1b901000000000000000000000000000000000000000000000000000000000000000000000000000000000000000000000000000000000000000000000000000000000000000000000000000000000000000000000000000000000000000000000000000000000000000000000000000000000000000000000000000000000000000000000000000000000000000000000000000000000000000000000000000000000000000000000000000000000000000000000000000000000000000000000000000000000000000000000000000000000000000000000000000000000000000000000000000000000000000000000000000000000000000000000000000000000080018407270e00830145438203e800a0000000000000000000000000000000000000000000000000000000000000000088000000000000000007a056e81f171bcc55a6ff8345e692c0f86e5b48e01b996cadc001622fb5e363b4218080a00000000000000000000000000000000000000000000000000000000000000000f862f860800a830f4240947bcabe92bd68595b30970595008b963a75ad7722808026a0b8c73d1ff3439a2f2e06fcf82673d7875f4f17b40f45b0f03af71df4d09ba117a06e0c39449258b5d3c2a20f1d0deb5d77493a15e36fe44f86c667db72ab2ea50fc0c0",
                "blocknumber": "1"
            }
        ],
        "sealEngine": "NoProof",
        "_info": {
            "hash": "0xb51174116feb0ab10ec04d526c4330e1b39c612c38bc260055c1ac7a0e6ceb8a",
            "fixture-format": "blockchain_test",
            "comment": "`execution-specs` generated test",
            "filling-transition-tool": "2.19.0",
            "description": "Test that SELFDESTRUCT balance transfer is reverted on sub-call revert.\n\nPost-Cancun, SELFDESTRUCT does not destroy the contract but still\ntransfers balance. When the sub-call containing SELFDESTRUCT reverts,\nthe balance transfer must also be reverted.",
            "url": "https://github.com/ethereum/execution-specs/blob/tests-snobal-devnet-5@v8037.0.0/tests/cancun/eip6780_selfdestruct/test_journal_revert.py#L20",
            "metadata": {
                "opcode_count": {}
            },
            "reference-spec": "https://github.com/ethereum/EIPs/blob/master/EIPS/eip-6780.md",
            "reference-spec-version": "1b6a0e94cc47e859b9866e570391cf37dc55059a"
        }
    }
}