{
    "tests/constantinople/eip1052_extcodehash/test_extcodehash.py::test_extcodehash_codeless_with_storage[fork_Istanbul-blockchain_test_from_state_test-balance]": {
        "network": "Istanbul",
        "genesisBlockHeader": {
            "parentHash": "0x0000000000000000000000000000000000000000000000000000000000000000",
            "uncleHash": "0x1dcc4de8dec75d7aab85b567b6ccd41ad312451b948a7413f0a142fd40d49347",
            "coinbase": "0x0000000000000000000000000000000000000000",
            "stateRoot": "0xfd6ec6fb1d9455af62f4143bbc2d1f0fda52dd6208469bcf360ce679b9106ba7",
            "transactionsTrie": "0x56e81f171bcc55a6ff8345e692c0f86e5b48e01b996cadc001622fb5e363b421",
            "receiptTrie": "0x56e81f171bcc55a6ff8345e692c0f86e5b48e01b996cadc001622fb5e363b421",
            "bloom": "0x00000000000000000000000000000000000000000000000000000000000000000000000000000000000000000000000000000000000000000000000000000000000000000000000000000000000000000000000000000000000000000000000000000000000000000000000000000000000000000000000000000000000000000000000000000000000000000000000000000000000000000000000000000000000000000000000000000000000000000000000000000000000000000000000000000000000000000000000000000000000000000000000000000000000000000000000000000000000000000000000000000000000000000000000000000000",
            "difficulty": "0x020000",
            "number": "0x00",
            "gasLimit": "0x07270e00",
            "gasUsed": "0x00",
            "timestamp": "0x00",
            "extraData": "0x00",
            "mixHash": "0x0000000000000000000000000000000000000000000000000000000000000000",
            "nonce": "0x0000000000000000",
            "hash": "0xe114e3fa6ea6d8311ca15815aeb993bfbad4d5be6cd415e03fd73004974d925e"
        },
        "pre": {
            "0xc0f6dc9e5836f54caadbf59cc69346c508e1992b": {
                "nonce": "0x00",
                "balance": "0x01",
                "code": "0x",
                "storage": {
                    "0x01": "0x01"
                }
            },
            "0x9b5962eba47fd886ebfcf12678a6e0af53295a2b": {
                "nonce": "0x01",
                "balance": "0x00",
                "code": "0x73c0f6dc9e5836f54caadbf59cc69346c508e1992b3f60005573c0f6dc9e5836f54caadbf59cc69346c508e1992b3b600155",
                "storage": {
                    "0x01": "0xba5e"
                }
            },
            "0x1ad9bc24818784172ff393bb6f89f094d4d2ca29": {
                "nonce": "0x00",
                "balance": "0x3635c9adc5dea00000",
                "code": "0x",
                "storage": {}
            }
        },
        "postState": {
            "0xc0f6dc9e5836f54caadbf59cc69346c508e1992b": {
                "nonce": "0x00",
                "balance": "0x01",
                "code": "0x",
                "storage": {
                    "0x01": "0x01"
                }
            },
            "0x9b5962eba47fd886ebfcf12678a6e0af53295a2b": {
                "nonce": "0x01",
                "balance": "0x00",
                "code": "0x73c0f6dc9e5836f54caadbf59cc69346c508e1992b3f60005573c0f6dc9e5836f54caadbf59cc69346c508e1992b3b600155",
                "storage": {
                    "0x00": "0xc5d2460186f7233c927e7db2dcc703c0e500b653ca82273b7bfad8045d85a470"
                }
            },
            "0x1ad9bc24818784172ff393bb6f89f094d4d2ca29": {
                "nonce": "0x01",
                "balance": "0x3635c9adc5de9b0de8",
                "code": "0x",
                "storage": {}
            },
            "0x2adc25665018aa1fe0e6bc666dac8fc2697ff9ba": {
                "nonce": "0x00",
                "balance": "0x1bc16d674eccf218",
                "code": "0x",
                "storage": {}
            }
        },
        "lastblockhash": "0x3c85a1bb3c9b13977624294cde1fd9d1891eb865a54a394aafa587c66892c29d",
        "config": {
            "network": "Istanbul",
            "chainid": "0x01"
        },
        "genesisRLP": "0xf901f9f901f4a00000000000000000000000000000000000000000000000000000000000000000a01dcc4de8dec75d7aab85b567b6ccd41ad312451b948a7413f0a142fd40d49347940000000000000000000000000000000000000000a0fd6ec6fb1d9455af62f4143bbc2d1f0fda52dd6208469bcf360ce679b9106ba7a056e81f171bcc55a6ff8345e692c0f86e5b48e01b996cadc001622fb5e363b421a056e81f171bcc55a6ff8345e692c0f86e5b48e01b996cadc001622fb5e363b421b901000000000000000000000000000000000000000000000000000000000000000000000000000000000000000000000000000000000000000000000000000000000000000000000000000000000000000000000000000000000000000000000000000000000000000000000000000000000000000000000000000000000000000000000000000000000000000000000000000000000000000000000000000000000000000000000000000000000000000000000000000000000000000000000000000000000000000000000000000000000000000000000000000000000000000000000000000000000000000000000000000000000000000000000000000000000083020000808407270e00808000a00000000000000000000000000000000000000000000000000000000000000000880000000000000000c0c0",
        "blocks": [
            {
                "blockHeader": {
                    "parentHash": "0xe114e3fa6ea6d8311ca15815aeb993bfbad4d5be6cd415e03fd73004974d925e",
                    "uncleHash": "0x1dcc4de8dec75d7aab85b567b6ccd41ad312451b948a7413f0a142fd40d49347",
                    "coinbase": "0x2adc25665018aa1fe0e6bc666dac8fc2697ff9ba",
                    "stateRoot": "0xb1414e45afacfde5b4f8fbd40feaf0c9ac1d93a44108d4e3f53b62466fe7bbae",
                    "transactionsTrie": "0x4c11f37f6b8671b3bbb1b17eec51c7d3e7ec18c21910e3b298d65cf77ca07893",
                    "receiptTrie": "0xf458d6fa06909419e5d32a0c041a16aa19731e0b12288a7f5dfe51524f2bfe79",
                    "bloom": "0x00000000000000000000000000000000000000000000000000000000000000000000000000000000000000000000000000000000000000000000000000000000000000000000000000000000000000000000000000000000000000000000000000000000000000000000000000000000000000000000000000000000000000000000000000000000000000000000000000000000000000000000000000000000000000000000000000000000000000000000000000000000000000000000000000000000000000000000000000000000000000000000000000000000000000000000000000000000000000000000000000000000000000000000000000000000",
                    "difficulty": "0x020000",
                    "number": "0x01",
                    "gasLimit": "0x07270e00",
                    "gasUsed": "0x7e9c",
                    "timestamp": "0x03e8",
                    "extraData": "0x00",
                    "mixHash": "0x0000000000000000000000000000000000000000000000000000000000000000",
                    "nonce": "0x0000000000000000",
                    "hash": "0x3c85a1bb3c9b13977624294cde1fd9d1891eb865a54a394aafa587c66892c29d"
                },
                "transactions": [
                    {
                        "type": "0x00",
                        "chainId": "0x01",
                        "nonce": "0x00",
                        "gasPrice": "0x0a",
                        "gasLimit": "0x0186a0",
                        "to": "0x9b5962eba47fd886ebfcf12678a6e0af53295a2b",
                        "value": "0x00",
                        "data": "0x",
                        "v": "0x26",
                        "r": "0x709752f74fb5e2df242c29fd41d3f0dd0a3be95107b8401d54a4866138bdb6fa",
                        "s": "0x4e539644614a6f2856ec09bc9caa7da9a2492df6d2462b17c751e82b3dccc357",
                        "sender": "0x1ad9bc24818784172ff393bb6f89f094d4d2ca29"
                    }
                ],
                "uncleHeaders": [],
                "receipts": [
                    {
                        "transactionHash": "0xf81154d52e35798a18af7d85dc50ac83d4667e7f706f2e6e21609b2047df71e0",
                        "type": "0x00",
                        "cumulativeGasUsed": "0x7e9c",
                        "bloom": "0x00000000000000000000000000000000000000000000000000000000000000000000000000000000000000000000000000000000000000000000000000000000000000000000000000000000000000000000000000000000000000000000000000000000000000000000000000000000000000000000000000000000000000000000000000000000000000000000000000000000000000000000000000000000000000000000000000000000000000000000000000000000000000000000000000000000000000000000000000000000000000000000000000000000000000000000000000000000000000000000000000000000000000000000000000000000",
                        "logs": [],
                        "status": true,
                        "rlp": "0xf9010801827e9cb9010000000000000000000000000000000000000000000000000000000000000000000000000000000000000000000000000000000000000000000000000000000000000000000000000000000000000000000000000000000000000000000000000000000000000000000000000000000000000000000000000000000000000000000000000000000000000000000000000000000000000000000000000000000000000000000000000000000000000000000000000000000000000000000000000000000000000000000000000000000000000000000000000000000000000000000000000000000000000000000000000000000000000000000000000000000000c0"
                    }
                ],
                "rlp": "0xf90260f901f8a0e114e3fa6ea6d8311ca15815aeb993bfbad4d5be6cd415e03fd73004974d925ea01dcc4de8dec75d7aab85b567b6ccd41ad312451b948a7413f0a142fd40d49347942adc25665018aa1fe0e6bc666dac8fc2697ff9baa0b1414e45afacfde5b4f8fbd40feaf0c9ac1d93a44108d4e3f53b62466fe7bbaea04c11f37f6b8671b3bbb1b17eec51c7d3e7ec18c21910e3b298d65cf77ca07893a0f458d6fa06909419e5d32a0c041a16aa19731e0b12288a7f5dfe51524f2bfe79b901000000000000000000000000000000000000000000000000000000000000000000000000000000000000000000000000000000000000000000000000000000000000000000000000000000000000000000000000000000000000000000000000000000000000000000000000000000000000000000000000000000000000000000000000000000000000000000000000000000000000000000000000000000000000000000000000000000000000000000000000000000000000000000000000000000000000000000000000000000000000000000000000000000000000000000000000000000000000000000000000000000000000000000000000000000000083020000018407270e00827e9c8203e800a00000000000000000000000000000000000000000000000000000000000000000880000000000000000f862f860800a830186a0949b5962eba47fd886ebfcf12678a6e0af53295a2b808026a0709752f74fb5e2df242c29fd41d3f0dd0a3be95107b8401d54a4866138bdb6faa04e539644614a6f2856ec09bc9caa7da9a2492df6d2462b17c751e82b3dccc357c0",
                "blocknumber": "1"
            }
        ],
        "sealEngine": "NoProof",
        "_info": {
            "hash": "0x02c360afdf156c62af2be1a0faf4d2793ed7a1bb3dd5d432debe5dff3f2a0a42",
            "fixture-format": "blockchain_test",
            "comment": "`execution-specs` generated test",
            "filling-transition-tool": "2.19.0",
            "description": "Test EXTCODEHASH/EXTCODESIZE of a codeless account that has storage.\n\nAll three variants are non-empty per EIP-161 (non-zero balance or nonce),\nso EXTCODEHASH returns keccak256(\"\") and EXTCODESIZE returns 0.\nStorage is not part of the EIP-161 emptiness check.",
            "url": "https://github.com/ethereum/execution-specs/blob/tests-bal@v5.6.0/tests/constantinople/eip1052_extcodehash/test_extcodehash.py#L366",
            "metadata": {
                "opcode_count": {}
            },
            "reference-spec": "https://github.com/ethereum/EIPs/blob/master/EIPS/eip-1052.md",
            "reference-spec-version": "2dcbc7ce1563e9624e137e9d447374600af876fa"
        }
    },
    "tests/constantinople/eip1052_extcodehash/test_extcodehash.py::test_extcodehash_codeless_with_storage[fork_Istanbul-blockchain_test_from_state_test-balance_and_nonce]": {
        "network": "Istanbul",
        "genesisBlockHeader": {
            "parentHash": "0x0000000000000000000000000000000000000000000000000000000000000000",
            "uncleHash": "0x1dcc4de8dec75d7aab85b567b6ccd41ad312451b948a7413f0a142fd40d49347",
            "coinbase": "0x0000000000000000000000000000000000000000",
            "stateRoot": "0x247d5310a7b82bdb527edbf149f09ed22c20f3211bff064ee0d22c7eaab2f193",
            "transactionsTrie": "0x56e81f171bcc55a6ff8345e692c0f86e5b48e01b996cadc001622fb5e363b421",
            "receiptTrie": "0x56e81f171bcc55a6ff8345e692c0f86e5b48e01b996cadc001622fb5e363b421",
            "bloom": "0x00000000000000000000000000000000000000000000000000000000000000000000000000000000000000000000000000000000000000000000000000000000000000000000000000000000000000000000000000000000000000000000000000000000000000000000000000000000000000000000000000000000000000000000000000000000000000000000000000000000000000000000000000000000000000000000000000000000000000000000000000000000000000000000000000000000000000000000000000000000000000000000000000000000000000000000000000000000000000000000000000000000000000000000000000000000",
            "difficulty": "0x020000",
            "number": "0x00",
            "gasLimit": "0x07270e00",
            "gasUsed": "0x00",
            "timestamp": "0x00",
            "extraData": "0x00",
            "mixHash": "0x0000000000000000000000000000000000000000000000000000000000000000",
            "nonce": "0x0000000000000000",
            "hash": "0x9b778968503346a01e01ea391cbcf707ae5ed9a07045cf120c57b30fb624c63a"
        },
        "pre": {
            "0xc0f6dc9e5836f54caadbf59cc69346c508e1992b": {
                "nonce": "0x01",
                "balance": "0x01",
                "code": "0x",
                "storage": {
                    "0x01": "0x01"
                }
            },
            "0x9b5962eba47fd886ebfcf12678a6e0af53295a2b": {
                "nonce": "0x01",
                "balance": "0x00",
                "code": "0x73c0f6dc9e5836f54caadbf59cc69346c508e1992b3f60005573c0f6dc9e5836f54caadbf59cc69346c508e1992b3b600155",
                "storage": {
                    "0x01": "0xba5e"
                }
            },
            "0x1ad9bc24818784172ff393bb6f89f094d4d2ca29": {
                "nonce": "0x00",
                "balance": "0x3635c9adc5dea00000",
                "code": "0x",
                "storage": {}
            }
        },
        "postState": {
            "0xc0f6dc9e5836f54caadbf59cc69346c508e1992b": {
                "nonce": "0x01",
                "balance": "0x01",
                "code": "0x",
                "storage": {
                    "0x01": "0x01"
                }
            },
            "0x9b5962eba47fd886ebfcf12678a6e0af53295a2b": {
                "nonce": "0x01",
                "balance": "0x00",
                "code": "0x73c0f6dc9e5836f54caadbf59cc69346c508e1992b3f60005573c0f6dc9e5836f54caadbf59cc69346c508e1992b3b600155",
                "storage": {
                    "0x00": "0xc5d2460186f7233c927e7db2dcc703c0e500b653ca82273b7bfad8045d85a470"
                }
            },
            "0x1ad9bc24818784172ff393bb6f89f094d4d2ca29": {
                "nonce": "0x01",
                "balance": "0x3635c9adc5de9b0de8",
                "code": "0x",
                "storage": {}
            },
            "0x2adc25665018aa1fe0e6bc666dac8fc2697ff9ba": {
                "nonce": "0x00",
                "balance": "0x1bc16d674eccf218",
                "code": "0x",
                "storage": {}
            }
        },
        "lastblockhash": "0x5d04165fe62d522345ca542cf07092c19ae44eadb12b4f512b80ce36c13f5bb5",
        "config": {
            "network": "Istanbul",
            "chainid": "0x01"
        },
        "genesisRLP": "0xf901f9f901f4a00000000000000000000000000000000000000000000000000000000000000000a01dcc4de8dec75d7aab85b567b6ccd41ad312451b948a7413f0a142fd40d49347940000000000000000000000000000000000000000a0247d5310a7b82bdb527edbf149f09ed22c20f3211bff064ee0d22c7eaab2f193a056e81f171bcc55a6ff8345e692c0f86e5b48e01b996cadc001622fb5e363b421a056e81f171bcc55a6ff8345e692c0f86e5b48e01b996cadc001622fb5e363b421b901000000000000000000000000000000000000000000000000000000000000000000000000000000000000000000000000000000000000000000000000000000000000000000000000000000000000000000000000000000000000000000000000000000000000000000000000000000000000000000000000000000000000000000000000000000000000000000000000000000000000000000000000000000000000000000000000000000000000000000000000000000000000000000000000000000000000000000000000000000000000000000000000000000000000000000000000000000000000000000000000000000000000000000000000000000000083020000808407270e00808000a00000000000000000000000000000000000000000000000000000000000000000880000000000000000c0c0",
        "blocks": [
            {
                "blockHeader": {
                    "parentHash": "0x9b778968503346a01e01ea391cbcf707ae5ed9a07045cf120c57b30fb624c63a",
                    "uncleHash": "0x1dcc4de8dec75d7aab85b567b6ccd41ad312451b948a7413f0a142fd40d49347",
                    "coinbase": "0x2adc25665018aa1fe0e6bc666dac8fc2697ff9ba",
                    "stateRoot": "0x3fd0461b77576c81334de4b5d787dfcf37020ebc05871b4e9eacd68d1eb208f0",
                    "transactionsTrie": "0x4c11f37f6b8671b3bbb1b17eec51c7d3e7ec18c21910e3b298d65cf77ca07893",
                    "receiptTrie": "0xf458d6fa06909419e5d32a0c041a16aa19731e0b12288a7f5dfe51524f2bfe79",
                    "bloom": "0x00000000000000000000000000000000000000000000000000000000000000000000000000000000000000000000000000000000000000000000000000000000000000000000000000000000000000000000000000000000000000000000000000000000000000000000000000000000000000000000000000000000000000000000000000000000000000000000000000000000000000000000000000000000000000000000000000000000000000000000000000000000000000000000000000000000000000000000000000000000000000000000000000000000000000000000000000000000000000000000000000000000000000000000000000000000",
                    "difficulty": "0x020000",
                    "number": "0x01",
                    "gasLimit": "0x07270e00",
                    "gasUsed": "0x7e9c",
                    "timestamp": "0x03e8",
                    "extraData": "0x00",
                    "mixHash": "0x0000000000000000000000000000000000000000000000000000000000000000",
                    "nonce": "0x0000000000000000",
                    "hash": "0x5d04165fe62d522345ca542cf07092c19ae44eadb12b4f512b80ce36c13f5bb5"
                },
                "transactions": [
                    {
                        "type": "0x00",
                        "chainId": "0x01",
                        "nonce": "0x00",
                        "gasPrice": "0x0a",
                        "gasLimit": "0x0186a0",
                        "to": "0x9b5962eba47fd886ebfcf12678a6e0af53295a2b",
                        "value": "0x00",
                        "data": "0x",
                        "v": "0x26",
                        "r": "0x709752f74fb5e2df242c29fd41d3f0dd0a3be95107b8401d54a4866138bdb6fa",
                        "s": "0x4e539644614a6f2856ec09bc9caa7da9a2492df6d2462b17c751e82b3dccc357",
                        "sender": "0x1ad9bc24818784172ff393bb6f89f094d4d2ca29"
                    }
                ],
                "uncleHeaders": [],
                "receipts": [
                    {
                        "transactionHash": "0xf81154d52e35798a18af7d85dc50ac83d4667e7f706f2e6e21609b2047df71e0",
                        "type": "0x00",
                        "cumulativeGasUsed": "0x7e9c",
                        "bloom": "0x00000000000000000000000000000000000000000000000000000000000000000000000000000000000000000000000000000000000000000000000000000000000000000000000000000000000000000000000000000000000000000000000000000000000000000000000000000000000000000000000000000000000000000000000000000000000000000000000000000000000000000000000000000000000000000000000000000000000000000000000000000000000000000000000000000000000000000000000000000000000000000000000000000000000000000000000000000000000000000000000000000000000000000000000000000000",
                        "logs": [],
                        "status": true,
                        "rlp": "0xf9010801827e9cb9010000000000000000000000000000000000000000000000000000000000000000000000000000000000000000000000000000000000000000000000000000000000000000000000000000000000000000000000000000000000000000000000000000000000000000000000000000000000000000000000000000000000000000000000000000000000000000000000000000000000000000000000000000000000000000000000000000000000000000000000000000000000000000000000000000000000000000000000000000000000000000000000000000000000000000000000000000000000000000000000000000000000000000000000000000000000c0"
                    }
                ],
                "rlp": "0xf90260f901f8a09b778968503346a01e01ea391cbcf707ae5ed9a07045cf120c57b30fb624c63aa01dcc4de8dec75d7aab85b567b6ccd41ad312451b948a7413f0a142fd40d49347942adc25665018aa1fe0e6bc666dac8fc2697ff9baa03fd0461b77576c81334de4b5d787dfcf37020ebc05871b4e9eacd68d1eb208f0a04c11f37f6b8671b3bbb1b17eec51c7d3e7ec18c21910e3b298d65cf77ca07893a0f458d6fa06909419e5d32a0c041a16aa19731e0b12288a7f5dfe51524f2bfe79b901000000000000000000000000000000000000000000000000000000000000000000000000000000000000000000000000000000000000000000000000000000000000000000000000000000000000000000000000000000000000000000000000000000000000000000000000000000000000000000000000000000000000000000000000000000000000000000000000000000000000000000000000000000000000000000000000000000000000000000000000000000000000000000000000000000000000000000000000000000000000000000000000000000000000000000000000000000000000000000000000000000000000000000000000000000000083020000018407270e00827e9c8203e800a00000000000000000000000000000000000000000000000000000000000000000880000000000000000f862f860800a830186a0949b5962eba47fd886ebfcf12678a6e0af53295a2b808026a0709752f74fb5e2df242c29fd41d3f0dd0a3be95107b8401d54a4866138bdb6faa04e539644614a6f2856ec09bc9caa7da9a2492df6d2462b17c751e82b3dccc357c0",
                "blocknumber": "1"
            }
        ],
        "sealEngine": "NoProof",
        "_info": {
            "hash": "0xb123454139650db03c367e337cde30934154881b34e6c6f3175c5204d40f8404",
            "fixture-format": "blockchain_test",
            "comment": "`execution-specs` generated test",
            "filling-transition-tool": "2.19.0",
            "description": "Test EXTCODEHASH/EXTCODESIZE of a codeless account that has storage.\n\nAll three variants are non-empty per EIP-161 (non-zero balance or nonce),\nso EXTCODEHASH returns keccak256(\"\") and EXTCODESIZE returns 0.\nStorage is not part of the EIP-161 emptiness check.",
            "url": "https://github.com/ethereum/execution-specs/blob/tests-bal@v5.6.0/tests/constantinople/eip1052_extcodehash/test_extcodehash.py#L366",
            "metadata": {
                "opcode_count": {}
            },
            "reference-spec": "https://github.com/ethereum/EIPs/blob/master/EIPS/eip-1052.md",
            "reference-spec-version": "2dcbc7ce1563e9624e137e9d447374600af876fa"
        }
    },
    "tests/constantinople/eip1052_extcodehash/test_extcodehash.py::test_extcodehash_codeless_with_storage[fork_Istanbul-blockchain_test_from_state_test-nonce]": {
        "network": "Istanbul",
        "genesisBlockHeader": {
            "parentHash": "0x0000000000000000000000000000000000000000000000000000000000000000",
            "uncleHash": "0x1dcc4de8dec75d7aab85b567b6ccd41ad312451b948a7413f0a142fd40d49347",
            "coinbase": "0x0000000000000000000000000000000000000000",
            "stateRoot": "0x10b57a7e13b065f65a73dc777ad3325708223fba9e06c84cd79108e05fde81f2",
            "transactionsTrie": "0x56e81f171bcc55a6ff8345e692c0f86e5b48e01b996cadc001622fb5e363b421",
            "receiptTrie": "0x56e81f171bcc55a6ff8345e692c0f86e5b48e01b996cadc001622fb5e363b421",
            "bloom": "0x00000000000000000000000000000000000000000000000000000000000000000000000000000000000000000000000000000000000000000000000000000000000000000000000000000000000000000000000000000000000000000000000000000000000000000000000000000000000000000000000000000000000000000000000000000000000000000000000000000000000000000000000000000000000000000000000000000000000000000000000000000000000000000000000000000000000000000000000000000000000000000000000000000000000000000000000000000000000000000000000000000000000000000000000000000000",
            "difficulty": "0x020000",
            "number": "0x00",
            "gasLimit": "0x07270e00",
            "gasUsed": "0x00",
            "timestamp": "0x00",
            "extraData": "0x00",
            "mixHash": "0x0000000000000000000000000000000000000000000000000000000000000000",
            "nonce": "0x0000000000000000",
            "hash": "0xeecd26a8ec6f9de625bccec2cb697f7a243ac29eaf129b054066f11e3bee0cd4"
        },
        "pre": {
            "0xc0f6dc9e5836f54caadbf59cc69346c508e1992b": {
                "nonce": "0x01",
                "balance": "0x00",
                "code": "0x",
                "storage": {
                    "0x01": "0x01"
                }
            },
            "0x9b5962eba47fd886ebfcf12678a6e0af53295a2b": {
                "nonce": "0x01",
                "balance": "0x00",
                "code": "0x73c0f6dc9e5836f54caadbf59cc69346c508e1992b3f60005573c0f6dc9e5836f54caadbf59cc69346c508e1992b3b600155",
                "storage": {
                    "0x01": "0xba5e"
                }
            },
            "0x1ad9bc24818784172ff393bb6f89f094d4d2ca29": {
                "nonce": "0x00",
                "balance": "0x3635c9adc5dea00000",
                "code": "0x",
                "storage": {}
            }
        },
        "postState": {
            "0xc0f6dc9e5836f54caadbf59cc69346c508e1992b": {
                "nonce": "0x01",
                "balance": "0x00",
                "code": "0x",
                "storage": {
                    "0x01": "0x01"
                }
            },
            "0x9b5962eba47fd886ebfcf12678a6e0af53295a2b": {
                "nonce": "0x01",
                "balance": "0x00",
                "code": "0x73c0f6dc9e5836f54caadbf59cc69346c508e1992b3f60005573c0f6dc9e5836f54caadbf59cc69346c508e1992b3b600155",
                "storage": {
                    "0x00": "0xc5d2460186f7233c927e7db2dcc703c0e500b653ca82273b7bfad8045d85a470"
                }
            },
            "0x1ad9bc24818784172ff393bb6f89f094d4d2ca29": {
                "nonce": "0x01",
                "balance": "0x3635c9adc5de9b0de8",
                "code": "0x",
                "storage": {}
            },
            "0x2adc25665018aa1fe0e6bc666dac8fc2697ff9ba": {
                "nonce": "0x00",
                "balance": "0x1bc16d674eccf218",
                "code": "0x",
                "storage": {}
            }
        },
        "lastblockhash": "0xab357557a7107bb548b0cf305776a43c56e88add22a9d785c8ca16b4be4906dc",
        "config": {
            "network": "Istanbul",
            "chainid": "0x01"
        },
        "genesisRLP": "0xf901f9f901f4a00000000000000000000000000000000000000000000000000000000000000000a01dcc4de8dec75d7aab85b567b6ccd41ad312451b948a7413f0a142fd40d49347940000000000000000000000000000000000000000a010b57a7e13b065f65a73dc777ad3325708223fba9e06c84cd79108e05fde81f2a056e81f171bcc55a6ff8345e692c0f86e5b48e01b996cadc001622fb5e363b421a056e81f171bcc55a6ff8345e692c0f86e5b48e01b996cadc001622fb5e363b421b901000000000000000000000000000000000000000000000000000000000000000000000000000000000000000000000000000000000000000000000000000000000000000000000000000000000000000000000000000000000000000000000000000000000000000000000000000000000000000000000000000000000000000000000000000000000000000000000000000000000000000000000000000000000000000000000000000000000000000000000000000000000000000000000000000000000000000000000000000000000000000000000000000000000000000000000000000000000000000000000000000000000000000000000000000000000083020000808407270e00808000a00000000000000000000000000000000000000000000000000000000000000000880000000000000000c0c0",
        "blocks": [
            {
                "blockHeader": {
                    "parentHash": "0xeecd26a8ec6f9de625bccec2cb697f7a243ac29eaf129b054066f11e3bee0cd4",
                    "uncleHash": "0x1dcc4de8dec75d7aab85b567b6ccd41ad312451b948a7413f0a142fd40d49347",
                    "coinbase": "0x2adc25665018aa1fe0e6bc666dac8fc2697ff9ba",
                    "stateRoot": "0x75c02a38959c2a424eb0291fb11d74ea3c935a2c4083ba446789d8bdbc3c9c26",
                    "transactionsTrie": "0x4c11f37f6b8671b3bbb1b17eec51c7d3e7ec18c21910e3b298d65cf77ca07893",
                    "receiptTrie": "0xf458d6fa06909419e5d32a0c041a16aa19731e0b12288a7f5dfe51524f2bfe79",
                    "bloom": "0x00000000000000000000000000000000000000000000000000000000000000000000000000000000000000000000000000000000000000000000000000000000000000000000000000000000000000000000000000000000000000000000000000000000000000000000000000000000000000000000000000000000000000000000000000000000000000000000000000000000000000000000000000000000000000000000000000000000000000000000000000000000000000000000000000000000000000000000000000000000000000000000000000000000000000000000000000000000000000000000000000000000000000000000000000000000",
                    "difficulty": "0x020000",
                    "number": "0x01",
                    "gasLimit": "0x07270e00",
                    "gasUsed": "0x7e9c",
                    "timestamp": "0x03e8",
                    "extraData": "0x00",
                    "mixHash": "0x0000000000000000000000000000000000000000000000000000000000000000",
                    "nonce": "0x0000000000000000",
                    "hash": "0xab357557a7107bb548b0cf305776a43c56e88add22a9d785c8ca16b4be4906dc"
                },
                "transactions": [
                    {
                        "type": "0x00",
                        "chainId": "0x01",
                        "nonce": "0x00",
                        "gasPrice": "0x0a",
                        "gasLimit": "0x0186a0",
                        "to": "0x9b5962eba47fd886ebfcf12678a6e0af53295a2b",
                        "value": "0x00",
                        "data": "0x",
                        "v": "0x26",
                        "r": "0x709752f74fb5e2df242c29fd41d3f0dd0a3be95107b8401d54a4866138bdb6fa",
                        "s": "0x4e539644614a6f2856ec09bc9caa7da9a2492df6d2462b17c751e82b3dccc357",
                        "sender": "0x1ad9bc24818784172ff393bb6f89f094d4d2ca29"
                    }
                ],
                "uncleHeaders": [],
                "receipts": [
                    {
                        "transactionHash": "0xf81154d52e35798a18af7d85dc50ac83d4667e7f706f2e6e21609b2047df71e0",
                        "type": "0x00",
                        "cumulativeGasUsed": "0x7e9c",
                        "bloom": "0x00000000000000000000000000000000000000000000000000000000000000000000000000000000000000000000000000000000000000000000000000000000000000000000000000000000000000000000000000000000000000000000000000000000000000000000000000000000000000000000000000000000000000000000000000000000000000000000000000000000000000000000000000000000000000000000000000000000000000000000000000000000000000000000000000000000000000000000000000000000000000000000000000000000000000000000000000000000000000000000000000000000000000000000000000000000",
                        "logs": [],
                        "status": true,
                        "rlp": "0xf9010801827e9cb9010000000000000000000000000000000000000000000000000000000000000000000000000000000000000000000000000000000000000000000000000000000000000000000000000000000000000000000000000000000000000000000000000000000000000000000000000000000000000000000000000000000000000000000000000000000000000000000000000000000000000000000000000000000000000000000000000000000000000000000000000000000000000000000000000000000000000000000000000000000000000000000000000000000000000000000000000000000000000000000000000000000000000000000000000000000000c0"
                    }
                ],
                "rlp": "0xf90260f901f8a0eecd26a8ec6f9de625bccec2cb697f7a243ac29eaf129b054066f11e3bee0cd4a01dcc4de8dec75d7aab85b567b6ccd41ad312451b948a7413f0a142fd40d49347942adc25665018aa1fe0e6bc666dac8fc2697ff9baa075c02a38959c2a424eb0291fb11d74ea3c935a2c4083ba446789d8bdbc3c9c26a04c11f37f6b8671b3bbb1b17eec51c7d3e7ec18c21910e3b298d65cf77ca07893a0f458d6fa06909419e5d32a0c041a16aa19731e0b12288a7f5dfe51524f2bfe79b901000000000000000000000000000000000000000000000000000000000000000000000000000000000000000000000000000000000000000000000000000000000000000000000000000000000000000000000000000000000000000000000000000000000000000000000000000000000000000000000000000000000000000000000000000000000000000000000000000000000000000000000000000000000000000000000000000000000000000000000000000000000000000000000000000000000000000000000000000000000000000000000000000000000000000000000000000000000000000000000000000000000000000000000000000000000083020000018407270e00827e9c8203e800a00000000000000000000000000000000000000000000000000000000000000000880000000000000000f862f860800a830186a0949b5962eba47fd886ebfcf12678a6e0af53295a2b808026a0709752f74fb5e2df242c29fd41d3f0dd0a3be95107b8401d54a4866138bdb6faa04e539644614a6f2856ec09bc9caa7da9a2492df6d2462b17c751e82b3dccc357c0",
                "blocknumber": "1"
            }
        ],
        "sealEngine": "NoProof",
        "_info": {
            "hash": "0x7e4359365ef6b5b7f4e4442da51ae292bc66302af79a779fb321867235e1385d",
            "fixture-format": "blockchain_test",
            "comment": "`execution-specs` generated test",
            "filling-transition-tool": "2.19.0",
            "description": "Test EXTCODEHASH/EXTCODESIZE of a codeless account that has storage.\n\nAll three variants are non-empty per EIP-161 (non-zero balance or nonce),\nso EXTCODEHASH returns keccak256(\"\") and EXTCODESIZE returns 0.\nStorage is not part of the EIP-161 emptiness check.",
            "url": "https://github.com/ethereum/execution-specs/blob/tests-bal@v5.6.0/tests/constantinople/eip1052_extcodehash/test_extcodehash.py#L366",
            "metadata": {
                "opcode_count": {}
            },
            "reference-spec": "https://github.com/ethereum/EIPs/blob/master/EIPS/eip-1052.md",
            "reference-spec-version": "2dcbc7ce1563e9624e137e9d447374600af876fa"
        }
    }
}