{
    "tests/constantinople/eip1052_extcodehash/test_extcodehash.py::test_extcodehash_after_selfdestruct[fork_Istanbul-blockchain_test_from_state_test-create2]": {
        "network": "Istanbul",
        "genesisBlockHeader": {
            "parentHash": "0x0000000000000000000000000000000000000000000000000000000000000000",
            "uncleHash": "0x1dcc4de8dec75d7aab85b567b6ccd41ad312451b948a7413f0a142fd40d49347",
            "coinbase": "0x0000000000000000000000000000000000000000",
            "stateRoot": "0x9e2fdf39992380b8f727f111b0f7ad0689561a9617cb049818deb585725894ab",
            "transactionsTrie": "0x56e81f171bcc55a6ff8345e692c0f86e5b48e01b996cadc001622fb5e363b421",
            "receiptTrie": "0x56e81f171bcc55a6ff8345e692c0f86e5b48e01b996cadc001622fb5e363b421",
            "bloom": "0x00000000000000000000000000000000000000000000000000000000000000000000000000000000000000000000000000000000000000000000000000000000000000000000000000000000000000000000000000000000000000000000000000000000000000000000000000000000000000000000000000000000000000000000000000000000000000000000000000000000000000000000000000000000000000000000000000000000000000000000000000000000000000000000000000000000000000000000000000000000000000000000000000000000000000000000000000000000000000000000000000000000000000000000000000000000",
            "difficulty": "0x020000",
            "number": "0x00",
            "gasLimit": "0x07270e00",
            "gasUsed": "0x00",
            "timestamp": "0x00",
            "extraData": "0x00",
            "mixHash": "0x0000000000000000000000000000000000000000000000000000000000000000",
            "nonce": "0x0000000000000000",
            "hash": "0x958e94f0ef33a5be0c49360c88c244ec3a767d67c7f86aa1f2429d582c5b38e0"
        },
        "pre": {
            "0x41a518d831226e823f596a55c095b9d7bc73f8ff": {
                "nonce": "0x01",
                "balance": "0x00",
                "code": "0x7f610002600081600b8239f332ff000000000000000000000000000000000000006000526000600d60006000f56000556000543f6001556000543b60025560006000526002600060006000543c60005160035560006000600060006000600054620186a0f1506000543f6004556000543b60055560006000526002600060006000543c600051600655",
                "storage": {
                    "0x00": "0xba5e"
                }
            },
            "0x1ad9bc24818784172ff393bb6f89f094d4d2ca29": {
                "nonce": "0x00",
                "balance": "0x3635c9adc5dea00000",
                "code": "0x",
                "storage": {}
            }
        },
        "postState": {
            "0x41a518d831226e823f596a55c095b9d7bc73f8ff": {
                "nonce": "0x02",
                "balance": "0x00",
                "code": "0x7f610002600081600b8239f332ff000000000000000000000000000000000000006000526000600d60006000f56000556000543f6001556000543b60025560006000526002600060006000543c60005160035560006000600060006000600054620186a0f1506000543f6004556000543b60055560006000526002600060006000543c600051600655",
                "storage": {
                    "0x00": "0x7575a1682d901310b571843daa185b1823a2d31d",
                    "0x01": "0x3a6ca0f2fdba9798ec7350fb5106f9dd4102ec04a5cbd39ec60cd921c3d7af06",
                    "0x02": "0x02",
                    "0x03": "0x32ff000000000000000000000000000000000000000000000000000000000000",
                    "0x04": "0x3a6ca0f2fdba9798ec7350fb5106f9dd4102ec04a5cbd39ec60cd921c3d7af06",
                    "0x05": "0x02",
                    "0x06": "0x32ff000000000000000000000000000000000000000000000000000000000000"
                }
            },
            "0x1ad9bc24818784172ff393bb6f89f094d4d2ca29": {
                "nonce": "0x01",
                "balance": "0x3635c9adc5de860c90",
                "code": "0x",
                "storage": {}
            },
            "0x2adc25665018aa1fe0e6bc666dac8fc2697ff9ba": {
                "nonce": "0x00",
                "balance": "0x1bc16d674ee1f370",
                "code": "0x",
                "storage": {}
            }
        },
        "lastblockhash": "0x6065296c8afe2f8b1271544d343cb60f462d7c9709888e0a4338bbe2c9c80e93",
        "config": {
            "network": "Istanbul",
            "chainid": "0x01"
        },
        "genesisRLP": "0xf901f9f901f4a00000000000000000000000000000000000000000000000000000000000000000a01dcc4de8dec75d7aab85b567b6ccd41ad312451b948a7413f0a142fd40d49347940000000000000000000000000000000000000000a09e2fdf39992380b8f727f111b0f7ad0689561a9617cb049818deb585725894aba056e81f171bcc55a6ff8345e692c0f86e5b48e01b996cadc001622fb5e363b421a056e81f171bcc55a6ff8345e692c0f86e5b48e01b996cadc001622fb5e363b421b901000000000000000000000000000000000000000000000000000000000000000000000000000000000000000000000000000000000000000000000000000000000000000000000000000000000000000000000000000000000000000000000000000000000000000000000000000000000000000000000000000000000000000000000000000000000000000000000000000000000000000000000000000000000000000000000000000000000000000000000000000000000000000000000000000000000000000000000000000000000000000000000000000000000000000000000000000000000000000000000000000000000000000000000000000000000083020000808407270e00808000a00000000000000000000000000000000000000000000000000000000000000000880000000000000000c0c0",
        "blocks": [
            {
                "blockHeader": {
                    "parentHash": "0x958e94f0ef33a5be0c49360c88c244ec3a767d67c7f86aa1f2429d582c5b38e0",
                    "uncleHash": "0x1dcc4de8dec75d7aab85b567b6ccd41ad312451b948a7413f0a142fd40d49347",
                    "coinbase": "0x2adc25665018aa1fe0e6bc666dac8fc2697ff9ba",
                    "stateRoot": "0x0ce287df72e1f5f7801d8f1467e6d96920419ba7526ffc75c5c3d60ce364a30d",
                    "transactionsTrie": "0xdd7d1199043d3430a534b9ba35c57d265c082f5e60510ac795850d058ff27dee",
                    "receiptTrie": "0x9c470976c65856d8057c489ba38dc8766fbb2aff8c354982e13a21f4bdd621af",
                    "bloom": "0x00000000000000000000000000000000000000000000000000000000000000000000000000000000000000000000000000000000000000000000000000000000000000000000000000000000000000000000000000000000000000000000000000000000000000000000000000000000000000000000000000000000000000000000000000000000000000000000000000000000000000000000000000000000000000000000000000000000000000000000000000000000000000000000000000000000000000000000000000000000000000000000000000000000000000000000000000000000000000000000000000000000000000000000000000000000",
                    "difficulty": "0x020000",
                    "number": "0x01",
                    "gasLimit": "0x07270e00",
                    "gasUsed": "0x029858",
                    "timestamp": "0x03e8",
                    "extraData": "0x00",
                    "mixHash": "0x0000000000000000000000000000000000000000000000000000000000000000",
                    "nonce": "0x0000000000000000",
                    "hash": "0x6065296c8afe2f8b1271544d343cb60f462d7c9709888e0a4338bbe2c9c80e93"
                },
                "transactions": [
                    {
                        "type": "0x00",
                        "chainId": "0x01",
                        "nonce": "0x00",
                        "gasPrice": "0x0a",
                        "gasLimit": "0x061a80",
                        "to": "0x41a518d831226e823f596a55c095b9d7bc73f8ff",
                        "value": "0x00",
                        "data": "0x",
                        "v": "0x25",
                        "r": "0x096f47ad3a4e2b1a188c4810bb95214fb1bf56ee5fd2214b92a63955074e94b1",
                        "s": "0x03c4be38a3b46974e995642003c894b1514b06efb0651b1bf95216fdf4a75ef2",
                        "sender": "0x1ad9bc24818784172ff393bb6f89f094d4d2ca29"
                    }
                ],
                "uncleHeaders": [],
                "receipts": [
                    {
                        "transactionHash": "0xa8aa3e0f2c1799d1d10c98254f06b5515aee2190309f113cf2a9da10186dca52",
                        "type": "0x00",
                        "cumulativeGasUsed": "0x029858",
                        "bloom": "0x00000000000000000000000000000000000000000000000000000000000000000000000000000000000000000000000000000000000000000000000000000000000000000000000000000000000000000000000000000000000000000000000000000000000000000000000000000000000000000000000000000000000000000000000000000000000000000000000000000000000000000000000000000000000000000000000000000000000000000000000000000000000000000000000000000000000000000000000000000000000000000000000000000000000000000000000000000000000000000000000000000000000000000000000000000000",
                        "logs": [],
                        "status": true,
                        "rlp": "0xf901090183029858b9010000000000000000000000000000000000000000000000000000000000000000000000000000000000000000000000000000000000000000000000000000000000000000000000000000000000000000000000000000000000000000000000000000000000000000000000000000000000000000000000000000000000000000000000000000000000000000000000000000000000000000000000000000000000000000000000000000000000000000000000000000000000000000000000000000000000000000000000000000000000000000000000000000000000000000000000000000000000000000000000000000000000000000000000000000000000c0"
                    }
                ],
                "rlp": "0xf90261f901f9a0958e94f0ef33a5be0c49360c88c244ec3a767d67c7f86aa1f2429d582c5b38e0a01dcc4de8dec75d7aab85b567b6ccd41ad312451b948a7413f0a142fd40d49347942adc25665018aa1fe0e6bc666dac8fc2697ff9baa00ce287df72e1f5f7801d8f1467e6d96920419ba7526ffc75c5c3d60ce364a30da0dd7d1199043d3430a534b9ba35c57d265c082f5e60510ac795850d058ff27deea09c470976c65856d8057c489ba38dc8766fbb2aff8c354982e13a21f4bdd621afb901000000000000000000000000000000000000000000000000000000000000000000000000000000000000000000000000000000000000000000000000000000000000000000000000000000000000000000000000000000000000000000000000000000000000000000000000000000000000000000000000000000000000000000000000000000000000000000000000000000000000000000000000000000000000000000000000000000000000000000000000000000000000000000000000000000000000000000000000000000000000000000000000000000000000000000000000000000000000000000000000000000000000000000000000000000000083020000018407270e00830298588203e800a00000000000000000000000000000000000000000000000000000000000000000880000000000000000f862f860800a83061a809441a518d831226e823f596a55c095b9d7bc73f8ff808025a0096f47ad3a4e2b1a188c4810bb95214fb1bf56ee5fd2214b92a63955074e94b1a003c4be38a3b46974e995642003c894b1514b06efb0651b1bf95216fdf4a75ef2c0",
                "blocknumber": "1"
            }
        ],
        "sealEngine": "NoProof",
        "_info": {
            "hash": "0xb7c32710f10afe6e7cc91b44ea61fa1d81d3a2b75b30e8201cc5bb4c3e99d26c",
            "fixture-format": "blockchain_test",
            "comment": "`execution-specs` generated test",
            "filling-transition-tool": "2.19.0",
            "description": "Test EXTCODEHASH/EXTCODESIZE/EXTCODECOPY before and after SELFDESTRUCT.\n\nVerifies that code hash, size, and copied code remain unchanged\nwithin the transaction after SELFDESTRUCT is triggered.\nPre-Cancun, all selfdestructed accounts are deleted. From Cancun\n(EIP-6780), only accounts created in the same transaction are\ndeleted; pre-existing accounts persist with balance drained.",
            "url": "https://github.com/ethereum/execution-specs/blob/tests-sn\u00f8bal-devnet-4@v1.0.0/tests/constantinople/eip1052_extcodehash/test_extcodehash.py#L777",
            "metadata": {
                "opcode_count": {}
            },
            "reference-spec": "https://github.com/ethereum/EIPs/blob/master/EIPS/eip-1052.md",
            "reference-spec-version": "2dcbc7ce1563e9624e137e9d447374600af876fa"
        }
    },
    "tests/constantinople/eip1052_extcodehash/test_extcodehash.py::test_extcodehash_after_selfdestruct[fork_Istanbul-blockchain_test_from_state_test-create]": {
        "network": "Istanbul",
        "genesisBlockHeader": {
            "parentHash": "0x0000000000000000000000000000000000000000000000000000000000000000",
            "uncleHash": "0x1dcc4de8dec75d7aab85b567b6ccd41ad312451b948a7413f0a142fd40d49347",
            "coinbase": "0x0000000000000000000000000000000000000000",
            "stateRoot": "0xe3d7b455d825946d9a93f4073ebe5a9b3b5dcbc7e6a47bf4952e93994fbd7ca3",
            "transactionsTrie": "0x56e81f171bcc55a6ff8345e692c0f86e5b48e01b996cadc001622fb5e363b421",
            "receiptTrie": "0x56e81f171bcc55a6ff8345e692c0f86e5b48e01b996cadc001622fb5e363b421",
            "bloom": "0x00000000000000000000000000000000000000000000000000000000000000000000000000000000000000000000000000000000000000000000000000000000000000000000000000000000000000000000000000000000000000000000000000000000000000000000000000000000000000000000000000000000000000000000000000000000000000000000000000000000000000000000000000000000000000000000000000000000000000000000000000000000000000000000000000000000000000000000000000000000000000000000000000000000000000000000000000000000000000000000000000000000000000000000000000000000",
            "difficulty": "0x020000",
            "number": "0x00",
            "gasLimit": "0x07270e00",
            "gasUsed": "0x00",
            "timestamp": "0x00",
            "extraData": "0x00",
            "mixHash": "0x0000000000000000000000000000000000000000000000000000000000000000",
            "nonce": "0x0000000000000000",
            "hash": "0x20d465de285650549e46e87700b8abe4e1338f9f29a4dfd63b70ac361136049b"
        },
        "pre": {
            "0xe7186ea0c9fd562f61de9fc9a27b47cabad7894a": {
                "nonce": "0x01",
                "balance": "0x00",
                "code": "0x7f610002600081600b8239f332ff00000000000000000000000000000000000000600052600d60006000f06000556000543f6001556000543b60025560006000526002600060006000543c60005160035560006000600060006000600054620186a0f1506000543f6004556000543b60055560006000526002600060006000543c600051600655",
                "storage": {
                    "0x00": "0xba5e"
                }
            },
            "0x1ad9bc24818784172ff393bb6f89f094d4d2ca29": {
                "nonce": "0x00",
                "balance": "0x3635c9adc5dea00000",
                "code": "0x",
                "storage": {}
            }
        },
        "postState": {
            "0xe7186ea0c9fd562f61de9fc9a27b47cabad7894a": {
                "nonce": "0x02",
                "balance": "0x00",
                "code": "0x7f610002600081600b8239f332ff00000000000000000000000000000000000000600052600d60006000f06000556000543f6001556000543b60025560006000526002600060006000543c60005160035560006000600060006000600054620186a0f1506000543f6004556000543b60055560006000526002600060006000543c600051600655",
                "storage": {
                    "0x00": "0xdbfe21295c375d2a148ba776410ff63e09ac78b5",
                    "0x01": "0x3a6ca0f2fdba9798ec7350fb5106f9dd4102ec04a5cbd39ec60cd921c3d7af06",
                    "0x02": "0x02",
                    "0x03": "0x32ff000000000000000000000000000000000000000000000000000000000000",
                    "0x04": "0x3a6ca0f2fdba9798ec7350fb5106f9dd4102ec04a5cbd39ec60cd921c3d7af06",
                    "0x05": "0x02",
                    "0x06": "0x32ff000000000000000000000000000000000000000000000000000000000000"
                }
            },
            "0x1ad9bc24818784172ff393bb6f89f094d4d2ca29": {
                "nonce": "0x01",
                "balance": "0x3635c9adc5de860cea",
                "code": "0x",
                "storage": {}
            },
            "0x2adc25665018aa1fe0e6bc666dac8fc2697ff9ba": {
                "nonce": "0x00",
                "balance": "0x1bc16d674ee1f316",
                "code": "0x",
                "storage": {}
            }
        },
        "lastblockhash": "0xf7b185a4f015e90e0406eb8a26cd58c12a19d71dfd9d7c4f58bd2e68b58a5d5f",
        "config": {
            "network": "Istanbul",
            "chainid": "0x01"
        },
        "genesisRLP": "0xf901f9f901f4a00000000000000000000000000000000000000000000000000000000000000000a01dcc4de8dec75d7aab85b567b6ccd41ad312451b948a7413f0a142fd40d49347940000000000000000000000000000000000000000a0e3d7b455d825946d9a93f4073ebe5a9b3b5dcbc7e6a47bf4952e93994fbd7ca3a056e81f171bcc55a6ff8345e692c0f86e5b48e01b996cadc001622fb5e363b421a056e81f171bcc55a6ff8345e692c0f86e5b48e01b996cadc001622fb5e363b421b901000000000000000000000000000000000000000000000000000000000000000000000000000000000000000000000000000000000000000000000000000000000000000000000000000000000000000000000000000000000000000000000000000000000000000000000000000000000000000000000000000000000000000000000000000000000000000000000000000000000000000000000000000000000000000000000000000000000000000000000000000000000000000000000000000000000000000000000000000000000000000000000000000000000000000000000000000000000000000000000000000000000000000000000000000000000083020000808407270e00808000a00000000000000000000000000000000000000000000000000000000000000000880000000000000000c0c0",
        "blocks": [
            {
                "blockHeader": {
                    "parentHash": "0x20d465de285650549e46e87700b8abe4e1338f9f29a4dfd63b70ac361136049b",
                    "uncleHash": "0x1dcc4de8dec75d7aab85b567b6ccd41ad312451b948a7413f0a142fd40d49347",
                    "coinbase": "0x2adc25665018aa1fe0e6bc666dac8fc2697ff9ba",
                    "stateRoot": "0xe0099d34f451a6cdbb0d955f681dd9663a7ab3d39fe183fa8d32c3dfe3cc625f",
                    "transactionsTrie": "0xd47f2c0141e002b28928c1b1612677550470d981b5a989fa01d159b6ba28813f",
                    "receiptTrie": "0x0a2ec973abd1628ffb79ca8b3225260cdcd86dbbd2adb12321533b6b19ef9625",
                    "bloom": "0x00000000000000000000000000000000000000000000000000000000000000000000000000000000000000000000000000000000000000000000000000000000000000000000000000000000000000000000000000000000000000000000000000000000000000000000000000000000000000000000000000000000000000000000000000000000000000000000000000000000000000000000000000000000000000000000000000000000000000000000000000000000000000000000000000000000000000000000000000000000000000000000000000000000000000000000000000000000000000000000000000000000000000000000000000000000",
                    "difficulty": "0x020000",
                    "number": "0x01",
                    "gasLimit": "0x07270e00",
                    "gasUsed": "0x02984f",
                    "timestamp": "0x03e8",
                    "extraData": "0x00",
                    "mixHash": "0x0000000000000000000000000000000000000000000000000000000000000000",
                    "nonce": "0x0000000000000000",
                    "hash": "0xf7b185a4f015e90e0406eb8a26cd58c12a19d71dfd9d7c4f58bd2e68b58a5d5f"
                },
                "transactions": [
                    {
                        "type": "0x00",
                        "chainId": "0x01",
                        "nonce": "0x00",
                        "gasPrice": "0x0a",
                        "gasLimit": "0x061a80",
                        "to": "0xe7186ea0c9fd562f61de9fc9a27b47cabad7894a",
                        "value": "0x00",
                        "data": "0x",
                        "v": "0x25",
                        "r": "0xcabf69f9cd212782574b1d47ce1836c50cb6f0ee4b3586835f35633ef3a040c6",
                        "s": "0x7382480f797cbae79015b8d88af35eab1cd67136e57ea2dd6f88ced1acb43f31",
                        "sender": "0x1ad9bc24818784172ff393bb6f89f094d4d2ca29"
                    }
                ],
                "uncleHeaders": [],
                "receipts": [
                    {
                        "transactionHash": "0xbb14652bf022028d1542d4fb477db0e33daa092558d08404309ca6f0210d9439",
                        "type": "0x00",
                        "cumulativeGasUsed": "0x02984f",
                        "bloom": "0x00000000000000000000000000000000000000000000000000000000000000000000000000000000000000000000000000000000000000000000000000000000000000000000000000000000000000000000000000000000000000000000000000000000000000000000000000000000000000000000000000000000000000000000000000000000000000000000000000000000000000000000000000000000000000000000000000000000000000000000000000000000000000000000000000000000000000000000000000000000000000000000000000000000000000000000000000000000000000000000000000000000000000000000000000000000",
                        "logs": [],
                        "status": true,
                        "rlp": "0xf90109018302984fb9010000000000000000000000000000000000000000000000000000000000000000000000000000000000000000000000000000000000000000000000000000000000000000000000000000000000000000000000000000000000000000000000000000000000000000000000000000000000000000000000000000000000000000000000000000000000000000000000000000000000000000000000000000000000000000000000000000000000000000000000000000000000000000000000000000000000000000000000000000000000000000000000000000000000000000000000000000000000000000000000000000000000000000000000000000000000c0"
                    }
                ],
                "rlp": "0xf90261f901f9a020d465de285650549e46e87700b8abe4e1338f9f29a4dfd63b70ac361136049ba01dcc4de8dec75d7aab85b567b6ccd41ad312451b948a7413f0a142fd40d49347942adc25665018aa1fe0e6bc666dac8fc2697ff9baa0e0099d34f451a6cdbb0d955f681dd9663a7ab3d39fe183fa8d32c3dfe3cc625fa0d47f2c0141e002b28928c1b1612677550470d981b5a989fa01d159b6ba28813fa00a2ec973abd1628ffb79ca8b3225260cdcd86dbbd2adb12321533b6b19ef9625b901000000000000000000000000000000000000000000000000000000000000000000000000000000000000000000000000000000000000000000000000000000000000000000000000000000000000000000000000000000000000000000000000000000000000000000000000000000000000000000000000000000000000000000000000000000000000000000000000000000000000000000000000000000000000000000000000000000000000000000000000000000000000000000000000000000000000000000000000000000000000000000000000000000000000000000000000000000000000000000000000000000000000000000000000000000000083020000018407270e008302984f8203e800a00000000000000000000000000000000000000000000000000000000000000000880000000000000000f862f860800a83061a8094e7186ea0c9fd562f61de9fc9a27b47cabad7894a808025a0cabf69f9cd212782574b1d47ce1836c50cb6f0ee4b3586835f35633ef3a040c6a07382480f797cbae79015b8d88af35eab1cd67136e57ea2dd6f88ced1acb43f31c0",
                "blocknumber": "1"
            }
        ],
        "sealEngine": "NoProof",
        "_info": {
            "hash": "0x996ce4e64f36653192518fd97cff838404c67c6f875a599eb626ed3801e790b0",
            "fixture-format": "blockchain_test",
            "comment": "`execution-specs` generated test",
            "filling-transition-tool": "2.19.0",
            "description": "Test EXTCODEHASH/EXTCODESIZE/EXTCODECOPY before and after SELFDESTRUCT.\n\nVerifies that code hash, size, and copied code remain unchanged\nwithin the transaction after SELFDESTRUCT is triggered.\nPre-Cancun, all selfdestructed accounts are deleted. From Cancun\n(EIP-6780), only accounts created in the same transaction are\ndeleted; pre-existing accounts persist with balance drained.",
            "url": "https://github.com/ethereum/execution-specs/blob/tests-sn\u00f8bal-devnet-4@v1.0.0/tests/constantinople/eip1052_extcodehash/test_extcodehash.py#L777",
            "metadata": {
                "opcode_count": {}
            },
            "reference-spec": "https://github.com/ethereum/EIPs/blob/master/EIPS/eip-1052.md",
            "reference-spec-version": "2dcbc7ce1563e9624e137e9d447374600af876fa"
        }
    },
    "tests/constantinople/eip1052_extcodehash/test_extcodehash.py::test_extcodehash_after_selfdestruct[fork_Istanbul-blockchain_test_from_state_test-pre_existing]": {
        "network": "Istanbul",
        "genesisBlockHeader": {
            "parentHash": "0x0000000000000000000000000000000000000000000000000000000000000000",
            "uncleHash": "0x1dcc4de8dec75d7aab85b567b6ccd41ad312451b948a7413f0a142fd40d49347",
            "coinbase": "0x0000000000000000000000000000000000000000",
            "stateRoot": "0x50d8a7f925a9486e8a2ccc79a1f18840768e39609d7f105a415fddcdf286a107",
            "transactionsTrie": "0x56e81f171bcc55a6ff8345e692c0f86e5b48e01b996cadc001622fb5e363b421",
            "receiptTrie": "0x56e81f171bcc55a6ff8345e692c0f86e5b48e01b996cadc001622fb5e363b421",
            "bloom": "0x00000000000000000000000000000000000000000000000000000000000000000000000000000000000000000000000000000000000000000000000000000000000000000000000000000000000000000000000000000000000000000000000000000000000000000000000000000000000000000000000000000000000000000000000000000000000000000000000000000000000000000000000000000000000000000000000000000000000000000000000000000000000000000000000000000000000000000000000000000000000000000000000000000000000000000000000000000000000000000000000000000000000000000000000000000000",
            "difficulty": "0x020000",
            "number": "0x00",
            "gasLimit": "0x07270e00",
            "gasUsed": "0x00",
            "timestamp": "0x00",
            "extraData": "0x00",
            "mixHash": "0x0000000000000000000000000000000000000000000000000000000000000000",
            "nonce": "0x0000000000000000",
            "hash": "0x62ddabd6dfea63a99761ca270a6251d5e67ea9769dea70d3035801bd141d7f49"
        },
        "pre": {
            "0x4e79bc2cd8a7eb5b08159b6d1c42d2b768d9fefd": {
                "nonce": "0x01",
                "balance": "0x01",
                "code": "0x32ff",
                "storage": {}
            },
            "0x8efc5703232bdedd935b8c5723760398fbae28a6": {
                "nonce": "0x01",
                "balance": "0x00",
                "code": "0x734e79bc2cd8a7eb5b08159b6d1c42d2b768d9fefd3f600055734e79bc2cd8a7eb5b08159b6d1c42d2b768d9fefd3b6001556000600052600260006000734e79bc2cd8a7eb5b08159b6d1c42d2b768d9fefd3c60005160025560006000600060006000734e79bc2cd8a7eb5b08159b6d1c42d2b768d9fefd620186a0f150734e79bc2cd8a7eb5b08159b6d1c42d2b768d9fefd3f600355734e79bc2cd8a7eb5b08159b6d1c42d2b768d9fefd3b6004556000600052600260006000734e79bc2cd8a7eb5b08159b6d1c42d2b768d9fefd3c600051600555",
                "storage": {}
            },
            "0x1ad9bc24818784172ff393bb6f89f094d4d2ca29": {
                "nonce": "0x00",
                "balance": "0x3635c9adc5dea00000",
                "code": "0x",
                "storage": {}
            }
        },
        "postState": {
            "0x8efc5703232bdedd935b8c5723760398fbae28a6": {
                "nonce": "0x01",
                "balance": "0x00",
                "code": "0x734e79bc2cd8a7eb5b08159b6d1c42d2b768d9fefd3f600055734e79bc2cd8a7eb5b08159b6d1c42d2b768d9fefd3b6001556000600052600260006000734e79bc2cd8a7eb5b08159b6d1c42d2b768d9fefd3c60005160025560006000600060006000734e79bc2cd8a7eb5b08159b6d1c42d2b768d9fefd620186a0f150734e79bc2cd8a7eb5b08159b6d1c42d2b768d9fefd3f600355734e79bc2cd8a7eb5b08159b6d1c42d2b768d9fefd3b6004556000600052600260006000734e79bc2cd8a7eb5b08159b6d1c42d2b768d9fefd3c600051600555",
                "storage": {
                    "0x00": "0x3a6ca0f2fdba9798ec7350fb5106f9dd4102ec04a5cbd39ec60cd921c3d7af06",
                    "0x01": "0x02",
                    "0x02": "0x32ff000000000000000000000000000000000000000000000000000000000000",
                    "0x03": "0x3a6ca0f2fdba9798ec7350fb5106f9dd4102ec04a5cbd39ec60cd921c3d7af06",
                    "0x04": "0x02",
                    "0x05": "0x32ff000000000000000000000000000000000000000000000000000000000000"
                }
            },
            "0x1ad9bc24818784172ff393bb6f89f094d4d2ca29": {
                "nonce": "0x01",
                "balance": "0x3635c9adc5de8c9e5d",
                "code": "0x",
                "storage": {}
            },
            "0x2adc25665018aa1fe0e6bc666dac8fc2697ff9ba": {
                "nonce": "0x00",
                "balance": "0x1bc16d674edb61a4",
                "code": "0x",
                "storage": {}
            }
        },
        "lastblockhash": "0xdb3847acdb916d4beea380d19f7b4f5ca883dd8975dd1be16d0b76f6b7e0b816",
        "config": {
            "network": "Istanbul",
            "chainid": "0x01"
        },
        "genesisRLP": "0xf901f9f901f4a00000000000000000000000000000000000000000000000000000000000000000a01dcc4de8dec75d7aab85b567b6ccd41ad312451b948a7413f0a142fd40d49347940000000000000000000000000000000000000000a050d8a7f925a9486e8a2ccc79a1f18840768e39609d7f105a415fddcdf286a107a056e81f171bcc55a6ff8345e692c0f86e5b48e01b996cadc001622fb5e363b421a056e81f171bcc55a6ff8345e692c0f86e5b48e01b996cadc001622fb5e363b421b901000000000000000000000000000000000000000000000000000000000000000000000000000000000000000000000000000000000000000000000000000000000000000000000000000000000000000000000000000000000000000000000000000000000000000000000000000000000000000000000000000000000000000000000000000000000000000000000000000000000000000000000000000000000000000000000000000000000000000000000000000000000000000000000000000000000000000000000000000000000000000000000000000000000000000000000000000000000000000000000000000000000000000000000000000000000083020000808407270e00808000a00000000000000000000000000000000000000000000000000000000000000000880000000000000000c0c0",
        "blocks": [
            {
                "blockHeader": {
                    "parentHash": "0x62ddabd6dfea63a99761ca270a6251d5e67ea9769dea70d3035801bd141d7f49",
                    "uncleHash": "0x1dcc4de8dec75d7aab85b567b6ccd41ad312451b948a7413f0a142fd40d49347",
                    "coinbase": "0x2adc25665018aa1fe0e6bc666dac8fc2697ff9ba",
                    "stateRoot": "0xca3be5812926596a6e99f7931a80ad4140115cf9a16d3cba1476a91986e1f18d",
                    "transactionsTrie": "0x6583104a9b7e3be81efdb2d54e2fe43197debe56a2484b8078995806f080a4b9",
                    "receiptTrie": "0x2367ad65bc636c26bdb9f6dce2aa17ef7e34579f8fbc0f30ae5dcc37e69e177b",
                    "bloom": "0x00000000000000000000000000000000000000000000000000000000000000000000000000000000000000000000000000000000000000000000000000000000000000000000000000000000000000000000000000000000000000000000000000000000000000000000000000000000000000000000000000000000000000000000000000000000000000000000000000000000000000000000000000000000000000000000000000000000000000000000000000000000000000000000000000000000000000000000000000000000000000000000000000000000000000000000000000000000000000000000000000000000000000000000000000000000",
                    "difficulty": "0x020000",
                    "number": "0x01",
                    "gasLimit": "0x07270e00",
                    "gasUsed": "0x01f02a",
                    "timestamp": "0x03e8",
                    "extraData": "0x00",
                    "mixHash": "0x0000000000000000000000000000000000000000000000000000000000000000",
                    "nonce": "0x0000000000000000",
                    "hash": "0xdb3847acdb916d4beea380d19f7b4f5ca883dd8975dd1be16d0b76f6b7e0b816"
                },
                "transactions": [
                    {
                        "type": "0x00",
                        "chainId": "0x01",
                        "nonce": "0x00",
                        "gasPrice": "0x0a",
                        "gasLimit": "0x061a80",
                        "to": "0x8efc5703232bdedd935b8c5723760398fbae28a6",
                        "value": "0x00",
                        "data": "0x",
                        "v": "0x25",
                        "r": "0x03789eaaa85adefd28f08c9b7767cc7d4a654db0d6eba18751b9606ad60b5de3",
                        "s": "0x04318cee105bdfe55ad94e4f59793281581af374cd0f4a15fbbf77f951bb85da",
                        "sender": "0x1ad9bc24818784172ff393bb6f89f094d4d2ca29"
                    }
                ],
                "uncleHeaders": [],
                "receipts": [
                    {
                        "transactionHash": "0xec98bfc5b531bf7c7466ac95f1a545c1165f9384ceb2ff27ea01fdb787a0fe5f",
                        "type": "0x00",
                        "cumulativeGasUsed": "0x01f02a",
                        "bloom": "0x00000000000000000000000000000000000000000000000000000000000000000000000000000000000000000000000000000000000000000000000000000000000000000000000000000000000000000000000000000000000000000000000000000000000000000000000000000000000000000000000000000000000000000000000000000000000000000000000000000000000000000000000000000000000000000000000000000000000000000000000000000000000000000000000000000000000000000000000000000000000000000000000000000000000000000000000000000000000000000000000000000000000000000000000000000000",
                        "logs": [],
                        "status": true,
                        "rlp": "0xf90109018301f02ab9010000000000000000000000000000000000000000000000000000000000000000000000000000000000000000000000000000000000000000000000000000000000000000000000000000000000000000000000000000000000000000000000000000000000000000000000000000000000000000000000000000000000000000000000000000000000000000000000000000000000000000000000000000000000000000000000000000000000000000000000000000000000000000000000000000000000000000000000000000000000000000000000000000000000000000000000000000000000000000000000000000000000000000000000000000000000c0"
                    }
                ],
                "rlp": "0xf90261f901f9a062ddabd6dfea63a99761ca270a6251d5e67ea9769dea70d3035801bd141d7f49a01dcc4de8dec75d7aab85b567b6ccd41ad312451b948a7413f0a142fd40d49347942adc25665018aa1fe0e6bc666dac8fc2697ff9baa0ca3be5812926596a6e99f7931a80ad4140115cf9a16d3cba1476a91986e1f18da06583104a9b7e3be81efdb2d54e2fe43197debe56a2484b8078995806f080a4b9a02367ad65bc636c26bdb9f6dce2aa17ef7e34579f8fbc0f30ae5dcc37e69e177bb901000000000000000000000000000000000000000000000000000000000000000000000000000000000000000000000000000000000000000000000000000000000000000000000000000000000000000000000000000000000000000000000000000000000000000000000000000000000000000000000000000000000000000000000000000000000000000000000000000000000000000000000000000000000000000000000000000000000000000000000000000000000000000000000000000000000000000000000000000000000000000000000000000000000000000000000000000000000000000000000000000000000000000000000000000000000083020000018407270e008301f02a8203e800a00000000000000000000000000000000000000000000000000000000000000000880000000000000000f862f860800a83061a80948efc5703232bdedd935b8c5723760398fbae28a6808025a003789eaaa85adefd28f08c9b7767cc7d4a654db0d6eba18751b9606ad60b5de3a004318cee105bdfe55ad94e4f59793281581af374cd0f4a15fbbf77f951bb85dac0",
                "blocknumber": "1"
            }
        ],
        "sealEngine": "NoProof",
        "_info": {
            "hash": "0x3814cfdf666fb2b23dafbee123420a757947600a9130fd9ab644916f4ea6c5b8",
            "fixture-format": "blockchain_test",
            "comment": "`execution-specs` generated test",
            "filling-transition-tool": "2.19.0",
            "description": "Test EXTCODEHASH/EXTCODESIZE/EXTCODECOPY before and after SELFDESTRUCT.\n\nVerifies that code hash, size, and copied code remain unchanged\nwithin the transaction after SELFDESTRUCT is triggered.\nPre-Cancun, all selfdestructed accounts are deleted. From Cancun\n(EIP-6780), only accounts created in the same transaction are\ndeleted; pre-existing accounts persist with balance drained.",
            "url": "https://github.com/ethereum/execution-specs/blob/tests-sn\u00f8bal-devnet-4@v1.0.0/tests/constantinople/eip1052_extcodehash/test_extcodehash.py#L777",
            "metadata": {
                "opcode_count": {}
            },
            "reference-spec": "https://github.com/ethereum/EIPs/blob/master/EIPS/eip-1052.md",
            "reference-spec-version": "2dcbc7ce1563e9624e137e9d447374600af876fa"
        }
    }
}