{
    "tests/constantinople/eip1052_extcodehash/test_extcodehash.py::test_extcodehash_empty_contract_creation[fork_Istanbul-blockchain_test_from_state_test-opcode_CREATE2]": {
        "network": "Istanbul",
        "genesisBlockHeader": {
            "parentHash": "0x0000000000000000000000000000000000000000000000000000000000000000",
            "uncleHash": "0x1dcc4de8dec75d7aab85b567b6ccd41ad312451b948a7413f0a142fd40d49347",
            "coinbase": "0x0000000000000000000000000000000000000000",
            "stateRoot": "0x9a66b0fbf393a637699d3a138998ea9295fce1147aa9aaf2ec1b79a184129c34",
            "transactionsTrie": "0x56e81f171bcc55a6ff8345e692c0f86e5b48e01b996cadc001622fb5e363b421",
            "receiptTrie": "0x56e81f171bcc55a6ff8345e692c0f86e5b48e01b996cadc001622fb5e363b421",
            "bloom": "0x00000000000000000000000000000000000000000000000000000000000000000000000000000000000000000000000000000000000000000000000000000000000000000000000000000000000000000000000000000000000000000000000000000000000000000000000000000000000000000000000000000000000000000000000000000000000000000000000000000000000000000000000000000000000000000000000000000000000000000000000000000000000000000000000000000000000000000000000000000000000000000000000000000000000000000000000000000000000000000000000000000000000000000000000000000000",
            "difficulty": "0x020000",
            "number": "0x00",
            "gasLimit": "0x07270e00",
            "gasUsed": "0x00",
            "timestamp": "0x00",
            "extraData": "0x00",
            "mixHash": "0x0000000000000000000000000000000000000000000000000000000000000000",
            "nonce": "0x0000000000000000",
            "hash": "0x1c22f64c6c4cf56bcb93ab4527a0b7f193b2d71bb60df4ef6568e59b02f38fbf"
        },
        "pre": {
            "0xe2226b47f7b968da2f0d37a6ca5a35009620e9c8": {
                "nonce": "0x01",
                "balance": "0x00",
                "code": "0x7f60006000f30000000000000000000000000000000000000000000000000000006000526000600560006000f56000556000543f6001556000543b6002556020600060006000543c60005160035500",
                "storage": {
                    "0x00": "0xba5e",
                    "0x02": "0xba5e",
                    "0x03": "0xba5e"
                }
            },
            "0x1ad9bc24818784172ff393bb6f89f094d4d2ca29": {
                "nonce": "0x00",
                "balance": "0x3635c9adc5dea00000",
                "code": "0x",
                "storage": {}
            }
        },
        "postState": {
            "0xe2226b47f7b968da2f0d37a6ca5a35009620e9c8": {
                "nonce": "0x02",
                "balance": "0x00",
                "code": "0x7f60006000f30000000000000000000000000000000000000000000000000000006000526000600560006000f56000556000543f6001556000543b6002556020600060006000543c60005160035500",
                "storage": {
                    "0x00": "0x457fe62665285089d01b675f3dcc09dae7188692",
                    "0x01": "0xc5d2460186f7233c927e7db2dcc703c0e500b653ca82273b7bfad8045d85a470"
                }
            },
            "0x1ad9bc24818784172ff393bb6f89f094d4d2ca29": {
                "nonce": "0x01",
                "balance": "0x3635c9adc5de9673aa",
                "code": "0x",
                "storage": {}
            },
            "0x457fe62665285089d01b675f3dcc09dae7188692": {
                "nonce": "0x01",
                "balance": "0x00",
                "code": "0x",
                "storage": {}
            },
            "0x2adc25665018aa1fe0e6bc666dac8fc2697ff9ba": {
                "nonce": "0x00",
                "balance": "0x1bc16d674ed18c56",
                "code": "0x",
                "storage": {}
            }
        },
        "lastblockhash": "0xb6de886ea7361e522edd4d4b1816e018400f9f1d96081155586f2ee99a10c964",
        "config": {
            "network": "Istanbul",
            "chainid": "0x01"
        },
        "genesisRLP": "0xf901f9f901f4a00000000000000000000000000000000000000000000000000000000000000000a01dcc4de8dec75d7aab85b567b6ccd41ad312451b948a7413f0a142fd40d49347940000000000000000000000000000000000000000a09a66b0fbf393a637699d3a138998ea9295fce1147aa9aaf2ec1b79a184129c34a056e81f171bcc55a6ff8345e692c0f86e5b48e01b996cadc001622fb5e363b421a056e81f171bcc55a6ff8345e692c0f86e5b48e01b996cadc001622fb5e363b421b901000000000000000000000000000000000000000000000000000000000000000000000000000000000000000000000000000000000000000000000000000000000000000000000000000000000000000000000000000000000000000000000000000000000000000000000000000000000000000000000000000000000000000000000000000000000000000000000000000000000000000000000000000000000000000000000000000000000000000000000000000000000000000000000000000000000000000000000000000000000000000000000000000000000000000000000000000000000000000000000000000000000000000000000000000000000083020000808407270e00808000a00000000000000000000000000000000000000000000000000000000000000000880000000000000000c0c0",
        "blocks": [
            {
                "blockHeader": {
                    "parentHash": "0x1c22f64c6c4cf56bcb93ab4527a0b7f193b2d71bb60df4ef6568e59b02f38fbf",
                    "uncleHash": "0x1dcc4de8dec75d7aab85b567b6ccd41ad312451b948a7413f0a142fd40d49347",
                    "coinbase": "0x2adc25665018aa1fe0e6bc666dac8fc2697ff9ba",
                    "stateRoot": "0xc9cf7e6462ddc7ca0c8e9c16a3925f7309c9d6a2bc4100c3696188993713b959",
                    "transactionsTrie": "0x6de12a7a04af17ae746d159604bb06bbca94bbca80cf145d916115eab99d0c13",
                    "receiptTrie": "0x782e3b90ab5a738da299bc238d89229819ed86b38cea78cb9801138c60c9ac52",
                    "bloom": "0x00000000000000000000000000000000000000000000000000000000000000000000000000000000000000000000000000000000000000000000000000000000000000000000000000000000000000000000000000000000000000000000000000000000000000000000000000000000000000000000000000000000000000000000000000000000000000000000000000000000000000000000000000000000000000000000000000000000000000000000000000000000000000000000000000000000000000000000000000000000000000000000000000000000000000000000000000000000000000000000000000000000000000000000000000000000",
                    "difficulty": "0x020000",
                    "number": "0x01",
                    "gasLimit": "0x07270e00",
                    "gasUsed": "0xf46f",
                    "timestamp": "0x03e8",
                    "extraData": "0x00",
                    "mixHash": "0x0000000000000000000000000000000000000000000000000000000000000000",
                    "nonce": "0x0000000000000000",
                    "hash": "0xb6de886ea7361e522edd4d4b1816e018400f9f1d96081155586f2ee99a10c964"
                },
                "transactions": [
                    {
                        "type": "0x00",
                        "chainId": "0x01",
                        "nonce": "0x00",
                        "gasPrice": "0x0a",
                        "gasLimit": "0x0f4240",
                        "to": "0xe2226b47f7b968da2f0d37a6ca5a35009620e9c8",
                        "value": "0x00",
                        "data": "0x",
                        "v": "0x26",
                        "r": "0xf48051d42077fb72d672e9be4655972ce823bddc7e241efa6aad6e51b0a23ec3",
                        "s": "0x2729b3fe3cf842ab45a81c7f51f1509eca73e6e353e41beb350a501eae56c682",
                        "sender": "0x1ad9bc24818784172ff393bb6f89f094d4d2ca29"
                    }
                ],
                "uncleHeaders": [],
                "receipts": [
                    {
                        "transactionHash": "0x2ad975fb137b26126fc0b711852ec37a41e0428a47637253dae84a5f1c5b8bea",
                        "type": "0x00",
                        "cumulativeGasUsed": "0xf46f",
                        "bloom": "0x00000000000000000000000000000000000000000000000000000000000000000000000000000000000000000000000000000000000000000000000000000000000000000000000000000000000000000000000000000000000000000000000000000000000000000000000000000000000000000000000000000000000000000000000000000000000000000000000000000000000000000000000000000000000000000000000000000000000000000000000000000000000000000000000000000000000000000000000000000000000000000000000000000000000000000000000000000000000000000000000000000000000000000000000000000000",
                        "logs": [],
                        "status": true,
                        "rlp": "0xf901080182f46fb9010000000000000000000000000000000000000000000000000000000000000000000000000000000000000000000000000000000000000000000000000000000000000000000000000000000000000000000000000000000000000000000000000000000000000000000000000000000000000000000000000000000000000000000000000000000000000000000000000000000000000000000000000000000000000000000000000000000000000000000000000000000000000000000000000000000000000000000000000000000000000000000000000000000000000000000000000000000000000000000000000000000000000000000000000000000000c0"
                    }
                ],
                "rlp": "0xf90260f901f8a01c22f64c6c4cf56bcb93ab4527a0b7f193b2d71bb60df4ef6568e59b02f38fbfa01dcc4de8dec75d7aab85b567b6ccd41ad312451b948a7413f0a142fd40d49347942adc25665018aa1fe0e6bc666dac8fc2697ff9baa0c9cf7e6462ddc7ca0c8e9c16a3925f7309c9d6a2bc4100c3696188993713b959a06de12a7a04af17ae746d159604bb06bbca94bbca80cf145d916115eab99d0c13a0782e3b90ab5a738da299bc238d89229819ed86b38cea78cb9801138c60c9ac52b901000000000000000000000000000000000000000000000000000000000000000000000000000000000000000000000000000000000000000000000000000000000000000000000000000000000000000000000000000000000000000000000000000000000000000000000000000000000000000000000000000000000000000000000000000000000000000000000000000000000000000000000000000000000000000000000000000000000000000000000000000000000000000000000000000000000000000000000000000000000000000000000000000000000000000000000000000000000000000000000000000000000000000000000000000000000083020000018407270e0082f46f8203e800a00000000000000000000000000000000000000000000000000000000000000000880000000000000000f862f860800a830f424094e2226b47f7b968da2f0d37a6ca5a35009620e9c8808026a0f48051d42077fb72d672e9be4655972ce823bddc7e241efa6aad6e51b0a23ec3a02729b3fe3cf842ab45a81c7f51f1509eca73e6e353e41beb350a501eae56c682c0",
                "blocknumber": "1"
            }
        ],
        "sealEngine": "NoProof",
        "_info": {
            "hash": "0x0e53e3e4ec56806480eac02b210de5c2fd536054febd0b55da9b2a32e0eabedc",
            "fixture-format": "blockchain_test",
            "comment": "`execution-specs` generated test",
            "filling-transition-tool": "2.19.0",
            "description": "Test EXTCODEHASH/EXTCODESIZE for empty contracts created with\nCREATE/CREATE2.",
            "url": "https://github.com/ethereum/execution-specs/blob/tests-bal@v5.6.0/tests/constantinople/eip1052_extcodehash/test_extcodehash.py#L291",
            "metadata": {
                "opcode_count": {}
            },
            "reference-spec": "https://github.com/ethereum/EIPs/blob/master/EIPS/eip-1052.md",
            "reference-spec-version": "2dcbc7ce1563e9624e137e9d447374600af876fa"
        }
    },
    "tests/constantinople/eip1052_extcodehash/test_extcodehash.py::test_extcodehash_empty_contract_creation[fork_Istanbul-blockchain_test_from_state_test-opcode_CREATE]": {
        "network": "Istanbul",
        "genesisBlockHeader": {
            "parentHash": "0x0000000000000000000000000000000000000000000000000000000000000000",
            "uncleHash": "0x1dcc4de8dec75d7aab85b567b6ccd41ad312451b948a7413f0a142fd40d49347",
            "coinbase": "0x0000000000000000000000000000000000000000",
            "stateRoot": "0x4c986e03266e8e4dedcd85faf60dba30721c39ade3446eb871c390b517b20383",
            "transactionsTrie": "0x56e81f171bcc55a6ff8345e692c0f86e5b48e01b996cadc001622fb5e363b421",
            "receiptTrie": "0x56e81f171bcc55a6ff8345e692c0f86e5b48e01b996cadc001622fb5e363b421",
            "bloom": "0x00000000000000000000000000000000000000000000000000000000000000000000000000000000000000000000000000000000000000000000000000000000000000000000000000000000000000000000000000000000000000000000000000000000000000000000000000000000000000000000000000000000000000000000000000000000000000000000000000000000000000000000000000000000000000000000000000000000000000000000000000000000000000000000000000000000000000000000000000000000000000000000000000000000000000000000000000000000000000000000000000000000000000000000000000000000",
            "difficulty": "0x020000",
            "number": "0x00",
            "gasLimit": "0x07270e00",
            "gasUsed": "0x00",
            "timestamp": "0x00",
            "extraData": "0x00",
            "mixHash": "0x0000000000000000000000000000000000000000000000000000000000000000",
            "nonce": "0x0000000000000000",
            "hash": "0xa9bc068e74bec713497fde371c3a9175f43fae95dec7cf4d06924e16c2641cde"
        },
        "pre": {
            "0x0143f2db9db6ab9bb3d2629c13996a491f2c8867": {
                "nonce": "0x01",
                "balance": "0x00",
                "code": "0x7f60006000f3000000000000000000000000000000000000000000000000000000600052600560006000f06000556000543f6001556000543b6002556020600060006000543c60005160035500",
                "storage": {
                    "0x00": "0xba5e",
                    "0x02": "0xba5e",
                    "0x03": "0xba5e"
                }
            },
            "0x1ad9bc24818784172ff393bb6f89f094d4d2ca29": {
                "nonce": "0x00",
                "balance": "0x3635c9adc5dea00000",
                "code": "0x",
                "storage": {}
            }
        },
        "postState": {
            "0x0143f2db9db6ab9bb3d2629c13996a491f2c8867": {
                "nonce": "0x02",
                "balance": "0x00",
                "code": "0x7f60006000f3000000000000000000000000000000000000000000000000000000600052600560006000f06000556000543f6001556000543b6002556020600060006000543c60005160035500",
                "storage": {
                    "0x00": "0x3385fb91b73fbdf2ef74bd49db9ec8b5190e7672",
                    "0x01": "0xc5d2460186f7233c927e7db2dcc703c0e500b653ca82273b7bfad8045d85a470"
                }
            },
            "0x1ad9bc24818784172ff393bb6f89f094d4d2ca29": {
                "nonce": "0x01",
                "balance": "0x3635c9adc5de967404",
                "code": "0x",
                "storage": {}
            },
            "0x3385fb91b73fbdf2ef74bd49db9ec8b5190e7672": {
                "nonce": "0x01",
                "balance": "0x00",
                "code": "0x",
                "storage": {}
            },
            "0x2adc25665018aa1fe0e6bc666dac8fc2697ff9ba": {
                "nonce": "0x00",
                "balance": "0x1bc16d674ed18bfc",
                "code": "0x",
                "storage": {}
            }
        },
        "lastblockhash": "0x40705aabe2b0e9a9c9ff3b2886f1a025985b185688320c29e8f0297ad45dbd4b",
        "config": {
            "network": "Istanbul",
            "chainid": "0x01"
        },
        "genesisRLP": "0xf901f9f901f4a00000000000000000000000000000000000000000000000000000000000000000a01dcc4de8dec75d7aab85b567b6ccd41ad312451b948a7413f0a142fd40d49347940000000000000000000000000000000000000000a04c986e03266e8e4dedcd85faf60dba30721c39ade3446eb871c390b517b20383a056e81f171bcc55a6ff8345e692c0f86e5b48e01b996cadc001622fb5e363b421a056e81f171bcc55a6ff8345e692c0f86e5b48e01b996cadc001622fb5e363b421b901000000000000000000000000000000000000000000000000000000000000000000000000000000000000000000000000000000000000000000000000000000000000000000000000000000000000000000000000000000000000000000000000000000000000000000000000000000000000000000000000000000000000000000000000000000000000000000000000000000000000000000000000000000000000000000000000000000000000000000000000000000000000000000000000000000000000000000000000000000000000000000000000000000000000000000000000000000000000000000000000000000000000000000000000000000000083020000808407270e00808000a00000000000000000000000000000000000000000000000000000000000000000880000000000000000c0c0",
        "blocks": [
            {
                "blockHeader": {
                    "parentHash": "0xa9bc068e74bec713497fde371c3a9175f43fae95dec7cf4d06924e16c2641cde",
                    "uncleHash": "0x1dcc4de8dec75d7aab85b567b6ccd41ad312451b948a7413f0a142fd40d49347",
                    "coinbase": "0x2adc25665018aa1fe0e6bc666dac8fc2697ff9ba",
                    "stateRoot": "0x988908028d57140f892ee731fea60039f78667173e883d865dc8aaed3e2adb77",
                    "transactionsTrie": "0x73c8c0b8d5bc3df95a7234e00605f7a928f0d7bd1fcaf4e720bff7e73f781dfc",
                    "receiptTrie": "0x6ea3b2ee2d2ac058ab8c70c9d47f696ded1d64ec6797ced6953a0b7ce733233a",
                    "bloom": "0x00000000000000000000000000000000000000000000000000000000000000000000000000000000000000000000000000000000000000000000000000000000000000000000000000000000000000000000000000000000000000000000000000000000000000000000000000000000000000000000000000000000000000000000000000000000000000000000000000000000000000000000000000000000000000000000000000000000000000000000000000000000000000000000000000000000000000000000000000000000000000000000000000000000000000000000000000000000000000000000000000000000000000000000000000000000",
                    "difficulty": "0x020000",
                    "number": "0x01",
                    "gasLimit": "0x07270e00",
                    "gasUsed": "0xf466",
                    "timestamp": "0x03e8",
                    "extraData": "0x00",
                    "mixHash": "0x0000000000000000000000000000000000000000000000000000000000000000",
                    "nonce": "0x0000000000000000",
                    "hash": "0x40705aabe2b0e9a9c9ff3b2886f1a025985b185688320c29e8f0297ad45dbd4b"
                },
                "transactions": [
                    {
                        "type": "0x00",
                        "chainId": "0x01",
                        "nonce": "0x00",
                        "gasPrice": "0x0a",
                        "gasLimit": "0x0f4240",
                        "to": "0x0143f2db9db6ab9bb3d2629c13996a491f2c8867",
                        "value": "0x00",
                        "data": "0x",
                        "v": "0x26",
                        "r": "0x0b8d53fe6afd921b052fe8d9fe79581572c36a53285b637682aeb46abb009981",
                        "s": "0xcc56465424e50413413b1f2554e6f9951fedeea0614fb1ec92e9af3e5d67b5",
                        "sender": "0x1ad9bc24818784172ff393bb6f89f094d4d2ca29"
                    }
                ],
                "uncleHeaders": [],
                "receipts": [
                    {
                        "transactionHash": "0x042e6616a4dc2a50e3f90e4fd75117798c49e5f54201ada1b66ee27cc0cc7209",
                        "type": "0x00",
                        "cumulativeGasUsed": "0xf466",
                        "bloom": "0x00000000000000000000000000000000000000000000000000000000000000000000000000000000000000000000000000000000000000000000000000000000000000000000000000000000000000000000000000000000000000000000000000000000000000000000000000000000000000000000000000000000000000000000000000000000000000000000000000000000000000000000000000000000000000000000000000000000000000000000000000000000000000000000000000000000000000000000000000000000000000000000000000000000000000000000000000000000000000000000000000000000000000000000000000000000",
                        "logs": [],
                        "status": true,
                        "rlp": "0xf901080182f466b9010000000000000000000000000000000000000000000000000000000000000000000000000000000000000000000000000000000000000000000000000000000000000000000000000000000000000000000000000000000000000000000000000000000000000000000000000000000000000000000000000000000000000000000000000000000000000000000000000000000000000000000000000000000000000000000000000000000000000000000000000000000000000000000000000000000000000000000000000000000000000000000000000000000000000000000000000000000000000000000000000000000000000000000000000000000000c0"
                    }
                ],
                "rlp": "0xf9025ff901f8a0a9bc068e74bec713497fde371c3a9175f43fae95dec7cf4d06924e16c2641cdea01dcc4de8dec75d7aab85b567b6ccd41ad312451b948a7413f0a142fd40d49347942adc25665018aa1fe0e6bc666dac8fc2697ff9baa0988908028d57140f892ee731fea60039f78667173e883d865dc8aaed3e2adb77a073c8c0b8d5bc3df95a7234e00605f7a928f0d7bd1fcaf4e720bff7e73f781dfca06ea3b2ee2d2ac058ab8c70c9d47f696ded1d64ec6797ced6953a0b7ce733233ab901000000000000000000000000000000000000000000000000000000000000000000000000000000000000000000000000000000000000000000000000000000000000000000000000000000000000000000000000000000000000000000000000000000000000000000000000000000000000000000000000000000000000000000000000000000000000000000000000000000000000000000000000000000000000000000000000000000000000000000000000000000000000000000000000000000000000000000000000000000000000000000000000000000000000000000000000000000000000000000000000000000000000000000000000000000000083020000018407270e0082f4668203e800a00000000000000000000000000000000000000000000000000000000000000000880000000000000000f861f85f800a830f4240940143f2db9db6ab9bb3d2629c13996a491f2c8867808026a00b8d53fe6afd921b052fe8d9fe79581572c36a53285b637682aeb46abb0099819fcc56465424e50413413b1f2554e6f9951fedeea0614fb1ec92e9af3e5d67b5c0",
                "blocknumber": "1"
            }
        ],
        "sealEngine": "NoProof",
        "_info": {
            "hash": "0x84fee1269e94613d07e0b65f368aa90b0a8a33f9505c6cc62e8b719620ce3e2f",
            "fixture-format": "blockchain_test",
            "comment": "`execution-specs` generated test",
            "filling-transition-tool": "2.19.0",
            "description": "Test EXTCODEHASH/EXTCODESIZE for empty contracts created with\nCREATE/CREATE2.",
            "url": "https://github.com/ethereum/execution-specs/blob/tests-bal@v5.6.0/tests/constantinople/eip1052_extcodehash/test_extcodehash.py#L291",
            "metadata": {
                "opcode_count": {}
            },
            "reference-spec": "https://github.com/ethereum/EIPs/blob/master/EIPS/eip-1052.md",
            "reference-spec-version": "2dcbc7ce1563e9624e137e9d447374600af876fa"
        }
    }
}