{
    "tests/constantinople/eip1052_extcodehash/test_extcodehash.py::test_extcodehash_call_to_nonexistent[fork_Istanbul-call_opcode_CALL-blockchain_test_from_state_test]": {
        "network": "Istanbul",
        "genesisBlockHeader": {
            "parentHash": "0x0000000000000000000000000000000000000000000000000000000000000000",
            "uncleHash": "0x1dcc4de8dec75d7aab85b567b6ccd41ad312451b948a7413f0a142fd40d49347",
            "coinbase": "0x0000000000000000000000000000000000000000",
            "stateRoot": "0x3f4a80c96bc414c70ad43e892369668eb7af9caf67d33f470e3303a715546a95",
            "transactionsTrie": "0x56e81f171bcc55a6ff8345e692c0f86e5b48e01b996cadc001622fb5e363b421",
            "receiptTrie": "0x56e81f171bcc55a6ff8345e692c0f86e5b48e01b996cadc001622fb5e363b421",
            "bloom": "0x00000000000000000000000000000000000000000000000000000000000000000000000000000000000000000000000000000000000000000000000000000000000000000000000000000000000000000000000000000000000000000000000000000000000000000000000000000000000000000000000000000000000000000000000000000000000000000000000000000000000000000000000000000000000000000000000000000000000000000000000000000000000000000000000000000000000000000000000000000000000000000000000000000000000000000000000000000000000000000000000000000000000000000000000000000000",
            "difficulty": "0x020000",
            "number": "0x00",
            "gasLimit": "0x07270e00",
            "gasUsed": "0x00",
            "timestamp": "0x00",
            "extraData": "0x00",
            "mixHash": "0x0000000000000000000000000000000000000000000000000000000000000000",
            "nonce": "0x0000000000000000",
            "hash": "0xc40d32cb5ead029fd38246dadaab19d61c6bb82bb6f33002c1be5d3cd9e4df13"
        },
        "pre": {
            "0x94734f685580564673fa010f5e6957422af24171": {
                "nonce": "0x01",
                "balance": "0x00",
                "code": "0x6000600060006000600073c0f6dc9e5836f54caadbf59cc69346c508e1992b6161a8f160005573c0f6dc9e5836f54caadbf59cc69346c508e1992b3f600155",
                "storage": {
                    "0x01": "0xba5e"
                }
            },
            "0x1ad9bc24818784172ff393bb6f89f094d4d2ca29": {
                "nonce": "0x00",
                "balance": "0x3635c9adc5dea00000",
                "code": "0x",
                "storage": {}
            }
        },
        "postState": {
            "0x94734f685580564673fa010f5e6957422af24171": {
                "nonce": "0x01",
                "balance": "0x00",
                "code": "0x6000600060006000600073c0f6dc9e5836f54caadbf59cc69346c508e1992b6161a8f160005573c0f6dc9e5836f54caadbf59cc69346c508e1992b3f600155",
                "storage": {
                    "0x00": "0x01"
                }
            },
            "0x1ad9bc24818784172ff393bb6f89f094d4d2ca29": {
                "nonce": "0x01",
                "balance": "0x3635c9adc5de9b0d34",
                "code": "0x",
                "storage": {}
            },
            "0x2adc25665018aa1fe0e6bc666dac8fc2697ff9ba": {
                "nonce": "0x00",
                "balance": "0x1bc16d674eccf2cc",
                "code": "0x",
                "storage": {}
            }
        },
        "lastblockhash": "0xda893819d068fbe3298ee23dba5b271335b1915f122791cfb4bfe1498bd56ca5",
        "config": {
            "network": "Istanbul",
            "chainid": "0x01"
        },
        "genesisRLP": "0xf901f9f901f4a00000000000000000000000000000000000000000000000000000000000000000a01dcc4de8dec75d7aab85b567b6ccd41ad312451b948a7413f0a142fd40d49347940000000000000000000000000000000000000000a03f4a80c96bc414c70ad43e892369668eb7af9caf67d33f470e3303a715546a95a056e81f171bcc55a6ff8345e692c0f86e5b48e01b996cadc001622fb5e363b421a056e81f171bcc55a6ff8345e692c0f86e5b48e01b996cadc001622fb5e363b421b901000000000000000000000000000000000000000000000000000000000000000000000000000000000000000000000000000000000000000000000000000000000000000000000000000000000000000000000000000000000000000000000000000000000000000000000000000000000000000000000000000000000000000000000000000000000000000000000000000000000000000000000000000000000000000000000000000000000000000000000000000000000000000000000000000000000000000000000000000000000000000000000000000000000000000000000000000000000000000000000000000000000000000000000000000000000083020000808407270e00808000a00000000000000000000000000000000000000000000000000000000000000000880000000000000000c0c0",
        "blocks": [
            {
                "blockHeader": {
                    "parentHash": "0xc40d32cb5ead029fd38246dadaab19d61c6bb82bb6f33002c1be5d3cd9e4df13",
                    "uncleHash": "0x1dcc4de8dec75d7aab85b567b6ccd41ad312451b948a7413f0a142fd40d49347",
                    "coinbase": "0x2adc25665018aa1fe0e6bc666dac8fc2697ff9ba",
                    "stateRoot": "0xf2fe74abdc1ba85c77a4a7cb4714f49cfc79aee28e88ed13c854b6d96cdccf58",
                    "transactionsTrie": "0x7fc9f5ad76c6ec612843d6f6d1559f7301e251eb6f29ccc4919cb03fb301d598",
                    "receiptTrie": "0x64c4c391484f0d11dae2e5cbc7ae677e92421bb7c19d423547b7a81c9303a838",
                    "bloom": "0x00000000000000000000000000000000000000000000000000000000000000000000000000000000000000000000000000000000000000000000000000000000000000000000000000000000000000000000000000000000000000000000000000000000000000000000000000000000000000000000000000000000000000000000000000000000000000000000000000000000000000000000000000000000000000000000000000000000000000000000000000000000000000000000000000000000000000000000000000000000000000000000000000000000000000000000000000000000000000000000000000000000000000000000000000000000",
                    "difficulty": "0x020000",
                    "number": "0x01",
                    "gasLimit": "0x07270e00",
                    "gasUsed": "0x7eae",
                    "timestamp": "0x03e8",
                    "extraData": "0x00",
                    "mixHash": "0x0000000000000000000000000000000000000000000000000000000000000000",
                    "nonce": "0x0000000000000000",
                    "hash": "0xda893819d068fbe3298ee23dba5b271335b1915f122791cfb4bfe1498bd56ca5"
                },
                "transactions": [
                    {
                        "type": "0x00",
                        "chainId": "0x01",
                        "nonce": "0x00",
                        "gasPrice": "0x0a",
                        "gasLimit": "0x061a80",
                        "to": "0x94734f685580564673fa010f5e6957422af24171",
                        "value": "0x00",
                        "data": "0x",
                        "v": "0x26",
                        "r": "0x6b547dddd19ac8ac2bf35c0b6244249d67d2074677356f2940ae632b4a52e08a",
                        "s": "0x20d9d4c3e40b85a281902762eca686f74c23ab26a5e8427d972580923b34f05d",
                        "sender": "0x1ad9bc24818784172ff393bb6f89f094d4d2ca29"
                    }
                ],
                "uncleHeaders": [],
                "receipts": [
                    {
                        "transactionHash": "0x7acb8b53b395736913b9c1bc335baa4a9e880d2dfd9e4add03f2e56e800bc239",
                        "type": "0x00",
                        "cumulativeGasUsed": "0x7eae",
                        "bloom": "0x00000000000000000000000000000000000000000000000000000000000000000000000000000000000000000000000000000000000000000000000000000000000000000000000000000000000000000000000000000000000000000000000000000000000000000000000000000000000000000000000000000000000000000000000000000000000000000000000000000000000000000000000000000000000000000000000000000000000000000000000000000000000000000000000000000000000000000000000000000000000000000000000000000000000000000000000000000000000000000000000000000000000000000000000000000000",
                        "logs": [],
                        "status": true,
                        "rlp": "0xf9010801827eaeb9010000000000000000000000000000000000000000000000000000000000000000000000000000000000000000000000000000000000000000000000000000000000000000000000000000000000000000000000000000000000000000000000000000000000000000000000000000000000000000000000000000000000000000000000000000000000000000000000000000000000000000000000000000000000000000000000000000000000000000000000000000000000000000000000000000000000000000000000000000000000000000000000000000000000000000000000000000000000000000000000000000000000000000000000000000000000c0"
                    }
                ],
                "rlp": "0xf90260f901f8a0c40d32cb5ead029fd38246dadaab19d61c6bb82bb6f33002c1be5d3cd9e4df13a01dcc4de8dec75d7aab85b567b6ccd41ad312451b948a7413f0a142fd40d49347942adc25665018aa1fe0e6bc666dac8fc2697ff9baa0f2fe74abdc1ba85c77a4a7cb4714f49cfc79aee28e88ed13c854b6d96cdccf58a07fc9f5ad76c6ec612843d6f6d1559f7301e251eb6f29ccc4919cb03fb301d598a064c4c391484f0d11dae2e5cbc7ae677e92421bb7c19d423547b7a81c9303a838b901000000000000000000000000000000000000000000000000000000000000000000000000000000000000000000000000000000000000000000000000000000000000000000000000000000000000000000000000000000000000000000000000000000000000000000000000000000000000000000000000000000000000000000000000000000000000000000000000000000000000000000000000000000000000000000000000000000000000000000000000000000000000000000000000000000000000000000000000000000000000000000000000000000000000000000000000000000000000000000000000000000000000000000000000000000000083020000018407270e00827eae8203e800a00000000000000000000000000000000000000000000000000000000000000000880000000000000000f862f860800a83061a809494734f685580564673fa010f5e6957422af24171808026a06b547dddd19ac8ac2bf35c0b6244249d67d2074677356f2940ae632b4a52e08aa020d9d4c3e40b85a281902762eca686f74c23ab26a5e8427d972580923b34f05dc0",
                "blocknumber": "1"
            }
        ],
        "sealEngine": "NoProof",
        "_info": {
            "hash": "0xd4ad9db942aa8802100c1cacae2497205b85e02b41a8e0709c6b5934f0bcc662",
            "fixture-format": "blockchain_test",
            "comment": "`execution-specs` generated test",
            "filling-transition-tool": "2.19.0",
            "description": "Test EXTCODEHASH after calling a non-existent account.\n\nCall a non-existent address using each call type, then check\nEXTCODEHASH \u2014 it returns 0 because the account does not exist.",
            "url": "https://github.com/ethereum/execution-specs/blob/tests-snobal-devnet-5@v8037.0.0/tests/constantinople/eip1052_extcodehash/test_extcodehash.py#L1271",
            "metadata": {
                "opcode_count": {}
            },
            "reference-spec": "https://github.com/ethereum/EIPs/blob/master/EIPS/eip-1052.md",
            "reference-spec-version": "2dcbc7ce1563e9624e137e9d447374600af876fa"
        }
    },
    "tests/constantinople/eip1052_extcodehash/test_extcodehash.py::test_extcodehash_call_to_nonexistent[fork_Istanbul-call_opcode_CALLCODE-blockchain_test_from_state_test]": {
        "network": "Istanbul",
        "genesisBlockHeader": {
            "parentHash": "0x0000000000000000000000000000000000000000000000000000000000000000",
            "uncleHash": "0x1dcc4de8dec75d7aab85b567b6ccd41ad312451b948a7413f0a142fd40d49347",
            "coinbase": "0x0000000000000000000000000000000000000000",
            "stateRoot": "0x5647a72243d700dbd5c4794a560cb2eaf8a7a996e38bdc933842cf7e9e9a9227",
            "transactionsTrie": "0x56e81f171bcc55a6ff8345e692c0f86e5b48e01b996cadc001622fb5e363b421",
            "receiptTrie": "0x56e81f171bcc55a6ff8345e692c0f86e5b48e01b996cadc001622fb5e363b421",
            "bloom": "0x00000000000000000000000000000000000000000000000000000000000000000000000000000000000000000000000000000000000000000000000000000000000000000000000000000000000000000000000000000000000000000000000000000000000000000000000000000000000000000000000000000000000000000000000000000000000000000000000000000000000000000000000000000000000000000000000000000000000000000000000000000000000000000000000000000000000000000000000000000000000000000000000000000000000000000000000000000000000000000000000000000000000000000000000000000000",
            "difficulty": "0x020000",
            "number": "0x00",
            "gasLimit": "0x07270e00",
            "gasUsed": "0x00",
            "timestamp": "0x00",
            "extraData": "0x00",
            "mixHash": "0x0000000000000000000000000000000000000000000000000000000000000000",
            "nonce": "0x0000000000000000",
            "hash": "0x10fd3a071ccc5a0c79ec82ac75c153d9ce20372fdd4be4b4ba75c4d0e3b6ccb6"
        },
        "pre": {
            "0x5f212d0ccac6ddead31f793e0cd28cc45e914a20": {
                "nonce": "0x01",
                "balance": "0x00",
                "code": "0x6000600060006000600073c0f6dc9e5836f54caadbf59cc69346c508e1992b6161a8f260005573c0f6dc9e5836f54caadbf59cc69346c508e1992b3f600155",
                "storage": {
                    "0x01": "0xba5e"
                }
            },
            "0x1ad9bc24818784172ff393bb6f89f094d4d2ca29": {
                "nonce": "0x00",
                "balance": "0x3635c9adc5dea00000",
                "code": "0x",
                "storage": {}
            }
        },
        "postState": {
            "0x5f212d0ccac6ddead31f793e0cd28cc45e914a20": {
                "nonce": "0x01",
                "balance": "0x00",
                "code": "0x6000600060006000600073c0f6dc9e5836f54caadbf59cc69346c508e1992b6161a8f260005573c0f6dc9e5836f54caadbf59cc69346c508e1992b3f600155",
                "storage": {
                    "0x00": "0x01"
                }
            },
            "0x1ad9bc24818784172ff393bb6f89f094d4d2ca29": {
                "nonce": "0x01",
                "balance": "0x3635c9adc5de9b0d34",
                "code": "0x",
                "storage": {}
            },
            "0x2adc25665018aa1fe0e6bc666dac8fc2697ff9ba": {
                "nonce": "0x00",
                "balance": "0x1bc16d674eccf2cc",
                "code": "0x",
                "storage": {}
            }
        },
        "lastblockhash": "0x66ba9d95e946910f1606035e77b54312f9dd1d6f2fc687f835051caf01f8d3e4",
        "config": {
            "network": "Istanbul",
            "chainid": "0x01"
        },
        "genesisRLP": "0xf901f9f901f4a00000000000000000000000000000000000000000000000000000000000000000a01dcc4de8dec75d7aab85b567b6ccd41ad312451b948a7413f0a142fd40d49347940000000000000000000000000000000000000000a05647a72243d700dbd5c4794a560cb2eaf8a7a996e38bdc933842cf7e9e9a9227a056e81f171bcc55a6ff8345e692c0f86e5b48e01b996cadc001622fb5e363b421a056e81f171bcc55a6ff8345e692c0f86e5b48e01b996cadc001622fb5e363b421b901000000000000000000000000000000000000000000000000000000000000000000000000000000000000000000000000000000000000000000000000000000000000000000000000000000000000000000000000000000000000000000000000000000000000000000000000000000000000000000000000000000000000000000000000000000000000000000000000000000000000000000000000000000000000000000000000000000000000000000000000000000000000000000000000000000000000000000000000000000000000000000000000000000000000000000000000000000000000000000000000000000000000000000000000000000000083020000808407270e00808000a00000000000000000000000000000000000000000000000000000000000000000880000000000000000c0c0",
        "blocks": [
            {
                "blockHeader": {
                    "parentHash": "0x10fd3a071ccc5a0c79ec82ac75c153d9ce20372fdd4be4b4ba75c4d0e3b6ccb6",
                    "uncleHash": "0x1dcc4de8dec75d7aab85b567b6ccd41ad312451b948a7413f0a142fd40d49347",
                    "coinbase": "0x2adc25665018aa1fe0e6bc666dac8fc2697ff9ba",
                    "stateRoot": "0x32678dc4ca992ad715a072a7201a69b22eb8bd1d2531efbdb4dc6a369958dc62",
                    "transactionsTrie": "0xe260dcd5144c82135c16f9c8b8e247f181a0872bd96dd754e08618684a6a3529",
                    "receiptTrie": "0x64c4c391484f0d11dae2e5cbc7ae677e92421bb7c19d423547b7a81c9303a838",
                    "bloom": "0x00000000000000000000000000000000000000000000000000000000000000000000000000000000000000000000000000000000000000000000000000000000000000000000000000000000000000000000000000000000000000000000000000000000000000000000000000000000000000000000000000000000000000000000000000000000000000000000000000000000000000000000000000000000000000000000000000000000000000000000000000000000000000000000000000000000000000000000000000000000000000000000000000000000000000000000000000000000000000000000000000000000000000000000000000000000",
                    "difficulty": "0x020000",
                    "number": "0x01",
                    "gasLimit": "0x07270e00",
                    "gasUsed": "0x7eae",
                    "timestamp": "0x03e8",
                    "extraData": "0x00",
                    "mixHash": "0x0000000000000000000000000000000000000000000000000000000000000000",
                    "nonce": "0x0000000000000000",
                    "hash": "0x66ba9d95e946910f1606035e77b54312f9dd1d6f2fc687f835051caf01f8d3e4"
                },
                "transactions": [
                    {
                        "type": "0x00",
                        "chainId": "0x01",
                        "nonce": "0x00",
                        "gasPrice": "0x0a",
                        "gasLimit": "0x061a80",
                        "to": "0x5f212d0ccac6ddead31f793e0cd28cc45e914a20",
                        "value": "0x00",
                        "data": "0x",
                        "v": "0x25",
                        "r": "0x923ee9477db0829a658a2de952fd41026ea9d804df68fb055b515b7b66a8fbe1",
                        "s": "0x0a680c40bdcec66066f7ef2ec511736b157c382272696131ea66bb6d07b86e68",
                        "sender": "0x1ad9bc24818784172ff393bb6f89f094d4d2ca29"
                    }
                ],
                "uncleHeaders": [],
                "receipts": [
                    {
                        "transactionHash": "0x5598d981fb6662ea10a3f3cd53c3ff1bd10088733307a5a9d7e28351372b270b",
                        "type": "0x00",
                        "cumulativeGasUsed": "0x7eae",
                        "bloom": "0x00000000000000000000000000000000000000000000000000000000000000000000000000000000000000000000000000000000000000000000000000000000000000000000000000000000000000000000000000000000000000000000000000000000000000000000000000000000000000000000000000000000000000000000000000000000000000000000000000000000000000000000000000000000000000000000000000000000000000000000000000000000000000000000000000000000000000000000000000000000000000000000000000000000000000000000000000000000000000000000000000000000000000000000000000000000",
                        "logs": [],
                        "status": true,
                        "rlp": "0xf9010801827eaeb9010000000000000000000000000000000000000000000000000000000000000000000000000000000000000000000000000000000000000000000000000000000000000000000000000000000000000000000000000000000000000000000000000000000000000000000000000000000000000000000000000000000000000000000000000000000000000000000000000000000000000000000000000000000000000000000000000000000000000000000000000000000000000000000000000000000000000000000000000000000000000000000000000000000000000000000000000000000000000000000000000000000000000000000000000000000000c0"
                    }
                ],
                "rlp": "0xf90260f901f8a010fd3a071ccc5a0c79ec82ac75c153d9ce20372fdd4be4b4ba75c4d0e3b6ccb6a01dcc4de8dec75d7aab85b567b6ccd41ad312451b948a7413f0a142fd40d49347942adc25665018aa1fe0e6bc666dac8fc2697ff9baa032678dc4ca992ad715a072a7201a69b22eb8bd1d2531efbdb4dc6a369958dc62a0e260dcd5144c82135c16f9c8b8e247f181a0872bd96dd754e08618684a6a3529a064c4c391484f0d11dae2e5cbc7ae677e92421bb7c19d423547b7a81c9303a838b901000000000000000000000000000000000000000000000000000000000000000000000000000000000000000000000000000000000000000000000000000000000000000000000000000000000000000000000000000000000000000000000000000000000000000000000000000000000000000000000000000000000000000000000000000000000000000000000000000000000000000000000000000000000000000000000000000000000000000000000000000000000000000000000000000000000000000000000000000000000000000000000000000000000000000000000000000000000000000000000000000000000000000000000000000000000083020000018407270e00827eae8203e800a00000000000000000000000000000000000000000000000000000000000000000880000000000000000f862f860800a83061a80945f212d0ccac6ddead31f793e0cd28cc45e914a20808025a0923ee9477db0829a658a2de952fd41026ea9d804df68fb055b515b7b66a8fbe1a00a680c40bdcec66066f7ef2ec511736b157c382272696131ea66bb6d07b86e68c0",
                "blocknumber": "1"
            }
        ],
        "sealEngine": "NoProof",
        "_info": {
            "hash": "0x547f5e7aa43d22a42b4f0d277e126e7fda53bbc6afd6b6dcdfb2d3e6cf248897",
            "fixture-format": "blockchain_test",
            "comment": "`execution-specs` generated test",
            "filling-transition-tool": "2.19.0",
            "description": "Test EXTCODEHASH after calling a non-existent account.\n\nCall a non-existent address using each call type, then check\nEXTCODEHASH \u2014 it returns 0 because the account does not exist.",
            "url": "https://github.com/ethereum/execution-specs/blob/tests-snobal-devnet-5@v8037.0.0/tests/constantinople/eip1052_extcodehash/test_extcodehash.py#L1271",
            "metadata": {
                "opcode_count": {}
            },
            "reference-spec": "https://github.com/ethereum/EIPs/blob/master/EIPS/eip-1052.md",
            "reference-spec-version": "2dcbc7ce1563e9624e137e9d447374600af876fa"
        }
    },
    "tests/constantinople/eip1052_extcodehash/test_extcodehash.py::test_extcodehash_call_to_nonexistent[fork_Istanbul-call_opcode_DELEGATECALL-blockchain_test_from_state_test]": {
        "network": "Istanbul",
        "genesisBlockHeader": {
            "parentHash": "0x0000000000000000000000000000000000000000000000000000000000000000",
            "uncleHash": "0x1dcc4de8dec75d7aab85b567b6ccd41ad312451b948a7413f0a142fd40d49347",
            "coinbase": "0x0000000000000000000000000000000000000000",
            "stateRoot": "0x8d22e554556276efe22abb7565dc6e98e1cc62a942bc8055c2dfb57691f5e351",
            "transactionsTrie": "0x56e81f171bcc55a6ff8345e692c0f86e5b48e01b996cadc001622fb5e363b421",
            "receiptTrie": "0x56e81f171bcc55a6ff8345e692c0f86e5b48e01b996cadc001622fb5e363b421",
            "bloom": "0x00000000000000000000000000000000000000000000000000000000000000000000000000000000000000000000000000000000000000000000000000000000000000000000000000000000000000000000000000000000000000000000000000000000000000000000000000000000000000000000000000000000000000000000000000000000000000000000000000000000000000000000000000000000000000000000000000000000000000000000000000000000000000000000000000000000000000000000000000000000000000000000000000000000000000000000000000000000000000000000000000000000000000000000000000000000",
            "difficulty": "0x020000",
            "number": "0x00",
            "gasLimit": "0x07270e00",
            "gasUsed": "0x00",
            "timestamp": "0x00",
            "extraData": "0x00",
            "mixHash": "0x0000000000000000000000000000000000000000000000000000000000000000",
            "nonce": "0x0000000000000000",
            "hash": "0x5aec8912bb9ca3ec397b10f65f0d4b85436f41661a6665c4784299677f6f1ee4"
        },
        "pre": {
            "0x4f1c36edcc734ea5f5c2f69c6253a2a825c6e9c3": {
                "nonce": "0x01",
                "balance": "0x00",
                "code": "0x600060006000600073c0f6dc9e5836f54caadbf59cc69346c508e1992b6161a8f460005573c0f6dc9e5836f54caadbf59cc69346c508e1992b3f600155",
                "storage": {
                    "0x01": "0xba5e"
                }
            },
            "0x1ad9bc24818784172ff393bb6f89f094d4d2ca29": {
                "nonce": "0x00",
                "balance": "0x3635c9adc5dea00000",
                "code": "0x",
                "storage": {}
            }
        },
        "postState": {
            "0x4f1c36edcc734ea5f5c2f69c6253a2a825c6e9c3": {
                "nonce": "0x01",
                "balance": "0x00",
                "code": "0x600060006000600073c0f6dc9e5836f54caadbf59cc69346c508e1992b6161a8f460005573c0f6dc9e5836f54caadbf59cc69346c508e1992b3f600155",
                "storage": {
                    "0x00": "0x01"
                }
            },
            "0x1ad9bc24818784172ff393bb6f89f094d4d2ca29": {
                "nonce": "0x01",
                "balance": "0x3635c9adc5de9b0d52",
                "code": "0x",
                "storage": {}
            },
            "0x2adc25665018aa1fe0e6bc666dac8fc2697ff9ba": {
                "nonce": "0x00",
                "balance": "0x1bc16d674eccf2ae",
                "code": "0x",
                "storage": {}
            }
        },
        "lastblockhash": "0xaf2e0c9071f4581699f558b38395d1cd36902b6bc5180cd54decec68cc490f7f",
        "config": {
            "network": "Istanbul",
            "chainid": "0x01"
        },
        "genesisRLP": "0xf901f9f901f4a00000000000000000000000000000000000000000000000000000000000000000a01dcc4de8dec75d7aab85b567b6ccd41ad312451b948a7413f0a142fd40d49347940000000000000000000000000000000000000000a08d22e554556276efe22abb7565dc6e98e1cc62a942bc8055c2dfb57691f5e351a056e81f171bcc55a6ff8345e692c0f86e5b48e01b996cadc001622fb5e363b421a056e81f171bcc55a6ff8345e692c0f86e5b48e01b996cadc001622fb5e363b421b901000000000000000000000000000000000000000000000000000000000000000000000000000000000000000000000000000000000000000000000000000000000000000000000000000000000000000000000000000000000000000000000000000000000000000000000000000000000000000000000000000000000000000000000000000000000000000000000000000000000000000000000000000000000000000000000000000000000000000000000000000000000000000000000000000000000000000000000000000000000000000000000000000000000000000000000000000000000000000000000000000000000000000000000000000000000083020000808407270e00808000a00000000000000000000000000000000000000000000000000000000000000000880000000000000000c0c0",
        "blocks": [
            {
                "blockHeader": {
                    "parentHash": "0x5aec8912bb9ca3ec397b10f65f0d4b85436f41661a6665c4784299677f6f1ee4",
                    "uncleHash": "0x1dcc4de8dec75d7aab85b567b6ccd41ad312451b948a7413f0a142fd40d49347",
                    "coinbase": "0x2adc25665018aa1fe0e6bc666dac8fc2697ff9ba",
                    "stateRoot": "0x200ce4f2df495dceaa8973b46d7e8ffda4e81e8221215568dafa60a25a3b23a4",
                    "transactionsTrie": "0xe787f50f4c89896baeb5316b2d7dbb6debea920d8421874c0d6393295cd14659",
                    "receiptTrie": "0xb6254f72d8136526b091efba77758f9ad29d0e2e8881b59de29565a4d06ffcce",
                    "bloom": "0x00000000000000000000000000000000000000000000000000000000000000000000000000000000000000000000000000000000000000000000000000000000000000000000000000000000000000000000000000000000000000000000000000000000000000000000000000000000000000000000000000000000000000000000000000000000000000000000000000000000000000000000000000000000000000000000000000000000000000000000000000000000000000000000000000000000000000000000000000000000000000000000000000000000000000000000000000000000000000000000000000000000000000000000000000000000",
                    "difficulty": "0x020000",
                    "number": "0x01",
                    "gasLimit": "0x07270e00",
                    "gasUsed": "0x7eab",
                    "timestamp": "0x03e8",
                    "extraData": "0x00",
                    "mixHash": "0x0000000000000000000000000000000000000000000000000000000000000000",
                    "nonce": "0x0000000000000000",
                    "hash": "0xaf2e0c9071f4581699f558b38395d1cd36902b6bc5180cd54decec68cc490f7f"
                },
                "transactions": [
                    {
                        "type": "0x00",
                        "chainId": "0x01",
                        "nonce": "0x00",
                        "gasPrice": "0x0a",
                        "gasLimit": "0x061a80",
                        "to": "0x4f1c36edcc734ea5f5c2f69c6253a2a825c6e9c3",
                        "value": "0x00",
                        "data": "0x",
                        "v": "0x26",
                        "r": "0xb8c21ab59169f59da1cb58effe50d44a3902de30787fff69f7055edf1ff078c9",
                        "s": "0x6935048d2f763e7d3f2dd0f41012bfffee1852397023a44e29ea42dc524d32a7",
                        "sender": "0x1ad9bc24818784172ff393bb6f89f094d4d2ca29"
                    }
                ],
                "uncleHeaders": [],
                "receipts": [
                    {
                        "transactionHash": "0x26895dbb86abdfc40cc66069c09b92836fb294fbe026dfc51805cd48972d8860",
                        "type": "0x00",
                        "cumulativeGasUsed": "0x7eab",
                        "bloom": "0x00000000000000000000000000000000000000000000000000000000000000000000000000000000000000000000000000000000000000000000000000000000000000000000000000000000000000000000000000000000000000000000000000000000000000000000000000000000000000000000000000000000000000000000000000000000000000000000000000000000000000000000000000000000000000000000000000000000000000000000000000000000000000000000000000000000000000000000000000000000000000000000000000000000000000000000000000000000000000000000000000000000000000000000000000000000",
                        "logs": [],
                        "status": true,
                        "rlp": "0xf9010801827eabb9010000000000000000000000000000000000000000000000000000000000000000000000000000000000000000000000000000000000000000000000000000000000000000000000000000000000000000000000000000000000000000000000000000000000000000000000000000000000000000000000000000000000000000000000000000000000000000000000000000000000000000000000000000000000000000000000000000000000000000000000000000000000000000000000000000000000000000000000000000000000000000000000000000000000000000000000000000000000000000000000000000000000000000000000000000000000c0"
                    }
                ],
                "rlp": "0xf90260f901f8a05aec8912bb9ca3ec397b10f65f0d4b85436f41661a6665c4784299677f6f1ee4a01dcc4de8dec75d7aab85b567b6ccd41ad312451b948a7413f0a142fd40d49347942adc25665018aa1fe0e6bc666dac8fc2697ff9baa0200ce4f2df495dceaa8973b46d7e8ffda4e81e8221215568dafa60a25a3b23a4a0e787f50f4c89896baeb5316b2d7dbb6debea920d8421874c0d6393295cd14659a0b6254f72d8136526b091efba77758f9ad29d0e2e8881b59de29565a4d06ffcceb901000000000000000000000000000000000000000000000000000000000000000000000000000000000000000000000000000000000000000000000000000000000000000000000000000000000000000000000000000000000000000000000000000000000000000000000000000000000000000000000000000000000000000000000000000000000000000000000000000000000000000000000000000000000000000000000000000000000000000000000000000000000000000000000000000000000000000000000000000000000000000000000000000000000000000000000000000000000000000000000000000000000000000000000000000000000083020000018407270e00827eab8203e800a00000000000000000000000000000000000000000000000000000000000000000880000000000000000f862f860800a83061a80944f1c36edcc734ea5f5c2f69c6253a2a825c6e9c3808026a0b8c21ab59169f59da1cb58effe50d44a3902de30787fff69f7055edf1ff078c9a06935048d2f763e7d3f2dd0f41012bfffee1852397023a44e29ea42dc524d32a7c0",
                "blocknumber": "1"
            }
        ],
        "sealEngine": "NoProof",
        "_info": {
            "hash": "0x049708c892a8675831c67b4a91e6bb407ab7f401b6b00a82bf52a016b575906b",
            "fixture-format": "blockchain_test",
            "comment": "`execution-specs` generated test",
            "filling-transition-tool": "2.19.0",
            "description": "Test EXTCODEHASH after calling a non-existent account.\n\nCall a non-existent address using each call type, then check\nEXTCODEHASH \u2014 it returns 0 because the account does not exist.",
            "url": "https://github.com/ethereum/execution-specs/blob/tests-snobal-devnet-5@v8037.0.0/tests/constantinople/eip1052_extcodehash/test_extcodehash.py#L1271",
            "metadata": {
                "opcode_count": {}
            },
            "reference-spec": "https://github.com/ethereum/EIPs/blob/master/EIPS/eip-1052.md",
            "reference-spec-version": "2dcbc7ce1563e9624e137e9d447374600af876fa"
        }
    },
    "tests/constantinople/eip1052_extcodehash/test_extcodehash.py::test_extcodehash_call_to_nonexistent[fork_Istanbul-call_opcode_STATICCALL-blockchain_test_from_state_test]": {
        "network": "Istanbul",
        "genesisBlockHeader": {
            "parentHash": "0x0000000000000000000000000000000000000000000000000000000000000000",
            "uncleHash": "0x1dcc4de8dec75d7aab85b567b6ccd41ad312451b948a7413f0a142fd40d49347",
            "coinbase": "0x0000000000000000000000000000000000000000",
            "stateRoot": "0x372a18c9a82c0bf1c8062020a2329c537b5894aa09d3022e36d82f249a670f3c",
            "transactionsTrie": "0x56e81f171bcc55a6ff8345e692c0f86e5b48e01b996cadc001622fb5e363b421",
            "receiptTrie": "0x56e81f171bcc55a6ff8345e692c0f86e5b48e01b996cadc001622fb5e363b421",
            "bloom": "0x00000000000000000000000000000000000000000000000000000000000000000000000000000000000000000000000000000000000000000000000000000000000000000000000000000000000000000000000000000000000000000000000000000000000000000000000000000000000000000000000000000000000000000000000000000000000000000000000000000000000000000000000000000000000000000000000000000000000000000000000000000000000000000000000000000000000000000000000000000000000000000000000000000000000000000000000000000000000000000000000000000000000000000000000000000000",
            "difficulty": "0x020000",
            "number": "0x00",
            "gasLimit": "0x07270e00",
            "gasUsed": "0x00",
            "timestamp": "0x00",
            "extraData": "0x00",
            "mixHash": "0x0000000000000000000000000000000000000000000000000000000000000000",
            "nonce": "0x0000000000000000",
            "hash": "0x0130bd684d7ee7f94b93c4197e72c0b4c838003e6c646c64a9f32dd2979f1d5d"
        },
        "pre": {
            "0x83c828a86d4e617068f3a4a6f0cb46594d6b151a": {
                "nonce": "0x01",
                "balance": "0x00",
                "code": "0x600060006000600073c0f6dc9e5836f54caadbf59cc69346c508e1992b6161a8fa60005573c0f6dc9e5836f54caadbf59cc69346c508e1992b3f600155",
                "storage": {
                    "0x01": "0xba5e"
                }
            },
            "0x1ad9bc24818784172ff393bb6f89f094d4d2ca29": {
                "nonce": "0x00",
                "balance": "0x3635c9adc5dea00000",
                "code": "0x",
                "storage": {}
            }
        },
        "postState": {
            "0x83c828a86d4e617068f3a4a6f0cb46594d6b151a": {
                "nonce": "0x01",
                "balance": "0x00",
                "code": "0x600060006000600073c0f6dc9e5836f54caadbf59cc69346c508e1992b6161a8fa60005573c0f6dc9e5836f54caadbf59cc69346c508e1992b3f600155",
                "storage": {
                    "0x00": "0x01"
                }
            },
            "0x1ad9bc24818784172ff393bb6f89f094d4d2ca29": {
                "nonce": "0x01",
                "balance": "0x3635c9adc5de9b0d52",
                "code": "0x",
                "storage": {}
            },
            "0x2adc25665018aa1fe0e6bc666dac8fc2697ff9ba": {
                "nonce": "0x00",
                "balance": "0x1bc16d674eccf2ae",
                "code": "0x",
                "storage": {}
            }
        },
        "lastblockhash": "0x1edf58f64644e30c11d49a13b7ff0f04510c60797a7ce400d8c383742317b0ca",
        "config": {
            "network": "Istanbul",
            "chainid": "0x01"
        },
        "genesisRLP": "0xf901f9f901f4a00000000000000000000000000000000000000000000000000000000000000000a01dcc4de8dec75d7aab85b567b6ccd41ad312451b948a7413f0a142fd40d49347940000000000000000000000000000000000000000a0372a18c9a82c0bf1c8062020a2329c537b5894aa09d3022e36d82f249a670f3ca056e81f171bcc55a6ff8345e692c0f86e5b48e01b996cadc001622fb5e363b421a056e81f171bcc55a6ff8345e692c0f86e5b48e01b996cadc001622fb5e363b421b901000000000000000000000000000000000000000000000000000000000000000000000000000000000000000000000000000000000000000000000000000000000000000000000000000000000000000000000000000000000000000000000000000000000000000000000000000000000000000000000000000000000000000000000000000000000000000000000000000000000000000000000000000000000000000000000000000000000000000000000000000000000000000000000000000000000000000000000000000000000000000000000000000000000000000000000000000000000000000000000000000000000000000000000000000000000083020000808407270e00808000a00000000000000000000000000000000000000000000000000000000000000000880000000000000000c0c0",
        "blocks": [
            {
                "blockHeader": {
                    "parentHash": "0x0130bd684d7ee7f94b93c4197e72c0b4c838003e6c646c64a9f32dd2979f1d5d",
                    "uncleHash": "0x1dcc4de8dec75d7aab85b567b6ccd41ad312451b948a7413f0a142fd40d49347",
                    "coinbase": "0x2adc25665018aa1fe0e6bc666dac8fc2697ff9ba",
                    "stateRoot": "0x7ffa3eba3515534a5ceaefea2606158c781c3286e3a0bb8799a33aca5e684fdb",
                    "transactionsTrie": "0x5b6eed87202fef5964018f774159ec7ed18be3493e5ea2cc9120e488e7c3f7c1",
                    "receiptTrie": "0xb6254f72d8136526b091efba77758f9ad29d0e2e8881b59de29565a4d06ffcce",
                    "bloom": "0x00000000000000000000000000000000000000000000000000000000000000000000000000000000000000000000000000000000000000000000000000000000000000000000000000000000000000000000000000000000000000000000000000000000000000000000000000000000000000000000000000000000000000000000000000000000000000000000000000000000000000000000000000000000000000000000000000000000000000000000000000000000000000000000000000000000000000000000000000000000000000000000000000000000000000000000000000000000000000000000000000000000000000000000000000000000",
                    "difficulty": "0x020000",
                    "number": "0x01",
                    "gasLimit": "0x07270e00",
                    "gasUsed": "0x7eab",
                    "timestamp": "0x03e8",
                    "extraData": "0x00",
                    "mixHash": "0x0000000000000000000000000000000000000000000000000000000000000000",
                    "nonce": "0x0000000000000000",
                    "hash": "0x1edf58f64644e30c11d49a13b7ff0f04510c60797a7ce400d8c383742317b0ca"
                },
                "transactions": [
                    {
                        "type": "0x00",
                        "chainId": "0x01",
                        "nonce": "0x00",
                        "gasPrice": "0x0a",
                        "gasLimit": "0x061a80",
                        "to": "0x83c828a86d4e617068f3a4a6f0cb46594d6b151a",
                        "value": "0x00",
                        "data": "0x",
                        "v": "0x26",
                        "r": "0xa8a982a41a367f70a7b4da21a987f11541d052cbe604cc94c9c33c3cdc235dd0",
                        "s": "0x02c62835e8c55ea22a3f0c36b56cbb05ff6a29509f9f600e737033e778712de8",
                        "sender": "0x1ad9bc24818784172ff393bb6f89f094d4d2ca29"
                    }
                ],
                "uncleHeaders": [],
                "receipts": [
                    {
                        "transactionHash": "0x1ec8c3c748d0c3e91427fabd5062c6b689dcff4dcdaaca4d87076ae4c33ae49b",
                        "type": "0x00",
                        "cumulativeGasUsed": "0x7eab",
                        "bloom": "0x00000000000000000000000000000000000000000000000000000000000000000000000000000000000000000000000000000000000000000000000000000000000000000000000000000000000000000000000000000000000000000000000000000000000000000000000000000000000000000000000000000000000000000000000000000000000000000000000000000000000000000000000000000000000000000000000000000000000000000000000000000000000000000000000000000000000000000000000000000000000000000000000000000000000000000000000000000000000000000000000000000000000000000000000000000000",
                        "logs": [],
                        "status": true,
                        "rlp": "0xf9010801827eabb9010000000000000000000000000000000000000000000000000000000000000000000000000000000000000000000000000000000000000000000000000000000000000000000000000000000000000000000000000000000000000000000000000000000000000000000000000000000000000000000000000000000000000000000000000000000000000000000000000000000000000000000000000000000000000000000000000000000000000000000000000000000000000000000000000000000000000000000000000000000000000000000000000000000000000000000000000000000000000000000000000000000000000000000000000000000000c0"
                    }
                ],
                "rlp": "0xf90260f901f8a00130bd684d7ee7f94b93c4197e72c0b4c838003e6c646c64a9f32dd2979f1d5da01dcc4de8dec75d7aab85b567b6ccd41ad312451b948a7413f0a142fd40d49347942adc25665018aa1fe0e6bc666dac8fc2697ff9baa07ffa3eba3515534a5ceaefea2606158c781c3286e3a0bb8799a33aca5e684fdba05b6eed87202fef5964018f774159ec7ed18be3493e5ea2cc9120e488e7c3f7c1a0b6254f72d8136526b091efba77758f9ad29d0e2e8881b59de29565a4d06ffcceb901000000000000000000000000000000000000000000000000000000000000000000000000000000000000000000000000000000000000000000000000000000000000000000000000000000000000000000000000000000000000000000000000000000000000000000000000000000000000000000000000000000000000000000000000000000000000000000000000000000000000000000000000000000000000000000000000000000000000000000000000000000000000000000000000000000000000000000000000000000000000000000000000000000000000000000000000000000000000000000000000000000000000000000000000000000000083020000018407270e00827eab8203e800a00000000000000000000000000000000000000000000000000000000000000000880000000000000000f862f860800a83061a809483c828a86d4e617068f3a4a6f0cb46594d6b151a808026a0a8a982a41a367f70a7b4da21a987f11541d052cbe604cc94c9c33c3cdc235dd0a002c62835e8c55ea22a3f0c36b56cbb05ff6a29509f9f600e737033e778712de8c0",
                "blocknumber": "1"
            }
        ],
        "sealEngine": "NoProof",
        "_info": {
            "hash": "0x196bf03b119b65675fd528a84b736d764a3f194f5e470c90c8dd087295da60a0",
            "fixture-format": "blockchain_test",
            "comment": "`execution-specs` generated test",
            "filling-transition-tool": "2.19.0",
            "description": "Test EXTCODEHASH after calling a non-existent account.\n\nCall a non-existent address using each call type, then check\nEXTCODEHASH \u2014 it returns 0 because the account does not exist.",
            "url": "https://github.com/ethereum/execution-specs/blob/tests-snobal-devnet-5@v8037.0.0/tests/constantinople/eip1052_extcodehash/test_extcodehash.py#L1271",
            "metadata": {
                "opcode_count": {}
            },
            "reference-spec": "https://github.com/ethereum/EIPs/blob/master/EIPS/eip-1052.md",
            "reference-spec-version": "2dcbc7ce1563e9624e137e9d447374600af876fa"
        }
    }
}