{
    "tests/constantinople/eip1052_extcodehash/test_extcodehash.py::test_extcodecopy_zero_code[fork_Istanbul-blockchain_test_from_state_test-target_type_existing]": {
        "network": "Istanbul",
        "genesisBlockHeader": {
            "parentHash": "0x0000000000000000000000000000000000000000000000000000000000000000",
            "uncleHash": "0x1dcc4de8dec75d7aab85b567b6ccd41ad312451b948a7413f0a142fd40d49347",
            "coinbase": "0x0000000000000000000000000000000000000000",
            "stateRoot": "0x0f05b92d6362e8c85307beb4084552d763f5e1d1099a145702356e1fb3e648b2",
            "transactionsTrie": "0x56e81f171bcc55a6ff8345e692c0f86e5b48e01b996cadc001622fb5e363b421",
            "receiptTrie": "0x56e81f171bcc55a6ff8345e692c0f86e5b48e01b996cadc001622fb5e363b421",
            "bloom": "0x00000000000000000000000000000000000000000000000000000000000000000000000000000000000000000000000000000000000000000000000000000000000000000000000000000000000000000000000000000000000000000000000000000000000000000000000000000000000000000000000000000000000000000000000000000000000000000000000000000000000000000000000000000000000000000000000000000000000000000000000000000000000000000000000000000000000000000000000000000000000000000000000000000000000000000000000000000000000000000000000000000000000000000000000000000000",
            "difficulty": "0x020000",
            "number": "0x00",
            "gasLimit": "0x07270e00",
            "gasUsed": "0x00",
            "timestamp": "0x00",
            "extraData": "0x00",
            "mixHash": "0x0000000000000000000000000000000000000000000000000000000000000000",
            "nonce": "0x0000000000000000",
            "hash": "0xabc62f9ccebf340ab99401d0f5485fae37efeaef54eef2b1abb339dac2083c9b"
        },
        "pre": {
            "0xf36afef4dcb45e52f80cb039335952f77cec8960": {
                "nonce": "0x00",
                "balance": "0x01",
                "code": "0x",
                "storage": {}
            },
            "0x0f85f074ffd8a4b805c280b98054f0ee4e21cf0d": {
                "nonce": "0x01",
                "balance": "0x00",
                "code": "0x60206000600073f36afef4dcb45e52f80cb039335952f77cec89603c60005160005573f36afef4dcb45e52f80cb039335952f77cec89603b60015573f36afef4dcb45e52f80cb039335952f77cec89603f6002556000600060006000600073f36afef4dcb45e52f80cb039335952f77cec896061c350f2600355",
                "storage": {
                    "0x00": "0xba5e",
                    "0x01": "0xba5e"
                }
            },
            "0x1ad9bc24818784172ff393bb6f89f094d4d2ca29": {
                "nonce": "0x00",
                "balance": "0x3635c9adc5dea00000",
                "code": "0x",
                "storage": {}
            }
        },
        "postState": {
            "0xf36afef4dcb45e52f80cb039335952f77cec8960": {
                "nonce": "0x00",
                "balance": "0x01",
                "code": "0x",
                "storage": {}
            },
            "0x0f85f074ffd8a4b805c280b98054f0ee4e21cf0d": {
                "nonce": "0x01",
                "balance": "0x00",
                "code": "0x60206000600073f36afef4dcb45e52f80cb039335952f77cec89603c60005160005573f36afef4dcb45e52f80cb039335952f77cec89603b60015573f36afef4dcb45e52f80cb039335952f77cec89603f6002556000600060006000600073f36afef4dcb45e52f80cb039335952f77cec896061c350f2600355",
                "storage": {
                    "0x02": "0xc5d2460186f7233c927e7db2dcc703c0e500b653ca82273b7bfad8045d85a470",
                    "0x03": "0x01"
                }
            },
            "0x1ad9bc24818784172ff393bb6f89f094d4d2ca29": {
                "nonce": "0x01",
                "balance": "0x3635c9adc5de994e9a",
                "code": "0x",
                "storage": {}
            },
            "0x2adc25665018aa1fe0e6bc666dac8fc2697ff9ba": {
                "nonce": "0x00",
                "balance": "0x1bc16d674eceb166",
                "code": "0x",
                "storage": {}
            }
        },
        "lastblockhash": "0xd2c8c0184c55a05b69e653900399251fdcc783ab562da4c45b33f4b40892bef3",
        "config": {
            "network": "Istanbul",
            "chainid": "0x01"
        },
        "genesisRLP": "0xf901f9f901f4a00000000000000000000000000000000000000000000000000000000000000000a01dcc4de8dec75d7aab85b567b6ccd41ad312451b948a7413f0a142fd40d49347940000000000000000000000000000000000000000a00f05b92d6362e8c85307beb4084552d763f5e1d1099a145702356e1fb3e648b2a056e81f171bcc55a6ff8345e692c0f86e5b48e01b996cadc001622fb5e363b421a056e81f171bcc55a6ff8345e692c0f86e5b48e01b996cadc001622fb5e363b421b901000000000000000000000000000000000000000000000000000000000000000000000000000000000000000000000000000000000000000000000000000000000000000000000000000000000000000000000000000000000000000000000000000000000000000000000000000000000000000000000000000000000000000000000000000000000000000000000000000000000000000000000000000000000000000000000000000000000000000000000000000000000000000000000000000000000000000000000000000000000000000000000000000000000000000000000000000000000000000000000000000000000000000000000000000000000083020000808407270e00808000a00000000000000000000000000000000000000000000000000000000000000000880000000000000000c0c0",
        "blocks": [
            {
                "blockHeader": {
                    "parentHash": "0xabc62f9ccebf340ab99401d0f5485fae37efeaef54eef2b1abb339dac2083c9b",
                    "uncleHash": "0x1dcc4de8dec75d7aab85b567b6ccd41ad312451b948a7413f0a142fd40d49347",
                    "coinbase": "0x2adc25665018aa1fe0e6bc666dac8fc2697ff9ba",
                    "stateRoot": "0x7c10b49726630dd649878bbb0261ffa06029630c34eb3c7af286afe05a6854b4",
                    "transactionsTrie": "0x7e04ec86069bbeb6c095ebeef02034bd583c8e289b1f05de7a875deaec50a58f",
                    "receiptTrie": "0xbcde31a0a6d6614f3b283f37fe422897be00170f8744dfc5405d3f70549b2c9c",
                    "bloom": "0x00000000000000000000000000000000000000000000000000000000000000000000000000000000000000000000000000000000000000000000000000000000000000000000000000000000000000000000000000000000000000000000000000000000000000000000000000000000000000000000000000000000000000000000000000000000000000000000000000000000000000000000000000000000000000000000000000000000000000000000000000000000000000000000000000000000000000000000000000000000000000000000000000000000000000000000000000000000000000000000000000000000000000000000000000000000",
                    "difficulty": "0x020000",
                    "number": "0x01",
                    "gasLimit": "0x07270e00",
                    "gasUsed": "0xab57",
                    "timestamp": "0x03e8",
                    "extraData": "0x00",
                    "mixHash": "0x0000000000000000000000000000000000000000000000000000000000000000",
                    "nonce": "0x0000000000000000",
                    "hash": "0xd2c8c0184c55a05b69e653900399251fdcc783ab562da4c45b33f4b40892bef3"
                },
                "transactions": [
                    {
                        "type": "0x00",
                        "chainId": "0x01",
                        "nonce": "0x00",
                        "gasPrice": "0x0a",
                        "gasLimit": "0x0f4240",
                        "to": "0x0f85f074ffd8a4b805c280b98054f0ee4e21cf0d",
                        "value": "0x00",
                        "data": "0x",
                        "v": "0x26",
                        "r": "0x521d84b5fe1eef4df1e26e5d9faa09b37f5d302705e4a26a3bbe4b4e7799b936",
                        "s": "0x39ece41f8f5c99d12dd3d6902c5d4a8631477397c064e8f0ce5f1408b42523",
                        "sender": "0x1ad9bc24818784172ff393bb6f89f094d4d2ca29"
                    }
                ],
                "uncleHeaders": [],
                "receipts": [
                    {
                        "transactionHash": "0x7e068bb7f682a483c3e812fb60d90ad5eeefc51e915fb0bd02d7592799e4315e",
                        "type": "0x00",
                        "cumulativeGasUsed": "0xab57",
                        "bloom": "0x00000000000000000000000000000000000000000000000000000000000000000000000000000000000000000000000000000000000000000000000000000000000000000000000000000000000000000000000000000000000000000000000000000000000000000000000000000000000000000000000000000000000000000000000000000000000000000000000000000000000000000000000000000000000000000000000000000000000000000000000000000000000000000000000000000000000000000000000000000000000000000000000000000000000000000000000000000000000000000000000000000000000000000000000000000000",
                        "logs": [],
                        "status": true,
                        "rlp": "0xf901080182ab57b9010000000000000000000000000000000000000000000000000000000000000000000000000000000000000000000000000000000000000000000000000000000000000000000000000000000000000000000000000000000000000000000000000000000000000000000000000000000000000000000000000000000000000000000000000000000000000000000000000000000000000000000000000000000000000000000000000000000000000000000000000000000000000000000000000000000000000000000000000000000000000000000000000000000000000000000000000000000000000000000000000000000000000000000000000000000000c0"
                    }
                ],
                "rlp": "0xf9025ff901f8a0abc62f9ccebf340ab99401d0f5485fae37efeaef54eef2b1abb339dac2083c9ba01dcc4de8dec75d7aab85b567b6ccd41ad312451b948a7413f0a142fd40d49347942adc25665018aa1fe0e6bc666dac8fc2697ff9baa07c10b49726630dd649878bbb0261ffa06029630c34eb3c7af286afe05a6854b4a07e04ec86069bbeb6c095ebeef02034bd583c8e289b1f05de7a875deaec50a58fa0bcde31a0a6d6614f3b283f37fe422897be00170f8744dfc5405d3f70549b2c9cb901000000000000000000000000000000000000000000000000000000000000000000000000000000000000000000000000000000000000000000000000000000000000000000000000000000000000000000000000000000000000000000000000000000000000000000000000000000000000000000000000000000000000000000000000000000000000000000000000000000000000000000000000000000000000000000000000000000000000000000000000000000000000000000000000000000000000000000000000000000000000000000000000000000000000000000000000000000000000000000000000000000000000000000000000000000000083020000018407270e0082ab578203e800a00000000000000000000000000000000000000000000000000000000000000000880000000000000000f861f85f800a830f4240940f85f074ffd8a4b805c280b98054f0ee4e21cf0d808026a0521d84b5fe1eef4df1e26e5d9faa09b37f5d302705e4a26a3bbe4b4e7799b9369f39ece41f8f5c99d12dd3d6902c5d4a8631477397c064e8f0ce5f1408b42523c0",
                "blocknumber": "1"
            }
        ],
        "sealEngine": "NoProof",
        "_info": {
            "hash": "0xd23d28994e9b16cb16290b6da135db6e78e3dc05edb94e686841fb4a26cc332a",
            "fixture-format": "blockchain_test",
            "comment": "`execution-specs` generated test",
            "filling-transition-tool": "2.19.0",
            "description": "Test EXTCODECOPY/EXTCODESIZE/EXTCODEHASH of accounts with no code.\n\nTwo account types: nonexistent (no state at all) and existing\n(EOA with balance, no code). EXTCODECOPY writes nothing to memory\n(stays zero). EXTCODEHASH is zero for nonexistent, keccak256(\"\")\nfor existing accounts.\n\nTODO: The original test also intended to cover empty accounts\n(zero nonce, zero balance, no code), but such accounts cannot\nexist in post-Paris forks due to EIP-161 cleanup.",
            "url": "https://github.com/ethereum/execution-specs/blob/tests-bal@v5.6.1/tests/constantinople/eip1052_extcodehash/test_extcodehash.py#L1740",
            "metadata": {
                "opcode_count": {}
            },
            "reference-spec": "https://github.com/ethereum/EIPs/blob/master/EIPS/eip-1052.md",
            "reference-spec-version": "2dcbc7ce1563e9624e137e9d447374600af876fa"
        }
    },
    "tests/constantinople/eip1052_extcodehash/test_extcodehash.py::test_extcodecopy_zero_code[fork_Istanbul-blockchain_test_from_state_test-target_type_nonexistent]": {
        "network": "Istanbul",
        "genesisBlockHeader": {
            "parentHash": "0x0000000000000000000000000000000000000000000000000000000000000000",
            "uncleHash": "0x1dcc4de8dec75d7aab85b567b6ccd41ad312451b948a7413f0a142fd40d49347",
            "coinbase": "0x0000000000000000000000000000000000000000",
            "stateRoot": "0xfbfb110e23642190fc8897c0ed90fde8a5e2719901d17af34d2952cb6ca93974",
            "transactionsTrie": "0x56e81f171bcc55a6ff8345e692c0f86e5b48e01b996cadc001622fb5e363b421",
            "receiptTrie": "0x56e81f171bcc55a6ff8345e692c0f86e5b48e01b996cadc001622fb5e363b421",
            "bloom": "0x00000000000000000000000000000000000000000000000000000000000000000000000000000000000000000000000000000000000000000000000000000000000000000000000000000000000000000000000000000000000000000000000000000000000000000000000000000000000000000000000000000000000000000000000000000000000000000000000000000000000000000000000000000000000000000000000000000000000000000000000000000000000000000000000000000000000000000000000000000000000000000000000000000000000000000000000000000000000000000000000000000000000000000000000000000000",
            "difficulty": "0x020000",
            "number": "0x00",
            "gasLimit": "0x07270e00",
            "gasUsed": "0x00",
            "timestamp": "0x00",
            "extraData": "0x00",
            "mixHash": "0x0000000000000000000000000000000000000000000000000000000000000000",
            "nonce": "0x0000000000000000",
            "hash": "0x2b3247162e92153ed43d44b80cda73532c0fefc94fef90ffbf194514989faadd"
        },
        "pre": {
            "0xbfc367fdab43ded29e94839cf7e829f83ab78ca5": {
                "nonce": "0x01",
                "balance": "0x00",
                "code": "0x60206000600073c0f6dc9e5836f54caadbf59cc69346c508e1992b3c60005160005573c0f6dc9e5836f54caadbf59cc69346c508e1992b3b60015573c0f6dc9e5836f54caadbf59cc69346c508e1992b3f6002556000600060006000600073c0f6dc9e5836f54caadbf59cc69346c508e1992b61c350f2600355",
                "storage": {
                    "0x00": "0xba5e",
                    "0x01": "0xba5e",
                    "0x02": "0xba5e"
                }
            },
            "0x1ad9bc24818784172ff393bb6f89f094d4d2ca29": {
                "nonce": "0x00",
                "balance": "0x3635c9adc5dea00000",
                "code": "0x",
                "storage": {}
            }
        },
        "postState": {
            "0xbfc367fdab43ded29e94839cf7e829f83ab78ca5": {
                "nonce": "0x01",
                "balance": "0x00",
                "code": "0x60206000600073c0f6dc9e5836f54caadbf59cc69346c508e1992b3c60005160005573c0f6dc9e5836f54caadbf59cc69346c508e1992b3b60015573c0f6dc9e5836f54caadbf59cc69346c508e1992b3f6002556000600060006000600073c0f6dc9e5836f54caadbf59cc69346c508e1992b61c350f2600355",
                "storage": {
                    "0x03": "0x01"
                }
            },
            "0x1ad9bc24818784172ff393bb6f89f094d4d2ca29": {
                "nonce": "0x01",
                "balance": "0x3635c9adc5de9b8250",
                "code": "0x",
                "storage": {}
            },
            "0x2adc25665018aa1fe0e6bc666dac8fc2697ff9ba": {
                "nonce": "0x00",
                "balance": "0x1bc16d674ecc7db0",
                "code": "0x",
                "storage": {}
            }
        },
        "lastblockhash": "0xf3df4d194b3d85f26fd826ce8de628d5824e53eac21d9aef2d406487f5a27ecd",
        "config": {
            "network": "Istanbul",
            "chainid": "0x01"
        },
        "genesisRLP": "0xf901f9f901f4a00000000000000000000000000000000000000000000000000000000000000000a01dcc4de8dec75d7aab85b567b6ccd41ad312451b948a7413f0a142fd40d49347940000000000000000000000000000000000000000a0fbfb110e23642190fc8897c0ed90fde8a5e2719901d17af34d2952cb6ca93974a056e81f171bcc55a6ff8345e692c0f86e5b48e01b996cadc001622fb5e363b421a056e81f171bcc55a6ff8345e692c0f86e5b48e01b996cadc001622fb5e363b421b901000000000000000000000000000000000000000000000000000000000000000000000000000000000000000000000000000000000000000000000000000000000000000000000000000000000000000000000000000000000000000000000000000000000000000000000000000000000000000000000000000000000000000000000000000000000000000000000000000000000000000000000000000000000000000000000000000000000000000000000000000000000000000000000000000000000000000000000000000000000000000000000000000000000000000000000000000000000000000000000000000000000000000000000000000000000083020000808407270e00808000a00000000000000000000000000000000000000000000000000000000000000000880000000000000000c0c0",
        "blocks": [
            {
                "blockHeader": {
                    "parentHash": "0x2b3247162e92153ed43d44b80cda73532c0fefc94fef90ffbf194514989faadd",
                    "uncleHash": "0x1dcc4de8dec75d7aab85b567b6ccd41ad312451b948a7413f0a142fd40d49347",
                    "coinbase": "0x2adc25665018aa1fe0e6bc666dac8fc2697ff9ba",
                    "stateRoot": "0x2be30fe5e40418b961589f1f4e57b264192c9887f76d4ca660e4a164d3030be6",
                    "transactionsTrie": "0x11b238e4127307f87998be3c328633baa02bef2adeec8ec49d46000dc054b313",
                    "receiptTrie": "0x535e157e2c6d99614bfdd50c135d541261759c0cbd4012bfa16350c5ed58f7a8",
                    "bloom": "0x00000000000000000000000000000000000000000000000000000000000000000000000000000000000000000000000000000000000000000000000000000000000000000000000000000000000000000000000000000000000000000000000000000000000000000000000000000000000000000000000000000000000000000000000000000000000000000000000000000000000000000000000000000000000000000000000000000000000000000000000000000000000000000000000000000000000000000000000000000000000000000000000000000000000000000000000000000000000000000000000000000000000000000000000000000000",
                    "difficulty": "0x020000",
                    "number": "0x01",
                    "gasLimit": "0x07270e00",
                    "gasUsed": "0x72f8",
                    "timestamp": "0x03e8",
                    "extraData": "0x00",
                    "mixHash": "0x0000000000000000000000000000000000000000000000000000000000000000",
                    "nonce": "0x0000000000000000",
                    "hash": "0xf3df4d194b3d85f26fd826ce8de628d5824e53eac21d9aef2d406487f5a27ecd"
                },
                "transactions": [
                    {
                        "type": "0x00",
                        "chainId": "0x01",
                        "nonce": "0x00",
                        "gasPrice": "0x0a",
                        "gasLimit": "0x0f4240",
                        "to": "0xbfc367fdab43ded29e94839cf7e829f83ab78ca5",
                        "value": "0x00",
                        "data": "0x",
                        "v": "0x26",
                        "r": "0xd90a868336eff58f4f32d3731bde87e8cf0afb0e51a2fc9603e9218135d63cda",
                        "s": "0x7e6805a3288dba22410b72cf3341dc608fed9595414c858b09258f840345596f",
                        "sender": "0x1ad9bc24818784172ff393bb6f89f094d4d2ca29"
                    }
                ],
                "uncleHeaders": [],
                "receipts": [
                    {
                        "transactionHash": "0x448691a6d7d2f200ee28c07f8eb8445ce8a7d0e39f449bffeff48eab79e5e195",
                        "type": "0x00",
                        "cumulativeGasUsed": "0x72f8",
                        "bloom": "0x00000000000000000000000000000000000000000000000000000000000000000000000000000000000000000000000000000000000000000000000000000000000000000000000000000000000000000000000000000000000000000000000000000000000000000000000000000000000000000000000000000000000000000000000000000000000000000000000000000000000000000000000000000000000000000000000000000000000000000000000000000000000000000000000000000000000000000000000000000000000000000000000000000000000000000000000000000000000000000000000000000000000000000000000000000000",
                        "logs": [],
                        "status": true,
                        "rlp": "0xf90108018272f8b9010000000000000000000000000000000000000000000000000000000000000000000000000000000000000000000000000000000000000000000000000000000000000000000000000000000000000000000000000000000000000000000000000000000000000000000000000000000000000000000000000000000000000000000000000000000000000000000000000000000000000000000000000000000000000000000000000000000000000000000000000000000000000000000000000000000000000000000000000000000000000000000000000000000000000000000000000000000000000000000000000000000000000000000000000000000000c0"
                    }
                ],
                "rlp": "0xf90260f901f8a02b3247162e92153ed43d44b80cda73532c0fefc94fef90ffbf194514989faadda01dcc4de8dec75d7aab85b567b6ccd41ad312451b948a7413f0a142fd40d49347942adc25665018aa1fe0e6bc666dac8fc2697ff9baa02be30fe5e40418b961589f1f4e57b264192c9887f76d4ca660e4a164d3030be6a011b238e4127307f87998be3c328633baa02bef2adeec8ec49d46000dc054b313a0535e157e2c6d99614bfdd50c135d541261759c0cbd4012bfa16350c5ed58f7a8b901000000000000000000000000000000000000000000000000000000000000000000000000000000000000000000000000000000000000000000000000000000000000000000000000000000000000000000000000000000000000000000000000000000000000000000000000000000000000000000000000000000000000000000000000000000000000000000000000000000000000000000000000000000000000000000000000000000000000000000000000000000000000000000000000000000000000000000000000000000000000000000000000000000000000000000000000000000000000000000000000000000000000000000000000000000000083020000018407270e008272f88203e800a00000000000000000000000000000000000000000000000000000000000000000880000000000000000f862f860800a830f424094bfc367fdab43ded29e94839cf7e829f83ab78ca5808026a0d90a868336eff58f4f32d3731bde87e8cf0afb0e51a2fc9603e9218135d63cdaa07e6805a3288dba22410b72cf3341dc608fed9595414c858b09258f840345596fc0",
                "blocknumber": "1"
            }
        ],
        "sealEngine": "NoProof",
        "_info": {
            "hash": "0x9705314f8a6fa513acf221f1bbd5df9ba4dd5212c796f55e8adb6e3a58ca16e5",
            "fixture-format": "blockchain_test",
            "comment": "`execution-specs` generated test",
            "filling-transition-tool": "2.19.0",
            "description": "Test EXTCODECOPY/EXTCODESIZE/EXTCODEHASH of accounts with no code.\n\nTwo account types: nonexistent (no state at all) and existing\n(EOA with balance, no code). EXTCODECOPY writes nothing to memory\n(stays zero). EXTCODEHASH is zero for nonexistent, keccak256(\"\")\nfor existing accounts.\n\nTODO: The original test also intended to cover empty accounts\n(zero nonce, zero balance, no code), but such accounts cannot\nexist in post-Paris forks due to EIP-161 cleanup.",
            "url": "https://github.com/ethereum/execution-specs/blob/tests-bal@v5.6.1/tests/constantinople/eip1052_extcodehash/test_extcodehash.py#L1740",
            "metadata": {
                "opcode_count": {}
            },
            "reference-spec": "https://github.com/ethereum/EIPs/blob/master/EIPS/eip-1052.md",
            "reference-spec-version": "2dcbc7ce1563e9624e137e9d447374600af876fa"
        }
    }
}