{
    "tests/constantinople/eip1052_extcodehash/test_extcodehash.py::test_extcodehash_self_in_init[fork_Istanbul-blockchain_test_from_state_test-create_opcode_CREATE2]": {
        "network": "Istanbul",
        "genesisBlockHeader": {
            "parentHash": "0x0000000000000000000000000000000000000000000000000000000000000000",
            "uncleHash": "0x1dcc4de8dec75d7aab85b567b6ccd41ad312451b948a7413f0a142fd40d49347",
            "coinbase": "0x0000000000000000000000000000000000000000",
            "stateRoot": "0x7367564407f9344a567097ea5c65182c4ecfbf6bf7158164861b712819e4b82f",
            "transactionsTrie": "0x56e81f171bcc55a6ff8345e692c0f86e5b48e01b996cadc001622fb5e363b421",
            "receiptTrie": "0x56e81f171bcc55a6ff8345e692c0f86e5b48e01b996cadc001622fb5e363b421",
            "bloom": "0x00000000000000000000000000000000000000000000000000000000000000000000000000000000000000000000000000000000000000000000000000000000000000000000000000000000000000000000000000000000000000000000000000000000000000000000000000000000000000000000000000000000000000000000000000000000000000000000000000000000000000000000000000000000000000000000000000000000000000000000000000000000000000000000000000000000000000000000000000000000000000000000000000000000000000000000000000000000000000000000000000000000000000000000000000000000",
            "difficulty": "0x020000",
            "number": "0x00",
            "gasLimit": "0x07270e00",
            "gasUsed": "0x00",
            "timestamp": "0x00",
            "extraData": "0x00",
            "mixHash": "0x0000000000000000000000000000000000000000000000000000000000000000",
            "nonce": "0x0000000000000000",
            "hash": "0x0ffc633914f4fc86943f8014805779f074f315aae22995e4344d13578da4f20a"
        },
        "pre": {
            "0xe7e37c39a88e5712fab3ebb273c4c2f90cc64a61": {
                "nonce": "0x01",
                "balance": "0x00",
                "code": "0x36600060003760003660006000f500",
                "storage": {}
            },
            "0x1ad9bc24818784172ff393bb6f89f094d4d2ca29": {
                "nonce": "0x00",
                "balance": "0x3635c9adc5dea00000",
                "code": "0x",
                "storage": {}
            }
        },
        "postState": {
            "0xe7e37c39a88e5712fab3ebb273c4c2f90cc64a61": {
                "nonce": "0x02",
                "balance": "0x00",
                "code": "0x36600060003760003660006000f500",
                "storage": {}
            },
            "0x1ad9bc24818784172ff393bb6f89f094d4d2ca29": {
                "nonce": "0x01",
                "balance": "0x3635c9adc5de947c94",
                "code": "0x",
                "storage": {}
            },
            "0x91349fa62e9c21deb9cf1382628ac909d3ff75f0": {
                "nonce": "0x01",
                "balance": "0x00",
                "code": "0x",
                "storage": {
                    "0x00": "0xc5d2460186f7233c927e7db2dcc703c0e500b653ca82273b7bfad8045d85a470"
                }
            },
            "0x2adc25665018aa1fe0e6bc666dac8fc2697ff9ba": {
                "nonce": "0x00",
                "balance": "0x1bc16d674ed3836c",
                "code": "0x",
                "storage": {}
            }
        },
        "lastblockhash": "0xb4fd2ab1a171d2bc0328c71b2d4cb0a109b4ae1675c458e1ef047ef6ed49270a",
        "config": {
            "network": "Istanbul",
            "chainid": "0x01"
        },
        "genesisRLP": "0xf901f9f901f4a00000000000000000000000000000000000000000000000000000000000000000a01dcc4de8dec75d7aab85b567b6ccd41ad312451b948a7413f0a142fd40d49347940000000000000000000000000000000000000000a07367564407f9344a567097ea5c65182c4ecfbf6bf7158164861b712819e4b82fa056e81f171bcc55a6ff8345e692c0f86e5b48e01b996cadc001622fb5e363b421a056e81f171bcc55a6ff8345e692c0f86e5b48e01b996cadc001622fb5e363b421b901000000000000000000000000000000000000000000000000000000000000000000000000000000000000000000000000000000000000000000000000000000000000000000000000000000000000000000000000000000000000000000000000000000000000000000000000000000000000000000000000000000000000000000000000000000000000000000000000000000000000000000000000000000000000000000000000000000000000000000000000000000000000000000000000000000000000000000000000000000000000000000000000000000000000000000000000000000000000000000000000000000000000000000000000000000000083020000808407270e00808000a00000000000000000000000000000000000000000000000000000000000000000880000000000000000c0c0",
        "blocks": [
            {
                "blockHeader": {
                    "parentHash": "0x0ffc633914f4fc86943f8014805779f074f315aae22995e4344d13578da4f20a",
                    "uncleHash": "0x1dcc4de8dec75d7aab85b567b6ccd41ad312451b948a7413f0a142fd40d49347",
                    "coinbase": "0x2adc25665018aa1fe0e6bc666dac8fc2697ff9ba",
                    "stateRoot": "0x417e9ddc3370a48b46d2209ff4fd35a2671f744b62b9bd5d1c94c784d03c547d",
                    "transactionsTrie": "0x666a4b9fd7e17bbf2bebe9b268d6308cfec651e67d25de11b211524fb13c4fb0",
                    "receiptTrie": "0x1979018fcc794ebfb9918bfc042a16d41df7ca4b227a5075233ed95809f0ff61",
                    "bloom": "0x00000000000000000000000000000000000000000000000000000000000000000000000000000000000000000000000000000000000000000000000000000000000000000000000000000000000000000000000000000000000000000000000000000000000000000000000000000000000000000000000000000000000000000000000000000000000000000000000000000000000000000000000000000000000000000000000000000000000000000000000000000000000000000000000000000000000000000000000000000000000000000000000000000000000000000000000000000000000000000000000000000000000000000000000000000000",
                    "difficulty": "0x020000",
                    "number": "0x01",
                    "gasLimit": "0x07270e00",
                    "gasUsed": "0x0126be",
                    "timestamp": "0x03e8",
                    "extraData": "0x00",
                    "mixHash": "0x0000000000000000000000000000000000000000000000000000000000000000",
                    "nonce": "0x0000000000000000",
                    "hash": "0xb4fd2ab1a171d2bc0328c71b2d4cb0a109b4ae1675c458e1ef047ef6ed49270a"
                },
                "transactions": [
                    {
                        "type": "0x00",
                        "chainId": "0x01",
                        "nonce": "0x00",
                        "gasPrice": "0x0a",
                        "gasLimit": "0x0f4240",
                        "to": "0xe7e37c39a88e5712fab3ebb273c4c2f90cc64a61",
                        "value": "0x00",
                        "data": "0x303f600055303b60015560006000f3",
                        "v": "0x26",
                        "r": "0xdb79f79c2daf97e1d7e73812e1f47e355433e31565121621a5b88ea5ff9dbe18",
                        "s": "0x2e8ae4fdf9c8404da40d643cbe582eb0b8b97e8c0d1fdb967a43e91ad4c02e76",
                        "sender": "0x1ad9bc24818784172ff393bb6f89f094d4d2ca29"
                    }
                ],
                "uncleHeaders": [],
                "receipts": [
                    {
                        "transactionHash": "0xba68d418e73774ed94e58bf1ada784509d949b32c1991cc01a5b3de91a15e5c8",
                        "type": "0x00",
                        "cumulativeGasUsed": "0x0126be",
                        "bloom": "0x00000000000000000000000000000000000000000000000000000000000000000000000000000000000000000000000000000000000000000000000000000000000000000000000000000000000000000000000000000000000000000000000000000000000000000000000000000000000000000000000000000000000000000000000000000000000000000000000000000000000000000000000000000000000000000000000000000000000000000000000000000000000000000000000000000000000000000000000000000000000000000000000000000000000000000000000000000000000000000000000000000000000000000000000000000000",
                        "logs": [],
                        "status": true,
                        "rlp": "0xf9010901830126beb9010000000000000000000000000000000000000000000000000000000000000000000000000000000000000000000000000000000000000000000000000000000000000000000000000000000000000000000000000000000000000000000000000000000000000000000000000000000000000000000000000000000000000000000000000000000000000000000000000000000000000000000000000000000000000000000000000000000000000000000000000000000000000000000000000000000000000000000000000000000000000000000000000000000000000000000000000000000000000000000000000000000000000000000000000000000000c0"
                    }
                ],
                "rlp": "0xf90270f901f9a00ffc633914f4fc86943f8014805779f074f315aae22995e4344d13578da4f20aa01dcc4de8dec75d7aab85b567b6ccd41ad312451b948a7413f0a142fd40d49347942adc25665018aa1fe0e6bc666dac8fc2697ff9baa0417e9ddc3370a48b46d2209ff4fd35a2671f744b62b9bd5d1c94c784d03c547da0666a4b9fd7e17bbf2bebe9b268d6308cfec651e67d25de11b211524fb13c4fb0a01979018fcc794ebfb9918bfc042a16d41df7ca4b227a5075233ed95809f0ff61b901000000000000000000000000000000000000000000000000000000000000000000000000000000000000000000000000000000000000000000000000000000000000000000000000000000000000000000000000000000000000000000000000000000000000000000000000000000000000000000000000000000000000000000000000000000000000000000000000000000000000000000000000000000000000000000000000000000000000000000000000000000000000000000000000000000000000000000000000000000000000000000000000000000000000000000000000000000000000000000000000000000000000000000000000000000000083020000018407270e00830126be8203e800a00000000000000000000000000000000000000000000000000000000000000000880000000000000000f871f86f800a830f424094e7e37c39a88e5712fab3ebb273c4c2f90cc64a61808f303f600055303b60015560006000f326a0db79f79c2daf97e1d7e73812e1f47e355433e31565121621a5b88ea5ff9dbe18a02e8ae4fdf9c8404da40d643cbe582eb0b8b97e8c0d1fdb967a43e91ad4c02e76c0",
                "blocknumber": "1"
            }
        ],
        "sealEngine": "NoProof",
        "_info": {
            "hash": "0xf5053177dcdf2f307c97df66e98ead15c4d5ff3ef1a9db9995b74075387a0972",
            "fixture-format": "blockchain_test",
            "comment": "`execution-specs` generated test",
            "filling-transition-tool": "2.19.0",
            "description": "Test EXTCODEHASH/EXTCODESIZE of self during init code.\n\nDuring init code execution the account exists but has no code yet,\nso EXTCODEHASH(ADDRESS) returns keccak256(\"\") and\nEXTCODESIZE(ADDRESS) returns 0.",
            "url": "https://github.com/ethereum/execution-specs/blob/tests-bal@v5.6.0/tests/constantinople/eip1052_extcodehash/test_extcodehash.py#L1053",
            "metadata": {
                "opcode_count": {}
            },
            "reference-spec": "https://github.com/ethereum/EIPs/blob/master/EIPS/eip-1052.md",
            "reference-spec-version": "2dcbc7ce1563e9624e137e9d447374600af876fa"
        }
    },
    "tests/constantinople/eip1052_extcodehash/test_extcodehash.py::test_extcodehash_self_in_init[fork_Istanbul-blockchain_test_from_state_test-create_opcode_CREATE]": {
        "network": "Istanbul",
        "genesisBlockHeader": {
            "parentHash": "0x0000000000000000000000000000000000000000000000000000000000000000",
            "uncleHash": "0x1dcc4de8dec75d7aab85b567b6ccd41ad312451b948a7413f0a142fd40d49347",
            "coinbase": "0x0000000000000000000000000000000000000000",
            "stateRoot": "0x3300b4724853c9228c4fcafca907f17b155327a2a09261d22f0230c82a6d4127",
            "transactionsTrie": "0x56e81f171bcc55a6ff8345e692c0f86e5b48e01b996cadc001622fb5e363b421",
            "receiptTrie": "0x56e81f171bcc55a6ff8345e692c0f86e5b48e01b996cadc001622fb5e363b421",
            "bloom": "0x00000000000000000000000000000000000000000000000000000000000000000000000000000000000000000000000000000000000000000000000000000000000000000000000000000000000000000000000000000000000000000000000000000000000000000000000000000000000000000000000000000000000000000000000000000000000000000000000000000000000000000000000000000000000000000000000000000000000000000000000000000000000000000000000000000000000000000000000000000000000000000000000000000000000000000000000000000000000000000000000000000000000000000000000000000000",
            "difficulty": "0x020000",
            "number": "0x00",
            "gasLimit": "0x07270e00",
            "gasUsed": "0x00",
            "timestamp": "0x00",
            "extraData": "0x00",
            "mixHash": "0x0000000000000000000000000000000000000000000000000000000000000000",
            "nonce": "0x0000000000000000",
            "hash": "0xbf88d8719c432c661d3be100d737cb2589e36779e5b7f829f0d4cd39d416955b"
        },
        "pre": {
            "0x920b80d1e41446e87a14a2fe0f6b503cd91afe93": {
                "nonce": "0x01",
                "balance": "0x00",
                "code": "0x3660006000373660006000f000",
                "storage": {}
            },
            "0x1ad9bc24818784172ff393bb6f89f094d4d2ca29": {
                "nonce": "0x00",
                "balance": "0x3635c9adc5dea00000",
                "code": "0x",
                "storage": {}
            }
        },
        "postState": {
            "0x920b80d1e41446e87a14a2fe0f6b503cd91afe93": {
                "nonce": "0x02",
                "balance": "0x00",
                "code": "0x3660006000373660006000f000",
                "storage": {}
            },
            "0x1ad9bc24818784172ff393bb6f89f094d4d2ca29": {
                "nonce": "0x01",
                "balance": "0x3635c9adc5de947cee",
                "code": "0x",
                "storage": {}
            },
            "0xe62af3f0b87739c4995bbcbac9c7f769a084ae92": {
                "nonce": "0x01",
                "balance": "0x00",
                "code": "0x",
                "storage": {
                    "0x00": "0xc5d2460186f7233c927e7db2dcc703c0e500b653ca82273b7bfad8045d85a470"
                }
            },
            "0x2adc25665018aa1fe0e6bc666dac8fc2697ff9ba": {
                "nonce": "0x00",
                "balance": "0x1bc16d674ed38312",
                "code": "0x",
                "storage": {}
            }
        },
        "lastblockhash": "0x35f07fde504f161eb08af6298fd0649ee602881a63fd2c003d5e67d11a4c137f",
        "config": {
            "network": "Istanbul",
            "chainid": "0x01"
        },
        "genesisRLP": "0xf901f9f901f4a00000000000000000000000000000000000000000000000000000000000000000a01dcc4de8dec75d7aab85b567b6ccd41ad312451b948a7413f0a142fd40d49347940000000000000000000000000000000000000000a03300b4724853c9228c4fcafca907f17b155327a2a09261d22f0230c82a6d4127a056e81f171bcc55a6ff8345e692c0f86e5b48e01b996cadc001622fb5e363b421a056e81f171bcc55a6ff8345e692c0f86e5b48e01b996cadc001622fb5e363b421b901000000000000000000000000000000000000000000000000000000000000000000000000000000000000000000000000000000000000000000000000000000000000000000000000000000000000000000000000000000000000000000000000000000000000000000000000000000000000000000000000000000000000000000000000000000000000000000000000000000000000000000000000000000000000000000000000000000000000000000000000000000000000000000000000000000000000000000000000000000000000000000000000000000000000000000000000000000000000000000000000000000000000000000000000000000000083020000808407270e00808000a00000000000000000000000000000000000000000000000000000000000000000880000000000000000c0c0",
        "blocks": [
            {
                "blockHeader": {
                    "parentHash": "0xbf88d8719c432c661d3be100d737cb2589e36779e5b7f829f0d4cd39d416955b",
                    "uncleHash": "0x1dcc4de8dec75d7aab85b567b6ccd41ad312451b948a7413f0a142fd40d49347",
                    "coinbase": "0x2adc25665018aa1fe0e6bc666dac8fc2697ff9ba",
                    "stateRoot": "0x3e43ae367b99aa2aa16623d5a66f1ef4e07a0ff4233d18644dd4ee14f7af8c59",
                    "transactionsTrie": "0x3e66f1e60d41d7f49b19e771221eeb136ca48a861af7fb2d9a34c2c717f47f7a",
                    "receiptTrie": "0xb8f5939efb0b3dd3832f3fd81b2b4ceb28ba17b9c12269c25f16dd079fa26f32",
                    "bloom": "0x00000000000000000000000000000000000000000000000000000000000000000000000000000000000000000000000000000000000000000000000000000000000000000000000000000000000000000000000000000000000000000000000000000000000000000000000000000000000000000000000000000000000000000000000000000000000000000000000000000000000000000000000000000000000000000000000000000000000000000000000000000000000000000000000000000000000000000000000000000000000000000000000000000000000000000000000000000000000000000000000000000000000000000000000000000000",
                    "difficulty": "0x020000",
                    "number": "0x01",
                    "gasLimit": "0x07270e00",
                    "gasUsed": "0x0126b5",
                    "timestamp": "0x03e8",
                    "extraData": "0x00",
                    "mixHash": "0x0000000000000000000000000000000000000000000000000000000000000000",
                    "nonce": "0x0000000000000000",
                    "hash": "0x35f07fde504f161eb08af6298fd0649ee602881a63fd2c003d5e67d11a4c137f"
                },
                "transactions": [
                    {
                        "type": "0x00",
                        "chainId": "0x01",
                        "nonce": "0x00",
                        "gasPrice": "0x0a",
                        "gasLimit": "0x0f4240",
                        "to": "0x920b80d1e41446e87a14a2fe0f6b503cd91afe93",
                        "value": "0x00",
                        "data": "0x303f600055303b60015560006000f3",
                        "v": "0x25",
                        "r": "0xf438ec22f0ef35669038e436fbb0f26c65e6c3a6cc870258f3f8a0208649d063",
                        "s": "0x1679338e02b4e25a7b37c7004d4b8a2de352c6027a0fc19ed58fa25cff455a6a",
                        "sender": "0x1ad9bc24818784172ff393bb6f89f094d4d2ca29"
                    }
                ],
                "uncleHeaders": [],
                "receipts": [
                    {
                        "transactionHash": "0xc624039a04afa6358ef4549cc37a3daa383e936a6e856b5bb8656d21bb129ad0",
                        "type": "0x00",
                        "cumulativeGasUsed": "0x0126b5",
                        "bloom": "0x00000000000000000000000000000000000000000000000000000000000000000000000000000000000000000000000000000000000000000000000000000000000000000000000000000000000000000000000000000000000000000000000000000000000000000000000000000000000000000000000000000000000000000000000000000000000000000000000000000000000000000000000000000000000000000000000000000000000000000000000000000000000000000000000000000000000000000000000000000000000000000000000000000000000000000000000000000000000000000000000000000000000000000000000000000000",
                        "logs": [],
                        "status": true,
                        "rlp": "0xf9010901830126b5b9010000000000000000000000000000000000000000000000000000000000000000000000000000000000000000000000000000000000000000000000000000000000000000000000000000000000000000000000000000000000000000000000000000000000000000000000000000000000000000000000000000000000000000000000000000000000000000000000000000000000000000000000000000000000000000000000000000000000000000000000000000000000000000000000000000000000000000000000000000000000000000000000000000000000000000000000000000000000000000000000000000000000000000000000000000000000c0"
                    }
                ],
                "rlp": "0xf90270f901f9a0bf88d8719c432c661d3be100d737cb2589e36779e5b7f829f0d4cd39d416955ba01dcc4de8dec75d7aab85b567b6ccd41ad312451b948a7413f0a142fd40d49347942adc25665018aa1fe0e6bc666dac8fc2697ff9baa03e43ae367b99aa2aa16623d5a66f1ef4e07a0ff4233d18644dd4ee14f7af8c59a03e66f1e60d41d7f49b19e771221eeb136ca48a861af7fb2d9a34c2c717f47f7aa0b8f5939efb0b3dd3832f3fd81b2b4ceb28ba17b9c12269c25f16dd079fa26f32b901000000000000000000000000000000000000000000000000000000000000000000000000000000000000000000000000000000000000000000000000000000000000000000000000000000000000000000000000000000000000000000000000000000000000000000000000000000000000000000000000000000000000000000000000000000000000000000000000000000000000000000000000000000000000000000000000000000000000000000000000000000000000000000000000000000000000000000000000000000000000000000000000000000000000000000000000000000000000000000000000000000000000000000000000000000000083020000018407270e00830126b58203e800a00000000000000000000000000000000000000000000000000000000000000000880000000000000000f871f86f800a830f424094920b80d1e41446e87a14a2fe0f6b503cd91afe93808f303f600055303b60015560006000f325a0f438ec22f0ef35669038e436fbb0f26c65e6c3a6cc870258f3f8a0208649d063a01679338e02b4e25a7b37c7004d4b8a2de352c6027a0fc19ed58fa25cff455a6ac0",
                "blocknumber": "1"
            }
        ],
        "sealEngine": "NoProof",
        "_info": {
            "hash": "0xf2385e7b195be56399f55014a5c0f55979633d6b0b781509e45375d2c4d44a78",
            "fixture-format": "blockchain_test",
            "comment": "`execution-specs` generated test",
            "filling-transition-tool": "2.19.0",
            "description": "Test EXTCODEHASH/EXTCODESIZE of self during init code.\n\nDuring init code execution the account exists but has no code yet,\nso EXTCODEHASH(ADDRESS) returns keccak256(\"\") and\nEXTCODESIZE(ADDRESS) returns 0.",
            "url": "https://github.com/ethereum/execution-specs/blob/tests-bal@v5.6.0/tests/constantinople/eip1052_extcodehash/test_extcodehash.py#L1053",
            "metadata": {
                "opcode_count": {}
            },
            "reference-spec": "https://github.com/ethereum/EIPs/blob/master/EIPS/eip-1052.md",
            "reference-spec-version": "2dcbc7ce1563e9624e137e9d447374600af876fa"
        }
    },
    "tests/constantinople/eip1052_extcodehash/test_extcodehash.py::test_extcodehash_self_in_init[fork_Istanbul-blockchain_test_from_state_test-create_tx]": {
        "network": "Istanbul",
        "genesisBlockHeader": {
            "parentHash": "0x0000000000000000000000000000000000000000000000000000000000000000",
            "uncleHash": "0x1dcc4de8dec75d7aab85b567b6ccd41ad312451b948a7413f0a142fd40d49347",
            "coinbase": "0x0000000000000000000000000000000000000000",
            "stateRoot": "0x4b555d9d75fa8b4e5f0bec2ff06c8fca800d261b6840bc7a516ab1c6282999a9",
            "transactionsTrie": "0x56e81f171bcc55a6ff8345e692c0f86e5b48e01b996cadc001622fb5e363b421",
            "receiptTrie": "0x56e81f171bcc55a6ff8345e692c0f86e5b48e01b996cadc001622fb5e363b421",
            "bloom": "0x00000000000000000000000000000000000000000000000000000000000000000000000000000000000000000000000000000000000000000000000000000000000000000000000000000000000000000000000000000000000000000000000000000000000000000000000000000000000000000000000000000000000000000000000000000000000000000000000000000000000000000000000000000000000000000000000000000000000000000000000000000000000000000000000000000000000000000000000000000000000000000000000000000000000000000000000000000000000000000000000000000000000000000000000000000000",
            "difficulty": "0x020000",
            "number": "0x00",
            "gasLimit": "0x07270e00",
            "gasUsed": "0x00",
            "timestamp": "0x00",
            "extraData": "0x00",
            "mixHash": "0x0000000000000000000000000000000000000000000000000000000000000000",
            "nonce": "0x0000000000000000",
            "hash": "0x86a74cabdcd962275e2a9b92d417c7a8305cb90ef1139936810bc360a639143f"
        },
        "pre": {
            "0x1ad9bc24818784172ff393bb6f89f094d4d2ca29": {
                "nonce": "0x00",
                "balance": "0x3635c9adc5dea00000",
                "code": "0x",
                "storage": {}
            }
        },
        "postState": {
            "0x1ad9bc24818784172ff393bb6f89f094d4d2ca29": {
                "nonce": "0x01",
                "balance": "0x3635c9adc5de947de8",
                "code": "0x",
                "storage": {}
            },
            "0x36bdd8886852759e2046e3bf4c290d5c29c81d82": {
                "nonce": "0x01",
                "balance": "0x00",
                "code": "0x",
                "storage": {
                    "0x00": "0xc5d2460186f7233c927e7db2dcc703c0e500b653ca82273b7bfad8045d85a470"
                }
            },
            "0x2adc25665018aa1fe0e6bc666dac8fc2697ff9ba": {
                "nonce": "0x00",
                "balance": "0x1bc16d674ed38218",
                "code": "0x",
                "storage": {}
            }
        },
        "lastblockhash": "0xc7fea3c0cb8d9cc1cb89a5b663786c577108277ee3a68de55f66af52c846714f",
        "config": {
            "network": "Istanbul",
            "chainid": "0x01"
        },
        "genesisRLP": "0xf901f9f901f4a00000000000000000000000000000000000000000000000000000000000000000a01dcc4de8dec75d7aab85b567b6ccd41ad312451b948a7413f0a142fd40d49347940000000000000000000000000000000000000000a04b555d9d75fa8b4e5f0bec2ff06c8fca800d261b6840bc7a516ab1c6282999a9a056e81f171bcc55a6ff8345e692c0f86e5b48e01b996cadc001622fb5e363b421a056e81f171bcc55a6ff8345e692c0f86e5b48e01b996cadc001622fb5e363b421b901000000000000000000000000000000000000000000000000000000000000000000000000000000000000000000000000000000000000000000000000000000000000000000000000000000000000000000000000000000000000000000000000000000000000000000000000000000000000000000000000000000000000000000000000000000000000000000000000000000000000000000000000000000000000000000000000000000000000000000000000000000000000000000000000000000000000000000000000000000000000000000000000000000000000000000000000000000000000000000000000000000000000000000000000000000000083020000808407270e00808000a00000000000000000000000000000000000000000000000000000000000000000880000000000000000c0c0",
        "blocks": [
            {
                "blockHeader": {
                    "parentHash": "0x86a74cabdcd962275e2a9b92d417c7a8305cb90ef1139936810bc360a639143f",
                    "uncleHash": "0x1dcc4de8dec75d7aab85b567b6ccd41ad312451b948a7413f0a142fd40d49347",
                    "coinbase": "0x2adc25665018aa1fe0e6bc666dac8fc2697ff9ba",
                    "stateRoot": "0x25754162197e889d1537af4700831fd14c6859629678a6b11cb09030538dc321",
                    "transactionsTrie": "0x39168450d7925f94d5271d6ab6877619488e8a66d071653b3aec76536d54a2c3",
                    "receiptTrie": "0x7aacf7474dfa611c7bb1540f27a8eeac27b7b38df40f9728e2656056e8304615",
                    "bloom": "0x00000000000000000000000000000000000000000000000000000000000000000000000000000000000000000000000000000000000000000000000000000000000000000000000000000000000000000000000000000000000000000000000000000000000000000000000000000000000000000000000000000000000000000000000000000000000000000000000000000000000000000000000000000000000000000000000000000000000000000000000000000000000000000000000000000000000000000000000000000000000000000000000000000000000000000000000000000000000000000000000000000000000000000000000000000000",
                    "difficulty": "0x020000",
                    "number": "0x01",
                    "gasLimit": "0x07270e00",
                    "gasUsed": "0x01269c",
                    "timestamp": "0x03e8",
                    "extraData": "0x00",
                    "mixHash": "0x0000000000000000000000000000000000000000000000000000000000000000",
                    "nonce": "0x0000000000000000",
                    "hash": "0xc7fea3c0cb8d9cc1cb89a5b663786c577108277ee3a68de55f66af52c846714f"
                },
                "transactions": [
                    {
                        "type": "0x00",
                        "chainId": "0x01",
                        "nonce": "0x00",
                        "gasPrice": "0x0a",
                        "gasLimit": "0x0f4240",
                        "value": "0x00",
                        "data": "0x303f600055303b60015560006000f3",
                        "v": "0x25",
                        "r": "0x067d9f895c7e6dca21b5a5b100b83ffe359c83f52de8fb604a030bfbec3edbe0",
                        "s": "0x04e0428cc780afd968740a76abc3648b5b8e0887f13cc016d144f7b5cc845c28",
                        "sender": "0x1ad9bc24818784172ff393bb6f89f094d4d2ca29",
                        "to": ""
                    }
                ],
                "uncleHeaders": [],
                "receipts": [
                    {
                        "transactionHash": "0x123d98452f94d42952a481d3c8f5bbdb27d034ba0a9287eb72633f81c89e5a7f",
                        "type": "0x00",
                        "cumulativeGasUsed": "0x01269c",
                        "bloom": "0x00000000000000000000000000000000000000000000000000000000000000000000000000000000000000000000000000000000000000000000000000000000000000000000000000000000000000000000000000000000000000000000000000000000000000000000000000000000000000000000000000000000000000000000000000000000000000000000000000000000000000000000000000000000000000000000000000000000000000000000000000000000000000000000000000000000000000000000000000000000000000000000000000000000000000000000000000000000000000000000000000000000000000000000000000000000",
                        "logs": [],
                        "status": true,
                        "rlp": "0xf90109018301269cb9010000000000000000000000000000000000000000000000000000000000000000000000000000000000000000000000000000000000000000000000000000000000000000000000000000000000000000000000000000000000000000000000000000000000000000000000000000000000000000000000000000000000000000000000000000000000000000000000000000000000000000000000000000000000000000000000000000000000000000000000000000000000000000000000000000000000000000000000000000000000000000000000000000000000000000000000000000000000000000000000000000000000000000000000000000000000c0"
                    }
                ],
                "rlp": "0xf9025cf901f9a086a74cabdcd962275e2a9b92d417c7a8305cb90ef1139936810bc360a639143fa01dcc4de8dec75d7aab85b567b6ccd41ad312451b948a7413f0a142fd40d49347942adc25665018aa1fe0e6bc666dac8fc2697ff9baa025754162197e889d1537af4700831fd14c6859629678a6b11cb09030538dc321a039168450d7925f94d5271d6ab6877619488e8a66d071653b3aec76536d54a2c3a07aacf7474dfa611c7bb1540f27a8eeac27b7b38df40f9728e2656056e8304615b901000000000000000000000000000000000000000000000000000000000000000000000000000000000000000000000000000000000000000000000000000000000000000000000000000000000000000000000000000000000000000000000000000000000000000000000000000000000000000000000000000000000000000000000000000000000000000000000000000000000000000000000000000000000000000000000000000000000000000000000000000000000000000000000000000000000000000000000000000000000000000000000000000000000000000000000000000000000000000000000000000000000000000000000000000000000083020000018407270e008301269c8203e800a00000000000000000000000000000000000000000000000000000000000000000880000000000000000f85df85b800a830f424080808f303f600055303b60015560006000f325a0067d9f895c7e6dca21b5a5b100b83ffe359c83f52de8fb604a030bfbec3edbe0a004e0428cc780afd968740a76abc3648b5b8e0887f13cc016d144f7b5cc845c28c0",
                "blocknumber": "1"
            }
        ],
        "sealEngine": "NoProof",
        "_info": {
            "hash": "0x64c23e061283fe33c3d4135cdcd1b881489c3852b5640c9334a3303e76dead63",
            "fixture-format": "blockchain_test",
            "comment": "`execution-specs` generated test",
            "filling-transition-tool": "2.19.0",
            "description": "Test EXTCODEHASH/EXTCODESIZE of self during init code.\n\nDuring init code execution the account exists but has no code yet,\nso EXTCODEHASH(ADDRESS) returns keccak256(\"\") and\nEXTCODESIZE(ADDRESS) returns 0.",
            "url": "https://github.com/ethereum/execution-specs/blob/tests-bal@v5.6.0/tests/constantinople/eip1052_extcodehash/test_extcodehash.py#L1053",
            "metadata": {
                "opcode_count": {}
            },
            "reference-spec": "https://github.com/ethereum/EIPs/blob/master/EIPS/eip-1052.md",
            "reference-spec-version": "2dcbc7ce1563e9624e137e9d447374600af876fa"
        }
    }
}