{
    "tests/constantinople/eip1052_extcodehash/test_extcodehash.py::test_extcodehash_empty_send_value[fork_Istanbul-blockchain_test_from_state_test]": {
        "network": "Istanbul",
        "genesisBlockHeader": {
            "parentHash": "0x0000000000000000000000000000000000000000000000000000000000000000",
            "uncleHash": "0x1dcc4de8dec75d7aab85b567b6ccd41ad312451b948a7413f0a142fd40d49347",
            "coinbase": "0x0000000000000000000000000000000000000000",
            "stateRoot": "0x449ba30487cf82a03dff71c176c85dac9e7d6ccbaf1bc558361fb97b931f4d4f",
            "transactionsTrie": "0x56e81f171bcc55a6ff8345e692c0f86e5b48e01b996cadc001622fb5e363b421",
            "receiptTrie": "0x56e81f171bcc55a6ff8345e692c0f86e5b48e01b996cadc001622fb5e363b421",
            "bloom": "0x00000000000000000000000000000000000000000000000000000000000000000000000000000000000000000000000000000000000000000000000000000000000000000000000000000000000000000000000000000000000000000000000000000000000000000000000000000000000000000000000000000000000000000000000000000000000000000000000000000000000000000000000000000000000000000000000000000000000000000000000000000000000000000000000000000000000000000000000000000000000000000000000000000000000000000000000000000000000000000000000000000000000000000000000000000000",
            "difficulty": "0x020000",
            "number": "0x00",
            "gasLimit": "0x07270e00",
            "gasUsed": "0x00",
            "timestamp": "0x00",
            "extraData": "0x00",
            "mixHash": "0x0000000000000000000000000000000000000000000000000000000000000000",
            "nonce": "0x0000000000000000",
            "hash": "0xf9e5ee23363f3c4c25b2ad4a97360718d51a7242164c92594ee92bf1ee35fd9d"
        },
        "pre": {
            "0x57607fae364c6099bda7b8b71035d1a547f6872f": {
                "nonce": "0x01",
                "balance": "0x0de0b6b3a7640000",
                "code": "0x73c0f6dc9e5836f54caadbf59cc69346c508e1992b3f6000556000600060006000600173c0f6dc9e5836f54caadbf59cc69346c508e1992b5af173c0f6dc9e5836f54caadbf59cc69346c508e1992b3f600155",
                "storage": {
                    "0x00": "0xba5e"
                }
            },
            "0x1ad9bc24818784172ff393bb6f89f094d4d2ca29": {
                "nonce": "0x00",
                "balance": "0x3635c9adc5dea00000",
                "code": "0x",
                "storage": {}
            }
        },
        "postState": {
            "0x57607fae364c6099bda7b8b71035d1a547f6872f": {
                "nonce": "0x01",
                "balance": "0x0de0b6b3a763ffff",
                "code": "0x73c0f6dc9e5836f54caadbf59cc69346c508e1992b3f6000556000600060006000600173c0f6dc9e5836f54caadbf59cc69346c508e1992b5af173c0f6dc9e5836f54caadbf59cc69346c508e1992b3f600155",
                "storage": {
                    "0x01": "0xc5d2460186f7233c927e7db2dcc703c0e500b653ca82273b7bfad8045d85a470"
                }
            },
            "0x1ad9bc24818784172ff393bb6f89f094d4d2ca29": {
                "nonce": "0x01",
                "balance": "0x3635c9adc5de961b80",
                "code": "0x",
                "storage": {}
            },
            "0xc0f6dc9e5836f54caadbf59cc69346c508e1992b": {
                "nonce": "0x00",
                "balance": "0x01",
                "code": "0x",
                "storage": {}
            },
            "0x2adc25665018aa1fe0e6bc666dac8fc2697ff9ba": {
                "nonce": "0x00",
                "balance": "0x1bc16d674ed1e480",
                "code": "0x",
                "storage": {}
            }
        },
        "lastblockhash": "0xf84788217f1457c604758121fe355ada54b3acfc4a20dca603a363276ba780cb",
        "config": {
            "network": "Istanbul",
            "chainid": "0x01"
        },
        "genesisRLP": "0xf901f9f901f4a00000000000000000000000000000000000000000000000000000000000000000a01dcc4de8dec75d7aab85b567b6ccd41ad312451b948a7413f0a142fd40d49347940000000000000000000000000000000000000000a0449ba30487cf82a03dff71c176c85dac9e7d6ccbaf1bc558361fb97b931f4d4fa056e81f171bcc55a6ff8345e692c0f86e5b48e01b996cadc001622fb5e363b421a056e81f171bcc55a6ff8345e692c0f86e5b48e01b996cadc001622fb5e363b421b901000000000000000000000000000000000000000000000000000000000000000000000000000000000000000000000000000000000000000000000000000000000000000000000000000000000000000000000000000000000000000000000000000000000000000000000000000000000000000000000000000000000000000000000000000000000000000000000000000000000000000000000000000000000000000000000000000000000000000000000000000000000000000000000000000000000000000000000000000000000000000000000000000000000000000000000000000000000000000000000000000000000000000000000000000000000083020000808407270e00808000a00000000000000000000000000000000000000000000000000000000000000000880000000000000000c0c0",
        "blocks": [
            {
                "blockHeader": {
                    "parentHash": "0xf9e5ee23363f3c4c25b2ad4a97360718d51a7242164c92594ee92bf1ee35fd9d",
                    "uncleHash": "0x1dcc4de8dec75d7aab85b567b6ccd41ad312451b948a7413f0a142fd40d49347",
                    "coinbase": "0x2adc25665018aa1fe0e6bc666dac8fc2697ff9ba",
                    "stateRoot": "0xa9a2ce74e3e0425dcfc80065149676cbee4529864af9084a6cb0d5dbb6d528a8",
                    "transactionsTrie": "0xc9a75d49dcc0e3df6c1317b005d51f07641a6bd7729b0045517388496bd43f18",
                    "receiptTrie": "0x84def3b60cfb8d0cd285d69ffb98b5fe0319a2f67588858dff836d97bc7c92a1",
                    "bloom": "0x00000000000000000000000000000000000000000000000000000000000000000000000000000000000000000000000000000000000000000000000000000000000000000000000000000000000000000000000000000000000000000000000000000000000000000000000000000000000000000000000000000000000000000000000000000000000000000000000000000000000000000000000000000000000000000000000000000000000000000000000000000000000000000000000000000000000000000000000000000000000000000000000000000000000000000000000000000000000000000000000000000000000000000000000000000000",
                    "difficulty": "0x020000",
                    "number": "0x01",
                    "gasLimit": "0x07270e00",
                    "gasUsed": "0xfd40",
                    "timestamp": "0x03e8",
                    "extraData": "0x00",
                    "mixHash": "0x0000000000000000000000000000000000000000000000000000000000000000",
                    "nonce": "0x0000000000000000",
                    "hash": "0xf84788217f1457c604758121fe355ada54b3acfc4a20dca603a363276ba780cb"
                },
                "transactions": [
                    {
                        "type": "0x00",
                        "chainId": "0x01",
                        "nonce": "0x00",
                        "gasPrice": "0x0a",
                        "gasLimit": "0x0f4240",
                        "to": "0x57607fae364c6099bda7b8b71035d1a547f6872f",
                        "value": "0x00",
                        "data": "0x",
                        "v": "0x26",
                        "r": "0xd3f5485681d511a25f7f3a23fd068e699ec47c7e920b2c657a2aa12b6c4538df",
                        "s": "0x70b3f682a4bd074774f116cfe544da66f8724128d817aa7f9e775a282f5e6eda",
                        "sender": "0x1ad9bc24818784172ff393bb6f89f094d4d2ca29"
                    }
                ],
                "uncleHeaders": [],
                "receipts": [
                    {
                        "transactionHash": "0xded2bb01d71e8742f57fffb0fb82658223740c90bafd9461bf787edfd5b10bd1",
                        "type": "0x00",
                        "cumulativeGasUsed": "0xfd40",
                        "bloom": "0x00000000000000000000000000000000000000000000000000000000000000000000000000000000000000000000000000000000000000000000000000000000000000000000000000000000000000000000000000000000000000000000000000000000000000000000000000000000000000000000000000000000000000000000000000000000000000000000000000000000000000000000000000000000000000000000000000000000000000000000000000000000000000000000000000000000000000000000000000000000000000000000000000000000000000000000000000000000000000000000000000000000000000000000000000000000",
                        "logs": [],
                        "status": true,
                        "rlp": "0xf901080182fd40b9010000000000000000000000000000000000000000000000000000000000000000000000000000000000000000000000000000000000000000000000000000000000000000000000000000000000000000000000000000000000000000000000000000000000000000000000000000000000000000000000000000000000000000000000000000000000000000000000000000000000000000000000000000000000000000000000000000000000000000000000000000000000000000000000000000000000000000000000000000000000000000000000000000000000000000000000000000000000000000000000000000000000000000000000000000000000c0"
                    }
                ],
                "rlp": "0xf90260f901f8a0f9e5ee23363f3c4c25b2ad4a97360718d51a7242164c92594ee92bf1ee35fd9da01dcc4de8dec75d7aab85b567b6ccd41ad312451b948a7413f0a142fd40d49347942adc25665018aa1fe0e6bc666dac8fc2697ff9baa0a9a2ce74e3e0425dcfc80065149676cbee4529864af9084a6cb0d5dbb6d528a8a0c9a75d49dcc0e3df6c1317b005d51f07641a6bd7729b0045517388496bd43f18a084def3b60cfb8d0cd285d69ffb98b5fe0319a2f67588858dff836d97bc7c92a1b901000000000000000000000000000000000000000000000000000000000000000000000000000000000000000000000000000000000000000000000000000000000000000000000000000000000000000000000000000000000000000000000000000000000000000000000000000000000000000000000000000000000000000000000000000000000000000000000000000000000000000000000000000000000000000000000000000000000000000000000000000000000000000000000000000000000000000000000000000000000000000000000000000000000000000000000000000000000000000000000000000000000000000000000000000000000083020000018407270e0082fd408203e800a00000000000000000000000000000000000000000000000000000000000000000880000000000000000f862f860800a830f42409457607fae364c6099bda7b8b71035d1a547f6872f808026a0d3f5485681d511a25f7f3a23fd068e699ec47c7e920b2c657a2aa12b6c4538dfa070b3f682a4bd074774f116cfe544da66f8724128d817aa7f9e775a282f5e6edac0",
                "blocknumber": "1"
            }
        ],
        "sealEngine": "NoProof",
        "_info": {
            "hash": "0x411b2340dc34081183e074d1661416be670ac6a5f611f2620d2457dbcfaee7b8",
            "fixture-format": "blockchain_test",
            "comment": "`execution-specs` generated test",
            "filling-transition-tool": "2.19.0",
            "description": "Test EXTCODEHASH of non-existent account before and after sending value.\n\nVerify that EXTCODEHASH transitions from 0 to keccak256(\"\") when\nthe account receives value within the same transaction.",
            "url": "https://github.com/ethereum/execution-specs/blob/tests-bal@v5.6.0/tests/constantinople/eip1052_extcodehash/test_extcodehash.py#L125",
            "metadata": {
                "opcode_count": {}
            },
            "reference-spec": "https://github.com/ethereum/EIPs/blob/master/EIPS/eip-1052.md",
            "reference-spec-version": "2dcbc7ce1563e9624e137e9d447374600af876fa"
        }
    }
}