{
    "tests/ported_static/stStaticCall/test_static_callcodecallcodecall_110_suicide_end.py::test_static_callcodecallcodecall_110_suicide_end[fork_Cancun-blockchain_test_from_state_test--v0]": {
        "network": "Cancun",
        "genesisBlockHeader": {
            "parentHash": "0x0000000000000000000000000000000000000000000000000000000000000000",
            "uncleHash": "0x1dcc4de8dec75d7aab85b567b6ccd41ad312451b948a7413f0a142fd40d49347",
            "coinbase": "0x0000000000000000000000000000000000000000",
            "stateRoot": "0x10bd849230124240c2a3768a0e768f736bf33daa38f0faded8fe7e12ab5e89b3",
            "transactionsTrie": "0x56e81f171bcc55a6ff8345e692c0f86e5b48e01b996cadc001622fb5e363b421",
            "receiptTrie": "0x56e81f171bcc55a6ff8345e692c0f86e5b48e01b996cadc001622fb5e363b421",
            "bloom": "0x00000000000000000000000000000000000000000000000000000000000000000000000000000000000000000000000000000000000000000000000000000000000000000000000000000000000000000000000000000000000000000000000000000000000000000000000000000000000000000000000000000000000000000000000000000000000000000000000000000000000000000000000000000000000000000000000000000000000000000000000000000000000000000000000000000000000000000000000000000000000000000000000000000000000000000000000000000000000000000000000000000000000000000000000000000000",
            "difficulty": "0x00",
            "number": "0x00",
            "gasLimit": "0x01c9c380",
            "gasUsed": "0x00",
            "timestamp": "0x00",
            "extraData": "0x00",
            "mixHash": "0x0000000000000000000000000000000000000000000000000000000000000000",
            "nonce": "0x0000000000000000",
            "baseFeePerGas": "0x0b",
            "withdrawalsRoot": "0x56e81f171bcc55a6ff8345e692c0f86e5b48e01b996cadc001622fb5e363b421",
            "blobGasUsed": "0x00",
            "excessBlobGas": "0x00",
            "parentBeaconBlockRoot": "0x0000000000000000000000000000000000000000000000000000000000000000",
            "hash": "0xea225a3e41e837f988a13a90fa947b84d9c15ba7c7c0d367deca24560fde2550"
        },
        "pre": {
            "0x000f3df6d732807ef1319fb7b8bb8522d0beac02": {
                "nonce": "0x01",
                "balance": "0x00",
                "code": "0x3373fffffffffffffffffffffffffffffffffffffffe14604d57602036146024575f5ffd5b5f35801560495762001fff810690815414603c575f5ffd5b62001fff01545f5260205ff35b5f5ffd5b62001fff42064281555f359062001fff015500",
                "storage": {}
            },
            "0x5f7fdf1f0d4f4ad14c6996ae17bb6698d22343d8": {
                "nonce": "0x00",
                "balance": "0x0de0b6b3a7640000",
                "code": "0x60406000604060007392d7028788caa240253b7b2a92386464690cdc72620249f0f46000555a60015500",
                "storage": {}
            },
            "0x92d7028788caa240253b7b2a92386464690cdc72": {
                "nonce": "0x00",
                "balance": "0x02540be400",
                "code": "0x604060006040600073b7770360e0b87603e3d9c87c866451760c95abca620186a0f400",
                "storage": {}
            },
            "0xb7770360e0b87603e3d9c87c866451760c95abca": {
                "nonce": "0x00",
                "balance": "0x02540be400",
                "code": "0x60406000604060007348e2d4c0b593bfebe5ddb4f13aa355b8bd83ddd361c350fa507392d7028788caa240253b7b2a92386464690cdc72ff00",
                "storage": {}
            },
            "0x48e2d4c0b593bfebe5ddb4f13aa355b8bd83ddd3": {
                "nonce": "0x00",
                "balance": "0x02540be400",
                "code": "0x600160035200",
                "storage": {}
            },
            "0xebaf50debf10e08302fe4280c32df010463ca297": {
                "nonce": "0x00",
                "balance": "0x0de0b6b3a7640000",
                "code": "0x",
                "storage": {}
            }
        },
        "postState": {
            "0x000f3df6d732807ef1319fb7b8bb8522d0beac02": {
                "nonce": "0x01",
                "balance": "0x00",
                "code": "0x3373fffffffffffffffffffffffffffffffffffffffe14604d57602036146024575f5ffd5b5f35801560495762001fff810690815414603c575f5ffd5b62001fff01545f5260205ff35b5f5ffd5b62001fff42064281555f359062001fff015500",
                "storage": {
                    "0x03e8": "0x03e8"
                }
            },
            "0x5f7fdf1f0d4f4ad14c6996ae17bb6698d22343d8": {
                "nonce": "0x00",
                "balance": "0x00",
                "code": "0x60406000604060007392d7028788caa240253b7b2a92386464690cdc72620249f0f46000555a60015500",
                "storage": {
                    "0x00": "0x01",
                    "0x01": "0x2cec03"
                }
            },
            "0x92d7028788caa240253b7b2a92386464690cdc72": {
                "nonce": "0x00",
                "balance": "0x0de0b6b5fb6fe400",
                "code": "0x604060006040600073b7770360e0b87603e3d9c87c866451760c95abca620186a0f400",
                "storage": {}
            },
            "0xb7770360e0b87603e3d9c87c866451760c95abca": {
                "nonce": "0x00",
                "balance": "0x02540be400",
                "code": "0x60406000604060007348e2d4c0b593bfebe5ddb4f13aa355b8bd83ddd361c350fa507392d7028788caa240253b7b2a92386464690cdc72ff00",
                "storage": {}
            },
            "0x48e2d4c0b593bfebe5ddb4f13aa355b8bd83ddd3": {
                "nonce": "0x00",
                "balance": "0x02540be400",
                "code": "0x600160035200",
                "storage": {}
            },
            "0xebaf50debf10e08302fe4280c32df010463ca297": {
                "nonce": "0x01",
                "balance": "0x0de0b6b3a7581538",
                "code": "0x",
                "storage": {}
            }
        },
        "lastblockhash": "0xe63ed09048a483db025198dc5c7e4aeb15b275a6d5bfa5e2c02fab4b3dbbce9c",
        "config": {
            "network": "Cancun",
            "chainid": "0x01",
            "blobSchedule": {
                "Cancun": {
                    "target": "0x03",
                    "max": "0x06",
                    "baseFeeUpdateFraction": "0x32f0ed"
                }
            }
        },
        "genesisRLP": "0xf9023cf90236a00000000000000000000000000000000000000000000000000000000000000000a01dcc4de8dec75d7aab85b567b6ccd41ad312451b948a7413f0a142fd40d49347940000000000000000000000000000000000000000a010bd849230124240c2a3768a0e768f736bf33daa38f0faded8fe7e12ab5e89b3a056e81f171bcc55a6ff8345e692c0f86e5b48e01b996cadc001622fb5e363b421a056e81f171bcc55a6ff8345e692c0f86e5b48e01b996cadc001622fb5e363b421b901000000000000000000000000000000000000000000000000000000000000000000000000000000000000000000000000000000000000000000000000000000000000000000000000000000000000000000000000000000000000000000000000000000000000000000000000000000000000000000000000000000000000000000000000000000000000000000000000000000000000000000000000000000000000000000000000000000000000000000000000000000000000000000000000000000000000000000000000000000000000000000000000000000000000000000000000000000000000000000000000000000000000000000000000000000000080808401c9c380808000a000000000000000000000000000000000000000000000000000000000000000008800000000000000000ba056e81f171bcc55a6ff8345e692c0f86e5b48e01b996cadc001622fb5e363b4218080a00000000000000000000000000000000000000000000000000000000000000000c0c0c0",
        "blocks": [
            {
                "blockHeader": {
                    "parentHash": "0xea225a3e41e837f988a13a90fa947b84d9c15ba7c7c0d367deca24560fde2550",
                    "uncleHash": "0x1dcc4de8dec75d7aab85b567b6ccd41ad312451b948a7413f0a142fd40d49347",
                    "coinbase": "0x2adc25665018aa1fe0e6bc666dac8fc2697ff9ba",
                    "stateRoot": "0x5bfeb85b57e7aa400de9ce10d6f6a931e56ffb7534fe07ae52ecc351d38cc3a4",
                    "transactionsTrie": "0xb84febf5a00ee6390587468691706fea6cefadaacfb9dbeea9a53a899c6d55e0",
                    "receiptTrie": "0x1e9051d42be3d38179bbd1fa11c11b3a28ca87adb72a9a3767b81c1c83e3bb39",
                    "bloom": "0x00000000000000000000000000000000000000000000000000000000000000000000000000000000000000000000000000000000000000000000000000000000000000000000000000000000000000000000000000000000000000000000000000000000000000000000000000000000000000000000000000000000000000000000000000000000000000000000000000000000000000000000000000000000000000000000000000000000000000000000000000000000000000000000000000000000000000000000000000000000000000000000000000000000000000000000000000000000000000000000000000000000000000000000000000000000",
                    "difficulty": "0x00",
                    "number": "0x01",
                    "gasLimit": "0x01c9c380",
                    "gasUsed": "0x013114",
                    "timestamp": "0x03e8",
                    "extraData": "0x00",
                    "mixHash": "0x0000000000000000000000000000000000000000000000000000000000020000",
                    "nonce": "0x0000000000000000",
                    "baseFeePerGas": "0x0a",
                    "withdrawalsRoot": "0x56e81f171bcc55a6ff8345e692c0f86e5b48e01b996cadc001622fb5e363b421",
                    "blobGasUsed": "0x00",
                    "excessBlobGas": "0x00",
                    "parentBeaconBlockRoot": "0x0000000000000000000000000000000000000000000000000000000000000000",
                    "hash": "0xe63ed09048a483db025198dc5c7e4aeb15b275a6d5bfa5e2c02fab4b3dbbce9c"
                },
                "transactions": [
                    {
                        "type": "0x00",
                        "chainId": "0x01",
                        "nonce": "0x00",
                        "gasPrice": "0x0a",
                        "gasLimit": "0x2dc6c0",
                        "to": "0x5f7fdf1f0d4f4ad14c6996ae17bb6698d22343d8",
                        "value": "0x00",
                        "data": "0x",
                        "v": "0x26",
                        "r": "0x5c447f6764c6dd58955f795ea63be2cc9c5ef014384ae38de44f7459a4526a6e",
                        "s": "0x494aac70394dbbf6aea05607085882556a4e6372e6a59313c7532feee5dd85bc",
                        "sender": "0xebaf50debf10e08302fe4280c32df010463ca297"
                    }
                ],
                "uncleHeaders": [],
                "withdrawals": [],
                "receipts": [
                    {
                        "transactionHash": "0x5b79907035e03be7f15490c186fb4b39642bd801b888bae39e494d33457ffc07",
                        "type": "0x00",
                        "cumulativeGasUsed": "0x013114",
                        "bloom": "0x00000000000000000000000000000000000000000000000000000000000000000000000000000000000000000000000000000000000000000000000000000000000000000000000000000000000000000000000000000000000000000000000000000000000000000000000000000000000000000000000000000000000000000000000000000000000000000000000000000000000000000000000000000000000000000000000000000000000000000000000000000000000000000000000000000000000000000000000000000000000000000000000000000000000000000000000000000000000000000000000000000000000000000000000000000000",
                        "logs": [],
                        "status": true,
                        "rlp": "0xf901090183013114b9010000000000000000000000000000000000000000000000000000000000000000000000000000000000000000000000000000000000000000000000000000000000000000000000000000000000000000000000000000000000000000000000000000000000000000000000000000000000000000000000000000000000000000000000000000000000000000000000000000000000000000000000000000000000000000000000000000000000000000000000000000000000000000000000000000000000000000000000000000000000000000000000000000000000000000000000000000000000000000000000000000000000000000000000000000000000c0"
                    }
                ],
                "rlp": "0xf902a4f9023ba0ea225a3e41e837f988a13a90fa947b84d9c15ba7c7c0d367deca24560fde2550a01dcc4de8dec75d7aab85b567b6ccd41ad312451b948a7413f0a142fd40d49347942adc25665018aa1fe0e6bc666dac8fc2697ff9baa05bfeb85b57e7aa400de9ce10d6f6a931e56ffb7534fe07ae52ecc351d38cc3a4a0b84febf5a00ee6390587468691706fea6cefadaacfb9dbeea9a53a899c6d55e0a01e9051d42be3d38179bbd1fa11c11b3a28ca87adb72a9a3767b81c1c83e3bb39b901000000000000000000000000000000000000000000000000000000000000000000000000000000000000000000000000000000000000000000000000000000000000000000000000000000000000000000000000000000000000000000000000000000000000000000000000000000000000000000000000000000000000000000000000000000000000000000000000000000000000000000000000000000000000000000000000000000000000000000000000000000000000000000000000000000000000000000000000000000000000000000000000000000000000000000000000000000000000000000000000000000000000000000000000000000000080018401c9c380830131148203e800a000000000000000000000000000000000000000000000000000000000000200008800000000000000000aa056e81f171bcc55a6ff8345e692c0f86e5b48e01b996cadc001622fb5e363b4218080a00000000000000000000000000000000000000000000000000000000000000000f862f860800a832dc6c0945f7fdf1f0d4f4ad14c6996ae17bb6698d22343d8808026a05c447f6764c6dd58955f795ea63be2cc9c5ef014384ae38de44f7459a4526a6ea0494aac70394dbbf6aea05607085882556a4e6372e6a59313c7532feee5dd85bcc0c0",
                "blocknumber": "1"
            }
        ],
        "sealEngine": "NoProof",
        "_info": {
            "hash": "0x7a67c787635c02b17bad2563c7e17f571aef89a9a9bd9da8ed0122ab06f1d89e",
            "fixture-format": "blockchain_test",
            "comment": "`execution-specs` generated test",
            "filling-transition-tool": "2.19.0",
            "description": "Test_static_callcodecallcodecall_110_suicide_end.",
            "url": "https://github.com/ethereum/execution-specs/blob/tests-sn\u00f8bal-devnet-4@v1.0.0/tests/ported_static/stStaticCall/test_static_callcodecallcodecall_110_suicide_end.py#L26",
            "metadata": {
                "opcode_count": {}
            }
        }
    },
    "tests/ported_static/stStaticCall/test_static_callcodecallcodecall_110_suicide_end.py::test_static_callcodecallcodecall_110_suicide_end[fork_Cancun-blockchain_test_from_state_test--v1]": {
        "network": "Cancun",
        "genesisBlockHeader": {
            "parentHash": "0x0000000000000000000000000000000000000000000000000000000000000000",
            "uncleHash": "0x1dcc4de8dec75d7aab85b567b6ccd41ad312451b948a7413f0a142fd40d49347",
            "coinbase": "0x0000000000000000000000000000000000000000",
            "stateRoot": "0x10bd849230124240c2a3768a0e768f736bf33daa38f0faded8fe7e12ab5e89b3",
            "transactionsTrie": "0x56e81f171bcc55a6ff8345e692c0f86e5b48e01b996cadc001622fb5e363b421",
            "receiptTrie": "0x56e81f171bcc55a6ff8345e692c0f86e5b48e01b996cadc001622fb5e363b421",
            "bloom": "0x00000000000000000000000000000000000000000000000000000000000000000000000000000000000000000000000000000000000000000000000000000000000000000000000000000000000000000000000000000000000000000000000000000000000000000000000000000000000000000000000000000000000000000000000000000000000000000000000000000000000000000000000000000000000000000000000000000000000000000000000000000000000000000000000000000000000000000000000000000000000000000000000000000000000000000000000000000000000000000000000000000000000000000000000000000000",
            "difficulty": "0x00",
            "number": "0x00",
            "gasLimit": "0x01c9c380",
            "gasUsed": "0x00",
            "timestamp": "0x00",
            "extraData": "0x00",
            "mixHash": "0x0000000000000000000000000000000000000000000000000000000000000000",
            "nonce": "0x0000000000000000",
            "baseFeePerGas": "0x0b",
            "withdrawalsRoot": "0x56e81f171bcc55a6ff8345e692c0f86e5b48e01b996cadc001622fb5e363b421",
            "blobGasUsed": "0x00",
            "excessBlobGas": "0x00",
            "parentBeaconBlockRoot": "0x0000000000000000000000000000000000000000000000000000000000000000",
            "hash": "0xea225a3e41e837f988a13a90fa947b84d9c15ba7c7c0d367deca24560fde2550"
        },
        "pre": {
            "0x000f3df6d732807ef1319fb7b8bb8522d0beac02": {
                "nonce": "0x01",
                "balance": "0x00",
                "code": "0x3373fffffffffffffffffffffffffffffffffffffffe14604d57602036146024575f5ffd5b5f35801560495762001fff810690815414603c575f5ffd5b62001fff01545f5260205ff35b5f5ffd5b62001fff42064281555f359062001fff015500",
                "storage": {}
            },
            "0x5f7fdf1f0d4f4ad14c6996ae17bb6698d22343d8": {
                "nonce": "0x00",
                "balance": "0x0de0b6b3a7640000",
                "code": "0x60406000604060007392d7028788caa240253b7b2a92386464690cdc72620249f0f46000555a60015500",
                "storage": {}
            },
            "0x92d7028788caa240253b7b2a92386464690cdc72": {
                "nonce": "0x00",
                "balance": "0x02540be400",
                "code": "0x604060006040600073b7770360e0b87603e3d9c87c866451760c95abca620186a0f400",
                "storage": {}
            },
            "0xb7770360e0b87603e3d9c87c866451760c95abca": {
                "nonce": "0x00",
                "balance": "0x02540be400",
                "code": "0x60406000604060007348e2d4c0b593bfebe5ddb4f13aa355b8bd83ddd361c350fa507392d7028788caa240253b7b2a92386464690cdc72ff00",
                "storage": {}
            },
            "0x48e2d4c0b593bfebe5ddb4f13aa355b8bd83ddd3": {
                "nonce": "0x00",
                "balance": "0x02540be400",
                "code": "0x600160035200",
                "storage": {}
            },
            "0xebaf50debf10e08302fe4280c32df010463ca297": {
                "nonce": "0x00",
                "balance": "0x0de0b6b3a7640000",
                "code": "0x",
                "storage": {}
            }
        },
        "postState": {
            "0x000f3df6d732807ef1319fb7b8bb8522d0beac02": {
                "nonce": "0x01",
                "balance": "0x00",
                "code": "0x3373fffffffffffffffffffffffffffffffffffffffe14604d57602036146024575f5ffd5b5f35801560495762001fff810690815414603c575f5ffd5b62001fff01545f5260205ff35b5f5ffd5b62001fff42064281555f359062001fff015500",
                "storage": {
                    "0x03e8": "0x03e8"
                }
            },
            "0x5f7fdf1f0d4f4ad14c6996ae17bb6698d22343d8": {
                "nonce": "0x00",
                "balance": "0x00",
                "code": "0x60406000604060007392d7028788caa240253b7b2a92386464690cdc72620249f0f46000555a60015500",
                "storage": {
                    "0x00": "0x01",
                    "0x01": "0x2cec03"
                }
            },
            "0x92d7028788caa240253b7b2a92386464690cdc72": {
                "nonce": "0x00",
                "balance": "0x0de0b6b5fb6fe401",
                "code": "0x604060006040600073b7770360e0b87603e3d9c87c866451760c95abca620186a0f400",
                "storage": {}
            },
            "0xb7770360e0b87603e3d9c87c866451760c95abca": {
                "nonce": "0x00",
                "balance": "0x02540be400",
                "code": "0x60406000604060007348e2d4c0b593bfebe5ddb4f13aa355b8bd83ddd361c350fa507392d7028788caa240253b7b2a92386464690cdc72ff00",
                "storage": {}
            },
            "0x48e2d4c0b593bfebe5ddb4f13aa355b8bd83ddd3": {
                "nonce": "0x00",
                "balance": "0x02540be400",
                "code": "0x600160035200",
                "storage": {}
            },
            "0xebaf50debf10e08302fe4280c32df010463ca297": {
                "nonce": "0x01",
                "balance": "0x0de0b6b3a7581537",
                "code": "0x",
                "storage": {}
            }
        },
        "lastblockhash": "0xec1635281a569e930d91e19a40b3c77a87bce56c812c0d834544cb68753d2cd5",
        "config": {
            "network": "Cancun",
            "chainid": "0x01",
            "blobSchedule": {
                "Cancun": {
                    "target": "0x03",
                    "max": "0x06",
                    "baseFeeUpdateFraction": "0x32f0ed"
                }
            }
        },
        "genesisRLP": "0xf9023cf90236a00000000000000000000000000000000000000000000000000000000000000000a01dcc4de8dec75d7aab85b567b6ccd41ad312451b948a7413f0a142fd40d49347940000000000000000000000000000000000000000a010bd849230124240c2a3768a0e768f736bf33daa38f0faded8fe7e12ab5e89b3a056e81f171bcc55a6ff8345e692c0f86e5b48e01b996cadc001622fb5e363b421a056e81f171bcc55a6ff8345e692c0f86e5b48e01b996cadc001622fb5e363b421b901000000000000000000000000000000000000000000000000000000000000000000000000000000000000000000000000000000000000000000000000000000000000000000000000000000000000000000000000000000000000000000000000000000000000000000000000000000000000000000000000000000000000000000000000000000000000000000000000000000000000000000000000000000000000000000000000000000000000000000000000000000000000000000000000000000000000000000000000000000000000000000000000000000000000000000000000000000000000000000000000000000000000000000000000000000000080808401c9c380808000a000000000000000000000000000000000000000000000000000000000000000008800000000000000000ba056e81f171bcc55a6ff8345e692c0f86e5b48e01b996cadc001622fb5e363b4218080a00000000000000000000000000000000000000000000000000000000000000000c0c0c0",
        "blocks": [
            {
                "blockHeader": {
                    "parentHash": "0xea225a3e41e837f988a13a90fa947b84d9c15ba7c7c0d367deca24560fde2550",
                    "uncleHash": "0x1dcc4de8dec75d7aab85b567b6ccd41ad312451b948a7413f0a142fd40d49347",
                    "coinbase": "0x2adc25665018aa1fe0e6bc666dac8fc2697ff9ba",
                    "stateRoot": "0xf7537456c0ee3e1cc0915e3cfcf3164bca1b20aa24321398b78d701bd22bdfb1",
                    "transactionsTrie": "0xc9c4a5469df41710c72fc2ae13cce7b7008c99ab9c29823b07be9364682a3375",
                    "receiptTrie": "0x1e9051d42be3d38179bbd1fa11c11b3a28ca87adb72a9a3767b81c1c83e3bb39",
                    "bloom": "0x00000000000000000000000000000000000000000000000000000000000000000000000000000000000000000000000000000000000000000000000000000000000000000000000000000000000000000000000000000000000000000000000000000000000000000000000000000000000000000000000000000000000000000000000000000000000000000000000000000000000000000000000000000000000000000000000000000000000000000000000000000000000000000000000000000000000000000000000000000000000000000000000000000000000000000000000000000000000000000000000000000000000000000000000000000000",
                    "difficulty": "0x00",
                    "number": "0x01",
                    "gasLimit": "0x01c9c380",
                    "gasUsed": "0x013114",
                    "timestamp": "0x03e8",
                    "extraData": "0x00",
                    "mixHash": "0x0000000000000000000000000000000000000000000000000000000000020000",
                    "nonce": "0x0000000000000000",
                    "baseFeePerGas": "0x0a",
                    "withdrawalsRoot": "0x56e81f171bcc55a6ff8345e692c0f86e5b48e01b996cadc001622fb5e363b421",
                    "blobGasUsed": "0x00",
                    "excessBlobGas": "0x00",
                    "parentBeaconBlockRoot": "0x0000000000000000000000000000000000000000000000000000000000000000",
                    "hash": "0xec1635281a569e930d91e19a40b3c77a87bce56c812c0d834544cb68753d2cd5"
                },
                "transactions": [
                    {
                        "type": "0x00",
                        "chainId": "0x01",
                        "nonce": "0x00",
                        "gasPrice": "0x0a",
                        "gasLimit": "0x2dc6c0",
                        "to": "0x5f7fdf1f0d4f4ad14c6996ae17bb6698d22343d8",
                        "value": "0x01",
                        "data": "0x",
                        "v": "0x26",
                        "r": "0xf0b19d5541f4a51f87f7933fd1f64ab32fd9d9d2b7a1eb0ca40c511ec52ed387",
                        "s": "0x1d43bd8c1527e759fdb8a1e9ee30a1f9c6c76f45c22a877d2ce6dac4dbd6f98f",
                        "sender": "0xebaf50debf10e08302fe4280c32df010463ca297"
                    }
                ],
                "uncleHeaders": [],
                "withdrawals": [],
                "receipts": [
                    {
                        "transactionHash": "0x71c413100ec5f45b0f1b96825ab73971a98535050e3b4ccb9e7e29e6ecfbdd20",
                        "type": "0x00",
                        "cumulativeGasUsed": "0x013114",
                        "bloom": "0x00000000000000000000000000000000000000000000000000000000000000000000000000000000000000000000000000000000000000000000000000000000000000000000000000000000000000000000000000000000000000000000000000000000000000000000000000000000000000000000000000000000000000000000000000000000000000000000000000000000000000000000000000000000000000000000000000000000000000000000000000000000000000000000000000000000000000000000000000000000000000000000000000000000000000000000000000000000000000000000000000000000000000000000000000000000",
                        "logs": [],
                        "status": true,
                        "rlp": "0xf901090183013114b9010000000000000000000000000000000000000000000000000000000000000000000000000000000000000000000000000000000000000000000000000000000000000000000000000000000000000000000000000000000000000000000000000000000000000000000000000000000000000000000000000000000000000000000000000000000000000000000000000000000000000000000000000000000000000000000000000000000000000000000000000000000000000000000000000000000000000000000000000000000000000000000000000000000000000000000000000000000000000000000000000000000000000000000000000000000000c0"
                    }
                ],
                "rlp": "0xf902a4f9023ba0ea225a3e41e837f988a13a90fa947b84d9c15ba7c7c0d367deca24560fde2550a01dcc4de8dec75d7aab85b567b6ccd41ad312451b948a7413f0a142fd40d49347942adc25665018aa1fe0e6bc666dac8fc2697ff9baa0f7537456c0ee3e1cc0915e3cfcf3164bca1b20aa24321398b78d701bd22bdfb1a0c9c4a5469df41710c72fc2ae13cce7b7008c99ab9c29823b07be9364682a3375a01e9051d42be3d38179bbd1fa11c11b3a28ca87adb72a9a3767b81c1c83e3bb39b901000000000000000000000000000000000000000000000000000000000000000000000000000000000000000000000000000000000000000000000000000000000000000000000000000000000000000000000000000000000000000000000000000000000000000000000000000000000000000000000000000000000000000000000000000000000000000000000000000000000000000000000000000000000000000000000000000000000000000000000000000000000000000000000000000000000000000000000000000000000000000000000000000000000000000000000000000000000000000000000000000000000000000000000000000000000080018401c9c380830131148203e800a000000000000000000000000000000000000000000000000000000000000200008800000000000000000aa056e81f171bcc55a6ff8345e692c0f86e5b48e01b996cadc001622fb5e363b4218080a00000000000000000000000000000000000000000000000000000000000000000f862f860800a832dc6c0945f7fdf1f0d4f4ad14c6996ae17bb6698d22343d8018026a0f0b19d5541f4a51f87f7933fd1f64ab32fd9d9d2b7a1eb0ca40c511ec52ed387a01d43bd8c1527e759fdb8a1e9ee30a1f9c6c76f45c22a877d2ce6dac4dbd6f98fc0c0",
                "blocknumber": "1"
            }
        ],
        "sealEngine": "NoProof",
        "_info": {
            "hash": "0x9de4210f9a3dd6351f9d9c6b53531a29cd3614b6b6377d8b618a2801fa51c365",
            "fixture-format": "blockchain_test",
            "comment": "`execution-specs` generated test",
            "filling-transition-tool": "2.19.0",
            "description": "Test_static_callcodecallcodecall_110_suicide_end.",
            "url": "https://github.com/ethereum/execution-specs/blob/tests-sn\u00f8bal-devnet-4@v1.0.0/tests/ported_static/stStaticCall/test_static_callcodecallcodecall_110_suicide_end.py#L26",
            "metadata": {
                "opcode_count": {}
            }
        }
    }
}