{
    "tests/osaka/eip7883_modexp_gas_increase/test_modexp_thresholds.py::test_modexp_used_in_transaction_entry_points[fork_Berlin-blockchain_test_from_state_test-exact_gas]": {
        "network": "Berlin",
        "genesisBlockHeader": {
            "parentHash": "0x0000000000000000000000000000000000000000000000000000000000000000",
            "uncleHash": "0x1dcc4de8dec75d7aab85b567b6ccd41ad312451b948a7413f0a142fd40d49347",
            "coinbase": "0x0000000000000000000000000000000000000000",
            "stateRoot": "0xd8272e3dbc27b9371662d3eb3b4392e83260559906a5dbdfbff8fd86cd96de7a",
            "transactionsTrie": "0x56e81f171bcc55a6ff8345e692c0f86e5b48e01b996cadc001622fb5e363b421",
            "receiptTrie": "0x56e81f171bcc55a6ff8345e692c0f86e5b48e01b996cadc001622fb5e363b421",
            "bloom": "0x00000000000000000000000000000000000000000000000000000000000000000000000000000000000000000000000000000000000000000000000000000000000000000000000000000000000000000000000000000000000000000000000000000000000000000000000000000000000000000000000000000000000000000000000000000000000000000000000000000000000000000000000000000000000000000000000000000000000000000000000000000000000000000000000000000000000000000000000000000000000000000000000000000000000000000000000000000000000000000000000000000000000000000000000000000000",
            "difficulty": "0x020000",
            "number": "0x00",
            "gasLimit": "0x07270e00",
            "gasUsed": "0x00",
            "timestamp": "0x00",
            "extraData": "0x00",
            "mixHash": "0x0000000000000000000000000000000000000000000000000000000000000000",
            "nonce": "0x0000000000000000",
            "hash": "0xb656656d93d9ba3bc61ba19d70070627a55633fbf5adc43ad95ab7135a46bfe7"
        },
        "pre": {
            "0xdec6233551179d0ae1449879f4f6de9e6cabeb29": {
                "nonce": "0x01",
                "balance": "0x00",
                "code": "0x3660006000375a600060003660006000600560c8f15a906000553d60015561007a0190036002553d600060003e3d600020600355",
                "storage": {}
            },
            "0x1ad9bc24818784172ff393bb6f89f094d4d2ca29": {
                "nonce": "0x00",
                "balance": "0x3635c9adc5dea00000",
                "code": "0x",
                "storage": {}
            },
            "0xdd616a20f3b01fc95e6b1701d8a07331d06dd897": {
                "nonce": "0x00",
                "balance": "0x3635c9adc5dea00000",
                "code": "0x",
                "storage": {}
            }
        },
        "postState": {
            "0xdec6233551179d0ae1449879f4f6de9e6cabeb29": {
                "nonce": "0x01",
                "balance": "0x00",
                "code": "0x3660006000375a600060003660006000600560c8f15a906000553d60015561007a0190036002553d600060003e3d600020600355",
                "storage": {}
            },
            "0x1ad9bc24818784172ff393bb6f89f094d4d2ca29": {
                "nonce": "0x00",
                "balance": "0x3635c9adc5dea00000",
                "code": "0x",
                "storage": {}
            },
            "0xdd616a20f3b01fc95e6b1701d8a07331d06dd897": {
                "nonce": "0x01",
                "balance": "0x3635c9adc5de9c7fe8",
                "code": "0x",
                "storage": {}
            },
            "0x2adc25665018aa1fe0e6bc666dac8fc2697ff9ba": {
                "nonce": "0x00",
                "balance": "0x1bc16d674ecb8018",
                "code": "0x",
                "storage": {}
            }
        },
        "lastblockhash": "0x82a1b03e4f554d37b203de78ab929ff86ef62b58d57b82c7bb12b3f553e10de2",
        "config": {
            "network": "Berlin",
            "chainid": "0x01"
        },
        "genesisRLP": "0xf901f9f901f4a00000000000000000000000000000000000000000000000000000000000000000a01dcc4de8dec75d7aab85b567b6ccd41ad312451b948a7413f0a142fd40d49347940000000000000000000000000000000000000000a0d8272e3dbc27b9371662d3eb3b4392e83260559906a5dbdfbff8fd86cd96de7aa056e81f171bcc55a6ff8345e692c0f86e5b48e01b996cadc001622fb5e363b421a056e81f171bcc55a6ff8345e692c0f86e5b48e01b996cadc001622fb5e363b421b901000000000000000000000000000000000000000000000000000000000000000000000000000000000000000000000000000000000000000000000000000000000000000000000000000000000000000000000000000000000000000000000000000000000000000000000000000000000000000000000000000000000000000000000000000000000000000000000000000000000000000000000000000000000000000000000000000000000000000000000000000000000000000000000000000000000000000000000000000000000000000000000000000000000000000000000000000000000000000000000000000000000000000000000000000000000083020000808407270e00808000a00000000000000000000000000000000000000000000000000000000000000000880000000000000000c0c0",
        "blocks": [
            {
                "blockHeader": {
                    "parentHash": "0xb656656d93d9ba3bc61ba19d70070627a55633fbf5adc43ad95ab7135a46bfe7",
                    "uncleHash": "0x1dcc4de8dec75d7aab85b567b6ccd41ad312451b948a7413f0a142fd40d49347",
                    "coinbase": "0x2adc25665018aa1fe0e6bc666dac8fc2697ff9ba",
                    "stateRoot": "0x3b35d3accf0ab5b5c28c1730af16ee42173ac2dc5c43262dcca27ff352de8b3c",
                    "transactionsTrie": "0xbd3e987c8455304d412568585adf9e0325c3494e8366e250b8b3f9067689cb2b",
                    "receiptTrie": "0xc8038a257bc3638440aac969600ee8eb705a6c7faece0527e7db051ff4e819c9",
                    "bloom": "0x00000000000000000000000000000000000000000000000000000000000000000000000000000000000000000000000000000000000000000000000000000000000000000000000000000000000000000000000000000000000000000000000000000000000000000000000000000000000000000000000000000000000000000000000000000000000000000000000000000000000000000000000000000000000000000000000000000000000000000000000000000000000000000000000000000000000000000000000000000000000000000000000000000000000000000000000000000000000000000000000000000000000000000000000000000000",
                    "difficulty": "0x020000",
                    "number": "0x01",
                    "gasLimit": "0x07270e00",
                    "gasUsed": "0x599c",
                    "timestamp": "0x03e8",
                    "extraData": "0x00",
                    "mixHash": "0x0000000000000000000000000000000000000000000000000000000000000000",
                    "nonce": "0x0000000000000000",
                    "hash": "0x82a1b03e4f554d37b203de78ab929ff86ef62b58d57b82c7bb12b3f553e10de2"
                },
                "transactions": [
                    {
                        "type": "0x00",
                        "chainId": "0x01",
                        "nonce": "0x00",
                        "gasPrice": "0x0a",
                        "gasLimit": "0x0848ee",
                        "to": "0x0000000000000000000000000000000000000005",
                        "value": "0x00",
                        "data": "0x000000000000000000000000000000000000000000000000000000000000002800000000000000000000000000000000000000000000000000000000000000040000000000000000000000000000000000000000000000000000000000000028e8e77626586f73b955364c7b4bbf0bb7f7685ebd40e852b164633a4acbd3244c000102030405060701fffffff01681d2220bfea4bb888a5543db8c0916274ddb1ea93b144c042c01d8164c950001020304050607",
                        "v": "0x25",
                        "r": "0xd8ef73a7c52fc4e315437b939b5b871d7446e649796662d4e2038be82ed01c00",
                        "s": "0x5a56027cdc1a44d670b95284938cdae1db41023313964265527258be696cde56",
                        "sender": "0xdd616a20f3b01fc95e6b1701d8a07331d06dd897"
                    }
                ],
                "uncleHeaders": [],
                "receipts": [
                    {
                        "transactionHash": "0x0e7c9e475600e9d96422ca14e856c7fc148bf21bb9a3f6e8b5aa90e4d1a231e0",
                        "type": "0x00",
                        "cumulativeGasUsed": "0x599c",
                        "bloom": "0x00000000000000000000000000000000000000000000000000000000000000000000000000000000000000000000000000000000000000000000000000000000000000000000000000000000000000000000000000000000000000000000000000000000000000000000000000000000000000000000000000000000000000000000000000000000000000000000000000000000000000000000000000000000000000000000000000000000000000000000000000000000000000000000000000000000000000000000000000000000000000000000000000000000000000000000000000000000000000000000000000000000000000000000000000000000",
                        "logs": [],
                        "status": true,
                        "rlp": "0xf901080182599cb9010000000000000000000000000000000000000000000000000000000000000000000000000000000000000000000000000000000000000000000000000000000000000000000000000000000000000000000000000000000000000000000000000000000000000000000000000000000000000000000000000000000000000000000000000000000000000000000000000000000000000000000000000000000000000000000000000000000000000000000000000000000000000000000000000000000000000000000000000000000000000000000000000000000000000000000000000000000000000000000000000000000000000000000000000000000000c0"
                    }
                ],
                "rlp": "0xf90317f901f8a0b656656d93d9ba3bc61ba19d70070627a55633fbf5adc43ad95ab7135a46bfe7a01dcc4de8dec75d7aab85b567b6ccd41ad312451b948a7413f0a142fd40d49347942adc25665018aa1fe0e6bc666dac8fc2697ff9baa03b35d3accf0ab5b5c28c1730af16ee42173ac2dc5c43262dcca27ff352de8b3ca0bd3e987c8455304d412568585adf9e0325c3494e8366e250b8b3f9067689cb2ba0c8038a257bc3638440aac969600ee8eb705a6c7faece0527e7db051ff4e819c9b901000000000000000000000000000000000000000000000000000000000000000000000000000000000000000000000000000000000000000000000000000000000000000000000000000000000000000000000000000000000000000000000000000000000000000000000000000000000000000000000000000000000000000000000000000000000000000000000000000000000000000000000000000000000000000000000000000000000000000000000000000000000000000000000000000000000000000000000000000000000000000000000000000000000000000000000000000000000000000000000000000000000000000000000000000000000083020000018407270e0082599c8203e800a00000000000000000000000000000000000000000000000000000000000000000880000000000000000f90118f90115800a830848ee94000000000000000000000000000000000000000580b8b4000000000000000000000000000000000000000000000000000000000000002800000000000000000000000000000000000000000000000000000000000000040000000000000000000000000000000000000000000000000000000000000028e8e77626586f73b955364c7b4bbf0bb7f7685ebd40e852b164633a4acbd3244c000102030405060701fffffff01681d2220bfea4bb888a5543db8c0916274ddb1ea93b144c042c01d8164c95000102030405060725a0d8ef73a7c52fc4e315437b939b5b871d7446e649796662d4e2038be82ed01c00a05a56027cdc1a44d670b95284938cdae1db41023313964265527258be696cde56c0",
                "blocknumber": "1"
            }
        ],
        "sealEngine": "NoProof",
        "_info": {
            "hash": "0xd1c2c79540c0f4d17a7d410660a7eddfe7ab071ab45ded866ea6d9f8ce326cac",
            "fixture-format": "blockchain_test",
            "comment": "`execution-specs` generated test",
            "filling-transition-tool": "2.19.0",
            "description": "Test ModExp using in transaction entry points with different precompile gas\nmodifiers.",
            "url": "https://github.com/ethereum/execution-specs/blob/tests-bal@v5.6.0/tests/osaka/eip7883_modexp_gas_increase/test_modexp_thresholds.py#L355",
            "metadata": {
                "opcode_count": {}
            },
            "reference-spec": "https://github.com/ethereum/EIPs/blob/master/EIPS/eip-7883.md",
            "reference-spec-version": "13aa65810336d4f243d4563a828d5afe36035d23"
        }
    },
    "tests/osaka/eip7883_modexp_gas_increase/test_modexp_thresholds.py::test_modexp_used_in_transaction_entry_points[fork_Berlin-blockchain_test_from_state_test-extra_gas]": {
        "network": "Berlin",
        "genesisBlockHeader": {
            "parentHash": "0x0000000000000000000000000000000000000000000000000000000000000000",
            "uncleHash": "0x1dcc4de8dec75d7aab85b567b6ccd41ad312451b948a7413f0a142fd40d49347",
            "coinbase": "0x0000000000000000000000000000000000000000",
            "stateRoot": "0x074f321929c7bd8b1ca9d4a1458f1ba3586a2ea39d986d3dd40ae9bc729587db",
            "transactionsTrie": "0x56e81f171bcc55a6ff8345e692c0f86e5b48e01b996cadc001622fb5e363b421",
            "receiptTrie": "0x56e81f171bcc55a6ff8345e692c0f86e5b48e01b996cadc001622fb5e363b421",
            "bloom": "0x00000000000000000000000000000000000000000000000000000000000000000000000000000000000000000000000000000000000000000000000000000000000000000000000000000000000000000000000000000000000000000000000000000000000000000000000000000000000000000000000000000000000000000000000000000000000000000000000000000000000000000000000000000000000000000000000000000000000000000000000000000000000000000000000000000000000000000000000000000000000000000000000000000000000000000000000000000000000000000000000000000000000000000000000000000000",
            "difficulty": "0x020000",
            "number": "0x00",
            "gasLimit": "0x07270e00",
            "gasUsed": "0x00",
            "timestamp": "0x00",
            "extraData": "0x00",
            "mixHash": "0x0000000000000000000000000000000000000000000000000000000000000000",
            "nonce": "0x0000000000000000",
            "hash": "0xcf42685f5d3d9decedc0b0f9957d99be3bfba27b0af811950e5ec23a9b943d1c"
        },
        "pre": {
            "0x8a3fc10a145927781ab2ce7657a456b942a10081": {
                "nonce": "0x01",
                "balance": "0x00",
                "code": "0x3660006000375a600060003660006000600560c9f15a906000553d60015561007a0190036002553d600060003e3d600020600355",
                "storage": {}
            },
            "0x1ad9bc24818784172ff393bb6f89f094d4d2ca29": {
                "nonce": "0x00",
                "balance": "0x3635c9adc5dea00000",
                "code": "0x",
                "storage": {}
            },
            "0xdd616a20f3b01fc95e6b1701d8a07331d06dd897": {
                "nonce": "0x00",
                "balance": "0x3635c9adc5dea00000",
                "code": "0x",
                "storage": {}
            }
        },
        "postState": {
            "0x8a3fc10a145927781ab2ce7657a456b942a10081": {
                "nonce": "0x01",
                "balance": "0x00",
                "code": "0x3660006000375a600060003660006000600560c9f15a906000553d60015561007a0190036002553d600060003e3d600020600355",
                "storage": {}
            },
            "0x1ad9bc24818784172ff393bb6f89f094d4d2ca29": {
                "nonce": "0x00",
                "balance": "0x3635c9adc5dea00000",
                "code": "0x",
                "storage": {}
            },
            "0xdd616a20f3b01fc95e6b1701d8a07331d06dd897": {
                "nonce": "0x01",
                "balance": "0x3635c9adc5de9c7fe8",
                "code": "0x",
                "storage": {}
            },
            "0x2adc25665018aa1fe0e6bc666dac8fc2697ff9ba": {
                "nonce": "0x00",
                "balance": "0x1bc16d674ecb8018",
                "code": "0x",
                "storage": {}
            }
        },
        "lastblockhash": "0x7027fb01d1b59b4ee0026d2cef3339778267f8aba64ea4baff90818db19a956e",
        "config": {
            "network": "Berlin",
            "chainid": "0x01"
        },
        "genesisRLP": "0xf901f9f901f4a00000000000000000000000000000000000000000000000000000000000000000a01dcc4de8dec75d7aab85b567b6ccd41ad312451b948a7413f0a142fd40d49347940000000000000000000000000000000000000000a0074f321929c7bd8b1ca9d4a1458f1ba3586a2ea39d986d3dd40ae9bc729587dba056e81f171bcc55a6ff8345e692c0f86e5b48e01b996cadc001622fb5e363b421a056e81f171bcc55a6ff8345e692c0f86e5b48e01b996cadc001622fb5e363b421b901000000000000000000000000000000000000000000000000000000000000000000000000000000000000000000000000000000000000000000000000000000000000000000000000000000000000000000000000000000000000000000000000000000000000000000000000000000000000000000000000000000000000000000000000000000000000000000000000000000000000000000000000000000000000000000000000000000000000000000000000000000000000000000000000000000000000000000000000000000000000000000000000000000000000000000000000000000000000000000000000000000000000000000000000000000000083020000808407270e00808000a00000000000000000000000000000000000000000000000000000000000000000880000000000000000c0c0",
        "blocks": [
            {
                "blockHeader": {
                    "parentHash": "0xcf42685f5d3d9decedc0b0f9957d99be3bfba27b0af811950e5ec23a9b943d1c",
                    "uncleHash": "0x1dcc4de8dec75d7aab85b567b6ccd41ad312451b948a7413f0a142fd40d49347",
                    "coinbase": "0x2adc25665018aa1fe0e6bc666dac8fc2697ff9ba",
                    "stateRoot": "0xff26000322e147c3f52fb230cc22297d6b9263068178f8f2e934ade9d5edd326",
                    "transactionsTrie": "0xbd3e987c8455304d412568585adf9e0325c3494e8366e250b8b3f9067689cb2b",
                    "receiptTrie": "0xc8038a257bc3638440aac969600ee8eb705a6c7faece0527e7db051ff4e819c9",
                    "bloom": "0x00000000000000000000000000000000000000000000000000000000000000000000000000000000000000000000000000000000000000000000000000000000000000000000000000000000000000000000000000000000000000000000000000000000000000000000000000000000000000000000000000000000000000000000000000000000000000000000000000000000000000000000000000000000000000000000000000000000000000000000000000000000000000000000000000000000000000000000000000000000000000000000000000000000000000000000000000000000000000000000000000000000000000000000000000000000",
                    "difficulty": "0x020000",
                    "number": "0x01",
                    "gasLimit": "0x07270e00",
                    "gasUsed": "0x599c",
                    "timestamp": "0x03e8",
                    "extraData": "0x00",
                    "mixHash": "0x0000000000000000000000000000000000000000000000000000000000000000",
                    "nonce": "0x0000000000000000",
                    "hash": "0x7027fb01d1b59b4ee0026d2cef3339778267f8aba64ea4baff90818db19a956e"
                },
                "transactions": [
                    {
                        "type": "0x00",
                        "chainId": "0x01",
                        "nonce": "0x00",
                        "gasPrice": "0x0a",
                        "gasLimit": "0x0848ee",
                        "to": "0x0000000000000000000000000000000000000005",
                        "value": "0x00",
                        "data": "0x000000000000000000000000000000000000000000000000000000000000002800000000000000000000000000000000000000000000000000000000000000040000000000000000000000000000000000000000000000000000000000000028e8e77626586f73b955364c7b4bbf0bb7f7685ebd40e852b164633a4acbd3244c000102030405060701fffffff01681d2220bfea4bb888a5543db8c0916274ddb1ea93b144c042c01d8164c950001020304050607",
                        "v": "0x25",
                        "r": "0xd8ef73a7c52fc4e315437b939b5b871d7446e649796662d4e2038be82ed01c00",
                        "s": "0x5a56027cdc1a44d670b95284938cdae1db41023313964265527258be696cde56",
                        "sender": "0xdd616a20f3b01fc95e6b1701d8a07331d06dd897"
                    }
                ],
                "uncleHeaders": [],
                "receipts": [
                    {
                        "transactionHash": "0x0e7c9e475600e9d96422ca14e856c7fc148bf21bb9a3f6e8b5aa90e4d1a231e0",
                        "type": "0x00",
                        "cumulativeGasUsed": "0x599c",
                        "bloom": "0x00000000000000000000000000000000000000000000000000000000000000000000000000000000000000000000000000000000000000000000000000000000000000000000000000000000000000000000000000000000000000000000000000000000000000000000000000000000000000000000000000000000000000000000000000000000000000000000000000000000000000000000000000000000000000000000000000000000000000000000000000000000000000000000000000000000000000000000000000000000000000000000000000000000000000000000000000000000000000000000000000000000000000000000000000000000",
                        "logs": [],
                        "status": true,
                        "rlp": "0xf901080182599cb9010000000000000000000000000000000000000000000000000000000000000000000000000000000000000000000000000000000000000000000000000000000000000000000000000000000000000000000000000000000000000000000000000000000000000000000000000000000000000000000000000000000000000000000000000000000000000000000000000000000000000000000000000000000000000000000000000000000000000000000000000000000000000000000000000000000000000000000000000000000000000000000000000000000000000000000000000000000000000000000000000000000000000000000000000000000000c0"
                    }
                ],
                "rlp": "0xf90317f901f8a0cf42685f5d3d9decedc0b0f9957d99be3bfba27b0af811950e5ec23a9b943d1ca01dcc4de8dec75d7aab85b567b6ccd41ad312451b948a7413f0a142fd40d49347942adc25665018aa1fe0e6bc666dac8fc2697ff9baa0ff26000322e147c3f52fb230cc22297d6b9263068178f8f2e934ade9d5edd326a0bd3e987c8455304d412568585adf9e0325c3494e8366e250b8b3f9067689cb2ba0c8038a257bc3638440aac969600ee8eb705a6c7faece0527e7db051ff4e819c9b901000000000000000000000000000000000000000000000000000000000000000000000000000000000000000000000000000000000000000000000000000000000000000000000000000000000000000000000000000000000000000000000000000000000000000000000000000000000000000000000000000000000000000000000000000000000000000000000000000000000000000000000000000000000000000000000000000000000000000000000000000000000000000000000000000000000000000000000000000000000000000000000000000000000000000000000000000000000000000000000000000000000000000000000000000000000083020000018407270e0082599c8203e800a00000000000000000000000000000000000000000000000000000000000000000880000000000000000f90118f90115800a830848ee94000000000000000000000000000000000000000580b8b4000000000000000000000000000000000000000000000000000000000000002800000000000000000000000000000000000000000000000000000000000000040000000000000000000000000000000000000000000000000000000000000028e8e77626586f73b955364c7b4bbf0bb7f7685ebd40e852b164633a4acbd3244c000102030405060701fffffff01681d2220bfea4bb888a5543db8c0916274ddb1ea93b144c042c01d8164c95000102030405060725a0d8ef73a7c52fc4e315437b939b5b871d7446e649796662d4e2038be82ed01c00a05a56027cdc1a44d670b95284938cdae1db41023313964265527258be696cde56c0",
                "blocknumber": "1"
            }
        ],
        "sealEngine": "NoProof",
        "_info": {
            "hash": "0xde5afcca749fcbb8172c279af09e0503a2ff254cfb4e27c94323e7a0db081082",
            "fixture-format": "blockchain_test",
            "comment": "`execution-specs` generated test",
            "filling-transition-tool": "2.19.0",
            "description": "Test ModExp using in transaction entry points with different precompile gas\nmodifiers.",
            "url": "https://github.com/ethereum/execution-specs/blob/tests-bal@v5.6.0/tests/osaka/eip7883_modexp_gas_increase/test_modexp_thresholds.py#L355",
            "metadata": {
                "opcode_count": {}
            },
            "reference-spec": "https://github.com/ethereum/EIPs/blob/master/EIPS/eip-7883.md",
            "reference-spec-version": "13aa65810336d4f243d4563a828d5afe36035d23"
        }
    },
    "tests/osaka/eip7883_modexp_gas_increase/test_modexp_thresholds.py::test_modexp_used_in_transaction_entry_points[fork_Berlin-blockchain_test_from_state_test-extra_value]": {
        "network": "Berlin",
        "genesisBlockHeader": {
            "parentHash": "0x0000000000000000000000000000000000000000000000000000000000000000",
            "uncleHash": "0x1dcc4de8dec75d7aab85b567b6ccd41ad312451b948a7413f0a142fd40d49347",
            "coinbase": "0x0000000000000000000000000000000000000000",
            "stateRoot": "0xd8272e3dbc27b9371662d3eb3b4392e83260559906a5dbdfbff8fd86cd96de7a",
            "transactionsTrie": "0x56e81f171bcc55a6ff8345e692c0f86e5b48e01b996cadc001622fb5e363b421",
            "receiptTrie": "0x56e81f171bcc55a6ff8345e692c0f86e5b48e01b996cadc001622fb5e363b421",
            "bloom": "0x00000000000000000000000000000000000000000000000000000000000000000000000000000000000000000000000000000000000000000000000000000000000000000000000000000000000000000000000000000000000000000000000000000000000000000000000000000000000000000000000000000000000000000000000000000000000000000000000000000000000000000000000000000000000000000000000000000000000000000000000000000000000000000000000000000000000000000000000000000000000000000000000000000000000000000000000000000000000000000000000000000000000000000000000000000000",
            "difficulty": "0x020000",
            "number": "0x00",
            "gasLimit": "0x07270e00",
            "gasUsed": "0x00",
            "timestamp": "0x00",
            "extraData": "0x00",
            "mixHash": "0x0000000000000000000000000000000000000000000000000000000000000000",
            "nonce": "0x0000000000000000",
            "hash": "0xb656656d93d9ba3bc61ba19d70070627a55633fbf5adc43ad95ab7135a46bfe7"
        },
        "pre": {
            "0xdec6233551179d0ae1449879f4f6de9e6cabeb29": {
                "nonce": "0x01",
                "balance": "0x00",
                "code": "0x3660006000375a600060003660006000600560c8f15a906000553d60015561007a0190036002553d600060003e3d600020600355",
                "storage": {}
            },
            "0x1ad9bc24818784172ff393bb6f89f094d4d2ca29": {
                "nonce": "0x00",
                "balance": "0x3635c9adc5dea00000",
                "code": "0x",
                "storage": {}
            },
            "0xdd616a20f3b01fc95e6b1701d8a07331d06dd897": {
                "nonce": "0x00",
                "balance": "0x3635c9adc5dea00000",
                "code": "0x",
                "storage": {}
            }
        },
        "postState": {
            "0xdec6233551179d0ae1449879f4f6de9e6cabeb29": {
                "nonce": "0x01",
                "balance": "0x00",
                "code": "0x3660006000375a600060003660006000600560c8f15a906000553d60015561007a0190036002553d600060003e3d600020600355",
                "storage": {}
            },
            "0x1ad9bc24818784172ff393bb6f89f094d4d2ca29": {
                "nonce": "0x00",
                "balance": "0x3635c9adc5dea00000",
                "code": "0x",
                "storage": {}
            },
            "0xdd616a20f3b01fc95e6b1701d8a07331d06dd897": {
                "nonce": "0x01",
                "balance": "0x3635c9adc5de9c7c00",
                "code": "0x",
                "storage": {}
            },
            "0x0000000000000000000000000000000000000005": {
                "nonce": "0x00",
                "balance": "0x03e8",
                "code": "0x",
                "storage": {}
            },
            "0x2adc25665018aa1fe0e6bc666dac8fc2697ff9ba": {
                "nonce": "0x00",
                "balance": "0x1bc16d674ecb8018",
                "code": "0x",
                "storage": {}
            }
        },
        "lastblockhash": "0xfdd08f5478f2637909eb73efced091f2cd53950d4ffd95fd204cfd85af4dcf1f",
        "config": {
            "network": "Berlin",
            "chainid": "0x01"
        },
        "genesisRLP": "0xf901f9f901f4a00000000000000000000000000000000000000000000000000000000000000000a01dcc4de8dec75d7aab85b567b6ccd41ad312451b948a7413f0a142fd40d49347940000000000000000000000000000000000000000a0d8272e3dbc27b9371662d3eb3b4392e83260559906a5dbdfbff8fd86cd96de7aa056e81f171bcc55a6ff8345e692c0f86e5b48e01b996cadc001622fb5e363b421a056e81f171bcc55a6ff8345e692c0f86e5b48e01b996cadc001622fb5e363b421b901000000000000000000000000000000000000000000000000000000000000000000000000000000000000000000000000000000000000000000000000000000000000000000000000000000000000000000000000000000000000000000000000000000000000000000000000000000000000000000000000000000000000000000000000000000000000000000000000000000000000000000000000000000000000000000000000000000000000000000000000000000000000000000000000000000000000000000000000000000000000000000000000000000000000000000000000000000000000000000000000000000000000000000000000000000000083020000808407270e00808000a00000000000000000000000000000000000000000000000000000000000000000880000000000000000c0c0",
        "blocks": [
            {
                "blockHeader": {
                    "parentHash": "0xb656656d93d9ba3bc61ba19d70070627a55633fbf5adc43ad95ab7135a46bfe7",
                    "uncleHash": "0x1dcc4de8dec75d7aab85b567b6ccd41ad312451b948a7413f0a142fd40d49347",
                    "coinbase": "0x2adc25665018aa1fe0e6bc666dac8fc2697ff9ba",
                    "stateRoot": "0xcaca364ce1f7c090b18cc8b08a9b36980c1259bd4c7a1503c34c1bf18f854f68",
                    "transactionsTrie": "0xe5911bdcc61762d186dff677234bbfd186d0575b10889c062344b61ebfb4d524",
                    "receiptTrie": "0xc8038a257bc3638440aac969600ee8eb705a6c7faece0527e7db051ff4e819c9",
                    "bloom": "0x00000000000000000000000000000000000000000000000000000000000000000000000000000000000000000000000000000000000000000000000000000000000000000000000000000000000000000000000000000000000000000000000000000000000000000000000000000000000000000000000000000000000000000000000000000000000000000000000000000000000000000000000000000000000000000000000000000000000000000000000000000000000000000000000000000000000000000000000000000000000000000000000000000000000000000000000000000000000000000000000000000000000000000000000000000000",
                    "difficulty": "0x020000",
                    "number": "0x01",
                    "gasLimit": "0x07270e00",
                    "gasUsed": "0x599c",
                    "timestamp": "0x03e8",
                    "extraData": "0x00",
                    "mixHash": "0x0000000000000000000000000000000000000000000000000000000000000000",
                    "nonce": "0x0000000000000000",
                    "hash": "0xfdd08f5478f2637909eb73efced091f2cd53950d4ffd95fd204cfd85af4dcf1f"
                },
                "transactions": [
                    {
                        "type": "0x00",
                        "chainId": "0x01",
                        "nonce": "0x00",
                        "gasPrice": "0x0a",
                        "gasLimit": "0x0848ee",
                        "to": "0x0000000000000000000000000000000000000005",
                        "value": "0x03e8",
                        "data": "0x000000000000000000000000000000000000000000000000000000000000002800000000000000000000000000000000000000000000000000000000000000040000000000000000000000000000000000000000000000000000000000000028e8e77626586f73b955364c7b4bbf0bb7f7685ebd40e852b164633a4acbd3244c000102030405060701fffffff01681d2220bfea4bb888a5543db8c0916274ddb1ea93b144c042c01d8164c950001020304050607",
                        "v": "0x26",
                        "r": "0xf5a947036b050cf8ac0df3bd90f4b66e5d8603598712e76d2a66215d93074f61",
                        "s": "0x0c8b811a5f6b96732176eb448a122226178980e9b3e84ee9cb7a9eb184e7b745",
                        "sender": "0xdd616a20f3b01fc95e6b1701d8a07331d06dd897"
                    }
                ],
                "uncleHeaders": [],
                "receipts": [
                    {
                        "transactionHash": "0xdea637ad58c19aafc14d819dadd16e15a5c6248f1212a85f507130424395fbfc",
                        "type": "0x00",
                        "cumulativeGasUsed": "0x599c",
                        "bloom": "0x00000000000000000000000000000000000000000000000000000000000000000000000000000000000000000000000000000000000000000000000000000000000000000000000000000000000000000000000000000000000000000000000000000000000000000000000000000000000000000000000000000000000000000000000000000000000000000000000000000000000000000000000000000000000000000000000000000000000000000000000000000000000000000000000000000000000000000000000000000000000000000000000000000000000000000000000000000000000000000000000000000000000000000000000000000000",
                        "logs": [],
                        "status": true,
                        "rlp": "0xf901080182599cb9010000000000000000000000000000000000000000000000000000000000000000000000000000000000000000000000000000000000000000000000000000000000000000000000000000000000000000000000000000000000000000000000000000000000000000000000000000000000000000000000000000000000000000000000000000000000000000000000000000000000000000000000000000000000000000000000000000000000000000000000000000000000000000000000000000000000000000000000000000000000000000000000000000000000000000000000000000000000000000000000000000000000000000000000000000000000c0"
                    }
                ],
                "rlp": "0xf90319f901f8a0b656656d93d9ba3bc61ba19d70070627a55633fbf5adc43ad95ab7135a46bfe7a01dcc4de8dec75d7aab85b567b6ccd41ad312451b948a7413f0a142fd40d49347942adc25665018aa1fe0e6bc666dac8fc2697ff9baa0caca364ce1f7c090b18cc8b08a9b36980c1259bd4c7a1503c34c1bf18f854f68a0e5911bdcc61762d186dff677234bbfd186d0575b10889c062344b61ebfb4d524a0c8038a257bc3638440aac969600ee8eb705a6c7faece0527e7db051ff4e819c9b901000000000000000000000000000000000000000000000000000000000000000000000000000000000000000000000000000000000000000000000000000000000000000000000000000000000000000000000000000000000000000000000000000000000000000000000000000000000000000000000000000000000000000000000000000000000000000000000000000000000000000000000000000000000000000000000000000000000000000000000000000000000000000000000000000000000000000000000000000000000000000000000000000000000000000000000000000000000000000000000000000000000000000000000000000000000083020000018407270e0082599c8203e800a00000000000000000000000000000000000000000000000000000000000000000880000000000000000f9011af90117800a830848ee9400000000000000000000000000000000000000058203e8b8b4000000000000000000000000000000000000000000000000000000000000002800000000000000000000000000000000000000000000000000000000000000040000000000000000000000000000000000000000000000000000000000000028e8e77626586f73b955364c7b4bbf0bb7f7685ebd40e852b164633a4acbd3244c000102030405060701fffffff01681d2220bfea4bb888a5543db8c0916274ddb1ea93b144c042c01d8164c95000102030405060726a0f5a947036b050cf8ac0df3bd90f4b66e5d8603598712e76d2a66215d93074f61a00c8b811a5f6b96732176eb448a122226178980e9b3e84ee9cb7a9eb184e7b745c0",
                "blocknumber": "1"
            }
        ],
        "sealEngine": "NoProof",
        "_info": {
            "hash": "0xd45603b58bdbd168f908aa2c10b19c0f4f063ba118edbd115e2058a2c6009bb1",
            "fixture-format": "blockchain_test",
            "comment": "`execution-specs` generated test",
            "filling-transition-tool": "2.19.0",
            "description": "Test ModExp using in transaction entry points with different precompile gas\nmodifiers.",
            "url": "https://github.com/ethereum/execution-specs/blob/tests-bal@v5.6.0/tests/osaka/eip7883_modexp_gas_increase/test_modexp_thresholds.py#L355",
            "metadata": {
                "opcode_count": {}
            },
            "reference-spec": "https://github.com/ethereum/EIPs/blob/master/EIPS/eip-7883.md",
            "reference-spec-version": "13aa65810336d4f243d4563a828d5afe36035d23"
        }
    },
    "tests/osaka/eip7883_modexp_gas_increase/test_modexp_thresholds.py::test_modexp_used_in_transaction_entry_points[fork_Berlin-blockchain_test_from_state_test-insufficient_gas]": {
        "network": "Berlin",
        "genesisBlockHeader": {
            "parentHash": "0x0000000000000000000000000000000000000000000000000000000000000000",
            "uncleHash": "0x1dcc4de8dec75d7aab85b567b6ccd41ad312451b948a7413f0a142fd40d49347",
            "coinbase": "0x0000000000000000000000000000000000000000",
            "stateRoot": "0x601eb583b66e20e7b5462b5297a902b7eedbbc4295bb49fc13592250697ef0f0",
            "transactionsTrie": "0x56e81f171bcc55a6ff8345e692c0f86e5b48e01b996cadc001622fb5e363b421",
            "receiptTrie": "0x56e81f171bcc55a6ff8345e692c0f86e5b48e01b996cadc001622fb5e363b421",
            "bloom": "0x00000000000000000000000000000000000000000000000000000000000000000000000000000000000000000000000000000000000000000000000000000000000000000000000000000000000000000000000000000000000000000000000000000000000000000000000000000000000000000000000000000000000000000000000000000000000000000000000000000000000000000000000000000000000000000000000000000000000000000000000000000000000000000000000000000000000000000000000000000000000000000000000000000000000000000000000000000000000000000000000000000000000000000000000000000000",
            "difficulty": "0x020000",
            "number": "0x00",
            "gasLimit": "0x07270e00",
            "gasUsed": "0x00",
            "timestamp": "0x00",
            "extraData": "0x00",
            "mixHash": "0x0000000000000000000000000000000000000000000000000000000000000000",
            "nonce": "0x0000000000000000",
            "hash": "0xc5f78c2f2349092b525b7bbbfd3babb0092bb9a9fc9881d1efa76b4dc7cb5539"
        },
        "pre": {
            "0x25e26329c327fcd4e3dbf0a2fb0eecdd668e79a8": {
                "nonce": "0x01",
                "balance": "0x00",
                "code": "0x3660006000375a600060003660006000600560c7f15a906000553d600155",
                "storage": {}
            },
            "0x1ad9bc24818784172ff393bb6f89f094d4d2ca29": {
                "nonce": "0x00",
                "balance": "0x3635c9adc5dea00000",
                "code": "0x",
                "storage": {}
            },
            "0xdd616a20f3b01fc95e6b1701d8a07331d06dd897": {
                "nonce": "0x00",
                "balance": "0x3635c9adc5dea00000",
                "code": "0x",
                "storage": {}
            }
        },
        "postState": {
            "0x25e26329c327fcd4e3dbf0a2fb0eecdd668e79a8": {
                "nonce": "0x01",
                "balance": "0x00",
                "code": "0x3660006000375a600060003660006000600560c7f15a906000553d600155",
                "storage": {}
            },
            "0x1ad9bc24818784172ff393bb6f89f094d4d2ca29": {
                "nonce": "0x00",
                "balance": "0x3635c9adc5dea00000",
                "code": "0x",
                "storage": {}
            },
            "0xdd616a20f3b01fc95e6b1701d8a07331d06dd897": {
                "nonce": "0x01",
                "balance": "0x3635c9adc5de9c7fe8",
                "code": "0x",
                "storage": {}
            },
            "0x2adc25665018aa1fe0e6bc666dac8fc2697ff9ba": {
                "nonce": "0x00",
                "balance": "0x1bc16d674ecb8018",
                "code": "0x",
                "storage": {}
            }
        },
        "lastblockhash": "0xc56c5e64c38e3342ca412d4cb01c8fbaaea8b1189575e32dc11e0330bee12c6e",
        "config": {
            "network": "Berlin",
            "chainid": "0x01"
        },
        "genesisRLP": "0xf901f9f901f4a00000000000000000000000000000000000000000000000000000000000000000a01dcc4de8dec75d7aab85b567b6ccd41ad312451b948a7413f0a142fd40d49347940000000000000000000000000000000000000000a0601eb583b66e20e7b5462b5297a902b7eedbbc4295bb49fc13592250697ef0f0a056e81f171bcc55a6ff8345e692c0f86e5b48e01b996cadc001622fb5e363b421a056e81f171bcc55a6ff8345e692c0f86e5b48e01b996cadc001622fb5e363b421b901000000000000000000000000000000000000000000000000000000000000000000000000000000000000000000000000000000000000000000000000000000000000000000000000000000000000000000000000000000000000000000000000000000000000000000000000000000000000000000000000000000000000000000000000000000000000000000000000000000000000000000000000000000000000000000000000000000000000000000000000000000000000000000000000000000000000000000000000000000000000000000000000000000000000000000000000000000000000000000000000000000000000000000000000000000000083020000808407270e00808000a00000000000000000000000000000000000000000000000000000000000000000880000000000000000c0c0",
        "blocks": [
            {
                "blockHeader": {
                    "parentHash": "0xc5f78c2f2349092b525b7bbbfd3babb0092bb9a9fc9881d1efa76b4dc7cb5539",
                    "uncleHash": "0x1dcc4de8dec75d7aab85b567b6ccd41ad312451b948a7413f0a142fd40d49347",
                    "coinbase": "0x2adc25665018aa1fe0e6bc666dac8fc2697ff9ba",
                    "stateRoot": "0x1a7ab8c619a9d946e7aedc36a6306595bad841236e87b2ab8fcd1438c412b16f",
                    "transactionsTrie": "0xdd89e5057a69ed92c3dbc6b7cedc00f44cb1179c8ee90461567660205a76fec8",
                    "receiptTrie": "0xc8038a257bc3638440aac969600ee8eb705a6c7faece0527e7db051ff4e819c9",
                    "bloom": "0x00000000000000000000000000000000000000000000000000000000000000000000000000000000000000000000000000000000000000000000000000000000000000000000000000000000000000000000000000000000000000000000000000000000000000000000000000000000000000000000000000000000000000000000000000000000000000000000000000000000000000000000000000000000000000000000000000000000000000000000000000000000000000000000000000000000000000000000000000000000000000000000000000000000000000000000000000000000000000000000000000000000000000000000000000000000",
                    "difficulty": "0x020000",
                    "number": "0x01",
                    "gasLimit": "0x07270e00",
                    "gasUsed": "0x599c",
                    "timestamp": "0x03e8",
                    "extraData": "0x00",
                    "mixHash": "0x0000000000000000000000000000000000000000000000000000000000000000",
                    "nonce": "0x0000000000000000",
                    "hash": "0xc56c5e64c38e3342ca412d4cb01c8fbaaea8b1189575e32dc11e0330bee12c6e"
                },
                "transactions": [
                    {
                        "type": "0x00",
                        "chainId": "0x01",
                        "nonce": "0x00",
                        "gasPrice": "0x0a",
                        "gasLimit": "0x07face",
                        "to": "0x0000000000000000000000000000000000000005",
                        "value": "0x00",
                        "data": "0x000000000000000000000000000000000000000000000000000000000000002800000000000000000000000000000000000000000000000000000000000000040000000000000000000000000000000000000000000000000000000000000028e8e77626586f73b955364c7b4bbf0bb7f7685ebd40e852b164633a4acbd3244c000102030405060701fffffff01681d2220bfea4bb888a5543db8c0916274ddb1ea93b144c042c01d8164c950001020304050607",
                        "v": "0x25",
                        "r": "0x98aa2ecf3ac565ded60ac5f21d409085d670fab6fb4e7ec6aeeb2ed0fd15ec4e",
                        "s": "0x17b271984b78483f69d4b87c6922e8859c1844184bc7c1ef2b0c2979c86c4079",
                        "sender": "0xdd616a20f3b01fc95e6b1701d8a07331d06dd897"
                    }
                ],
                "uncleHeaders": [],
                "receipts": [
                    {
                        "transactionHash": "0xd23a301eb9ca2ea3d2b2d407bded853d72ea5b39a8aec5c0f77f0fa16264a5b8",
                        "type": "0x00",
                        "cumulativeGasUsed": "0x599c",
                        "bloom": "0x00000000000000000000000000000000000000000000000000000000000000000000000000000000000000000000000000000000000000000000000000000000000000000000000000000000000000000000000000000000000000000000000000000000000000000000000000000000000000000000000000000000000000000000000000000000000000000000000000000000000000000000000000000000000000000000000000000000000000000000000000000000000000000000000000000000000000000000000000000000000000000000000000000000000000000000000000000000000000000000000000000000000000000000000000000000",
                        "logs": [],
                        "status": true,
                        "rlp": "0xf901080182599cb9010000000000000000000000000000000000000000000000000000000000000000000000000000000000000000000000000000000000000000000000000000000000000000000000000000000000000000000000000000000000000000000000000000000000000000000000000000000000000000000000000000000000000000000000000000000000000000000000000000000000000000000000000000000000000000000000000000000000000000000000000000000000000000000000000000000000000000000000000000000000000000000000000000000000000000000000000000000000000000000000000000000000000000000000000000000000c0"
                    }
                ],
                "rlp": "0xf90317f901f8a0c5f78c2f2349092b525b7bbbfd3babb0092bb9a9fc9881d1efa76b4dc7cb5539a01dcc4de8dec75d7aab85b567b6ccd41ad312451b948a7413f0a142fd40d49347942adc25665018aa1fe0e6bc666dac8fc2697ff9baa01a7ab8c619a9d946e7aedc36a6306595bad841236e87b2ab8fcd1438c412b16fa0dd89e5057a69ed92c3dbc6b7cedc00f44cb1179c8ee90461567660205a76fec8a0c8038a257bc3638440aac969600ee8eb705a6c7faece0527e7db051ff4e819c9b901000000000000000000000000000000000000000000000000000000000000000000000000000000000000000000000000000000000000000000000000000000000000000000000000000000000000000000000000000000000000000000000000000000000000000000000000000000000000000000000000000000000000000000000000000000000000000000000000000000000000000000000000000000000000000000000000000000000000000000000000000000000000000000000000000000000000000000000000000000000000000000000000000000000000000000000000000000000000000000000000000000000000000000000000000000000083020000018407270e0082599c8203e800a00000000000000000000000000000000000000000000000000000000000000000880000000000000000f90118f90115800a8307face94000000000000000000000000000000000000000580b8b4000000000000000000000000000000000000000000000000000000000000002800000000000000000000000000000000000000000000000000000000000000040000000000000000000000000000000000000000000000000000000000000028e8e77626586f73b955364c7b4bbf0bb7f7685ebd40e852b164633a4acbd3244c000102030405060701fffffff01681d2220bfea4bb888a5543db8c0916274ddb1ea93b144c042c01d8164c95000102030405060725a098aa2ecf3ac565ded60ac5f21d409085d670fab6fb4e7ec6aeeb2ed0fd15ec4ea017b271984b78483f69d4b87c6922e8859c1844184bc7c1ef2b0c2979c86c4079c0",
                "blocknumber": "1"
            }
        ],
        "sealEngine": "NoProof",
        "_info": {
            "hash": "0xd152a10ee34084855cac1af5336eb9326c49bb04e3990a831cbd6981d5df18be",
            "fixture-format": "blockchain_test",
            "comment": "`execution-specs` generated test",
            "filling-transition-tool": "2.19.0",
            "description": "Test ModExp using in transaction entry points with different precompile gas\nmodifiers.",
            "url": "https://github.com/ethereum/execution-specs/blob/tests-bal@v5.6.0/tests/osaka/eip7883_modexp_gas_increase/test_modexp_thresholds.py#L355",
            "metadata": {
                "opcode_count": {}
            },
            "reference-spec": "https://github.com/ethereum/EIPs/blob/master/EIPS/eip-7883.md",
            "reference-spec-version": "13aa65810336d4f243d4563a828d5afe36035d23"
        }
    }
}