{
    "tests/osaka/eip7823_modexp_upper_bounds/test_eip_mainnet.py::test_modexp_over_boundary[fork_Osaka-state_test-base-over-boundary-1025-bytes]": {
        "env": {
            "currentCoinbase": "0x2adc25665018aa1fe0e6bc666dac8fc2697ff9ba",
            "currentGasLimit": "0x07270e00",
            "currentNumber": "0x01",
            "currentTimestamp": "0x03e8",
            "currentRandom": "0x0000000000000000000000000000000000000000000000000000000000000000",
            "currentDifficulty": "0x00",
            "currentBaseFee": "0x07",
            "currentExcessBlobGas": "0x00"
        },
        "pre": {
            "0x0439c96966bce141f4d966afb4486ab52dfdae45": {
                "nonce": "0x01",
                "balance": "0x00",
                "code": "0x3660006000375a6000600036600060006005618202f15a906000553d600155",
                "storage": {}
            },
            "0x4d8120515bf5c7a5750d8b19287b398fe27a2378": {
                "nonce": "0x00",
                "balance": "0x3635c9adc5dea00000",
                "code": "0x",
                "storage": {}
            }
        },
        "transaction": {
            "nonce": "0x00",
            "maxPriorityFeePerGas": "0x00",
            "maxFeePerGas": "0x07",
            "gasLimit": [
                "0x091a2a"
            ],
            "to": "0x0439c96966bce141f4d966afb4486ab52dfdae45",
            "value": [
                "0x00"
            ],
            "data": [
                "0x00000000000000000000000000000000000000000000000000000000000004010000000000000000000000000000000000000000000000000000000000000001000000000000000000000000000000000000000000000000000000000000000101010101010101010101010101010101010101010101010101010101010101010101010101010101010101010101010101010101010101010101010101010101010101010101010101010101010101010101010101010101010101010101010101010101010101010101010101010101010101010101010101010101010101010101010101010101010101010101010101010101010101010101010101010101010101010101010101010101010101010101010101010101010101010101010101010101010101010101010101010101010101010101010101010101010101010101010101010101010101010101010101010101010101010101010101010101010101010101010101010101010101010101010101010101010101010101010101010101010101010101010101010101010101010101010101010101010101010101010101010101010101010101010101010101010101010101010101010101010101010101010101010101010101010101010101010101010101010101010101010101010101010101010101010101010101010101010101010101010101010101010101010101010101010101010101010101010101010101010101010101010101010101010101010101010101010101010101010101010101010101010101010101010101010101010101010101010101010101010101010101010101010101010101010101010101010101010101010101010101010101010101010101010101010101010101010101010101010101010101010101010101010101010101010101010101010101010101010101010101010101010101010101010101010101010101010101010101010101010101010101010101010101010101010101010101010101010101010101010101010101010101010101010101010101010101010101010101010101010101010101010101010101010101010101010101010101010101010101010101010101010101010101010101010101010101010101010101010101010101010101010101010101010101010101010101010101010101010101010101010101010101010101010101010101010101010101010101010101010101010101010101010101010101010101010101010101010101010101010101010101010101010101010101010101010101010101010101010101010101010101010101010101010101010101010101010101010101010101010101010101010101010101010101010101010101010101010101010101010101010101010101010101010101010101010101010101010101010101010101010101010101010101010101010101010101010101010101010101010101010101010101010101010101010101010101010101010101010101010101010101010101010101010002"
            ],
            "accessLists": [
                []
            ],
            "sender": "0x4d8120515bf5c7a5750d8b19287b398fe27a2378",
            "secretKey": "0xdee7e72b70b3d582533ea9370439c96966bce141f4d966afb4486ab52dfdae45"
        },
        "post": {
            "Osaka": [
                {
                    "hash": "0xa5c7ea4bf1119dd1b1fc7c56a49a5fa82411c679915adde4c6c066efd9137de9",
                    "logs": "0x1dcc4de8dec75d7aab85b567b6ccd41ad312451b948a7413f0a142fd40d49347",
                    "txbytes": "0x02f904c80180800783091a2a940439c96966bce141f4d966afb4486ab52dfdae4580b9046300000000000000000000000000000000000000000000000000000000000004010000000000000000000000000000000000000000000000000000000000000001000000000000000000000000000000000000000000000000000000000000000101010101010101010101010101010101010101010101010101010101010101010101010101010101010101010101010101010101010101010101010101010101010101010101010101010101010101010101010101010101010101010101010101010101010101010101010101010101010101010101010101010101010101010101010101010101010101010101010101010101010101010101010101010101010101010101010101010101010101010101010101010101010101010101010101010101010101010101010101010101010101010101010101010101010101010101010101010101010101010101010101010101010101010101010101010101010101010101010101010101010101010101010101010101010101010101010101010101010101010101010101010101010101010101010101010101010101010101010101010101010101010101010101010101010101010101010101010101010101010101010101010101010101010101010101010101010101010101010101010101010101010101010101010101010101010101010101010101010101010101010101010101010101010101010101010101010101010101010101010101010101010101010101010101010101010101010101010101010101010101010101010101010101010101010101010101010101010101010101010101010101010101010101010101010101010101010101010101010101010101010101010101010101010101010101010101010101010101010101010101010101010101010101010101010101010101010101010101010101010101010101010101010101010101010101010101010101010101010101010101010101010101010101010101010101010101010101010101010101010101010101010101010101010101010101010101010101010101010101010101010101010101010101010101010101010101010101010101010101010101010101010101010101010101010101010101010101010101010101010101010101010101010101010101010101010101010101010101010101010101010101010101010101010101010101010101010101010101010101010101010101010101010101010101010101010101010101010101010101010101010101010101010101010101010101010101010101010101010101010101010101010101010101010101010101010101010101010101010101010101010101010101010101010101010101010101010101010101010101010101010101010101010101010101010101010101010101010101010101010101010101010101010101010101010101010101010101010101010101010101010101010101010101010101010101010101010101010101010101010101010101010101010002c080a03d853a049dff7302406f7adf249ef49203bc77a20ac917a45bd0608b72aff1a5a0343a79d311ac64d1cea38b734b52e8aecf7f67493cc4f5a4c9b4feb90b5a0275",
                    "indexes": {
                        "data": 0,
                        "gas": 0,
                        "value": 0
                    },
                    "state": {
                        "0x0439c96966bce141f4d966afb4486ab52dfdae45": {
                            "nonce": "0x01",
                            "balance": "0x00",
                            "code": "0x3660006000375a6000600036600060006005618202f15a906000553d600155",
                            "storage": {}
                        },
                        "0x4d8120515bf5c7a5750d8b19287b398fe27a2378": {
                            "nonce": "0x01",
                            "balance": "0x3635c9adc5de97e4aa",
                            "code": "0x",
                            "storage": {}
                        }
                    }
                }
            ]
        },
        "config": {
            "blobSchedule": {
                "Cancun": {
                    "target": "0x03",
                    "max": "0x06",
                    "baseFeeUpdateFraction": "0x32f0ed"
                },
                "Prague": {
                    "target": "0x06",
                    "max": "0x09",
                    "baseFeeUpdateFraction": "0x4c6964"
                },
                "Osaka": {
                    "target": "0x06",
                    "max": "0x09",
                    "baseFeeUpdateFraction": "0x4c6964"
                }
            },
            "chainid": "0x01"
        },
        "_info": {
            "hash": "0x734f7c2ace8536f40e64211a28e24b6a1c3e518f7ccb515219e99870aa32dc3a",
            "comment": "`execution-specs` generated test",
            "filling-transition-tool": "2.18.0rc6",
            "description": "Mainnet test exceeding the 1024-byte boundary.\n\n    Tests that the ModExp precompile correctly rejects input exceeding the\n    maximum allowed length (1024 bytes) per EIP-7823. This proves the EIP\n    is correctly activated.",
            "url": "https://github.com/ethereum/execution-specs/blob/tests-v5.4.0/tests/osaka/eip7823_modexp_upper_bounds/test_eip_mainnet.py#L66",
            "fixture-format": "state_test",
            "reference-spec": "https://github.com/ethereum/EIPs/blob/master/EIPS/eip-7823.md",
            "reference-spec-version": "c8321494fdfbfda52ad46c3515a7ca5dc86b857c"
        }
    }
}