{
    "tests/ported_static/stStaticCall/test_static_callcodecallcall_abcb_recursive.py::test_static_callcodecallcall_abcb_recursive[fork_Cancun-blockchain_test_from_state_test]": {
        "network": "Cancun",
        "genesisBlockHeader": {
            "parentHash": "0x0000000000000000000000000000000000000000000000000000000000000000",
            "uncleHash": "0x1dcc4de8dec75d7aab85b567b6ccd41ad312451b948a7413f0a142fd40d49347",
            "coinbase": "0x0000000000000000000000000000000000000000",
            "stateRoot": "0x352d5a95ddfc0a6280cc171188e63d1e7d7c2e80b5dfc5f8dd7c259c60fc2f61",
            "transactionsTrie": "0x56e81f171bcc55a6ff8345e692c0f86e5b48e01b996cadc001622fb5e363b421",
            "receiptTrie": "0x56e81f171bcc55a6ff8345e692c0f86e5b48e01b996cadc001622fb5e363b421",
            "bloom": "0x00000000000000000000000000000000000000000000000000000000000000000000000000000000000000000000000000000000000000000000000000000000000000000000000000000000000000000000000000000000000000000000000000000000000000000000000000000000000000000000000000000000000000000000000000000000000000000000000000000000000000000000000000000000000000000000000000000000000000000000000000000000000000000000000000000000000000000000000000000000000000000000000000000000000000000000000000000000000000000000000000000000000000000000000000000000",
            "difficulty": "0x00",
            "number": "0x00",
            "gasLimit": "0x07270e00",
            "gasUsed": "0x00",
            "timestamp": "0x00",
            "extraData": "0x00",
            "mixHash": "0x0000000000000000000000000000000000000000000000000000000000000000",
            "nonce": "0x0000000000000000",
            "baseFeePerGas": "0x0b",
            "withdrawalsRoot": "0x56e81f171bcc55a6ff8345e692c0f86e5b48e01b996cadc001622fb5e363b421",
            "blobGasUsed": "0x00",
            "excessBlobGas": "0x00",
            "parentBeaconBlockRoot": "0x0000000000000000000000000000000000000000000000000000000000000000",
            "hash": "0x259ffaf06c0c22e8c87ec663c7c91362c368db31129a3f11962e4df31ce88476"
        },
        "pre": {
            "0x000f3df6d732807ef1319fb7b8bb8522d0beac02": {
                "nonce": "0x01",
                "balance": "0x00",
                "code": "0x3373fffffffffffffffffffffffffffffffffffffffe14604d57602036146024575f5ffd5b5f35801560495762001fff810690815414603c575f5ffd5b62001fff01545f5260205ff35b5f5ffd5b62001fff42064281555f359062001fff015500",
                "storage": {}
            },
            "0x56325d37cdce6b5858e63b1f0a691db81d65e6dd": {
                "nonce": "0x00",
                "balance": "0x0de0b6b3a7640000",
                "code": "0x6040600060406000732733821fa13c4ead1c9631c76820333f42059b7c63017d7840f4600055600160015500",
                "storage": {}
            },
            "0x2733821fa13c4ead1c9631c76820333f42059b7c": {
                "nonce": "0x00",
                "balance": "0x02540be400",
                "code": "0x6040600060406000731e2229d0f325b81b81b8b14f2d239ff9742683c0620f4240fa00",
                "storage": {}
            },
            "0x1e2229d0f325b81b81b8b14f2d239ff9742683c0": {
                "nonce": "0x00",
                "balance": "0x02540be400",
                "code": "0x6040600060406000732733821fa13c4ead1c9631c76820333f42059b7c6207a120fa00",
                "storage": {}
            },
            "0xebaf50debf10e08302fe4280c32df010463ca297": {
                "nonce": "0x00",
                "balance": "0x0de0b6b3a7640000",
                "code": "0x",
                "storage": {}
            }
        },
        "postState": {
            "0x000f3df6d732807ef1319fb7b8bb8522d0beac02": {
                "nonce": "0x01",
                "balance": "0x00",
                "code": "0x3373fffffffffffffffffffffffffffffffffffffffe14604d57602036146024575f5ffd5b5f35801560495762001fff810690815414603c575f5ffd5b62001fff01545f5260205ff35b5f5ffd5b62001fff42064281555f359062001fff015500",
                "storage": {
                    "0x03e8": "0x03e8"
                }
            },
            "0x56325d37cdce6b5858e63b1f0a691db81d65e6dd": {
                "nonce": "0x00",
                "balance": "0x0de0b6b3a7640000",
                "code": "0x6040600060406000732733821fa13c4ead1c9631c76820333f42059b7c63017d7840f4600055600160015500",
                "storage": {
                    "0x00": "0x01",
                    "0x01": "0x01"
                }
            },
            "0x2733821fa13c4ead1c9631c76820333f42059b7c": {
                "nonce": "0x00",
                "balance": "0x02540be400",
                "code": "0x6040600060406000731e2229d0f325b81b81b8b14f2d239ff9742683c0620f4240fa00",
                "storage": {}
            },
            "0x1e2229d0f325b81b81b8b14f2d239ff9742683c0": {
                "nonce": "0x00",
                "balance": "0x02540be400",
                "code": "0x6040600060406000732733821fa13c4ead1c9631c76820333f42059b7c6207a120fa00",
                "storage": {}
            },
            "0xebaf50debf10e08302fe4280c32df010463ca297": {
                "nonce": "0x01",
                "balance": "0x0de0b6b3a75435bc",
                "code": "0x",
                "storage": {}
            }
        },
        "lastblockhash": "0x883553b952ac9c99c8f4e586f33158aed162a737fc634a1193b028d171f89001",
        "config": {
            "network": "Cancun",
            "chainid": "0x01",
            "blobSchedule": {
                "Cancun": {
                    "target": "0x03",
                    "max": "0x06",
                    "baseFeeUpdateFraction": "0x32f0ed"
                }
            }
        },
        "genesisRLP": "0xf9023cf90236a00000000000000000000000000000000000000000000000000000000000000000a01dcc4de8dec75d7aab85b567b6ccd41ad312451b948a7413f0a142fd40d49347940000000000000000000000000000000000000000a0352d5a95ddfc0a6280cc171188e63d1e7d7c2e80b5dfc5f8dd7c259c60fc2f61a056e81f171bcc55a6ff8345e692c0f86e5b48e01b996cadc001622fb5e363b421a056e81f171bcc55a6ff8345e692c0f86e5b48e01b996cadc001622fb5e363b421b901000000000000000000000000000000000000000000000000000000000000000000000000000000000000000000000000000000000000000000000000000000000000000000000000000000000000000000000000000000000000000000000000000000000000000000000000000000000000000000000000000000000000000000000000000000000000000000000000000000000000000000000000000000000000000000000000000000000000000000000000000000000000000000000000000000000000000000000000000000000000000000000000000000000000000000000000000000000000000000000000000000000000000000000000000000000080808407270e00808000a000000000000000000000000000000000000000000000000000000000000000008800000000000000000ba056e81f171bcc55a6ff8345e692c0f86e5b48e01b996cadc001622fb5e363b4218080a00000000000000000000000000000000000000000000000000000000000000000c0c0c0",
        "blocks": [
            {
                "blockHeader": {
                    "parentHash": "0x259ffaf06c0c22e8c87ec663c7c91362c368db31129a3f11962e4df31ce88476",
                    "uncleHash": "0x1dcc4de8dec75d7aab85b567b6ccd41ad312451b948a7413f0a142fd40d49347",
                    "coinbase": "0x2adc25665018aa1fe0e6bc666dac8fc2697ff9ba",
                    "stateRoot": "0x8c52ab42c6c4789b036cbb3c6b97a01a29bc4230d39e442f93a023bf10f65e69",
                    "transactionsTrie": "0xb20b8fab52523924aa1cbd972bd97bb3f5724baf4135ae1479fa639ea3a6a902",
                    "receiptTrie": "0x39a3970b44a63a808b12a5514943549611c22b07544e3c1bf42314e4dc25e230",
                    "bloom": "0x00000000000000000000000000000000000000000000000000000000000000000000000000000000000000000000000000000000000000000000000000000000000000000000000000000000000000000000000000000000000000000000000000000000000000000000000000000000000000000000000000000000000000000000000000000000000000000000000000000000000000000000000000000000000000000000000000000000000000000000000000000000000000000000000000000000000000000000000000000000000000000000000000000000000000000000000000000000000000000000000000000000000000000000000000000000",
                    "difficulty": "0x00",
                    "number": "0x01",
                    "gasLimit": "0x07270e00",
                    "gasUsed": "0x01943a",
                    "timestamp": "0x03e8",
                    "extraData": "0x00",
                    "mixHash": "0x0000000000000000000000000000000000000000000000000000000000020000",
                    "nonce": "0x0000000000000000",
                    "baseFeePerGas": "0x0a",
                    "withdrawalsRoot": "0x56e81f171bcc55a6ff8345e692c0f86e5b48e01b996cadc001622fb5e363b421",
                    "blobGasUsed": "0x00",
                    "excessBlobGas": "0x00",
                    "parentBeaconBlockRoot": "0x0000000000000000000000000000000000000000000000000000000000000000",
                    "hash": "0x883553b952ac9c99c8f4e586f33158aed162a737fc634a1193b028d171f89001"
                },
                "transactions": [
                    {
                        "type": "0x00",
                        "chainId": "0x01",
                        "nonce": "0x00",
                        "gasPrice": "0x0a",
                        "gasLimit": "0x0927c0",
                        "to": "0x56325d37cdce6b5858e63b1f0a691db81d65e6dd",
                        "value": "0x00",
                        "data": "0x",
                        "v": "0x25",
                        "r": "0xf7f844aa86d9803c368fc73709b6e48a15afe486e3167ff9f3686dcd9c2540e6",
                        "s": "0x756f0aaf413558474d365b6fc040817eb875c0400074874d301cd44a11ac2284",
                        "sender": "0xebaf50debf10e08302fe4280c32df010463ca297"
                    }
                ],
                "uncleHeaders": [],
                "withdrawals": [],
                "receipts": [
                    {
                        "transactionHash": "0x29528339530f6fee5608cf5f1db2accbd8a5d0cb69ed46cd8b2a00da869f049f",
                        "type": "0x00",
                        "cumulativeGasUsed": "0x01943a",
                        "bloom": "0x00000000000000000000000000000000000000000000000000000000000000000000000000000000000000000000000000000000000000000000000000000000000000000000000000000000000000000000000000000000000000000000000000000000000000000000000000000000000000000000000000000000000000000000000000000000000000000000000000000000000000000000000000000000000000000000000000000000000000000000000000000000000000000000000000000000000000000000000000000000000000000000000000000000000000000000000000000000000000000000000000000000000000000000000000000000",
                        "logs": [],
                        "status": true,
                        "rlp": "0xf90109018301943ab9010000000000000000000000000000000000000000000000000000000000000000000000000000000000000000000000000000000000000000000000000000000000000000000000000000000000000000000000000000000000000000000000000000000000000000000000000000000000000000000000000000000000000000000000000000000000000000000000000000000000000000000000000000000000000000000000000000000000000000000000000000000000000000000000000000000000000000000000000000000000000000000000000000000000000000000000000000000000000000000000000000000000000000000000000000000000c0"
                    }
                ],
                "rlp": "0xf902a4f9023ba0259ffaf06c0c22e8c87ec663c7c91362c368db31129a3f11962e4df31ce88476a01dcc4de8dec75d7aab85b567b6ccd41ad312451b948a7413f0a142fd40d49347942adc25665018aa1fe0e6bc666dac8fc2697ff9baa08c52ab42c6c4789b036cbb3c6b97a01a29bc4230d39e442f93a023bf10f65e69a0b20b8fab52523924aa1cbd972bd97bb3f5724baf4135ae1479fa639ea3a6a902a039a3970b44a63a808b12a5514943549611c22b07544e3c1bf42314e4dc25e230b901000000000000000000000000000000000000000000000000000000000000000000000000000000000000000000000000000000000000000000000000000000000000000000000000000000000000000000000000000000000000000000000000000000000000000000000000000000000000000000000000000000000000000000000000000000000000000000000000000000000000000000000000000000000000000000000000000000000000000000000000000000000000000000000000000000000000000000000000000000000000000000000000000000000000000000000000000000000000000000000000000000000000000000000000000000000080018407270e008301943a8203e800a000000000000000000000000000000000000000000000000000000000000200008800000000000000000aa056e81f171bcc55a6ff8345e692c0f86e5b48e01b996cadc001622fb5e363b4218080a00000000000000000000000000000000000000000000000000000000000000000f862f860800a830927c09456325d37cdce6b5858e63b1f0a691db81d65e6dd808025a0f7f844aa86d9803c368fc73709b6e48a15afe486e3167ff9f3686dcd9c2540e6a0756f0aaf413558474d365b6fc040817eb875c0400074874d301cd44a11ac2284c0c0",
                "blocknumber": "1"
            }
        ],
        "sealEngine": "NoProof",
        "_info": {
            "hash": "0xa9240c3f3f330cea1785478b282b7af64e52cb39f95d4605e9746bf3529938a0",
            "fixture-format": "blockchain_test",
            "comment": "`execution-specs` generated test",
            "filling-transition-tool": "2.19.0",
            "description": "Test_static_callcodecallcall_abcb_recursive.",
            "url": "https://github.com/ethereum/execution-specs/blob/tests-bal@v5.7.0/tests/ported_static/stStaticCall/test_static_callcodecallcall_abcb_recursive.py#L25",
            "metadata": {
                "opcode_count": {}
            }
        }
    }
}