{
    "tests/static/state_tests/stRandom2/randomStatetest405Filler.json::randomStatetest405[fork_Cancun-blockchain_test_from_state_test-]": {
        "network": "Cancun",
        "genesisBlockHeader": {
            "parentHash": "0x0000000000000000000000000000000000000000000000000000000000000000",
            "uncleHash": "0x1dcc4de8dec75d7aab85b567b6ccd41ad312451b948a7413f0a142fd40d49347",
            "coinbase": "0x0000000000000000000000000000000000000000",
            "stateRoot": "0x01b5d70457f99e35ff15957c64155bfc215d07f48b0024c619c62c6366b1b256",
            "transactionsTrie": "0x56e81f171bcc55a6ff8345e692c0f86e5b48e01b996cadc001622fb5e363b421",
            "receiptTrie": "0x56e81f171bcc55a6ff8345e692c0f86e5b48e01b996cadc001622fb5e363b421",
            "bloom": "0x00000000000000000000000000000000000000000000000000000000000000000000000000000000000000000000000000000000000000000000000000000000000000000000000000000000000000000000000000000000000000000000000000000000000000000000000000000000000000000000000000000000000000000000000000000000000000000000000000000000000000000000000000000000000000000000000000000000000000000000000000000000000000000000000000000000000000000000000000000000000000000000000000000000000000000000000000000000000000000000000000000000000000000000000000000000",
            "difficulty": "0x00",
            "number": "0x00",
            "gasLimit": "0x7fffffffffffffff",
            "gasUsed": "0x00",
            "timestamp": "0x00",
            "extraData": "0x00",
            "mixHash": "0x0000000000000000000000000000000000000000000000000000000000000000",
            "nonce": "0x0000000000000000",
            "baseFeePerGas": "0x0b",
            "withdrawalsRoot": "0x56e81f171bcc55a6ff8345e692c0f86e5b48e01b996cadc001622fb5e363b421",
            "blobGasUsed": "0x00",
            "excessBlobGas": "0x00",
            "parentBeaconBlockRoot": "0x0000000000000000000000000000000000000000000000000000000000000000",
            "hash": "0x1d2f324b65b23e8d6b8f499cc586e9d475d6a2ce7c743ac41400bf064ae4bfaa"
        },
        "pre": {
            "0x000f3df6d732807ef1319fb7b8bb8522d0beac02": {
                "nonce": "0x01",
                "balance": "0x00",
                "code": "0x3373fffffffffffffffffffffffffffffffffffffffe14604d57602036146024575f5ffd5b5f35801560495762001fff810690815414603c575f5ffd5b62001fff01545f5260205ff35b5f5ffd5b62001fff42064281555f359062001fff015500",
                "storage": {}
            },
            "0x2e3d0156d2b99a6eacba540c55f423c8f5a33143": {
                "nonce": "0x00",
                "balance": "0x0de0b6b3a7640000",
                "code": "0x",
                "storage": {}
            },
            "0x4f3f701464972e74606d6ea82d4d3080599a0e79": {
                "nonce": "0x00",
                "balance": "0x2e",
                "code": "0x6000355415600957005b60203560003555",
                "storage": {}
            },
            "0x7c7f33c2e8538464d27219e4a7581a2667bc7242": {
                "nonce": "0x00",
                "balance": "0x00",
                "code": "0x7fffffffffffffffffffffffffffffffffffffffffffffffffffffffffffffffff7fffffffffffffffffffffffffffffffffffffffffffffffffffffffffffffffff44457f0000000000000000000000010000000000000000000000000000000000000000037ffffffffffffffffffffffffffffffffffffffffffffffffffffffffffffffffe7fffffffffffffffffffffffffffffffffffffffffffffffffffffffffffffffff6f318d0707977199361171756f6d458e5560005155",
                "storage": {}
            }
        },
        "postState": {
            "0x000f3df6d732807ef1319fb7b8bb8522d0beac02": {
                "nonce": "0x01",
                "balance": "0x00",
                "code": "0x3373fffffffffffffffffffffffffffffffffffffffe14604d57602036146024575f5ffd5b5f35801560495762001fff810690815414603c575f5ffd5b62001fff01545f5260205ff35b5f5ffd5b62001fff42064281555f359062001fff015500",
                "storage": {
                    "0x03e8": "0x03e8"
                }
            },
            "0x2e3d0156d2b99a6eacba540c55f423c8f5a33143": {
                "nonce": "0x01",
                "balance": "0x0de0b6b3970396ed",
                "code": "0x",
                "storage": {}
            },
            "0x4f3f701464972e74606d6ea82d4d3080599a0e79": {
                "nonce": "0x00",
                "balance": "0x2e",
                "code": "0x6000355415600957005b60203560003555",
                "storage": {}
            },
            "0x7c7f33c2e8538464d27219e4a7581a2667bc7242": {
                "nonce": "0x00",
                "balance": "0x10596faf",
                "code": "0x7fffffffffffffffffffffffffffffffffffffffffffffffffffffffffffffffff7fffffffffffffffffffffffffffffffffffffffffffffffffffffffffffffffff44457f0000000000000000000000010000000000000000000000000000000000000000037ffffffffffffffffffffffffffffffffffffffffffffffffffffffffffffffffe7fffffffffffffffffffffffffffffffffffffffffffffffffffffffffffffffff6f318d0707977199361171756f6d458e5560005155",
                "storage": {
                    "0x00": "0x318d0707977199361171756f6d458e55"
                }
            }
        },
        "lastblockhash": "0x98eb06ac34a7c3a873b430ce6d8e9fc98e7ecf150c7225d89d20abf58d6b1a40",
        "config": {
            "network": "Cancun",
            "chainid": "0x01",
            "blobSchedule": {
                "Cancun": {
                    "target": "0x03",
                    "max": "0x06",
                    "baseFeeUpdateFraction": "0x32f0ed"
                }
            }
        },
        "genesisRLP": "0xf90240f9023aa00000000000000000000000000000000000000000000000000000000000000000a01dcc4de8dec75d7aab85b567b6ccd41ad312451b948a7413f0a142fd40d49347940000000000000000000000000000000000000000a001b5d70457f99e35ff15957c64155bfc215d07f48b0024c619c62c6366b1b256a056e81f171bcc55a6ff8345e692c0f86e5b48e01b996cadc001622fb5e363b421a056e81f171bcc55a6ff8345e692c0f86e5b48e01b996cadc001622fb5e363b421b90100000000000000000000000000000000000000000000000000000000000000000000000000000000000000000000000000000000000000000000000000000000000000000000000000000000000000000000000000000000000000000000000000000000000000000000000000000000000000000000000000000000000000000000000000000000000000000000000000000000000000000000000000000000000000000000000000000000000000000000000000000000000000000000000000000000000000000000000000000000000000000000000000000000000000000000000000000000000000000000000000000000000000000000000000000000008080887fffffffffffffff808000a000000000000000000000000000000000000000000000000000000000000000008800000000000000000ba056e81f171bcc55a6ff8345e692c0f86e5b48e01b996cadc001622fb5e363b4218080a00000000000000000000000000000000000000000000000000000000000000000c0c0c0",
        "blocks": [
            {
                "blockHeader": {
                    "parentHash": "0x1d2f324b65b23e8d6b8f499cc586e9d475d6a2ce7c743ac41400bf064ae4bfaa",
                    "uncleHash": "0x1dcc4de8dec75d7aab85b567b6ccd41ad312451b948a7413f0a142fd40d49347",
                    "coinbase": "0x4f3f701464972e74606d6ea82d4d3080599a0e79",
                    "stateRoot": "0x2d5b5c0bf377a54f2cd6eb5e54f1b3cc3f0dde45a7bc9916dd6f8f57380400a9",
                    "transactionsTrie": "0xb2dce04090a338e4591d237729c9fa795a02dd8cc2858b803f25ede26aea77bb",
                    "receiptTrie": "0x03e6b789dbd72d0e9ceea2b1c8521a3c606afa8784f395cda9444d5dc270d50c",
                    "bloom": "0x00000000000000000000000000000000000000000000000000000000000000000000000000000000000000000000000000000000000000000000000000000000000000000000000000000000000000000000000000000000000000000000000000000000000000000000000000000000000000000000000000000000000000000000000000000000000000000000000000000000000000000000000000000000000000000000000000000000000000000000000000000000000000000000000000000000000000000000000000000000000000000000000000000000000000000000000000000000000000000000000000000000000000000000000000000000",
                    "difficulty": "0x00",
                    "number": "0x01",
                    "gasLimit": "0x7fffffffffffffff",
                    "gasUsed": "0xb28a",
                    "timestamp": "0x03e8",
                    "extraData": "0x00",
                    "mixHash": "0x0000000000000000000000000000000000000000000000000000000000020000",
                    "nonce": "0x0000000000000000",
                    "baseFeePerGas": "0x0a",
                    "withdrawalsRoot": "0x56e81f171bcc55a6ff8345e692c0f86e5b48e01b996cadc001622fb5e363b421",
                    "blobGasUsed": "0x00",
                    "excessBlobGas": "0x00",
                    "parentBeaconBlockRoot": "0x0000000000000000000000000000000000000000000000000000000000000000",
                    "hash": "0x98eb06ac34a7c3a873b430ce6d8e9fc98e7ecf150c7225d89d20abf58d6b1a40"
                },
                "transactions": [
                    {
                        "type": "0x00",
                        "chainId": "0x01",
                        "nonce": "0x00",
                        "gasPrice": "0x0a",
                        "gasLimit": "0x0186a0",
                        "to": "0x7c7f33c2e8538464d27219e4a7581a2667bc7242",
                        "value": "0x10596faf",
                        "data": "0x7fffffffffffffffffffffffffffffffffffffffffffffffffffffffffffffffff7fffffffffffffffffffffffffffffffffffffffffffffffffffffffffffffffff44457f0000000000000000000000010000000000000000000000000000000000000000037ffffffffffffffffffffffffffffffffffffffffffffffffffffffffffffffffe7fffffffffffffffffffffffffffffffffffffffffffffffffffffffffffffffff6f318d0707977199361171756f6d458e",
                        "v": "0x26",
                        "r": "0xd5d88625a320bdf68ec91fd4becaf43466e81787a50f312f2e4530b009b0fb11",
                        "s": "0x7d0a79eb89cc55fe1e505c2bc17985b7f860b1100f4101e0ea4d95d6a1b87680",
                        "sender": "0x2e3d0156d2b99a6eacba540c55f423c8f5a33143"
                    }
                ],
                "uncleHeaders": [],
                "withdrawals": [],
                "receipts": [
                    {
                        "transactionHash": "0x1fcaf52d8984ca45d4a5bed43a3ecbda51dc6b91bc65fa2a3758a64252d05eff",
                        "type": "0x00",
                        "cumulativeGasUsed": "0xb28a",
                        "bloom": "0x00000000000000000000000000000000000000000000000000000000000000000000000000000000000000000000000000000000000000000000000000000000000000000000000000000000000000000000000000000000000000000000000000000000000000000000000000000000000000000000000000000000000000000000000000000000000000000000000000000000000000000000000000000000000000000000000000000000000000000000000000000000000000000000000000000000000000000000000000000000000000000000000000000000000000000000000000000000000000000000000000000000000000000000000000000000",
                        "logs": [],
                        "status": true,
                        "rlp": "0xf901080182b28ab9010000000000000000000000000000000000000000000000000000000000000000000000000000000000000000000000000000000000000000000000000000000000000000000000000000000000000000000000000000000000000000000000000000000000000000000000000000000000000000000000000000000000000000000000000000000000000000000000000000000000000000000000000000000000000000000000000000000000000000000000000000000000000000000000000000000000000000000000000000000000000000000000000000000000000000000000000000000000000000000000000000000000000000000000000000000000c0"
                    }
                ],
                "rlp": "0xf90366f9023ea01d2f324b65b23e8d6b8f499cc586e9d475d6a2ce7c743ac41400bf064ae4bfaaa01dcc4de8dec75d7aab85b567b6ccd41ad312451b948a7413f0a142fd40d49347944f3f701464972e74606d6ea82d4d3080599a0e79a02d5b5c0bf377a54f2cd6eb5e54f1b3cc3f0dde45a7bc9916dd6f8f57380400a9a0b2dce04090a338e4591d237729c9fa795a02dd8cc2858b803f25ede26aea77bba003e6b789dbd72d0e9ceea2b1c8521a3c606afa8784f395cda9444d5dc270d50cb90100000000000000000000000000000000000000000000000000000000000000000000000000000000000000000000000000000000000000000000000000000000000000000000000000000000000000000000000000000000000000000000000000000000000000000000000000000000000000000000000000000000000000000000000000000000000000000000000000000000000000000000000000000000000000000000000000000000000000000000000000000000000000000000000000000000000000000000000000000000000000000000000000000000000000000000000000000000000000000000000000000000000000000000000000000000008001887fffffffffffffff82b28a8203e800a000000000000000000000000000000000000000000000000000000000000200008800000000000000000aa056e81f171bcc55a6ff8345e692c0f86e5b48e01b996cadc001622fb5e363b4218080a00000000000000000000000000000000000000000000000000000000000000000f90120f9011d800a830186a0947c7f33c2e8538464d27219e4a7581a2667bc72428410596fafb8b87fffffffffffffffffffffffffffffffffffffffffffffffffffffffffffffffff7fffffffffffffffffffffffffffffffffffffffffffffffffffffffffffffffff44457f0000000000000000000000010000000000000000000000000000000000000000037ffffffffffffffffffffffffffffffffffffffffffffffffffffffffffffffffe7fffffffffffffffffffffffffffffffffffffffffffffffffffffffffffffffff6f318d0707977199361171756f6d458e26a0d5d88625a320bdf68ec91fd4becaf43466e81787a50f312f2e4530b009b0fb11a07d0a79eb89cc55fe1e505c2bc17985b7f860b1100f4101e0ea4d95d6a1b87680c0c0",
                "blocknumber": "1"
            }
        ],
        "sealEngine": "NoProof",
        "_info": {
            "hash": "0xcdbc0da5559806ff286f65c1ff551df5e393a8649f27fa8c7fb0d48f12f1bb70",
            "fixture-format": "blockchain_test",
            "comment": "`execution-specs` generated test",
            "filling-transition-tool": "2.19.0",
            "description": "No description available - add a docstring to the python test class or function.",
            "url": "",
            "opcode_count": {}
        }
    }
}