{
    "tests/static/state_tests/stRandom2/randomStatetest643Filler.json::randomStatetest643[fork_Cancun-blockchain_test_from_state_test-]": {
        "network": "Cancun",
        "genesisBlockHeader": {
            "parentHash": "0x0000000000000000000000000000000000000000000000000000000000000000",
            "uncleHash": "0x1dcc4de8dec75d7aab85b567b6ccd41ad312451b948a7413f0a142fd40d49347",
            "coinbase": "0x0000000000000000000000000000000000000000",
            "stateRoot": "0x9da4b1af3db01e13f49d306c2bd53cb3a238797fe8c634ad66ebaa1b13d0d147",
            "transactionsTrie": "0x56e81f171bcc55a6ff8345e692c0f86e5b48e01b996cadc001622fb5e363b421",
            "receiptTrie": "0x56e81f171bcc55a6ff8345e692c0f86e5b48e01b996cadc001622fb5e363b421",
            "bloom": "0x00000000000000000000000000000000000000000000000000000000000000000000000000000000000000000000000000000000000000000000000000000000000000000000000000000000000000000000000000000000000000000000000000000000000000000000000000000000000000000000000000000000000000000000000000000000000000000000000000000000000000000000000000000000000000000000000000000000000000000000000000000000000000000000000000000000000000000000000000000000000000000000000000000000000000000000000000000000000000000000000000000000000000000000000000000000",
            "difficulty": "0x00",
            "number": "0x00",
            "gasLimit": "0x7f0d477519ac97",
            "gasUsed": "0x00",
            "timestamp": "0x00",
            "extraData": "0x00",
            "mixHash": "0x0000000000000000000000000000000000000000000000000000000000000000",
            "nonce": "0x0000000000000000",
            "baseFeePerGas": "0x0b",
            "withdrawalsRoot": "0x56e81f171bcc55a6ff8345e692c0f86e5b48e01b996cadc001622fb5e363b421",
            "blobGasUsed": "0x00",
            "excessBlobGas": "0x00",
            "parentBeaconBlockRoot": "0x0000000000000000000000000000000000000000000000000000000000000000",
            "hash": "0x2954e34aa94297f6b6e655723b419e2c02747f6b9acd840214c955c552b39890"
        },
        "pre": {
            "0x000f3df6d732807ef1319fb7b8bb8522d0beac02": {
                "nonce": "0x01",
                "balance": "0x00",
                "code": "0x3373fffffffffffffffffffffffffffffffffffffffe14604d57602036146024575f5ffd5b5f35801560495762001fff810690815414603c575f5ffd5b62001fff01545f5260205ff35b5f5ffd5b62001fff42064281555f359062001fff015500",
                "storage": {}
            },
            "0x971ab94b9c20484b37b157476a9f106f639779ed": {
                "nonce": "0xf3",
                "balance": "0x262e8de142312a2d",
                "code": "0x436debc3912504eded08f73b9ff9490d73fc4f820a0890b7e8417fa97940713aeb870e59a790607f6b3d5649e57458ea8692da323253735967657e3fc6e02f6de1c0ff6cc18e051bdd52ad7b1eb441440620426b3485ab683d44ff8d5544eb7f7fb3e1f4c30063640b5a626f341b6271dd59621208476208431973971ab94b9c20484b37b157476a9f106f639779ed6338f86b9af4",
                "storage": {}
            },
            "0x02a81f3b6340ef03047f2e09f2126aa8334233bd": {
                "nonce": "0x00",
                "balance": "0xa015cddab7107b04",
                "code": "0x",
                "storage": {}
            },
            "0x6e40c70f8be9a7633e8a31580c85f275b86362ef": {
                "nonce": "0xd2",
                "balance": "0x3f91b25c1601534b",
                "code": "0x79ecfecf2ab84463f738fc85b069590fcff0334fb1a7108861a44465a26237bc83297ff893a1a95c84afbecc79e1ee4acc8fca826df1ab268bdfd9e712ad0d261f5ede0b6545e6a7d462826d39eb0ac5b4c3ef35f0b4e6d9e05f0773fc63be0c082847f6f9f7728764e142fcd95702c36d65c1e55ec0e2128768030e4eb0de74b57969caa2f2493998537ad0ecba9400ebae911dad6f98bd15da63a8614aa455dc593fa70386a260c66270f1d7527b75f1bf8a683b5d1721f7dd57755bd6a9bed9f874e3876cfcac6762ea51",
                "storage": {}
            }
        },
        "postState": {
            "0x000f3df6d732807ef1319fb7b8bb8522d0beac02": {
                "nonce": "0x01",
                "balance": "0x00",
                "code": "0x3373fffffffffffffffffffffffffffffffffffffffe14604d57602036146024575f5ffd5b5f35801560495762001fff810690815414603c575f5ffd5b62001fff01545f5260205ff35b5f5ffd5b62001fff42064281555f359062001fff015500",
                "storage": {
                    "0x03e8": "0x03e8"
                }
            },
            "0x971ab94b9c20484b37b157476a9f106f639779ed": {
                "nonce": "0xf3",
                "balance": "0x262e8de142312a2d",
                "code": "0x436debc3912504eded08f73b9ff9490d73fc4f820a0890b7e8417fa97940713aeb870e59a790607f6b3d5649e57458ea8692da323253735967657e3fc6e02f6de1c0ff6cc18e051bdd52ad7b1eb441440620426b3485ab683d44ff8d5544eb7f7fb3e1f4c30063640b5a626f341b6271dd59621208476208431973971ab94b9c20484b37b157476a9f106f639779ed6338f86b9af4",
                "storage": {}
            },
            "0x02a81f3b6340ef03047f2e09f2126aa8334233bd": {
                "nonce": "0x01",
                "balance": "0xa015cddab132e212",
                "code": "0x",
                "storage": {}
            },
            "0x6e40c70f8be9a7633e8a31580c85f275b86362ef": {
                "nonce": "0xd2",
                "balance": "0x3f91b25c1601534b",
                "code": "0x79ecfecf2ab84463f738fc85b069590fcff0334fb1a7108861a44465a26237bc83297ff893a1a95c84afbecc79e1ee4acc8fca826df1ab268bdfd9e712ad0d261f5ede0b6545e6a7d462826d39eb0ac5b4c3ef35f0b4e6d9e05f0773fc63be0c082847f6f9f7728764e142fcd95702c36d65c1e55ec0e2128768030e4eb0de74b57969caa2f2493998537ad0ecba9400ebae911dad6f98bd15da63a8614aa455dc593fa70386a260c66270f1d7527b75f1bf8a683b5d1721f7dd57755bd6a9bed9f874e3876cfcac6762ea51",
                "storage": {}
            }
        },
        "lastblockhash": "0xc68c0aa135e516c7d6232879b06a17be7f3979762e616cc548d00b1bf43c451b",
        "config": {
            "network": "Cancun",
            "chainid": "0x01",
            "blobSchedule": {
                "Cancun": {
                    "target": "0x03",
                    "max": "0x06",
                    "baseFeeUpdateFraction": "0x32f0ed"
                }
            }
        },
        "genesisRLP": "0xf9023ff90239a00000000000000000000000000000000000000000000000000000000000000000a01dcc4de8dec75d7aab85b567b6ccd41ad312451b948a7413f0a142fd40d49347940000000000000000000000000000000000000000a09da4b1af3db01e13f49d306c2bd53cb3a238797fe8c634ad66ebaa1b13d0d147a056e81f171bcc55a6ff8345e692c0f86e5b48e01b996cadc001622fb5e363b421a056e81f171bcc55a6ff8345e692c0f86e5b48e01b996cadc001622fb5e363b421b90100000000000000000000000000000000000000000000000000000000000000000000000000000000000000000000000000000000000000000000000000000000000000000000000000000000000000000000000000000000000000000000000000000000000000000000000000000000000000000000000000000000000000000000000000000000000000000000000000000000000000000000000000000000000000000000000000000000000000000000000000000000000000000000000000000000000000000000000000000000000000000000000000000000000000000000000000000000000000000000000000000000000000000000000000000000008080877f0d477519ac97808000a000000000000000000000000000000000000000000000000000000000000000008800000000000000000ba056e81f171bcc55a6ff8345e692c0f86e5b48e01b996cadc001622fb5e363b4218080a00000000000000000000000000000000000000000000000000000000000000000c0c0c0",
        "blocks": [
            {
                "blockHeader": {
                    "parentHash": "0x2954e34aa94297f6b6e655723b419e2c02747f6b9acd840214c955c552b39890",
                    "uncleHash": "0x1dcc4de8dec75d7aab85b567b6ccd41ad312451b948a7413f0a142fd40d49347",
                    "coinbase": "0x02a81f3b6340ef03047f2e09f2126aa8334233bd",
                    "stateRoot": "0x7589b622e8b851687a29b95ff2079b13692225b291fbdae5d51134ee196ba5d5",
                    "transactionsTrie": "0xcdcd4aca4a71d269ff5a989d3c43dae4ca6b36a1bc48dcf12c51a0f38fd98aa8",
                    "receiptTrie": "0xf5039932bcc49d2ab9209147be9becc080f205ae85e46f2014cf6eee682bca30",
                    "bloom": "0x00000000000000000000000000000000000000000000000000000000000000000000000000000000000000000000000000000000000000000000000000000000000000000000000000000000000000000000000000000000000000000000000000000000000000000000000000000000000000000000000000000000000000000000000000000000000000000000000000000000000000000000000000000000000000000000000000000000000000000000000000000000000000000000000000000000000000000000000000000000000000000000000000000000000000000000000000000000000000000000000000000000000000000000000000000000",
                    "difficulty": "0x00",
                    "number": "0x01",
                    "gasLimit": "0x7f0d477519ac97",
                    "gasUsed": "0x9628e5",
                    "timestamp": "0x03e8",
                    "extraData": "0x00",
                    "mixHash": "0x0000000000000000000000000000000000000000000000000000000000020000",
                    "nonce": "0x0000000000000000",
                    "baseFeePerGas": "0x0a",
                    "withdrawalsRoot": "0x56e81f171bcc55a6ff8345e692c0f86e5b48e01b996cadc001622fb5e363b421",
                    "blobGasUsed": "0x00",
                    "excessBlobGas": "0x00",
                    "parentBeaconBlockRoot": "0x0000000000000000000000000000000000000000000000000000000000000000",
                    "hash": "0xc68c0aa135e516c7d6232879b06a17be7f3979762e616cc548d00b1bf43c451b"
                },
                "transactions": [
                    {
                        "type": "0x00",
                        "chainId": "0x01",
                        "nonce": "0x00",
                        "gasPrice": "0x0a",
                        "gasLimit": "0x9628e5",
                        "value": "0xf0ec2ce5",
                        "data": "0x620d15bc62074ac2f3789b4ff89d27fb5018b60a3730731819c16c8a1e6513c3c2703e63f82ce3617b9c5bdd435cc4e8eaffa5d05d45aef99b6726757bbe89b4ae0e5b9b6062855c2d525b6ca347c35412d0ab99dbc839a14f619a34621beef752635999fd987437da3edb75b58f986d9b62ffc1e6dae25c7e0c019f73922a0ab96d77aef70627e71d0a63d38d2d09afec6a9f6dd36fff38e99a634e506f29060c4e3c3371d213d31078939857877d1780bc984b1ae1225b8dc7cc534cd080ba4b324f436d2c211b3c30889cf66d57b8f669c1be7711d78254d859636790551a4a0f6e0c06664680c8fadd1d7e7b3e887ea3cff5077d014551ed36a72977742f6dcee4113c33297428527783529e675399ca43d5df7d9a4151fcac7093585bb8c6df7d6563faafe035226b81786f72b243bfdbc99e8fd67571df50e0ed7a8e1aaca76fcc65151e7730dee525a07c75d1b3855ae0bfbe0d79ff4905974c837e30a06fb163d89d",
                        "v": "0x26",
                        "r": "0xf0cff97dce53b168c0f143297073e57e11ce403a8bd7fe88dc281238c7028498",
                        "s": "0x79e4f12b234bf67c0dd4f0a27c2242a25d696a33439e842e728099e12eb992a6",
                        "sender": "0x02a81f3b6340ef03047f2e09f2126aa8334233bd",
                        "to": ""
                    }
                ],
                "uncleHeaders": [],
                "withdrawals": [],
                "receipts": [
                    {
                        "transactionHash": "0x7798f05bdaa3355050d5ace2a7521e68d3178971ee92c8e7bf62a876cefb550b",
                        "type": "0x00",
                        "cumulativeGasUsed": "0x9628e5",
                        "bloom": "0x00000000000000000000000000000000000000000000000000000000000000000000000000000000000000000000000000000000000000000000000000000000000000000000000000000000000000000000000000000000000000000000000000000000000000000000000000000000000000000000000000000000000000000000000000000000000000000000000000000000000000000000000000000000000000000000000000000000000000000000000000000000000000000000000000000000000000000000000000000000000000000000000000000000000000000000000000000000000000000000000000000000000000000000000000000000",
                        "logs": [],
                        "status": false,
                        "rlp": "0xf9010980839628e5b9010000000000000000000000000000000000000000000000000000000000000000000000000000000000000000000000000000000000000000000000000000000000000000000000000000000000000000000000000000000000000000000000000000000000000000000000000000000000000000000000000000000000000000000000000000000000000000000000000000000000000000000000000000000000000000000000000000000000000000000000000000000000000000000000000000000000000000000000000000000000000000000000000000000000000000000000000000000000000000000000000000000000000000000000000000000000c0"
                    }
                ],
                "rlp": "0xf90401f9023ea02954e34aa94297f6b6e655723b419e2c02747f6b9acd840214c955c552b39890a01dcc4de8dec75d7aab85b567b6ccd41ad312451b948a7413f0a142fd40d493479402a81f3b6340ef03047f2e09f2126aa8334233bda07589b622e8b851687a29b95ff2079b13692225b291fbdae5d51134ee196ba5d5a0cdcd4aca4a71d269ff5a989d3c43dae4ca6b36a1bc48dcf12c51a0f38fd98aa8a0f5039932bcc49d2ab9209147be9becc080f205ae85e46f2014cf6eee682bca30b90100000000000000000000000000000000000000000000000000000000000000000000000000000000000000000000000000000000000000000000000000000000000000000000000000000000000000000000000000000000000000000000000000000000000000000000000000000000000000000000000000000000000000000000000000000000000000000000000000000000000000000000000000000000000000000000000000000000000000000000000000000000000000000000000000000000000000000000000000000000000000000000000000000000000000000000000000000000000000000000000000000000000000000000000000000000008001877f0d477519ac97839628e58203e800a000000000000000000000000000000000000000000000000000000000000200008800000000000000000aa056e81f171bcc55a6ff8345e692c0f86e5b48e01b996cadc001622fb5e363b4218080a00000000000000000000000000000000000000000000000000000000000000000f901bbf901b8800a839628e58084f0ec2ce5b90166620d15bc62074ac2f3789b4ff89d27fb5018b60a3730731819c16c8a1e6513c3c2703e63f82ce3617b9c5bdd435cc4e8eaffa5d05d45aef99b6726757bbe89b4ae0e5b9b6062855c2d525b6ca347c35412d0ab99dbc839a14f619a34621beef752635999fd987437da3edb75b58f986d9b62ffc1e6dae25c7e0c019f73922a0ab96d77aef70627e71d0a63d38d2d09afec6a9f6dd36fff38e99a634e506f29060c4e3c3371d213d31078939857877d1780bc984b1ae1225b8dc7cc534cd080ba4b324f436d2c211b3c30889cf66d57b8f669c1be7711d78254d859636790551a4a0f6e0c06664680c8fadd1d7e7b3e887ea3cff5077d014551ed36a72977742f6dcee4113c33297428527783529e675399ca43d5df7d9a4151fcac7093585bb8c6df7d6563faafe035226b81786f72b243bfdbc99e8fd67571df50e0ed7a8e1aaca76fcc65151e7730dee525a07c75d1b3855ae0bfbe0d79ff4905974c837e30a06fb163d89d26a0f0cff97dce53b168c0f143297073e57e11ce403a8bd7fe88dc281238c7028498a079e4f12b234bf67c0dd4f0a27c2242a25d696a33439e842e728099e12eb992a6c0c0",
                "blocknumber": "1"
            }
        ],
        "sealEngine": "NoProof",
        "_info": {
            "hash": "0x0e39209402a99aaf905b946ad0666eda547cc357b6c731357b538ead6d481d8c",
            "fixture-format": "blockchain_test",
            "comment": "`execution-specs` generated test",
            "filling-transition-tool": "2.19.0",
            "description": "No description available - add a docstring to the python test class or function.",
            "url": "",
            "opcode_count": {}
        }
    }
}