{
    "tests/static/state_tests/stRandom2/randomStatetest646Filler.json::randomStatetest646[fork_Cancun-blockchain_test_from_state_test-]": {
        "network": "Cancun",
        "genesisBlockHeader": {
            "parentHash": "0x0000000000000000000000000000000000000000000000000000000000000000",
            "uncleHash": "0x1dcc4de8dec75d7aab85b567b6ccd41ad312451b948a7413f0a142fd40d49347",
            "coinbase": "0x0000000000000000000000000000000000000000",
            "stateRoot": "0xabd74bbad82f3d77b8458c9e8414e9d3f494394a6466ed68271bc31be1a6b262",
            "transactionsTrie": "0x56e81f171bcc55a6ff8345e692c0f86e5b48e01b996cadc001622fb5e363b421",
            "receiptTrie": "0x56e81f171bcc55a6ff8345e692c0f86e5b48e01b996cadc001622fb5e363b421",
            "bloom": "0x00000000000000000000000000000000000000000000000000000000000000000000000000000000000000000000000000000000000000000000000000000000000000000000000000000000000000000000000000000000000000000000000000000000000000000000000000000000000000000000000000000000000000000000000000000000000000000000000000000000000000000000000000000000000000000000000000000000000000000000000000000000000000000000000000000000000000000000000000000000000000000000000000000000000000000000000000000000000000000000000000000000000000000000000000000000",
            "difficulty": "0x00",
            "number": "0x00",
            "gasLimit": "0x42fe8c95373ea1",
            "gasUsed": "0x00",
            "timestamp": "0x00",
            "extraData": "0x00",
            "mixHash": "0x0000000000000000000000000000000000000000000000000000000000000000",
            "nonce": "0x0000000000000000",
            "baseFeePerGas": "0x0b",
            "withdrawalsRoot": "0x56e81f171bcc55a6ff8345e692c0f86e5b48e01b996cadc001622fb5e363b421",
            "blobGasUsed": "0x00",
            "excessBlobGas": "0x00",
            "parentBeaconBlockRoot": "0x0000000000000000000000000000000000000000000000000000000000000000",
            "hash": "0xfb50135751c6f3c99e7fc18f3d3c6964fd8076cd45afb7fda9a94e3d37c1eb7b"
        },
        "pre": {
            "0x000f3df6d732807ef1319fb7b8bb8522d0beac02": {
                "nonce": "0x01",
                "balance": "0x00",
                "code": "0x3373fffffffffffffffffffffffffffffffffffffffe14604d57602036146024575f5ffd5b5f35801560495762001fff810690815414603c575f5ffd5b62001fff01545f5260205ff35b5f5ffd5b62001fff42064281555f359062001fff015500",
                "storage": {}
            },
            "0xa94f5374fce5edbc8e2a8697c15331677e6ebf0b": {
                "nonce": "0x00",
                "balance": "0x54465ef1c769628b",
                "code": "0x",
                "storage": {}
            },
            "0xc94f5374fce5edbc8e2a8697c15331677e6ebf0b": {
                "nonce": "0x07",
                "balance": "0x33888d4ce6b934",
                "code": "0x",
                "storage": {}
            },
            "0xffffffffffffffffffffffffffffffffffffffff": {
                "nonce": "0x1c",
                "balance": "0xd61773f0c27b842f",
                "code": "0x64ba8b878e0154689b908f27acb42e5269603972609834bf9a7e578e45609242172907dd75a92555656c5aa6e9248162013ffa6203864863446d325df0336d2c38cfa2f1cdf8cb623c0591987419",
                "storage": {}
            }
        },
        "postState": {
            "0x000f3df6d732807ef1319fb7b8bb8522d0beac02": {
                "nonce": "0x01",
                "balance": "0x00",
                "code": "0x3373fffffffffffffffffffffffffffffffffffffffe14604d57602036146024575f5ffd5b5f35801560495762001fff810690815414603c575f5ffd5b62001fff01545f5260205ff35b5f5ffd5b62001fff42064281555f359062001fff015500",
                "storage": {
                    "0x03e8": "0x03e8"
                }
            },
            "0xa94f5374fce5edbc8e2a8697c15331677e6ebf0b": {
                "nonce": "0x01",
                "balance": "0x54465ef1c3f65ea1",
                "code": "0x",
                "storage": {}
            },
            "0xc94f5374fce5edbc8e2a8697c15331677e6ebf0b": {
                "nonce": "0x07",
                "balance": "0x33888d4ce6b934",
                "code": "0x",
                "storage": {}
            },
            "0xffffffffffffffffffffffffffffffffffffffff": {
                "nonce": "0x1c",
                "balance": "0xd61773f0c27b842f",
                "code": "0x64ba8b878e0154689b908f27acb42e5269603972609834bf9a7e578e45609242172907dd75a92555656c5aa6e9248162013ffa6203864863446d325df0336d2c38cfa2f1cdf8cb623c0591987419",
                "storage": {}
            }
        },
        "lastblockhash": "0x910f18ff6c26cfe057955664916d3b555cf3bd4b96616107f0923e5a8b763203",
        "config": {
            "network": "Cancun",
            "chainid": "0x01",
            "blobSchedule": {
                "Cancun": {
                    "target": "0x03",
                    "max": "0x06",
                    "baseFeeUpdateFraction": "0x32f0ed"
                }
            }
        },
        "genesisRLP": "0xf9023ff90239a00000000000000000000000000000000000000000000000000000000000000000a01dcc4de8dec75d7aab85b567b6ccd41ad312451b948a7413f0a142fd40d49347940000000000000000000000000000000000000000a0abd74bbad82f3d77b8458c9e8414e9d3f494394a6466ed68271bc31be1a6b262a056e81f171bcc55a6ff8345e692c0f86e5b48e01b996cadc001622fb5e363b421a056e81f171bcc55a6ff8345e692c0f86e5b48e01b996cadc001622fb5e363b421b901000000000000000000000000000000000000000000000000000000000000000000000000000000000000000000000000000000000000000000000000000000000000000000000000000000000000000000000000000000000000000000000000000000000000000000000000000000000000000000000000000000000000000000000000000000000000000000000000000000000000000000000000000000000000000000000000000000000000000000000000000000000000000000000000000000000000000000000000000000000000000000000000000000000000000000000000000000000000000000000000000000000000000000000000000000000080808742fe8c95373ea1808000a000000000000000000000000000000000000000000000000000000000000000008800000000000000000ba056e81f171bcc55a6ff8345e692c0f86e5b48e01b996cadc001622fb5e363b4218080a00000000000000000000000000000000000000000000000000000000000000000c0c0c0",
        "blocks": [
            {
                "blockHeader": {
                    "parentHash": "0xfb50135751c6f3c99e7fc18f3d3c6964fd8076cd45afb7fda9a94e3d37c1eb7b",
                    "uncleHash": "0x1dcc4de8dec75d7aab85b567b6ccd41ad312451b948a7413f0a142fd40d49347",
                    "coinbase": "0xd94f5374fce5edbc8e2a8697c15331677e6ebf0b",
                    "stateRoot": "0x5b5efd6002b358ec18679ca8d9621143777dd4956a0dd32d84f0d45e58af69c5",
                    "transactionsTrie": "0xb117fdba617fa73aee6713089b57968c57a3ac59671c4c21d3315a578a44234d",
                    "receiptTrie": "0x53077ec6f582974cc36542550f228b891d4fa732272a6984075dd3eaef9a432a",
                    "bloom": "0x00000000000000000000000000000000000000000000000000000000000000000000000000000000000000000000000000000000000000000000000000000000000000000000000000000000000000000000000000000000000000000000000000000000000000000000000000000000000000000000000000000000000000000000000000000000000000000000000000000000000000000000000000000000000000000000000000000000000000000000000000000000000000000000000000000000000000000000000000000000000000000000000000000000000000000000000000000000000000000000000000000000000000000000000000000000",
                    "difficulty": "0x00",
                    "number": "0x01",
                    "gasLimit": "0x42fe8c95373ea1",
                    "gasUsed": "0x584d31",
                    "timestamp": "0x03e8",
                    "extraData": "0x00",
                    "mixHash": "0x0000000000000000000000000000000000000000000000000000000000020000",
                    "nonce": "0x0000000000000000",
                    "baseFeePerGas": "0x0a",
                    "withdrawalsRoot": "0x56e81f171bcc55a6ff8345e692c0f86e5b48e01b996cadc001622fb5e363b421",
                    "blobGasUsed": "0x00",
                    "excessBlobGas": "0x00",
                    "parentBeaconBlockRoot": "0x0000000000000000000000000000000000000000000000000000000000000000",
                    "hash": "0x910f18ff6c26cfe057955664916d3b555cf3bd4b96616107f0923e5a8b763203"
                },
                "transactions": [
                    {
                        "type": "0x00",
                        "chainId": "0x01",
                        "nonce": "0x00",
                        "gasPrice": "0x0a",
                        "gasLimit": "0x584d31",
                        "to": "0xffffffffffffffffffffffffffffffffffffffff",
                        "value": "0x5684b90a",
                        "data": "0x785196fdcb5d7e54c4b381e68c7eaeae2735e5537830130057f554672e70a6b867385ea2714ea3185b854bf0b4f9617fb47e6afe9ed4ed68f94b50776420fa24010960ce6b65e2a1ebdce518181d6c69a678989d767fc3d28b6c524f52a87d05519cb32e38fbdc5f801f756922b90c0e2e5bc848bb9c6a5d08ee65470af4fbbeacf87a65c90dc57babd8cdc9819f898551925828bfd360e8a1f1616619d171c23004b0045424cc962e09d8a65d9fd94af9863d61eba97d76dc150e19d991ff1b5fd340dd4fd7e522a659ddf69bcbc729599667aa30536cd85576cc3477495dae10c85b56",
                        "v": "0x26",
                        "r": "0x56ab69201426976f46c7e881ff45dea70f69befde6e6b3ec645320888f8c7e3e",
                        "s": "0x314da33a9ec74db5086a898705b113e828e8379afaa6215b9d46d3f306b0ddb4",
                        "sender": "0xa94f5374fce5edbc8e2a8697c15331677e6ebf0b"
                    }
                ],
                "uncleHeaders": [],
                "withdrawals": [],
                "receipts": [
                    {
                        "transactionHash": "0x6f886b6abd22bb5fc597c45230cbba3e2f22234bdad792c9e529b54026fd3337",
                        "type": "0x00",
                        "cumulativeGasUsed": "0x584d31",
                        "bloom": "0x00000000000000000000000000000000000000000000000000000000000000000000000000000000000000000000000000000000000000000000000000000000000000000000000000000000000000000000000000000000000000000000000000000000000000000000000000000000000000000000000000000000000000000000000000000000000000000000000000000000000000000000000000000000000000000000000000000000000000000000000000000000000000000000000000000000000000000000000000000000000000000000000000000000000000000000000000000000000000000000000000000000000000000000000000000000",
                        "logs": [],
                        "status": false,
                        "rlp": "0xf901098083584d31b9010000000000000000000000000000000000000000000000000000000000000000000000000000000000000000000000000000000000000000000000000000000000000000000000000000000000000000000000000000000000000000000000000000000000000000000000000000000000000000000000000000000000000000000000000000000000000000000000000000000000000000000000000000000000000000000000000000000000000000000000000000000000000000000000000000000000000000000000000000000000000000000000000000000000000000000000000000000000000000000000000000000000000000000000000000000000c0"
                    }
                ],
                "rlp": "0xf90392f9023ea0fb50135751c6f3c99e7fc18f3d3c6964fd8076cd45afb7fda9a94e3d37c1eb7ba01dcc4de8dec75d7aab85b567b6ccd41ad312451b948a7413f0a142fd40d4934794d94f5374fce5edbc8e2a8697c15331677e6ebf0ba05b5efd6002b358ec18679ca8d9621143777dd4956a0dd32d84f0d45e58af69c5a0b117fdba617fa73aee6713089b57968c57a3ac59671c4c21d3315a578a44234da053077ec6f582974cc36542550f228b891d4fa732272a6984075dd3eaef9a432ab901000000000000000000000000000000000000000000000000000000000000000000000000000000000000000000000000000000000000000000000000000000000000000000000000000000000000000000000000000000000000000000000000000000000000000000000000000000000000000000000000000000000000000000000000000000000000000000000000000000000000000000000000000000000000000000000000000000000000000000000000000000000000000000000000000000000000000000000000000000000000000000000000000000000000000000000000000000000000000000000000000000000000000000000000000000000080018742fe8c95373ea183584d318203e800a000000000000000000000000000000000000000000000000000000000000200008800000000000000000aa056e81f171bcc55a6ff8345e692c0f86e5b48e01b996cadc001622fb5e363b4218080a00000000000000000000000000000000000000000000000000000000000000000f9014cf90149800a83584d3194ffffffffffffffffffffffffffffffffffffffff845684b90ab8e4785196fdcb5d7e54c4b381e68c7eaeae2735e5537830130057f554672e70a6b867385ea2714ea3185b854bf0b4f9617fb47e6afe9ed4ed68f94b50776420fa24010960ce6b65e2a1ebdce518181d6c69a678989d767fc3d28b6c524f52a87d05519cb32e38fbdc5f801f756922b90c0e2e5bc848bb9c6a5d08ee65470af4fbbeacf87a65c90dc57babd8cdc9819f898551925828bfd360e8a1f1616619d171c23004b0045424cc962e09d8a65d9fd94af9863d61eba97d76dc150e19d991ff1b5fd340dd4fd7e522a659ddf69bcbc729599667aa30536cd85576cc3477495dae10c85b5626a056ab69201426976f46c7e881ff45dea70f69befde6e6b3ec645320888f8c7e3ea0314da33a9ec74db5086a898705b113e828e8379afaa6215b9d46d3f306b0ddb4c0c0",
                "blocknumber": "1"
            }
        ],
        "sealEngine": "NoProof",
        "_info": {
            "hash": "0x3dd1a60d257288fd6b3b5ed709e4bc46fbddb073ccecb7d68174657800bfede4",
            "fixture-format": "blockchain_test",
            "comment": "`execution-specs` generated test",
            "filling-transition-tool": "2.19.0",
            "description": "No description available - add a docstring to the python test class or function.",
            "url": "",
            "opcode_count": {}
        }
    }
}