{
    "tests/ported_static/stEIP150Specific/test_call_and_callcode_consume_more_gas_then_transaction_has.py::test_call_and_callcode_consume_more_gas_then_transaction_has[fork_Cancun-blockchain_test_from_state_test]": {
        "network": "Cancun",
        "genesisBlockHeader": {
            "parentHash": "0x0000000000000000000000000000000000000000000000000000000000000000",
            "uncleHash": "0x1dcc4de8dec75d7aab85b567b6ccd41ad312451b948a7413f0a142fd40d49347",
            "coinbase": "0x0000000000000000000000000000000000000000",
            "stateRoot": "0x81cbff49c07dd3608f2237abbe8b7386bbbc638a1be59b67a11739f4082008d0",
            "transactionsTrie": "0x56e81f171bcc55a6ff8345e692c0f86e5b48e01b996cadc001622fb5e363b421",
            "receiptTrie": "0x56e81f171bcc55a6ff8345e692c0f86e5b48e01b996cadc001622fb5e363b421",
            "bloom": "0x00000000000000000000000000000000000000000000000000000000000000000000000000000000000000000000000000000000000000000000000000000000000000000000000000000000000000000000000000000000000000000000000000000000000000000000000000000000000000000000000000000000000000000000000000000000000000000000000000000000000000000000000000000000000000000000000000000000000000000000000000000000000000000000000000000000000000000000000000000000000000000000000000000000000000000000000000000000000000000000000000000000000000000000000000000000",
            "difficulty": "0x00",
            "number": "0x00",
            "gasLimit": "0x989680",
            "gasUsed": "0x00",
            "timestamp": "0x00",
            "extraData": "0x00",
            "mixHash": "0x0000000000000000000000000000000000000000000000000000000000000000",
            "nonce": "0x0000000000000000",
            "baseFeePerGas": "0x0b",
            "withdrawalsRoot": "0x56e81f171bcc55a6ff8345e692c0f86e5b48e01b996cadc001622fb5e363b421",
            "blobGasUsed": "0x00",
            "excessBlobGas": "0x00",
            "parentBeaconBlockRoot": "0x0000000000000000000000000000000000000000000000000000000000000000",
            "hash": "0x28271f44dd3584c85a14d616329c21ca7202f0c89cbdfa3b244fbe40f5c18757"
        },
        "pre": {
            "0x000f3df6d732807ef1319fb7b8bb8522d0beac02": {
                "nonce": "0x01",
                "balance": "0x00",
                "code": "0x3373fffffffffffffffffffffffffffffffffffffffe14604d57602036146024575f5ffd5b5f35801560495762001fff810690815414603c575f5ffd5b62001fff01545f5260205ff35b5f5ffd5b62001fff42064281555f359062001fff015500",
                "storage": {}
            },
            "0xfaa10b404ab607779993c016cd5da73ae1f29d7e": {
                "nonce": "0x00",
                "balance": "0xe8d4a51000",
                "code": "0x",
                "storage": {}
            },
            "0x9bdb308c9b567e1dbc906d9d592a8464a05ffd44": {
                "nonce": "0x00",
                "balance": "0x00",
                "code": "0x5a6008556000600060006000600073fd59abae521384b5731ac657616680219fbc423d620927c0f16009556000600060006000600073fd59abae521384b5731ac657616680219fbc423d620927c0f2600a5500",
                "storage": {}
            },
            "0xfd59abae521384b5731ac657616680219fbc423d": {
                "nonce": "0x00",
                "balance": "0x00",
                "code": "0x601260005500",
                "storage": {}
            }
        },
        "postState": {
            "0x000f3df6d732807ef1319fb7b8bb8522d0beac02": {
                "nonce": "0x01",
                "balance": "0x00",
                "code": "0x3373fffffffffffffffffffffffffffffffffffffffe14604d57602036146024575f5ffd5b5f35801560495762001fff810690815414603c575f5ffd5b62001fff01545f5260205ff35b5f5ffd5b62001fff42064281555f359062001fff015500",
                "storage": {
                    "0x03e8": "0x03e8"
                }
            },
            "0xfaa10b404ab607779993c016cd5da73ae1f29d7e": {
                "nonce": "0x01",
                "balance": "0xe8d4909346",
                "code": "0x",
                "storage": {}
            },
            "0x9bdb308c9b567e1dbc906d9d592a8464a05ffd44": {
                "nonce": "0x00",
                "balance": "0x00",
                "code": "0x5a6008556000600060006000600073fd59abae521384b5731ac657616680219fbc423d620927c0f16009556000600060006000600073fd59abae521384b5731ac657616680219fbc423d620927c0f2600a5500",
                "storage": {
                    "0x08": "0x08d5b6",
                    "0x09": "0x01",
                    "0x00": "0x12",
                    "0x0a": "0x01"
                }
            },
            "0xfd59abae521384b5731ac657616680219fbc423d": {
                "nonce": "0x00",
                "balance": "0x00",
                "code": "0x601260005500",
                "storage": {
                    "0x00": "0x12"
                }
            }
        },
        "lastblockhash": "0xd382b29a66a296e389f0be3dcbaf61e336b427b418e04e8570d970d8716e24bd",
        "config": {
            "network": "Cancun",
            "chainid": "0x01",
            "blobSchedule": {
                "Cancun": {
                    "target": "0x03",
                    "max": "0x06",
                    "baseFeeUpdateFraction": "0x32f0ed"
                }
            }
        },
        "genesisRLP": "0xf9023bf90235a00000000000000000000000000000000000000000000000000000000000000000a01dcc4de8dec75d7aab85b567b6ccd41ad312451b948a7413f0a142fd40d49347940000000000000000000000000000000000000000a081cbff49c07dd3608f2237abbe8b7386bbbc638a1be59b67a11739f4082008d0a056e81f171bcc55a6ff8345e692c0f86e5b48e01b996cadc001622fb5e363b421a056e81f171bcc55a6ff8345e692c0f86e5b48e01b996cadc001622fb5e363b421b9010000000000000000000000000000000000000000000000000000000000000000000000000000000000000000000000000000000000000000000000000000000000000000000000000000000000000000000000000000000000000000000000000000000000000000000000000000000000000000000000000000000000000000000000000000000000000000000000000000000000000000000000000000000000000000000000000000000000000000000000000000000000000000000000000000000000000000000000000000000000000000000000000000000000000000000000000000000000000000000000000000000000000000000000000000000000808083989680808000a000000000000000000000000000000000000000000000000000000000000000008800000000000000000ba056e81f171bcc55a6ff8345e692c0f86e5b48e01b996cadc001622fb5e363b4218080a00000000000000000000000000000000000000000000000000000000000000000c0c0c0",
        "blocks": [
            {
                "blockHeader": {
                    "parentHash": "0x28271f44dd3584c85a14d616329c21ca7202f0c89cbdfa3b244fbe40f5c18757",
                    "uncleHash": "0x1dcc4de8dec75d7aab85b567b6ccd41ad312451b948a7413f0a142fd40d49347",
                    "coinbase": "0x2adc25665018aa1fe0e6bc666dac8fc2697ff9ba",
                    "stateRoot": "0xcdc1330930056edaa99aa88bfb38cc82267d01b722b2b53d943d479da6beb1c8",
                    "transactionsTrie": "0xb1fb417c27b6e6664599254cf12154d941d770c193350317ff3fa70b522ec7bd",
                    "receiptTrie": "0x2a0010d9d9c5f6452cc034d7ce6b8d050eafe3263761d024c0bcb6ba474d0937",
                    "bloom": "0x00000000000000000000000000000000000000000000000000000000000000000000000000000000000000000000000000000000000000000000000000000000000000000000000000000000000000000000000000000000000000000000000000000000000000000000000000000000000000000000000000000000000000000000000000000000000000000000000000000000000000000000000000000000000000000000000000000000000000000000000000000000000000000000000000000000000000000000000000000000000000000000000000000000000000000000000000000000000000000000000000000000000000000000000000000000",
                    "difficulty": "0x00",
                    "number": "0x01",
                    "gasLimit": "0x989680",
                    "gasUsed": "0x020c79",
                    "timestamp": "0x03e8",
                    "extraData": "0x00",
                    "mixHash": "0x0000000000000000000000000000000000000000000000000000000000020000",
                    "nonce": "0x0000000000000000",
                    "baseFeePerGas": "0x0a",
                    "withdrawalsRoot": "0x56e81f171bcc55a6ff8345e692c0f86e5b48e01b996cadc001622fb5e363b421",
                    "blobGasUsed": "0x00",
                    "excessBlobGas": "0x00",
                    "parentBeaconBlockRoot": "0x0000000000000000000000000000000000000000000000000000000000000000",
                    "hash": "0xd382b29a66a296e389f0be3dcbaf61e336b427b418e04e8570d970d8716e24bd"
                },
                "transactions": [
                    {
                        "type": "0x00",
                        "chainId": "0x01",
                        "nonce": "0x00",
                        "gasPrice": "0x0a",
                        "gasLimit": "0x0927c0",
                        "to": "0x9bdb308c9b567e1dbc906d9d592a8464a05ffd44",
                        "value": "0x00",
                        "data": "0x",
                        "v": "0x25",
                        "r": "0x96a7afb34cfa54bb54cb82c218719ef3e0420da779f673bd9834f044155a11d7",
                        "s": "0x17c4cbde2c56e4e77ead68cdb024e3e662d45956eb42d82c2b6b2a4b3e6944ca",
                        "sender": "0xfaa10b404ab607779993c016cd5da73ae1f29d7e"
                    }
                ],
                "uncleHeaders": [],
                "withdrawals": [],
                "receipts": [
                    {
                        "transactionHash": "0x286fba5ccaa762d745c901835714cb87a5cb68ea6aaed1bb5f6b9f836b415deb",
                        "type": "0x00",
                        "cumulativeGasUsed": "0x020c79",
                        "bloom": "0x00000000000000000000000000000000000000000000000000000000000000000000000000000000000000000000000000000000000000000000000000000000000000000000000000000000000000000000000000000000000000000000000000000000000000000000000000000000000000000000000000000000000000000000000000000000000000000000000000000000000000000000000000000000000000000000000000000000000000000000000000000000000000000000000000000000000000000000000000000000000000000000000000000000000000000000000000000000000000000000000000000000000000000000000000000000",
                        "logs": [],
                        "status": true,
                        "rlp": "0xf901090183020c79b9010000000000000000000000000000000000000000000000000000000000000000000000000000000000000000000000000000000000000000000000000000000000000000000000000000000000000000000000000000000000000000000000000000000000000000000000000000000000000000000000000000000000000000000000000000000000000000000000000000000000000000000000000000000000000000000000000000000000000000000000000000000000000000000000000000000000000000000000000000000000000000000000000000000000000000000000000000000000000000000000000000000000000000000000000000000000c0"
                    }
                ],
                "rlp": "0xf902a3f9023aa028271f44dd3584c85a14d616329c21ca7202f0c89cbdfa3b244fbe40f5c18757a01dcc4de8dec75d7aab85b567b6ccd41ad312451b948a7413f0a142fd40d49347942adc25665018aa1fe0e6bc666dac8fc2697ff9baa0cdc1330930056edaa99aa88bfb38cc82267d01b722b2b53d943d479da6beb1c8a0b1fb417c27b6e6664599254cf12154d941d770c193350317ff3fa70b522ec7bda02a0010d9d9c5f6452cc034d7ce6b8d050eafe3263761d024c0bcb6ba474d0937b901000000000000000000000000000000000000000000000000000000000000000000000000000000000000000000000000000000000000000000000000000000000000000000000000000000000000000000000000000000000000000000000000000000000000000000000000000000000000000000000000000000000000000000000000000000000000000000000000000000000000000000000000000000000000000000000000000000000000000000000000000000000000000000000000000000000000000000000000000000000000000000000000000000000000000000000000000000000000000000000000000000000000000000000000000000000080018398968083020c798203e800a000000000000000000000000000000000000000000000000000000000000200008800000000000000000aa056e81f171bcc55a6ff8345e692c0f86e5b48e01b996cadc001622fb5e363b4218080a00000000000000000000000000000000000000000000000000000000000000000f862f860800a830927c0949bdb308c9b567e1dbc906d9d592a8464a05ffd44808025a096a7afb34cfa54bb54cb82c218719ef3e0420da779f673bd9834f044155a11d7a017c4cbde2c56e4e77ead68cdb024e3e662d45956eb42d82c2b6b2a4b3e6944cac0c0",
                "blocknumber": "1"
            }
        ],
        "sealEngine": "NoProof",
        "_info": {
            "hash": "0x887665cf08bedfc910518459d7cce030ac32d525f8d6674242305a4bdd898ef8",
            "fixture-format": "blockchain_test",
            "comment": "`execution-specs` generated test",
            "filling-transition-tool": "2.19.0",
            "description": "Test_call_and_callcode_consume_more_gas_then_transaction_has.",
            "url": "https://github.com/ethereum/execution-specs/blob/tests-bal@v5.7.0/tests/ported_static/stEIP150Specific/test_call_and_callcode_consume_more_gas_then_transaction_has.py#L25",
            "metadata": {
                "opcode_count": {}
            },
            "reference-spec": "https://github.com/ethereum/EIPs/blob/master/N/A",
            "reference-spec-version": "N/A"
        }
    }
}