{
    "tests/ported_static/stEIP150Specific/test_call_and_callcode_consume_more_gas_then_transaction_has.py::test_call_and_callcode_consume_more_gas_then_transaction_has[fork_Cancun-blockchain_test_from_state_test]": {
        "network": "Cancun",
        "genesisBlockHeader": {
            "parentHash": "0x0000000000000000000000000000000000000000000000000000000000000000",
            "uncleHash": "0x1dcc4de8dec75d7aab85b567b6ccd41ad312451b948a7413f0a142fd40d49347",
            "coinbase": "0x0000000000000000000000000000000000000000",
            "stateRoot": "0xae45103e72a951a548bced13fae03c8e7176fed78af27454dac97a826f0908bb",
            "transactionsTrie": "0x56e81f171bcc55a6ff8345e692c0f86e5b48e01b996cadc001622fb5e363b421",
            "receiptTrie": "0x56e81f171bcc55a6ff8345e692c0f86e5b48e01b996cadc001622fb5e363b421",
            "bloom": "0x00000000000000000000000000000000000000000000000000000000000000000000000000000000000000000000000000000000000000000000000000000000000000000000000000000000000000000000000000000000000000000000000000000000000000000000000000000000000000000000000000000000000000000000000000000000000000000000000000000000000000000000000000000000000000000000000000000000000000000000000000000000000000000000000000000000000000000000000000000000000000000000000000000000000000000000000000000000000000000000000000000000000000000000000000000000",
            "difficulty": "0x00",
            "number": "0x00",
            "gasLimit": "0x989680",
            "gasUsed": "0x00",
            "timestamp": "0x00",
            "extraData": "0x00",
            "mixHash": "0x0000000000000000000000000000000000000000000000000000000000000000",
            "nonce": "0x0000000000000000",
            "baseFeePerGas": "0x0b",
            "withdrawalsRoot": "0x56e81f171bcc55a6ff8345e692c0f86e5b48e01b996cadc001622fb5e363b421",
            "blobGasUsed": "0x00",
            "excessBlobGas": "0x00",
            "parentBeaconBlockRoot": "0x0000000000000000000000000000000000000000000000000000000000000000",
            "hash": "0xf16f6ed538d7ad90bc6c47328be70afd5246dcb17f974363030cc2738f6890a9"
        },
        "pre": {
            "0x000f3df6d732807ef1319fb7b8bb8522d0beac02": {
                "nonce": "0x01",
                "balance": "0x00",
                "code": "0x3373fffffffffffffffffffffffffffffffffffffffe14604d57602036146024575f5ffd5b5f35801560495762001fff810690815414603c575f5ffd5b62001fff01545f5260205ff35b5f5ffd5b62001fff42064281555f359062001fff015500",
                "storage": {}
            },
            "0xd719ccdb2301950b0a0bdf09a2bb1d5f8b225f6f": {
                "nonce": "0x00",
                "balance": "0xe8d4a51000",
                "code": "0x",
                "storage": {}
            },
            "0x704867305cbc3d0d61fbc08da5ff83449b4af7be": {
                "nonce": "0x00",
                "balance": "0x00",
                "code": "0x601260005500",
                "storage": {}
            },
            "0x0fbebab06d4b2021e69b8a1ccbb84324ca11781c": {
                "nonce": "0x00",
                "balance": "0x00",
                "code": "0x5a6008556000600060006000600073704867305cbc3d0d61fbc08da5ff83449b4af7be620927c0f16009556000600060006000600073704867305cbc3d0d61fbc08da5ff83449b4af7be620927c0f2600a5500",
                "storage": {}
            }
        },
        "postState": {
            "0x000f3df6d732807ef1319fb7b8bb8522d0beac02": {
                "nonce": "0x01",
                "balance": "0x00",
                "code": "0x3373fffffffffffffffffffffffffffffffffffffffe14604d57602036146024575f5ffd5b5f35801560495762001fff810690815414603c575f5ffd5b62001fff01545f5260205ff35b5f5ffd5b62001fff42064281555f359062001fff015500",
                "storage": {
                    "0x03e8": "0x03e8"
                }
            },
            "0xd719ccdb2301950b0a0bdf09a2bb1d5f8b225f6f": {
                "nonce": "0x01",
                "balance": "0xe8d4909346",
                "code": "0x",
                "storage": {}
            },
            "0x704867305cbc3d0d61fbc08da5ff83449b4af7be": {
                "nonce": "0x00",
                "balance": "0x00",
                "code": "0x601260005500",
                "storage": {
                    "0x00": "0x12"
                }
            },
            "0x0fbebab06d4b2021e69b8a1ccbb84324ca11781c": {
                "nonce": "0x00",
                "balance": "0x00",
                "code": "0x5a6008556000600060006000600073704867305cbc3d0d61fbc08da5ff83449b4af7be620927c0f16009556000600060006000600073704867305cbc3d0d61fbc08da5ff83449b4af7be620927c0f2600a5500",
                "storage": {
                    "0x08": "0x08d5b6",
                    "0x09": "0x01",
                    "0x00": "0x12",
                    "0x0a": "0x01"
                }
            }
        },
        "lastblockhash": "0x448a9ded477251261b73057289292039e9215ab7b3c5758efc45a085c7a1c3ba",
        "config": {
            "network": "Cancun",
            "chainid": "0x01",
            "blobSchedule": {
                "Cancun": {
                    "target": "0x03",
                    "max": "0x06",
                    "baseFeeUpdateFraction": "0x32f0ed"
                }
            }
        },
        "genesisRLP": "0xf9023bf90235a00000000000000000000000000000000000000000000000000000000000000000a01dcc4de8dec75d7aab85b567b6ccd41ad312451b948a7413f0a142fd40d49347940000000000000000000000000000000000000000a0ae45103e72a951a548bced13fae03c8e7176fed78af27454dac97a826f0908bba056e81f171bcc55a6ff8345e692c0f86e5b48e01b996cadc001622fb5e363b421a056e81f171bcc55a6ff8345e692c0f86e5b48e01b996cadc001622fb5e363b421b9010000000000000000000000000000000000000000000000000000000000000000000000000000000000000000000000000000000000000000000000000000000000000000000000000000000000000000000000000000000000000000000000000000000000000000000000000000000000000000000000000000000000000000000000000000000000000000000000000000000000000000000000000000000000000000000000000000000000000000000000000000000000000000000000000000000000000000000000000000000000000000000000000000000000000000000000000000000000000000000000000000000000000000000000000000000000808083989680808000a000000000000000000000000000000000000000000000000000000000000000008800000000000000000ba056e81f171bcc55a6ff8345e692c0f86e5b48e01b996cadc001622fb5e363b4218080a00000000000000000000000000000000000000000000000000000000000000000c0c0c0",
        "blocks": [
            {
                "blockHeader": {
                    "parentHash": "0xf16f6ed538d7ad90bc6c47328be70afd5246dcb17f974363030cc2738f6890a9",
                    "uncleHash": "0x1dcc4de8dec75d7aab85b567b6ccd41ad312451b948a7413f0a142fd40d49347",
                    "coinbase": "0x2adc25665018aa1fe0e6bc666dac8fc2697ff9ba",
                    "stateRoot": "0x46afca6568f42237922a6f5232966005d7712d40001b51981d33e3998f793c5b",
                    "transactionsTrie": "0x6c412b52e70a1286c9a578e8a697c132c4c61f1afed8cd9f183dd821dc853cda",
                    "receiptTrie": "0x2a0010d9d9c5f6452cc034d7ce6b8d050eafe3263761d024c0bcb6ba474d0937",
                    "bloom": "0x00000000000000000000000000000000000000000000000000000000000000000000000000000000000000000000000000000000000000000000000000000000000000000000000000000000000000000000000000000000000000000000000000000000000000000000000000000000000000000000000000000000000000000000000000000000000000000000000000000000000000000000000000000000000000000000000000000000000000000000000000000000000000000000000000000000000000000000000000000000000000000000000000000000000000000000000000000000000000000000000000000000000000000000000000000000",
                    "difficulty": "0x00",
                    "number": "0x01",
                    "gasLimit": "0x989680",
                    "gasUsed": "0x020c79",
                    "timestamp": "0x03e8",
                    "extraData": "0x00",
                    "mixHash": "0x0000000000000000000000000000000000000000000000000000000000020000",
                    "nonce": "0x0000000000000000",
                    "baseFeePerGas": "0x0a",
                    "withdrawalsRoot": "0x56e81f171bcc55a6ff8345e692c0f86e5b48e01b996cadc001622fb5e363b421",
                    "blobGasUsed": "0x00",
                    "excessBlobGas": "0x00",
                    "parentBeaconBlockRoot": "0x0000000000000000000000000000000000000000000000000000000000000000",
                    "hash": "0x448a9ded477251261b73057289292039e9215ab7b3c5758efc45a085c7a1c3ba"
                },
                "transactions": [
                    {
                        "type": "0x00",
                        "chainId": "0x01",
                        "nonce": "0x00",
                        "gasPrice": "0x0a",
                        "gasLimit": "0x0927c0",
                        "to": "0x0fbebab06d4b2021e69b8a1ccbb84324ca11781c",
                        "value": "0x00",
                        "data": "0x",
                        "v": "0x26",
                        "r": "0xca894dbfd4461e4ddd53c4c0e8c5b38982e832228af0ca75ee690abdbb4b546d",
                        "s": "0x6cc23936169e04c569f74736880681c9d0099e790f7b9637eb360e02095dd51b",
                        "sender": "0xd719ccdb2301950b0a0bdf09a2bb1d5f8b225f6f"
                    }
                ],
                "uncleHeaders": [],
                "withdrawals": [],
                "receipts": [
                    {
                        "transactionHash": "0xb61946156832ce16f4d682375e929a6966438aaaeefe1fba79d6f846fa2d8664",
                        "type": "0x00",
                        "cumulativeGasUsed": "0x020c79",
                        "bloom": "0x00000000000000000000000000000000000000000000000000000000000000000000000000000000000000000000000000000000000000000000000000000000000000000000000000000000000000000000000000000000000000000000000000000000000000000000000000000000000000000000000000000000000000000000000000000000000000000000000000000000000000000000000000000000000000000000000000000000000000000000000000000000000000000000000000000000000000000000000000000000000000000000000000000000000000000000000000000000000000000000000000000000000000000000000000000000",
                        "logs": [],
                        "status": true,
                        "rlp": "0xf901090183020c79b9010000000000000000000000000000000000000000000000000000000000000000000000000000000000000000000000000000000000000000000000000000000000000000000000000000000000000000000000000000000000000000000000000000000000000000000000000000000000000000000000000000000000000000000000000000000000000000000000000000000000000000000000000000000000000000000000000000000000000000000000000000000000000000000000000000000000000000000000000000000000000000000000000000000000000000000000000000000000000000000000000000000000000000000000000000000000c0"
                    }
                ],
                "rlp": "0xf902a3f9023aa0f16f6ed538d7ad90bc6c47328be70afd5246dcb17f974363030cc2738f6890a9a01dcc4de8dec75d7aab85b567b6ccd41ad312451b948a7413f0a142fd40d49347942adc25665018aa1fe0e6bc666dac8fc2697ff9baa046afca6568f42237922a6f5232966005d7712d40001b51981d33e3998f793c5ba06c412b52e70a1286c9a578e8a697c132c4c61f1afed8cd9f183dd821dc853cdaa02a0010d9d9c5f6452cc034d7ce6b8d050eafe3263761d024c0bcb6ba474d0937b901000000000000000000000000000000000000000000000000000000000000000000000000000000000000000000000000000000000000000000000000000000000000000000000000000000000000000000000000000000000000000000000000000000000000000000000000000000000000000000000000000000000000000000000000000000000000000000000000000000000000000000000000000000000000000000000000000000000000000000000000000000000000000000000000000000000000000000000000000000000000000000000000000000000000000000000000000000000000000000000000000000000000000000000000000000000080018398968083020c798203e800a000000000000000000000000000000000000000000000000000000000000200008800000000000000000aa056e81f171bcc55a6ff8345e692c0f86e5b48e01b996cadc001622fb5e363b4218080a00000000000000000000000000000000000000000000000000000000000000000f862f860800a830927c0940fbebab06d4b2021e69b8a1ccbb84324ca11781c808026a0ca894dbfd4461e4ddd53c4c0e8c5b38982e832228af0ca75ee690abdbb4b546da06cc23936169e04c569f74736880681c9d0099e790f7b9637eb360e02095dd51bc0c0",
                "blocknumber": "1"
            }
        ],
        "sealEngine": "NoProof",
        "_info": {
            "hash": "0xbb3b39f4d866d633419bca01d48406a23c0cc43d8836ba20d28715bc930d2d76",
            "fixture-format": "blockchain_test",
            "comment": "`execution-specs` generated test",
            "filling-transition-tool": "2.19.0",
            "description": "Test_call_and_callcode_consume_more_gas_then_transaction_has.",
            "url": "https://github.com/ethereum/execution-specs/blob/tests-snobal-devnet-5@v8037.0.0/tests/ported_static/stEIP150Specific/test_call_and_callcode_consume_more_gas_then_transaction_has.py#L24",
            "metadata": {
                "opcode_count": {}
            },
            "reference-spec": "https://github.com/ethereum/EIPs/blob/master/N/A",
            "reference-spec-version": "N/A"
        }
    }
}