{
    "tests/static/state_tests/stReturnDataTest/returndatacopy_following_too_big_transferFiller.json::returndatacopy_following_too_big_transfer[fork_Cancun-blockchain_test_from_state_test-]": {
        "network": "Cancun",
        "genesisBlockHeader": {
            "parentHash": "0x0000000000000000000000000000000000000000000000000000000000000000",
            "uncleHash": "0x1dcc4de8dec75d7aab85b567b6ccd41ad312451b948a7413f0a142fd40d49347",
            "coinbase": "0x0000000000000000000000000000000000000000",
            "stateRoot": "0x23f0a371983fe5e4765c08b13918c870915ba545545570ebfd9339db7305e3a3",
            "transactionsTrie": "0x56e81f171bcc55a6ff8345e692c0f86e5b48e01b996cadc001622fb5e363b421",
            "receiptTrie": "0x56e81f171bcc55a6ff8345e692c0f86e5b48e01b996cadc001622fb5e363b421",
            "bloom": "0x00000000000000000000000000000000000000000000000000000000000000000000000000000000000000000000000000000000000000000000000000000000000000000000000000000000000000000000000000000000000000000000000000000000000000000000000000000000000000000000000000000000000000000000000000000000000000000000000000000000000000000000000000000000000000000000000000000000000000000000000000000000000000000000000000000000000000000000000000000000000000000000000000000000000000000000000000000000000000000000000000000000000000000000000000000000",
            "difficulty": "0x00",
            "number": "0x00",
            "gasLimit": "0x1a00000000",
            "gasUsed": "0x00",
            "timestamp": "0x00",
            "extraData": "0x00",
            "mixHash": "0x0000000000000000000000000000000000000000000000000000000000000000",
            "nonce": "0x0000000000000000",
            "baseFeePerGas": "0x0b",
            "withdrawalsRoot": "0x56e81f171bcc55a6ff8345e692c0f86e5b48e01b996cadc001622fb5e363b421",
            "blobGasUsed": "0x00",
            "excessBlobGas": "0x00",
            "parentBeaconBlockRoot": "0x0000000000000000000000000000000000000000000000000000000000000000",
            "hash": "0x836d9a74aa07d9b882082b23172090d6fe9bb6b37558a547ee9a34bfb46065c2"
        },
        "pre": {
            "0x000f3df6d732807ef1319fb7b8bb8522d0beac02": {
                "nonce": "0x01",
                "balance": "0x00",
                "code": "0x3373fffffffffffffffffffffffffffffffffffffffe14604d57602036146024575f5ffd5b5f35801560495762001fff810690815414603c575f5ffd5b62001fff01545f5260205ff35b5f5ffd5b62001fff42064281555f359062001fff015500",
                "storage": {}
            },
            "0xc102734f6a1e4747310179c0a0fc16e674aa901d": {
                "nonce": "0x00",
                "balance": "0x6400000000",
                "code": "0x",
                "storage": {}
            },
            "0x9898dd5e5c526b55ec49b1047e298705c13279f1": {
                "nonce": "0x00",
                "balance": "0x00",
                "code": "0x7d111122223333444455556666777788889999aaaabbbbccccddddeeeeffff60005260206000f300",
                "storage": {}
            },
            "0x386e9fc96c1e60f449c2df320f37545cca30f58d": {
                "nonce": "0x00",
                "balance": "0x00",
                "code": "0x600060006000600062989680739898dd5e5c526b55ec49b1047e298705c13279f1640900000000f1506020600060003e60c860005500",
                "storage": {
                    "0x00": "0x01"
                }
            }
        },
        "postState": {
            "0x000f3df6d732807ef1319fb7b8bb8522d0beac02": {
                "nonce": "0x01",
                "balance": "0x00",
                "code": "0x3373fffffffffffffffffffffffffffffffffffffffe14604d57602036146024575f5ffd5b5f35801560495762001fff810690815414603c575f5ffd5b62001fff01545f5260205ff35b5f5ffd5b62001fff42064281555f359062001fff015500",
                "storage": {
                    "0x03e8": "0x03e8"
                }
            },
            "0xc102734f6a1e4747310179c0a0fc16e674aa901d": {
                "nonce": "0x01",
                "balance": "0x63fff0bdc0",
                "code": "0x",
                "storage": {}
            },
            "0x9898dd5e5c526b55ec49b1047e298705c13279f1": {
                "nonce": "0x00",
                "balance": "0x00",
                "code": "0x7d111122223333444455556666777788889999aaaabbbbccccddddeeeeffff60005260206000f300",
                "storage": {}
            },
            "0x386e9fc96c1e60f449c2df320f37545cca30f58d": {
                "nonce": "0x00",
                "balance": "0x00",
                "code": "0x600060006000600062989680739898dd5e5c526b55ec49b1047e298705c13279f1640900000000f1506020600060003e60c860005500",
                "storage": {
                    "0x00": "0x01"
                }
            }
        },
        "lastblockhash": "0x8c8740fa11e66dd8909ad27498d3d92b8fe419639f609937fa0850262c8dade2",
        "config": {
            "network": "Cancun",
            "chainid": "0x01",
            "blobSchedule": {
                "Cancun": {
                    "target": "0x03",
                    "max": "0x06",
                    "baseFeeUpdateFraction": "0x32f0ed"
                }
            }
        },
        "genesisRLP": "0xf9023df90237a00000000000000000000000000000000000000000000000000000000000000000a01dcc4de8dec75d7aab85b567b6ccd41ad312451b948a7413f0a142fd40d49347940000000000000000000000000000000000000000a023f0a371983fe5e4765c08b13918c870915ba545545570ebfd9339db7305e3a3a056e81f171bcc55a6ff8345e692c0f86e5b48e01b996cadc001622fb5e363b421a056e81f171bcc55a6ff8345e692c0f86e5b48e01b996cadc001622fb5e363b421b90100000000000000000000000000000000000000000000000000000000000000000000000000000000000000000000000000000000000000000000000000000000000000000000000000000000000000000000000000000000000000000000000000000000000000000000000000000000000000000000000000000000000000000000000000000000000000000000000000000000000000000000000000000000000000000000000000000000000000000000000000000000000000000000000000000000000000000000000000000000000000000000000000000000000000000000000000000000000000000000000000000000000000000000000000000000008080851a00000000808000a000000000000000000000000000000000000000000000000000000000000000008800000000000000000ba056e81f171bcc55a6ff8345e692c0f86e5b48e01b996cadc001622fb5e363b4218080a00000000000000000000000000000000000000000000000000000000000000000c0c0c0",
        "blocks": [
            {
                "blockHeader": {
                    "parentHash": "0x836d9a74aa07d9b882082b23172090d6fe9bb6b37558a547ee9a34bfb46065c2",
                    "uncleHash": "0x1dcc4de8dec75d7aab85b567b6ccd41ad312451b948a7413f0a142fd40d49347",
                    "coinbase": "0x2adc25665018aa1fe0e6bc666dac8fc2697ff9ba",
                    "stateRoot": "0xabbc1d2405507f63a6d0edb0c8f7dffae44b7b7e163908c2f4f4e0c2d7d2de1c",
                    "transactionsTrie": "0x33ccb98c48763bcf5c8d4d87c3451d50e05a1730fe77f0a28a6bb16d1f9e50c1",
                    "receiptTrie": "0x777f1c1c378807634128348e4f0eeca6a0e7f516ea411690ca04266323f671a4",
                    "bloom": "0x00000000000000000000000000000000000000000000000000000000000000000000000000000000000000000000000000000000000000000000000000000000000000000000000000000000000000000000000000000000000000000000000000000000000000000000000000000000000000000000000000000000000000000000000000000000000000000000000000000000000000000000000000000000000000000000000000000000000000000000000000000000000000000000000000000000000000000000000000000000000000000000000000000000000000000000000000000000000000000000000000000000000000000000000000000000",
                    "difficulty": "0x00",
                    "number": "0x01",
                    "gasLimit": "0x1a00000000",
                    "gasUsed": "0x0186a0",
                    "timestamp": "0x03e8",
                    "extraData": "0x00",
                    "mixHash": "0x0000000000000000000000000000000000000000000000000000000000020000",
                    "nonce": "0x0000000000000000",
                    "baseFeePerGas": "0x0a",
                    "withdrawalsRoot": "0x56e81f171bcc55a6ff8345e692c0f86e5b48e01b996cadc001622fb5e363b421",
                    "blobGasUsed": "0x00",
                    "excessBlobGas": "0x00",
                    "parentBeaconBlockRoot": "0x0000000000000000000000000000000000000000000000000000000000000000",
                    "hash": "0x8c8740fa11e66dd8909ad27498d3d92b8fe419639f609937fa0850262c8dade2"
                },
                "transactions": [
                    {
                        "type": "0x00",
                        "chainId": "0x01",
                        "nonce": "0x00",
                        "gasPrice": "0x0a",
                        "gasLimit": "0x0186a0",
                        "to": "0x386e9fc96c1e60f449c2df320f37545cca30f58d",
                        "value": "0x00",
                        "data": "0x",
                        "v": "0x26",
                        "r": "0xafdb3620c426d689741467e82a0d2a87a93e0dcf902cfc4c7afb989498c1b32c",
                        "s": "0x3c80391b55eb4a022c902e52379bd1a228ef95e389bb1d6f553b10046e90b6b2",
                        "sender": "0xc102734f6a1e4747310179c0a0fc16e674aa901d"
                    }
                ],
                "uncleHeaders": [],
                "withdrawals": [],
                "receipts": [
                    {
                        "transactionHash": "0xffaec0d12ecd67517561d27cbac05a5c977a1f549b34a44f73a57e6e1217983f",
                        "type": "0x00",
                        "cumulativeGasUsed": "0x0186a0",
                        "bloom": "0x00000000000000000000000000000000000000000000000000000000000000000000000000000000000000000000000000000000000000000000000000000000000000000000000000000000000000000000000000000000000000000000000000000000000000000000000000000000000000000000000000000000000000000000000000000000000000000000000000000000000000000000000000000000000000000000000000000000000000000000000000000000000000000000000000000000000000000000000000000000000000000000000000000000000000000000000000000000000000000000000000000000000000000000000000000000",
                        "logs": [],
                        "status": false,
                        "rlp": "0xf9010980830186a0b9010000000000000000000000000000000000000000000000000000000000000000000000000000000000000000000000000000000000000000000000000000000000000000000000000000000000000000000000000000000000000000000000000000000000000000000000000000000000000000000000000000000000000000000000000000000000000000000000000000000000000000000000000000000000000000000000000000000000000000000000000000000000000000000000000000000000000000000000000000000000000000000000000000000000000000000000000000000000000000000000000000000000000000000000000000000000c0"
                    }
                ],
                "rlp": "0xf902a5f9023ca0836d9a74aa07d9b882082b23172090d6fe9bb6b37558a547ee9a34bfb46065c2a01dcc4de8dec75d7aab85b567b6ccd41ad312451b948a7413f0a142fd40d49347942adc25665018aa1fe0e6bc666dac8fc2697ff9baa0abbc1d2405507f63a6d0edb0c8f7dffae44b7b7e163908c2f4f4e0c2d7d2de1ca033ccb98c48763bcf5c8d4d87c3451d50e05a1730fe77f0a28a6bb16d1f9e50c1a0777f1c1c378807634128348e4f0eeca6a0e7f516ea411690ca04266323f671a4b90100000000000000000000000000000000000000000000000000000000000000000000000000000000000000000000000000000000000000000000000000000000000000000000000000000000000000000000000000000000000000000000000000000000000000000000000000000000000000000000000000000000000000000000000000000000000000000000000000000000000000000000000000000000000000000000000000000000000000000000000000000000000000000000000000000000000000000000000000000000000000000000000000000000000000000000000000000000000000000000000000000000000000000000000000000000008001851a00000000830186a08203e800a000000000000000000000000000000000000000000000000000000000000200008800000000000000000aa056e81f171bcc55a6ff8345e692c0f86e5b48e01b996cadc001622fb5e363b4218080a00000000000000000000000000000000000000000000000000000000000000000f862f860800a830186a094386e9fc96c1e60f449c2df320f37545cca30f58d808026a0afdb3620c426d689741467e82a0d2a87a93e0dcf902cfc4c7afb989498c1b32ca03c80391b55eb4a022c902e52379bd1a228ef95e389bb1d6f553b10046e90b6b2c0c0",
                "blocknumber": "1"
            }
        ],
        "sealEngine": "NoProof",
        "_info": {
            "hash": "0xac6bfc57fc733d80c97826d3d86139794ba95fb6bc378a404d8fdae0ff2ee8a4",
            "fixture-format": "blockchain_test",
            "comment": "`execution-specs` generated test",
            "filling-transition-tool": "2.19.0",
            "description": "No description available - add a docstring to the python test class or function.",
            "url": "",
            "opcode_count": {}
        }
    }
}