{
    "tests/tangerine_whistle/eip150_operation_gas_costs/test_eip150_selfdestruct.py::test_initcode_selfdestruct_to_self[fork_Cancun-blockchain_test-has_balance]": {
        "network": "Cancun",
        "genesisBlockHeader": {
            "parentHash": "0x0000000000000000000000000000000000000000000000000000000000000000",
            "uncleHash": "0x1dcc4de8dec75d7aab85b567b6ccd41ad312451b948a7413f0a142fd40d49347",
            "coinbase": "0x0000000000000000000000000000000000000000",
            "stateRoot": "0x76e00c306d42892a0c4e03525f8a7e03fab4a46f724b96281e9ddcf35f9b16aa",
            "transactionsTrie": "0x56e81f171bcc55a6ff8345e692c0f86e5b48e01b996cadc001622fb5e363b421",
            "receiptTrie": "0x56e81f171bcc55a6ff8345e692c0f86e5b48e01b996cadc001622fb5e363b421",
            "bloom": "0x00000000000000000000000000000000000000000000000000000000000000000000000000000000000000000000000000000000000000000000000000000000000000000000000000000000000000000000000000000000000000000000000000000000000000000000000000000000000000000000000000000000000000000000000000000000000000000000000000000000000000000000000000000000000000000000000000000000000000000000000000000000000000000000000000000000000000000000000000000000000000000000000000000000000000000000000000000000000000000000000000000000000000000000000000000000",
            "difficulty": "0x00",
            "number": "0x00",
            "gasLimit": "0x07270e00",
            "gasUsed": "0x00",
            "timestamp": "0x00",
            "extraData": "0x00",
            "mixHash": "0x0000000000000000000000000000000000000000000000000000000000000000",
            "nonce": "0x0000000000000000",
            "baseFeePerGas": "0x07",
            "withdrawalsRoot": "0x56e81f171bcc55a6ff8345e692c0f86e5b48e01b996cadc001622fb5e363b421",
            "blobGasUsed": "0x00",
            "excessBlobGas": "0x00",
            "parentBeaconBlockRoot": "0x0000000000000000000000000000000000000000000000000000000000000000",
            "hash": "0x0ab881d498196e42e82f84bf78edcf0a9dab1e9f4d271576a47388a8fca13ab4"
        },
        "pre": {
            "0x000f3df6d732807ef1319fb7b8bb8522d0beac02": {
                "nonce": "0x01",
                "balance": "0x00",
                "code": "0x3373fffffffffffffffffffffffffffffffffffffffe14604d57602036146024575f5ffd5b5f35801560495762001fff810690815414603c575f5ffd5b62001fff01545f5260205ff35b5f5ffd5b62001fff42064281555f359062001fff015500",
                "storage": {}
            },
            "0x1ad9bc24818784172ff393bb6f89f094d4d2ca29": {
                "nonce": "0x00",
                "balance": "0x3635c9adc5dea00000",
                "code": "0x",
                "storage": {}
            },
            "0x44adc02f017bab75a312774774c64d09b9af4973": {
                "nonce": "0x01",
                "balance": "0x01",
                "code": "0x6000517dffffffffffffffffffffffffffffffffffffffffffffffffffffffffffff167f30ff00000000000000000000000000000000000000000000000000000000000017600052600260006001f0",
                "storage": {}
            }
        },
        "postState": {
            "0x000f3df6d732807ef1319fb7b8bb8522d0beac02": {
                "nonce": "0x01",
                "balance": "0x00",
                "code": "0x3373fffffffffffffffffffffffffffffffffffffffe14604d57602036146024575f5ffd5b5f35801560495762001fff810690815414603c575f5ffd5b62001fff01545f5260205ff35b5f5ffd5b62001fff42064281555f359062001fff015500",
                "storage": {
                    "0x0c": "0x0c"
                }
            },
            "0x1ad9bc24818784172ff393bb6f89f094d4d2ca29": {
                "nonce": "0x01",
                "balance": "0x3635c9adc5de9724d0",
                "code": "0x",
                "storage": {}
            },
            "0x44adc02f017bab75a312774774c64d09b9af4973": {
                "nonce": "0x02",
                "balance": "0x00",
                "code": "0x6000517dffffffffffffffffffffffffffffffffffffffffffffffffffffffffffff167f30ff00000000000000000000000000000000000000000000000000000000000017600052600260006001f0",
                "storage": {}
            },
            "0x2adc25665018aa1fe0e6bc666dac8fc2697ff9ba": {
                "nonce": "0x00",
                "balance": "0x02a828",
                "code": "0x",
                "storage": {}
            }
        },
        "lastblockhash": "0xf0267e587b35c226ee3f0eae841627e82c643b210bf1a7f711f743b87f6779e8",
        "config": {
            "network": "Cancun",
            "chainid": "0x01",
            "blobSchedule": {
                "Cancun": {
                    "target": "0x03",
                    "max": "0x06",
                    "baseFeeUpdateFraction": "0x32f0ed"
                }
            }
        },
        "genesisRLP": "0xf9023cf90236a00000000000000000000000000000000000000000000000000000000000000000a01dcc4de8dec75d7aab85b567b6ccd41ad312451b948a7413f0a142fd40d49347940000000000000000000000000000000000000000a076e00c306d42892a0c4e03525f8a7e03fab4a46f724b96281e9ddcf35f9b16aaa056e81f171bcc55a6ff8345e692c0f86e5b48e01b996cadc001622fb5e363b421a056e81f171bcc55a6ff8345e692c0f86e5b48e01b996cadc001622fb5e363b421b901000000000000000000000000000000000000000000000000000000000000000000000000000000000000000000000000000000000000000000000000000000000000000000000000000000000000000000000000000000000000000000000000000000000000000000000000000000000000000000000000000000000000000000000000000000000000000000000000000000000000000000000000000000000000000000000000000000000000000000000000000000000000000000000000000000000000000000000000000000000000000000000000000000000000000000000000000000000000000000000000000000000000000000000000000000000080808407270e00808000a0000000000000000000000000000000000000000000000000000000000000000088000000000000000007a056e81f171bcc55a6ff8345e692c0f86e5b48e01b996cadc001622fb5e363b4218080a00000000000000000000000000000000000000000000000000000000000000000c0c0c0",
        "blocks": [
            {
                "blockHeader": {
                    "parentHash": "0x0ab881d498196e42e82f84bf78edcf0a9dab1e9f4d271576a47388a8fca13ab4",
                    "uncleHash": "0x1dcc4de8dec75d7aab85b567b6ccd41ad312451b948a7413f0a142fd40d49347",
                    "coinbase": "0x2adc25665018aa1fe0e6bc666dac8fc2697ff9ba",
                    "stateRoot": "0xf1351bcfc1119e3e1f23f7cc2a78bf14650f9d631bfeaa9a79e12c3acb530500",
                    "transactionsTrie": "0x203aff5c62a129aed721feee251db0fab112c2d01da055f1fcbb3d30b6a36178",
                    "receiptTrie": "0xded94bb4bcd636ca890ead4af2f4093d4b60d756bea54647b4373fe10336d403",
                    "bloom": "0x00000000000000000000000000000000000000000000000000000000000000000000000000000000000000000000000000000000000000000000000000000000000000000000000000000000000000000000000000000000000000000000000000000000000000000000000000000000000000000000000000000000000000000000000000000000000000000000000000000000000000000000000000000000000000000000000000000000000000000000000000000000000000000000000000000000000000000000000000000000000000000000000000000000000000000000000000000000000000000000000000000000000000000000000000000000",
                    "difficulty": "0x00",
                    "number": "0x01",
                    "gasLimit": "0x07270e00",
                    "gasUsed": "0xe2b8",
                    "timestamp": "0x0c",
                    "extraData": "0x",
                    "mixHash": "0x0000000000000000000000000000000000000000000000000000000000000000",
                    "nonce": "0x0000000000000000",
                    "baseFeePerGas": "0x07",
                    "withdrawalsRoot": "0x56e81f171bcc55a6ff8345e692c0f86e5b48e01b996cadc001622fb5e363b421",
                    "blobGasUsed": "0x00",
                    "excessBlobGas": "0x00",
                    "parentBeaconBlockRoot": "0x0000000000000000000000000000000000000000000000000000000000000000",
                    "hash": "0xf0267e587b35c226ee3f0eae841627e82c643b210bf1a7f711f743b87f6779e8"
                },
                "transactions": [
                    {
                        "type": "0x00",
                        "chainId": "0x01",
                        "nonce": "0x00",
                        "gasPrice": "0x0a",
                        "gasLimit": "0x07a120",
                        "to": "0x44adc02f017bab75a312774774c64d09b9af4973",
                        "value": "0x00",
                        "data": "0x",
                        "v": "0x26",
                        "r": "0x321e2111f8e70dfd934e536d3e2bb153e0531df1f7dbf5c832ce6746035a72c4",
                        "s": "0x5451953b3dbf98497f45fd96966d51c721262aa3cb23d5e5f096dc335248dd1b",
                        "sender": "0x1ad9bc24818784172ff393bb6f89f094d4d2ca29"
                    }
                ],
                "uncleHeaders": [],
                "withdrawals": [],
                "receipts": [
                    {
                        "transactionHash": "0x77442ca194746ea3ee105ff81dbcaf68752509cff0b83ecda58819a9b90b3173",
                        "type": "0x00",
                        "cumulativeGasUsed": "0xe2b8",
                        "bloom": "0x00000000000000000000000000000000000000000000000000000000000000000000000000000000000000000000000000000000000000000000000000000000000000000000000000000000000000000000000000000000000000000000000000000000000000000000000000000000000000000000000000000000000000000000000000000000000000000000000000000000000000000000000000000000000000000000000000000000000000000000000000000000000000000000000000000000000000000000000000000000000000000000000000000000000000000000000000000000000000000000000000000000000000000000000000000000",
                        "logs": [],
                        "status": true,
                        "rlp": "0xf901080182e2b8b9010000000000000000000000000000000000000000000000000000000000000000000000000000000000000000000000000000000000000000000000000000000000000000000000000000000000000000000000000000000000000000000000000000000000000000000000000000000000000000000000000000000000000000000000000000000000000000000000000000000000000000000000000000000000000000000000000000000000000000000000000000000000000000000000000000000000000000000000000000000000000000000000000000000000000000000000000000000000000000000000000000000000000000000000000000000000c0"
                    }
                ],
                "rlp": "0xf902a1f90238a00ab881d498196e42e82f84bf78edcf0a9dab1e9f4d271576a47388a8fca13ab4a01dcc4de8dec75d7aab85b567b6ccd41ad312451b948a7413f0a142fd40d49347942adc25665018aa1fe0e6bc666dac8fc2697ff9baa0f1351bcfc1119e3e1f23f7cc2a78bf14650f9d631bfeaa9a79e12c3acb530500a0203aff5c62a129aed721feee251db0fab112c2d01da055f1fcbb3d30b6a36178a0ded94bb4bcd636ca890ead4af2f4093d4b60d756bea54647b4373fe10336d403b901000000000000000000000000000000000000000000000000000000000000000000000000000000000000000000000000000000000000000000000000000000000000000000000000000000000000000000000000000000000000000000000000000000000000000000000000000000000000000000000000000000000000000000000000000000000000000000000000000000000000000000000000000000000000000000000000000000000000000000000000000000000000000000000000000000000000000000000000000000000000000000000000000000000000000000000000000000000000000000000000000000000000000000000000000000000080018407270e0082e2b80c80a0000000000000000000000000000000000000000000000000000000000000000088000000000000000007a056e81f171bcc55a6ff8345e692c0f86e5b48e01b996cadc001622fb5e363b4218080a00000000000000000000000000000000000000000000000000000000000000000f862f860800a8307a1209444adc02f017bab75a312774774c64d09b9af4973808026a0321e2111f8e70dfd934e536d3e2bb153e0531df1f7dbf5c832ce6746035a72c4a05451953b3dbf98497f45fd96966d51c721262aa3cb23d5e5f096dc335248dd1bc0c0",
                "blocknumber": "1"
            }
        ],
        "sealEngine": "NoProof",
        "_info": {
            "hash": "0x58f86c81d451031719988eaf2547f607081f69cb85cba5fdd9300027eebfa247",
            "fixture-format": "blockchain_test",
            "comment": "`execution-specs` generated test",
            "filling-transition-tool": "2.19.0",
            "description": "Test SELFDESTRUCT during initcode execution where beneficiary is self.\n\nUnlike test_selfdestruct_to_self, this tests the case where the initcode\nitself executes SELFDESTRUCT(ADDRESS) during contract creation, before\nany code is deployed.\n\nKey characteristics:\n- During initcode, the contract has no code yet\n- Contract has nonce=1 (post-EIP-161) making it non-empty\n- Beneficiary is always warm (it's the executing contract)\n- No G_NEW_ACCOUNT charge (contract has nonce > 0)\n- No cold access charge (>=Berlin)\n\nNote: Gas boundary testing not possible for initcode since CREATE\ndoesn't accept a gas parameter - it uses all available gas.",
            "url": "https://github.com/ethereum/execution-specs/blob/tests-bal@v5.4.0/tests/tangerine_whistle/eip150_operation_gas_costs/test_eip150_selfdestruct.py#L1122",
            "opcode_count": {},
            "reference-spec": "https://github.com/ethereum/EIPs/blob/master/EIPS/eip-150.md",
            "reference-spec-version": "34acf72522b989d86e76efcaf42eba4cdb0b31ad"
        }
    },
    "tests/tangerine_whistle/eip150_operation_gas_costs/test_eip150_selfdestruct.py::test_initcode_selfdestruct_to_self[fork_Cancun-blockchain_test-no_balance]": {
        "network": "Cancun",
        "genesisBlockHeader": {
            "parentHash": "0x0000000000000000000000000000000000000000000000000000000000000000",
            "uncleHash": "0x1dcc4de8dec75d7aab85b567b6ccd41ad312451b948a7413f0a142fd40d49347",
            "coinbase": "0x0000000000000000000000000000000000000000",
            "stateRoot": "0x146de389c69fc42562d8147c8a234ed37fd31720a77900d7b3eeb043ce697e66",
            "transactionsTrie": "0x56e81f171bcc55a6ff8345e692c0f86e5b48e01b996cadc001622fb5e363b421",
            "receiptTrie": "0x56e81f171bcc55a6ff8345e692c0f86e5b48e01b996cadc001622fb5e363b421",
            "bloom": "0x00000000000000000000000000000000000000000000000000000000000000000000000000000000000000000000000000000000000000000000000000000000000000000000000000000000000000000000000000000000000000000000000000000000000000000000000000000000000000000000000000000000000000000000000000000000000000000000000000000000000000000000000000000000000000000000000000000000000000000000000000000000000000000000000000000000000000000000000000000000000000000000000000000000000000000000000000000000000000000000000000000000000000000000000000000000",
            "difficulty": "0x00",
            "number": "0x00",
            "gasLimit": "0x07270e00",
            "gasUsed": "0x00",
            "timestamp": "0x00",
            "extraData": "0x00",
            "mixHash": "0x0000000000000000000000000000000000000000000000000000000000000000",
            "nonce": "0x0000000000000000",
            "baseFeePerGas": "0x07",
            "withdrawalsRoot": "0x56e81f171bcc55a6ff8345e692c0f86e5b48e01b996cadc001622fb5e363b421",
            "blobGasUsed": "0x00",
            "excessBlobGas": "0x00",
            "parentBeaconBlockRoot": "0x0000000000000000000000000000000000000000000000000000000000000000",
            "hash": "0xec05faa5992a08e80eced423fef9b2710c58aae6922b9bcebc06a8a59c143ba5"
        },
        "pre": {
            "0x000f3df6d732807ef1319fb7b8bb8522d0beac02": {
                "nonce": "0x01",
                "balance": "0x00",
                "code": "0x3373fffffffffffffffffffffffffffffffffffffffe14604d57602036146024575f5ffd5b5f35801560495762001fff810690815414603c575f5ffd5b62001fff01545f5260205ff35b5f5ffd5b62001fff42064281555f359062001fff015500",
                "storage": {}
            },
            "0x1ad9bc24818784172ff393bb6f89f094d4d2ca29": {
                "nonce": "0x00",
                "balance": "0x3635c9adc5dea00000",
                "code": "0x",
                "storage": {}
            },
            "0xe92b8d8f5351de41ebf291bb8519ca536c359a16": {
                "nonce": "0x01",
                "balance": "0x00",
                "code": "0x6000517dffffffffffffffffffffffffffffffffffffffffffffffffffffffffffff167f30ff00000000000000000000000000000000000000000000000000000000000017600052600260006000f0",
                "storage": {}
            }
        },
        "postState": {
            "0x000f3df6d732807ef1319fb7b8bb8522d0beac02": {
                "nonce": "0x01",
                "balance": "0x00",
                "code": "0x3373fffffffffffffffffffffffffffffffffffffffe14604d57602036146024575f5ffd5b5f35801560495762001fff810690815414603c575f5ffd5b62001fff01545f5260205ff35b5f5ffd5b62001fff42064281555f359062001fff015500",
                "storage": {
                    "0x0c": "0x0c"
                }
            },
            "0x1ad9bc24818784172ff393bb6f89f094d4d2ca29": {
                "nonce": "0x01",
                "balance": "0x3635c9adc5de9724d0",
                "code": "0x",
                "storage": {}
            },
            "0xe92b8d8f5351de41ebf291bb8519ca536c359a16": {
                "nonce": "0x02",
                "balance": "0x00",
                "code": "0x6000517dffffffffffffffffffffffffffffffffffffffffffffffffffffffffffff167f30ff00000000000000000000000000000000000000000000000000000000000017600052600260006000f0",
                "storage": {}
            },
            "0x2adc25665018aa1fe0e6bc666dac8fc2697ff9ba": {
                "nonce": "0x00",
                "balance": "0x02a828",
                "code": "0x",
                "storage": {}
            }
        },
        "lastblockhash": "0xbc6cfce17b43180650ba935a7214b392720cfe370dbdcb91343a99a71b217dc0",
        "config": {
            "network": "Cancun",
            "chainid": "0x01",
            "blobSchedule": {
                "Cancun": {
                    "target": "0x03",
                    "max": "0x06",
                    "baseFeeUpdateFraction": "0x32f0ed"
                }
            }
        },
        "genesisRLP": "0xf9023cf90236a00000000000000000000000000000000000000000000000000000000000000000a01dcc4de8dec75d7aab85b567b6ccd41ad312451b948a7413f0a142fd40d49347940000000000000000000000000000000000000000a0146de389c69fc42562d8147c8a234ed37fd31720a77900d7b3eeb043ce697e66a056e81f171bcc55a6ff8345e692c0f86e5b48e01b996cadc001622fb5e363b421a056e81f171bcc55a6ff8345e692c0f86e5b48e01b996cadc001622fb5e363b421b901000000000000000000000000000000000000000000000000000000000000000000000000000000000000000000000000000000000000000000000000000000000000000000000000000000000000000000000000000000000000000000000000000000000000000000000000000000000000000000000000000000000000000000000000000000000000000000000000000000000000000000000000000000000000000000000000000000000000000000000000000000000000000000000000000000000000000000000000000000000000000000000000000000000000000000000000000000000000000000000000000000000000000000000000000000000080808407270e00808000a0000000000000000000000000000000000000000000000000000000000000000088000000000000000007a056e81f171bcc55a6ff8345e692c0f86e5b48e01b996cadc001622fb5e363b4218080a00000000000000000000000000000000000000000000000000000000000000000c0c0c0",
        "blocks": [
            {
                "blockHeader": {
                    "parentHash": "0xec05faa5992a08e80eced423fef9b2710c58aae6922b9bcebc06a8a59c143ba5",
                    "uncleHash": "0x1dcc4de8dec75d7aab85b567b6ccd41ad312451b948a7413f0a142fd40d49347",
                    "coinbase": "0x2adc25665018aa1fe0e6bc666dac8fc2697ff9ba",
                    "stateRoot": "0x3a20475abeecbe7e9839166087bd49f9c043477b6c83cd74a5c5761623d34447",
                    "transactionsTrie": "0x991ef027cef31e978e9f1e09ce654039f1bf94346d1defaac2d92dcbeb509482",
                    "receiptTrie": "0xded94bb4bcd636ca890ead4af2f4093d4b60d756bea54647b4373fe10336d403",
                    "bloom": "0x00000000000000000000000000000000000000000000000000000000000000000000000000000000000000000000000000000000000000000000000000000000000000000000000000000000000000000000000000000000000000000000000000000000000000000000000000000000000000000000000000000000000000000000000000000000000000000000000000000000000000000000000000000000000000000000000000000000000000000000000000000000000000000000000000000000000000000000000000000000000000000000000000000000000000000000000000000000000000000000000000000000000000000000000000000000",
                    "difficulty": "0x00",
                    "number": "0x01",
                    "gasLimit": "0x07270e00",
                    "gasUsed": "0xe2b8",
                    "timestamp": "0x0c",
                    "extraData": "0x",
                    "mixHash": "0x0000000000000000000000000000000000000000000000000000000000000000",
                    "nonce": "0x0000000000000000",
                    "baseFeePerGas": "0x07",
                    "withdrawalsRoot": "0x56e81f171bcc55a6ff8345e692c0f86e5b48e01b996cadc001622fb5e363b421",
                    "blobGasUsed": "0x00",
                    "excessBlobGas": "0x00",
                    "parentBeaconBlockRoot": "0x0000000000000000000000000000000000000000000000000000000000000000",
                    "hash": "0xbc6cfce17b43180650ba935a7214b392720cfe370dbdcb91343a99a71b217dc0"
                },
                "transactions": [
                    {
                        "type": "0x00",
                        "chainId": "0x01",
                        "nonce": "0x00",
                        "gasPrice": "0x0a",
                        "gasLimit": "0x07a120",
                        "to": "0xe92b8d8f5351de41ebf291bb8519ca536c359a16",
                        "value": "0x00",
                        "data": "0x",
                        "v": "0x26",
                        "r": "0x0d21a66b6bd1eb23ce803e3ab54605353a2a0e897e49349a66b71d17a180b331",
                        "s": "0x1b17dc5320d4a764336b4e3c701a089d2c11eb027717484174617c7b76ab9bfc",
                        "sender": "0x1ad9bc24818784172ff393bb6f89f094d4d2ca29"
                    }
                ],
                "uncleHeaders": [],
                "withdrawals": [],
                "receipts": [
                    {
                        "transactionHash": "0x6ca6f3ebf4563edf8dad910ec3af1085e4542dea990f420f32bdc8a289e13ef0",
                        "type": "0x00",
                        "cumulativeGasUsed": "0xe2b8",
                        "bloom": "0x00000000000000000000000000000000000000000000000000000000000000000000000000000000000000000000000000000000000000000000000000000000000000000000000000000000000000000000000000000000000000000000000000000000000000000000000000000000000000000000000000000000000000000000000000000000000000000000000000000000000000000000000000000000000000000000000000000000000000000000000000000000000000000000000000000000000000000000000000000000000000000000000000000000000000000000000000000000000000000000000000000000000000000000000000000000",
                        "logs": [],
                        "status": true,
                        "rlp": "0xf901080182e2b8b9010000000000000000000000000000000000000000000000000000000000000000000000000000000000000000000000000000000000000000000000000000000000000000000000000000000000000000000000000000000000000000000000000000000000000000000000000000000000000000000000000000000000000000000000000000000000000000000000000000000000000000000000000000000000000000000000000000000000000000000000000000000000000000000000000000000000000000000000000000000000000000000000000000000000000000000000000000000000000000000000000000000000000000000000000000000000c0"
                    }
                ],
                "rlp": "0xf902a1f90238a0ec05faa5992a08e80eced423fef9b2710c58aae6922b9bcebc06a8a59c143ba5a01dcc4de8dec75d7aab85b567b6ccd41ad312451b948a7413f0a142fd40d49347942adc25665018aa1fe0e6bc666dac8fc2697ff9baa03a20475abeecbe7e9839166087bd49f9c043477b6c83cd74a5c5761623d34447a0991ef027cef31e978e9f1e09ce654039f1bf94346d1defaac2d92dcbeb509482a0ded94bb4bcd636ca890ead4af2f4093d4b60d756bea54647b4373fe10336d403b901000000000000000000000000000000000000000000000000000000000000000000000000000000000000000000000000000000000000000000000000000000000000000000000000000000000000000000000000000000000000000000000000000000000000000000000000000000000000000000000000000000000000000000000000000000000000000000000000000000000000000000000000000000000000000000000000000000000000000000000000000000000000000000000000000000000000000000000000000000000000000000000000000000000000000000000000000000000000000000000000000000000000000000000000000000000080018407270e0082e2b80c80a0000000000000000000000000000000000000000000000000000000000000000088000000000000000007a056e81f171bcc55a6ff8345e692c0f86e5b48e01b996cadc001622fb5e363b4218080a00000000000000000000000000000000000000000000000000000000000000000f862f860800a8307a12094e92b8d8f5351de41ebf291bb8519ca536c359a16808026a00d21a66b6bd1eb23ce803e3ab54605353a2a0e897e49349a66b71d17a180b331a01b17dc5320d4a764336b4e3c701a089d2c11eb027717484174617c7b76ab9bfcc0c0",
                "blocknumber": "1"
            }
        ],
        "sealEngine": "NoProof",
        "_info": {
            "hash": "0xd4bca9ae7d73856a92ea8d8903540486035e89ec8dd740f17ac51d4dbe0678d7",
            "fixture-format": "blockchain_test",
            "comment": "`execution-specs` generated test",
            "filling-transition-tool": "2.19.0",
            "description": "Test SELFDESTRUCT during initcode execution where beneficiary is self.\n\nUnlike test_selfdestruct_to_self, this tests the case where the initcode\nitself executes SELFDESTRUCT(ADDRESS) during contract creation, before\nany code is deployed.\n\nKey characteristics:\n- During initcode, the contract has no code yet\n- Contract has nonce=1 (post-EIP-161) making it non-empty\n- Beneficiary is always warm (it's the executing contract)\n- No G_NEW_ACCOUNT charge (contract has nonce > 0)\n- No cold access charge (>=Berlin)\n\nNote: Gas boundary testing not possible for initcode since CREATE\ndoesn't accept a gas parameter - it uses all available gas.",
            "url": "https://github.com/ethereum/execution-specs/blob/tests-bal@v5.4.0/tests/tangerine_whistle/eip150_operation_gas_costs/test_eip150_selfdestruct.py#L1122",
            "opcode_count": {},
            "reference-spec": "https://github.com/ethereum/EIPs/blob/master/EIPS/eip-150.md",
            "reference-spec-version": "34acf72522b989d86e76efcaf42eba4cdb0b31ad"
        }
    }
}