{
    "tests/static/state_tests/stNonZeroCallsTest/NonZeroValue_SUICIDE_ToOneStorageKey_ParisFiller.json::NonZeroValue_SUICIDE_ToOneStorageKey_Paris[fork_Cancun-state_test-]": {
        "env": {
            "currentCoinbase": "0x2adc25665018aa1fe0e6bc666dac8fc2697ff9ba",
            "currentGasLimit": "0x989680",
            "currentNumber": "0x01",
            "currentTimestamp": "0x03e8",
            "currentRandom": "0x0000000000000000000000000000000000000000000000000000000000020000",
            "currentDifficulty": "0x00",
            "currentBaseFee": "0x0a",
            "currentExcessBlobGas": "0x00"
        },
        "pre": {
            "0xe6816d716700d694442ee56b63053a32b7dc2e5f": {
                "nonce": "0x00",
                "balance": "0x0a",
                "code": "0x",
                "storage": {
                    "0x00": "0x01"
                }
            },
            "0x3d3d940354604642d8365c608f6310303ecb66a1": {
                "nonce": "0x00",
                "balance": "0x01",
                "code": "0x73e6816d716700d694442ee56b63053a32b7dc2e5fff00",
                "storage": {
                    "0x00": "0x01"
                }
            },
            "0xf7228dceb91a9baecae96f9f8ef048097c204151": {
                "nonce": "0x00",
                "balance": "0xe8d4a51000",
                "code": "0x",
                "storage": {}
            }
        },
        "transaction": {
            "nonce": "0x00",
            "gasPrice": "0x0a",
            "gasLimit": [
                "0x0927c0"
            ],
            "to": "0x3d3d940354604642d8365c608f6310303ecb66a1",
            "value": [
                "0x00"
            ],
            "data": [
                "0x"
            ],
            "sender": "0xf7228dceb91a9baecae96f9f8ef048097c204151",
            "secretKey": "0x4d34f56af0795edb2905972f3d3d940354604642d8365c608f6310303ecb66a2"
        },
        "post": {
            "Cancun": [
                {
                    "hash": "0x7e7f0b23de4eb61ee0015cc3a877b3c461d80935661a41b2ad2bfbde6d4faf15",
                    "logs": "0x1dcc4de8dec75d7aab85b567b6ccd41ad312451b948a7413f0a142fd40d49347",
                    "txbytes": "0xf860800a830927c0943d3d940354604642d8365c608f6310303ecb66a1808026a0a6e314009943baee54e2ae38f6a30b9ab8a13b520ad0d42f1d7cbacd4cd5fc1aa011d76a71ef9b2d8bb65d55d23a8e04748c40a8b64107a37273de92b6d3ed25fb",
                    "indexes": {
                        "data": 0,
                        "gas": 0,
                        "value": 0
                    },
                    "state": {
                        "0xe6816d716700d694442ee56b63053a32b7dc2e5f": {
                            "nonce": "0x00",
                            "balance": "0x0b",
                            "code": "0x",
                            "storage": {
                                "0x00": "0x01"
                            }
                        },
                        "0x3d3d940354604642d8365c608f6310303ecb66a1": {
                            "nonce": "0x00",
                            "balance": "0x00",
                            "code": "0x73e6816d716700d694442ee56b63053a32b7dc2e5fff00",
                            "storage": {
                                "0x00": "0x01"
                            }
                        },
                        "0xf7228dceb91a9baecae96f9f8ef048097c204151": {
                            "nonce": "0x01",
                            "balance": "0xe8d4a0b2b2",
                            "code": "0x",
                            "storage": {}
                        }
                    }
                }
            ]
        },
        "config": {
            "blobSchedule": {
                "Cancun": {
                    "target": "0x03",
                    "max": "0x06",
                    "baseFeeUpdateFraction": "0x32f0ed"
                }
            },
            "chainid": "0x01"
        },
        "_info": {
            "hash": "0x939cb4808c87da8708011e2a3c4343030903cb1543b3eb486347fe71ad50716d",
            "comment": "`execution-specs` generated test",
            "filling-transition-tool": "2.18.0rc6",
            "description": "No description available - add a docstring to the python test class or function.",
            "url": "",
            "fixture-format": "state_test"
        }
    },
    "tests/static/state_tests/stNonZeroCallsTest/NonZeroValue_SUICIDE_ToOneStorageKey_ParisFiller.json::NonZeroValue_SUICIDE_ToOneStorageKey_Paris[fork_Osaka-state_test-]": {
        "env": {
            "currentCoinbase": "0x2adc25665018aa1fe0e6bc666dac8fc2697ff9ba",
            "currentGasLimit": "0x989680",
            "currentNumber": "0x01",
            "currentTimestamp": "0x03e8",
            "currentRandom": "0x0000000000000000000000000000000000000000000000000000000000020000",
            "currentDifficulty": "0x00",
            "currentBaseFee": "0x0a",
            "currentExcessBlobGas": "0x00"
        },
        "pre": {
            "0xe6816d716700d694442ee56b63053a32b7dc2e5f": {
                "nonce": "0x00",
                "balance": "0x0a",
                "code": "0x",
                "storage": {
                    "0x00": "0x01"
                }
            },
            "0x3d3d940354604642d8365c608f6310303ecb66a1": {
                "nonce": "0x00",
                "balance": "0x01",
                "code": "0x73e6816d716700d694442ee56b63053a32b7dc2e5fff00",
                "storage": {
                    "0x00": "0x01"
                }
            },
            "0xf7228dceb91a9baecae96f9f8ef048097c204151": {
                "nonce": "0x00",
                "balance": "0xe8d4a51000",
                "code": "0x",
                "storage": {}
            }
        },
        "transaction": {
            "nonce": "0x00",
            "gasPrice": "0x0a",
            "gasLimit": [
                "0x0927c0"
            ],
            "to": "0x3d3d940354604642d8365c608f6310303ecb66a1",
            "value": [
                "0x00"
            ],
            "data": [
                "0x"
            ],
            "sender": "0xf7228dceb91a9baecae96f9f8ef048097c204151",
            "secretKey": "0x4d34f56af0795edb2905972f3d3d940354604642d8365c608f6310303ecb66a2"
        },
        "post": {
            "Osaka": [
                {
                    "hash": "0x7e7f0b23de4eb61ee0015cc3a877b3c461d80935661a41b2ad2bfbde6d4faf15",
                    "logs": "0x1dcc4de8dec75d7aab85b567b6ccd41ad312451b948a7413f0a142fd40d49347",
                    "txbytes": "0xf860800a830927c0943d3d940354604642d8365c608f6310303ecb66a1808026a0a6e314009943baee54e2ae38f6a30b9ab8a13b520ad0d42f1d7cbacd4cd5fc1aa011d76a71ef9b2d8bb65d55d23a8e04748c40a8b64107a37273de92b6d3ed25fb",
                    "indexes": {
                        "data": 0,
                        "gas": 0,
                        "value": 0
                    },
                    "state": {
                        "0xe6816d716700d694442ee56b63053a32b7dc2e5f": {
                            "nonce": "0x00",
                            "balance": "0x0b",
                            "code": "0x",
                            "storage": {
                                "0x00": "0x01"
                            }
                        },
                        "0x3d3d940354604642d8365c608f6310303ecb66a1": {
                            "nonce": "0x00",
                            "balance": "0x00",
                            "code": "0x73e6816d716700d694442ee56b63053a32b7dc2e5fff00",
                            "storage": {
                                "0x00": "0x01"
                            }
                        },
                        "0xf7228dceb91a9baecae96f9f8ef048097c204151": {
                            "nonce": "0x01",
                            "balance": "0xe8d4a0b2b2",
                            "code": "0x",
                            "storage": {}
                        }
                    }
                }
            ]
        },
        "config": {
            "blobSchedule": {
                "Cancun": {
                    "target": "0x03",
                    "max": "0x06",
                    "baseFeeUpdateFraction": "0x32f0ed"
                },
                "Prague": {
                    "target": "0x06",
                    "max": "0x09",
                    "baseFeeUpdateFraction": "0x4c6964"
                },
                "Osaka": {
                    "target": "0x06",
                    "max": "0x09",
                    "baseFeeUpdateFraction": "0x4c6964"
                }
            },
            "chainid": "0x01"
        },
        "_info": {
            "hash": "0x621d0925222ae522482a7f03f397e850fd0eb254dde4a08b07fd5e3f72088ea0",
            "comment": "`execution-specs` generated test",
            "filling-transition-tool": "2.18.0rc6",
            "description": "No description available - add a docstring to the python test class or function.",
            "url": "",
            "fixture-format": "state_test"
        }
    },
    "tests/static/state_tests/stNonZeroCallsTest/NonZeroValue_SUICIDE_ToOneStorageKey_ParisFiller.json::NonZeroValue_SUICIDE_ToOneStorageKey_Paris[fork_Prague-state_test-]": {
        "env": {
            "currentCoinbase": "0x2adc25665018aa1fe0e6bc666dac8fc2697ff9ba",
            "currentGasLimit": "0x989680",
            "currentNumber": "0x01",
            "currentTimestamp": "0x03e8",
            "currentRandom": "0x0000000000000000000000000000000000000000000000000000000000020000",
            "currentDifficulty": "0x00",
            "currentBaseFee": "0x0a",
            "currentExcessBlobGas": "0x00"
        },
        "pre": {
            "0xe6816d716700d694442ee56b63053a32b7dc2e5f": {
                "nonce": "0x00",
                "balance": "0x0a",
                "code": "0x",
                "storage": {
                    "0x00": "0x01"
                }
            },
            "0x3d3d940354604642d8365c608f6310303ecb66a1": {
                "nonce": "0x00",
                "balance": "0x01",
                "code": "0x73e6816d716700d694442ee56b63053a32b7dc2e5fff00",
                "storage": {
                    "0x00": "0x01"
                }
            },
            "0xf7228dceb91a9baecae96f9f8ef048097c204151": {
                "nonce": "0x00",
                "balance": "0xe8d4a51000",
                "code": "0x",
                "storage": {}
            }
        },
        "transaction": {
            "nonce": "0x00",
            "gasPrice": "0x0a",
            "gasLimit": [
                "0x0927c0"
            ],
            "to": "0x3d3d940354604642d8365c608f6310303ecb66a1",
            "value": [
                "0x00"
            ],
            "data": [
                "0x"
            ],
            "sender": "0xf7228dceb91a9baecae96f9f8ef048097c204151",
            "secretKey": "0x4d34f56af0795edb2905972f3d3d940354604642d8365c608f6310303ecb66a2"
        },
        "post": {
            "Prague": [
                {
                    "hash": "0x7e7f0b23de4eb61ee0015cc3a877b3c461d80935661a41b2ad2bfbde6d4faf15",
                    "logs": "0x1dcc4de8dec75d7aab85b567b6ccd41ad312451b948a7413f0a142fd40d49347",
                    "txbytes": "0xf860800a830927c0943d3d940354604642d8365c608f6310303ecb66a1808026a0a6e314009943baee54e2ae38f6a30b9ab8a13b520ad0d42f1d7cbacd4cd5fc1aa011d76a71ef9b2d8bb65d55d23a8e04748c40a8b64107a37273de92b6d3ed25fb",
                    "indexes": {
                        "data": 0,
                        "gas": 0,
                        "value": 0
                    },
                    "state": {
                        "0xe6816d716700d694442ee56b63053a32b7dc2e5f": {
                            "nonce": "0x00",
                            "balance": "0x0b",
                            "code": "0x",
                            "storage": {
                                "0x00": "0x01"
                            }
                        },
                        "0x3d3d940354604642d8365c608f6310303ecb66a1": {
                            "nonce": "0x00",
                            "balance": "0x00",
                            "code": "0x73e6816d716700d694442ee56b63053a32b7dc2e5fff00",
                            "storage": {
                                "0x00": "0x01"
                            }
                        },
                        "0xf7228dceb91a9baecae96f9f8ef048097c204151": {
                            "nonce": "0x01",
                            "balance": "0xe8d4a0b2b2",
                            "code": "0x",
                            "storage": {}
                        }
                    }
                }
            ]
        },
        "config": {
            "blobSchedule": {
                "Cancun": {
                    "target": "0x03",
                    "max": "0x06",
                    "baseFeeUpdateFraction": "0x32f0ed"
                },
                "Prague": {
                    "target": "0x06",
                    "max": "0x09",
                    "baseFeeUpdateFraction": "0x4c6964"
                }
            },
            "chainid": "0x01"
        },
        "_info": {
            "hash": "0xcf260b7b2c495e07312152c398596a438c69f4fadb88e23eb5ead51d8983d652",
            "comment": "`execution-specs` generated test",
            "filling-transition-tool": "2.18.0rc6",
            "description": "No description available - add a docstring to the python test class or function.",
            "url": "",
            "fixture-format": "state_test"
        }
    }
}