{
    "tests/static/state_tests/stNonZeroCallsTest/NonZeroValue_TransactionCALLwithData_ToOneStorageKey_ParisFiller.json::NonZeroValue_TransactionCALLwithData_ToOneStorageKey_Paris[fork_Cancun-state_test-]": {
        "env": {
            "currentCoinbase": "0x2adc25665018aa1fe0e6bc666dac8fc2697ff9ba",
            "currentGasLimit": "0x989680",
            "currentNumber": "0x01",
            "currentTimestamp": "0x03e8",
            "currentRandom": "0x0000000000000000000000000000000000000000000000000000000000020000",
            "currentDifficulty": "0x00",
            "currentBaseFee": "0x0a",
            "currentExcessBlobGas": "0x00"
        },
        "pre": {
            "0x52dded941a77589a7bfe23d7dc9d3d9401647a70": {
                "nonce": "0x00",
                "balance": "0x0a",
                "code": "0x",
                "storage": {
                    "0x00": "0x01"
                }
            },
            "0xa3893a2074ed5965f6a69491ad89723a509219a8": {
                "nonce": "0x00",
                "balance": "0xe8d4a51000",
                "code": "0x",
                "storage": {}
            }
        },
        "transaction": {
            "nonce": "0x00",
            "gasPrice": "0x0a",
            "gasLimit": [
                "0x0927c0"
            ],
            "to": "0x52dded941a77589a7bfe23d7dc9d3d9401647a70",
            "value": [
                "0x01"
            ],
            "data": [
                "0x1122334455667788991011121314151617181920"
            ],
            "sender": "0xa3893a2074ed5965f6a69491ad89723a509219a8",
            "secretKey": "0x3ca7932d9f07b7375d80584b945246ec44f26c4def654ab7329cd013c3690bbf"
        },
        "post": {
            "Cancun": [
                {
                    "hash": "0x7e4b7953bc9f863e656c5d60d03a5dd00ec169d382ebaf8ea519bbf01998ce69",
                    "logs": "0x1dcc4de8dec75d7aab85b567b6ccd41ad312451b948a7413f0a142fd40d49347",
                    "txbytes": "0xf874800a830927c09452dded941a77589a7bfe23d7dc9d3d9401647a700194112233445566778899101112131415161718192025a0761699407e7cb8ff5341cb29e7f317245417742b7d782646f15b69b54a354cb1a02a556fb7ec26263f63ed9b1768606b49c9e719efb603391e23af79e84f6e1998",
                    "indexes": {
                        "data": 0,
                        "gas": 0,
                        "value": 0
                    },
                    "state": {
                        "0x52dded941a77589a7bfe23d7dc9d3d9401647a70": {
                            "nonce": "0x00",
                            "balance": "0x0b",
                            "code": "0x",
                            "storage": {
                                "0x00": "0x01"
                            }
                        },
                        "0xa3893a2074ed5965f6a69491ad89723a509219a8": {
                            "nonce": "0x01",
                            "balance": "0xe8d4a1cf2f",
                            "code": "0x",
                            "storage": {}
                        }
                    }
                }
            ]
        },
        "config": {
            "blobSchedule": {
                "Cancun": {
                    "target": "0x03",
                    "max": "0x06",
                    "baseFeeUpdateFraction": "0x32f0ed"
                }
            },
            "chainid": "0x01"
        },
        "_info": {
            "hash": "0x0515ebe42ee2f09116c5b808d5c890aa9d2933f6176d4bb7ec09741f46dc05c9",
            "comment": "`execution-spec-tests` generated test",
            "filling-transition-tool": "ethereum-spec-evm-resolver 0.0.5",
            "description": "No description available - add a docstring to the python test class or function.",
            "url": "",
            "fixture-format": "state_test",
            "eels-resolution": {
                "git-url": "https://github.com/ethereum/execution-specs.git",
                "branch": "forks/bpos",
                "commit": "7aacb2c54111391af5e98c505d5010b5698a770f"
            }
        }
    },
    "tests/static/state_tests/stNonZeroCallsTest/NonZeroValue_TransactionCALLwithData_ToOneStorageKey_ParisFiller.json::NonZeroValue_TransactionCALLwithData_ToOneStorageKey_Paris[fork_Osaka-state_test-]": {
        "env": {
            "currentCoinbase": "0x2adc25665018aa1fe0e6bc666dac8fc2697ff9ba",
            "currentGasLimit": "0x989680",
            "currentNumber": "0x01",
            "currentTimestamp": "0x03e8",
            "currentRandom": "0x0000000000000000000000000000000000000000000000000000000000020000",
            "currentDifficulty": "0x00",
            "currentBaseFee": "0x0a",
            "currentExcessBlobGas": "0x00"
        },
        "pre": {
            "0x52dded941a77589a7bfe23d7dc9d3d9401647a70": {
                "nonce": "0x00",
                "balance": "0x0a",
                "code": "0x",
                "storage": {
                    "0x00": "0x01"
                }
            },
            "0xa3893a2074ed5965f6a69491ad89723a509219a8": {
                "nonce": "0x00",
                "balance": "0xe8d4a51000",
                "code": "0x",
                "storage": {}
            }
        },
        "transaction": {
            "nonce": "0x00",
            "gasPrice": "0x0a",
            "gasLimit": [
                "0x0927c0"
            ],
            "to": "0x52dded941a77589a7bfe23d7dc9d3d9401647a70",
            "value": [
                "0x01"
            ],
            "data": [
                "0x1122334455667788991011121314151617181920"
            ],
            "sender": "0xa3893a2074ed5965f6a69491ad89723a509219a8",
            "secretKey": "0x3ca7932d9f07b7375d80584b945246ec44f26c4def654ab7329cd013c3690bbf"
        },
        "post": {
            "Osaka": [
                {
                    "hash": "0x522178cfdd48f6b3c42075fc37794c2ad9de4bc9e4723e6f30a97a1eb4005516",
                    "logs": "0x1dcc4de8dec75d7aab85b567b6ccd41ad312451b948a7413f0a142fd40d49347",
                    "txbytes": "0xf874800a830927c09452dded941a77589a7bfe23d7dc9d3d9401647a700194112233445566778899101112131415161718192025a0761699407e7cb8ff5341cb29e7f317245417742b7d782646f15b69b54a354cb1a02a556fb7ec26263f63ed9b1768606b49c9e719efb603391e23af79e84f6e1998",
                    "indexes": {
                        "data": 0,
                        "gas": 0,
                        "value": 0
                    },
                    "state": {
                        "0x52dded941a77589a7bfe23d7dc9d3d9401647a70": {
                            "nonce": "0x00",
                            "balance": "0x0b",
                            "code": "0x",
                            "storage": {
                                "0x00": "0x01"
                            }
                        },
                        "0xa3893a2074ed5965f6a69491ad89723a509219a8": {
                            "nonce": "0x01",
                            "balance": "0xe8d4a1bc6f",
                            "code": "0x",
                            "storage": {}
                        }
                    }
                }
            ]
        },
        "config": {
            "blobSchedule": {
                "Cancun": {
                    "target": "0x03",
                    "max": "0x06",
                    "baseFeeUpdateFraction": "0x32f0ed"
                },
                "Prague": {
                    "target": "0x06",
                    "max": "0x09",
                    "baseFeeUpdateFraction": "0x4c6964"
                },
                "Osaka": {
                    "target": "0x06",
                    "max": "0x09",
                    "baseFeeUpdateFraction": "0x4c6964"
                }
            },
            "chainid": "0x01"
        },
        "_info": {
            "hash": "0x6c178798152e34a171fdac000f7520e8a1675a1c2b947fd49d819fc72b5d92b3",
            "comment": "`execution-spec-tests` generated test",
            "filling-transition-tool": "ethereum-spec-evm-resolver 0.0.5",
            "description": "No description available - add a docstring to the python test class or function.",
            "url": "",
            "fixture-format": "state_test",
            "eels-resolution": {
                "git-url": "https://github.com/ethereum/execution-specs.git",
                "branch": "forks/bpos",
                "commit": "7aacb2c54111391af5e98c505d5010b5698a770f"
            }
        }
    },
    "tests/static/state_tests/stNonZeroCallsTest/NonZeroValue_TransactionCALLwithData_ToOneStorageKey_ParisFiller.json::NonZeroValue_TransactionCALLwithData_ToOneStorageKey_Paris[fork_Prague-state_test-]": {
        "env": {
            "currentCoinbase": "0x2adc25665018aa1fe0e6bc666dac8fc2697ff9ba",
            "currentGasLimit": "0x989680",
            "currentNumber": "0x01",
            "currentTimestamp": "0x03e8",
            "currentRandom": "0x0000000000000000000000000000000000000000000000000000000000020000",
            "currentDifficulty": "0x00",
            "currentBaseFee": "0x0a",
            "currentExcessBlobGas": "0x00"
        },
        "pre": {
            "0x52dded941a77589a7bfe23d7dc9d3d9401647a70": {
                "nonce": "0x00",
                "balance": "0x0a",
                "code": "0x",
                "storage": {
                    "0x00": "0x01"
                }
            },
            "0xa3893a2074ed5965f6a69491ad89723a509219a8": {
                "nonce": "0x00",
                "balance": "0xe8d4a51000",
                "code": "0x",
                "storage": {}
            }
        },
        "transaction": {
            "nonce": "0x00",
            "gasPrice": "0x0a",
            "gasLimit": [
                "0x0927c0"
            ],
            "to": "0x52dded941a77589a7bfe23d7dc9d3d9401647a70",
            "value": [
                "0x01"
            ],
            "data": [
                "0x1122334455667788991011121314151617181920"
            ],
            "sender": "0xa3893a2074ed5965f6a69491ad89723a509219a8",
            "secretKey": "0x3ca7932d9f07b7375d80584b945246ec44f26c4def654ab7329cd013c3690bbf"
        },
        "post": {
            "Prague": [
                {
                    "hash": "0x522178cfdd48f6b3c42075fc37794c2ad9de4bc9e4723e6f30a97a1eb4005516",
                    "logs": "0x1dcc4de8dec75d7aab85b567b6ccd41ad312451b948a7413f0a142fd40d49347",
                    "txbytes": "0xf874800a830927c09452dded941a77589a7bfe23d7dc9d3d9401647a700194112233445566778899101112131415161718192025a0761699407e7cb8ff5341cb29e7f317245417742b7d782646f15b69b54a354cb1a02a556fb7ec26263f63ed9b1768606b49c9e719efb603391e23af79e84f6e1998",
                    "indexes": {
                        "data": 0,
                        "gas": 0,
                        "value": 0
                    },
                    "state": {
                        "0x52dded941a77589a7bfe23d7dc9d3d9401647a70": {
                            "nonce": "0x00",
                            "balance": "0x0b",
                            "code": "0x",
                            "storage": {
                                "0x00": "0x01"
                            }
                        },
                        "0xa3893a2074ed5965f6a69491ad89723a509219a8": {
                            "nonce": "0x01",
                            "balance": "0xe8d4a1bc6f",
                            "code": "0x",
                            "storage": {}
                        }
                    }
                }
            ]
        },
        "config": {
            "blobSchedule": {
                "Cancun": {
                    "target": "0x03",
                    "max": "0x06",
                    "baseFeeUpdateFraction": "0x32f0ed"
                },
                "Prague": {
                    "target": "0x06",
                    "max": "0x09",
                    "baseFeeUpdateFraction": "0x4c6964"
                }
            },
            "chainid": "0x01"
        },
        "_info": {
            "hash": "0xf8a54a6981a2048b483fba697fd7fca964332821a60118f5669d75addc26aa35",
            "comment": "`execution-spec-tests` generated test",
            "filling-transition-tool": "ethereum-spec-evm-resolver 0.0.5",
            "description": "No description available - add a docstring to the python test class or function.",
            "url": "",
            "fixture-format": "state_test",
            "eels-resolution": {
                "git-url": "https://github.com/ethereum/execution-specs.git",
                "branch": "forks/bpos",
                "commit": "7aacb2c54111391af5e98c505d5010b5698a770f"
            }
        }
    }
}