{
    "tests/ported_static/stCallCodes/test_callcodecallcode_11.py::test_callcodecallcode_11[fork_Cancun-blockchain_test_from_state_test]": {
        "network": "Cancun",
        "genesisBlockHeader": {
            "parentHash": "0x0000000000000000000000000000000000000000000000000000000000000000",
            "uncleHash": "0x1dcc4de8dec75d7aab85b567b6ccd41ad312451b948a7413f0a142fd40d49347",
            "coinbase": "0x0000000000000000000000000000000000000000",
            "stateRoot": "0xddf15bd286eb3416867916fbeed158836c774681834ec3b0a5340f3690ddb0e6",
            "transactionsTrie": "0x56e81f171bcc55a6ff8345e692c0f86e5b48e01b996cadc001622fb5e363b421",
            "receiptTrie": "0x56e81f171bcc55a6ff8345e692c0f86e5b48e01b996cadc001622fb5e363b421",
            "bloom": "0x00000000000000000000000000000000000000000000000000000000000000000000000000000000000000000000000000000000000000000000000000000000000000000000000000000000000000000000000000000000000000000000000000000000000000000000000000000000000000000000000000000000000000000000000000000000000000000000000000000000000000000000000000000000000000000000000000000000000000000000000000000000000000000000000000000000000000000000000000000000000000000000000000000000000000000000000000000000000000000000000000000000000000000000000000000000",
            "difficulty": "0x00",
            "number": "0x00",
            "gasLimit": "0x01c9c380",
            "gasUsed": "0x00",
            "timestamp": "0x00",
            "extraData": "0x00",
            "mixHash": "0x0000000000000000000000000000000000000000000000000000000000000000",
            "nonce": "0x0000000000000000",
            "baseFeePerGas": "0x0b",
            "withdrawalsRoot": "0x56e81f171bcc55a6ff8345e692c0f86e5b48e01b996cadc001622fb5e363b421",
            "blobGasUsed": "0x00",
            "excessBlobGas": "0x00",
            "parentBeaconBlockRoot": "0x0000000000000000000000000000000000000000000000000000000000000000",
            "hash": "0x263cad9e58a7454245359019fb5e2f48437fec5ee0d37aab5d2043792544098c"
        },
        "pre": {
            "0x000f3df6d732807ef1319fb7b8bb8522d0beac02": {
                "nonce": "0x01",
                "balance": "0x00",
                "code": "0x3373fffffffffffffffffffffffffffffffffffffffe14604d57602036146024575f5ffd5b5f35801560495762001fff810690815414603c575f5ffd5b62001fff01545f5260205ff35b5f5ffd5b62001fff42064281555f359062001fff015500",
                "storage": {}
            },
            "0xd66f224cbd2fabb21b17bb53c56118f32f62ebd6": {
                "nonce": "0x00",
                "balance": "0x0de0b6b3a7640000",
                "code": "0x",
                "storage": {}
            },
            "0x10ba2aba80aceeb98385e65706e9822012d7cf48": {
                "nonce": "0x00",
                "balance": "0x00",
                "code": "0x600160025533600455346007553060e6553260e8553660ec553860ee553a60f05500",
                "storage": {}
            },
            "0xf788095b84d212e96b2c2790c7d40c806fe6dcc1": {
                "nonce": "0x00",
                "balance": "0x0de0b6b3a7640000",
                "code": "0x604060006040600060027310ba2aba80aceeb98385e65706e9822012d7cf486203d090f260015500",
                "storage": {}
            },
            "0xcb2b47e7518938dbdef877c8cdf22c9ceb66dcac": {
                "nonce": "0x00",
                "balance": "0x0de0b6b3a7640000",
                "code": "0x6040600060406000600173f788095b84d212e96b2c2790c7d40c806fe6dcc162055730f260005500",
                "storage": {}
            }
        },
        "postState": {
            "0x000f3df6d732807ef1319fb7b8bb8522d0beac02": {
                "nonce": "0x01",
                "balance": "0x00",
                "code": "0x3373fffffffffffffffffffffffffffffffffffffffe14604d57602036146024575f5ffd5b5f35801560495762001fff810690815414603c575f5ffd5b62001fff01545f5260205ff35b5f5ffd5b62001fff42064281555f359062001fff015500",
                "storage": {
                    "0x03e8": "0x03e8"
                }
            },
            "0xd66f224cbd2fabb21b17bb53c56118f32f62ebd6": {
                "nonce": "0x01",
                "balance": "0x0de0b6b3a73c385e",
                "code": "0x",
                "storage": {}
            },
            "0x10ba2aba80aceeb98385e65706e9822012d7cf48": {
                "nonce": "0x00",
                "balance": "0x00",
                "code": "0x600160025533600455346007553060e6553260e8553660ec553860ee553a60f05500",
                "storage": {}
            },
            "0xf788095b84d212e96b2c2790c7d40c806fe6dcc1": {
                "nonce": "0x00",
                "balance": "0x0de0b6b3a7640000",
                "code": "0x604060006040600060027310ba2aba80aceeb98385e65706e9822012d7cf486203d090f260015500",
                "storage": {}
            },
            "0xcb2b47e7518938dbdef877c8cdf22c9ceb66dcac": {
                "nonce": "0x00",
                "balance": "0x0de0b6b3a7640000",
                "code": "0x6040600060406000600173f788095b84d212e96b2c2790c7d40c806fe6dcc162055730f260005500",
                "storage": {
                    "0x02": "0x01",
                    "0x04": "0xcb2b47e7518938dbdef877c8cdf22c9ceb66dcac",
                    "0x07": "0x02",
                    "0xe6": "0xcb2b47e7518938dbdef877c8cdf22c9ceb66dcac",
                    "0xe8": "0xd66f224cbd2fabb21b17bb53c56118f32f62ebd6",
                    "0xec": "0x40",
                    "0xee": "0x22",
                    "0xf0": "0x0a",
                    "0x01": "0x01",
                    "0x00": "0x01"
                }
            }
        },
        "lastblockhash": "0x47e04bce540de6fd001a1694d7a8396a214a05a7e66ecba4f6a95058a55bca4c",
        "config": {
            "network": "Cancun",
            "chainid": "0x01",
            "blobSchedule": {
                "Cancun": {
                    "target": "0x03",
                    "max": "0x06",
                    "baseFeeUpdateFraction": "0x32f0ed"
                }
            }
        },
        "genesisRLP": "0xf9023cf90236a00000000000000000000000000000000000000000000000000000000000000000a01dcc4de8dec75d7aab85b567b6ccd41ad312451b948a7413f0a142fd40d49347940000000000000000000000000000000000000000a0ddf15bd286eb3416867916fbeed158836c774681834ec3b0a5340f3690ddb0e6a056e81f171bcc55a6ff8345e692c0f86e5b48e01b996cadc001622fb5e363b421a056e81f171bcc55a6ff8345e692c0f86e5b48e01b996cadc001622fb5e363b421b901000000000000000000000000000000000000000000000000000000000000000000000000000000000000000000000000000000000000000000000000000000000000000000000000000000000000000000000000000000000000000000000000000000000000000000000000000000000000000000000000000000000000000000000000000000000000000000000000000000000000000000000000000000000000000000000000000000000000000000000000000000000000000000000000000000000000000000000000000000000000000000000000000000000000000000000000000000000000000000000000000000000000000000000000000000000080808401c9c380808000a000000000000000000000000000000000000000000000000000000000000000008800000000000000000ba056e81f171bcc55a6ff8345e692c0f86e5b48e01b996cadc001622fb5e363b4218080a00000000000000000000000000000000000000000000000000000000000000000c0c0c0",
        "blocks": [
            {
                "blockHeader": {
                    "parentHash": "0x263cad9e58a7454245359019fb5e2f48437fec5ee0d37aab5d2043792544098c",
                    "uncleHash": "0x1dcc4de8dec75d7aab85b567b6ccd41ad312451b948a7413f0a142fd40d49347",
                    "coinbase": "0x2adc25665018aa1fe0e6bc666dac8fc2697ff9ba",
                    "stateRoot": "0xd7251a7280633d68d87288c38dbb561c04f6b3ff4dd240360f7903e5bede2d8d",
                    "transactionsTrie": "0xc2cb84c622e6145ff3e8d846d81f560cc13e166c338a041cb6ad824fa11ca409",
                    "receiptTrie": "0x95904f4e949bbc1f767e77a7f53dd981613a4c2d23ee353ae26fcd58f1ac87ae",
                    "bloom": "0x00000000000000000000000000000000000000000000000000000000000000000000000000000000000000000000000000000000000000000000000000000000000000000000000000000000000000000000000000000000000000000000000000000000000000000000000000000000000000000000000000000000000000000000000000000000000000000000000000000000000000000000000000000000000000000000000000000000000000000000000000000000000000000000000000000000000000000000000000000000000000000000000000000000000000000000000000000000000000000000000000000000000000000000000000000000",
                    "difficulty": "0x00",
                    "number": "0x01",
                    "gasLimit": "0x01c9c380",
                    "gasUsed": "0x03fa5d",
                    "timestamp": "0x03e8",
                    "extraData": "0x00",
                    "mixHash": "0x0000000000000000000000000000000000000000000000000000000000020000",
                    "nonce": "0x0000000000000000",
                    "baseFeePerGas": "0x0a",
                    "withdrawalsRoot": "0x56e81f171bcc55a6ff8345e692c0f86e5b48e01b996cadc001622fb5e363b421",
                    "blobGasUsed": "0x00",
                    "excessBlobGas": "0x00",
                    "parentBeaconBlockRoot": "0x0000000000000000000000000000000000000000000000000000000000000000",
                    "hash": "0x47e04bce540de6fd001a1694d7a8396a214a05a7e66ecba4f6a95058a55bca4c"
                },
                "transactions": [
                    {
                        "type": "0x00",
                        "chainId": "0x01",
                        "nonce": "0x00",
                        "gasPrice": "0x0a",
                        "gasLimit": "0x2dc6c0",
                        "to": "0xcb2b47e7518938dbdef877c8cdf22c9ceb66dcac",
                        "value": "0x00",
                        "data": "0x",
                        "v": "0x26",
                        "r": "0xd7f7ff01074342a9df0fe43d3d4431395fed4e15a22274c751c3cc3edf623eb5",
                        "s": "0x7b7d44dc717f94a29ffeaeaea0b8b9758f63ead0cf3ddcbc07ab4dccaae8c570",
                        "sender": "0xd66f224cbd2fabb21b17bb53c56118f32f62ebd6"
                    }
                ],
                "uncleHeaders": [],
                "withdrawals": [],
                "receipts": [
                    {
                        "transactionHash": "0xda4597a50ce4d37ec551058bf9ee7a728d4ba7fb950f35aaf09749878c4fa36a",
                        "type": "0x00",
                        "cumulativeGasUsed": "0x03fa5d",
                        "bloom": "0x00000000000000000000000000000000000000000000000000000000000000000000000000000000000000000000000000000000000000000000000000000000000000000000000000000000000000000000000000000000000000000000000000000000000000000000000000000000000000000000000000000000000000000000000000000000000000000000000000000000000000000000000000000000000000000000000000000000000000000000000000000000000000000000000000000000000000000000000000000000000000000000000000000000000000000000000000000000000000000000000000000000000000000000000000000000",
                        "logs": [],
                        "status": true,
                        "rlp": "0xf90109018303fa5db9010000000000000000000000000000000000000000000000000000000000000000000000000000000000000000000000000000000000000000000000000000000000000000000000000000000000000000000000000000000000000000000000000000000000000000000000000000000000000000000000000000000000000000000000000000000000000000000000000000000000000000000000000000000000000000000000000000000000000000000000000000000000000000000000000000000000000000000000000000000000000000000000000000000000000000000000000000000000000000000000000000000000000000000000000000000000c0"
                    }
                ],
                "rlp": "0xf902a4f9023ba0263cad9e58a7454245359019fb5e2f48437fec5ee0d37aab5d2043792544098ca01dcc4de8dec75d7aab85b567b6ccd41ad312451b948a7413f0a142fd40d49347942adc25665018aa1fe0e6bc666dac8fc2697ff9baa0d7251a7280633d68d87288c38dbb561c04f6b3ff4dd240360f7903e5bede2d8da0c2cb84c622e6145ff3e8d846d81f560cc13e166c338a041cb6ad824fa11ca409a095904f4e949bbc1f767e77a7f53dd981613a4c2d23ee353ae26fcd58f1ac87aeb901000000000000000000000000000000000000000000000000000000000000000000000000000000000000000000000000000000000000000000000000000000000000000000000000000000000000000000000000000000000000000000000000000000000000000000000000000000000000000000000000000000000000000000000000000000000000000000000000000000000000000000000000000000000000000000000000000000000000000000000000000000000000000000000000000000000000000000000000000000000000000000000000000000000000000000000000000000000000000000000000000000000000000000000000000000000080018401c9c3808303fa5d8203e800a000000000000000000000000000000000000000000000000000000000000200008800000000000000000aa056e81f171bcc55a6ff8345e692c0f86e5b48e01b996cadc001622fb5e363b4218080a00000000000000000000000000000000000000000000000000000000000000000f862f860800a832dc6c094cb2b47e7518938dbdef877c8cdf22c9ceb66dcac808026a0d7f7ff01074342a9df0fe43d3d4431395fed4e15a22274c751c3cc3edf623eb5a07b7d44dc717f94a29ffeaeaea0b8b9758f63ead0cf3ddcbc07ab4dccaae8c570c0c0",
                "blocknumber": "1"
            }
        ],
        "sealEngine": "NoProof",
        "_info": {
            "hash": "0x8cee21875b2ceea11790f397f24a239ea9260b33ffbf89b61e7b7f6093fb9973",
            "fixture-format": "blockchain_test",
            "comment": "`execution-specs` generated test",
            "filling-transition-tool": "2.19.0",
            "description": "CALLCODE -> CALLCODE -> code, check parameters.",
            "url": "https://github.com/ethereum/execution-specs/blob/tests-snobal-devnet-5@v8037.0.0/tests/ported_static/stCallCodes/test_callcodecallcode_11.py#L24",
            "metadata": {
                "opcode_count": {}
            }
        }
    }
}