{
    "tests/ported_static/stRevertTest/test_revert_in_delegate_call.py::test_revert_in_delegate_call[fork_Cancun-blockchain_test_from_state_test]": {
        "network": "Cancun",
        "genesisBlockHeader": {
            "parentHash": "0x0000000000000000000000000000000000000000000000000000000000000000",
            "uncleHash": "0x1dcc4de8dec75d7aab85b567b6ccd41ad312451b948a7413f0a142fd40d49347",
            "coinbase": "0x0000000000000000000000000000000000000000",
            "stateRoot": "0x32792d08d77ba19a53393f2f7c3843175ce88b80619e4297369933dc19b42255",
            "transactionsTrie": "0x56e81f171bcc55a6ff8345e692c0f86e5b48e01b996cadc001622fb5e363b421",
            "receiptTrie": "0x56e81f171bcc55a6ff8345e692c0f86e5b48e01b996cadc001622fb5e363b421",
            "bloom": "0x00000000000000000000000000000000000000000000000000000000000000000000000000000000000000000000000000000000000000000000000000000000000000000000000000000000000000000000000000000000000000000000000000000000000000000000000000000000000000000000000000000000000000000000000000000000000000000000000000000000000000000000000000000000000000000000000000000000000000000000000000000000000000000000000000000000000000000000000000000000000000000000000000000000000000000000000000000000000000000000000000000000000000000000000000000000",
            "difficulty": "0x00",
            "number": "0x00",
            "gasLimit": "0x0f4240",
            "gasUsed": "0x00",
            "timestamp": "0x00",
            "extraData": "0x00",
            "mixHash": "0x0000000000000000000000000000000000000000000000000000000000000000",
            "nonce": "0x0000000000000000",
            "baseFeePerGas": "0x0b",
            "withdrawalsRoot": "0x56e81f171bcc55a6ff8345e692c0f86e5b48e01b996cadc001622fb5e363b421",
            "blobGasUsed": "0x00",
            "excessBlobGas": "0x00",
            "parentBeaconBlockRoot": "0x0000000000000000000000000000000000000000000000000000000000000000",
            "hash": "0x777a1cd84f132517254959667df87c0b0f175a41e6be15c6ce8bc7d7b3588691"
        },
        "pre": {
            "0x000f3df6d732807ef1319fb7b8bb8522d0beac02": {
                "nonce": "0x01",
                "balance": "0x00",
                "code": "0x3373fffffffffffffffffffffffffffffffffffffffe14604d57602036146024575f5ffd5b5f35801560495762001fff810690815414603c575f5ffd5b62001fff01545f5260205ff35b5f5ffd5b62001fff42064281555f359062001fff015500",
                "storage": {}
            },
            "0x962aea7d0a0e077e3075514cae986ba883e67d22": {
                "nonce": "0x00",
                "balance": "0x05f5e100",
                "code": "0x",
                "storage": {}
            },
            "0xfee4c7b56d8f53b8f0de49fffcdcbcb397bbb337": {
                "nonce": "0x00",
                "balance": "0x00",
                "code": "0x600a60205260206020fd00",
                "storage": {}
            },
            "0xaca169641228fdda746829ad869511c4413aea84": {
                "nonce": "0x00",
                "balance": "0x03e8",
                "code": "0x604060006040600073fee4c7b56d8f53b8f0de49fffcdcbcb397bbb33761c350f46000553d60015560206000603f3e603f5160025500",
                "storage": {}
            }
        },
        "postState": {
            "0x000f3df6d732807ef1319fb7b8bb8522d0beac02": {
                "nonce": "0x01",
                "balance": "0x00",
                "code": "0x3373fffffffffffffffffffffffffffffffffffffffe14604d57602036146024575f5ffd5b5f35801560495762001fff810690815414603c575f5ffd5b62001fff01545f5260205ff35b5f5ffd5b62001fff42064281555f359062001fff015500",
                "storage": {
                    "0x03e8": "0x03e8"
                }
            },
            "0x962aea7d0a0e077e3075514cae986ba883e67d22": {
                "nonce": "0x01",
                "balance": "0x05eb2f80",
                "code": "0x",
                "storage": {}
            },
            "0xfee4c7b56d8f53b8f0de49fffcdcbcb397bbb337": {
                "nonce": "0x00",
                "balance": "0x00",
                "code": "0x600a60205260206020fd00",
                "storage": {}
            },
            "0xaca169641228fdda746829ad869511c4413aea84": {
                "nonce": "0x00",
                "balance": "0x03e8",
                "code": "0x604060006040600073fee4c7b56d8f53b8f0de49fffcdcbcb397bbb33761c350f46000553d60015560206000603f3e603f5160025500",
                "storage": {
                    "0x01": "0x20",
                    "0x02": "0x0a"
                }
            }
        },
        "lastblockhash": "0xd447429a0b1ed452b2440631bf70dbbc2496c6f662f32de7f072e03246acd8d0",
        "config": {
            "network": "Cancun",
            "chainid": "0x01",
            "blobSchedule": {
                "Cancun": {
                    "target": "0x03",
                    "max": "0x06",
                    "baseFeeUpdateFraction": "0x32f0ed"
                }
            }
        },
        "genesisRLP": "0xf9023bf90235a00000000000000000000000000000000000000000000000000000000000000000a01dcc4de8dec75d7aab85b567b6ccd41ad312451b948a7413f0a142fd40d49347940000000000000000000000000000000000000000a032792d08d77ba19a53393f2f7c3843175ce88b80619e4297369933dc19b42255a056e81f171bcc55a6ff8345e692c0f86e5b48e01b996cadc001622fb5e363b421a056e81f171bcc55a6ff8345e692c0f86e5b48e01b996cadc001622fb5e363b421b90100000000000000000000000000000000000000000000000000000000000000000000000000000000000000000000000000000000000000000000000000000000000000000000000000000000000000000000000000000000000000000000000000000000000000000000000000000000000000000000000000000000000000000000000000000000000000000000000000000000000000000000000000000000000000000000000000000000000000000000000000000000000000000000000000000000000000000000000000000000000000000000000000000000000000000000000000000000000000000000000000000000000000000000000000000000008080830f4240808000a000000000000000000000000000000000000000000000000000000000000000008800000000000000000ba056e81f171bcc55a6ff8345e692c0f86e5b48e01b996cadc001622fb5e363b4218080a00000000000000000000000000000000000000000000000000000000000000000c0c0c0",
        "blocks": [
            {
                "blockHeader": {
                    "parentHash": "0x777a1cd84f132517254959667df87c0b0f175a41e6be15c6ce8bc7d7b3588691",
                    "uncleHash": "0x1dcc4de8dec75d7aab85b567b6ccd41ad312451b948a7413f0a142fd40d49347",
                    "coinbase": "0x2adc25665018aa1fe0e6bc666dac8fc2697ff9ba",
                    "stateRoot": "0xb9418fb3167b3a7a6742997b21f83fd1de23502e8a2619c7deff5b3f77e2d790",
                    "transactionsTrie": "0xb965c68bd929f8637d6306c75917fd4c84db8db4569499e4816e7f2d3104f765",
                    "receiptTrie": "0xd537fc6a9c011399ba9edcbf12e2b35e6a881934c40b7e9e49e6bb66a01c5f9b",
                    "bloom": "0x00000000000000000000000000000000000000000000000000000000000000000000000000000000000000000000000000000000000000000000000000000000000000000000000000000000000000000000000000000000000000000000000000000000000000000000000000000000000000000000000000000000000000000000000000000000000000000000000000000000000000000000000000000000000000000000000000000000000000000000000000000000000000000000000000000000000000000000000000000000000000000000000000000000000000000000000000000000000000000000000000000000000000000000000000000000",
                    "difficulty": "0x00",
                    "number": "0x01",
                    "gasLimit": "0x0f4240",
                    "gasUsed": "0x0111c0",
                    "timestamp": "0x03e8",
                    "extraData": "0x00",
                    "mixHash": "0x0000000000000000000000000000000000000000000000000000000000020000",
                    "nonce": "0x0000000000000000",
                    "baseFeePerGas": "0x0a",
                    "withdrawalsRoot": "0x56e81f171bcc55a6ff8345e692c0f86e5b48e01b996cadc001622fb5e363b421",
                    "blobGasUsed": "0x00",
                    "excessBlobGas": "0x00",
                    "parentBeaconBlockRoot": "0x0000000000000000000000000000000000000000000000000000000000000000",
                    "hash": "0xd447429a0b1ed452b2440631bf70dbbc2496c6f662f32de7f072e03246acd8d0"
                },
                "transactions": [
                    {
                        "type": "0x00",
                        "chainId": "0x01",
                        "nonce": "0x00",
                        "gasPrice": "0x0a",
                        "gasLimit": "0x019a54",
                        "to": "0xaca169641228fdda746829ad869511c4413aea84",
                        "value": "0x00",
                        "data": "0x",
                        "v": "0x25",
                        "r": "0xaa077b55dc3c685fc81a9cc0157be508f9a80ab6b5ad26e8add82574a3fd8199",
                        "s": "0x497da6c681e3e382454468655e22d3611e6e824c8bd6ff951f74c80ff86817c0",
                        "sender": "0x962aea7d0a0e077e3075514cae986ba883e67d22"
                    }
                ],
                "uncleHeaders": [],
                "withdrawals": [],
                "receipts": [
                    {
                        "transactionHash": "0x4b92fa467825e8931a0454721f783cd646d7b0ef0238e604a9814fa85354a397",
                        "type": "0x00",
                        "cumulativeGasUsed": "0x0111c0",
                        "bloom": "0x00000000000000000000000000000000000000000000000000000000000000000000000000000000000000000000000000000000000000000000000000000000000000000000000000000000000000000000000000000000000000000000000000000000000000000000000000000000000000000000000000000000000000000000000000000000000000000000000000000000000000000000000000000000000000000000000000000000000000000000000000000000000000000000000000000000000000000000000000000000000000000000000000000000000000000000000000000000000000000000000000000000000000000000000000000000",
                        "logs": [],
                        "status": true,
                        "rlp": "0xf9010901830111c0b9010000000000000000000000000000000000000000000000000000000000000000000000000000000000000000000000000000000000000000000000000000000000000000000000000000000000000000000000000000000000000000000000000000000000000000000000000000000000000000000000000000000000000000000000000000000000000000000000000000000000000000000000000000000000000000000000000000000000000000000000000000000000000000000000000000000000000000000000000000000000000000000000000000000000000000000000000000000000000000000000000000000000000000000000000000000000c0"
                    }
                ],
                "rlp": "0xf902a3f9023aa0777a1cd84f132517254959667df87c0b0f175a41e6be15c6ce8bc7d7b3588691a01dcc4de8dec75d7aab85b567b6ccd41ad312451b948a7413f0a142fd40d49347942adc25665018aa1fe0e6bc666dac8fc2697ff9baa0b9418fb3167b3a7a6742997b21f83fd1de23502e8a2619c7deff5b3f77e2d790a0b965c68bd929f8637d6306c75917fd4c84db8db4569499e4816e7f2d3104f765a0d537fc6a9c011399ba9edcbf12e2b35e6a881934c40b7e9e49e6bb66a01c5f9bb90100000000000000000000000000000000000000000000000000000000000000000000000000000000000000000000000000000000000000000000000000000000000000000000000000000000000000000000000000000000000000000000000000000000000000000000000000000000000000000000000000000000000000000000000000000000000000000000000000000000000000000000000000000000000000000000000000000000000000000000000000000000000000000000000000000000000000000000000000000000000000000000000000000000000000000000000000000000000000000000000000000000000000000000000000000000008001830f4240830111c08203e800a000000000000000000000000000000000000000000000000000000000000200008800000000000000000aa056e81f171bcc55a6ff8345e692c0f86e5b48e01b996cadc001622fb5e363b4218080a00000000000000000000000000000000000000000000000000000000000000000f862f860800a83019a5494aca169641228fdda746829ad869511c4413aea84808025a0aa077b55dc3c685fc81a9cc0157be508f9a80ab6b5ad26e8add82574a3fd8199a0497da6c681e3e382454468655e22d3611e6e824c8bd6ff951f74c80ff86817c0c0c0",
                "blocknumber": "1"
            }
        ],
        "sealEngine": "NoProof",
        "_info": {
            "hash": "0xcfb7f03a79dc96c8f4d8cf22da29ce81502a60ad7ed0f98c5d7b6ec52a2f8856",
            "fixture-format": "blockchain_test",
            "comment": "`execution-specs` generated test",
            "filling-transition-tool": "2.19.0",
            "description": "Test_revert_in_delegate_call.",
            "url": "https://github.com/ethereum/execution-specs/blob/tests-snobal-devnet-5@v8037.0.0/tests/ported_static/stRevertTest/test_revert_in_delegate_call.py#L26",
            "metadata": {
                "opcode_count": {}
            }
        }
    }
}