{
    "tests/ported_static/stRevertTest/test_revert_in_delegate_call.py::test_revert_in_delegate_call[fork_Cancun-blockchain_test_from_state_test]": {
        "network": "Cancun",
        "genesisBlockHeader": {
            "parentHash": "0x0000000000000000000000000000000000000000000000000000000000000000",
            "uncleHash": "0x1dcc4de8dec75d7aab85b567b6ccd41ad312451b948a7413f0a142fd40d49347",
            "coinbase": "0x0000000000000000000000000000000000000000",
            "stateRoot": "0xdd7921e779cdad1c55cb15c45000b944d4d3e83268cdf9761643f4570ed0a321",
            "transactionsTrie": "0x56e81f171bcc55a6ff8345e692c0f86e5b48e01b996cadc001622fb5e363b421",
            "receiptTrie": "0x56e81f171bcc55a6ff8345e692c0f86e5b48e01b996cadc001622fb5e363b421",
            "bloom": "0x00000000000000000000000000000000000000000000000000000000000000000000000000000000000000000000000000000000000000000000000000000000000000000000000000000000000000000000000000000000000000000000000000000000000000000000000000000000000000000000000000000000000000000000000000000000000000000000000000000000000000000000000000000000000000000000000000000000000000000000000000000000000000000000000000000000000000000000000000000000000000000000000000000000000000000000000000000000000000000000000000000000000000000000000000000000",
            "difficulty": "0x00",
            "number": "0x00",
            "gasLimit": "0x0f4240",
            "gasUsed": "0x00",
            "timestamp": "0x00",
            "extraData": "0x00",
            "mixHash": "0x0000000000000000000000000000000000000000000000000000000000000000",
            "nonce": "0x0000000000000000",
            "baseFeePerGas": "0x0b",
            "withdrawalsRoot": "0x56e81f171bcc55a6ff8345e692c0f86e5b48e01b996cadc001622fb5e363b421",
            "blobGasUsed": "0x00",
            "excessBlobGas": "0x00",
            "parentBeaconBlockRoot": "0x0000000000000000000000000000000000000000000000000000000000000000",
            "hash": "0x954471a54dbc754d5cc5b36787431e433b1a70000ef0794d9c5c6d2cbfc9f246"
        },
        "pre": {
            "0x000f3df6d732807ef1319fb7b8bb8522d0beac02": {
                "nonce": "0x01",
                "balance": "0x00",
                "code": "0x3373fffffffffffffffffffffffffffffffffffffffe14604d57602036146024575f5ffd5b5f35801560495762001fff810690815414603c575f5ffd5b62001fff01545f5260205ff35b5f5ffd5b62001fff42064281555f359062001fff015500",
                "storage": {}
            },
            "0x23ea33dc3aa11f5a1da3643bb13956382b9b6767": {
                "nonce": "0x00",
                "balance": "0x03e8",
                "code": "0x604060006040600073c3ecfe24c185ad3c946ebff4624131e8af5220a261c350f46000553d60015560206000603f3e603f5160025500",
                "storage": {}
            },
            "0xc3ecfe24c185ad3c946ebff4624131e8af5220a2": {
                "nonce": "0x00",
                "balance": "0x00",
                "code": "0x600a60205260206020fd00",
                "storage": {}
            },
            "0x7f3f285918d9b5e764174551e10b7539b97bbb27": {
                "nonce": "0x00",
                "balance": "0x05f5e100",
                "code": "0x",
                "storage": {}
            }
        },
        "postState": {
            "0x000f3df6d732807ef1319fb7b8bb8522d0beac02": {
                "nonce": "0x01",
                "balance": "0x00",
                "code": "0x3373fffffffffffffffffffffffffffffffffffffffe14604d57602036146024575f5ffd5b5f35801560495762001fff810690815414603c575f5ffd5b62001fff01545f5260205ff35b5f5ffd5b62001fff42064281555f359062001fff015500",
                "storage": {
                    "0x03e8": "0x03e8"
                }
            },
            "0x23ea33dc3aa11f5a1da3643bb13956382b9b6767": {
                "nonce": "0x00",
                "balance": "0x03e8",
                "code": "0x604060006040600073c3ecfe24c185ad3c946ebff4624131e8af5220a261c350f46000553d60015560206000603f3e603f5160025500",
                "storage": {
                    "0x01": "0x20",
                    "0x02": "0x0a"
                }
            },
            "0xc3ecfe24c185ad3c946ebff4624131e8af5220a2": {
                "nonce": "0x00",
                "balance": "0x00",
                "code": "0x600a60205260206020fd00",
                "storage": {}
            },
            "0x7f3f285918d9b5e764174551e10b7539b97bbb27": {
                "nonce": "0x01",
                "balance": "0x05eb2f80",
                "code": "0x",
                "storage": {}
            }
        },
        "lastblockhash": "0x767d797cdceb91d523a8fc335f11267624cdeb7ff4db184517967964eb0f0fd9",
        "config": {
            "network": "Cancun",
            "chainid": "0x01",
            "blobSchedule": {
                "Cancun": {
                    "target": "0x03",
                    "max": "0x06",
                    "baseFeeUpdateFraction": "0x32f0ed"
                }
            }
        },
        "genesisRLP": "0xf9023bf90235a00000000000000000000000000000000000000000000000000000000000000000a01dcc4de8dec75d7aab85b567b6ccd41ad312451b948a7413f0a142fd40d49347940000000000000000000000000000000000000000a0dd7921e779cdad1c55cb15c45000b944d4d3e83268cdf9761643f4570ed0a321a056e81f171bcc55a6ff8345e692c0f86e5b48e01b996cadc001622fb5e363b421a056e81f171bcc55a6ff8345e692c0f86e5b48e01b996cadc001622fb5e363b421b90100000000000000000000000000000000000000000000000000000000000000000000000000000000000000000000000000000000000000000000000000000000000000000000000000000000000000000000000000000000000000000000000000000000000000000000000000000000000000000000000000000000000000000000000000000000000000000000000000000000000000000000000000000000000000000000000000000000000000000000000000000000000000000000000000000000000000000000000000000000000000000000000000000000000000000000000000000000000000000000000000000000000000000000000000000000008080830f4240808000a000000000000000000000000000000000000000000000000000000000000000008800000000000000000ba056e81f171bcc55a6ff8345e692c0f86e5b48e01b996cadc001622fb5e363b4218080a00000000000000000000000000000000000000000000000000000000000000000c0c0c0",
        "blocks": [
            {
                "blockHeader": {
                    "parentHash": "0x954471a54dbc754d5cc5b36787431e433b1a70000ef0794d9c5c6d2cbfc9f246",
                    "uncleHash": "0x1dcc4de8dec75d7aab85b567b6ccd41ad312451b948a7413f0a142fd40d49347",
                    "coinbase": "0x2adc25665018aa1fe0e6bc666dac8fc2697ff9ba",
                    "stateRoot": "0xc3e4d94509f308103b35bd49c1ad01ed567cd6f784e3a2c2070ede0fa9d9e1b7",
                    "transactionsTrie": "0xb11188760b8bb8444fddf479db0c5311b57abd11cd041cc7f72fce004ee24af3",
                    "receiptTrie": "0xd537fc6a9c011399ba9edcbf12e2b35e6a881934c40b7e9e49e6bb66a01c5f9b",
                    "bloom": "0x00000000000000000000000000000000000000000000000000000000000000000000000000000000000000000000000000000000000000000000000000000000000000000000000000000000000000000000000000000000000000000000000000000000000000000000000000000000000000000000000000000000000000000000000000000000000000000000000000000000000000000000000000000000000000000000000000000000000000000000000000000000000000000000000000000000000000000000000000000000000000000000000000000000000000000000000000000000000000000000000000000000000000000000000000000000",
                    "difficulty": "0x00",
                    "number": "0x01",
                    "gasLimit": "0x0f4240",
                    "gasUsed": "0x0111c0",
                    "timestamp": "0x03e8",
                    "extraData": "0x00",
                    "mixHash": "0x0000000000000000000000000000000000000000000000000000000000020000",
                    "nonce": "0x0000000000000000",
                    "baseFeePerGas": "0x0a",
                    "withdrawalsRoot": "0x56e81f171bcc55a6ff8345e692c0f86e5b48e01b996cadc001622fb5e363b421",
                    "blobGasUsed": "0x00",
                    "excessBlobGas": "0x00",
                    "parentBeaconBlockRoot": "0x0000000000000000000000000000000000000000000000000000000000000000",
                    "hash": "0x767d797cdceb91d523a8fc335f11267624cdeb7ff4db184517967964eb0f0fd9"
                },
                "transactions": [
                    {
                        "type": "0x00",
                        "chainId": "0x01",
                        "nonce": "0x00",
                        "gasPrice": "0x0a",
                        "gasLimit": "0x019a54",
                        "to": "0x23ea33dc3aa11f5a1da3643bb13956382b9b6767",
                        "value": "0x00",
                        "data": "0x",
                        "v": "0x26",
                        "r": "0x153d7ab3b2752b08817ec4525ffc007459fc51cff587ce524245b934c6d192fe",
                        "s": "0x705c5628fb14e5b171459327de2a62cc70199ec3f067f8426f537cc2c404cd1e",
                        "sender": "0x7f3f285918d9b5e764174551e10b7539b97bbb27"
                    }
                ],
                "uncleHeaders": [],
                "withdrawals": [],
                "receipts": [
                    {
                        "transactionHash": "0xefefb044237fb6d409c88284dfd305de6336efd1ff1669a480c4b1d6ee29fdf9",
                        "type": "0x00",
                        "cumulativeGasUsed": "0x0111c0",
                        "bloom": "0x00000000000000000000000000000000000000000000000000000000000000000000000000000000000000000000000000000000000000000000000000000000000000000000000000000000000000000000000000000000000000000000000000000000000000000000000000000000000000000000000000000000000000000000000000000000000000000000000000000000000000000000000000000000000000000000000000000000000000000000000000000000000000000000000000000000000000000000000000000000000000000000000000000000000000000000000000000000000000000000000000000000000000000000000000000000",
                        "logs": [],
                        "status": true,
                        "rlp": "0xf9010901830111c0b9010000000000000000000000000000000000000000000000000000000000000000000000000000000000000000000000000000000000000000000000000000000000000000000000000000000000000000000000000000000000000000000000000000000000000000000000000000000000000000000000000000000000000000000000000000000000000000000000000000000000000000000000000000000000000000000000000000000000000000000000000000000000000000000000000000000000000000000000000000000000000000000000000000000000000000000000000000000000000000000000000000000000000000000000000000000000c0"
                    }
                ],
                "rlp": "0xf902a3f9023aa0954471a54dbc754d5cc5b36787431e433b1a70000ef0794d9c5c6d2cbfc9f246a01dcc4de8dec75d7aab85b567b6ccd41ad312451b948a7413f0a142fd40d49347942adc25665018aa1fe0e6bc666dac8fc2697ff9baa0c3e4d94509f308103b35bd49c1ad01ed567cd6f784e3a2c2070ede0fa9d9e1b7a0b11188760b8bb8444fddf479db0c5311b57abd11cd041cc7f72fce004ee24af3a0d537fc6a9c011399ba9edcbf12e2b35e6a881934c40b7e9e49e6bb66a01c5f9bb90100000000000000000000000000000000000000000000000000000000000000000000000000000000000000000000000000000000000000000000000000000000000000000000000000000000000000000000000000000000000000000000000000000000000000000000000000000000000000000000000000000000000000000000000000000000000000000000000000000000000000000000000000000000000000000000000000000000000000000000000000000000000000000000000000000000000000000000000000000000000000000000000000000000000000000000000000000000000000000000000000000000000000000000000000000000008001830f4240830111c08203e800a000000000000000000000000000000000000000000000000000000000000200008800000000000000000aa056e81f171bcc55a6ff8345e692c0f86e5b48e01b996cadc001622fb5e363b4218080a00000000000000000000000000000000000000000000000000000000000000000f862f860800a83019a549423ea33dc3aa11f5a1da3643bb13956382b9b6767808026a0153d7ab3b2752b08817ec4525ffc007459fc51cff587ce524245b934c6d192fea0705c5628fb14e5b171459327de2a62cc70199ec3f067f8426f537cc2c404cd1ec0c0",
                "blocknumber": "1"
            }
        ],
        "sealEngine": "NoProof",
        "_info": {
            "hash": "0x96bb01c290e5d1c891ad43f7bd99fa23da43f9541881e1fd79f04cbc811d9aae",
            "fixture-format": "blockchain_test",
            "comment": "`execution-specs` generated test",
            "filling-transition-tool": "2.19.0",
            "description": "Test_revert_in_delegate_call.",
            "url": "https://github.com/ethereum/execution-specs/blob/tests-bal@v5.7.0/tests/ported_static/stRevertTest/test_revert_in_delegate_call.py#L27",
            "metadata": {
                "opcode_count": {}
            }
        }
    }
}