{
    "tests/ported_static/stRevertTest/test_revert_opcode_direct_call.py::test_revert_opcode_direct_call[fork_Cancun-blockchain_test_from_state_test--g0]": {
        "network": "Cancun",
        "genesisBlockHeader": {
            "parentHash": "0x0000000000000000000000000000000000000000000000000000000000000000",
            "uncleHash": "0x1dcc4de8dec75d7aab85b567b6ccd41ad312451b948a7413f0a142fd40d49347",
            "coinbase": "0x0000000000000000000000000000000000000000",
            "stateRoot": "0xe329cfa673a0ee91c626c3ce6959b8e2e7d15feeec9fe6a3ec0fe297055c6e48",
            "transactionsTrie": "0x56e81f171bcc55a6ff8345e692c0f86e5b48e01b996cadc001622fb5e363b421",
            "receiptTrie": "0x56e81f171bcc55a6ff8345e692c0f86e5b48e01b996cadc001622fb5e363b421",
            "bloom": "0x00000000000000000000000000000000000000000000000000000000000000000000000000000000000000000000000000000000000000000000000000000000000000000000000000000000000000000000000000000000000000000000000000000000000000000000000000000000000000000000000000000000000000000000000000000000000000000000000000000000000000000000000000000000000000000000000000000000000000000000000000000000000000000000000000000000000000000000000000000000000000000000000000000000000000000000000000000000000000000000000000000000000000000000000000000000",
            "difficulty": "0x00",
            "number": "0x00",
            "gasLimit": "0x989680",
            "gasUsed": "0x00",
            "timestamp": "0x00",
            "extraData": "0x00",
            "mixHash": "0x0000000000000000000000000000000000000000000000000000000000000000",
            "nonce": "0x0000000000000000",
            "baseFeePerGas": "0x0b",
            "withdrawalsRoot": "0x56e81f171bcc55a6ff8345e692c0f86e5b48e01b996cadc001622fb5e363b421",
            "blobGasUsed": "0x00",
            "excessBlobGas": "0x00",
            "parentBeaconBlockRoot": "0x0000000000000000000000000000000000000000000000000000000000000000",
            "hash": "0xdb4c1996e5480caf93f062504e79977c3db65450a5e38c90860ec2bcc40a311f"
        },
        "pre": {
            "0x000f3df6d732807ef1319fb7b8bb8522d0beac02": {
                "nonce": "0x01",
                "balance": "0x00",
                "code": "0x3373fffffffffffffffffffffffffffffffffffffffe14604d57602036146024575f5ffd5b5f35801560495762001fff810690815414603c575f5ffd5b62001fff01545f5260205ff35b5f5ffd5b62001fff42064281555f359062001fff015500",
                "storage": {}
            },
            "0xfaa10b404ab607779993c016cd5da73ae1f29d7e": {
                "nonce": "0x00",
                "balance": "0xe8d4a51000",
                "code": "0x",
                "storage": {}
            },
            "0xf94d87faf19d8c731e70e1b0a25f9668718f6e17": {
                "nonce": "0x00",
                "balance": "0x01",
                "code": "0x6000600060006000600060003561ea60f1600a5500",
                "storage": {}
            },
            "0xceb48d108c874b5b014acdd1a2466d65a3d01de6": {
                "nonce": "0x00",
                "balance": "0x01",
                "code": "0x600060006000600060007393a599bde9a3b6390afdb06952aa5ec0b8c44f3b61c350f1600055600e60025500",
                "storage": {}
            },
            "0x93a599bde9a3b6390afdb06952aa5ec0b8c44f3b": {
                "nonce": "0x00",
                "balance": "0x01",
                "code": "0x600c60015560016000fd600d60035500",
                "storage": {}
            }
        },
        "postState": {
            "0x000f3df6d732807ef1319fb7b8bb8522d0beac02": {
                "nonce": "0x01",
                "balance": "0x00",
                "code": "0x3373fffffffffffffffffffffffffffffffffffffffe14604d57602036146024575f5ffd5b5f35801560495762001fff810690815414603c575f5ffd5b62001fff01545f5260205ff35b5f5ffd5b62001fff42064281555f359062001fff015500",
                "storage": {
                    "0x03e8": "0x03e8"
                }
            },
            "0xfaa10b404ab607779993c016cd5da73ae1f29d7e": {
                "nonce": "0x01",
                "balance": "0xe8d49a517e",
                "code": "0x",
                "storage": {}
            },
            "0xf94d87faf19d8c731e70e1b0a25f9668718f6e17": {
                "nonce": "0x00",
                "balance": "0x01",
                "code": "0x6000600060006000600060003561ea60f1600a5500",
                "storage": {}
            },
            "0xceb48d108c874b5b014acdd1a2466d65a3d01de6": {
                "nonce": "0x00",
                "balance": "0x01",
                "code": "0x600060006000600060007393a599bde9a3b6390afdb06952aa5ec0b8c44f3b61c350f1600055600e60025500",
                "storage": {
                    "0x02": "0x0e"
                }
            },
            "0x93a599bde9a3b6390afdb06952aa5ec0b8c44f3b": {
                "nonce": "0x00",
                "balance": "0x01",
                "code": "0x600c60015560016000fd600d60035500",
                "storage": {}
            }
        },
        "lastblockhash": "0xa839489fe1c98ecb55ffffd6b9f773d748b8f1f527cd9fa0fac287f13d7d5cfa",
        "config": {
            "network": "Cancun",
            "chainid": "0x01",
            "blobSchedule": {
                "Cancun": {
                    "target": "0x03",
                    "max": "0x06",
                    "baseFeeUpdateFraction": "0x32f0ed"
                }
            }
        },
        "genesisRLP": "0xf9023bf90235a00000000000000000000000000000000000000000000000000000000000000000a01dcc4de8dec75d7aab85b567b6ccd41ad312451b948a7413f0a142fd40d49347940000000000000000000000000000000000000000a0e329cfa673a0ee91c626c3ce6959b8e2e7d15feeec9fe6a3ec0fe297055c6e48a056e81f171bcc55a6ff8345e692c0f86e5b48e01b996cadc001622fb5e363b421a056e81f171bcc55a6ff8345e692c0f86e5b48e01b996cadc001622fb5e363b421b9010000000000000000000000000000000000000000000000000000000000000000000000000000000000000000000000000000000000000000000000000000000000000000000000000000000000000000000000000000000000000000000000000000000000000000000000000000000000000000000000000000000000000000000000000000000000000000000000000000000000000000000000000000000000000000000000000000000000000000000000000000000000000000000000000000000000000000000000000000000000000000000000000000000000000000000000000000000000000000000000000000000000000000000000000000000000808083989680808000a000000000000000000000000000000000000000000000000000000000000000008800000000000000000ba056e81f171bcc55a6ff8345e692c0f86e5b48e01b996cadc001622fb5e363b4218080a00000000000000000000000000000000000000000000000000000000000000000c0c0c0",
        "blocks": [
            {
                "blockHeader": {
                    "parentHash": "0xdb4c1996e5480caf93f062504e79977c3db65450a5e38c90860ec2bcc40a311f",
                    "uncleHash": "0x1dcc4de8dec75d7aab85b567b6ccd41ad312451b948a7413f0a142fd40d49347",
                    "coinbase": "0x2adc25665018aa1fe0e6bc666dac8fc2697ff9ba",
                    "stateRoot": "0xd99445e8125ee6eaf35a6bcab0978faada79f67f00264c3b00c20cd8a0f563a1",
                    "transactionsTrie": "0x3d76e576a44d1a412bd7b2159fe6053924a874a193701d8378c84278acecce08",
                    "receiptTrie": "0xa78c64c61badea76adeacc81346ef2d6d03324973533ed1087c3638533ec5f28",
                    "bloom": "0x00000000000000000000000000000000000000000000000000000000000000000000000000000000000000000000000000000000000000000000000000000000000000000000000000000000000000000000000000000000000000000000000000000000000000000000000000000000000000000000000000000000000000000000000000000000000000000000000000000000000000000000000000000000000000000000000000000000000000000000000000000000000000000000000000000000000000000000000000000000000000000000000000000000000000000000000000000000000000000000000000000000000000000000000000000000",
                    "difficulty": "0x00",
                    "number": "0x01",
                    "gasLimit": "0x989680",
                    "gasUsed": "0x01130d",
                    "timestamp": "0x03e8",
                    "extraData": "0x00",
                    "mixHash": "0x0000000000000000000000000000000000000000000000000000000000020000",
                    "nonce": "0x0000000000000000",
                    "baseFeePerGas": "0x0a",
                    "withdrawalsRoot": "0x56e81f171bcc55a6ff8345e692c0f86e5b48e01b996cadc001622fb5e363b421",
                    "blobGasUsed": "0x00",
                    "excessBlobGas": "0x00",
                    "parentBeaconBlockRoot": "0x0000000000000000000000000000000000000000000000000000000000000000",
                    "hash": "0xa839489fe1c98ecb55ffffd6b9f773d748b8f1f527cd9fa0fac287f13d7d5cfa"
                },
                "transactions": [
                    {
                        "type": "0x00",
                        "chainId": "0x01",
                        "nonce": "0x00",
                        "gasPrice": "0x0a",
                        "gasLimit": "0x0704e0",
                        "to": "0xceb48d108c874b5b014acdd1a2466d65a3d01de6",
                        "value": "0x00",
                        "data": "0x000000000000000000000000ceb48d108c874b5b014acdd1a2466d65a3d01de6",
                        "v": "0x25",
                        "r": "0x63346af5d459a30e46a89f25fa7ba0725d3e7a3be4fca5dabbf310941b1a35d0",
                        "s": "0x536339d745d27c616092c2f0443ef5f9aa6628bdae3a899e8b533c55a3a34334",
                        "sender": "0xfaa10b404ab607779993c016cd5da73ae1f29d7e"
                    }
                ],
                "uncleHeaders": [],
                "withdrawals": [],
                "receipts": [
                    {
                        "transactionHash": "0x001c455af08646e15e10d217493981cf27a015d7fc0dce7a342f5e8f1b86c2af",
                        "type": "0x00",
                        "cumulativeGasUsed": "0x01130d",
                        "bloom": "0x00000000000000000000000000000000000000000000000000000000000000000000000000000000000000000000000000000000000000000000000000000000000000000000000000000000000000000000000000000000000000000000000000000000000000000000000000000000000000000000000000000000000000000000000000000000000000000000000000000000000000000000000000000000000000000000000000000000000000000000000000000000000000000000000000000000000000000000000000000000000000000000000000000000000000000000000000000000000000000000000000000000000000000000000000000000",
                        "logs": [],
                        "status": true,
                        "rlp": "0xf90109018301130db9010000000000000000000000000000000000000000000000000000000000000000000000000000000000000000000000000000000000000000000000000000000000000000000000000000000000000000000000000000000000000000000000000000000000000000000000000000000000000000000000000000000000000000000000000000000000000000000000000000000000000000000000000000000000000000000000000000000000000000000000000000000000000000000000000000000000000000000000000000000000000000000000000000000000000000000000000000000000000000000000000000000000000000000000000000000000c0"
                    }
                ],
                "rlp": "0xf902c3f9023aa0db4c1996e5480caf93f062504e79977c3db65450a5e38c90860ec2bcc40a311fa01dcc4de8dec75d7aab85b567b6ccd41ad312451b948a7413f0a142fd40d49347942adc25665018aa1fe0e6bc666dac8fc2697ff9baa0d99445e8125ee6eaf35a6bcab0978faada79f67f00264c3b00c20cd8a0f563a1a03d76e576a44d1a412bd7b2159fe6053924a874a193701d8378c84278acecce08a0a78c64c61badea76adeacc81346ef2d6d03324973533ed1087c3638533ec5f28b90100000000000000000000000000000000000000000000000000000000000000000000000000000000000000000000000000000000000000000000000000000000000000000000000000000000000000000000000000000000000000000000000000000000000000000000000000000000000000000000000000000000000000000000000000000000000000000000000000000000000000000000000000000000000000000000000000000000000000000000000000000000000000000000000000000000000000000000000000000000000000000000000000000000000000000000000000000000000000000000000000000000000000000000000000000000008001839896808301130d8203e800a000000000000000000000000000000000000000000000000000000000000200008800000000000000000aa056e81f171bcc55a6ff8345e692c0f86e5b48e01b996cadc001622fb5e363b4218080a00000000000000000000000000000000000000000000000000000000000000000f882f880800a830704e094ceb48d108c874b5b014acdd1a2466d65a3d01de680a0000000000000000000000000ceb48d108c874b5b014acdd1a2466d65a3d01de625a063346af5d459a30e46a89f25fa7ba0725d3e7a3be4fca5dabbf310941b1a35d0a0536339d745d27c616092c2f0443ef5f9aa6628bdae3a899e8b533c55a3a34334c0c0",
                "blocknumber": "1"
            }
        ],
        "sealEngine": "NoProof",
        "_info": {
            "hash": "0x2e6e6aa0618e7d19830e8399bb87002fae8c9102832a177181d0ff090cf6091d",
            "fixture-format": "blockchain_test",
            "comment": "`execution-specs` generated test",
            "filling-transition-tool": "2.19.0",
            "description": "Test_revert_opcode_direct_call.",
            "url": "https://github.com/ethereum/execution-specs/blob/tests-bal@v5.6.0/tests/ported_static/stRevertTest/test_revert_opcode_direct_call.py#L29",
            "metadata": {
                "opcode_count": {}
            }
        }
    },
    "tests/ported_static/stRevertTest/test_revert_opcode_direct_call.py::test_revert_opcode_direct_call[fork_Cancun-blockchain_test_from_state_test--g1]": {
        "network": "Cancun",
        "genesisBlockHeader": {
            "parentHash": "0x0000000000000000000000000000000000000000000000000000000000000000",
            "uncleHash": "0x1dcc4de8dec75d7aab85b567b6ccd41ad312451b948a7413f0a142fd40d49347",
            "coinbase": "0x0000000000000000000000000000000000000000",
            "stateRoot": "0xe329cfa673a0ee91c626c3ce6959b8e2e7d15feeec9fe6a3ec0fe297055c6e48",
            "transactionsTrie": "0x56e81f171bcc55a6ff8345e692c0f86e5b48e01b996cadc001622fb5e363b421",
            "receiptTrie": "0x56e81f171bcc55a6ff8345e692c0f86e5b48e01b996cadc001622fb5e363b421",
            "bloom": "0x00000000000000000000000000000000000000000000000000000000000000000000000000000000000000000000000000000000000000000000000000000000000000000000000000000000000000000000000000000000000000000000000000000000000000000000000000000000000000000000000000000000000000000000000000000000000000000000000000000000000000000000000000000000000000000000000000000000000000000000000000000000000000000000000000000000000000000000000000000000000000000000000000000000000000000000000000000000000000000000000000000000000000000000000000000000",
            "difficulty": "0x00",
            "number": "0x00",
            "gasLimit": "0x989680",
            "gasUsed": "0x00",
            "timestamp": "0x00",
            "extraData": "0x00",
            "mixHash": "0x0000000000000000000000000000000000000000000000000000000000000000",
            "nonce": "0x0000000000000000",
            "baseFeePerGas": "0x0b",
            "withdrawalsRoot": "0x56e81f171bcc55a6ff8345e692c0f86e5b48e01b996cadc001622fb5e363b421",
            "blobGasUsed": "0x00",
            "excessBlobGas": "0x00",
            "parentBeaconBlockRoot": "0x0000000000000000000000000000000000000000000000000000000000000000",
            "hash": "0xdb4c1996e5480caf93f062504e79977c3db65450a5e38c90860ec2bcc40a311f"
        },
        "pre": {
            "0x000f3df6d732807ef1319fb7b8bb8522d0beac02": {
                "nonce": "0x01",
                "balance": "0x00",
                "code": "0x3373fffffffffffffffffffffffffffffffffffffffe14604d57602036146024575f5ffd5b5f35801560495762001fff810690815414603c575f5ffd5b62001fff01545f5260205ff35b5f5ffd5b62001fff42064281555f359062001fff015500",
                "storage": {}
            },
            "0xfaa10b404ab607779993c016cd5da73ae1f29d7e": {
                "nonce": "0x00",
                "balance": "0xe8d4a51000",
                "code": "0x",
                "storage": {}
            },
            "0xf94d87faf19d8c731e70e1b0a25f9668718f6e17": {
                "nonce": "0x00",
                "balance": "0x01",
                "code": "0x6000600060006000600060003561ea60f1600a5500",
                "storage": {}
            },
            "0xceb48d108c874b5b014acdd1a2466d65a3d01de6": {
                "nonce": "0x00",
                "balance": "0x01",
                "code": "0x600060006000600060007393a599bde9a3b6390afdb06952aa5ec0b8c44f3b61c350f1600055600e60025500",
                "storage": {}
            },
            "0x93a599bde9a3b6390afdb06952aa5ec0b8c44f3b": {
                "nonce": "0x00",
                "balance": "0x01",
                "code": "0x600c60015560016000fd600d60035500",
                "storage": {}
            }
        },
        "postState": {
            "0x000f3df6d732807ef1319fb7b8bb8522d0beac02": {
                "nonce": "0x01",
                "balance": "0x00",
                "code": "0x3373fffffffffffffffffffffffffffffffffffffffe14604d57602036146024575f5ffd5b5f35801560495762001fff810690815414603c575f5ffd5b62001fff01545f5260205ff35b5f5ffd5b62001fff42064281555f359062001fff015500",
                "storage": {
                    "0x03e8": "0x03e8"
                }
            },
            "0xfaa10b404ab607779993c016cd5da73ae1f29d7e": {
                "nonce": "0x01",
                "balance": "0xe8d49b7680",
                "code": "0x",
                "storage": {}
            },
            "0xf94d87faf19d8c731e70e1b0a25f9668718f6e17": {
                "nonce": "0x00",
                "balance": "0x01",
                "code": "0x6000600060006000600060003561ea60f1600a5500",
                "storage": {}
            },
            "0xceb48d108c874b5b014acdd1a2466d65a3d01de6": {
                "nonce": "0x00",
                "balance": "0x01",
                "code": "0x600060006000600060007393a599bde9a3b6390afdb06952aa5ec0b8c44f3b61c350f1600055600e60025500",
                "storage": {}
            },
            "0x93a599bde9a3b6390afdb06952aa5ec0b8c44f3b": {
                "nonce": "0x00",
                "balance": "0x01",
                "code": "0x600c60015560016000fd600d60035500",
                "storage": {}
            }
        },
        "lastblockhash": "0xc004ff3eaa5ec4dc122c26e4d93d00421c52a6ca8d554fe5f035819b124e2b49",
        "config": {
            "network": "Cancun",
            "chainid": "0x01",
            "blobSchedule": {
                "Cancun": {
                    "target": "0x03",
                    "max": "0x06",
                    "baseFeeUpdateFraction": "0x32f0ed"
                }
            }
        },
        "genesisRLP": "0xf9023bf90235a00000000000000000000000000000000000000000000000000000000000000000a01dcc4de8dec75d7aab85b567b6ccd41ad312451b948a7413f0a142fd40d49347940000000000000000000000000000000000000000a0e329cfa673a0ee91c626c3ce6959b8e2e7d15feeec9fe6a3ec0fe297055c6e48a056e81f171bcc55a6ff8345e692c0f86e5b48e01b996cadc001622fb5e363b421a056e81f171bcc55a6ff8345e692c0f86e5b48e01b996cadc001622fb5e363b421b9010000000000000000000000000000000000000000000000000000000000000000000000000000000000000000000000000000000000000000000000000000000000000000000000000000000000000000000000000000000000000000000000000000000000000000000000000000000000000000000000000000000000000000000000000000000000000000000000000000000000000000000000000000000000000000000000000000000000000000000000000000000000000000000000000000000000000000000000000000000000000000000000000000000000000000000000000000000000000000000000000000000000000000000000000000000000808083989680808000a000000000000000000000000000000000000000000000000000000000000000008800000000000000000ba056e81f171bcc55a6ff8345e692c0f86e5b48e01b996cadc001622fb5e363b4218080a00000000000000000000000000000000000000000000000000000000000000000c0c0c0",
        "blocks": [
            {
                "blockHeader": {
                    "parentHash": "0xdb4c1996e5480caf93f062504e79977c3db65450a5e38c90860ec2bcc40a311f",
                    "uncleHash": "0x1dcc4de8dec75d7aab85b567b6ccd41ad312451b948a7413f0a142fd40d49347",
                    "coinbase": "0x2adc25665018aa1fe0e6bc666dac8fc2697ff9ba",
                    "stateRoot": "0x367aa0ccb1d8a396e3dd51d2aabe9a22ed17368bbad982425108207e6e2a4a1e",
                    "transactionsTrie": "0xbf91166daf393bf00d812a6f44beb21fb12088137abaa4e0ab24b54521bf2214",
                    "receiptTrie": "0x9f309903a817010c41da66772cd5e1af75f90f295b5e6d725b9bae2d295b4fc0",
                    "bloom": "0x00000000000000000000000000000000000000000000000000000000000000000000000000000000000000000000000000000000000000000000000000000000000000000000000000000000000000000000000000000000000000000000000000000000000000000000000000000000000000000000000000000000000000000000000000000000000000000000000000000000000000000000000000000000000000000000000000000000000000000000000000000000000000000000000000000000000000000000000000000000000000000000000000000000000000000000000000000000000000000000000000000000000000000000000000000000",
                    "difficulty": "0x00",
                    "number": "0x01",
                    "gasLimit": "0x989680",
                    "gasUsed": "0xf5c0",
                    "timestamp": "0x03e8",
                    "extraData": "0x00",
                    "mixHash": "0x0000000000000000000000000000000000000000000000000000000000020000",
                    "nonce": "0x0000000000000000",
                    "baseFeePerGas": "0x0a",
                    "withdrawalsRoot": "0x56e81f171bcc55a6ff8345e692c0f86e5b48e01b996cadc001622fb5e363b421",
                    "blobGasUsed": "0x00",
                    "excessBlobGas": "0x00",
                    "parentBeaconBlockRoot": "0x0000000000000000000000000000000000000000000000000000000000000000",
                    "hash": "0xc004ff3eaa5ec4dc122c26e4d93d00421c52a6ca8d554fe5f035819b124e2b49"
                },
                "transactions": [
                    {
                        "type": "0x00",
                        "chainId": "0x01",
                        "nonce": "0x00",
                        "gasPrice": "0x0a",
                        "gasLimit": "0xf5c0",
                        "to": "0xceb48d108c874b5b014acdd1a2466d65a3d01de6",
                        "value": "0x00",
                        "data": "0x000000000000000000000000ceb48d108c874b5b014acdd1a2466d65a3d01de6",
                        "v": "0x25",
                        "r": "0x311f00c63da05eee9363fc17156fcad7748f29d904ce75e56e47285809bb7e5f",
                        "s": "0x2232d62afa2ba9c04cc20d57a0c8a3007ebf1a80880f8e34489464fbfdc3037c",
                        "sender": "0xfaa10b404ab607779993c016cd5da73ae1f29d7e"
                    }
                ],
                "uncleHeaders": [],
                "withdrawals": [],
                "receipts": [
                    {
                        "transactionHash": "0xb42d614f97c758da0df88f07a351a7305ef931b3966e06321f8012895e5080df",
                        "type": "0x00",
                        "cumulativeGasUsed": "0xf5c0",
                        "bloom": "0x00000000000000000000000000000000000000000000000000000000000000000000000000000000000000000000000000000000000000000000000000000000000000000000000000000000000000000000000000000000000000000000000000000000000000000000000000000000000000000000000000000000000000000000000000000000000000000000000000000000000000000000000000000000000000000000000000000000000000000000000000000000000000000000000000000000000000000000000000000000000000000000000000000000000000000000000000000000000000000000000000000000000000000000000000000000",
                        "logs": [],
                        "status": false,
                        "rlp": "0xf901088082f5c0b9010000000000000000000000000000000000000000000000000000000000000000000000000000000000000000000000000000000000000000000000000000000000000000000000000000000000000000000000000000000000000000000000000000000000000000000000000000000000000000000000000000000000000000000000000000000000000000000000000000000000000000000000000000000000000000000000000000000000000000000000000000000000000000000000000000000000000000000000000000000000000000000000000000000000000000000000000000000000000000000000000000000000000000000000000000000000c0"
                    }
                ],
                "rlp": "0xf902c1f90239a0db4c1996e5480caf93f062504e79977c3db65450a5e38c90860ec2bcc40a311fa01dcc4de8dec75d7aab85b567b6ccd41ad312451b948a7413f0a142fd40d49347942adc25665018aa1fe0e6bc666dac8fc2697ff9baa0367aa0ccb1d8a396e3dd51d2aabe9a22ed17368bbad982425108207e6e2a4a1ea0bf91166daf393bf00d812a6f44beb21fb12088137abaa4e0ab24b54521bf2214a09f309903a817010c41da66772cd5e1af75f90f295b5e6d725b9bae2d295b4fc0b901000000000000000000000000000000000000000000000000000000000000000000000000000000000000000000000000000000000000000000000000000000000000000000000000000000000000000000000000000000000000000000000000000000000000000000000000000000000000000000000000000000000000000000000000000000000000000000000000000000000000000000000000000000000000000000000000000000000000000000000000000000000000000000000000000000000000000000000000000000000000000000000000000000000000000000000000000000000000000000000000000000000000000000000000000000000080018398968082f5c08203e800a000000000000000000000000000000000000000000000000000000000000200008800000000000000000aa056e81f171bcc55a6ff8345e692c0f86e5b48e01b996cadc001622fb5e363b4218080a00000000000000000000000000000000000000000000000000000000000000000f881f87f800a82f5c094ceb48d108c874b5b014acdd1a2466d65a3d01de680a0000000000000000000000000ceb48d108c874b5b014acdd1a2466d65a3d01de625a0311f00c63da05eee9363fc17156fcad7748f29d904ce75e56e47285809bb7e5fa02232d62afa2ba9c04cc20d57a0c8a3007ebf1a80880f8e34489464fbfdc3037cc0c0",
                "blocknumber": "1"
            }
        ],
        "sealEngine": "NoProof",
        "_info": {
            "hash": "0x341f8487583019bf979b11185eac7ae47add6d5e8d74cb31b004b611e9b171af",
            "fixture-format": "blockchain_test",
            "comment": "`execution-specs` generated test",
            "filling-transition-tool": "2.19.0",
            "description": "Test_revert_opcode_direct_call.",
            "url": "https://github.com/ethereum/execution-specs/blob/tests-bal@v5.6.0/tests/ported_static/stRevertTest/test_revert_opcode_direct_call.py#L29",
            "metadata": {
                "opcode_count": {}
            }
        }
    }
}