{
    "tests/cancun/eip1153_tstore/test_tstorage_execution_contexts.py::test_tstore_rollback_on_callcode_revert[fork_Cancun-blockchain_test_from_state_test]": {
        "network": "Cancun",
        "genesisBlockHeader": {
            "parentHash": "0x0000000000000000000000000000000000000000000000000000000000000000",
            "uncleHash": "0x1dcc4de8dec75d7aab85b567b6ccd41ad312451b948a7413f0a142fd40d49347",
            "coinbase": "0x0000000000000000000000000000000000000000",
            "stateRoot": "0x512c8209caed4c7cba0098a20f625635a43909ca740bcb3c9da88c98dca3071c",
            "transactionsTrie": "0x56e81f171bcc55a6ff8345e692c0f86e5b48e01b996cadc001622fb5e363b421",
            "receiptTrie": "0x56e81f171bcc55a6ff8345e692c0f86e5b48e01b996cadc001622fb5e363b421",
            "bloom": "0x00000000000000000000000000000000000000000000000000000000000000000000000000000000000000000000000000000000000000000000000000000000000000000000000000000000000000000000000000000000000000000000000000000000000000000000000000000000000000000000000000000000000000000000000000000000000000000000000000000000000000000000000000000000000000000000000000000000000000000000000000000000000000000000000000000000000000000000000000000000000000000000000000000000000000000000000000000000000000000000000000000000000000000000000000000000",
            "difficulty": "0x00",
            "number": "0x00",
            "gasLimit": "0x07270e00",
            "gasUsed": "0x00",
            "timestamp": "0x00",
            "extraData": "0x00",
            "mixHash": "0x0000000000000000000000000000000000000000000000000000000000000000",
            "nonce": "0x0000000000000000",
            "baseFeePerGas": "0x07",
            "withdrawalsRoot": "0x56e81f171bcc55a6ff8345e692c0f86e5b48e01b996cadc001622fb5e363b421",
            "blobGasUsed": "0x00",
            "excessBlobGas": "0x00",
            "parentBeaconBlockRoot": "0x0000000000000000000000000000000000000000000000000000000000000000",
            "hash": "0xd1fd98d6653b410145f9ec941309b8efe328e1a749c05c85e0bf4acc2beb772b"
        },
        "pre": {
            "0x000f3df6d732807ef1319fb7b8bb8522d0beac02": {
                "nonce": "0x01",
                "balance": "0x00",
                "code": "0x3373fffffffffffffffffffffffffffffffffffffffe14604d57602036146024575f5ffd5b5f35801560495762001fff810690815414603c575f5ffd5b62001fff01545f5260205ff35b5f5ffd5b62001fff42064281555f359062001fff015500",
                "storage": {}
            },
            "0xa6e20bc314e69b410e7c6e079670ecaffdf8c586": {
                "nonce": "0x01",
                "balance": "0x00",
                "code": "0x600160045d6000600060006000600060065af15060006000fd",
                "storage": {}
            },
            "0xb8e4d48f2d50feb3598f77f139e2d5e69b979b92": {
                "nonce": "0x01",
                "balance": "0x00",
                "code": "0x6000600060006000600073a6e20bc314e69b410e7c6e079670ecaffdf8c5865af260005560045c600155",
                "storage": {}
            },
            "0x1ad9bc24818784172ff393bb6f89f094d4d2ca29": {
                "nonce": "0x00",
                "balance": "0x3635c9adc5dea00000",
                "code": "0x",
                "storage": {}
            }
        },
        "postState": {
            "0x000f3df6d732807ef1319fb7b8bb8522d0beac02": {
                "nonce": "0x01",
                "balance": "0x00",
                "code": "0x3373fffffffffffffffffffffffffffffffffffffffe14604d57602036146024575f5ffd5b5f35801560495762001fff810690815414603c575f5ffd5b62001fff01545f5260205ff35b5f5ffd5b62001fff42064281555f359062001fff015500",
                "storage": {
                    "0x03e8": "0x03e8"
                }
            },
            "0xa6e20bc314e69b410e7c6e079670ecaffdf8c586": {
                "nonce": "0x01",
                "balance": "0x00",
                "code": "0x600160045d6000600060006000600060065af15060006000fd",
                "storage": {}
            },
            "0xb8e4d48f2d50feb3598f77f139e2d5e69b979b92": {
                "nonce": "0x01",
                "balance": "0x00",
                "code": "0x6000600060006000600073a6e20bc314e69b410e7c6e079670ecaffdf8c5865af260005560045c600155",
                "storage": {}
            },
            "0x1ad9bc24818784172ff393bb6f89f094d4d2ca29": {
                "nonce": "0x01",
                "balance": "0x3635c9adc5de9ba636",
                "code": "0x",
                "storage": {}
            },
            "0x2adc25665018aa1fe0e6bc666dac8fc2697ff9ba": {
                "nonce": "0x00",
                "balance": "0x014e23",
                "code": "0x",
                "storage": {}
            }
        },
        "lastblockhash": "0x1e8eaa0bc9d5309c161e963aace58f919af98865c7bacac93e446f3e486ac153",
        "config": {
            "network": "Cancun",
            "chainid": "0x01",
            "blobSchedule": {
                "Cancun": {
                    "target": "0x03",
                    "max": "0x06",
                    "baseFeeUpdateFraction": "0x32f0ed"
                }
            }
        },
        "genesisRLP": "0xf9023cf90236a00000000000000000000000000000000000000000000000000000000000000000a01dcc4de8dec75d7aab85b567b6ccd41ad312451b948a7413f0a142fd40d49347940000000000000000000000000000000000000000a0512c8209caed4c7cba0098a20f625635a43909ca740bcb3c9da88c98dca3071ca056e81f171bcc55a6ff8345e692c0f86e5b48e01b996cadc001622fb5e363b421a056e81f171bcc55a6ff8345e692c0f86e5b48e01b996cadc001622fb5e363b421b901000000000000000000000000000000000000000000000000000000000000000000000000000000000000000000000000000000000000000000000000000000000000000000000000000000000000000000000000000000000000000000000000000000000000000000000000000000000000000000000000000000000000000000000000000000000000000000000000000000000000000000000000000000000000000000000000000000000000000000000000000000000000000000000000000000000000000000000000000000000000000000000000000000000000000000000000000000000000000000000000000000000000000000000000000000000080808407270e00808000a0000000000000000000000000000000000000000000000000000000000000000088000000000000000007a056e81f171bcc55a6ff8345e692c0f86e5b48e01b996cadc001622fb5e363b4218080a00000000000000000000000000000000000000000000000000000000000000000c0c0c0",
        "blocks": [
            {
                "blockHeader": {
                    "parentHash": "0xd1fd98d6653b410145f9ec941309b8efe328e1a749c05c85e0bf4acc2beb772b",
                    "uncleHash": "0x1dcc4de8dec75d7aab85b567b6ccd41ad312451b948a7413f0a142fd40d49347",
                    "coinbase": "0x2adc25665018aa1fe0e6bc666dac8fc2697ff9ba",
                    "stateRoot": "0x6fd83ed40ed78b017b36fc65dc46aba12fb7f9188311b7d5254233b912a519bf",
                    "transactionsTrie": "0x275ae2ed8f93893ea9123794279b4c80c4da913b23d60f26d6d2f6888ee8c161",
                    "receiptTrie": "0x844ffcceb7c5e2b6ac02c7a666cd9fbe3ec67fb7c5dba46ef44dcaaa7b562ee3",
                    "bloom": "0x00000000000000000000000000000000000000000000000000000000000000000000000000000000000000000000000000000000000000000000000000000000000000000000000000000000000000000000000000000000000000000000000000000000000000000000000000000000000000000000000000000000000000000000000000000000000000000000000000000000000000000000000000000000000000000000000000000000000000000000000000000000000000000000000000000000000000000000000000000000000000000000000000000000000000000000000000000000000000000000000000000000000000000000000000000000",
                    "difficulty": "0x00",
                    "number": "0x01",
                    "gasLimit": "0x07270e00",
                    "gasUsed": "0x6f61",
                    "timestamp": "0x03e8",
                    "extraData": "0x00",
                    "mixHash": "0x0000000000000000000000000000000000000000000000000000000000000000",
                    "nonce": "0x0000000000000000",
                    "baseFeePerGas": "0x07",
                    "withdrawalsRoot": "0x56e81f171bcc55a6ff8345e692c0f86e5b48e01b996cadc001622fb5e363b421",
                    "blobGasUsed": "0x00",
                    "excessBlobGas": "0x00",
                    "parentBeaconBlockRoot": "0x0000000000000000000000000000000000000000000000000000000000000000",
                    "hash": "0x1e8eaa0bc9d5309c161e963aace58f919af98865c7bacac93e446f3e486ac153"
                },
                "transactions": [
                    {
                        "type": "0x00",
                        "chainId": "0x01",
                        "nonce": "0x00",
                        "gasPrice": "0x0a",
                        "gasLimit": "0x0f4240",
                        "to": "0xb8e4d48f2d50feb3598f77f139e2d5e69b979b92",
                        "value": "0x00",
                        "data": "0x",
                        "v": "0x25",
                        "r": "0x87211b979e064250c6a51d85a3b01467c8778ea2f9327165aeb8acd42cfa12f7",
                        "s": "0x335005174a16476164f6196cbdd1db60252151c19b1d386d4003619d8fe42ec3",
                        "sender": "0x1ad9bc24818784172ff393bb6f89f094d4d2ca29"
                    }
                ],
                "uncleHeaders": [],
                "withdrawals": [],
                "receipts": [
                    {
                        "transactionHash": "0x8e1ba2fe3722c6b97f09d946043b97b7f74ca19e1ed0dba2397aed7d83376620",
                        "type": "0x00",
                        "cumulativeGasUsed": "0x6f61",
                        "bloom": "0x00000000000000000000000000000000000000000000000000000000000000000000000000000000000000000000000000000000000000000000000000000000000000000000000000000000000000000000000000000000000000000000000000000000000000000000000000000000000000000000000000000000000000000000000000000000000000000000000000000000000000000000000000000000000000000000000000000000000000000000000000000000000000000000000000000000000000000000000000000000000000000000000000000000000000000000000000000000000000000000000000000000000000000000000000000000",
                        "logs": [],
                        "status": true,
                        "rlp": "0xf9010801826f61b9010000000000000000000000000000000000000000000000000000000000000000000000000000000000000000000000000000000000000000000000000000000000000000000000000000000000000000000000000000000000000000000000000000000000000000000000000000000000000000000000000000000000000000000000000000000000000000000000000000000000000000000000000000000000000000000000000000000000000000000000000000000000000000000000000000000000000000000000000000000000000000000000000000000000000000000000000000000000000000000000000000000000000000000000000000000000c0"
                    }
                ],
                "rlp": "0xf902a3f9023aa0d1fd98d6653b410145f9ec941309b8efe328e1a749c05c85e0bf4acc2beb772ba01dcc4de8dec75d7aab85b567b6ccd41ad312451b948a7413f0a142fd40d49347942adc25665018aa1fe0e6bc666dac8fc2697ff9baa06fd83ed40ed78b017b36fc65dc46aba12fb7f9188311b7d5254233b912a519bfa0275ae2ed8f93893ea9123794279b4c80c4da913b23d60f26d6d2f6888ee8c161a0844ffcceb7c5e2b6ac02c7a666cd9fbe3ec67fb7c5dba46ef44dcaaa7b562ee3b901000000000000000000000000000000000000000000000000000000000000000000000000000000000000000000000000000000000000000000000000000000000000000000000000000000000000000000000000000000000000000000000000000000000000000000000000000000000000000000000000000000000000000000000000000000000000000000000000000000000000000000000000000000000000000000000000000000000000000000000000000000000000000000000000000000000000000000000000000000000000000000000000000000000000000000000000000000000000000000000000000000000000000000000000000000000080018407270e00826f618203e800a0000000000000000000000000000000000000000000000000000000000000000088000000000000000007a056e81f171bcc55a6ff8345e692c0f86e5b48e01b996cadc001622fb5e363b4218080a00000000000000000000000000000000000000000000000000000000000000000f862f860800a830f424094b8e4d48f2d50feb3598f77f139e2d5e69b979b92808025a087211b979e064250c6a51d85a3b01467c8778ea2f9327165aeb8acd42cfa12f7a0335005174a16476164f6196cbdd1db60252151c19b1d386d4003619d8fe42ec3c0c0",
                "blocknumber": "1"
            }
        ],
        "sealEngine": "NoProof",
        "_info": {
            "hash": "0xd49a6a6de312b58c20f2e56200116e573711611826aab4587fd93becef64e664",
            "fixture-format": "blockchain_test",
            "comment": "`execution-specs` generated test",
            "filling-transition-tool": "2.19.0",
            "description": "Test TSTORE is rolled back after CALLCODE sub-call reverts.\n\nRegression test for\nhttps://github.com/ethereum/execution-specs/issues/911\n\nContract `callee` does TSTORE(4, 1), calls a precompile, then\nREVERTs. Contract `caller` uses CALLCODE to invoke `callee`, then\nchecks TLOAD(4). Because CALLCODE executes in the caller's context\nand the sub-call reverted, TLOAD(4) must return 0.",
            "url": "https://github.com/ethereum/execution-specs/blob/tests-bal@v5.6.1/tests/cancun/eip1153_tstore/test_tstorage_execution_contexts.py#L390",
            "metadata": {
                "opcode_count": {}
            },
            "reference-spec": "https://github.com/ethereum/EIPs/blob/master/EIPS/eip-1153.md",
            "reference-spec-version": "1eb863b534a5a3e19e9c196ab2a7f3db4bb9da17"
        }
    }
}