{
    "tests/ported_static/stCallCodes/test_callcodecallcodecall_abcb_recursive.py::test_callcodecallcodecall_abcb_recursive[fork_Cancun-blockchain_test_from_state_test]": {
        "network": "Cancun",
        "genesisBlockHeader": {
            "parentHash": "0x0000000000000000000000000000000000000000000000000000000000000000",
            "uncleHash": "0x1dcc4de8dec75d7aab85b567b6ccd41ad312451b948a7413f0a142fd40d49347",
            "coinbase": "0x0000000000000000000000000000000000000000",
            "stateRoot": "0xb9bffd24ec178f291f2b18d85ecd0efa2cbf1ae163d267c6d74072a3ca199cd4",
            "transactionsTrie": "0x56e81f171bcc55a6ff8345e692c0f86e5b48e01b996cadc001622fb5e363b421",
            "receiptTrie": "0x56e81f171bcc55a6ff8345e692c0f86e5b48e01b996cadc001622fb5e363b421",
            "bloom": "0x00000000000000000000000000000000000000000000000000000000000000000000000000000000000000000000000000000000000000000000000000000000000000000000000000000000000000000000000000000000000000000000000000000000000000000000000000000000000000000000000000000000000000000000000000000000000000000000000000000000000000000000000000000000000000000000000000000000000000000000000000000000000000000000000000000000000000000000000000000000000000000000000000000000000000000000000000000000000000000000000000000000000000000000000000000000",
            "difficulty": "0x00",
            "number": "0x00",
            "gasLimit": "0x07270e00",
            "gasUsed": "0x00",
            "timestamp": "0x00",
            "extraData": "0x00",
            "mixHash": "0x0000000000000000000000000000000000000000000000000000000000000000",
            "nonce": "0x0000000000000000",
            "baseFeePerGas": "0x0b",
            "withdrawalsRoot": "0x56e81f171bcc55a6ff8345e692c0f86e5b48e01b996cadc001622fb5e363b421",
            "blobGasUsed": "0x00",
            "excessBlobGas": "0x00",
            "parentBeaconBlockRoot": "0x0000000000000000000000000000000000000000000000000000000000000000",
            "hash": "0xb96adcf1b7361cd0a082995971061aae0c50cbf3228c905ad8cff0d3b31d7892"
        },
        "pre": {
            "0x000f3df6d732807ef1319fb7b8bb8522d0beac02": {
                "nonce": "0x01",
                "balance": "0x00",
                "code": "0x3373fffffffffffffffffffffffffffffffffffffffe14604d57602036146024575f5ffd5b5f35801560495762001fff810690815414603c575f5ffd5b62001fff01545f5260205ff35b5f5ffd5b62001fff42064281555f359062001fff015500",
                "storage": {}
            },
            "0x6d477a21d3906d4c0cd1edbfa7d272e6e21f1ca1": {
                "nonce": "0x00",
                "balance": "0x0de0b6b3a7640000",
                "code": "0x6040600060406000600073e2ab9779f4fb1d9d39211cc2082083add172e69c63017d7840f260005500",
                "storage": {}
            },
            "0xe2ab9779f4fb1d9d39211cc2082083add172e69c": {
                "nonce": "0x00",
                "balance": "0x02540be400",
                "code": "0x604060006040600060007391a8703c1bef34c1e76e152c1f7fb8c336c3be24620f4240f260015500",
                "storage": {}
            },
            "0x91a8703c1bef34c1e76e152c1f7fb8c336c3be24": {
                "nonce": "0x00",
                "balance": "0x02540be400",
                "code": "0x6040600060406000600073e2ab9779f4fb1d9d39211cc2082083add172e69c6207a120f160025500",
                "storage": {}
            },
            "0xebaf50debf10e08302fe4280c32df010463ca297": {
                "nonce": "0x00",
                "balance": "0x0de0b6b3a7640000",
                "code": "0x",
                "storage": {}
            }
        },
        "postState": {
            "0x000f3df6d732807ef1319fb7b8bb8522d0beac02": {
                "nonce": "0x01",
                "balance": "0x00",
                "code": "0x3373fffffffffffffffffffffffffffffffffffffffe14604d57602036146024575f5ffd5b5f35801560495762001fff810690815414603c575f5ffd5b62001fff01545f5260205ff35b5f5ffd5b62001fff42064281555f359062001fff015500",
                "storage": {
                    "0x03e8": "0x03e8"
                }
            },
            "0x6d477a21d3906d4c0cd1edbfa7d272e6e21f1ca1": {
                "nonce": "0x00",
                "balance": "0x0de0b6b3a7640000",
                "code": "0x6040600060406000600073e2ab9779f4fb1d9d39211cc2082083add172e69c63017d7840f260005500",
                "storage": {
                    "0x01": "0x01",
                    "0x00": "0x01"
                }
            },
            "0xe2ab9779f4fb1d9d39211cc2082083add172e69c": {
                "nonce": "0x00",
                "balance": "0x02540be400",
                "code": "0x604060006040600060007391a8703c1bef34c1e76e152c1f7fb8c336c3be24620f4240f260015500",
                "storage": {}
            },
            "0x91a8703c1bef34c1e76e152c1f7fb8c336c3be24": {
                "nonce": "0x00",
                "balance": "0x02540be400",
                "code": "0x6040600060406000600073e2ab9779f4fb1d9d39211cc2082083add172e69c6207a120f160025500",
                "storage": {}
            },
            "0xebaf50debf10e08302fe4280c32df010463ca297": {
                "nonce": "0x01",
                "balance": "0x0de0b6b3a70c9964",
                "code": "0x",
                "storage": {}
            }
        },
        "lastblockhash": "0xe725febd9b43792512b770b80c8b23939d3c536155cd9f48527851e27d0f386e",
        "config": {
            "network": "Cancun",
            "chainid": "0x01",
            "blobSchedule": {
                "Cancun": {
                    "target": "0x03",
                    "max": "0x06",
                    "baseFeeUpdateFraction": "0x32f0ed"
                }
            }
        },
        "genesisRLP": "0xf9023cf90236a00000000000000000000000000000000000000000000000000000000000000000a01dcc4de8dec75d7aab85b567b6ccd41ad312451b948a7413f0a142fd40d49347940000000000000000000000000000000000000000a0b9bffd24ec178f291f2b18d85ecd0efa2cbf1ae163d267c6d74072a3ca199cd4a056e81f171bcc55a6ff8345e692c0f86e5b48e01b996cadc001622fb5e363b421a056e81f171bcc55a6ff8345e692c0f86e5b48e01b996cadc001622fb5e363b421b901000000000000000000000000000000000000000000000000000000000000000000000000000000000000000000000000000000000000000000000000000000000000000000000000000000000000000000000000000000000000000000000000000000000000000000000000000000000000000000000000000000000000000000000000000000000000000000000000000000000000000000000000000000000000000000000000000000000000000000000000000000000000000000000000000000000000000000000000000000000000000000000000000000000000000000000000000000000000000000000000000000000000000000000000000000000080808407270e00808000a000000000000000000000000000000000000000000000000000000000000000008800000000000000000ba056e81f171bcc55a6ff8345e692c0f86e5b48e01b996cadc001622fb5e363b4218080a00000000000000000000000000000000000000000000000000000000000000000c0c0c0",
        "blocks": [
            {
                "blockHeader": {
                    "parentHash": "0xb96adcf1b7361cd0a082995971061aae0c50cbf3228c905ad8cff0d3b31d7892",
                    "uncleHash": "0x1dcc4de8dec75d7aab85b567b6ccd41ad312451b948a7413f0a142fd40d49347",
                    "coinbase": "0x2adc25665018aa1fe0e6bc666dac8fc2697ff9ba",
                    "stateRoot": "0x7d1a470faf4d3a763d551406772dbcc1fc99f5198fac64e256eb222c748588e2",
                    "transactionsTrie": "0x69c61e715fcaec227c7be47fce77aac7893638db4a65b9fd2e7c33743f3d5a5f",
                    "receiptTrie": "0xb8bcbc966ff7cafa88a1871ed912abad525852e0c49d4adc5244a7641397744a",
                    "bloom": "0x00000000000000000000000000000000000000000000000000000000000000000000000000000000000000000000000000000000000000000000000000000000000000000000000000000000000000000000000000000000000000000000000000000000000000000000000000000000000000000000000000000000000000000000000000000000000000000000000000000000000000000000000000000000000000000000000000000000000000000000000000000000000000000000000000000000000000000000000000000000000000000000000000000000000000000000000000000000000000000000000000000000000000000000000000000000",
                    "difficulty": "0x00",
                    "number": "0x01",
                    "gasLimit": "0x07270e00",
                    "gasUsed": "0x08bd76",
                    "timestamp": "0x03e8",
                    "extraData": "0x00",
                    "mixHash": "0x0000000000000000000000000000000000000000000000000000000000020000",
                    "nonce": "0x0000000000000000",
                    "baseFeePerGas": "0x0a",
                    "withdrawalsRoot": "0x56e81f171bcc55a6ff8345e692c0f86e5b48e01b996cadc001622fb5e363b421",
                    "blobGasUsed": "0x00",
                    "excessBlobGas": "0x00",
                    "parentBeaconBlockRoot": "0x0000000000000000000000000000000000000000000000000000000000000000",
                    "hash": "0xe725febd9b43792512b770b80c8b23939d3c536155cd9f48527851e27d0f386e"
                },
                "transactions": [
                    {
                        "type": "0x00",
                        "chainId": "0x01",
                        "nonce": "0x00",
                        "gasPrice": "0x0a",
                        "gasLimit": "0x0927c0",
                        "to": "0x6d477a21d3906d4c0cd1edbfa7d272e6e21f1ca1",
                        "value": "0x00",
                        "data": "0x",
                        "v": "0x25",
                        "r": "0xb2e4172c397446edf4e11162b58af2c9cf94f5384d779864ee6fabba1dd3b72d",
                        "s": "0x4d2f83ba32ef59aae4e863e3279470349a92e2ca88c22f9cb666ba00a981576c",
                        "sender": "0xebaf50debf10e08302fe4280c32df010463ca297"
                    }
                ],
                "uncleHeaders": [],
                "withdrawals": [],
                "receipts": [
                    {
                        "transactionHash": "0x014eb933cdb4e4c492e40eddc7912042ed8372f95441a202d8f08546105567b6",
                        "type": "0x00",
                        "cumulativeGasUsed": "0x08bd76",
                        "bloom": "0x00000000000000000000000000000000000000000000000000000000000000000000000000000000000000000000000000000000000000000000000000000000000000000000000000000000000000000000000000000000000000000000000000000000000000000000000000000000000000000000000000000000000000000000000000000000000000000000000000000000000000000000000000000000000000000000000000000000000000000000000000000000000000000000000000000000000000000000000000000000000000000000000000000000000000000000000000000000000000000000000000000000000000000000000000000000",
                        "logs": [],
                        "status": true,
                        "rlp": "0xf90109018308bd76b9010000000000000000000000000000000000000000000000000000000000000000000000000000000000000000000000000000000000000000000000000000000000000000000000000000000000000000000000000000000000000000000000000000000000000000000000000000000000000000000000000000000000000000000000000000000000000000000000000000000000000000000000000000000000000000000000000000000000000000000000000000000000000000000000000000000000000000000000000000000000000000000000000000000000000000000000000000000000000000000000000000000000000000000000000000000000c0"
                    }
                ],
                "rlp": "0xf902a4f9023ba0b96adcf1b7361cd0a082995971061aae0c50cbf3228c905ad8cff0d3b31d7892a01dcc4de8dec75d7aab85b567b6ccd41ad312451b948a7413f0a142fd40d49347942adc25665018aa1fe0e6bc666dac8fc2697ff9baa07d1a470faf4d3a763d551406772dbcc1fc99f5198fac64e256eb222c748588e2a069c61e715fcaec227c7be47fce77aac7893638db4a65b9fd2e7c33743f3d5a5fa0b8bcbc966ff7cafa88a1871ed912abad525852e0c49d4adc5244a7641397744ab901000000000000000000000000000000000000000000000000000000000000000000000000000000000000000000000000000000000000000000000000000000000000000000000000000000000000000000000000000000000000000000000000000000000000000000000000000000000000000000000000000000000000000000000000000000000000000000000000000000000000000000000000000000000000000000000000000000000000000000000000000000000000000000000000000000000000000000000000000000000000000000000000000000000000000000000000000000000000000000000000000000000000000000000000000000000080018407270e008308bd768203e800a000000000000000000000000000000000000000000000000000000000000200008800000000000000000aa056e81f171bcc55a6ff8345e692c0f86e5b48e01b996cadc001622fb5e363b4218080a00000000000000000000000000000000000000000000000000000000000000000f862f860800a830927c0946d477a21d3906d4c0cd1edbfa7d272e6e21f1ca1808025a0b2e4172c397446edf4e11162b58af2c9cf94f5384d779864ee6fabba1dd3b72da04d2f83ba32ef59aae4e863e3279470349a92e2ca88c22f9cb666ba00a981576cc0c0",
                "blocknumber": "1"
            }
        ],
        "sealEngine": "NoProof",
        "_info": {
            "hash": "0xf7e489a73d62482429850e8a89d67f443f858f821ba34881340d2b24b753fd24",
            "fixture-format": "blockchain_test",
            "comment": "`execution-specs` generated test",
            "filling-transition-tool": "2.19.0",
            "description": "CALLCODE -> CALLCODE <-> CALL .",
            "url": "https://github.com/ethereum/execution-specs/blob/tests-sn\u00f8bal-devnet-4@v1.0.0/tests/ported_static/stCallCodes/test_callcodecallcodecall_abcb_recursive.py#L27",
            "metadata": {
                "opcode_count": {}
            }
        }
    }
}