{
    "tests/static/state_tests/stCallDelegateCodesCallCodeHomestead/callcallcodecallcode_011Filler.json::callcallcodecallcode_011[fork_Cancun-blockchain_test_from_state_test-]": {
        "network": "Cancun",
        "genesisBlockHeader": {
            "parentHash": "0x0000000000000000000000000000000000000000000000000000000000000000",
            "uncleHash": "0x1dcc4de8dec75d7aab85b567b6ccd41ad312451b948a7413f0a142fd40d49347",
            "coinbase": "0x0000000000000000000000000000000000000000",
            "stateRoot": "0xe836bc5fbf87f1b72cd0de337de236d69584bf2e3e4e0482e5fdce73ce2b3f1d",
            "transactionsTrie": "0x56e81f171bcc55a6ff8345e692c0f86e5b48e01b996cadc001622fb5e363b421",
            "receiptTrie": "0x56e81f171bcc55a6ff8345e692c0f86e5b48e01b996cadc001622fb5e363b421",
            "bloom": "0x00000000000000000000000000000000000000000000000000000000000000000000000000000000000000000000000000000000000000000000000000000000000000000000000000000000000000000000000000000000000000000000000000000000000000000000000000000000000000000000000000000000000000000000000000000000000000000000000000000000000000000000000000000000000000000000000000000000000000000000000000000000000000000000000000000000000000000000000000000000000000000000000000000000000000000000000000000000000000000000000000000000000000000000000000000000",
            "difficulty": "0x00",
            "number": "0x00",
            "gasLimit": "0x01c9c380",
            "gasUsed": "0x00",
            "timestamp": "0x00",
            "extraData": "0x00",
            "mixHash": "0x0000000000000000000000000000000000000000000000000000000000000000",
            "nonce": "0x0000000000000000",
            "baseFeePerGas": "0x0b",
            "withdrawalsRoot": "0x56e81f171bcc55a6ff8345e692c0f86e5b48e01b996cadc001622fb5e363b421",
            "blobGasUsed": "0x00",
            "excessBlobGas": "0x00",
            "parentBeaconBlockRoot": "0x0000000000000000000000000000000000000000000000000000000000000000",
            "hash": "0x29abe0dad24cbe8bf681a6d24a8e62ee47c98d1de33507f2f9feb03ac9614470"
        },
        "pre": {
            "0x000f3df6d732807ef1319fb7b8bb8522d0beac02": {
                "nonce": "0x01",
                "balance": "0x00",
                "code": "0x3373fffffffffffffffffffffffffffffffffffffffe14604d57602036146024575f5ffd5b5f35801560495762001fff810690815414603c575f5ffd5b62001fff01545f5260205ff35b5f5ffd5b62001fff42064281555f359062001fff015500",
                "storage": {}
            },
            "0xebaf50debf10e08302fe4280c32df010463ca297": {
                "nonce": "0x00",
                "balance": "0x0de0b6b3a7640000",
                "code": "0x",
                "storage": {}
            },
            "0xb8601b04bfd9eb63bc6ff0263567113d4cb874e4": {
                "nonce": "0x00",
                "balance": "0x00",
                "code": "0x600160035533600455346006553061014a553261014c55366101505538610152553a6101545500",
                "storage": {}
            },
            "0x563b277206f3bab1099c59abb457c3d14e2def7b": {
                "nonce": "0x00",
                "balance": "0x00",
                "code": "0x604060006040600073b8601b04bfd9eb63bc6ff0263567113d4cb874e462030d40f460025500",
                "storage": {}
            },
            "0x66f7a765dc70598f71b119f636a53aaa43c4cca1": {
                "nonce": "0x00",
                "balance": "0x00",
                "code": "0x604060006040600073563b277206f3bab1099c59abb457c3d14e2def7b620493e0f460015500",
                "storage": {}
            },
            "0xdb43306b16c521b9cc3667fbe7d1b697bb1f9605": {
                "nonce": "0x00",
                "balance": "0x0de0b6b3a7640000",
                "code": "0x604060006040600060017366f7a765dc70598f71b119f636a53aaa43c4cca162055730f260005500",
                "storage": {}
            }
        },
        "postState": {
            "0x000f3df6d732807ef1319fb7b8bb8522d0beac02": {
                "nonce": "0x01",
                "balance": "0x00",
                "code": "0x3373fffffffffffffffffffffffffffffffffffffffe14604d57602036146024575f5ffd5b5f35801560495762001fff810690815414603c575f5ffd5b62001fff01545f5260205ff35b5f5ffd5b62001fff42064281555f359062001fff015500",
                "storage": {
                    "0x03e8": "0x03e8"
                }
            },
            "0xebaf50debf10e08302fe4280c32df010463ca297": {
                "nonce": "0x01",
                "balance": "0x0de0b6b3a739784e",
                "code": "0x",
                "storage": {}
            },
            "0xb8601b04bfd9eb63bc6ff0263567113d4cb874e4": {
                "nonce": "0x00",
                "balance": "0x00",
                "code": "0x600160035533600455346006553061014a553261014c55366101505538610152553a6101545500",
                "storage": {}
            },
            "0x563b277206f3bab1099c59abb457c3d14e2def7b": {
                "nonce": "0x00",
                "balance": "0x00",
                "code": "0x604060006040600073b8601b04bfd9eb63bc6ff0263567113d4cb874e462030d40f460025500",
                "storage": {}
            },
            "0x66f7a765dc70598f71b119f636a53aaa43c4cca1": {
                "nonce": "0x00",
                "balance": "0x00",
                "code": "0x604060006040600073563b277206f3bab1099c59abb457c3d14e2def7b620493e0f460015500",
                "storage": {}
            },
            "0xdb43306b16c521b9cc3667fbe7d1b697bb1f9605": {
                "nonce": "0x00",
                "balance": "0x0de0b6b3a7640000",
                "code": "0x604060006040600060017366f7a765dc70598f71b119f636a53aaa43c4cca162055730f260005500",
                "storage": {
                    "0x03": "0x01",
                    "0x04": "0xdb43306b16c521b9cc3667fbe7d1b697bb1f9605",
                    "0x06": "0x01",
                    "0x014a": "0xdb43306b16c521b9cc3667fbe7d1b697bb1f9605",
                    "0x014c": "0xebaf50debf10e08302fe4280c32df010463ca297",
                    "0x0150": "0x40",
                    "0x0152": "0x27",
                    "0x0154": "0x0a",
                    "0x02": "0x01",
                    "0x01": "0x01",
                    "0x00": "0x01"
                }
            }
        },
        "lastblockhash": "0x4ed24b90c1b3dbaa37e0dda3e6835985df70c6eae6237fecb1f9f64f7a00a4e1",
        "config": {
            "network": "Cancun",
            "chainid": "0x01",
            "blobSchedule": {
                "Cancun": {
                    "target": "0x03",
                    "max": "0x06",
                    "baseFeeUpdateFraction": "0x32f0ed"
                }
            }
        },
        "genesisRLP": "0xf9023cf90236a00000000000000000000000000000000000000000000000000000000000000000a01dcc4de8dec75d7aab85b567b6ccd41ad312451b948a7413f0a142fd40d49347940000000000000000000000000000000000000000a0e836bc5fbf87f1b72cd0de337de236d69584bf2e3e4e0482e5fdce73ce2b3f1da056e81f171bcc55a6ff8345e692c0f86e5b48e01b996cadc001622fb5e363b421a056e81f171bcc55a6ff8345e692c0f86e5b48e01b996cadc001622fb5e363b421b901000000000000000000000000000000000000000000000000000000000000000000000000000000000000000000000000000000000000000000000000000000000000000000000000000000000000000000000000000000000000000000000000000000000000000000000000000000000000000000000000000000000000000000000000000000000000000000000000000000000000000000000000000000000000000000000000000000000000000000000000000000000000000000000000000000000000000000000000000000000000000000000000000000000000000000000000000000000000000000000000000000000000000000000000000000000080808401c9c380808000a000000000000000000000000000000000000000000000000000000000000000008800000000000000000ba056e81f171bcc55a6ff8345e692c0f86e5b48e01b996cadc001622fb5e363b4218080a00000000000000000000000000000000000000000000000000000000000000000c0c0c0",
        "blocks": [
            {
                "blockHeader": {
                    "parentHash": "0x29abe0dad24cbe8bf681a6d24a8e62ee47c98d1de33507f2f9feb03ac9614470",
                    "uncleHash": "0x1dcc4de8dec75d7aab85b567b6ccd41ad312451b948a7413f0a142fd40d49347",
                    "coinbase": "0x2adc25665018aa1fe0e6bc666dac8fc2697ff9ba",
                    "stateRoot": "0x4bb181d8e7f0cb74d4a3e71c90f4c50aae2975146478d44774c3a7f22deb1ae6",
                    "transactionsTrie": "0x12964b81a5b591a833af407fda277d2b80d9dc40052de8bad56df4f915427a64",
                    "receiptTrie": "0x49f1ea549903fc6ba945866edb76590389c592ba1ca554ce0e14326f98bdc0ba",
                    "bloom": "0x00000000000000000000000000000000000000000000000000000000000000000000000000000000000000000000000000000000000000000000000000000000000000000000000000000000000000000000000000000000000000000000000000000000000000000000000000000000000000000000000000000000000000000000000000000000000000000000000000000000000000000000000000000000000000000000000000000000000000000000000000000000000000000000000000000000000000000000000000000000000000000000000000000000000000000000000000000000000000000000000000000000000000000000000000000000",
                    "difficulty": "0x00",
                    "number": "0x01",
                    "gasLimit": "0x01c9c380",
                    "gasUsed": "0x0440c5",
                    "timestamp": "0x03e8",
                    "extraData": "0x00",
                    "mixHash": "0x0000000000000000000000000000000000000000000000000000000000020000",
                    "nonce": "0x0000000000000000",
                    "baseFeePerGas": "0x0a",
                    "withdrawalsRoot": "0x56e81f171bcc55a6ff8345e692c0f86e5b48e01b996cadc001622fb5e363b421",
                    "blobGasUsed": "0x00",
                    "excessBlobGas": "0x00",
                    "parentBeaconBlockRoot": "0x0000000000000000000000000000000000000000000000000000000000000000",
                    "hash": "0x4ed24b90c1b3dbaa37e0dda3e6835985df70c6eae6237fecb1f9f64f7a00a4e1"
                },
                "transactions": [
                    {
                        "type": "0x00",
                        "chainId": "0x01",
                        "nonce": "0x00",
                        "gasPrice": "0x0a",
                        "gasLimit": "0x2dc6c0",
                        "to": "0xdb43306b16c521b9cc3667fbe7d1b697bb1f9605",
                        "value": "0x00",
                        "data": "0x",
                        "v": "0x25",
                        "r": "0x73a7eabb6c45686e1a51a960740cf6b3ef23e83151552c621de30a718d27e2fb",
                        "s": "0x1604bb670de19675842085977eed289389b03d7f1dc1ac209563adcdc2f08795",
                        "sender": "0xebaf50debf10e08302fe4280c32df010463ca297"
                    }
                ],
                "uncleHeaders": [],
                "withdrawals": [],
                "receipts": [
                    {
                        "transactionHash": "0x111fd42a9d2e2197257fa19766edc3c7fd2f8d9ee75197fd02359aca0c7af7a0",
                        "type": "0x00",
                        "cumulativeGasUsed": "0x0440c5",
                        "bloom": "0x00000000000000000000000000000000000000000000000000000000000000000000000000000000000000000000000000000000000000000000000000000000000000000000000000000000000000000000000000000000000000000000000000000000000000000000000000000000000000000000000000000000000000000000000000000000000000000000000000000000000000000000000000000000000000000000000000000000000000000000000000000000000000000000000000000000000000000000000000000000000000000000000000000000000000000000000000000000000000000000000000000000000000000000000000000000",
                        "logs": [],
                        "status": true,
                        "rlp": "0xf9010901830440c5b9010000000000000000000000000000000000000000000000000000000000000000000000000000000000000000000000000000000000000000000000000000000000000000000000000000000000000000000000000000000000000000000000000000000000000000000000000000000000000000000000000000000000000000000000000000000000000000000000000000000000000000000000000000000000000000000000000000000000000000000000000000000000000000000000000000000000000000000000000000000000000000000000000000000000000000000000000000000000000000000000000000000000000000000000000000000000c0"
                    }
                ],
                "rlp": "0xf902a4f9023ba029abe0dad24cbe8bf681a6d24a8e62ee47c98d1de33507f2f9feb03ac9614470a01dcc4de8dec75d7aab85b567b6ccd41ad312451b948a7413f0a142fd40d49347942adc25665018aa1fe0e6bc666dac8fc2697ff9baa04bb181d8e7f0cb74d4a3e71c90f4c50aae2975146478d44774c3a7f22deb1ae6a012964b81a5b591a833af407fda277d2b80d9dc40052de8bad56df4f915427a64a049f1ea549903fc6ba945866edb76590389c592ba1ca554ce0e14326f98bdc0bab901000000000000000000000000000000000000000000000000000000000000000000000000000000000000000000000000000000000000000000000000000000000000000000000000000000000000000000000000000000000000000000000000000000000000000000000000000000000000000000000000000000000000000000000000000000000000000000000000000000000000000000000000000000000000000000000000000000000000000000000000000000000000000000000000000000000000000000000000000000000000000000000000000000000000000000000000000000000000000000000000000000000000000000000000000000000080018401c9c380830440c58203e800a000000000000000000000000000000000000000000000000000000000000200008800000000000000000aa056e81f171bcc55a6ff8345e692c0f86e5b48e01b996cadc001622fb5e363b4218080a00000000000000000000000000000000000000000000000000000000000000000f862f860800a832dc6c094db43306b16c521b9cc3667fbe7d1b697bb1f9605808025a073a7eabb6c45686e1a51a960740cf6b3ef23e83151552c621de30a718d27e2fba01604bb670de19675842085977eed289389b03d7f1dc1ac209563adcdc2f08795c0c0",
                "blocknumber": "1"
            }
        ],
        "sealEngine": "NoProof",
        "_info": {
            "hash": "0x1562d3e049428f4d405869e46fcfc2f291cee4be27279f6241080bb45f0a7519",
            "fixture-format": "blockchain_test",
            "comment": "`execution-specs` generated test",
            "filling-transition-tool": "2.19.0",
            "description": "No description available - add a docstring to the python test class or function.",
            "url": "",
            "opcode_count": {}
        }
    }
}