{
    "tests/static/state_tests/stInitCodeTest/CallContractToCreateContractWhichWouldCreateContractIfCalledFiller.json::CallContractToCreateContractWhichWouldCreateContractIfCalled[fork_Cancun-state_test-]": {
        "env": {
            "currentCoinbase": "0x2adc25665018aa1fe0e6bc666dac8fc2697ff9ba",
            "currentGasLimit": "0x3b9aca00",
            "currentNumber": "0x01",
            "currentTimestamp": "0x03e8",
            "currentRandom": "0x0000000000000000000000000000000000000000000000000000000000020000",
            "currentDifficulty": "0x00",
            "currentBaseFee": "0x0a",
            "currentExcessBlobGas": "0x00"
        },
        "pre": {
            "0x095e7baea6a6c7c4c2dfeb977efac326af552d87": {
                "nonce": "0x00",
                "balance": "0x03e8",
                "code": "0x74600c60005566602060406000f060205260076039f36000526015600b6001f06000556000600060006000600160005461c350f100",
                "storage": {}
            },
            "0xa94f5374fce5edbc8e2a8697c15331677e6ebf0b": {
                "nonce": "0x00",
                "balance": "0x3b9aca00",
                "code": "0x",
                "storage": {}
            }
        },
        "transaction": {
            "nonce": "0x00",
            "gasPrice": "0x0a",
            "gasLimit": [
                "0x030d40"
            ],
            "to": "0x095e7baea6a6c7c4c2dfeb977efac326af552d87",
            "value": [
                "0x00"
            ],
            "data": [
                "0x00"
            ],
            "sender": "0xa94f5374fce5edbc8e2a8697c15331677e6ebf0b",
            "secretKey": "0x45a915e4d060149eb4365960e6a7a45f334393093061116b197e3240065ff2d8"
        },
        "post": {
            "Cancun": [
                {
                    "hash": "0x832ae42e202cfad0295dcb763a8948339974ccd801b72b86d09817c7a816dcc3",
                    "logs": "0x1dcc4de8dec75d7aab85b567b6ccd41ad312451b948a7413f0a142fd40d49347",
                    "txbytes": "0xf860800a83030d4094095e7baea6a6c7c4c2dfeb977efac326af552d87800026a0b6d96ad5d5b024ed5fa03adf65549320273bfc8a2b03a05e473c63d64cc639b1a056b1fc351fbc75ba5b06b7c9d546c00f220bfd5117494257cd2507337dab71f4",
                    "indexes": {
                        "data": 0,
                        "gas": 0,
                        "value": 0
                    },
                    "state": {
                        "0x095e7baea6a6c7c4c2dfeb977efac326af552d87": {
                            "nonce": "0x01",
                            "balance": "0x03e6",
                            "code": "0x74600c60005566602060406000f060205260076039f36000526015600b6001f06000556000600060006000600160005461c350f100",
                            "storage": {
                                "0x00": "0xd2571607e241ecf590ed94b12d87c94babe36db6"
                            }
                        },
                        "0xa94f5374fce5edbc8e2a8697c15331677e6ebf0b": {
                            "nonce": "0x01",
                            "balance": "0x3b85cb14",
                            "code": "0x",
                            "storage": {}
                        },
                        "0xd2571607e241ecf590ed94b12d87c94babe36db6": {
                            "nonce": "0x02",
                            "balance": "0x02",
                            "code": "0x602060406000f0",
                            "storage": {
                                "0x00": "0x0c"
                            }
                        },
                        "0x91ed00a0a906270d466af043c4e111dadca970a3": {
                            "nonce": "0x01",
                            "balance": "0x00",
                            "code": "0x",
                            "storage": {}
                        }
                    }
                }
            ]
        },
        "config": {
            "blobSchedule": {
                "Cancun": {
                    "target": "0x03",
                    "max": "0x06",
                    "baseFeeUpdateFraction": "0x32f0ed"
                }
            },
            "chainid": "0x01"
        },
        "_info": {
            "hash": "0x2c0c3a4569d50dcb9444329a8d396cdec8ea16d30e944678349aa796c6280349",
            "comment": "`execution-spec-tests` generated test",
            "filling-transition-tool": "ethereum-spec-evm-resolver 0.0.5",
            "description": "No description available - add a docstring to the python test class or function.",
            "url": "",
            "fixture-format": "state_test",
            "eels-resolution": {
                "git-url": "https://github.com/ethereum/execution-specs.git",
                "branch": "forks/bpos",
                "commit": "7aacb2c54111391af5e98c505d5010b5698a770f"
            }
        }
    },
    "tests/static/state_tests/stInitCodeTest/CallContractToCreateContractWhichWouldCreateContractIfCalledFiller.json::CallContractToCreateContractWhichWouldCreateContractIfCalled[fork_Osaka-state_test-]": {
        "env": {
            "currentCoinbase": "0x2adc25665018aa1fe0e6bc666dac8fc2697ff9ba",
            "currentGasLimit": "0x3b9aca00",
            "currentNumber": "0x01",
            "currentTimestamp": "0x03e8",
            "currentRandom": "0x0000000000000000000000000000000000000000000000000000000000020000",
            "currentDifficulty": "0x00",
            "currentBaseFee": "0x0a",
            "currentExcessBlobGas": "0x00"
        },
        "pre": {
            "0x095e7baea6a6c7c4c2dfeb977efac326af552d87": {
                "nonce": "0x00",
                "balance": "0x03e8",
                "code": "0x74600c60005566602060406000f060205260076039f36000526015600b6001f06000556000600060006000600160005461c350f100",
                "storage": {}
            },
            "0xa94f5374fce5edbc8e2a8697c15331677e6ebf0b": {
                "nonce": "0x00",
                "balance": "0x3b9aca00",
                "code": "0x",
                "storage": {}
            }
        },
        "transaction": {
            "nonce": "0x00",
            "gasPrice": "0x0a",
            "gasLimit": [
                "0x030d40"
            ],
            "to": "0x095e7baea6a6c7c4c2dfeb977efac326af552d87",
            "value": [
                "0x00"
            ],
            "data": [
                "0x00"
            ],
            "sender": "0xa94f5374fce5edbc8e2a8697c15331677e6ebf0b",
            "secretKey": "0x45a915e4d060149eb4365960e6a7a45f334393093061116b197e3240065ff2d8"
        },
        "post": {
            "Osaka": [
                {
                    "hash": "0x832ae42e202cfad0295dcb763a8948339974ccd801b72b86d09817c7a816dcc3",
                    "logs": "0x1dcc4de8dec75d7aab85b567b6ccd41ad312451b948a7413f0a142fd40d49347",
                    "txbytes": "0xf860800a83030d4094095e7baea6a6c7c4c2dfeb977efac326af552d87800026a0b6d96ad5d5b024ed5fa03adf65549320273bfc8a2b03a05e473c63d64cc639b1a056b1fc351fbc75ba5b06b7c9d546c00f220bfd5117494257cd2507337dab71f4",
                    "indexes": {
                        "data": 0,
                        "gas": 0,
                        "value": 0
                    },
                    "state": {
                        "0x095e7baea6a6c7c4c2dfeb977efac326af552d87": {
                            "nonce": "0x01",
                            "balance": "0x03e6",
                            "code": "0x74600c60005566602060406000f060205260076039f36000526015600b6001f06000556000600060006000600160005461c350f100",
                            "storage": {
                                "0x00": "0xd2571607e241ecf590ed94b12d87c94babe36db6"
                            }
                        },
                        "0xa94f5374fce5edbc8e2a8697c15331677e6ebf0b": {
                            "nonce": "0x01",
                            "balance": "0x3b85cb14",
                            "code": "0x",
                            "storage": {}
                        },
                        "0xd2571607e241ecf590ed94b12d87c94babe36db6": {
                            "nonce": "0x02",
                            "balance": "0x02",
                            "code": "0x602060406000f0",
                            "storage": {
                                "0x00": "0x0c"
                            }
                        },
                        "0x91ed00a0a906270d466af043c4e111dadca970a3": {
                            "nonce": "0x01",
                            "balance": "0x00",
                            "code": "0x",
                            "storage": {}
                        }
                    }
                }
            ]
        },
        "config": {
            "blobSchedule": {
                "Cancun": {
                    "target": "0x03",
                    "max": "0x06",
                    "baseFeeUpdateFraction": "0x32f0ed"
                },
                "Prague": {
                    "target": "0x06",
                    "max": "0x09",
                    "baseFeeUpdateFraction": "0x4c6964"
                },
                "Osaka": {
                    "target": "0x06",
                    "max": "0x09",
                    "baseFeeUpdateFraction": "0x4c6964"
                }
            },
            "chainid": "0x01"
        },
        "_info": {
            "hash": "0x57ae77d7f975ba0a9aa18e34534740c77699e48a299cd3744d1a02588939f72c",
            "comment": "`execution-spec-tests` generated test",
            "filling-transition-tool": "ethereum-spec-evm-resolver 0.0.5",
            "description": "No description available - add a docstring to the python test class or function.",
            "url": "",
            "fixture-format": "state_test",
            "eels-resolution": {
                "git-url": "https://github.com/ethereum/execution-specs.git",
                "branch": "forks/bpos",
                "commit": "7aacb2c54111391af5e98c505d5010b5698a770f"
            }
        }
    },
    "tests/static/state_tests/stInitCodeTest/CallContractToCreateContractWhichWouldCreateContractIfCalledFiller.json::CallContractToCreateContractWhichWouldCreateContractIfCalled[fork_Prague-state_test-]": {
        "env": {
            "currentCoinbase": "0x2adc25665018aa1fe0e6bc666dac8fc2697ff9ba",
            "currentGasLimit": "0x3b9aca00",
            "currentNumber": "0x01",
            "currentTimestamp": "0x03e8",
            "currentRandom": "0x0000000000000000000000000000000000000000000000000000000000020000",
            "currentDifficulty": "0x00",
            "currentBaseFee": "0x0a",
            "currentExcessBlobGas": "0x00"
        },
        "pre": {
            "0x095e7baea6a6c7c4c2dfeb977efac326af552d87": {
                "nonce": "0x00",
                "balance": "0x03e8",
                "code": "0x74600c60005566602060406000f060205260076039f36000526015600b6001f06000556000600060006000600160005461c350f100",
                "storage": {}
            },
            "0xa94f5374fce5edbc8e2a8697c15331677e6ebf0b": {
                "nonce": "0x00",
                "balance": "0x3b9aca00",
                "code": "0x",
                "storage": {}
            }
        },
        "transaction": {
            "nonce": "0x00",
            "gasPrice": "0x0a",
            "gasLimit": [
                "0x030d40"
            ],
            "to": "0x095e7baea6a6c7c4c2dfeb977efac326af552d87",
            "value": [
                "0x00"
            ],
            "data": [
                "0x00"
            ],
            "sender": "0xa94f5374fce5edbc8e2a8697c15331677e6ebf0b",
            "secretKey": "0x45a915e4d060149eb4365960e6a7a45f334393093061116b197e3240065ff2d8"
        },
        "post": {
            "Prague": [
                {
                    "hash": "0x832ae42e202cfad0295dcb763a8948339974ccd801b72b86d09817c7a816dcc3",
                    "logs": "0x1dcc4de8dec75d7aab85b567b6ccd41ad312451b948a7413f0a142fd40d49347",
                    "txbytes": "0xf860800a83030d4094095e7baea6a6c7c4c2dfeb977efac326af552d87800026a0b6d96ad5d5b024ed5fa03adf65549320273bfc8a2b03a05e473c63d64cc639b1a056b1fc351fbc75ba5b06b7c9d546c00f220bfd5117494257cd2507337dab71f4",
                    "indexes": {
                        "data": 0,
                        "gas": 0,
                        "value": 0
                    },
                    "state": {
                        "0x095e7baea6a6c7c4c2dfeb977efac326af552d87": {
                            "nonce": "0x01",
                            "balance": "0x03e6",
                            "code": "0x74600c60005566602060406000f060205260076039f36000526015600b6001f06000556000600060006000600160005461c350f100",
                            "storage": {
                                "0x00": "0xd2571607e241ecf590ed94b12d87c94babe36db6"
                            }
                        },
                        "0xa94f5374fce5edbc8e2a8697c15331677e6ebf0b": {
                            "nonce": "0x01",
                            "balance": "0x3b85cb14",
                            "code": "0x",
                            "storage": {}
                        },
                        "0xd2571607e241ecf590ed94b12d87c94babe36db6": {
                            "nonce": "0x02",
                            "balance": "0x02",
                            "code": "0x602060406000f0",
                            "storage": {
                                "0x00": "0x0c"
                            }
                        },
                        "0x91ed00a0a906270d466af043c4e111dadca970a3": {
                            "nonce": "0x01",
                            "balance": "0x00",
                            "code": "0x",
                            "storage": {}
                        }
                    }
                }
            ]
        },
        "config": {
            "blobSchedule": {
                "Cancun": {
                    "target": "0x03",
                    "max": "0x06",
                    "baseFeeUpdateFraction": "0x32f0ed"
                },
                "Prague": {
                    "target": "0x06",
                    "max": "0x09",
                    "baseFeeUpdateFraction": "0x4c6964"
                }
            },
            "chainid": "0x01"
        },
        "_info": {
            "hash": "0x8a549cd5fbb975c93077c23cc70ceb1c9930130071b6078ded53a86d5eaba430",
            "comment": "`execution-spec-tests` generated test",
            "filling-transition-tool": "ethereum-spec-evm-resolver 0.0.5",
            "description": "No description available - add a docstring to the python test class or function.",
            "url": "",
            "fixture-format": "state_test",
            "eels-resolution": {
                "git-url": "https://github.com/ethereum/execution-specs.git",
                "branch": "forks/bpos",
                "commit": "7aacb2c54111391af5e98c505d5010b5698a770f"
            }
        }
    }
}