{
    "tests/ported_static/stSolidityTest/test_test_contract_interaction.py::test_test_contract_interaction[fork_Cancun-blockchain_test_from_state_test]": {
        "network": "Cancun",
        "genesisBlockHeader": {
            "parentHash": "0x0000000000000000000000000000000000000000000000000000000000000000",
            "uncleHash": "0x1dcc4de8dec75d7aab85b567b6ccd41ad312451b948a7413f0a142fd40d49347",
            "coinbase": "0x0000000000000000000000000000000000000000",
            "stateRoot": "0x7b332ebbaa9f884ad4af425cd58a69f55b300da4500f68d4ff563f91b58cb59a",
            "transactionsTrie": "0x56e81f171bcc55a6ff8345e692c0f86e5b48e01b996cadc001622fb5e363b421",
            "receiptTrie": "0x56e81f171bcc55a6ff8345e692c0f86e5b48e01b996cadc001622fb5e363b421",
            "bloom": "0x00000000000000000000000000000000000000000000000000000000000000000000000000000000000000000000000000000000000000000000000000000000000000000000000000000000000000000000000000000000000000000000000000000000000000000000000000000000000000000000000000000000000000000000000000000000000000000000000000000000000000000000000000000000000000000000000000000000000000000000000000000000000000000000000000000000000000000000000000000000000000000000000000000000000000000000000000000000000000000000000000000000000000000000000000000000",
            "difficulty": "0x00",
            "number": "0x00",
            "gasLimit": "0x05f5e100",
            "gasUsed": "0x00",
            "timestamp": "0x00",
            "extraData": "0x00",
            "mixHash": "0x0000000000000000000000000000000000000000000000000000000000000000",
            "nonce": "0x0000000000000000",
            "baseFeePerGas": "0x0b",
            "withdrawalsRoot": "0x56e81f171bcc55a6ff8345e692c0f86e5b48e01b996cadc001622fb5e363b421",
            "blobGasUsed": "0x00",
            "excessBlobGas": "0x00",
            "parentBeaconBlockRoot": "0x0000000000000000000000000000000000000000000000000000000000000000",
            "hash": "0x9fa01d1db44712a1b043b3dacefdd34491871028a25436a1153bb8168d954706"
        },
        "pre": {
            "0x000f3df6d732807ef1319fb7b8bb8522d0beac02": {
                "nonce": "0x01",
                "balance": "0x00",
                "code": "0x3373fffffffffffffffffffffffffffffffffffffffe14604d57602036146024575f5ffd5b5f35801560495762001fff810690815414603c575f5ffd5b62001fff01545f5260205ff35b5f5ffd5b62001fff42064281555f359062001fff015500",
                "storage": {}
            },
            "0x087dfec56d6da95fd3a1bcf8ccf995ee51645950": {
                "nonce": "0x00",
                "balance": "0x0186a0",
                "code": "0x7c01000000000000000000000000000000000000000000000000000000006000350463c04062268114610039578063ed973fe91461004b57005b6100416100ea565b8060005260206000f35b61005361005d565b8060005260206000f35b60006000608161011a600039608160006000f0905073ffffffffffffffffffffffffffffffffffffffff811663b9c3d0a5602060007fb9c3d0a50000000000000000000000000000000000000000000000000000000081526004600060008660325a03f16100c757005b505060005160e1146100d8576100e1565b600191506100e6565b600091505b5090565b60006100f461005d565b600060006101000a81548160ff0219169083021790555060ff600160005404169050905600607580600c6000396000f3007c01000000000000000000000000000000000000000000000000000000006000350462f55d9d81146036578063b9c3d0a514604557005b603f6004356055565b60006000f35b604b6070565b8060005260206000f35b8073ffffffffffffffffffffffffffffffffffffffff16ff50565b60e19056",
                "storage": {}
            },
            "0x7f3f285918d9b5e764174551e10b7539b97bbb27": {
                "nonce": "0x00",
                "balance": "0x05f5e100",
                "code": "0x",
                "storage": {}
            }
        },
        "postState": {
            "0x000f3df6d732807ef1319fb7b8bb8522d0beac02": {
                "nonce": "0x01",
                "balance": "0x00",
                "code": "0x3373fffffffffffffffffffffffffffffffffffffffe14604d57602036146024575f5ffd5b5f35801560495762001fff810690815414603c575f5ffd5b62001fff01545f5260205ff35b5f5ffd5b62001fff42064281555f359062001fff015500",
                "storage": {
                    "0x03e8": "0x03e8"
                }
            },
            "0x087dfec56d6da95fd3a1bcf8ccf995ee51645950": {
                "nonce": "0x01",
                "balance": "0x0186a1",
                "code": "0x7c01000000000000000000000000000000000000000000000000000000006000350463c04062268114610039578063ed973fe91461004b57005b6100416100ea565b8060005260206000f35b61005361005d565b8060005260206000f35b60006000608161011a600039608160006000f0905073ffffffffffffffffffffffffffffffffffffffff811663b9c3d0a5602060007fb9c3d0a50000000000000000000000000000000000000000000000000000000081526004600060008660325a03f16100c757005b505060005160e1146100d8576100e1565b600191506100e6565b600091505b5090565b60006100f461005d565b600060006101000a81548160ff0219169083021790555060ff600160005404169050905600607580600c6000396000f3007c01000000000000000000000000000000000000000000000000000000006000350462f55d9d81146036578063b9c3d0a514604557005b603f6004356055565b60006000f35b604b6070565b8060005260206000f35b8073ffffffffffffffffffffffffffffffffffffffff16ff50565b60e19056",
                "storage": {
                    "0x00": "0x01"
                }
            },
            "0x7f3f285918d9b5e764174551e10b7539b97bbb27": {
                "nonce": "0x01",
                "balance": "0x05e6ba99",
                "code": "0x",
                "storage": {}
            },
            "0xd0a4f234edb751a767cc39613d2204399d6cc464": {
                "nonce": "0x01",
                "balance": "0x00",
                "code": "0x7c01000000000000000000000000000000000000000000000000000000006000350462f55d9d81146036578063b9c3d0a514604557005b603f6004356055565b60006000f35b604b6070565b8060005260206000f35b8073ffffffffffffffffffffffffffffffffffffffff16ff50565b60e19056",
                "storage": {}
            }
        },
        "lastblockhash": "0x2541e2d30987927aa3600e58236aaefda3598782b61d6b6f5b55090859d853a0",
        "config": {
            "network": "Cancun",
            "chainid": "0x01",
            "blobSchedule": {
                "Cancun": {
                    "target": "0x03",
                    "max": "0x06",
                    "baseFeeUpdateFraction": "0x32f0ed"
                }
            }
        },
        "genesisRLP": "0xf9023cf90236a00000000000000000000000000000000000000000000000000000000000000000a01dcc4de8dec75d7aab85b567b6ccd41ad312451b948a7413f0a142fd40d49347940000000000000000000000000000000000000000a07b332ebbaa9f884ad4af425cd58a69f55b300da4500f68d4ff563f91b58cb59aa056e81f171bcc55a6ff8345e692c0f86e5b48e01b996cadc001622fb5e363b421a056e81f171bcc55a6ff8345e692c0f86e5b48e01b996cadc001622fb5e363b421b901000000000000000000000000000000000000000000000000000000000000000000000000000000000000000000000000000000000000000000000000000000000000000000000000000000000000000000000000000000000000000000000000000000000000000000000000000000000000000000000000000000000000000000000000000000000000000000000000000000000000000000000000000000000000000000000000000000000000000000000000000000000000000000000000000000000000000000000000000000000000000000000000000000000000000000000000000000000000000000000000000000000000000000000000000000000080808405f5e100808000a000000000000000000000000000000000000000000000000000000000000000008800000000000000000ba056e81f171bcc55a6ff8345e692c0f86e5b48e01b996cadc001622fb5e363b4218080a00000000000000000000000000000000000000000000000000000000000000000c0c0c0",
        "blocks": [
            {
                "blockHeader": {
                    "parentHash": "0x9fa01d1db44712a1b043b3dacefdd34491871028a25436a1153bb8168d954706",
                    "uncleHash": "0x1dcc4de8dec75d7aab85b567b6ccd41ad312451b948a7413f0a142fd40d49347",
                    "coinbase": "0x2adc25665018aa1fe0e6bc666dac8fc2697ff9ba",
                    "stateRoot": "0x10e4924ee40e91126d9d25290244f137d06ba4043d6654779ec167af48de4311",
                    "transactionsTrie": "0x4e2268e85880c6bccd6adc5a93598e3175fd87a77da7c08665e60b24cd978640",
                    "receiptTrie": "0x0d147cef4d572d8de819351961a65cad29f261b84ec39bde7569894cf4549db5",
                    "bloom": "0x00000000000000000000000000000000000000000000000000000000000000000000000000000000000000000000000000000000000000000000000000000000000000000000000000000000000000000000000000000000000000000000000000000000000000000000000000000000000000000000000000000000000000000000000000000000000000000000000000000000000000000000000000000000000000000000000000000000000000000000000000000000000000000000000000000000000000000000000000000000000000000000000000000000000000000000000000000000000000000000000000000000000000000000000000000000",
                    "difficulty": "0x00",
                    "number": "0x01",
                    "gasLimit": "0x05f5e100",
                    "gasUsed": "0x0183d7",
                    "timestamp": "0x03e8",
                    "extraData": "0x00",
                    "mixHash": "0x0000000000000000000000000000000000000000000000000000000000020000",
                    "nonce": "0x0000000000000000",
                    "baseFeePerGas": "0x0a",
                    "withdrawalsRoot": "0x56e81f171bcc55a6ff8345e692c0f86e5b48e01b996cadc001622fb5e363b421",
                    "blobGasUsed": "0x00",
                    "excessBlobGas": "0x00",
                    "parentBeaconBlockRoot": "0x0000000000000000000000000000000000000000000000000000000000000000",
                    "hash": "0x2541e2d30987927aa3600e58236aaefda3598782b61d6b6f5b55090859d853a0"
                },
                "transactions": [
                    {
                        "type": "0x00",
                        "chainId": "0x01",
                        "nonce": "0x00",
                        "gasPrice": "0x0a",
                        "gasLimit": "0x055730",
                        "to": "0x087dfec56d6da95fd3a1bcf8ccf995ee51645950",
                        "value": "0x01",
                        "data": "0xc0406226",
                        "v": "0x25",
                        "r": "0x7ea4e2030d38aaacc4bf7f461f5f5c15c14b32cab117266f5b6bef9bf4d33660",
                        "s": "0x6c8fbfd98f748eafdd278c1b614240f83b00ef4f97ccc6f2f893fd382768f19e",
                        "sender": "0x7f3f285918d9b5e764174551e10b7539b97bbb27"
                    }
                ],
                "uncleHeaders": [],
                "withdrawals": [],
                "receipts": [
                    {
                        "transactionHash": "0xb1afa24beb18f808a35f8f7b5410edbd41dccdd8291c43cab4a02e091169616c",
                        "type": "0x00",
                        "cumulativeGasUsed": "0x0183d7",
                        "bloom": "0x00000000000000000000000000000000000000000000000000000000000000000000000000000000000000000000000000000000000000000000000000000000000000000000000000000000000000000000000000000000000000000000000000000000000000000000000000000000000000000000000000000000000000000000000000000000000000000000000000000000000000000000000000000000000000000000000000000000000000000000000000000000000000000000000000000000000000000000000000000000000000000000000000000000000000000000000000000000000000000000000000000000000000000000000000000000",
                        "logs": [],
                        "status": true,
                        "rlp": "0xf9010901830183d7b9010000000000000000000000000000000000000000000000000000000000000000000000000000000000000000000000000000000000000000000000000000000000000000000000000000000000000000000000000000000000000000000000000000000000000000000000000000000000000000000000000000000000000000000000000000000000000000000000000000000000000000000000000000000000000000000000000000000000000000000000000000000000000000000000000000000000000000000000000000000000000000000000000000000000000000000000000000000000000000000000000000000000000000000000000000000000c0"
                    }
                ],
                "rlp": "0xf902a8f9023ba09fa01d1db44712a1b043b3dacefdd34491871028a25436a1153bb8168d954706a01dcc4de8dec75d7aab85b567b6ccd41ad312451b948a7413f0a142fd40d49347942adc25665018aa1fe0e6bc666dac8fc2697ff9baa010e4924ee40e91126d9d25290244f137d06ba4043d6654779ec167af48de4311a04e2268e85880c6bccd6adc5a93598e3175fd87a77da7c08665e60b24cd978640a00d147cef4d572d8de819351961a65cad29f261b84ec39bde7569894cf4549db5b901000000000000000000000000000000000000000000000000000000000000000000000000000000000000000000000000000000000000000000000000000000000000000000000000000000000000000000000000000000000000000000000000000000000000000000000000000000000000000000000000000000000000000000000000000000000000000000000000000000000000000000000000000000000000000000000000000000000000000000000000000000000000000000000000000000000000000000000000000000000000000000000000000000000000000000000000000000000000000000000000000000000000000000000000000000000080018405f5e100830183d78203e800a000000000000000000000000000000000000000000000000000000000000200008800000000000000000aa056e81f171bcc55a6ff8345e692c0f86e5b48e01b996cadc001622fb5e363b4218080a00000000000000000000000000000000000000000000000000000000000000000f866f864800a8305573094087dfec56d6da95fd3a1bcf8ccf995ee516459500184c040622625a07ea4e2030d38aaacc4bf7f461f5f5c15c14b32cab117266f5b6bef9bf4d33660a06c8fbfd98f748eafdd278c1b614240f83b00ef4f97ccc6f2f893fd382768f19ec0c0",
                "blocknumber": "1"
            }
        ],
        "sealEngine": "NoProof",
        "_info": {
            "hash": "0xa75f50da54b32d9cbaa5d04201938d48c7208de710b93ce1250828543b9f6dfd",
            "fixture-format": "blockchain_test",
            "comment": "`execution-specs` generated test",
            "filling-transition-tool": "2.19.0",
            "description": "Test_test_contract_interaction.",
            "url": "https://github.com/ethereum/execution-specs/blob/tests-bal@v5.6.1/tests/ported_static/stSolidityTest/test_test_contract_interaction.py#L25",
            "metadata": {
                "opcode_count": {}
            }
        }
    }
}