{
    "tests/ported_static/stZeroCallsRevert/test_zero_value_suicide_to_empty_oog_revert_paris.py::test_zero_value_suicide_to_empty_oog_revert_paris[fork_Cancun-blockchain_test_from_state_test]": {
        "network": "Cancun",
        "genesisBlockHeader": {
            "parentHash": "0x0000000000000000000000000000000000000000000000000000000000000000",
            "uncleHash": "0x1dcc4de8dec75d7aab85b567b6ccd41ad312451b948a7413f0a142fd40d49347",
            "coinbase": "0x0000000000000000000000000000000000000000",
            "stateRoot": "0x9011591d2a9a3f75472eea29d3339e38774a4bc36e67dd6f5a4b4b53e315d3be",
            "transactionsTrie": "0x56e81f171bcc55a6ff8345e692c0f86e5b48e01b996cadc001622fb5e363b421",
            "receiptTrie": "0x56e81f171bcc55a6ff8345e692c0f86e5b48e01b996cadc001622fb5e363b421",
            "bloom": "0x00000000000000000000000000000000000000000000000000000000000000000000000000000000000000000000000000000000000000000000000000000000000000000000000000000000000000000000000000000000000000000000000000000000000000000000000000000000000000000000000000000000000000000000000000000000000000000000000000000000000000000000000000000000000000000000000000000000000000000000000000000000000000000000000000000000000000000000000000000000000000000000000000000000000000000000000000000000000000000000000000000000000000000000000000000000",
            "difficulty": "0x00",
            "number": "0x00",
            "gasLimit": "0x07270e00",
            "gasUsed": "0x00",
            "timestamp": "0x00",
            "extraData": "0x00",
            "mixHash": "0x0000000000000000000000000000000000000000000000000000000000000000",
            "nonce": "0x0000000000000000",
            "baseFeePerGas": "0x0b",
            "withdrawalsRoot": "0x56e81f171bcc55a6ff8345e692c0f86e5b48e01b996cadc001622fb5e363b421",
            "blobGasUsed": "0x00",
            "excessBlobGas": "0x00",
            "parentBeaconBlockRoot": "0x0000000000000000000000000000000000000000000000000000000000000000",
            "hash": "0x9063d22eefb2d7bdac20c37a8e3369a6ff0b981d1c3e4a4350909eb0b51b0322"
        },
        "pre": {
            "0x000f3df6d732807ef1319fb7b8bb8522d0beac02": {
                "nonce": "0x01",
                "balance": "0x00",
                "code": "0x3373fffffffffffffffffffffffffffffffffffffffe14604d57602036146024575f5ffd5b5f35801560495762001fff810690815414603c575f5ffd5b62001fff01545f5260205ff35b5f5ffd5b62001fff42064281555f359062001fff015500",
                "storage": {}
            },
            "0xfaa10b404ab607779993c016cd5da73ae1f29d7e": {
                "nonce": "0x00",
                "balance": "0xe8d4a51000",
                "code": "0x",
                "storage": {}
            },
            "0xa2e25f47a24c66cfef22d3304777a22d6dd7ad4a": {
                "nonce": "0x00",
                "balance": "0x00",
                "code": "0x6000600060006000600073888748026558f849c1b2433ea5e1daf1444dfc6061c350f150600c600255600c600355600c60045500",
                "storage": {}
            },
            "0x888748026558f849c1b2433ea5e1daf1444dfc60": {
                "nonce": "0x00",
                "balance": "0x00",
                "code": "0x7376fae819612a29489a1a43208613d8f8557b8898ff00",
                "storage": {}
            },
            "0x76fae819612a29489a1a43208613d8f8557b8898": {
                "nonce": "0x00",
                "balance": "0x0a",
                "code": "0x",
                "storage": {}
            }
        },
        "postState": {
            "0x000f3df6d732807ef1319fb7b8bb8522d0beac02": {
                "nonce": "0x01",
                "balance": "0x00",
                "code": "0x3373fffffffffffffffffffffffffffffffffffffffe14604d57602036146024575f5ffd5b5f35801560495762001fff810690815414603c575f5ffd5b62001fff01545f5260205ff35b5f5ffd5b62001fff42064281555f359062001fff015500",
                "storage": {
                    "0x03e8": "0x03e8"
                }
            },
            "0xfaa10b404ab607779993c016cd5da73ae1f29d7e": {
                "nonce": "0x01",
                "balance": "0xe8d4999e50",
                "code": "0x",
                "storage": {}
            },
            "0xa2e25f47a24c66cfef22d3304777a22d6dd7ad4a": {
                "nonce": "0x00",
                "balance": "0x00",
                "code": "0x6000600060006000600073888748026558f849c1b2433ea5e1daf1444dfc6061c350f150600c600255600c600355600c60045500",
                "storage": {}
            },
            "0x888748026558f849c1b2433ea5e1daf1444dfc60": {
                "nonce": "0x00",
                "balance": "0x00",
                "code": "0x7376fae819612a29489a1a43208613d8f8557b8898ff00",
                "storage": {}
            },
            "0x76fae819612a29489a1a43208613d8f8557b8898": {
                "nonce": "0x00",
                "balance": "0x0a",
                "code": "0x",
                "storage": {}
            }
        },
        "lastblockhash": "0x44c6ffeead0915d9c81d6e52f3fd14988f2740400a705684d693292f3fa7d2c8",
        "config": {
            "network": "Cancun",
            "chainid": "0x01",
            "blobSchedule": {
                "Cancun": {
                    "target": "0x03",
                    "max": "0x06",
                    "baseFeeUpdateFraction": "0x32f0ed"
                }
            }
        },
        "genesisRLP": "0xf9023cf90236a00000000000000000000000000000000000000000000000000000000000000000a01dcc4de8dec75d7aab85b567b6ccd41ad312451b948a7413f0a142fd40d49347940000000000000000000000000000000000000000a09011591d2a9a3f75472eea29d3339e38774a4bc36e67dd6f5a4b4b53e315d3bea056e81f171bcc55a6ff8345e692c0f86e5b48e01b996cadc001622fb5e363b421a056e81f171bcc55a6ff8345e692c0f86e5b48e01b996cadc001622fb5e363b421b901000000000000000000000000000000000000000000000000000000000000000000000000000000000000000000000000000000000000000000000000000000000000000000000000000000000000000000000000000000000000000000000000000000000000000000000000000000000000000000000000000000000000000000000000000000000000000000000000000000000000000000000000000000000000000000000000000000000000000000000000000000000000000000000000000000000000000000000000000000000000000000000000000000000000000000000000000000000000000000000000000000000000000000000000000000000080808407270e00808000a000000000000000000000000000000000000000000000000000000000000000008800000000000000000ba056e81f171bcc55a6ff8345e692c0f86e5b48e01b996cadc001622fb5e363b4218080a00000000000000000000000000000000000000000000000000000000000000000c0c0c0",
        "blocks": [
            {
                "blockHeader": {
                    "parentHash": "0x9063d22eefb2d7bdac20c37a8e3369a6ff0b981d1c3e4a4350909eb0b51b0322",
                    "uncleHash": "0x1dcc4de8dec75d7aab85b567b6ccd41ad312451b948a7413f0a142fd40d49347",
                    "coinbase": "0x2adc25665018aa1fe0e6bc666dac8fc2697ff9ba",
                    "stateRoot": "0x7279c38f7e235905ef2a40f96ffaf7b7676182e95b02f9603ceb684e2a7848e5",
                    "transactionsTrie": "0x0438579db9b4f3dd0e761d42bee2e8f9ea2c1a2136b19e8718b11b82d2f01afc",
                    "receiptTrie": "0x125ad3ea753d690f62898c2cc4ebd0b0beb8cd0940db90c6af7ca8c082829ae3",
                    "bloom": "0x00000000000000000000000000000000000000000000000000000000000000000000000000000000000000000000000000000000000000000000000000000000000000000000000000000000000000000000000000000000000000000000000000000000000000000000000000000000000000000000000000000000000000000000000000000000000000000000000000000000000000000000000000000000000000000000000000000000000000000000000000000000000000000000000000000000000000000000000000000000000000000000000000000000000000000000000000000000000000000000000000000000000000000000000000000000",
                    "difficulty": "0x00",
                    "number": "0x01",
                    "gasLimit": "0x07270e00",
                    "gasUsed": "0x0124f8",
                    "timestamp": "0x03e8",
                    "extraData": "0x00",
                    "mixHash": "0x0000000000000000000000000000000000000000000000000000000000020000",
                    "nonce": "0x0000000000000000",
                    "baseFeePerGas": "0x0a",
                    "withdrawalsRoot": "0x56e81f171bcc55a6ff8345e692c0f86e5b48e01b996cadc001622fb5e363b421",
                    "blobGasUsed": "0x00",
                    "excessBlobGas": "0x00",
                    "parentBeaconBlockRoot": "0x0000000000000000000000000000000000000000000000000000000000000000",
                    "hash": "0x44c6ffeead0915d9c81d6e52f3fd14988f2740400a705684d693292f3fa7d2c8"
                },
                "transactions": [
                    {
                        "type": "0x00",
                        "chainId": "0x01",
                        "nonce": "0x00",
                        "gasPrice": "0x0a",
                        "gasLimit": "0x0124f8",
                        "to": "0xa2e25f47a24c66cfef22d3304777a22d6dd7ad4a",
                        "value": "0x00",
                        "data": "0x",
                        "v": "0x25",
                        "r": "0x10f5fac92a3f3090380633efcacddafdb45668c11e6e8ad77f88b88bb1b49791",
                        "s": "0x47f0ef9ed9dee6edfc09e10ffa8c2b28e81f522db334725fdeac66a432cabed9",
                        "sender": "0xfaa10b404ab607779993c016cd5da73ae1f29d7e"
                    }
                ],
                "uncleHeaders": [],
                "withdrawals": [],
                "receipts": [
                    {
                        "transactionHash": "0x971f8e9ebb3f7bcb66755c48362778b6cc103425f5c655679ace0a3cd7c4bd6f",
                        "type": "0x00",
                        "cumulativeGasUsed": "0x0124f8",
                        "bloom": "0x00000000000000000000000000000000000000000000000000000000000000000000000000000000000000000000000000000000000000000000000000000000000000000000000000000000000000000000000000000000000000000000000000000000000000000000000000000000000000000000000000000000000000000000000000000000000000000000000000000000000000000000000000000000000000000000000000000000000000000000000000000000000000000000000000000000000000000000000000000000000000000000000000000000000000000000000000000000000000000000000000000000000000000000000000000000",
                        "logs": [],
                        "status": false,
                        "rlp": "0xf9010980830124f8b9010000000000000000000000000000000000000000000000000000000000000000000000000000000000000000000000000000000000000000000000000000000000000000000000000000000000000000000000000000000000000000000000000000000000000000000000000000000000000000000000000000000000000000000000000000000000000000000000000000000000000000000000000000000000000000000000000000000000000000000000000000000000000000000000000000000000000000000000000000000000000000000000000000000000000000000000000000000000000000000000000000000000000000000000000000000000c0"
                    }
                ],
                "rlp": "0xf902a4f9023ba09063d22eefb2d7bdac20c37a8e3369a6ff0b981d1c3e4a4350909eb0b51b0322a01dcc4de8dec75d7aab85b567b6ccd41ad312451b948a7413f0a142fd40d49347942adc25665018aa1fe0e6bc666dac8fc2697ff9baa07279c38f7e235905ef2a40f96ffaf7b7676182e95b02f9603ceb684e2a7848e5a00438579db9b4f3dd0e761d42bee2e8f9ea2c1a2136b19e8718b11b82d2f01afca0125ad3ea753d690f62898c2cc4ebd0b0beb8cd0940db90c6af7ca8c082829ae3b901000000000000000000000000000000000000000000000000000000000000000000000000000000000000000000000000000000000000000000000000000000000000000000000000000000000000000000000000000000000000000000000000000000000000000000000000000000000000000000000000000000000000000000000000000000000000000000000000000000000000000000000000000000000000000000000000000000000000000000000000000000000000000000000000000000000000000000000000000000000000000000000000000000000000000000000000000000000000000000000000000000000000000000000000000000000080018407270e00830124f88203e800a000000000000000000000000000000000000000000000000000000000000200008800000000000000000aa056e81f171bcc55a6ff8345e692c0f86e5b48e01b996cadc001622fb5e363b4218080a00000000000000000000000000000000000000000000000000000000000000000f862f860800a830124f894a2e25f47a24c66cfef22d3304777a22d6dd7ad4a808025a010f5fac92a3f3090380633efcacddafdb45668c11e6e8ad77f88b88bb1b49791a047f0ef9ed9dee6edfc09e10ffa8c2b28e81f522db334725fdeac66a432cabed9c0c0",
                "blocknumber": "1"
            }
        ],
        "sealEngine": "NoProof",
        "_info": {
            "hash": "0x86a556059804a2ccff80bdf94324e7d15f08b813ab7826e2dc62847b1125dca1",
            "fixture-format": "blockchain_test",
            "comment": "`execution-specs` generated test",
            "filling-transition-tool": "2.19.0",
            "description": "Test_zero_value_suicide_to_empty_oog_revert_paris.",
            "url": "https://github.com/ethereum/execution-specs/blob/tests-bal@v5.7.0/tests/ported_static/stZeroCallsRevert/test_zero_value_suicide_to_empty_oog_revert_paris.py#L25",
            "metadata": {
                "opcode_count": {}
            }
        }
    }
}