{
    "tests/osaka/eip7692_eof_v1/eip7620_eof_create/test_eofcreate.py::test_eofcreate_context[fork_Osaka-state_test-destination_code_ADDRESS-expected_result_destination]": {
        "env": {
            "currentCoinbase": "0x2adc25665018aa1fe0e6bc666dac8fc2697ff9ba",
            "currentGasLimit": "0x016345785d8a0000",
            "currentNumber": "0x01",
            "currentTimestamp": "0x03e8",
            "currentRandom": "0x0000000000000000000000000000000000000000000000000000000000000000",
            "currentDifficulty": "0x00",
            "currentBaseFee": "0x07",
            "currentExcessBlobGas": "0x00"
        },
        "pre": {
            "0xa94f5374fce5edbc8e2a8697c15331677e6ebf0b": {
                "nonce": "0x00",
                "balance": "0x3635c9adc5dea00000",
                "code": "0x",
                "storage": {}
            },
            "0x0000000000000000000000000000000000001000": {
                "nonce": "0x01",
                "balance": "0x00",
                "code": "0xef00010100040200010011030001003604000000008000046120156001556000600060006013ec0000ef0001010004020001000a030001001404000000008000023060055560006000ee00ef00010100040200010001040000000080000000",
                "storage": {}
            }
        },
        "transaction": {
            "nonce": "0x00",
            "gasPrice": "0x0a",
            "gasLimit": [
                "0x0f4240"
            ],
            "to": "0x0000000000000000000000000000000000001000",
            "value": [
                "0x1123"
            ],
            "data": [
                "0x"
            ],
            "sender": "0xa94f5374fce5edbc8e2a8697c15331677e6ebf0b",
            "secretKey": "0x45a915e4d060149eb4365960e6a7a45f334393093061116b197e3240065ff2d8"
        },
        "post": {
            "Osaka": [
                {
                    "hash": "0x7fba1e66cc38d0e5ea0d33e296b98fd97f07d0bd6c4034d2dbf79886f06f0c8b",
                    "logs": "0x1dcc4de8dec75d7aab85b567b6ccd41ad312451b948a7413f0a142fd40d49347",
                    "txbytes": "0xf862800a830f42409400000000000000000000000000000000000010008211238026a071c680acba971d7785a5981572816eac250613d6c13518514f20ddfde4081d60a00c5fdc7b238dbab89cce06a68e11b874041f25341b8f59d0fd6f3c47048acf71",
                    "indexes": {
                        "data": 0,
                        "gas": 0,
                        "value": 0
                    },
                    "state": {
                        "0x0000000000000000000000000000000000001000": {
                            "nonce": "0x02",
                            "balance": "0x1110",
                            "code": "0xef00010100040200010011030001003604000000008000046120156001556000600060006013ec0000ef0001010004020001000a030001001404000000008000023060055560006000ee00ef00010100040200010001040000000080000000",
                            "storage": {
                                "0x01": "0x2015"
                            }
                        },
                        "0x2adc25665018aa1fe0e6bc666dac8fc2697ff9ba": {
                            "nonce": "0x00",
                            "balance": "0x04a26b",
                            "code": "0x",
                            "storage": {}
                        },
                        "0x9e681a70e0a96d116c2591d0d755aa2c6877e90b": {
                            "nonce": "0x01",
                            "balance": "0x13",
                            "code": "0xef00010100040200010001040000000080000000",
                            "storage": {
                                "0x05": "0x9e681a70e0a96d116c2591d0d755aa2c6877e90b"
                            }
                        },
                        "0xa94f5374fce5edbc8e2a8697c15331677e6ebf0b": {
                            "nonce": "0x01",
                            "balance": "0x3635c9adc5de907c23",
                            "code": "0x",
                            "storage": {}
                        }
                    }
                }
            ]
        },
        "config": {
            "blobSchedule": {
                "Cancun": {
                    "target": "0x03",
                    "max": "0x06",
                    "baseFeeUpdateFraction": "0x32f0ed"
                },
                "Prague": {
                    "target": "0x06",
                    "max": "0x09",
                    "baseFeeUpdateFraction": "0x4c6964"
                }
            },
            "chainid": "0x01"
        },
        "_info": {
            "hash": "0x89c1808af42167bea6f17608a4de343dfa6a65a038cb2d1c8d91eceae654af89",
            "comment": "`execution-spec-tests` generated test",
            "filling-transition-tool": "evmone-t8n 0.14.0+commit.0be7b162",
            "description": "Test function documentation:\nTest EOFCREATE's initcode context instructions.",
            "url": "https://github.com/ethereum/execution-spec-tests/blob/eip7692@v2.2.0/tests/osaka/eip7692_eof_v1/eip7620_eof_create/test_eofcreate.py#L672",
            "fixture_format": "state_test",
            "reference-spec": "https://github.com/ethereum/EIPs/blob/master/EIPS/eip-7620.md",
            "reference-spec-version": "52ddbcdddcf72dd72427c319f2beddeb468e1737"
        }
    },
    "tests/osaka/eip7692_eof_v1/eip7620_eof_create/test_eofcreate.py::test_eofcreate_context[fork_Osaka-state_test-destination_code_CALLER-expected_result_caller]": {
        "env": {
            "currentCoinbase": "0x2adc25665018aa1fe0e6bc666dac8fc2697ff9ba",
            "currentGasLimit": "0x016345785d8a0000",
            "currentNumber": "0x01",
            "currentTimestamp": "0x03e8",
            "currentRandom": "0x0000000000000000000000000000000000000000000000000000000000000000",
            "currentDifficulty": "0x00",
            "currentBaseFee": "0x07",
            "currentExcessBlobGas": "0x00"
        },
        "pre": {
            "0xa94f5374fce5edbc8e2a8697c15331677e6ebf0b": {
                "nonce": "0x00",
                "balance": "0x3635c9adc5dea00000",
                "code": "0x",
                "storage": {}
            },
            "0x0000000000000000000000000000000000001000": {
                "nonce": "0x01",
                "balance": "0x00",
                "code": "0xef00010100040200010011030001003604000000008000046120156001556000600060006013ec0000ef0001010004020001000a030001001404000000008000023360055560006000ee00ef00010100040200010001040000000080000000",
                "storage": {}
            }
        },
        "transaction": {
            "nonce": "0x00",
            "gasPrice": "0x0a",
            "gasLimit": [
                "0x0f4240"
            ],
            "to": "0x0000000000000000000000000000000000001000",
            "value": [
                "0x1123"
            ],
            "data": [
                "0x"
            ],
            "sender": "0xa94f5374fce5edbc8e2a8697c15331677e6ebf0b",
            "secretKey": "0x45a915e4d060149eb4365960e6a7a45f334393093061116b197e3240065ff2d8"
        },
        "post": {
            "Osaka": [
                {
                    "hash": "0x28c87e70b34016b8a7da292ba2c7cee1d9030c8932f3da587693de9baf0b7126",
                    "logs": "0x1dcc4de8dec75d7aab85b567b6ccd41ad312451b948a7413f0a142fd40d49347",
                    "txbytes": "0xf862800a830f42409400000000000000000000000000000000000010008211238026a071c680acba971d7785a5981572816eac250613d6c13518514f20ddfde4081d60a00c5fdc7b238dbab89cce06a68e11b874041f25341b8f59d0fd6f3c47048acf71",
                    "indexes": {
                        "data": 0,
                        "gas": 0,
                        "value": 0
                    },
                    "state": {
                        "0x0000000000000000000000000000000000001000": {
                            "nonce": "0x02",
                            "balance": "0x1110",
                            "code": "0xef00010100040200010011030001003604000000008000046120156001556000600060006013ec0000ef0001010004020001000a030001001404000000008000023360055560006000ee00ef00010100040200010001040000000080000000",
                            "storage": {
                                "0x01": "0x2015"
                            }
                        },
                        "0x0b9cf377435f59115cefbc4095084aa781cd40df": {
                            "nonce": "0x01",
                            "balance": "0x13",
                            "code": "0xef00010100040200010001040000000080000000",
                            "storage": {
                                "0x05": "0x1000"
                            }
                        },
                        "0x2adc25665018aa1fe0e6bc666dac8fc2697ff9ba": {
                            "nonce": "0x00",
                            "balance": "0x04a26b",
                            "code": "0x",
                            "storage": {}
                        },
                        "0xa94f5374fce5edbc8e2a8697c15331677e6ebf0b": {
                            "nonce": "0x01",
                            "balance": "0x3635c9adc5de907c23",
                            "code": "0x",
                            "storage": {}
                        }
                    }
                }
            ]
        },
        "config": {
            "blobSchedule": {
                "Cancun": {
                    "target": "0x03",
                    "max": "0x06",
                    "baseFeeUpdateFraction": "0x32f0ed"
                },
                "Prague": {
                    "target": "0x06",
                    "max": "0x09",
                    "baseFeeUpdateFraction": "0x4c6964"
                }
            },
            "chainid": "0x01"
        },
        "_info": {
            "hash": "0xe88644cbed17225ceeea867b9b9d381dd2c4d59b4cda46c3e650232e3972ad6f",
            "comment": "`execution-spec-tests` generated test",
            "filling-transition-tool": "evmone-t8n 0.14.0+commit.0be7b162",
            "description": "Test function documentation:\nTest EOFCREATE's initcode context instructions.",
            "url": "https://github.com/ethereum/execution-spec-tests/blob/eip7692@v2.2.0/tests/osaka/eip7692_eof_v1/eip7620_eof_create/test_eofcreate.py#L672",
            "fixture_format": "state_test",
            "reference-spec": "https://github.com/ethereum/EIPs/blob/master/EIPS/eip-7620.md",
            "reference-spec-version": "52ddbcdddcf72dd72427c319f2beddeb468e1737"
        }
    },
    "tests/osaka/eip7692_eof_v1/eip7620_eof_create/test_eofcreate.py::test_eofcreate_context[fork_Osaka-state_test-destination_code_CALLVALUE-expected_result_eofcreate_value]": {
        "env": {
            "currentCoinbase": "0x2adc25665018aa1fe0e6bc666dac8fc2697ff9ba",
            "currentGasLimit": "0x016345785d8a0000",
            "currentNumber": "0x01",
            "currentTimestamp": "0x03e8",
            "currentRandom": "0x0000000000000000000000000000000000000000000000000000000000000000",
            "currentDifficulty": "0x00",
            "currentBaseFee": "0x07",
            "currentExcessBlobGas": "0x00"
        },
        "pre": {
            "0xa94f5374fce5edbc8e2a8697c15331677e6ebf0b": {
                "nonce": "0x00",
                "balance": "0x3635c9adc5dea00000",
                "code": "0x",
                "storage": {}
            },
            "0x0000000000000000000000000000000000001000": {
                "nonce": "0x01",
                "balance": "0x00",
                "code": "0xef00010100040200010011030001003604000000008000046120156001556000600060006013ec0000ef0001010004020001000a030001001404000000008000023460055560006000ee00ef00010100040200010001040000000080000000",
                "storage": {}
            }
        },
        "transaction": {
            "nonce": "0x00",
            "gasPrice": "0x0a",
            "gasLimit": [
                "0x0f4240"
            ],
            "to": "0x0000000000000000000000000000000000001000",
            "value": [
                "0x1123"
            ],
            "data": [
                "0x"
            ],
            "sender": "0xa94f5374fce5edbc8e2a8697c15331677e6ebf0b",
            "secretKey": "0x45a915e4d060149eb4365960e6a7a45f334393093061116b197e3240065ff2d8"
        },
        "post": {
            "Osaka": [
                {
                    "hash": "0xbe3cf17c27291b071e7684fc3b21f99017884f43f136bad12ffe4c70320473a1",
                    "logs": "0x1dcc4de8dec75d7aab85b567b6ccd41ad312451b948a7413f0a142fd40d49347",
                    "txbytes": "0xf862800a830f42409400000000000000000000000000000000000010008211238026a071c680acba971d7785a5981572816eac250613d6c13518514f20ddfde4081d60a00c5fdc7b238dbab89cce06a68e11b874041f25341b8f59d0fd6f3c47048acf71",
                    "indexes": {
                        "data": 0,
                        "gas": 0,
                        "value": 0
                    },
                    "state": {
                        "0x0000000000000000000000000000000000001000": {
                            "nonce": "0x02",
                            "balance": "0x1110",
                            "code": "0xef00010100040200010011030001003604000000008000046120156001556000600060006013ec0000ef0001010004020001000a030001001404000000008000023460055560006000ee00ef00010100040200010001040000000080000000",
                            "storage": {
                                "0x01": "0x2015"
                            }
                        },
                        "0x2adc25665018aa1fe0e6bc666dac8fc2697ff9ba": {
                            "nonce": "0x00",
                            "balance": "0x04a26b",
                            "code": "0x",
                            "storage": {}
                        },
                        "0xa94f5374fce5edbc8e2a8697c15331677e6ebf0b": {
                            "nonce": "0x01",
                            "balance": "0x3635c9adc5de907c23",
                            "code": "0x",
                            "storage": {}
                        },
                        "0xb020f48b66dbf33836c1baf2cdeb30ffdb311bf2": {
                            "nonce": "0x01",
                            "balance": "0x13",
                            "code": "0xef00010100040200010001040000000080000000",
                            "storage": {
                                "0x05": "0x13"
                            }
                        }
                    }
                }
            ]
        },
        "config": {
            "blobSchedule": {
                "Cancun": {
                    "target": "0x03",
                    "max": "0x06",
                    "baseFeeUpdateFraction": "0x32f0ed"
                },
                "Prague": {
                    "target": "0x06",
                    "max": "0x09",
                    "baseFeeUpdateFraction": "0x4c6964"
                }
            },
            "chainid": "0x01"
        },
        "_info": {
            "hash": "0xe28ae9cab8ff51d70800f3ca8f6a3ec0ad7ef2787d4c8cc7f6c04c1172de127f",
            "comment": "`execution-spec-tests` generated test",
            "filling-transition-tool": "evmone-t8n 0.14.0+commit.0be7b162",
            "description": "Test function documentation:\nTest EOFCREATE's initcode context instructions.",
            "url": "https://github.com/ethereum/execution-spec-tests/blob/eip7692@v2.2.0/tests/osaka/eip7692_eof_v1/eip7620_eof_create/test_eofcreate.py#L672",
            "fixture_format": "state_test",
            "reference-spec": "https://github.com/ethereum/EIPs/blob/master/EIPS/eip-7620.md",
            "reference-spec-version": "52ddbcdddcf72dd72427c319f2beddeb468e1737"
        }
    },
    "tests/osaka/eip7692_eof_v1/eip7620_eof_create/test_eofcreate.py::test_eofcreate_context[fork_Osaka-state_test-destination_code_ORIGIN-expected_result_sender]": {
        "env": {
            "currentCoinbase": "0x2adc25665018aa1fe0e6bc666dac8fc2697ff9ba",
            "currentGasLimit": "0x016345785d8a0000",
            "currentNumber": "0x01",
            "currentTimestamp": "0x03e8",
            "currentRandom": "0x0000000000000000000000000000000000000000000000000000000000000000",
            "currentDifficulty": "0x00",
            "currentBaseFee": "0x07",
            "currentExcessBlobGas": "0x00"
        },
        "pre": {
            "0xa94f5374fce5edbc8e2a8697c15331677e6ebf0b": {
                "nonce": "0x00",
                "balance": "0x3635c9adc5dea00000",
                "code": "0x",
                "storage": {}
            },
            "0x0000000000000000000000000000000000001000": {
                "nonce": "0x01",
                "balance": "0x00",
                "code": "0xef00010100040200010011030001003604000000008000046120156001556000600060006013ec0000ef0001010004020001000a030001001404000000008000023260055560006000ee00ef00010100040200010001040000000080000000",
                "storage": {}
            }
        },
        "transaction": {
            "nonce": "0x00",
            "gasPrice": "0x0a",
            "gasLimit": [
                "0x0f4240"
            ],
            "to": "0x0000000000000000000000000000000000001000",
            "value": [
                "0x1123"
            ],
            "data": [
                "0x"
            ],
            "sender": "0xa94f5374fce5edbc8e2a8697c15331677e6ebf0b",
            "secretKey": "0x45a915e4d060149eb4365960e6a7a45f334393093061116b197e3240065ff2d8"
        },
        "post": {
            "Osaka": [
                {
                    "hash": "0xf6f45a3d55f61325f6b193bbbe56290638a3beefaec4ad8c2c7069c319e1673c",
                    "logs": "0x1dcc4de8dec75d7aab85b567b6ccd41ad312451b948a7413f0a142fd40d49347",
                    "txbytes": "0xf862800a830f42409400000000000000000000000000000000000010008211238026a071c680acba971d7785a5981572816eac250613d6c13518514f20ddfde4081d60a00c5fdc7b238dbab89cce06a68e11b874041f25341b8f59d0fd6f3c47048acf71",
                    "indexes": {
                        "data": 0,
                        "gas": 0,
                        "value": 0
                    },
                    "state": {
                        "0x0000000000000000000000000000000000001000": {
                            "nonce": "0x02",
                            "balance": "0x1110",
                            "code": "0xef00010100040200010011030001003604000000008000046120156001556000600060006013ec0000ef0001010004020001000a030001001404000000008000023260055560006000ee00ef00010100040200010001040000000080000000",
                            "storage": {
                                "0x01": "0x2015"
                            }
                        },
                        "0x2adc25665018aa1fe0e6bc666dac8fc2697ff9ba": {
                            "nonce": "0x00",
                            "balance": "0x04a26b",
                            "code": "0x",
                            "storage": {}
                        },
                        "0xa58c2e749b794dad8401913dec68b69592d35cc5": {
                            "nonce": "0x01",
                            "balance": "0x13",
                            "code": "0xef00010100040200010001040000000080000000",
                            "storage": {
                                "0x05": "0xa94f5374fce5edbc8e2a8697c15331677e6ebf0b"
                            }
                        },
                        "0xa94f5374fce5edbc8e2a8697c15331677e6ebf0b": {
                            "nonce": "0x01",
                            "balance": "0x3635c9adc5de907c23",
                            "code": "0x",
                            "storage": {}
                        }
                    }
                }
            ]
        },
        "config": {
            "blobSchedule": {
                "Cancun": {
                    "target": "0x03",
                    "max": "0x06",
                    "baseFeeUpdateFraction": "0x32f0ed"
                },
                "Prague": {
                    "target": "0x06",
                    "max": "0x09",
                    "baseFeeUpdateFraction": "0x4c6964"
                }
            },
            "chainid": "0x01"
        },
        "_info": {
            "hash": "0xb357450f55f25b237dbab9ace175cc4f5e475da481299983a32a444cc0d6914f",
            "comment": "`execution-spec-tests` generated test",
            "filling-transition-tool": "evmone-t8n 0.14.0+commit.0be7b162",
            "description": "Test function documentation:\nTest EOFCREATE's initcode context instructions.",
            "url": "https://github.com/ethereum/execution-spec-tests/blob/eip7692@v2.2.0/tests/osaka/eip7692_eof_v1/eip7620_eof_create/test_eofcreate.py#L672",
            "fixture_format": "state_test",
            "reference-spec": "https://github.com/ethereum/EIPs/blob/master/EIPS/eip-7620.md",
            "reference-spec-version": "52ddbcdddcf72dd72427c319f2beddeb468e1737"
        }
    }
}