{
    "tests/static/state_tests/stCallCreateCallCodeTest/callcodeWithHighValueAndGasOOGFiller.json::callcodeWithHighValueAndGasOOG[fork_Cancun-blockchain_test_from_state_test-]": {
        "network": "Cancun",
        "genesisBlockHeader": {
            "parentHash": "0x0000000000000000000000000000000000000000000000000000000000000000",
            "uncleHash": "0x1dcc4de8dec75d7aab85b567b6ccd41ad312451b948a7413f0a142fd40d49347",
            "coinbase": "0x0000000000000000000000000000000000000000",
            "stateRoot": "0x846e2062555bc7266b4e12097ddeabc81f29e8d59765c7429052c5857ec9a31c",
            "transactionsTrie": "0x56e81f171bcc55a6ff8345e692c0f86e5b48e01b996cadc001622fb5e363b421",
            "receiptTrie": "0x56e81f171bcc55a6ff8345e692c0f86e5b48e01b996cadc001622fb5e363b421",
            "bloom": "0x00000000000000000000000000000000000000000000000000000000000000000000000000000000000000000000000000000000000000000000000000000000000000000000000000000000000000000000000000000000000000000000000000000000000000000000000000000000000000000000000000000000000000000000000000000000000000000000000000000000000000000000000000000000000000000000000000000000000000000000000000000000000000000000000000000000000000000000000000000000000000000000000000000000000000000000000000000000000000000000000000000000000000000000000000000000",
            "difficulty": "0x00",
            "number": "0x00",
            "gasLimit": "0x01c9c380",
            "gasUsed": "0x00",
            "timestamp": "0x00",
            "extraData": "0x00",
            "mixHash": "0x0000000000000000000000000000000000000000000000000000000000000000",
            "nonce": "0x0000000000000000",
            "baseFeePerGas": "0x0b",
            "withdrawalsRoot": "0x56e81f171bcc55a6ff8345e692c0f86e5b48e01b996cadc001622fb5e363b421",
            "blobGasUsed": "0x00",
            "excessBlobGas": "0x00",
            "parentBeaconBlockRoot": "0x0000000000000000000000000000000000000000000000000000000000000000",
            "hash": "0x8c444d21987b261593e9c680f7a1c6718be07fb54e1487e6ac9ee2276e0f4f6a"
        },
        "pre": {
            "0x000f3df6d732807ef1319fb7b8bb8522d0beac02": {
                "nonce": "0x01",
                "balance": "0x00",
                "code": "0x3373fffffffffffffffffffffffffffffffffffffffe14604d57602036146024575f5ffd5b5f35801560495762001fff810690815414603c575f5ffd5b62001fff01545f5260205ff35b5f5ffd5b62001fff42064281555f359062001fff015500",
                "storage": {}
            },
            "0xebaf50debf10e08302fe4280c32df010463ca297": {
                "nonce": "0x00",
                "balance": "0x0de0b6b3a7640000",
                "code": "0x",
                "storage": {}
            },
            "0x0896f13e800125c0ccec44f3c434335f0a97bc1b": {
                "nonce": "0x00",
                "balance": "0x17",
                "code": "0x6001600155603760005360026000f3",
                "storage": {}
            },
            "0x0b4e1c683c41f86dc747fbf0dd02cd4398b41373": {
                "nonce": "0x00",
                "balance": "0x0de0b6b3a7640000",
                "code": "0x7fffffffffffffffffffffffffffffffffffffffffffffffffffffffffffffffff6000527faaffffffffffffffffffffffffffffffffffffffffffffffffffffffffffffaa602052600260006040600068056bc75e2d63100000730896f13e800125c0ccec44f3c434335f0a97bc1b6bfffffffffffffffffffffffff260005500",
                "storage": {}
            }
        },
        "postState": {
            "0x000f3df6d732807ef1319fb7b8bb8522d0beac02": {
                "nonce": "0x01",
                "balance": "0x00",
                "code": "0x3373fffffffffffffffffffffffffffffffffffffffe14604d57602036146024575f5ffd5b5f35801560495762001fff810690815414603c575f5ffd5b62001fff01545f5260205ff35b5f5ffd5b62001fff42064281555f359062001fff015500",
                "storage": {
                    "0x03e8": "0x03e8"
                }
            },
            "0xebaf50debf10e08302fe4280c32df010463ca297": {
                "nonce": "0x01",
                "balance": "0x0de0b6b3a75d81f8",
                "code": "0x",
                "storage": {}
            },
            "0x0896f13e800125c0ccec44f3c434335f0a97bc1b": {
                "nonce": "0x00",
                "balance": "0x17",
                "code": "0x6001600155603760005360026000f3",
                "storage": {}
            },
            "0x0b4e1c683c41f86dc747fbf0dd02cd4398b41373": {
                "nonce": "0x00",
                "balance": "0x0de0b6b3a76586a0",
                "code": "0x7fffffffffffffffffffffffffffffffffffffffffffffffffffffffffffffffff6000527faaffffffffffffffffffffffffffffffffffffffffffffffffffffffffffffaa602052600260006040600068056bc75e2d63100000730896f13e800125c0ccec44f3c434335f0a97bc1b6bfffffffffffffffffffffffff260005500",
                "storage": {}
            }
        },
        "lastblockhash": "0x7769cf0647db2659d36538c9307ebf561e0f79e5cfe5cec7513d9ec297b070d0",
        "config": {
            "network": "Cancun",
            "chainid": "0x01",
            "blobSchedule": {
                "Cancun": {
                    "target": "0x03",
                    "max": "0x06",
                    "baseFeeUpdateFraction": "0x32f0ed"
                }
            }
        },
        "genesisRLP": "0xf9023cf90236a00000000000000000000000000000000000000000000000000000000000000000a01dcc4de8dec75d7aab85b567b6ccd41ad312451b948a7413f0a142fd40d49347940000000000000000000000000000000000000000a0846e2062555bc7266b4e12097ddeabc81f29e8d59765c7429052c5857ec9a31ca056e81f171bcc55a6ff8345e692c0f86e5b48e01b996cadc001622fb5e363b421a056e81f171bcc55a6ff8345e692c0f86e5b48e01b996cadc001622fb5e363b421b901000000000000000000000000000000000000000000000000000000000000000000000000000000000000000000000000000000000000000000000000000000000000000000000000000000000000000000000000000000000000000000000000000000000000000000000000000000000000000000000000000000000000000000000000000000000000000000000000000000000000000000000000000000000000000000000000000000000000000000000000000000000000000000000000000000000000000000000000000000000000000000000000000000000000000000000000000000000000000000000000000000000000000000000000000000000080808401c9c380808000a000000000000000000000000000000000000000000000000000000000000000008800000000000000000ba056e81f171bcc55a6ff8345e692c0f86e5b48e01b996cadc001622fb5e363b4218080a00000000000000000000000000000000000000000000000000000000000000000c0c0c0",
        "blocks": [
            {
                "blockHeader": {
                    "parentHash": "0x8c444d21987b261593e9c680f7a1c6718be07fb54e1487e6ac9ee2276e0f4f6a",
                    "uncleHash": "0x1dcc4de8dec75d7aab85b567b6ccd41ad312451b948a7413f0a142fd40d49347",
                    "coinbase": "0x2adc25665018aa1fe0e6bc666dac8fc2697ff9ba",
                    "stateRoot": "0xdc063795414fa23929a025215d371a0374b318ecd454269c2a40c337c1f81726",
                    "transactionsTrie": "0x9ce9ac505c72a4453620aa48880cecb9d2b3c871928707faf6abcf9f225b8823",
                    "receiptTrie": "0xbdac30f314c19aafd1bfdd674325ffe4cfcabc6b2db6b9140c8b28b13d91fa70",
                    "bloom": "0x00000000000000000000000000000000000000000000000000000000000000000000000000000000000000000000000000000000000000000000000000000000000000000000000000000000000000000000000000000000000000000000000000000000000000000000000000000000000000000000000000000000000000000000000000000000000000000000000000000000000000000000000000000000000000000000000000000000000000000000000000000000000000000000000000000000000000000000000000000000000000000000000000000000000000000000000000000000000000000000000000000000000000000000000000000000",
                    "difficulty": "0x00",
                    "number": "0x01",
                    "gasLimit": "0x01c9c380",
                    "gasUsed": "0x7f24",
                    "timestamp": "0x03e8",
                    "extraData": "0x00",
                    "mixHash": "0x0000000000000000000000000000000000000000000000000000000000020000",
                    "nonce": "0x0000000000000000",
                    "baseFeePerGas": "0x0a",
                    "withdrawalsRoot": "0x56e81f171bcc55a6ff8345e692c0f86e5b48e01b996cadc001622fb5e363b421",
                    "blobGasUsed": "0x00",
                    "excessBlobGas": "0x00",
                    "parentBeaconBlockRoot": "0x0000000000000000000000000000000000000000000000000000000000000000",
                    "hash": "0x7769cf0647db2659d36538c9307ebf561e0f79e5cfe5cec7513d9ec297b070d0"
                },
                "transactions": [
                    {
                        "type": "0x00",
                        "chainId": "0x01",
                        "nonce": "0x00",
                        "gasPrice": "0x0a",
                        "gasLimit": "0x2dc6c0",
                        "to": "0x0b4e1c683c41f86dc747fbf0dd02cd4398b41373",
                        "value": "0x0186a0",
                        "data": "0x",
                        "v": "0x26",
                        "r": "0x85aaef8bbbf099b78e1d32932d0cadccb4c35dd214ae61332ed291cb0a624a84",
                        "s": "0x67dd5358162d695aa1fbb634af788fb316f07821b67aca5401b38a40099fd0f8",
                        "sender": "0xebaf50debf10e08302fe4280c32df010463ca297"
                    }
                ],
                "uncleHeaders": [],
                "withdrawals": [],
                "receipts": [
                    {
                        "transactionHash": "0xca790ec8410f4117693186967e1b4e1751c6489c334d26edf0b258e25bbdd137",
                        "type": "0x00",
                        "cumulativeGasUsed": "0x7f24",
                        "bloom": "0x00000000000000000000000000000000000000000000000000000000000000000000000000000000000000000000000000000000000000000000000000000000000000000000000000000000000000000000000000000000000000000000000000000000000000000000000000000000000000000000000000000000000000000000000000000000000000000000000000000000000000000000000000000000000000000000000000000000000000000000000000000000000000000000000000000000000000000000000000000000000000000000000000000000000000000000000000000000000000000000000000000000000000000000000000000000",
                        "logs": [],
                        "status": true,
                        "rlp": "0xf9010801827f24b9010000000000000000000000000000000000000000000000000000000000000000000000000000000000000000000000000000000000000000000000000000000000000000000000000000000000000000000000000000000000000000000000000000000000000000000000000000000000000000000000000000000000000000000000000000000000000000000000000000000000000000000000000000000000000000000000000000000000000000000000000000000000000000000000000000000000000000000000000000000000000000000000000000000000000000000000000000000000000000000000000000000000000000000000000000000000c0"
                    }
                ],
                "rlp": "0xf902a6f9023aa08c444d21987b261593e9c680f7a1c6718be07fb54e1487e6ac9ee2276e0f4f6aa01dcc4de8dec75d7aab85b567b6ccd41ad312451b948a7413f0a142fd40d49347942adc25665018aa1fe0e6bc666dac8fc2697ff9baa0dc063795414fa23929a025215d371a0374b318ecd454269c2a40c337c1f81726a09ce9ac505c72a4453620aa48880cecb9d2b3c871928707faf6abcf9f225b8823a0bdac30f314c19aafd1bfdd674325ffe4cfcabc6b2db6b9140c8b28b13d91fa70b901000000000000000000000000000000000000000000000000000000000000000000000000000000000000000000000000000000000000000000000000000000000000000000000000000000000000000000000000000000000000000000000000000000000000000000000000000000000000000000000000000000000000000000000000000000000000000000000000000000000000000000000000000000000000000000000000000000000000000000000000000000000000000000000000000000000000000000000000000000000000000000000000000000000000000000000000000000000000000000000000000000000000000000000000000000000080018401c9c380827f248203e800a000000000000000000000000000000000000000000000000000000000000200008800000000000000000aa056e81f171bcc55a6ff8345e692c0f86e5b48e01b996cadc001622fb5e363b4218080a00000000000000000000000000000000000000000000000000000000000000000f865f863800a832dc6c0940b4e1c683c41f86dc747fbf0dd02cd4398b41373830186a08026a085aaef8bbbf099b78e1d32932d0cadccb4c35dd214ae61332ed291cb0a624a84a067dd5358162d695aa1fbb634af788fb316f07821b67aca5401b38a40099fd0f8c0c0",
                "blocknumber": "1"
            }
        ],
        "sealEngine": "NoProof",
        "_info": {
            "hash": "0x11df68a969acca97e6e0e441e4c94933dcda51ebf23aaffc17d3aea32add8d90",
            "fixture-format": "blockchain_test",
            "comment": "`execution-specs` generated test",
            "filling-transition-tool": "2.19.0",
            "description": "No description available - add a docstring to the python test class or function.",
            "url": "",
            "opcode_count": {}
        }
    }
}