{
    "tests/static/state_tests/stCallCreateCallCodeTest/createJS_NoCollisionFiller.json::createJS_NoCollision[fork_Cancun-blockchain_test_from_state_test-]": {
        "network": "Cancun",
        "genesisBlockHeader": {
            "parentHash": "0x0000000000000000000000000000000000000000000000000000000000000000",
            "uncleHash": "0x1dcc4de8dec75d7aab85b567b6ccd41ad312451b948a7413f0a142fd40d49347",
            "coinbase": "0x0000000000000000000000000000000000000000",
            "stateRoot": "0xf6ab35704df285e077b5f4f7c479eef720e4923425a3a50ba410b990a13a465b",
            "transactionsTrie": "0x56e81f171bcc55a6ff8345e692c0f86e5b48e01b996cadc001622fb5e363b421",
            "receiptTrie": "0x56e81f171bcc55a6ff8345e692c0f86e5b48e01b996cadc001622fb5e363b421",
            "bloom": "0x00000000000000000000000000000000000000000000000000000000000000000000000000000000000000000000000000000000000000000000000000000000000000000000000000000000000000000000000000000000000000000000000000000000000000000000000000000000000000000000000000000000000000000000000000000000000000000000000000000000000000000000000000000000000000000000000000000000000000000000000000000000000000000000000000000000000000000000000000000000000000000000000000000000000000000000000000000000000000000000000000000000000000000000000000000000",
            "difficulty": "0x00",
            "number": "0x00",
            "gasLimit": "0x0f4240",
            "gasUsed": "0x00",
            "timestamp": "0x00",
            "extraData": "0x00",
            "mixHash": "0x0000000000000000000000000000000000000000000000000000000000000000",
            "nonce": "0x0000000000000000",
            "baseFeePerGas": "0x0b",
            "withdrawalsRoot": "0x56e81f171bcc55a6ff8345e692c0f86e5b48e01b996cadc001622fb5e363b421",
            "blobGasUsed": "0x00",
            "excessBlobGas": "0x00",
            "parentBeaconBlockRoot": "0x0000000000000000000000000000000000000000000000000000000000000000",
            "hash": "0x042247fdaa676fe2a2cf97afe97d804fa362801c56ae3b7166662bdbec23cee8"
        },
        "pre": {
            "0x000f3df6d732807ef1319fb7b8bb8522d0beac02": {
                "nonce": "0x01",
                "balance": "0x00",
                "code": "0x3373fffffffffffffffffffffffffffffffffffffffe14604d57602036146024575f5ffd5b5f35801560495762001fff810690815414603c575f5ffd5b62001fff01545f5260205ff35b5f5ffd5b62001fff42064281555f359062001fff015500",
                "storage": {}
            },
            "0xa94f5374fce5edbc8e2a8697c15331677e6ebf0b": {
                "nonce": "0x00",
                "balance": "0x09184e72a000",
                "code": "0x",
                "storage": {}
            }
        },
        "postState": {
            "0x000f3df6d732807ef1319fb7b8bb8522d0beac02": {
                "nonce": "0x01",
                "balance": "0x00",
                "code": "0x3373fffffffffffffffffffffffffffffffffffffffe14604d57602036146024575f5ffd5b5f35801560495762001fff810690815414603c575f5ffd5b62001fff01545f5260205ff35b5f5ffd5b62001fff42064281555f359062001fff015500",
                "storage": {
                    "0x03e8": "0x03e8"
                }
            },
            "0xa94f5374fce5edbc8e2a8697c15331677e6ebf0b": {
                "nonce": "0x01",
                "balance": "0x09184e3a22d4",
                "code": "0x",
                "storage": {}
            },
            "0x6295ee1b4f6dd65047762f924ecd367c17eabf8f": {
                "nonce": "0x01",
                "balance": "0x0186a0",
                "code": "0x60003560e060020a9004806343d726d61461004257806391b7f5ed14610050578063d686f9ee14610061578063f5bade661461006f578063fcfff16f1461008057005b61004a6101de565b60006000f35b61005b6004356100bf565b60006000f35b610069610304565b60006000f35b61007a60043561008e565b60006000f35b6100886100f0565b60006000f35b600054600160a060020a031633600160a060020a031614156100af576100b4565b6100bc565b806001819055505b50565b600054600160a060020a031633600160a060020a031614156100e0576100e5565b6100ed565b806002819055505b50565b600054600160a060020a031633600160a060020a031614806101255750600354600160a060020a031633600160a060020a0316145b61012e57610161565b60016004819055507f59ebeb90bc63057b6515673c3ecf9438e5058bca0f92585014eced636878c9a560006000a16101dc565b60045460011480610173575060015434105b6101b85760016004819055507f59ebeb90bc63057b6515673c3ecf9438e5058bca0f92585014eced636878c9a560006000a142600581905550336003819055506101db565b33600160a060020a03166000346000600060006000848787f16101d757005b5050505b5b565b60006004546000146101ef576101f4565b610301565b600054600160a060020a031633600160a060020a031614801561022c5750600054600160a060020a0316600354600160a060020a0316145b61023557610242565b6000600481905550610301565b600354600160a060020a031633600160a060020a03161461026257610300565b600554420360025402905060015481116102c757600354600160a060020a0316600082600154036000600060006000848787f161029b57005b505050600054600160a060020a03166000826000600060006000848787f16102bf57005b5050506102ee565b600054600160a060020a031660006001546000600060006000848787f16102ea57005b5050505b60006004819055506000546003819055505b5b50565b6000600054600160a060020a031633600160a060020a031614156103275761032c565b61037e565b600554420360025402905060015481116103455761037d565b600054600160a060020a031660006001546000600060006000848787f161036857005b50505060006004819055506000546003819055505b5b5056",
                "storage": {
                    "0x00": "0xa94f5374fce5edbc8e2a8697c15331677e6ebf0b",
                    "0x01": "0x42",
                    "0x02": "0x23",
                    "0x05": "0x03e8",
                    "0x03": "0xa94f5374fce5edbc8e2a8697c15331677e6ebf0b"
                }
            }
        },
        "lastblockhash": "0x3b4d68023710af0a7b7bedfe1f9fae8b6613736b071fb975d513dc3203def2de",
        "config": {
            "network": "Cancun",
            "chainid": "0x01",
            "blobSchedule": {
                "Cancun": {
                    "target": "0x03",
                    "max": "0x06",
                    "baseFeeUpdateFraction": "0x32f0ed"
                }
            }
        },
        "genesisRLP": "0xf9023bf90235a00000000000000000000000000000000000000000000000000000000000000000a01dcc4de8dec75d7aab85b567b6ccd41ad312451b948a7413f0a142fd40d49347940000000000000000000000000000000000000000a0f6ab35704df285e077b5f4f7c479eef720e4923425a3a50ba410b990a13a465ba056e81f171bcc55a6ff8345e692c0f86e5b48e01b996cadc001622fb5e363b421a056e81f171bcc55a6ff8345e692c0f86e5b48e01b996cadc001622fb5e363b421b90100000000000000000000000000000000000000000000000000000000000000000000000000000000000000000000000000000000000000000000000000000000000000000000000000000000000000000000000000000000000000000000000000000000000000000000000000000000000000000000000000000000000000000000000000000000000000000000000000000000000000000000000000000000000000000000000000000000000000000000000000000000000000000000000000000000000000000000000000000000000000000000000000000000000000000000000000000000000000000000000000000000000000000000000000000000008080830f4240808000a000000000000000000000000000000000000000000000000000000000000000008800000000000000000ba056e81f171bcc55a6ff8345e692c0f86e5b48e01b996cadc001622fb5e363b4218080a00000000000000000000000000000000000000000000000000000000000000000c0c0c0",
        "blocks": [
            {
                "blockHeader": {
                    "parentHash": "0x042247fdaa676fe2a2cf97afe97d804fa362801c56ae3b7166662bdbec23cee8",
                    "uncleHash": "0x1dcc4de8dec75d7aab85b567b6ccd41ad312451b948a7413f0a142fd40d49347",
                    "coinbase": "0x2adc25665018aa1fe0e6bc666dac8fc2697ff9ba",
                    "stateRoot": "0xd1bc8f6473ee866792ad973d479bad5af7f4ddc09afc043796ccdb18db1a510f",
                    "transactionsTrie": "0x4ca3a13322269192d8b2aa218efa72941804fa76d8f14e87164b1969aededd62",
                    "receiptTrie": "0x9f53363f5fff4e3d3205027e54ef1242fb017a1087fbcdb360649370c667898f",
                    "bloom": "0x00000000000000000000000000000000000000000000000000000000000000000000000000000000000000000000000000000000000000000000000000000000000000000000000000000000000000000000000000000000000000000000000000000000000000000000000000000000000000000000000000000000000000000000000000000000000000000000000000000000000000000000000000000000000000000000000000000000000000000000000000000000000000000000000000000000000000000000000000000000000000000000000000000000000000000000000000000000000000000000000000000000000000000000000000000000",
                    "difficulty": "0x00",
                    "number": "0x01",
                    "gasLimit": "0x0f4240",
                    "gasUsed": "0x057f0e",
                    "timestamp": "0x03e8",
                    "extraData": "0x00",
                    "mixHash": "0x0000000000000000000000000000000000000000000000000000000000020000",
                    "nonce": "0x0000000000000000",
                    "baseFeePerGas": "0x0a",
                    "withdrawalsRoot": "0x56e81f171bcc55a6ff8345e692c0f86e5b48e01b996cadc001622fb5e363b421",
                    "blobGasUsed": "0x00",
                    "excessBlobGas": "0x00",
                    "parentBeaconBlockRoot": "0x0000000000000000000000000000000000000000000000000000000000000000",
                    "hash": "0x3b4d68023710af0a7b7bedfe1f9fae8b6613736b071fb975d513dc3203def2de"
                },
                "transactions": [
                    {
                        "type": "0x00",
                        "chainId": "0x01",
                        "nonce": "0x00",
                        "gasPrice": "0x0a",
                        "gasLimit": "0x0927c0",
                        "value": "0x0186a0",
                        "data": "0x60406103ca600439600451602451336000819055506000600481905550816001819055508060028190555042600581905550336003819055505050610381806100496000396000f30060003560e060020a9004806343d726d61461004257806391b7f5ed14610050578063d686f9ee14610061578063f5bade661461006f578063fcfff16f1461008057005b61004a6101de565b60006000f35b61005b6004356100bf565b60006000f35b610069610304565b60006000f35b61007a60043561008e565b60006000f35b6100886100f0565b60006000f35b600054600160a060020a031633600160a060020a031614156100af576100b4565b6100bc565b806001819055505b50565b600054600160a060020a031633600160a060020a031614156100e0576100e5565b6100ed565b806002819055505b50565b600054600160a060020a031633600160a060020a031614806101255750600354600160a060020a031633600160a060020a0316145b61012e57610161565b60016004819055507f59ebeb90bc63057b6515673c3ecf9438e5058bca0f92585014eced636878c9a560006000a16101dc565b60045460011480610173575060015434105b6101b85760016004819055507f59ebeb90bc63057b6515673c3ecf9438e5058bca0f92585014eced636878c9a560006000a142600581905550336003819055506101db565b33600160a060020a03166000346000600060006000848787f16101d757005b5050505b5b565b60006004546000146101ef576101f4565b610301565b600054600160a060020a031633600160a060020a031614801561022c5750600054600160a060020a0316600354600160a060020a0316145b61023557610242565b6000600481905550610301565b600354600160a060020a031633600160a060020a03161461026257610300565b600554420360025402905060015481116102c757600354600160a060020a0316600082600154036000600060006000848787f161029b57005b505050600054600160a060020a03166000826000600060006000848787f16102bf57005b5050506102ee565b600054600160a060020a031660006001546000600060006000848787f16102ea57005b5050505b60006004819055506000546003819055505b5b50565b6000600054600160a060020a031633600160a060020a031614156103275761032c565b61037e565b600554420360025402905060015481116103455761037d565b600054600160a060020a031660006001546000600060006000848787f161036857005b50505060006004819055506000546003819055505b5b505600000000000000000000000000000000000000000000000000000000000000420000000000000000000000000000000000000000000000000000000000000023",
                        "v": "0x25",
                        "r": "0xfa0143c499dac341ca0381c4e615b4cee7858e524f0d84944bdf2b58e8f10cc1",
                        "s": "0x7f81110822db74a73bf2d875d6f9b0c91ca30431be737f269834de5f33d2b480",
                        "sender": "0xa94f5374fce5edbc8e2a8697c15331677e6ebf0b",
                        "to": ""
                    }
                ],
                "uncleHeaders": [],
                "withdrawals": [],
                "receipts": [
                    {
                        "transactionHash": "0xf87bd780a03324beccb8bfc087386b1f3ee7cb31770461f684317f255bc7ee38",
                        "type": "0x00",
                        "cumulativeGasUsed": "0x057f0e",
                        "bloom": "0x00000000000000000000000000000000000000000000000000000000000000000000000000000000000000000000000000000000000000000000000000000000000000000000000000000000000000000000000000000000000000000000000000000000000000000000000000000000000000000000000000000000000000000000000000000000000000000000000000000000000000000000000000000000000000000000000000000000000000000000000000000000000000000000000000000000000000000000000000000000000000000000000000000000000000000000000000000000000000000000000000000000000000000000000000000000",
                        "logs": [],
                        "status": true,
                        "rlp": "0xf901090183057f0eb9010000000000000000000000000000000000000000000000000000000000000000000000000000000000000000000000000000000000000000000000000000000000000000000000000000000000000000000000000000000000000000000000000000000000000000000000000000000000000000000000000000000000000000000000000000000000000000000000000000000000000000000000000000000000000000000000000000000000000000000000000000000000000000000000000000000000000000000000000000000000000000000000000000000000000000000000000000000000000000000000000000000000000000000000000000000000c0"
                    }
                ],
                "rlp": "0xf906a0f9023aa0042247fdaa676fe2a2cf97afe97d804fa362801c56ae3b7166662bdbec23cee8a01dcc4de8dec75d7aab85b567b6ccd41ad312451b948a7413f0a142fd40d49347942adc25665018aa1fe0e6bc666dac8fc2697ff9baa0d1bc8f6473ee866792ad973d479bad5af7f4ddc09afc043796ccdb18db1a510fa04ca3a13322269192d8b2aa218efa72941804fa76d8f14e87164b1969aededd62a09f53363f5fff4e3d3205027e54ef1242fb017a1087fbcdb360649370c667898fb90100000000000000000000000000000000000000000000000000000000000000000000000000000000000000000000000000000000000000000000000000000000000000000000000000000000000000000000000000000000000000000000000000000000000000000000000000000000000000000000000000000000000000000000000000000000000000000000000000000000000000000000000000000000000000000000000000000000000000000000000000000000000000000000000000000000000000000000000000000000000000000000000000000000000000000000000000000000000000000000000000000000000000000000000000000000008001830f424083057f0e8203e800a000000000000000000000000000000000000000000000000000000000000200008800000000000000000aa056e81f171bcc55a6ff8345e692c0f86e5b48e01b996cadc001622fb5e363b4218080a00000000000000000000000000000000000000000000000000000000000000000f9045ef9045b800a830927c080830186a0b9040a60406103ca600439600451602451336000819055506000600481905550816001819055508060028190555042600581905550336003819055505050610381806100496000396000f30060003560e060020a9004806343d726d61461004257806391b7f5ed14610050578063d686f9ee14610061578063f5bade661461006f578063fcfff16f1461008057005b61004a6101de565b60006000f35b61005b6004356100bf565b60006000f35b610069610304565b60006000f35b61007a60043561008e565b60006000f35b6100886100f0565b60006000f35b600054600160a060020a031633600160a060020a031614156100af576100b4565b6100bc565b806001819055505b50565b600054600160a060020a031633600160a060020a031614156100e0576100e5565b6100ed565b806002819055505b50565b600054600160a060020a031633600160a060020a031614806101255750600354600160a060020a031633600160a060020a0316145b61012e57610161565b60016004819055507f59ebeb90bc63057b6515673c3ecf9438e5058bca0f92585014eced636878c9a560006000a16101dc565b60045460011480610173575060015434105b6101b85760016004819055507f59ebeb90bc63057b6515673c3ecf9438e5058bca0f92585014eced636878c9a560006000a142600581905550336003819055506101db565b33600160a060020a03166000346000600060006000848787f16101d757005b5050505b5b565b60006004546000146101ef576101f4565b610301565b600054600160a060020a031633600160a060020a031614801561022c5750600054600160a060020a0316600354600160a060020a0316145b61023557610242565b6000600481905550610301565b600354600160a060020a031633600160a060020a03161461026257610300565b600554420360025402905060015481116102c757600354600160a060020a0316600082600154036000600060006000848787f161029b57005b505050600054600160a060020a03166000826000600060006000848787f16102bf57005b5050506102ee565b600054600160a060020a031660006001546000600060006000848787f16102ea57005b5050505b60006004819055506000546003819055505b5b50565b6000600054600160a060020a031633600160a060020a031614156103275761032c565b61037e565b600554420360025402905060015481116103455761037d565b600054600160a060020a031660006001546000600060006000848787f161036857005b50505060006004819055506000546003819055505b5b50560000000000000000000000000000000000000000000000000000000000000042000000000000000000000000000000000000000000000000000000000000002325a0fa0143c499dac341ca0381c4e615b4cee7858e524f0d84944bdf2b58e8f10cc1a07f81110822db74a73bf2d875d6f9b0c91ca30431be737f269834de5f33d2b480c0c0",
                "blocknumber": "1"
            }
        ],
        "sealEngine": "NoProof",
        "_info": {
            "hash": "0xd8c8452386a6e7cc4e90da3da4eff293a49838dca9afbf8063b048a083180754",
            "fixture-format": "blockchain_test",
            "comment": "`execution-specs` generated test",
            "filling-transition-tool": "2.19.0",
            "description": "No description available - add a docstring to the python test class or function.",
            "url": "",
            "opcode_count": {}
        }
    }
}