{
    "tests/ported_static/stEIP1559/test_tip_too_high.py::test_tip_too_high[fork_Cancun-blockchain_test_from_state_test]": {
        "network": "Cancun",
        "genesisBlockHeader": {
            "parentHash": "0x0000000000000000000000000000000000000000000000000000000000000000",
            "uncleHash": "0x1dcc4de8dec75d7aab85b567b6ccd41ad312451b948a7413f0a142fd40d49347",
            "coinbase": "0x0000000000000000000000000000000000000000",
            "stateRoot": "0x2431f62ac5bf1d20e893b26e68a0bb16527edfa43c96a5d4d30f0dea966cf5ae",
            "transactionsTrie": "0x56e81f171bcc55a6ff8345e692c0f86e5b48e01b996cadc001622fb5e363b421",
            "receiptTrie": "0x56e81f171bcc55a6ff8345e692c0f86e5b48e01b996cadc001622fb5e363b421",
            "bloom": "0x00000000000000000000000000000000000000000000000000000000000000000000000000000000000000000000000000000000000000000000000000000000000000000000000000000000000000000000000000000000000000000000000000000000000000000000000000000000000000000000000000000000000000000000000000000000000000000000000000000000000000000000000000000000000000000000000000000000000000000000000000000000000000000000000000000000000000000000000000000000000000000000000000000000000000000000000000000000000000000000000000000000000000000000000000000000",
            "difficulty": "0x00",
            "number": "0x00",
            "gasLimit": "0xff112233445566",
            "gasUsed": "0x00",
            "timestamp": "0x00",
            "extraData": "0x00",
            "mixHash": "0x0000000000000000000000000000000000000000000000000000000000000000",
            "nonce": "0x0000000000000000",
            "baseFeePerGas": "0x0476",
            "withdrawalsRoot": "0x56e81f171bcc55a6ff8345e692c0f86e5b48e01b996cadc001622fb5e363b421",
            "blobGasUsed": "0x00",
            "excessBlobGas": "0x00",
            "parentBeaconBlockRoot": "0x0000000000000000000000000000000000000000000000000000000000000000",
            "hash": "0x908fcb36bf38f5a829286e13236348ea35b8beb1f94a7f1f4e80883b0b475bab"
        },
        "pre": {
            "0x000f3df6d732807ef1319fb7b8bb8522d0beac02": {
                "nonce": "0x01",
                "balance": "0x00",
                "code": "0x3373fffffffffffffffffffffffffffffffffffffffe14604d57602036146024575f5ffd5b5f35801560495762001fff810690815414603c575f5ffd5b62001fff01545f5260205ff35b5f5ffd5b62001fff42064281555f359062001fff015500",
                "storage": {}
            },
            "0x57bd80ea46be74523e9060337ed2dc017f1cbf2c": {
                "nonce": "0x01",
                "balance": "0x0de0b6b3a7640000",
                "code": "0x",
                "storage": {}
            },
            "0x7f1b08937551bd7370511d5c49bb8fa9de96b2bb": {
                "nonce": "0x00",
                "balance": "0x0de0b6b3a7640000",
                "code": "0x600260005500",
                "storage": {}
            }
        },
        "postState": {
            "0x000f3df6d732807ef1319fb7b8bb8522d0beac02": {
                "nonce": "0x01",
                "balance": "0x00",
                "code": "0x3373fffffffffffffffffffffffffffffffffffffffe14604d57602036146024575f5ffd5b5f35801560495762001fff810690815414603c575f5ffd5b62001fff01545f5260205ff35b5f5ffd5b62001fff42064281555f359062001fff015500",
                "storage": {}
            },
            "0x57bd80ea46be74523e9060337ed2dc017f1cbf2c": {
                "nonce": "0x01",
                "balance": "0x0de0b6b3a7640000",
                "code": "0x",
                "storage": {}
            },
            "0x7f1b08937551bd7370511d5c49bb8fa9de96b2bb": {
                "nonce": "0x00",
                "balance": "0x0de0b6b3a7640000",
                "code": "0x600260005500",
                "storage": {}
            }
        },
        "lastblockhash": "0x908fcb36bf38f5a829286e13236348ea35b8beb1f94a7f1f4e80883b0b475bab",
        "config": {
            "network": "Cancun",
            "chainid": "0x01",
            "blobSchedule": {
                "Cancun": {
                    "target": "0x03",
                    "max": "0x06",
                    "baseFeeUpdateFraction": "0x32f0ed"
                }
            }
        },
        "genesisRLP": "0xf90241f9023ba00000000000000000000000000000000000000000000000000000000000000000a01dcc4de8dec75d7aab85b567b6ccd41ad312451b948a7413f0a142fd40d49347940000000000000000000000000000000000000000a02431f62ac5bf1d20e893b26e68a0bb16527edfa43c96a5d4d30f0dea966cf5aea056e81f171bcc55a6ff8345e692c0f86e5b48e01b996cadc001622fb5e363b421a056e81f171bcc55a6ff8345e692c0f86e5b48e01b996cadc001622fb5e363b421b9010000000000000000000000000000000000000000000000000000000000000000000000000000000000000000000000000000000000000000000000000000000000000000000000000000000000000000000000000000000000000000000000000000000000000000000000000000000000000000000000000000000000000000000000000000000000000000000000000000000000000000000000000000000000000000000000000000000000000000000000000000000000000000000000000000000000000000000000000000000000000000000000000000000000000000000000000000000000000000000000000000000000000000000000000000000000808087ff112233445566808000a00000000000000000000000000000000000000000000000000000000000000000880000000000000000820476a056e81f171bcc55a6ff8345e692c0f86e5b48e01b996cadc001622fb5e363b4218080a00000000000000000000000000000000000000000000000000000000000000000c0c0c0",
        "blocks": [
            {
                "rlp": "0xf902b3f9023da0908fcb36bf38f5a829286e13236348ea35b8beb1f94a7f1f4e80883b0b475baba01dcc4de8dec75d7aab85b567b6ccd41ad312451b948a7413f0a142fd40d49347942adc25665018aa1fe0e6bc666dac8fc2697ff9baa0ade103f4cdf603c236adfef6a1581cdd276f4dc14b9e728e1ae123d0e093aa19a09c621961f29e3a21402f195a898ce8ff52309e1dcf6c8f0fd81e04e901f58906a056e81f171bcc55a6ff8345e692c0f86e5b48e01b996cadc001622fb5e363b421b9010000000000000000000000000000000000000000000000000000000000000000000000000000000000000000000000000000000000000000000000000000000000000000000000000000000000000000000000000000000000000000000000000000000000000000000000000000000000000000000000000000000000000000000000000000000000000000000000000000000000000000000000000000000000000000000000000000000000000000000000000000000000000000000000000000000000000000000000000000000000000000000000000000000000000000000000000000000000000000000000000000000000000000000000000000000000800187ff112233445566808203e800a000000000000000000000000000000000000000000000000000000000000200008800000000000000008203e8a056e81f171bcc55a6ff8345e692c0f86e5b48e01b996cadc001622fb5e363b4218080a00000000000000000000000000000000000000000000000000000000000000000f86fb86d02f86a01018203e98203e883061a80947f1b08937551bd7370511d5c49bb8fa9de96b2bb830186a000c080a0328e9e09ab8ecc0b5a5ffc98b5b4acd4a44f8300ff61acc65cf02afebe8035b2a032c128f20865a1a012a377be439ed001f652a9b8b2821d0055db6dae8366e51ec0c0",
                "expectException": "TransactionException.PRIORITY_GREATER_THAN_MAX_FEE_PER_GAS",
                "rlp_decoded": {
                    "blockHeader": {
                        "parentHash": "0x908fcb36bf38f5a829286e13236348ea35b8beb1f94a7f1f4e80883b0b475bab",
                        "uncleHash": "0x1dcc4de8dec75d7aab85b567b6ccd41ad312451b948a7413f0a142fd40d49347",
                        "coinbase": "0x2adc25665018aa1fe0e6bc666dac8fc2697ff9ba",
                        "stateRoot": "0xade103f4cdf603c236adfef6a1581cdd276f4dc14b9e728e1ae123d0e093aa19",
                        "transactionsTrie": "0x9c621961f29e3a21402f195a898ce8ff52309e1dcf6c8f0fd81e04e901f58906",
                        "receiptTrie": "0x56e81f171bcc55a6ff8345e692c0f86e5b48e01b996cadc001622fb5e363b421",
                        "bloom": "0x00000000000000000000000000000000000000000000000000000000000000000000000000000000000000000000000000000000000000000000000000000000000000000000000000000000000000000000000000000000000000000000000000000000000000000000000000000000000000000000000000000000000000000000000000000000000000000000000000000000000000000000000000000000000000000000000000000000000000000000000000000000000000000000000000000000000000000000000000000000000000000000000000000000000000000000000000000000000000000000000000000000000000000000000000000000",
                        "difficulty": "0x00",
                        "number": "0x01",
                        "gasLimit": "0xff112233445566",
                        "gasUsed": "0x00",
                        "timestamp": "0x03e8",
                        "extraData": "0x00",
                        "mixHash": "0x0000000000000000000000000000000000000000000000000000000000020000",
                        "nonce": "0x0000000000000000",
                        "baseFeePerGas": "0x03e8",
                        "withdrawalsRoot": "0x56e81f171bcc55a6ff8345e692c0f86e5b48e01b996cadc001622fb5e363b421",
                        "blobGasUsed": "0x00",
                        "excessBlobGas": "0x00",
                        "parentBeaconBlockRoot": "0x0000000000000000000000000000000000000000000000000000000000000000",
                        "hash": "0x618307d037f9d4e02d02cd699fa30ffa8f9bff740815676d8c8b83fe80ee25ac"
                    },
                    "transactions": [
                        {
                            "type": "0x02",
                            "chainId": "0x01",
                            "nonce": "0x01",
                            "maxPriorityFeePerGas": "0x03e9",
                            "maxFeePerGas": "0x03e8",
                            "gasLimit": "0x061a80",
                            "to": "0x7f1b08937551bd7370511d5c49bb8fa9de96b2bb",
                            "value": "0x0186a0",
                            "data": "0x00",
                            "accessList": [],
                            "v": "0x00",
                            "r": "0x328e9e09ab8ecc0b5a5ffc98b5b4acd4a44f8300ff61acc65cf02afebe8035b2",
                            "s": "0x32c128f20865a1a012a377be439ed001f652a9b8b2821d0055db6dae8366e51e",
                            "sender": "0x57bd80ea46be74523e9060337ed2dc017f1cbf2c"
                        }
                    ],
                    "uncleHeaders": [],
                    "withdrawals": [],
                    "blocknumber": "1"
                }
            }
        ],
        "sealEngine": "NoProof",
        "_info": {
            "hash": "0x941f9908e0f741e6d76e3c8aca52eb37ca3d05962d65b060e85a031f92147ebb",
            "fixture-format": "blockchain_test",
            "comment": "`execution-specs` generated test",
            "filling-transition-tool": "2.19.0",
            "description": "Ori Pomerantz qbzzt1@gmail.",
            "url": "https://github.com/ethereum/execution-specs/blob/tests-snobal-devnet-5@v8037.0.0/tests/ported_static/stEIP1559/test_tip_too_high.py#L24",
            "metadata": {
                "opcode_count": {}
            },
            "reference-spec": "https://github.com/ethereum/EIPs/blob/master/N/A",
            "reference-spec-version": "N/A"
        }
    }
}