{
    "tests/ported_static/stSolidityTest/test_contract_inheritance.py::test_contract_inheritance[fork_Cancun-blockchain_test_from_state_test]": {
        "network": "Cancun",
        "genesisBlockHeader": {
            "parentHash": "0x0000000000000000000000000000000000000000000000000000000000000000",
            "uncleHash": "0x1dcc4de8dec75d7aab85b567b6ccd41ad312451b948a7413f0a142fd40d49347",
            "coinbase": "0x0000000000000000000000000000000000000000",
            "stateRoot": "0xd710d56926bc46082621d1b53b7de7f9890a33493f8f49b58d316fc1f65de691",
            "transactionsTrie": "0x56e81f171bcc55a6ff8345e692c0f86e5b48e01b996cadc001622fb5e363b421",
            "receiptTrie": "0x56e81f171bcc55a6ff8345e692c0f86e5b48e01b996cadc001622fb5e363b421",
            "bloom": "0x00000000000000000000000000000000000000000000000000000000000000000000000000000000000000000000000000000000000000000000000000000000000000000000000000000000000000000000000000000000000000000000000000000000000000000000000000000000000000000000000000000000000000000000000000000000000000000000000000000000000000000000000000000000000000000000000000000000000000000000000000000000000000000000000000000000000000000000000000000000000000000000000000000000000000000000000000000000000000000000000000000000000000000000000000000000",
            "difficulty": "0x00",
            "number": "0x00",
            "gasLimit": "0x7fffffffffffffff",
            "gasUsed": "0x00",
            "timestamp": "0x00",
            "extraData": "0x00",
            "mixHash": "0x0000000000000000000000000000000000000000000000000000000000000000",
            "nonce": "0x0000000000000000",
            "baseFeePerGas": "0x0b",
            "withdrawalsRoot": "0x56e81f171bcc55a6ff8345e692c0f86e5b48e01b996cadc001622fb5e363b421",
            "blobGasUsed": "0x00",
            "excessBlobGas": "0x00",
            "parentBeaconBlockRoot": "0x0000000000000000000000000000000000000000000000000000000000000000",
            "hash": "0x339b29fcb59c27dc3b7b19a31a98f5a4d0e93c6757d88ccec319e26de1955243"
        },
        "pre": {
            "0x000f3df6d732807ef1319fb7b8bb8522d0beac02": {
                "nonce": "0x01",
                "balance": "0x00",
                "code": "0x3373fffffffffffffffffffffffffffffffffffffffe14604d57602036146024575f5ffd5b5f35801560495762001fff810690815414603c575f5ffd5b62001fff01545f5260205ff35b5f5ffd5b62001fff42064281555f359062001fff015500",
                "storage": {}
            },
            "0x3809b123c157b2d0d3b998255f35b5f8b8ae4789": {
                "nonce": "0x00",
                "balance": "0x0186a0",
                "code": "0x7c010000000000000000000000000000000000000000000000000000000060003504633e0bca3b8114610039578063c0406226146100a857005b6100b55b600160008060456101ec8339604560006000f091508173ffffffffffffffffffffffffffffffffffffffff166381bda09b60206000827c010000000000000000000000000000000000000000000000000000000002600052600460006000866161da5a03f161011957005b6100bf60006100c961003d565b8060005260206000f35b8060005260206000f35b600080547fffffffffffffffffffffffffffffffffffffffffffffffffffffffffffffff0016919091179081905560ff16919050565b505060005163ffffffff166002141561019d575b5b505090565b505060005163ffffffff1660011415610194575b60456101a7600039604560006000f090508073ffffffffffffffffffffffffffffffffffffffff166381bda09b60206000827c010000000000000000000000000000000000000000000000000000000002600052600460006000866161da5a03f16100ff57005b60009250610114565b600092506101145600603980600c6000396000f3007c0100000000000000000000000000000000000000000000000000000000600035046381bda09b8114602d57005b60026000818152602090f3603980600c6000396000f3007c0100000000000000000000000000000000000000000000000000000000600035046381bda09b8114602d57005b60016000818152602090f3",
                "storage": {}
            },
            "0x73c241c3bc4fdf83b6ff3ae73735fddf7c9d711d": {
                "nonce": "0x00",
                "balance": "0x012a05f200",
                "code": "0x",
                "storage": {}
            }
        },
        "postState": {
            "0x000f3df6d732807ef1319fb7b8bb8522d0beac02": {
                "nonce": "0x01",
                "balance": "0x00",
                "code": "0x3373fffffffffffffffffffffffffffffffffffffffe14604d57602036146024575f5ffd5b5f35801560495762001fff810690815414603c575f5ffd5b62001fff01545f5260205ff35b5f5ffd5b62001fff42064281555f359062001fff015500",
                "storage": {
                    "0x03e8": "0x03e8"
                }
            },
            "0x3809b123c157b2d0d3b998255f35b5f8b8ae4789": {
                "nonce": "0x02",
                "balance": "0x0186a0",
                "code": "0x7c010000000000000000000000000000000000000000000000000000000060003504633e0bca3b8114610039578063c0406226146100a857005b6100b55b600160008060456101ec8339604560006000f091508173ffffffffffffffffffffffffffffffffffffffff166381bda09b60206000827c010000000000000000000000000000000000000000000000000000000002600052600460006000866161da5a03f161011957005b6100bf60006100c961003d565b8060005260206000f35b8060005260206000f35b600080547fffffffffffffffffffffffffffffffffffffffffffffffffffffffffffffff0016919091179081905560ff16919050565b505060005163ffffffff166002141561019d575b5b505090565b505060005163ffffffff1660011415610194575b60456101a7600039604560006000f090508073ffffffffffffffffffffffffffffffffffffffff166381bda09b60206000827c010000000000000000000000000000000000000000000000000000000002600052600460006000866161da5a03f16100ff57005b60009250610114565b600092506101145600603980600c6000396000f3007c0100000000000000000000000000000000000000000000000000000000600035046381bda09b8114602d57005b60026000818152602090f3603980600c6000396000f3007c0100000000000000000000000000000000000000000000000000000000600035046381bda09b8114602d57005b60016000818152602090f3",
                "storage": {
                    "0x00": "0x01"
                }
            },
            "0x73c241c3bc4fdf83b6ff3ae73735fddf7c9d711d": {
                "nonce": "0x01",
                "balance": "0x0129f1fb74",
                "code": "0x",
                "storage": {}
            },
            "0x1571f89d2292ae5e46b8c8fd8ebbec038506edea": {
                "nonce": "0x01",
                "balance": "0x00",
                "code": "0x7c0100000000000000000000000000000000000000000000000000000000600035046381bda09b8114602d57005b60016000818152602090f3",
                "storage": {}
            },
            "0x4ea88aa7836fe10b497e4bb4984ec5b4346bd767": {
                "nonce": "0x01",
                "balance": "0x00",
                "code": "0x7c0100000000000000000000000000000000000000000000000000000000600035046381bda09b8114602d57005b60026000818152602090f3",
                "storage": {}
            }
        },
        "lastblockhash": "0x42b849ac895b5140d28ba1ad20be229fe77706c22165175f9c5ceff1a0c4961c",
        "config": {
            "network": "Cancun",
            "chainid": "0x01",
            "blobSchedule": {
                "Cancun": {
                    "target": "0x03",
                    "max": "0x06",
                    "baseFeeUpdateFraction": "0x32f0ed"
                }
            }
        },
        "genesisRLP": "0xf90240f9023aa00000000000000000000000000000000000000000000000000000000000000000a01dcc4de8dec75d7aab85b567b6ccd41ad312451b948a7413f0a142fd40d49347940000000000000000000000000000000000000000a0d710d56926bc46082621d1b53b7de7f9890a33493f8f49b58d316fc1f65de691a056e81f171bcc55a6ff8345e692c0f86e5b48e01b996cadc001622fb5e363b421a056e81f171bcc55a6ff8345e692c0f86e5b48e01b996cadc001622fb5e363b421b90100000000000000000000000000000000000000000000000000000000000000000000000000000000000000000000000000000000000000000000000000000000000000000000000000000000000000000000000000000000000000000000000000000000000000000000000000000000000000000000000000000000000000000000000000000000000000000000000000000000000000000000000000000000000000000000000000000000000000000000000000000000000000000000000000000000000000000000000000000000000000000000000000000000000000000000000000000000000000000000000000000000000000000000000000000000008080887fffffffffffffff808000a000000000000000000000000000000000000000000000000000000000000000008800000000000000000ba056e81f171bcc55a6ff8345e692c0f86e5b48e01b996cadc001622fb5e363b4218080a00000000000000000000000000000000000000000000000000000000000000000c0c0c0",
        "blocks": [
            {
                "blockHeader": {
                    "parentHash": "0x339b29fcb59c27dc3b7b19a31a98f5a4d0e93c6757d88ccec319e26de1955243",
                    "uncleHash": "0x1dcc4de8dec75d7aab85b567b6ccd41ad312451b948a7413f0a142fd40d49347",
                    "coinbase": "0x2adc25665018aa1fe0e6bc666dac8fc2697ff9ba",
                    "stateRoot": "0x8b7fb71310dfdf6ccff272c67c5573917df332f24a355addff799a22e044159f",
                    "transactionsTrie": "0x21855ed3467de22e79014f4495664a57228a3888d4d31d8a95eb67a840eb5fa9",
                    "receiptTrie": "0x2eecdb5d2444190b3df1086212afb1417ba218a9b69207346737499126bddc6f",
                    "bloom": "0x00000000000000000000000000000000000000000000000000000000000000000000000000000000000000000000000000000000000000000000000000000000000000000000000000000000000000000000000000000000000000000000000000000000000000000000000000000000000000000000000000000000000000000000000000000000000000000000000000000000000000000000000000000000000000000000000000000000000000000000000000000000000000000000000000000000000000000000000000000000000000000000000000000000000000000000000000000000000000000000000000000000000000000000000000000000",
                    "difficulty": "0x00",
                    "number": "0x01",
                    "gasLimit": "0x7fffffffffffffff",
                    "gasUsed": "0x01ff0e",
                    "timestamp": "0x03e8",
                    "extraData": "0x00",
                    "mixHash": "0x0000000000000000000000000000000000000000000000000000000000020000",
                    "nonce": "0x0000000000000000",
                    "baseFeePerGas": "0x0a",
                    "withdrawalsRoot": "0x56e81f171bcc55a6ff8345e692c0f86e5b48e01b996cadc001622fb5e363b421",
                    "blobGasUsed": "0x00",
                    "excessBlobGas": "0x00",
                    "parentBeaconBlockRoot": "0x0000000000000000000000000000000000000000000000000000000000000000",
                    "hash": "0x42b849ac895b5140d28ba1ad20be229fe77706c22165175f9c5ceff1a0c4961c"
                },
                "transactions": [
                    {
                        "type": "0x00",
                        "chainId": "0x01",
                        "nonce": "0x00",
                        "gasPrice": "0x0a",
                        "gasLimit": "0x02160ec0",
                        "to": "0x3809b123c157b2d0d3b998255f35b5f8b8ae4789",
                        "value": "0x00",
                        "data": "0xc0406226",
                        "v": "0x26",
                        "r": "0xb07044286816c8b3ef8fea1a676240f6bef2ea110af4852762eb7c7ef8b34f32",
                        "s": "0x3b98493078761764fc37dfa134ad99528b4153905231ef3a585053f586bd220d",
                        "sender": "0x73c241c3bc4fdf83b6ff3ae73735fddf7c9d711d"
                    }
                ],
                "uncleHeaders": [],
                "withdrawals": [],
                "receipts": [
                    {
                        "transactionHash": "0xfa7f9b3149600b9d6e62f74dd4274c9c42fde6b01f749bc0813680ed4f2e0719",
                        "type": "0x00",
                        "cumulativeGasUsed": "0x01ff0e",
                        "bloom": "0x00000000000000000000000000000000000000000000000000000000000000000000000000000000000000000000000000000000000000000000000000000000000000000000000000000000000000000000000000000000000000000000000000000000000000000000000000000000000000000000000000000000000000000000000000000000000000000000000000000000000000000000000000000000000000000000000000000000000000000000000000000000000000000000000000000000000000000000000000000000000000000000000000000000000000000000000000000000000000000000000000000000000000000000000000000000",
                        "logs": [],
                        "status": true,
                        "rlp": "0xf90109018301ff0eb9010000000000000000000000000000000000000000000000000000000000000000000000000000000000000000000000000000000000000000000000000000000000000000000000000000000000000000000000000000000000000000000000000000000000000000000000000000000000000000000000000000000000000000000000000000000000000000000000000000000000000000000000000000000000000000000000000000000000000000000000000000000000000000000000000000000000000000000000000000000000000000000000000000000000000000000000000000000000000000000000000000000000000000000000000000000000c0"
                    }
                ],
                "rlp": "0xf902adf9023fa0339b29fcb59c27dc3b7b19a31a98f5a4d0e93c6757d88ccec319e26de1955243a01dcc4de8dec75d7aab85b567b6ccd41ad312451b948a7413f0a142fd40d49347942adc25665018aa1fe0e6bc666dac8fc2697ff9baa08b7fb71310dfdf6ccff272c67c5573917df332f24a355addff799a22e044159fa021855ed3467de22e79014f4495664a57228a3888d4d31d8a95eb67a840eb5fa9a02eecdb5d2444190b3df1086212afb1417ba218a9b69207346737499126bddc6fb90100000000000000000000000000000000000000000000000000000000000000000000000000000000000000000000000000000000000000000000000000000000000000000000000000000000000000000000000000000000000000000000000000000000000000000000000000000000000000000000000000000000000000000000000000000000000000000000000000000000000000000000000000000000000000000000000000000000000000000000000000000000000000000000000000000000000000000000000000000000000000000000000000000000000000000000000000000000000000000000000000000000000000000000000000000000008001887fffffffffffffff8301ff0e8203e800a000000000000000000000000000000000000000000000000000000000000200008800000000000000000aa056e81f171bcc55a6ff8345e692c0f86e5b48e01b996cadc001622fb5e363b4218080a00000000000000000000000000000000000000000000000000000000000000000f867f865800a8402160ec0943809b123c157b2d0d3b998255f35b5f8b8ae47898084c040622626a0b07044286816c8b3ef8fea1a676240f6bef2ea110af4852762eb7c7ef8b34f32a03b98493078761764fc37dfa134ad99528b4153905231ef3a585053f586bd220dc0c0",
                "blocknumber": "1"
            }
        ],
        "sealEngine": "NoProof",
        "_info": {
            "hash": "0x563ba90402ba4e14018dae2d84d91b27a132e602069355e4befdcbb72233a5d5",
            "fixture-format": "blockchain_test",
            "comment": "`execution-specs` generated test",
            "filling-transition-tool": "2.19.0",
            "description": "Test_contract_inheritance.",
            "url": "https://github.com/ethereum/execution-specs/blob/tests-bal@v5.6.0/tests/ported_static/stSolidityTest/test_contract_inheritance.py#L25",
            "metadata": {
                "opcode_count": {}
            }
        }
    }
}