{
    "tests/berlin/eip2930_access_list/test_tx_type.py::test_eip2930_tx_validity[fork_Berlin-valid-blockchain_test_from_state_test]": {
        "network": "Berlin",
        "genesisBlockHeader": {
            "parentHash": "0x0000000000000000000000000000000000000000000000000000000000000000",
            "uncleHash": "0x1dcc4de8dec75d7aab85b567b6ccd41ad312451b948a7413f0a142fd40d49347",
            "coinbase": "0x0000000000000000000000000000000000000000",
            "stateRoot": "0x43c19943b2c4a638fe07dbc954c1422032ea7c5e17d0d659f25a5324ed75f0be",
            "transactionsTrie": "0x56e81f171bcc55a6ff8345e692c0f86e5b48e01b996cadc001622fb5e363b421",
            "receiptTrie": "0x56e81f171bcc55a6ff8345e692c0f86e5b48e01b996cadc001622fb5e363b421",
            "bloom": "0x00000000000000000000000000000000000000000000000000000000000000000000000000000000000000000000000000000000000000000000000000000000000000000000000000000000000000000000000000000000000000000000000000000000000000000000000000000000000000000000000000000000000000000000000000000000000000000000000000000000000000000000000000000000000000000000000000000000000000000000000000000000000000000000000000000000000000000000000000000000000000000000000000000000000000000000000000000000000000000000000000000000000000000000000000000000",
            "difficulty": "0x020000",
            "number": "0x00",
            "gasLimit": "0x07270e00",
            "gasUsed": "0x00",
            "timestamp": "0x00",
            "extraData": "0x00",
            "mixHash": "0x0000000000000000000000000000000000000000000000000000000000000000",
            "nonce": "0x0000000000000000",
            "hash": "0x1e8f861e5b7415d1db128c027b0dfd53dd4e307f91148864d1e3df33e7181703"
        },
        "pre": {
            "0x67eb8fcbef83a0662b030f8bc89a10070c167a66": {
                "nonce": "0x01",
                "balance": "0x00",
                "code": "0x6001600055",
                "storage": {
                    "0x00": "0xdeadbeef"
                }
            },
            "0x1ad9bc24818784172ff393bb6f89f094d4d2ca29": {
                "nonce": "0x00",
                "balance": "0x3635c9adc5dea00000",
                "code": "0x",
                "storage": {}
            }
        },
        "postState": {
            "0x67eb8fcbef83a0662b030f8bc89a10070c167a66": {
                "nonce": "0x01",
                "balance": "0x00",
                "code": "0x6001600055",
                "storage": {
                    "0x00": "0x01"
                }
            },
            "0x1ad9bc24818784172ff393bb6f89f094d4d2ca29": {
                "nonce": "0x01",
                "balance": "0x3635c9adc5de9c0824",
                "code": "0x",
                "storage": {}
            },
            "0x2adc25665018aa1fe0e6bc666dac8fc2697ff9ba": {
                "nonce": "0x00",
                "balance": "0x1bc16d674ecbf7dc",
                "code": "0x",
                "storage": {}
            }
        },
        "lastblockhash": "0x3b9c806b290d9183287f8a414808165e6abf94da8b74697dadc7f937edd4cabd",
        "config": {
            "network": "Berlin",
            "chainid": "0x01"
        },
        "genesisRLP": "0xf901f9f901f4a00000000000000000000000000000000000000000000000000000000000000000a01dcc4de8dec75d7aab85b567b6ccd41ad312451b948a7413f0a142fd40d49347940000000000000000000000000000000000000000a043c19943b2c4a638fe07dbc954c1422032ea7c5e17d0d659f25a5324ed75f0bea056e81f171bcc55a6ff8345e692c0f86e5b48e01b996cadc001622fb5e363b421a056e81f171bcc55a6ff8345e692c0f86e5b48e01b996cadc001622fb5e363b421b901000000000000000000000000000000000000000000000000000000000000000000000000000000000000000000000000000000000000000000000000000000000000000000000000000000000000000000000000000000000000000000000000000000000000000000000000000000000000000000000000000000000000000000000000000000000000000000000000000000000000000000000000000000000000000000000000000000000000000000000000000000000000000000000000000000000000000000000000000000000000000000000000000000000000000000000000000000000000000000000000000000000000000000000000000000000083020000808407270e00808000a00000000000000000000000000000000000000000000000000000000000000000880000000000000000c0c0",
        "blocks": [
            {
                "blockHeader": {
                    "parentHash": "0x1e8f861e5b7415d1db128c027b0dfd53dd4e307f91148864d1e3df33e7181703",
                    "uncleHash": "0x1dcc4de8dec75d7aab85b567b6ccd41ad312451b948a7413f0a142fd40d49347",
                    "coinbase": "0x2adc25665018aa1fe0e6bc666dac8fc2697ff9ba",
                    "stateRoot": "0x6ade6aa0e7bdca518ca0f80c39035eda4f6d83f78ac0ef6778be27b6646b550d",
                    "transactionsTrie": "0x3e3439f2ec7c58232a9466f836a73c3e5418502945a9fc42c15c2c4f4c1326f8",
                    "receiptTrie": "0xa1f5a1a555a353beb4e36cdc484300b359cb296948e445697d7342ec9016ad90",
                    "bloom": "0x00000000000000000000000000000000000000000000000000000000000000000000000000000000000000000000000000000000000000000000000000000000000000000000000000000000000000000000000000000000000000000000000000000000000000000000000000000000000000000000000000000000000000000000000000000000000000000000000000000000000000000000000000000000000000000000000000000000000000000000000000000000000000000000000000000000000000000000000000000000000000000000000000000000000000000000000000000000000000000000000000000000000000000000000000000000",
                    "difficulty": "0x020000",
                    "number": "0x01",
                    "gasLimit": "0x07270e00",
                    "gasUsed": "0x6596",
                    "timestamp": "0x03e8",
                    "extraData": "0x00",
                    "mixHash": "0x0000000000000000000000000000000000000000000000000000000000000000",
                    "nonce": "0x0000000000000000",
                    "hash": "0x3b9c806b290d9183287f8a414808165e6abf94da8b74697dadc7f937edd4cabd"
                },
                "transactions": [
                    {
                        "type": "0x01",
                        "chainId": "0x01",
                        "nonce": "0x00",
                        "gasPrice": "0x0a",
                        "gasLimit": "0x0186a0",
                        "to": "0x67eb8fcbef83a0662b030f8bc89a10070c167a66",
                        "value": "0x00",
                        "data": "0x",
                        "accessList": [],
                        "v": "0x00",
                        "r": "0xe7fe6201a5aebd9bf3df87f72251ac14c10f23a92d81b76daf4b144153225ee5",
                        "s": "0x75983d40a4928cd172eefa450028ac24c29b412055b25c1aa5a90398f1c30fcc",
                        "sender": "0x1ad9bc24818784172ff393bb6f89f094d4d2ca29"
                    }
                ],
                "uncleHeaders": [],
                "receipts": [
                    {
                        "transactionHash": "0xd0ccb9e414a96febcadf943006b12f686e12b65f1d9f80691811856e99ea5c9a",
                        "type": "0x01",
                        "cumulativeGasUsed": "0x6596",
                        "bloom": "0x00000000000000000000000000000000000000000000000000000000000000000000000000000000000000000000000000000000000000000000000000000000000000000000000000000000000000000000000000000000000000000000000000000000000000000000000000000000000000000000000000000000000000000000000000000000000000000000000000000000000000000000000000000000000000000000000000000000000000000000000000000000000000000000000000000000000000000000000000000000000000000000000000000000000000000000000000000000000000000000000000000000000000000000000000000000",
                        "logs": [],
                        "status": true,
                        "rlp": "0x01f9010801826596b9010000000000000000000000000000000000000000000000000000000000000000000000000000000000000000000000000000000000000000000000000000000000000000000000000000000000000000000000000000000000000000000000000000000000000000000000000000000000000000000000000000000000000000000000000000000000000000000000000000000000000000000000000000000000000000000000000000000000000000000000000000000000000000000000000000000000000000000000000000000000000000000000000000000000000000000000000000000000000000000000000000000000000000000000000000000000c0"
                    }
                ],
                "rlp": "0xf90265f901f8a01e8f861e5b7415d1db128c027b0dfd53dd4e307f91148864d1e3df33e7181703a01dcc4de8dec75d7aab85b567b6ccd41ad312451b948a7413f0a142fd40d49347942adc25665018aa1fe0e6bc666dac8fc2697ff9baa06ade6aa0e7bdca518ca0f80c39035eda4f6d83f78ac0ef6778be27b6646b550da03e3439f2ec7c58232a9466f836a73c3e5418502945a9fc42c15c2c4f4c1326f8a0a1f5a1a555a353beb4e36cdc484300b359cb296948e445697d7342ec9016ad90b901000000000000000000000000000000000000000000000000000000000000000000000000000000000000000000000000000000000000000000000000000000000000000000000000000000000000000000000000000000000000000000000000000000000000000000000000000000000000000000000000000000000000000000000000000000000000000000000000000000000000000000000000000000000000000000000000000000000000000000000000000000000000000000000000000000000000000000000000000000000000000000000000000000000000000000000000000000000000000000000000000000000000000000000000000000000083020000018407270e008265968203e800a00000000000000000000000000000000000000000000000000000000000000000880000000000000000f867b86501f86201800a830186a09467eb8fcbef83a0662b030f8bc89a10070c167a668080c080a0e7fe6201a5aebd9bf3df87f72251ac14c10f23a92d81b76daf4b144153225ee5a075983d40a4928cd172eefa450028ac24c29b412055b25c1aa5a90398f1c30fccc0",
                "blocknumber": "1"
            }
        ],
        "sealEngine": "NoProof",
        "_info": {
            "hash": "0x0f5bb4baa81ace4ffaa7aabe6fbf6ed76a4d939fc2f5128e37a6843fbda0b0cf",
            "fixture-format": "blockchain_test",
            "comment": "`execution-specs` generated test",
            "filling-transition-tool": "2.19.0",
            "description": "Tests that an EIP-2930 tx is correctly rejected before fork activation.",
            "url": "https://github.com/ethereum/execution-specs/blob/tests-bal@v5.4.0/tests/berlin/eip2930_access_list/test_tx_type.py#L37",
            "opcode_count": {},
            "reference-spec": "https://github.com/ethereum/EIPs/blob/master/EIPS/eip-2930.md",
            "reference-spec-version": "c9db53a936c5c9cbe2db32ba0d1b86c4c6e73534"
        }
    }
}