{
    "tests/frontier/identity_precompile/test_identity.py::test_call_identity_precompile_large_params[fork_Byzantium-blockchain_test_from_state_test-tx_gas_limit_10000000-identity_5-call_type_CALLCODE]": {
        "network": "Byzantium",
        "genesisBlockHeader": {
            "parentHash": "0x0000000000000000000000000000000000000000000000000000000000000000",
            "uncleHash": "0x1dcc4de8dec75d7aab85b567b6ccd41ad312451b948a7413f0a142fd40d49347",
            "coinbase": "0x0000000000000000000000000000000000000000",
            "stateRoot": "0x87544e2d5b6dfa111e5fa90061843c3a6227a2d909242585fd91ed4fa75f32c8",
            "transactionsTrie": "0x56e81f171bcc55a6ff8345e692c0f86e5b48e01b996cadc001622fb5e363b421",
            "receiptTrie": "0x56e81f171bcc55a6ff8345e692c0f86e5b48e01b996cadc001622fb5e363b421",
            "bloom": "0x00000000000000000000000000000000000000000000000000000000000000000000000000000000000000000000000000000000000000000000000000000000000000000000000000000000000000000000000000000000000000000000000000000000000000000000000000000000000000000000000000000000000000000000000000000000000000000000000000000000000000000000000000000000000000000000000000000000000000000000000000000000000000000000000000000000000000000000000000000000000000000000000000000000000000000000000000000000000000000000000000000000000000000000000000000000",
            "difficulty": "0x020000",
            "number": "0x00",
            "gasLimit": "0x07270e00",
            "gasUsed": "0x00",
            "timestamp": "0x00",
            "extraData": "0x00",
            "mixHash": "0x0000000000000000000000000000000000000000000000000000000000000000",
            "nonce": "0x0000000000000000",
            "hash": "0x560b1cb37e1d9b279354d756c9b6e4056a1e63d28279b0001d961731d0a4b1f0"
        },
        "pre": {
            "0xe8ed8b66f5635ba39d1c821322c7e9676d518bdc": {
                "nonce": "0x01",
                "balance": "0x00",
                "code": "0x7fffffffffffffffffffffffffffffffffffffffffffffffffffffffffffffffff60005260206000620f4240600060006004610258f260005560005160015500",
                "storage": {
                    "0x00": "0xba5e"
                }
            },
            "0x1ad9bc24818784172ff393bb6f89f094d4d2ca29": {
                "nonce": "0x00",
                "balance": "0x3635c9adc5dea00000",
                "code": "0x",
                "storage": {}
            }
        },
        "postState": {
            "0xe8ed8b66f5635ba39d1c821322c7e9676d518bdc": {
                "nonce": "0x01",
                "balance": "0x00",
                "code": "0x7fffffffffffffffffffffffffffffffffffffffffffffffffffffffffffffffff60005260206000620f4240600060006004610258f260005560005160015500",
                "storage": {
                    "0x01": "0xffffffffffffffffffffffffffffffffffffffffffffffffffffffffffffffff"
                }
            },
            "0x1ad9bc24818784172ff393bb6f89f094d4d2ca29": {
                "nonce": "0x01",
                "balance": "0x3635c9adc5dd69b8c0",
                "code": "0x",
                "storage": {}
            },
            "0x2adc25665018aa1fe0e6bc666dac8fc2697ff9ba": {
                "nonce": "0x00",
                "balance": "0x29a2241af7624740",
                "code": "0x",
                "storage": {}
            }
        },
        "lastblockhash": "0x03b405322de7bc6d44f9e4673b591466959f7f717ce186a7a0f28b2c68b2c4b7",
        "config": {
            "network": "Byzantium",
            "chainid": "0x01"
        },
        "genesisRLP": "0xf901f9f901f4a00000000000000000000000000000000000000000000000000000000000000000a01dcc4de8dec75d7aab85b567b6ccd41ad312451b948a7413f0a142fd40d49347940000000000000000000000000000000000000000a087544e2d5b6dfa111e5fa90061843c3a6227a2d909242585fd91ed4fa75f32c8a056e81f171bcc55a6ff8345e692c0f86e5b48e01b996cadc001622fb5e363b421a056e81f171bcc55a6ff8345e692c0f86e5b48e01b996cadc001622fb5e363b421b901000000000000000000000000000000000000000000000000000000000000000000000000000000000000000000000000000000000000000000000000000000000000000000000000000000000000000000000000000000000000000000000000000000000000000000000000000000000000000000000000000000000000000000000000000000000000000000000000000000000000000000000000000000000000000000000000000000000000000000000000000000000000000000000000000000000000000000000000000000000000000000000000000000000000000000000000000000000000000000000000000000000000000000000000000000000083020000808407270e00808000a00000000000000000000000000000000000000000000000000000000000000000880000000000000000c0c0",
        "blocks": [
            {
                "blockHeader": {
                    "parentHash": "0x560b1cb37e1d9b279354d756c9b6e4056a1e63d28279b0001d961731d0a4b1f0",
                    "uncleHash": "0x1dcc4de8dec75d7aab85b567b6ccd41ad312451b948a7413f0a142fd40d49347",
                    "coinbase": "0x2adc25665018aa1fe0e6bc666dac8fc2697ff9ba",
                    "stateRoot": "0xb38eb7ec70497564e97d5022a8a52efeab3c4c20f96821ccdc03c6501520e66e",
                    "transactionsTrie": "0xfab25bf1eb2d2bee1a31de1c1da871a89cec7e2b04380d8d4b92aee4bd00cfba",
                    "receiptTrie": "0xb2af351d7cc1e356fbccc423412ba730ddbfa218b82e98db79a04867134f8900",
                    "bloom": "0x00000000000000000000000000000000000000000000000000000000000000000000000000000000000000000000000000000000000000000000000000000000000000000000000000000000000000000000000000000000000000000000000000000000000000000000000000000000000000000000000000000000000000000000000000000000000000000000000000000000000000000000000000000000000000000000000000000000000000000000000000000000000000000000000000000000000000000000000000000000000000000000000000000000000000000000000000000000000000000000000000000000000000000000000000000000",
                    "difficulty": "0x020000",
                    "number": "0x01",
                    "gasLimit": "0x07270e00",
                    "gasUsed": "0x1f0720",
                    "timestamp": "0x03e8",
                    "extraData": "0x00",
                    "mixHash": "0x0000000000000000000000000000000000000000000000000000000000000000",
                    "nonce": "0x0000000000000000",
                    "hash": "0x03b405322de7bc6d44f9e4673b591466959f7f717ce186a7a0f28b2c68b2c4b7"
                },
                "transactions": [
                    {
                        "type": "0x00",
                        "chainId": "0x01",
                        "nonce": "0x00",
                        "gasPrice": "0x0a",
                        "gasLimit": "0x989680",
                        "to": "0xe8ed8b66f5635ba39d1c821322c7e9676d518bdc",
                        "value": "0x00",
                        "data": "0x",
                        "v": "0x25",
                        "r": "0xe50dd76f780a6148af369c2ec6b1c856460c9c9da730c88c10f77c01308e8706",
                        "s": "0x5bdacefa9568f9d6984e7a66c7de1c387d24a3e3270ba380d1336354986961c3",
                        "sender": "0x1ad9bc24818784172ff393bb6f89f094d4d2ca29"
                    }
                ],
                "uncleHeaders": [],
                "receipts": [
                    {
                        "transactionHash": "0x8e6549e17377626faa0915ce07df65bc400e34e76a86d4860538bcbbae901b52",
                        "type": "0x00",
                        "cumulativeGasUsed": "0x1f0720",
                        "bloom": "0x00000000000000000000000000000000000000000000000000000000000000000000000000000000000000000000000000000000000000000000000000000000000000000000000000000000000000000000000000000000000000000000000000000000000000000000000000000000000000000000000000000000000000000000000000000000000000000000000000000000000000000000000000000000000000000000000000000000000000000000000000000000000000000000000000000000000000000000000000000000000000000000000000000000000000000000000000000000000000000000000000000000000000000000000000000000",
                        "logs": [],
                        "status": true,
                        "rlp": "0xf9010901831f0720b9010000000000000000000000000000000000000000000000000000000000000000000000000000000000000000000000000000000000000000000000000000000000000000000000000000000000000000000000000000000000000000000000000000000000000000000000000000000000000000000000000000000000000000000000000000000000000000000000000000000000000000000000000000000000000000000000000000000000000000000000000000000000000000000000000000000000000000000000000000000000000000000000000000000000000000000000000000000000000000000000000000000000000000000000000000000000c0"
                    }
                ],
                "rlp": "0xf90261f901f9a0560b1cb37e1d9b279354d756c9b6e4056a1e63d28279b0001d961731d0a4b1f0a01dcc4de8dec75d7aab85b567b6ccd41ad312451b948a7413f0a142fd40d49347942adc25665018aa1fe0e6bc666dac8fc2697ff9baa0b38eb7ec70497564e97d5022a8a52efeab3c4c20f96821ccdc03c6501520e66ea0fab25bf1eb2d2bee1a31de1c1da871a89cec7e2b04380d8d4b92aee4bd00cfbaa0b2af351d7cc1e356fbccc423412ba730ddbfa218b82e98db79a04867134f8900b901000000000000000000000000000000000000000000000000000000000000000000000000000000000000000000000000000000000000000000000000000000000000000000000000000000000000000000000000000000000000000000000000000000000000000000000000000000000000000000000000000000000000000000000000000000000000000000000000000000000000000000000000000000000000000000000000000000000000000000000000000000000000000000000000000000000000000000000000000000000000000000000000000000000000000000000000000000000000000000000000000000000000000000000000000000000083020000018407270e00831f07208203e800a00000000000000000000000000000000000000000000000000000000000000000880000000000000000f862f860800a8398968094e8ed8b66f5635ba39d1c821322c7e9676d518bdc808025a0e50dd76f780a6148af369c2ec6b1c856460c9c9da730c88c10f77c01308e8706a05bdacefa9568f9d6984e7a66c7de1c387d24a3e3270ba380d1336354986961c3c0",
                "blocknumber": "1"
            }
        ],
        "sealEngine": "NoProof",
        "_info": {
            "hash": "0xbcf9d3e0c0cf9a18b0f3d18132470639a25408c210897ad1a46ff893c61a1e31",
            "fixture-format": "blockchain_test",
            "comment": "`execution-specs` generated test",
            "filling-transition-tool": "2.19.0",
            "description": "Test identity precompile when out of gas occurs.",
            "url": "https://github.com/ethereum/execution-specs/blob/tests-bal@v5.6.1/tests/frontier/identity_precompile/test_identity.py#L159",
            "metadata": {
                "opcode_count": {}
            }
        }
    },
    "tests/frontier/identity_precompile/test_identity.py::test_call_identity_precompile_large_params[fork_Byzantium-blockchain_test_from_state_test-tx_gas_limit_10000000-identity_5-call_type_CALL]": {
        "network": "Byzantium",
        "genesisBlockHeader": {
            "parentHash": "0x0000000000000000000000000000000000000000000000000000000000000000",
            "uncleHash": "0x1dcc4de8dec75d7aab85b567b6ccd41ad312451b948a7413f0a142fd40d49347",
            "coinbase": "0x0000000000000000000000000000000000000000",
            "stateRoot": "0xaba6e9ba6b8e9b0fb2076db0c9dafbfc6158aa27473aaa31d14f69b73f3e2933",
            "transactionsTrie": "0x56e81f171bcc55a6ff8345e692c0f86e5b48e01b996cadc001622fb5e363b421",
            "receiptTrie": "0x56e81f171bcc55a6ff8345e692c0f86e5b48e01b996cadc001622fb5e363b421",
            "bloom": "0x00000000000000000000000000000000000000000000000000000000000000000000000000000000000000000000000000000000000000000000000000000000000000000000000000000000000000000000000000000000000000000000000000000000000000000000000000000000000000000000000000000000000000000000000000000000000000000000000000000000000000000000000000000000000000000000000000000000000000000000000000000000000000000000000000000000000000000000000000000000000000000000000000000000000000000000000000000000000000000000000000000000000000000000000000000000",
            "difficulty": "0x020000",
            "number": "0x00",
            "gasLimit": "0x07270e00",
            "gasUsed": "0x00",
            "timestamp": "0x00",
            "extraData": "0x00",
            "mixHash": "0x0000000000000000000000000000000000000000000000000000000000000000",
            "nonce": "0x0000000000000000",
            "hash": "0x3f218e8a79d003422f30ec98f1713afec8ac22ea32bfc3353093adf4d6c00f08"
        },
        "pre": {
            "0x2ced21785a8442403e097aab1a48022e5290a7b2": {
                "nonce": "0x01",
                "balance": "0x00",
                "code": "0x7fffffffffffffffffffffffffffffffffffffffffffffffffffffffffffffffff60005260206000620f4240600060006004610258f160005560005160015500",
                "storage": {
                    "0x00": "0xba5e"
                }
            },
            "0x1ad9bc24818784172ff393bb6f89f094d4d2ca29": {
                "nonce": "0x00",
                "balance": "0x3635c9adc5dea00000",
                "code": "0x",
                "storage": {}
            }
        },
        "postState": {
            "0x2ced21785a8442403e097aab1a48022e5290a7b2": {
                "nonce": "0x01",
                "balance": "0x00",
                "code": "0x7fffffffffffffffffffffffffffffffffffffffffffffffffffffffffffffffff60005260206000620f4240600060006004610258f160005560005160015500",
                "storage": {
                    "0x01": "0xffffffffffffffffffffffffffffffffffffffffffffffffffffffffffffffff"
                }
            },
            "0x1ad9bc24818784172ff393bb6f89f094d4d2ca29": {
                "nonce": "0x01",
                "balance": "0x3635c9adc5dd69b8c0",
                "code": "0x",
                "storage": {}
            },
            "0x2adc25665018aa1fe0e6bc666dac8fc2697ff9ba": {
                "nonce": "0x00",
                "balance": "0x29a2241af7624740",
                "code": "0x",
                "storage": {}
            }
        },
        "lastblockhash": "0xba7e7c9992772820c1f5b109d022374c5a50187029612cedc6eb65fd77b5f940",
        "config": {
            "network": "Byzantium",
            "chainid": "0x01"
        },
        "genesisRLP": "0xf901f9f901f4a00000000000000000000000000000000000000000000000000000000000000000a01dcc4de8dec75d7aab85b567b6ccd41ad312451b948a7413f0a142fd40d49347940000000000000000000000000000000000000000a0aba6e9ba6b8e9b0fb2076db0c9dafbfc6158aa27473aaa31d14f69b73f3e2933a056e81f171bcc55a6ff8345e692c0f86e5b48e01b996cadc001622fb5e363b421a056e81f171bcc55a6ff8345e692c0f86e5b48e01b996cadc001622fb5e363b421b901000000000000000000000000000000000000000000000000000000000000000000000000000000000000000000000000000000000000000000000000000000000000000000000000000000000000000000000000000000000000000000000000000000000000000000000000000000000000000000000000000000000000000000000000000000000000000000000000000000000000000000000000000000000000000000000000000000000000000000000000000000000000000000000000000000000000000000000000000000000000000000000000000000000000000000000000000000000000000000000000000000000000000000000000000000000083020000808407270e00808000a00000000000000000000000000000000000000000000000000000000000000000880000000000000000c0c0",
        "blocks": [
            {
                "blockHeader": {
                    "parentHash": "0x3f218e8a79d003422f30ec98f1713afec8ac22ea32bfc3353093adf4d6c00f08",
                    "uncleHash": "0x1dcc4de8dec75d7aab85b567b6ccd41ad312451b948a7413f0a142fd40d49347",
                    "coinbase": "0x2adc25665018aa1fe0e6bc666dac8fc2697ff9ba",
                    "stateRoot": "0xfb6ad9e7f4f1d71812a42c5577779dc991ba76dfd52c232e30ed4e3ec169a1e2",
                    "transactionsTrie": "0x1ccaef2efcac13f5abf682defb2fbe41775a7d8587d86b236b58874732982025",
                    "receiptTrie": "0xb2af351d7cc1e356fbccc423412ba730ddbfa218b82e98db79a04867134f8900",
                    "bloom": "0x00000000000000000000000000000000000000000000000000000000000000000000000000000000000000000000000000000000000000000000000000000000000000000000000000000000000000000000000000000000000000000000000000000000000000000000000000000000000000000000000000000000000000000000000000000000000000000000000000000000000000000000000000000000000000000000000000000000000000000000000000000000000000000000000000000000000000000000000000000000000000000000000000000000000000000000000000000000000000000000000000000000000000000000000000000000",
                    "difficulty": "0x020000",
                    "number": "0x01",
                    "gasLimit": "0x07270e00",
                    "gasUsed": "0x1f0720",
                    "timestamp": "0x03e8",
                    "extraData": "0x00",
                    "mixHash": "0x0000000000000000000000000000000000000000000000000000000000000000",
                    "nonce": "0x0000000000000000",
                    "hash": "0xba7e7c9992772820c1f5b109d022374c5a50187029612cedc6eb65fd77b5f940"
                },
                "transactions": [
                    {
                        "type": "0x00",
                        "chainId": "0x01",
                        "nonce": "0x00",
                        "gasPrice": "0x0a",
                        "gasLimit": "0x989680",
                        "to": "0x2ced21785a8442403e097aab1a48022e5290a7b2",
                        "value": "0x00",
                        "data": "0x",
                        "v": "0x26",
                        "r": "0x9124bd90d690ca715f6d61378a134bf78588ce7aa221d680df1700564b880dc3",
                        "s": "0x64c72eaee341bf3025700e09ef8208fc09241468ec42715c50566a9dd845f61a",
                        "sender": "0x1ad9bc24818784172ff393bb6f89f094d4d2ca29"
                    }
                ],
                "uncleHeaders": [],
                "receipts": [
                    {
                        "transactionHash": "0x3ff6dbb43ea5a00f9a2ad138b644387da218cc63e5ece3de58a00c98604a5434",
                        "type": "0x00",
                        "cumulativeGasUsed": "0x1f0720",
                        "bloom": "0x00000000000000000000000000000000000000000000000000000000000000000000000000000000000000000000000000000000000000000000000000000000000000000000000000000000000000000000000000000000000000000000000000000000000000000000000000000000000000000000000000000000000000000000000000000000000000000000000000000000000000000000000000000000000000000000000000000000000000000000000000000000000000000000000000000000000000000000000000000000000000000000000000000000000000000000000000000000000000000000000000000000000000000000000000000000",
                        "logs": [],
                        "status": true,
                        "rlp": "0xf9010901831f0720b9010000000000000000000000000000000000000000000000000000000000000000000000000000000000000000000000000000000000000000000000000000000000000000000000000000000000000000000000000000000000000000000000000000000000000000000000000000000000000000000000000000000000000000000000000000000000000000000000000000000000000000000000000000000000000000000000000000000000000000000000000000000000000000000000000000000000000000000000000000000000000000000000000000000000000000000000000000000000000000000000000000000000000000000000000000000000c0"
                    }
                ],
                "rlp": "0xf90261f901f9a03f218e8a79d003422f30ec98f1713afec8ac22ea32bfc3353093adf4d6c00f08a01dcc4de8dec75d7aab85b567b6ccd41ad312451b948a7413f0a142fd40d49347942adc25665018aa1fe0e6bc666dac8fc2697ff9baa0fb6ad9e7f4f1d71812a42c5577779dc991ba76dfd52c232e30ed4e3ec169a1e2a01ccaef2efcac13f5abf682defb2fbe41775a7d8587d86b236b58874732982025a0b2af351d7cc1e356fbccc423412ba730ddbfa218b82e98db79a04867134f8900b901000000000000000000000000000000000000000000000000000000000000000000000000000000000000000000000000000000000000000000000000000000000000000000000000000000000000000000000000000000000000000000000000000000000000000000000000000000000000000000000000000000000000000000000000000000000000000000000000000000000000000000000000000000000000000000000000000000000000000000000000000000000000000000000000000000000000000000000000000000000000000000000000000000000000000000000000000000000000000000000000000000000000000000000000000000000083020000018407270e00831f07208203e800a00000000000000000000000000000000000000000000000000000000000000000880000000000000000f862f860800a83989680942ced21785a8442403e097aab1a48022e5290a7b2808026a09124bd90d690ca715f6d61378a134bf78588ce7aa221d680df1700564b880dc3a064c72eaee341bf3025700e09ef8208fc09241468ec42715c50566a9dd845f61ac0",
                "blocknumber": "1"
            }
        ],
        "sealEngine": "NoProof",
        "_info": {
            "hash": "0x0f19fc5cde247efe1fa1c00adbc0e560b58343ccf18ff22d4f35289c221ad0ee",
            "fixture-format": "blockchain_test",
            "comment": "`execution-specs` generated test",
            "filling-transition-tool": "2.19.0",
            "description": "Test identity precompile when out of gas occurs.",
            "url": "https://github.com/ethereum/execution-specs/blob/tests-bal@v5.6.1/tests/frontier/identity_precompile/test_identity.py#L159",
            "metadata": {
                "opcode_count": {}
            }
        }
    },
    "tests/frontier/identity_precompile/test_identity.py::test_call_identity_precompile_large_params[fork_Byzantium-blockchain_test_from_state_test-tx_gas_limit_10000000-identity_6-call_type_CALLCODE]": {
        "network": "Byzantium",
        "genesisBlockHeader": {
            "parentHash": "0x0000000000000000000000000000000000000000000000000000000000000000",
            "uncleHash": "0x1dcc4de8dec75d7aab85b567b6ccd41ad312451b948a7413f0a142fd40d49347",
            "coinbase": "0x0000000000000000000000000000000000000000",
            "stateRoot": "0xc4e0eee7582c599b8e3bee3b8930d0355859614d93b24e656e96f0d3449cbf8e",
            "transactionsTrie": "0x56e81f171bcc55a6ff8345e692c0f86e5b48e01b996cadc001622fb5e363b421",
            "receiptTrie": "0x56e81f171bcc55a6ff8345e692c0f86e5b48e01b996cadc001622fb5e363b421",
            "bloom": "0x00000000000000000000000000000000000000000000000000000000000000000000000000000000000000000000000000000000000000000000000000000000000000000000000000000000000000000000000000000000000000000000000000000000000000000000000000000000000000000000000000000000000000000000000000000000000000000000000000000000000000000000000000000000000000000000000000000000000000000000000000000000000000000000000000000000000000000000000000000000000000000000000000000000000000000000000000000000000000000000000000000000000000000000000000000000",
            "difficulty": "0x020000",
            "number": "0x00",
            "gasLimit": "0x07270e00",
            "gasUsed": "0x00",
            "timestamp": "0x00",
            "extraData": "0x00",
            "mixHash": "0x0000000000000000000000000000000000000000000000000000000000000000",
            "nonce": "0x0000000000000000",
            "hash": "0xe281a11dc74fd8e67d3b4a2f028e806831f7c9923550825b7fdce709531647a0"
        },
        "pre": {
            "0x79cfdb5c2c48a5cae77fffcc42806c2d825c4fe1": {
                "nonce": "0x01",
                "balance": "0x00",
                "code": "0x7fffffffffffffffffffffffffffffffffffffffffffffffffffffffffffffffff600052611234602052604060006020600060006004610258f260005560205160015500",
                "storage": {}
            },
            "0x1ad9bc24818784172ff393bb6f89f094d4d2ca29": {
                "nonce": "0x00",
                "balance": "0x3635c9adc5dea00000",
                "code": "0x",
                "storage": {}
            }
        },
        "postState": {
            "0x79cfdb5c2c48a5cae77fffcc42806c2d825c4fe1": {
                "nonce": "0x01",
                "balance": "0x00",
                "code": "0x7fffffffffffffffffffffffffffffffffffffffffffffffffffffffffffffffff600052611234602052604060006020600060006004610258f260005560205160015500",
                "storage": {
                    "0x00": "0x01",
                    "0x01": "0x1234"
                }
            },
            "0x1ad9bc24818784172ff393bb6f89f094d4d2ca29": {
                "nonce": "0x01",
                "balance": "0x3635c9adc5de9692ea",
                "code": "0x",
                "storage": {}
            },
            "0x2adc25665018aa1fe0e6bc666dac8fc2697ff9ba": {
                "nonce": "0x00",
                "balance": "0x29a2241af6356d16",
                "code": "0x",
                "storage": {}
            }
        },
        "lastblockhash": "0x2b3ef8993566137439388f194977248c09a8091061cb9d2dd807b259e7203729",
        "config": {
            "network": "Byzantium",
            "chainid": "0x01"
        },
        "genesisRLP": "0xf901f9f901f4a00000000000000000000000000000000000000000000000000000000000000000a01dcc4de8dec75d7aab85b567b6ccd41ad312451b948a7413f0a142fd40d49347940000000000000000000000000000000000000000a0c4e0eee7582c599b8e3bee3b8930d0355859614d93b24e656e96f0d3449cbf8ea056e81f171bcc55a6ff8345e692c0f86e5b48e01b996cadc001622fb5e363b421a056e81f171bcc55a6ff8345e692c0f86e5b48e01b996cadc001622fb5e363b421b901000000000000000000000000000000000000000000000000000000000000000000000000000000000000000000000000000000000000000000000000000000000000000000000000000000000000000000000000000000000000000000000000000000000000000000000000000000000000000000000000000000000000000000000000000000000000000000000000000000000000000000000000000000000000000000000000000000000000000000000000000000000000000000000000000000000000000000000000000000000000000000000000000000000000000000000000000000000000000000000000000000000000000000000000000000000083020000808407270e00808000a00000000000000000000000000000000000000000000000000000000000000000880000000000000000c0c0",
        "blocks": [
            {
                "blockHeader": {
                    "parentHash": "0xe281a11dc74fd8e67d3b4a2f028e806831f7c9923550825b7fdce709531647a0",
                    "uncleHash": "0x1dcc4de8dec75d7aab85b567b6ccd41ad312451b948a7413f0a142fd40d49347",
                    "coinbase": "0x2adc25665018aa1fe0e6bc666dac8fc2697ff9ba",
                    "stateRoot": "0xe4bb42892c02c3b0a0f5adc6d856636222c2d72f9eaa54a9ef04f15e8f617b9e",
                    "transactionsTrie": "0x7f398f2945ac41e106039ceb55a854eb3bc42fdc67138b5b8bc006e3f45fcbef",
                    "receiptTrie": "0x9329dcb36683481eb0f177abdbd2087ab415f2348f63a33d68e2fc4ccc54a7bf",
                    "bloom": "0x00000000000000000000000000000000000000000000000000000000000000000000000000000000000000000000000000000000000000000000000000000000000000000000000000000000000000000000000000000000000000000000000000000000000000000000000000000000000000000000000000000000000000000000000000000000000000000000000000000000000000000000000000000000000000000000000000000000000000000000000000000000000000000000000000000000000000000000000000000000000000000000000000000000000000000000000000000000000000000000000000000000000000000000000000000000",
                    "difficulty": "0x020000",
                    "number": "0x01",
                    "gasLimit": "0x07270e00",
                    "gasUsed": "0xf14f",
                    "timestamp": "0x03e8",
                    "extraData": "0x00",
                    "mixHash": "0x0000000000000000000000000000000000000000000000000000000000000000",
                    "nonce": "0x0000000000000000",
                    "hash": "0x2b3ef8993566137439388f194977248c09a8091061cb9d2dd807b259e7203729"
                },
                "transactions": [
                    {
                        "type": "0x00",
                        "chainId": "0x01",
                        "nonce": "0x00",
                        "gasPrice": "0x0a",
                        "gasLimit": "0x989680",
                        "to": "0x79cfdb5c2c48a5cae77fffcc42806c2d825c4fe1",
                        "value": "0x00",
                        "data": "0x",
                        "v": "0x26",
                        "r": "0xd630312fcc68d3ea0b701f25ec47d7cde2c88ed5fd99ecdc45882e05316b2f27",
                        "s": "0x2ed012a2d1826c52f4f885c322664206b995cef3ca24794e9792bc58154b23ec",
                        "sender": "0x1ad9bc24818784172ff393bb6f89f094d4d2ca29"
                    }
                ],
                "uncleHeaders": [],
                "receipts": [
                    {
                        "transactionHash": "0x4f6dd131d13b45a5defdc17027be4f2048c9e377b4a2150ab791c908d73242ed",
                        "type": "0x00",
                        "cumulativeGasUsed": "0xf14f",
                        "bloom": "0x00000000000000000000000000000000000000000000000000000000000000000000000000000000000000000000000000000000000000000000000000000000000000000000000000000000000000000000000000000000000000000000000000000000000000000000000000000000000000000000000000000000000000000000000000000000000000000000000000000000000000000000000000000000000000000000000000000000000000000000000000000000000000000000000000000000000000000000000000000000000000000000000000000000000000000000000000000000000000000000000000000000000000000000000000000000",
                        "logs": [],
                        "status": true,
                        "rlp": "0xf901080182f14fb9010000000000000000000000000000000000000000000000000000000000000000000000000000000000000000000000000000000000000000000000000000000000000000000000000000000000000000000000000000000000000000000000000000000000000000000000000000000000000000000000000000000000000000000000000000000000000000000000000000000000000000000000000000000000000000000000000000000000000000000000000000000000000000000000000000000000000000000000000000000000000000000000000000000000000000000000000000000000000000000000000000000000000000000000000000000000c0"
                    }
                ],
                "rlp": "0xf90260f901f8a0e281a11dc74fd8e67d3b4a2f028e806831f7c9923550825b7fdce709531647a0a01dcc4de8dec75d7aab85b567b6ccd41ad312451b948a7413f0a142fd40d49347942adc25665018aa1fe0e6bc666dac8fc2697ff9baa0e4bb42892c02c3b0a0f5adc6d856636222c2d72f9eaa54a9ef04f15e8f617b9ea07f398f2945ac41e106039ceb55a854eb3bc42fdc67138b5b8bc006e3f45fcbefa09329dcb36683481eb0f177abdbd2087ab415f2348f63a33d68e2fc4ccc54a7bfb901000000000000000000000000000000000000000000000000000000000000000000000000000000000000000000000000000000000000000000000000000000000000000000000000000000000000000000000000000000000000000000000000000000000000000000000000000000000000000000000000000000000000000000000000000000000000000000000000000000000000000000000000000000000000000000000000000000000000000000000000000000000000000000000000000000000000000000000000000000000000000000000000000000000000000000000000000000000000000000000000000000000000000000000000000000000083020000018407270e0082f14f8203e800a00000000000000000000000000000000000000000000000000000000000000000880000000000000000f862f860800a839896809479cfdb5c2c48a5cae77fffcc42806c2d825c4fe1808026a0d630312fcc68d3ea0b701f25ec47d7cde2c88ed5fd99ecdc45882e05316b2f27a02ed012a2d1826c52f4f885c322664206b995cef3ca24794e9792bc58154b23ecc0",
                "blocknumber": "1"
            }
        ],
        "sealEngine": "NoProof",
        "_info": {
            "hash": "0x37dcbc34eaa6121b21515cc616057decc12fdf9613f4b68548d005aca9d60b81",
            "fixture-format": "blockchain_test",
            "comment": "`execution-specs` generated test",
            "filling-transition-tool": "2.19.0",
            "description": "Test identity precompile when out of gas occurs.",
            "url": "https://github.com/ethereum/execution-specs/blob/tests-bal@v5.6.1/tests/frontier/identity_precompile/test_identity.py#L159",
            "metadata": {
                "opcode_count": {}
            }
        }
    },
    "tests/frontier/identity_precompile/test_identity.py::test_call_identity_precompile_large_params[fork_Byzantium-blockchain_test_from_state_test-tx_gas_limit_10000000-identity_6-call_type_CALL]": {
        "network": "Byzantium",
        "genesisBlockHeader": {
            "parentHash": "0x0000000000000000000000000000000000000000000000000000000000000000",
            "uncleHash": "0x1dcc4de8dec75d7aab85b567b6ccd41ad312451b948a7413f0a142fd40d49347",
            "coinbase": "0x0000000000000000000000000000000000000000",
            "stateRoot": "0x42453f8586dd0fb5c5473e695d23f6de15d2781857a0be9d99b7122c54b037e8",
            "transactionsTrie": "0x56e81f171bcc55a6ff8345e692c0f86e5b48e01b996cadc001622fb5e363b421",
            "receiptTrie": "0x56e81f171bcc55a6ff8345e692c0f86e5b48e01b996cadc001622fb5e363b421",
            "bloom": "0x00000000000000000000000000000000000000000000000000000000000000000000000000000000000000000000000000000000000000000000000000000000000000000000000000000000000000000000000000000000000000000000000000000000000000000000000000000000000000000000000000000000000000000000000000000000000000000000000000000000000000000000000000000000000000000000000000000000000000000000000000000000000000000000000000000000000000000000000000000000000000000000000000000000000000000000000000000000000000000000000000000000000000000000000000000000",
            "difficulty": "0x020000",
            "number": "0x00",
            "gasLimit": "0x07270e00",
            "gasUsed": "0x00",
            "timestamp": "0x00",
            "extraData": "0x00",
            "mixHash": "0x0000000000000000000000000000000000000000000000000000000000000000",
            "nonce": "0x0000000000000000",
            "hash": "0x3d010a23e9b9f3f6ba2572e44e73c38e21fe1475d5016e80444aa6f365cd2238"
        },
        "pre": {
            "0xa9be479a79436dace89452d280dddbd5fadc0bd8": {
                "nonce": "0x01",
                "balance": "0x00",
                "code": "0x7fffffffffffffffffffffffffffffffffffffffffffffffffffffffffffffffff600052611234602052604060006020600060006004610258f160005560205160015500",
                "storage": {}
            },
            "0x1ad9bc24818784172ff393bb6f89f094d4d2ca29": {
                "nonce": "0x00",
                "balance": "0x3635c9adc5dea00000",
                "code": "0x",
                "storage": {}
            }
        },
        "postState": {
            "0xa9be479a79436dace89452d280dddbd5fadc0bd8": {
                "nonce": "0x01",
                "balance": "0x00",
                "code": "0x7fffffffffffffffffffffffffffffffffffffffffffffffffffffffffffffffff600052611234602052604060006020600060006004610258f160005560205160015500",
                "storage": {
                    "0x00": "0x01",
                    "0x01": "0x1234"
                }
            },
            "0x1ad9bc24818784172ff393bb6f89f094d4d2ca29": {
                "nonce": "0x01",
                "balance": "0x3635c9adc5de9692ea",
                "code": "0x",
                "storage": {}
            },
            "0x2adc25665018aa1fe0e6bc666dac8fc2697ff9ba": {
                "nonce": "0x00",
                "balance": "0x29a2241af6356d16",
                "code": "0x",
                "storage": {}
            }
        },
        "lastblockhash": "0x32c6bb5aa0bfce662d9f53f0ae581e25fce55c2c7b1f90550a8ca640ce8a7acb",
        "config": {
            "network": "Byzantium",
            "chainid": "0x01"
        },
        "genesisRLP": "0xf901f9f901f4a00000000000000000000000000000000000000000000000000000000000000000a01dcc4de8dec75d7aab85b567b6ccd41ad312451b948a7413f0a142fd40d49347940000000000000000000000000000000000000000a042453f8586dd0fb5c5473e695d23f6de15d2781857a0be9d99b7122c54b037e8a056e81f171bcc55a6ff8345e692c0f86e5b48e01b996cadc001622fb5e363b421a056e81f171bcc55a6ff8345e692c0f86e5b48e01b996cadc001622fb5e363b421b901000000000000000000000000000000000000000000000000000000000000000000000000000000000000000000000000000000000000000000000000000000000000000000000000000000000000000000000000000000000000000000000000000000000000000000000000000000000000000000000000000000000000000000000000000000000000000000000000000000000000000000000000000000000000000000000000000000000000000000000000000000000000000000000000000000000000000000000000000000000000000000000000000000000000000000000000000000000000000000000000000000000000000000000000000000000083020000808407270e00808000a00000000000000000000000000000000000000000000000000000000000000000880000000000000000c0c0",
        "blocks": [
            {
                "blockHeader": {
                    "parentHash": "0x3d010a23e9b9f3f6ba2572e44e73c38e21fe1475d5016e80444aa6f365cd2238",
                    "uncleHash": "0x1dcc4de8dec75d7aab85b567b6ccd41ad312451b948a7413f0a142fd40d49347",
                    "coinbase": "0x2adc25665018aa1fe0e6bc666dac8fc2697ff9ba",
                    "stateRoot": "0x56dcc62c1bb4823ed0ed48e3b2233eeb62dbf97634df5a7780057e8c2c6a4893",
                    "transactionsTrie": "0x1d9b9a8d47ff30e373970380b33547922b4c465ab339df6d464950da7256c73b",
                    "receiptTrie": "0x9329dcb36683481eb0f177abdbd2087ab415f2348f63a33d68e2fc4ccc54a7bf",
                    "bloom": "0x00000000000000000000000000000000000000000000000000000000000000000000000000000000000000000000000000000000000000000000000000000000000000000000000000000000000000000000000000000000000000000000000000000000000000000000000000000000000000000000000000000000000000000000000000000000000000000000000000000000000000000000000000000000000000000000000000000000000000000000000000000000000000000000000000000000000000000000000000000000000000000000000000000000000000000000000000000000000000000000000000000000000000000000000000000000",
                    "difficulty": "0x020000",
                    "number": "0x01",
                    "gasLimit": "0x07270e00",
                    "gasUsed": "0xf14f",
                    "timestamp": "0x03e8",
                    "extraData": "0x00",
                    "mixHash": "0x0000000000000000000000000000000000000000000000000000000000000000",
                    "nonce": "0x0000000000000000",
                    "hash": "0x32c6bb5aa0bfce662d9f53f0ae581e25fce55c2c7b1f90550a8ca640ce8a7acb"
                },
                "transactions": [
                    {
                        "type": "0x00",
                        "chainId": "0x01",
                        "nonce": "0x00",
                        "gasPrice": "0x0a",
                        "gasLimit": "0x989680",
                        "to": "0xa9be479a79436dace89452d280dddbd5fadc0bd8",
                        "value": "0x00",
                        "data": "0x",
                        "v": "0x25",
                        "r": "0xffee59ba9a467845af39cb7753841c4565fa0afd34ada6059ffcbe60dffaf1d1",
                        "s": "0x1e06bb4cd2c49457b7ee731e134ef92c2c6adf1594a4fd1ceb203ac1133937c6",
                        "sender": "0x1ad9bc24818784172ff393bb6f89f094d4d2ca29"
                    }
                ],
                "uncleHeaders": [],
                "receipts": [
                    {
                        "transactionHash": "0x73c547360e151fe8b99556e5d97e52c64d287f0d98faed369a8c95d49543ef7d",
                        "type": "0x00",
                        "cumulativeGasUsed": "0xf14f",
                        "bloom": "0x00000000000000000000000000000000000000000000000000000000000000000000000000000000000000000000000000000000000000000000000000000000000000000000000000000000000000000000000000000000000000000000000000000000000000000000000000000000000000000000000000000000000000000000000000000000000000000000000000000000000000000000000000000000000000000000000000000000000000000000000000000000000000000000000000000000000000000000000000000000000000000000000000000000000000000000000000000000000000000000000000000000000000000000000000000000",
                        "logs": [],
                        "status": true,
                        "rlp": "0xf901080182f14fb9010000000000000000000000000000000000000000000000000000000000000000000000000000000000000000000000000000000000000000000000000000000000000000000000000000000000000000000000000000000000000000000000000000000000000000000000000000000000000000000000000000000000000000000000000000000000000000000000000000000000000000000000000000000000000000000000000000000000000000000000000000000000000000000000000000000000000000000000000000000000000000000000000000000000000000000000000000000000000000000000000000000000000000000000000000000000c0"
                    }
                ],
                "rlp": "0xf90260f901f8a03d010a23e9b9f3f6ba2572e44e73c38e21fe1475d5016e80444aa6f365cd2238a01dcc4de8dec75d7aab85b567b6ccd41ad312451b948a7413f0a142fd40d49347942adc25665018aa1fe0e6bc666dac8fc2697ff9baa056dcc62c1bb4823ed0ed48e3b2233eeb62dbf97634df5a7780057e8c2c6a4893a01d9b9a8d47ff30e373970380b33547922b4c465ab339df6d464950da7256c73ba09329dcb36683481eb0f177abdbd2087ab415f2348f63a33d68e2fc4ccc54a7bfb901000000000000000000000000000000000000000000000000000000000000000000000000000000000000000000000000000000000000000000000000000000000000000000000000000000000000000000000000000000000000000000000000000000000000000000000000000000000000000000000000000000000000000000000000000000000000000000000000000000000000000000000000000000000000000000000000000000000000000000000000000000000000000000000000000000000000000000000000000000000000000000000000000000000000000000000000000000000000000000000000000000000000000000000000000000000083020000018407270e0082f14f8203e800a00000000000000000000000000000000000000000000000000000000000000000880000000000000000f862f860800a8398968094a9be479a79436dace89452d280dddbd5fadc0bd8808025a0ffee59ba9a467845af39cb7753841c4565fa0afd34ada6059ffcbe60dffaf1d1a01e06bb4cd2c49457b7ee731e134ef92c2c6adf1594a4fd1ceb203ac1133937c6c0",
                "blocknumber": "1"
            }
        ],
        "sealEngine": "NoProof",
        "_info": {
            "hash": "0x9a918262c361826b519245484be010f0e5800fe6661f77a498ae32913dd9cd7d",
            "fixture-format": "blockchain_test",
            "comment": "`execution-specs` generated test",
            "filling-transition-tool": "2.19.0",
            "description": "Test identity precompile when out of gas occurs.",
            "url": "https://github.com/ethereum/execution-specs/blob/tests-bal@v5.6.1/tests/frontier/identity_precompile/test_identity.py#L159",
            "metadata": {
                "opcode_count": {}
            }
        }
    }
}