{
    "tests/ported_static/stTimeConsuming/test_sstore_combinations_initial.py::test_sstore_combinations_initial_staticcall_only[fork_London-blockchain_test_from_state_test-initial0]": {
        "network": "London",
        "genesisBlockHeader": {
            "parentHash": "0x0000000000000000000000000000000000000000000000000000000000000000",
            "uncleHash": "0x1dcc4de8dec75d7aab85b567b6ccd41ad312451b948a7413f0a142fd40d49347",
            "coinbase": "0x0000000000000000000000000000000000000000",
            "stateRoot": "0x9fcfc704451c7964b22c2dea0dc53d3ada87e574a98d13c80580bd6b6601b23f",
            "transactionsTrie": "0x56e81f171bcc55a6ff8345e692c0f86e5b48e01b996cadc001622fb5e363b421",
            "receiptTrie": "0x56e81f171bcc55a6ff8345e692c0f86e5b48e01b996cadc001622fb5e363b421",
            "bloom": "0x00000000000000000000000000000000000000000000000000000000000000000000000000000000000000000000000000000000000000000000000000000000000000000000000000000000000000000000000000000000000000000000000000000000000000000000000000000000000000000000000000000000000000000000000000000000000000000000000000000000000000000000000000000000000000000000000000000000000000000000000000000000000000000000000000000000000000000000000000000000000000000000000000000000000000000000000000000000000000000000000000000000000000000000000000000000",
            "difficulty": "0x020000",
            "number": "0x00",
            "gasLimit": "0x07270e00",
            "gasUsed": "0x00",
            "timestamp": "0x00",
            "extraData": "0x00",
            "mixHash": "0x0000000000000000000000000000000000000000000000000000000000000000",
            "nonce": "0x0000000000000000",
            "baseFeePerGas": "0x07",
            "hash": "0xf011c4bb13f44b4745d925a548571c331648b33328ea526c518ec6e667ecf0ac"
        },
        "pre": {
            "0x1ad9bc24818784172ff393bb6f89f094d4d2ca29": {
                "nonce": "0x00",
                "balance": "0x3635c9adc5dea00000",
                "code": "0x",
                "storage": {}
            },
            "0x85f164050ce5d4b695443e77e0ed6921849bfc8e": {
                "nonce": "0x01",
                "balance": "0x00",
                "code": "0x60006000556001600155600260025500",
                "storage": {}
            },
            "0xeed3749b6998cce96a4b5ae988f24f6720f98790": {
                "nonce": "0x01",
                "balance": "0x00",
                "code": "0x6001600155600060015560016002556000600255600160035560006003556001600455600060045560016005556000600555600160065560006006556001600755600060075560016008556000600855600160095560006009556001600a556000600a556001600b556000600b556001600c556000600c556001600d556000600d556001600e556000600e556001600f556000600f5560016010556000601055600160015500",
                "storage": {}
            }
        },
        "postState": {
            "0x1ad9bc24818784172ff393bb6f89f094d4d2ca29": {
                "nonce": "0x01",
                "balance": "0x3635c9adc5de464e47",
                "code": "0x",
                "storage": {}
            },
            "0x85f164050ce5d4b695443e77e0ed6921849bfc8e": {
                "nonce": "0x01",
                "balance": "0x00",
                "code": "0x60006000556001600155600260025500",
                "storage": {}
            },
            "0xeed3749b6998cce96a4b5ae988f24f6720f98790": {
                "nonce": "0x01",
                "balance": "0x00",
                "code": "0x6001600155600060015560016002556000600255600160035560006003556001600455600060045560016005556000600555600160065560006006556001600755600060075560016008556000600855600160095560006009556001600a556000600a556001600b556000600b556001600c556000600c556001600d556000600d556001600e556000600e556001600f556000600f5560016010556000601055600160015500",
                "storage": {
                    "0x01": "0x01"
                }
            },
            "0x36bdd8886852759e2046e3bf4c290d5c29c81d82": {
                "nonce": "0x01",
                "balance": "0x01",
                "code": "0x",
                "storage": {}
            },
            "0x2adc25665018aa1fe0e6bc666dac8fc2697ff9ba": {
                "nonce": "0x00",
                "balance": "0x1bc16d674ee2e884",
                "code": "0x",
                "storage": {}
            }
        },
        "lastblockhash": "0x7a416ad7f777fcb038ca87fe57b4bd1ce9e85b880b8cd778eea9de44315be13b",
        "config": {
            "network": "London",
            "chainid": "0x01"
        },
        "genesisRLP": "0xf901faf901f5a00000000000000000000000000000000000000000000000000000000000000000a01dcc4de8dec75d7aab85b567b6ccd41ad312451b948a7413f0a142fd40d49347940000000000000000000000000000000000000000a09fcfc704451c7964b22c2dea0dc53d3ada87e574a98d13c80580bd6b6601b23fa056e81f171bcc55a6ff8345e692c0f86e5b48e01b996cadc001622fb5e363b421a056e81f171bcc55a6ff8345e692c0f86e5b48e01b996cadc001622fb5e363b421b901000000000000000000000000000000000000000000000000000000000000000000000000000000000000000000000000000000000000000000000000000000000000000000000000000000000000000000000000000000000000000000000000000000000000000000000000000000000000000000000000000000000000000000000000000000000000000000000000000000000000000000000000000000000000000000000000000000000000000000000000000000000000000000000000000000000000000000000000000000000000000000000000000000000000000000000000000000000000000000000000000000000000000000000000000000000083020000808407270e00808000a0000000000000000000000000000000000000000000000000000000000000000088000000000000000007c0c0",
        "blocks": [
            {
                "blockHeader": {
                    "parentHash": "0xf011c4bb13f44b4745d925a548571c331648b33328ea526c518ec6e667ecf0ac",
                    "uncleHash": "0x1dcc4de8dec75d7aab85b567b6ccd41ad312451b948a7413f0a142fd40d49347",
                    "coinbase": "0x2adc25665018aa1fe0e6bc666dac8fc2697ff9ba",
                    "stateRoot": "0xf4e60f5eedb93f3379231a80d0911164752a5560158506a04eabf2ddb2db1688",
                    "transactionsTrie": "0x6829bcd02f5a15cd89ee2974beed7d3dca2f41ae5b34237ee43a312fea436a28",
                    "receiptTrie": "0xe0a15a62c30231639e2ade7128b8c6ed5493e006417e7396a2751648fb0606ca",
                    "bloom": "0x00000000000000000000000000000000000000000000000000000000000000000000000000000000000000000000000000000000000000000000000000000000000000000000000000000000000000000000000000000000000000000000000000000000000000000000000000000000000000000000000000000000000000000000000000000000000000000000000000000000000000000000000000000000000000000000000000000000000000000000000000000000000000000000000000000000000000000000000000000000000000000000000000000000000000000000000000000000000000000000000000000000000000000000000000000000",
                    "difficulty": "0x020000",
                    "number": "0x01",
                    "gasLimit": "0x07270e00",
                    "gasUsed": "0x08f82c",
                    "timestamp": "0x03e8",
                    "extraData": "0x00",
                    "mixHash": "0x0000000000000000000000000000000000000000000000000000000000000000",
                    "nonce": "0x0000000000000000",
                    "baseFeePerGas": "0x07",
                    "hash": "0x7a416ad7f777fcb038ca87fe57b4bd1ce9e85b880b8cd778eea9de44315be13b"
                },
                "transactions": [
                    {
                        "type": "0x00",
                        "chainId": "0x01",
                        "nonce": "0x00",
                        "gasPrice": "0x0a",
                        "gasLimit": "0x1e8480",
                        "value": "0x01",
                        "data": "0x600060645260006000602060007385f164050ce5d4b695443e77e0ed6921849bfc8e620493e0fa506000600060006000600073eed3749b6998cce96a4b5ae988f24f6720f98790620927c0f100",
                        "v": "0x26",
                        "r": "0x6aabc7bc58c42a8f320104b49555b876fe4b9458e4d99e1fcbb10134563cc120",
                        "s": "0x785a986396e0c63df68e9c2eb2197324b205a919af6e001d0ba5b97dd6d68fbf",
                        "sender": "0x1ad9bc24818784172ff393bb6f89f094d4d2ca29",
                        "to": ""
                    }
                ],
                "uncleHeaders": [],
                "receipts": [
                    {
                        "transactionHash": "0x3507702ede60bf82c3664b85382796a04f67f68ee995601d2c91447215049adb",
                        "type": "0x00",
                        "cumulativeGasUsed": "0x08f82c",
                        "bloom": "0x00000000000000000000000000000000000000000000000000000000000000000000000000000000000000000000000000000000000000000000000000000000000000000000000000000000000000000000000000000000000000000000000000000000000000000000000000000000000000000000000000000000000000000000000000000000000000000000000000000000000000000000000000000000000000000000000000000000000000000000000000000000000000000000000000000000000000000000000000000000000000000000000000000000000000000000000000000000000000000000000000000000000000000000000000000000",
                        "logs": [],
                        "status": true,
                        "rlp": "0xf90109018308f82cb9010000000000000000000000000000000000000000000000000000000000000000000000000000000000000000000000000000000000000000000000000000000000000000000000000000000000000000000000000000000000000000000000000000000000000000000000000000000000000000000000000000000000000000000000000000000000000000000000000000000000000000000000000000000000000000000000000000000000000000000000000000000000000000000000000000000000000000000000000000000000000000000000000000000000000000000000000000000000000000000000000000000000000000000000000000000000c0"
                    }
                ],
                "rlp": "0xf9029cf901faa0f011c4bb13f44b4745d925a548571c331648b33328ea526c518ec6e667ecf0aca01dcc4de8dec75d7aab85b567b6ccd41ad312451b948a7413f0a142fd40d49347942adc25665018aa1fe0e6bc666dac8fc2697ff9baa0f4e60f5eedb93f3379231a80d0911164752a5560158506a04eabf2ddb2db1688a06829bcd02f5a15cd89ee2974beed7d3dca2f41ae5b34237ee43a312fea436a28a0e0a15a62c30231639e2ade7128b8c6ed5493e006417e7396a2751648fb0606cab901000000000000000000000000000000000000000000000000000000000000000000000000000000000000000000000000000000000000000000000000000000000000000000000000000000000000000000000000000000000000000000000000000000000000000000000000000000000000000000000000000000000000000000000000000000000000000000000000000000000000000000000000000000000000000000000000000000000000000000000000000000000000000000000000000000000000000000000000000000000000000000000000000000000000000000000000000000000000000000000000000000000000000000000000000000000083020000018407270e008308f82c8203e800a0000000000000000000000000000000000000000000000000000000000000000088000000000000000007f89cf89a800a831e84808001b84d600060645260006000602060007385f164050ce5d4b695443e77e0ed6921849bfc8e620493e0fa506000600060006000600073eed3749b6998cce96a4b5ae988f24f6720f98790620927c0f10026a06aabc7bc58c42a8f320104b49555b876fe4b9458e4d99e1fcbb10134563cc120a0785a986396e0c63df68e9c2eb2197324b205a919af6e001d0ba5b97dd6d68fbfc0",
                "blocknumber": "1"
            }
        ],
        "sealEngine": "NoProof",
        "_info": {
            "hash": "0x8e68258dba03b81d97f541aa7ecf53c38539b78590b37b118967509e872f4ddf",
            "fixture-format": "blockchain_test",
            "comment": "`execution-specs` generated test",
            "filling-transition-tool": "2.19.0",
            "description": "Base case: STATICCALL to update-contract only.",
            "url": "https://github.com/ethereum/execution-specs/blob/tests-sn\u00f8bal-devnet-4@v1.0.0/tests/ported_static/stTimeConsuming/test_sstore_combinations_initial.py#L186",
            "metadata": {
                "opcode_count": {}
            }
        }
    },
    "tests/ported_static/stTimeConsuming/test_sstore_combinations_initial.py::test_sstore_combinations_initial_staticcall_only[fork_London-blockchain_test_from_state_test-initial1]": {
        "network": "London",
        "genesisBlockHeader": {
            "parentHash": "0x0000000000000000000000000000000000000000000000000000000000000000",
            "uncleHash": "0x1dcc4de8dec75d7aab85b567b6ccd41ad312451b948a7413f0a142fd40d49347",
            "coinbase": "0x0000000000000000000000000000000000000000",
            "stateRoot": "0x3458dfb124c1d7fc6f41f5447fefc0abfff8007ab00c1d57e4dfb5ad5e609e6e",
            "transactionsTrie": "0x56e81f171bcc55a6ff8345e692c0f86e5b48e01b996cadc001622fb5e363b421",
            "receiptTrie": "0x56e81f171bcc55a6ff8345e692c0f86e5b48e01b996cadc001622fb5e363b421",
            "bloom": "0x00000000000000000000000000000000000000000000000000000000000000000000000000000000000000000000000000000000000000000000000000000000000000000000000000000000000000000000000000000000000000000000000000000000000000000000000000000000000000000000000000000000000000000000000000000000000000000000000000000000000000000000000000000000000000000000000000000000000000000000000000000000000000000000000000000000000000000000000000000000000000000000000000000000000000000000000000000000000000000000000000000000000000000000000000000000",
            "difficulty": "0x020000",
            "number": "0x00",
            "gasLimit": "0x07270e00",
            "gasUsed": "0x00",
            "timestamp": "0x00",
            "extraData": "0x00",
            "mixHash": "0x0000000000000000000000000000000000000000000000000000000000000000",
            "nonce": "0x0000000000000000",
            "baseFeePerGas": "0x07",
            "hash": "0xeee632f1b6ef66fe5840b70d026fc2eef275ad8e3495afe932cc450ed7f8022c"
        },
        "pre": {
            "0x1ad9bc24818784172ff393bb6f89f094d4d2ca29": {
                "nonce": "0x00",
                "balance": "0x3635c9adc5dea00000",
                "code": "0x",
                "storage": {}
            },
            "0x87c1842d4ed07dd91d83aff09306bc823b3e95bb": {
                "nonce": "0x01",
                "balance": "0x00",
                "code": "0x60006000556001600155600260025500",
                "storage": {
                    "0x00": "0x01",
                    "0x01": "0x01",
                    "0x02": "0x01"
                }
            },
            "0xeed3749b6998cce96a4b5ae988f24f6720f98790": {
                "nonce": "0x01",
                "balance": "0x00",
                "code": "0x6001600155600060015560016002556000600255600160035560006003556001600455600060045560016005556000600555600160065560006006556001600755600060075560016008556000600855600160095560006009556001600a556000600a556001600b556000600b556001600c556000600c556001600d556000600d556001600e556000600e556001600f556000600f5560016010556000601055600160015500",
                "storage": {}
            }
        },
        "postState": {
            "0x1ad9bc24818784172ff393bb6f89f094d4d2ca29": {
                "nonce": "0x01",
                "balance": "0x3635c9adc5de464e47",
                "code": "0x",
                "storage": {}
            },
            "0x87c1842d4ed07dd91d83aff09306bc823b3e95bb": {
                "nonce": "0x01",
                "balance": "0x00",
                "code": "0x60006000556001600155600260025500",
                "storage": {
                    "0x00": "0x01",
                    "0x01": "0x01",
                    "0x02": "0x01"
                }
            },
            "0xeed3749b6998cce96a4b5ae988f24f6720f98790": {
                "nonce": "0x01",
                "balance": "0x00",
                "code": "0x6001600155600060015560016002556000600255600160035560006003556001600455600060045560016005556000600555600160065560006006556001600755600060075560016008556000600855600160095560006009556001600a556000600a556001600b556000600b556001600c556000600c556001600d556000600d556001600e556000600e556001600f556000600f5560016010556000601055600160015500",
                "storage": {
                    "0x01": "0x01"
                }
            },
            "0x36bdd8886852759e2046e3bf4c290d5c29c81d82": {
                "nonce": "0x01",
                "balance": "0x01",
                "code": "0x",
                "storage": {}
            },
            "0x2adc25665018aa1fe0e6bc666dac8fc2697ff9ba": {
                "nonce": "0x00",
                "balance": "0x1bc16d674ee2e884",
                "code": "0x",
                "storage": {}
            }
        },
        "lastblockhash": "0xc5b286e75698e844af468705383086dc2428a8bbcb9afed0b1d64693d7e80f2e",
        "config": {
            "network": "London",
            "chainid": "0x01"
        },
        "genesisRLP": "0xf901faf901f5a00000000000000000000000000000000000000000000000000000000000000000a01dcc4de8dec75d7aab85b567b6ccd41ad312451b948a7413f0a142fd40d49347940000000000000000000000000000000000000000a03458dfb124c1d7fc6f41f5447fefc0abfff8007ab00c1d57e4dfb5ad5e609e6ea056e81f171bcc55a6ff8345e692c0f86e5b48e01b996cadc001622fb5e363b421a056e81f171bcc55a6ff8345e692c0f86e5b48e01b996cadc001622fb5e363b421b901000000000000000000000000000000000000000000000000000000000000000000000000000000000000000000000000000000000000000000000000000000000000000000000000000000000000000000000000000000000000000000000000000000000000000000000000000000000000000000000000000000000000000000000000000000000000000000000000000000000000000000000000000000000000000000000000000000000000000000000000000000000000000000000000000000000000000000000000000000000000000000000000000000000000000000000000000000000000000000000000000000000000000000000000000000000083020000808407270e00808000a0000000000000000000000000000000000000000000000000000000000000000088000000000000000007c0c0",
        "blocks": [
            {
                "blockHeader": {
                    "parentHash": "0xeee632f1b6ef66fe5840b70d026fc2eef275ad8e3495afe932cc450ed7f8022c",
                    "uncleHash": "0x1dcc4de8dec75d7aab85b567b6ccd41ad312451b948a7413f0a142fd40d49347",
                    "coinbase": "0x2adc25665018aa1fe0e6bc666dac8fc2697ff9ba",
                    "stateRoot": "0x6c774b759cd7343c68797af4c18e2a41ebfd5e92cadca783638ace54ec69f6b0",
                    "transactionsTrie": "0x89971df30983790695d427a5b60df14b46668b7831fc3ea9ef527734b58d013a",
                    "receiptTrie": "0xe0a15a62c30231639e2ade7128b8c6ed5493e006417e7396a2751648fb0606ca",
                    "bloom": "0x00000000000000000000000000000000000000000000000000000000000000000000000000000000000000000000000000000000000000000000000000000000000000000000000000000000000000000000000000000000000000000000000000000000000000000000000000000000000000000000000000000000000000000000000000000000000000000000000000000000000000000000000000000000000000000000000000000000000000000000000000000000000000000000000000000000000000000000000000000000000000000000000000000000000000000000000000000000000000000000000000000000000000000000000000000000",
                    "difficulty": "0x020000",
                    "number": "0x01",
                    "gasLimit": "0x07270e00",
                    "gasUsed": "0x08f82c",
                    "timestamp": "0x03e8",
                    "extraData": "0x00",
                    "mixHash": "0x0000000000000000000000000000000000000000000000000000000000000000",
                    "nonce": "0x0000000000000000",
                    "baseFeePerGas": "0x07",
                    "hash": "0xc5b286e75698e844af468705383086dc2428a8bbcb9afed0b1d64693d7e80f2e"
                },
                "transactions": [
                    {
                        "type": "0x00",
                        "chainId": "0x01",
                        "nonce": "0x00",
                        "gasPrice": "0x0a",
                        "gasLimit": "0x1e8480",
                        "value": "0x01",
                        "data": "0x600060645260006000602060007387c1842d4ed07dd91d83aff09306bc823b3e95bb620493e0fa506000600060006000600073eed3749b6998cce96a4b5ae988f24f6720f98790620927c0f100",
                        "v": "0x25",
                        "r": "0xa56660b65ee6df8f685ea7df17b0e3058302ac3fa85ff517a45e17ca34060d38",
                        "s": "0x05871e662e53623cad294fa2dc1a59c87540a9277277b52f06a05d252b0c64ae",
                        "sender": "0x1ad9bc24818784172ff393bb6f89f094d4d2ca29",
                        "to": ""
                    }
                ],
                "uncleHeaders": [],
                "receipts": [
                    {
                        "transactionHash": "0x53d4aaee1a2d8dd27930a67633f79e3a6369b59a2ea47e924208754766072488",
                        "type": "0x00",
                        "cumulativeGasUsed": "0x08f82c",
                        "bloom": "0x00000000000000000000000000000000000000000000000000000000000000000000000000000000000000000000000000000000000000000000000000000000000000000000000000000000000000000000000000000000000000000000000000000000000000000000000000000000000000000000000000000000000000000000000000000000000000000000000000000000000000000000000000000000000000000000000000000000000000000000000000000000000000000000000000000000000000000000000000000000000000000000000000000000000000000000000000000000000000000000000000000000000000000000000000000000",
                        "logs": [],
                        "status": true,
                        "rlp": "0xf90109018308f82cb9010000000000000000000000000000000000000000000000000000000000000000000000000000000000000000000000000000000000000000000000000000000000000000000000000000000000000000000000000000000000000000000000000000000000000000000000000000000000000000000000000000000000000000000000000000000000000000000000000000000000000000000000000000000000000000000000000000000000000000000000000000000000000000000000000000000000000000000000000000000000000000000000000000000000000000000000000000000000000000000000000000000000000000000000000000000000c0"
                    }
                ],
                "rlp": "0xf9029cf901faa0eee632f1b6ef66fe5840b70d026fc2eef275ad8e3495afe932cc450ed7f8022ca01dcc4de8dec75d7aab85b567b6ccd41ad312451b948a7413f0a142fd40d49347942adc25665018aa1fe0e6bc666dac8fc2697ff9baa06c774b759cd7343c68797af4c18e2a41ebfd5e92cadca783638ace54ec69f6b0a089971df30983790695d427a5b60df14b46668b7831fc3ea9ef527734b58d013aa0e0a15a62c30231639e2ade7128b8c6ed5493e006417e7396a2751648fb0606cab901000000000000000000000000000000000000000000000000000000000000000000000000000000000000000000000000000000000000000000000000000000000000000000000000000000000000000000000000000000000000000000000000000000000000000000000000000000000000000000000000000000000000000000000000000000000000000000000000000000000000000000000000000000000000000000000000000000000000000000000000000000000000000000000000000000000000000000000000000000000000000000000000000000000000000000000000000000000000000000000000000000000000000000000000000000000083020000018407270e008308f82c8203e800a0000000000000000000000000000000000000000000000000000000000000000088000000000000000007f89cf89a800a831e84808001b84d600060645260006000602060007387c1842d4ed07dd91d83aff09306bc823b3e95bb620493e0fa506000600060006000600073eed3749b6998cce96a4b5ae988f24f6720f98790620927c0f10025a0a56660b65ee6df8f685ea7df17b0e3058302ac3fa85ff517a45e17ca34060d38a005871e662e53623cad294fa2dc1a59c87540a9277277b52f06a05d252b0c64aec0",
                "blocknumber": "1"
            }
        ],
        "sealEngine": "NoProof",
        "_info": {
            "hash": "0x527ec965fa1f4bcada2f9892378005019a2a2a6de7ed7127b13a4f8e798c4c37",
            "fixture-format": "blockchain_test",
            "comment": "`execution-specs` generated test",
            "filling-transition-tool": "2.19.0",
            "description": "Base case: STATICCALL to update-contract only.",
            "url": "https://github.com/ethereum/execution-specs/blob/tests-sn\u00f8bal-devnet-4@v1.0.0/tests/ported_static/stTimeConsuming/test_sstore_combinations_initial.py#L186",
            "metadata": {
                "opcode_count": {}
            }
        }
    },
    "tests/ported_static/stTimeConsuming/test_sstore_combinations_initial.py::test_sstore_combinations_initial_staticcall_only[fork_London-blockchain_test_from_state_test-initial2]": {
        "network": "London",
        "genesisBlockHeader": {
            "parentHash": "0x0000000000000000000000000000000000000000000000000000000000000000",
            "uncleHash": "0x1dcc4de8dec75d7aab85b567b6ccd41ad312451b948a7413f0a142fd40d49347",
            "coinbase": "0x0000000000000000000000000000000000000000",
            "stateRoot": "0xeb76dcc39152f22fdfe327b33d5b35143c2418841183ce5f5bbda55ff766b208",
            "transactionsTrie": "0x56e81f171bcc55a6ff8345e692c0f86e5b48e01b996cadc001622fb5e363b421",
            "receiptTrie": "0x56e81f171bcc55a6ff8345e692c0f86e5b48e01b996cadc001622fb5e363b421",
            "bloom": "0x00000000000000000000000000000000000000000000000000000000000000000000000000000000000000000000000000000000000000000000000000000000000000000000000000000000000000000000000000000000000000000000000000000000000000000000000000000000000000000000000000000000000000000000000000000000000000000000000000000000000000000000000000000000000000000000000000000000000000000000000000000000000000000000000000000000000000000000000000000000000000000000000000000000000000000000000000000000000000000000000000000000000000000000000000000000",
            "difficulty": "0x020000",
            "number": "0x00",
            "gasLimit": "0x07270e00",
            "gasUsed": "0x00",
            "timestamp": "0x00",
            "extraData": "0x00",
            "mixHash": "0x0000000000000000000000000000000000000000000000000000000000000000",
            "nonce": "0x0000000000000000",
            "baseFeePerGas": "0x07",
            "hash": "0xe79dedb0a1f2a7fedf54be5e2fbb2786f05f8733e2058042bbafbc21fb7ca2da"
        },
        "pre": {
            "0x1ad9bc24818784172ff393bb6f89f094d4d2ca29": {
                "nonce": "0x00",
                "balance": "0x3635c9adc5dea00000",
                "code": "0x",
                "storage": {}
            },
            "0x719f7405621c343fb20d8c414579f6ecd6ae3b98": {
                "nonce": "0x01",
                "balance": "0x00",
                "code": "0x60006000556001600155600260025500",
                "storage": {
                    "0x00": "0x02",
                    "0x01": "0x02",
                    "0x02": "0x02"
                }
            },
            "0xeed3749b6998cce96a4b5ae988f24f6720f98790": {
                "nonce": "0x01",
                "balance": "0x00",
                "code": "0x6001600155600060015560016002556000600255600160035560006003556001600455600060045560016005556000600555600160065560006006556001600755600060075560016008556000600855600160095560006009556001600a556000600a556001600b556000600b556001600c556000600c556001600d556000600d556001600e556000600e556001600f556000600f5560016010556000601055600160015500",
                "storage": {}
            }
        },
        "postState": {
            "0x1ad9bc24818784172ff393bb6f89f094d4d2ca29": {
                "nonce": "0x01",
                "balance": "0x3635c9adc5de464e47",
                "code": "0x",
                "storage": {}
            },
            "0x719f7405621c343fb20d8c414579f6ecd6ae3b98": {
                "nonce": "0x01",
                "balance": "0x00",
                "code": "0x60006000556001600155600260025500",
                "storage": {
                    "0x00": "0x02",
                    "0x01": "0x02",
                    "0x02": "0x02"
                }
            },
            "0xeed3749b6998cce96a4b5ae988f24f6720f98790": {
                "nonce": "0x01",
                "balance": "0x00",
                "code": "0x6001600155600060015560016002556000600255600160035560006003556001600455600060045560016005556000600555600160065560006006556001600755600060075560016008556000600855600160095560006009556001600a556000600a556001600b556000600b556001600c556000600c556001600d556000600d556001600e556000600e556001600f556000600f5560016010556000601055600160015500",
                "storage": {
                    "0x01": "0x01"
                }
            },
            "0x36bdd8886852759e2046e3bf4c290d5c29c81d82": {
                "nonce": "0x01",
                "balance": "0x01",
                "code": "0x",
                "storage": {}
            },
            "0x2adc25665018aa1fe0e6bc666dac8fc2697ff9ba": {
                "nonce": "0x00",
                "balance": "0x1bc16d674ee2e884",
                "code": "0x",
                "storage": {}
            }
        },
        "lastblockhash": "0xce0342c1643aa611a8496d61d2f3054353616d443ba460f70074ebbf35b462ed",
        "config": {
            "network": "London",
            "chainid": "0x01"
        },
        "genesisRLP": "0xf901faf901f5a00000000000000000000000000000000000000000000000000000000000000000a01dcc4de8dec75d7aab85b567b6ccd41ad312451b948a7413f0a142fd40d49347940000000000000000000000000000000000000000a0eb76dcc39152f22fdfe327b33d5b35143c2418841183ce5f5bbda55ff766b208a056e81f171bcc55a6ff8345e692c0f86e5b48e01b996cadc001622fb5e363b421a056e81f171bcc55a6ff8345e692c0f86e5b48e01b996cadc001622fb5e363b421b901000000000000000000000000000000000000000000000000000000000000000000000000000000000000000000000000000000000000000000000000000000000000000000000000000000000000000000000000000000000000000000000000000000000000000000000000000000000000000000000000000000000000000000000000000000000000000000000000000000000000000000000000000000000000000000000000000000000000000000000000000000000000000000000000000000000000000000000000000000000000000000000000000000000000000000000000000000000000000000000000000000000000000000000000000000000083020000808407270e00808000a0000000000000000000000000000000000000000000000000000000000000000088000000000000000007c0c0",
        "blocks": [
            {
                "blockHeader": {
                    "parentHash": "0xe79dedb0a1f2a7fedf54be5e2fbb2786f05f8733e2058042bbafbc21fb7ca2da",
                    "uncleHash": "0x1dcc4de8dec75d7aab85b567b6ccd41ad312451b948a7413f0a142fd40d49347",
                    "coinbase": "0x2adc25665018aa1fe0e6bc666dac8fc2697ff9ba",
                    "stateRoot": "0xd9ae7410f2101674af225046519499708e7374ccba49493fdf24c5edb88f672e",
                    "transactionsTrie": "0x4ba03ee443763253d94e1a98086a764ecd390044f353a88c12c31a809bbfb98b",
                    "receiptTrie": "0xe0a15a62c30231639e2ade7128b8c6ed5493e006417e7396a2751648fb0606ca",
                    "bloom": "0x00000000000000000000000000000000000000000000000000000000000000000000000000000000000000000000000000000000000000000000000000000000000000000000000000000000000000000000000000000000000000000000000000000000000000000000000000000000000000000000000000000000000000000000000000000000000000000000000000000000000000000000000000000000000000000000000000000000000000000000000000000000000000000000000000000000000000000000000000000000000000000000000000000000000000000000000000000000000000000000000000000000000000000000000000000000",
                    "difficulty": "0x020000",
                    "number": "0x01",
                    "gasLimit": "0x07270e00",
                    "gasUsed": "0x08f82c",
                    "timestamp": "0x03e8",
                    "extraData": "0x00",
                    "mixHash": "0x0000000000000000000000000000000000000000000000000000000000000000",
                    "nonce": "0x0000000000000000",
                    "baseFeePerGas": "0x07",
                    "hash": "0xce0342c1643aa611a8496d61d2f3054353616d443ba460f70074ebbf35b462ed"
                },
                "transactions": [
                    {
                        "type": "0x00",
                        "chainId": "0x01",
                        "nonce": "0x00",
                        "gasPrice": "0x0a",
                        "gasLimit": "0x1e8480",
                        "value": "0x01",
                        "data": "0x6000606452600060006020600073719f7405621c343fb20d8c414579f6ecd6ae3b98620493e0fa506000600060006000600073eed3749b6998cce96a4b5ae988f24f6720f98790620927c0f100",
                        "v": "0x25",
                        "r": "0x098e66d8e29996946ed176e222398ed53222f9fca1548b6f920b49610ed20369",
                        "s": "0x752e6a4d77f97bd68ba087add2e983828189d8ce4d3c18205ff2be497cf43e7d",
                        "sender": "0x1ad9bc24818784172ff393bb6f89f094d4d2ca29",
                        "to": ""
                    }
                ],
                "uncleHeaders": [],
                "receipts": [
                    {
                        "transactionHash": "0x8f851a59ca6bc77357e717ec8eab9403e9ab98f56e706da3c5357a8aea11699f",
                        "type": "0x00",
                        "cumulativeGasUsed": "0x08f82c",
                        "bloom": "0x00000000000000000000000000000000000000000000000000000000000000000000000000000000000000000000000000000000000000000000000000000000000000000000000000000000000000000000000000000000000000000000000000000000000000000000000000000000000000000000000000000000000000000000000000000000000000000000000000000000000000000000000000000000000000000000000000000000000000000000000000000000000000000000000000000000000000000000000000000000000000000000000000000000000000000000000000000000000000000000000000000000000000000000000000000000",
                        "logs": [],
                        "status": true,
                        "rlp": "0xf90109018308f82cb9010000000000000000000000000000000000000000000000000000000000000000000000000000000000000000000000000000000000000000000000000000000000000000000000000000000000000000000000000000000000000000000000000000000000000000000000000000000000000000000000000000000000000000000000000000000000000000000000000000000000000000000000000000000000000000000000000000000000000000000000000000000000000000000000000000000000000000000000000000000000000000000000000000000000000000000000000000000000000000000000000000000000000000000000000000000000c0"
                    }
                ],
                "rlp": "0xf9029cf901faa0e79dedb0a1f2a7fedf54be5e2fbb2786f05f8733e2058042bbafbc21fb7ca2daa01dcc4de8dec75d7aab85b567b6ccd41ad312451b948a7413f0a142fd40d49347942adc25665018aa1fe0e6bc666dac8fc2697ff9baa0d9ae7410f2101674af225046519499708e7374ccba49493fdf24c5edb88f672ea04ba03ee443763253d94e1a98086a764ecd390044f353a88c12c31a809bbfb98ba0e0a15a62c30231639e2ade7128b8c6ed5493e006417e7396a2751648fb0606cab901000000000000000000000000000000000000000000000000000000000000000000000000000000000000000000000000000000000000000000000000000000000000000000000000000000000000000000000000000000000000000000000000000000000000000000000000000000000000000000000000000000000000000000000000000000000000000000000000000000000000000000000000000000000000000000000000000000000000000000000000000000000000000000000000000000000000000000000000000000000000000000000000000000000000000000000000000000000000000000000000000000000000000000000000000000000083020000018407270e008308f82c8203e800a0000000000000000000000000000000000000000000000000000000000000000088000000000000000007f89cf89a800a831e84808001b84d6000606452600060006020600073719f7405621c343fb20d8c414579f6ecd6ae3b98620493e0fa506000600060006000600073eed3749b6998cce96a4b5ae988f24f6720f98790620927c0f10025a0098e66d8e29996946ed176e222398ed53222f9fca1548b6f920b49610ed20369a0752e6a4d77f97bd68ba087add2e983828189d8ce4d3c18205ff2be497cf43e7dc0",
                "blocknumber": "1"
            }
        ],
        "sealEngine": "NoProof",
        "_info": {
            "hash": "0xf6f5220ef2519e1b817e153289b5a70e5954b66e588d9bb44399e21283a7edac",
            "fixture-format": "blockchain_test",
            "comment": "`execution-specs` generated test",
            "filling-transition-tool": "2.19.0",
            "description": "Base case: STATICCALL to update-contract only.",
            "url": "https://github.com/ethereum/execution-specs/blob/tests-sn\u00f8bal-devnet-4@v1.0.0/tests/ported_static/stTimeConsuming/test_sstore_combinations_initial.py#L186",
            "metadata": {
                "opcode_count": {}
            }
        }
    }
}