{
    "tests/ported_static/stRandom2/test_random_statetest642.py::test_random_statetest642[fork_Cancun-blockchain_test_from_state_test]": {
        "network": "Cancun",
        "genesisBlockHeader": {
            "parentHash": "0x0000000000000000000000000000000000000000000000000000000000000000",
            "uncleHash": "0x1dcc4de8dec75d7aab85b567b6ccd41ad312451b948a7413f0a142fd40d49347",
            "coinbase": "0x0000000000000000000000000000000000000000",
            "stateRoot": "0x5faddf99fe2559748ad121e7d6fdfa6dec430454716d37038684fa56538a3f90",
            "transactionsTrie": "0x56e81f171bcc55a6ff8345e692c0f86e5b48e01b996cadc001622fb5e363b421",
            "receiptTrie": "0x56e81f171bcc55a6ff8345e692c0f86e5b48e01b996cadc001622fb5e363b421",
            "bloom": "0x00000000000000000000000000000000000000000000000000000000000000000000000000000000000000000000000000000000000000000000000000000000000000000000000000000000000000000000000000000000000000000000000000000000000000000000000000000000000000000000000000000000000000000000000000000000000000000000000000000000000000000000000000000000000000000000000000000000000000000000000000000000000000000000000000000000000000000000000000000000000000000000000000000000000000000000000000000000000000000000000000000000000000000000000000000000",
            "difficulty": "0x00",
            "number": "0x00",
            "gasLimit": "0x406fbe7b1f887c",
            "gasUsed": "0x00",
            "timestamp": "0x00",
            "extraData": "0x00",
            "mixHash": "0x0000000000000000000000000000000000000000000000000000000000000000",
            "nonce": "0x0000000000000000",
            "baseFeePerGas": "0x0b",
            "withdrawalsRoot": "0x56e81f171bcc55a6ff8345e692c0f86e5b48e01b996cadc001622fb5e363b421",
            "blobGasUsed": "0x00",
            "excessBlobGas": "0x00",
            "parentBeaconBlockRoot": "0x0000000000000000000000000000000000000000000000000000000000000000",
            "hash": "0x86e5b886b424c7fc9ff6c4a2864cab5a60841d9741f7ff79b75712c1470c5fef"
        },
        "pre": {
            "0x000f3df6d732807ef1319fb7b8bb8522d0beac02": {
                "nonce": "0x01",
                "balance": "0x00",
                "code": "0x3373fffffffffffffffffffffffffffffffffffffffe14604d57602036146024575f5ffd5b5f35801560495762001fff810690815414603c575f5ffd5b62001fff01545f5260205ff35b5f5ffd5b62001fff42064281555f359062001fff015500",
                "storage": {}
            },
            "0xeb537d4a9cf2245238c2829345453a70dfd7a592": {
                "nonce": "0x00",
                "balance": "0x26551a696cacb206",
                "code": "0x",
                "storage": {}
            },
            "0x88f8bb676eb054b4f4788abf1200cb51361038cf": {
                "nonce": "0x70",
                "balance": "0x577686e8d1344340",
                "code": "0x62f46a4f547b169c9edf92f4b39273fe47accc75d1209ae58463c2585607ce051ff6714c4f0fbf6de0659784434fb240652ff52d08576408f168a43a6651f765a4788a05537086290691d5a3239db43eefea96b0012ea26534e99e4ba9ee7f92f37fa731707f800683bafb70815757d861ad8cc6804154ce5b9de3146b58cd53",
                "storage": {}
            },
            "0x78d51368c50ed27350d847254125276522cf9dac": {
                "nonce": "0xa3",
                "balance": "0x11bae0bb79d6a164",
                "code": "0x",
                "storage": {}
            }
        },
        "postState": {
            "0x000f3df6d732807ef1319fb7b8bb8522d0beac02": {
                "nonce": "0x01",
                "balance": "0x00",
                "code": "0x3373fffffffffffffffffffffffffffffffffffffffe14604d57602036146024575f5ffd5b5f35801560495762001fff810690815414603c575f5ffd5b62001fff01545f5260205ff35b5f5ffd5b62001fff42064281555f359062001fff015500",
                "storage": {
                    "0x03e8": "0x03e8"
                }
            },
            "0xeb537d4a9cf2245238c2829345453a70dfd7a592": {
                "nonce": "0x01",
                "balance": "0x26551a6969c0dc84",
                "code": "0x",
                "storage": {}
            },
            "0x88f8bb676eb054b4f4788abf1200cb51361038cf": {
                "nonce": "0x70",
                "balance": "0x577686e8d1344340",
                "code": "0x62f46a4f547b169c9edf92f4b39273fe47accc75d1209ae58463c2585607ce051ff6714c4f0fbf6de0659784434fb240652ff52d08576408f168a43a6651f765a4788a05537086290691d5a3239db43eefea96b0012ea26534e99e4ba9ee7f92f37fa731707f800683bafb70815757d861ad8cc6804154ce5b9de3146b58cd53",
                "storage": {}
            },
            "0x78d51368c50ed27350d847254125276522cf9dac": {
                "nonce": "0xa3",
                "balance": "0x11bae0bb79d6a164",
                "code": "0x",
                "storage": {}
            }
        },
        "lastblockhash": "0x0139ee83404568055fc01b8c8051237685fa7618fa693b1182974cc167e414d4",
        "config": {
            "network": "Cancun",
            "chainid": "0x01",
            "blobSchedule": {
                "Cancun": {
                    "target": "0x03",
                    "max": "0x06",
                    "baseFeeUpdateFraction": "0x32f0ed"
                }
            }
        },
        "genesisRLP": "0xf9023ff90239a00000000000000000000000000000000000000000000000000000000000000000a01dcc4de8dec75d7aab85b567b6ccd41ad312451b948a7413f0a142fd40d49347940000000000000000000000000000000000000000a05faddf99fe2559748ad121e7d6fdfa6dec430454716d37038684fa56538a3f90a056e81f171bcc55a6ff8345e692c0f86e5b48e01b996cadc001622fb5e363b421a056e81f171bcc55a6ff8345e692c0f86e5b48e01b996cadc001622fb5e363b421b9010000000000000000000000000000000000000000000000000000000000000000000000000000000000000000000000000000000000000000000000000000000000000000000000000000000000000000000000000000000000000000000000000000000000000000000000000000000000000000000000000000000000000000000000000000000000000000000000000000000000000000000000000000000000000000000000000000000000000000000000000000000000000000000000000000000000000000000000000000000000000000000000000000000000000000000000000000000000000000000000000000000000000000000000000000000000808087406fbe7b1f887c808000a000000000000000000000000000000000000000000000000000000000000000008800000000000000000ba056e81f171bcc55a6ff8345e692c0f86e5b48e01b996cadc001622fb5e363b4218080a00000000000000000000000000000000000000000000000000000000000000000c0c0c0",
        "blocks": [
            {
                "blockHeader": {
                    "parentHash": "0x86e5b886b424c7fc9ff6c4a2864cab5a60841d9741f7ff79b75712c1470c5fef",
                    "uncleHash": "0x1dcc4de8dec75d7aab85b567b6ccd41ad312451b948a7413f0a142fd40d49347",
                    "coinbase": "0xeb537d4a9cf2245238c2829345453a70dfd7a592",
                    "stateRoot": "0xc66de0e12eff06ec27e835d18279164ad763aa04b1836dbbb0f084f3d2fcb4c6",
                    "transactionsTrie": "0x0ea87abee79514fbeded9bf4011ebbe8008abe76f9c495d1732976192cf907fc",
                    "receiptTrie": "0xcee336bc137cc894b7d225d6ae9c37338f0a677188e3c111f81d5e058c1883b1",
                    "bloom": "0x00000000000000000000000000000000000000000000000000000000000000000000000000000000000000000000000000000000000000000000000000000000000000000000000000000000000000000000000000000000000000000000000000000000000000000000000000000000000000000000000000000000000000000000000000000000000000000000000000000000000000000000000000000000000000000000000000000000000000000000000000000000000000000000000000000000000000000000000000000000000000000000000000000000000000000000000000000000000000000000000000000000000000000000000000000000",
                    "difficulty": "0x00",
                    "number": "0x01",
                    "gasLimit": "0x406fbe7b1f887c",
                    "gasUsed": "0x4ac88d",
                    "timestamp": "0x03e8",
                    "extraData": "0x00",
                    "mixHash": "0x0000000000000000000000000000000000000000000000000000000000020000",
                    "nonce": "0x0000000000000000",
                    "baseFeePerGas": "0x0a",
                    "withdrawalsRoot": "0x56e81f171bcc55a6ff8345e692c0f86e5b48e01b996cadc001622fb5e363b421",
                    "blobGasUsed": "0x00",
                    "excessBlobGas": "0x00",
                    "parentBeaconBlockRoot": "0x0000000000000000000000000000000000000000000000000000000000000000",
                    "hash": "0x0139ee83404568055fc01b8c8051237685fa7618fa693b1182974cc167e414d4"
                },
                "transactions": [
                    {
                        "type": "0x00",
                        "chainId": "0x01",
                        "nonce": "0x00",
                        "gasPrice": "0x0a",
                        "gasLimit": "0x4ac88d",
                        "to": "0x0000000000000000000000000000000000000007",
                        "value": "0xf5e5cc4b",
                        "data": "0x73ac858c3531a0d29ea7a15dfca264e244056b35816eb2fa5e8b941bb7e03e269017ca7b29556e2c50a4525c68460af5ba912653059274ec9907faed7f4ceacf55ed7b50228e7e26e7113d6751750964de40c9f5bb9f378e19edc3fd6ffd6af7ee7710107f382df318b8e1c707719add3db4b00892ddfba9f3e970c8aa9b41f208c53bf041556585635e6534916c5ec0ba7162ea7979164bb27d007c198e1e50cb945b54a4dca4ac110de1a1d47f43fa61c9a6e916d30c3e89695e77cb0da0bcea3bd98260927c609b5782488c5d7e06f07fc67aa5f1cb3c2d7ee74a4054d94e0108b3c962a00fb567a505e96a974f83567a74b898ddd6136e1e6634e4c85cb37db14f98d0080ac548e092928b6eee8d6863592d990f9298d7040cfa486e4e881b0f19eb06892d2185cc0b295d7f2669f00ac67c30de107cd324610a5af8bb29d11354783888e7b8ba5ab533f959729b6e25886d426bbf4cd00626cffbc0ec6beb6a62ae0d9e7166a6303d22036c2b3d45e88057940ada00938e",
                        "v": "0x26",
                        "r": "0xf45fa6df53dbfa018a0a44866e1b5256929d9f76648206aa208d42dac9906524",
                        "s": "0x7a24ec27464630ee38788c3a89056afb2a781f7c75f2008e30422928ab5d7820",
                        "sender": "0xeb537d4a9cf2245238c2829345453a70dfd7a592"
                    }
                ],
                "uncleHeaders": [],
                "withdrawals": [],
                "receipts": [
                    {
                        "transactionHash": "0xefce5b4a157669bb59165596e3316605355b567e4a340cbea095c0f5273b1298",
                        "type": "0x00",
                        "cumulativeGasUsed": "0x4ac88d",
                        "bloom": "0x00000000000000000000000000000000000000000000000000000000000000000000000000000000000000000000000000000000000000000000000000000000000000000000000000000000000000000000000000000000000000000000000000000000000000000000000000000000000000000000000000000000000000000000000000000000000000000000000000000000000000000000000000000000000000000000000000000000000000000000000000000000000000000000000000000000000000000000000000000000000000000000000000000000000000000000000000000000000000000000000000000000000000000000000000000000",
                        "logs": [],
                        "status": false,
                        "rlp": "0xf9010980834ac88db9010000000000000000000000000000000000000000000000000000000000000000000000000000000000000000000000000000000000000000000000000000000000000000000000000000000000000000000000000000000000000000000000000000000000000000000000000000000000000000000000000000000000000000000000000000000000000000000000000000000000000000000000000000000000000000000000000000000000000000000000000000000000000000000000000000000000000000000000000000000000000000000000000000000000000000000000000000000000000000000000000000000000000000000000000000000000c0"
                    }
                ],
                "rlp": "0xf90429f9023ea086e5b886b424c7fc9ff6c4a2864cab5a60841d9741f7ff79b75712c1470c5fefa01dcc4de8dec75d7aab85b567b6ccd41ad312451b948a7413f0a142fd40d4934794eb537d4a9cf2245238c2829345453a70dfd7a592a0c66de0e12eff06ec27e835d18279164ad763aa04b1836dbbb0f084f3d2fcb4c6a00ea87abee79514fbeded9bf4011ebbe8008abe76f9c495d1732976192cf907fca0cee336bc137cc894b7d225d6ae9c37338f0a677188e3c111f81d5e058c1883b1b9010000000000000000000000000000000000000000000000000000000000000000000000000000000000000000000000000000000000000000000000000000000000000000000000000000000000000000000000000000000000000000000000000000000000000000000000000000000000000000000000000000000000000000000000000000000000000000000000000000000000000000000000000000000000000000000000000000000000000000000000000000000000000000000000000000000000000000000000000000000000000000000000000000000000000000000000000000000000000000000000000000000000000000000000000000000000800187406fbe7b1f887c834ac88d8203e800a000000000000000000000000000000000000000000000000000000000000200008800000000000000000aa056e81f171bcc55a6ff8345e692c0f86e5b48e01b996cadc001622fb5e363b4218080a00000000000000000000000000000000000000000000000000000000000000000f901e3f901e0800a834ac88d94000000000000000000000000000000000000000784f5e5cc4bb9017a73ac858c3531a0d29ea7a15dfca264e244056b35816eb2fa5e8b941bb7e03e269017ca7b29556e2c50a4525c68460af5ba912653059274ec9907faed7f4ceacf55ed7b50228e7e26e7113d6751750964de40c9f5bb9f378e19edc3fd6ffd6af7ee7710107f382df318b8e1c707719add3db4b00892ddfba9f3e970c8aa9b41f208c53bf041556585635e6534916c5ec0ba7162ea7979164bb27d007c198e1e50cb945b54a4dca4ac110de1a1d47f43fa61c9a6e916d30c3e89695e77cb0da0bcea3bd98260927c609b5782488c5d7e06f07fc67aa5f1cb3c2d7ee74a4054d94e0108b3c962a00fb567a505e96a974f83567a74b898ddd6136e1e6634e4c85cb37db14f98d0080ac548e092928b6eee8d6863592d990f9298d7040cfa486e4e881b0f19eb06892d2185cc0b295d7f2669f00ac67c30de107cd324610a5af8bb29d11354783888e7b8ba5ab533f959729b6e25886d426bbf4cd00626cffbc0ec6beb6a62ae0d9e7166a6303d22036c2b3d45e88057940ada00938e26a0f45fa6df53dbfa018a0a44866e1b5256929d9f76648206aa208d42dac9906524a07a24ec27464630ee38788c3a89056afb2a781f7c75f2008e30422928ab5d7820c0c0",
                "blocknumber": "1"
            }
        ],
        "sealEngine": "NoProof",
        "_info": {
            "hash": "0x86208ced3fc5e5cba4e94b42b69b16b9ce0affd386dcd659a5edde80c91dee70",
            "fixture-format": "blockchain_test",
            "comment": "`execution-specs` generated test",
            "filling-transition-tool": "2.19.0",
            "description": "Test_random_statetest642.",
            "url": "https://github.com/ethereum/execution-specs/blob/tests-bal@v5.6.1/tests/ported_static/stRandom2/test_random_statetest642.py#L25",
            "metadata": {
                "opcode_count": {}
            }
        }
    }
}