{
    "tests/ported_static/stStaticCall/test_static_return_bounds_oog.py::test_static_return_bounds_oog[fork_Cancun-blockchain_test_from_state_test-d0]": {
        "network": "Cancun",
        "genesisBlockHeader": {
            "parentHash": "0x0000000000000000000000000000000000000000000000000000000000000000",
            "uncleHash": "0x1dcc4de8dec75d7aab85b567b6ccd41ad312451b948a7413f0a142fd40d49347",
            "coinbase": "0x0000000000000000000000000000000000000000",
            "stateRoot": "0x517c97cd18b0975a2db09efc43620465dc2fdd38fa2fd3f7f81a44a4e4c4ceaf",
            "transactionsTrie": "0x56e81f171bcc55a6ff8345e692c0f86e5b48e01b996cadc001622fb5e363b421",
            "receiptTrie": "0x56e81f171bcc55a6ff8345e692c0f86e5b48e01b996cadc001622fb5e363b421",
            "bloom": "0x00000000000000000000000000000000000000000000000000000000000000000000000000000000000000000000000000000000000000000000000000000000000000000000000000000000000000000000000000000000000000000000000000000000000000000000000000000000000000000000000000000000000000000000000000000000000000000000000000000000000000000000000000000000000000000000000000000000000000000000000000000000000000000000000000000000000000000000000000000000000000000000000000000000000000000000000000000000000000000000000000000000000000000000000000000000",
            "difficulty": "0x00",
            "number": "0x00",
            "gasLimit": "0x7fffffffffffffff",
            "gasUsed": "0x00",
            "timestamp": "0x00",
            "extraData": "0x00",
            "mixHash": "0x0000000000000000000000000000000000000000000000000000000000000000",
            "nonce": "0x0000000000000000",
            "baseFeePerGas": "0x0b",
            "withdrawalsRoot": "0x56e81f171bcc55a6ff8345e692c0f86e5b48e01b996cadc001622fb5e363b421",
            "blobGasUsed": "0x00",
            "excessBlobGas": "0x00",
            "parentBeaconBlockRoot": "0x0000000000000000000000000000000000000000000000000000000000000000",
            "hash": "0xfb3fd1dc6811bb5c5f4751aeae909a0a5becb6a2c8fea3246085e8f9f16c2983"
        },
        "pre": {
            "0x000f3df6d732807ef1319fb7b8bb8522d0beac02": {
                "nonce": "0x01",
                "balance": "0x00",
                "code": "0x3373fffffffffffffffffffffffffffffffffffffffe14604d57602036146024575f5ffd5b5f35801560495762001fff810690815414603c575f5ffd5b62001fff01545f5260205ff35b5f5ffd5b62001fff42064281555f359062001fff015500",
                "storage": {}
            },
            "0x57545d218764bc417fdcbbc2c1f43b2a62105ce1": {
                "nonce": "0x00",
                "balance": "0x00",
                "code": "0x6000600060006000735efbf04d8e1cc5b6b3719b16b5744a09bacfc18b6707fffffffffffffffa600155600060006000600073c7aa750fe05c7e38475a49fe98a301024d0c1d546707fffffffffffffffa600255600060006000600073ff6b6d23be161344e86eb7b174acedd4b1dc6dc76707fffffffffffffffa6003556000600060006000737bbcf24c83493c4e733cb54079b51873d3211ad26707fffffffffffffffa6004556000600060006000737a4461ac9f9cd13f40f9514a7c60e23a71c1dff36707fffffffffffffffa6005556000600060006000734912bc7b66a3bf27adfa54ab049e90e8c9c4dc636707fffffffffffffffa6006556000600060006000734912bc7b66a3bf27adfa54ab049e90e8c9c4dc636707fffffffffffffffa6007556000600060006000734912bc7b66a3bf27adfa54ab049e90e8c9c4dc636707fffffffffffffffa6008556000600060006000734912bc7b66a3bf27adfa54ab049e90e8c9c4dc636707fffffffffffffffa6009556000600060006000734912bc7b66a3bf27adfa54ab049e90e8c9c4dc636707fffffffffffffffa600a556000600060006000734912bc7b66a3bf27adfa54ab049e90e8c9c4dc636707fffffffffffffffa600b556000600060006000734912bc7b66a3bf27adfa54ab049e90e8c9c4dc636707fffffffffffffffa600c556000600060006000734912bc7b66a3bf27adfa54ab049e90e8c9c4dc636707fffffffffffffffa600d556000600060006000734912bc7b66a3bf27adfa54ab049e90e8c9c4dc636707fffffffffffffffa600e556000600060006000734912bc7b66a3bf27adfa54ab049e90e8c9c4dc636707fffffffffffffffa600f556000600060006000734912bc7b66a3bf27adfa54ab049e90e8c9c4dc636707fffffffffffffffa6010556000600035146102af575a6102b7565b622fffff6000205b00",
                "storage": {}
            },
            "0x5efbf04d8e1cc5b6b3719b16b5744a09bacfc18b": {
                "nonce": "0x00",
                "balance": "0x00",
                "code": "0x60006000f300",
                "storage": {}
            },
            "0xc7aa750fe05c7e38475a49fe98a301024d0c1d54": {
                "nonce": "0x00",
                "balance": "0x00",
                "code": "0x6000630ffffffff300",
                "storage": {}
            },
            "0xff6b6d23be161344e86eb7b174acedd4b1dc6dc7": {
                "nonce": "0x00",
                "balance": "0x00",
                "code": "0x600063fffffffff300",
                "storage": {}
            },
            "0x7bbcf24c83493c4e733cb54079b51873d3211ad2": {
                "nonce": "0x00",
                "balance": "0x00",
                "code": "0x600067fffffffffffffffff300",
                "storage": {}
            },
            "0x7a4461ac9f9cd13f40f9514a7c60e23a71c1dff3": {
                "nonce": "0x00",
                "balance": "0x00",
                "code": "0x60006d0ffffffffffffffffffffffffffff300",
                "storage": {}
            },
            "0x4912bc7b66a3bf27adfa54ab049e90e8c9c4dc63": {
                "nonce": "0x00",
                "balance": "0x00",
                "code": "0x60007ffffffffffffffffffffffffffffffffffffffffffffffffffffffffffffffffff300",
                "storage": {}
            },
            "0x7266f1c07958d55ce36de0592604f1a915bdf1c2": {
                "nonce": "0x00",
                "balance": "0x00",
                "code": "0x630fffffff6000f300",
                "storage": {}
            },
            "0x2ceb88d6c420e5c65593d9ebed9a25600ab9e113": {
                "nonce": "0x00",
                "balance": "0x00",
                "code": "0x63ffffffff6000f300",
                "storage": {}
            },
            "0x0b09ca4308585f026b8d02be147fea0739ec463a": {
                "nonce": "0x00",
                "balance": "0x00",
                "code": "0x67ffffffffffffffff6000f300",
                "storage": {}
            },
            "0xf519de4dcb9aaa53f8f0db9b18c715c928caade8": {
                "nonce": "0x00",
                "balance": "0x00",
                "code": "0x6d0fffffffffffffffffffffffffff6000f300",
                "storage": {}
            },
            "0x28463490948d21efc49949b4d394989bf52c57f1": {
                "nonce": "0x00",
                "balance": "0x00",
                "code": "0x7fffffffffffffffffffffffffffffffffffffffffffffffffffffffffffffffff6000f300",
                "storage": {}
            },
            "0x07084994c5891b1467d74bedb0477da4909e4c0e": {
                "nonce": "0x00",
                "balance": "0x00",
                "code": "0x630fffffff630ffffffff300",
                "storage": {}
            },
            "0xad7754a8a56cc5ad4e319fa94194e435628dee67": {
                "nonce": "0x00",
                "balance": "0x00",
                "code": "0x63ffffffff63fffffffff300",
                "storage": {}
            },
            "0x416408c1d7fda274ddeb45ffe4817068808121ca": {
                "nonce": "0x00",
                "balance": "0x00",
                "code": "0x67ffffffffffffffff67fffffffffffffffff300",
                "storage": {}
            },
            "0x2548bda95a3831abcd613f4d24e4634615a71cca": {
                "nonce": "0x00",
                "balance": "0x00",
                "code": "0x6d0fffffffffffffffffffffffffff6d0ffffffffffffffffffffffffffff300",
                "storage": {}
            },
            "0x76006c948f3a0529479c6d18a6f95908426e8092": {
                "nonce": "0x00",
                "balance": "0x00",
                "code": "0x7fffffffffffffffffffffffffffffffffffffffffffffffffffffffffffffffff7ffffffffffffffffffffffffffffffffffffffffffffffffffffffffffffffffff300",
                "storage": {}
            },
            "0xa99635038e8d9ab237a31179dd5c9087713f723a": {
                "nonce": "0x00",
                "balance": "0xffffffffffffffffffffffffffffffffffffffffffffffffffffffffffffffff",
                "code": "0x",
                "storage": {}
            }
        },
        "postState": {
            "0x000f3df6d732807ef1319fb7b8bb8522d0beac02": {
                "nonce": "0x01",
                "balance": "0x00",
                "code": "0x3373fffffffffffffffffffffffffffffffffffffffe14604d57602036146024575f5ffd5b5f35801560495762001fff810690815414603c575f5ffd5b62001fff01545f5260205ff35b5f5ffd5b62001fff42064281555f359062001fff015500",
                "storage": {
                    "0x03e8": "0x03e8"
                }
            },
            "0x57545d218764bc417fdcbbc2c1f43b2a62105ce1": {
                "nonce": "0x00",
                "balance": "0x00",
                "code": "0x6000600060006000735efbf04d8e1cc5b6b3719b16b5744a09bacfc18b6707fffffffffffffffa600155600060006000600073c7aa750fe05c7e38475a49fe98a301024d0c1d546707fffffffffffffffa600255600060006000600073ff6b6d23be161344e86eb7b174acedd4b1dc6dc76707fffffffffffffffa6003556000600060006000737bbcf24c83493c4e733cb54079b51873d3211ad26707fffffffffffffffa6004556000600060006000737a4461ac9f9cd13f40f9514a7c60e23a71c1dff36707fffffffffffffffa6005556000600060006000734912bc7b66a3bf27adfa54ab049e90e8c9c4dc636707fffffffffffffffa6006556000600060006000734912bc7b66a3bf27adfa54ab049e90e8c9c4dc636707fffffffffffffffa6007556000600060006000734912bc7b66a3bf27adfa54ab049e90e8c9c4dc636707fffffffffffffffa6008556000600060006000734912bc7b66a3bf27adfa54ab049e90e8c9c4dc636707fffffffffffffffa6009556000600060006000734912bc7b66a3bf27adfa54ab049e90e8c9c4dc636707fffffffffffffffa600a556000600060006000734912bc7b66a3bf27adfa54ab049e90e8c9c4dc636707fffffffffffffffa600b556000600060006000734912bc7b66a3bf27adfa54ab049e90e8c9c4dc636707fffffffffffffffa600c556000600060006000734912bc7b66a3bf27adfa54ab049e90e8c9c4dc636707fffffffffffffffa600d556000600060006000734912bc7b66a3bf27adfa54ab049e90e8c9c4dc636707fffffffffffffffa600e556000600060006000734912bc7b66a3bf27adfa54ab049e90e8c9c4dc636707fffffffffffffffa600f556000600060006000734912bc7b66a3bf27adfa54ab049e90e8c9c4dc636707fffffffffffffffa6010556000600035146102af575a6102b7565b622fffff6000205b00",
                "storage": {}
            },
            "0x5efbf04d8e1cc5b6b3719b16b5744a09bacfc18b": {
                "nonce": "0x00",
                "balance": "0x00",
                "code": "0x60006000f300",
                "storage": {}
            },
            "0xc7aa750fe05c7e38475a49fe98a301024d0c1d54": {
                "nonce": "0x00",
                "balance": "0x00",
                "code": "0x6000630ffffffff300",
                "storage": {}
            },
            "0xff6b6d23be161344e86eb7b174acedd4b1dc6dc7": {
                "nonce": "0x00",
                "balance": "0x00",
                "code": "0x600063fffffffff300",
                "storage": {}
            },
            "0x7bbcf24c83493c4e733cb54079b51873d3211ad2": {
                "nonce": "0x00",
                "balance": "0x00",
                "code": "0x600067fffffffffffffffff300",
                "storage": {}
            },
            "0x7a4461ac9f9cd13f40f9514a7c60e23a71c1dff3": {
                "nonce": "0x00",
                "balance": "0x00",
                "code": "0x60006d0ffffffffffffffffffffffffffff300",
                "storage": {}
            },
            "0x4912bc7b66a3bf27adfa54ab049e90e8c9c4dc63": {
                "nonce": "0x00",
                "balance": "0x00",
                "code": "0x60007ffffffffffffffffffffffffffffffffffffffffffffffffffffffffffffffffff300",
                "storage": {}
            },
            "0x7266f1c07958d55ce36de0592604f1a915bdf1c2": {
                "nonce": "0x00",
                "balance": "0x00",
                "code": "0x630fffffff6000f300",
                "storage": {}
            },
            "0x2ceb88d6c420e5c65593d9ebed9a25600ab9e113": {
                "nonce": "0x00",
                "balance": "0x00",
                "code": "0x63ffffffff6000f300",
                "storage": {}
            },
            "0x0b09ca4308585f026b8d02be147fea0739ec463a": {
                "nonce": "0x00",
                "balance": "0x00",
                "code": "0x67ffffffffffffffff6000f300",
                "storage": {}
            },
            "0xf519de4dcb9aaa53f8f0db9b18c715c928caade8": {
                "nonce": "0x00",
                "balance": "0x00",
                "code": "0x6d0fffffffffffffffffffffffffff6000f300",
                "storage": {}
            },
            "0x28463490948d21efc49949b4d394989bf52c57f1": {
                "nonce": "0x00",
                "balance": "0x00",
                "code": "0x7fffffffffffffffffffffffffffffffffffffffffffffffffffffffffffffffff6000f300",
                "storage": {}
            },
            "0x07084994c5891b1467d74bedb0477da4909e4c0e": {
                "nonce": "0x00",
                "balance": "0x00",
                "code": "0x630fffffff630ffffffff300",
                "storage": {}
            },
            "0xad7754a8a56cc5ad4e319fa94194e435628dee67": {
                "nonce": "0x00",
                "balance": "0x00",
                "code": "0x63ffffffff63fffffffff300",
                "storage": {}
            },
            "0x416408c1d7fda274ddeb45ffe4817068808121ca": {
                "nonce": "0x00",
                "balance": "0x00",
                "code": "0x67ffffffffffffffff67fffffffffffffffff300",
                "storage": {}
            },
            "0x2548bda95a3831abcd613f4d24e4634615a71cca": {
                "nonce": "0x00",
                "balance": "0x00",
                "code": "0x6d0fffffffffffffffffffffffffff6d0ffffffffffffffffffffffffffff300",
                "storage": {}
            },
            "0x76006c948f3a0529479c6d18a6f95908426e8092": {
                "nonce": "0x00",
                "balance": "0x00",
                "code": "0x7fffffffffffffffffffffffffffffffffffffffffffffffffffffffffffffffff7ffffffffffffffffffffffffffffffffffffffffffffffffffffffffffffffffff300",
                "storage": {}
            },
            "0xa99635038e8d9ab237a31179dd5c9087713f723a": {
                "nonce": "0x01",
                "balance": "0xfffffffffffffffffffffffffffffffffffffffffffffffffffffffff70f2e7f",
                "code": "0x",
                "storage": {}
            }
        },
        "lastblockhash": "0x8b6fdd10509cda4b2340d8cf12e295931e1e460f0f252e925d9b33e970441746",
        "config": {
            "network": "Cancun",
            "chainid": "0x01",
            "blobSchedule": {
                "Cancun": {
                    "target": "0x03",
                    "max": "0x06",
                    "baseFeeUpdateFraction": "0x32f0ed"
                }
            }
        },
        "genesisRLP": "0xf90240f9023aa00000000000000000000000000000000000000000000000000000000000000000a01dcc4de8dec75d7aab85b567b6ccd41ad312451b948a7413f0a142fd40d49347940000000000000000000000000000000000000000a0517c97cd18b0975a2db09efc43620465dc2fdd38fa2fd3f7f81a44a4e4c4ceafa056e81f171bcc55a6ff8345e692c0f86e5b48e01b996cadc001622fb5e363b421a056e81f171bcc55a6ff8345e692c0f86e5b48e01b996cadc001622fb5e363b421b90100000000000000000000000000000000000000000000000000000000000000000000000000000000000000000000000000000000000000000000000000000000000000000000000000000000000000000000000000000000000000000000000000000000000000000000000000000000000000000000000000000000000000000000000000000000000000000000000000000000000000000000000000000000000000000000000000000000000000000000000000000000000000000000000000000000000000000000000000000000000000000000000000000000000000000000000000000000000000000000000000000000000000000000000000000000008080887fffffffffffffff808000a000000000000000000000000000000000000000000000000000000000000000008800000000000000000ba056e81f171bcc55a6ff8345e692c0f86e5b48e01b996cadc001622fb5e363b4218080a00000000000000000000000000000000000000000000000000000000000000000c0c0c0",
        "blocks": [
            {
                "blockHeader": {
                    "parentHash": "0xfb3fd1dc6811bb5c5f4751aeae909a0a5becb6a2c8fea3246085e8f9f16c2983",
                    "uncleHash": "0x1dcc4de8dec75d7aab85b567b6ccd41ad312451b948a7413f0a142fd40d49347",
                    "coinbase": "0x2adc25665018aa1fe0e6bc666dac8fc2697ff9ba",
                    "stateRoot": "0x4dfccad36f995faaf34c1a4383a58b386e4f377e3c80b36130033489544171b6",
                    "transactionsTrie": "0xb007875be05836d52b09dc9f4e52e7a334dae5db6622bd5d671481f3b75dc442",
                    "receiptTrie": "0x44c8da651345c7be24a9f614adf5ac61a5f24908f40e53fd1b4f3ee7c034bc1e",
                    "bloom": "0x00000000000000000000000000000000000000000000000000000000000000000000000000000000000000000000000000000000000000000000000000000000000000000000000000000000000000000000000000000000000000000000000000000000000000000000000000000000000000000000000000000000000000000000000000000000000000000000000000000000000000000000000000000000000000000000000000000000000000000000000000000000000000000000000000000000000000000000000000000000000000000000000000000000000000000000000000000000000000000000000000000000000000000000000000000000",
                    "difficulty": "0x00",
                    "number": "0x01",
                    "gasLimit": "0x7fffffffffffffff",
                    "gasUsed": "0xe4e1c0",
                    "timestamp": "0x03e8",
                    "extraData": "0x00",
                    "mixHash": "0x0000000000000000000000000000000000000000000000000000000000020000",
                    "nonce": "0x0000000000000000",
                    "baseFeePerGas": "0x0a",
                    "withdrawalsRoot": "0x56e81f171bcc55a6ff8345e692c0f86e5b48e01b996cadc001622fb5e363b421",
                    "blobGasUsed": "0x00",
                    "excessBlobGas": "0x00",
                    "parentBeaconBlockRoot": "0x0000000000000000000000000000000000000000000000000000000000000000",
                    "hash": "0x8b6fdd10509cda4b2340d8cf12e295931e1e460f0f252e925d9b33e970441746"
                },
                "transactions": [
                    {
                        "type": "0x00",
                        "chainId": "0x01",
                        "nonce": "0x00",
                        "gasPrice": "0x0a",
                        "gasLimit": "0xe4e1c0",
                        "to": "0x57545d218764bc417fdcbbc2c1f43b2a62105ce1",
                        "value": "0x01",
                        "data": "0x00",
                        "v": "0x26",
                        "r": "0x67e0dd4af039e9a20b9f3d3bb90eeabe02d1fa9440882c18c7936623332aef93",
                        "s": "0x6e302122332cf4899679d184298ae8fc906bd284faa7ce0df022b097df0b850c",
                        "sender": "0xa99635038e8d9ab237a31179dd5c9087713f723a"
                    }
                ],
                "uncleHeaders": [],
                "withdrawals": [],
                "receipts": [
                    {
                        "transactionHash": "0xe1dd03513653f45776faca4d8d115fe6bee5337a69427c322ad07ce66d50d58c",
                        "type": "0x00",
                        "cumulativeGasUsed": "0xe4e1c0",
                        "bloom": "0x00000000000000000000000000000000000000000000000000000000000000000000000000000000000000000000000000000000000000000000000000000000000000000000000000000000000000000000000000000000000000000000000000000000000000000000000000000000000000000000000000000000000000000000000000000000000000000000000000000000000000000000000000000000000000000000000000000000000000000000000000000000000000000000000000000000000000000000000000000000000000000000000000000000000000000000000000000000000000000000000000000000000000000000000000000000",
                        "logs": [],
                        "status": false,
                        "rlp": "0xf901098083e4e1c0b9010000000000000000000000000000000000000000000000000000000000000000000000000000000000000000000000000000000000000000000000000000000000000000000000000000000000000000000000000000000000000000000000000000000000000000000000000000000000000000000000000000000000000000000000000000000000000000000000000000000000000000000000000000000000000000000000000000000000000000000000000000000000000000000000000000000000000000000000000000000000000000000000000000000000000000000000000000000000000000000000000000000000000000000000000000000000c0"
                    }
                ],
                "rlp": "0xf902a8f9023fa0fb3fd1dc6811bb5c5f4751aeae909a0a5becb6a2c8fea3246085e8f9f16c2983a01dcc4de8dec75d7aab85b567b6ccd41ad312451b948a7413f0a142fd40d49347942adc25665018aa1fe0e6bc666dac8fc2697ff9baa04dfccad36f995faaf34c1a4383a58b386e4f377e3c80b36130033489544171b6a0b007875be05836d52b09dc9f4e52e7a334dae5db6622bd5d671481f3b75dc442a044c8da651345c7be24a9f614adf5ac61a5f24908f40e53fd1b4f3ee7c034bc1eb90100000000000000000000000000000000000000000000000000000000000000000000000000000000000000000000000000000000000000000000000000000000000000000000000000000000000000000000000000000000000000000000000000000000000000000000000000000000000000000000000000000000000000000000000000000000000000000000000000000000000000000000000000000000000000000000000000000000000000000000000000000000000000000000000000000000000000000000000000000000000000000000000000000000000000000000000000000000000000000000000000000000000000000000000000000000008001887fffffffffffffff83e4e1c08203e800a000000000000000000000000000000000000000000000000000000000000200008800000000000000000aa056e81f171bcc55a6ff8345e692c0f86e5b48e01b996cadc001622fb5e363b4218080a00000000000000000000000000000000000000000000000000000000000000000f862f860800a83e4e1c09457545d218764bc417fdcbbc2c1f43b2a62105ce1010026a067e0dd4af039e9a20b9f3d3bb90eeabe02d1fa9440882c18c7936623332aef93a06e302122332cf4899679d184298ae8fc906bd284faa7ce0df022b097df0b850cc0c0",
                "blocknumber": "1"
            }
        ],
        "sealEngine": "NoProof",
        "_info": {
            "hash": "0x21c7a136f15b219598b367938f19cbd0909906aa645edb48db48f2d8ad2c3fd7",
            "fixture-format": "blockchain_test",
            "comment": "`execution-specs` generated test",
            "filling-transition-tool": "2.19.0",
            "description": "Test_static_return_bounds_oog.",
            "url": "https://github.com/ethereum/execution-specs/blob/tests-bal@v5.6.0/tests/ported_static/stStaticCall/test_static_return_bounds_oog.py#L29",
            "metadata": {
                "opcode_count": {}
            }
        }
    },
    "tests/ported_static/stStaticCall/test_static_return_bounds_oog.py::test_static_return_bounds_oog[fork_Cancun-blockchain_test_from_state_test-d1]": {
        "network": "Cancun",
        "genesisBlockHeader": {
            "parentHash": "0x0000000000000000000000000000000000000000000000000000000000000000",
            "uncleHash": "0x1dcc4de8dec75d7aab85b567b6ccd41ad312451b948a7413f0a142fd40d49347",
            "coinbase": "0x0000000000000000000000000000000000000000",
            "stateRoot": "0x517c97cd18b0975a2db09efc43620465dc2fdd38fa2fd3f7f81a44a4e4c4ceaf",
            "transactionsTrie": "0x56e81f171bcc55a6ff8345e692c0f86e5b48e01b996cadc001622fb5e363b421",
            "receiptTrie": "0x56e81f171bcc55a6ff8345e692c0f86e5b48e01b996cadc001622fb5e363b421",
            "bloom": "0x00000000000000000000000000000000000000000000000000000000000000000000000000000000000000000000000000000000000000000000000000000000000000000000000000000000000000000000000000000000000000000000000000000000000000000000000000000000000000000000000000000000000000000000000000000000000000000000000000000000000000000000000000000000000000000000000000000000000000000000000000000000000000000000000000000000000000000000000000000000000000000000000000000000000000000000000000000000000000000000000000000000000000000000000000000000",
            "difficulty": "0x00",
            "number": "0x00",
            "gasLimit": "0x7fffffffffffffff",
            "gasUsed": "0x00",
            "timestamp": "0x00",
            "extraData": "0x00",
            "mixHash": "0x0000000000000000000000000000000000000000000000000000000000000000",
            "nonce": "0x0000000000000000",
            "baseFeePerGas": "0x0b",
            "withdrawalsRoot": "0x56e81f171bcc55a6ff8345e692c0f86e5b48e01b996cadc001622fb5e363b421",
            "blobGasUsed": "0x00",
            "excessBlobGas": "0x00",
            "parentBeaconBlockRoot": "0x0000000000000000000000000000000000000000000000000000000000000000",
            "hash": "0xfb3fd1dc6811bb5c5f4751aeae909a0a5becb6a2c8fea3246085e8f9f16c2983"
        },
        "pre": {
            "0x000f3df6d732807ef1319fb7b8bb8522d0beac02": {
                "nonce": "0x01",
                "balance": "0x00",
                "code": "0x3373fffffffffffffffffffffffffffffffffffffffe14604d57602036146024575f5ffd5b5f35801560495762001fff810690815414603c575f5ffd5b62001fff01545f5260205ff35b5f5ffd5b62001fff42064281555f359062001fff015500",
                "storage": {}
            },
            "0x57545d218764bc417fdcbbc2c1f43b2a62105ce1": {
                "nonce": "0x00",
                "balance": "0x00",
                "code": "0x6000600060006000735efbf04d8e1cc5b6b3719b16b5744a09bacfc18b6707fffffffffffffffa600155600060006000600073c7aa750fe05c7e38475a49fe98a301024d0c1d546707fffffffffffffffa600255600060006000600073ff6b6d23be161344e86eb7b174acedd4b1dc6dc76707fffffffffffffffa6003556000600060006000737bbcf24c83493c4e733cb54079b51873d3211ad26707fffffffffffffffa6004556000600060006000737a4461ac9f9cd13f40f9514a7c60e23a71c1dff36707fffffffffffffffa6005556000600060006000734912bc7b66a3bf27adfa54ab049e90e8c9c4dc636707fffffffffffffffa6006556000600060006000734912bc7b66a3bf27adfa54ab049e90e8c9c4dc636707fffffffffffffffa6007556000600060006000734912bc7b66a3bf27adfa54ab049e90e8c9c4dc636707fffffffffffffffa6008556000600060006000734912bc7b66a3bf27adfa54ab049e90e8c9c4dc636707fffffffffffffffa6009556000600060006000734912bc7b66a3bf27adfa54ab049e90e8c9c4dc636707fffffffffffffffa600a556000600060006000734912bc7b66a3bf27adfa54ab049e90e8c9c4dc636707fffffffffffffffa600b556000600060006000734912bc7b66a3bf27adfa54ab049e90e8c9c4dc636707fffffffffffffffa600c556000600060006000734912bc7b66a3bf27adfa54ab049e90e8c9c4dc636707fffffffffffffffa600d556000600060006000734912bc7b66a3bf27adfa54ab049e90e8c9c4dc636707fffffffffffffffa600e556000600060006000734912bc7b66a3bf27adfa54ab049e90e8c9c4dc636707fffffffffffffffa600f556000600060006000734912bc7b66a3bf27adfa54ab049e90e8c9c4dc636707fffffffffffffffa6010556000600035146102af575a6102b7565b622fffff6000205b00",
                "storage": {}
            },
            "0x5efbf04d8e1cc5b6b3719b16b5744a09bacfc18b": {
                "nonce": "0x00",
                "balance": "0x00",
                "code": "0x60006000f300",
                "storage": {}
            },
            "0xc7aa750fe05c7e38475a49fe98a301024d0c1d54": {
                "nonce": "0x00",
                "balance": "0x00",
                "code": "0x6000630ffffffff300",
                "storage": {}
            },
            "0xff6b6d23be161344e86eb7b174acedd4b1dc6dc7": {
                "nonce": "0x00",
                "balance": "0x00",
                "code": "0x600063fffffffff300",
                "storage": {}
            },
            "0x7bbcf24c83493c4e733cb54079b51873d3211ad2": {
                "nonce": "0x00",
                "balance": "0x00",
                "code": "0x600067fffffffffffffffff300",
                "storage": {}
            },
            "0x7a4461ac9f9cd13f40f9514a7c60e23a71c1dff3": {
                "nonce": "0x00",
                "balance": "0x00",
                "code": "0x60006d0ffffffffffffffffffffffffffff300",
                "storage": {}
            },
            "0x4912bc7b66a3bf27adfa54ab049e90e8c9c4dc63": {
                "nonce": "0x00",
                "balance": "0x00",
                "code": "0x60007ffffffffffffffffffffffffffffffffffffffffffffffffffffffffffffffffff300",
                "storage": {}
            },
            "0x7266f1c07958d55ce36de0592604f1a915bdf1c2": {
                "nonce": "0x00",
                "balance": "0x00",
                "code": "0x630fffffff6000f300",
                "storage": {}
            },
            "0x2ceb88d6c420e5c65593d9ebed9a25600ab9e113": {
                "nonce": "0x00",
                "balance": "0x00",
                "code": "0x63ffffffff6000f300",
                "storage": {}
            },
            "0x0b09ca4308585f026b8d02be147fea0739ec463a": {
                "nonce": "0x00",
                "balance": "0x00",
                "code": "0x67ffffffffffffffff6000f300",
                "storage": {}
            },
            "0xf519de4dcb9aaa53f8f0db9b18c715c928caade8": {
                "nonce": "0x00",
                "balance": "0x00",
                "code": "0x6d0fffffffffffffffffffffffffff6000f300",
                "storage": {}
            },
            "0x28463490948d21efc49949b4d394989bf52c57f1": {
                "nonce": "0x00",
                "balance": "0x00",
                "code": "0x7fffffffffffffffffffffffffffffffffffffffffffffffffffffffffffffffff6000f300",
                "storage": {}
            },
            "0x07084994c5891b1467d74bedb0477da4909e4c0e": {
                "nonce": "0x00",
                "balance": "0x00",
                "code": "0x630fffffff630ffffffff300",
                "storage": {}
            },
            "0xad7754a8a56cc5ad4e319fa94194e435628dee67": {
                "nonce": "0x00",
                "balance": "0x00",
                "code": "0x63ffffffff63fffffffff300",
                "storage": {}
            },
            "0x416408c1d7fda274ddeb45ffe4817068808121ca": {
                "nonce": "0x00",
                "balance": "0x00",
                "code": "0x67ffffffffffffffff67fffffffffffffffff300",
                "storage": {}
            },
            "0x2548bda95a3831abcd613f4d24e4634615a71cca": {
                "nonce": "0x00",
                "balance": "0x00",
                "code": "0x6d0fffffffffffffffffffffffffff6d0ffffffffffffffffffffffffffff300",
                "storage": {}
            },
            "0x76006c948f3a0529479c6d18a6f95908426e8092": {
                "nonce": "0x00",
                "balance": "0x00",
                "code": "0x7fffffffffffffffffffffffffffffffffffffffffffffffffffffffffffffffff7ffffffffffffffffffffffffffffffffffffffffffffffffffffffffffffffffff300",
                "storage": {}
            },
            "0xa99635038e8d9ab237a31179dd5c9087713f723a": {
                "nonce": "0x00",
                "balance": "0xffffffffffffffffffffffffffffffffffffffffffffffffffffffffffffffff",
                "code": "0x",
                "storage": {}
            }
        },
        "postState": {
            "0x000f3df6d732807ef1319fb7b8bb8522d0beac02": {
                "nonce": "0x01",
                "balance": "0x00",
                "code": "0x3373fffffffffffffffffffffffffffffffffffffffe14604d57602036146024575f5ffd5b5f35801560495762001fff810690815414603c575f5ffd5b62001fff01545f5260205ff35b5f5ffd5b62001fff42064281555f359062001fff015500",
                "storage": {
                    "0x03e8": "0x03e8"
                }
            },
            "0x57545d218764bc417fdcbbc2c1f43b2a62105ce1": {
                "nonce": "0x00",
                "balance": "0x01",
                "code": "0x6000600060006000735efbf04d8e1cc5b6b3719b16b5744a09bacfc18b6707fffffffffffffffa600155600060006000600073c7aa750fe05c7e38475a49fe98a301024d0c1d546707fffffffffffffffa600255600060006000600073ff6b6d23be161344e86eb7b174acedd4b1dc6dc76707fffffffffffffffa6003556000600060006000737bbcf24c83493c4e733cb54079b51873d3211ad26707fffffffffffffffa6004556000600060006000737a4461ac9f9cd13f40f9514a7c60e23a71c1dff36707fffffffffffffffa6005556000600060006000734912bc7b66a3bf27adfa54ab049e90e8c9c4dc636707fffffffffffffffa6006556000600060006000734912bc7b66a3bf27adfa54ab049e90e8c9c4dc636707fffffffffffffffa6007556000600060006000734912bc7b66a3bf27adfa54ab049e90e8c9c4dc636707fffffffffffffffa6008556000600060006000734912bc7b66a3bf27adfa54ab049e90e8c9c4dc636707fffffffffffffffa6009556000600060006000734912bc7b66a3bf27adfa54ab049e90e8c9c4dc636707fffffffffffffffa600a556000600060006000734912bc7b66a3bf27adfa54ab049e90e8c9c4dc636707fffffffffffffffa600b556000600060006000734912bc7b66a3bf27adfa54ab049e90e8c9c4dc636707fffffffffffffffa600c556000600060006000734912bc7b66a3bf27adfa54ab049e90e8c9c4dc636707fffffffffffffffa600d556000600060006000734912bc7b66a3bf27adfa54ab049e90e8c9c4dc636707fffffffffffffffa600e556000600060006000734912bc7b66a3bf27adfa54ab049e90e8c9c4dc636707fffffffffffffffa600f556000600060006000734912bc7b66a3bf27adfa54ab049e90e8c9c4dc636707fffffffffffffffa6010556000600035146102af575a6102b7565b622fffff6000205b00",
                "storage": {
                    "0x01": "0x01",
                    "0x02": "0x01",
                    "0x03": "0x01",
                    "0x04": "0x01",
                    "0x05": "0x01",
                    "0x06": "0x01",
                    "0x07": "0x01",
                    "0x08": "0x01",
                    "0x09": "0x01",
                    "0x0a": "0x01",
                    "0x0b": "0x01",
                    "0x0c": "0x01",
                    "0x0d": "0x01",
                    "0x0e": "0x01",
                    "0x0f": "0x01",
                    "0x10": "0x01"
                }
            },
            "0x5efbf04d8e1cc5b6b3719b16b5744a09bacfc18b": {
                "nonce": "0x00",
                "balance": "0x00",
                "code": "0x60006000f300",
                "storage": {}
            },
            "0xc7aa750fe05c7e38475a49fe98a301024d0c1d54": {
                "nonce": "0x00",
                "balance": "0x00",
                "code": "0x6000630ffffffff300",
                "storage": {}
            },
            "0xff6b6d23be161344e86eb7b174acedd4b1dc6dc7": {
                "nonce": "0x00",
                "balance": "0x00",
                "code": "0x600063fffffffff300",
                "storage": {}
            },
            "0x7bbcf24c83493c4e733cb54079b51873d3211ad2": {
                "nonce": "0x00",
                "balance": "0x00",
                "code": "0x600067fffffffffffffffff300",
                "storage": {}
            },
            "0x7a4461ac9f9cd13f40f9514a7c60e23a71c1dff3": {
                "nonce": "0x00",
                "balance": "0x00",
                "code": "0x60006d0ffffffffffffffffffffffffffff300",
                "storage": {}
            },
            "0x4912bc7b66a3bf27adfa54ab049e90e8c9c4dc63": {
                "nonce": "0x00",
                "balance": "0x00",
                "code": "0x60007ffffffffffffffffffffffffffffffffffffffffffffffffffffffffffffffffff300",
                "storage": {}
            },
            "0x7266f1c07958d55ce36de0592604f1a915bdf1c2": {
                "nonce": "0x00",
                "balance": "0x00",
                "code": "0x630fffffff6000f300",
                "storage": {}
            },
            "0x2ceb88d6c420e5c65593d9ebed9a25600ab9e113": {
                "nonce": "0x00",
                "balance": "0x00",
                "code": "0x63ffffffff6000f300",
                "storage": {}
            },
            "0x0b09ca4308585f026b8d02be147fea0739ec463a": {
                "nonce": "0x00",
                "balance": "0x00",
                "code": "0x67ffffffffffffffff6000f300",
                "storage": {}
            },
            "0xf519de4dcb9aaa53f8f0db9b18c715c928caade8": {
                "nonce": "0x00",
                "balance": "0x00",
                "code": "0x6d0fffffffffffffffffffffffffff6000f300",
                "storage": {}
            },
            "0x28463490948d21efc49949b4d394989bf52c57f1": {
                "nonce": "0x00",
                "balance": "0x00",
                "code": "0x7fffffffffffffffffffffffffffffffffffffffffffffffffffffffffffffffff6000f300",
                "storage": {}
            },
            "0x07084994c5891b1467d74bedb0477da4909e4c0e": {
                "nonce": "0x00",
                "balance": "0x00",
                "code": "0x630fffffff630ffffffff300",
                "storage": {}
            },
            "0xad7754a8a56cc5ad4e319fa94194e435628dee67": {
                "nonce": "0x00",
                "balance": "0x00",
                "code": "0x63ffffffff63fffffffff300",
                "storage": {}
            },
            "0x416408c1d7fda274ddeb45ffe4817068808121ca": {
                "nonce": "0x00",
                "balance": "0x00",
                "code": "0x67ffffffffffffffff67fffffffffffffffff300",
                "storage": {}
            },
            "0x2548bda95a3831abcd613f4d24e4634615a71cca": {
                "nonce": "0x00",
                "balance": "0x00",
                "code": "0x6d0fffffffffffffffffffffffffff6d0ffffffffffffffffffffffffffff300",
                "storage": {}
            },
            "0x76006c948f3a0529479c6d18a6f95908426e8092": {
                "nonce": "0x00",
                "balance": "0x00",
                "code": "0x7fffffffffffffffffffffffffffffffffffffffffffffffffffffffffffffffff7ffffffffffffffffffffffffffffffffffffffffffffffffffffffffffffffffff300",
                "storage": {}
            },
            "0xa99635038e8d9ab237a31179dd5c9087713f723a": {
                "nonce": "0x01",
                "balance": "0xffffffffffffffffffffffffffffffffffffffffffffffffffffffffffc438c0",
                "code": "0x",
                "storage": {}
            }
        },
        "lastblockhash": "0xfa7cc80c10c391e515875e45296fc31b445ca29ba520ce4b45ff408647d80700",
        "config": {
            "network": "Cancun",
            "chainid": "0x01",
            "blobSchedule": {
                "Cancun": {
                    "target": "0x03",
                    "max": "0x06",
                    "baseFeeUpdateFraction": "0x32f0ed"
                }
            }
        },
        "genesisRLP": "0xf90240f9023aa00000000000000000000000000000000000000000000000000000000000000000a01dcc4de8dec75d7aab85b567b6ccd41ad312451b948a7413f0a142fd40d49347940000000000000000000000000000000000000000a0517c97cd18b0975a2db09efc43620465dc2fdd38fa2fd3f7f81a44a4e4c4ceafa056e81f171bcc55a6ff8345e692c0f86e5b48e01b996cadc001622fb5e363b421a056e81f171bcc55a6ff8345e692c0f86e5b48e01b996cadc001622fb5e363b421b90100000000000000000000000000000000000000000000000000000000000000000000000000000000000000000000000000000000000000000000000000000000000000000000000000000000000000000000000000000000000000000000000000000000000000000000000000000000000000000000000000000000000000000000000000000000000000000000000000000000000000000000000000000000000000000000000000000000000000000000000000000000000000000000000000000000000000000000000000000000000000000000000000000000000000000000000000000000000000000000000000000000000000000000000000000000008080887fffffffffffffff808000a000000000000000000000000000000000000000000000000000000000000000008800000000000000000ba056e81f171bcc55a6ff8345e692c0f86e5b48e01b996cadc001622fb5e363b4218080a00000000000000000000000000000000000000000000000000000000000000000c0c0c0",
        "blocks": [
            {
                "blockHeader": {
                    "parentHash": "0xfb3fd1dc6811bb5c5f4751aeae909a0a5becb6a2c8fea3246085e8f9f16c2983",
                    "uncleHash": "0x1dcc4de8dec75d7aab85b567b6ccd41ad312451b948a7413f0a142fd40d49347",
                    "coinbase": "0x2adc25665018aa1fe0e6bc666dac8fc2697ff9ba",
                    "stateRoot": "0x744181c2402ec4664aae52ea6d1b1cbc1ea2ed7572151a171ccad9ec6e442ea0",
                    "transactionsTrie": "0x7661f1d606decedab4f35f7fc72004a480506b315dfef7bcf0ed0009a2004fe7",
                    "receiptTrie": "0x6b7d86834d2330cd6a3d9cf5b957acc0e7e29e320f224cb8e707498b5f8bdc52",
                    "bloom": "0x00000000000000000000000000000000000000000000000000000000000000000000000000000000000000000000000000000000000000000000000000000000000000000000000000000000000000000000000000000000000000000000000000000000000000000000000000000000000000000000000000000000000000000000000000000000000000000000000000000000000000000000000000000000000000000000000000000000000000000000000000000000000000000000000000000000000000000000000000000000000000000000000000000000000000000000000000000000000000000000000000000000000000000000000000000000",
                    "difficulty": "0x00",
                    "number": "0x01",
                    "gasLimit": "0x7fffffffffffffff",
                    "gasUsed": "0x05fa53",
                    "timestamp": "0x03e8",
                    "extraData": "0x00",
                    "mixHash": "0x0000000000000000000000000000000000000000000000000000000000020000",
                    "nonce": "0x0000000000000000",
                    "baseFeePerGas": "0x0a",
                    "withdrawalsRoot": "0x56e81f171bcc55a6ff8345e692c0f86e5b48e01b996cadc001622fb5e363b421",
                    "blobGasUsed": "0x00",
                    "excessBlobGas": "0x00",
                    "parentBeaconBlockRoot": "0x0000000000000000000000000000000000000000000000000000000000000000",
                    "hash": "0xfa7cc80c10c391e515875e45296fc31b445ca29ba520ce4b45ff408647d80700"
                },
                "transactions": [
                    {
                        "type": "0x00",
                        "chainId": "0x01",
                        "nonce": "0x00",
                        "gasPrice": "0x0a",
                        "gasLimit": "0xe4e1c0",
                        "to": "0x57545d218764bc417fdcbbc2c1f43b2a62105ce1",
                        "value": "0x01",
                        "data": "0x0000000000000000000000000000000000000001",
                        "v": "0x25",
                        "r": "0xd7da213b007ef6aed4b5bbda63321c9511f37c759e741766139b2c63a7b3d177",
                        "s": "0x7804604a00b3455cd033644fae27b12b549d30ae3b6d4acd9c84a5fc0a8ff69f",
                        "sender": "0xa99635038e8d9ab237a31179dd5c9087713f723a"
                    }
                ],
                "uncleHeaders": [],
                "withdrawals": [],
                "receipts": [
                    {
                        "transactionHash": "0x02c619f38b1ff94f952d58dea5d8a9b498c5dc011e819d310287a5a9e995556e",
                        "type": "0x00",
                        "cumulativeGasUsed": "0x05fa53",
                        "bloom": "0x00000000000000000000000000000000000000000000000000000000000000000000000000000000000000000000000000000000000000000000000000000000000000000000000000000000000000000000000000000000000000000000000000000000000000000000000000000000000000000000000000000000000000000000000000000000000000000000000000000000000000000000000000000000000000000000000000000000000000000000000000000000000000000000000000000000000000000000000000000000000000000000000000000000000000000000000000000000000000000000000000000000000000000000000000000000",
                        "logs": [],
                        "status": true,
                        "rlp": "0xf90109018305fa53b9010000000000000000000000000000000000000000000000000000000000000000000000000000000000000000000000000000000000000000000000000000000000000000000000000000000000000000000000000000000000000000000000000000000000000000000000000000000000000000000000000000000000000000000000000000000000000000000000000000000000000000000000000000000000000000000000000000000000000000000000000000000000000000000000000000000000000000000000000000000000000000000000000000000000000000000000000000000000000000000000000000000000000000000000000000000000c0"
                    }
                ],
                "rlp": "0xf902bcf9023fa0fb3fd1dc6811bb5c5f4751aeae909a0a5becb6a2c8fea3246085e8f9f16c2983a01dcc4de8dec75d7aab85b567b6ccd41ad312451b948a7413f0a142fd40d49347942adc25665018aa1fe0e6bc666dac8fc2697ff9baa0744181c2402ec4664aae52ea6d1b1cbc1ea2ed7572151a171ccad9ec6e442ea0a07661f1d606decedab4f35f7fc72004a480506b315dfef7bcf0ed0009a2004fe7a06b7d86834d2330cd6a3d9cf5b957acc0e7e29e320f224cb8e707498b5f8bdc52b90100000000000000000000000000000000000000000000000000000000000000000000000000000000000000000000000000000000000000000000000000000000000000000000000000000000000000000000000000000000000000000000000000000000000000000000000000000000000000000000000000000000000000000000000000000000000000000000000000000000000000000000000000000000000000000000000000000000000000000000000000000000000000000000000000000000000000000000000000000000000000000000000000000000000000000000000000000000000000000000000000000000000000000000000000000000008001887fffffffffffffff8305fa538203e800a000000000000000000000000000000000000000000000000000000000000200008800000000000000000aa056e81f171bcc55a6ff8345e692c0f86e5b48e01b996cadc001622fb5e363b4218080a00000000000000000000000000000000000000000000000000000000000000000f876f874800a83e4e1c09457545d218764bc417fdcbbc2c1f43b2a62105ce10194000000000000000000000000000000000000000125a0d7da213b007ef6aed4b5bbda63321c9511f37c759e741766139b2c63a7b3d177a07804604a00b3455cd033644fae27b12b549d30ae3b6d4acd9c84a5fc0a8ff69fc0c0",
                "blocknumber": "1"
            }
        ],
        "sealEngine": "NoProof",
        "_info": {
            "hash": "0xc8791a08c21d45f44974daeea003736ab33661f79f630adde41596db6e6d01db",
            "fixture-format": "blockchain_test",
            "comment": "`execution-specs` generated test",
            "filling-transition-tool": "2.19.0",
            "description": "Test_static_return_bounds_oog.",
            "url": "https://github.com/ethereum/execution-specs/blob/tests-bal@v5.6.0/tests/ported_static/stStaticCall/test_static_return_bounds_oog.py#L29",
            "metadata": {
                "opcode_count": {}
            }
        }
    }
}