{
    "tests/ported_static/stCallDelegateCodesCallCodeHomestead/test_callcodecallcodecallcode_111.py::test_callcodecallcodecallcode_111[fork_Cancun-blockchain_test_from_state_test]": {
        "network": "Cancun",
        "genesisBlockHeader": {
            "parentHash": "0x0000000000000000000000000000000000000000000000000000000000000000",
            "uncleHash": "0x1dcc4de8dec75d7aab85b567b6ccd41ad312451b948a7413f0a142fd40d49347",
            "coinbase": "0x0000000000000000000000000000000000000000",
            "stateRoot": "0x5ef2ae0bed6480c7893a5b5f3dce90a4551c272ec1a7bfd68e4eda133079c471",
            "transactionsTrie": "0x56e81f171bcc55a6ff8345e692c0f86e5b48e01b996cadc001622fb5e363b421",
            "receiptTrie": "0x56e81f171bcc55a6ff8345e692c0f86e5b48e01b996cadc001622fb5e363b421",
            "bloom": "0x00000000000000000000000000000000000000000000000000000000000000000000000000000000000000000000000000000000000000000000000000000000000000000000000000000000000000000000000000000000000000000000000000000000000000000000000000000000000000000000000000000000000000000000000000000000000000000000000000000000000000000000000000000000000000000000000000000000000000000000000000000000000000000000000000000000000000000000000000000000000000000000000000000000000000000000000000000000000000000000000000000000000000000000000000000000",
            "difficulty": "0x00",
            "number": "0x00",
            "gasLimit": "0x01c9c380",
            "gasUsed": "0x00",
            "timestamp": "0x00",
            "extraData": "0x00",
            "mixHash": "0x0000000000000000000000000000000000000000000000000000000000000000",
            "nonce": "0x0000000000000000",
            "baseFeePerGas": "0x0b",
            "withdrawalsRoot": "0x56e81f171bcc55a6ff8345e692c0f86e5b48e01b996cadc001622fb5e363b421",
            "blobGasUsed": "0x00",
            "excessBlobGas": "0x00",
            "parentBeaconBlockRoot": "0x0000000000000000000000000000000000000000000000000000000000000000",
            "hash": "0x3604fdc362bae58ea122c265776ee37453114a8b451d7e7bda808abeea15a032"
        },
        "pre": {
            "0x000f3df6d732807ef1319fb7b8bb8522d0beac02": {
                "nonce": "0x01",
                "balance": "0x00",
                "code": "0x3373fffffffffffffffffffffffffffffffffffffffe14604d57602036146024575f5ffd5b5f35801560495762001fff810690815414603c575f5ffd5b62001fff01545f5260205ff35b5f5ffd5b62001fff42064281555f359062001fff015500",
                "storage": {}
            },
            "0xd26e26d5a4796d450bfa296d70c05f02dbc1a4b9": {
                "nonce": "0x00",
                "balance": "0x0de0b6b3a7640000",
                "code": "0x60406000604060007366f7a765dc70598f71b119f636a53aaa43c4cca162055730f460005500",
                "storage": {}
            },
            "0x66f7a765dc70598f71b119f636a53aaa43c4cca1": {
                "nonce": "0x00",
                "balance": "0x00",
                "code": "0x60406000604060007312bdab5af7fd144e2841e58cb6cf90d467054643620493e0f460015500",
                "storage": {}
            },
            "0x12bdab5af7fd144e2841e58cb6cf90d467054643": {
                "nonce": "0x00",
                "balance": "0x00",
                "code": "0x6040600060406000737e63847aad8ca50fb7c04777dce6871a6bf8de0c6203d090f460025500",
                "storage": {}
            },
            "0x7e63847aad8ca50fb7c04777dce6871a6bf8de0c": {
                "nonce": "0x00",
                "balance": "0x00",
                "code": "0x600160035533600455346007553061014a553261014c55366101505538610152553a6101545500",
                "storage": {}
            },
            "0xebaf50debf10e08302fe4280c32df010463ca297": {
                "nonce": "0x00",
                "balance": "0x0de0b6b3a7640000",
                "code": "0x",
                "storage": {}
            }
        },
        "postState": {
            "0x000f3df6d732807ef1319fb7b8bb8522d0beac02": {
                "nonce": "0x01",
                "balance": "0x00",
                "code": "0x3373fffffffffffffffffffffffffffffffffffffffe14604d57602036146024575f5ffd5b5f35801560495762001fff810690815414603c575f5ffd5b62001fff01545f5260205ff35b5f5ffd5b62001fff42064281555f359062001fff015500",
                "storage": {
                    "0x03e8": "0x03e8"
                }
            },
            "0xd26e26d5a4796d450bfa296d70c05f02dbc1a4b9": {
                "nonce": "0x00",
                "balance": "0x0de0b6b3a7640000",
                "code": "0x60406000604060007366f7a765dc70598f71b119f636a53aaa43c4cca162055730f460005500",
                "storage": {
                    "0x03": "0x01",
                    "0x04": "0xebaf50debf10e08302fe4280c32df010463ca297",
                    "0x014a": "0xd26e26d5a4796d450bfa296d70c05f02dbc1a4b9",
                    "0x014c": "0xebaf50debf10e08302fe4280c32df010463ca297",
                    "0x0150": "0x40",
                    "0x0152": "0x27",
                    "0x0154": "0x0a",
                    "0x02": "0x01",
                    "0x01": "0x01",
                    "0x00": "0x01"
                }
            },
            "0x66f7a765dc70598f71b119f636a53aaa43c4cca1": {
                "nonce": "0x00",
                "balance": "0x00",
                "code": "0x60406000604060007312bdab5af7fd144e2841e58cb6cf90d467054643620493e0f460015500",
                "storage": {}
            },
            "0x12bdab5af7fd144e2841e58cb6cf90d467054643": {
                "nonce": "0x00",
                "balance": "0x00",
                "code": "0x6040600060406000737e63847aad8ca50fb7c04777dce6871a6bf8de0c6203d090f460025500",
                "storage": {}
            },
            "0x7e63847aad8ca50fb7c04777dce6871a6bf8de0c": {
                "nonce": "0x00",
                "balance": "0x00",
                "code": "0x600160035533600455346007553061014a553261014c55366101505538610152553a6101545500",
                "storage": {}
            },
            "0xebaf50debf10e08302fe4280c32df010463ca297": {
                "nonce": "0x01",
                "balance": "0x0de0b6b3a73d877c",
                "code": "0x",
                "storage": {}
            }
        },
        "lastblockhash": "0x784cdabf2606c343a956b1af6d30bfa143d46ab2c14d0aa87c8545185b3cbfb9",
        "config": {
            "network": "Cancun",
            "chainid": "0x01",
            "blobSchedule": {
                "Cancun": {
                    "target": "0x03",
                    "max": "0x06",
                    "baseFeeUpdateFraction": "0x32f0ed"
                }
            }
        },
        "genesisRLP": "0xf9023cf90236a00000000000000000000000000000000000000000000000000000000000000000a01dcc4de8dec75d7aab85b567b6ccd41ad312451b948a7413f0a142fd40d49347940000000000000000000000000000000000000000a05ef2ae0bed6480c7893a5b5f3dce90a4551c272ec1a7bfd68e4eda133079c471a056e81f171bcc55a6ff8345e692c0f86e5b48e01b996cadc001622fb5e363b421a056e81f171bcc55a6ff8345e692c0f86e5b48e01b996cadc001622fb5e363b421b901000000000000000000000000000000000000000000000000000000000000000000000000000000000000000000000000000000000000000000000000000000000000000000000000000000000000000000000000000000000000000000000000000000000000000000000000000000000000000000000000000000000000000000000000000000000000000000000000000000000000000000000000000000000000000000000000000000000000000000000000000000000000000000000000000000000000000000000000000000000000000000000000000000000000000000000000000000000000000000000000000000000000000000000000000000000080808401c9c380808000a000000000000000000000000000000000000000000000000000000000000000008800000000000000000ba056e81f171bcc55a6ff8345e692c0f86e5b48e01b996cadc001622fb5e363b4218080a00000000000000000000000000000000000000000000000000000000000000000c0c0c0",
        "blocks": [
            {
                "blockHeader": {
                    "parentHash": "0x3604fdc362bae58ea122c265776ee37453114a8b451d7e7bda808abeea15a032",
                    "uncleHash": "0x1dcc4de8dec75d7aab85b567b6ccd41ad312451b948a7413f0a142fd40d49347",
                    "coinbase": "0x2adc25665018aa1fe0e6bc666dac8fc2697ff9ba",
                    "stateRoot": "0x4788cf5d3d48f2443b5db8c677438a580597579a40c339ef705753b2e4d0da31",
                    "transactionsTrie": "0x5d651468ceb846ffa0e6312f101c84e76bf3b33aabebf053b91d78f1f3c22ed8",
                    "receiptTrie": "0xcfce13ee49f623cff6b591149d3aa83d7c15fe9bca0e96d9ae4fa5f7c24cb366",
                    "bloom": "0x00000000000000000000000000000000000000000000000000000000000000000000000000000000000000000000000000000000000000000000000000000000000000000000000000000000000000000000000000000000000000000000000000000000000000000000000000000000000000000000000000000000000000000000000000000000000000000000000000000000000000000000000000000000000000000000000000000000000000000000000000000000000000000000000000000000000000000000000000000000000000000000000000000000000000000000000000000000000000000000000000000000000000000000000000000000",
                    "difficulty": "0x00",
                    "number": "0x01",
                    "gasLimit": "0x01c9c380",
                    "gasUsed": "0x03d8da",
                    "timestamp": "0x03e8",
                    "extraData": "0x00",
                    "mixHash": "0x0000000000000000000000000000000000000000000000000000000000020000",
                    "nonce": "0x0000000000000000",
                    "baseFeePerGas": "0x0a",
                    "withdrawalsRoot": "0x56e81f171bcc55a6ff8345e692c0f86e5b48e01b996cadc001622fb5e363b421",
                    "blobGasUsed": "0x00",
                    "excessBlobGas": "0x00",
                    "parentBeaconBlockRoot": "0x0000000000000000000000000000000000000000000000000000000000000000",
                    "hash": "0x784cdabf2606c343a956b1af6d30bfa143d46ab2c14d0aa87c8545185b3cbfb9"
                },
                "transactions": [
                    {
                        "type": "0x00",
                        "chainId": "0x01",
                        "nonce": "0x00",
                        "gasPrice": "0x0a",
                        "gasLimit": "0x2dc6c0",
                        "to": "0xd26e26d5a4796d450bfa296d70c05f02dbc1a4b9",
                        "value": "0x00",
                        "data": "0x",
                        "v": "0x26",
                        "r": "0x5dd31450d322124c6ccab3d350ca899338a7a0a34063420d8b4f8d08570baeca",
                        "s": "0x7d4a95a110df469b37e56e4ebe2ac1921333369fdb827ef590e4047aeded5fd7",
                        "sender": "0xebaf50debf10e08302fe4280c32df010463ca297"
                    }
                ],
                "uncleHeaders": [],
                "withdrawals": [],
                "receipts": [
                    {
                        "transactionHash": "0x371777bc9a489dda318dfb6e6d730b9c5d0ded6ea12e77ed3fb061e963bf0286",
                        "type": "0x00",
                        "cumulativeGasUsed": "0x03d8da",
                        "bloom": "0x00000000000000000000000000000000000000000000000000000000000000000000000000000000000000000000000000000000000000000000000000000000000000000000000000000000000000000000000000000000000000000000000000000000000000000000000000000000000000000000000000000000000000000000000000000000000000000000000000000000000000000000000000000000000000000000000000000000000000000000000000000000000000000000000000000000000000000000000000000000000000000000000000000000000000000000000000000000000000000000000000000000000000000000000000000000",
                        "logs": [],
                        "status": true,
                        "rlp": "0xf90109018303d8dab9010000000000000000000000000000000000000000000000000000000000000000000000000000000000000000000000000000000000000000000000000000000000000000000000000000000000000000000000000000000000000000000000000000000000000000000000000000000000000000000000000000000000000000000000000000000000000000000000000000000000000000000000000000000000000000000000000000000000000000000000000000000000000000000000000000000000000000000000000000000000000000000000000000000000000000000000000000000000000000000000000000000000000000000000000000000000c0"
                    }
                ],
                "rlp": "0xf902a4f9023ba03604fdc362bae58ea122c265776ee37453114a8b451d7e7bda808abeea15a032a01dcc4de8dec75d7aab85b567b6ccd41ad312451b948a7413f0a142fd40d49347942adc25665018aa1fe0e6bc666dac8fc2697ff9baa04788cf5d3d48f2443b5db8c677438a580597579a40c339ef705753b2e4d0da31a05d651468ceb846ffa0e6312f101c84e76bf3b33aabebf053b91d78f1f3c22ed8a0cfce13ee49f623cff6b591149d3aa83d7c15fe9bca0e96d9ae4fa5f7c24cb366b901000000000000000000000000000000000000000000000000000000000000000000000000000000000000000000000000000000000000000000000000000000000000000000000000000000000000000000000000000000000000000000000000000000000000000000000000000000000000000000000000000000000000000000000000000000000000000000000000000000000000000000000000000000000000000000000000000000000000000000000000000000000000000000000000000000000000000000000000000000000000000000000000000000000000000000000000000000000000000000000000000000000000000000000000000000000080018401c9c3808303d8da8203e800a000000000000000000000000000000000000000000000000000000000000200008800000000000000000aa056e81f171bcc55a6ff8345e692c0f86e5b48e01b996cadc001622fb5e363b4218080a00000000000000000000000000000000000000000000000000000000000000000f862f860800a832dc6c094d26e26d5a4796d450bfa296d70c05f02dbc1a4b9808026a05dd31450d322124c6ccab3d350ca899338a7a0a34063420d8b4f8d08570baecaa07d4a95a110df469b37e56e4ebe2ac1921333369fdb827ef590e4047aeded5fd7c0c0",
                "blocknumber": "1"
            }
        ],
        "sealEngine": "NoProof",
        "_info": {
            "hash": "0xaf58485891a6b4e3ef560a79f26402302077bbe28a8e481074ab592330c5997e",
            "fixture-format": "blockchain_test",
            "comment": "`execution-specs` generated test",
            "filling-transition-tool": "2.19.0",
            "description": "Test_callcodecallcodecallcode_111.",
            "url": "https://github.com/ethereum/execution-specs/blob/tests-bal@v5.7.0/tests/ported_static/stCallDelegateCodesCallCodeHomestead/test_callcodecallcodecallcode_111.py#L25",
            "metadata": {
                "opcode_count": {}
            }
        }
    }
}