{
    "tests/ported_static/stRandom2/test_random_statetest498.py::test_random_statetest498[fork_Cancun-blockchain_test_from_state_test]": {
        "network": "Cancun",
        "genesisBlockHeader": {
            "parentHash": "0x0000000000000000000000000000000000000000000000000000000000000000",
            "uncleHash": "0x1dcc4de8dec75d7aab85b567b6ccd41ad312451b948a7413f0a142fd40d49347",
            "coinbase": "0x0000000000000000000000000000000000000000",
            "stateRoot": "0x9924abca58fc23389aea04c39f6edb0937c0bd44a6b453338d7da82821aceca4",
            "transactionsTrie": "0x56e81f171bcc55a6ff8345e692c0f86e5b48e01b996cadc001622fb5e363b421",
            "receiptTrie": "0x56e81f171bcc55a6ff8345e692c0f86e5b48e01b996cadc001622fb5e363b421",
            "bloom": "0x00000000000000000000000000000000000000000000000000000000000000000000000000000000000000000000000000000000000000000000000000000000000000000000000000000000000000000000000000000000000000000000000000000000000000000000000000000000000000000000000000000000000000000000000000000000000000000000000000000000000000000000000000000000000000000000000000000000000000000000000000000000000000000000000000000000000000000000000000000000000000000000000000000000000000000000000000000000000000000000000000000000000000000000000000000000",
            "difficulty": "0x00",
            "number": "0x00",
            "gasLimit": "0x7fffffffffffffff",
            "gasUsed": "0x00",
            "timestamp": "0x00",
            "extraData": "0x00",
            "mixHash": "0x0000000000000000000000000000000000000000000000000000000000000000",
            "nonce": "0x0000000000000000",
            "baseFeePerGas": "0x0b",
            "withdrawalsRoot": "0x56e81f171bcc55a6ff8345e692c0f86e5b48e01b996cadc001622fb5e363b421",
            "blobGasUsed": "0x00",
            "excessBlobGas": "0x00",
            "parentBeaconBlockRoot": "0x0000000000000000000000000000000000000000000000000000000000000000",
            "hash": "0xc1d75835a7907fec5dd401c6e0696d1fb6a6b63a06a02f1eedb3df8d61cac3a9"
        },
        "pre": {
            "0x000f3df6d732807ef1319fb7b8bb8522d0beac02": {
                "nonce": "0x01",
                "balance": "0x00",
                "code": "0x3373fffffffffffffffffffffffffffffffffffffffe14604d57602036146024575f5ffd5b5f35801560495762001fff810690815414603c575f5ffd5b62001fff01545f5260205ff35b5f5ffd5b62001fff42064281555f359062001fff015500",
                "storage": {}
            },
            "0x1a819dd2e8cec87d7e886df4843e21775f6672a4": {
                "nonce": "0x00",
                "balance": "0x00",
                "code": "0x6bd243dbcfdc6982733e4cd6261574fc6cdec93282ff50ef24d8be05d58be29301ddb00d7547f6b65997e73d232b76d6484c11eb15c87b01f89e2779c427711ba193e4e163967efd1b9315187c3227f67b9282fc7524692fbf851cb370d396d53f7a86353aacecc5c1eadeddbb3925522f935fc5ed03568fbf40261c056a124f1334cc9fa8eea2bdbf68f04c10cc08b6babcbb6ee8d3fb88dd42d06d445b5eab34cb5d64408cf652fd7568acaa81b573f66fa8781e83185438e42796631ae9a9987f714d986f94fc6354921a9367bb6b9e555f24107cb814557f8bd87547ad612c3e726f9f495b0ac9e37fbe5f23014c68d8d032bfae779a5213c33778af679417d77733645f87b6042be92c553dbb6d85a2c56b21a53c0e612ae0a8d78d60f162b52efea464ebb0472b3e7794198cdb286cd2f21f06659320130750e7aa2c83ceb2801555785c9f02455252560846587006e90cbffc955445d9ef1f55eeb07011c02cee02df12dc35b36702539873e4b766e4ae9e829a442460dd7f845cd37dc08f93bef98a4d5b53ecd4cf4dd1a5c416f92116160f0fb673c30b7873b85a2ff6331a5d371f3d109f5794d712e03493b17fc562ac7589411127e654ce32d273f8300cc8544e7bd782aa7828b543958dadf872d7f13401a51b13835cc8a36be87cc7347cdf0f7aa2df420bb03e925c117d4befbc7e69472fd75f01f3f6c966de818174aba3b7a43014c3dd39414fb3d239d72e06852ae48e6203c60a7e844d6fd61c5b519d43780d383d103989f9bfce5ed122804cba183c188f5ce47c348a96973eca904f096aed4fb77d40ca9139447527f267a028eae5e3706e1975fc3e38327505e81d0e8c9fab1f60ec7ece71cc87510f308984ebdcb8ab84e1905dfdc0a19ee3c5f37e88dc3a9f26497c51427da28f6d777d9585b4ec790722bacaa179b1dc5b086d945623f9d29f6013600c60096019634f4421eb731a819dd2e8cec87d7e886df4843e21775f6672a4631ac754faf17506f9cc63229e7fe309b7a2f1acf074a43aa4dd2b75bf6dadf21aadb9a3e239a9592f576c9265eebd2420e2626d2b2f1f7ee7a56725d7d4fe23da45725e8b709d2976703147ef66a8fc9a6c1225df7b79eec95ddda5e91c6e19bbc55baf9d6c440cc805f0d229738d17a76f95e329f94d5bc48cc5964933f9597fb57a6f7290649722d68a72fa2d081c4547943b3bbca2edc5f4032c5c916e585fa6abd1b209e2b6fb64498a37b9796c95da3fdb8013c13ef99ed49b29282ae55458c651fdb8598b527024d2da1e8a7015f65ee4ab0178b68ab8c877d55f3c89a7f1f7bc6c0d86bc69688cbcc252972693993bf766aac4efb2b65b216cca2e721dea3f3b3df3abbbfb7b8d",
                "storage": {}
            },
            "0x4f3f701464972e74606d6ea82d4d3080599a0e79": {
                "nonce": "0x00",
                "balance": "0x2e",
                "code": "0x6000355415600957005b60203560003555",
                "storage": {}
            },
            "0x2e3d0156d2b99a6eacba540c55f423c8f5a33143": {
                "nonce": "0x00",
                "balance": "0x0de0b6b3a7640000",
                "code": "0x",
                "storage": {}
            }
        },
        "postState": {
            "0x000f3df6d732807ef1319fb7b8bb8522d0beac02": {
                "nonce": "0x01",
                "balance": "0x00",
                "code": "0x3373fffffffffffffffffffffffffffffffffffffffe14604d57602036146024575f5ffd5b5f35801560495762001fff810690815414603c575f5ffd5b62001fff01545f5260205ff35b5f5ffd5b62001fff42064281555f359062001fff015500",
                "storage": {
                    "0x03e8": "0x03e8"
                }
            },
            "0x1a819dd2e8cec87d7e886df4843e21775f6672a4": {
                "nonce": "0x00",
                "balance": "0x74c15a91",
                "code": "0x6bd243dbcfdc6982733e4cd6261574fc6cdec93282ff50ef24d8be05d58be29301ddb00d7547f6b65997e73d232b76d6484c11eb15c87b01f89e2779c427711ba193e4e163967efd1b9315187c3227f67b9282fc7524692fbf851cb370d396d53f7a86353aacecc5c1eadeddbb3925522f935fc5ed03568fbf40261c056a124f1334cc9fa8eea2bdbf68f04c10cc08b6babcbb6ee8d3fb88dd42d06d445b5eab34cb5d64408cf652fd7568acaa81b573f66fa8781e83185438e42796631ae9a9987f714d986f94fc6354921a9367bb6b9e555f24107cb814557f8bd87547ad612c3e726f9f495b0ac9e37fbe5f23014c68d8d032bfae779a5213c33778af679417d77733645f87b6042be92c553dbb6d85a2c56b21a53c0e612ae0a8d78d60f162b52efea464ebb0472b3e7794198cdb286cd2f21f06659320130750e7aa2c83ceb2801555785c9f02455252560846587006e90cbffc955445d9ef1f55eeb07011c02cee02df12dc35b36702539873e4b766e4ae9e829a442460dd7f845cd37dc08f93bef98a4d5b53ecd4cf4dd1a5c416f92116160f0fb673c30b7873b85a2ff6331a5d371f3d109f5794d712e03493b17fc562ac7589411127e654ce32d273f8300cc8544e7bd782aa7828b543958dadf872d7f13401a51b13835cc8a36be87cc7347cdf0f7aa2df420bb03e925c117d4befbc7e69472fd75f01f3f6c966de818174aba3b7a43014c3dd39414fb3d239d72e06852ae48e6203c60a7e844d6fd61c5b519d43780d383d103989f9bfce5ed122804cba183c188f5ce47c348a96973eca904f096aed4fb77d40ca9139447527f267a028eae5e3706e1975fc3e38327505e81d0e8c9fab1f60ec7ece71cc87510f308984ebdcb8ab84e1905dfdc0a19ee3c5f37e88dc3a9f26497c51427da28f6d777d9585b4ec790722bacaa179b1dc5b086d945623f9d29f6013600c60096019634f4421eb731a819dd2e8cec87d7e886df4843e21775f6672a4631ac754faf17506f9cc63229e7fe309b7a2f1acf074a43aa4dd2b75bf6dadf21aadb9a3e239a9592f576c9265eebd2420e2626d2b2f1f7ee7a56725d7d4fe23da45725e8b709d2976703147ef66a8fc9a6c1225df7b79eec95ddda5e91c6e19bbc55baf9d6c440cc805f0d229738d17a76f95e329f94d5bc48cc5964933f9597fb57a6f7290649722d68a72fa2d081c4547943b3bbca2edc5f4032c5c916e585fa6abd1b209e2b6fb64498a37b9796c95da3fdb8013c13ef99ed49b29282ae55458c651fdb8598b527024d2da1e8a7015f65ee4ab0178b68ab8c877d55f3c89a7f1f7bc6c0d86bc69688cbcc252972693993bf766aac4efb2b65b216cca2e721dea3f3b3df3abbbfb7b8d",
                "storage": {
                    "0x94198cdb286cd2f21f06659320130750e7aa2c83ceb28015": "0xebb0472b3e"
                }
            },
            "0x4f3f701464972e74606d6ea82d4d3080599a0e79": {
                "nonce": "0x00",
                "balance": "0x2e",
                "code": "0x6000355415600957005b60203560003555",
                "storage": {}
            },
            "0x2e3d0156d2b99a6eacba540c55f423c8f5a33143": {
                "nonce": "0x01",
                "balance": "0x0de0b6b18784186d",
                "code": "0x",
                "storage": {}
            }
        },
        "lastblockhash": "0x096d94af0a614efcb7e52e930567b6c2ebfdb34c26f11969a8923d788c2a2bb4",
        "config": {
            "network": "Cancun",
            "chainid": "0x01",
            "blobSchedule": {
                "Cancun": {
                    "target": "0x03",
                    "max": "0x06",
                    "baseFeeUpdateFraction": "0x32f0ed"
                }
            }
        },
        "genesisRLP": "0xf90240f9023aa00000000000000000000000000000000000000000000000000000000000000000a01dcc4de8dec75d7aab85b567b6ccd41ad312451b948a7413f0a142fd40d49347940000000000000000000000000000000000000000a09924abca58fc23389aea04c39f6edb0937c0bd44a6b453338d7da82821aceca4a056e81f171bcc55a6ff8345e692c0f86e5b48e01b996cadc001622fb5e363b421a056e81f171bcc55a6ff8345e692c0f86e5b48e01b996cadc001622fb5e363b421b90100000000000000000000000000000000000000000000000000000000000000000000000000000000000000000000000000000000000000000000000000000000000000000000000000000000000000000000000000000000000000000000000000000000000000000000000000000000000000000000000000000000000000000000000000000000000000000000000000000000000000000000000000000000000000000000000000000000000000000000000000000000000000000000000000000000000000000000000000000000000000000000000000000000000000000000000000000000000000000000000000000000000000000000000000000000008080887fffffffffffffff808000a000000000000000000000000000000000000000000000000000000000000000008800000000000000000ba056e81f171bcc55a6ff8345e692c0f86e5b48e01b996cadc001622fb5e363b4218080a00000000000000000000000000000000000000000000000000000000000000000c0c0c0",
        "blocks": [
            {
                "blockHeader": {
                    "parentHash": "0xc1d75835a7907fec5dd401c6e0696d1fb6a6b63a06a02f1eedb3df8d61cac3a9",
                    "uncleHash": "0x1dcc4de8dec75d7aab85b567b6ccd41ad312451b948a7413f0a142fd40d49347",
                    "coinbase": "0x4f3f701464972e74606d6ea82d4d3080599a0e79",
                    "stateRoot": "0x826987b2e83508e94b9fd65f01f25a2f24852abb23ddc8cdc1957c6549102e96",
                    "transactionsTrie": "0xfaec88b7190c779a77db9ae0e2ad9d1ca07abb97d84ab47485ad47a9ce78e07c",
                    "receiptTrie": "0xeb4bc6b67e3a6f5d54683a594937733bb85ad34c634bed1c783cc629a97661b2",
                    "bloom": "0x00000000008000000000000000000000000000000040000000000020000000000000000000000000000000100000000000000000000000000000000200000000000000000000000000000000080020000000000000000000000000000000000000000000040000000000000000000000000000000000000800000000000000000000000000000000000000000000000000000000000000000000000000000000400000000001000000000000000000000800000000000000000000020000000000001000000000000000000000000000000000000000000000000000000000000000000000000000000000000000000000000000000000000000000000000000",
                    "difficulty": "0x00",
                    "number": "0x01",
                    "gasLimit": "0x7fffffffffffffff",
                    "gasUsed": "0x2ab6414d",
                    "timestamp": "0x03e8",
                    "extraData": "0x00",
                    "mixHash": "0x0000000000000000000000000000000000000000000000000000000000020000",
                    "nonce": "0x0000000000000000",
                    "baseFeePerGas": "0x0a",
                    "withdrawalsRoot": "0x56e81f171bcc55a6ff8345e692c0f86e5b48e01b996cadc001622fb5e363b421",
                    "blobGasUsed": "0x00",
                    "excessBlobGas": "0x00",
                    "parentBeaconBlockRoot": "0x0000000000000000000000000000000000000000000000000000000000000000",
                    "hash": "0x096d94af0a614efcb7e52e930567b6c2ebfdb34c26f11969a8923d788c2a2bb4"
                },
                "transactions": [
                    {
                        "type": "0x00",
                        "chainId": "0x01",
                        "nonce": "0x00",
                        "gasPrice": "0x0a",
                        "gasLimit": "0x3121542d",
                        "to": "0x1a819dd2e8cec87d7e886df4843e21775f6672a4",
                        "value": "0x74c15a91",
                        "data": "0x7349d4fb4fa5c26263087f9f9885a7033ed1f85282806175626c7aff6e85d032f987501c7f07e672602eea9a752c14f2fea044cbadb4acbbbece186bfae0ddfa5c3a4f602e8674516e7ead3a1b9f0c321f53474588f38a996f7512fbdf364372a2f5b5329a5866cb8867c09526eabd04524486650cba94b9d20e8079263be537932206f67f64915b81ac1ea4b1f3723baa86b2d9ad667f11ff36b05f0ec27d14051ce250c5c524eaa31472f153582c9aafa7a0b317230863944f1b5e7444ad06685190a6f9ff72b7af0f52a4619591d022037c3bd19aa01d358a540c4ec6e43870dc653bab5c707f953b919477ed89448472e11b10e241ad82a32be02adf21cd183ae47f2776bce3701b75afea9a175cd04e616f3a1913f3be49294c5e633b4d01cf719e06325d1f498e74d5a153c41ba83f49339f6d7f4711edfa5370e2ee9c7986401c6b27b5cb4f46435c84c8f0239876415740df4646423c790ce1917c3e178e3f0117f07b8ae37a6353868f7ca9313379cd727ae9732fb0a56da2b8a4cb682eb38ca47df0353f6b9322ac474740ac5b14488677765f48677e720ed20e2c76b94ca77acdd3e9e54f2230a0c2d1203130ebbf95aeb6212d52393d33efa63f79c2feba7168b770a3cd3fa97b8b515fd38a19958fccde6ec198be7d2f780422a69c9047ab7474d8f1c3272b9836bca4050a856a916e9bb30724727d1ba26058199098d65ad54d5580e51dcb2bd077db415b0ff41457c68f61d0f86d8c4c549388abf78a75cc9163016c7e988e60e97b95f1d253b52168cbb01407c8ebca87f950ca4049e12ac76cbe3e374065a3c7703bcd5f7af279a1c12425c93ef8e74a12b699f4a9c651db15561be1d91ca95575636dad39636bea70b5309b3354a73bb1b83ba72ff63f69182888e8f17d3e1ec0367173eb3831614e653fc63989af65bc9b676645638915ede2603666ccff0c03af0fda7ad7b7e846076158daad3df7ad07e1cfe8ce41757c4d77f02d65bee264fe0a98374a61532e797167af5719a427a267234fa27697f1a3f47a1453ea150821da1c665de7878ac0e5e26fc78911427cc1d8d0b029ee09bf9322446635d50de718ecb79f",
                        "v": "0x26",
                        "r": "0xdec87d0677fec43c8bd6ea76a944b479e8d7ee49e60909734e08189ab1e56712",
                        "s": "0x4a687c5fcec252f452c58e869bfbf15779a652bc1f2be79046eb66d551ca9258",
                        "sender": "0x2e3d0156d2b99a6eacba540c55f423c8f5a33143"
                    }
                ],
                "uncleHeaders": [],
                "withdrawals": [],
                "receipts": [
                    {
                        "transactionHash": "0x9d6caa7288a1655cae3da75d758cd8848f452fe2de7d23b8aadd6b1d1b0960a1",
                        "type": "0x00",
                        "cumulativeGasUsed": "0x2ab6414d",
                        "bloom": "0x00000000008000000000000000000000000000000040000000000020000000000000000000000000000000100000000000000000000000000000000200000000000000000000000000000000080020000000000000000000000000000000000000000000040000000000000000000000000000000000000800000000000000000000000000000000000000000000000000000000000000000000000000000000400000000001000000000000000000000800000000000000000000020000000000001000000000000000000000000000000000000000000000000000000000000000000000000000000000000000000000000000000000000000000000000000",
                        "logs": [
                            {
                                "address": "0x1a819dd2e8cec87d7e886df4843e21775f6672a4",
                                "topics": [
                                    "0x00000000000000000000000000000000000085a2c56b21a53c0e612ae0a8d78d",
                                    "0x00000000000000009a5213c33778af679417d77733645f87b6042be92c553dbb",
                                    "0x000000000000000000000000006f9f495b0ac9e37fbe5f23014c68d8d032bfae",
                                    "0x714d986f94fc6354921a9367bb6b9e555f24107cb814557f8bd87547ad612c3e"
                                ],
                                "data": "0x00000000000000000000000000000000000000000000000000000000000000000000000000000000000000000000000000000000000000000000000000000000000000000000000000000000000000000000000000000000000000000000000000000000000000000000000000000000000000000000000000000000000000000000000000000000000000000000000000000000000000000000000000000000000000000000000000000000000000000000000000000000000000000000000000000000000000000000000000000000000000000000000000000000000000000000000000000000000000000000000000"
                            },
                            {
                                "address": "0x1a819dd2e8cec87d7e886df4843e21775f6672a4",
                                "topics": [
                                    "0x00000000000000000000000000000000000085a2c56b21a53c0e612ae0a8d78d",
                                    "0x00000000000000009a5213c33778af679417d77733645f87b6042be92c553dbb",
                                    "0x000000000000000000000000006f9f495b0ac9e37fbe5f23014c68d8d032bfae",
                                    "0x714d986f94fc6354921a9367bb6b9e555f24107cb814557f8bd87547ad612c3e"
                                ],
                                "data": "0x00000000000000000000000000000000000000000000000000000000000000000000000000000000000000000000000000000000000000000000000000000000000000000000000000000000000000000000000000000000000000000000000000000000000000000000000000000000000000000000000000000000000000000000000000000000000000000000000000000000000000000000000000000000000000000000000000000000000000000000000000000000000000000000000000000000000000000000000000000000000000000000000000000000000000000000000000000000000000000000000000"
                            }
                        ],
                        "status": true,
                        "rlp": "0xf9042e01842ab6414db9010000000000008000000000000000000000000000000040000000000020000000000000000000000000000000100000000000000000000000000000000200000000000000000000000000000000080020000000000000000000000000000000000000000000040000000000000000000000000000000000000800000000000000000000000000000000000000000000000000000000000000000000000000000000400000000001000000000000000000000800000000000000000000020000000000001000000000000000000000000000000000000000000000000000000000000000000000000000000000000000000000000000000000000000000000000000f90322f9018e941a819dd2e8cec87d7e886df4843e21775f6672a4f884a000000000000000000000000000000000000085a2c56b21a53c0e612ae0a8d78da000000000000000009a5213c33778af679417d77733645f87b6042be92c553dbba0000000000000000000000000006f9f495b0ac9e37fbe5f23014c68d8d032bfaea0714d986f94fc6354921a9367bb6b9e555f24107cb814557f8bd87547ad612c3eb8f100000000000000000000000000000000000000000000000000000000000000000000000000000000000000000000000000000000000000000000000000000000000000000000000000000000000000000000000000000000000000000000000000000000000000000000000000000000000000000000000000000000000000000000000000000000000000000000000000000000000000000000000000000000000000000000000000000000000000000000000000000000000000000000000000000000000000000000000000000000000000000000000000000000000000000000000000000000000000000000000000f9018e941a819dd2e8cec87d7e886df4843e21775f6672a4f884a000000000000000000000000000000000000085a2c56b21a53c0e612ae0a8d78da000000000000000009a5213c33778af679417d77733645f87b6042be92c553dbba0000000000000000000000000006f9f495b0ac9e37fbe5f23014c68d8d032bfaea0714d986f94fc6354921a9367bb6b9e555f24107cb814557f8bd87547ad612c3eb8f100000000000000000000000000000000000000000000000000000000000000000000000000000000000000000000000000000000000000000000000000000000000000000000000000000000000000000000000000000000000000000000000000000000000000000000000000000000000000000000000000000000000000000000000000000000000000000000000000000000000000000000000000000000000000000000000000000000000000000000000000000000000000000000000000000000000000000000000000000000000000000000000000000000000000000000000000000000000000000000000000"
                    }
                ],
                "rlp": "0xf905c7f90240a0c1d75835a7907fec5dd401c6e0696d1fb6a6b63a06a02f1eedb3df8d61cac3a9a01dcc4de8dec75d7aab85b567b6ccd41ad312451b948a7413f0a142fd40d49347944f3f701464972e74606d6ea82d4d3080599a0e79a0826987b2e83508e94b9fd65f01f25a2f24852abb23ddc8cdc1957c6549102e96a0faec88b7190c779a77db9ae0e2ad9d1ca07abb97d84ab47485ad47a9ce78e07ca0eb4bc6b67e3a6f5d54683a594937733bb85ad34c634bed1c783cc629a97661b2b90100000000000080000000000000000000000000000000400000000000200000000000000000000000000000001000000000000000000000000000000002000000000000000000000000000000000800200000000000000000000000000000000000000000000400000000000000000000000000000000000008000000000000000000000000000000000000000000000000000000000000000000000000000000004000000000010000000000000000000008000000000000000000000200000000000010000000000000000000000000000000000000000000000000000000000000000000000000000000000000000000000000000000000000000000000000008001887fffffffffffffff842ab6414d8203e800a000000000000000000000000000000000000000000000000000000000000200008800000000000000000aa056e81f171bcc55a6ff8345e692c0f86e5b48e01b996cadc001622fb5e363b4218080a00000000000000000000000000000000000000000000000000000000000000000f9037ff9037c800a843121542d941a819dd2e8cec87d7e886df4843e21775f6672a48474c15a91b903157349d4fb4fa5c26263087f9f9885a7033ed1f85282806175626c7aff6e85d032f987501c7f07e672602eea9a752c14f2fea044cbadb4acbbbece186bfae0ddfa5c3a4f602e8674516e7ead3a1b9f0c321f53474588f38a996f7512fbdf364372a2f5b5329a5866cb8867c09526eabd04524486650cba94b9d20e8079263be537932206f67f64915b81ac1ea4b1f3723baa86b2d9ad667f11ff36b05f0ec27d14051ce250c5c524eaa31472f153582c9aafa7a0b317230863944f1b5e7444ad06685190a6f9ff72b7af0f52a4619591d022037c3bd19aa01d358a540c4ec6e43870dc653bab5c707f953b919477ed89448472e11b10e241ad82a32be02adf21cd183ae47f2776bce3701b75afea9a175cd04e616f3a1913f3be49294c5e633b4d01cf719e06325d1f498e74d5a153c41ba83f49339f6d7f4711edfa5370e2ee9c7986401c6b27b5cb4f46435c84c8f0239876415740df4646423c790ce1917c3e178e3f0117f07b8ae37a6353868f7ca9313379cd727ae9732fb0a56da2b8a4cb682eb38ca47df0353f6b9322ac474740ac5b14488677765f48677e720ed20e2c76b94ca77acdd3e9e54f2230a0c2d1203130ebbf95aeb6212d52393d33efa63f79c2feba7168b770a3cd3fa97b8b515fd38a19958fccde6ec198be7d2f780422a69c9047ab7474d8f1c3272b9836bca4050a856a916e9bb30724727d1ba26058199098d65ad54d5580e51dcb2bd077db415b0ff41457c68f61d0f86d8c4c549388abf78a75cc9163016c7e988e60e97b95f1d253b52168cbb01407c8ebca87f950ca4049e12ac76cbe3e374065a3c7703bcd5f7af279a1c12425c93ef8e74a12b699f4a9c651db15561be1d91ca95575636dad39636bea70b5309b3354a73bb1b83ba72ff63f69182888e8f17d3e1ec0367173eb3831614e653fc63989af65bc9b676645638915ede2603666ccff0c03af0fda7ad7b7e846076158daad3df7ad07e1cfe8ce41757c4d77f02d65bee264fe0a98374a61532e797167af5719a427a267234fa27697f1a3f47a1453ea150821da1c665de7878ac0e5e26fc78911427cc1d8d0b029ee09bf9322446635d50de718ecb79f26a0dec87d0677fec43c8bd6ea76a944b479e8d7ee49e60909734e08189ab1e56712a04a687c5fcec252f452c58e869bfbf15779a652bc1f2be79046eb66d551ca9258c0c0",
                "blocknumber": "1"
            }
        ],
        "sealEngine": "NoProof",
        "_info": {
            "hash": "0xd7c6151d357ab2342ff2edef556c9697b5ed7f342643c7afd097523d291a72ac",
            "fixture-format": "blockchain_test",
            "comment": "`execution-specs` generated test",
            "filling-transition-tool": "2.19.0",
            "description": "Test_random_statetest498.",
            "url": "https://github.com/ethereum/execution-specs/blob/tests-bal@v5.6.1/tests/ported_static/stRandom2/test_random_statetest498.py#L25",
            "metadata": {
                "opcode_count": {}
            }
        }
    }
}