{
    "tests/ported_static/stMemExpandingEIP150Calls/test_execute_call_that_ask_more_gas_then_transaction_has_with_mem_expanding_calls.py::test_execute_call_that_ask_more_gas_then_transaction_has_with_mem_expanding_calls[fork_Cancun-blockchain_test_from_state_test]": {
        "network": "Cancun",
        "genesisBlockHeader": {
            "parentHash": "0x0000000000000000000000000000000000000000000000000000000000000000",
            "uncleHash": "0x1dcc4de8dec75d7aab85b567b6ccd41ad312451b948a7413f0a142fd40d49347",
            "coinbase": "0x0000000000000000000000000000000000000000",
            "stateRoot": "0xc0fa5bfb814b33be7db4f0fbc2c05f37c6eb15797675ddc2e3ed466fa6d14e5f",
            "transactionsTrie": "0x56e81f171bcc55a6ff8345e692c0f86e5b48e01b996cadc001622fb5e363b421",
            "receiptTrie": "0x56e81f171bcc55a6ff8345e692c0f86e5b48e01b996cadc001622fb5e363b421",
            "bloom": "0x00000000000000000000000000000000000000000000000000000000000000000000000000000000000000000000000000000000000000000000000000000000000000000000000000000000000000000000000000000000000000000000000000000000000000000000000000000000000000000000000000000000000000000000000000000000000000000000000000000000000000000000000000000000000000000000000000000000000000000000000000000000000000000000000000000000000000000000000000000000000000000000000000000000000000000000000000000000000000000000000000000000000000000000000000000000",
            "difficulty": "0x00",
            "number": "0x00",
            "gasLimit": "0x989680",
            "gasUsed": "0x00",
            "timestamp": "0x00",
            "extraData": "0x00",
            "mixHash": "0x0000000000000000000000000000000000000000000000000000000000000000",
            "nonce": "0x0000000000000000",
            "baseFeePerGas": "0x0b",
            "withdrawalsRoot": "0x56e81f171bcc55a6ff8345e692c0f86e5b48e01b996cadc001622fb5e363b421",
            "blobGasUsed": "0x00",
            "excessBlobGas": "0x00",
            "parentBeaconBlockRoot": "0x0000000000000000000000000000000000000000000000000000000000000000",
            "hash": "0x56a7106e491cdf3a50a9ae938b8e943eaf68ec219727f1e3a369e20f4b725400"
        },
        "pre": {
            "0x000f3df6d732807ef1319fb7b8bb8522d0beac02": {
                "nonce": "0x01",
                "balance": "0x00",
                "code": "0x3373fffffffffffffffffffffffffffffffffffffffe14604d57602036146024575f5ffd5b5f35801560495762001fff810690815414603c575f5ffd5b62001fff01545f5260205ff35b5f5ffd5b62001fff42064281555f359062001fff015500",
                "storage": {}
            },
            "0xc47e84e3d3b68b50c9a630067216938478842d46": {
                "nonce": "0x00",
                "balance": "0x0186a000",
                "code": "0x",
                "storage": {}
            },
            "0xbdbacb5fb8222511832eb176b990cd8ad511c271": {
                "nonce": "0x00",
                "balance": "0x00",
                "code": "0x60ff60ff60ff60ff60007373d01f7d28c5a55520cd80d2c3f0938c1834ccff620927c0f1600155",
                "storage": {}
            },
            "0x73d01f7d28c5a55520cd80d2c3f0938c1834ccff": {
                "nonce": "0x00",
                "balance": "0x0186a0",
                "code": "0x600c600155",
                "storage": {}
            }
        },
        "postState": {
            "0x000f3df6d732807ef1319fb7b8bb8522d0beac02": {
                "nonce": "0x01",
                "balance": "0x00",
                "code": "0x3373fffffffffffffffffffffffffffffffffffffffe14604d57602036146024575f5ffd5b5f35801560495762001fff810690815414603c575f5ffd5b62001fff01545f5260205ff35b5f5ffd5b62001fff42064281555f359062001fff015500",
                "storage": {
                    "0x03e8": "0x03e8"
                }
            },
            "0xc47e84e3d3b68b50c9a630067216938478842d46": {
                "nonce": "0x01",
                "balance": "0x017c4484",
                "code": "0x",
                "storage": {}
            },
            "0xbdbacb5fb8222511832eb176b990cd8ad511c271": {
                "nonce": "0x00",
                "balance": "0x00",
                "code": "0x60ff60ff60ff60ff60007373d01f7d28c5a55520cd80d2c3f0938c1834ccff620927c0f1600155",
                "storage": {
                    "0x01": "0x01"
                }
            },
            "0x73d01f7d28c5a55520cd80d2c3f0938c1834ccff": {
                "nonce": "0x00",
                "balance": "0x0186a0",
                "code": "0x600c600155",
                "storage": {
                    "0x01": "0x0c"
                }
            }
        },
        "lastblockhash": "0xf9198deca09cbfc2b076095c93485d5e6fcd6ad5ae6c38c3b469b9374723eca0",
        "config": {
            "network": "Cancun",
            "chainid": "0x01",
            "blobSchedule": {
                "Cancun": {
                    "target": "0x03",
                    "max": "0x06",
                    "baseFeeUpdateFraction": "0x32f0ed"
                }
            }
        },
        "genesisRLP": "0xf9023bf90235a00000000000000000000000000000000000000000000000000000000000000000a01dcc4de8dec75d7aab85b567b6ccd41ad312451b948a7413f0a142fd40d49347940000000000000000000000000000000000000000a0c0fa5bfb814b33be7db4f0fbc2c05f37c6eb15797675ddc2e3ed466fa6d14e5fa056e81f171bcc55a6ff8345e692c0f86e5b48e01b996cadc001622fb5e363b421a056e81f171bcc55a6ff8345e692c0f86e5b48e01b996cadc001622fb5e363b421b9010000000000000000000000000000000000000000000000000000000000000000000000000000000000000000000000000000000000000000000000000000000000000000000000000000000000000000000000000000000000000000000000000000000000000000000000000000000000000000000000000000000000000000000000000000000000000000000000000000000000000000000000000000000000000000000000000000000000000000000000000000000000000000000000000000000000000000000000000000000000000000000000000000000000000000000000000000000000000000000000000000000000000000000000000000000000808083989680808000a000000000000000000000000000000000000000000000000000000000000000008800000000000000000ba056e81f171bcc55a6ff8345e692c0f86e5b48e01b996cadc001622fb5e363b4218080a00000000000000000000000000000000000000000000000000000000000000000c0c0c0",
        "blocks": [
            {
                "blockHeader": {
                    "parentHash": "0x56a7106e491cdf3a50a9ae938b8e943eaf68ec219727f1e3a369e20f4b725400",
                    "uncleHash": "0x1dcc4de8dec75d7aab85b567b6ccd41ad312451b948a7413f0a142fd40d49347",
                    "coinbase": "0x2adc25665018aa1fe0e6bc666dac8fc2697ff9ba",
                    "stateRoot": "0xa50821268601220ed59d66bf709b7b0bb61f770ee6723c7f29c67b901aea3d72",
                    "transactionsTrie": "0x003d4a477a9d58bdbaa67e465ecc97b8e5fc4a8fc4eeb989ffc47572b41a6222",
                    "receiptTrie": "0x9d3dceb4c37e8bdd8dc75369615c3949c3c2693242acffaf3f3a803f1a8d387a",
                    "bloom": "0x00000000000000000000000000000000000000000000000000000000000000000000000000000000000000000000000000000000000000000000000000000000000000000000000000000000000000000000000000000000000000000000000000000000000000000000000000000000000000000000000000000000000000000000000000000000000000000000000000000000000000000000000000000000000000000000000000000000000000000000000000000000000000000000000000000000000000000000000000000000000000000000000000000000000000000000000000000000000000000000000000000000000000000000000000000000",
                    "difficulty": "0x00",
                    "number": "0x01",
                    "gasLimit": "0x989680",
                    "gasUsed": "0x010926",
                    "timestamp": "0x03e8",
                    "extraData": "0x00",
                    "mixHash": "0x0000000000000000000000000000000000000000000000000000000000020000",
                    "nonce": "0x0000000000000000",
                    "baseFeePerGas": "0x0a",
                    "withdrawalsRoot": "0x56e81f171bcc55a6ff8345e692c0f86e5b48e01b996cadc001622fb5e363b421",
                    "blobGasUsed": "0x00",
                    "excessBlobGas": "0x00",
                    "parentBeaconBlockRoot": "0x0000000000000000000000000000000000000000000000000000000000000000",
                    "hash": "0xf9198deca09cbfc2b076095c93485d5e6fcd6ad5ae6c38c3b469b9374723eca0"
                },
                "transactions": [
                    {
                        "type": "0x00",
                        "chainId": "0x01",
                        "nonce": "0x00",
                        "gasPrice": "0x0a",
                        "gasLimit": "0x0186a0",
                        "to": "0xbdbacb5fb8222511832eb176b990cd8ad511c271",
                        "value": "0x00",
                        "data": "0x",
                        "v": "0x25",
                        "r": "0xb6efc67efb7c9403eb126a8f57101fb555f45d6fadb96bb80920d37a9d7b89f6",
                        "s": "0x6f40a49d1f35620ea6be17e206a799e972e413ca3cf3a559e195861262085d09",
                        "sender": "0xc47e84e3d3b68b50c9a630067216938478842d46"
                    }
                ],
                "uncleHeaders": [],
                "withdrawals": [],
                "receipts": [
                    {
                        "transactionHash": "0xe98b92c9739808306e707fa42eb53588a595d660172ad73e6ada86eec5137baf",
                        "type": "0x00",
                        "cumulativeGasUsed": "0x010926",
                        "bloom": "0x00000000000000000000000000000000000000000000000000000000000000000000000000000000000000000000000000000000000000000000000000000000000000000000000000000000000000000000000000000000000000000000000000000000000000000000000000000000000000000000000000000000000000000000000000000000000000000000000000000000000000000000000000000000000000000000000000000000000000000000000000000000000000000000000000000000000000000000000000000000000000000000000000000000000000000000000000000000000000000000000000000000000000000000000000000000",
                        "logs": [],
                        "status": true,
                        "rlp": "0xf901090183010926b9010000000000000000000000000000000000000000000000000000000000000000000000000000000000000000000000000000000000000000000000000000000000000000000000000000000000000000000000000000000000000000000000000000000000000000000000000000000000000000000000000000000000000000000000000000000000000000000000000000000000000000000000000000000000000000000000000000000000000000000000000000000000000000000000000000000000000000000000000000000000000000000000000000000000000000000000000000000000000000000000000000000000000000000000000000000000c0"
                    }
                ],
                "rlp": "0xf902a3f9023aa056a7106e491cdf3a50a9ae938b8e943eaf68ec219727f1e3a369e20f4b725400a01dcc4de8dec75d7aab85b567b6ccd41ad312451b948a7413f0a142fd40d49347942adc25665018aa1fe0e6bc666dac8fc2697ff9baa0a50821268601220ed59d66bf709b7b0bb61f770ee6723c7f29c67b901aea3d72a0003d4a477a9d58bdbaa67e465ecc97b8e5fc4a8fc4eeb989ffc47572b41a6222a09d3dceb4c37e8bdd8dc75369615c3949c3c2693242acffaf3f3a803f1a8d387ab9010000000000000000000000000000000000000000000000000000000000000000000000000000000000000000000000000000000000000000000000000000000000000000000000000000000000000000000000000000000000000000000000000000000000000000000000000000000000000000000000000000000000000000000000000000000000000000000000000000000000000000000000000000000000000000000000000000000000000000000000000000000000000000000000000000000000000000000000000000000000000000000000000000000000000000000000000000000000000000000000000000000000000000000000000000000000800183989680830109268203e800a000000000000000000000000000000000000000000000000000000000000200008800000000000000000aa056e81f171bcc55a6ff8345e692c0f86e5b48e01b996cadc001622fb5e363b4218080a00000000000000000000000000000000000000000000000000000000000000000f862f860800a830186a094bdbacb5fb8222511832eb176b990cd8ad511c271808025a0b6efc67efb7c9403eb126a8f57101fb555f45d6fadb96bb80920d37a9d7b89f6a06f40a49d1f35620ea6be17e206a799e972e413ca3cf3a559e195861262085d09c0c0",
                "blocknumber": "1"
            }
        ],
        "sealEngine": "NoProof",
        "_info": {
            "hash": "0xbdc46ddbe25bf9aa1116272ffa64698e0f63afe1bd9570d379bac8b145454f08",
            "fixture-format": "blockchain_test",
            "comment": "`execution-specs` generated test",
            "filling-transition-tool": "2.19.0",
            "description": "Test_execute_call_that_ask_more_gas_then_transaction_has_with_mem_e...",
            "url": "https://github.com/ethereum/execution-specs/blob/tests-bal@v5.6.1/tests/ported_static/stMemExpandingEIP150Calls/test_execute_call_that_ask_more_gas_then_transaction_has_with_mem_expanding_calls.py#L27",
            "metadata": {
                "opcode_count": {}
            },
            "reference-spec": "https://github.com/ethereum/EIPs/blob/master/N/A",
            "reference-spec-version": "N/A"
        }
    }
}