{
    "tests/ported_static/stRefundTest/test_refund_sstore.py::test_refund_sstore[fork_Cancun-blockchain_test_from_state_test]": {
        "network": "Cancun",
        "genesisBlockHeader": {
            "parentHash": "0x0000000000000000000000000000000000000000000000000000000000000000",
            "uncleHash": "0x1dcc4de8dec75d7aab85b567b6ccd41ad312451b948a7413f0a142fd40d49347",
            "coinbase": "0x0000000000000000000000000000000000000000",
            "stateRoot": "0x3a37606b488346a3c9968be111cc247e7d994db03521244c647c0b14a9fa981d",
            "transactionsTrie": "0x56e81f171bcc55a6ff8345e692c0f86e5b48e01b996cadc001622fb5e363b421",
            "receiptTrie": "0x56e81f171bcc55a6ff8345e692c0f86e5b48e01b996cadc001622fb5e363b421",
            "bloom": "0x00000000000000000000000000000000000000000000000000000000000000000000000000000000000000000000000000000000000000000000000000000000000000000000000000000000000000000000000000000000000000000000000000000000000000000000000000000000000000000000000000000000000000000000000000000000000000000000000000000000000000000000000000000000000000000000000000000000000000000000000000000000000000000000000000000000000000000000000000000000000000000000000000000000000000000000000000000000000000000000000000000000000000000000000000000000",
            "difficulty": "0x00",
            "number": "0x00",
            "gasLimit": "0x01000000",
            "gasUsed": "0x00",
            "timestamp": "0x00",
            "extraData": "0x00",
            "mixHash": "0x0000000000000000000000000000000000000000000000000000000000000000",
            "nonce": "0x0000000000000000",
            "baseFeePerGas": "0x0476",
            "withdrawalsRoot": "0x56e81f171bcc55a6ff8345e692c0f86e5b48e01b996cadc001622fb5e363b421",
            "blobGasUsed": "0x00",
            "excessBlobGas": "0x00",
            "parentBeaconBlockRoot": "0x0000000000000000000000000000000000000000000000000000000000000000",
            "hash": "0xff96ebc331384dfd6b21ba4472a10c1597a5dca29ef83e0785015f8557f74ff3"
        },
        "pre": {
            "0x000f3df6d732807ef1319fb7b8bb8522d0beac02": {
                "nonce": "0x01",
                "balance": "0x00",
                "code": "0x3373fffffffffffffffffffffffffffffffffffffffe14604d57602036146024575f5ffd5b5f35801560495762001fff810690815414603c575f5ffd5b62001fff01545f5260205ff35b5f5ffd5b62001fff42064281555f359062001fff015500",
                "storage": {}
            },
            "0xa0ab568471229b4dfa0f931f88d34b4335dee494": {
                "nonce": "0x01",
                "balance": "0xe8d631f190",
                "code": "0x",
                "storage": {}
            },
            "0x91f8d56264f8eed7fe102550f7c53735a7769d05": {
                "nonce": "0x01",
                "balance": "0x0de0b6b3a7640000",
                "code": "0x6000805500",
                "storage": {
                    "0x00": "0x60a7"
                }
            }
        },
        "postState": {
            "0x000f3df6d732807ef1319fb7b8bb8522d0beac02": {
                "nonce": "0x01",
                "balance": "0x00",
                "code": "0x3373fffffffffffffffffffffffffffffffffffffffe14604d57602036146024575f5ffd5b5f35801560495762001fff810690815414603c575f5ffd5b62001fff01545f5260205ff35b5f5ffd5b62001fff42064281555f359062001fff015500",
                "storage": {
                    "0x03e8": "0x03e8"
                }
            },
            "0xa0ab568471229b4dfa0f931f88d34b4335dee494": {
                "nonce": "0x02",
                "balance": "0xe8d4ee4e00",
                "code": "0x",
                "storage": {}
            },
            "0x91f8d56264f8eed7fe102550f7c53735a7769d05": {
                "nonce": "0x01",
                "balance": "0x0de0b6b3a7640000",
                "code": "0x6000805500",
                "storage": {}
            }
        },
        "lastblockhash": "0xeabf2803c9ec58d645963d070f5aa382caa56e660ab0bad98f16d87a6bce9f22",
        "config": {
            "network": "Cancun",
            "chainid": "0x01",
            "blobSchedule": {
                "Cancun": {
                    "target": "0x03",
                    "max": "0x06",
                    "baseFeeUpdateFraction": "0x32f0ed"
                }
            }
        },
        "genesisRLP": "0xf9023ef90238a00000000000000000000000000000000000000000000000000000000000000000a01dcc4de8dec75d7aab85b567b6ccd41ad312451b948a7413f0a142fd40d49347940000000000000000000000000000000000000000a03a37606b488346a3c9968be111cc247e7d994db03521244c647c0b14a9fa981da056e81f171bcc55a6ff8345e692c0f86e5b48e01b996cadc001622fb5e363b421a056e81f171bcc55a6ff8345e692c0f86e5b48e01b996cadc001622fb5e363b421b901000000000000000000000000000000000000000000000000000000000000000000000000000000000000000000000000000000000000000000000000000000000000000000000000000000000000000000000000000000000000000000000000000000000000000000000000000000000000000000000000000000000000000000000000000000000000000000000000000000000000000000000000000000000000000000000000000000000000000000000000000000000000000000000000000000000000000000000000000000000000000000000000000000000000000000000000000000000000000000000000000000000000000000000000000000000080808401000000808000a00000000000000000000000000000000000000000000000000000000000000000880000000000000000820476a056e81f171bcc55a6ff8345e692c0f86e5b48e01b996cadc001622fb5e363b4218080a00000000000000000000000000000000000000000000000000000000000000000c0c0c0",
        "blocks": [
            {
                "blockHeader": {
                    "parentHash": "0xff96ebc331384dfd6b21ba4472a10c1597a5dca29ef83e0785015f8557f74ff3",
                    "uncleHash": "0x1dcc4de8dec75d7aab85b567b6ccd41ad312451b948a7413f0a142fd40d49347",
                    "coinbase": "0x2adc25665018aa1fe0e6bc666dac8fc2697ff9ba",
                    "stateRoot": "0xe55f31f5ac9a298073092c6367fd1e5d938c1adc0e30d3c4553c2fc273b7a97b",
                    "transactionsTrie": "0xf79780b0cbf75f7d26d9b7c0c95daf6767fd39f684b0ff44aeac875334139c91",
                    "receiptTrie": "0xf59ae5b9c27e2ce344555b05923a6c3f62f682fcbba856b96ade17fcab68be3b",
                    "bloom": "0x00000000000000000000000000000000000000000000000000000000000000000000000000000000000000000000000000000000000000000000000000000000000000000000000000000000000000000000000000000000000000000000000000000000000000000000000000000000000000000000000000000000000000000000000000000000000000000000000000000000000000000000000000000000000000000000000000000000000000000000000000000000000000000000000000000000000000000000000000000000000000000000000000000000000000000000000000000000000000000000000000000000000000000000000000000000",
                    "difficulty": "0x00",
                    "number": "0x01",
                    "gasLimit": "0x01000000",
                    "gasUsed": "0x52da",
                    "timestamp": "0x03e8",
                    "extraData": "0x00",
                    "mixHash": "0x0000000000000000000000000000000000000000000000000000000000020000",
                    "nonce": "0x0000000000000000",
                    "baseFeePerGas": "0x03e8",
                    "withdrawalsRoot": "0x56e81f171bcc55a6ff8345e692c0f86e5b48e01b996cadc001622fb5e363b421",
                    "blobGasUsed": "0x00",
                    "excessBlobGas": "0x00",
                    "parentBeaconBlockRoot": "0x0000000000000000000000000000000000000000000000000000000000000000",
                    "hash": "0xeabf2803c9ec58d645963d070f5aa382caa56e660ab0bad98f16d87a6bce9f22"
                },
                "transactions": [
                    {
                        "type": "0x01",
                        "chainId": "0x01",
                        "nonce": "0x01",
                        "gasPrice": "0x03e8",
                        "gasLimit": "0x27b028",
                        "to": "0x91f8d56264f8eed7fe102550f7c53735a7769d05",
                        "value": "0x00",
                        "data": "0x00",
                        "accessList": [],
                        "v": "0x00",
                        "r": "0x55b02b3fee9182185fa56f4576ad11d9af70b5c6e7e5a15a3530d5e2c87de1ae",
                        "s": "0x6b3ed44484a5a5d1081bb97a5b92b9dea31a6f8d1831cf4c0d145b1482c3a4c7",
                        "sender": "0xa0ab568471229b4dfa0f931f88d34b4335dee494"
                    }
                ],
                "uncleHeaders": [],
                "withdrawals": [],
                "receipts": [
                    {
                        "transactionHash": "0x5e0e6d2e90a1eb41b546519887547989194ab3d41bd605f804ee20260f646844",
                        "type": "0x01",
                        "cumulativeGasUsed": "0x52da",
                        "bloom": "0x00000000000000000000000000000000000000000000000000000000000000000000000000000000000000000000000000000000000000000000000000000000000000000000000000000000000000000000000000000000000000000000000000000000000000000000000000000000000000000000000000000000000000000000000000000000000000000000000000000000000000000000000000000000000000000000000000000000000000000000000000000000000000000000000000000000000000000000000000000000000000000000000000000000000000000000000000000000000000000000000000000000000000000000000000000000",
                        "logs": [],
                        "status": true,
                        "rlp": "0x01f90108018252dab9010000000000000000000000000000000000000000000000000000000000000000000000000000000000000000000000000000000000000000000000000000000000000000000000000000000000000000000000000000000000000000000000000000000000000000000000000000000000000000000000000000000000000000000000000000000000000000000000000000000000000000000000000000000000000000000000000000000000000000000000000000000000000000000000000000000000000000000000000000000000000000000000000000000000000000000000000000000000000000000000000000000000000000000000000000000000c0"
                    }
                ],
                "rlp": "0xf902acf9023ca0ff96ebc331384dfd6b21ba4472a10c1597a5dca29ef83e0785015f8557f74ff3a01dcc4de8dec75d7aab85b567b6ccd41ad312451b948a7413f0a142fd40d49347942adc25665018aa1fe0e6bc666dac8fc2697ff9baa0e55f31f5ac9a298073092c6367fd1e5d938c1adc0e30d3c4553c2fc273b7a97ba0f79780b0cbf75f7d26d9b7c0c95daf6767fd39f684b0ff44aeac875334139c91a0f59ae5b9c27e2ce344555b05923a6c3f62f682fcbba856b96ade17fcab68be3bb9010000000000000000000000000000000000000000000000000000000000000000000000000000000000000000000000000000000000000000000000000000000000000000000000000000000000000000000000000000000000000000000000000000000000000000000000000000000000000000000000000000000000000000000000000000000000000000000000000000000000000000000000000000000000000000000000000000000000000000000000000000000000000000000000000000000000000000000000000000000000000000000000000000000000000000000000000000000000000000000000000000000000000000000000000000000000800184010000008252da8203e800a000000000000000000000000000000000000000000000000000000000000200008800000000000000008203e8a056e81f171bcc55a6ff8345e692c0f86e5b48e01b996cadc001622fb5e363b4218080a00000000000000000000000000000000000000000000000000000000000000000f869b86701f86401018203e88327b0289491f8d56264f8eed7fe102550f7c53735a7769d058000c080a055b02b3fee9182185fa56f4576ad11d9af70b5c6e7e5a15a3530d5e2c87de1aea06b3ed44484a5a5d1081bb97a5b92b9dea31a6f8d1831cf4c0d145b1482c3a4c7c0c0",
                "blocknumber": "1"
            }
        ],
        "sealEngine": "NoProof",
        "_info": {
            "hash": "0xe45f39da02cf573483472db2c4de94c6b68aa2aa7480ffc9b4d6cb4cdf83f795",
            "fixture-format": "blockchain_test",
            "comment": "`execution-specs` generated test",
            "filling-transition-tool": "2.19.0",
            "description": "Ori Pomerantz   qbzzt1@gmail.",
            "url": "https://github.com/ethereum/execution-specs/blob/tests-snobal-devnet-5@v8037.0.0/tests/ported_static/stRefundTest/test_refund_sstore.py#L24",
            "metadata": {
                "opcode_count": {}
            }
        }
    }
}