{
    "tests/prague/eip7702_set_code_tx/test_set_code_txs_2.py::test_eoa_init_as_pointer[fork_Osaka-state_test]": {
        "env": {
            "currentCoinbase": "0x2adc25665018aa1fe0e6bc666dac8fc2697ff9ba",
            "currentGasLimit": "0x055d4a80",
            "currentNumber": "0x01",
            "currentTimestamp": "0x03e8",
            "currentRandom": "0x0000000000000000000000000000000000000000000000000000000000000000",
            "currentDifficulty": "0x00",
            "currentBaseFee": "0x07",
            "currentExcessBlobGas": "0x00"
        },
        "pre": {
            "0xdf1bfc5a388bdfa56f01af3a28e22dacffde09b9": {
                "nonce": "0x01",
                "balance": "0x00",
                "code": "0x6001600055",
                "storage": {}
            },
            "0x6050c08170506108238cdf3060664c7493063603": {
                "nonce": "0x01",
                "balance": "0x3635c9adc5dea00000",
                "code": "0xef0100df1bfc5a388bdfa56f01af3a28e22dacffde09b9",
                "storage": {}
            }
        },
        "transaction": {
            "nonce": "0x01",
            "gasPrice": "0x0a",
            "gasLimit": [
                "0x030d40"
            ],
            "to": "0x6050c08170506108238cdf3060664c7493063603",
            "value": [
                "0x00"
            ],
            "data": [
                "0x"
            ],
            "sender": "0x6050c08170506108238cdf3060664c7493063603",
            "secretKey": "0xa5eccd1dadf6bd38884b57a1df1bfc5a388bdfa56f01af3a28e22dacffde09b9"
        },
        "post": {
            "Osaka": [
                {
                    "hash": "0x4fef9315693a926e3454927f2fe1e15e70b90689824370e2c5cb7fb0599b0d8a",
                    "logs": "0x1dcc4de8dec75d7aab85b567b6ccd41ad312451b948a7413f0a142fd40d49347",
                    "txbytes": "0xf860010a83030d40946050c08170506108238cdf3060664c7493063603808025a0a6e0db9d6da915a4111a710ae23ecee835ecce93a2c23c98c58cdeb06d154ac9a05faab11f7891c6fc6f58d1dbdca3c152880d1166c01774fe6bc30c9f8fb735af",
                    "indexes": {
                        "data": 0,
                        "gas": 0,
                        "value": 0
                    },
                    "state": {
                        "0xdf1bfc5a388bdfa56f01af3a28e22dacffde09b9": {
                            "nonce": "0x01",
                            "balance": "0x00",
                            "code": "0x6001600055",
                            "storage": {}
                        },
                        "0x6050c08170506108238cdf3060664c7493063603": {
                            "nonce": "0x02",
                            "balance": "0x3635c9adc5de996c2c",
                            "code": "0xef0100df1bfc5a388bdfa56f01af3a28e22dacffde09b9",
                            "storage": {
                                "0x00": "0x01"
                            }
                        },
                        "0x2adc25665018aa1fe0e6bc666dac8fc2697ff9ba": {
                            "nonce": "0x00",
                            "balance": "0x01f926",
                            "code": "0x",
                            "storage": {}
                        }
                    }
                }
            ]
        },
        "config": {
            "blobSchedule": {
                "Cancun": {
                    "target": "0x03",
                    "max": "0x06",
                    "baseFeeUpdateFraction": "0x32f0ed"
                },
                "Prague": {
                    "target": "0x06",
                    "max": "0x09",
                    "baseFeeUpdateFraction": "0x4c6964"
                },
                "Osaka": {
                    "target": "0x06",
                    "max": "0x09",
                    "baseFeeUpdateFraction": "0x4c6964"
                }
            },
            "chainid": "0x01"
        },
        "_info": {
            "hash": "0xbb4911fb4099e94b7d6851b931fcf1c3ea4580d3993d1e5bd070d5bc5acb9e1d",
            "comment": "`execution-spec-tests` generated test",
            "filling-transition-tool": "ethereum-spec-evm-resolver 0.0.5",
            "description": "It was agreed before that senders don't have code\n    And there were issues with tests sending transactions from account's with code\n    With EIP7702 it is again possible, let's check the test runners are ok.",
            "url": "https://github.com/ethereum/execution-spec-tests/tree/v5.1.0/tests/prague/eip7702_set_code_tx/test_set_code_txs_2.py#L1216",
            "fixture-format": "state_test",
            "reference-spec": "https://github.com/ethereum/EIPs/blob/master/EIPS/eip-7702.md",
            "reference-spec-version": "99f1be49f37c034bdd5c082946f5968710dbfc87",
            "eels-resolution": {
                "git-url": "https://github.com/marioevz/execution-specs.git",
                "branch": "forks/bpo1",
                "commit": "3387e5f4aedfe99becfdc39b444d6371e25e0924"
            }
        }
    },
    "tests/prague/eip7702_set_code_tx/test_set_code_txs_2.py::test_eoa_init_as_pointer[fork_Prague-state_test]": {
        "env": {
            "currentCoinbase": "0x2adc25665018aa1fe0e6bc666dac8fc2697ff9ba",
            "currentGasLimit": "0x055d4a80",
            "currentNumber": "0x01",
            "currentTimestamp": "0x03e8",
            "currentRandom": "0x0000000000000000000000000000000000000000000000000000000000000000",
            "currentDifficulty": "0x00",
            "currentBaseFee": "0x07",
            "currentExcessBlobGas": "0x00"
        },
        "pre": {
            "0xdf1bfc5a388bdfa56f01af3a28e22dacffde09b9": {
                "nonce": "0x01",
                "balance": "0x00",
                "code": "0x6001600055",
                "storage": {}
            },
            "0x6050c08170506108238cdf3060664c7493063603": {
                "nonce": "0x01",
                "balance": "0x3635c9adc5dea00000",
                "code": "0xef0100df1bfc5a388bdfa56f01af3a28e22dacffde09b9",
                "storage": {}
            }
        },
        "transaction": {
            "nonce": "0x01",
            "gasPrice": "0x0a",
            "gasLimit": [
                "0x030d40"
            ],
            "to": "0x6050c08170506108238cdf3060664c7493063603",
            "value": [
                "0x00"
            ],
            "data": [
                "0x"
            ],
            "sender": "0x6050c08170506108238cdf3060664c7493063603",
            "secretKey": "0xa5eccd1dadf6bd38884b57a1df1bfc5a388bdfa56f01af3a28e22dacffde09b9"
        },
        "post": {
            "Prague": [
                {
                    "hash": "0x4fef9315693a926e3454927f2fe1e15e70b90689824370e2c5cb7fb0599b0d8a",
                    "logs": "0x1dcc4de8dec75d7aab85b567b6ccd41ad312451b948a7413f0a142fd40d49347",
                    "txbytes": "0xf860010a83030d40946050c08170506108238cdf3060664c7493063603808025a0a6e0db9d6da915a4111a710ae23ecee835ecce93a2c23c98c58cdeb06d154ac9a05faab11f7891c6fc6f58d1dbdca3c152880d1166c01774fe6bc30c9f8fb735af",
                    "indexes": {
                        "data": 0,
                        "gas": 0,
                        "value": 0
                    },
                    "state": {
                        "0xdf1bfc5a388bdfa56f01af3a28e22dacffde09b9": {
                            "nonce": "0x01",
                            "balance": "0x00",
                            "code": "0x6001600055",
                            "storage": {}
                        },
                        "0x6050c08170506108238cdf3060664c7493063603": {
                            "nonce": "0x02",
                            "balance": "0x3635c9adc5de996c2c",
                            "code": "0xef0100df1bfc5a388bdfa56f01af3a28e22dacffde09b9",
                            "storage": {
                                "0x00": "0x01"
                            }
                        },
                        "0x2adc25665018aa1fe0e6bc666dac8fc2697ff9ba": {
                            "nonce": "0x00",
                            "balance": "0x01f926",
                            "code": "0x",
                            "storage": {}
                        }
                    }
                }
            ]
        },
        "config": {
            "blobSchedule": {
                "Cancun": {
                    "target": "0x03",
                    "max": "0x06",
                    "baseFeeUpdateFraction": "0x32f0ed"
                },
                "Prague": {
                    "target": "0x06",
                    "max": "0x09",
                    "baseFeeUpdateFraction": "0x4c6964"
                }
            },
            "chainid": "0x01"
        },
        "_info": {
            "hash": "0x440a5bb80af85d05e9e57ab466c0b89b160db375c7a92a04e84f12f9e3101115",
            "comment": "`execution-spec-tests` generated test",
            "filling-transition-tool": "ethereum-spec-evm-resolver 0.0.5",
            "description": "It was agreed before that senders don't have code\n    And there were issues with tests sending transactions from account's with code\n    With EIP7702 it is again possible, let's check the test runners are ok.",
            "url": "https://github.com/ethereum/execution-spec-tests/tree/v5.1.0/tests/prague/eip7702_set_code_tx/test_set_code_txs_2.py#L1216",
            "fixture-format": "state_test",
            "reference-spec": "https://github.com/ethereum/EIPs/blob/master/EIPS/eip-7702.md",
            "reference-spec-version": "99f1be49f37c034bdd5c082946f5968710dbfc87",
            "eels-resolution": {
                "git-url": "https://github.com/marioevz/execution-specs.git",
                "branch": "forks/bpo1",
                "commit": "3387e5f4aedfe99becfdc39b444d6371e25e0924"
            }
        }
    }
}