{
    "tests/ported_static/stReturnDataTest/test_returndatacopy_after_successful_staticcall.py::test_returndatacopy_after_successful_staticcall[fork_Cancun-blockchain_test_from_state_test]": {
        "network": "Cancun",
        "genesisBlockHeader": {
            "parentHash": "0x0000000000000000000000000000000000000000000000000000000000000000",
            "uncleHash": "0x1dcc4de8dec75d7aab85b567b6ccd41ad312451b948a7413f0a142fd40d49347",
            "coinbase": "0x0000000000000000000000000000000000000000",
            "stateRoot": "0x66f8a17868ddd83a0a1fac7d4a9fb9202f736c02b04c7f6f99c24ab56e7d1cb1",
            "transactionsTrie": "0x56e81f171bcc55a6ff8345e692c0f86e5b48e01b996cadc001622fb5e363b421",
            "receiptTrie": "0x56e81f171bcc55a6ff8345e692c0f86e5b48e01b996cadc001622fb5e363b421",
            "bloom": "0x00000000000000000000000000000000000000000000000000000000000000000000000000000000000000000000000000000000000000000000000000000000000000000000000000000000000000000000000000000000000000000000000000000000000000000000000000000000000000000000000000000000000000000000000000000000000000000000000000000000000000000000000000000000000000000000000000000000000000000000000000000000000000000000000000000000000000000000000000000000000000000000000000000000000000000000000000000000000000000000000000000000000000000000000000000000",
            "difficulty": "0x00",
            "number": "0x00",
            "gasLimit": "0x1a00000000",
            "gasUsed": "0x00",
            "timestamp": "0x00",
            "extraData": "0x00",
            "mixHash": "0x0000000000000000000000000000000000000000000000000000000000000000",
            "nonce": "0x0000000000000000",
            "baseFeePerGas": "0x0b",
            "withdrawalsRoot": "0x56e81f171bcc55a6ff8345e692c0f86e5b48e01b996cadc001622fb5e363b421",
            "blobGasUsed": "0x00",
            "excessBlobGas": "0x00",
            "parentBeaconBlockRoot": "0x0000000000000000000000000000000000000000000000000000000000000000",
            "hash": "0xfc287ab4bb9b85c90324ad714b3422cddf7fa363c46d5017ef504f8cfb938352"
        },
        "pre": {
            "0x000f3df6d732807ef1319fb7b8bb8522d0beac02": {
                "nonce": "0x01",
                "balance": "0x00",
                "code": "0x3373fffffffffffffffffffffffffffffffffffffffe14604d57602036146024575f5ffd5b5f35801560495762001fff810690815414603c575f5ffd5b62001fff01545f5260205ff35b5f5ffd5b62001fff42064281555f359062001fff015500",
                "storage": {}
            },
            "0x1b206bdc60ea797a25bd4a6cd5503d78b9027ba4": {
                "nonce": "0x00",
                "balance": "0x6400000000",
                "code": "0x",
                "storage": {}
            },
            "0x0fb206a9c59ce48be3bdf03db905111c7dd52597": {
                "nonce": "0x00",
                "balance": "0x01000000",
                "code": "0x",
                "storage": {}
            },
            "0xfd903b7493ae899e62381bc1abf1804c51afe63a": {
                "nonce": "0x00",
                "balance": "0x6400000000",
                "code": "0x3360005260206000f300",
                "storage": {}
            },
            "0xa8058756adb578f7cee73b6c97b09d709fccd78c": {
                "nonce": "0x00",
                "balance": "0x00",
                "code": "0x600060006000600073fd903b7493ae899e62381bc1abf1804c51afe63a61ea60fa506020600060003e60005160005500",
                "storage": {
                    "0x00": "0xffffffffffffffffffffffffffffffffffffffffffffffffffffffffffffffff"
                }
            }
        },
        "postState": {
            "0x000f3df6d732807ef1319fb7b8bb8522d0beac02": {
                "nonce": "0x01",
                "balance": "0x00",
                "code": "0x3373fffffffffffffffffffffffffffffffffffffffe14604d57602036146024575f5ffd5b5f35801560495762001fff810690815414603c575f5ffd5b62001fff01545f5260205ff35b5f5ffd5b62001fff42064281555f359062001fff015500",
                "storage": {
                    "0x03e8": "0x03e8"
                }
            },
            "0x1b206bdc60ea797a25bd4a6cd5503d78b9027ba4": {
                "nonce": "0x01",
                "balance": "0x63fffba050",
                "code": "0x",
                "storage": {}
            },
            "0x0fb206a9c59ce48be3bdf03db905111c7dd52597": {
                "nonce": "0x00",
                "balance": "0x01000000",
                "code": "0x",
                "storage": {}
            },
            "0xfd903b7493ae899e62381bc1abf1804c51afe63a": {
                "nonce": "0x00",
                "balance": "0x6400000000",
                "code": "0x3360005260206000f300",
                "storage": {}
            },
            "0xa8058756adb578f7cee73b6c97b09d709fccd78c": {
                "nonce": "0x00",
                "balance": "0x00",
                "code": "0x600060006000600073fd903b7493ae899e62381bc1abf1804c51afe63a61ea60fa506020600060003e60005160005500",
                "storage": {
                    "0x00": "0xa8058756adb578f7cee73b6c97b09d709fccd78c"
                }
            }
        },
        "lastblockhash": "0x5faba8287fb34d2ba4e67cdaac016de004d7553f5eeee26be55191b409e5d49c",
        "config": {
            "network": "Cancun",
            "chainid": "0x01",
            "blobSchedule": {
                "Cancun": {
                    "target": "0x03",
                    "max": "0x06",
                    "baseFeeUpdateFraction": "0x32f0ed"
                }
            }
        },
        "genesisRLP": "0xf9023df90237a00000000000000000000000000000000000000000000000000000000000000000a01dcc4de8dec75d7aab85b567b6ccd41ad312451b948a7413f0a142fd40d49347940000000000000000000000000000000000000000a066f8a17868ddd83a0a1fac7d4a9fb9202f736c02b04c7f6f99c24ab56e7d1cb1a056e81f171bcc55a6ff8345e692c0f86e5b48e01b996cadc001622fb5e363b421a056e81f171bcc55a6ff8345e692c0f86e5b48e01b996cadc001622fb5e363b421b90100000000000000000000000000000000000000000000000000000000000000000000000000000000000000000000000000000000000000000000000000000000000000000000000000000000000000000000000000000000000000000000000000000000000000000000000000000000000000000000000000000000000000000000000000000000000000000000000000000000000000000000000000000000000000000000000000000000000000000000000000000000000000000000000000000000000000000000000000000000000000000000000000000000000000000000000000000000000000000000000000000000000000000000000000000000008080851a00000000808000a000000000000000000000000000000000000000000000000000000000000000008800000000000000000ba056e81f171bcc55a6ff8345e692c0f86e5b48e01b996cadc001622fb5e363b4218080a00000000000000000000000000000000000000000000000000000000000000000c0c0c0",
        "blocks": [
            {
                "blockHeader": {
                    "parentHash": "0xfc287ab4bb9b85c90324ad714b3422cddf7fa363c46d5017ef504f8cfb938352",
                    "uncleHash": "0x1dcc4de8dec75d7aab85b567b6ccd41ad312451b948a7413f0a142fd40d49347",
                    "coinbase": "0x2adc25665018aa1fe0e6bc666dac8fc2697ff9ba",
                    "stateRoot": "0xe3e6c93cb9b1827a96e71cd367628414384dd0a3948b4fdda3226f6e0f59120d",
                    "transactionsTrie": "0x65a4419c5dc821b5185269c227e2bc01718854549a91d50d813061d817673800",
                    "receiptTrie": "0x6ea795e7ecaaa65194aadc70b8830df319b9985b02af573bfbb9da3fb7859806",
                    "bloom": "0x00000000000000000000000000000000000000000000000000000000000000000000000000000000000000000000000000000000000000000000000000000000000000000000000000000000000000000000000000000000000000000000000000000000000000000000000000000000000000000000000000000000000000000000000000000000000000000000000000000000000000000000000000000000000000000000000000000000000000000000000000000000000000000000000000000000000000000000000000000000000000000000000000000000000000000000000000000000000000000000000000000000000000000000000000000000",
                    "difficulty": "0x00",
                    "number": "0x01",
                    "gasLimit": "0x1a00000000",
                    "gasUsed": "0x6ff8",
                    "timestamp": "0x03e8",
                    "extraData": "0x00",
                    "mixHash": "0x0000000000000000000000000000000000000000000000000000000000020000",
                    "nonce": "0x0000000000000000",
                    "baseFeePerGas": "0x0a",
                    "withdrawalsRoot": "0x56e81f171bcc55a6ff8345e692c0f86e5b48e01b996cadc001622fb5e363b421",
                    "blobGasUsed": "0x00",
                    "excessBlobGas": "0x00",
                    "parentBeaconBlockRoot": "0x0000000000000000000000000000000000000000000000000000000000000000",
                    "hash": "0x5faba8287fb34d2ba4e67cdaac016de004d7553f5eeee26be55191b409e5d49c"
                },
                "transactions": [
                    {
                        "type": "0x00",
                        "chainId": "0x01",
                        "nonce": "0x00",
                        "gasPrice": "0x0a",
                        "gasLimit": "0x0186a0",
                        "to": "0xa8058756adb578f7cee73b6c97b09d709fccd78c",
                        "value": "0x00",
                        "data": "0x",
                        "v": "0x26",
                        "r": "0x2a8cf348165aef603cca86066848396bc3f1d64f3e59790eb908e868627fe992",
                        "s": "0x27ece28e655b72bdafbbadfdb52d54a28cbde974ad2fd76fac418f3fd0b0f5d5",
                        "sender": "0x1b206bdc60ea797a25bd4a6cd5503d78b9027ba4"
                    }
                ],
                "uncleHeaders": [],
                "withdrawals": [],
                "receipts": [
                    {
                        "transactionHash": "0x6399c874785c19bb8dd5f653d5d3dcdac6c612bf786de3af44f1f78d04ea6f95",
                        "type": "0x00",
                        "cumulativeGasUsed": "0x6ff8",
                        "bloom": "0x00000000000000000000000000000000000000000000000000000000000000000000000000000000000000000000000000000000000000000000000000000000000000000000000000000000000000000000000000000000000000000000000000000000000000000000000000000000000000000000000000000000000000000000000000000000000000000000000000000000000000000000000000000000000000000000000000000000000000000000000000000000000000000000000000000000000000000000000000000000000000000000000000000000000000000000000000000000000000000000000000000000000000000000000000000000",
                        "logs": [],
                        "status": true,
                        "rlp": "0xf9010801826ff8b9010000000000000000000000000000000000000000000000000000000000000000000000000000000000000000000000000000000000000000000000000000000000000000000000000000000000000000000000000000000000000000000000000000000000000000000000000000000000000000000000000000000000000000000000000000000000000000000000000000000000000000000000000000000000000000000000000000000000000000000000000000000000000000000000000000000000000000000000000000000000000000000000000000000000000000000000000000000000000000000000000000000000000000000000000000000000c0"
                    }
                ],
                "rlp": "0xf902a4f9023ba0fc287ab4bb9b85c90324ad714b3422cddf7fa363c46d5017ef504f8cfb938352a01dcc4de8dec75d7aab85b567b6ccd41ad312451b948a7413f0a142fd40d49347942adc25665018aa1fe0e6bc666dac8fc2697ff9baa0e3e6c93cb9b1827a96e71cd367628414384dd0a3948b4fdda3226f6e0f59120da065a4419c5dc821b5185269c227e2bc01718854549a91d50d813061d817673800a06ea795e7ecaaa65194aadc70b8830df319b9985b02af573bfbb9da3fb7859806b90100000000000000000000000000000000000000000000000000000000000000000000000000000000000000000000000000000000000000000000000000000000000000000000000000000000000000000000000000000000000000000000000000000000000000000000000000000000000000000000000000000000000000000000000000000000000000000000000000000000000000000000000000000000000000000000000000000000000000000000000000000000000000000000000000000000000000000000000000000000000000000000000000000000000000000000000000000000000000000000000000000000000000000000000000000000008001851a00000000826ff88203e800a000000000000000000000000000000000000000000000000000000000000200008800000000000000000aa056e81f171bcc55a6ff8345e692c0f86e5b48e01b996cadc001622fb5e363b4218080a00000000000000000000000000000000000000000000000000000000000000000f862f860800a830186a094a8058756adb578f7cee73b6c97b09d709fccd78c808026a02a8cf348165aef603cca86066848396bc3f1d64f3e59790eb908e868627fe992a027ece28e655b72bdafbbadfdb52d54a28cbde974ad2fd76fac418f3fd0b0f5d5c0c0",
                "blocknumber": "1"
            }
        ],
        "sealEngine": "NoProof",
        "_info": {
            "hash": "0x5b85be0c77a6848526f256b622d44953eb4ad41a14104e51fa5b19ab4ad32b7e",
            "fixture-format": "blockchain_test",
            "comment": "`execution-specs` generated test",
            "filling-transition-tool": "2.19.0",
            "description": "Test_returndatacopy_after_successful_staticcall.",
            "url": "https://github.com/ethereum/execution-specs/blob/tests-snobal-devnet-5@v8037.0.0/tests/ported_static/stReturnDataTest/test_returndatacopy_after_successful_staticcall.py#L24",
            "metadata": {
                "opcode_count": {}
            }
        }
    }
}