{
    "tests/ported_static/stStaticCall/test_static_call_value_inherit_from_call.py::test_static_call_value_inherit_from_call[fork_Cancun-blockchain_test_from_state_test]": {
        "network": "Cancun",
        "genesisBlockHeader": {
            "parentHash": "0x0000000000000000000000000000000000000000000000000000000000000000",
            "uncleHash": "0x1dcc4de8dec75d7aab85b567b6ccd41ad312451b948a7413f0a142fd40d49347",
            "coinbase": "0x0000000000000000000000000000000000000000",
            "stateRoot": "0x1ce18be949abb76fad76cd05c0efd0381bbe28573310a32d56f98f037e79ff0c",
            "transactionsTrie": "0x56e81f171bcc55a6ff8345e692c0f86e5b48e01b996cadc001622fb5e363b421",
            "receiptTrie": "0x56e81f171bcc55a6ff8345e692c0f86e5b48e01b996cadc001622fb5e363b421",
            "bloom": "0x00000000000000000000000000000000000000000000000000000000000000000000000000000000000000000000000000000000000000000000000000000000000000000000000000000000000000000000000000000000000000000000000000000000000000000000000000000000000000000000000000000000000000000000000000000000000000000000000000000000000000000000000000000000000000000000000000000000000000000000000000000000000000000000000000000000000000000000000000000000000000000000000000000000000000000000000000000000000000000000000000000000000000000000000000000000",
            "difficulty": "0x00",
            "number": "0x00",
            "gasLimit": "0x989680",
            "gasUsed": "0x00",
            "timestamp": "0x00",
            "extraData": "0x00",
            "mixHash": "0x0000000000000000000000000000000000000000000000000000000000000000",
            "nonce": "0x0000000000000000",
            "baseFeePerGas": "0x0b",
            "withdrawalsRoot": "0x56e81f171bcc55a6ff8345e692c0f86e5b48e01b996cadc001622fb5e363b421",
            "blobGasUsed": "0x00",
            "excessBlobGas": "0x00",
            "parentBeaconBlockRoot": "0x0000000000000000000000000000000000000000000000000000000000000000",
            "hash": "0xdb6d8c1ae1683d719a2295dabd0a4267c8d8ab326362d7715a5f5bc74c8fe361"
        },
        "pre": {
            "0x000f3df6d732807ef1319fb7b8bb8522d0beac02": {
                "nonce": "0x01",
                "balance": "0x00",
                "code": "0x3373fffffffffffffffffffffffffffffffffffffffe14604d57602036146024575f5ffd5b5f35801560495762001fff810690815414603c575f5ffd5b62001fff01545f5260205ff35b5f5ffd5b62001fff42064281555f359062001fff015500",
                "storage": {}
            },
            "0xfaa10b404ab607779993c016cd5da73ae1f29d7e": {
                "nonce": "0x00",
                "balance": "0xe8d4a51000",
                "code": "0x",
                "storage": {}
            },
            "0x453c54cfc5af8e6fd9110c386da8fbc47105d611": {
                "nonce": "0x00",
                "balance": "0x01",
                "code": "0x602060006000600073cb9a81371bc2600a843f60738091e390318cda9c61c350fa60005560005160015500",
                "storage": {
                    "0x01": "0x01"
                }
            },
            "0x0af4ae2156e6347e93d875a9d46085e31e57bbe9": {
                "nonce": "0x00",
                "balance": "0x00",
                "code": "0x6000600060006000600a73453c54cfc5af8e6fd9110c386da8fbc47105d611620186a0f100",
                "storage": {}
            },
            "0xcb9a81371bc2600a843f60738091e390318cda9c": {
                "nonce": "0x00",
                "balance": "0x01",
                "code": "0x3460005260206000f300",
                "storage": {}
            }
        },
        "postState": {
            "0x000f3df6d732807ef1319fb7b8bb8522d0beac02": {
                "nonce": "0x01",
                "balance": "0x00",
                "code": "0x3373fffffffffffffffffffffffffffffffffffffffe14604d57602036146024575f5ffd5b5f35801560495762001fff810690815414603c575f5ffd5b62001fff01545f5260205ff35b5f5ffd5b62001fff42064281555f359062001fff015500",
                "storage": {
                    "0x03e8": "0x03e8"
                }
            },
            "0xfaa10b404ab607779993c016cd5da73ae1f29d7e": {
                "nonce": "0x01",
                "balance": "0xe8d49ca0f0",
                "code": "0x",
                "storage": {}
            },
            "0x453c54cfc5af8e6fd9110c386da8fbc47105d611": {
                "nonce": "0x00",
                "balance": "0x0b",
                "code": "0x602060006000600073cb9a81371bc2600a843f60738091e390318cda9c61c350fa60005560005160015500",
                "storage": {
                    "0x00": "0x01"
                }
            },
            "0x0af4ae2156e6347e93d875a9d46085e31e57bbe9": {
                "nonce": "0x00",
                "balance": "0x00",
                "code": "0x6000600060006000600a73453c54cfc5af8e6fd9110c386da8fbc47105d611620186a0f100",
                "storage": {}
            },
            "0xcb9a81371bc2600a843f60738091e390318cda9c": {
                "nonce": "0x00",
                "balance": "0x01",
                "code": "0x3460005260206000f300",
                "storage": {}
            }
        },
        "lastblockhash": "0x102f2016a9ba08a5b6e03affb4118454b88b93bbb4ae9b2fdc477345babc9616",
        "config": {
            "network": "Cancun",
            "chainid": "0x01",
            "blobSchedule": {
                "Cancun": {
                    "target": "0x03",
                    "max": "0x06",
                    "baseFeeUpdateFraction": "0x32f0ed"
                }
            }
        },
        "genesisRLP": "0xf9023bf90235a00000000000000000000000000000000000000000000000000000000000000000a01dcc4de8dec75d7aab85b567b6ccd41ad312451b948a7413f0a142fd40d49347940000000000000000000000000000000000000000a01ce18be949abb76fad76cd05c0efd0381bbe28573310a32d56f98f037e79ff0ca056e81f171bcc55a6ff8345e692c0f86e5b48e01b996cadc001622fb5e363b421a056e81f171bcc55a6ff8345e692c0f86e5b48e01b996cadc001622fb5e363b421b9010000000000000000000000000000000000000000000000000000000000000000000000000000000000000000000000000000000000000000000000000000000000000000000000000000000000000000000000000000000000000000000000000000000000000000000000000000000000000000000000000000000000000000000000000000000000000000000000000000000000000000000000000000000000000000000000000000000000000000000000000000000000000000000000000000000000000000000000000000000000000000000000000000000000000000000000000000000000000000000000000000000000000000000000000000000000808083989680808000a000000000000000000000000000000000000000000000000000000000000000008800000000000000000ba056e81f171bcc55a6ff8345e692c0f86e5b48e01b996cadc001622fb5e363b4218080a00000000000000000000000000000000000000000000000000000000000000000c0c0c0",
        "blocks": [
            {
                "blockHeader": {
                    "parentHash": "0xdb6d8c1ae1683d719a2295dabd0a4267c8d8ab326362d7715a5f5bc74c8fe361",
                    "uncleHash": "0x1dcc4de8dec75d7aab85b567b6ccd41ad312451b948a7413f0a142fd40d49347",
                    "coinbase": "0x2adc25665018aa1fe0e6bc666dac8fc2697ff9ba",
                    "stateRoot": "0x373b1b053ca035a4c7b66a2adebfa0dea1e0ce0fdc013d456fa5c40e9482f526",
                    "transactionsTrie": "0xa3076f9392d0b7f680926c0e47633c7f94023ca1d5a1a7624c8520d4db544d76",
                    "receiptTrie": "0x5defa4e2e4fd0331b997bc4fa6c55b2f710011907d65ca2c1112ceed7f273ca3",
                    "bloom": "0x00000000000000000000000000000000000000000000000000000000000000000000000000000000000000000000000000000000000000000000000000000000000000000000000000000000000000000000000000000000000000000000000000000000000000000000000000000000000000000000000000000000000000000000000000000000000000000000000000000000000000000000000000000000000000000000000000000000000000000000000000000000000000000000000000000000000000000000000000000000000000000000000000000000000000000000000000000000000000000000000000000000000000000000000000000000",
                    "difficulty": "0x00",
                    "number": "0x01",
                    "gasLimit": "0x989680",
                    "gasUsed": "0xd7e7",
                    "timestamp": "0x03e8",
                    "extraData": "0x00",
                    "mixHash": "0x0000000000000000000000000000000000000000000000000000000000020000",
                    "nonce": "0x0000000000000000",
                    "baseFeePerGas": "0x0a",
                    "withdrawalsRoot": "0x56e81f171bcc55a6ff8345e692c0f86e5b48e01b996cadc001622fb5e363b421",
                    "blobGasUsed": "0x00",
                    "excessBlobGas": "0x00",
                    "parentBeaconBlockRoot": "0x0000000000000000000000000000000000000000000000000000000000000000",
                    "hash": "0x102f2016a9ba08a5b6e03affb4118454b88b93bbb4ae9b2fdc477345babc9616"
                },
                "transactions": [
                    {
                        "type": "0x00",
                        "chainId": "0x01",
                        "nonce": "0x00",
                        "gasPrice": "0x0a",
                        "gasLimit": "0x0704e0",
                        "to": "0x0af4ae2156e6347e93d875a9d46085e31e57bbe9",
                        "value": "0x0a",
                        "data": "0x",
                        "v": "0x26",
                        "r": "0xbb9531565695eb1c3e909873e78d81952725d8efc067a39588d3112945d0ae9b",
                        "s": "0x269ec1085a506aa31de4652f58a7d46ce862b9e6a12cf5b0509042b8cfa2ffb9",
                        "sender": "0xfaa10b404ab607779993c016cd5da73ae1f29d7e"
                    }
                ],
                "uncleHeaders": [],
                "withdrawals": [],
                "receipts": [
                    {
                        "transactionHash": "0xbd8c9b4049ca3b6dc10011a65d2855f36b569dfd8cf93635435f0ae0a6ea2bf9",
                        "type": "0x00",
                        "cumulativeGasUsed": "0xd7e7",
                        "bloom": "0x00000000000000000000000000000000000000000000000000000000000000000000000000000000000000000000000000000000000000000000000000000000000000000000000000000000000000000000000000000000000000000000000000000000000000000000000000000000000000000000000000000000000000000000000000000000000000000000000000000000000000000000000000000000000000000000000000000000000000000000000000000000000000000000000000000000000000000000000000000000000000000000000000000000000000000000000000000000000000000000000000000000000000000000000000000000",
                        "logs": [],
                        "status": true,
                        "rlp": "0xf901080182d7e7b9010000000000000000000000000000000000000000000000000000000000000000000000000000000000000000000000000000000000000000000000000000000000000000000000000000000000000000000000000000000000000000000000000000000000000000000000000000000000000000000000000000000000000000000000000000000000000000000000000000000000000000000000000000000000000000000000000000000000000000000000000000000000000000000000000000000000000000000000000000000000000000000000000000000000000000000000000000000000000000000000000000000000000000000000000000000000c0"
                    }
                ],
                "rlp": "0xf902a2f90239a0db6d8c1ae1683d719a2295dabd0a4267c8d8ab326362d7715a5f5bc74c8fe361a01dcc4de8dec75d7aab85b567b6ccd41ad312451b948a7413f0a142fd40d49347942adc25665018aa1fe0e6bc666dac8fc2697ff9baa0373b1b053ca035a4c7b66a2adebfa0dea1e0ce0fdc013d456fa5c40e9482f526a0a3076f9392d0b7f680926c0e47633c7f94023ca1d5a1a7624c8520d4db544d76a05defa4e2e4fd0331b997bc4fa6c55b2f710011907d65ca2c1112ceed7f273ca3b901000000000000000000000000000000000000000000000000000000000000000000000000000000000000000000000000000000000000000000000000000000000000000000000000000000000000000000000000000000000000000000000000000000000000000000000000000000000000000000000000000000000000000000000000000000000000000000000000000000000000000000000000000000000000000000000000000000000000000000000000000000000000000000000000000000000000000000000000000000000000000000000000000000000000000000000000000000000000000000000000000000000000000000000000000000000080018398968082d7e78203e800a000000000000000000000000000000000000000000000000000000000000200008800000000000000000aa056e81f171bcc55a6ff8345e692c0f86e5b48e01b996cadc001622fb5e363b4218080a00000000000000000000000000000000000000000000000000000000000000000f862f860800a830704e0940af4ae2156e6347e93d875a9d46085e31e57bbe90a8026a0bb9531565695eb1c3e909873e78d81952725d8efc067a39588d3112945d0ae9ba0269ec1085a506aa31de4652f58a7d46ce862b9e6a12cf5b0509042b8cfa2ffb9c0c0",
                "blocknumber": "1"
            }
        ],
        "sealEngine": "NoProof",
        "_info": {
            "hash": "0xd546d7fae5c416a16c7430c8411fdd2953aaa3b660797c3283c8fa152fa1790d",
            "fixture-format": "blockchain_test",
            "comment": "`execution-specs` generated test",
            "filling-transition-tool": "2.19.0",
            "description": "Test_static_call_value_inherit_from_call.",
            "url": "https://github.com/ethereum/execution-specs/blob/tests-bal@v5.7.0/tests/ported_static/stStaticCall/test_static_call_value_inherit_from_call.py#L25",
            "metadata": {
                "opcode_count": {}
            }
        }
    }
}