{
    "tests/ported_static/stLogTests/test_log4_empty_mem.py::test_log4_empty_mem[fork_Cancun-blockchain_test_from_state_test]": {
        "network": "Cancun",
        "genesisBlockHeader": {
            "parentHash": "0x0000000000000000000000000000000000000000000000000000000000000000",
            "uncleHash": "0x1dcc4de8dec75d7aab85b567b6ccd41ad312451b948a7413f0a142fd40d49347",
            "coinbase": "0x0000000000000000000000000000000000000000",
            "stateRoot": "0x8af68dde0fd5b6288b474967faecc5be103c3cd05ea2bd246b02f90a22bd92b9",
            "transactionsTrie": "0x56e81f171bcc55a6ff8345e692c0f86e5b48e01b996cadc001622fb5e363b421",
            "receiptTrie": "0x56e81f171bcc55a6ff8345e692c0f86e5b48e01b996cadc001622fb5e363b421",
            "bloom": "0x00000000000000000000000000000000000000000000000000000000000000000000000000000000000000000000000000000000000000000000000000000000000000000000000000000000000000000000000000000000000000000000000000000000000000000000000000000000000000000000000000000000000000000000000000000000000000000000000000000000000000000000000000000000000000000000000000000000000000000000000000000000000000000000000000000000000000000000000000000000000000000000000000000000000000000000000000000000000000000000000000000000000000000000000000000000",
            "difficulty": "0x00",
            "number": "0x00",
            "gasLimit": "0x0f4240",
            "gasUsed": "0x00",
            "timestamp": "0x00",
            "extraData": "0x00",
            "mixHash": "0x0000000000000000000000000000000000000000000000000000000000000000",
            "nonce": "0x0000000000000000",
            "baseFeePerGas": "0x0b",
            "withdrawalsRoot": "0x56e81f171bcc55a6ff8345e692c0f86e5b48e01b996cadc001622fb5e363b421",
            "blobGasUsed": "0x00",
            "excessBlobGas": "0x00",
            "parentBeaconBlockRoot": "0x0000000000000000000000000000000000000000000000000000000000000000",
            "hash": "0x7bb2ca93359c87f2e6c468e5e29b8ae8c978b3c7de079d0a923ae201fa70960a"
        },
        "pre": {
            "0x000f3df6d732807ef1319fb7b8bb8522d0beac02": {
                "nonce": "0x01",
                "balance": "0x00",
                "code": "0x3373fffffffffffffffffffffffffffffffffffffffe14604d57602036146024575f5ffd5b5f35801560495762001fff810690815414603c575f5ffd5b62001fff01545f5260205ff35b5f5ffd5b62001fff42064281555f359062001fff015500",
                "storage": {}
            },
            "0xd66f224cbd2fabb21b17bb53c56118f32f62ebd6": {
                "nonce": "0x00",
                "balance": "0x0de0b6b3a7640000",
                "code": "0x",
                "storage": {}
            },
            "0xe47fbadf8461987b2cdd70971262cb4440185a24": {
                "nonce": "0x00",
                "balance": "0x0de0b6b3a7640000",
                "code": "0x600060006000600060006000a400",
                "storage": {}
            },
            "0x60b8bdbb3d1f787193ded53536fc4c9a69043359": {
                "nonce": "0x00",
                "balance": "0x0de0b6b3a7640000",
                "code": "0x6000600060006000601773e47fbadf8461987b2cdd70971262cb4440185a246103e8f160005500",
                "storage": {}
            }
        },
        "postState": {
            "0x000f3df6d732807ef1319fb7b8bb8522d0beac02": {
                "nonce": "0x01",
                "balance": "0x00",
                "code": "0x3373fffffffffffffffffffffffffffffffffffffffe14604d57602036146024575f5ffd5b5f35801560495762001fff810690815414603c575f5ffd5b62001fff01545f5260205ff35b5f5ffd5b62001fff42064281555f359062001fff015500",
                "storage": {
                    "0x03e8": "0x03e8"
                }
            },
            "0xd66f224cbd2fabb21b17bb53c56118f32f62ebd6": {
                "nonce": "0x01",
                "balance": "0x0de0b6b3a75a2f9e",
                "code": "0x",
                "storage": {}
            },
            "0xe47fbadf8461987b2cdd70971262cb4440185a24": {
                "nonce": "0x00",
                "balance": "0x0de0b6b3a7640017",
                "code": "0x600060006000600060006000a400",
                "storage": {}
            },
            "0x60b8bdbb3d1f787193ded53536fc4c9a69043359": {
                "nonce": "0x00",
                "balance": "0x0de0b6b3a7658689",
                "code": "0x6000600060006000601773e47fbadf8461987b2cdd70971262cb4440185a246103e8f160005500",
                "storage": {
                    "0x00": "0x01"
                }
            }
        },
        "lastblockhash": "0x680b0245af1405d32937b7e80c04e622724744af1465499f8babda468322edae",
        "config": {
            "network": "Cancun",
            "chainid": "0x01",
            "blobSchedule": {
                "Cancun": {
                    "target": "0x03",
                    "max": "0x06",
                    "baseFeeUpdateFraction": "0x32f0ed"
                }
            }
        },
        "genesisRLP": "0xf9023bf90235a00000000000000000000000000000000000000000000000000000000000000000a01dcc4de8dec75d7aab85b567b6ccd41ad312451b948a7413f0a142fd40d49347940000000000000000000000000000000000000000a08af68dde0fd5b6288b474967faecc5be103c3cd05ea2bd246b02f90a22bd92b9a056e81f171bcc55a6ff8345e692c0f86e5b48e01b996cadc001622fb5e363b421a056e81f171bcc55a6ff8345e692c0f86e5b48e01b996cadc001622fb5e363b421b90100000000000000000000000000000000000000000000000000000000000000000000000000000000000000000000000000000000000000000000000000000000000000000000000000000000000000000000000000000000000000000000000000000000000000000000000000000000000000000000000000000000000000000000000000000000000000000000000000000000000000000000000000000000000000000000000000000000000000000000000000000000000000000000000000000000000000000000000000000000000000000000000000000000000000000000000000000000000000000000000000000000000000000000000000000000008080830f4240808000a000000000000000000000000000000000000000000000000000000000000000008800000000000000000ba056e81f171bcc55a6ff8345e692c0f86e5b48e01b996cadc001622fb5e363b4218080a00000000000000000000000000000000000000000000000000000000000000000c0c0c0",
        "blocks": [
            {
                "blockHeader": {
                    "parentHash": "0x7bb2ca93359c87f2e6c468e5e29b8ae8c978b3c7de079d0a923ae201fa70960a",
                    "uncleHash": "0x1dcc4de8dec75d7aab85b567b6ccd41ad312451b948a7413f0a142fd40d49347",
                    "coinbase": "0x2adc25665018aa1fe0e6bc666dac8fc2697ff9ba",
                    "stateRoot": "0x8221c8e5cca2b1d61a304544c239c913e1eb27082a33478cbf721652e759c4af",
                    "transactionsTrie": "0x5f813834728975070c63e6bd01c1b1c23d0bbf87f02ee932001827cbeda2484b",
                    "receiptTrie": "0xbd18aa13132bbe136eb621439a4312536347c1a9c83482a80ae2e065e1852e25",
                    "bloom": "0x00000000000000000000000000000000000000000000000000000000000000000000000000000000000000000000000000000000000000200000000000000000000000000000000000000004000000000000000000000000000000000000040000000000020000000000000000000800000000000000000000000000000000000000000000000000000000000000000000000000000000000000000000000000000000000000000000000000000000000000000000000000000000000000000000000000000000000000000000000000000000000000000000000000000020000000000000000000000000000000000000000000000000000000000000000000",
                    "difficulty": "0x00",
                    "number": "0x01",
                    "gasLimit": "0x0f4240",
                    "gasUsed": "0xd42d",
                    "timestamp": "0x03e8",
                    "extraData": "0x00",
                    "mixHash": "0x0000000000000000000000000000000000000000000000000000000000020000",
                    "nonce": "0x0000000000000000",
                    "baseFeePerGas": "0x0a",
                    "withdrawalsRoot": "0x56e81f171bcc55a6ff8345e692c0f86e5b48e01b996cadc001622fb5e363b421",
                    "blobGasUsed": "0x00",
                    "excessBlobGas": "0x00",
                    "parentBeaconBlockRoot": "0x0000000000000000000000000000000000000000000000000000000000000000",
                    "hash": "0x680b0245af1405d32937b7e80c04e622724744af1465499f8babda468322edae"
                },
                "transactions": [
                    {
                        "type": "0x00",
                        "chainId": "0x01",
                        "nonce": "0x00",
                        "gasPrice": "0x0a",
                        "gasLimit": "0x033450",
                        "to": "0x60b8bdbb3d1f787193ded53536fc4c9a69043359",
                        "value": "0x0186a0",
                        "data": "0x",
                        "v": "0x25",
                        "r": "0x97a4b423584c70c4356d41ce170d5b1c214e80a5c8f7a8bf2b693efb8f44f2cd",
                        "s": "0x38e7f9ec8527db8f6a2d322c23f0ea02ffff651de4dc8066aea4376097fa7a73",
                        "sender": "0xd66f224cbd2fabb21b17bb53c56118f32f62ebd6"
                    }
                ],
                "uncleHeaders": [],
                "withdrawals": [],
                "receipts": [
                    {
                        "transactionHash": "0x1ec8716c292c50ac4292a89a9a3b187f5c56b96c0a3ecf19d3aee63566ff365d",
                        "type": "0x00",
                        "cumulativeGasUsed": "0xd42d",
                        "bloom": "0x00000000000000000000000000000000000000000000000000000000000000000000000000000000000000000000000000000000000000200000000000000000000000000000000000000004000000000000000000000000000000000000040000000000020000000000000000000800000000000000000000000000000000000000000000000000000000000000000000000000000000000000000000000000000000000000000000000000000000000000000000000000000000000000000000000000000000000000000000000000000000000000000000000000000020000000000000000000000000000000000000000000000000000000000000000000",
                        "logs": [
                            {
                                "address": "0xe47fbadf8461987b2cdd70971262cb4440185a24",
                                "topics": [
                                    "0x0000000000000000000000000000000000000000000000000000000000000000",
                                    "0x0000000000000000000000000000000000000000000000000000000000000000",
                                    "0x0000000000000000000000000000000000000000000000000000000000000000",
                                    "0x0000000000000000000000000000000000000000000000000000000000000000"
                                ],
                                "data": "0x"
                            }
                        ],
                        "status": true,
                        "rlp": "0xf901a70182d42db9010000000000000000000000000000000000000000000000000000000000000000000000000000000000000000000000000000000000000000200000000000000000000000000000000000000004000000000000000000000000000000000000040000000000020000000000000000000800000000000000000000000000000000000000000000000000000000000000000000000000000000000000000000000000000000000000000000000000000000000000000000000000000000000000000000000000000000000000000000000000000000000000000000000000000020000000000000000000000000000000000000000000000000000000000000000000f89ef89c94e47fbadf8461987b2cdd70971262cb4440185a24f884a00000000000000000000000000000000000000000000000000000000000000000a00000000000000000000000000000000000000000000000000000000000000000a00000000000000000000000000000000000000000000000000000000000000000a0000000000000000000000000000000000000000000000000000000000000000080"
                    }
                ],
                "rlp": "0xf902a5f90239a07bb2ca93359c87f2e6c468e5e29b8ae8c978b3c7de079d0a923ae201fa70960aa01dcc4de8dec75d7aab85b567b6ccd41ad312451b948a7413f0a142fd40d49347942adc25665018aa1fe0e6bc666dac8fc2697ff9baa08221c8e5cca2b1d61a304544c239c913e1eb27082a33478cbf721652e759c4afa05f813834728975070c63e6bd01c1b1c23d0bbf87f02ee932001827cbeda2484ba0bd18aa13132bbe136eb621439a4312536347c1a9c83482a80ae2e065e1852e25b90100000000000000000000000000000000000000000000000000000000000000000000000000000000000000000000000000000000000000002000000000000000000000000000000000000000040000000000000000000000000000000000000400000000000200000000000000000008000000000000000000000000000000000000000000000000000000000000000000000000000000000000000000000000000000000000000000000000000000000000000000000000000000000000000000000000000000000000000000000000000000000000000000000000000000200000000000000000000000000000000000000000000000000000000000000000008001830f424082d42d8203e800a000000000000000000000000000000000000000000000000000000000000200008800000000000000000aa056e81f171bcc55a6ff8345e692c0f86e5b48e01b996cadc001622fb5e363b4218080a00000000000000000000000000000000000000000000000000000000000000000f865f863800a830334509460b8bdbb3d1f787193ded53536fc4c9a69043359830186a08025a097a4b423584c70c4356d41ce170d5b1c214e80a5c8f7a8bf2b693efb8f44f2cda038e7f9ec8527db8f6a2d322c23f0ea02ffff651de4dc8066aea4376097fa7a73c0c0",
                "blocknumber": "1"
            }
        ],
        "sealEngine": "NoProof",
        "_info": {
            "hash": "0x9018cdc2b38b4c2b22647429092c7e7b15b5fd3db39807d2cd66318c0cf00e1c",
            "fixture-format": "blockchain_test",
            "comment": "`execution-specs` generated test",
            "filling-transition-tool": "2.19.0",
            "description": "Test_log4_empty_mem.",
            "url": "https://github.com/ethereum/execution-specs/blob/tests-snobal-devnet-5@v8037.0.0/tests/ported_static/stLogTests/test_log4_empty_mem.py#L24",
            "metadata": {
                "opcode_count": {}
            }
        }
    }
}