{
    "tests/frontier/create/test_create_suicide_during_init.py::test_create_suicide_during_transaction_create[fork_Byzantium-create_opcode_CREATE-blockchain_test_from_state_test-operation_Operation.SUICIDE-transaction_create_False]": {
        "network": "Byzantium",
        "genesisBlockHeader": {
            "parentHash": "0x0000000000000000000000000000000000000000000000000000000000000000",
            "uncleHash": "0x1dcc4de8dec75d7aab85b567b6ccd41ad312451b948a7413f0a142fd40d49347",
            "coinbase": "0x0000000000000000000000000000000000000000",
            "stateRoot": "0x806cc660d2b12ce9cce9cc9160b5f206a89dc09604afd7f828c489ffa1b8fdb3",
            "transactionsTrie": "0x56e81f171bcc55a6ff8345e692c0f86e5b48e01b996cadc001622fb5e363b421",
            "receiptTrie": "0x56e81f171bcc55a6ff8345e692c0f86e5b48e01b996cadc001622fb5e363b421",
            "bloom": "0x00000000000000000000000000000000000000000000000000000000000000000000000000000000000000000000000000000000000000000000000000000000000000000000000000000000000000000000000000000000000000000000000000000000000000000000000000000000000000000000000000000000000000000000000000000000000000000000000000000000000000000000000000000000000000000000000000000000000000000000000000000000000000000000000000000000000000000000000000000000000000000000000000000000000000000000000000000000000000000000000000000000000000000000000000000000",
            "difficulty": "0x020000",
            "number": "0x00",
            "gasLimit": "0x07270e00",
            "gasUsed": "0x00",
            "timestamp": "0x00",
            "extraData": "0x00",
            "mixHash": "0x0000000000000000000000000000000000000000000000000000000000000000",
            "nonce": "0x0000000000000000",
            "hash": "0x6d7a934bddff63e7927d89702404d66853c8b7094c14857f7adad71ac7f6954d"
        },
        "pre": {
            "0x1ad9bc24818784172ff393bb6f89f094d4d2ca29": {
                "nonce": "0x00",
                "balance": "0x3635c9adc5dea00000",
                "code": "0x",
                "storage": {}
            },
            "0xd65de1a0cf00e412c07ee6c2ff811a2883de6bff": {
                "nonce": "0x01",
                "balance": "0x00",
                "code": "0x36600060003736600034f0",
                "storage": {}
            },
            "0xfb99a28ec724900c3af1b8a62c0a613da9ef77c7": {
                "nonce": "0x01",
                "balance": "0x00",
                "code": "0x6001600155",
                "storage": {}
            },
            "0x37f536464af59c8d7358cae965f92cbeadd58dcb": {
                "nonce": "0x01",
                "balance": "0x00",
                "code": "0x00",
                "storage": {}
            },
            "0x0a85e7d90b61b35964a913370399e7ed517eddc1": {
                "nonce": "0x01",
                "balance": "0x00",
                "code": "0x6001600155",
                "storage": {}
            }
        },
        "postState": {
            "0x1ad9bc24818784172ff393bb6f89f094d4d2ca29": {
                "nonce": "0x01",
                "balance": "0x3635c9adc5de969592",
                "code": "0x",
                "storage": {}
            },
            "0xd65de1a0cf00e412c07ee6c2ff811a2883de6bff": {
                "nonce": "0x02",
                "balance": "0x00",
                "code": "0x36600060003736600034f0",
                "storage": {}
            },
            "0xfb99a28ec724900c3af1b8a62c0a613da9ef77c7": {
                "nonce": "0x01",
                "balance": "0x00",
                "code": "0x6001600155",
                "storage": {
                    "0x01": "0x01"
                }
            },
            "0x37f536464af59c8d7358cae965f92cbeadd58dcb": {
                "nonce": "0x01",
                "balance": "0x64",
                "code": "0x00",
                "storage": {}
            },
            "0x0a85e7d90b61b35964a913370399e7ed517eddc1": {
                "nonce": "0x01",
                "balance": "0x00",
                "code": "0x6001600155",
                "storage": {}
            },
            "0x2adc25665018aa1fe0e6bc666dac8fc2697ff9ba": {
                "nonce": "0x00",
                "balance": "0x29a2241af6356a0a",
                "code": "0x",
                "storage": {}
            }
        },
        "lastblockhash": "0x2705b6199981abc8f29c3ccd0948c40d84a81f3c9c89065a91880aa63e365d31",
        "config": {
            "network": "Byzantium",
            "chainid": "0x01"
        },
        "genesisRLP": "0xf901f9f901f4a00000000000000000000000000000000000000000000000000000000000000000a01dcc4de8dec75d7aab85b567b6ccd41ad312451b948a7413f0a142fd40d49347940000000000000000000000000000000000000000a0806cc660d2b12ce9cce9cc9160b5f206a89dc09604afd7f828c489ffa1b8fdb3a056e81f171bcc55a6ff8345e692c0f86e5b48e01b996cadc001622fb5e363b421a056e81f171bcc55a6ff8345e692c0f86e5b48e01b996cadc001622fb5e363b421b901000000000000000000000000000000000000000000000000000000000000000000000000000000000000000000000000000000000000000000000000000000000000000000000000000000000000000000000000000000000000000000000000000000000000000000000000000000000000000000000000000000000000000000000000000000000000000000000000000000000000000000000000000000000000000000000000000000000000000000000000000000000000000000000000000000000000000000000000000000000000000000000000000000000000000000000000000000000000000000000000000000000000000000000000000000000083020000808407270e00808000a00000000000000000000000000000000000000000000000000000000000000000880000000000000000c0c0",
        "blocks": [
            {
                "blockHeader": {
                    "parentHash": "0x6d7a934bddff63e7927d89702404d66853c8b7094c14857f7adad71ac7f6954d",
                    "uncleHash": "0x1dcc4de8dec75d7aab85b567b6ccd41ad312451b948a7413f0a142fd40d49347",
                    "coinbase": "0x2adc25665018aa1fe0e6bc666dac8fc2697ff9ba",
                    "stateRoot": "0xda5b451597105b5d5bd0435516c552d5c08219a756c3934298688a47b8045180",
                    "transactionsTrie": "0xc3df90eb4bf91770187bf4d609366400d67a0e69bb400cfe6f28c8ace71a560f",
                    "receiptTrie": "0x721c76a29d7e61809b240453ec4d74f7842104461486c49cfad96b3efb76fa1e",
                    "bloom": "0x00000000000000000000000000000000000000000000000000000000000000000000000000000000000000000000000000000000000000000000000000000000000000000000000000000000000000000000000000000000000000000000000000000000000000000000000000000000000000000000000000000000000000000000000000000000000000000000000000000000000000000000000000000000000000000000000000000000000000000000000000000000000000000000000000000000000000000000000000000000000000000000000000000000000000000000000000000000000000000000000000000000000000000000000000000000",
                    "difficulty": "0x020000",
                    "number": "0x01",
                    "gasLimit": "0x07270e00",
                    "gasUsed": "0xf101",
                    "timestamp": "0x03e8",
                    "extraData": "0x00",
                    "mixHash": "0x0000000000000000000000000000000000000000000000000000000000000000",
                    "nonce": "0x0000000000000000",
                    "hash": "0x2705b6199981abc8f29c3ccd0948c40d84a81f3c9c89065a91880aa63e365d31"
                },
                "transactions": [
                    {
                        "type": "0x00",
                        "chainId": "0x01",
                        "nonce": "0x00",
                        "gasPrice": "0x0a",
                        "gasLimit": "0x0f4240",
                        "to": "0xd65de1a0cf00e412c07ee6c2ff811a2883de6bff",
                        "value": "0x64",
                        "data": "0x6000600060006000600073fb99a28ec724900c3af1b8a62c0a613da9ef77c7620186a05a03f17337f536464af59c8d7358cae965f92cbeadd58dcbff60006000600060006000730a85e7d90b61b35964a913370399e7ed517eddc1620186a05a03f1610005600081606d8239f36001600055",
                        "v": "0x26",
                        "r": "0x5ac6b03d32c7de30f168d9c0a226e6b1de6edd22ee10bb4796cbb751fb388043",
                        "s": "0x180f3775d2cf62f902a3578af2e144019b9d6e52d2adb0d8c90056321e164ca0",
                        "sender": "0x1ad9bc24818784172ff393bb6f89f094d4d2ca29"
                    }
                ],
                "uncleHeaders": [],
                "receipts": [
                    {
                        "transactionHash": "0xdebc38143e996cb4e9c91d1b5aca5682afbbd6e238a2ea750cfc3bc03ab26e6b",
                        "type": "0x00",
                        "cumulativeGasUsed": "0xf101",
                        "bloom": "0x00000000000000000000000000000000000000000000000000000000000000000000000000000000000000000000000000000000000000000000000000000000000000000000000000000000000000000000000000000000000000000000000000000000000000000000000000000000000000000000000000000000000000000000000000000000000000000000000000000000000000000000000000000000000000000000000000000000000000000000000000000000000000000000000000000000000000000000000000000000000000000000000000000000000000000000000000000000000000000000000000000000000000000000000000000000",
                        "logs": [],
                        "status": true,
                        "rlp": "0xf901080182f101b9010000000000000000000000000000000000000000000000000000000000000000000000000000000000000000000000000000000000000000000000000000000000000000000000000000000000000000000000000000000000000000000000000000000000000000000000000000000000000000000000000000000000000000000000000000000000000000000000000000000000000000000000000000000000000000000000000000000000000000000000000000000000000000000000000000000000000000000000000000000000000000000000000000000000000000000000000000000000000000000000000000000000000000000000000000000000c0"
                    }
                ],
                "rlp": "0xf902d3f901f8a06d7a934bddff63e7927d89702404d66853c8b7094c14857f7adad71ac7f6954da01dcc4de8dec75d7aab85b567b6ccd41ad312451b948a7413f0a142fd40d49347942adc25665018aa1fe0e6bc666dac8fc2697ff9baa0da5b451597105b5d5bd0435516c552d5c08219a756c3934298688a47b8045180a0c3df90eb4bf91770187bf4d609366400d67a0e69bb400cfe6f28c8ace71a560fa0721c76a29d7e61809b240453ec4d74f7842104461486c49cfad96b3efb76fa1eb901000000000000000000000000000000000000000000000000000000000000000000000000000000000000000000000000000000000000000000000000000000000000000000000000000000000000000000000000000000000000000000000000000000000000000000000000000000000000000000000000000000000000000000000000000000000000000000000000000000000000000000000000000000000000000000000000000000000000000000000000000000000000000000000000000000000000000000000000000000000000000000000000000000000000000000000000000000000000000000000000000000000000000000000000000000000083020000018407270e0082f1018203e800a00000000000000000000000000000000000000000000000000000000000000000880000000000000000f8d5f8d3800a830f424094d65de1a0cf00e412c07ee6c2ff811a2883de6bff64b8726000600060006000600073fb99a28ec724900c3af1b8a62c0a613da9ef77c7620186a05a03f17337f536464af59c8d7358cae965f92cbeadd58dcbff60006000600060006000730a85e7d90b61b35964a913370399e7ed517eddc1620186a05a03f1610005600081606d8239f3600160005526a05ac6b03d32c7de30f168d9c0a226e6b1de6edd22ee10bb4796cbb751fb388043a0180f3775d2cf62f902a3578af2e144019b9d6e52d2adb0d8c90056321e164ca0c0",
                "blocknumber": "1"
            }
        ],
        "sealEngine": "NoProof",
        "_info": {
            "hash": "0xe785186459274da07c969f69eddaf5fb6136580dc63b971d7bd94bb07a9a419e",
            "fixture-format": "blockchain_test",
            "comment": "`execution-specs` generated test",
            "filling-transition-tool": "2.19.0",
            "description": "Contract init code calls suicide then measures different metrics.",
            "url": "https://github.com/ethereum/execution-specs/blob/tests-sn\u00f8bal-devnet-4@v1.0.0/tests/frontier/create/test_create_suicide_during_init.py#L30",
            "metadata": {
                "opcode_count": {}
            }
        }
    },
    "tests/frontier/create/test_create_suicide_during_init.py::test_create_suicide_during_transaction_create[fork_Byzantium-create_opcode_CREATE-blockchain_test_from_state_test-operation_Operation.SUICIDE-transaction_create_True]": {
        "network": "Byzantium",
        "genesisBlockHeader": {
            "parentHash": "0x0000000000000000000000000000000000000000000000000000000000000000",
            "uncleHash": "0x1dcc4de8dec75d7aab85b567b6ccd41ad312451b948a7413f0a142fd40d49347",
            "coinbase": "0x0000000000000000000000000000000000000000",
            "stateRoot": "0x806cc660d2b12ce9cce9cc9160b5f206a89dc09604afd7f828c489ffa1b8fdb3",
            "transactionsTrie": "0x56e81f171bcc55a6ff8345e692c0f86e5b48e01b996cadc001622fb5e363b421",
            "receiptTrie": "0x56e81f171bcc55a6ff8345e692c0f86e5b48e01b996cadc001622fb5e363b421",
            "bloom": "0x00000000000000000000000000000000000000000000000000000000000000000000000000000000000000000000000000000000000000000000000000000000000000000000000000000000000000000000000000000000000000000000000000000000000000000000000000000000000000000000000000000000000000000000000000000000000000000000000000000000000000000000000000000000000000000000000000000000000000000000000000000000000000000000000000000000000000000000000000000000000000000000000000000000000000000000000000000000000000000000000000000000000000000000000000000000",
            "difficulty": "0x020000",
            "number": "0x00",
            "gasLimit": "0x07270e00",
            "gasUsed": "0x00",
            "timestamp": "0x00",
            "extraData": "0x00",
            "mixHash": "0x0000000000000000000000000000000000000000000000000000000000000000",
            "nonce": "0x0000000000000000",
            "hash": "0x6d7a934bddff63e7927d89702404d66853c8b7094c14857f7adad71ac7f6954d"
        },
        "pre": {
            "0x1ad9bc24818784172ff393bb6f89f094d4d2ca29": {
                "nonce": "0x00",
                "balance": "0x3635c9adc5dea00000",
                "code": "0x",
                "storage": {}
            },
            "0xd65de1a0cf00e412c07ee6c2ff811a2883de6bff": {
                "nonce": "0x01",
                "balance": "0x00",
                "code": "0x36600060003736600034f0",
                "storage": {}
            },
            "0xfb99a28ec724900c3af1b8a62c0a613da9ef77c7": {
                "nonce": "0x01",
                "balance": "0x00",
                "code": "0x6001600155",
                "storage": {}
            },
            "0x37f536464af59c8d7358cae965f92cbeadd58dcb": {
                "nonce": "0x01",
                "balance": "0x00",
                "code": "0x00",
                "storage": {}
            },
            "0x0a85e7d90b61b35964a913370399e7ed517eddc1": {
                "nonce": "0x01",
                "balance": "0x00",
                "code": "0x6001600155",
                "storage": {}
            }
        },
        "postState": {
            "0x1ad9bc24818784172ff393bb6f89f094d4d2ca29": {
                "nonce": "0x01",
                "balance": "0x3635c9adc5de969736",
                "code": "0x",
                "storage": {}
            },
            "0xd65de1a0cf00e412c07ee6c2ff811a2883de6bff": {
                "nonce": "0x01",
                "balance": "0x00",
                "code": "0x36600060003736600034f0",
                "storage": {}
            },
            "0xfb99a28ec724900c3af1b8a62c0a613da9ef77c7": {
                "nonce": "0x01",
                "balance": "0x00",
                "code": "0x6001600155",
                "storage": {
                    "0x01": "0x01"
                }
            },
            "0x37f536464af59c8d7358cae965f92cbeadd58dcb": {
                "nonce": "0x01",
                "balance": "0x64",
                "code": "0x00",
                "storage": {}
            },
            "0x0a85e7d90b61b35964a913370399e7ed517eddc1": {
                "nonce": "0x01",
                "balance": "0x00",
                "code": "0x6001600155",
                "storage": {}
            },
            "0x2adc25665018aa1fe0e6bc666dac8fc2697ff9ba": {
                "nonce": "0x00",
                "balance": "0x29a2241af6356866",
                "code": "0x",
                "storage": {}
            }
        },
        "lastblockhash": "0x9f496a803df498b163431895e63d845b5e4891909009e483a1be1ff33ccadb27",
        "config": {
            "network": "Byzantium",
            "chainid": "0x01"
        },
        "genesisRLP": "0xf901f9f901f4a00000000000000000000000000000000000000000000000000000000000000000a01dcc4de8dec75d7aab85b567b6ccd41ad312451b948a7413f0a142fd40d49347940000000000000000000000000000000000000000a0806cc660d2b12ce9cce9cc9160b5f206a89dc09604afd7f828c489ffa1b8fdb3a056e81f171bcc55a6ff8345e692c0f86e5b48e01b996cadc001622fb5e363b421a056e81f171bcc55a6ff8345e692c0f86e5b48e01b996cadc001622fb5e363b421b901000000000000000000000000000000000000000000000000000000000000000000000000000000000000000000000000000000000000000000000000000000000000000000000000000000000000000000000000000000000000000000000000000000000000000000000000000000000000000000000000000000000000000000000000000000000000000000000000000000000000000000000000000000000000000000000000000000000000000000000000000000000000000000000000000000000000000000000000000000000000000000000000000000000000000000000000000000000000000000000000000000000000000000000000000000000083020000808407270e00808000a00000000000000000000000000000000000000000000000000000000000000000880000000000000000c0c0",
        "blocks": [
            {
                "blockHeader": {
                    "parentHash": "0x6d7a934bddff63e7927d89702404d66853c8b7094c14857f7adad71ac7f6954d",
                    "uncleHash": "0x1dcc4de8dec75d7aab85b567b6ccd41ad312451b948a7413f0a142fd40d49347",
                    "coinbase": "0x2adc25665018aa1fe0e6bc666dac8fc2697ff9ba",
                    "stateRoot": "0x23a32fda4734c55cd49a034c1014ad8cf197d476069e677e16de9e243ea506a6",
                    "transactionsTrie": "0x18d2562a2560b4edaef1bcc525e5c62e736648fa5bf072aec556e00d83900a4b",
                    "receiptTrie": "0x50ee38ca521e024979397764fa734fbec869334ea92c8c2e42b656296d777d9c",
                    "bloom": "0x00000000000000000000000000000000000000000000000000000000000000000000000000000000000000000000000000000000000000000000000000000000000000000000000000000000000000000000000000000000000000000000000000000000000000000000000000000000000000000000000000000000000000000000000000000000000000000000000000000000000000000000000000000000000000000000000000000000000000000000000000000000000000000000000000000000000000000000000000000000000000000000000000000000000000000000000000000000000000000000000000000000000000000000000000000000",
                    "difficulty": "0x020000",
                    "number": "0x01",
                    "gasLimit": "0x07270e00",
                    "gasUsed": "0xf0d7",
                    "timestamp": "0x03e8",
                    "extraData": "0x00",
                    "mixHash": "0x0000000000000000000000000000000000000000000000000000000000000000",
                    "nonce": "0x0000000000000000",
                    "hash": "0x9f496a803df498b163431895e63d845b5e4891909009e483a1be1ff33ccadb27"
                },
                "transactions": [
                    {
                        "type": "0x00",
                        "chainId": "0x01",
                        "nonce": "0x00",
                        "gasPrice": "0x0a",
                        "gasLimit": "0x0f4240",
                        "value": "0x64",
                        "data": "0x6000600060006000600073fb99a28ec724900c3af1b8a62c0a613da9ef77c7620186a05a03f17337f536464af59c8d7358cae965f92cbeadd58dcbff60006000600060006000730a85e7d90b61b35964a913370399e7ed517eddc1620186a05a03f1610005600081606d8239f36001600055",
                        "v": "0x26",
                        "r": "0xe5e0b45c1d0fe8ee856561aa1b704a838367ce83fe92811adb45e2048947ef14",
                        "s": "0x3bbe16b9e472fe5022dd29c94ab46cf0735f4151d8b5e1f0ee7352a4acd49380",
                        "sender": "0x1ad9bc24818784172ff393bb6f89f094d4d2ca29",
                        "to": ""
                    }
                ],
                "uncleHeaders": [],
                "receipts": [
                    {
                        "transactionHash": "0x207627115ced7cd47c760b498ab4ad09fbd204b541a1c2978eec23466230ca1f",
                        "type": "0x00",
                        "cumulativeGasUsed": "0xf0d7",
                        "bloom": "0x00000000000000000000000000000000000000000000000000000000000000000000000000000000000000000000000000000000000000000000000000000000000000000000000000000000000000000000000000000000000000000000000000000000000000000000000000000000000000000000000000000000000000000000000000000000000000000000000000000000000000000000000000000000000000000000000000000000000000000000000000000000000000000000000000000000000000000000000000000000000000000000000000000000000000000000000000000000000000000000000000000000000000000000000000000000",
                        "logs": [],
                        "status": true,
                        "rlp": "0xf901080182f0d7b9010000000000000000000000000000000000000000000000000000000000000000000000000000000000000000000000000000000000000000000000000000000000000000000000000000000000000000000000000000000000000000000000000000000000000000000000000000000000000000000000000000000000000000000000000000000000000000000000000000000000000000000000000000000000000000000000000000000000000000000000000000000000000000000000000000000000000000000000000000000000000000000000000000000000000000000000000000000000000000000000000000000000000000000000000000000000c0"
                    }
                ],
                "rlp": "0xf902bff901f8a06d7a934bddff63e7927d89702404d66853c8b7094c14857f7adad71ac7f6954da01dcc4de8dec75d7aab85b567b6ccd41ad312451b948a7413f0a142fd40d49347942adc25665018aa1fe0e6bc666dac8fc2697ff9baa023a32fda4734c55cd49a034c1014ad8cf197d476069e677e16de9e243ea506a6a018d2562a2560b4edaef1bcc525e5c62e736648fa5bf072aec556e00d83900a4ba050ee38ca521e024979397764fa734fbec869334ea92c8c2e42b656296d777d9cb901000000000000000000000000000000000000000000000000000000000000000000000000000000000000000000000000000000000000000000000000000000000000000000000000000000000000000000000000000000000000000000000000000000000000000000000000000000000000000000000000000000000000000000000000000000000000000000000000000000000000000000000000000000000000000000000000000000000000000000000000000000000000000000000000000000000000000000000000000000000000000000000000000000000000000000000000000000000000000000000000000000000000000000000000000000000083020000018407270e0082f0d78203e800a00000000000000000000000000000000000000000000000000000000000000000880000000000000000f8c1f8bf800a830f42408064b8726000600060006000600073fb99a28ec724900c3af1b8a62c0a613da9ef77c7620186a05a03f17337f536464af59c8d7358cae965f92cbeadd58dcbff60006000600060006000730a85e7d90b61b35964a913370399e7ed517eddc1620186a05a03f1610005600081606d8239f3600160005526a0e5e0b45c1d0fe8ee856561aa1b704a838367ce83fe92811adb45e2048947ef14a03bbe16b9e472fe5022dd29c94ab46cf0735f4151d8b5e1f0ee7352a4acd49380c0",
                "blocknumber": "1"
            }
        ],
        "sealEngine": "NoProof",
        "_info": {
            "hash": "0x45d90d36f9727ee7c8cbf78b7b22c9409bcb5949a630f415fcf5eb702ba6b4c1",
            "fixture-format": "blockchain_test",
            "comment": "`execution-specs` generated test",
            "filling-transition-tool": "2.19.0",
            "description": "Contract init code calls suicide then measures different metrics.",
            "url": "https://github.com/ethereum/execution-specs/blob/tests-sn\u00f8bal-devnet-4@v1.0.0/tests/frontier/create/test_create_suicide_during_init.py#L30",
            "metadata": {
                "opcode_count": {}
            }
        }
    },
    "tests/frontier/create/test_create_suicide_during_init.py::test_create_suicide_during_transaction_create[fork_Byzantium-create_opcode_CREATE-blockchain_test_from_state_test-operation_Operation.SUICIDE_TO_ITSELF-transaction_create_False]": {
        "network": "Byzantium",
        "genesisBlockHeader": {
            "parentHash": "0x0000000000000000000000000000000000000000000000000000000000000000",
            "uncleHash": "0x1dcc4de8dec75d7aab85b567b6ccd41ad312451b948a7413f0a142fd40d49347",
            "coinbase": "0x0000000000000000000000000000000000000000",
            "stateRoot": "0x806cc660d2b12ce9cce9cc9160b5f206a89dc09604afd7f828c489ffa1b8fdb3",
            "transactionsTrie": "0x56e81f171bcc55a6ff8345e692c0f86e5b48e01b996cadc001622fb5e363b421",
            "receiptTrie": "0x56e81f171bcc55a6ff8345e692c0f86e5b48e01b996cadc001622fb5e363b421",
            "bloom": "0x00000000000000000000000000000000000000000000000000000000000000000000000000000000000000000000000000000000000000000000000000000000000000000000000000000000000000000000000000000000000000000000000000000000000000000000000000000000000000000000000000000000000000000000000000000000000000000000000000000000000000000000000000000000000000000000000000000000000000000000000000000000000000000000000000000000000000000000000000000000000000000000000000000000000000000000000000000000000000000000000000000000000000000000000000000000",
            "difficulty": "0x020000",
            "number": "0x00",
            "gasLimit": "0x07270e00",
            "gasUsed": "0x00",
            "timestamp": "0x00",
            "extraData": "0x00",
            "mixHash": "0x0000000000000000000000000000000000000000000000000000000000000000",
            "nonce": "0x0000000000000000",
            "hash": "0x6d7a934bddff63e7927d89702404d66853c8b7094c14857f7adad71ac7f6954d"
        },
        "pre": {
            "0x1ad9bc24818784172ff393bb6f89f094d4d2ca29": {
                "nonce": "0x00",
                "balance": "0x3635c9adc5dea00000",
                "code": "0x",
                "storage": {}
            },
            "0xd65de1a0cf00e412c07ee6c2ff811a2883de6bff": {
                "nonce": "0x01",
                "balance": "0x00",
                "code": "0x36600060003736600034f0",
                "storage": {}
            },
            "0xfb99a28ec724900c3af1b8a62c0a613da9ef77c7": {
                "nonce": "0x01",
                "balance": "0x00",
                "code": "0x6001600155",
                "storage": {}
            },
            "0x37f536464af59c8d7358cae965f92cbeadd58dcb": {
                "nonce": "0x01",
                "balance": "0x00",
                "code": "0x00",
                "storage": {}
            },
            "0x0a85e7d90b61b35964a913370399e7ed517eddc1": {
                "nonce": "0x01",
                "balance": "0x00",
                "code": "0x6001600155",
                "storage": {}
            }
        },
        "postState": {
            "0x1ad9bc24818784172ff393bb6f89f094d4d2ca29": {
                "nonce": "0x01",
                "balance": "0x3635c9adc5de96caf8",
                "code": "0x",
                "storage": {}
            },
            "0xd65de1a0cf00e412c07ee6c2ff811a2883de6bff": {
                "nonce": "0x02",
                "balance": "0x00",
                "code": "0x36600060003736600034f0",
                "storage": {}
            },
            "0xfb99a28ec724900c3af1b8a62c0a613da9ef77c7": {
                "nonce": "0x01",
                "balance": "0x00",
                "code": "0x6001600155",
                "storage": {
                    "0x01": "0x01"
                }
            },
            "0x37f536464af59c8d7358cae965f92cbeadd58dcb": {
                "nonce": "0x01",
                "balance": "0x00",
                "code": "0x00",
                "storage": {}
            },
            "0x0a85e7d90b61b35964a913370399e7ed517eddc1": {
                "nonce": "0x01",
                "balance": "0x00",
                "code": "0x6001600155",
                "storage": {}
            },
            "0x2adc25665018aa1fe0e6bc666dac8fc2697ff9ba": {
                "nonce": "0x00",
                "balance": "0x29a2241af63534a4",
                "code": "0x",
                "storage": {}
            }
        },
        "lastblockhash": "0x3070fe1a53bde2d7d221a94c60843953fa1cf9c547b68571d6558c63877f0157",
        "config": {
            "network": "Byzantium",
            "chainid": "0x01"
        },
        "genesisRLP": "0xf901f9f901f4a00000000000000000000000000000000000000000000000000000000000000000a01dcc4de8dec75d7aab85b567b6ccd41ad312451b948a7413f0a142fd40d49347940000000000000000000000000000000000000000a0806cc660d2b12ce9cce9cc9160b5f206a89dc09604afd7f828c489ffa1b8fdb3a056e81f171bcc55a6ff8345e692c0f86e5b48e01b996cadc001622fb5e363b421a056e81f171bcc55a6ff8345e692c0f86e5b48e01b996cadc001622fb5e363b421b901000000000000000000000000000000000000000000000000000000000000000000000000000000000000000000000000000000000000000000000000000000000000000000000000000000000000000000000000000000000000000000000000000000000000000000000000000000000000000000000000000000000000000000000000000000000000000000000000000000000000000000000000000000000000000000000000000000000000000000000000000000000000000000000000000000000000000000000000000000000000000000000000000000000000000000000000000000000000000000000000000000000000000000000000000000000083020000808407270e00808000a00000000000000000000000000000000000000000000000000000000000000000880000000000000000c0c0",
        "blocks": [
            {
                "blockHeader": {
                    "parentHash": "0x6d7a934bddff63e7927d89702404d66853c8b7094c14857f7adad71ac7f6954d",
                    "uncleHash": "0x1dcc4de8dec75d7aab85b567b6ccd41ad312451b948a7413f0a142fd40d49347",
                    "coinbase": "0x2adc25665018aa1fe0e6bc666dac8fc2697ff9ba",
                    "stateRoot": "0x5e1f317126067057131732fc2f6a115b635eabda1e7496de44ae0935c9afbeec",
                    "transactionsTrie": "0xe9ddcd1647b8fd5a3e56a1d3a0412565814a0e8f9b277dec8b0520bf703c0ec3",
                    "receiptTrie": "0x7f499b7e1f1f78f2280da47607e9e44296de443b4bc673e99fe4443197d36802",
                    "bloom": "0x00000000000000000000000000000000000000000000000000000000000000000000000000000000000000000000000000000000000000000000000000000000000000000000000000000000000000000000000000000000000000000000000000000000000000000000000000000000000000000000000000000000000000000000000000000000000000000000000000000000000000000000000000000000000000000000000000000000000000000000000000000000000000000000000000000000000000000000000000000000000000000000000000000000000000000000000000000000000000000000000000000000000000000000000000000000",
                    "difficulty": "0x020000",
                    "number": "0x01",
                    "gasLimit": "0x07270e00",
                    "gasUsed": "0xebaa",
                    "timestamp": "0x03e8",
                    "extraData": "0x00",
                    "mixHash": "0x0000000000000000000000000000000000000000000000000000000000000000",
                    "nonce": "0x0000000000000000",
                    "hash": "0x3070fe1a53bde2d7d221a94c60843953fa1cf9c547b68571d6558c63877f0157"
                },
                "transactions": [
                    {
                        "type": "0x00",
                        "chainId": "0x01",
                        "nonce": "0x00",
                        "gasPrice": "0x0a",
                        "gasLimit": "0x0f4240",
                        "to": "0xd65de1a0cf00e412c07ee6c2ff811a2883de6bff",
                        "value": "0x64",
                        "data": "0x6000600060006000600073fb99a28ec724900c3af1b8a62c0a613da9ef77c7620186a05a03f130ff60006000600060006000730a85e7d90b61b35964a913370399e7ed517eddc1620186a05a03f161000560008160598239f36001600055",
                        "v": "0x25",
                        "r": "0x0d3f0498a443c42b6a2826f0a630f2bb64ac4253d7933c099688844d192bcd72",
                        "s": "0x23af60f02c7eec37ae19ead2d2e95570fd9d893231a4bb4d6092f370f4f742be",
                        "sender": "0x1ad9bc24818784172ff393bb6f89f094d4d2ca29"
                    }
                ],
                "uncleHeaders": [],
                "receipts": [
                    {
                        "transactionHash": "0x61988ec87b2fa9913e82b55317a56c5427de04c29accf38519589206cece50c0",
                        "type": "0x00",
                        "cumulativeGasUsed": "0xebaa",
                        "bloom": "0x00000000000000000000000000000000000000000000000000000000000000000000000000000000000000000000000000000000000000000000000000000000000000000000000000000000000000000000000000000000000000000000000000000000000000000000000000000000000000000000000000000000000000000000000000000000000000000000000000000000000000000000000000000000000000000000000000000000000000000000000000000000000000000000000000000000000000000000000000000000000000000000000000000000000000000000000000000000000000000000000000000000000000000000000000000000",
                        "logs": [],
                        "status": true,
                        "rlp": "0xf901080182ebaab9010000000000000000000000000000000000000000000000000000000000000000000000000000000000000000000000000000000000000000000000000000000000000000000000000000000000000000000000000000000000000000000000000000000000000000000000000000000000000000000000000000000000000000000000000000000000000000000000000000000000000000000000000000000000000000000000000000000000000000000000000000000000000000000000000000000000000000000000000000000000000000000000000000000000000000000000000000000000000000000000000000000000000000000000000000000000c0"
                    }
                ],
                "rlp": "0xf902bff901f8a06d7a934bddff63e7927d89702404d66853c8b7094c14857f7adad71ac7f6954da01dcc4de8dec75d7aab85b567b6ccd41ad312451b948a7413f0a142fd40d49347942adc25665018aa1fe0e6bc666dac8fc2697ff9baa05e1f317126067057131732fc2f6a115b635eabda1e7496de44ae0935c9afbeeca0e9ddcd1647b8fd5a3e56a1d3a0412565814a0e8f9b277dec8b0520bf703c0ec3a07f499b7e1f1f78f2280da47607e9e44296de443b4bc673e99fe4443197d36802b901000000000000000000000000000000000000000000000000000000000000000000000000000000000000000000000000000000000000000000000000000000000000000000000000000000000000000000000000000000000000000000000000000000000000000000000000000000000000000000000000000000000000000000000000000000000000000000000000000000000000000000000000000000000000000000000000000000000000000000000000000000000000000000000000000000000000000000000000000000000000000000000000000000000000000000000000000000000000000000000000000000000000000000000000000000000083020000018407270e0082ebaa8203e800a00000000000000000000000000000000000000000000000000000000000000000880000000000000000f8c1f8bf800a830f424094d65de1a0cf00e412c07ee6c2ff811a2883de6bff64b85e6000600060006000600073fb99a28ec724900c3af1b8a62c0a613da9ef77c7620186a05a03f130ff60006000600060006000730a85e7d90b61b35964a913370399e7ed517eddc1620186a05a03f161000560008160598239f3600160005525a00d3f0498a443c42b6a2826f0a630f2bb64ac4253d7933c099688844d192bcd72a023af60f02c7eec37ae19ead2d2e95570fd9d893231a4bb4d6092f370f4f742bec0",
                "blocknumber": "1"
            }
        ],
        "sealEngine": "NoProof",
        "_info": {
            "hash": "0x06a5203962813aa49ea2712f0a90fe016491b41159a91579b9716c248467479e",
            "fixture-format": "blockchain_test",
            "comment": "`execution-specs` generated test",
            "filling-transition-tool": "2.19.0",
            "description": "Contract init code calls suicide then measures different metrics.",
            "url": "https://github.com/ethereum/execution-specs/blob/tests-sn\u00f8bal-devnet-4@v1.0.0/tests/frontier/create/test_create_suicide_during_init.py#L30",
            "metadata": {
                "opcode_count": {}
            }
        }
    },
    "tests/frontier/create/test_create_suicide_during_init.py::test_create_suicide_during_transaction_create[fork_Byzantium-create_opcode_CREATE-blockchain_test_from_state_test-operation_Operation.SUICIDE_TO_ITSELF-transaction_create_True]": {
        "network": "Byzantium",
        "genesisBlockHeader": {
            "parentHash": "0x0000000000000000000000000000000000000000000000000000000000000000",
            "uncleHash": "0x1dcc4de8dec75d7aab85b567b6ccd41ad312451b948a7413f0a142fd40d49347",
            "coinbase": "0x0000000000000000000000000000000000000000",
            "stateRoot": "0x806cc660d2b12ce9cce9cc9160b5f206a89dc09604afd7f828c489ffa1b8fdb3",
            "transactionsTrie": "0x56e81f171bcc55a6ff8345e692c0f86e5b48e01b996cadc001622fb5e363b421",
            "receiptTrie": "0x56e81f171bcc55a6ff8345e692c0f86e5b48e01b996cadc001622fb5e363b421",
            "bloom": "0x00000000000000000000000000000000000000000000000000000000000000000000000000000000000000000000000000000000000000000000000000000000000000000000000000000000000000000000000000000000000000000000000000000000000000000000000000000000000000000000000000000000000000000000000000000000000000000000000000000000000000000000000000000000000000000000000000000000000000000000000000000000000000000000000000000000000000000000000000000000000000000000000000000000000000000000000000000000000000000000000000000000000000000000000000000000",
            "difficulty": "0x020000",
            "number": "0x00",
            "gasLimit": "0x07270e00",
            "gasUsed": "0x00",
            "timestamp": "0x00",
            "extraData": "0x00",
            "mixHash": "0x0000000000000000000000000000000000000000000000000000000000000000",
            "nonce": "0x0000000000000000",
            "hash": "0x6d7a934bddff63e7927d89702404d66853c8b7094c14857f7adad71ac7f6954d"
        },
        "pre": {
            "0x1ad9bc24818784172ff393bb6f89f094d4d2ca29": {
                "nonce": "0x00",
                "balance": "0x3635c9adc5dea00000",
                "code": "0x",
                "storage": {}
            },
            "0xd65de1a0cf00e412c07ee6c2ff811a2883de6bff": {
                "nonce": "0x01",
                "balance": "0x00",
                "code": "0x36600060003736600034f0",
                "storage": {}
            },
            "0xfb99a28ec724900c3af1b8a62c0a613da9ef77c7": {
                "nonce": "0x01",
                "balance": "0x00",
                "code": "0x6001600155",
                "storage": {}
            },
            "0x37f536464af59c8d7358cae965f92cbeadd58dcb": {
                "nonce": "0x01",
                "balance": "0x00",
                "code": "0x00",
                "storage": {}
            },
            "0x0a85e7d90b61b35964a913370399e7ed517eddc1": {
                "nonce": "0x01",
                "balance": "0x00",
                "code": "0x6001600155",
                "storage": {}
            }
        },
        "postState": {
            "0x1ad9bc24818784172ff393bb6f89f094d4d2ca29": {
                "nonce": "0x01",
                "balance": "0x3635c9adc5de96cc60",
                "code": "0x",
                "storage": {}
            },
            "0xd65de1a0cf00e412c07ee6c2ff811a2883de6bff": {
                "nonce": "0x01",
                "balance": "0x00",
                "code": "0x36600060003736600034f0",
                "storage": {}
            },
            "0xfb99a28ec724900c3af1b8a62c0a613da9ef77c7": {
                "nonce": "0x01",
                "balance": "0x00",
                "code": "0x6001600155",
                "storage": {
                    "0x01": "0x01"
                }
            },
            "0x37f536464af59c8d7358cae965f92cbeadd58dcb": {
                "nonce": "0x01",
                "balance": "0x00",
                "code": "0x00",
                "storage": {}
            },
            "0x0a85e7d90b61b35964a913370399e7ed517eddc1": {
                "nonce": "0x01",
                "balance": "0x00",
                "code": "0x6001600155",
                "storage": {}
            },
            "0x2adc25665018aa1fe0e6bc666dac8fc2697ff9ba": {
                "nonce": "0x00",
                "balance": "0x29a2241af635333c",
                "code": "0x",
                "storage": {}
            }
        },
        "lastblockhash": "0x69d9a5af35becee13eee9649453a03c151f512c920829834191bbb3266562e35",
        "config": {
            "network": "Byzantium",
            "chainid": "0x01"
        },
        "genesisRLP": "0xf901f9f901f4a00000000000000000000000000000000000000000000000000000000000000000a01dcc4de8dec75d7aab85b567b6ccd41ad312451b948a7413f0a142fd40d49347940000000000000000000000000000000000000000a0806cc660d2b12ce9cce9cc9160b5f206a89dc09604afd7f828c489ffa1b8fdb3a056e81f171bcc55a6ff8345e692c0f86e5b48e01b996cadc001622fb5e363b421a056e81f171bcc55a6ff8345e692c0f86e5b48e01b996cadc001622fb5e363b421b901000000000000000000000000000000000000000000000000000000000000000000000000000000000000000000000000000000000000000000000000000000000000000000000000000000000000000000000000000000000000000000000000000000000000000000000000000000000000000000000000000000000000000000000000000000000000000000000000000000000000000000000000000000000000000000000000000000000000000000000000000000000000000000000000000000000000000000000000000000000000000000000000000000000000000000000000000000000000000000000000000000000000000000000000000000000083020000808407270e00808000a00000000000000000000000000000000000000000000000000000000000000000880000000000000000c0c0",
        "blocks": [
            {
                "blockHeader": {
                    "parentHash": "0x6d7a934bddff63e7927d89702404d66853c8b7094c14857f7adad71ac7f6954d",
                    "uncleHash": "0x1dcc4de8dec75d7aab85b567b6ccd41ad312451b948a7413f0a142fd40d49347",
                    "coinbase": "0x2adc25665018aa1fe0e6bc666dac8fc2697ff9ba",
                    "stateRoot": "0x249671c36e17c794aa6f52ba24a61d134b2cce43a503959c8329612874b587eb",
                    "transactionsTrie": "0xe291922d62bbf6da5ca993f83b422dd33ef3fb3ac345aa47fada1d67cac58292",
                    "receiptTrie": "0x4e9ca82aa0a202001d42af42eddae2c795e9213322c17089ea32a71020eb7821",
                    "bloom": "0x00000000000000000000000000000000000000000000000000000000000000000000000000000000000000000000000000000000000000000000000000000000000000000000000000000000000000000000000000000000000000000000000000000000000000000000000000000000000000000000000000000000000000000000000000000000000000000000000000000000000000000000000000000000000000000000000000000000000000000000000000000000000000000000000000000000000000000000000000000000000000000000000000000000000000000000000000000000000000000000000000000000000000000000000000000000",
                    "difficulty": "0x020000",
                    "number": "0x01",
                    "gasLimit": "0x07270e00",
                    "gasUsed": "0xeb86",
                    "timestamp": "0x03e8",
                    "extraData": "0x00",
                    "mixHash": "0x0000000000000000000000000000000000000000000000000000000000000000",
                    "nonce": "0x0000000000000000",
                    "hash": "0x69d9a5af35becee13eee9649453a03c151f512c920829834191bbb3266562e35"
                },
                "transactions": [
                    {
                        "type": "0x00",
                        "chainId": "0x01",
                        "nonce": "0x00",
                        "gasPrice": "0x0a",
                        "gasLimit": "0x0f4240",
                        "value": "0x64",
                        "data": "0x6000600060006000600073fb99a28ec724900c3af1b8a62c0a613da9ef77c7620186a05a03f130ff60006000600060006000730a85e7d90b61b35964a913370399e7ed517eddc1620186a05a03f161000560008160598239f36001600055",
                        "v": "0x26",
                        "r": "0x09acc437c6b567c116cf7317de1e34d03486d7b760cc90e4d7cf484aeaad0fa0",
                        "s": "0x33c7320a548185b447fd55b1c4a122a92b2727aef3fa4a018ad878ed00ca855b",
                        "sender": "0x1ad9bc24818784172ff393bb6f89f094d4d2ca29",
                        "to": ""
                    }
                ],
                "uncleHeaders": [],
                "receipts": [
                    {
                        "transactionHash": "0x2c3a1e540d090d039b6fdaa3f2b404ea9c3369523102411b172837492811d58c",
                        "type": "0x00",
                        "cumulativeGasUsed": "0xeb86",
                        "bloom": "0x00000000000000000000000000000000000000000000000000000000000000000000000000000000000000000000000000000000000000000000000000000000000000000000000000000000000000000000000000000000000000000000000000000000000000000000000000000000000000000000000000000000000000000000000000000000000000000000000000000000000000000000000000000000000000000000000000000000000000000000000000000000000000000000000000000000000000000000000000000000000000000000000000000000000000000000000000000000000000000000000000000000000000000000000000000000",
                        "logs": [],
                        "status": true,
                        "rlp": "0xf901080182eb86b9010000000000000000000000000000000000000000000000000000000000000000000000000000000000000000000000000000000000000000000000000000000000000000000000000000000000000000000000000000000000000000000000000000000000000000000000000000000000000000000000000000000000000000000000000000000000000000000000000000000000000000000000000000000000000000000000000000000000000000000000000000000000000000000000000000000000000000000000000000000000000000000000000000000000000000000000000000000000000000000000000000000000000000000000000000000000c0"
                    }
                ],
                "rlp": "0xf902abf901f8a06d7a934bddff63e7927d89702404d66853c8b7094c14857f7adad71ac7f6954da01dcc4de8dec75d7aab85b567b6ccd41ad312451b948a7413f0a142fd40d49347942adc25665018aa1fe0e6bc666dac8fc2697ff9baa0249671c36e17c794aa6f52ba24a61d134b2cce43a503959c8329612874b587eba0e291922d62bbf6da5ca993f83b422dd33ef3fb3ac345aa47fada1d67cac58292a04e9ca82aa0a202001d42af42eddae2c795e9213322c17089ea32a71020eb7821b901000000000000000000000000000000000000000000000000000000000000000000000000000000000000000000000000000000000000000000000000000000000000000000000000000000000000000000000000000000000000000000000000000000000000000000000000000000000000000000000000000000000000000000000000000000000000000000000000000000000000000000000000000000000000000000000000000000000000000000000000000000000000000000000000000000000000000000000000000000000000000000000000000000000000000000000000000000000000000000000000000000000000000000000000000000000083020000018407270e0082eb868203e800a00000000000000000000000000000000000000000000000000000000000000000880000000000000000f8adf8ab800a830f42408064b85e6000600060006000600073fb99a28ec724900c3af1b8a62c0a613da9ef77c7620186a05a03f130ff60006000600060006000730a85e7d90b61b35964a913370399e7ed517eddc1620186a05a03f161000560008160598239f3600160005526a009acc437c6b567c116cf7317de1e34d03486d7b760cc90e4d7cf484aeaad0fa0a033c7320a548185b447fd55b1c4a122a92b2727aef3fa4a018ad878ed00ca855bc0",
                "blocknumber": "1"
            }
        ],
        "sealEngine": "NoProof",
        "_info": {
            "hash": "0x8a8e744fd61efe6fdad7a2fb9c1ac3bd7b3d1ec38623610e6846a1268e93d5da",
            "fixture-format": "blockchain_test",
            "comment": "`execution-specs` generated test",
            "filling-transition-tool": "2.19.0",
            "description": "Contract init code calls suicide then measures different metrics.",
            "url": "https://github.com/ethereum/execution-specs/blob/tests-sn\u00f8bal-devnet-4@v1.0.0/tests/frontier/create/test_create_suicide_during_init.py#L30",
            "metadata": {
                "opcode_count": {}
            }
        }
    }
}