{
    "tests/static/state_tests/Cancun/stEIP1153_transientStorage/17_tstoreGasFiller.yml::17_tstoreGas[fork_Cancun-state_test-]": {
        "env": {
            "currentCoinbase": "0x2adc25665018aa1fe0e6bc666dac8fc2697ff9ba",
            "currentGasLimit": "0x10000000000000",
            "currentNumber": "0x01",
            "currentTimestamp": "0x03e8",
            "currentRandom": "0x0000000000000000000000000000000000000000000000000000000000020000",
            "currentDifficulty": "0x00",
            "currentBaseFee": "0x0a",
            "currentExcessBlobGas": "0x00"
        },
        "pre": {
            "0xd57e229e3e4f14e04d5a080bee0755328b2da024": {
                "nonce": "0x00",
                "balance": "0x3635c9adc5dea00000",
                "code": "0x",
                "storage": {}
            },
            "0x036a8052a6b6cc6ad6e1bf702b78ecd910e8536a": {
                "nonce": "0x00",
                "balance": "0x0de0b6b3a7640000",
                "code": "0x60075a60035f5d5a90030360015500",
                "storage": {}
            }
        },
        "transaction": {
            "nonce": "0x00",
            "maxPriorityFeePerGas": "0x00",
            "maxFeePerGas": "0x07d0",
            "gasLimit": [
                "0x061a80"
            ],
            "to": "0x036a8052a6b6cc6ad6e1bf702b78ecd910e8536a",
            "value": [
                "0x00"
            ],
            "data": [
                "0x"
            ],
            "accessLists": [
                []
            ],
            "sender": "0xd57e229e3e4f14e04d5a080bee0755328b2da024",
            "secretKey": "0xb4f4cc34c7d3f1a634f1c0d1036a8052a6b6cc6ad6e1bf702b78ecd910e8536a"
        },
        "post": {
            "Cancun": [
                {
                    "hash": "0xb9e100253042b00aa966b722f6017f627076e5edf25cb781106a7232ac026ef7",
                    "logs": "0x1dcc4de8dec75d7aab85b567b6ccd41ad312451b948a7413f0a142fd40d49347",
                    "txbytes": "0x02f8650180808207d083061a8094036a8052a6b6cc6ad6e1bf702b78ecd910e8536a8080c001a021b0b913bbe6d3a812a63622525efc138587f6c30870af0147c4023780d2d354a06f85ac383e323936745603d298f9d7ddb5125bdcc26654034134657811f78165",
                    "indexes": {
                        "data": 0,
                        "gas": 0,
                        "value": 0
                    },
                    "state": {
                        "0xd57e229e3e4f14e04d5a080bee0755328b2da024": {
                            "nonce": "0x01",
                            "balance": "0x3635c9adc5de996790",
                            "code": "0x",
                            "storage": {}
                        },
                        "0x036a8052a6b6cc6ad6e1bf702b78ecd910e8536a": {
                            "nonce": "0x00",
                            "balance": "0x0de0b6b3a7640000",
                            "code": "0x60075a60035f5d5a90030360015500",
                            "storage": {
                                "0x01": "0x64"
                            }
                        }
                    }
                }
            ]
        },
        "config": {
            "blobSchedule": {
                "Cancun": {
                    "target": "0x03",
                    "max": "0x06",
                    "baseFeeUpdateFraction": "0x32f0ed"
                }
            },
            "chainid": "0x01"
        },
        "_info": {
            "hash": "0xf0f0a1cdd810c7c531de31b5c10ab8be4fd0ee6b686b416fbf4a864d882f3695",
            "comment": "`execution-specs` generated test",
            "filling-transition-tool": "2.18.0rc6",
            "description": "No description available - add a docstring to the python test class or function.",
            "url": "",
            "fixture-format": "state_test",
            "reference-spec": "https://github.com/ethereum/EIPs/blob/master/",
            "reference-spec-version": ""
        }
    },
    "tests/static/state_tests/Cancun/stEIP1153_transientStorage/17_tstoreGasFiller.yml::17_tstoreGas[fork_Osaka-state_test-]": {
        "env": {
            "currentCoinbase": "0x2adc25665018aa1fe0e6bc666dac8fc2697ff9ba",
            "currentGasLimit": "0x10000000000000",
            "currentNumber": "0x01",
            "currentTimestamp": "0x03e8",
            "currentRandom": "0x0000000000000000000000000000000000000000000000000000000000020000",
            "currentDifficulty": "0x00",
            "currentBaseFee": "0x0a",
            "currentExcessBlobGas": "0x00"
        },
        "pre": {
            "0xd57e229e3e4f14e04d5a080bee0755328b2da024": {
                "nonce": "0x00",
                "balance": "0x3635c9adc5dea00000",
                "code": "0x",
                "storage": {}
            },
            "0x036a8052a6b6cc6ad6e1bf702b78ecd910e8536a": {
                "nonce": "0x00",
                "balance": "0x0de0b6b3a7640000",
                "code": "0x60075a60035f5d5a90030360015500",
                "storage": {}
            }
        },
        "transaction": {
            "nonce": "0x00",
            "maxPriorityFeePerGas": "0x00",
            "maxFeePerGas": "0x07d0",
            "gasLimit": [
                "0x061a80"
            ],
            "to": "0x036a8052a6b6cc6ad6e1bf702b78ecd910e8536a",
            "value": [
                "0x00"
            ],
            "data": [
                "0x"
            ],
            "accessLists": [
                []
            ],
            "sender": "0xd57e229e3e4f14e04d5a080bee0755328b2da024",
            "secretKey": "0xb4f4cc34c7d3f1a634f1c0d1036a8052a6b6cc6ad6e1bf702b78ecd910e8536a"
        },
        "post": {
            "Osaka": [
                {
                    "hash": "0xb9e100253042b00aa966b722f6017f627076e5edf25cb781106a7232ac026ef7",
                    "logs": "0x1dcc4de8dec75d7aab85b567b6ccd41ad312451b948a7413f0a142fd40d49347",
                    "txbytes": "0x02f8650180808207d083061a8094036a8052a6b6cc6ad6e1bf702b78ecd910e8536a8080c001a021b0b913bbe6d3a812a63622525efc138587f6c30870af0147c4023780d2d354a06f85ac383e323936745603d298f9d7ddb5125bdcc26654034134657811f78165",
                    "indexes": {
                        "data": 0,
                        "gas": 0,
                        "value": 0
                    },
                    "state": {
                        "0xd57e229e3e4f14e04d5a080bee0755328b2da024": {
                            "nonce": "0x01",
                            "balance": "0x3635c9adc5de996790",
                            "code": "0x",
                            "storage": {}
                        },
                        "0x036a8052a6b6cc6ad6e1bf702b78ecd910e8536a": {
                            "nonce": "0x00",
                            "balance": "0x0de0b6b3a7640000",
                            "code": "0x60075a60035f5d5a90030360015500",
                            "storage": {
                                "0x01": "0x64"
                            }
                        }
                    }
                }
            ]
        },
        "config": {
            "blobSchedule": {
                "Cancun": {
                    "target": "0x03",
                    "max": "0x06",
                    "baseFeeUpdateFraction": "0x32f0ed"
                },
                "Prague": {
                    "target": "0x06",
                    "max": "0x09",
                    "baseFeeUpdateFraction": "0x4c6964"
                },
                "Osaka": {
                    "target": "0x06",
                    "max": "0x09",
                    "baseFeeUpdateFraction": "0x4c6964"
                }
            },
            "chainid": "0x01"
        },
        "_info": {
            "hash": "0x6df3ff5cd2288c516ce77516561688f25d08e8bb745259a70e1270f3548e9543",
            "comment": "`execution-specs` generated test",
            "filling-transition-tool": "2.18.0rc6",
            "description": "No description available - add a docstring to the python test class or function.",
            "url": "",
            "fixture-format": "state_test",
            "reference-spec": "https://github.com/ethereum/EIPs/blob/master/",
            "reference-spec-version": ""
        }
    },
    "tests/static/state_tests/Cancun/stEIP1153_transientStorage/17_tstoreGasFiller.yml::17_tstoreGas[fork_Prague-state_test-]": {
        "env": {
            "currentCoinbase": "0x2adc25665018aa1fe0e6bc666dac8fc2697ff9ba",
            "currentGasLimit": "0x10000000000000",
            "currentNumber": "0x01",
            "currentTimestamp": "0x03e8",
            "currentRandom": "0x0000000000000000000000000000000000000000000000000000000000020000",
            "currentDifficulty": "0x00",
            "currentBaseFee": "0x0a",
            "currentExcessBlobGas": "0x00"
        },
        "pre": {
            "0xd57e229e3e4f14e04d5a080bee0755328b2da024": {
                "nonce": "0x00",
                "balance": "0x3635c9adc5dea00000",
                "code": "0x",
                "storage": {}
            },
            "0x036a8052a6b6cc6ad6e1bf702b78ecd910e8536a": {
                "nonce": "0x00",
                "balance": "0x0de0b6b3a7640000",
                "code": "0x60075a60035f5d5a90030360015500",
                "storage": {}
            }
        },
        "transaction": {
            "nonce": "0x00",
            "maxPriorityFeePerGas": "0x00",
            "maxFeePerGas": "0x07d0",
            "gasLimit": [
                "0x061a80"
            ],
            "to": "0x036a8052a6b6cc6ad6e1bf702b78ecd910e8536a",
            "value": [
                "0x00"
            ],
            "data": [
                "0x"
            ],
            "accessLists": [
                []
            ],
            "sender": "0xd57e229e3e4f14e04d5a080bee0755328b2da024",
            "secretKey": "0xb4f4cc34c7d3f1a634f1c0d1036a8052a6b6cc6ad6e1bf702b78ecd910e8536a"
        },
        "post": {
            "Prague": [
                {
                    "hash": "0xb9e100253042b00aa966b722f6017f627076e5edf25cb781106a7232ac026ef7",
                    "logs": "0x1dcc4de8dec75d7aab85b567b6ccd41ad312451b948a7413f0a142fd40d49347",
                    "txbytes": "0x02f8650180808207d083061a8094036a8052a6b6cc6ad6e1bf702b78ecd910e8536a8080c001a021b0b913bbe6d3a812a63622525efc138587f6c30870af0147c4023780d2d354a06f85ac383e323936745603d298f9d7ddb5125bdcc26654034134657811f78165",
                    "indexes": {
                        "data": 0,
                        "gas": 0,
                        "value": 0
                    },
                    "state": {
                        "0xd57e229e3e4f14e04d5a080bee0755328b2da024": {
                            "nonce": "0x01",
                            "balance": "0x3635c9adc5de996790",
                            "code": "0x",
                            "storage": {}
                        },
                        "0x036a8052a6b6cc6ad6e1bf702b78ecd910e8536a": {
                            "nonce": "0x00",
                            "balance": "0x0de0b6b3a7640000",
                            "code": "0x60075a60035f5d5a90030360015500",
                            "storage": {
                                "0x01": "0x64"
                            }
                        }
                    }
                }
            ]
        },
        "config": {
            "blobSchedule": {
                "Cancun": {
                    "target": "0x03",
                    "max": "0x06",
                    "baseFeeUpdateFraction": "0x32f0ed"
                },
                "Prague": {
                    "target": "0x06",
                    "max": "0x09",
                    "baseFeeUpdateFraction": "0x4c6964"
                }
            },
            "chainid": "0x01"
        },
        "_info": {
            "hash": "0x56bafadeec2d2a4e731b14a279ab6017d4816214af93b3653688e5cd5aefe6d9",
            "comment": "`execution-specs` generated test",
            "filling-transition-tool": "2.18.0rc6",
            "description": "No description available - add a docstring to the python test class or function.",
            "url": "",
            "fixture-format": "state_test",
            "reference-spec": "https://github.com/ethereum/EIPs/blob/master/",
            "reference-spec-version": ""
        }
    }
}