{
    "tests/static/state_tests/stEIP2930/coinbaseT01Filler.yml::coinbaseT01[fork_Cancun-blockchain_test_from_state_test-T0]": {
        "network": "Cancun",
        "genesisBlockHeader": {
            "parentHash": "0x0000000000000000000000000000000000000000000000000000000000000000",
            "uncleHash": "0x1dcc4de8dec75d7aab85b567b6ccd41ad312451b948a7413f0a142fd40d49347",
            "coinbase": "0x0000000000000000000000000000000000000000",
            "stateRoot": "0x42720299b13078b2be8e7f02959d904b8900e3a88eeec1b2196d155f945bdb78",
            "transactionsTrie": "0x56e81f171bcc55a6ff8345e692c0f86e5b48e01b996cadc001622fb5e363b421",
            "receiptTrie": "0x56e81f171bcc55a6ff8345e692c0f86e5b48e01b996cadc001622fb5e363b421",
            "bloom": "0x00000000000000000000000000000000000000000000000000000000000000000000000000000000000000000000000000000000000000000000000000000000000000000000000000000000000000000000000000000000000000000000000000000000000000000000000000000000000000000000000000000000000000000000000000000000000000000000000000000000000000000000000000000000000000000000000000000000000000000000000000000000000000000000000000000000000000000000000000000000000000000000000000000000000000000000000000000000000000000000000000000000000000000000000000000000",
            "difficulty": "0x00",
            "number": "0x00",
            "gasLimit": "0xff112233445566",
            "gasUsed": "0x00",
            "timestamp": "0x00",
            "extraData": "0x00",
            "mixHash": "0x0000000000000000000000000000000000000000000000000000000000000000",
            "nonce": "0x0000000000000000",
            "baseFeePerGas": "0x72",
            "withdrawalsRoot": "0x56e81f171bcc55a6ff8345e692c0f86e5b48e01b996cadc001622fb5e363b421",
            "blobGasUsed": "0x00",
            "excessBlobGas": "0x00",
            "parentBeaconBlockRoot": "0x0000000000000000000000000000000000000000000000000000000000000000",
            "hash": "0x079447c610f10b9cd54e512909a7fe4d04ee0796c94c507e66879e14f615ff9f"
        },
        "pre": {
            "0x000f3df6d732807ef1319fb7b8bb8522d0beac02": {
                "nonce": "0x01",
                "balance": "0x00",
                "code": "0x3373fffffffffffffffffffffffffffffffffffffffe14604d57602036146024575f5ffd5b5f35801560495762001fff810690815414603c575f5ffd5b62001fff01545f5260205ff35b5f5ffd5b62001fff42064281555f359062001fff015500",
                "storage": {}
            },
            "0x7704d8a022a1ba8f3539fc82c7d7fb065abc0df3": {
                "nonce": "0x01",
                "balance": "0x00",
                "code": "0x",
                "storage": {}
            },
            "0x30873f83c35401e315e6e5994c012f1ee8119585": {
                "nonce": "0x01",
                "balance": "0x0de0b6b3a7640000",
                "code": "0x5a6000526000808080620f4240737704d8a022a1ba8f3539fc82c7d7fb065abc0df35af1505a6020526021602051600051030360005500",
                "storage": {}
            },
            "0x8dab845a8398167a1c204f0e79540d619be8b473": {
                "nonce": "0x01",
                "balance": "0x0de0b6b3a7640000",
                "code": "0x",
                "storage": {}
            }
        },
        "postState": {
            "0x000f3df6d732807ef1319fb7b8bb8522d0beac02": {
                "nonce": "0x01",
                "balance": "0x00",
                "code": "0x3373fffffffffffffffffffffffffffffffffffffffe14604d57602036146024575f5ffd5b5f35801560495762001fff810690815414603c575f5ffd5b62001fff01545f5260205ff35b5f5ffd5b62001fff42064281555f359062001fff015500",
                "storage": {
                    "0x03e8": "0x03e8"
                }
            },
            "0x7704d8a022a1ba8f3539fc82c7d7fb065abc0df3": {
                "nonce": "0x01",
                "balance": "0x02c01a00",
                "code": "0x",
                "storage": {}
            },
            "0x30873f83c35401e315e6e5994c012f1ee8119585": {
                "nonce": "0x01",
                "balance": "0x0de0b6b3a754bdc0",
                "code": "0x5a6000526000808080620f4240737704d8a022a1ba8f3539fc82c7d7fb065abc0df35af1505a6020526021602051600051030360005500",
                "storage": {
                    "0x00": "0x1a90"
                }
            },
            "0x8dab845a8398167a1c204f0e79540d619be8b473": {
                "nonce": "0x02",
                "balance": "0x0de0b6b3a4669e80",
                "code": "0x",
                "storage": {}
            }
        },
        "lastblockhash": "0xc025fbb55313a25177eee1f09d0661afadfaf0bace47351fcc908f0ead0db0a5",
        "config": {
            "network": "Cancun",
            "chainid": "0x01",
            "blobSchedule": {
                "Cancun": {
                    "target": "0x03",
                    "max": "0x06",
                    "baseFeeUpdateFraction": "0x32f0ed"
                }
            }
        },
        "genesisRLP": "0xf9023ff90239a00000000000000000000000000000000000000000000000000000000000000000a01dcc4de8dec75d7aab85b567b6ccd41ad312451b948a7413f0a142fd40d49347940000000000000000000000000000000000000000a042720299b13078b2be8e7f02959d904b8900e3a88eeec1b2196d155f945bdb78a056e81f171bcc55a6ff8345e692c0f86e5b48e01b996cadc001622fb5e363b421a056e81f171bcc55a6ff8345e692c0f86e5b48e01b996cadc001622fb5e363b421b9010000000000000000000000000000000000000000000000000000000000000000000000000000000000000000000000000000000000000000000000000000000000000000000000000000000000000000000000000000000000000000000000000000000000000000000000000000000000000000000000000000000000000000000000000000000000000000000000000000000000000000000000000000000000000000000000000000000000000000000000000000000000000000000000000000000000000000000000000000000000000000000000000000000000000000000000000000000000000000000000000000000000000000000000000000000000808087ff112233445566808000a0000000000000000000000000000000000000000000000000000000000000000088000000000000000072a056e81f171bcc55a6ff8345e692c0f86e5b48e01b996cadc001622fb5e363b4218080a00000000000000000000000000000000000000000000000000000000000000000c0c0c0",
        "blocks": [
            {
                "blockHeader": {
                    "parentHash": "0x079447c610f10b9cd54e512909a7fe4d04ee0796c94c507e66879e14f615ff9f",
                    "uncleHash": "0x1dcc4de8dec75d7aab85b567b6ccd41ad312451b948a7413f0a142fd40d49347",
                    "coinbase": "0x7704d8a022a1ba8f3539fc82c7d7fb065abc0df3",
                    "stateRoot": "0x1fdcf923706be32f5cdf12f8aad03e5a82c75d27df9fe04cdf21c3dcc164b66f",
                    "transactionsTrie": "0x579db834167bdbac54b5b47402990f053daef24d70a9d99cb64bd5fc3e1cd453",
                    "receiptTrie": "0xbcfcd41e646a5f970cd1a153987cb99415ccb8502d390e48586f3f7428e50d9a",
                    "bloom": "0x00000000000000000000000000000000000000000000000000000000000000000000000000000000000000000000000000000000000000000000000000000000000000000000000000000000000000000000000000000000000000000000000000000000000000000000000000000000000000000000000000000000000000000000000000000000000000000000000000000000000000000000000000000000000000000000000000000000000000000000000000000000000000000000000000000000000000000000000000000000000000000000000000000000000000000000000000000000000000000000000000000000000000000000000000000000",
                    "difficulty": "0x00",
                    "number": "0x01",
                    "gasLimit": "0xff112233445566",
                    "gasUsed": "0xc3f0",
                    "timestamp": "0x03e8",
                    "extraData": "0x00",
                    "mixHash": "0x0000000000000000000000000000000000000000000000000000000000020000",
                    "nonce": "0x0000000000000000",
                    "baseFeePerGas": "0x64",
                    "withdrawalsRoot": "0x56e81f171bcc55a6ff8345e692c0f86e5b48e01b996cadc001622fb5e363b421",
                    "blobGasUsed": "0x00",
                    "excessBlobGas": "0x00",
                    "parentBeaconBlockRoot": "0x0000000000000000000000000000000000000000000000000000000000000000",
                    "hash": "0xc025fbb55313a25177eee1f09d0661afadfaf0bace47351fcc908f0ead0db0a5"
                },
                "transactions": [
                    {
                        "type": "0x00",
                        "chainId": "0x01",
                        "nonce": "0x01",
                        "gasPrice": "0x03e8",
                        "gasLimit": "0x01000000",
                        "to": "0x30873f83c35401e315e6e5994c012f1ee8119585",
                        "value": "0x00",
                        "data": "0x693c61390000000000000000000000000000000000000000000000000000000000000000",
                        "v": "0x25",
                        "r": "0x7935fc3fbcbed0cdeb9de4b57fcea7cb2243f1fa6e10a3c473b858d66a9d396e",
                        "s": "0x39b232076b2b05ff640297f08dec4a16f7f9bf9a6a46e2bf607653d846713fc2",
                        "sender": "0x8dab845a8398167a1c204f0e79540d619be8b473"
                    }
                ],
                "uncleHeaders": [],
                "withdrawals": [],
                "receipts": [
                    {
                        "transactionHash": "0xcd26f8ccba294a9c6361b21f7e181b1488e7cb6e98cc55e9ffe107abf8184f8d",
                        "type": "0x00",
                        "cumulativeGasUsed": "0xc3f0",
                        "bloom": "0x00000000000000000000000000000000000000000000000000000000000000000000000000000000000000000000000000000000000000000000000000000000000000000000000000000000000000000000000000000000000000000000000000000000000000000000000000000000000000000000000000000000000000000000000000000000000000000000000000000000000000000000000000000000000000000000000000000000000000000000000000000000000000000000000000000000000000000000000000000000000000000000000000000000000000000000000000000000000000000000000000000000000000000000000000000000",
                        "logs": [],
                        "status": true,
                        "rlp": "0xf901080182c3f0b9010000000000000000000000000000000000000000000000000000000000000000000000000000000000000000000000000000000000000000000000000000000000000000000000000000000000000000000000000000000000000000000000000000000000000000000000000000000000000000000000000000000000000000000000000000000000000000000000000000000000000000000000000000000000000000000000000000000000000000000000000000000000000000000000000000000000000000000000000000000000000000000000000000000000000000000000000000000000000000000000000000000000000000000000000000000000c0"
                    }
                ],
                "rlp": "0xf902cdf9023da0079447c610f10b9cd54e512909a7fe4d04ee0796c94c507e66879e14f615ff9fa01dcc4de8dec75d7aab85b567b6ccd41ad312451b948a7413f0a142fd40d49347947704d8a022a1ba8f3539fc82c7d7fb065abc0df3a01fdcf923706be32f5cdf12f8aad03e5a82c75d27df9fe04cdf21c3dcc164b66fa0579db834167bdbac54b5b47402990f053daef24d70a9d99cb64bd5fc3e1cd453a0bcfcd41e646a5f970cd1a153987cb99415ccb8502d390e48586f3f7428e50d9ab9010000000000000000000000000000000000000000000000000000000000000000000000000000000000000000000000000000000000000000000000000000000000000000000000000000000000000000000000000000000000000000000000000000000000000000000000000000000000000000000000000000000000000000000000000000000000000000000000000000000000000000000000000000000000000000000000000000000000000000000000000000000000000000000000000000000000000000000000000000000000000000000000000000000000000000000000000000000000000000000000000000000000000000000000000000000000800187ff11223344556682c3f08203e800a0000000000000000000000000000000000000000000000000000000000002000088000000000000000064a056e81f171bcc55a6ff8345e692c0f86e5b48e01b996cadc001622fb5e363b4218080a00000000000000000000000000000000000000000000000000000000000000000f889f887018203e884010000009430873f83c35401e315e6e5994c012f1ee811958580a4693c6139000000000000000000000000000000000000000000000000000000000000000025a07935fc3fbcbed0cdeb9de4b57fcea7cb2243f1fa6e10a3c473b858d66a9d396ea039b232076b2b05ff640297f08dec4a16f7f9bf9a6a46e2bf607653d846713fc2c0c0",
                "blocknumber": "1"
            }
        ],
        "sealEngine": "NoProof",
        "_info": {
            "hash": "0x6ead76712a8a98e61483cfad9aa6f4be14d16d4bff4cd53a4c4a365011f1e45e",
            "fixture-format": "blockchain_test",
            "comment": "`execution-specs` generated test",
            "filling-transition-tool": "2.19.0",
            "description": "No description available - add a docstring to the python test class or function.",
            "url": "",
            "opcode_count": {},
            "reference-spec": "https://github.com/ethereum/EIPs/blob/master/",
            "reference-spec-version": ""
        }
    },
    "tests/static/state_tests/stEIP2930/coinbaseT01Filler.yml::coinbaseT01[fork_Cancun-blockchain_test_from_state_test-T1baseInList]": {
        "network": "Cancun",
        "genesisBlockHeader": {
            "parentHash": "0x0000000000000000000000000000000000000000000000000000000000000000",
            "uncleHash": "0x1dcc4de8dec75d7aab85b567b6ccd41ad312451b948a7413f0a142fd40d49347",
            "coinbase": "0x0000000000000000000000000000000000000000",
            "stateRoot": "0x42720299b13078b2be8e7f02959d904b8900e3a88eeec1b2196d155f945bdb78",
            "transactionsTrie": "0x56e81f171bcc55a6ff8345e692c0f86e5b48e01b996cadc001622fb5e363b421",
            "receiptTrie": "0x56e81f171bcc55a6ff8345e692c0f86e5b48e01b996cadc001622fb5e363b421",
            "bloom": "0x00000000000000000000000000000000000000000000000000000000000000000000000000000000000000000000000000000000000000000000000000000000000000000000000000000000000000000000000000000000000000000000000000000000000000000000000000000000000000000000000000000000000000000000000000000000000000000000000000000000000000000000000000000000000000000000000000000000000000000000000000000000000000000000000000000000000000000000000000000000000000000000000000000000000000000000000000000000000000000000000000000000000000000000000000000000",
            "difficulty": "0x00",
            "number": "0x00",
            "gasLimit": "0xff112233445566",
            "gasUsed": "0x00",
            "timestamp": "0x00",
            "extraData": "0x00",
            "mixHash": "0x0000000000000000000000000000000000000000000000000000000000000000",
            "nonce": "0x0000000000000000",
            "baseFeePerGas": "0x72",
            "withdrawalsRoot": "0x56e81f171bcc55a6ff8345e692c0f86e5b48e01b996cadc001622fb5e363b421",
            "blobGasUsed": "0x00",
            "excessBlobGas": "0x00",
            "parentBeaconBlockRoot": "0x0000000000000000000000000000000000000000000000000000000000000000",
            "hash": "0x079447c610f10b9cd54e512909a7fe4d04ee0796c94c507e66879e14f615ff9f"
        },
        "pre": {
            "0x000f3df6d732807ef1319fb7b8bb8522d0beac02": {
                "nonce": "0x01",
                "balance": "0x00",
                "code": "0x3373fffffffffffffffffffffffffffffffffffffffe14604d57602036146024575f5ffd5b5f35801560495762001fff810690815414603c575f5ffd5b62001fff01545f5260205ff35b5f5ffd5b62001fff42064281555f359062001fff015500",
                "storage": {}
            },
            "0x7704d8a022a1ba8f3539fc82c7d7fb065abc0df3": {
                "nonce": "0x01",
                "balance": "0x00",
                "code": "0x",
                "storage": {}
            },
            "0x30873f83c35401e315e6e5994c012f1ee8119585": {
                "nonce": "0x01",
                "balance": "0x0de0b6b3a7640000",
                "code": "0x5a6000526000808080620f4240737704d8a022a1ba8f3539fc82c7d7fb065abc0df35af1505a6020526021602051600051030360005500",
                "storage": {}
            },
            "0x8dab845a8398167a1c204f0e79540d619be8b473": {
                "nonce": "0x01",
                "balance": "0x0de0b6b3a7640000",
                "code": "0x",
                "storage": {}
            }
        },
        "postState": {
            "0x000f3df6d732807ef1319fb7b8bb8522d0beac02": {
                "nonce": "0x01",
                "balance": "0x00",
                "code": "0x3373fffffffffffffffffffffffffffffffffffffffe14604d57602036146024575f5ffd5b5f35801560495762001fff810690815414603c575f5ffd5b62001fff01545f5260205ff35b5f5ffd5b62001fff42064281555f359062001fff015500",
                "storage": {
                    "0x03e8": "0x03e8"
                }
            },
            "0x7704d8a022a1ba8f3539fc82c7d7fb065abc0df3": {
                "nonce": "0x01",
                "balance": "0x02e10f80",
                "code": "0x",
                "storage": {}
            },
            "0x30873f83c35401e315e6e5994c012f1ee8119585": {
                "nonce": "0x01",
                "balance": "0x0de0b6b3a754bdc0",
                "code": "0x5a6000526000808080620f4240737704d8a022a1ba8f3539fc82c7d7fb065abc0df35af1505a6020526021602051600051030360005500",
                "storage": {
                    "0x00": "0x1a90"
                }
            },
            "0x8dab845a8398167a1c204f0e79540d619be8b473": {
                "nonce": "0x02",
                "balance": "0x0de0b6b3a441ff80",
                "code": "0x",
                "storage": {}
            }
        },
        "lastblockhash": "0xaf7c4e25220e0d7f73112ab56aa7acbc05bea838a75336001659496f4e3c122f",
        "config": {
            "network": "Cancun",
            "chainid": "0x01",
            "blobSchedule": {
                "Cancun": {
                    "target": "0x03",
                    "max": "0x06",
                    "baseFeeUpdateFraction": "0x32f0ed"
                }
            }
        },
        "genesisRLP": "0xf9023ff90239a00000000000000000000000000000000000000000000000000000000000000000a01dcc4de8dec75d7aab85b567b6ccd41ad312451b948a7413f0a142fd40d49347940000000000000000000000000000000000000000a042720299b13078b2be8e7f02959d904b8900e3a88eeec1b2196d155f945bdb78a056e81f171bcc55a6ff8345e692c0f86e5b48e01b996cadc001622fb5e363b421a056e81f171bcc55a6ff8345e692c0f86e5b48e01b996cadc001622fb5e363b421b9010000000000000000000000000000000000000000000000000000000000000000000000000000000000000000000000000000000000000000000000000000000000000000000000000000000000000000000000000000000000000000000000000000000000000000000000000000000000000000000000000000000000000000000000000000000000000000000000000000000000000000000000000000000000000000000000000000000000000000000000000000000000000000000000000000000000000000000000000000000000000000000000000000000000000000000000000000000000000000000000000000000000000000000000000000000000808087ff112233445566808000a0000000000000000000000000000000000000000000000000000000000000000088000000000000000072a056e81f171bcc55a6ff8345e692c0f86e5b48e01b996cadc001622fb5e363b4218080a00000000000000000000000000000000000000000000000000000000000000000c0c0c0",
        "blocks": [
            {
                "blockHeader": {
                    "parentHash": "0x079447c610f10b9cd54e512909a7fe4d04ee0796c94c507e66879e14f615ff9f",
                    "uncleHash": "0x1dcc4de8dec75d7aab85b567b6ccd41ad312451b948a7413f0a142fd40d49347",
                    "coinbase": "0x7704d8a022a1ba8f3539fc82c7d7fb065abc0df3",
                    "stateRoot": "0x03eb7c59641679244d8c6b2467dc85bf389fd09e59ff7e05b80c74bc0ee31e0b",
                    "transactionsTrie": "0x27d538dbdb9defc70c230d2c6ce98d86d1e88eecfc74163d5ab954c3163cbd09",
                    "receiptTrie": "0xfdc3850909ed4ed91ad6d6dfac50109e53a5d02c51d399d580afb934ae9c10ae",
                    "bloom": "0x00000000000000000000000000000000000000000000000000000000000000000000000000000000000000000000000000000000000000000000000000000000000000000000000000000000000000000000000000000000000000000000000000000000000000000000000000000000000000000000000000000000000000000000000000000000000000000000000000000000000000000000000000000000000000000000000000000000000000000000000000000000000000000000000000000000000000000000000000000000000000000000000000000000000000000000000000000000000000000000000000000000000000000000000000000000",
                    "difficulty": "0x00",
                    "number": "0x01",
                    "gasLimit": "0xff112233445566",
                    "gasUsed": "0xcd50",
                    "timestamp": "0x03e8",
                    "extraData": "0x00",
                    "mixHash": "0x0000000000000000000000000000000000000000000000000000000000020000",
                    "nonce": "0x0000000000000000",
                    "baseFeePerGas": "0x64",
                    "withdrawalsRoot": "0x56e81f171bcc55a6ff8345e692c0f86e5b48e01b996cadc001622fb5e363b421",
                    "blobGasUsed": "0x00",
                    "excessBlobGas": "0x00",
                    "parentBeaconBlockRoot": "0x0000000000000000000000000000000000000000000000000000000000000000",
                    "hash": "0xaf7c4e25220e0d7f73112ab56aa7acbc05bea838a75336001659496f4e3c122f"
                },
                "transactions": [
                    {
                        "type": "0x01",
                        "chainId": "0x01",
                        "nonce": "0x01",
                        "gasPrice": "0x03e8",
                        "gasLimit": "0x01000000",
                        "to": "0x30873f83c35401e315e6e5994c012f1ee8119585",
                        "value": "0x00",
                        "data": "0x693c61390000000000000000000000000000000000000000000000000000000000000000",
                        "accessList": [
                            {
                                "address": "0x7704d8a022a1ba8f3539fc82c7d7fb065abc0df3",
                                "storageKeys": []
                            }
                        ],
                        "v": "0x01",
                        "r": "0xf9bd75abb8bac1db4daded2d3bdc084a1c9bc0ea7ed87146fed66696f5f69bd2",
                        "s": "0x1b49d66dc9e7e078e3678213b13cbc4a14140a08a635603d9ac80d953e7cdd6b",
                        "sender": "0x8dab845a8398167a1c204f0e79540d619be8b473"
                    }
                ],
                "uncleHeaders": [],
                "withdrawals": [],
                "receipts": [
                    {
                        "transactionHash": "0xdf02efb7223c9bec6b4b454457f812bb119d0f18a381b18973c2e74eba1f6b55",
                        "type": "0x01",
                        "cumulativeGasUsed": "0xcd50",
                        "bloom": "0x00000000000000000000000000000000000000000000000000000000000000000000000000000000000000000000000000000000000000000000000000000000000000000000000000000000000000000000000000000000000000000000000000000000000000000000000000000000000000000000000000000000000000000000000000000000000000000000000000000000000000000000000000000000000000000000000000000000000000000000000000000000000000000000000000000000000000000000000000000000000000000000000000000000000000000000000000000000000000000000000000000000000000000000000000000000",
                        "logs": [],
                        "status": true,
                        "rlp": "0x01f901080182cd50b9010000000000000000000000000000000000000000000000000000000000000000000000000000000000000000000000000000000000000000000000000000000000000000000000000000000000000000000000000000000000000000000000000000000000000000000000000000000000000000000000000000000000000000000000000000000000000000000000000000000000000000000000000000000000000000000000000000000000000000000000000000000000000000000000000000000000000000000000000000000000000000000000000000000000000000000000000000000000000000000000000000000000000000000000000000000000c0"
                    }
                ],
                "rlp": "0xf902e9f9023da0079447c610f10b9cd54e512909a7fe4d04ee0796c94c507e66879e14f615ff9fa01dcc4de8dec75d7aab85b567b6ccd41ad312451b948a7413f0a142fd40d49347947704d8a022a1ba8f3539fc82c7d7fb065abc0df3a003eb7c59641679244d8c6b2467dc85bf389fd09e59ff7e05b80c74bc0ee31e0ba027d538dbdb9defc70c230d2c6ce98d86d1e88eecfc74163d5ab954c3163cbd09a0fdc3850909ed4ed91ad6d6dfac50109e53a5d02c51d399d580afb934ae9c10aeb9010000000000000000000000000000000000000000000000000000000000000000000000000000000000000000000000000000000000000000000000000000000000000000000000000000000000000000000000000000000000000000000000000000000000000000000000000000000000000000000000000000000000000000000000000000000000000000000000000000000000000000000000000000000000000000000000000000000000000000000000000000000000000000000000000000000000000000000000000000000000000000000000000000000000000000000000000000000000000000000000000000000000000000000000000000000000800187ff11223344556682cd508203e800a0000000000000000000000000000000000000000000000000000000000002000088000000000000000064a056e81f171bcc55a6ff8345e692c0f86e5b48e01b996cadc001622fb5e363b4218080a00000000000000000000000000000000000000000000000000000000000000000f8a5b8a301f8a001018203e884010000009430873f83c35401e315e6e5994c012f1ee811958580a4693c61390000000000000000000000000000000000000000000000000000000000000000d7d6947704d8a022a1ba8f3539fc82c7d7fb065abc0df3c001a0f9bd75abb8bac1db4daded2d3bdc084a1c9bc0ea7ed87146fed66696f5f69bd2a01b49d66dc9e7e078e3678213b13cbc4a14140a08a635603d9ac80d953e7cdd6bc0c0",
                "blocknumber": "1"
            }
        ],
        "sealEngine": "NoProof",
        "_info": {
            "hash": "0x9696cef668fa9ec837265ba9fb06380a9213b505140d5a643923e21334020e53",
            "fixture-format": "blockchain_test",
            "comment": "`execution-specs` generated test",
            "filling-transition-tool": "2.19.0",
            "description": "No description available - add a docstring to the python test class or function.",
            "url": "",
            "opcode_count": {},
            "reference-spec": "https://github.com/ethereum/EIPs/blob/master/",
            "reference-spec-version": ""
        }
    },
    "tests/static/state_tests/stEIP2930/coinbaseT01Filler.yml::coinbaseT01[fork_Cancun-blockchain_test_from_state_test-T1baseNotInList]": {
        "network": "Cancun",
        "genesisBlockHeader": {
            "parentHash": "0x0000000000000000000000000000000000000000000000000000000000000000",
            "uncleHash": "0x1dcc4de8dec75d7aab85b567b6ccd41ad312451b948a7413f0a142fd40d49347",
            "coinbase": "0x0000000000000000000000000000000000000000",
            "stateRoot": "0x42720299b13078b2be8e7f02959d904b8900e3a88eeec1b2196d155f945bdb78",
            "transactionsTrie": "0x56e81f171bcc55a6ff8345e692c0f86e5b48e01b996cadc001622fb5e363b421",
            "receiptTrie": "0x56e81f171bcc55a6ff8345e692c0f86e5b48e01b996cadc001622fb5e363b421",
            "bloom": "0x00000000000000000000000000000000000000000000000000000000000000000000000000000000000000000000000000000000000000000000000000000000000000000000000000000000000000000000000000000000000000000000000000000000000000000000000000000000000000000000000000000000000000000000000000000000000000000000000000000000000000000000000000000000000000000000000000000000000000000000000000000000000000000000000000000000000000000000000000000000000000000000000000000000000000000000000000000000000000000000000000000000000000000000000000000000",
            "difficulty": "0x00",
            "number": "0x00",
            "gasLimit": "0xff112233445566",
            "gasUsed": "0x00",
            "timestamp": "0x00",
            "extraData": "0x00",
            "mixHash": "0x0000000000000000000000000000000000000000000000000000000000000000",
            "nonce": "0x0000000000000000",
            "baseFeePerGas": "0x72",
            "withdrawalsRoot": "0x56e81f171bcc55a6ff8345e692c0f86e5b48e01b996cadc001622fb5e363b421",
            "blobGasUsed": "0x00",
            "excessBlobGas": "0x00",
            "parentBeaconBlockRoot": "0x0000000000000000000000000000000000000000000000000000000000000000",
            "hash": "0x079447c610f10b9cd54e512909a7fe4d04ee0796c94c507e66879e14f615ff9f"
        },
        "pre": {
            "0x000f3df6d732807ef1319fb7b8bb8522d0beac02": {
                "nonce": "0x01",
                "balance": "0x00",
                "code": "0x3373fffffffffffffffffffffffffffffffffffffffe14604d57602036146024575f5ffd5b5f35801560495762001fff810690815414603c575f5ffd5b62001fff01545f5260205ff35b5f5ffd5b62001fff42064281555f359062001fff015500",
                "storage": {}
            },
            "0x7704d8a022a1ba8f3539fc82c7d7fb065abc0df3": {
                "nonce": "0x01",
                "balance": "0x00",
                "code": "0x",
                "storage": {}
            },
            "0x30873f83c35401e315e6e5994c012f1ee8119585": {
                "nonce": "0x01",
                "balance": "0x0de0b6b3a7640000",
                "code": "0x5a6000526000808080620f4240737704d8a022a1ba8f3539fc82c7d7fb065abc0df35af1505a6020526021602051600051030360005500",
                "storage": {}
            },
            "0x8dab845a8398167a1c204f0e79540d619be8b473": {
                "nonce": "0x01",
                "balance": "0x0de0b6b3a7640000",
                "code": "0x",
                "storage": {}
            }
        },
        "postState": {
            "0x000f3df6d732807ef1319fb7b8bb8522d0beac02": {
                "nonce": "0x01",
                "balance": "0x00",
                "code": "0x3373fffffffffffffffffffffffffffffffffffffffe14604d57602036146024575f5ffd5b5f35801560495762001fff810690815414603c575f5ffd5b62001fff01545f5260205ff35b5f5ffd5b62001fff42064281555f359062001fff015500",
                "storage": {
                    "0x03e8": "0x03e8"
                }
            },
            "0x7704d8a022a1ba8f3539fc82c7d7fb065abc0df3": {
                "nonce": "0x01",
                "balance": "0x02e10f80",
                "code": "0x",
                "storage": {}
            },
            "0x30873f83c35401e315e6e5994c012f1ee8119585": {
                "nonce": "0x01",
                "balance": "0x0de0b6b3a754bdc0",
                "code": "0x5a6000526000808080620f4240737704d8a022a1ba8f3539fc82c7d7fb065abc0df35af1505a6020526021602051600051030360005500",
                "storage": {
                    "0x00": "0x1a90"
                }
            },
            "0x8dab845a8398167a1c204f0e79540d619be8b473": {
                "nonce": "0x02",
                "balance": "0x0de0b6b3a441ff80",
                "code": "0x",
                "storage": {}
            }
        },
        "lastblockhash": "0xcdecbef9c9fa2dda5236906b70467f1a3abb4c374d1719f9954edc1fe8f01f30",
        "config": {
            "network": "Cancun",
            "chainid": "0x01",
            "blobSchedule": {
                "Cancun": {
                    "target": "0x03",
                    "max": "0x06",
                    "baseFeeUpdateFraction": "0x32f0ed"
                }
            }
        },
        "genesisRLP": "0xf9023ff90239a00000000000000000000000000000000000000000000000000000000000000000a01dcc4de8dec75d7aab85b567b6ccd41ad312451b948a7413f0a142fd40d49347940000000000000000000000000000000000000000a042720299b13078b2be8e7f02959d904b8900e3a88eeec1b2196d155f945bdb78a056e81f171bcc55a6ff8345e692c0f86e5b48e01b996cadc001622fb5e363b421a056e81f171bcc55a6ff8345e692c0f86e5b48e01b996cadc001622fb5e363b421b9010000000000000000000000000000000000000000000000000000000000000000000000000000000000000000000000000000000000000000000000000000000000000000000000000000000000000000000000000000000000000000000000000000000000000000000000000000000000000000000000000000000000000000000000000000000000000000000000000000000000000000000000000000000000000000000000000000000000000000000000000000000000000000000000000000000000000000000000000000000000000000000000000000000000000000000000000000000000000000000000000000000000000000000000000000000000808087ff112233445566808000a0000000000000000000000000000000000000000000000000000000000000000088000000000000000072a056e81f171bcc55a6ff8345e692c0f86e5b48e01b996cadc001622fb5e363b4218080a00000000000000000000000000000000000000000000000000000000000000000c0c0c0",
        "blocks": [
            {
                "blockHeader": {
                    "parentHash": "0x079447c610f10b9cd54e512909a7fe4d04ee0796c94c507e66879e14f615ff9f",
                    "uncleHash": "0x1dcc4de8dec75d7aab85b567b6ccd41ad312451b948a7413f0a142fd40d49347",
                    "coinbase": "0x7704d8a022a1ba8f3539fc82c7d7fb065abc0df3",
                    "stateRoot": "0x03eb7c59641679244d8c6b2467dc85bf389fd09e59ff7e05b80c74bc0ee31e0b",
                    "transactionsTrie": "0x191300cbecaafa792dd80344851f1dfbf2805c313688f3a4a4c9e133d5572000",
                    "receiptTrie": "0xfdc3850909ed4ed91ad6d6dfac50109e53a5d02c51d399d580afb934ae9c10ae",
                    "bloom": "0x00000000000000000000000000000000000000000000000000000000000000000000000000000000000000000000000000000000000000000000000000000000000000000000000000000000000000000000000000000000000000000000000000000000000000000000000000000000000000000000000000000000000000000000000000000000000000000000000000000000000000000000000000000000000000000000000000000000000000000000000000000000000000000000000000000000000000000000000000000000000000000000000000000000000000000000000000000000000000000000000000000000000000000000000000000000",
                    "difficulty": "0x00",
                    "number": "0x01",
                    "gasLimit": "0xff112233445566",
                    "gasUsed": "0xcd50",
                    "timestamp": "0x03e8",
                    "extraData": "0x00",
                    "mixHash": "0x0000000000000000000000000000000000000000000000000000000000020000",
                    "nonce": "0x0000000000000000",
                    "baseFeePerGas": "0x64",
                    "withdrawalsRoot": "0x56e81f171bcc55a6ff8345e692c0f86e5b48e01b996cadc001622fb5e363b421",
                    "blobGasUsed": "0x00",
                    "excessBlobGas": "0x00",
                    "parentBeaconBlockRoot": "0x0000000000000000000000000000000000000000000000000000000000000000",
                    "hash": "0xcdecbef9c9fa2dda5236906b70467f1a3abb4c374d1719f9954edc1fe8f01f30"
                },
                "transactions": [
                    {
                        "type": "0x01",
                        "chainId": "0x01",
                        "nonce": "0x01",
                        "gasPrice": "0x03e8",
                        "gasLimit": "0x01000000",
                        "to": "0x30873f83c35401e315e6e5994c012f1ee8119585",
                        "value": "0x00",
                        "data": "0x693c61390000000000000000000000000000000000000000000000000000000000000000",
                        "accessList": [
                            {
                                "address": "0x000000000000000000000000000000000000ba5a",
                                "storageKeys": []
                            }
                        ],
                        "v": "0x01",
                        "r": "0x3f5136a738189561b8658e3e8dd22a04591fd3e62ea29550926c37b41c03ecf7",
                        "s": "0x1551ead6171071e2c3eeb9f67be1eb653fb3f7a32782cd17a1e5a902f9c39f55",
                        "sender": "0x8dab845a8398167a1c204f0e79540d619be8b473"
                    }
                ],
                "uncleHeaders": [],
                "withdrawals": [],
                "receipts": [
                    {
                        "transactionHash": "0xef7eb9e5ca6f0c5e71dbcd66f359291c8a2509f3f27f401ccae75dd1755bd740",
                        "type": "0x01",
                        "cumulativeGasUsed": "0xcd50",
                        "bloom": "0x00000000000000000000000000000000000000000000000000000000000000000000000000000000000000000000000000000000000000000000000000000000000000000000000000000000000000000000000000000000000000000000000000000000000000000000000000000000000000000000000000000000000000000000000000000000000000000000000000000000000000000000000000000000000000000000000000000000000000000000000000000000000000000000000000000000000000000000000000000000000000000000000000000000000000000000000000000000000000000000000000000000000000000000000000000000",
                        "logs": [],
                        "status": true,
                        "rlp": "0x01f901080182cd50b9010000000000000000000000000000000000000000000000000000000000000000000000000000000000000000000000000000000000000000000000000000000000000000000000000000000000000000000000000000000000000000000000000000000000000000000000000000000000000000000000000000000000000000000000000000000000000000000000000000000000000000000000000000000000000000000000000000000000000000000000000000000000000000000000000000000000000000000000000000000000000000000000000000000000000000000000000000000000000000000000000000000000000000000000000000000000c0"
                    }
                ],
                "rlp": "0xf902e9f9023da0079447c610f10b9cd54e512909a7fe4d04ee0796c94c507e66879e14f615ff9fa01dcc4de8dec75d7aab85b567b6ccd41ad312451b948a7413f0a142fd40d49347947704d8a022a1ba8f3539fc82c7d7fb065abc0df3a003eb7c59641679244d8c6b2467dc85bf389fd09e59ff7e05b80c74bc0ee31e0ba0191300cbecaafa792dd80344851f1dfbf2805c313688f3a4a4c9e133d5572000a0fdc3850909ed4ed91ad6d6dfac50109e53a5d02c51d399d580afb934ae9c10aeb9010000000000000000000000000000000000000000000000000000000000000000000000000000000000000000000000000000000000000000000000000000000000000000000000000000000000000000000000000000000000000000000000000000000000000000000000000000000000000000000000000000000000000000000000000000000000000000000000000000000000000000000000000000000000000000000000000000000000000000000000000000000000000000000000000000000000000000000000000000000000000000000000000000000000000000000000000000000000000000000000000000000000000000000000000000000000800187ff11223344556682cd508203e800a0000000000000000000000000000000000000000000000000000000000002000088000000000000000064a056e81f171bcc55a6ff8345e692c0f86e5b48e01b996cadc001622fb5e363b4218080a00000000000000000000000000000000000000000000000000000000000000000f8a5b8a301f8a001018203e884010000009430873f83c35401e315e6e5994c012f1ee811958580a4693c61390000000000000000000000000000000000000000000000000000000000000000d7d694000000000000000000000000000000000000ba5ac001a03f5136a738189561b8658e3e8dd22a04591fd3e62ea29550926c37b41c03ecf7a01551ead6171071e2c3eeb9f67be1eb653fb3f7a32782cd17a1e5a902f9c39f55c0c0",
                "blocknumber": "1"
            }
        ],
        "sealEngine": "NoProof",
        "_info": {
            "hash": "0x9e1dc237c3173cb044d8b52f11bedd24b11627fa635a7b97f5516e9faca3c09d",
            "fixture-format": "blockchain_test",
            "comment": "`execution-specs` generated test",
            "filling-transition-tool": "2.19.0",
            "description": "No description available - add a docstring to the python test class or function.",
            "url": "",
            "opcode_count": {},
            "reference-spec": "https://github.com/ethereum/EIPs/blob/master/",
            "reference-spec-version": ""
        }
    }
}