{
    "tests/ported_static/stCallDelegateCodesCallCodeHomestead/test_callcallcodecallcode_011_suicide_end.py::test_callcallcodecallcode_011_suicide_end[fork_Cancun-blockchain_test_from_state_test]": {
        "network": "Cancun",
        "genesisBlockHeader": {
            "parentHash": "0x0000000000000000000000000000000000000000000000000000000000000000",
            "uncleHash": "0x1dcc4de8dec75d7aab85b567b6ccd41ad312451b948a7413f0a142fd40d49347",
            "coinbase": "0x0000000000000000000000000000000000000000",
            "stateRoot": "0x166b0f6d3c5d2adfa266a7b6887b298eb1ce3a246adf270e0f6f7490ec208323",
            "transactionsTrie": "0x56e81f171bcc55a6ff8345e692c0f86e5b48e01b996cadc001622fb5e363b421",
            "receiptTrie": "0x56e81f171bcc55a6ff8345e692c0f86e5b48e01b996cadc001622fb5e363b421",
            "bloom": "0x00000000000000000000000000000000000000000000000000000000000000000000000000000000000000000000000000000000000000000000000000000000000000000000000000000000000000000000000000000000000000000000000000000000000000000000000000000000000000000000000000000000000000000000000000000000000000000000000000000000000000000000000000000000000000000000000000000000000000000000000000000000000000000000000000000000000000000000000000000000000000000000000000000000000000000000000000000000000000000000000000000000000000000000000000000000",
            "difficulty": "0x00",
            "number": "0x00",
            "gasLimit": "0x01c9c380",
            "gasUsed": "0x00",
            "timestamp": "0x00",
            "extraData": "0x00",
            "mixHash": "0x0000000000000000000000000000000000000000000000000000000000000000",
            "nonce": "0x0000000000000000",
            "baseFeePerGas": "0x0b",
            "withdrawalsRoot": "0x56e81f171bcc55a6ff8345e692c0f86e5b48e01b996cadc001622fb5e363b421",
            "blobGasUsed": "0x00",
            "excessBlobGas": "0x00",
            "parentBeaconBlockRoot": "0x0000000000000000000000000000000000000000000000000000000000000000",
            "hash": "0x61f26b19db73f45a368d36ef463edb7fd732ee4f3911b382d80c1dfb71931003"
        },
        "pre": {
            "0x000f3df6d732807ef1319fb7b8bb8522d0beac02": {
                "nonce": "0x01",
                "balance": "0x00",
                "code": "0x3373fffffffffffffffffffffffffffffffffffffffe14604d57602036146024575f5ffd5b5f35801560495762001fff810690815414603c575f5ffd5b62001fff01545f5260205ff35b5f5ffd5b62001fff42064281555f359062001fff015500",
                "storage": {}
            },
            "0xa74ca10b765dcda3b60687f73f2881e2a56eda64": {
                "nonce": "0x00",
                "balance": "0x0de0b6b3a7640000",
                "code": "0x60406000604060006000732cac1d43f00e8b40b63426ab460c7e8717ee6455620249f0f260005500",
                "storage": {}
            },
            "0x2cac1d43f00e8b40b63426ab460c7e8717ee6455": {
                "nonce": "0x00",
                "balance": "0x02540be400",
                "code": "0x604060006040600073ac521409e2fa9526bfe6b827805783d2e307c4ce620186a0f460015500",
                "storage": {}
            },
            "0xac521409e2fa9526bfe6b827805783d2e307c4ce": {
                "nonce": "0x00",
                "balance": "0x02540be400",
                "code": "0x60406000604060007373b954ebc05bb0ff4a0f6a13a054d50ad158409961c350f4600255732cac1d43f00e8b40b63426ab460c7e8717ee6455ff00",
                "storage": {}
            },
            "0x73b954ebc05bb0ff4a0f6a13a054d50ad1584099": {
                "nonce": "0x00",
                "balance": "0x02540be400",
                "code": "0x600160035500",
                "storage": {}
            },
            "0xebaf50debf10e08302fe4280c32df010463ca297": {
                "nonce": "0x00",
                "balance": "0x0de0b6b3a7640000",
                "code": "0x",
                "storage": {}
            }
        },
        "postState": {
            "0x000f3df6d732807ef1319fb7b8bb8522d0beac02": {
                "nonce": "0x01",
                "balance": "0x00",
                "code": "0x3373fffffffffffffffffffffffffffffffffffffffe14604d57602036146024575f5ffd5b5f35801560495762001fff810690815414603c575f5ffd5b62001fff01545f5260205ff35b5f5ffd5b62001fff42064281555f359062001fff015500",
                "storage": {
                    "0x03e8": "0x03e8"
                }
            },
            "0xa74ca10b765dcda3b60687f73f2881e2a56eda64": {
                "nonce": "0x00",
                "balance": "0x00",
                "code": "0x60406000604060006000732cac1d43f00e8b40b63426ab460c7e8717ee6455620249f0f260005500",
                "storage": {
                    "0x03": "0x01",
                    "0x02": "0x01",
                    "0x01": "0x01",
                    "0x00": "0x01"
                }
            },
            "0x2cac1d43f00e8b40b63426ab460c7e8717ee6455": {
                "nonce": "0x00",
                "balance": "0x0de0b6b5fb6fe400",
                "code": "0x604060006040600073ac521409e2fa9526bfe6b827805783d2e307c4ce620186a0f460015500",
                "storage": {}
            },
            "0xac521409e2fa9526bfe6b827805783d2e307c4ce": {
                "nonce": "0x00",
                "balance": "0x02540be400",
                "code": "0x60406000604060007373b954ebc05bb0ff4a0f6a13a054d50ad158409961c350f4600255732cac1d43f00e8b40b63426ab460c7e8717ee6455ff00",
                "storage": {}
            },
            "0x73b954ebc05bb0ff4a0f6a13a054d50ad1584099": {
                "nonce": "0x00",
                "balance": "0x02540be400",
                "code": "0x600160035500",
                "storage": {}
            },
            "0xebaf50debf10e08302fe4280c32df010463ca297": {
                "nonce": "0x01",
                "balance": "0x0de0b6b3a75156ee",
                "code": "0x",
                "storage": {}
            }
        },
        "lastblockhash": "0xc760a98b8beff42bb09c1e83da3b6d168027c93518bfdde935639a23a1059263",
        "config": {
            "network": "Cancun",
            "chainid": "0x01",
            "blobSchedule": {
                "Cancun": {
                    "target": "0x03",
                    "max": "0x06",
                    "baseFeeUpdateFraction": "0x32f0ed"
                }
            }
        },
        "genesisRLP": "0xf9023cf90236a00000000000000000000000000000000000000000000000000000000000000000a01dcc4de8dec75d7aab85b567b6ccd41ad312451b948a7413f0a142fd40d49347940000000000000000000000000000000000000000a0166b0f6d3c5d2adfa266a7b6887b298eb1ce3a246adf270e0f6f7490ec208323a056e81f171bcc55a6ff8345e692c0f86e5b48e01b996cadc001622fb5e363b421a056e81f171bcc55a6ff8345e692c0f86e5b48e01b996cadc001622fb5e363b421b901000000000000000000000000000000000000000000000000000000000000000000000000000000000000000000000000000000000000000000000000000000000000000000000000000000000000000000000000000000000000000000000000000000000000000000000000000000000000000000000000000000000000000000000000000000000000000000000000000000000000000000000000000000000000000000000000000000000000000000000000000000000000000000000000000000000000000000000000000000000000000000000000000000000000000000000000000000000000000000000000000000000000000000000000000000000080808401c9c380808000a000000000000000000000000000000000000000000000000000000000000000008800000000000000000ba056e81f171bcc55a6ff8345e692c0f86e5b48e01b996cadc001622fb5e363b4218080a00000000000000000000000000000000000000000000000000000000000000000c0c0c0",
        "blocks": [
            {
                "blockHeader": {
                    "parentHash": "0x61f26b19db73f45a368d36ef463edb7fd732ee4f3911b382d80c1dfb71931003",
                    "uncleHash": "0x1dcc4de8dec75d7aab85b567b6ccd41ad312451b948a7413f0a142fd40d49347",
                    "coinbase": "0x2adc25665018aa1fe0e6bc666dac8fc2697ff9ba",
                    "stateRoot": "0x8024a0f00a2aa1a44d171d7768bd3e892bd61502e2e2432f07813d4c3a512846",
                    "transactionsTrie": "0xd753d22c3568f8a3fbdf2a2953d92bff03885c520c7fb9afffa5ca424eb0bfa7",
                    "receiptTrie": "0x313eaf70e79df77b13ee7342da840c45ca4c32640583f721e76975e692b4a64d",
                    "bloom": "0x00000000000000000000000000000000000000000000000000000000000000000000000000000000000000000000000000000000000000000000000000000000000000000000000000000000000000000000000000000000000000000000000000000000000000000000000000000000000000000000000000000000000000000000000000000000000000000000000000000000000000000000000000000000000000000000000000000000000000000000000000000000000000000000000000000000000000000000000000000000000000000000000000000000000000000000000000000000000000000000000000000000000000000000000000000000",
                    "difficulty": "0x00",
                    "number": "0x01",
                    "gasLimit": "0x01c9c380",
                    "gasUsed": "0x01ddb5",
                    "timestamp": "0x03e8",
                    "extraData": "0x00",
                    "mixHash": "0x0000000000000000000000000000000000000000000000000000000000020000",
                    "nonce": "0x0000000000000000",
                    "baseFeePerGas": "0x0a",
                    "withdrawalsRoot": "0x56e81f171bcc55a6ff8345e692c0f86e5b48e01b996cadc001622fb5e363b421",
                    "blobGasUsed": "0x00",
                    "excessBlobGas": "0x00",
                    "parentBeaconBlockRoot": "0x0000000000000000000000000000000000000000000000000000000000000000",
                    "hash": "0xc760a98b8beff42bb09c1e83da3b6d168027c93518bfdde935639a23a1059263"
                },
                "transactions": [
                    {
                        "type": "0x00",
                        "chainId": "0x01",
                        "nonce": "0x00",
                        "gasPrice": "0x0a",
                        "gasLimit": "0x2dc6c0",
                        "to": "0xa74ca10b765dcda3b60687f73f2881e2a56eda64",
                        "value": "0x00",
                        "data": "0x",
                        "v": "0x25",
                        "r": "0xd20ffad17af2452dd746e5a98e9c23994dc82ed74c3f0d6a73e9ec479f0c619c",
                        "s": "0x2bc46ea88cc47bfbb0052bbcc9ce2e01e0c038acdcccf2c66162f8ebbe211982",
                        "sender": "0xebaf50debf10e08302fe4280c32df010463ca297"
                    }
                ],
                "uncleHeaders": [],
                "withdrawals": [],
                "receipts": [
                    {
                        "transactionHash": "0xd102dfe0931c3807b3b2bf6b1c3cd3d7b9edec10fa55cd8b53b15e254b20b4a8",
                        "type": "0x00",
                        "cumulativeGasUsed": "0x01ddb5",
                        "bloom": "0x00000000000000000000000000000000000000000000000000000000000000000000000000000000000000000000000000000000000000000000000000000000000000000000000000000000000000000000000000000000000000000000000000000000000000000000000000000000000000000000000000000000000000000000000000000000000000000000000000000000000000000000000000000000000000000000000000000000000000000000000000000000000000000000000000000000000000000000000000000000000000000000000000000000000000000000000000000000000000000000000000000000000000000000000000000000",
                        "logs": [],
                        "status": true,
                        "rlp": "0xf90109018301ddb5b9010000000000000000000000000000000000000000000000000000000000000000000000000000000000000000000000000000000000000000000000000000000000000000000000000000000000000000000000000000000000000000000000000000000000000000000000000000000000000000000000000000000000000000000000000000000000000000000000000000000000000000000000000000000000000000000000000000000000000000000000000000000000000000000000000000000000000000000000000000000000000000000000000000000000000000000000000000000000000000000000000000000000000000000000000000000000c0"
                    }
                ],
                "rlp": "0xf902a4f9023ba061f26b19db73f45a368d36ef463edb7fd732ee4f3911b382d80c1dfb71931003a01dcc4de8dec75d7aab85b567b6ccd41ad312451b948a7413f0a142fd40d49347942adc25665018aa1fe0e6bc666dac8fc2697ff9baa08024a0f00a2aa1a44d171d7768bd3e892bd61502e2e2432f07813d4c3a512846a0d753d22c3568f8a3fbdf2a2953d92bff03885c520c7fb9afffa5ca424eb0bfa7a0313eaf70e79df77b13ee7342da840c45ca4c32640583f721e76975e692b4a64db901000000000000000000000000000000000000000000000000000000000000000000000000000000000000000000000000000000000000000000000000000000000000000000000000000000000000000000000000000000000000000000000000000000000000000000000000000000000000000000000000000000000000000000000000000000000000000000000000000000000000000000000000000000000000000000000000000000000000000000000000000000000000000000000000000000000000000000000000000000000000000000000000000000000000000000000000000000000000000000000000000000000000000000000000000000000080018401c9c3808301ddb58203e800a000000000000000000000000000000000000000000000000000000000000200008800000000000000000aa056e81f171bcc55a6ff8345e692c0f86e5b48e01b996cadc001622fb5e363b4218080a00000000000000000000000000000000000000000000000000000000000000000f862f860800a832dc6c094a74ca10b765dcda3b60687f73f2881e2a56eda64808025a0d20ffad17af2452dd746e5a98e9c23994dc82ed74c3f0d6a73e9ec479f0c619ca02bc46ea88cc47bfbb0052bbcc9ce2e01e0c038acdcccf2c66162f8ebbe211982c0c0",
                "blocknumber": "1"
            }
        ],
        "sealEngine": "NoProof",
        "_info": {
            "hash": "0x69e2577a178a1b8b72d1cfac62149bb263f045fc414982d58f2068d7ea11795d",
            "fixture-format": "blockchain_test",
            "comment": "`execution-specs` generated test",
            "filling-transition-tool": "2.19.0",
            "description": "Test_callcallcodecallcode_011_suicide_end.",
            "url": "https://github.com/ethereum/execution-specs/blob/tests-bal@v5.6.0/tests/ported_static/stCallDelegateCodesCallCodeHomestead/test_callcallcodecallcode_011_suicide_end.py#L25",
            "metadata": {
                "opcode_count": {}
            }
        }
    }
}