{
    "tests/ported_static/stCallDelegateCodesCallCodeHomestead/test_callcallcodecallcode_011_suicide_end.py::test_callcallcodecallcode_011_suicide_end[fork_Cancun-blockchain_test_from_state_test]": {
        "network": "Cancun",
        "genesisBlockHeader": {
            "parentHash": "0x0000000000000000000000000000000000000000000000000000000000000000",
            "uncleHash": "0x1dcc4de8dec75d7aab85b567b6ccd41ad312451b948a7413f0a142fd40d49347",
            "coinbase": "0x0000000000000000000000000000000000000000",
            "stateRoot": "0x14c618581ca30cc71f197f30bc31caefe9cb23acc5b52d616df5f9b50fdbef0c",
            "transactionsTrie": "0x56e81f171bcc55a6ff8345e692c0f86e5b48e01b996cadc001622fb5e363b421",
            "receiptTrie": "0x56e81f171bcc55a6ff8345e692c0f86e5b48e01b996cadc001622fb5e363b421",
            "bloom": "0x00000000000000000000000000000000000000000000000000000000000000000000000000000000000000000000000000000000000000000000000000000000000000000000000000000000000000000000000000000000000000000000000000000000000000000000000000000000000000000000000000000000000000000000000000000000000000000000000000000000000000000000000000000000000000000000000000000000000000000000000000000000000000000000000000000000000000000000000000000000000000000000000000000000000000000000000000000000000000000000000000000000000000000000000000000000",
            "difficulty": "0x00",
            "number": "0x00",
            "gasLimit": "0x01c9c380",
            "gasUsed": "0x00",
            "timestamp": "0x00",
            "extraData": "0x00",
            "mixHash": "0x0000000000000000000000000000000000000000000000000000000000000000",
            "nonce": "0x0000000000000000",
            "baseFeePerGas": "0x0b",
            "withdrawalsRoot": "0x56e81f171bcc55a6ff8345e692c0f86e5b48e01b996cadc001622fb5e363b421",
            "blobGasUsed": "0x00",
            "excessBlobGas": "0x00",
            "parentBeaconBlockRoot": "0x0000000000000000000000000000000000000000000000000000000000000000",
            "hash": "0x1fb30485ce218b77b5f3b65472cc3aea3ff51f0edb6131205c9e2e833aa02f8b"
        },
        "pre": {
            "0x000f3df6d732807ef1319fb7b8bb8522d0beac02": {
                "nonce": "0x01",
                "balance": "0x00",
                "code": "0x3373fffffffffffffffffffffffffffffffffffffffe14604d57602036146024575f5ffd5b5f35801560495762001fff810690815414603c575f5ffd5b62001fff01545f5260205ff35b5f5ffd5b62001fff42064281555f359062001fff015500",
                "storage": {}
            },
            "0xd66f224cbd2fabb21b17bb53c56118f32f62ebd6": {
                "nonce": "0x00",
                "balance": "0x0de0b6b3a7640000",
                "code": "0x",
                "storage": {}
            },
            "0x73b954ebc05bb0ff4a0f6a13a054d50ad1584099": {
                "nonce": "0x00",
                "balance": "0x02540be400",
                "code": "0x600160035500",
                "storage": {}
            },
            "0xa74ca10b765dcda3b60687f73f2881e2a56eda64": {
                "nonce": "0x00",
                "balance": "0x0de0b6b3a7640000",
                "code": "0x60406000604060006000732cac1d43f00e8b40b63426ab460c7e8717ee6455620249f0f260005500",
                "storage": {}
            },
            "0x2cac1d43f00e8b40b63426ab460c7e8717ee6455": {
                "nonce": "0x00",
                "balance": "0x02540be400",
                "code": "0x604060006040600073ac521409e2fa9526bfe6b827805783d2e307c4ce620186a0f460015500",
                "storage": {}
            },
            "0xac521409e2fa9526bfe6b827805783d2e307c4ce": {
                "nonce": "0x00",
                "balance": "0x02540be400",
                "code": "0x60406000604060007373b954ebc05bb0ff4a0f6a13a054d50ad158409961c350f4600255732cac1d43f00e8b40b63426ab460c7e8717ee6455ff00",
                "storage": {}
            }
        },
        "postState": {
            "0x000f3df6d732807ef1319fb7b8bb8522d0beac02": {
                "nonce": "0x01",
                "balance": "0x00",
                "code": "0x3373fffffffffffffffffffffffffffffffffffffffe14604d57602036146024575f5ffd5b5f35801560495762001fff810690815414603c575f5ffd5b62001fff01545f5260205ff35b5f5ffd5b62001fff42064281555f359062001fff015500",
                "storage": {
                    "0x03e8": "0x03e8"
                }
            },
            "0xd66f224cbd2fabb21b17bb53c56118f32f62ebd6": {
                "nonce": "0x01",
                "balance": "0x0de0b6b3a75156ee",
                "code": "0x",
                "storage": {}
            },
            "0x73b954ebc05bb0ff4a0f6a13a054d50ad1584099": {
                "nonce": "0x00",
                "balance": "0x02540be400",
                "code": "0x600160035500",
                "storage": {}
            },
            "0xa74ca10b765dcda3b60687f73f2881e2a56eda64": {
                "nonce": "0x00",
                "balance": "0x00",
                "code": "0x60406000604060006000732cac1d43f00e8b40b63426ab460c7e8717ee6455620249f0f260005500",
                "storage": {
                    "0x03": "0x01",
                    "0x02": "0x01",
                    "0x01": "0x01",
                    "0x00": "0x01"
                }
            },
            "0x2cac1d43f00e8b40b63426ab460c7e8717ee6455": {
                "nonce": "0x00",
                "balance": "0x0de0b6b5fb6fe400",
                "code": "0x604060006040600073ac521409e2fa9526bfe6b827805783d2e307c4ce620186a0f460015500",
                "storage": {}
            },
            "0xac521409e2fa9526bfe6b827805783d2e307c4ce": {
                "nonce": "0x00",
                "balance": "0x02540be400",
                "code": "0x60406000604060007373b954ebc05bb0ff4a0f6a13a054d50ad158409961c350f4600255732cac1d43f00e8b40b63426ab460c7e8717ee6455ff00",
                "storage": {}
            }
        },
        "lastblockhash": "0xb249ae27bb25a6f0604fddb8988aac68183153e62ad335e4dafc27fd0b8006b8",
        "config": {
            "network": "Cancun",
            "chainid": "0x01",
            "blobSchedule": {
                "Cancun": {
                    "target": "0x03",
                    "max": "0x06",
                    "baseFeeUpdateFraction": "0x32f0ed"
                }
            }
        },
        "genesisRLP": "0xf9023cf90236a00000000000000000000000000000000000000000000000000000000000000000a01dcc4de8dec75d7aab85b567b6ccd41ad312451b948a7413f0a142fd40d49347940000000000000000000000000000000000000000a014c618581ca30cc71f197f30bc31caefe9cb23acc5b52d616df5f9b50fdbef0ca056e81f171bcc55a6ff8345e692c0f86e5b48e01b996cadc001622fb5e363b421a056e81f171bcc55a6ff8345e692c0f86e5b48e01b996cadc001622fb5e363b421b901000000000000000000000000000000000000000000000000000000000000000000000000000000000000000000000000000000000000000000000000000000000000000000000000000000000000000000000000000000000000000000000000000000000000000000000000000000000000000000000000000000000000000000000000000000000000000000000000000000000000000000000000000000000000000000000000000000000000000000000000000000000000000000000000000000000000000000000000000000000000000000000000000000000000000000000000000000000000000000000000000000000000000000000000000000000080808401c9c380808000a000000000000000000000000000000000000000000000000000000000000000008800000000000000000ba056e81f171bcc55a6ff8345e692c0f86e5b48e01b996cadc001622fb5e363b4218080a00000000000000000000000000000000000000000000000000000000000000000c0c0c0",
        "blocks": [
            {
                "blockHeader": {
                    "parentHash": "0x1fb30485ce218b77b5f3b65472cc3aea3ff51f0edb6131205c9e2e833aa02f8b",
                    "uncleHash": "0x1dcc4de8dec75d7aab85b567b6ccd41ad312451b948a7413f0a142fd40d49347",
                    "coinbase": "0x2adc25665018aa1fe0e6bc666dac8fc2697ff9ba",
                    "stateRoot": "0xcf727e2865be1fbe2265ccc7eb6693768c1d50877282ba4bf657747a62592fed",
                    "transactionsTrie": "0x5f782e1bb329cb6f9f33b44579c62d165c028da59a75d98fcb4562e269cda8d6",
                    "receiptTrie": "0x313eaf70e79df77b13ee7342da840c45ca4c32640583f721e76975e692b4a64d",
                    "bloom": "0x00000000000000000000000000000000000000000000000000000000000000000000000000000000000000000000000000000000000000000000000000000000000000000000000000000000000000000000000000000000000000000000000000000000000000000000000000000000000000000000000000000000000000000000000000000000000000000000000000000000000000000000000000000000000000000000000000000000000000000000000000000000000000000000000000000000000000000000000000000000000000000000000000000000000000000000000000000000000000000000000000000000000000000000000000000000",
                    "difficulty": "0x00",
                    "number": "0x01",
                    "gasLimit": "0x01c9c380",
                    "gasUsed": "0x01ddb5",
                    "timestamp": "0x03e8",
                    "extraData": "0x00",
                    "mixHash": "0x0000000000000000000000000000000000000000000000000000000000020000",
                    "nonce": "0x0000000000000000",
                    "baseFeePerGas": "0x0a",
                    "withdrawalsRoot": "0x56e81f171bcc55a6ff8345e692c0f86e5b48e01b996cadc001622fb5e363b421",
                    "blobGasUsed": "0x00",
                    "excessBlobGas": "0x00",
                    "parentBeaconBlockRoot": "0x0000000000000000000000000000000000000000000000000000000000000000",
                    "hash": "0xb249ae27bb25a6f0604fddb8988aac68183153e62ad335e4dafc27fd0b8006b8"
                },
                "transactions": [
                    {
                        "type": "0x00",
                        "chainId": "0x01",
                        "nonce": "0x00",
                        "gasPrice": "0x0a",
                        "gasLimit": "0x2dc6c0",
                        "to": "0xa74ca10b765dcda3b60687f73f2881e2a56eda64",
                        "value": "0x00",
                        "data": "0x",
                        "v": "0x26",
                        "r": "0xf9355f6976e898610ca116d70d0c754955a613e497b7277a0b1da79582f58ea5",
                        "s": "0x0d35b3823043c5733721964a68c7b471c427897acb2fe575adf9d0636c3fb730",
                        "sender": "0xd66f224cbd2fabb21b17bb53c56118f32f62ebd6"
                    }
                ],
                "uncleHeaders": [],
                "withdrawals": [],
                "receipts": [
                    {
                        "transactionHash": "0x6c06b68b663bd4b285db1e51b71cda9822aa900dfa112a669a24916e33c349a7",
                        "type": "0x00",
                        "cumulativeGasUsed": "0x01ddb5",
                        "bloom": "0x00000000000000000000000000000000000000000000000000000000000000000000000000000000000000000000000000000000000000000000000000000000000000000000000000000000000000000000000000000000000000000000000000000000000000000000000000000000000000000000000000000000000000000000000000000000000000000000000000000000000000000000000000000000000000000000000000000000000000000000000000000000000000000000000000000000000000000000000000000000000000000000000000000000000000000000000000000000000000000000000000000000000000000000000000000000",
                        "logs": [],
                        "status": true,
                        "rlp": "0xf90109018301ddb5b9010000000000000000000000000000000000000000000000000000000000000000000000000000000000000000000000000000000000000000000000000000000000000000000000000000000000000000000000000000000000000000000000000000000000000000000000000000000000000000000000000000000000000000000000000000000000000000000000000000000000000000000000000000000000000000000000000000000000000000000000000000000000000000000000000000000000000000000000000000000000000000000000000000000000000000000000000000000000000000000000000000000000000000000000000000000000c0"
                    }
                ],
                "rlp": "0xf902a4f9023ba01fb30485ce218b77b5f3b65472cc3aea3ff51f0edb6131205c9e2e833aa02f8ba01dcc4de8dec75d7aab85b567b6ccd41ad312451b948a7413f0a142fd40d49347942adc25665018aa1fe0e6bc666dac8fc2697ff9baa0cf727e2865be1fbe2265ccc7eb6693768c1d50877282ba4bf657747a62592feda05f782e1bb329cb6f9f33b44579c62d165c028da59a75d98fcb4562e269cda8d6a0313eaf70e79df77b13ee7342da840c45ca4c32640583f721e76975e692b4a64db901000000000000000000000000000000000000000000000000000000000000000000000000000000000000000000000000000000000000000000000000000000000000000000000000000000000000000000000000000000000000000000000000000000000000000000000000000000000000000000000000000000000000000000000000000000000000000000000000000000000000000000000000000000000000000000000000000000000000000000000000000000000000000000000000000000000000000000000000000000000000000000000000000000000000000000000000000000000000000000000000000000000000000000000000000000000080018401c9c3808301ddb58203e800a000000000000000000000000000000000000000000000000000000000000200008800000000000000000aa056e81f171bcc55a6ff8345e692c0f86e5b48e01b996cadc001622fb5e363b4218080a00000000000000000000000000000000000000000000000000000000000000000f862f860800a832dc6c094a74ca10b765dcda3b60687f73f2881e2a56eda64808026a0f9355f6976e898610ca116d70d0c754955a613e497b7277a0b1da79582f58ea5a00d35b3823043c5733721964a68c7b471c427897acb2fe575adf9d0636c3fb730c0c0",
                "blocknumber": "1"
            }
        ],
        "sealEngine": "NoProof",
        "_info": {
            "hash": "0x974a222add22ef8f18288d42cc49a9df477711de35989f5b5ba21c8f319caa80",
            "fixture-format": "blockchain_test",
            "comment": "`execution-specs` generated test",
            "filling-transition-tool": "2.19.0",
            "description": "Test_callcallcodecallcode_011_suicide_end.",
            "url": "https://github.com/ethereum/execution-specs/blob/tests-snobal-devnet-5@v8037.0.0/tests/ported_static/stCallDelegateCodesCallCodeHomestead/test_callcallcodecallcode_011_suicide_end.py#L24",
            "metadata": {
                "opcode_count": {}
            }
        }
    }
}