{
    "tests/tangerine_whistle/eip150_operation_gas_costs/test_eip150_selfdestruct.py::test_initcode_selfdestruct_to_self[fork_Paris-blockchain_test-has_balance]": {
        "network": "Paris",
        "genesisBlockHeader": {
            "parentHash": "0x0000000000000000000000000000000000000000000000000000000000000000",
            "uncleHash": "0x1dcc4de8dec75d7aab85b567b6ccd41ad312451b948a7413f0a142fd40d49347",
            "coinbase": "0x0000000000000000000000000000000000000000",
            "stateRoot": "0xec97b996ef479cb5f25dd62da00eb5a5fca9edbdedf2227387d52bdd0e3b7683",
            "transactionsTrie": "0x56e81f171bcc55a6ff8345e692c0f86e5b48e01b996cadc001622fb5e363b421",
            "receiptTrie": "0x56e81f171bcc55a6ff8345e692c0f86e5b48e01b996cadc001622fb5e363b421",
            "bloom": "0x00000000000000000000000000000000000000000000000000000000000000000000000000000000000000000000000000000000000000000000000000000000000000000000000000000000000000000000000000000000000000000000000000000000000000000000000000000000000000000000000000000000000000000000000000000000000000000000000000000000000000000000000000000000000000000000000000000000000000000000000000000000000000000000000000000000000000000000000000000000000000000000000000000000000000000000000000000000000000000000000000000000000000000000000000000000",
            "difficulty": "0x00",
            "number": "0x00",
            "gasLimit": "0x07270e00",
            "gasUsed": "0x00",
            "timestamp": "0x00",
            "extraData": "0x00",
            "mixHash": "0x0000000000000000000000000000000000000000000000000000000000000000",
            "nonce": "0x0000000000000000",
            "baseFeePerGas": "0x07",
            "hash": "0x0e776a207baa498e56dcaf2ad61b544d956c44f1361af1f6abd7938cfc51f0fc"
        },
        "pre": {
            "0x1ad9bc24818784172ff393bb6f89f094d4d2ca29": {
                "nonce": "0x00",
                "balance": "0x3635c9adc5dea00000",
                "code": "0x",
                "storage": {}
            },
            "0x44adc02f017bab75a312774774c64d09b9af4973": {
                "nonce": "0x01",
                "balance": "0x01",
                "code": "0x6000517dffffffffffffffffffffffffffffffffffffffffffffffffffffffffffff167f30ff00000000000000000000000000000000000000000000000000000000000017600052600260006001f0",
                "storage": {}
            }
        },
        "postState": {
            "0x1ad9bc24818784172ff393bb6f89f094d4d2ca29": {
                "nonce": "0x01",
                "balance": "0x3635c9adc5de9724e4",
                "code": "0x",
                "storage": {}
            },
            "0x44adc02f017bab75a312774774c64d09b9af4973": {
                "nonce": "0x02",
                "balance": "0x00",
                "code": "0x6000517dffffffffffffffffffffffffffffffffffffffffffffffffffffffffffff167f30ff00000000000000000000000000000000000000000000000000000000000017600052600260006001f0",
                "storage": {}
            },
            "0x2adc25665018aa1fe0e6bc666dac8fc2697ff9ba": {
                "nonce": "0x00",
                "balance": "0x02a822",
                "code": "0x",
                "storage": {}
            }
        },
        "lastblockhash": "0x47cbfeb3cc5c750925b8782f7fc4bd1979b723b3e3eeabed99f418f6b0d46710",
        "config": {
            "network": "Paris",
            "chainid": "0x01"
        },
        "genesisRLP": "0xf901f7f901f2a00000000000000000000000000000000000000000000000000000000000000000a01dcc4de8dec75d7aab85b567b6ccd41ad312451b948a7413f0a142fd40d49347940000000000000000000000000000000000000000a0ec97b996ef479cb5f25dd62da00eb5a5fca9edbdedf2227387d52bdd0e3b7683a056e81f171bcc55a6ff8345e692c0f86e5b48e01b996cadc001622fb5e363b421a056e81f171bcc55a6ff8345e692c0f86e5b48e01b996cadc001622fb5e363b421b901000000000000000000000000000000000000000000000000000000000000000000000000000000000000000000000000000000000000000000000000000000000000000000000000000000000000000000000000000000000000000000000000000000000000000000000000000000000000000000000000000000000000000000000000000000000000000000000000000000000000000000000000000000000000000000000000000000000000000000000000000000000000000000000000000000000000000000000000000000000000000000000000000000000000000000000000000000000000000000000000000000000000000000000000000000000080808407270e00808000a0000000000000000000000000000000000000000000000000000000000000000088000000000000000007c0c0",
        "blocks": [
            {
                "blockHeader": {
                    "parentHash": "0x0e776a207baa498e56dcaf2ad61b544d956c44f1361af1f6abd7938cfc51f0fc",
                    "uncleHash": "0x1dcc4de8dec75d7aab85b567b6ccd41ad312451b948a7413f0a142fd40d49347",
                    "coinbase": "0x2adc25665018aa1fe0e6bc666dac8fc2697ff9ba",
                    "stateRoot": "0xa50920c599fa4801f431940f34a605a5ed3fb28597579af6963fa86f685e2b31",
                    "transactionsTrie": "0x203aff5c62a129aed721feee251db0fab112c2d01da055f1fcbb3d30b6a36178",
                    "receiptTrie": "0x1f265a0e7a3dfdb5007e8408b227a13a6a28bdbc13069e34d840cd41b676d808",
                    "bloom": "0x00000000000000000000000000000000000000000000000000000000000000000000000000000000000000000000000000000000000000000000000000000000000000000000000000000000000000000000000000000000000000000000000000000000000000000000000000000000000000000000000000000000000000000000000000000000000000000000000000000000000000000000000000000000000000000000000000000000000000000000000000000000000000000000000000000000000000000000000000000000000000000000000000000000000000000000000000000000000000000000000000000000000000000000000000000000",
                    "difficulty": "0x00",
                    "number": "0x01",
                    "gasLimit": "0x07270e00",
                    "gasUsed": "0xe2b6",
                    "timestamp": "0x0c",
                    "extraData": "0x",
                    "mixHash": "0x0000000000000000000000000000000000000000000000000000000000000000",
                    "nonce": "0x0000000000000000",
                    "baseFeePerGas": "0x07",
                    "hash": "0x47cbfeb3cc5c750925b8782f7fc4bd1979b723b3e3eeabed99f418f6b0d46710"
                },
                "transactions": [
                    {
                        "type": "0x00",
                        "chainId": "0x01",
                        "nonce": "0x00",
                        "gasPrice": "0x0a",
                        "gasLimit": "0x07a120",
                        "to": "0x44adc02f017bab75a312774774c64d09b9af4973",
                        "value": "0x00",
                        "data": "0x",
                        "v": "0x26",
                        "r": "0x321e2111f8e70dfd934e536d3e2bb153e0531df1f7dbf5c832ce6746035a72c4",
                        "s": "0x5451953b3dbf98497f45fd96966d51c721262aa3cb23d5e5f096dc335248dd1b",
                        "sender": "0x1ad9bc24818784172ff393bb6f89f094d4d2ca29"
                    }
                ],
                "uncleHeaders": [],
                "receipts": [
                    {
                        "transactionHash": "0x77442ca194746ea3ee105ff81dbcaf68752509cff0b83ecda58819a9b90b3173",
                        "type": "0x00",
                        "cumulativeGasUsed": "0xe2b6",
                        "bloom": "0x00000000000000000000000000000000000000000000000000000000000000000000000000000000000000000000000000000000000000000000000000000000000000000000000000000000000000000000000000000000000000000000000000000000000000000000000000000000000000000000000000000000000000000000000000000000000000000000000000000000000000000000000000000000000000000000000000000000000000000000000000000000000000000000000000000000000000000000000000000000000000000000000000000000000000000000000000000000000000000000000000000000000000000000000000000000",
                        "logs": [],
                        "status": true,
                        "rlp": "0xf901080182e2b6b9010000000000000000000000000000000000000000000000000000000000000000000000000000000000000000000000000000000000000000000000000000000000000000000000000000000000000000000000000000000000000000000000000000000000000000000000000000000000000000000000000000000000000000000000000000000000000000000000000000000000000000000000000000000000000000000000000000000000000000000000000000000000000000000000000000000000000000000000000000000000000000000000000000000000000000000000000000000000000000000000000000000000000000000000000000000000c0"
                    }
                ],
                "rlp": "0xf9025cf901f4a00e776a207baa498e56dcaf2ad61b544d956c44f1361af1f6abd7938cfc51f0fca01dcc4de8dec75d7aab85b567b6ccd41ad312451b948a7413f0a142fd40d49347942adc25665018aa1fe0e6bc666dac8fc2697ff9baa0a50920c599fa4801f431940f34a605a5ed3fb28597579af6963fa86f685e2b31a0203aff5c62a129aed721feee251db0fab112c2d01da055f1fcbb3d30b6a36178a01f265a0e7a3dfdb5007e8408b227a13a6a28bdbc13069e34d840cd41b676d808b901000000000000000000000000000000000000000000000000000000000000000000000000000000000000000000000000000000000000000000000000000000000000000000000000000000000000000000000000000000000000000000000000000000000000000000000000000000000000000000000000000000000000000000000000000000000000000000000000000000000000000000000000000000000000000000000000000000000000000000000000000000000000000000000000000000000000000000000000000000000000000000000000000000000000000000000000000000000000000000000000000000000000000000000000000000000080018407270e0082e2b60c80a0000000000000000000000000000000000000000000000000000000000000000088000000000000000007f862f860800a8307a1209444adc02f017bab75a312774774c64d09b9af4973808026a0321e2111f8e70dfd934e536d3e2bb153e0531df1f7dbf5c832ce6746035a72c4a05451953b3dbf98497f45fd96966d51c721262aa3cb23d5e5f096dc335248dd1bc0",
                "blocknumber": "1"
            }
        ],
        "sealEngine": "NoProof",
        "_info": {
            "hash": "0xce26945dfe0063c70e2e245f0e6acd8214d2d1343e8eae50b65501454f5e3812",
            "fixture-format": "blockchain_test",
            "comment": "`execution-specs` generated test",
            "filling-transition-tool": "2.19.0",
            "description": "Test SELFDESTRUCT during initcode execution where beneficiary is self.\n\nUnlike test_selfdestruct_to_self, this tests the case where the initcode\nitself executes SELFDESTRUCT(ADDRESS) during contract creation, before\nany code is deployed.\n\nKey characteristics:\n- During initcode, the contract has no code yet\n- Contract has nonce=1 (post-EIP-161) making it non-empty\n- Beneficiary is always warm (it's the executing contract)\n- No G_NEW_ACCOUNT charge (contract has nonce > 0)\n- No cold access charge (>=Berlin)\n\nNote: Gas boundary testing not possible for initcode since CREATE\ndoesn't accept a gas parameter - it uses all available gas.",
            "url": "https://github.com/ethereum/execution-specs/blob/tests-bal@v5.3.0/tests/tangerine_whistle/eip150_operation_gas_costs/test_eip150_selfdestruct.py#L1122",
            "opcode_count": {},
            "reference-spec": "https://github.com/ethereum/EIPs/blob/master/EIPS/eip-150.md",
            "reference-spec-version": "34acf72522b989d86e76efcaf42eba4cdb0b31ad"
        }
    },
    "tests/tangerine_whistle/eip150_operation_gas_costs/test_eip150_selfdestruct.py::test_initcode_selfdestruct_to_self[fork_Paris-blockchain_test-no_balance]": {
        "network": "Paris",
        "genesisBlockHeader": {
            "parentHash": "0x0000000000000000000000000000000000000000000000000000000000000000",
            "uncleHash": "0x1dcc4de8dec75d7aab85b567b6ccd41ad312451b948a7413f0a142fd40d49347",
            "coinbase": "0x0000000000000000000000000000000000000000",
            "stateRoot": "0x243dfa220e18377533a5ee0afba00a78218d4a046af382ac685381d0ae1794f8",
            "transactionsTrie": "0x56e81f171bcc55a6ff8345e692c0f86e5b48e01b996cadc001622fb5e363b421",
            "receiptTrie": "0x56e81f171bcc55a6ff8345e692c0f86e5b48e01b996cadc001622fb5e363b421",
            "bloom": "0x00000000000000000000000000000000000000000000000000000000000000000000000000000000000000000000000000000000000000000000000000000000000000000000000000000000000000000000000000000000000000000000000000000000000000000000000000000000000000000000000000000000000000000000000000000000000000000000000000000000000000000000000000000000000000000000000000000000000000000000000000000000000000000000000000000000000000000000000000000000000000000000000000000000000000000000000000000000000000000000000000000000000000000000000000000000",
            "difficulty": "0x00",
            "number": "0x00",
            "gasLimit": "0x07270e00",
            "gasUsed": "0x00",
            "timestamp": "0x00",
            "extraData": "0x00",
            "mixHash": "0x0000000000000000000000000000000000000000000000000000000000000000",
            "nonce": "0x0000000000000000",
            "baseFeePerGas": "0x07",
            "hash": "0x645fb253b7d487e203dc3d9a0c22c7e857dd35c470c08f216114eacc4b6b3729"
        },
        "pre": {
            "0x1ad9bc24818784172ff393bb6f89f094d4d2ca29": {
                "nonce": "0x00",
                "balance": "0x3635c9adc5dea00000",
                "code": "0x",
                "storage": {}
            },
            "0xe92b8d8f5351de41ebf291bb8519ca536c359a16": {
                "nonce": "0x01",
                "balance": "0x00",
                "code": "0x6000517dffffffffffffffffffffffffffffffffffffffffffffffffffffffffffff167f30ff00000000000000000000000000000000000000000000000000000000000017600052600260006000f0",
                "storage": {}
            }
        },
        "postState": {
            "0x1ad9bc24818784172ff393bb6f89f094d4d2ca29": {
                "nonce": "0x01",
                "balance": "0x3635c9adc5de9724e4",
                "code": "0x",
                "storage": {}
            },
            "0xe92b8d8f5351de41ebf291bb8519ca536c359a16": {
                "nonce": "0x02",
                "balance": "0x00",
                "code": "0x6000517dffffffffffffffffffffffffffffffffffffffffffffffffffffffffffff167f30ff00000000000000000000000000000000000000000000000000000000000017600052600260006000f0",
                "storage": {}
            },
            "0x2adc25665018aa1fe0e6bc666dac8fc2697ff9ba": {
                "nonce": "0x00",
                "balance": "0x02a822",
                "code": "0x",
                "storage": {}
            }
        },
        "lastblockhash": "0x2e1049a60170ac77397e5eb24251d5077638d5146dc0f6f60e9f544bbc0d0f0b",
        "config": {
            "network": "Paris",
            "chainid": "0x01"
        },
        "genesisRLP": "0xf901f7f901f2a00000000000000000000000000000000000000000000000000000000000000000a01dcc4de8dec75d7aab85b567b6ccd41ad312451b948a7413f0a142fd40d49347940000000000000000000000000000000000000000a0243dfa220e18377533a5ee0afba00a78218d4a046af382ac685381d0ae1794f8a056e81f171bcc55a6ff8345e692c0f86e5b48e01b996cadc001622fb5e363b421a056e81f171bcc55a6ff8345e692c0f86e5b48e01b996cadc001622fb5e363b421b901000000000000000000000000000000000000000000000000000000000000000000000000000000000000000000000000000000000000000000000000000000000000000000000000000000000000000000000000000000000000000000000000000000000000000000000000000000000000000000000000000000000000000000000000000000000000000000000000000000000000000000000000000000000000000000000000000000000000000000000000000000000000000000000000000000000000000000000000000000000000000000000000000000000000000000000000000000000000000000000000000000000000000000000000000000000080808407270e00808000a0000000000000000000000000000000000000000000000000000000000000000088000000000000000007c0c0",
        "blocks": [
            {
                "blockHeader": {
                    "parentHash": "0x645fb253b7d487e203dc3d9a0c22c7e857dd35c470c08f216114eacc4b6b3729",
                    "uncleHash": "0x1dcc4de8dec75d7aab85b567b6ccd41ad312451b948a7413f0a142fd40d49347",
                    "coinbase": "0x2adc25665018aa1fe0e6bc666dac8fc2697ff9ba",
                    "stateRoot": "0x9a2b260308e61f6a18ec4bc4950585076b35a47d2f49c6068b9e5e5c5b03a2ca",
                    "transactionsTrie": "0x991ef027cef31e978e9f1e09ce654039f1bf94346d1defaac2d92dcbeb509482",
                    "receiptTrie": "0x1f265a0e7a3dfdb5007e8408b227a13a6a28bdbc13069e34d840cd41b676d808",
                    "bloom": "0x00000000000000000000000000000000000000000000000000000000000000000000000000000000000000000000000000000000000000000000000000000000000000000000000000000000000000000000000000000000000000000000000000000000000000000000000000000000000000000000000000000000000000000000000000000000000000000000000000000000000000000000000000000000000000000000000000000000000000000000000000000000000000000000000000000000000000000000000000000000000000000000000000000000000000000000000000000000000000000000000000000000000000000000000000000000",
                    "difficulty": "0x00",
                    "number": "0x01",
                    "gasLimit": "0x07270e00",
                    "gasUsed": "0xe2b6",
                    "timestamp": "0x0c",
                    "extraData": "0x",
                    "mixHash": "0x0000000000000000000000000000000000000000000000000000000000000000",
                    "nonce": "0x0000000000000000",
                    "baseFeePerGas": "0x07",
                    "hash": "0x2e1049a60170ac77397e5eb24251d5077638d5146dc0f6f60e9f544bbc0d0f0b"
                },
                "transactions": [
                    {
                        "type": "0x00",
                        "chainId": "0x01",
                        "nonce": "0x00",
                        "gasPrice": "0x0a",
                        "gasLimit": "0x07a120",
                        "to": "0xe92b8d8f5351de41ebf291bb8519ca536c359a16",
                        "value": "0x00",
                        "data": "0x",
                        "v": "0x26",
                        "r": "0x0d21a66b6bd1eb23ce803e3ab54605353a2a0e897e49349a66b71d17a180b331",
                        "s": "0x1b17dc5320d4a764336b4e3c701a089d2c11eb027717484174617c7b76ab9bfc",
                        "sender": "0x1ad9bc24818784172ff393bb6f89f094d4d2ca29"
                    }
                ],
                "uncleHeaders": [],
                "receipts": [
                    {
                        "transactionHash": "0x6ca6f3ebf4563edf8dad910ec3af1085e4542dea990f420f32bdc8a289e13ef0",
                        "type": "0x00",
                        "cumulativeGasUsed": "0xe2b6",
                        "bloom": "0x00000000000000000000000000000000000000000000000000000000000000000000000000000000000000000000000000000000000000000000000000000000000000000000000000000000000000000000000000000000000000000000000000000000000000000000000000000000000000000000000000000000000000000000000000000000000000000000000000000000000000000000000000000000000000000000000000000000000000000000000000000000000000000000000000000000000000000000000000000000000000000000000000000000000000000000000000000000000000000000000000000000000000000000000000000000",
                        "logs": [],
                        "status": true,
                        "rlp": "0xf901080182e2b6b9010000000000000000000000000000000000000000000000000000000000000000000000000000000000000000000000000000000000000000000000000000000000000000000000000000000000000000000000000000000000000000000000000000000000000000000000000000000000000000000000000000000000000000000000000000000000000000000000000000000000000000000000000000000000000000000000000000000000000000000000000000000000000000000000000000000000000000000000000000000000000000000000000000000000000000000000000000000000000000000000000000000000000000000000000000000000c0"
                    }
                ],
                "rlp": "0xf9025cf901f4a0645fb253b7d487e203dc3d9a0c22c7e857dd35c470c08f216114eacc4b6b3729a01dcc4de8dec75d7aab85b567b6ccd41ad312451b948a7413f0a142fd40d49347942adc25665018aa1fe0e6bc666dac8fc2697ff9baa09a2b260308e61f6a18ec4bc4950585076b35a47d2f49c6068b9e5e5c5b03a2caa0991ef027cef31e978e9f1e09ce654039f1bf94346d1defaac2d92dcbeb509482a01f265a0e7a3dfdb5007e8408b227a13a6a28bdbc13069e34d840cd41b676d808b901000000000000000000000000000000000000000000000000000000000000000000000000000000000000000000000000000000000000000000000000000000000000000000000000000000000000000000000000000000000000000000000000000000000000000000000000000000000000000000000000000000000000000000000000000000000000000000000000000000000000000000000000000000000000000000000000000000000000000000000000000000000000000000000000000000000000000000000000000000000000000000000000000000000000000000000000000000000000000000000000000000000000000000000000000000000080018407270e0082e2b60c80a0000000000000000000000000000000000000000000000000000000000000000088000000000000000007f862f860800a8307a12094e92b8d8f5351de41ebf291bb8519ca536c359a16808026a00d21a66b6bd1eb23ce803e3ab54605353a2a0e897e49349a66b71d17a180b331a01b17dc5320d4a764336b4e3c701a089d2c11eb027717484174617c7b76ab9bfcc0",
                "blocknumber": "1"
            }
        ],
        "sealEngine": "NoProof",
        "_info": {
            "hash": "0x6584d7a51eb5542400ebaa8ebb6e8d03217b1327ae6120ae3dc126fbcf39dbf3",
            "fixture-format": "blockchain_test",
            "comment": "`execution-specs` generated test",
            "filling-transition-tool": "2.19.0",
            "description": "Test SELFDESTRUCT during initcode execution where beneficiary is self.\n\nUnlike test_selfdestruct_to_self, this tests the case where the initcode\nitself executes SELFDESTRUCT(ADDRESS) during contract creation, before\nany code is deployed.\n\nKey characteristics:\n- During initcode, the contract has no code yet\n- Contract has nonce=1 (post-EIP-161) making it non-empty\n- Beneficiary is always warm (it's the executing contract)\n- No G_NEW_ACCOUNT charge (contract has nonce > 0)\n- No cold access charge (>=Berlin)\n\nNote: Gas boundary testing not possible for initcode since CREATE\ndoesn't accept a gas parameter - it uses all available gas.",
            "url": "https://github.com/ethereum/execution-specs/blob/tests-bal@v5.3.0/tests/tangerine_whistle/eip150_operation_gas_costs/test_eip150_selfdestruct.py#L1122",
            "opcode_count": {},
            "reference-spec": "https://github.com/ethereum/EIPs/blob/master/EIPS/eip-150.md",
            "reference-spec-version": "34acf72522b989d86e76efcaf42eba4cdb0b31ad"
        }
    }
}