{
    "tests/ported_static/stSolidityTest/test_test_overflow.py::test_test_overflow[fork_Cancun-blockchain_test_from_state_test]": {
        "network": "Cancun",
        "genesisBlockHeader": {
            "parentHash": "0x0000000000000000000000000000000000000000000000000000000000000000",
            "uncleHash": "0x1dcc4de8dec75d7aab85b567b6ccd41ad312451b948a7413f0a142fd40d49347",
            "coinbase": "0x0000000000000000000000000000000000000000",
            "stateRoot": "0x7cc779505cf11139531eb6468fe87c3cbb87dd93241bcce8e8774bd20bfd8751",
            "transactionsTrie": "0x56e81f171bcc55a6ff8345e692c0f86e5b48e01b996cadc001622fb5e363b421",
            "receiptTrie": "0x56e81f171bcc55a6ff8345e692c0f86e5b48e01b996cadc001622fb5e363b421",
            "bloom": "0x00000000000000000000000000000000000000000000000000000000000000000000000000000000000000000000000000000000000000000000000000000000000000000000000000000000000000000000000000000000000000000000000000000000000000000000000000000000000000000000000000000000000000000000000000000000000000000000000000000000000000000000000000000000000000000000000000000000000000000000000000000000000000000000000000000000000000000000000000000000000000000000000000000000000000000000000000000000000000000000000000000000000000000000000000000000",
            "difficulty": "0x00",
            "number": "0x00",
            "gasLimit": "0x07270e00",
            "gasUsed": "0x00",
            "timestamp": "0x00",
            "extraData": "0x00",
            "mixHash": "0x0000000000000000000000000000000000000000000000000000000000000000",
            "nonce": "0x0000000000000000",
            "baseFeePerGas": "0x0b",
            "withdrawalsRoot": "0x56e81f171bcc55a6ff8345e692c0f86e5b48e01b996cadc001622fb5e363b421",
            "blobGasUsed": "0x00",
            "excessBlobGas": "0x00",
            "parentBeaconBlockRoot": "0x0000000000000000000000000000000000000000000000000000000000000000",
            "hash": "0x08b7cb7ba42606cfdffc48403aef7d1a2908f09b13a370f37062e411e4f1d329"
        },
        "pre": {
            "0x000f3df6d732807ef1319fb7b8bb8522d0beac02": {
                "nonce": "0x01",
                "balance": "0x00",
                "code": "0x3373fffffffffffffffffffffffffffffffffffffffe14604d57602036146024575f5ffd5b5f35801560495762001fff810690815414603c575f5ffd5b62001fff01545f5260205ff35b5f5ffd5b62001fff42064281555f359062001fff015500",
                "storage": {}
            },
            "0x1a5a251a7e18ebc1a8ebfc47e3f36d9be03f1627": {
                "nonce": "0x00",
                "balance": "0x0186a0",
                "code": "0x6000357c0100000000000000000000000000000000000000000000000000000000900480638040cac41461003a578063c04062261461004c57005b610042610099565b8060005260206000f35b61005461005e565b8060005260206000f35b6000610068610099565b600060006101000a81548160ff02191690830217905550600060009054906101000a900460ff169050610096565b90565b60006000600060006001935083507fffffffffffffffffffffffffffffffffffffffffffffffffffffffffffffffff925060006001840114156100db576100e4565b6000935061013b565b63ffffffff915060006001830163ffffffff1614156101025761010b565b6000935061013b565b67ffffffffffffffff905060006001820167ffffffffffffffff1614156101315761013a565b6000935061013b565b5b5050509056",
                "storage": {}
            },
            "0x73c241c3bc4fdf83b6ff3ae73735fddf7c9d711d": {
                "nonce": "0x00",
                "balance": "0x012a05f200",
                "code": "0x",
                "storage": {}
            }
        },
        "postState": {
            "0x000f3df6d732807ef1319fb7b8bb8522d0beac02": {
                "nonce": "0x01",
                "balance": "0x00",
                "code": "0x3373fffffffffffffffffffffffffffffffffffffffe14604d57602036146024575f5ffd5b5f35801560495762001fff810690815414603c575f5ffd5b62001fff01545f5260205ff35b5f5ffd5b62001fff42064281555f359062001fff015500",
                "storage": {
                    "0x03e8": "0x03e8"
                }
            },
            "0x1a5a251a7e18ebc1a8ebfc47e3f36d9be03f1627": {
                "nonce": "0x00",
                "balance": "0x0186a0",
                "code": "0x6000357c0100000000000000000000000000000000000000000000000000000000900480638040cac41461003a578063c04062261461004c57005b610042610099565b8060005260206000f35b61005461005e565b8060005260206000f35b6000610068610099565b600060006101000a81548160ff02191690830217905550600060009054906101000a900460ff169050610096565b90565b60006000600060006001935083507fffffffffffffffffffffffffffffffffffffffffffffffffffffffffffffffff925060006001840114156100db576100e4565b6000935061013b565b63ffffffff915060006001830163ffffffff1614156101025761010b565b6000935061013b565b67ffffffffffffffff905060006001820167ffffffffffffffff1614156101315761013a565b6000935061013b565b5b5050509056",
                "storage": {
                    "0x00": "0x01"
                }
            },
            "0x73c241c3bc4fdf83b6ff3ae73735fddf7c9d711d": {
                "nonce": "0x01",
                "balance": "0x0129ff4680",
                "code": "0x",
                "storage": {}
            }
        },
        "lastblockhash": "0x95d117edba11edf0074b78af0ced24e16a5cb7979b9611c28da6432e11dd8e4c",
        "config": {
            "network": "Cancun",
            "chainid": "0x01",
            "blobSchedule": {
                "Cancun": {
                    "target": "0x03",
                    "max": "0x06",
                    "baseFeeUpdateFraction": "0x32f0ed"
                }
            }
        },
        "genesisRLP": "0xf9023cf90236a00000000000000000000000000000000000000000000000000000000000000000a01dcc4de8dec75d7aab85b567b6ccd41ad312451b948a7413f0a142fd40d49347940000000000000000000000000000000000000000a07cc779505cf11139531eb6468fe87c3cbb87dd93241bcce8e8774bd20bfd8751a056e81f171bcc55a6ff8345e692c0f86e5b48e01b996cadc001622fb5e363b421a056e81f171bcc55a6ff8345e692c0f86e5b48e01b996cadc001622fb5e363b421b901000000000000000000000000000000000000000000000000000000000000000000000000000000000000000000000000000000000000000000000000000000000000000000000000000000000000000000000000000000000000000000000000000000000000000000000000000000000000000000000000000000000000000000000000000000000000000000000000000000000000000000000000000000000000000000000000000000000000000000000000000000000000000000000000000000000000000000000000000000000000000000000000000000000000000000000000000000000000000000000000000000000000000000000000000000000080808407270e00808000a000000000000000000000000000000000000000000000000000000000000000008800000000000000000ba056e81f171bcc55a6ff8345e692c0f86e5b48e01b996cadc001622fb5e363b4218080a00000000000000000000000000000000000000000000000000000000000000000c0c0c0",
        "blocks": [
            {
                "blockHeader": {
                    "parentHash": "0x08b7cb7ba42606cfdffc48403aef7d1a2908f09b13a370f37062e411e4f1d329",
                    "uncleHash": "0x1dcc4de8dec75d7aab85b567b6ccd41ad312451b948a7413f0a142fd40d49347",
                    "coinbase": "0x2adc25665018aa1fe0e6bc666dac8fc2697ff9ba",
                    "stateRoot": "0x5eeb4968c3fdeb62adc867495f0ffa960dacc8860987b8121b0b9a5e4d905fb0",
                    "transactionsTrie": "0xed1ea27d90a24402e16434bfcf07acfd8d1cab8d0cb66ec1bf982d932163949d",
                    "receiptTrie": "0x582b5d41fe5cff5a82b14101c29489fee652b7a351a537d0fe2451851e3d2d8a",
                    "bloom": "0x00000000000000000000000000000000000000000000000000000000000000000000000000000000000000000000000000000000000000000000000000000000000000000000000000000000000000000000000000000000000000000000000000000000000000000000000000000000000000000000000000000000000000000000000000000000000000000000000000000000000000000000000000000000000000000000000000000000000000000000000000000000000000000000000000000000000000000000000000000000000000000000000000000000000000000000000000000000000000000000000000000000000000000000000000000000",
                    "difficulty": "0x00",
                    "number": "0x01",
                    "gasLimit": "0x07270e00",
                    "gasUsed": "0xaac0",
                    "timestamp": "0x03e8",
                    "extraData": "0x00",
                    "mixHash": "0x0000000000000000000000000000000000000000000000000000000000020000",
                    "nonce": "0x0000000000000000",
                    "baseFeePerGas": "0x0a",
                    "withdrawalsRoot": "0x56e81f171bcc55a6ff8345e692c0f86e5b48e01b996cadc001622fb5e363b421",
                    "blobGasUsed": "0x00",
                    "excessBlobGas": "0x00",
                    "parentBeaconBlockRoot": "0x0000000000000000000000000000000000000000000000000000000000000000",
                    "hash": "0x95d117edba11edf0074b78af0ced24e16a5cb7979b9611c28da6432e11dd8e4c"
                },
                "transactions": [
                    {
                        "type": "0x00",
                        "chainId": "0x01",
                        "nonce": "0x00",
                        "gasPrice": "0x0a",
                        "gasLimit": "0x0186a0",
                        "to": "0x1a5a251a7e18ebc1a8ebfc47e3f36d9be03f1627",
                        "value": "0x00",
                        "data": "0xc0406226",
                        "v": "0x25",
                        "r": "0x781153cb21337abb4250ad1a0e87aa220a187ae057ed31d2fc5e132d0c1e622f",
                        "s": "0x746987725b65b57ae12bf2273d19ee2cf6a5b8dc1cb479b16afa8ba8882b6485",
                        "sender": "0x73c241c3bc4fdf83b6ff3ae73735fddf7c9d711d"
                    }
                ],
                "uncleHeaders": [],
                "withdrawals": [],
                "receipts": [
                    {
                        "transactionHash": "0x19f739aee33b5b8fe6faad6433a4341ab27630f2390fd11c323e47d6ddfc911d",
                        "type": "0x00",
                        "cumulativeGasUsed": "0xaac0",
                        "bloom": "0x00000000000000000000000000000000000000000000000000000000000000000000000000000000000000000000000000000000000000000000000000000000000000000000000000000000000000000000000000000000000000000000000000000000000000000000000000000000000000000000000000000000000000000000000000000000000000000000000000000000000000000000000000000000000000000000000000000000000000000000000000000000000000000000000000000000000000000000000000000000000000000000000000000000000000000000000000000000000000000000000000000000000000000000000000000000",
                        "logs": [],
                        "status": true,
                        "rlp": "0xf901080182aac0b9010000000000000000000000000000000000000000000000000000000000000000000000000000000000000000000000000000000000000000000000000000000000000000000000000000000000000000000000000000000000000000000000000000000000000000000000000000000000000000000000000000000000000000000000000000000000000000000000000000000000000000000000000000000000000000000000000000000000000000000000000000000000000000000000000000000000000000000000000000000000000000000000000000000000000000000000000000000000000000000000000000000000000000000000000000000000c0"
                    }
                ],
                "rlp": "0xf902a7f9023aa008b7cb7ba42606cfdffc48403aef7d1a2908f09b13a370f37062e411e4f1d329a01dcc4de8dec75d7aab85b567b6ccd41ad312451b948a7413f0a142fd40d49347942adc25665018aa1fe0e6bc666dac8fc2697ff9baa05eeb4968c3fdeb62adc867495f0ffa960dacc8860987b8121b0b9a5e4d905fb0a0ed1ea27d90a24402e16434bfcf07acfd8d1cab8d0cb66ec1bf982d932163949da0582b5d41fe5cff5a82b14101c29489fee652b7a351a537d0fe2451851e3d2d8ab901000000000000000000000000000000000000000000000000000000000000000000000000000000000000000000000000000000000000000000000000000000000000000000000000000000000000000000000000000000000000000000000000000000000000000000000000000000000000000000000000000000000000000000000000000000000000000000000000000000000000000000000000000000000000000000000000000000000000000000000000000000000000000000000000000000000000000000000000000000000000000000000000000000000000000000000000000000000000000000000000000000000000000000000000000000000080018407270e0082aac08203e800a000000000000000000000000000000000000000000000000000000000000200008800000000000000000aa056e81f171bcc55a6ff8345e692c0f86e5b48e01b996cadc001622fb5e363b4218080a00000000000000000000000000000000000000000000000000000000000000000f866f864800a830186a0941a5a251a7e18ebc1a8ebfc47e3f36d9be03f16278084c040622625a0781153cb21337abb4250ad1a0e87aa220a187ae057ed31d2fc5e132d0c1e622fa0746987725b65b57ae12bf2273d19ee2cf6a5b8dc1cb479b16afa8ba8882b6485c0c0",
                "blocknumber": "1"
            }
        ],
        "sealEngine": "NoProof",
        "_info": {
            "hash": "0xbe35a85aaa2bcb6a208b21b0a3535f933b23144c5961a3e5e21874a116582fa1",
            "fixture-format": "blockchain_test",
            "comment": "`execution-specs` generated test",
            "filling-transition-tool": "2.19.0",
            "description": "Test_test_overflow.",
            "url": "https://github.com/ethereum/execution-specs/blob/tests-bal@v5.7.0/tests/ported_static/stSolidityTest/test_test_overflow.py#L25",
            "metadata": {
                "opcode_count": {}
            }
        }
    }
}