{
    "tests/static/state_tests/stEIP2930/manualCreateFiller.yml::manualCreate[fork_Cancun-state_test-addrGoodCellBad]": {
        "env": {
            "currentCoinbase": "0x2adc25665018aa1fe0e6bc666dac8fc2697ff9ba",
            "currentGasLimit": "0xff112233445566",
            "currentNumber": "0x01",
            "currentTimestamp": "0x03e8",
            "currentRandom": "0x0000000000000000000000000000000000000000000000000000000000020000",
            "currentDifficulty": "0x00",
            "currentBaseFee": "0x0a",
            "currentExcessBlobGas": "0x00"
        },
        "pre": {
            "0xa94f5374fce5edbc8e2a8697c15331677e6ebf0b": {
                "nonce": "0x01",
                "balance": "0x01000000000000000000",
                "code": "0x",
                "storage": {}
            }
        },
        "transaction": {
            "nonce": "0x01",
            "gasPrice": "0x0a",
            "gasLimit": [
                "0x061a80"
            ],
            "value": [
                "0x00"
            ],
            "data": [
                "0x5a3031505a90036001555a60ff6000555a900360005500"
            ],
            "accessLists": [
                [
                    {
                        "address": "0xec0e71ad0a90ffe1909d27dac207f7680abba42d",
                        "storageKeys": [
                            "0x0000000000000000000000000000000000000000000000000000000000000001"
                        ]
                    }
                ]
            ],
            "sender": "0xa94f5374fce5edbc8e2a8697c15331677e6ebf0b",
            "secretKey": "0x45a915e4d060149eb4365960e6a7a45f334393093061116b197e3240065ff2d8",
            "to": ""
        },
        "post": {
            "Cancun": [
                {
                    "hash": "0x22ee78ebdbe6330440897546562e8df3482622fd1094d7a3004625bf0fe8928b",
                    "logs": "0x1dcc4de8dec75d7aab85b567b6ccd41ad312451b948a7413f0a142fd40d49347",
                    "txbytes": "0x01f89e01010a83061a808080975a3031505a90036001555a60ff6000555a900360005500f838f794ec0e71ad0a90ffe1909d27dac207f7680abba42de1a0000000000000000000000000000000000000000000000000000000000000000101a001ca31f0900d1cff85308441b91a2bb77f60f92c9aa41f08b84d121ede10498ba06ea1c97852769a04d15498188ed4467ee6773dc06e1067d95b18d9c6e264be6c",
                    "indexes": {
                        "data": 0,
                        "gas": 0,
                        "value": 0
                    },
                    "state": {
                        "0xa94f5374fce5edbc8e2a8697c15331677e6ebf0b": {
                            "nonce": "0x02",
                            "balance": "0xfffffffffffff0beec",
                            "code": "0x",
                            "storage": {}
                        },
                        "0xec0e71ad0a90ffe1909d27dac207f7680abba42d": {
                            "nonce": "0x01",
                            "balance": "0x00",
                            "code": "0x",
                            "storage": {
                                "0x01": "0x6a",
                                "0x00": "0x565c"
                            }
                        }
                    }
                }
            ]
        },
        "config": {
            "blobSchedule": {
                "Cancun": {
                    "target": "0x03",
                    "max": "0x06",
                    "baseFeeUpdateFraction": "0x32f0ed"
                }
            },
            "chainid": "0x01"
        },
        "_info": {
            "hash": "0x04dc64b950b2ce7434e915834105e62e3791200a588186a606b0e84bbf4e381b",
            "comment": "`execution-specs` generated test",
            "filling-transition-tool": "2.18.0rc6",
            "description": "No description available - add a docstring to the python test class or function.",
            "url": "",
            "fixture-format": "state_test",
            "reference-spec": "https://github.com/ethereum/EIPs/blob/master/",
            "reference-spec-version": ""
        }
    },
    "tests/static/state_tests/stEIP2930/manualCreateFiller.yml::manualCreate[fork_Cancun-state_test-allBad]": {
        "env": {
            "currentCoinbase": "0x2adc25665018aa1fe0e6bc666dac8fc2697ff9ba",
            "currentGasLimit": "0xff112233445566",
            "currentNumber": "0x01",
            "currentTimestamp": "0x03e8",
            "currentRandom": "0x0000000000000000000000000000000000000000000000000000000000020000",
            "currentDifficulty": "0x00",
            "currentBaseFee": "0x0a",
            "currentExcessBlobGas": "0x00"
        },
        "pre": {
            "0xa94f5374fce5edbc8e2a8697c15331677e6ebf0b": {
                "nonce": "0x01",
                "balance": "0x01000000000000000000",
                "code": "0x",
                "storage": {}
            }
        },
        "transaction": {
            "nonce": "0x01",
            "gasPrice": "0x0a",
            "gasLimit": [
                "0x061a80"
            ],
            "value": [
                "0x00"
            ],
            "data": [
                "0x5a3031505a90036001555a60ff6000555a900360005500"
            ],
            "accessLists": [
                [
                    {
                        "address": "0x0000000000000000000000000000000000000100",
                        "storageKeys": [
                            "0x0000000000000000000000000000000000000000000000000000000000000000"
                        ]
                    }
                ]
            ],
            "sender": "0xa94f5374fce5edbc8e2a8697c15331677e6ebf0b",
            "secretKey": "0x45a915e4d060149eb4365960e6a7a45f334393093061116b197e3240065ff2d8",
            "to": ""
        },
        "post": {
            "Cancun": [
                {
                    "hash": "0x50b43fdcde72c62c1015c8849758abcfe5fc0e4ac7b8920d25b4f8bca7fba476",
                    "logs": "0x1dcc4de8dec75d7aab85b567b6ccd41ad312451b948a7413f0a142fd40d49347",
                    "txbytes": "0x01f89e01010a83061a808080975a3031505a90036001555a60ff6000555a900360005500f838f7940000000000000000000000000000000000000100e1a0000000000000000000000000000000000000000000000000000000000000000001a00454375860ec988e662d2e850993d5911bea5eed19e337485582473bc6b25762a0567e77442152378e8dc3ecf3c604ddd173b379e9b90e66c58fc520452c352746",
                    "indexes": {
                        "data": 0,
                        "gas": 0,
                        "value": 0
                    },
                    "state": {
                        "0xa94f5374fce5edbc8e2a8697c15331677e6ebf0b": {
                            "nonce": "0x02",
                            "balance": "0xfffffffffffff06ce4",
                            "code": "0x",
                            "storage": {}
                        },
                        "0xec0e71ad0a90ffe1909d27dac207f7680abba42d": {
                            "nonce": "0x01",
                            "balance": "0x00",
                            "code": "0x",
                            "storage": {
                                "0x01": "0x6a",
                                "0x00": "0x565c"
                            }
                        }
                    }
                }
            ]
        },
        "config": {
            "blobSchedule": {
                "Cancun": {
                    "target": "0x03",
                    "max": "0x06",
                    "baseFeeUpdateFraction": "0x32f0ed"
                }
            },
            "chainid": "0x01"
        },
        "_info": {
            "hash": "0x3e6557a5cabb16f9cde31da759f9f1dc80571c7a781cbdbeea4a603682bb0323",
            "comment": "`execution-specs` generated test",
            "filling-transition-tool": "2.18.0rc6",
            "description": "No description available - add a docstring to the python test class or function.",
            "url": "",
            "fixture-format": "state_test",
            "reference-spec": "https://github.com/ethereum/EIPs/blob/master/",
            "reference-spec-version": ""
        }
    },
    "tests/static/state_tests/stEIP2930/manualCreateFiller.yml::manualCreate[fork_Cancun-state_test-allGood]": {
        "env": {
            "currentCoinbase": "0x2adc25665018aa1fe0e6bc666dac8fc2697ff9ba",
            "currentGasLimit": "0xff112233445566",
            "currentNumber": "0x01",
            "currentTimestamp": "0x03e8",
            "currentRandom": "0x0000000000000000000000000000000000000000000000000000000000020000",
            "currentDifficulty": "0x00",
            "currentBaseFee": "0x0a",
            "currentExcessBlobGas": "0x00"
        },
        "pre": {
            "0xa94f5374fce5edbc8e2a8697c15331677e6ebf0b": {
                "nonce": "0x01",
                "balance": "0x01000000000000000000",
                "code": "0x",
                "storage": {}
            }
        },
        "transaction": {
            "nonce": "0x01",
            "gasPrice": "0x0a",
            "gasLimit": [
                "0x061a80"
            ],
            "value": [
                "0x00"
            ],
            "data": [
                "0x5a3031505a90036001555a60ff6000555a900360005500"
            ],
            "accessLists": [
                [
                    {
                        "address": "0xec0e71ad0a90ffe1909d27dac207f7680abba42d",
                        "storageKeys": [
                            "0x0000000000000000000000000000000000000000000000000000000000000000"
                        ]
                    }
                ]
            ],
            "sender": "0xa94f5374fce5edbc8e2a8697c15331677e6ebf0b",
            "secretKey": "0x45a915e4d060149eb4365960e6a7a45f334393093061116b197e3240065ff2d8",
            "to": ""
        },
        "post": {
            "Cancun": [
                {
                    "hash": "0x660459aa7b5dacffd545592d05291ba6fb861a7bde26c654698cf9ec2864872a",
                    "logs": "0x1dcc4de8dec75d7aab85b567b6ccd41ad312451b948a7413f0a142fd40d49347",
                    "txbytes": "0x01f89e01010a83061a808080975a3031505a90036001555a60ff6000555a900360005500f838f794ec0e71ad0a90ffe1909d27dac207f7680abba42de1a0000000000000000000000000000000000000000000000000000000000000000080a0624806136601d18806233d5ec831f6926ff892c3fbdd32b0a0a694501036127da0638a01db82a445461cf2ab4b2876ffbcd55ab145c93efff82fbfcff0ec59fa25",
                    "indexes": {
                        "data": 0,
                        "gas": 0,
                        "value": 0
                    },
                    "state": {
                        "0xa94f5374fce5edbc8e2a8697c15331677e6ebf0b": {
                            "nonce": "0x02",
                            "balance": "0xfffffffffffff0beec",
                            "code": "0x",
                            "storage": {}
                        },
                        "0xec0e71ad0a90ffe1909d27dac207f7680abba42d": {
                            "nonce": "0x01",
                            "balance": "0x00",
                            "code": "0x",
                            "storage": {
                                "0x01": "0x6a",
                                "0x00": "0x4e28"
                            }
                        }
                    }
                }
            ]
        },
        "config": {
            "blobSchedule": {
                "Cancun": {
                    "target": "0x03",
                    "max": "0x06",
                    "baseFeeUpdateFraction": "0x32f0ed"
                }
            },
            "chainid": "0x01"
        },
        "_info": {
            "hash": "0x18c2b656fa697e2a6f59655c7261b390f690a3365381f27614381c873649f640",
            "comment": "`execution-specs` generated test",
            "filling-transition-tool": "2.18.0rc6",
            "description": "No description available - add a docstring to the python test class or function.",
            "url": "",
            "fixture-format": "state_test",
            "reference-spec": "https://github.com/ethereum/EIPs/blob/master/",
            "reference-spec-version": ""
        }
    },
    "tests/static/state_tests/stEIP2930/manualCreateFiller.yml::manualCreate[fork_Osaka-state_test-addrGoodCellBad]": {
        "env": {
            "currentCoinbase": "0x2adc25665018aa1fe0e6bc666dac8fc2697ff9ba",
            "currentGasLimit": "0xff112233445566",
            "currentNumber": "0x01",
            "currentTimestamp": "0x03e8",
            "currentRandom": "0x0000000000000000000000000000000000000000000000000000000000020000",
            "currentDifficulty": "0x00",
            "currentBaseFee": "0x0a",
            "currentExcessBlobGas": "0x00"
        },
        "pre": {
            "0xa94f5374fce5edbc8e2a8697c15331677e6ebf0b": {
                "nonce": "0x01",
                "balance": "0x01000000000000000000",
                "code": "0x",
                "storage": {}
            }
        },
        "transaction": {
            "nonce": "0x01",
            "gasPrice": "0x0a",
            "gasLimit": [
                "0x061a80"
            ],
            "value": [
                "0x00"
            ],
            "data": [
                "0x5a3031505a90036001555a60ff6000555a900360005500"
            ],
            "accessLists": [
                [
                    {
                        "address": "0xec0e71ad0a90ffe1909d27dac207f7680abba42d",
                        "storageKeys": [
                            "0x0000000000000000000000000000000000000000000000000000000000000001"
                        ]
                    }
                ]
            ],
            "sender": "0xa94f5374fce5edbc8e2a8697c15331677e6ebf0b",
            "secretKey": "0x45a915e4d060149eb4365960e6a7a45f334393093061116b197e3240065ff2d8",
            "to": ""
        },
        "post": {
            "Osaka": [
                {
                    "hash": "0x22ee78ebdbe6330440897546562e8df3482622fd1094d7a3004625bf0fe8928b",
                    "logs": "0x1dcc4de8dec75d7aab85b567b6ccd41ad312451b948a7413f0a142fd40d49347",
                    "txbytes": "0x01f89e01010a83061a808080975a3031505a90036001555a60ff6000555a900360005500f838f794ec0e71ad0a90ffe1909d27dac207f7680abba42de1a0000000000000000000000000000000000000000000000000000000000000000101a001ca31f0900d1cff85308441b91a2bb77f60f92c9aa41f08b84d121ede10498ba06ea1c97852769a04d15498188ed4467ee6773dc06e1067d95b18d9c6e264be6c",
                    "indexes": {
                        "data": 0,
                        "gas": 0,
                        "value": 0
                    },
                    "state": {
                        "0xa94f5374fce5edbc8e2a8697c15331677e6ebf0b": {
                            "nonce": "0x02",
                            "balance": "0xfffffffffffff0beec",
                            "code": "0x",
                            "storage": {}
                        },
                        "0xec0e71ad0a90ffe1909d27dac207f7680abba42d": {
                            "nonce": "0x01",
                            "balance": "0x00",
                            "code": "0x",
                            "storage": {
                                "0x01": "0x6a",
                                "0x00": "0x565c"
                            }
                        }
                    }
                }
            ]
        },
        "config": {
            "blobSchedule": {
                "Cancun": {
                    "target": "0x03",
                    "max": "0x06",
                    "baseFeeUpdateFraction": "0x32f0ed"
                },
                "Prague": {
                    "target": "0x06",
                    "max": "0x09",
                    "baseFeeUpdateFraction": "0x4c6964"
                },
                "Osaka": {
                    "target": "0x06",
                    "max": "0x09",
                    "baseFeeUpdateFraction": "0x4c6964"
                }
            },
            "chainid": "0x01"
        },
        "_info": {
            "hash": "0xc2d4c940db60e9e5e946aabf78379e076dfd5e0dfb20dfd1f26a983aadcffdf2",
            "comment": "`execution-specs` generated test",
            "filling-transition-tool": "2.18.0rc6",
            "description": "No description available - add a docstring to the python test class or function.",
            "url": "",
            "fixture-format": "state_test",
            "reference-spec": "https://github.com/ethereum/EIPs/blob/master/",
            "reference-spec-version": ""
        }
    },
    "tests/static/state_tests/stEIP2930/manualCreateFiller.yml::manualCreate[fork_Osaka-state_test-allBad]": {
        "env": {
            "currentCoinbase": "0x2adc25665018aa1fe0e6bc666dac8fc2697ff9ba",
            "currentGasLimit": "0xff112233445566",
            "currentNumber": "0x01",
            "currentTimestamp": "0x03e8",
            "currentRandom": "0x0000000000000000000000000000000000000000000000000000000000020000",
            "currentDifficulty": "0x00",
            "currentBaseFee": "0x0a",
            "currentExcessBlobGas": "0x00"
        },
        "pre": {
            "0xa94f5374fce5edbc8e2a8697c15331677e6ebf0b": {
                "nonce": "0x01",
                "balance": "0x01000000000000000000",
                "code": "0x",
                "storage": {}
            }
        },
        "transaction": {
            "nonce": "0x01",
            "gasPrice": "0x0a",
            "gasLimit": [
                "0x061a80"
            ],
            "value": [
                "0x00"
            ],
            "data": [
                "0x5a3031505a90036001555a60ff6000555a900360005500"
            ],
            "accessLists": [
                [
                    {
                        "address": "0x0000000000000000000000000000000000000100",
                        "storageKeys": [
                            "0x0000000000000000000000000000000000000000000000000000000000000000"
                        ]
                    }
                ]
            ],
            "sender": "0xa94f5374fce5edbc8e2a8697c15331677e6ebf0b",
            "secretKey": "0x45a915e4d060149eb4365960e6a7a45f334393093061116b197e3240065ff2d8",
            "to": ""
        },
        "post": {
            "Osaka": [
                {
                    "hash": "0x50b43fdcde72c62c1015c8849758abcfe5fc0e4ac7b8920d25b4f8bca7fba476",
                    "logs": "0x1dcc4de8dec75d7aab85b567b6ccd41ad312451b948a7413f0a142fd40d49347",
                    "txbytes": "0x01f89e01010a83061a808080975a3031505a90036001555a60ff6000555a900360005500f838f7940000000000000000000000000000000000000100e1a0000000000000000000000000000000000000000000000000000000000000000001a00454375860ec988e662d2e850993d5911bea5eed19e337485582473bc6b25762a0567e77442152378e8dc3ecf3c604ddd173b379e9b90e66c58fc520452c352746",
                    "indexes": {
                        "data": 0,
                        "gas": 0,
                        "value": 0
                    },
                    "state": {
                        "0xa94f5374fce5edbc8e2a8697c15331677e6ebf0b": {
                            "nonce": "0x02",
                            "balance": "0xfffffffffffff06ce4",
                            "code": "0x",
                            "storage": {}
                        },
                        "0xec0e71ad0a90ffe1909d27dac207f7680abba42d": {
                            "nonce": "0x01",
                            "balance": "0x00",
                            "code": "0x",
                            "storage": {
                                "0x01": "0x6a",
                                "0x00": "0x565c"
                            }
                        }
                    }
                }
            ]
        },
        "config": {
            "blobSchedule": {
                "Cancun": {
                    "target": "0x03",
                    "max": "0x06",
                    "baseFeeUpdateFraction": "0x32f0ed"
                },
                "Prague": {
                    "target": "0x06",
                    "max": "0x09",
                    "baseFeeUpdateFraction": "0x4c6964"
                },
                "Osaka": {
                    "target": "0x06",
                    "max": "0x09",
                    "baseFeeUpdateFraction": "0x4c6964"
                }
            },
            "chainid": "0x01"
        },
        "_info": {
            "hash": "0xb84c2e3e10808a3481984912ea94b4c31bb3b10ba4124f17a7ed1541b3d69506",
            "comment": "`execution-specs` generated test",
            "filling-transition-tool": "2.18.0rc6",
            "description": "No description available - add a docstring to the python test class or function.",
            "url": "",
            "fixture-format": "state_test",
            "reference-spec": "https://github.com/ethereum/EIPs/blob/master/",
            "reference-spec-version": ""
        }
    },
    "tests/static/state_tests/stEIP2930/manualCreateFiller.yml::manualCreate[fork_Osaka-state_test-allGood]": {
        "env": {
            "currentCoinbase": "0x2adc25665018aa1fe0e6bc666dac8fc2697ff9ba",
            "currentGasLimit": "0xff112233445566",
            "currentNumber": "0x01",
            "currentTimestamp": "0x03e8",
            "currentRandom": "0x0000000000000000000000000000000000000000000000000000000000020000",
            "currentDifficulty": "0x00",
            "currentBaseFee": "0x0a",
            "currentExcessBlobGas": "0x00"
        },
        "pre": {
            "0xa94f5374fce5edbc8e2a8697c15331677e6ebf0b": {
                "nonce": "0x01",
                "balance": "0x01000000000000000000",
                "code": "0x",
                "storage": {}
            }
        },
        "transaction": {
            "nonce": "0x01",
            "gasPrice": "0x0a",
            "gasLimit": [
                "0x061a80"
            ],
            "value": [
                "0x00"
            ],
            "data": [
                "0x5a3031505a90036001555a60ff6000555a900360005500"
            ],
            "accessLists": [
                [
                    {
                        "address": "0xec0e71ad0a90ffe1909d27dac207f7680abba42d",
                        "storageKeys": [
                            "0x0000000000000000000000000000000000000000000000000000000000000000"
                        ]
                    }
                ]
            ],
            "sender": "0xa94f5374fce5edbc8e2a8697c15331677e6ebf0b",
            "secretKey": "0x45a915e4d060149eb4365960e6a7a45f334393093061116b197e3240065ff2d8",
            "to": ""
        },
        "post": {
            "Osaka": [
                {
                    "hash": "0x660459aa7b5dacffd545592d05291ba6fb861a7bde26c654698cf9ec2864872a",
                    "logs": "0x1dcc4de8dec75d7aab85b567b6ccd41ad312451b948a7413f0a142fd40d49347",
                    "txbytes": "0x01f89e01010a83061a808080975a3031505a90036001555a60ff6000555a900360005500f838f794ec0e71ad0a90ffe1909d27dac207f7680abba42de1a0000000000000000000000000000000000000000000000000000000000000000080a0624806136601d18806233d5ec831f6926ff892c3fbdd32b0a0a694501036127da0638a01db82a445461cf2ab4b2876ffbcd55ab145c93efff82fbfcff0ec59fa25",
                    "indexes": {
                        "data": 0,
                        "gas": 0,
                        "value": 0
                    },
                    "state": {
                        "0xa94f5374fce5edbc8e2a8697c15331677e6ebf0b": {
                            "nonce": "0x02",
                            "balance": "0xfffffffffffff0beec",
                            "code": "0x",
                            "storage": {}
                        },
                        "0xec0e71ad0a90ffe1909d27dac207f7680abba42d": {
                            "nonce": "0x01",
                            "balance": "0x00",
                            "code": "0x",
                            "storage": {
                                "0x01": "0x6a",
                                "0x00": "0x4e28"
                            }
                        }
                    }
                }
            ]
        },
        "config": {
            "blobSchedule": {
                "Cancun": {
                    "target": "0x03",
                    "max": "0x06",
                    "baseFeeUpdateFraction": "0x32f0ed"
                },
                "Prague": {
                    "target": "0x06",
                    "max": "0x09",
                    "baseFeeUpdateFraction": "0x4c6964"
                },
                "Osaka": {
                    "target": "0x06",
                    "max": "0x09",
                    "baseFeeUpdateFraction": "0x4c6964"
                }
            },
            "chainid": "0x01"
        },
        "_info": {
            "hash": "0x95639c5748017ad8fcffaf3c412f7282f6c4a5fb0bc8e4a5c4c42283863b426b",
            "comment": "`execution-specs` generated test",
            "filling-transition-tool": "2.18.0rc6",
            "description": "No description available - add a docstring to the python test class or function.",
            "url": "",
            "fixture-format": "state_test",
            "reference-spec": "https://github.com/ethereum/EIPs/blob/master/",
            "reference-spec-version": ""
        }
    },
    "tests/static/state_tests/stEIP2930/manualCreateFiller.yml::manualCreate[fork_Prague-state_test-addrGoodCellBad]": {
        "env": {
            "currentCoinbase": "0x2adc25665018aa1fe0e6bc666dac8fc2697ff9ba",
            "currentGasLimit": "0xff112233445566",
            "currentNumber": "0x01",
            "currentTimestamp": "0x03e8",
            "currentRandom": "0x0000000000000000000000000000000000000000000000000000000000020000",
            "currentDifficulty": "0x00",
            "currentBaseFee": "0x0a",
            "currentExcessBlobGas": "0x00"
        },
        "pre": {
            "0xa94f5374fce5edbc8e2a8697c15331677e6ebf0b": {
                "nonce": "0x01",
                "balance": "0x01000000000000000000",
                "code": "0x",
                "storage": {}
            }
        },
        "transaction": {
            "nonce": "0x01",
            "gasPrice": "0x0a",
            "gasLimit": [
                "0x061a80"
            ],
            "value": [
                "0x00"
            ],
            "data": [
                "0x5a3031505a90036001555a60ff6000555a900360005500"
            ],
            "accessLists": [
                [
                    {
                        "address": "0xec0e71ad0a90ffe1909d27dac207f7680abba42d",
                        "storageKeys": [
                            "0x0000000000000000000000000000000000000000000000000000000000000001"
                        ]
                    }
                ]
            ],
            "sender": "0xa94f5374fce5edbc8e2a8697c15331677e6ebf0b",
            "secretKey": "0x45a915e4d060149eb4365960e6a7a45f334393093061116b197e3240065ff2d8",
            "to": ""
        },
        "post": {
            "Prague": [
                {
                    "hash": "0x22ee78ebdbe6330440897546562e8df3482622fd1094d7a3004625bf0fe8928b",
                    "logs": "0x1dcc4de8dec75d7aab85b567b6ccd41ad312451b948a7413f0a142fd40d49347",
                    "txbytes": "0x01f89e01010a83061a808080975a3031505a90036001555a60ff6000555a900360005500f838f794ec0e71ad0a90ffe1909d27dac207f7680abba42de1a0000000000000000000000000000000000000000000000000000000000000000101a001ca31f0900d1cff85308441b91a2bb77f60f92c9aa41f08b84d121ede10498ba06ea1c97852769a04d15498188ed4467ee6773dc06e1067d95b18d9c6e264be6c",
                    "indexes": {
                        "data": 0,
                        "gas": 0,
                        "value": 0
                    },
                    "state": {
                        "0xa94f5374fce5edbc8e2a8697c15331677e6ebf0b": {
                            "nonce": "0x02",
                            "balance": "0xfffffffffffff0beec",
                            "code": "0x",
                            "storage": {}
                        },
                        "0xec0e71ad0a90ffe1909d27dac207f7680abba42d": {
                            "nonce": "0x01",
                            "balance": "0x00",
                            "code": "0x",
                            "storage": {
                                "0x01": "0x6a",
                                "0x00": "0x565c"
                            }
                        }
                    }
                }
            ]
        },
        "config": {
            "blobSchedule": {
                "Cancun": {
                    "target": "0x03",
                    "max": "0x06",
                    "baseFeeUpdateFraction": "0x32f0ed"
                },
                "Prague": {
                    "target": "0x06",
                    "max": "0x09",
                    "baseFeeUpdateFraction": "0x4c6964"
                }
            },
            "chainid": "0x01"
        },
        "_info": {
            "hash": "0xff2b2da1d2d26ea3642725c54746fd92a0bb9c89620a4cef6eed47997941a081",
            "comment": "`execution-specs` generated test",
            "filling-transition-tool": "2.18.0rc6",
            "description": "No description available - add a docstring to the python test class or function.",
            "url": "",
            "fixture-format": "state_test",
            "reference-spec": "https://github.com/ethereum/EIPs/blob/master/",
            "reference-spec-version": ""
        }
    },
    "tests/static/state_tests/stEIP2930/manualCreateFiller.yml::manualCreate[fork_Prague-state_test-allBad]": {
        "env": {
            "currentCoinbase": "0x2adc25665018aa1fe0e6bc666dac8fc2697ff9ba",
            "currentGasLimit": "0xff112233445566",
            "currentNumber": "0x01",
            "currentTimestamp": "0x03e8",
            "currentRandom": "0x0000000000000000000000000000000000000000000000000000000000020000",
            "currentDifficulty": "0x00",
            "currentBaseFee": "0x0a",
            "currentExcessBlobGas": "0x00"
        },
        "pre": {
            "0xa94f5374fce5edbc8e2a8697c15331677e6ebf0b": {
                "nonce": "0x01",
                "balance": "0x01000000000000000000",
                "code": "0x",
                "storage": {}
            }
        },
        "transaction": {
            "nonce": "0x01",
            "gasPrice": "0x0a",
            "gasLimit": [
                "0x061a80"
            ],
            "value": [
                "0x00"
            ],
            "data": [
                "0x5a3031505a90036001555a60ff6000555a900360005500"
            ],
            "accessLists": [
                [
                    {
                        "address": "0x0000000000000000000000000000000000000100",
                        "storageKeys": [
                            "0x0000000000000000000000000000000000000000000000000000000000000000"
                        ]
                    }
                ]
            ],
            "sender": "0xa94f5374fce5edbc8e2a8697c15331677e6ebf0b",
            "secretKey": "0x45a915e4d060149eb4365960e6a7a45f334393093061116b197e3240065ff2d8",
            "to": ""
        },
        "post": {
            "Prague": [
                {
                    "hash": "0x50b43fdcde72c62c1015c8849758abcfe5fc0e4ac7b8920d25b4f8bca7fba476",
                    "logs": "0x1dcc4de8dec75d7aab85b567b6ccd41ad312451b948a7413f0a142fd40d49347",
                    "txbytes": "0x01f89e01010a83061a808080975a3031505a90036001555a60ff6000555a900360005500f838f7940000000000000000000000000000000000000100e1a0000000000000000000000000000000000000000000000000000000000000000001a00454375860ec988e662d2e850993d5911bea5eed19e337485582473bc6b25762a0567e77442152378e8dc3ecf3c604ddd173b379e9b90e66c58fc520452c352746",
                    "indexes": {
                        "data": 0,
                        "gas": 0,
                        "value": 0
                    },
                    "state": {
                        "0xa94f5374fce5edbc8e2a8697c15331677e6ebf0b": {
                            "nonce": "0x02",
                            "balance": "0xfffffffffffff06ce4",
                            "code": "0x",
                            "storage": {}
                        },
                        "0xec0e71ad0a90ffe1909d27dac207f7680abba42d": {
                            "nonce": "0x01",
                            "balance": "0x00",
                            "code": "0x",
                            "storage": {
                                "0x01": "0x6a",
                                "0x00": "0x565c"
                            }
                        }
                    }
                }
            ]
        },
        "config": {
            "blobSchedule": {
                "Cancun": {
                    "target": "0x03",
                    "max": "0x06",
                    "baseFeeUpdateFraction": "0x32f0ed"
                },
                "Prague": {
                    "target": "0x06",
                    "max": "0x09",
                    "baseFeeUpdateFraction": "0x4c6964"
                }
            },
            "chainid": "0x01"
        },
        "_info": {
            "hash": "0x46fdda6ee2f2b1d830285c5011a784a3fbdd16252f75e55b074149646d65b102",
            "comment": "`execution-specs` generated test",
            "filling-transition-tool": "2.18.0rc6",
            "description": "No description available - add a docstring to the python test class or function.",
            "url": "",
            "fixture-format": "state_test",
            "reference-spec": "https://github.com/ethereum/EIPs/blob/master/",
            "reference-spec-version": ""
        }
    },
    "tests/static/state_tests/stEIP2930/manualCreateFiller.yml::manualCreate[fork_Prague-state_test-allGood]": {
        "env": {
            "currentCoinbase": "0x2adc25665018aa1fe0e6bc666dac8fc2697ff9ba",
            "currentGasLimit": "0xff112233445566",
            "currentNumber": "0x01",
            "currentTimestamp": "0x03e8",
            "currentRandom": "0x0000000000000000000000000000000000000000000000000000000000020000",
            "currentDifficulty": "0x00",
            "currentBaseFee": "0x0a",
            "currentExcessBlobGas": "0x00"
        },
        "pre": {
            "0xa94f5374fce5edbc8e2a8697c15331677e6ebf0b": {
                "nonce": "0x01",
                "balance": "0x01000000000000000000",
                "code": "0x",
                "storage": {}
            }
        },
        "transaction": {
            "nonce": "0x01",
            "gasPrice": "0x0a",
            "gasLimit": [
                "0x061a80"
            ],
            "value": [
                "0x00"
            ],
            "data": [
                "0x5a3031505a90036001555a60ff6000555a900360005500"
            ],
            "accessLists": [
                [
                    {
                        "address": "0xec0e71ad0a90ffe1909d27dac207f7680abba42d",
                        "storageKeys": [
                            "0x0000000000000000000000000000000000000000000000000000000000000000"
                        ]
                    }
                ]
            ],
            "sender": "0xa94f5374fce5edbc8e2a8697c15331677e6ebf0b",
            "secretKey": "0x45a915e4d060149eb4365960e6a7a45f334393093061116b197e3240065ff2d8",
            "to": ""
        },
        "post": {
            "Prague": [
                {
                    "hash": "0x660459aa7b5dacffd545592d05291ba6fb861a7bde26c654698cf9ec2864872a",
                    "logs": "0x1dcc4de8dec75d7aab85b567b6ccd41ad312451b948a7413f0a142fd40d49347",
                    "txbytes": "0x01f89e01010a83061a808080975a3031505a90036001555a60ff6000555a900360005500f838f794ec0e71ad0a90ffe1909d27dac207f7680abba42de1a0000000000000000000000000000000000000000000000000000000000000000080a0624806136601d18806233d5ec831f6926ff892c3fbdd32b0a0a694501036127da0638a01db82a445461cf2ab4b2876ffbcd55ab145c93efff82fbfcff0ec59fa25",
                    "indexes": {
                        "data": 0,
                        "gas": 0,
                        "value": 0
                    },
                    "state": {
                        "0xa94f5374fce5edbc8e2a8697c15331677e6ebf0b": {
                            "nonce": "0x02",
                            "balance": "0xfffffffffffff0beec",
                            "code": "0x",
                            "storage": {}
                        },
                        "0xec0e71ad0a90ffe1909d27dac207f7680abba42d": {
                            "nonce": "0x01",
                            "balance": "0x00",
                            "code": "0x",
                            "storage": {
                                "0x01": "0x6a",
                                "0x00": "0x4e28"
                            }
                        }
                    }
                }
            ]
        },
        "config": {
            "blobSchedule": {
                "Cancun": {
                    "target": "0x03",
                    "max": "0x06",
                    "baseFeeUpdateFraction": "0x32f0ed"
                },
                "Prague": {
                    "target": "0x06",
                    "max": "0x09",
                    "baseFeeUpdateFraction": "0x4c6964"
                }
            },
            "chainid": "0x01"
        },
        "_info": {
            "hash": "0x27e72999c42f13c43cbc7883f93370838fe5d753927e05917217f47bb70b8966",
            "comment": "`execution-specs` generated test",
            "filling-transition-tool": "2.18.0rc6",
            "description": "No description available - add a docstring to the python test class or function.",
            "url": "",
            "fixture-format": "state_test",
            "reference-spec": "https://github.com/ethereum/EIPs/blob/master/",
            "reference-spec-version": ""
        }
    }
}