{
    "tests/ported_static/stStaticCall/test_static_callcallcallcode_001_ooge_2.py::test_static_callcallcallcode_001_ooge_2[fork_Cancun-blockchain_test_from_state_test-d0]": {
        "network": "Cancun",
        "genesisBlockHeader": {
            "parentHash": "0x0000000000000000000000000000000000000000000000000000000000000000",
            "uncleHash": "0x1dcc4de8dec75d7aab85b567b6ccd41ad312451b948a7413f0a142fd40d49347",
            "coinbase": "0x0000000000000000000000000000000000000000",
            "stateRoot": "0x6778c2603ec73cf932dbe08906027b9c5b86190c3d2ddc2668448c7566925dd5",
            "transactionsTrie": "0x56e81f171bcc55a6ff8345e692c0f86e5b48e01b996cadc001622fb5e363b421",
            "receiptTrie": "0x56e81f171bcc55a6ff8345e692c0f86e5b48e01b996cadc001622fb5e363b421",
            "bloom": "0x00000000000000000000000000000000000000000000000000000000000000000000000000000000000000000000000000000000000000000000000000000000000000000000000000000000000000000000000000000000000000000000000000000000000000000000000000000000000000000000000000000000000000000000000000000000000000000000000000000000000000000000000000000000000000000000000000000000000000000000000000000000000000000000000000000000000000000000000000000000000000000000000000000000000000000000000000000000000000000000000000000000000000000000000000000000",
            "difficulty": "0x00",
            "number": "0x00",
            "gasLimit": "0x01c9c380",
            "gasUsed": "0x00",
            "timestamp": "0x00",
            "extraData": "0x00",
            "mixHash": "0x0000000000000000000000000000000000000000000000000000000000000000",
            "nonce": "0x0000000000000000",
            "baseFeePerGas": "0x0b",
            "withdrawalsRoot": "0x56e81f171bcc55a6ff8345e692c0f86e5b48e01b996cadc001622fb5e363b421",
            "blobGasUsed": "0x00",
            "excessBlobGas": "0x00",
            "parentBeaconBlockRoot": "0x0000000000000000000000000000000000000000000000000000000000000000",
            "hash": "0x242a22f50ea29a32d5eff3658438482d4a18e6e8f2e518c1436c5da6fa49a38a"
        },
        "pre": {
            "0x000f3df6d732807ef1319fb7b8bb8522d0beac02": {
                "nonce": "0x01",
                "balance": "0x00",
                "code": "0x3373fffffffffffffffffffffffffffffffffffffffe14604d57602036146024575f5ffd5b5f35801560495762001fff810690815414603c575f5ffd5b62001fff01545f5260205ff35b5f5ffd5b62001fff42064281555f359062001fff015500",
                "storage": {}
            },
            "0xd66f224cbd2fabb21b17bb53c56118f32f62ebd6": {
                "nonce": "0x00",
                "balance": "0x0de0b6b3a7640000",
                "code": "0x",
                "storage": {}
            },
            "0xc0e4183389eb57f779a986d8c878f89b9401dc8e": {
                "nonce": "0x00",
                "balance": "0x00",
                "code": "0x6000600060006000346000355af1600055600160015500",
                "storage": {}
            },
            "0x9d41ca9233d19d3202befcef33f16af7201f0eaa": {
                "nonce": "0x00",
                "balance": "0x00",
                "code": "0x6001600355600160035200",
                "storage": {}
            },
            "0x609e4dfe6190235b9a0362084c741d9ec330fb1e": {
                "nonce": "0x00",
                "balance": "0x00",
                "code": "0x5b61c3506080511015601c5760013b506001608051016080526000565b00",
                "storage": {}
            },
            "0xfee7d85f02f84ce8917fa8300fea57ff41ad47d7": {
                "nonce": "0x00",
                "balance": "0x00",
                "code": "0x60406000604060006000739d41ca9233d19d3202befcef33f16af7201f0eaa6201d4d4f200",
                "storage": {}
            },
            "0xa7c64824c59e4295a3868a2b275ad46b38f7846d": {
                "nonce": "0x00",
                "balance": "0x00",
                "code": "0x6040600060406000600073609e4dfe6190235b9a0362084c741d9ec330fb1e6201d4d4f200",
                "storage": {}
            },
            "0xbda9155e6214fe759004e6fcbe736289ef800528": {
                "nonce": "0x00",
                "balance": "0x00",
                "code": "0x604060006040600073fee7d85f02f84ce8917fa8300fea57ff41ad47d7620493e0fa00",
                "storage": {}
            },
            "0x2db6829f13013d6280c5be4f6a5e87de274a3c47": {
                "nonce": "0x00",
                "balance": "0x00",
                "code": "0x604060006040600073a7c64824c59e4295a3868a2b275ad46b38f7846d620493e0fa00",
                "storage": {}
            },
            "0x071587c3e5f2ebf88b2a5b048733778605addb28": {
                "nonce": "0x00",
                "balance": "0x0de0b6b3a7640000",
                "code": "0x604060006040600073bda9155e6214fe759004e6fcbe736289ef8005286207a120fa60005500",
                "storage": {}
            },
            "0xed9009abb678fb6e7898148dc46fa339ea580cbd": {
                "nonce": "0x00",
                "balance": "0x0de0b6b3a7640000",
                "code": "0x6040600060406000732db6829f13013d6280c5be4f6a5e87de274a3c476207a120fa60005500",
                "storage": {}
            }
        },
        "postState": {
            "0x000f3df6d732807ef1319fb7b8bb8522d0beac02": {
                "nonce": "0x01",
                "balance": "0x00",
                "code": "0x3373fffffffffffffffffffffffffffffffffffffffe14604d57602036146024575f5ffd5b5f35801560495762001fff810690815414603c575f5ffd5b62001fff01545f5260205ff35b5f5ffd5b62001fff42064281555f359062001fff015500",
                "storage": {
                    "0x03e8": "0x03e8"
                }
            },
            "0xd66f224cbd2fabb21b17bb53c56118f32f62ebd6": {
                "nonce": "0x01",
                "balance": "0x0de0b6b3a742b4ae",
                "code": "0x",
                "storage": {}
            },
            "0xc0e4183389eb57f779a986d8c878f89b9401dc8e": {
                "nonce": "0x00",
                "balance": "0x00",
                "code": "0x6000600060006000346000355af1600055600160015500",
                "storage": {
                    "0x00": "0x01",
                    "0x01": "0x01"
                }
            },
            "0x9d41ca9233d19d3202befcef33f16af7201f0eaa": {
                "nonce": "0x00",
                "balance": "0x00",
                "code": "0x6001600355600160035200",
                "storage": {}
            },
            "0x609e4dfe6190235b9a0362084c741d9ec330fb1e": {
                "nonce": "0x00",
                "balance": "0x00",
                "code": "0x5b61c3506080511015601c5760013b506001608051016080526000565b00",
                "storage": {}
            },
            "0xfee7d85f02f84ce8917fa8300fea57ff41ad47d7": {
                "nonce": "0x00",
                "balance": "0x00",
                "code": "0x60406000604060006000739d41ca9233d19d3202befcef33f16af7201f0eaa6201d4d4f200",
                "storage": {}
            },
            "0xa7c64824c59e4295a3868a2b275ad46b38f7846d": {
                "nonce": "0x00",
                "balance": "0x00",
                "code": "0x6040600060406000600073609e4dfe6190235b9a0362084c741d9ec330fb1e6201d4d4f200",
                "storage": {}
            },
            "0xbda9155e6214fe759004e6fcbe736289ef800528": {
                "nonce": "0x00",
                "balance": "0x00",
                "code": "0x604060006040600073fee7d85f02f84ce8917fa8300fea57ff41ad47d7620493e0fa00",
                "storage": {}
            },
            "0x2db6829f13013d6280c5be4f6a5e87de274a3c47": {
                "nonce": "0x00",
                "balance": "0x00",
                "code": "0x604060006040600073a7c64824c59e4295a3868a2b275ad46b38f7846d620493e0fa00",
                "storage": {}
            },
            "0x071587c3e5f2ebf88b2a5b048733778605addb28": {
                "nonce": "0x00",
                "balance": "0x0de0b6b3a7640000",
                "code": "0x604060006040600073bda9155e6214fe759004e6fcbe736289ef8005286207a120fa60005500",
                "storage": {
                    "0x00": "0x01"
                }
            },
            "0xed9009abb678fb6e7898148dc46fa339ea580cbd": {
                "nonce": "0x00",
                "balance": "0x0de0b6b3a7640000",
                "code": "0x6040600060406000732db6829f13013d6280c5be4f6a5e87de274a3c476207a120fa60005500",
                "storage": {}
            }
        },
        "lastblockhash": "0x60ec7eab80514b3c1772c6a4d29f8c7ad1a1a47218678cdb82ce26a1641b8039",
        "config": {
            "network": "Cancun",
            "chainid": "0x01",
            "blobSchedule": {
                "Cancun": {
                    "target": "0x03",
                    "max": "0x06",
                    "baseFeeUpdateFraction": "0x32f0ed"
                }
            }
        },
        "genesisRLP": "0xf9023cf90236a00000000000000000000000000000000000000000000000000000000000000000a01dcc4de8dec75d7aab85b567b6ccd41ad312451b948a7413f0a142fd40d49347940000000000000000000000000000000000000000a06778c2603ec73cf932dbe08906027b9c5b86190c3d2ddc2668448c7566925dd5a056e81f171bcc55a6ff8345e692c0f86e5b48e01b996cadc001622fb5e363b421a056e81f171bcc55a6ff8345e692c0f86e5b48e01b996cadc001622fb5e363b421b901000000000000000000000000000000000000000000000000000000000000000000000000000000000000000000000000000000000000000000000000000000000000000000000000000000000000000000000000000000000000000000000000000000000000000000000000000000000000000000000000000000000000000000000000000000000000000000000000000000000000000000000000000000000000000000000000000000000000000000000000000000000000000000000000000000000000000000000000000000000000000000000000000000000000000000000000000000000000000000000000000000000000000000000000000000000080808401c9c380808000a000000000000000000000000000000000000000000000000000000000000000008800000000000000000ba056e81f171bcc55a6ff8345e692c0f86e5b48e01b996cadc001622fb5e363b4218080a00000000000000000000000000000000000000000000000000000000000000000c0c0c0",
        "blocks": [
            {
                "blockHeader": {
                    "parentHash": "0x242a22f50ea29a32d5eff3658438482d4a18e6e8f2e518c1436c5da6fa49a38a",
                    "uncleHash": "0x1dcc4de8dec75d7aab85b567b6ccd41ad312451b948a7413f0a142fd40d49347",
                    "coinbase": "0x2adc25665018aa1fe0e6bc666dac8fc2697ff9ba",
                    "stateRoot": "0x2c0205d26b48bfd3bb8f627a5d6e02c181f802d48e5249f2efc5d9bf9ba7ed95",
                    "transactionsTrie": "0x0a24a7883314cfa21e2d8b60ae7f17afcf96eeaf98ade99033da0530bd759046",
                    "receiptTrie": "0x234b371f448a5c2e7cf8c4e9d5876d2ee8089cb7bf744e77f140cc5eb040ca0b",
                    "bloom": "0x00000000000000000000000000000000000000000000000000000000000000000000000000000000000000000000000000000000000000000000000000000000000000000000000000000000000000000000000000000000000000000000000000000000000000000000000000000000000000000000000000000000000000000000000000000000000000000000000000000000000000000000000000000000000000000000000000000000000000000000000000000000000000000000000000000000000000000000000000000000000000000000000000000000000000000000000000000000000000000000000000000000000000000000000000000000",
                    "difficulty": "0x00",
                    "number": "0x01",
                    "gasLimit": "0x01c9c380",
                    "gasUsed": "0x035455",
                    "timestamp": "0x03e8",
                    "extraData": "0x00",
                    "mixHash": "0x0000000000000000000000000000000000000000000000000000000000020000",
                    "nonce": "0x0000000000000000",
                    "baseFeePerGas": "0x0a",
                    "withdrawalsRoot": "0x56e81f171bcc55a6ff8345e692c0f86e5b48e01b996cadc001622fb5e363b421",
                    "blobGasUsed": "0x00",
                    "excessBlobGas": "0x00",
                    "parentBeaconBlockRoot": "0x0000000000000000000000000000000000000000000000000000000000000000",
                    "hash": "0x60ec7eab80514b3c1772c6a4d29f8c7ad1a1a47218678cdb82ce26a1641b8039"
                },
                "transactions": [
                    {
                        "type": "0x00",
                        "chainId": "0x01",
                        "nonce": "0x00",
                        "gasPrice": "0x0a",
                        "gasLimit": "0x1a3ec0",
                        "to": "0xc0e4183389eb57f779a986d8c878f89b9401dc8e",
                        "value": "0x00",
                        "data": "0x000000000000000000000000071587c3e5f2ebf88b2a5b048733778605addb28",
                        "v": "0x26",
                        "r": "0xf9d38684338c0c5a0513d8657b2d148f6ff8bb21ecb59867d619502fce3ac4b8",
                        "s": "0x7d46fcd23d6adaaf9d295f06f4f4bbb45a8e52de6cb2cfe98626ecaec6d13e3e",
                        "sender": "0xd66f224cbd2fabb21b17bb53c56118f32f62ebd6"
                    }
                ],
                "uncleHeaders": [],
                "withdrawals": [],
                "receipts": [
                    {
                        "transactionHash": "0x90be81c5ac17068cae5ad7ca7a327873d65e86f0febc45d5224b68c683dd317a",
                        "type": "0x00",
                        "cumulativeGasUsed": "0x035455",
                        "bloom": "0x00000000000000000000000000000000000000000000000000000000000000000000000000000000000000000000000000000000000000000000000000000000000000000000000000000000000000000000000000000000000000000000000000000000000000000000000000000000000000000000000000000000000000000000000000000000000000000000000000000000000000000000000000000000000000000000000000000000000000000000000000000000000000000000000000000000000000000000000000000000000000000000000000000000000000000000000000000000000000000000000000000000000000000000000000000000",
                        "logs": [],
                        "status": true,
                        "rlp": "0xf901090183035455b9010000000000000000000000000000000000000000000000000000000000000000000000000000000000000000000000000000000000000000000000000000000000000000000000000000000000000000000000000000000000000000000000000000000000000000000000000000000000000000000000000000000000000000000000000000000000000000000000000000000000000000000000000000000000000000000000000000000000000000000000000000000000000000000000000000000000000000000000000000000000000000000000000000000000000000000000000000000000000000000000000000000000000000000000000000000000c0"
                    }
                ],
                "rlp": "0xf902c4f9023ba0242a22f50ea29a32d5eff3658438482d4a18e6e8f2e518c1436c5da6fa49a38aa01dcc4de8dec75d7aab85b567b6ccd41ad312451b948a7413f0a142fd40d49347942adc25665018aa1fe0e6bc666dac8fc2697ff9baa02c0205d26b48bfd3bb8f627a5d6e02c181f802d48e5249f2efc5d9bf9ba7ed95a00a24a7883314cfa21e2d8b60ae7f17afcf96eeaf98ade99033da0530bd759046a0234b371f448a5c2e7cf8c4e9d5876d2ee8089cb7bf744e77f140cc5eb040ca0bb901000000000000000000000000000000000000000000000000000000000000000000000000000000000000000000000000000000000000000000000000000000000000000000000000000000000000000000000000000000000000000000000000000000000000000000000000000000000000000000000000000000000000000000000000000000000000000000000000000000000000000000000000000000000000000000000000000000000000000000000000000000000000000000000000000000000000000000000000000000000000000000000000000000000000000000000000000000000000000000000000000000000000000000000000000000000080018401c9c380830354558203e800a000000000000000000000000000000000000000000000000000000000000200008800000000000000000aa056e81f171bcc55a6ff8345e692c0f86e5b48e01b996cadc001622fb5e363b4218080a00000000000000000000000000000000000000000000000000000000000000000f882f880800a831a3ec094c0e4183389eb57f779a986d8c878f89b9401dc8e80a0000000000000000000000000071587c3e5f2ebf88b2a5b048733778605addb2826a0f9d38684338c0c5a0513d8657b2d148f6ff8bb21ecb59867d619502fce3ac4b8a07d46fcd23d6adaaf9d295f06f4f4bbb45a8e52de6cb2cfe98626ecaec6d13e3ec0c0",
                "blocknumber": "1"
            }
        ],
        "sealEngine": "NoProof",
        "_info": {
            "hash": "0x530033776c121e1ac40ed79a0c746f53bc77f783a2b132160f40383ae0e29356",
            "fixture-format": "blockchain_test",
            "comment": "`execution-specs` generated test",
            "filling-transition-tool": "2.19.0",
            "description": "Test_static_callcallcallcode_001_ooge_2.",
            "url": "https://github.com/ethereum/execution-specs/blob/tests-snobal-devnet-5@v8037.0.0/tests/ported_static/stStaticCall/test_static_callcallcallcode_001_ooge_2.py#L25",
            "metadata": {
                "opcode_count": {}
            }
        }
    },
    "tests/ported_static/stStaticCall/test_static_callcallcallcode_001_ooge_2.py::test_static_callcallcallcode_001_ooge_2[fork_Cancun-blockchain_test_from_state_test-d1]": {
        "network": "Cancun",
        "genesisBlockHeader": {
            "parentHash": "0x0000000000000000000000000000000000000000000000000000000000000000",
            "uncleHash": "0x1dcc4de8dec75d7aab85b567b6ccd41ad312451b948a7413f0a142fd40d49347",
            "coinbase": "0x0000000000000000000000000000000000000000",
            "stateRoot": "0x6778c2603ec73cf932dbe08906027b9c5b86190c3d2ddc2668448c7566925dd5",
            "transactionsTrie": "0x56e81f171bcc55a6ff8345e692c0f86e5b48e01b996cadc001622fb5e363b421",
            "receiptTrie": "0x56e81f171bcc55a6ff8345e692c0f86e5b48e01b996cadc001622fb5e363b421",
            "bloom": "0x00000000000000000000000000000000000000000000000000000000000000000000000000000000000000000000000000000000000000000000000000000000000000000000000000000000000000000000000000000000000000000000000000000000000000000000000000000000000000000000000000000000000000000000000000000000000000000000000000000000000000000000000000000000000000000000000000000000000000000000000000000000000000000000000000000000000000000000000000000000000000000000000000000000000000000000000000000000000000000000000000000000000000000000000000000000",
            "difficulty": "0x00",
            "number": "0x00",
            "gasLimit": "0x01c9c380",
            "gasUsed": "0x00",
            "timestamp": "0x00",
            "extraData": "0x00",
            "mixHash": "0x0000000000000000000000000000000000000000000000000000000000000000",
            "nonce": "0x0000000000000000",
            "baseFeePerGas": "0x0b",
            "withdrawalsRoot": "0x56e81f171bcc55a6ff8345e692c0f86e5b48e01b996cadc001622fb5e363b421",
            "blobGasUsed": "0x00",
            "excessBlobGas": "0x00",
            "parentBeaconBlockRoot": "0x0000000000000000000000000000000000000000000000000000000000000000",
            "hash": "0x242a22f50ea29a32d5eff3658438482d4a18e6e8f2e518c1436c5da6fa49a38a"
        },
        "pre": {
            "0x000f3df6d732807ef1319fb7b8bb8522d0beac02": {
                "nonce": "0x01",
                "balance": "0x00",
                "code": "0x3373fffffffffffffffffffffffffffffffffffffffe14604d57602036146024575f5ffd5b5f35801560495762001fff810690815414603c575f5ffd5b62001fff01545f5260205ff35b5f5ffd5b62001fff42064281555f359062001fff015500",
                "storage": {}
            },
            "0xd66f224cbd2fabb21b17bb53c56118f32f62ebd6": {
                "nonce": "0x00",
                "balance": "0x0de0b6b3a7640000",
                "code": "0x",
                "storage": {}
            },
            "0xc0e4183389eb57f779a986d8c878f89b9401dc8e": {
                "nonce": "0x00",
                "balance": "0x00",
                "code": "0x6000600060006000346000355af1600055600160015500",
                "storage": {}
            },
            "0x9d41ca9233d19d3202befcef33f16af7201f0eaa": {
                "nonce": "0x00",
                "balance": "0x00",
                "code": "0x6001600355600160035200",
                "storage": {}
            },
            "0x609e4dfe6190235b9a0362084c741d9ec330fb1e": {
                "nonce": "0x00",
                "balance": "0x00",
                "code": "0x5b61c3506080511015601c5760013b506001608051016080526000565b00",
                "storage": {}
            },
            "0xfee7d85f02f84ce8917fa8300fea57ff41ad47d7": {
                "nonce": "0x00",
                "balance": "0x00",
                "code": "0x60406000604060006000739d41ca9233d19d3202befcef33f16af7201f0eaa6201d4d4f200",
                "storage": {}
            },
            "0xa7c64824c59e4295a3868a2b275ad46b38f7846d": {
                "nonce": "0x00",
                "balance": "0x00",
                "code": "0x6040600060406000600073609e4dfe6190235b9a0362084c741d9ec330fb1e6201d4d4f200",
                "storage": {}
            },
            "0xbda9155e6214fe759004e6fcbe736289ef800528": {
                "nonce": "0x00",
                "balance": "0x00",
                "code": "0x604060006040600073fee7d85f02f84ce8917fa8300fea57ff41ad47d7620493e0fa00",
                "storage": {}
            },
            "0x2db6829f13013d6280c5be4f6a5e87de274a3c47": {
                "nonce": "0x00",
                "balance": "0x00",
                "code": "0x604060006040600073a7c64824c59e4295a3868a2b275ad46b38f7846d620493e0fa00",
                "storage": {}
            },
            "0x071587c3e5f2ebf88b2a5b048733778605addb28": {
                "nonce": "0x00",
                "balance": "0x0de0b6b3a7640000",
                "code": "0x604060006040600073bda9155e6214fe759004e6fcbe736289ef8005286207a120fa60005500",
                "storage": {}
            },
            "0xed9009abb678fb6e7898148dc46fa339ea580cbd": {
                "nonce": "0x00",
                "balance": "0x0de0b6b3a7640000",
                "code": "0x6040600060406000732db6829f13013d6280c5be4f6a5e87de274a3c476207a120fa60005500",
                "storage": {}
            }
        },
        "postState": {
            "0x000f3df6d732807ef1319fb7b8bb8522d0beac02": {
                "nonce": "0x01",
                "balance": "0x00",
                "code": "0x3373fffffffffffffffffffffffffffffffffffffffe14604d57602036146024575f5ffd5b5f35801560495762001fff810690815414603c575f5ffd5b62001fff01545f5260205ff35b5f5ffd5b62001fff42064281555f359062001fff015500",
                "storage": {
                    "0x03e8": "0x03e8"
                }
            },
            "0xd66f224cbd2fabb21b17bb53c56118f32f62ebd6": {
                "nonce": "0x01",
                "balance": "0x0de0b6b3a742b4ae",
                "code": "0x",
                "storage": {}
            },
            "0xc0e4183389eb57f779a986d8c878f89b9401dc8e": {
                "nonce": "0x00",
                "balance": "0x00",
                "code": "0x6000600060006000346000355af1600055600160015500",
                "storage": {
                    "0x00": "0x01",
                    "0x01": "0x01"
                }
            },
            "0x9d41ca9233d19d3202befcef33f16af7201f0eaa": {
                "nonce": "0x00",
                "balance": "0x00",
                "code": "0x6001600355600160035200",
                "storage": {}
            },
            "0x609e4dfe6190235b9a0362084c741d9ec330fb1e": {
                "nonce": "0x00",
                "balance": "0x00",
                "code": "0x5b61c3506080511015601c5760013b506001608051016080526000565b00",
                "storage": {}
            },
            "0xfee7d85f02f84ce8917fa8300fea57ff41ad47d7": {
                "nonce": "0x00",
                "balance": "0x00",
                "code": "0x60406000604060006000739d41ca9233d19d3202befcef33f16af7201f0eaa6201d4d4f200",
                "storage": {}
            },
            "0xa7c64824c59e4295a3868a2b275ad46b38f7846d": {
                "nonce": "0x00",
                "balance": "0x00",
                "code": "0x6040600060406000600073609e4dfe6190235b9a0362084c741d9ec330fb1e6201d4d4f200",
                "storage": {}
            },
            "0xbda9155e6214fe759004e6fcbe736289ef800528": {
                "nonce": "0x00",
                "balance": "0x00",
                "code": "0x604060006040600073fee7d85f02f84ce8917fa8300fea57ff41ad47d7620493e0fa00",
                "storage": {}
            },
            "0x2db6829f13013d6280c5be4f6a5e87de274a3c47": {
                "nonce": "0x00",
                "balance": "0x00",
                "code": "0x604060006040600073a7c64824c59e4295a3868a2b275ad46b38f7846d620493e0fa00",
                "storage": {}
            },
            "0x071587c3e5f2ebf88b2a5b048733778605addb28": {
                "nonce": "0x00",
                "balance": "0x0de0b6b3a7640000",
                "code": "0x604060006040600073bda9155e6214fe759004e6fcbe736289ef8005286207a120fa60005500",
                "storage": {}
            },
            "0xed9009abb678fb6e7898148dc46fa339ea580cbd": {
                "nonce": "0x00",
                "balance": "0x0de0b6b3a7640000",
                "code": "0x6040600060406000732db6829f13013d6280c5be4f6a5e87de274a3c476207a120fa60005500",
                "storage": {
                    "0x00": "0x01"
                }
            }
        },
        "lastblockhash": "0xd7a68f640a72d91f981de8c946d858ea6e64954535eccd81e9a494af8dade68d",
        "config": {
            "network": "Cancun",
            "chainid": "0x01",
            "blobSchedule": {
                "Cancun": {
                    "target": "0x03",
                    "max": "0x06",
                    "baseFeeUpdateFraction": "0x32f0ed"
                }
            }
        },
        "genesisRLP": "0xf9023cf90236a00000000000000000000000000000000000000000000000000000000000000000a01dcc4de8dec75d7aab85b567b6ccd41ad312451b948a7413f0a142fd40d49347940000000000000000000000000000000000000000a06778c2603ec73cf932dbe08906027b9c5b86190c3d2ddc2668448c7566925dd5a056e81f171bcc55a6ff8345e692c0f86e5b48e01b996cadc001622fb5e363b421a056e81f171bcc55a6ff8345e692c0f86e5b48e01b996cadc001622fb5e363b421b901000000000000000000000000000000000000000000000000000000000000000000000000000000000000000000000000000000000000000000000000000000000000000000000000000000000000000000000000000000000000000000000000000000000000000000000000000000000000000000000000000000000000000000000000000000000000000000000000000000000000000000000000000000000000000000000000000000000000000000000000000000000000000000000000000000000000000000000000000000000000000000000000000000000000000000000000000000000000000000000000000000000000000000000000000000000080808401c9c380808000a000000000000000000000000000000000000000000000000000000000000000008800000000000000000ba056e81f171bcc55a6ff8345e692c0f86e5b48e01b996cadc001622fb5e363b4218080a00000000000000000000000000000000000000000000000000000000000000000c0c0c0",
        "blocks": [
            {
                "blockHeader": {
                    "parentHash": "0x242a22f50ea29a32d5eff3658438482d4a18e6e8f2e518c1436c5da6fa49a38a",
                    "uncleHash": "0x1dcc4de8dec75d7aab85b567b6ccd41ad312451b948a7413f0a142fd40d49347",
                    "coinbase": "0x2adc25665018aa1fe0e6bc666dac8fc2697ff9ba",
                    "stateRoot": "0x6c7b85e233f4018c0623dc7eb5b28d26f3ccd37014382430973817af715619fd",
                    "transactionsTrie": "0x08c8a7e9a10b3809df59a85c5e0ce0bad18e6b59cb1ad1e3003f73945856ec03",
                    "receiptTrie": "0x234b371f448a5c2e7cf8c4e9d5876d2ee8089cb7bf744e77f140cc5eb040ca0b",
                    "bloom": "0x00000000000000000000000000000000000000000000000000000000000000000000000000000000000000000000000000000000000000000000000000000000000000000000000000000000000000000000000000000000000000000000000000000000000000000000000000000000000000000000000000000000000000000000000000000000000000000000000000000000000000000000000000000000000000000000000000000000000000000000000000000000000000000000000000000000000000000000000000000000000000000000000000000000000000000000000000000000000000000000000000000000000000000000000000000000",
                    "difficulty": "0x00",
                    "number": "0x01",
                    "gasLimit": "0x01c9c380",
                    "gasUsed": "0x035455",
                    "timestamp": "0x03e8",
                    "extraData": "0x00",
                    "mixHash": "0x0000000000000000000000000000000000000000000000000000000000020000",
                    "nonce": "0x0000000000000000",
                    "baseFeePerGas": "0x0a",
                    "withdrawalsRoot": "0x56e81f171bcc55a6ff8345e692c0f86e5b48e01b996cadc001622fb5e363b421",
                    "blobGasUsed": "0x00",
                    "excessBlobGas": "0x00",
                    "parentBeaconBlockRoot": "0x0000000000000000000000000000000000000000000000000000000000000000",
                    "hash": "0xd7a68f640a72d91f981de8c946d858ea6e64954535eccd81e9a494af8dade68d"
                },
                "transactions": [
                    {
                        "type": "0x00",
                        "chainId": "0x01",
                        "nonce": "0x00",
                        "gasPrice": "0x0a",
                        "gasLimit": "0x1a3ec0",
                        "to": "0xc0e4183389eb57f779a986d8c878f89b9401dc8e",
                        "value": "0x00",
                        "data": "0x000000000000000000000000ed9009abb678fb6e7898148dc46fa339ea580cbd",
                        "v": "0x26",
                        "r": "0x2a7e0abea0be5c910a82eaa42a3094374ba8591f4040497e1e37862b628d3106",
                        "s": "0x5cfaa12c06bafb7f50adabb68bee4548a877bc363f0e7de6d91b3092b7658440",
                        "sender": "0xd66f224cbd2fabb21b17bb53c56118f32f62ebd6"
                    }
                ],
                "uncleHeaders": [],
                "withdrawals": [],
                "receipts": [
                    {
                        "transactionHash": "0x535d648c2d90abe68da97eae56971aedf0d6ed095dbf428962272d40d7336323",
                        "type": "0x00",
                        "cumulativeGasUsed": "0x035455",
                        "bloom": "0x00000000000000000000000000000000000000000000000000000000000000000000000000000000000000000000000000000000000000000000000000000000000000000000000000000000000000000000000000000000000000000000000000000000000000000000000000000000000000000000000000000000000000000000000000000000000000000000000000000000000000000000000000000000000000000000000000000000000000000000000000000000000000000000000000000000000000000000000000000000000000000000000000000000000000000000000000000000000000000000000000000000000000000000000000000000",
                        "logs": [],
                        "status": true,
                        "rlp": "0xf901090183035455b9010000000000000000000000000000000000000000000000000000000000000000000000000000000000000000000000000000000000000000000000000000000000000000000000000000000000000000000000000000000000000000000000000000000000000000000000000000000000000000000000000000000000000000000000000000000000000000000000000000000000000000000000000000000000000000000000000000000000000000000000000000000000000000000000000000000000000000000000000000000000000000000000000000000000000000000000000000000000000000000000000000000000000000000000000000000000c0"
                    }
                ],
                "rlp": "0xf902c4f9023ba0242a22f50ea29a32d5eff3658438482d4a18e6e8f2e518c1436c5da6fa49a38aa01dcc4de8dec75d7aab85b567b6ccd41ad312451b948a7413f0a142fd40d49347942adc25665018aa1fe0e6bc666dac8fc2697ff9baa06c7b85e233f4018c0623dc7eb5b28d26f3ccd37014382430973817af715619fda008c8a7e9a10b3809df59a85c5e0ce0bad18e6b59cb1ad1e3003f73945856ec03a0234b371f448a5c2e7cf8c4e9d5876d2ee8089cb7bf744e77f140cc5eb040ca0bb901000000000000000000000000000000000000000000000000000000000000000000000000000000000000000000000000000000000000000000000000000000000000000000000000000000000000000000000000000000000000000000000000000000000000000000000000000000000000000000000000000000000000000000000000000000000000000000000000000000000000000000000000000000000000000000000000000000000000000000000000000000000000000000000000000000000000000000000000000000000000000000000000000000000000000000000000000000000000000000000000000000000000000000000000000000000080018401c9c380830354558203e800a000000000000000000000000000000000000000000000000000000000000200008800000000000000000aa056e81f171bcc55a6ff8345e692c0f86e5b48e01b996cadc001622fb5e363b4218080a00000000000000000000000000000000000000000000000000000000000000000f882f880800a831a3ec094c0e4183389eb57f779a986d8c878f89b9401dc8e80a0000000000000000000000000ed9009abb678fb6e7898148dc46fa339ea580cbd26a02a7e0abea0be5c910a82eaa42a3094374ba8591f4040497e1e37862b628d3106a05cfaa12c06bafb7f50adabb68bee4548a877bc363f0e7de6d91b3092b7658440c0c0",
                "blocknumber": "1"
            }
        ],
        "sealEngine": "NoProof",
        "_info": {
            "hash": "0x41c864112e75a79e4617a01ad2a3894862ce5c1797a23d4cd27c7a8bbe06957b",
            "fixture-format": "blockchain_test",
            "comment": "`execution-specs` generated test",
            "filling-transition-tool": "2.19.0",
            "description": "Test_static_callcallcallcode_001_ooge_2.",
            "url": "https://github.com/ethereum/execution-specs/blob/tests-snobal-devnet-5@v8037.0.0/tests/ported_static/stStaticCall/test_static_callcallcallcode_001_ooge_2.py#L25",
            "metadata": {
                "opcode_count": {}
            }
        }
    }
}