{
    "tests/istanbul/eip1344_chainid/test_chainid.py::test_chainid[fork_Istanbul-typed_transaction_0-blockchain_test_from_state_test]": {
        "network": "Istanbul",
        "genesisBlockHeader": {
            "parentHash": "0x0000000000000000000000000000000000000000000000000000000000000000",
            "uncleHash": "0x1dcc4de8dec75d7aab85b567b6ccd41ad312451b948a7413f0a142fd40d49347",
            "coinbase": "0x0000000000000000000000000000000000000000",
            "stateRoot": "0x04cf105f86c00ad2bcf12f8ccf4bade6ab0309b3baa8208c770ce50711ab93dc",
            "transactionsTrie": "0x56e81f171bcc55a6ff8345e692c0f86e5b48e01b996cadc001622fb5e363b421",
            "receiptTrie": "0x56e81f171bcc55a6ff8345e692c0f86e5b48e01b996cadc001622fb5e363b421",
            "bloom": "0x00000000000000000000000000000000000000000000000000000000000000000000000000000000000000000000000000000000000000000000000000000000000000000000000000000000000000000000000000000000000000000000000000000000000000000000000000000000000000000000000000000000000000000000000000000000000000000000000000000000000000000000000000000000000000000000000000000000000000000000000000000000000000000000000000000000000000000000000000000000000000000000000000000000000000000000000000000000000000000000000000000000000000000000000000000000",
            "difficulty": "0x020000",
            "number": "0x00",
            "gasLimit": "0x07270e00",
            "gasUsed": "0x00",
            "timestamp": "0x00",
            "extraData": "0x00",
            "mixHash": "0x0000000000000000000000000000000000000000000000000000000000000000",
            "nonce": "0x0000000000000000",
            "hash": "0x0ce3d54feffac2c371ee0f66dd16188086b44713b3b109e7113730e520e90863"
        },
        "pre": {
            "0x1ad9bc24818784172ff393bb6f89f094d4d2ca29": {
                "nonce": "0x00",
                "balance": "0x3635c9adc5dea00000",
                "code": "0x",
                "storage": {}
            },
            "0xe6597702901512e099b34854c9b8bc7463a39fde": {
                "nonce": "0x01",
                "balance": "0x00",
                "code": "0x4660015500",
                "storage": {}
            }
        },
        "postState": {
            "0x1ad9bc24818784172ff393bb6f89f094d4d2ca29": {
                "nonce": "0x01",
                "balance": "0x3635c9881d844ede00",
                "code": "0x",
                "storage": {}
            },
            "0xe6597702901512e099b34854c9b8bc7463a39fde": {
                "nonce": "0x01",
                "balance": "0x00",
                "code": "0x4660015500",
                "storage": {
                    "0x01": "0x01"
                }
            },
            "0x2adc25665018aa1fe0e6bc666dac8fc2697ff9ba": {
                "nonce": "0x00",
                "balance": "0x1bc1930fa9192200",
                "code": "0x",
                "storage": {}
            }
        },
        "lastblockhash": "0x78a4a45bc8e2bbbe167a7b46c5d3b789ec11a014d60cb4edc985d061d8681795",
        "config": {
            "network": "Istanbul",
            "chainid": "0x01"
        },
        "genesisRLP": "0xf901f9f901f4a00000000000000000000000000000000000000000000000000000000000000000a01dcc4de8dec75d7aab85b567b6ccd41ad312451b948a7413f0a142fd40d49347940000000000000000000000000000000000000000a004cf105f86c00ad2bcf12f8ccf4bade6ab0309b3baa8208c770ce50711ab93dca056e81f171bcc55a6ff8345e692c0f86e5b48e01b996cadc001622fb5e363b421a056e81f171bcc55a6ff8345e692c0f86e5b48e01b996cadc001622fb5e363b421b901000000000000000000000000000000000000000000000000000000000000000000000000000000000000000000000000000000000000000000000000000000000000000000000000000000000000000000000000000000000000000000000000000000000000000000000000000000000000000000000000000000000000000000000000000000000000000000000000000000000000000000000000000000000000000000000000000000000000000000000000000000000000000000000000000000000000000000000000000000000000000000000000000000000000000000000000000000000000000000000000000000000000000000000000000000000083020000808407270e00808000a00000000000000000000000000000000000000000000000000000000000000000880000000000000000c0c0",
        "blocks": [
            {
                "blockHeader": {
                    "parentHash": "0x0ce3d54feffac2c371ee0f66dd16188086b44713b3b109e7113730e520e90863",
                    "uncleHash": "0x1dcc4de8dec75d7aab85b567b6ccd41ad312451b948a7413f0a142fd40d49347",
                    "coinbase": "0x2adc25665018aa1fe0e6bc666dac8fc2697ff9ba",
                    "stateRoot": "0x2da6490495728b79ee8a3ad0a94953554a90e511463ff7bbbec846e2e9635eda",
                    "transactionsTrie": "0x62a79069d7392c9b8ce22e6346e06690fe270aa36981eeadb15d1f02caf0bcf5",
                    "receiptTrie": "0xf70b7fa324b8cfabcc25d609573cdce242adfd8523720c69c3eb7ec7efc56371",
                    "bloom": "0x00000000000000000000000000000000000000000000000000000000000000000000000000000000000000000000000000000000000000000000000000000000000000000000000000000000000000000000000000000000000000000000000000000000000000000000000000000000000000000000000000000000000000000000000000000000000000000000000000000000000000000000000000000000000000000000000000000000000000000000000000000000000000000000000000000000000000000000000000000000000000000000000000000000000000000000000000000000000000000000000000000000000000000000000000000000",
                    "difficulty": "0x020000",
                    "number": "0x01",
                    "gasLimit": "0x07270e00",
                    "gasUsed": "0xa1bd",
                    "timestamp": "0x03e8",
                    "extraData": "0x00",
                    "mixHash": "0x0000000000000000000000000000000000000000000000000000000000000000",
                    "nonce": "0x0000000000000000",
                    "hash": "0x78a4a45bc8e2bbbe167a7b46c5d3b789ec11a014d60cb4edc985d061d8681795"
                },
                "transactions": [
                    {
                        "type": "0x00",
                        "chainId": "0x01",
                        "nonce": "0x00",
                        "gasPrice": "0x3b9aca00",
                        "gasLimit": "0x0186a0",
                        "to": "0xe6597702901512e099b34854c9b8bc7463a39fde",
                        "value": "0x00",
                        "data": "0x00000000000000000000000000000000000000000000000000000000000000000000000000000000000000000000000000000000000000000000000000000000000000000000000000000000000000000000000000000000000000000000000000000000",
                        "v": "0x26",
                        "r": "0x6213d1f8cfbf79288bbbbf772f0a75b47764cdca323ba19ebaf4dfe0775e0536",
                        "s": "0x6db956f38cd2c71127f8821719891561797ffabfc0904a87f7171611ff35ecd9",
                        "sender": "0x1ad9bc24818784172ff393bb6f89f094d4d2ca29"
                    }
                ],
                "uncleHeaders": [],
                "receipts": [
                    {
                        "transactionHash": "0x43138bd69d4cac70a2bf6e86daf25bdf694534f287786e5470df4adf7ecf75c4",
                        "type": "0x00",
                        "cumulativeGasUsed": "0xa1bd",
                        "bloom": "0x00000000000000000000000000000000000000000000000000000000000000000000000000000000000000000000000000000000000000000000000000000000000000000000000000000000000000000000000000000000000000000000000000000000000000000000000000000000000000000000000000000000000000000000000000000000000000000000000000000000000000000000000000000000000000000000000000000000000000000000000000000000000000000000000000000000000000000000000000000000000000000000000000000000000000000000000000000000000000000000000000000000000000000000000000000000",
                        "logs": [],
                        "status": true,
                        "rlp": "0xf901080182a1bdb9010000000000000000000000000000000000000000000000000000000000000000000000000000000000000000000000000000000000000000000000000000000000000000000000000000000000000000000000000000000000000000000000000000000000000000000000000000000000000000000000000000000000000000000000000000000000000000000000000000000000000000000000000000000000000000000000000000000000000000000000000000000000000000000000000000000000000000000000000000000000000000000000000000000000000000000000000000000000000000000000000000000000000000000000000000000000c0"
                    }
                ],
                "rlp": "0xf902c9f901f8a00ce3d54feffac2c371ee0f66dd16188086b44713b3b109e7113730e520e90863a01dcc4de8dec75d7aab85b567b6ccd41ad312451b948a7413f0a142fd40d49347942adc25665018aa1fe0e6bc666dac8fc2697ff9baa02da6490495728b79ee8a3ad0a94953554a90e511463ff7bbbec846e2e9635edaa062a79069d7392c9b8ce22e6346e06690fe270aa36981eeadb15d1f02caf0bcf5a0f70b7fa324b8cfabcc25d609573cdce242adfd8523720c69c3eb7ec7efc56371b901000000000000000000000000000000000000000000000000000000000000000000000000000000000000000000000000000000000000000000000000000000000000000000000000000000000000000000000000000000000000000000000000000000000000000000000000000000000000000000000000000000000000000000000000000000000000000000000000000000000000000000000000000000000000000000000000000000000000000000000000000000000000000000000000000000000000000000000000000000000000000000000000000000000000000000000000000000000000000000000000000000000000000000000000000000000083020000018407270e0082a1bd8203e800a00000000000000000000000000000000000000000000000000000000000000000880000000000000000f8cbf8c980843b9aca00830186a094e6597702901512e099b34854c9b8bc7463a39fde80b8640000000000000000000000000000000000000000000000000000000000000000000000000000000000000000000000000000000000000000000000000000000000000000000000000000000000000000000000000000000000000000000000000000000026a06213d1f8cfbf79288bbbbf772f0a75b47764cdca323ba19ebaf4dfe0775e0536a06db956f38cd2c71127f8821719891561797ffabfc0904a87f7171611ff35ecd9c0",
                "blocknumber": "1"
            }
        ],
        "sealEngine": "NoProof",
        "_info": {
            "hash": "0x2538fd5c0781bd461cccdc7163b3f0af6a8ff9ed1db44dfcb9bc071aaabd8dba",
            "fixture-format": "blockchain_test",
            "comment": "`execution-specs` generated test",
            "filling-transition-tool": "2.19.0",
            "description": "Test CHAINID opcode.",
            "url": "https://github.com/ethereum/execution-specs/blob/tests-sn\u00f8bal-devnet-4@v1.0.0/tests/istanbul/eip1344_chainid/test_chainid.py#L19",
            "metadata": {
                "opcode_count": {}
            },
            "reference-spec": "https://github.com/ethereum/EIPs/blob/master/EIPS/eip-1344.md",
            "reference-spec-version": "02e46aebc80e6e5006ab4d2daa41876139f9a9e2"
        }
    }
}