{
    "tests/frontier/opcodes/test_call.py::test_call_large_offset_mstore[fork_London-blockchain_test_from_state_test]": {
        "network": "London",
        "genesisBlockHeader": {
            "parentHash": "0x0000000000000000000000000000000000000000000000000000000000000000",
            "uncleHash": "0x1dcc4de8dec75d7aab85b567b6ccd41ad312451b948a7413f0a142fd40d49347",
            "coinbase": "0x0000000000000000000000000000000000000000",
            "stateRoot": "0xa702cf4fe6b5d5dec4b3cc366f9c419772df1299d14eedbb366b5920624b4717",
            "transactionsTrie": "0x56e81f171bcc55a6ff8345e692c0f86e5b48e01b996cadc001622fb5e363b421",
            "receiptTrie": "0x56e81f171bcc55a6ff8345e692c0f86e5b48e01b996cadc001622fb5e363b421",
            "bloom": "0x00000000000000000000000000000000000000000000000000000000000000000000000000000000000000000000000000000000000000000000000000000000000000000000000000000000000000000000000000000000000000000000000000000000000000000000000000000000000000000000000000000000000000000000000000000000000000000000000000000000000000000000000000000000000000000000000000000000000000000000000000000000000000000000000000000000000000000000000000000000000000000000000000000000000000000000000000000000000000000000000000000000000000000000000000000000",
            "difficulty": "0x020000",
            "number": "0x00",
            "gasLimit": "0x07270e00",
            "gasUsed": "0x00",
            "timestamp": "0x00",
            "extraData": "0x00",
            "mixHash": "0x0000000000000000000000000000000000000000000000000000000000000000",
            "nonce": "0x0000000000000000",
            "baseFeePerGas": "0x07",
            "hash": "0x5e14e58c83b290e19ce7554de18bf1fa53677c9c39946f1e9ae27bc63182636e"
        },
        "pre": {
            "0x1ad9bc24818784172ff393bb6f89f094d4d2ca29": {
                "nonce": "0x00",
                "balance": "0x3635c9adc5dea00000",
                "code": "0x",
                "storage": {}
            },
            "0xb6871adb87d3c0e8ccdb546b44c5be40f4bc6887": {
                "nonce": "0x01",
                "balance": "0x00",
                "code": "0x5a6000608060006000600060006000f15a9050900360155a5a90030190036000555a60016080525a900360065a5a900301900360015500",
                "storage": {}
            }
        },
        "postState": {
            "0x1ad9bc24818784172ff393bb6f89f094d4d2ca29": {
                "nonce": "0x01",
                "balance": "0x3635c9adc5de95a2e0",
                "code": "0x",
                "storage": {}
            },
            "0xb6871adb87d3c0e8ccdb546b44c5be40f4bc6887": {
                "nonce": "0x01",
                "balance": "0x00",
                "code": "0x5a6000608060006000600060006000f15a9050900360155a5a90030190036000555a60016080525a900360065a5a900301900360015500",
                "storage": {
                    "0x00": "0x0a28",
                    "0x01": "0x12"
                }
            },
            "0x2adc25665018aa1fe0e6bc666dac8fc2697ff9ba": {
                "nonce": "0x00",
                "balance": "0x1bc16d674ecb1bf0",
                "code": "0x",
                "storage": {}
            }
        },
        "lastblockhash": "0x6fc0eea251c1f03259d236e749fc15ff6a2cedfa1f168d91858732195145754e",
        "config": {
            "network": "London",
            "chainid": "0x01"
        },
        "genesisRLP": "0xf901faf901f5a00000000000000000000000000000000000000000000000000000000000000000a01dcc4de8dec75d7aab85b567b6ccd41ad312451b948a7413f0a142fd40d49347940000000000000000000000000000000000000000a0a702cf4fe6b5d5dec4b3cc366f9c419772df1299d14eedbb366b5920624b4717a056e81f171bcc55a6ff8345e692c0f86e5b48e01b996cadc001622fb5e363b421a056e81f171bcc55a6ff8345e692c0f86e5b48e01b996cadc001622fb5e363b421b901000000000000000000000000000000000000000000000000000000000000000000000000000000000000000000000000000000000000000000000000000000000000000000000000000000000000000000000000000000000000000000000000000000000000000000000000000000000000000000000000000000000000000000000000000000000000000000000000000000000000000000000000000000000000000000000000000000000000000000000000000000000000000000000000000000000000000000000000000000000000000000000000000000000000000000000000000000000000000000000000000000000000000000000000000000000083020000808407270e00808000a0000000000000000000000000000000000000000000000000000000000000000088000000000000000007c0c0",
        "blocks": [
            {
                "blockHeader": {
                    "parentHash": "0x5e14e58c83b290e19ce7554de18bf1fa53677c9c39946f1e9ae27bc63182636e",
                    "uncleHash": "0x1dcc4de8dec75d7aab85b567b6ccd41ad312451b948a7413f0a142fd40d49347",
                    "coinbase": "0x2adc25665018aa1fe0e6bc666dac8fc2697ff9ba",
                    "stateRoot": "0x49a78b5f932be3f935151775704977a0e7c0610a3294ed778e18bf6471cfa404",
                    "transactionsTrie": "0x26437a5f2dd3f432d4c73c87ec515e2ea7bd98bc1dc2c03f10cd1ec679e62d46",
                    "receiptTrie": "0x016323496af4c0046f05bf3bfb0906588e67cef4dcda0fd5b4fbd968464f3c2c",
                    "bloom": "0x00000000000000000000000000000000000000000000000000000000000000000000000000000000000000000000000000000000000000000000000000000000000000000000000000000000000000000000000000000000000000000000000000000000000000000000000000000000000000000000000000000000000000000000000000000000000000000000000000000000000000000000000000000000000000000000000000000000000000000000000000000000000000000000000000000000000000000000000000000000000000000000000000000000000000000000000000000000000000000000000000000000000000000000000000000000",
                    "difficulty": "0x020000",
                    "number": "0x01",
                    "gasLimit": "0x07270e00",
                    "gasUsed": "0x010950",
                    "timestamp": "0x03e8",
                    "extraData": "0x00",
                    "mixHash": "0x0000000000000000000000000000000000000000000000000000000000000000",
                    "nonce": "0x0000000000000000",
                    "baseFeePerGas": "0x07",
                    "hash": "0x6fc0eea251c1f03259d236e749fc15ff6a2cedfa1f168d91858732195145754e"
                },
                "transactions": [
                    {
                        "type": "0x00",
                        "chainId": "0x01",
                        "nonce": "0x00",
                        "gasPrice": "0x0a",
                        "gasLimit": "0x07a120",
                        "to": "0xb6871adb87d3c0e8ccdb546b44c5be40f4bc6887",
                        "value": "0x00",
                        "data": "0x",
                        "v": "0x26",
                        "r": "0xaa7b573ce311867e98110b0866a991f15355e3e92f034aaaa9d07bb1e8529530",
                        "s": "0x68fb6f9f2adf194687fe42d13b4fd88300def70164ac29aa44953b19f14dc090",
                        "sender": "0x1ad9bc24818784172ff393bb6f89f094d4d2ca29"
                    }
                ],
                "uncleHeaders": [],
                "receipts": [
                    {
                        "transactionHash": "0x8a3a433f4470ce3735877c3e827c1a34c3051e8babb36a2e978b2593bfd3417b",
                        "type": "0x00",
                        "cumulativeGasUsed": "0x010950",
                        "bloom": "0x00000000000000000000000000000000000000000000000000000000000000000000000000000000000000000000000000000000000000000000000000000000000000000000000000000000000000000000000000000000000000000000000000000000000000000000000000000000000000000000000000000000000000000000000000000000000000000000000000000000000000000000000000000000000000000000000000000000000000000000000000000000000000000000000000000000000000000000000000000000000000000000000000000000000000000000000000000000000000000000000000000000000000000000000000000000",
                        "logs": [],
                        "status": true,
                        "rlp": "0xf901090183010950b9010000000000000000000000000000000000000000000000000000000000000000000000000000000000000000000000000000000000000000000000000000000000000000000000000000000000000000000000000000000000000000000000000000000000000000000000000000000000000000000000000000000000000000000000000000000000000000000000000000000000000000000000000000000000000000000000000000000000000000000000000000000000000000000000000000000000000000000000000000000000000000000000000000000000000000000000000000000000000000000000000000000000000000000000000000000000c0"
                    }
                ],
                "rlp": "0xf90262f901faa05e14e58c83b290e19ce7554de18bf1fa53677c9c39946f1e9ae27bc63182636ea01dcc4de8dec75d7aab85b567b6ccd41ad312451b948a7413f0a142fd40d49347942adc25665018aa1fe0e6bc666dac8fc2697ff9baa049a78b5f932be3f935151775704977a0e7c0610a3294ed778e18bf6471cfa404a026437a5f2dd3f432d4c73c87ec515e2ea7bd98bc1dc2c03f10cd1ec679e62d46a0016323496af4c0046f05bf3bfb0906588e67cef4dcda0fd5b4fbd968464f3c2cb901000000000000000000000000000000000000000000000000000000000000000000000000000000000000000000000000000000000000000000000000000000000000000000000000000000000000000000000000000000000000000000000000000000000000000000000000000000000000000000000000000000000000000000000000000000000000000000000000000000000000000000000000000000000000000000000000000000000000000000000000000000000000000000000000000000000000000000000000000000000000000000000000000000000000000000000000000000000000000000000000000000000000000000000000000000000083020000018407270e00830109508203e800a0000000000000000000000000000000000000000000000000000000000000000088000000000000000007f862f860800a8307a12094b6871adb87d3c0e8ccdb546b44c5be40f4bc6887808026a0aa7b573ce311867e98110b0866a991f15355e3e92f034aaaa9d07bb1e8529530a068fb6f9f2adf194687fe42d13b4fd88300def70164ac29aa44953b19f14dc090c0",
                "blocknumber": "1"
            }
        ],
        "sealEngine": "NoProof",
        "_info": {
            "hash": "0xf8508e8114b5061543902110c415f015c4df568fc56fc6a780a5259c3a964384",
            "fixture-format": "blockchain_test",
            "comment": "`execution-specs` generated test",
            "filling-transition-tool": "2.19.0",
            "description": "CALL with ret_offset larger than memory size and ret_size zero Then do an\nMSTORE in that offset to see if memory was expanded in CALL.\n\nThis is for bug in a faulty EVM implementation where memory is expanded\nwhen it shouldn't.",
            "url": "https://github.com/ethereum/execution-specs/blob/tests-bal@v5.6.1/tests/frontier/opcodes/test_call.py#L19",
            "metadata": {
                "opcode_count": {}
            }
        }
    }
}