{
    "tests/ported_static/stStaticCall/test_static_callcallcodecall_abcb_recursive2.py::test_static_callcallcodecall_abcb_recursive2[fork_Cancun-blockchain_test_from_state_test]": {
        "network": "Cancun",
        "genesisBlockHeader": {
            "parentHash": "0x0000000000000000000000000000000000000000000000000000000000000000",
            "uncleHash": "0x1dcc4de8dec75d7aab85b567b6ccd41ad312451b948a7413f0a142fd40d49347",
            "coinbase": "0x0000000000000000000000000000000000000000",
            "stateRoot": "0x9383bddcda2f25a99abffa8f9290ab3a783e5d1b5b35b9865d992d02357847f9",
            "transactionsTrie": "0x56e81f171bcc55a6ff8345e692c0f86e5b48e01b996cadc001622fb5e363b421",
            "receiptTrie": "0x56e81f171bcc55a6ff8345e692c0f86e5b48e01b996cadc001622fb5e363b421",
            "bloom": "0x00000000000000000000000000000000000000000000000000000000000000000000000000000000000000000000000000000000000000000000000000000000000000000000000000000000000000000000000000000000000000000000000000000000000000000000000000000000000000000000000000000000000000000000000000000000000000000000000000000000000000000000000000000000000000000000000000000000000000000000000000000000000000000000000000000000000000000000000000000000000000000000000000000000000000000000000000000000000000000000000000000000000000000000000000000000",
            "difficulty": "0x00",
            "number": "0x00",
            "gasLimit": "0x07270e00",
            "gasUsed": "0x00",
            "timestamp": "0x00",
            "extraData": "0x00",
            "mixHash": "0x0000000000000000000000000000000000000000000000000000000000000000",
            "nonce": "0x0000000000000000",
            "baseFeePerGas": "0x0b",
            "withdrawalsRoot": "0x56e81f171bcc55a6ff8345e692c0f86e5b48e01b996cadc001622fb5e363b421",
            "blobGasUsed": "0x00",
            "excessBlobGas": "0x00",
            "parentBeaconBlockRoot": "0x0000000000000000000000000000000000000000000000000000000000000000",
            "hash": "0xf673dbd2add1b55a971293f53adc53323e83776c3963cda5daab1b93ac8d062b"
        },
        "pre": {
            "0x000f3df6d732807ef1319fb7b8bb8522d0beac02": {
                "nonce": "0x01",
                "balance": "0x00",
                "code": "0x3373fffffffffffffffffffffffffffffffffffffffe14604d57602036146024575f5ffd5b5f35801560495762001fff810690815414603c575f5ffd5b62001fff01545f5260205ff35b5f5ffd5b62001fff42064281555f359062001fff015500",
                "storage": {}
            },
            "0x0f30355d1f829e0dd67066517a43a738ac501d99": {
                "nonce": "0x00",
                "balance": "0x0de0b6b3a7640000",
                "code": "0x6040600060406000739ef1d089354c245c0c8a08590f55e76008ac54cd63017d7840fa600055600160015500",
                "storage": {}
            },
            "0x9ef1d089354c245c0c8a08590f55e76008ac54cd": {
                "nonce": "0x00",
                "balance": "0x02540be400",
                "code": "0x60406000604060006000731e2229d0f325b81b81b8b14f2d239ff9742683c0620f4240f200",
                "storage": {}
            },
            "0x1e2229d0f325b81b81b8b14f2d239ff9742683c0": {
                "nonce": "0x00",
                "balance": "0x02540be400",
                "code": "0x6040600060406000739ef1d089354c245c0c8a08590f55e76008ac54cd6207a120fa00",
                "storage": {}
            },
            "0xebaf50debf10e08302fe4280c32df010463ca297": {
                "nonce": "0x00",
                "balance": "0x0de0b6b3a7640000",
                "code": "0x",
                "storage": {}
            }
        },
        "postState": {
            "0x000f3df6d732807ef1319fb7b8bb8522d0beac02": {
                "nonce": "0x01",
                "balance": "0x00",
                "code": "0x3373fffffffffffffffffffffffffffffffffffffffe14604d57602036146024575f5ffd5b5f35801560495762001fff810690815414603c575f5ffd5b62001fff01545f5260205ff35b5f5ffd5b62001fff42064281555f359062001fff015500",
                "storage": {
                    "0x03e8": "0x03e8"
                }
            },
            "0x0f30355d1f829e0dd67066517a43a738ac501d99": {
                "nonce": "0x00",
                "balance": "0x0de0b6b3a7640000",
                "code": "0x6040600060406000739ef1d089354c245c0c8a08590f55e76008ac54cd63017d7840fa600055600160015500",
                "storage": {
                    "0x00": "0x01",
                    "0x01": "0x01"
                }
            },
            "0x9ef1d089354c245c0c8a08590f55e76008ac54cd": {
                "nonce": "0x00",
                "balance": "0x02540be400",
                "code": "0x60406000604060006000731e2229d0f325b81b81b8b14f2d239ff9742683c0620f4240f200",
                "storage": {}
            },
            "0x1e2229d0f325b81b81b8b14f2d239ff9742683c0": {
                "nonce": "0x00",
                "balance": "0x02540be400",
                "code": "0x6040600060406000739ef1d089354c245c0c8a08590f55e76008ac54cd6207a120fa00",
                "storage": {}
            },
            "0xebaf50debf10e08302fe4280c32df010463ca297": {
                "nonce": "0x01",
                "balance": "0x0de0b6b3a75429e6",
                "code": "0x",
                "storage": {}
            }
        },
        "lastblockhash": "0xa6e0d6e95074d55c3ae09743c97d254cf18219f0fcd57a495bbf199510944827",
        "config": {
            "network": "Cancun",
            "chainid": "0x01",
            "blobSchedule": {
                "Cancun": {
                    "target": "0x03",
                    "max": "0x06",
                    "baseFeeUpdateFraction": "0x32f0ed"
                }
            }
        },
        "genesisRLP": "0xf9023cf90236a00000000000000000000000000000000000000000000000000000000000000000a01dcc4de8dec75d7aab85b567b6ccd41ad312451b948a7413f0a142fd40d49347940000000000000000000000000000000000000000a09383bddcda2f25a99abffa8f9290ab3a783e5d1b5b35b9865d992d02357847f9a056e81f171bcc55a6ff8345e692c0f86e5b48e01b996cadc001622fb5e363b421a056e81f171bcc55a6ff8345e692c0f86e5b48e01b996cadc001622fb5e363b421b901000000000000000000000000000000000000000000000000000000000000000000000000000000000000000000000000000000000000000000000000000000000000000000000000000000000000000000000000000000000000000000000000000000000000000000000000000000000000000000000000000000000000000000000000000000000000000000000000000000000000000000000000000000000000000000000000000000000000000000000000000000000000000000000000000000000000000000000000000000000000000000000000000000000000000000000000000000000000000000000000000000000000000000000000000000000080808407270e00808000a000000000000000000000000000000000000000000000000000000000000000008800000000000000000ba056e81f171bcc55a6ff8345e692c0f86e5b48e01b996cadc001622fb5e363b4218080a00000000000000000000000000000000000000000000000000000000000000000c0c0c0",
        "blocks": [
            {
                "blockHeader": {
                    "parentHash": "0xf673dbd2add1b55a971293f53adc53323e83776c3963cda5daab1b93ac8d062b",
                    "uncleHash": "0x1dcc4de8dec75d7aab85b567b6ccd41ad312451b948a7413f0a142fd40d49347",
                    "coinbase": "0x2adc25665018aa1fe0e6bc666dac8fc2697ff9ba",
                    "stateRoot": "0xdaa34e07e9fe4a7902c7b1429211c4994b5f8f2236c7782a006f2c4e04207141",
                    "transactionsTrie": "0xa954131946bfbe42e62ad4ded1cad05cd58ac7fccd3cbd4b153a3cbe1b59a2ee",
                    "receiptTrie": "0xe937e492c24852f75b6854930a38f6eadbbf39c7ea0ef3612ee31ffbefedea69",
                    "bloom": "0x00000000000000000000000000000000000000000000000000000000000000000000000000000000000000000000000000000000000000000000000000000000000000000000000000000000000000000000000000000000000000000000000000000000000000000000000000000000000000000000000000000000000000000000000000000000000000000000000000000000000000000000000000000000000000000000000000000000000000000000000000000000000000000000000000000000000000000000000000000000000000000000000000000000000000000000000000000000000000000000000000000000000000000000000000000000",
                    "difficulty": "0x00",
                    "number": "0x01",
                    "gasLimit": "0x07270e00",
                    "gasUsed": "0x019569",
                    "timestamp": "0x03e8",
                    "extraData": "0x00",
                    "mixHash": "0x0000000000000000000000000000000000000000000000000000000000020000",
                    "nonce": "0x0000000000000000",
                    "baseFeePerGas": "0x0a",
                    "withdrawalsRoot": "0x56e81f171bcc55a6ff8345e692c0f86e5b48e01b996cadc001622fb5e363b421",
                    "blobGasUsed": "0x00",
                    "excessBlobGas": "0x00",
                    "parentBeaconBlockRoot": "0x0000000000000000000000000000000000000000000000000000000000000000",
                    "hash": "0xa6e0d6e95074d55c3ae09743c97d254cf18219f0fcd57a495bbf199510944827"
                },
                "transactions": [
                    {
                        "type": "0x00",
                        "chainId": "0x01",
                        "nonce": "0x00",
                        "gasPrice": "0x0a",
                        "gasLimit": "0x0927c0",
                        "to": "0x0f30355d1f829e0dd67066517a43a738ac501d99",
                        "value": "0x00",
                        "data": "0x",
                        "v": "0x26",
                        "r": "0x4526934087f8bfbc3aa9ac001584c9641b4af422de698ca114a7dde7f1cf5c4e",
                        "s": "0x7e555ed366770b1f9cbd1742c17a84b7c89c46dcb0e89d8b90ba6b7ea295802f",
                        "sender": "0xebaf50debf10e08302fe4280c32df010463ca297"
                    }
                ],
                "uncleHeaders": [],
                "withdrawals": [],
                "receipts": [
                    {
                        "transactionHash": "0x1438dca491d6280b3abb1aff7984bf9dc4e8a76841f6634c1ce32d1aa39dfb76",
                        "type": "0x00",
                        "cumulativeGasUsed": "0x019569",
                        "bloom": "0x00000000000000000000000000000000000000000000000000000000000000000000000000000000000000000000000000000000000000000000000000000000000000000000000000000000000000000000000000000000000000000000000000000000000000000000000000000000000000000000000000000000000000000000000000000000000000000000000000000000000000000000000000000000000000000000000000000000000000000000000000000000000000000000000000000000000000000000000000000000000000000000000000000000000000000000000000000000000000000000000000000000000000000000000000000000",
                        "logs": [],
                        "status": true,
                        "rlp": "0xf901090183019569b9010000000000000000000000000000000000000000000000000000000000000000000000000000000000000000000000000000000000000000000000000000000000000000000000000000000000000000000000000000000000000000000000000000000000000000000000000000000000000000000000000000000000000000000000000000000000000000000000000000000000000000000000000000000000000000000000000000000000000000000000000000000000000000000000000000000000000000000000000000000000000000000000000000000000000000000000000000000000000000000000000000000000000000000000000000000000c0"
                    }
                ],
                "rlp": "0xf902a4f9023ba0f673dbd2add1b55a971293f53adc53323e83776c3963cda5daab1b93ac8d062ba01dcc4de8dec75d7aab85b567b6ccd41ad312451b948a7413f0a142fd40d49347942adc25665018aa1fe0e6bc666dac8fc2697ff9baa0daa34e07e9fe4a7902c7b1429211c4994b5f8f2236c7782a006f2c4e04207141a0a954131946bfbe42e62ad4ded1cad05cd58ac7fccd3cbd4b153a3cbe1b59a2eea0e937e492c24852f75b6854930a38f6eadbbf39c7ea0ef3612ee31ffbefedea69b901000000000000000000000000000000000000000000000000000000000000000000000000000000000000000000000000000000000000000000000000000000000000000000000000000000000000000000000000000000000000000000000000000000000000000000000000000000000000000000000000000000000000000000000000000000000000000000000000000000000000000000000000000000000000000000000000000000000000000000000000000000000000000000000000000000000000000000000000000000000000000000000000000000000000000000000000000000000000000000000000000000000000000000000000000000000080018407270e00830195698203e800a000000000000000000000000000000000000000000000000000000000000200008800000000000000000aa056e81f171bcc55a6ff8345e692c0f86e5b48e01b996cadc001622fb5e363b4218080a00000000000000000000000000000000000000000000000000000000000000000f862f860800a830927c0940f30355d1f829e0dd67066517a43a738ac501d99808026a04526934087f8bfbc3aa9ac001584c9641b4af422de698ca114a7dde7f1cf5c4ea07e555ed366770b1f9cbd1742c17a84b7c89c46dcb0e89d8b90ba6b7ea295802fc0c0",
                "blocknumber": "1"
            }
        ],
        "sealEngine": "NoProof",
        "_info": {
            "hash": "0x4352c09badae82852e41cbce4f9847522f11dec77568872a3e9228956cc755b2",
            "fixture-format": "blockchain_test",
            "comment": "`execution-specs` generated test",
            "filling-transition-tool": "2.19.0",
            "description": "Test_static_callcallcodecall_abcb_recursive2.",
            "url": "https://github.com/ethereum/execution-specs/blob/tests-sn\u00f8bal-devnet-4@v1.0.0/tests/ported_static/stStaticCall/test_static_callcallcodecall_abcb_recursive2.py#L25",
            "metadata": {
                "opcode_count": {}
            }
        }
    }
}