{
    "tests/ported_static/stStaticCall/test_static_callcallcallcode_001_oogm_after.py::test_static_callcallcallcode_001_oogm_after[fork_Cancun-blockchain_test_from_state_test-d0]": {
        "network": "Cancun",
        "genesisBlockHeader": {
            "parentHash": "0x0000000000000000000000000000000000000000000000000000000000000000",
            "uncleHash": "0x1dcc4de8dec75d7aab85b567b6ccd41ad312451b948a7413f0a142fd40d49347",
            "coinbase": "0x0000000000000000000000000000000000000000",
            "stateRoot": "0x6670eacc68ff599fcbf902030bfd25ff2953eb8abe15f5c57381aaf133ca6930",
            "transactionsTrie": "0x56e81f171bcc55a6ff8345e692c0f86e5b48e01b996cadc001622fb5e363b421",
            "receiptTrie": "0x56e81f171bcc55a6ff8345e692c0f86e5b48e01b996cadc001622fb5e363b421",
            "bloom": "0x00000000000000000000000000000000000000000000000000000000000000000000000000000000000000000000000000000000000000000000000000000000000000000000000000000000000000000000000000000000000000000000000000000000000000000000000000000000000000000000000000000000000000000000000000000000000000000000000000000000000000000000000000000000000000000000000000000000000000000000000000000000000000000000000000000000000000000000000000000000000000000000000000000000000000000000000000000000000000000000000000000000000000000000000000000000",
            "difficulty": "0x00",
            "number": "0x00",
            "gasLimit": "0x01c9c380",
            "gasUsed": "0x00",
            "timestamp": "0x00",
            "extraData": "0x00",
            "mixHash": "0x0000000000000000000000000000000000000000000000000000000000000000",
            "nonce": "0x0000000000000000",
            "baseFeePerGas": "0x0b",
            "withdrawalsRoot": "0x56e81f171bcc55a6ff8345e692c0f86e5b48e01b996cadc001622fb5e363b421",
            "blobGasUsed": "0x00",
            "excessBlobGas": "0x00",
            "parentBeaconBlockRoot": "0x0000000000000000000000000000000000000000000000000000000000000000",
            "hash": "0x125c764495c29dc87ec2ca6b5a9fc40bf6eb5f8e7346573a855db66e15fd133f"
        },
        "pre": {
            "0x000f3df6d732807ef1319fb7b8bb8522d0beac02": {
                "nonce": "0x01",
                "balance": "0x00",
                "code": "0x3373fffffffffffffffffffffffffffffffffffffffe14604d57602036146024575f5ffd5b5f35801560495762001fff810690815414603c575f5ffd5b62001fff01545f5260205ff35b5f5ffd5b62001fff42064281555f359062001fff015500",
                "storage": {}
            },
            "0xd66f224cbd2fabb21b17bb53c56118f32f62ebd6": {
                "nonce": "0x00",
                "balance": "0x0de0b6b3a7640000",
                "code": "0x",
                "storage": {}
            },
            "0xf1f083974fd68b961e68130c27fc5ef37b49c1df": {
                "nonce": "0x00",
                "balance": "0x0de0b6b3a7640000",
                "code": "0x604060006040600060003562092856fa600055600160015500",
                "storage": {}
            },
            "0x335c5531b84765a7626e6e76688f18b81be5259c": {
                "nonce": "0x00",
                "balance": "0x00",
                "code": "0x600160035200",
                "storage": {}
            },
            "0x265eeb9a84fea22da8b58252402b03bafe1a6324": {
                "nonce": "0x00",
                "balance": "0x00",
                "code": "0x6001600352604060006040600073335c5531b84765a7626e6e76688f18b81be5259c6201d4d4f450600160205200",
                "storage": {}
            },
            "0xee8f7e38be79a20210ba7860a51507505984e4ed": {
                "nonce": "0x00",
                "balance": "0x00",
                "code": "0x6001600352604060006040600073265eeb9a84fea22da8b58252402b03bafe1a632462061ad5fa505b61c350608051101560445760013b506001608051016080526028565b00",
                "storage": {}
            },
            "0x4cd868420cbc0e9d9ba63455a2d0a36ce0fabf2c": {
                "nonce": "0x00",
                "balance": "0x00",
                "code": "0x6001600352604060006040600073265eeb9a84fea22da8b58252402b03bafe1a632462061ad5fa50600160035500",
                "storage": {}
            }
        },
        "postState": {
            "0x000f3df6d732807ef1319fb7b8bb8522d0beac02": {
                "nonce": "0x01",
                "balance": "0x00",
                "code": "0x3373fffffffffffffffffffffffffffffffffffffffe14604d57602036146024575f5ffd5b5f35801560495762001fff810690815414603c575f5ffd5b62001fff01545f5260205ff35b5f5ffd5b62001fff42064281555f359062001fff015500",
                "storage": {
                    "0x03e8": "0x03e8"
                }
            },
            "0xd66f224cbd2fabb21b17bb53c56118f32f62ebd6": {
                "nonce": "0x01",
                "balance": "0x0de0b6b3a7010dc4",
                "code": "0x",
                "storage": {}
            },
            "0xf1f083974fd68b961e68130c27fc5ef37b49c1df": {
                "nonce": "0x00",
                "balance": "0x0de0b6b3a7640000",
                "code": "0x604060006040600060003562092856fa600055600160015500",
                "storage": {
                    "0x01": "0x01"
                }
            },
            "0x335c5531b84765a7626e6e76688f18b81be5259c": {
                "nonce": "0x00",
                "balance": "0x00",
                "code": "0x600160035200",
                "storage": {}
            },
            "0x265eeb9a84fea22da8b58252402b03bafe1a6324": {
                "nonce": "0x00",
                "balance": "0x00",
                "code": "0x6001600352604060006040600073335c5531b84765a7626e6e76688f18b81be5259c6201d4d4f450600160205200",
                "storage": {}
            },
            "0xee8f7e38be79a20210ba7860a51507505984e4ed": {
                "nonce": "0x00",
                "balance": "0x00",
                "code": "0x6001600352604060006040600073265eeb9a84fea22da8b58252402b03bafe1a632462061ad5fa505b61c350608051101560445760013b506001608051016080526028565b00",
                "storage": {}
            },
            "0x4cd868420cbc0e9d9ba63455a2d0a36ce0fabf2c": {
                "nonce": "0x00",
                "balance": "0x00",
                "code": "0x6001600352604060006040600073265eeb9a84fea22da8b58252402b03bafe1a632462061ad5fa50600160035500",
                "storage": {}
            }
        },
        "lastblockhash": "0x92f40aa33168a8a7edb000cc0626684be48cc1bcd95165eefe646fd5331f2452",
        "config": {
            "network": "Cancun",
            "chainid": "0x01",
            "blobSchedule": {
                "Cancun": {
                    "target": "0x03",
                    "max": "0x06",
                    "baseFeeUpdateFraction": "0x32f0ed"
                }
            }
        },
        "genesisRLP": "0xf9023cf90236a00000000000000000000000000000000000000000000000000000000000000000a01dcc4de8dec75d7aab85b567b6ccd41ad312451b948a7413f0a142fd40d49347940000000000000000000000000000000000000000a06670eacc68ff599fcbf902030bfd25ff2953eb8abe15f5c57381aaf133ca6930a056e81f171bcc55a6ff8345e692c0f86e5b48e01b996cadc001622fb5e363b421a056e81f171bcc55a6ff8345e692c0f86e5b48e01b996cadc001622fb5e363b421b901000000000000000000000000000000000000000000000000000000000000000000000000000000000000000000000000000000000000000000000000000000000000000000000000000000000000000000000000000000000000000000000000000000000000000000000000000000000000000000000000000000000000000000000000000000000000000000000000000000000000000000000000000000000000000000000000000000000000000000000000000000000000000000000000000000000000000000000000000000000000000000000000000000000000000000000000000000000000000000000000000000000000000000000000000000000080808401c9c380808000a000000000000000000000000000000000000000000000000000000000000000008800000000000000000ba056e81f171bcc55a6ff8345e692c0f86e5b48e01b996cadc001622fb5e363b4218080a00000000000000000000000000000000000000000000000000000000000000000c0c0c0",
        "blocks": [
            {
                "blockHeader": {
                    "parentHash": "0x125c764495c29dc87ec2ca6b5a9fc40bf6eb5f8e7346573a855db66e15fd133f",
                    "uncleHash": "0x1dcc4de8dec75d7aab85b567b6ccd41ad312451b948a7413f0a142fd40d49347",
                    "coinbase": "0x2adc25665018aa1fe0e6bc666dac8fc2697ff9ba",
                    "stateRoot": "0x5cedee75f07c31cf55d8144503e421405fec7c4955dcf8f194bff8a6b9002a12",
                    "transactionsTrie": "0x567ec4dd5b0c5563fbdbba2ab6fe75b90dbe73c379e5828af775cebfea733d2f",
                    "receiptTrie": "0x990e5496f0fbbdc8a4fb382c442d5903455c79f8fc923d82e339edc601df1862",
                    "bloom": "0x00000000000000000000000000000000000000000000000000000000000000000000000000000000000000000000000000000000000000000000000000000000000000000000000000000000000000000000000000000000000000000000000000000000000000000000000000000000000000000000000000000000000000000000000000000000000000000000000000000000000000000000000000000000000000000000000000000000000000000000000000000000000000000000000000000000000000000000000000000000000000000000000000000000000000000000000000000000000000000000000000000000000000000000000000000000",
                    "difficulty": "0x00",
                    "number": "0x01",
                    "gasLimit": "0x01c9c380",
                    "gasUsed": "0x09e506",
                    "timestamp": "0x03e8",
                    "extraData": "0x00",
                    "mixHash": "0x0000000000000000000000000000000000000000000000000000000000020000",
                    "nonce": "0x0000000000000000",
                    "baseFeePerGas": "0x0a",
                    "withdrawalsRoot": "0x56e81f171bcc55a6ff8345e692c0f86e5b48e01b996cadc001622fb5e363b421",
                    "blobGasUsed": "0x00",
                    "excessBlobGas": "0x00",
                    "parentBeaconBlockRoot": "0x0000000000000000000000000000000000000000000000000000000000000000",
                    "hash": "0x92f40aa33168a8a7edb000cc0626684be48cc1bcd95165eefe646fd5331f2452"
                },
                "transactions": [
                    {
                        "type": "0x00",
                        "chainId": "0x01",
                        "nonce": "0x00",
                        "gasPrice": "0x0a",
                        "gasLimit": "0x1a3ec0",
                        "to": "0xf1f083974fd68b961e68130c27fc5ef37b49c1df",
                        "value": "0x00",
                        "data": "0x0000000000000000000000004cd868420cbc0e9d9ba63455a2d0a36ce0fabf2c",
                        "v": "0x26",
                        "r": "0xac5c3b7776954094613cdc6910a139e3873f7fe40f8237c416f2235cdd941ad1",
                        "s": "0x165ee6f75b754e05ea185e04871a049e2e928ba2921324334cbb410a2b326f04",
                        "sender": "0xd66f224cbd2fabb21b17bb53c56118f32f62ebd6"
                    }
                ],
                "uncleHeaders": [],
                "withdrawals": [],
                "receipts": [
                    {
                        "transactionHash": "0xcd6ee8327eda20b52bffa00def6e67cf4b635820f483225f97bb5374cb7a6ee5",
                        "type": "0x00",
                        "cumulativeGasUsed": "0x09e506",
                        "bloom": "0x00000000000000000000000000000000000000000000000000000000000000000000000000000000000000000000000000000000000000000000000000000000000000000000000000000000000000000000000000000000000000000000000000000000000000000000000000000000000000000000000000000000000000000000000000000000000000000000000000000000000000000000000000000000000000000000000000000000000000000000000000000000000000000000000000000000000000000000000000000000000000000000000000000000000000000000000000000000000000000000000000000000000000000000000000000000",
                        "logs": [],
                        "status": true,
                        "rlp": "0xf90109018309e506b9010000000000000000000000000000000000000000000000000000000000000000000000000000000000000000000000000000000000000000000000000000000000000000000000000000000000000000000000000000000000000000000000000000000000000000000000000000000000000000000000000000000000000000000000000000000000000000000000000000000000000000000000000000000000000000000000000000000000000000000000000000000000000000000000000000000000000000000000000000000000000000000000000000000000000000000000000000000000000000000000000000000000000000000000000000000000c0"
                    }
                ],
                "rlp": "0xf902c4f9023ba0125c764495c29dc87ec2ca6b5a9fc40bf6eb5f8e7346573a855db66e15fd133fa01dcc4de8dec75d7aab85b567b6ccd41ad312451b948a7413f0a142fd40d49347942adc25665018aa1fe0e6bc666dac8fc2697ff9baa05cedee75f07c31cf55d8144503e421405fec7c4955dcf8f194bff8a6b9002a12a0567ec4dd5b0c5563fbdbba2ab6fe75b90dbe73c379e5828af775cebfea733d2fa0990e5496f0fbbdc8a4fb382c442d5903455c79f8fc923d82e339edc601df1862b901000000000000000000000000000000000000000000000000000000000000000000000000000000000000000000000000000000000000000000000000000000000000000000000000000000000000000000000000000000000000000000000000000000000000000000000000000000000000000000000000000000000000000000000000000000000000000000000000000000000000000000000000000000000000000000000000000000000000000000000000000000000000000000000000000000000000000000000000000000000000000000000000000000000000000000000000000000000000000000000000000000000000000000000000000000000080018401c9c3808309e5068203e800a000000000000000000000000000000000000000000000000000000000000200008800000000000000000aa056e81f171bcc55a6ff8345e692c0f86e5b48e01b996cadc001622fb5e363b4218080a00000000000000000000000000000000000000000000000000000000000000000f882f880800a831a3ec094f1f083974fd68b961e68130c27fc5ef37b49c1df80a00000000000000000000000004cd868420cbc0e9d9ba63455a2d0a36ce0fabf2c26a0ac5c3b7776954094613cdc6910a139e3873f7fe40f8237c416f2235cdd941ad1a0165ee6f75b754e05ea185e04871a049e2e928ba2921324334cbb410a2b326f04c0c0",
                "blocknumber": "1"
            }
        ],
        "sealEngine": "NoProof",
        "_info": {
            "hash": "0x53b86a0bd0475eace18892ca264adbe9c8945c24c50d9f279caa790ad12945b2",
            "fixture-format": "blockchain_test",
            "comment": "`execution-specs` generated test",
            "filling-transition-tool": "2.19.0",
            "description": "Test_static_callcallcallcode_001_oogm_after.",
            "url": "https://github.com/ethereum/execution-specs/blob/tests-snobal-devnet-5@v8037.0.0/tests/ported_static/stStaticCall/test_static_callcallcallcode_001_oogm_after.py#L25",
            "metadata": {
                "opcode_count": {}
            }
        }
    },
    "tests/ported_static/stStaticCall/test_static_callcallcallcode_001_oogm_after.py::test_static_callcallcallcode_001_oogm_after[fork_Cancun-blockchain_test_from_state_test-d1]": {
        "network": "Cancun",
        "genesisBlockHeader": {
            "parentHash": "0x0000000000000000000000000000000000000000000000000000000000000000",
            "uncleHash": "0x1dcc4de8dec75d7aab85b567b6ccd41ad312451b948a7413f0a142fd40d49347",
            "coinbase": "0x0000000000000000000000000000000000000000",
            "stateRoot": "0x6670eacc68ff599fcbf902030bfd25ff2953eb8abe15f5c57381aaf133ca6930",
            "transactionsTrie": "0x56e81f171bcc55a6ff8345e692c0f86e5b48e01b996cadc001622fb5e363b421",
            "receiptTrie": "0x56e81f171bcc55a6ff8345e692c0f86e5b48e01b996cadc001622fb5e363b421",
            "bloom": "0x00000000000000000000000000000000000000000000000000000000000000000000000000000000000000000000000000000000000000000000000000000000000000000000000000000000000000000000000000000000000000000000000000000000000000000000000000000000000000000000000000000000000000000000000000000000000000000000000000000000000000000000000000000000000000000000000000000000000000000000000000000000000000000000000000000000000000000000000000000000000000000000000000000000000000000000000000000000000000000000000000000000000000000000000000000000",
            "difficulty": "0x00",
            "number": "0x00",
            "gasLimit": "0x01c9c380",
            "gasUsed": "0x00",
            "timestamp": "0x00",
            "extraData": "0x00",
            "mixHash": "0x0000000000000000000000000000000000000000000000000000000000000000",
            "nonce": "0x0000000000000000",
            "baseFeePerGas": "0x0b",
            "withdrawalsRoot": "0x56e81f171bcc55a6ff8345e692c0f86e5b48e01b996cadc001622fb5e363b421",
            "blobGasUsed": "0x00",
            "excessBlobGas": "0x00",
            "parentBeaconBlockRoot": "0x0000000000000000000000000000000000000000000000000000000000000000",
            "hash": "0x125c764495c29dc87ec2ca6b5a9fc40bf6eb5f8e7346573a855db66e15fd133f"
        },
        "pre": {
            "0x000f3df6d732807ef1319fb7b8bb8522d0beac02": {
                "nonce": "0x01",
                "balance": "0x00",
                "code": "0x3373fffffffffffffffffffffffffffffffffffffffe14604d57602036146024575f5ffd5b5f35801560495762001fff810690815414603c575f5ffd5b62001fff01545f5260205ff35b5f5ffd5b62001fff42064281555f359062001fff015500",
                "storage": {}
            },
            "0xd66f224cbd2fabb21b17bb53c56118f32f62ebd6": {
                "nonce": "0x00",
                "balance": "0x0de0b6b3a7640000",
                "code": "0x",
                "storage": {}
            },
            "0xf1f083974fd68b961e68130c27fc5ef37b49c1df": {
                "nonce": "0x00",
                "balance": "0x0de0b6b3a7640000",
                "code": "0x604060006040600060003562092856fa600055600160015500",
                "storage": {}
            },
            "0x335c5531b84765a7626e6e76688f18b81be5259c": {
                "nonce": "0x00",
                "balance": "0x00",
                "code": "0x600160035200",
                "storage": {}
            },
            "0x265eeb9a84fea22da8b58252402b03bafe1a6324": {
                "nonce": "0x00",
                "balance": "0x00",
                "code": "0x6001600352604060006040600073335c5531b84765a7626e6e76688f18b81be5259c6201d4d4f450600160205200",
                "storage": {}
            },
            "0xee8f7e38be79a20210ba7860a51507505984e4ed": {
                "nonce": "0x00",
                "balance": "0x00",
                "code": "0x6001600352604060006040600073265eeb9a84fea22da8b58252402b03bafe1a632462061ad5fa505b61c350608051101560445760013b506001608051016080526028565b00",
                "storage": {}
            },
            "0x4cd868420cbc0e9d9ba63455a2d0a36ce0fabf2c": {
                "nonce": "0x00",
                "balance": "0x00",
                "code": "0x6001600352604060006040600073265eeb9a84fea22da8b58252402b03bafe1a632462061ad5fa50600160035500",
                "storage": {}
            }
        },
        "postState": {
            "0x000f3df6d732807ef1319fb7b8bb8522d0beac02": {
                "nonce": "0x01",
                "balance": "0x00",
                "code": "0x3373fffffffffffffffffffffffffffffffffffffffe14604d57602036146024575f5ffd5b5f35801560495762001fff810690815414603c575f5ffd5b62001fff01545f5260205ff35b5f5ffd5b62001fff42064281555f359062001fff015500",
                "storage": {
                    "0x03e8": "0x03e8"
                }
            },
            "0xd66f224cbd2fabb21b17bb53c56118f32f62ebd6": {
                "nonce": "0x01",
                "balance": "0x0de0b6b3a7010dc4",
                "code": "0x",
                "storage": {}
            },
            "0xf1f083974fd68b961e68130c27fc5ef37b49c1df": {
                "nonce": "0x00",
                "balance": "0x0de0b6b3a7640000",
                "code": "0x604060006040600060003562092856fa600055600160015500",
                "storage": {
                    "0x01": "0x01"
                }
            },
            "0x335c5531b84765a7626e6e76688f18b81be5259c": {
                "nonce": "0x00",
                "balance": "0x00",
                "code": "0x600160035200",
                "storage": {}
            },
            "0x265eeb9a84fea22da8b58252402b03bafe1a6324": {
                "nonce": "0x00",
                "balance": "0x00",
                "code": "0x6001600352604060006040600073335c5531b84765a7626e6e76688f18b81be5259c6201d4d4f450600160205200",
                "storage": {}
            },
            "0xee8f7e38be79a20210ba7860a51507505984e4ed": {
                "nonce": "0x00",
                "balance": "0x00",
                "code": "0x6001600352604060006040600073265eeb9a84fea22da8b58252402b03bafe1a632462061ad5fa505b61c350608051101560445760013b506001608051016080526028565b00",
                "storage": {}
            },
            "0x4cd868420cbc0e9d9ba63455a2d0a36ce0fabf2c": {
                "nonce": "0x00",
                "balance": "0x00",
                "code": "0x6001600352604060006040600073265eeb9a84fea22da8b58252402b03bafe1a632462061ad5fa50600160035500",
                "storage": {}
            }
        },
        "lastblockhash": "0xd6ad2a8d21e8eb5fca4554594f493ccfecf4b354e4100c1e2f336746d8f4ffab",
        "config": {
            "network": "Cancun",
            "chainid": "0x01",
            "blobSchedule": {
                "Cancun": {
                    "target": "0x03",
                    "max": "0x06",
                    "baseFeeUpdateFraction": "0x32f0ed"
                }
            }
        },
        "genesisRLP": "0xf9023cf90236a00000000000000000000000000000000000000000000000000000000000000000a01dcc4de8dec75d7aab85b567b6ccd41ad312451b948a7413f0a142fd40d49347940000000000000000000000000000000000000000a06670eacc68ff599fcbf902030bfd25ff2953eb8abe15f5c57381aaf133ca6930a056e81f171bcc55a6ff8345e692c0f86e5b48e01b996cadc001622fb5e363b421a056e81f171bcc55a6ff8345e692c0f86e5b48e01b996cadc001622fb5e363b421b901000000000000000000000000000000000000000000000000000000000000000000000000000000000000000000000000000000000000000000000000000000000000000000000000000000000000000000000000000000000000000000000000000000000000000000000000000000000000000000000000000000000000000000000000000000000000000000000000000000000000000000000000000000000000000000000000000000000000000000000000000000000000000000000000000000000000000000000000000000000000000000000000000000000000000000000000000000000000000000000000000000000000000000000000000000000080808401c9c380808000a000000000000000000000000000000000000000000000000000000000000000008800000000000000000ba056e81f171bcc55a6ff8345e692c0f86e5b48e01b996cadc001622fb5e363b4218080a00000000000000000000000000000000000000000000000000000000000000000c0c0c0",
        "blocks": [
            {
                "blockHeader": {
                    "parentHash": "0x125c764495c29dc87ec2ca6b5a9fc40bf6eb5f8e7346573a855db66e15fd133f",
                    "uncleHash": "0x1dcc4de8dec75d7aab85b567b6ccd41ad312451b948a7413f0a142fd40d49347",
                    "coinbase": "0x2adc25665018aa1fe0e6bc666dac8fc2697ff9ba",
                    "stateRoot": "0x5cedee75f07c31cf55d8144503e421405fec7c4955dcf8f194bff8a6b9002a12",
                    "transactionsTrie": "0x53443b791d31a69b3cf497823f169c84c1758d9d849b172c8803ab6fca4c21fe",
                    "receiptTrie": "0x990e5496f0fbbdc8a4fb382c442d5903455c79f8fc923d82e339edc601df1862",
                    "bloom": "0x00000000000000000000000000000000000000000000000000000000000000000000000000000000000000000000000000000000000000000000000000000000000000000000000000000000000000000000000000000000000000000000000000000000000000000000000000000000000000000000000000000000000000000000000000000000000000000000000000000000000000000000000000000000000000000000000000000000000000000000000000000000000000000000000000000000000000000000000000000000000000000000000000000000000000000000000000000000000000000000000000000000000000000000000000000000",
                    "difficulty": "0x00",
                    "number": "0x01",
                    "gasLimit": "0x01c9c380",
                    "gasUsed": "0x09e506",
                    "timestamp": "0x03e8",
                    "extraData": "0x00",
                    "mixHash": "0x0000000000000000000000000000000000000000000000000000000000020000",
                    "nonce": "0x0000000000000000",
                    "baseFeePerGas": "0x0a",
                    "withdrawalsRoot": "0x56e81f171bcc55a6ff8345e692c0f86e5b48e01b996cadc001622fb5e363b421",
                    "blobGasUsed": "0x00",
                    "excessBlobGas": "0x00",
                    "parentBeaconBlockRoot": "0x0000000000000000000000000000000000000000000000000000000000000000",
                    "hash": "0xd6ad2a8d21e8eb5fca4554594f493ccfecf4b354e4100c1e2f336746d8f4ffab"
                },
                "transactions": [
                    {
                        "type": "0x00",
                        "chainId": "0x01",
                        "nonce": "0x00",
                        "gasPrice": "0x0a",
                        "gasLimit": "0x1a3ec0",
                        "to": "0xf1f083974fd68b961e68130c27fc5ef37b49c1df",
                        "value": "0x00",
                        "data": "0x000000000000000000000000ee8f7e38be79a20210ba7860a51507505984e4ed",
                        "v": "0x26",
                        "r": "0xad47b39ba4995d0d4ab9f711fea07b199b3942f45a141326ce18251ef7356451",
                        "s": "0x52036be9cbc209dd9525ff920b66a7d777244058fa22fddebbd96aeea3e47f7a",
                        "sender": "0xd66f224cbd2fabb21b17bb53c56118f32f62ebd6"
                    }
                ],
                "uncleHeaders": [],
                "withdrawals": [],
                "receipts": [
                    {
                        "transactionHash": "0x8c953fab0f2ed8e5e6c78a52a7e0ecad70d92b6c438b3b21c54dfd0328690230",
                        "type": "0x00",
                        "cumulativeGasUsed": "0x09e506",
                        "bloom": "0x00000000000000000000000000000000000000000000000000000000000000000000000000000000000000000000000000000000000000000000000000000000000000000000000000000000000000000000000000000000000000000000000000000000000000000000000000000000000000000000000000000000000000000000000000000000000000000000000000000000000000000000000000000000000000000000000000000000000000000000000000000000000000000000000000000000000000000000000000000000000000000000000000000000000000000000000000000000000000000000000000000000000000000000000000000000",
                        "logs": [],
                        "status": true,
                        "rlp": "0xf90109018309e506b9010000000000000000000000000000000000000000000000000000000000000000000000000000000000000000000000000000000000000000000000000000000000000000000000000000000000000000000000000000000000000000000000000000000000000000000000000000000000000000000000000000000000000000000000000000000000000000000000000000000000000000000000000000000000000000000000000000000000000000000000000000000000000000000000000000000000000000000000000000000000000000000000000000000000000000000000000000000000000000000000000000000000000000000000000000000000c0"
                    }
                ],
                "rlp": "0xf902c4f9023ba0125c764495c29dc87ec2ca6b5a9fc40bf6eb5f8e7346573a855db66e15fd133fa01dcc4de8dec75d7aab85b567b6ccd41ad312451b948a7413f0a142fd40d49347942adc25665018aa1fe0e6bc666dac8fc2697ff9baa05cedee75f07c31cf55d8144503e421405fec7c4955dcf8f194bff8a6b9002a12a053443b791d31a69b3cf497823f169c84c1758d9d849b172c8803ab6fca4c21fea0990e5496f0fbbdc8a4fb382c442d5903455c79f8fc923d82e339edc601df1862b901000000000000000000000000000000000000000000000000000000000000000000000000000000000000000000000000000000000000000000000000000000000000000000000000000000000000000000000000000000000000000000000000000000000000000000000000000000000000000000000000000000000000000000000000000000000000000000000000000000000000000000000000000000000000000000000000000000000000000000000000000000000000000000000000000000000000000000000000000000000000000000000000000000000000000000000000000000000000000000000000000000000000000000000000000000000080018401c9c3808309e5068203e800a000000000000000000000000000000000000000000000000000000000000200008800000000000000000aa056e81f171bcc55a6ff8345e692c0f86e5b48e01b996cadc001622fb5e363b4218080a00000000000000000000000000000000000000000000000000000000000000000f882f880800a831a3ec094f1f083974fd68b961e68130c27fc5ef37b49c1df80a0000000000000000000000000ee8f7e38be79a20210ba7860a51507505984e4ed26a0ad47b39ba4995d0d4ab9f711fea07b199b3942f45a141326ce18251ef7356451a052036be9cbc209dd9525ff920b66a7d777244058fa22fddebbd96aeea3e47f7ac0c0",
                "blocknumber": "1"
            }
        ],
        "sealEngine": "NoProof",
        "_info": {
            "hash": "0x0880a5d1731c503647668bb3c4cdd02720749d5ff9070df6122f64815a4b76c0",
            "fixture-format": "blockchain_test",
            "comment": "`execution-specs` generated test",
            "filling-transition-tool": "2.19.0",
            "description": "Test_static_callcallcallcode_001_oogm_after.",
            "url": "https://github.com/ethereum/execution-specs/blob/tests-snobal-devnet-5@v8037.0.0/tests/ported_static/stStaticCall/test_static_callcallcallcode_001_oogm_after.py#L25",
            "metadata": {
                "opcode_count": {}
            }
        }
    }
}