{
    "tests/ported_static/stMemoryStressTest/test_static_call_bounds3.py::test_static_call_bounds3[fork_Cancun-blockchain_test_from_state_test--g0]": {
        "network": "Cancun",
        "genesisBlockHeader": {
            "parentHash": "0x0000000000000000000000000000000000000000000000000000000000000000",
            "uncleHash": "0x1dcc4de8dec75d7aab85b567b6ccd41ad312451b948a7413f0a142fd40d49347",
            "coinbase": "0x0000000000000000000000000000000000000000",
            "stateRoot": "0xf714c28727afe9769b38b4ec019c7e94efd6a59826f7de34d2b231b31ec55f86",
            "transactionsTrie": "0x56e81f171bcc55a6ff8345e692c0f86e5b48e01b996cadc001622fb5e363b421",
            "receiptTrie": "0x56e81f171bcc55a6ff8345e692c0f86e5b48e01b996cadc001622fb5e363b421",
            "bloom": "0x00000000000000000000000000000000000000000000000000000000000000000000000000000000000000000000000000000000000000000000000000000000000000000000000000000000000000000000000000000000000000000000000000000000000000000000000000000000000000000000000000000000000000000000000000000000000000000000000000000000000000000000000000000000000000000000000000000000000000000000000000000000000000000000000000000000000000000000000000000000000000000000000000000000000000000000000000000000000000000000000000000000000000000000000000000000",
            "difficulty": "0x00",
            "number": "0x00",
            "gasLimit": "0x7fffffffffffffff",
            "gasUsed": "0x00",
            "timestamp": "0x00",
            "extraData": "0x00",
            "mixHash": "0x0000000000000000000000000000000000000000000000000000000000000000",
            "nonce": "0x0000000000000000",
            "baseFeePerGas": "0x0b",
            "withdrawalsRoot": "0x56e81f171bcc55a6ff8345e692c0f86e5b48e01b996cadc001622fb5e363b421",
            "blobGasUsed": "0x00",
            "excessBlobGas": "0x00",
            "parentBeaconBlockRoot": "0x0000000000000000000000000000000000000000000000000000000000000000",
            "hash": "0xece25622d2b08273539b4a1da178ecd74d136eaab74fdd0da08e82c23cf63e99"
        },
        "pre": {
            "0x000f3df6d732807ef1319fb7b8bb8522d0beac02": {
                "nonce": "0x01",
                "balance": "0x00",
                "code": "0x3373fffffffffffffffffffffffffffffffffffffffe14604d57602036146024575f5ffd5b5f35801560495762001fff810690815414603c575f5ffd5b62001fff01545f5260205ff35b5f5ffd5b62001fff42064281555f359062001fff015500",
                "storage": {}
            },
            "0x83143406093d1f3560dd269416596d3406f1c991": {
                "nonce": "0x00",
                "balance": "0x00",
                "code": "0x67ffffffffffffffff600067ffffffffffffffff600073cc704d60c46b9c08aab4d15281184441ac7ed35c6707fffffffffffffffa506fffffffffffffffffffffffffffffffff60006fffffffffffffffffffffffffffffffff600073cc704d60c46b9c08aab4d15281184441ac7ed35c6707fffffffffffffffa507fffffffffffffffffffffffffffffffffffffffffffffffffffffffffffffffff60007fffffffffffffffffffffffffffffffffffffffffffffffffffffffffffffffff600073cc704d60c46b9c08aab4d15281184441ac7ed35c6707fffffffffffffffa5063ffffffff63ffffffff63ffffffff63ffffffff73cc704d60c46b9c08aab4d15281184441ac7ed35c6707fffffffffffffffa5067ffffffffffffffff67ffffffffffffffff67ffffffffffffffff67ffffffffffffffff73cc704d60c46b9c08aab4d15281184441ac7ed35c6707fffffffffffffffa506fffffffffffffffffffffffffffffffff6fffffffffffffffffffffffffffffffff6fffffffffffffffffffffffffffffffff6fffffffffffffffffffffffffffffffff73cc704d60c46b9c08aab4d15281184441ac7ed35c6707fffffffffffffffa507fffffffffffffffffffffffffffffffffffffffffffffffffffffffffffffffff7fffffffffffffffffffffffffffffffffffffffffffffffffffffffffffffffff7fffffffffffffffffffffffffffffffffffffffffffffffffffffffffffffffff7fffffffffffffffffffffffffffffffffffffffffffffffffffffffffffffffff73cc704d60c46b9c08aab4d15281184441ac7ed35c6707fffffffffffffffa00",
                "storage": {}
            },
            "0xcc704d60c46b9c08aab4d15281184441ac7ed35c": {
                "nonce": "0x00",
                "balance": "0x00",
                "code": "0x60005460010160005200",
                "storage": {}
            },
            "0x4d2e21bbf9a40a8303787a066285648f8013129a": {
                "nonce": "0x00",
                "balance": "0xffffffffffffffffffffffffffffffffffffffffffffffffffffff",
                "code": "0x",
                "storage": {}
            }
        },
        "postState": {
            "0x000f3df6d732807ef1319fb7b8bb8522d0beac02": {
                "nonce": "0x01",
                "balance": "0x00",
                "code": "0x3373fffffffffffffffffffffffffffffffffffffffe14604d57602036146024575f5ffd5b5f35801560495762001fff810690815414603c575f5ffd5b62001fff01545f5260205ff35b5f5ffd5b62001fff42064281555f359062001fff015500",
                "storage": {
                    "0x03e8": "0x03e8"
                }
            },
            "0x83143406093d1f3560dd269416596d3406f1c991": {
                "nonce": "0x00",
                "balance": "0x00",
                "code": "0x67ffffffffffffffff600067ffffffffffffffff600073cc704d60c46b9c08aab4d15281184441ac7ed35c6707fffffffffffffffa506fffffffffffffffffffffffffffffffff60006fffffffffffffffffffffffffffffffff600073cc704d60c46b9c08aab4d15281184441ac7ed35c6707fffffffffffffffa507fffffffffffffffffffffffffffffffffffffffffffffffffffffffffffffffff60007fffffffffffffffffffffffffffffffffffffffffffffffffffffffffffffffff600073cc704d60c46b9c08aab4d15281184441ac7ed35c6707fffffffffffffffa5063ffffffff63ffffffff63ffffffff63ffffffff73cc704d60c46b9c08aab4d15281184441ac7ed35c6707fffffffffffffffa5067ffffffffffffffff67ffffffffffffffff67ffffffffffffffff67ffffffffffffffff73cc704d60c46b9c08aab4d15281184441ac7ed35c6707fffffffffffffffa506fffffffffffffffffffffffffffffffff6fffffffffffffffffffffffffffffffff6fffffffffffffffffffffffffffffffff6fffffffffffffffffffffffffffffffff73cc704d60c46b9c08aab4d15281184441ac7ed35c6707fffffffffffffffa507fffffffffffffffffffffffffffffffffffffffffffffffffffffffffffffffff7fffffffffffffffffffffffffffffffffffffffffffffffffffffffffffffffff7fffffffffffffffffffffffffffffffffffffffffffffffffffffffffffffffff7fffffffffffffffffffffffffffffffffffffffffffffffffffffffffffffffff73cc704d60c46b9c08aab4d15281184441ac7ed35c6707fffffffffffffffa00",
                "storage": {}
            },
            "0xcc704d60c46b9c08aab4d15281184441ac7ed35c": {
                "nonce": "0x00",
                "balance": "0x00",
                "code": "0x60005460010160005200",
                "storage": {}
            },
            "0x4d2e21bbf9a40a8303787a066285648f8013129a": {
                "nonce": "0x01",
                "balance": "0xffffffffffffffffffffffffffffffffffffffffffffffffe91c9f",
                "code": "0x",
                "storage": {}
            }
        },
        "lastblockhash": "0x20c582039064afff6231db8771a6a7a2faf42ca9a5f50417a65ba68a73779e58",
        "config": {
            "network": "Cancun",
            "chainid": "0x01",
            "blobSchedule": {
                "Cancun": {
                    "target": "0x03",
                    "max": "0x06",
                    "baseFeeUpdateFraction": "0x32f0ed"
                }
            }
        },
        "genesisRLP": "0xf90240f9023aa00000000000000000000000000000000000000000000000000000000000000000a01dcc4de8dec75d7aab85b567b6ccd41ad312451b948a7413f0a142fd40d49347940000000000000000000000000000000000000000a0f714c28727afe9769b38b4ec019c7e94efd6a59826f7de34d2b231b31ec55f86a056e81f171bcc55a6ff8345e692c0f86e5b48e01b996cadc001622fb5e363b421a056e81f171bcc55a6ff8345e692c0f86e5b48e01b996cadc001622fb5e363b421b90100000000000000000000000000000000000000000000000000000000000000000000000000000000000000000000000000000000000000000000000000000000000000000000000000000000000000000000000000000000000000000000000000000000000000000000000000000000000000000000000000000000000000000000000000000000000000000000000000000000000000000000000000000000000000000000000000000000000000000000000000000000000000000000000000000000000000000000000000000000000000000000000000000000000000000000000000000000000000000000000000000000000000000000000000000000008080887fffffffffffffff808000a000000000000000000000000000000000000000000000000000000000000000008800000000000000000ba056e81f171bcc55a6ff8345e692c0f86e5b48e01b996cadc001622fb5e363b4218080a00000000000000000000000000000000000000000000000000000000000000000c0c0c0",
        "blocks": [
            {
                "blockHeader": {
                    "parentHash": "0xece25622d2b08273539b4a1da178ecd74d136eaab74fdd0da08e82c23cf63e99",
                    "uncleHash": "0x1dcc4de8dec75d7aab85b567b6ccd41ad312451b948a7413f0a142fd40d49347",
                    "coinbase": "0x2adc25665018aa1fe0e6bc666dac8fc2697ff9ba",
                    "stateRoot": "0xce52756ef56f9451a1238dd3bdc35f063f3270a6ac2f40658de1ea3f94024f88",
                    "transactionsTrie": "0x2ac0ad55e0247a2d9353f90a1096884ba057bce61da274adb286de52142415b5",
                    "receiptTrie": "0xa0e10907f175886de9bd8cd4ac2c21d1db4109a3a9fecf60f54015ee102803fd",
                    "bloom": "0x00000000000000000000000000000000000000000000000000000000000000000000000000000000000000000000000000000000000000000000000000000000000000000000000000000000000000000000000000000000000000000000000000000000000000000000000000000000000000000000000000000000000000000000000000000000000000000000000000000000000000000000000000000000000000000000000000000000000000000000000000000000000000000000000000000000000000000000000000000000000000000000000000000000000000000000000000000000000000000000000000000000000000000000000000000000",
                    "difficulty": "0x00",
                    "number": "0x01",
                    "gasLimit": "0x7fffffffffffffff",
                    "gasUsed": "0x0249f0",
                    "timestamp": "0x03e8",
                    "extraData": "0x00",
                    "mixHash": "0x0000000000000000000000000000000000000000000000000000000000020000",
                    "nonce": "0x0000000000000000",
                    "baseFeePerGas": "0x0a",
                    "withdrawalsRoot": "0x56e81f171bcc55a6ff8345e692c0f86e5b48e01b996cadc001622fb5e363b421",
                    "blobGasUsed": "0x00",
                    "excessBlobGas": "0x00",
                    "parentBeaconBlockRoot": "0x0000000000000000000000000000000000000000000000000000000000000000",
                    "hash": "0x20c582039064afff6231db8771a6a7a2faf42ca9a5f50417a65ba68a73779e58"
                },
                "transactions": [
                    {
                        "type": "0x00",
                        "chainId": "0x01",
                        "nonce": "0x00",
                        "gasPrice": "0x0a",
                        "gasLimit": "0x0249f0",
                        "to": "0x83143406093d1f3560dd269416596d3406f1c991",
                        "value": "0x01",
                        "data": "0x",
                        "v": "0x25",
                        "r": "0x93fcdd5d282a46d6a0c3ed6fcc4821f6fd3575f5f0e012be55538823e6c9f1ca",
                        "s": "0x75fa47cfa927669abe8dd0e0a73869a46b642f459c8d6990d04b85ec8ff0d0c7",
                        "sender": "0x4d2e21bbf9a40a8303787a066285648f8013129a"
                    }
                ],
                "uncleHeaders": [],
                "withdrawals": [],
                "receipts": [
                    {
                        "transactionHash": "0x2c79dae850e9e4fc65cc28c16fad5b0c832c62c74ea52be64296d9130fe28458",
                        "type": "0x00",
                        "cumulativeGasUsed": "0x0249f0",
                        "bloom": "0x00000000000000000000000000000000000000000000000000000000000000000000000000000000000000000000000000000000000000000000000000000000000000000000000000000000000000000000000000000000000000000000000000000000000000000000000000000000000000000000000000000000000000000000000000000000000000000000000000000000000000000000000000000000000000000000000000000000000000000000000000000000000000000000000000000000000000000000000000000000000000000000000000000000000000000000000000000000000000000000000000000000000000000000000000000000",
                        "logs": [],
                        "status": false,
                        "rlp": "0xf9010980830249f0b9010000000000000000000000000000000000000000000000000000000000000000000000000000000000000000000000000000000000000000000000000000000000000000000000000000000000000000000000000000000000000000000000000000000000000000000000000000000000000000000000000000000000000000000000000000000000000000000000000000000000000000000000000000000000000000000000000000000000000000000000000000000000000000000000000000000000000000000000000000000000000000000000000000000000000000000000000000000000000000000000000000000000000000000000000000000000c0"
                    }
                ],
                "rlp": "0xf902a8f9023fa0ece25622d2b08273539b4a1da178ecd74d136eaab74fdd0da08e82c23cf63e99a01dcc4de8dec75d7aab85b567b6ccd41ad312451b948a7413f0a142fd40d49347942adc25665018aa1fe0e6bc666dac8fc2697ff9baa0ce52756ef56f9451a1238dd3bdc35f063f3270a6ac2f40658de1ea3f94024f88a02ac0ad55e0247a2d9353f90a1096884ba057bce61da274adb286de52142415b5a0a0e10907f175886de9bd8cd4ac2c21d1db4109a3a9fecf60f54015ee102803fdb90100000000000000000000000000000000000000000000000000000000000000000000000000000000000000000000000000000000000000000000000000000000000000000000000000000000000000000000000000000000000000000000000000000000000000000000000000000000000000000000000000000000000000000000000000000000000000000000000000000000000000000000000000000000000000000000000000000000000000000000000000000000000000000000000000000000000000000000000000000000000000000000000000000000000000000000000000000000000000000000000000000000000000000000000000000000008001887fffffffffffffff830249f08203e800a000000000000000000000000000000000000000000000000000000000000200008800000000000000000aa056e81f171bcc55a6ff8345e692c0f86e5b48e01b996cadc001622fb5e363b4218080a00000000000000000000000000000000000000000000000000000000000000000f862f860800a830249f09483143406093d1f3560dd269416596d3406f1c991018025a093fcdd5d282a46d6a0c3ed6fcc4821f6fd3575f5f0e012be55538823e6c9f1caa075fa47cfa927669abe8dd0e0a73869a46b642f459c8d6990d04b85ec8ff0d0c7c0c0",
                "blocknumber": "1"
            }
        ],
        "sealEngine": "NoProof",
        "_info": {
            "hash": "0x6e679a82a5da512875422d97ade0451bb0007a955415e855a95f81d9234dc1f9",
            "fixture-format": "blockchain_test",
            "comment": "`execution-specs` generated test",
            "filling-transition-tool": "2.19.0",
            "description": "Test_static_call_bounds3.",
            "url": "https://github.com/ethereum/execution-specs/blob/tests-bal@v5.7.0/tests/ported_static/stMemoryStressTest/test_static_call_bounds3.py#L26",
            "metadata": {
                "opcode_count": {}
            }
        }
    },
    "tests/ported_static/stMemoryStressTest/test_static_call_bounds3.py::test_static_call_bounds3[fork_Cancun-blockchain_test_from_state_test--g1]": {
        "network": "Cancun",
        "genesisBlockHeader": {
            "parentHash": "0x0000000000000000000000000000000000000000000000000000000000000000",
            "uncleHash": "0x1dcc4de8dec75d7aab85b567b6ccd41ad312451b948a7413f0a142fd40d49347",
            "coinbase": "0x0000000000000000000000000000000000000000",
            "stateRoot": "0xf714c28727afe9769b38b4ec019c7e94efd6a59826f7de34d2b231b31ec55f86",
            "transactionsTrie": "0x56e81f171bcc55a6ff8345e692c0f86e5b48e01b996cadc001622fb5e363b421",
            "receiptTrie": "0x56e81f171bcc55a6ff8345e692c0f86e5b48e01b996cadc001622fb5e363b421",
            "bloom": "0x00000000000000000000000000000000000000000000000000000000000000000000000000000000000000000000000000000000000000000000000000000000000000000000000000000000000000000000000000000000000000000000000000000000000000000000000000000000000000000000000000000000000000000000000000000000000000000000000000000000000000000000000000000000000000000000000000000000000000000000000000000000000000000000000000000000000000000000000000000000000000000000000000000000000000000000000000000000000000000000000000000000000000000000000000000000",
            "difficulty": "0x00",
            "number": "0x00",
            "gasLimit": "0x7fffffffffffffff",
            "gasUsed": "0x00",
            "timestamp": "0x00",
            "extraData": "0x00",
            "mixHash": "0x0000000000000000000000000000000000000000000000000000000000000000",
            "nonce": "0x0000000000000000",
            "baseFeePerGas": "0x0b",
            "withdrawalsRoot": "0x56e81f171bcc55a6ff8345e692c0f86e5b48e01b996cadc001622fb5e363b421",
            "blobGasUsed": "0x00",
            "excessBlobGas": "0x00",
            "parentBeaconBlockRoot": "0x0000000000000000000000000000000000000000000000000000000000000000",
            "hash": "0xece25622d2b08273539b4a1da178ecd74d136eaab74fdd0da08e82c23cf63e99"
        },
        "pre": {
            "0x000f3df6d732807ef1319fb7b8bb8522d0beac02": {
                "nonce": "0x01",
                "balance": "0x00",
                "code": "0x3373fffffffffffffffffffffffffffffffffffffffe14604d57602036146024575f5ffd5b5f35801560495762001fff810690815414603c575f5ffd5b62001fff01545f5260205ff35b5f5ffd5b62001fff42064281555f359062001fff015500",
                "storage": {}
            },
            "0x83143406093d1f3560dd269416596d3406f1c991": {
                "nonce": "0x00",
                "balance": "0x00",
                "code": "0x67ffffffffffffffff600067ffffffffffffffff600073cc704d60c46b9c08aab4d15281184441ac7ed35c6707fffffffffffffffa506fffffffffffffffffffffffffffffffff60006fffffffffffffffffffffffffffffffff600073cc704d60c46b9c08aab4d15281184441ac7ed35c6707fffffffffffffffa507fffffffffffffffffffffffffffffffffffffffffffffffffffffffffffffffff60007fffffffffffffffffffffffffffffffffffffffffffffffffffffffffffffffff600073cc704d60c46b9c08aab4d15281184441ac7ed35c6707fffffffffffffffa5063ffffffff63ffffffff63ffffffff63ffffffff73cc704d60c46b9c08aab4d15281184441ac7ed35c6707fffffffffffffffa5067ffffffffffffffff67ffffffffffffffff67ffffffffffffffff67ffffffffffffffff73cc704d60c46b9c08aab4d15281184441ac7ed35c6707fffffffffffffffa506fffffffffffffffffffffffffffffffff6fffffffffffffffffffffffffffffffff6fffffffffffffffffffffffffffffffff6fffffffffffffffffffffffffffffffff73cc704d60c46b9c08aab4d15281184441ac7ed35c6707fffffffffffffffa507fffffffffffffffffffffffffffffffffffffffffffffffffffffffffffffffff7fffffffffffffffffffffffffffffffffffffffffffffffffffffffffffffffff7fffffffffffffffffffffffffffffffffffffffffffffffffffffffffffffffff7fffffffffffffffffffffffffffffffffffffffffffffffffffffffffffffffff73cc704d60c46b9c08aab4d15281184441ac7ed35c6707fffffffffffffffa00",
                "storage": {}
            },
            "0xcc704d60c46b9c08aab4d15281184441ac7ed35c": {
                "nonce": "0x00",
                "balance": "0x00",
                "code": "0x60005460010160005200",
                "storage": {}
            },
            "0x4d2e21bbf9a40a8303787a066285648f8013129a": {
                "nonce": "0x00",
                "balance": "0xffffffffffffffffffffffffffffffffffffffffffffffffffffff",
                "code": "0x",
                "storage": {}
            }
        },
        "postState": {
            "0x000f3df6d732807ef1319fb7b8bb8522d0beac02": {
                "nonce": "0x01",
                "balance": "0x00",
                "code": "0x3373fffffffffffffffffffffffffffffffffffffffe14604d57602036146024575f5ffd5b5f35801560495762001fff810690815414603c575f5ffd5b62001fff01545f5260205ff35b5f5ffd5b62001fff42064281555f359062001fff015500",
                "storage": {
                    "0x03e8": "0x03e8"
                }
            },
            "0x83143406093d1f3560dd269416596d3406f1c991": {
                "nonce": "0x00",
                "balance": "0x00",
                "code": "0x67ffffffffffffffff600067ffffffffffffffff600073cc704d60c46b9c08aab4d15281184441ac7ed35c6707fffffffffffffffa506fffffffffffffffffffffffffffffffff60006fffffffffffffffffffffffffffffffff600073cc704d60c46b9c08aab4d15281184441ac7ed35c6707fffffffffffffffa507fffffffffffffffffffffffffffffffffffffffffffffffffffffffffffffffff60007fffffffffffffffffffffffffffffffffffffffffffffffffffffffffffffffff600073cc704d60c46b9c08aab4d15281184441ac7ed35c6707fffffffffffffffa5063ffffffff63ffffffff63ffffffff63ffffffff73cc704d60c46b9c08aab4d15281184441ac7ed35c6707fffffffffffffffa5067ffffffffffffffff67ffffffffffffffff67ffffffffffffffff67ffffffffffffffff73cc704d60c46b9c08aab4d15281184441ac7ed35c6707fffffffffffffffa506fffffffffffffffffffffffffffffffff6fffffffffffffffffffffffffffffffff6fffffffffffffffffffffffffffffffff6fffffffffffffffffffffffffffffffff73cc704d60c46b9c08aab4d15281184441ac7ed35c6707fffffffffffffffa507fffffffffffffffffffffffffffffffffffffffffffffffffffffffffffffffff7fffffffffffffffffffffffffffffffffffffffffffffffffffffffffffffffff7fffffffffffffffffffffffffffffffffffffffffffffffffffffffffffffffff7fffffffffffffffffffffffffffffffffffffffffffffffffffffffffffffffff73cc704d60c46b9c08aab4d15281184441ac7ed35c6707fffffffffffffffa00",
                "storage": {}
            },
            "0xcc704d60c46b9c08aab4d15281184441ac7ed35c": {
                "nonce": "0x00",
                "balance": "0x00",
                "code": "0x60005460010160005200",
                "storage": {}
            },
            "0x4d2e21bbf9a40a8303787a066285648f8013129a": {
                "nonce": "0x01",
                "balance": "0xfffffffffffffffffffffffffffffffffffffffffffffff5ffffff",
                "code": "0x",
                "storage": {}
            }
        },
        "lastblockhash": "0xf305774aa0091fa102792a9ad0eb51b7383ccb8e027aea1be19d818c97407b48",
        "config": {
            "network": "Cancun",
            "chainid": "0x01",
            "blobSchedule": {
                "Cancun": {
                    "target": "0x03",
                    "max": "0x06",
                    "baseFeeUpdateFraction": "0x32f0ed"
                }
            }
        },
        "genesisRLP": "0xf90240f9023aa00000000000000000000000000000000000000000000000000000000000000000a01dcc4de8dec75d7aab85b567b6ccd41ad312451b948a7413f0a142fd40d49347940000000000000000000000000000000000000000a0f714c28727afe9769b38b4ec019c7e94efd6a59826f7de34d2b231b31ec55f86a056e81f171bcc55a6ff8345e692c0f86e5b48e01b996cadc001622fb5e363b421a056e81f171bcc55a6ff8345e692c0f86e5b48e01b996cadc001622fb5e363b421b90100000000000000000000000000000000000000000000000000000000000000000000000000000000000000000000000000000000000000000000000000000000000000000000000000000000000000000000000000000000000000000000000000000000000000000000000000000000000000000000000000000000000000000000000000000000000000000000000000000000000000000000000000000000000000000000000000000000000000000000000000000000000000000000000000000000000000000000000000000000000000000000000000000000000000000000000000000000000000000000000000000000000000000000000000000000008080887fffffffffffffff808000a000000000000000000000000000000000000000000000000000000000000000008800000000000000000ba056e81f171bcc55a6ff8345e692c0f86e5b48e01b996cadc001622fb5e363b4218080a00000000000000000000000000000000000000000000000000000000000000000c0c0c0",
        "blocks": [
            {
                "blockHeader": {
                    "parentHash": "0xece25622d2b08273539b4a1da178ecd74d136eaab74fdd0da08e82c23cf63e99",
                    "uncleHash": "0x1dcc4de8dec75d7aab85b567b6ccd41ad312451b948a7413f0a142fd40d49347",
                    "coinbase": "0x2adc25665018aa1fe0e6bc666dac8fc2697ff9ba",
                    "stateRoot": "0x1787e62edb1765e59aaaab6834c54e509ff6f870934491c08957178f54cce73f",
                    "transactionsTrie": "0x459ac4ca4b8041e1fa9509fcaca75889819cf42075875edbbf2192dbd77a3e8d",
                    "receiptTrie": "0x6109c57d8983f520f4b510024a1760aff8d920bb293bbc00c30abdac956b3b2f",
                    "bloom": "0x00000000000000000000000000000000000000000000000000000000000000000000000000000000000000000000000000000000000000000000000000000000000000000000000000000000000000000000000000000000000000000000000000000000000000000000000000000000000000000000000000000000000000000000000000000000000000000000000000000000000000000000000000000000000000000000000000000000000000000000000000000000000000000000000000000000000000000000000000000000000000000000000000000000000000000000000000000000000000000000000000000000000000000000000000000000",
                    "difficulty": "0x00",
                    "number": "0x01",
                    "gasLimit": "0x7fffffffffffffff",
                    "gasUsed": "0x01000000",
                    "timestamp": "0x03e8",
                    "extraData": "0x00",
                    "mixHash": "0x0000000000000000000000000000000000000000000000000000000000020000",
                    "nonce": "0x0000000000000000",
                    "baseFeePerGas": "0x0a",
                    "withdrawalsRoot": "0x56e81f171bcc55a6ff8345e692c0f86e5b48e01b996cadc001622fb5e363b421",
                    "blobGasUsed": "0x00",
                    "excessBlobGas": "0x00",
                    "parentBeaconBlockRoot": "0x0000000000000000000000000000000000000000000000000000000000000000",
                    "hash": "0xf305774aa0091fa102792a9ad0eb51b7383ccb8e027aea1be19d818c97407b48"
                },
                "transactions": [
                    {
                        "type": "0x00",
                        "chainId": "0x01",
                        "nonce": "0x00",
                        "gasPrice": "0x0a",
                        "gasLimit": "0x01000000",
                        "to": "0x83143406093d1f3560dd269416596d3406f1c991",
                        "value": "0x01",
                        "data": "0x",
                        "v": "0x26",
                        "r": "0x31e506fef2684861c5c617133c0554399723962a78576c4c40a39dee35458e41",
                        "s": "0x3a4125099995340a41e6b5f032aaa15d78c1e3a8cca5126e48b9be08618c9a69",
                        "sender": "0x4d2e21bbf9a40a8303787a066285648f8013129a"
                    }
                ],
                "uncleHeaders": [],
                "withdrawals": [],
                "receipts": [
                    {
                        "transactionHash": "0xc6dec6ab7a33df967a54a512639fcf4b9f4b9fb8817724ff1c14531290aa3a99",
                        "type": "0x00",
                        "cumulativeGasUsed": "0x01000000",
                        "bloom": "0x00000000000000000000000000000000000000000000000000000000000000000000000000000000000000000000000000000000000000000000000000000000000000000000000000000000000000000000000000000000000000000000000000000000000000000000000000000000000000000000000000000000000000000000000000000000000000000000000000000000000000000000000000000000000000000000000000000000000000000000000000000000000000000000000000000000000000000000000000000000000000000000000000000000000000000000000000000000000000000000000000000000000000000000000000000000",
                        "logs": [],
                        "status": false,
                        "rlp": "0xf9010a808401000000b9010000000000000000000000000000000000000000000000000000000000000000000000000000000000000000000000000000000000000000000000000000000000000000000000000000000000000000000000000000000000000000000000000000000000000000000000000000000000000000000000000000000000000000000000000000000000000000000000000000000000000000000000000000000000000000000000000000000000000000000000000000000000000000000000000000000000000000000000000000000000000000000000000000000000000000000000000000000000000000000000000000000000000000000000000000000000c0"
                    }
                ],
                "rlp": "0xf902aaf90240a0ece25622d2b08273539b4a1da178ecd74d136eaab74fdd0da08e82c23cf63e99a01dcc4de8dec75d7aab85b567b6ccd41ad312451b948a7413f0a142fd40d49347942adc25665018aa1fe0e6bc666dac8fc2697ff9baa01787e62edb1765e59aaaab6834c54e509ff6f870934491c08957178f54cce73fa0459ac4ca4b8041e1fa9509fcaca75889819cf42075875edbbf2192dbd77a3e8da06109c57d8983f520f4b510024a1760aff8d920bb293bbc00c30abdac956b3b2fb90100000000000000000000000000000000000000000000000000000000000000000000000000000000000000000000000000000000000000000000000000000000000000000000000000000000000000000000000000000000000000000000000000000000000000000000000000000000000000000000000000000000000000000000000000000000000000000000000000000000000000000000000000000000000000000000000000000000000000000000000000000000000000000000000000000000000000000000000000000000000000000000000000000000000000000000000000000000000000000000000000000000000000000000000000000000008001887fffffffffffffff84010000008203e800a000000000000000000000000000000000000000000000000000000000000200008800000000000000000aa056e81f171bcc55a6ff8345e692c0f86e5b48e01b996cadc001622fb5e363b4218080a00000000000000000000000000000000000000000000000000000000000000000f863f861800a84010000009483143406093d1f3560dd269416596d3406f1c991018026a031e506fef2684861c5c617133c0554399723962a78576c4c40a39dee35458e41a03a4125099995340a41e6b5f032aaa15d78c1e3a8cca5126e48b9be08618c9a69c0c0",
                "blocknumber": "1"
            }
        ],
        "sealEngine": "NoProof",
        "_info": {
            "hash": "0x11d95fc0343d781955093538f1ff2308f7e7af0a35d33704b29a7c46a7c2b5b0",
            "fixture-format": "blockchain_test",
            "comment": "`execution-specs` generated test",
            "filling-transition-tool": "2.19.0",
            "description": "Test_static_call_bounds3.",
            "url": "https://github.com/ethereum/execution-specs/blob/tests-bal@v5.7.0/tests/ported_static/stMemoryStressTest/test_static_call_bounds3.py#L26",
            "metadata": {
                "opcode_count": {}
            }
        }
    }
}