{
    "tests/static/state_tests/stCallCreateCallCodeTest/callOutput3partialFailFiller.json::callOutput3partialFail[fork_Cancun-state_test-]": {
        "env": {
            "currentCoinbase": "0x2adc25665018aa1fe0e6bc666dac8fc2697ff9ba",
            "currentGasLimit": "0x0f4240",
            "currentNumber": "0x01",
            "currentTimestamp": "0x03e8",
            "currentRandom": "0x0000000000000000000000000000000000000000000000000000000000020000",
            "currentDifficulty": "0x00",
            "currentBaseFee": "0x0a",
            "currentExcessBlobGas": "0x00"
        },
        "pre": {
            "0x85414bf959617088dcaf0ec41fe832a57f33d687": {
                "nonce": "0x00",
                "balance": "0x0de0b6b3a7640000",
                "code": "0x016001600101600055",
                "storage": {}
            },
            "0x85414bf959617088dcaf0ec41fe832a57f33d787": {
                "nonce": "0x00",
                "balance": "0x0de0b6b3a7640000",
                "code": "0x7f5e20a0453cecd065ea59c37ac63e079ee08998b6045136a8ce6635c7912ec0b6600052600a60006000600060007385414bf959617088dcaf0ec41fe832a57f33d68761c350f15060005160005500",
                "storage": {}
            },
            "0x5ed1b4af501363c002e771e5707f37022cff9555": {
                "nonce": "0x00",
                "balance": "0x0de0b6b3a7640000",
                "code": "0x",
                "storage": {}
            }
        },
        "transaction": {
            "nonce": "0x00",
            "gasPrice": "0x0a",
            "gasLimit": [
                "0x0f4240"
            ],
            "to": "0x85414bf959617088dcaf0ec41fe832a57f33d787",
            "value": [
                "0x0186a0"
            ],
            "data": [
                "0x"
            ],
            "sender": "0x5ed1b4af501363c002e771e5707f37022cff9555",
            "secretKey": "0x36f86ef6ea88b1faf3cc565385414bf959617088dcaf0ec41fe832a57f33d687"
        },
        "post": {
            "Cancun": [
                {
                    "hash": "0x5aa0c333ae5f0e7be885d78a8a2ea15fcd1874effdbd25a481f1d23a8c869515",
                    "logs": "0x1dcc4de8dec75d7aab85b567b6ccd41ad312451b948a7413f0a142fd40d49347",
                    "txbytes": "0xf863800a830f42409485414bf959617088dcaf0ec41fe832a57f33d787830186a08026a0a891f5b67bac62383528b0792ecc0fc2591aaa2511df0608f4b698d81ef9cd51a00f52418776e63c772cc97ad3ff6208483fd4d2b432770ca09d3aef14bfe5376a",
                    "indexes": {
                        "data": 0,
                        "gas": 0,
                        "value": 0
                    },
                    "state": {
                        "0x85414bf959617088dcaf0ec41fe832a57f33d687": {
                            "nonce": "0x00",
                            "balance": "0x0de0b6b3a7640000",
                            "code": "0x016001600101600055",
                            "storage": {}
                        },
                        "0x85414bf959617088dcaf0ec41fe832a57f33d787": {
                            "nonce": "0x00",
                            "balance": "0x0de0b6b3a76586a0",
                            "code": "0x7f5e20a0453cecd065ea59c37ac63e079ee08998b6045136a8ce6635c7912ec0b6600052600a60006000600060007385414bf959617088dcaf0ec41fe832a57f33d68761c350f15060005160005500",
                            "storage": {
                                "0x00": "0x5e20a0453cecd065ea59c37ac63e079ee08998b6045136a8ce6635c7912ec0b6"
                            }
                        },
                        "0x5ed1b4af501363c002e771e5707f37022cff9555": {
                            "nonce": "0x01",
                            "balance": "0x0de0b6b3a753dd60",
                            "code": "0x",
                            "storage": {}
                        }
                    }
                }
            ]
        },
        "config": {
            "blobSchedule": {
                "Cancun": {
                    "target": "0x03",
                    "max": "0x06",
                    "baseFeeUpdateFraction": "0x32f0ed"
                }
            },
            "chainid": "0x01"
        },
        "_info": {
            "hash": "0xccc64ad9d442dcbf8c60a94091695131eb0c478039570af27848878c52b8ebb3",
            "comment": "`execution-spec-tests` generated test",
            "filling-transition-tool": "ethereum-spec-evm-resolver 0.0.5",
            "description": "No description available - add a docstring to the python test class or function.",
            "url": "",
            "fixture-format": "state_test",
            "eels-resolution": {
                "git-url": "https://github.com/marioevz/execution-specs.git",
                "branch": "forks/bpo1",
                "commit": "3387e5f4aedfe99becfdc39b444d6371e25e0924"
            }
        }
    },
    "tests/static/state_tests/stCallCreateCallCodeTest/callOutput3partialFailFiller.json::callOutput3partialFail[fork_Osaka-state_test-]": {
        "env": {
            "currentCoinbase": "0x2adc25665018aa1fe0e6bc666dac8fc2697ff9ba",
            "currentGasLimit": "0x0f4240",
            "currentNumber": "0x01",
            "currentTimestamp": "0x03e8",
            "currentRandom": "0x0000000000000000000000000000000000000000000000000000000000020000",
            "currentDifficulty": "0x00",
            "currentBaseFee": "0x0a",
            "currentExcessBlobGas": "0x00"
        },
        "pre": {
            "0x85414bf959617088dcaf0ec41fe832a57f33d687": {
                "nonce": "0x00",
                "balance": "0x0de0b6b3a7640000",
                "code": "0x016001600101600055",
                "storage": {}
            },
            "0x85414bf959617088dcaf0ec41fe832a57f33d787": {
                "nonce": "0x00",
                "balance": "0x0de0b6b3a7640000",
                "code": "0x7f5e20a0453cecd065ea59c37ac63e079ee08998b6045136a8ce6635c7912ec0b6600052600a60006000600060007385414bf959617088dcaf0ec41fe832a57f33d68761c350f15060005160005500",
                "storage": {}
            },
            "0x5ed1b4af501363c002e771e5707f37022cff9555": {
                "nonce": "0x00",
                "balance": "0x0de0b6b3a7640000",
                "code": "0x",
                "storage": {}
            }
        },
        "transaction": {
            "nonce": "0x00",
            "gasPrice": "0x0a",
            "gasLimit": [
                "0x0f4240"
            ],
            "to": "0x85414bf959617088dcaf0ec41fe832a57f33d787",
            "value": [
                "0x0186a0"
            ],
            "data": [
                "0x"
            ],
            "sender": "0x5ed1b4af501363c002e771e5707f37022cff9555",
            "secretKey": "0x36f86ef6ea88b1faf3cc565385414bf959617088dcaf0ec41fe832a57f33d687"
        },
        "post": {
            "Osaka": [
                {
                    "hash": "0x5aa0c333ae5f0e7be885d78a8a2ea15fcd1874effdbd25a481f1d23a8c869515",
                    "logs": "0x1dcc4de8dec75d7aab85b567b6ccd41ad312451b948a7413f0a142fd40d49347",
                    "txbytes": "0xf863800a830f42409485414bf959617088dcaf0ec41fe832a57f33d787830186a08026a0a891f5b67bac62383528b0792ecc0fc2591aaa2511df0608f4b698d81ef9cd51a00f52418776e63c772cc97ad3ff6208483fd4d2b432770ca09d3aef14bfe5376a",
                    "indexes": {
                        "data": 0,
                        "gas": 0,
                        "value": 0
                    },
                    "state": {
                        "0x85414bf959617088dcaf0ec41fe832a57f33d687": {
                            "nonce": "0x00",
                            "balance": "0x0de0b6b3a7640000",
                            "code": "0x016001600101600055",
                            "storage": {}
                        },
                        "0x85414bf959617088dcaf0ec41fe832a57f33d787": {
                            "nonce": "0x00",
                            "balance": "0x0de0b6b3a76586a0",
                            "code": "0x7f5e20a0453cecd065ea59c37ac63e079ee08998b6045136a8ce6635c7912ec0b6600052600a60006000600060007385414bf959617088dcaf0ec41fe832a57f33d68761c350f15060005160005500",
                            "storage": {
                                "0x00": "0x5e20a0453cecd065ea59c37ac63e079ee08998b6045136a8ce6635c7912ec0b6"
                            }
                        },
                        "0x5ed1b4af501363c002e771e5707f37022cff9555": {
                            "nonce": "0x01",
                            "balance": "0x0de0b6b3a753dd60",
                            "code": "0x",
                            "storage": {}
                        }
                    }
                }
            ]
        },
        "config": {
            "blobSchedule": {
                "Cancun": {
                    "target": "0x03",
                    "max": "0x06",
                    "baseFeeUpdateFraction": "0x32f0ed"
                },
                "Prague": {
                    "target": "0x06",
                    "max": "0x09",
                    "baseFeeUpdateFraction": "0x4c6964"
                },
                "Osaka": {
                    "target": "0x06",
                    "max": "0x09",
                    "baseFeeUpdateFraction": "0x4c6964"
                }
            },
            "chainid": "0x01"
        },
        "_info": {
            "hash": "0xc1d2f496df46c92bb8ed9cb3c278e9e0b1f1730b192394c200a55142c940ff18",
            "comment": "`execution-spec-tests` generated test",
            "filling-transition-tool": "ethereum-spec-evm-resolver 0.0.5",
            "description": "No description available - add a docstring to the python test class or function.",
            "url": "",
            "fixture-format": "state_test",
            "eels-resolution": {
                "git-url": "https://github.com/marioevz/execution-specs.git",
                "branch": "forks/bpo1",
                "commit": "3387e5f4aedfe99becfdc39b444d6371e25e0924"
            }
        }
    },
    "tests/static/state_tests/stCallCreateCallCodeTest/callOutput3partialFailFiller.json::callOutput3partialFail[fork_Prague-state_test-]": {
        "env": {
            "currentCoinbase": "0x2adc25665018aa1fe0e6bc666dac8fc2697ff9ba",
            "currentGasLimit": "0x0f4240",
            "currentNumber": "0x01",
            "currentTimestamp": "0x03e8",
            "currentRandom": "0x0000000000000000000000000000000000000000000000000000000000020000",
            "currentDifficulty": "0x00",
            "currentBaseFee": "0x0a",
            "currentExcessBlobGas": "0x00"
        },
        "pre": {
            "0x85414bf959617088dcaf0ec41fe832a57f33d687": {
                "nonce": "0x00",
                "balance": "0x0de0b6b3a7640000",
                "code": "0x016001600101600055",
                "storage": {}
            },
            "0x85414bf959617088dcaf0ec41fe832a57f33d787": {
                "nonce": "0x00",
                "balance": "0x0de0b6b3a7640000",
                "code": "0x7f5e20a0453cecd065ea59c37ac63e079ee08998b6045136a8ce6635c7912ec0b6600052600a60006000600060007385414bf959617088dcaf0ec41fe832a57f33d68761c350f15060005160005500",
                "storage": {}
            },
            "0x5ed1b4af501363c002e771e5707f37022cff9555": {
                "nonce": "0x00",
                "balance": "0x0de0b6b3a7640000",
                "code": "0x",
                "storage": {}
            }
        },
        "transaction": {
            "nonce": "0x00",
            "gasPrice": "0x0a",
            "gasLimit": [
                "0x0f4240"
            ],
            "to": "0x85414bf959617088dcaf0ec41fe832a57f33d787",
            "value": [
                "0x0186a0"
            ],
            "data": [
                "0x"
            ],
            "sender": "0x5ed1b4af501363c002e771e5707f37022cff9555",
            "secretKey": "0x36f86ef6ea88b1faf3cc565385414bf959617088dcaf0ec41fe832a57f33d687"
        },
        "post": {
            "Prague": [
                {
                    "hash": "0x5aa0c333ae5f0e7be885d78a8a2ea15fcd1874effdbd25a481f1d23a8c869515",
                    "logs": "0x1dcc4de8dec75d7aab85b567b6ccd41ad312451b948a7413f0a142fd40d49347",
                    "txbytes": "0xf863800a830f42409485414bf959617088dcaf0ec41fe832a57f33d787830186a08026a0a891f5b67bac62383528b0792ecc0fc2591aaa2511df0608f4b698d81ef9cd51a00f52418776e63c772cc97ad3ff6208483fd4d2b432770ca09d3aef14bfe5376a",
                    "indexes": {
                        "data": 0,
                        "gas": 0,
                        "value": 0
                    },
                    "state": {
                        "0x85414bf959617088dcaf0ec41fe832a57f33d687": {
                            "nonce": "0x00",
                            "balance": "0x0de0b6b3a7640000",
                            "code": "0x016001600101600055",
                            "storage": {}
                        },
                        "0x85414bf959617088dcaf0ec41fe832a57f33d787": {
                            "nonce": "0x00",
                            "balance": "0x0de0b6b3a76586a0",
                            "code": "0x7f5e20a0453cecd065ea59c37ac63e079ee08998b6045136a8ce6635c7912ec0b6600052600a60006000600060007385414bf959617088dcaf0ec41fe832a57f33d68761c350f15060005160005500",
                            "storage": {
                                "0x00": "0x5e20a0453cecd065ea59c37ac63e079ee08998b6045136a8ce6635c7912ec0b6"
                            }
                        },
                        "0x5ed1b4af501363c002e771e5707f37022cff9555": {
                            "nonce": "0x01",
                            "balance": "0x0de0b6b3a753dd60",
                            "code": "0x",
                            "storage": {}
                        }
                    }
                }
            ]
        },
        "config": {
            "blobSchedule": {
                "Cancun": {
                    "target": "0x03",
                    "max": "0x06",
                    "baseFeeUpdateFraction": "0x32f0ed"
                },
                "Prague": {
                    "target": "0x06",
                    "max": "0x09",
                    "baseFeeUpdateFraction": "0x4c6964"
                }
            },
            "chainid": "0x01"
        },
        "_info": {
            "hash": "0x011b7bf42d29a39654145036ae9454fe8859ba9dc4efec5b1fafa69a3f29d3f7",
            "comment": "`execution-spec-tests` generated test",
            "filling-transition-tool": "ethereum-spec-evm-resolver 0.0.5",
            "description": "No description available - add a docstring to the python test class or function.",
            "url": "",
            "fixture-format": "state_test",
            "eels-resolution": {
                "git-url": "https://github.com/marioevz/execution-specs.git",
                "branch": "forks/bpo1",
                "commit": "3387e5f4aedfe99becfdc39b444d6371e25e0924"
            }
        }
    }
}