{
    "tests/static/state_tests/stCallCreateCallCodeTest/CallLoseGasOOGFiller.json::CallLoseGasOOG[fork_Cancun-state_test-]": {
        "env": {
            "currentCoinbase": "0xb94f5374fce5edbc8e2a8697c15331677e6ebf0b",
            "currentGasLimit": "0x7fffffffffffffff",
            "currentNumber": "0x01",
            "currentTimestamp": "0x03e8",
            "currentRandom": "0x0000000000000000000000000000000000000000000000000000000000020000",
            "currentDifficulty": "0x00",
            "currentBaseFee": "0x0a",
            "currentExcessBlobGas": "0x00"
        },
        "pre": {
            "0xd559b2481bbdbe099445fec743068efbee9c2d8e": {
                "nonce": "0x00",
                "balance": "0x0400",
                "code": "0x6001600054016000556000600060006000600073d559b2481bbdbe099445fec743068efbee9c2d8e620186a060005402600101f16001556103e86000540260010160025500",
                "storage": {}
            },
            "0x2d8f3cf80f07d27d544f0dfa5517eb3fade16b82": {
                "nonce": "0x00",
                "balance": "0x1b58",
                "code": "0x",
                "storage": {}
            },
            "0x28e38df2602c3c1cf980e63230b5d0e2d52c4cf6": {
                "nonce": "0x00",
                "balance": "0xffffffffffffffffffffffffffffffff",
                "code": "0x",
                "storage": {}
            }
        },
        "transaction": {
            "nonce": "0x00",
            "gasPrice": "0x0a",
            "gasLimit": [
                "0x030d40"
            ],
            "to": "0xd559b2481bbdbe099445fec743068efbee9c2d8e",
            "value": [
                "0x0a"
            ],
            "data": [
                "0x"
            ],
            "sender": "0x28e38df2602c3c1cf980e63230b5d0e2d52c4cf6",
            "secretKey": "0xb7e6d2783e15a88a3820d7c8d559b2481bbdbe099445fec743068efbee9c2d8f"
        },
        "post": {
            "Cancun": [
                {
                    "hash": "0x196e893db8c188a7cdc3708c9409fcef42d16b1e4781e8fc775d0acf0dadc003",
                    "logs": "0x1dcc4de8dec75d7aab85b567b6ccd41ad312451b948a7413f0a142fd40d49347",
                    "txbytes": "0xf860800a83030d4094d559b2481bbdbe099445fec743068efbee9c2d8e0a8025a0fc37fcee4a11c2a17f13f1427ccf17ab3b897017f885e1b24568a956ab6bff7ca02ba257758273d4b5c328c2deaa9e5cbe96cef33c5309306691feace8f1c4fcd8",
                    "indexes": {
                        "data": 0,
                        "gas": 0,
                        "value": 0
                    },
                    "state": {
                        "0xd559b2481bbdbe099445fec743068efbee9c2d8e": {
                            "nonce": "0x00",
                            "balance": "0x040a",
                            "code": "0x6001600054016000556000600060006000600073d559b2481bbdbe099445fec743068efbee9c2d8e620186a060005402600101f16001556103e86000540260010160025500",
                            "storage": {
                                "0x00": "0x01",
                                "0x02": "0x03e9"
                            }
                        },
                        "0x2d8f3cf80f07d27d544f0dfa5517eb3fade16b82": {
                            "nonce": "0x00",
                            "balance": "0x1b58",
                            "code": "0x",
                            "storage": {}
                        },
                        "0x28e38df2602c3c1cf980e63230b5d0e2d52c4cf6": {
                            "nonce": "0x01",
                            "balance": "0xffffffffffffffffffffffffffe66667",
                            "code": "0x",
                            "storage": {}
                        }
                    }
                }
            ]
        },
        "config": {
            "blobSchedule": {
                "Cancun": {
                    "target": "0x03",
                    "max": "0x06",
                    "baseFeeUpdateFraction": "0x32f0ed"
                }
            },
            "chainid": "0x01"
        },
        "_info": {
            "hash": "0xe3c9aad4de8ac9b2cc556182c1bb9082176be49b5ea35b266c35cd4fb80914ff",
            "comment": "`execution-specs` generated test",
            "filling-transition-tool": "2.18.0rc6",
            "description": "No description available - add a docstring to the python test class or function.",
            "url": "",
            "fixture-format": "state_test"
        }
    },
    "tests/static/state_tests/stCallCreateCallCodeTest/CallLoseGasOOGFiller.json::CallLoseGasOOG[fork_Osaka-state_test-]": {
        "env": {
            "currentCoinbase": "0xb94f5374fce5edbc8e2a8697c15331677e6ebf0b",
            "currentGasLimit": "0x7fffffffffffffff",
            "currentNumber": "0x01",
            "currentTimestamp": "0x03e8",
            "currentRandom": "0x0000000000000000000000000000000000000000000000000000000000020000",
            "currentDifficulty": "0x00",
            "currentBaseFee": "0x0a",
            "currentExcessBlobGas": "0x00"
        },
        "pre": {
            "0xd559b2481bbdbe099445fec743068efbee9c2d8e": {
                "nonce": "0x00",
                "balance": "0x0400",
                "code": "0x6001600054016000556000600060006000600073d559b2481bbdbe099445fec743068efbee9c2d8e620186a060005402600101f16001556103e86000540260010160025500",
                "storage": {}
            },
            "0x2d8f3cf80f07d27d544f0dfa5517eb3fade16b82": {
                "nonce": "0x00",
                "balance": "0x1b58",
                "code": "0x",
                "storage": {}
            },
            "0x28e38df2602c3c1cf980e63230b5d0e2d52c4cf6": {
                "nonce": "0x00",
                "balance": "0xffffffffffffffffffffffffffffffff",
                "code": "0x",
                "storage": {}
            }
        },
        "transaction": {
            "nonce": "0x00",
            "gasPrice": "0x0a",
            "gasLimit": [
                "0x030d40"
            ],
            "to": "0xd559b2481bbdbe099445fec743068efbee9c2d8e",
            "value": [
                "0x0a"
            ],
            "data": [
                "0x"
            ],
            "sender": "0x28e38df2602c3c1cf980e63230b5d0e2d52c4cf6",
            "secretKey": "0xb7e6d2783e15a88a3820d7c8d559b2481bbdbe099445fec743068efbee9c2d8f"
        },
        "post": {
            "Osaka": [
                {
                    "hash": "0x196e893db8c188a7cdc3708c9409fcef42d16b1e4781e8fc775d0acf0dadc003",
                    "logs": "0x1dcc4de8dec75d7aab85b567b6ccd41ad312451b948a7413f0a142fd40d49347",
                    "txbytes": "0xf860800a83030d4094d559b2481bbdbe099445fec743068efbee9c2d8e0a8025a0fc37fcee4a11c2a17f13f1427ccf17ab3b897017f885e1b24568a956ab6bff7ca02ba257758273d4b5c328c2deaa9e5cbe96cef33c5309306691feace8f1c4fcd8",
                    "indexes": {
                        "data": 0,
                        "gas": 0,
                        "value": 0
                    },
                    "state": {
                        "0xd559b2481bbdbe099445fec743068efbee9c2d8e": {
                            "nonce": "0x00",
                            "balance": "0x040a",
                            "code": "0x6001600054016000556000600060006000600073d559b2481bbdbe099445fec743068efbee9c2d8e620186a060005402600101f16001556103e86000540260010160025500",
                            "storage": {
                                "0x00": "0x01",
                                "0x02": "0x03e9"
                            }
                        },
                        "0x2d8f3cf80f07d27d544f0dfa5517eb3fade16b82": {
                            "nonce": "0x00",
                            "balance": "0x1b58",
                            "code": "0x",
                            "storage": {}
                        },
                        "0x28e38df2602c3c1cf980e63230b5d0e2d52c4cf6": {
                            "nonce": "0x01",
                            "balance": "0xffffffffffffffffffffffffffe66667",
                            "code": "0x",
                            "storage": {}
                        }
                    }
                }
            ]
        },
        "config": {
            "blobSchedule": {
                "Cancun": {
                    "target": "0x03",
                    "max": "0x06",
                    "baseFeeUpdateFraction": "0x32f0ed"
                },
                "Prague": {
                    "target": "0x06",
                    "max": "0x09",
                    "baseFeeUpdateFraction": "0x4c6964"
                },
                "Osaka": {
                    "target": "0x06",
                    "max": "0x09",
                    "baseFeeUpdateFraction": "0x4c6964"
                }
            },
            "chainid": "0x01"
        },
        "_info": {
            "hash": "0x680a6006c2ca6d9c7c1ababd9840e44237a2996676e6fee562738816ba73a230",
            "comment": "`execution-specs` generated test",
            "filling-transition-tool": "2.18.0rc6",
            "description": "No description available - add a docstring to the python test class or function.",
            "url": "",
            "fixture-format": "state_test"
        }
    },
    "tests/static/state_tests/stCallCreateCallCodeTest/CallLoseGasOOGFiller.json::CallLoseGasOOG[fork_Prague-state_test-]": {
        "env": {
            "currentCoinbase": "0xb94f5374fce5edbc8e2a8697c15331677e6ebf0b",
            "currentGasLimit": "0x7fffffffffffffff",
            "currentNumber": "0x01",
            "currentTimestamp": "0x03e8",
            "currentRandom": "0x0000000000000000000000000000000000000000000000000000000000020000",
            "currentDifficulty": "0x00",
            "currentBaseFee": "0x0a",
            "currentExcessBlobGas": "0x00"
        },
        "pre": {
            "0xd559b2481bbdbe099445fec743068efbee9c2d8e": {
                "nonce": "0x00",
                "balance": "0x0400",
                "code": "0x6001600054016000556000600060006000600073d559b2481bbdbe099445fec743068efbee9c2d8e620186a060005402600101f16001556103e86000540260010160025500",
                "storage": {}
            },
            "0x2d8f3cf80f07d27d544f0dfa5517eb3fade16b82": {
                "nonce": "0x00",
                "balance": "0x1b58",
                "code": "0x",
                "storage": {}
            },
            "0x28e38df2602c3c1cf980e63230b5d0e2d52c4cf6": {
                "nonce": "0x00",
                "balance": "0xffffffffffffffffffffffffffffffff",
                "code": "0x",
                "storage": {}
            }
        },
        "transaction": {
            "nonce": "0x00",
            "gasPrice": "0x0a",
            "gasLimit": [
                "0x030d40"
            ],
            "to": "0xd559b2481bbdbe099445fec743068efbee9c2d8e",
            "value": [
                "0x0a"
            ],
            "data": [
                "0x"
            ],
            "sender": "0x28e38df2602c3c1cf980e63230b5d0e2d52c4cf6",
            "secretKey": "0xb7e6d2783e15a88a3820d7c8d559b2481bbdbe099445fec743068efbee9c2d8f"
        },
        "post": {
            "Prague": [
                {
                    "hash": "0x196e893db8c188a7cdc3708c9409fcef42d16b1e4781e8fc775d0acf0dadc003",
                    "logs": "0x1dcc4de8dec75d7aab85b567b6ccd41ad312451b948a7413f0a142fd40d49347",
                    "txbytes": "0xf860800a83030d4094d559b2481bbdbe099445fec743068efbee9c2d8e0a8025a0fc37fcee4a11c2a17f13f1427ccf17ab3b897017f885e1b24568a956ab6bff7ca02ba257758273d4b5c328c2deaa9e5cbe96cef33c5309306691feace8f1c4fcd8",
                    "indexes": {
                        "data": 0,
                        "gas": 0,
                        "value": 0
                    },
                    "state": {
                        "0xd559b2481bbdbe099445fec743068efbee9c2d8e": {
                            "nonce": "0x00",
                            "balance": "0x040a",
                            "code": "0x6001600054016000556000600060006000600073d559b2481bbdbe099445fec743068efbee9c2d8e620186a060005402600101f16001556103e86000540260010160025500",
                            "storage": {
                                "0x00": "0x01",
                                "0x02": "0x03e9"
                            }
                        },
                        "0x2d8f3cf80f07d27d544f0dfa5517eb3fade16b82": {
                            "nonce": "0x00",
                            "balance": "0x1b58",
                            "code": "0x",
                            "storage": {}
                        },
                        "0x28e38df2602c3c1cf980e63230b5d0e2d52c4cf6": {
                            "nonce": "0x01",
                            "balance": "0xffffffffffffffffffffffffffe66667",
                            "code": "0x",
                            "storage": {}
                        }
                    }
                }
            ]
        },
        "config": {
            "blobSchedule": {
                "Cancun": {
                    "target": "0x03",
                    "max": "0x06",
                    "baseFeeUpdateFraction": "0x32f0ed"
                },
                "Prague": {
                    "target": "0x06",
                    "max": "0x09",
                    "baseFeeUpdateFraction": "0x4c6964"
                }
            },
            "chainid": "0x01"
        },
        "_info": {
            "hash": "0x54e25e35900e4efd730b23e62f77c09846e5197e669e0e11b9488d6596623fea",
            "comment": "`execution-specs` generated test",
            "filling-transition-tool": "2.18.0rc6",
            "description": "No description available - add a docstring to the python test class or function.",
            "url": "",
            "fixture-format": "state_test"
        }
    }
}