{
    "tests/static/state_tests/stCallCreateCallCodeTest/callcodeOutput3FailFiller.json::callcodeOutput3Fail[fork_Cancun-state_test-]": {
        "env": {
            "currentCoinbase": "0x2adc25665018aa1fe0e6bc666dac8fc2697ff9ba",
            "currentGasLimit": "0x0f4240",
            "currentNumber": "0x01",
            "currentTimestamp": "0x03e8",
            "currentRandom": "0x0000000000000000000000000000000000000000000000000000000000020000",
            "currentDifficulty": "0x00",
            "currentBaseFee": "0x0a",
            "currentExcessBlobGas": "0x00"
        },
        "pre": {
            "0xefb91c36c525ff032a3fe3739b838632d4fb8274": {
                "nonce": "0x00",
                "balance": "0x0de0b6b3a7640000",
                "code": "0x016001600101600055",
                "storage": {}
            },
            "0xefb91c36c525ff032a3fe3739b838632d4fb8374": {
                "nonce": "0x00",
                "balance": "0x0de0b6b3a7640000",
                "code": "0x7f5e20a0453cecd065ea59c37ac63e079ee08998b6045136a8ce6635c7912ec0b66000526020600060006000600073efb91c36c525ff032a3fe3739b838632d4fb827461c350f25060005160005500",
                "storage": {}
            },
            "0x684afb88525a94b674adc629527ea08e594c095c": {
                "nonce": "0x00",
                "balance": "0x0de0b6b3a7640000",
                "code": "0x",
                "storage": {}
            }
        },
        "transaction": {
            "nonce": "0x00",
            "gasPrice": "0x0a",
            "gasLimit": [
                "0x0f4240"
            ],
            "to": "0xefb91c36c525ff032a3fe3739b838632d4fb8374",
            "value": [
                "0x0186a0"
            ],
            "data": [
                "0x"
            ],
            "sender": "0x684afb88525a94b674adc629527ea08e594c095c",
            "secretKey": "0xbcecaec41b5587ebd4c723ddefb91c36c525ff032a3fe3739b838632d4fb8274"
        },
        "post": {
            "Cancun": [
                {
                    "hash": "0xd96ac23c4cd9a2f964615504e6438c0648c550c9c6747c6bc74acc53fcd21bb3",
                    "logs": "0x1dcc4de8dec75d7aab85b567b6ccd41ad312451b948a7413f0a142fd40d49347",
                    "txbytes": "0xf863800a830f424094efb91c36c525ff032a3fe3739b838632d4fb8374830186a08025a00273c20c6db5afe01841b3b7f67d34bc33dd4a24850bea3c52d47129df294b50a01bc69a24c447fd0f059f5b8f6bf8f27dc10dba40c662c9b588e6fc64a5882f11",
                    "indexes": {
                        "data": 0,
                        "gas": 0,
                        "value": 0
                    },
                    "state": {
                        "0xefb91c36c525ff032a3fe3739b838632d4fb8274": {
                            "nonce": "0x00",
                            "balance": "0x0de0b6b3a7640000",
                            "code": "0x016001600101600055",
                            "storage": {}
                        },
                        "0xefb91c36c525ff032a3fe3739b838632d4fb8374": {
                            "nonce": "0x00",
                            "balance": "0x0de0b6b3a76586a0",
                            "code": "0x7f5e20a0453cecd065ea59c37ac63e079ee08998b6045136a8ce6635c7912ec0b66000526020600060006000600073efb91c36c525ff032a3fe3739b838632d4fb827461c350f25060005160005500",
                            "storage": {
                                "0x00": "0x5e20a0453cecd065ea59c37ac63e079ee08998b6045136a8ce6635c7912ec0b6"
                            }
                        },
                        "0x684afb88525a94b674adc629527ea08e594c095c": {
                            "nonce": "0x01",
                            "balance": "0x0de0b6b3a753dd60",
                            "code": "0x",
                            "storage": {}
                        }
                    }
                }
            ]
        },
        "config": {
            "blobSchedule": {
                "Cancun": {
                    "target": "0x03",
                    "max": "0x06",
                    "baseFeeUpdateFraction": "0x32f0ed"
                }
            },
            "chainid": "0x01"
        },
        "_info": {
            "hash": "0x277f19c63c4d6c95acc757b87d38e3fcb9fd341c0160e7e54aab20c8db778d1a",
            "comment": "`execution-specs` generated test",
            "filling-transition-tool": "2.18.0rc6",
            "description": "No description available - add a docstring to the python test class or function.",
            "url": "",
            "fixture-format": "state_test"
        }
    },
    "tests/static/state_tests/stCallCreateCallCodeTest/callcodeOutput3FailFiller.json::callcodeOutput3Fail[fork_Osaka-state_test-]": {
        "env": {
            "currentCoinbase": "0x2adc25665018aa1fe0e6bc666dac8fc2697ff9ba",
            "currentGasLimit": "0x0f4240",
            "currentNumber": "0x01",
            "currentTimestamp": "0x03e8",
            "currentRandom": "0x0000000000000000000000000000000000000000000000000000000000020000",
            "currentDifficulty": "0x00",
            "currentBaseFee": "0x0a",
            "currentExcessBlobGas": "0x00"
        },
        "pre": {
            "0xefb91c36c525ff032a3fe3739b838632d4fb8274": {
                "nonce": "0x00",
                "balance": "0x0de0b6b3a7640000",
                "code": "0x016001600101600055",
                "storage": {}
            },
            "0xefb91c36c525ff032a3fe3739b838632d4fb8374": {
                "nonce": "0x00",
                "balance": "0x0de0b6b3a7640000",
                "code": "0x7f5e20a0453cecd065ea59c37ac63e079ee08998b6045136a8ce6635c7912ec0b66000526020600060006000600073efb91c36c525ff032a3fe3739b838632d4fb827461c350f25060005160005500",
                "storage": {}
            },
            "0x684afb88525a94b674adc629527ea08e594c095c": {
                "nonce": "0x00",
                "balance": "0x0de0b6b3a7640000",
                "code": "0x",
                "storage": {}
            }
        },
        "transaction": {
            "nonce": "0x00",
            "gasPrice": "0x0a",
            "gasLimit": [
                "0x0f4240"
            ],
            "to": "0xefb91c36c525ff032a3fe3739b838632d4fb8374",
            "value": [
                "0x0186a0"
            ],
            "data": [
                "0x"
            ],
            "sender": "0x684afb88525a94b674adc629527ea08e594c095c",
            "secretKey": "0xbcecaec41b5587ebd4c723ddefb91c36c525ff032a3fe3739b838632d4fb8274"
        },
        "post": {
            "Osaka": [
                {
                    "hash": "0xd96ac23c4cd9a2f964615504e6438c0648c550c9c6747c6bc74acc53fcd21bb3",
                    "logs": "0x1dcc4de8dec75d7aab85b567b6ccd41ad312451b948a7413f0a142fd40d49347",
                    "txbytes": "0xf863800a830f424094efb91c36c525ff032a3fe3739b838632d4fb8374830186a08025a00273c20c6db5afe01841b3b7f67d34bc33dd4a24850bea3c52d47129df294b50a01bc69a24c447fd0f059f5b8f6bf8f27dc10dba40c662c9b588e6fc64a5882f11",
                    "indexes": {
                        "data": 0,
                        "gas": 0,
                        "value": 0
                    },
                    "state": {
                        "0xefb91c36c525ff032a3fe3739b838632d4fb8274": {
                            "nonce": "0x00",
                            "balance": "0x0de0b6b3a7640000",
                            "code": "0x016001600101600055",
                            "storage": {}
                        },
                        "0xefb91c36c525ff032a3fe3739b838632d4fb8374": {
                            "nonce": "0x00",
                            "balance": "0x0de0b6b3a76586a0",
                            "code": "0x7f5e20a0453cecd065ea59c37ac63e079ee08998b6045136a8ce6635c7912ec0b66000526020600060006000600073efb91c36c525ff032a3fe3739b838632d4fb827461c350f25060005160005500",
                            "storage": {
                                "0x00": "0x5e20a0453cecd065ea59c37ac63e079ee08998b6045136a8ce6635c7912ec0b6"
                            }
                        },
                        "0x684afb88525a94b674adc629527ea08e594c095c": {
                            "nonce": "0x01",
                            "balance": "0x0de0b6b3a753dd60",
                            "code": "0x",
                            "storage": {}
                        }
                    }
                }
            ]
        },
        "config": {
            "blobSchedule": {
                "Cancun": {
                    "target": "0x03",
                    "max": "0x06",
                    "baseFeeUpdateFraction": "0x32f0ed"
                },
                "Prague": {
                    "target": "0x06",
                    "max": "0x09",
                    "baseFeeUpdateFraction": "0x4c6964"
                },
                "Osaka": {
                    "target": "0x06",
                    "max": "0x09",
                    "baseFeeUpdateFraction": "0x4c6964"
                }
            },
            "chainid": "0x01"
        },
        "_info": {
            "hash": "0x893718804824b28f80a5dd38de2ea20bdc4335b9b1926e2e757d6403e2e40891",
            "comment": "`execution-specs` generated test",
            "filling-transition-tool": "2.18.0rc6",
            "description": "No description available - add a docstring to the python test class or function.",
            "url": "",
            "fixture-format": "state_test"
        }
    },
    "tests/static/state_tests/stCallCreateCallCodeTest/callcodeOutput3FailFiller.json::callcodeOutput3Fail[fork_Prague-state_test-]": {
        "env": {
            "currentCoinbase": "0x2adc25665018aa1fe0e6bc666dac8fc2697ff9ba",
            "currentGasLimit": "0x0f4240",
            "currentNumber": "0x01",
            "currentTimestamp": "0x03e8",
            "currentRandom": "0x0000000000000000000000000000000000000000000000000000000000020000",
            "currentDifficulty": "0x00",
            "currentBaseFee": "0x0a",
            "currentExcessBlobGas": "0x00"
        },
        "pre": {
            "0xefb91c36c525ff032a3fe3739b838632d4fb8274": {
                "nonce": "0x00",
                "balance": "0x0de0b6b3a7640000",
                "code": "0x016001600101600055",
                "storage": {}
            },
            "0xefb91c36c525ff032a3fe3739b838632d4fb8374": {
                "nonce": "0x00",
                "balance": "0x0de0b6b3a7640000",
                "code": "0x7f5e20a0453cecd065ea59c37ac63e079ee08998b6045136a8ce6635c7912ec0b66000526020600060006000600073efb91c36c525ff032a3fe3739b838632d4fb827461c350f25060005160005500",
                "storage": {}
            },
            "0x684afb88525a94b674adc629527ea08e594c095c": {
                "nonce": "0x00",
                "balance": "0x0de0b6b3a7640000",
                "code": "0x",
                "storage": {}
            }
        },
        "transaction": {
            "nonce": "0x00",
            "gasPrice": "0x0a",
            "gasLimit": [
                "0x0f4240"
            ],
            "to": "0xefb91c36c525ff032a3fe3739b838632d4fb8374",
            "value": [
                "0x0186a0"
            ],
            "data": [
                "0x"
            ],
            "sender": "0x684afb88525a94b674adc629527ea08e594c095c",
            "secretKey": "0xbcecaec41b5587ebd4c723ddefb91c36c525ff032a3fe3739b838632d4fb8274"
        },
        "post": {
            "Prague": [
                {
                    "hash": "0xd96ac23c4cd9a2f964615504e6438c0648c550c9c6747c6bc74acc53fcd21bb3",
                    "logs": "0x1dcc4de8dec75d7aab85b567b6ccd41ad312451b948a7413f0a142fd40d49347",
                    "txbytes": "0xf863800a830f424094efb91c36c525ff032a3fe3739b838632d4fb8374830186a08025a00273c20c6db5afe01841b3b7f67d34bc33dd4a24850bea3c52d47129df294b50a01bc69a24c447fd0f059f5b8f6bf8f27dc10dba40c662c9b588e6fc64a5882f11",
                    "indexes": {
                        "data": 0,
                        "gas": 0,
                        "value": 0
                    },
                    "state": {
                        "0xefb91c36c525ff032a3fe3739b838632d4fb8274": {
                            "nonce": "0x00",
                            "balance": "0x0de0b6b3a7640000",
                            "code": "0x016001600101600055",
                            "storage": {}
                        },
                        "0xefb91c36c525ff032a3fe3739b838632d4fb8374": {
                            "nonce": "0x00",
                            "balance": "0x0de0b6b3a76586a0",
                            "code": "0x7f5e20a0453cecd065ea59c37ac63e079ee08998b6045136a8ce6635c7912ec0b66000526020600060006000600073efb91c36c525ff032a3fe3739b838632d4fb827461c350f25060005160005500",
                            "storage": {
                                "0x00": "0x5e20a0453cecd065ea59c37ac63e079ee08998b6045136a8ce6635c7912ec0b6"
                            }
                        },
                        "0x684afb88525a94b674adc629527ea08e594c095c": {
                            "nonce": "0x01",
                            "balance": "0x0de0b6b3a753dd60",
                            "code": "0x",
                            "storage": {}
                        }
                    }
                }
            ]
        },
        "config": {
            "blobSchedule": {
                "Cancun": {
                    "target": "0x03",
                    "max": "0x06",
                    "baseFeeUpdateFraction": "0x32f0ed"
                },
                "Prague": {
                    "target": "0x06",
                    "max": "0x09",
                    "baseFeeUpdateFraction": "0x4c6964"
                }
            },
            "chainid": "0x01"
        },
        "_info": {
            "hash": "0x5574d9b4561adef7ff302f98e1a85c38c54ad6ec7a774a5fcd31f210f5914ee1",
            "comment": "`execution-specs` generated test",
            "filling-transition-tool": "2.18.0rc6",
            "description": "No description available - add a docstring to the python test class or function.",
            "url": "",
            "fixture-format": "state_test"
        }
    }
}