{
    "tests/static/state_tests/stCallCreateCallCodeTest/callOutput3Filler.json::callOutput3[fork_Cancun-state_test-]": {
        "env": {
            "currentCoinbase": "0x2adc25665018aa1fe0e6bc666dac8fc2697ff9ba",
            "currentGasLimit": "0x0f4240",
            "currentNumber": "0x01",
            "currentTimestamp": "0x03e8",
            "currentRandom": "0x0000000000000000000000000000000000000000000000000000000000020000",
            "currentDifficulty": "0x00",
            "currentBaseFee": "0x0a",
            "currentExcessBlobGas": "0x00"
        },
        "pre": {
            "0xc168c5b31b4851b6c7874fe8be71d93c55d32ea2": {
                "nonce": "0x00",
                "balance": "0x0de0b6b3a7640000",
                "code": "0x6001600101600055",
                "storage": {}
            },
            "0xc168c5b31b4851b6c7874fe8be71d93c55d32fa2": {
                "nonce": "0x00",
                "balance": "0x0de0b6b3a7640000",
                "code": "0x7f5e20a0453cecd065ea59c37ac63e079ee08998b6045136a8ce6635c7912ec0b66000526020600060006000600073c168c5b31b4851b6c7874fe8be71d93c55d32ea2620249f0f15060005160005500",
                "storage": {}
            },
            "0x10c3c0ecc5765ef391383d2fb816efa61033a031": {
                "nonce": "0x00",
                "balance": "0x0de0b6b3a7640000",
                "code": "0x",
                "storage": {}
            }
        },
        "transaction": {
            "nonce": "0x00",
            "gasPrice": "0x0a",
            "gasLimit": [
                "0x0f4240"
            ],
            "to": "0xc168c5b31b4851b6c7874fe8be71d93c55d32fa2",
            "value": [
                "0x0186a0"
            ],
            "data": [
                "0x"
            ],
            "sender": "0x10c3c0ecc5765ef391383d2fb816efa61033a031",
            "secretKey": "0xa3825a62ded8aee096eb754bc168c5b31b4851b6c7874fe8be71d93c55d32ea2"
        },
        "post": {
            "Cancun": [
                {
                    "hash": "0x1fbcb23ca3b50c979405c56b25123cacae64b6fbc3915f0bf3dce248b36dc77f",
                    "logs": "0x1dcc4de8dec75d7aab85b567b6ccd41ad312451b948a7413f0a142fd40d49347",
                    "txbytes": "0xf863800a830f424094c168c5b31b4851b6c7874fe8be71d93c55d32fa2830186a08025a0dbc7d8b824e3741d678483cb1b964accfea09db94ebd41cfcf178f55b06b0ab2a02535e71f109f5092dcabf3969b7db140c76e33db88ee1f4100e0eaaa1172f1f4",
                    "indexes": {
                        "data": 0,
                        "gas": 0,
                        "value": 0
                    },
                    "state": {
                        "0xc168c5b31b4851b6c7874fe8be71d93c55d32ea2": {
                            "nonce": "0x00",
                            "balance": "0x0de0b6b3a7640000",
                            "code": "0x6001600101600055",
                            "storage": {
                                "0x00": "0x02"
                            }
                        },
                        "0xc168c5b31b4851b6c7874fe8be71d93c55d32fa2": {
                            "nonce": "0x00",
                            "balance": "0x0de0b6b3a76586a0",
                            "code": "0x7f5e20a0453cecd065ea59c37ac63e079ee08998b6045136a8ce6635c7912ec0b66000526020600060006000600073c168c5b31b4851b6c7874fe8be71d93c55d32ea2620249f0f15060005160005500",
                            "storage": {
                                "0x00": "0x5e20a0453cecd065ea59c37ac63e079ee08998b6045136a8ce6635c7912ec0b6"
                            }
                        },
                        "0x10c3c0ecc5765ef391383d2fb816efa61033a031": {
                            "nonce": "0x01",
                            "balance": "0x0de0b6b3a7581ec0",
                            "code": "0x",
                            "storage": {}
                        }
                    }
                }
            ]
        },
        "config": {
            "blobSchedule": {
                "Cancun": {
                    "target": "0x03",
                    "max": "0x06",
                    "baseFeeUpdateFraction": "0x32f0ed"
                }
            },
            "chainid": "0x01"
        },
        "_info": {
            "hash": "0x61a11a4ba2cbca72fa799d6a99f89a47be2caa17a257047a7c5cd55a08a4132c",
            "comment": "`execution-specs` generated test",
            "filling-transition-tool": "2.18.0rc6",
            "description": "No description available - add a docstring to the python test class or function.",
            "url": "",
            "fixture-format": "state_test"
        }
    },
    "tests/static/state_tests/stCallCreateCallCodeTest/callOutput3Filler.json::callOutput3[fork_Osaka-state_test-]": {
        "env": {
            "currentCoinbase": "0x2adc25665018aa1fe0e6bc666dac8fc2697ff9ba",
            "currentGasLimit": "0x0f4240",
            "currentNumber": "0x01",
            "currentTimestamp": "0x03e8",
            "currentRandom": "0x0000000000000000000000000000000000000000000000000000000000020000",
            "currentDifficulty": "0x00",
            "currentBaseFee": "0x0a",
            "currentExcessBlobGas": "0x00"
        },
        "pre": {
            "0xc168c5b31b4851b6c7874fe8be71d93c55d32ea2": {
                "nonce": "0x00",
                "balance": "0x0de0b6b3a7640000",
                "code": "0x6001600101600055",
                "storage": {}
            },
            "0xc168c5b31b4851b6c7874fe8be71d93c55d32fa2": {
                "nonce": "0x00",
                "balance": "0x0de0b6b3a7640000",
                "code": "0x7f5e20a0453cecd065ea59c37ac63e079ee08998b6045136a8ce6635c7912ec0b66000526020600060006000600073c168c5b31b4851b6c7874fe8be71d93c55d32ea2620249f0f15060005160005500",
                "storage": {}
            },
            "0x10c3c0ecc5765ef391383d2fb816efa61033a031": {
                "nonce": "0x00",
                "balance": "0x0de0b6b3a7640000",
                "code": "0x",
                "storage": {}
            }
        },
        "transaction": {
            "nonce": "0x00",
            "gasPrice": "0x0a",
            "gasLimit": [
                "0x0f4240"
            ],
            "to": "0xc168c5b31b4851b6c7874fe8be71d93c55d32fa2",
            "value": [
                "0x0186a0"
            ],
            "data": [
                "0x"
            ],
            "sender": "0x10c3c0ecc5765ef391383d2fb816efa61033a031",
            "secretKey": "0xa3825a62ded8aee096eb754bc168c5b31b4851b6c7874fe8be71d93c55d32ea2"
        },
        "post": {
            "Osaka": [
                {
                    "hash": "0x1fbcb23ca3b50c979405c56b25123cacae64b6fbc3915f0bf3dce248b36dc77f",
                    "logs": "0x1dcc4de8dec75d7aab85b567b6ccd41ad312451b948a7413f0a142fd40d49347",
                    "txbytes": "0xf863800a830f424094c168c5b31b4851b6c7874fe8be71d93c55d32fa2830186a08025a0dbc7d8b824e3741d678483cb1b964accfea09db94ebd41cfcf178f55b06b0ab2a02535e71f109f5092dcabf3969b7db140c76e33db88ee1f4100e0eaaa1172f1f4",
                    "indexes": {
                        "data": 0,
                        "gas": 0,
                        "value": 0
                    },
                    "state": {
                        "0xc168c5b31b4851b6c7874fe8be71d93c55d32ea2": {
                            "nonce": "0x00",
                            "balance": "0x0de0b6b3a7640000",
                            "code": "0x6001600101600055",
                            "storage": {
                                "0x00": "0x02"
                            }
                        },
                        "0xc168c5b31b4851b6c7874fe8be71d93c55d32fa2": {
                            "nonce": "0x00",
                            "balance": "0x0de0b6b3a76586a0",
                            "code": "0x7f5e20a0453cecd065ea59c37ac63e079ee08998b6045136a8ce6635c7912ec0b66000526020600060006000600073c168c5b31b4851b6c7874fe8be71d93c55d32ea2620249f0f15060005160005500",
                            "storage": {
                                "0x00": "0x5e20a0453cecd065ea59c37ac63e079ee08998b6045136a8ce6635c7912ec0b6"
                            }
                        },
                        "0x10c3c0ecc5765ef391383d2fb816efa61033a031": {
                            "nonce": "0x01",
                            "balance": "0x0de0b6b3a7581ec0",
                            "code": "0x",
                            "storage": {}
                        }
                    }
                }
            ]
        },
        "config": {
            "blobSchedule": {
                "Cancun": {
                    "target": "0x03",
                    "max": "0x06",
                    "baseFeeUpdateFraction": "0x32f0ed"
                },
                "Prague": {
                    "target": "0x06",
                    "max": "0x09",
                    "baseFeeUpdateFraction": "0x4c6964"
                },
                "Osaka": {
                    "target": "0x06",
                    "max": "0x09",
                    "baseFeeUpdateFraction": "0x4c6964"
                }
            },
            "chainid": "0x01"
        },
        "_info": {
            "hash": "0x72ed06953d9f4f45fc621d9c0610745cd0d1972ed7020805ff9a0e68de0cd27f",
            "comment": "`execution-specs` generated test",
            "filling-transition-tool": "2.18.0rc6",
            "description": "No description available - add a docstring to the python test class or function.",
            "url": "",
            "fixture-format": "state_test"
        }
    },
    "tests/static/state_tests/stCallCreateCallCodeTest/callOutput3Filler.json::callOutput3[fork_Prague-state_test-]": {
        "env": {
            "currentCoinbase": "0x2adc25665018aa1fe0e6bc666dac8fc2697ff9ba",
            "currentGasLimit": "0x0f4240",
            "currentNumber": "0x01",
            "currentTimestamp": "0x03e8",
            "currentRandom": "0x0000000000000000000000000000000000000000000000000000000000020000",
            "currentDifficulty": "0x00",
            "currentBaseFee": "0x0a",
            "currentExcessBlobGas": "0x00"
        },
        "pre": {
            "0xc168c5b31b4851b6c7874fe8be71d93c55d32ea2": {
                "nonce": "0x00",
                "balance": "0x0de0b6b3a7640000",
                "code": "0x6001600101600055",
                "storage": {}
            },
            "0xc168c5b31b4851b6c7874fe8be71d93c55d32fa2": {
                "nonce": "0x00",
                "balance": "0x0de0b6b3a7640000",
                "code": "0x7f5e20a0453cecd065ea59c37ac63e079ee08998b6045136a8ce6635c7912ec0b66000526020600060006000600073c168c5b31b4851b6c7874fe8be71d93c55d32ea2620249f0f15060005160005500",
                "storage": {}
            },
            "0x10c3c0ecc5765ef391383d2fb816efa61033a031": {
                "nonce": "0x00",
                "balance": "0x0de0b6b3a7640000",
                "code": "0x",
                "storage": {}
            }
        },
        "transaction": {
            "nonce": "0x00",
            "gasPrice": "0x0a",
            "gasLimit": [
                "0x0f4240"
            ],
            "to": "0xc168c5b31b4851b6c7874fe8be71d93c55d32fa2",
            "value": [
                "0x0186a0"
            ],
            "data": [
                "0x"
            ],
            "sender": "0x10c3c0ecc5765ef391383d2fb816efa61033a031",
            "secretKey": "0xa3825a62ded8aee096eb754bc168c5b31b4851b6c7874fe8be71d93c55d32ea2"
        },
        "post": {
            "Prague": [
                {
                    "hash": "0x1fbcb23ca3b50c979405c56b25123cacae64b6fbc3915f0bf3dce248b36dc77f",
                    "logs": "0x1dcc4de8dec75d7aab85b567b6ccd41ad312451b948a7413f0a142fd40d49347",
                    "txbytes": "0xf863800a830f424094c168c5b31b4851b6c7874fe8be71d93c55d32fa2830186a08025a0dbc7d8b824e3741d678483cb1b964accfea09db94ebd41cfcf178f55b06b0ab2a02535e71f109f5092dcabf3969b7db140c76e33db88ee1f4100e0eaaa1172f1f4",
                    "indexes": {
                        "data": 0,
                        "gas": 0,
                        "value": 0
                    },
                    "state": {
                        "0xc168c5b31b4851b6c7874fe8be71d93c55d32ea2": {
                            "nonce": "0x00",
                            "balance": "0x0de0b6b3a7640000",
                            "code": "0x6001600101600055",
                            "storage": {
                                "0x00": "0x02"
                            }
                        },
                        "0xc168c5b31b4851b6c7874fe8be71d93c55d32fa2": {
                            "nonce": "0x00",
                            "balance": "0x0de0b6b3a76586a0",
                            "code": "0x7f5e20a0453cecd065ea59c37ac63e079ee08998b6045136a8ce6635c7912ec0b66000526020600060006000600073c168c5b31b4851b6c7874fe8be71d93c55d32ea2620249f0f15060005160005500",
                            "storage": {
                                "0x00": "0x5e20a0453cecd065ea59c37ac63e079ee08998b6045136a8ce6635c7912ec0b6"
                            }
                        },
                        "0x10c3c0ecc5765ef391383d2fb816efa61033a031": {
                            "nonce": "0x01",
                            "balance": "0x0de0b6b3a7581ec0",
                            "code": "0x",
                            "storage": {}
                        }
                    }
                }
            ]
        },
        "config": {
            "blobSchedule": {
                "Cancun": {
                    "target": "0x03",
                    "max": "0x06",
                    "baseFeeUpdateFraction": "0x32f0ed"
                },
                "Prague": {
                    "target": "0x06",
                    "max": "0x09",
                    "baseFeeUpdateFraction": "0x4c6964"
                }
            },
            "chainid": "0x01"
        },
        "_info": {
            "hash": "0x6cd792d91450ef525f518149170089fef46adfbe043e20ac6960ec1d72aa5749",
            "comment": "`execution-specs` generated test",
            "filling-transition-tool": "2.18.0rc6",
            "description": "No description available - add a docstring to the python test class or function.",
            "url": "",
            "fixture-format": "state_test"
        }
    }
}