{
    "tests/static/state_tests/stCallCreateCallCodeTest/createNameRegistratorendowmentTooHighFiller.json::createNameRegistratorendowmentTooHigh[fork_Cancun-state_test-]": {
        "env": {
            "currentCoinbase": "0x2adc25665018aa1fe0e6bc666dac8fc2697ff9ba",
            "currentGasLimit": "0x0f4240",
            "currentNumber": "0x01",
            "currentTimestamp": "0x03e8",
            "currentRandom": "0x0000000000000000000000000000000000000000000000000000000000020000",
            "currentDifficulty": "0x00",
            "currentBaseFee": "0x0a",
            "currentExcessBlobGas": "0x00"
        },
        "pre": {
            "0x712200cc64fb2eb4360b6972c7f8a6787fbd4d32": {
                "nonce": "0x00",
                "balance": "0x0de0b6b3a7640000",
                "code": "0x",
                "storage": {}
            },
            "0xbf847710ae98cbf0bcf01e8192edb84c9986ba48": {
                "nonce": "0x00",
                "balance": "0x0de0b6b3a7640000",
                "code": "0x7c601080600c6000396000f3006000355415600957005b60203560003555600052601d6003670de0b6b3a7640001f060005500",
                "storage": {}
            }
        },
        "transaction": {
            "nonce": "0x00",
            "gasPrice": "0x0a",
            "gasLimit": [
                "0x0493e0"
            ],
            "to": "0xbf847710ae98cbf0bcf01e8192edb84c9986ba48",
            "value": [
                "0x00"
            ],
            "data": [
                "0x"
            ],
            "sender": "0x712200cc64fb2eb4360b6972c7f8a6787fbd4d32",
            "secretKey": "0xc9db07060e4ef2d92e91a246bf847710ae98cbf0bcf01e8192edb84c9986ba48"
        },
        "post": {
            "Cancun": [
                {
                    "hash": "0x52f9efad5a89d3b70788381cf017ee2e0b4db1573cefd6ff35a2dcca0de49af7",
                    "logs": "0x1dcc4de8dec75d7aab85b567b6ccd41ad312451b948a7413f0a142fd40d49347",
                    "txbytes": "0xf860800a830493e094bf847710ae98cbf0bcf01e8192edb84c9986ba48808025a0af2a1bddfa831d0f87ec4c30d661c984baa7c4a250b4a5633f10dca4f076ba76a0431c9325fb471aa5323d1e5efeefbacc6d031577a72b18aeda3c7823211ecb1b",
                    "indexes": {
                        "data": 0,
                        "gas": 0,
                        "value": 0
                    },
                    "state": {
                        "0x712200cc64fb2eb4360b6972c7f8a6787fbd4d32": {
                            "nonce": "0x01",
                            "balance": "0x0de0b6b3a75b92bc",
                            "code": "0x",
                            "storage": {}
                        },
                        "0xbf847710ae98cbf0bcf01e8192edb84c9986ba48": {
                            "nonce": "0x00",
                            "balance": "0x0de0b6b3a7640000",
                            "code": "0x7c601080600c6000396000f3006000355415600957005b60203560003555600052601d6003670de0b6b3a7640001f060005500",
                            "storage": {}
                        }
                    }
                }
            ]
        },
        "config": {
            "blobSchedule": {
                "Cancun": {
                    "target": "0x03",
                    "max": "0x06",
                    "baseFeeUpdateFraction": "0x32f0ed"
                }
            },
            "chainid": "0x01"
        },
        "_info": {
            "hash": "0x930bcecbb7fe8fb5e447d4b135084309074737ac60702e7c535c57de3fcab9f8",
            "comment": "`execution-spec-tests` generated test",
            "filling-transition-tool": "ethereum-spec-evm-resolver 0.0.5",
            "description": "No description available - add a docstring to the python test class or function.",
            "url": "",
            "fixture-format": "state_test",
            "eels-resolution": {
                "git-url": "https://github.com/ethereum/execution-specs.git",
                "branch": "forks/bpos",
                "commit": "7aacb2c54111391af5e98c505d5010b5698a770f"
            }
        }
    },
    "tests/static/state_tests/stCallCreateCallCodeTest/createNameRegistratorendowmentTooHighFiller.json::createNameRegistratorendowmentTooHigh[fork_Osaka-state_test-]": {
        "env": {
            "currentCoinbase": "0x2adc25665018aa1fe0e6bc666dac8fc2697ff9ba",
            "currentGasLimit": "0x0f4240",
            "currentNumber": "0x01",
            "currentTimestamp": "0x03e8",
            "currentRandom": "0x0000000000000000000000000000000000000000000000000000000000020000",
            "currentDifficulty": "0x00",
            "currentBaseFee": "0x0a",
            "currentExcessBlobGas": "0x00"
        },
        "pre": {
            "0x712200cc64fb2eb4360b6972c7f8a6787fbd4d32": {
                "nonce": "0x00",
                "balance": "0x0de0b6b3a7640000",
                "code": "0x",
                "storage": {}
            },
            "0xbf847710ae98cbf0bcf01e8192edb84c9986ba48": {
                "nonce": "0x00",
                "balance": "0x0de0b6b3a7640000",
                "code": "0x7c601080600c6000396000f3006000355415600957005b60203560003555600052601d6003670de0b6b3a7640001f060005500",
                "storage": {}
            }
        },
        "transaction": {
            "nonce": "0x00",
            "gasPrice": "0x0a",
            "gasLimit": [
                "0x0493e0"
            ],
            "to": "0xbf847710ae98cbf0bcf01e8192edb84c9986ba48",
            "value": [
                "0x00"
            ],
            "data": [
                "0x"
            ],
            "sender": "0x712200cc64fb2eb4360b6972c7f8a6787fbd4d32",
            "secretKey": "0xc9db07060e4ef2d92e91a246bf847710ae98cbf0bcf01e8192edb84c9986ba48"
        },
        "post": {
            "Osaka": [
                {
                    "hash": "0x52f9efad5a89d3b70788381cf017ee2e0b4db1573cefd6ff35a2dcca0de49af7",
                    "logs": "0x1dcc4de8dec75d7aab85b567b6ccd41ad312451b948a7413f0a142fd40d49347",
                    "txbytes": "0xf860800a830493e094bf847710ae98cbf0bcf01e8192edb84c9986ba48808025a0af2a1bddfa831d0f87ec4c30d661c984baa7c4a250b4a5633f10dca4f076ba76a0431c9325fb471aa5323d1e5efeefbacc6d031577a72b18aeda3c7823211ecb1b",
                    "indexes": {
                        "data": 0,
                        "gas": 0,
                        "value": 0
                    },
                    "state": {
                        "0x712200cc64fb2eb4360b6972c7f8a6787fbd4d32": {
                            "nonce": "0x01",
                            "balance": "0x0de0b6b3a75b92bc",
                            "code": "0x",
                            "storage": {}
                        },
                        "0xbf847710ae98cbf0bcf01e8192edb84c9986ba48": {
                            "nonce": "0x00",
                            "balance": "0x0de0b6b3a7640000",
                            "code": "0x7c601080600c6000396000f3006000355415600957005b60203560003555600052601d6003670de0b6b3a7640001f060005500",
                            "storage": {}
                        }
                    }
                }
            ]
        },
        "config": {
            "blobSchedule": {
                "Cancun": {
                    "target": "0x03",
                    "max": "0x06",
                    "baseFeeUpdateFraction": "0x32f0ed"
                },
                "Prague": {
                    "target": "0x06",
                    "max": "0x09",
                    "baseFeeUpdateFraction": "0x4c6964"
                },
                "Osaka": {
                    "target": "0x06",
                    "max": "0x09",
                    "baseFeeUpdateFraction": "0x4c6964"
                }
            },
            "chainid": "0x01"
        },
        "_info": {
            "hash": "0xc59616a1d71e9db410ec8a9db0b5cc56350ddbf450ef2a65bbf1f8ade82cfdbc",
            "comment": "`execution-spec-tests` generated test",
            "filling-transition-tool": "ethereum-spec-evm-resolver 0.0.5",
            "description": "No description available - add a docstring to the python test class or function.",
            "url": "",
            "fixture-format": "state_test",
            "eels-resolution": {
                "git-url": "https://github.com/ethereum/execution-specs.git",
                "branch": "forks/bpos",
                "commit": "7aacb2c54111391af5e98c505d5010b5698a770f"
            }
        }
    },
    "tests/static/state_tests/stCallCreateCallCodeTest/createNameRegistratorendowmentTooHighFiller.json::createNameRegistratorendowmentTooHigh[fork_Prague-state_test-]": {
        "env": {
            "currentCoinbase": "0x2adc25665018aa1fe0e6bc666dac8fc2697ff9ba",
            "currentGasLimit": "0x0f4240",
            "currentNumber": "0x01",
            "currentTimestamp": "0x03e8",
            "currentRandom": "0x0000000000000000000000000000000000000000000000000000000000020000",
            "currentDifficulty": "0x00",
            "currentBaseFee": "0x0a",
            "currentExcessBlobGas": "0x00"
        },
        "pre": {
            "0x712200cc64fb2eb4360b6972c7f8a6787fbd4d32": {
                "nonce": "0x00",
                "balance": "0x0de0b6b3a7640000",
                "code": "0x",
                "storage": {}
            },
            "0xbf847710ae98cbf0bcf01e8192edb84c9986ba48": {
                "nonce": "0x00",
                "balance": "0x0de0b6b3a7640000",
                "code": "0x7c601080600c6000396000f3006000355415600957005b60203560003555600052601d6003670de0b6b3a7640001f060005500",
                "storage": {}
            }
        },
        "transaction": {
            "nonce": "0x00",
            "gasPrice": "0x0a",
            "gasLimit": [
                "0x0493e0"
            ],
            "to": "0xbf847710ae98cbf0bcf01e8192edb84c9986ba48",
            "value": [
                "0x00"
            ],
            "data": [
                "0x"
            ],
            "sender": "0x712200cc64fb2eb4360b6972c7f8a6787fbd4d32",
            "secretKey": "0xc9db07060e4ef2d92e91a246bf847710ae98cbf0bcf01e8192edb84c9986ba48"
        },
        "post": {
            "Prague": [
                {
                    "hash": "0x52f9efad5a89d3b70788381cf017ee2e0b4db1573cefd6ff35a2dcca0de49af7",
                    "logs": "0x1dcc4de8dec75d7aab85b567b6ccd41ad312451b948a7413f0a142fd40d49347",
                    "txbytes": "0xf860800a830493e094bf847710ae98cbf0bcf01e8192edb84c9986ba48808025a0af2a1bddfa831d0f87ec4c30d661c984baa7c4a250b4a5633f10dca4f076ba76a0431c9325fb471aa5323d1e5efeefbacc6d031577a72b18aeda3c7823211ecb1b",
                    "indexes": {
                        "data": 0,
                        "gas": 0,
                        "value": 0
                    },
                    "state": {
                        "0x712200cc64fb2eb4360b6972c7f8a6787fbd4d32": {
                            "nonce": "0x01",
                            "balance": "0x0de0b6b3a75b92bc",
                            "code": "0x",
                            "storage": {}
                        },
                        "0xbf847710ae98cbf0bcf01e8192edb84c9986ba48": {
                            "nonce": "0x00",
                            "balance": "0x0de0b6b3a7640000",
                            "code": "0x7c601080600c6000396000f3006000355415600957005b60203560003555600052601d6003670de0b6b3a7640001f060005500",
                            "storage": {}
                        }
                    }
                }
            ]
        },
        "config": {
            "blobSchedule": {
                "Cancun": {
                    "target": "0x03",
                    "max": "0x06",
                    "baseFeeUpdateFraction": "0x32f0ed"
                },
                "Prague": {
                    "target": "0x06",
                    "max": "0x09",
                    "baseFeeUpdateFraction": "0x4c6964"
                }
            },
            "chainid": "0x01"
        },
        "_info": {
            "hash": "0xf8cf45a0cc0de41c9b8bb00326946f0cabd1f14491bee164e4abde91c71dca25",
            "comment": "`execution-spec-tests` generated test",
            "filling-transition-tool": "ethereum-spec-evm-resolver 0.0.5",
            "description": "No description available - add a docstring to the python test class or function.",
            "url": "",
            "fixture-format": "state_test",
            "eels-resolution": {
                "git-url": "https://github.com/ethereum/execution-specs.git",
                "branch": "forks/bpos",
                "commit": "7aacb2c54111391af5e98c505d5010b5698a770f"
            }
        }
    }
}