{
    "tests/ported_static/stStaticCall/test_static_ab_acalls_suicide0.py::test_static_ab_acalls_suicide0[fork_Cancun-blockchain_test_from_state_test-d0]": {
        "network": "Cancun",
        "genesisBlockHeader": {
            "parentHash": "0x0000000000000000000000000000000000000000000000000000000000000000",
            "uncleHash": "0x1dcc4de8dec75d7aab85b567b6ccd41ad312451b948a7413f0a142fd40d49347",
            "coinbase": "0x0000000000000000000000000000000000000000",
            "stateRoot": "0x0f23b5b275a6801d059524850bdf8b982b762bcaac3cb57dbe2ca9b620095a64",
            "transactionsTrie": "0x56e81f171bcc55a6ff8345e692c0f86e5b48e01b996cadc001622fb5e363b421",
            "receiptTrie": "0x56e81f171bcc55a6ff8345e692c0f86e5b48e01b996cadc001622fb5e363b421",
            "bloom": "0x00000000000000000000000000000000000000000000000000000000000000000000000000000000000000000000000000000000000000000000000000000000000000000000000000000000000000000000000000000000000000000000000000000000000000000000000000000000000000000000000000000000000000000000000000000000000000000000000000000000000000000000000000000000000000000000000000000000000000000000000000000000000000000000000000000000000000000000000000000000000000000000000000000000000000000000000000000000000000000000000000000000000000000000000000000000",
            "difficulty": "0x00",
            "number": "0x00",
            "gasLimit": "0x05f5e100",
            "gasUsed": "0x00",
            "timestamp": "0x00",
            "extraData": "0x00",
            "mixHash": "0x0000000000000000000000000000000000000000000000000000000000000000",
            "nonce": "0x0000000000000000",
            "baseFeePerGas": "0x0b",
            "withdrawalsRoot": "0x56e81f171bcc55a6ff8345e692c0f86e5b48e01b996cadc001622fb5e363b421",
            "blobGasUsed": "0x00",
            "excessBlobGas": "0x00",
            "parentBeaconBlockRoot": "0x0000000000000000000000000000000000000000000000000000000000000000",
            "hash": "0x9f206b5070e089da2811c8a465337081f01ca0823cf255ef0bb108b667661abc"
        },
        "pre": {
            "0x000f3df6d732807ef1319fb7b8bb8522d0beac02": {
                "nonce": "0x01",
                "balance": "0x00",
                "code": "0x3373fffffffffffffffffffffffffffffffffffffffe14604d57602036146024575f5ffd5b5f35801560495762001fff810690815414603c575f5ffd5b62001fff01545f5260205ff35b5f5ffd5b62001fff42064281555f359062001fff015500",
                "storage": {}
            },
            "0xd66f224cbd2fabb21b17bb53c56118f32f62ebd6": {
                "nonce": "0x00",
                "balance": "0x0de0b6b3a7640000",
                "code": "0x",
                "storage": {}
            },
            "0xc0e4183389eb57f779a986d8c878f89b9401dc8e": {
                "nonce": "0x00",
                "balance": "0x00",
                "code": "0x6000600060006000346000355af1600055600160015500",
                "storage": {}
            },
            "0x195198c66c5e31767d41365ff8003c5fe4387110": {
                "nonce": "0x00",
                "balance": "0x0de0b6b3a7640000",
                "code": "0x600060006000600073c20b4779ed25a1ccf1848f1cbcc84433fcb9d083620186a0fa585573c20b4779ed25a1ccf1848f1cbcc84433fcb9d083ff00",
                "storage": {}
            },
            "0xc20b4779ed25a1ccf1848f1cbcc84433fcb9d083": {
                "nonce": "0x00",
                "balance": "0x17",
                "code": "0x600060006000600073195198c66c5e31767d41365ff8003c5fe438711061c350fa600101585500",
                "storage": {}
            },
            "0x15631f76b02193e5716cbd4b4d696f2f7a39f0a4": {
                "nonce": "0x00",
                "balance": "0x0de0b6b3a7640000",
                "code": "0x600060006000600073644ac2b24a9316ed4c55001e5eda02d77f729c7b620186a0fa585273c20b4779ed25a1ccf1848f1cbcc84433fcb9d083ff00",
                "storage": {}
            },
            "0x644ac2b24a9316ed4c55001e5eda02d77f729c7b": {
                "nonce": "0x00",
                "balance": "0x17",
                "code": "0x60006000600060007315631f76b02193e5716cbd4b4d696f2f7a39f0a461c350fa600101585200",
                "storage": {}
            }
        },
        "postState": {
            "0x000f3df6d732807ef1319fb7b8bb8522d0beac02": {
                "nonce": "0x01",
                "balance": "0x00",
                "code": "0x3373fffffffffffffffffffffffffffffffffffffffe14604d57602036146024575f5ffd5b5f35801560495762001fff810690815414603c575f5ffd5b62001fff01545f5260205ff35b5f5ffd5b62001fff42064281555f359062001fff015500",
                "storage": {
                    "0x03e8": "0x03e8"
                }
            },
            "0xd66f224cbd2fabb21b17bb53c56118f32f62ebd6": {
                "nonce": "0x01",
                "balance": "0x0de0b6b3a7464a24",
                "code": "0x",
                "storage": {}
            },
            "0xc0e4183389eb57f779a986d8c878f89b9401dc8e": {
                "nonce": "0x00",
                "balance": "0x00",
                "code": "0x6000600060006000346000355af1600055600160015500",
                "storage": {
                    "0x00": "0x01",
                    "0x01": "0x01"
                }
            },
            "0x195198c66c5e31767d41365ff8003c5fe4387110": {
                "nonce": "0x00",
                "balance": "0x00",
                "code": "0x600060006000600073c20b4779ed25a1ccf1848f1cbcc84433fcb9d083620186a0fa585573c20b4779ed25a1ccf1848f1cbcc84433fcb9d083ff00",
                "storage": {}
            },
            "0xc20b4779ed25a1ccf1848f1cbcc84433fcb9d083": {
                "nonce": "0x00",
                "balance": "0x0de0b6b3a76586b7",
                "code": "0x600060006000600073195198c66c5e31767d41365ff8003c5fe438711061c350fa600101585500",
                "storage": {}
            },
            "0x15631f76b02193e5716cbd4b4d696f2f7a39f0a4": {
                "nonce": "0x00",
                "balance": "0x0de0b6b3a7640000",
                "code": "0x600060006000600073644ac2b24a9316ed4c55001e5eda02d77f729c7b620186a0fa585273c20b4779ed25a1ccf1848f1cbcc84433fcb9d083ff00",
                "storage": {}
            },
            "0x644ac2b24a9316ed4c55001e5eda02d77f729c7b": {
                "nonce": "0x00",
                "balance": "0x17",
                "code": "0x60006000600060007315631f76b02193e5716cbd4b4d696f2f7a39f0a461c350fa600101585200",
                "storage": {}
            }
        },
        "lastblockhash": "0xe9a9005c03b3ba8726ba96c4b934f819cd0cb454bd2aead11748a02e82fa5f3e",
        "config": {
            "network": "Cancun",
            "chainid": "0x01",
            "blobSchedule": {
                "Cancun": {
                    "target": "0x03",
                    "max": "0x06",
                    "baseFeeUpdateFraction": "0x32f0ed"
                }
            }
        },
        "genesisRLP": "0xf9023cf90236a00000000000000000000000000000000000000000000000000000000000000000a01dcc4de8dec75d7aab85b567b6ccd41ad312451b948a7413f0a142fd40d49347940000000000000000000000000000000000000000a00f23b5b275a6801d059524850bdf8b982b762bcaac3cb57dbe2ca9b620095a64a056e81f171bcc55a6ff8345e692c0f86e5b48e01b996cadc001622fb5e363b421a056e81f171bcc55a6ff8345e692c0f86e5b48e01b996cadc001622fb5e363b421b901000000000000000000000000000000000000000000000000000000000000000000000000000000000000000000000000000000000000000000000000000000000000000000000000000000000000000000000000000000000000000000000000000000000000000000000000000000000000000000000000000000000000000000000000000000000000000000000000000000000000000000000000000000000000000000000000000000000000000000000000000000000000000000000000000000000000000000000000000000000000000000000000000000000000000000000000000000000000000000000000000000000000000000000000000000000080808405f5e100808000a000000000000000000000000000000000000000000000000000000000000000008800000000000000000ba056e81f171bcc55a6ff8345e692c0f86e5b48e01b996cadc001622fb5e363b4218080a00000000000000000000000000000000000000000000000000000000000000000c0c0c0",
        "blocks": [
            {
                "blockHeader": {
                    "parentHash": "0x9f206b5070e089da2811c8a465337081f01ca0823cf255ef0bb108b667661abc",
                    "uncleHash": "0x1dcc4de8dec75d7aab85b567b6ccd41ad312451b948a7413f0a142fd40d49347",
                    "coinbase": "0x2adc25665018aa1fe0e6bc666dac8fc2697ff9ba",
                    "stateRoot": "0x07e74f4e0a087cbed73332627ef84e2a87bb1c67d756f144178252663fed2fcd",
                    "transactionsTrie": "0x07a826f829540e288406c5d43b552af8d8f8b1ef0aae6e99c9874258ad5fcf34",
                    "receiptTrie": "0x115b0632e66cc70d16c1e6497caede53412f0e641dc34fc350789ddbae1578a6",
                    "bloom": "0x00000000000000000000000000000000000000000000000000000000000000000000000000000000000000000000000000000000000000000000000000000000000000000000000000000000000000000000000000000000000000000000000000000000000000000000000000000000000000000000000000000000000000000000000000000000000000000000000000000000000000000000000000000000000000000000000000000000000000000000000000000000000000000000000000000000000000000000000000000000000000000000000000000000000000000000000000000000000000000000000000000000000000000000000000000000",
                    "difficulty": "0x00",
                    "number": "0x01",
                    "gasLimit": "0x05f5e100",
                    "gasUsed": "0x02d186",
                    "timestamp": "0x03e8",
                    "extraData": "0x00",
                    "mixHash": "0x0000000000000000000000000000000000000000000000000000000000020000",
                    "nonce": "0x0000000000000000",
                    "baseFeePerGas": "0x0a",
                    "withdrawalsRoot": "0x56e81f171bcc55a6ff8345e692c0f86e5b48e01b996cadc001622fb5e363b421",
                    "blobGasUsed": "0x00",
                    "excessBlobGas": "0x00",
                    "parentBeaconBlockRoot": "0x0000000000000000000000000000000000000000000000000000000000000000",
                    "hash": "0xe9a9005c03b3ba8726ba96c4b934f819cd0cb454bd2aead11748a02e82fa5f3e"
                },
                "transactions": [
                    {
                        "type": "0x00",
                        "chainId": "0x01",
                        "nonce": "0x00",
                        "gasPrice": "0x0a",
                        "gasLimit": "0x989680",
                        "to": "0xc0e4183389eb57f779a986d8c878f89b9401dc8e",
                        "value": "0x0186a0",
                        "data": "0x000000000000000000000000195198c66c5e31767d41365ff8003c5fe4387110",
                        "v": "0x26",
                        "r": "0xfd49dcd5f60e2c8e7bc47638627f320955a7ebacf44ac14014f80b6b5295d639",
                        "s": "0x0bdccb28c57350ff18d50f7730f532b336f947eaab34e109c08e6b93c709981c",
                        "sender": "0xd66f224cbd2fabb21b17bb53c56118f32f62ebd6"
                    }
                ],
                "uncleHeaders": [],
                "withdrawals": [],
                "receipts": [
                    {
                        "transactionHash": "0x06de14ba1b7398261c4af14a5a039bbb998a22f91659844d930f750651b54d60",
                        "type": "0x00",
                        "cumulativeGasUsed": "0x02d186",
                        "bloom": "0x00000000000000000000000000000000000000000000000000000000000000000000000000000000000000000000000000000000000000000000000000000000000000000000000000000000000000000000000000000000000000000000000000000000000000000000000000000000000000000000000000000000000000000000000000000000000000000000000000000000000000000000000000000000000000000000000000000000000000000000000000000000000000000000000000000000000000000000000000000000000000000000000000000000000000000000000000000000000000000000000000000000000000000000000000000000",
                        "logs": [],
                        "status": true,
                        "rlp": "0xf90109018302d186b9010000000000000000000000000000000000000000000000000000000000000000000000000000000000000000000000000000000000000000000000000000000000000000000000000000000000000000000000000000000000000000000000000000000000000000000000000000000000000000000000000000000000000000000000000000000000000000000000000000000000000000000000000000000000000000000000000000000000000000000000000000000000000000000000000000000000000000000000000000000000000000000000000000000000000000000000000000000000000000000000000000000000000000000000000000000000c0"
                    }
                ],
                "rlp": "0xf902c7f9023ba09f206b5070e089da2811c8a465337081f01ca0823cf255ef0bb108b667661abca01dcc4de8dec75d7aab85b567b6ccd41ad312451b948a7413f0a142fd40d49347942adc25665018aa1fe0e6bc666dac8fc2697ff9baa007e74f4e0a087cbed73332627ef84e2a87bb1c67d756f144178252663fed2fcda007a826f829540e288406c5d43b552af8d8f8b1ef0aae6e99c9874258ad5fcf34a0115b0632e66cc70d16c1e6497caede53412f0e641dc34fc350789ddbae1578a6b901000000000000000000000000000000000000000000000000000000000000000000000000000000000000000000000000000000000000000000000000000000000000000000000000000000000000000000000000000000000000000000000000000000000000000000000000000000000000000000000000000000000000000000000000000000000000000000000000000000000000000000000000000000000000000000000000000000000000000000000000000000000000000000000000000000000000000000000000000000000000000000000000000000000000000000000000000000000000000000000000000000000000000000000000000000000080018405f5e1008302d1868203e800a000000000000000000000000000000000000000000000000000000000000200008800000000000000000aa056e81f171bcc55a6ff8345e692c0f86e5b48e01b996cadc001622fb5e363b4218080a00000000000000000000000000000000000000000000000000000000000000000f885f883800a8398968094c0e4183389eb57f779a986d8c878f89b9401dc8e830186a0a0000000000000000000000000195198c66c5e31767d41365ff8003c5fe438711026a0fd49dcd5f60e2c8e7bc47638627f320955a7ebacf44ac14014f80b6b5295d639a00bdccb28c57350ff18d50f7730f532b336f947eaab34e109c08e6b93c709981cc0c0",
                "blocknumber": "1"
            }
        ],
        "sealEngine": "NoProof",
        "_info": {
            "hash": "0x5e5c45c05947ddcbbf2f3bc4e5a253a0ac8dac1727b7a06cca6c080811f87dc6",
            "fixture-format": "blockchain_test",
            "comment": "`execution-specs` generated test",
            "filling-transition-tool": "2.19.0",
            "description": "Test_static_ab_acalls_suicide0.",
            "url": "https://github.com/ethereum/execution-specs/blob/tests-snobal-devnet-5@v8037.0.0/tests/ported_static/stStaticCall/test_static_ab_acalls_suicide0.py#L28",
            "metadata": {
                "opcode_count": {}
            }
        }
    },
    "tests/ported_static/stStaticCall/test_static_ab_acalls_suicide0.py::test_static_ab_acalls_suicide0[fork_Cancun-blockchain_test_from_state_test-d1]": {
        "network": "Cancun",
        "genesisBlockHeader": {
            "parentHash": "0x0000000000000000000000000000000000000000000000000000000000000000",
            "uncleHash": "0x1dcc4de8dec75d7aab85b567b6ccd41ad312451b948a7413f0a142fd40d49347",
            "coinbase": "0x0000000000000000000000000000000000000000",
            "stateRoot": "0x0f23b5b275a6801d059524850bdf8b982b762bcaac3cb57dbe2ca9b620095a64",
            "transactionsTrie": "0x56e81f171bcc55a6ff8345e692c0f86e5b48e01b996cadc001622fb5e363b421",
            "receiptTrie": "0x56e81f171bcc55a6ff8345e692c0f86e5b48e01b996cadc001622fb5e363b421",
            "bloom": "0x00000000000000000000000000000000000000000000000000000000000000000000000000000000000000000000000000000000000000000000000000000000000000000000000000000000000000000000000000000000000000000000000000000000000000000000000000000000000000000000000000000000000000000000000000000000000000000000000000000000000000000000000000000000000000000000000000000000000000000000000000000000000000000000000000000000000000000000000000000000000000000000000000000000000000000000000000000000000000000000000000000000000000000000000000000000",
            "difficulty": "0x00",
            "number": "0x00",
            "gasLimit": "0x05f5e100",
            "gasUsed": "0x00",
            "timestamp": "0x00",
            "extraData": "0x00",
            "mixHash": "0x0000000000000000000000000000000000000000000000000000000000000000",
            "nonce": "0x0000000000000000",
            "baseFeePerGas": "0x0b",
            "withdrawalsRoot": "0x56e81f171bcc55a6ff8345e692c0f86e5b48e01b996cadc001622fb5e363b421",
            "blobGasUsed": "0x00",
            "excessBlobGas": "0x00",
            "parentBeaconBlockRoot": "0x0000000000000000000000000000000000000000000000000000000000000000",
            "hash": "0x9f206b5070e089da2811c8a465337081f01ca0823cf255ef0bb108b667661abc"
        },
        "pre": {
            "0x000f3df6d732807ef1319fb7b8bb8522d0beac02": {
                "nonce": "0x01",
                "balance": "0x00",
                "code": "0x3373fffffffffffffffffffffffffffffffffffffffe14604d57602036146024575f5ffd5b5f35801560495762001fff810690815414603c575f5ffd5b62001fff01545f5260205ff35b5f5ffd5b62001fff42064281555f359062001fff015500",
                "storage": {}
            },
            "0xd66f224cbd2fabb21b17bb53c56118f32f62ebd6": {
                "nonce": "0x00",
                "balance": "0x0de0b6b3a7640000",
                "code": "0x",
                "storage": {}
            },
            "0xc0e4183389eb57f779a986d8c878f89b9401dc8e": {
                "nonce": "0x00",
                "balance": "0x00",
                "code": "0x6000600060006000346000355af1600055600160015500",
                "storage": {}
            },
            "0x195198c66c5e31767d41365ff8003c5fe4387110": {
                "nonce": "0x00",
                "balance": "0x0de0b6b3a7640000",
                "code": "0x600060006000600073c20b4779ed25a1ccf1848f1cbcc84433fcb9d083620186a0fa585573c20b4779ed25a1ccf1848f1cbcc84433fcb9d083ff00",
                "storage": {}
            },
            "0xc20b4779ed25a1ccf1848f1cbcc84433fcb9d083": {
                "nonce": "0x00",
                "balance": "0x17",
                "code": "0x600060006000600073195198c66c5e31767d41365ff8003c5fe438711061c350fa600101585500",
                "storage": {}
            },
            "0x15631f76b02193e5716cbd4b4d696f2f7a39f0a4": {
                "nonce": "0x00",
                "balance": "0x0de0b6b3a7640000",
                "code": "0x600060006000600073644ac2b24a9316ed4c55001e5eda02d77f729c7b620186a0fa585273c20b4779ed25a1ccf1848f1cbcc84433fcb9d083ff00",
                "storage": {}
            },
            "0x644ac2b24a9316ed4c55001e5eda02d77f729c7b": {
                "nonce": "0x00",
                "balance": "0x17",
                "code": "0x60006000600060007315631f76b02193e5716cbd4b4d696f2f7a39f0a461c350fa600101585200",
                "storage": {}
            }
        },
        "postState": {
            "0x000f3df6d732807ef1319fb7b8bb8522d0beac02": {
                "nonce": "0x01",
                "balance": "0x00",
                "code": "0x3373fffffffffffffffffffffffffffffffffffffffe14604d57602036146024575f5ffd5b5f35801560495762001fff810690815414603c575f5ffd5b62001fff01545f5260205ff35b5f5ffd5b62001fff42064281555f359062001fff015500",
                "storage": {
                    "0x03e8": "0x03e8"
                }
            },
            "0xd66f224cbd2fabb21b17bb53c56118f32f62ebd6": {
                "nonce": "0x01",
                "balance": "0x0de0b6b3a74dd550",
                "code": "0x",
                "storage": {}
            },
            "0xc0e4183389eb57f779a986d8c878f89b9401dc8e": {
                "nonce": "0x00",
                "balance": "0x00",
                "code": "0x6000600060006000346000355af1600055600160015500",
                "storage": {
                    "0x00": "0x01",
                    "0x01": "0x01"
                }
            },
            "0x195198c66c5e31767d41365ff8003c5fe4387110": {
                "nonce": "0x00",
                "balance": "0x0de0b6b3a7640000",
                "code": "0x600060006000600073c20b4779ed25a1ccf1848f1cbcc84433fcb9d083620186a0fa585573c20b4779ed25a1ccf1848f1cbcc84433fcb9d083ff00",
                "storage": {}
            },
            "0xc20b4779ed25a1ccf1848f1cbcc84433fcb9d083": {
                "nonce": "0x00",
                "balance": "0x0de0b6b3a76586b7",
                "code": "0x600060006000600073195198c66c5e31767d41365ff8003c5fe438711061c350fa600101585500",
                "storage": {}
            },
            "0x15631f76b02193e5716cbd4b4d696f2f7a39f0a4": {
                "nonce": "0x00",
                "balance": "0x00",
                "code": "0x600060006000600073644ac2b24a9316ed4c55001e5eda02d77f729c7b620186a0fa585273c20b4779ed25a1ccf1848f1cbcc84433fcb9d083ff00",
                "storage": {}
            },
            "0x644ac2b24a9316ed4c55001e5eda02d77f729c7b": {
                "nonce": "0x00",
                "balance": "0x17",
                "code": "0x60006000600060007315631f76b02193e5716cbd4b4d696f2f7a39f0a461c350fa600101585200",
                "storage": {}
            }
        },
        "lastblockhash": "0x3060515a5eeaa3313dcd050121b22f325f8052ddc28e084555c0cdf7b02261c7",
        "config": {
            "network": "Cancun",
            "chainid": "0x01",
            "blobSchedule": {
                "Cancun": {
                    "target": "0x03",
                    "max": "0x06",
                    "baseFeeUpdateFraction": "0x32f0ed"
                }
            }
        },
        "genesisRLP": "0xf9023cf90236a00000000000000000000000000000000000000000000000000000000000000000a01dcc4de8dec75d7aab85b567b6ccd41ad312451b948a7413f0a142fd40d49347940000000000000000000000000000000000000000a00f23b5b275a6801d059524850bdf8b982b762bcaac3cb57dbe2ca9b620095a64a056e81f171bcc55a6ff8345e692c0f86e5b48e01b996cadc001622fb5e363b421a056e81f171bcc55a6ff8345e692c0f86e5b48e01b996cadc001622fb5e363b421b901000000000000000000000000000000000000000000000000000000000000000000000000000000000000000000000000000000000000000000000000000000000000000000000000000000000000000000000000000000000000000000000000000000000000000000000000000000000000000000000000000000000000000000000000000000000000000000000000000000000000000000000000000000000000000000000000000000000000000000000000000000000000000000000000000000000000000000000000000000000000000000000000000000000000000000000000000000000000000000000000000000000000000000000000000000000080808405f5e100808000a000000000000000000000000000000000000000000000000000000000000000008800000000000000000ba056e81f171bcc55a6ff8345e692c0f86e5b48e01b996cadc001622fb5e363b4218080a00000000000000000000000000000000000000000000000000000000000000000c0c0c0",
        "blocks": [
            {
                "blockHeader": {
                    "parentHash": "0x9f206b5070e089da2811c8a465337081f01ca0823cf255ef0bb108b667661abc",
                    "uncleHash": "0x1dcc4de8dec75d7aab85b567b6ccd41ad312451b948a7413f0a142fd40d49347",
                    "coinbase": "0x2adc25665018aa1fe0e6bc666dac8fc2697ff9ba",
                    "stateRoot": "0x60f4cd019ba1dd5916469317da8dd3e08e266329a7d4f9d93c47ba95a49db88c",
                    "transactionsTrie": "0x6ced4c59db57e590e1a5f66004b6a64530d1330be6f6d43206edb118f5b60ab7",
                    "receiptTrie": "0x47c1ed95f44eb1c5bc21ef00faf2772aa53b8971054f4c8b860e465c9a8273b2",
                    "bloom": "0x00000000000000000000000000000000000000000000000000000000000000000000000000000000000000000000000000000000000000000000000000000000000000000000000000000000000000000000000000000000000000000000000000000000000000000000000000000000000000000000000000000000000000000000000000000000000000000000000000000000000000000000000000000000000000000000000000000000000000000000000000000000000000000000000000000000000000000000000000000000000000000000000000000000000000000000000000000000000000000000000000000000000000000000000000000000",
                    "difficulty": "0x00",
                    "number": "0x01",
                    "gasLimit": "0x05f5e100",
                    "gasUsed": "0x021068",
                    "timestamp": "0x03e8",
                    "extraData": "0x00",
                    "mixHash": "0x0000000000000000000000000000000000000000000000000000000000020000",
                    "nonce": "0x0000000000000000",
                    "baseFeePerGas": "0x0a",
                    "withdrawalsRoot": "0x56e81f171bcc55a6ff8345e692c0f86e5b48e01b996cadc001622fb5e363b421",
                    "blobGasUsed": "0x00",
                    "excessBlobGas": "0x00",
                    "parentBeaconBlockRoot": "0x0000000000000000000000000000000000000000000000000000000000000000",
                    "hash": "0x3060515a5eeaa3313dcd050121b22f325f8052ddc28e084555c0cdf7b02261c7"
                },
                "transactions": [
                    {
                        "type": "0x00",
                        "chainId": "0x01",
                        "nonce": "0x00",
                        "gasPrice": "0x0a",
                        "gasLimit": "0x989680",
                        "to": "0xc0e4183389eb57f779a986d8c878f89b9401dc8e",
                        "value": "0x0186a0",
                        "data": "0x00000000000000000000000015631f76b02193e5716cbd4b4d696f2f7a39f0a4",
                        "v": "0x26",
                        "r": "0xd18f096eb60b2724859b54f6842bc88140498c90576549ea26a4b184170c51b2",
                        "s": "0x6eee1a0d8face85d2563e1544a863759323845477e39e30dce16bcf290e4d32d",
                        "sender": "0xd66f224cbd2fabb21b17bb53c56118f32f62ebd6"
                    }
                ],
                "uncleHeaders": [],
                "withdrawals": [],
                "receipts": [
                    {
                        "transactionHash": "0xb24df3ead836c40e7f01ed92d8c1ca026efde36e7b223b5b324afb70d42df46e",
                        "type": "0x00",
                        "cumulativeGasUsed": "0x021068",
                        "bloom": "0x00000000000000000000000000000000000000000000000000000000000000000000000000000000000000000000000000000000000000000000000000000000000000000000000000000000000000000000000000000000000000000000000000000000000000000000000000000000000000000000000000000000000000000000000000000000000000000000000000000000000000000000000000000000000000000000000000000000000000000000000000000000000000000000000000000000000000000000000000000000000000000000000000000000000000000000000000000000000000000000000000000000000000000000000000000000",
                        "logs": [],
                        "status": true,
                        "rlp": "0xf901090183021068b9010000000000000000000000000000000000000000000000000000000000000000000000000000000000000000000000000000000000000000000000000000000000000000000000000000000000000000000000000000000000000000000000000000000000000000000000000000000000000000000000000000000000000000000000000000000000000000000000000000000000000000000000000000000000000000000000000000000000000000000000000000000000000000000000000000000000000000000000000000000000000000000000000000000000000000000000000000000000000000000000000000000000000000000000000000000000c0"
                    }
                ],
                "rlp": "0xf902c7f9023ba09f206b5070e089da2811c8a465337081f01ca0823cf255ef0bb108b667661abca01dcc4de8dec75d7aab85b567b6ccd41ad312451b948a7413f0a142fd40d49347942adc25665018aa1fe0e6bc666dac8fc2697ff9baa060f4cd019ba1dd5916469317da8dd3e08e266329a7d4f9d93c47ba95a49db88ca06ced4c59db57e590e1a5f66004b6a64530d1330be6f6d43206edb118f5b60ab7a047c1ed95f44eb1c5bc21ef00faf2772aa53b8971054f4c8b860e465c9a8273b2b901000000000000000000000000000000000000000000000000000000000000000000000000000000000000000000000000000000000000000000000000000000000000000000000000000000000000000000000000000000000000000000000000000000000000000000000000000000000000000000000000000000000000000000000000000000000000000000000000000000000000000000000000000000000000000000000000000000000000000000000000000000000000000000000000000000000000000000000000000000000000000000000000000000000000000000000000000000000000000000000000000000000000000000000000000000000080018405f5e100830210688203e800a000000000000000000000000000000000000000000000000000000000000200008800000000000000000aa056e81f171bcc55a6ff8345e692c0f86e5b48e01b996cadc001622fb5e363b4218080a00000000000000000000000000000000000000000000000000000000000000000f885f883800a8398968094c0e4183389eb57f779a986d8c878f89b9401dc8e830186a0a000000000000000000000000015631f76b02193e5716cbd4b4d696f2f7a39f0a426a0d18f096eb60b2724859b54f6842bc88140498c90576549ea26a4b184170c51b2a06eee1a0d8face85d2563e1544a863759323845477e39e30dce16bcf290e4d32dc0c0",
                "blocknumber": "1"
            }
        ],
        "sealEngine": "NoProof",
        "_info": {
            "hash": "0x5a26125c79d04acff9a13e3e52d808a3612a48dac39fcea7a792ed056d120f1e",
            "fixture-format": "blockchain_test",
            "comment": "`execution-specs` generated test",
            "filling-transition-tool": "2.19.0",
            "description": "Test_static_ab_acalls_suicide0.",
            "url": "https://github.com/ethereum/execution-specs/blob/tests-snobal-devnet-5@v8037.0.0/tests/ported_static/stStaticCall/test_static_ab_acalls_suicide0.py#L28",
            "metadata": {
                "opcode_count": {}
            }
        }
    }
}