{
    "tests/static/state_tests/stMemExpandingEIP150Calls/NewGasPriceForCodesWithMemExpandingCallsFiller.json::NewGasPriceForCodesWithMemExpandingCalls[fork_Cancun-state_test-]": {
        "env": {
            "currentCoinbase": "0x2adc25665018aa1fe0e6bc666dac8fc2697ff9ba",
            "currentGasLimit": "0x989680",
            "currentNumber": "0x01",
            "currentTimestamp": "0x03e8",
            "currentRandom": "0x0000000000000000000000000000000000000000000000000000000000020000",
            "currentDifficulty": "0x00",
            "currentBaseFee": "0x0a",
            "currentExcessBlobGas": "0x00"
        },
        "pre": {
            "0xb77c234232eb8ea0a88b466b460cf62d153dc208": {
                "nonce": "0x00",
                "balance": "0xe8d4a5100000",
                "code": "0x",
                "storage": {}
            },
            "0xc76ac88bd40e6401737c964f59ca0d51e3ee7d0c": {
                "nonce": "0x00",
                "balance": "0x00",
                "code": "0x6011606455",
                "storage": {}
            },
            "0xc76ac88bd40e6401737c964f59ca0d51e3ee7e0c": {
                "nonce": "0x00",
                "balance": "0x6f",
                "code": "0x1122334455667788991011121314151617181920212223242526272829303132",
                "storage": {}
            },
            "0xc76ac88bd40e6401737c964f59ca0d51e3ee7f0c": {
                "nonce": "0x00",
                "balance": "0x00",
                "code": "0x73c76ac88bd40e6401737c964f59ca0d51e3ee7e0c3b60015560146000600073c76ac88bd40e6401737c964f59ca0d51e3ee7e0c3c60005160025560005460045560ff60ff60ff60ff600173c76ac88bd40e6401737c964f59ca0d51e3ee7d0c617530f160055560ff60ff60ff60ff600173c76ac88bd40e6401737c964f59ca0d51e3ee7d0c617530f260065560ff60ff60ff60ff73c76ac88bd40e6401737c964f59ca0d51e3ee7d0c617530f460075560ff60ff60ff60ff6000731000000000000000000000000000000000000013617530f160085573b77c234232eb8ea0a88b466b460cf62d153dc208316003555a600a55",
                "storage": {
                    "0x00": "0x12"
                }
            }
        },
        "transaction": {
            "nonce": "0x00",
            "gasPrice": "0x0a",
            "gasLimit": [
                "0x0927c0"
            ],
            "to": "0xc76ac88bd40e6401737c964f59ca0d51e3ee7f0c",
            "value": [
                "0x00"
            ],
            "data": [
                "0x"
            ],
            "sender": "0xb77c234232eb8ea0a88b466b460cf62d153dc208",
            "secretKey": "0x28c1eab0a9cb84d78c43abbbc76ac88bd40e6401737c964f59ca0d51e3ee7d0c"
        },
        "post": {
            "Cancun": [
                {
                    "hash": "0x0f820ce85971cf6855dc9f4bb5ffa07a34fd185bbf9c68b1f24f4969869c84bd",
                    "logs": "0x1dcc4de8dec75d7aab85b567b6ccd41ad312451b948a7413f0a142fd40d49347",
                    "txbytes": "0xf860800a830927c094c76ac88bd40e6401737c964f59ca0d51e3ee7f0c808026a0767f8b3d01b7c7a1f594490884458c157ee096a7427abbd1cf936b5dd714b5f9a06cf9c20f4053b7abf04ae8a644de3b3bfff087d43330e9df5a5fac1233e98534",
                    "indexes": {
                        "data": 0,
                        "gas": 0,
                        "value": 0
                    },
                    "state": {
                        "0xb77c234232eb8ea0a88b466b460cf62d153dc208": {
                            "nonce": "0x01",
                            "balance": "0xe8d4a4ed8034",
                            "code": "0x",
                            "storage": {}
                        },
                        "0xc76ac88bd40e6401737c964f59ca0d51e3ee7d0c": {
                            "nonce": "0x00",
                            "balance": "0x00",
                            "code": "0x6011606455",
                            "storage": {}
                        },
                        "0xc76ac88bd40e6401737c964f59ca0d51e3ee7e0c": {
                            "nonce": "0x00",
                            "balance": "0x6f",
                            "code": "0x1122334455667788991011121314151617181920212223242526272829303132",
                            "storage": {}
                        },
                        "0xc76ac88bd40e6401737c964f59ca0d51e3ee7f0c": {
                            "nonce": "0x00",
                            "balance": "0x00",
                            "code": "0x73c76ac88bd40e6401737c964f59ca0d51e3ee7e0c3b60015560146000600073c76ac88bd40e6401737c964f59ca0d51e3ee7e0c3c60005160025560005460045560ff60ff60ff60ff600173c76ac88bd40e6401737c964f59ca0d51e3ee7d0c617530f160055560ff60ff60ff60ff600173c76ac88bd40e6401737c964f59ca0d51e3ee7d0c617530f260065560ff60ff60ff60ff73c76ac88bd40e6401737c964f59ca0d51e3ee7d0c617530f460075560ff60ff60ff60ff6000731000000000000000000000000000000000000013617530f160085573b77c234232eb8ea0a88b466b460cf62d153dc208316003555a600a55",
                            "storage": {
                                "0x00": "0x12",
                                "0x01": "0x20",
                                "0x02": "0x1122334455667788991011121314151617181920000000000000000000000000",
                                "0x04": "0x12",
                                "0x64": "0x11",
                                "0x07": "0x01",
                                "0x08": "0x01",
                                "0x03": "0xe8d4a4b47280",
                                "0x0a": "0x060ae9"
                            }
                        }
                    }
                }
            ]
        },
        "config": {
            "blobSchedule": {
                "Cancun": {
                    "target": "0x03",
                    "max": "0x06",
                    "baseFeeUpdateFraction": "0x32f0ed"
                }
            },
            "chainid": "0x01"
        },
        "_info": {
            "hash": "0x7e388fa0bb687add1988043e9ce862e01e7ffb3502623fef4536d7d3214207fd",
            "comment": "`execution-spec-tests` generated test",
            "filling-transition-tool": "ethereum-spec-evm-resolver 0.0.5",
            "description": "No description available - add a docstring to the python test class or function.",
            "url": "",
            "fixture-format": "state_test",
            "reference-spec": "https://github.com/ethereum/EIPs/blob/master/",
            "reference-spec-version": "",
            "eels-resolution": {
                "git-url": "https://github.com/ethereum/execution-specs.git",
                "branch": "forks/bpos",
                "commit": "7aacb2c54111391af5e98c505d5010b5698a770f"
            }
        }
    },
    "tests/static/state_tests/stMemExpandingEIP150Calls/NewGasPriceForCodesWithMemExpandingCallsFiller.json::NewGasPriceForCodesWithMemExpandingCalls[fork_Osaka-state_test-]": {
        "env": {
            "currentCoinbase": "0x2adc25665018aa1fe0e6bc666dac8fc2697ff9ba",
            "currentGasLimit": "0x989680",
            "currentNumber": "0x01",
            "currentTimestamp": "0x03e8",
            "currentRandom": "0x0000000000000000000000000000000000000000000000000000000000020000",
            "currentDifficulty": "0x00",
            "currentBaseFee": "0x0a",
            "currentExcessBlobGas": "0x00"
        },
        "pre": {
            "0xb77c234232eb8ea0a88b466b460cf62d153dc208": {
                "nonce": "0x00",
                "balance": "0xe8d4a5100000",
                "code": "0x",
                "storage": {}
            },
            "0xc76ac88bd40e6401737c964f59ca0d51e3ee7d0c": {
                "nonce": "0x00",
                "balance": "0x00",
                "code": "0x6011606455",
                "storage": {}
            },
            "0xc76ac88bd40e6401737c964f59ca0d51e3ee7e0c": {
                "nonce": "0x00",
                "balance": "0x6f",
                "code": "0x1122334455667788991011121314151617181920212223242526272829303132",
                "storage": {}
            },
            "0xc76ac88bd40e6401737c964f59ca0d51e3ee7f0c": {
                "nonce": "0x00",
                "balance": "0x00",
                "code": "0x73c76ac88bd40e6401737c964f59ca0d51e3ee7e0c3b60015560146000600073c76ac88bd40e6401737c964f59ca0d51e3ee7e0c3c60005160025560005460045560ff60ff60ff60ff600173c76ac88bd40e6401737c964f59ca0d51e3ee7d0c617530f160055560ff60ff60ff60ff600173c76ac88bd40e6401737c964f59ca0d51e3ee7d0c617530f260065560ff60ff60ff60ff73c76ac88bd40e6401737c964f59ca0d51e3ee7d0c617530f460075560ff60ff60ff60ff6000731000000000000000000000000000000000000013617530f160085573b77c234232eb8ea0a88b466b460cf62d153dc208316003555a600a55",
                "storage": {
                    "0x00": "0x12"
                }
            }
        },
        "transaction": {
            "nonce": "0x00",
            "gasPrice": "0x0a",
            "gasLimit": [
                "0x0927c0"
            ],
            "to": "0xc76ac88bd40e6401737c964f59ca0d51e3ee7f0c",
            "value": [
                "0x00"
            ],
            "data": [
                "0x"
            ],
            "sender": "0xb77c234232eb8ea0a88b466b460cf62d153dc208",
            "secretKey": "0x28c1eab0a9cb84d78c43abbbc76ac88bd40e6401737c964f59ca0d51e3ee7d0c"
        },
        "post": {
            "Osaka": [
                {
                    "hash": "0x0f820ce85971cf6855dc9f4bb5ffa07a34fd185bbf9c68b1f24f4969869c84bd",
                    "logs": "0x1dcc4de8dec75d7aab85b567b6ccd41ad312451b948a7413f0a142fd40d49347",
                    "txbytes": "0xf860800a830927c094c76ac88bd40e6401737c964f59ca0d51e3ee7f0c808026a0767f8b3d01b7c7a1f594490884458c157ee096a7427abbd1cf936b5dd714b5f9a06cf9c20f4053b7abf04ae8a644de3b3bfff087d43330e9df5a5fac1233e98534",
                    "indexes": {
                        "data": 0,
                        "gas": 0,
                        "value": 0
                    },
                    "state": {
                        "0xb77c234232eb8ea0a88b466b460cf62d153dc208": {
                            "nonce": "0x01",
                            "balance": "0xe8d4a4ed8034",
                            "code": "0x",
                            "storage": {}
                        },
                        "0xc76ac88bd40e6401737c964f59ca0d51e3ee7d0c": {
                            "nonce": "0x00",
                            "balance": "0x00",
                            "code": "0x6011606455",
                            "storage": {}
                        },
                        "0xc76ac88bd40e6401737c964f59ca0d51e3ee7e0c": {
                            "nonce": "0x00",
                            "balance": "0x6f",
                            "code": "0x1122334455667788991011121314151617181920212223242526272829303132",
                            "storage": {}
                        },
                        "0xc76ac88bd40e6401737c964f59ca0d51e3ee7f0c": {
                            "nonce": "0x00",
                            "balance": "0x00",
                            "code": "0x73c76ac88bd40e6401737c964f59ca0d51e3ee7e0c3b60015560146000600073c76ac88bd40e6401737c964f59ca0d51e3ee7e0c3c60005160025560005460045560ff60ff60ff60ff600173c76ac88bd40e6401737c964f59ca0d51e3ee7d0c617530f160055560ff60ff60ff60ff600173c76ac88bd40e6401737c964f59ca0d51e3ee7d0c617530f260065560ff60ff60ff60ff73c76ac88bd40e6401737c964f59ca0d51e3ee7d0c617530f460075560ff60ff60ff60ff6000731000000000000000000000000000000000000013617530f160085573b77c234232eb8ea0a88b466b460cf62d153dc208316003555a600a55",
                            "storage": {
                                "0x00": "0x12",
                                "0x01": "0x20",
                                "0x02": "0x1122334455667788991011121314151617181920000000000000000000000000",
                                "0x04": "0x12",
                                "0x64": "0x11",
                                "0x07": "0x01",
                                "0x08": "0x01",
                                "0x03": "0xe8d4a4b47280",
                                "0x0a": "0x060ae9"
                            }
                        }
                    }
                }
            ]
        },
        "config": {
            "blobSchedule": {
                "Cancun": {
                    "target": "0x03",
                    "max": "0x06",
                    "baseFeeUpdateFraction": "0x32f0ed"
                },
                "Prague": {
                    "target": "0x06",
                    "max": "0x09",
                    "baseFeeUpdateFraction": "0x4c6964"
                },
                "Osaka": {
                    "target": "0x06",
                    "max": "0x09",
                    "baseFeeUpdateFraction": "0x4c6964"
                }
            },
            "chainid": "0x01"
        },
        "_info": {
            "hash": "0xeed94a17366a8cc06e884663d0707d84860b971b2a9c3fbc48ac8086469645a0",
            "comment": "`execution-spec-tests` generated test",
            "filling-transition-tool": "ethereum-spec-evm-resolver 0.0.5",
            "description": "No description available - add a docstring to the python test class or function.",
            "url": "",
            "fixture-format": "state_test",
            "reference-spec": "https://github.com/ethereum/EIPs/blob/master/",
            "reference-spec-version": "",
            "eels-resolution": {
                "git-url": "https://github.com/ethereum/execution-specs.git",
                "branch": "forks/bpos",
                "commit": "7aacb2c54111391af5e98c505d5010b5698a770f"
            }
        }
    },
    "tests/static/state_tests/stMemExpandingEIP150Calls/NewGasPriceForCodesWithMemExpandingCallsFiller.json::NewGasPriceForCodesWithMemExpandingCalls[fork_Prague-state_test-]": {
        "env": {
            "currentCoinbase": "0x2adc25665018aa1fe0e6bc666dac8fc2697ff9ba",
            "currentGasLimit": "0x989680",
            "currentNumber": "0x01",
            "currentTimestamp": "0x03e8",
            "currentRandom": "0x0000000000000000000000000000000000000000000000000000000000020000",
            "currentDifficulty": "0x00",
            "currentBaseFee": "0x0a",
            "currentExcessBlobGas": "0x00"
        },
        "pre": {
            "0xb77c234232eb8ea0a88b466b460cf62d153dc208": {
                "nonce": "0x00",
                "balance": "0xe8d4a5100000",
                "code": "0x",
                "storage": {}
            },
            "0xc76ac88bd40e6401737c964f59ca0d51e3ee7d0c": {
                "nonce": "0x00",
                "balance": "0x00",
                "code": "0x6011606455",
                "storage": {}
            },
            "0xc76ac88bd40e6401737c964f59ca0d51e3ee7e0c": {
                "nonce": "0x00",
                "balance": "0x6f",
                "code": "0x1122334455667788991011121314151617181920212223242526272829303132",
                "storage": {}
            },
            "0xc76ac88bd40e6401737c964f59ca0d51e3ee7f0c": {
                "nonce": "0x00",
                "balance": "0x00",
                "code": "0x73c76ac88bd40e6401737c964f59ca0d51e3ee7e0c3b60015560146000600073c76ac88bd40e6401737c964f59ca0d51e3ee7e0c3c60005160025560005460045560ff60ff60ff60ff600173c76ac88bd40e6401737c964f59ca0d51e3ee7d0c617530f160055560ff60ff60ff60ff600173c76ac88bd40e6401737c964f59ca0d51e3ee7d0c617530f260065560ff60ff60ff60ff73c76ac88bd40e6401737c964f59ca0d51e3ee7d0c617530f460075560ff60ff60ff60ff6000731000000000000000000000000000000000000013617530f160085573b77c234232eb8ea0a88b466b460cf62d153dc208316003555a600a55",
                "storage": {
                    "0x00": "0x12"
                }
            }
        },
        "transaction": {
            "nonce": "0x00",
            "gasPrice": "0x0a",
            "gasLimit": [
                "0x0927c0"
            ],
            "to": "0xc76ac88bd40e6401737c964f59ca0d51e3ee7f0c",
            "value": [
                "0x00"
            ],
            "data": [
                "0x"
            ],
            "sender": "0xb77c234232eb8ea0a88b466b460cf62d153dc208",
            "secretKey": "0x28c1eab0a9cb84d78c43abbbc76ac88bd40e6401737c964f59ca0d51e3ee7d0c"
        },
        "post": {
            "Prague": [
                {
                    "hash": "0x0f820ce85971cf6855dc9f4bb5ffa07a34fd185bbf9c68b1f24f4969869c84bd",
                    "logs": "0x1dcc4de8dec75d7aab85b567b6ccd41ad312451b948a7413f0a142fd40d49347",
                    "txbytes": "0xf860800a830927c094c76ac88bd40e6401737c964f59ca0d51e3ee7f0c808026a0767f8b3d01b7c7a1f594490884458c157ee096a7427abbd1cf936b5dd714b5f9a06cf9c20f4053b7abf04ae8a644de3b3bfff087d43330e9df5a5fac1233e98534",
                    "indexes": {
                        "data": 0,
                        "gas": 0,
                        "value": 0
                    },
                    "state": {
                        "0xb77c234232eb8ea0a88b466b460cf62d153dc208": {
                            "nonce": "0x01",
                            "balance": "0xe8d4a4ed8034",
                            "code": "0x",
                            "storage": {}
                        },
                        "0xc76ac88bd40e6401737c964f59ca0d51e3ee7d0c": {
                            "nonce": "0x00",
                            "balance": "0x00",
                            "code": "0x6011606455",
                            "storage": {}
                        },
                        "0xc76ac88bd40e6401737c964f59ca0d51e3ee7e0c": {
                            "nonce": "0x00",
                            "balance": "0x6f",
                            "code": "0x1122334455667788991011121314151617181920212223242526272829303132",
                            "storage": {}
                        },
                        "0xc76ac88bd40e6401737c964f59ca0d51e3ee7f0c": {
                            "nonce": "0x00",
                            "balance": "0x00",
                            "code": "0x73c76ac88bd40e6401737c964f59ca0d51e3ee7e0c3b60015560146000600073c76ac88bd40e6401737c964f59ca0d51e3ee7e0c3c60005160025560005460045560ff60ff60ff60ff600173c76ac88bd40e6401737c964f59ca0d51e3ee7d0c617530f160055560ff60ff60ff60ff600173c76ac88bd40e6401737c964f59ca0d51e3ee7d0c617530f260065560ff60ff60ff60ff73c76ac88bd40e6401737c964f59ca0d51e3ee7d0c617530f460075560ff60ff60ff60ff6000731000000000000000000000000000000000000013617530f160085573b77c234232eb8ea0a88b466b460cf62d153dc208316003555a600a55",
                            "storage": {
                                "0x00": "0x12",
                                "0x01": "0x20",
                                "0x02": "0x1122334455667788991011121314151617181920000000000000000000000000",
                                "0x04": "0x12",
                                "0x64": "0x11",
                                "0x07": "0x01",
                                "0x08": "0x01",
                                "0x03": "0xe8d4a4b47280",
                                "0x0a": "0x060ae9"
                            }
                        }
                    }
                }
            ]
        },
        "config": {
            "blobSchedule": {
                "Cancun": {
                    "target": "0x03",
                    "max": "0x06",
                    "baseFeeUpdateFraction": "0x32f0ed"
                },
                "Prague": {
                    "target": "0x06",
                    "max": "0x09",
                    "baseFeeUpdateFraction": "0x4c6964"
                }
            },
            "chainid": "0x01"
        },
        "_info": {
            "hash": "0x0848b22b6946b6b83336daf05043c77c1653c869ee38a69500d74554b42928d4",
            "comment": "`execution-spec-tests` generated test",
            "filling-transition-tool": "ethereum-spec-evm-resolver 0.0.5",
            "description": "No description available - add a docstring to the python test class or function.",
            "url": "",
            "fixture-format": "state_test",
            "reference-spec": "https://github.com/ethereum/EIPs/blob/master/",
            "reference-spec-version": "",
            "eels-resolution": {
                "git-url": "https://github.com/ethereum/execution-specs.git",
                "branch": "forks/bpos",
                "commit": "7aacb2c54111391af5e98c505d5010b5698a770f"
            }
        }
    }
}