{
    "tests/ported_static/stStaticCall/test_static_execute_call_that_ask_fore_gas_then_trabsaction_has.py::test_static_execute_call_that_ask_fore_gas_then_trabsaction_has[fork_Cancun-blockchain_test_from_state_test-d0]": {
        "network": "Cancun",
        "genesisBlockHeader": {
            "parentHash": "0x0000000000000000000000000000000000000000000000000000000000000000",
            "uncleHash": "0x1dcc4de8dec75d7aab85b567b6ccd41ad312451b948a7413f0a142fd40d49347",
            "coinbase": "0x0000000000000000000000000000000000000000",
            "stateRoot": "0x92e32cfc6f7a5597d1961d6ed1a0c6e0b2a2796657a08e3d55bcdbda14554406",
            "transactionsTrie": "0x56e81f171bcc55a6ff8345e692c0f86e5b48e01b996cadc001622fb5e363b421",
            "receiptTrie": "0x56e81f171bcc55a6ff8345e692c0f86e5b48e01b996cadc001622fb5e363b421",
            "bloom": "0x00000000000000000000000000000000000000000000000000000000000000000000000000000000000000000000000000000000000000000000000000000000000000000000000000000000000000000000000000000000000000000000000000000000000000000000000000000000000000000000000000000000000000000000000000000000000000000000000000000000000000000000000000000000000000000000000000000000000000000000000000000000000000000000000000000000000000000000000000000000000000000000000000000000000000000000000000000000000000000000000000000000000000000000000000000000",
            "difficulty": "0x00",
            "number": "0x00",
            "gasLimit": "0x989680",
            "gasUsed": "0x00",
            "timestamp": "0x00",
            "extraData": "0x00",
            "mixHash": "0x0000000000000000000000000000000000000000000000000000000000000000",
            "nonce": "0x0000000000000000",
            "baseFeePerGas": "0x0b",
            "withdrawalsRoot": "0x56e81f171bcc55a6ff8345e692c0f86e5b48e01b996cadc001622fb5e363b421",
            "blobGasUsed": "0x00",
            "excessBlobGas": "0x00",
            "parentBeaconBlockRoot": "0x0000000000000000000000000000000000000000000000000000000000000000",
            "hash": "0xa446028fc8b548219bdcb2aa8a8cb84d7e08fc781a4aa2041026c4569c2e740a"
        },
        "pre": {
            "0x000f3df6d732807ef1319fb7b8bb8522d0beac02": {
                "nonce": "0x01",
                "balance": "0x00",
                "code": "0x3373fffffffffffffffffffffffffffffffffffffffe14604d57602036146024575f5ffd5b5f35801560495762001fff810690815414603c575f5ffd5b62001fff01545f5260205ff35b5f5ffd5b62001fff42064281555f359062001fff015500",
                "storage": {}
            },
            "0xabbef90b4b6d86caa8d6d6cd7f673a15a8de2d61": {
                "nonce": "0x00",
                "balance": "0x989680",
                "code": "0x",
                "storage": {}
            },
            "0xa256ebcc5536cda56e04c39fe9584ecc7594a438": {
                "nonce": "0x00",
                "balance": "0x00",
                "code": "0x6000600060006000600035620927c0fa60015500",
                "storage": {}
            },
            "0x3dc16a13cf554533f380cc938a2c1ab04dac534f": {
                "nonce": "0x00",
                "balance": "0x0186a0",
                "code": "0x600160015200",
                "storage": {}
            },
            "0x73ef1878a0f2c9629dedc1b1e9be8d77dcf93688": {
                "nonce": "0x00",
                "balance": "0x0186a0",
                "code": "0x5b61c3506080511015601c5760013b506001608051016080526000565b00",
                "storage": {}
            },
            "0xce4ccbffaf450ae2126eb96dcd7c891f37764f20": {
                "nonce": "0x00",
                "balance": "0x0186a0",
                "code": "0x600160015500",
                "storage": {}
            }
        },
        "postState": {
            "0x000f3df6d732807ef1319fb7b8bb8522d0beac02": {
                "nonce": "0x01",
                "balance": "0x00",
                "code": "0x3373fffffffffffffffffffffffffffffffffffffffe14604d57602036146024575f5ffd5b5f35801560495762001fff810690815414603c575f5ffd5b62001fff01545f5260205ff35b5f5ffd5b62001fff42064281555f359062001fff015500",
                "storage": {
                    "0x03e8": "0x03e8"
                }
            },
            "0xabbef90b4b6d86caa8d6d6cd7f673a15a8de2d61": {
                "nonce": "0x01",
                "balance": "0x918d72",
                "code": "0x",
                "storage": {}
            },
            "0xa256ebcc5536cda56e04c39fe9584ecc7594a438": {
                "nonce": "0x00",
                "balance": "0x00",
                "code": "0x6000600060006000600035620927c0fa60015500",
                "storage": {
                    "0x01": "0x01"
                }
            },
            "0x3dc16a13cf554533f380cc938a2c1ab04dac534f": {
                "nonce": "0x00",
                "balance": "0x0186a0",
                "code": "0x600160015200",
                "storage": {}
            },
            "0x73ef1878a0f2c9629dedc1b1e9be8d77dcf93688": {
                "nonce": "0x00",
                "balance": "0x0186a0",
                "code": "0x5b61c3506080511015601c5760013b506001608051016080526000565b00",
                "storage": {}
            },
            "0xce4ccbffaf450ae2126eb96dcd7c891f37764f20": {
                "nonce": "0x00",
                "balance": "0x0186a0",
                "code": "0x600160015500",
                "storage": {}
            }
        },
        "lastblockhash": "0x941fe6a58aac8ea4d139b0c1514c6152d421376bb73fa7f54542f5e8dc8ca20c",
        "config": {
            "network": "Cancun",
            "chainid": "0x01",
            "blobSchedule": {
                "Cancun": {
                    "target": "0x03",
                    "max": "0x06",
                    "baseFeeUpdateFraction": "0x32f0ed"
                }
            }
        },
        "genesisRLP": "0xf9023bf90235a00000000000000000000000000000000000000000000000000000000000000000a01dcc4de8dec75d7aab85b567b6ccd41ad312451b948a7413f0a142fd40d49347940000000000000000000000000000000000000000a092e32cfc6f7a5597d1961d6ed1a0c6e0b2a2796657a08e3d55bcdbda14554406a056e81f171bcc55a6ff8345e692c0f86e5b48e01b996cadc001622fb5e363b421a056e81f171bcc55a6ff8345e692c0f86e5b48e01b996cadc001622fb5e363b421b9010000000000000000000000000000000000000000000000000000000000000000000000000000000000000000000000000000000000000000000000000000000000000000000000000000000000000000000000000000000000000000000000000000000000000000000000000000000000000000000000000000000000000000000000000000000000000000000000000000000000000000000000000000000000000000000000000000000000000000000000000000000000000000000000000000000000000000000000000000000000000000000000000000000000000000000000000000000000000000000000000000000000000000000000000000000000808083989680808000a000000000000000000000000000000000000000000000000000000000000000008800000000000000000ba056e81f171bcc55a6ff8345e692c0f86e5b48e01b996cadc001622fb5e363b4218080a00000000000000000000000000000000000000000000000000000000000000000c0c0c0",
        "blocks": [
            {
                "blockHeader": {
                    "parentHash": "0xa446028fc8b548219bdcb2aa8a8cb84d7e08fc781a4aa2041026c4569c2e740a",
                    "uncleHash": "0x1dcc4de8dec75d7aab85b567b6ccd41ad312451b948a7413f0a142fd40d49347",
                    "coinbase": "0x2adc25665018aa1fe0e6bc666dac8fc2697ff9ba",
                    "stateRoot": "0xe057a1459c566821a9f43d42b7534c8d2c9ac08bbf1aacb132864d0b433fae4a",
                    "transactionsTrie": "0xc88395f63013f1ea54437887db04fab7aada2ee15702ea00580b6344ca331f38",
                    "receiptTrie": "0x000a02ca73806465c8318737251d8986d4fdc010cc4ff62bc1240b6f33d8f838",
                    "bloom": "0x00000000000000000000000000000000000000000000000000000000000000000000000000000000000000000000000000000000000000000000000000000000000000000000000000000000000000000000000000000000000000000000000000000000000000000000000000000000000000000000000000000000000000000000000000000000000000000000000000000000000000000000000000000000000000000000000000000000000000000000000000000000000000000000000000000000000000000000000000000000000000000000000000000000000000000000000000000000000000000000000000000000000000000000000000000000",
                    "difficulty": "0x00",
                    "number": "0x01",
                    "gasLimit": "0x989680",
                    "gasUsed": "0xb41b",
                    "timestamp": "0x03e8",
                    "extraData": "0x00",
                    "mixHash": "0x0000000000000000000000000000000000000000000000000000000000020000",
                    "nonce": "0x0000000000000000",
                    "baseFeePerGas": "0x0a",
                    "withdrawalsRoot": "0x56e81f171bcc55a6ff8345e692c0f86e5b48e01b996cadc001622fb5e363b421",
                    "blobGasUsed": "0x00",
                    "excessBlobGas": "0x00",
                    "parentBeaconBlockRoot": "0x0000000000000000000000000000000000000000000000000000000000000000",
                    "hash": "0x941fe6a58aac8ea4d139b0c1514c6152d421376bb73fa7f54542f5e8dc8ca20c"
                },
                "transactions": [
                    {
                        "type": "0x00",
                        "chainId": "0x01",
                        "nonce": "0x00",
                        "gasPrice": "0x0a",
                        "gasLimit": "0x0186a0",
                        "to": "0xa256ebcc5536cda56e04c39fe9584ecc7594a438",
                        "value": "0x00",
                        "data": "0x0000000000000000000000003dc16a13cf554533f380cc938a2c1ab04dac534f",
                        "v": "0x26",
                        "r": "0xb0ddad16e128195e53a53a3853b9cfb4e56105534a9ae13d3e514517308764aa",
                        "s": "0x25e40df8f2d95d9f4a8353af416eb16cfa1f71f8d753fa5d481cbcf562e29c24",
                        "sender": "0xabbef90b4b6d86caa8d6d6cd7f673a15a8de2d61"
                    }
                ],
                "uncleHeaders": [],
                "withdrawals": [],
                "receipts": [
                    {
                        "transactionHash": "0xe125cb88068aac0a6fdac62a9ade49a593802a7b6428b5ad823059b478bf2c18",
                        "type": "0x00",
                        "cumulativeGasUsed": "0xb41b",
                        "bloom": "0x00000000000000000000000000000000000000000000000000000000000000000000000000000000000000000000000000000000000000000000000000000000000000000000000000000000000000000000000000000000000000000000000000000000000000000000000000000000000000000000000000000000000000000000000000000000000000000000000000000000000000000000000000000000000000000000000000000000000000000000000000000000000000000000000000000000000000000000000000000000000000000000000000000000000000000000000000000000000000000000000000000000000000000000000000000000",
                        "logs": [],
                        "status": true,
                        "rlp": "0xf901080182b41bb9010000000000000000000000000000000000000000000000000000000000000000000000000000000000000000000000000000000000000000000000000000000000000000000000000000000000000000000000000000000000000000000000000000000000000000000000000000000000000000000000000000000000000000000000000000000000000000000000000000000000000000000000000000000000000000000000000000000000000000000000000000000000000000000000000000000000000000000000000000000000000000000000000000000000000000000000000000000000000000000000000000000000000000000000000000000000c0"
                    }
                ],
                "rlp": "0xf902c2f90239a0a446028fc8b548219bdcb2aa8a8cb84d7e08fc781a4aa2041026c4569c2e740aa01dcc4de8dec75d7aab85b567b6ccd41ad312451b948a7413f0a142fd40d49347942adc25665018aa1fe0e6bc666dac8fc2697ff9baa0e057a1459c566821a9f43d42b7534c8d2c9ac08bbf1aacb132864d0b433fae4aa0c88395f63013f1ea54437887db04fab7aada2ee15702ea00580b6344ca331f38a0000a02ca73806465c8318737251d8986d4fdc010cc4ff62bc1240b6f33d8f838b901000000000000000000000000000000000000000000000000000000000000000000000000000000000000000000000000000000000000000000000000000000000000000000000000000000000000000000000000000000000000000000000000000000000000000000000000000000000000000000000000000000000000000000000000000000000000000000000000000000000000000000000000000000000000000000000000000000000000000000000000000000000000000000000000000000000000000000000000000000000000000000000000000000000000000000000000000000000000000000000000000000000000000000000000000000000080018398968082b41b8203e800a000000000000000000000000000000000000000000000000000000000000200008800000000000000000aa056e81f171bcc55a6ff8345e692c0f86e5b48e01b996cadc001622fb5e363b4218080a00000000000000000000000000000000000000000000000000000000000000000f882f880800a830186a094a256ebcc5536cda56e04c39fe9584ecc7594a43880a00000000000000000000000003dc16a13cf554533f380cc938a2c1ab04dac534f26a0b0ddad16e128195e53a53a3853b9cfb4e56105534a9ae13d3e514517308764aaa025e40df8f2d95d9f4a8353af416eb16cfa1f71f8d753fa5d481cbcf562e29c24c0c0",
                "blocknumber": "1"
            }
        ],
        "sealEngine": "NoProof",
        "_info": {
            "hash": "0x926956f64a2dfa8a30d52d534e5caaed0d1b30c5cdfd90f7a58a68b916743aab",
            "fixture-format": "blockchain_test",
            "comment": "`execution-specs` generated test",
            "filling-transition-tool": "2.19.0",
            "description": "Test_static_execute_call_that_ask_fore_gas_then_trabsaction_has.",
            "url": "https://github.com/ethereum/execution-specs/blob/tests-sn\u00f8bal-devnet-4@v1.0.0/tests/ported_static/stStaticCall/test_static_execute_call_that_ask_fore_gas_then_trabsaction_has.py#L29",
            "metadata": {
                "opcode_count": {}
            }
        }
    },
    "tests/ported_static/stStaticCall/test_static_execute_call_that_ask_fore_gas_then_trabsaction_has.py::test_static_execute_call_that_ask_fore_gas_then_trabsaction_has[fork_Cancun-blockchain_test_from_state_test-d1]": {
        "network": "Cancun",
        "genesisBlockHeader": {
            "parentHash": "0x0000000000000000000000000000000000000000000000000000000000000000",
            "uncleHash": "0x1dcc4de8dec75d7aab85b567b6ccd41ad312451b948a7413f0a142fd40d49347",
            "coinbase": "0x0000000000000000000000000000000000000000",
            "stateRoot": "0x92e32cfc6f7a5597d1961d6ed1a0c6e0b2a2796657a08e3d55bcdbda14554406",
            "transactionsTrie": "0x56e81f171bcc55a6ff8345e692c0f86e5b48e01b996cadc001622fb5e363b421",
            "receiptTrie": "0x56e81f171bcc55a6ff8345e692c0f86e5b48e01b996cadc001622fb5e363b421",
            "bloom": "0x00000000000000000000000000000000000000000000000000000000000000000000000000000000000000000000000000000000000000000000000000000000000000000000000000000000000000000000000000000000000000000000000000000000000000000000000000000000000000000000000000000000000000000000000000000000000000000000000000000000000000000000000000000000000000000000000000000000000000000000000000000000000000000000000000000000000000000000000000000000000000000000000000000000000000000000000000000000000000000000000000000000000000000000000000000000",
            "difficulty": "0x00",
            "number": "0x00",
            "gasLimit": "0x989680",
            "gasUsed": "0x00",
            "timestamp": "0x00",
            "extraData": "0x00",
            "mixHash": "0x0000000000000000000000000000000000000000000000000000000000000000",
            "nonce": "0x0000000000000000",
            "baseFeePerGas": "0x0b",
            "withdrawalsRoot": "0x56e81f171bcc55a6ff8345e692c0f86e5b48e01b996cadc001622fb5e363b421",
            "blobGasUsed": "0x00",
            "excessBlobGas": "0x00",
            "parentBeaconBlockRoot": "0x0000000000000000000000000000000000000000000000000000000000000000",
            "hash": "0xa446028fc8b548219bdcb2aa8a8cb84d7e08fc781a4aa2041026c4569c2e740a"
        },
        "pre": {
            "0x000f3df6d732807ef1319fb7b8bb8522d0beac02": {
                "nonce": "0x01",
                "balance": "0x00",
                "code": "0x3373fffffffffffffffffffffffffffffffffffffffe14604d57602036146024575f5ffd5b5f35801560495762001fff810690815414603c575f5ffd5b62001fff01545f5260205ff35b5f5ffd5b62001fff42064281555f359062001fff015500",
                "storage": {}
            },
            "0xabbef90b4b6d86caa8d6d6cd7f673a15a8de2d61": {
                "nonce": "0x00",
                "balance": "0x989680",
                "code": "0x",
                "storage": {}
            },
            "0xa256ebcc5536cda56e04c39fe9584ecc7594a438": {
                "nonce": "0x00",
                "balance": "0x00",
                "code": "0x6000600060006000600035620927c0fa60015500",
                "storage": {}
            },
            "0x3dc16a13cf554533f380cc938a2c1ab04dac534f": {
                "nonce": "0x00",
                "balance": "0x0186a0",
                "code": "0x600160015200",
                "storage": {}
            },
            "0x73ef1878a0f2c9629dedc1b1e9be8d77dcf93688": {
                "nonce": "0x00",
                "balance": "0x0186a0",
                "code": "0x5b61c3506080511015601c5760013b506001608051016080526000565b00",
                "storage": {}
            },
            "0xce4ccbffaf450ae2126eb96dcd7c891f37764f20": {
                "nonce": "0x00",
                "balance": "0x0186a0",
                "code": "0x600160015500",
                "storage": {}
            }
        },
        "postState": {
            "0x000f3df6d732807ef1319fb7b8bb8522d0beac02": {
                "nonce": "0x01",
                "balance": "0x00",
                "code": "0x3373fffffffffffffffffffffffffffffffffffffffe14604d57602036146024575f5ffd5b5f35801560495762001fff810690815414603c575f5ffd5b62001fff01545f5260205ff35b5f5ffd5b62001fff42064281555f359062001fff015500",
                "storage": {
                    "0x03e8": "0x03e8"
                }
            },
            "0xabbef90b4b6d86caa8d6d6cd7f673a15a8de2d61": {
                "nonce": "0x01",
                "balance": "0x895440",
                "code": "0x",
                "storage": {}
            },
            "0xa256ebcc5536cda56e04c39fe9584ecc7594a438": {
                "nonce": "0x00",
                "balance": "0x00",
                "code": "0x6000600060006000600035620927c0fa60015500",
                "storage": {}
            },
            "0x3dc16a13cf554533f380cc938a2c1ab04dac534f": {
                "nonce": "0x00",
                "balance": "0x0186a0",
                "code": "0x600160015200",
                "storage": {}
            },
            "0x73ef1878a0f2c9629dedc1b1e9be8d77dcf93688": {
                "nonce": "0x00",
                "balance": "0x0186a0",
                "code": "0x5b61c3506080511015601c5760013b506001608051016080526000565b00",
                "storage": {}
            },
            "0xce4ccbffaf450ae2126eb96dcd7c891f37764f20": {
                "nonce": "0x00",
                "balance": "0x0186a0",
                "code": "0x600160015500",
                "storage": {}
            }
        },
        "lastblockhash": "0xe37ce924cad1e9faf34d7a7cecab9a448cde122f8dc9f37ca270c82ba69271e9",
        "config": {
            "network": "Cancun",
            "chainid": "0x01",
            "blobSchedule": {
                "Cancun": {
                    "target": "0x03",
                    "max": "0x06",
                    "baseFeeUpdateFraction": "0x32f0ed"
                }
            }
        },
        "genesisRLP": "0xf9023bf90235a00000000000000000000000000000000000000000000000000000000000000000a01dcc4de8dec75d7aab85b567b6ccd41ad312451b948a7413f0a142fd40d49347940000000000000000000000000000000000000000a092e32cfc6f7a5597d1961d6ed1a0c6e0b2a2796657a08e3d55bcdbda14554406a056e81f171bcc55a6ff8345e692c0f86e5b48e01b996cadc001622fb5e363b421a056e81f171bcc55a6ff8345e692c0f86e5b48e01b996cadc001622fb5e363b421b9010000000000000000000000000000000000000000000000000000000000000000000000000000000000000000000000000000000000000000000000000000000000000000000000000000000000000000000000000000000000000000000000000000000000000000000000000000000000000000000000000000000000000000000000000000000000000000000000000000000000000000000000000000000000000000000000000000000000000000000000000000000000000000000000000000000000000000000000000000000000000000000000000000000000000000000000000000000000000000000000000000000000000000000000000000000000808083989680808000a000000000000000000000000000000000000000000000000000000000000000008800000000000000000ba056e81f171bcc55a6ff8345e692c0f86e5b48e01b996cadc001622fb5e363b4218080a00000000000000000000000000000000000000000000000000000000000000000c0c0c0",
        "blocks": [
            {
                "blockHeader": {
                    "parentHash": "0xa446028fc8b548219bdcb2aa8a8cb84d7e08fc781a4aa2041026c4569c2e740a",
                    "uncleHash": "0x1dcc4de8dec75d7aab85b567b6ccd41ad312451b948a7413f0a142fd40d49347",
                    "coinbase": "0x2adc25665018aa1fe0e6bc666dac8fc2697ff9ba",
                    "stateRoot": "0x064c10cd173c57e7c0b93918c42df363a487fd501a171ad8e78c5936a643cabf",
                    "transactionsTrie": "0x5db77ce749da595682e028a39e0a6a9e0cd3d87154afcec1597d6b6f4dbeb8ab",
                    "receiptTrie": "0x777f1c1c378807634128348e4f0eeca6a0e7f516ea411690ca04266323f671a4",
                    "bloom": "0x00000000000000000000000000000000000000000000000000000000000000000000000000000000000000000000000000000000000000000000000000000000000000000000000000000000000000000000000000000000000000000000000000000000000000000000000000000000000000000000000000000000000000000000000000000000000000000000000000000000000000000000000000000000000000000000000000000000000000000000000000000000000000000000000000000000000000000000000000000000000000000000000000000000000000000000000000000000000000000000000000000000000000000000000000000000",
                    "difficulty": "0x00",
                    "number": "0x01",
                    "gasLimit": "0x989680",
                    "gasUsed": "0x0186a0",
                    "timestamp": "0x03e8",
                    "extraData": "0x00",
                    "mixHash": "0x0000000000000000000000000000000000000000000000000000000000020000",
                    "nonce": "0x0000000000000000",
                    "baseFeePerGas": "0x0a",
                    "withdrawalsRoot": "0x56e81f171bcc55a6ff8345e692c0f86e5b48e01b996cadc001622fb5e363b421",
                    "blobGasUsed": "0x00",
                    "excessBlobGas": "0x00",
                    "parentBeaconBlockRoot": "0x0000000000000000000000000000000000000000000000000000000000000000",
                    "hash": "0xe37ce924cad1e9faf34d7a7cecab9a448cde122f8dc9f37ca270c82ba69271e9"
                },
                "transactions": [
                    {
                        "type": "0x00",
                        "chainId": "0x01",
                        "nonce": "0x00",
                        "gasPrice": "0x0a",
                        "gasLimit": "0x0186a0",
                        "to": "0xa256ebcc5536cda56e04c39fe9584ecc7594a438",
                        "value": "0x00",
                        "data": "0x00000000000000000000000073ef1878a0f2c9629dedc1b1e9be8d77dcf93688",
                        "v": "0x26",
                        "r": "0x6a4860e8dbfdca30389da3b94427a2e7213e837a51761148d63b18e24efe4e48",
                        "s": "0x1cfc76d499399ea77243cee62c3542b04dfb5c675a50b4cb28644e91937d4a2e",
                        "sender": "0xabbef90b4b6d86caa8d6d6cd7f673a15a8de2d61"
                    }
                ],
                "uncleHeaders": [],
                "withdrawals": [],
                "receipts": [
                    {
                        "transactionHash": "0xc700d66bea017b0020bd00f3d1041e132a9a79da11e45396aeb52faa5a3fc772",
                        "type": "0x00",
                        "cumulativeGasUsed": "0x0186a0",
                        "bloom": "0x00000000000000000000000000000000000000000000000000000000000000000000000000000000000000000000000000000000000000000000000000000000000000000000000000000000000000000000000000000000000000000000000000000000000000000000000000000000000000000000000000000000000000000000000000000000000000000000000000000000000000000000000000000000000000000000000000000000000000000000000000000000000000000000000000000000000000000000000000000000000000000000000000000000000000000000000000000000000000000000000000000000000000000000000000000000",
                        "logs": [],
                        "status": false,
                        "rlp": "0xf9010980830186a0b9010000000000000000000000000000000000000000000000000000000000000000000000000000000000000000000000000000000000000000000000000000000000000000000000000000000000000000000000000000000000000000000000000000000000000000000000000000000000000000000000000000000000000000000000000000000000000000000000000000000000000000000000000000000000000000000000000000000000000000000000000000000000000000000000000000000000000000000000000000000000000000000000000000000000000000000000000000000000000000000000000000000000000000000000000000000000c0"
                    }
                ],
                "rlp": "0xf902c3f9023aa0a446028fc8b548219bdcb2aa8a8cb84d7e08fc781a4aa2041026c4569c2e740aa01dcc4de8dec75d7aab85b567b6ccd41ad312451b948a7413f0a142fd40d49347942adc25665018aa1fe0e6bc666dac8fc2697ff9baa0064c10cd173c57e7c0b93918c42df363a487fd501a171ad8e78c5936a643cabfa05db77ce749da595682e028a39e0a6a9e0cd3d87154afcec1597d6b6f4dbeb8aba0777f1c1c378807634128348e4f0eeca6a0e7f516ea411690ca04266323f671a4b9010000000000000000000000000000000000000000000000000000000000000000000000000000000000000000000000000000000000000000000000000000000000000000000000000000000000000000000000000000000000000000000000000000000000000000000000000000000000000000000000000000000000000000000000000000000000000000000000000000000000000000000000000000000000000000000000000000000000000000000000000000000000000000000000000000000000000000000000000000000000000000000000000000000000000000000000000000000000000000000000000000000000000000000000000000000000800183989680830186a08203e800a000000000000000000000000000000000000000000000000000000000000200008800000000000000000aa056e81f171bcc55a6ff8345e692c0f86e5b48e01b996cadc001622fb5e363b4218080a00000000000000000000000000000000000000000000000000000000000000000f882f880800a830186a094a256ebcc5536cda56e04c39fe9584ecc7594a43880a000000000000000000000000073ef1878a0f2c9629dedc1b1e9be8d77dcf9368826a06a4860e8dbfdca30389da3b94427a2e7213e837a51761148d63b18e24efe4e48a01cfc76d499399ea77243cee62c3542b04dfb5c675a50b4cb28644e91937d4a2ec0c0",
                "blocknumber": "1"
            }
        ],
        "sealEngine": "NoProof",
        "_info": {
            "hash": "0xcb7bbc39a23b7502afbef2d28506ee509c02cad22ca0830def5a6a62405c9bc9",
            "fixture-format": "blockchain_test",
            "comment": "`execution-specs` generated test",
            "filling-transition-tool": "2.19.0",
            "description": "Test_static_execute_call_that_ask_fore_gas_then_trabsaction_has.",
            "url": "https://github.com/ethereum/execution-specs/blob/tests-sn\u00f8bal-devnet-4@v1.0.0/tests/ported_static/stStaticCall/test_static_execute_call_that_ask_fore_gas_then_trabsaction_has.py#L29",
            "metadata": {
                "opcode_count": {}
            }
        }
    },
    "tests/ported_static/stStaticCall/test_static_execute_call_that_ask_fore_gas_then_trabsaction_has.py::test_static_execute_call_that_ask_fore_gas_then_trabsaction_has[fork_Cancun-blockchain_test_from_state_test-d2]": {
        "network": "Cancun",
        "genesisBlockHeader": {
            "parentHash": "0x0000000000000000000000000000000000000000000000000000000000000000",
            "uncleHash": "0x1dcc4de8dec75d7aab85b567b6ccd41ad312451b948a7413f0a142fd40d49347",
            "coinbase": "0x0000000000000000000000000000000000000000",
            "stateRoot": "0x92e32cfc6f7a5597d1961d6ed1a0c6e0b2a2796657a08e3d55bcdbda14554406",
            "transactionsTrie": "0x56e81f171bcc55a6ff8345e692c0f86e5b48e01b996cadc001622fb5e363b421",
            "receiptTrie": "0x56e81f171bcc55a6ff8345e692c0f86e5b48e01b996cadc001622fb5e363b421",
            "bloom": "0x00000000000000000000000000000000000000000000000000000000000000000000000000000000000000000000000000000000000000000000000000000000000000000000000000000000000000000000000000000000000000000000000000000000000000000000000000000000000000000000000000000000000000000000000000000000000000000000000000000000000000000000000000000000000000000000000000000000000000000000000000000000000000000000000000000000000000000000000000000000000000000000000000000000000000000000000000000000000000000000000000000000000000000000000000000000",
            "difficulty": "0x00",
            "number": "0x00",
            "gasLimit": "0x989680",
            "gasUsed": "0x00",
            "timestamp": "0x00",
            "extraData": "0x00",
            "mixHash": "0x0000000000000000000000000000000000000000000000000000000000000000",
            "nonce": "0x0000000000000000",
            "baseFeePerGas": "0x0b",
            "withdrawalsRoot": "0x56e81f171bcc55a6ff8345e692c0f86e5b48e01b996cadc001622fb5e363b421",
            "blobGasUsed": "0x00",
            "excessBlobGas": "0x00",
            "parentBeaconBlockRoot": "0x0000000000000000000000000000000000000000000000000000000000000000",
            "hash": "0xa446028fc8b548219bdcb2aa8a8cb84d7e08fc781a4aa2041026c4569c2e740a"
        },
        "pre": {
            "0x000f3df6d732807ef1319fb7b8bb8522d0beac02": {
                "nonce": "0x01",
                "balance": "0x00",
                "code": "0x3373fffffffffffffffffffffffffffffffffffffffe14604d57602036146024575f5ffd5b5f35801560495762001fff810690815414603c575f5ffd5b62001fff01545f5260205ff35b5f5ffd5b62001fff42064281555f359062001fff015500",
                "storage": {}
            },
            "0xabbef90b4b6d86caa8d6d6cd7f673a15a8de2d61": {
                "nonce": "0x00",
                "balance": "0x989680",
                "code": "0x",
                "storage": {}
            },
            "0xa256ebcc5536cda56e04c39fe9584ecc7594a438": {
                "nonce": "0x00",
                "balance": "0x00",
                "code": "0x6000600060006000600035620927c0fa60015500",
                "storage": {}
            },
            "0x3dc16a13cf554533f380cc938a2c1ab04dac534f": {
                "nonce": "0x00",
                "balance": "0x0186a0",
                "code": "0x600160015200",
                "storage": {}
            },
            "0x73ef1878a0f2c9629dedc1b1e9be8d77dcf93688": {
                "nonce": "0x00",
                "balance": "0x0186a0",
                "code": "0x5b61c3506080511015601c5760013b506001608051016080526000565b00",
                "storage": {}
            },
            "0xce4ccbffaf450ae2126eb96dcd7c891f37764f20": {
                "nonce": "0x00",
                "balance": "0x0186a0",
                "code": "0x600160015500",
                "storage": {}
            }
        },
        "postState": {
            "0x000f3df6d732807ef1319fb7b8bb8522d0beac02": {
                "nonce": "0x01",
                "balance": "0x00",
                "code": "0x3373fffffffffffffffffffffffffffffffffffffffe14604d57602036146024575f5ffd5b5f35801560495762001fff810690815414603c575f5ffd5b62001fff01545f5260205ff35b5f5ffd5b62001fff42064281555f359062001fff015500",
                "storage": {
                    "0x03e8": "0x03e8"
                }
            },
            "0xabbef90b4b6d86caa8d6d6cd7f673a15a8de2d61": {
                "nonce": "0x01",
                "balance": "0x895440",
                "code": "0x",
                "storage": {}
            },
            "0xa256ebcc5536cda56e04c39fe9584ecc7594a438": {
                "nonce": "0x00",
                "balance": "0x00",
                "code": "0x6000600060006000600035620927c0fa60015500",
                "storage": {}
            },
            "0x3dc16a13cf554533f380cc938a2c1ab04dac534f": {
                "nonce": "0x00",
                "balance": "0x0186a0",
                "code": "0x600160015200",
                "storage": {}
            },
            "0x73ef1878a0f2c9629dedc1b1e9be8d77dcf93688": {
                "nonce": "0x00",
                "balance": "0x0186a0",
                "code": "0x5b61c3506080511015601c5760013b506001608051016080526000565b00",
                "storage": {}
            },
            "0xce4ccbffaf450ae2126eb96dcd7c891f37764f20": {
                "nonce": "0x00",
                "balance": "0x0186a0",
                "code": "0x600160015500",
                "storage": {}
            }
        },
        "lastblockhash": "0x4e82bf60bfdd6484c4f75c90f15d39d2c877bd43263760a00244663258768ece",
        "config": {
            "network": "Cancun",
            "chainid": "0x01",
            "blobSchedule": {
                "Cancun": {
                    "target": "0x03",
                    "max": "0x06",
                    "baseFeeUpdateFraction": "0x32f0ed"
                }
            }
        },
        "genesisRLP": "0xf9023bf90235a00000000000000000000000000000000000000000000000000000000000000000a01dcc4de8dec75d7aab85b567b6ccd41ad312451b948a7413f0a142fd40d49347940000000000000000000000000000000000000000a092e32cfc6f7a5597d1961d6ed1a0c6e0b2a2796657a08e3d55bcdbda14554406a056e81f171bcc55a6ff8345e692c0f86e5b48e01b996cadc001622fb5e363b421a056e81f171bcc55a6ff8345e692c0f86e5b48e01b996cadc001622fb5e363b421b9010000000000000000000000000000000000000000000000000000000000000000000000000000000000000000000000000000000000000000000000000000000000000000000000000000000000000000000000000000000000000000000000000000000000000000000000000000000000000000000000000000000000000000000000000000000000000000000000000000000000000000000000000000000000000000000000000000000000000000000000000000000000000000000000000000000000000000000000000000000000000000000000000000000000000000000000000000000000000000000000000000000000000000000000000000000000808083989680808000a000000000000000000000000000000000000000000000000000000000000000008800000000000000000ba056e81f171bcc55a6ff8345e692c0f86e5b48e01b996cadc001622fb5e363b4218080a00000000000000000000000000000000000000000000000000000000000000000c0c0c0",
        "blocks": [
            {
                "blockHeader": {
                    "parentHash": "0xa446028fc8b548219bdcb2aa8a8cb84d7e08fc781a4aa2041026c4569c2e740a",
                    "uncleHash": "0x1dcc4de8dec75d7aab85b567b6ccd41ad312451b948a7413f0a142fd40d49347",
                    "coinbase": "0x2adc25665018aa1fe0e6bc666dac8fc2697ff9ba",
                    "stateRoot": "0x064c10cd173c57e7c0b93918c42df363a487fd501a171ad8e78c5936a643cabf",
                    "transactionsTrie": "0x7d3485d654270cda068f592bd27952947800c3f0b31746f7e1441d441eff0a19",
                    "receiptTrie": "0x777f1c1c378807634128348e4f0eeca6a0e7f516ea411690ca04266323f671a4",
                    "bloom": "0x00000000000000000000000000000000000000000000000000000000000000000000000000000000000000000000000000000000000000000000000000000000000000000000000000000000000000000000000000000000000000000000000000000000000000000000000000000000000000000000000000000000000000000000000000000000000000000000000000000000000000000000000000000000000000000000000000000000000000000000000000000000000000000000000000000000000000000000000000000000000000000000000000000000000000000000000000000000000000000000000000000000000000000000000000000000",
                    "difficulty": "0x00",
                    "number": "0x01",
                    "gasLimit": "0x989680",
                    "gasUsed": "0x0186a0",
                    "timestamp": "0x03e8",
                    "extraData": "0x00",
                    "mixHash": "0x0000000000000000000000000000000000000000000000000000000000020000",
                    "nonce": "0x0000000000000000",
                    "baseFeePerGas": "0x0a",
                    "withdrawalsRoot": "0x56e81f171bcc55a6ff8345e692c0f86e5b48e01b996cadc001622fb5e363b421",
                    "blobGasUsed": "0x00",
                    "excessBlobGas": "0x00",
                    "parentBeaconBlockRoot": "0x0000000000000000000000000000000000000000000000000000000000000000",
                    "hash": "0x4e82bf60bfdd6484c4f75c90f15d39d2c877bd43263760a00244663258768ece"
                },
                "transactions": [
                    {
                        "type": "0x00",
                        "chainId": "0x01",
                        "nonce": "0x00",
                        "gasPrice": "0x0a",
                        "gasLimit": "0x0186a0",
                        "to": "0xa256ebcc5536cda56e04c39fe9584ecc7594a438",
                        "value": "0x00",
                        "data": "0x000000000000000000000000ce4ccbffaf450ae2126eb96dcd7c891f37764f20",
                        "v": "0x26",
                        "r": "0x7c5250a4677db2046a4d0dd4a7e8b6678079a5c2eac6f79fa1bd3191c41ad612",
                        "s": "0x15bb6d73ab66fa468fb14e0445c25ebb7f5f4360b591bd358f77d2948cec7cd5",
                        "sender": "0xabbef90b4b6d86caa8d6d6cd7f673a15a8de2d61"
                    }
                ],
                "uncleHeaders": [],
                "withdrawals": [],
                "receipts": [
                    {
                        "transactionHash": "0x4c4bf27bddf4c0fba57c670c1cd565e46231aceb53dd7dfc21af29e3468d0e6e",
                        "type": "0x00",
                        "cumulativeGasUsed": "0x0186a0",
                        "bloom": "0x00000000000000000000000000000000000000000000000000000000000000000000000000000000000000000000000000000000000000000000000000000000000000000000000000000000000000000000000000000000000000000000000000000000000000000000000000000000000000000000000000000000000000000000000000000000000000000000000000000000000000000000000000000000000000000000000000000000000000000000000000000000000000000000000000000000000000000000000000000000000000000000000000000000000000000000000000000000000000000000000000000000000000000000000000000000",
                        "logs": [],
                        "status": false,
                        "rlp": "0xf9010980830186a0b9010000000000000000000000000000000000000000000000000000000000000000000000000000000000000000000000000000000000000000000000000000000000000000000000000000000000000000000000000000000000000000000000000000000000000000000000000000000000000000000000000000000000000000000000000000000000000000000000000000000000000000000000000000000000000000000000000000000000000000000000000000000000000000000000000000000000000000000000000000000000000000000000000000000000000000000000000000000000000000000000000000000000000000000000000000000000c0"
                    }
                ],
                "rlp": "0xf902c3f9023aa0a446028fc8b548219bdcb2aa8a8cb84d7e08fc781a4aa2041026c4569c2e740aa01dcc4de8dec75d7aab85b567b6ccd41ad312451b948a7413f0a142fd40d49347942adc25665018aa1fe0e6bc666dac8fc2697ff9baa0064c10cd173c57e7c0b93918c42df363a487fd501a171ad8e78c5936a643cabfa07d3485d654270cda068f592bd27952947800c3f0b31746f7e1441d441eff0a19a0777f1c1c378807634128348e4f0eeca6a0e7f516ea411690ca04266323f671a4b9010000000000000000000000000000000000000000000000000000000000000000000000000000000000000000000000000000000000000000000000000000000000000000000000000000000000000000000000000000000000000000000000000000000000000000000000000000000000000000000000000000000000000000000000000000000000000000000000000000000000000000000000000000000000000000000000000000000000000000000000000000000000000000000000000000000000000000000000000000000000000000000000000000000000000000000000000000000000000000000000000000000000000000000000000000000000800183989680830186a08203e800a000000000000000000000000000000000000000000000000000000000000200008800000000000000000aa056e81f171bcc55a6ff8345e692c0f86e5b48e01b996cadc001622fb5e363b4218080a00000000000000000000000000000000000000000000000000000000000000000f882f880800a830186a094a256ebcc5536cda56e04c39fe9584ecc7594a43880a0000000000000000000000000ce4ccbffaf450ae2126eb96dcd7c891f37764f2026a07c5250a4677db2046a4d0dd4a7e8b6678079a5c2eac6f79fa1bd3191c41ad612a015bb6d73ab66fa468fb14e0445c25ebb7f5f4360b591bd358f77d2948cec7cd5c0c0",
                "blocknumber": "1"
            }
        ],
        "sealEngine": "NoProof",
        "_info": {
            "hash": "0x1659c5cdfc8f4e4f88df9decf097acb0731522ffbccae43d444095b536800edd",
            "fixture-format": "blockchain_test",
            "comment": "`execution-specs` generated test",
            "filling-transition-tool": "2.19.0",
            "description": "Test_static_execute_call_that_ask_fore_gas_then_trabsaction_has.",
            "url": "https://github.com/ethereum/execution-specs/blob/tests-sn\u00f8bal-devnet-4@v1.0.0/tests/ported_static/stStaticCall/test_static_execute_call_that_ask_fore_gas_then_trabsaction_has.py#L29",
            "metadata": {
                "opcode_count": {}
            }
        }
    }
}