{
    "tests/ported_static/stInitCodeTest/test_call_contract_to_create_contract_which_would_create_contract_in_init_code.py::test_call_contract_to_create_contract_which_would_create_contract_in_init_code[fork_Cancun-blockchain_test_from_state_test]": {
        "network": "Cancun",
        "genesisBlockHeader": {
            "parentHash": "0x0000000000000000000000000000000000000000000000000000000000000000",
            "uncleHash": "0x1dcc4de8dec75d7aab85b567b6ccd41ad312451b948a7413f0a142fd40d49347",
            "coinbase": "0x0000000000000000000000000000000000000000",
            "stateRoot": "0xa1814e43d412e8a4b1b86d37901f7f3b102a2c24db308095d336a82e08709363",
            "transactionsTrie": "0x56e81f171bcc55a6ff8345e692c0f86e5b48e01b996cadc001622fb5e363b421",
            "receiptTrie": "0x56e81f171bcc55a6ff8345e692c0f86e5b48e01b996cadc001622fb5e363b421",
            "bloom": "0x00000000000000000000000000000000000000000000000000000000000000000000000000000000000000000000000000000000000000000000000000000000000000000000000000000000000000000000000000000000000000000000000000000000000000000000000000000000000000000000000000000000000000000000000000000000000000000000000000000000000000000000000000000000000000000000000000000000000000000000000000000000000000000000000000000000000000000000000000000000000000000000000000000000000000000000000000000000000000000000000000000000000000000000000000000000",
            "difficulty": "0x00",
            "number": "0x00",
            "gasLimit": "0x07270e00",
            "gasUsed": "0x00",
            "timestamp": "0x00",
            "extraData": "0x00",
            "mixHash": "0x0000000000000000000000000000000000000000000000000000000000000000",
            "nonce": "0x0000000000000000",
            "baseFeePerGas": "0x0b",
            "withdrawalsRoot": "0x56e81f171bcc55a6ff8345e692c0f86e5b48e01b996cadc001622fb5e363b421",
            "blobGasUsed": "0x00",
            "excessBlobGas": "0x00",
            "parentBeaconBlockRoot": "0x0000000000000000000000000000000000000000000000000000000000000000",
            "hash": "0xd67c858297d542c0f9f98e4d5182aa9621b3bd01efb16567698e16bf41ce937d"
        },
        "pre": {
            "0x000f3df6d732807ef1319fb7b8bb8522d0beac02": {
                "nonce": "0x01",
                "balance": "0x00",
                "code": "0x3373fffffffffffffffffffffffffffffffffffffffe14604d57602036146024575f5ffd5b5f35801560495762001fff810690815414603c575f5ffd5b62001fff01545f5260205ff35b5f5ffd5b62001fff42064281555f359062001fff015500",
                "storage": {}
            },
            "0x60478971839c84963db1986c096a4f416ff31f42": {
                "nonce": "0x00",
                "balance": "0x3b9aca00",
                "code": "0x",
                "storage": {}
            },
            "0xa7dcd10afdc82ee0dc3842b96ee7b591b90510d1": {
                "nonce": "0x00",
                "balance": "0x01",
                "code": "0x6b600c600055602060406000f0600052600c60146000f000",
                "storage": {}
            }
        },
        "postState": {
            "0x000f3df6d732807ef1319fb7b8bb8522d0beac02": {
                "nonce": "0x01",
                "balance": "0x00",
                "code": "0x3373fffffffffffffffffffffffffffffffffffffffe14604d57602036146024575f5ffd5b5f35801560495762001fff810690815414603c575f5ffd5b62001fff01545f5260205ff35b5f5ffd5b62001fff42064281555f359062001fff015500",
                "storage": {
                    "0x03e8": "0x03e8"
                }
            },
            "0x60478971839c84963db1986c096a4f416ff31f42": {
                "nonce": "0x01",
                "balance": "0x3b8a7056",
                "code": "0x",
                "storage": {}
            },
            "0xa7dcd10afdc82ee0dc3842b96ee7b591b90510d1": {
                "nonce": "0x01",
                "balance": "0x01",
                "code": "0x6b600c600055602060406000f0600052600c60146000f000",
                "storage": {}
            },
            "0x753c1780a33063aa0506b958b328ed5803516849": {
                "nonce": "0x02",
                "balance": "0x00",
                "code": "0x",
                "storage": {
                    "0x00": "0x0c"
                }
            },
            "0x5f6c06c99e032249c219e54d045b7bd90e3dc070": {
                "nonce": "0x01",
                "balance": "0x00",
                "code": "0x",
                "storage": {}
            }
        },
        "lastblockhash": "0x0fb68312b2b79e8647b64e0f802de52be7ace9af41e806172ea32e8ccabd345e",
        "config": {
            "network": "Cancun",
            "chainid": "0x01",
            "blobSchedule": {
                "Cancun": {
                    "target": "0x03",
                    "max": "0x06",
                    "baseFeeUpdateFraction": "0x32f0ed"
                }
            }
        },
        "genesisRLP": "0xf9023cf90236a00000000000000000000000000000000000000000000000000000000000000000a01dcc4de8dec75d7aab85b567b6ccd41ad312451b948a7413f0a142fd40d49347940000000000000000000000000000000000000000a0a1814e43d412e8a4b1b86d37901f7f3b102a2c24db308095d336a82e08709363a056e81f171bcc55a6ff8345e692c0f86e5b48e01b996cadc001622fb5e363b421a056e81f171bcc55a6ff8345e692c0f86e5b48e01b996cadc001622fb5e363b421b901000000000000000000000000000000000000000000000000000000000000000000000000000000000000000000000000000000000000000000000000000000000000000000000000000000000000000000000000000000000000000000000000000000000000000000000000000000000000000000000000000000000000000000000000000000000000000000000000000000000000000000000000000000000000000000000000000000000000000000000000000000000000000000000000000000000000000000000000000000000000000000000000000000000000000000000000000000000000000000000000000000000000000000000000000000000080808407270e00808000a000000000000000000000000000000000000000000000000000000000000000008800000000000000000ba056e81f171bcc55a6ff8345e692c0f86e5b48e01b996cadc001622fb5e363b4218080a00000000000000000000000000000000000000000000000000000000000000000c0c0c0",
        "blocks": [
            {
                "blockHeader": {
                    "parentHash": "0xd67c858297d542c0f9f98e4d5182aa9621b3bd01efb16567698e16bf41ce937d",
                    "uncleHash": "0x1dcc4de8dec75d7aab85b567b6ccd41ad312451b948a7413f0a142fd40d49347",
                    "coinbase": "0x2adc25665018aa1fe0e6bc666dac8fc2697ff9ba",
                    "stateRoot": "0x6aa9185be1133136b8699971fc9fad0ab4afa1d358cf6333cc2e742b4937bd07",
                    "transactionsTrie": "0xc2c5aac9d643991d47cb5d1e36a824155e6359b70e2a2460bf35ca0f8277ada3",
                    "receiptTrie": "0xd3a36bc64cb2e5057cdd26cf4a92da2381e76a3a1c527a8a267acfa0fbbe3c10",
                    "bloom": "0x00000000000000000000000000000000000000000000000000000000000000000000000000000000000000000000000000000000000000000000000000000000000000000000000000000000000000000000000000000000000000000000000000000000000000000000000000000000000000000000000000000000000000000000000000000000000000000000000000000000000000000000000000000000000000000000000000000000000000000000000000000000000000000000000000000000000000000000000000000000000000000000000000000000000000000000000000000000000000000000000000000000000000000000000000000000",
                    "difficulty": "0x00",
                    "number": "0x01",
                    "gasLimit": "0x07270e00",
                    "gasUsed": "0x01a291",
                    "timestamp": "0x03e8",
                    "extraData": "0x00",
                    "mixHash": "0x0000000000000000000000000000000000000000000000000000000000020000",
                    "nonce": "0x0000000000000000",
                    "baseFeePerGas": "0x0a",
                    "withdrawalsRoot": "0x56e81f171bcc55a6ff8345e692c0f86e5b48e01b996cadc001622fb5e363b421",
                    "blobGasUsed": "0x00",
                    "excessBlobGas": "0x00",
                    "parentBeaconBlockRoot": "0x0000000000000000000000000000000000000000000000000000000000000000",
                    "hash": "0x0fb68312b2b79e8647b64e0f802de52be7ace9af41e806172ea32e8ccabd345e"
                },
                "transactions": [
                    {
                        "type": "0x00",
                        "chainId": "0x01",
                        "nonce": "0x00",
                        "gasPrice": "0x0a",
                        "gasLimit": "0x030d40",
                        "to": "0xa7dcd10afdc82ee0dc3842b96ee7b591b90510d1",
                        "value": "0x00",
                        "data": "0x00",
                        "v": "0x26",
                        "r": "0xfcfc88e9b21ea12845bf3cffcb87074255d0bf8c449f02907b7e5fe5b0d234ae",
                        "s": "0x1a2669917876755af95d910e5077366a37fe6f55cb9e0a9d3341106cf61e0306",
                        "sender": "0x60478971839c84963db1986c096a4f416ff31f42"
                    }
                ],
                "uncleHeaders": [],
                "withdrawals": [],
                "receipts": [
                    {
                        "transactionHash": "0xb3b914413ac2c0eb91dbc5c6a3029ae0adae6160edab47524d16f5a7b8ea44d8",
                        "type": "0x00",
                        "cumulativeGasUsed": "0x01a291",
                        "bloom": "0x00000000000000000000000000000000000000000000000000000000000000000000000000000000000000000000000000000000000000000000000000000000000000000000000000000000000000000000000000000000000000000000000000000000000000000000000000000000000000000000000000000000000000000000000000000000000000000000000000000000000000000000000000000000000000000000000000000000000000000000000000000000000000000000000000000000000000000000000000000000000000000000000000000000000000000000000000000000000000000000000000000000000000000000000000000000",
                        "logs": [],
                        "status": true,
                        "rlp": "0xf90109018301a291b9010000000000000000000000000000000000000000000000000000000000000000000000000000000000000000000000000000000000000000000000000000000000000000000000000000000000000000000000000000000000000000000000000000000000000000000000000000000000000000000000000000000000000000000000000000000000000000000000000000000000000000000000000000000000000000000000000000000000000000000000000000000000000000000000000000000000000000000000000000000000000000000000000000000000000000000000000000000000000000000000000000000000000000000000000000000000c0"
                    }
                ],
                "rlp": "0xf902a4f9023ba0d67c858297d542c0f9f98e4d5182aa9621b3bd01efb16567698e16bf41ce937da01dcc4de8dec75d7aab85b567b6ccd41ad312451b948a7413f0a142fd40d49347942adc25665018aa1fe0e6bc666dac8fc2697ff9baa06aa9185be1133136b8699971fc9fad0ab4afa1d358cf6333cc2e742b4937bd07a0c2c5aac9d643991d47cb5d1e36a824155e6359b70e2a2460bf35ca0f8277ada3a0d3a36bc64cb2e5057cdd26cf4a92da2381e76a3a1c527a8a267acfa0fbbe3c10b901000000000000000000000000000000000000000000000000000000000000000000000000000000000000000000000000000000000000000000000000000000000000000000000000000000000000000000000000000000000000000000000000000000000000000000000000000000000000000000000000000000000000000000000000000000000000000000000000000000000000000000000000000000000000000000000000000000000000000000000000000000000000000000000000000000000000000000000000000000000000000000000000000000000000000000000000000000000000000000000000000000000000000000000000000000000080018407270e008301a2918203e800a000000000000000000000000000000000000000000000000000000000000200008800000000000000000aa056e81f171bcc55a6ff8345e692c0f86e5b48e01b996cadc001622fb5e363b4218080a00000000000000000000000000000000000000000000000000000000000000000f862f860800a83030d4094a7dcd10afdc82ee0dc3842b96ee7b591b90510d1800026a0fcfc88e9b21ea12845bf3cffcb87074255d0bf8c449f02907b7e5fe5b0d234aea01a2669917876755af95d910e5077366a37fe6f55cb9e0a9d3341106cf61e0306c0c0",
                "blocknumber": "1"
            }
        ],
        "sealEngine": "NoProof",
        "_info": {
            "hash": "0x764f1762798753500a10253fa34fc87dd1198afa71d4353cb13d2c340cbc4b03",
            "fixture-format": "blockchain_test",
            "comment": "`execution-specs` generated test",
            "filling-transition-tool": "2.19.0",
            "description": "Test_call_contract_to_create_contract_which_would_create_contract_i...",
            "url": "https://github.com/ethereum/execution-specs/blob/tests-snobal-devnet-5@v8037.0.0/tests/ported_static/stInitCodeTest/test_call_contract_to_create_contract_which_would_create_contract_in_init_code.py#L27",
            "metadata": {
                "opcode_count": {}
            }
        }
    }
}