{
    "tests/ported_static/stStaticCall/test_static_callcallcodecallcode_011_oogm_before.py::test_static_callcallcodecallcode_011_oogm_before[fork_Cancun-blockchain_test_from_state_test-d0]": {
        "network": "Cancun",
        "genesisBlockHeader": {
            "parentHash": "0x0000000000000000000000000000000000000000000000000000000000000000",
            "uncleHash": "0x1dcc4de8dec75d7aab85b567b6ccd41ad312451b948a7413f0a142fd40d49347",
            "coinbase": "0x0000000000000000000000000000000000000000",
            "stateRoot": "0x44852e8edf51092a9aae4bc7127a528022fecacd0d62633235b8f3e189862f88",
            "transactionsTrie": "0x56e81f171bcc55a6ff8345e692c0f86e5b48e01b996cadc001622fb5e363b421",
            "receiptTrie": "0x56e81f171bcc55a6ff8345e692c0f86e5b48e01b996cadc001622fb5e363b421",
            "bloom": "0x00000000000000000000000000000000000000000000000000000000000000000000000000000000000000000000000000000000000000000000000000000000000000000000000000000000000000000000000000000000000000000000000000000000000000000000000000000000000000000000000000000000000000000000000000000000000000000000000000000000000000000000000000000000000000000000000000000000000000000000000000000000000000000000000000000000000000000000000000000000000000000000000000000000000000000000000000000000000000000000000000000000000000000000000000000000",
            "difficulty": "0x00",
            "number": "0x00",
            "gasLimit": "0x01c9c380",
            "gasUsed": "0x00",
            "timestamp": "0x00",
            "extraData": "0x00",
            "mixHash": "0x0000000000000000000000000000000000000000000000000000000000000000",
            "nonce": "0x0000000000000000",
            "baseFeePerGas": "0x0b",
            "withdrawalsRoot": "0x56e81f171bcc55a6ff8345e692c0f86e5b48e01b996cadc001622fb5e363b421",
            "blobGasUsed": "0x00",
            "excessBlobGas": "0x00",
            "parentBeaconBlockRoot": "0x0000000000000000000000000000000000000000000000000000000000000000",
            "hash": "0x7c4aaace70c10067e0d989928de9ebe3b2d40c606947df9f512cad815725a388"
        },
        "pre": {
            "0x000f3df6d732807ef1319fb7b8bb8522d0beac02": {
                "nonce": "0x01",
                "balance": "0x00",
                "code": "0x3373fffffffffffffffffffffffffffffffffffffffe14604d57602036146024575f5ffd5b5f35801560495762001fff810690815414603c575f5ffd5b62001fff01545f5260205ff35b5f5ffd5b62001fff42064281555f359062001fff015500",
                "storage": {}
            },
            "0xd66f224cbd2fabb21b17bb53c56118f32f62ebd6": {
                "nonce": "0x00",
                "balance": "0x0de0b6b3a7640000",
                "code": "0x",
                "storage": {}
            },
            "0xf752172f60d0024af14bee497ed232ab3a215362": {
                "nonce": "0x00",
                "balance": "0x00",
                "code": "0x60016003526040600060406000600035619c90f450600160035200",
                "storage": {}
            },
            "0x335c5531b84765a7626e6e76688f18b81be5259c": {
                "nonce": "0x00",
                "balance": "0x00",
                "code": "0x600160035200",
                "storage": {}
            },
            "0xd28b8e27785ddee975645e09e8631d7bcb4133f3": {
                "nonce": "0x00",
                "balance": "0x0de0b6b3a7640000",
                "code": "0x600035600052604060006040600073f752172f60d0024af14bee497ed232ab3a215362620249f0fa600055600160015500",
                "storage": {}
            },
            "0x25a467084f1402e7813d24d9904c6faefc4241c8": {
                "nonce": "0x00",
                "balance": "0x00",
                "code": "0x6001600355604060006040600073335c5531b84765a7626e6e76688f18b81be5259c614e34f450600160035200",
                "storage": {}
            },
            "0x9d3e6c1d2bc6290f0e7161adbb3ad1ec4770d0d3": {
                "nonce": "0x00",
                "balance": "0x00",
                "code": "0x5b61c3506080511015601c5760013b506001608051016080526000565b604060006040600073335c5531b84765a7626e6e76688f18b81be5259c614e34f450600160035200",
                "storage": {}
            }
        },
        "postState": {
            "0x000f3df6d732807ef1319fb7b8bb8522d0beac02": {
                "nonce": "0x01",
                "balance": "0x00",
                "code": "0x3373fffffffffffffffffffffffffffffffffffffffe14604d57602036146024575f5ffd5b5f35801560495762001fff810690815414603c575f5ffd5b62001fff01545f5260205ff35b5f5ffd5b62001fff42064281555f359062001fff015500",
                "storage": {
                    "0x03e8": "0x03e8"
                }
            },
            "0xd66f224cbd2fabb21b17bb53c56118f32f62ebd6": {
                "nonce": "0x01",
                "balance": "0x0de0b6b3a7531268",
                "code": "0x",
                "storage": {}
            },
            "0xf752172f60d0024af14bee497ed232ab3a215362": {
                "nonce": "0x00",
                "balance": "0x00",
                "code": "0x60016003526040600060406000600035619c90f450600160035200",
                "storage": {}
            },
            "0x335c5531b84765a7626e6e76688f18b81be5259c": {
                "nonce": "0x00",
                "balance": "0x00",
                "code": "0x600160035200",
                "storage": {}
            },
            "0xd28b8e27785ddee975645e09e8631d7bcb4133f3": {
                "nonce": "0x00",
                "balance": "0x0de0b6b3a7640000",
                "code": "0x600035600052604060006040600073f752172f60d0024af14bee497ed232ab3a215362620249f0fa600055600160015500",
                "storage": {
                    "0x00": "0x01",
                    "0x01": "0x01"
                }
            },
            "0x25a467084f1402e7813d24d9904c6faefc4241c8": {
                "nonce": "0x00",
                "balance": "0x00",
                "code": "0x6001600355604060006040600073335c5531b84765a7626e6e76688f18b81be5259c614e34f450600160035200",
                "storage": {}
            },
            "0x9d3e6c1d2bc6290f0e7161adbb3ad1ec4770d0d3": {
                "nonce": "0x00",
                "balance": "0x00",
                "code": "0x5b61c3506080511015601c5760013b506001608051016080526000565b604060006040600073335c5531b84765a7626e6e76688f18b81be5259c614e34f450600160035200",
                "storage": {}
            }
        },
        "lastblockhash": "0xf57ffb9e2ca9a8f3c69df9e56ec8f7b3b6ee774be5194a4812ffdecb48f7dd25",
        "config": {
            "network": "Cancun",
            "chainid": "0x01",
            "blobSchedule": {
                "Cancun": {
                    "target": "0x03",
                    "max": "0x06",
                    "baseFeeUpdateFraction": "0x32f0ed"
                }
            }
        },
        "genesisRLP": "0xf9023cf90236a00000000000000000000000000000000000000000000000000000000000000000a01dcc4de8dec75d7aab85b567b6ccd41ad312451b948a7413f0a142fd40d49347940000000000000000000000000000000000000000a044852e8edf51092a9aae4bc7127a528022fecacd0d62633235b8f3e189862f88a056e81f171bcc55a6ff8345e692c0f86e5b48e01b996cadc001622fb5e363b421a056e81f171bcc55a6ff8345e692c0f86e5b48e01b996cadc001622fb5e363b421b901000000000000000000000000000000000000000000000000000000000000000000000000000000000000000000000000000000000000000000000000000000000000000000000000000000000000000000000000000000000000000000000000000000000000000000000000000000000000000000000000000000000000000000000000000000000000000000000000000000000000000000000000000000000000000000000000000000000000000000000000000000000000000000000000000000000000000000000000000000000000000000000000000000000000000000000000000000000000000000000000000000000000000000000000000000000080808401c9c380808000a000000000000000000000000000000000000000000000000000000000000000008800000000000000000ba056e81f171bcc55a6ff8345e692c0f86e5b48e01b996cadc001622fb5e363b4218080a00000000000000000000000000000000000000000000000000000000000000000c0c0c0",
        "blocks": [
            {
                "blockHeader": {
                    "parentHash": "0x7c4aaace70c10067e0d989928de9ebe3b2d40c606947df9f512cad815725a388",
                    "uncleHash": "0x1dcc4de8dec75d7aab85b567b6ccd41ad312451b948a7413f0a142fd40d49347",
                    "coinbase": "0x2adc25665018aa1fe0e6bc666dac8fc2697ff9ba",
                    "stateRoot": "0xf043f14c71502bfe79a356109992d4211ba3082350de36c884d258b6adcd5bcd",
                    "transactionsTrie": "0xf400cda2d7561c80e2702d8ae8c06a052a1f37c5b0da9046a50abfdfa6053ae3",
                    "receiptTrie": "0x403369bc9b3ccd76217c0211ee0bd3cb4d64442cc1081a7f04be87efb0311d22",
                    "bloom": "0x00000000000000000000000000000000000000000000000000000000000000000000000000000000000000000000000000000000000000000000000000000000000000000000000000000000000000000000000000000000000000000000000000000000000000000000000000000000000000000000000000000000000000000000000000000000000000000000000000000000000000000000000000000000000000000000000000000000000000000000000000000000000000000000000000000000000000000000000000000000000000000000000000000000000000000000000000000000000000000000000000000000000000000000000000000000",
                    "difficulty": "0x00",
                    "number": "0x01",
                    "gasLimit": "0x01c9c380",
                    "gasUsed": "0x01b15c",
                    "timestamp": "0x03e8",
                    "extraData": "0x00",
                    "mixHash": "0x0000000000000000000000000000000000000000000000000000000000020000",
                    "nonce": "0x0000000000000000",
                    "baseFeePerGas": "0x0a",
                    "withdrawalsRoot": "0x56e81f171bcc55a6ff8345e692c0f86e5b48e01b996cadc001622fb5e363b421",
                    "blobGasUsed": "0x00",
                    "excessBlobGas": "0x00",
                    "parentBeaconBlockRoot": "0x0000000000000000000000000000000000000000000000000000000000000000",
                    "hash": "0xf57ffb9e2ca9a8f3c69df9e56ec8f7b3b6ee774be5194a4812ffdecb48f7dd25"
                },
                "transactions": [
                    {
                        "type": "0x00",
                        "chainId": "0x01",
                        "nonce": "0x00",
                        "gasPrice": "0x0a",
                        "gasLimit": "0x029fe0",
                        "to": "0xd28b8e27785ddee975645e09e8631d7bcb4133f3",
                        "value": "0x00",
                        "data": "0x00000000000000000000000025a467084f1402e7813d24d9904c6faefc4241c8",
                        "v": "0x25",
                        "r": "0xf4c48adcb63951b57a911278aff80c895b2e08835a936f5e2d9a85dd2d39e2f7",
                        "s": "0x05f052ffea2312290f288b0d957cca3d8fe2c2c910f493c7b061c23520234e64",
                        "sender": "0xd66f224cbd2fabb21b17bb53c56118f32f62ebd6"
                    }
                ],
                "uncleHeaders": [],
                "withdrawals": [],
                "receipts": [
                    {
                        "transactionHash": "0x9825c2c4c3a6ea2e8d1e9333a44298d35904f5af332dd34cd45e167e5f961ca5",
                        "type": "0x00",
                        "cumulativeGasUsed": "0x01b15c",
                        "bloom": "0x00000000000000000000000000000000000000000000000000000000000000000000000000000000000000000000000000000000000000000000000000000000000000000000000000000000000000000000000000000000000000000000000000000000000000000000000000000000000000000000000000000000000000000000000000000000000000000000000000000000000000000000000000000000000000000000000000000000000000000000000000000000000000000000000000000000000000000000000000000000000000000000000000000000000000000000000000000000000000000000000000000000000000000000000000000000",
                        "logs": [],
                        "status": true,
                        "rlp": "0xf90109018301b15cb9010000000000000000000000000000000000000000000000000000000000000000000000000000000000000000000000000000000000000000000000000000000000000000000000000000000000000000000000000000000000000000000000000000000000000000000000000000000000000000000000000000000000000000000000000000000000000000000000000000000000000000000000000000000000000000000000000000000000000000000000000000000000000000000000000000000000000000000000000000000000000000000000000000000000000000000000000000000000000000000000000000000000000000000000000000000000c0"
                    }
                ],
                "rlp": "0xf902c4f9023ba07c4aaace70c10067e0d989928de9ebe3b2d40c606947df9f512cad815725a388a01dcc4de8dec75d7aab85b567b6ccd41ad312451b948a7413f0a142fd40d49347942adc25665018aa1fe0e6bc666dac8fc2697ff9baa0f043f14c71502bfe79a356109992d4211ba3082350de36c884d258b6adcd5bcda0f400cda2d7561c80e2702d8ae8c06a052a1f37c5b0da9046a50abfdfa6053ae3a0403369bc9b3ccd76217c0211ee0bd3cb4d64442cc1081a7f04be87efb0311d22b901000000000000000000000000000000000000000000000000000000000000000000000000000000000000000000000000000000000000000000000000000000000000000000000000000000000000000000000000000000000000000000000000000000000000000000000000000000000000000000000000000000000000000000000000000000000000000000000000000000000000000000000000000000000000000000000000000000000000000000000000000000000000000000000000000000000000000000000000000000000000000000000000000000000000000000000000000000000000000000000000000000000000000000000000000000000080018401c9c3808301b15c8203e800a000000000000000000000000000000000000000000000000000000000000200008800000000000000000aa056e81f171bcc55a6ff8345e692c0f86e5b48e01b996cadc001622fb5e363b4218080a00000000000000000000000000000000000000000000000000000000000000000f882f880800a83029fe094d28b8e27785ddee975645e09e8631d7bcb4133f380a000000000000000000000000025a467084f1402e7813d24d9904c6faefc4241c825a0f4c48adcb63951b57a911278aff80c895b2e08835a936f5e2d9a85dd2d39e2f7a005f052ffea2312290f288b0d957cca3d8fe2c2c910f493c7b061c23520234e64c0c0",
                "blocknumber": "1"
            }
        ],
        "sealEngine": "NoProof",
        "_info": {
            "hash": "0xc97c4bf6b0ada16b4fb5fdb4d07500d9c97ef637ccbc8071c2bc7b86b86bf811",
            "fixture-format": "blockchain_test",
            "comment": "`execution-specs` generated test",
            "filling-transition-tool": "2.19.0",
            "description": "Test_static_callcallcodecallcode_011_oogm_before.",
            "url": "https://github.com/ethereum/execution-specs/blob/tests-snobal-devnet-5@v8037.0.0/tests/ported_static/stStaticCall/test_static_callcallcodecallcode_011_oogm_before.py#L25",
            "metadata": {
                "opcode_count": {}
            }
        }
    },
    "tests/ported_static/stStaticCall/test_static_callcallcodecallcode_011_oogm_before.py::test_static_callcallcodecallcode_011_oogm_before[fork_Cancun-blockchain_test_from_state_test-d1]": {
        "network": "Cancun",
        "genesisBlockHeader": {
            "parentHash": "0x0000000000000000000000000000000000000000000000000000000000000000",
            "uncleHash": "0x1dcc4de8dec75d7aab85b567b6ccd41ad312451b948a7413f0a142fd40d49347",
            "coinbase": "0x0000000000000000000000000000000000000000",
            "stateRoot": "0x44852e8edf51092a9aae4bc7127a528022fecacd0d62633235b8f3e189862f88",
            "transactionsTrie": "0x56e81f171bcc55a6ff8345e692c0f86e5b48e01b996cadc001622fb5e363b421",
            "receiptTrie": "0x56e81f171bcc55a6ff8345e692c0f86e5b48e01b996cadc001622fb5e363b421",
            "bloom": "0x00000000000000000000000000000000000000000000000000000000000000000000000000000000000000000000000000000000000000000000000000000000000000000000000000000000000000000000000000000000000000000000000000000000000000000000000000000000000000000000000000000000000000000000000000000000000000000000000000000000000000000000000000000000000000000000000000000000000000000000000000000000000000000000000000000000000000000000000000000000000000000000000000000000000000000000000000000000000000000000000000000000000000000000000000000000",
            "difficulty": "0x00",
            "number": "0x00",
            "gasLimit": "0x01c9c380",
            "gasUsed": "0x00",
            "timestamp": "0x00",
            "extraData": "0x00",
            "mixHash": "0x0000000000000000000000000000000000000000000000000000000000000000",
            "nonce": "0x0000000000000000",
            "baseFeePerGas": "0x0b",
            "withdrawalsRoot": "0x56e81f171bcc55a6ff8345e692c0f86e5b48e01b996cadc001622fb5e363b421",
            "blobGasUsed": "0x00",
            "excessBlobGas": "0x00",
            "parentBeaconBlockRoot": "0x0000000000000000000000000000000000000000000000000000000000000000",
            "hash": "0x7c4aaace70c10067e0d989928de9ebe3b2d40c606947df9f512cad815725a388"
        },
        "pre": {
            "0x000f3df6d732807ef1319fb7b8bb8522d0beac02": {
                "nonce": "0x01",
                "balance": "0x00",
                "code": "0x3373fffffffffffffffffffffffffffffffffffffffe14604d57602036146024575f5ffd5b5f35801560495762001fff810690815414603c575f5ffd5b62001fff01545f5260205ff35b5f5ffd5b62001fff42064281555f359062001fff015500",
                "storage": {}
            },
            "0xd66f224cbd2fabb21b17bb53c56118f32f62ebd6": {
                "nonce": "0x00",
                "balance": "0x0de0b6b3a7640000",
                "code": "0x",
                "storage": {}
            },
            "0xf752172f60d0024af14bee497ed232ab3a215362": {
                "nonce": "0x00",
                "balance": "0x00",
                "code": "0x60016003526040600060406000600035619c90f450600160035200",
                "storage": {}
            },
            "0x335c5531b84765a7626e6e76688f18b81be5259c": {
                "nonce": "0x00",
                "balance": "0x00",
                "code": "0x600160035200",
                "storage": {}
            },
            "0xd28b8e27785ddee975645e09e8631d7bcb4133f3": {
                "nonce": "0x00",
                "balance": "0x0de0b6b3a7640000",
                "code": "0x600035600052604060006040600073f752172f60d0024af14bee497ed232ab3a215362620249f0fa600055600160015500",
                "storage": {}
            },
            "0x25a467084f1402e7813d24d9904c6faefc4241c8": {
                "nonce": "0x00",
                "balance": "0x00",
                "code": "0x6001600355604060006040600073335c5531b84765a7626e6e76688f18b81be5259c614e34f450600160035200",
                "storage": {}
            },
            "0x9d3e6c1d2bc6290f0e7161adbb3ad1ec4770d0d3": {
                "nonce": "0x00",
                "balance": "0x00",
                "code": "0x5b61c3506080511015601c5760013b506001608051016080526000565b604060006040600073335c5531b84765a7626e6e76688f18b81be5259c614e34f450600160035200",
                "storage": {}
            }
        },
        "postState": {
            "0x000f3df6d732807ef1319fb7b8bb8522d0beac02": {
                "nonce": "0x01",
                "balance": "0x00",
                "code": "0x3373fffffffffffffffffffffffffffffffffffffffe14604d57602036146024575f5ffd5b5f35801560495762001fff810690815414603c575f5ffd5b62001fff01545f5260205ff35b5f5ffd5b62001fff42064281555f359062001fff015500",
                "storage": {
                    "0x03e8": "0x03e8"
                }
            },
            "0xd66f224cbd2fabb21b17bb53c56118f32f62ebd6": {
                "nonce": "0x01",
                "balance": "0x0de0b6b3a7531268",
                "code": "0x",
                "storage": {}
            },
            "0xf752172f60d0024af14bee497ed232ab3a215362": {
                "nonce": "0x00",
                "balance": "0x00",
                "code": "0x60016003526040600060406000600035619c90f450600160035200",
                "storage": {}
            },
            "0x335c5531b84765a7626e6e76688f18b81be5259c": {
                "nonce": "0x00",
                "balance": "0x00",
                "code": "0x600160035200",
                "storage": {}
            },
            "0xd28b8e27785ddee975645e09e8631d7bcb4133f3": {
                "nonce": "0x00",
                "balance": "0x0de0b6b3a7640000",
                "code": "0x600035600052604060006040600073f752172f60d0024af14bee497ed232ab3a215362620249f0fa600055600160015500",
                "storage": {
                    "0x00": "0x01",
                    "0x01": "0x01"
                }
            },
            "0x25a467084f1402e7813d24d9904c6faefc4241c8": {
                "nonce": "0x00",
                "balance": "0x00",
                "code": "0x6001600355604060006040600073335c5531b84765a7626e6e76688f18b81be5259c614e34f450600160035200",
                "storage": {}
            },
            "0x9d3e6c1d2bc6290f0e7161adbb3ad1ec4770d0d3": {
                "nonce": "0x00",
                "balance": "0x00",
                "code": "0x5b61c3506080511015601c5760013b506001608051016080526000565b604060006040600073335c5531b84765a7626e6e76688f18b81be5259c614e34f450600160035200",
                "storage": {}
            }
        },
        "lastblockhash": "0xc8acc838add78cc7de40ceba131d4c6b7840f8b753b0611fc7d6e237677dd98a",
        "config": {
            "network": "Cancun",
            "chainid": "0x01",
            "blobSchedule": {
                "Cancun": {
                    "target": "0x03",
                    "max": "0x06",
                    "baseFeeUpdateFraction": "0x32f0ed"
                }
            }
        },
        "genesisRLP": "0xf9023cf90236a00000000000000000000000000000000000000000000000000000000000000000a01dcc4de8dec75d7aab85b567b6ccd41ad312451b948a7413f0a142fd40d49347940000000000000000000000000000000000000000a044852e8edf51092a9aae4bc7127a528022fecacd0d62633235b8f3e189862f88a056e81f171bcc55a6ff8345e692c0f86e5b48e01b996cadc001622fb5e363b421a056e81f171bcc55a6ff8345e692c0f86e5b48e01b996cadc001622fb5e363b421b901000000000000000000000000000000000000000000000000000000000000000000000000000000000000000000000000000000000000000000000000000000000000000000000000000000000000000000000000000000000000000000000000000000000000000000000000000000000000000000000000000000000000000000000000000000000000000000000000000000000000000000000000000000000000000000000000000000000000000000000000000000000000000000000000000000000000000000000000000000000000000000000000000000000000000000000000000000000000000000000000000000000000000000000000000000000080808401c9c380808000a000000000000000000000000000000000000000000000000000000000000000008800000000000000000ba056e81f171bcc55a6ff8345e692c0f86e5b48e01b996cadc001622fb5e363b4218080a00000000000000000000000000000000000000000000000000000000000000000c0c0c0",
        "blocks": [
            {
                "blockHeader": {
                    "parentHash": "0x7c4aaace70c10067e0d989928de9ebe3b2d40c606947df9f512cad815725a388",
                    "uncleHash": "0x1dcc4de8dec75d7aab85b567b6ccd41ad312451b948a7413f0a142fd40d49347",
                    "coinbase": "0x2adc25665018aa1fe0e6bc666dac8fc2697ff9ba",
                    "stateRoot": "0xf043f14c71502bfe79a356109992d4211ba3082350de36c884d258b6adcd5bcd",
                    "transactionsTrie": "0xa3853eea27363f823e4384f7d703c2c5e6ec26d4147eb60162de2c42e17b0946",
                    "receiptTrie": "0x403369bc9b3ccd76217c0211ee0bd3cb4d64442cc1081a7f04be87efb0311d22",
                    "bloom": "0x00000000000000000000000000000000000000000000000000000000000000000000000000000000000000000000000000000000000000000000000000000000000000000000000000000000000000000000000000000000000000000000000000000000000000000000000000000000000000000000000000000000000000000000000000000000000000000000000000000000000000000000000000000000000000000000000000000000000000000000000000000000000000000000000000000000000000000000000000000000000000000000000000000000000000000000000000000000000000000000000000000000000000000000000000000000",
                    "difficulty": "0x00",
                    "number": "0x01",
                    "gasLimit": "0x01c9c380",
                    "gasUsed": "0x01b15c",
                    "timestamp": "0x03e8",
                    "extraData": "0x00",
                    "mixHash": "0x0000000000000000000000000000000000000000000000000000000000020000",
                    "nonce": "0x0000000000000000",
                    "baseFeePerGas": "0x0a",
                    "withdrawalsRoot": "0x56e81f171bcc55a6ff8345e692c0f86e5b48e01b996cadc001622fb5e363b421",
                    "blobGasUsed": "0x00",
                    "excessBlobGas": "0x00",
                    "parentBeaconBlockRoot": "0x0000000000000000000000000000000000000000000000000000000000000000",
                    "hash": "0xc8acc838add78cc7de40ceba131d4c6b7840f8b753b0611fc7d6e237677dd98a"
                },
                "transactions": [
                    {
                        "type": "0x00",
                        "chainId": "0x01",
                        "nonce": "0x00",
                        "gasPrice": "0x0a",
                        "gasLimit": "0x029fe0",
                        "to": "0xd28b8e27785ddee975645e09e8631d7bcb4133f3",
                        "value": "0x00",
                        "data": "0x0000000000000000000000009d3e6c1d2bc6290f0e7161adbb3ad1ec4770d0d3",
                        "v": "0x25",
                        "r": "0xb841610a40806f6fa4820ef407cc4ec2979981b91fa1bd7b5ddb4ca73331849b",
                        "s": "0x56eca85a01fad9163dc7519dbb4dadf1ac822389f27649a22c272955fcd80e12",
                        "sender": "0xd66f224cbd2fabb21b17bb53c56118f32f62ebd6"
                    }
                ],
                "uncleHeaders": [],
                "withdrawals": [],
                "receipts": [
                    {
                        "transactionHash": "0xca7028c2fa8e6506a4bd83d3d85637b8060a36117d02dd8161b81148f3274cff",
                        "type": "0x00",
                        "cumulativeGasUsed": "0x01b15c",
                        "bloom": "0x00000000000000000000000000000000000000000000000000000000000000000000000000000000000000000000000000000000000000000000000000000000000000000000000000000000000000000000000000000000000000000000000000000000000000000000000000000000000000000000000000000000000000000000000000000000000000000000000000000000000000000000000000000000000000000000000000000000000000000000000000000000000000000000000000000000000000000000000000000000000000000000000000000000000000000000000000000000000000000000000000000000000000000000000000000000",
                        "logs": [],
                        "status": true,
                        "rlp": "0xf90109018301b15cb9010000000000000000000000000000000000000000000000000000000000000000000000000000000000000000000000000000000000000000000000000000000000000000000000000000000000000000000000000000000000000000000000000000000000000000000000000000000000000000000000000000000000000000000000000000000000000000000000000000000000000000000000000000000000000000000000000000000000000000000000000000000000000000000000000000000000000000000000000000000000000000000000000000000000000000000000000000000000000000000000000000000000000000000000000000000000c0"
                    }
                ],
                "rlp": "0xf902c4f9023ba07c4aaace70c10067e0d989928de9ebe3b2d40c606947df9f512cad815725a388a01dcc4de8dec75d7aab85b567b6ccd41ad312451b948a7413f0a142fd40d49347942adc25665018aa1fe0e6bc666dac8fc2697ff9baa0f043f14c71502bfe79a356109992d4211ba3082350de36c884d258b6adcd5bcda0a3853eea27363f823e4384f7d703c2c5e6ec26d4147eb60162de2c42e17b0946a0403369bc9b3ccd76217c0211ee0bd3cb4d64442cc1081a7f04be87efb0311d22b901000000000000000000000000000000000000000000000000000000000000000000000000000000000000000000000000000000000000000000000000000000000000000000000000000000000000000000000000000000000000000000000000000000000000000000000000000000000000000000000000000000000000000000000000000000000000000000000000000000000000000000000000000000000000000000000000000000000000000000000000000000000000000000000000000000000000000000000000000000000000000000000000000000000000000000000000000000000000000000000000000000000000000000000000000000000080018401c9c3808301b15c8203e800a000000000000000000000000000000000000000000000000000000000000200008800000000000000000aa056e81f171bcc55a6ff8345e692c0f86e5b48e01b996cadc001622fb5e363b4218080a00000000000000000000000000000000000000000000000000000000000000000f882f880800a83029fe094d28b8e27785ddee975645e09e8631d7bcb4133f380a00000000000000000000000009d3e6c1d2bc6290f0e7161adbb3ad1ec4770d0d325a0b841610a40806f6fa4820ef407cc4ec2979981b91fa1bd7b5ddb4ca73331849ba056eca85a01fad9163dc7519dbb4dadf1ac822389f27649a22c272955fcd80e12c0c0",
                "blocknumber": "1"
            }
        ],
        "sealEngine": "NoProof",
        "_info": {
            "hash": "0x9cb40e29516e25f4d0ec2e043cf0f008fa6b05a3fa5a8840efaa9efaa601dd81",
            "fixture-format": "blockchain_test",
            "comment": "`execution-specs` generated test",
            "filling-transition-tool": "2.19.0",
            "description": "Test_static_callcallcodecallcode_011_oogm_before.",
            "url": "https://github.com/ethereum/execution-specs/blob/tests-snobal-devnet-5@v8037.0.0/tests/ported_static/stStaticCall/test_static_callcallcodecallcode_011_oogm_before.py#L25",
            "metadata": {
                "opcode_count": {}
            }
        }
    }
}