{
    "tests/berlin/eip2929_gas_cost_increases/test_create.py::test_create_insufficient_balance[fork_Shanghai-blockchain_test_from_state_test-CREATE2]": {
        "network": "Shanghai",
        "genesisBlockHeader": {
            "parentHash": "0x0000000000000000000000000000000000000000000000000000000000000000",
            "uncleHash": "0x1dcc4de8dec75d7aab85b567b6ccd41ad312451b948a7413f0a142fd40d49347",
            "coinbase": "0x0000000000000000000000000000000000000000",
            "stateRoot": "0x3687b4bcbb2a2b19b75259009533c37dfaf696d65a29d8000f64e29183627938",
            "transactionsTrie": "0x56e81f171bcc55a6ff8345e692c0f86e5b48e01b996cadc001622fb5e363b421",
            "receiptTrie": "0x56e81f171bcc55a6ff8345e692c0f86e5b48e01b996cadc001622fb5e363b421",
            "bloom": "0x00000000000000000000000000000000000000000000000000000000000000000000000000000000000000000000000000000000000000000000000000000000000000000000000000000000000000000000000000000000000000000000000000000000000000000000000000000000000000000000000000000000000000000000000000000000000000000000000000000000000000000000000000000000000000000000000000000000000000000000000000000000000000000000000000000000000000000000000000000000000000000000000000000000000000000000000000000000000000000000000000000000000000000000000000000000",
            "difficulty": "0x00",
            "number": "0x00",
            "gasLimit": "0x07270e00",
            "gasUsed": "0x00",
            "timestamp": "0x00",
            "extraData": "0x00",
            "mixHash": "0x0000000000000000000000000000000000000000000000000000000000000000",
            "nonce": "0x0000000000000000",
            "baseFeePerGas": "0x07",
            "withdrawalsRoot": "0x56e81f171bcc55a6ff8345e692c0f86e5b48e01b996cadc001622fb5e363b421",
            "hash": "0x4fd0823e04345113150ea21cd81b83d33b90d404f10f0e62245746f8aa19e619"
        },
        "pre": {
            "0x1cd139edc4a3f7538ace6ee7bc9d34099b9842bb": {
                "nonce": "0x01",
                "balance": "0x00",
                "code": "0x7f00000000000000000000000000000000000000000000000000000000000000006000526000600160006001f5600055",
                "storage": {
                    "0x00": "0x01"
                }
            },
            "0x336c3f27e9265c676fcd3a35c43f3581ad290165": {
                "nonce": "0x01",
                "balance": "0x00",
                "code": "0x5a739b0bf31a942d60d4e77366142971b5e556f0839c315a9050900360005a5a900301900360015500",
                "storage": {}
            },
            "0x52967ce59bfce75864464b215886435b6f44195b": {
                "nonce": "0x01",
                "balance": "0x00",
                "code": "0x60006000600060006000731cd139edc4a3f7538ace6ee7bc9d34099b9842bb5af16000600060006000600073336c3f27e9265c676fcd3a35c43f3581ad2901655af100",
                "storage": {}
            },
            "0x1ad9bc24818784172ff393bb6f89f094d4d2ca29": {
                "nonce": "0x00",
                "balance": "0x3635c9adc5dea00000",
                "code": "0x",
                "storage": {}
            }
        },
        "postState": {
            "0x1cd139edc4a3f7538ace6ee7bc9d34099b9842bb": {
                "nonce": "0x01",
                "balance": "0x00",
                "code": "0x7f00000000000000000000000000000000000000000000000000000000000000006000526000600160006001f5600055",
                "storage": {}
            },
            "0x336c3f27e9265c676fcd3a35c43f3581ad290165": {
                "nonce": "0x01",
                "balance": "0x00",
                "code": "0x5a739b0bf31a942d60d4e77366142971b5e556f0839c315a9050900360005a5a900301900360015500",
                "storage": {
                    "0x01": "0x0a2b"
                }
            },
            "0x52967ce59bfce75864464b215886435b6f44195b": {
                "nonce": "0x01",
                "balance": "0x00",
                "code": "0x60006000600060006000731cd139edc4a3f7538ace6ee7bc9d34099b9842bb5af16000600060006000600073336c3f27e9265c676fcd3a35c43f3581ad2901655af100",
                "storage": {}
            },
            "0x1ad9bc24818784172ff393bb6f89f094d4d2ca29": {
                "nonce": "0x01",
                "balance": "0x3635c9adc5de934d4c",
                "code": "0x",
                "storage": {}
            },
            "0x2adc25665018aa1fe0e6bc666dac8fc2697ff9ba": {
                "nonce": "0x00",
                "balance": "0x03cf36",
                "code": "0x",
                "storage": {}
            }
        },
        "lastblockhash": "0xf0c81420a52d438a744e2daa9ff41f36c578b0020ceb440c9883bc0a6c784512",
        "config": {
            "network": "Shanghai",
            "chainid": "0x01"
        },
        "genesisRLP": "0xf90219f90213a00000000000000000000000000000000000000000000000000000000000000000a01dcc4de8dec75d7aab85b567b6ccd41ad312451b948a7413f0a142fd40d49347940000000000000000000000000000000000000000a03687b4bcbb2a2b19b75259009533c37dfaf696d65a29d8000f64e29183627938a056e81f171bcc55a6ff8345e692c0f86e5b48e01b996cadc001622fb5e363b421a056e81f171bcc55a6ff8345e692c0f86e5b48e01b996cadc001622fb5e363b421b901000000000000000000000000000000000000000000000000000000000000000000000000000000000000000000000000000000000000000000000000000000000000000000000000000000000000000000000000000000000000000000000000000000000000000000000000000000000000000000000000000000000000000000000000000000000000000000000000000000000000000000000000000000000000000000000000000000000000000000000000000000000000000000000000000000000000000000000000000000000000000000000000000000000000000000000000000000000000000000000000000000000000000000000000000000000080808407270e00808000a0000000000000000000000000000000000000000000000000000000000000000088000000000000000007a056e81f171bcc55a6ff8345e692c0f86e5b48e01b996cadc001622fb5e363b421c0c0c0",
        "blocks": [
            {
                "blockHeader": {
                    "parentHash": "0x4fd0823e04345113150ea21cd81b83d33b90d404f10f0e62245746f8aa19e619",
                    "uncleHash": "0x1dcc4de8dec75d7aab85b567b6ccd41ad312451b948a7413f0a142fd40d49347",
                    "coinbase": "0x2adc25665018aa1fe0e6bc666dac8fc2697ff9ba",
                    "stateRoot": "0x36f386e0bccec8bdbc4f49bd437a66fcfb762f07aff24ddda77f07ea308556a5",
                    "transactionsTrie": "0xb470f855c1f00a4b6e90d37b945583d71c50f931714b394c92d182c99299eb1d",
                    "receiptTrie": "0x6b177babb748e702076f2361a77f83892a1c1b6fd8e89332d9c8875a11116d50",
                    "bloom": "0x00000000000000000000000000000000000000000000000000000000000000000000000000000000000000000000000000000000000000000000000000000000000000000000000000000000000000000000000000000000000000000000000000000000000000000000000000000000000000000000000000000000000000000000000000000000000000000000000000000000000000000000000000000000000000000000000000000000000000000000000000000000000000000000000000000000000000000000000000000000000000000000000000000000000000000000000000000000000000000000000000000000000000000000000000000000",
                    "difficulty": "0x00",
                    "number": "0x01",
                    "gasLimit": "0x07270e00",
                    "gasUsed": "0x014512",
                    "timestamp": "0x03e8",
                    "extraData": "0x00",
                    "mixHash": "0x0000000000000000000000000000000000000000000000000000000000000000",
                    "nonce": "0x0000000000000000",
                    "baseFeePerGas": "0x07",
                    "withdrawalsRoot": "0x56e81f171bcc55a6ff8345e692c0f86e5b48e01b996cadc001622fb5e363b421",
                    "hash": "0xf0c81420a52d438a744e2daa9ff41f36c578b0020ceb440c9883bc0a6c784512"
                },
                "transactions": [
                    {
                        "type": "0x00",
                        "chainId": "0x01",
                        "nonce": "0x00",
                        "gasPrice": "0x0a",
                        "gasLimit": "0x0f4240",
                        "to": "0x52967ce59bfce75864464b215886435b6f44195b",
                        "value": "0x00",
                        "data": "0x",
                        "v": "0x25",
                        "r": "0x38088086ceb4046493195b8ef50e2f4ea66e836ff2d3f9dcec55243680af11c9",
                        "s": "0x5926d8b908712a68b69229a1466cd4ff00906d332ad615e9cb886fc9af618eb0",
                        "sender": "0x1ad9bc24818784172ff393bb6f89f094d4d2ca29"
                    }
                ],
                "uncleHeaders": [],
                "withdrawals": [],
                "receipts": [
                    {
                        "transactionHash": "0xb3bfce02af0c21262a764deb5dfae801cb5434f86d844349c523ef3f7f2fa9fd",
                        "type": "0x00",
                        "cumulativeGasUsed": "0x014512",
                        "bloom": "0x00000000000000000000000000000000000000000000000000000000000000000000000000000000000000000000000000000000000000000000000000000000000000000000000000000000000000000000000000000000000000000000000000000000000000000000000000000000000000000000000000000000000000000000000000000000000000000000000000000000000000000000000000000000000000000000000000000000000000000000000000000000000000000000000000000000000000000000000000000000000000000000000000000000000000000000000000000000000000000000000000000000000000000000000000000000",
                        "logs": [],
                        "status": true,
                        "rlp": "0xf901090183014512b9010000000000000000000000000000000000000000000000000000000000000000000000000000000000000000000000000000000000000000000000000000000000000000000000000000000000000000000000000000000000000000000000000000000000000000000000000000000000000000000000000000000000000000000000000000000000000000000000000000000000000000000000000000000000000000000000000000000000000000000000000000000000000000000000000000000000000000000000000000000000000000000000000000000000000000000000000000000000000000000000000000000000000000000000000000000000c0"
                    }
                ],
                "rlp": "0xf90281f90218a04fd0823e04345113150ea21cd81b83d33b90d404f10f0e62245746f8aa19e619a01dcc4de8dec75d7aab85b567b6ccd41ad312451b948a7413f0a142fd40d49347942adc25665018aa1fe0e6bc666dac8fc2697ff9baa036f386e0bccec8bdbc4f49bd437a66fcfb762f07aff24ddda77f07ea308556a5a0b470f855c1f00a4b6e90d37b945583d71c50f931714b394c92d182c99299eb1da06b177babb748e702076f2361a77f83892a1c1b6fd8e89332d9c8875a11116d50b901000000000000000000000000000000000000000000000000000000000000000000000000000000000000000000000000000000000000000000000000000000000000000000000000000000000000000000000000000000000000000000000000000000000000000000000000000000000000000000000000000000000000000000000000000000000000000000000000000000000000000000000000000000000000000000000000000000000000000000000000000000000000000000000000000000000000000000000000000000000000000000000000000000000000000000000000000000000000000000000000000000000000000000000000000000000080018407270e00830145128203e800a0000000000000000000000000000000000000000000000000000000000000000088000000000000000007a056e81f171bcc55a6ff8345e692c0f86e5b48e01b996cadc001622fb5e363b421f862f860800a830f42409452967ce59bfce75864464b215886435b6f44195b808025a038088086ceb4046493195b8ef50e2f4ea66e836ff2d3f9dcec55243680af11c9a05926d8b908712a68b69229a1466cd4ff00906d332ad615e9cb886fc9af618eb0c0c0",
                "blocknumber": "1"
            }
        ],
        "sealEngine": "NoProof",
        "_info": {
            "hash": "0xd5bc6e849405790d00bbeb369fbdf7154f13a1c3d918201dca0920d52bd74bf7",
            "fixture-format": "blockchain_test",
            "comment": "`execution-specs` generated test",
            "filling-transition-tool": "2.19.0",
            "description": "Test that a failed CREATE/CREATE2 due to insufficient balance does not\nwarm the contract address.\n\nA creator contract with zero balance attempts to create with value=1.\nThe create aborts, and a subsequent BALANCE check on the would-be\ncontract address verifies it remains cold (costs COLD_ACCOUNT_ACCESS\ninstead of WARM_STORAGE_READ).",
            "url": "https://github.com/ethereum/execution-specs/blob/tests-sn\u00f8bal-devnet-4@v1.0.0/tests/berlin/eip2929_gas_cost_increases/test_create.py#L39",
            "metadata": {
                "opcode_count": {}
            },
            "reference-spec": "https://github.com/ethereum/EIPs/blob/master/EIPS/eip-2929.md",
            "reference-spec-version": "0e11417265a623adb680c527b15d0cb6701b870b"
        }
    },
    "tests/berlin/eip2929_gas_cost_increases/test_create.py::test_create_insufficient_balance[fork_Shanghai-blockchain_test_from_state_test-CREATE]": {
        "network": "Shanghai",
        "genesisBlockHeader": {
            "parentHash": "0x0000000000000000000000000000000000000000000000000000000000000000",
            "uncleHash": "0x1dcc4de8dec75d7aab85b567b6ccd41ad312451b948a7413f0a142fd40d49347",
            "coinbase": "0x0000000000000000000000000000000000000000",
            "stateRoot": "0x8dc77a78116939b0e433c439e737b395bb19718a78f019eb4e6ba804b2c234b4",
            "transactionsTrie": "0x56e81f171bcc55a6ff8345e692c0f86e5b48e01b996cadc001622fb5e363b421",
            "receiptTrie": "0x56e81f171bcc55a6ff8345e692c0f86e5b48e01b996cadc001622fb5e363b421",
            "bloom": "0x00000000000000000000000000000000000000000000000000000000000000000000000000000000000000000000000000000000000000000000000000000000000000000000000000000000000000000000000000000000000000000000000000000000000000000000000000000000000000000000000000000000000000000000000000000000000000000000000000000000000000000000000000000000000000000000000000000000000000000000000000000000000000000000000000000000000000000000000000000000000000000000000000000000000000000000000000000000000000000000000000000000000000000000000000000000",
            "difficulty": "0x00",
            "number": "0x00",
            "gasLimit": "0x07270e00",
            "gasUsed": "0x00",
            "timestamp": "0x00",
            "extraData": "0x00",
            "mixHash": "0x0000000000000000000000000000000000000000000000000000000000000000",
            "nonce": "0x0000000000000000",
            "baseFeePerGas": "0x07",
            "withdrawalsRoot": "0x56e81f171bcc55a6ff8345e692c0f86e5b48e01b996cadc001622fb5e363b421",
            "hash": "0x55fb80c9be4e941e5050852c3617965a59d5475baa03f11a3d67fd54c93c759d"
        },
        "pre": {
            "0x685f571ba93286ef13f768516e0e28e20033d0fd": {
                "nonce": "0x01",
                "balance": "0x00",
                "code": "0x7f0000000000000000000000000000000000000000000000000000000000000000600052600160006001f0600055",
                "storage": {
                    "0x00": "0x01"
                }
            },
            "0x4ef86a14c85c3870e31f2bd92e858601aaa085b8": {
                "nonce": "0x01",
                "balance": "0x00",
                "code": "0x5a73b8ceefe48745bfbe5cfdd39560a7bbbcfcddc533315a9050900360005a5a900301900360015500",
                "storage": {}
            },
            "0x5752275934e4e55991f394545f240bc9fbc5291a": {
                "nonce": "0x01",
                "balance": "0x00",
                "code": "0x6000600060006000600073685f571ba93286ef13f768516e0e28e20033d0fd5af160006000600060006000734ef86a14c85c3870e31f2bd92e858601aaa085b85af100",
                "storage": {}
            },
            "0x1ad9bc24818784172ff393bb6f89f094d4d2ca29": {
                "nonce": "0x00",
                "balance": "0x3635c9adc5dea00000",
                "code": "0x",
                "storage": {}
            }
        },
        "postState": {
            "0x685f571ba93286ef13f768516e0e28e20033d0fd": {
                "nonce": "0x01",
                "balance": "0x00",
                "code": "0x7f0000000000000000000000000000000000000000000000000000000000000000600052600160006001f0600055",
                "storage": {}
            },
            "0x4ef86a14c85c3870e31f2bd92e858601aaa085b8": {
                "nonce": "0x01",
                "balance": "0x00",
                "code": "0x5a73b8ceefe48745bfbe5cfdd39560a7bbbcfcddc533315a9050900360005a5a900301900360015500",
                "storage": {
                    "0x01": "0x0a2b"
                }
            },
            "0x5752275934e4e55991f394545f240bc9fbc5291a": {
                "nonce": "0x01",
                "balance": "0x00",
                "code": "0x6000600060006000600073685f571ba93286ef13f768516e0e28e20033d0fd5af160006000600060006000734ef86a14c85c3870e31f2bd92e858601aaa085b85af100",
                "storage": {}
            },
            "0x1ad9bc24818784172ff393bb6f89f094d4d2ca29": {
                "nonce": "0x01",
                "balance": "0x3635c9adc5de934da6",
                "code": "0x",
                "storage": {}
            },
            "0x2adc25665018aa1fe0e6bc666dac8fc2697ff9ba": {
                "nonce": "0x00",
                "balance": "0x03cf1b",
                "code": "0x",
                "storage": {}
            }
        },
        "lastblockhash": "0x43aa8ebbd49dad534388f34301f25ded34c1510b1f33ddd4eea7cd6ceac9e1b1",
        "config": {
            "network": "Shanghai",
            "chainid": "0x01"
        },
        "genesisRLP": "0xf90219f90213a00000000000000000000000000000000000000000000000000000000000000000a01dcc4de8dec75d7aab85b567b6ccd41ad312451b948a7413f0a142fd40d49347940000000000000000000000000000000000000000a08dc77a78116939b0e433c439e737b395bb19718a78f019eb4e6ba804b2c234b4a056e81f171bcc55a6ff8345e692c0f86e5b48e01b996cadc001622fb5e363b421a056e81f171bcc55a6ff8345e692c0f86e5b48e01b996cadc001622fb5e363b421b901000000000000000000000000000000000000000000000000000000000000000000000000000000000000000000000000000000000000000000000000000000000000000000000000000000000000000000000000000000000000000000000000000000000000000000000000000000000000000000000000000000000000000000000000000000000000000000000000000000000000000000000000000000000000000000000000000000000000000000000000000000000000000000000000000000000000000000000000000000000000000000000000000000000000000000000000000000000000000000000000000000000000000000000000000000000080808407270e00808000a0000000000000000000000000000000000000000000000000000000000000000088000000000000000007a056e81f171bcc55a6ff8345e692c0f86e5b48e01b996cadc001622fb5e363b421c0c0c0",
        "blocks": [
            {
                "blockHeader": {
                    "parentHash": "0x55fb80c9be4e941e5050852c3617965a59d5475baa03f11a3d67fd54c93c759d",
                    "uncleHash": "0x1dcc4de8dec75d7aab85b567b6ccd41ad312451b948a7413f0a142fd40d49347",
                    "coinbase": "0x2adc25665018aa1fe0e6bc666dac8fc2697ff9ba",
                    "stateRoot": "0x6d83fbe83b9ac17c20e78463f953d19bb807f9c283d5178022c965a0575fa03d",
                    "transactionsTrie": "0xe5e21b7ffecdf0318947b3bcc2a66103df6ab85cad3e99cf0fcb29fa8b28b779",
                    "receiptTrie": "0xf5595b80ae33900999a068d5e14d191ffb23186b02281f2e97e0b05e42dfd780",
                    "bloom": "0x00000000000000000000000000000000000000000000000000000000000000000000000000000000000000000000000000000000000000000000000000000000000000000000000000000000000000000000000000000000000000000000000000000000000000000000000000000000000000000000000000000000000000000000000000000000000000000000000000000000000000000000000000000000000000000000000000000000000000000000000000000000000000000000000000000000000000000000000000000000000000000000000000000000000000000000000000000000000000000000000000000000000000000000000000000000",
                    "difficulty": "0x00",
                    "number": "0x01",
                    "gasLimit": "0x07270e00",
                    "gasUsed": "0x014509",
                    "timestamp": "0x03e8",
                    "extraData": "0x00",
                    "mixHash": "0x0000000000000000000000000000000000000000000000000000000000000000",
                    "nonce": "0x0000000000000000",
                    "baseFeePerGas": "0x07",
                    "withdrawalsRoot": "0x56e81f171bcc55a6ff8345e692c0f86e5b48e01b996cadc001622fb5e363b421",
                    "hash": "0x43aa8ebbd49dad534388f34301f25ded34c1510b1f33ddd4eea7cd6ceac9e1b1"
                },
                "transactions": [
                    {
                        "type": "0x00",
                        "chainId": "0x01",
                        "nonce": "0x00",
                        "gasPrice": "0x0a",
                        "gasLimit": "0x0f4240",
                        "to": "0x5752275934e4e55991f394545f240bc9fbc5291a",
                        "value": "0x00",
                        "data": "0x",
                        "v": "0x26",
                        "r": "0x2057ce71654817b1cec3bb577e781d1ba9eaabdfd738d314d9f7b64faf348a6d",
                        "s": "0x5de084346012798c9084bd693132d823528dd72c7a681b0539c470e503512545",
                        "sender": "0x1ad9bc24818784172ff393bb6f89f094d4d2ca29"
                    }
                ],
                "uncleHeaders": [],
                "withdrawals": [],
                "receipts": [
                    {
                        "transactionHash": "0x0664b519d93b865002622f3f23c3965e62744bf25a51071078ec338ba423d5ca",
                        "type": "0x00",
                        "cumulativeGasUsed": "0x014509",
                        "bloom": "0x00000000000000000000000000000000000000000000000000000000000000000000000000000000000000000000000000000000000000000000000000000000000000000000000000000000000000000000000000000000000000000000000000000000000000000000000000000000000000000000000000000000000000000000000000000000000000000000000000000000000000000000000000000000000000000000000000000000000000000000000000000000000000000000000000000000000000000000000000000000000000000000000000000000000000000000000000000000000000000000000000000000000000000000000000000000",
                        "logs": [],
                        "status": true,
                        "rlp": "0xf901090183014509b9010000000000000000000000000000000000000000000000000000000000000000000000000000000000000000000000000000000000000000000000000000000000000000000000000000000000000000000000000000000000000000000000000000000000000000000000000000000000000000000000000000000000000000000000000000000000000000000000000000000000000000000000000000000000000000000000000000000000000000000000000000000000000000000000000000000000000000000000000000000000000000000000000000000000000000000000000000000000000000000000000000000000000000000000000000000000c0"
                    }
                ],
                "rlp": "0xf90281f90218a055fb80c9be4e941e5050852c3617965a59d5475baa03f11a3d67fd54c93c759da01dcc4de8dec75d7aab85b567b6ccd41ad312451b948a7413f0a142fd40d49347942adc25665018aa1fe0e6bc666dac8fc2697ff9baa06d83fbe83b9ac17c20e78463f953d19bb807f9c283d5178022c965a0575fa03da0e5e21b7ffecdf0318947b3bcc2a66103df6ab85cad3e99cf0fcb29fa8b28b779a0f5595b80ae33900999a068d5e14d191ffb23186b02281f2e97e0b05e42dfd780b901000000000000000000000000000000000000000000000000000000000000000000000000000000000000000000000000000000000000000000000000000000000000000000000000000000000000000000000000000000000000000000000000000000000000000000000000000000000000000000000000000000000000000000000000000000000000000000000000000000000000000000000000000000000000000000000000000000000000000000000000000000000000000000000000000000000000000000000000000000000000000000000000000000000000000000000000000000000000000000000000000000000000000000000000000000000080018407270e00830145098203e800a0000000000000000000000000000000000000000000000000000000000000000088000000000000000007a056e81f171bcc55a6ff8345e692c0f86e5b48e01b996cadc001622fb5e363b421f862f860800a830f4240945752275934e4e55991f394545f240bc9fbc5291a808026a02057ce71654817b1cec3bb577e781d1ba9eaabdfd738d314d9f7b64faf348a6da05de084346012798c9084bd693132d823528dd72c7a681b0539c470e503512545c0c0",
                "blocknumber": "1"
            }
        ],
        "sealEngine": "NoProof",
        "_info": {
            "hash": "0x67c03e6fcdb51d0a0a2f0cdd6206d0ef647a8e3311afa9c7706980da23edcb4b",
            "fixture-format": "blockchain_test",
            "comment": "`execution-specs` generated test",
            "filling-transition-tool": "2.19.0",
            "description": "Test that a failed CREATE/CREATE2 due to insufficient balance does not\nwarm the contract address.\n\nA creator contract with zero balance attempts to create with value=1.\nThe create aborts, and a subsequent BALANCE check on the would-be\ncontract address verifies it remains cold (costs COLD_ACCOUNT_ACCESS\ninstead of WARM_STORAGE_READ).",
            "url": "https://github.com/ethereum/execution-specs/blob/tests-sn\u00f8bal-devnet-4@v1.0.0/tests/berlin/eip2929_gas_cost_increases/test_create.py#L39",
            "metadata": {
                "opcode_count": {}
            },
            "reference-spec": "https://github.com/ethereum/EIPs/blob/master/EIPS/eip-2929.md",
            "reference-spec-version": "0e11417265a623adb680c527b15d0cb6701b870b"
        }
    }
}