{
    "tests/cancun/eip7516_blobgasfee/test_blobgasfee_opcode.py::test_blobbasefee_before_fork[fork_ShanghaiToCancunAtTime15k-blockchain_test_from_state_test-]": {
        "network": "ShanghaiToCancunAtTime15k",
        "genesisBlockHeader": {
            "parentHash": "0x0000000000000000000000000000000000000000000000000000000000000000",
            "uncleHash": "0x1dcc4de8dec75d7aab85b567b6ccd41ad312451b948a7413f0a142fd40d49347",
            "coinbase": "0x0000000000000000000000000000000000000000",
            "stateRoot": "0x15e9a36863977f2141c2ed47a36c00584bb79355bae0e061d7b03dfc386ae0ba",
            "transactionsTrie": "0x56e81f171bcc55a6ff8345e692c0f86e5b48e01b996cadc001622fb5e363b421",
            "receiptTrie": "0x56e81f171bcc55a6ff8345e692c0f86e5b48e01b996cadc001622fb5e363b421",
            "bloom": "0x00000000000000000000000000000000000000000000000000000000000000000000000000000000000000000000000000000000000000000000000000000000000000000000000000000000000000000000000000000000000000000000000000000000000000000000000000000000000000000000000000000000000000000000000000000000000000000000000000000000000000000000000000000000000000000000000000000000000000000000000000000000000000000000000000000000000000000000000000000000000000000000000000000000000000000000000000000000000000000000000000000000000000000000000000000000",
            "difficulty": "0x00",
            "number": "0x00",
            "gasLimit": "0x055d4a80",
            "gasUsed": "0x00",
            "timestamp": "0x00",
            "extraData": "0x00",
            "mixHash": "0x0000000000000000000000000000000000000000000000000000000000000000",
            "nonce": "0x0000000000000000",
            "baseFeePerGas": "0x07",
            "withdrawalsRoot": "0x56e81f171bcc55a6ff8345e692c0f86e5b48e01b996cadc001622fb5e363b421",
            "hash": "0xb577387182b6d8cf6334ac896f6ee4b9797fb002f7cdfccc564a1a28f59a34e1"
        },
        "pre": {
            "0x000f3df6d732807ef1319fb7b8bb8522d0beac02": {
                "nonce": "0x01",
                "balance": "0x00",
                "code": "0x3373fffffffffffffffffffffffffffffffffffffffe14604d57602036146024575f5ffd5b5f35801560495762001fff810690815414603c575f5ffd5b62001fff01545f5260205ff35b5f5ffd5b62001fff42064281555f359062001fff015500",
                "storage": {}
            },
            "0x98d1b5415b2f51b98bd3e3ca7eb6f7ada8640fee": {
                "nonce": "0x01",
                "balance": "0x00",
                "code": "0x4a00",
                "storage": {}
            },
            "0x98d1b5415b2f51b98bd3e3ca7eb6f7ada86410ee": {
                "nonce": "0x01",
                "balance": "0x00",
                "code": "0x600060006000600060007398d1b5415b2f51b98bd3e3ca7eb6f7ada8640fee61fffff14355",
                "storage": {}
            },
            "0x87ce391a5de16908332dd4950fa5f358ab882c26": {
                "nonce": "0x00",
                "balance": "0x3635c9adc5dea00000",
                "code": "0x",
                "storage": {}
            }
        },
        "postState": {
            "0x000f3df6d732807ef1319fb7b8bb8522d0beac02": {
                "nonce": "0x01",
                "balance": "0x00",
                "code": "0x3373fffffffffffffffffffffffffffffffffffffffe14604d57602036146024575f5ffd5b5f35801560495762001fff810690815414603c575f5ffd5b62001fff01545f5260205ff35b5f5ffd5b62001fff42064281555f359062001fff015500",
                "storage": {}
            },
            "0x98d1b5415b2f51b98bd3e3ca7eb6f7ada8640fee": {
                "nonce": "0x01",
                "balance": "0x00",
                "code": "0x4a00",
                "storage": {}
            },
            "0x98d1b5415b2f51b98bd3e3ca7eb6f7ada86410ee": {
                "nonce": "0x01",
                "balance": "0x00",
                "code": "0x600060006000600060007398d1b5415b2f51b98bd3e3ca7eb6f7ada8640fee61fffff14355",
                "storage": {}
            },
            "0x87ce391a5de16908332dd4950fa5f358ab882c26": {
                "nonce": "0x01",
                "balance": "0x3635c9adc5de920f54",
                "code": "0x",
                "storage": {}
            },
            "0x2adc25665018aa1fe0e6bc666dac8fc2697ff9ba": {
                "nonce": "0x00",
                "balance": "0x042e9a",
                "code": "0x",
                "storage": {}
            }
        },
        "lastblockhash": "0xf5a2a8cc59991585858248d7562dc9c723de445c9bc710284a1856f5d6b74095",
        "config": {
            "network": "ShanghaiToCancunAtTime15k",
            "chainid": "0x01",
            "blobSchedule": {
                "Cancun": {
                    "target": "0x03",
                    "max": "0x06",
                    "baseFeeUpdateFraction": "0x32f0ed"
                }
            }
        },
        "genesisRLP": "0xf90219f90213a00000000000000000000000000000000000000000000000000000000000000000a01dcc4de8dec75d7aab85b567b6ccd41ad312451b948a7413f0a142fd40d49347940000000000000000000000000000000000000000a015e9a36863977f2141c2ed47a36c00584bb79355bae0e061d7b03dfc386ae0baa056e81f171bcc55a6ff8345e692c0f86e5b48e01b996cadc001622fb5e363b421a056e81f171bcc55a6ff8345e692c0f86e5b48e01b996cadc001622fb5e363b421b9010000000000000000000000000000000000000000000000000000000000000000000000000000000000000000000000000000000000000000000000000000000000000000000000000000000000000000000000000000000000000000000000000000000000000000000000000000000000000000000000000000000000000000000000000000000000000000000000000000000000000000000000000000000000000000000000000000000000000000000000000000000000000000000000000000000000000000000000000000000000000000000000000000000000000000000000000000000000000000000000000000000000000000000000000000000000808084055d4a80808000a0000000000000000000000000000000000000000000000000000000000000000088000000000000000007a056e81f171bcc55a6ff8345e692c0f86e5b48e01b996cadc001622fb5e363b421c0c0c0",
        "blocks": [
            {
                "blockHeader": {
                    "parentHash": "0xb577387182b6d8cf6334ac896f6ee4b9797fb002f7cdfccc564a1a28f59a34e1",
                    "uncleHash": "0x1dcc4de8dec75d7aab85b567b6ccd41ad312451b948a7413f0a142fd40d49347",
                    "coinbase": "0x2adc25665018aa1fe0e6bc666dac8fc2697ff9ba",
                    "stateRoot": "0x5592c23a9ac374d074c2c26a6b99006d0e92e0ae15d66f1ad7c95a4bbfbf2b5d",
                    "transactionsTrie": "0x8365bdb5dc2d0326bae914169e979d68f7259420eefb1c3bd498751802d8c425",
                    "receiptTrie": "0x6a1dcd11dc97c554adeef87bed26d022694d8408c135fc704d95b87b116112a2",
                    "bloom": "0x00000000000000000000000000000000000000000000000000000000000000000000000000000000000000000000000000000000000000000000000000000000000000000000000000000000000000000000000000000000000000000000000000000000000000000000000000000000000000000000000000000000000000000000000000000000000000000000000000000000000000000000000000000000000000000000000000000000000000000000000000000000000000000000000000000000000000000000000000000000000000000000000000000000000000000000000000000000000000000000000000000000000000000000000000000000",
                    "difficulty": "0x00",
                    "number": "0x01",
                    "gasLimit": "0x055d4a80",
                    "gasUsed": "0x0164de",
                    "timestamp": "0x1d4c",
                    "extraData": "0x00",
                    "mixHash": "0x0000000000000000000000000000000000000000000000000000000000000000",
                    "nonce": "0x0000000000000000",
                    "baseFeePerGas": "0x07",
                    "withdrawalsRoot": "0x56e81f171bcc55a6ff8345e692c0f86e5b48e01b996cadc001622fb5e363b421",
                    "hash": "0xf5a2a8cc59991585858248d7562dc9c723de445c9bc710284a1856f5d6b74095"
                },
                "transactions": [
                    {
                        "type": "0x00",
                        "chainId": "0x01",
                        "nonce": "0x00",
                        "gasPrice": "0x0a",
                        "gasLimit": "0x0f4240",
                        "to": "0x98d1b5415b2f51b98bd3e3ca7eb6f7ada86410ee",
                        "value": "0x00",
                        "data": "0x",
                        "v": "0x26",
                        "r": "0x6da16e0ff28aab2b6391f7b870b3ec55b8cef3ca145e67c7b1d04e35a560f1e8",
                        "s": "0x2c0abdadd4df5854344d8e2013dc068a9d03cb2af1e22e48231371fdc85e9f21",
                        "sender": "0x87ce391a5de16908332dd4950fa5f358ab882c26"
                    }
                ],
                "uncleHeaders": [],
                "withdrawals": [],
                "rlp": "0xf90281f90218a0b577387182b6d8cf6334ac896f6ee4b9797fb002f7cdfccc564a1a28f59a34e1a01dcc4de8dec75d7aab85b567b6ccd41ad312451b948a7413f0a142fd40d49347942adc25665018aa1fe0e6bc666dac8fc2697ff9baa05592c23a9ac374d074c2c26a6b99006d0e92e0ae15d66f1ad7c95a4bbfbf2b5da08365bdb5dc2d0326bae914169e979d68f7259420eefb1c3bd498751802d8c425a06a1dcd11dc97c554adeef87bed26d022694d8408c135fc704d95b87b116112a2b9010000000000000000000000000000000000000000000000000000000000000000000000000000000000000000000000000000000000000000000000000000000000000000000000000000000000000000000000000000000000000000000000000000000000000000000000000000000000000000000000000000000000000000000000000000000000000000000000000000000000000000000000000000000000000000000000000000000000000000000000000000000000000000000000000000000000000000000000000000000000000000000000000000000000000000000000000000000000000000000000000000000000000000000000000000000000800184055d4a80830164de821d4c00a0000000000000000000000000000000000000000000000000000000000000000088000000000000000007a056e81f171bcc55a6ff8345e692c0f86e5b48e01b996cadc001622fb5e363b421f862f860800a830f42409498d1b5415b2f51b98bd3e3ca7eb6f7ada86410ee808026a06da16e0ff28aab2b6391f7b870b3ec55b8cef3ca145e67c7b1d04e35a560f1e8a02c0abdadd4df5854344d8e2013dc068a9d03cb2af1e22e48231371fdc85e9f21c0c0",
                "blocknumber": "1"
            }
        ],
        "sealEngine": "NoProof",
        "_info": {
            "hash": "0xc30cf8f29d2111e06ac2895bbe5c7eff098ac26800741efefa7e9d6d1c56dbab",
            "comment": "`execution-spec-tests` generated test",
            "filling-transition-tool": "ethereum-spec-evm-resolver 0.0.5",
            "description": "Tests that the BLOBBASEFEE opcode results on exception when called before the fork.",
            "url": "https://github.com/ethereum/execution-spec-tests/tree/v5.0.0/tests/cancun/eip7516_blobgasfee/test_blobgasfee_opcode.py#L149",
            "fixture-format": "blockchain_test",
            "reference-spec": "https://github.com/ethereum/EIPs/blob/master/EIPS/eip-7516.md",
            "reference-spec-version": "dcd2f4ede58a6ed908acd3cc2c198e9f605cbf3b",
            "eels-resolution": {
                "git-url": "https://github.com/marioevz/execution-specs.git",
                "branch": "forks/bpo1",
                "commit": "3387e5f4aedfe99becfdc39b444d6371e25e0924"
            }
        }
    }
}