{
    "tests/cancun/eip7516_blobgasfee/test_blobgasfee_opcode.py::test_blobbasefee_during_fork[fork_ShanghaiToCancunAtTime15k-blockchain_test-]": {
        "network": "ShanghaiToCancunAtTime15k",
        "genesisBlockHeader": {
            "parentHash": "0x0000000000000000000000000000000000000000000000000000000000000000",
            "uncleHash": "0x1dcc4de8dec75d7aab85b567b6ccd41ad312451b948a7413f0a142fd40d49347",
            "coinbase": "0x0000000000000000000000000000000000000000",
            "stateRoot": "0x60b97167596b686fbfd36ee1b544a9104cab29e97de9e912f8afa86c3508d91c",
            "transactionsTrie": "0x56e81f171bcc55a6ff8345e692c0f86e5b48e01b996cadc001622fb5e363b421",
            "receiptTrie": "0x56e81f171bcc55a6ff8345e692c0f86e5b48e01b996cadc001622fb5e363b421",
            "bloom": "0x00000000000000000000000000000000000000000000000000000000000000000000000000000000000000000000000000000000000000000000000000000000000000000000000000000000000000000000000000000000000000000000000000000000000000000000000000000000000000000000000000000000000000000000000000000000000000000000000000000000000000000000000000000000000000000000000000000000000000000000000000000000000000000000000000000000000000000000000000000000000000000000000000000000000000000000000000000000000000000000000000000000000000000000000000000000",
            "difficulty": "0x00",
            "number": "0x00",
            "gasLimit": "0x055d4a80",
            "gasUsed": "0x00",
            "timestamp": "0x00",
            "extraData": "0x00",
            "mixHash": "0x0000000000000000000000000000000000000000000000000000000000000000",
            "nonce": "0x0000000000000000",
            "baseFeePerGas": "0x07",
            "withdrawalsRoot": "0x56e81f171bcc55a6ff8345e692c0f86e5b48e01b996cadc001622fb5e363b421",
            "hash": "0xc7f123b04d0be2f6395b76daf2a4d6bae7a592f820911b2ed2dbcd74e5426eab"
        },
        "pre": {
            "0x000f3df6d732807ef1319fb7b8bb8522d0beac02": {
                "nonce": "0x01",
                "balance": "0x00",
                "code": "0x3373fffffffffffffffffffffffffffffffffffffffe14604d57602036146024575f5ffd5b5f35801560495762001fff810690815414603c575f5ffd5b62001fff01545f5260205ff35b5f5ffd5b62001fff42064281555f359062001fff015500",
                "storage": {}
            },
            "0xb1e062156bb0075d3b2628363cf964668b74bea8": {
                "nonce": "0x01",
                "balance": "0x00",
                "code": "0x4a00",
                "storage": {}
            },
            "0xb1e062156bb0075d3b2628363cf964668b74bfa8": {
                "nonce": "0x01",
                "balance": "0x00",
                "code": "0x6000600060006000600073b1e062156bb0075d3b2628363cf964668b74bea861fffff14355",
                "storage": {}
            },
            "0x0a39f3d742cf4e66465361d93b5fc2f9d6194273": {
                "nonce": "0x00",
                "balance": "0x3635c9adc5dea00000",
                "code": "0x",
                "storage": {}
            }
        },
        "postState": {
            "0x000f3df6d732807ef1319fb7b8bb8522d0beac02": {
                "nonce": "0x01",
                "balance": "0x00",
                "code": "0x3373fffffffffffffffffffffffffffffffffffffffe14604d57602036146024575f5ffd5b5f35801560495762001fff810690815414603c575f5ffd5b62001fff01545f5260205ff35b5f5ffd5b62001fff42064281555f359062001fff015500",
                "storage": {
                    "0x1a99": "0x3a98"
                }
            },
            "0xb1e062156bb0075d3b2628363cf964668b74bea8": {
                "nonce": "0x01",
                "balance": "0x00",
                "code": "0x4a00",
                "storage": {}
            },
            "0xb1e062156bb0075d3b2628363cf964668b74bfa8": {
                "nonce": "0x01",
                "balance": "0x00",
                "code": "0x6000600060006000600073b1e062156bb0075d3b2628363cf964668b74bea861fffff14355",
                "storage": {
                    "0x03": "0x01"
                }
            },
            "0x0a39f3d742cf4e66465361d93b5fc2f9d6194273": {
                "nonce": "0x03",
                "balance": "0x3635c9adc5de7d2486",
                "code": "0x",
                "storage": {}
            },
            "0x2adc25665018aa1fe0e6bc666dac8fc2697ff9ba": {
                "nonce": "0x00",
                "balance": "0x0a750b",
                "code": "0x",
                "storage": {}
            }
        },
        "lastblockhash": "0x304ce53ae01d67e66280ecbce38aec7dbe459a26bcbe981877d2858eccf3c48c",
        "config": {
            "network": "ShanghaiToCancunAtTime15k",
            "chainid": "0x01",
            "blobSchedule": {
                "Cancun": {
                    "target": "0x03",
                    "max": "0x06",
                    "baseFeeUpdateFraction": "0x32f0ed"
                }
            }
        },
        "genesisRLP": "0xf90219f90213a00000000000000000000000000000000000000000000000000000000000000000a01dcc4de8dec75d7aab85b567b6ccd41ad312451b948a7413f0a142fd40d49347940000000000000000000000000000000000000000a060b97167596b686fbfd36ee1b544a9104cab29e97de9e912f8afa86c3508d91ca056e81f171bcc55a6ff8345e692c0f86e5b48e01b996cadc001622fb5e363b421a056e81f171bcc55a6ff8345e692c0f86e5b48e01b996cadc001622fb5e363b421b9010000000000000000000000000000000000000000000000000000000000000000000000000000000000000000000000000000000000000000000000000000000000000000000000000000000000000000000000000000000000000000000000000000000000000000000000000000000000000000000000000000000000000000000000000000000000000000000000000000000000000000000000000000000000000000000000000000000000000000000000000000000000000000000000000000000000000000000000000000000000000000000000000000000000000000000000000000000000000000000000000000000000000000000000000000000000808084055d4a80808000a0000000000000000000000000000000000000000000000000000000000000000088000000000000000007a056e81f171bcc55a6ff8345e692c0f86e5b48e01b996cadc001622fb5e363b421c0c0c0",
        "blocks": [
            {
                "blockHeader": {
                    "parentHash": "0xc7f123b04d0be2f6395b76daf2a4d6bae7a592f820911b2ed2dbcd74e5426eab",
                    "uncleHash": "0x1dcc4de8dec75d7aab85b567b6ccd41ad312451b948a7413f0a142fd40d49347",
                    "coinbase": "0x2adc25665018aa1fe0e6bc666dac8fc2697ff9ba",
                    "stateRoot": "0x885d85b6411616b01214e8255f6cc968c7b4bff0b37939a1bb83e90a62daae74",
                    "transactionsTrie": "0xc0437c29d009db7564a7caa637bc34afa64b2ad285ef7c17d1a7e9277caeb6ff",
                    "receiptTrie": "0x6a1dcd11dc97c554adeef87bed26d022694d8408c135fc704d95b87b116112a2",
                    "bloom": "0x00000000000000000000000000000000000000000000000000000000000000000000000000000000000000000000000000000000000000000000000000000000000000000000000000000000000000000000000000000000000000000000000000000000000000000000000000000000000000000000000000000000000000000000000000000000000000000000000000000000000000000000000000000000000000000000000000000000000000000000000000000000000000000000000000000000000000000000000000000000000000000000000000000000000000000000000000000000000000000000000000000000000000000000000000000000",
                    "difficulty": "0x00",
                    "number": "0x01",
                    "gasLimit": "0x055d4a80",
                    "gasUsed": "0x0164de",
                    "timestamp": "0x1d4c",
                    "extraData": "0x",
                    "mixHash": "0x0000000000000000000000000000000000000000000000000000000000000000",
                    "nonce": "0x0000000000000000",
                    "baseFeePerGas": "0x07",
                    "withdrawalsRoot": "0x56e81f171bcc55a6ff8345e692c0f86e5b48e01b996cadc001622fb5e363b421",
                    "hash": "0xb2edffadd1a748783084619249414897daef1112d3cf77e57a67d5fb14fc101a"
                },
                "transactions": [
                    {
                        "type": "0x00",
                        "chainId": "0x01",
                        "nonce": "0x00",
                        "gasPrice": "0x0a",
                        "gasLimit": "0x0f4240",
                        "to": "0xb1e062156bb0075d3b2628363cf964668b74bfa8",
                        "value": "0x00",
                        "data": "0x",
                        "v": "0x25",
                        "r": "0xa4d5b341be08101d86c2a157def11383efbe08df2d3d41c4cd11e237d47f1ddb",
                        "s": "0x78d7e351fa6f43953a43ecb229ca554545090f8736c6bd0ca388c65886c8fa15",
                        "sender": "0x0a39f3d742cf4e66465361d93b5fc2f9d6194273"
                    }
                ],
                "uncleHeaders": [],
                "withdrawals": [],
                "rlp": "0xf90281f90218a0c7f123b04d0be2f6395b76daf2a4d6bae7a592f820911b2ed2dbcd74e5426eaba01dcc4de8dec75d7aab85b567b6ccd41ad312451b948a7413f0a142fd40d49347942adc25665018aa1fe0e6bc666dac8fc2697ff9baa0885d85b6411616b01214e8255f6cc968c7b4bff0b37939a1bb83e90a62daae74a0c0437c29d009db7564a7caa637bc34afa64b2ad285ef7c17d1a7e9277caeb6ffa06a1dcd11dc97c554adeef87bed26d022694d8408c135fc704d95b87b116112a2b9010000000000000000000000000000000000000000000000000000000000000000000000000000000000000000000000000000000000000000000000000000000000000000000000000000000000000000000000000000000000000000000000000000000000000000000000000000000000000000000000000000000000000000000000000000000000000000000000000000000000000000000000000000000000000000000000000000000000000000000000000000000000000000000000000000000000000000000000000000000000000000000000000000000000000000000000000000000000000000000000000000000000000000000000000000000000800184055d4a80830164de821d4c80a0000000000000000000000000000000000000000000000000000000000000000088000000000000000007a056e81f171bcc55a6ff8345e692c0f86e5b48e01b996cadc001622fb5e363b421f862f860800a830f424094b1e062156bb0075d3b2628363cf964668b74bfa8808025a0a4d5b341be08101d86c2a157def11383efbe08df2d3d41c4cd11e237d47f1ddba078d7e351fa6f43953a43ecb229ca554545090f8736c6bd0ca388c65886c8fa15c0c0",
                "blocknumber": "1"
            },
            {
                "blockHeader": {
                    "parentHash": "0xb2edffadd1a748783084619249414897daef1112d3cf77e57a67d5fb14fc101a",
                    "uncleHash": "0x1dcc4de8dec75d7aab85b567b6ccd41ad312451b948a7413f0a142fd40d49347",
                    "coinbase": "0x2adc25665018aa1fe0e6bc666dac8fc2697ff9ba",
                    "stateRoot": "0x1b370fe4b4dd6d41ffbc6b365b076b08a6376cef09b5181fcd81335af9ec5864",
                    "transactionsTrie": "0xe060c82ade5a1e41bc997e72b7e410f4ef5618d9c4eca7f4c6da42d5a11b2008",
                    "receiptTrie": "0x6a1dcd11dc97c554adeef87bed26d022694d8408c135fc704d95b87b116112a2",
                    "bloom": "0x00000000000000000000000000000000000000000000000000000000000000000000000000000000000000000000000000000000000000000000000000000000000000000000000000000000000000000000000000000000000000000000000000000000000000000000000000000000000000000000000000000000000000000000000000000000000000000000000000000000000000000000000000000000000000000000000000000000000000000000000000000000000000000000000000000000000000000000000000000000000000000000000000000000000000000000000000000000000000000000000000000000000000000000000000000000",
                    "difficulty": "0x00",
                    "number": "0x02",
                    "gasLimit": "0x055d4a80",
                    "gasUsed": "0x0164de",
                    "timestamp": "0x3a97",
                    "extraData": "0x",
                    "mixHash": "0x0000000000000000000000000000000000000000000000000000000000000000",
                    "nonce": "0x0000000000000000",
                    "baseFeePerGas": "0x07",
                    "withdrawalsRoot": "0x56e81f171bcc55a6ff8345e692c0f86e5b48e01b996cadc001622fb5e363b421",
                    "hash": "0x7de26443417dc065d6d9474a00bd15fe02f0ce7d7d108243a724800ac0baaaa1"
                },
                "transactions": [
                    {
                        "type": "0x00",
                        "chainId": "0x01",
                        "nonce": "0x01",
                        "gasPrice": "0x0a",
                        "gasLimit": "0x0f4240",
                        "to": "0xb1e062156bb0075d3b2628363cf964668b74bfa8",
                        "value": "0x00",
                        "data": "0x",
                        "v": "0x26",
                        "r": "0x4d1b83675fb89332da6b037958198a1a31ba0fb767a9c71e4a0041a46421f074",
                        "s": "0x725a5afea78e75860ffef47e914ec79ae0eee21f180006ab834fff7dc699ea28",
                        "sender": "0x0a39f3d742cf4e66465361d93b5fc2f9d6194273"
                    }
                ],
                "uncleHeaders": [],
                "withdrawals": [],
                "rlp": "0xf90281f90218a0b2edffadd1a748783084619249414897daef1112d3cf77e57a67d5fb14fc101aa01dcc4de8dec75d7aab85b567b6ccd41ad312451b948a7413f0a142fd40d49347942adc25665018aa1fe0e6bc666dac8fc2697ff9baa01b370fe4b4dd6d41ffbc6b365b076b08a6376cef09b5181fcd81335af9ec5864a0e060c82ade5a1e41bc997e72b7e410f4ef5618d9c4eca7f4c6da42d5a11b2008a06a1dcd11dc97c554adeef87bed26d022694d8408c135fc704d95b87b116112a2b9010000000000000000000000000000000000000000000000000000000000000000000000000000000000000000000000000000000000000000000000000000000000000000000000000000000000000000000000000000000000000000000000000000000000000000000000000000000000000000000000000000000000000000000000000000000000000000000000000000000000000000000000000000000000000000000000000000000000000000000000000000000000000000000000000000000000000000000000000000000000000000000000000000000000000000000000000000000000000000000000000000000000000000000000000000000000800284055d4a80830164de823a9780a0000000000000000000000000000000000000000000000000000000000000000088000000000000000007a056e81f171bcc55a6ff8345e692c0f86e5b48e01b996cadc001622fb5e363b421f862f860010a830f424094b1e062156bb0075d3b2628363cf964668b74bfa8808026a04d1b83675fb89332da6b037958198a1a31ba0fb767a9c71e4a0041a46421f074a0725a5afea78e75860ffef47e914ec79ae0eee21f180006ab834fff7dc699ea28c0c0",
                "blocknumber": "2"
            },
            {
                "blockHeader": {
                    "parentHash": "0x7de26443417dc065d6d9474a00bd15fe02f0ce7d7d108243a724800ac0baaaa1",
                    "uncleHash": "0x1dcc4de8dec75d7aab85b567b6ccd41ad312451b948a7413f0a142fd40d49347",
                    "coinbase": "0x2adc25665018aa1fe0e6bc666dac8fc2697ff9ba",
                    "stateRoot": "0xdd8d473a2438642f52d60382f1fa4848e64102abe1f4b1582e6593c545d50633",
                    "transactionsTrie": "0x7f9779de19d4d47bbd0c2da707aa911766d90cd437006e9800be4e2027d31ed9",
                    "receiptTrie": "0x029086b067b48abbd5d8cdade9e4161e288342af5850ca5c07d626db2c52c1b6",
                    "bloom": "0x00000000000000000000000000000000000000000000000000000000000000000000000000000000000000000000000000000000000000000000000000000000000000000000000000000000000000000000000000000000000000000000000000000000000000000000000000000000000000000000000000000000000000000000000000000000000000000000000000000000000000000000000000000000000000000000000000000000000000000000000000000000000000000000000000000000000000000000000000000000000000000000000000000000000000000000000000000000000000000000000000000000000000000000000000000000",
                    "difficulty": "0x00",
                    "number": "0x03",
                    "gasLimit": "0x055d4a80",
                    "gasUsed": "0xb29d",
                    "timestamp": "0x3a98",
                    "extraData": "0x",
                    "mixHash": "0x0000000000000000000000000000000000000000000000000000000000000000",
                    "nonce": "0x0000000000000000",
                    "baseFeePerGas": "0x07",
                    "withdrawalsRoot": "0x56e81f171bcc55a6ff8345e692c0f86e5b48e01b996cadc001622fb5e363b421",
                    "blobGasUsed": "0x00",
                    "excessBlobGas": "0x00",
                    "parentBeaconBlockRoot": "0x0000000000000000000000000000000000000000000000000000000000000000",
                    "hash": "0x304ce53ae01d67e66280ecbce38aec7dbe459a26bcbe981877d2858eccf3c48c"
                },
                "transactions": [
                    {
                        "type": "0x00",
                        "chainId": "0x01",
                        "nonce": "0x02",
                        "gasPrice": "0x0a",
                        "gasLimit": "0x0f4240",
                        "to": "0xb1e062156bb0075d3b2628363cf964668b74bfa8",
                        "value": "0x00",
                        "data": "0x",
                        "v": "0x25",
                        "r": "0xf13f4c14b45569d2d12785b400e3b52468947c3c4c1eb76b14c3196cb65e9eed",
                        "s": "0x590bc70ce2035e115b8d5e927ff5c7ac194dca7f9a0a459a858f3c04f9b04d0c",
                        "sender": "0x0a39f3d742cf4e66465361d93b5fc2f9d6194273"
                    }
                ],
                "uncleHeaders": [],
                "withdrawals": [],
                "rlp": "0xf902a3f9023aa07de26443417dc065d6d9474a00bd15fe02f0ce7d7d108243a724800ac0baaaa1a01dcc4de8dec75d7aab85b567b6ccd41ad312451b948a7413f0a142fd40d49347942adc25665018aa1fe0e6bc666dac8fc2697ff9baa0dd8d473a2438642f52d60382f1fa4848e64102abe1f4b1582e6593c545d50633a07f9779de19d4d47bbd0c2da707aa911766d90cd437006e9800be4e2027d31ed9a0029086b067b48abbd5d8cdade9e4161e288342af5850ca5c07d626db2c52c1b6b9010000000000000000000000000000000000000000000000000000000000000000000000000000000000000000000000000000000000000000000000000000000000000000000000000000000000000000000000000000000000000000000000000000000000000000000000000000000000000000000000000000000000000000000000000000000000000000000000000000000000000000000000000000000000000000000000000000000000000000000000000000000000000000000000000000000000000000000000000000000000000000000000000000000000000000000000000000000000000000000000000000000000000000000000000000000000800384055d4a8082b29d823a9880a0000000000000000000000000000000000000000000000000000000000000000088000000000000000007a056e81f171bcc55a6ff8345e692c0f86e5b48e01b996cadc001622fb5e363b4218080a00000000000000000000000000000000000000000000000000000000000000000f862f860020a830f424094b1e062156bb0075d3b2628363cf964668b74bfa8808025a0f13f4c14b45569d2d12785b400e3b52468947c3c4c1eb76b14c3196cb65e9eeda0590bc70ce2035e115b8d5e927ff5c7ac194dca7f9a0a459a858f3c04f9b04d0cc0c0",
                "blocknumber": "3"
            }
        ],
        "sealEngine": "NoProof",
        "_info": {
            "hash": "0xbbc4cb48725cb633bf080c46c5bf3f3575fc9aa4a62ef9b72df3818f4806eea4",
            "comment": "`execution-spec-tests` generated test",
            "filling-transition-tool": "ethereum-spec-evm-resolver 0.0.5",
            "description": "Tests that the BLOBBASEFEE opcode results on exception when called before the fork and\n    succeeds when called after the fork.",
            "url": "https://github.com/ethereum/execution-spec-tests/tree/v5.1.0/tests/cancun/eip7516_blobgasfee/test_blobgasfee_opcode.py#L182",
            "fixture-format": "blockchain_test",
            "reference-spec": "https://github.com/ethereum/EIPs/blob/master/EIPS/eip-7516.md",
            "reference-spec-version": "dcd2f4ede58a6ed908acd3cc2c198e9f605cbf3b",
            "eels-resolution": {
                "git-url": "https://github.com/marioevz/execution-specs.git",
                "branch": "forks/bpo1",
                "commit": "3387e5f4aedfe99becfdc39b444d6371e25e0924"
            }
        }
    }
}