{
    "tests/cancun/eip7516_blobgasfee/test_blobgasfee_opcode.py::test_blobbasefee_before_fork[fork_ShanghaiToCancunAtTime15k-blockchain_test_from_state_test-]": {
        "network": "ShanghaiToCancunAtTime15k",
        "genesisBlockHeader": {
            "parentHash": "0x0000000000000000000000000000000000000000000000000000000000000000",
            "uncleHash": "0x1dcc4de8dec75d7aab85b567b6ccd41ad312451b948a7413f0a142fd40d49347",
            "coinbase": "0x0000000000000000000000000000000000000000",
            "stateRoot": "0x4f8ab7b098e77f783d02195e161e7b263a3adb18bf678f9e12f533df748fb068",
            "transactionsTrie": "0x56e81f171bcc55a6ff8345e692c0f86e5b48e01b996cadc001622fb5e363b421",
            "receiptTrie": "0x56e81f171bcc55a6ff8345e692c0f86e5b48e01b996cadc001622fb5e363b421",
            "bloom": "0x00000000000000000000000000000000000000000000000000000000000000000000000000000000000000000000000000000000000000000000000000000000000000000000000000000000000000000000000000000000000000000000000000000000000000000000000000000000000000000000000000000000000000000000000000000000000000000000000000000000000000000000000000000000000000000000000000000000000000000000000000000000000000000000000000000000000000000000000000000000000000000000000000000000000000000000000000000000000000000000000000000000000000000000000000000000",
            "difficulty": "0x00",
            "number": "0x00",
            "gasLimit": "0x07270e00",
            "gasUsed": "0x00",
            "timestamp": "0x00",
            "extraData": "0x00",
            "mixHash": "0x0000000000000000000000000000000000000000000000000000000000000000",
            "nonce": "0x0000000000000000",
            "baseFeePerGas": "0x07",
            "withdrawalsRoot": "0x56e81f171bcc55a6ff8345e692c0f86e5b48e01b996cadc001622fb5e363b421",
            "hash": "0xce423645b894ee82434bae05fc1531de55285e9d689d72a18966536da94da37d"
        },
        "pre": {
            "0x000f3df6d732807ef1319fb7b8bb8522d0beac02": {
                "nonce": "0x01",
                "balance": "0x00",
                "code": "0x3373fffffffffffffffffffffffffffffffffffffffe14604d57602036146024575f5ffd5b5f35801560495762001fff810690815414603c575f5ffd5b62001fff01545f5260205ff35b5f5ffd5b62001fff42064281555f359062001fff015500",
                "storage": {}
            },
            "0x98d1b5415b2f51b98bd3e3ca7eb6f7ada8640fee": {
                "nonce": "0x01",
                "balance": "0x00",
                "code": "0x4a00",
                "storage": {}
            },
            "0x98d1b5415b2f51b98bd3e3ca7eb6f7ada86410ee": {
                "nonce": "0x01",
                "balance": "0x00",
                "code": "0x600060006000600060007398d1b5415b2f51b98bd3e3ca7eb6f7ada8640fee61fffff14755",
                "storage": {}
            },
            "0x87ce391a5de16908332dd4950fa5f358ab882c26": {
                "nonce": "0x00",
                "balance": "0x3635c9adc5dea00000",
                "code": "0x",
                "storage": {}
            }
        },
        "postState": {
            "0x000f3df6d732807ef1319fb7b8bb8522d0beac02": {
                "nonce": "0x01",
                "balance": "0x00",
                "code": "0x3373fffffffffffffffffffffffffffffffffffffffe14604d57602036146024575f5ffd5b5f35801560495762001fff810690815414603c575f5ffd5b62001fff01545f5260205ff35b5f5ffd5b62001fff42064281555f359062001fff015500",
                "storage": {}
            },
            "0x98d1b5415b2f51b98bd3e3ca7eb6f7ada8640fee": {
                "nonce": "0x01",
                "balance": "0x00",
                "code": "0x4a00",
                "storage": {}
            },
            "0x98d1b5415b2f51b98bd3e3ca7eb6f7ada86410ee": {
                "nonce": "0x01",
                "balance": "0x01",
                "code": "0x600060006000600060007398d1b5415b2f51b98bd3e3ca7eb6f7ada8640fee61fffff14755",
                "storage": {}
            },
            "0x87ce391a5de16908332dd4950fa5f358ab882c26": {
                "nonce": "0x01",
                "balance": "0x3635c9adc5de920f35",
                "code": "0x",
                "storage": {}
            },
            "0x2adc25665018aa1fe0e6bc666dac8fc2697ff9ba": {
                "nonce": "0x00",
                "balance": "0x042ea3",
                "code": "0x",
                "storage": {}
            }
        },
        "lastblockhash": "0xed3244a4352bb3a819adcaae4f6596d6c4b21fe26e26b2b7aeeb06895d6566f2",
        "config": {
            "network": "ShanghaiToCancunAtTime15k",
            "chainid": "0x01",
            "blobSchedule": {
                "Cancun": {
                    "target": "0x03",
                    "max": "0x06",
                    "baseFeeUpdateFraction": "0x32f0ed"
                }
            }
        },
        "genesisRLP": "0xf90219f90213a00000000000000000000000000000000000000000000000000000000000000000a01dcc4de8dec75d7aab85b567b6ccd41ad312451b948a7413f0a142fd40d49347940000000000000000000000000000000000000000a04f8ab7b098e77f783d02195e161e7b263a3adb18bf678f9e12f533df748fb068a056e81f171bcc55a6ff8345e692c0f86e5b48e01b996cadc001622fb5e363b421a056e81f171bcc55a6ff8345e692c0f86e5b48e01b996cadc001622fb5e363b421b901000000000000000000000000000000000000000000000000000000000000000000000000000000000000000000000000000000000000000000000000000000000000000000000000000000000000000000000000000000000000000000000000000000000000000000000000000000000000000000000000000000000000000000000000000000000000000000000000000000000000000000000000000000000000000000000000000000000000000000000000000000000000000000000000000000000000000000000000000000000000000000000000000000000000000000000000000000000000000000000000000000000000000000000000000000000080808407270e00808000a0000000000000000000000000000000000000000000000000000000000000000088000000000000000007a056e81f171bcc55a6ff8345e692c0f86e5b48e01b996cadc001622fb5e363b421c0c0c0",
        "blocks": [
            {
                "blockHeader": {
                    "parentHash": "0xce423645b894ee82434bae05fc1531de55285e9d689d72a18966536da94da37d",
                    "uncleHash": "0x1dcc4de8dec75d7aab85b567b6ccd41ad312451b948a7413f0a142fd40d49347",
                    "coinbase": "0x2adc25665018aa1fe0e6bc666dac8fc2697ff9ba",
                    "stateRoot": "0x9928129b48ca38c730b1bf3fbee1ebbd055c2bc4bf6819e5a0d634b29af3c322",
                    "transactionsTrie": "0x3300faa5352fd1e38dfa4b2841b29e00e1400e57ced94f37d7e9db05cb1ffd48",
                    "receiptTrie": "0x8b675082d025bda02a2de1e950c9c8f53cf364bca626a7504b41b7bc0ec5f194",
                    "bloom": "0x00000000000000000000000000000000000000000000000000000000000000000000000000000000000000000000000000000000000000000000000000000000000000000000000000000000000000000000000000000000000000000000000000000000000000000000000000000000000000000000000000000000000000000000000000000000000000000000000000000000000000000000000000000000000000000000000000000000000000000000000000000000000000000000000000000000000000000000000000000000000000000000000000000000000000000000000000000000000000000000000000000000000000000000000000000000",
                    "difficulty": "0x00",
                    "number": "0x01",
                    "gasLimit": "0x07270e00",
                    "gasUsed": "0x0164e1",
                    "timestamp": "0x1d4c",
                    "extraData": "0x00",
                    "mixHash": "0x0000000000000000000000000000000000000000000000000000000000000000",
                    "nonce": "0x0000000000000000",
                    "baseFeePerGas": "0x07",
                    "withdrawalsRoot": "0x56e81f171bcc55a6ff8345e692c0f86e5b48e01b996cadc001622fb5e363b421",
                    "hash": "0xed3244a4352bb3a819adcaae4f6596d6c4b21fe26e26b2b7aeeb06895d6566f2"
                },
                "transactions": [
                    {
                        "type": "0x00",
                        "chainId": "0x01",
                        "nonce": "0x00",
                        "gasPrice": "0x0a",
                        "gasLimit": "0x0f4240",
                        "to": "0x98d1b5415b2f51b98bd3e3ca7eb6f7ada86410ee",
                        "value": "0x01",
                        "data": "0x",
                        "v": "0x25",
                        "r": "0xf9e7f195b965ab19015a4f925694e203f0471fa2a9869f8b921917ad6cb04199",
                        "s": "0x79316d55bb848fe3d33bd8cbdfe4c0a5f50a5ec60716b038eb26fefdbb4490c4",
                        "sender": "0x87ce391a5de16908332dd4950fa5f358ab882c26"
                    }
                ],
                "uncleHeaders": [],
                "withdrawals": [],
                "rlp": "0xf90281f90218a0ce423645b894ee82434bae05fc1531de55285e9d689d72a18966536da94da37da01dcc4de8dec75d7aab85b567b6ccd41ad312451b948a7413f0a142fd40d49347942adc25665018aa1fe0e6bc666dac8fc2697ff9baa09928129b48ca38c730b1bf3fbee1ebbd055c2bc4bf6819e5a0d634b29af3c322a03300faa5352fd1e38dfa4b2841b29e00e1400e57ced94f37d7e9db05cb1ffd48a08b675082d025bda02a2de1e950c9c8f53cf364bca626a7504b41b7bc0ec5f194b901000000000000000000000000000000000000000000000000000000000000000000000000000000000000000000000000000000000000000000000000000000000000000000000000000000000000000000000000000000000000000000000000000000000000000000000000000000000000000000000000000000000000000000000000000000000000000000000000000000000000000000000000000000000000000000000000000000000000000000000000000000000000000000000000000000000000000000000000000000000000000000000000000000000000000000000000000000000000000000000000000000000000000000000000000000000080018407270e00830164e1821d4c00a0000000000000000000000000000000000000000000000000000000000000000088000000000000000007a056e81f171bcc55a6ff8345e692c0f86e5b48e01b996cadc001622fb5e363b421f862f860800a830f42409498d1b5415b2f51b98bd3e3ca7eb6f7ada86410ee018025a0f9e7f195b965ab19015a4f925694e203f0471fa2a9869f8b921917ad6cb04199a079316d55bb848fe3d33bd8cbdfe4c0a5f50a5ec60716b038eb26fefdbb4490c4c0c0",
                "blocknumber": "1"
            }
        ],
        "sealEngine": "NoProof",
        "_info": {
            "hash": "0x8a0f8f84b83bd75287c270ce595f095713d46e088c9732e0ffc89b5c21042a81",
            "comment": "`execution-specs` generated test",
            "filling-transition-tool": "2.18.0rc6",
            "description": "Tests that the BLOBBASEFEE opcode results on exception when called before\n    the fork.",
            "url": "https://github.com/ethereum/execution-specs/blob/tests-v5.4.0/tests/cancun/eip7516_blobgasfee/test_blobgasfee_opcode.py#L162",
            "fixture-format": "blockchain_test",
            "reference-spec": "https://github.com/ethereum/EIPs/blob/master/EIPS/eip-7516.md",
            "reference-spec-version": "dcd2f4ede58a6ed908acd3cc2c198e9f605cbf3b"
        }
    }
}