{
    "tests/osaka/eip7883_modexp_gas_increase/test_modexp_thresholds.py::test_modexp_used_in_transaction_entry_points[fork_London-blockchain_test_from_state_test-exact_gas]": {
        "network": "London",
        "genesisBlockHeader": {
            "parentHash": "0x0000000000000000000000000000000000000000000000000000000000000000",
            "uncleHash": "0x1dcc4de8dec75d7aab85b567b6ccd41ad312451b948a7413f0a142fd40d49347",
            "coinbase": "0x0000000000000000000000000000000000000000",
            "stateRoot": "0xd8272e3dbc27b9371662d3eb3b4392e83260559906a5dbdfbff8fd86cd96de7a",
            "transactionsTrie": "0x56e81f171bcc55a6ff8345e692c0f86e5b48e01b996cadc001622fb5e363b421",
            "receiptTrie": "0x56e81f171bcc55a6ff8345e692c0f86e5b48e01b996cadc001622fb5e363b421",
            "bloom": "0x00000000000000000000000000000000000000000000000000000000000000000000000000000000000000000000000000000000000000000000000000000000000000000000000000000000000000000000000000000000000000000000000000000000000000000000000000000000000000000000000000000000000000000000000000000000000000000000000000000000000000000000000000000000000000000000000000000000000000000000000000000000000000000000000000000000000000000000000000000000000000000000000000000000000000000000000000000000000000000000000000000000000000000000000000000000",
            "difficulty": "0x020000",
            "number": "0x00",
            "gasLimit": "0x07270e00",
            "gasUsed": "0x00",
            "timestamp": "0x00",
            "extraData": "0x00",
            "mixHash": "0x0000000000000000000000000000000000000000000000000000000000000000",
            "nonce": "0x0000000000000000",
            "baseFeePerGas": "0x07",
            "hash": "0xc4a4790154d28358250da41b6130296b2c4f45dc5fa8e26f1ed84d8cd1b734ac"
        },
        "pre": {
            "0xdec6233551179d0ae1449879f4f6de9e6cabeb29": {
                "nonce": "0x01",
                "balance": "0x00",
                "code": "0x3660006000375a600060003660006000600560c8f15a906000553d60015561007a0190036002553d600060003e3d600020600355",
                "storage": {}
            },
            "0x1ad9bc24818784172ff393bb6f89f094d4d2ca29": {
                "nonce": "0x00",
                "balance": "0x3635c9adc5dea00000",
                "code": "0x",
                "storage": {}
            },
            "0xdd616a20f3b01fc95e6b1701d8a07331d06dd897": {
                "nonce": "0x00",
                "balance": "0x3635c9adc5dea00000",
                "code": "0x",
                "storage": {}
            }
        },
        "postState": {
            "0xdec6233551179d0ae1449879f4f6de9e6cabeb29": {
                "nonce": "0x01",
                "balance": "0x00",
                "code": "0x3660006000375a600060003660006000600560c8f15a906000553d60015561007a0190036002553d600060003e3d600020600355",
                "storage": {}
            },
            "0x1ad9bc24818784172ff393bb6f89f094d4d2ca29": {
                "nonce": "0x00",
                "balance": "0x3635c9adc5dea00000",
                "code": "0x",
                "storage": {}
            },
            "0xdd616a20f3b01fc95e6b1701d8a07331d06dd897": {
                "nonce": "0x01",
                "balance": "0x3635c9adc5de9c7fe8",
                "code": "0x",
                "storage": {}
            },
            "0x2adc25665018aa1fe0e6bc666dac8fc2697ff9ba": {
                "nonce": "0x00",
                "balance": "0x1bc16d674ec90cd4",
                "code": "0x",
                "storage": {}
            }
        },
        "lastblockhash": "0xbb6591d543709215250acea379e44c617b5b6ba6169c126c4e851cc64fd6a1ba",
        "config": {
            "network": "London",
            "chainid": "0x01"
        },
        "genesisRLP": "0xf901faf901f5a00000000000000000000000000000000000000000000000000000000000000000a01dcc4de8dec75d7aab85b567b6ccd41ad312451b948a7413f0a142fd40d49347940000000000000000000000000000000000000000a0d8272e3dbc27b9371662d3eb3b4392e83260559906a5dbdfbff8fd86cd96de7aa056e81f171bcc55a6ff8345e692c0f86e5b48e01b996cadc001622fb5e363b421a056e81f171bcc55a6ff8345e692c0f86e5b48e01b996cadc001622fb5e363b421b901000000000000000000000000000000000000000000000000000000000000000000000000000000000000000000000000000000000000000000000000000000000000000000000000000000000000000000000000000000000000000000000000000000000000000000000000000000000000000000000000000000000000000000000000000000000000000000000000000000000000000000000000000000000000000000000000000000000000000000000000000000000000000000000000000000000000000000000000000000000000000000000000000000000000000000000000000000000000000000000000000000000000000000000000000000000083020000808407270e00808000a0000000000000000000000000000000000000000000000000000000000000000088000000000000000007c0c0",
        "blocks": [
            {
                "blockHeader": {
                    "parentHash": "0xc4a4790154d28358250da41b6130296b2c4f45dc5fa8e26f1ed84d8cd1b734ac",
                    "uncleHash": "0x1dcc4de8dec75d7aab85b567b6ccd41ad312451b948a7413f0a142fd40d49347",
                    "coinbase": "0x2adc25665018aa1fe0e6bc666dac8fc2697ff9ba",
                    "stateRoot": "0x55c634c8d5ca018167933ec8b452ddf21fbb92b4d8139e2dfa201af9a8a67573",
                    "transactionsTrie": "0x9ab6ffe40548a660e7f353b3dd8f99b8aa075c1a3d42f02e23835c5779bde6cb",
                    "receiptTrie": "0xc8038a257bc3638440aac969600ee8eb705a6c7faece0527e7db051ff4e819c9",
                    "bloom": "0x00000000000000000000000000000000000000000000000000000000000000000000000000000000000000000000000000000000000000000000000000000000000000000000000000000000000000000000000000000000000000000000000000000000000000000000000000000000000000000000000000000000000000000000000000000000000000000000000000000000000000000000000000000000000000000000000000000000000000000000000000000000000000000000000000000000000000000000000000000000000000000000000000000000000000000000000000000000000000000000000000000000000000000000000000000000",
                    "difficulty": "0x020000",
                    "number": "0x01",
                    "gasLimit": "0x07270e00",
                    "gasUsed": "0x599c",
                    "timestamp": "0x03e8",
                    "extraData": "0x00",
                    "mixHash": "0x0000000000000000000000000000000000000000000000000000000000000000",
                    "nonce": "0x0000000000000000",
                    "baseFeePerGas": "0x07",
                    "hash": "0xbb6591d543709215250acea379e44c617b5b6ba6169c126c4e851cc64fd6a1ba"
                },
                "transactions": [
                    {
                        "type": "0x00",
                        "chainId": "0x01",
                        "nonce": "0x00",
                        "gasPrice": "0x0a",
                        "gasLimit": "0x022e6e",
                        "to": "0x0000000000000000000000000000000000000005",
                        "value": "0x00",
                        "data": "0x000000000000000000000000000000000000000000000000000000000000002800000000000000000000000000000000000000000000000000000000000000040000000000000000000000000000000000000000000000000000000000000028e8e77626586f73b955364c7b4bbf0bb7f7685ebd40e852b164633a4acbd3244c000102030405060701fffffff01681d2220bfea4bb888a5543db8c0916274ddb1ea93b144c042c01d8164c950001020304050607",
                        "v": "0x25",
                        "r": "0x2b3767a22801ca552e2cec2861b60ed88548ae7868254df47fa0c4fc3e200616",
                        "s": "0x41de73ba80815d7b9dad27649405b6e255811cef1dd90f42533e45d48b2feaa4",
                        "sender": "0xdd616a20f3b01fc95e6b1701d8a07331d06dd897"
                    }
                ],
                "uncleHeaders": [],
                "receipts": [
                    {
                        "transactionHash": "0xd2e2f19e29d2c3d3cdc26e4464ceeca74a9144c415d877414037e033070f7f26",
                        "type": "0x00",
                        "cumulativeGasUsed": "0x599c",
                        "bloom": "0x00000000000000000000000000000000000000000000000000000000000000000000000000000000000000000000000000000000000000000000000000000000000000000000000000000000000000000000000000000000000000000000000000000000000000000000000000000000000000000000000000000000000000000000000000000000000000000000000000000000000000000000000000000000000000000000000000000000000000000000000000000000000000000000000000000000000000000000000000000000000000000000000000000000000000000000000000000000000000000000000000000000000000000000000000000000",
                        "logs": [],
                        "status": true,
                        "rlp": "0xf901080182599cb9010000000000000000000000000000000000000000000000000000000000000000000000000000000000000000000000000000000000000000000000000000000000000000000000000000000000000000000000000000000000000000000000000000000000000000000000000000000000000000000000000000000000000000000000000000000000000000000000000000000000000000000000000000000000000000000000000000000000000000000000000000000000000000000000000000000000000000000000000000000000000000000000000000000000000000000000000000000000000000000000000000000000000000000000000000000000c0"
                    }
                ],
                "rlp": "0xf90318f901f9a0c4a4790154d28358250da41b6130296b2c4f45dc5fa8e26f1ed84d8cd1b734aca01dcc4de8dec75d7aab85b567b6ccd41ad312451b948a7413f0a142fd40d49347942adc25665018aa1fe0e6bc666dac8fc2697ff9baa055c634c8d5ca018167933ec8b452ddf21fbb92b4d8139e2dfa201af9a8a67573a09ab6ffe40548a660e7f353b3dd8f99b8aa075c1a3d42f02e23835c5779bde6cba0c8038a257bc3638440aac969600ee8eb705a6c7faece0527e7db051ff4e819c9b901000000000000000000000000000000000000000000000000000000000000000000000000000000000000000000000000000000000000000000000000000000000000000000000000000000000000000000000000000000000000000000000000000000000000000000000000000000000000000000000000000000000000000000000000000000000000000000000000000000000000000000000000000000000000000000000000000000000000000000000000000000000000000000000000000000000000000000000000000000000000000000000000000000000000000000000000000000000000000000000000000000000000000000000000000000000083020000018407270e0082599c8203e800a0000000000000000000000000000000000000000000000000000000000000000088000000000000000007f90118f90115800a83022e6e94000000000000000000000000000000000000000580b8b4000000000000000000000000000000000000000000000000000000000000002800000000000000000000000000000000000000000000000000000000000000040000000000000000000000000000000000000000000000000000000000000028e8e77626586f73b955364c7b4bbf0bb7f7685ebd40e852b164633a4acbd3244c000102030405060701fffffff01681d2220bfea4bb888a5543db8c0916274ddb1ea93b144c042c01d8164c95000102030405060725a02b3767a22801ca552e2cec2861b60ed88548ae7868254df47fa0c4fc3e200616a041de73ba80815d7b9dad27649405b6e255811cef1dd90f42533e45d48b2feaa4c0",
                "blocknumber": "1"
            }
        ],
        "sealEngine": "NoProof",
        "_info": {
            "hash": "0x014fcef28cb9f45e90e6cbf926d8648809121ebc28930c6bb23aae445a03492e",
            "fixture-format": "blockchain_test",
            "comment": "`execution-specs` generated test",
            "filling-transition-tool": "2.19.0",
            "description": "Test ModExp using in transaction entry points with different precompile gas\nmodifiers.",
            "url": "https://github.com/ethereum/execution-specs/blob/tests-sn\u00f8bal-devnet-4@v1.0.0/tests/osaka/eip7883_modexp_gas_increase/test_modexp_thresholds.py#L355",
            "metadata": {
                "opcode_count": {}
            },
            "reference-spec": "https://github.com/ethereum/EIPs/blob/master/EIPS/eip-7883.md",
            "reference-spec-version": "13aa65810336d4f243d4563a828d5afe36035d23"
        }
    },
    "tests/osaka/eip7883_modexp_gas_increase/test_modexp_thresholds.py::test_modexp_used_in_transaction_entry_points[fork_London-blockchain_test_from_state_test-extra_gas]": {
        "network": "London",
        "genesisBlockHeader": {
            "parentHash": "0x0000000000000000000000000000000000000000000000000000000000000000",
            "uncleHash": "0x1dcc4de8dec75d7aab85b567b6ccd41ad312451b948a7413f0a142fd40d49347",
            "coinbase": "0x0000000000000000000000000000000000000000",
            "stateRoot": "0x074f321929c7bd8b1ca9d4a1458f1ba3586a2ea39d986d3dd40ae9bc729587db",
            "transactionsTrie": "0x56e81f171bcc55a6ff8345e692c0f86e5b48e01b996cadc001622fb5e363b421",
            "receiptTrie": "0x56e81f171bcc55a6ff8345e692c0f86e5b48e01b996cadc001622fb5e363b421",
            "bloom": "0x00000000000000000000000000000000000000000000000000000000000000000000000000000000000000000000000000000000000000000000000000000000000000000000000000000000000000000000000000000000000000000000000000000000000000000000000000000000000000000000000000000000000000000000000000000000000000000000000000000000000000000000000000000000000000000000000000000000000000000000000000000000000000000000000000000000000000000000000000000000000000000000000000000000000000000000000000000000000000000000000000000000000000000000000000000000",
            "difficulty": "0x020000",
            "number": "0x00",
            "gasLimit": "0x07270e00",
            "gasUsed": "0x00",
            "timestamp": "0x00",
            "extraData": "0x00",
            "mixHash": "0x0000000000000000000000000000000000000000000000000000000000000000",
            "nonce": "0x0000000000000000",
            "baseFeePerGas": "0x07",
            "hash": "0x71b95244e2fac4034e199aa99ff6850140f0e049955f7e139a2d6aaa21a4a4a2"
        },
        "pre": {
            "0x8a3fc10a145927781ab2ce7657a456b942a10081": {
                "nonce": "0x01",
                "balance": "0x00",
                "code": "0x3660006000375a600060003660006000600560c9f15a906000553d60015561007a0190036002553d600060003e3d600020600355",
                "storage": {}
            },
            "0x1ad9bc24818784172ff393bb6f89f094d4d2ca29": {
                "nonce": "0x00",
                "balance": "0x3635c9adc5dea00000",
                "code": "0x",
                "storage": {}
            },
            "0xdd616a20f3b01fc95e6b1701d8a07331d06dd897": {
                "nonce": "0x00",
                "balance": "0x3635c9adc5dea00000",
                "code": "0x",
                "storage": {}
            }
        },
        "postState": {
            "0x8a3fc10a145927781ab2ce7657a456b942a10081": {
                "nonce": "0x01",
                "balance": "0x00",
                "code": "0x3660006000375a600060003660006000600560c9f15a906000553d60015561007a0190036002553d600060003e3d600020600355",
                "storage": {}
            },
            "0x1ad9bc24818784172ff393bb6f89f094d4d2ca29": {
                "nonce": "0x00",
                "balance": "0x3635c9adc5dea00000",
                "code": "0x",
                "storage": {}
            },
            "0xdd616a20f3b01fc95e6b1701d8a07331d06dd897": {
                "nonce": "0x01",
                "balance": "0x3635c9adc5de9c7fe8",
                "code": "0x",
                "storage": {}
            },
            "0x2adc25665018aa1fe0e6bc666dac8fc2697ff9ba": {
                "nonce": "0x00",
                "balance": "0x1bc16d674ec90cd4",
                "code": "0x",
                "storage": {}
            }
        },
        "lastblockhash": "0x5dc67d52ae9ae03bce5139fc959d1dc70652ae0c48da244aed92ea73367469e5",
        "config": {
            "network": "London",
            "chainid": "0x01"
        },
        "genesisRLP": "0xf901faf901f5a00000000000000000000000000000000000000000000000000000000000000000a01dcc4de8dec75d7aab85b567b6ccd41ad312451b948a7413f0a142fd40d49347940000000000000000000000000000000000000000a0074f321929c7bd8b1ca9d4a1458f1ba3586a2ea39d986d3dd40ae9bc729587dba056e81f171bcc55a6ff8345e692c0f86e5b48e01b996cadc001622fb5e363b421a056e81f171bcc55a6ff8345e692c0f86e5b48e01b996cadc001622fb5e363b421b901000000000000000000000000000000000000000000000000000000000000000000000000000000000000000000000000000000000000000000000000000000000000000000000000000000000000000000000000000000000000000000000000000000000000000000000000000000000000000000000000000000000000000000000000000000000000000000000000000000000000000000000000000000000000000000000000000000000000000000000000000000000000000000000000000000000000000000000000000000000000000000000000000000000000000000000000000000000000000000000000000000000000000000000000000000000083020000808407270e00808000a0000000000000000000000000000000000000000000000000000000000000000088000000000000000007c0c0",
        "blocks": [
            {
                "blockHeader": {
                    "parentHash": "0x71b95244e2fac4034e199aa99ff6850140f0e049955f7e139a2d6aaa21a4a4a2",
                    "uncleHash": "0x1dcc4de8dec75d7aab85b567b6ccd41ad312451b948a7413f0a142fd40d49347",
                    "coinbase": "0x2adc25665018aa1fe0e6bc666dac8fc2697ff9ba",
                    "stateRoot": "0x92cfe39527a46fbd33db781088e5c20edab012ce8ebf5af6945eb0ce7b3bdb48",
                    "transactionsTrie": "0x9ab6ffe40548a660e7f353b3dd8f99b8aa075c1a3d42f02e23835c5779bde6cb",
                    "receiptTrie": "0xc8038a257bc3638440aac969600ee8eb705a6c7faece0527e7db051ff4e819c9",
                    "bloom": "0x00000000000000000000000000000000000000000000000000000000000000000000000000000000000000000000000000000000000000000000000000000000000000000000000000000000000000000000000000000000000000000000000000000000000000000000000000000000000000000000000000000000000000000000000000000000000000000000000000000000000000000000000000000000000000000000000000000000000000000000000000000000000000000000000000000000000000000000000000000000000000000000000000000000000000000000000000000000000000000000000000000000000000000000000000000000",
                    "difficulty": "0x020000",
                    "number": "0x01",
                    "gasLimit": "0x07270e00",
                    "gasUsed": "0x599c",
                    "timestamp": "0x03e8",
                    "extraData": "0x00",
                    "mixHash": "0x0000000000000000000000000000000000000000000000000000000000000000",
                    "nonce": "0x0000000000000000",
                    "baseFeePerGas": "0x07",
                    "hash": "0x5dc67d52ae9ae03bce5139fc959d1dc70652ae0c48da244aed92ea73367469e5"
                },
                "transactions": [
                    {
                        "type": "0x00",
                        "chainId": "0x01",
                        "nonce": "0x00",
                        "gasPrice": "0x0a",
                        "gasLimit": "0x022e6e",
                        "to": "0x0000000000000000000000000000000000000005",
                        "value": "0x00",
                        "data": "0x000000000000000000000000000000000000000000000000000000000000002800000000000000000000000000000000000000000000000000000000000000040000000000000000000000000000000000000000000000000000000000000028e8e77626586f73b955364c7b4bbf0bb7f7685ebd40e852b164633a4acbd3244c000102030405060701fffffff01681d2220bfea4bb888a5543db8c0916274ddb1ea93b144c042c01d8164c950001020304050607",
                        "v": "0x25",
                        "r": "0x2b3767a22801ca552e2cec2861b60ed88548ae7868254df47fa0c4fc3e200616",
                        "s": "0x41de73ba80815d7b9dad27649405b6e255811cef1dd90f42533e45d48b2feaa4",
                        "sender": "0xdd616a20f3b01fc95e6b1701d8a07331d06dd897"
                    }
                ],
                "uncleHeaders": [],
                "receipts": [
                    {
                        "transactionHash": "0xd2e2f19e29d2c3d3cdc26e4464ceeca74a9144c415d877414037e033070f7f26",
                        "type": "0x00",
                        "cumulativeGasUsed": "0x599c",
                        "bloom": "0x00000000000000000000000000000000000000000000000000000000000000000000000000000000000000000000000000000000000000000000000000000000000000000000000000000000000000000000000000000000000000000000000000000000000000000000000000000000000000000000000000000000000000000000000000000000000000000000000000000000000000000000000000000000000000000000000000000000000000000000000000000000000000000000000000000000000000000000000000000000000000000000000000000000000000000000000000000000000000000000000000000000000000000000000000000000",
                        "logs": [],
                        "status": true,
                        "rlp": "0xf901080182599cb9010000000000000000000000000000000000000000000000000000000000000000000000000000000000000000000000000000000000000000000000000000000000000000000000000000000000000000000000000000000000000000000000000000000000000000000000000000000000000000000000000000000000000000000000000000000000000000000000000000000000000000000000000000000000000000000000000000000000000000000000000000000000000000000000000000000000000000000000000000000000000000000000000000000000000000000000000000000000000000000000000000000000000000000000000000000000c0"
                    }
                ],
                "rlp": "0xf90318f901f9a071b95244e2fac4034e199aa99ff6850140f0e049955f7e139a2d6aaa21a4a4a2a01dcc4de8dec75d7aab85b567b6ccd41ad312451b948a7413f0a142fd40d49347942adc25665018aa1fe0e6bc666dac8fc2697ff9baa092cfe39527a46fbd33db781088e5c20edab012ce8ebf5af6945eb0ce7b3bdb48a09ab6ffe40548a660e7f353b3dd8f99b8aa075c1a3d42f02e23835c5779bde6cba0c8038a257bc3638440aac969600ee8eb705a6c7faece0527e7db051ff4e819c9b901000000000000000000000000000000000000000000000000000000000000000000000000000000000000000000000000000000000000000000000000000000000000000000000000000000000000000000000000000000000000000000000000000000000000000000000000000000000000000000000000000000000000000000000000000000000000000000000000000000000000000000000000000000000000000000000000000000000000000000000000000000000000000000000000000000000000000000000000000000000000000000000000000000000000000000000000000000000000000000000000000000000000000000000000000000000083020000018407270e0082599c8203e800a0000000000000000000000000000000000000000000000000000000000000000088000000000000000007f90118f90115800a83022e6e94000000000000000000000000000000000000000580b8b4000000000000000000000000000000000000000000000000000000000000002800000000000000000000000000000000000000000000000000000000000000040000000000000000000000000000000000000000000000000000000000000028e8e77626586f73b955364c7b4bbf0bb7f7685ebd40e852b164633a4acbd3244c000102030405060701fffffff01681d2220bfea4bb888a5543db8c0916274ddb1ea93b144c042c01d8164c95000102030405060725a02b3767a22801ca552e2cec2861b60ed88548ae7868254df47fa0c4fc3e200616a041de73ba80815d7b9dad27649405b6e255811cef1dd90f42533e45d48b2feaa4c0",
                "blocknumber": "1"
            }
        ],
        "sealEngine": "NoProof",
        "_info": {
            "hash": "0x73605366b69796b3eb00638c597a4d3397ae9fa65cd6e0e780f12a38ce3e2f15",
            "fixture-format": "blockchain_test",
            "comment": "`execution-specs` generated test",
            "filling-transition-tool": "2.19.0",
            "description": "Test ModExp using in transaction entry points with different precompile gas\nmodifiers.",
            "url": "https://github.com/ethereum/execution-specs/blob/tests-sn\u00f8bal-devnet-4@v1.0.0/tests/osaka/eip7883_modexp_gas_increase/test_modexp_thresholds.py#L355",
            "metadata": {
                "opcode_count": {}
            },
            "reference-spec": "https://github.com/ethereum/EIPs/blob/master/EIPS/eip-7883.md",
            "reference-spec-version": "13aa65810336d4f243d4563a828d5afe36035d23"
        }
    },
    "tests/osaka/eip7883_modexp_gas_increase/test_modexp_thresholds.py::test_modexp_used_in_transaction_entry_points[fork_London-blockchain_test_from_state_test-extra_value]": {
        "network": "London",
        "genesisBlockHeader": {
            "parentHash": "0x0000000000000000000000000000000000000000000000000000000000000000",
            "uncleHash": "0x1dcc4de8dec75d7aab85b567b6ccd41ad312451b948a7413f0a142fd40d49347",
            "coinbase": "0x0000000000000000000000000000000000000000",
            "stateRoot": "0xd8272e3dbc27b9371662d3eb3b4392e83260559906a5dbdfbff8fd86cd96de7a",
            "transactionsTrie": "0x56e81f171bcc55a6ff8345e692c0f86e5b48e01b996cadc001622fb5e363b421",
            "receiptTrie": "0x56e81f171bcc55a6ff8345e692c0f86e5b48e01b996cadc001622fb5e363b421",
            "bloom": "0x00000000000000000000000000000000000000000000000000000000000000000000000000000000000000000000000000000000000000000000000000000000000000000000000000000000000000000000000000000000000000000000000000000000000000000000000000000000000000000000000000000000000000000000000000000000000000000000000000000000000000000000000000000000000000000000000000000000000000000000000000000000000000000000000000000000000000000000000000000000000000000000000000000000000000000000000000000000000000000000000000000000000000000000000000000000",
            "difficulty": "0x020000",
            "number": "0x00",
            "gasLimit": "0x07270e00",
            "gasUsed": "0x00",
            "timestamp": "0x00",
            "extraData": "0x00",
            "mixHash": "0x0000000000000000000000000000000000000000000000000000000000000000",
            "nonce": "0x0000000000000000",
            "baseFeePerGas": "0x07",
            "hash": "0xc4a4790154d28358250da41b6130296b2c4f45dc5fa8e26f1ed84d8cd1b734ac"
        },
        "pre": {
            "0xdec6233551179d0ae1449879f4f6de9e6cabeb29": {
                "nonce": "0x01",
                "balance": "0x00",
                "code": "0x3660006000375a600060003660006000600560c8f15a906000553d60015561007a0190036002553d600060003e3d600020600355",
                "storage": {}
            },
            "0x1ad9bc24818784172ff393bb6f89f094d4d2ca29": {
                "nonce": "0x00",
                "balance": "0x3635c9adc5dea00000",
                "code": "0x",
                "storage": {}
            },
            "0xdd616a20f3b01fc95e6b1701d8a07331d06dd897": {
                "nonce": "0x00",
                "balance": "0x3635c9adc5dea00000",
                "code": "0x",
                "storage": {}
            }
        },
        "postState": {
            "0xdec6233551179d0ae1449879f4f6de9e6cabeb29": {
                "nonce": "0x01",
                "balance": "0x00",
                "code": "0x3660006000375a600060003660006000600560c8f15a906000553d60015561007a0190036002553d600060003e3d600020600355",
                "storage": {}
            },
            "0x1ad9bc24818784172ff393bb6f89f094d4d2ca29": {
                "nonce": "0x00",
                "balance": "0x3635c9adc5dea00000",
                "code": "0x",
                "storage": {}
            },
            "0xdd616a20f3b01fc95e6b1701d8a07331d06dd897": {
                "nonce": "0x01",
                "balance": "0x3635c9adc5de9c7c00",
                "code": "0x",
                "storage": {}
            },
            "0x0000000000000000000000000000000000000005": {
                "nonce": "0x00",
                "balance": "0x03e8",
                "code": "0x",
                "storage": {}
            },
            "0x2adc25665018aa1fe0e6bc666dac8fc2697ff9ba": {
                "nonce": "0x00",
                "balance": "0x1bc16d674ec90cd4",
                "code": "0x",
                "storage": {}
            }
        },
        "lastblockhash": "0x0be94abb35c675cca19c8ca587e67a5ae96df5bcdc58aa3adfb6290facf791ca",
        "config": {
            "network": "London",
            "chainid": "0x01"
        },
        "genesisRLP": "0xf901faf901f5a00000000000000000000000000000000000000000000000000000000000000000a01dcc4de8dec75d7aab85b567b6ccd41ad312451b948a7413f0a142fd40d49347940000000000000000000000000000000000000000a0d8272e3dbc27b9371662d3eb3b4392e83260559906a5dbdfbff8fd86cd96de7aa056e81f171bcc55a6ff8345e692c0f86e5b48e01b996cadc001622fb5e363b421a056e81f171bcc55a6ff8345e692c0f86e5b48e01b996cadc001622fb5e363b421b901000000000000000000000000000000000000000000000000000000000000000000000000000000000000000000000000000000000000000000000000000000000000000000000000000000000000000000000000000000000000000000000000000000000000000000000000000000000000000000000000000000000000000000000000000000000000000000000000000000000000000000000000000000000000000000000000000000000000000000000000000000000000000000000000000000000000000000000000000000000000000000000000000000000000000000000000000000000000000000000000000000000000000000000000000000000083020000808407270e00808000a0000000000000000000000000000000000000000000000000000000000000000088000000000000000007c0c0",
        "blocks": [
            {
                "blockHeader": {
                    "parentHash": "0xc4a4790154d28358250da41b6130296b2c4f45dc5fa8e26f1ed84d8cd1b734ac",
                    "uncleHash": "0x1dcc4de8dec75d7aab85b567b6ccd41ad312451b948a7413f0a142fd40d49347",
                    "coinbase": "0x2adc25665018aa1fe0e6bc666dac8fc2697ff9ba",
                    "stateRoot": "0x9c5e6512a0b38b4e5403ca487bd558a49f452c9ade763b504a1c0040124f7c4c",
                    "transactionsTrie": "0x6948ed0b3efba595c40162ed3fd08485332140628c1410ea69558f62a8330b25",
                    "receiptTrie": "0xc8038a257bc3638440aac969600ee8eb705a6c7faece0527e7db051ff4e819c9",
                    "bloom": "0x00000000000000000000000000000000000000000000000000000000000000000000000000000000000000000000000000000000000000000000000000000000000000000000000000000000000000000000000000000000000000000000000000000000000000000000000000000000000000000000000000000000000000000000000000000000000000000000000000000000000000000000000000000000000000000000000000000000000000000000000000000000000000000000000000000000000000000000000000000000000000000000000000000000000000000000000000000000000000000000000000000000000000000000000000000000",
                    "difficulty": "0x020000",
                    "number": "0x01",
                    "gasLimit": "0x07270e00",
                    "gasUsed": "0x599c",
                    "timestamp": "0x03e8",
                    "extraData": "0x00",
                    "mixHash": "0x0000000000000000000000000000000000000000000000000000000000000000",
                    "nonce": "0x0000000000000000",
                    "baseFeePerGas": "0x07",
                    "hash": "0x0be94abb35c675cca19c8ca587e67a5ae96df5bcdc58aa3adfb6290facf791ca"
                },
                "transactions": [
                    {
                        "type": "0x00",
                        "chainId": "0x01",
                        "nonce": "0x00",
                        "gasPrice": "0x0a",
                        "gasLimit": "0x022e6e",
                        "to": "0x0000000000000000000000000000000000000005",
                        "value": "0x03e8",
                        "data": "0x000000000000000000000000000000000000000000000000000000000000002800000000000000000000000000000000000000000000000000000000000000040000000000000000000000000000000000000000000000000000000000000028e8e77626586f73b955364c7b4bbf0bb7f7685ebd40e852b164633a4acbd3244c000102030405060701fffffff01681d2220bfea4bb888a5543db8c0916274ddb1ea93b144c042c01d8164c950001020304050607",
                        "v": "0x26",
                        "r": "0xa29065acc2390d2af3c93a0a3c9317f6ff277811e9da3f07ac59b971fcfa6138",
                        "s": "0x5e47ab2109d7ed4f0752ff0571b6a36b23e351fb1967a0b7b0f4a59ccce92b94",
                        "sender": "0xdd616a20f3b01fc95e6b1701d8a07331d06dd897"
                    }
                ],
                "uncleHeaders": [],
                "receipts": [
                    {
                        "transactionHash": "0x24b26a04b19a0941a21912c52e1d4e6a89dcf6bf008b348276560d382b24eb6f",
                        "type": "0x00",
                        "cumulativeGasUsed": "0x599c",
                        "bloom": "0x00000000000000000000000000000000000000000000000000000000000000000000000000000000000000000000000000000000000000000000000000000000000000000000000000000000000000000000000000000000000000000000000000000000000000000000000000000000000000000000000000000000000000000000000000000000000000000000000000000000000000000000000000000000000000000000000000000000000000000000000000000000000000000000000000000000000000000000000000000000000000000000000000000000000000000000000000000000000000000000000000000000000000000000000000000000",
                        "logs": [],
                        "status": true,
                        "rlp": "0xf901080182599cb9010000000000000000000000000000000000000000000000000000000000000000000000000000000000000000000000000000000000000000000000000000000000000000000000000000000000000000000000000000000000000000000000000000000000000000000000000000000000000000000000000000000000000000000000000000000000000000000000000000000000000000000000000000000000000000000000000000000000000000000000000000000000000000000000000000000000000000000000000000000000000000000000000000000000000000000000000000000000000000000000000000000000000000000000000000000000c0"
                    }
                ],
                "rlp": "0xf9031af901f9a0c4a4790154d28358250da41b6130296b2c4f45dc5fa8e26f1ed84d8cd1b734aca01dcc4de8dec75d7aab85b567b6ccd41ad312451b948a7413f0a142fd40d49347942adc25665018aa1fe0e6bc666dac8fc2697ff9baa09c5e6512a0b38b4e5403ca487bd558a49f452c9ade763b504a1c0040124f7c4ca06948ed0b3efba595c40162ed3fd08485332140628c1410ea69558f62a8330b25a0c8038a257bc3638440aac969600ee8eb705a6c7faece0527e7db051ff4e819c9b901000000000000000000000000000000000000000000000000000000000000000000000000000000000000000000000000000000000000000000000000000000000000000000000000000000000000000000000000000000000000000000000000000000000000000000000000000000000000000000000000000000000000000000000000000000000000000000000000000000000000000000000000000000000000000000000000000000000000000000000000000000000000000000000000000000000000000000000000000000000000000000000000000000000000000000000000000000000000000000000000000000000000000000000000000000000083020000018407270e0082599c8203e800a0000000000000000000000000000000000000000000000000000000000000000088000000000000000007f9011af90117800a83022e6e9400000000000000000000000000000000000000058203e8b8b4000000000000000000000000000000000000000000000000000000000000002800000000000000000000000000000000000000000000000000000000000000040000000000000000000000000000000000000000000000000000000000000028e8e77626586f73b955364c7b4bbf0bb7f7685ebd40e852b164633a4acbd3244c000102030405060701fffffff01681d2220bfea4bb888a5543db8c0916274ddb1ea93b144c042c01d8164c95000102030405060726a0a29065acc2390d2af3c93a0a3c9317f6ff277811e9da3f07ac59b971fcfa6138a05e47ab2109d7ed4f0752ff0571b6a36b23e351fb1967a0b7b0f4a59ccce92b94c0",
                "blocknumber": "1"
            }
        ],
        "sealEngine": "NoProof",
        "_info": {
            "hash": "0xed03f472b7be0ae5f99a347fa6febbd54cefd1f85262b3d1f47b860c8f4290bc",
            "fixture-format": "blockchain_test",
            "comment": "`execution-specs` generated test",
            "filling-transition-tool": "2.19.0",
            "description": "Test ModExp using in transaction entry points with different precompile gas\nmodifiers.",
            "url": "https://github.com/ethereum/execution-specs/blob/tests-sn\u00f8bal-devnet-4@v1.0.0/tests/osaka/eip7883_modexp_gas_increase/test_modexp_thresholds.py#L355",
            "metadata": {
                "opcode_count": {}
            },
            "reference-spec": "https://github.com/ethereum/EIPs/blob/master/EIPS/eip-7883.md",
            "reference-spec-version": "13aa65810336d4f243d4563a828d5afe36035d23"
        }
    },
    "tests/osaka/eip7883_modexp_gas_increase/test_modexp_thresholds.py::test_modexp_used_in_transaction_entry_points[fork_London-blockchain_test_from_state_test-insufficient_gas]": {
        "network": "London",
        "genesisBlockHeader": {
            "parentHash": "0x0000000000000000000000000000000000000000000000000000000000000000",
            "uncleHash": "0x1dcc4de8dec75d7aab85b567b6ccd41ad312451b948a7413f0a142fd40d49347",
            "coinbase": "0x0000000000000000000000000000000000000000",
            "stateRoot": "0x601eb583b66e20e7b5462b5297a902b7eedbbc4295bb49fc13592250697ef0f0",
            "transactionsTrie": "0x56e81f171bcc55a6ff8345e692c0f86e5b48e01b996cadc001622fb5e363b421",
            "receiptTrie": "0x56e81f171bcc55a6ff8345e692c0f86e5b48e01b996cadc001622fb5e363b421",
            "bloom": "0x00000000000000000000000000000000000000000000000000000000000000000000000000000000000000000000000000000000000000000000000000000000000000000000000000000000000000000000000000000000000000000000000000000000000000000000000000000000000000000000000000000000000000000000000000000000000000000000000000000000000000000000000000000000000000000000000000000000000000000000000000000000000000000000000000000000000000000000000000000000000000000000000000000000000000000000000000000000000000000000000000000000000000000000000000000000",
            "difficulty": "0x020000",
            "number": "0x00",
            "gasLimit": "0x07270e00",
            "gasUsed": "0x00",
            "timestamp": "0x00",
            "extraData": "0x00",
            "mixHash": "0x0000000000000000000000000000000000000000000000000000000000000000",
            "nonce": "0x0000000000000000",
            "baseFeePerGas": "0x07",
            "hash": "0x642e028c2398a9807e23c21c6993c374638bbc39662b983cfd4ce68230a1c4fb"
        },
        "pre": {
            "0x25e26329c327fcd4e3dbf0a2fb0eecdd668e79a8": {
                "nonce": "0x01",
                "balance": "0x00",
                "code": "0x3660006000375a600060003660006000600560c7f15a906000553d600155",
                "storage": {}
            },
            "0x1ad9bc24818784172ff393bb6f89f094d4d2ca29": {
                "nonce": "0x00",
                "balance": "0x3635c9adc5dea00000",
                "code": "0x",
                "storage": {}
            },
            "0xdd616a20f3b01fc95e6b1701d8a07331d06dd897": {
                "nonce": "0x00",
                "balance": "0x3635c9adc5dea00000",
                "code": "0x",
                "storage": {}
            }
        },
        "postState": {
            "0x25e26329c327fcd4e3dbf0a2fb0eecdd668e79a8": {
                "nonce": "0x01",
                "balance": "0x00",
                "code": "0x3660006000375a600060003660006000600560c7f15a906000553d600155",
                "storage": {}
            },
            "0x1ad9bc24818784172ff393bb6f89f094d4d2ca29": {
                "nonce": "0x00",
                "balance": "0x3635c9adc5dea00000",
                "code": "0x",
                "storage": {}
            },
            "0xdd616a20f3b01fc95e6b1701d8a07331d06dd897": {
                "nonce": "0x01",
                "balance": "0x3635c9adc5de9c7fe8",
                "code": "0x",
                "storage": {}
            },
            "0x2adc25665018aa1fe0e6bc666dac8fc2697ff9ba": {
                "nonce": "0x00",
                "balance": "0x1bc16d674ec90cd4",
                "code": "0x",
                "storage": {}
            }
        },
        "lastblockhash": "0x4cfe2756c1c5abfdbe368a334a45e9bf69792be5489ac9e9796b89ab904b185a",
        "config": {
            "network": "London",
            "chainid": "0x01"
        },
        "genesisRLP": "0xf901faf901f5a00000000000000000000000000000000000000000000000000000000000000000a01dcc4de8dec75d7aab85b567b6ccd41ad312451b948a7413f0a142fd40d49347940000000000000000000000000000000000000000a0601eb583b66e20e7b5462b5297a902b7eedbbc4295bb49fc13592250697ef0f0a056e81f171bcc55a6ff8345e692c0f86e5b48e01b996cadc001622fb5e363b421a056e81f171bcc55a6ff8345e692c0f86e5b48e01b996cadc001622fb5e363b421b901000000000000000000000000000000000000000000000000000000000000000000000000000000000000000000000000000000000000000000000000000000000000000000000000000000000000000000000000000000000000000000000000000000000000000000000000000000000000000000000000000000000000000000000000000000000000000000000000000000000000000000000000000000000000000000000000000000000000000000000000000000000000000000000000000000000000000000000000000000000000000000000000000000000000000000000000000000000000000000000000000000000000000000000000000000000083020000808407270e00808000a0000000000000000000000000000000000000000000000000000000000000000088000000000000000007c0c0",
        "blocks": [
            {
                "blockHeader": {
                    "parentHash": "0x642e028c2398a9807e23c21c6993c374638bbc39662b983cfd4ce68230a1c4fb",
                    "uncleHash": "0x1dcc4de8dec75d7aab85b567b6ccd41ad312451b948a7413f0a142fd40d49347",
                    "coinbase": "0x2adc25665018aa1fe0e6bc666dac8fc2697ff9ba",
                    "stateRoot": "0x3e680b6cae94e89c83372cfceeb12d450408dfcf9d1b0a142dca0c918b57772b",
                    "transactionsTrie": "0x844a222db4dfbd7ecb5ec3f7a49fa8dac4d325cf49973af367c93f0a8de30c1f",
                    "receiptTrie": "0xc8038a257bc3638440aac969600ee8eb705a6c7faece0527e7db051ff4e819c9",
                    "bloom": "0x00000000000000000000000000000000000000000000000000000000000000000000000000000000000000000000000000000000000000000000000000000000000000000000000000000000000000000000000000000000000000000000000000000000000000000000000000000000000000000000000000000000000000000000000000000000000000000000000000000000000000000000000000000000000000000000000000000000000000000000000000000000000000000000000000000000000000000000000000000000000000000000000000000000000000000000000000000000000000000000000000000000000000000000000000000000",
                    "difficulty": "0x020000",
                    "number": "0x01",
                    "gasLimit": "0x07270e00",
                    "gasUsed": "0x599c",
                    "timestamp": "0x03e8",
                    "extraData": "0x00",
                    "mixHash": "0x0000000000000000000000000000000000000000000000000000000000000000",
                    "nonce": "0x0000000000000000",
                    "baseFeePerGas": "0x07",
                    "hash": "0x4cfe2756c1c5abfdbe368a334a45e9bf69792be5489ac9e9796b89ab904b185a"
                },
                "transactions": [
                    {
                        "type": "0x00",
                        "chainId": "0x01",
                        "nonce": "0x00",
                        "gasPrice": "0x0a",
                        "gasLimit": "0x01e04e",
                        "to": "0x0000000000000000000000000000000000000005",
                        "value": "0x00",
                        "data": "0x000000000000000000000000000000000000000000000000000000000000002800000000000000000000000000000000000000000000000000000000000000040000000000000000000000000000000000000000000000000000000000000028e8e77626586f73b955364c7b4bbf0bb7f7685ebd40e852b164633a4acbd3244c000102030405060701fffffff01681d2220bfea4bb888a5543db8c0916274ddb1ea93b144c042c01d8164c950001020304050607",
                        "v": "0x25",
                        "r": "0x430c8d74dc53a1262a9edd60310f32fcd0606ea3c661642c151aff541ccfa31f",
                        "s": "0x6c9af42f0a3d6b617579c56d4ae032f0fd11869b0b7b9a314b0d24d965d4d9e3",
                        "sender": "0xdd616a20f3b01fc95e6b1701d8a07331d06dd897"
                    }
                ],
                "uncleHeaders": [],
                "receipts": [
                    {
                        "transactionHash": "0x4d2d11fbec704e8f68b9571558baa7a3fd56e6549ad198eb18299c4395fee34d",
                        "type": "0x00",
                        "cumulativeGasUsed": "0x599c",
                        "bloom": "0x00000000000000000000000000000000000000000000000000000000000000000000000000000000000000000000000000000000000000000000000000000000000000000000000000000000000000000000000000000000000000000000000000000000000000000000000000000000000000000000000000000000000000000000000000000000000000000000000000000000000000000000000000000000000000000000000000000000000000000000000000000000000000000000000000000000000000000000000000000000000000000000000000000000000000000000000000000000000000000000000000000000000000000000000000000000",
                        "logs": [],
                        "status": true,
                        "rlp": "0xf901080182599cb9010000000000000000000000000000000000000000000000000000000000000000000000000000000000000000000000000000000000000000000000000000000000000000000000000000000000000000000000000000000000000000000000000000000000000000000000000000000000000000000000000000000000000000000000000000000000000000000000000000000000000000000000000000000000000000000000000000000000000000000000000000000000000000000000000000000000000000000000000000000000000000000000000000000000000000000000000000000000000000000000000000000000000000000000000000000000c0"
                    }
                ],
                "rlp": "0xf90318f901f9a0642e028c2398a9807e23c21c6993c374638bbc39662b983cfd4ce68230a1c4fba01dcc4de8dec75d7aab85b567b6ccd41ad312451b948a7413f0a142fd40d49347942adc25665018aa1fe0e6bc666dac8fc2697ff9baa03e680b6cae94e89c83372cfceeb12d450408dfcf9d1b0a142dca0c918b57772ba0844a222db4dfbd7ecb5ec3f7a49fa8dac4d325cf49973af367c93f0a8de30c1fa0c8038a257bc3638440aac969600ee8eb705a6c7faece0527e7db051ff4e819c9b901000000000000000000000000000000000000000000000000000000000000000000000000000000000000000000000000000000000000000000000000000000000000000000000000000000000000000000000000000000000000000000000000000000000000000000000000000000000000000000000000000000000000000000000000000000000000000000000000000000000000000000000000000000000000000000000000000000000000000000000000000000000000000000000000000000000000000000000000000000000000000000000000000000000000000000000000000000000000000000000000000000000000000000000000000000000083020000018407270e0082599c8203e800a0000000000000000000000000000000000000000000000000000000000000000088000000000000000007f90118f90115800a8301e04e94000000000000000000000000000000000000000580b8b4000000000000000000000000000000000000000000000000000000000000002800000000000000000000000000000000000000000000000000000000000000040000000000000000000000000000000000000000000000000000000000000028e8e77626586f73b955364c7b4bbf0bb7f7685ebd40e852b164633a4acbd3244c000102030405060701fffffff01681d2220bfea4bb888a5543db8c0916274ddb1ea93b144c042c01d8164c95000102030405060725a0430c8d74dc53a1262a9edd60310f32fcd0606ea3c661642c151aff541ccfa31fa06c9af42f0a3d6b617579c56d4ae032f0fd11869b0b7b9a314b0d24d965d4d9e3c0",
                "blocknumber": "1"
            }
        ],
        "sealEngine": "NoProof",
        "_info": {
            "hash": "0x41b6349d79e309c213ae6ce0e0fc58b174b8548615d0dd2b26d4a497cfc68c17",
            "fixture-format": "blockchain_test",
            "comment": "`execution-specs` generated test",
            "filling-transition-tool": "2.19.0",
            "description": "Test ModExp using in transaction entry points with different precompile gas\nmodifiers.",
            "url": "https://github.com/ethereum/execution-specs/blob/tests-sn\u00f8bal-devnet-4@v1.0.0/tests/osaka/eip7883_modexp_gas_increase/test_modexp_thresholds.py#L355",
            "metadata": {
                "opcode_count": {}
            },
            "reference-spec": "https://github.com/ethereum/EIPs/blob/master/EIPS/eip-7883.md",
            "reference-spec-version": "13aa65810336d4f243d4563a828d5afe36035d23"
        }
    }
}