{
    "tests/static/state_tests/stRefundTest/refundSSTOREFiller.yml::refundSSTORE[fork_Cancun-blockchain_test_from_state_test-]": {
        "network": "Cancun",
        "genesisBlockHeader": {
            "parentHash": "0x0000000000000000000000000000000000000000000000000000000000000000",
            "uncleHash": "0x1dcc4de8dec75d7aab85b567b6ccd41ad312451b948a7413f0a142fd40d49347",
            "coinbase": "0x0000000000000000000000000000000000000000",
            "stateRoot": "0x4b252a9c190e0b30533c348421bc41e3d98fea575b3e1f9215d533684f46362f",
            "transactionsTrie": "0x56e81f171bcc55a6ff8345e692c0f86e5b48e01b996cadc001622fb5e363b421",
            "receiptTrie": "0x56e81f171bcc55a6ff8345e692c0f86e5b48e01b996cadc001622fb5e363b421",
            "bloom": "0x00000000000000000000000000000000000000000000000000000000000000000000000000000000000000000000000000000000000000000000000000000000000000000000000000000000000000000000000000000000000000000000000000000000000000000000000000000000000000000000000000000000000000000000000000000000000000000000000000000000000000000000000000000000000000000000000000000000000000000000000000000000000000000000000000000000000000000000000000000000000000000000000000000000000000000000000000000000000000000000000000000000000000000000000000000000",
            "difficulty": "0x00",
            "number": "0x00",
            "gasLimit": "0x01000000",
            "gasUsed": "0x00",
            "timestamp": "0x00",
            "extraData": "0x00",
            "mixHash": "0x0000000000000000000000000000000000000000000000000000000000000000",
            "nonce": "0x0000000000000000",
            "baseFeePerGas": "0x0476",
            "withdrawalsRoot": "0x56e81f171bcc55a6ff8345e692c0f86e5b48e01b996cadc001622fb5e363b421",
            "blobGasUsed": "0x00",
            "excessBlobGas": "0x00",
            "parentBeaconBlockRoot": "0x0000000000000000000000000000000000000000000000000000000000000000",
            "hash": "0xde8fbf357892329d7cfafb7ff7c6812f47a808eaaeb2ee17e5903dcc4109281b"
        },
        "pre": {
            "0x000f3df6d732807ef1319fb7b8bb8522d0beac02": {
                "nonce": "0x01",
                "balance": "0x00",
                "code": "0x3373fffffffffffffffffffffffffffffffffffffffe14604d57602036146024575f5ffd5b5f35801560495762001fff810690815414603c575f5ffd5b62001fff01545f5260205ff35b5f5ffd5b62001fff42064281555f359062001fff015500",
                "storage": {}
            },
            "0xddc3963f450ae1a9db51c77d80166de70ce99cee": {
                "nonce": "0x01",
                "balance": "0xe8d631f190",
                "code": "0x",
                "storage": {}
            },
            "0xf5f86b947fc07a75e19106a6b7e4953d431ad57f": {
                "nonce": "0x01",
                "balance": "0x0de0b6b3a7640000",
                "code": "0x6000805500",
                "storage": {
                    "0x00": "0x60a7"
                }
            }
        },
        "postState": {
            "0x000f3df6d732807ef1319fb7b8bb8522d0beac02": {
                "nonce": "0x01",
                "balance": "0x00",
                "code": "0x3373fffffffffffffffffffffffffffffffffffffffe14604d57602036146024575f5ffd5b5f35801560495762001fff810690815414603c575f5ffd5b62001fff01545f5260205ff35b5f5ffd5b62001fff42064281555f359062001fff015500",
                "storage": {
                    "0x03e8": "0x03e8"
                }
            },
            "0xddc3963f450ae1a9db51c77d80166de70ce99cee": {
                "nonce": "0x02",
                "balance": "0xe8d4ee4e00",
                "code": "0x",
                "storage": {}
            },
            "0xf5f86b947fc07a75e19106a6b7e4953d431ad57f": {
                "nonce": "0x01",
                "balance": "0x0de0b6b3a7640000",
                "code": "0x6000805500",
                "storage": {}
            }
        },
        "lastblockhash": "0xe9a00f7a1947bdad1f169d5e967c52359cfbdfb0be63de719258383327d04d7c",
        "config": {
            "network": "Cancun",
            "chainid": "0x01",
            "blobSchedule": {
                "Cancun": {
                    "target": "0x03",
                    "max": "0x06",
                    "baseFeeUpdateFraction": "0x32f0ed"
                }
            }
        },
        "genesisRLP": "0xf9023ef90238a00000000000000000000000000000000000000000000000000000000000000000a01dcc4de8dec75d7aab85b567b6ccd41ad312451b948a7413f0a142fd40d49347940000000000000000000000000000000000000000a04b252a9c190e0b30533c348421bc41e3d98fea575b3e1f9215d533684f46362fa056e81f171bcc55a6ff8345e692c0f86e5b48e01b996cadc001622fb5e363b421a056e81f171bcc55a6ff8345e692c0f86e5b48e01b996cadc001622fb5e363b421b901000000000000000000000000000000000000000000000000000000000000000000000000000000000000000000000000000000000000000000000000000000000000000000000000000000000000000000000000000000000000000000000000000000000000000000000000000000000000000000000000000000000000000000000000000000000000000000000000000000000000000000000000000000000000000000000000000000000000000000000000000000000000000000000000000000000000000000000000000000000000000000000000000000000000000000000000000000000000000000000000000000000000000000000000000000000080808401000000808000a00000000000000000000000000000000000000000000000000000000000000000880000000000000000820476a056e81f171bcc55a6ff8345e692c0f86e5b48e01b996cadc001622fb5e363b4218080a00000000000000000000000000000000000000000000000000000000000000000c0c0c0",
        "blocks": [
            {
                "blockHeader": {
                    "parentHash": "0xde8fbf357892329d7cfafb7ff7c6812f47a808eaaeb2ee17e5903dcc4109281b",
                    "uncleHash": "0x1dcc4de8dec75d7aab85b567b6ccd41ad312451b948a7413f0a142fd40d49347",
                    "coinbase": "0x2adc25665018aa1fe0e6bc666dac8fc2697ff9ba",
                    "stateRoot": "0x1c1b569dec35aee97702a33caa6bd572698f3f37955ed9fa6f91afcad3e6993e",
                    "transactionsTrie": "0xa59d531c7e5a6591372f055def0031b4efc3f8488e2acd9b050cb14551bed28b",
                    "receiptTrie": "0xf59ae5b9c27e2ce344555b05923a6c3f62f682fcbba856b96ade17fcab68be3b",
                    "bloom": "0x00000000000000000000000000000000000000000000000000000000000000000000000000000000000000000000000000000000000000000000000000000000000000000000000000000000000000000000000000000000000000000000000000000000000000000000000000000000000000000000000000000000000000000000000000000000000000000000000000000000000000000000000000000000000000000000000000000000000000000000000000000000000000000000000000000000000000000000000000000000000000000000000000000000000000000000000000000000000000000000000000000000000000000000000000000000",
                    "difficulty": "0x00",
                    "number": "0x01",
                    "gasLimit": "0x01000000",
                    "gasUsed": "0x52da",
                    "timestamp": "0x03e8",
                    "extraData": "0x00",
                    "mixHash": "0x0000000000000000000000000000000000000000000000000000000000020000",
                    "nonce": "0x0000000000000000",
                    "baseFeePerGas": "0x03e8",
                    "withdrawalsRoot": "0x56e81f171bcc55a6ff8345e692c0f86e5b48e01b996cadc001622fb5e363b421",
                    "blobGasUsed": "0x00",
                    "excessBlobGas": "0x00",
                    "parentBeaconBlockRoot": "0x0000000000000000000000000000000000000000000000000000000000000000",
                    "hash": "0xe9a00f7a1947bdad1f169d5e967c52359cfbdfb0be63de719258383327d04d7c"
                },
                "transactions": [
                    {
                        "type": "0x01",
                        "chainId": "0x01",
                        "nonce": "0x01",
                        "gasPrice": "0x03e8",
                        "gasLimit": "0x27b028",
                        "to": "0xf5f86b947fc07a75e19106a6b7e4953d431ad57f",
                        "value": "0x00",
                        "data": "0x00",
                        "accessList": [],
                        "v": "0x01",
                        "r": "0x0dc1047f21a52d518b89f9fd8c7a6e02e658f56fc29a8493fe2af569a1557c5e",
                        "s": "0x0aaf7cc19c774704a60c7c5ffdecd657d866ea197b40cdd4f87a9261accfcc5d",
                        "sender": "0xddc3963f450ae1a9db51c77d80166de70ce99cee"
                    }
                ],
                "uncleHeaders": [],
                "withdrawals": [],
                "receipts": [
                    {
                        "transactionHash": "0xddde52d9516cf976f2f5c2010c90333f659d21137883d5525aff8659c017b6be",
                        "type": "0x01",
                        "cumulativeGasUsed": "0x52da",
                        "bloom": "0x00000000000000000000000000000000000000000000000000000000000000000000000000000000000000000000000000000000000000000000000000000000000000000000000000000000000000000000000000000000000000000000000000000000000000000000000000000000000000000000000000000000000000000000000000000000000000000000000000000000000000000000000000000000000000000000000000000000000000000000000000000000000000000000000000000000000000000000000000000000000000000000000000000000000000000000000000000000000000000000000000000000000000000000000000000000",
                        "logs": [],
                        "status": true,
                        "rlp": "0x01f90108018252dab9010000000000000000000000000000000000000000000000000000000000000000000000000000000000000000000000000000000000000000000000000000000000000000000000000000000000000000000000000000000000000000000000000000000000000000000000000000000000000000000000000000000000000000000000000000000000000000000000000000000000000000000000000000000000000000000000000000000000000000000000000000000000000000000000000000000000000000000000000000000000000000000000000000000000000000000000000000000000000000000000000000000000000000000000000000000000c0"
                    }
                ],
                "rlp": "0xf902acf9023ca0de8fbf357892329d7cfafb7ff7c6812f47a808eaaeb2ee17e5903dcc4109281ba01dcc4de8dec75d7aab85b567b6ccd41ad312451b948a7413f0a142fd40d49347942adc25665018aa1fe0e6bc666dac8fc2697ff9baa01c1b569dec35aee97702a33caa6bd572698f3f37955ed9fa6f91afcad3e6993ea0a59d531c7e5a6591372f055def0031b4efc3f8488e2acd9b050cb14551bed28ba0f59ae5b9c27e2ce344555b05923a6c3f62f682fcbba856b96ade17fcab68be3bb9010000000000000000000000000000000000000000000000000000000000000000000000000000000000000000000000000000000000000000000000000000000000000000000000000000000000000000000000000000000000000000000000000000000000000000000000000000000000000000000000000000000000000000000000000000000000000000000000000000000000000000000000000000000000000000000000000000000000000000000000000000000000000000000000000000000000000000000000000000000000000000000000000000000000000000000000000000000000000000000000000000000000000000000000000000000000800184010000008252da8203e800a000000000000000000000000000000000000000000000000000000000000200008800000000000000008203e8a056e81f171bcc55a6ff8345e692c0f86e5b48e01b996cadc001622fb5e363b4218080a00000000000000000000000000000000000000000000000000000000000000000f869b86701f86401018203e88327b02894f5f86b947fc07a75e19106a6b7e4953d431ad57f8000c001a00dc1047f21a52d518b89f9fd8c7a6e02e658f56fc29a8493fe2af569a1557c5ea00aaf7cc19c774704a60c7c5ffdecd657d866ea197b40cdd4f87a9261accfcc5dc0c0",
                "blocknumber": "1"
            }
        ],
        "sealEngine": "NoProof",
        "_info": {
            "hash": "0x2facbd019988003dc85f936fd4a4457551f9e7ec8029b955dd626be8fba8c1c9",
            "fixture-format": "blockchain_test",
            "comment": "`execution-specs` generated test",
            "filling-transition-tool": "2.19.0",
            "description": "No description available - add a docstring to the python test class or function.",
            "url": "",
            "opcode_count": {}
        }
    }
}