{
    "tests/static/state_tests/stRefundTest/refundMaxFiller.yml::refundMax[fork_Cancun-blockchain_test_from_state_test-]": {
        "network": "Cancun",
        "genesisBlockHeader": {
            "parentHash": "0x0000000000000000000000000000000000000000000000000000000000000000",
            "uncleHash": "0x1dcc4de8dec75d7aab85b567b6ccd41ad312451b948a7413f0a142fd40d49347",
            "coinbase": "0x0000000000000000000000000000000000000000",
            "stateRoot": "0x49d74c68a7ae69cab91706e16336d067030874e609a1bc99b0e818345f6e49f9",
            "transactionsTrie": "0x56e81f171bcc55a6ff8345e692c0f86e5b48e01b996cadc001622fb5e363b421",
            "receiptTrie": "0x56e81f171bcc55a6ff8345e692c0f86e5b48e01b996cadc001622fb5e363b421",
            "bloom": "0x00000000000000000000000000000000000000000000000000000000000000000000000000000000000000000000000000000000000000000000000000000000000000000000000000000000000000000000000000000000000000000000000000000000000000000000000000000000000000000000000000000000000000000000000000000000000000000000000000000000000000000000000000000000000000000000000000000000000000000000000000000000000000000000000000000000000000000000000000000000000000000000000000000000000000000000000000000000000000000000000000000000000000000000000000000000",
            "difficulty": "0x00",
            "number": "0x00",
            "gasLimit": "0x01000000",
            "gasUsed": "0x00",
            "timestamp": "0x00",
            "extraData": "0x00",
            "mixHash": "0x0000000000000000000000000000000000000000000000000000000000000000",
            "nonce": "0x0000000000000000",
            "baseFeePerGas": "0x0476",
            "withdrawalsRoot": "0x56e81f171bcc55a6ff8345e692c0f86e5b48e01b996cadc001622fb5e363b421",
            "blobGasUsed": "0x00",
            "excessBlobGas": "0x00",
            "parentBeaconBlockRoot": "0x0000000000000000000000000000000000000000000000000000000000000000",
            "hash": "0x476dd86d4a6dd59564584b558a0a7b2631bde75783b0f02af5ff24b0d71037a6"
        },
        "pre": {
            "0x000f3df6d732807ef1319fb7b8bb8522d0beac02": {
                "nonce": "0x01",
                "balance": "0x00",
                "code": "0x3373fffffffffffffffffffffffffffffffffffffffe14604d57602036146024575f5ffd5b5f35801560495762001fff810690815414603c575f5ffd5b62001fff01545f5260205ff35b5f5ffd5b62001fff42064281555f359062001fff015500",
                "storage": {}
            },
            "0xe9d050af4e864e83c38a83b4b69407e6ff3c70c5": {
                "nonce": "0x01",
                "balance": "0xe8d848c3a0",
                "code": "0x",
                "storage": {}
            },
            "0x7e9d1ff50f8eb9591a0434abfe3230054a934124": {
                "nonce": "0x01",
                "balance": "0x0de0b6b3a7640000",
                "code": "0x60008060005580600155806002558060035580600455806005558060065560075500",
                "storage": {
                    "0x00": "0x60a7",
                    "0x01": "0x60a7",
                    "0x02": "0x60a7",
                    "0x03": "0x60a7",
                    "0x04": "0x60a7",
                    "0x05": "0x60a7",
                    "0x06": "0x60a7",
                    "0x07": "0x60a7"
                }
            }
        },
        "postState": {
            "0x000f3df6d732807ef1319fb7b8bb8522d0beac02": {
                "nonce": "0x01",
                "balance": "0x00",
                "code": "0x3373fffffffffffffffffffffffffffffffffffffffe14604d57602036146024575f5ffd5b5f35801560495762001fff810690815414603c575f5ffd5b62001fff01545f5260205ff35b5f5ffd5b62001fff42064281555f359062001fff015500",
                "storage": {
                    "0x03e8": "0x03e8"
                }
            },
            "0xe9d050af4e864e83c38a83b4b69407e6ff3c70c5": {
                "nonce": "0x02",
                "balance": "0xe8d55f7e90",
                "code": "0x",
                "storage": {}
            },
            "0x7e9d1ff50f8eb9591a0434abfe3230054a934124": {
                "nonce": "0x01",
                "balance": "0x0de0b6b3a7640000",
                "code": "0x60008060005580600155806002558060035580600455806005558060065560075500",
                "storage": {}
            }
        },
        "lastblockhash": "0xa154de2714a75c903ca67d79010d30fe52348bff6f21bf6a7abd9aa3641841da",
        "config": {
            "network": "Cancun",
            "chainid": "0x01",
            "blobSchedule": {
                "Cancun": {
                    "target": "0x03",
                    "max": "0x06",
                    "baseFeeUpdateFraction": "0x32f0ed"
                }
            }
        },
        "genesisRLP": "0xf9023ef90238a00000000000000000000000000000000000000000000000000000000000000000a01dcc4de8dec75d7aab85b567b6ccd41ad312451b948a7413f0a142fd40d49347940000000000000000000000000000000000000000a049d74c68a7ae69cab91706e16336d067030874e609a1bc99b0e818345f6e49f9a056e81f171bcc55a6ff8345e692c0f86e5b48e01b996cadc001622fb5e363b421a056e81f171bcc55a6ff8345e692c0f86e5b48e01b996cadc001622fb5e363b421b901000000000000000000000000000000000000000000000000000000000000000000000000000000000000000000000000000000000000000000000000000000000000000000000000000000000000000000000000000000000000000000000000000000000000000000000000000000000000000000000000000000000000000000000000000000000000000000000000000000000000000000000000000000000000000000000000000000000000000000000000000000000000000000000000000000000000000000000000000000000000000000000000000000000000000000000000000000000000000000000000000000000000000000000000000000000080808401000000808000a00000000000000000000000000000000000000000000000000000000000000000880000000000000000820476a056e81f171bcc55a6ff8345e692c0f86e5b48e01b996cadc001622fb5e363b4218080a00000000000000000000000000000000000000000000000000000000000000000c0c0c0",
        "blocks": [
            {
                "blockHeader": {
                    "parentHash": "0x476dd86d4a6dd59564584b558a0a7b2631bde75783b0f02af5ff24b0d71037a6",
                    "uncleHash": "0x1dcc4de8dec75d7aab85b567b6ccd41ad312451b948a7413f0a142fd40d49347",
                    "coinbase": "0x2adc25665018aa1fe0e6bc666dac8fc2697ff9ba",
                    "stateRoot": "0x7423d1f5bdb6b882b1188baee3d01bd8181be46ac0f5cfaa750300984e277aea",
                    "transactionsTrie": "0xc6ef62eacb79a9450840581c74a416d575849b11ed055ab2395523bab18a0d6b",
                    "receiptTrie": "0xa1267dc8cb9b1eb6a801b3b02fcf24df7b3a62b8a094bdfd43a49546ee4164b8",
                    "bloom": "0x00000000000000000000000000000000000000000000000000000000000000000000000000000000000000000000000000000000000000000000000000000000000000000000000000000000000000000000000000000000000000000000000000000000000000000000000000000000000000000000000000000000000000000000000000000000000000000000000000000000000000000000000000000000000000000000000000000000000000000000000000000000000000000000000000000000000000000000000000000000000000000000000000000000000000000000000000000000000000000000000000000000000000000000000000000000",
                    "difficulty": "0x00",
                    "number": "0x01",
                    "gasLimit": "0x01000000",
                    "gasUsed": "0xbeca",
                    "timestamp": "0x03e8",
                    "extraData": "0x00",
                    "mixHash": "0x0000000000000000000000000000000000000000000000000000000000020000",
                    "nonce": "0x0000000000000000",
                    "baseFeePerGas": "0x03e8",
                    "withdrawalsRoot": "0x56e81f171bcc55a6ff8345e692c0f86e5b48e01b996cadc001622fb5e363b421",
                    "blobGasUsed": "0x00",
                    "excessBlobGas": "0x00",
                    "parentBeaconBlockRoot": "0x0000000000000000000000000000000000000000000000000000000000000000",
                    "hash": "0xa154de2714a75c903ca67d79010d30fe52348bff6f21bf6a7abd9aa3641841da"
                },
                "transactions": [
                    {
                        "type": "0x01",
                        "chainId": "0x01",
                        "nonce": "0x01",
                        "gasPrice": "0x03e8",
                        "gasLimit": "0x27b028",
                        "to": "0x7e9d1ff50f8eb9591a0434abfe3230054a934124",
                        "value": "0x00",
                        "data": "0x00",
                        "accessList": [],
                        "v": "0x00",
                        "r": "0xcc211bc8b21aebbbd361d2623cd93724e611f4de7fd4bf3e7f09e6952d1b6195",
                        "s": "0x7f6522e763d1083515a4a08a311c5ac42960484b59a30b220e200132f02d29b2",
                        "sender": "0xe9d050af4e864e83c38a83b4b69407e6ff3c70c5"
                    }
                ],
                "uncleHeaders": [],
                "withdrawals": [],
                "receipts": [
                    {
                        "transactionHash": "0x8399b1b21785ab5a748d721dc4f0845afe87f5a206136c644c9f9f4c284bd242",
                        "type": "0x01",
                        "cumulativeGasUsed": "0xbeca",
                        "bloom": "0x00000000000000000000000000000000000000000000000000000000000000000000000000000000000000000000000000000000000000000000000000000000000000000000000000000000000000000000000000000000000000000000000000000000000000000000000000000000000000000000000000000000000000000000000000000000000000000000000000000000000000000000000000000000000000000000000000000000000000000000000000000000000000000000000000000000000000000000000000000000000000000000000000000000000000000000000000000000000000000000000000000000000000000000000000000000",
                        "logs": [],
                        "status": true,
                        "rlp": "0x01f901080182becab9010000000000000000000000000000000000000000000000000000000000000000000000000000000000000000000000000000000000000000000000000000000000000000000000000000000000000000000000000000000000000000000000000000000000000000000000000000000000000000000000000000000000000000000000000000000000000000000000000000000000000000000000000000000000000000000000000000000000000000000000000000000000000000000000000000000000000000000000000000000000000000000000000000000000000000000000000000000000000000000000000000000000000000000000000000000000c0"
                    }
                ],
                "rlp": "0xf902acf9023ca0476dd86d4a6dd59564584b558a0a7b2631bde75783b0f02af5ff24b0d71037a6a01dcc4de8dec75d7aab85b567b6ccd41ad312451b948a7413f0a142fd40d49347942adc25665018aa1fe0e6bc666dac8fc2697ff9baa07423d1f5bdb6b882b1188baee3d01bd8181be46ac0f5cfaa750300984e277aeaa0c6ef62eacb79a9450840581c74a416d575849b11ed055ab2395523bab18a0d6ba0a1267dc8cb9b1eb6a801b3b02fcf24df7b3a62b8a094bdfd43a49546ee4164b8b90100000000000000000000000000000000000000000000000000000000000000000000000000000000000000000000000000000000000000000000000000000000000000000000000000000000000000000000000000000000000000000000000000000000000000000000000000000000000000000000000000000000000000000000000000000000000000000000000000000000000000000000000000000000000000000000000000000000000000000000000000000000000000000000000000000000000000000000000000000000000000000000000000000000000000000000000000000000000000000000000000000000000000000000000000000000008001840100000082beca8203e800a000000000000000000000000000000000000000000000000000000000000200008800000000000000008203e8a056e81f171bcc55a6ff8345e692c0f86e5b48e01b996cadc001622fb5e363b4218080a00000000000000000000000000000000000000000000000000000000000000000f869b86701f86401018203e88327b028947e9d1ff50f8eb9591a0434abfe3230054a9341248000c080a0cc211bc8b21aebbbd361d2623cd93724e611f4de7fd4bf3e7f09e6952d1b6195a07f6522e763d1083515a4a08a311c5ac42960484b59a30b220e200132f02d29b2c0c0",
                "blocknumber": "1"
            }
        ],
        "sealEngine": "NoProof",
        "_info": {
            "hash": "0xa6a9184bf92308c3049fd1edc0000aec92cc8000e538e3b3100a1581ef34c4b7",
            "fixture-format": "blockchain_test",
            "comment": "`execution-specs` generated test",
            "filling-transition-tool": "2.19.0",
            "description": "No description available - add a docstring to the python test class or function.",
            "url": "",
            "opcode_count": {}
        }
    }
}