{
    "tests/static/state_tests/stRefundTest/refund_CallToSuicideNoStorageFiller.json::refund_CallToSuicideNoStorage[fork_Cancun-blockchain_test_from_state_test-d0]": {
        "network": "Cancun",
        "genesisBlockHeader": {
            "parentHash": "0x0000000000000000000000000000000000000000000000000000000000000000",
            "uncleHash": "0x1dcc4de8dec75d7aab85b567b6ccd41ad312451b948a7413f0a142fd40d49347",
            "coinbase": "0x0000000000000000000000000000000000000000",
            "stateRoot": "0x81c5ff42fe57b2aac9404192a739ad60fdf9db905e25b0d68cd832d21b4622e7",
            "transactionsTrie": "0x56e81f171bcc55a6ff8345e692c0f86e5b48e01b996cadc001622fb5e363b421",
            "receiptTrie": "0x56e81f171bcc55a6ff8345e692c0f86e5b48e01b996cadc001622fb5e363b421",
            "bloom": "0x00000000000000000000000000000000000000000000000000000000000000000000000000000000000000000000000000000000000000000000000000000000000000000000000000000000000000000000000000000000000000000000000000000000000000000000000000000000000000000000000000000000000000000000000000000000000000000000000000000000000000000000000000000000000000000000000000000000000000000000000000000000000000000000000000000000000000000000000000000000000000000000000000000000000000000000000000000000000000000000000000000000000000000000000000000000",
            "difficulty": "0x00",
            "number": "0x00",
            "gasLimit": "0x05f5e100",
            "gasUsed": "0x00",
            "timestamp": "0x00",
            "extraData": "0x00",
            "mixHash": "0x0000000000000000000000000000000000000000000000000000000000000000",
            "nonce": "0x0000000000000000",
            "baseFeePerGas": "0x0b",
            "withdrawalsRoot": "0x56e81f171bcc55a6ff8345e692c0f86e5b48e01b996cadc001622fb5e363b421",
            "blobGasUsed": "0x00",
            "excessBlobGas": "0x00",
            "parentBeaconBlockRoot": "0x0000000000000000000000000000000000000000000000000000000000000000",
            "hash": "0x284fef3ad6898a8f58c0de43aac962e39bf1eed1af040d2e654ce37216c3994a"
        },
        "pre": {
            "0x000f3df6d732807ef1319fb7b8bb8522d0beac02": {
                "nonce": "0x01",
                "balance": "0x00",
                "code": "0x3373fffffffffffffffffffffffffffffffffffffffe14604d57602036146024575f5ffd5b5f35801560495762001fff810690815414603c575f5ffd5b62001fff01545f5260205ff35b5f5ffd5b62001fff42064281555f359062001fff015500",
                "storage": {}
            },
            "0xd96ed4431b417993ab4f4d4a656959d13c66e1dc": {
                "nonce": "0x00",
                "balance": "0x02540be400",
                "code": "0x",
                "storage": {}
            },
            "0x5be4b33890f720eff72be0019b122e0ff75cb937": {
                "nonce": "0x00",
                "balance": "0x0de0b6b3a7640000",
                "code": "0x60006000600060006000734ff65047ce9c85f968689e4369c10003026a41a9600035f160005500",
                "storage": {
                    "0x01": "0x01"
                }
            },
            "0x4ff65047ce9c85f968689e4369c10003026a41a9": {
                "nonce": "0x00",
                "balance": "0x0de0b6b3a7640000",
                "code": "0x735be4b33890f720eff72be0019b122e0ff75cb937ff00",
                "storage": {}
            }
        },
        "postState": {
            "0x000f3df6d732807ef1319fb7b8bb8522d0beac02": {
                "nonce": "0x01",
                "balance": "0x00",
                "code": "0x3373fffffffffffffffffffffffffffffffffffffffe14604d57602036146024575f5ffd5b5f35801560495762001fff810690815414603c575f5ffd5b62001fff01545f5260205ff35b5f5ffd5b62001fff42064281555f359062001fff015500",
                "storage": {
                    "0x03e8": "0x03e8"
                }
            },
            "0xd96ed4431b417993ab4f4d4a656959d13c66e1dc": {
                "nonce": "0x01",
                "balance": "0x025407d9a0",
                "code": "0x",
                "storage": {}
            },
            "0x5be4b33890f720eff72be0019b122e0ff75cb937": {
                "nonce": "0x00",
                "balance": "0x0de0b6b3a764000a",
                "code": "0x60006000600060006000734ff65047ce9c85f968689e4369c10003026a41a9600035f160005500",
                "storage": {
                    "0x01": "0x01"
                }
            },
            "0x4ff65047ce9c85f968689e4369c10003026a41a9": {
                "nonce": "0x00",
                "balance": "0x0de0b6b3a7640000",
                "code": "0x735be4b33890f720eff72be0019b122e0ff75cb937ff00",
                "storage": {}
            }
        },
        "lastblockhash": "0x551224933bd76395d2a36cd68e850fd4c405fd49f35abf9ad7e458cec1d6caef",
        "config": {
            "network": "Cancun",
            "chainid": "0x01",
            "blobSchedule": {
                "Cancun": {
                    "target": "0x03",
                    "max": "0x06",
                    "baseFeeUpdateFraction": "0x32f0ed"
                }
            }
        },
        "genesisRLP": "0xf9023cf90236a00000000000000000000000000000000000000000000000000000000000000000a01dcc4de8dec75d7aab85b567b6ccd41ad312451b948a7413f0a142fd40d49347940000000000000000000000000000000000000000a081c5ff42fe57b2aac9404192a739ad60fdf9db905e25b0d68cd832d21b4622e7a056e81f171bcc55a6ff8345e692c0f86e5b48e01b996cadc001622fb5e363b421a056e81f171bcc55a6ff8345e692c0f86e5b48e01b996cadc001622fb5e363b421b901000000000000000000000000000000000000000000000000000000000000000000000000000000000000000000000000000000000000000000000000000000000000000000000000000000000000000000000000000000000000000000000000000000000000000000000000000000000000000000000000000000000000000000000000000000000000000000000000000000000000000000000000000000000000000000000000000000000000000000000000000000000000000000000000000000000000000000000000000000000000000000000000000000000000000000000000000000000000000000000000000000000000000000000000000000000080808405f5e100808000a000000000000000000000000000000000000000000000000000000000000000008800000000000000000ba056e81f171bcc55a6ff8345e692c0f86e5b48e01b996cadc001622fb5e363b4218080a00000000000000000000000000000000000000000000000000000000000000000c0c0c0",
        "blocks": [
            {
                "blockHeader": {
                    "parentHash": "0x284fef3ad6898a8f58c0de43aac962e39bf1eed1af040d2e654ce37216c3994a",
                    "uncleHash": "0x1dcc4de8dec75d7aab85b567b6ccd41ad312451b948a7413f0a142fd40d49347",
                    "coinbase": "0x2adc25665018aa1fe0e6bc666dac8fc2697ff9ba",
                    "stateRoot": "0xc88053dc6ba3741bcd69dbabb23541e90520eb42e343f79cb50a583ab61924b8",
                    "transactionsTrie": "0xebbf5884c57b81e35f0d7db41a5fe2effd5139bb8a255fc56d4970e4ca6c2c96",
                    "receiptTrie": "0x97c6de02fb5872b46a6b6a83bb382684354622ce38b21cefe7c2bf0a658250c8",
                    "bloom": "0x00000000000000000000000000000000000000000000000000000000000000000000000000000000000000000000000000000000000000000000000000000000000000000000000000000000000000000000000000000000000000000000000000000000000000000000000000000000000000000000000000000000000000000000000000000000000000000000000000000000000000000000000000000000000000000000000000000000000000000000000000000000000000000000000000000000000000000000000000000000000000000000000000000000000000000000000000000000000000000000000000000000000000000000000000000000",
                    "difficulty": "0x00",
                    "number": "0x01",
                    "gasLimit": "0x05f5e100",
                    "gasUsed": "0x676f",
                    "timestamp": "0x03e8",
                    "extraData": "0x00",
                    "mixHash": "0x0000000000000000000000000000000000000000000000000000000000020000",
                    "nonce": "0x0000000000000000",
                    "baseFeePerGas": "0x0a",
                    "withdrawalsRoot": "0x56e81f171bcc55a6ff8345e692c0f86e5b48e01b996cadc001622fb5e363b421",
                    "blobGasUsed": "0x00",
                    "excessBlobGas": "0x00",
                    "parentBeaconBlockRoot": "0x0000000000000000000000000000000000000000000000000000000000000000",
                    "hash": "0x551224933bd76395d2a36cd68e850fd4c405fd49f35abf9ad7e458cec1d6caef"
                },
                "transactions": [
                    {
                        "type": "0x00",
                        "chainId": "0x01",
                        "nonce": "0x00",
                        "gasPrice": "0x0a",
                        "gasLimit": "0x989680",
                        "to": "0x5be4b33890f720eff72be0019b122e0ff75cb937",
                        "value": "0x0a",
                        "data": "0x00000000000000000000000000000000000000000000000000000000000001f4",
                        "v": "0x25",
                        "r": "0xc3e09676ea5b2f3e49700bb4e4d45442fa1623a02ead7fc79d354116f387da9d",
                        "s": "0x0158ec84ac14bde2fabab0b4c110c4807bd3e2a201bbf7f1a833ecdef11e6a97",
                        "sender": "0xd96ed4431b417993ab4f4d4a656959d13c66e1dc"
                    }
                ],
                "uncleHeaders": [],
                "withdrawals": [],
                "receipts": [
                    {
                        "transactionHash": "0x99850dd085639902f81c48692ab6a44ac97f46019b0701ca66a3704f5874114c",
                        "type": "0x00",
                        "cumulativeGasUsed": "0x676f",
                        "bloom": "0x00000000000000000000000000000000000000000000000000000000000000000000000000000000000000000000000000000000000000000000000000000000000000000000000000000000000000000000000000000000000000000000000000000000000000000000000000000000000000000000000000000000000000000000000000000000000000000000000000000000000000000000000000000000000000000000000000000000000000000000000000000000000000000000000000000000000000000000000000000000000000000000000000000000000000000000000000000000000000000000000000000000000000000000000000000000",
                        "logs": [],
                        "status": true,
                        "rlp": "0xf901080182676fb9010000000000000000000000000000000000000000000000000000000000000000000000000000000000000000000000000000000000000000000000000000000000000000000000000000000000000000000000000000000000000000000000000000000000000000000000000000000000000000000000000000000000000000000000000000000000000000000000000000000000000000000000000000000000000000000000000000000000000000000000000000000000000000000000000000000000000000000000000000000000000000000000000000000000000000000000000000000000000000000000000000000000000000000000000000000000c0"
                    }
                ],
                "rlp": "0xf902c3f9023aa0284fef3ad6898a8f58c0de43aac962e39bf1eed1af040d2e654ce37216c3994aa01dcc4de8dec75d7aab85b567b6ccd41ad312451b948a7413f0a142fd40d49347942adc25665018aa1fe0e6bc666dac8fc2697ff9baa0c88053dc6ba3741bcd69dbabb23541e90520eb42e343f79cb50a583ab61924b8a0ebbf5884c57b81e35f0d7db41a5fe2effd5139bb8a255fc56d4970e4ca6c2c96a097c6de02fb5872b46a6b6a83bb382684354622ce38b21cefe7c2bf0a658250c8b901000000000000000000000000000000000000000000000000000000000000000000000000000000000000000000000000000000000000000000000000000000000000000000000000000000000000000000000000000000000000000000000000000000000000000000000000000000000000000000000000000000000000000000000000000000000000000000000000000000000000000000000000000000000000000000000000000000000000000000000000000000000000000000000000000000000000000000000000000000000000000000000000000000000000000000000000000000000000000000000000000000000000000000000000000000000080018405f5e10082676f8203e800a000000000000000000000000000000000000000000000000000000000000200008800000000000000000aa056e81f171bcc55a6ff8345e692c0f86e5b48e01b996cadc001622fb5e363b4218080a00000000000000000000000000000000000000000000000000000000000000000f882f880800a83989680945be4b33890f720eff72be0019b122e0ff75cb9370aa000000000000000000000000000000000000000000000000000000000000001f425a0c3e09676ea5b2f3e49700bb4e4d45442fa1623a02ead7fc79d354116f387da9da00158ec84ac14bde2fabab0b4c110c4807bd3e2a201bbf7f1a833ecdef11e6a97c0c0",
                "blocknumber": "1"
            }
        ],
        "sealEngine": "NoProof",
        "_info": {
            "hash": "0xe36a1001ae2d1d8eebb7f5a51fa40ae6a827470a55082836f34c17f021753c57",
            "fixture-format": "blockchain_test",
            "comment": "`execution-specs` generated test",
            "filling-transition-tool": "2.19.0",
            "description": "No description available - add a docstring to the python test class or function.",
            "url": "",
            "opcode_count": {}
        }
    },
    "tests/static/state_tests/stRefundTest/refund_CallToSuicideNoStorageFiller.json::refund_CallToSuicideNoStorage[fork_Cancun-blockchain_test_from_state_test-d1]": {
        "network": "Cancun",
        "genesisBlockHeader": {
            "parentHash": "0x0000000000000000000000000000000000000000000000000000000000000000",
            "uncleHash": "0x1dcc4de8dec75d7aab85b567b6ccd41ad312451b948a7413f0a142fd40d49347",
            "coinbase": "0x0000000000000000000000000000000000000000",
            "stateRoot": "0x81c5ff42fe57b2aac9404192a739ad60fdf9db905e25b0d68cd832d21b4622e7",
            "transactionsTrie": "0x56e81f171bcc55a6ff8345e692c0f86e5b48e01b996cadc001622fb5e363b421",
            "receiptTrie": "0x56e81f171bcc55a6ff8345e692c0f86e5b48e01b996cadc001622fb5e363b421",
            "bloom": "0x00000000000000000000000000000000000000000000000000000000000000000000000000000000000000000000000000000000000000000000000000000000000000000000000000000000000000000000000000000000000000000000000000000000000000000000000000000000000000000000000000000000000000000000000000000000000000000000000000000000000000000000000000000000000000000000000000000000000000000000000000000000000000000000000000000000000000000000000000000000000000000000000000000000000000000000000000000000000000000000000000000000000000000000000000000000",
            "difficulty": "0x00",
            "number": "0x00",
            "gasLimit": "0x05f5e100",
            "gasUsed": "0x00",
            "timestamp": "0x00",
            "extraData": "0x00",
            "mixHash": "0x0000000000000000000000000000000000000000000000000000000000000000",
            "nonce": "0x0000000000000000",
            "baseFeePerGas": "0x0b",
            "withdrawalsRoot": "0x56e81f171bcc55a6ff8345e692c0f86e5b48e01b996cadc001622fb5e363b421",
            "blobGasUsed": "0x00",
            "excessBlobGas": "0x00",
            "parentBeaconBlockRoot": "0x0000000000000000000000000000000000000000000000000000000000000000",
            "hash": "0x284fef3ad6898a8f58c0de43aac962e39bf1eed1af040d2e654ce37216c3994a"
        },
        "pre": {
            "0x000f3df6d732807ef1319fb7b8bb8522d0beac02": {
                "nonce": "0x01",
                "balance": "0x00",
                "code": "0x3373fffffffffffffffffffffffffffffffffffffffe14604d57602036146024575f5ffd5b5f35801560495762001fff810690815414603c575f5ffd5b62001fff01545f5260205ff35b5f5ffd5b62001fff42064281555f359062001fff015500",
                "storage": {}
            },
            "0xd96ed4431b417993ab4f4d4a656959d13c66e1dc": {
                "nonce": "0x00",
                "balance": "0x02540be400",
                "code": "0x",
                "storage": {}
            },
            "0x5be4b33890f720eff72be0019b122e0ff75cb937": {
                "nonce": "0x00",
                "balance": "0x0de0b6b3a7640000",
                "code": "0x60006000600060006000734ff65047ce9c85f968689e4369c10003026a41a9600035f160005500",
                "storage": {
                    "0x01": "0x01"
                }
            },
            "0x4ff65047ce9c85f968689e4369c10003026a41a9": {
                "nonce": "0x00",
                "balance": "0x0de0b6b3a7640000",
                "code": "0x735be4b33890f720eff72be0019b122e0ff75cb937ff00",
                "storage": {}
            }
        },
        "postState": {
            "0x000f3df6d732807ef1319fb7b8bb8522d0beac02": {
                "nonce": "0x01",
                "balance": "0x00",
                "code": "0x3373fffffffffffffffffffffffffffffffffffffffe14604d57602036146024575f5ffd5b5f35801560495762001fff810690815414603c575f5ffd5b62001fff01545f5260205ff35b5f5ffd5b62001fff42064281555f359062001fff015500",
                "storage": {
                    "0x03e8": "0x03e8"
                }
            },
            "0xd96ed4431b417993ab4f4d4a656959d13c66e1dc": {
                "nonce": "0x01",
                "balance": "0x02540420da",
                "code": "0x",
                "storage": {}
            },
            "0x5be4b33890f720eff72be0019b122e0ff75cb937": {
                "nonce": "0x00",
                "balance": "0x1bc16d674ec8000a",
                "code": "0x60006000600060006000734ff65047ce9c85f968689e4369c10003026a41a9600035f160005500",
                "storage": {
                    "0x01": "0x01",
                    "0x00": "0x01"
                }
            },
            "0x4ff65047ce9c85f968689e4369c10003026a41a9": {
                "nonce": "0x00",
                "balance": "0x00",
                "code": "0x735be4b33890f720eff72be0019b122e0ff75cb937ff00",
                "storage": {}
            }
        },
        "lastblockhash": "0x2d6fc66eb3aaa285a824e8607182d72647c47f246f83110e7d64016ed5c2781d",
        "config": {
            "network": "Cancun",
            "chainid": "0x01",
            "blobSchedule": {
                "Cancun": {
                    "target": "0x03",
                    "max": "0x06",
                    "baseFeeUpdateFraction": "0x32f0ed"
                }
            }
        },
        "genesisRLP": "0xf9023cf90236a00000000000000000000000000000000000000000000000000000000000000000a01dcc4de8dec75d7aab85b567b6ccd41ad312451b948a7413f0a142fd40d49347940000000000000000000000000000000000000000a081c5ff42fe57b2aac9404192a739ad60fdf9db905e25b0d68cd832d21b4622e7a056e81f171bcc55a6ff8345e692c0f86e5b48e01b996cadc001622fb5e363b421a056e81f171bcc55a6ff8345e692c0f86e5b48e01b996cadc001622fb5e363b421b901000000000000000000000000000000000000000000000000000000000000000000000000000000000000000000000000000000000000000000000000000000000000000000000000000000000000000000000000000000000000000000000000000000000000000000000000000000000000000000000000000000000000000000000000000000000000000000000000000000000000000000000000000000000000000000000000000000000000000000000000000000000000000000000000000000000000000000000000000000000000000000000000000000000000000000000000000000000000000000000000000000000000000000000000000000000080808405f5e100808000a000000000000000000000000000000000000000000000000000000000000000008800000000000000000ba056e81f171bcc55a6ff8345e692c0f86e5b48e01b996cadc001622fb5e363b4218080a00000000000000000000000000000000000000000000000000000000000000000c0c0c0",
        "blocks": [
            {
                "blockHeader": {
                    "parentHash": "0x284fef3ad6898a8f58c0de43aac962e39bf1eed1af040d2e654ce37216c3994a",
                    "uncleHash": "0x1dcc4de8dec75d7aab85b567b6ccd41ad312451b948a7413f0a142fd40d49347",
                    "coinbase": "0x2adc25665018aa1fe0e6bc666dac8fc2697ff9ba",
                    "stateRoot": "0xb6f3e529af9f3147d97073d46c50e74ccce534c8325eb39a9e1e2b6262358411",
                    "transactionsTrie": "0xdb02008a83b5e6cbe0bcc3e5d166921fcc1aca0acc75dc47a20619970bf78cda",
                    "receiptTrie": "0x1308bb235d16e8d6d7cd60b981eb70f9e87ef5ce00796ec0ecdd001807703a8f",
                    "bloom": "0x00000000000000000000000000000000000000000000000000000000000000000000000000000000000000000000000000000000000000000000000000000000000000000000000000000000000000000000000000000000000000000000000000000000000000000000000000000000000000000000000000000000000000000000000000000000000000000000000000000000000000000000000000000000000000000000000000000000000000000000000000000000000000000000000000000000000000000000000000000000000000000000000000000000000000000000000000000000000000000000000000000000000000000000000000000000",
                    "difficulty": "0x00",
                    "number": "0x01",
                    "gasLimit": "0x05f5e100",
                    "gasUsed": "0xc6b6",
                    "timestamp": "0x03e8",
                    "extraData": "0x00",
                    "mixHash": "0x0000000000000000000000000000000000000000000000000000000000020000",
                    "nonce": "0x0000000000000000",
                    "baseFeePerGas": "0x0a",
                    "withdrawalsRoot": "0x56e81f171bcc55a6ff8345e692c0f86e5b48e01b996cadc001622fb5e363b421",
                    "blobGasUsed": "0x00",
                    "excessBlobGas": "0x00",
                    "parentBeaconBlockRoot": "0x0000000000000000000000000000000000000000000000000000000000000000",
                    "hash": "0x2d6fc66eb3aaa285a824e8607182d72647c47f246f83110e7d64016ed5c2781d"
                },
                "transactions": [
                    {
                        "type": "0x00",
                        "chainId": "0x01",
                        "nonce": "0x00",
                        "gasPrice": "0x0a",
                        "gasLimit": "0x989680",
                        "to": "0x5be4b33890f720eff72be0019b122e0ff75cb937",
                        "value": "0x0a",
                        "data": "0x0000000000000000000000000000000000000000000000000000000000010000",
                        "v": "0x26",
                        "r": "0xf39b51b9a7fbbb7b7ed70fa042c6160150ea8db37e71b72b3fc19bd0d22d8980",
                        "s": "0x3e6dc9cf66e13e0ce4ccf83ab9f29ca6555d2289dc239e23576c6bb37700c961",
                        "sender": "0xd96ed4431b417993ab4f4d4a656959d13c66e1dc"
                    }
                ],
                "uncleHeaders": [],
                "withdrawals": [],
                "receipts": [
                    {
                        "transactionHash": "0x008b5711d11be7a9e316a6a2434dc9dd989afcb360e6f4c3d34a75c9362a62a6",
                        "type": "0x00",
                        "cumulativeGasUsed": "0xc6b6",
                        "bloom": "0x00000000000000000000000000000000000000000000000000000000000000000000000000000000000000000000000000000000000000000000000000000000000000000000000000000000000000000000000000000000000000000000000000000000000000000000000000000000000000000000000000000000000000000000000000000000000000000000000000000000000000000000000000000000000000000000000000000000000000000000000000000000000000000000000000000000000000000000000000000000000000000000000000000000000000000000000000000000000000000000000000000000000000000000000000000000",
                        "logs": [],
                        "status": true,
                        "rlp": "0xf901080182c6b6b9010000000000000000000000000000000000000000000000000000000000000000000000000000000000000000000000000000000000000000000000000000000000000000000000000000000000000000000000000000000000000000000000000000000000000000000000000000000000000000000000000000000000000000000000000000000000000000000000000000000000000000000000000000000000000000000000000000000000000000000000000000000000000000000000000000000000000000000000000000000000000000000000000000000000000000000000000000000000000000000000000000000000000000000000000000000000c0"
                    }
                ],
                "rlp": "0xf902c3f9023aa0284fef3ad6898a8f58c0de43aac962e39bf1eed1af040d2e654ce37216c3994aa01dcc4de8dec75d7aab85b567b6ccd41ad312451b948a7413f0a142fd40d49347942adc25665018aa1fe0e6bc666dac8fc2697ff9baa0b6f3e529af9f3147d97073d46c50e74ccce534c8325eb39a9e1e2b6262358411a0db02008a83b5e6cbe0bcc3e5d166921fcc1aca0acc75dc47a20619970bf78cdaa01308bb235d16e8d6d7cd60b981eb70f9e87ef5ce00796ec0ecdd001807703a8fb901000000000000000000000000000000000000000000000000000000000000000000000000000000000000000000000000000000000000000000000000000000000000000000000000000000000000000000000000000000000000000000000000000000000000000000000000000000000000000000000000000000000000000000000000000000000000000000000000000000000000000000000000000000000000000000000000000000000000000000000000000000000000000000000000000000000000000000000000000000000000000000000000000000000000000000000000000000000000000000000000000000000000000000000000000000000080018405f5e10082c6b68203e800a000000000000000000000000000000000000000000000000000000000000200008800000000000000000aa056e81f171bcc55a6ff8345e692c0f86e5b48e01b996cadc001622fb5e363b4218080a00000000000000000000000000000000000000000000000000000000000000000f882f880800a83989680945be4b33890f720eff72be0019b122e0ff75cb9370aa0000000000000000000000000000000000000000000000000000000000001000026a0f39b51b9a7fbbb7b7ed70fa042c6160150ea8db37e71b72b3fc19bd0d22d8980a03e6dc9cf66e13e0ce4ccf83ab9f29ca6555d2289dc239e23576c6bb37700c961c0c0",
                "blocknumber": "1"
            }
        ],
        "sealEngine": "NoProof",
        "_info": {
            "hash": "0x7540d8734f8f0da55503f128fb5795b7b2d4d74db1736023113e85740217b55d",
            "fixture-format": "blockchain_test",
            "comment": "`execution-specs` generated test",
            "filling-transition-tool": "2.19.0",
            "description": "No description available - add a docstring to the python test class or function.",
            "url": "",
            "opcode_count": {}
        }
    }
}