{
    "tests/byzantium/eip196_ec_add_mul/test_gas.py::test_invalid_gas_consumption[fork_Shanghai-blockchain_test_from_state_test-exact-ecadd]": {
        "network": "Shanghai",
        "genesisBlockHeader": {
            "parentHash": "0x0000000000000000000000000000000000000000000000000000000000000000",
            "uncleHash": "0x1dcc4de8dec75d7aab85b567b6ccd41ad312451b948a7413f0a142fd40d49347",
            "coinbase": "0x0000000000000000000000000000000000000000",
            "stateRoot": "0x63574516a1e7d182ea1ab7e9c624a5654eb4b348af74e8061530d69adf37e90d",
            "transactionsTrie": "0x56e81f171bcc55a6ff8345e692c0f86e5b48e01b996cadc001622fb5e363b421",
            "receiptTrie": "0x56e81f171bcc55a6ff8345e692c0f86e5b48e01b996cadc001622fb5e363b421",
            "bloom": "0x00000000000000000000000000000000000000000000000000000000000000000000000000000000000000000000000000000000000000000000000000000000000000000000000000000000000000000000000000000000000000000000000000000000000000000000000000000000000000000000000000000000000000000000000000000000000000000000000000000000000000000000000000000000000000000000000000000000000000000000000000000000000000000000000000000000000000000000000000000000000000000000000000000000000000000000000000000000000000000000000000000000000000000000000000000000",
            "difficulty": "0x00",
            "number": "0x00",
            "gasLimit": "0x07270e00",
            "gasUsed": "0x00",
            "timestamp": "0x00",
            "extraData": "0x00",
            "mixHash": "0x0000000000000000000000000000000000000000000000000000000000000000",
            "nonce": "0x0000000000000000",
            "baseFeePerGas": "0x07",
            "withdrawalsRoot": "0x56e81f171bcc55a6ff8345e692c0f86e5b48e01b996cadc001622fb5e363b421",
            "hash": "0x9865c2f4a91e3caf2e8e716467df9fc56dfe77d84941e39e0a7efc5d578c0335"
        },
        "pre": {
            "0x82e8a3a970ed90a9226db1ba3317f92a463b32f6": {
                "nonce": "0x01",
                "balance": "0x00",
                "code": "0x6001600052600360205260006040526000606052600060006000600060066000fa505a600060006080600060066096fa5a9050900360125a5a900301900360005500",
                "storage": {}
            },
            "0x1ad9bc24818784172ff393bb6f89f094d4d2ca29": {
                "nonce": "0x00",
                "balance": "0x3635c9adc5dea00000",
                "code": "0x",
                "storage": {}
            }
        },
        "postState": {
            "0x82e8a3a970ed90a9226db1ba3317f92a463b32f6": {
                "nonce": "0x01",
                "balance": "0x00",
                "code": "0x6001600052600360205260006040526000606052600060006000600060066000fa505a600060006080600060066096fa5a9050900360125a5a900301900360005500",
                "storage": {
                    "0x00": "0xfa"
                }
            },
            "0x1ad9bc24818784172ff393bb6f89f094d4d2ca29": {
                "nonce": "0x01",
                "balance": "0x3635c9adc5de9959d0",
                "code": "0x",
                "storage": {}
            },
            "0x2adc25665018aa1fe0e6bc666dac8fc2697ff9ba": {
                "nonce": "0x00",
                "balance": "0x01fea8",
                "code": "0x",
                "storage": {}
            }
        },
        "lastblockhash": "0xd8e2a87284747ca205f6ffb0937f421c841bff72bc856c4e10e054b6d1564b46",
        "config": {
            "network": "Shanghai",
            "chainid": "0x01"
        },
        "genesisRLP": "0xf90219f90213a00000000000000000000000000000000000000000000000000000000000000000a01dcc4de8dec75d7aab85b567b6ccd41ad312451b948a7413f0a142fd40d49347940000000000000000000000000000000000000000a063574516a1e7d182ea1ab7e9c624a5654eb4b348af74e8061530d69adf37e90da056e81f171bcc55a6ff8345e692c0f86e5b48e01b996cadc001622fb5e363b421a056e81f171bcc55a6ff8345e692c0f86e5b48e01b996cadc001622fb5e363b421b901000000000000000000000000000000000000000000000000000000000000000000000000000000000000000000000000000000000000000000000000000000000000000000000000000000000000000000000000000000000000000000000000000000000000000000000000000000000000000000000000000000000000000000000000000000000000000000000000000000000000000000000000000000000000000000000000000000000000000000000000000000000000000000000000000000000000000000000000000000000000000000000000000000000000000000000000000000000000000000000000000000000000000000000000000000000080808407270e00808000a0000000000000000000000000000000000000000000000000000000000000000088000000000000000007a056e81f171bcc55a6ff8345e692c0f86e5b48e01b996cadc001622fb5e363b421c0c0c0",
        "blocks": [
            {
                "blockHeader": {
                    "parentHash": "0x9865c2f4a91e3caf2e8e716467df9fc56dfe77d84941e39e0a7efc5d578c0335",
                    "uncleHash": "0x1dcc4de8dec75d7aab85b567b6ccd41ad312451b948a7413f0a142fd40d49347",
                    "coinbase": "0x2adc25665018aa1fe0e6bc666dac8fc2697ff9ba",
                    "stateRoot": "0xbb6ce9c1835613987789d2146b7bfab513a1c8e220d8844e04bc5ae82d43317b",
                    "transactionsTrie": "0x1e871cfc251aa70365cbb0094191314494e5b7b1bc9800c8010237ad22b296af",
                    "receiptTrie": "0x639d7e69c855eabbdecad47c6d8f886251c2a7973a0e8968d68ee09b00014897",
                    "bloom": "0x00000000000000000000000000000000000000000000000000000000000000000000000000000000000000000000000000000000000000000000000000000000000000000000000000000000000000000000000000000000000000000000000000000000000000000000000000000000000000000000000000000000000000000000000000000000000000000000000000000000000000000000000000000000000000000000000000000000000000000000000000000000000000000000000000000000000000000000000000000000000000000000000000000000000000000000000000000000000000000000000000000000000000000000000000000000",
                    "difficulty": "0x00",
                    "number": "0x01",
                    "gasLimit": "0x07270e00",
                    "gasUsed": "0xaa38",
                    "timestamp": "0x03e8",
                    "extraData": "0x00",
                    "mixHash": "0x0000000000000000000000000000000000000000000000000000000000000000",
                    "nonce": "0x0000000000000000",
                    "baseFeePerGas": "0x07",
                    "withdrawalsRoot": "0x56e81f171bcc55a6ff8345e692c0f86e5b48e01b996cadc001622fb5e363b421",
                    "hash": "0xd8e2a87284747ca205f6ffb0937f421c841bff72bc856c4e10e054b6d1564b46"
                },
                "transactions": [
                    {
                        "type": "0x00",
                        "chainId": "0x01",
                        "nonce": "0x00",
                        "gasPrice": "0x0a",
                        "gasLimit": "0x0f4240",
                        "to": "0x82e8a3a970ed90a9226db1ba3317f92a463b32f6",
                        "value": "0x00",
                        "data": "0x",
                        "v": "0x25",
                        "r": "0x9f07859f133be536d82b9f35662d4236b04e6a87051ff57ad4bc3c44c344d64b",
                        "s": "0x719b33137b2b9115c44e6cc37c4e21114fcab174badf9ee33511010c4e5dfd14",
                        "sender": "0x1ad9bc24818784172ff393bb6f89f094d4d2ca29"
                    }
                ],
                "uncleHeaders": [],
                "withdrawals": [],
                "receipts": [
                    {
                        "transactionHash": "0xbfc2ad6da26c3c9be4194b3199dbc990fce1dba53319d18e251fa7dfeb671a21",
                        "type": "0x00",
                        "cumulativeGasUsed": "0xaa38",
                        "bloom": "0x00000000000000000000000000000000000000000000000000000000000000000000000000000000000000000000000000000000000000000000000000000000000000000000000000000000000000000000000000000000000000000000000000000000000000000000000000000000000000000000000000000000000000000000000000000000000000000000000000000000000000000000000000000000000000000000000000000000000000000000000000000000000000000000000000000000000000000000000000000000000000000000000000000000000000000000000000000000000000000000000000000000000000000000000000000000",
                        "logs": [],
                        "status": true,
                        "rlp": "0xf901080182aa38b9010000000000000000000000000000000000000000000000000000000000000000000000000000000000000000000000000000000000000000000000000000000000000000000000000000000000000000000000000000000000000000000000000000000000000000000000000000000000000000000000000000000000000000000000000000000000000000000000000000000000000000000000000000000000000000000000000000000000000000000000000000000000000000000000000000000000000000000000000000000000000000000000000000000000000000000000000000000000000000000000000000000000000000000000000000000000c0"
                    }
                ],
                "rlp": "0xf90280f90217a09865c2f4a91e3caf2e8e716467df9fc56dfe77d84941e39e0a7efc5d578c0335a01dcc4de8dec75d7aab85b567b6ccd41ad312451b948a7413f0a142fd40d49347942adc25665018aa1fe0e6bc666dac8fc2697ff9baa0bb6ce9c1835613987789d2146b7bfab513a1c8e220d8844e04bc5ae82d43317ba01e871cfc251aa70365cbb0094191314494e5b7b1bc9800c8010237ad22b296afa0639d7e69c855eabbdecad47c6d8f886251c2a7973a0e8968d68ee09b00014897b901000000000000000000000000000000000000000000000000000000000000000000000000000000000000000000000000000000000000000000000000000000000000000000000000000000000000000000000000000000000000000000000000000000000000000000000000000000000000000000000000000000000000000000000000000000000000000000000000000000000000000000000000000000000000000000000000000000000000000000000000000000000000000000000000000000000000000000000000000000000000000000000000000000000000000000000000000000000000000000000000000000000000000000000000000000000080018407270e0082aa388203e800a0000000000000000000000000000000000000000000000000000000000000000088000000000000000007a056e81f171bcc55a6ff8345e692c0f86e5b48e01b996cadc001622fb5e363b421f862f860800a830f42409482e8a3a970ed90a9226db1ba3317f92a463b32f6808025a09f07859f133be536d82b9f35662d4236b04e6a87051ff57ad4bc3c44c344d64ba0719b33137b2b9115c44e6cc37c4e21114fcab174badf9ee33511010c4e5dfd14c0c0",
                "blocknumber": "1"
            }
        ],
        "sealEngine": "NoProof",
        "_info": {
            "hash": "0x0a819283039a6cef68d7a8fb4ed6777240776176aa0b33504fb804a3c8a126f7",
            "fixture-format": "blockchain_test",
            "comment": "`execution-specs` generated test",
            "filling-transition-tool": "2.19.0",
            "description": "Test that invalid inputs to ecadd/ecmul consume all forwarded gas.\n\nUse CodeGasMeasure to verify the STATICCALL with invalid input\nconsumes exactly the warm call cost plus all forwarded gas.",
            "url": "https://github.com/ethereum/execution-specs/blob/tests-bal@v5.6.1/tests/byzantium/eip196_ec_add_mul/test_gas.py#L68",
            "metadata": {
                "opcode_count": {}
            },
            "reference-spec": "https://github.com/ethereum/EIPs/blob/master/EIPS/eip-196.md",
            "reference-spec-version": "6538d198b1db10784ddccd6931888d7ae718de75"
        }
    },
    "tests/byzantium/eip196_ec_add_mul/test_gas.py::test_invalid_gas_consumption[fork_Shanghai-blockchain_test_from_state_test-exact-ecmul]": {
        "network": "Shanghai",
        "genesisBlockHeader": {
            "parentHash": "0x0000000000000000000000000000000000000000000000000000000000000000",
            "uncleHash": "0x1dcc4de8dec75d7aab85b567b6ccd41ad312451b948a7413f0a142fd40d49347",
            "coinbase": "0x0000000000000000000000000000000000000000",
            "stateRoot": "0xc33a16790b685f93ff528b3a1b3ac0ee323bba9623f76dcc23bdb379ef89ce96",
            "transactionsTrie": "0x56e81f171bcc55a6ff8345e692c0f86e5b48e01b996cadc001622fb5e363b421",
            "receiptTrie": "0x56e81f171bcc55a6ff8345e692c0f86e5b48e01b996cadc001622fb5e363b421",
            "bloom": "0x00000000000000000000000000000000000000000000000000000000000000000000000000000000000000000000000000000000000000000000000000000000000000000000000000000000000000000000000000000000000000000000000000000000000000000000000000000000000000000000000000000000000000000000000000000000000000000000000000000000000000000000000000000000000000000000000000000000000000000000000000000000000000000000000000000000000000000000000000000000000000000000000000000000000000000000000000000000000000000000000000000000000000000000000000000000",
            "difficulty": "0x00",
            "number": "0x00",
            "gasLimit": "0x07270e00",
            "gasUsed": "0x00",
            "timestamp": "0x00",
            "extraData": "0x00",
            "mixHash": "0x0000000000000000000000000000000000000000000000000000000000000000",
            "nonce": "0x0000000000000000",
            "baseFeePerGas": "0x07",
            "withdrawalsRoot": "0x56e81f171bcc55a6ff8345e692c0f86e5b48e01b996cadc001622fb5e363b421",
            "hash": "0x95bef7fb817523bf43ad48fbda7f045950844fb338ca9e333fe938551776bdd8"
        },
        "pre": {
            "0xcfee3924e0f1f7f0a2853f5ee08c6eb64af7fea7": {
                "nonce": "0x01",
                "balance": "0x00",
                "code": "0x600160005260036020526001604052600060006000600060076000fa505a60006000606060006007611770fa5a9050900360125a5a900301900360005500",
                "storage": {}
            },
            "0x1ad9bc24818784172ff393bb6f89f094d4d2ca29": {
                "nonce": "0x00",
                "balance": "0x3635c9adc5dea00000",
                "code": "0x",
                "storage": {}
            }
        },
        "postState": {
            "0xcfee3924e0f1f7f0a2853f5ee08c6eb64af7fea7": {
                "nonce": "0x01",
                "balance": "0x00",
                "code": "0x600160005260036020526001604052600060006000600060076000fa505a60006000606060006007611770fa5a9050900360125a5a900301900360005500",
                "storage": {
                    "0x00": "0x17d4"
                }
            },
            "0x1ad9bc24818784172ff393bb6f89f094d4d2ca29": {
                "nonce": "0x01",
                "balance": "0x3635c9adc5de9875c4",
                "code": "0x",
                "storage": {}
            },
            "0x2adc25665018aa1fe0e6bc666dac8fc2697ff9ba": {
                "nonce": "0x00",
                "balance": "0x024312",
                "code": "0x",
                "storage": {}
            }
        },
        "lastblockhash": "0x94728ff2405be313457392dfd22bf280c5c925b83910f2f505d335ddc429195f",
        "config": {
            "network": "Shanghai",
            "chainid": "0x01"
        },
        "genesisRLP": "0xf90219f90213a00000000000000000000000000000000000000000000000000000000000000000a01dcc4de8dec75d7aab85b567b6ccd41ad312451b948a7413f0a142fd40d49347940000000000000000000000000000000000000000a0c33a16790b685f93ff528b3a1b3ac0ee323bba9623f76dcc23bdb379ef89ce96a056e81f171bcc55a6ff8345e692c0f86e5b48e01b996cadc001622fb5e363b421a056e81f171bcc55a6ff8345e692c0f86e5b48e01b996cadc001622fb5e363b421b901000000000000000000000000000000000000000000000000000000000000000000000000000000000000000000000000000000000000000000000000000000000000000000000000000000000000000000000000000000000000000000000000000000000000000000000000000000000000000000000000000000000000000000000000000000000000000000000000000000000000000000000000000000000000000000000000000000000000000000000000000000000000000000000000000000000000000000000000000000000000000000000000000000000000000000000000000000000000000000000000000000000000000000000000000000000080808407270e00808000a0000000000000000000000000000000000000000000000000000000000000000088000000000000000007a056e81f171bcc55a6ff8345e692c0f86e5b48e01b996cadc001622fb5e363b421c0c0c0",
        "blocks": [
            {
                "blockHeader": {
                    "parentHash": "0x95bef7fb817523bf43ad48fbda7f045950844fb338ca9e333fe938551776bdd8",
                    "uncleHash": "0x1dcc4de8dec75d7aab85b567b6ccd41ad312451b948a7413f0a142fd40d49347",
                    "coinbase": "0x2adc25665018aa1fe0e6bc666dac8fc2697ff9ba",
                    "stateRoot": "0x60ca9c67a841eb667d1f345d00d1eb4dd10f218bea18b24cc1aac555fed1bb04",
                    "transactionsTrie": "0xb283c291bcfb8fa827f4f40dd43363909cd6c9ed260880e9adf9face6c948587",
                    "receiptTrie": "0x609d925877cb841226b868a9d499a1aeb073e55587b7822734d1fca6ec1d13d0",
                    "bloom": "0x00000000000000000000000000000000000000000000000000000000000000000000000000000000000000000000000000000000000000000000000000000000000000000000000000000000000000000000000000000000000000000000000000000000000000000000000000000000000000000000000000000000000000000000000000000000000000000000000000000000000000000000000000000000000000000000000000000000000000000000000000000000000000000000000000000000000000000000000000000000000000000000000000000000000000000000000000000000000000000000000000000000000000000000000000000000",
                    "difficulty": "0x00",
                    "number": "0x01",
                    "gasLimit": "0x07270e00",
                    "gasUsed": "0xc106",
                    "timestamp": "0x03e8",
                    "extraData": "0x00",
                    "mixHash": "0x0000000000000000000000000000000000000000000000000000000000000000",
                    "nonce": "0x0000000000000000",
                    "baseFeePerGas": "0x07",
                    "withdrawalsRoot": "0x56e81f171bcc55a6ff8345e692c0f86e5b48e01b996cadc001622fb5e363b421",
                    "hash": "0x94728ff2405be313457392dfd22bf280c5c925b83910f2f505d335ddc429195f"
                },
                "transactions": [
                    {
                        "type": "0x00",
                        "chainId": "0x01",
                        "nonce": "0x00",
                        "gasPrice": "0x0a",
                        "gasLimit": "0x0f4240",
                        "to": "0xcfee3924e0f1f7f0a2853f5ee08c6eb64af7fea7",
                        "value": "0x00",
                        "data": "0x",
                        "v": "0x25",
                        "r": "0x066b8766255e35b9d95ac6f037d034929e2deba4deeb6bdaef79456bcab5e4cf",
                        "s": "0x4ecce2f542558b6c06483264c56a3a9ee9db48c6d6859b8c78f4896ca82c80ac",
                        "sender": "0x1ad9bc24818784172ff393bb6f89f094d4d2ca29"
                    }
                ],
                "uncleHeaders": [],
                "withdrawals": [],
                "receipts": [
                    {
                        "transactionHash": "0x2013fd1ea491e47592d5c068eaddc7b31c0e7e57fe5f1d37a972ef007ec1d2cd",
                        "type": "0x00",
                        "cumulativeGasUsed": "0xc106",
                        "bloom": "0x00000000000000000000000000000000000000000000000000000000000000000000000000000000000000000000000000000000000000000000000000000000000000000000000000000000000000000000000000000000000000000000000000000000000000000000000000000000000000000000000000000000000000000000000000000000000000000000000000000000000000000000000000000000000000000000000000000000000000000000000000000000000000000000000000000000000000000000000000000000000000000000000000000000000000000000000000000000000000000000000000000000000000000000000000000000",
                        "logs": [],
                        "status": true,
                        "rlp": "0xf901080182c106b9010000000000000000000000000000000000000000000000000000000000000000000000000000000000000000000000000000000000000000000000000000000000000000000000000000000000000000000000000000000000000000000000000000000000000000000000000000000000000000000000000000000000000000000000000000000000000000000000000000000000000000000000000000000000000000000000000000000000000000000000000000000000000000000000000000000000000000000000000000000000000000000000000000000000000000000000000000000000000000000000000000000000000000000000000000000000c0"
                    }
                ],
                "rlp": "0xf90280f90217a095bef7fb817523bf43ad48fbda7f045950844fb338ca9e333fe938551776bdd8a01dcc4de8dec75d7aab85b567b6ccd41ad312451b948a7413f0a142fd40d49347942adc25665018aa1fe0e6bc666dac8fc2697ff9baa060ca9c67a841eb667d1f345d00d1eb4dd10f218bea18b24cc1aac555fed1bb04a0b283c291bcfb8fa827f4f40dd43363909cd6c9ed260880e9adf9face6c948587a0609d925877cb841226b868a9d499a1aeb073e55587b7822734d1fca6ec1d13d0b901000000000000000000000000000000000000000000000000000000000000000000000000000000000000000000000000000000000000000000000000000000000000000000000000000000000000000000000000000000000000000000000000000000000000000000000000000000000000000000000000000000000000000000000000000000000000000000000000000000000000000000000000000000000000000000000000000000000000000000000000000000000000000000000000000000000000000000000000000000000000000000000000000000000000000000000000000000000000000000000000000000000000000000000000000000000080018407270e0082c1068203e800a0000000000000000000000000000000000000000000000000000000000000000088000000000000000007a056e81f171bcc55a6ff8345e692c0f86e5b48e01b996cadc001622fb5e363b421f862f860800a830f424094cfee3924e0f1f7f0a2853f5ee08c6eb64af7fea7808025a0066b8766255e35b9d95ac6f037d034929e2deba4deeb6bdaef79456bcab5e4cfa04ecce2f542558b6c06483264c56a3a9ee9db48c6d6859b8c78f4896ca82c80acc0c0",
                "blocknumber": "1"
            }
        ],
        "sealEngine": "NoProof",
        "_info": {
            "hash": "0xaef4fae3d35ffa4d502602b4dcc5cc8468b7e280bd92592403e1dc108c459faa",
            "fixture-format": "blockchain_test",
            "comment": "`execution-specs` generated test",
            "filling-transition-tool": "2.19.0",
            "description": "Test that invalid inputs to ecadd/ecmul consume all forwarded gas.\n\nUse CodeGasMeasure to verify the STATICCALL with invalid input\nconsumes exactly the warm call cost plus all forwarded gas.",
            "url": "https://github.com/ethereum/execution-specs/blob/tests-bal@v5.6.1/tests/byzantium/eip196_ec_add_mul/test_gas.py#L68",
            "metadata": {
                "opcode_count": {}
            },
            "reference-spec": "https://github.com/ethereum/EIPs/blob/master/EIPS/eip-196.md",
            "reference-spec-version": "6538d198b1db10784ddccd6931888d7ae718de75"
        }
    },
    "tests/byzantium/eip196_ec_add_mul/test_gas.py::test_invalid_gas_consumption[fork_Shanghai-blockchain_test_from_state_test-extra_100k-ecadd]": {
        "network": "Shanghai",
        "genesisBlockHeader": {
            "parentHash": "0x0000000000000000000000000000000000000000000000000000000000000000",
            "uncleHash": "0x1dcc4de8dec75d7aab85b567b6ccd41ad312451b948a7413f0a142fd40d49347",
            "coinbase": "0x0000000000000000000000000000000000000000",
            "stateRoot": "0xdef8b59ccd99b658d6b9f21aba5b79474c0433b5bbb35ed8a3e265bf0f9f4390",
            "transactionsTrie": "0x56e81f171bcc55a6ff8345e692c0f86e5b48e01b996cadc001622fb5e363b421",
            "receiptTrie": "0x56e81f171bcc55a6ff8345e692c0f86e5b48e01b996cadc001622fb5e363b421",
            "bloom": "0x00000000000000000000000000000000000000000000000000000000000000000000000000000000000000000000000000000000000000000000000000000000000000000000000000000000000000000000000000000000000000000000000000000000000000000000000000000000000000000000000000000000000000000000000000000000000000000000000000000000000000000000000000000000000000000000000000000000000000000000000000000000000000000000000000000000000000000000000000000000000000000000000000000000000000000000000000000000000000000000000000000000000000000000000000000000",
            "difficulty": "0x00",
            "number": "0x00",
            "gasLimit": "0x07270e00",
            "gasUsed": "0x00",
            "timestamp": "0x00",
            "extraData": "0x00",
            "mixHash": "0x0000000000000000000000000000000000000000000000000000000000000000",
            "nonce": "0x0000000000000000",
            "baseFeePerGas": "0x07",
            "withdrawalsRoot": "0x56e81f171bcc55a6ff8345e692c0f86e5b48e01b996cadc001622fb5e363b421",
            "hash": "0xee9a536616f031c478570d2cb226c7524c1ec7376602dbd257096689e059c13c"
        },
        "pre": {
            "0xf248cc4c7d12cfda4c8f4f2ac2deddb24f02be82": {
                "nonce": "0x01",
                "balance": "0x00",
                "code": "0x6001600052600360205260006040526000606052600060006000600060066000fa505a6000600060806000600662018736fa5a9050900360125a5a900301900360005500",
                "storage": {}
            },
            "0x1ad9bc24818784172ff393bb6f89f094d4d2ca29": {
                "nonce": "0x00",
                "balance": "0x3635c9adc5dea00000",
                "code": "0x",
                "storage": {}
            }
        },
        "postState": {
            "0xf248cc4c7d12cfda4c8f4f2ac2deddb24f02be82": {
                "nonce": "0x01",
                "balance": "0x00",
                "code": "0x6001600052600360205260006040526000606052600060006000600060066000fa505a6000600060806000600662018736fa5a9050900360125a5a900301900360005500",
                "storage": {
                    "0x00": "0x01879a"
                }
            },
            "0x1ad9bc24818784172ff393bb6f89f094d4d2ca29": {
                "nonce": "0x01",
                "balance": "0x3635c9adc5de8a1790",
                "code": "0x",
                "storage": {}
            },
            "0x2adc25665018aa1fe0e6bc666dac8fc2697ff9ba": {
                "nonce": "0x00",
                "balance": "0x069288",
                "code": "0x",
                "storage": {}
            }
        },
        "lastblockhash": "0xad054000d2af938dabc25fa526f93ad160a28f451d1ed19b8e215d6a5bff48f5",
        "config": {
            "network": "Shanghai",
            "chainid": "0x01"
        },
        "genesisRLP": "0xf90219f90213a00000000000000000000000000000000000000000000000000000000000000000a01dcc4de8dec75d7aab85b567b6ccd41ad312451b948a7413f0a142fd40d49347940000000000000000000000000000000000000000a0def8b59ccd99b658d6b9f21aba5b79474c0433b5bbb35ed8a3e265bf0f9f4390a056e81f171bcc55a6ff8345e692c0f86e5b48e01b996cadc001622fb5e363b421a056e81f171bcc55a6ff8345e692c0f86e5b48e01b996cadc001622fb5e363b421b901000000000000000000000000000000000000000000000000000000000000000000000000000000000000000000000000000000000000000000000000000000000000000000000000000000000000000000000000000000000000000000000000000000000000000000000000000000000000000000000000000000000000000000000000000000000000000000000000000000000000000000000000000000000000000000000000000000000000000000000000000000000000000000000000000000000000000000000000000000000000000000000000000000000000000000000000000000000000000000000000000000000000000000000000000000000080808407270e00808000a0000000000000000000000000000000000000000000000000000000000000000088000000000000000007a056e81f171bcc55a6ff8345e692c0f86e5b48e01b996cadc001622fb5e363b421c0c0c0",
        "blocks": [
            {
                "blockHeader": {
                    "parentHash": "0xee9a536616f031c478570d2cb226c7524c1ec7376602dbd257096689e059c13c",
                    "uncleHash": "0x1dcc4de8dec75d7aab85b567b6ccd41ad312451b948a7413f0a142fd40d49347",
                    "coinbase": "0x2adc25665018aa1fe0e6bc666dac8fc2697ff9ba",
                    "stateRoot": "0xed2b370889e91b1b5bef3247feb2d9c83d2c311246cd02308a08edeafba59fb6",
                    "transactionsTrie": "0x991972259e5a7402346d0cf0b8a871b1369fa927b4a01304fd904c05fc3e15a7",
                    "receiptTrie": "0xf11c665eb1b003ff29fdc312b7d3f9842bc4c02b399c805420ad19915139504b",
                    "bloom": "0x00000000000000000000000000000000000000000000000000000000000000000000000000000000000000000000000000000000000000000000000000000000000000000000000000000000000000000000000000000000000000000000000000000000000000000000000000000000000000000000000000000000000000000000000000000000000000000000000000000000000000000000000000000000000000000000000000000000000000000000000000000000000000000000000000000000000000000000000000000000000000000000000000000000000000000000000000000000000000000000000000000000000000000000000000000000",
                    "difficulty": "0x00",
                    "number": "0x01",
                    "gasLimit": "0x07270e00",
                    "gasUsed": "0x0230d8",
                    "timestamp": "0x03e8",
                    "extraData": "0x00",
                    "mixHash": "0x0000000000000000000000000000000000000000000000000000000000000000",
                    "nonce": "0x0000000000000000",
                    "baseFeePerGas": "0x07",
                    "withdrawalsRoot": "0x56e81f171bcc55a6ff8345e692c0f86e5b48e01b996cadc001622fb5e363b421",
                    "hash": "0xad054000d2af938dabc25fa526f93ad160a28f451d1ed19b8e215d6a5bff48f5"
                },
                "transactions": [
                    {
                        "type": "0x00",
                        "chainId": "0x01",
                        "nonce": "0x00",
                        "gasPrice": "0x0a",
                        "gasLimit": "0x0f4240",
                        "to": "0xf248cc4c7d12cfda4c8f4f2ac2deddb24f02be82",
                        "value": "0x00",
                        "data": "0x",
                        "v": "0x26",
                        "r": "0x1a3e60aa9d05e1c5c10a74147b391910316d74c98d61f9ee5bb5f487098d6662",
                        "s": "0x25dec1d9a13224775a97f14da603676ced8591f61abeef7fc284b8b1d1fa6a1a",
                        "sender": "0x1ad9bc24818784172ff393bb6f89f094d4d2ca29"
                    }
                ],
                "uncleHeaders": [],
                "withdrawals": [],
                "receipts": [
                    {
                        "transactionHash": "0x4d8dc7c90660525393f86f163f91882f81e452a774f93300d1cc30e6ac2e8095",
                        "type": "0x00",
                        "cumulativeGasUsed": "0x0230d8",
                        "bloom": "0x00000000000000000000000000000000000000000000000000000000000000000000000000000000000000000000000000000000000000000000000000000000000000000000000000000000000000000000000000000000000000000000000000000000000000000000000000000000000000000000000000000000000000000000000000000000000000000000000000000000000000000000000000000000000000000000000000000000000000000000000000000000000000000000000000000000000000000000000000000000000000000000000000000000000000000000000000000000000000000000000000000000000000000000000000000000",
                        "logs": [],
                        "status": true,
                        "rlp": "0xf9010901830230d8b9010000000000000000000000000000000000000000000000000000000000000000000000000000000000000000000000000000000000000000000000000000000000000000000000000000000000000000000000000000000000000000000000000000000000000000000000000000000000000000000000000000000000000000000000000000000000000000000000000000000000000000000000000000000000000000000000000000000000000000000000000000000000000000000000000000000000000000000000000000000000000000000000000000000000000000000000000000000000000000000000000000000000000000000000000000000000c0"
                    }
                ],
                "rlp": "0xf90281f90218a0ee9a536616f031c478570d2cb226c7524c1ec7376602dbd257096689e059c13ca01dcc4de8dec75d7aab85b567b6ccd41ad312451b948a7413f0a142fd40d49347942adc25665018aa1fe0e6bc666dac8fc2697ff9baa0ed2b370889e91b1b5bef3247feb2d9c83d2c311246cd02308a08edeafba59fb6a0991972259e5a7402346d0cf0b8a871b1369fa927b4a01304fd904c05fc3e15a7a0f11c665eb1b003ff29fdc312b7d3f9842bc4c02b399c805420ad19915139504bb901000000000000000000000000000000000000000000000000000000000000000000000000000000000000000000000000000000000000000000000000000000000000000000000000000000000000000000000000000000000000000000000000000000000000000000000000000000000000000000000000000000000000000000000000000000000000000000000000000000000000000000000000000000000000000000000000000000000000000000000000000000000000000000000000000000000000000000000000000000000000000000000000000000000000000000000000000000000000000000000000000000000000000000000000000000000080018407270e00830230d88203e800a0000000000000000000000000000000000000000000000000000000000000000088000000000000000007a056e81f171bcc55a6ff8345e692c0f86e5b48e01b996cadc001622fb5e363b421f862f860800a830f424094f248cc4c7d12cfda4c8f4f2ac2deddb24f02be82808026a01a3e60aa9d05e1c5c10a74147b391910316d74c98d61f9ee5bb5f487098d6662a025dec1d9a13224775a97f14da603676ced8591f61abeef7fc284b8b1d1fa6a1ac0c0",
                "blocknumber": "1"
            }
        ],
        "sealEngine": "NoProof",
        "_info": {
            "hash": "0x6a5c61bdfb71ed4acb9731dd977872ae15a8eddc64b1f68d615011caf3de33d7",
            "fixture-format": "blockchain_test",
            "comment": "`execution-specs` generated test",
            "filling-transition-tool": "2.19.0",
            "description": "Test that invalid inputs to ecadd/ecmul consume all forwarded gas.\n\nUse CodeGasMeasure to verify the STATICCALL with invalid input\nconsumes exactly the warm call cost plus all forwarded gas.",
            "url": "https://github.com/ethereum/execution-specs/blob/tests-bal@v5.6.1/tests/byzantium/eip196_ec_add_mul/test_gas.py#L68",
            "metadata": {
                "opcode_count": {}
            },
            "reference-spec": "https://github.com/ethereum/EIPs/blob/master/EIPS/eip-196.md",
            "reference-spec-version": "6538d198b1db10784ddccd6931888d7ae718de75"
        }
    },
    "tests/byzantium/eip196_ec_add_mul/test_gas.py::test_invalid_gas_consumption[fork_Shanghai-blockchain_test_from_state_test-extra_100k-ecmul]": {
        "network": "Shanghai",
        "genesisBlockHeader": {
            "parentHash": "0x0000000000000000000000000000000000000000000000000000000000000000",
            "uncleHash": "0x1dcc4de8dec75d7aab85b567b6ccd41ad312451b948a7413f0a142fd40d49347",
            "coinbase": "0x0000000000000000000000000000000000000000",
            "stateRoot": "0x2b0742d17b9532e414050485918b0698c2489dfa2a082a15014577562bb03451",
            "transactionsTrie": "0x56e81f171bcc55a6ff8345e692c0f86e5b48e01b996cadc001622fb5e363b421",
            "receiptTrie": "0x56e81f171bcc55a6ff8345e692c0f86e5b48e01b996cadc001622fb5e363b421",
            "bloom": "0x00000000000000000000000000000000000000000000000000000000000000000000000000000000000000000000000000000000000000000000000000000000000000000000000000000000000000000000000000000000000000000000000000000000000000000000000000000000000000000000000000000000000000000000000000000000000000000000000000000000000000000000000000000000000000000000000000000000000000000000000000000000000000000000000000000000000000000000000000000000000000000000000000000000000000000000000000000000000000000000000000000000000000000000000000000000",
            "difficulty": "0x00",
            "number": "0x00",
            "gasLimit": "0x07270e00",
            "gasUsed": "0x00",
            "timestamp": "0x00",
            "extraData": "0x00",
            "mixHash": "0x0000000000000000000000000000000000000000000000000000000000000000",
            "nonce": "0x0000000000000000",
            "baseFeePerGas": "0x07",
            "withdrawalsRoot": "0x56e81f171bcc55a6ff8345e692c0f86e5b48e01b996cadc001622fb5e363b421",
            "hash": "0x42279df4ae517d3f41108613b1d3ece6116d60f6484bf12c4c1259df705e26c5"
        },
        "pre": {
            "0xf74d56b9d883da3df180d398e61559ce8b4a72c8": {
                "nonce": "0x01",
                "balance": "0x00",
                "code": "0x600160005260036020526001604052600060006000600060076000fa505a6000600060606000600762019e10fa5a9050900360125a5a900301900360005500",
                "storage": {}
            },
            "0x1ad9bc24818784172ff393bb6f89f094d4d2ca29": {
                "nonce": "0x00",
                "balance": "0x3635c9adc5dea00000",
                "code": "0x",
                "storage": {}
            }
        },
        "postState": {
            "0xf74d56b9d883da3df180d398e61559ce8b4a72c8": {
                "nonce": "0x01",
                "balance": "0x00",
                "code": "0x600160005260036020526001604052600060006000600060076000fa505a6000600060606000600762019e10fa5a9050900360125a5a900301900360005500",
                "storage": {
                    "0x00": "0x019e74"
                }
            },
            "0x1ad9bc24818784172ff393bb6f89f094d4d2ca29": {
                "nonce": "0x01",
                "balance": "0x3635c9adc5de893384",
                "code": "0x",
                "storage": {}
            },
            "0x2adc25665018aa1fe0e6bc666dac8fc2697ff9ba": {
                "nonce": "0x00",
                "balance": "0x06d6f2",
                "code": "0x",
                "storage": {}
            }
        },
        "lastblockhash": "0x4cdc03a8f171f24f23d7c4f09e84fade3bab023801102860643d5ef80e8c22fc",
        "config": {
            "network": "Shanghai",
            "chainid": "0x01"
        },
        "genesisRLP": "0xf90219f90213a00000000000000000000000000000000000000000000000000000000000000000a01dcc4de8dec75d7aab85b567b6ccd41ad312451b948a7413f0a142fd40d49347940000000000000000000000000000000000000000a02b0742d17b9532e414050485918b0698c2489dfa2a082a15014577562bb03451a056e81f171bcc55a6ff8345e692c0f86e5b48e01b996cadc001622fb5e363b421a056e81f171bcc55a6ff8345e692c0f86e5b48e01b996cadc001622fb5e363b421b901000000000000000000000000000000000000000000000000000000000000000000000000000000000000000000000000000000000000000000000000000000000000000000000000000000000000000000000000000000000000000000000000000000000000000000000000000000000000000000000000000000000000000000000000000000000000000000000000000000000000000000000000000000000000000000000000000000000000000000000000000000000000000000000000000000000000000000000000000000000000000000000000000000000000000000000000000000000000000000000000000000000000000000000000000000000080808407270e00808000a0000000000000000000000000000000000000000000000000000000000000000088000000000000000007a056e81f171bcc55a6ff8345e692c0f86e5b48e01b996cadc001622fb5e363b421c0c0c0",
        "blocks": [
            {
                "blockHeader": {
                    "parentHash": "0x42279df4ae517d3f41108613b1d3ece6116d60f6484bf12c4c1259df705e26c5",
                    "uncleHash": "0x1dcc4de8dec75d7aab85b567b6ccd41ad312451b948a7413f0a142fd40d49347",
                    "coinbase": "0x2adc25665018aa1fe0e6bc666dac8fc2697ff9ba",
                    "stateRoot": "0x6f5c90c2a81170b37523f6971d20f8aa1e04cf71b3c0cd59ebe1f8b339f64337",
                    "transactionsTrie": "0x2acbddc8c14928709a0ded8264444590486ce5e6e0a76e986be7b8b6fce8309b",
                    "receiptTrie": "0x29efcb412b9f7a1b53e04da7d1aa0541c75810efc8d9ce1eb6fcdaada0ca7d37",
                    "bloom": "0x00000000000000000000000000000000000000000000000000000000000000000000000000000000000000000000000000000000000000000000000000000000000000000000000000000000000000000000000000000000000000000000000000000000000000000000000000000000000000000000000000000000000000000000000000000000000000000000000000000000000000000000000000000000000000000000000000000000000000000000000000000000000000000000000000000000000000000000000000000000000000000000000000000000000000000000000000000000000000000000000000000000000000000000000000000000",
                    "difficulty": "0x00",
                    "number": "0x01",
                    "gasLimit": "0x07270e00",
                    "gasUsed": "0x0247a6",
                    "timestamp": "0x03e8",
                    "extraData": "0x00",
                    "mixHash": "0x0000000000000000000000000000000000000000000000000000000000000000",
                    "nonce": "0x0000000000000000",
                    "baseFeePerGas": "0x07",
                    "withdrawalsRoot": "0x56e81f171bcc55a6ff8345e692c0f86e5b48e01b996cadc001622fb5e363b421",
                    "hash": "0x4cdc03a8f171f24f23d7c4f09e84fade3bab023801102860643d5ef80e8c22fc"
                },
                "transactions": [
                    {
                        "type": "0x00",
                        "chainId": "0x01",
                        "nonce": "0x00",
                        "gasPrice": "0x0a",
                        "gasLimit": "0x0f4240",
                        "to": "0xf74d56b9d883da3df180d398e61559ce8b4a72c8",
                        "value": "0x00",
                        "data": "0x",
                        "v": "0x26",
                        "r": "0xdcb116e2b1d7deea078e6efaefcae002858560eaf27b50abb950bed9e18ff6e8",
                        "s": "0x42bb1d9c5f73987203065713dfb5bac900f6680b987ed02d0bcfa46d25ca8d87",
                        "sender": "0x1ad9bc24818784172ff393bb6f89f094d4d2ca29"
                    }
                ],
                "uncleHeaders": [],
                "withdrawals": [],
                "receipts": [
                    {
                        "transactionHash": "0x589ac0cb3aeb10d9e2c4c39322e52ae846933ea241c4b705ce1d9d7848ef7308",
                        "type": "0x00",
                        "cumulativeGasUsed": "0x0247a6",
                        "bloom": "0x00000000000000000000000000000000000000000000000000000000000000000000000000000000000000000000000000000000000000000000000000000000000000000000000000000000000000000000000000000000000000000000000000000000000000000000000000000000000000000000000000000000000000000000000000000000000000000000000000000000000000000000000000000000000000000000000000000000000000000000000000000000000000000000000000000000000000000000000000000000000000000000000000000000000000000000000000000000000000000000000000000000000000000000000000000000",
                        "logs": [],
                        "status": true,
                        "rlp": "0xf9010901830247a6b9010000000000000000000000000000000000000000000000000000000000000000000000000000000000000000000000000000000000000000000000000000000000000000000000000000000000000000000000000000000000000000000000000000000000000000000000000000000000000000000000000000000000000000000000000000000000000000000000000000000000000000000000000000000000000000000000000000000000000000000000000000000000000000000000000000000000000000000000000000000000000000000000000000000000000000000000000000000000000000000000000000000000000000000000000000000000c0"
                    }
                ],
                "rlp": "0xf90281f90218a042279df4ae517d3f41108613b1d3ece6116d60f6484bf12c4c1259df705e26c5a01dcc4de8dec75d7aab85b567b6ccd41ad312451b948a7413f0a142fd40d49347942adc25665018aa1fe0e6bc666dac8fc2697ff9baa06f5c90c2a81170b37523f6971d20f8aa1e04cf71b3c0cd59ebe1f8b339f64337a02acbddc8c14928709a0ded8264444590486ce5e6e0a76e986be7b8b6fce8309ba029efcb412b9f7a1b53e04da7d1aa0541c75810efc8d9ce1eb6fcdaada0ca7d37b901000000000000000000000000000000000000000000000000000000000000000000000000000000000000000000000000000000000000000000000000000000000000000000000000000000000000000000000000000000000000000000000000000000000000000000000000000000000000000000000000000000000000000000000000000000000000000000000000000000000000000000000000000000000000000000000000000000000000000000000000000000000000000000000000000000000000000000000000000000000000000000000000000000000000000000000000000000000000000000000000000000000000000000000000000000000080018407270e00830247a68203e800a0000000000000000000000000000000000000000000000000000000000000000088000000000000000007a056e81f171bcc55a6ff8345e692c0f86e5b48e01b996cadc001622fb5e363b421f862f860800a830f424094f74d56b9d883da3df180d398e61559ce8b4a72c8808026a0dcb116e2b1d7deea078e6efaefcae002858560eaf27b50abb950bed9e18ff6e8a042bb1d9c5f73987203065713dfb5bac900f6680b987ed02d0bcfa46d25ca8d87c0c0",
                "blocknumber": "1"
            }
        ],
        "sealEngine": "NoProof",
        "_info": {
            "hash": "0x133c51ac069429f1da31b95e3eaeca5f3d3229cc6168844e4d975f2b555085f2",
            "fixture-format": "blockchain_test",
            "comment": "`execution-specs` generated test",
            "filling-transition-tool": "2.19.0",
            "description": "Test that invalid inputs to ecadd/ecmul consume all forwarded gas.\n\nUse CodeGasMeasure to verify the STATICCALL with invalid input\nconsumes exactly the warm call cost plus all forwarded gas.",
            "url": "https://github.com/ethereum/execution-specs/blob/tests-bal@v5.6.1/tests/byzantium/eip196_ec_add_mul/test_gas.py#L68",
            "metadata": {
                "opcode_count": {}
            },
            "reference-spec": "https://github.com/ethereum/EIPs/blob/master/EIPS/eip-196.md",
            "reference-spec-version": "6538d198b1db10784ddccd6931888d7ae718de75"
        }
    }
}