{
    "tests/static/state_tests/stExample/accessListExampleFiller.yml::accessListExample[fork_Cancun-state_test-declaredKeyWrite2]": {
        "env": {
            "currentCoinbase": "0x2adc25665018aa1fe0e6bc666dac8fc2697ff9ba",
            "currentGasLimit": "0xff112233445566",
            "currentNumber": "0x01",
            "currentTimestamp": "0x03e8",
            "currentRandom": "0x0000000000000000000000000000000000000000000000000000000000020000",
            "currentDifficulty": "0x00",
            "currentBaseFee": "0x0a",
            "currentExcessBlobGas": "0x00"
        },
        "pre": {
            "0x2a0415272bd5835344efe43dbb22f486dfecdd9e": {
                "nonce": "0x00",
                "balance": "0x0de0b6b3a7640000",
                "code": "0x",
                "storage": {}
            },
            "0x0857a38cd7af9021532534e3ede727bad251072a": {
                "nonce": "0x00",
                "balance": "0x0de0b6b3a7640000",
                "code": "0x600160010160005500",
                "storage": {}
            }
        },
        "transaction": {
            "nonce": "0x00",
            "gasPrice": "0x0a",
            "gasLimit": [
                "0x061a80"
            ],
            "to": "0x0857a38cd7af9021532534e3ede727bad251072a",
            "value": [
                "0x0186a0"
            ],
            "data": [
                "0x00"
            ],
            "accessLists": [
                [
                    {
                        "address": "0x195e7baea6a6c7c4c2dfeb977efac326af552d87",
                        "storageKeys": [
                            "0x0000000000000000000000000000000000000000000000000000000000000000"
                        ]
                    }
                ]
            ],
            "sender": "0x2a0415272bd5835344efe43dbb22f486dfecdd9e",
            "secretKey": "0x8822457f8b2c69ccf31f53b00857a38cd7af9021532534e3ede727bad251072a"
        },
        "post": {
            "Cancun": [
                {
                    "hash": "0x6e2d4a408b560c0fcbcff51394337e16275eef7ee5ad8e96d7d95b9fa69b4488",
                    "logs": "0x1dcc4de8dec75d7aab85b567b6ccd41ad312451b948a7413f0a142fd40d49347",
                    "txbytes": "0x01f89e01800a83061a80940857a38cd7af9021532534e3ede727bad251072a830186a000f838f794195e7baea6a6c7c4c2dfeb977efac326af552d87e1a0000000000000000000000000000000000000000000000000000000000000000080a06b3c066cdc2682a8663a00ddd5837c28c3a2c45bbb076cd85157153c2384c7e4a01aa26ed48637947c27f42cd2da001d667c01b373b0e6577f20fffe8057ae5065",
                    "indexes": {
                        "data": 0,
                        "gas": 0,
                        "value": 0
                    },
                    "state": {
                        "0x2a0415272bd5835344efe43dbb22f486dfecdd9e": {
                            "nonce": "0x01",
                            "balance": "0x0de0b6b3a75b3d30",
                            "code": "0x",
                            "storage": {}
                        },
                        "0x0857a38cd7af9021532534e3ede727bad251072a": {
                            "nonce": "0x00",
                            "balance": "0x0de0b6b3a76586a0",
                            "code": "0x600160010160005500",
                            "storage": {
                                "0x00": "0x02"
                            }
                        }
                    }
                }
            ]
        },
        "config": {
            "blobSchedule": {
                "Cancun": {
                    "target": "0x03",
                    "max": "0x06",
                    "baseFeeUpdateFraction": "0x32f0ed"
                }
            },
            "chainid": "0x01"
        },
        "_info": {
            "hash": "0x14c5653b38e13dfba08975bd82750ce4c9d1b27bc80d5c03f2047a4491e2fb4e",
            "comment": "`execution-spec-tests` generated test",
            "filling-transition-tool": "ethereum-spec-evm-resolver 0.0.5",
            "description": "No description available - add a docstring to the python test class or function.",
            "url": "",
            "fixture-format": "state_test",
            "eels-resolution": {
                "git-url": "https://github.com/ethereum/execution-specs.git",
                "branch": "forks/bpos",
                "commit": "7aacb2c54111391af5e98c505d5010b5698a770f"
            }
        }
    },
    "tests/static/state_tests/stExample/accessListExampleFiller.yml::accessListExample[fork_Cancun-state_test-declaredKeyWrite]": {
        "env": {
            "currentCoinbase": "0x2adc25665018aa1fe0e6bc666dac8fc2697ff9ba",
            "currentGasLimit": "0xff112233445566",
            "currentNumber": "0x01",
            "currentTimestamp": "0x03e8",
            "currentRandom": "0x0000000000000000000000000000000000000000000000000000000000020000",
            "currentDifficulty": "0x00",
            "currentBaseFee": "0x0a",
            "currentExcessBlobGas": "0x00"
        },
        "pre": {
            "0x8d46f91c96d17d6826f70a77bd11a554f540ddad": {
                "nonce": "0x00",
                "balance": "0x0de0b6b3a7640000",
                "code": "0x",
                "storage": {}
            },
            "0xc86780ac13c818cfd17e97c954483a701cc9c997": {
                "nonce": "0x00",
                "balance": "0x0de0b6b3a7640000",
                "code": "0x600160010160005500",
                "storage": {}
            }
        },
        "transaction": {
            "nonce": "0x00",
            "gasPrice": "0x0a",
            "gasLimit": [
                "0x061a80"
            ],
            "to": "0xc86780ac13c818cfd17e97c954483a701cc9c997",
            "value": [
                "0x0186a0"
            ],
            "data": [
                "0x00"
            ],
            "accessLists": [
                [
                    {
                        "address": "0xc86780ac13c818cfd17e97c954483a701cc9c997",
                        "storageKeys": [
                            "0x0000000000000000000000000000000000000000000000000000000000000000",
                            "0x0000000000000000000000000000000000000000000000000000000000000001"
                        ]
                    },
                    {
                        "address": "0x195e7baea6a6c7c4c2dfeb977efac326af552d87",
                        "storageKeys": [
                            "0x0000000000000000000000000000000000000000000000000000000000000000"
                        ]
                    }
                ]
            ],
            "sender": "0x8d46f91c96d17d6826f70a77bd11a554f540ddad",
            "secretKey": "0x42e12d9e21ca1750826c348fc86780ac13c818cfd17e97c954483a701cc9c997"
        },
        "post": {
            "Cancun": [
                {
                    "hash": "0xc6088c5546323e14e613358887f0fd4f302774355d84edf865a396a2f78295eb",
                    "logs": "0x1dcc4de8dec75d7aab85b567b6ccd41ad312451b948a7413f0a142fd40d49347",
                    "txbytes": "0x01f8f901800a83061a8094c86780ac13c818cfd17e97c954483a701cc9c997830186a000f893f85994c86780ac13c818cfd17e97c954483a701cc9c997f842a00000000000000000000000000000000000000000000000000000000000000000a00000000000000000000000000000000000000000000000000000000000000001f794195e7baea6a6c7c4c2dfeb977efac326af552d87e1a0000000000000000000000000000000000000000000000000000000000000000080a0e47a2810f3b330f0bea99d2e8160337e4492ee895f3756573aba8cecbe0d5331a0263c192674c96b7e635ea2ad8fc44e3d986731d5c35f49d3636358f3d0939380",
                    "indexes": {
                        "data": 0,
                        "gas": 0,
                        "value": 0
                    },
                    "state": {
                        "0x8d46f91c96d17d6826f70a77bd11a554f540ddad": {
                            "nonce": "0x01",
                            "balance": "0x0de0b6b3a75a9d08",
                            "code": "0x",
                            "storage": {}
                        },
                        "0xc86780ac13c818cfd17e97c954483a701cc9c997": {
                            "nonce": "0x00",
                            "balance": "0x0de0b6b3a76586a0",
                            "code": "0x600160010160005500",
                            "storage": {
                                "0x00": "0x02"
                            }
                        }
                    }
                }
            ]
        },
        "config": {
            "blobSchedule": {
                "Cancun": {
                    "target": "0x03",
                    "max": "0x06",
                    "baseFeeUpdateFraction": "0x32f0ed"
                }
            },
            "chainid": "0x01"
        },
        "_info": {
            "hash": "0x6a8f78d9eabad4eb1cd4ccf03f59dbbc49b7a28bdeecc87034e994339cb549f4",
            "comment": "`execution-spec-tests` generated test",
            "filling-transition-tool": "ethereum-spec-evm-resolver 0.0.5",
            "description": "No description available - add a docstring to the python test class or function.",
            "url": "",
            "fixture-format": "state_test",
            "eels-resolution": {
                "git-url": "https://github.com/ethereum/execution-specs.git",
                "branch": "forks/bpos",
                "commit": "7aacb2c54111391af5e98c505d5010b5698a770f"
            }
        }
    },
    "tests/static/state_tests/stExample/accessListExampleFiller.yml::accessListExample[fork_Osaka-state_test-declaredKeyWrite2]": {
        "env": {
            "currentCoinbase": "0x2adc25665018aa1fe0e6bc666dac8fc2697ff9ba",
            "currentGasLimit": "0xff112233445566",
            "currentNumber": "0x01",
            "currentTimestamp": "0x03e8",
            "currentRandom": "0x0000000000000000000000000000000000000000000000000000000000020000",
            "currentDifficulty": "0x00",
            "currentBaseFee": "0x0a",
            "currentExcessBlobGas": "0x00"
        },
        "pre": {
            "0x2a0415272bd5835344efe43dbb22f486dfecdd9e": {
                "nonce": "0x00",
                "balance": "0x0de0b6b3a7640000",
                "code": "0x",
                "storage": {}
            },
            "0x0857a38cd7af9021532534e3ede727bad251072a": {
                "nonce": "0x00",
                "balance": "0x0de0b6b3a7640000",
                "code": "0x600160010160005500",
                "storage": {}
            }
        },
        "transaction": {
            "nonce": "0x00",
            "gasPrice": "0x0a",
            "gasLimit": [
                "0x061a80"
            ],
            "to": "0x0857a38cd7af9021532534e3ede727bad251072a",
            "value": [
                "0x0186a0"
            ],
            "data": [
                "0x00"
            ],
            "accessLists": [
                [
                    {
                        "address": "0x195e7baea6a6c7c4c2dfeb977efac326af552d87",
                        "storageKeys": [
                            "0x0000000000000000000000000000000000000000000000000000000000000000"
                        ]
                    }
                ]
            ],
            "sender": "0x2a0415272bd5835344efe43dbb22f486dfecdd9e",
            "secretKey": "0x8822457f8b2c69ccf31f53b00857a38cd7af9021532534e3ede727bad251072a"
        },
        "post": {
            "Osaka": [
                {
                    "hash": "0x6e2d4a408b560c0fcbcff51394337e16275eef7ee5ad8e96d7d95b9fa69b4488",
                    "logs": "0x1dcc4de8dec75d7aab85b567b6ccd41ad312451b948a7413f0a142fd40d49347",
                    "txbytes": "0x01f89e01800a83061a80940857a38cd7af9021532534e3ede727bad251072a830186a000f838f794195e7baea6a6c7c4c2dfeb977efac326af552d87e1a0000000000000000000000000000000000000000000000000000000000000000080a06b3c066cdc2682a8663a00ddd5837c28c3a2c45bbb076cd85157153c2384c7e4a01aa26ed48637947c27f42cd2da001d667c01b373b0e6577f20fffe8057ae5065",
                    "indexes": {
                        "data": 0,
                        "gas": 0,
                        "value": 0
                    },
                    "state": {
                        "0x2a0415272bd5835344efe43dbb22f486dfecdd9e": {
                            "nonce": "0x01",
                            "balance": "0x0de0b6b3a75b3d30",
                            "code": "0x",
                            "storage": {}
                        },
                        "0x0857a38cd7af9021532534e3ede727bad251072a": {
                            "nonce": "0x00",
                            "balance": "0x0de0b6b3a76586a0",
                            "code": "0x600160010160005500",
                            "storage": {
                                "0x00": "0x02"
                            }
                        }
                    }
                }
            ]
        },
        "config": {
            "blobSchedule": {
                "Cancun": {
                    "target": "0x03",
                    "max": "0x06",
                    "baseFeeUpdateFraction": "0x32f0ed"
                },
                "Prague": {
                    "target": "0x06",
                    "max": "0x09",
                    "baseFeeUpdateFraction": "0x4c6964"
                },
                "Osaka": {
                    "target": "0x06",
                    "max": "0x09",
                    "baseFeeUpdateFraction": "0x4c6964"
                }
            },
            "chainid": "0x01"
        },
        "_info": {
            "hash": "0xf07b43ac267b4d000350c7f312aa2c48388ab44085477f3d493ec3d6088993b7",
            "comment": "`execution-spec-tests` generated test",
            "filling-transition-tool": "ethereum-spec-evm-resolver 0.0.5",
            "description": "No description available - add a docstring to the python test class or function.",
            "url": "",
            "fixture-format": "state_test",
            "eels-resolution": {
                "git-url": "https://github.com/ethereum/execution-specs.git",
                "branch": "forks/bpos",
                "commit": "7aacb2c54111391af5e98c505d5010b5698a770f"
            }
        }
    },
    "tests/static/state_tests/stExample/accessListExampleFiller.yml::accessListExample[fork_Osaka-state_test-declaredKeyWrite]": {
        "env": {
            "currentCoinbase": "0x2adc25665018aa1fe0e6bc666dac8fc2697ff9ba",
            "currentGasLimit": "0xff112233445566",
            "currentNumber": "0x01",
            "currentTimestamp": "0x03e8",
            "currentRandom": "0x0000000000000000000000000000000000000000000000000000000000020000",
            "currentDifficulty": "0x00",
            "currentBaseFee": "0x0a",
            "currentExcessBlobGas": "0x00"
        },
        "pre": {
            "0x8d46f91c96d17d6826f70a77bd11a554f540ddad": {
                "nonce": "0x00",
                "balance": "0x0de0b6b3a7640000",
                "code": "0x",
                "storage": {}
            },
            "0xc86780ac13c818cfd17e97c954483a701cc9c997": {
                "nonce": "0x00",
                "balance": "0x0de0b6b3a7640000",
                "code": "0x600160010160005500",
                "storage": {}
            }
        },
        "transaction": {
            "nonce": "0x00",
            "gasPrice": "0x0a",
            "gasLimit": [
                "0x061a80"
            ],
            "to": "0xc86780ac13c818cfd17e97c954483a701cc9c997",
            "value": [
                "0x0186a0"
            ],
            "data": [
                "0x00"
            ],
            "accessLists": [
                [
                    {
                        "address": "0xc86780ac13c818cfd17e97c954483a701cc9c997",
                        "storageKeys": [
                            "0x0000000000000000000000000000000000000000000000000000000000000000",
                            "0x0000000000000000000000000000000000000000000000000000000000000001"
                        ]
                    },
                    {
                        "address": "0x195e7baea6a6c7c4c2dfeb977efac326af552d87",
                        "storageKeys": [
                            "0x0000000000000000000000000000000000000000000000000000000000000000"
                        ]
                    }
                ]
            ],
            "sender": "0x8d46f91c96d17d6826f70a77bd11a554f540ddad",
            "secretKey": "0x42e12d9e21ca1750826c348fc86780ac13c818cfd17e97c954483a701cc9c997"
        },
        "post": {
            "Osaka": [
                {
                    "hash": "0xc6088c5546323e14e613358887f0fd4f302774355d84edf865a396a2f78295eb",
                    "logs": "0x1dcc4de8dec75d7aab85b567b6ccd41ad312451b948a7413f0a142fd40d49347",
                    "txbytes": "0x01f8f901800a83061a8094c86780ac13c818cfd17e97c954483a701cc9c997830186a000f893f85994c86780ac13c818cfd17e97c954483a701cc9c997f842a00000000000000000000000000000000000000000000000000000000000000000a00000000000000000000000000000000000000000000000000000000000000001f794195e7baea6a6c7c4c2dfeb977efac326af552d87e1a0000000000000000000000000000000000000000000000000000000000000000080a0e47a2810f3b330f0bea99d2e8160337e4492ee895f3756573aba8cecbe0d5331a0263c192674c96b7e635ea2ad8fc44e3d986731d5c35f49d3636358f3d0939380",
                    "indexes": {
                        "data": 0,
                        "gas": 0,
                        "value": 0
                    },
                    "state": {
                        "0x8d46f91c96d17d6826f70a77bd11a554f540ddad": {
                            "nonce": "0x01",
                            "balance": "0x0de0b6b3a75a9d08",
                            "code": "0x",
                            "storage": {}
                        },
                        "0xc86780ac13c818cfd17e97c954483a701cc9c997": {
                            "nonce": "0x00",
                            "balance": "0x0de0b6b3a76586a0",
                            "code": "0x600160010160005500",
                            "storage": {
                                "0x00": "0x02"
                            }
                        }
                    }
                }
            ]
        },
        "config": {
            "blobSchedule": {
                "Cancun": {
                    "target": "0x03",
                    "max": "0x06",
                    "baseFeeUpdateFraction": "0x32f0ed"
                },
                "Prague": {
                    "target": "0x06",
                    "max": "0x09",
                    "baseFeeUpdateFraction": "0x4c6964"
                },
                "Osaka": {
                    "target": "0x06",
                    "max": "0x09",
                    "baseFeeUpdateFraction": "0x4c6964"
                }
            },
            "chainid": "0x01"
        },
        "_info": {
            "hash": "0x8e92c14196f7c10c6798eb82e4222aeccc1ae6b77b4b02234e5e43cd9b6b6d76",
            "comment": "`execution-spec-tests` generated test",
            "filling-transition-tool": "ethereum-spec-evm-resolver 0.0.5",
            "description": "No description available - add a docstring to the python test class or function.",
            "url": "",
            "fixture-format": "state_test",
            "eels-resolution": {
                "git-url": "https://github.com/ethereum/execution-specs.git",
                "branch": "forks/bpos",
                "commit": "7aacb2c54111391af5e98c505d5010b5698a770f"
            }
        }
    },
    "tests/static/state_tests/stExample/accessListExampleFiller.yml::accessListExample[fork_Prague-state_test-declaredKeyWrite2]": {
        "env": {
            "currentCoinbase": "0x2adc25665018aa1fe0e6bc666dac8fc2697ff9ba",
            "currentGasLimit": "0xff112233445566",
            "currentNumber": "0x01",
            "currentTimestamp": "0x03e8",
            "currentRandom": "0x0000000000000000000000000000000000000000000000000000000000020000",
            "currentDifficulty": "0x00",
            "currentBaseFee": "0x0a",
            "currentExcessBlobGas": "0x00"
        },
        "pre": {
            "0x2a0415272bd5835344efe43dbb22f486dfecdd9e": {
                "nonce": "0x00",
                "balance": "0x0de0b6b3a7640000",
                "code": "0x",
                "storage": {}
            },
            "0x0857a38cd7af9021532534e3ede727bad251072a": {
                "nonce": "0x00",
                "balance": "0x0de0b6b3a7640000",
                "code": "0x600160010160005500",
                "storage": {}
            }
        },
        "transaction": {
            "nonce": "0x00",
            "gasPrice": "0x0a",
            "gasLimit": [
                "0x061a80"
            ],
            "to": "0x0857a38cd7af9021532534e3ede727bad251072a",
            "value": [
                "0x0186a0"
            ],
            "data": [
                "0x00"
            ],
            "accessLists": [
                [
                    {
                        "address": "0x195e7baea6a6c7c4c2dfeb977efac326af552d87",
                        "storageKeys": [
                            "0x0000000000000000000000000000000000000000000000000000000000000000"
                        ]
                    }
                ]
            ],
            "sender": "0x2a0415272bd5835344efe43dbb22f486dfecdd9e",
            "secretKey": "0x8822457f8b2c69ccf31f53b00857a38cd7af9021532534e3ede727bad251072a"
        },
        "post": {
            "Prague": [
                {
                    "hash": "0x6e2d4a408b560c0fcbcff51394337e16275eef7ee5ad8e96d7d95b9fa69b4488",
                    "logs": "0x1dcc4de8dec75d7aab85b567b6ccd41ad312451b948a7413f0a142fd40d49347",
                    "txbytes": "0x01f89e01800a83061a80940857a38cd7af9021532534e3ede727bad251072a830186a000f838f794195e7baea6a6c7c4c2dfeb977efac326af552d87e1a0000000000000000000000000000000000000000000000000000000000000000080a06b3c066cdc2682a8663a00ddd5837c28c3a2c45bbb076cd85157153c2384c7e4a01aa26ed48637947c27f42cd2da001d667c01b373b0e6577f20fffe8057ae5065",
                    "indexes": {
                        "data": 0,
                        "gas": 0,
                        "value": 0
                    },
                    "state": {
                        "0x2a0415272bd5835344efe43dbb22f486dfecdd9e": {
                            "nonce": "0x01",
                            "balance": "0x0de0b6b3a75b3d30",
                            "code": "0x",
                            "storage": {}
                        },
                        "0x0857a38cd7af9021532534e3ede727bad251072a": {
                            "nonce": "0x00",
                            "balance": "0x0de0b6b3a76586a0",
                            "code": "0x600160010160005500",
                            "storage": {
                                "0x00": "0x02"
                            }
                        }
                    }
                }
            ]
        },
        "config": {
            "blobSchedule": {
                "Cancun": {
                    "target": "0x03",
                    "max": "0x06",
                    "baseFeeUpdateFraction": "0x32f0ed"
                },
                "Prague": {
                    "target": "0x06",
                    "max": "0x09",
                    "baseFeeUpdateFraction": "0x4c6964"
                }
            },
            "chainid": "0x01"
        },
        "_info": {
            "hash": "0x9b2236ac1b9df3cb04ed9252794cfe98336c14a5b2b8aaa0c19df4dec1890ddd",
            "comment": "`execution-spec-tests` generated test",
            "filling-transition-tool": "ethereum-spec-evm-resolver 0.0.5",
            "description": "No description available - add a docstring to the python test class or function.",
            "url": "",
            "fixture-format": "state_test",
            "eels-resolution": {
                "git-url": "https://github.com/ethereum/execution-specs.git",
                "branch": "forks/bpos",
                "commit": "7aacb2c54111391af5e98c505d5010b5698a770f"
            }
        }
    },
    "tests/static/state_tests/stExample/accessListExampleFiller.yml::accessListExample[fork_Prague-state_test-declaredKeyWrite]": {
        "env": {
            "currentCoinbase": "0x2adc25665018aa1fe0e6bc666dac8fc2697ff9ba",
            "currentGasLimit": "0xff112233445566",
            "currentNumber": "0x01",
            "currentTimestamp": "0x03e8",
            "currentRandom": "0x0000000000000000000000000000000000000000000000000000000000020000",
            "currentDifficulty": "0x00",
            "currentBaseFee": "0x0a",
            "currentExcessBlobGas": "0x00"
        },
        "pre": {
            "0x8d46f91c96d17d6826f70a77bd11a554f540ddad": {
                "nonce": "0x00",
                "balance": "0x0de0b6b3a7640000",
                "code": "0x",
                "storage": {}
            },
            "0xc86780ac13c818cfd17e97c954483a701cc9c997": {
                "nonce": "0x00",
                "balance": "0x0de0b6b3a7640000",
                "code": "0x600160010160005500",
                "storage": {}
            }
        },
        "transaction": {
            "nonce": "0x00",
            "gasPrice": "0x0a",
            "gasLimit": [
                "0x061a80"
            ],
            "to": "0xc86780ac13c818cfd17e97c954483a701cc9c997",
            "value": [
                "0x0186a0"
            ],
            "data": [
                "0x00"
            ],
            "accessLists": [
                [
                    {
                        "address": "0xc86780ac13c818cfd17e97c954483a701cc9c997",
                        "storageKeys": [
                            "0x0000000000000000000000000000000000000000000000000000000000000000",
                            "0x0000000000000000000000000000000000000000000000000000000000000001"
                        ]
                    },
                    {
                        "address": "0x195e7baea6a6c7c4c2dfeb977efac326af552d87",
                        "storageKeys": [
                            "0x0000000000000000000000000000000000000000000000000000000000000000"
                        ]
                    }
                ]
            ],
            "sender": "0x8d46f91c96d17d6826f70a77bd11a554f540ddad",
            "secretKey": "0x42e12d9e21ca1750826c348fc86780ac13c818cfd17e97c954483a701cc9c997"
        },
        "post": {
            "Prague": [
                {
                    "hash": "0xc6088c5546323e14e613358887f0fd4f302774355d84edf865a396a2f78295eb",
                    "logs": "0x1dcc4de8dec75d7aab85b567b6ccd41ad312451b948a7413f0a142fd40d49347",
                    "txbytes": "0x01f8f901800a83061a8094c86780ac13c818cfd17e97c954483a701cc9c997830186a000f893f85994c86780ac13c818cfd17e97c954483a701cc9c997f842a00000000000000000000000000000000000000000000000000000000000000000a00000000000000000000000000000000000000000000000000000000000000001f794195e7baea6a6c7c4c2dfeb977efac326af552d87e1a0000000000000000000000000000000000000000000000000000000000000000080a0e47a2810f3b330f0bea99d2e8160337e4492ee895f3756573aba8cecbe0d5331a0263c192674c96b7e635ea2ad8fc44e3d986731d5c35f49d3636358f3d0939380",
                    "indexes": {
                        "data": 0,
                        "gas": 0,
                        "value": 0
                    },
                    "state": {
                        "0x8d46f91c96d17d6826f70a77bd11a554f540ddad": {
                            "nonce": "0x01",
                            "balance": "0x0de0b6b3a75a9d08",
                            "code": "0x",
                            "storage": {}
                        },
                        "0xc86780ac13c818cfd17e97c954483a701cc9c997": {
                            "nonce": "0x00",
                            "balance": "0x0de0b6b3a76586a0",
                            "code": "0x600160010160005500",
                            "storage": {
                                "0x00": "0x02"
                            }
                        }
                    }
                }
            ]
        },
        "config": {
            "blobSchedule": {
                "Cancun": {
                    "target": "0x03",
                    "max": "0x06",
                    "baseFeeUpdateFraction": "0x32f0ed"
                },
                "Prague": {
                    "target": "0x06",
                    "max": "0x09",
                    "baseFeeUpdateFraction": "0x4c6964"
                }
            },
            "chainid": "0x01"
        },
        "_info": {
            "hash": "0x359ba7b0de65727a2bc19b6422d5cfadf51ad03453a2fb1e4723158182667bed",
            "comment": "`execution-spec-tests` generated test",
            "filling-transition-tool": "ethereum-spec-evm-resolver 0.0.5",
            "description": "No description available - add a docstring to the python test class or function.",
            "url": "",
            "fixture-format": "state_test",
            "eels-resolution": {
                "git-url": "https://github.com/ethereum/execution-specs.git",
                "branch": "forks/bpos",
                "commit": "7aacb2c54111391af5e98c505d5010b5698a770f"
            }
        }
    }
}