{
    "tests/frontier/create/test_create_suicide_store.py::test_create_suicide_store[fork_Homestead-create_opcode_CREATE-blockchain_test_from_state_test]": {
        "network": "Homestead",
        "genesisBlockHeader": {
            "parentHash": "0x0000000000000000000000000000000000000000000000000000000000000000",
            "uncleHash": "0x1dcc4de8dec75d7aab85b567b6ccd41ad312451b948a7413f0a142fd40d49347",
            "coinbase": "0x0000000000000000000000000000000000000000",
            "stateRoot": "0x73dc7969b0bed683a533c7cebeaba920235b90106a7c708ae5dc61ffc05b346a",
            "transactionsTrie": "0x56e81f171bcc55a6ff8345e692c0f86e5b48e01b996cadc001622fb5e363b421",
            "receiptTrie": "0x56e81f171bcc55a6ff8345e692c0f86e5b48e01b996cadc001622fb5e363b421",
            "bloom": "0x00000000000000000000000000000000000000000000000000000000000000000000000000000000000000000000000000000000000000000000000000000000000000000000000000000000000000000000000000000000000000000000000000000000000000000000000000000000000000000000000000000000000000000000000000000000000000000000000000000000000000000000000000000000000000000000000000000000000000000000000000000000000000000000000000000000000000000000000000000000000000000000000000000000000000000000000000000000000000000000000000000000000000000000000000000000",
            "difficulty": "0x020000",
            "number": "0x00",
            "gasLimit": "0x07270e00",
            "gasUsed": "0x00",
            "timestamp": "0x00",
            "extraData": "0x00",
            "mixHash": "0x0000000000000000000000000000000000000000000000000000000000000000",
            "nonce": "0x0000000000000000",
            "hash": "0xc7ebcd94699a2692a7be2b419140dc5df77a09616e0e0e89b563f164fbb9bab7"
        },
        "pre": {
            "0x1ad9bc24818784172ff393bb6f89f094d4d2ca29": {
                "nonce": "0x00",
                "balance": "0x3635c9adc5dea00000",
                "code": "0x",
                "storage": {}
            },
            "0x17daeaaddf731eb9f66237055d365d3d2d6e8050": {
                "nonce": "0x01",
                "balance": "0x00",
                "code": "0x3660006000373660006000f0600055600260405260006000602060406000600054620493e05a03f1600160405260006000602060406000600054620493e05a03f1600260405260006000602060406000600054620493e05a03f1600360405260206064602060406000600054620493e05a03f16064516001556001600255",
                "storage": {}
            }
        },
        "postState": {
            "0x1ad9bc24818784172ff393bb6f89f094d4d2ca29": {
                "nonce": "0x01",
                "balance": "0x3635c9adc5de8a51f6",
                "code": "0x",
                "storage": {}
            },
            "0x17daeaaddf731eb9f66237055d365d3d2d6e8050": {
                "nonce": "0x02",
                "balance": "0x00",
                "code": "0x3660006000373660006000f0600055600260405260006000602060406000600054620493e05a03f1600160405260006000602060406000600054620493e05a03f1600260405260006000602060406000600054620493e05a03f1600360405260206064602060406000600054620493e05a03f16064516001556001600255",
                "storage": {
                    "0x00": "0x4b1635e9d50ed49ddb11398a53ff2836b9f1bc0e",
                    "0x01": "0x24",
                    "0x02": "0x01"
                }
            },
            "0xc0f6dc9e5836f54caadbf59cc69346c508e1992b": {
                "nonce": "0x00",
                "balance": "0x00",
                "code": "0x",
                "storage": {}
            },
            "0x2adc25665018aa1fe0e6bc666dac8fc2697ff9ba": {
                "nonce": "0x00",
                "balance": "0x456391824509ae0a",
                "code": "0x",
                "storage": {}
            }
        },
        "lastblockhash": "0x7ab9f9710e127c9c643438c196dc982b980b82705fd9f3f88c8300fa9163f990",
        "config": {
            "network": "Homestead",
            "chainid": "0x01"
        },
        "genesisRLP": "0xf901f9f901f4a00000000000000000000000000000000000000000000000000000000000000000a01dcc4de8dec75d7aab85b567b6ccd41ad312451b948a7413f0a142fd40d49347940000000000000000000000000000000000000000a073dc7969b0bed683a533c7cebeaba920235b90106a7c708ae5dc61ffc05b346aa056e81f171bcc55a6ff8345e692c0f86e5b48e01b996cadc001622fb5e363b421a056e81f171bcc55a6ff8345e692c0f86e5b48e01b996cadc001622fb5e363b421b901000000000000000000000000000000000000000000000000000000000000000000000000000000000000000000000000000000000000000000000000000000000000000000000000000000000000000000000000000000000000000000000000000000000000000000000000000000000000000000000000000000000000000000000000000000000000000000000000000000000000000000000000000000000000000000000000000000000000000000000000000000000000000000000000000000000000000000000000000000000000000000000000000000000000000000000000000000000000000000000000000000000000000000000000000000000083020000808407270e00808000a00000000000000000000000000000000000000000000000000000000000000000880000000000000000c0c0",
        "blocks": [
            {
                "blockHeader": {
                    "parentHash": "0xc7ebcd94699a2692a7be2b419140dc5df77a09616e0e0e89b563f164fbb9bab7",
                    "uncleHash": "0x1dcc4de8dec75d7aab85b567b6ccd41ad312451b948a7413f0a142fd40d49347",
                    "coinbase": "0x2adc25665018aa1fe0e6bc666dac8fc2697ff9ba",
                    "stateRoot": "0xac9b2c9a1e5af5735d0230c6cf8dd2961c5424df415d44bca5fb387bbe4bbb52",
                    "transactionsTrie": "0xaa7e6a3d60706b362c45cb3f60daeede3b2907154976284d25058f9ed296ff53",
                    "receiptTrie": "0xcc11c15b73c1b0caaaf3a1b511b8c8312e00cfbbf36c59c7cc0910650896e305",
                    "bloom": "0x00000000000000000000000000000000000000000000000000000000000000000000000000000000000000000000000000000000000000000000000000000000000000000000000000000000000000000000000000000000000000000000000000000000000000000000000000000000000000000000000000000000000000000000000000000000000000000000000000000000000000000000000000000000000000000000000000000000000000000000000000000000000000000000000000000000000000000000000000000000000000000000000000000000000000000000000000000000000000000000000000000000000000000000000000000000",
                    "difficulty": "0x020000",
                    "number": "0x01",
                    "gasLimit": "0x07270e00",
                    "gasUsed": "0x022b01",
                    "timestamp": "0x03e8",
                    "extraData": "0x00",
                    "mixHash": "0x0000000000000000000000000000000000000000000000000000000000000000",
                    "nonce": "0x0000000000000000",
                    "hash": "0x7ab9f9710e127c9c643438c196dc982b980b82705fd9f3f88c8300fa9163f990"
                },
                "transactions": [
                    {
                        "type": "0x00",
                        "chainId": "0x01",
                        "nonce": "0x00",
                        "gasPrice": "0x0a",
                        "gasLimit": "0x0f4240",
                        "to": "0x17daeaaddf731eb9f66237055d365d3d2d6e8050",
                        "value": "0x00",
                        "data": "0x610064600081600b8239f3600160003514603f5801576002600035146024580157600360003514600858015760405801565b60015460005260206000f3602f5801565b60126001540160015500601f5801565b73c0f6dc9e5836f54caadbf59cc69346c508e1992bff60035801565b",
                        "v": "0x1c",
                        "r": "0x490a6f8c452213bc39aec00df8660652ee7abcfdb0e54970aa53be1493605747",
                        "s": "0x64ccde75d9e6115455664960fc435de312043f356b5a56dea3974690d423c766",
                        "sender": "0x1ad9bc24818784172ff393bb6f89f094d4d2ca29"
                    }
                ],
                "uncleHeaders": [],
                "receipts": [
                    {
                        "transactionHash": "0x6b0a1f044cd90fec1fca3f4a7e356f71c8e3340279a742036040567df7b222df",
                        "type": "0x00",
                        "cumulativeGasUsed": "0x022b01",
                        "bloom": "0x00000000000000000000000000000000000000000000000000000000000000000000000000000000000000000000000000000000000000000000000000000000000000000000000000000000000000000000000000000000000000000000000000000000000000000000000000000000000000000000000000000000000000000000000000000000000000000000000000000000000000000000000000000000000000000000000000000000000000000000000000000000000000000000000000000000000000000000000000000000000000000000000000000000000000000000000000000000000000000000000000000000000000000000000000000000",
                        "logs": [],
                        "postState": "0x0daea5e92124559611dc1cbc16db3aef81ca04e5009bf9df0b9fcb1e1c0cf846",
                        "rlp": "0xf90129a00daea5e92124559611dc1cbc16db3aef81ca04e5009bf9df0b9fcb1e1c0cf84683022b01b9010000000000000000000000000000000000000000000000000000000000000000000000000000000000000000000000000000000000000000000000000000000000000000000000000000000000000000000000000000000000000000000000000000000000000000000000000000000000000000000000000000000000000000000000000000000000000000000000000000000000000000000000000000000000000000000000000000000000000000000000000000000000000000000000000000000000000000000000000000000000000000000000000000000000000000000000000000000000000000000000000000000000000000000000000000000000c0"
                    }
                ],
                "rlp": "0xf902d1f901f9a0c7ebcd94699a2692a7be2b419140dc5df77a09616e0e0e89b563f164fbb9bab7a01dcc4de8dec75d7aab85b567b6ccd41ad312451b948a7413f0a142fd40d49347942adc25665018aa1fe0e6bc666dac8fc2697ff9baa0ac9b2c9a1e5af5735d0230c6cf8dd2961c5424df415d44bca5fb387bbe4bbb52a0aa7e6a3d60706b362c45cb3f60daeede3b2907154976284d25058f9ed296ff53a0cc11c15b73c1b0caaaf3a1b511b8c8312e00cfbbf36c59c7cc0910650896e305b901000000000000000000000000000000000000000000000000000000000000000000000000000000000000000000000000000000000000000000000000000000000000000000000000000000000000000000000000000000000000000000000000000000000000000000000000000000000000000000000000000000000000000000000000000000000000000000000000000000000000000000000000000000000000000000000000000000000000000000000000000000000000000000000000000000000000000000000000000000000000000000000000000000000000000000000000000000000000000000000000000000000000000000000000000000000083020000018407270e0083022b018203e800a00000000000000000000000000000000000000000000000000000000000000000880000000000000000f8d2f8d0800a830f42409417daeaaddf731eb9f66237055d365d3d2d6e805080b86f610064600081600b8239f3600160003514603f5801576002600035146024580157600360003514600858015760405801565b60015460005260206000f3602f5801565b60126001540160015500601f5801565b73c0f6dc9e5836f54caadbf59cc69346c508e1992bff60035801565b1ca0490a6f8c452213bc39aec00df8660652ee7abcfdb0e54970aa53be1493605747a064ccde75d9e6115455664960fc435de312043f356b5a56dea3974690d423c766c0",
                "blocknumber": "1"
            }
        ],
        "sealEngine": "NoProof",
        "_info": {
            "hash": "0x6ac8bfee45f6b25314d862bd62df625c84710979a169eae8ca882d939d02b85d",
            "fixture-format": "blockchain_test",
            "comment": "`execution-specs` generated test",
            "filling-transition-tool": "2.19.0",
            "description": "Create a dynamic contract that self-destructs, then call it to store some\ndata and then call it again to return that storage value.",
            "url": "https://github.com/ethereum/execution-specs/blob/tests-bal@v5.4.0/tests/frontier/create/test_create_suicide_store.py#L32",
            "opcode_count": {}
        }
    }
}