{
    "tests/ported_static/stRandom2/test_random_statetest647.py::test_random_statetest647[fork_Cancun-blockchain_test_from_state_test]": {
        "network": "Cancun",
        "genesisBlockHeader": {
            "parentHash": "0x0000000000000000000000000000000000000000000000000000000000000000",
            "uncleHash": "0x1dcc4de8dec75d7aab85b567b6ccd41ad312451b948a7413f0a142fd40d49347",
            "coinbase": "0x0000000000000000000000000000000000000000",
            "stateRoot": "0x5e4c24ce2ca1f64b49b1f054b763069e561fc6f0b5eab026861e2bb25b974334",
            "transactionsTrie": "0x56e81f171bcc55a6ff8345e692c0f86e5b48e01b996cadc001622fb5e363b421",
            "receiptTrie": "0x56e81f171bcc55a6ff8345e692c0f86e5b48e01b996cadc001622fb5e363b421",
            "bloom": "0x00000000000000000000000000000000000000000000000000000000000000000000000000000000000000000000000000000000000000000000000000000000000000000000000000000000000000000000000000000000000000000000000000000000000000000000000000000000000000000000000000000000000000000000000000000000000000000000000000000000000000000000000000000000000000000000000000000000000000000000000000000000000000000000000000000000000000000000000000000000000000000000000000000000000000000000000000000000000000000000000000000000000000000000000000000000",
            "difficulty": "0x00",
            "number": "0x00",
            "gasLimit": "0x42fe8c95373ea1",
            "gasUsed": "0x00",
            "timestamp": "0x00",
            "extraData": "0x00",
            "mixHash": "0x0000000000000000000000000000000000000000000000000000000000000000",
            "nonce": "0x0000000000000000",
            "baseFeePerGas": "0x0b",
            "withdrawalsRoot": "0x56e81f171bcc55a6ff8345e692c0f86e5b48e01b996cadc001622fb5e363b421",
            "blobGasUsed": "0x00",
            "excessBlobGas": "0x00",
            "parentBeaconBlockRoot": "0x0000000000000000000000000000000000000000000000000000000000000000",
            "hash": "0xf2c4b69a50e88e049cf937dac8aa0059a0b90300404667e2c05d77bb00f0ba58"
        },
        "pre": {
            "0x000f3df6d732807ef1319fb7b8bb8522d0beac02": {
                "nonce": "0x01",
                "balance": "0x00",
                "code": "0x3373fffffffffffffffffffffffffffffffffffffffe14604d57602036146024575f5ffd5b5f35801560495762001fff810690815414603c575f5ffd5b62001fff01545f5260205ff35b5f5ffd5b62001fff42064281555f359062001fff015500",
                "storage": {}
            },
            "0xcfff6235759a3209f2cb8e3e2dd6ea4c2b96e325": {
                "nonce": "0x00",
                "balance": "0x174876e800",
                "code": "0x",
                "storage": {}
            },
            "0x782b7c65205e1c08192df7357e2fe778c81256a9": {
                "nonce": "0x07",
                "balance": "0x00",
                "code": "0x6001600160000360003e00",
                "storage": {}
            }
        },
        "postState": {
            "0x000f3df6d732807ef1319fb7b8bb8522d0beac02": {
                "nonce": "0x01",
                "balance": "0x00",
                "code": "0x3373fffffffffffffffffffffffffffffffffffffffe14604d57602036146024575f5ffd5b5f35801560495762001fff810690815414603c575f5ffd5b62001fff01545f5260205ff35b5f5ffd5b62001fff42064281555f359062001fff015500",
                "storage": {
                    "0x03e8": "0x03e8"
                }
            },
            "0xcfff6235759a3209f2cb8e3e2dd6ea4c2b96e325": {
                "nonce": "0x01",
                "balance": "0x174503e416",
                "code": "0x",
                "storage": {}
            },
            "0x782b7c65205e1c08192df7357e2fe778c81256a9": {
                "nonce": "0x07",
                "balance": "0x00",
                "code": "0x6001600160000360003e00",
                "storage": {}
            }
        },
        "lastblockhash": "0xe48d3089c743c376fd19c3135b8031e8778a4b3525eb3a0cd055810a59fb8ac9",
        "config": {
            "network": "Cancun",
            "chainid": "0x01",
            "blobSchedule": {
                "Cancun": {
                    "target": "0x03",
                    "max": "0x06",
                    "baseFeeUpdateFraction": "0x32f0ed"
                }
            }
        },
        "genesisRLP": "0xf9023ff90239a00000000000000000000000000000000000000000000000000000000000000000a01dcc4de8dec75d7aab85b567b6ccd41ad312451b948a7413f0a142fd40d49347940000000000000000000000000000000000000000a05e4c24ce2ca1f64b49b1f054b763069e561fc6f0b5eab026861e2bb25b974334a056e81f171bcc55a6ff8345e692c0f86e5b48e01b996cadc001622fb5e363b421a056e81f171bcc55a6ff8345e692c0f86e5b48e01b996cadc001622fb5e363b421b901000000000000000000000000000000000000000000000000000000000000000000000000000000000000000000000000000000000000000000000000000000000000000000000000000000000000000000000000000000000000000000000000000000000000000000000000000000000000000000000000000000000000000000000000000000000000000000000000000000000000000000000000000000000000000000000000000000000000000000000000000000000000000000000000000000000000000000000000000000000000000000000000000000000000000000000000000000000000000000000000000000000000000000000000000000000080808742fe8c95373ea1808000a000000000000000000000000000000000000000000000000000000000000000008800000000000000000ba056e81f171bcc55a6ff8345e692c0f86e5b48e01b996cadc001622fb5e363b4218080a00000000000000000000000000000000000000000000000000000000000000000c0c0c0",
        "blocks": [
            {
                "blockHeader": {
                    "parentHash": "0xf2c4b69a50e88e049cf937dac8aa0059a0b90300404667e2c05d77bb00f0ba58",
                    "uncleHash": "0x1dcc4de8dec75d7aab85b567b6ccd41ad312451b948a7413f0a142fd40d49347",
                    "coinbase": "0xd94f5374fce5edbc8e2a8697c15331677e6ebf0b",
                    "stateRoot": "0x47936340679f817f1bb8ab14c004a9bc93d9b15e053ddc97003b5a9c86e8234e",
                    "transactionsTrie": "0xe66780b2c68273af85229577358ca47419572b2ff6b69c29f93469e82e5a6304",
                    "receiptTrie": "0x53077ec6f582974cc36542550f228b891d4fa732272a6984075dd3eaef9a432a",
                    "bloom": "0x00000000000000000000000000000000000000000000000000000000000000000000000000000000000000000000000000000000000000000000000000000000000000000000000000000000000000000000000000000000000000000000000000000000000000000000000000000000000000000000000000000000000000000000000000000000000000000000000000000000000000000000000000000000000000000000000000000000000000000000000000000000000000000000000000000000000000000000000000000000000000000000000000000000000000000000000000000000000000000000000000000000000000000000000000000000",
                    "difficulty": "0x00",
                    "number": "0x01",
                    "gasLimit": "0x42fe8c95373ea1",
                    "gasUsed": "0x584d31",
                    "timestamp": "0x03e8",
                    "extraData": "0x00",
                    "mixHash": "0x0000000000000000000000000000000000000000000000000000000000020000",
                    "nonce": "0x0000000000000000",
                    "baseFeePerGas": "0x0a",
                    "withdrawalsRoot": "0x56e81f171bcc55a6ff8345e692c0f86e5b48e01b996cadc001622fb5e363b421",
                    "blobGasUsed": "0x00",
                    "excessBlobGas": "0x00",
                    "parentBeaconBlockRoot": "0x0000000000000000000000000000000000000000000000000000000000000000",
                    "hash": "0xe48d3089c743c376fd19c3135b8031e8778a4b3525eb3a0cd055810a59fb8ac9"
                },
                "transactions": [
                    {
                        "type": "0x00",
                        "chainId": "0x01",
                        "nonce": "0x00",
                        "gasPrice": "0x0a",
                        "gasLimit": "0x584d31",
                        "to": "0x782b7c65205e1c08192df7357e2fe778c81256a9",
                        "value": "0x00",
                        "data": "0x",
                        "v": "0x25",
                        "r": "0x11334fb830ad250c916173caf6509407b361770919074f01c833dbea6dbc8caa",
                        "s": "0x110687566fd9aae2011cf658dad3543763d03d7f197510ee0e9160d6cf89556a",
                        "sender": "0xcfff6235759a3209f2cb8e3e2dd6ea4c2b96e325"
                    }
                ],
                "uncleHeaders": [],
                "withdrawals": [],
                "receipts": [
                    {
                        "transactionHash": "0xa30536b99494230938d6996d8d861c26e317dc76bb9d131b3697d34a26c26aea",
                        "type": "0x00",
                        "cumulativeGasUsed": "0x584d31",
                        "bloom": "0x00000000000000000000000000000000000000000000000000000000000000000000000000000000000000000000000000000000000000000000000000000000000000000000000000000000000000000000000000000000000000000000000000000000000000000000000000000000000000000000000000000000000000000000000000000000000000000000000000000000000000000000000000000000000000000000000000000000000000000000000000000000000000000000000000000000000000000000000000000000000000000000000000000000000000000000000000000000000000000000000000000000000000000000000000000000",
                        "logs": [],
                        "status": false,
                        "rlp": "0xf901098083584d31b9010000000000000000000000000000000000000000000000000000000000000000000000000000000000000000000000000000000000000000000000000000000000000000000000000000000000000000000000000000000000000000000000000000000000000000000000000000000000000000000000000000000000000000000000000000000000000000000000000000000000000000000000000000000000000000000000000000000000000000000000000000000000000000000000000000000000000000000000000000000000000000000000000000000000000000000000000000000000000000000000000000000000000000000000000000000000c0"
                    }
                ],
                "rlp": "0xf902a7f9023ea0f2c4b69a50e88e049cf937dac8aa0059a0b90300404667e2c05d77bb00f0ba58a01dcc4de8dec75d7aab85b567b6ccd41ad312451b948a7413f0a142fd40d4934794d94f5374fce5edbc8e2a8697c15331677e6ebf0ba047936340679f817f1bb8ab14c004a9bc93d9b15e053ddc97003b5a9c86e8234ea0e66780b2c68273af85229577358ca47419572b2ff6b69c29f93469e82e5a6304a053077ec6f582974cc36542550f228b891d4fa732272a6984075dd3eaef9a432ab901000000000000000000000000000000000000000000000000000000000000000000000000000000000000000000000000000000000000000000000000000000000000000000000000000000000000000000000000000000000000000000000000000000000000000000000000000000000000000000000000000000000000000000000000000000000000000000000000000000000000000000000000000000000000000000000000000000000000000000000000000000000000000000000000000000000000000000000000000000000000000000000000000000000000000000000000000000000000000000000000000000000000000000000000000000000080018742fe8c95373ea183584d318203e800a000000000000000000000000000000000000000000000000000000000000200008800000000000000000aa056e81f171bcc55a6ff8345e692c0f86e5b48e01b996cadc001622fb5e363b4218080a00000000000000000000000000000000000000000000000000000000000000000f862f860800a83584d3194782b7c65205e1c08192df7357e2fe778c81256a9808025a011334fb830ad250c916173caf6509407b361770919074f01c833dbea6dbc8caaa0110687566fd9aae2011cf658dad3543763d03d7f197510ee0e9160d6cf89556ac0c0",
                "blocknumber": "1"
            }
        ],
        "sealEngine": "NoProof",
        "_info": {
            "hash": "0xa3525abd7f0b06b0aeecf9da137228231e0a59366867061f106c2ec06e7abfb8",
            "fixture-format": "blockchain_test",
            "comment": "`execution-specs` generated test",
            "filling-transition-tool": "2.19.0",
            "description": "Malicious bytecode found by fuzztest tool: returndatacopy(0,-1).",
            "url": "https://github.com/ethereum/execution-specs/blob/tests-bal@v5.6.0/tests/ported_static/stRandom2/test_random_statetest647.py#L25",
            "metadata": {
                "opcode_count": {}
            }
        }
    }
}