{
    "tests/ported_static/stPreCompiledContracts/test_sec80.py::test_sec80[fork_Cancun-blockchain_test_from_state_test]": {
        "network": "Cancun",
        "genesisBlockHeader": {
            "parentHash": "0x0000000000000000000000000000000000000000000000000000000000000000",
            "uncleHash": "0x1dcc4de8dec75d7aab85b567b6ccd41ad312451b948a7413f0a142fd40d49347",
            "coinbase": "0x0000000000000000000000000000000000000000",
            "stateRoot": "0xb0cd530b9913a9786e614e392a92fe5116c816fac36e9114bbd95739a37e1184",
            "transactionsTrie": "0x56e81f171bcc55a6ff8345e692c0f86e5b48e01b996cadc001622fb5e363b421",
            "receiptTrie": "0x56e81f171bcc55a6ff8345e692c0f86e5b48e01b996cadc001622fb5e363b421",
            "bloom": "0x00000000000000000000000000000000000000000000000000000000000000000000000000000000000000000000000000000000000000000000000000000000000000000000000000000000000000000000000000000000000000000000000000000000000000000000000000000000000000000000000000000000000000000000000000000000000000000000000000000000000000000000000000000000000000000000000000000000000000000000000000000000000000000000000000000000000000000000000000000000000000000000000000000000000000000000000000000000000000000000000000000000000000000000000000000000",
            "difficulty": "0x00",
            "number": "0x00",
            "gasLimit": "0x05f5e100",
            "gasUsed": "0x00",
            "timestamp": "0x00",
            "extraData": "0x00",
            "mixHash": "0x0000000000000000000000000000000000000000000000000000000000000000",
            "nonce": "0x0000000000000000",
            "baseFeePerGas": "0x0b",
            "withdrawalsRoot": "0x56e81f171bcc55a6ff8345e692c0f86e5b48e01b996cadc001622fb5e363b421",
            "blobGasUsed": "0x00",
            "excessBlobGas": "0x00",
            "parentBeaconBlockRoot": "0x0000000000000000000000000000000000000000000000000000000000000000",
            "hash": "0x84ffe03b1c54d27a3f6dcc5f07525533aedbb0fc072a4d6025dbe1e91f050360"
        },
        "pre": {
            "0x000f3df6d732807ef1319fb7b8bb8522d0beac02": {
                "nonce": "0x01",
                "balance": "0x00",
                "code": "0x3373fffffffffffffffffffffffffffffffffffffffe14604d57602036146024575f5ffd5b5f35801560495762001fff810690815414603c575f5ffd5b62001fff01545f5260205ff35b5f5ffd5b62001fff42064281555f359062001fff015500",
                "storage": {}
            },
            "0x39c2fbd2d4e46fa75775649472ddb79e836160b0": {
                "nonce": "0x00",
                "balance": "0x01312d00",
                "code": "0x601b565b6000555b005b630badf00d6003565b63c001f00d6003565b7319e7e376e7c213b7e7e7e46cc70a5dd086daff2a7f22ae6da6b482f9b1b19b0b897c3fd43884180a1c5ee361e1107a1bc635649dda600052601b603f537f16433dce375ce6dc8151d3f0a22728bc4a1d9fd6ed39dfd18b4609331937367f6040527f306964c0cf5d74f04129fdc60b54d35b596dde1bf89ad92cb4123318f4c0e40060605260206080607f60006000600161fffff21560075760805114601257600956",
                "storage": {}
            },
            "0xebaf50debf10e08302fe4280c32df010463ca297": {
                "nonce": "0x00",
                "balance": "0x0de0b6b3a7640000",
                "code": "0x",
                "storage": {}
            }
        },
        "postState": {
            "0x000f3df6d732807ef1319fb7b8bb8522d0beac02": {
                "nonce": "0x01",
                "balance": "0x00",
                "code": "0x3373fffffffffffffffffffffffffffffffffffffffe14604d57602036146024575f5ffd5b5f35801560495762001fff810690815414603c575f5ffd5b62001fff01545f5260205ff35b5f5ffd5b62001fff42064281555f359062001fff015500",
                "storage": {
                    "0x03e8": "0x03e8"
                }
            },
            "0x39c2fbd2d4e46fa75775649472ddb79e836160b0": {
                "nonce": "0x00",
                "balance": "0x0132b3a0",
                "code": "0x601b565b6000555b005b630badf00d6003565b63c001f00d6003565b7319e7e376e7c213b7e7e7e46cc70a5dd086daff2a7f22ae6da6b482f9b1b19b0b897c3fd43884180a1c5ee361e1107a1bc635649dda600052601b603f537f16433dce375ce6dc8151d3f0a22728bc4a1d9fd6ed39dfd18b4609331937367f6040527f306964c0cf5d74f04129fdc60b54d35b596dde1bf89ad92cb4123318f4c0e40060605260206080607f60006000600161fffff21560075760805114601257600956",
                "storage": {
                    "0x00": "0xc001f00d"
                }
            },
            "0xebaf50debf10e08302fe4280c32df010463ca297": {
                "nonce": "0x01",
                "balance": "0x0de0b6b3a75b6706",
                "code": "0x",
                "storage": {}
            }
        },
        "lastblockhash": "0x41e0c388319a75ecd3cc3a31e096622f3cb19429aca9f0ff5876db52b8648b7c",
        "config": {
            "network": "Cancun",
            "chainid": "0x01",
            "blobSchedule": {
                "Cancun": {
                    "target": "0x03",
                    "max": "0x06",
                    "baseFeeUpdateFraction": "0x32f0ed"
                }
            }
        },
        "genesisRLP": "0xf9023cf90236a00000000000000000000000000000000000000000000000000000000000000000a01dcc4de8dec75d7aab85b567b6ccd41ad312451b948a7413f0a142fd40d49347940000000000000000000000000000000000000000a0b0cd530b9913a9786e614e392a92fe5116c816fac36e9114bbd95739a37e1184a056e81f171bcc55a6ff8345e692c0f86e5b48e01b996cadc001622fb5e363b421a056e81f171bcc55a6ff8345e692c0f86e5b48e01b996cadc001622fb5e363b421b901000000000000000000000000000000000000000000000000000000000000000000000000000000000000000000000000000000000000000000000000000000000000000000000000000000000000000000000000000000000000000000000000000000000000000000000000000000000000000000000000000000000000000000000000000000000000000000000000000000000000000000000000000000000000000000000000000000000000000000000000000000000000000000000000000000000000000000000000000000000000000000000000000000000000000000000000000000000000000000000000000000000000000000000000000000000080808405f5e100808000a000000000000000000000000000000000000000000000000000000000000000008800000000000000000ba056e81f171bcc55a6ff8345e692c0f86e5b48e01b996cadc001622fb5e363b4218080a00000000000000000000000000000000000000000000000000000000000000000c0c0c0",
        "blocks": [
            {
                "blockHeader": {
                    "parentHash": "0x84ffe03b1c54d27a3f6dcc5f07525533aedbb0fc072a4d6025dbe1e91f050360",
                    "uncleHash": "0x1dcc4de8dec75d7aab85b567b6ccd41ad312451b948a7413f0a142fd40d49347",
                    "coinbase": "0x2adc25665018aa1fe0e6bc666dac8fc2697ff9ba",
                    "stateRoot": "0xa29f15a9df66849ce098ea0e973899fb85f52729503c7a92f63e1ebad312a9fa",
                    "transactionsTrie": "0xcc827a2424d059af9ead6942b8ceafaa259ec5d40418a8f22893f31df1441e22",
                    "receiptTrie": "0x0da14b349fd5e88efc05c9c7ddea75636443e2a08ffcbe2b6184929280cb1335",
                    "bloom": "0x00000000000000000000000000000000000000000000000000000000000000000000000000000000000000000000000000000000000000000000000000000000000000000000000000000000000000000000000000000000000000000000000000000000000000000000000000000000000000000000000000000000000000000000000000000000000000000000000000000000000000000000000000000000000000000000000000000000000000000000000000000000000000000000000000000000000000000000000000000000000000000000000000000000000000000000000000000000000000000000000000000000000000000000000000000000",
                    "difficulty": "0x00",
                    "number": "0x01",
                    "gasLimit": "0x05f5e100",
                    "gasUsed": "0xb509",
                    "timestamp": "0x03e8",
                    "extraData": "0x00",
                    "mixHash": "0x0000000000000000000000000000000000000000000000000000000000020000",
                    "nonce": "0x0000000000000000",
                    "baseFeePerGas": "0x0a",
                    "withdrawalsRoot": "0x56e81f171bcc55a6ff8345e692c0f86e5b48e01b996cadc001622fb5e363b421",
                    "blobGasUsed": "0x00",
                    "excessBlobGas": "0x00",
                    "parentBeaconBlockRoot": "0x0000000000000000000000000000000000000000000000000000000000000000",
                    "hash": "0x41e0c388319a75ecd3cc3a31e096622f3cb19429aca9f0ff5876db52b8648b7c"
                },
                "transactions": [
                    {
                        "type": "0x00",
                        "chainId": "0x01",
                        "nonce": "0x00",
                        "gasPrice": "0x0a",
                        "gasLimit": "0x989680",
                        "to": "0x39c2fbd2d4e46fa75775649472ddb79e836160b0",
                        "value": "0x0186a0",
                        "data": "0x",
                        "v": "0x25",
                        "r": "0xefbfe14e096f1fc0b02adf54ee356ec0b46b40889c49574346223a4fd8c2c1ad",
                        "s": "0x1d679d81d5cabd746604c688c7a739102e3ebc95f9152b7e7e04930b83136685",
                        "sender": "0xebaf50debf10e08302fe4280c32df010463ca297"
                    }
                ],
                "uncleHeaders": [],
                "withdrawals": [],
                "receipts": [
                    {
                        "transactionHash": "0x413682d6cb79fa5b16520e510d780417d9841c91ffa32b8dae1ebfa64de50540",
                        "type": "0x00",
                        "cumulativeGasUsed": "0xb509",
                        "bloom": "0x00000000000000000000000000000000000000000000000000000000000000000000000000000000000000000000000000000000000000000000000000000000000000000000000000000000000000000000000000000000000000000000000000000000000000000000000000000000000000000000000000000000000000000000000000000000000000000000000000000000000000000000000000000000000000000000000000000000000000000000000000000000000000000000000000000000000000000000000000000000000000000000000000000000000000000000000000000000000000000000000000000000000000000000000000000000",
                        "logs": [],
                        "status": true,
                        "rlp": "0xf901080182b509b9010000000000000000000000000000000000000000000000000000000000000000000000000000000000000000000000000000000000000000000000000000000000000000000000000000000000000000000000000000000000000000000000000000000000000000000000000000000000000000000000000000000000000000000000000000000000000000000000000000000000000000000000000000000000000000000000000000000000000000000000000000000000000000000000000000000000000000000000000000000000000000000000000000000000000000000000000000000000000000000000000000000000000000000000000000000000c0"
                    }
                ],
                "rlp": "0xf902a6f9023aa084ffe03b1c54d27a3f6dcc5f07525533aedbb0fc072a4d6025dbe1e91f050360a01dcc4de8dec75d7aab85b567b6ccd41ad312451b948a7413f0a142fd40d49347942adc25665018aa1fe0e6bc666dac8fc2697ff9baa0a29f15a9df66849ce098ea0e973899fb85f52729503c7a92f63e1ebad312a9faa0cc827a2424d059af9ead6942b8ceafaa259ec5d40418a8f22893f31df1441e22a00da14b349fd5e88efc05c9c7ddea75636443e2a08ffcbe2b6184929280cb1335b901000000000000000000000000000000000000000000000000000000000000000000000000000000000000000000000000000000000000000000000000000000000000000000000000000000000000000000000000000000000000000000000000000000000000000000000000000000000000000000000000000000000000000000000000000000000000000000000000000000000000000000000000000000000000000000000000000000000000000000000000000000000000000000000000000000000000000000000000000000000000000000000000000000000000000000000000000000000000000000000000000000000000000000000000000000000080018405f5e10082b5098203e800a000000000000000000000000000000000000000000000000000000000000200008800000000000000000aa056e81f171bcc55a6ff8345e692c0f86e5b48e01b996cadc001622fb5e363b4218080a00000000000000000000000000000000000000000000000000000000000000000f865f863800a839896809439c2fbd2d4e46fa75775649472ddb79e836160b0830186a08025a0efbfe14e096f1fc0b02adf54ee356ec0b46b40889c49574346223a4fd8c2c1ada01d679d81d5cabd746604c688c7a739102e3ebc95f9152b7e7e04930b83136685c0c0",
                "blocknumber": "1"
            }
        ],
        "sealEngine": "NoProof",
        "_info": {
            "hash": "0xaa45cbf59e164965955ba703bad880b951f87b80d267575d18414e392ac3e11d",
            "fixture-format": "blockchain_test",
            "comment": "`execution-specs` generated test",
            "filling-transition-tool": "2.19.0",
            "description": "Test_sec80.",
            "url": "https://github.com/ethereum/execution-specs/blob/tests-bal@v5.7.0/tests/ported_static/stPreCompiledContracts/test_sec80.py#L25",
            "metadata": {
                "opcode_count": {}
            }
        }
    }
}