{
    "tests/ported_static/stCallDelegateCodesHomestead/test_callcallcodecallcode_011.py::test_callcallcodecallcode_011[fork_Cancun-blockchain_test_from_state_test]": {
        "network": "Cancun",
        "genesisBlockHeader": {
            "parentHash": "0x0000000000000000000000000000000000000000000000000000000000000000",
            "uncleHash": "0x1dcc4de8dec75d7aab85b567b6ccd41ad312451b948a7413f0a142fd40d49347",
            "coinbase": "0x0000000000000000000000000000000000000000",
            "stateRoot": "0xabe92b13ad3108f262acf9f92d3365a31e7f0401483d96eee3a7a42708963aa3",
            "transactionsTrie": "0x56e81f171bcc55a6ff8345e692c0f86e5b48e01b996cadc001622fb5e363b421",
            "receiptTrie": "0x56e81f171bcc55a6ff8345e692c0f86e5b48e01b996cadc001622fb5e363b421",
            "bloom": "0x00000000000000000000000000000000000000000000000000000000000000000000000000000000000000000000000000000000000000000000000000000000000000000000000000000000000000000000000000000000000000000000000000000000000000000000000000000000000000000000000000000000000000000000000000000000000000000000000000000000000000000000000000000000000000000000000000000000000000000000000000000000000000000000000000000000000000000000000000000000000000000000000000000000000000000000000000000000000000000000000000000000000000000000000000000000",
            "difficulty": "0x00",
            "number": "0x00",
            "gasLimit": "0x01c9c380",
            "gasUsed": "0x00",
            "timestamp": "0x00",
            "extraData": "0x00",
            "mixHash": "0x0000000000000000000000000000000000000000000000000000000000000000",
            "nonce": "0x0000000000000000",
            "baseFeePerGas": "0x0b",
            "withdrawalsRoot": "0x56e81f171bcc55a6ff8345e692c0f86e5b48e01b996cadc001622fb5e363b421",
            "blobGasUsed": "0x00",
            "excessBlobGas": "0x00",
            "parentBeaconBlockRoot": "0x0000000000000000000000000000000000000000000000000000000000000000",
            "hash": "0x110563dd6c7a04927c14fc82a860a097247b0d9b76b4c3b9f7a32c49788afae1"
        },
        "pre": {
            "0x000f3df6d732807ef1319fb7b8bb8522d0beac02": {
                "nonce": "0x01",
                "balance": "0x00",
                "code": "0x3373fffffffffffffffffffffffffffffffffffffffe14604d57602036146024575f5ffd5b5f35801560495762001fff810690815414603c575f5ffd5b62001fff01545f5260205ff35b5f5ffd5b62001fff42064281555f359062001fff015500",
                "storage": {}
            },
            "0xeb09ff15547417853f6f4b240b8804769c37b0f1": {
                "nonce": "0x00",
                "balance": "0x0de0b6b3a7640000",
                "code": "0x6040600060406000600173fed08e44ae95ece264bc94a1fc45af8bc4ef4f1d62055730f160005500",
                "storage": {}
            },
            "0xfed08e44ae95ece264bc94a1fc45af8bc4ef4f1d": {
                "nonce": "0x00",
                "balance": "0x0de0b6b3a7640000",
                "code": "0x6040600060406000736f50426aa1bbb3cbd865847823f377d918757c07620493e0f460015500",
                "storage": {}
            },
            "0x6f50426aa1bbb3cbd865847823f377d918757c07": {
                "nonce": "0x00",
                "balance": "0x0de0b6b3a7640000",
                "code": "0x6040600060406000737e63847aad8ca50fb7c04777dce6871a6bf8de0c6203d090f460025500",
                "storage": {}
            },
            "0x7e63847aad8ca50fb7c04777dce6871a6bf8de0c": {
                "nonce": "0x00",
                "balance": "0x00",
                "code": "0x600160035533600455346007553061014a553261014c55366101505538610152553a6101545500",
                "storage": {}
            },
            "0xebaf50debf10e08302fe4280c32df010463ca297": {
                "nonce": "0x00",
                "balance": "0x0de0b6b3a7640000",
                "code": "0x",
                "storage": {}
            }
        },
        "postState": {
            "0x000f3df6d732807ef1319fb7b8bb8522d0beac02": {
                "nonce": "0x01",
                "balance": "0x00",
                "code": "0x3373fffffffffffffffffffffffffffffffffffffffe14604d57602036146024575f5ffd5b5f35801560495762001fff810690815414603c575f5ffd5b62001fff01545f5260205ff35b5f5ffd5b62001fff42064281555f359062001fff015500",
                "storage": {
                    "0x03e8": "0x03e8"
                }
            },
            "0xeb09ff15547417853f6f4b240b8804769c37b0f1": {
                "nonce": "0x00",
                "balance": "0x0de0b6b3a763ffff",
                "code": "0x6040600060406000600173fed08e44ae95ece264bc94a1fc45af8bc4ef4f1d62055730f160005500",
                "storage": {
                    "0x00": "0x01"
                }
            },
            "0xfed08e44ae95ece264bc94a1fc45af8bc4ef4f1d": {
                "nonce": "0x00",
                "balance": "0x0de0b6b3a7640001",
                "code": "0x6040600060406000736f50426aa1bbb3cbd865847823f377d918757c07620493e0f460015500",
                "storage": {
                    "0x03": "0x01",
                    "0x04": "0xeb09ff15547417853f6f4b240b8804769c37b0f1",
                    "0x07": "0x01",
                    "0x014a": "0xfed08e44ae95ece264bc94a1fc45af8bc4ef4f1d",
                    "0x014c": "0xebaf50debf10e08302fe4280c32df010463ca297",
                    "0x0150": "0x40",
                    "0x0152": "0x27",
                    "0x0154": "0x0a",
                    "0x02": "0x01",
                    "0x01": "0x01"
                }
            },
            "0x6f50426aa1bbb3cbd865847823f377d918757c07": {
                "nonce": "0x00",
                "balance": "0x0de0b6b3a7640000",
                "code": "0x6040600060406000737e63847aad8ca50fb7c04777dce6871a6bf8de0c6203d090f460025500",
                "storage": {}
            },
            "0x7e63847aad8ca50fb7c04777dce6871a6bf8de0c": {
                "nonce": "0x00",
                "balance": "0x00",
                "code": "0x600160035533600455346007553061014a553261014c55366101505538610152553a6101545500",
                "storage": {}
            },
            "0xebaf50debf10e08302fe4280c32df010463ca297": {
                "nonce": "0x01",
                "balance": "0x0de0b6b3a739784e",
                "code": "0x",
                "storage": {}
            }
        },
        "lastblockhash": "0x4e99bed3e270acdd4eb155dba568f5ac64bf7dc73e93d0316ac48808b32a55ac",
        "config": {
            "network": "Cancun",
            "chainid": "0x01",
            "blobSchedule": {
                "Cancun": {
                    "target": "0x03",
                    "max": "0x06",
                    "baseFeeUpdateFraction": "0x32f0ed"
                }
            }
        },
        "genesisRLP": "0xf9023cf90236a00000000000000000000000000000000000000000000000000000000000000000a01dcc4de8dec75d7aab85b567b6ccd41ad312451b948a7413f0a142fd40d49347940000000000000000000000000000000000000000a0abe92b13ad3108f262acf9f92d3365a31e7f0401483d96eee3a7a42708963aa3a056e81f171bcc55a6ff8345e692c0f86e5b48e01b996cadc001622fb5e363b421a056e81f171bcc55a6ff8345e692c0f86e5b48e01b996cadc001622fb5e363b421b901000000000000000000000000000000000000000000000000000000000000000000000000000000000000000000000000000000000000000000000000000000000000000000000000000000000000000000000000000000000000000000000000000000000000000000000000000000000000000000000000000000000000000000000000000000000000000000000000000000000000000000000000000000000000000000000000000000000000000000000000000000000000000000000000000000000000000000000000000000000000000000000000000000000000000000000000000000000000000000000000000000000000000000000000000000000080808401c9c380808000a000000000000000000000000000000000000000000000000000000000000000008800000000000000000ba056e81f171bcc55a6ff8345e692c0f86e5b48e01b996cadc001622fb5e363b4218080a00000000000000000000000000000000000000000000000000000000000000000c0c0c0",
        "blocks": [
            {
                "blockHeader": {
                    "parentHash": "0x110563dd6c7a04927c14fc82a860a097247b0d9b76b4c3b9f7a32c49788afae1",
                    "uncleHash": "0x1dcc4de8dec75d7aab85b567b6ccd41ad312451b948a7413f0a142fd40d49347",
                    "coinbase": "0x2adc25665018aa1fe0e6bc666dac8fc2697ff9ba",
                    "stateRoot": "0xe5e2d504d1aa5b9705834e26db6ba88868b14442b05c31b380c525e484e6c3c2",
                    "transactionsTrie": "0xaa91b9cdc01516e93dea9ab939178eab794b1ba12e87c9e402909468ffa38b48",
                    "receiptTrie": "0x49f1ea549903fc6ba945866edb76590389c592ba1ca554ce0e14326f98bdc0ba",
                    "bloom": "0x00000000000000000000000000000000000000000000000000000000000000000000000000000000000000000000000000000000000000000000000000000000000000000000000000000000000000000000000000000000000000000000000000000000000000000000000000000000000000000000000000000000000000000000000000000000000000000000000000000000000000000000000000000000000000000000000000000000000000000000000000000000000000000000000000000000000000000000000000000000000000000000000000000000000000000000000000000000000000000000000000000000000000000000000000000000",
                    "difficulty": "0x00",
                    "number": "0x01",
                    "gasLimit": "0x01c9c380",
                    "gasUsed": "0x0440c5",
                    "timestamp": "0x03e8",
                    "extraData": "0x00",
                    "mixHash": "0x0000000000000000000000000000000000000000000000000000000000020000",
                    "nonce": "0x0000000000000000",
                    "baseFeePerGas": "0x0a",
                    "withdrawalsRoot": "0x56e81f171bcc55a6ff8345e692c0f86e5b48e01b996cadc001622fb5e363b421",
                    "blobGasUsed": "0x00",
                    "excessBlobGas": "0x00",
                    "parentBeaconBlockRoot": "0x0000000000000000000000000000000000000000000000000000000000000000",
                    "hash": "0x4e99bed3e270acdd4eb155dba568f5ac64bf7dc73e93d0316ac48808b32a55ac"
                },
                "transactions": [
                    {
                        "type": "0x00",
                        "chainId": "0x01",
                        "nonce": "0x00",
                        "gasPrice": "0x0a",
                        "gasLimit": "0x2dc6c0",
                        "to": "0xeb09ff15547417853f6f4b240b8804769c37b0f1",
                        "value": "0x00",
                        "data": "0x",
                        "v": "0x26",
                        "r": "0xaf5f9be83f6859e660c732a55c3d0382b941e553a90a47309f764a5acf1583b1",
                        "s": "0x385fda1e2a3ec71a467ebb540f7a5c1df41f766beccf81cc85bc05241759add4",
                        "sender": "0xebaf50debf10e08302fe4280c32df010463ca297"
                    }
                ],
                "uncleHeaders": [],
                "withdrawals": [],
                "receipts": [
                    {
                        "transactionHash": "0xf5b5a1e51b45538cd705cef3f6cbf71c91c4c612c6cf40c1865b32f38e995399",
                        "type": "0x00",
                        "cumulativeGasUsed": "0x0440c5",
                        "bloom": "0x00000000000000000000000000000000000000000000000000000000000000000000000000000000000000000000000000000000000000000000000000000000000000000000000000000000000000000000000000000000000000000000000000000000000000000000000000000000000000000000000000000000000000000000000000000000000000000000000000000000000000000000000000000000000000000000000000000000000000000000000000000000000000000000000000000000000000000000000000000000000000000000000000000000000000000000000000000000000000000000000000000000000000000000000000000000",
                        "logs": [],
                        "status": true,
                        "rlp": "0xf9010901830440c5b9010000000000000000000000000000000000000000000000000000000000000000000000000000000000000000000000000000000000000000000000000000000000000000000000000000000000000000000000000000000000000000000000000000000000000000000000000000000000000000000000000000000000000000000000000000000000000000000000000000000000000000000000000000000000000000000000000000000000000000000000000000000000000000000000000000000000000000000000000000000000000000000000000000000000000000000000000000000000000000000000000000000000000000000000000000000000c0"
                    }
                ],
                "rlp": "0xf902a4f9023ba0110563dd6c7a04927c14fc82a860a097247b0d9b76b4c3b9f7a32c49788afae1a01dcc4de8dec75d7aab85b567b6ccd41ad312451b948a7413f0a142fd40d49347942adc25665018aa1fe0e6bc666dac8fc2697ff9baa0e5e2d504d1aa5b9705834e26db6ba88868b14442b05c31b380c525e484e6c3c2a0aa91b9cdc01516e93dea9ab939178eab794b1ba12e87c9e402909468ffa38b48a049f1ea549903fc6ba945866edb76590389c592ba1ca554ce0e14326f98bdc0bab901000000000000000000000000000000000000000000000000000000000000000000000000000000000000000000000000000000000000000000000000000000000000000000000000000000000000000000000000000000000000000000000000000000000000000000000000000000000000000000000000000000000000000000000000000000000000000000000000000000000000000000000000000000000000000000000000000000000000000000000000000000000000000000000000000000000000000000000000000000000000000000000000000000000000000000000000000000000000000000000000000000000000000000000000000000000080018401c9c380830440c58203e800a000000000000000000000000000000000000000000000000000000000000200008800000000000000000aa056e81f171bcc55a6ff8345e692c0f86e5b48e01b996cadc001622fb5e363b4218080a00000000000000000000000000000000000000000000000000000000000000000f862f860800a832dc6c094eb09ff15547417853f6f4b240b8804769c37b0f1808026a0af5f9be83f6859e660c732a55c3d0382b941e553a90a47309f764a5acf1583b1a0385fda1e2a3ec71a467ebb540f7a5c1df41f766beccf81cc85bc05241759add4c0c0",
                "blocknumber": "1"
            }
        ],
        "sealEngine": "NoProof",
        "_info": {
            "hash": "0x77b1821c9951826d4997177d4175ddbd4d73e3ac8c9ac3eed39b535f6c4eb1a5",
            "fixture-format": "blockchain_test",
            "comment": "`execution-specs` generated test",
            "filling-transition-tool": "2.19.0",
            "description": "Test_callcallcodecallcode_011.",
            "url": "https://github.com/ethereum/execution-specs/blob/tests-sn\u00f8bal-devnet-4@v1.0.0/tests/ported_static/stCallDelegateCodesHomestead/test_callcallcodecallcode_011.py#L25",
            "metadata": {
                "opcode_count": {}
            }
        }
    }
}