{
    "tests/frontier/validation/test_transaction.py::test_sender_balance[fork_Frontier-blockchain_test-balance_diff_-1-expected_exception_TransactionException.INSUFFICIENT_ACCOUNT_FUNDS]": {
        "network": "Frontier",
        "genesisBlockHeader": {
            "parentHash": "0x0000000000000000000000000000000000000000000000000000000000000000",
            "uncleHash": "0x1dcc4de8dec75d7aab85b567b6ccd41ad312451b948a7413f0a142fd40d49347",
            "coinbase": "0x0000000000000000000000000000000000000000",
            "stateRoot": "0x47c6c42217ba563dd958e9aaf49f3b2bdfb9ebebec0c28187bd5ad384b86e1c0",
            "transactionsTrie": "0x56e81f171bcc55a6ff8345e692c0f86e5b48e01b996cadc001622fb5e363b421",
            "receiptTrie": "0x56e81f171bcc55a6ff8345e692c0f86e5b48e01b996cadc001622fb5e363b421",
            "bloom": "0x00000000000000000000000000000000000000000000000000000000000000000000000000000000000000000000000000000000000000000000000000000000000000000000000000000000000000000000000000000000000000000000000000000000000000000000000000000000000000000000000000000000000000000000000000000000000000000000000000000000000000000000000000000000000000000000000000000000000000000000000000000000000000000000000000000000000000000000000000000000000000000000000000000000000000000000000000000000000000000000000000000000000000000000000000000000",
            "difficulty": "0x020000",
            "number": "0x00",
            "gasLimit": "0x07270e00",
            "gasUsed": "0x00",
            "timestamp": "0x00",
            "extraData": "0x00",
            "mixHash": "0x0000000000000000000000000000000000000000000000000000000000000000",
            "nonce": "0x0000000000000000",
            "hash": "0xdaf88dca86eefe13c60366156637c2aabb9a96d479c2f50fd81e56183c555eba"
        },
        "pre": {
            "0x1ad9bc24818784172ff393bb6f89f094d4d2ca29": {
                "nonce": "0x00",
                "balance": "0x3635c9adc5dea00000",
                "code": "0x",
                "storage": {}
            },
            "0xdd616a20f3b01fc95e6b1701d8a07331d06dd897": {
                "nonce": "0x00",
                "balance": "0x3635c9adc5dea00000",
                "code": "0x",
                "storage": {}
            },
            "0xa23334ac8e374e371a5adda8aa9d4e2f0c28709d": {
                "nonce": "0x00",
                "balance": "0x03344f",
                "code": "0x",
                "storage": {}
            }
        },
        "postState": {
            "0x1ad9bc24818784172ff393bb6f89f094d4d2ca29": {
                "nonce": "0x00",
                "balance": "0x3635c9adc5dea00000",
                "code": "0x",
                "storage": {}
            },
            "0xdd616a20f3b01fc95e6b1701d8a07331d06dd897": {
                "nonce": "0x00",
                "balance": "0x3635c9adc5dea00000",
                "code": "0x",
                "storage": {}
            },
            "0xa23334ac8e374e371a5adda8aa9d4e2f0c28709d": {
                "nonce": "0x00",
                "balance": "0x03344f",
                "code": "0x",
                "storage": {}
            }
        },
        "lastblockhash": "0xdaf88dca86eefe13c60366156637c2aabb9a96d479c2f50fd81e56183c555eba",
        "config": {
            "network": "Frontier",
            "chainid": "0x01"
        },
        "genesisRLP": "0xf901f9f901f4a00000000000000000000000000000000000000000000000000000000000000000a01dcc4de8dec75d7aab85b567b6ccd41ad312451b948a7413f0a142fd40d49347940000000000000000000000000000000000000000a047c6c42217ba563dd958e9aaf49f3b2bdfb9ebebec0c28187bd5ad384b86e1c0a056e81f171bcc55a6ff8345e692c0f86e5b48e01b996cadc001622fb5e363b421a056e81f171bcc55a6ff8345e692c0f86e5b48e01b996cadc001622fb5e363b421b901000000000000000000000000000000000000000000000000000000000000000000000000000000000000000000000000000000000000000000000000000000000000000000000000000000000000000000000000000000000000000000000000000000000000000000000000000000000000000000000000000000000000000000000000000000000000000000000000000000000000000000000000000000000000000000000000000000000000000000000000000000000000000000000000000000000000000000000000000000000000000000000000000000000000000000000000000000000000000000000000000000000000000000000000000000000083020000808407270e00808000a00000000000000000000000000000000000000000000000000000000000000000880000000000000000c0c0",
        "blocks": [
            {
                "rlp": "0xf9025af901f4a0daf88dca86eefe13c60366156637c2aabb9a96d479c2f50fd81e56183c555ebaa01dcc4de8dec75d7aab85b567b6ccd41ad312451b948a7413f0a142fd40d49347942adc25665018aa1fe0e6bc666dac8fc2697ff9baa07657c1d113e1c6882aa7ad1b98c89d12224781306683d225d99001957e4a9739a0c168aa42b8391a0ec1f30269c884bf73253b98b062f9ff8c9ea02ad286a57b8aa056e81f171bcc55a6ff8345e692c0f86e5b48e01b996cadc001622fb5e363b421b901000000000000000000000000000000000000000000000000000000000000000000000000000000000000000000000000000000000000000000000000000000000000000000000000000000000000000000000000000000000000000000000000000000000000000000000000000000000000000000000000000000000000000000000000000000000000000000000000000000000000000000000000000000000000000000000000000000000000000000000000000000000000000000000000000000000000000000000000000000000000000000000000000000000000000000000000000000000000000000000000000000000000000000000000000000000083020040018407270e00800c80a00000000000000000000000000000000000000000000000000000000000000000880000000000000000f860f85e800a82520894dd616a20f3b01fc95e6b1701d8a07331d06dd89780801ca033ac2143b7cf893444a75d5d8eda190512d9870ebf23e33dd3bdad32dcf324099f08c33596f8f6822052d1d46eb0bee62e06faf7968f900bc057a5dadcd79d3ac0",
                "expectException": "TransactionException.INSUFFICIENT_ACCOUNT_FUNDS",
                "rlp_decoded": {
                    "blockHeader": {
                        "parentHash": "0xdaf88dca86eefe13c60366156637c2aabb9a96d479c2f50fd81e56183c555eba",
                        "uncleHash": "0x1dcc4de8dec75d7aab85b567b6ccd41ad312451b948a7413f0a142fd40d49347",
                        "coinbase": "0x2adc25665018aa1fe0e6bc666dac8fc2697ff9ba",
                        "stateRoot": "0x7657c1d113e1c6882aa7ad1b98c89d12224781306683d225d99001957e4a9739",
                        "transactionsTrie": "0xc168aa42b8391a0ec1f30269c884bf73253b98b062f9ff8c9ea02ad286a57b8a",
                        "receiptTrie": "0x56e81f171bcc55a6ff8345e692c0f86e5b48e01b996cadc001622fb5e363b421",
                        "bloom": "0x00000000000000000000000000000000000000000000000000000000000000000000000000000000000000000000000000000000000000000000000000000000000000000000000000000000000000000000000000000000000000000000000000000000000000000000000000000000000000000000000000000000000000000000000000000000000000000000000000000000000000000000000000000000000000000000000000000000000000000000000000000000000000000000000000000000000000000000000000000000000000000000000000000000000000000000000000000000000000000000000000000000000000000000000000000000",
                        "difficulty": "0x020040",
                        "number": "0x01",
                        "gasLimit": "0x07270e00",
                        "gasUsed": "0x00",
                        "timestamp": "0x0c",
                        "extraData": "0x",
                        "mixHash": "0x0000000000000000000000000000000000000000000000000000000000000000",
                        "nonce": "0x0000000000000000",
                        "hash": "0x94dfad0a841fae847f379420292e31972457f24cbbf885747a35de8bdec92cee"
                    },
                    "transactions": [
                        {
                            "type": "0x00",
                            "chainId": "0x01",
                            "nonce": "0x00",
                            "gasPrice": "0x0a",
                            "gasLimit": "0x5208",
                            "to": "0xdd616a20f3b01fc95e6b1701d8a07331d06dd897",
                            "value": "0x00",
                            "data": "0x",
                            "v": "0x1c",
                            "r": "0x33ac2143b7cf893444a75d5d8eda190512d9870ebf23e33dd3bdad32dcf32409",
                            "s": "0x08c33596f8f6822052d1d46eb0bee62e06faf7968f900bc057a5dadcd79d3a",
                            "sender": "0xa23334ac8e374e371a5adda8aa9d4e2f0c28709d"
                        }
                    ],
                    "uncleHeaders": [],
                    "blocknumber": "1"
                }
            }
        ],
        "sealEngine": "NoProof",
        "_info": {
            "hash": "0x97e4d08e7e6ed865ae9321b66040be837abd27ae078b7adbc1135a6a6964df93",
            "fixture-format": "blockchain_test",
            "comment": "`execution-specs` generated test",
            "filling-transition-tool": "2.19.0",
            "description": "Tests that the sender has sufficient balance.",
            "url": "https://github.com/ethereum/execution-specs/blob/tests-bal@v5.6.0/tests/frontier/validation/test_transaction.py#L99",
            "metadata": {
                "opcode_count": {}
            }
        }
    },
    "tests/frontier/validation/test_transaction.py::test_sender_balance[fork_Frontier-blockchain_test-balance_diff_0-expected_exception_None]": {
        "network": "Frontier",
        "genesisBlockHeader": {
            "parentHash": "0x0000000000000000000000000000000000000000000000000000000000000000",
            "uncleHash": "0x1dcc4de8dec75d7aab85b567b6ccd41ad312451b948a7413f0a142fd40d49347",
            "coinbase": "0x0000000000000000000000000000000000000000",
            "stateRoot": "0xd1a86a3fa48ed837bd91d215e7569492d9203228e78b9d8cc6be4546fa5a019a",
            "transactionsTrie": "0x56e81f171bcc55a6ff8345e692c0f86e5b48e01b996cadc001622fb5e363b421",
            "receiptTrie": "0x56e81f171bcc55a6ff8345e692c0f86e5b48e01b996cadc001622fb5e363b421",
            "bloom": "0x00000000000000000000000000000000000000000000000000000000000000000000000000000000000000000000000000000000000000000000000000000000000000000000000000000000000000000000000000000000000000000000000000000000000000000000000000000000000000000000000000000000000000000000000000000000000000000000000000000000000000000000000000000000000000000000000000000000000000000000000000000000000000000000000000000000000000000000000000000000000000000000000000000000000000000000000000000000000000000000000000000000000000000000000000000000",
            "difficulty": "0x020000",
            "number": "0x00",
            "gasLimit": "0x07270e00",
            "gasUsed": "0x00",
            "timestamp": "0x00",
            "extraData": "0x00",
            "mixHash": "0x0000000000000000000000000000000000000000000000000000000000000000",
            "nonce": "0x0000000000000000",
            "hash": "0x02358c97eba4a9fd0b41b49e22291d5eaebba656e8f753f1a162d1a5bff8508b"
        },
        "pre": {
            "0x1ad9bc24818784172ff393bb6f89f094d4d2ca29": {
                "nonce": "0x00",
                "balance": "0x3635c9adc5dea00000",
                "code": "0x",
                "storage": {}
            },
            "0xdd616a20f3b01fc95e6b1701d8a07331d06dd897": {
                "nonce": "0x00",
                "balance": "0x3635c9adc5dea00000",
                "code": "0x",
                "storage": {}
            },
            "0x1501bbc18dde5cf42f17c994fb4558bc28828b8e": {
                "nonce": "0x00",
                "balance": "0x033450",
                "code": "0x",
                "storage": {}
            }
        },
        "postState": {
            "0x1ad9bc24818784172ff393bb6f89f094d4d2ca29": {
                "nonce": "0x00",
                "balance": "0x3635c9adc5dea00000",
                "code": "0x",
                "storage": {}
            },
            "0xdd616a20f3b01fc95e6b1701d8a07331d06dd897": {
                "nonce": "0x00",
                "balance": "0x3635c9adc5dea00000",
                "code": "0x",
                "storage": {}
            },
            "0x1501bbc18dde5cf42f17c994fb4558bc28828b8e": {
                "nonce": "0x01",
                "balance": "0x00",
                "code": "0x",
                "storage": {}
            },
            "0x2adc25665018aa1fe0e6bc666dac8fc2697ff9ba": {
                "nonce": "0x00",
                "balance": "0x4563918244f73450",
                "code": "0x",
                "storage": {}
            }
        },
        "lastblockhash": "0xcdb15fa011cadb2fde162c0f259b6d3cba277c33d7572d29b57eac13ff098a24",
        "config": {
            "network": "Frontier",
            "chainid": "0x01"
        },
        "genesisRLP": "0xf901f9f901f4a00000000000000000000000000000000000000000000000000000000000000000a01dcc4de8dec75d7aab85b567b6ccd41ad312451b948a7413f0a142fd40d49347940000000000000000000000000000000000000000a0d1a86a3fa48ed837bd91d215e7569492d9203228e78b9d8cc6be4546fa5a019aa056e81f171bcc55a6ff8345e692c0f86e5b48e01b996cadc001622fb5e363b421a056e81f171bcc55a6ff8345e692c0f86e5b48e01b996cadc001622fb5e363b421b901000000000000000000000000000000000000000000000000000000000000000000000000000000000000000000000000000000000000000000000000000000000000000000000000000000000000000000000000000000000000000000000000000000000000000000000000000000000000000000000000000000000000000000000000000000000000000000000000000000000000000000000000000000000000000000000000000000000000000000000000000000000000000000000000000000000000000000000000000000000000000000000000000000000000000000000000000000000000000000000000000000000000000000000000000000000083020000808407270e00808000a00000000000000000000000000000000000000000000000000000000000000000880000000000000000c0c0",
        "blocks": [
            {
                "blockHeader": {
                    "parentHash": "0x02358c97eba4a9fd0b41b49e22291d5eaebba656e8f753f1a162d1a5bff8508b",
                    "uncleHash": "0x1dcc4de8dec75d7aab85b567b6ccd41ad312451b948a7413f0a142fd40d49347",
                    "coinbase": "0x2adc25665018aa1fe0e6bc666dac8fc2697ff9ba",
                    "stateRoot": "0x9ba31bf12d59e39205ff9811e54f387e0a4670823c020472000cccb6b5ff7b73",
                    "transactionsTrie": "0x46980860c90932c6530f22e304a5a643bb20502e0534de5e2757879d1af055b5",
                    "receiptTrie": "0xf04c1e3ad897f5c35438d2b477aeeee7d1adac667282e95f86c6594498626b5a",
                    "bloom": "0x00000000000000000000000000000000000000000000000000000000000000000000000000000000000000000000000000000000000000000000000000000000000000000000000000000000000000000000000000000000000000000000000000000000000000000000000000000000000000000000000000000000000000000000000000000000000000000000000000000000000000000000000000000000000000000000000000000000000000000000000000000000000000000000000000000000000000000000000000000000000000000000000000000000000000000000000000000000000000000000000000000000000000000000000000000000",
                    "difficulty": "0x020040",
                    "number": "0x01",
                    "gasLimit": "0x07270e00",
                    "gasUsed": "0x5208",
                    "timestamp": "0x0c",
                    "extraData": "0x",
                    "mixHash": "0x0000000000000000000000000000000000000000000000000000000000000000",
                    "nonce": "0x0000000000000000",
                    "hash": "0xcdb15fa011cadb2fde162c0f259b6d3cba277c33d7572d29b57eac13ff098a24"
                },
                "transactions": [
                    {
                        "type": "0x00",
                        "chainId": "0x01",
                        "nonce": "0x00",
                        "gasPrice": "0x0a",
                        "gasLimit": "0x5208",
                        "to": "0xdd616a20f3b01fc95e6b1701d8a07331d06dd897",
                        "value": "0x00",
                        "data": "0x",
                        "v": "0x1c",
                        "r": "0x78e77cb47a3fb09fa735be7b275eb84d927d4edf2a996c4ef19403fa6786e597",
                        "s": "0x061e3643e068e2423ee0c36de933eb5ce48113527b4edaf62345d479be01e7a0",
                        "sender": "0x1501bbc18dde5cf42f17c994fb4558bc28828b8e"
                    }
                ],
                "uncleHeaders": [],
                "receipts": [
                    {
                        "transactionHash": "0x7cc753c8993c63e3978ccce8552e383d47f311210564d0a7de59c01774808d85",
                        "type": "0x00",
                        "cumulativeGasUsed": "0x5208",
                        "bloom": "0x00000000000000000000000000000000000000000000000000000000000000000000000000000000000000000000000000000000000000000000000000000000000000000000000000000000000000000000000000000000000000000000000000000000000000000000000000000000000000000000000000000000000000000000000000000000000000000000000000000000000000000000000000000000000000000000000000000000000000000000000000000000000000000000000000000000000000000000000000000000000000000000000000000000000000000000000000000000000000000000000000000000000000000000000000000000",
                        "logs": [],
                        "postState": "0x3ff019abe548749a9ae0cd98fcc1e2abc8d1a0a76ce3d5b72d740ac26f6d46d5",
                        "rlp": "0xf90128a03ff019abe548749a9ae0cd98fcc1e2abc8d1a0a76ce3d5b72d740ac26f6d46d5825208b9010000000000000000000000000000000000000000000000000000000000000000000000000000000000000000000000000000000000000000000000000000000000000000000000000000000000000000000000000000000000000000000000000000000000000000000000000000000000000000000000000000000000000000000000000000000000000000000000000000000000000000000000000000000000000000000000000000000000000000000000000000000000000000000000000000000000000000000000000000000000000000000000000000000000000000000000000000000000000000000000000000000000000000000000000000000000c0"
                    }
                ],
                "rlp": "0xf9025df901f6a002358c97eba4a9fd0b41b49e22291d5eaebba656e8f753f1a162d1a5bff8508ba01dcc4de8dec75d7aab85b567b6ccd41ad312451b948a7413f0a142fd40d49347942adc25665018aa1fe0e6bc666dac8fc2697ff9baa09ba31bf12d59e39205ff9811e54f387e0a4670823c020472000cccb6b5ff7b73a046980860c90932c6530f22e304a5a643bb20502e0534de5e2757879d1af055b5a0f04c1e3ad897f5c35438d2b477aeeee7d1adac667282e95f86c6594498626b5ab901000000000000000000000000000000000000000000000000000000000000000000000000000000000000000000000000000000000000000000000000000000000000000000000000000000000000000000000000000000000000000000000000000000000000000000000000000000000000000000000000000000000000000000000000000000000000000000000000000000000000000000000000000000000000000000000000000000000000000000000000000000000000000000000000000000000000000000000000000000000000000000000000000000000000000000000000000000000000000000000000000000000000000000000000000000000083020040018407270e008252080c80a00000000000000000000000000000000000000000000000000000000000000000880000000000000000f861f85f800a82520894dd616a20f3b01fc95e6b1701d8a07331d06dd89780801ca078e77cb47a3fb09fa735be7b275eb84d927d4edf2a996c4ef19403fa6786e597a0061e3643e068e2423ee0c36de933eb5ce48113527b4edaf62345d479be01e7a0c0",
                "blocknumber": "1"
            }
        ],
        "sealEngine": "NoProof",
        "_info": {
            "hash": "0x375feaf85cf2f0e95e30f297fa4ca4add21540526a52f85785325d3e36dd2f70",
            "fixture-format": "blockchain_test",
            "comment": "`execution-specs` generated test",
            "filling-transition-tool": "2.19.0",
            "description": "Tests that the sender has sufficient balance.",
            "url": "https://github.com/ethereum/execution-specs/blob/tests-bal@v5.6.0/tests/frontier/validation/test_transaction.py#L99",
            "metadata": {
                "opcode_count": {}
            }
        }
    },
    "tests/frontier/validation/test_transaction.py::test_sender_balance[fork_Frontier-blockchain_test-balance_diff_1-expected_exception_None]": {
        "network": "Frontier",
        "genesisBlockHeader": {
            "parentHash": "0x0000000000000000000000000000000000000000000000000000000000000000",
            "uncleHash": "0x1dcc4de8dec75d7aab85b567b6ccd41ad312451b948a7413f0a142fd40d49347",
            "coinbase": "0x0000000000000000000000000000000000000000",
            "stateRoot": "0xbf6b2bcd10fbf88e8e8c2ab65c0c7894e641c8be066f53fd5cbedc64f2919e86",
            "transactionsTrie": "0x56e81f171bcc55a6ff8345e692c0f86e5b48e01b996cadc001622fb5e363b421",
            "receiptTrie": "0x56e81f171bcc55a6ff8345e692c0f86e5b48e01b996cadc001622fb5e363b421",
            "bloom": "0x00000000000000000000000000000000000000000000000000000000000000000000000000000000000000000000000000000000000000000000000000000000000000000000000000000000000000000000000000000000000000000000000000000000000000000000000000000000000000000000000000000000000000000000000000000000000000000000000000000000000000000000000000000000000000000000000000000000000000000000000000000000000000000000000000000000000000000000000000000000000000000000000000000000000000000000000000000000000000000000000000000000000000000000000000000000",
            "difficulty": "0x020000",
            "number": "0x00",
            "gasLimit": "0x07270e00",
            "gasUsed": "0x00",
            "timestamp": "0x00",
            "extraData": "0x00",
            "mixHash": "0x0000000000000000000000000000000000000000000000000000000000000000",
            "nonce": "0x0000000000000000",
            "hash": "0x4e3d4af5c187542eb8d9de80481489b08659220b7dc4279f2d15cfff1654a46c"
        },
        "pre": {
            "0x1ad9bc24818784172ff393bb6f89f094d4d2ca29": {
                "nonce": "0x00",
                "balance": "0x3635c9adc5dea00000",
                "code": "0x",
                "storage": {}
            },
            "0xdd616a20f3b01fc95e6b1701d8a07331d06dd897": {
                "nonce": "0x00",
                "balance": "0x3635c9adc5dea00000",
                "code": "0x",
                "storage": {}
            },
            "0x943bfb7f6deb92b4cfcacc62bc4c4b675de1f4f7": {
                "nonce": "0x00",
                "balance": "0x033451",
                "code": "0x",
                "storage": {}
            }
        },
        "postState": {
            "0x1ad9bc24818784172ff393bb6f89f094d4d2ca29": {
                "nonce": "0x00",
                "balance": "0x3635c9adc5dea00000",
                "code": "0x",
                "storage": {}
            },
            "0xdd616a20f3b01fc95e6b1701d8a07331d06dd897": {
                "nonce": "0x00",
                "balance": "0x3635c9adc5dea00000",
                "code": "0x",
                "storage": {}
            },
            "0x943bfb7f6deb92b4cfcacc62bc4c4b675de1f4f7": {
                "nonce": "0x01",
                "balance": "0x01",
                "code": "0x",
                "storage": {}
            },
            "0x2adc25665018aa1fe0e6bc666dac8fc2697ff9ba": {
                "nonce": "0x00",
                "balance": "0x4563918244f73450",
                "code": "0x",
                "storage": {}
            }
        },
        "lastblockhash": "0x237e2a24ca5ffb669e0535ff8101e7ebf1d596e43663a2582d2dc760df8546a4",
        "config": {
            "network": "Frontier",
            "chainid": "0x01"
        },
        "genesisRLP": "0xf901f9f901f4a00000000000000000000000000000000000000000000000000000000000000000a01dcc4de8dec75d7aab85b567b6ccd41ad312451b948a7413f0a142fd40d49347940000000000000000000000000000000000000000a0bf6b2bcd10fbf88e8e8c2ab65c0c7894e641c8be066f53fd5cbedc64f2919e86a056e81f171bcc55a6ff8345e692c0f86e5b48e01b996cadc001622fb5e363b421a056e81f171bcc55a6ff8345e692c0f86e5b48e01b996cadc001622fb5e363b421b901000000000000000000000000000000000000000000000000000000000000000000000000000000000000000000000000000000000000000000000000000000000000000000000000000000000000000000000000000000000000000000000000000000000000000000000000000000000000000000000000000000000000000000000000000000000000000000000000000000000000000000000000000000000000000000000000000000000000000000000000000000000000000000000000000000000000000000000000000000000000000000000000000000000000000000000000000000000000000000000000000000000000000000000000000000000083020000808407270e00808000a00000000000000000000000000000000000000000000000000000000000000000880000000000000000c0c0",
        "blocks": [
            {
                "blockHeader": {
                    "parentHash": "0x4e3d4af5c187542eb8d9de80481489b08659220b7dc4279f2d15cfff1654a46c",
                    "uncleHash": "0x1dcc4de8dec75d7aab85b567b6ccd41ad312451b948a7413f0a142fd40d49347",
                    "coinbase": "0x2adc25665018aa1fe0e6bc666dac8fc2697ff9ba",
                    "stateRoot": "0x196b007c26c80f7af93f33da7942adb2378f59716ca846d2674ce6b536f91669",
                    "transactionsTrie": "0xa65fc7ef449f4c373bff5e981e82b9b8bad0f25bc7b812e58da32a7b07737529",
                    "receiptTrie": "0x08001676d04dcadff81e2bd0b411f03a48866f8eba31a614956ff59f5c766a91",
                    "bloom": "0x00000000000000000000000000000000000000000000000000000000000000000000000000000000000000000000000000000000000000000000000000000000000000000000000000000000000000000000000000000000000000000000000000000000000000000000000000000000000000000000000000000000000000000000000000000000000000000000000000000000000000000000000000000000000000000000000000000000000000000000000000000000000000000000000000000000000000000000000000000000000000000000000000000000000000000000000000000000000000000000000000000000000000000000000000000000",
                    "difficulty": "0x020040",
                    "number": "0x01",
                    "gasLimit": "0x07270e00",
                    "gasUsed": "0x5208",
                    "timestamp": "0x0c",
                    "extraData": "0x",
                    "mixHash": "0x0000000000000000000000000000000000000000000000000000000000000000",
                    "nonce": "0x0000000000000000",
                    "hash": "0x237e2a24ca5ffb669e0535ff8101e7ebf1d596e43663a2582d2dc760df8546a4"
                },
                "transactions": [
                    {
                        "type": "0x00",
                        "chainId": "0x01",
                        "nonce": "0x00",
                        "gasPrice": "0x0a",
                        "gasLimit": "0x5208",
                        "to": "0xdd616a20f3b01fc95e6b1701d8a07331d06dd897",
                        "value": "0x00",
                        "data": "0x",
                        "v": "0x1b",
                        "r": "0xfdb7c33cfd64e52221cddb67ad6e994669744d7d5ea350a11d38f2cb707e126d",
                        "s": "0x310efff97f725b29491bea947fd8342aad32b1f5079971f44ae282e92f3993c1",
                        "sender": "0x943bfb7f6deb92b4cfcacc62bc4c4b675de1f4f7"
                    }
                ],
                "uncleHeaders": [],
                "receipts": [
                    {
                        "transactionHash": "0x0522d453c5d082d704b67c523e7677241cd4a458d02c2530a8f49eb5ba880c1b",
                        "type": "0x00",
                        "cumulativeGasUsed": "0x5208",
                        "bloom": "0x00000000000000000000000000000000000000000000000000000000000000000000000000000000000000000000000000000000000000000000000000000000000000000000000000000000000000000000000000000000000000000000000000000000000000000000000000000000000000000000000000000000000000000000000000000000000000000000000000000000000000000000000000000000000000000000000000000000000000000000000000000000000000000000000000000000000000000000000000000000000000000000000000000000000000000000000000000000000000000000000000000000000000000000000000000000",
                        "logs": [],
                        "postState": "0xb86224a89c68baae5c4e7a83b65f492fc1300fe73701ba0086254885f727b621",
                        "rlp": "0xf90128a0b86224a89c68baae5c4e7a83b65f492fc1300fe73701ba0086254885f727b621825208b9010000000000000000000000000000000000000000000000000000000000000000000000000000000000000000000000000000000000000000000000000000000000000000000000000000000000000000000000000000000000000000000000000000000000000000000000000000000000000000000000000000000000000000000000000000000000000000000000000000000000000000000000000000000000000000000000000000000000000000000000000000000000000000000000000000000000000000000000000000000000000000000000000000000000000000000000000000000000000000000000000000000000000000000000000000000000c0"
                    }
                ],
                "rlp": "0xf9025df901f6a04e3d4af5c187542eb8d9de80481489b08659220b7dc4279f2d15cfff1654a46ca01dcc4de8dec75d7aab85b567b6ccd41ad312451b948a7413f0a142fd40d49347942adc25665018aa1fe0e6bc666dac8fc2697ff9baa0196b007c26c80f7af93f33da7942adb2378f59716ca846d2674ce6b536f91669a0a65fc7ef449f4c373bff5e981e82b9b8bad0f25bc7b812e58da32a7b07737529a008001676d04dcadff81e2bd0b411f03a48866f8eba31a614956ff59f5c766a91b901000000000000000000000000000000000000000000000000000000000000000000000000000000000000000000000000000000000000000000000000000000000000000000000000000000000000000000000000000000000000000000000000000000000000000000000000000000000000000000000000000000000000000000000000000000000000000000000000000000000000000000000000000000000000000000000000000000000000000000000000000000000000000000000000000000000000000000000000000000000000000000000000000000000000000000000000000000000000000000000000000000000000000000000000000000000083020040018407270e008252080c80a00000000000000000000000000000000000000000000000000000000000000000880000000000000000f861f85f800a82520894dd616a20f3b01fc95e6b1701d8a07331d06dd89780801ba0fdb7c33cfd64e52221cddb67ad6e994669744d7d5ea350a11d38f2cb707e126da0310efff97f725b29491bea947fd8342aad32b1f5079971f44ae282e92f3993c1c0",
                "blocknumber": "1"
            }
        ],
        "sealEngine": "NoProof",
        "_info": {
            "hash": "0xe5b7aa2b123ca4d2f2eaedb996f15243861f8b5952b164f235e845873211dd0d",
            "fixture-format": "blockchain_test",
            "comment": "`execution-specs` generated test",
            "filling-transition-tool": "2.19.0",
            "description": "Tests that the sender has sufficient balance.",
            "url": "https://github.com/ethereum/execution-specs/blob/tests-bal@v5.6.0/tests/frontier/validation/test_transaction.py#L99",
            "metadata": {
                "opcode_count": {}
            }
        }
    }
}