{
    "tests/istanbul/eip152_blake2/test_blake2_delegatecall.py::test_blake2_precompile_delegatecall[fork_London-blockchain_test_from_state_test]": {
        "network": "London",
        "genesisBlockHeader": {
            "parentHash": "0x0000000000000000000000000000000000000000000000000000000000000000",
            "uncleHash": "0x1dcc4de8dec75d7aab85b567b6ccd41ad312451b948a7413f0a142fd40d49347",
            "coinbase": "0x0000000000000000000000000000000000000000",
            "stateRoot": "0x04e57a30c4b3ec936eed6e594e9b42f4ca88caa6dfea2278772b24a95afd388a",
            "transactionsTrie": "0x56e81f171bcc55a6ff8345e692c0f86e5b48e01b996cadc001622fb5e363b421",
            "receiptTrie": "0x56e81f171bcc55a6ff8345e692c0f86e5b48e01b996cadc001622fb5e363b421",
            "bloom": "0x00000000000000000000000000000000000000000000000000000000000000000000000000000000000000000000000000000000000000000000000000000000000000000000000000000000000000000000000000000000000000000000000000000000000000000000000000000000000000000000000000000000000000000000000000000000000000000000000000000000000000000000000000000000000000000000000000000000000000000000000000000000000000000000000000000000000000000000000000000000000000000000000000000000000000000000000000000000000000000000000000000000000000000000000000000000",
            "difficulty": "0x020000",
            "number": "0x00",
            "gasLimit": "0x07270e00",
            "gasUsed": "0x00",
            "timestamp": "0x00",
            "extraData": "0x00",
            "mixHash": "0x0000000000000000000000000000000000000000000000000000000000000000",
            "nonce": "0x0000000000000000",
            "baseFeePerGas": "0x07",
            "hash": "0xacc3a2c35ffee206131549ff5fee3f3cab56c3e012f8e8367dde478fea3a04c4"
        },
        "pre": {
            "0x0ec7060f15cc118846b4d2bbd51c332a22a8e3af": {
                "nonce": "0x01",
                "balance": "0x00",
                "code": "0x600060006000600060096001f460005500",
                "storage": {
                    "0x00": "0xdeadbeef"
                }
            },
            "0x1ad9bc24818784172ff393bb6f89f094d4d2ca29": {
                "nonce": "0x00",
                "balance": "0x3635c9adc5dea00000",
                "code": "0x",
                "storage": {}
            }
        },
        "postState": {
            "0x0ec7060f15cc118846b4d2bbd51c332a22a8e3af": {
                "nonce": "0x01",
                "balance": "0x00",
                "code": "0x600060006000600060096001f460005500",
                "storage": {}
            },
            "0x1ad9bc24818784172ff393bb6f89f094d4d2ca29": {
                "nonce": "0x01",
                "balance": "0x3635c9adc5de9cbf1c",
                "code": "0x",
                "storage": {}
            },
            "0x2adc25665018aa1fe0e6bc666dac8fc2697ff9ba": {
                "nonce": "0x00",
                "balance": "0x1bc16d674ec8f9de",
                "code": "0x",
                "storage": {}
            }
        },
        "lastblockhash": "0x1780d0bab2bc2ece970975abea216b704963d199950f9cc6acedb5dd310a12ee",
        "config": {
            "network": "London",
            "chainid": "0x01"
        },
        "genesisRLP": "0xf901faf901f5a00000000000000000000000000000000000000000000000000000000000000000a01dcc4de8dec75d7aab85b567b6ccd41ad312451b948a7413f0a142fd40d49347940000000000000000000000000000000000000000a004e57a30c4b3ec936eed6e594e9b42f4ca88caa6dfea2278772b24a95afd388aa056e81f171bcc55a6ff8345e692c0f86e5b48e01b996cadc001622fb5e363b421a056e81f171bcc55a6ff8345e692c0f86e5b48e01b996cadc001622fb5e363b421b901000000000000000000000000000000000000000000000000000000000000000000000000000000000000000000000000000000000000000000000000000000000000000000000000000000000000000000000000000000000000000000000000000000000000000000000000000000000000000000000000000000000000000000000000000000000000000000000000000000000000000000000000000000000000000000000000000000000000000000000000000000000000000000000000000000000000000000000000000000000000000000000000000000000000000000000000000000000000000000000000000000000000000000000000000000000083020000808407270e00808000a0000000000000000000000000000000000000000000000000000000000000000088000000000000000007c0c0",
        "blocks": [
            {
                "blockHeader": {
                    "parentHash": "0xacc3a2c35ffee206131549ff5fee3f3cab56c3e012f8e8367dde478fea3a04c4",
                    "uncleHash": "0x1dcc4de8dec75d7aab85b567b6ccd41ad312451b948a7413f0a142fd40d49347",
                    "coinbase": "0x2adc25665018aa1fe0e6bc666dac8fc2697ff9ba",
                    "stateRoot": "0x23da3000d1b79a76467767b3a503cfda438354a1dc2dc3efa3ed0551742f6098",
                    "transactionsTrie": "0xf3d5e9d8add98e3a19a99aeeb40580c4eeb3aa45c93d3a85d924c119f4aac568",
                    "receiptTrie": "0x3063d63d41b92ec2d9f9c621517964a27c2f74b7b7eb05be7fdb147360a78bd8",
                    "bloom": "0x00000000000000000000000000000000000000000000000000000000000000000000000000000000000000000000000000000000000000000000000000000000000000000000000000000000000000000000000000000000000000000000000000000000000000000000000000000000000000000000000000000000000000000000000000000000000000000000000000000000000000000000000000000000000000000000000000000000000000000000000000000000000000000000000000000000000000000000000000000000000000000000000000000000000000000000000000000000000000000000000000000000000000000000000000000000",
                    "difficulty": "0x020000",
                    "number": "0x01",
                    "gasLimit": "0x07270e00",
                    "gasUsed": "0x534a",
                    "timestamp": "0x03e8",
                    "extraData": "0x00",
                    "mixHash": "0x0000000000000000000000000000000000000000000000000000000000000000",
                    "nonce": "0x0000000000000000",
                    "baseFeePerGas": "0x07",
                    "hash": "0x1780d0bab2bc2ece970975abea216b704963d199950f9cc6acedb5dd310a12ee"
                },
                "transactions": [
                    {
                        "type": "0x00",
                        "chainId": "0x01",
                        "nonce": "0x00",
                        "gasPrice": "0x0a",
                        "gasLimit": "0x015f90",
                        "to": "0x0ec7060f15cc118846b4d2bbd51c332a22a8e3af",
                        "value": "0x00",
                        "data": "0x",
                        "v": "0x26",
                        "r": "0xfbb3bf7cd2caf86a8443a68661ec9a493c78bf45e11bb579dff96e2612bb3bc4",
                        "s": "0x501e91c70b46d36bb8cc8bb2b49cb9c2a64a9a0587a4697358c8af400553754d",
                        "sender": "0x1ad9bc24818784172ff393bb6f89f094d4d2ca29"
                    }
                ],
                "uncleHeaders": [],
                "receipts": [
                    {
                        "transactionHash": "0xccc2e9eb15162c20816b72866e13db7e48317e08117bacdfa9d341c10b900445",
                        "type": "0x00",
                        "cumulativeGasUsed": "0x534a",
                        "bloom": "0x00000000000000000000000000000000000000000000000000000000000000000000000000000000000000000000000000000000000000000000000000000000000000000000000000000000000000000000000000000000000000000000000000000000000000000000000000000000000000000000000000000000000000000000000000000000000000000000000000000000000000000000000000000000000000000000000000000000000000000000000000000000000000000000000000000000000000000000000000000000000000000000000000000000000000000000000000000000000000000000000000000000000000000000000000000000",
                        "logs": [],
                        "status": true,
                        "rlp": "0xf901080182534ab9010000000000000000000000000000000000000000000000000000000000000000000000000000000000000000000000000000000000000000000000000000000000000000000000000000000000000000000000000000000000000000000000000000000000000000000000000000000000000000000000000000000000000000000000000000000000000000000000000000000000000000000000000000000000000000000000000000000000000000000000000000000000000000000000000000000000000000000000000000000000000000000000000000000000000000000000000000000000000000000000000000000000000000000000000000000000c0"
                    }
                ],
                "rlp": "0xf90261f901f9a0acc3a2c35ffee206131549ff5fee3f3cab56c3e012f8e8367dde478fea3a04c4a01dcc4de8dec75d7aab85b567b6ccd41ad312451b948a7413f0a142fd40d49347942adc25665018aa1fe0e6bc666dac8fc2697ff9baa023da3000d1b79a76467767b3a503cfda438354a1dc2dc3efa3ed0551742f6098a0f3d5e9d8add98e3a19a99aeeb40580c4eeb3aa45c93d3a85d924c119f4aac568a03063d63d41b92ec2d9f9c621517964a27c2f74b7b7eb05be7fdb147360a78bd8b901000000000000000000000000000000000000000000000000000000000000000000000000000000000000000000000000000000000000000000000000000000000000000000000000000000000000000000000000000000000000000000000000000000000000000000000000000000000000000000000000000000000000000000000000000000000000000000000000000000000000000000000000000000000000000000000000000000000000000000000000000000000000000000000000000000000000000000000000000000000000000000000000000000000000000000000000000000000000000000000000000000000000000000000000000000000083020000018407270e0082534a8203e800a0000000000000000000000000000000000000000000000000000000000000000088000000000000000007f862f860800a83015f90940ec7060f15cc118846b4d2bbd51c332a22a8e3af808026a0fbb3bf7cd2caf86a8443a68661ec9a493c78bf45e11bb579dff96e2612bb3bc4a0501e91c70b46d36bb8cc8bb2b49cb9c2a64a9a0587a4697358c8af400553754dc0",
                "blocknumber": "1"
            }
        ],
        "sealEngine": "NoProof",
        "_info": {
            "hash": "0xbabfcd16ab40439066fa433ce55553bfe4e25e7f03b8f5c29b0ff989be5f9aa3",
            "fixture-format": "blockchain_test",
            "comment": "`execution-specs` generated test",
            "filling-transition-tool": "2.19.0",
            "description": "Test delegatecall consumes specified gas for the Blake2B precompile when it\nexists.",
            "url": "https://github.com/ethereum/execution-specs/blob/tests-bal@v5.7.0/tests/istanbul/eip152_blake2/test_blake2_delegatecall.py#L23",
            "metadata": {
                "opcode_count": {}
            },
            "reference-spec": "https://github.com/ethereum/EIPs/blob/master/EIPS/eip-152.md",
            "reference-spec-version": "2762bfcff3e549ef263342e5239ef03ac2b07400"
        }
    }
}