{
    "tests/ported_static/stStaticCall/test_static_callcallcallcode_001_ooge.py::test_static_callcallcallcode_001_ooge[fork_Cancun-blockchain_test_from_state_test]": {
        "network": "Cancun",
        "genesisBlockHeader": {
            "parentHash": "0x0000000000000000000000000000000000000000000000000000000000000000",
            "uncleHash": "0x1dcc4de8dec75d7aab85b567b6ccd41ad312451b948a7413f0a142fd40d49347",
            "coinbase": "0x0000000000000000000000000000000000000000",
            "stateRoot": "0xea3f5e6e84bf77a8e56c685cf154a15e3e43d83af8d2ca0030659d57412638a9",
            "transactionsTrie": "0x56e81f171bcc55a6ff8345e692c0f86e5b48e01b996cadc001622fb5e363b421",
            "receiptTrie": "0x56e81f171bcc55a6ff8345e692c0f86e5b48e01b996cadc001622fb5e363b421",
            "bloom": "0x00000000000000000000000000000000000000000000000000000000000000000000000000000000000000000000000000000000000000000000000000000000000000000000000000000000000000000000000000000000000000000000000000000000000000000000000000000000000000000000000000000000000000000000000000000000000000000000000000000000000000000000000000000000000000000000000000000000000000000000000000000000000000000000000000000000000000000000000000000000000000000000000000000000000000000000000000000000000000000000000000000000000000000000000000000000",
            "difficulty": "0x00",
            "number": "0x00",
            "gasLimit": "0x01c9c380",
            "gasUsed": "0x00",
            "timestamp": "0x00",
            "extraData": "0x00",
            "mixHash": "0x0000000000000000000000000000000000000000000000000000000000000000",
            "nonce": "0x0000000000000000",
            "baseFeePerGas": "0x0b",
            "withdrawalsRoot": "0x56e81f171bcc55a6ff8345e692c0f86e5b48e01b996cadc001622fb5e363b421",
            "blobGasUsed": "0x00",
            "excessBlobGas": "0x00",
            "parentBeaconBlockRoot": "0x0000000000000000000000000000000000000000000000000000000000000000",
            "hash": "0x0b2f4bf76d589c67bee34c45b10d818386991ffbd02018e2d20abc2b55c301f9"
        },
        "pre": {
            "0x000f3df6d732807ef1319fb7b8bb8522d0beac02": {
                "nonce": "0x01",
                "balance": "0x00",
                "code": "0x3373fffffffffffffffffffffffffffffffffffffffe14604d57602036146024575f5ffd5b5f35801560495762001fff810690815414603c575f5ffd5b62001fff01545f5260205ff35b5f5ffd5b62001fff42064281555f359062001fff015500",
                "storage": {}
            },
            "0x563f06d1277f7cb092689ac2168d6eecd1acb499": {
                "nonce": "0x00",
                "balance": "0x0de0b6b3a7640000",
                "code": "0x6040600060406000736f80b859ba9392b2c26e5930c330d4a7247fba4f620927c0fa600055600160035200",
                "storage": {}
            },
            "0x6f80b859ba9392b2c26e5930c330d4a7247fba4f": {
                "nonce": "0x00",
                "balance": "0x00",
                "code": "0x6001600352604060006040600073a3e14608664e4a0229f96c49500f83f0fdbf3dcb620493e0fa50600160035200",
                "storage": {}
            },
            "0xa3e14608664e4a0229f96c49500f83f0fdbf3dcb": {
                "nonce": "0x00",
                "balance": "0x00",
                "code": "0x6001600352604060006040600073e574f7ec5305be91332b5b8b12deb8966e05f42d6201d4d4f450600160035200",
                "storage": {}
            },
            "0xe574f7ec5305be91332b5b8b12deb8966e05f42d": {
                "nonce": "0x00",
                "balance": "0x00",
                "code": "0x5b61c3506080511015601c5760013b506001608051016080526000565b00",
                "storage": {}
            },
            "0xebaf50debf10e08302fe4280c32df010463ca297": {
                "nonce": "0x00",
                "balance": "0x0de0b6b3a7640000",
                "code": "0x",
                "storage": {}
            }
        },
        "postState": {
            "0x000f3df6d732807ef1319fb7b8bb8522d0beac02": {
                "nonce": "0x01",
                "balance": "0x00",
                "code": "0x3373fffffffffffffffffffffffffffffffffffffffe14604d57602036146024575f5ffd5b5f35801560495762001fff810690815414603c575f5ffd5b62001fff01545f5260205ff35b5f5ffd5b62001fff42064281555f359062001fff015500",
                "storage": {
                    "0x03e8": "0x03e8"
                }
            },
            "0x563f06d1277f7cb092689ac2168d6eecd1acb499": {
                "nonce": "0x00",
                "balance": "0x0de0b6b3a7640000",
                "code": "0x6040600060406000736f80b859ba9392b2c26e5930c330d4a7247fba4f620927c0fa600055600160035200",
                "storage": {
                    "0x00": "0x01"
                }
            },
            "0x6f80b859ba9392b2c26e5930c330d4a7247fba4f": {
                "nonce": "0x00",
                "balance": "0x00",
                "code": "0x6001600352604060006040600073a3e14608664e4a0229f96c49500f83f0fdbf3dcb620493e0fa50600160035200",
                "storage": {}
            },
            "0xa3e14608664e4a0229f96c49500f83f0fdbf3dcb": {
                "nonce": "0x00",
                "balance": "0x00",
                "code": "0x6001600352604060006040600073e574f7ec5305be91332b5b8b12deb8966e05f42d6201d4d4f450600160035200",
                "storage": {}
            },
            "0xe574f7ec5305be91332b5b8b12deb8966e05f42d": {
                "nonce": "0x00",
                "balance": "0x00",
                "code": "0x5b61c3506080511015601c5760013b506001608051016080526000565b00",
                "storage": {}
            },
            "0xebaf50debf10e08302fe4280c32df010463ca297": {
                "nonce": "0x01",
                "balance": "0x0de0b6b3a749e698",
                "code": "0x",
                "storage": {}
            }
        },
        "lastblockhash": "0x46d05d6e19e28671491d74288c3a3071a73f3a95045160a249a42a11d3a2be37",
        "config": {
            "network": "Cancun",
            "chainid": "0x01",
            "blobSchedule": {
                "Cancun": {
                    "target": "0x03",
                    "max": "0x06",
                    "baseFeeUpdateFraction": "0x32f0ed"
                }
            }
        },
        "genesisRLP": "0xf9023cf90236a00000000000000000000000000000000000000000000000000000000000000000a01dcc4de8dec75d7aab85b567b6ccd41ad312451b948a7413f0a142fd40d49347940000000000000000000000000000000000000000a0ea3f5e6e84bf77a8e56c685cf154a15e3e43d83af8d2ca0030659d57412638a9a056e81f171bcc55a6ff8345e692c0f86e5b48e01b996cadc001622fb5e363b421a056e81f171bcc55a6ff8345e692c0f86e5b48e01b996cadc001622fb5e363b421b901000000000000000000000000000000000000000000000000000000000000000000000000000000000000000000000000000000000000000000000000000000000000000000000000000000000000000000000000000000000000000000000000000000000000000000000000000000000000000000000000000000000000000000000000000000000000000000000000000000000000000000000000000000000000000000000000000000000000000000000000000000000000000000000000000000000000000000000000000000000000000000000000000000000000000000000000000000000000000000000000000000000000000000000000000000000080808401c9c380808000a000000000000000000000000000000000000000000000000000000000000000008800000000000000000ba056e81f171bcc55a6ff8345e692c0f86e5b48e01b996cadc001622fb5e363b4218080a00000000000000000000000000000000000000000000000000000000000000000c0c0c0",
        "blocks": [
            {
                "blockHeader": {
                    "parentHash": "0x0b2f4bf76d589c67bee34c45b10d818386991ffbd02018e2d20abc2b55c301f9",
                    "uncleHash": "0x1dcc4de8dec75d7aab85b567b6ccd41ad312451b948a7413f0a142fd40d49347",
                    "coinbase": "0x2adc25665018aa1fe0e6bc666dac8fc2697ff9ba",
                    "stateRoot": "0xae5a5bdde6cc628374e392aa60aab7b06ade916f31b91d53a9dcc6b8d50aa0fb",
                    "transactionsTrie": "0xd0ef48434944275de35ca2d921829fc542131ced2f940f82b036bece203f2620",
                    "receiptTrie": "0x77c171b606b2ed290663a1cabe7211d8b79bc3e171687f2705895cea5e318513",
                    "bloom": "0x00000000000000000000000000000000000000000000000000000000000000000000000000000000000000000000000000000000000000000000000000000000000000000000000000000000000000000000000000000000000000000000000000000000000000000000000000000000000000000000000000000000000000000000000000000000000000000000000000000000000000000000000000000000000000000000000000000000000000000000000000000000000000000000000000000000000000000000000000000000000000000000000000000000000000000000000000000000000000000000000000000000000000000000000000000000",
                    "difficulty": "0x00",
                    "number": "0x01",
                    "gasLimit": "0x01c9c380",
                    "gasUsed": "0x029c24",
                    "timestamp": "0x03e8",
                    "extraData": "0x00",
                    "mixHash": "0x0000000000000000000000000000000000000000000000000000000000020000",
                    "nonce": "0x0000000000000000",
                    "baseFeePerGas": "0x0a",
                    "withdrawalsRoot": "0x56e81f171bcc55a6ff8345e692c0f86e5b48e01b996cadc001622fb5e363b421",
                    "blobGasUsed": "0x00",
                    "excessBlobGas": "0x00",
                    "parentBeaconBlockRoot": "0x0000000000000000000000000000000000000000000000000000000000000000",
                    "hash": "0x46d05d6e19e28671491d74288c3a3071a73f3a95045160a249a42a11d3a2be37"
                },
                "transactions": [
                    {
                        "type": "0x00",
                        "chainId": "0x01",
                        "nonce": "0x00",
                        "gasPrice": "0x0a",
                        "gasLimit": "0x1a3ec0",
                        "to": "0x563f06d1277f7cb092689ac2168d6eecd1acb499",
                        "value": "0x00",
                        "data": "0x",
                        "v": "0x25",
                        "r": "0xeb73cc5cdc3318ea4324bca658a9c8c144d441ac7acb84a742518009831e9417",
                        "s": "0x0e393d4af8d783db97967f0ea5487a23af94ade233a506a284933d018d15551c",
                        "sender": "0xebaf50debf10e08302fe4280c32df010463ca297"
                    }
                ],
                "uncleHeaders": [],
                "withdrawals": [],
                "receipts": [
                    {
                        "transactionHash": "0xc917f41f8abb45e5f01f795b72a8e65e4564484fcd7927fc8ba1c6644bb9c063",
                        "type": "0x00",
                        "cumulativeGasUsed": "0x029c24",
                        "bloom": "0x00000000000000000000000000000000000000000000000000000000000000000000000000000000000000000000000000000000000000000000000000000000000000000000000000000000000000000000000000000000000000000000000000000000000000000000000000000000000000000000000000000000000000000000000000000000000000000000000000000000000000000000000000000000000000000000000000000000000000000000000000000000000000000000000000000000000000000000000000000000000000000000000000000000000000000000000000000000000000000000000000000000000000000000000000000000",
                        "logs": [],
                        "status": true,
                        "rlp": "0xf901090183029c24b9010000000000000000000000000000000000000000000000000000000000000000000000000000000000000000000000000000000000000000000000000000000000000000000000000000000000000000000000000000000000000000000000000000000000000000000000000000000000000000000000000000000000000000000000000000000000000000000000000000000000000000000000000000000000000000000000000000000000000000000000000000000000000000000000000000000000000000000000000000000000000000000000000000000000000000000000000000000000000000000000000000000000000000000000000000000000c0"
                    }
                ],
                "rlp": "0xf902a4f9023ba00b2f4bf76d589c67bee34c45b10d818386991ffbd02018e2d20abc2b55c301f9a01dcc4de8dec75d7aab85b567b6ccd41ad312451b948a7413f0a142fd40d49347942adc25665018aa1fe0e6bc666dac8fc2697ff9baa0ae5a5bdde6cc628374e392aa60aab7b06ade916f31b91d53a9dcc6b8d50aa0fba0d0ef48434944275de35ca2d921829fc542131ced2f940f82b036bece203f2620a077c171b606b2ed290663a1cabe7211d8b79bc3e171687f2705895cea5e318513b901000000000000000000000000000000000000000000000000000000000000000000000000000000000000000000000000000000000000000000000000000000000000000000000000000000000000000000000000000000000000000000000000000000000000000000000000000000000000000000000000000000000000000000000000000000000000000000000000000000000000000000000000000000000000000000000000000000000000000000000000000000000000000000000000000000000000000000000000000000000000000000000000000000000000000000000000000000000000000000000000000000000000000000000000000000000080018401c9c38083029c248203e800a000000000000000000000000000000000000000000000000000000000000200008800000000000000000aa056e81f171bcc55a6ff8345e692c0f86e5b48e01b996cadc001622fb5e363b4218080a00000000000000000000000000000000000000000000000000000000000000000f862f860800a831a3ec094563f06d1277f7cb092689ac2168d6eecd1acb499808025a0eb73cc5cdc3318ea4324bca658a9c8c144d441ac7acb84a742518009831e9417a00e393d4af8d783db97967f0ea5487a23af94ade233a506a284933d018d15551cc0c0",
                "blocknumber": "1"
            }
        ],
        "sealEngine": "NoProof",
        "_info": {
            "hash": "0x80180a47f12799c130c50763a5bf0a671bb5bb81bf648da17163e31924664535",
            "fixture-format": "blockchain_test",
            "comment": "`execution-specs` generated test",
            "filling-transition-tool": "2.19.0",
            "description": "Test_static_callcallcallcode_001_ooge.",
            "url": "https://github.com/ethereum/execution-specs/blob/tests-bal@v5.6.0/tests/ported_static/stStaticCall/test_static_callcallcallcode_001_ooge.py#L25",
            "metadata": {
                "opcode_count": {}
            }
        }
    }
}