{
    "tests/ported_static/stStaticCall/test_static_callcallcallcode_001_ooge.py::test_static_callcallcallcode_001_ooge[fork_Cancun-blockchain_test_from_state_test]": {
        "network": "Cancun",
        "genesisBlockHeader": {
            "parentHash": "0x0000000000000000000000000000000000000000000000000000000000000000",
            "uncleHash": "0x1dcc4de8dec75d7aab85b567b6ccd41ad312451b948a7413f0a142fd40d49347",
            "coinbase": "0x0000000000000000000000000000000000000000",
            "stateRoot": "0x99cf3d06e8042eccd32db4bffc5af2a2395fd33e29739e6e7a6b949804dfd3a2",
            "transactionsTrie": "0x56e81f171bcc55a6ff8345e692c0f86e5b48e01b996cadc001622fb5e363b421",
            "receiptTrie": "0x56e81f171bcc55a6ff8345e692c0f86e5b48e01b996cadc001622fb5e363b421",
            "bloom": "0x00000000000000000000000000000000000000000000000000000000000000000000000000000000000000000000000000000000000000000000000000000000000000000000000000000000000000000000000000000000000000000000000000000000000000000000000000000000000000000000000000000000000000000000000000000000000000000000000000000000000000000000000000000000000000000000000000000000000000000000000000000000000000000000000000000000000000000000000000000000000000000000000000000000000000000000000000000000000000000000000000000000000000000000000000000000",
            "difficulty": "0x00",
            "number": "0x00",
            "gasLimit": "0x01c9c380",
            "gasUsed": "0x00",
            "timestamp": "0x00",
            "extraData": "0x00",
            "mixHash": "0x0000000000000000000000000000000000000000000000000000000000000000",
            "nonce": "0x0000000000000000",
            "baseFeePerGas": "0x0b",
            "withdrawalsRoot": "0x56e81f171bcc55a6ff8345e692c0f86e5b48e01b996cadc001622fb5e363b421",
            "blobGasUsed": "0x00",
            "excessBlobGas": "0x00",
            "parentBeaconBlockRoot": "0x0000000000000000000000000000000000000000000000000000000000000000",
            "hash": "0xb719bb41b19e792c9597f9e20e6d0eaaa388801d6f44b8e4a02c0e67ac8f30eb"
        },
        "pre": {
            "0x000f3df6d732807ef1319fb7b8bb8522d0beac02": {
                "nonce": "0x01",
                "balance": "0x00",
                "code": "0x3373fffffffffffffffffffffffffffffffffffffffe14604d57602036146024575f5ffd5b5f35801560495762001fff810690815414603c575f5ffd5b62001fff01545f5260205ff35b5f5ffd5b62001fff42064281555f359062001fff015500",
                "storage": {}
            },
            "0xd66f224cbd2fabb21b17bb53c56118f32f62ebd6": {
                "nonce": "0x00",
                "balance": "0x0de0b6b3a7640000",
                "code": "0x",
                "storage": {}
            },
            "0x34c01313df54b749dcf78aaf1e35e1c49f2369d0": {
                "nonce": "0x00",
                "balance": "0x00",
                "code": "0x5b61c3506080511015601c5760013b506001608051016080526000565b00",
                "storage": {}
            },
            "0x131d184f1a5921d4a1940c81653a0168f3303d4a": {
                "nonce": "0x00",
                "balance": "0x00",
                "code": "0x600160035260406000604060007334c01313df54b749dcf78aaf1e35e1c49f2369d06201d4d4f450600160035200",
                "storage": {}
            },
            "0x4961092b9813a6b1110db78dcfcca16e3ef3e3b8": {
                "nonce": "0x00",
                "balance": "0x00",
                "code": "0x6001600352604060006040600073131d184f1a5921d4a1940c81653a0168f3303d4a620493e0fa50600160035200",
                "storage": {}
            },
            "0x27e80c895f8713b850d2320a962653ef72fa062b": {
                "nonce": "0x00",
                "balance": "0x0de0b6b3a7640000",
                "code": "0x6040600060406000734961092b9813a6b1110db78dcfcca16e3ef3e3b8620927c0fa600055600160035200",
                "storage": {}
            }
        },
        "postState": {
            "0x000f3df6d732807ef1319fb7b8bb8522d0beac02": {
                "nonce": "0x01",
                "balance": "0x00",
                "code": "0x3373fffffffffffffffffffffffffffffffffffffffe14604d57602036146024575f5ffd5b5f35801560495762001fff810690815414603c575f5ffd5b62001fff01545f5260205ff35b5f5ffd5b62001fff42064281555f359062001fff015500",
                "storage": {
                    "0x03e8": "0x03e8"
                }
            },
            "0xd66f224cbd2fabb21b17bb53c56118f32f62ebd6": {
                "nonce": "0x01",
                "balance": "0x0de0b6b3a749e698",
                "code": "0x",
                "storage": {}
            },
            "0x34c01313df54b749dcf78aaf1e35e1c49f2369d0": {
                "nonce": "0x00",
                "balance": "0x00",
                "code": "0x5b61c3506080511015601c5760013b506001608051016080526000565b00",
                "storage": {}
            },
            "0x131d184f1a5921d4a1940c81653a0168f3303d4a": {
                "nonce": "0x00",
                "balance": "0x00",
                "code": "0x600160035260406000604060007334c01313df54b749dcf78aaf1e35e1c49f2369d06201d4d4f450600160035200",
                "storage": {}
            },
            "0x4961092b9813a6b1110db78dcfcca16e3ef3e3b8": {
                "nonce": "0x00",
                "balance": "0x00",
                "code": "0x6001600352604060006040600073131d184f1a5921d4a1940c81653a0168f3303d4a620493e0fa50600160035200",
                "storage": {}
            },
            "0x27e80c895f8713b850d2320a962653ef72fa062b": {
                "nonce": "0x00",
                "balance": "0x0de0b6b3a7640000",
                "code": "0x6040600060406000734961092b9813a6b1110db78dcfcca16e3ef3e3b8620927c0fa600055600160035200",
                "storage": {
                    "0x00": "0x01"
                }
            }
        },
        "lastblockhash": "0x3a723d8c05193904caf37277e69d9c4060ebc6e30c7ec60be80df73e6d120378",
        "config": {
            "network": "Cancun",
            "chainid": "0x01",
            "blobSchedule": {
                "Cancun": {
                    "target": "0x03",
                    "max": "0x06",
                    "baseFeeUpdateFraction": "0x32f0ed"
                }
            }
        },
        "genesisRLP": "0xf9023cf90236a00000000000000000000000000000000000000000000000000000000000000000a01dcc4de8dec75d7aab85b567b6ccd41ad312451b948a7413f0a142fd40d49347940000000000000000000000000000000000000000a099cf3d06e8042eccd32db4bffc5af2a2395fd33e29739e6e7a6b949804dfd3a2a056e81f171bcc55a6ff8345e692c0f86e5b48e01b996cadc001622fb5e363b421a056e81f171bcc55a6ff8345e692c0f86e5b48e01b996cadc001622fb5e363b421b901000000000000000000000000000000000000000000000000000000000000000000000000000000000000000000000000000000000000000000000000000000000000000000000000000000000000000000000000000000000000000000000000000000000000000000000000000000000000000000000000000000000000000000000000000000000000000000000000000000000000000000000000000000000000000000000000000000000000000000000000000000000000000000000000000000000000000000000000000000000000000000000000000000000000000000000000000000000000000000000000000000000000000000000000000000000080808401c9c380808000a000000000000000000000000000000000000000000000000000000000000000008800000000000000000ba056e81f171bcc55a6ff8345e692c0f86e5b48e01b996cadc001622fb5e363b4218080a00000000000000000000000000000000000000000000000000000000000000000c0c0c0",
        "blocks": [
            {
                "blockHeader": {
                    "parentHash": "0xb719bb41b19e792c9597f9e20e6d0eaaa388801d6f44b8e4a02c0e67ac8f30eb",
                    "uncleHash": "0x1dcc4de8dec75d7aab85b567b6ccd41ad312451b948a7413f0a142fd40d49347",
                    "coinbase": "0x2adc25665018aa1fe0e6bc666dac8fc2697ff9ba",
                    "stateRoot": "0x97362006b1a34fc0f1cc30c09e70d2d74068adbe924f4031501fcdd7bb00b7a0",
                    "transactionsTrie": "0xa6d986d6936190be617e82a41c470b3f52084b5f26e2e21e09f07b4dc58dbc56",
                    "receiptTrie": "0x77c171b606b2ed290663a1cabe7211d8b79bc3e171687f2705895cea5e318513",
                    "bloom": "0x00000000000000000000000000000000000000000000000000000000000000000000000000000000000000000000000000000000000000000000000000000000000000000000000000000000000000000000000000000000000000000000000000000000000000000000000000000000000000000000000000000000000000000000000000000000000000000000000000000000000000000000000000000000000000000000000000000000000000000000000000000000000000000000000000000000000000000000000000000000000000000000000000000000000000000000000000000000000000000000000000000000000000000000000000000000",
                    "difficulty": "0x00",
                    "number": "0x01",
                    "gasLimit": "0x01c9c380",
                    "gasUsed": "0x029c24",
                    "timestamp": "0x03e8",
                    "extraData": "0x00",
                    "mixHash": "0x0000000000000000000000000000000000000000000000000000000000020000",
                    "nonce": "0x0000000000000000",
                    "baseFeePerGas": "0x0a",
                    "withdrawalsRoot": "0x56e81f171bcc55a6ff8345e692c0f86e5b48e01b996cadc001622fb5e363b421",
                    "blobGasUsed": "0x00",
                    "excessBlobGas": "0x00",
                    "parentBeaconBlockRoot": "0x0000000000000000000000000000000000000000000000000000000000000000",
                    "hash": "0x3a723d8c05193904caf37277e69d9c4060ebc6e30c7ec60be80df73e6d120378"
                },
                "transactions": [
                    {
                        "type": "0x00",
                        "chainId": "0x01",
                        "nonce": "0x00",
                        "gasPrice": "0x0a",
                        "gasLimit": "0x1a3ec0",
                        "to": "0x27e80c895f8713b850d2320a962653ef72fa062b",
                        "value": "0x00",
                        "data": "0x",
                        "v": "0x25",
                        "r": "0xaf0b539f8aecc744eaf25e3b7e8054b3d305000225affd1b0704c05acc2bdfaf",
                        "s": "0x2b0376bd00f515d4509a401e035587e9c2c6ef56c674f4c1f9d606072518e96d",
                        "sender": "0xd66f224cbd2fabb21b17bb53c56118f32f62ebd6"
                    }
                ],
                "uncleHeaders": [],
                "withdrawals": [],
                "receipts": [
                    {
                        "transactionHash": "0x826b00c12e4a20eaee0c3bb081be9de83c4da51717b6c0fb30027c43f76bedcd",
                        "type": "0x00",
                        "cumulativeGasUsed": "0x029c24",
                        "bloom": "0x00000000000000000000000000000000000000000000000000000000000000000000000000000000000000000000000000000000000000000000000000000000000000000000000000000000000000000000000000000000000000000000000000000000000000000000000000000000000000000000000000000000000000000000000000000000000000000000000000000000000000000000000000000000000000000000000000000000000000000000000000000000000000000000000000000000000000000000000000000000000000000000000000000000000000000000000000000000000000000000000000000000000000000000000000000000",
                        "logs": [],
                        "status": true,
                        "rlp": "0xf901090183029c24b9010000000000000000000000000000000000000000000000000000000000000000000000000000000000000000000000000000000000000000000000000000000000000000000000000000000000000000000000000000000000000000000000000000000000000000000000000000000000000000000000000000000000000000000000000000000000000000000000000000000000000000000000000000000000000000000000000000000000000000000000000000000000000000000000000000000000000000000000000000000000000000000000000000000000000000000000000000000000000000000000000000000000000000000000000000000000c0"
                    }
                ],
                "rlp": "0xf902a4f9023ba0b719bb41b19e792c9597f9e20e6d0eaaa388801d6f44b8e4a02c0e67ac8f30eba01dcc4de8dec75d7aab85b567b6ccd41ad312451b948a7413f0a142fd40d49347942adc25665018aa1fe0e6bc666dac8fc2697ff9baa097362006b1a34fc0f1cc30c09e70d2d74068adbe924f4031501fcdd7bb00b7a0a0a6d986d6936190be617e82a41c470b3f52084b5f26e2e21e09f07b4dc58dbc56a077c171b606b2ed290663a1cabe7211d8b79bc3e171687f2705895cea5e318513b901000000000000000000000000000000000000000000000000000000000000000000000000000000000000000000000000000000000000000000000000000000000000000000000000000000000000000000000000000000000000000000000000000000000000000000000000000000000000000000000000000000000000000000000000000000000000000000000000000000000000000000000000000000000000000000000000000000000000000000000000000000000000000000000000000000000000000000000000000000000000000000000000000000000000000000000000000000000000000000000000000000000000000000000000000000000080018401c9c38083029c248203e800a000000000000000000000000000000000000000000000000000000000000200008800000000000000000aa056e81f171bcc55a6ff8345e692c0f86e5b48e01b996cadc001622fb5e363b4218080a00000000000000000000000000000000000000000000000000000000000000000f862f860800a831a3ec09427e80c895f8713b850d2320a962653ef72fa062b808025a0af0b539f8aecc744eaf25e3b7e8054b3d305000225affd1b0704c05acc2bdfafa02b0376bd00f515d4509a401e035587e9c2c6ef56c674f4c1f9d606072518e96dc0c0",
                "blocknumber": "1"
            }
        ],
        "sealEngine": "NoProof",
        "_info": {
            "hash": "0x3854925df326a29a7d8cec6a407986ec66252fa37bb82c9679f60311aea32011",
            "fixture-format": "blockchain_test",
            "comment": "`execution-specs` generated test",
            "filling-transition-tool": "2.19.0",
            "description": "Test_static_callcallcallcode_001_ooge.",
            "url": "https://github.com/ethereum/execution-specs/blob/tests-snobal-devnet-5@v8037.0.0/tests/ported_static/stStaticCall/test_static_callcallcallcode_001_ooge.py#L24",
            "metadata": {
                "opcode_count": {}
            }
        }
    }
}