{
    "tests/shanghai/eip3855_push0/test_push0.py::TestPush0CallContext::test_push0_contract_during_call_contexts[fork_Shanghai-blockchain_test_from_state_test-call]@bigmem": {
        "network": "Shanghai",
        "genesisBlockHeader": {
            "parentHash": "0x0000000000000000000000000000000000000000000000000000000000000000",
            "uncleHash": "0x1dcc4de8dec75d7aab85b567b6ccd41ad312451b948a7413f0a142fd40d49347",
            "coinbase": "0x0000000000000000000000000000000000000000",
            "stateRoot": "0xc4afedd8fb1dd970891dc6f1ab193f70f5d2d5185534e8a715cd1774143eee0b",
            "transactionsTrie": "0x56e81f171bcc55a6ff8345e692c0f86e5b48e01b996cadc001622fb5e363b421",
            "receiptTrie": "0x56e81f171bcc55a6ff8345e692c0f86e5b48e01b996cadc001622fb5e363b421",
            "bloom": "0x00000000000000000000000000000000000000000000000000000000000000000000000000000000000000000000000000000000000000000000000000000000000000000000000000000000000000000000000000000000000000000000000000000000000000000000000000000000000000000000000000000000000000000000000000000000000000000000000000000000000000000000000000000000000000000000000000000000000000000000000000000000000000000000000000000000000000000000000000000000000000000000000000000000000000000000000000000000000000000000000000000000000000000000000000000000",
            "difficulty": "0x00",
            "number": "0x00",
            "gasLimit": "0x07270e00",
            "gasUsed": "0x00",
            "timestamp": "0x00",
            "extraData": "0x00",
            "mixHash": "0x0000000000000000000000000000000000000000000000000000000000000000",
            "nonce": "0x0000000000000000",
            "baseFeePerGas": "0x07",
            "withdrawalsRoot": "0x56e81f171bcc55a6ff8345e692c0f86e5b48e01b996cadc001622fb5e363b421",
            "hash": "0x59d12f1793954a59e21e35138691f182a29754f8be6ca4eed20da87e2e206814"
        },
        "pre": {
            "0x1ad9bc24818784172ff393bb6f89f094d4d2ca29": {
                "nonce": "0x00",
                "balance": "0x3635c9adc5dea00000",
                "code": "0x",
                "storage": {}
            },
            "0xd39602eaf5e9bee3629b2cd83ee4fb67c9c3155d": {
                "nonce": "0x01",
                "balance": "0x00",
                "code": "0x60ff5f5360015ff3",
                "storage": {}
            },
            "0x520a79de82f45c70aa92f46cc9e8f1ec20450f17": {
                "nonce": "0x01",
                "balance": "0x00",
                "code": "0x6000600060006000600073d39602eaf5e9bee3629b2cd83ee4fb67c9c3155d620186a0f1600055600160005560016000601f3e600051600155",
                "storage": {}
            }
        },
        "postState": {
            "0x1ad9bc24818784172ff393bb6f89f094d4d2ca29": {
                "nonce": "0x01",
                "balance": "0x3635c9adc5de95a0ce",
                "code": "0x",
                "storage": {}
            },
            "0xd39602eaf5e9bee3629b2cd83ee4fb67c9c3155d": {
                "nonce": "0x01",
                "balance": "0x00",
                "code": "0x60ff5f5360015ff3",
                "storage": {}
            },
            "0x520a79de82f45c70aa92f46cc9e8f1ec20450f17": {
                "nonce": "0x01",
                "balance": "0x00",
                "code": "0x6000600060006000600073d39602eaf5e9bee3629b2cd83ee4fb67c9c3155d620186a0f1600055600160005560016000601f3e600051600155",
                "storage": {
                    "0x00": "0x01",
                    "0x01": "0xff"
                }
            },
            "0x2adc25665018aa1fe0e6bc666dac8fc2697ff9ba": {
                "nonce": "0x00",
                "balance": "0x031c8f",
                "code": "0x",
                "storage": {}
            }
        },
        "lastblockhash": "0x61d5e4f7c79a995a53c4f5bceee30613b442af126f15000d2d5a1fb7731109b0",
        "config": {
            "network": "Shanghai",
            "chainid": "0x01"
        },
        "genesisRLP": "0xf90219f90213a00000000000000000000000000000000000000000000000000000000000000000a01dcc4de8dec75d7aab85b567b6ccd41ad312451b948a7413f0a142fd40d49347940000000000000000000000000000000000000000a0c4afedd8fb1dd970891dc6f1ab193f70f5d2d5185534e8a715cd1774143eee0ba056e81f171bcc55a6ff8345e692c0f86e5b48e01b996cadc001622fb5e363b421a056e81f171bcc55a6ff8345e692c0f86e5b48e01b996cadc001622fb5e363b421b901000000000000000000000000000000000000000000000000000000000000000000000000000000000000000000000000000000000000000000000000000000000000000000000000000000000000000000000000000000000000000000000000000000000000000000000000000000000000000000000000000000000000000000000000000000000000000000000000000000000000000000000000000000000000000000000000000000000000000000000000000000000000000000000000000000000000000000000000000000000000000000000000000000000000000000000000000000000000000000000000000000000000000000000000000000000080808407270e00808000a0000000000000000000000000000000000000000000000000000000000000000088000000000000000007a056e81f171bcc55a6ff8345e692c0f86e5b48e01b996cadc001622fb5e363b421c0c0c0",
        "blocks": [
            {
                "blockHeader": {
                    "parentHash": "0x59d12f1793954a59e21e35138691f182a29754f8be6ca4eed20da87e2e206814",
                    "uncleHash": "0x1dcc4de8dec75d7aab85b567b6ccd41ad312451b948a7413f0a142fd40d49347",
                    "coinbase": "0x2adc25665018aa1fe0e6bc666dac8fc2697ff9ba",
                    "stateRoot": "0x974bc65cdd2babaa3d0ddb19aeba893abb86a892b9768e848a86879022ae885c",
                    "transactionsTrie": "0x574c113f2adfa45974880ddb7de738a2bb77d3534d767f970c198ba38c065013",
                    "receiptTrie": "0x64d2b19c0d71c3f3fb78dc292f9c5c3a52eac4fbc43dbcb62c622ba33a9e56c8",
                    "bloom": "0x00000000000000000000000000000000000000000000000000000000000000000000000000000000000000000000000000000000000000000000000000000000000000000000000000000000000000000000000000000000000000000000000000000000000000000000000000000000000000000000000000000000000000000000000000000000000000000000000000000000000000000000000000000000000000000000000000000000000000000000000000000000000000000000000000000000000000000000000000000000000000000000000000000000000000000000000000000000000000000000000000000000000000000000000000000000",
                    "difficulty": "0x00",
                    "number": "0x01",
                    "gasLimit": "0x07270e00",
                    "gasUsed": "0x010985",
                    "timestamp": "0x03e8",
                    "extraData": "0x00",
                    "mixHash": "0x0000000000000000000000000000000000000000000000000000000000000000",
                    "nonce": "0x0000000000000000",
                    "baseFeePerGas": "0x07",
                    "withdrawalsRoot": "0x56e81f171bcc55a6ff8345e692c0f86e5b48e01b996cadc001622fb5e363b421",
                    "hash": "0x61d5e4f7c79a995a53c4f5bceee30613b442af126f15000d2d5a1fb7731109b0"
                },
                "transactions": [
                    {
                        "type": "0x00",
                        "chainId": "0x01",
                        "nonce": "0x00",
                        "gasPrice": "0x0a",
                        "gasLimit": "0x0186a0",
                        "to": "0x520a79de82f45c70aa92f46cc9e8f1ec20450f17",
                        "value": "0x00",
                        "data": "0x",
                        "v": "0x26",
                        "r": "0xcb353c8af4b3d787f689e703ed627efd6491ca3c0cb95a8fa5e22d6270756cb7",
                        "s": "0x099f82dbc4c92a5d87a76dd85b5f73e18016465cd5d9162613e9c04fae604ccb",
                        "sender": "0x1ad9bc24818784172ff393bb6f89f094d4d2ca29"
                    }
                ],
                "uncleHeaders": [],
                "withdrawals": [],
                "receipts": [
                    {
                        "transactionHash": "0xa572864beb0b8e8bed2ac57ebd1375347e4a2d03dead49319aee16617c4f31ad",
                        "type": "0x00",
                        "cumulativeGasUsed": "0x010985",
                        "bloom": "0x00000000000000000000000000000000000000000000000000000000000000000000000000000000000000000000000000000000000000000000000000000000000000000000000000000000000000000000000000000000000000000000000000000000000000000000000000000000000000000000000000000000000000000000000000000000000000000000000000000000000000000000000000000000000000000000000000000000000000000000000000000000000000000000000000000000000000000000000000000000000000000000000000000000000000000000000000000000000000000000000000000000000000000000000000000000",
                        "logs": [],
                        "status": true,
                        "rlp": "0xf901090183010985b9010000000000000000000000000000000000000000000000000000000000000000000000000000000000000000000000000000000000000000000000000000000000000000000000000000000000000000000000000000000000000000000000000000000000000000000000000000000000000000000000000000000000000000000000000000000000000000000000000000000000000000000000000000000000000000000000000000000000000000000000000000000000000000000000000000000000000000000000000000000000000000000000000000000000000000000000000000000000000000000000000000000000000000000000000000000000c0"
                    }
                ],
                "rlp": "0xf90281f90218a059d12f1793954a59e21e35138691f182a29754f8be6ca4eed20da87e2e206814a01dcc4de8dec75d7aab85b567b6ccd41ad312451b948a7413f0a142fd40d49347942adc25665018aa1fe0e6bc666dac8fc2697ff9baa0974bc65cdd2babaa3d0ddb19aeba893abb86a892b9768e848a86879022ae885ca0574c113f2adfa45974880ddb7de738a2bb77d3534d767f970c198ba38c065013a064d2b19c0d71c3f3fb78dc292f9c5c3a52eac4fbc43dbcb62c622ba33a9e56c8b901000000000000000000000000000000000000000000000000000000000000000000000000000000000000000000000000000000000000000000000000000000000000000000000000000000000000000000000000000000000000000000000000000000000000000000000000000000000000000000000000000000000000000000000000000000000000000000000000000000000000000000000000000000000000000000000000000000000000000000000000000000000000000000000000000000000000000000000000000000000000000000000000000000000000000000000000000000000000000000000000000000000000000000000000000000000080018407270e00830109858203e800a0000000000000000000000000000000000000000000000000000000000000000088000000000000000007a056e81f171bcc55a6ff8345e692c0f86e5b48e01b996cadc001622fb5e363b421f862f860800a830186a094520a79de82f45c70aa92f46cc9e8f1ec20450f17808026a0cb353c8af4b3d787f689e703ed627efd6491ca3c0cb95a8fa5e22d6270756cb7a0099f82dbc4c92a5d87a76dd85b5f73e18016465cd5d9162613e9c04fae604ccbc0c0",
                "blocknumber": "1"
            }
        ],
        "sealEngine": "NoProof",
        "_info": {
            "hash": "0x6d942b6f10333d50f1e7623af58ea13dbe025b7f60dae37db391319b7b0eb8a9",
            "fixture-format": "blockchain_test",
            "comment": "`execution-specs` generated test",
            "filling-transition-tool": "2.19.0",
            "description": "Test class documentation:\n\nTest the PUSH0 operation in various contract call contexts.\n\nTest PUSH0 in the following contract call contexts:\n\n- CALL,\n- CALLCODE,\n- DELEGATECALL,\n- STATICCALL.\n\n\nTest PUSH0 during various call contexts.",
            "url": "https://github.com/ethereum/execution-specs/blob/tests-bal@v5.7.0/tests/shanghai/eip3855_push0/test_push0.py#L138",
            "metadata": {
                "opcode_count": {}
            },
            "reference-spec": "https://github.com/ethereum/EIPs/blob/master/EIPS/eip-3855.md",
            "reference-spec-version": "6f85bd73336de4aacfad7ac3bb3a7e1ba2d68f51"
        }
    },
    "tests/shanghai/eip3855_push0/test_push0.py::TestPush0CallContext::test_push0_contract_during_call_contexts[fork_Shanghai-blockchain_test_from_state_test-callcode]@bigmem": {
        "network": "Shanghai",
        "genesisBlockHeader": {
            "parentHash": "0x0000000000000000000000000000000000000000000000000000000000000000",
            "uncleHash": "0x1dcc4de8dec75d7aab85b567b6ccd41ad312451b948a7413f0a142fd40d49347",
            "coinbase": "0x0000000000000000000000000000000000000000",
            "stateRoot": "0xeb1a63866e2189b49772c1a87846ece9bd0443a015ae37835007ee0f44a0e947",
            "transactionsTrie": "0x56e81f171bcc55a6ff8345e692c0f86e5b48e01b996cadc001622fb5e363b421",
            "receiptTrie": "0x56e81f171bcc55a6ff8345e692c0f86e5b48e01b996cadc001622fb5e363b421",
            "bloom": "0x00000000000000000000000000000000000000000000000000000000000000000000000000000000000000000000000000000000000000000000000000000000000000000000000000000000000000000000000000000000000000000000000000000000000000000000000000000000000000000000000000000000000000000000000000000000000000000000000000000000000000000000000000000000000000000000000000000000000000000000000000000000000000000000000000000000000000000000000000000000000000000000000000000000000000000000000000000000000000000000000000000000000000000000000000000000",
            "difficulty": "0x00",
            "number": "0x00",
            "gasLimit": "0x07270e00",
            "gasUsed": "0x00",
            "timestamp": "0x00",
            "extraData": "0x00",
            "mixHash": "0x0000000000000000000000000000000000000000000000000000000000000000",
            "nonce": "0x0000000000000000",
            "baseFeePerGas": "0x07",
            "withdrawalsRoot": "0x56e81f171bcc55a6ff8345e692c0f86e5b48e01b996cadc001622fb5e363b421",
            "hash": "0xc582489c683dc79e7ff8104f0a9a4f08fe9da742a3a6818b67b2662c614f2193"
        },
        "pre": {
            "0x1ad9bc24818784172ff393bb6f89f094d4d2ca29": {
                "nonce": "0x00",
                "balance": "0x3635c9adc5dea00000",
                "code": "0x",
                "storage": {}
            },
            "0xd39602eaf5e9bee3629b2cd83ee4fb67c9c3155d": {
                "nonce": "0x01",
                "balance": "0x00",
                "code": "0x60ff5f5360015ff3",
                "storage": {}
            },
            "0xcefa1ac21f44088445ad0e427e5967a83dfd6a46": {
                "nonce": "0x01",
                "balance": "0x00",
                "code": "0x6000600060006000600073d39602eaf5e9bee3629b2cd83ee4fb67c9c3155d620186a0f2600055600160005560016000601f3e600051600155",
                "storage": {}
            }
        },
        "postState": {
            "0x1ad9bc24818784172ff393bb6f89f094d4d2ca29": {
                "nonce": "0x01",
                "balance": "0x3635c9adc5de95a0ce",
                "code": "0x",
                "storage": {}
            },
            "0xd39602eaf5e9bee3629b2cd83ee4fb67c9c3155d": {
                "nonce": "0x01",
                "balance": "0x00",
                "code": "0x60ff5f5360015ff3",
                "storage": {}
            },
            "0xcefa1ac21f44088445ad0e427e5967a83dfd6a46": {
                "nonce": "0x01",
                "balance": "0x00",
                "code": "0x6000600060006000600073d39602eaf5e9bee3629b2cd83ee4fb67c9c3155d620186a0f2600055600160005560016000601f3e600051600155",
                "storage": {
                    "0x00": "0x01",
                    "0x01": "0xff"
                }
            },
            "0x2adc25665018aa1fe0e6bc666dac8fc2697ff9ba": {
                "nonce": "0x00",
                "balance": "0x031c8f",
                "code": "0x",
                "storage": {}
            }
        },
        "lastblockhash": "0xf09b804d6e76821b620e539eaffd9261ef3ab1060783f95988f8caed58da3066",
        "config": {
            "network": "Shanghai",
            "chainid": "0x01"
        },
        "genesisRLP": "0xf90219f90213a00000000000000000000000000000000000000000000000000000000000000000a01dcc4de8dec75d7aab85b567b6ccd41ad312451b948a7413f0a142fd40d49347940000000000000000000000000000000000000000a0eb1a63866e2189b49772c1a87846ece9bd0443a015ae37835007ee0f44a0e947a056e81f171bcc55a6ff8345e692c0f86e5b48e01b996cadc001622fb5e363b421a056e81f171bcc55a6ff8345e692c0f86e5b48e01b996cadc001622fb5e363b421b901000000000000000000000000000000000000000000000000000000000000000000000000000000000000000000000000000000000000000000000000000000000000000000000000000000000000000000000000000000000000000000000000000000000000000000000000000000000000000000000000000000000000000000000000000000000000000000000000000000000000000000000000000000000000000000000000000000000000000000000000000000000000000000000000000000000000000000000000000000000000000000000000000000000000000000000000000000000000000000000000000000000000000000000000000000000080808407270e00808000a0000000000000000000000000000000000000000000000000000000000000000088000000000000000007a056e81f171bcc55a6ff8345e692c0f86e5b48e01b996cadc001622fb5e363b421c0c0c0",
        "blocks": [
            {
                "blockHeader": {
                    "parentHash": "0xc582489c683dc79e7ff8104f0a9a4f08fe9da742a3a6818b67b2662c614f2193",
                    "uncleHash": "0x1dcc4de8dec75d7aab85b567b6ccd41ad312451b948a7413f0a142fd40d49347",
                    "coinbase": "0x2adc25665018aa1fe0e6bc666dac8fc2697ff9ba",
                    "stateRoot": "0x02ffb27aec4ec26f35657769f1fe683f3c0ff85a5ebaaf90a577e30209b63d1e",
                    "transactionsTrie": "0x92d4af23351cccb69db29fea7725d2d333872199b154122ec133df939498e0e4",
                    "receiptTrie": "0x64d2b19c0d71c3f3fb78dc292f9c5c3a52eac4fbc43dbcb62c622ba33a9e56c8",
                    "bloom": "0x00000000000000000000000000000000000000000000000000000000000000000000000000000000000000000000000000000000000000000000000000000000000000000000000000000000000000000000000000000000000000000000000000000000000000000000000000000000000000000000000000000000000000000000000000000000000000000000000000000000000000000000000000000000000000000000000000000000000000000000000000000000000000000000000000000000000000000000000000000000000000000000000000000000000000000000000000000000000000000000000000000000000000000000000000000000",
                    "difficulty": "0x00",
                    "number": "0x01",
                    "gasLimit": "0x07270e00",
                    "gasUsed": "0x010985",
                    "timestamp": "0x03e8",
                    "extraData": "0x00",
                    "mixHash": "0x0000000000000000000000000000000000000000000000000000000000000000",
                    "nonce": "0x0000000000000000",
                    "baseFeePerGas": "0x07",
                    "withdrawalsRoot": "0x56e81f171bcc55a6ff8345e692c0f86e5b48e01b996cadc001622fb5e363b421",
                    "hash": "0xf09b804d6e76821b620e539eaffd9261ef3ab1060783f95988f8caed58da3066"
                },
                "transactions": [
                    {
                        "type": "0x00",
                        "chainId": "0x01",
                        "nonce": "0x00",
                        "gasPrice": "0x0a",
                        "gasLimit": "0x0186a0",
                        "to": "0xcefa1ac21f44088445ad0e427e5967a83dfd6a46",
                        "value": "0x00",
                        "data": "0x",
                        "v": "0x25",
                        "r": "0x6001a5a35b86d007b15221fb909b06411427a73040e702e29b2b2c67c7ab6111",
                        "s": "0x101508d5174298ffeb6486c4f324dee9c4baf4ad77b0862eaafe2de9955fed0f",
                        "sender": "0x1ad9bc24818784172ff393bb6f89f094d4d2ca29"
                    }
                ],
                "uncleHeaders": [],
                "withdrawals": [],
                "receipts": [
                    {
                        "transactionHash": "0x8daa4c4e869702ad97c221495724c9cf451fd9e86b70413d96d4a6210b03f9c1",
                        "type": "0x00",
                        "cumulativeGasUsed": "0x010985",
                        "bloom": "0x00000000000000000000000000000000000000000000000000000000000000000000000000000000000000000000000000000000000000000000000000000000000000000000000000000000000000000000000000000000000000000000000000000000000000000000000000000000000000000000000000000000000000000000000000000000000000000000000000000000000000000000000000000000000000000000000000000000000000000000000000000000000000000000000000000000000000000000000000000000000000000000000000000000000000000000000000000000000000000000000000000000000000000000000000000000",
                        "logs": [],
                        "status": true,
                        "rlp": "0xf901090183010985b9010000000000000000000000000000000000000000000000000000000000000000000000000000000000000000000000000000000000000000000000000000000000000000000000000000000000000000000000000000000000000000000000000000000000000000000000000000000000000000000000000000000000000000000000000000000000000000000000000000000000000000000000000000000000000000000000000000000000000000000000000000000000000000000000000000000000000000000000000000000000000000000000000000000000000000000000000000000000000000000000000000000000000000000000000000000000c0"
                    }
                ],
                "rlp": "0xf90281f90218a0c582489c683dc79e7ff8104f0a9a4f08fe9da742a3a6818b67b2662c614f2193a01dcc4de8dec75d7aab85b567b6ccd41ad312451b948a7413f0a142fd40d49347942adc25665018aa1fe0e6bc666dac8fc2697ff9baa002ffb27aec4ec26f35657769f1fe683f3c0ff85a5ebaaf90a577e30209b63d1ea092d4af23351cccb69db29fea7725d2d333872199b154122ec133df939498e0e4a064d2b19c0d71c3f3fb78dc292f9c5c3a52eac4fbc43dbcb62c622ba33a9e56c8b901000000000000000000000000000000000000000000000000000000000000000000000000000000000000000000000000000000000000000000000000000000000000000000000000000000000000000000000000000000000000000000000000000000000000000000000000000000000000000000000000000000000000000000000000000000000000000000000000000000000000000000000000000000000000000000000000000000000000000000000000000000000000000000000000000000000000000000000000000000000000000000000000000000000000000000000000000000000000000000000000000000000000000000000000000000000080018407270e00830109858203e800a0000000000000000000000000000000000000000000000000000000000000000088000000000000000007a056e81f171bcc55a6ff8345e692c0f86e5b48e01b996cadc001622fb5e363b421f862f860800a830186a094cefa1ac21f44088445ad0e427e5967a83dfd6a46808025a06001a5a35b86d007b15221fb909b06411427a73040e702e29b2b2c67c7ab6111a0101508d5174298ffeb6486c4f324dee9c4baf4ad77b0862eaafe2de9955fed0fc0c0",
                "blocknumber": "1"
            }
        ],
        "sealEngine": "NoProof",
        "_info": {
            "hash": "0xc51d4d9a323fcffa8841f1df43ae5127ccf214b6d94e65a8a84091d592417623",
            "fixture-format": "blockchain_test",
            "comment": "`execution-specs` generated test",
            "filling-transition-tool": "2.19.0",
            "description": "Test class documentation:\n\nTest the PUSH0 operation in various contract call contexts.\n\nTest PUSH0 in the following contract call contexts:\n\n- CALL,\n- CALLCODE,\n- DELEGATECALL,\n- STATICCALL.\n\n\nTest PUSH0 during various call contexts.",
            "url": "https://github.com/ethereum/execution-specs/blob/tests-bal@v5.7.0/tests/shanghai/eip3855_push0/test_push0.py#L138",
            "metadata": {
                "opcode_count": {}
            },
            "reference-spec": "https://github.com/ethereum/EIPs/blob/master/EIPS/eip-3855.md",
            "reference-spec-version": "6f85bd73336de4aacfad7ac3bb3a7e1ba2d68f51"
        }
    },
    "tests/shanghai/eip3855_push0/test_push0.py::TestPush0CallContext::test_push0_contract_during_call_contexts[fork_Shanghai-blockchain_test_from_state_test-delegatecall]@bigmem": {
        "network": "Shanghai",
        "genesisBlockHeader": {
            "parentHash": "0x0000000000000000000000000000000000000000000000000000000000000000",
            "uncleHash": "0x1dcc4de8dec75d7aab85b567b6ccd41ad312451b948a7413f0a142fd40d49347",
            "coinbase": "0x0000000000000000000000000000000000000000",
            "stateRoot": "0x6d3d715815938312c5251fc9612686436acfca3b2cd2fdc985d9c01a066e380c",
            "transactionsTrie": "0x56e81f171bcc55a6ff8345e692c0f86e5b48e01b996cadc001622fb5e363b421",
            "receiptTrie": "0x56e81f171bcc55a6ff8345e692c0f86e5b48e01b996cadc001622fb5e363b421",
            "bloom": "0x00000000000000000000000000000000000000000000000000000000000000000000000000000000000000000000000000000000000000000000000000000000000000000000000000000000000000000000000000000000000000000000000000000000000000000000000000000000000000000000000000000000000000000000000000000000000000000000000000000000000000000000000000000000000000000000000000000000000000000000000000000000000000000000000000000000000000000000000000000000000000000000000000000000000000000000000000000000000000000000000000000000000000000000000000000000",
            "difficulty": "0x00",
            "number": "0x00",
            "gasLimit": "0x07270e00",
            "gasUsed": "0x00",
            "timestamp": "0x00",
            "extraData": "0x00",
            "mixHash": "0x0000000000000000000000000000000000000000000000000000000000000000",
            "nonce": "0x0000000000000000",
            "baseFeePerGas": "0x07",
            "withdrawalsRoot": "0x56e81f171bcc55a6ff8345e692c0f86e5b48e01b996cadc001622fb5e363b421",
            "hash": "0x3cbcbe4ded2d8ce3faef9910cf176b855f9eca93b9926ac1625e3a2f249acbd7"
        },
        "pre": {
            "0x1ad9bc24818784172ff393bb6f89f094d4d2ca29": {
                "nonce": "0x00",
                "balance": "0x3635c9adc5dea00000",
                "code": "0x",
                "storage": {}
            },
            "0xd39602eaf5e9bee3629b2cd83ee4fb67c9c3155d": {
                "nonce": "0x01",
                "balance": "0x00",
                "code": "0x60ff5f5360015ff3",
                "storage": {}
            },
            "0x3832c7fcdc74ea6308a83d8632eaf32a5db14f26": {
                "nonce": "0x01",
                "balance": "0x00",
                "code": "0x600060006000600073d39602eaf5e9bee3629b2cd83ee4fb67c9c3155d620186a0f4600055600160005560016000601f3e600051600155",
                "storage": {}
            }
        },
        "postState": {
            "0x1ad9bc24818784172ff393bb6f89f094d4d2ca29": {
                "nonce": "0x01",
                "balance": "0x3635c9adc5de95a0ec",
                "code": "0x",
                "storage": {}
            },
            "0xd39602eaf5e9bee3629b2cd83ee4fb67c9c3155d": {
                "nonce": "0x01",
                "balance": "0x00",
                "code": "0x60ff5f5360015ff3",
                "storage": {}
            },
            "0x3832c7fcdc74ea6308a83d8632eaf32a5db14f26": {
                "nonce": "0x01",
                "balance": "0x00",
                "code": "0x600060006000600073d39602eaf5e9bee3629b2cd83ee4fb67c9c3155d620186a0f4600055600160005560016000601f3e600051600155",
                "storage": {
                    "0x00": "0x01",
                    "0x01": "0xff"
                }
            },
            "0x2adc25665018aa1fe0e6bc666dac8fc2697ff9ba": {
                "nonce": "0x00",
                "balance": "0x031c86",
                "code": "0x",
                "storage": {}
            }
        },
        "lastblockhash": "0x4f2d5871b825596eadabf58b0c6d9352d075d43be25f5a14a611ec1f50a9edcd",
        "config": {
            "network": "Shanghai",
            "chainid": "0x01"
        },
        "genesisRLP": "0xf90219f90213a00000000000000000000000000000000000000000000000000000000000000000a01dcc4de8dec75d7aab85b567b6ccd41ad312451b948a7413f0a142fd40d49347940000000000000000000000000000000000000000a06d3d715815938312c5251fc9612686436acfca3b2cd2fdc985d9c01a066e380ca056e81f171bcc55a6ff8345e692c0f86e5b48e01b996cadc001622fb5e363b421a056e81f171bcc55a6ff8345e692c0f86e5b48e01b996cadc001622fb5e363b421b901000000000000000000000000000000000000000000000000000000000000000000000000000000000000000000000000000000000000000000000000000000000000000000000000000000000000000000000000000000000000000000000000000000000000000000000000000000000000000000000000000000000000000000000000000000000000000000000000000000000000000000000000000000000000000000000000000000000000000000000000000000000000000000000000000000000000000000000000000000000000000000000000000000000000000000000000000000000000000000000000000000000000000000000000000000000080808407270e00808000a0000000000000000000000000000000000000000000000000000000000000000088000000000000000007a056e81f171bcc55a6ff8345e692c0f86e5b48e01b996cadc001622fb5e363b421c0c0c0",
        "blocks": [
            {
                "blockHeader": {
                    "parentHash": "0x3cbcbe4ded2d8ce3faef9910cf176b855f9eca93b9926ac1625e3a2f249acbd7",
                    "uncleHash": "0x1dcc4de8dec75d7aab85b567b6ccd41ad312451b948a7413f0a142fd40d49347",
                    "coinbase": "0x2adc25665018aa1fe0e6bc666dac8fc2697ff9ba",
                    "stateRoot": "0xa3401cd1e99e3cd0277624609ac82b35f4efe8c769be734a8f607e6f1308f414",
                    "transactionsTrie": "0x05e66f24e648c95c62ce7250bf97ef22cdfcb211c964429d73768fadd0498e99",
                    "receiptTrie": "0x2ab89a18d916ebe51698487b52c7ccd995495a95d4bdabcf1cf93aeb8d252839",
                    "bloom": "0x00000000000000000000000000000000000000000000000000000000000000000000000000000000000000000000000000000000000000000000000000000000000000000000000000000000000000000000000000000000000000000000000000000000000000000000000000000000000000000000000000000000000000000000000000000000000000000000000000000000000000000000000000000000000000000000000000000000000000000000000000000000000000000000000000000000000000000000000000000000000000000000000000000000000000000000000000000000000000000000000000000000000000000000000000000000",
                    "difficulty": "0x00",
                    "number": "0x01",
                    "gasLimit": "0x07270e00",
                    "gasUsed": "0x010982",
                    "timestamp": "0x03e8",
                    "extraData": "0x00",
                    "mixHash": "0x0000000000000000000000000000000000000000000000000000000000000000",
                    "nonce": "0x0000000000000000",
                    "baseFeePerGas": "0x07",
                    "withdrawalsRoot": "0x56e81f171bcc55a6ff8345e692c0f86e5b48e01b996cadc001622fb5e363b421",
                    "hash": "0x4f2d5871b825596eadabf58b0c6d9352d075d43be25f5a14a611ec1f50a9edcd"
                },
                "transactions": [
                    {
                        "type": "0x00",
                        "chainId": "0x01",
                        "nonce": "0x00",
                        "gasPrice": "0x0a",
                        "gasLimit": "0x0186a0",
                        "to": "0x3832c7fcdc74ea6308a83d8632eaf32a5db14f26",
                        "value": "0x00",
                        "data": "0x",
                        "v": "0x25",
                        "r": "0xd474239d661639bfc522cea5020c08e3e7d1eba7495ad85dc43049906314bf3c",
                        "s": "0x2a0f4f90714a081577adf9f84e6574440b7fa3229aaf5d06b216a3979de02ca3",
                        "sender": "0x1ad9bc24818784172ff393bb6f89f094d4d2ca29"
                    }
                ],
                "uncleHeaders": [],
                "withdrawals": [],
                "receipts": [
                    {
                        "transactionHash": "0xe4fbd96008187c213b5e76486f9a2a5c4e1b42da959900c16497a421e0c85102",
                        "type": "0x00",
                        "cumulativeGasUsed": "0x010982",
                        "bloom": "0x00000000000000000000000000000000000000000000000000000000000000000000000000000000000000000000000000000000000000000000000000000000000000000000000000000000000000000000000000000000000000000000000000000000000000000000000000000000000000000000000000000000000000000000000000000000000000000000000000000000000000000000000000000000000000000000000000000000000000000000000000000000000000000000000000000000000000000000000000000000000000000000000000000000000000000000000000000000000000000000000000000000000000000000000000000000",
                        "logs": [],
                        "status": true,
                        "rlp": "0xf901090183010982b9010000000000000000000000000000000000000000000000000000000000000000000000000000000000000000000000000000000000000000000000000000000000000000000000000000000000000000000000000000000000000000000000000000000000000000000000000000000000000000000000000000000000000000000000000000000000000000000000000000000000000000000000000000000000000000000000000000000000000000000000000000000000000000000000000000000000000000000000000000000000000000000000000000000000000000000000000000000000000000000000000000000000000000000000000000000000c0"
                    }
                ],
                "rlp": "0xf90281f90218a03cbcbe4ded2d8ce3faef9910cf176b855f9eca93b9926ac1625e3a2f249acbd7a01dcc4de8dec75d7aab85b567b6ccd41ad312451b948a7413f0a142fd40d49347942adc25665018aa1fe0e6bc666dac8fc2697ff9baa0a3401cd1e99e3cd0277624609ac82b35f4efe8c769be734a8f607e6f1308f414a005e66f24e648c95c62ce7250bf97ef22cdfcb211c964429d73768fadd0498e99a02ab89a18d916ebe51698487b52c7ccd995495a95d4bdabcf1cf93aeb8d252839b901000000000000000000000000000000000000000000000000000000000000000000000000000000000000000000000000000000000000000000000000000000000000000000000000000000000000000000000000000000000000000000000000000000000000000000000000000000000000000000000000000000000000000000000000000000000000000000000000000000000000000000000000000000000000000000000000000000000000000000000000000000000000000000000000000000000000000000000000000000000000000000000000000000000000000000000000000000000000000000000000000000000000000000000000000000000080018407270e00830109828203e800a0000000000000000000000000000000000000000000000000000000000000000088000000000000000007a056e81f171bcc55a6ff8345e692c0f86e5b48e01b996cadc001622fb5e363b421f862f860800a830186a0943832c7fcdc74ea6308a83d8632eaf32a5db14f26808025a0d474239d661639bfc522cea5020c08e3e7d1eba7495ad85dc43049906314bf3ca02a0f4f90714a081577adf9f84e6574440b7fa3229aaf5d06b216a3979de02ca3c0c0",
                "blocknumber": "1"
            }
        ],
        "sealEngine": "NoProof",
        "_info": {
            "hash": "0x054d3aa5bf152d2469fb8260dea8bebd7d353bc20c4fb72843d6a81054a5d266",
            "fixture-format": "blockchain_test",
            "comment": "`execution-specs` generated test",
            "filling-transition-tool": "2.19.0",
            "description": "Test class documentation:\n\nTest the PUSH0 operation in various contract call contexts.\n\nTest PUSH0 in the following contract call contexts:\n\n- CALL,\n- CALLCODE,\n- DELEGATECALL,\n- STATICCALL.\n\n\nTest PUSH0 during various call contexts.",
            "url": "https://github.com/ethereum/execution-specs/blob/tests-bal@v5.7.0/tests/shanghai/eip3855_push0/test_push0.py#L138",
            "metadata": {
                "opcode_count": {}
            },
            "reference-spec": "https://github.com/ethereum/EIPs/blob/master/EIPS/eip-3855.md",
            "reference-spec-version": "6f85bd73336de4aacfad7ac3bb3a7e1ba2d68f51"
        }
    },
    "tests/shanghai/eip3855_push0/test_push0.py::TestPush0CallContext::test_push0_contract_during_call_contexts[fork_Shanghai-blockchain_test_from_state_test-staticcall]@bigmem": {
        "network": "Shanghai",
        "genesisBlockHeader": {
            "parentHash": "0x0000000000000000000000000000000000000000000000000000000000000000",
            "uncleHash": "0x1dcc4de8dec75d7aab85b567b6ccd41ad312451b948a7413f0a142fd40d49347",
            "coinbase": "0x0000000000000000000000000000000000000000",
            "stateRoot": "0x3232e452b374ce03a28a26e2383f4ff062e7dc69a91e23ee6d0dc67e59a1c35e",
            "transactionsTrie": "0x56e81f171bcc55a6ff8345e692c0f86e5b48e01b996cadc001622fb5e363b421",
            "receiptTrie": "0x56e81f171bcc55a6ff8345e692c0f86e5b48e01b996cadc001622fb5e363b421",
            "bloom": "0x00000000000000000000000000000000000000000000000000000000000000000000000000000000000000000000000000000000000000000000000000000000000000000000000000000000000000000000000000000000000000000000000000000000000000000000000000000000000000000000000000000000000000000000000000000000000000000000000000000000000000000000000000000000000000000000000000000000000000000000000000000000000000000000000000000000000000000000000000000000000000000000000000000000000000000000000000000000000000000000000000000000000000000000000000000000",
            "difficulty": "0x00",
            "number": "0x00",
            "gasLimit": "0x07270e00",
            "gasUsed": "0x00",
            "timestamp": "0x00",
            "extraData": "0x00",
            "mixHash": "0x0000000000000000000000000000000000000000000000000000000000000000",
            "nonce": "0x0000000000000000",
            "baseFeePerGas": "0x07",
            "withdrawalsRoot": "0x56e81f171bcc55a6ff8345e692c0f86e5b48e01b996cadc001622fb5e363b421",
            "hash": "0xbf17426ecfaef2ad3dfc57a09dba347896d643d9fe431eb4455b1f02d9c7f166"
        },
        "pre": {
            "0x1ad9bc24818784172ff393bb6f89f094d4d2ca29": {
                "nonce": "0x00",
                "balance": "0x3635c9adc5dea00000",
                "code": "0x",
                "storage": {}
            },
            "0xd39602eaf5e9bee3629b2cd83ee4fb67c9c3155d": {
                "nonce": "0x01",
                "balance": "0x00",
                "code": "0x60ff5f5360015ff3",
                "storage": {}
            },
            "0x2737b04e10c5878e3e37b58394a86fbda5a3fde7": {
                "nonce": "0x01",
                "balance": "0x00",
                "code": "0x600060006000600073d39602eaf5e9bee3629b2cd83ee4fb67c9c3155d620186a0fa600055600160005560016000601f3e600051600155",
                "storage": {}
            }
        },
        "postState": {
            "0x1ad9bc24818784172ff393bb6f89f094d4d2ca29": {
                "nonce": "0x01",
                "balance": "0x3635c9adc5de95a0ec",
                "code": "0x",
                "storage": {}
            },
            "0xd39602eaf5e9bee3629b2cd83ee4fb67c9c3155d": {
                "nonce": "0x01",
                "balance": "0x00",
                "code": "0x60ff5f5360015ff3",
                "storage": {}
            },
            "0x2737b04e10c5878e3e37b58394a86fbda5a3fde7": {
                "nonce": "0x01",
                "balance": "0x00",
                "code": "0x600060006000600073d39602eaf5e9bee3629b2cd83ee4fb67c9c3155d620186a0fa600055600160005560016000601f3e600051600155",
                "storage": {
                    "0x00": "0x01",
                    "0x01": "0xff"
                }
            },
            "0x2adc25665018aa1fe0e6bc666dac8fc2697ff9ba": {
                "nonce": "0x00",
                "balance": "0x031c86",
                "code": "0x",
                "storage": {}
            }
        },
        "lastblockhash": "0xc086f64e979935611dd7f1fe50d0ea33c0db331c40de07f5b858c3a31be59996",
        "config": {
            "network": "Shanghai",
            "chainid": "0x01"
        },
        "genesisRLP": "0xf90219f90213a00000000000000000000000000000000000000000000000000000000000000000a01dcc4de8dec75d7aab85b567b6ccd41ad312451b948a7413f0a142fd40d49347940000000000000000000000000000000000000000a03232e452b374ce03a28a26e2383f4ff062e7dc69a91e23ee6d0dc67e59a1c35ea056e81f171bcc55a6ff8345e692c0f86e5b48e01b996cadc001622fb5e363b421a056e81f171bcc55a6ff8345e692c0f86e5b48e01b996cadc001622fb5e363b421b901000000000000000000000000000000000000000000000000000000000000000000000000000000000000000000000000000000000000000000000000000000000000000000000000000000000000000000000000000000000000000000000000000000000000000000000000000000000000000000000000000000000000000000000000000000000000000000000000000000000000000000000000000000000000000000000000000000000000000000000000000000000000000000000000000000000000000000000000000000000000000000000000000000000000000000000000000000000000000000000000000000000000000000000000000000000080808407270e00808000a0000000000000000000000000000000000000000000000000000000000000000088000000000000000007a056e81f171bcc55a6ff8345e692c0f86e5b48e01b996cadc001622fb5e363b421c0c0c0",
        "blocks": [
            {
                "blockHeader": {
                    "parentHash": "0xbf17426ecfaef2ad3dfc57a09dba347896d643d9fe431eb4455b1f02d9c7f166",
                    "uncleHash": "0x1dcc4de8dec75d7aab85b567b6ccd41ad312451b948a7413f0a142fd40d49347",
                    "coinbase": "0x2adc25665018aa1fe0e6bc666dac8fc2697ff9ba",
                    "stateRoot": "0x1091bb1600519f94a382f2921528d7dd66ffe6d85540ec475eb474958973ff37",
                    "transactionsTrie": "0x6420767a3f1c77abb13f718229cc9241aeddce0412c91aca1227b8c9dcbec8f0",
                    "receiptTrie": "0x2ab89a18d916ebe51698487b52c7ccd995495a95d4bdabcf1cf93aeb8d252839",
                    "bloom": "0x00000000000000000000000000000000000000000000000000000000000000000000000000000000000000000000000000000000000000000000000000000000000000000000000000000000000000000000000000000000000000000000000000000000000000000000000000000000000000000000000000000000000000000000000000000000000000000000000000000000000000000000000000000000000000000000000000000000000000000000000000000000000000000000000000000000000000000000000000000000000000000000000000000000000000000000000000000000000000000000000000000000000000000000000000000000",
                    "difficulty": "0x00",
                    "number": "0x01",
                    "gasLimit": "0x07270e00",
                    "gasUsed": "0x010982",
                    "timestamp": "0x03e8",
                    "extraData": "0x00",
                    "mixHash": "0x0000000000000000000000000000000000000000000000000000000000000000",
                    "nonce": "0x0000000000000000",
                    "baseFeePerGas": "0x07",
                    "withdrawalsRoot": "0x56e81f171bcc55a6ff8345e692c0f86e5b48e01b996cadc001622fb5e363b421",
                    "hash": "0xc086f64e979935611dd7f1fe50d0ea33c0db331c40de07f5b858c3a31be59996"
                },
                "transactions": [
                    {
                        "type": "0x00",
                        "chainId": "0x01",
                        "nonce": "0x00",
                        "gasPrice": "0x0a",
                        "gasLimit": "0x0186a0",
                        "to": "0x2737b04e10c5878e3e37b58394a86fbda5a3fde7",
                        "value": "0x00",
                        "data": "0x",
                        "v": "0x25",
                        "r": "0xb13196c45e6c19e48047aef093e4558cdfb1fa27b35f11545cc61c2e759db5fd",
                        "s": "0x31a99f89f17ef38ee7097bc83fea95d1ce48ee5fdd35dd444f026dc78ced03cc",
                        "sender": "0x1ad9bc24818784172ff393bb6f89f094d4d2ca29"
                    }
                ],
                "uncleHeaders": [],
                "withdrawals": [],
                "receipts": [
                    {
                        "transactionHash": "0xb500a8f4ae22fa60d34d08649b91f0d03502236971f53b00c647ff0f93a997fd",
                        "type": "0x00",
                        "cumulativeGasUsed": "0x010982",
                        "bloom": "0x00000000000000000000000000000000000000000000000000000000000000000000000000000000000000000000000000000000000000000000000000000000000000000000000000000000000000000000000000000000000000000000000000000000000000000000000000000000000000000000000000000000000000000000000000000000000000000000000000000000000000000000000000000000000000000000000000000000000000000000000000000000000000000000000000000000000000000000000000000000000000000000000000000000000000000000000000000000000000000000000000000000000000000000000000000000",
                        "logs": [],
                        "status": true,
                        "rlp": "0xf901090183010982b9010000000000000000000000000000000000000000000000000000000000000000000000000000000000000000000000000000000000000000000000000000000000000000000000000000000000000000000000000000000000000000000000000000000000000000000000000000000000000000000000000000000000000000000000000000000000000000000000000000000000000000000000000000000000000000000000000000000000000000000000000000000000000000000000000000000000000000000000000000000000000000000000000000000000000000000000000000000000000000000000000000000000000000000000000000000000c0"
                    }
                ],
                "rlp": "0xf90281f90218a0bf17426ecfaef2ad3dfc57a09dba347896d643d9fe431eb4455b1f02d9c7f166a01dcc4de8dec75d7aab85b567b6ccd41ad312451b948a7413f0a142fd40d49347942adc25665018aa1fe0e6bc666dac8fc2697ff9baa01091bb1600519f94a382f2921528d7dd66ffe6d85540ec475eb474958973ff37a06420767a3f1c77abb13f718229cc9241aeddce0412c91aca1227b8c9dcbec8f0a02ab89a18d916ebe51698487b52c7ccd995495a95d4bdabcf1cf93aeb8d252839b901000000000000000000000000000000000000000000000000000000000000000000000000000000000000000000000000000000000000000000000000000000000000000000000000000000000000000000000000000000000000000000000000000000000000000000000000000000000000000000000000000000000000000000000000000000000000000000000000000000000000000000000000000000000000000000000000000000000000000000000000000000000000000000000000000000000000000000000000000000000000000000000000000000000000000000000000000000000000000000000000000000000000000000000000000000000080018407270e00830109828203e800a0000000000000000000000000000000000000000000000000000000000000000088000000000000000007a056e81f171bcc55a6ff8345e692c0f86e5b48e01b996cadc001622fb5e363b421f862f860800a830186a0942737b04e10c5878e3e37b58394a86fbda5a3fde7808025a0b13196c45e6c19e48047aef093e4558cdfb1fa27b35f11545cc61c2e759db5fda031a99f89f17ef38ee7097bc83fea95d1ce48ee5fdd35dd444f026dc78ced03ccc0c0",
                "blocknumber": "1"
            }
        ],
        "sealEngine": "NoProof",
        "_info": {
            "hash": "0x5fd840d41673a4cc4f3abe05d08950b504de2f529d8d3ce53e403286db5de98d",
            "fixture-format": "blockchain_test",
            "comment": "`execution-specs` generated test",
            "filling-transition-tool": "2.19.0",
            "description": "Test class documentation:\n\nTest the PUSH0 operation in various contract call contexts.\n\nTest PUSH0 in the following contract call contexts:\n\n- CALL,\n- CALLCODE,\n- DELEGATECALL,\n- STATICCALL.\n\n\nTest PUSH0 during various call contexts.",
            "url": "https://github.com/ethereum/execution-specs/blob/tests-bal@v5.7.0/tests/shanghai/eip3855_push0/test_push0.py#L138",
            "metadata": {
                "opcode_count": {}
            },
            "reference-spec": "https://github.com/ethereum/EIPs/blob/master/EIPS/eip-3855.md",
            "reference-spec-version": "6f85bd73336de4aacfad7ac3bb3a7e1ba2d68f51"
        }
    }
}