{
    "tests/ported_static/stCallDelegateCodesCallCodeHomestead/test_callcallcodecallcode_011_oogm_before.py::test_callcallcodecallcode_011_oogm_before[fork_Cancun-blockchain_test_from_state_test]": {
        "network": "Cancun",
        "genesisBlockHeader": {
            "parentHash": "0x0000000000000000000000000000000000000000000000000000000000000000",
            "uncleHash": "0x1dcc4de8dec75d7aab85b567b6ccd41ad312451b948a7413f0a142fd40d49347",
            "coinbase": "0x0000000000000000000000000000000000000000",
            "stateRoot": "0xce97f4f75dc1724ed9ed2e5bb8aa0fa5e778a5a369e180fb2e118f3114928326",
            "transactionsTrie": "0x56e81f171bcc55a6ff8345e692c0f86e5b48e01b996cadc001622fb5e363b421",
            "receiptTrie": "0x56e81f171bcc55a6ff8345e692c0f86e5b48e01b996cadc001622fb5e363b421",
            "bloom": "0x00000000000000000000000000000000000000000000000000000000000000000000000000000000000000000000000000000000000000000000000000000000000000000000000000000000000000000000000000000000000000000000000000000000000000000000000000000000000000000000000000000000000000000000000000000000000000000000000000000000000000000000000000000000000000000000000000000000000000000000000000000000000000000000000000000000000000000000000000000000000000000000000000000000000000000000000000000000000000000000000000000000000000000000000000000000",
            "difficulty": "0x00",
            "number": "0x00",
            "gasLimit": "0x01c9c380",
            "gasUsed": "0x00",
            "timestamp": "0x00",
            "extraData": "0x00",
            "mixHash": "0x0000000000000000000000000000000000000000000000000000000000000000",
            "nonce": "0x0000000000000000",
            "baseFeePerGas": "0x0b",
            "withdrawalsRoot": "0x56e81f171bcc55a6ff8345e692c0f86e5b48e01b996cadc001622fb5e363b421",
            "blobGasUsed": "0x00",
            "excessBlobGas": "0x00",
            "parentBeaconBlockRoot": "0x0000000000000000000000000000000000000000000000000000000000000000",
            "hash": "0xd2d8843fa310c00f08859715ca3573277fdc88c33c56c962b897686130bda350"
        },
        "pre": {
            "0x000f3df6d732807ef1319fb7b8bb8522d0beac02": {
                "nonce": "0x01",
                "balance": "0x00",
                "code": "0x3373fffffffffffffffffffffffffffffffffffffffe14604d57602036146024575f5ffd5b5f35801560495762001fff810690815414603c575f5ffd5b62001fff01545f5260205ff35b5f5ffd5b62001fff42064281555f359062001fff015500",
                "storage": {}
            },
            "0xd66f224cbd2fabb21b17bb53c56118f32f62ebd6": {
                "nonce": "0x00",
                "balance": "0x0de0b6b3a7640000",
                "code": "0x",
                "storage": {}
            },
            "0xf68e9b59ad48df3b9601ded50f7a1049113d801d": {
                "nonce": "0x00",
                "balance": "0x00",
                "code": "0x600160035500",
                "storage": {}
            },
            "0x45159725aa5838764923ada0d30d6ea83f84128e": {
                "nonce": "0x00",
                "balance": "0x00",
                "code": "0x622fffff60002050604060006040600073f68e9b59ad48df3b9601ded50f7a1049113d801d614e34f460025500",
                "storage": {}
            },
            "0x6e68cc09e6ac2214b080a6a394b80eca5801e861": {
                "nonce": "0x00",
                "balance": "0x00",
                "code": "0x60406000604060007345159725aa5838764923ada0d30d6ea83f84128e619c90f46001556001600b5500",
                "storage": {}
            },
            "0xd68856f511ea944b848645e853683fe70cdc5307": {
                "nonce": "0x00",
                "balance": "0x0de0b6b3a7640000",
                "code": "0x60406000604060006000736e68cc09e6ac2214b080a6a394b80eca5801e861620249f0f260005500",
                "storage": {}
            }
        },
        "postState": {
            "0x000f3df6d732807ef1319fb7b8bb8522d0beac02": {
                "nonce": "0x01",
                "balance": "0x00",
                "code": "0x3373fffffffffffffffffffffffffffffffffffffffe14604d57602036146024575f5ffd5b5f35801560495762001fff810690815414603c575f5ffd5b62001fff01545f5260205ff35b5f5ffd5b62001fff42064281555f359062001fff015500",
                "storage": {
                    "0x03e8": "0x03e8"
                }
            },
            "0xd66f224cbd2fabb21b17bb53c56118f32f62ebd6": {
                "nonce": "0x01",
                "balance": "0x0de0b6b3a752cbfa",
                "code": "0x",
                "storage": {}
            },
            "0xf68e9b59ad48df3b9601ded50f7a1049113d801d": {
                "nonce": "0x00",
                "balance": "0x00",
                "code": "0x600160035500",
                "storage": {}
            },
            "0x45159725aa5838764923ada0d30d6ea83f84128e": {
                "nonce": "0x00",
                "balance": "0x00",
                "code": "0x622fffff60002050604060006040600073f68e9b59ad48df3b9601ded50f7a1049113d801d614e34f460025500",
                "storage": {}
            },
            "0x6e68cc09e6ac2214b080a6a394b80eca5801e861": {
                "nonce": "0x00",
                "balance": "0x00",
                "code": "0x60406000604060007345159725aa5838764923ada0d30d6ea83f84128e619c90f46001556001600b5500",
                "storage": {}
            },
            "0xd68856f511ea944b848645e853683fe70cdc5307": {
                "nonce": "0x00",
                "balance": "0x0de0b6b3a7640000",
                "code": "0x60406000604060006000736e68cc09e6ac2214b080a6a394b80eca5801e861620249f0f260005500",
                "storage": {
                    "0x0b": "0x01",
                    "0x00": "0x01"
                }
            }
        },
        "lastblockhash": "0x6b3ee1b42d15d1164f8ec94e5521c87c0b432c530e38ed497b218159cc5fb11e",
        "config": {
            "network": "Cancun",
            "chainid": "0x01",
            "blobSchedule": {
                "Cancun": {
                    "target": "0x03",
                    "max": "0x06",
                    "baseFeeUpdateFraction": "0x32f0ed"
                }
            }
        },
        "genesisRLP": "0xf9023cf90236a00000000000000000000000000000000000000000000000000000000000000000a01dcc4de8dec75d7aab85b567b6ccd41ad312451b948a7413f0a142fd40d49347940000000000000000000000000000000000000000a0ce97f4f75dc1724ed9ed2e5bb8aa0fa5e778a5a369e180fb2e118f3114928326a056e81f171bcc55a6ff8345e692c0f86e5b48e01b996cadc001622fb5e363b421a056e81f171bcc55a6ff8345e692c0f86e5b48e01b996cadc001622fb5e363b421b901000000000000000000000000000000000000000000000000000000000000000000000000000000000000000000000000000000000000000000000000000000000000000000000000000000000000000000000000000000000000000000000000000000000000000000000000000000000000000000000000000000000000000000000000000000000000000000000000000000000000000000000000000000000000000000000000000000000000000000000000000000000000000000000000000000000000000000000000000000000000000000000000000000000000000000000000000000000000000000000000000000000000000000000000000000000080808401c9c380808000a000000000000000000000000000000000000000000000000000000000000000008800000000000000000ba056e81f171bcc55a6ff8345e692c0f86e5b48e01b996cadc001622fb5e363b4218080a00000000000000000000000000000000000000000000000000000000000000000c0c0c0",
        "blocks": [
            {
                "blockHeader": {
                    "parentHash": "0xd2d8843fa310c00f08859715ca3573277fdc88c33c56c962b897686130bda350",
                    "uncleHash": "0x1dcc4de8dec75d7aab85b567b6ccd41ad312451b948a7413f0a142fd40d49347",
                    "coinbase": "0x2adc25665018aa1fe0e6bc666dac8fc2697ff9ba",
                    "stateRoot": "0x7a78837a3af240544fbfd58a2b69aa6fc96e92472304a94cef5ba44af0a9351f",
                    "transactionsTrie": "0x9a1bf977e6e7b101abc33465b0b1aa373155f77832452d7a584e5219e0ce33b8",
                    "receiptTrie": "0x713a59822a1c4bd38f898aaa66da0716159659eec49d080e55bc8dd41c5ee674",
                    "bloom": "0x00000000000000000000000000000000000000000000000000000000000000000000000000000000000000000000000000000000000000000000000000000000000000000000000000000000000000000000000000000000000000000000000000000000000000000000000000000000000000000000000000000000000000000000000000000000000000000000000000000000000000000000000000000000000000000000000000000000000000000000000000000000000000000000000000000000000000000000000000000000000000000000000000000000000000000000000000000000000000000000000000000000000000000000000000000000",
                    "difficulty": "0x00",
                    "number": "0x01",
                    "gasLimit": "0x01c9c380",
                    "gasUsed": "0x01b867",
                    "timestamp": "0x03e8",
                    "extraData": "0x00",
                    "mixHash": "0x0000000000000000000000000000000000000000000000000000000000020000",
                    "nonce": "0x0000000000000000",
                    "baseFeePerGas": "0x0a",
                    "withdrawalsRoot": "0x56e81f171bcc55a6ff8345e692c0f86e5b48e01b996cadc001622fb5e363b421",
                    "blobGasUsed": "0x00",
                    "excessBlobGas": "0x00",
                    "parentBeaconBlockRoot": "0x0000000000000000000000000000000000000000000000000000000000000000",
                    "hash": "0x6b3ee1b42d15d1164f8ec94e5521c87c0b432c530e38ed497b218159cc5fb11e"
                },
                "transactions": [
                    {
                        "type": "0x00",
                        "chainId": "0x01",
                        "nonce": "0x00",
                        "gasPrice": "0x0a",
                        "gasLimit": "0x029fe0",
                        "to": "0xd68856f511ea944b848645e853683fe70cdc5307",
                        "value": "0x00",
                        "data": "0x",
                        "v": "0x26",
                        "r": "0x3e2cbf1a76882398265d6a82812f9ea47471b2c409b10cdea3ee0e2df078bf8f",
                        "s": "0x22dc7f722038751fe12cd14af22771c5115b8dcffcb0b758c4756ffec2d2d7f8",
                        "sender": "0xd66f224cbd2fabb21b17bb53c56118f32f62ebd6"
                    }
                ],
                "uncleHeaders": [],
                "withdrawals": [],
                "receipts": [
                    {
                        "transactionHash": "0xfb0a7bed29b5010d1b1bbacd9a6840d29b697f1209a24503b0338349c4bd2cd7",
                        "type": "0x00",
                        "cumulativeGasUsed": "0x01b867",
                        "bloom": "0x00000000000000000000000000000000000000000000000000000000000000000000000000000000000000000000000000000000000000000000000000000000000000000000000000000000000000000000000000000000000000000000000000000000000000000000000000000000000000000000000000000000000000000000000000000000000000000000000000000000000000000000000000000000000000000000000000000000000000000000000000000000000000000000000000000000000000000000000000000000000000000000000000000000000000000000000000000000000000000000000000000000000000000000000000000000",
                        "logs": [],
                        "status": true,
                        "rlp": "0xf90109018301b867b9010000000000000000000000000000000000000000000000000000000000000000000000000000000000000000000000000000000000000000000000000000000000000000000000000000000000000000000000000000000000000000000000000000000000000000000000000000000000000000000000000000000000000000000000000000000000000000000000000000000000000000000000000000000000000000000000000000000000000000000000000000000000000000000000000000000000000000000000000000000000000000000000000000000000000000000000000000000000000000000000000000000000000000000000000000000000c0"
                    }
                ],
                "rlp": "0xf902a4f9023ba0d2d8843fa310c00f08859715ca3573277fdc88c33c56c962b897686130bda350a01dcc4de8dec75d7aab85b567b6ccd41ad312451b948a7413f0a142fd40d49347942adc25665018aa1fe0e6bc666dac8fc2697ff9baa07a78837a3af240544fbfd58a2b69aa6fc96e92472304a94cef5ba44af0a9351fa09a1bf977e6e7b101abc33465b0b1aa373155f77832452d7a584e5219e0ce33b8a0713a59822a1c4bd38f898aaa66da0716159659eec49d080e55bc8dd41c5ee674b901000000000000000000000000000000000000000000000000000000000000000000000000000000000000000000000000000000000000000000000000000000000000000000000000000000000000000000000000000000000000000000000000000000000000000000000000000000000000000000000000000000000000000000000000000000000000000000000000000000000000000000000000000000000000000000000000000000000000000000000000000000000000000000000000000000000000000000000000000000000000000000000000000000000000000000000000000000000000000000000000000000000000000000000000000000000080018401c9c3808301b8678203e800a000000000000000000000000000000000000000000000000000000000000200008800000000000000000aa056e81f171bcc55a6ff8345e692c0f86e5b48e01b996cadc001622fb5e363b4218080a00000000000000000000000000000000000000000000000000000000000000000f862f860800a83029fe094d68856f511ea944b848645e853683fe70cdc5307808026a03e2cbf1a76882398265d6a82812f9ea47471b2c409b10cdea3ee0e2df078bf8fa022dc7f722038751fe12cd14af22771c5115b8dcffcb0b758c4756ffec2d2d7f8c0c0",
                "blocknumber": "1"
            }
        ],
        "sealEngine": "NoProof",
        "_info": {
            "hash": "0xeb6020de3d2da725000629f7b6d33662a97df1ee57de8d562d3701d8fcfd9574",
            "fixture-format": "blockchain_test",
            "comment": "`execution-specs` generated test",
            "filling-transition-tool": "2.19.0",
            "description": "CALLCODE -> DELEGATE -> OOG DELEGATE -> CODE.",
            "url": "https://github.com/ethereum/execution-specs/blob/tests-snobal-devnet-5@v8037.0.0/tests/ported_static/stCallDelegateCodesCallCodeHomestead/test_callcallcodecallcode_011_oogm_before.py#L24",
            "metadata": {
                "opcode_count": {}
            }
        }
    }
}