{
    "tests/constantinople/eip1052_extcodehash/test_extcodehash.py::test_extcodehash_call_to_nonexistent[fork_Shanghai-call_opcode_CALL-blockchain_test_from_state_test]": {
        "network": "Shanghai",
        "genesisBlockHeader": {
            "parentHash": "0x0000000000000000000000000000000000000000000000000000000000000000",
            "uncleHash": "0x1dcc4de8dec75d7aab85b567b6ccd41ad312451b948a7413f0a142fd40d49347",
            "coinbase": "0x0000000000000000000000000000000000000000",
            "stateRoot": "0x3f4a80c96bc414c70ad43e892369668eb7af9caf67d33f470e3303a715546a95",
            "transactionsTrie": "0x56e81f171bcc55a6ff8345e692c0f86e5b48e01b996cadc001622fb5e363b421",
            "receiptTrie": "0x56e81f171bcc55a6ff8345e692c0f86e5b48e01b996cadc001622fb5e363b421",
            "bloom": "0x00000000000000000000000000000000000000000000000000000000000000000000000000000000000000000000000000000000000000000000000000000000000000000000000000000000000000000000000000000000000000000000000000000000000000000000000000000000000000000000000000000000000000000000000000000000000000000000000000000000000000000000000000000000000000000000000000000000000000000000000000000000000000000000000000000000000000000000000000000000000000000000000000000000000000000000000000000000000000000000000000000000000000000000000000000000",
            "difficulty": "0x00",
            "number": "0x00",
            "gasLimit": "0x07270e00",
            "gasUsed": "0x00",
            "timestamp": "0x00",
            "extraData": "0x00",
            "mixHash": "0x0000000000000000000000000000000000000000000000000000000000000000",
            "nonce": "0x0000000000000000",
            "baseFeePerGas": "0x07",
            "withdrawalsRoot": "0x56e81f171bcc55a6ff8345e692c0f86e5b48e01b996cadc001622fb5e363b421",
            "hash": "0xce61e2ffc5422c0fa9a132f8a01607a2b4fe93ac138df374d25ea2eaaa3e8782"
        },
        "pre": {
            "0x94734f685580564673fa010f5e6957422af24171": {
                "nonce": "0x01",
                "balance": "0x00",
                "code": "0x6000600060006000600073c0f6dc9e5836f54caadbf59cc69346c508e1992b6161a8f160005573c0f6dc9e5836f54caadbf59cc69346c508e1992b3f600155",
                "storage": {
                    "0x01": "0xba5e"
                }
            },
            "0x1ad9bc24818784172ff393bb6f89f094d4d2ca29": {
                "nonce": "0x00",
                "balance": "0x3635c9adc5dea00000",
                "code": "0x",
                "storage": {}
            }
        },
        "postState": {
            "0x94734f685580564673fa010f5e6957422af24171": {
                "nonce": "0x01",
                "balance": "0x00",
                "code": "0x6000600060006000600073c0f6dc9e5836f54caadbf59cc69346c508e1992b6161a8f160005573c0f6dc9e5836f54caadbf59cc69346c508e1992b3f600155",
                "storage": {
                    "0x00": "0x01"
                }
            },
            "0x1ad9bc24818784172ff393bb6f89f094d4d2ca29": {
                "nonce": "0x01",
                "balance": "0x3635c9adc5de98f9f4",
                "code": "0x",
                "storage": {}
            },
            "0x2adc25665018aa1fe0e6bc666dac8fc2697ff9ba": {
                "nonce": "0x00",
                "balance": "0x021b6a",
                "code": "0x",
                "storage": {}
            }
        },
        "lastblockhash": "0xc0744a6a22ab5bace4a1ce3be2443738fbe331464bf2e4b509be0ce4049aa055",
        "config": {
            "network": "Shanghai",
            "chainid": "0x01"
        },
        "genesisRLP": "0xf90219f90213a00000000000000000000000000000000000000000000000000000000000000000a01dcc4de8dec75d7aab85b567b6ccd41ad312451b948a7413f0a142fd40d49347940000000000000000000000000000000000000000a03f4a80c96bc414c70ad43e892369668eb7af9caf67d33f470e3303a715546a95a056e81f171bcc55a6ff8345e692c0f86e5b48e01b996cadc001622fb5e363b421a056e81f171bcc55a6ff8345e692c0f86e5b48e01b996cadc001622fb5e363b421b901000000000000000000000000000000000000000000000000000000000000000000000000000000000000000000000000000000000000000000000000000000000000000000000000000000000000000000000000000000000000000000000000000000000000000000000000000000000000000000000000000000000000000000000000000000000000000000000000000000000000000000000000000000000000000000000000000000000000000000000000000000000000000000000000000000000000000000000000000000000000000000000000000000000000000000000000000000000000000000000000000000000000000000000000000000000080808407270e00808000a0000000000000000000000000000000000000000000000000000000000000000088000000000000000007a056e81f171bcc55a6ff8345e692c0f86e5b48e01b996cadc001622fb5e363b421c0c0c0",
        "blocks": [
            {
                "blockHeader": {
                    "parentHash": "0xce61e2ffc5422c0fa9a132f8a01607a2b4fe93ac138df374d25ea2eaaa3e8782",
                    "uncleHash": "0x1dcc4de8dec75d7aab85b567b6ccd41ad312451b948a7413f0a142fd40d49347",
                    "coinbase": "0x2adc25665018aa1fe0e6bc666dac8fc2697ff9ba",
                    "stateRoot": "0x263625224b50f44ce33d1df162e971f1a8cbc6cba659096bec005e881819d0c7",
                    "transactionsTrie": "0x7fc9f5ad76c6ec612843d6f6d1559f7301e251eb6f29ccc4919cb03fb301d598",
                    "receiptTrie": "0x77687ca9433183ade8d621a2fa5d1ac3171ece79936065e5023b3eb8092b26b9",
                    "bloom": "0x00000000000000000000000000000000000000000000000000000000000000000000000000000000000000000000000000000000000000000000000000000000000000000000000000000000000000000000000000000000000000000000000000000000000000000000000000000000000000000000000000000000000000000000000000000000000000000000000000000000000000000000000000000000000000000000000000000000000000000000000000000000000000000000000000000000000000000000000000000000000000000000000000000000000000000000000000000000000000000000000000000000000000000000000000000000",
                    "difficulty": "0x00",
                    "number": "0x01",
                    "gasLimit": "0x07270e00",
                    "gasUsed": "0xb3ce",
                    "timestamp": "0x03e8",
                    "extraData": "0x00",
                    "mixHash": "0x0000000000000000000000000000000000000000000000000000000000000000",
                    "nonce": "0x0000000000000000",
                    "baseFeePerGas": "0x07",
                    "withdrawalsRoot": "0x56e81f171bcc55a6ff8345e692c0f86e5b48e01b996cadc001622fb5e363b421",
                    "hash": "0xc0744a6a22ab5bace4a1ce3be2443738fbe331464bf2e4b509be0ce4049aa055"
                },
                "transactions": [
                    {
                        "type": "0x00",
                        "chainId": "0x01",
                        "nonce": "0x00",
                        "gasPrice": "0x0a",
                        "gasLimit": "0x061a80",
                        "to": "0x94734f685580564673fa010f5e6957422af24171",
                        "value": "0x00",
                        "data": "0x",
                        "v": "0x26",
                        "r": "0x6b547dddd19ac8ac2bf35c0b6244249d67d2074677356f2940ae632b4a52e08a",
                        "s": "0x20d9d4c3e40b85a281902762eca686f74c23ab26a5e8427d972580923b34f05d",
                        "sender": "0x1ad9bc24818784172ff393bb6f89f094d4d2ca29"
                    }
                ],
                "uncleHeaders": [],
                "withdrawals": [],
                "receipts": [
                    {
                        "transactionHash": "0x7acb8b53b395736913b9c1bc335baa4a9e880d2dfd9e4add03f2e56e800bc239",
                        "type": "0x00",
                        "cumulativeGasUsed": "0xb3ce",
                        "bloom": "0x00000000000000000000000000000000000000000000000000000000000000000000000000000000000000000000000000000000000000000000000000000000000000000000000000000000000000000000000000000000000000000000000000000000000000000000000000000000000000000000000000000000000000000000000000000000000000000000000000000000000000000000000000000000000000000000000000000000000000000000000000000000000000000000000000000000000000000000000000000000000000000000000000000000000000000000000000000000000000000000000000000000000000000000000000000000",
                        "logs": [],
                        "status": true,
                        "rlp": "0xf901080182b3ceb9010000000000000000000000000000000000000000000000000000000000000000000000000000000000000000000000000000000000000000000000000000000000000000000000000000000000000000000000000000000000000000000000000000000000000000000000000000000000000000000000000000000000000000000000000000000000000000000000000000000000000000000000000000000000000000000000000000000000000000000000000000000000000000000000000000000000000000000000000000000000000000000000000000000000000000000000000000000000000000000000000000000000000000000000000000000000c0"
                    }
                ],
                "rlp": "0xf90280f90217a0ce61e2ffc5422c0fa9a132f8a01607a2b4fe93ac138df374d25ea2eaaa3e8782a01dcc4de8dec75d7aab85b567b6ccd41ad312451b948a7413f0a142fd40d49347942adc25665018aa1fe0e6bc666dac8fc2697ff9baa0263625224b50f44ce33d1df162e971f1a8cbc6cba659096bec005e881819d0c7a07fc9f5ad76c6ec612843d6f6d1559f7301e251eb6f29ccc4919cb03fb301d598a077687ca9433183ade8d621a2fa5d1ac3171ece79936065e5023b3eb8092b26b9b901000000000000000000000000000000000000000000000000000000000000000000000000000000000000000000000000000000000000000000000000000000000000000000000000000000000000000000000000000000000000000000000000000000000000000000000000000000000000000000000000000000000000000000000000000000000000000000000000000000000000000000000000000000000000000000000000000000000000000000000000000000000000000000000000000000000000000000000000000000000000000000000000000000000000000000000000000000000000000000000000000000000000000000000000000000000080018407270e0082b3ce8203e800a0000000000000000000000000000000000000000000000000000000000000000088000000000000000007a056e81f171bcc55a6ff8345e692c0f86e5b48e01b996cadc001622fb5e363b421f862f860800a83061a809494734f685580564673fa010f5e6957422af24171808026a06b547dddd19ac8ac2bf35c0b6244249d67d2074677356f2940ae632b4a52e08aa020d9d4c3e40b85a281902762eca686f74c23ab26a5e8427d972580923b34f05dc0c0",
                "blocknumber": "1"
            }
        ],
        "sealEngine": "NoProof",
        "_info": {
            "hash": "0x8e57e4584ad4e009852fc61e12391affc48fc0d7677e9c29ab02a38731308bad",
            "fixture-format": "blockchain_test",
            "comment": "`execution-specs` generated test",
            "filling-transition-tool": "2.19.0",
            "description": "Test EXTCODEHASH after calling a non-existent account.\n\nCall a non-existent address using each call type, then check\nEXTCODEHASH \u2014 it returns 0 because the account does not exist.",
            "url": "https://github.com/ethereum/execution-specs/blob/tests-bal@v5.4.0/tests/constantinople/eip1052_extcodehash/test_extcodehash.py#L1210",
            "opcode_count": {},
            "reference-spec": "https://github.com/ethereum/EIPs/blob/master/EIPS/eip-1052.md",
            "reference-spec-version": "2dcbc7ce1563e9624e137e9d447374600af876fa"
        }
    },
    "tests/constantinople/eip1052_extcodehash/test_extcodehash.py::test_extcodehash_call_to_nonexistent[fork_Shanghai-call_opcode_CALLCODE-blockchain_test_from_state_test]": {
        "network": "Shanghai",
        "genesisBlockHeader": {
            "parentHash": "0x0000000000000000000000000000000000000000000000000000000000000000",
            "uncleHash": "0x1dcc4de8dec75d7aab85b567b6ccd41ad312451b948a7413f0a142fd40d49347",
            "coinbase": "0x0000000000000000000000000000000000000000",
            "stateRoot": "0x5647a72243d700dbd5c4794a560cb2eaf8a7a996e38bdc933842cf7e9e9a9227",
            "transactionsTrie": "0x56e81f171bcc55a6ff8345e692c0f86e5b48e01b996cadc001622fb5e363b421",
            "receiptTrie": "0x56e81f171bcc55a6ff8345e692c0f86e5b48e01b996cadc001622fb5e363b421",
            "bloom": "0x00000000000000000000000000000000000000000000000000000000000000000000000000000000000000000000000000000000000000000000000000000000000000000000000000000000000000000000000000000000000000000000000000000000000000000000000000000000000000000000000000000000000000000000000000000000000000000000000000000000000000000000000000000000000000000000000000000000000000000000000000000000000000000000000000000000000000000000000000000000000000000000000000000000000000000000000000000000000000000000000000000000000000000000000000000000",
            "difficulty": "0x00",
            "number": "0x00",
            "gasLimit": "0x07270e00",
            "gasUsed": "0x00",
            "timestamp": "0x00",
            "extraData": "0x00",
            "mixHash": "0x0000000000000000000000000000000000000000000000000000000000000000",
            "nonce": "0x0000000000000000",
            "baseFeePerGas": "0x07",
            "withdrawalsRoot": "0x56e81f171bcc55a6ff8345e692c0f86e5b48e01b996cadc001622fb5e363b421",
            "hash": "0xc391b37d6d69a1528e9dc56bc548c8c25028475ed797d823033f66adcf624aad"
        },
        "pre": {
            "0x5f212d0ccac6ddead31f793e0cd28cc45e914a20": {
                "nonce": "0x01",
                "balance": "0x00",
                "code": "0x6000600060006000600073c0f6dc9e5836f54caadbf59cc69346c508e1992b6161a8f260005573c0f6dc9e5836f54caadbf59cc69346c508e1992b3f600155",
                "storage": {
                    "0x01": "0xba5e"
                }
            },
            "0x1ad9bc24818784172ff393bb6f89f094d4d2ca29": {
                "nonce": "0x00",
                "balance": "0x3635c9adc5dea00000",
                "code": "0x",
                "storage": {}
            }
        },
        "postState": {
            "0x5f212d0ccac6ddead31f793e0cd28cc45e914a20": {
                "nonce": "0x01",
                "balance": "0x00",
                "code": "0x6000600060006000600073c0f6dc9e5836f54caadbf59cc69346c508e1992b6161a8f260005573c0f6dc9e5836f54caadbf59cc69346c508e1992b3f600155",
                "storage": {
                    "0x00": "0x01"
                }
            },
            "0x1ad9bc24818784172ff393bb6f89f094d4d2ca29": {
                "nonce": "0x01",
                "balance": "0x3635c9adc5de98f9f4",
                "code": "0x",
                "storage": {}
            },
            "0x2adc25665018aa1fe0e6bc666dac8fc2697ff9ba": {
                "nonce": "0x00",
                "balance": "0x021b6a",
                "code": "0x",
                "storage": {}
            }
        },
        "lastblockhash": "0xfd2d9a53cb0f16e18e028ef341854728e27621fbcff7c888759ebe5f087fd6b6",
        "config": {
            "network": "Shanghai",
            "chainid": "0x01"
        },
        "genesisRLP": "0xf90219f90213a00000000000000000000000000000000000000000000000000000000000000000a01dcc4de8dec75d7aab85b567b6ccd41ad312451b948a7413f0a142fd40d49347940000000000000000000000000000000000000000a05647a72243d700dbd5c4794a560cb2eaf8a7a996e38bdc933842cf7e9e9a9227a056e81f171bcc55a6ff8345e692c0f86e5b48e01b996cadc001622fb5e363b421a056e81f171bcc55a6ff8345e692c0f86e5b48e01b996cadc001622fb5e363b421b901000000000000000000000000000000000000000000000000000000000000000000000000000000000000000000000000000000000000000000000000000000000000000000000000000000000000000000000000000000000000000000000000000000000000000000000000000000000000000000000000000000000000000000000000000000000000000000000000000000000000000000000000000000000000000000000000000000000000000000000000000000000000000000000000000000000000000000000000000000000000000000000000000000000000000000000000000000000000000000000000000000000000000000000000000000000080808407270e00808000a0000000000000000000000000000000000000000000000000000000000000000088000000000000000007a056e81f171bcc55a6ff8345e692c0f86e5b48e01b996cadc001622fb5e363b421c0c0c0",
        "blocks": [
            {
                "blockHeader": {
                    "parentHash": "0xc391b37d6d69a1528e9dc56bc548c8c25028475ed797d823033f66adcf624aad",
                    "uncleHash": "0x1dcc4de8dec75d7aab85b567b6ccd41ad312451b948a7413f0a142fd40d49347",
                    "coinbase": "0x2adc25665018aa1fe0e6bc666dac8fc2697ff9ba",
                    "stateRoot": "0xad0adede34056ffa19f9036e81c3ac2c43c3d89d2bdd11c72a287454d9214284",
                    "transactionsTrie": "0xe260dcd5144c82135c16f9c8b8e247f181a0872bd96dd754e08618684a6a3529",
                    "receiptTrie": "0x77687ca9433183ade8d621a2fa5d1ac3171ece79936065e5023b3eb8092b26b9",
                    "bloom": "0x00000000000000000000000000000000000000000000000000000000000000000000000000000000000000000000000000000000000000000000000000000000000000000000000000000000000000000000000000000000000000000000000000000000000000000000000000000000000000000000000000000000000000000000000000000000000000000000000000000000000000000000000000000000000000000000000000000000000000000000000000000000000000000000000000000000000000000000000000000000000000000000000000000000000000000000000000000000000000000000000000000000000000000000000000000000",
                    "difficulty": "0x00",
                    "number": "0x01",
                    "gasLimit": "0x07270e00",
                    "gasUsed": "0xb3ce",
                    "timestamp": "0x03e8",
                    "extraData": "0x00",
                    "mixHash": "0x0000000000000000000000000000000000000000000000000000000000000000",
                    "nonce": "0x0000000000000000",
                    "baseFeePerGas": "0x07",
                    "withdrawalsRoot": "0x56e81f171bcc55a6ff8345e692c0f86e5b48e01b996cadc001622fb5e363b421",
                    "hash": "0xfd2d9a53cb0f16e18e028ef341854728e27621fbcff7c888759ebe5f087fd6b6"
                },
                "transactions": [
                    {
                        "type": "0x00",
                        "chainId": "0x01",
                        "nonce": "0x00",
                        "gasPrice": "0x0a",
                        "gasLimit": "0x061a80",
                        "to": "0x5f212d0ccac6ddead31f793e0cd28cc45e914a20",
                        "value": "0x00",
                        "data": "0x",
                        "v": "0x25",
                        "r": "0x923ee9477db0829a658a2de952fd41026ea9d804df68fb055b515b7b66a8fbe1",
                        "s": "0x0a680c40bdcec66066f7ef2ec511736b157c382272696131ea66bb6d07b86e68",
                        "sender": "0x1ad9bc24818784172ff393bb6f89f094d4d2ca29"
                    }
                ],
                "uncleHeaders": [],
                "withdrawals": [],
                "receipts": [
                    {
                        "transactionHash": "0x5598d981fb6662ea10a3f3cd53c3ff1bd10088733307a5a9d7e28351372b270b",
                        "type": "0x00",
                        "cumulativeGasUsed": "0xb3ce",
                        "bloom": "0x00000000000000000000000000000000000000000000000000000000000000000000000000000000000000000000000000000000000000000000000000000000000000000000000000000000000000000000000000000000000000000000000000000000000000000000000000000000000000000000000000000000000000000000000000000000000000000000000000000000000000000000000000000000000000000000000000000000000000000000000000000000000000000000000000000000000000000000000000000000000000000000000000000000000000000000000000000000000000000000000000000000000000000000000000000000",
                        "logs": [],
                        "status": true,
                        "rlp": "0xf901080182b3ceb9010000000000000000000000000000000000000000000000000000000000000000000000000000000000000000000000000000000000000000000000000000000000000000000000000000000000000000000000000000000000000000000000000000000000000000000000000000000000000000000000000000000000000000000000000000000000000000000000000000000000000000000000000000000000000000000000000000000000000000000000000000000000000000000000000000000000000000000000000000000000000000000000000000000000000000000000000000000000000000000000000000000000000000000000000000000000c0"
                    }
                ],
                "rlp": "0xf90280f90217a0c391b37d6d69a1528e9dc56bc548c8c25028475ed797d823033f66adcf624aada01dcc4de8dec75d7aab85b567b6ccd41ad312451b948a7413f0a142fd40d49347942adc25665018aa1fe0e6bc666dac8fc2697ff9baa0ad0adede34056ffa19f9036e81c3ac2c43c3d89d2bdd11c72a287454d9214284a0e260dcd5144c82135c16f9c8b8e247f181a0872bd96dd754e08618684a6a3529a077687ca9433183ade8d621a2fa5d1ac3171ece79936065e5023b3eb8092b26b9b901000000000000000000000000000000000000000000000000000000000000000000000000000000000000000000000000000000000000000000000000000000000000000000000000000000000000000000000000000000000000000000000000000000000000000000000000000000000000000000000000000000000000000000000000000000000000000000000000000000000000000000000000000000000000000000000000000000000000000000000000000000000000000000000000000000000000000000000000000000000000000000000000000000000000000000000000000000000000000000000000000000000000000000000000000000000080018407270e0082b3ce8203e800a0000000000000000000000000000000000000000000000000000000000000000088000000000000000007a056e81f171bcc55a6ff8345e692c0f86e5b48e01b996cadc001622fb5e363b421f862f860800a83061a80945f212d0ccac6ddead31f793e0cd28cc45e914a20808025a0923ee9477db0829a658a2de952fd41026ea9d804df68fb055b515b7b66a8fbe1a00a680c40bdcec66066f7ef2ec511736b157c382272696131ea66bb6d07b86e68c0c0",
                "blocknumber": "1"
            }
        ],
        "sealEngine": "NoProof",
        "_info": {
            "hash": "0x2b8bcd50012539a33b208f7ed182dde68973a05412d2f85b44297295f10843c8",
            "fixture-format": "blockchain_test",
            "comment": "`execution-specs` generated test",
            "filling-transition-tool": "2.19.0",
            "description": "Test EXTCODEHASH after calling a non-existent account.\n\nCall a non-existent address using each call type, then check\nEXTCODEHASH \u2014 it returns 0 because the account does not exist.",
            "url": "https://github.com/ethereum/execution-specs/blob/tests-bal@v5.4.0/tests/constantinople/eip1052_extcodehash/test_extcodehash.py#L1210",
            "opcode_count": {},
            "reference-spec": "https://github.com/ethereum/EIPs/blob/master/EIPS/eip-1052.md",
            "reference-spec-version": "2dcbc7ce1563e9624e137e9d447374600af876fa"
        }
    },
    "tests/constantinople/eip1052_extcodehash/test_extcodehash.py::test_extcodehash_call_to_nonexistent[fork_Shanghai-call_opcode_DELEGATECALL-blockchain_test_from_state_test]": {
        "network": "Shanghai",
        "genesisBlockHeader": {
            "parentHash": "0x0000000000000000000000000000000000000000000000000000000000000000",
            "uncleHash": "0x1dcc4de8dec75d7aab85b567b6ccd41ad312451b948a7413f0a142fd40d49347",
            "coinbase": "0x0000000000000000000000000000000000000000",
            "stateRoot": "0x8d22e554556276efe22abb7565dc6e98e1cc62a942bc8055c2dfb57691f5e351",
            "transactionsTrie": "0x56e81f171bcc55a6ff8345e692c0f86e5b48e01b996cadc001622fb5e363b421",
            "receiptTrie": "0x56e81f171bcc55a6ff8345e692c0f86e5b48e01b996cadc001622fb5e363b421",
            "bloom": "0x00000000000000000000000000000000000000000000000000000000000000000000000000000000000000000000000000000000000000000000000000000000000000000000000000000000000000000000000000000000000000000000000000000000000000000000000000000000000000000000000000000000000000000000000000000000000000000000000000000000000000000000000000000000000000000000000000000000000000000000000000000000000000000000000000000000000000000000000000000000000000000000000000000000000000000000000000000000000000000000000000000000000000000000000000000000",
            "difficulty": "0x00",
            "number": "0x00",
            "gasLimit": "0x07270e00",
            "gasUsed": "0x00",
            "timestamp": "0x00",
            "extraData": "0x00",
            "mixHash": "0x0000000000000000000000000000000000000000000000000000000000000000",
            "nonce": "0x0000000000000000",
            "baseFeePerGas": "0x07",
            "withdrawalsRoot": "0x56e81f171bcc55a6ff8345e692c0f86e5b48e01b996cadc001622fb5e363b421",
            "hash": "0xf4e830e67b3d53ca71d6d663d6f95616c928f77c421be9b53bc18da5322f9aec"
        },
        "pre": {
            "0x4f1c36edcc734ea5f5c2f69c6253a2a825c6e9c3": {
                "nonce": "0x01",
                "balance": "0x00",
                "code": "0x600060006000600073c0f6dc9e5836f54caadbf59cc69346c508e1992b6161a8f460005573c0f6dc9e5836f54caadbf59cc69346c508e1992b3f600155",
                "storage": {
                    "0x01": "0xba5e"
                }
            },
            "0x1ad9bc24818784172ff393bb6f89f094d4d2ca29": {
                "nonce": "0x00",
                "balance": "0x3635c9adc5dea00000",
                "code": "0x",
                "storage": {}
            }
        },
        "postState": {
            "0x4f1c36edcc734ea5f5c2f69c6253a2a825c6e9c3": {
                "nonce": "0x01",
                "balance": "0x00",
                "code": "0x600060006000600073c0f6dc9e5836f54caadbf59cc69346c508e1992b6161a8f460005573c0f6dc9e5836f54caadbf59cc69346c508e1992b3f600155",
                "storage": {
                    "0x00": "0x01"
                }
            },
            "0x1ad9bc24818784172ff393bb6f89f094d4d2ca29": {
                "nonce": "0x01",
                "balance": "0x3635c9adc5de98fa12",
                "code": "0x",
                "storage": {}
            },
            "0x2adc25665018aa1fe0e6bc666dac8fc2697ff9ba": {
                "nonce": "0x00",
                "balance": "0x021b61",
                "code": "0x",
                "storage": {}
            }
        },
        "lastblockhash": "0x8a3b9a19d7f3920a33d1ac24427185fc4aba155b3146e6db205990549af01bba",
        "config": {
            "network": "Shanghai",
            "chainid": "0x01"
        },
        "genesisRLP": "0xf90219f90213a00000000000000000000000000000000000000000000000000000000000000000a01dcc4de8dec75d7aab85b567b6ccd41ad312451b948a7413f0a142fd40d49347940000000000000000000000000000000000000000a08d22e554556276efe22abb7565dc6e98e1cc62a942bc8055c2dfb57691f5e351a056e81f171bcc55a6ff8345e692c0f86e5b48e01b996cadc001622fb5e363b421a056e81f171bcc55a6ff8345e692c0f86e5b48e01b996cadc001622fb5e363b421b901000000000000000000000000000000000000000000000000000000000000000000000000000000000000000000000000000000000000000000000000000000000000000000000000000000000000000000000000000000000000000000000000000000000000000000000000000000000000000000000000000000000000000000000000000000000000000000000000000000000000000000000000000000000000000000000000000000000000000000000000000000000000000000000000000000000000000000000000000000000000000000000000000000000000000000000000000000000000000000000000000000000000000000000000000000000080808407270e00808000a0000000000000000000000000000000000000000000000000000000000000000088000000000000000007a056e81f171bcc55a6ff8345e692c0f86e5b48e01b996cadc001622fb5e363b421c0c0c0",
        "blocks": [
            {
                "blockHeader": {
                    "parentHash": "0xf4e830e67b3d53ca71d6d663d6f95616c928f77c421be9b53bc18da5322f9aec",
                    "uncleHash": "0x1dcc4de8dec75d7aab85b567b6ccd41ad312451b948a7413f0a142fd40d49347",
                    "coinbase": "0x2adc25665018aa1fe0e6bc666dac8fc2697ff9ba",
                    "stateRoot": "0xf87f1c4c34e5ae4ada6c17ce7e4d7c2eda2928692abe35a17c353a7d85138bbf",
                    "transactionsTrie": "0xe787f50f4c89896baeb5316b2d7dbb6debea920d8421874c0d6393295cd14659",
                    "receiptTrie": "0x23d66267e27ccbddad3ad5e28f388b0f8357482179bc287c973046a7341fc054",
                    "bloom": "0x00000000000000000000000000000000000000000000000000000000000000000000000000000000000000000000000000000000000000000000000000000000000000000000000000000000000000000000000000000000000000000000000000000000000000000000000000000000000000000000000000000000000000000000000000000000000000000000000000000000000000000000000000000000000000000000000000000000000000000000000000000000000000000000000000000000000000000000000000000000000000000000000000000000000000000000000000000000000000000000000000000000000000000000000000000000",
                    "difficulty": "0x00",
                    "number": "0x01",
                    "gasLimit": "0x07270e00",
                    "gasUsed": "0xb3cb",
                    "timestamp": "0x03e8",
                    "extraData": "0x00",
                    "mixHash": "0x0000000000000000000000000000000000000000000000000000000000000000",
                    "nonce": "0x0000000000000000",
                    "baseFeePerGas": "0x07",
                    "withdrawalsRoot": "0x56e81f171bcc55a6ff8345e692c0f86e5b48e01b996cadc001622fb5e363b421",
                    "hash": "0x8a3b9a19d7f3920a33d1ac24427185fc4aba155b3146e6db205990549af01bba"
                },
                "transactions": [
                    {
                        "type": "0x00",
                        "chainId": "0x01",
                        "nonce": "0x00",
                        "gasPrice": "0x0a",
                        "gasLimit": "0x061a80",
                        "to": "0x4f1c36edcc734ea5f5c2f69c6253a2a825c6e9c3",
                        "value": "0x00",
                        "data": "0x",
                        "v": "0x26",
                        "r": "0xb8c21ab59169f59da1cb58effe50d44a3902de30787fff69f7055edf1ff078c9",
                        "s": "0x6935048d2f763e7d3f2dd0f41012bfffee1852397023a44e29ea42dc524d32a7",
                        "sender": "0x1ad9bc24818784172ff393bb6f89f094d4d2ca29"
                    }
                ],
                "uncleHeaders": [],
                "withdrawals": [],
                "receipts": [
                    {
                        "transactionHash": "0x26895dbb86abdfc40cc66069c09b92836fb294fbe026dfc51805cd48972d8860",
                        "type": "0x00",
                        "cumulativeGasUsed": "0xb3cb",
                        "bloom": "0x00000000000000000000000000000000000000000000000000000000000000000000000000000000000000000000000000000000000000000000000000000000000000000000000000000000000000000000000000000000000000000000000000000000000000000000000000000000000000000000000000000000000000000000000000000000000000000000000000000000000000000000000000000000000000000000000000000000000000000000000000000000000000000000000000000000000000000000000000000000000000000000000000000000000000000000000000000000000000000000000000000000000000000000000000000000",
                        "logs": [],
                        "status": true,
                        "rlp": "0xf901080182b3cbb9010000000000000000000000000000000000000000000000000000000000000000000000000000000000000000000000000000000000000000000000000000000000000000000000000000000000000000000000000000000000000000000000000000000000000000000000000000000000000000000000000000000000000000000000000000000000000000000000000000000000000000000000000000000000000000000000000000000000000000000000000000000000000000000000000000000000000000000000000000000000000000000000000000000000000000000000000000000000000000000000000000000000000000000000000000000000c0"
                    }
                ],
                "rlp": "0xf90280f90217a0f4e830e67b3d53ca71d6d663d6f95616c928f77c421be9b53bc18da5322f9aeca01dcc4de8dec75d7aab85b567b6ccd41ad312451b948a7413f0a142fd40d49347942adc25665018aa1fe0e6bc666dac8fc2697ff9baa0f87f1c4c34e5ae4ada6c17ce7e4d7c2eda2928692abe35a17c353a7d85138bbfa0e787f50f4c89896baeb5316b2d7dbb6debea920d8421874c0d6393295cd14659a023d66267e27ccbddad3ad5e28f388b0f8357482179bc287c973046a7341fc054b901000000000000000000000000000000000000000000000000000000000000000000000000000000000000000000000000000000000000000000000000000000000000000000000000000000000000000000000000000000000000000000000000000000000000000000000000000000000000000000000000000000000000000000000000000000000000000000000000000000000000000000000000000000000000000000000000000000000000000000000000000000000000000000000000000000000000000000000000000000000000000000000000000000000000000000000000000000000000000000000000000000000000000000000000000000000080018407270e0082b3cb8203e800a0000000000000000000000000000000000000000000000000000000000000000088000000000000000007a056e81f171bcc55a6ff8345e692c0f86e5b48e01b996cadc001622fb5e363b421f862f860800a83061a80944f1c36edcc734ea5f5c2f69c6253a2a825c6e9c3808026a0b8c21ab59169f59da1cb58effe50d44a3902de30787fff69f7055edf1ff078c9a06935048d2f763e7d3f2dd0f41012bfffee1852397023a44e29ea42dc524d32a7c0c0",
                "blocknumber": "1"
            }
        ],
        "sealEngine": "NoProof",
        "_info": {
            "hash": "0xb6c988d376943a11ca8862fbcf946e53b3ff63901384d6b1601dad788f80f20e",
            "fixture-format": "blockchain_test",
            "comment": "`execution-specs` generated test",
            "filling-transition-tool": "2.19.0",
            "description": "Test EXTCODEHASH after calling a non-existent account.\n\nCall a non-existent address using each call type, then check\nEXTCODEHASH \u2014 it returns 0 because the account does not exist.",
            "url": "https://github.com/ethereum/execution-specs/blob/tests-bal@v5.4.0/tests/constantinople/eip1052_extcodehash/test_extcodehash.py#L1210",
            "opcode_count": {},
            "reference-spec": "https://github.com/ethereum/EIPs/blob/master/EIPS/eip-1052.md",
            "reference-spec-version": "2dcbc7ce1563e9624e137e9d447374600af876fa"
        }
    },
    "tests/constantinople/eip1052_extcodehash/test_extcodehash.py::test_extcodehash_call_to_nonexistent[fork_Shanghai-call_opcode_STATICCALL-blockchain_test_from_state_test]": {
        "network": "Shanghai",
        "genesisBlockHeader": {
            "parentHash": "0x0000000000000000000000000000000000000000000000000000000000000000",
            "uncleHash": "0x1dcc4de8dec75d7aab85b567b6ccd41ad312451b948a7413f0a142fd40d49347",
            "coinbase": "0x0000000000000000000000000000000000000000",
            "stateRoot": "0x372a18c9a82c0bf1c8062020a2329c537b5894aa09d3022e36d82f249a670f3c",
            "transactionsTrie": "0x56e81f171bcc55a6ff8345e692c0f86e5b48e01b996cadc001622fb5e363b421",
            "receiptTrie": "0x56e81f171bcc55a6ff8345e692c0f86e5b48e01b996cadc001622fb5e363b421",
            "bloom": "0x00000000000000000000000000000000000000000000000000000000000000000000000000000000000000000000000000000000000000000000000000000000000000000000000000000000000000000000000000000000000000000000000000000000000000000000000000000000000000000000000000000000000000000000000000000000000000000000000000000000000000000000000000000000000000000000000000000000000000000000000000000000000000000000000000000000000000000000000000000000000000000000000000000000000000000000000000000000000000000000000000000000000000000000000000000000",
            "difficulty": "0x00",
            "number": "0x00",
            "gasLimit": "0x07270e00",
            "gasUsed": "0x00",
            "timestamp": "0x00",
            "extraData": "0x00",
            "mixHash": "0x0000000000000000000000000000000000000000000000000000000000000000",
            "nonce": "0x0000000000000000",
            "baseFeePerGas": "0x07",
            "withdrawalsRoot": "0x56e81f171bcc55a6ff8345e692c0f86e5b48e01b996cadc001622fb5e363b421",
            "hash": "0x95bf2c76fcf2a6179b949fd3f63149420ba001ecae48299a2e18f1a870814614"
        },
        "pre": {
            "0x83c828a86d4e617068f3a4a6f0cb46594d6b151a": {
                "nonce": "0x01",
                "balance": "0x00",
                "code": "0x600060006000600073c0f6dc9e5836f54caadbf59cc69346c508e1992b6161a8fa60005573c0f6dc9e5836f54caadbf59cc69346c508e1992b3f600155",
                "storage": {
                    "0x01": "0xba5e"
                }
            },
            "0x1ad9bc24818784172ff393bb6f89f094d4d2ca29": {
                "nonce": "0x00",
                "balance": "0x3635c9adc5dea00000",
                "code": "0x",
                "storage": {}
            }
        },
        "postState": {
            "0x83c828a86d4e617068f3a4a6f0cb46594d6b151a": {
                "nonce": "0x01",
                "balance": "0x00",
                "code": "0x600060006000600073c0f6dc9e5836f54caadbf59cc69346c508e1992b6161a8fa60005573c0f6dc9e5836f54caadbf59cc69346c508e1992b3f600155",
                "storage": {
                    "0x00": "0x01"
                }
            },
            "0x1ad9bc24818784172ff393bb6f89f094d4d2ca29": {
                "nonce": "0x01",
                "balance": "0x3635c9adc5de98fa12",
                "code": "0x",
                "storage": {}
            },
            "0x2adc25665018aa1fe0e6bc666dac8fc2697ff9ba": {
                "nonce": "0x00",
                "balance": "0x021b61",
                "code": "0x",
                "storage": {}
            }
        },
        "lastblockhash": "0xb24f321322f0fcd16d7ecdf944d2ecd7f7c4a721a2408713adbbca03f3403269",
        "config": {
            "network": "Shanghai",
            "chainid": "0x01"
        },
        "genesisRLP": "0xf90219f90213a00000000000000000000000000000000000000000000000000000000000000000a01dcc4de8dec75d7aab85b567b6ccd41ad312451b948a7413f0a142fd40d49347940000000000000000000000000000000000000000a0372a18c9a82c0bf1c8062020a2329c537b5894aa09d3022e36d82f249a670f3ca056e81f171bcc55a6ff8345e692c0f86e5b48e01b996cadc001622fb5e363b421a056e81f171bcc55a6ff8345e692c0f86e5b48e01b996cadc001622fb5e363b421b901000000000000000000000000000000000000000000000000000000000000000000000000000000000000000000000000000000000000000000000000000000000000000000000000000000000000000000000000000000000000000000000000000000000000000000000000000000000000000000000000000000000000000000000000000000000000000000000000000000000000000000000000000000000000000000000000000000000000000000000000000000000000000000000000000000000000000000000000000000000000000000000000000000000000000000000000000000000000000000000000000000000000000000000000000000000080808407270e00808000a0000000000000000000000000000000000000000000000000000000000000000088000000000000000007a056e81f171bcc55a6ff8345e692c0f86e5b48e01b996cadc001622fb5e363b421c0c0c0",
        "blocks": [
            {
                "blockHeader": {
                    "parentHash": "0x95bf2c76fcf2a6179b949fd3f63149420ba001ecae48299a2e18f1a870814614",
                    "uncleHash": "0x1dcc4de8dec75d7aab85b567b6ccd41ad312451b948a7413f0a142fd40d49347",
                    "coinbase": "0x2adc25665018aa1fe0e6bc666dac8fc2697ff9ba",
                    "stateRoot": "0x3c2817897e8e7527f956fc74ca4ec17d45f86d917a6b2c855ca96cb8f1a73293",
                    "transactionsTrie": "0x5b6eed87202fef5964018f774159ec7ed18be3493e5ea2cc9120e488e7c3f7c1",
                    "receiptTrie": "0x23d66267e27ccbddad3ad5e28f388b0f8357482179bc287c973046a7341fc054",
                    "bloom": "0x00000000000000000000000000000000000000000000000000000000000000000000000000000000000000000000000000000000000000000000000000000000000000000000000000000000000000000000000000000000000000000000000000000000000000000000000000000000000000000000000000000000000000000000000000000000000000000000000000000000000000000000000000000000000000000000000000000000000000000000000000000000000000000000000000000000000000000000000000000000000000000000000000000000000000000000000000000000000000000000000000000000000000000000000000000000",
                    "difficulty": "0x00",
                    "number": "0x01",
                    "gasLimit": "0x07270e00",
                    "gasUsed": "0xb3cb",
                    "timestamp": "0x03e8",
                    "extraData": "0x00",
                    "mixHash": "0x0000000000000000000000000000000000000000000000000000000000000000",
                    "nonce": "0x0000000000000000",
                    "baseFeePerGas": "0x07",
                    "withdrawalsRoot": "0x56e81f171bcc55a6ff8345e692c0f86e5b48e01b996cadc001622fb5e363b421",
                    "hash": "0xb24f321322f0fcd16d7ecdf944d2ecd7f7c4a721a2408713adbbca03f3403269"
                },
                "transactions": [
                    {
                        "type": "0x00",
                        "chainId": "0x01",
                        "nonce": "0x00",
                        "gasPrice": "0x0a",
                        "gasLimit": "0x061a80",
                        "to": "0x83c828a86d4e617068f3a4a6f0cb46594d6b151a",
                        "value": "0x00",
                        "data": "0x",
                        "v": "0x26",
                        "r": "0xa8a982a41a367f70a7b4da21a987f11541d052cbe604cc94c9c33c3cdc235dd0",
                        "s": "0x02c62835e8c55ea22a3f0c36b56cbb05ff6a29509f9f600e737033e778712de8",
                        "sender": "0x1ad9bc24818784172ff393bb6f89f094d4d2ca29"
                    }
                ],
                "uncleHeaders": [],
                "withdrawals": [],
                "receipts": [
                    {
                        "transactionHash": "0x1ec8c3c748d0c3e91427fabd5062c6b689dcff4dcdaaca4d87076ae4c33ae49b",
                        "type": "0x00",
                        "cumulativeGasUsed": "0xb3cb",
                        "bloom": "0x00000000000000000000000000000000000000000000000000000000000000000000000000000000000000000000000000000000000000000000000000000000000000000000000000000000000000000000000000000000000000000000000000000000000000000000000000000000000000000000000000000000000000000000000000000000000000000000000000000000000000000000000000000000000000000000000000000000000000000000000000000000000000000000000000000000000000000000000000000000000000000000000000000000000000000000000000000000000000000000000000000000000000000000000000000000",
                        "logs": [],
                        "status": true,
                        "rlp": "0xf901080182b3cbb9010000000000000000000000000000000000000000000000000000000000000000000000000000000000000000000000000000000000000000000000000000000000000000000000000000000000000000000000000000000000000000000000000000000000000000000000000000000000000000000000000000000000000000000000000000000000000000000000000000000000000000000000000000000000000000000000000000000000000000000000000000000000000000000000000000000000000000000000000000000000000000000000000000000000000000000000000000000000000000000000000000000000000000000000000000000000c0"
                    }
                ],
                "rlp": "0xf90280f90217a095bf2c76fcf2a6179b949fd3f63149420ba001ecae48299a2e18f1a870814614a01dcc4de8dec75d7aab85b567b6ccd41ad312451b948a7413f0a142fd40d49347942adc25665018aa1fe0e6bc666dac8fc2697ff9baa03c2817897e8e7527f956fc74ca4ec17d45f86d917a6b2c855ca96cb8f1a73293a05b6eed87202fef5964018f774159ec7ed18be3493e5ea2cc9120e488e7c3f7c1a023d66267e27ccbddad3ad5e28f388b0f8357482179bc287c973046a7341fc054b901000000000000000000000000000000000000000000000000000000000000000000000000000000000000000000000000000000000000000000000000000000000000000000000000000000000000000000000000000000000000000000000000000000000000000000000000000000000000000000000000000000000000000000000000000000000000000000000000000000000000000000000000000000000000000000000000000000000000000000000000000000000000000000000000000000000000000000000000000000000000000000000000000000000000000000000000000000000000000000000000000000000000000000000000000000000080018407270e0082b3cb8203e800a0000000000000000000000000000000000000000000000000000000000000000088000000000000000007a056e81f171bcc55a6ff8345e692c0f86e5b48e01b996cadc001622fb5e363b421f862f860800a83061a809483c828a86d4e617068f3a4a6f0cb46594d6b151a808026a0a8a982a41a367f70a7b4da21a987f11541d052cbe604cc94c9c33c3cdc235dd0a002c62835e8c55ea22a3f0c36b56cbb05ff6a29509f9f600e737033e778712de8c0c0",
                "blocknumber": "1"
            }
        ],
        "sealEngine": "NoProof",
        "_info": {
            "hash": "0xd95a88f2fd125581fcc031d5f470df5a985baa7094796712491a36c155990192",
            "fixture-format": "blockchain_test",
            "comment": "`execution-specs` generated test",
            "filling-transition-tool": "2.19.0",
            "description": "Test EXTCODEHASH after calling a non-existent account.\n\nCall a non-existent address using each call type, then check\nEXTCODEHASH \u2014 it returns 0 because the account does not exist.",
            "url": "https://github.com/ethereum/execution-specs/blob/tests-bal@v5.4.0/tests/constantinople/eip1052_extcodehash/test_extcodehash.py#L1210",
            "opcode_count": {},
            "reference-spec": "https://github.com/ethereum/EIPs/blob/master/EIPS/eip-1052.md",
            "reference-spec-version": "2dcbc7ce1563e9624e137e9d447374600af876fa"
        }
    }
}