{
    "tests/constantinople/eip1052_extcodehash/test_extcodehash.py::test_extcodehash_created_and_deleted[fork_Shanghai-blockchain_test_from_state_test-call]": {
        "network": "Shanghai",
        "genesisBlockHeader": {
            "parentHash": "0x0000000000000000000000000000000000000000000000000000000000000000",
            "uncleHash": "0x1dcc4de8dec75d7aab85b567b6ccd41ad312451b948a7413f0a142fd40d49347",
            "coinbase": "0x0000000000000000000000000000000000000000",
            "stateRoot": "0x3771572b9570549471a45aafc39431f63f2db7c1a446310deb79a654ddec741a",
            "transactionsTrie": "0x56e81f171bcc55a6ff8345e692c0f86e5b48e01b996cadc001622fb5e363b421",
            "receiptTrie": "0x56e81f171bcc55a6ff8345e692c0f86e5b48e01b996cadc001622fb5e363b421",
            "bloom": "0x00000000000000000000000000000000000000000000000000000000000000000000000000000000000000000000000000000000000000000000000000000000000000000000000000000000000000000000000000000000000000000000000000000000000000000000000000000000000000000000000000000000000000000000000000000000000000000000000000000000000000000000000000000000000000000000000000000000000000000000000000000000000000000000000000000000000000000000000000000000000000000000000000000000000000000000000000000000000000000000000000000000000000000000000000000000",
            "difficulty": "0x00",
            "number": "0x00",
            "gasLimit": "0x07270e00",
            "gasUsed": "0x00",
            "timestamp": "0x00",
            "extraData": "0x00",
            "mixHash": "0x0000000000000000000000000000000000000000000000000000000000000000",
            "nonce": "0x0000000000000000",
            "baseFeePerGas": "0x07",
            "withdrawalsRoot": "0x56e81f171bcc55a6ff8345e692c0f86e5b48e01b996cadc001622fb5e363b421",
            "hash": "0x5e8e0a73c7572543a870587406bcc91bb480901ec3cacab5f6481a2cc2bad20e"
        },
        "pre": {
            "0x038183b717bb2d14b99e7095a73e663f9ae9f5a3": {
                "nonce": "0x01",
                "balance": "0x00",
                "code": "0x7f610003600081600b8239f36000ff0000000000000000000000000000000000006000526010600e60006000f56000556000543f6001556000543b6002556020600060006000543c6000516003556000600060006000600060005462010000f1506000543f6004556000543b6005556020600060006000543c600051600655",
                "storage": {
                    "0x00": "0xba5e"
                }
            },
            "0x1ad9bc24818784172ff393bb6f89f094d4d2ca29": {
                "nonce": "0x00",
                "balance": "0x3635c9adc5dea00000",
                "code": "0x",
                "storage": {}
            }
        },
        "postState": {
            "0x038183b717bb2d14b99e7095a73e663f9ae9f5a3": {
                "nonce": "0x02",
                "balance": "0x00",
                "code": "0x7f610003600081600b8239f36000ff0000000000000000000000000000000000006000526010600e60006000f56000556000543f6001556000543b6002556020600060006000543c6000516003556000600060006000600060005462010000f1506000543f6004556000543b6005556020600060006000543c600051600655",
                "storage": {
                    "0x00": "0x7467977e25e7fb202abb90f42280dfd8db234dec",
                    "0x01": "0x396daaf3a7871f857cc9b5878c6bb66c394a6d109706095617db9f4e4c22edcd",
                    "0x02": "0x03",
                    "0x03": "0x6000ff0000000000000000000000000000000000000000000000000000000000",
                    "0x04": "0x396daaf3a7871f857cc9b5878c6bb66c394a6d109706095617db9f4e4c22edcd",
                    "0x05": "0x03",
                    "0x06": "0x6000ff0000000000000000000000000000000000000000000000000000000000"
                }
            },
            "0x1ad9bc24818784172ff393bb6f89f094d4d2ca29": {
                "nonce": "0x01",
                "balance": "0x3635c9adc5de816d8e",
                "code": "0x",
                "storage": {}
            },
            "0x2adc25665018aa1fe0e6bc666dac8fc2697ff9ba": {
                "nonce": "0x00",
                "balance": "0x092bef",
                "code": "0x",
                "storage": {}
            }
        },
        "lastblockhash": "0x46ee430f07a7585bb4a6f4ce043878a512c8f891586db33660ced6c141a853e7",
        "config": {
            "network": "Shanghai",
            "chainid": "0x01"
        },
        "genesisRLP": "0xf90219f90213a00000000000000000000000000000000000000000000000000000000000000000a01dcc4de8dec75d7aab85b567b6ccd41ad312451b948a7413f0a142fd40d49347940000000000000000000000000000000000000000a03771572b9570549471a45aafc39431f63f2db7c1a446310deb79a654ddec741aa056e81f171bcc55a6ff8345e692c0f86e5b48e01b996cadc001622fb5e363b421a056e81f171bcc55a6ff8345e692c0f86e5b48e01b996cadc001622fb5e363b421b901000000000000000000000000000000000000000000000000000000000000000000000000000000000000000000000000000000000000000000000000000000000000000000000000000000000000000000000000000000000000000000000000000000000000000000000000000000000000000000000000000000000000000000000000000000000000000000000000000000000000000000000000000000000000000000000000000000000000000000000000000000000000000000000000000000000000000000000000000000000000000000000000000000000000000000000000000000000000000000000000000000000000000000000000000000000080808407270e00808000a0000000000000000000000000000000000000000000000000000000000000000088000000000000000007a056e81f171bcc55a6ff8345e692c0f86e5b48e01b996cadc001622fb5e363b421c0c0c0",
        "blocks": [
            {
                "blockHeader": {
                    "parentHash": "0x5e8e0a73c7572543a870587406bcc91bb480901ec3cacab5f6481a2cc2bad20e",
                    "uncleHash": "0x1dcc4de8dec75d7aab85b567b6ccd41ad312451b948a7413f0a142fd40d49347",
                    "coinbase": "0x2adc25665018aa1fe0e6bc666dac8fc2697ff9ba",
                    "stateRoot": "0x768d36a699070019665610b2683d10ceb08cba26b8fde3c0ff4fa4ba79611cec",
                    "transactionsTrie": "0x29fcda7abe19ac2a4fc13ca0d58e0eced40b84a353da0ed5a69c602945336a7e",
                    "receiptTrie": "0x362785ef2c81ebd2b3bfd17b721982e2c623209536ae8838a443614f465449de",
                    "bloom": "0x00000000000000000000000000000000000000000000000000000000000000000000000000000000000000000000000000000000000000000000000000000000000000000000000000000000000000000000000000000000000000000000000000000000000000000000000000000000000000000000000000000000000000000000000000000000000000000000000000000000000000000000000000000000000000000000000000000000000000000000000000000000000000000000000000000000000000000000000000000000000000000000000000000000000000000000000000000000000000000000000000000000000000000000000000000000",
                    "difficulty": "0x00",
                    "number": "0x01",
                    "gasLimit": "0x07270e00",
                    "gasUsed": "0x030ea5",
                    "timestamp": "0x03e8",
                    "extraData": "0x00",
                    "mixHash": "0x0000000000000000000000000000000000000000000000000000000000000000",
                    "nonce": "0x0000000000000000",
                    "baseFeePerGas": "0x07",
                    "withdrawalsRoot": "0x56e81f171bcc55a6ff8345e692c0f86e5b48e01b996cadc001622fb5e363b421",
                    "hash": "0x46ee430f07a7585bb4a6f4ce043878a512c8f891586db33660ced6c141a853e7"
                },
                "transactions": [
                    {
                        "type": "0x00",
                        "chainId": "0x01",
                        "nonce": "0x00",
                        "gasPrice": "0x0a",
                        "gasLimit": "0x0f4240",
                        "to": "0x038183b717bb2d14b99e7095a73e663f9ae9f5a3",
                        "value": "0x00",
                        "data": "0x",
                        "v": "0x25",
                        "r": "0x899d575715907af0aa791e0c0c96347da24ae015ec15c4dfe6cc6b6f2eaebc97",
                        "s": "0x0a24b26facc23ef7c3c92784724513f5d2ae2e40c18b25953a5c24a37c7ade13",
                        "sender": "0x1ad9bc24818784172ff393bb6f89f094d4d2ca29"
                    }
                ],
                "uncleHeaders": [],
                "withdrawals": [],
                "receipts": [
                    {
                        "transactionHash": "0x2307545e4b0a960c801c23dc381dbbf0558e79a342e228a771d5215f43487c9c",
                        "type": "0x00",
                        "cumulativeGasUsed": "0x030ea5",
                        "bloom": "0x00000000000000000000000000000000000000000000000000000000000000000000000000000000000000000000000000000000000000000000000000000000000000000000000000000000000000000000000000000000000000000000000000000000000000000000000000000000000000000000000000000000000000000000000000000000000000000000000000000000000000000000000000000000000000000000000000000000000000000000000000000000000000000000000000000000000000000000000000000000000000000000000000000000000000000000000000000000000000000000000000000000000000000000000000000000",
                        "logs": [],
                        "status": true,
                        "rlp": "0xf901090183030ea5b9010000000000000000000000000000000000000000000000000000000000000000000000000000000000000000000000000000000000000000000000000000000000000000000000000000000000000000000000000000000000000000000000000000000000000000000000000000000000000000000000000000000000000000000000000000000000000000000000000000000000000000000000000000000000000000000000000000000000000000000000000000000000000000000000000000000000000000000000000000000000000000000000000000000000000000000000000000000000000000000000000000000000000000000000000000000000c0"
                    }
                ],
                "rlp": "0xf90281f90218a05e8e0a73c7572543a870587406bcc91bb480901ec3cacab5f6481a2cc2bad20ea01dcc4de8dec75d7aab85b567b6ccd41ad312451b948a7413f0a142fd40d49347942adc25665018aa1fe0e6bc666dac8fc2697ff9baa0768d36a699070019665610b2683d10ceb08cba26b8fde3c0ff4fa4ba79611ceca029fcda7abe19ac2a4fc13ca0d58e0eced40b84a353da0ed5a69c602945336a7ea0362785ef2c81ebd2b3bfd17b721982e2c623209536ae8838a443614f465449deb901000000000000000000000000000000000000000000000000000000000000000000000000000000000000000000000000000000000000000000000000000000000000000000000000000000000000000000000000000000000000000000000000000000000000000000000000000000000000000000000000000000000000000000000000000000000000000000000000000000000000000000000000000000000000000000000000000000000000000000000000000000000000000000000000000000000000000000000000000000000000000000000000000000000000000000000000000000000000000000000000000000000000000000000000000000000080018407270e0083030ea58203e800a0000000000000000000000000000000000000000000000000000000000000000088000000000000000007a056e81f171bcc55a6ff8345e692c0f86e5b48e01b996cadc001622fb5e363b421f862f860800a830f424094038183b717bb2d14b99e7095a73e663f9ae9f5a3808025a0899d575715907af0aa791e0c0c96347da24ae015ec15c4dfe6cc6b6f2eaebc97a00a24b26facc23ef7c3c92784724513f5d2ae2e40c18b25953a5c24a37c7ade13c0c0",
                "blocknumber": "1"
            }
        ],
        "sealEngine": "NoProof",
        "_info": {
            "hash": "0xc46eda1e4bc3fe847c1a95e9cca122a40288ceb2886c98e3609e1a731c3d8493",
            "fixture-format": "blockchain_test",
            "comment": "`execution-specs` generated test",
            "filling-transition-tool": "2.19.0",
            "description": "Test EXTCODEHASH of an account created and selfdestructed in same tx.\n\nCREATE2 a contract with SELFDESTRUCT code, check EXTCODEHASH,\nEXTCODESIZE, and EXTCODECOPY before and after triggering it. Within\nthe transaction, the values remain unchanged. With CALL the created\ncontract is deleted at end of transaction; with STATICCALL the\ntrigger fails and the contract persists.",
            "url": "https://github.com/ethereum/execution-specs/blob/tests-bal@v5.5.1/tests/constantinople/eip1052_extcodehash/test_extcodehash.py#L1316",
            "opcode_count": {},
            "reference-spec": "https://github.com/ethereum/EIPs/blob/master/EIPS/eip-1052.md",
            "reference-spec-version": "2dcbc7ce1563e9624e137e9d447374600af876fa"
        }
    },
    "tests/constantinople/eip1052_extcodehash/test_extcodehash.py::test_extcodehash_created_and_deleted[fork_Shanghai-blockchain_test_from_state_test-staticcall]": {
        "network": "Shanghai",
        "genesisBlockHeader": {
            "parentHash": "0x0000000000000000000000000000000000000000000000000000000000000000",
            "uncleHash": "0x1dcc4de8dec75d7aab85b567b6ccd41ad312451b948a7413f0a142fd40d49347",
            "coinbase": "0x0000000000000000000000000000000000000000",
            "stateRoot": "0xb7f753c5d68e2c979d3846f13b3fcc1564d37c566b2cbe8bfe5148032afef7f3",
            "transactionsTrie": "0x56e81f171bcc55a6ff8345e692c0f86e5b48e01b996cadc001622fb5e363b421",
            "receiptTrie": "0x56e81f171bcc55a6ff8345e692c0f86e5b48e01b996cadc001622fb5e363b421",
            "bloom": "0x00000000000000000000000000000000000000000000000000000000000000000000000000000000000000000000000000000000000000000000000000000000000000000000000000000000000000000000000000000000000000000000000000000000000000000000000000000000000000000000000000000000000000000000000000000000000000000000000000000000000000000000000000000000000000000000000000000000000000000000000000000000000000000000000000000000000000000000000000000000000000000000000000000000000000000000000000000000000000000000000000000000000000000000000000000000",
            "difficulty": "0x00",
            "number": "0x00",
            "gasLimit": "0x07270e00",
            "gasUsed": "0x00",
            "timestamp": "0x00",
            "extraData": "0x00",
            "mixHash": "0x0000000000000000000000000000000000000000000000000000000000000000",
            "nonce": "0x0000000000000000",
            "baseFeePerGas": "0x07",
            "withdrawalsRoot": "0x56e81f171bcc55a6ff8345e692c0f86e5b48e01b996cadc001622fb5e363b421",
            "hash": "0x251b9c6e23efd4098ec53c3c90ee4608358c270457a6247a79ce725359b68fa0"
        },
        "pre": {
            "0x0e76b1355a4470c8f32fecfc74cc88c97ffa3303": {
                "nonce": "0x01",
                "balance": "0x00",
                "code": "0x7f610003600081600b8239f36000ff0000000000000000000000000000000000006000526010600e60006000f56000556000543f6001556000543b6002556020600060006000543c600051600355600060006000600060005462010000fa506000543f6004556000543b6005556020600060006000543c600051600655",
                "storage": {
                    "0x00": "0xba5e"
                }
            },
            "0x1ad9bc24818784172ff393bb6f89f094d4d2ca29": {
                "nonce": "0x00",
                "balance": "0x3635c9adc5dea00000",
                "code": "0x",
                "storage": {}
            }
        },
        "postState": {
            "0x0e76b1355a4470c8f32fecfc74cc88c97ffa3303": {
                "nonce": "0x02",
                "balance": "0x00",
                "code": "0x7f610003600081600b8239f36000ff0000000000000000000000000000000000006000526010600e60006000f56000556000543f6001556000543b6002556020600060006000543c600051600355600060006000600060005462010000fa506000543f6004556000543b6005556020600060006000543c600051600655",
                "storage": {
                    "0x00": "0xa386ad0d8071981082960f9e64396afda92a7444",
                    "0x01": "0x396daaf3a7871f857cc9b5878c6bb66c394a6d109706095617db9f4e4c22edcd",
                    "0x02": "0x03",
                    "0x03": "0x6000ff0000000000000000000000000000000000000000000000000000000000",
                    "0x04": "0x396daaf3a7871f857cc9b5878c6bb66c394a6d109706095617db9f4e4c22edcd",
                    "0x05": "0x03",
                    "0x06": "0x6000ff0000000000000000000000000000000000000000000000000000000000"
                }
            },
            "0x1ad9bc24818784172ff393bb6f89f094d4d2ca29": {
                "nonce": "0x01",
                "balance": "0x3635c9adc5de7896aa",
                "code": "0x",
                "storage": {}
            },
            "0xa386ad0d8071981082960f9e64396afda92a7444": {
                "nonce": "0x01",
                "balance": "0x00",
                "code": "0x6000ff",
                "storage": {}
            },
            "0x2adc25665018aa1fe0e6bc666dac8fc2697ff9ba": {
                "nonce": "0x00",
                "balance": "0x0bd2cd",
                "code": "0x",
                "storage": {}
            }
        },
        "lastblockhash": "0xbc84642addc9f5548135558b9006b3e0ef335ccd3a4c6aa70ac08a1fc4f5ebaa",
        "config": {
            "network": "Shanghai",
            "chainid": "0x01"
        },
        "genesisRLP": "0xf90219f90213a00000000000000000000000000000000000000000000000000000000000000000a01dcc4de8dec75d7aab85b567b6ccd41ad312451b948a7413f0a142fd40d49347940000000000000000000000000000000000000000a0b7f753c5d68e2c979d3846f13b3fcc1564d37c566b2cbe8bfe5148032afef7f3a056e81f171bcc55a6ff8345e692c0f86e5b48e01b996cadc001622fb5e363b421a056e81f171bcc55a6ff8345e692c0f86e5b48e01b996cadc001622fb5e363b421b901000000000000000000000000000000000000000000000000000000000000000000000000000000000000000000000000000000000000000000000000000000000000000000000000000000000000000000000000000000000000000000000000000000000000000000000000000000000000000000000000000000000000000000000000000000000000000000000000000000000000000000000000000000000000000000000000000000000000000000000000000000000000000000000000000000000000000000000000000000000000000000000000000000000000000000000000000000000000000000000000000000000000000000000000000000000080808407270e00808000a0000000000000000000000000000000000000000000000000000000000000000088000000000000000007a056e81f171bcc55a6ff8345e692c0f86e5b48e01b996cadc001622fb5e363b421c0c0c0",
        "blocks": [
            {
                "blockHeader": {
                    "parentHash": "0x251b9c6e23efd4098ec53c3c90ee4608358c270457a6247a79ce725359b68fa0",
                    "uncleHash": "0x1dcc4de8dec75d7aab85b567b6ccd41ad312451b948a7413f0a142fd40d49347",
                    "coinbase": "0x2adc25665018aa1fe0e6bc666dac8fc2697ff9ba",
                    "stateRoot": "0x14858b858e3ffaefe79e704bc359421df6cbaa2830ea6f206a5a6da26eeb8e22",
                    "transactionsTrie": "0x6f8199673f3cae9efb4dc7ba41e1bc0479f2c2c1c1a4153374325bd7e0de20b4",
                    "receiptTrie": "0xc6a00f3805325e606036bb07dfdb2ac44572b79da59dc35e1973bda054a34ffa",
                    "bloom": "0x00000000000000000000000000000000000000000000000000000000000000000000000000000000000000000000000000000000000000000000000000000000000000000000000000000000000000000000000000000000000000000000000000000000000000000000000000000000000000000000000000000000000000000000000000000000000000000000000000000000000000000000000000000000000000000000000000000000000000000000000000000000000000000000000000000000000000000000000000000000000000000000000000000000000000000000000000000000000000000000000000000000000000000000000000000000",
                    "difficulty": "0x00",
                    "number": "0x01",
                    "gasLimit": "0x07270e00",
                    "gasUsed": "0x03f0ef",
                    "timestamp": "0x03e8",
                    "extraData": "0x00",
                    "mixHash": "0x0000000000000000000000000000000000000000000000000000000000000000",
                    "nonce": "0x0000000000000000",
                    "baseFeePerGas": "0x07",
                    "withdrawalsRoot": "0x56e81f171bcc55a6ff8345e692c0f86e5b48e01b996cadc001622fb5e363b421",
                    "hash": "0xbc84642addc9f5548135558b9006b3e0ef335ccd3a4c6aa70ac08a1fc4f5ebaa"
                },
                "transactions": [
                    {
                        "type": "0x00",
                        "chainId": "0x01",
                        "nonce": "0x00",
                        "gasPrice": "0x0a",
                        "gasLimit": "0x0f4240",
                        "to": "0x0e76b1355a4470c8f32fecfc74cc88c97ffa3303",
                        "value": "0x00",
                        "data": "0x",
                        "v": "0x25",
                        "r": "0xbf45b37d4802c31d5d1ba4b335078769e13fde9aa52dfafc3a3585da4fed0002",
                        "s": "0x33335069b05aab9ae61d11841c4f941ef31b03aadc3461f2122de44c87152d6b",
                        "sender": "0x1ad9bc24818784172ff393bb6f89f094d4d2ca29"
                    }
                ],
                "uncleHeaders": [],
                "withdrawals": [],
                "receipts": [
                    {
                        "transactionHash": "0x59bd347b63630ce190a994b166314cee3673bcc336f686432f42de5eb6768216",
                        "type": "0x00",
                        "cumulativeGasUsed": "0x03f0ef",
                        "bloom": "0x00000000000000000000000000000000000000000000000000000000000000000000000000000000000000000000000000000000000000000000000000000000000000000000000000000000000000000000000000000000000000000000000000000000000000000000000000000000000000000000000000000000000000000000000000000000000000000000000000000000000000000000000000000000000000000000000000000000000000000000000000000000000000000000000000000000000000000000000000000000000000000000000000000000000000000000000000000000000000000000000000000000000000000000000000000000",
                        "logs": [],
                        "status": true,
                        "rlp": "0xf90109018303f0efb9010000000000000000000000000000000000000000000000000000000000000000000000000000000000000000000000000000000000000000000000000000000000000000000000000000000000000000000000000000000000000000000000000000000000000000000000000000000000000000000000000000000000000000000000000000000000000000000000000000000000000000000000000000000000000000000000000000000000000000000000000000000000000000000000000000000000000000000000000000000000000000000000000000000000000000000000000000000000000000000000000000000000000000000000000000000000c0"
                    }
                ],
                "rlp": "0xf90281f90218a0251b9c6e23efd4098ec53c3c90ee4608358c270457a6247a79ce725359b68fa0a01dcc4de8dec75d7aab85b567b6ccd41ad312451b948a7413f0a142fd40d49347942adc25665018aa1fe0e6bc666dac8fc2697ff9baa014858b858e3ffaefe79e704bc359421df6cbaa2830ea6f206a5a6da26eeb8e22a06f8199673f3cae9efb4dc7ba41e1bc0479f2c2c1c1a4153374325bd7e0de20b4a0c6a00f3805325e606036bb07dfdb2ac44572b79da59dc35e1973bda054a34ffab901000000000000000000000000000000000000000000000000000000000000000000000000000000000000000000000000000000000000000000000000000000000000000000000000000000000000000000000000000000000000000000000000000000000000000000000000000000000000000000000000000000000000000000000000000000000000000000000000000000000000000000000000000000000000000000000000000000000000000000000000000000000000000000000000000000000000000000000000000000000000000000000000000000000000000000000000000000000000000000000000000000000000000000000000000000000080018407270e008303f0ef8203e800a0000000000000000000000000000000000000000000000000000000000000000088000000000000000007a056e81f171bcc55a6ff8345e692c0f86e5b48e01b996cadc001622fb5e363b421f862f860800a830f4240940e76b1355a4470c8f32fecfc74cc88c97ffa3303808025a0bf45b37d4802c31d5d1ba4b335078769e13fde9aa52dfafc3a3585da4fed0002a033335069b05aab9ae61d11841c4f941ef31b03aadc3461f2122de44c87152d6bc0c0",
                "blocknumber": "1"
            }
        ],
        "sealEngine": "NoProof",
        "_info": {
            "hash": "0x0206221e31bc082ee866569003044e9a4572f1120df4d598f754365bdf2435cc",
            "fixture-format": "blockchain_test",
            "comment": "`execution-specs` generated test",
            "filling-transition-tool": "2.19.0",
            "description": "Test EXTCODEHASH of an account created and selfdestructed in same tx.\n\nCREATE2 a contract with SELFDESTRUCT code, check EXTCODEHASH,\nEXTCODESIZE, and EXTCODECOPY before and after triggering it. Within\nthe transaction, the values remain unchanged. With CALL the created\ncontract is deleted at end of transaction; with STATICCALL the\ntrigger fails and the contract persists.",
            "url": "https://github.com/ethereum/execution-specs/blob/tests-bal@v5.5.1/tests/constantinople/eip1052_extcodehash/test_extcodehash.py#L1316",
            "opcode_count": {},
            "reference-spec": "https://github.com/ethereum/EIPs/blob/master/EIPS/eip-1052.md",
            "reference-spec-version": "2dcbc7ce1563e9624e137e9d447374600af876fa"
        }
    }
}