{
    "tests/ported_static/stReturnDataTest/test_returndatasize_after_failing_callcode.py::test_returndatasize_after_failing_callcode[fork_Cancun-blockchain_test_from_state_test]": {
        "network": "Cancun",
        "genesisBlockHeader": {
            "parentHash": "0x0000000000000000000000000000000000000000000000000000000000000000",
            "uncleHash": "0x1dcc4de8dec75d7aab85b567b6ccd41ad312451b948a7413f0a142fd40d49347",
            "coinbase": "0x0000000000000000000000000000000000000000",
            "stateRoot": "0xcb44edd0c01a56e896376e84136d4befa0f6fb41f8268203c3e7b58a8cbc23cf",
            "transactionsTrie": "0x56e81f171bcc55a6ff8345e692c0f86e5b48e01b996cadc001622fb5e363b421",
            "receiptTrie": "0x56e81f171bcc55a6ff8345e692c0f86e5b48e01b996cadc001622fb5e363b421",
            "bloom": "0x00000000000000000000000000000000000000000000000000000000000000000000000000000000000000000000000000000000000000000000000000000000000000000000000000000000000000000000000000000000000000000000000000000000000000000000000000000000000000000000000000000000000000000000000000000000000000000000000000000000000000000000000000000000000000000000000000000000000000000000000000000000000000000000000000000000000000000000000000000000000000000000000000000000000000000000000000000000000000000000000000000000000000000000000000000000",
            "difficulty": "0x00",
            "number": "0x00",
            "gasLimit": "0x1a00000000",
            "gasUsed": "0x00",
            "timestamp": "0x00",
            "extraData": "0x00",
            "mixHash": "0x0000000000000000000000000000000000000000000000000000000000000000",
            "nonce": "0x0000000000000000",
            "baseFeePerGas": "0x0b",
            "withdrawalsRoot": "0x56e81f171bcc55a6ff8345e692c0f86e5b48e01b996cadc001622fb5e363b421",
            "blobGasUsed": "0x00",
            "excessBlobGas": "0x00",
            "parentBeaconBlockRoot": "0x0000000000000000000000000000000000000000000000000000000000000000",
            "hash": "0x505b577802a2bf6ce5d1e9419e2ddf3d6e90fa04426562162768f5f521044ad6"
        },
        "pre": {
            "0x000f3df6d732807ef1319fb7b8bb8522d0beac02": {
                "nonce": "0x01",
                "balance": "0x00",
                "code": "0x3373fffffffffffffffffffffffffffffffffffffffe14604d57602036146024575f5ffd5b5f35801560495762001fff810690815414603c575f5ffd5b62001fff01545f5260205ff35b5f5ffd5b62001fff42064281555f359062001fff015500",
                "storage": {}
            },
            "0x1b206bdc60ea797a25bd4a6cd5503d78b9027ba4": {
                "nonce": "0x00",
                "balance": "0x6400000000",
                "code": "0x",
                "storage": {}
            },
            "0xab2eeb7848ddc5512ae64f6973b693b1daa74701": {
                "nonce": "0x00",
                "balance": "0x10000000",
                "code": "0x",
                "storage": {}
            },
            "0xfebc09383041ff109bd3fead4189c3d326ecfe3e": {
                "nonce": "0x00",
                "balance": "0x6400000000",
                "code": "0xfd",
                "storage": {}
            },
            "0x045274d7c75dd25148eb15d81ad132d8e9c9c4d4": {
                "nonce": "0x00",
                "balance": "0x00",
                "code": "0x6000600060006000600073febc09383041ff109bd3fead4189c3d326ecfe3e620186a0f2503d60005500",
                "storage": {
                    "0x00": "0xffffffff"
                }
            }
        },
        "postState": {
            "0x000f3df6d732807ef1319fb7b8bb8522d0beac02": {
                "nonce": "0x01",
                "balance": "0x00",
                "code": "0x3373fffffffffffffffffffffffffffffffffffffffe14604d57602036146024575f5ffd5b5f35801560495762001fff810690815414603c575f5ffd5b62001fff01545f5260205ff35b5f5ffd5b62001fff42064281555f359062001fff015500",
                "storage": {
                    "0x03e8": "0x03e8"
                }
            },
            "0x1b206bdc60ea797a25bd4a6cd5503d78b9027ba4": {
                "nonce": "0x01",
                "balance": "0x63ffed1af8",
                "code": "0x",
                "storage": {}
            },
            "0xab2eeb7848ddc5512ae64f6973b693b1daa74701": {
                "nonce": "0x00",
                "balance": "0x10000000",
                "code": "0x",
                "storage": {}
            },
            "0xfebc09383041ff109bd3fead4189c3d326ecfe3e": {
                "nonce": "0x00",
                "balance": "0x6400000000",
                "code": "0xfd",
                "storage": {}
            },
            "0x045274d7c75dd25148eb15d81ad132d8e9c9c4d4": {
                "nonce": "0x00",
                "balance": "0x00",
                "code": "0x6000600060006000600073febc09383041ff109bd3fead4189c3d326ecfe3e620186a0f2503d60005500",
                "storage": {}
            }
        },
        "lastblockhash": "0xa5c8c6d284fb095b00bd77d276b8845fcd4d4ac2c02a6ca0602c76a587159e58",
        "config": {
            "network": "Cancun",
            "chainid": "0x01",
            "blobSchedule": {
                "Cancun": {
                    "target": "0x03",
                    "max": "0x06",
                    "baseFeeUpdateFraction": "0x32f0ed"
                }
            }
        },
        "genesisRLP": "0xf9023df90237a00000000000000000000000000000000000000000000000000000000000000000a01dcc4de8dec75d7aab85b567b6ccd41ad312451b948a7413f0a142fd40d49347940000000000000000000000000000000000000000a0cb44edd0c01a56e896376e84136d4befa0f6fb41f8268203c3e7b58a8cbc23cfa056e81f171bcc55a6ff8345e692c0f86e5b48e01b996cadc001622fb5e363b421a056e81f171bcc55a6ff8345e692c0f86e5b48e01b996cadc001622fb5e363b421b90100000000000000000000000000000000000000000000000000000000000000000000000000000000000000000000000000000000000000000000000000000000000000000000000000000000000000000000000000000000000000000000000000000000000000000000000000000000000000000000000000000000000000000000000000000000000000000000000000000000000000000000000000000000000000000000000000000000000000000000000000000000000000000000000000000000000000000000000000000000000000000000000000000000000000000000000000000000000000000000000000000000000000000000000000000000008080851a00000000808000a000000000000000000000000000000000000000000000000000000000000000008800000000000000000ba056e81f171bcc55a6ff8345e692c0f86e5b48e01b996cadc001622fb5e363b4218080a00000000000000000000000000000000000000000000000000000000000000000c0c0c0",
        "blocks": [
            {
                "blockHeader": {
                    "parentHash": "0x505b577802a2bf6ce5d1e9419e2ddf3d6e90fa04426562162768f5f521044ad6",
                    "uncleHash": "0x1dcc4de8dec75d7aab85b567b6ccd41ad312451b948a7413f0a142fd40d49347",
                    "coinbase": "0x2adc25665018aa1fe0e6bc666dac8fc2697ff9ba",
                    "stateRoot": "0x6c9ddbf53afbb8e2ff186ced020e12c9d6cbd57443c78884d3222db42650cbb0",
                    "transactionsTrie": "0xd78af418ef984f4ffcd31496a0a334c5e9bf93f1df59184bfce66d0eb51ba7cb",
                    "receiptTrie": "0x98931cb85a46663241ec59eefa228064e3464c3b454fc603a37efa935da59ec9",
                    "bloom": "0x00000000000000000000000000000000000000000000000000000000000000000000000000000000000000000000000000000000000000000000000000000000000000000000000000000000000000000000000000000000000000000000000000000000000000000000000000000000000000000000000000000000000000000000000000000000000000000000000000000000000000000000000000000000000000000000000000000000000000000000000000000000000000000000000000000000000000000000000000000000000000000000000000000000000000000000000000000000000000000000000000000000000000000000000000000000",
                    "difficulty": "0x00",
                    "number": "0x01",
                    "gasLimit": "0x1a00000000",
                    "gasUsed": "0x01e3b4",
                    "timestamp": "0x03e8",
                    "extraData": "0x00",
                    "mixHash": "0x0000000000000000000000000000000000000000000000000000000000020000",
                    "nonce": "0x0000000000000000",
                    "baseFeePerGas": "0x0a",
                    "withdrawalsRoot": "0x56e81f171bcc55a6ff8345e692c0f86e5b48e01b996cadc001622fb5e363b421",
                    "blobGasUsed": "0x00",
                    "excessBlobGas": "0x00",
                    "parentBeaconBlockRoot": "0x0000000000000000000000000000000000000000000000000000000000000000",
                    "hash": "0xa5c8c6d284fb095b00bd77d276b8845fcd4d4ac2c02a6ca0602c76a587159e58"
                },
                "transactions": [
                    {
                        "type": "0x00",
                        "chainId": "0x01",
                        "nonce": "0x00",
                        "gasPrice": "0x0a",
                        "gasLimit": "0x030d40",
                        "to": "0x045274d7c75dd25148eb15d81ad132d8e9c9c4d4",
                        "value": "0x00",
                        "data": "0x",
                        "v": "0x25",
                        "r": "0x440983e6d81e96d4c93229f754363dedeef29eb432567ef932460b91846756a7",
                        "s": "0x7efd0bff452daa1face86c59271d54846e463de8f57307f3b753586e8a36ab7b",
                        "sender": "0x1b206bdc60ea797a25bd4a6cd5503d78b9027ba4"
                    }
                ],
                "uncleHeaders": [],
                "withdrawals": [],
                "receipts": [
                    {
                        "transactionHash": "0x0e04a501aa0ee8f71591d3c1658d1a9fcdb38fa6da4def558e85d9f28888730e",
                        "type": "0x00",
                        "cumulativeGasUsed": "0x01e3b4",
                        "bloom": "0x00000000000000000000000000000000000000000000000000000000000000000000000000000000000000000000000000000000000000000000000000000000000000000000000000000000000000000000000000000000000000000000000000000000000000000000000000000000000000000000000000000000000000000000000000000000000000000000000000000000000000000000000000000000000000000000000000000000000000000000000000000000000000000000000000000000000000000000000000000000000000000000000000000000000000000000000000000000000000000000000000000000000000000000000000000000",
                        "logs": [],
                        "status": true,
                        "rlp": "0xf90109018301e3b4b9010000000000000000000000000000000000000000000000000000000000000000000000000000000000000000000000000000000000000000000000000000000000000000000000000000000000000000000000000000000000000000000000000000000000000000000000000000000000000000000000000000000000000000000000000000000000000000000000000000000000000000000000000000000000000000000000000000000000000000000000000000000000000000000000000000000000000000000000000000000000000000000000000000000000000000000000000000000000000000000000000000000000000000000000000000000000c0"
                    }
                ],
                "rlp": "0xf902a5f9023ca0505b577802a2bf6ce5d1e9419e2ddf3d6e90fa04426562162768f5f521044ad6a01dcc4de8dec75d7aab85b567b6ccd41ad312451b948a7413f0a142fd40d49347942adc25665018aa1fe0e6bc666dac8fc2697ff9baa06c9ddbf53afbb8e2ff186ced020e12c9d6cbd57443c78884d3222db42650cbb0a0d78af418ef984f4ffcd31496a0a334c5e9bf93f1df59184bfce66d0eb51ba7cba098931cb85a46663241ec59eefa228064e3464c3b454fc603a37efa935da59ec9b90100000000000000000000000000000000000000000000000000000000000000000000000000000000000000000000000000000000000000000000000000000000000000000000000000000000000000000000000000000000000000000000000000000000000000000000000000000000000000000000000000000000000000000000000000000000000000000000000000000000000000000000000000000000000000000000000000000000000000000000000000000000000000000000000000000000000000000000000000000000000000000000000000000000000000000000000000000000000000000000000000000000000000000000000000000000008001851a000000008301e3b48203e800a000000000000000000000000000000000000000000000000000000000000200008800000000000000000aa056e81f171bcc55a6ff8345e692c0f86e5b48e01b996cadc001622fb5e363b4218080a00000000000000000000000000000000000000000000000000000000000000000f862f860800a83030d4094045274d7c75dd25148eb15d81ad132d8e9c9c4d4808025a0440983e6d81e96d4c93229f754363dedeef29eb432567ef932460b91846756a7a07efd0bff452daa1face86c59271d54846e463de8f57307f3b753586e8a36ab7bc0c0",
                "blocknumber": "1"
            }
        ],
        "sealEngine": "NoProof",
        "_info": {
            "hash": "0xc670479a9a34c55daca5d02560b752ebf4e232c23c16e184d14e23f8b49024b8",
            "fixture-format": "blockchain_test",
            "comment": "`execution-specs` generated test",
            "filling-transition-tool": "2.19.0",
            "description": "Test_returndatasize_after_failing_callcode.",
            "url": "https://github.com/ethereum/execution-specs/blob/tests-snobal-devnet-5@v8037.0.0/tests/ported_static/stReturnDataTest/test_returndatasize_after_failing_callcode.py#L24",
            "metadata": {
                "opcode_count": {}
            }
        }
    }
}