{
    "tests/static/state_tests/stCreateTest/CREATE_HighNonceMinus1Filler.yml::CREATE_HighNonceMinus1[fork_Cancun-state_test-]": {
        "env": {
            "currentCoinbase": "0x2adc25665018aa1fe0e6bc666dac8fc2697ff9ba",
            "currentGasLimit": "0x05500000",
            "currentNumber": "0x01",
            "currentTimestamp": "0x03e8",
            "currentRandom": "0x0000000000000000000000000000000000000000000000000000000000020000",
            "currentDifficulty": "0x00",
            "currentBaseFee": "0x0a",
            "currentExcessBlobGas": "0x00"
        },
        "pre": {
            "0xa94f5374fce5edbc8e2a8697c15331677e6ebf0b": {
                "nonce": "0x00",
                "balance": "0x3b9aca00",
                "code": "0x",
                "storage": {}
            },
            "0xb94f5374fce5edbc8e2a8697c15331677e6ebf0b": {
                "nonce": "0xfffffffffffffffe",
                "balance": "0x00",
                "code": "0x7f60016000f30000000000000000000000000000000000000000000000000000006000526005600080f06000556001805500",
                "storage": {}
            }
        },
        "transaction": {
            "nonce": "0x00",
            "gasPrice": "0x0a",
            "gasLimit": [
                "0x01000000"
            ],
            "to": "0xb94f5374fce5edbc8e2a8697c15331677e6ebf0b",
            "value": [
                "0x00"
            ],
            "data": [
                "0x"
            ],
            "sender": "0xa94f5374fce5edbc8e2a8697c15331677e6ebf0b",
            "secretKey": "0x45a915e4d060149eb4365960e6a7a45f334393093061116b197e3240065ff2d8"
        },
        "post": {
            "Cancun": [
                {
                    "hash": "0xcb192f6aec9274050408a78f37d1448516e19f7ba70fc1ae8eecaedb5b207076",
                    "logs": "0x1dcc4de8dec75d7aab85b567b6ccd41ad312451b948a7413f0a142fd40d49347",
                    "txbytes": "0xf861800a840100000094b94f5374fce5edbc8e2a8697c15331677e6ebf0b808025a066b0c384703b87420aa200b7f7d4f806a025aaaa9e29d9674d9a416a03a224c5a0683bb292c4f83b8c1b50c4b70138559a4687ae3258029826edb6ed4a8419620e",
                    "indexes": {
                        "data": 0,
                        "gas": 0,
                        "value": 0
                    },
                    "state": {
                        "0xa94f5374fce5edbc8e2a8697c15331677e6ebf0b": {
                            "nonce": "0x01",
                            "balance": "0x3b8bebb6",
                            "code": "0x",
                            "storage": {}
                        },
                        "0xb94f5374fce5edbc8e2a8697c15331677e6ebf0b": {
                            "nonce": "0xffffffffffffffff",
                            "balance": "0x00",
                            "code": "0x7f60016000f30000000000000000000000000000000000000000000000000000006000526005600080f06000556001805500",
                            "storage": {
                                "0x00": "0xd061b08a84ebc70fe797f9bd62f4269ef8274a13",
                                "0x01": "0x01"
                            }
                        },
                        "0xd061b08a84ebc70fe797f9bd62f4269ef8274a13": {
                            "nonce": "0x01",
                            "balance": "0x00",
                            "code": "0x00",
                            "storage": {}
                        }
                    }
                }
            ]
        },
        "config": {
            "blobSchedule": {
                "Cancun": {
                    "target": "0x03",
                    "max": "0x06",
                    "baseFeeUpdateFraction": "0x32f0ed"
                }
            },
            "chainid": "0x01"
        },
        "_info": {
            "hash": "0x4c61053c67f173b73d42039543d398b50d1b2a4b21dd6d2a89eb5a265cfd4390",
            "comment": "`execution-specs` generated test",
            "filling-transition-tool": "2.18.0rc6",
            "description": "No description available - add a docstring to the python test class or function.",
            "url": "",
            "fixture-format": "state_test"
        }
    },
    "tests/static/state_tests/stCreateTest/CREATE_HighNonceMinus1Filler.yml::CREATE_HighNonceMinus1[fork_Osaka-state_test-]": {
        "env": {
            "currentCoinbase": "0x2adc25665018aa1fe0e6bc666dac8fc2697ff9ba",
            "currentGasLimit": "0x05500000",
            "currentNumber": "0x01",
            "currentTimestamp": "0x03e8",
            "currentRandom": "0x0000000000000000000000000000000000000000000000000000000000020000",
            "currentDifficulty": "0x00",
            "currentBaseFee": "0x0a",
            "currentExcessBlobGas": "0x00"
        },
        "pre": {
            "0xa94f5374fce5edbc8e2a8697c15331677e6ebf0b": {
                "nonce": "0x00",
                "balance": "0x3b9aca00",
                "code": "0x",
                "storage": {}
            },
            "0xb94f5374fce5edbc8e2a8697c15331677e6ebf0b": {
                "nonce": "0xfffffffffffffffe",
                "balance": "0x00",
                "code": "0x7f60016000f30000000000000000000000000000000000000000000000000000006000526005600080f06000556001805500",
                "storage": {}
            }
        },
        "transaction": {
            "nonce": "0x00",
            "gasPrice": "0x0a",
            "gasLimit": [
                "0x01000000"
            ],
            "to": "0xb94f5374fce5edbc8e2a8697c15331677e6ebf0b",
            "value": [
                "0x00"
            ],
            "data": [
                "0x"
            ],
            "sender": "0xa94f5374fce5edbc8e2a8697c15331677e6ebf0b",
            "secretKey": "0x45a915e4d060149eb4365960e6a7a45f334393093061116b197e3240065ff2d8"
        },
        "post": {
            "Osaka": [
                {
                    "hash": "0xcb192f6aec9274050408a78f37d1448516e19f7ba70fc1ae8eecaedb5b207076",
                    "logs": "0x1dcc4de8dec75d7aab85b567b6ccd41ad312451b948a7413f0a142fd40d49347",
                    "txbytes": "0xf861800a840100000094b94f5374fce5edbc8e2a8697c15331677e6ebf0b808025a066b0c384703b87420aa200b7f7d4f806a025aaaa9e29d9674d9a416a03a224c5a0683bb292c4f83b8c1b50c4b70138559a4687ae3258029826edb6ed4a8419620e",
                    "indexes": {
                        "data": 0,
                        "gas": 0,
                        "value": 0
                    },
                    "state": {
                        "0xa94f5374fce5edbc8e2a8697c15331677e6ebf0b": {
                            "nonce": "0x01",
                            "balance": "0x3b8bebb6",
                            "code": "0x",
                            "storage": {}
                        },
                        "0xb94f5374fce5edbc8e2a8697c15331677e6ebf0b": {
                            "nonce": "0xffffffffffffffff",
                            "balance": "0x00",
                            "code": "0x7f60016000f30000000000000000000000000000000000000000000000000000006000526005600080f06000556001805500",
                            "storage": {
                                "0x00": "0xd061b08a84ebc70fe797f9bd62f4269ef8274a13",
                                "0x01": "0x01"
                            }
                        },
                        "0xd061b08a84ebc70fe797f9bd62f4269ef8274a13": {
                            "nonce": "0x01",
                            "balance": "0x00",
                            "code": "0x00",
                            "storage": {}
                        }
                    }
                }
            ]
        },
        "config": {
            "blobSchedule": {
                "Cancun": {
                    "target": "0x03",
                    "max": "0x06",
                    "baseFeeUpdateFraction": "0x32f0ed"
                },
                "Prague": {
                    "target": "0x06",
                    "max": "0x09",
                    "baseFeeUpdateFraction": "0x4c6964"
                },
                "Osaka": {
                    "target": "0x06",
                    "max": "0x09",
                    "baseFeeUpdateFraction": "0x4c6964"
                }
            },
            "chainid": "0x01"
        },
        "_info": {
            "hash": "0xa6f5f335a215ca7619db7455a40fa07676f67c6cc88108367775e3b11673b317",
            "comment": "`execution-specs` generated test",
            "filling-transition-tool": "2.18.0rc6",
            "description": "No description available - add a docstring to the python test class or function.",
            "url": "",
            "fixture-format": "state_test"
        }
    },
    "tests/static/state_tests/stCreateTest/CREATE_HighNonceMinus1Filler.yml::CREATE_HighNonceMinus1[fork_Prague-state_test-]": {
        "env": {
            "currentCoinbase": "0x2adc25665018aa1fe0e6bc666dac8fc2697ff9ba",
            "currentGasLimit": "0x05500000",
            "currentNumber": "0x01",
            "currentTimestamp": "0x03e8",
            "currentRandom": "0x0000000000000000000000000000000000000000000000000000000000020000",
            "currentDifficulty": "0x00",
            "currentBaseFee": "0x0a",
            "currentExcessBlobGas": "0x00"
        },
        "pre": {
            "0xa94f5374fce5edbc8e2a8697c15331677e6ebf0b": {
                "nonce": "0x00",
                "balance": "0x3b9aca00",
                "code": "0x",
                "storage": {}
            },
            "0xb94f5374fce5edbc8e2a8697c15331677e6ebf0b": {
                "nonce": "0xfffffffffffffffe",
                "balance": "0x00",
                "code": "0x7f60016000f30000000000000000000000000000000000000000000000000000006000526005600080f06000556001805500",
                "storage": {}
            }
        },
        "transaction": {
            "nonce": "0x00",
            "gasPrice": "0x0a",
            "gasLimit": [
                "0x01000000"
            ],
            "to": "0xb94f5374fce5edbc8e2a8697c15331677e6ebf0b",
            "value": [
                "0x00"
            ],
            "data": [
                "0x"
            ],
            "sender": "0xa94f5374fce5edbc8e2a8697c15331677e6ebf0b",
            "secretKey": "0x45a915e4d060149eb4365960e6a7a45f334393093061116b197e3240065ff2d8"
        },
        "post": {
            "Prague": [
                {
                    "hash": "0xcb192f6aec9274050408a78f37d1448516e19f7ba70fc1ae8eecaedb5b207076",
                    "logs": "0x1dcc4de8dec75d7aab85b567b6ccd41ad312451b948a7413f0a142fd40d49347",
                    "txbytes": "0xf861800a840100000094b94f5374fce5edbc8e2a8697c15331677e6ebf0b808025a066b0c384703b87420aa200b7f7d4f806a025aaaa9e29d9674d9a416a03a224c5a0683bb292c4f83b8c1b50c4b70138559a4687ae3258029826edb6ed4a8419620e",
                    "indexes": {
                        "data": 0,
                        "gas": 0,
                        "value": 0
                    },
                    "state": {
                        "0xa94f5374fce5edbc8e2a8697c15331677e6ebf0b": {
                            "nonce": "0x01",
                            "balance": "0x3b8bebb6",
                            "code": "0x",
                            "storage": {}
                        },
                        "0xb94f5374fce5edbc8e2a8697c15331677e6ebf0b": {
                            "nonce": "0xffffffffffffffff",
                            "balance": "0x00",
                            "code": "0x7f60016000f30000000000000000000000000000000000000000000000000000006000526005600080f06000556001805500",
                            "storage": {
                                "0x00": "0xd061b08a84ebc70fe797f9bd62f4269ef8274a13",
                                "0x01": "0x01"
                            }
                        },
                        "0xd061b08a84ebc70fe797f9bd62f4269ef8274a13": {
                            "nonce": "0x01",
                            "balance": "0x00",
                            "code": "0x00",
                            "storage": {}
                        }
                    }
                }
            ]
        },
        "config": {
            "blobSchedule": {
                "Cancun": {
                    "target": "0x03",
                    "max": "0x06",
                    "baseFeeUpdateFraction": "0x32f0ed"
                },
                "Prague": {
                    "target": "0x06",
                    "max": "0x09",
                    "baseFeeUpdateFraction": "0x4c6964"
                }
            },
            "chainid": "0x01"
        },
        "_info": {
            "hash": "0xc0e90d8e4f5eec936142cb4afce80f122d41b77bc8d0e60d964dd9ab2d5db5e9",
            "comment": "`execution-specs` generated test",
            "filling-transition-tool": "2.18.0rc6",
            "description": "No description available - add a docstring to the python test class or function.",
            "url": "",
            "fixture-format": "state_test"
        }
    }
}