{
    "tests/static/state_tests/stCreateTest/CreateOOGafterInitCodeRevert2Filler.json::CreateOOGafterInitCodeRevert2[fork_Cancun-state_test-d0]": {
        "env": {
            "currentCoinbase": "0x2adc25665018aa1fe0e6bc666dac8fc2697ff9ba",
            "currentGasLimit": "0x989680",
            "currentNumber": "0x01",
            "currentTimestamp": "0x03e8",
            "currentRandom": "0x0000000000000000000000000000000000000000000000000000000000020000",
            "currentDifficulty": "0x00",
            "currentBaseFee": "0x0a",
            "currentExcessBlobGas": "0x00"
        },
        "pre": {
            "0xa94f5374fce5edbc8e2a8697c15331677e6ebf0b": {
                "nonce": "0x00",
                "balance": "0xe8d4a51000",
                "code": "0x",
                "storage": {}
            },
            "0x1000000000000000000000000000000000000000": {
                "nonce": "0x00",
                "balance": "0xe8d4a51000",
                "code": "0x600060006000600060006000355af100",
                "storage": {}
            },
            "0xc94f5374fce5edbc8e2a8697c15331677e6ebf0b": {
                "nonce": "0x00",
                "balance": "0x00",
                "code": "0x6020600060006000600073b94f5374fce5edbc8e2a8697c15331677e6ebf0b6180e8f15060005160015500",
                "storage": {
                    "0x01": "0xff"
                }
            },
            "0xd94f5374fce5edbc8e2a8697c15331677e6ebf0b": {
                "nonce": "0x00",
                "balance": "0x00",
                "code": "0x6020600060006000600073b94f5374fce5edbc8e2a8697c15331677e6ebf0b6159d8f15060005160015500",
                "storage": {
                    "0x01": "0xff"
                }
            },
            "0xb94f5374fce5edbc8e2a8697c15331677e6ebf0b": {
                "nonce": "0x00",
                "balance": "0x00",
                "code": "0x6d6460016001556000526005601bf3600052600e60126000f05060206000fd00",
                "storage": {}
            }
        },
        "transaction": {
            "nonce": "0x00",
            "gasPrice": "0x0a",
            "gasLimit": [
                "0x02ab98"
            ],
            "to": "0x1000000000000000000000000000000000000000",
            "value": [
                "0x00"
            ],
            "data": [
                "0x000000000000000000000000c94f5374fce5edbc8e2a8697c15331677e6ebf0b"
            ],
            "sender": "0xa94f5374fce5edbc8e2a8697c15331677e6ebf0b",
            "secretKey": "0x45a915e4d060149eb4365960e6a7a45f334393093061116b197e3240065ff2d8"
        },
        "post": {
            "Cancun": [
                {
                    "hash": "0xe4d34abce801214152bd484e5d95543ef9245d2a0033c85104069067155693b5",
                    "logs": "0x1dcc4de8dec75d7aab85b567b6ccd41ad312451b948a7413f0a142fd40d49347",
                    "txbytes": "0xf880800a8302ab9894100000000000000000000000000000000000000080a0000000000000000000000000c94f5374fce5edbc8e2a8697c15331677e6ebf0b26a0135ace354706df720f21dc50d0f8705c9c8ea45fa25262e159d3a77f8ddad375a05237a2410a3c33b9e66e9d5aaf6fc63624d29023d9b5b192d05f49510f27d767",
                    "indexes": {
                        "data": 0,
                        "gas": 0,
                        "value": 0
                    },
                    "state": {
                        "0xa94f5374fce5edbc8e2a8697c15331677e6ebf0b": {
                            "nonce": "0x01",
                            "balance": "0xe8d49b33d2",
                            "code": "0x",
                            "storage": {}
                        },
                        "0x1000000000000000000000000000000000000000": {
                            "nonce": "0x00",
                            "balance": "0xe8d4a51000",
                            "code": "0x600060006000600060006000355af100",
                            "storage": {}
                        },
                        "0xc94f5374fce5edbc8e2a8697c15331677e6ebf0b": {
                            "nonce": "0x00",
                            "balance": "0x00",
                            "code": "0x6020600060006000600073b94f5374fce5edbc8e2a8697c15331677e6ebf0b6180e8f15060005160015500",
                            "storage": {
                                "0x01": "0x6460016001556000526005601bf3"
                            }
                        },
                        "0xd94f5374fce5edbc8e2a8697c15331677e6ebf0b": {
                            "nonce": "0x00",
                            "balance": "0x00",
                            "code": "0x6020600060006000600073b94f5374fce5edbc8e2a8697c15331677e6ebf0b6159d8f15060005160015500",
                            "storage": {
                                "0x01": "0xff"
                            }
                        },
                        "0xb94f5374fce5edbc8e2a8697c15331677e6ebf0b": {
                            "nonce": "0x00",
                            "balance": "0x00",
                            "code": "0x6d6460016001556000526005601bf3600052600e60126000f05060206000fd00",
                            "storage": {}
                        }
                    }
                }
            ]
        },
        "config": {
            "blobSchedule": {
                "Cancun": {
                    "target": "0x03",
                    "max": "0x06",
                    "baseFeeUpdateFraction": "0x32f0ed"
                }
            },
            "chainid": "0x01"
        },
        "_info": {
            "hash": "0x83a9f9e713ff94ad86975f843114d685faf88be020fe9c71bb53a7a179bdacd3",
            "comment": "`execution-spec-tests` generated test",
            "filling-transition-tool": "ethereum-spec-evm-resolver 0.0.5",
            "description": "No description available - add a docstring to the python test class or function.",
            "url": "",
            "fixture-format": "state_test",
            "eels-resolution": {
                "git-url": "https://github.com/marioevz/execution-specs.git",
                "branch": "forks/bpo1",
                "commit": "3387e5f4aedfe99becfdc39b444d6371e25e0924"
            }
        }
    },
    "tests/static/state_tests/stCreateTest/CreateOOGafterInitCodeRevert2Filler.json::CreateOOGafterInitCodeRevert2[fork_Cancun-state_test-d1]": {
        "env": {
            "currentCoinbase": "0x2adc25665018aa1fe0e6bc666dac8fc2697ff9ba",
            "currentGasLimit": "0x989680",
            "currentNumber": "0x01",
            "currentTimestamp": "0x03e8",
            "currentRandom": "0x0000000000000000000000000000000000000000000000000000000000020000",
            "currentDifficulty": "0x00",
            "currentBaseFee": "0x0a",
            "currentExcessBlobGas": "0x00"
        },
        "pre": {
            "0xa94f5374fce5edbc8e2a8697c15331677e6ebf0b": {
                "nonce": "0x00",
                "balance": "0xe8d4a51000",
                "code": "0x",
                "storage": {}
            },
            "0x1000000000000000000000000000000000000000": {
                "nonce": "0x00",
                "balance": "0xe8d4a51000",
                "code": "0x600060006000600060006000355af100",
                "storage": {}
            },
            "0xc94f5374fce5edbc8e2a8697c15331677e6ebf0b": {
                "nonce": "0x00",
                "balance": "0x00",
                "code": "0x6020600060006000600073b94f5374fce5edbc8e2a8697c15331677e6ebf0b6180e8f15060005160015500",
                "storage": {
                    "0x01": "0xff"
                }
            },
            "0xd94f5374fce5edbc8e2a8697c15331677e6ebf0b": {
                "nonce": "0x00",
                "balance": "0x00",
                "code": "0x6020600060006000600073b94f5374fce5edbc8e2a8697c15331677e6ebf0b6159d8f15060005160015500",
                "storage": {
                    "0x01": "0xff"
                }
            },
            "0xb94f5374fce5edbc8e2a8697c15331677e6ebf0b": {
                "nonce": "0x00",
                "balance": "0x00",
                "code": "0x6d6460016001556000526005601bf3600052600e60126000f05060206000fd00",
                "storage": {}
            }
        },
        "transaction": {
            "nonce": "0x00",
            "gasPrice": "0x0a",
            "gasLimit": [
                "0x02ab98"
            ],
            "to": "0x1000000000000000000000000000000000000000",
            "value": [
                "0x00"
            ],
            "data": [
                "0x000000000000000000000000d94f5374fce5edbc8e2a8697c15331677e6ebf0b"
            ],
            "sender": "0xa94f5374fce5edbc8e2a8697c15331677e6ebf0b",
            "secretKey": "0x45a915e4d060149eb4365960e6a7a45f334393093061116b197e3240065ff2d8"
        },
        "post": {
            "Cancun": [
                {
                    "hash": "0x1c5564a343dc220156e161483a41db98b03fd6bf43e51e6cc6b902822f24628c",
                    "logs": "0x1dcc4de8dec75d7aab85b567b6ccd41ad312451b948a7413f0a142fd40d49347",
                    "txbytes": "0xf880800a8302ab9894100000000000000000000000000000000000000080a0000000000000000000000000d94f5374fce5edbc8e2a8697c15331677e6ebf0b26a06b380ca2ca4e21e78386c8f0c42028907116049d72524f4105529d6b4414eb86a05ae0b45909ca9ae998b06e79feff5b407472534149bf46b37ff564704227859b",
                    "indexes": {
                        "data": 0,
                        "gas": 0,
                        "value": 0
                    },
                    "state": {
                        "0xa94f5374fce5edbc8e2a8697c15331677e6ebf0b": {
                            "nonce": "0x01",
                            "balance": "0xe8d49d75ac",
                            "code": "0x",
                            "storage": {}
                        },
                        "0x1000000000000000000000000000000000000000": {
                            "nonce": "0x00",
                            "balance": "0xe8d4a51000",
                            "code": "0x600060006000600060006000355af100",
                            "storage": {}
                        },
                        "0xc94f5374fce5edbc8e2a8697c15331677e6ebf0b": {
                            "nonce": "0x00",
                            "balance": "0x00",
                            "code": "0x6020600060006000600073b94f5374fce5edbc8e2a8697c15331677e6ebf0b6180e8f15060005160015500",
                            "storage": {
                                "0x01": "0xff"
                            }
                        },
                        "0xd94f5374fce5edbc8e2a8697c15331677e6ebf0b": {
                            "nonce": "0x00",
                            "balance": "0x00",
                            "code": "0x6020600060006000600073b94f5374fce5edbc8e2a8697c15331677e6ebf0b6159d8f15060005160015500",
                            "storage": {}
                        },
                        "0xb94f5374fce5edbc8e2a8697c15331677e6ebf0b": {
                            "nonce": "0x00",
                            "balance": "0x00",
                            "code": "0x6d6460016001556000526005601bf3600052600e60126000f05060206000fd00",
                            "storage": {}
                        }
                    }
                }
            ]
        },
        "config": {
            "blobSchedule": {
                "Cancun": {
                    "target": "0x03",
                    "max": "0x06",
                    "baseFeeUpdateFraction": "0x32f0ed"
                }
            },
            "chainid": "0x01"
        },
        "_info": {
            "hash": "0x30f8110eac1e9ad8b91d4b715547c73e7502313b8b104dd68e57999892f967f7",
            "comment": "`execution-spec-tests` generated test",
            "filling-transition-tool": "ethereum-spec-evm-resolver 0.0.5",
            "description": "No description available - add a docstring to the python test class or function.",
            "url": "",
            "fixture-format": "state_test",
            "eels-resolution": {
                "git-url": "https://github.com/marioevz/execution-specs.git",
                "branch": "forks/bpo1",
                "commit": "3387e5f4aedfe99becfdc39b444d6371e25e0924"
            }
        }
    },
    "tests/static/state_tests/stCreateTest/CreateOOGafterInitCodeRevert2Filler.json::CreateOOGafterInitCodeRevert2[fork_Osaka-state_test-d0]": {
        "env": {
            "currentCoinbase": "0x2adc25665018aa1fe0e6bc666dac8fc2697ff9ba",
            "currentGasLimit": "0x989680",
            "currentNumber": "0x01",
            "currentTimestamp": "0x03e8",
            "currentRandom": "0x0000000000000000000000000000000000000000000000000000000000020000",
            "currentDifficulty": "0x00",
            "currentBaseFee": "0x0a",
            "currentExcessBlobGas": "0x00"
        },
        "pre": {
            "0xa94f5374fce5edbc8e2a8697c15331677e6ebf0b": {
                "nonce": "0x00",
                "balance": "0xe8d4a51000",
                "code": "0x",
                "storage": {}
            },
            "0x1000000000000000000000000000000000000000": {
                "nonce": "0x00",
                "balance": "0xe8d4a51000",
                "code": "0x600060006000600060006000355af100",
                "storage": {}
            },
            "0xc94f5374fce5edbc8e2a8697c15331677e6ebf0b": {
                "nonce": "0x00",
                "balance": "0x00",
                "code": "0x6020600060006000600073b94f5374fce5edbc8e2a8697c15331677e6ebf0b6180e8f15060005160015500",
                "storage": {
                    "0x01": "0xff"
                }
            },
            "0xd94f5374fce5edbc8e2a8697c15331677e6ebf0b": {
                "nonce": "0x00",
                "balance": "0x00",
                "code": "0x6020600060006000600073b94f5374fce5edbc8e2a8697c15331677e6ebf0b6159d8f15060005160015500",
                "storage": {
                    "0x01": "0xff"
                }
            },
            "0xb94f5374fce5edbc8e2a8697c15331677e6ebf0b": {
                "nonce": "0x00",
                "balance": "0x00",
                "code": "0x6d6460016001556000526005601bf3600052600e60126000f05060206000fd00",
                "storage": {}
            }
        },
        "transaction": {
            "nonce": "0x00",
            "gasPrice": "0x0a",
            "gasLimit": [
                "0x02ab98"
            ],
            "to": "0x1000000000000000000000000000000000000000",
            "value": [
                "0x00"
            ],
            "data": [
                "0x000000000000000000000000c94f5374fce5edbc8e2a8697c15331677e6ebf0b"
            ],
            "sender": "0xa94f5374fce5edbc8e2a8697c15331677e6ebf0b",
            "secretKey": "0x45a915e4d060149eb4365960e6a7a45f334393093061116b197e3240065ff2d8"
        },
        "post": {
            "Osaka": [
                {
                    "hash": "0xe4d34abce801214152bd484e5d95543ef9245d2a0033c85104069067155693b5",
                    "logs": "0x1dcc4de8dec75d7aab85b567b6ccd41ad312451b948a7413f0a142fd40d49347",
                    "txbytes": "0xf880800a8302ab9894100000000000000000000000000000000000000080a0000000000000000000000000c94f5374fce5edbc8e2a8697c15331677e6ebf0b26a0135ace354706df720f21dc50d0f8705c9c8ea45fa25262e159d3a77f8ddad375a05237a2410a3c33b9e66e9d5aaf6fc63624d29023d9b5b192d05f49510f27d767",
                    "indexes": {
                        "data": 0,
                        "gas": 0,
                        "value": 0
                    },
                    "state": {
                        "0xa94f5374fce5edbc8e2a8697c15331677e6ebf0b": {
                            "nonce": "0x01",
                            "balance": "0xe8d49b33d2",
                            "code": "0x",
                            "storage": {}
                        },
                        "0x1000000000000000000000000000000000000000": {
                            "nonce": "0x00",
                            "balance": "0xe8d4a51000",
                            "code": "0x600060006000600060006000355af100",
                            "storage": {}
                        },
                        "0xc94f5374fce5edbc8e2a8697c15331677e6ebf0b": {
                            "nonce": "0x00",
                            "balance": "0x00",
                            "code": "0x6020600060006000600073b94f5374fce5edbc8e2a8697c15331677e6ebf0b6180e8f15060005160015500",
                            "storage": {
                                "0x01": "0x6460016001556000526005601bf3"
                            }
                        },
                        "0xd94f5374fce5edbc8e2a8697c15331677e6ebf0b": {
                            "nonce": "0x00",
                            "balance": "0x00",
                            "code": "0x6020600060006000600073b94f5374fce5edbc8e2a8697c15331677e6ebf0b6159d8f15060005160015500",
                            "storage": {
                                "0x01": "0xff"
                            }
                        },
                        "0xb94f5374fce5edbc8e2a8697c15331677e6ebf0b": {
                            "nonce": "0x00",
                            "balance": "0x00",
                            "code": "0x6d6460016001556000526005601bf3600052600e60126000f05060206000fd00",
                            "storage": {}
                        }
                    }
                }
            ]
        },
        "config": {
            "blobSchedule": {
                "Cancun": {
                    "target": "0x03",
                    "max": "0x06",
                    "baseFeeUpdateFraction": "0x32f0ed"
                },
                "Prague": {
                    "target": "0x06",
                    "max": "0x09",
                    "baseFeeUpdateFraction": "0x4c6964"
                },
                "Osaka": {
                    "target": "0x06",
                    "max": "0x09",
                    "baseFeeUpdateFraction": "0x4c6964"
                }
            },
            "chainid": "0x01"
        },
        "_info": {
            "hash": "0xfeeca9fa84d35995ab338487e0e87e177b5f95b7455f037de69b1451f92aef94",
            "comment": "`execution-spec-tests` generated test",
            "filling-transition-tool": "ethereum-spec-evm-resolver 0.0.5",
            "description": "No description available - add a docstring to the python test class or function.",
            "url": "",
            "fixture-format": "state_test",
            "eels-resolution": {
                "git-url": "https://github.com/marioevz/execution-specs.git",
                "branch": "forks/bpo1",
                "commit": "3387e5f4aedfe99becfdc39b444d6371e25e0924"
            }
        }
    },
    "tests/static/state_tests/stCreateTest/CreateOOGafterInitCodeRevert2Filler.json::CreateOOGafterInitCodeRevert2[fork_Osaka-state_test-d1]": {
        "env": {
            "currentCoinbase": "0x2adc25665018aa1fe0e6bc666dac8fc2697ff9ba",
            "currentGasLimit": "0x989680",
            "currentNumber": "0x01",
            "currentTimestamp": "0x03e8",
            "currentRandom": "0x0000000000000000000000000000000000000000000000000000000000020000",
            "currentDifficulty": "0x00",
            "currentBaseFee": "0x0a",
            "currentExcessBlobGas": "0x00"
        },
        "pre": {
            "0xa94f5374fce5edbc8e2a8697c15331677e6ebf0b": {
                "nonce": "0x00",
                "balance": "0xe8d4a51000",
                "code": "0x",
                "storage": {}
            },
            "0x1000000000000000000000000000000000000000": {
                "nonce": "0x00",
                "balance": "0xe8d4a51000",
                "code": "0x600060006000600060006000355af100",
                "storage": {}
            },
            "0xc94f5374fce5edbc8e2a8697c15331677e6ebf0b": {
                "nonce": "0x00",
                "balance": "0x00",
                "code": "0x6020600060006000600073b94f5374fce5edbc8e2a8697c15331677e6ebf0b6180e8f15060005160015500",
                "storage": {
                    "0x01": "0xff"
                }
            },
            "0xd94f5374fce5edbc8e2a8697c15331677e6ebf0b": {
                "nonce": "0x00",
                "balance": "0x00",
                "code": "0x6020600060006000600073b94f5374fce5edbc8e2a8697c15331677e6ebf0b6159d8f15060005160015500",
                "storage": {
                    "0x01": "0xff"
                }
            },
            "0xb94f5374fce5edbc8e2a8697c15331677e6ebf0b": {
                "nonce": "0x00",
                "balance": "0x00",
                "code": "0x6d6460016001556000526005601bf3600052600e60126000f05060206000fd00",
                "storage": {}
            }
        },
        "transaction": {
            "nonce": "0x00",
            "gasPrice": "0x0a",
            "gasLimit": [
                "0x02ab98"
            ],
            "to": "0x1000000000000000000000000000000000000000",
            "value": [
                "0x00"
            ],
            "data": [
                "0x000000000000000000000000d94f5374fce5edbc8e2a8697c15331677e6ebf0b"
            ],
            "sender": "0xa94f5374fce5edbc8e2a8697c15331677e6ebf0b",
            "secretKey": "0x45a915e4d060149eb4365960e6a7a45f334393093061116b197e3240065ff2d8"
        },
        "post": {
            "Osaka": [
                {
                    "hash": "0x1c5564a343dc220156e161483a41db98b03fd6bf43e51e6cc6b902822f24628c",
                    "logs": "0x1dcc4de8dec75d7aab85b567b6ccd41ad312451b948a7413f0a142fd40d49347",
                    "txbytes": "0xf880800a8302ab9894100000000000000000000000000000000000000080a0000000000000000000000000d94f5374fce5edbc8e2a8697c15331677e6ebf0b26a06b380ca2ca4e21e78386c8f0c42028907116049d72524f4105529d6b4414eb86a05ae0b45909ca9ae998b06e79feff5b407472534149bf46b37ff564704227859b",
                    "indexes": {
                        "data": 0,
                        "gas": 0,
                        "value": 0
                    },
                    "state": {
                        "0xa94f5374fce5edbc8e2a8697c15331677e6ebf0b": {
                            "nonce": "0x01",
                            "balance": "0xe8d49d75ac",
                            "code": "0x",
                            "storage": {}
                        },
                        "0x1000000000000000000000000000000000000000": {
                            "nonce": "0x00",
                            "balance": "0xe8d4a51000",
                            "code": "0x600060006000600060006000355af100",
                            "storage": {}
                        },
                        "0xc94f5374fce5edbc8e2a8697c15331677e6ebf0b": {
                            "nonce": "0x00",
                            "balance": "0x00",
                            "code": "0x6020600060006000600073b94f5374fce5edbc8e2a8697c15331677e6ebf0b6180e8f15060005160015500",
                            "storage": {
                                "0x01": "0xff"
                            }
                        },
                        "0xd94f5374fce5edbc8e2a8697c15331677e6ebf0b": {
                            "nonce": "0x00",
                            "balance": "0x00",
                            "code": "0x6020600060006000600073b94f5374fce5edbc8e2a8697c15331677e6ebf0b6159d8f15060005160015500",
                            "storage": {}
                        },
                        "0xb94f5374fce5edbc8e2a8697c15331677e6ebf0b": {
                            "nonce": "0x00",
                            "balance": "0x00",
                            "code": "0x6d6460016001556000526005601bf3600052600e60126000f05060206000fd00",
                            "storage": {}
                        }
                    }
                }
            ]
        },
        "config": {
            "blobSchedule": {
                "Cancun": {
                    "target": "0x03",
                    "max": "0x06",
                    "baseFeeUpdateFraction": "0x32f0ed"
                },
                "Prague": {
                    "target": "0x06",
                    "max": "0x09",
                    "baseFeeUpdateFraction": "0x4c6964"
                },
                "Osaka": {
                    "target": "0x06",
                    "max": "0x09",
                    "baseFeeUpdateFraction": "0x4c6964"
                }
            },
            "chainid": "0x01"
        },
        "_info": {
            "hash": "0x1cc37b948b62141de6f639897e3859afb6cae8371497f9b3e35fbed8bf901047",
            "comment": "`execution-spec-tests` generated test",
            "filling-transition-tool": "ethereum-spec-evm-resolver 0.0.5",
            "description": "No description available - add a docstring to the python test class or function.",
            "url": "",
            "fixture-format": "state_test",
            "eels-resolution": {
                "git-url": "https://github.com/marioevz/execution-specs.git",
                "branch": "forks/bpo1",
                "commit": "3387e5f4aedfe99becfdc39b444d6371e25e0924"
            }
        }
    },
    "tests/static/state_tests/stCreateTest/CreateOOGafterInitCodeRevert2Filler.json::CreateOOGafterInitCodeRevert2[fork_Prague-state_test-d0]": {
        "env": {
            "currentCoinbase": "0x2adc25665018aa1fe0e6bc666dac8fc2697ff9ba",
            "currentGasLimit": "0x989680",
            "currentNumber": "0x01",
            "currentTimestamp": "0x03e8",
            "currentRandom": "0x0000000000000000000000000000000000000000000000000000000000020000",
            "currentDifficulty": "0x00",
            "currentBaseFee": "0x0a",
            "currentExcessBlobGas": "0x00"
        },
        "pre": {
            "0xa94f5374fce5edbc8e2a8697c15331677e6ebf0b": {
                "nonce": "0x00",
                "balance": "0xe8d4a51000",
                "code": "0x",
                "storage": {}
            },
            "0x1000000000000000000000000000000000000000": {
                "nonce": "0x00",
                "balance": "0xe8d4a51000",
                "code": "0x600060006000600060006000355af100",
                "storage": {}
            },
            "0xc94f5374fce5edbc8e2a8697c15331677e6ebf0b": {
                "nonce": "0x00",
                "balance": "0x00",
                "code": "0x6020600060006000600073b94f5374fce5edbc8e2a8697c15331677e6ebf0b6180e8f15060005160015500",
                "storage": {
                    "0x01": "0xff"
                }
            },
            "0xd94f5374fce5edbc8e2a8697c15331677e6ebf0b": {
                "nonce": "0x00",
                "balance": "0x00",
                "code": "0x6020600060006000600073b94f5374fce5edbc8e2a8697c15331677e6ebf0b6159d8f15060005160015500",
                "storage": {
                    "0x01": "0xff"
                }
            },
            "0xb94f5374fce5edbc8e2a8697c15331677e6ebf0b": {
                "nonce": "0x00",
                "balance": "0x00",
                "code": "0x6d6460016001556000526005601bf3600052600e60126000f05060206000fd00",
                "storage": {}
            }
        },
        "transaction": {
            "nonce": "0x00",
            "gasPrice": "0x0a",
            "gasLimit": [
                "0x02ab98"
            ],
            "to": "0x1000000000000000000000000000000000000000",
            "value": [
                "0x00"
            ],
            "data": [
                "0x000000000000000000000000c94f5374fce5edbc8e2a8697c15331677e6ebf0b"
            ],
            "sender": "0xa94f5374fce5edbc8e2a8697c15331677e6ebf0b",
            "secretKey": "0x45a915e4d060149eb4365960e6a7a45f334393093061116b197e3240065ff2d8"
        },
        "post": {
            "Prague": [
                {
                    "hash": "0xe4d34abce801214152bd484e5d95543ef9245d2a0033c85104069067155693b5",
                    "logs": "0x1dcc4de8dec75d7aab85b567b6ccd41ad312451b948a7413f0a142fd40d49347",
                    "txbytes": "0xf880800a8302ab9894100000000000000000000000000000000000000080a0000000000000000000000000c94f5374fce5edbc8e2a8697c15331677e6ebf0b26a0135ace354706df720f21dc50d0f8705c9c8ea45fa25262e159d3a77f8ddad375a05237a2410a3c33b9e66e9d5aaf6fc63624d29023d9b5b192d05f49510f27d767",
                    "indexes": {
                        "data": 0,
                        "gas": 0,
                        "value": 0
                    },
                    "state": {
                        "0xa94f5374fce5edbc8e2a8697c15331677e6ebf0b": {
                            "nonce": "0x01",
                            "balance": "0xe8d49b33d2",
                            "code": "0x",
                            "storage": {}
                        },
                        "0x1000000000000000000000000000000000000000": {
                            "nonce": "0x00",
                            "balance": "0xe8d4a51000",
                            "code": "0x600060006000600060006000355af100",
                            "storage": {}
                        },
                        "0xc94f5374fce5edbc8e2a8697c15331677e6ebf0b": {
                            "nonce": "0x00",
                            "balance": "0x00",
                            "code": "0x6020600060006000600073b94f5374fce5edbc8e2a8697c15331677e6ebf0b6180e8f15060005160015500",
                            "storage": {
                                "0x01": "0x6460016001556000526005601bf3"
                            }
                        },
                        "0xd94f5374fce5edbc8e2a8697c15331677e6ebf0b": {
                            "nonce": "0x00",
                            "balance": "0x00",
                            "code": "0x6020600060006000600073b94f5374fce5edbc8e2a8697c15331677e6ebf0b6159d8f15060005160015500",
                            "storage": {
                                "0x01": "0xff"
                            }
                        },
                        "0xb94f5374fce5edbc8e2a8697c15331677e6ebf0b": {
                            "nonce": "0x00",
                            "balance": "0x00",
                            "code": "0x6d6460016001556000526005601bf3600052600e60126000f05060206000fd00",
                            "storage": {}
                        }
                    }
                }
            ]
        },
        "config": {
            "blobSchedule": {
                "Cancun": {
                    "target": "0x03",
                    "max": "0x06",
                    "baseFeeUpdateFraction": "0x32f0ed"
                },
                "Prague": {
                    "target": "0x06",
                    "max": "0x09",
                    "baseFeeUpdateFraction": "0x4c6964"
                }
            },
            "chainid": "0x01"
        },
        "_info": {
            "hash": "0xfce25767245c00d848542cdcafa24721d38a8a024683aaf842756d47c7d5a538",
            "comment": "`execution-spec-tests` generated test",
            "filling-transition-tool": "ethereum-spec-evm-resolver 0.0.5",
            "description": "No description available - add a docstring to the python test class or function.",
            "url": "",
            "fixture-format": "state_test",
            "eels-resolution": {
                "git-url": "https://github.com/marioevz/execution-specs.git",
                "branch": "forks/bpo1",
                "commit": "3387e5f4aedfe99becfdc39b444d6371e25e0924"
            }
        }
    },
    "tests/static/state_tests/stCreateTest/CreateOOGafterInitCodeRevert2Filler.json::CreateOOGafterInitCodeRevert2[fork_Prague-state_test-d1]": {
        "env": {
            "currentCoinbase": "0x2adc25665018aa1fe0e6bc666dac8fc2697ff9ba",
            "currentGasLimit": "0x989680",
            "currentNumber": "0x01",
            "currentTimestamp": "0x03e8",
            "currentRandom": "0x0000000000000000000000000000000000000000000000000000000000020000",
            "currentDifficulty": "0x00",
            "currentBaseFee": "0x0a",
            "currentExcessBlobGas": "0x00"
        },
        "pre": {
            "0xa94f5374fce5edbc8e2a8697c15331677e6ebf0b": {
                "nonce": "0x00",
                "balance": "0xe8d4a51000",
                "code": "0x",
                "storage": {}
            },
            "0x1000000000000000000000000000000000000000": {
                "nonce": "0x00",
                "balance": "0xe8d4a51000",
                "code": "0x600060006000600060006000355af100",
                "storage": {}
            },
            "0xc94f5374fce5edbc8e2a8697c15331677e6ebf0b": {
                "nonce": "0x00",
                "balance": "0x00",
                "code": "0x6020600060006000600073b94f5374fce5edbc8e2a8697c15331677e6ebf0b6180e8f15060005160015500",
                "storage": {
                    "0x01": "0xff"
                }
            },
            "0xd94f5374fce5edbc8e2a8697c15331677e6ebf0b": {
                "nonce": "0x00",
                "balance": "0x00",
                "code": "0x6020600060006000600073b94f5374fce5edbc8e2a8697c15331677e6ebf0b6159d8f15060005160015500",
                "storage": {
                    "0x01": "0xff"
                }
            },
            "0xb94f5374fce5edbc8e2a8697c15331677e6ebf0b": {
                "nonce": "0x00",
                "balance": "0x00",
                "code": "0x6d6460016001556000526005601bf3600052600e60126000f05060206000fd00",
                "storage": {}
            }
        },
        "transaction": {
            "nonce": "0x00",
            "gasPrice": "0x0a",
            "gasLimit": [
                "0x02ab98"
            ],
            "to": "0x1000000000000000000000000000000000000000",
            "value": [
                "0x00"
            ],
            "data": [
                "0x000000000000000000000000d94f5374fce5edbc8e2a8697c15331677e6ebf0b"
            ],
            "sender": "0xa94f5374fce5edbc8e2a8697c15331677e6ebf0b",
            "secretKey": "0x45a915e4d060149eb4365960e6a7a45f334393093061116b197e3240065ff2d8"
        },
        "post": {
            "Prague": [
                {
                    "hash": "0x1c5564a343dc220156e161483a41db98b03fd6bf43e51e6cc6b902822f24628c",
                    "logs": "0x1dcc4de8dec75d7aab85b567b6ccd41ad312451b948a7413f0a142fd40d49347",
                    "txbytes": "0xf880800a8302ab9894100000000000000000000000000000000000000080a0000000000000000000000000d94f5374fce5edbc8e2a8697c15331677e6ebf0b26a06b380ca2ca4e21e78386c8f0c42028907116049d72524f4105529d6b4414eb86a05ae0b45909ca9ae998b06e79feff5b407472534149bf46b37ff564704227859b",
                    "indexes": {
                        "data": 0,
                        "gas": 0,
                        "value": 0
                    },
                    "state": {
                        "0xa94f5374fce5edbc8e2a8697c15331677e6ebf0b": {
                            "nonce": "0x01",
                            "balance": "0xe8d49d75ac",
                            "code": "0x",
                            "storage": {}
                        },
                        "0x1000000000000000000000000000000000000000": {
                            "nonce": "0x00",
                            "balance": "0xe8d4a51000",
                            "code": "0x600060006000600060006000355af100",
                            "storage": {}
                        },
                        "0xc94f5374fce5edbc8e2a8697c15331677e6ebf0b": {
                            "nonce": "0x00",
                            "balance": "0x00",
                            "code": "0x6020600060006000600073b94f5374fce5edbc8e2a8697c15331677e6ebf0b6180e8f15060005160015500",
                            "storage": {
                                "0x01": "0xff"
                            }
                        },
                        "0xd94f5374fce5edbc8e2a8697c15331677e6ebf0b": {
                            "nonce": "0x00",
                            "balance": "0x00",
                            "code": "0x6020600060006000600073b94f5374fce5edbc8e2a8697c15331677e6ebf0b6159d8f15060005160015500",
                            "storage": {}
                        },
                        "0xb94f5374fce5edbc8e2a8697c15331677e6ebf0b": {
                            "nonce": "0x00",
                            "balance": "0x00",
                            "code": "0x6d6460016001556000526005601bf3600052600e60126000f05060206000fd00",
                            "storage": {}
                        }
                    }
                }
            ]
        },
        "config": {
            "blobSchedule": {
                "Cancun": {
                    "target": "0x03",
                    "max": "0x06",
                    "baseFeeUpdateFraction": "0x32f0ed"
                },
                "Prague": {
                    "target": "0x06",
                    "max": "0x09",
                    "baseFeeUpdateFraction": "0x4c6964"
                }
            },
            "chainid": "0x01"
        },
        "_info": {
            "hash": "0xa8113c1d7abe47d6f7a04cd9d6b1ff28d3288cad671e4a72b68771e4435b983f",
            "comment": "`execution-spec-tests` generated test",
            "filling-transition-tool": "ethereum-spec-evm-resolver 0.0.5",
            "description": "No description available - add a docstring to the python test class or function.",
            "url": "",
            "fixture-format": "state_test",
            "eels-resolution": {
                "git-url": "https://github.com/marioevz/execution-specs.git",
                "branch": "forks/bpo1",
                "commit": "3387e5f4aedfe99becfdc39b444d6371e25e0924"
            }
        }
    }
}