{
    "tests/ported_static/stStaticCall/test_static_callcodecallcall_100_oogm_after.py::test_static_callcodecallcall_100_oogm_after[fork_Cancun-blockchain_test_from_state_test]": {
        "network": "Cancun",
        "genesisBlockHeader": {
            "parentHash": "0x0000000000000000000000000000000000000000000000000000000000000000",
            "uncleHash": "0x1dcc4de8dec75d7aab85b567b6ccd41ad312451b948a7413f0a142fd40d49347",
            "coinbase": "0x0000000000000000000000000000000000000000",
            "stateRoot": "0xd0e54b9e6b6ba990f85066f6e6d410579d29eb64035a9d4b47d8ccbbf24e2d85",
            "transactionsTrie": "0x56e81f171bcc55a6ff8345e692c0f86e5b48e01b996cadc001622fb5e363b421",
            "receiptTrie": "0x56e81f171bcc55a6ff8345e692c0f86e5b48e01b996cadc001622fb5e363b421",
            "bloom": "0x00000000000000000000000000000000000000000000000000000000000000000000000000000000000000000000000000000000000000000000000000000000000000000000000000000000000000000000000000000000000000000000000000000000000000000000000000000000000000000000000000000000000000000000000000000000000000000000000000000000000000000000000000000000000000000000000000000000000000000000000000000000000000000000000000000000000000000000000000000000000000000000000000000000000000000000000000000000000000000000000000000000000000000000000000000000",
            "difficulty": "0x00",
            "number": "0x00",
            "gasLimit": "0x01c9c380",
            "gasUsed": "0x00",
            "timestamp": "0x00",
            "extraData": "0x00",
            "mixHash": "0x0000000000000000000000000000000000000000000000000000000000000000",
            "nonce": "0x0000000000000000",
            "baseFeePerGas": "0x0b",
            "withdrawalsRoot": "0x56e81f171bcc55a6ff8345e692c0f86e5b48e01b996cadc001622fb5e363b421",
            "blobGasUsed": "0x00",
            "excessBlobGas": "0x00",
            "parentBeaconBlockRoot": "0x0000000000000000000000000000000000000000000000000000000000000000",
            "hash": "0xe182e6d07b980a197c7ffd504b7ffb5a41b8a557b7e6b4066bf719865b6ea67b"
        },
        "pre": {
            "0x000f3df6d732807ef1319fb7b8bb8522d0beac02": {
                "nonce": "0x01",
                "balance": "0x00",
                "code": "0x3373fffffffffffffffffffffffffffffffffffffffe14604d57602036146024575f5ffd5b5f35801560495762001fff810690815414603c575f5ffd5b62001fff01545f5260205ff35b5f5ffd5b62001fff42064281555f359062001fff015500",
                "storage": {}
            },
            "0xe79aee563c83547f229d955ecdcca0f01fed9aa9": {
                "nonce": "0x00",
                "balance": "0x0de0b6b3a7640000",
                "code": "0x6040600060406000732865fd3572b0b77173e5ed91e968acad5570115161eaf6f4600055600160015500",
                "storage": {}
            },
            "0x2865fd3572b0b77173e5ed91e968acad55701151": {
                "nonce": "0x00",
                "balance": "0x00",
                "code": "0x6001600352604060006040600073694b007c276285e1a2424a78288abf42fdda6e71619c90fa505b61c350608051101560435760013b506001608051016080526027565b00",
                "storage": {}
            },
            "0x694b007c276285e1a2424a78288abf42fdda6e71": {
                "nonce": "0x00",
                "balance": "0x00",
                "code": "0x6001600352604060006040600073335c5531b84765a7626e6e76688f18b81be5259c614e34fa50600160205200",
                "storage": {}
            },
            "0x335c5531b84765a7626e6e76688f18b81be5259c": {
                "nonce": "0x00",
                "balance": "0x00",
                "code": "0x600160035200",
                "storage": {}
            },
            "0xebaf50debf10e08302fe4280c32df010463ca297": {
                "nonce": "0x00",
                "balance": "0x0de0b6b3a7640000",
                "code": "0x",
                "storage": {}
            }
        },
        "postState": {
            "0x000f3df6d732807ef1319fb7b8bb8522d0beac02": {
                "nonce": "0x01",
                "balance": "0x00",
                "code": "0x3373fffffffffffffffffffffffffffffffffffffffe14604d57602036146024575f5ffd5b5f35801560495762001fff810690815414603c575f5ffd5b62001fff01545f5260205ff35b5f5ffd5b62001fff42064281555f359062001fff015500",
                "storage": {
                    "0x03e8": "0x03e8"
                }
            },
            "0xe79aee563c83547f229d955ecdcca0f01fed9aa9": {
                "nonce": "0x00",
                "balance": "0x0de0b6b3a7640000",
                "code": "0x6040600060406000732865fd3572b0b77173e5ed91e968acad5570115161eaf6f4600055600160015500",
                "storage": {
                    "0x01": "0x01"
                }
            },
            "0x2865fd3572b0b77173e5ed91e968acad55701151": {
                "nonce": "0x00",
                "balance": "0x00",
                "code": "0x6001600352604060006040600073694b007c276285e1a2424a78288abf42fdda6e71619c90fa505b61c350608051101560435760013b506001608051016080526027565b00",
                "storage": {}
            },
            "0x694b007c276285e1a2424a78288abf42fdda6e71": {
                "nonce": "0x00",
                "balance": "0x00",
                "code": "0x6001600352604060006040600073335c5531b84765a7626e6e76688f18b81be5259c614e34fa50600160205200",
                "storage": {}
            },
            "0x335c5531b84765a7626e6e76688f18b81be5259c": {
                "nonce": "0x00",
                "balance": "0x00",
                "code": "0x600160035200",
                "storage": {}
            },
            "0xebaf50debf10e08302fe4280c32df010463ca297": {
                "nonce": "0x01",
                "balance": "0x0de0b6b3a7538202",
                "code": "0x",
                "storage": {}
            }
        },
        "lastblockhash": "0xb68f73e0d42ce94b3f8c3b309fe1299d8eafb6a8dfc67b96bd3cec9043a97f6d",
        "config": {
            "network": "Cancun",
            "chainid": "0x01",
            "blobSchedule": {
                "Cancun": {
                    "target": "0x03",
                    "max": "0x06",
                    "baseFeeUpdateFraction": "0x32f0ed"
                }
            }
        },
        "genesisRLP": "0xf9023cf90236a00000000000000000000000000000000000000000000000000000000000000000a01dcc4de8dec75d7aab85b567b6ccd41ad312451b948a7413f0a142fd40d49347940000000000000000000000000000000000000000a0d0e54b9e6b6ba990f85066f6e6d410579d29eb64035a9d4b47d8ccbbf24e2d85a056e81f171bcc55a6ff8345e692c0f86e5b48e01b996cadc001622fb5e363b421a056e81f171bcc55a6ff8345e692c0f86e5b48e01b996cadc001622fb5e363b421b901000000000000000000000000000000000000000000000000000000000000000000000000000000000000000000000000000000000000000000000000000000000000000000000000000000000000000000000000000000000000000000000000000000000000000000000000000000000000000000000000000000000000000000000000000000000000000000000000000000000000000000000000000000000000000000000000000000000000000000000000000000000000000000000000000000000000000000000000000000000000000000000000000000000000000000000000000000000000000000000000000000000000000000000000000000000080808401c9c380808000a000000000000000000000000000000000000000000000000000000000000000008800000000000000000ba056e81f171bcc55a6ff8345e692c0f86e5b48e01b996cadc001622fb5e363b4218080a00000000000000000000000000000000000000000000000000000000000000000c0c0c0",
        "blocks": [
            {
                "blockHeader": {
                    "parentHash": "0xe182e6d07b980a197c7ffd504b7ffb5a41b8a557b7e6b4066bf719865b6ea67b",
                    "uncleHash": "0x1dcc4de8dec75d7aab85b567b6ccd41ad312451b948a7413f0a142fd40d49347",
                    "coinbase": "0x2adc25665018aa1fe0e6bc666dac8fc2697ff9ba",
                    "stateRoot": "0x4b6dd6459129f5ae14e051f242282e99e207085d25d4ae4f165a2000683e1421",
                    "transactionsTrie": "0xdbf81f2b9e4929f6a12977708e6f9066759e11b34f9c91ec38ec9e78ea47d3f7",
                    "receiptTrie": "0x5c249c0393f5158a09d5e32693e7364a0f640d0ead91576687b9d21f121faf26",
                    "bloom": "0x00000000000000000000000000000000000000000000000000000000000000000000000000000000000000000000000000000000000000000000000000000000000000000000000000000000000000000000000000000000000000000000000000000000000000000000000000000000000000000000000000000000000000000000000000000000000000000000000000000000000000000000000000000000000000000000000000000000000000000000000000000000000000000000000000000000000000000000000000000000000000000000000000000000000000000000000000000000000000000000000000000000000000000000000000000000",
                    "difficulty": "0x00",
                    "number": "0x01",
                    "gasLimit": "0x01c9c380",
                    "gasUsed": "0x01a633",
                    "timestamp": "0x03e8",
                    "extraData": "0x00",
                    "mixHash": "0x0000000000000000000000000000000000000000000000000000000000020000",
                    "nonce": "0x0000000000000000",
                    "baseFeePerGas": "0x0a",
                    "withdrawalsRoot": "0x56e81f171bcc55a6ff8345e692c0f86e5b48e01b996cadc001622fb5e363b421",
                    "blobGasUsed": "0x00",
                    "excessBlobGas": "0x00",
                    "parentBeaconBlockRoot": "0x0000000000000000000000000000000000000000000000000000000000000000",
                    "hash": "0xb68f73e0d42ce94b3f8c3b309fe1299d8eafb6a8dfc67b96bd3cec9043a97f6d"
                },
                "transactions": [
                    {
                        "type": "0x00",
                        "chainId": "0x01",
                        "nonce": "0x00",
                        "gasPrice": "0x0a",
                        "gasLimit": "0x1a3ec0",
                        "to": "0xe79aee563c83547f229d955ecdcca0f01fed9aa9",
                        "value": "0x00",
                        "data": "0x",
                        "v": "0x25",
                        "r": "0x5f2ff0bd1e6fc04ae6835871c2d4827f19caf91b3957ee679a038cb925ffc89b",
                        "s": "0x6c80919f9f5a9e760a54c488590cc349559c72ded8ae38db7cac004fd216185a",
                        "sender": "0xebaf50debf10e08302fe4280c32df010463ca297"
                    }
                ],
                "uncleHeaders": [],
                "withdrawals": [],
                "receipts": [
                    {
                        "transactionHash": "0x65532c8681a9f166b3408e1cc5af24c61adb6d151a6242f2307e1527bc774eab",
                        "type": "0x00",
                        "cumulativeGasUsed": "0x01a633",
                        "bloom": "0x00000000000000000000000000000000000000000000000000000000000000000000000000000000000000000000000000000000000000000000000000000000000000000000000000000000000000000000000000000000000000000000000000000000000000000000000000000000000000000000000000000000000000000000000000000000000000000000000000000000000000000000000000000000000000000000000000000000000000000000000000000000000000000000000000000000000000000000000000000000000000000000000000000000000000000000000000000000000000000000000000000000000000000000000000000000",
                        "logs": [],
                        "status": true,
                        "rlp": "0xf90109018301a633b9010000000000000000000000000000000000000000000000000000000000000000000000000000000000000000000000000000000000000000000000000000000000000000000000000000000000000000000000000000000000000000000000000000000000000000000000000000000000000000000000000000000000000000000000000000000000000000000000000000000000000000000000000000000000000000000000000000000000000000000000000000000000000000000000000000000000000000000000000000000000000000000000000000000000000000000000000000000000000000000000000000000000000000000000000000000000c0"
                    }
                ],
                "rlp": "0xf902a4f9023ba0e182e6d07b980a197c7ffd504b7ffb5a41b8a557b7e6b4066bf719865b6ea67ba01dcc4de8dec75d7aab85b567b6ccd41ad312451b948a7413f0a142fd40d49347942adc25665018aa1fe0e6bc666dac8fc2697ff9baa04b6dd6459129f5ae14e051f242282e99e207085d25d4ae4f165a2000683e1421a0dbf81f2b9e4929f6a12977708e6f9066759e11b34f9c91ec38ec9e78ea47d3f7a05c249c0393f5158a09d5e32693e7364a0f640d0ead91576687b9d21f121faf26b901000000000000000000000000000000000000000000000000000000000000000000000000000000000000000000000000000000000000000000000000000000000000000000000000000000000000000000000000000000000000000000000000000000000000000000000000000000000000000000000000000000000000000000000000000000000000000000000000000000000000000000000000000000000000000000000000000000000000000000000000000000000000000000000000000000000000000000000000000000000000000000000000000000000000000000000000000000000000000000000000000000000000000000000000000000000080018401c9c3808301a6338203e800a000000000000000000000000000000000000000000000000000000000000200008800000000000000000aa056e81f171bcc55a6ff8345e692c0f86e5b48e01b996cadc001622fb5e363b4218080a00000000000000000000000000000000000000000000000000000000000000000f862f860800a831a3ec094e79aee563c83547f229d955ecdcca0f01fed9aa9808025a05f2ff0bd1e6fc04ae6835871c2d4827f19caf91b3957ee679a038cb925ffc89ba06c80919f9f5a9e760a54c488590cc349559c72ded8ae38db7cac004fd216185ac0c0",
                "blocknumber": "1"
            }
        ],
        "sealEngine": "NoProof",
        "_info": {
            "hash": "0xa78da307169a93fbe7eb6b083eb7cbcb4620fba9afda2ff566d07c070c6ac467",
            "fixture-format": "blockchain_test",
            "comment": "`execution-specs` generated test",
            "filling-transition-tool": "2.19.0",
            "description": "Test_static_callcodecallcall_100_oogm_after.",
            "url": "https://github.com/ethereum/execution-specs/blob/tests-bal@v5.7.0/tests/ported_static/stStaticCall/test_static_callcodecallcall_100_oogm_after.py#L25",
            "metadata": {
                "opcode_count": {}
            }
        }
    }
}