{
    "tests/ported_static/stCallCodes/test_callcodecallcallcode_101_oogm_before.py::test_callcodecallcallcode_101_oogm_before[fork_Cancun-blockchain_test_from_state_test]": {
        "network": "Cancun",
        "genesisBlockHeader": {
            "parentHash": "0x0000000000000000000000000000000000000000000000000000000000000000",
            "uncleHash": "0x1dcc4de8dec75d7aab85b567b6ccd41ad312451b948a7413f0a142fd40d49347",
            "coinbase": "0x0000000000000000000000000000000000000000",
            "stateRoot": "0x2983a44af8a5b15a4bff853af3da23e61a2f5d578d42bfbc3b7bfb238b858d94",
            "transactionsTrie": "0x56e81f171bcc55a6ff8345e692c0f86e5b48e01b996cadc001622fb5e363b421",
            "receiptTrie": "0x56e81f171bcc55a6ff8345e692c0f86e5b48e01b996cadc001622fb5e363b421",
            "bloom": "0x00000000000000000000000000000000000000000000000000000000000000000000000000000000000000000000000000000000000000000000000000000000000000000000000000000000000000000000000000000000000000000000000000000000000000000000000000000000000000000000000000000000000000000000000000000000000000000000000000000000000000000000000000000000000000000000000000000000000000000000000000000000000000000000000000000000000000000000000000000000000000000000000000000000000000000000000000000000000000000000000000000000000000000000000000000000",
            "difficulty": "0x00",
            "number": "0x00",
            "gasLimit": "0x01c9c380",
            "gasUsed": "0x00",
            "timestamp": "0x00",
            "extraData": "0x00",
            "mixHash": "0x0000000000000000000000000000000000000000000000000000000000000000",
            "nonce": "0x0000000000000000",
            "baseFeePerGas": "0x0b",
            "withdrawalsRoot": "0x56e81f171bcc55a6ff8345e692c0f86e5b48e01b996cadc001622fb5e363b421",
            "blobGasUsed": "0x00",
            "excessBlobGas": "0x00",
            "parentBeaconBlockRoot": "0x0000000000000000000000000000000000000000000000000000000000000000",
            "hash": "0xf4acce4dc8aaf848f36ad7b281a84b8ff0056595cbfe439fc9d6760d36f2490a"
        },
        "pre": {
            "0x000f3df6d732807ef1319fb7b8bb8522d0beac02": {
                "nonce": "0x01",
                "balance": "0x00",
                "code": "0x3373fffffffffffffffffffffffffffffffffffffffe14604d57602036146024575f5ffd5b5f35801560495762001fff810690815414603c575f5ffd5b62001fff01545f5260205ff35b5f5ffd5b62001fff42064281555f359062001fff015500",
                "storage": {}
            },
            "0xd66f224cbd2fabb21b17bb53c56118f32f62ebd6": {
                "nonce": "0x00",
                "balance": "0x0de0b6b3a7640000",
                "code": "0x",
                "storage": {}
            },
            "0xf68e9b59ad48df3b9601ded50f7a1049113d801d": {
                "nonce": "0x00",
                "balance": "0x00",
                "code": "0x600160035500",
                "storage": {}
            },
            "0x7d575c6158b9fadd2c42bfc625cf856bfc1656b5": {
                "nonce": "0x00",
                "balance": "0x00",
                "code": "0x622fffff600020506040600060406000600073f68e9b59ad48df3b9601ded50f7a1049113d801d62061a80f260025500",
                "storage": {}
            },
            "0x991e229c39a50824148011a537338eabebd4004d": {
                "nonce": "0x00",
                "balance": "0x00",
                "code": "0x60406000604060006000737d575c6158b9fadd2c42bfc625cf856bfc1656b5620927c0f16001556001600b5500",
                "storage": {}
            },
            "0xf63178ab1a543db5ecdfc90fb38c779b50f422d6": {
                "nonce": "0x00",
                "balance": "0x0de0b6b3a7640000",
                "code": "0x6040600060406000600073991e229c39a50824148011a537338eabebd4004d620c3500f260005500",
                "storage": {}
            }
        },
        "postState": {
            "0x000f3df6d732807ef1319fb7b8bb8522d0beac02": {
                "nonce": "0x01",
                "balance": "0x00",
                "code": "0x3373fffffffffffffffffffffffffffffffffffffffe14604d57602036146024575f5ffd5b5f35801560495762001fff810690815414603c575f5ffd5b62001fff01545f5260205ff35b5f5ffd5b62001fff42064281555f359062001fff015500",
                "storage": {
                    "0x03e8": "0x03e8"
                }
            },
            "0xd66f224cbd2fabb21b17bb53c56118f32f62ebd6": {
                "nonce": "0x01",
                "balance": "0x0de0b6b3a6fd5bfc",
                "code": "0x",
                "storage": {}
            },
            "0xf68e9b59ad48df3b9601ded50f7a1049113d801d": {
                "nonce": "0x00",
                "balance": "0x00",
                "code": "0x600160035500",
                "storage": {}
            },
            "0x7d575c6158b9fadd2c42bfc625cf856bfc1656b5": {
                "nonce": "0x00",
                "balance": "0x00",
                "code": "0x622fffff600020506040600060406000600073f68e9b59ad48df3b9601ded50f7a1049113d801d62061a80f260025500",
                "storage": {}
            },
            "0x991e229c39a50824148011a537338eabebd4004d": {
                "nonce": "0x00",
                "balance": "0x00",
                "code": "0x60406000604060006000737d575c6158b9fadd2c42bfc625cf856bfc1656b5620927c0f16001556001600b5500",
                "storage": {}
            },
            "0xf63178ab1a543db5ecdfc90fb38c779b50f422d6": {
                "nonce": "0x00",
                "balance": "0x0de0b6b3a7640000",
                "code": "0x6040600060406000600073991e229c39a50824148011a537338eabebd4004d620c3500f260005500",
                "storage": {
                    "0x0b": "0x01",
                    "0x00": "0x01"
                }
            }
        },
        "lastblockhash": "0x1cb454671a8e34cf906648c8142f03f6721b19e2766d60a45c39f7ffdec0b3e5",
        "config": {
            "network": "Cancun",
            "chainid": "0x01",
            "blobSchedule": {
                "Cancun": {
                    "target": "0x03",
                    "max": "0x06",
                    "baseFeeUpdateFraction": "0x32f0ed"
                }
            }
        },
        "genesisRLP": "0xf9023cf90236a00000000000000000000000000000000000000000000000000000000000000000a01dcc4de8dec75d7aab85b567b6ccd41ad312451b948a7413f0a142fd40d49347940000000000000000000000000000000000000000a02983a44af8a5b15a4bff853af3da23e61a2f5d578d42bfbc3b7bfb238b858d94a056e81f171bcc55a6ff8345e692c0f86e5b48e01b996cadc001622fb5e363b421a056e81f171bcc55a6ff8345e692c0f86e5b48e01b996cadc001622fb5e363b421b901000000000000000000000000000000000000000000000000000000000000000000000000000000000000000000000000000000000000000000000000000000000000000000000000000000000000000000000000000000000000000000000000000000000000000000000000000000000000000000000000000000000000000000000000000000000000000000000000000000000000000000000000000000000000000000000000000000000000000000000000000000000000000000000000000000000000000000000000000000000000000000000000000000000000000000000000000000000000000000000000000000000000000000000000000000000080808401c9c380808000a000000000000000000000000000000000000000000000000000000000000000008800000000000000000ba056e81f171bcc55a6ff8345e692c0f86e5b48e01b996cadc001622fb5e363b4218080a00000000000000000000000000000000000000000000000000000000000000000c0c0c0",
        "blocks": [
            {
                "blockHeader": {
                    "parentHash": "0xf4acce4dc8aaf848f36ad7b281a84b8ff0056595cbfe439fc9d6760d36f2490a",
                    "uncleHash": "0x1dcc4de8dec75d7aab85b567b6ccd41ad312451b948a7413f0a142fd40d49347",
                    "coinbase": "0x2adc25665018aa1fe0e6bc666dac8fc2697ff9ba",
                    "stateRoot": "0x15c0e77bddd0986230a3be84f0966e2409c93ac579431b81d921eb5b8f87048d",
                    "transactionsTrie": "0x061870ab82114220c2f19e60d570f1b1007b1fafa35a29533eed13228671ed6b",
                    "receiptTrie": "0xec9f6a1878d88cdf986955b72798456bbf3a45aa4f1aec745f7983918ff28aa0",
                    "bloom": "0x00000000000000000000000000000000000000000000000000000000000000000000000000000000000000000000000000000000000000000000000000000000000000000000000000000000000000000000000000000000000000000000000000000000000000000000000000000000000000000000000000000000000000000000000000000000000000000000000000000000000000000000000000000000000000000000000000000000000000000000000000000000000000000000000000000000000000000000000000000000000000000000000000000000000000000000000000000000000000000000000000000000000000000000000000000000",
                    "difficulty": "0x00",
                    "number": "0x01",
                    "gasLimit": "0x01c9c380",
                    "gasUsed": "0x0a439a",
                    "timestamp": "0x03e8",
                    "extraData": "0x00",
                    "mixHash": "0x0000000000000000000000000000000000000000000000000000000000020000",
                    "nonce": "0x0000000000000000",
                    "baseFeePerGas": "0x0a",
                    "withdrawalsRoot": "0x56e81f171bcc55a6ff8345e692c0f86e5b48e01b996cadc001622fb5e363b421",
                    "blobGasUsed": "0x00",
                    "excessBlobGas": "0x00",
                    "parentBeaconBlockRoot": "0x0000000000000000000000000000000000000000000000000000000000000000",
                    "hash": "0x1cb454671a8e34cf906648c8142f03f6721b19e2766d60a45c39f7ffdec0b3e5"
                },
                "transactions": [
                    {
                        "type": "0x00",
                        "chainId": "0x01",
                        "nonce": "0x00",
                        "gasPrice": "0x0a",
                        "gasLimit": "0x0f4240",
                        "to": "0xf63178ab1a543db5ecdfc90fb38c779b50f422d6",
                        "value": "0x00",
                        "data": "0x",
                        "v": "0x25",
                        "r": "0x8e36b0345c6d80d87adae20f4c8c9d7c20c2ac844fd5e894d8ad119db9fc4c46",
                        "s": "0x285b5113ef378f643f397e6b7d11e6917a8c19db7988cc79fed168738fcbb08c",
                        "sender": "0xd66f224cbd2fabb21b17bb53c56118f32f62ebd6"
                    }
                ],
                "uncleHeaders": [],
                "withdrawals": [],
                "receipts": [
                    {
                        "transactionHash": "0xe25c58f8fc214e30ddb6b4cdadcdd48252530941cda853a2b69ef4de10ff1f2a",
                        "type": "0x00",
                        "cumulativeGasUsed": "0x0a439a",
                        "bloom": "0x00000000000000000000000000000000000000000000000000000000000000000000000000000000000000000000000000000000000000000000000000000000000000000000000000000000000000000000000000000000000000000000000000000000000000000000000000000000000000000000000000000000000000000000000000000000000000000000000000000000000000000000000000000000000000000000000000000000000000000000000000000000000000000000000000000000000000000000000000000000000000000000000000000000000000000000000000000000000000000000000000000000000000000000000000000000",
                        "logs": [],
                        "status": true,
                        "rlp": "0xf9010901830a439ab9010000000000000000000000000000000000000000000000000000000000000000000000000000000000000000000000000000000000000000000000000000000000000000000000000000000000000000000000000000000000000000000000000000000000000000000000000000000000000000000000000000000000000000000000000000000000000000000000000000000000000000000000000000000000000000000000000000000000000000000000000000000000000000000000000000000000000000000000000000000000000000000000000000000000000000000000000000000000000000000000000000000000000000000000000000000000c0"
                    }
                ],
                "rlp": "0xf902a4f9023ba0f4acce4dc8aaf848f36ad7b281a84b8ff0056595cbfe439fc9d6760d36f2490aa01dcc4de8dec75d7aab85b567b6ccd41ad312451b948a7413f0a142fd40d49347942adc25665018aa1fe0e6bc666dac8fc2697ff9baa015c0e77bddd0986230a3be84f0966e2409c93ac579431b81d921eb5b8f87048da0061870ab82114220c2f19e60d570f1b1007b1fafa35a29533eed13228671ed6ba0ec9f6a1878d88cdf986955b72798456bbf3a45aa4f1aec745f7983918ff28aa0b901000000000000000000000000000000000000000000000000000000000000000000000000000000000000000000000000000000000000000000000000000000000000000000000000000000000000000000000000000000000000000000000000000000000000000000000000000000000000000000000000000000000000000000000000000000000000000000000000000000000000000000000000000000000000000000000000000000000000000000000000000000000000000000000000000000000000000000000000000000000000000000000000000000000000000000000000000000000000000000000000000000000000000000000000000000000080018401c9c380830a439a8203e800a000000000000000000000000000000000000000000000000000000000000200008800000000000000000aa056e81f171bcc55a6ff8345e692c0f86e5b48e01b996cadc001622fb5e363b4218080a00000000000000000000000000000000000000000000000000000000000000000f862f860800a830f424094f63178ab1a543db5ecdfc90fb38c779b50f422d6808025a08e36b0345c6d80d87adae20f4c8c9d7c20c2ac844fd5e894d8ad119db9fc4c46a0285b5113ef378f643f397e6b7d11e6917a8c19db7988cc79fed168738fcbb08cc0c0",
                "blocknumber": "1"
            }
        ],
        "sealEngine": "NoProof",
        "_info": {
            "hash": "0xec4b95f04fd3dd00b88b9e9fd8127895e5a08c58edd5ab243e39488216c7b243",
            "fixture-format": "blockchain_test",
            "comment": "`execution-specs` generated test",
            "filling-transition-tool": "2.19.0",
            "description": "Callcode -> call -> oog callcode -> code.",
            "url": "https://github.com/ethereum/execution-specs/blob/tests-snobal-devnet-5@v8037.0.0/tests/ported_static/stCallCodes/test_callcodecallcallcode_101_oogm_before.py#L24",
            "metadata": {
                "opcode_count": {}
            }
        }
    }
}