{
    "tests/ported_static/stLogTests/test_log4_caller.py::test_log4_caller[fork_Cancun-blockchain_test_from_state_test]": {
        "network": "Cancun",
        "genesisBlockHeader": {
            "parentHash": "0x0000000000000000000000000000000000000000000000000000000000000000",
            "uncleHash": "0x1dcc4de8dec75d7aab85b567b6ccd41ad312451b948a7413f0a142fd40d49347",
            "coinbase": "0x0000000000000000000000000000000000000000",
            "stateRoot": "0xbf08f963f0d1514f9435468f9a31d45a1aa7c64c721ae67a3f4d2c8ddbf06531",
            "transactionsTrie": "0x56e81f171bcc55a6ff8345e692c0f86e5b48e01b996cadc001622fb5e363b421",
            "receiptTrie": "0x56e81f171bcc55a6ff8345e692c0f86e5b48e01b996cadc001622fb5e363b421",
            "bloom": "0x00000000000000000000000000000000000000000000000000000000000000000000000000000000000000000000000000000000000000000000000000000000000000000000000000000000000000000000000000000000000000000000000000000000000000000000000000000000000000000000000000000000000000000000000000000000000000000000000000000000000000000000000000000000000000000000000000000000000000000000000000000000000000000000000000000000000000000000000000000000000000000000000000000000000000000000000000000000000000000000000000000000000000000000000000000000",
            "difficulty": "0x00",
            "number": "0x00",
            "gasLimit": "0x0f4240",
            "gasUsed": "0x00",
            "timestamp": "0x00",
            "extraData": "0x00",
            "mixHash": "0x0000000000000000000000000000000000000000000000000000000000000000",
            "nonce": "0x0000000000000000",
            "baseFeePerGas": "0x0b",
            "withdrawalsRoot": "0x56e81f171bcc55a6ff8345e692c0f86e5b48e01b996cadc001622fb5e363b421",
            "blobGasUsed": "0x00",
            "excessBlobGas": "0x00",
            "parentBeaconBlockRoot": "0x0000000000000000000000000000000000000000000000000000000000000000",
            "hash": "0xe0dd1d4a1f03a191fd3d43145820e1c2bb98fae39fc609b92a1b07c6eedba029"
        },
        "pre": {
            "0x000f3df6d732807ef1319fb7b8bb8522d0beac02": {
                "nonce": "0x01",
                "balance": "0x00",
                "code": "0x3373fffffffffffffffffffffffffffffffffffffffe14604d57602036146024575f5ffd5b5f35801560495762001fff810690815414603c575f5ffd5b62001fff01545f5260205ff35b5f5ffd5b62001fff42064281555f359062001fff015500",
                "storage": {}
            },
            "0xd66f224cbd2fabb21b17bb53c56118f32f62ebd6": {
                "nonce": "0x00",
                "balance": "0x0de0b6b3a7640000",
                "code": "0x",
                "storage": {}
            },
            "0x9754c0a2670dff5650b562f678d2369aaec36247": {
                "nonce": "0x00",
                "balance": "0x0de0b6b3a7640000",
                "code": "0x60ff6000533360006000600060206000a400",
                "storage": {}
            },
            "0xa84b1df278cdb801d76513eaca45dbf6f50878df": {
                "nonce": "0x00",
                "balance": "0x0de0b6b3a7640000",
                "code": "0x60006000600060006017739754c0a2670dff5650b562f678d2369aaec362476103e8f160005500",
                "storage": {}
            }
        },
        "postState": {
            "0x000f3df6d732807ef1319fb7b8bb8522d0beac02": {
                "nonce": "0x01",
                "balance": "0x00",
                "code": "0x3373fffffffffffffffffffffffffffffffffffffffe14604d57602036146024575f5ffd5b5f35801560495762001fff810690815414603c575f5ffd5b62001fff01545f5260205ff35b5f5ffd5b62001fff42064281555f359062001fff015500",
                "storage": {
                    "0x03e8": "0x03e8"
                }
            },
            "0xd66f224cbd2fabb21b17bb53c56118f32f62ebd6": {
                "nonce": "0x01",
                "balance": "0x0de0b6b3a75a2530",
                "code": "0x",
                "storage": {}
            },
            "0x9754c0a2670dff5650b562f678d2369aaec36247": {
                "nonce": "0x00",
                "balance": "0x0de0b6b3a7640017",
                "code": "0x60ff6000533360006000600060206000a400",
                "storage": {}
            },
            "0xa84b1df278cdb801d76513eaca45dbf6f50878df": {
                "nonce": "0x00",
                "balance": "0x0de0b6b3a7658689",
                "code": "0x60006000600060006017739754c0a2670dff5650b562f678d2369aaec362476103e8f160005500",
                "storage": {
                    "0x00": "0x01"
                }
            }
        },
        "lastblockhash": "0x32dc30fda481ee3bf790493823b2d3d524cfc1c1d27db3f9005ea03030b700f7",
        "config": {
            "network": "Cancun",
            "chainid": "0x01",
            "blobSchedule": {
                "Cancun": {
                    "target": "0x03",
                    "max": "0x06",
                    "baseFeeUpdateFraction": "0x32f0ed"
                }
            }
        },
        "genesisRLP": "0xf9023bf90235a00000000000000000000000000000000000000000000000000000000000000000a01dcc4de8dec75d7aab85b567b6ccd41ad312451b948a7413f0a142fd40d49347940000000000000000000000000000000000000000a0bf08f963f0d1514f9435468f9a31d45a1aa7c64c721ae67a3f4d2c8ddbf06531a056e81f171bcc55a6ff8345e692c0f86e5b48e01b996cadc001622fb5e363b421a056e81f171bcc55a6ff8345e692c0f86e5b48e01b996cadc001622fb5e363b421b90100000000000000000000000000000000000000000000000000000000000000000000000000000000000000000000000000000000000000000000000000000000000000000000000000000000000000000000000000000000000000000000000000000000000000000000000000000000000000000000000000000000000000000000000000000000000000000000000000000000000000000000000000000000000000000000000000000000000000000000000000000000000000000000000000000000000000000000000000000000000000000000000000000000000000000000000000000000000000000000000000000000000000000000000000000000008080830f4240808000a000000000000000000000000000000000000000000000000000000000000000008800000000000000000ba056e81f171bcc55a6ff8345e692c0f86e5b48e01b996cadc001622fb5e363b4218080a00000000000000000000000000000000000000000000000000000000000000000c0c0c0",
        "blocks": [
            {
                "blockHeader": {
                    "parentHash": "0xe0dd1d4a1f03a191fd3d43145820e1c2bb98fae39fc609b92a1b07c6eedba029",
                    "uncleHash": "0x1dcc4de8dec75d7aab85b567b6ccd41ad312451b948a7413f0a142fd40d49347",
                    "coinbase": "0x2adc25665018aa1fe0e6bc666dac8fc2697ff9ba",
                    "stateRoot": "0xf6d376e952490c36491d21ff757c25bdfa8d5a36a019b7ca7b9aa034d065aa5a",
                    "transactionsTrie": "0x824208c48ec4c45243d9d031308adee808984e5d5f34843b6f07a3f49c312ee7",
                    "receiptTrie": "0xbece29b5ffcac9c0306ca6faf75cc412e1b4be0268316997ab7b669af39ec00c",
                    "bloom": "0x00000000000000000000000000000000000000000000000000000000000000000000000000000000200000000000000000000000000000000000000000000000000000000000000000000000001000000000000000000000000000000000000000000000020000000000000000000800000000000000000000000000000000000000000000000000080000000000000000000000000000000000000000000000000000000000000000000000000000000000000000000000000000000000000000000000000000000000000000200000000000000000000000000000000020000000200000000000000000000000000000000008000000000000000000000000",
                    "difficulty": "0x00",
                    "number": "0x01",
                    "gasLimit": "0x0f4240",
                    "gasUsed": "0xd538",
                    "timestamp": "0x03e8",
                    "extraData": "0x00",
                    "mixHash": "0x0000000000000000000000000000000000000000000000000000000000020000",
                    "nonce": "0x0000000000000000",
                    "baseFeePerGas": "0x0a",
                    "withdrawalsRoot": "0x56e81f171bcc55a6ff8345e692c0f86e5b48e01b996cadc001622fb5e363b421",
                    "blobGasUsed": "0x00",
                    "excessBlobGas": "0x00",
                    "parentBeaconBlockRoot": "0x0000000000000000000000000000000000000000000000000000000000000000",
                    "hash": "0x32dc30fda481ee3bf790493823b2d3d524cfc1c1d27db3f9005ea03030b700f7"
                },
                "transactions": [
                    {
                        "type": "0x00",
                        "chainId": "0x01",
                        "nonce": "0x00",
                        "gasPrice": "0x0a",
                        "gasLimit": "0x033450",
                        "to": "0xa84b1df278cdb801d76513eaca45dbf6f50878df",
                        "value": "0x0186a0",
                        "data": "0x",
                        "v": "0x25",
                        "r": "0xa95ff22eba5c91ba3cf7ccbf4079a8182ac40440c9166bf4456af90c541c7070",
                        "s": "0x534a46002efa2fc8817616ab95956b011817c4bac91d70b35b63f7bdfd45d54c",
                        "sender": "0xd66f224cbd2fabb21b17bb53c56118f32f62ebd6"
                    }
                ],
                "uncleHeaders": [],
                "withdrawals": [],
                "receipts": [
                    {
                        "transactionHash": "0x7ea5e3e42131cd15370203a974e8f11fde130561d66f9b9a001901133ea0c6a6",
                        "type": "0x00",
                        "cumulativeGasUsed": "0xd538",
                        "bloom": "0x00000000000000000000000000000000000000000000000000000000000000000000000000000000200000000000000000000000000000000000000000000000000000000000000000000000001000000000000000000000000000000000000000000000020000000000000000000800000000000000000000000000000000000000000000000000080000000000000000000000000000000000000000000000000000000000000000000000000000000000000000000000000000000000000000000000000000000000000000200000000000000000000000000000000020000000200000000000000000000000000000000008000000000000000000000000",
                        "logs": [
                            {
                                "address": "0x9754c0a2670dff5650b562f678d2369aaec36247",
                                "topics": [
                                    "0x0000000000000000000000000000000000000000000000000000000000000000",
                                    "0x0000000000000000000000000000000000000000000000000000000000000000",
                                    "0x0000000000000000000000000000000000000000000000000000000000000000",
                                    "0x000000000000000000000000a84b1df278cdb801d76513eaca45dbf6f50878df"
                                ],
                                "data": "0xff00000000000000000000000000000000000000000000000000000000000000"
                            }
                        ],
                        "status": true,
                        "rlp": "0xf901c70182d538b9010000000000000000000000000000000000000000000000000000000000000000000000000000000000200000000000000000000000000000000000000000000000000000000000000000000000001000000000000000000000000000000000000000000000020000000000000000000800000000000000000000000000000000000000000000000000080000000000000000000000000000000000000000000000000000000000000000000000000000000000000000000000000000000000000000000000000000000000000000200000000000000000000000000000000020000000200000000000000000000000000000000008000000000000000000000000f8bef8bc949754c0a2670dff5650b562f678d2369aaec36247f884a00000000000000000000000000000000000000000000000000000000000000000a00000000000000000000000000000000000000000000000000000000000000000a00000000000000000000000000000000000000000000000000000000000000000a0000000000000000000000000a84b1df278cdb801d76513eaca45dbf6f50878dfa0ff00000000000000000000000000000000000000000000000000000000000000"
                    }
                ],
                "rlp": "0xf902a5f90239a0e0dd1d4a1f03a191fd3d43145820e1c2bb98fae39fc609b92a1b07c6eedba029a01dcc4de8dec75d7aab85b567b6ccd41ad312451b948a7413f0a142fd40d49347942adc25665018aa1fe0e6bc666dac8fc2697ff9baa0f6d376e952490c36491d21ff757c25bdfa8d5a36a019b7ca7b9aa034d065aa5aa0824208c48ec4c45243d9d031308adee808984e5d5f34843b6f07a3f49c312ee7a0bece29b5ffcac9c0306ca6faf75cc412e1b4be0268316997ab7b669af39ec00cb90100000000000000000000000000000000000000000000000000000000000000000000000000000000002000000000000000000000000000000000000000000000000000000000000000000000000010000000000000000000000000000000000000000000000200000000000000000008000000000000000000000000000000000000000000000000000800000000000000000000000000000000000000000000000000000000000000000000000000000000000000000000000000000000000000000000000000000000000000002000000000000000000000000000000000200000002000000000000000000000000000000000080000000000000000000000008001830f424082d5388203e800a000000000000000000000000000000000000000000000000000000000000200008800000000000000000aa056e81f171bcc55a6ff8345e692c0f86e5b48e01b996cadc001622fb5e363b4218080a00000000000000000000000000000000000000000000000000000000000000000f865f863800a8303345094a84b1df278cdb801d76513eaca45dbf6f50878df830186a08025a0a95ff22eba5c91ba3cf7ccbf4079a8182ac40440c9166bf4456af90c541c7070a0534a46002efa2fc8817616ab95956b011817c4bac91d70b35b63f7bdfd45d54cc0c0",
                "blocknumber": "1"
            }
        ],
        "sealEngine": "NoProof",
        "_info": {
            "hash": "0x9cc82ab01a9d246cb0a360683d1bdeaf1791deeb44f561e0a9d5ef69415bd86a",
            "fixture-format": "blockchain_test",
            "comment": "`execution-specs` generated test",
            "filling-transition-tool": "2.19.0",
            "description": "Test_log4_caller.",
            "url": "https://github.com/ethereum/execution-specs/blob/tests-snobal-devnet-5@v8037.0.0/tests/ported_static/stLogTests/test_log4_caller.py#L24",
            "metadata": {
                "opcode_count": {}
            }
        }
    }
}