{
    "tests/ported_static/stLogTests/test_log4_caller.py::test_log4_caller[fork_Cancun-blockchain_test_from_state_test]": {
        "network": "Cancun",
        "genesisBlockHeader": {
            "parentHash": "0x0000000000000000000000000000000000000000000000000000000000000000",
            "uncleHash": "0x1dcc4de8dec75d7aab85b567b6ccd41ad312451b948a7413f0a142fd40d49347",
            "coinbase": "0x0000000000000000000000000000000000000000",
            "stateRoot": "0xbff18b1d8c6ce47dc2ccdfa4e423a0f1a797e8cc5c9039a9615074c7fbd27104",
            "transactionsTrie": "0x56e81f171bcc55a6ff8345e692c0f86e5b48e01b996cadc001622fb5e363b421",
            "receiptTrie": "0x56e81f171bcc55a6ff8345e692c0f86e5b48e01b996cadc001622fb5e363b421",
            "bloom": "0x00000000000000000000000000000000000000000000000000000000000000000000000000000000000000000000000000000000000000000000000000000000000000000000000000000000000000000000000000000000000000000000000000000000000000000000000000000000000000000000000000000000000000000000000000000000000000000000000000000000000000000000000000000000000000000000000000000000000000000000000000000000000000000000000000000000000000000000000000000000000000000000000000000000000000000000000000000000000000000000000000000000000000000000000000000000",
            "difficulty": "0x00",
            "number": "0x00",
            "gasLimit": "0x0f4240",
            "gasUsed": "0x00",
            "timestamp": "0x00",
            "extraData": "0x00",
            "mixHash": "0x0000000000000000000000000000000000000000000000000000000000000000",
            "nonce": "0x0000000000000000",
            "baseFeePerGas": "0x0b",
            "withdrawalsRoot": "0x56e81f171bcc55a6ff8345e692c0f86e5b48e01b996cadc001622fb5e363b421",
            "blobGasUsed": "0x00",
            "excessBlobGas": "0x00",
            "parentBeaconBlockRoot": "0x0000000000000000000000000000000000000000000000000000000000000000",
            "hash": "0x3a90233ac24484747e1d76e7cb2271669abbd1155d8d9c9d69dc2ba40a18eac9"
        },
        "pre": {
            "0x000f3df6d732807ef1319fb7b8bb8522d0beac02": {
                "nonce": "0x01",
                "balance": "0x00",
                "code": "0x3373fffffffffffffffffffffffffffffffffffffffe14604d57602036146024575f5ffd5b5f35801560495762001fff810690815414603c575f5ffd5b62001fff01545f5260205ff35b5f5ffd5b62001fff42064281555f359062001fff015500",
                "storage": {}
            },
            "0x1e5597b6168fe79952cb2de7af91c3449bc95bd4": {
                "nonce": "0x00",
                "balance": "0x0de0b6b3a7640000",
                "code": "0x60006000600060006017733aac40e63f4e85b4f222671fb5691c8a4fdfb3de6103e8f160005500",
                "storage": {}
            },
            "0x3aac40e63f4e85b4f222671fb5691c8a4fdfb3de": {
                "nonce": "0x00",
                "balance": "0x0de0b6b3a7640000",
                "code": "0x60ff6000533360006000600060206000a400",
                "storage": {}
            },
            "0xebaf50debf10e08302fe4280c32df010463ca297": {
                "nonce": "0x00",
                "balance": "0x0de0b6b3a7640000",
                "code": "0x",
                "storage": {}
            }
        },
        "postState": {
            "0x000f3df6d732807ef1319fb7b8bb8522d0beac02": {
                "nonce": "0x01",
                "balance": "0x00",
                "code": "0x3373fffffffffffffffffffffffffffffffffffffffe14604d57602036146024575f5ffd5b5f35801560495762001fff810690815414603c575f5ffd5b62001fff01545f5260205ff35b5f5ffd5b62001fff42064281555f359062001fff015500",
                "storage": {
                    "0x03e8": "0x03e8"
                }
            },
            "0x1e5597b6168fe79952cb2de7af91c3449bc95bd4": {
                "nonce": "0x00",
                "balance": "0x0de0b6b3a7658689",
                "code": "0x60006000600060006017733aac40e63f4e85b4f222671fb5691c8a4fdfb3de6103e8f160005500",
                "storage": {
                    "0x00": "0x01"
                }
            },
            "0x3aac40e63f4e85b4f222671fb5691c8a4fdfb3de": {
                "nonce": "0x00",
                "balance": "0x0de0b6b3a7640017",
                "code": "0x60ff6000533360006000600060206000a400",
                "storage": {}
            },
            "0xebaf50debf10e08302fe4280c32df010463ca297": {
                "nonce": "0x01",
                "balance": "0x0de0b6b3a75a2530",
                "code": "0x",
                "storage": {}
            }
        },
        "lastblockhash": "0x605ff1c65ef274b5245b07ce03a09fe0cc206d00cacac4b98c250448c3831bd0",
        "config": {
            "network": "Cancun",
            "chainid": "0x01",
            "blobSchedule": {
                "Cancun": {
                    "target": "0x03",
                    "max": "0x06",
                    "baseFeeUpdateFraction": "0x32f0ed"
                }
            }
        },
        "genesisRLP": "0xf9023bf90235a00000000000000000000000000000000000000000000000000000000000000000a01dcc4de8dec75d7aab85b567b6ccd41ad312451b948a7413f0a142fd40d49347940000000000000000000000000000000000000000a0bff18b1d8c6ce47dc2ccdfa4e423a0f1a797e8cc5c9039a9615074c7fbd27104a056e81f171bcc55a6ff8345e692c0f86e5b48e01b996cadc001622fb5e363b421a056e81f171bcc55a6ff8345e692c0f86e5b48e01b996cadc001622fb5e363b421b90100000000000000000000000000000000000000000000000000000000000000000000000000000000000000000000000000000000000000000000000000000000000000000000000000000000000000000000000000000000000000000000000000000000000000000000000000000000000000000000000000000000000000000000000000000000000000000000000000000000000000000000000000000000000000000000000000000000000000000000000000000000000000000000000000000000000000000000000000000000000000000000000000000000000000000000000000000000000000000000000000000000000000000000000000000000008080830f4240808000a000000000000000000000000000000000000000000000000000000000000000008800000000000000000ba056e81f171bcc55a6ff8345e692c0f86e5b48e01b996cadc001622fb5e363b4218080a00000000000000000000000000000000000000000000000000000000000000000c0c0c0",
        "blocks": [
            {
                "blockHeader": {
                    "parentHash": "0x3a90233ac24484747e1d76e7cb2271669abbd1155d8d9c9d69dc2ba40a18eac9",
                    "uncleHash": "0x1dcc4de8dec75d7aab85b567b6ccd41ad312451b948a7413f0a142fd40d49347",
                    "coinbase": "0x2adc25665018aa1fe0e6bc666dac8fc2697ff9ba",
                    "stateRoot": "0xfd9a9f73639b1aecf1879c4fcfc7cd955c1e6aeedc34b510f45dbdf3841b95b8",
                    "transactionsTrie": "0x98b5d0b9f245f3f05178b228c487299e1645befd1248d28886f36279372c2f07",
                    "receiptTrie": "0x4bbcbde17c8579980ee030a00b2e5a685b783dea8b6142242e9f5f3f3c52417f",
                    "bloom": "0x00000000000000000000000000000000000000000000000000000000000000000000000000000000000000000400000000000000000000000000000000000000000000000000000000000000000000000000000001000000000000000000000000000000020000000000004000000800000000000000000000000000000000004000000000000000000000000000000000000000000000000000000000000000000000000000000000000000000000000000000000000000000000000000000000000000000000000000000000000000000000000000000000000800000020000000000000000000000000000000000000000000000000000000000000002000",
                    "difficulty": "0x00",
                    "number": "0x01",
                    "gasLimit": "0x0f4240",
                    "gasUsed": "0xd538",
                    "timestamp": "0x03e8",
                    "extraData": "0x00",
                    "mixHash": "0x0000000000000000000000000000000000000000000000000000000000020000",
                    "nonce": "0x0000000000000000",
                    "baseFeePerGas": "0x0a",
                    "withdrawalsRoot": "0x56e81f171bcc55a6ff8345e692c0f86e5b48e01b996cadc001622fb5e363b421",
                    "blobGasUsed": "0x00",
                    "excessBlobGas": "0x00",
                    "parentBeaconBlockRoot": "0x0000000000000000000000000000000000000000000000000000000000000000",
                    "hash": "0x605ff1c65ef274b5245b07ce03a09fe0cc206d00cacac4b98c250448c3831bd0"
                },
                "transactions": [
                    {
                        "type": "0x00",
                        "chainId": "0x01",
                        "nonce": "0x00",
                        "gasPrice": "0x0a",
                        "gasLimit": "0x033450",
                        "to": "0x1e5597b6168fe79952cb2de7af91c3449bc95bd4",
                        "value": "0x0186a0",
                        "data": "0x",
                        "v": "0x26",
                        "r": "0x9b6dd879cc59a9db0fba100de9983f22060bfc7a371084280f4f23394c73a709",
                        "s": "0x3bd127c365fae0e030c528c21e254030afbf19bf7ef7ff511b97d7504b5fc8b2",
                        "sender": "0xebaf50debf10e08302fe4280c32df010463ca297"
                    }
                ],
                "uncleHeaders": [],
                "withdrawals": [],
                "receipts": [
                    {
                        "transactionHash": "0x8c5e70ac6644d1f826fb417f8575a1b1433eb1bbb34ff17fd09bb0e047133423",
                        "type": "0x00",
                        "cumulativeGasUsed": "0xd538",
                        "bloom": "0x00000000000000000000000000000000000000000000000000000000000000000000000000000000000000000400000000000000000000000000000000000000000000000000000000000000000000000000000001000000000000000000000000000000020000000000004000000800000000000000000000000000000000004000000000000000000000000000000000000000000000000000000000000000000000000000000000000000000000000000000000000000000000000000000000000000000000000000000000000000000000000000000000000800000020000000000000000000000000000000000000000000000000000000000000002000",
                        "logs": [
                            {
                                "address": "0x3aac40e63f4e85b4f222671fb5691c8a4fdfb3de",
                                "topics": [
                                    "0x0000000000000000000000000000000000000000000000000000000000000000",
                                    "0x0000000000000000000000000000000000000000000000000000000000000000",
                                    "0x0000000000000000000000000000000000000000000000000000000000000000",
                                    "0x0000000000000000000000001e5597b6168fe79952cb2de7af91c3449bc95bd4"
                                ],
                                "data": "0xff00000000000000000000000000000000000000000000000000000000000000"
                            }
                        ],
                        "status": true,
                        "rlp": "0xf901c70182d538b9010000000000000000000000000000000000000000000000000000000000000000000000000000000000000000000400000000000000000000000000000000000000000000000000000000000000000000000000000001000000000000000000000000000000020000000000004000000800000000000000000000000000000000004000000000000000000000000000000000000000000000000000000000000000000000000000000000000000000000000000000000000000000000000000000000000000000000000000000000000000000000000000000000000800000020000000000000000000000000000000000000000000000000000000000000002000f8bef8bc943aac40e63f4e85b4f222671fb5691c8a4fdfb3def884a00000000000000000000000000000000000000000000000000000000000000000a00000000000000000000000000000000000000000000000000000000000000000a00000000000000000000000000000000000000000000000000000000000000000a00000000000000000000000001e5597b6168fe79952cb2de7af91c3449bc95bd4a0ff00000000000000000000000000000000000000000000000000000000000000"
                    }
                ],
                "rlp": "0xf902a5f90239a03a90233ac24484747e1d76e7cb2271669abbd1155d8d9c9d69dc2ba40a18eac9a01dcc4de8dec75d7aab85b567b6ccd41ad312451b948a7413f0a142fd40d49347942adc25665018aa1fe0e6bc666dac8fc2697ff9baa0fd9a9f73639b1aecf1879c4fcfc7cd955c1e6aeedc34b510f45dbdf3841b95b8a098b5d0b9f245f3f05178b228c487299e1645befd1248d28886f36279372c2f07a04bbcbde17c8579980ee030a00b2e5a685b783dea8b6142242e9f5f3f3c52417fb90100000000000000000000000000000000000000000000000000000000000000000000000000000000000000000004000000000000000000000000000000000000000000000000000000000000000000000000000000010000000000000000000000000000000200000000000040000008000000000000000000000000000000000040000000000000000000000000000000000000000000000000000000000000000000000000000000000000000000000000000000000000000000000000000000000000000000000000000000000000000000000000000000000008000000200000000000000000000000000000000000000000000000000000000000000020008001830f424082d5388203e800a000000000000000000000000000000000000000000000000000000000000200008800000000000000000aa056e81f171bcc55a6ff8345e692c0f86e5b48e01b996cadc001622fb5e363b4218080a00000000000000000000000000000000000000000000000000000000000000000f865f863800a83033450941e5597b6168fe79952cb2de7af91c3449bc95bd4830186a08026a09b6dd879cc59a9db0fba100de9983f22060bfc7a371084280f4f23394c73a709a03bd127c365fae0e030c528c21e254030afbf19bf7ef7ff511b97d7504b5fc8b2c0c0",
                "blocknumber": "1"
            }
        ],
        "sealEngine": "NoProof",
        "_info": {
            "hash": "0x65b17c3cbd03eeb5d3c6b9beaa374467a51f93286102e77ae8c1434dc40ace98",
            "fixture-format": "blockchain_test",
            "comment": "`execution-specs` generated test",
            "filling-transition-tool": "2.19.0",
            "description": "Test_log4_caller.",
            "url": "https://github.com/ethereum/execution-specs/blob/tests-bal@v5.7.0/tests/ported_static/stLogTests/test_log4_caller.py#L25",
            "metadata": {
                "opcode_count": {}
            }
        }
    }
}