{
    "tests/ported_static/stCallDelegateCodesCallCodeHomestead/test_callcodecallcall_abcb_recursive.py::test_callcodecallcall_abcb_recursive[fork_Cancun-blockchain_test_from_state_test]": {
        "network": "Cancun",
        "genesisBlockHeader": {
            "parentHash": "0x0000000000000000000000000000000000000000000000000000000000000000",
            "uncleHash": "0x1dcc4de8dec75d7aab85b567b6ccd41ad312451b948a7413f0a142fd40d49347",
            "coinbase": "0x0000000000000000000000000000000000000000",
            "stateRoot": "0xdbeea2c234558c42a9b995b6b7f0595dbf805278de446934f274f007541a8d61",
            "transactionsTrie": "0x56e81f171bcc55a6ff8345e692c0f86e5b48e01b996cadc001622fb5e363b421",
            "receiptTrie": "0x56e81f171bcc55a6ff8345e692c0f86e5b48e01b996cadc001622fb5e363b421",
            "bloom": "0x00000000000000000000000000000000000000000000000000000000000000000000000000000000000000000000000000000000000000000000000000000000000000000000000000000000000000000000000000000000000000000000000000000000000000000000000000000000000000000000000000000000000000000000000000000000000000000000000000000000000000000000000000000000000000000000000000000000000000000000000000000000000000000000000000000000000000000000000000000000000000000000000000000000000000000000000000000000000000000000000000000000000000000000000000000000",
            "difficulty": "0x00",
            "number": "0x00",
            "gasLimit": "0x07270e00",
            "gasUsed": "0x00",
            "timestamp": "0x00",
            "extraData": "0x00",
            "mixHash": "0x0000000000000000000000000000000000000000000000000000000000000000",
            "nonce": "0x0000000000000000",
            "baseFeePerGas": "0x0b",
            "withdrawalsRoot": "0x56e81f171bcc55a6ff8345e692c0f86e5b48e01b996cadc001622fb5e363b421",
            "blobGasUsed": "0x00",
            "excessBlobGas": "0x00",
            "parentBeaconBlockRoot": "0x0000000000000000000000000000000000000000000000000000000000000000",
            "hash": "0xfaaf17549ad9a12b9b14a1738002ecb0408c3563a7d26a192d25de8f1004e5df"
        },
        "pre": {
            "0x000f3df6d732807ef1319fb7b8bb8522d0beac02": {
                "nonce": "0x01",
                "balance": "0x00",
                "code": "0x3373fffffffffffffffffffffffffffffffffffffffe14604d57602036146024575f5ffd5b5f35801560495762001fff810690815414603c575f5ffd5b62001fff01545f5260205ff35b5f5ffd5b62001fff42064281555f359062001fff015500",
                "storage": {}
            },
            "0xd66f224cbd2fabb21b17bb53c56118f32f62ebd6": {
                "nonce": "0x00",
                "balance": "0x0de0b6b3a7640000",
                "code": "0x",
                "storage": {}
            },
            "0x15600a91a7af84b8c85782714b3391ed5d73f9a0": {
                "nonce": "0x00",
                "balance": "0x0de0b6b3a7640000",
                "code": "0x604060006040600073e2ab9779f4fb1d9d39211cc2082083add172e69c63017d7840f460005500",
                "storage": {}
            },
            "0xe2ab9779f4fb1d9d39211cc2082083add172e69c": {
                "nonce": "0x00",
                "balance": "0x02540be400",
                "code": "0x6040600060406000600073a71333d8c0291cfd6da54bec5a3957563ab16c1c620f4240f260015500",
                "storage": {}
            },
            "0xa71333d8c0291cfd6da54bec5a3957563ab16c1c": {
                "nonce": "0x00",
                "balance": "0x02540be400",
                "code": "0x6040600060406000600073e2ab9779f4fb1d9d39211cc2082083add172e69c6207a120f260025500",
                "storage": {}
            }
        },
        "postState": {
            "0x000f3df6d732807ef1319fb7b8bb8522d0beac02": {
                "nonce": "0x01",
                "balance": "0x00",
                "code": "0x3373fffffffffffffffffffffffffffffffffffffffe14604d57602036146024575f5ffd5b5f35801560495762001fff810690815414603c575f5ffd5b62001fff01545f5260205ff35b5f5ffd5b62001fff42064281555f359062001fff015500",
                "storage": {
                    "0x03e8": "0x03e8"
                }
            },
            "0xd66f224cbd2fabb21b17bb53c56118f32f62ebd6": {
                "nonce": "0x01",
                "balance": "0x0de0b6b3a70c9982",
                "code": "0x",
                "storage": {}
            },
            "0x15600a91a7af84b8c85782714b3391ed5d73f9a0": {
                "nonce": "0x00",
                "balance": "0x0de0b6b3a7640000",
                "code": "0x604060006040600073e2ab9779f4fb1d9d39211cc2082083add172e69c63017d7840f460005500",
                "storage": {
                    "0x01": "0x01",
                    "0x00": "0x01"
                }
            },
            "0xe2ab9779f4fb1d9d39211cc2082083add172e69c": {
                "nonce": "0x00",
                "balance": "0x02540be400",
                "code": "0x6040600060406000600073a71333d8c0291cfd6da54bec5a3957563ab16c1c620f4240f260015500",
                "storage": {}
            },
            "0xa71333d8c0291cfd6da54bec5a3957563ab16c1c": {
                "nonce": "0x00",
                "balance": "0x02540be400",
                "code": "0x6040600060406000600073e2ab9779f4fb1d9d39211cc2082083add172e69c6207a120f260025500",
                "storage": {}
            }
        },
        "lastblockhash": "0x667b54d93dff375ed3babe66e129c8e2fe69b99ed08e146ed906be8553cb6258",
        "config": {
            "network": "Cancun",
            "chainid": "0x01",
            "blobSchedule": {
                "Cancun": {
                    "target": "0x03",
                    "max": "0x06",
                    "baseFeeUpdateFraction": "0x32f0ed"
                }
            }
        },
        "genesisRLP": "0xf9023cf90236a00000000000000000000000000000000000000000000000000000000000000000a01dcc4de8dec75d7aab85b567b6ccd41ad312451b948a7413f0a142fd40d49347940000000000000000000000000000000000000000a0dbeea2c234558c42a9b995b6b7f0595dbf805278de446934f274f007541a8d61a056e81f171bcc55a6ff8345e692c0f86e5b48e01b996cadc001622fb5e363b421a056e81f171bcc55a6ff8345e692c0f86e5b48e01b996cadc001622fb5e363b421b901000000000000000000000000000000000000000000000000000000000000000000000000000000000000000000000000000000000000000000000000000000000000000000000000000000000000000000000000000000000000000000000000000000000000000000000000000000000000000000000000000000000000000000000000000000000000000000000000000000000000000000000000000000000000000000000000000000000000000000000000000000000000000000000000000000000000000000000000000000000000000000000000000000000000000000000000000000000000000000000000000000000000000000000000000000000080808407270e00808000a000000000000000000000000000000000000000000000000000000000000000008800000000000000000ba056e81f171bcc55a6ff8345e692c0f86e5b48e01b996cadc001622fb5e363b4218080a00000000000000000000000000000000000000000000000000000000000000000c0c0c0",
        "blocks": [
            {
                "blockHeader": {
                    "parentHash": "0xfaaf17549ad9a12b9b14a1738002ecb0408c3563a7d26a192d25de8f1004e5df",
                    "uncleHash": "0x1dcc4de8dec75d7aab85b567b6ccd41ad312451b948a7413f0a142fd40d49347",
                    "coinbase": "0x2adc25665018aa1fe0e6bc666dac8fc2697ff9ba",
                    "stateRoot": "0xcf1d92f3f7bac8ed3b069350ee5f34476461e66e0008c0a3726fd727aa24eb94",
                    "transactionsTrie": "0x46fa2bcbaac0e0b7083d71c24945305de021e01ffedab6db215e92e42564cf22",
                    "receiptTrie": "0x4a99ab751d70eb26bc98259a078eb0b4033ce1c4df69c3e5f978468b8ad950ec",
                    "bloom": "0x00000000000000000000000000000000000000000000000000000000000000000000000000000000000000000000000000000000000000000000000000000000000000000000000000000000000000000000000000000000000000000000000000000000000000000000000000000000000000000000000000000000000000000000000000000000000000000000000000000000000000000000000000000000000000000000000000000000000000000000000000000000000000000000000000000000000000000000000000000000000000000000000000000000000000000000000000000000000000000000000000000000000000000000000000000000",
                    "difficulty": "0x00",
                    "number": "0x01",
                    "gasLimit": "0x07270e00",
                    "gasUsed": "0x08bd73",
                    "timestamp": "0x03e8",
                    "extraData": "0x00",
                    "mixHash": "0x0000000000000000000000000000000000000000000000000000000000020000",
                    "nonce": "0x0000000000000000",
                    "baseFeePerGas": "0x0a",
                    "withdrawalsRoot": "0x56e81f171bcc55a6ff8345e692c0f86e5b48e01b996cadc001622fb5e363b421",
                    "blobGasUsed": "0x00",
                    "excessBlobGas": "0x00",
                    "parentBeaconBlockRoot": "0x0000000000000000000000000000000000000000000000000000000000000000",
                    "hash": "0x667b54d93dff375ed3babe66e129c8e2fe69b99ed08e146ed906be8553cb6258"
                },
                "transactions": [
                    {
                        "type": "0x00",
                        "chainId": "0x01",
                        "nonce": "0x00",
                        "gasPrice": "0x0a",
                        "gasLimit": "0x0927c0",
                        "to": "0x15600a91a7af84b8c85782714b3391ed5d73f9a0",
                        "value": "0x00",
                        "data": "0x",
                        "v": "0x25",
                        "r": "0x4091aacb7f9b7aa5d97fd8ef9a092db89408d65692272b2822f8e0ede0943cfc",
                        "s": "0x22b3c2717834a5a5432603ca5d22a02d1d92d1fb9c217e97936b3162a8849e1d",
                        "sender": "0xd66f224cbd2fabb21b17bb53c56118f32f62ebd6"
                    }
                ],
                "uncleHeaders": [],
                "withdrawals": [],
                "receipts": [
                    {
                        "transactionHash": "0x8c7d2360ce1710e2e2c8549bb3926216711b7e7b87dfe8f4283bce1f4e7e7a11",
                        "type": "0x00",
                        "cumulativeGasUsed": "0x08bd73",
                        "bloom": "0x00000000000000000000000000000000000000000000000000000000000000000000000000000000000000000000000000000000000000000000000000000000000000000000000000000000000000000000000000000000000000000000000000000000000000000000000000000000000000000000000000000000000000000000000000000000000000000000000000000000000000000000000000000000000000000000000000000000000000000000000000000000000000000000000000000000000000000000000000000000000000000000000000000000000000000000000000000000000000000000000000000000000000000000000000000000",
                        "logs": [],
                        "status": true,
                        "rlp": "0xf90109018308bd73b9010000000000000000000000000000000000000000000000000000000000000000000000000000000000000000000000000000000000000000000000000000000000000000000000000000000000000000000000000000000000000000000000000000000000000000000000000000000000000000000000000000000000000000000000000000000000000000000000000000000000000000000000000000000000000000000000000000000000000000000000000000000000000000000000000000000000000000000000000000000000000000000000000000000000000000000000000000000000000000000000000000000000000000000000000000000000c0"
                    }
                ],
                "rlp": "0xf902a4f9023ba0faaf17549ad9a12b9b14a1738002ecb0408c3563a7d26a192d25de8f1004e5dfa01dcc4de8dec75d7aab85b567b6ccd41ad312451b948a7413f0a142fd40d49347942adc25665018aa1fe0e6bc666dac8fc2697ff9baa0cf1d92f3f7bac8ed3b069350ee5f34476461e66e0008c0a3726fd727aa24eb94a046fa2bcbaac0e0b7083d71c24945305de021e01ffedab6db215e92e42564cf22a04a99ab751d70eb26bc98259a078eb0b4033ce1c4df69c3e5f978468b8ad950ecb901000000000000000000000000000000000000000000000000000000000000000000000000000000000000000000000000000000000000000000000000000000000000000000000000000000000000000000000000000000000000000000000000000000000000000000000000000000000000000000000000000000000000000000000000000000000000000000000000000000000000000000000000000000000000000000000000000000000000000000000000000000000000000000000000000000000000000000000000000000000000000000000000000000000000000000000000000000000000000000000000000000000000000000000000000000000080018407270e008308bd738203e800a000000000000000000000000000000000000000000000000000000000000200008800000000000000000aa056e81f171bcc55a6ff8345e692c0f86e5b48e01b996cadc001622fb5e363b4218080a00000000000000000000000000000000000000000000000000000000000000000f862f860800a830927c09415600a91a7af84b8c85782714b3391ed5d73f9a0808025a04091aacb7f9b7aa5d97fd8ef9a092db89408d65692272b2822f8e0ede0943cfca022b3c2717834a5a5432603ca5d22a02d1d92d1fb9c217e97936b3162a8849e1dc0c0",
                "blocknumber": "1"
            }
        ],
        "sealEngine": "NoProof",
        "_info": {
            "hash": "0x15239462a3aaa731d73ee7b0893a14c77a7ccc3515a806b733647763fe9c3253",
            "fixture-format": "blockchain_test",
            "comment": "`execution-specs` generated test",
            "filling-transition-tool": "2.19.0",
            "description": "DELEGATE -> CALLCODE1 -> CALLCODE2  -> CALLCODE1 -> .",
            "url": "https://github.com/ethereum/execution-specs/blob/tests-snobal-devnet-5@v8037.0.0/tests/ported_static/stCallDelegateCodesCallCodeHomestead/test_callcodecallcall_abcb_recursive.py#L26",
            "metadata": {
                "opcode_count": {}
            }
        }
    }
}