{
    "tests/ported_static/stStaticCall/test_static_call1024_balance_too_low.py::test_static_call1024_balance_too_low[fork_Cancun-blockchain_test_from_state_test-d0]": {
        "network": "Cancun",
        "genesisBlockHeader": {
            "parentHash": "0x0000000000000000000000000000000000000000000000000000000000000000",
            "uncleHash": "0x1dcc4de8dec75d7aab85b567b6ccd41ad312451b948a7413f0a142fd40d49347",
            "coinbase": "0x0000000000000000000000000000000000000000",
            "stateRoot": "0x2e265dd9169abd0704838de067339a2a028a9f502a3d8c5ae05b0dde48a8817f",
            "transactionsTrie": "0x56e81f171bcc55a6ff8345e692c0f86e5b48e01b996cadc001622fb5e363b421",
            "receiptTrie": "0x56e81f171bcc55a6ff8345e692c0f86e5b48e01b996cadc001622fb5e363b421",
            "bloom": "0x00000000000000000000000000000000000000000000000000000000000000000000000000000000000000000000000000000000000000000000000000000000000000000000000000000000000000000000000000000000000000000000000000000000000000000000000000000000000000000000000000000000000000000000000000000000000000000000000000000000000000000000000000000000000000000000000000000000000000000000000000000000000000000000000000000000000000000000000000000000000000000000000000000000000000000000000000000000000000000000000000000000000000000000000000000000",
            "difficulty": "0x00",
            "number": "0x00",
            "gasLimit": "0x7fffffffffffffff",
            "gasUsed": "0x00",
            "timestamp": "0x00",
            "extraData": "0x00",
            "mixHash": "0x0000000000000000000000000000000000000000000000000000000000000000",
            "nonce": "0x0000000000000000",
            "baseFeePerGas": "0x0b",
            "withdrawalsRoot": "0x56e81f171bcc55a6ff8345e692c0f86e5b48e01b996cadc001622fb5e363b421",
            "blobGasUsed": "0x00",
            "excessBlobGas": "0x00",
            "parentBeaconBlockRoot": "0x0000000000000000000000000000000000000000000000000000000000000000",
            "hash": "0x581749bb56dac251d0a8e99b09d90f99e60a5975a2723021a5fe0f4c53d856e4"
        },
        "pre": {
            "0x000f3df6d732807ef1319fb7b8bb8522d0beac02": {
                "nonce": "0x01",
                "balance": "0x00",
                "code": "0x3373fffffffffffffffffffffffffffffffffffffffe14604d57602036146024575f5ffd5b5f35801560495762001fff810690815414603c575f5ffd5b62001fff01545f5260205ff35b5f5ffd5b62001fff42064281555f359062001fff015500",
                "storage": {}
            },
            "0x2c854741c819493b3a940ebc70c2ced66e29473d": {
                "nonce": "0x00",
                "balance": "0xffffffffffffffffffffffffffffffff",
                "code": "0x",
                "storage": {}
            },
            "0x8b9fd541d0178978dd230ad3e047ecc019d60d03": {
                "nonce": "0x00",
                "balance": "0x1b58",
                "code": "0x",
                "storage": {}
            },
            "0xc0e4183389eb57f779a986d8c878f89b9401dc8e": {
                "nonce": "0x00",
                "balance": "0x00",
                "code": "0x6000600060006000346000355af1600055600160015500",
                "storage": {}
            },
            "0xd395a2cb1cb7ef1b90e2edb71fc0a390ecc84fe8": {
                "nonce": "0x00",
                "balance": "0x0400",
                "code": "0x60016000540160005560006000600060005473d395a2cb1cb7ef1b90e2edb71fc0a390ecc84fe8650ffffffffffffa60015500",
                "storage": {}
            },
            "0xe8f28ee50521b0388cf0a623b1a89e43d022c039": {
                "nonce": "0x00",
                "balance": "0x0400",
                "code": "0x60016000510160005260006000600060005173e8f28ee50521b0388cf0a623b1a89e43d022c039650ffffffffffffa60205200",
                "storage": {}
            }
        },
        "postState": {
            "0x000f3df6d732807ef1319fb7b8bb8522d0beac02": {
                "nonce": "0x01",
                "balance": "0x00",
                "code": "0x3373fffffffffffffffffffffffffffffffffffffffe14604d57602036146024575f5ffd5b5f35801560495762001fff810690815414603c575f5ffd5b62001fff01545f5260205ff35b5f5ffd5b62001fff42064281555f359062001fff015500",
                "storage": {
                    "0x03e8": "0x03e8"
                }
            },
            "0x2c854741c819493b3a940ebc70c2ced66e29473d": {
                "nonce": "0x01",
                "balance": "0xffffffffffffffffffff64f5fff08e49",
                "code": "0x",
                "storage": {}
            },
            "0x8b9fd541d0178978dd230ad3e047ecc019d60d03": {
                "nonce": "0x00",
                "balance": "0x1b58",
                "code": "0x",
                "storage": {}
            },
            "0xc0e4183389eb57f779a986d8c878f89b9401dc8e": {
                "nonce": "0x00",
                "balance": "0x00",
                "code": "0x6000600060006000346000355af1600055600160015500",
                "storage": {
                    "0x00": "0x01",
                    "0x01": "0x01"
                }
            },
            "0xd395a2cb1cb7ef1b90e2edb71fc0a390ecc84fe8": {
                "nonce": "0x00",
                "balance": "0x040a",
                "code": "0x60016000540160005560006000600060005473d395a2cb1cb7ef1b90e2edb71fc0a390ecc84fe8650ffffffffffffa60015500",
                "storage": {
                    "0x00": "0x01"
                }
            },
            "0xe8f28ee50521b0388cf0a623b1a89e43d022c039": {
                "nonce": "0x00",
                "balance": "0x0400",
                "code": "0x60016000510160005260006000600060005173e8f28ee50521b0388cf0a623b1a89e43d022c039650ffffffffffffa60205200",
                "storage": {}
            }
        },
        "lastblockhash": "0x77cdb03fc55653d7379c48ebdb1ae49200df2b30ad6fc944be00f45802fe48e3",
        "config": {
            "network": "Cancun",
            "chainid": "0x01",
            "blobSchedule": {
                "Cancun": {
                    "target": "0x03",
                    "max": "0x06",
                    "baseFeeUpdateFraction": "0x32f0ed"
                }
            }
        },
        "genesisRLP": "0xf90240f9023aa00000000000000000000000000000000000000000000000000000000000000000a01dcc4de8dec75d7aab85b567b6ccd41ad312451b948a7413f0a142fd40d49347940000000000000000000000000000000000000000a02e265dd9169abd0704838de067339a2a028a9f502a3d8c5ae05b0dde48a8817fa056e81f171bcc55a6ff8345e692c0f86e5b48e01b996cadc001622fb5e363b421a056e81f171bcc55a6ff8345e692c0f86e5b48e01b996cadc001622fb5e363b421b90100000000000000000000000000000000000000000000000000000000000000000000000000000000000000000000000000000000000000000000000000000000000000000000000000000000000000000000000000000000000000000000000000000000000000000000000000000000000000000000000000000000000000000000000000000000000000000000000000000000000000000000000000000000000000000000000000000000000000000000000000000000000000000000000000000000000000000000000000000000000000000000000000000000000000000000000000000000000000000000000000000000000000000000000000000000008080887fffffffffffffff808000a000000000000000000000000000000000000000000000000000000000000000008800000000000000000ba056e81f171bcc55a6ff8345e692c0f86e5b48e01b996cadc001622fb5e363b4218080a00000000000000000000000000000000000000000000000000000000000000000c0c0c0",
        "blocks": [
            {
                "blockHeader": {
                    "parentHash": "0x581749bb56dac251d0a8e99b09d90f99e60a5975a2723021a5fe0f4c53d856e4",
                    "uncleHash": "0x1dcc4de8dec75d7aab85b567b6ccd41ad312451b948a7413f0a142fd40d49347",
                    "coinbase": "0x2adc25665018aa1fe0e6bc666dac8fc2697ff9ba",
                    "stateRoot": "0xcb3ee1df0eef280a313a84ee010eeed2850994d8f4f60c9d2b548073ba583b15",
                    "transactionsTrie": "0xe7c3a6c9a78e6263a0cd90fb9a28eaa67de5c89ed8004ae8c9d606506eb1d438",
                    "receiptTrie": "0x8332423c8ec3c573d2955836aaf0168f7d988d9390429d568a98f964ba421ae6",
                    "bloom": "0x00000000000000000000000000000000000000000000000000000000000000000000000000000000000000000000000000000000000000000000000000000000000000000000000000000000000000000000000000000000000000000000000000000000000000000000000000000000000000000000000000000000000000000000000000000000000000000000000000000000000000000000000000000000000000000000000000000000000000000000000000000000000000000000000000000000000000000000000000000000000000000000000000000000000000000000000000000000000000000000000000000000000000000000000000000000",
                    "difficulty": "0x00",
                    "number": "0x01",
                    "gasLimit": "0x7fffffffffffffff",
                    "gasUsed": "0x0f8100018b5e",
                    "timestamp": "0x03e8",
                    "extraData": "0x00",
                    "mixHash": "0x0000000000000000000000000000000000000000000000000000000000020000",
                    "nonce": "0x0000000000000000",
                    "baseFeePerGas": "0x0a",
                    "withdrawalsRoot": "0x56e81f171bcc55a6ff8345e692c0f86e5b48e01b996cadc001622fb5e363b421",
                    "blobGasUsed": "0x00",
                    "excessBlobGas": "0x00",
                    "parentBeaconBlockRoot": "0x0000000000000000000000000000000000000000000000000000000000000000",
                    "hash": "0x77cdb03fc55653d7379c48ebdb1ae49200df2b30ad6fc944be00f45802fe48e3"
                },
                "transactions": [
                    {
                        "type": "0x00",
                        "chainId": "0x01",
                        "nonce": "0x00",
                        "gasPrice": "0x0a",
                        "gasLimit": "0x10000000d788",
                        "to": "0xc0e4183389eb57f779a986d8c878f89b9401dc8e",
                        "value": "0x0a",
                        "data": "0x000000000000000000000000d395a2cb1cb7ef1b90e2edb71fc0a390ecc84fe8",
                        "v": "0x26",
                        "r": "0x29b0ca17110ade56699008921dfecf5d4a985afe91cf41fae3e418b8edd00a52",
                        "s": "0x5ba22ac3af915b7de193150cce7af08f363ebf025100846f19058e1360029b7a",
                        "sender": "0x2c854741c819493b3a940ebc70c2ced66e29473d"
                    }
                ],
                "uncleHeaders": [],
                "withdrawals": [],
                "receipts": [
                    {
                        "transactionHash": "0x0d6352f75b4a512b1f8246d89f5a1063b56e935478638547169547a2561658fc",
                        "type": "0x00",
                        "cumulativeGasUsed": "0x0f8100018b5e",
                        "bloom": "0x00000000000000000000000000000000000000000000000000000000000000000000000000000000000000000000000000000000000000000000000000000000000000000000000000000000000000000000000000000000000000000000000000000000000000000000000000000000000000000000000000000000000000000000000000000000000000000000000000000000000000000000000000000000000000000000000000000000000000000000000000000000000000000000000000000000000000000000000000000000000000000000000000000000000000000000000000000000000000000000000000000000000000000000000000000000",
                        "logs": [],
                        "status": true,
                        "rlp": "0xf9010c01860f8100018b5eb9010000000000000000000000000000000000000000000000000000000000000000000000000000000000000000000000000000000000000000000000000000000000000000000000000000000000000000000000000000000000000000000000000000000000000000000000000000000000000000000000000000000000000000000000000000000000000000000000000000000000000000000000000000000000000000000000000000000000000000000000000000000000000000000000000000000000000000000000000000000000000000000000000000000000000000000000000000000000000000000000000000000000000000000000000000000000c0"
                    }
                ],
                "rlp": "0xf902cef90242a0581749bb56dac251d0a8e99b09d90f99e60a5975a2723021a5fe0f4c53d856e4a01dcc4de8dec75d7aab85b567b6ccd41ad312451b948a7413f0a142fd40d49347942adc25665018aa1fe0e6bc666dac8fc2697ff9baa0cb3ee1df0eef280a313a84ee010eeed2850994d8f4f60c9d2b548073ba583b15a0e7c3a6c9a78e6263a0cd90fb9a28eaa67de5c89ed8004ae8c9d606506eb1d438a08332423c8ec3c573d2955836aaf0168f7d988d9390429d568a98f964ba421ae6b90100000000000000000000000000000000000000000000000000000000000000000000000000000000000000000000000000000000000000000000000000000000000000000000000000000000000000000000000000000000000000000000000000000000000000000000000000000000000000000000000000000000000000000000000000000000000000000000000000000000000000000000000000000000000000000000000000000000000000000000000000000000000000000000000000000000000000000000000000000000000000000000000000000000000000000000000000000000000000000000000000000000000000000000000000000000008001887fffffffffffffff860f8100018b5e8203e800a000000000000000000000000000000000000000000000000000000000000200008800000000000000000aa056e81f171bcc55a6ff8345e692c0f86e5b48e01b996cadc001622fb5e363b4218080a00000000000000000000000000000000000000000000000000000000000000000f885f883800a8610000000d78894c0e4183389eb57f779a986d8c878f89b9401dc8e0aa0000000000000000000000000d395a2cb1cb7ef1b90e2edb71fc0a390ecc84fe826a029b0ca17110ade56699008921dfecf5d4a985afe91cf41fae3e418b8edd00a52a05ba22ac3af915b7de193150cce7af08f363ebf025100846f19058e1360029b7ac0c0",
                "blocknumber": "1"
            }
        ],
        "sealEngine": "NoProof",
        "_info": {
            "hash": "0x61f1a516daa15f9fff36653035a51e93d19105915501cd7eaf4d226954ada983",
            "fixture-format": "blockchain_test",
            "comment": "`execution-specs` generated test",
            "filling-transition-tool": "2.19.0",
            "description": "Test_static_call1024_balance_too_low.",
            "url": "https://github.com/ethereum/execution-specs/blob/tests-snobal-devnet-5@v8037.0.0/tests/ported_static/stStaticCall/test_static_call1024_balance_too_low.py#L28",
            "metadata": {
                "opcode_count": {}
            }
        }
    },
    "tests/ported_static/stStaticCall/test_static_call1024_balance_too_low.py::test_static_call1024_balance_too_low[fork_Cancun-blockchain_test_from_state_test-d1]": {
        "network": "Cancun",
        "genesisBlockHeader": {
            "parentHash": "0x0000000000000000000000000000000000000000000000000000000000000000",
            "uncleHash": "0x1dcc4de8dec75d7aab85b567b6ccd41ad312451b948a7413f0a142fd40d49347",
            "coinbase": "0x0000000000000000000000000000000000000000",
            "stateRoot": "0x2e265dd9169abd0704838de067339a2a028a9f502a3d8c5ae05b0dde48a8817f",
            "transactionsTrie": "0x56e81f171bcc55a6ff8345e692c0f86e5b48e01b996cadc001622fb5e363b421",
            "receiptTrie": "0x56e81f171bcc55a6ff8345e692c0f86e5b48e01b996cadc001622fb5e363b421",
            "bloom": "0x00000000000000000000000000000000000000000000000000000000000000000000000000000000000000000000000000000000000000000000000000000000000000000000000000000000000000000000000000000000000000000000000000000000000000000000000000000000000000000000000000000000000000000000000000000000000000000000000000000000000000000000000000000000000000000000000000000000000000000000000000000000000000000000000000000000000000000000000000000000000000000000000000000000000000000000000000000000000000000000000000000000000000000000000000000000",
            "difficulty": "0x00",
            "number": "0x00",
            "gasLimit": "0x7fffffffffffffff",
            "gasUsed": "0x00",
            "timestamp": "0x00",
            "extraData": "0x00",
            "mixHash": "0x0000000000000000000000000000000000000000000000000000000000000000",
            "nonce": "0x0000000000000000",
            "baseFeePerGas": "0x0b",
            "withdrawalsRoot": "0x56e81f171bcc55a6ff8345e692c0f86e5b48e01b996cadc001622fb5e363b421",
            "blobGasUsed": "0x00",
            "excessBlobGas": "0x00",
            "parentBeaconBlockRoot": "0x0000000000000000000000000000000000000000000000000000000000000000",
            "hash": "0x581749bb56dac251d0a8e99b09d90f99e60a5975a2723021a5fe0f4c53d856e4"
        },
        "pre": {
            "0x000f3df6d732807ef1319fb7b8bb8522d0beac02": {
                "nonce": "0x01",
                "balance": "0x00",
                "code": "0x3373fffffffffffffffffffffffffffffffffffffffe14604d57602036146024575f5ffd5b5f35801560495762001fff810690815414603c575f5ffd5b62001fff01545f5260205ff35b5f5ffd5b62001fff42064281555f359062001fff015500",
                "storage": {}
            },
            "0x2c854741c819493b3a940ebc70c2ced66e29473d": {
                "nonce": "0x00",
                "balance": "0xffffffffffffffffffffffffffffffff",
                "code": "0x",
                "storage": {}
            },
            "0x8b9fd541d0178978dd230ad3e047ecc019d60d03": {
                "nonce": "0x00",
                "balance": "0x1b58",
                "code": "0x",
                "storage": {}
            },
            "0xc0e4183389eb57f779a986d8c878f89b9401dc8e": {
                "nonce": "0x00",
                "balance": "0x00",
                "code": "0x6000600060006000346000355af1600055600160015500",
                "storage": {}
            },
            "0xd395a2cb1cb7ef1b90e2edb71fc0a390ecc84fe8": {
                "nonce": "0x00",
                "balance": "0x0400",
                "code": "0x60016000540160005560006000600060005473d395a2cb1cb7ef1b90e2edb71fc0a390ecc84fe8650ffffffffffffa60015500",
                "storage": {}
            },
            "0xe8f28ee50521b0388cf0a623b1a89e43d022c039": {
                "nonce": "0x00",
                "balance": "0x0400",
                "code": "0x60016000510160005260006000600060005173e8f28ee50521b0388cf0a623b1a89e43d022c039650ffffffffffffa60205200",
                "storage": {}
            }
        },
        "postState": {
            "0x000f3df6d732807ef1319fb7b8bb8522d0beac02": {
                "nonce": "0x01",
                "balance": "0x00",
                "code": "0x3373fffffffffffffffffffffffffffffffffffffffe14604d57602036146024575f5ffd5b5f35801560495762001fff810690815414603c575f5ffd5b62001fff01545f5260205ff35b5f5ffd5b62001fff42064281555f359062001fff015500",
                "storage": {
                    "0x03e8": "0x03e8"
                }
            },
            "0x2c854741c819493b3a940ebc70c2ced66e29473d": {
                "nonce": "0x01",
                "balance": "0xffffffffffffffffffffffffffdcfa37",
                "code": "0x",
                "storage": {}
            },
            "0x8b9fd541d0178978dd230ad3e047ecc019d60d03": {
                "nonce": "0x00",
                "balance": "0x1b58",
                "code": "0x",
                "storage": {}
            },
            "0xc0e4183389eb57f779a986d8c878f89b9401dc8e": {
                "nonce": "0x00",
                "balance": "0x00",
                "code": "0x6000600060006000346000355af1600055600160015500",
                "storage": {
                    "0x00": "0x01",
                    "0x01": "0x01"
                }
            },
            "0xd395a2cb1cb7ef1b90e2edb71fc0a390ecc84fe8": {
                "nonce": "0x00",
                "balance": "0x0400",
                "code": "0x60016000540160005560006000600060005473d395a2cb1cb7ef1b90e2edb71fc0a390ecc84fe8650ffffffffffffa60015500",
                "storage": {}
            },
            "0xe8f28ee50521b0388cf0a623b1a89e43d022c039": {
                "nonce": "0x00",
                "balance": "0x040a",
                "code": "0x60016000510160005260006000600060005173e8f28ee50521b0388cf0a623b1a89e43d022c039650ffffffffffffa60205200",
                "storage": {}
            }
        },
        "lastblockhash": "0x601414780f602d38a64e670ddfe0632a6933da74568dcd66a6fcbe3665f36c22",
        "config": {
            "network": "Cancun",
            "chainid": "0x01",
            "blobSchedule": {
                "Cancun": {
                    "target": "0x03",
                    "max": "0x06",
                    "baseFeeUpdateFraction": "0x32f0ed"
                }
            }
        },
        "genesisRLP": "0xf90240f9023aa00000000000000000000000000000000000000000000000000000000000000000a01dcc4de8dec75d7aab85b567b6ccd41ad312451b948a7413f0a142fd40d49347940000000000000000000000000000000000000000a02e265dd9169abd0704838de067339a2a028a9f502a3d8c5ae05b0dde48a8817fa056e81f171bcc55a6ff8345e692c0f86e5b48e01b996cadc001622fb5e363b421a056e81f171bcc55a6ff8345e692c0f86e5b48e01b996cadc001622fb5e363b421b90100000000000000000000000000000000000000000000000000000000000000000000000000000000000000000000000000000000000000000000000000000000000000000000000000000000000000000000000000000000000000000000000000000000000000000000000000000000000000000000000000000000000000000000000000000000000000000000000000000000000000000000000000000000000000000000000000000000000000000000000000000000000000000000000000000000000000000000000000000000000000000000000000000000000000000000000000000000000000000000000000000000000000000000000000000000008080887fffffffffffffff808000a000000000000000000000000000000000000000000000000000000000000000008800000000000000000ba056e81f171bcc55a6ff8345e692c0f86e5b48e01b996cadc001622fb5e363b4218080a00000000000000000000000000000000000000000000000000000000000000000c0c0c0",
        "blocks": [
            {
                "blockHeader": {
                    "parentHash": "0x581749bb56dac251d0a8e99b09d90f99e60a5975a2723021a5fe0f4c53d856e4",
                    "uncleHash": "0x1dcc4de8dec75d7aab85b567b6ccd41ad312451b948a7413f0a142fd40d49347",
                    "coinbase": "0x2adc25665018aa1fe0e6bc666dac8fc2697ff9ba",
                    "stateRoot": "0xf0d035d3b47df179731109f55e717e718c9fb0d8a192d9174c6c38531794bced",
                    "transactionsTrie": "0xa012510f8f1d8df5bfdb093b530e4893d3a487c655882da86adc82572fe6e89a",
                    "receiptTrie": "0x9e02807d6b0c6ef0d52563c8469fa05834d9af15f9b03a0c799f8dad1bd170da",
                    "bloom": "0x00000000000000000000000000000000000000000000000000000000000000000000000000000000000000000000000000000000000000000000000000000000000000000000000000000000000000000000000000000000000000000000000000000000000000000000000000000000000000000000000000000000000000000000000000000000000000000000000000000000000000000000000000000000000000000000000000000000000000000000000000000000000000000000000000000000000000000000000000000000000000000000000000000000000000000000000000000000000000000000000000000000000000000000000000000000",
                    "difficulty": "0x00",
                    "number": "0x01",
                    "gasLimit": "0x7fffffffffffffff",
                    "gasUsed": "0x038093",
                    "timestamp": "0x03e8",
                    "extraData": "0x00",
                    "mixHash": "0x0000000000000000000000000000000000000000000000000000000000020000",
                    "nonce": "0x0000000000000000",
                    "baseFeePerGas": "0x0a",
                    "withdrawalsRoot": "0x56e81f171bcc55a6ff8345e692c0f86e5b48e01b996cadc001622fb5e363b421",
                    "blobGasUsed": "0x00",
                    "excessBlobGas": "0x00",
                    "parentBeaconBlockRoot": "0x0000000000000000000000000000000000000000000000000000000000000000",
                    "hash": "0x601414780f602d38a64e670ddfe0632a6933da74568dcd66a6fcbe3665f36c22"
                },
                "transactions": [
                    {
                        "type": "0x00",
                        "chainId": "0x01",
                        "nonce": "0x00",
                        "gasPrice": "0x0a",
                        "gasLimit": "0x10000000d788",
                        "to": "0xc0e4183389eb57f779a986d8c878f89b9401dc8e",
                        "value": "0x0a",
                        "data": "0x000000000000000000000000e8f28ee50521b0388cf0a623b1a89e43d022c039",
                        "v": "0x26",
                        "r": "0x5c58a549b00baef088be5340c57a2930e532ea251009e3dfa165fd02fc111e81",
                        "s": "0x3b735871b80dc8cd11bd1cc5fc38e247840faa4665c78a56377ae5375019d54e",
                        "sender": "0x2c854741c819493b3a940ebc70c2ced66e29473d"
                    }
                ],
                "uncleHeaders": [],
                "withdrawals": [],
                "receipts": [
                    {
                        "transactionHash": "0x6e4681f86fd659895f4dafeb1bc6f8ac5c343c032ce94960e3d26f87d7c2b50c",
                        "type": "0x00",
                        "cumulativeGasUsed": "0x038093",
                        "bloom": "0x00000000000000000000000000000000000000000000000000000000000000000000000000000000000000000000000000000000000000000000000000000000000000000000000000000000000000000000000000000000000000000000000000000000000000000000000000000000000000000000000000000000000000000000000000000000000000000000000000000000000000000000000000000000000000000000000000000000000000000000000000000000000000000000000000000000000000000000000000000000000000000000000000000000000000000000000000000000000000000000000000000000000000000000000000000000",
                        "logs": [],
                        "status": true,
                        "rlp": "0xf901090183038093b9010000000000000000000000000000000000000000000000000000000000000000000000000000000000000000000000000000000000000000000000000000000000000000000000000000000000000000000000000000000000000000000000000000000000000000000000000000000000000000000000000000000000000000000000000000000000000000000000000000000000000000000000000000000000000000000000000000000000000000000000000000000000000000000000000000000000000000000000000000000000000000000000000000000000000000000000000000000000000000000000000000000000000000000000000000000000c0"
                    }
                ],
                "rlp": "0xf902cbf9023fa0581749bb56dac251d0a8e99b09d90f99e60a5975a2723021a5fe0f4c53d856e4a01dcc4de8dec75d7aab85b567b6ccd41ad312451b948a7413f0a142fd40d49347942adc25665018aa1fe0e6bc666dac8fc2697ff9baa0f0d035d3b47df179731109f55e717e718c9fb0d8a192d9174c6c38531794bceda0a012510f8f1d8df5bfdb093b530e4893d3a487c655882da86adc82572fe6e89aa09e02807d6b0c6ef0d52563c8469fa05834d9af15f9b03a0c799f8dad1bd170dab90100000000000000000000000000000000000000000000000000000000000000000000000000000000000000000000000000000000000000000000000000000000000000000000000000000000000000000000000000000000000000000000000000000000000000000000000000000000000000000000000000000000000000000000000000000000000000000000000000000000000000000000000000000000000000000000000000000000000000000000000000000000000000000000000000000000000000000000000000000000000000000000000000000000000000000000000000000000000000000000000000000000000000000000000000000000008001887fffffffffffffff830380938203e800a000000000000000000000000000000000000000000000000000000000000200008800000000000000000aa056e81f171bcc55a6ff8345e692c0f86e5b48e01b996cadc001622fb5e363b4218080a00000000000000000000000000000000000000000000000000000000000000000f885f883800a8610000000d78894c0e4183389eb57f779a986d8c878f89b9401dc8e0aa0000000000000000000000000e8f28ee50521b0388cf0a623b1a89e43d022c03926a05c58a549b00baef088be5340c57a2930e532ea251009e3dfa165fd02fc111e81a03b735871b80dc8cd11bd1cc5fc38e247840faa4665c78a56377ae5375019d54ec0c0",
                "blocknumber": "1"
            }
        ],
        "sealEngine": "NoProof",
        "_info": {
            "hash": "0x99560a67c2e0ff8c4dce72eef1b70b6f0d4e8d59a9d89f37267890fde961752f",
            "fixture-format": "blockchain_test",
            "comment": "`execution-specs` generated test",
            "filling-transition-tool": "2.19.0",
            "description": "Test_static_call1024_balance_too_low.",
            "url": "https://github.com/ethereum/execution-specs/blob/tests-snobal-devnet-5@v8037.0.0/tests/ported_static/stStaticCall/test_static_call1024_balance_too_low.py#L28",
            "metadata": {
                "opcode_count": {}
            }
        }
    }
}