{
    "tests/ported_static/stRefundTest/test_refund_multimple_suicide.py::test_refund_multimple_suicide[fork_Cancun-blockchain_test_from_state_test]": {
        "network": "Cancun",
        "genesisBlockHeader": {
            "parentHash": "0x0000000000000000000000000000000000000000000000000000000000000000",
            "uncleHash": "0x1dcc4de8dec75d7aab85b567b6ccd41ad312451b948a7413f0a142fd40d49347",
            "coinbase": "0x0000000000000000000000000000000000000000",
            "stateRoot": "0x7f1ba4de8910fe10691deb16af13f6ed22b5f443d26e12beba6df3fb5ae58841",
            "transactionsTrie": "0x56e81f171bcc55a6ff8345e692c0f86e5b48e01b996cadc001622fb5e363b421",
            "receiptTrie": "0x56e81f171bcc55a6ff8345e692c0f86e5b48e01b996cadc001622fb5e363b421",
            "bloom": "0x00000000000000000000000000000000000000000000000000000000000000000000000000000000000000000000000000000000000000000000000000000000000000000000000000000000000000000000000000000000000000000000000000000000000000000000000000000000000000000000000000000000000000000000000000000000000000000000000000000000000000000000000000000000000000000000000000000000000000000000000000000000000000000000000000000000000000000000000000000000000000000000000000000000000000000000000000000000000000000000000000000000000000000000000000000000",
            "difficulty": "0x00",
            "number": "0x00",
            "gasLimit": "0x0f4240",
            "gasUsed": "0x00",
            "timestamp": "0x00",
            "extraData": "0x00",
            "mixHash": "0x0000000000000000000000000000000000000000000000000000000000000000",
            "nonce": "0x0000000000000000",
            "baseFeePerGas": "0x0b",
            "withdrawalsRoot": "0x56e81f171bcc55a6ff8345e692c0f86e5b48e01b996cadc001622fb5e363b421",
            "blobGasUsed": "0x00",
            "excessBlobGas": "0x00",
            "parentBeaconBlockRoot": "0x0000000000000000000000000000000000000000000000000000000000000000",
            "hash": "0xfcd9ecbc580a06f64f0986974fb0d9403976cb4be23b510ca9748b559dc85988"
        },
        "pre": {
            "0x000f3df6d732807ef1319fb7b8bb8522d0beac02": {
                "nonce": "0x01",
                "balance": "0x00",
                "code": "0x3373fffffffffffffffffffffffffffffffffffffffe14604d57602036146024575f5ffd5b5f35801560495762001fff810690815414603c575f5ffd5b62001fff01545f5260205ff35b5f5ffd5b62001fff42064281555f359062001fff015500",
                "storage": {}
            },
            "0xc30ef56c95983b23fb4a5639b4756a7958b5e787": {
                "nonce": "0x00",
                "balance": "0x0623a7c0",
                "code": "0x",
                "storage": {}
            },
            "0xeb201d2887816e041f6e807e804f64f3a7a226fe": {
                "nonce": "0x01",
                "balance": "0x00",
                "code": "0x",
                "storage": {}
            },
            "0xc61bb24548b64aa6862844848a118ed1aa8fd082": {
                "nonce": "0x00",
                "balance": "0x0de0b6b3a7640000",
                "code": "0x606060405260e060020a600035046309e587a58114610031578063c04062261461004d578063dd4f1f2a1461005a575b005b61002f3373ffffffffffffffffffffffffffffffffffffffff16ff5b6100f5600061010961005e565b61002f5b60003090508073ffffffffffffffffffffffffffffffffffffffff166309e587a56040518160e060020a0281526004018090506000604051808303816000876161da5a03f1156100025750604080517f09e587a500000000000000000000000000000000000000000000000000000000815290516004828101926000929190829003018183876161da5a03f1156100025750505050565b604080519115158252519081900360200190f35b5060019056",
                "storage": {}
            }
        },
        "postState": {
            "0x000f3df6d732807ef1319fb7b8bb8522d0beac02": {
                "nonce": "0x01",
                "balance": "0x00",
                "code": "0x3373fffffffffffffffffffffffffffffffffffffffe14604d57602036146024575f5ffd5b5f35801560495762001fff810690815414603c575f5ffd5b62001fff01545f5260205ff35b5f5ffd5b62001fff42064281555f359062001fff015500",
                "storage": {
                    "0x03e8": "0x03e8"
                }
            },
            "0xc30ef56c95983b23fb4a5639b4756a7958b5e787": {
                "nonce": "0x01",
                "balance": "0x061ec43a",
                "code": "0x",
                "storage": {}
            },
            "0xeb201d2887816e041f6e807e804f64f3a7a226fe": {
                "nonce": "0x01",
                "balance": "0x00",
                "code": "0x",
                "storage": {}
            },
            "0xc61bb24548b64aa6862844848a118ed1aa8fd082": {
                "nonce": "0x00",
                "balance": "0x0de0b6b3a7640000",
                "code": "0x606060405260e060020a600035046309e587a58114610031578063c04062261461004d578063dd4f1f2a1461005a575b005b61002f3373ffffffffffffffffffffffffffffffffffffffff16ff5b6100f5600061010961005e565b61002f5b60003090508073ffffffffffffffffffffffffffffffffffffffff166309e587a56040518160e060020a0281526004018090506000604051808303816000876161da5a03f1156100025750604080517f09e587a500000000000000000000000000000000000000000000000000000000815290516004828101926000929190829003018183876161da5a03f1156100025750505050565b604080519115158252519081900360200190f35b5060019056",
                "storage": {}
            }
        },
        "lastblockhash": "0xe1919bbc8f58048d993926d87021c5e565a6ba6e9b24f354a4205793e086bac5",
        "config": {
            "network": "Cancun",
            "chainid": "0x01",
            "blobSchedule": {
                "Cancun": {
                    "target": "0x03",
                    "max": "0x06",
                    "baseFeeUpdateFraction": "0x32f0ed"
                }
            }
        },
        "genesisRLP": "0xf9023bf90235a00000000000000000000000000000000000000000000000000000000000000000a01dcc4de8dec75d7aab85b567b6ccd41ad312451b948a7413f0a142fd40d49347940000000000000000000000000000000000000000a07f1ba4de8910fe10691deb16af13f6ed22b5f443d26e12beba6df3fb5ae58841a056e81f171bcc55a6ff8345e692c0f86e5b48e01b996cadc001622fb5e363b421a056e81f171bcc55a6ff8345e692c0f86e5b48e01b996cadc001622fb5e363b421b90100000000000000000000000000000000000000000000000000000000000000000000000000000000000000000000000000000000000000000000000000000000000000000000000000000000000000000000000000000000000000000000000000000000000000000000000000000000000000000000000000000000000000000000000000000000000000000000000000000000000000000000000000000000000000000000000000000000000000000000000000000000000000000000000000000000000000000000000000000000000000000000000000000000000000000000000000000000000000000000000000000000000000000000000000000000008080830f4240808000a000000000000000000000000000000000000000000000000000000000000000008800000000000000000ba056e81f171bcc55a6ff8345e692c0f86e5b48e01b996cadc001622fb5e363b4218080a00000000000000000000000000000000000000000000000000000000000000000c0c0c0",
        "blocks": [
            {
                "blockHeader": {
                    "parentHash": "0xfcd9ecbc580a06f64f0986974fb0d9403976cb4be23b510ca9748b559dc85988",
                    "uncleHash": "0x1dcc4de8dec75d7aab85b567b6ccd41ad312451b948a7413f0a142fd40d49347",
                    "coinbase": "0xeb201d2887816e041f6e807e804f64f3a7a226fe",
                    "stateRoot": "0x9731731cb8bdb4e14a8a67668e8997802d1bfd3c7b3105ad7454df94648ed5ce",
                    "transactionsTrie": "0x58d5ebb3968889df8687bd8a1ef22b36f120a7eda8c53da13b132b3f91e58e5d",
                    "receiptTrie": "0xd1603c86c9532f876bf8d4d919b472e622f74a66181ec3df40d5ae7206e1d8b5",
                    "bloom": "0x00000000000000000000000000000000000000000000000000000000000000000000000000000000000000000000000000000000000000000000000000000000000000000000000000000000000000000000000000000000000000000000000000000000000000000000000000000000000000000000000000000000000000000000000000000000000000000000000000000000000000000000000000000000000000000000000000000000000000000000000000000000000000000000000000000000000000000000000000000000000000000000000000000000000000000000000000000000000000000000000000000000000000000000000000000000",
                    "difficulty": "0x00",
                    "number": "0x01",
                    "gasLimit": "0x0f4240",
                    "gasUsed": "0x7d27",
                    "timestamp": "0x03e8",
                    "extraData": "0x00",
                    "mixHash": "0x0000000000000000000000000000000000000000000000000000000000020000",
                    "nonce": "0x0000000000000000",
                    "baseFeePerGas": "0x0a",
                    "withdrawalsRoot": "0x56e81f171bcc55a6ff8345e692c0f86e5b48e01b996cadc001622fb5e363b421",
                    "blobGasUsed": "0x00",
                    "excessBlobGas": "0x00",
                    "parentBeaconBlockRoot": "0x0000000000000000000000000000000000000000000000000000000000000000",
                    "hash": "0xe1919bbc8f58048d993926d87021c5e565a6ba6e9b24f354a4205793e086bac5"
                },
                "transactions": [
                    {
                        "type": "0x00",
                        "chainId": "0x01",
                        "nonce": "0x00",
                        "gasPrice": "0x0a",
                        "gasLimit": "0x0493e0",
                        "to": "0xc61bb24548b64aa6862844848a118ed1aa8fd082",
                        "value": "0x00",
                        "data": "0xc0406226",
                        "v": "0x26",
                        "r": "0xd0b19b8b1e64b9d3a6bd4f6b10ded418885f224b5e0397f1a106111d5696769f",
                        "s": "0x7a89bfa28754d8c403a67a0f1d2682d417f8247b3f666d3a12fac010490921b7",
                        "sender": "0xc30ef56c95983b23fb4a5639b4756a7958b5e787"
                    }
                ],
                "uncleHeaders": [],
                "withdrawals": [],
                "receipts": [
                    {
                        "transactionHash": "0xf2d9fea398834bb7d16c69cc4c3934a88eb2856a8d523cb8e6a07e717005c181",
                        "type": "0x00",
                        "cumulativeGasUsed": "0x7d27",
                        "bloom": "0x00000000000000000000000000000000000000000000000000000000000000000000000000000000000000000000000000000000000000000000000000000000000000000000000000000000000000000000000000000000000000000000000000000000000000000000000000000000000000000000000000000000000000000000000000000000000000000000000000000000000000000000000000000000000000000000000000000000000000000000000000000000000000000000000000000000000000000000000000000000000000000000000000000000000000000000000000000000000000000000000000000000000000000000000000000000",
                        "logs": [],
                        "status": true,
                        "rlp": "0xf9010801827d27b9010000000000000000000000000000000000000000000000000000000000000000000000000000000000000000000000000000000000000000000000000000000000000000000000000000000000000000000000000000000000000000000000000000000000000000000000000000000000000000000000000000000000000000000000000000000000000000000000000000000000000000000000000000000000000000000000000000000000000000000000000000000000000000000000000000000000000000000000000000000000000000000000000000000000000000000000000000000000000000000000000000000000000000000000000000000000c0"
                    }
                ],
                "rlp": "0xf902a6f90239a0fcd9ecbc580a06f64f0986974fb0d9403976cb4be23b510ca9748b559dc85988a01dcc4de8dec75d7aab85b567b6ccd41ad312451b948a7413f0a142fd40d4934794eb201d2887816e041f6e807e804f64f3a7a226fea09731731cb8bdb4e14a8a67668e8997802d1bfd3c7b3105ad7454df94648ed5cea058d5ebb3968889df8687bd8a1ef22b36f120a7eda8c53da13b132b3f91e58e5da0d1603c86c9532f876bf8d4d919b472e622f74a66181ec3df40d5ae7206e1d8b5b90100000000000000000000000000000000000000000000000000000000000000000000000000000000000000000000000000000000000000000000000000000000000000000000000000000000000000000000000000000000000000000000000000000000000000000000000000000000000000000000000000000000000000000000000000000000000000000000000000000000000000000000000000000000000000000000000000000000000000000000000000000000000000000000000000000000000000000000000000000000000000000000000000000000000000000000000000000000000000000000000000000000000000000000000000000000008001830f4240827d278203e800a000000000000000000000000000000000000000000000000000000000000200008800000000000000000aa056e81f171bcc55a6ff8345e692c0f86e5b48e01b996cadc001622fb5e363b4218080a00000000000000000000000000000000000000000000000000000000000000000f866f864800a830493e094c61bb24548b64aa6862844848a118ed1aa8fd0828084c040622626a0d0b19b8b1e64b9d3a6bd4f6b10ded418885f224b5e0397f1a106111d5696769fa07a89bfa28754d8c403a67a0f1d2682d417f8247b3f666d3a12fac010490921b7c0c0",
                "blocknumber": "1"
            }
        ],
        "sealEngine": "NoProof",
        "_info": {
            "hash": "0xd0439bc4a1a364b15e9d96f9ac2d8340414e98c8070899a032832b517c895fa4",
            "fixture-format": "blockchain_test",
            "comment": "`execution-specs` generated test",
            "filling-transition-tool": "2.19.0",
            "description": "Test_refund_multimple_suicide.",
            "url": "https://github.com/ethereum/execution-specs/blob/tests-snobal-devnet-5@v8037.0.0/tests/ported_static/stRefundTest/test_refund_multimple_suicide.py#L24",
            "metadata": {
                "opcode_count": {}
            }
        }
    }
}