{
    "tests/ported_static/stCallCreateCallCodeTest/test_create_js_example_contract.py::test_create_js_example_contract[fork_Cancun-blockchain_test_from_state_test]": {
        "network": "Cancun",
        "genesisBlockHeader": {
            "parentHash": "0x0000000000000000000000000000000000000000000000000000000000000000",
            "uncleHash": "0x1dcc4de8dec75d7aab85b567b6ccd41ad312451b948a7413f0a142fd40d49347",
            "coinbase": "0x0000000000000000000000000000000000000000",
            "stateRoot": "0x41e6882660b3dd959f64c42a8427c926ebcf276f5dc5cb47b5d47f91e4149313",
            "transactionsTrie": "0x56e81f171bcc55a6ff8345e692c0f86e5b48e01b996cadc001622fb5e363b421",
            "receiptTrie": "0x56e81f171bcc55a6ff8345e692c0f86e5b48e01b996cadc001622fb5e363b421",
            "bloom": "0x00000000000000000000000000000000000000000000000000000000000000000000000000000000000000000000000000000000000000000000000000000000000000000000000000000000000000000000000000000000000000000000000000000000000000000000000000000000000000000000000000000000000000000000000000000000000000000000000000000000000000000000000000000000000000000000000000000000000000000000000000000000000000000000000000000000000000000000000000000000000000000000000000000000000000000000000000000000000000000000000000000000000000000000000000000000",
            "difficulty": "0x00",
            "number": "0x00",
            "gasLimit": "0x0f4240",
            "gasUsed": "0x00",
            "timestamp": "0x00",
            "extraData": "0x00",
            "mixHash": "0x0000000000000000000000000000000000000000000000000000000000000000",
            "nonce": "0x0000000000000000",
            "baseFeePerGas": "0x0b",
            "withdrawalsRoot": "0x56e81f171bcc55a6ff8345e692c0f86e5b48e01b996cadc001622fb5e363b421",
            "blobGasUsed": "0x00",
            "excessBlobGas": "0x00",
            "parentBeaconBlockRoot": "0x0000000000000000000000000000000000000000000000000000000000000000",
            "hash": "0xf04f910e44164e2469c26f232e6f8341fa253d7e1ae284639dcd3b47592b42a4"
        },
        "pre": {
            "0x000f3df6d732807ef1319fb7b8bb8522d0beac02": {
                "nonce": "0x01",
                "balance": "0x00",
                "code": "0x3373fffffffffffffffffffffffffffffffffffffffe14604d57602036146024575f5ffd5b5f35801560495762001fff810690815414603c575f5ffd5b62001fff01545f5260205ff35b5f5ffd5b62001fff42064281555f359062001fff015500",
                "storage": {}
            },
            "0x1119d4ccf86b65812d85f2ff3e9b2d851e40ba5a": {
                "nonce": "0x00",
                "balance": "0x0186a0",
                "code": "0x60003560e060020a9004806343d726d61461004257806391b7f5ed14610050578063d686f9ee14610061578063f5bade661461006f578063fcfff16f1461008057005b61004a6101de565b60006000f35b61005b6004356100bf565b60006000f35b610069610304565b60006000f35b61007a60043561008e565b60006000f35b6100886100f0565b60006000f35b600054600160a060020a031633600160a060020a031614156100af576100b4565b6100bc565b806001819055505b50565b600054600160a060020a031633600160a060020a031614156100e0576100e5565b6100ed565b806002819055505b50565b600054600160a060020a031633600160a060020a031614806101255750600354600160a060020a031633600160a060020a0316145b61012e57610161565b60016004819055507f59ebeb90bc63057b6515673c3ecf9438e5058bca0f92585014eced636878c9a560006000a16101dc565b60045460011480610173575060015434105b6101b85760016004819055507f59ebeb90bc63057b6515673c3ecf9438e5058bca0f92585014eced636878c9a560006000a142600581905550336003819055506101db565b33600160a060020a03166000346000600060006000848787f16101d757005b5050505b5b565b60006004546000146101ef576101f4565b610301565b600054600160a060020a031633600160a060020a031614801561022c5750600054600160a060020a0316600354600160a060020a0316145b61023557610242565b6000600481905550610301565b600354600160a060020a031633600160a060020a03161461026257610300565b600554420360025402905060015481116102c757600354600160a060020a0316600082600154036000600060006000848787f161029b57005b505050600054600160a060020a03166000826000600060006000848787f16102bf57005b5050506102ee565b600054600160a060020a031660006001546000600060006000848787f16102ea57005b5050505b60006004819055506000546003819055505b5b50565b6000600054600160a060020a031633600160a060020a031614156103275761032c565b61037e565b600554420360025402905060015481116103455761037d565b600054600160a060020a031660006001546000600060006000848787f161036857005b50505060006004819055506000546003819055505b5b5056",
                "storage": {
                    "0x00": "0xbcc416d85e26124ea4ec199a92cf495584a99831",
                    "0x01": "0x42",
                    "0x02": "0x23",
                    "0x03": "0xbcc416d85e26124ea4ec199a92cf495584a99831",
                    "0x05": "0x54c98c81"
                }
            },
            "0xbcc416d85e26124ea4ec199a92cf495584a99831": {
                "nonce": "0x00",
                "balance": "0x09184e72a000",
                "code": "0x",
                "storage": {}
            }
        },
        "postState": {
            "0x000f3df6d732807ef1319fb7b8bb8522d0beac02": {
                "nonce": "0x01",
                "balance": "0x00",
                "code": "0x3373fffffffffffffffffffffffffffffffffffffffe14604d57602036146024575f5ffd5b5f35801560495762001fff810690815414603c575f5ffd5b62001fff01545f5260205ff35b5f5ffd5b62001fff42064281555f359062001fff015500",
                "storage": {
                    "0x03e8": "0x03e8"
                }
            },
            "0x1119d4ccf86b65812d85f2ff3e9b2d851e40ba5a": {
                "nonce": "0x00",
                "balance": "0x0186a0",
                "code": "0x60003560e060020a9004806343d726d61461004257806391b7f5ed14610050578063d686f9ee14610061578063f5bade661461006f578063fcfff16f1461008057005b61004a6101de565b60006000f35b61005b6004356100bf565b60006000f35b610069610304565b60006000f35b61007a60043561008e565b60006000f35b6100886100f0565b60006000f35b600054600160a060020a031633600160a060020a031614156100af576100b4565b6100bc565b806001819055505b50565b600054600160a060020a031633600160a060020a031614156100e0576100e5565b6100ed565b806002819055505b50565b600054600160a060020a031633600160a060020a031614806101255750600354600160a060020a031633600160a060020a0316145b61012e57610161565b60016004819055507f59ebeb90bc63057b6515673c3ecf9438e5058bca0f92585014eced636878c9a560006000a16101dc565b60045460011480610173575060015434105b6101b85760016004819055507f59ebeb90bc63057b6515673c3ecf9438e5058bca0f92585014eced636878c9a560006000a142600581905550336003819055506101db565b33600160a060020a03166000346000600060006000848787f16101d757005b5050505b5b565b60006004546000146101ef576101f4565b610301565b600054600160a060020a031633600160a060020a031614801561022c5750600054600160a060020a0316600354600160a060020a0316145b61023557610242565b6000600481905550610301565b600354600160a060020a031633600160a060020a03161461026257610300565b600554420360025402905060015481116102c757600354600160a060020a0316600082600154036000600060006000848787f161029b57005b505050600054600160a060020a03166000826000600060006000848787f16102bf57005b5050506102ee565b600054600160a060020a031660006001546000600060006000848787f16102ea57005b5050505b60006004819055506000546003819055505b5b50565b6000600054600160a060020a031633600160a060020a031614156103275761032c565b61037e565b600554420360025402905060015481116103455761037d565b600054600160a060020a031660006001546000600060006000848787f161036857005b50505060006004819055506000546003819055505b5b5056",
                "storage": {
                    "0x00": "0xbcc416d85e26124ea4ec199a92cf495584a99831",
                    "0x01": "0x42",
                    "0x02": "0x23",
                    "0x03": "0xbcc416d85e26124ea4ec199a92cf495584a99831",
                    "0x05": "0x54c98c81"
                }
            },
            "0xbcc416d85e26124ea4ec199a92cf495584a99831": {
                "nonce": "0x01",
                "balance": "0x09184e3a22d4",
                "code": "0x",
                "storage": {}
            },
            "0x1ce6265a59bf9efb80a801e28d956a6974834375": {
                "nonce": "0x01",
                "balance": "0x0186a0",
                "code": "0x60003560e060020a9004806343d726d61461004257806391b7f5ed14610050578063d686f9ee14610061578063f5bade661461006f578063fcfff16f1461008057005b61004a6101de565b60006000f35b61005b6004356100bf565b60006000f35b610069610304565b60006000f35b61007a60043561008e565b60006000f35b6100886100f0565b60006000f35b600054600160a060020a031633600160a060020a031614156100af576100b4565b6100bc565b806001819055505b50565b600054600160a060020a031633600160a060020a031614156100e0576100e5565b6100ed565b806002819055505b50565b600054600160a060020a031633600160a060020a031614806101255750600354600160a060020a031633600160a060020a0316145b61012e57610161565b60016004819055507f59ebeb90bc63057b6515673c3ecf9438e5058bca0f92585014eced636878c9a560006000a16101dc565b60045460011480610173575060015434105b6101b85760016004819055507f59ebeb90bc63057b6515673c3ecf9438e5058bca0f92585014eced636878c9a560006000a142600581905550336003819055506101db565b33600160a060020a03166000346000600060006000848787f16101d757005b5050505b5b565b60006004546000146101ef576101f4565b610301565b600054600160a060020a031633600160a060020a031614801561022c5750600054600160a060020a0316600354600160a060020a0316145b61023557610242565b6000600481905550610301565b600354600160a060020a031633600160a060020a03161461026257610300565b600554420360025402905060015481116102c757600354600160a060020a0316600082600154036000600060006000848787f161029b57005b505050600054600160a060020a03166000826000600060006000848787f16102bf57005b5050506102ee565b600054600160a060020a031660006001546000600060006000848787f16102ea57005b5050505b60006004819055506000546003819055505b5b50565b6000600054600160a060020a031633600160a060020a031614156103275761032c565b61037e565b600554420360025402905060015481116103455761037d565b600054600160a060020a031660006001546000600060006000848787f161036857005b50505060006004819055506000546003819055505b5b5056",
                "storage": {
                    "0x00": "0xbcc416d85e26124ea4ec199a92cf495584a99831",
                    "0x01": "0x42",
                    "0x02": "0x23",
                    "0x05": "0x03e8",
                    "0x03": "0xbcc416d85e26124ea4ec199a92cf495584a99831"
                }
            }
        },
        "lastblockhash": "0xaafd8f1d795371d047b3b0ddb37ddb28c58adbb707ecc18f59f4ac75805b6ca0",
        "config": {
            "network": "Cancun",
            "chainid": "0x01",
            "blobSchedule": {
                "Cancun": {
                    "target": "0x03",
                    "max": "0x06",
                    "baseFeeUpdateFraction": "0x32f0ed"
                }
            }
        },
        "genesisRLP": "0xf9023bf90235a00000000000000000000000000000000000000000000000000000000000000000a01dcc4de8dec75d7aab85b567b6ccd41ad312451b948a7413f0a142fd40d49347940000000000000000000000000000000000000000a041e6882660b3dd959f64c42a8427c926ebcf276f5dc5cb47b5d47f91e4149313a056e81f171bcc55a6ff8345e692c0f86e5b48e01b996cadc001622fb5e363b421a056e81f171bcc55a6ff8345e692c0f86e5b48e01b996cadc001622fb5e363b421b90100000000000000000000000000000000000000000000000000000000000000000000000000000000000000000000000000000000000000000000000000000000000000000000000000000000000000000000000000000000000000000000000000000000000000000000000000000000000000000000000000000000000000000000000000000000000000000000000000000000000000000000000000000000000000000000000000000000000000000000000000000000000000000000000000000000000000000000000000000000000000000000000000000000000000000000000000000000000000000000000000000000000000000000000000000000008080830f4240808000a000000000000000000000000000000000000000000000000000000000000000008800000000000000000ba056e81f171bcc55a6ff8345e692c0f86e5b48e01b996cadc001622fb5e363b4218080a00000000000000000000000000000000000000000000000000000000000000000c0c0c0",
        "blocks": [
            {
                "blockHeader": {
                    "parentHash": "0xf04f910e44164e2469c26f232e6f8341fa253d7e1ae284639dcd3b47592b42a4",
                    "uncleHash": "0x1dcc4de8dec75d7aab85b567b6ccd41ad312451b948a7413f0a142fd40d49347",
                    "coinbase": "0x2adc25665018aa1fe0e6bc666dac8fc2697ff9ba",
                    "stateRoot": "0xd2d2adf1e37d8d9e0a5d27a3f4e7daaa2091d1819ba21a4d05fc7a47a70db05f",
                    "transactionsTrie": "0xbb324290dc5563d88a1d1ee7f9d7ec829f73dfec2084899bd9eca9333cdac4e3",
                    "receiptTrie": "0x9f53363f5fff4e3d3205027e54ef1242fb017a1087fbcdb360649370c667898f",
                    "bloom": "0x00000000000000000000000000000000000000000000000000000000000000000000000000000000000000000000000000000000000000000000000000000000000000000000000000000000000000000000000000000000000000000000000000000000000000000000000000000000000000000000000000000000000000000000000000000000000000000000000000000000000000000000000000000000000000000000000000000000000000000000000000000000000000000000000000000000000000000000000000000000000000000000000000000000000000000000000000000000000000000000000000000000000000000000000000000000",
                    "difficulty": "0x00",
                    "number": "0x01",
                    "gasLimit": "0x0f4240",
                    "gasUsed": "0x057f0e",
                    "timestamp": "0x03e8",
                    "extraData": "0x00",
                    "mixHash": "0x0000000000000000000000000000000000000000000000000000000000020000",
                    "nonce": "0x0000000000000000",
                    "baseFeePerGas": "0x0a",
                    "withdrawalsRoot": "0x56e81f171bcc55a6ff8345e692c0f86e5b48e01b996cadc001622fb5e363b421",
                    "blobGasUsed": "0x00",
                    "excessBlobGas": "0x00",
                    "parentBeaconBlockRoot": "0x0000000000000000000000000000000000000000000000000000000000000000",
                    "hash": "0xaafd8f1d795371d047b3b0ddb37ddb28c58adbb707ecc18f59f4ac75805b6ca0"
                },
                "transactions": [
                    {
                        "type": "0x00",
                        "chainId": "0x01",
                        "nonce": "0x00",
                        "gasPrice": "0x0a",
                        "gasLimit": "0x0927c0",
                        "value": "0x0186a0",
                        "data": "0x60406103ca600439600451602451336000819055506000600481905550816001819055508060028190555042600581905550336003819055505050610381806100496000396000f30060003560e060020a9004806343d726d61461004257806391b7f5ed14610050578063d686f9ee14610061578063f5bade661461006f578063fcfff16f1461008057005b61004a6101de565b60006000f35b61005b6004356100bf565b60006000f35b610069610304565b60006000f35b61007a60043561008e565b60006000f35b6100886100f0565b60006000f35b600054600160a060020a031633600160a060020a031614156100af576100b4565b6100bc565b806001819055505b50565b600054600160a060020a031633600160a060020a031614156100e0576100e5565b6100ed565b806002819055505b50565b600054600160a060020a031633600160a060020a031614806101255750600354600160a060020a031633600160a060020a0316145b61012e57610161565b60016004819055507f59ebeb90bc63057b6515673c3ecf9438e5058bca0f92585014eced636878c9a560006000a16101dc565b60045460011480610173575060015434105b6101b85760016004819055507f59ebeb90bc63057b6515673c3ecf9438e5058bca0f92585014eced636878c9a560006000a142600581905550336003819055506101db565b33600160a060020a03166000346000600060006000848787f16101d757005b5050505b5b565b60006004546000146101ef576101f4565b610301565b600054600160a060020a031633600160a060020a031614801561022c5750600054600160a060020a0316600354600160a060020a0316145b61023557610242565b6000600481905550610301565b600354600160a060020a031633600160a060020a03161461026257610300565b600554420360025402905060015481116102c757600354600160a060020a0316600082600154036000600060006000848787f161029b57005b505050600054600160a060020a03166000826000600060006000848787f16102bf57005b5050506102ee565b600054600160a060020a031660006001546000600060006000848787f16102ea57005b5050505b60006004819055506000546003819055505b5b50565b6000600054600160a060020a031633600160a060020a031614156103275761032c565b61037e565b600554420360025402905060015481116103455761037d565b600054600160a060020a031660006001546000600060006000848787f161036857005b50505060006004819055506000546003819055505b5b505600000000000000000000000000000000000000000000000000000000000000420000000000000000000000000000000000000000000000000000000000000023",
                        "v": "0x25",
                        "r": "0xfed2881d2d98f1b2278a5b09a907ddd968b0eeb59559f04cae9814684680266a",
                        "s": "0x2bb1114fc1161cb5c1a5d374eb81313def9cef633aa2946cdadb31ee7465bec1",
                        "sender": "0xbcc416d85e26124ea4ec199a92cf495584a99831",
                        "to": ""
                    }
                ],
                "uncleHeaders": [],
                "withdrawals": [],
                "receipts": [
                    {
                        "transactionHash": "0xea7a1667d3aa734da4e4853d82c70e8802189f115011f93007dcecb6c3697de7",
                        "type": "0x00",
                        "cumulativeGasUsed": "0x057f0e",
                        "bloom": "0x00000000000000000000000000000000000000000000000000000000000000000000000000000000000000000000000000000000000000000000000000000000000000000000000000000000000000000000000000000000000000000000000000000000000000000000000000000000000000000000000000000000000000000000000000000000000000000000000000000000000000000000000000000000000000000000000000000000000000000000000000000000000000000000000000000000000000000000000000000000000000000000000000000000000000000000000000000000000000000000000000000000000000000000000000000000",
                        "logs": [],
                        "status": true,
                        "rlp": "0xf901090183057f0eb9010000000000000000000000000000000000000000000000000000000000000000000000000000000000000000000000000000000000000000000000000000000000000000000000000000000000000000000000000000000000000000000000000000000000000000000000000000000000000000000000000000000000000000000000000000000000000000000000000000000000000000000000000000000000000000000000000000000000000000000000000000000000000000000000000000000000000000000000000000000000000000000000000000000000000000000000000000000000000000000000000000000000000000000000000000000000c0"
                    }
                ],
                "rlp": "0xf906a0f9023aa0f04f910e44164e2469c26f232e6f8341fa253d7e1ae284639dcd3b47592b42a4a01dcc4de8dec75d7aab85b567b6ccd41ad312451b948a7413f0a142fd40d49347942adc25665018aa1fe0e6bc666dac8fc2697ff9baa0d2d2adf1e37d8d9e0a5d27a3f4e7daaa2091d1819ba21a4d05fc7a47a70db05fa0bb324290dc5563d88a1d1ee7f9d7ec829f73dfec2084899bd9eca9333cdac4e3a09f53363f5fff4e3d3205027e54ef1242fb017a1087fbcdb360649370c667898fb90100000000000000000000000000000000000000000000000000000000000000000000000000000000000000000000000000000000000000000000000000000000000000000000000000000000000000000000000000000000000000000000000000000000000000000000000000000000000000000000000000000000000000000000000000000000000000000000000000000000000000000000000000000000000000000000000000000000000000000000000000000000000000000000000000000000000000000000000000000000000000000000000000000000000000000000000000000000000000000000000000000000000000000000000000000000008001830f424083057f0e8203e800a000000000000000000000000000000000000000000000000000000000000200008800000000000000000aa056e81f171bcc55a6ff8345e692c0f86e5b48e01b996cadc001622fb5e363b4218080a00000000000000000000000000000000000000000000000000000000000000000f9045ef9045b800a830927c080830186a0b9040a60406103ca600439600451602451336000819055506000600481905550816001819055508060028190555042600581905550336003819055505050610381806100496000396000f30060003560e060020a9004806343d726d61461004257806391b7f5ed14610050578063d686f9ee14610061578063f5bade661461006f578063fcfff16f1461008057005b61004a6101de565b60006000f35b61005b6004356100bf565b60006000f35b610069610304565b60006000f35b61007a60043561008e565b60006000f35b6100886100f0565b60006000f35b600054600160a060020a031633600160a060020a031614156100af576100b4565b6100bc565b806001819055505b50565b600054600160a060020a031633600160a060020a031614156100e0576100e5565b6100ed565b806002819055505b50565b600054600160a060020a031633600160a060020a031614806101255750600354600160a060020a031633600160a060020a0316145b61012e57610161565b60016004819055507f59ebeb90bc63057b6515673c3ecf9438e5058bca0f92585014eced636878c9a560006000a16101dc565b60045460011480610173575060015434105b6101b85760016004819055507f59ebeb90bc63057b6515673c3ecf9438e5058bca0f92585014eced636878c9a560006000a142600581905550336003819055506101db565b33600160a060020a03166000346000600060006000848787f16101d757005b5050505b5b565b60006004546000146101ef576101f4565b610301565b600054600160a060020a031633600160a060020a031614801561022c5750600054600160a060020a0316600354600160a060020a0316145b61023557610242565b6000600481905550610301565b600354600160a060020a031633600160a060020a03161461026257610300565b600554420360025402905060015481116102c757600354600160a060020a0316600082600154036000600060006000848787f161029b57005b505050600054600160a060020a03166000826000600060006000848787f16102bf57005b5050506102ee565b600054600160a060020a031660006001546000600060006000848787f16102ea57005b5050505b60006004819055506000546003819055505b5b50565b6000600054600160a060020a031633600160a060020a031614156103275761032c565b61037e565b600554420360025402905060015481116103455761037d565b600054600160a060020a031660006001546000600060006000848787f161036857005b50505060006004819055506000546003819055505b5b50560000000000000000000000000000000000000000000000000000000000000042000000000000000000000000000000000000000000000000000000000000002325a0fed2881d2d98f1b2278a5b09a907ddd968b0eeb59559f04cae9814684680266aa02bb1114fc1161cb5c1a5d374eb81313def9cef633aa2946cdadb31ee7465bec1c0c0",
                "blocknumber": "1"
            }
        ],
        "sealEngine": "NoProof",
        "_info": {
            "hash": "0xcfa1309da722217c9bf2848454376209a733219034960750aef5e28e53981700",
            "fixture-format": "blockchain_test",
            "comment": "`execution-specs` generated test",
            "filling-transition-tool": "2.19.0",
            "description": "Deploy legacy contract normally.",
            "url": "https://github.com/ethereum/execution-specs/blob/tests-sn\u00f8bal-devnet-4@v1.0.0/tests/ported_static/stCallCreateCallCodeTest/test_create_js_example_contract.py#L25",
            "metadata": {
                "opcode_count": {}
            }
        }
    }
}