{
    "tests/static/state_tests/stRandom/randomStatetest144Filler.json::randomStatetest144[fork_Cancun-blockchain_test_from_state_test-]": {
        "network": "Cancun",
        "genesisBlockHeader": {
            "parentHash": "0x0000000000000000000000000000000000000000000000000000000000000000",
            "uncleHash": "0x1dcc4de8dec75d7aab85b567b6ccd41ad312451b948a7413f0a142fd40d49347",
            "coinbase": "0x0000000000000000000000000000000000000000",
            "stateRoot": "0xf54a1f8dbb913369d20dfe2d22ab4f03e568c9f9ced190c31eecf92367b31d0f",
            "transactionsTrie": "0x56e81f171bcc55a6ff8345e692c0f86e5b48e01b996cadc001622fb5e363b421",
            "receiptTrie": "0x56e81f171bcc55a6ff8345e692c0f86e5b48e01b996cadc001622fb5e363b421",
            "bloom": "0x00000000000000000000000000000000000000000000000000000000000000000000000000000000000000000000000000000000000000000000000000000000000000000000000000000000000000000000000000000000000000000000000000000000000000000000000000000000000000000000000000000000000000000000000000000000000000000000000000000000000000000000000000000000000000000000000000000000000000000000000000000000000000000000000000000000000000000000000000000000000000000000000000000000000000000000000000000000000000000000000000000000000000000000000000000000",
            "difficulty": "0x00",
            "number": "0x00",
            "gasLimit": "0x5c1948c7",
            "gasUsed": "0x00",
            "timestamp": "0x00",
            "extraData": "0x00",
            "mixHash": "0x0000000000000000000000000000000000000000000000000000000000000000",
            "nonce": "0x0000000000000000",
            "baseFeePerGas": "0x0b",
            "withdrawalsRoot": "0x56e81f171bcc55a6ff8345e692c0f86e5b48e01b996cadc001622fb5e363b421",
            "blobGasUsed": "0x00",
            "excessBlobGas": "0x00",
            "parentBeaconBlockRoot": "0x0000000000000000000000000000000000000000000000000000000000000000",
            "hash": "0x3c22e1b4d63964c630c5054b491f27dbc9aef1862a8e3059e39ebac43808a574"
        },
        "pre": {
            "0x000f3df6d732807ef1319fb7b8bb8522d0beac02": {
                "nonce": "0x01",
                "balance": "0x00",
                "code": "0x3373fffffffffffffffffffffffffffffffffffffffe14604d57602036146024575f5ffd5b5f35801560495762001fff810690815414603c575f5ffd5b62001fff01545f5260205ff35b5f5ffd5b62001fff42064281555f359062001fff015500",
                "storage": {}
            },
            "0x094419ff21b7d5a0f465fd0fae324dc95c5a97e9": {
                "nonce": "0x00",
                "balance": "0x71e90493e6eb4c59",
                "code": "0x",
                "storage": {}
            },
            "0x19bcdbcd094c63df253c825b4b8e6dffc45c21a4": {
                "nonce": "0x35",
                "balance": "0x2401ac5958344e85",
                "code": "0x",
                "storage": {}
            },
            "0xea1cd1b117b10ac33fd7bbf18889624625ede7d4": {
                "nonce": "0x59",
                "balance": "0x03255f99de856501",
                "code": "0x621da82575e942e4fd977abdb407069cf700116e02b4f9b25d866b6d13163fff2b8ef03cf8ab5d662afb7bb5c9e68462741090bc0976c9705b40411efe39e80c20b572c5e3d75f788f9be2f0981672b8de37f9e2d1515046cb77cc3ee74646fb096eadce98908499b6fd54725f3c6a725968761ba50494d1ecaf1e787db9a052952427c4f271c28d3e25728b2b76439a3166cd0ed37f30ec2421ed38ebd3b00b89ba9208391dc274e4eefa69161a37dfff7111756dd7971065f05aa9de4867609e7d847a290d0eeb08cde2ff294ae11dd16f8a3e32494d943fa0622cc04cd7476b6d2a1008e4ad1e2c33e2928e707c797f2a1a586bbf78658189bf58172ff77130be2ffc9bbf7f171939be260b30eb65b46a6cf107be1c9ed5c92c99d69fe0559389600e6013601c60096016601260016001600c6017016d200351654b9773409608aaa7db1f67b518d025727bdc6e0463b2bc334b658536d84dadc47a2288da62c36b9a35bf8934e3781a4c44e91637ce5c6b2f916d76706529d728b6f5ee076013601e601960086005601c6013601d96423568ce21a850c04a77ceb9",
                "storage": {}
            }
        },
        "postState": {
            "0x000f3df6d732807ef1319fb7b8bb8522d0beac02": {
                "nonce": "0x01",
                "balance": "0x00",
                "code": "0x3373fffffffffffffffffffffffffffffffffffffffe14604d57602036146024575f5ffd5b5f35801560495762001fff810690815414603c575f5ffd5b62001fff01545f5260205ff35b5f5ffd5b62001fff42064281555f359062001fff015500",
                "storage": {
                    "0x03e8": "0x03e8"
                }
            },
            "0x094419ff21b7d5a0f465fd0fae324dc95c5a97e9": {
                "nonce": "0x01",
                "balance": "0x71e90493a9b0b9ac",
                "code": "0x",
                "storage": {}
            },
            "0x19bcdbcd094c63df253c825b4b8e6dffc45c21a4": {
                "nonce": "0x35",
                "balance": "0x2401ac5958344e85",
                "code": "0x",
                "storage": {}
            },
            "0xea1cd1b117b10ac33fd7bbf18889624625ede7d4": {
                "nonce": "0x59",
                "balance": "0x03255f9a1b72d9ee",
                "code": "0x621da82575e942e4fd977abdb407069cf700116e02b4f9b25d866b6d13163fff2b8ef03cf8ab5d662afb7bb5c9e68462741090bc0976c9705b40411efe39e80c20b572c5e3d75f788f9be2f0981672b8de37f9e2d1515046cb77cc3ee74646fb096eadce98908499b6fd54725f3c6a725968761ba50494d1ecaf1e787db9a052952427c4f271c28d3e25728b2b76439a3166cd0ed37f30ec2421ed38ebd3b00b89ba9208391dc274e4eefa69161a37dfff7111756dd7971065f05aa9de4867609e7d847a290d0eeb08cde2ff294ae11dd16f8a3e32494d943fa0622cc04cd7476b6d2a1008e4ad1e2c33e2928e707c797f2a1a586bbf78658189bf58172ff77130be2ffc9bbf7f171939be260b30eb65b46a6cf107be1c9ed5c92c99d69fe0559389600e6013601c60096016601260016001600c6017016d200351654b9773409608aaa7db1f67b518d025727bdc6e0463b2bc334b658536d84dadc47a2288da62c36b9a35bf8934e3781a4c44e91637ce5c6b2f916d76706529d728b6f5ee076013601e601960086005601c6013601d96423568ce21a850c04a77ceb9",
                "storage": {}
            },
            "0xb0085a57673c8f7d78fb870418f622e42fd686e4": {
                "nonce": "0x00",
                "balance": "0x49cad0",
                "code": "0x",
                "storage": {}
            }
        },
        "lastblockhash": "0x816fd4649d558562e584e8f6ff4bdcb5fb2543c06d371fcef6f02d8347194ec6",
        "config": {
            "network": "Cancun",
            "chainid": "0x01",
            "blobSchedule": {
                "Cancun": {
                    "target": "0x03",
                    "max": "0x06",
                    "baseFeeUpdateFraction": "0x32f0ed"
                }
            }
        },
        "genesisRLP": "0xf9023cf90236a00000000000000000000000000000000000000000000000000000000000000000a01dcc4de8dec75d7aab85b567b6ccd41ad312451b948a7413f0a142fd40d49347940000000000000000000000000000000000000000a0f54a1f8dbb913369d20dfe2d22ab4f03e568c9f9ced190c31eecf92367b31d0fa056e81f171bcc55a6ff8345e692c0f86e5b48e01b996cadc001622fb5e363b421a056e81f171bcc55a6ff8345e692c0f86e5b48e01b996cadc001622fb5e363b421b90100000000000000000000000000000000000000000000000000000000000000000000000000000000000000000000000000000000000000000000000000000000000000000000000000000000000000000000000000000000000000000000000000000000000000000000000000000000000000000000000000000000000000000000000000000000000000000000000000000000000000000000000000000000000000000000000000000000000000000000000000000000000000000000000000000000000000000000000000000000000000000000000000000000000000000000000000000000000000000000000000000000000000000000000000000000008080845c1948c7808000a000000000000000000000000000000000000000000000000000000000000000008800000000000000000ba056e81f171bcc55a6ff8345e692c0f86e5b48e01b996cadc001622fb5e363b4218080a00000000000000000000000000000000000000000000000000000000000000000c0c0c0",
        "blocks": [
            {
                "blockHeader": {
                    "parentHash": "0x3c22e1b4d63964c630c5054b491f27dbc9aef1862a8e3059e39ebac43808a574",
                    "uncleHash": "0x1dcc4de8dec75d7aab85b567b6ccd41ad312451b948a7413f0a142fd40d49347",
                    "coinbase": "0xb0085a57673c8f7d78fb870418f622e42fd686e4",
                    "stateRoot": "0x4dfd1a55b4ea41e7d0eaedd08de11a6ace98c459e8d940b3994b8dde1b7bfb18",
                    "transactionsTrie": "0x6eb8ba4db49934c6b321d1b9e9a8aae657c83a2a10d9b7b6b0d3fa89e98e057e",
                    "receiptTrie": "0x6e58da5054f2f7f7a3c68f5a5ba4398ecaf3e5fde2c271fc418624d45a327e52",
                    "bloom": "0x00000000000000000000000000000000000000000000000000000000000000000000000000000000000000000000000000000000000000000000000000000000000000000000000000000000000000000000000000000000000000000000000000000000000000000000000000000000000000000000000000000000000000000000000000000000000000000000000000000000000000000000000000000000000000000000000000000000000000000000000000000000000000000000000000000000000000000000000000000000000000000000000000000000000000000000000000000000000000000000000000000000000000000000000000000000",
                    "difficulty": "0x00",
                    "number": "0x01",
                    "gasLimit": "0x5c1948c7",
                    "gasUsed": "0x5518",
                    "timestamp": "0x03e8",
                    "extraData": "0x00",
                    "mixHash": "0x0000000000000000000000000000000000000000000000000000000000020000",
                    "nonce": "0x0000000000000000",
                    "baseFeePerGas": "0x0a",
                    "withdrawalsRoot": "0x56e81f171bcc55a6ff8345e692c0f86e5b48e01b996cadc001622fb5e363b421",
                    "blobGasUsed": "0x00",
                    "excessBlobGas": "0x00",
                    "parentBeaconBlockRoot": "0x0000000000000000000000000000000000000000000000000000000000000000",
                    "hash": "0x816fd4649d558562e584e8f6ff4bdcb5fb2543c06d371fcef6f02d8347194ec6"
                },
                "transactions": [
                    {
                        "type": "0x00",
                        "chainId": "0x01",
                        "nonce": "0x00",
                        "gasPrice": "0xe8",
                        "gasLimit": "0x0186a0",
                        "to": "0xea1cd1b117b10ac33fd7bbf18889624625ede7d4",
                        "value": "0x3ced74ed",
                        "data": "0x166e31b12700cdefa7a0591398d415023175d1e5a1eca036986533972cab6625e976572ee91c150c",
                        "v": "0x26",
                        "r": "0x8bc42203e2125ad0c40a3f5ec2040f1f23e2075291c62f10de28e4d1848c3469",
                        "s": "0x7fc6b54a7fdc17164160052e481702b978dd83fb6c2740d34f0af30c5377572e",
                        "sender": "0x094419ff21b7d5a0f465fd0fae324dc95c5a97e9"
                    }
                ],
                "uncleHeaders": [],
                "withdrawals": [],
                "receipts": [
                    {
                        "transactionHash": "0x79aa833b6a952d1eb0549d7a0bf8bd024ba39367fa556a15cb3cbd047db82ad5",
                        "type": "0x00",
                        "cumulativeGasUsed": "0x5518",
                        "bloom": "0x00000000000000000000000000000000000000000000000000000000000000000000000000000000000000000000000000000000000000000000000000000000000000000000000000000000000000000000000000000000000000000000000000000000000000000000000000000000000000000000000000000000000000000000000000000000000000000000000000000000000000000000000000000000000000000000000000000000000000000000000000000000000000000000000000000000000000000000000000000000000000000000000000000000000000000000000000000000000000000000000000000000000000000000000000000000",
                        "logs": [],
                        "status": true,
                        "rlp": "0xf9010801825518b9010000000000000000000000000000000000000000000000000000000000000000000000000000000000000000000000000000000000000000000000000000000000000000000000000000000000000000000000000000000000000000000000000000000000000000000000000000000000000000000000000000000000000000000000000000000000000000000000000000000000000000000000000000000000000000000000000000000000000000000000000000000000000000000000000000000000000000000000000000000000000000000000000000000000000000000000000000000000000000000000000000000000000000000000000000000000c0"
                    }
                ],
                "rlp": "0xf902d0f9023aa03c22e1b4d63964c630c5054b491f27dbc9aef1862a8e3059e39ebac43808a574a01dcc4de8dec75d7aab85b567b6ccd41ad312451b948a7413f0a142fd40d4934794b0085a57673c8f7d78fb870418f622e42fd686e4a04dfd1a55b4ea41e7d0eaedd08de11a6ace98c459e8d940b3994b8dde1b7bfb18a06eb8ba4db49934c6b321d1b9e9a8aae657c83a2a10d9b7b6b0d3fa89e98e057ea06e58da5054f2f7f7a3c68f5a5ba4398ecaf3e5fde2c271fc418624d45a327e52b90100000000000000000000000000000000000000000000000000000000000000000000000000000000000000000000000000000000000000000000000000000000000000000000000000000000000000000000000000000000000000000000000000000000000000000000000000000000000000000000000000000000000000000000000000000000000000000000000000000000000000000000000000000000000000000000000000000000000000000000000000000000000000000000000000000000000000000000000000000000000000000000000000000000000000000000000000000000000000000000000000000000000000000000000000000000008001845c1948c78255188203e800a000000000000000000000000000000000000000000000000000000000000200008800000000000000000aa056e81f171bcc55a6ff8345e692c0f86e5b48e01b996cadc001622fb5e363b4218080a00000000000000000000000000000000000000000000000000000000000000000f88ff88d8081e8830186a094ea1cd1b117b10ac33fd7bbf18889624625ede7d4843ced74eda8166e31b12700cdefa7a0591398d415023175d1e5a1eca036986533972cab6625e976572ee91c150c26a08bc42203e2125ad0c40a3f5ec2040f1f23e2075291c62f10de28e4d1848c3469a07fc6b54a7fdc17164160052e481702b978dd83fb6c2740d34f0af30c5377572ec0c0",
                "blocknumber": "1"
            }
        ],
        "sealEngine": "NoProof",
        "_info": {
            "hash": "0x2c0a1d0756778193b156401a00d2d108e7badd14ac04e25494e12442958f23b7",
            "fixture-format": "blockchain_test",
            "comment": "`execution-specs` generated test",
            "filling-transition-tool": "2.19.0",
            "description": "No description available - add a docstring to the python test class or function.",
            "url": "",
            "opcode_count": {}
        }
    }
}