{
    "tests/static/state_tests/stRandom/randomStatetest12Filler.json::randomStatetest12[fork_Cancun-blockchain_test_from_state_test-]": {
        "network": "Cancun",
        "genesisBlockHeader": {
            "parentHash": "0x0000000000000000000000000000000000000000000000000000000000000000",
            "uncleHash": "0x1dcc4de8dec75d7aab85b567b6ccd41ad312451b948a7413f0a142fd40d49347",
            "coinbase": "0x0000000000000000000000000000000000000000",
            "stateRoot": "0x26fb13f4162f4e230cf23e1b735579674ce3a21d82af9c27e0819913accb1904",
            "transactionsTrie": "0x56e81f171bcc55a6ff8345e692c0f86e5b48e01b996cadc001622fb5e363b421",
            "receiptTrie": "0x56e81f171bcc55a6ff8345e692c0f86e5b48e01b996cadc001622fb5e363b421",
            "bloom": "0x00000000000000000000000000000000000000000000000000000000000000000000000000000000000000000000000000000000000000000000000000000000000000000000000000000000000000000000000000000000000000000000000000000000000000000000000000000000000000000000000000000000000000000000000000000000000000000000000000000000000000000000000000000000000000000000000000000000000000000000000000000000000000000000000000000000000000000000000000000000000000000000000000000000000000000000000000000000000000000000000000000000000000000000000000000000",
            "difficulty": "0x00",
            "number": "0x00",
            "gasLimit": "0x7fffffffffffffff",
            "gasUsed": "0x00",
            "timestamp": "0x00",
            "extraData": "0x00",
            "mixHash": "0x0000000000000000000000000000000000000000000000000000000000000000",
            "nonce": "0x0000000000000000",
            "baseFeePerGas": "0x0b",
            "withdrawalsRoot": "0x56e81f171bcc55a6ff8345e692c0f86e5b48e01b996cadc001622fb5e363b421",
            "blobGasUsed": "0x00",
            "excessBlobGas": "0x00",
            "parentBeaconBlockRoot": "0x0000000000000000000000000000000000000000000000000000000000000000",
            "hash": "0x48b406af541306d28fbd1b76f2d39c4592f305dfa09c281b22dd733e89519193"
        },
        "pre": {
            "0x000f3df6d732807ef1319fb7b8bb8522d0beac02": {
                "nonce": "0x01",
                "balance": "0x00",
                "code": "0x3373fffffffffffffffffffffffffffffffffffffffe14604d57602036146024575f5ffd5b5f35801560495762001fff810690815414603c575f5ffd5b62001fff01545f5260205ff35b5f5ffd5b62001fff42064281555f359062001fff015500",
                "storage": {}
            },
            "0x2e3d0156d2b99a6eacba540c55f423c8f5a33143": {
                "nonce": "0x00",
                "balance": "0x0de0b6b3a7640000",
                "code": "0x",
                "storage": {}
            },
            "0x4f3f701464972e74606d6ea82d4d3080599a0e79": {
                "nonce": "0x00",
                "balance": "0x2e",
                "code": "0x6000355415600957005b60203560003555",
                "storage": {}
            },
            "0xd52a7895f47045dacf362bbfd74ab386c9b62156": {
                "nonce": "0x00",
                "balance": "0x00",
                "code": "0x7f0000000000000000000000004f3f701464972e74606d6ea82d4d3080599a0e797f00000000000000000000000100000000000000000000000000000000000000007fffffffffffffffffffffffffffffffffffffffffffffffffffffffffffffffff457ffffffffffffffffffffffffffffffffffffffffffffffffffffffffffffffffe7f0000000000000000000000004f3f701464972e74606d6ea82d4d3080599a0e79027f000000000000000000000000ffffffffffffffffffffffffffffffffffffffff6f165490a41215369ef27603794116335560005155",
                "storage": {}
            }
        },
        "postState": {
            "0x000f3df6d732807ef1319fb7b8bb8522d0beac02": {
                "nonce": "0x01",
                "balance": "0x00",
                "code": "0x3373fffffffffffffffffffffffffffffffffffffffe14604d57602036146024575f5ffd5b5f35801560495762001fff810690815414603c575f5ffd5b62001fff01545f5260205ff35b5f5ffd5b62001fff42064281555f359062001fff015500",
                "storage": {
                    "0x03e8": "0x03e8"
                }
            },
            "0x2e3d0156d2b99a6eacba540c55f423c8f5a33143": {
                "nonce": "0x01",
                "balance": "0x0de0b6b361e617fb",
                "code": "0x",
                "storage": {}
            },
            "0x4f3f701464972e74606d6ea82d4d3080599a0e79": {
                "nonce": "0x00",
                "balance": "0x2e",
                "code": "0x6000355415600957005b60203560003555",
                "storage": {}
            },
            "0xd52a7895f47045dacf362bbfd74ab386c9b62156": {
                "nonce": "0x00",
                "balance": "0x4576eb63",
                "code": "0x7f0000000000000000000000004f3f701464972e74606d6ea82d4d3080599a0e797f00000000000000000000000100000000000000000000000000000000000000007fffffffffffffffffffffffffffffffffffffffffffffffffffffffffffffffff457ffffffffffffffffffffffffffffffffffffffffffffffffffffffffffffffffe7f0000000000000000000000004f3f701464972e74606d6ea82d4d3080599a0e79027f000000000000000000000000ffffffffffffffffffffffffffffffffffffffff6f165490a41215369ef27603794116335560005155",
                "storage": {
                    "0x00": "0x165490a41215369ef276037941163355"
                }
            }
        },
        "lastblockhash": "0xafe90c31475f463955b24f9c1ba7ad6899beffb6b64a052873cec20d821a4eed",
        "config": {
            "network": "Cancun",
            "chainid": "0x01",
            "blobSchedule": {
                "Cancun": {
                    "target": "0x03",
                    "max": "0x06",
                    "baseFeeUpdateFraction": "0x32f0ed"
                }
            }
        },
        "genesisRLP": "0xf90240f9023aa00000000000000000000000000000000000000000000000000000000000000000a01dcc4de8dec75d7aab85b567b6ccd41ad312451b948a7413f0a142fd40d49347940000000000000000000000000000000000000000a026fb13f4162f4e230cf23e1b735579674ce3a21d82af9c27e0819913accb1904a056e81f171bcc55a6ff8345e692c0f86e5b48e01b996cadc001622fb5e363b421a056e81f171bcc55a6ff8345e692c0f86e5b48e01b996cadc001622fb5e363b421b90100000000000000000000000000000000000000000000000000000000000000000000000000000000000000000000000000000000000000000000000000000000000000000000000000000000000000000000000000000000000000000000000000000000000000000000000000000000000000000000000000000000000000000000000000000000000000000000000000000000000000000000000000000000000000000000000000000000000000000000000000000000000000000000000000000000000000000000000000000000000000000000000000000000000000000000000000000000000000000000000000000000000000000000000000000000008080887fffffffffffffff808000a000000000000000000000000000000000000000000000000000000000000000008800000000000000000ba056e81f171bcc55a6ff8345e692c0f86e5b48e01b996cadc001622fb5e363b4218080a00000000000000000000000000000000000000000000000000000000000000000c0c0c0",
        "blocks": [
            {
                "blockHeader": {
                    "parentHash": "0x48b406af541306d28fbd1b76f2d39c4592f305dfa09c281b22dd733e89519193",
                    "uncleHash": "0x1dcc4de8dec75d7aab85b567b6ccd41ad312451b948a7413f0a142fd40d49347",
                    "coinbase": "0x4f3f701464972e74606d6ea82d4d3080599a0e79",
                    "stateRoot": "0x7b18b6925e4baab1e2ac4c0aaf4c2239f6ed8106ea5f48831fa9c8f352777d41",
                    "transactionsTrie": "0x6aecf2c9af19012cb164673cbae870951b5126c7d14f6597cdd9d642725232da",
                    "receiptTrie": "0xa4ea9ac14dec1411661481ce621e37186435debec55295fe3fbac5fb452c23f3",
                    "bloom": "0x00000000000000000000000000000000000000000000000000000000000000000000000000000000000000000000000000000000000000000000000000000000000000000000000000000000000000000000000000000000000000000000000000000000000000000000000000000000000000000000000000000000000000000000000000000000000000000000000000000000000000000000000000000000000000000000000000000000000000000000000000000000000000000000000000000000000000000000000000000000000000000000000000000000000000000000000000000000000000000000000000000000000000000000000000000000",
                    "difficulty": "0x00",
                    "number": "0x01",
                    "gasLimit": "0x7fffffffffffffff",
                    "gasUsed": "0xb2dd",
                    "timestamp": "0x03e8",
                    "extraData": "0x00",
                    "mixHash": "0x0000000000000000000000000000000000000000000000000000000000020000",
                    "nonce": "0x0000000000000000",
                    "baseFeePerGas": "0x0a",
                    "withdrawalsRoot": "0x56e81f171bcc55a6ff8345e692c0f86e5b48e01b996cadc001622fb5e363b421",
                    "blobGasUsed": "0x00",
                    "excessBlobGas": "0x00",
                    "parentBeaconBlockRoot": "0x0000000000000000000000000000000000000000000000000000000000000000",
                    "hash": "0xafe90c31475f463955b24f9c1ba7ad6899beffb6b64a052873cec20d821a4eed"
                },
                "transactions": [
                    {
                        "type": "0x00",
                        "chainId": "0x01",
                        "nonce": "0x00",
                        "gasPrice": "0x0a",
                        "gasLimit": "0x0186a0",
                        "to": "0xd52a7895f47045dacf362bbfd74ab386c9b62156",
                        "value": "0x4576eb63",
                        "data": "0x7f0000000000000000000000004f3f701464972e74606d6ea82d4d3080599a0e797f00000000000000000000000100000000000000000000000000000000000000007fffffffffffffffffffffffffffffffffffffffffffffffffffffffffffffffff457ffffffffffffffffffffffffffffffffffffffffffffffffffffffffffffffffe7f0000000000000000000000004f3f701464972e74606d6ea82d4d3080599a0e79027f000000000000000000000000ffffffffffffffffffffffffffffffffffffffff6f165490a41215369ef2760379411633",
                        "v": "0x25",
                        "r": "0xacf29b8f51fa7fb4161d14da436c45eef26050779b1f1cd68aac331f492e796e",
                        "s": "0x20d95848f4fdf76e60bc503b02e64fa3bdbbceabb229dd6597b35703125273af",
                        "sender": "0x2e3d0156d2b99a6eacba540c55f423c8f5a33143"
                    }
                ],
                "uncleHeaders": [],
                "withdrawals": [],
                "receipts": [
                    {
                        "transactionHash": "0x2bc959f7bd3e98f0e12596cc7a06ac9688fca58bc6de1d7a8534eadd227a818e",
                        "type": "0x00",
                        "cumulativeGasUsed": "0xb2dd",
                        "bloom": "0x00000000000000000000000000000000000000000000000000000000000000000000000000000000000000000000000000000000000000000000000000000000000000000000000000000000000000000000000000000000000000000000000000000000000000000000000000000000000000000000000000000000000000000000000000000000000000000000000000000000000000000000000000000000000000000000000000000000000000000000000000000000000000000000000000000000000000000000000000000000000000000000000000000000000000000000000000000000000000000000000000000000000000000000000000000000",
                        "logs": [],
                        "status": true,
                        "rlp": "0xf901080182b2ddb9010000000000000000000000000000000000000000000000000000000000000000000000000000000000000000000000000000000000000000000000000000000000000000000000000000000000000000000000000000000000000000000000000000000000000000000000000000000000000000000000000000000000000000000000000000000000000000000000000000000000000000000000000000000000000000000000000000000000000000000000000000000000000000000000000000000000000000000000000000000000000000000000000000000000000000000000000000000000000000000000000000000000000000000000000000000000c0"
                    }
                ],
                "rlp": "0xf90386f9023ea048b406af541306d28fbd1b76f2d39c4592f305dfa09c281b22dd733e89519193a01dcc4de8dec75d7aab85b567b6ccd41ad312451b948a7413f0a142fd40d49347944f3f701464972e74606d6ea82d4d3080599a0e79a07b18b6925e4baab1e2ac4c0aaf4c2239f6ed8106ea5f48831fa9c8f352777d41a06aecf2c9af19012cb164673cbae870951b5126c7d14f6597cdd9d642725232daa0a4ea9ac14dec1411661481ce621e37186435debec55295fe3fbac5fb452c23f3b90100000000000000000000000000000000000000000000000000000000000000000000000000000000000000000000000000000000000000000000000000000000000000000000000000000000000000000000000000000000000000000000000000000000000000000000000000000000000000000000000000000000000000000000000000000000000000000000000000000000000000000000000000000000000000000000000000000000000000000000000000000000000000000000000000000000000000000000000000000000000000000000000000000000000000000000000000000000000000000000000000000000000000000000000000000000008001887fffffffffffffff82b2dd8203e800a000000000000000000000000000000000000000000000000000000000000200008800000000000000000aa056e81f171bcc55a6ff8345e692c0f86e5b48e01b996cadc001622fb5e363b4218080a00000000000000000000000000000000000000000000000000000000000000000f90140f9013d800a830186a094d52a7895f47045dacf362bbfd74ab386c9b62156844576eb63b8d87f0000000000000000000000004f3f701464972e74606d6ea82d4d3080599a0e797f00000000000000000000000100000000000000000000000000000000000000007fffffffffffffffffffffffffffffffffffffffffffffffffffffffffffffffff457ffffffffffffffffffffffffffffffffffffffffffffffffffffffffffffffffe7f0000000000000000000000004f3f701464972e74606d6ea82d4d3080599a0e79027f000000000000000000000000ffffffffffffffffffffffffffffffffffffffff6f165490a41215369ef276037941163325a0acf29b8f51fa7fb4161d14da436c45eef26050779b1f1cd68aac331f492e796ea020d95848f4fdf76e60bc503b02e64fa3bdbbceabb229dd6597b35703125273afc0c0",
                "blocknumber": "1"
            }
        ],
        "sealEngine": "NoProof",
        "_info": {
            "hash": "0xdb32b73893205756113a8920a0ce5aab389a5fc805c72734472d6ab17e910017",
            "fixture-format": "blockchain_test",
            "comment": "`execution-specs` generated test",
            "filling-transition-tool": "2.19.0",
            "description": "No description available - add a docstring to the python test class or function.",
            "url": "",
            "opcode_count": {}
        }
    }
}