{
    "tests/ported_static/stStaticCall/test_static_internal_call_hitting_gas_limit2.py::test_static_internal_call_hitting_gas_limit2[fork_Cancun-blockchain_test_from_state_test]": {
        "network": "Cancun",
        "genesisBlockHeader": {
            "parentHash": "0x0000000000000000000000000000000000000000000000000000000000000000",
            "uncleHash": "0x1dcc4de8dec75d7aab85b567b6ccd41ad312451b948a7413f0a142fd40d49347",
            "coinbase": "0x0000000000000000000000000000000000000000",
            "stateRoot": "0xc8f7d8aa62a05bce3b0af9cb0ed27f212218da6e60bec7bba6070bce0f319caf",
            "transactionsTrie": "0x56e81f171bcc55a6ff8345e692c0f86e5b48e01b996cadc001622fb5e363b421",
            "receiptTrie": "0x56e81f171bcc55a6ff8345e692c0f86e5b48e01b996cadc001622fb5e363b421",
            "bloom": "0x00000000000000000000000000000000000000000000000000000000000000000000000000000000000000000000000000000000000000000000000000000000000000000000000000000000000000000000000000000000000000000000000000000000000000000000000000000000000000000000000000000000000000000000000000000000000000000000000000000000000000000000000000000000000000000000000000000000000000000000000000000000000000000000000000000000000000000000000000000000000000000000000000000000000000000000000000000000000000000000000000000000000000000000000000000000",
            "difficulty": "0x00",
            "number": "0x00",
            "gasLimit": "0xba96",
            "gasUsed": "0x00",
            "timestamp": "0x00",
            "extraData": "0x00",
            "mixHash": "0x0000000000000000000000000000000000000000000000000000000000000000",
            "nonce": "0x0000000000000000",
            "baseFeePerGas": "0x0b",
            "withdrawalsRoot": "0x56e81f171bcc55a6ff8345e692c0f86e5b48e01b996cadc001622fb5e363b421",
            "blobGasUsed": "0x00",
            "excessBlobGas": "0x00",
            "parentBeaconBlockRoot": "0x0000000000000000000000000000000000000000000000000000000000000000",
            "hash": "0x337a3c18a5c67ab12d600952574e3ba84a1c5ec7ca63318cfd1f8c08c50511f8"
        },
        "pre": {
            "0x000f3df6d732807ef1319fb7b8bb8522d0beac02": {
                "nonce": "0x01",
                "balance": "0x00",
                "code": "0x3373fffffffffffffffffffffffffffffffffffffffe14604d57602036146024575f5ffd5b5f35801560495762001fff810690815414603c575f5ffd5b62001fff01545f5260205ff35b5f5ffd5b62001fff42064281555f359062001fff015500",
                "storage": {}
            },
            "0xf32d3cb96b5451fbe912bbc8105bba4fc05afd1e": {
                "nonce": "0x00",
                "balance": "0x0f4240",
                "code": "0x",
                "storage": {}
            },
            "0xf0801b78978104bae7d7d679f8e3990492825c3e": {
                "nonce": "0x00",
                "balance": "0x00",
                "code": "0x600060006000600073285bb5c8a71646ab9a5796d4a718cc4826af8d066161a8fa60015500",
                "storage": {}
            },
            "0x285bb5c8a71646ab9a5796d4a718cc4826af8d06": {
                "nonce": "0x00",
                "balance": "0x00",
                "code": "0x5b61c3506080511015601c5760013b506001608051016080526000565b00",
                "storage": {}
            }
        },
        "postState": {
            "0x000f3df6d732807ef1319fb7b8bb8522d0beac02": {
                "nonce": "0x01",
                "balance": "0x00",
                "code": "0x3373fffffffffffffffffffffffffffffffffffffffe14604d57602036146024575f5ffd5b5f35801560495762001fff810690815414603c575f5ffd5b62001fff01545f5260205ff35b5f5ffd5b62001fff42064281555f359062001fff015500",
                "storage": {
                    "0x03e8": "0x03e8"
                }
            },
            "0xf32d3cb96b5451fbe912bbc8105bba4fc05afd1e": {
                "nonce": "0x01",
                "balance": "0x07f864",
                "code": "0x",
                "storage": {}
            },
            "0xf0801b78978104bae7d7d679f8e3990492825c3e": {
                "nonce": "0x00",
                "balance": "0x00",
                "code": "0x600060006000600073285bb5c8a71646ab9a5796d4a718cc4826af8d066161a8fa60015500",
                "storage": {}
            },
            "0x285bb5c8a71646ab9a5796d4a718cc4826af8d06": {
                "nonce": "0x00",
                "balance": "0x00",
                "code": "0x5b61c3506080511015601c5760013b506001608051016080526000565b00",
                "storage": {}
            }
        },
        "lastblockhash": "0x7c661f3df075837d2f8bdc12abe1469b0dd837c4b7785cd1ebac59a887d7fc43",
        "config": {
            "network": "Cancun",
            "chainid": "0x01",
            "blobSchedule": {
                "Cancun": {
                    "target": "0x03",
                    "max": "0x06",
                    "baseFeeUpdateFraction": "0x32f0ed"
                }
            }
        },
        "genesisRLP": "0xf9023af90234a00000000000000000000000000000000000000000000000000000000000000000a01dcc4de8dec75d7aab85b567b6ccd41ad312451b948a7413f0a142fd40d49347940000000000000000000000000000000000000000a0c8f7d8aa62a05bce3b0af9cb0ed27f212218da6e60bec7bba6070bce0f319cafa056e81f171bcc55a6ff8345e692c0f86e5b48e01b996cadc001622fb5e363b421a056e81f171bcc55a6ff8345e692c0f86e5b48e01b996cadc001622fb5e363b421b9010000000000000000000000000000000000000000000000000000000000000000000000000000000000000000000000000000000000000000000000000000000000000000000000000000000000000000000000000000000000000000000000000000000000000000000000000000000000000000000000000000000000000000000000000000000000000000000000000000000000000000000000000000000000000000000000000000000000000000000000000000000000000000000000000000000000000000000000000000000000000000000000000000000000000000000000000000000000000000000000000000000000000000000000000000000000808082ba96808000a000000000000000000000000000000000000000000000000000000000000000008800000000000000000ba056e81f171bcc55a6ff8345e692c0f86e5b48e01b996cadc001622fb5e363b4218080a00000000000000000000000000000000000000000000000000000000000000000c0c0c0",
        "blocks": [
            {
                "blockHeader": {
                    "parentHash": "0x337a3c18a5c67ab12d600952574e3ba84a1c5ec7ca63318cfd1f8c08c50511f8",
                    "uncleHash": "0x1dcc4de8dec75d7aab85b567b6ccd41ad312451b948a7413f0a142fd40d49347",
                    "coinbase": "0x2adf5374fce5edbc8e2a8697c15331677e6ebf0b",
                    "stateRoot": "0x91c2b4d2b7cc6f51765600339398777127565508bc768d3aaba90f3ac784c7a9",
                    "transactionsTrie": "0xcb75ece0b3e132dc030e3772f42c3c05519cf1622c0af53a1a4ed53532f87df7",
                    "receiptTrie": "0xb0b450cae6aa7a738a0c1df0205ab25d0c304e23bdb8d7539d73c20955777159",
                    "bloom": "0x00000000000000000000000000000000000000000000000000000000000000000000000000000000000000000000000000000000000000000000000000000000000000000000000000000000000000000000000000000000000000000000000000000000000000000000000000000000000000000000000000000000000000000000000000000000000000000000000000000000000000000000000000000000000000000000000000000000000000000000000000000000000000000000000000000000000000000000000000000000000000000000000000000000000000000000000000000000000000000000000000000000000000000000000000000000",
                    "difficulty": "0x00",
                    "number": "0x01",
                    "gasLimit": "0xba96",
                    "gasUsed": "0xba96",
                    "timestamp": "0x03e8",
                    "extraData": "0x00",
                    "mixHash": "0x0000000000000000000000000000000000000000000000000000000000020000",
                    "nonce": "0x0000000000000000",
                    "baseFeePerGas": "0x0a",
                    "withdrawalsRoot": "0x56e81f171bcc55a6ff8345e692c0f86e5b48e01b996cadc001622fb5e363b421",
                    "blobGasUsed": "0x00",
                    "excessBlobGas": "0x00",
                    "parentBeaconBlockRoot": "0x0000000000000000000000000000000000000000000000000000000000000000",
                    "hash": "0x7c661f3df075837d2f8bdc12abe1469b0dd837c4b7785cd1ebac59a887d7fc43"
                },
                "transactions": [
                    {
                        "type": "0x00",
                        "chainId": "0x01",
                        "nonce": "0x00",
                        "gasPrice": "0x0a",
                        "gasLimit": "0xba96",
                        "to": "0xf0801b78978104bae7d7d679f8e3990492825c3e",
                        "value": "0x0a",
                        "data": "0x",
                        "v": "0x25",
                        "r": "0x47a2877ff36b72581aec3dc510af0409e44bf11b40526b94a4e723eb47e78bce",
                        "s": "0x3344324c2734212d9cb0b0f5f57d29ccbbaf02fa00990701058e978391f9e7f4",
                        "sender": "0xf32d3cb96b5451fbe912bbc8105bba4fc05afd1e"
                    }
                ],
                "uncleHeaders": [],
                "withdrawals": [],
                "receipts": [
                    {
                        "transactionHash": "0xfb7fdd4c3b55e360e24e3adee2ebb07aa5f21249c6c519553532dfc8d235ea97",
                        "type": "0x00",
                        "cumulativeGasUsed": "0xba96",
                        "bloom": "0x00000000000000000000000000000000000000000000000000000000000000000000000000000000000000000000000000000000000000000000000000000000000000000000000000000000000000000000000000000000000000000000000000000000000000000000000000000000000000000000000000000000000000000000000000000000000000000000000000000000000000000000000000000000000000000000000000000000000000000000000000000000000000000000000000000000000000000000000000000000000000000000000000000000000000000000000000000000000000000000000000000000000000000000000000000000",
                        "logs": [],
                        "status": false,
                        "rlp": "0xf901088082ba96b9010000000000000000000000000000000000000000000000000000000000000000000000000000000000000000000000000000000000000000000000000000000000000000000000000000000000000000000000000000000000000000000000000000000000000000000000000000000000000000000000000000000000000000000000000000000000000000000000000000000000000000000000000000000000000000000000000000000000000000000000000000000000000000000000000000000000000000000000000000000000000000000000000000000000000000000000000000000000000000000000000000000000000000000000000000000000c0"
                    }
                ],
                "rlp": "0xf902a0f90238a0337a3c18a5c67ab12d600952574e3ba84a1c5ec7ca63318cfd1f8c08c50511f8a01dcc4de8dec75d7aab85b567b6ccd41ad312451b948a7413f0a142fd40d49347942adf5374fce5edbc8e2a8697c15331677e6ebf0ba091c2b4d2b7cc6f51765600339398777127565508bc768d3aaba90f3ac784c7a9a0cb75ece0b3e132dc030e3772f42c3c05519cf1622c0af53a1a4ed53532f87df7a0b0b450cae6aa7a738a0c1df0205ab25d0c304e23bdb8d7539d73c20955777159b9010000000000000000000000000000000000000000000000000000000000000000000000000000000000000000000000000000000000000000000000000000000000000000000000000000000000000000000000000000000000000000000000000000000000000000000000000000000000000000000000000000000000000000000000000000000000000000000000000000000000000000000000000000000000000000000000000000000000000000000000000000000000000000000000000000000000000000000000000000000000000000000000000000000000000000000000000000000000000000000000000000000000000000000000000000000000800182ba9682ba968203e800a000000000000000000000000000000000000000000000000000000000000200008800000000000000000aa056e81f171bcc55a6ff8345e692c0f86e5b48e01b996cadc001622fb5e363b4218080a00000000000000000000000000000000000000000000000000000000000000000f861f85f800a82ba9694f0801b78978104bae7d7d679f8e3990492825c3e0a8025a047a2877ff36b72581aec3dc510af0409e44bf11b40526b94a4e723eb47e78bcea03344324c2734212d9cb0b0f5f57d29ccbbaf02fa00990701058e978391f9e7f4c0c0",
                "blocknumber": "1"
            }
        ],
        "sealEngine": "NoProof",
        "_info": {
            "hash": "0x9008eacec7c714c0e27fd99b656b07aaff1b7e1588000f8753e1ff501802e1b8",
            "fixture-format": "blockchain_test",
            "comment": "`execution-specs` generated test",
            "filling-transition-tool": "2.19.0",
            "description": "Test_static_internal_call_hitting_gas_limit2.",
            "url": "https://github.com/ethereum/execution-specs/blob/tests-bal@v5.6.0/tests/ported_static/stStaticCall/test_static_internal_call_hitting_gas_limit2.py#L25",
            "metadata": {
                "opcode_count": {}
            }
        }
    }
}