{
    "tests/ported_static/stStaticCall/test_static_internal_call_hitting_gas_limit2.py::test_static_internal_call_hitting_gas_limit2[fork_Cancun-blockchain_test_from_state_test]": {
        "network": "Cancun",
        "genesisBlockHeader": {
            "parentHash": "0x0000000000000000000000000000000000000000000000000000000000000000",
            "uncleHash": "0x1dcc4de8dec75d7aab85b567b6ccd41ad312451b948a7413f0a142fd40d49347",
            "coinbase": "0x0000000000000000000000000000000000000000",
            "stateRoot": "0xb9d3d84739ede8ee0e1a9f4f84e9b266538e6276982d2dbe49d89509c01d4ae9",
            "transactionsTrie": "0x56e81f171bcc55a6ff8345e692c0f86e5b48e01b996cadc001622fb5e363b421",
            "receiptTrie": "0x56e81f171bcc55a6ff8345e692c0f86e5b48e01b996cadc001622fb5e363b421",
            "bloom": "0x00000000000000000000000000000000000000000000000000000000000000000000000000000000000000000000000000000000000000000000000000000000000000000000000000000000000000000000000000000000000000000000000000000000000000000000000000000000000000000000000000000000000000000000000000000000000000000000000000000000000000000000000000000000000000000000000000000000000000000000000000000000000000000000000000000000000000000000000000000000000000000000000000000000000000000000000000000000000000000000000000000000000000000000000000000000",
            "difficulty": "0x00",
            "number": "0x00",
            "gasLimit": "0xba96",
            "gasUsed": "0x00",
            "timestamp": "0x00",
            "extraData": "0x00",
            "mixHash": "0x0000000000000000000000000000000000000000000000000000000000000000",
            "nonce": "0x0000000000000000",
            "baseFeePerGas": "0x0b",
            "withdrawalsRoot": "0x56e81f171bcc55a6ff8345e692c0f86e5b48e01b996cadc001622fb5e363b421",
            "blobGasUsed": "0x00",
            "excessBlobGas": "0x00",
            "parentBeaconBlockRoot": "0x0000000000000000000000000000000000000000000000000000000000000000",
            "hash": "0xaf2bcabbb7e7cafb17ace36e0c1fa6fe02ce0b95c001a11c4e061e3acb430662"
        },
        "pre": {
            "0x000f3df6d732807ef1319fb7b8bb8522d0beac02": {
                "nonce": "0x01",
                "balance": "0x00",
                "code": "0x3373fffffffffffffffffffffffffffffffffffffffe14604d57602036146024575f5ffd5b5f35801560495762001fff810690815414603c575f5ffd5b62001fff01545f5260205ff35b5f5ffd5b62001fff42064281555f359062001fff015500",
                "storage": {}
            },
            "0x67976fe3df4a275ba3a3239a9f3f6af71c1eddf1": {
                "nonce": "0x00",
                "balance": "0x0f4240",
                "code": "0x",
                "storage": {}
            },
            "0x34c01313df54b749dcf78aaf1e35e1c49f2369d0": {
                "nonce": "0x00",
                "balance": "0x00",
                "code": "0x5b61c3506080511015601c5760013b506001608051016080526000565b00",
                "storage": {}
            },
            "0x63ddc6059105cdd9b33fbc1d696d9212c827dbf2": {
                "nonce": "0x00",
                "balance": "0x00",
                "code": "0x60006000600060007334c01313df54b749dcf78aaf1e35e1c49f2369d06161a8fa60015500",
                "storage": {}
            }
        },
        "postState": {
            "0x000f3df6d732807ef1319fb7b8bb8522d0beac02": {
                "nonce": "0x01",
                "balance": "0x00",
                "code": "0x3373fffffffffffffffffffffffffffffffffffffffe14604d57602036146024575f5ffd5b5f35801560495762001fff810690815414603c575f5ffd5b62001fff01545f5260205ff35b5f5ffd5b62001fff42064281555f359062001fff015500",
                "storage": {
                    "0x03e8": "0x03e8"
                }
            },
            "0x67976fe3df4a275ba3a3239a9f3f6af71c1eddf1": {
                "nonce": "0x01",
                "balance": "0x07f864",
                "code": "0x",
                "storage": {}
            },
            "0x34c01313df54b749dcf78aaf1e35e1c49f2369d0": {
                "nonce": "0x00",
                "balance": "0x00",
                "code": "0x5b61c3506080511015601c5760013b506001608051016080526000565b00",
                "storage": {}
            },
            "0x63ddc6059105cdd9b33fbc1d696d9212c827dbf2": {
                "nonce": "0x00",
                "balance": "0x00",
                "code": "0x60006000600060007334c01313df54b749dcf78aaf1e35e1c49f2369d06161a8fa60015500",
                "storage": {}
            }
        },
        "lastblockhash": "0x72d3dc1aca23499c0a50b8447651078d2e70ebacb758b93523c4b943abd89cbd",
        "config": {
            "network": "Cancun",
            "chainid": "0x01",
            "blobSchedule": {
                "Cancun": {
                    "target": "0x03",
                    "max": "0x06",
                    "baseFeeUpdateFraction": "0x32f0ed"
                }
            }
        },
        "genesisRLP": "0xf9023af90234a00000000000000000000000000000000000000000000000000000000000000000a01dcc4de8dec75d7aab85b567b6ccd41ad312451b948a7413f0a142fd40d49347940000000000000000000000000000000000000000a0b9d3d84739ede8ee0e1a9f4f84e9b266538e6276982d2dbe49d89509c01d4ae9a056e81f171bcc55a6ff8345e692c0f86e5b48e01b996cadc001622fb5e363b421a056e81f171bcc55a6ff8345e692c0f86e5b48e01b996cadc001622fb5e363b421b9010000000000000000000000000000000000000000000000000000000000000000000000000000000000000000000000000000000000000000000000000000000000000000000000000000000000000000000000000000000000000000000000000000000000000000000000000000000000000000000000000000000000000000000000000000000000000000000000000000000000000000000000000000000000000000000000000000000000000000000000000000000000000000000000000000000000000000000000000000000000000000000000000000000000000000000000000000000000000000000000000000000000000000000000000000000000808082ba96808000a000000000000000000000000000000000000000000000000000000000000000008800000000000000000ba056e81f171bcc55a6ff8345e692c0f86e5b48e01b996cadc001622fb5e363b4218080a00000000000000000000000000000000000000000000000000000000000000000c0c0c0",
        "blocks": [
            {
                "blockHeader": {
                    "parentHash": "0xaf2bcabbb7e7cafb17ace36e0c1fa6fe02ce0b95c001a11c4e061e3acb430662",
                    "uncleHash": "0x1dcc4de8dec75d7aab85b567b6ccd41ad312451b948a7413f0a142fd40d49347",
                    "coinbase": "0x2adf5374fce5edbc8e2a8697c15331677e6ebf0b",
                    "stateRoot": "0x6f53555236c8dc37d1f4ea8d832fa8cc0b6c9c459cb2c5d72fd8a68c73ae7dcb",
                    "transactionsTrie": "0x7881d33f30a4db1b8cbb015efb0128fbbecd5cf1b73135928052f86fd7b547d0",
                    "receiptTrie": "0xb0b450cae6aa7a738a0c1df0205ab25d0c304e23bdb8d7539d73c20955777159",
                    "bloom": "0x00000000000000000000000000000000000000000000000000000000000000000000000000000000000000000000000000000000000000000000000000000000000000000000000000000000000000000000000000000000000000000000000000000000000000000000000000000000000000000000000000000000000000000000000000000000000000000000000000000000000000000000000000000000000000000000000000000000000000000000000000000000000000000000000000000000000000000000000000000000000000000000000000000000000000000000000000000000000000000000000000000000000000000000000000000000",
                    "difficulty": "0x00",
                    "number": "0x01",
                    "gasLimit": "0xba96",
                    "gasUsed": "0xba96",
                    "timestamp": "0x03e8",
                    "extraData": "0x00",
                    "mixHash": "0x0000000000000000000000000000000000000000000000000000000000020000",
                    "nonce": "0x0000000000000000",
                    "baseFeePerGas": "0x0a",
                    "withdrawalsRoot": "0x56e81f171bcc55a6ff8345e692c0f86e5b48e01b996cadc001622fb5e363b421",
                    "blobGasUsed": "0x00",
                    "excessBlobGas": "0x00",
                    "parentBeaconBlockRoot": "0x0000000000000000000000000000000000000000000000000000000000000000",
                    "hash": "0x72d3dc1aca23499c0a50b8447651078d2e70ebacb758b93523c4b943abd89cbd"
                },
                "transactions": [
                    {
                        "type": "0x00",
                        "chainId": "0x01",
                        "nonce": "0x00",
                        "gasPrice": "0x0a",
                        "gasLimit": "0xba96",
                        "to": "0x63ddc6059105cdd9b33fbc1d696d9212c827dbf2",
                        "value": "0x0a",
                        "data": "0x",
                        "v": "0x25",
                        "r": "0x49b4c9980bf54cd0b051cc81c6c98a0fb63becd24c021c85b410681a78cc4493",
                        "s": "0x21a2bee97a235f7c92728c505904dc8653f6edbc63588f59c06bd3ecdfc29603",
                        "sender": "0x67976fe3df4a275ba3a3239a9f3f6af71c1eddf1"
                    }
                ],
                "uncleHeaders": [],
                "withdrawals": [],
                "receipts": [
                    {
                        "transactionHash": "0x3ed0fdad7731fd33e8f5c5b17446c1e6feed9919eb09724ef611c52240358908",
                        "type": "0x00",
                        "cumulativeGasUsed": "0xba96",
                        "bloom": "0x00000000000000000000000000000000000000000000000000000000000000000000000000000000000000000000000000000000000000000000000000000000000000000000000000000000000000000000000000000000000000000000000000000000000000000000000000000000000000000000000000000000000000000000000000000000000000000000000000000000000000000000000000000000000000000000000000000000000000000000000000000000000000000000000000000000000000000000000000000000000000000000000000000000000000000000000000000000000000000000000000000000000000000000000000000000",
                        "logs": [],
                        "status": false,
                        "rlp": "0xf901088082ba96b9010000000000000000000000000000000000000000000000000000000000000000000000000000000000000000000000000000000000000000000000000000000000000000000000000000000000000000000000000000000000000000000000000000000000000000000000000000000000000000000000000000000000000000000000000000000000000000000000000000000000000000000000000000000000000000000000000000000000000000000000000000000000000000000000000000000000000000000000000000000000000000000000000000000000000000000000000000000000000000000000000000000000000000000000000000000000c0"
                    }
                ],
                "rlp": "0xf902a0f90238a0af2bcabbb7e7cafb17ace36e0c1fa6fe02ce0b95c001a11c4e061e3acb430662a01dcc4de8dec75d7aab85b567b6ccd41ad312451b948a7413f0a142fd40d49347942adf5374fce5edbc8e2a8697c15331677e6ebf0ba06f53555236c8dc37d1f4ea8d832fa8cc0b6c9c459cb2c5d72fd8a68c73ae7dcba07881d33f30a4db1b8cbb015efb0128fbbecd5cf1b73135928052f86fd7b547d0a0b0b450cae6aa7a738a0c1df0205ab25d0c304e23bdb8d7539d73c20955777159b9010000000000000000000000000000000000000000000000000000000000000000000000000000000000000000000000000000000000000000000000000000000000000000000000000000000000000000000000000000000000000000000000000000000000000000000000000000000000000000000000000000000000000000000000000000000000000000000000000000000000000000000000000000000000000000000000000000000000000000000000000000000000000000000000000000000000000000000000000000000000000000000000000000000000000000000000000000000000000000000000000000000000000000000000000000000000800182ba9682ba968203e800a000000000000000000000000000000000000000000000000000000000000200008800000000000000000aa056e81f171bcc55a6ff8345e692c0f86e5b48e01b996cadc001622fb5e363b4218080a00000000000000000000000000000000000000000000000000000000000000000f861f85f800a82ba969463ddc6059105cdd9b33fbc1d696d9212c827dbf20a8025a049b4c9980bf54cd0b051cc81c6c98a0fb63becd24c021c85b410681a78cc4493a021a2bee97a235f7c92728c505904dc8653f6edbc63588f59c06bd3ecdfc29603c0c0",
                "blocknumber": "1"
            }
        ],
        "sealEngine": "NoProof",
        "_info": {
            "hash": "0x6fe6ad954ddc097552c4443aa3187fbc84b168157d50f28f6ee25f7c307669ab",
            "fixture-format": "blockchain_test",
            "comment": "`execution-specs` generated test",
            "filling-transition-tool": "2.19.0",
            "description": "Test_static_internal_call_hitting_gas_limit2.",
            "url": "https://github.com/ethereum/execution-specs/blob/tests-snobal-devnet-5@v8037.0.0/tests/ported_static/stStaticCall/test_static_internal_call_hitting_gas_limit2.py#L24",
            "metadata": {
                "opcode_count": {}
            }
        }
    }
}