{
    "tests/cancun/eip1153_tstore/test_tstorage_clear_after_tx.py::test_tstore_clear_after_deployment_tx[fork_Cancun-blockchain_test]": {
        "network": "Cancun",
        "genesisBlockHeader": {
            "parentHash": "0x0000000000000000000000000000000000000000000000000000000000000000",
            "uncleHash": "0x1dcc4de8dec75d7aab85b567b6ccd41ad312451b948a7413f0a142fd40d49347",
            "coinbase": "0x0000000000000000000000000000000000000000",
            "stateRoot": "0xd60baea48e10e583b31299aa7830be2e6e84abe899473453a8524c5177d08ccf",
            "transactionsTrie": "0x56e81f171bcc55a6ff8345e692c0f86e5b48e01b996cadc001622fb5e363b421",
            "receiptTrie": "0x56e81f171bcc55a6ff8345e692c0f86e5b48e01b996cadc001622fb5e363b421",
            "bloom": "0x00000000000000000000000000000000000000000000000000000000000000000000000000000000000000000000000000000000000000000000000000000000000000000000000000000000000000000000000000000000000000000000000000000000000000000000000000000000000000000000000000000000000000000000000000000000000000000000000000000000000000000000000000000000000000000000000000000000000000000000000000000000000000000000000000000000000000000000000000000000000000000000000000000000000000000000000000000000000000000000000000000000000000000000000000000000",
            "difficulty": "0x00",
            "number": "0x00",
            "gasLimit": "0x07270e00",
            "gasUsed": "0x00",
            "timestamp": "0x00",
            "extraData": "0x00",
            "mixHash": "0x0000000000000000000000000000000000000000000000000000000000000000",
            "nonce": "0x0000000000000000",
            "baseFeePerGas": "0x07",
            "withdrawalsRoot": "0x56e81f171bcc55a6ff8345e692c0f86e5b48e01b996cadc001622fb5e363b421",
            "blobGasUsed": "0x00",
            "excessBlobGas": "0x00",
            "parentBeaconBlockRoot": "0x0000000000000000000000000000000000000000000000000000000000000000",
            "hash": "0x5d78313f132260791f339dda1dc3dd468008c6a1f319df606e6414f1337606ac"
        },
        "pre": {
            "0x000f3df6d732807ef1319fb7b8bb8522d0beac02": {
                "nonce": "0x01",
                "balance": "0x00",
                "code": "0x3373fffffffffffffffffffffffffffffffffffffffe14604d57602036146024575f5ffd5b5f35801560495762001fff810690815414603c575f5ffd5b62001fff01545f5260205ff35b5f5ffd5b62001fff42064281555f359062001fff015500",
                "storage": {}
            },
            "0x1ad9bc24818784172ff393bb6f89f094d4d2ca29": {
                "nonce": "0x00",
                "balance": "0x3635c9adc5dea00000",
                "code": "0x",
                "storage": {}
            }
        },
        "postState": {
            "0x000f3df6d732807ef1319fb7b8bb8522d0beac02": {
                "nonce": "0x01",
                "balance": "0x00",
                "code": "0x3373fffffffffffffffffffffffffffffffffffffffe14604d57602036146024575f5ffd5b5f35801560495762001fff810690815414603c575f5ffd5b62001fff01545f5260205ff35b5f5ffd5b62001fff42064281555f359062001fff015500",
                "storage": {
                    "0x0c": "0x0c"
                }
            },
            "0x1ad9bc24818784172ff393bb6f89f094d4d2ca29": {
                "nonce": "0x02",
                "balance": "0x3635c9adc5de941a74",
                "code": "0x",
                "storage": {}
            },
            "0x36bdd8886852759e2046e3bf4c290d5c29c81d82": {
                "nonce": "0x01",
                "balance": "0x00",
                "code": "0x60015c600155",
                "storage": {}
            },
            "0x2adc25665018aa1fe0e6bc666dac8fc2697ff9ba": {
                "nonce": "0x00",
                "balance": "0x0391aa",
                "code": "0x",
                "storage": {}
            }
        },
        "lastblockhash": "0x64dc927188b29af3fb76c07caadfbc3caf9921671cd9cbaff8efd17cadab6cf0",
        "config": {
            "network": "Cancun",
            "chainid": "0x01",
            "blobSchedule": {
                "Cancun": {
                    "target": "0x03",
                    "max": "0x06",
                    "baseFeeUpdateFraction": "0x32f0ed"
                }
            }
        },
        "genesisRLP": "0xf9023cf90236a00000000000000000000000000000000000000000000000000000000000000000a01dcc4de8dec75d7aab85b567b6ccd41ad312451b948a7413f0a142fd40d49347940000000000000000000000000000000000000000a0d60baea48e10e583b31299aa7830be2e6e84abe899473453a8524c5177d08ccfa056e81f171bcc55a6ff8345e692c0f86e5b48e01b996cadc001622fb5e363b421a056e81f171bcc55a6ff8345e692c0f86e5b48e01b996cadc001622fb5e363b421b901000000000000000000000000000000000000000000000000000000000000000000000000000000000000000000000000000000000000000000000000000000000000000000000000000000000000000000000000000000000000000000000000000000000000000000000000000000000000000000000000000000000000000000000000000000000000000000000000000000000000000000000000000000000000000000000000000000000000000000000000000000000000000000000000000000000000000000000000000000000000000000000000000000000000000000000000000000000000000000000000000000000000000000000000000000000080808407270e00808000a0000000000000000000000000000000000000000000000000000000000000000088000000000000000007a056e81f171bcc55a6ff8345e692c0f86e5b48e01b996cadc001622fb5e363b4218080a00000000000000000000000000000000000000000000000000000000000000000c0c0c0",
        "blocks": [
            {
                "blockHeader": {
                    "parentHash": "0x5d78313f132260791f339dda1dc3dd468008c6a1f319df606e6414f1337606ac",
                    "uncleHash": "0x1dcc4de8dec75d7aab85b567b6ccd41ad312451b948a7413f0a142fd40d49347",
                    "coinbase": "0x2adc25665018aa1fe0e6bc666dac8fc2697ff9ba",
                    "stateRoot": "0x861ae082d79b27e33d7a16a3e518eba55b805ebcb5764bda9d3c7609668f564f",
                    "transactionsTrie": "0xeb4cf6ae1ca4073c00a15797ea350e211a5016edbebad7c0227fffa0c32ded7d",
                    "receiptTrie": "0x0dc810eaf2ac6fc612ce2ef6b0105e0aa308185d5f7a3a40145e59890aaa3583",
                    "bloom": "0x00000000000000000000000000000000000000000000000000000000000000000000000000000000000000000000000000000000000000000000000000000000000000000000000000000000000000000000000000000000000000000000000000000000000000000000000000000000000000000000000000000000000000000000000000000000000000000000000000000000000000000000000000000000000000000000000000000000000000000000000000000000000000000000000000000000000000000000000000000000000000000000000000000000000000000000000000000000000000000000000000000000000000000000000000000000",
                    "difficulty": "0x00",
                    "number": "0x01",
                    "gasLimit": "0x07270e00",
                    "gasUsed": "0x01308e",
                    "timestamp": "0x0c",
                    "extraData": "0x",
                    "mixHash": "0x0000000000000000000000000000000000000000000000000000000000000000",
                    "nonce": "0x0000000000000000",
                    "baseFeePerGas": "0x07",
                    "withdrawalsRoot": "0x56e81f171bcc55a6ff8345e692c0f86e5b48e01b996cadc001622fb5e363b421",
                    "blobGasUsed": "0x00",
                    "excessBlobGas": "0x00",
                    "parentBeaconBlockRoot": "0x0000000000000000000000000000000000000000000000000000000000000000",
                    "hash": "0x64dc927188b29af3fb76c07caadfbc3caf9921671cd9cbaff8efd17cadab6cf0"
                },
                "transactions": [
                    {
                        "type": "0x00",
                        "chainId": "0x01",
                        "nonce": "0x00",
                        "gasPrice": "0x0a",
                        "gasLimit": "0x07a120",
                        "value": "0x00",
                        "data": "0x600160015d61000660008160108239f360015c600155",
                        "v": "0x26",
                        "r": "0x03c98f0bce573c59be9bb6497cc8701df5257cea2b225919755026f761df4ba9",
                        "s": "0x036e20f2f0e72fccc5768020329ed3017b2032156110890941c925522a2a7280",
                        "sender": "0x1ad9bc24818784172ff393bb6f89f094d4d2ca29",
                        "to": ""
                    },
                    {
                        "type": "0x00",
                        "chainId": "0x01",
                        "nonce": "0x01",
                        "gasPrice": "0x0a",
                        "gasLimit": "0x07a120",
                        "to": "0x36bdd8886852759e2046e3bf4c290d5c29c81d82",
                        "value": "0x00",
                        "data": "0x",
                        "v": "0x25",
                        "r": "0x10e8e45cb9ed3ecbab573541da02d6b03aa6f874d89b35a214cf55ca6aea8328",
                        "s": "0x1c50383f1d341003043621378571505b54eef5043cec96ecb1d4def8ef6e5970",
                        "sender": "0x1ad9bc24818784172ff393bb6f89f094d4d2ca29"
                    }
                ],
                "uncleHeaders": [],
                "withdrawals": [],
                "receipts": [
                    {
                        "transactionHash": "0x740723df8d78650ef5d7c8a6c6b85c4d07b18bea21d8c41ebbfb84ab32e55cf3",
                        "type": "0x00",
                        "cumulativeGasUsed": "0xd584",
                        "bloom": "0x00000000000000000000000000000000000000000000000000000000000000000000000000000000000000000000000000000000000000000000000000000000000000000000000000000000000000000000000000000000000000000000000000000000000000000000000000000000000000000000000000000000000000000000000000000000000000000000000000000000000000000000000000000000000000000000000000000000000000000000000000000000000000000000000000000000000000000000000000000000000000000000000000000000000000000000000000000000000000000000000000000000000000000000000000000000",
                        "logs": [],
                        "status": true,
                        "rlp": "0xf901080182d584b9010000000000000000000000000000000000000000000000000000000000000000000000000000000000000000000000000000000000000000000000000000000000000000000000000000000000000000000000000000000000000000000000000000000000000000000000000000000000000000000000000000000000000000000000000000000000000000000000000000000000000000000000000000000000000000000000000000000000000000000000000000000000000000000000000000000000000000000000000000000000000000000000000000000000000000000000000000000000000000000000000000000000000000000000000000000000c0"
                    },
                    {
                        "transactionHash": "0xd770ee9abf2f7c9e529a8eae98b00526d08aff08f79da965bc5adbe433faec35",
                        "type": "0x00",
                        "cumulativeGasUsed": "0x01308e",
                        "bloom": "0x00000000000000000000000000000000000000000000000000000000000000000000000000000000000000000000000000000000000000000000000000000000000000000000000000000000000000000000000000000000000000000000000000000000000000000000000000000000000000000000000000000000000000000000000000000000000000000000000000000000000000000000000000000000000000000000000000000000000000000000000000000000000000000000000000000000000000000000000000000000000000000000000000000000000000000000000000000000000000000000000000000000000000000000000000000000",
                        "logs": [],
                        "status": true,
                        "rlp": "0xf90109018301308eb9010000000000000000000000000000000000000000000000000000000000000000000000000000000000000000000000000000000000000000000000000000000000000000000000000000000000000000000000000000000000000000000000000000000000000000000000000000000000000000000000000000000000000000000000000000000000000000000000000000000000000000000000000000000000000000000000000000000000000000000000000000000000000000000000000000000000000000000000000000000000000000000000000000000000000000000000000000000000000000000000000000000000000000000000000000000000c0"
                    }
                ],
                "rlp": "0xf90306f90239a05d78313f132260791f339dda1dc3dd468008c6a1f319df606e6414f1337606aca01dcc4de8dec75d7aab85b567b6ccd41ad312451b948a7413f0a142fd40d49347942adc25665018aa1fe0e6bc666dac8fc2697ff9baa0861ae082d79b27e33d7a16a3e518eba55b805ebcb5764bda9d3c7609668f564fa0eb4cf6ae1ca4073c00a15797ea350e211a5016edbebad7c0227fffa0c32ded7da00dc810eaf2ac6fc612ce2ef6b0105e0aa308185d5f7a3a40145e59890aaa3583b901000000000000000000000000000000000000000000000000000000000000000000000000000000000000000000000000000000000000000000000000000000000000000000000000000000000000000000000000000000000000000000000000000000000000000000000000000000000000000000000000000000000000000000000000000000000000000000000000000000000000000000000000000000000000000000000000000000000000000000000000000000000000000000000000000000000000000000000000000000000000000000000000000000000000000000000000000000000000000000000000000000000000000000000000000000000080018407270e008301308e0c80a0000000000000000000000000000000000000000000000000000000000000000088000000000000000007a056e81f171bcc55a6ff8345e692c0f86e5b48e01b996cadc001622fb5e363b4218080a00000000000000000000000000000000000000000000000000000000000000000f8c6f862800a8307a120808096600160015d61000660008160108239f360015c60015526a003c98f0bce573c59be9bb6497cc8701df5257cea2b225919755026f761df4ba9a0036e20f2f0e72fccc5768020329ed3017b2032156110890941c925522a2a7280f860010a8307a1209436bdd8886852759e2046e3bf4c290d5c29c81d82808025a010e8e45cb9ed3ecbab573541da02d6b03aa6f874d89b35a214cf55ca6aea8328a01c50383f1d341003043621378571505b54eef5043cec96ecb1d4def8ef6e5970c0c0",
                "blocknumber": "1"
            }
        ],
        "sealEngine": "NoProof",
        "_info": {
            "hash": "0x16f242e0b7a7e478db1c3e37d6327d76b7d88a7853e74c95d92945357cdff3fd",
            "fixture-format": "blockchain_test",
            "comment": "`execution-specs` generated test",
            "filling-transition-tool": "2.19.0",
            "description": "First creates a contract, which TSTOREs a value 1 in slot 1. After creating\nthe contract, a new tx will call this contract, storing TLOAD(1) into slot\n1. The transient storage should be cleared after creating the contract (at\ntx-level), so the storage should stay empty.",
            "url": "https://github.com/ethereum/execution-specs/blob/tests-bal@v5.6.1/tests/cancun/eip1153_tstore/test_tstorage_clear_after_tx.py#L22",
            "metadata": {
                "opcode_count": {}
            },
            "reference-spec": "https://github.com/ethereum/EIPs/blob/master/EIPS/eip-1153.md",
            "reference-spec-version": "1eb863b534a5a3e19e9c196ab2a7f3db4bb9da17"
        }
    }
}