{
    "tests/osaka/eip7883_modexp_gas_increase/test_eip_mainnet.py::test_modexp_different_base_lengths[fork_Osaka-state_test-1024-bytes-long-exp]": {
        "env": {
            "currentCoinbase": "0x2adc25665018aa1fe0e6bc666dac8fc2697ff9ba",
            "currentGasLimit": "0x07270e00",
            "currentNumber": "0x01",
            "currentTimestamp": "0x03e8",
            "currentRandom": "0x0000000000000000000000000000000000000000000000000000000000000000",
            "currentDifficulty": "0x00",
            "currentBaseFee": "0x07",
            "currentExcessBlobGas": "0x00"
        },
        "pre": {
            "0x88a84fae2c55796216a2231072ffe14312200c51": {
                "nonce": "0x01",
                "balance": "0x00",
                "code": "0x3660006000375a60006000366000600060056203eff0f15a906000553d60015561007a0190036002553d600060003e3d600020600355",
                "storage": {}
            },
            "0xec00ff78c91588ae72674a1a1b9492ca3bd1e4d2": {
                "nonce": "0x00",
                "balance": "0x3635c9adc5dea00000",
                "code": "0x",
                "storage": {}
            }
        },
        "transaction": {
            "nonce": "0x00",
            "maxPriorityFeePerGas": "0x00",
            "maxFeePerGas": "0x07",
            "gasLimit": [
                "0x06724b"
            ],
            "to": "0x88a84fae2c55796216a2231072ffe14312200c51",
            "value": [
                "0x00"
            ],
            "data": [
                "0x000000000000000000000000000000000000000000000000000000000000002000000000000000000000000000000000000000000000000000000000000004000000000000000000000000000000000000000000000000000000000000000001eeeeeeeeeeeeeeeeeeeeeeeeeeeeeeeeeeeeeeeeeeeeeeeeeeeeeeeeeeeeeeeeffffffffffffffffffffffffffffffffffffffffffffffffffffffffffffffffffffffffffffffffffffffffffffffffffffffffffffffffffffffffffffffffffffffffffffffffffffffffffffffffffffffffffffffffffffffffffffffffffffffffffffffffffffffffffffffffffffffffffffffffffffffffffffffffffffffffffffffffffffffffffffffffffffffffffffffffffffffffffffffffffffffffffffffffffffffffffffffffffffffffffffffffffffffffffffffffffffffffffffffffffffffffffffffffffffffffffffffffffffffffffffffffffffffffffffffffffffffffffffffffffffffffffffffffffffffffffffffffffffffffffffffffffffffffffffffffffffffffffffffffffffffffffffffffffffffffffffffffffffffffffffffffffffffffffffffffffffffffffffffffffffffffffffffffffffffffffffffffffffffffffffffffffffffffffffffffffffffffffffffffffffffffffffffffffffffffffffffffffffffffffffffffffffffffffffffffffffffffffffffffffffffffffffffffffffffffffffffffffffffffffffffffffffffffffffffffffffffffffffffffffffffffffffffffffffffffffffffffffffffffffffffffffffffffffffffffffffffffffffffffffffffffffffffffffffffffffffffffffffffffffffffffffffffffffffffffffffffffffffffffffffffffffffffffffffffffffffffffffffffffffffffffffffffffffffffffffffffffffffffffffffffffffffffffffffffffffffffffffffffffffffffffffffffffffffffffffffffffffffffffffffffffffffffffffffffffffffffffffffffffffffffffffffffffffffffffffffffffffffffffffffffffffffffffffffffffffffffffffffffffffffffffffffffffffffffffffffffffffffffffffffffffffffffffffffffffffffffffffffffffffffffffffffffffffffffffffffffffffffffffffffffffffffffffffffffffffffffffffffffffffffffffffffffffffffffffffffffffffffffffffffffffffffffffffffffffffffffffffffffffffffffffffffffffffffffffffffffffffffffffffffffffffffffffffffffffffffffffffffffffffffffffffffffffffffffffffffffffffffffffffffffffffffffffffffffffffffffffffffffffffffffffffffffffffffffffffffffffffffffffffffffffffffffffffffffffffffffffffffffffffffffffffffffffffffffffffffffffffffffffffffffffffffffffffffffffffffffffffffffffffffffffffffffffffffffffffffffffffffffffffffffffffffffffffffffffffffffffffffffffffffffffffffffffffffffffffffffffffffffffffffffffffffffffffffffffffffffffffffffffffffffff03"
            ],
            "accessLists": [
                []
            ],
            "sender": "0xec00ff78c91588ae72674a1a1b9492ca3bd1e4d2",
            "secretKey": "0xde567c03972f47d8a8b45f5188a84fae2c55796216a2231072ffe14312200c51"
        },
        "post": {
            "Osaka": [
                {
                    "hash": "0x9ba5f4926bbf8c784801c863ae0bfe7df1ecd890d7e76e3b50c5285dd42ffa2f",
                    "logs": "0x1dcc4de8dec75d7aab85b567b6ccd41ad312451b948a7413f0a142fd40d49347",
                    "txbytes": "0x02f904e6018080078306724b9488a84fae2c55796216a2231072ffe14312200c5180b90481000000000000000000000000000000000000000000000000000000000000002000000000000000000000000000000000000000000000000000000000000004000000000000000000000000000000000000000000000000000000000000000001eeeeeeeeeeeeeeeeeeeeeeeeeeeeeeeeeeeeeeeeeeeeeeeeeeeeeeeeeeeeeeeeffffffffffffffffffffffffffffffffffffffffffffffffffffffffffffffffffffffffffffffffffffffffffffffffffffffffffffffffffffffffffffffffffffffffffffffffffffffffffffffffffffffffffffffffffffffffffffffffffffffffffffffffffffffffffffffffffffffffffffffffffffffffffffffffffffffffffffffffffffffffffffffffffffffffffffffffffffffffffffffffffffffffffffffffffffffffffffffffffffffffffffffffffffffffffffffffffffffffffffffffffffffffffffffffffffffffffffffffffffffffffffffffffffffffffffffffffffffffffffffffffffffffffffffffffffffffffffffffffffffffffffffffffffffffffffffffffffffffffffffffffffffffffffffffffffffffffffffffffffffffffffffffffffffffffffffffffffffffffffffffffffffffffffffffffffffffffffffffffffffffffffffffffffffffffffffffffffffffffffffffffffffffffffffffffffffffffffffffffffffffffffffffffffffffffffffffffffffffffffffffffffffffffffffffffffffffffffffffffffffffffffffffffffffffffffffffffffffffffffffffffffffffffffffffffffffffffffffffffffffffffffffffffffffffffffffffffffffffffffffffffffffffffffffffffffffffffffffffffffffffffffffffffffffffffffffffffffffffffffffffffffffffffffffffffffffffffffffffffffffffffffffffffffffffffffffffffffffffffffffffffffffffffffffffffffffffffffffffffffffffffffffffffffffffffffffffffffffffffffffffffffffffffffffffffffffffffffffffffffffffffffffffffffffffffffffffffffffffffffffffffffffffffffffffffffffffffffffffffffffffffffffffffffffffffffffffffffffffffffffffffffffffffffffffffffffffffffffffffffffffffffffffffffffffffffffffffffffffffffffffffffffffffffffffffffffffffffffffffffffffffffffffffffffffffffffffffffffffffffffffffffffffffffffffffffffffffffffffffffffffffffffffffffffffffffffffffffffffffffffffffffffffffffffffffffffffffffffffffffffffffffffffffffffffffffffffffffffffffffffffffffffffffffffffffffffffffffffffffffffffffffffffffffffffffffffffffffffffffffffffffffffffffffffffffffffffffffffffffffffffffffffffffffffffffffffffffffffffffffffffffffffffffffffffffffffffffffffffffffffffffffffffffffffffffffffffffffffffffffffffffffffffffffffffffffffffffffffffffffffffffffffffffffffffffffffffffffffffffffffffffffffffffffffffffffffffffffffffffffffffffffffff03c001a0c59f86bcfa4816a11ba515d394e543a73a16c52e809b64394274a2ab1f23da0ca074a123389a467d5bc38a0f4747c6739d403cf900170972f40867bb05da74068f",
                    "indexes": {
                        "data": 0,
                        "gas": 0,
                        "value": 0
                    },
                    "state": {
                        "0x88a84fae2c55796216a2231072ffe14312200c51": {
                            "nonce": "0x01",
                            "balance": "0x00",
                            "code": "0x3660006000375a60006000366000600060056203eff0f15a906000553d60015561007a0190036002553d600060003e3d600020600355",
                            "storage": {
                                "0x00": "0x01",
                                "0x01": "0x01",
                                "0x02": "0x03eff0",
                                "0x03": "0xf2ee15ea639b73fa3db9b34a245bdfa015c260c598b211bf05a1ecc4b3e3b4f2"
                            }
                        },
                        "0xec00ff78c91588ae72674a1a1b9492ca3bd1e4d2": {
                            "nonce": "0x01",
                            "balance": "0x3635c9adc5de76daff",
                            "code": "0x",
                            "storage": {}
                        }
                    }
                }
            ]
        },
        "config": {
            "blobSchedule": {
                "Cancun": {
                    "target": "0x03",
                    "max": "0x06",
                    "baseFeeUpdateFraction": "0x32f0ed"
                },
                "Prague": {
                    "target": "0x06",
                    "max": "0x09",
                    "baseFeeUpdateFraction": "0x4c6964"
                },
                "Osaka": {
                    "target": "0x06",
                    "max": "0x09",
                    "baseFeeUpdateFraction": "0x4c6964"
                }
            },
            "chainid": "0x01"
        },
        "_info": {
            "hash": "0xf8f7fa63deb2ecff963ea72a1a1f4f8069fc575fe098ad96fa4c4c7b97c33c9f",
            "comment": "`execution-specs` generated test",
            "filling-transition-tool": "2.18.0rc6",
            "description": "Mainnet test for triggering gas cost increase.",
            "url": "https://github.com/ethereum/execution-specs/blob/tests-v5.4.0/tests/osaka/eip7883_modexp_gas_increase/test_eip_mainnet.py#L33",
            "fixture-format": "state_test",
            "reference-spec": "https://github.com/ethereum/EIPs/blob/master/EIPS/eip-7883.md",
            "reference-spec-version": "13aa65810336d4f243d4563a828d5afe36035d23"
        }
    },
    "tests/osaka/eip7883_modexp_gas_increase/test_eip_mainnet.py::test_modexp_different_base_lengths[fork_Osaka-state_test-32-bytes-long-base]": {
        "env": {
            "currentCoinbase": "0x2adc25665018aa1fe0e6bc666dac8fc2697ff9ba",
            "currentGasLimit": "0x07270e00",
            "currentNumber": "0x01",
            "currentTimestamp": "0x03e8",
            "currentRandom": "0x0000000000000000000000000000000000000000000000000000000000000000",
            "currentDifficulty": "0x00",
            "currentBaseFee": "0x07",
            "currentExcessBlobGas": "0x00"
        },
        "pre": {
            "0x8072acfcfa329d033d28f2a737a142c44dc4636d": {
                "nonce": "0x01",
                "balance": "0x00",
                "code": "0x3660006000375a60006000366000600060056101f4f15a906000553d60015561007a0190036002553d600060003e3d600020600355",
                "storage": {}
            },
            "0xa815d8ececa8eea33ce6d8a7361cd4b692cecec1": {
                "nonce": "0x00",
                "balance": "0x3635c9adc5dea00000",
                "code": "0x",
                "storage": {}
            }
        },
        "transaction": {
            "nonce": "0x00",
            "maxPriorityFeePerGas": "0x00",
            "maxFeePerGas": "0x07",
            "gasLimit": [
                "0x01e415"
            ],
            "to": "0x8072acfcfa329d033d28f2a737a142c44dc4636d",
            "value": [
                "0x00"
            ],
            "data": [
                "0x000000000000000000000000000000000000000000000000000000000000002000000000000000000000000000000000000000000000000000000000000000010000000000000000000000000000000000000000000000000000000000000001fffffffffffffffffffffffffffffffffffffffffffffffffffffffffffffffc0205"
            ],
            "accessLists": [
                []
            ],
            "sender": "0xa815d8ececa8eea33ce6d8a7361cd4b692cecec1",
            "secretKey": "0xf2095a01f942fec0c93e502e8072acfcfa329d033d28f2a737a142c44dc4636d"
        },
        "post": {
            "Osaka": [
                {
                    "hash": "0x24c8b063d86ee825c14e186b06b2ef01dd0f4d347cbce7a5250df49eff3d89a2",
                    "logs": "0x1dcc4de8dec75d7aab85b567b6ccd41ad312451b948a7413f0a142fd40d49347",
                    "txbytes": "0x02f8e6018080078301e415948072acfcfa329d033d28f2a737a142c44dc4636d80b882000000000000000000000000000000000000000000000000000000000000002000000000000000000000000000000000000000000000000000000000000000010000000000000000000000000000000000000000000000000000000000000001fffffffffffffffffffffffffffffffffffffffffffffffffffffffffffffffc0205c001a0a2055b3c76144ee537fd365d4d5425b604a0cfbbaf5438342e95ac284f01f27aa03a3082f48cfe955acf96406a155408264d856ac6f6209f2136631da4c97a9c05",
                    "indexes": {
                        "data": 0,
                        "gas": 0,
                        "value": 0
                    },
                    "state": {
                        "0x8072acfcfa329d033d28f2a737a142c44dc4636d": {
                            "nonce": "0x01",
                            "balance": "0x00",
                            "code": "0x3660006000375a60006000366000600060056101f4f15a906000553d60015561007a0190036002553d600060003e3d600020600355",
                            "storage": {
                                "0x00": "0x01",
                                "0x01": "0x01",
                                "0x02": "0x01f4",
                                "0x03": "0xf343681465b9efe82c933c3e8748c70cb8aa06539c361de20f72eac04e766393"
                            }
                        },
                        "0xa815d8ececa8eea33ce6d8a7361cd4b692cecec1": {
                            "nonce": "0x01",
                            "balance": "0x3635c9adc5de9421c1",
                            "code": "0x",
                            "storage": {}
                        }
                    }
                }
            ]
        },
        "config": {
            "blobSchedule": {
                "Cancun": {
                    "target": "0x03",
                    "max": "0x06",
                    "baseFeeUpdateFraction": "0x32f0ed"
                },
                "Prague": {
                    "target": "0x06",
                    "max": "0x09",
                    "baseFeeUpdateFraction": "0x4c6964"
                },
                "Osaka": {
                    "target": "0x06",
                    "max": "0x09",
                    "baseFeeUpdateFraction": "0x4c6964"
                }
            },
            "chainid": "0x01"
        },
        "_info": {
            "hash": "0xc62393a1a601d25b236d37f3642aa0d7e9745b3c67554650ab4c2ff3f798b9e1",
            "comment": "`execution-specs` generated test",
            "filling-transition-tool": "2.18.0rc6",
            "description": "Mainnet test for triggering gas cost increase.",
            "url": "https://github.com/ethereum/execution-specs/blob/tests-v5.4.0/tests/osaka/eip7883_modexp_gas_increase/test_eip_mainnet.py#L33",
            "fixture-format": "state_test",
            "reference-spec": "https://github.com/ethereum/EIPs/blob/master/EIPS/eip-7883.md",
            "reference-spec-version": "13aa65810336d4f243d4563a828d5afe36035d23"
        }
    },
    "tests/osaka/eip7883_modexp_gas_increase/test_eip_mainnet.py::test_modexp_different_base_lengths[fork_Osaka-state_test-33-bytes-long-base]": {
        "env": {
            "currentCoinbase": "0x2adc25665018aa1fe0e6bc666dac8fc2697ff9ba",
            "currentGasLimit": "0x07270e00",
            "currentNumber": "0x01",
            "currentTimestamp": "0x03e8",
            "currentRandom": "0x0000000000000000000000000000000000000000000000000000000000000000",
            "currentDifficulty": "0x00",
            "currentBaseFee": "0x07",
            "currentExcessBlobGas": "0x00"
        },
        "pre": {
            "0xd52880155ff518c31bbea57a76222b97dff63a8a": {
                "nonce": "0x01",
                "balance": "0x00",
                "code": "0x3660006000375a60006000366000600060056101f4f15a906000553d60015561007a0190036002553d600060003e3d600020600355",
                "storage": {}
            },
            "0xdfde52ab4820645de35b0de51a1e5ed3782e82d3": {
                "nonce": "0x00",
                "balance": "0x3635c9adc5dea00000",
                "code": "0x",
                "storage": {}
            }
        },
        "transaction": {
            "nonce": "0x00",
            "maxPriorityFeePerGas": "0x00",
            "maxFeePerGas": "0x07",
            "gasLimit": [
                "0x01e43d"
            ],
            "to": "0xd52880155ff518c31bbea57a76222b97dff63a8a",
            "value": [
                "0x00"
            ],
            "data": [
                "0x000000000000000000000000000000000000000000000000000000000000002100000000000000000000000000000000000000000000000000000000000000010000000000000000000000000000000000000000000000000000000000000001fffffffffffffffffffffffffffffffffffffffffffffffffffffffffffffffffb0205"
            ],
            "accessLists": [
                []
            ],
            "sender": "0xdfde52ab4820645de35b0de51a1e5ed3782e82d3",
            "secretKey": "0x5798e8bcdeb2cd9f738a9631d52880155ff518c31bbea57a76222b97dff63a8a"
        },
        "post": {
            "Osaka": [
                {
                    "hash": "0xb837f1967aa9d8f677b129375dc4b47679f89c0ffe66473241b56ac93bbb90d9",
                    "logs": "0x1dcc4de8dec75d7aab85b567b6ccd41ad312451b948a7413f0a142fd40d49347",
                    "txbytes": "0x02f8e7018080078301e43d94d52880155ff518c31bbea57a76222b97dff63a8a80b883000000000000000000000000000000000000000000000000000000000000002100000000000000000000000000000000000000000000000000000000000000010000000000000000000000000000000000000000000000000000000000000001fffffffffffffffffffffffffffffffffffffffffffffffffffffffffffffffffb0205c080a0f688f762d3d7bbcf73b9c7d3bf3f2b7fb0d7f7cb9d4290a8dd70ffd35ac37575a05332d95c7ee24c6ccab9a2b95e7a18b32bc77f9595ed6d32af73bb27d80660db",
                    "indexes": {
                        "data": 0,
                        "gas": 0,
                        "value": 0
                    },
                    "state": {
                        "0xd52880155ff518c31bbea57a76222b97dff63a8a": {
                            "nonce": "0x01",
                            "balance": "0x00",
                            "code": "0x3660006000375a60006000366000600060056101f4f15a906000553d60015561007a0190036002553d600060003e3d600020600355",
                            "storage": {
                                "0x00": "0x01",
                                "0x01": "0x01",
                                "0x02": "0x01f4",
                                "0x03": "0x5fe7f977e71dba2ea1a68e21057beebb9be2ac30c6410aa38d4f3fbe41dcffd2"
                            }
                        },
                        "0xdfde52ab4820645de35b0de51a1e5ed3782e82d3": {
                            "nonce": "0x01",
                            "balance": "0x3635c9adc5de942151",
                            "code": "0x",
                            "storage": {}
                        }
                    }
                }
            ]
        },
        "config": {
            "blobSchedule": {
                "Cancun": {
                    "target": "0x03",
                    "max": "0x06",
                    "baseFeeUpdateFraction": "0x32f0ed"
                },
                "Prague": {
                    "target": "0x06",
                    "max": "0x09",
                    "baseFeeUpdateFraction": "0x4c6964"
                },
                "Osaka": {
                    "target": "0x06",
                    "max": "0x09",
                    "baseFeeUpdateFraction": "0x4c6964"
                }
            },
            "chainid": "0x01"
        },
        "_info": {
            "hash": "0x38e73a04a0ee2a3872a9c994dec391403711b89ab32f9ef13bb28bed23f4976d",
            "comment": "`execution-specs` generated test",
            "filling-transition-tool": "2.18.0rc6",
            "description": "Mainnet test for triggering gas cost increase.",
            "url": "https://github.com/ethereum/execution-specs/blob/tests-v5.4.0/tests/osaka/eip7883_modexp_gas_increase/test_eip_mainnet.py#L33",
            "fixture-format": "state_test",
            "reference-spec": "https://github.com/ethereum/EIPs/blob/master/EIPS/eip-7883.md",
            "reference-spec-version": "13aa65810336d4f243d4563a828d5afe36035d23"
        }
    },
    "tests/osaka/eip7883_modexp_gas_increase/test_eip_mainnet.py::test_modexp_different_base_lengths[fork_Osaka-state_test-nagydani-1-pow0x10001]": {
        "env": {
            "currentCoinbase": "0x2adc25665018aa1fe0e6bc666dac8fc2697ff9ba",
            "currentGasLimit": "0x07270e00",
            "currentNumber": "0x01",
            "currentTimestamp": "0x03e8",
            "currentRandom": "0x0000000000000000000000000000000000000000000000000000000000000000",
            "currentDifficulty": "0x00",
            "currentBaseFee": "0x07",
            "currentExcessBlobGas": "0x00"
        },
        "pre": {
            "0x1842b432d711158b2332b5309f013ed1257c961a": {
                "nonce": "0x01",
                "balance": "0x00",
                "code": "0x3660006000375a6000600036600060006005610800f15a906000553d60015561007a0190036002553d600060003e3d600020600355",
                "storage": {}
            },
            "0x735c3611f41beaaf945d73c6e2e2ec3fa45d6534": {
                "nonce": "0x00",
                "balance": "0x3635c9adc5dea00000",
                "code": "0x",
                "storage": {}
            }
        },
        "transaction": {
            "nonce": "0x00",
            "maxPriorityFeePerGas": "0x00",
            "maxFeePerGas": "0x07",
            "gasLimit": [
                "0x029574"
            ],
            "to": "0x1842b432d711158b2332b5309f013ed1257c961a",
            "value": [
                "0x00"
            ],
            "data": [
                "0x000000000000000000000000000000000000000000000000000000000000004000000000000000000000000000000000000000000000000000000000000000030000000000000000000000000000000000000000000000000000000000000040e09ad9675465c53a109fac66a445c91b292d2bb2c5268addb30cd82f80fcb0033ff97c80a5fc6f39193ae969c6ede6710a6b7ac27078a06d90ef1c72e5c85fb5010001fc9e1f6beb81516545975218075ec2af118cd8798df6e08a147c60fd6095ac2bb02c2908cf4dd7c81f11c289e4bce98f3553768f392a80ce22bf5c4f4a248c6b"
            ],
            "accessLists": [
                []
            ],
            "sender": "0x735c3611f41beaaf945d73c6e2e2ec3fa45d6534",
            "secretKey": "0xa1e0eab74335c081fb43ee751842b432d711158b2332b5309f013ed1257c961a"
        },
        "post": {
            "Osaka": [
                {
                    "hash": "0xd601b2dfa2035d4ae86f7e45f3b230d5d24a3a77dcc523d3017fe22d6ae6a081",
                    "logs": "0x1dcc4de8dec75d7aab85b567b6ccd41ad312451b948a7413f0a142fd40d49347",
                    "txbytes": "0x02f901470180800783029574941842b432d711158b2332b5309f013ed1257c961a80b8e3000000000000000000000000000000000000000000000000000000000000004000000000000000000000000000000000000000000000000000000000000000030000000000000000000000000000000000000000000000000000000000000040e09ad9675465c53a109fac66a445c91b292d2bb2c5268addb30cd82f80fcb0033ff97c80a5fc6f39193ae969c6ede6710a6b7ac27078a06d90ef1c72e5c85fb5010001fc9e1f6beb81516545975218075ec2af118cd8798df6e08a147c60fd6095ac2bb02c2908cf4dd7c81f11c289e4bce98f3553768f392a80ce22bf5c4f4a248c6bc001a088f80c77fc4cc17ddb3f6a488c24ff39e97e631eb1c97a9b516dbfcf7cd6b4b6a0457bc1580c250849aaba761db8beeb9e21c205edeae0df6c421402dbc8b45a4a",
                    "indexes": {
                        "data": 0,
                        "gas": 0,
                        "value": 0
                    },
                    "state": {
                        "0x1842b432d711158b2332b5309f013ed1257c961a": {
                            "nonce": "0x01",
                            "balance": "0x00",
                            "code": "0x3660006000375a6000600036600060006005610800f15a906000553d60015561007a0190036002553d600060003e3d600020600355",
                            "storage": {
                                "0x00": "0x01",
                                "0x01": "0x40",
                                "0x02": "0x0800",
                                "0x03": "0xcde550a4da9f13097127faf71b9450984c30ebdcd1c5fc43c50946945b7ffa2b"
                            }
                        },
                        "0x735c3611f41beaaf945d73c6e2e2ec3fa45d6534": {
                            "nonce": "0x01",
                            "balance": "0x3635c9adc5de93cc94",
                            "code": "0x",
                            "storage": {}
                        }
                    }
                }
            ]
        },
        "config": {
            "blobSchedule": {
                "Cancun": {
                    "target": "0x03",
                    "max": "0x06",
                    "baseFeeUpdateFraction": "0x32f0ed"
                },
                "Prague": {
                    "target": "0x06",
                    "max": "0x09",
                    "baseFeeUpdateFraction": "0x4c6964"
                },
                "Osaka": {
                    "target": "0x06",
                    "max": "0x09",
                    "baseFeeUpdateFraction": "0x4c6964"
                }
            },
            "chainid": "0x01"
        },
        "_info": {
            "hash": "0x0782b3ef74bda6d97ef1a639705cab1879ccb8864d94b8909983ae1d7a3dbdb8",
            "comment": "`execution-specs` generated test",
            "filling-transition-tool": "2.18.0rc6",
            "description": "Mainnet test for triggering gas cost increase.",
            "url": "https://github.com/ethereum/execution-specs/blob/tests-v5.4.0/tests/osaka/eip7883_modexp_gas_increase/test_eip_mainnet.py#L33",
            "fixture-format": "state_test",
            "reference-spec": "https://github.com/ethereum/EIPs/blob/master/EIPS/eip-7883.md",
            "reference-spec-version": "13aa65810336d4f243d4563a828d5afe36035d23"
        }
    },
    "tests/osaka/eip7883_modexp_gas_increase/test_eip_mainnet.py::test_modexp_different_base_lengths[fork_Osaka-state_test-zero-exponent-64bytes]": {
        "env": {
            "currentCoinbase": "0x2adc25665018aa1fe0e6bc666dac8fc2697ff9ba",
            "currentGasLimit": "0x07270e00",
            "currentNumber": "0x01",
            "currentTimestamp": "0x03e8",
            "currentRandom": "0x0000000000000000000000000000000000000000000000000000000000000000",
            "currentDifficulty": "0x00",
            "currentBaseFee": "0x07",
            "currentExcessBlobGas": "0x00"
        },
        "pre": {
            "0xa419dcb7d3699f418e10f79ef5b3e4d5255a1d02": {
                "nonce": "0x01",
                "balance": "0x00",
                "code": "0x3660006000375a6000600036600060006005612000f15a906000553d60015561007a0190036002553d600060003e3d600020600355",
                "storage": {}
            },
            "0xfcb1814f8c5c5cde8b56628f791a4a2208ea8142": {
                "nonce": "0x00",
                "balance": "0x3635c9adc5dea00000",
                "code": "0x",
                "storage": {}
            }
        },
        "transaction": {
            "nonce": "0x00",
            "maxPriorityFeePerGas": "0x00",
            "maxFeePerGas": "0x07",
            "gasLimit": [
                "0x025777"
            ],
            "to": "0xa419dcb7d3699f418e10f79ef5b3e4d5255a1d02",
            "value": [
                "0x00"
            ],
            "data": [
                "0x0000000000000000000000000000000000000000000000000000000000000020000000000000000000000000000000000000000000000000000000000000004000000000000000000000000000000000000000000000000000000000000000208d74b1229cc36912165d7ed62334d5ce0683ad12dbade86cdbd705f46693d6c0000000000000000000000000000000000000000000000000000000000000000000000000000000000000000000000000000000000000000000000000000000008f70e8f94c5ad28ed971e258ea3854ebf57131ae4c842e5cafe1c70db8272caf"
            ],
            "accessLists": [
                []
            ],
            "sender": "0xfcb1814f8c5c5cde8b56628f791a4a2208ea8142",
            "secretKey": "0xb904c49a296f659fed945041a419dcb7d3699f418e10f79ef5b3e4d5255a1d02"
        },
        "post": {
            "Osaka": [
                {
                    "hash": "0x83736dcf45f8030fa0150b59fba779279fa165ca045653117e4e8a5763f712a3",
                    "logs": "0x1dcc4de8dec75d7aab85b567b6ccd41ad312451b948a7413f0a142fd40d49347",
                    "txbytes": "0x02f90144018080078302577794a419dcb7d3699f418e10f79ef5b3e4d5255a1d0280b8e00000000000000000000000000000000000000000000000000000000000000020000000000000000000000000000000000000000000000000000000000000004000000000000000000000000000000000000000000000000000000000000000208d74b1229cc36912165d7ed62334d5ce0683ad12dbade86cdbd705f46693d6c0000000000000000000000000000000000000000000000000000000000000000000000000000000000000000000000000000000000000000000000000000000008f70e8f94c5ad28ed971e258ea3854ebf57131ae4c842e5cafe1c70db8272cafc080a00df59df8d74a8fed66b69a072a3f817110ac8aaa93bbdc5bd2982fef2fb4cf07a032eafcefaff3c99f4c0e8ab4e787a6533ebf6d3f2f2b23d70d2a58558c9491a6",
                    "indexes": {
                        "data": 0,
                        "gas": 0,
                        "value": 0
                    },
                    "state": {
                        "0xa419dcb7d3699f418e10f79ef5b3e4d5255a1d02": {
                            "nonce": "0x01",
                            "balance": "0x00",
                            "code": "0x3660006000375a6000600036600060006005612000f15a906000553d60015561007a0190036002553d600060003e3d600020600355",
                            "storage": {
                                "0x00": "0x01",
                                "0x01": "0x20",
                                "0x02": "0x2000",
                                "0x03": "0xb10e2d527612073b26eecdfd717e6a320cf44b4afac2b0732d9fcbe2b7fa0cf6"
                            }
                        },
                        "0xfcb1814f8c5c5cde8b56628f791a4a2208ea8142": {
                            "nonce": "0x01",
                            "balance": "0x3635c9adc5de933af9",
                            "code": "0x",
                            "storage": {}
                        }
                    }
                }
            ]
        },
        "config": {
            "blobSchedule": {
                "Cancun": {
                    "target": "0x03",
                    "max": "0x06",
                    "baseFeeUpdateFraction": "0x32f0ed"
                },
                "Prague": {
                    "target": "0x06",
                    "max": "0x09",
                    "baseFeeUpdateFraction": "0x4c6964"
                },
                "Osaka": {
                    "target": "0x06",
                    "max": "0x09",
                    "baseFeeUpdateFraction": "0x4c6964"
                }
            },
            "chainid": "0x01"
        },
        "_info": {
            "hash": "0x87025db7b11f2f460a2fb734a4f09aedba480e0b3daaaab8516f8c7ec2e349e5",
            "comment": "`execution-specs` generated test",
            "filling-transition-tool": "2.18.0rc6",
            "description": "Mainnet test for triggering gas cost increase.",
            "url": "https://github.com/ethereum/execution-specs/blob/tests-v5.4.0/tests/osaka/eip7883_modexp_gas_increase/test_eip_mainnet.py#L33",
            "fixture-format": "state_test",
            "reference-spec": "https://github.com/ethereum/EIPs/blob/master/EIPS/eip-7883.md",
            "reference-spec-version": "13aa65810336d4f243d4563a828d5afe36035d23"
        }
    }
}