{
    "tests/ported_static/stStaticCall/test_static_callcallcode_01_suicide_end2.py::test_static_callcallcode_01_suicide_end2[fork_Cancun-blockchain_test_from_state_test]": {
        "network": "Cancun",
        "genesisBlockHeader": {
            "parentHash": "0x0000000000000000000000000000000000000000000000000000000000000000",
            "uncleHash": "0x1dcc4de8dec75d7aab85b567b6ccd41ad312451b948a7413f0a142fd40d49347",
            "coinbase": "0x0000000000000000000000000000000000000000",
            "stateRoot": "0xd7174291b90e3cc5bbb4b74fb18f234864491ffd5594b5e5ac67395db89b436e",
            "transactionsTrie": "0x56e81f171bcc55a6ff8345e692c0f86e5b48e01b996cadc001622fb5e363b421",
            "receiptTrie": "0x56e81f171bcc55a6ff8345e692c0f86e5b48e01b996cadc001622fb5e363b421",
            "bloom": "0x00000000000000000000000000000000000000000000000000000000000000000000000000000000000000000000000000000000000000000000000000000000000000000000000000000000000000000000000000000000000000000000000000000000000000000000000000000000000000000000000000000000000000000000000000000000000000000000000000000000000000000000000000000000000000000000000000000000000000000000000000000000000000000000000000000000000000000000000000000000000000000000000000000000000000000000000000000000000000000000000000000000000000000000000000000000",
            "difficulty": "0x00",
            "number": "0x00",
            "gasLimit": "0x01c9c380",
            "gasUsed": "0x00",
            "timestamp": "0x00",
            "extraData": "0x00",
            "mixHash": "0x0000000000000000000000000000000000000000000000000000000000000000",
            "nonce": "0x0000000000000000",
            "baseFeePerGas": "0x0b",
            "withdrawalsRoot": "0x56e81f171bcc55a6ff8345e692c0f86e5b48e01b996cadc001622fb5e363b421",
            "blobGasUsed": "0x00",
            "excessBlobGas": "0x00",
            "parentBeaconBlockRoot": "0x0000000000000000000000000000000000000000000000000000000000000000",
            "hash": "0x354d10f53f30dd02ca5520965d4ad8ffc1562dd613d55b1073de8258d8ebbb1f"
        },
        "pre": {
            "0x000f3df6d732807ef1319fb7b8bb8522d0beac02": {
                "nonce": "0x01",
                "balance": "0x00",
                "code": "0x3373fffffffffffffffffffffffffffffffffffffffe14604d57602036146024575f5ffd5b5f35801560495762001fff810690815414603c575f5ffd5b62001fff01545f5260205ff35b5f5ffd5b62001fff42064281555f359062001fff015500",
                "storage": {}
            },
            "0xd66f224cbd2fabb21b17bb53c56118f32f62ebd6": {
                "nonce": "0x00",
                "balance": "0x0de0b6b3a7640000",
                "code": "0x",
                "storage": {}
            },
            "0xcfb5784a5e49924becc2d5c5d2ee0a9b141e6216": {
                "nonce": "0x00",
                "balance": "0x02540be400",
                "code": "0x600160025200",
                "storage": {}
            },
            "0x9e10a6afffcf5bba3b47582f2575d787016a56ca": {
                "nonce": "0x00",
                "balance": "0x0de0b6b3a7640000",
                "code": "0x6040600060406000735de1c119e1fc3598726f4d9411debd7ed1402187620249f0fa600055600160015500",
                "storage": {}
            },
            "0x5de1c119e1fc3598726f4d9411debd7ed1402187": {
                "nonce": "0x00",
                "balance": "0x02540be400",
                "code": "0x6040600060406000600073cfb5784a5e49924becc2d5c5d2ee0a9b141e621661c350f250739e10a6afffcf5bba3b47582f2575d787016a56caff00",
                "storage": {}
            }
        },
        "postState": {
            "0x000f3df6d732807ef1319fb7b8bb8522d0beac02": {
                "nonce": "0x01",
                "balance": "0x00",
                "code": "0x3373fffffffffffffffffffffffffffffffffffffffe14604d57602036146024575f5ffd5b5f35801560495762001fff810690815414603c575f5ffd5b62001fff01545f5260205ff35b5f5ffd5b62001fff42064281555f359062001fff015500",
                "storage": {
                    "0x03e8": "0x03e8"
                }
            },
            "0xd66f224cbd2fabb21b17bb53c56118f32f62ebd6": {
                "nonce": "0x01",
                "balance": "0x0de0b6b3a745cc3e",
                "code": "0x",
                "storage": {}
            },
            "0xcfb5784a5e49924becc2d5c5d2ee0a9b141e6216": {
                "nonce": "0x00",
                "balance": "0x02540be400",
                "code": "0x600160025200",
                "storage": {}
            },
            "0x9e10a6afffcf5bba3b47582f2575d787016a56ca": {
                "nonce": "0x00",
                "balance": "0x0de0b6b3a7640000",
                "code": "0x6040600060406000735de1c119e1fc3598726f4d9411debd7ed1402187620249f0fa600055600160015500",
                "storage": {
                    "0x01": "0x01"
                }
            },
            "0x5de1c119e1fc3598726f4d9411debd7ed1402187": {
                "nonce": "0x00",
                "balance": "0x02540be400",
                "code": "0x6040600060406000600073cfb5784a5e49924becc2d5c5d2ee0a9b141e621661c350f250739e10a6afffcf5bba3b47582f2575d787016a56caff00",
                "storage": {}
            }
        },
        "lastblockhash": "0x3516e66f449c70db317fe810a6d5d4172d6abd016dc2f766cef6a811b813fcaf",
        "config": {
            "network": "Cancun",
            "chainid": "0x01",
            "blobSchedule": {
                "Cancun": {
                    "target": "0x03",
                    "max": "0x06",
                    "baseFeeUpdateFraction": "0x32f0ed"
                }
            }
        },
        "genesisRLP": "0xf9023cf90236a00000000000000000000000000000000000000000000000000000000000000000a01dcc4de8dec75d7aab85b567b6ccd41ad312451b948a7413f0a142fd40d49347940000000000000000000000000000000000000000a0d7174291b90e3cc5bbb4b74fb18f234864491ffd5594b5e5ac67395db89b436ea056e81f171bcc55a6ff8345e692c0f86e5b48e01b996cadc001622fb5e363b421a056e81f171bcc55a6ff8345e692c0f86e5b48e01b996cadc001622fb5e363b421b901000000000000000000000000000000000000000000000000000000000000000000000000000000000000000000000000000000000000000000000000000000000000000000000000000000000000000000000000000000000000000000000000000000000000000000000000000000000000000000000000000000000000000000000000000000000000000000000000000000000000000000000000000000000000000000000000000000000000000000000000000000000000000000000000000000000000000000000000000000000000000000000000000000000000000000000000000000000000000000000000000000000000000000000000000000000080808401c9c380808000a000000000000000000000000000000000000000000000000000000000000000008800000000000000000ba056e81f171bcc55a6ff8345e692c0f86e5b48e01b996cadc001622fb5e363b4218080a00000000000000000000000000000000000000000000000000000000000000000c0c0c0",
        "blocks": [
            {
                "blockHeader": {
                    "parentHash": "0x354d10f53f30dd02ca5520965d4ad8ffc1562dd613d55b1073de8258d8ebbb1f",
                    "uncleHash": "0x1dcc4de8dec75d7aab85b567b6ccd41ad312451b948a7413f0a142fd40d49347",
                    "coinbase": "0x2adc25665018aa1fe0e6bc666dac8fc2697ff9ba",
                    "stateRoot": "0x448ba51ef29cb042d023e58142a1c897c85af368994ad3e2ef66dc8e2e595a11",
                    "transactionsTrie": "0x6a5d05c7f90770311f276ffbb0a4ace89389ae9dc0f65a6567351cb7deecbfed",
                    "receiptTrie": "0x1529db36c08a4399e2ecee2ac2b106666bd6550d90d954a6c8d68a3a2e6669c6",
                    "bloom": "0x00000000000000000000000000000000000000000000000000000000000000000000000000000000000000000000000000000000000000000000000000000000000000000000000000000000000000000000000000000000000000000000000000000000000000000000000000000000000000000000000000000000000000000000000000000000000000000000000000000000000000000000000000000000000000000000000000000000000000000000000000000000000000000000000000000000000000000000000000000000000000000000000000000000000000000000000000000000000000000000000000000000000000000000000000000000",
                    "difficulty": "0x00",
                    "number": "0x01",
                    "gasLimit": "0x01c9c380",
                    "gasUsed": "0x03052d",
                    "timestamp": "0x03e8",
                    "extraData": "0x00",
                    "mixHash": "0x0000000000000000000000000000000000000000000000000000000000020000",
                    "nonce": "0x0000000000000000",
                    "baseFeePerGas": "0x0a",
                    "withdrawalsRoot": "0x56e81f171bcc55a6ff8345e692c0f86e5b48e01b996cadc001622fb5e363b421",
                    "blobGasUsed": "0x00",
                    "excessBlobGas": "0x00",
                    "parentBeaconBlockRoot": "0x0000000000000000000000000000000000000000000000000000000000000000",
                    "hash": "0x3516e66f449c70db317fe810a6d5d4172d6abd016dc2f766cef6a811b813fcaf"
                },
                "transactions": [
                    {
                        "type": "0x00",
                        "chainId": "0x01",
                        "nonce": "0x00",
                        "gasPrice": "0x0a",
                        "gasLimit": "0x2dc6c0",
                        "to": "0x9e10a6afffcf5bba3b47582f2575d787016a56ca",
                        "value": "0x00",
                        "data": "0x",
                        "v": "0x25",
                        "r": "0x021151e27cf89291b1128e2bb8491f0af824e8965f4060ec8ffbb5012e20d7bb",
                        "s": "0x11f6f7270a3f6700516ec9d80f012004afe1574499256a5925c6d75a64e073be",
                        "sender": "0xd66f224cbd2fabb21b17bb53c56118f32f62ebd6"
                    }
                ],
                "uncleHeaders": [],
                "withdrawals": [],
                "receipts": [
                    {
                        "transactionHash": "0x06eacd978ed46e1856411005c7badac0cae88611e83c325eb694ba0d1bf61e32",
                        "type": "0x00",
                        "cumulativeGasUsed": "0x03052d",
                        "bloom": "0x00000000000000000000000000000000000000000000000000000000000000000000000000000000000000000000000000000000000000000000000000000000000000000000000000000000000000000000000000000000000000000000000000000000000000000000000000000000000000000000000000000000000000000000000000000000000000000000000000000000000000000000000000000000000000000000000000000000000000000000000000000000000000000000000000000000000000000000000000000000000000000000000000000000000000000000000000000000000000000000000000000000000000000000000000000000",
                        "logs": [],
                        "status": true,
                        "rlp": "0xf90109018303052db9010000000000000000000000000000000000000000000000000000000000000000000000000000000000000000000000000000000000000000000000000000000000000000000000000000000000000000000000000000000000000000000000000000000000000000000000000000000000000000000000000000000000000000000000000000000000000000000000000000000000000000000000000000000000000000000000000000000000000000000000000000000000000000000000000000000000000000000000000000000000000000000000000000000000000000000000000000000000000000000000000000000000000000000000000000000000c0"
                    }
                ],
                "rlp": "0xf902a4f9023ba0354d10f53f30dd02ca5520965d4ad8ffc1562dd613d55b1073de8258d8ebbb1fa01dcc4de8dec75d7aab85b567b6ccd41ad312451b948a7413f0a142fd40d49347942adc25665018aa1fe0e6bc666dac8fc2697ff9baa0448ba51ef29cb042d023e58142a1c897c85af368994ad3e2ef66dc8e2e595a11a06a5d05c7f90770311f276ffbb0a4ace89389ae9dc0f65a6567351cb7deecbfeda01529db36c08a4399e2ecee2ac2b106666bd6550d90d954a6c8d68a3a2e6669c6b901000000000000000000000000000000000000000000000000000000000000000000000000000000000000000000000000000000000000000000000000000000000000000000000000000000000000000000000000000000000000000000000000000000000000000000000000000000000000000000000000000000000000000000000000000000000000000000000000000000000000000000000000000000000000000000000000000000000000000000000000000000000000000000000000000000000000000000000000000000000000000000000000000000000000000000000000000000000000000000000000000000000000000000000000000000000080018401c9c3808303052d8203e800a000000000000000000000000000000000000000000000000000000000000200008800000000000000000aa056e81f171bcc55a6ff8345e692c0f86e5b48e01b996cadc001622fb5e363b4218080a00000000000000000000000000000000000000000000000000000000000000000f862f860800a832dc6c0949e10a6afffcf5bba3b47582f2575d787016a56ca808025a0021151e27cf89291b1128e2bb8491f0af824e8965f4060ec8ffbb5012e20d7bba011f6f7270a3f6700516ec9d80f012004afe1574499256a5925c6d75a64e073bec0c0",
                "blocknumber": "1"
            }
        ],
        "sealEngine": "NoProof",
        "_info": {
            "hash": "0x1d90edb19e6504af9557488dc7d45231d89b1c1a79608e2fa7442d54eef7342c",
            "fixture-format": "blockchain_test",
            "comment": "`execution-specs` generated test",
            "filling-transition-tool": "2.19.0",
            "description": "Test_static_callcallcode_01_suicide_end2.",
            "url": "https://github.com/ethereum/execution-specs/blob/tests-snobal-devnet-5@v8037.0.0/tests/ported_static/stStaticCall/test_static_callcallcode_01_suicide_end2.py#L24",
            "metadata": {
                "opcode_count": {}
            }
        }
    }
}