{
    "tests/ported_static/stStaticCall/test_static_callcallcode_01_suicide_end2.py::test_static_callcallcode_01_suicide_end2[fork_Cancun-blockchain_test_from_state_test]": {
        "network": "Cancun",
        "genesisBlockHeader": {
            "parentHash": "0x0000000000000000000000000000000000000000000000000000000000000000",
            "uncleHash": "0x1dcc4de8dec75d7aab85b567b6ccd41ad312451b948a7413f0a142fd40d49347",
            "coinbase": "0x0000000000000000000000000000000000000000",
            "stateRoot": "0x149d30d1c8de036e330be0e5b3000ae144c0bcb10745fd0d24fc2f70cda2526a",
            "transactionsTrie": "0x56e81f171bcc55a6ff8345e692c0f86e5b48e01b996cadc001622fb5e363b421",
            "receiptTrie": "0x56e81f171bcc55a6ff8345e692c0f86e5b48e01b996cadc001622fb5e363b421",
            "bloom": "0x00000000000000000000000000000000000000000000000000000000000000000000000000000000000000000000000000000000000000000000000000000000000000000000000000000000000000000000000000000000000000000000000000000000000000000000000000000000000000000000000000000000000000000000000000000000000000000000000000000000000000000000000000000000000000000000000000000000000000000000000000000000000000000000000000000000000000000000000000000000000000000000000000000000000000000000000000000000000000000000000000000000000000000000000000000000",
            "difficulty": "0x00",
            "number": "0x00",
            "gasLimit": "0x01c9c380",
            "gasUsed": "0x00",
            "timestamp": "0x00",
            "extraData": "0x00",
            "mixHash": "0x0000000000000000000000000000000000000000000000000000000000000000",
            "nonce": "0x0000000000000000",
            "baseFeePerGas": "0x0b",
            "withdrawalsRoot": "0x56e81f171bcc55a6ff8345e692c0f86e5b48e01b996cadc001622fb5e363b421",
            "blobGasUsed": "0x00",
            "excessBlobGas": "0x00",
            "parentBeaconBlockRoot": "0x0000000000000000000000000000000000000000000000000000000000000000",
            "hash": "0xa6b97c605721a39925471fa052e72c846b36c5ba94af8fd3b27e703cc00eb922"
        },
        "pre": {
            "0x000f3df6d732807ef1319fb7b8bb8522d0beac02": {
                "nonce": "0x01",
                "balance": "0x00",
                "code": "0x3373fffffffffffffffffffffffffffffffffffffffe14604d57602036146024575f5ffd5b5f35801560495762001fff810690815414603c575f5ffd5b62001fff01545f5260205ff35b5f5ffd5b62001fff42064281555f359062001fff015500",
                "storage": {}
            },
            "0x9e10a6afffcf5bba3b47582f2575d787016a56ca": {
                "nonce": "0x00",
                "balance": "0x0de0b6b3a7640000",
                "code": "0x6040600060406000735de1c119e1fc3598726f4d9411debd7ed1402187620249f0fa600055600160015500",
                "storage": {}
            },
            "0x5de1c119e1fc3598726f4d9411debd7ed1402187": {
                "nonce": "0x00",
                "balance": "0x02540be400",
                "code": "0x6040600060406000600073cfb5784a5e49924becc2d5c5d2ee0a9b141e621661c350f250739e10a6afffcf5bba3b47582f2575d787016a56caff00",
                "storage": {}
            },
            "0xcfb5784a5e49924becc2d5c5d2ee0a9b141e6216": {
                "nonce": "0x00",
                "balance": "0x02540be400",
                "code": "0x600160025200",
                "storage": {}
            },
            "0xebaf50debf10e08302fe4280c32df010463ca297": {
                "nonce": "0x00",
                "balance": "0x0de0b6b3a7640000",
                "code": "0x",
                "storage": {}
            }
        },
        "postState": {
            "0x000f3df6d732807ef1319fb7b8bb8522d0beac02": {
                "nonce": "0x01",
                "balance": "0x00",
                "code": "0x3373fffffffffffffffffffffffffffffffffffffffe14604d57602036146024575f5ffd5b5f35801560495762001fff810690815414603c575f5ffd5b62001fff01545f5260205ff35b5f5ffd5b62001fff42064281555f359062001fff015500",
                "storage": {
                    "0x03e8": "0x03e8"
                }
            },
            "0x9e10a6afffcf5bba3b47582f2575d787016a56ca": {
                "nonce": "0x00",
                "balance": "0x0de0b6b3a7640000",
                "code": "0x6040600060406000735de1c119e1fc3598726f4d9411debd7ed1402187620249f0fa600055600160015500",
                "storage": {
                    "0x01": "0x01"
                }
            },
            "0x5de1c119e1fc3598726f4d9411debd7ed1402187": {
                "nonce": "0x00",
                "balance": "0x02540be400",
                "code": "0x6040600060406000600073cfb5784a5e49924becc2d5c5d2ee0a9b141e621661c350f250739e10a6afffcf5bba3b47582f2575d787016a56caff00",
                "storage": {}
            },
            "0xcfb5784a5e49924becc2d5c5d2ee0a9b141e6216": {
                "nonce": "0x00",
                "balance": "0x02540be400",
                "code": "0x600160025200",
                "storage": {}
            },
            "0xebaf50debf10e08302fe4280c32df010463ca297": {
                "nonce": "0x01",
                "balance": "0x0de0b6b3a745cc3e",
                "code": "0x",
                "storage": {}
            }
        },
        "lastblockhash": "0xbbd7dda7704429d94226a0ebea06ebbaff17b7b8ebed1100fc1341b1f5a8cd69",
        "config": {
            "network": "Cancun",
            "chainid": "0x01",
            "blobSchedule": {
                "Cancun": {
                    "target": "0x03",
                    "max": "0x06",
                    "baseFeeUpdateFraction": "0x32f0ed"
                }
            }
        },
        "genesisRLP": "0xf9023cf90236a00000000000000000000000000000000000000000000000000000000000000000a01dcc4de8dec75d7aab85b567b6ccd41ad312451b948a7413f0a142fd40d49347940000000000000000000000000000000000000000a0149d30d1c8de036e330be0e5b3000ae144c0bcb10745fd0d24fc2f70cda2526aa056e81f171bcc55a6ff8345e692c0f86e5b48e01b996cadc001622fb5e363b421a056e81f171bcc55a6ff8345e692c0f86e5b48e01b996cadc001622fb5e363b421b901000000000000000000000000000000000000000000000000000000000000000000000000000000000000000000000000000000000000000000000000000000000000000000000000000000000000000000000000000000000000000000000000000000000000000000000000000000000000000000000000000000000000000000000000000000000000000000000000000000000000000000000000000000000000000000000000000000000000000000000000000000000000000000000000000000000000000000000000000000000000000000000000000000000000000000000000000000000000000000000000000000000000000000000000000000000080808401c9c380808000a000000000000000000000000000000000000000000000000000000000000000008800000000000000000ba056e81f171bcc55a6ff8345e692c0f86e5b48e01b996cadc001622fb5e363b4218080a00000000000000000000000000000000000000000000000000000000000000000c0c0c0",
        "blocks": [
            {
                "blockHeader": {
                    "parentHash": "0xa6b97c605721a39925471fa052e72c846b36c5ba94af8fd3b27e703cc00eb922",
                    "uncleHash": "0x1dcc4de8dec75d7aab85b567b6ccd41ad312451b948a7413f0a142fd40d49347",
                    "coinbase": "0x2adc25665018aa1fe0e6bc666dac8fc2697ff9ba",
                    "stateRoot": "0x7838aea5a330e28e8fd09a37833ee54facd69596bc4d22a29f29d338b851b3af",
                    "transactionsTrie": "0x2d6a61861414c3d90d0ba0fbc224ac911d8584e9ea65e45f616a56f332c5d395",
                    "receiptTrie": "0x1529db36c08a4399e2ecee2ac2b106666bd6550d90d954a6c8d68a3a2e6669c6",
                    "bloom": "0x00000000000000000000000000000000000000000000000000000000000000000000000000000000000000000000000000000000000000000000000000000000000000000000000000000000000000000000000000000000000000000000000000000000000000000000000000000000000000000000000000000000000000000000000000000000000000000000000000000000000000000000000000000000000000000000000000000000000000000000000000000000000000000000000000000000000000000000000000000000000000000000000000000000000000000000000000000000000000000000000000000000000000000000000000000000",
                    "difficulty": "0x00",
                    "number": "0x01",
                    "gasLimit": "0x01c9c380",
                    "gasUsed": "0x03052d",
                    "timestamp": "0x03e8",
                    "extraData": "0x00",
                    "mixHash": "0x0000000000000000000000000000000000000000000000000000000000020000",
                    "nonce": "0x0000000000000000",
                    "baseFeePerGas": "0x0a",
                    "withdrawalsRoot": "0x56e81f171bcc55a6ff8345e692c0f86e5b48e01b996cadc001622fb5e363b421",
                    "blobGasUsed": "0x00",
                    "excessBlobGas": "0x00",
                    "parentBeaconBlockRoot": "0x0000000000000000000000000000000000000000000000000000000000000000",
                    "hash": "0xbbd7dda7704429d94226a0ebea06ebbaff17b7b8ebed1100fc1341b1f5a8cd69"
                },
                "transactions": [
                    {
                        "type": "0x00",
                        "chainId": "0x01",
                        "nonce": "0x00",
                        "gasPrice": "0x0a",
                        "gasLimit": "0x2dc6c0",
                        "to": "0x9e10a6afffcf5bba3b47582f2575d787016a56ca",
                        "value": "0x00",
                        "data": "0x",
                        "v": "0x26",
                        "r": "0x8133d533a3707fb8f648a1bbf871d37e1a1e3191c90bf977996fb9ba9a87f87a",
                        "s": "0x313f25c7038352fc788ab97ea3285d2e15c268db09d05c324ef0711a5e009a33",
                        "sender": "0xebaf50debf10e08302fe4280c32df010463ca297"
                    }
                ],
                "uncleHeaders": [],
                "withdrawals": [],
                "receipts": [
                    {
                        "transactionHash": "0xbda43336d5ecb7c4b6d094f9eceb874b11a368b29c4cea2fde39018ada0916ca",
                        "type": "0x00",
                        "cumulativeGasUsed": "0x03052d",
                        "bloom": "0x00000000000000000000000000000000000000000000000000000000000000000000000000000000000000000000000000000000000000000000000000000000000000000000000000000000000000000000000000000000000000000000000000000000000000000000000000000000000000000000000000000000000000000000000000000000000000000000000000000000000000000000000000000000000000000000000000000000000000000000000000000000000000000000000000000000000000000000000000000000000000000000000000000000000000000000000000000000000000000000000000000000000000000000000000000000",
                        "logs": [],
                        "status": true,
                        "rlp": "0xf90109018303052db9010000000000000000000000000000000000000000000000000000000000000000000000000000000000000000000000000000000000000000000000000000000000000000000000000000000000000000000000000000000000000000000000000000000000000000000000000000000000000000000000000000000000000000000000000000000000000000000000000000000000000000000000000000000000000000000000000000000000000000000000000000000000000000000000000000000000000000000000000000000000000000000000000000000000000000000000000000000000000000000000000000000000000000000000000000000000c0"
                    }
                ],
                "rlp": "0xf902a4f9023ba0a6b97c605721a39925471fa052e72c846b36c5ba94af8fd3b27e703cc00eb922a01dcc4de8dec75d7aab85b567b6ccd41ad312451b948a7413f0a142fd40d49347942adc25665018aa1fe0e6bc666dac8fc2697ff9baa07838aea5a330e28e8fd09a37833ee54facd69596bc4d22a29f29d338b851b3afa02d6a61861414c3d90d0ba0fbc224ac911d8584e9ea65e45f616a56f332c5d395a01529db36c08a4399e2ecee2ac2b106666bd6550d90d954a6c8d68a3a2e6669c6b901000000000000000000000000000000000000000000000000000000000000000000000000000000000000000000000000000000000000000000000000000000000000000000000000000000000000000000000000000000000000000000000000000000000000000000000000000000000000000000000000000000000000000000000000000000000000000000000000000000000000000000000000000000000000000000000000000000000000000000000000000000000000000000000000000000000000000000000000000000000000000000000000000000000000000000000000000000000000000000000000000000000000000000000000000000000080018401c9c3808303052d8203e800a000000000000000000000000000000000000000000000000000000000000200008800000000000000000aa056e81f171bcc55a6ff8345e692c0f86e5b48e01b996cadc001622fb5e363b4218080a00000000000000000000000000000000000000000000000000000000000000000f862f860800a832dc6c0949e10a6afffcf5bba3b47582f2575d787016a56ca808026a08133d533a3707fb8f648a1bbf871d37e1a1e3191c90bf977996fb9ba9a87f87aa0313f25c7038352fc788ab97ea3285d2e15c268db09d05c324ef0711a5e009a33c0c0",
                "blocknumber": "1"
            }
        ],
        "sealEngine": "NoProof",
        "_info": {
            "hash": "0xe42cbbeea0a0d57d2a3f46b9872f5aef62046a35cead594c3065f6a72ad863eb",
            "fixture-format": "blockchain_test",
            "comment": "`execution-specs` generated test",
            "filling-transition-tool": "2.19.0",
            "description": "Test_static_callcallcode_01_suicide_end2.",
            "url": "https://github.com/ethereum/execution-specs/blob/tests-bal@v5.6.1/tests/ported_static/stStaticCall/test_static_callcallcode_01_suicide_end2.py#L25",
            "metadata": {
                "opcode_count": {}
            }
        }
    }
}