{
    "tests/ported_static/stCallDelegateCodesCallCodeHomestead/test_callcallcodecallcode_abcb_recursive.py::test_callcallcodecallcode_abcb_recursive[fork_Cancun-blockchain_test_from_state_test]": {
        "network": "Cancun",
        "genesisBlockHeader": {
            "parentHash": "0x0000000000000000000000000000000000000000000000000000000000000000",
            "uncleHash": "0x1dcc4de8dec75d7aab85b567b6ccd41ad312451b948a7413f0a142fd40d49347",
            "coinbase": "0x0000000000000000000000000000000000000000",
            "stateRoot": "0x58f5a2fb3edf64b48367181753dfe5b0fe88972eb8672b44bceb36eb62235dd3",
            "transactionsTrie": "0x56e81f171bcc55a6ff8345e692c0f86e5b48e01b996cadc001622fb5e363b421",
            "receiptTrie": "0x56e81f171bcc55a6ff8345e692c0f86e5b48e01b996cadc001622fb5e363b421",
            "bloom": "0x00000000000000000000000000000000000000000000000000000000000000000000000000000000000000000000000000000000000000000000000000000000000000000000000000000000000000000000000000000000000000000000000000000000000000000000000000000000000000000000000000000000000000000000000000000000000000000000000000000000000000000000000000000000000000000000000000000000000000000000000000000000000000000000000000000000000000000000000000000000000000000000000000000000000000000000000000000000000000000000000000000000000000000000000000000000",
            "difficulty": "0x00",
            "number": "0x00",
            "gasLimit": "0xb2d05e00",
            "gasUsed": "0x00",
            "timestamp": "0x00",
            "extraData": "0x00",
            "mixHash": "0x0000000000000000000000000000000000000000000000000000000000000000",
            "nonce": "0x0000000000000000",
            "baseFeePerGas": "0x0b",
            "withdrawalsRoot": "0x56e81f171bcc55a6ff8345e692c0f86e5b48e01b996cadc001622fb5e363b421",
            "blobGasUsed": "0x00",
            "excessBlobGas": "0x00",
            "parentBeaconBlockRoot": "0x0000000000000000000000000000000000000000000000000000000000000000",
            "hash": "0x977793577f7ba71ee4f6f5b298a6700d6c738f16ed46d11ba62daec96be773c5"
        },
        "pre": {
            "0x000f3df6d732807ef1319fb7b8bb8522d0beac02": {
                "nonce": "0x01",
                "balance": "0x00",
                "code": "0x3373fffffffffffffffffffffffffffffffffffffffe14604d57602036146024575f5ffd5b5f35801560495762001fff810690815414603c575f5ffd5b62001fff01545f5260205ff35b5f5ffd5b62001fff42064281555f359062001fff015500",
                "storage": {}
            },
            "0x6d477a21d3906d4c0cd1edbfa7d272e6e21f1ca1": {
                "nonce": "0x00",
                "balance": "0x0de0b6b3a7640000",
                "code": "0x6040600060406000600073e0b280638526cecd3ec29969b517aeb3fcbb31fa63017d7840f260005500",
                "storage": {}
            },
            "0xe0b280638526cecd3ec29969b517aeb3fcbb31fa": {
                "nonce": "0x00",
                "balance": "0x02540be400",
                "code": "0x604060006040600073a72f0e2f2fc5fd0878af9b8e4aaed09983670929620f4240f460015500",
                "storage": {}
            },
            "0xa72f0e2f2fc5fd0878af9b8e4aaed09983670929": {
                "nonce": "0x00",
                "balance": "0x02540be400",
                "code": "0x604060006040600073e0b280638526cecd3ec29969b517aeb3fcbb31fa6207a120f460025500",
                "storage": {}
            },
            "0xebaf50debf10e08302fe4280c32df010463ca297": {
                "nonce": "0x00",
                "balance": "0x0de0b6b3a7640000",
                "code": "0x",
                "storage": {}
            }
        },
        "postState": {
            "0x000f3df6d732807ef1319fb7b8bb8522d0beac02": {
                "nonce": "0x01",
                "balance": "0x00",
                "code": "0x3373fffffffffffffffffffffffffffffffffffffffe14604d57602036146024575f5ffd5b5f35801560495762001fff810690815414603c575f5ffd5b62001fff01545f5260205ff35b5f5ffd5b62001fff42064281555f359062001fff015500",
                "storage": {
                    "0x03e8": "0x03e8"
                }
            },
            "0x6d477a21d3906d4c0cd1edbfa7d272e6e21f1ca1": {
                "nonce": "0x00",
                "balance": "0x0de0b6b3a7640000",
                "code": "0x6040600060406000600073e0b280638526cecd3ec29969b517aeb3fcbb31fa63017d7840f260005500",
                "storage": {
                    "0x01": "0x01",
                    "0x00": "0x01"
                }
            },
            "0xe0b280638526cecd3ec29969b517aeb3fcbb31fa": {
                "nonce": "0x00",
                "balance": "0x02540be400",
                "code": "0x604060006040600073a72f0e2f2fc5fd0878af9b8e4aaed09983670929620f4240f460015500",
                "storage": {}
            },
            "0xa72f0e2f2fc5fd0878af9b8e4aaed09983670929": {
                "nonce": "0x00",
                "balance": "0x02540be400",
                "code": "0x604060006040600073e0b280638526cecd3ec29969b517aeb3fcbb31fa6207a120f460025500",
                "storage": {}
            },
            "0xebaf50debf10e08302fe4280c32df010463ca297": {
                "nonce": "0x01",
                "balance": "0x0de0b6b3a70c99a0",
                "code": "0x",
                "storage": {}
            }
        },
        "lastblockhash": "0x5be4ae10bd2b7ded3af378a1a5986491150f77ee3d914618df4d513efb1bf95b",
        "config": {
            "network": "Cancun",
            "chainid": "0x01",
            "blobSchedule": {
                "Cancun": {
                    "target": "0x03",
                    "max": "0x06",
                    "baseFeeUpdateFraction": "0x32f0ed"
                }
            }
        },
        "genesisRLP": "0xf9023cf90236a00000000000000000000000000000000000000000000000000000000000000000a01dcc4de8dec75d7aab85b567b6ccd41ad312451b948a7413f0a142fd40d49347940000000000000000000000000000000000000000a058f5a2fb3edf64b48367181753dfe5b0fe88972eb8672b44bceb36eb62235dd3a056e81f171bcc55a6ff8345e692c0f86e5b48e01b996cadc001622fb5e363b421a056e81f171bcc55a6ff8345e692c0f86e5b48e01b996cadc001622fb5e363b421b9010000000000000000000000000000000000000000000000000000000000000000000000000000000000000000000000000000000000000000000000000000000000000000000000000000000000000000000000000000000000000000000000000000000000000000000000000000000000000000000000000000000000000000000000000000000000000000000000000000000000000000000000000000000000000000000000000000000000000000000000000000000000000000000000000000000000000000000000000000000000000000000000000000000000000000000000000000000000000000000000000000000000000000000000000000000000808084b2d05e00808000a000000000000000000000000000000000000000000000000000000000000000008800000000000000000ba056e81f171bcc55a6ff8345e692c0f86e5b48e01b996cadc001622fb5e363b4218080a00000000000000000000000000000000000000000000000000000000000000000c0c0c0",
        "blocks": [
            {
                "blockHeader": {
                    "parentHash": "0x977793577f7ba71ee4f6f5b298a6700d6c738f16ed46d11ba62daec96be773c5",
                    "uncleHash": "0x1dcc4de8dec75d7aab85b567b6ccd41ad312451b948a7413f0a142fd40d49347",
                    "coinbase": "0x2adc25665018aa1fe0e6bc666dac8fc2697ff9ba",
                    "stateRoot": "0x6aef7f82b99d62ac9b390257f0d12fbd7364e429ee51dea49f25e2a91b2b484e",
                    "transactionsTrie": "0x69c61e715fcaec227c7be47fce77aac7893638db4a65b9fd2e7c33743f3d5a5f",
                    "receiptTrie": "0x2cfdcc9f422af8df66fc27e6a5fac0806d619761e37db665ad7705be9a0fbef8",
                    "bloom": "0x00000000000000000000000000000000000000000000000000000000000000000000000000000000000000000000000000000000000000000000000000000000000000000000000000000000000000000000000000000000000000000000000000000000000000000000000000000000000000000000000000000000000000000000000000000000000000000000000000000000000000000000000000000000000000000000000000000000000000000000000000000000000000000000000000000000000000000000000000000000000000000000000000000000000000000000000000000000000000000000000000000000000000000000000000000000",
                    "difficulty": "0x00",
                    "number": "0x01",
                    "gasLimit": "0xb2d05e00",
                    "gasUsed": "0x08bd70",
                    "timestamp": "0x03e8",
                    "extraData": "0x00",
                    "mixHash": "0x0000000000000000000000000000000000000000000000000000000000020000",
                    "nonce": "0x0000000000000000",
                    "baseFeePerGas": "0x0a",
                    "withdrawalsRoot": "0x56e81f171bcc55a6ff8345e692c0f86e5b48e01b996cadc001622fb5e363b421",
                    "blobGasUsed": "0x00",
                    "excessBlobGas": "0x00",
                    "parentBeaconBlockRoot": "0x0000000000000000000000000000000000000000000000000000000000000000",
                    "hash": "0x5be4ae10bd2b7ded3af378a1a5986491150f77ee3d914618df4d513efb1bf95b"
                },
                "transactions": [
                    {
                        "type": "0x00",
                        "chainId": "0x01",
                        "nonce": "0x00",
                        "gasPrice": "0x0a",
                        "gasLimit": "0x0927c0",
                        "to": "0x6d477a21d3906d4c0cd1edbfa7d272e6e21f1ca1",
                        "value": "0x00",
                        "data": "0x",
                        "v": "0x25",
                        "r": "0xb2e4172c397446edf4e11162b58af2c9cf94f5384d779864ee6fabba1dd3b72d",
                        "s": "0x4d2f83ba32ef59aae4e863e3279470349a92e2ca88c22f9cb666ba00a981576c",
                        "sender": "0xebaf50debf10e08302fe4280c32df010463ca297"
                    }
                ],
                "uncleHeaders": [],
                "withdrawals": [],
                "receipts": [
                    {
                        "transactionHash": "0x014eb933cdb4e4c492e40eddc7912042ed8372f95441a202d8f08546105567b6",
                        "type": "0x00",
                        "cumulativeGasUsed": "0x08bd70",
                        "bloom": "0x00000000000000000000000000000000000000000000000000000000000000000000000000000000000000000000000000000000000000000000000000000000000000000000000000000000000000000000000000000000000000000000000000000000000000000000000000000000000000000000000000000000000000000000000000000000000000000000000000000000000000000000000000000000000000000000000000000000000000000000000000000000000000000000000000000000000000000000000000000000000000000000000000000000000000000000000000000000000000000000000000000000000000000000000000000000",
                        "logs": [],
                        "status": true,
                        "rlp": "0xf90109018308bd70b9010000000000000000000000000000000000000000000000000000000000000000000000000000000000000000000000000000000000000000000000000000000000000000000000000000000000000000000000000000000000000000000000000000000000000000000000000000000000000000000000000000000000000000000000000000000000000000000000000000000000000000000000000000000000000000000000000000000000000000000000000000000000000000000000000000000000000000000000000000000000000000000000000000000000000000000000000000000000000000000000000000000000000000000000000000000000c0"
                    }
                ],
                "rlp": "0xf902a4f9023ba0977793577f7ba71ee4f6f5b298a6700d6c738f16ed46d11ba62daec96be773c5a01dcc4de8dec75d7aab85b567b6ccd41ad312451b948a7413f0a142fd40d49347942adc25665018aa1fe0e6bc666dac8fc2697ff9baa06aef7f82b99d62ac9b390257f0d12fbd7364e429ee51dea49f25e2a91b2b484ea069c61e715fcaec227c7be47fce77aac7893638db4a65b9fd2e7c33743f3d5a5fa02cfdcc9f422af8df66fc27e6a5fac0806d619761e37db665ad7705be9a0fbef8b9010000000000000000000000000000000000000000000000000000000000000000000000000000000000000000000000000000000000000000000000000000000000000000000000000000000000000000000000000000000000000000000000000000000000000000000000000000000000000000000000000000000000000000000000000000000000000000000000000000000000000000000000000000000000000000000000000000000000000000000000000000000000000000000000000000000000000000000000000000000000000000000000000000000000000000000000000000000000000000000000000000000000000000000000000000000000800184b2d05e008308bd708203e800a000000000000000000000000000000000000000000000000000000000000200008800000000000000000aa056e81f171bcc55a6ff8345e692c0f86e5b48e01b996cadc001622fb5e363b4218080a00000000000000000000000000000000000000000000000000000000000000000f862f860800a830927c0946d477a21d3906d4c0cd1edbfa7d272e6e21f1ca1808025a0b2e4172c397446edf4e11162b58af2c9cf94f5384d779864ee6fabba1dd3b72da04d2f83ba32ef59aae4e863e3279470349a92e2ca88c22f9cb666ba00a981576cc0c0",
                "blocknumber": "1"
            }
        ],
        "sealEngine": "NoProof",
        "_info": {
            "hash": "0x4b091e8e4eb532840b6eb90429713255b830298a874872d27dd70511cee9b3f0",
            "fixture-format": "blockchain_test",
            "comment": "`execution-specs` generated test",
            "filling-transition-tool": "2.19.0",
            "description": "CALLCODE -> DELEGATECALL1 -> DELEGATECALL2 -> DELEGATECALL1 -> .",
            "url": "https://github.com/ethereum/execution-specs/blob/tests-bal@v5.6.1/tests/ported_static/stCallDelegateCodesCallCodeHomestead/test_callcallcodecallcode_abcb_recursive.py#L27",
            "metadata": {
                "opcode_count": {}
            }
        }
    }
}