{
    "tests/ported_static/stCallDelegateCodesCallCodeHomestead/test_callcallcodecallcode_abcb_recursive.py::test_callcallcodecallcode_abcb_recursive[fork_Cancun-blockchain_test_from_state_test]": {
        "network": "Cancun",
        "genesisBlockHeader": {
            "parentHash": "0x0000000000000000000000000000000000000000000000000000000000000000",
            "uncleHash": "0x1dcc4de8dec75d7aab85b567b6ccd41ad312451b948a7413f0a142fd40d49347",
            "coinbase": "0x0000000000000000000000000000000000000000",
            "stateRoot": "0x7a7662c54fc02e8a236df0b7e01828cf88400b37f1a0f47b2451c0029ed48ffd",
            "transactionsTrie": "0x56e81f171bcc55a6ff8345e692c0f86e5b48e01b996cadc001622fb5e363b421",
            "receiptTrie": "0x56e81f171bcc55a6ff8345e692c0f86e5b48e01b996cadc001622fb5e363b421",
            "bloom": "0x00000000000000000000000000000000000000000000000000000000000000000000000000000000000000000000000000000000000000000000000000000000000000000000000000000000000000000000000000000000000000000000000000000000000000000000000000000000000000000000000000000000000000000000000000000000000000000000000000000000000000000000000000000000000000000000000000000000000000000000000000000000000000000000000000000000000000000000000000000000000000000000000000000000000000000000000000000000000000000000000000000000000000000000000000000000",
            "difficulty": "0x00",
            "number": "0x00",
            "gasLimit": "0x07270e00",
            "gasUsed": "0x00",
            "timestamp": "0x00",
            "extraData": "0x00",
            "mixHash": "0x0000000000000000000000000000000000000000000000000000000000000000",
            "nonce": "0x0000000000000000",
            "baseFeePerGas": "0x0b",
            "withdrawalsRoot": "0x56e81f171bcc55a6ff8345e692c0f86e5b48e01b996cadc001622fb5e363b421",
            "blobGasUsed": "0x00",
            "excessBlobGas": "0x00",
            "parentBeaconBlockRoot": "0x0000000000000000000000000000000000000000000000000000000000000000",
            "hash": "0xf20350d8be665f47d7e33558b8cf481248b00ffbb0efb04a35458797efad0c80"
        },
        "pre": {
            "0x000f3df6d732807ef1319fb7b8bb8522d0beac02": {
                "nonce": "0x01",
                "balance": "0x00",
                "code": "0x3373fffffffffffffffffffffffffffffffffffffffe14604d57602036146024575f5ffd5b5f35801560495762001fff810690815414603c575f5ffd5b62001fff01545f5260205ff35b5f5ffd5b62001fff42064281555f359062001fff015500",
                "storage": {}
            },
            "0xd66f224cbd2fabb21b17bb53c56118f32f62ebd6": {
                "nonce": "0x00",
                "balance": "0x0de0b6b3a7640000",
                "code": "0x",
                "storage": {}
            },
            "0x6d477a21d3906d4c0cd1edbfa7d272e6e21f1ca1": {
                "nonce": "0x00",
                "balance": "0x0de0b6b3a7640000",
                "code": "0x6040600060406000600073e0b280638526cecd3ec29969b517aeb3fcbb31fa63017d7840f260005500",
                "storage": {}
            },
            "0xe0b280638526cecd3ec29969b517aeb3fcbb31fa": {
                "nonce": "0x00",
                "balance": "0x02540be400",
                "code": "0x604060006040600073a72f0e2f2fc5fd0878af9b8e4aaed09983670929620f4240f460015500",
                "storage": {}
            },
            "0xa72f0e2f2fc5fd0878af9b8e4aaed09983670929": {
                "nonce": "0x00",
                "balance": "0x02540be400",
                "code": "0x604060006040600073e0b280638526cecd3ec29969b517aeb3fcbb31fa6207a120f460025500",
                "storage": {}
            }
        },
        "postState": {
            "0x000f3df6d732807ef1319fb7b8bb8522d0beac02": {
                "nonce": "0x01",
                "balance": "0x00",
                "code": "0x3373fffffffffffffffffffffffffffffffffffffffe14604d57602036146024575f5ffd5b5f35801560495762001fff810690815414603c575f5ffd5b62001fff01545f5260205ff35b5f5ffd5b62001fff42064281555f359062001fff015500",
                "storage": {
                    "0x03e8": "0x03e8"
                }
            },
            "0xd66f224cbd2fabb21b17bb53c56118f32f62ebd6": {
                "nonce": "0x01",
                "balance": "0x0de0b6b3a70c99a0",
                "code": "0x",
                "storage": {}
            },
            "0x6d477a21d3906d4c0cd1edbfa7d272e6e21f1ca1": {
                "nonce": "0x00",
                "balance": "0x0de0b6b3a7640000",
                "code": "0x6040600060406000600073e0b280638526cecd3ec29969b517aeb3fcbb31fa63017d7840f260005500",
                "storage": {
                    "0x01": "0x01",
                    "0x00": "0x01"
                }
            },
            "0xe0b280638526cecd3ec29969b517aeb3fcbb31fa": {
                "nonce": "0x00",
                "balance": "0x02540be400",
                "code": "0x604060006040600073a72f0e2f2fc5fd0878af9b8e4aaed09983670929620f4240f460015500",
                "storage": {}
            },
            "0xa72f0e2f2fc5fd0878af9b8e4aaed09983670929": {
                "nonce": "0x00",
                "balance": "0x02540be400",
                "code": "0x604060006040600073e0b280638526cecd3ec29969b517aeb3fcbb31fa6207a120f460025500",
                "storage": {}
            }
        },
        "lastblockhash": "0x459e7bdca1d9f47be7a0a374e82fd65bd46e4f705ac747f5948e7d6a1bc628b5",
        "config": {
            "network": "Cancun",
            "chainid": "0x01",
            "blobSchedule": {
                "Cancun": {
                    "target": "0x03",
                    "max": "0x06",
                    "baseFeeUpdateFraction": "0x32f0ed"
                }
            }
        },
        "genesisRLP": "0xf9023cf90236a00000000000000000000000000000000000000000000000000000000000000000a01dcc4de8dec75d7aab85b567b6ccd41ad312451b948a7413f0a142fd40d49347940000000000000000000000000000000000000000a07a7662c54fc02e8a236df0b7e01828cf88400b37f1a0f47b2451c0029ed48ffda056e81f171bcc55a6ff8345e692c0f86e5b48e01b996cadc001622fb5e363b421a056e81f171bcc55a6ff8345e692c0f86e5b48e01b996cadc001622fb5e363b421b901000000000000000000000000000000000000000000000000000000000000000000000000000000000000000000000000000000000000000000000000000000000000000000000000000000000000000000000000000000000000000000000000000000000000000000000000000000000000000000000000000000000000000000000000000000000000000000000000000000000000000000000000000000000000000000000000000000000000000000000000000000000000000000000000000000000000000000000000000000000000000000000000000000000000000000000000000000000000000000000000000000000000000000000000000000000080808407270e00808000a000000000000000000000000000000000000000000000000000000000000000008800000000000000000ba056e81f171bcc55a6ff8345e692c0f86e5b48e01b996cadc001622fb5e363b4218080a00000000000000000000000000000000000000000000000000000000000000000c0c0c0",
        "blocks": [
            {
                "blockHeader": {
                    "parentHash": "0xf20350d8be665f47d7e33558b8cf481248b00ffbb0efb04a35458797efad0c80",
                    "uncleHash": "0x1dcc4de8dec75d7aab85b567b6ccd41ad312451b948a7413f0a142fd40d49347",
                    "coinbase": "0x2adc25665018aa1fe0e6bc666dac8fc2697ff9ba",
                    "stateRoot": "0xb908baf46444ceb98e46e263c8e994c6d884efd3b75c9180e45e8c9e0a989e4b",
                    "transactionsTrie": "0x2fa2e0afa4f805117e6266cf04bcc4d4d46c824631dba64e5b50c9e994fd4f70",
                    "receiptTrie": "0x2cfdcc9f422af8df66fc27e6a5fac0806d619761e37db665ad7705be9a0fbef8",
                    "bloom": "0x00000000000000000000000000000000000000000000000000000000000000000000000000000000000000000000000000000000000000000000000000000000000000000000000000000000000000000000000000000000000000000000000000000000000000000000000000000000000000000000000000000000000000000000000000000000000000000000000000000000000000000000000000000000000000000000000000000000000000000000000000000000000000000000000000000000000000000000000000000000000000000000000000000000000000000000000000000000000000000000000000000000000000000000000000000000",
                    "difficulty": "0x00",
                    "number": "0x01",
                    "gasLimit": "0x07270e00",
                    "gasUsed": "0x08bd70",
                    "timestamp": "0x03e8",
                    "extraData": "0x00",
                    "mixHash": "0x0000000000000000000000000000000000000000000000000000000000020000",
                    "nonce": "0x0000000000000000",
                    "baseFeePerGas": "0x0a",
                    "withdrawalsRoot": "0x56e81f171bcc55a6ff8345e692c0f86e5b48e01b996cadc001622fb5e363b421",
                    "blobGasUsed": "0x00",
                    "excessBlobGas": "0x00",
                    "parentBeaconBlockRoot": "0x0000000000000000000000000000000000000000000000000000000000000000",
                    "hash": "0x459e7bdca1d9f47be7a0a374e82fd65bd46e4f705ac747f5948e7d6a1bc628b5"
                },
                "transactions": [
                    {
                        "type": "0x00",
                        "chainId": "0x01",
                        "nonce": "0x00",
                        "gasPrice": "0x0a",
                        "gasLimit": "0x0927c0",
                        "to": "0x6d477a21d3906d4c0cd1edbfa7d272e6e21f1ca1",
                        "value": "0x00",
                        "data": "0x",
                        "v": "0x25",
                        "r": "0x3a76a16cb35851d49873d5bd5830156783f5db7cb995a80eaa4ea911aa3da478",
                        "s": "0x1314afced06e0c434d1451f054124ed65e823df6e855e93dff97cc8d94775bae",
                        "sender": "0xd66f224cbd2fabb21b17bb53c56118f32f62ebd6"
                    }
                ],
                "uncleHeaders": [],
                "withdrawals": [],
                "receipts": [
                    {
                        "transactionHash": "0x66c9d8aa9ab088dc1dee06bee9254734725ce6f7e35d05d4da4a8b821d0efb0f",
                        "type": "0x00",
                        "cumulativeGasUsed": "0x08bd70",
                        "bloom": "0x00000000000000000000000000000000000000000000000000000000000000000000000000000000000000000000000000000000000000000000000000000000000000000000000000000000000000000000000000000000000000000000000000000000000000000000000000000000000000000000000000000000000000000000000000000000000000000000000000000000000000000000000000000000000000000000000000000000000000000000000000000000000000000000000000000000000000000000000000000000000000000000000000000000000000000000000000000000000000000000000000000000000000000000000000000000",
                        "logs": [],
                        "status": true,
                        "rlp": "0xf90109018308bd70b9010000000000000000000000000000000000000000000000000000000000000000000000000000000000000000000000000000000000000000000000000000000000000000000000000000000000000000000000000000000000000000000000000000000000000000000000000000000000000000000000000000000000000000000000000000000000000000000000000000000000000000000000000000000000000000000000000000000000000000000000000000000000000000000000000000000000000000000000000000000000000000000000000000000000000000000000000000000000000000000000000000000000000000000000000000000000c0"
                    }
                ],
                "rlp": "0xf902a4f9023ba0f20350d8be665f47d7e33558b8cf481248b00ffbb0efb04a35458797efad0c80a01dcc4de8dec75d7aab85b567b6ccd41ad312451b948a7413f0a142fd40d49347942adc25665018aa1fe0e6bc666dac8fc2697ff9baa0b908baf46444ceb98e46e263c8e994c6d884efd3b75c9180e45e8c9e0a989e4ba02fa2e0afa4f805117e6266cf04bcc4d4d46c824631dba64e5b50c9e994fd4f70a02cfdcc9f422af8df66fc27e6a5fac0806d619761e37db665ad7705be9a0fbef8b901000000000000000000000000000000000000000000000000000000000000000000000000000000000000000000000000000000000000000000000000000000000000000000000000000000000000000000000000000000000000000000000000000000000000000000000000000000000000000000000000000000000000000000000000000000000000000000000000000000000000000000000000000000000000000000000000000000000000000000000000000000000000000000000000000000000000000000000000000000000000000000000000000000000000000000000000000000000000000000000000000000000000000000000000000000000080018407270e008308bd708203e800a000000000000000000000000000000000000000000000000000000000000200008800000000000000000aa056e81f171bcc55a6ff8345e692c0f86e5b48e01b996cadc001622fb5e363b4218080a00000000000000000000000000000000000000000000000000000000000000000f862f860800a830927c0946d477a21d3906d4c0cd1edbfa7d272e6e21f1ca1808025a03a76a16cb35851d49873d5bd5830156783f5db7cb995a80eaa4ea911aa3da478a01314afced06e0c434d1451f054124ed65e823df6e855e93dff97cc8d94775baec0c0",
                "blocknumber": "1"
            }
        ],
        "sealEngine": "NoProof",
        "_info": {
            "hash": "0x943b0414a365e7833dd03b1bfac4a315546a1ce4d804ca98695eae9404dc2eef",
            "fixture-format": "blockchain_test",
            "comment": "`execution-specs` generated test",
            "filling-transition-tool": "2.19.0",
            "description": "CALLCODE -> DELEGATECALL1 -> DELEGATECALL2 -> DELEGATECALL1 -> .",
            "url": "https://github.com/ethereum/execution-specs/blob/tests-snobal-devnet-5@v8037.0.0/tests/ported_static/stCallDelegateCodesCallCodeHomestead/test_callcallcodecallcode_abcb_recursive.py#L26",
            "metadata": {
                "opcode_count": {}
            }
        }
    }
}