{
    "tests/berlin/eip2929_gas_cost_increases/test_create.py::test_create_nonce_overflow[fork_London-blockchain_test_from_state_test-CREATE2]": {
        "network": "London",
        "genesisBlockHeader": {
            "parentHash": "0x0000000000000000000000000000000000000000000000000000000000000000",
            "uncleHash": "0x1dcc4de8dec75d7aab85b567b6ccd41ad312451b948a7413f0a142fd40d49347",
            "coinbase": "0x0000000000000000000000000000000000000000",
            "stateRoot": "0x5b2de9e444e771715b9918ce11f5dbebc699999b63741afea8caa39036777318",
            "transactionsTrie": "0x56e81f171bcc55a6ff8345e692c0f86e5b48e01b996cadc001622fb5e363b421",
            "receiptTrie": "0x56e81f171bcc55a6ff8345e692c0f86e5b48e01b996cadc001622fb5e363b421",
            "bloom": "0x00000000000000000000000000000000000000000000000000000000000000000000000000000000000000000000000000000000000000000000000000000000000000000000000000000000000000000000000000000000000000000000000000000000000000000000000000000000000000000000000000000000000000000000000000000000000000000000000000000000000000000000000000000000000000000000000000000000000000000000000000000000000000000000000000000000000000000000000000000000000000000000000000000000000000000000000000000000000000000000000000000000000000000000000000000000",
            "difficulty": "0x020000",
            "number": "0x00",
            "gasLimit": "0x07270e00",
            "gasUsed": "0x00",
            "timestamp": "0x00",
            "extraData": "0x00",
            "mixHash": "0x0000000000000000000000000000000000000000000000000000000000000000",
            "nonce": "0x0000000000000000",
            "baseFeePerGas": "0x07",
            "hash": "0x233cbde99f4889404b54f618a33af79b72a74bd214dc459a78570bb4abb82792"
        },
        "pre": {
            "0x8f9f6585e447af5efd010f5bcf8e69c69779aee8": {
                "nonce": "0xffffffffffffffff",
                "balance": "0x00",
                "code": "0x7f00000000000000000000000000000000000000000000000000000000000000006000526000600160006000f5600055",
                "storage": {
                    "0x00": "0x01"
                }
            },
            "0xa3acfc552d6d071010b44f50ed51ee4ae9ae3b11": {
                "nonce": "0x01",
                "balance": "0x00",
                "code": "0x5a73872da38ae34b8ba68a5f4eda3128055dc4ffc8e9315a9050900360005a5a900301900360015500",
                "storage": {}
            },
            "0xb5ab262f971b599edcfbe2a029f4f172ccaa0b92": {
                "nonce": "0x01",
                "balance": "0x00",
                "code": "0x60006000600060006000738f9f6585e447af5efd010f5bcf8e69c69779aee85af16000600060006000600073a3acfc552d6d071010b44f50ed51ee4ae9ae3b115af100",
                "storage": {}
            },
            "0x1ad9bc24818784172ff393bb6f89f094d4d2ca29": {
                "nonce": "0x00",
                "balance": "0x3635c9adc5dea00000",
                "code": "0x",
                "storage": {}
            }
        },
        "postState": {
            "0x8f9f6585e447af5efd010f5bcf8e69c69779aee8": {
                "nonce": "0xffffffffffffffff",
                "balance": "0x00",
                "code": "0x7f00000000000000000000000000000000000000000000000000000000000000006000526000600160006000f5600055",
                "storage": {}
            },
            "0xa3acfc552d6d071010b44f50ed51ee4ae9ae3b11": {
                "nonce": "0x01",
                "balance": "0x00",
                "code": "0x5a73872da38ae34b8ba68a5f4eda3128055dc4ffc8e9315a9050900360005a5a900301900360015500",
                "storage": {
                    "0x01": "0x0a2b"
                }
            },
            "0xb5ab262f971b599edcfbe2a029f4f172ccaa0b92": {
                "nonce": "0x01",
                "balance": "0x00",
                "code": "0x60006000600060006000738f9f6585e447af5efd010f5bcf8e69c69779aee85af16000600060006000600073a3acfc552d6d071010b44f50ed51ee4ae9ae3b115af100",
                "storage": {}
            },
            "0x1ad9bc24818784172ff393bb6f89f094d4d2ca29": {
                "nonce": "0x01",
                "balance": "0x3635c9adc5de934d60",
                "code": "0x",
                "storage": {}
            },
            "0x2adc25665018aa1fe0e6bc666dac8fc2697ff9ba": {
                "nonce": "0x00",
                "balance": "0x1bc16d674ecbcf30",
                "code": "0x",
                "storage": {}
            }
        },
        "lastblockhash": "0xea16d5b4aa2dde6251c6bb5aa28b0a1f1881413f86b25921e720bc63a31f876a",
        "config": {
            "network": "London",
            "chainid": "0x01"
        },
        "genesisRLP": "0xf901faf901f5a00000000000000000000000000000000000000000000000000000000000000000a01dcc4de8dec75d7aab85b567b6ccd41ad312451b948a7413f0a142fd40d49347940000000000000000000000000000000000000000a05b2de9e444e771715b9918ce11f5dbebc699999b63741afea8caa39036777318a056e81f171bcc55a6ff8345e692c0f86e5b48e01b996cadc001622fb5e363b421a056e81f171bcc55a6ff8345e692c0f86e5b48e01b996cadc001622fb5e363b421b901000000000000000000000000000000000000000000000000000000000000000000000000000000000000000000000000000000000000000000000000000000000000000000000000000000000000000000000000000000000000000000000000000000000000000000000000000000000000000000000000000000000000000000000000000000000000000000000000000000000000000000000000000000000000000000000000000000000000000000000000000000000000000000000000000000000000000000000000000000000000000000000000000000000000000000000000000000000000000000000000000000000000000000000000000000000083020000808407270e00808000a0000000000000000000000000000000000000000000000000000000000000000088000000000000000007c0c0",
        "blocks": [
            {
                "blockHeader": {
                    "parentHash": "0x233cbde99f4889404b54f618a33af79b72a74bd214dc459a78570bb4abb82792",
                    "uncleHash": "0x1dcc4de8dec75d7aab85b567b6ccd41ad312451b948a7413f0a142fd40d49347",
                    "coinbase": "0x2adc25665018aa1fe0e6bc666dac8fc2697ff9ba",
                    "stateRoot": "0x255d9e10933151fe60038a629294c2d14eb8704d4dc7f12da96fc2859f9bb216",
                    "transactionsTrie": "0x95aefa3005dc54891f29b09d3dffcf4477b12c96fe9964675331d9544dd1c477",
                    "receiptTrie": "0xce7d43154f5ff2eac9a51bb029b721dc8866f78eb1dae67a82c66c95fa73695c",
                    "bloom": "0x00000000000000000000000000000000000000000000000000000000000000000000000000000000000000000000000000000000000000000000000000000000000000000000000000000000000000000000000000000000000000000000000000000000000000000000000000000000000000000000000000000000000000000000000000000000000000000000000000000000000000000000000000000000000000000000000000000000000000000000000000000000000000000000000000000000000000000000000000000000000000000000000000000000000000000000000000000000000000000000000000000000000000000000000000000000",
                    "difficulty": "0x020000",
                    "number": "0x01",
                    "gasLimit": "0x07270e00",
                    "gasUsed": "0x014510",
                    "timestamp": "0x03e8",
                    "extraData": "0x00",
                    "mixHash": "0x0000000000000000000000000000000000000000000000000000000000000000",
                    "nonce": "0x0000000000000000",
                    "baseFeePerGas": "0x07",
                    "hash": "0xea16d5b4aa2dde6251c6bb5aa28b0a1f1881413f86b25921e720bc63a31f876a"
                },
                "transactions": [
                    {
                        "type": "0x00",
                        "chainId": "0x01",
                        "nonce": "0x00",
                        "gasPrice": "0x0a",
                        "gasLimit": "0x0f4240",
                        "to": "0xb5ab262f971b599edcfbe2a029f4f172ccaa0b92",
                        "value": "0x00",
                        "data": "0x",
                        "v": "0x26",
                        "r": "0x08e4534485c8c4c8f77d9f18cd9945683ab588df71e357dec6c49a04a0afaf50",
                        "s": "0x34aa4fe26f5660ff14ab0e414fa9c8ef126c0b563eafc36f0ae93944df688257",
                        "sender": "0x1ad9bc24818784172ff393bb6f89f094d4d2ca29"
                    }
                ],
                "uncleHeaders": [],
                "receipts": [
                    {
                        "transactionHash": "0x6292daf1383b266d9743591ee80eea7e671046e66e7f75f09525cce19dfd7676",
                        "type": "0x00",
                        "cumulativeGasUsed": "0x014510",
                        "bloom": "0x00000000000000000000000000000000000000000000000000000000000000000000000000000000000000000000000000000000000000000000000000000000000000000000000000000000000000000000000000000000000000000000000000000000000000000000000000000000000000000000000000000000000000000000000000000000000000000000000000000000000000000000000000000000000000000000000000000000000000000000000000000000000000000000000000000000000000000000000000000000000000000000000000000000000000000000000000000000000000000000000000000000000000000000000000000000",
                        "logs": [],
                        "status": true,
                        "rlp": "0xf901090183014510b9010000000000000000000000000000000000000000000000000000000000000000000000000000000000000000000000000000000000000000000000000000000000000000000000000000000000000000000000000000000000000000000000000000000000000000000000000000000000000000000000000000000000000000000000000000000000000000000000000000000000000000000000000000000000000000000000000000000000000000000000000000000000000000000000000000000000000000000000000000000000000000000000000000000000000000000000000000000000000000000000000000000000000000000000000000000000c0"
                    }
                ],
                "rlp": "0xf90262f901faa0233cbde99f4889404b54f618a33af79b72a74bd214dc459a78570bb4abb82792a01dcc4de8dec75d7aab85b567b6ccd41ad312451b948a7413f0a142fd40d49347942adc25665018aa1fe0e6bc666dac8fc2697ff9baa0255d9e10933151fe60038a629294c2d14eb8704d4dc7f12da96fc2859f9bb216a095aefa3005dc54891f29b09d3dffcf4477b12c96fe9964675331d9544dd1c477a0ce7d43154f5ff2eac9a51bb029b721dc8866f78eb1dae67a82c66c95fa73695cb901000000000000000000000000000000000000000000000000000000000000000000000000000000000000000000000000000000000000000000000000000000000000000000000000000000000000000000000000000000000000000000000000000000000000000000000000000000000000000000000000000000000000000000000000000000000000000000000000000000000000000000000000000000000000000000000000000000000000000000000000000000000000000000000000000000000000000000000000000000000000000000000000000000000000000000000000000000000000000000000000000000000000000000000000000000000083020000018407270e00830145108203e800a0000000000000000000000000000000000000000000000000000000000000000088000000000000000007f862f860800a830f424094b5ab262f971b599edcfbe2a029f4f172ccaa0b92808026a008e4534485c8c4c8f77d9f18cd9945683ab588df71e357dec6c49a04a0afaf50a034aa4fe26f5660ff14ab0e414fa9c8ef126c0b563eafc36f0ae93944df688257c0",
                "blocknumber": "1"
            }
        ],
        "sealEngine": "NoProof",
        "_info": {
            "hash": "0x40a9eb0ec70cbcab2eefd682a3f67fb831b328579535a7dd56d600335447b8f7",
            "fixture-format": "blockchain_test",
            "comment": "`execution-specs` generated test",
            "filling-transition-tool": "2.19.0",
            "description": "Test that a failed CREATE/CREATE2 due to sender nonce overflow does not\nwarm the contract address.\n\nA creator contract with nonce 2^64-1 (max) attempts to create. The\ncreate aborts because the nonce cannot be incremented, and a subsequent\nBALANCE check verifies the would-be contract address remains cold.",
            "url": "https://github.com/ethereum/execution-specs/blob/tests-snobal-devnet-5@v8037.0.0/tests/berlin/eip2929_gas_cost_increases/test_create.py#L118",
            "metadata": {
                "opcode_count": {}
            },
            "reference-spec": "https://github.com/ethereum/EIPs/blob/master/EIPS/eip-2929.md",
            "reference-spec-version": "0e11417265a623adb680c527b15d0cb6701b870b"
        }
    },
    "tests/berlin/eip2929_gas_cost_increases/test_create.py::test_create_nonce_overflow[fork_London-blockchain_test_from_state_test-CREATE]": {
        "network": "London",
        "genesisBlockHeader": {
            "parentHash": "0x0000000000000000000000000000000000000000000000000000000000000000",
            "uncleHash": "0x1dcc4de8dec75d7aab85b567b6ccd41ad312451b948a7413f0a142fd40d49347",
            "coinbase": "0x0000000000000000000000000000000000000000",
            "stateRoot": "0xaf3be45ea496297ed0fed6491cf6e0778738c5e67610cd46674c80fec3c9fdd1",
            "transactionsTrie": "0x56e81f171bcc55a6ff8345e692c0f86e5b48e01b996cadc001622fb5e363b421",
            "receiptTrie": "0x56e81f171bcc55a6ff8345e692c0f86e5b48e01b996cadc001622fb5e363b421",
            "bloom": "0x00000000000000000000000000000000000000000000000000000000000000000000000000000000000000000000000000000000000000000000000000000000000000000000000000000000000000000000000000000000000000000000000000000000000000000000000000000000000000000000000000000000000000000000000000000000000000000000000000000000000000000000000000000000000000000000000000000000000000000000000000000000000000000000000000000000000000000000000000000000000000000000000000000000000000000000000000000000000000000000000000000000000000000000000000000000",
            "difficulty": "0x020000",
            "number": "0x00",
            "gasLimit": "0x07270e00",
            "gasUsed": "0x00",
            "timestamp": "0x00",
            "extraData": "0x00",
            "mixHash": "0x0000000000000000000000000000000000000000000000000000000000000000",
            "nonce": "0x0000000000000000",
            "baseFeePerGas": "0x07",
            "hash": "0xf471ac7caf99afa4e9da5994f7c7797bbaecea1aa8f73759a9bcb19832556778"
        },
        "pre": {
            "0x5dae8f229bacd95952b6ad3a116a875e5cfc3f12": {
                "nonce": "0xffffffffffffffff",
                "balance": "0x00",
                "code": "0x7f0000000000000000000000000000000000000000000000000000000000000000600052600160006000f0600055",
                "storage": {
                    "0x00": "0x01"
                }
            },
            "0xb83c5f1c3c57772a9561468fc0fd4969a6e87716": {
                "nonce": "0x01",
                "balance": "0x00",
                "code": "0x5a73300027f2c344851e0908d935fde804546f4c77e1315a9050900360005a5a900301900360015500",
                "storage": {}
            },
            "0x3580ebf06d092a0f891e0f34e46874fe660b3e60": {
                "nonce": "0x01",
                "balance": "0x00",
                "code": "0x60006000600060006000735dae8f229bacd95952b6ad3a116a875e5cfc3f125af16000600060006000600073b83c5f1c3c57772a9561468fc0fd4969a6e877165af100",
                "storage": {}
            },
            "0x1ad9bc24818784172ff393bb6f89f094d4d2ca29": {
                "nonce": "0x00",
                "balance": "0x3635c9adc5dea00000",
                "code": "0x",
                "storage": {}
            }
        },
        "postState": {
            "0x5dae8f229bacd95952b6ad3a116a875e5cfc3f12": {
                "nonce": "0xffffffffffffffff",
                "balance": "0x00",
                "code": "0x7f0000000000000000000000000000000000000000000000000000000000000000600052600160006000f0600055",
                "storage": {}
            },
            "0xb83c5f1c3c57772a9561468fc0fd4969a6e87716": {
                "nonce": "0x01",
                "balance": "0x00",
                "code": "0x5a73300027f2c344851e0908d935fde804546f4c77e1315a9050900360005a5a900301900360015500",
                "storage": {
                    "0x01": "0x0a2b"
                }
            },
            "0x3580ebf06d092a0f891e0f34e46874fe660b3e60": {
                "nonce": "0x01",
                "balance": "0x00",
                "code": "0x60006000600060006000735dae8f229bacd95952b6ad3a116a875e5cfc3f125af16000600060006000600073b83c5f1c3c57772a9561468fc0fd4969a6e877165af100",
                "storage": {}
            },
            "0x1ad9bc24818784172ff393bb6f89f094d4d2ca29": {
                "nonce": "0x01",
                "balance": "0x3635c9adc5de934dba",
                "code": "0x",
                "storage": {}
            },
            "0x2adc25665018aa1fe0e6bc666dac8fc2697ff9ba": {
                "nonce": "0x00",
                "balance": "0x1bc16d674ecbcf15",
                "code": "0x",
                "storage": {}
            }
        },
        "lastblockhash": "0xa7a15aab05fd66556ef2fa5689ac9e9f6d1dd76524e4616091a1545630d92166",
        "config": {
            "network": "London",
            "chainid": "0x01"
        },
        "genesisRLP": "0xf901faf901f5a00000000000000000000000000000000000000000000000000000000000000000a01dcc4de8dec75d7aab85b567b6ccd41ad312451b948a7413f0a142fd40d49347940000000000000000000000000000000000000000a0af3be45ea496297ed0fed6491cf6e0778738c5e67610cd46674c80fec3c9fdd1a056e81f171bcc55a6ff8345e692c0f86e5b48e01b996cadc001622fb5e363b421a056e81f171bcc55a6ff8345e692c0f86e5b48e01b996cadc001622fb5e363b421b901000000000000000000000000000000000000000000000000000000000000000000000000000000000000000000000000000000000000000000000000000000000000000000000000000000000000000000000000000000000000000000000000000000000000000000000000000000000000000000000000000000000000000000000000000000000000000000000000000000000000000000000000000000000000000000000000000000000000000000000000000000000000000000000000000000000000000000000000000000000000000000000000000000000000000000000000000000000000000000000000000000000000000000000000000000000083020000808407270e00808000a0000000000000000000000000000000000000000000000000000000000000000088000000000000000007c0c0",
        "blocks": [
            {
                "blockHeader": {
                    "parentHash": "0xf471ac7caf99afa4e9da5994f7c7797bbaecea1aa8f73759a9bcb19832556778",
                    "uncleHash": "0x1dcc4de8dec75d7aab85b567b6ccd41ad312451b948a7413f0a142fd40d49347",
                    "coinbase": "0x2adc25665018aa1fe0e6bc666dac8fc2697ff9ba",
                    "stateRoot": "0xc28a5f0258fc7c1ebfd14ee7857d0f70a5349c8151ac5954782d3863538b45dd",
                    "transactionsTrie": "0xe625ff83c8943878d9796bff0601eee678c85e1d132954e5e793c952f68c8370",
                    "receiptTrie": "0xee6f05c9d52655900b91e31b0c1ea150ebb3453e1f98053a1073da13a4d1ea3d",
                    "bloom": "0x00000000000000000000000000000000000000000000000000000000000000000000000000000000000000000000000000000000000000000000000000000000000000000000000000000000000000000000000000000000000000000000000000000000000000000000000000000000000000000000000000000000000000000000000000000000000000000000000000000000000000000000000000000000000000000000000000000000000000000000000000000000000000000000000000000000000000000000000000000000000000000000000000000000000000000000000000000000000000000000000000000000000000000000000000000000",
                    "difficulty": "0x020000",
                    "number": "0x01",
                    "gasLimit": "0x07270e00",
                    "gasUsed": "0x014507",
                    "timestamp": "0x03e8",
                    "extraData": "0x00",
                    "mixHash": "0x0000000000000000000000000000000000000000000000000000000000000000",
                    "nonce": "0x0000000000000000",
                    "baseFeePerGas": "0x07",
                    "hash": "0xa7a15aab05fd66556ef2fa5689ac9e9f6d1dd76524e4616091a1545630d92166"
                },
                "transactions": [
                    {
                        "type": "0x00",
                        "chainId": "0x01",
                        "nonce": "0x00",
                        "gasPrice": "0x0a",
                        "gasLimit": "0x0f4240",
                        "to": "0x3580ebf06d092a0f891e0f34e46874fe660b3e60",
                        "value": "0x00",
                        "data": "0x",
                        "v": "0x25",
                        "r": "0x47165651974f7028008160eca27c7b6555ddef46a4d0f63f4fd800cc29b6e3ea",
                        "s": "0x270f7865936f5666e5757a85920fbf6eedcb2a16ea64d8607a0bcc72c9599793",
                        "sender": "0x1ad9bc24818784172ff393bb6f89f094d4d2ca29"
                    }
                ],
                "uncleHeaders": [],
                "receipts": [
                    {
                        "transactionHash": "0xdb8e640b0a31fb8d61e7a76bcaea878d56dd8849bc7448655efb332447c3ed69",
                        "type": "0x00",
                        "cumulativeGasUsed": "0x014507",
                        "bloom": "0x00000000000000000000000000000000000000000000000000000000000000000000000000000000000000000000000000000000000000000000000000000000000000000000000000000000000000000000000000000000000000000000000000000000000000000000000000000000000000000000000000000000000000000000000000000000000000000000000000000000000000000000000000000000000000000000000000000000000000000000000000000000000000000000000000000000000000000000000000000000000000000000000000000000000000000000000000000000000000000000000000000000000000000000000000000000",
                        "logs": [],
                        "status": true,
                        "rlp": "0xf901090183014507b9010000000000000000000000000000000000000000000000000000000000000000000000000000000000000000000000000000000000000000000000000000000000000000000000000000000000000000000000000000000000000000000000000000000000000000000000000000000000000000000000000000000000000000000000000000000000000000000000000000000000000000000000000000000000000000000000000000000000000000000000000000000000000000000000000000000000000000000000000000000000000000000000000000000000000000000000000000000000000000000000000000000000000000000000000000000000c0"
                    }
                ],
                "rlp": "0xf90262f901faa0f471ac7caf99afa4e9da5994f7c7797bbaecea1aa8f73759a9bcb19832556778a01dcc4de8dec75d7aab85b567b6ccd41ad312451b948a7413f0a142fd40d49347942adc25665018aa1fe0e6bc666dac8fc2697ff9baa0c28a5f0258fc7c1ebfd14ee7857d0f70a5349c8151ac5954782d3863538b45dda0e625ff83c8943878d9796bff0601eee678c85e1d132954e5e793c952f68c8370a0ee6f05c9d52655900b91e31b0c1ea150ebb3453e1f98053a1073da13a4d1ea3db901000000000000000000000000000000000000000000000000000000000000000000000000000000000000000000000000000000000000000000000000000000000000000000000000000000000000000000000000000000000000000000000000000000000000000000000000000000000000000000000000000000000000000000000000000000000000000000000000000000000000000000000000000000000000000000000000000000000000000000000000000000000000000000000000000000000000000000000000000000000000000000000000000000000000000000000000000000000000000000000000000000000000000000000000000000000083020000018407270e00830145078203e800a0000000000000000000000000000000000000000000000000000000000000000088000000000000000007f862f860800a830f4240943580ebf06d092a0f891e0f34e46874fe660b3e60808025a047165651974f7028008160eca27c7b6555ddef46a4d0f63f4fd800cc29b6e3eaa0270f7865936f5666e5757a85920fbf6eedcb2a16ea64d8607a0bcc72c9599793c0",
                "blocknumber": "1"
            }
        ],
        "sealEngine": "NoProof",
        "_info": {
            "hash": "0x58043aed877c156282755cbe4e1c8d478ce0f9ff4faa1757f043f3aa9eb9b6d1",
            "fixture-format": "blockchain_test",
            "comment": "`execution-specs` generated test",
            "filling-transition-tool": "2.19.0",
            "description": "Test that a failed CREATE/CREATE2 due to sender nonce overflow does not\nwarm the contract address.\n\nA creator contract with nonce 2^64-1 (max) attempts to create. The\ncreate aborts because the nonce cannot be incremented, and a subsequent\nBALANCE check verifies the would-be contract address remains cold.",
            "url": "https://github.com/ethereum/execution-specs/blob/tests-snobal-devnet-5@v8037.0.0/tests/berlin/eip2929_gas_cost_increases/test_create.py#L118",
            "metadata": {
                "opcode_count": {}
            },
            "reference-spec": "https://github.com/ethereum/EIPs/blob/master/EIPS/eip-2929.md",
            "reference-spec-version": "0e11417265a623adb680c527b15d0cb6701b870b"
        }
    }
}