{
    "tests/ported_static/stWalletTest/test_multi_owned_change_owner_from_not_owner.py::test_multi_owned_change_owner_from_not_owner[fork_Cancun-blockchain_test_from_state_test]": {
        "network": "Cancun",
        "genesisBlockHeader": {
            "parentHash": "0x0000000000000000000000000000000000000000000000000000000000000000",
            "uncleHash": "0x1dcc4de8dec75d7aab85b567b6ccd41ad312451b948a7413f0a142fd40d49347",
            "coinbase": "0x0000000000000000000000000000000000000000",
            "stateRoot": "0x7bd6556ca1294255d2fc36050702cef92c64df7d1709d0ee201ed9c0d8192355",
            "transactionsTrie": "0x56e81f171bcc55a6ff8345e692c0f86e5b48e01b996cadc001622fb5e363b421",
            "receiptTrie": "0x56e81f171bcc55a6ff8345e692c0f86e5b48e01b996cadc001622fb5e363b421",
            "bloom": "0x00000000000000000000000000000000000000000000000000000000000000000000000000000000000000000000000000000000000000000000000000000000000000000000000000000000000000000000000000000000000000000000000000000000000000000000000000000000000000000000000000000000000000000000000000000000000000000000000000000000000000000000000000000000000000000000000000000000000000000000000000000000000000000000000000000000000000000000000000000000000000000000000000000000000000000000000000000000000000000000000000000000000000000000000000000000",
            "difficulty": "0x00",
            "number": "0x00",
            "gasLimit": "0x05f5e100",
            "gasUsed": "0x00",
            "timestamp": "0x00",
            "extraData": "0x00",
            "mixHash": "0x0000000000000000000000000000000000000000000000000000000000000000",
            "nonce": "0x0000000000000000",
            "baseFeePerGas": "0x0b",
            "withdrawalsRoot": "0x56e81f171bcc55a6ff8345e692c0f86e5b48e01b996cadc001622fb5e363b421",
            "blobGasUsed": "0x00",
            "excessBlobGas": "0x00",
            "parentBeaconBlockRoot": "0x0000000000000000000000000000000000000000000000000000000000000000",
            "hash": "0xbc1c492a9fbda1e32ba612c6c30c0803f2bbf19086dcd3fcb894be67a15c9d28"
        },
        "pre": {
            "0x000f3df6d732807ef1319fb7b8bb8522d0beac02": {
                "nonce": "0x01",
                "balance": "0x00",
                "code": "0x3373fffffffffffffffffffffffffffffffffffffffe14604d57602036146024575f5ffd5b5f35801560495762001fff810690815414603c575f5ffd5b62001fff01545f5260205ff35b5f5ffd5b62001fff42064281555f359062001fff015500",
                "storage": {}
            },
            "0xa94f5374fce5edbc8e2a8697c15331677e6ebf0b": {
                "nonce": "0x01",
                "balance": "0x0de0b6b3a75ef08f",
                "code": "0x",
                "storage": {}
            },
            "0x6295ee1b4f6dd65047762f924ecd367c17eabf8f": {
                "nonce": "0x00",
                "balance": "0x64",
                "code": "0x606060405236156100775760e060020a6000350463173825d981146100795780632f54bf6e146100d55780634123cb6b146100f95780637065cb4814610102578063746c917114610136578063b75c7dc61461013f578063ba51a6df1461016f578063c2cf7326146101a3578063f00d4b5d146101e3575b005b610077600435600060003643604051808484808284375050509091019081526040519081900360200190209050610529815b600160a060020a033316600090815261010260205260408120548180808381141561066f57610806565b61021c6004355b600160a060020a0316600090815261010260205260408120541190565b61021c60015481565b610077600435600036436040518084848082843750505090910190815260405190819003602001902090506104a1816100ab565b61021c60005481565b610077600435600160a060020a033316600090815261010260205260408120549080808381141561022e576102b0565b610077600435600036436040518084848082843750505090910190815260405190819003602001902090506105e8816100ab565b61021c600435602435600082815261010360209081526040808320600160a060020a03851684526101029092528220548290818181141561064157610665565b61007760043560243560006000364360405180848480828437505050909101908152604051908190036020019020905061033a816100ab565b60408051918252519081900360200190f35b5050506000828152610103602052604081206001810154600284900a92908316819011156102b05781546001838101805492909101845590849003905560408051600160a060020a03331681526020810187905281517fc7fb647e59b18047309aa15aad418e5d7ca96d173ad704f1031a2c3d7591734b929181900390910190a15b5050505050565b600160a060020a038316600283610100811015610002570155600160a060020a0384811660008181526101026020908152604080832083905593871680835291849020869055835192835282015281517fb532073b38c83145e3e5135377a08bf9aab55bc0fd7c1179cd4fb995d2a5159c929181900390910190a15b505b505050565b1561033357610348836100dc565b156103535750610335565b600160a060020a03841660009081526101026020526040812054925082141561037c5750610335565b6102b75b6101045460005b818110156107b557610104805482908110156100025760009182526000805160206108ea8339815191520154146103fa576101048054610103916000918490811015610002576000805160206108ea83398151915201548252506020919091526040812081815560018101829055600201555b600101610387565b60018054810190819055600160a060020a038316906002906101008110156100025790900160005081905550600160005054610102600050600084600160a060020a03168152602001908152602001600020600050819055507f994a936646fe87ffe4f1e469d3d6aa417d6b855598397f323de5b449f765f0c3826040518082600160a060020a0316815260200191505060405180910390a15b505b50565b1561049c576104af826100dc565b156104ba575061049e565b6104c2610380565b60015460fa90106104d7576104d56104ec565b505b60015460fa9010610402575061049e565b6105a65b600060015b6001548110156107ef575b6001548110801561051c5750600281610100811015610002570154600014155b1561080f576001016104fc565b1561033557600160a060020a038316600090815261010260205260408120549250821415610557575061049c565b6001600160005054036000600050541115610572575061049c565b600060028361010081101561000257508301819055600160a060020a038416815261010260205260408120556104e8610380565b5060408051600160a060020a038516815290517f58619076adf5bb0943d100ef88d52d7c3fd691b19d3a9071b555b651fbf418da9181900360200190a1505050565b1561049c576001548211156105fd575061049e565b600082905561060a610380565b6040805183815290517facbdb084c721332ac59f9b8e392196c9eb0e4932862da8eb9beaf0dad4f550da9181900360200190a15050565b506001830154600282900a908116600014156106605760009450610665565b600194505b5050505092915050565b60008681526101036020526040812080549094509092508214156106f85781548355600183810183905561010480549182018082558280158290116106c7578183600052602060002091820191016106c791906107db565b505050600284018190556101048054889290811015610002576000919091526000805160206108ea83398151915201555b506001820154600284900a908116600014156108065760408051600160a060020a03331681526020810188905281517fe1c52dc63b719ade82e8bea94cc41a0d5d28e4aaf536adb5e9cccc9ff8c1aeda929181900390910190a18254600190116107f35760008681526101036020526040902060020154610104805490919081101561000257604060009081206000805160206108ea83398151915292909201819055808255600180830182905560029092015595506108069050565b6101048054600080835591909152610335906000805160206108ea833981519152908101905b808211156107ef57600081556001016107db565b5090565b8254600019018355600183018054821790555b50505050919050565b5b6001805411801561083257506001546002906101008110156100025701546000145b156108465760018054600019019055610810565b600154811080156108695750600154600290610100811015610002570154600014155b801561088357506002816101008110156100025701546000145b156108e457600154600290610100811015610002578101549082610100811015610002578101919091558190610102906000908361010081101561000257810154825260209290925260408120929092556001546101008110156100025701555b6104f156004c0be60200faa20559308cb7b5a1bb3255c16cb1cab91f525b5ae7a03d02fabe",
                "storage": {
                    "0x00": "0x01",
                    "0x01": "0x01",
                    "0x03": "0xa94f5374fce5edbc8e2a8697c15331677e6ebf0b",
                    "0x6e369836487c234b9e553ef3f787c2d8865520739d340c67b3d251a33986e58d": "0x01"
                }
            }
        },
        "postState": {
            "0x000f3df6d732807ef1319fb7b8bb8522d0beac02": {
                "nonce": "0x01",
                "balance": "0x00",
                "code": "0x3373fffffffffffffffffffffffffffffffffffffffe14604d57602036146024575f5ffd5b5f35801560495762001fff810690815414603c575f5ffd5b62001fff01545f5260205ff35b5f5ffd5b62001fff42064281555f359062001fff015500",
                "storage": {
                    "0x03e8": "0x03e8"
                }
            },
            "0xa94f5374fce5edbc8e2a8697c15331677e6ebf0b": {
                "nonce": "0x02",
                "balance": "0x0de0b6b3a752192d",
                "code": "0x",
                "storage": {}
            },
            "0x6295ee1b4f6dd65047762f924ecd367c17eabf8f": {
                "nonce": "0x00",
                "balance": "0xc8",
                "code": "0x606060405236156100775760e060020a6000350463173825d981146100795780632f54bf6e146100d55780634123cb6b146100f95780637065cb4814610102578063746c917114610136578063b75c7dc61461013f578063ba51a6df1461016f578063c2cf7326146101a3578063f00d4b5d146101e3575b005b610077600435600060003643604051808484808284375050509091019081526040519081900360200190209050610529815b600160a060020a033316600090815261010260205260408120548180808381141561066f57610806565b61021c6004355b600160a060020a0316600090815261010260205260408120541190565b61021c60015481565b610077600435600036436040518084848082843750505090910190815260405190819003602001902090506104a1816100ab565b61021c60005481565b610077600435600160a060020a033316600090815261010260205260408120549080808381141561022e576102b0565b610077600435600036436040518084848082843750505090910190815260405190819003602001902090506105e8816100ab565b61021c600435602435600082815261010360209081526040808320600160a060020a03851684526101029092528220548290818181141561064157610665565b61007760043560243560006000364360405180848480828437505050909101908152604051908190036020019020905061033a816100ab565b60408051918252519081900360200190f35b5050506000828152610103602052604081206001810154600284900a92908316819011156102b05781546001838101805492909101845590849003905560408051600160a060020a03331681526020810187905281517fc7fb647e59b18047309aa15aad418e5d7ca96d173ad704f1031a2c3d7591734b929181900390910190a15b5050505050565b600160a060020a038316600283610100811015610002570155600160a060020a0384811660008181526101026020908152604080832083905593871680835291849020869055835192835282015281517fb532073b38c83145e3e5135377a08bf9aab55bc0fd7c1179cd4fb995d2a5159c929181900390910190a15b505b505050565b1561033357610348836100dc565b156103535750610335565b600160a060020a03841660009081526101026020526040812054925082141561037c5750610335565b6102b75b6101045460005b818110156107b557610104805482908110156100025760009182526000805160206108ea8339815191520154146103fa576101048054610103916000918490811015610002576000805160206108ea83398151915201548252506020919091526040812081815560018101829055600201555b600101610387565b60018054810190819055600160a060020a038316906002906101008110156100025790900160005081905550600160005054610102600050600084600160a060020a03168152602001908152602001600020600050819055507f994a936646fe87ffe4f1e469d3d6aa417d6b855598397f323de5b449f765f0c3826040518082600160a060020a0316815260200191505060405180910390a15b505b50565b1561049c576104af826100dc565b156104ba575061049e565b6104c2610380565b60015460fa90106104d7576104d56104ec565b505b60015460fa9010610402575061049e565b6105a65b600060015b6001548110156107ef575b6001548110801561051c5750600281610100811015610002570154600014155b1561080f576001016104fc565b1561033557600160a060020a038316600090815261010260205260408120549250821415610557575061049c565b6001600160005054036000600050541115610572575061049c565b600060028361010081101561000257508301819055600160a060020a038416815261010260205260408120556104e8610380565b5060408051600160a060020a038516815290517f58619076adf5bb0943d100ef88d52d7c3fd691b19d3a9071b555b651fbf418da9181900360200190a1505050565b1561049c576001548211156105fd575061049e565b600082905561060a610380565b6040805183815290517facbdb084c721332ac59f9b8e392196c9eb0e4932862da8eb9beaf0dad4f550da9181900360200190a15050565b506001830154600282900a908116600014156106605760009450610665565b600194505b5050505092915050565b60008681526101036020526040812080549094509092508214156106f85781548355600183810183905561010480549182018082558280158290116106c7578183600052602060002091820191016106c791906107db565b505050600284018190556101048054889290811015610002576000919091526000805160206108ea83398151915201555b506001820154600284900a908116600014156108065760408051600160a060020a03331681526020810188905281517fe1c52dc63b719ade82e8bea94cc41a0d5d28e4aaf536adb5e9cccc9ff8c1aeda929181900390910190a18254600190116107f35760008681526101036020526040902060020154610104805490919081101561000257604060009081206000805160206108ea83398151915292909201819055808255600180830182905560029092015595506108069050565b6101048054600080835591909152610335906000805160206108ea833981519152908101905b808211156107ef57600081556001016107db565b5090565b8254600019018355600183018054821790555b50505050919050565b5b6001805411801561083257506001546002906101008110156100025701546000145b156108465760018054600019019055610810565b600154811080156108695750600154600290610100811015610002570154600014155b801561088357506002816101008110156100025701546000145b156108e457600154600290610100811015610002578101549082610100811015610002578101919091558190610102906000908361010081101561000257810154825260209290925260408120929092556001546101008110156100025701555b6104f156004c0be60200faa20559308cb7b5a1bb3255c16cb1cab91f525b5ae7a03d02fabe",
                "storage": {
                    "0x00": "0x01",
                    "0x01": "0x01",
                    "0x03": "0xa94f5374fce5edbc8e2a8697c15331677e6ebf0b",
                    "0x6e369836487c234b9e553ef3f787c2d8865520739d340c67b3d251a33986e58d": "0x01",
                    "0x0104": "0x01"
                }
            }
        },
        "lastblockhash": "0x56945a73b95ad2d956dca430a50e1abe43e0d28cc783366d361f6aec085d8123",
        "config": {
            "network": "Cancun",
            "chainid": "0x01",
            "blobSchedule": {
                "Cancun": {
                    "target": "0x03",
                    "max": "0x06",
                    "baseFeeUpdateFraction": "0x32f0ed"
                }
            }
        },
        "genesisRLP": "0xf9023cf90236a00000000000000000000000000000000000000000000000000000000000000000a01dcc4de8dec75d7aab85b567b6ccd41ad312451b948a7413f0a142fd40d49347940000000000000000000000000000000000000000a07bd6556ca1294255d2fc36050702cef92c64df7d1709d0ee201ed9c0d8192355a056e81f171bcc55a6ff8345e692c0f86e5b48e01b996cadc001622fb5e363b421a056e81f171bcc55a6ff8345e692c0f86e5b48e01b996cadc001622fb5e363b421b901000000000000000000000000000000000000000000000000000000000000000000000000000000000000000000000000000000000000000000000000000000000000000000000000000000000000000000000000000000000000000000000000000000000000000000000000000000000000000000000000000000000000000000000000000000000000000000000000000000000000000000000000000000000000000000000000000000000000000000000000000000000000000000000000000000000000000000000000000000000000000000000000000000000000000000000000000000000000000000000000000000000000000000000000000000000080808405f5e100808000a000000000000000000000000000000000000000000000000000000000000000008800000000000000000ba056e81f171bcc55a6ff8345e692c0f86e5b48e01b996cadc001622fb5e363b4218080a00000000000000000000000000000000000000000000000000000000000000000c0c0c0",
        "blocks": [
            {
                "blockHeader": {
                    "parentHash": "0xbc1c492a9fbda1e32ba612c6c30c0803f2bbf19086dcd3fcb894be67a15c9d28",
                    "uncleHash": "0x1dcc4de8dec75d7aab85b567b6ccd41ad312451b948a7413f0a142fd40d49347",
                    "coinbase": "0x2adc25665018aa1fe0e6bc666dac8fc2697ff9ba",
                    "stateRoot": "0x9f5c1307d4a72d5be7814585bc26c10ae5276ac1bbc94c5dea85e0036237852f",
                    "transactionsTrie": "0xa3f0d3981b37346883a5c29a66cfc25d2df03cae06783e99df04dd5594c68d68",
                    "receiptTrie": "0x4ae02576e723359c0577145a00e6f3be1346fc0e1066bf58cbcf370f1cd1750f",
                    "bloom": "0x00000000000000000000000000000000000000000000000000020000000000000000000000000000000000000000000000000000000000000000000000000000000000000000000000000000000000000000000000000000000000000000000000000000000000000000000000000000000000000000000000000000000000000000000000000000000000000000400000000000000000000000000000000000002000000000000000000000000000000000000000000000000000000000000000000000000000000000000000000000000000000400000000800000000000000000000000000000000000000000000000000000000000040000000000000000",
                    "difficulty": "0x00",
                    "number": "0x01",
                    "gasLimit": "0x05f5e100",
                    "gasUsed": "0x0148b3",
                    "timestamp": "0x03e8",
                    "extraData": "0x00",
                    "mixHash": "0x0000000000000000000000000000000000000000000000000000000000020000",
                    "nonce": "0x0000000000000000",
                    "baseFeePerGas": "0x0a",
                    "withdrawalsRoot": "0x56e81f171bcc55a6ff8345e692c0f86e5b48e01b996cadc001622fb5e363b421",
                    "blobGasUsed": "0x00",
                    "excessBlobGas": "0x00",
                    "parentBeaconBlockRoot": "0x0000000000000000000000000000000000000000000000000000000000000000",
                    "hash": "0x56945a73b95ad2d956dca430a50e1abe43e0d28cc783366d361f6aec085d8123"
                },
                "transactions": [
                    {
                        "type": "0x00",
                        "chainId": "0x01",
                        "nonce": "0x01",
                        "gasPrice": "0x0a",
                        "gasLimit": "0x989680",
                        "to": "0x6295ee1b4f6dd65047762f924ecd367c17eabf8f",
                        "value": "0x64",
                        "data": "0xf00d4b5d000000000000000000000000b94f5374fce5edbc8e2a8697c15331677e6ebf0b000000000000000000000000aaaf5374fce5edbc8e2a8697c15331677e6ebaaa",
                        "v": "0x26",
                        "r": "0x696f3ce826408f2bc8f42a502ed9c5e5ecd1bcb91243421cbacff50664ce7708",
                        "s": "0x43fc5fc4c789de8168e1aa3b58f6310afb56ffde10ba3d1c0bcc0d2ee263fb31",
                        "sender": "0xa94f5374fce5edbc8e2a8697c15331677e6ebf0b"
                    }
                ],
                "uncleHeaders": [],
                "withdrawals": [],
                "receipts": [
                    {
                        "transactionHash": "0x7e882b7985f267668484210a3916e176b0ab1faf68c46ed8eec89a4f5d2edb83",
                        "type": "0x00",
                        "cumulativeGasUsed": "0x0148b3",
                        "bloom": "0x00000000000000000000000000000000000000000000000000020000000000000000000000000000000000000000000000000000000000000000000000000000000000000000000000000000000000000000000000000000000000000000000000000000000000000000000000000000000000000000000000000000000000000000000000000000000000000000400000000000000000000000000000000000002000000000000000000000000000000000000000000000000000000000000000000000000000000000000000000000000000000400000000800000000000000000000000000000000000000000000000000000000000040000000000000000",
                        "logs": [
                            {
                                "address": "0x6295ee1b4f6dd65047762f924ecd367c17eabf8f",
                                "topics": [
                                    "0xe1c52dc63b719ade82e8bea94cc41a0d5d28e4aaf536adb5e9cccc9ff8c1aeda"
                                ],
                                "data": "0x000000000000000000000000a94f5374fce5edbc8e2a8697c15331677e6ebf0bc7a851de94cfddbb7882a7e49c7b34796e0efc9f706344586e6a8b540e7e5ade"
                            }
                        ],
                        "status": true,
                        "rlp": "0xf9018501830148b3b9010000000000000000000000000000000000000000000000000000020000000000000000000000000000000000000000000000000000000000000000000000000000000000000000000000000000000000000000000000000000000000000000000000000000000000000000000000000000000000000000000000000000000000000000000000000000000000000000400000000000000000000000000000000000002000000000000000000000000000000000000000000000000000000000000000000000000000000000000000000000000000000400000000800000000000000000000000000000000000000000000000000000000000040000000000000000f87bf879946295ee1b4f6dd65047762f924ecd367c17eabf8fe1a0e1c52dc63b719ade82e8bea94cc41a0d5d28e4aaf536adb5e9cccc9ff8c1aedab840000000000000000000000000a94f5374fce5edbc8e2a8697c15331677e6ebf0bc7a851de94cfddbb7882a7e49c7b34796e0efc9f706344586e6a8b540e7e5ade"
                    }
                ],
                "rlp": "0xf902e9f9023ba0bc1c492a9fbda1e32ba612c6c30c0803f2bbf19086dcd3fcb894be67a15c9d28a01dcc4de8dec75d7aab85b567b6ccd41ad312451b948a7413f0a142fd40d49347942adc25665018aa1fe0e6bc666dac8fc2697ff9baa09f5c1307d4a72d5be7814585bc26c10ae5276ac1bbc94c5dea85e0036237852fa0a3f0d3981b37346883a5c29a66cfc25d2df03cae06783e99df04dd5594c68d68a04ae02576e723359c0577145a00e6f3be1346fc0e1066bf58cbcf370f1cd1750fb901000000000000000000000000000000000000000000000000000002000000000000000000000000000000000000000000000000000000000000000000000000000000000000000000000000000000000000000000000000000000000000000000000000000000000000000000000000000000000000000000000000000000000000000000000000000000000000000040000000000000000000000000000000000000200000000000000000000000000000000000000000000000000000000000000000000000000000000000000000000000000000040000000080000000000000000000000000000000000000000000000000000000000004000000000000000080018405f5e100830148b38203e800a000000000000000000000000000000000000000000000000000000000000200008800000000000000000aa056e81f171bcc55a6ff8345e692c0f86e5b48e01b996cadc001622fb5e363b4218080a00000000000000000000000000000000000000000000000000000000000000000f8a7f8a5010a83989680946295ee1b4f6dd65047762f924ecd367c17eabf8f64b844f00d4b5d000000000000000000000000b94f5374fce5edbc8e2a8697c15331677e6ebf0b000000000000000000000000aaaf5374fce5edbc8e2a8697c15331677e6ebaaa26a0696f3ce826408f2bc8f42a502ed9c5e5ecd1bcb91243421cbacff50664ce7708a043fc5fc4c789de8168e1aa3b58f6310afb56ffde10ba3d1c0bcc0d2ee263fb31c0c0",
                "blocknumber": "1"
            }
        ],
        "sealEngine": "NoProof",
        "_info": {
            "hash": "0xa559eacf17b4a96db09db8a75bb8f2aaf36d4c14bf1bf5a9be5b3f4775c830c2",
            "fixture-format": "blockchain_test",
            "comment": "`execution-specs` generated test",
            "filling-transition-tool": "2.19.0",
            "description": "Test_multi_owned_change_owner_from_not_owner.",
            "url": "https://github.com/ethereum/execution-specs/blob/tests-snobal-devnet-5@v8037.0.0/tests/ported_static/stWalletTest/test_multi_owned_change_owner_from_not_owner.py#L25",
            "metadata": {
                "opcode_count": {}
            }
        }
    }
}