{
    "tests/byzantium/eip197_ec_pairing/test_gas.py::test_gas_costs[fork_London-blockchain_test_from_state_test-enough_gas_False]": {
        "network": "London",
        "genesisBlockHeader": {
            "parentHash": "0x0000000000000000000000000000000000000000000000000000000000000000",
            "uncleHash": "0x1dcc4de8dec75d7aab85b567b6ccd41ad312451b948a7413f0a142fd40d49347",
            "coinbase": "0x0000000000000000000000000000000000000000",
            "stateRoot": "0x24405512c5b191dca4e538697595728745f9e0312eef1a08b53c8b00267cb50f",
            "transactionsTrie": "0x56e81f171bcc55a6ff8345e692c0f86e5b48e01b996cadc001622fb5e363b421",
            "receiptTrie": "0x56e81f171bcc55a6ff8345e692c0f86e5b48e01b996cadc001622fb5e363b421",
            "bloom": "0x00000000000000000000000000000000000000000000000000000000000000000000000000000000000000000000000000000000000000000000000000000000000000000000000000000000000000000000000000000000000000000000000000000000000000000000000000000000000000000000000000000000000000000000000000000000000000000000000000000000000000000000000000000000000000000000000000000000000000000000000000000000000000000000000000000000000000000000000000000000000000000000000000000000000000000000000000000000000000000000000000000000000000000000000000000000",
            "difficulty": "0x020000",
            "number": "0x00",
            "gasLimit": "0x07270e00",
            "gasUsed": "0x00",
            "timestamp": "0x00",
            "extraData": "0x00",
            "mixHash": "0x0000000000000000000000000000000000000000000000000000000000000000",
            "nonce": "0x0000000000000000",
            "baseFeePerGas": "0x07",
            "hash": "0x7105c03274c92f4e5f6f55e534fdc5e0872bad689554a76b09a621f88ea1899e"
        },
        "pre": {
            "0xc18b3d3f100d2865f6aa0eda4026cfec6cef0300": {
                "nonce": "0x01",
                "balance": "0x00",
                "code": "0x6000600060006000600861afc7fa600055",
                "storage": {
                    "0x00": "0xba5e"
                }
            },
            "0x1ad9bc24818784172ff393bb6f89f094d4d2ca29": {
                "nonce": "0x00",
                "balance": "0x3635c9adc5dea00000",
                "code": "0x",
                "storage": {}
            }
        },
        "postState": {
            "0xc18b3d3f100d2865f6aa0eda4026cfec6cef0300": {
                "nonce": "0x01",
                "balance": "0x00",
                "code": "0x6000600060006000600861afc7fa600055",
                "storage": {}
            },
            "0x1ad9bc24818784172ff393bb6f89f094d4d2ca29": {
                "nonce": "0x01",
                "balance": "0x3635c9adc5de95e160",
                "code": "0x",
                "storage": {}
            },
            "0x2adc25665018aa1fe0e6bc666dac8fc2697ff9ba": {
                "nonce": "0x00",
                "balance": "0x1bc16d674ecb0930",
                "code": "0x",
                "storage": {}
            }
        },
        "lastblockhash": "0x934d0d6003ca20bd9ce8e205f0873fd85c24ae3ffa5ec70e92fb22b9473cc234",
        "config": {
            "network": "London",
            "chainid": "0x01"
        },
        "genesisRLP": "0xf901faf901f5a00000000000000000000000000000000000000000000000000000000000000000a01dcc4de8dec75d7aab85b567b6ccd41ad312451b948a7413f0a142fd40d49347940000000000000000000000000000000000000000a024405512c5b191dca4e538697595728745f9e0312eef1a08b53c8b00267cb50fa056e81f171bcc55a6ff8345e692c0f86e5b48e01b996cadc001622fb5e363b421a056e81f171bcc55a6ff8345e692c0f86e5b48e01b996cadc001622fb5e363b421b901000000000000000000000000000000000000000000000000000000000000000000000000000000000000000000000000000000000000000000000000000000000000000000000000000000000000000000000000000000000000000000000000000000000000000000000000000000000000000000000000000000000000000000000000000000000000000000000000000000000000000000000000000000000000000000000000000000000000000000000000000000000000000000000000000000000000000000000000000000000000000000000000000000000000000000000000000000000000000000000000000000000000000000000000000000000083020000808407270e00808000a0000000000000000000000000000000000000000000000000000000000000000088000000000000000007c0c0",
        "blocks": [
            {
                "blockHeader": {
                    "parentHash": "0x7105c03274c92f4e5f6f55e534fdc5e0872bad689554a76b09a621f88ea1899e",
                    "uncleHash": "0x1dcc4de8dec75d7aab85b567b6ccd41ad312451b948a7413f0a142fd40d49347",
                    "coinbase": "0x2adc25665018aa1fe0e6bc666dac8fc2697ff9ba",
                    "stateRoot": "0x565bd7aefeb4fce271a6bc81cc18c7563f1802f56b1088ce8d386919abc34d59",
                    "transactionsTrie": "0xea47a8be01d19603f286a2ad9191977d0d14691a845473c5d7b626c129706ca0",
                    "receiptTrie": "0xc475d6732e6b334ff2d25d3abea8b2a0c59347577c8ec8a95ee78590226cfe3c",
                    "bloom": "0x00000000000000000000000000000000000000000000000000000000000000000000000000000000000000000000000000000000000000000000000000000000000000000000000000000000000000000000000000000000000000000000000000000000000000000000000000000000000000000000000000000000000000000000000000000000000000000000000000000000000000000000000000000000000000000000000000000000000000000000000000000000000000000000000000000000000000000000000000000000000000000000000000000000000000000000000000000000000000000000000000000000000000000000000000000000",
                    "difficulty": "0x020000",
                    "number": "0x01",
                    "gasLimit": "0x07270e00",
                    "gasUsed": "0x010310",
                    "timestamp": "0x03e8",
                    "extraData": "0x00",
                    "mixHash": "0x0000000000000000000000000000000000000000000000000000000000000000",
                    "nonce": "0x0000000000000000",
                    "baseFeePerGas": "0x07",
                    "hash": "0x934d0d6003ca20bd9ce8e205f0873fd85c24ae3ffa5ec70e92fb22b9473cc234"
                },
                "transactions": [
                    {
                        "type": "0x00",
                        "chainId": "0x01",
                        "nonce": "0x00",
                        "gasPrice": "0x0a",
                        "gasLimit": "0x0f4240",
                        "to": "0xc18b3d3f100d2865f6aa0eda4026cfec6cef0300",
                        "value": "0x00",
                        "data": "0x",
                        "v": "0x25",
                        "r": "0xae39d37f953da623c4ff6d5b5242699a39acd01f0d7b462b630d15741878c4e5",
                        "s": "0x28cf0e1bc159f979e3d3969f706651a5c0cc6bff4c2a3783f8ce7085d9a6666e",
                        "sender": "0x1ad9bc24818784172ff393bb6f89f094d4d2ca29"
                    }
                ],
                "uncleHeaders": [],
                "receipts": [
                    {
                        "transactionHash": "0x2f5c3a4e0fd3a8cf82ac2b6233537a9d9b268ade684fb5d9367229ea7ce2e757",
                        "type": "0x00",
                        "cumulativeGasUsed": "0x010310",
                        "bloom": "0x00000000000000000000000000000000000000000000000000000000000000000000000000000000000000000000000000000000000000000000000000000000000000000000000000000000000000000000000000000000000000000000000000000000000000000000000000000000000000000000000000000000000000000000000000000000000000000000000000000000000000000000000000000000000000000000000000000000000000000000000000000000000000000000000000000000000000000000000000000000000000000000000000000000000000000000000000000000000000000000000000000000000000000000000000000000",
                        "logs": [],
                        "status": true,
                        "rlp": "0xf901090183010310b9010000000000000000000000000000000000000000000000000000000000000000000000000000000000000000000000000000000000000000000000000000000000000000000000000000000000000000000000000000000000000000000000000000000000000000000000000000000000000000000000000000000000000000000000000000000000000000000000000000000000000000000000000000000000000000000000000000000000000000000000000000000000000000000000000000000000000000000000000000000000000000000000000000000000000000000000000000000000000000000000000000000000000000000000000000000000c0"
                    }
                ],
                "rlp": "0xf90262f901faa07105c03274c92f4e5f6f55e534fdc5e0872bad689554a76b09a621f88ea1899ea01dcc4de8dec75d7aab85b567b6ccd41ad312451b948a7413f0a142fd40d49347942adc25665018aa1fe0e6bc666dac8fc2697ff9baa0565bd7aefeb4fce271a6bc81cc18c7563f1802f56b1088ce8d386919abc34d59a0ea47a8be01d19603f286a2ad9191977d0d14691a845473c5d7b626c129706ca0a0c475d6732e6b334ff2d25d3abea8b2a0c59347577c8ec8a95ee78590226cfe3cb901000000000000000000000000000000000000000000000000000000000000000000000000000000000000000000000000000000000000000000000000000000000000000000000000000000000000000000000000000000000000000000000000000000000000000000000000000000000000000000000000000000000000000000000000000000000000000000000000000000000000000000000000000000000000000000000000000000000000000000000000000000000000000000000000000000000000000000000000000000000000000000000000000000000000000000000000000000000000000000000000000000000000000000000000000000000083020000018407270e00830103108203e800a0000000000000000000000000000000000000000000000000000000000000000088000000000000000007f862f860800a830f424094c18b3d3f100d2865f6aa0eda4026cfec6cef0300808025a0ae39d37f953da623c4ff6d5b5242699a39acd01f0d7b462b630d15741878c4e5a028cf0e1bc159f979e3d3969f706651a5c0cc6bff4c2a3783f8ce7085d9a6666ec0",
                "blocknumber": "1"
            }
        ],
        "sealEngine": "NoProof",
        "_info": {
            "hash": "0xb33fcf85f345e9a64408e3791e3155a8ab7c729d135b230679e8148c472a9a34",
            "fixture-format": "blockchain_test",
            "comment": "`execution-specs` generated test",
            "filling-transition-tool": "2.19.0",
            "description": "Test the base gas cost of the ecpairing precompile with zero pairs.",
            "url": "https://github.com/ethereum/execution-specs/blob/tests-snobal-devnet-5@v8037.0.0/tests/byzantium/eip197_ec_pairing/test_gas.py#L31",
            "metadata": {
                "opcode_count": {}
            },
            "reference-spec": "https://github.com/ethereum/EIPs/blob/master/EIPS/eip-197.md",
            "reference-spec-version": "9f9b3d33440e7c122b6c9192facfc380bc009422"
        }
    },
    "tests/byzantium/eip197_ec_pairing/test_gas.py::test_gas_costs[fork_London-blockchain_test_from_state_test-enough_gas_True]": {
        "network": "London",
        "genesisBlockHeader": {
            "parentHash": "0x0000000000000000000000000000000000000000000000000000000000000000",
            "uncleHash": "0x1dcc4de8dec75d7aab85b567b6ccd41ad312451b948a7413f0a142fd40d49347",
            "coinbase": "0x0000000000000000000000000000000000000000",
            "stateRoot": "0xd768fdf7a4bfc570debaf848d88e6c5eff7ade9eb85dd8f542ad06c1797a8a1c",
            "transactionsTrie": "0x56e81f171bcc55a6ff8345e692c0f86e5b48e01b996cadc001622fb5e363b421",
            "receiptTrie": "0x56e81f171bcc55a6ff8345e692c0f86e5b48e01b996cadc001622fb5e363b421",
            "bloom": "0x00000000000000000000000000000000000000000000000000000000000000000000000000000000000000000000000000000000000000000000000000000000000000000000000000000000000000000000000000000000000000000000000000000000000000000000000000000000000000000000000000000000000000000000000000000000000000000000000000000000000000000000000000000000000000000000000000000000000000000000000000000000000000000000000000000000000000000000000000000000000000000000000000000000000000000000000000000000000000000000000000000000000000000000000000000000",
            "difficulty": "0x020000",
            "number": "0x00",
            "gasLimit": "0x07270e00",
            "gasUsed": "0x00",
            "timestamp": "0x00",
            "extraData": "0x00",
            "mixHash": "0x0000000000000000000000000000000000000000000000000000000000000000",
            "nonce": "0x0000000000000000",
            "baseFeePerGas": "0x07",
            "hash": "0x6ecfaacf810ab4b90df1a2d5c1f8b8df130077f13ca0ed760d56f62d8461c34f"
        },
        "pre": {
            "0xa6f6b89915b5c0528222eb8a588a1a5a0ff7b18a": {
                "nonce": "0x01",
                "balance": "0x00",
                "code": "0x6000600060006000600861afc8fa600055",
                "storage": {}
            },
            "0x1ad9bc24818784172ff393bb6f89f094d4d2ca29": {
                "nonce": "0x00",
                "balance": "0x3635c9adc5dea00000",
                "code": "0x",
                "storage": {}
            }
        },
        "postState": {
            "0xa6f6b89915b5c0528222eb8a588a1a5a0ff7b18a": {
                "nonce": "0x01",
                "balance": "0x00",
                "code": "0x6000600060006000600861afc8fa600055",
                "storage": {
                    "0x00": "0x01"
                }
            },
            "0x1ad9bc24818784172ff393bb6f89f094d4d2ca29": {
                "nonce": "0x01",
                "balance": "0x3635c9adc5de9289de",
                "code": "0x",
                "storage": {}
            },
            "0x2adc25665018aa1fe0e6bc666dac8fc2697ff9ba": {
                "nonce": "0x00",
                "balance": "0x1bc16d674ecc09d7",
                "code": "0x",
                "storage": {}
            }
        },
        "lastblockhash": "0xb9a85d6942de55a266b3d6a8189afc0b6e2e47a8f0819a36fac3c8e2aca7ace6",
        "config": {
            "network": "London",
            "chainid": "0x01"
        },
        "genesisRLP": "0xf901faf901f5a00000000000000000000000000000000000000000000000000000000000000000a01dcc4de8dec75d7aab85b567b6ccd41ad312451b948a7413f0a142fd40d49347940000000000000000000000000000000000000000a0d768fdf7a4bfc570debaf848d88e6c5eff7ade9eb85dd8f542ad06c1797a8a1ca056e81f171bcc55a6ff8345e692c0f86e5b48e01b996cadc001622fb5e363b421a056e81f171bcc55a6ff8345e692c0f86e5b48e01b996cadc001622fb5e363b421b901000000000000000000000000000000000000000000000000000000000000000000000000000000000000000000000000000000000000000000000000000000000000000000000000000000000000000000000000000000000000000000000000000000000000000000000000000000000000000000000000000000000000000000000000000000000000000000000000000000000000000000000000000000000000000000000000000000000000000000000000000000000000000000000000000000000000000000000000000000000000000000000000000000000000000000000000000000000000000000000000000000000000000000000000000000000083020000808407270e00808000a0000000000000000000000000000000000000000000000000000000000000000088000000000000000007c0c0",
        "blocks": [
            {
                "blockHeader": {
                    "parentHash": "0x6ecfaacf810ab4b90df1a2d5c1f8b8df130077f13ca0ed760d56f62d8461c34f",
                    "uncleHash": "0x1dcc4de8dec75d7aab85b567b6ccd41ad312451b948a7413f0a142fd40d49347",
                    "coinbase": "0x2adc25665018aa1fe0e6bc666dac8fc2697ff9ba",
                    "stateRoot": "0x3cac428a637963017734e30adbf0820ff2bff3ce1eba6e91a130a4dae237cd40",
                    "transactionsTrie": "0x37673be10dc66f0970057054f3bc8acc19bd607d35bc36f1000c1c04d9af950b",
                    "receiptTrie": "0x371fb27f5edc76d68206c1b33fe6ae1b4d2b45de130086747fe44e8553b143b8",
                    "bloom": "0x00000000000000000000000000000000000000000000000000000000000000000000000000000000000000000000000000000000000000000000000000000000000000000000000000000000000000000000000000000000000000000000000000000000000000000000000000000000000000000000000000000000000000000000000000000000000000000000000000000000000000000000000000000000000000000000000000000000000000000000000000000000000000000000000000000000000000000000000000000000000000000000000000000000000000000000000000000000000000000000000000000000000000000000000000000000",
                    "difficulty": "0x020000",
                    "number": "0x01",
                    "gasLimit": "0x07270e00",
                    "gasUsed": "0x01589d",
                    "timestamp": "0x03e8",
                    "extraData": "0x00",
                    "mixHash": "0x0000000000000000000000000000000000000000000000000000000000000000",
                    "nonce": "0x0000000000000000",
                    "baseFeePerGas": "0x07",
                    "hash": "0xb9a85d6942de55a266b3d6a8189afc0b6e2e47a8f0819a36fac3c8e2aca7ace6"
                },
                "transactions": [
                    {
                        "type": "0x00",
                        "chainId": "0x01",
                        "nonce": "0x00",
                        "gasPrice": "0x0a",
                        "gasLimit": "0x0f4240",
                        "to": "0xa6f6b89915b5c0528222eb8a588a1a5a0ff7b18a",
                        "value": "0x00",
                        "data": "0x",
                        "v": "0x26",
                        "r": "0xcb4334e16c26ef41780994a5349e0b36894f51ca320e570e1eaafa20eed1b342",
                        "s": "0x417daa1237cc9460617667267e362958c229703433b4c64715f255c3e9a17ca1",
                        "sender": "0x1ad9bc24818784172ff393bb6f89f094d4d2ca29"
                    }
                ],
                "uncleHeaders": [],
                "receipts": [
                    {
                        "transactionHash": "0xa3dc77924400afc5b746595d9ea136352801ca28df603bc9778d34f90b861ad1",
                        "type": "0x00",
                        "cumulativeGasUsed": "0x01589d",
                        "bloom": "0x00000000000000000000000000000000000000000000000000000000000000000000000000000000000000000000000000000000000000000000000000000000000000000000000000000000000000000000000000000000000000000000000000000000000000000000000000000000000000000000000000000000000000000000000000000000000000000000000000000000000000000000000000000000000000000000000000000000000000000000000000000000000000000000000000000000000000000000000000000000000000000000000000000000000000000000000000000000000000000000000000000000000000000000000000000000",
                        "logs": [],
                        "status": true,
                        "rlp": "0xf90109018301589db9010000000000000000000000000000000000000000000000000000000000000000000000000000000000000000000000000000000000000000000000000000000000000000000000000000000000000000000000000000000000000000000000000000000000000000000000000000000000000000000000000000000000000000000000000000000000000000000000000000000000000000000000000000000000000000000000000000000000000000000000000000000000000000000000000000000000000000000000000000000000000000000000000000000000000000000000000000000000000000000000000000000000000000000000000000000000c0"
                    }
                ],
                "rlp": "0xf90262f901faa06ecfaacf810ab4b90df1a2d5c1f8b8df130077f13ca0ed760d56f62d8461c34fa01dcc4de8dec75d7aab85b567b6ccd41ad312451b948a7413f0a142fd40d49347942adc25665018aa1fe0e6bc666dac8fc2697ff9baa03cac428a637963017734e30adbf0820ff2bff3ce1eba6e91a130a4dae237cd40a037673be10dc66f0970057054f3bc8acc19bd607d35bc36f1000c1c04d9af950ba0371fb27f5edc76d68206c1b33fe6ae1b4d2b45de130086747fe44e8553b143b8b901000000000000000000000000000000000000000000000000000000000000000000000000000000000000000000000000000000000000000000000000000000000000000000000000000000000000000000000000000000000000000000000000000000000000000000000000000000000000000000000000000000000000000000000000000000000000000000000000000000000000000000000000000000000000000000000000000000000000000000000000000000000000000000000000000000000000000000000000000000000000000000000000000000000000000000000000000000000000000000000000000000000000000000000000000000000083020000018407270e008301589d8203e800a0000000000000000000000000000000000000000000000000000000000000000088000000000000000007f862f860800a830f424094a6f6b89915b5c0528222eb8a588a1a5a0ff7b18a808026a0cb4334e16c26ef41780994a5349e0b36894f51ca320e570e1eaafa20eed1b342a0417daa1237cc9460617667267e362958c229703433b4c64715f255c3e9a17ca1c0",
                "blocknumber": "1"
            }
        ],
        "sealEngine": "NoProof",
        "_info": {
            "hash": "0x297fea467385836ab40f3c15a63e9fb777cfc06b8f2144a4d8b3a0b6f61ef818",
            "fixture-format": "blockchain_test",
            "comment": "`execution-specs` generated test",
            "filling-transition-tool": "2.19.0",
            "description": "Test the base gas cost of the ecpairing precompile with zero pairs.",
            "url": "https://github.com/ethereum/execution-specs/blob/tests-snobal-devnet-5@v8037.0.0/tests/byzantium/eip197_ec_pairing/test_gas.py#L31",
            "metadata": {
                "opcode_count": {}
            },
            "reference-spec": "https://github.com/ethereum/EIPs/blob/master/EIPS/eip-197.md",
            "reference-spec-version": "9f9b3d33440e7c122b6c9192facfc380bc009422"
        }
    }
}