{
    "tests/ported_static/stCallCodes/test_callcodecallcode_11_suicide_end.py::test_callcodecallcode_11_suicide_end[fork_Cancun-blockchain_test_from_state_test]": {
        "network": "Cancun",
        "genesisBlockHeader": {
            "parentHash": "0x0000000000000000000000000000000000000000000000000000000000000000",
            "uncleHash": "0x1dcc4de8dec75d7aab85b567b6ccd41ad312451b948a7413f0a142fd40d49347",
            "coinbase": "0x0000000000000000000000000000000000000000",
            "stateRoot": "0x68a5794ec790ae618f47cd2638c25db9b2f5b80916c72f6199d14f5a59cb6a95",
            "transactionsTrie": "0x56e81f171bcc55a6ff8345e692c0f86e5b48e01b996cadc001622fb5e363b421",
            "receiptTrie": "0x56e81f171bcc55a6ff8345e692c0f86e5b48e01b996cadc001622fb5e363b421",
            "bloom": "0x00000000000000000000000000000000000000000000000000000000000000000000000000000000000000000000000000000000000000000000000000000000000000000000000000000000000000000000000000000000000000000000000000000000000000000000000000000000000000000000000000000000000000000000000000000000000000000000000000000000000000000000000000000000000000000000000000000000000000000000000000000000000000000000000000000000000000000000000000000000000000000000000000000000000000000000000000000000000000000000000000000000000000000000000000000000",
            "difficulty": "0x00",
            "number": "0x00",
            "gasLimit": "0x01c9c380",
            "gasUsed": "0x00",
            "timestamp": "0x00",
            "extraData": "0x00",
            "mixHash": "0x0000000000000000000000000000000000000000000000000000000000000000",
            "nonce": "0x0000000000000000",
            "baseFeePerGas": "0x0b",
            "withdrawalsRoot": "0x56e81f171bcc55a6ff8345e692c0f86e5b48e01b996cadc001622fb5e363b421",
            "blobGasUsed": "0x00",
            "excessBlobGas": "0x00",
            "parentBeaconBlockRoot": "0x0000000000000000000000000000000000000000000000000000000000000000",
            "hash": "0xca3f41b498af1d634a81e83e91942a6b14fb9fc8868127b3369a6c9f2dd60a62"
        },
        "pre": {
            "0x000f3df6d732807ef1319fb7b8bb8522d0beac02": {
                "nonce": "0x01",
                "balance": "0x00",
                "code": "0x3373fffffffffffffffffffffffffffffffffffffffe14604d57602036146024575f5ffd5b5f35801560495762001fff810690815414603c575f5ffd5b62001fff01545f5260205ff35b5f5ffd5b62001fff42064281555f359062001fff015500",
                "storage": {}
            },
            "0xa74ca10b765dcda3b60687f73f2881e2a56eda64": {
                "nonce": "0x00",
                "balance": "0x0de0b6b3a7640000",
                "code": "0x6040600060406000600073799da5a3c983a22f9c430de1bf99134ee561e856620249f0f260005500",
                "storage": {}
            },
            "0x799da5a3c983a22f9c430de1bf99134ee561e856": {
                "nonce": "0x00",
                "balance": "0x02540be400",
                "code": "0x6040600060406000600073703b936fd4d674f0ff5d6957f61097152f8781b861c350f260015573a74ca10b765dcda3b60687f73f2881e2a56eda64ff00",
                "storage": {}
            },
            "0x703b936fd4d674f0ff5d6957f61097152f8781b8": {
                "nonce": "0x00",
                "balance": "0x02540be400",
                "code": "0x600160025500",
                "storage": {}
            },
            "0xebaf50debf10e08302fe4280c32df010463ca297": {
                "nonce": "0x00",
                "balance": "0x0de0b6b3a7640000",
                "code": "0x",
                "storage": {}
            }
        },
        "postState": {
            "0x000f3df6d732807ef1319fb7b8bb8522d0beac02": {
                "nonce": "0x01",
                "balance": "0x00",
                "code": "0x3373fffffffffffffffffffffffffffffffffffffffe14604d57602036146024575f5ffd5b5f35801560495762001fff810690815414603c575f5ffd5b62001fff01545f5260205ff35b5f5ffd5b62001fff42064281555f359062001fff015500",
                "storage": {
                    "0x03e8": "0x03e8"
                }
            },
            "0xa74ca10b765dcda3b60687f73f2881e2a56eda64": {
                "nonce": "0x00",
                "balance": "0x0de0b6b3a7640000",
                "code": "0x6040600060406000600073799da5a3c983a22f9c430de1bf99134ee561e856620249f0f260005500",
                "storage": {
                    "0x02": "0x01",
                    "0x01": "0x01",
                    "0x00": "0x01"
                }
            },
            "0x799da5a3c983a22f9c430de1bf99134ee561e856": {
                "nonce": "0x00",
                "balance": "0x02540be400",
                "code": "0x6040600060406000600073703b936fd4d674f0ff5d6957f61097152f8781b861c350f260015573a74ca10b765dcda3b60687f73f2881e2a56eda64ff00",
                "storage": {}
            },
            "0x703b936fd4d674f0ff5d6957f61097152f8781b8": {
                "nonce": "0x00",
                "balance": "0x02540be400",
                "code": "0x600160025500",
                "storage": {}
            },
            "0xebaf50debf10e08302fe4280c32df010463ca297": {
                "nonce": "0x01",
                "balance": "0x0de0b6b3a7551cb6",
                "code": "0x",
                "storage": {}
            }
        },
        "lastblockhash": "0xe314d33c8d22c280b15261fe5f327469ab60c96c24ef85f0bdece6aefbe2e0bc",
        "config": {
            "network": "Cancun",
            "chainid": "0x01",
            "blobSchedule": {
                "Cancun": {
                    "target": "0x03",
                    "max": "0x06",
                    "baseFeeUpdateFraction": "0x32f0ed"
                }
            }
        },
        "genesisRLP": "0xf9023cf90236a00000000000000000000000000000000000000000000000000000000000000000a01dcc4de8dec75d7aab85b567b6ccd41ad312451b948a7413f0a142fd40d49347940000000000000000000000000000000000000000a068a5794ec790ae618f47cd2638c25db9b2f5b80916c72f6199d14f5a59cb6a95a056e81f171bcc55a6ff8345e692c0f86e5b48e01b996cadc001622fb5e363b421a056e81f171bcc55a6ff8345e692c0f86e5b48e01b996cadc001622fb5e363b421b901000000000000000000000000000000000000000000000000000000000000000000000000000000000000000000000000000000000000000000000000000000000000000000000000000000000000000000000000000000000000000000000000000000000000000000000000000000000000000000000000000000000000000000000000000000000000000000000000000000000000000000000000000000000000000000000000000000000000000000000000000000000000000000000000000000000000000000000000000000000000000000000000000000000000000000000000000000000000000000000000000000000000000000000000000000000080808401c9c380808000a000000000000000000000000000000000000000000000000000000000000000008800000000000000000ba056e81f171bcc55a6ff8345e692c0f86e5b48e01b996cadc001622fb5e363b4218080a00000000000000000000000000000000000000000000000000000000000000000c0c0c0",
        "blocks": [
            {
                "blockHeader": {
                    "parentHash": "0xca3f41b498af1d634a81e83e91942a6b14fb9fc8868127b3369a6c9f2dd60a62",
                    "uncleHash": "0x1dcc4de8dec75d7aab85b567b6ccd41ad312451b948a7413f0a142fd40d49347",
                    "coinbase": "0x2adc25665018aa1fe0e6bc666dac8fc2697ff9ba",
                    "stateRoot": "0x799a6fb7a5c7050e7d43787d6e570d7db4a7f2bd683beee45eb6e82326bea58e",
                    "transactionsTrie": "0xd753d22c3568f8a3fbdf2a2953d92bff03885c520c7fb9afffa5ca424eb0bfa7",
                    "receiptTrie": "0xac41e0f689ecedc9b7b4fbda9c745278b22457a30b43691002b5655601fc2cfd",
                    "bloom": "0x00000000000000000000000000000000000000000000000000000000000000000000000000000000000000000000000000000000000000000000000000000000000000000000000000000000000000000000000000000000000000000000000000000000000000000000000000000000000000000000000000000000000000000000000000000000000000000000000000000000000000000000000000000000000000000000000000000000000000000000000000000000000000000000000000000000000000000000000000000000000000000000000000000000000000000000000000000000000000000000000000000000000000000000000000000000",
                    "difficulty": "0x00",
                    "number": "0x01",
                    "gasLimit": "0x01c9c380",
                    "gasUsed": "0x017d21",
                    "timestamp": "0x03e8",
                    "extraData": "0x00",
                    "mixHash": "0x0000000000000000000000000000000000000000000000000000000000020000",
                    "nonce": "0x0000000000000000",
                    "baseFeePerGas": "0x0a",
                    "withdrawalsRoot": "0x56e81f171bcc55a6ff8345e692c0f86e5b48e01b996cadc001622fb5e363b421",
                    "blobGasUsed": "0x00",
                    "excessBlobGas": "0x00",
                    "parentBeaconBlockRoot": "0x0000000000000000000000000000000000000000000000000000000000000000",
                    "hash": "0xe314d33c8d22c280b15261fe5f327469ab60c96c24ef85f0bdece6aefbe2e0bc"
                },
                "transactions": [
                    {
                        "type": "0x00",
                        "chainId": "0x01",
                        "nonce": "0x00",
                        "gasPrice": "0x0a",
                        "gasLimit": "0x2dc6c0",
                        "to": "0xa74ca10b765dcda3b60687f73f2881e2a56eda64",
                        "value": "0x00",
                        "data": "0x",
                        "v": "0x25",
                        "r": "0xd20ffad17af2452dd746e5a98e9c23994dc82ed74c3f0d6a73e9ec479f0c619c",
                        "s": "0x2bc46ea88cc47bfbb0052bbcc9ce2e01e0c038acdcccf2c66162f8ebbe211982",
                        "sender": "0xebaf50debf10e08302fe4280c32df010463ca297"
                    }
                ],
                "uncleHeaders": [],
                "withdrawals": [],
                "receipts": [
                    {
                        "transactionHash": "0xd102dfe0931c3807b3b2bf6b1c3cd3d7b9edec10fa55cd8b53b15e254b20b4a8",
                        "type": "0x00",
                        "cumulativeGasUsed": "0x017d21",
                        "bloom": "0x00000000000000000000000000000000000000000000000000000000000000000000000000000000000000000000000000000000000000000000000000000000000000000000000000000000000000000000000000000000000000000000000000000000000000000000000000000000000000000000000000000000000000000000000000000000000000000000000000000000000000000000000000000000000000000000000000000000000000000000000000000000000000000000000000000000000000000000000000000000000000000000000000000000000000000000000000000000000000000000000000000000000000000000000000000000",
                        "logs": [],
                        "status": true,
                        "rlp": "0xf901090183017d21b9010000000000000000000000000000000000000000000000000000000000000000000000000000000000000000000000000000000000000000000000000000000000000000000000000000000000000000000000000000000000000000000000000000000000000000000000000000000000000000000000000000000000000000000000000000000000000000000000000000000000000000000000000000000000000000000000000000000000000000000000000000000000000000000000000000000000000000000000000000000000000000000000000000000000000000000000000000000000000000000000000000000000000000000000000000000000c0"
                    }
                ],
                "rlp": "0xf902a4f9023ba0ca3f41b498af1d634a81e83e91942a6b14fb9fc8868127b3369a6c9f2dd60a62a01dcc4de8dec75d7aab85b567b6ccd41ad312451b948a7413f0a142fd40d49347942adc25665018aa1fe0e6bc666dac8fc2697ff9baa0799a6fb7a5c7050e7d43787d6e570d7db4a7f2bd683beee45eb6e82326bea58ea0d753d22c3568f8a3fbdf2a2953d92bff03885c520c7fb9afffa5ca424eb0bfa7a0ac41e0f689ecedc9b7b4fbda9c745278b22457a30b43691002b5655601fc2cfdb901000000000000000000000000000000000000000000000000000000000000000000000000000000000000000000000000000000000000000000000000000000000000000000000000000000000000000000000000000000000000000000000000000000000000000000000000000000000000000000000000000000000000000000000000000000000000000000000000000000000000000000000000000000000000000000000000000000000000000000000000000000000000000000000000000000000000000000000000000000000000000000000000000000000000000000000000000000000000000000000000000000000000000000000000000000000080018401c9c38083017d218203e800a000000000000000000000000000000000000000000000000000000000000200008800000000000000000aa056e81f171bcc55a6ff8345e692c0f86e5b48e01b996cadc001622fb5e363b4218080a00000000000000000000000000000000000000000000000000000000000000000f862f860800a832dc6c094a74ca10b765dcda3b60687f73f2881e2a56eda64808025a0d20ffad17af2452dd746e5a98e9c23994dc82ed74c3f0d6a73e9ec479f0c619ca02bc46ea88cc47bfbb0052bbcc9ce2e01e0c038acdcccf2c66162f8ebbe211982c0c0",
                "blocknumber": "1"
            }
        ],
        "sealEngine": "NoProof",
        "_info": {
            "hash": "0x19b10105828469efce2835e61a30627f4373c7f0b31bc01eb8477662b14ea4f8",
            "fixture-format": "blockchain_test",
            "comment": "`execution-specs` generated test",
            "filling-transition-tool": "2.19.0",
            "description": "CALLCODE -> (CALLCODE -> code) selfdestruct.",
            "url": "https://github.com/ethereum/execution-specs/blob/tests-bal@v5.7.0/tests/ported_static/stCallCodes/test_callcodecallcode_11_suicide_end.py#L25",
            "metadata": {
                "opcode_count": {}
            }
        }
    }
}