{
    "tests/constantinople/eip1052_extcodehash/test_extcodehash.py::test_extcodehash_created_and_deleted[fork_London-blockchain_test_from_state_test-call]": {
        "network": "London",
        "genesisBlockHeader": {
            "parentHash": "0x0000000000000000000000000000000000000000000000000000000000000000",
            "uncleHash": "0x1dcc4de8dec75d7aab85b567b6ccd41ad312451b948a7413f0a142fd40d49347",
            "coinbase": "0x0000000000000000000000000000000000000000",
            "stateRoot": "0x3771572b9570549471a45aafc39431f63f2db7c1a446310deb79a654ddec741a",
            "transactionsTrie": "0x56e81f171bcc55a6ff8345e692c0f86e5b48e01b996cadc001622fb5e363b421",
            "receiptTrie": "0x56e81f171bcc55a6ff8345e692c0f86e5b48e01b996cadc001622fb5e363b421",
            "bloom": "0x00000000000000000000000000000000000000000000000000000000000000000000000000000000000000000000000000000000000000000000000000000000000000000000000000000000000000000000000000000000000000000000000000000000000000000000000000000000000000000000000000000000000000000000000000000000000000000000000000000000000000000000000000000000000000000000000000000000000000000000000000000000000000000000000000000000000000000000000000000000000000000000000000000000000000000000000000000000000000000000000000000000000000000000000000000000",
            "difficulty": "0x020000",
            "number": "0x00",
            "gasLimit": "0x07270e00",
            "gasUsed": "0x00",
            "timestamp": "0x00",
            "extraData": "0x00",
            "mixHash": "0x0000000000000000000000000000000000000000000000000000000000000000",
            "nonce": "0x0000000000000000",
            "baseFeePerGas": "0x07",
            "hash": "0xe65d94bd63c525824e3714a04bae0db0a7de94d555837610e7e13746e18b84fd"
        },
        "pre": {
            "0x038183b717bb2d14b99e7095a73e663f9ae9f5a3": {
                "nonce": "0x01",
                "balance": "0x00",
                "code": "0x7f610003600081600b8239f36000ff0000000000000000000000000000000000006000526010600e60006000f56000556000543f6001556000543b6002556020600060006000543c6000516003556000600060006000600060005462010000f1506000543f6004556000543b6005556020600060006000543c600051600655",
                "storage": {
                    "0x00": "0xba5e"
                }
            },
            "0x1ad9bc24818784172ff393bb6f89f094d4d2ca29": {
                "nonce": "0x00",
                "balance": "0x3635c9adc5dea00000",
                "code": "0x",
                "storage": {}
            }
        },
        "postState": {
            "0x038183b717bb2d14b99e7095a73e663f9ae9f5a3": {
                "nonce": "0x02",
                "balance": "0x00",
                "code": "0x7f610003600081600b8239f36000ff0000000000000000000000000000000000006000526010600e60006000f56000556000543f6001556000543b6002556020600060006000543c6000516003556000600060006000600060005462010000f1506000543f6004556000543b6005556020600060006000543c600051600655",
                "storage": {
                    "0x00": "0x7467977e25e7fb202abb90f42280dfd8db234dec",
                    "0x01": "0x396daaf3a7871f857cc9b5878c6bb66c394a6d109706095617db9f4e4c22edcd",
                    "0x02": "0x03",
                    "0x03": "0x6000ff0000000000000000000000000000000000000000000000000000000000",
                    "0x04": "0x396daaf3a7871f857cc9b5878c6bb66c394a6d109706095617db9f4e4c22edcd",
                    "0x05": "0x03",
                    "0x06": "0x6000ff0000000000000000000000000000000000000000000000000000000000"
                }
            },
            "0x1ad9bc24818784172ff393bb6f89f094d4d2ca29": {
                "nonce": "0x01",
                "balance": "0x3635c9adc5de816da2",
                "code": "0x",
                "storage": {}
            },
            "0x2adc25665018aa1fe0e6bc666dac8fc2697ff9ba": {
                "nonce": "0x00",
                "balance": "0x1bc16d674ed12be9",
                "code": "0x",
                "storage": {}
            }
        },
        "lastblockhash": "0x4d1b28a7fc7f2acf2d758110c7c21298c7483c5730e36cc5c6a5c54ae7ab1604",
        "config": {
            "network": "London",
            "chainid": "0x01"
        },
        "genesisRLP": "0xf901faf901f5a00000000000000000000000000000000000000000000000000000000000000000a01dcc4de8dec75d7aab85b567b6ccd41ad312451b948a7413f0a142fd40d49347940000000000000000000000000000000000000000a03771572b9570549471a45aafc39431f63f2db7c1a446310deb79a654ddec741aa056e81f171bcc55a6ff8345e692c0f86e5b48e01b996cadc001622fb5e363b421a056e81f171bcc55a6ff8345e692c0f86e5b48e01b996cadc001622fb5e363b421b901000000000000000000000000000000000000000000000000000000000000000000000000000000000000000000000000000000000000000000000000000000000000000000000000000000000000000000000000000000000000000000000000000000000000000000000000000000000000000000000000000000000000000000000000000000000000000000000000000000000000000000000000000000000000000000000000000000000000000000000000000000000000000000000000000000000000000000000000000000000000000000000000000000000000000000000000000000000000000000000000000000000000000000000000000000000083020000808407270e00808000a0000000000000000000000000000000000000000000000000000000000000000088000000000000000007c0c0",
        "blocks": [
            {
                "blockHeader": {
                    "parentHash": "0xe65d94bd63c525824e3714a04bae0db0a7de94d555837610e7e13746e18b84fd",
                    "uncleHash": "0x1dcc4de8dec75d7aab85b567b6ccd41ad312451b948a7413f0a142fd40d49347",
                    "coinbase": "0x2adc25665018aa1fe0e6bc666dac8fc2697ff9ba",
                    "stateRoot": "0xc9451c2e192c260290c056459793e43929a63f357ed040b12d73a6f00cc5213c",
                    "transactionsTrie": "0x29fcda7abe19ac2a4fc13ca0d58e0eced40b84a353da0ed5a69c602945336a7e",
                    "receiptTrie": "0xdf53a2c23710f3b00e406174bae277628ae6903d194ca4fb3413bd75c2ce828f",
                    "bloom": "0x00000000000000000000000000000000000000000000000000000000000000000000000000000000000000000000000000000000000000000000000000000000000000000000000000000000000000000000000000000000000000000000000000000000000000000000000000000000000000000000000000000000000000000000000000000000000000000000000000000000000000000000000000000000000000000000000000000000000000000000000000000000000000000000000000000000000000000000000000000000000000000000000000000000000000000000000000000000000000000000000000000000000000000000000000000000",
                    "difficulty": "0x020000",
                    "number": "0x01",
                    "gasLimit": "0x07270e00",
                    "gasUsed": "0x030ea3",
                    "timestamp": "0x03e8",
                    "extraData": "0x00",
                    "mixHash": "0x0000000000000000000000000000000000000000000000000000000000000000",
                    "nonce": "0x0000000000000000",
                    "baseFeePerGas": "0x07",
                    "hash": "0x4d1b28a7fc7f2acf2d758110c7c21298c7483c5730e36cc5c6a5c54ae7ab1604"
                },
                "transactions": [
                    {
                        "type": "0x00",
                        "chainId": "0x01",
                        "nonce": "0x00",
                        "gasPrice": "0x0a",
                        "gasLimit": "0x0f4240",
                        "to": "0x038183b717bb2d14b99e7095a73e663f9ae9f5a3",
                        "value": "0x00",
                        "data": "0x",
                        "v": "0x25",
                        "r": "0x899d575715907af0aa791e0c0c96347da24ae015ec15c4dfe6cc6b6f2eaebc97",
                        "s": "0x0a24b26facc23ef7c3c92784724513f5d2ae2e40c18b25953a5c24a37c7ade13",
                        "sender": "0x1ad9bc24818784172ff393bb6f89f094d4d2ca29"
                    }
                ],
                "uncleHeaders": [],
                "receipts": [
                    {
                        "transactionHash": "0x2307545e4b0a960c801c23dc381dbbf0558e79a342e228a771d5215f43487c9c",
                        "type": "0x00",
                        "cumulativeGasUsed": "0x030ea3",
                        "bloom": "0x00000000000000000000000000000000000000000000000000000000000000000000000000000000000000000000000000000000000000000000000000000000000000000000000000000000000000000000000000000000000000000000000000000000000000000000000000000000000000000000000000000000000000000000000000000000000000000000000000000000000000000000000000000000000000000000000000000000000000000000000000000000000000000000000000000000000000000000000000000000000000000000000000000000000000000000000000000000000000000000000000000000000000000000000000000000",
                        "logs": [],
                        "status": true,
                        "rlp": "0xf901090183030ea3b9010000000000000000000000000000000000000000000000000000000000000000000000000000000000000000000000000000000000000000000000000000000000000000000000000000000000000000000000000000000000000000000000000000000000000000000000000000000000000000000000000000000000000000000000000000000000000000000000000000000000000000000000000000000000000000000000000000000000000000000000000000000000000000000000000000000000000000000000000000000000000000000000000000000000000000000000000000000000000000000000000000000000000000000000000000000000c0"
                    }
                ],
                "rlp": "0xf90262f901faa0e65d94bd63c525824e3714a04bae0db0a7de94d555837610e7e13746e18b84fda01dcc4de8dec75d7aab85b567b6ccd41ad312451b948a7413f0a142fd40d49347942adc25665018aa1fe0e6bc666dac8fc2697ff9baa0c9451c2e192c260290c056459793e43929a63f357ed040b12d73a6f00cc5213ca029fcda7abe19ac2a4fc13ca0d58e0eced40b84a353da0ed5a69c602945336a7ea0df53a2c23710f3b00e406174bae277628ae6903d194ca4fb3413bd75c2ce828fb901000000000000000000000000000000000000000000000000000000000000000000000000000000000000000000000000000000000000000000000000000000000000000000000000000000000000000000000000000000000000000000000000000000000000000000000000000000000000000000000000000000000000000000000000000000000000000000000000000000000000000000000000000000000000000000000000000000000000000000000000000000000000000000000000000000000000000000000000000000000000000000000000000000000000000000000000000000000000000000000000000000000000000000000000000000000083020000018407270e0083030ea38203e800a0000000000000000000000000000000000000000000000000000000000000000088000000000000000007f862f860800a830f424094038183b717bb2d14b99e7095a73e663f9ae9f5a3808025a0899d575715907af0aa791e0c0c96347da24ae015ec15c4dfe6cc6b6f2eaebc97a00a24b26facc23ef7c3c92784724513f5d2ae2e40c18b25953a5c24a37c7ade13c0",
                "blocknumber": "1"
            }
        ],
        "sealEngine": "NoProof",
        "_info": {
            "hash": "0xdf3f8e09c2cb70d43e02a831a18e7ee60894c66c47e79b7ac84bd1429b43a5f8",
            "fixture-format": "blockchain_test",
            "comment": "`execution-specs` generated test",
            "filling-transition-tool": "2.19.0",
            "description": "Test EXTCODEHASH of an account created and selfdestructed in same tx.\n\nCREATE2 a contract with SELFDESTRUCT code, check EXTCODEHASH,\nEXTCODESIZE, and EXTCODECOPY before and after triggering it. Within\nthe transaction, the values remain unchanged. With CALL the created\ncontract is deleted at end of transaction; with STATICCALL the\ntrigger fails and the contract persists.",
            "url": "https://github.com/ethereum/execution-specs/blob/tests-bal@v5.4.0/tests/constantinople/eip1052_extcodehash/test_extcodehash.py#L1316",
            "opcode_count": {},
            "reference-spec": "https://github.com/ethereum/EIPs/blob/master/EIPS/eip-1052.md",
            "reference-spec-version": "2dcbc7ce1563e9624e137e9d447374600af876fa"
        }
    },
    "tests/constantinople/eip1052_extcodehash/test_extcodehash.py::test_extcodehash_created_and_deleted[fork_London-blockchain_test_from_state_test-staticcall]": {
        "network": "London",
        "genesisBlockHeader": {
            "parentHash": "0x0000000000000000000000000000000000000000000000000000000000000000",
            "uncleHash": "0x1dcc4de8dec75d7aab85b567b6ccd41ad312451b948a7413f0a142fd40d49347",
            "coinbase": "0x0000000000000000000000000000000000000000",
            "stateRoot": "0xb7f753c5d68e2c979d3846f13b3fcc1564d37c566b2cbe8bfe5148032afef7f3",
            "transactionsTrie": "0x56e81f171bcc55a6ff8345e692c0f86e5b48e01b996cadc001622fb5e363b421",
            "receiptTrie": "0x56e81f171bcc55a6ff8345e692c0f86e5b48e01b996cadc001622fb5e363b421",
            "bloom": "0x00000000000000000000000000000000000000000000000000000000000000000000000000000000000000000000000000000000000000000000000000000000000000000000000000000000000000000000000000000000000000000000000000000000000000000000000000000000000000000000000000000000000000000000000000000000000000000000000000000000000000000000000000000000000000000000000000000000000000000000000000000000000000000000000000000000000000000000000000000000000000000000000000000000000000000000000000000000000000000000000000000000000000000000000000000000",
            "difficulty": "0x020000",
            "number": "0x00",
            "gasLimit": "0x07270e00",
            "gasUsed": "0x00",
            "timestamp": "0x00",
            "extraData": "0x00",
            "mixHash": "0x0000000000000000000000000000000000000000000000000000000000000000",
            "nonce": "0x0000000000000000",
            "baseFeePerGas": "0x07",
            "hash": "0xef781604dff0311f9a466a69c2bc8baed416c5cdd7ce19da7618bfd51aea3acc"
        },
        "pre": {
            "0x0e76b1355a4470c8f32fecfc74cc88c97ffa3303": {
                "nonce": "0x01",
                "balance": "0x00",
                "code": "0x7f610003600081600b8239f36000ff0000000000000000000000000000000000006000526010600e60006000f56000556000543f6001556000543b6002556020600060006000543c600051600355600060006000600060005462010000fa506000543f6004556000543b6005556020600060006000543c600051600655",
                "storage": {
                    "0x00": "0xba5e"
                }
            },
            "0x1ad9bc24818784172ff393bb6f89f094d4d2ca29": {
                "nonce": "0x00",
                "balance": "0x3635c9adc5dea00000",
                "code": "0x",
                "storage": {}
            }
        },
        "postState": {
            "0x0e76b1355a4470c8f32fecfc74cc88c97ffa3303": {
                "nonce": "0x02",
                "balance": "0x00",
                "code": "0x7f610003600081600b8239f36000ff0000000000000000000000000000000000006000526010600e60006000f56000556000543f6001556000543b6002556020600060006000543c600051600355600060006000600060005462010000fa506000543f6004556000543b6005556020600060006000543c600051600655",
                "storage": {
                    "0x00": "0xa386ad0d8071981082960f9e64396afda92a7444",
                    "0x01": "0x396daaf3a7871f857cc9b5878c6bb66c394a6d109706095617db9f4e4c22edcd",
                    "0x02": "0x03",
                    "0x03": "0x6000ff0000000000000000000000000000000000000000000000000000000000",
                    "0x04": "0x396daaf3a7871f857cc9b5878c6bb66c394a6d109706095617db9f4e4c22edcd",
                    "0x05": "0x03",
                    "0x06": "0x6000ff0000000000000000000000000000000000000000000000000000000000"
                }
            },
            "0x1ad9bc24818784172ff393bb6f89f094d4d2ca29": {
                "nonce": "0x01",
                "balance": "0x3635c9adc5de7896be",
                "code": "0x",
                "storage": {}
            },
            "0xa386ad0d8071981082960f9e64396afda92a7444": {
                "nonce": "0x01",
                "balance": "0x00",
                "code": "0x6000ff",
                "storage": {}
            },
            "0x2adc25665018aa1fe0e6bc666dac8fc2697ff9ba": {
                "nonce": "0x00",
                "balance": "0x1bc16d674ed3d2c7",
                "code": "0x",
                "storage": {}
            }
        },
        "lastblockhash": "0x6532f0cc1bce715820ab607eaac610dd9347c8d7f85f8451fa324aff53f80495",
        "config": {
            "network": "London",
            "chainid": "0x01"
        },
        "genesisRLP": "0xf901faf901f5a00000000000000000000000000000000000000000000000000000000000000000a01dcc4de8dec75d7aab85b567b6ccd41ad312451b948a7413f0a142fd40d49347940000000000000000000000000000000000000000a0b7f753c5d68e2c979d3846f13b3fcc1564d37c566b2cbe8bfe5148032afef7f3a056e81f171bcc55a6ff8345e692c0f86e5b48e01b996cadc001622fb5e363b421a056e81f171bcc55a6ff8345e692c0f86e5b48e01b996cadc001622fb5e363b421b901000000000000000000000000000000000000000000000000000000000000000000000000000000000000000000000000000000000000000000000000000000000000000000000000000000000000000000000000000000000000000000000000000000000000000000000000000000000000000000000000000000000000000000000000000000000000000000000000000000000000000000000000000000000000000000000000000000000000000000000000000000000000000000000000000000000000000000000000000000000000000000000000000000000000000000000000000000000000000000000000000000000000000000000000000000000083020000808407270e00808000a0000000000000000000000000000000000000000000000000000000000000000088000000000000000007c0c0",
        "blocks": [
            {
                "blockHeader": {
                    "parentHash": "0xef781604dff0311f9a466a69c2bc8baed416c5cdd7ce19da7618bfd51aea3acc",
                    "uncleHash": "0x1dcc4de8dec75d7aab85b567b6ccd41ad312451b948a7413f0a142fd40d49347",
                    "coinbase": "0x2adc25665018aa1fe0e6bc666dac8fc2697ff9ba",
                    "stateRoot": "0x3414d2eb637c36844c6ab98c2cb498694a5eda12d75b9f744e2c2a5a11d4b050",
                    "transactionsTrie": "0x6f8199673f3cae9efb4dc7ba41e1bc0479f2c2c1c1a4153374325bd7e0de20b4",
                    "receiptTrie": "0xe0f371cb1e290074e2571fbc1741689b1ae6852d7229604b3472c3709646a850",
                    "bloom": "0x00000000000000000000000000000000000000000000000000000000000000000000000000000000000000000000000000000000000000000000000000000000000000000000000000000000000000000000000000000000000000000000000000000000000000000000000000000000000000000000000000000000000000000000000000000000000000000000000000000000000000000000000000000000000000000000000000000000000000000000000000000000000000000000000000000000000000000000000000000000000000000000000000000000000000000000000000000000000000000000000000000000000000000000000000000000",
                    "difficulty": "0x020000",
                    "number": "0x01",
                    "gasLimit": "0x07270e00",
                    "gasUsed": "0x03f0ed",
                    "timestamp": "0x03e8",
                    "extraData": "0x00",
                    "mixHash": "0x0000000000000000000000000000000000000000000000000000000000000000",
                    "nonce": "0x0000000000000000",
                    "baseFeePerGas": "0x07",
                    "hash": "0x6532f0cc1bce715820ab607eaac610dd9347c8d7f85f8451fa324aff53f80495"
                },
                "transactions": [
                    {
                        "type": "0x00",
                        "chainId": "0x01",
                        "nonce": "0x00",
                        "gasPrice": "0x0a",
                        "gasLimit": "0x0f4240",
                        "to": "0x0e76b1355a4470c8f32fecfc74cc88c97ffa3303",
                        "value": "0x00",
                        "data": "0x",
                        "v": "0x25",
                        "r": "0xbf45b37d4802c31d5d1ba4b335078769e13fde9aa52dfafc3a3585da4fed0002",
                        "s": "0x33335069b05aab9ae61d11841c4f941ef31b03aadc3461f2122de44c87152d6b",
                        "sender": "0x1ad9bc24818784172ff393bb6f89f094d4d2ca29"
                    }
                ],
                "uncleHeaders": [],
                "receipts": [
                    {
                        "transactionHash": "0x59bd347b63630ce190a994b166314cee3673bcc336f686432f42de5eb6768216",
                        "type": "0x00",
                        "cumulativeGasUsed": "0x03f0ed",
                        "bloom": "0x00000000000000000000000000000000000000000000000000000000000000000000000000000000000000000000000000000000000000000000000000000000000000000000000000000000000000000000000000000000000000000000000000000000000000000000000000000000000000000000000000000000000000000000000000000000000000000000000000000000000000000000000000000000000000000000000000000000000000000000000000000000000000000000000000000000000000000000000000000000000000000000000000000000000000000000000000000000000000000000000000000000000000000000000000000000",
                        "logs": [],
                        "status": true,
                        "rlp": "0xf90109018303f0edb9010000000000000000000000000000000000000000000000000000000000000000000000000000000000000000000000000000000000000000000000000000000000000000000000000000000000000000000000000000000000000000000000000000000000000000000000000000000000000000000000000000000000000000000000000000000000000000000000000000000000000000000000000000000000000000000000000000000000000000000000000000000000000000000000000000000000000000000000000000000000000000000000000000000000000000000000000000000000000000000000000000000000000000000000000000000000c0"
                    }
                ],
                "rlp": "0xf90262f901faa0ef781604dff0311f9a466a69c2bc8baed416c5cdd7ce19da7618bfd51aea3acca01dcc4de8dec75d7aab85b567b6ccd41ad312451b948a7413f0a142fd40d49347942adc25665018aa1fe0e6bc666dac8fc2697ff9baa03414d2eb637c36844c6ab98c2cb498694a5eda12d75b9f744e2c2a5a11d4b050a06f8199673f3cae9efb4dc7ba41e1bc0479f2c2c1c1a4153374325bd7e0de20b4a0e0f371cb1e290074e2571fbc1741689b1ae6852d7229604b3472c3709646a850b901000000000000000000000000000000000000000000000000000000000000000000000000000000000000000000000000000000000000000000000000000000000000000000000000000000000000000000000000000000000000000000000000000000000000000000000000000000000000000000000000000000000000000000000000000000000000000000000000000000000000000000000000000000000000000000000000000000000000000000000000000000000000000000000000000000000000000000000000000000000000000000000000000000000000000000000000000000000000000000000000000000000000000000000000000000000083020000018407270e008303f0ed8203e800a0000000000000000000000000000000000000000000000000000000000000000088000000000000000007f862f860800a830f4240940e76b1355a4470c8f32fecfc74cc88c97ffa3303808025a0bf45b37d4802c31d5d1ba4b335078769e13fde9aa52dfafc3a3585da4fed0002a033335069b05aab9ae61d11841c4f941ef31b03aadc3461f2122de44c87152d6bc0",
                "blocknumber": "1"
            }
        ],
        "sealEngine": "NoProof",
        "_info": {
            "hash": "0x00c9fd581c9c861c2cd79272be5c56eca97037123ee9244d16bac3aa4fbca03d",
            "fixture-format": "blockchain_test",
            "comment": "`execution-specs` generated test",
            "filling-transition-tool": "2.19.0",
            "description": "Test EXTCODEHASH of an account created and selfdestructed in same tx.\n\nCREATE2 a contract with SELFDESTRUCT code, check EXTCODEHASH,\nEXTCODESIZE, and EXTCODECOPY before and after triggering it. Within\nthe transaction, the values remain unchanged. With CALL the created\ncontract is deleted at end of transaction; with STATICCALL the\ntrigger fails and the contract persists.",
            "url": "https://github.com/ethereum/execution-specs/blob/tests-bal@v5.4.0/tests/constantinople/eip1052_extcodehash/test_extcodehash.py#L1316",
            "opcode_count": {},
            "reference-spec": "https://github.com/ethereum/EIPs/blob/master/EIPS/eip-1052.md",
            "reference-spec-version": "2dcbc7ce1563e9624e137e9d447374600af876fa"
        }
    }
}