{
    "tests/ported_static/stCreate2/test_create2collision_nonce.py::test_create2collision_nonce[fork_Cancun-blockchain_test_from_state_test-d0]": {
        "network": "Cancun",
        "genesisBlockHeader": {
            "parentHash": "0x0000000000000000000000000000000000000000000000000000000000000000",
            "uncleHash": "0x1dcc4de8dec75d7aab85b567b6ccd41ad312451b948a7413f0a142fd40d49347",
            "coinbase": "0x0000000000000000000000000000000000000000",
            "stateRoot": "0xad8bf9eee5db744b2494b632aecabfaf77a0853873ad3aee92eaffa6aec0dddb",
            "transactionsTrie": "0x56e81f171bcc55a6ff8345e692c0f86e5b48e01b996cadc001622fb5e363b421",
            "receiptTrie": "0x56e81f171bcc55a6ff8345e692c0f86e5b48e01b996cadc001622fb5e363b421",
            "bloom": "0x00000000000000000000000000000000000000000000000000000000000000000000000000000000000000000000000000000000000000000000000000000000000000000000000000000000000000000000000000000000000000000000000000000000000000000000000000000000000000000000000000000000000000000000000000000000000000000000000000000000000000000000000000000000000000000000000000000000000000000000000000000000000000000000000000000000000000000000000000000000000000000000000000000000000000000000000000000000000000000000000000000000000000000000000000000000",
            "difficulty": "0x00",
            "number": "0x00",
            "gasLimit": "0x0f4240",
            "gasUsed": "0x00",
            "timestamp": "0x00",
            "extraData": "0x00",
            "mixHash": "0x0000000000000000000000000000000000000000000000000000000000000000",
            "nonce": "0x0000000000000000",
            "baseFeePerGas": "0x0b",
            "withdrawalsRoot": "0x56e81f171bcc55a6ff8345e692c0f86e5b48e01b996cadc001622fb5e363b421",
            "blobGasUsed": "0x00",
            "excessBlobGas": "0x00",
            "parentBeaconBlockRoot": "0x0000000000000000000000000000000000000000000000000000000000000000",
            "hash": "0x8148ae9ff7b814f125c17de35e1f344d1ff8a089d49008d15ea401b4909b7b79"
        },
        "pre": {
            "0x000f3df6d732807ef1319fb7b8bb8522d0beac02": {
                "nonce": "0x01",
                "balance": "0x00",
                "code": "0x3373fffffffffffffffffffffffffffffffffffffffe14604d57602036146024575f5ffd5b5f35801560495762001fff810690815414603c575f5ffd5b62001fff01545f5260205ff35b5f5ffd5b62001fff42064281555f359062001fff015500",
                "storage": {}
            },
            "0xa94f5374fce5edbc8e2a8697c15331677e6ebf0b": {
                "nonce": "0x00",
                "balance": "0x0de0b6b3a7640000",
                "code": "0x",
                "storage": {}
            },
            "0xe2b35478fdd26477cc576dd906e6277761246a3c": {
                "nonce": "0x01",
                "balance": "0x00",
                "code": "0x",
                "storage": {}
            },
            "0xaf3ecba2fe09a4f6c19f16a9d119e44e08c2da01": {
                "nonce": "0x01",
                "balance": "0x00",
                "code": "0x",
                "storage": {}
            },
            "0xec2c6832d00680ece8ff9254f81fdab0a5a2ac50": {
                "nonce": "0x01",
                "balance": "0x00",
                "code": "0x",
                "storage": {}
            }
        },
        "postState": {
            "0x000f3df6d732807ef1319fb7b8bb8522d0beac02": {
                "nonce": "0x01",
                "balance": "0x00",
                "code": "0x3373fffffffffffffffffffffffffffffffffffffffe14604d57602036146024575f5ffd5b5f35801560495762001fff810690815414603c575f5ffd5b62001fff01545f5260205ff35b5f5ffd5b62001fff42064281555f359062001fff015500",
                "storage": {
                    "0x03e8": "0x03e8"
                }
            },
            "0xa94f5374fce5edbc8e2a8697c15331677e6ebf0b": {
                "nonce": "0x01",
                "balance": "0x0de0b6b3a727b72f",
                "code": "0x",
                "storage": {}
            },
            "0xe2b35478fdd26477cc576dd906e6277761246a3c": {
                "nonce": "0x01",
                "balance": "0x00",
                "code": "0x",
                "storage": {}
            },
            "0xaf3ecba2fe09a4f6c19f16a9d119e44e08c2da01": {
                "nonce": "0x01",
                "balance": "0x00",
                "code": "0x",
                "storage": {}
            },
            "0xec2c6832d00680ece8ff9254f81fdab0a5a2ac50": {
                "nonce": "0x01",
                "balance": "0x00",
                "code": "0x",
                "storage": {}
            },
            "0x6295ee1b4f6dd65047762f924ecd367c17eabf8f": {
                "nonce": "0x02",
                "balance": "0x01",
                "code": "0x",
                "storage": {}
            }
        },
        "lastblockhash": "0xac0a51479aa8df1d62397adcad1049bf2f2deabededa6a475cb03a61ddeb74ae",
        "config": {
            "network": "Cancun",
            "chainid": "0x01",
            "blobSchedule": {
                "Cancun": {
                    "target": "0x03",
                    "max": "0x06",
                    "baseFeeUpdateFraction": "0x32f0ed"
                }
            }
        },
        "genesisRLP": "0xf9023bf90235a00000000000000000000000000000000000000000000000000000000000000000a01dcc4de8dec75d7aab85b567b6ccd41ad312451b948a7413f0a142fd40d49347940000000000000000000000000000000000000000a0ad8bf9eee5db744b2494b632aecabfaf77a0853873ad3aee92eaffa6aec0dddba056e81f171bcc55a6ff8345e692c0f86e5b48e01b996cadc001622fb5e363b421a056e81f171bcc55a6ff8345e692c0f86e5b48e01b996cadc001622fb5e363b421b90100000000000000000000000000000000000000000000000000000000000000000000000000000000000000000000000000000000000000000000000000000000000000000000000000000000000000000000000000000000000000000000000000000000000000000000000000000000000000000000000000000000000000000000000000000000000000000000000000000000000000000000000000000000000000000000000000000000000000000000000000000000000000000000000000000000000000000000000000000000000000000000000000000000000000000000000000000000000000000000000000000000000000000000000000000000008080830f4240808000a000000000000000000000000000000000000000000000000000000000000000008800000000000000000ba056e81f171bcc55a6ff8345e692c0f86e5b48e01b996cadc001622fb5e363b4218080a00000000000000000000000000000000000000000000000000000000000000000c0c0c0",
        "blocks": [
            {
                "blockHeader": {
                    "parentHash": "0x8148ae9ff7b814f125c17de35e1f344d1ff8a089d49008d15ea401b4909b7b79",
                    "uncleHash": "0x1dcc4de8dec75d7aab85b567b6ccd41ad312451b948a7413f0a142fd40d49347",
                    "coinbase": "0x2adc25665018aa1fe0e6bc666dac8fc2697ff9ba",
                    "stateRoot": "0x9509e77bb9427614c58583ef06dc3c5fb45813273840fab9676c74e3310debb9",
                    "transactionsTrie": "0x623e3758a4b5481fa95d4501594abc28ac2fe1aea9490ff8d61a96dc54aa86d5",
                    "receiptTrie": "0xeaae2f195f698ffb64d3d7ed716c4ae3f2813f0ac0dc61d501cfccff8c70a56d",
                    "bloom": "0x00000000000000000000000000000000000000000000000000000000000000000000000000000000000000000000000000000000000000000000000000000000000000000000000000000000000000000000000000000000000000000000000000000000000000000000000000000000000000000000000000000000000000000000000000000000000000000000000000000000000000000000000000000000000000000000000000000000000000000000000000000000000000000000000000000000000000000000000000000000000000000000000000000000000000000000000000000000000000000000000000000000000000000000000000000000",
                    "difficulty": "0x00",
                    "number": "0x01",
                    "gasLimit": "0x0f4240",
                    "gasUsed": "0x060748",
                    "timestamp": "0x03e8",
                    "extraData": "0x00",
                    "mixHash": "0x0000000000000000000000000000000000000000000000000000000000020000",
                    "nonce": "0x0000000000000000",
                    "baseFeePerGas": "0x0a",
                    "withdrawalsRoot": "0x56e81f171bcc55a6ff8345e692c0f86e5b48e01b996cadc001622fb5e363b421",
                    "blobGasUsed": "0x00",
                    "excessBlobGas": "0x00",
                    "parentBeaconBlockRoot": "0x0000000000000000000000000000000000000000000000000000000000000000",
                    "hash": "0xac0a51479aa8df1d62397adcad1049bf2f2deabededa6a475cb03a61ddeb74ae"
                },
                "transactions": [
                    {
                        "type": "0x00",
                        "chainId": "0x01",
                        "nonce": "0x00",
                        "gasPrice": "0x0a",
                        "gasLimit": "0x061a80",
                        "value": "0x01",
                        "data": "0x6000600060006000f500",
                        "v": "0x26",
                        "r": "0x4699bc2be4bf9e8104dc44723962d96bd46c47d9c6f8a7abb84ff4a2916ecd52",
                        "s": "0x12a302f47ff824cf185123cb1dad8e8402f048defc27dc4782c2b3203abe5894",
                        "sender": "0xa94f5374fce5edbc8e2a8697c15331677e6ebf0b",
                        "to": ""
                    }
                ],
                "uncleHeaders": [],
                "withdrawals": [],
                "receipts": [
                    {
                        "transactionHash": "0x35b0cfaaa3403f91d607c6fa99cdbfbfb1b5b165da5ab89f8c606c8d5d8aea07",
                        "type": "0x00",
                        "cumulativeGasUsed": "0x060748",
                        "bloom": "0x00000000000000000000000000000000000000000000000000000000000000000000000000000000000000000000000000000000000000000000000000000000000000000000000000000000000000000000000000000000000000000000000000000000000000000000000000000000000000000000000000000000000000000000000000000000000000000000000000000000000000000000000000000000000000000000000000000000000000000000000000000000000000000000000000000000000000000000000000000000000000000000000000000000000000000000000000000000000000000000000000000000000000000000000000000000",
                        "logs": [],
                        "status": true,
                        "rlp": "0xf901090183060748b9010000000000000000000000000000000000000000000000000000000000000000000000000000000000000000000000000000000000000000000000000000000000000000000000000000000000000000000000000000000000000000000000000000000000000000000000000000000000000000000000000000000000000000000000000000000000000000000000000000000000000000000000000000000000000000000000000000000000000000000000000000000000000000000000000000000000000000000000000000000000000000000000000000000000000000000000000000000000000000000000000000000000000000000000000000000000c0"
                    }
                ],
                "rlp": "0xf90299f9023aa08148ae9ff7b814f125c17de35e1f344d1ff8a089d49008d15ea401b4909b7b79a01dcc4de8dec75d7aab85b567b6ccd41ad312451b948a7413f0a142fd40d49347942adc25665018aa1fe0e6bc666dac8fc2697ff9baa09509e77bb9427614c58583ef06dc3c5fb45813273840fab9676c74e3310debb9a0623e3758a4b5481fa95d4501594abc28ac2fe1aea9490ff8d61a96dc54aa86d5a0eaae2f195f698ffb64d3d7ed716c4ae3f2813f0ac0dc61d501cfccff8c70a56db90100000000000000000000000000000000000000000000000000000000000000000000000000000000000000000000000000000000000000000000000000000000000000000000000000000000000000000000000000000000000000000000000000000000000000000000000000000000000000000000000000000000000000000000000000000000000000000000000000000000000000000000000000000000000000000000000000000000000000000000000000000000000000000000000000000000000000000000000000000000000000000000000000000000000000000000000000000000000000000000000000000000000000000000000000000000008001830f4240830607488203e800a000000000000000000000000000000000000000000000000000000000000200008800000000000000000aa056e81f171bcc55a6ff8345e692c0f86e5b48e01b996cadc001622fb5e363b4218080a00000000000000000000000000000000000000000000000000000000000000000f858f856800a83061a8080018a6000600060006000f50026a04699bc2be4bf9e8104dc44723962d96bd46c47d9c6f8a7abb84ff4a2916ecd52a012a302f47ff824cf185123cb1dad8e8402f048defc27dc4782c2b3203abe5894c0c0",
                "blocknumber": "1"
            }
        ],
        "sealEngine": "NoProof",
        "_info": {
            "hash": "0xc8d5d2b9916c3f056f3894301c92c42aa0d28e7cdf01c272249f110d6efdc7b8",
            "fixture-format": "blockchain_test",
            "comment": "`execution-specs` generated test",
            "filling-transition-tool": "2.19.0",
            "description": "Create2 generates an account that already exists and has nonce != 0.",
            "url": "https://github.com/ethereum/execution-specs/blob/tests-bal@v5.6.1/tests/ported_static/stCreate2/test_create2collision_nonce.py#L26",
            "metadata": {
                "opcode_count": {}
            }
        }
    },
    "tests/ported_static/stCreate2/test_create2collision_nonce.py::test_create2collision_nonce[fork_Cancun-blockchain_test_from_state_test-d1]": {
        "network": "Cancun",
        "genesisBlockHeader": {
            "parentHash": "0x0000000000000000000000000000000000000000000000000000000000000000",
            "uncleHash": "0x1dcc4de8dec75d7aab85b567b6ccd41ad312451b948a7413f0a142fd40d49347",
            "coinbase": "0x0000000000000000000000000000000000000000",
            "stateRoot": "0xad8bf9eee5db744b2494b632aecabfaf77a0853873ad3aee92eaffa6aec0dddb",
            "transactionsTrie": "0x56e81f171bcc55a6ff8345e692c0f86e5b48e01b996cadc001622fb5e363b421",
            "receiptTrie": "0x56e81f171bcc55a6ff8345e692c0f86e5b48e01b996cadc001622fb5e363b421",
            "bloom": "0x00000000000000000000000000000000000000000000000000000000000000000000000000000000000000000000000000000000000000000000000000000000000000000000000000000000000000000000000000000000000000000000000000000000000000000000000000000000000000000000000000000000000000000000000000000000000000000000000000000000000000000000000000000000000000000000000000000000000000000000000000000000000000000000000000000000000000000000000000000000000000000000000000000000000000000000000000000000000000000000000000000000000000000000000000000000",
            "difficulty": "0x00",
            "number": "0x00",
            "gasLimit": "0x0f4240",
            "gasUsed": "0x00",
            "timestamp": "0x00",
            "extraData": "0x00",
            "mixHash": "0x0000000000000000000000000000000000000000000000000000000000000000",
            "nonce": "0x0000000000000000",
            "baseFeePerGas": "0x0b",
            "withdrawalsRoot": "0x56e81f171bcc55a6ff8345e692c0f86e5b48e01b996cadc001622fb5e363b421",
            "blobGasUsed": "0x00",
            "excessBlobGas": "0x00",
            "parentBeaconBlockRoot": "0x0000000000000000000000000000000000000000000000000000000000000000",
            "hash": "0x8148ae9ff7b814f125c17de35e1f344d1ff8a089d49008d15ea401b4909b7b79"
        },
        "pre": {
            "0x000f3df6d732807ef1319fb7b8bb8522d0beac02": {
                "nonce": "0x01",
                "balance": "0x00",
                "code": "0x3373fffffffffffffffffffffffffffffffffffffffe14604d57602036146024575f5ffd5b5f35801560495762001fff810690815414603c575f5ffd5b62001fff01545f5260205ff35b5f5ffd5b62001fff42064281555f359062001fff015500",
                "storage": {}
            },
            "0xa94f5374fce5edbc8e2a8697c15331677e6ebf0b": {
                "nonce": "0x00",
                "balance": "0x0de0b6b3a7640000",
                "code": "0x",
                "storage": {}
            },
            "0xe2b35478fdd26477cc576dd906e6277761246a3c": {
                "nonce": "0x01",
                "balance": "0x00",
                "code": "0x",
                "storage": {}
            },
            "0xaf3ecba2fe09a4f6c19f16a9d119e44e08c2da01": {
                "nonce": "0x01",
                "balance": "0x00",
                "code": "0x",
                "storage": {}
            },
            "0xec2c6832d00680ece8ff9254f81fdab0a5a2ac50": {
                "nonce": "0x01",
                "balance": "0x00",
                "code": "0x",
                "storage": {}
            }
        },
        "postState": {
            "0x000f3df6d732807ef1319fb7b8bb8522d0beac02": {
                "nonce": "0x01",
                "balance": "0x00",
                "code": "0x3373fffffffffffffffffffffffffffffffffffffffe14604d57602036146024575f5ffd5b5f35801560495762001fff810690815414603c575f5ffd5b62001fff01545f5260205ff35b5f5ffd5b62001fff42064281555f359062001fff015500",
                "storage": {
                    "0x03e8": "0x03e8"
                }
            },
            "0xa94f5374fce5edbc8e2a8697c15331677e6ebf0b": {
                "nonce": "0x01",
                "balance": "0x0de0b6b3a727b711",
                "code": "0x",
                "storage": {}
            },
            "0xe2b35478fdd26477cc576dd906e6277761246a3c": {
                "nonce": "0x01",
                "balance": "0x00",
                "code": "0x",
                "storage": {}
            },
            "0xaf3ecba2fe09a4f6c19f16a9d119e44e08c2da01": {
                "nonce": "0x01",
                "balance": "0x00",
                "code": "0x",
                "storage": {}
            },
            "0xec2c6832d00680ece8ff9254f81fdab0a5a2ac50": {
                "nonce": "0x01",
                "balance": "0x00",
                "code": "0x",
                "storage": {}
            },
            "0x6295ee1b4f6dd65047762f924ecd367c17eabf8f": {
                "nonce": "0x02",
                "balance": "0x01",
                "code": "0x",
                "storage": {}
            }
        },
        "lastblockhash": "0xdf747458bab5bc34aeab0b5b2e16e5ccc781c30eea303367f6b67d5e0ce0f851",
        "config": {
            "network": "Cancun",
            "chainid": "0x01",
            "blobSchedule": {
                "Cancun": {
                    "target": "0x03",
                    "max": "0x06",
                    "baseFeeUpdateFraction": "0x32f0ed"
                }
            }
        },
        "genesisRLP": "0xf9023bf90235a00000000000000000000000000000000000000000000000000000000000000000a01dcc4de8dec75d7aab85b567b6ccd41ad312451b948a7413f0a142fd40d49347940000000000000000000000000000000000000000a0ad8bf9eee5db744b2494b632aecabfaf77a0853873ad3aee92eaffa6aec0dddba056e81f171bcc55a6ff8345e692c0f86e5b48e01b996cadc001622fb5e363b421a056e81f171bcc55a6ff8345e692c0f86e5b48e01b996cadc001622fb5e363b421b90100000000000000000000000000000000000000000000000000000000000000000000000000000000000000000000000000000000000000000000000000000000000000000000000000000000000000000000000000000000000000000000000000000000000000000000000000000000000000000000000000000000000000000000000000000000000000000000000000000000000000000000000000000000000000000000000000000000000000000000000000000000000000000000000000000000000000000000000000000000000000000000000000000000000000000000000000000000000000000000000000000000000000000000000000000000008080830f4240808000a000000000000000000000000000000000000000000000000000000000000000008800000000000000000ba056e81f171bcc55a6ff8345e692c0f86e5b48e01b996cadc001622fb5e363b4218080a00000000000000000000000000000000000000000000000000000000000000000c0c0c0",
        "blocks": [
            {
                "blockHeader": {
                    "parentHash": "0x8148ae9ff7b814f125c17de35e1f344d1ff8a089d49008d15ea401b4909b7b79",
                    "uncleHash": "0x1dcc4de8dec75d7aab85b567b6ccd41ad312451b948a7413f0a142fd40d49347",
                    "coinbase": "0x2adc25665018aa1fe0e6bc666dac8fc2697ff9ba",
                    "stateRoot": "0xd9266fc2dd580e5eaa309d7eeef98d53cc659e45a0259070aed2dbb69c757c0e",
                    "transactionsTrie": "0xb0ec9b013bfe5bf57e84494b1f5517cc11fd1ad0b3e2dd439084daef43c94e24",
                    "receiptTrie": "0xa19b84db221733eb62876910dbba8eab0819b65d0b1cad2df2fb4536fb6a1c41",
                    "bloom": "0x00000000000000000000000000000000000000000000000000000000000000000000000000000000000000000000000000000000000000000000000000000000000000000000000000000000000000000000000000000000000000000000000000000000000000000000000000000000000000000000000000000000000000000000000000000000000000000000000000000000000000000000000000000000000000000000000000000000000000000000000000000000000000000000000000000000000000000000000000000000000000000000000000000000000000000000000000000000000000000000000000000000000000000000000000000000",
                    "difficulty": "0x00",
                    "number": "0x01",
                    "gasLimit": "0x0f4240",
                    "gasUsed": "0x06074b",
                    "timestamp": "0x03e8",
                    "extraData": "0x00",
                    "mixHash": "0x0000000000000000000000000000000000000000000000000000000000020000",
                    "nonce": "0x0000000000000000",
                    "baseFeePerGas": "0x0a",
                    "withdrawalsRoot": "0x56e81f171bcc55a6ff8345e692c0f86e5b48e01b996cadc001622fb5e363b421",
                    "blobGasUsed": "0x00",
                    "excessBlobGas": "0x00",
                    "parentBeaconBlockRoot": "0x0000000000000000000000000000000000000000000000000000000000000000",
                    "hash": "0xdf747458bab5bc34aeab0b5b2e16e5ccc781c30eea303367f6b67d5e0ce0f851"
                },
                "transactions": [
                    {
                        "type": "0x00",
                        "chainId": "0x01",
                        "nonce": "0x00",
                        "gasPrice": "0x0a",
                        "gasLimit": "0x061a80",
                        "value": "0x01",
                        "data": "0x64600160015560005260006005601b6000f500",
                        "v": "0x26",
                        "r": "0x014b653f4329258933c17c8132efccfa57dba0bf09bf78b3a4b4b1c5ceed079c",
                        "s": "0x3a461036765a4001b41cee3c60af5c04758701dfd0a1565231d91aa3ab31e55d",
                        "sender": "0xa94f5374fce5edbc8e2a8697c15331677e6ebf0b",
                        "to": ""
                    }
                ],
                "uncleHeaders": [],
                "withdrawals": [],
                "receipts": [
                    {
                        "transactionHash": "0x5bc563a1068d2d2840dd2c0d9b69e43e95cd95fced647e20e2c8ec9e480a40ae",
                        "type": "0x00",
                        "cumulativeGasUsed": "0x06074b",
                        "bloom": "0x00000000000000000000000000000000000000000000000000000000000000000000000000000000000000000000000000000000000000000000000000000000000000000000000000000000000000000000000000000000000000000000000000000000000000000000000000000000000000000000000000000000000000000000000000000000000000000000000000000000000000000000000000000000000000000000000000000000000000000000000000000000000000000000000000000000000000000000000000000000000000000000000000000000000000000000000000000000000000000000000000000000000000000000000000000000",
                        "logs": [],
                        "status": true,
                        "rlp": "0xf90109018306074bb9010000000000000000000000000000000000000000000000000000000000000000000000000000000000000000000000000000000000000000000000000000000000000000000000000000000000000000000000000000000000000000000000000000000000000000000000000000000000000000000000000000000000000000000000000000000000000000000000000000000000000000000000000000000000000000000000000000000000000000000000000000000000000000000000000000000000000000000000000000000000000000000000000000000000000000000000000000000000000000000000000000000000000000000000000000000000c0"
                    }
                ],
                "rlp": "0xf902a2f9023aa08148ae9ff7b814f125c17de35e1f344d1ff8a089d49008d15ea401b4909b7b79a01dcc4de8dec75d7aab85b567b6ccd41ad312451b948a7413f0a142fd40d49347942adc25665018aa1fe0e6bc666dac8fc2697ff9baa0d9266fc2dd580e5eaa309d7eeef98d53cc659e45a0259070aed2dbb69c757c0ea0b0ec9b013bfe5bf57e84494b1f5517cc11fd1ad0b3e2dd439084daef43c94e24a0a19b84db221733eb62876910dbba8eab0819b65d0b1cad2df2fb4536fb6a1c41b90100000000000000000000000000000000000000000000000000000000000000000000000000000000000000000000000000000000000000000000000000000000000000000000000000000000000000000000000000000000000000000000000000000000000000000000000000000000000000000000000000000000000000000000000000000000000000000000000000000000000000000000000000000000000000000000000000000000000000000000000000000000000000000000000000000000000000000000000000000000000000000000000000000000000000000000000000000000000000000000000000000000000000000000000000000000008001830f42408306074b8203e800a000000000000000000000000000000000000000000000000000000000000200008800000000000000000aa056e81f171bcc55a6ff8345e692c0f86e5b48e01b996cadc001622fb5e363b4218080a00000000000000000000000000000000000000000000000000000000000000000f861f85f800a83061a8080019364600160015560005260006005601b6000f50026a0014b653f4329258933c17c8132efccfa57dba0bf09bf78b3a4b4b1c5ceed079ca03a461036765a4001b41cee3c60af5c04758701dfd0a1565231d91aa3ab31e55dc0c0",
                "blocknumber": "1"
            }
        ],
        "sealEngine": "NoProof",
        "_info": {
            "hash": "0x3a1f8fa2858a87a233d0fd0302d1faa562cd6618d3e7093d3581716737790b69",
            "fixture-format": "blockchain_test",
            "comment": "`execution-specs` generated test",
            "filling-transition-tool": "2.19.0",
            "description": "Create2 generates an account that already exists and has nonce != 0.",
            "url": "https://github.com/ethereum/execution-specs/blob/tests-bal@v5.6.1/tests/ported_static/stCreate2/test_create2collision_nonce.py#L26",
            "metadata": {
                "opcode_count": {}
            }
        }
    },
    "tests/ported_static/stCreate2/test_create2collision_nonce.py::test_create2collision_nonce[fork_Cancun-blockchain_test_from_state_test-d2]": {
        "network": "Cancun",
        "genesisBlockHeader": {
            "parentHash": "0x0000000000000000000000000000000000000000000000000000000000000000",
            "uncleHash": "0x1dcc4de8dec75d7aab85b567b6ccd41ad312451b948a7413f0a142fd40d49347",
            "coinbase": "0x0000000000000000000000000000000000000000",
            "stateRoot": "0xad8bf9eee5db744b2494b632aecabfaf77a0853873ad3aee92eaffa6aec0dddb",
            "transactionsTrie": "0x56e81f171bcc55a6ff8345e692c0f86e5b48e01b996cadc001622fb5e363b421",
            "receiptTrie": "0x56e81f171bcc55a6ff8345e692c0f86e5b48e01b996cadc001622fb5e363b421",
            "bloom": "0x00000000000000000000000000000000000000000000000000000000000000000000000000000000000000000000000000000000000000000000000000000000000000000000000000000000000000000000000000000000000000000000000000000000000000000000000000000000000000000000000000000000000000000000000000000000000000000000000000000000000000000000000000000000000000000000000000000000000000000000000000000000000000000000000000000000000000000000000000000000000000000000000000000000000000000000000000000000000000000000000000000000000000000000000000000000",
            "difficulty": "0x00",
            "number": "0x00",
            "gasLimit": "0x0f4240",
            "gasUsed": "0x00",
            "timestamp": "0x00",
            "extraData": "0x00",
            "mixHash": "0x0000000000000000000000000000000000000000000000000000000000000000",
            "nonce": "0x0000000000000000",
            "baseFeePerGas": "0x0b",
            "withdrawalsRoot": "0x56e81f171bcc55a6ff8345e692c0f86e5b48e01b996cadc001622fb5e363b421",
            "blobGasUsed": "0x00",
            "excessBlobGas": "0x00",
            "parentBeaconBlockRoot": "0x0000000000000000000000000000000000000000000000000000000000000000",
            "hash": "0x8148ae9ff7b814f125c17de35e1f344d1ff8a089d49008d15ea401b4909b7b79"
        },
        "pre": {
            "0x000f3df6d732807ef1319fb7b8bb8522d0beac02": {
                "nonce": "0x01",
                "balance": "0x00",
                "code": "0x3373fffffffffffffffffffffffffffffffffffffffe14604d57602036146024575f5ffd5b5f35801560495762001fff810690815414603c575f5ffd5b62001fff01545f5260205ff35b5f5ffd5b62001fff42064281555f359062001fff015500",
                "storage": {}
            },
            "0xa94f5374fce5edbc8e2a8697c15331677e6ebf0b": {
                "nonce": "0x00",
                "balance": "0x0de0b6b3a7640000",
                "code": "0x",
                "storage": {}
            },
            "0xe2b35478fdd26477cc576dd906e6277761246a3c": {
                "nonce": "0x01",
                "balance": "0x00",
                "code": "0x",
                "storage": {}
            },
            "0xaf3ecba2fe09a4f6c19f16a9d119e44e08c2da01": {
                "nonce": "0x01",
                "balance": "0x00",
                "code": "0x",
                "storage": {}
            },
            "0xec2c6832d00680ece8ff9254f81fdab0a5a2ac50": {
                "nonce": "0x01",
                "balance": "0x00",
                "code": "0x",
                "storage": {}
            }
        },
        "postState": {
            "0x000f3df6d732807ef1319fb7b8bb8522d0beac02": {
                "nonce": "0x01",
                "balance": "0x00",
                "code": "0x3373fffffffffffffffffffffffffffffffffffffffe14604d57602036146024575f5ffd5b5f35801560495762001fff810690815414603c575f5ffd5b62001fff01545f5260205ff35b5f5ffd5b62001fff42064281555f359062001fff015500",
                "storage": {
                    "0x03e8": "0x03e8"
                }
            },
            "0xa94f5374fce5edbc8e2a8697c15331677e6ebf0b": {
                "nonce": "0x01",
                "balance": "0x0de0b6b3a727b6fd",
                "code": "0x",
                "storage": {}
            },
            "0xe2b35478fdd26477cc576dd906e6277761246a3c": {
                "nonce": "0x01",
                "balance": "0x00",
                "code": "0x",
                "storage": {}
            },
            "0xaf3ecba2fe09a4f6c19f16a9d119e44e08c2da01": {
                "nonce": "0x01",
                "balance": "0x00",
                "code": "0x",
                "storage": {}
            },
            "0xec2c6832d00680ece8ff9254f81fdab0a5a2ac50": {
                "nonce": "0x01",
                "balance": "0x00",
                "code": "0x",
                "storage": {}
            },
            "0x6295ee1b4f6dd65047762f924ecd367c17eabf8f": {
                "nonce": "0x02",
                "balance": "0x01",
                "code": "0x",
                "storage": {}
            }
        },
        "lastblockhash": "0x85a0fc58cec3b016d436a1bef2d21c46dfc2c3f5e1e19546ed4b0d864ad99d4a",
        "config": {
            "network": "Cancun",
            "chainid": "0x01",
            "blobSchedule": {
                "Cancun": {
                    "target": "0x03",
                    "max": "0x06",
                    "baseFeeUpdateFraction": "0x32f0ed"
                }
            }
        },
        "genesisRLP": "0xf9023bf90235a00000000000000000000000000000000000000000000000000000000000000000a01dcc4de8dec75d7aab85b567b6ccd41ad312451b948a7413f0a142fd40d49347940000000000000000000000000000000000000000a0ad8bf9eee5db744b2494b632aecabfaf77a0853873ad3aee92eaffa6aec0dddba056e81f171bcc55a6ff8345e692c0f86e5b48e01b996cadc001622fb5e363b421a056e81f171bcc55a6ff8345e692c0f86e5b48e01b996cadc001622fb5e363b421b90100000000000000000000000000000000000000000000000000000000000000000000000000000000000000000000000000000000000000000000000000000000000000000000000000000000000000000000000000000000000000000000000000000000000000000000000000000000000000000000000000000000000000000000000000000000000000000000000000000000000000000000000000000000000000000000000000000000000000000000000000000000000000000000000000000000000000000000000000000000000000000000000000000000000000000000000000000000000000000000000000000000000000000000000000000000008080830f4240808000a000000000000000000000000000000000000000000000000000000000000000008800000000000000000ba056e81f171bcc55a6ff8345e692c0f86e5b48e01b996cadc001622fb5e363b4218080a00000000000000000000000000000000000000000000000000000000000000000c0c0c0",
        "blocks": [
            {
                "blockHeader": {
                    "parentHash": "0x8148ae9ff7b814f125c17de35e1f344d1ff8a089d49008d15ea401b4909b7b79",
                    "uncleHash": "0x1dcc4de8dec75d7aab85b567b6ccd41ad312451b948a7413f0a142fd40d49347",
                    "coinbase": "0x2adc25665018aa1fe0e6bc666dac8fc2697ff9ba",
                    "stateRoot": "0x14ff49383333d300224a003773499f5b711c9ec96193de8051932768e70e7f94",
                    "transactionsTrie": "0xfbbf38ffc7717bfa8cfc90b41361632abea1d231f67b45d5b2d5e4e5a1c1495c",
                    "receiptTrie": "0x4519b8e551fcc391f19641697f2749dc356ba5cfc397b5360babdefa6a5a7718",
                    "bloom": "0x00000000000000000000000000000000000000000000000000000000000000000000000000000000000000000000000000000000000000000000000000000000000000000000000000000000000000000000000000000000000000000000000000000000000000000000000000000000000000000000000000000000000000000000000000000000000000000000000000000000000000000000000000000000000000000000000000000000000000000000000000000000000000000000000000000000000000000000000000000000000000000000000000000000000000000000000000000000000000000000000000000000000000000000000000000000",
                    "difficulty": "0x00",
                    "number": "0x01",
                    "gasLimit": "0x0f4240",
                    "gasUsed": "0x06074d",
                    "timestamp": "0x03e8",
                    "extraData": "0x00",
                    "mixHash": "0x0000000000000000000000000000000000000000000000000000000000020000",
                    "nonce": "0x0000000000000000",
                    "baseFeePerGas": "0x0a",
                    "withdrawalsRoot": "0x56e81f171bcc55a6ff8345e692c0f86e5b48e01b996cadc001622fb5e363b421",
                    "blobGasUsed": "0x00",
                    "excessBlobGas": "0x00",
                    "parentBeaconBlockRoot": "0x0000000000000000000000000000000000000000000000000000000000000000",
                    "hash": "0x85a0fc58cec3b016d436a1bef2d21c46dfc2c3f5e1e19546ed4b0d864ad99d4a"
                },
                "transactions": [
                    {
                        "type": "0x00",
                        "chainId": "0x01",
                        "nonce": "0x00",
                        "gasPrice": "0x0a",
                        "gasLimit": "0x061a80",
                        "value": "0x01",
                        "data": "0x6d6460016001556000526005601bf36000526000600e60126000f500",
                        "v": "0x25",
                        "r": "0x374028c2df3bd6bc26ae6f0b0ab3ed3bc430a146f6251838b0d17b0b601698b5",
                        "s": "0x4f585384323041f33a22d0b2ebbed387a492de81c15c9e33ee5544cbf8b5a85f",
                        "sender": "0xa94f5374fce5edbc8e2a8697c15331677e6ebf0b",
                        "to": ""
                    }
                ],
                "uncleHeaders": [],
                "withdrawals": [],
                "receipts": [
                    {
                        "transactionHash": "0xfac3a752d7aacfa58da9705dc03854db577810fca518339d8ae541ba345578ab",
                        "type": "0x00",
                        "cumulativeGasUsed": "0x06074d",
                        "bloom": "0x00000000000000000000000000000000000000000000000000000000000000000000000000000000000000000000000000000000000000000000000000000000000000000000000000000000000000000000000000000000000000000000000000000000000000000000000000000000000000000000000000000000000000000000000000000000000000000000000000000000000000000000000000000000000000000000000000000000000000000000000000000000000000000000000000000000000000000000000000000000000000000000000000000000000000000000000000000000000000000000000000000000000000000000000000000000",
                        "logs": [],
                        "status": true,
                        "rlp": "0xf90109018306074db9010000000000000000000000000000000000000000000000000000000000000000000000000000000000000000000000000000000000000000000000000000000000000000000000000000000000000000000000000000000000000000000000000000000000000000000000000000000000000000000000000000000000000000000000000000000000000000000000000000000000000000000000000000000000000000000000000000000000000000000000000000000000000000000000000000000000000000000000000000000000000000000000000000000000000000000000000000000000000000000000000000000000000000000000000000000000c0"
                    }
                ],
                "rlp": "0xf902abf9023aa08148ae9ff7b814f125c17de35e1f344d1ff8a089d49008d15ea401b4909b7b79a01dcc4de8dec75d7aab85b567b6ccd41ad312451b948a7413f0a142fd40d49347942adc25665018aa1fe0e6bc666dac8fc2697ff9baa014ff49383333d300224a003773499f5b711c9ec96193de8051932768e70e7f94a0fbbf38ffc7717bfa8cfc90b41361632abea1d231f67b45d5b2d5e4e5a1c1495ca04519b8e551fcc391f19641697f2749dc356ba5cfc397b5360babdefa6a5a7718b90100000000000000000000000000000000000000000000000000000000000000000000000000000000000000000000000000000000000000000000000000000000000000000000000000000000000000000000000000000000000000000000000000000000000000000000000000000000000000000000000000000000000000000000000000000000000000000000000000000000000000000000000000000000000000000000000000000000000000000000000000000000000000000000000000000000000000000000000000000000000000000000000000000000000000000000000000000000000000000000000000000000000000000000000000000000008001830f42408306074d8203e800a000000000000000000000000000000000000000000000000000000000000200008800000000000000000aa056e81f171bcc55a6ff8345e692c0f86e5b48e01b996cadc001622fb5e363b4218080a00000000000000000000000000000000000000000000000000000000000000000f86af868800a83061a8080019c6d6460016001556000526005601bf36000526000600e60126000f50025a0374028c2df3bd6bc26ae6f0b0ab3ed3bc430a146f6251838b0d17b0b601698b5a04f585384323041f33a22d0b2ebbed387a492de81c15c9e33ee5544cbf8b5a85fc0c0",
                "blocknumber": "1"
            }
        ],
        "sealEngine": "NoProof",
        "_info": {
            "hash": "0x84a54c424bfd0b1ffa28e206a323594f5b3c395a74d68ad3b2d1e72bbc492861",
            "fixture-format": "blockchain_test",
            "comment": "`execution-specs` generated test",
            "filling-transition-tool": "2.19.0",
            "description": "Create2 generates an account that already exists and has nonce != 0.",
            "url": "https://github.com/ethereum/execution-specs/blob/tests-bal@v5.6.1/tests/ported_static/stCreate2/test_create2collision_nonce.py#L26",
            "metadata": {
                "opcode_count": {}
            }
        }
    }
}