{
    "tests/ported_static/stMemoryTest/test_log2_dejavu.py::test_log2_dejavu[fork_Cancun-blockchain_test_from_state_test]": {
        "network": "Cancun",
        "genesisBlockHeader": {
            "parentHash": "0x0000000000000000000000000000000000000000000000000000000000000000",
            "uncleHash": "0x1dcc4de8dec75d7aab85b567b6ccd41ad312451b948a7413f0a142fd40d49347",
            "coinbase": "0x0000000000000000000000000000000000000000",
            "stateRoot": "0x284aff352aa460760669eedd9802097a3c8a411ad4f7cef4a0711cc1dfacaba4",
            "transactionsTrie": "0x56e81f171bcc55a6ff8345e692c0f86e5b48e01b996cadc001622fb5e363b421",
            "receiptTrie": "0x56e81f171bcc55a6ff8345e692c0f86e5b48e01b996cadc001622fb5e363b421",
            "bloom": "0x00000000000000000000000000000000000000000000000000000000000000000000000000000000000000000000000000000000000000000000000000000000000000000000000000000000000000000000000000000000000000000000000000000000000000000000000000000000000000000000000000000000000000000000000000000000000000000000000000000000000000000000000000000000000000000000000000000000000000000000000000000000000000000000000000000000000000000000000000000000000000000000000000000000000000000000000000000000000000000000000000000000000000000000000000000000",
            "difficulty": "0x00",
            "number": "0x00",
            "gasLimit": "0x0c540be400",
            "gasUsed": "0x00",
            "timestamp": "0x00",
            "extraData": "0x00",
            "mixHash": "0x0000000000000000000000000000000000000000000000000000000000000000",
            "nonce": "0x0000000000000000",
            "baseFeePerGas": "0x0b",
            "withdrawalsRoot": "0x56e81f171bcc55a6ff8345e692c0f86e5b48e01b996cadc001622fb5e363b421",
            "blobGasUsed": "0x00",
            "excessBlobGas": "0x00",
            "parentBeaconBlockRoot": "0x0000000000000000000000000000000000000000000000000000000000000000",
            "hash": "0x9b70530caa09b10c6e8c4cf90bb7543c78ea06259b69b0bc947da0501fea569a"
        },
        "pre": {
            "0x000f3df6d732807ef1319fb7b8bb8522d0beac02": {
                "nonce": "0x01",
                "balance": "0x00",
                "code": "0x3373fffffffffffffffffffffffffffffffffffffffe14604d57602036146024575f5ffd5b5f35801560495762001fff810690815414603c575f5ffd5b62001fff01545f5260205ff35b5f5ffd5b62001fff42064281555f359062001fff015500",
                "storage": {}
            },
            "0x38ac6ccffb48040475cf67e7040adebb1dd11dec": {
                "nonce": "0x00",
                "balance": "0x0de0b6b3a7640000",
                "code": "0x60ff60ff630fffffffa2",
                "storage": {}
            },
            "0x894d19064bdc4e212b2e634e18a2b765d52e9b54": {
                "nonce": "0x00",
                "balance": "0x271000000000",
                "code": "0x",
                "storage": {}
            }
        },
        "postState": {
            "0x000f3df6d732807ef1319fb7b8bb8522d0beac02": {
                "nonce": "0x01",
                "balance": "0x00",
                "code": "0x3373fffffffffffffffffffffffffffffffffffffffe14604d57602036146024575f5ffd5b5f35801560495762001fff810690815414603c575f5ffd5b62001fff01545f5260205ff35b5f5ffd5b62001fff42064281555f359062001fff015500",
                "storage": {
                    "0x03e8": "0x03e8"
                }
            },
            "0x38ac6ccffb48040475cf67e7040adebb1dd11dec": {
                "nonce": "0x00",
                "balance": "0x0de0b6b3a7640000",
                "code": "0x60ff60ff630fffffffa2",
                "storage": {}
            },
            "0x894d19064bdc4e212b2e634e18a2b765d52e9b54": {
                "nonce": "0x01",
                "balance": "0x270ffff0bdc0",
                "code": "0x",
                "storage": {}
            }
        },
        "lastblockhash": "0xb0d0a45423da03fbf851eadea6e3085a903106ee93d496a01a8c4d746f04a1eb",
        "config": {
            "network": "Cancun",
            "chainid": "0x01",
            "blobSchedule": {
                "Cancun": {
                    "target": "0x03",
                    "max": "0x06",
                    "baseFeeUpdateFraction": "0x32f0ed"
                }
            }
        },
        "genesisRLP": "0xf9023df90237a00000000000000000000000000000000000000000000000000000000000000000a01dcc4de8dec75d7aab85b567b6ccd41ad312451b948a7413f0a142fd40d49347940000000000000000000000000000000000000000a0284aff352aa460760669eedd9802097a3c8a411ad4f7cef4a0711cc1dfacaba4a056e81f171bcc55a6ff8345e692c0f86e5b48e01b996cadc001622fb5e363b421a056e81f171bcc55a6ff8345e692c0f86e5b48e01b996cadc001622fb5e363b421b90100000000000000000000000000000000000000000000000000000000000000000000000000000000000000000000000000000000000000000000000000000000000000000000000000000000000000000000000000000000000000000000000000000000000000000000000000000000000000000000000000000000000000000000000000000000000000000000000000000000000000000000000000000000000000000000000000000000000000000000000000000000000000000000000000000000000000000000000000000000000000000000000000000000000000000000000000000000000000000000000000000000000000000000000000000000008080850c540be400808000a000000000000000000000000000000000000000000000000000000000000000008800000000000000000ba056e81f171bcc55a6ff8345e692c0f86e5b48e01b996cadc001622fb5e363b4218080a00000000000000000000000000000000000000000000000000000000000000000c0c0c0",
        "blocks": [
            {
                "blockHeader": {
                    "parentHash": "0x9b70530caa09b10c6e8c4cf90bb7543c78ea06259b69b0bc947da0501fea569a",
                    "uncleHash": "0x1dcc4de8dec75d7aab85b567b6ccd41ad312451b948a7413f0a142fd40d49347",
                    "coinbase": "0x2adc25665018aa1fe0e6bc666dac8fc2697ff9ba",
                    "stateRoot": "0x32bbe867d01749b16726a29cccef3ee0c4935172ad45fad416d4da74448468ab",
                    "transactionsTrie": "0xffa2dbef3d04c38772d7e1ed64d3be987effcb232d0e29bd4e1c5c559e1794a1",
                    "receiptTrie": "0x777f1c1c378807634128348e4f0eeca6a0e7f516ea411690ca04266323f671a4",
                    "bloom": "0x00000000000000000000000000000000000000000000000000000000000000000000000000000000000000000000000000000000000000000000000000000000000000000000000000000000000000000000000000000000000000000000000000000000000000000000000000000000000000000000000000000000000000000000000000000000000000000000000000000000000000000000000000000000000000000000000000000000000000000000000000000000000000000000000000000000000000000000000000000000000000000000000000000000000000000000000000000000000000000000000000000000000000000000000000000000",
                    "difficulty": "0x00",
                    "number": "0x01",
                    "gasLimit": "0x0c540be400",
                    "gasUsed": "0x0186a0",
                    "timestamp": "0x03e8",
                    "extraData": "0x00",
                    "mixHash": "0x0000000000000000000000000000000000000000000000000000000000020000",
                    "nonce": "0x0000000000000000",
                    "baseFeePerGas": "0x0a",
                    "withdrawalsRoot": "0x56e81f171bcc55a6ff8345e692c0f86e5b48e01b996cadc001622fb5e363b421",
                    "blobGasUsed": "0x00",
                    "excessBlobGas": "0x00",
                    "parentBeaconBlockRoot": "0x0000000000000000000000000000000000000000000000000000000000000000",
                    "hash": "0xb0d0a45423da03fbf851eadea6e3085a903106ee93d496a01a8c4d746f04a1eb"
                },
                "transactions": [
                    {
                        "type": "0x00",
                        "chainId": "0x01",
                        "nonce": "0x00",
                        "gasPrice": "0x0a",
                        "gasLimit": "0x0186a0",
                        "to": "0x38ac6ccffb48040475cf67e7040adebb1dd11dec",
                        "value": "0x0a",
                        "data": "0x",
                        "v": "0x26",
                        "r": "0xa57012443584ea90db2e8e1f68b47e8ab1847123bdf44ed82ab78b5162ab1225",
                        "s": "0x77e274efa4b7ae64abdd906f8c2445492194e000eeab7589e135ae5eee6802e0",
                        "sender": "0x894d19064bdc4e212b2e634e18a2b765d52e9b54"
                    }
                ],
                "uncleHeaders": [],
                "withdrawals": [],
                "receipts": [
                    {
                        "transactionHash": "0xd0439e133f3cd47226db11812c60ceb4547c1e5b76fda32fa919c71135df0a7d",
                        "type": "0x00",
                        "cumulativeGasUsed": "0x0186a0",
                        "bloom": "0x00000000000000000000000000000000000000000000000000000000000000000000000000000000000000000000000000000000000000000000000000000000000000000000000000000000000000000000000000000000000000000000000000000000000000000000000000000000000000000000000000000000000000000000000000000000000000000000000000000000000000000000000000000000000000000000000000000000000000000000000000000000000000000000000000000000000000000000000000000000000000000000000000000000000000000000000000000000000000000000000000000000000000000000000000000000",
                        "logs": [],
                        "status": false,
                        "rlp": "0xf9010980830186a0b9010000000000000000000000000000000000000000000000000000000000000000000000000000000000000000000000000000000000000000000000000000000000000000000000000000000000000000000000000000000000000000000000000000000000000000000000000000000000000000000000000000000000000000000000000000000000000000000000000000000000000000000000000000000000000000000000000000000000000000000000000000000000000000000000000000000000000000000000000000000000000000000000000000000000000000000000000000000000000000000000000000000000000000000000000000000000c0"
                    }
                ],
                "rlp": "0xf902a5f9023ca09b70530caa09b10c6e8c4cf90bb7543c78ea06259b69b0bc947da0501fea569aa01dcc4de8dec75d7aab85b567b6ccd41ad312451b948a7413f0a142fd40d49347942adc25665018aa1fe0e6bc666dac8fc2697ff9baa032bbe867d01749b16726a29cccef3ee0c4935172ad45fad416d4da74448468aba0ffa2dbef3d04c38772d7e1ed64d3be987effcb232d0e29bd4e1c5c559e1794a1a0777f1c1c378807634128348e4f0eeca6a0e7f516ea411690ca04266323f671a4b90100000000000000000000000000000000000000000000000000000000000000000000000000000000000000000000000000000000000000000000000000000000000000000000000000000000000000000000000000000000000000000000000000000000000000000000000000000000000000000000000000000000000000000000000000000000000000000000000000000000000000000000000000000000000000000000000000000000000000000000000000000000000000000000000000000000000000000000000000000000000000000000000000000000000000000000000000000000000000000000000000000000000000000000000000000000008001850c540be400830186a08203e800a000000000000000000000000000000000000000000000000000000000000200008800000000000000000aa056e81f171bcc55a6ff8345e692c0f86e5b48e01b996cadc001622fb5e363b4218080a00000000000000000000000000000000000000000000000000000000000000000f862f860800a830186a09438ac6ccffb48040475cf67e7040adebb1dd11dec0a8026a0a57012443584ea90db2e8e1f68b47e8ab1847123bdf44ed82ab78b5162ab1225a077e274efa4b7ae64abdd906f8c2445492194e000eeab7589e135ae5eee6802e0c0c0",
                "blocknumber": "1"
            }
        ],
        "sealEngine": "NoProof",
        "_info": {
            "hash": "0x7c6d1dec826550af37bafba6fc39ff042742c43122680b687d814e9754b0b49f",
            "fixture-format": "blockchain_test",
            "comment": "`execution-specs` generated test",
            "filling-transition-tool": "2.19.0",
            "description": "Test_log2_dejavu.",
            "url": "https://github.com/ethereum/execution-specs/blob/tests-bal@v5.7.0/tests/ported_static/stMemoryTest/test_log2_dejavu.py#L25",
            "metadata": {
                "opcode_count": {}
            }
        }
    }
}