{
    "tests/ported_static/stShift/test_shr_minus_1_255.py::test_shr_minus_1_255[fork_Cancun-blockchain_test_from_state_test]": {
        "network": "Cancun",
        "genesisBlockHeader": {
            "parentHash": "0x0000000000000000000000000000000000000000000000000000000000000000",
            "uncleHash": "0x1dcc4de8dec75d7aab85b567b6ccd41ad312451b948a7413f0a142fd40d49347",
            "coinbase": "0x0000000000000000000000000000000000000000",
            "stateRoot": "0x84fcbcd5b977656851d01b4ddfa6684b908c219bfe180a7fdc5fe92f55b0b3ae",
            "transactionsTrie": "0x56e81f171bcc55a6ff8345e692c0f86e5b48e01b996cadc001622fb5e363b421",
            "receiptTrie": "0x56e81f171bcc55a6ff8345e692c0f86e5b48e01b996cadc001622fb5e363b421",
            "bloom": "0x00000000000000000000000000000000000000000000000000000000000000000000000000000000000000000000000000000000000000000000000000000000000000000000000000000000000000000000000000000000000000000000000000000000000000000000000000000000000000000000000000000000000000000000000000000000000000000000000000000000000000000000000000000000000000000000000000000000000000000000000000000000000000000000000000000000000000000000000000000000000000000000000000000000000000000000000000000000000000000000000000000000000000000000000000000000",
            "difficulty": "0x00",
            "number": "0x00",
            "gasLimit": "0x0f4240",
            "gasUsed": "0x00",
            "timestamp": "0x00",
            "extraData": "0x00",
            "mixHash": "0x0000000000000000000000000000000000000000000000000000000000000000",
            "nonce": "0x0000000000000000",
            "baseFeePerGas": "0x0b",
            "withdrawalsRoot": "0x56e81f171bcc55a6ff8345e692c0f86e5b48e01b996cadc001622fb5e363b421",
            "blobGasUsed": "0x00",
            "excessBlobGas": "0x00",
            "parentBeaconBlockRoot": "0x0000000000000000000000000000000000000000000000000000000000000000",
            "hash": "0xa6c28101cfda8aac6c6d2a7a151195cd5e7ae7017dbc59a90f20dcb721ff8cc2"
        },
        "pre": {
            "0x000f3df6d732807ef1319fb7b8bb8522d0beac02": {
                "nonce": "0x01",
                "balance": "0x00",
                "code": "0x3373fffffffffffffffffffffffffffffffffffffffe14604d57602036146024575f5ffd5b5f35801560495762001fff810690815414603c575f5ffd5b62001fff01545f5260205ff35b5f5ffd5b62001fff42064281555f359062001fff015500",
                "storage": {}
            },
            "0xd66f224cbd2fabb21b17bb53c56118f32f62ebd6": {
                "nonce": "0x00",
                "balance": "0x0de0b6b3a7640000",
                "code": "0x",
                "storage": {}
            },
            "0x0357aa56abbe383f4002e13f880e929943653a81": {
                "nonce": "0x00",
                "balance": "0x0de0b6b3a7640000",
                "code": "0x7fffffffffffffffffffffffffffffffffffffffffffffffffffffffffffffffff60ff1c600055",
                "storage": {
                    "0x00": "0x03"
                }
            }
        },
        "postState": {
            "0x000f3df6d732807ef1319fb7b8bb8522d0beac02": {
                "nonce": "0x01",
                "balance": "0x00",
                "code": "0x3373fffffffffffffffffffffffffffffffffffffffe14604d57602036146024575f5ffd5b5f35801560495762001fff810690815414603c575f5ffd5b62001fff01545f5260205ff35b5f5ffd5b62001fff42064281555f359062001fff015500",
                "storage": {
                    "0x03e8": "0x03e8"
                }
            },
            "0xd66f224cbd2fabb21b17bb53c56118f32f62ebd6": {
                "nonce": "0x01",
                "balance": "0x0de0b6b3a75e8148",
                "code": "0x",
                "storage": {}
            },
            "0x0357aa56abbe383f4002e13f880e929943653a81": {
                "nonce": "0x00",
                "balance": "0x0de0b6b3a76586a0",
                "code": "0x7fffffffffffffffffffffffffffffffffffffffffffffffffffffffffffffffff60ff1c600055",
                "storage": {
                    "0x00": "0x01"
                }
            }
        },
        "lastblockhash": "0xd850fe9a096fd876bc762cc923c5a3f65fad24e22cc9737190f51a9f63ef1a6e",
        "config": {
            "network": "Cancun",
            "chainid": "0x01",
            "blobSchedule": {
                "Cancun": {
                    "target": "0x03",
                    "max": "0x06",
                    "baseFeeUpdateFraction": "0x32f0ed"
                }
            }
        },
        "genesisRLP": "0xf9023bf90235a00000000000000000000000000000000000000000000000000000000000000000a01dcc4de8dec75d7aab85b567b6ccd41ad312451b948a7413f0a142fd40d49347940000000000000000000000000000000000000000a084fcbcd5b977656851d01b4ddfa6684b908c219bfe180a7fdc5fe92f55b0b3aea056e81f171bcc55a6ff8345e692c0f86e5b48e01b996cadc001622fb5e363b421a056e81f171bcc55a6ff8345e692c0f86e5b48e01b996cadc001622fb5e363b421b90100000000000000000000000000000000000000000000000000000000000000000000000000000000000000000000000000000000000000000000000000000000000000000000000000000000000000000000000000000000000000000000000000000000000000000000000000000000000000000000000000000000000000000000000000000000000000000000000000000000000000000000000000000000000000000000000000000000000000000000000000000000000000000000000000000000000000000000000000000000000000000000000000000000000000000000000000000000000000000000000000000000000000000000000000000000008080830f4240808000a000000000000000000000000000000000000000000000000000000000000000008800000000000000000ba056e81f171bcc55a6ff8345e692c0f86e5b48e01b996cadc001622fb5e363b4218080a00000000000000000000000000000000000000000000000000000000000000000c0c0c0",
        "blocks": [
            {
                "blockHeader": {
                    "parentHash": "0xa6c28101cfda8aac6c6d2a7a151195cd5e7ae7017dbc59a90f20dcb721ff8cc2",
                    "uncleHash": "0x1dcc4de8dec75d7aab85b567b6ccd41ad312451b948a7413f0a142fd40d49347",
                    "coinbase": "0x2adc25665018aa1fe0e6bc666dac8fc2697ff9ba",
                    "stateRoot": "0xfd458ce77a6211bda6b11a4ca14cd82ed0d89c590b88c15dd13a3a331e79ec96",
                    "transactionsTrie": "0xa5a54be468ae085c8af95c996cb58b527f552874013cddb863bcbb4bf4b849f6",
                    "receiptTrie": "0xf5a4cad211681b78d25e6fde8dea45961dd1d222a43e4d75e3b7733e50889203",
                    "bloom": "0x00000000000000000000000000000000000000000000000000000000000000000000000000000000000000000000000000000000000000000000000000000000000000000000000000000000000000000000000000000000000000000000000000000000000000000000000000000000000000000000000000000000000000000000000000000000000000000000000000000000000000000000000000000000000000000000000000000000000000000000000000000000000000000000000000000000000000000000000000000000000000000000000000000000000000000000000000000000000000000000000000000000000000000000000000000000",
                    "difficulty": "0x00",
                    "number": "0x01",
                    "gasLimit": "0x0f4240",
                    "gasUsed": "0x659c",
                    "timestamp": "0x03e8",
                    "extraData": "0x00",
                    "mixHash": "0x0000000000000000000000000000000000000000000000000000000000020000",
                    "nonce": "0x0000000000000000",
                    "baseFeePerGas": "0x0a",
                    "withdrawalsRoot": "0x56e81f171bcc55a6ff8345e692c0f86e5b48e01b996cadc001622fb5e363b421",
                    "blobGasUsed": "0x00",
                    "excessBlobGas": "0x00",
                    "parentBeaconBlockRoot": "0x0000000000000000000000000000000000000000000000000000000000000000",
                    "hash": "0xd850fe9a096fd876bc762cc923c5a3f65fad24e22cc9737190f51a9f63ef1a6e"
                },
                "transactions": [
                    {
                        "type": "0x00",
                        "chainId": "0x01",
                        "nonce": "0x00",
                        "gasPrice": "0x0a",
                        "gasLimit": "0x061a80",
                        "to": "0x0357aa56abbe383f4002e13f880e929943653a81",
                        "value": "0x0186a0",
                        "data": "0x",
                        "v": "0x26",
                        "r": "0xc8043e5ec6b6ce44b1c672ea62fde0977a425f4b10959938093e8a812647b4f3",
                        "s": "0x63933318f7cf281291d0f01c15172cbc553fe06f9c36f9536ee0ca7658a0a999",
                        "sender": "0xd66f224cbd2fabb21b17bb53c56118f32f62ebd6"
                    }
                ],
                "uncleHeaders": [],
                "withdrawals": [],
                "receipts": [
                    {
                        "transactionHash": "0xa8d73c946ad528c30e91ba02a458ee2ecb57f1cb60965b90fe8e51909fd7816f",
                        "type": "0x00",
                        "cumulativeGasUsed": "0x659c",
                        "bloom": "0x00000000000000000000000000000000000000000000000000000000000000000000000000000000000000000000000000000000000000000000000000000000000000000000000000000000000000000000000000000000000000000000000000000000000000000000000000000000000000000000000000000000000000000000000000000000000000000000000000000000000000000000000000000000000000000000000000000000000000000000000000000000000000000000000000000000000000000000000000000000000000000000000000000000000000000000000000000000000000000000000000000000000000000000000000000000",
                        "logs": [],
                        "status": true,
                        "rlp": "0xf901080182659cb9010000000000000000000000000000000000000000000000000000000000000000000000000000000000000000000000000000000000000000000000000000000000000000000000000000000000000000000000000000000000000000000000000000000000000000000000000000000000000000000000000000000000000000000000000000000000000000000000000000000000000000000000000000000000000000000000000000000000000000000000000000000000000000000000000000000000000000000000000000000000000000000000000000000000000000000000000000000000000000000000000000000000000000000000000000000000c0"
                    }
                ],
                "rlp": "0xf902a5f90239a0a6c28101cfda8aac6c6d2a7a151195cd5e7ae7017dbc59a90f20dcb721ff8cc2a01dcc4de8dec75d7aab85b567b6ccd41ad312451b948a7413f0a142fd40d49347942adc25665018aa1fe0e6bc666dac8fc2697ff9baa0fd458ce77a6211bda6b11a4ca14cd82ed0d89c590b88c15dd13a3a331e79ec96a0a5a54be468ae085c8af95c996cb58b527f552874013cddb863bcbb4bf4b849f6a0f5a4cad211681b78d25e6fde8dea45961dd1d222a43e4d75e3b7733e50889203b90100000000000000000000000000000000000000000000000000000000000000000000000000000000000000000000000000000000000000000000000000000000000000000000000000000000000000000000000000000000000000000000000000000000000000000000000000000000000000000000000000000000000000000000000000000000000000000000000000000000000000000000000000000000000000000000000000000000000000000000000000000000000000000000000000000000000000000000000000000000000000000000000000000000000000000000000000000000000000000000000000000000000000000000000000000000008001830f424082659c8203e800a000000000000000000000000000000000000000000000000000000000000200008800000000000000000aa056e81f171bcc55a6ff8345e692c0f86e5b48e01b996cadc001622fb5e363b4218080a00000000000000000000000000000000000000000000000000000000000000000f865f863800a83061a80940357aa56abbe383f4002e13f880e929943653a81830186a08026a0c8043e5ec6b6ce44b1c672ea62fde0977a425f4b10959938093e8a812647b4f3a063933318f7cf281291d0f01c15172cbc553fe06f9c36f9536ee0ca7658a0a999c0c0",
                "blocknumber": "1"
            }
        ],
        "sealEngine": "NoProof",
        "_info": {
            "hash": "0xd5a727eda48c650406b8efe539a8480cbfdefeef9fb0cc53eeac21bbadc8d4bf",
            "fixture-format": "blockchain_test",
            "comment": "`execution-specs` generated test",
            "filling-transition-tool": "2.19.0",
            "description": "Taken from https://github.",
            "url": "https://github.com/ethereum/execution-specs/blob/tests-snobal-devnet-5@v8037.0.0/tests/ported_static/stShift/test_shr_minus_1_255.py#L24",
            "metadata": {
                "opcode_count": {}
            }
        }
    }
}