{
    "tests/ported_static/stStaticCall/test_static_callcallcallcode_001_oogm_after2.py::test_static_callcallcallcode_001_oogm_after2[fork_Cancun-blockchain_test_from_state_test-d0]": {
        "network": "Cancun",
        "genesisBlockHeader": {
            "parentHash": "0x0000000000000000000000000000000000000000000000000000000000000000",
            "uncleHash": "0x1dcc4de8dec75d7aab85b567b6ccd41ad312451b948a7413f0a142fd40d49347",
            "coinbase": "0x0000000000000000000000000000000000000000",
            "stateRoot": "0xfaf96b704f1ce2b06e3d373e191f7521dc616fa17c0c92a6b986e487fbcfea67",
            "transactionsTrie": "0x56e81f171bcc55a6ff8345e692c0f86e5b48e01b996cadc001622fb5e363b421",
            "receiptTrie": "0x56e81f171bcc55a6ff8345e692c0f86e5b48e01b996cadc001622fb5e363b421",
            "bloom": "0x00000000000000000000000000000000000000000000000000000000000000000000000000000000000000000000000000000000000000000000000000000000000000000000000000000000000000000000000000000000000000000000000000000000000000000000000000000000000000000000000000000000000000000000000000000000000000000000000000000000000000000000000000000000000000000000000000000000000000000000000000000000000000000000000000000000000000000000000000000000000000000000000000000000000000000000000000000000000000000000000000000000000000000000000000000000",
            "difficulty": "0x00",
            "number": "0x00",
            "gasLimit": "0x01c9c380",
            "gasUsed": "0x00",
            "timestamp": "0x00",
            "extraData": "0x00",
            "mixHash": "0x0000000000000000000000000000000000000000000000000000000000000000",
            "nonce": "0x0000000000000000",
            "baseFeePerGas": "0x0b",
            "withdrawalsRoot": "0x56e81f171bcc55a6ff8345e692c0f86e5b48e01b996cadc001622fb5e363b421",
            "blobGasUsed": "0x00",
            "excessBlobGas": "0x00",
            "parentBeaconBlockRoot": "0x0000000000000000000000000000000000000000000000000000000000000000",
            "hash": "0x9db2597d9ff31e2ba96c032d9939c528b79b034fcc4057e7a9aeca09a7a0fdca"
        },
        "pre": {
            "0x000f3df6d732807ef1319fb7b8bb8522d0beac02": {
                "nonce": "0x01",
                "balance": "0x00",
                "code": "0x3373fffffffffffffffffffffffffffffffffffffffe14604d57602036146024575f5ffd5b5f35801560495762001fff810690815414603c575f5ffd5b62001fff01545f5260205ff35b5f5ffd5b62001fff42064281555f359062001fff015500",
                "storage": {}
            },
            "0xd66f224cbd2fabb21b17bb53c56118f32f62ebd6": {
                "nonce": "0x00",
                "balance": "0x0de0b6b3a7640000",
                "code": "0x",
                "storage": {}
            },
            "0xf1f083974fd68b961e68130c27fc5ef37b49c1df": {
                "nonce": "0x00",
                "balance": "0x0de0b6b3a7640000",
                "code": "0x604060006040600060003562092856fa600055600160015500",
                "storage": {}
            },
            "0x335c5531b84765a7626e6e76688f18b81be5259c": {
                "nonce": "0x00",
                "balance": "0x00",
                "code": "0x600160035200",
                "storage": {}
            },
            "0xc26255d9fcf9d7d38d2734cd4e980b8c00eceef6": {
                "nonce": "0x00",
                "balance": "0x00",
                "code": "0x6040600060406000600073335c5531b84765a7626e6e76688f18b81be5259c6201d4d4f200",
                "storage": {}
            },
            "0x142cc6371ac4a38c018d3d1fda49a9327d8b0b45": {
                "nonce": "0x00",
                "balance": "0x00",
                "code": "0x604060006040600073c26255d9fcf9d7d38d2734cd4e980b8c00eceef662061ad0fa505b61c3506080511015603f5760013b506001608051016080526023565b00",
                "storage": {}
            },
            "0x171a4477dfe54503dd5f21daf90429fd2f22d654": {
                "nonce": "0x00",
                "balance": "0x00",
                "code": "0x604060006040600073c26255d9fcf9d7d38d2734cd4e980b8c00eceef662061ad0fa50600160035500",
                "storage": {}
            }
        },
        "postState": {
            "0x000f3df6d732807ef1319fb7b8bb8522d0beac02": {
                "nonce": "0x01",
                "balance": "0x00",
                "code": "0x3373fffffffffffffffffffffffffffffffffffffffe14604d57602036146024575f5ffd5b5f35801560495762001fff810690815414603c575f5ffd5b62001fff01545f5260205ff35b5f5ffd5b62001fff42064281555f359062001fff015500",
                "storage": {
                    "0x03e8": "0x03e8"
                }
            },
            "0xd66f224cbd2fabb21b17bb53c56118f32f62ebd6": {
                "nonce": "0x01",
                "balance": "0x0de0b6b3a7010dc4",
                "code": "0x",
                "storage": {}
            },
            "0xf1f083974fd68b961e68130c27fc5ef37b49c1df": {
                "nonce": "0x00",
                "balance": "0x0de0b6b3a7640000",
                "code": "0x604060006040600060003562092856fa600055600160015500",
                "storage": {
                    "0x01": "0x01"
                }
            },
            "0x335c5531b84765a7626e6e76688f18b81be5259c": {
                "nonce": "0x00",
                "balance": "0x00",
                "code": "0x600160035200",
                "storage": {}
            },
            "0xc26255d9fcf9d7d38d2734cd4e980b8c00eceef6": {
                "nonce": "0x00",
                "balance": "0x00",
                "code": "0x6040600060406000600073335c5531b84765a7626e6e76688f18b81be5259c6201d4d4f200",
                "storage": {}
            },
            "0x142cc6371ac4a38c018d3d1fda49a9327d8b0b45": {
                "nonce": "0x00",
                "balance": "0x00",
                "code": "0x604060006040600073c26255d9fcf9d7d38d2734cd4e980b8c00eceef662061ad0fa505b61c3506080511015603f5760013b506001608051016080526023565b00",
                "storage": {}
            },
            "0x171a4477dfe54503dd5f21daf90429fd2f22d654": {
                "nonce": "0x00",
                "balance": "0x00",
                "code": "0x604060006040600073c26255d9fcf9d7d38d2734cd4e980b8c00eceef662061ad0fa50600160035500",
                "storage": {}
            }
        },
        "lastblockhash": "0x3c0e7ac94938be48d528e74af3766584ca9c14b1c0f7beabbc8e54b1782229ed",
        "config": {
            "network": "Cancun",
            "chainid": "0x01",
            "blobSchedule": {
                "Cancun": {
                    "target": "0x03",
                    "max": "0x06",
                    "baseFeeUpdateFraction": "0x32f0ed"
                }
            }
        },
        "genesisRLP": "0xf9023cf90236a00000000000000000000000000000000000000000000000000000000000000000a01dcc4de8dec75d7aab85b567b6ccd41ad312451b948a7413f0a142fd40d49347940000000000000000000000000000000000000000a0faf96b704f1ce2b06e3d373e191f7521dc616fa17c0c92a6b986e487fbcfea67a056e81f171bcc55a6ff8345e692c0f86e5b48e01b996cadc001622fb5e363b421a056e81f171bcc55a6ff8345e692c0f86e5b48e01b996cadc001622fb5e363b421b901000000000000000000000000000000000000000000000000000000000000000000000000000000000000000000000000000000000000000000000000000000000000000000000000000000000000000000000000000000000000000000000000000000000000000000000000000000000000000000000000000000000000000000000000000000000000000000000000000000000000000000000000000000000000000000000000000000000000000000000000000000000000000000000000000000000000000000000000000000000000000000000000000000000000000000000000000000000000000000000000000000000000000000000000000000000080808401c9c380808000a000000000000000000000000000000000000000000000000000000000000000008800000000000000000ba056e81f171bcc55a6ff8345e692c0f86e5b48e01b996cadc001622fb5e363b4218080a00000000000000000000000000000000000000000000000000000000000000000c0c0c0",
        "blocks": [
            {
                "blockHeader": {
                    "parentHash": "0x9db2597d9ff31e2ba96c032d9939c528b79b034fcc4057e7a9aeca09a7a0fdca",
                    "uncleHash": "0x1dcc4de8dec75d7aab85b567b6ccd41ad312451b948a7413f0a142fd40d49347",
                    "coinbase": "0x2adc25665018aa1fe0e6bc666dac8fc2697ff9ba",
                    "stateRoot": "0xba6c3c72fe648b0b075302910ff02544bc34529953b64482c28e2399942ea047",
                    "transactionsTrie": "0xffddd6ee4feb8e30e24f396e52b5d1d56035eb729eab6f33d2c2994ccacaa60d",
                    "receiptTrie": "0x990e5496f0fbbdc8a4fb382c442d5903455c79f8fc923d82e339edc601df1862",
                    "bloom": "0x00000000000000000000000000000000000000000000000000000000000000000000000000000000000000000000000000000000000000000000000000000000000000000000000000000000000000000000000000000000000000000000000000000000000000000000000000000000000000000000000000000000000000000000000000000000000000000000000000000000000000000000000000000000000000000000000000000000000000000000000000000000000000000000000000000000000000000000000000000000000000000000000000000000000000000000000000000000000000000000000000000000000000000000000000000000",
                    "difficulty": "0x00",
                    "number": "0x01",
                    "gasLimit": "0x01c9c380",
                    "gasUsed": "0x09e506",
                    "timestamp": "0x03e8",
                    "extraData": "0x00",
                    "mixHash": "0x0000000000000000000000000000000000000000000000000000000000020000",
                    "nonce": "0x0000000000000000",
                    "baseFeePerGas": "0x0a",
                    "withdrawalsRoot": "0x56e81f171bcc55a6ff8345e692c0f86e5b48e01b996cadc001622fb5e363b421",
                    "blobGasUsed": "0x00",
                    "excessBlobGas": "0x00",
                    "parentBeaconBlockRoot": "0x0000000000000000000000000000000000000000000000000000000000000000",
                    "hash": "0x3c0e7ac94938be48d528e74af3766584ca9c14b1c0f7beabbc8e54b1782229ed"
                },
                "transactions": [
                    {
                        "type": "0x00",
                        "chainId": "0x01",
                        "nonce": "0x00",
                        "gasPrice": "0x0a",
                        "gasLimit": "0x1a3ec0",
                        "to": "0xf1f083974fd68b961e68130c27fc5ef37b49c1df",
                        "value": "0x00",
                        "data": "0x000000000000000000000000171a4477dfe54503dd5f21daf90429fd2f22d654",
                        "v": "0x26",
                        "r": "0xa0996d2c4f5cb6be408dfa6ca5ee79f8f57037d68015d04a4d757bbdfe463990",
                        "s": "0x57c55ff8f7f05a536d854c1f8eebce44f8aa8533133da97b34ecad4bf5da690b",
                        "sender": "0xd66f224cbd2fabb21b17bb53c56118f32f62ebd6"
                    }
                ],
                "uncleHeaders": [],
                "withdrawals": [],
                "receipts": [
                    {
                        "transactionHash": "0x021ebd604be6d80f7388ebb46f27da4d2dd768f3098e1f30235b9cab1a7195bf",
                        "type": "0x00",
                        "cumulativeGasUsed": "0x09e506",
                        "bloom": "0x00000000000000000000000000000000000000000000000000000000000000000000000000000000000000000000000000000000000000000000000000000000000000000000000000000000000000000000000000000000000000000000000000000000000000000000000000000000000000000000000000000000000000000000000000000000000000000000000000000000000000000000000000000000000000000000000000000000000000000000000000000000000000000000000000000000000000000000000000000000000000000000000000000000000000000000000000000000000000000000000000000000000000000000000000000000",
                        "logs": [],
                        "status": true,
                        "rlp": "0xf90109018309e506b9010000000000000000000000000000000000000000000000000000000000000000000000000000000000000000000000000000000000000000000000000000000000000000000000000000000000000000000000000000000000000000000000000000000000000000000000000000000000000000000000000000000000000000000000000000000000000000000000000000000000000000000000000000000000000000000000000000000000000000000000000000000000000000000000000000000000000000000000000000000000000000000000000000000000000000000000000000000000000000000000000000000000000000000000000000000000c0"
                    }
                ],
                "rlp": "0xf902c4f9023ba09db2597d9ff31e2ba96c032d9939c528b79b034fcc4057e7a9aeca09a7a0fdcaa01dcc4de8dec75d7aab85b567b6ccd41ad312451b948a7413f0a142fd40d49347942adc25665018aa1fe0e6bc666dac8fc2697ff9baa0ba6c3c72fe648b0b075302910ff02544bc34529953b64482c28e2399942ea047a0ffddd6ee4feb8e30e24f396e52b5d1d56035eb729eab6f33d2c2994ccacaa60da0990e5496f0fbbdc8a4fb382c442d5903455c79f8fc923d82e339edc601df1862b901000000000000000000000000000000000000000000000000000000000000000000000000000000000000000000000000000000000000000000000000000000000000000000000000000000000000000000000000000000000000000000000000000000000000000000000000000000000000000000000000000000000000000000000000000000000000000000000000000000000000000000000000000000000000000000000000000000000000000000000000000000000000000000000000000000000000000000000000000000000000000000000000000000000000000000000000000000000000000000000000000000000000000000000000000000000080018401c9c3808309e5068203e800a000000000000000000000000000000000000000000000000000000000000200008800000000000000000aa056e81f171bcc55a6ff8345e692c0f86e5b48e01b996cadc001622fb5e363b4218080a00000000000000000000000000000000000000000000000000000000000000000f882f880800a831a3ec094f1f083974fd68b961e68130c27fc5ef37b49c1df80a0000000000000000000000000171a4477dfe54503dd5f21daf90429fd2f22d65426a0a0996d2c4f5cb6be408dfa6ca5ee79f8f57037d68015d04a4d757bbdfe463990a057c55ff8f7f05a536d854c1f8eebce44f8aa8533133da97b34ecad4bf5da690bc0c0",
                "blocknumber": "1"
            }
        ],
        "sealEngine": "NoProof",
        "_info": {
            "hash": "0xdbcc4a23837af8c53121a6dedee9b01d98aa4e24fe82d684b3595e774bfb6cda",
            "fixture-format": "blockchain_test",
            "comment": "`execution-specs` generated test",
            "filling-transition-tool": "2.19.0",
            "description": "Test_static_callcallcallcode_001_oogm_after2.",
            "url": "https://github.com/ethereum/execution-specs/blob/tests-snobal-devnet-5@v8037.0.0/tests/ported_static/stStaticCall/test_static_callcallcallcode_001_oogm_after2.py#L25",
            "metadata": {
                "opcode_count": {}
            }
        }
    },
    "tests/ported_static/stStaticCall/test_static_callcallcallcode_001_oogm_after2.py::test_static_callcallcallcode_001_oogm_after2[fork_Cancun-blockchain_test_from_state_test-d1]": {
        "network": "Cancun",
        "genesisBlockHeader": {
            "parentHash": "0x0000000000000000000000000000000000000000000000000000000000000000",
            "uncleHash": "0x1dcc4de8dec75d7aab85b567b6ccd41ad312451b948a7413f0a142fd40d49347",
            "coinbase": "0x0000000000000000000000000000000000000000",
            "stateRoot": "0xfaf96b704f1ce2b06e3d373e191f7521dc616fa17c0c92a6b986e487fbcfea67",
            "transactionsTrie": "0x56e81f171bcc55a6ff8345e692c0f86e5b48e01b996cadc001622fb5e363b421",
            "receiptTrie": "0x56e81f171bcc55a6ff8345e692c0f86e5b48e01b996cadc001622fb5e363b421",
            "bloom": "0x00000000000000000000000000000000000000000000000000000000000000000000000000000000000000000000000000000000000000000000000000000000000000000000000000000000000000000000000000000000000000000000000000000000000000000000000000000000000000000000000000000000000000000000000000000000000000000000000000000000000000000000000000000000000000000000000000000000000000000000000000000000000000000000000000000000000000000000000000000000000000000000000000000000000000000000000000000000000000000000000000000000000000000000000000000000",
            "difficulty": "0x00",
            "number": "0x00",
            "gasLimit": "0x01c9c380",
            "gasUsed": "0x00",
            "timestamp": "0x00",
            "extraData": "0x00",
            "mixHash": "0x0000000000000000000000000000000000000000000000000000000000000000",
            "nonce": "0x0000000000000000",
            "baseFeePerGas": "0x0b",
            "withdrawalsRoot": "0x56e81f171bcc55a6ff8345e692c0f86e5b48e01b996cadc001622fb5e363b421",
            "blobGasUsed": "0x00",
            "excessBlobGas": "0x00",
            "parentBeaconBlockRoot": "0x0000000000000000000000000000000000000000000000000000000000000000",
            "hash": "0x9db2597d9ff31e2ba96c032d9939c528b79b034fcc4057e7a9aeca09a7a0fdca"
        },
        "pre": {
            "0x000f3df6d732807ef1319fb7b8bb8522d0beac02": {
                "nonce": "0x01",
                "balance": "0x00",
                "code": "0x3373fffffffffffffffffffffffffffffffffffffffe14604d57602036146024575f5ffd5b5f35801560495762001fff810690815414603c575f5ffd5b62001fff01545f5260205ff35b5f5ffd5b62001fff42064281555f359062001fff015500",
                "storage": {}
            },
            "0xd66f224cbd2fabb21b17bb53c56118f32f62ebd6": {
                "nonce": "0x00",
                "balance": "0x0de0b6b3a7640000",
                "code": "0x",
                "storage": {}
            },
            "0xf1f083974fd68b961e68130c27fc5ef37b49c1df": {
                "nonce": "0x00",
                "balance": "0x0de0b6b3a7640000",
                "code": "0x604060006040600060003562092856fa600055600160015500",
                "storage": {}
            },
            "0x335c5531b84765a7626e6e76688f18b81be5259c": {
                "nonce": "0x00",
                "balance": "0x00",
                "code": "0x600160035200",
                "storage": {}
            },
            "0xc26255d9fcf9d7d38d2734cd4e980b8c00eceef6": {
                "nonce": "0x00",
                "balance": "0x00",
                "code": "0x6040600060406000600073335c5531b84765a7626e6e76688f18b81be5259c6201d4d4f200",
                "storage": {}
            },
            "0x142cc6371ac4a38c018d3d1fda49a9327d8b0b45": {
                "nonce": "0x00",
                "balance": "0x00",
                "code": "0x604060006040600073c26255d9fcf9d7d38d2734cd4e980b8c00eceef662061ad0fa505b61c3506080511015603f5760013b506001608051016080526023565b00",
                "storage": {}
            },
            "0x171a4477dfe54503dd5f21daf90429fd2f22d654": {
                "nonce": "0x00",
                "balance": "0x00",
                "code": "0x604060006040600073c26255d9fcf9d7d38d2734cd4e980b8c00eceef662061ad0fa50600160035500",
                "storage": {}
            }
        },
        "postState": {
            "0x000f3df6d732807ef1319fb7b8bb8522d0beac02": {
                "nonce": "0x01",
                "balance": "0x00",
                "code": "0x3373fffffffffffffffffffffffffffffffffffffffe14604d57602036146024575f5ffd5b5f35801560495762001fff810690815414603c575f5ffd5b62001fff01545f5260205ff35b5f5ffd5b62001fff42064281555f359062001fff015500",
                "storage": {
                    "0x03e8": "0x03e8"
                }
            },
            "0xd66f224cbd2fabb21b17bb53c56118f32f62ebd6": {
                "nonce": "0x01",
                "balance": "0x0de0b6b3a7010dc4",
                "code": "0x",
                "storage": {}
            },
            "0xf1f083974fd68b961e68130c27fc5ef37b49c1df": {
                "nonce": "0x00",
                "balance": "0x0de0b6b3a7640000",
                "code": "0x604060006040600060003562092856fa600055600160015500",
                "storage": {
                    "0x01": "0x01"
                }
            },
            "0x335c5531b84765a7626e6e76688f18b81be5259c": {
                "nonce": "0x00",
                "balance": "0x00",
                "code": "0x600160035200",
                "storage": {}
            },
            "0xc26255d9fcf9d7d38d2734cd4e980b8c00eceef6": {
                "nonce": "0x00",
                "balance": "0x00",
                "code": "0x6040600060406000600073335c5531b84765a7626e6e76688f18b81be5259c6201d4d4f200",
                "storage": {}
            },
            "0x142cc6371ac4a38c018d3d1fda49a9327d8b0b45": {
                "nonce": "0x00",
                "balance": "0x00",
                "code": "0x604060006040600073c26255d9fcf9d7d38d2734cd4e980b8c00eceef662061ad0fa505b61c3506080511015603f5760013b506001608051016080526023565b00",
                "storage": {}
            },
            "0x171a4477dfe54503dd5f21daf90429fd2f22d654": {
                "nonce": "0x00",
                "balance": "0x00",
                "code": "0x604060006040600073c26255d9fcf9d7d38d2734cd4e980b8c00eceef662061ad0fa50600160035500",
                "storage": {}
            }
        },
        "lastblockhash": "0x164bb964b7e3a8b34305cc6b44802290bdbeb61164a68ad36cde4fb1aa2c7322",
        "config": {
            "network": "Cancun",
            "chainid": "0x01",
            "blobSchedule": {
                "Cancun": {
                    "target": "0x03",
                    "max": "0x06",
                    "baseFeeUpdateFraction": "0x32f0ed"
                }
            }
        },
        "genesisRLP": "0xf9023cf90236a00000000000000000000000000000000000000000000000000000000000000000a01dcc4de8dec75d7aab85b567b6ccd41ad312451b948a7413f0a142fd40d49347940000000000000000000000000000000000000000a0faf96b704f1ce2b06e3d373e191f7521dc616fa17c0c92a6b986e487fbcfea67a056e81f171bcc55a6ff8345e692c0f86e5b48e01b996cadc001622fb5e363b421a056e81f171bcc55a6ff8345e692c0f86e5b48e01b996cadc001622fb5e363b421b901000000000000000000000000000000000000000000000000000000000000000000000000000000000000000000000000000000000000000000000000000000000000000000000000000000000000000000000000000000000000000000000000000000000000000000000000000000000000000000000000000000000000000000000000000000000000000000000000000000000000000000000000000000000000000000000000000000000000000000000000000000000000000000000000000000000000000000000000000000000000000000000000000000000000000000000000000000000000000000000000000000000000000000000000000000000080808401c9c380808000a000000000000000000000000000000000000000000000000000000000000000008800000000000000000ba056e81f171bcc55a6ff8345e692c0f86e5b48e01b996cadc001622fb5e363b4218080a00000000000000000000000000000000000000000000000000000000000000000c0c0c0",
        "blocks": [
            {
                "blockHeader": {
                    "parentHash": "0x9db2597d9ff31e2ba96c032d9939c528b79b034fcc4057e7a9aeca09a7a0fdca",
                    "uncleHash": "0x1dcc4de8dec75d7aab85b567b6ccd41ad312451b948a7413f0a142fd40d49347",
                    "coinbase": "0x2adc25665018aa1fe0e6bc666dac8fc2697ff9ba",
                    "stateRoot": "0xba6c3c72fe648b0b075302910ff02544bc34529953b64482c28e2399942ea047",
                    "transactionsTrie": "0x2709e14389f7d6772bd0b56f0b303dbf262f4c64c92e299f381ea9746547f33c",
                    "receiptTrie": "0x990e5496f0fbbdc8a4fb382c442d5903455c79f8fc923d82e339edc601df1862",
                    "bloom": "0x00000000000000000000000000000000000000000000000000000000000000000000000000000000000000000000000000000000000000000000000000000000000000000000000000000000000000000000000000000000000000000000000000000000000000000000000000000000000000000000000000000000000000000000000000000000000000000000000000000000000000000000000000000000000000000000000000000000000000000000000000000000000000000000000000000000000000000000000000000000000000000000000000000000000000000000000000000000000000000000000000000000000000000000000000000000",
                    "difficulty": "0x00",
                    "number": "0x01",
                    "gasLimit": "0x01c9c380",
                    "gasUsed": "0x09e506",
                    "timestamp": "0x03e8",
                    "extraData": "0x00",
                    "mixHash": "0x0000000000000000000000000000000000000000000000000000000000020000",
                    "nonce": "0x0000000000000000",
                    "baseFeePerGas": "0x0a",
                    "withdrawalsRoot": "0x56e81f171bcc55a6ff8345e692c0f86e5b48e01b996cadc001622fb5e363b421",
                    "blobGasUsed": "0x00",
                    "excessBlobGas": "0x00",
                    "parentBeaconBlockRoot": "0x0000000000000000000000000000000000000000000000000000000000000000",
                    "hash": "0x164bb964b7e3a8b34305cc6b44802290bdbeb61164a68ad36cde4fb1aa2c7322"
                },
                "transactions": [
                    {
                        "type": "0x00",
                        "chainId": "0x01",
                        "nonce": "0x00",
                        "gasPrice": "0x0a",
                        "gasLimit": "0x1a3ec0",
                        "to": "0xf1f083974fd68b961e68130c27fc5ef37b49c1df",
                        "value": "0x00",
                        "data": "0x000000000000000000000000142cc6371ac4a38c018d3d1fda49a9327d8b0b45",
                        "v": "0x25",
                        "r": "0x1720be4b1bb1c0286136ed8bbd67a729d1564245d3e430085c210c5d96fd9ff9",
                        "s": "0x0c78cdf5c4e8d93566964773b2fe756270f1b60baf74b235d6cdb880d5e69c3a",
                        "sender": "0xd66f224cbd2fabb21b17bb53c56118f32f62ebd6"
                    }
                ],
                "uncleHeaders": [],
                "withdrawals": [],
                "receipts": [
                    {
                        "transactionHash": "0xf7d712087775a5332038ef8de668f7a2108759dc4567f8433a3e63c10488169a",
                        "type": "0x00",
                        "cumulativeGasUsed": "0x09e506",
                        "bloom": "0x00000000000000000000000000000000000000000000000000000000000000000000000000000000000000000000000000000000000000000000000000000000000000000000000000000000000000000000000000000000000000000000000000000000000000000000000000000000000000000000000000000000000000000000000000000000000000000000000000000000000000000000000000000000000000000000000000000000000000000000000000000000000000000000000000000000000000000000000000000000000000000000000000000000000000000000000000000000000000000000000000000000000000000000000000000000",
                        "logs": [],
                        "status": true,
                        "rlp": "0xf90109018309e506b9010000000000000000000000000000000000000000000000000000000000000000000000000000000000000000000000000000000000000000000000000000000000000000000000000000000000000000000000000000000000000000000000000000000000000000000000000000000000000000000000000000000000000000000000000000000000000000000000000000000000000000000000000000000000000000000000000000000000000000000000000000000000000000000000000000000000000000000000000000000000000000000000000000000000000000000000000000000000000000000000000000000000000000000000000000000000c0"
                    }
                ],
                "rlp": "0xf902c4f9023ba09db2597d9ff31e2ba96c032d9939c528b79b034fcc4057e7a9aeca09a7a0fdcaa01dcc4de8dec75d7aab85b567b6ccd41ad312451b948a7413f0a142fd40d49347942adc25665018aa1fe0e6bc666dac8fc2697ff9baa0ba6c3c72fe648b0b075302910ff02544bc34529953b64482c28e2399942ea047a02709e14389f7d6772bd0b56f0b303dbf262f4c64c92e299f381ea9746547f33ca0990e5496f0fbbdc8a4fb382c442d5903455c79f8fc923d82e339edc601df1862b901000000000000000000000000000000000000000000000000000000000000000000000000000000000000000000000000000000000000000000000000000000000000000000000000000000000000000000000000000000000000000000000000000000000000000000000000000000000000000000000000000000000000000000000000000000000000000000000000000000000000000000000000000000000000000000000000000000000000000000000000000000000000000000000000000000000000000000000000000000000000000000000000000000000000000000000000000000000000000000000000000000000000000000000000000000000080018401c9c3808309e5068203e800a000000000000000000000000000000000000000000000000000000000000200008800000000000000000aa056e81f171bcc55a6ff8345e692c0f86e5b48e01b996cadc001622fb5e363b4218080a00000000000000000000000000000000000000000000000000000000000000000f882f880800a831a3ec094f1f083974fd68b961e68130c27fc5ef37b49c1df80a0000000000000000000000000142cc6371ac4a38c018d3d1fda49a9327d8b0b4525a01720be4b1bb1c0286136ed8bbd67a729d1564245d3e430085c210c5d96fd9ff9a00c78cdf5c4e8d93566964773b2fe756270f1b60baf74b235d6cdb880d5e69c3ac0c0",
                "blocknumber": "1"
            }
        ],
        "sealEngine": "NoProof",
        "_info": {
            "hash": "0x480c15fdfca6f2cb8a7e03a884b2616f22c17b994aac76856582309605fb9f64",
            "fixture-format": "blockchain_test",
            "comment": "`execution-specs` generated test",
            "filling-transition-tool": "2.19.0",
            "description": "Test_static_callcallcallcode_001_oogm_after2.",
            "url": "https://github.com/ethereum/execution-specs/blob/tests-snobal-devnet-5@v8037.0.0/tests/ported_static/stStaticCall/test_static_callcallcallcode_001_oogm_after2.py#L25",
            "metadata": {
                "opcode_count": {}
            }
        }
    }
}