{
    "tests/ported_static/vmArithmeticTest/test_fib.py::test_fib[fork_Cancun-blockchain_test_from_state_test]": {
        "network": "Cancun",
        "genesisBlockHeader": {
            "parentHash": "0x0000000000000000000000000000000000000000000000000000000000000000",
            "uncleHash": "0x1dcc4de8dec75d7aab85b567b6ccd41ad312451b948a7413f0a142fd40d49347",
            "coinbase": "0x0000000000000000000000000000000000000000",
            "stateRoot": "0x26a83f7662fc90a094daa2a5887e92c022f8c88621d060e49ca2d7dfd1e86946",
            "transactionsTrie": "0x56e81f171bcc55a6ff8345e692c0f86e5b48e01b996cadc001622fb5e363b421",
            "receiptTrie": "0x56e81f171bcc55a6ff8345e692c0f86e5b48e01b996cadc001622fb5e363b421",
            "bloom": "0x00000000000000000000000000000000000000000000000000000000000000000000000000000000000000000000000000000000000000000000000000000000000000000000000000000000000000000000000000000000000000000000000000000000000000000000000000000000000000000000000000000000000000000000000000000000000000000000000000000000000000000000000000000000000000000000000000000000000000000000000000000000000000000000000000000000000000000000000000000000000000000000000000000000000000000000000000000000000000000000000000000000000000000000000000000000",
            "difficulty": "0x00",
            "number": "0x00",
            "gasLimit": "0x05f5e100",
            "gasUsed": "0x00",
            "timestamp": "0x00",
            "extraData": "0x00",
            "mixHash": "0x0000000000000000000000000000000000000000000000000000000000000000",
            "nonce": "0x0000000000000000",
            "baseFeePerGas": "0x0b",
            "withdrawalsRoot": "0x56e81f171bcc55a6ff8345e692c0f86e5b48e01b996cadc001622fb5e363b421",
            "blobGasUsed": "0x00",
            "excessBlobGas": "0x00",
            "parentBeaconBlockRoot": "0x0000000000000000000000000000000000000000000000000000000000000000",
            "hash": "0xa446c727280e78f3a0a58443794e328d692dd5e741e1bbf91753a68fdf1760b0"
        },
        "pre": {
            "0x000f3df6d732807ef1319fb7b8bb8522d0beac02": {
                "nonce": "0x01",
                "balance": "0x00",
                "code": "0x3373fffffffffffffffffffffffffffffffffffffffe14604d57602036146024575f5ffd5b5f35801560495762001fff810690815414603c575f5ffd5b62001fff01545f5260205ff35b5f5ffd5b62001fff42064281555f359062001fff015500",
                "storage": {}
            },
            "0xa6095a391f4252d3be7da82443ad493731584255": {
                "nonce": "0x00",
                "balance": "0x0ba1a9ce0ba1a9ce",
                "code": "0x",
                "storage": {}
            },
            "0xdc5ce4b44f0ca09bbd4abc430f16f02caf7df8f1": {
                "nonce": "0x00",
                "balance": "0x0ba1a9ce0ba1a9ce",
                "code": "0x60026002035460016002035401600255600260030354600160030354016003556002600403546001600403540160045560026005035460016005035401600555600260060354600160060354016006556002600703546001600703540160075560026008035460016008035401600855600260090354600160090354016009556002600a03546001600a035401600a5500",
                "storage": {
                    "0x00": "0x00",
                    "0x01": "0x01"
                }
            }
        },
        "postState": {
            "0x000f3df6d732807ef1319fb7b8bb8522d0beac02": {
                "nonce": "0x01",
                "balance": "0x00",
                "code": "0x3373fffffffffffffffffffffffffffffffffffffffe14604d57602036146024575f5ffd5b5f35801560495762001fff810690815414603c575f5ffd5b62001fff01545f5260205ff35b5f5ffd5b62001fff42064281555f359062001fff015500",
                "storage": {
                    "0x03e8": "0x03e8"
                }
            },
            "0xa6095a391f4252d3be7da82443ad493731584255": {
                "nonce": "0x01",
                "balance": "0x0ba1a9ce0b7f3055",
                "code": "0x",
                "storage": {}
            },
            "0xdc5ce4b44f0ca09bbd4abc430f16f02caf7df8f1": {
                "nonce": "0x00",
                "balance": "0x0ba1a9ce0ba1a9cf",
                "code": "0x60026002035460016002035401600255600260030354600160030354016003556002600403546001600403540160045560026005035460016005035401600555600260060354600160060354016006556002600703546001600703540160075560026008035460016008035401600855600260090354600160090354016009556002600a03546001600a035401600a5500",
                "storage": {
                    "0x01": "0x01",
                    "0x02": "0x01",
                    "0x03": "0x02",
                    "0x04": "0x03",
                    "0x05": "0x05",
                    "0x06": "0x08",
                    "0x07": "0x0d",
                    "0x08": "0x15",
                    "0x09": "0x22",
                    "0x0a": "0x37"
                }
            }
        },
        "lastblockhash": "0x8e0f23d022ae74760080d245604b2f1860dc2a4a5f9b3c0edeacb083bb1206b2",
        "config": {
            "network": "Cancun",
            "chainid": "0x01",
            "blobSchedule": {
                "Cancun": {
                    "target": "0x03",
                    "max": "0x06",
                    "baseFeeUpdateFraction": "0x32f0ed"
                }
            }
        },
        "genesisRLP": "0xf9023cf90236a00000000000000000000000000000000000000000000000000000000000000000a01dcc4de8dec75d7aab85b567b6ccd41ad312451b948a7413f0a142fd40d49347940000000000000000000000000000000000000000a026a83f7662fc90a094daa2a5887e92c022f8c88621d060e49ca2d7dfd1e86946a056e81f171bcc55a6ff8345e692c0f86e5b48e01b996cadc001622fb5e363b421a056e81f171bcc55a6ff8345e692c0f86e5b48e01b996cadc001622fb5e363b421b901000000000000000000000000000000000000000000000000000000000000000000000000000000000000000000000000000000000000000000000000000000000000000000000000000000000000000000000000000000000000000000000000000000000000000000000000000000000000000000000000000000000000000000000000000000000000000000000000000000000000000000000000000000000000000000000000000000000000000000000000000000000000000000000000000000000000000000000000000000000000000000000000000000000000000000000000000000000000000000000000000000000000000000000000000000000080808405f5e100808000a000000000000000000000000000000000000000000000000000000000000000008800000000000000000ba056e81f171bcc55a6ff8345e692c0f86e5b48e01b996cadc001622fb5e363b4218080a00000000000000000000000000000000000000000000000000000000000000000c0c0c0",
        "blocks": [
            {
                "blockHeader": {
                    "parentHash": "0xa446c727280e78f3a0a58443794e328d692dd5e741e1bbf91753a68fdf1760b0",
                    "uncleHash": "0x1dcc4de8dec75d7aab85b567b6ccd41ad312451b948a7413f0a142fd40d49347",
                    "coinbase": "0x2adc25665018aa1fe0e6bc666dac8fc2697ff9ba",
                    "stateRoot": "0x6a2f509d83dc076e203fc124e030d4a9d9381b90e78927ea50f940962e0e9600",
                    "transactionsTrie": "0x312f70d77b1bcc1f0cbff67891aaaf71e2ebe5d03b0dc645a99db27b1faf30df",
                    "receiptTrie": "0xcfc0a2274695f4bf4c38b563498a650b281be8f6e2b0fb7fb86f04f98433ced8",
                    "bloom": "0x00000000000000000000000000000000000000000000000000000000000000000000000000000000000000000000000000000000000000000000000000000000000000000000000000000000000000000000000000000000000000000000000000000000000000000000000000000000000000000000000000000000000000000000000000000000000000000000000000000000000000000000000000000000000000000000000000000000000000000000000000000000000000000000000000000000000000000000000000000000000000000000000000000000000000000000000000000000000000000000000000000000000000000000000000000000",
                    "difficulty": "0x00",
                    "number": "0x01",
                    "gasLimit": "0x05f5e100",
                    "gasUsed": "0x03728c",
                    "timestamp": "0x03e8",
                    "extraData": "0x00",
                    "mixHash": "0x0000000000000000000000000000000000000000000000000000000000020000",
                    "nonce": "0x0000000000000000",
                    "baseFeePerGas": "0x0a",
                    "withdrawalsRoot": "0x56e81f171bcc55a6ff8345e692c0f86e5b48e01b996cadc001622fb5e363b421",
                    "blobGasUsed": "0x00",
                    "excessBlobGas": "0x00",
                    "parentBeaconBlockRoot": "0x0000000000000000000000000000000000000000000000000000000000000000",
                    "hash": "0x8e0f23d022ae74760080d245604b2f1860dc2a4a5f9b3c0edeacb083bb1206b2"
                },
                "transactions": [
                    {
                        "type": "0x00",
                        "chainId": "0x01",
                        "nonce": "0x00",
                        "gasPrice": "0x0a",
                        "gasLimit": "0x01000000",
                        "to": "0xdc5ce4b44f0ca09bbd4abc430f16f02caf7df8f1",
                        "value": "0x01",
                        "data": "0x01",
                        "v": "0x26",
                        "r": "0x0e301a3f1bb12be0d3d2d089fd31a683fd9b3cc1d4388be53731687103ac9642",
                        "s": "0x243d949a00cb4b21aade6f87d11c4ec8c9d269325f26d265720e31985f962295",
                        "sender": "0xa6095a391f4252d3be7da82443ad493731584255"
                    }
                ],
                "uncleHeaders": [],
                "withdrawals": [],
                "receipts": [
                    {
                        "transactionHash": "0xbd8c930471954cec3fa262f1c4589edd7014b4573759623111dd169190f6ec64",
                        "type": "0x00",
                        "cumulativeGasUsed": "0x03728c",
                        "bloom": "0x00000000000000000000000000000000000000000000000000000000000000000000000000000000000000000000000000000000000000000000000000000000000000000000000000000000000000000000000000000000000000000000000000000000000000000000000000000000000000000000000000000000000000000000000000000000000000000000000000000000000000000000000000000000000000000000000000000000000000000000000000000000000000000000000000000000000000000000000000000000000000000000000000000000000000000000000000000000000000000000000000000000000000000000000000000000",
                        "logs": [],
                        "status": true,
                        "rlp": "0xf90109018303728cb9010000000000000000000000000000000000000000000000000000000000000000000000000000000000000000000000000000000000000000000000000000000000000000000000000000000000000000000000000000000000000000000000000000000000000000000000000000000000000000000000000000000000000000000000000000000000000000000000000000000000000000000000000000000000000000000000000000000000000000000000000000000000000000000000000000000000000000000000000000000000000000000000000000000000000000000000000000000000000000000000000000000000000000000000000000000000c0"
                    }
                ],
                "rlp": "0xf902a5f9023ba0a446c727280e78f3a0a58443794e328d692dd5e741e1bbf91753a68fdf1760b0a01dcc4de8dec75d7aab85b567b6ccd41ad312451b948a7413f0a142fd40d49347942adc25665018aa1fe0e6bc666dac8fc2697ff9baa06a2f509d83dc076e203fc124e030d4a9d9381b90e78927ea50f940962e0e9600a0312f70d77b1bcc1f0cbff67891aaaf71e2ebe5d03b0dc645a99db27b1faf30dfa0cfc0a2274695f4bf4c38b563498a650b281be8f6e2b0fb7fb86f04f98433ced8b901000000000000000000000000000000000000000000000000000000000000000000000000000000000000000000000000000000000000000000000000000000000000000000000000000000000000000000000000000000000000000000000000000000000000000000000000000000000000000000000000000000000000000000000000000000000000000000000000000000000000000000000000000000000000000000000000000000000000000000000000000000000000000000000000000000000000000000000000000000000000000000000000000000000000000000000000000000000000000000000000000000000000000000000000000000000080018405f5e1008303728c8203e800a000000000000000000000000000000000000000000000000000000000000200008800000000000000000aa056e81f171bcc55a6ff8345e692c0f86e5b48e01b996cadc001622fb5e363b4218080a00000000000000000000000000000000000000000000000000000000000000000f863f861800a840100000094dc5ce4b44f0ca09bbd4abc430f16f02caf7df8f1010126a00e301a3f1bb12be0d3d2d089fd31a683fd9b3cc1d4388be53731687103ac9642a0243d949a00cb4b21aade6f87d11c4ec8c9d269325f26d265720e31985f962295c0c0",
                "blocknumber": "1"
            }
        ],
        "sealEngine": "NoProof",
        "_info": {
            "hash": "0x58eafd5f042a4427c15edef4438a60224e7d5b5052d30795a3f3a9c9e45c9609",
            "fixture-format": "blockchain_test",
            "comment": "`execution-specs` generated test",
            "filling-transition-tool": "2.19.0",
            "description": "Ori Pomerantz qbzzt1@gmail.",
            "url": "https://github.com/ethereum/execution-specs/blob/tests-snobal-devnet-5@v8037.0.0/tests/ported_static/vmArithmeticTest/test_fib.py#L24",
            "metadata": {
                "opcode_count": {}
            }
        }
    }
}