{
    "tests/ported_static/stStaticCall/test_static_call_and_callcode_consume_more_gas_then_transaction_has.py::test_static_call_and_callcode_consume_more_gas_then_transaction_has[fork_Cancun-blockchain_test_from_state_test-d0]": {
        "network": "Cancun",
        "genesisBlockHeader": {
            "parentHash": "0x0000000000000000000000000000000000000000000000000000000000000000",
            "uncleHash": "0x1dcc4de8dec75d7aab85b567b6ccd41ad312451b948a7413f0a142fd40d49347",
            "coinbase": "0x0000000000000000000000000000000000000000",
            "stateRoot": "0x774b2fe7592235fbfff31d4918bbc7c4acc0d5b0fb7ec1bbd1d81874b4ff5f0a",
            "transactionsTrie": "0x56e81f171bcc55a6ff8345e692c0f86e5b48e01b996cadc001622fb5e363b421",
            "receiptTrie": "0x56e81f171bcc55a6ff8345e692c0f86e5b48e01b996cadc001622fb5e363b421",
            "bloom": "0x00000000000000000000000000000000000000000000000000000000000000000000000000000000000000000000000000000000000000000000000000000000000000000000000000000000000000000000000000000000000000000000000000000000000000000000000000000000000000000000000000000000000000000000000000000000000000000000000000000000000000000000000000000000000000000000000000000000000000000000000000000000000000000000000000000000000000000000000000000000000000000000000000000000000000000000000000000000000000000000000000000000000000000000000000000000",
            "difficulty": "0x00",
            "number": "0x00",
            "gasLimit": "0x989680",
            "gasUsed": "0x00",
            "timestamp": "0x00",
            "extraData": "0x00",
            "mixHash": "0x0000000000000000000000000000000000000000000000000000000000000000",
            "nonce": "0x0000000000000000",
            "baseFeePerGas": "0x0b",
            "withdrawalsRoot": "0x56e81f171bcc55a6ff8345e692c0f86e5b48e01b996cadc001622fb5e363b421",
            "blobGasUsed": "0x00",
            "excessBlobGas": "0x00",
            "parentBeaconBlockRoot": "0x0000000000000000000000000000000000000000000000000000000000000000",
            "hash": "0xe59e44187886803d346d2005db426c32e3bb8715f274ce13e9f61f3b0f5c05db"
        },
        "pre": {
            "0x000f3df6d732807ef1319fb7b8bb8522d0beac02": {
                "nonce": "0x01",
                "balance": "0x00",
                "code": "0x3373fffffffffffffffffffffffffffffffffffffffe14604d57602036146024575f5ffd5b5f35801560495762001fff810690815414603c575f5ffd5b62001fff01545f5260205ff35b5f5ffd5b62001fff42064281555f359062001fff015500",
                "storage": {}
            },
            "0xd719ccdb2301950b0a0bdf09a2bb1d5f8b225f6f": {
                "nonce": "0x00",
                "balance": "0xe8d4a51000",
                "code": "0x",
                "storage": {}
            },
            "0xc0e4183389eb57f779a986d8c878f89b9401dc8e": {
                "nonce": "0x00",
                "balance": "0x00",
                "code": "0x6000600060006000346000355af1600055600160015500",
                "storage": {}
            },
            "0xfd59abae521384b5731ac657616680219fbc423d": {
                "nonce": "0x00",
                "balance": "0x00",
                "code": "0x601260005500",
                "storage": {}
            },
            "0x9620801959b49d6d1bd08f0cdafda5d87e900403": {
                "nonce": "0x00",
                "balance": "0x00",
                "code": "0x601260005200",
                "storage": {}
            },
            "0x438f316ba8e30f69666a3477a7f5cd26235d3cbb": {
                "nonce": "0x00",
                "balance": "0x00",
                "code": "0x600060006000600073fd59abae521384b5731ac657616680219fbc423d620927c0fa6009556000600060006000600073fd59abae521384b5731ac657616680219fbc423d620927c0f2600a5500",
                "storage": {}
            },
            "0x7d77eaf6dc93e2b7b83a8e06314af1ce47cd2596": {
                "nonce": "0x00",
                "balance": "0x00",
                "code": "0x6000600060006000739620801959b49d6d1bd08f0cdafda5d87e900403620927c0fa6009556000600060006000600073fd59abae521384b5731ac657616680219fbc423d620927c0f2600a5500",
                "storage": {}
            }
        },
        "postState": {
            "0x000f3df6d732807ef1319fb7b8bb8522d0beac02": {
                "nonce": "0x01",
                "balance": "0x00",
                "code": "0x3373fffffffffffffffffffffffffffffffffffffffe14604d57602036146024575f5ffd5b5f35801560495762001fff810690815414603c575f5ffd5b62001fff01545f5260205ff35b5f5ffd5b62001fff42064281555f359062001fff015500",
                "storage": {
                    "0x03e8": "0x03e8"
                }
            },
            "0xd719ccdb2301950b0a0bdf09a2bb1d5f8b225f6f": {
                "nonce": "0x01",
                "balance": "0xe8d4498280",
                "code": "0x",
                "storage": {}
            },
            "0xc0e4183389eb57f779a986d8c878f89b9401dc8e": {
                "nonce": "0x00",
                "balance": "0x00",
                "code": "0x6000600060006000346000355af1600055600160015500",
                "storage": {}
            },
            "0xfd59abae521384b5731ac657616680219fbc423d": {
                "nonce": "0x00",
                "balance": "0x00",
                "code": "0x601260005500",
                "storage": {}
            },
            "0x9620801959b49d6d1bd08f0cdafda5d87e900403": {
                "nonce": "0x00",
                "balance": "0x00",
                "code": "0x601260005200",
                "storage": {}
            },
            "0x438f316ba8e30f69666a3477a7f5cd26235d3cbb": {
                "nonce": "0x00",
                "balance": "0x00",
                "code": "0x600060006000600073fd59abae521384b5731ac657616680219fbc423d620927c0fa6009556000600060006000600073fd59abae521384b5731ac657616680219fbc423d620927c0f2600a5500",
                "storage": {}
            },
            "0x7d77eaf6dc93e2b7b83a8e06314af1ce47cd2596": {
                "nonce": "0x00",
                "balance": "0x00",
                "code": "0x6000600060006000739620801959b49d6d1bd08f0cdafda5d87e900403620927c0fa6009556000600060006000600073fd59abae521384b5731ac657616680219fbc423d620927c0f2600a5500",
                "storage": {}
            }
        },
        "lastblockhash": "0x5a9e6ecb329753298a2e063b6bc419109aae888544f19f3733f78415528642a0",
        "config": {
            "network": "Cancun",
            "chainid": "0x01",
            "blobSchedule": {
                "Cancun": {
                    "target": "0x03",
                    "max": "0x06",
                    "baseFeeUpdateFraction": "0x32f0ed"
                }
            }
        },
        "genesisRLP": "0xf9023bf90235a00000000000000000000000000000000000000000000000000000000000000000a01dcc4de8dec75d7aab85b567b6ccd41ad312451b948a7413f0a142fd40d49347940000000000000000000000000000000000000000a0774b2fe7592235fbfff31d4918bbc7c4acc0d5b0fb7ec1bbd1d81874b4ff5f0aa056e81f171bcc55a6ff8345e692c0f86e5b48e01b996cadc001622fb5e363b421a056e81f171bcc55a6ff8345e692c0f86e5b48e01b996cadc001622fb5e363b421b9010000000000000000000000000000000000000000000000000000000000000000000000000000000000000000000000000000000000000000000000000000000000000000000000000000000000000000000000000000000000000000000000000000000000000000000000000000000000000000000000000000000000000000000000000000000000000000000000000000000000000000000000000000000000000000000000000000000000000000000000000000000000000000000000000000000000000000000000000000000000000000000000000000000000000000000000000000000000000000000000000000000000000000000000000000000000808083989680808000a000000000000000000000000000000000000000000000000000000000000000008800000000000000000ba056e81f171bcc55a6ff8345e692c0f86e5b48e01b996cadc001622fb5e363b4218080a00000000000000000000000000000000000000000000000000000000000000000c0c0c0",
        "blocks": [
            {
                "blockHeader": {
                    "parentHash": "0xe59e44187886803d346d2005db426c32e3bb8715f274ce13e9f61f3b0f5c05db",
                    "uncleHash": "0x1dcc4de8dec75d7aab85b567b6ccd41ad312451b948a7413f0a142fd40d49347",
                    "coinbase": "0x2adc25665018aa1fe0e6bc666dac8fc2697ff9ba",
                    "stateRoot": "0x98fbadf8f473fb98a7ff590b98441a0b4cd19a6e07fc2a228e03fa18bbd60719",
                    "transactionsTrie": "0xd8b666721cbcb0b495d87710c39934ca1e4b98508715dff4fa907cd585bf2610",
                    "receiptTrie": "0x498b3877860df644cfd4fcc2e12bc89f717e8618d276fe033ca9152312997215",
                    "bloom": "0x00000000000000000000000000000000000000000000000000000000000000000000000000000000000000000000000000000000000000000000000000000000000000000000000000000000000000000000000000000000000000000000000000000000000000000000000000000000000000000000000000000000000000000000000000000000000000000000000000000000000000000000000000000000000000000000000000000000000000000000000000000000000000000000000000000000000000000000000000000000000000000000000000000000000000000000000000000000000000000000000000000000000000000000000000000000",
                    "difficulty": "0x00",
                    "number": "0x01",
                    "gasLimit": "0x989680",
                    "gasUsed": "0x0927c0",
                    "timestamp": "0x03e8",
                    "extraData": "0x00",
                    "mixHash": "0x0000000000000000000000000000000000000000000000000000000000020000",
                    "nonce": "0x0000000000000000",
                    "baseFeePerGas": "0x0a",
                    "withdrawalsRoot": "0x56e81f171bcc55a6ff8345e692c0f86e5b48e01b996cadc001622fb5e363b421",
                    "blobGasUsed": "0x00",
                    "excessBlobGas": "0x00",
                    "parentBeaconBlockRoot": "0x0000000000000000000000000000000000000000000000000000000000000000",
                    "hash": "0x5a9e6ecb329753298a2e063b6bc419109aae888544f19f3733f78415528642a0"
                },
                "transactions": [
                    {
                        "type": "0x00",
                        "chainId": "0x01",
                        "nonce": "0x00",
                        "gasPrice": "0x0a",
                        "gasLimit": "0x0927c0",
                        "to": "0xc0e4183389eb57f779a986d8c878f89b9401dc8e",
                        "value": "0x00",
                        "data": "0x000000000000000000000000438f316ba8e30f69666a3477a7f5cd26235d3cbb",
                        "v": "0x26",
                        "r": "0x4ff8ac499dd96fee055814eb2fc57b9743caaf258981ea032c77130d332d023b",
                        "s": "0x3c61aadb05c30d09cd07899ef9406acbeeb87bd296b09a980735e17cf5dd4c0b",
                        "sender": "0xd719ccdb2301950b0a0bdf09a2bb1d5f8b225f6f"
                    }
                ],
                "uncleHeaders": [],
                "withdrawals": [],
                "receipts": [
                    {
                        "transactionHash": "0x3cdcb6cc0a98d490c7097db89748a85b2d386b311fcc77b8e8ea6a00e064a127",
                        "type": "0x00",
                        "cumulativeGasUsed": "0x0927c0",
                        "bloom": "0x00000000000000000000000000000000000000000000000000000000000000000000000000000000000000000000000000000000000000000000000000000000000000000000000000000000000000000000000000000000000000000000000000000000000000000000000000000000000000000000000000000000000000000000000000000000000000000000000000000000000000000000000000000000000000000000000000000000000000000000000000000000000000000000000000000000000000000000000000000000000000000000000000000000000000000000000000000000000000000000000000000000000000000000000000000000",
                        "logs": [],
                        "status": false,
                        "rlp": "0xf9010980830927c0b9010000000000000000000000000000000000000000000000000000000000000000000000000000000000000000000000000000000000000000000000000000000000000000000000000000000000000000000000000000000000000000000000000000000000000000000000000000000000000000000000000000000000000000000000000000000000000000000000000000000000000000000000000000000000000000000000000000000000000000000000000000000000000000000000000000000000000000000000000000000000000000000000000000000000000000000000000000000000000000000000000000000000000000000000000000000000c0"
                    }
                ],
                "rlp": "0xf902c3f9023aa0e59e44187886803d346d2005db426c32e3bb8715f274ce13e9f61f3b0f5c05dba01dcc4de8dec75d7aab85b567b6ccd41ad312451b948a7413f0a142fd40d49347942adc25665018aa1fe0e6bc666dac8fc2697ff9baa098fbadf8f473fb98a7ff590b98441a0b4cd19a6e07fc2a228e03fa18bbd60719a0d8b666721cbcb0b495d87710c39934ca1e4b98508715dff4fa907cd585bf2610a0498b3877860df644cfd4fcc2e12bc89f717e8618d276fe033ca9152312997215b9010000000000000000000000000000000000000000000000000000000000000000000000000000000000000000000000000000000000000000000000000000000000000000000000000000000000000000000000000000000000000000000000000000000000000000000000000000000000000000000000000000000000000000000000000000000000000000000000000000000000000000000000000000000000000000000000000000000000000000000000000000000000000000000000000000000000000000000000000000000000000000000000000000000000000000000000000000000000000000000000000000000000000000000000000000000000800183989680830927c08203e800a000000000000000000000000000000000000000000000000000000000000200008800000000000000000aa056e81f171bcc55a6ff8345e692c0f86e5b48e01b996cadc001622fb5e363b4218080a00000000000000000000000000000000000000000000000000000000000000000f882f880800a830927c094c0e4183389eb57f779a986d8c878f89b9401dc8e80a0000000000000000000000000438f316ba8e30f69666a3477a7f5cd26235d3cbb26a04ff8ac499dd96fee055814eb2fc57b9743caaf258981ea032c77130d332d023ba03c61aadb05c30d09cd07899ef9406acbeeb87bd296b09a980735e17cf5dd4c0bc0c0",
                "blocknumber": "1"
            }
        ],
        "sealEngine": "NoProof",
        "_info": {
            "hash": "0xd8ddd1668f2396002ed7c7519394bcd6e2fbf51e932e6c58928166b7fec8ee79",
            "fixture-format": "blockchain_test",
            "comment": "`execution-specs` generated test",
            "filling-transition-tool": "2.19.0",
            "description": "Test_static_call_and_callcode_consume_more_gas_then_transaction_has.",
            "url": "https://github.com/ethereum/execution-specs/blob/tests-snobal-devnet-5@v8037.0.0/tests/ported_static/stStaticCall/test_static_call_and_callcode_consume_more_gas_then_transaction_has.py#L28",
            "metadata": {
                "opcode_count": {}
            }
        }
    },
    "tests/ported_static/stStaticCall/test_static_call_and_callcode_consume_more_gas_then_transaction_has.py::test_static_call_and_callcode_consume_more_gas_then_transaction_has[fork_Cancun-blockchain_test_from_state_test-d1]": {
        "network": "Cancun",
        "genesisBlockHeader": {
            "parentHash": "0x0000000000000000000000000000000000000000000000000000000000000000",
            "uncleHash": "0x1dcc4de8dec75d7aab85b567b6ccd41ad312451b948a7413f0a142fd40d49347",
            "coinbase": "0x0000000000000000000000000000000000000000",
            "stateRoot": "0x774b2fe7592235fbfff31d4918bbc7c4acc0d5b0fb7ec1bbd1d81874b4ff5f0a",
            "transactionsTrie": "0x56e81f171bcc55a6ff8345e692c0f86e5b48e01b996cadc001622fb5e363b421",
            "receiptTrie": "0x56e81f171bcc55a6ff8345e692c0f86e5b48e01b996cadc001622fb5e363b421",
            "bloom": "0x00000000000000000000000000000000000000000000000000000000000000000000000000000000000000000000000000000000000000000000000000000000000000000000000000000000000000000000000000000000000000000000000000000000000000000000000000000000000000000000000000000000000000000000000000000000000000000000000000000000000000000000000000000000000000000000000000000000000000000000000000000000000000000000000000000000000000000000000000000000000000000000000000000000000000000000000000000000000000000000000000000000000000000000000000000000",
            "difficulty": "0x00",
            "number": "0x00",
            "gasLimit": "0x989680",
            "gasUsed": "0x00",
            "timestamp": "0x00",
            "extraData": "0x00",
            "mixHash": "0x0000000000000000000000000000000000000000000000000000000000000000",
            "nonce": "0x0000000000000000",
            "baseFeePerGas": "0x0b",
            "withdrawalsRoot": "0x56e81f171bcc55a6ff8345e692c0f86e5b48e01b996cadc001622fb5e363b421",
            "blobGasUsed": "0x00",
            "excessBlobGas": "0x00",
            "parentBeaconBlockRoot": "0x0000000000000000000000000000000000000000000000000000000000000000",
            "hash": "0xe59e44187886803d346d2005db426c32e3bb8715f274ce13e9f61f3b0f5c05db"
        },
        "pre": {
            "0x000f3df6d732807ef1319fb7b8bb8522d0beac02": {
                "nonce": "0x01",
                "balance": "0x00",
                "code": "0x3373fffffffffffffffffffffffffffffffffffffffe14604d57602036146024575f5ffd5b5f35801560495762001fff810690815414603c575f5ffd5b62001fff01545f5260205ff35b5f5ffd5b62001fff42064281555f359062001fff015500",
                "storage": {}
            },
            "0xd719ccdb2301950b0a0bdf09a2bb1d5f8b225f6f": {
                "nonce": "0x00",
                "balance": "0xe8d4a51000",
                "code": "0x",
                "storage": {}
            },
            "0xc0e4183389eb57f779a986d8c878f89b9401dc8e": {
                "nonce": "0x00",
                "balance": "0x00",
                "code": "0x6000600060006000346000355af1600055600160015500",
                "storage": {}
            },
            "0xfd59abae521384b5731ac657616680219fbc423d": {
                "nonce": "0x00",
                "balance": "0x00",
                "code": "0x601260005500",
                "storage": {}
            },
            "0x9620801959b49d6d1bd08f0cdafda5d87e900403": {
                "nonce": "0x00",
                "balance": "0x00",
                "code": "0x601260005200",
                "storage": {}
            },
            "0x438f316ba8e30f69666a3477a7f5cd26235d3cbb": {
                "nonce": "0x00",
                "balance": "0x00",
                "code": "0x600060006000600073fd59abae521384b5731ac657616680219fbc423d620927c0fa6009556000600060006000600073fd59abae521384b5731ac657616680219fbc423d620927c0f2600a5500",
                "storage": {}
            },
            "0x7d77eaf6dc93e2b7b83a8e06314af1ce47cd2596": {
                "nonce": "0x00",
                "balance": "0x00",
                "code": "0x6000600060006000739620801959b49d6d1bd08f0cdafda5d87e900403620927c0fa6009556000600060006000600073fd59abae521384b5731ac657616680219fbc423d620927c0f2600a5500",
                "storage": {}
            }
        },
        "postState": {
            "0x000f3df6d732807ef1319fb7b8bb8522d0beac02": {
                "nonce": "0x01",
                "balance": "0x00",
                "code": "0x3373fffffffffffffffffffffffffffffffffffffffe14604d57602036146024575f5ffd5b5f35801560495762001fff810690815414603c575f5ffd5b62001fff01545f5260205ff35b5f5ffd5b62001fff42064281555f359062001fff015500",
                "storage": {
                    "0x03e8": "0x03e8"
                }
            },
            "0xd719ccdb2301950b0a0bdf09a2bb1d5f8b225f6f": {
                "nonce": "0x01",
                "balance": "0xe8d48fbc8c",
                "code": "0x",
                "storage": {}
            },
            "0xc0e4183389eb57f779a986d8c878f89b9401dc8e": {
                "nonce": "0x00",
                "balance": "0x00",
                "code": "0x6000600060006000346000355af1600055600160015500",
                "storage": {
                    "0x00": "0x01",
                    "0x01": "0x01"
                }
            },
            "0xfd59abae521384b5731ac657616680219fbc423d": {
                "nonce": "0x00",
                "balance": "0x00",
                "code": "0x601260005500",
                "storage": {}
            },
            "0x9620801959b49d6d1bd08f0cdafda5d87e900403": {
                "nonce": "0x00",
                "balance": "0x00",
                "code": "0x601260005200",
                "storage": {}
            },
            "0x438f316ba8e30f69666a3477a7f5cd26235d3cbb": {
                "nonce": "0x00",
                "balance": "0x00",
                "code": "0x600060006000600073fd59abae521384b5731ac657616680219fbc423d620927c0fa6009556000600060006000600073fd59abae521384b5731ac657616680219fbc423d620927c0f2600a5500",
                "storage": {}
            },
            "0x7d77eaf6dc93e2b7b83a8e06314af1ce47cd2596": {
                "nonce": "0x00",
                "balance": "0x00",
                "code": "0x6000600060006000739620801959b49d6d1bd08f0cdafda5d87e900403620927c0fa6009556000600060006000600073fd59abae521384b5731ac657616680219fbc423d620927c0f2600a5500",
                "storage": {
                    "0x09": "0x01",
                    "0x00": "0x12",
                    "0x0a": "0x01"
                }
            }
        },
        "lastblockhash": "0x8155accbff83ba2b920c5c536fa13eaec3a7204c77ae9ff3a428e635a106c7fd",
        "config": {
            "network": "Cancun",
            "chainid": "0x01",
            "blobSchedule": {
                "Cancun": {
                    "target": "0x03",
                    "max": "0x06",
                    "baseFeeUpdateFraction": "0x32f0ed"
                }
            }
        },
        "genesisRLP": "0xf9023bf90235a00000000000000000000000000000000000000000000000000000000000000000a01dcc4de8dec75d7aab85b567b6ccd41ad312451b948a7413f0a142fd40d49347940000000000000000000000000000000000000000a0774b2fe7592235fbfff31d4918bbc7c4acc0d5b0fb7ec1bbd1d81874b4ff5f0aa056e81f171bcc55a6ff8345e692c0f86e5b48e01b996cadc001622fb5e363b421a056e81f171bcc55a6ff8345e692c0f86e5b48e01b996cadc001622fb5e363b421b9010000000000000000000000000000000000000000000000000000000000000000000000000000000000000000000000000000000000000000000000000000000000000000000000000000000000000000000000000000000000000000000000000000000000000000000000000000000000000000000000000000000000000000000000000000000000000000000000000000000000000000000000000000000000000000000000000000000000000000000000000000000000000000000000000000000000000000000000000000000000000000000000000000000000000000000000000000000000000000000000000000000000000000000000000000000000808083989680808000a000000000000000000000000000000000000000000000000000000000000000008800000000000000000ba056e81f171bcc55a6ff8345e692c0f86e5b48e01b996cadc001622fb5e363b4218080a00000000000000000000000000000000000000000000000000000000000000000c0c0c0",
        "blocks": [
            {
                "blockHeader": {
                    "parentHash": "0xe59e44187886803d346d2005db426c32e3bb8715f274ce13e9f61f3b0f5c05db",
                    "uncleHash": "0x1dcc4de8dec75d7aab85b567b6ccd41ad312451b948a7413f0a142fd40d49347",
                    "coinbase": "0x2adc25665018aa1fe0e6bc666dac8fc2697ff9ba",
                    "stateRoot": "0x062dc4a4d093c8efb7b483c6107e23234272dbd53ecf2c371f81d7513a4b386b",
                    "transactionsTrie": "0x056f4b9534e71da01dd7e5f4b9e5aec9bf9c7e5bafacf1e4203b49d0b086858f",
                    "receiptTrie": "0x673088a17ebe97ea42ad6c52965e2c45564e442fcb04fd15cf559bba781a3fe8",
                    "bloom": "0x00000000000000000000000000000000000000000000000000000000000000000000000000000000000000000000000000000000000000000000000000000000000000000000000000000000000000000000000000000000000000000000000000000000000000000000000000000000000000000000000000000000000000000000000000000000000000000000000000000000000000000000000000000000000000000000000000000000000000000000000000000000000000000000000000000000000000000000000000000000000000000000000000000000000000000000000000000000000000000000000000000000000000000000000000000000",
                    "difficulty": "0x00",
                    "number": "0x01",
                    "gasLimit": "0x989680",
                    "gasUsed": "0x0221f2",
                    "timestamp": "0x03e8",
                    "extraData": "0x00",
                    "mixHash": "0x0000000000000000000000000000000000000000000000000000000000020000",
                    "nonce": "0x0000000000000000",
                    "baseFeePerGas": "0x0a",
                    "withdrawalsRoot": "0x56e81f171bcc55a6ff8345e692c0f86e5b48e01b996cadc001622fb5e363b421",
                    "blobGasUsed": "0x00",
                    "excessBlobGas": "0x00",
                    "parentBeaconBlockRoot": "0x0000000000000000000000000000000000000000000000000000000000000000",
                    "hash": "0x8155accbff83ba2b920c5c536fa13eaec3a7204c77ae9ff3a428e635a106c7fd"
                },
                "transactions": [
                    {
                        "type": "0x00",
                        "chainId": "0x01",
                        "nonce": "0x00",
                        "gasPrice": "0x0a",
                        "gasLimit": "0x0927c0",
                        "to": "0xc0e4183389eb57f779a986d8c878f89b9401dc8e",
                        "value": "0x00",
                        "data": "0x0000000000000000000000007d77eaf6dc93e2b7b83a8e06314af1ce47cd2596",
                        "v": "0x25",
                        "r": "0x8bbb62964ae31a036b652b77575ce19a71695056141966a5fd7b40e21019326c",
                        "s": "0x7b358a26b1fd76b65c4a43fea5806f36ecb98832d4c3cc862bc197c9c8da03d4",
                        "sender": "0xd719ccdb2301950b0a0bdf09a2bb1d5f8b225f6f"
                    }
                ],
                "uncleHeaders": [],
                "withdrawals": [],
                "receipts": [
                    {
                        "transactionHash": "0x7cf963c7a56b512747b066b9d3bcc4541d4be28fa48557c38874b5f4dcdd8283",
                        "type": "0x00",
                        "cumulativeGasUsed": "0x0221f2",
                        "bloom": "0x00000000000000000000000000000000000000000000000000000000000000000000000000000000000000000000000000000000000000000000000000000000000000000000000000000000000000000000000000000000000000000000000000000000000000000000000000000000000000000000000000000000000000000000000000000000000000000000000000000000000000000000000000000000000000000000000000000000000000000000000000000000000000000000000000000000000000000000000000000000000000000000000000000000000000000000000000000000000000000000000000000000000000000000000000000000",
                        "logs": [],
                        "status": true,
                        "rlp": "0xf9010901830221f2b9010000000000000000000000000000000000000000000000000000000000000000000000000000000000000000000000000000000000000000000000000000000000000000000000000000000000000000000000000000000000000000000000000000000000000000000000000000000000000000000000000000000000000000000000000000000000000000000000000000000000000000000000000000000000000000000000000000000000000000000000000000000000000000000000000000000000000000000000000000000000000000000000000000000000000000000000000000000000000000000000000000000000000000000000000000000000c0"
                    }
                ],
                "rlp": "0xf902c3f9023aa0e59e44187886803d346d2005db426c32e3bb8715f274ce13e9f61f3b0f5c05dba01dcc4de8dec75d7aab85b567b6ccd41ad312451b948a7413f0a142fd40d49347942adc25665018aa1fe0e6bc666dac8fc2697ff9baa0062dc4a4d093c8efb7b483c6107e23234272dbd53ecf2c371f81d7513a4b386ba0056f4b9534e71da01dd7e5f4b9e5aec9bf9c7e5bafacf1e4203b49d0b086858fa0673088a17ebe97ea42ad6c52965e2c45564e442fcb04fd15cf559bba781a3fe8b9010000000000000000000000000000000000000000000000000000000000000000000000000000000000000000000000000000000000000000000000000000000000000000000000000000000000000000000000000000000000000000000000000000000000000000000000000000000000000000000000000000000000000000000000000000000000000000000000000000000000000000000000000000000000000000000000000000000000000000000000000000000000000000000000000000000000000000000000000000000000000000000000000000000000000000000000000000000000000000000000000000000000000000000000000000000000800183989680830221f28203e800a000000000000000000000000000000000000000000000000000000000000200008800000000000000000aa056e81f171bcc55a6ff8345e692c0f86e5b48e01b996cadc001622fb5e363b4218080a00000000000000000000000000000000000000000000000000000000000000000f882f880800a830927c094c0e4183389eb57f779a986d8c878f89b9401dc8e80a00000000000000000000000007d77eaf6dc93e2b7b83a8e06314af1ce47cd259625a08bbb62964ae31a036b652b77575ce19a71695056141966a5fd7b40e21019326ca07b358a26b1fd76b65c4a43fea5806f36ecb98832d4c3cc862bc197c9c8da03d4c0c0",
                "blocknumber": "1"
            }
        ],
        "sealEngine": "NoProof",
        "_info": {
            "hash": "0x377bee217d0147a7934e14a217ebc19a31fab04f25f2946d454fc3df3fbd9546",
            "fixture-format": "blockchain_test",
            "comment": "`execution-specs` generated test",
            "filling-transition-tool": "2.19.0",
            "description": "Test_static_call_and_callcode_consume_more_gas_then_transaction_has.",
            "url": "https://github.com/ethereum/execution-specs/blob/tests-snobal-devnet-5@v8037.0.0/tests/ported_static/stStaticCall/test_static_call_and_callcode_consume_more_gas_then_transaction_has.py#L28",
            "metadata": {
                "opcode_count": {}
            }
        }
    }
}