{
    "tests/ported_static/stDelegatecallTestHomestead/test_delegatecall1024.py::test_delegatecall1024[fork_Cancun-blockchain_test_from_state_test]": {
        "network": "Cancun",
        "genesisBlockHeader": {
            "parentHash": "0x0000000000000000000000000000000000000000000000000000000000000000",
            "uncleHash": "0x1dcc4de8dec75d7aab85b567b6ccd41ad312451b948a7413f0a142fd40d49347",
            "coinbase": "0x0000000000000000000000000000000000000000",
            "stateRoot": "0xb570e1e4907db518b08d911d2e84ad2f0f830d3e161d32c17d1527bc4c59bc9b",
            "transactionsTrie": "0x56e81f171bcc55a6ff8345e692c0f86e5b48e01b996cadc001622fb5e363b421",
            "receiptTrie": "0x56e81f171bcc55a6ff8345e692c0f86e5b48e01b996cadc001622fb5e363b421",
            "bloom": "0x00000000000000000000000000000000000000000000000000000000000000000000000000000000000000000000000000000000000000000000000000000000000000000000000000000000000000000000000000000000000000000000000000000000000000000000000000000000000000000000000000000000000000000000000000000000000000000000000000000000000000000000000000000000000000000000000000000000000000000000000000000000000000000000000000000000000000000000000000000000000000000000000000000000000000000000000000000000000000000000000000000000000000000000000000000000",
            "difficulty": "0x00",
            "number": "0x00",
            "gasLimit": "0x7fffffffffffffff",
            "gasUsed": "0x00",
            "timestamp": "0x00",
            "extraData": "0x00",
            "mixHash": "0x0000000000000000000000000000000000000000000000000000000000000000",
            "nonce": "0x0000000000000000",
            "baseFeePerGas": "0x0b",
            "withdrawalsRoot": "0x56e81f171bcc55a6ff8345e692c0f86e5b48e01b996cadc001622fb5e363b421",
            "blobGasUsed": "0x00",
            "excessBlobGas": "0x00",
            "parentBeaconBlockRoot": "0x0000000000000000000000000000000000000000000000000000000000000000",
            "hash": "0xb4006739adf966cf060f4b1a9ab32f83b1ffd7cad23740e8fccb03fa238df465"
        },
        "pre": {
            "0x000f3df6d732807ef1319fb7b8bb8522d0beac02": {
                "nonce": "0x01",
                "balance": "0x00",
                "code": "0x3373fffffffffffffffffffffffffffffffffffffffe14604d57602036146024575f5ffd5b5f35801560495762001fff810690815414603c575f5ffd5b62001fff01545f5260205ff35b5f5ffd5b62001fff42064281555f359062001fff015500",
                "storage": {}
            },
            "0x2c854741c819493b3a940ebc70c2ced66e29473d": {
                "nonce": "0x00",
                "balance": "0xffffffffffffffffffffffffffffffff",
                "code": "0x",
                "storage": {}
            },
            "0x8b9fd541d0178978dd230ad3e047ecc019d60d03": {
                "nonce": "0x00",
                "balance": "0x1b58",
                "code": "0x",
                "storage": {}
            },
            "0xe7addf870a481e1a0829e5a67debd5b963861979": {
                "nonce": "0x00",
                "balance": "0x0400",
                "code": "0x600160005401600055600060006000600073e7addf870a481e1a0829e5a67debd5b963861979650ffffffffffff460015500",
                "storage": {}
            }
        },
        "postState": {
            "0x000f3df6d732807ef1319fb7b8bb8522d0beac02": {
                "nonce": "0x01",
                "balance": "0x00",
                "code": "0x3373fffffffffffffffffffffffffffffffffffffffe14604d57602036146024575f5ffd5b5f35801560495762001fff810690815414603c575f5ffd5b62001fff01545f5260205ff35b5f5ffd5b62001fff42064281555f359062001fff015500",
                "storage": {
                    "0x03e8": "0x03e8"
                }
            },
            "0x2c854741c819493b3a940ebc70c2ced66e29473d": {
                "nonce": "0x01",
                "balance": "0xffffffffffffffffffffffffffb25fe3",
                "code": "0x",
                "storage": {}
            },
            "0x8b9fd541d0178978dd230ad3e047ecc019d60d03": {
                "nonce": "0x00",
                "balance": "0x1b58",
                "code": "0x",
                "storage": {}
            },
            "0xe7addf870a481e1a0829e5a67debd5b963861979": {
                "nonce": "0x00",
                "balance": "0x040a",
                "code": "0x600160005401600055600060006000600073e7addf870a481e1a0829e5a67debd5b963861979650ffffffffffff460015500",
                "storage": {
                    "0x00": "0x0401",
                    "0x01": "0x01"
                }
            }
        },
        "lastblockhash": "0x677218b5041e5f9e4c8fb7928abb09c27b6ec580b0584020d9d6540e3d230770",
        "config": {
            "network": "Cancun",
            "chainid": "0x01",
            "blobSchedule": {
                "Cancun": {
                    "target": "0x03",
                    "max": "0x06",
                    "baseFeeUpdateFraction": "0x32f0ed"
                }
            }
        },
        "genesisRLP": "0xf90240f9023aa00000000000000000000000000000000000000000000000000000000000000000a01dcc4de8dec75d7aab85b567b6ccd41ad312451b948a7413f0a142fd40d49347940000000000000000000000000000000000000000a0b570e1e4907db518b08d911d2e84ad2f0f830d3e161d32c17d1527bc4c59bc9ba056e81f171bcc55a6ff8345e692c0f86e5b48e01b996cadc001622fb5e363b421a056e81f171bcc55a6ff8345e692c0f86e5b48e01b996cadc001622fb5e363b421b90100000000000000000000000000000000000000000000000000000000000000000000000000000000000000000000000000000000000000000000000000000000000000000000000000000000000000000000000000000000000000000000000000000000000000000000000000000000000000000000000000000000000000000000000000000000000000000000000000000000000000000000000000000000000000000000000000000000000000000000000000000000000000000000000000000000000000000000000000000000000000000000000000000000000000000000000000000000000000000000000000000000000000000000000000000000008080887fffffffffffffff808000a000000000000000000000000000000000000000000000000000000000000000008800000000000000000ba056e81f171bcc55a6ff8345e692c0f86e5b48e01b996cadc001622fb5e363b4218080a00000000000000000000000000000000000000000000000000000000000000000c0c0c0",
        "blocks": [
            {
                "blockHeader": {
                    "parentHash": "0xb4006739adf966cf060f4b1a9ab32f83b1ffd7cad23740e8fccb03fa238df465",
                    "uncleHash": "0x1dcc4de8dec75d7aab85b567b6ccd41ad312451b948a7413f0a142fd40d49347",
                    "coinbase": "0xb94f5374fce5edbc8e2a8697c15331677e6ebf0b",
                    "stateRoot": "0x3fa58f178f124d936fff6111baa92d087b71382d56f5cc3415d48772a86b9bb5",
                    "transactionsTrie": "0xc90b5e5d522b12e7249fe1bbb55f92e9489581c0f3248ab8d579aa74a51f3816",
                    "receiptTrie": "0xd94f9c0d70f495b1d9df4a16226a9c4c8198d13c44a72971a64f8de7784386cd",
                    "bloom": "0x00000000000000000000000000000000000000000000000000000000000000000000000000000000000000000000000000000000000000000000000000000000000000000000000000000000000000000000000000000000000000000000000000000000000000000000000000000000000000000000000000000000000000000000000000000000000000000000000000000000000000000000000000000000000000000000000000000000000000000000000000000000000000000000000000000000000000000000000000000000000000000000000000000000000000000000000000000000000000000000000000000000000000000000000000000000",
                    "difficulty": "0x00",
                    "number": "0x01",
                    "gasLimit": "0x7fffffffffffffff",
                    "gasUsed": "0x07c335",
                    "timestamp": "0x03e8",
                    "extraData": "0x00",
                    "mixHash": "0x0000000000000000000000000000000000000000000000000000000000020000",
                    "nonce": "0x0000000000000000",
                    "baseFeePerGas": "0x0a",
                    "withdrawalsRoot": "0x56e81f171bcc55a6ff8345e692c0f86e5b48e01b996cadc001622fb5e363b421",
                    "blobGasUsed": "0x00",
                    "excessBlobGas": "0x00",
                    "parentBeaconBlockRoot": "0x0000000000000000000000000000000000000000000000000000000000000000",
                    "hash": "0x677218b5041e5f9e4c8fb7928abb09c27b6ec580b0584020d9d6540e3d230770"
                },
                "transactions": [
                    {
                        "type": "0x00",
                        "chainId": "0x01",
                        "nonce": "0x00",
                        "gasPrice": "0x0a",
                        "gasLimit": "0x7fe0000000000001",
                        "to": "0xe7addf870a481e1a0829e5a67debd5b963861979",
                        "value": "0x0a",
                        "data": "0x",
                        "v": "0x25",
                        "r": "0xf3dfd0e10dd1a32b78610bbd52f1d99d459bacedcf5dd60c04ab503a8daef317",
                        "s": "0x085425c1ea9fe25379547a4d3428b1738d5debbc8a28876687b81e0a17cac862",
                        "sender": "0x2c854741c819493b3a940ebc70c2ced66e29473d"
                    }
                ],
                "uncleHeaders": [],
                "withdrawals": [],
                "receipts": [
                    {
                        "transactionHash": "0xc6967ac4de37afdaf47cbb2cfc27e9319e88b238a4c583088434aa5157129539",
                        "type": "0x00",
                        "cumulativeGasUsed": "0x07c335",
                        "bloom": "0x00000000000000000000000000000000000000000000000000000000000000000000000000000000000000000000000000000000000000000000000000000000000000000000000000000000000000000000000000000000000000000000000000000000000000000000000000000000000000000000000000000000000000000000000000000000000000000000000000000000000000000000000000000000000000000000000000000000000000000000000000000000000000000000000000000000000000000000000000000000000000000000000000000000000000000000000000000000000000000000000000000000000000000000000000000000",
                        "logs": [],
                        "status": true,
                        "rlp": "0xf90109018307c335b9010000000000000000000000000000000000000000000000000000000000000000000000000000000000000000000000000000000000000000000000000000000000000000000000000000000000000000000000000000000000000000000000000000000000000000000000000000000000000000000000000000000000000000000000000000000000000000000000000000000000000000000000000000000000000000000000000000000000000000000000000000000000000000000000000000000000000000000000000000000000000000000000000000000000000000000000000000000000000000000000000000000000000000000000000000000000c0"
                    }
                ],
                "rlp": "0xf902adf9023fa0b4006739adf966cf060f4b1a9ab32f83b1ffd7cad23740e8fccb03fa238df465a01dcc4de8dec75d7aab85b567b6ccd41ad312451b948a7413f0a142fd40d4934794b94f5374fce5edbc8e2a8697c15331677e6ebf0ba03fa58f178f124d936fff6111baa92d087b71382d56f5cc3415d48772a86b9bb5a0c90b5e5d522b12e7249fe1bbb55f92e9489581c0f3248ab8d579aa74a51f3816a0d94f9c0d70f495b1d9df4a16226a9c4c8198d13c44a72971a64f8de7784386cdb90100000000000000000000000000000000000000000000000000000000000000000000000000000000000000000000000000000000000000000000000000000000000000000000000000000000000000000000000000000000000000000000000000000000000000000000000000000000000000000000000000000000000000000000000000000000000000000000000000000000000000000000000000000000000000000000000000000000000000000000000000000000000000000000000000000000000000000000000000000000000000000000000000000000000000000000000000000000000000000000000000000000000000000000000000000000008001887fffffffffffffff8307c3358203e800a000000000000000000000000000000000000000000000000000000000000200008800000000000000000aa056e81f171bcc55a6ff8345e692c0f86e5b48e01b996cadc001622fb5e363b4218080a00000000000000000000000000000000000000000000000000000000000000000f867f865800a887fe000000000000194e7addf870a481e1a0829e5a67debd5b9638619790a8025a0f3dfd0e10dd1a32b78610bbd52f1d99d459bacedcf5dd60c04ab503a8daef317a0085425c1ea9fe25379547a4d3428b1738d5debbc8a28876687b81e0a17cac862c0c0",
                "blocknumber": "1"
            }
        ],
        "sealEngine": "NoProof",
        "_info": {
            "hash": "0xe9428f30322d24e78da0455e00de5a69b50f6837fd9d9dedf386967d309a74c3",
            "fixture-format": "blockchain_test",
            "comment": "`execution-specs` generated test",
            "filling-transition-tool": "2.19.0",
            "description": "Test_delegatecall1024.",
            "url": "https://github.com/ethereum/execution-specs/blob/tests-snobal-devnet-5@v8037.0.0/tests/ported_static/stDelegatecallTestHomestead/test_delegatecall1024.py#L24",
            "metadata": {
                "opcode_count": {}
            }
        }
    }
}