{
    "tests/ported_static/stDelegatecallTestHomestead/test_delegatecall1024.py::test_delegatecall1024[fork_Cancun-blockchain_test_from_state_test]": {
        "network": "Cancun",
        "genesisBlockHeader": {
            "parentHash": "0x0000000000000000000000000000000000000000000000000000000000000000",
            "uncleHash": "0x1dcc4de8dec75d7aab85b567b6ccd41ad312451b948a7413f0a142fd40d49347",
            "coinbase": "0x0000000000000000000000000000000000000000",
            "stateRoot": "0x22295820895873d1c402e233158556b77a408521c46888a834be3449adaa5b05",
            "transactionsTrie": "0x56e81f171bcc55a6ff8345e692c0f86e5b48e01b996cadc001622fb5e363b421",
            "receiptTrie": "0x56e81f171bcc55a6ff8345e692c0f86e5b48e01b996cadc001622fb5e363b421",
            "bloom": "0x00000000000000000000000000000000000000000000000000000000000000000000000000000000000000000000000000000000000000000000000000000000000000000000000000000000000000000000000000000000000000000000000000000000000000000000000000000000000000000000000000000000000000000000000000000000000000000000000000000000000000000000000000000000000000000000000000000000000000000000000000000000000000000000000000000000000000000000000000000000000000000000000000000000000000000000000000000000000000000000000000000000000000000000000000000000",
            "difficulty": "0x00",
            "number": "0x00",
            "gasLimit": "0x7fffffffffffffff",
            "gasUsed": "0x00",
            "timestamp": "0x00",
            "extraData": "0x00",
            "mixHash": "0x0000000000000000000000000000000000000000000000000000000000000000",
            "nonce": "0x0000000000000000",
            "baseFeePerGas": "0x0b",
            "withdrawalsRoot": "0x56e81f171bcc55a6ff8345e692c0f86e5b48e01b996cadc001622fb5e363b421",
            "blobGasUsed": "0x00",
            "excessBlobGas": "0x00",
            "parentBeaconBlockRoot": "0x0000000000000000000000000000000000000000000000000000000000000000",
            "hash": "0x4fce90a304521b520da363f73f3ccdd4c8294230bf958aba57c4e7284b498bc5"
        },
        "pre": {
            "0x000f3df6d732807ef1319fb7b8bb8522d0beac02": {
                "nonce": "0x01",
                "balance": "0x00",
                "code": "0x3373fffffffffffffffffffffffffffffffffffffffe14604d57602036146024575f5ffd5b5f35801560495762001fff810690815414603c575f5ffd5b62001fff01545f5260205ff35b5f5ffd5b62001fff42064281555f359062001fff015500",
                "storage": {}
            },
            "0x4768b5e50b0ebe91ae38d84a47e3179e615f9c40": {
                "nonce": "0x00",
                "balance": "0xffffffffffffffffffffffffffffffff",
                "code": "0x",
                "storage": {}
            },
            "0xd9b97c712ebce43f3c19179bbef44b550f9e8bc0": {
                "nonce": "0x00",
                "balance": "0x1b58",
                "code": "0x",
                "storage": {}
            },
            "0xe7addf870a481e1a0829e5a67debd5b963861979": {
                "nonce": "0x00",
                "balance": "0x0400",
                "code": "0x600160005401600055600060006000600073e7addf870a481e1a0829e5a67debd5b963861979650ffffffffffff460015500",
                "storage": {}
            }
        },
        "postState": {
            "0x000f3df6d732807ef1319fb7b8bb8522d0beac02": {
                "nonce": "0x01",
                "balance": "0x00",
                "code": "0x3373fffffffffffffffffffffffffffffffffffffffe14604d57602036146024575f5ffd5b5f35801560495762001fff810690815414603c575f5ffd5b62001fff01545f5260205ff35b5f5ffd5b62001fff42064281555f359062001fff015500",
                "storage": {
                    "0x03e8": "0x03e8"
                }
            },
            "0x4768b5e50b0ebe91ae38d84a47e3179e615f9c40": {
                "nonce": "0x01",
                "balance": "0xffffffffffffffffffffffffffb25fe3",
                "code": "0x",
                "storage": {}
            },
            "0xd9b97c712ebce43f3c19179bbef44b550f9e8bc0": {
                "nonce": "0x00",
                "balance": "0x1b58",
                "code": "0x",
                "storage": {}
            },
            "0xe7addf870a481e1a0829e5a67debd5b963861979": {
                "nonce": "0x00",
                "balance": "0x040a",
                "code": "0x600160005401600055600060006000600073e7addf870a481e1a0829e5a67debd5b963861979650ffffffffffff460015500",
                "storage": {
                    "0x00": "0x0401",
                    "0x01": "0x01"
                }
            }
        },
        "lastblockhash": "0xe6bdfd8889aa725e2f0b073cc995cfdf95c24dc675471628882396b6eb56dfcc",
        "config": {
            "network": "Cancun",
            "chainid": "0x01",
            "blobSchedule": {
                "Cancun": {
                    "target": "0x03",
                    "max": "0x06",
                    "baseFeeUpdateFraction": "0x32f0ed"
                }
            }
        },
        "genesisRLP": "0xf90240f9023aa00000000000000000000000000000000000000000000000000000000000000000a01dcc4de8dec75d7aab85b567b6ccd41ad312451b948a7413f0a142fd40d49347940000000000000000000000000000000000000000a022295820895873d1c402e233158556b77a408521c46888a834be3449adaa5b05a056e81f171bcc55a6ff8345e692c0f86e5b48e01b996cadc001622fb5e363b421a056e81f171bcc55a6ff8345e692c0f86e5b48e01b996cadc001622fb5e363b421b90100000000000000000000000000000000000000000000000000000000000000000000000000000000000000000000000000000000000000000000000000000000000000000000000000000000000000000000000000000000000000000000000000000000000000000000000000000000000000000000000000000000000000000000000000000000000000000000000000000000000000000000000000000000000000000000000000000000000000000000000000000000000000000000000000000000000000000000000000000000000000000000000000000000000000000000000000000000000000000000000000000000000000000000000000000000008080887fffffffffffffff808000a000000000000000000000000000000000000000000000000000000000000000008800000000000000000ba056e81f171bcc55a6ff8345e692c0f86e5b48e01b996cadc001622fb5e363b4218080a00000000000000000000000000000000000000000000000000000000000000000c0c0c0",
        "blocks": [
            {
                "blockHeader": {
                    "parentHash": "0x4fce90a304521b520da363f73f3ccdd4c8294230bf958aba57c4e7284b498bc5",
                    "uncleHash": "0x1dcc4de8dec75d7aab85b567b6ccd41ad312451b948a7413f0a142fd40d49347",
                    "coinbase": "0xb94f5374fce5edbc8e2a8697c15331677e6ebf0b",
                    "stateRoot": "0xbefc88a3693582609cd45898e58d0f2da5aaf6f54f1372f8db52181cd53d444f",
                    "transactionsTrie": "0xadbc3d398f0b66b28d66fcf0cb032497163c3dd9fda6292fce7f7e1e17e4cec4",
                    "receiptTrie": "0xd94f9c0d70f495b1d9df4a16226a9c4c8198d13c44a72971a64f8de7784386cd",
                    "bloom": "0x00000000000000000000000000000000000000000000000000000000000000000000000000000000000000000000000000000000000000000000000000000000000000000000000000000000000000000000000000000000000000000000000000000000000000000000000000000000000000000000000000000000000000000000000000000000000000000000000000000000000000000000000000000000000000000000000000000000000000000000000000000000000000000000000000000000000000000000000000000000000000000000000000000000000000000000000000000000000000000000000000000000000000000000000000000000",
                    "difficulty": "0x00",
                    "number": "0x01",
                    "gasLimit": "0x7fffffffffffffff",
                    "gasUsed": "0x07c335",
                    "timestamp": "0x03e8",
                    "extraData": "0x00",
                    "mixHash": "0x0000000000000000000000000000000000000000000000000000000000020000",
                    "nonce": "0x0000000000000000",
                    "baseFeePerGas": "0x0a",
                    "withdrawalsRoot": "0x56e81f171bcc55a6ff8345e692c0f86e5b48e01b996cadc001622fb5e363b421",
                    "blobGasUsed": "0x00",
                    "excessBlobGas": "0x00",
                    "parentBeaconBlockRoot": "0x0000000000000000000000000000000000000000000000000000000000000000",
                    "hash": "0xe6bdfd8889aa725e2f0b073cc995cfdf95c24dc675471628882396b6eb56dfcc"
                },
                "transactions": [
                    {
                        "type": "0x00",
                        "chainId": "0x01",
                        "nonce": "0x00",
                        "gasPrice": "0x0a",
                        "gasLimit": "0x7fe0000000000001",
                        "to": "0xe7addf870a481e1a0829e5a67debd5b963861979",
                        "value": "0x0a",
                        "data": "0x",
                        "v": "0x25",
                        "r": "0xb2e0e10094445227a0cf5eef8f5214c75523fa2cc2f879e990840d94e3b3a42f",
                        "s": "0x0c72ddd15a26722a911a67c58aa3390dd08ef4195f36df9091348fe3952025e2",
                        "sender": "0x4768b5e50b0ebe91ae38d84a47e3179e615f9c40"
                    }
                ],
                "uncleHeaders": [],
                "withdrawals": [],
                "receipts": [
                    {
                        "transactionHash": "0xb8b30956509172a5aeaa897e3950b260a85782fbc02de1b5890aed328fca81c2",
                        "type": "0x00",
                        "cumulativeGasUsed": "0x07c335",
                        "bloom": "0x00000000000000000000000000000000000000000000000000000000000000000000000000000000000000000000000000000000000000000000000000000000000000000000000000000000000000000000000000000000000000000000000000000000000000000000000000000000000000000000000000000000000000000000000000000000000000000000000000000000000000000000000000000000000000000000000000000000000000000000000000000000000000000000000000000000000000000000000000000000000000000000000000000000000000000000000000000000000000000000000000000000000000000000000000000000",
                        "logs": [],
                        "status": true,
                        "rlp": "0xf90109018307c335b9010000000000000000000000000000000000000000000000000000000000000000000000000000000000000000000000000000000000000000000000000000000000000000000000000000000000000000000000000000000000000000000000000000000000000000000000000000000000000000000000000000000000000000000000000000000000000000000000000000000000000000000000000000000000000000000000000000000000000000000000000000000000000000000000000000000000000000000000000000000000000000000000000000000000000000000000000000000000000000000000000000000000000000000000000000000000c0"
                    }
                ],
                "rlp": "0xf902adf9023fa04fce90a304521b520da363f73f3ccdd4c8294230bf958aba57c4e7284b498bc5a01dcc4de8dec75d7aab85b567b6ccd41ad312451b948a7413f0a142fd40d4934794b94f5374fce5edbc8e2a8697c15331677e6ebf0ba0befc88a3693582609cd45898e58d0f2da5aaf6f54f1372f8db52181cd53d444fa0adbc3d398f0b66b28d66fcf0cb032497163c3dd9fda6292fce7f7e1e17e4cec4a0d94f9c0d70f495b1d9df4a16226a9c4c8198d13c44a72971a64f8de7784386cdb90100000000000000000000000000000000000000000000000000000000000000000000000000000000000000000000000000000000000000000000000000000000000000000000000000000000000000000000000000000000000000000000000000000000000000000000000000000000000000000000000000000000000000000000000000000000000000000000000000000000000000000000000000000000000000000000000000000000000000000000000000000000000000000000000000000000000000000000000000000000000000000000000000000000000000000000000000000000000000000000000000000000000000000000000000000000008001887fffffffffffffff8307c3358203e800a000000000000000000000000000000000000000000000000000000000000200008800000000000000000aa056e81f171bcc55a6ff8345e692c0f86e5b48e01b996cadc001622fb5e363b4218080a00000000000000000000000000000000000000000000000000000000000000000f867f865800a887fe000000000000194e7addf870a481e1a0829e5a67debd5b9638619790a8025a0b2e0e10094445227a0cf5eef8f5214c75523fa2cc2f879e990840d94e3b3a42fa00c72ddd15a26722a911a67c58aa3390dd08ef4195f36df9091348fe3952025e2c0c0",
                "blocknumber": "1"
            }
        ],
        "sealEngine": "NoProof",
        "_info": {
            "hash": "0xc444e07f097a8a33cf625ba5edd963dc79d98e9afe8a4c3c35b8a472d541e262",
            "fixture-format": "blockchain_test",
            "comment": "`execution-specs` generated test",
            "filling-transition-tool": "2.19.0",
            "description": "Test_delegatecall1024.",
            "url": "https://github.com/ethereum/execution-specs/blob/tests-bal@v5.7.0/tests/ported_static/stDelegatecallTestHomestead/test_delegatecall1024.py#L25",
            "metadata": {
                "opcode_count": {}
            }
        }
    }
}