{
    "tests/ported_static/stStaticCall/test_static_callcallcodecallcode_011_ooge.py::test_static_callcallcodecallcode_011_ooge[fork_Cancun-blockchain_test_from_state_test-d0]": {
        "network": "Cancun",
        "genesisBlockHeader": {
            "parentHash": "0x0000000000000000000000000000000000000000000000000000000000000000",
            "uncleHash": "0x1dcc4de8dec75d7aab85b567b6ccd41ad312451b948a7413f0a142fd40d49347",
            "coinbase": "0x0000000000000000000000000000000000000000",
            "stateRoot": "0x1ae6941ee345472b9c80601cceb8886a527fcd792efed1043066758e6a5c6368",
            "transactionsTrie": "0x56e81f171bcc55a6ff8345e692c0f86e5b48e01b996cadc001622fb5e363b421",
            "receiptTrie": "0x56e81f171bcc55a6ff8345e692c0f86e5b48e01b996cadc001622fb5e363b421",
            "bloom": "0x00000000000000000000000000000000000000000000000000000000000000000000000000000000000000000000000000000000000000000000000000000000000000000000000000000000000000000000000000000000000000000000000000000000000000000000000000000000000000000000000000000000000000000000000000000000000000000000000000000000000000000000000000000000000000000000000000000000000000000000000000000000000000000000000000000000000000000000000000000000000000000000000000000000000000000000000000000000000000000000000000000000000000000000000000000000",
            "difficulty": "0x00",
            "number": "0x00",
            "gasLimit": "0x01c9c380",
            "gasUsed": "0x00",
            "timestamp": "0x00",
            "extraData": "0x00",
            "mixHash": "0x0000000000000000000000000000000000000000000000000000000000000000",
            "nonce": "0x0000000000000000",
            "baseFeePerGas": "0x0b",
            "withdrawalsRoot": "0x56e81f171bcc55a6ff8345e692c0f86e5b48e01b996cadc001622fb5e363b421",
            "blobGasUsed": "0x00",
            "excessBlobGas": "0x00",
            "parentBeaconBlockRoot": "0x0000000000000000000000000000000000000000000000000000000000000000",
            "hash": "0x46f4d166033f8e3df7adc06658f3e9d5e957d8598aed42b9a05a57e65c23d5dc"
        },
        "pre": {
            "0x000f3df6d732807ef1319fb7b8bb8522d0beac02": {
                "nonce": "0x01",
                "balance": "0x00",
                "code": "0x3373fffffffffffffffffffffffffffffffffffffffe14604d57602036146024575f5ffd5b5f35801560495762001fff810690815414603c575f5ffd5b62001fff01545f5260205ff35b5f5ffd5b62001fff42064281555f359062001fff015500",
                "storage": {}
            },
            "0x6e143211e9d36eaeebe65f6ed69d6c28500040d6": {
                "nonce": "0x00",
                "balance": "0x0de0b6b3a7640000",
                "code": "0x600035600052604060006040600073630155b633b8b8f4bcb63e94e0baae0197c824eb620249f0fa600055600160015500",
                "storage": {}
            },
            "0x630155b633b8b8f4bcb63e94e0baae0197c824eb": {
                "nonce": "0x00",
                "balance": "0x00",
                "code": "0x60003560005260406000604060007377612608c7a22f8929f6f1c9462a9954621aeefd620186a0f400",
                "storage": {}
            },
            "0x77612608c7a22f8929f6f1c9462a9954621aeefd": {
                "nonce": "0x00",
                "balance": "0x00",
                "code": "0x6040600060406000600035614e34f400",
                "storage": {}
            },
            "0xb126c622075b1189fb6c45e851641cfaddf65b36": {
                "nonce": "0x00",
                "balance": "0x00",
                "code": "0x600160035500",
                "storage": {}
            },
            "0xfbef21c5a6c2adcf3d769f085e0cc9fe9a8df954": {
                "nonce": "0x00",
                "balance": "0x00",
                "code": "0x5b61c3506080511015601c5760013b506001608051016080526000565b00",
                "storage": {}
            },
            "0xebaf50debf10e08302fe4280c32df010463ca297": {
                "nonce": "0x00",
                "balance": "0x0de0b6b3a7640000",
                "code": "0x",
                "storage": {}
            }
        },
        "postState": {
            "0x000f3df6d732807ef1319fb7b8bb8522d0beac02": {
                "nonce": "0x01",
                "balance": "0x00",
                "code": "0x3373fffffffffffffffffffffffffffffffffffffffe14604d57602036146024575f5ffd5b5f35801560495762001fff810690815414603c575f5ffd5b62001fff01545f5260205ff35b5f5ffd5b62001fff42064281555f359062001fff015500",
                "storage": {
                    "0x03e8": "0x03e8"
                }
            },
            "0x6e143211e9d36eaeebe65f6ed69d6c28500040d6": {
                "nonce": "0x00",
                "balance": "0x0de0b6b3a7640000",
                "code": "0x600035600052604060006040600073630155b633b8b8f4bcb63e94e0baae0197c824eb620249f0fa600055600160015500",
                "storage": {
                    "0x00": "0x01",
                    "0x01": "0x01"
                }
            },
            "0x630155b633b8b8f4bcb63e94e0baae0197c824eb": {
                "nonce": "0x00",
                "balance": "0x00",
                "code": "0x60003560005260406000604060007377612608c7a22f8929f6f1c9462a9954621aeefd620186a0f400",
                "storage": {}
            },
            "0x77612608c7a22f8929f6f1c9462a9954621aeefd": {
                "nonce": "0x00",
                "balance": "0x00",
                "code": "0x6040600060406000600035614e34f400",
                "storage": {}
            },
            "0xb126c622075b1189fb6c45e851641cfaddf65b36": {
                "nonce": "0x00",
                "balance": "0x00",
                "code": "0x600160035500",
                "storage": {}
            },
            "0xfbef21c5a6c2adcf3d769f085e0cc9fe9a8df954": {
                "nonce": "0x00",
                "balance": "0x00",
                "code": "0x5b61c3506080511015601c5760013b506001608051016080526000565b00",
                "storage": {}
            },
            "0xebaf50debf10e08302fe4280c32df010463ca297": {
                "nonce": "0x01",
                "balance": "0x0de0b6b3a755bbd0",
                "code": "0x",
                "storage": {}
            }
        },
        "lastblockhash": "0xdb34774f1fb6dbf9e4335e2788376e815235d190ae17e137fb909832fe7873c0",
        "config": {
            "network": "Cancun",
            "chainid": "0x01",
            "blobSchedule": {
                "Cancun": {
                    "target": "0x03",
                    "max": "0x06",
                    "baseFeeUpdateFraction": "0x32f0ed"
                }
            }
        },
        "genesisRLP": "0xf9023cf90236a00000000000000000000000000000000000000000000000000000000000000000a01dcc4de8dec75d7aab85b567b6ccd41ad312451b948a7413f0a142fd40d49347940000000000000000000000000000000000000000a01ae6941ee345472b9c80601cceb8886a527fcd792efed1043066758e6a5c6368a056e81f171bcc55a6ff8345e692c0f86e5b48e01b996cadc001622fb5e363b421a056e81f171bcc55a6ff8345e692c0f86e5b48e01b996cadc001622fb5e363b421b901000000000000000000000000000000000000000000000000000000000000000000000000000000000000000000000000000000000000000000000000000000000000000000000000000000000000000000000000000000000000000000000000000000000000000000000000000000000000000000000000000000000000000000000000000000000000000000000000000000000000000000000000000000000000000000000000000000000000000000000000000000000000000000000000000000000000000000000000000000000000000000000000000000000000000000000000000000000000000000000000000000000000000000000000000000000080808401c9c380808000a000000000000000000000000000000000000000000000000000000000000000008800000000000000000ba056e81f171bcc55a6ff8345e692c0f86e5b48e01b996cadc001622fb5e363b4218080a00000000000000000000000000000000000000000000000000000000000000000c0c0c0",
        "blocks": [
            {
                "blockHeader": {
                    "parentHash": "0x46f4d166033f8e3df7adc06658f3e9d5e957d8598aed42b9a05a57e65c23d5dc",
                    "uncleHash": "0x1dcc4de8dec75d7aab85b567b6ccd41ad312451b948a7413f0a142fd40d49347",
                    "coinbase": "0x2adc25665018aa1fe0e6bc666dac8fc2697ff9ba",
                    "stateRoot": "0x3062aa9e30ad2b0e7288eaeb11d71d975f0ac7d25938a14d6ba613e40d06fa35",
                    "transactionsTrie": "0x53da7da15e23a4ed89870d5fbe37aaed246d8fb75b8f82c15c09e1e16b876145",
                    "receiptTrie": "0x98a673f82ec478937a76cee65d0c6033737aa2d8e8dab6007c8891b8b5a1a65d",
                    "bloom": "0x00000000000000000000000000000000000000000000000000000000000000000000000000000000000000000000000000000000000000000000000000000000000000000000000000000000000000000000000000000000000000000000000000000000000000000000000000000000000000000000000000000000000000000000000000000000000000000000000000000000000000000000000000000000000000000000000000000000000000000000000000000000000000000000000000000000000000000000000000000000000000000000000000000000000000000000000000000000000000000000000000000000000000000000000000000000",
                    "difficulty": "0x00",
                    "number": "0x01",
                    "gasLimit": "0x01c9c380",
                    "gasUsed": "0x016d38",
                    "timestamp": "0x03e8",
                    "extraData": "0x00",
                    "mixHash": "0x0000000000000000000000000000000000000000000000000000000000020000",
                    "nonce": "0x0000000000000000",
                    "baseFeePerGas": "0x0a",
                    "withdrawalsRoot": "0x56e81f171bcc55a6ff8345e692c0f86e5b48e01b996cadc001622fb5e363b421",
                    "blobGasUsed": "0x00",
                    "excessBlobGas": "0x00",
                    "parentBeaconBlockRoot": "0x0000000000000000000000000000000000000000000000000000000000000000",
                    "hash": "0xdb34774f1fb6dbf9e4335e2788376e815235d190ae17e137fb909832fe7873c0"
                },
                "transactions": [
                    {
                        "type": "0x00",
                        "chainId": "0x01",
                        "nonce": "0x00",
                        "gasPrice": "0x0a",
                        "gasLimit": "0x029fe0",
                        "to": "0x6e143211e9d36eaeebe65f6ed69d6c28500040d6",
                        "value": "0x00",
                        "data": "0x000000000000000000000000b126c622075b1189fb6c45e851641cfaddf65b36",
                        "v": "0x25",
                        "r": "0x6d1bfa033d5a0673c18182f51116e7236f62280393cd38a55e121eba0a455398",
                        "s": "0x7bcc76a5d51f3197864646a4a713cdaea750789879ee994ef6bdb8317a207f03",
                        "sender": "0xebaf50debf10e08302fe4280c32df010463ca297"
                    }
                ],
                "uncleHeaders": [],
                "withdrawals": [],
                "receipts": [
                    {
                        "transactionHash": "0xec13cf57bde1f23e804659ca2d9fbacc36b000a73976925fdc8d1023fa35e303",
                        "type": "0x00",
                        "cumulativeGasUsed": "0x016d38",
                        "bloom": "0x00000000000000000000000000000000000000000000000000000000000000000000000000000000000000000000000000000000000000000000000000000000000000000000000000000000000000000000000000000000000000000000000000000000000000000000000000000000000000000000000000000000000000000000000000000000000000000000000000000000000000000000000000000000000000000000000000000000000000000000000000000000000000000000000000000000000000000000000000000000000000000000000000000000000000000000000000000000000000000000000000000000000000000000000000000000",
                        "logs": [],
                        "status": true,
                        "rlp": "0xf901090183016d38b9010000000000000000000000000000000000000000000000000000000000000000000000000000000000000000000000000000000000000000000000000000000000000000000000000000000000000000000000000000000000000000000000000000000000000000000000000000000000000000000000000000000000000000000000000000000000000000000000000000000000000000000000000000000000000000000000000000000000000000000000000000000000000000000000000000000000000000000000000000000000000000000000000000000000000000000000000000000000000000000000000000000000000000000000000000000000c0"
                    }
                ],
                "rlp": "0xf902c4f9023ba046f4d166033f8e3df7adc06658f3e9d5e957d8598aed42b9a05a57e65c23d5dca01dcc4de8dec75d7aab85b567b6ccd41ad312451b948a7413f0a142fd40d49347942adc25665018aa1fe0e6bc666dac8fc2697ff9baa03062aa9e30ad2b0e7288eaeb11d71d975f0ac7d25938a14d6ba613e40d06fa35a053da7da15e23a4ed89870d5fbe37aaed246d8fb75b8f82c15c09e1e16b876145a098a673f82ec478937a76cee65d0c6033737aa2d8e8dab6007c8891b8b5a1a65db901000000000000000000000000000000000000000000000000000000000000000000000000000000000000000000000000000000000000000000000000000000000000000000000000000000000000000000000000000000000000000000000000000000000000000000000000000000000000000000000000000000000000000000000000000000000000000000000000000000000000000000000000000000000000000000000000000000000000000000000000000000000000000000000000000000000000000000000000000000000000000000000000000000000000000000000000000000000000000000000000000000000000000000000000000000000080018401c9c38083016d388203e800a000000000000000000000000000000000000000000000000000000000000200008800000000000000000aa056e81f171bcc55a6ff8345e692c0f86e5b48e01b996cadc001622fb5e363b4218080a00000000000000000000000000000000000000000000000000000000000000000f882f880800a83029fe0946e143211e9d36eaeebe65f6ed69d6c28500040d680a0000000000000000000000000b126c622075b1189fb6c45e851641cfaddf65b3625a06d1bfa033d5a0673c18182f51116e7236f62280393cd38a55e121eba0a455398a07bcc76a5d51f3197864646a4a713cdaea750789879ee994ef6bdb8317a207f03c0c0",
                "blocknumber": "1"
            }
        ],
        "sealEngine": "NoProof",
        "_info": {
            "hash": "0xd4cafd9e98ba3adec0fbcc3b32b28f15925567ad1451bc57fe293070b94ac9f8",
            "fixture-format": "blockchain_test",
            "comment": "`execution-specs` generated test",
            "filling-transition-tool": "2.19.0",
            "description": "Test_static_callcallcodecallcode_011_ooge.",
            "url": "https://github.com/ethereum/execution-specs/blob/tests-sn\u00f8bal-devnet-4@v1.0.0/tests/ported_static/stStaticCall/test_static_callcallcodecallcode_011_ooge.py#L26",
            "metadata": {
                "opcode_count": {}
            }
        }
    },
    "tests/ported_static/stStaticCall/test_static_callcallcodecallcode_011_ooge.py::test_static_callcallcodecallcode_011_ooge[fork_Cancun-blockchain_test_from_state_test-d1]": {
        "network": "Cancun",
        "genesisBlockHeader": {
            "parentHash": "0x0000000000000000000000000000000000000000000000000000000000000000",
            "uncleHash": "0x1dcc4de8dec75d7aab85b567b6ccd41ad312451b948a7413f0a142fd40d49347",
            "coinbase": "0x0000000000000000000000000000000000000000",
            "stateRoot": "0x1ae6941ee345472b9c80601cceb8886a527fcd792efed1043066758e6a5c6368",
            "transactionsTrie": "0x56e81f171bcc55a6ff8345e692c0f86e5b48e01b996cadc001622fb5e363b421",
            "receiptTrie": "0x56e81f171bcc55a6ff8345e692c0f86e5b48e01b996cadc001622fb5e363b421",
            "bloom": "0x00000000000000000000000000000000000000000000000000000000000000000000000000000000000000000000000000000000000000000000000000000000000000000000000000000000000000000000000000000000000000000000000000000000000000000000000000000000000000000000000000000000000000000000000000000000000000000000000000000000000000000000000000000000000000000000000000000000000000000000000000000000000000000000000000000000000000000000000000000000000000000000000000000000000000000000000000000000000000000000000000000000000000000000000000000000",
            "difficulty": "0x00",
            "number": "0x00",
            "gasLimit": "0x01c9c380",
            "gasUsed": "0x00",
            "timestamp": "0x00",
            "extraData": "0x00",
            "mixHash": "0x0000000000000000000000000000000000000000000000000000000000000000",
            "nonce": "0x0000000000000000",
            "baseFeePerGas": "0x0b",
            "withdrawalsRoot": "0x56e81f171bcc55a6ff8345e692c0f86e5b48e01b996cadc001622fb5e363b421",
            "blobGasUsed": "0x00",
            "excessBlobGas": "0x00",
            "parentBeaconBlockRoot": "0x0000000000000000000000000000000000000000000000000000000000000000",
            "hash": "0x46f4d166033f8e3df7adc06658f3e9d5e957d8598aed42b9a05a57e65c23d5dc"
        },
        "pre": {
            "0x000f3df6d732807ef1319fb7b8bb8522d0beac02": {
                "nonce": "0x01",
                "balance": "0x00",
                "code": "0x3373fffffffffffffffffffffffffffffffffffffffe14604d57602036146024575f5ffd5b5f35801560495762001fff810690815414603c575f5ffd5b62001fff01545f5260205ff35b5f5ffd5b62001fff42064281555f359062001fff015500",
                "storage": {}
            },
            "0x6e143211e9d36eaeebe65f6ed69d6c28500040d6": {
                "nonce": "0x00",
                "balance": "0x0de0b6b3a7640000",
                "code": "0x600035600052604060006040600073630155b633b8b8f4bcb63e94e0baae0197c824eb620249f0fa600055600160015500",
                "storage": {}
            },
            "0x630155b633b8b8f4bcb63e94e0baae0197c824eb": {
                "nonce": "0x00",
                "balance": "0x00",
                "code": "0x60003560005260406000604060007377612608c7a22f8929f6f1c9462a9954621aeefd620186a0f400",
                "storage": {}
            },
            "0x77612608c7a22f8929f6f1c9462a9954621aeefd": {
                "nonce": "0x00",
                "balance": "0x00",
                "code": "0x6040600060406000600035614e34f400",
                "storage": {}
            },
            "0xb126c622075b1189fb6c45e851641cfaddf65b36": {
                "nonce": "0x00",
                "balance": "0x00",
                "code": "0x600160035500",
                "storage": {}
            },
            "0xfbef21c5a6c2adcf3d769f085e0cc9fe9a8df954": {
                "nonce": "0x00",
                "balance": "0x00",
                "code": "0x5b61c3506080511015601c5760013b506001608051016080526000565b00",
                "storage": {}
            },
            "0xebaf50debf10e08302fe4280c32df010463ca297": {
                "nonce": "0x00",
                "balance": "0x0de0b6b3a7640000",
                "code": "0x",
                "storage": {}
            }
        },
        "postState": {
            "0x000f3df6d732807ef1319fb7b8bb8522d0beac02": {
                "nonce": "0x01",
                "balance": "0x00",
                "code": "0x3373fffffffffffffffffffffffffffffffffffffffe14604d57602036146024575f5ffd5b5f35801560495762001fff810690815414603c575f5ffd5b62001fff01545f5260205ff35b5f5ffd5b62001fff42064281555f359062001fff015500",
                "storage": {
                    "0x03e8": "0x03e8"
                }
            },
            "0x6e143211e9d36eaeebe65f6ed69d6c28500040d6": {
                "nonce": "0x00",
                "balance": "0x0de0b6b3a7640000",
                "code": "0x600035600052604060006040600073630155b633b8b8f4bcb63e94e0baae0197c824eb620249f0fa600055600160015500",
                "storage": {
                    "0x00": "0x01",
                    "0x01": "0x01"
                }
            },
            "0x630155b633b8b8f4bcb63e94e0baae0197c824eb": {
                "nonce": "0x00",
                "balance": "0x00",
                "code": "0x60003560005260406000604060007377612608c7a22f8929f6f1c9462a9954621aeefd620186a0f400",
                "storage": {}
            },
            "0x77612608c7a22f8929f6f1c9462a9954621aeefd": {
                "nonce": "0x00",
                "balance": "0x00",
                "code": "0x6040600060406000600035614e34f400",
                "storage": {}
            },
            "0xb126c622075b1189fb6c45e851641cfaddf65b36": {
                "nonce": "0x00",
                "balance": "0x00",
                "code": "0x600160035500",
                "storage": {}
            },
            "0xfbef21c5a6c2adcf3d769f085e0cc9fe9a8df954": {
                "nonce": "0x00",
                "balance": "0x00",
                "code": "0x5b61c3506080511015601c5760013b506001608051016080526000565b00",
                "storage": {}
            },
            "0xebaf50debf10e08302fe4280c32df010463ca297": {
                "nonce": "0x01",
                "balance": "0x0de0b6b3a755bbd0",
                "code": "0x",
                "storage": {}
            }
        },
        "lastblockhash": "0xc2a3cde4b052145904e16889c7d2bd2b422250dbffd416cac7a27a7123d4d057",
        "config": {
            "network": "Cancun",
            "chainid": "0x01",
            "blobSchedule": {
                "Cancun": {
                    "target": "0x03",
                    "max": "0x06",
                    "baseFeeUpdateFraction": "0x32f0ed"
                }
            }
        },
        "genesisRLP": "0xf9023cf90236a00000000000000000000000000000000000000000000000000000000000000000a01dcc4de8dec75d7aab85b567b6ccd41ad312451b948a7413f0a142fd40d49347940000000000000000000000000000000000000000a01ae6941ee345472b9c80601cceb8886a527fcd792efed1043066758e6a5c6368a056e81f171bcc55a6ff8345e692c0f86e5b48e01b996cadc001622fb5e363b421a056e81f171bcc55a6ff8345e692c0f86e5b48e01b996cadc001622fb5e363b421b901000000000000000000000000000000000000000000000000000000000000000000000000000000000000000000000000000000000000000000000000000000000000000000000000000000000000000000000000000000000000000000000000000000000000000000000000000000000000000000000000000000000000000000000000000000000000000000000000000000000000000000000000000000000000000000000000000000000000000000000000000000000000000000000000000000000000000000000000000000000000000000000000000000000000000000000000000000000000000000000000000000000000000000000000000000000080808401c9c380808000a000000000000000000000000000000000000000000000000000000000000000008800000000000000000ba056e81f171bcc55a6ff8345e692c0f86e5b48e01b996cadc001622fb5e363b4218080a00000000000000000000000000000000000000000000000000000000000000000c0c0c0",
        "blocks": [
            {
                "blockHeader": {
                    "parentHash": "0x46f4d166033f8e3df7adc06658f3e9d5e957d8598aed42b9a05a57e65c23d5dc",
                    "uncleHash": "0x1dcc4de8dec75d7aab85b567b6ccd41ad312451b948a7413f0a142fd40d49347",
                    "coinbase": "0x2adc25665018aa1fe0e6bc666dac8fc2697ff9ba",
                    "stateRoot": "0x3062aa9e30ad2b0e7288eaeb11d71d975f0ac7d25938a14d6ba613e40d06fa35",
                    "transactionsTrie": "0x07fb03565ceb7073195f686422220c48fdc1db6ce5394f9e8c4cc85351337c90",
                    "receiptTrie": "0x98a673f82ec478937a76cee65d0c6033737aa2d8e8dab6007c8891b8b5a1a65d",
                    "bloom": "0x00000000000000000000000000000000000000000000000000000000000000000000000000000000000000000000000000000000000000000000000000000000000000000000000000000000000000000000000000000000000000000000000000000000000000000000000000000000000000000000000000000000000000000000000000000000000000000000000000000000000000000000000000000000000000000000000000000000000000000000000000000000000000000000000000000000000000000000000000000000000000000000000000000000000000000000000000000000000000000000000000000000000000000000000000000000",
                    "difficulty": "0x00",
                    "number": "0x01",
                    "gasLimit": "0x01c9c380",
                    "gasUsed": "0x016d38",
                    "timestamp": "0x03e8",
                    "extraData": "0x00",
                    "mixHash": "0x0000000000000000000000000000000000000000000000000000000000020000",
                    "nonce": "0x0000000000000000",
                    "baseFeePerGas": "0x0a",
                    "withdrawalsRoot": "0x56e81f171bcc55a6ff8345e692c0f86e5b48e01b996cadc001622fb5e363b421",
                    "blobGasUsed": "0x00",
                    "excessBlobGas": "0x00",
                    "parentBeaconBlockRoot": "0x0000000000000000000000000000000000000000000000000000000000000000",
                    "hash": "0xc2a3cde4b052145904e16889c7d2bd2b422250dbffd416cac7a27a7123d4d057"
                },
                "transactions": [
                    {
                        "type": "0x00",
                        "chainId": "0x01",
                        "nonce": "0x00",
                        "gasPrice": "0x0a",
                        "gasLimit": "0x029fe0",
                        "to": "0x6e143211e9d36eaeebe65f6ed69d6c28500040d6",
                        "value": "0x00",
                        "data": "0x000000000000000000000000fbef21c5a6c2adcf3d769f085e0cc9fe9a8df954",
                        "v": "0x25",
                        "r": "0x73d1095ebb3d6b2f335832c259efffb826fa9a1d09f85c0abb521ad1a5c44570",
                        "s": "0x7a0ab89cec4f6e807c4a8076d8bb4f7ba17a6bda63c4a201c3e64bf73e9b3643",
                        "sender": "0xebaf50debf10e08302fe4280c32df010463ca297"
                    }
                ],
                "uncleHeaders": [],
                "withdrawals": [],
                "receipts": [
                    {
                        "transactionHash": "0x6e331100cf2a725df1c859ba842cc490c54f90dc34876c0da5f63cd92ee1184d",
                        "type": "0x00",
                        "cumulativeGasUsed": "0x016d38",
                        "bloom": "0x00000000000000000000000000000000000000000000000000000000000000000000000000000000000000000000000000000000000000000000000000000000000000000000000000000000000000000000000000000000000000000000000000000000000000000000000000000000000000000000000000000000000000000000000000000000000000000000000000000000000000000000000000000000000000000000000000000000000000000000000000000000000000000000000000000000000000000000000000000000000000000000000000000000000000000000000000000000000000000000000000000000000000000000000000000000",
                        "logs": [],
                        "status": true,
                        "rlp": "0xf901090183016d38b9010000000000000000000000000000000000000000000000000000000000000000000000000000000000000000000000000000000000000000000000000000000000000000000000000000000000000000000000000000000000000000000000000000000000000000000000000000000000000000000000000000000000000000000000000000000000000000000000000000000000000000000000000000000000000000000000000000000000000000000000000000000000000000000000000000000000000000000000000000000000000000000000000000000000000000000000000000000000000000000000000000000000000000000000000000000000c0"
                    }
                ],
                "rlp": "0xf902c4f9023ba046f4d166033f8e3df7adc06658f3e9d5e957d8598aed42b9a05a57e65c23d5dca01dcc4de8dec75d7aab85b567b6ccd41ad312451b948a7413f0a142fd40d49347942adc25665018aa1fe0e6bc666dac8fc2697ff9baa03062aa9e30ad2b0e7288eaeb11d71d975f0ac7d25938a14d6ba613e40d06fa35a007fb03565ceb7073195f686422220c48fdc1db6ce5394f9e8c4cc85351337c90a098a673f82ec478937a76cee65d0c6033737aa2d8e8dab6007c8891b8b5a1a65db901000000000000000000000000000000000000000000000000000000000000000000000000000000000000000000000000000000000000000000000000000000000000000000000000000000000000000000000000000000000000000000000000000000000000000000000000000000000000000000000000000000000000000000000000000000000000000000000000000000000000000000000000000000000000000000000000000000000000000000000000000000000000000000000000000000000000000000000000000000000000000000000000000000000000000000000000000000000000000000000000000000000000000000000000000000000080018401c9c38083016d388203e800a000000000000000000000000000000000000000000000000000000000000200008800000000000000000aa056e81f171bcc55a6ff8345e692c0f86e5b48e01b996cadc001622fb5e363b4218080a00000000000000000000000000000000000000000000000000000000000000000f882f880800a83029fe0946e143211e9d36eaeebe65f6ed69d6c28500040d680a0000000000000000000000000fbef21c5a6c2adcf3d769f085e0cc9fe9a8df95425a073d1095ebb3d6b2f335832c259efffb826fa9a1d09f85c0abb521ad1a5c44570a07a0ab89cec4f6e807c4a8076d8bb4f7ba17a6bda63c4a201c3e64bf73e9b3643c0c0",
                "blocknumber": "1"
            }
        ],
        "sealEngine": "NoProof",
        "_info": {
            "hash": "0x2e6a009af047ba6fd1a7f6e47d54c1384c5e6a73d9f4474d82545dad68ef7081",
            "fixture-format": "blockchain_test",
            "comment": "`execution-specs` generated test",
            "filling-transition-tool": "2.19.0",
            "description": "Test_static_callcallcodecallcode_011_ooge.",
            "url": "https://github.com/ethereum/execution-specs/blob/tests-sn\u00f8bal-devnet-4@v1.0.0/tests/ported_static/stStaticCall/test_static_callcallcodecallcode_011_ooge.py#L26",
            "metadata": {
                "opcode_count": {}
            }
        }
    }
}