{
    "tests/ported_static/stCallDelegateCodesHomestead/test_callcallcodecall_010_suicide_middle.py::test_callcallcodecall_010_suicide_middle[fork_Cancun-blockchain_test_from_state_test]": {
        "network": "Cancun",
        "genesisBlockHeader": {
            "parentHash": "0x0000000000000000000000000000000000000000000000000000000000000000",
            "uncleHash": "0x1dcc4de8dec75d7aab85b567b6ccd41ad312451b948a7413f0a142fd40d49347",
            "coinbase": "0x0000000000000000000000000000000000000000",
            "stateRoot": "0x0bc6272b7ec74d94a7892802683f7ce5306a83c7d790265b3000b4f7e4ffeed6",
            "transactionsTrie": "0x56e81f171bcc55a6ff8345e692c0f86e5b48e01b996cadc001622fb5e363b421",
            "receiptTrie": "0x56e81f171bcc55a6ff8345e692c0f86e5b48e01b996cadc001622fb5e363b421",
            "bloom": "0x00000000000000000000000000000000000000000000000000000000000000000000000000000000000000000000000000000000000000000000000000000000000000000000000000000000000000000000000000000000000000000000000000000000000000000000000000000000000000000000000000000000000000000000000000000000000000000000000000000000000000000000000000000000000000000000000000000000000000000000000000000000000000000000000000000000000000000000000000000000000000000000000000000000000000000000000000000000000000000000000000000000000000000000000000000000",
            "difficulty": "0x00",
            "number": "0x00",
            "gasLimit": "0x01c9c380",
            "gasUsed": "0x00",
            "timestamp": "0x00",
            "extraData": "0x00",
            "mixHash": "0x0000000000000000000000000000000000000000000000000000000000000000",
            "nonce": "0x0000000000000000",
            "baseFeePerGas": "0x0b",
            "withdrawalsRoot": "0x56e81f171bcc55a6ff8345e692c0f86e5b48e01b996cadc001622fb5e363b421",
            "blobGasUsed": "0x00",
            "excessBlobGas": "0x00",
            "parentBeaconBlockRoot": "0x0000000000000000000000000000000000000000000000000000000000000000",
            "hash": "0x8901cf7b24c221743ae0f0d563ffd6f35bb9fb461884c977ed6ded314cd6196f"
        },
        "pre": {
            "0x000f3df6d732807ef1319fb7b8bb8522d0beac02": {
                "nonce": "0x01",
                "balance": "0x00",
                "code": "0x3373fffffffffffffffffffffffffffffffffffffffe14604d57602036146024575f5ffd5b5f35801560495762001fff810690815414603c575f5ffd5b62001fff01545f5260205ff35b5f5ffd5b62001fff42064281555f359062001fff015500",
                "storage": {}
            },
            "0xd66f224cbd2fabb21b17bb53c56118f32f62ebd6": {
                "nonce": "0x00",
                "balance": "0x0de0b6b3a7640000",
                "code": "0x",
                "storage": {}
            },
            "0x73b954ebc05bb0ff4a0f6a13a054d50ad1584099": {
                "nonce": "0x00",
                "balance": "0x02540be400",
                "code": "0x600160035500",
                "storage": {}
            },
            "0x4353e77718be108d4c149d88b34caceda42c5c66": {
                "nonce": "0x00",
                "balance": "0x0de0b6b3a7640000",
                "code": "0x60406000604060006000732cac1d43f00e8b40b63426ab460c7e8717ee6455620249f0f160005500",
                "storage": {}
            },
            "0x2cac1d43f00e8b40b63426ab460c7e8717ee6455": {
                "nonce": "0x00",
                "balance": "0x02540be400",
                "code": "0x604060006040600073ac90bb4611b91d4c6292bd64e8656110822e01ed620186a0f460015500",
                "storage": {}
            },
            "0xac90bb4611b91d4c6292bd64e8656110822e01ed": {
                "nonce": "0x00",
                "balance": "0x02540be400",
                "code": "0x734353e77718be108d4c149d88b34caceda42c5c66ff604060006040600060007373b954ebc05bb0ff4a0f6a13a054d50ad158409961c350f160025500",
                "storage": {}
            }
        },
        "postState": {
            "0x000f3df6d732807ef1319fb7b8bb8522d0beac02": {
                "nonce": "0x01",
                "balance": "0x00",
                "code": "0x3373fffffffffffffffffffffffffffffffffffffffe14604d57602036146024575f5ffd5b5f35801560495762001fff810690815414603c575f5ffd5b62001fff01545f5260205ff35b5f5ffd5b62001fff42064281555f359062001fff015500",
                "storage": {
                    "0x03e8": "0x03e8"
                }
            },
            "0xd66f224cbd2fabb21b17bb53c56118f32f62ebd6": {
                "nonce": "0x01",
                "balance": "0x0de0b6b3a7587c58",
                "code": "0x",
                "storage": {}
            },
            "0x73b954ebc05bb0ff4a0f6a13a054d50ad1584099": {
                "nonce": "0x00",
                "balance": "0x02540be400",
                "code": "0x600160035500",
                "storage": {}
            },
            "0x4353e77718be108d4c149d88b34caceda42c5c66": {
                "nonce": "0x00",
                "balance": "0x0de0b6b5fb6fe400",
                "code": "0x60406000604060006000732cac1d43f00e8b40b63426ab460c7e8717ee6455620249f0f160005500",
                "storage": {
                    "0x00": "0x01"
                }
            },
            "0x2cac1d43f00e8b40b63426ab460c7e8717ee6455": {
                "nonce": "0x00",
                "balance": "0x00",
                "code": "0x604060006040600073ac90bb4611b91d4c6292bd64e8656110822e01ed620186a0f460015500",
                "storage": {
                    "0x01": "0x01"
                }
            },
            "0xac90bb4611b91d4c6292bd64e8656110822e01ed": {
                "nonce": "0x00",
                "balance": "0x02540be400",
                "code": "0x734353e77718be108d4c149d88b34caceda42c5c66ff604060006040600060007373b954ebc05bb0ff4a0f6a13a054d50ad158409961c350f160025500",
                "storage": {}
            }
        },
        "lastblockhash": "0xfa049eb46fa8be1c38d7b08b574ddf7cf6a412c0ecc2461563ab99b9b9e68c62",
        "config": {
            "network": "Cancun",
            "chainid": "0x01",
            "blobSchedule": {
                "Cancun": {
                    "target": "0x03",
                    "max": "0x06",
                    "baseFeeUpdateFraction": "0x32f0ed"
                }
            }
        },
        "genesisRLP": "0xf9023cf90236a00000000000000000000000000000000000000000000000000000000000000000a01dcc4de8dec75d7aab85b567b6ccd41ad312451b948a7413f0a142fd40d49347940000000000000000000000000000000000000000a00bc6272b7ec74d94a7892802683f7ce5306a83c7d790265b3000b4f7e4ffeed6a056e81f171bcc55a6ff8345e692c0f86e5b48e01b996cadc001622fb5e363b421a056e81f171bcc55a6ff8345e692c0f86e5b48e01b996cadc001622fb5e363b421b901000000000000000000000000000000000000000000000000000000000000000000000000000000000000000000000000000000000000000000000000000000000000000000000000000000000000000000000000000000000000000000000000000000000000000000000000000000000000000000000000000000000000000000000000000000000000000000000000000000000000000000000000000000000000000000000000000000000000000000000000000000000000000000000000000000000000000000000000000000000000000000000000000000000000000000000000000000000000000000000000000000000000000000000000000000000080808401c9c380808000a000000000000000000000000000000000000000000000000000000000000000008800000000000000000ba056e81f171bcc55a6ff8345e692c0f86e5b48e01b996cadc001622fb5e363b4218080a00000000000000000000000000000000000000000000000000000000000000000c0c0c0",
        "blocks": [
            {
                "blockHeader": {
                    "parentHash": "0x8901cf7b24c221743ae0f0d563ffd6f35bb9fb461884c977ed6ded314cd6196f",
                    "uncleHash": "0x1dcc4de8dec75d7aab85b567b6ccd41ad312451b948a7413f0a142fd40d49347",
                    "coinbase": "0x2adc25665018aa1fe0e6bc666dac8fc2697ff9ba",
                    "stateRoot": "0xdace5dbd35e95d85e55e6ee4b1920a35aeca1a40415e65b460139635f7715391",
                    "transactionsTrie": "0xab513fbd62c87c8dc386ad07ee4a70b4802878c23fb45f3147a6f698ca4a7516",
                    "receiptTrie": "0x9e26bc385cf204f991773297ac5e3f21cdd23a6c41c5cfae39833e20d10b7ff6",
                    "bloom": "0x00000000000000000000000000000000000000000000000000000000000000000000000000000000000000000000000000000000000000000000000000000000000000000000000000000000000000000000000000000000000000000000000000000000000000000000000000000000000000000000000000000000000000000000000000000000000000000000000000000000000000000000000000000000000000000000000000000000000000000000000000000000000000000000000000000000000000000000000000000000000000000000000000000000000000000000000000000000000000000000000000000000000000000000000000000000",
                    "difficulty": "0x00",
                    "number": "0x01",
                    "gasLimit": "0x01c9c380",
                    "gasUsed": "0x0126c4",
                    "timestamp": "0x03e8",
                    "extraData": "0x00",
                    "mixHash": "0x0000000000000000000000000000000000000000000000000000000000020000",
                    "nonce": "0x0000000000000000",
                    "baseFeePerGas": "0x0a",
                    "withdrawalsRoot": "0x56e81f171bcc55a6ff8345e692c0f86e5b48e01b996cadc001622fb5e363b421",
                    "blobGasUsed": "0x00",
                    "excessBlobGas": "0x00",
                    "parentBeaconBlockRoot": "0x0000000000000000000000000000000000000000000000000000000000000000",
                    "hash": "0xfa049eb46fa8be1c38d7b08b574ddf7cf6a412c0ecc2461563ab99b9b9e68c62"
                },
                "transactions": [
                    {
                        "type": "0x00",
                        "chainId": "0x01",
                        "nonce": "0x00",
                        "gasPrice": "0x0a",
                        "gasLimit": "0x2dc6c0",
                        "to": "0x4353e77718be108d4c149d88b34caceda42c5c66",
                        "value": "0x00",
                        "data": "0x",
                        "v": "0x26",
                        "r": "0x8b506d08fb5743956f29431d1231d6150d0ec7c0b4d5e9dd13176da4af6cbc76",
                        "s": "0x7dc9f01da026cc9ba4f60af4a354823bb585a0c4d8b8a016432813f19d09ca9a",
                        "sender": "0xd66f224cbd2fabb21b17bb53c56118f32f62ebd6"
                    }
                ],
                "uncleHeaders": [],
                "withdrawals": [],
                "receipts": [
                    {
                        "transactionHash": "0x8f66e13e68cce9e682227150b6e95da14ac0f7c8a716ce08994296dae5e64c16",
                        "type": "0x00",
                        "cumulativeGasUsed": "0x0126c4",
                        "bloom": "0x00000000000000000000000000000000000000000000000000000000000000000000000000000000000000000000000000000000000000000000000000000000000000000000000000000000000000000000000000000000000000000000000000000000000000000000000000000000000000000000000000000000000000000000000000000000000000000000000000000000000000000000000000000000000000000000000000000000000000000000000000000000000000000000000000000000000000000000000000000000000000000000000000000000000000000000000000000000000000000000000000000000000000000000000000000000",
                        "logs": [],
                        "status": true,
                        "rlp": "0xf9010901830126c4b9010000000000000000000000000000000000000000000000000000000000000000000000000000000000000000000000000000000000000000000000000000000000000000000000000000000000000000000000000000000000000000000000000000000000000000000000000000000000000000000000000000000000000000000000000000000000000000000000000000000000000000000000000000000000000000000000000000000000000000000000000000000000000000000000000000000000000000000000000000000000000000000000000000000000000000000000000000000000000000000000000000000000000000000000000000000000c0"
                    }
                ],
                "rlp": "0xf902a4f9023ba08901cf7b24c221743ae0f0d563ffd6f35bb9fb461884c977ed6ded314cd6196fa01dcc4de8dec75d7aab85b567b6ccd41ad312451b948a7413f0a142fd40d49347942adc25665018aa1fe0e6bc666dac8fc2697ff9baa0dace5dbd35e95d85e55e6ee4b1920a35aeca1a40415e65b460139635f7715391a0ab513fbd62c87c8dc386ad07ee4a70b4802878c23fb45f3147a6f698ca4a7516a09e26bc385cf204f991773297ac5e3f21cdd23a6c41c5cfae39833e20d10b7ff6b901000000000000000000000000000000000000000000000000000000000000000000000000000000000000000000000000000000000000000000000000000000000000000000000000000000000000000000000000000000000000000000000000000000000000000000000000000000000000000000000000000000000000000000000000000000000000000000000000000000000000000000000000000000000000000000000000000000000000000000000000000000000000000000000000000000000000000000000000000000000000000000000000000000000000000000000000000000000000000000000000000000000000000000000000000000000080018401c9c380830126c48203e800a000000000000000000000000000000000000000000000000000000000000200008800000000000000000aa056e81f171bcc55a6ff8345e692c0f86e5b48e01b996cadc001622fb5e363b4218080a00000000000000000000000000000000000000000000000000000000000000000f862f860800a832dc6c0944353e77718be108d4c149d88b34caceda42c5c66808026a08b506d08fb5743956f29431d1231d6150d0ec7c0b4d5e9dd13176da4af6cbc76a07dc9f01da026cc9ba4f60af4a354823bb585a0c4d8b8a016432813f19d09ca9ac0c0",
                "blocknumber": "1"
            }
        ],
        "sealEngine": "NoProof",
        "_info": {
            "hash": "0x46257d19a3b011657a831bafe856fa50786f97d53be77a6794a644ca4be88bc1",
            "fixture-format": "blockchain_test",
            "comment": "`execution-specs` generated test",
            "filling-transition-tool": "2.19.0",
            "description": "Test_callcallcodecall_010_suicide_middle.",
            "url": "https://github.com/ethereum/execution-specs/blob/tests-snobal-devnet-5@v8037.0.0/tests/ported_static/stCallDelegateCodesHomestead/test_callcallcodecall_010_suicide_middle.py#L24",
            "metadata": {
                "opcode_count": {}
            }
        }
    }
}