{
    "tests/ported_static/stSStoreTest/test_sstore_gas.py::test_sstore_gas[fork_Cancun-blockchain_test_from_state_test]": {
        "network": "Cancun",
        "genesisBlockHeader": {
            "parentHash": "0x0000000000000000000000000000000000000000000000000000000000000000",
            "uncleHash": "0x1dcc4de8dec75d7aab85b567b6ccd41ad312451b948a7413f0a142fd40d49347",
            "coinbase": "0x0000000000000000000000000000000000000000",
            "stateRoot": "0xab3b40b4ef94fb7269794afd3b40292b841d387ead1c69a35558bead6fff3487",
            "transactionsTrie": "0x56e81f171bcc55a6ff8345e692c0f86e5b48e01b996cadc001622fb5e363b421",
            "receiptTrie": "0x56e81f171bcc55a6ff8345e692c0f86e5b48e01b996cadc001622fb5e363b421",
            "bloom": "0x00000000000000000000000000000000000000000000000000000000000000000000000000000000000000000000000000000000000000000000000000000000000000000000000000000000000000000000000000000000000000000000000000000000000000000000000000000000000000000000000000000000000000000000000000000000000000000000000000000000000000000000000000000000000000000000000000000000000000000000000000000000000000000000000000000000000000000000000000000000000000000000000000000000000000000000000000000000000000000000000000000000000000000000000000000000",
            "difficulty": "0x00",
            "number": "0x00",
            "gasLimit": "0x05f5e100",
            "gasUsed": "0x00",
            "timestamp": "0x00",
            "extraData": "0x00",
            "mixHash": "0x0000000000000000000000000000000000000000000000000000000000000000",
            "nonce": "0x0000000000000000",
            "baseFeePerGas": "0x0b",
            "withdrawalsRoot": "0x56e81f171bcc55a6ff8345e692c0f86e5b48e01b996cadc001622fb5e363b421",
            "blobGasUsed": "0x00",
            "excessBlobGas": "0x00",
            "parentBeaconBlockRoot": "0x0000000000000000000000000000000000000000000000000000000000000000",
            "hash": "0xc3d5956c1ec6ef7b75d8d556aa505febd8e3bb3c0c69a1245e2062b19704db89"
        },
        "pre": {
            "0x000f3df6d732807ef1319fb7b8bb8522d0beac02": {
                "nonce": "0x01",
                "balance": "0x00",
                "code": "0x3373fffffffffffffffffffffffffffffffffffffffe14604d57602036146024575f5ffd5b5f35801560495762001fff810690815414603c575f5ffd5b62001fff01545f5260205ff35b5f5ffd5b62001fff42064281555f359062001fff015500",
                "storage": {}
            },
            "0x84e1dc6705b8b9b7ffaca256c9266792bdd0943b": {
                "nonce": "0x01",
                "balance": "0x0ba1a9ce0ba1a9ce",
                "code": "0x600160088180808080808080611000895a61beef6000555a900303815501885a63deadbeef6000555a900303815501875a600080555a900303815501865a600080555a900303815501855a6112346000555a900303815501845a600084555a900303815501835a6160a76002555a900303815501825a60006003555a900303815501905a6160a76003555a900303815550506000805560006001556000600255600060035500",
                "storage": {
                    "0x00": "0x60a7",
                    "0x01": "0x60a7"
                }
            },
            "0x485fd0fd5c1d0409d2b772a66e98a6ac867b9d8b": {
                "nonce": "0x01",
                "balance": "0x0ba1a9ce0ba1a9ce",
                "code": "0x",
                "storage": {}
            }
        },
        "postState": {
            "0x000f3df6d732807ef1319fb7b8bb8522d0beac02": {
                "nonce": "0x01",
                "balance": "0x00",
                "code": "0x3373fffffffffffffffffffffffffffffffffffffffe14604d57602036146024575f5ffd5b5f35801560495762001fff810690815414603c575f5ffd5b62001fff01545f5260205ff35b5f5ffd5b62001fff42064281555f359062001fff015500",
                "storage": {
                    "0x03e8": "0x03e8"
                }
            },
            "0x84e1dc6705b8b9b7ffaca256c9266792bdd0943b": {
                "nonce": "0x01",
                "balance": "0x0ba1a9ce0ba1a9ce",
                "code": "0x600160088180808080808080611000895a61beef6000555a900303815501885a63deadbeef6000555a900303815501875a600080555a900303815501865a600080555a900303815501855a6112346000555a900303815501845a600084555a900303815501835a6160a76002555a900303815501825a60006003555a900303815501905a6160a76003555a900303815550506000805560006001556000600255600060035500",
                "storage": {
                    "0x1000": "0x1388",
                    "0x1001": "0x64",
                    "0x1002": "0x64",
                    "0x1003": "0x64",
                    "0x1004": "0x64",
                    "0x1005": "0x1388",
                    "0x1006": "0x5654",
                    "0x1007": "0x0898",
                    "0x1008": "0x4e20"
                }
            },
            "0x485fd0fd5c1d0409d2b772a66e98a6ac867b9d8b": {
                "nonce": "0x02",
                "balance": "0x0ba1a9ce0b7f3132",
                "code": "0x",
                "storage": {}
            }
        },
        "lastblockhash": "0xeacc8d6e529f2610959cd07594d272fa89e1fd7667d5d6a1157daf2a66f629a2",
        "config": {
            "network": "Cancun",
            "chainid": "0x01",
            "blobSchedule": {
                "Cancun": {
                    "target": "0x03",
                    "max": "0x06",
                    "baseFeeUpdateFraction": "0x32f0ed"
                }
            }
        },
        "genesisRLP": "0xf9023cf90236a00000000000000000000000000000000000000000000000000000000000000000a01dcc4de8dec75d7aab85b567b6ccd41ad312451b948a7413f0a142fd40d49347940000000000000000000000000000000000000000a0ab3b40b4ef94fb7269794afd3b40292b841d387ead1c69a35558bead6fff3487a056e81f171bcc55a6ff8345e692c0f86e5b48e01b996cadc001622fb5e363b421a056e81f171bcc55a6ff8345e692c0f86e5b48e01b996cadc001622fb5e363b421b901000000000000000000000000000000000000000000000000000000000000000000000000000000000000000000000000000000000000000000000000000000000000000000000000000000000000000000000000000000000000000000000000000000000000000000000000000000000000000000000000000000000000000000000000000000000000000000000000000000000000000000000000000000000000000000000000000000000000000000000000000000000000000000000000000000000000000000000000000000000000000000000000000000000000000000000000000000000000000000000000000000000000000000000000000000000080808405f5e100808000a000000000000000000000000000000000000000000000000000000000000000008800000000000000000ba056e81f171bcc55a6ff8345e692c0f86e5b48e01b996cadc001622fb5e363b4218080a00000000000000000000000000000000000000000000000000000000000000000c0c0c0",
        "blocks": [
            {
                "blockHeader": {
                    "parentHash": "0xc3d5956c1ec6ef7b75d8d556aa505febd8e3bb3c0c69a1245e2062b19704db89",
                    "uncleHash": "0x1dcc4de8dec75d7aab85b567b6ccd41ad312451b948a7413f0a142fd40d49347",
                    "coinbase": "0x2adc25665018aa1fe0e6bc666dac8fc2697ff9ba",
                    "stateRoot": "0x8c470349bf8b19a13d25285fca29351337f756362aa9fc586c757466b64e6589",
                    "transactionsTrie": "0xf6a392fdd5533e34b73d69dcdf52c4d5363793be637df6bc334627fbce6343ac",
                    "receiptTrie": "0x79826034065aa9b8a8c523ea09efc2aabf7c01bbfe71ea02c8068b3ce157cac7",
                    "bloom": "0x00000000000000000000000000000000000000000000000000000000000000000000000000000000000000000000000000000000000000000000000000000000000000000000000000000000000000000000000000000000000000000000000000000000000000000000000000000000000000000000000000000000000000000000000000000000000000000000000000000000000000000000000000000000000000000000000000000000000000000000000000000000000000000000000000000000000000000000000000000000000000000000000000000000000000000000000000000000000000000000000000000000000000000000000000000000",
                    "difficulty": "0x00",
                    "number": "0x01",
                    "gasLimit": "0x05f5e100",
                    "gasUsed": "0x037276",
                    "timestamp": "0x03e8",
                    "extraData": "0x00",
                    "mixHash": "0x0000000000000000000000000000000000000000000000000000000000020000",
                    "nonce": "0x0000000000000000",
                    "baseFeePerGas": "0x0a",
                    "withdrawalsRoot": "0x56e81f171bcc55a6ff8345e692c0f86e5b48e01b996cadc001622fb5e363b421",
                    "blobGasUsed": "0x00",
                    "excessBlobGas": "0x00",
                    "parentBeaconBlockRoot": "0x0000000000000000000000000000000000000000000000000000000000000000",
                    "hash": "0xeacc8d6e529f2610959cd07594d272fa89e1fd7667d5d6a1157daf2a66f629a2"
                },
                "transactions": [
                    {
                        "type": "0x00",
                        "chainId": "0x01",
                        "nonce": "0x01",
                        "gasPrice": "0x0a",
                        "gasLimit": "0x01000000",
                        "to": "0x84e1dc6705b8b9b7ffaca256c9266792bdd0943b",
                        "value": "0x00",
                        "data": "0x",
                        "v": "0x25",
                        "r": "0xafd284679b15dd06592b903d6134229619b0c45f9743db3cd077ee9804b03af2",
                        "s": "0x6e0a2679857ddf2e16bb91704107c892bd9dae0fce03542c367e555cd982674d",
                        "sender": "0x485fd0fd5c1d0409d2b772a66e98a6ac867b9d8b"
                    }
                ],
                "uncleHeaders": [],
                "withdrawals": [],
                "receipts": [
                    {
                        "transactionHash": "0xed01b6256df89d266998f82c8b55873b1c358f919095e491baa0d9a2ab40a489",
                        "type": "0x00",
                        "cumulativeGasUsed": "0x037276",
                        "bloom": "0x00000000000000000000000000000000000000000000000000000000000000000000000000000000000000000000000000000000000000000000000000000000000000000000000000000000000000000000000000000000000000000000000000000000000000000000000000000000000000000000000000000000000000000000000000000000000000000000000000000000000000000000000000000000000000000000000000000000000000000000000000000000000000000000000000000000000000000000000000000000000000000000000000000000000000000000000000000000000000000000000000000000000000000000000000000000",
                        "logs": [],
                        "status": true,
                        "rlp": "0xf901090183037276b9010000000000000000000000000000000000000000000000000000000000000000000000000000000000000000000000000000000000000000000000000000000000000000000000000000000000000000000000000000000000000000000000000000000000000000000000000000000000000000000000000000000000000000000000000000000000000000000000000000000000000000000000000000000000000000000000000000000000000000000000000000000000000000000000000000000000000000000000000000000000000000000000000000000000000000000000000000000000000000000000000000000000000000000000000000000000c0"
                    }
                ],
                "rlp": "0xf902a5f9023ba0c3d5956c1ec6ef7b75d8d556aa505febd8e3bb3c0c69a1245e2062b19704db89a01dcc4de8dec75d7aab85b567b6ccd41ad312451b948a7413f0a142fd40d49347942adc25665018aa1fe0e6bc666dac8fc2697ff9baa08c470349bf8b19a13d25285fca29351337f756362aa9fc586c757466b64e6589a0f6a392fdd5533e34b73d69dcdf52c4d5363793be637df6bc334627fbce6343aca079826034065aa9b8a8c523ea09efc2aabf7c01bbfe71ea02c8068b3ce157cac7b901000000000000000000000000000000000000000000000000000000000000000000000000000000000000000000000000000000000000000000000000000000000000000000000000000000000000000000000000000000000000000000000000000000000000000000000000000000000000000000000000000000000000000000000000000000000000000000000000000000000000000000000000000000000000000000000000000000000000000000000000000000000000000000000000000000000000000000000000000000000000000000000000000000000000000000000000000000000000000000000000000000000000000000000000000000000080018405f5e100830372768203e800a000000000000000000000000000000000000000000000000000000000000200008800000000000000000aa056e81f171bcc55a6ff8345e692c0f86e5b48e01b996cadc001622fb5e363b4218080a00000000000000000000000000000000000000000000000000000000000000000f863f861010a84010000009484e1dc6705b8b9b7ffaca256c9266792bdd0943b808025a0afd284679b15dd06592b903d6134229619b0c45f9743db3cd077ee9804b03af2a06e0a2679857ddf2e16bb91704107c892bd9dae0fce03542c367e555cd982674dc0c0",
                "blocknumber": "1"
            }
        ],
        "sealEngine": "NoProof",
        "_info": {
            "hash": "0x7d988b4cd5a3afe4ab1ecdb34b4af62e0cfc991a475d86e7c06ebfc9b3abe53f",
            "fixture-format": "blockchain_test",
            "comment": "`execution-specs` generated test",
            "filling-transition-tool": "2.19.0",
            "description": "Ori Pomerantz qbzzt1@gmail.",
            "url": "https://github.com/ethereum/execution-specs/blob/tests-bal@v5.6.1/tests/ported_static/stSStoreTest/test_sstore_gas.py#L25",
            "metadata": {
                "opcode_count": {}
            }
        }
    }
}