{
    "tests/ported_static/stCallDelegateCodesCallCodeHomestead/test_callcodecallcodecall_110_ooge.py::test_callcodecallcodecall_110_ooge[fork_Cancun-blockchain_test_from_state_test]": {
        "network": "Cancun",
        "genesisBlockHeader": {
            "parentHash": "0x0000000000000000000000000000000000000000000000000000000000000000",
            "uncleHash": "0x1dcc4de8dec75d7aab85b567b6ccd41ad312451b948a7413f0a142fd40d49347",
            "coinbase": "0x0000000000000000000000000000000000000000",
            "stateRoot": "0xa597112aa23a6650b2a3182a29d6bc353c71804c32c262e042b9eb0a68a3ad15",
            "transactionsTrie": "0x56e81f171bcc55a6ff8345e692c0f86e5b48e01b996cadc001622fb5e363b421",
            "receiptTrie": "0x56e81f171bcc55a6ff8345e692c0f86e5b48e01b996cadc001622fb5e363b421",
            "bloom": "0x00000000000000000000000000000000000000000000000000000000000000000000000000000000000000000000000000000000000000000000000000000000000000000000000000000000000000000000000000000000000000000000000000000000000000000000000000000000000000000000000000000000000000000000000000000000000000000000000000000000000000000000000000000000000000000000000000000000000000000000000000000000000000000000000000000000000000000000000000000000000000000000000000000000000000000000000000000000000000000000000000000000000000000000000000000000",
            "difficulty": "0x00",
            "number": "0x00",
            "gasLimit": "0x01c9c380",
            "gasUsed": "0x00",
            "timestamp": "0x00",
            "extraData": "0x00",
            "mixHash": "0x0000000000000000000000000000000000000000000000000000000000000000",
            "nonce": "0x0000000000000000",
            "baseFeePerGas": "0x0b",
            "withdrawalsRoot": "0x56e81f171bcc55a6ff8345e692c0f86e5b48e01b996cadc001622fb5e363b421",
            "blobGasUsed": "0x00",
            "excessBlobGas": "0x00",
            "parentBeaconBlockRoot": "0x0000000000000000000000000000000000000000000000000000000000000000",
            "hash": "0xa901d0ac32f49a13d0d3a3cd3bc6f246b530595c64dbb0db51862a6f92bc9644"
        },
        "pre": {
            "0x000f3df6d732807ef1319fb7b8bb8522d0beac02": {
                "nonce": "0x01",
                "balance": "0x00",
                "code": "0x3373fffffffffffffffffffffffffffffffffffffffe14604d57602036146024575f5ffd5b5f35801560495762001fff810690815414603c575f5ffd5b62001fff01545f5260205ff35b5f5ffd5b62001fff42064281555f359062001fff015500",
                "storage": {}
            },
            "0x0e7163a4a90126c4a13e52f48e84c74600e844da": {
                "nonce": "0x00",
                "balance": "0x0de0b6b3a7640000",
                "code": "0x60406000604060007369a0017a51ad556682f48b32235d0b61abdf4da4620c3500f460005500",
                "storage": {}
            },
            "0x69a0017a51ad556682f48b32235d0b61abdf4da4": {
                "nonce": "0x00",
                "balance": "0x00",
                "code": "0x6040600060406000733568ec0dda63b253e338fbc4990869fd168ab515620927c0f460015500",
                "storage": {}
            },
            "0x3568ec0dda63b253e338fbc4990869fd168ab515": {
                "nonce": "0x00",
                "balance": "0x00",
                "code": "0x60406000604060006000731dd747f92062bb53bb8e867ec2902792435f174862061a80f26002556001600b5500",
                "storage": {}
            },
            "0x1dd747f92062bb53bb8e867ec2902792435f1748": {
                "nonce": "0x00",
                "balance": "0x00",
                "code": "0x6001600355622fffff60002000",
                "storage": {}
            },
            "0xebaf50debf10e08302fe4280c32df010463ca297": {
                "nonce": "0x00",
                "balance": "0x0de0b6b3a7640000",
                "code": "0x",
                "storage": {}
            }
        },
        "postState": {
            "0x000f3df6d732807ef1319fb7b8bb8522d0beac02": {
                "nonce": "0x01",
                "balance": "0x00",
                "code": "0x3373fffffffffffffffffffffffffffffffffffffffe14604d57602036146024575f5ffd5b5f35801560495762001fff810690815414603c575f5ffd5b62001fff01545f5260205ff35b5f5ffd5b62001fff42064281555f359062001fff015500",
                "storage": {
                    "0x03e8": "0x03e8"
                }
            },
            "0x0e7163a4a90126c4a13e52f48e84c74600e844da": {
                "nonce": "0x00",
                "balance": "0x0de0b6b3a7640000",
                "code": "0x60406000604060007369a0017a51ad556682f48b32235d0b61abdf4da4620c3500f460005500",
                "storage": {
                    "0x0b": "0x01",
                    "0x01": "0x01",
                    "0x00": "0x01"
                }
            },
            "0x69a0017a51ad556682f48b32235d0b61abdf4da4": {
                "nonce": "0x00",
                "balance": "0x00",
                "code": "0x6040600060406000733568ec0dda63b253e338fbc4990869fd168ab515620927c0f460015500",
                "storage": {}
            },
            "0x3568ec0dda63b253e338fbc4990869fd168ab515": {
                "nonce": "0x00",
                "balance": "0x00",
                "code": "0x60406000604060006000731dd747f92062bb53bb8e867ec2902792435f174862061a80f26002556001600b5500",
                "storage": {}
            },
            "0x1dd747f92062bb53bb8e867ec2902792435f1748": {
                "nonce": "0x00",
                "balance": "0x00",
                "code": "0x6001600355622fffff60002000",
                "storage": {}
            },
            "0xebaf50debf10e08302fe4280c32df010463ca297": {
                "nonce": "0x01",
                "balance": "0x0de0b6b3a7181ab4",
                "code": "0x",
                "storage": {}
            }
        },
        "lastblockhash": "0xccddb720ae02f4c7e8b07e52a5623e693f3f64769f45dd5ad899d57390d29052",
        "config": {
            "network": "Cancun",
            "chainid": "0x01",
            "blobSchedule": {
                "Cancun": {
                    "target": "0x03",
                    "max": "0x06",
                    "baseFeeUpdateFraction": "0x32f0ed"
                }
            }
        },
        "genesisRLP": "0xf9023cf90236a00000000000000000000000000000000000000000000000000000000000000000a01dcc4de8dec75d7aab85b567b6ccd41ad312451b948a7413f0a142fd40d49347940000000000000000000000000000000000000000a0a597112aa23a6650b2a3182a29d6bc353c71804c32c262e042b9eb0a68a3ad15a056e81f171bcc55a6ff8345e692c0f86e5b48e01b996cadc001622fb5e363b421a056e81f171bcc55a6ff8345e692c0f86e5b48e01b996cadc001622fb5e363b421b901000000000000000000000000000000000000000000000000000000000000000000000000000000000000000000000000000000000000000000000000000000000000000000000000000000000000000000000000000000000000000000000000000000000000000000000000000000000000000000000000000000000000000000000000000000000000000000000000000000000000000000000000000000000000000000000000000000000000000000000000000000000000000000000000000000000000000000000000000000000000000000000000000000000000000000000000000000000000000000000000000000000000000000000000000000000080808401c9c380808000a000000000000000000000000000000000000000000000000000000000000000008800000000000000000ba056e81f171bcc55a6ff8345e692c0f86e5b48e01b996cadc001622fb5e363b4218080a00000000000000000000000000000000000000000000000000000000000000000c0c0c0",
        "blocks": [
            {
                "blockHeader": {
                    "parentHash": "0xa901d0ac32f49a13d0d3a3cd3bc6f246b530595c64dbb0db51862a6f92bc9644",
                    "uncleHash": "0x1dcc4de8dec75d7aab85b567b6ccd41ad312451b948a7413f0a142fd40d49347",
                    "coinbase": "0x2adc25665018aa1fe0e6bc666dac8fc2697ff9ba",
                    "stateRoot": "0x3a561076da39124d80c8b384c4f6c4e748c40db46e785692872a4527369e8527",
                    "transactionsTrie": "0xd8c34b7ef63622bf4affa9954da008c8790e2d61508f33b719c906f3eca2ec7f",
                    "receiptTrie": "0xcced286cc3d9d76bc32f2b2d91376ad1d3b5caa9069b89c3fda44e409d663f04",
                    "bloom": "0x00000000000000000000000000000000000000000000000000000000000000000000000000000000000000000000000000000000000000000000000000000000000000000000000000000000000000000000000000000000000000000000000000000000000000000000000000000000000000000000000000000000000000000000000000000000000000000000000000000000000000000000000000000000000000000000000000000000000000000000000000000000000000000000000000000000000000000000000000000000000000000000000000000000000000000000000000000000000000000000000000000000000000000000000000000000",
                    "difficulty": "0x00",
                    "number": "0x01",
                    "gasLimit": "0x01c9c380",
                    "gasUsed": "0x0796ee",
                    "timestamp": "0x03e8",
                    "extraData": "0x00",
                    "mixHash": "0x0000000000000000000000000000000000000000000000000000000000020000",
                    "nonce": "0x0000000000000000",
                    "baseFeePerGas": "0x0a",
                    "withdrawalsRoot": "0x56e81f171bcc55a6ff8345e692c0f86e5b48e01b996cadc001622fb5e363b421",
                    "blobGasUsed": "0x00",
                    "excessBlobGas": "0x00",
                    "parentBeaconBlockRoot": "0x0000000000000000000000000000000000000000000000000000000000000000",
                    "hash": "0xccddb720ae02f4c7e8b07e52a5623e693f3f64769f45dd5ad899d57390d29052"
                },
                "transactions": [
                    {
                        "type": "0x00",
                        "chainId": "0x01",
                        "nonce": "0x00",
                        "gasPrice": "0x0a",
                        "gasLimit": "0x0f4240",
                        "to": "0x0e7163a4a90126c4a13e52f48e84c74600e844da",
                        "value": "0x00",
                        "data": "0x",
                        "v": "0x26",
                        "r": "0x33f3cfc4b17edd1b871b500915fdea69f50b3bcbfdff5da797d4e8feefcae0ae",
                        "s": "0x75a5bfa0f82c358ababea780693341579676002bc2bcfa0a422afb57e508b9ea",
                        "sender": "0xebaf50debf10e08302fe4280c32df010463ca297"
                    }
                ],
                "uncleHeaders": [],
                "withdrawals": [],
                "receipts": [
                    {
                        "transactionHash": "0x9f671fdf76ee72a0375c68b0db66c7172934c95c6feb2c8a2a34ff6482988b68",
                        "type": "0x00",
                        "cumulativeGasUsed": "0x0796ee",
                        "bloom": "0x00000000000000000000000000000000000000000000000000000000000000000000000000000000000000000000000000000000000000000000000000000000000000000000000000000000000000000000000000000000000000000000000000000000000000000000000000000000000000000000000000000000000000000000000000000000000000000000000000000000000000000000000000000000000000000000000000000000000000000000000000000000000000000000000000000000000000000000000000000000000000000000000000000000000000000000000000000000000000000000000000000000000000000000000000000000",
                        "logs": [],
                        "status": true,
                        "rlp": "0xf9010901830796eeb9010000000000000000000000000000000000000000000000000000000000000000000000000000000000000000000000000000000000000000000000000000000000000000000000000000000000000000000000000000000000000000000000000000000000000000000000000000000000000000000000000000000000000000000000000000000000000000000000000000000000000000000000000000000000000000000000000000000000000000000000000000000000000000000000000000000000000000000000000000000000000000000000000000000000000000000000000000000000000000000000000000000000000000000000000000000000c0"
                    }
                ],
                "rlp": "0xf902a4f9023ba0a901d0ac32f49a13d0d3a3cd3bc6f246b530595c64dbb0db51862a6f92bc9644a01dcc4de8dec75d7aab85b567b6ccd41ad312451b948a7413f0a142fd40d49347942adc25665018aa1fe0e6bc666dac8fc2697ff9baa03a561076da39124d80c8b384c4f6c4e748c40db46e785692872a4527369e8527a0d8c34b7ef63622bf4affa9954da008c8790e2d61508f33b719c906f3eca2ec7fa0cced286cc3d9d76bc32f2b2d91376ad1d3b5caa9069b89c3fda44e409d663f04b901000000000000000000000000000000000000000000000000000000000000000000000000000000000000000000000000000000000000000000000000000000000000000000000000000000000000000000000000000000000000000000000000000000000000000000000000000000000000000000000000000000000000000000000000000000000000000000000000000000000000000000000000000000000000000000000000000000000000000000000000000000000000000000000000000000000000000000000000000000000000000000000000000000000000000000000000000000000000000000000000000000000000000000000000000000000080018401c9c380830796ee8203e800a000000000000000000000000000000000000000000000000000000000000200008800000000000000000aa056e81f171bcc55a6ff8345e692c0f86e5b48e01b996cadc001622fb5e363b4218080a00000000000000000000000000000000000000000000000000000000000000000f862f860800a830f4240940e7163a4a90126c4a13e52f48e84c74600e844da808026a033f3cfc4b17edd1b871b500915fdea69f50b3bcbfdff5da797d4e8feefcae0aea075a5bfa0f82c358ababea780693341579676002bc2bcfa0a422afb57e508b9eac0c0",
                "blocknumber": "1"
            }
        ],
        "sealEngine": "NoProof",
        "_info": {
            "hash": "0x689ecfc47bb0e0e7e16a71de2edd38cf40b16d3ef25e7adb7a0596f0253cc585",
            "fixture-format": "blockchain_test",
            "comment": "`execution-specs` generated test",
            "filling-transition-tool": "2.19.0",
            "description": "DELEGATE -> DELEGATE -> CALLCODE -> CODE OOG.",
            "url": "https://github.com/ethereum/execution-specs/blob/tests-sn\u00f8bal-devnet-4@v1.0.0/tests/ported_static/stCallDelegateCodesCallCodeHomestead/test_callcodecallcodecall_110_ooge.py#L25",
            "metadata": {
                "opcode_count": {}
            }
        }
    }
}