{
    "tests/static/state_tests/stZeroCallsTest/ZeroValue_CALLFiller.json::ZeroValue_CALL[fork_Cancun-state_test-]": {
        "env": {
            "currentCoinbase": "0x2adc25665018aa1fe0e6bc666dac8fc2697ff9ba",
            "currentGasLimit": "0x989680",
            "currentNumber": "0x01",
            "currentTimestamp": "0x03e8",
            "currentRandom": "0x0000000000000000000000000000000000000000000000000000000000020000",
            "currentDifficulty": "0x00",
            "currentBaseFee": "0x0a",
            "currentExcessBlobGas": "0x00"
        },
        "pre": {
            "0xa94f5374fce5edbc8e2a8697c15331677e6ebf0b": {
                "nonce": "0x00",
                "balance": "0xe8d4a51000",
                "code": "0x",
                "storage": {}
            },
            "0xb94f5374fce5edbc8e2a8697c15331677e6ebf0b": {
                "nonce": "0x00",
                "balance": "0x00",
                "code": "0x5a6000556000600060006000600073c94f5374fce5edbc8e2a8697c15331677e6ebf0b61ea60f1600155600160645500",
                "storage": {}
            }
        },
        "transaction": {
            "nonce": "0x00",
            "gasPrice": "0x0a",
            "gasLimit": [
                "0x0927c0"
            ],
            "to": "0xb94f5374fce5edbc8e2a8697c15331677e6ebf0b",
            "value": [
                "0x00"
            ],
            "data": [
                "0x"
            ],
            "sender": "0xa94f5374fce5edbc8e2a8697c15331677e6ebf0b",
            "secretKey": "0x45a915e4d060149eb4365960e6a7a45f334393093061116b197e3240065ff2d8"
        },
        "post": {
            "Cancun": [
                {
                    "hash": "0xa6103556e20e1732e6405386aa80b67631e4018a04b611e79e288fb2e14e179e",
                    "logs": "0x1dcc4de8dec75d7aab85b567b6ccd41ad312451b948a7413f0a142fd40d49347",
                    "txbytes": "0xf860800a830927c094b94f5374fce5edbc8e2a8697c15331677e6ebf0b808026a0b2533f2fe401fdbaf29d2453d6de5086bb2924021a504e78bcb30c6063c23705a0760b7ed1892f502d7f922aa79fd881474d2629bae1482732b84f326aa2983603",
                    "indexes": {
                        "data": 0,
                        "gas": 0,
                        "value": 0
                    },
                    "state": {
                        "0xa94f5374fce5edbc8e2a8697c15331677e6ebf0b": {
                            "nonce": "0x01",
                            "balance": "0xe8d49756ea",
                            "code": "0x",
                            "storage": {}
                        },
                        "0xb94f5374fce5edbc8e2a8697c15331677e6ebf0b": {
                            "nonce": "0x00",
                            "balance": "0x00",
                            "code": "0x5a6000556000600060006000600073c94f5374fce5edbc8e2a8697c15331677e6ebf0b61ea60f1600155600160645500",
                            "storage": {
                                "0x00": "0x08d5b6",
                                "0x01": "0x01",
                                "0x64": "0x01"
                            }
                        }
                    }
                }
            ]
        },
        "config": {
            "blobSchedule": {
                "Cancun": {
                    "target": "0x03",
                    "max": "0x06",
                    "baseFeeUpdateFraction": "0x32f0ed"
                }
            },
            "chainid": "0x01"
        },
        "_info": {
            "hash": "0x4a8c7a172cbc4229d3c88bb97c8a252e66cb3ae6c1ece19c7c3088c4a256d0f2",
            "comment": "`execution-spec-tests` generated test",
            "filling-transition-tool": "ethereum-spec-evm-resolver 0.0.5",
            "description": "No description available - add a docstring to the python test class or function.",
            "url": "",
            "fixture-format": "state_test",
            "eels-resolution": {
                "git-url": "https://github.com/marioevz/execution-specs.git",
                "branch": "forks/bpo1",
                "commit": "3387e5f4aedfe99becfdc39b444d6371e25e0924"
            }
        }
    },
    "tests/static/state_tests/stZeroCallsTest/ZeroValue_CALLFiller.json::ZeroValue_CALL[fork_Osaka-state_test-]": {
        "env": {
            "currentCoinbase": "0x2adc25665018aa1fe0e6bc666dac8fc2697ff9ba",
            "currentGasLimit": "0x989680",
            "currentNumber": "0x01",
            "currentTimestamp": "0x03e8",
            "currentRandom": "0x0000000000000000000000000000000000000000000000000000000000020000",
            "currentDifficulty": "0x00",
            "currentBaseFee": "0x0a",
            "currentExcessBlobGas": "0x00"
        },
        "pre": {
            "0xa94f5374fce5edbc8e2a8697c15331677e6ebf0b": {
                "nonce": "0x00",
                "balance": "0xe8d4a51000",
                "code": "0x",
                "storage": {}
            },
            "0xb94f5374fce5edbc8e2a8697c15331677e6ebf0b": {
                "nonce": "0x00",
                "balance": "0x00",
                "code": "0x5a6000556000600060006000600073c94f5374fce5edbc8e2a8697c15331677e6ebf0b61ea60f1600155600160645500",
                "storage": {}
            }
        },
        "transaction": {
            "nonce": "0x00",
            "gasPrice": "0x0a",
            "gasLimit": [
                "0x0927c0"
            ],
            "to": "0xb94f5374fce5edbc8e2a8697c15331677e6ebf0b",
            "value": [
                "0x00"
            ],
            "data": [
                "0x"
            ],
            "sender": "0xa94f5374fce5edbc8e2a8697c15331677e6ebf0b",
            "secretKey": "0x45a915e4d060149eb4365960e6a7a45f334393093061116b197e3240065ff2d8"
        },
        "post": {
            "Osaka": [
                {
                    "hash": "0xa6103556e20e1732e6405386aa80b67631e4018a04b611e79e288fb2e14e179e",
                    "logs": "0x1dcc4de8dec75d7aab85b567b6ccd41ad312451b948a7413f0a142fd40d49347",
                    "txbytes": "0xf860800a830927c094b94f5374fce5edbc8e2a8697c15331677e6ebf0b808026a0b2533f2fe401fdbaf29d2453d6de5086bb2924021a504e78bcb30c6063c23705a0760b7ed1892f502d7f922aa79fd881474d2629bae1482732b84f326aa2983603",
                    "indexes": {
                        "data": 0,
                        "gas": 0,
                        "value": 0
                    },
                    "state": {
                        "0xa94f5374fce5edbc8e2a8697c15331677e6ebf0b": {
                            "nonce": "0x01",
                            "balance": "0xe8d49756ea",
                            "code": "0x",
                            "storage": {}
                        },
                        "0xb94f5374fce5edbc8e2a8697c15331677e6ebf0b": {
                            "nonce": "0x00",
                            "balance": "0x00",
                            "code": "0x5a6000556000600060006000600073c94f5374fce5edbc8e2a8697c15331677e6ebf0b61ea60f1600155600160645500",
                            "storage": {
                                "0x00": "0x08d5b6",
                                "0x01": "0x01",
                                "0x64": "0x01"
                            }
                        }
                    }
                }
            ]
        },
        "config": {
            "blobSchedule": {
                "Cancun": {
                    "target": "0x03",
                    "max": "0x06",
                    "baseFeeUpdateFraction": "0x32f0ed"
                },
                "Prague": {
                    "target": "0x06",
                    "max": "0x09",
                    "baseFeeUpdateFraction": "0x4c6964"
                },
                "Osaka": {
                    "target": "0x06",
                    "max": "0x09",
                    "baseFeeUpdateFraction": "0x4c6964"
                }
            },
            "chainid": "0x01"
        },
        "_info": {
            "hash": "0x3d305aa83866d18ec3d89b549874eaba1e49eff17e179599c78eb4ca3c14dc75",
            "comment": "`execution-spec-tests` generated test",
            "filling-transition-tool": "ethereum-spec-evm-resolver 0.0.5",
            "description": "No description available - add a docstring to the python test class or function.",
            "url": "",
            "fixture-format": "state_test",
            "eels-resolution": {
                "git-url": "https://github.com/marioevz/execution-specs.git",
                "branch": "forks/bpo1",
                "commit": "3387e5f4aedfe99becfdc39b444d6371e25e0924"
            }
        }
    },
    "tests/static/state_tests/stZeroCallsTest/ZeroValue_CALLFiller.json::ZeroValue_CALL[fork_Prague-state_test-]": {
        "env": {
            "currentCoinbase": "0x2adc25665018aa1fe0e6bc666dac8fc2697ff9ba",
            "currentGasLimit": "0x989680",
            "currentNumber": "0x01",
            "currentTimestamp": "0x03e8",
            "currentRandom": "0x0000000000000000000000000000000000000000000000000000000000020000",
            "currentDifficulty": "0x00",
            "currentBaseFee": "0x0a",
            "currentExcessBlobGas": "0x00"
        },
        "pre": {
            "0xa94f5374fce5edbc8e2a8697c15331677e6ebf0b": {
                "nonce": "0x00",
                "balance": "0xe8d4a51000",
                "code": "0x",
                "storage": {}
            },
            "0xb94f5374fce5edbc8e2a8697c15331677e6ebf0b": {
                "nonce": "0x00",
                "balance": "0x00",
                "code": "0x5a6000556000600060006000600073c94f5374fce5edbc8e2a8697c15331677e6ebf0b61ea60f1600155600160645500",
                "storage": {}
            }
        },
        "transaction": {
            "nonce": "0x00",
            "gasPrice": "0x0a",
            "gasLimit": [
                "0x0927c0"
            ],
            "to": "0xb94f5374fce5edbc8e2a8697c15331677e6ebf0b",
            "value": [
                "0x00"
            ],
            "data": [
                "0x"
            ],
            "sender": "0xa94f5374fce5edbc8e2a8697c15331677e6ebf0b",
            "secretKey": "0x45a915e4d060149eb4365960e6a7a45f334393093061116b197e3240065ff2d8"
        },
        "post": {
            "Prague": [
                {
                    "hash": "0xa6103556e20e1732e6405386aa80b67631e4018a04b611e79e288fb2e14e179e",
                    "logs": "0x1dcc4de8dec75d7aab85b567b6ccd41ad312451b948a7413f0a142fd40d49347",
                    "txbytes": "0xf860800a830927c094b94f5374fce5edbc8e2a8697c15331677e6ebf0b808026a0b2533f2fe401fdbaf29d2453d6de5086bb2924021a504e78bcb30c6063c23705a0760b7ed1892f502d7f922aa79fd881474d2629bae1482732b84f326aa2983603",
                    "indexes": {
                        "data": 0,
                        "gas": 0,
                        "value": 0
                    },
                    "state": {
                        "0xa94f5374fce5edbc8e2a8697c15331677e6ebf0b": {
                            "nonce": "0x01",
                            "balance": "0xe8d49756ea",
                            "code": "0x",
                            "storage": {}
                        },
                        "0xb94f5374fce5edbc8e2a8697c15331677e6ebf0b": {
                            "nonce": "0x00",
                            "balance": "0x00",
                            "code": "0x5a6000556000600060006000600073c94f5374fce5edbc8e2a8697c15331677e6ebf0b61ea60f1600155600160645500",
                            "storage": {
                                "0x00": "0x08d5b6",
                                "0x01": "0x01",
                                "0x64": "0x01"
                            }
                        }
                    }
                }
            ]
        },
        "config": {
            "blobSchedule": {
                "Cancun": {
                    "target": "0x03",
                    "max": "0x06",
                    "baseFeeUpdateFraction": "0x32f0ed"
                },
                "Prague": {
                    "target": "0x06",
                    "max": "0x09",
                    "baseFeeUpdateFraction": "0x4c6964"
                }
            },
            "chainid": "0x01"
        },
        "_info": {
            "hash": "0xa55d80272fe47fcb36c9173307500e4602ed5b3fe767239789293d3f8044f5c6",
            "comment": "`execution-spec-tests` generated test",
            "filling-transition-tool": "ethereum-spec-evm-resolver 0.0.5",
            "description": "No description available - add a docstring to the python test class or function.",
            "url": "",
            "fixture-format": "state_test",
            "eels-resolution": {
                "git-url": "https://github.com/marioevz/execution-specs.git",
                "branch": "forks/bpo1",
                "commit": "3387e5f4aedfe99becfdc39b444d6371e25e0924"
            }
        }
    }
}