{
    "tests/static/state_tests/stZeroCallsTest/ZeroValue_TransactionCALLwithData_ToOneStorageKey_ParisFiller.json::ZeroValue_TransactionCALLwithData_ToOneStorageKey_Paris[fork_Cancun-state_test-]": {
        "env": {
            "currentCoinbase": "0x2adc25665018aa1fe0e6bc666dac8fc2697ff9ba",
            "currentGasLimit": "0x989680",
            "currentNumber": "0x01",
            "currentTimestamp": "0x03e8",
            "currentRandom": "0x0000000000000000000000000000000000000000000000000000000000020000",
            "currentDifficulty": "0x00",
            "currentBaseFee": "0x0a",
            "currentExcessBlobGas": "0x00"
        },
        "pre": {
            "0xa107abcdd5fd907407f1f47b99b86d6b27de35d2": {
                "nonce": "0x00",
                "balance": "0x0a",
                "code": "0x",
                "storage": {
                    "0x00": "0x01"
                }
            },
            "0x0c963adfb56cba9333a376c7ec911bc8cb4242a8": {
                "nonce": "0x00",
                "balance": "0xe8d4a51000",
                "code": "0x",
                "storage": {}
            }
        },
        "transaction": {
            "nonce": "0x00",
            "gasPrice": "0x0a",
            "gasLimit": [
                "0x0927c0"
            ],
            "to": "0xa107abcdd5fd907407f1f47b99b86d6b27de35d2",
            "value": [
                "0x00"
            ],
            "data": [
                "0x1122334455667788991011121314151617181920"
            ],
            "sender": "0x0c963adfb56cba9333a376c7ec911bc8cb4242a8",
            "secretKey": "0xd5dabda37f5a16f8e60939897f69667024f4261e5bcad58168e91b6180a01b94"
        },
        "post": {
            "Cancun": [
                {
                    "hash": "0x75aa45a0bd5b64c0dd6140d979db446accc97555e4218e843ded2cf2d1902c86",
                    "logs": "0x1dcc4de8dec75d7aab85b567b6ccd41ad312451b948a7413f0a142fd40d49347",
                    "txbytes": "0xf874800a830927c094a107abcdd5fd907407f1f47b99b86d6b27de35d28094112233445566778899101112131415161718192026a01ded0b35e73abb9ddddb5edce917a401fdda459b03a4afe0efa6ce3240ccd9e5a016422848dff2adfae4183fc373085fd556fbe618625011ced8f164acb9e20bf3",
                    "indexes": {
                        "data": 0,
                        "gas": 0,
                        "value": 0
                    },
                    "state": {
                        "0xa107abcdd5fd907407f1f47b99b86d6b27de35d2": {
                            "nonce": "0x00",
                            "balance": "0x0a",
                            "code": "0x",
                            "storage": {
                                "0x00": "0x01"
                            }
                        },
                        "0x0c963adfb56cba9333a376c7ec911bc8cb4242a8": {
                            "nonce": "0x01",
                            "balance": "0xe8d4a1cf30",
                            "code": "0x",
                            "storage": {}
                        }
                    }
                }
            ]
        },
        "config": {
            "blobSchedule": {
                "Cancun": {
                    "target": "0x03",
                    "max": "0x06",
                    "baseFeeUpdateFraction": "0x32f0ed"
                }
            },
            "chainid": "0x01"
        },
        "_info": {
            "hash": "0x1e606390f98d9a74ced0e5454a9ebd7dace2739d7f290b281f738f1ea7c9ff4a",
            "comment": "`execution-spec-tests` generated test",
            "filling-transition-tool": "ethereum-spec-evm-resolver 0.0.5",
            "description": "No description available - add a docstring to the python test class or function.",
            "url": "",
            "fixture-format": "state_test",
            "eels-resolution": {
                "git-url": "https://github.com/ethereum/execution-specs.git",
                "branch": "forks/bpos",
                "commit": "7aacb2c54111391af5e98c505d5010b5698a770f"
            }
        }
    },
    "tests/static/state_tests/stZeroCallsTest/ZeroValue_TransactionCALLwithData_ToOneStorageKey_ParisFiller.json::ZeroValue_TransactionCALLwithData_ToOneStorageKey_Paris[fork_Osaka-state_test-]": {
        "env": {
            "currentCoinbase": "0x2adc25665018aa1fe0e6bc666dac8fc2697ff9ba",
            "currentGasLimit": "0x989680",
            "currentNumber": "0x01",
            "currentTimestamp": "0x03e8",
            "currentRandom": "0x0000000000000000000000000000000000000000000000000000000000020000",
            "currentDifficulty": "0x00",
            "currentBaseFee": "0x0a",
            "currentExcessBlobGas": "0x00"
        },
        "pre": {
            "0xa107abcdd5fd907407f1f47b99b86d6b27de35d2": {
                "nonce": "0x00",
                "balance": "0x0a",
                "code": "0x",
                "storage": {
                    "0x00": "0x01"
                }
            },
            "0x0c963adfb56cba9333a376c7ec911bc8cb4242a8": {
                "nonce": "0x00",
                "balance": "0xe8d4a51000",
                "code": "0x",
                "storage": {}
            }
        },
        "transaction": {
            "nonce": "0x00",
            "gasPrice": "0x0a",
            "gasLimit": [
                "0x0927c0"
            ],
            "to": "0xa107abcdd5fd907407f1f47b99b86d6b27de35d2",
            "value": [
                "0x00"
            ],
            "data": [
                "0x1122334455667788991011121314151617181920"
            ],
            "sender": "0x0c963adfb56cba9333a376c7ec911bc8cb4242a8",
            "secretKey": "0xd5dabda37f5a16f8e60939897f69667024f4261e5bcad58168e91b6180a01b94"
        },
        "post": {
            "Osaka": [
                {
                    "hash": "0xa92b8b91a48d0add4f26b6b88a64c0b399a9953cef4f66bb2adf3d310dcdd17f",
                    "logs": "0x1dcc4de8dec75d7aab85b567b6ccd41ad312451b948a7413f0a142fd40d49347",
                    "txbytes": "0xf874800a830927c094a107abcdd5fd907407f1f47b99b86d6b27de35d28094112233445566778899101112131415161718192026a01ded0b35e73abb9ddddb5edce917a401fdda459b03a4afe0efa6ce3240ccd9e5a016422848dff2adfae4183fc373085fd556fbe618625011ced8f164acb9e20bf3",
                    "indexes": {
                        "data": 0,
                        "gas": 0,
                        "value": 0
                    },
                    "state": {
                        "0xa107abcdd5fd907407f1f47b99b86d6b27de35d2": {
                            "nonce": "0x00",
                            "balance": "0x0a",
                            "code": "0x",
                            "storage": {
                                "0x00": "0x01"
                            }
                        },
                        "0x0c963adfb56cba9333a376c7ec911bc8cb4242a8": {
                            "nonce": "0x01",
                            "balance": "0xe8d4a1bc70",
                            "code": "0x",
                            "storage": {}
                        }
                    }
                }
            ]
        },
        "config": {
            "blobSchedule": {
                "Cancun": {
                    "target": "0x03",
                    "max": "0x06",
                    "baseFeeUpdateFraction": "0x32f0ed"
                },
                "Prague": {
                    "target": "0x06",
                    "max": "0x09",
                    "baseFeeUpdateFraction": "0x4c6964"
                },
                "Osaka": {
                    "target": "0x06",
                    "max": "0x09",
                    "baseFeeUpdateFraction": "0x4c6964"
                }
            },
            "chainid": "0x01"
        },
        "_info": {
            "hash": "0x4754232e5648fd5ce77ac6415a5552473cd2d536c504684ec4e1b87f5b5ac0d4",
            "comment": "`execution-spec-tests` generated test",
            "filling-transition-tool": "ethereum-spec-evm-resolver 0.0.5",
            "description": "No description available - add a docstring to the python test class or function.",
            "url": "",
            "fixture-format": "state_test",
            "eels-resolution": {
                "git-url": "https://github.com/ethereum/execution-specs.git",
                "branch": "forks/bpos",
                "commit": "7aacb2c54111391af5e98c505d5010b5698a770f"
            }
        }
    },
    "tests/static/state_tests/stZeroCallsTest/ZeroValue_TransactionCALLwithData_ToOneStorageKey_ParisFiller.json::ZeroValue_TransactionCALLwithData_ToOneStorageKey_Paris[fork_Prague-state_test-]": {
        "env": {
            "currentCoinbase": "0x2adc25665018aa1fe0e6bc666dac8fc2697ff9ba",
            "currentGasLimit": "0x989680",
            "currentNumber": "0x01",
            "currentTimestamp": "0x03e8",
            "currentRandom": "0x0000000000000000000000000000000000000000000000000000000000020000",
            "currentDifficulty": "0x00",
            "currentBaseFee": "0x0a",
            "currentExcessBlobGas": "0x00"
        },
        "pre": {
            "0xa107abcdd5fd907407f1f47b99b86d6b27de35d2": {
                "nonce": "0x00",
                "balance": "0x0a",
                "code": "0x",
                "storage": {
                    "0x00": "0x01"
                }
            },
            "0x0c963adfb56cba9333a376c7ec911bc8cb4242a8": {
                "nonce": "0x00",
                "balance": "0xe8d4a51000",
                "code": "0x",
                "storage": {}
            }
        },
        "transaction": {
            "nonce": "0x00",
            "gasPrice": "0x0a",
            "gasLimit": [
                "0x0927c0"
            ],
            "to": "0xa107abcdd5fd907407f1f47b99b86d6b27de35d2",
            "value": [
                "0x00"
            ],
            "data": [
                "0x1122334455667788991011121314151617181920"
            ],
            "sender": "0x0c963adfb56cba9333a376c7ec911bc8cb4242a8",
            "secretKey": "0xd5dabda37f5a16f8e60939897f69667024f4261e5bcad58168e91b6180a01b94"
        },
        "post": {
            "Prague": [
                {
                    "hash": "0xa92b8b91a48d0add4f26b6b88a64c0b399a9953cef4f66bb2adf3d310dcdd17f",
                    "logs": "0x1dcc4de8dec75d7aab85b567b6ccd41ad312451b948a7413f0a142fd40d49347",
                    "txbytes": "0xf874800a830927c094a107abcdd5fd907407f1f47b99b86d6b27de35d28094112233445566778899101112131415161718192026a01ded0b35e73abb9ddddb5edce917a401fdda459b03a4afe0efa6ce3240ccd9e5a016422848dff2adfae4183fc373085fd556fbe618625011ced8f164acb9e20bf3",
                    "indexes": {
                        "data": 0,
                        "gas": 0,
                        "value": 0
                    },
                    "state": {
                        "0xa107abcdd5fd907407f1f47b99b86d6b27de35d2": {
                            "nonce": "0x00",
                            "balance": "0x0a",
                            "code": "0x",
                            "storage": {
                                "0x00": "0x01"
                            }
                        },
                        "0x0c963adfb56cba9333a376c7ec911bc8cb4242a8": {
                            "nonce": "0x01",
                            "balance": "0xe8d4a1bc70",
                            "code": "0x",
                            "storage": {}
                        }
                    }
                }
            ]
        },
        "config": {
            "blobSchedule": {
                "Cancun": {
                    "target": "0x03",
                    "max": "0x06",
                    "baseFeeUpdateFraction": "0x32f0ed"
                },
                "Prague": {
                    "target": "0x06",
                    "max": "0x09",
                    "baseFeeUpdateFraction": "0x4c6964"
                }
            },
            "chainid": "0x01"
        },
        "_info": {
            "hash": "0x51356cda67beac774b87d97d7aeb68159232055fa436b0cf00b09c37e566171b",
            "comment": "`execution-spec-tests` generated test",
            "filling-transition-tool": "ethereum-spec-evm-resolver 0.0.5",
            "description": "No description available - add a docstring to the python test class or function.",
            "url": "",
            "fixture-format": "state_test",
            "eels-resolution": {
                "git-url": "https://github.com/ethereum/execution-specs.git",
                "branch": "forks/bpos",
                "commit": "7aacb2c54111391af5e98c505d5010b5698a770f"
            }
        }
    }
}