{
    "tests/static/state_tests/stZeroCallsTest/ZeroValue_DELEGATECALL_ToOneStorageKey_ParisFiller.json::ZeroValue_DELEGATECALL_ToOneStorageKey_Paris[fork_Cancun-state_test-]": {
        "env": {
            "currentCoinbase": "0x2adc25665018aa1fe0e6bc666dac8fc2697ff9ba",
            "currentGasLimit": "0x989680",
            "currentNumber": "0x01",
            "currentTimestamp": "0x03e8",
            "currentRandom": "0x0000000000000000000000000000000000000000000000000000000000020000",
            "currentDifficulty": "0x00",
            "currentBaseFee": "0x0a",
            "currentExcessBlobGas": "0x00"
        },
        "pre": {
            "0x4d3ee342d725fde1c8bad4ab40c78946af9d5e92": {
                "nonce": "0x00",
                "balance": "0x0a",
                "code": "0x",
                "storage": {
                    "0x00": "0x01"
                }
            },
            "0x3b2a3d50321476d97b86b4cb4df1bce7a2773e52": {
                "nonce": "0x00",
                "balance": "0x00",
                "code": "0x5a6000556000600060006000734d3ee342d725fde1c8bad4ab40c78946af9d5e9261ea60f4600155600160645500",
                "storage": {}
            },
            "0x61c5d6fc952b9be348dd5d13de47e297fb26fa65": {
                "nonce": "0x00",
                "balance": "0xe8d4a51000",
                "code": "0x",
                "storage": {}
            }
        },
        "transaction": {
            "nonce": "0x00",
            "gasPrice": "0x0a",
            "gasLimit": [
                "0x0927c0"
            ],
            "to": "0x3b2a3d50321476d97b86b4cb4df1bce7a2773e52",
            "value": [
                "0x00"
            ],
            "data": [
                "0x"
            ],
            "sender": "0x61c5d6fc952b9be348dd5d13de47e297fb26fa65",
            "secretKey": "0xc6bc07a158d5f129331294903b2a3d50321476d97b86b4cb4df1bce7a2773e53"
        },
        "post": {
            "Cancun": [
                {
                    "hash": "0x708a5152e6b87803209e87410659e8fa0d0193652570bac478ec874fe21a6abb",
                    "logs": "0x1dcc4de8dec75d7aab85b567b6ccd41ad312451b948a7413f0a142fd40d49347",
                    "txbytes": "0xf860800a830927c0943b2a3d50321476d97b86b4cb4df1bce7a2773e52808026a087038b35bc9e0213c9ed53872ae96c4857df8d62a34deae8cf92176c3abac91da07af536846b3bcad5f0aeae1d079b04bcdec1288f4985ce29b1158799c6015fbf",
                    "indexes": {
                        "data": 0,
                        "gas": 0,
                        "value": 0
                    },
                    "state": {
                        "0x4d3ee342d725fde1c8bad4ab40c78946af9d5e92": {
                            "nonce": "0x00",
                            "balance": "0x0a",
                            "code": "0x",
                            "storage": {
                                "0x00": "0x01"
                            }
                        },
                        "0x3b2a3d50321476d97b86b4cb4df1bce7a2773e52": {
                            "nonce": "0x00",
                            "balance": "0x00",
                            "code": "0x5a6000556000600060006000734d3ee342d725fde1c8bad4ab40c78946af9d5e9261ea60f4600155600160645500",
                            "storage": {
                                "0x00": "0x08d5b6",
                                "0x01": "0x01",
                                "0x64": "0x01"
                            }
                        },
                        "0x61c5d6fc952b9be348dd5d13de47e297fb26fa65": {
                            "nonce": "0x01",
                            "balance": "0xe8d4975708",
                            "code": "0x",
                            "storage": {}
                        }
                    }
                }
            ]
        },
        "config": {
            "blobSchedule": {
                "Cancun": {
                    "target": "0x03",
                    "max": "0x06",
                    "baseFeeUpdateFraction": "0x32f0ed"
                }
            },
            "chainid": "0x01"
        },
        "_info": {
            "hash": "0xb514319c0013a723ec65e201e5fa345c3eef353f1f8d14544f583513d10e4158",
            "comment": "`execution-spec-tests` generated test",
            "filling-transition-tool": "ethereum-spec-evm-resolver 0.0.5",
            "description": "No description available - add a docstring to the python test class or function.",
            "url": "",
            "fixture-format": "state_test",
            "eels-resolution": {
                "git-url": "https://github.com/marioevz/execution-specs.git",
                "branch": "forks/bpo1",
                "commit": "3387e5f4aedfe99becfdc39b444d6371e25e0924"
            }
        }
    },
    "tests/static/state_tests/stZeroCallsTest/ZeroValue_DELEGATECALL_ToOneStorageKey_ParisFiller.json::ZeroValue_DELEGATECALL_ToOneStorageKey_Paris[fork_Osaka-state_test-]": {
        "env": {
            "currentCoinbase": "0x2adc25665018aa1fe0e6bc666dac8fc2697ff9ba",
            "currentGasLimit": "0x989680",
            "currentNumber": "0x01",
            "currentTimestamp": "0x03e8",
            "currentRandom": "0x0000000000000000000000000000000000000000000000000000000000020000",
            "currentDifficulty": "0x00",
            "currentBaseFee": "0x0a",
            "currentExcessBlobGas": "0x00"
        },
        "pre": {
            "0x4d3ee342d725fde1c8bad4ab40c78946af9d5e92": {
                "nonce": "0x00",
                "balance": "0x0a",
                "code": "0x",
                "storage": {
                    "0x00": "0x01"
                }
            },
            "0x3b2a3d50321476d97b86b4cb4df1bce7a2773e52": {
                "nonce": "0x00",
                "balance": "0x00",
                "code": "0x5a6000556000600060006000734d3ee342d725fde1c8bad4ab40c78946af9d5e9261ea60f4600155600160645500",
                "storage": {}
            },
            "0x61c5d6fc952b9be348dd5d13de47e297fb26fa65": {
                "nonce": "0x00",
                "balance": "0xe8d4a51000",
                "code": "0x",
                "storage": {}
            }
        },
        "transaction": {
            "nonce": "0x00",
            "gasPrice": "0x0a",
            "gasLimit": [
                "0x0927c0"
            ],
            "to": "0x3b2a3d50321476d97b86b4cb4df1bce7a2773e52",
            "value": [
                "0x00"
            ],
            "data": [
                "0x"
            ],
            "sender": "0x61c5d6fc952b9be348dd5d13de47e297fb26fa65",
            "secretKey": "0xc6bc07a158d5f129331294903b2a3d50321476d97b86b4cb4df1bce7a2773e53"
        },
        "post": {
            "Osaka": [
                {
                    "hash": "0x708a5152e6b87803209e87410659e8fa0d0193652570bac478ec874fe21a6abb",
                    "logs": "0x1dcc4de8dec75d7aab85b567b6ccd41ad312451b948a7413f0a142fd40d49347",
                    "txbytes": "0xf860800a830927c0943b2a3d50321476d97b86b4cb4df1bce7a2773e52808026a087038b35bc9e0213c9ed53872ae96c4857df8d62a34deae8cf92176c3abac91da07af536846b3bcad5f0aeae1d079b04bcdec1288f4985ce29b1158799c6015fbf",
                    "indexes": {
                        "data": 0,
                        "gas": 0,
                        "value": 0
                    },
                    "state": {
                        "0x4d3ee342d725fde1c8bad4ab40c78946af9d5e92": {
                            "nonce": "0x00",
                            "balance": "0x0a",
                            "code": "0x",
                            "storage": {
                                "0x00": "0x01"
                            }
                        },
                        "0x3b2a3d50321476d97b86b4cb4df1bce7a2773e52": {
                            "nonce": "0x00",
                            "balance": "0x00",
                            "code": "0x5a6000556000600060006000734d3ee342d725fde1c8bad4ab40c78946af9d5e9261ea60f4600155600160645500",
                            "storage": {
                                "0x00": "0x08d5b6",
                                "0x01": "0x01",
                                "0x64": "0x01"
                            }
                        },
                        "0x61c5d6fc952b9be348dd5d13de47e297fb26fa65": {
                            "nonce": "0x01",
                            "balance": "0xe8d4975708",
                            "code": "0x",
                            "storage": {}
                        }
                    }
                }
            ]
        },
        "config": {
            "blobSchedule": {
                "Cancun": {
                    "target": "0x03",
                    "max": "0x06",
                    "baseFeeUpdateFraction": "0x32f0ed"
                },
                "Prague": {
                    "target": "0x06",
                    "max": "0x09",
                    "baseFeeUpdateFraction": "0x4c6964"
                },
                "Osaka": {
                    "target": "0x06",
                    "max": "0x09",
                    "baseFeeUpdateFraction": "0x4c6964"
                }
            },
            "chainid": "0x01"
        },
        "_info": {
            "hash": "0xb52fe55d66b34546f6de469282f7e9df951534b79ee7c9e19b62c3677c53af23",
            "comment": "`execution-spec-tests` generated test",
            "filling-transition-tool": "ethereum-spec-evm-resolver 0.0.5",
            "description": "No description available - add a docstring to the python test class or function.",
            "url": "",
            "fixture-format": "state_test",
            "eels-resolution": {
                "git-url": "https://github.com/marioevz/execution-specs.git",
                "branch": "forks/bpo1",
                "commit": "3387e5f4aedfe99becfdc39b444d6371e25e0924"
            }
        }
    },
    "tests/static/state_tests/stZeroCallsTest/ZeroValue_DELEGATECALL_ToOneStorageKey_ParisFiller.json::ZeroValue_DELEGATECALL_ToOneStorageKey_Paris[fork_Prague-state_test-]": {
        "env": {
            "currentCoinbase": "0x2adc25665018aa1fe0e6bc666dac8fc2697ff9ba",
            "currentGasLimit": "0x989680",
            "currentNumber": "0x01",
            "currentTimestamp": "0x03e8",
            "currentRandom": "0x0000000000000000000000000000000000000000000000000000000000020000",
            "currentDifficulty": "0x00",
            "currentBaseFee": "0x0a",
            "currentExcessBlobGas": "0x00"
        },
        "pre": {
            "0x4d3ee342d725fde1c8bad4ab40c78946af9d5e92": {
                "nonce": "0x00",
                "balance": "0x0a",
                "code": "0x",
                "storage": {
                    "0x00": "0x01"
                }
            },
            "0x3b2a3d50321476d97b86b4cb4df1bce7a2773e52": {
                "nonce": "0x00",
                "balance": "0x00",
                "code": "0x5a6000556000600060006000734d3ee342d725fde1c8bad4ab40c78946af9d5e9261ea60f4600155600160645500",
                "storage": {}
            },
            "0x61c5d6fc952b9be348dd5d13de47e297fb26fa65": {
                "nonce": "0x00",
                "balance": "0xe8d4a51000",
                "code": "0x",
                "storage": {}
            }
        },
        "transaction": {
            "nonce": "0x00",
            "gasPrice": "0x0a",
            "gasLimit": [
                "0x0927c0"
            ],
            "to": "0x3b2a3d50321476d97b86b4cb4df1bce7a2773e52",
            "value": [
                "0x00"
            ],
            "data": [
                "0x"
            ],
            "sender": "0x61c5d6fc952b9be348dd5d13de47e297fb26fa65",
            "secretKey": "0xc6bc07a158d5f129331294903b2a3d50321476d97b86b4cb4df1bce7a2773e53"
        },
        "post": {
            "Prague": [
                {
                    "hash": "0x708a5152e6b87803209e87410659e8fa0d0193652570bac478ec874fe21a6abb",
                    "logs": "0x1dcc4de8dec75d7aab85b567b6ccd41ad312451b948a7413f0a142fd40d49347",
                    "txbytes": "0xf860800a830927c0943b2a3d50321476d97b86b4cb4df1bce7a2773e52808026a087038b35bc9e0213c9ed53872ae96c4857df8d62a34deae8cf92176c3abac91da07af536846b3bcad5f0aeae1d079b04bcdec1288f4985ce29b1158799c6015fbf",
                    "indexes": {
                        "data": 0,
                        "gas": 0,
                        "value": 0
                    },
                    "state": {
                        "0x4d3ee342d725fde1c8bad4ab40c78946af9d5e92": {
                            "nonce": "0x00",
                            "balance": "0x0a",
                            "code": "0x",
                            "storage": {
                                "0x00": "0x01"
                            }
                        },
                        "0x3b2a3d50321476d97b86b4cb4df1bce7a2773e52": {
                            "nonce": "0x00",
                            "balance": "0x00",
                            "code": "0x5a6000556000600060006000734d3ee342d725fde1c8bad4ab40c78946af9d5e9261ea60f4600155600160645500",
                            "storage": {
                                "0x00": "0x08d5b6",
                                "0x01": "0x01",
                                "0x64": "0x01"
                            }
                        },
                        "0x61c5d6fc952b9be348dd5d13de47e297fb26fa65": {
                            "nonce": "0x01",
                            "balance": "0xe8d4975708",
                            "code": "0x",
                            "storage": {}
                        }
                    }
                }
            ]
        },
        "config": {
            "blobSchedule": {
                "Cancun": {
                    "target": "0x03",
                    "max": "0x06",
                    "baseFeeUpdateFraction": "0x32f0ed"
                },
                "Prague": {
                    "target": "0x06",
                    "max": "0x09",
                    "baseFeeUpdateFraction": "0x4c6964"
                }
            },
            "chainid": "0x01"
        },
        "_info": {
            "hash": "0x4e63825ef2186b353b84599843381816e6f0557522d0501e07fb389be0e5f2de",
            "comment": "`execution-spec-tests` generated test",
            "filling-transition-tool": "ethereum-spec-evm-resolver 0.0.5",
            "description": "No description available - add a docstring to the python test class or function.",
            "url": "",
            "fixture-format": "state_test",
            "eels-resolution": {
                "git-url": "https://github.com/marioevz/execution-specs.git",
                "branch": "forks/bpo1",
                "commit": "3387e5f4aedfe99becfdc39b444d6371e25e0924"
            }
        }
    }
}