{
    "tests/ported_static/stTransactionTest/test_internal_call_hitting_gas_limit.py::test_internal_call_hitting_gas_limit[fork_Cancun-blockchain_test_from_state_test]": {
        "network": "Cancun",
        "genesisBlockHeader": {
            "parentHash": "0x0000000000000000000000000000000000000000000000000000000000000000",
            "uncleHash": "0x1dcc4de8dec75d7aab85b567b6ccd41ad312451b948a7413f0a142fd40d49347",
            "coinbase": "0x0000000000000000000000000000000000000000",
            "stateRoot": "0x9e7bad100d4883804d651d8948c1899f5acd6a6545dee940f7ba4ff770d6a704",
            "transactionsTrie": "0x56e81f171bcc55a6ff8345e692c0f86e5b48e01b996cadc001622fb5e363b421",
            "receiptTrie": "0x56e81f171bcc55a6ff8345e692c0f86e5b48e01b996cadc001622fb5e363b421",
            "bloom": "0x00000000000000000000000000000000000000000000000000000000000000000000000000000000000000000000000000000000000000000000000000000000000000000000000000000000000000000000000000000000000000000000000000000000000000000000000000000000000000000000000000000000000000000000000000000000000000000000000000000000000000000000000000000000000000000000000000000000000000000000000000000000000000000000000000000000000000000000000000000000000000000000000000000000000000000000000000000000000000000000000000000000000000000000000000000000",
            "difficulty": "0x00",
            "number": "0x00",
            "gasLimit": "0x0186a0",
            "gasUsed": "0x00",
            "timestamp": "0x00",
            "extraData": "0x00",
            "mixHash": "0x0000000000000000000000000000000000000000000000000000000000000000",
            "nonce": "0x0000000000000000",
            "baseFeePerGas": "0x0b",
            "withdrawalsRoot": "0x56e81f171bcc55a6ff8345e692c0f86e5b48e01b996cadc001622fb5e363b421",
            "blobGasUsed": "0x00",
            "excessBlobGas": "0x00",
            "parentBeaconBlockRoot": "0x0000000000000000000000000000000000000000000000000000000000000000",
            "hash": "0xba0dc20fe10ce1d8849ab76751ffa0c27553852c247e318d129f43678efef332"
        },
        "pre": {
            "0x000f3df6d732807ef1319fb7b8bb8522d0beac02": {
                "nonce": "0x01",
                "balance": "0x00",
                "code": "0x3373fffffffffffffffffffffffffffffffffffffffe14604d57602036146024575f5ffd5b5f35801560495762001fff810690815414603c575f5ffd5b62001fff01545f5260205ff35b5f5ffd5b62001fff42064281555f359062001fff015500",
                "storage": {}
            },
            "0x60478971839c84963db1986c096a4f416ff31f42": {
                "nonce": "0x00",
                "balance": "0x3b9aca00",
                "code": "0x",
                "storage": {}
            },
            "0x2b29a9d213abe9099806d66cf0c231f4c88c5cd1": {
                "nonce": "0x00",
                "balance": "0x00",
                "code": "0x603760015500",
                "storage": {}
            },
            "0x3a3091f8cbf80009e3c252226e5a2e91708a28f7": {
                "nonce": "0x00",
                "balance": "0x0f4240",
                "code": "0x60006000600060006001732b29a9d213abe9099806d66cf0c231f4c88c5cd1611388f100",
                "storage": {}
            }
        },
        "postState": {
            "0x000f3df6d732807ef1319fb7b8bb8522d0beac02": {
                "nonce": "0x01",
                "balance": "0x00",
                "code": "0x3373fffffffffffffffffffffffffffffffffffffffe14604d57602036146024575f5ffd5b5f35801560495762001fff810690815414603c575f5ffd5b62001fff01545f5260205ff35b5f5ffd5b62001fff42064281555f359062001fff015500",
                "storage": {
                    "0x03e8": "0x03e8"
                }
            },
            "0x60478971839c84963db1986c096a4f416ff31f42": {
                "nonce": "0x01",
                "balance": "0x3b9791c8",
                "code": "0x",
                "storage": {}
            },
            "0x2b29a9d213abe9099806d66cf0c231f4c88c5cd1": {
                "nonce": "0x00",
                "balance": "0x00",
                "code": "0x603760015500",
                "storage": {}
            },
            "0x3a3091f8cbf80009e3c252226e5a2e91708a28f7": {
                "nonce": "0x00",
                "balance": "0x0f4240",
                "code": "0x60006000600060006001732b29a9d213abe9099806d66cf0c231f4c88c5cd1611388f100",
                "storage": {}
            }
        },
        "lastblockhash": "0x08e4d298ee05e32bed44149b840c1a44a5a4e35d1cfbdec9041c60eb8d063206",
        "config": {
            "network": "Cancun",
            "chainid": "0x01",
            "blobSchedule": {
                "Cancun": {
                    "target": "0x03",
                    "max": "0x06",
                    "baseFeeUpdateFraction": "0x32f0ed"
                }
            }
        },
        "genesisRLP": "0xf9023bf90235a00000000000000000000000000000000000000000000000000000000000000000a01dcc4de8dec75d7aab85b567b6ccd41ad312451b948a7413f0a142fd40d49347940000000000000000000000000000000000000000a09e7bad100d4883804d651d8948c1899f5acd6a6545dee940f7ba4ff770d6a704a056e81f171bcc55a6ff8345e692c0f86e5b48e01b996cadc001622fb5e363b421a056e81f171bcc55a6ff8345e692c0f86e5b48e01b996cadc001622fb5e363b421b90100000000000000000000000000000000000000000000000000000000000000000000000000000000000000000000000000000000000000000000000000000000000000000000000000000000000000000000000000000000000000000000000000000000000000000000000000000000000000000000000000000000000000000000000000000000000000000000000000000000000000000000000000000000000000000000000000000000000000000000000000000000000000000000000000000000000000000000000000000000000000000000000000000000000000000000000000000000000000000000000000000000000000000000000000000000008080830186a0808000a000000000000000000000000000000000000000000000000000000000000000008800000000000000000ba056e81f171bcc55a6ff8345e692c0f86e5b48e01b996cadc001622fb5e363b4218080a00000000000000000000000000000000000000000000000000000000000000000c0c0c0",
        "blocks": [
            {
                "blockHeader": {
                    "parentHash": "0xba0dc20fe10ce1d8849ab76751ffa0c27553852c247e318d129f43678efef332",
                    "uncleHash": "0x1dcc4de8dec75d7aab85b567b6ccd41ad312451b948a7413f0a142fd40d49347",
                    "coinbase": "0x2adf5374fce5edbc8e2a8697c15331677e6ebf0b",
                    "stateRoot": "0x8126ae5705434841c6da890277ed903afa301a00ea2e7a107d01c7ce37593ee4",
                    "transactionsTrie": "0x156d521e4637c8bff4d1bbad0059a7460386f0322ba55d5bb64f2f2247cbea36",
                    "receiptTrie": "0x3d0bf19e482f7528e667d0e9bd8d178722bb1b9d612e6154c2c8eaa4f9ca6a8c",
                    "bloom": "0x00000000000000000000000000000000000000000000000000000000000000000000000000000000000000000000000000000000000000000000000000000000000000000000000000000000000000000000000000000000000000000000000000000000000000000000000000000000000000000000000000000000000000000000000000000000000000000000000000000000000000000000000000000000000000000000000000000000000000000000000000000000000000000000000000000000000000000000000000000000000000000000000000000000000000000000000000000000000000000000000000000000000000000000000000000000",
                    "difficulty": "0x00",
                    "number": "0x01",
                    "gasLimit": "0x0186a0",
                    "gasUsed": "0x526c",
                    "timestamp": "0x03e8",
                    "extraData": "0x00",
                    "mixHash": "0x0000000000000000000000000000000000000000000000000000000000020000",
                    "nonce": "0x0000000000000000",
                    "baseFeePerGas": "0x0a",
                    "withdrawalsRoot": "0x56e81f171bcc55a6ff8345e692c0f86e5b48e01b996cadc001622fb5e363b421",
                    "blobGasUsed": "0x00",
                    "excessBlobGas": "0x00",
                    "parentBeaconBlockRoot": "0x0000000000000000000000000000000000000000000000000000000000000000",
                    "hash": "0x08e4d298ee05e32bed44149b840c1a44a5a4e35d1cfbdec9041c60eb8d063206"
                },
                "transactions": [
                    {
                        "type": "0x00",
                        "chainId": "0x01",
                        "nonce": "0x00",
                        "gasPrice": "0x0a",
                        "gasLimit": "0x526c",
                        "to": "0x3a3091f8cbf80009e3c252226e5a2e91708a28f7",
                        "value": "0x0a",
                        "data": "0x",
                        "v": "0x26",
                        "r": "0xb8b1f364304b02415a6818109e0c56d0596cfa7f73b921ef22d0f034e1608b17",
                        "s": "0x5b18d8078e0efa3aac754d22179a338cf87fa602669f25576f25c811dbe5ae12",
                        "sender": "0x60478971839c84963db1986c096a4f416ff31f42"
                    }
                ],
                "uncleHeaders": [],
                "withdrawals": [],
                "receipts": [
                    {
                        "transactionHash": "0x64ff711b895ccec87ac333961c07c24b2b8dcefa2aadcf42be875f67efce1a12",
                        "type": "0x00",
                        "cumulativeGasUsed": "0x526c",
                        "bloom": "0x00000000000000000000000000000000000000000000000000000000000000000000000000000000000000000000000000000000000000000000000000000000000000000000000000000000000000000000000000000000000000000000000000000000000000000000000000000000000000000000000000000000000000000000000000000000000000000000000000000000000000000000000000000000000000000000000000000000000000000000000000000000000000000000000000000000000000000000000000000000000000000000000000000000000000000000000000000000000000000000000000000000000000000000000000000000",
                        "logs": [],
                        "status": false,
                        "rlp": "0xf901088082526cb9010000000000000000000000000000000000000000000000000000000000000000000000000000000000000000000000000000000000000000000000000000000000000000000000000000000000000000000000000000000000000000000000000000000000000000000000000000000000000000000000000000000000000000000000000000000000000000000000000000000000000000000000000000000000000000000000000000000000000000000000000000000000000000000000000000000000000000000000000000000000000000000000000000000000000000000000000000000000000000000000000000000000000000000000000000000000c0"
                    }
                ],
                "rlp": "0xf902a1f90239a0ba0dc20fe10ce1d8849ab76751ffa0c27553852c247e318d129f43678efef332a01dcc4de8dec75d7aab85b567b6ccd41ad312451b948a7413f0a142fd40d49347942adf5374fce5edbc8e2a8697c15331677e6ebf0ba08126ae5705434841c6da890277ed903afa301a00ea2e7a107d01c7ce37593ee4a0156d521e4637c8bff4d1bbad0059a7460386f0322ba55d5bb64f2f2247cbea36a03d0bf19e482f7528e667d0e9bd8d178722bb1b9d612e6154c2c8eaa4f9ca6a8cb90100000000000000000000000000000000000000000000000000000000000000000000000000000000000000000000000000000000000000000000000000000000000000000000000000000000000000000000000000000000000000000000000000000000000000000000000000000000000000000000000000000000000000000000000000000000000000000000000000000000000000000000000000000000000000000000000000000000000000000000000000000000000000000000000000000000000000000000000000000000000000000000000000000000000000000000000000000000000000000000000000000000000000000000000000000000008001830186a082526c8203e800a000000000000000000000000000000000000000000000000000000000000200008800000000000000000aa056e81f171bcc55a6ff8345e692c0f86e5b48e01b996cadc001622fb5e363b4218080a00000000000000000000000000000000000000000000000000000000000000000f861f85f800a82526c943a3091f8cbf80009e3c252226e5a2e91708a28f70a8026a0b8b1f364304b02415a6818109e0c56d0596cfa7f73b921ef22d0f034e1608b17a05b18d8078e0efa3aac754d22179a338cf87fa602669f25576f25c811dbe5ae12c0c0",
                "blocknumber": "1"
            }
        ],
        "sealEngine": "NoProof",
        "_info": {
            "hash": "0x0a49fc15225dabe279c0cfbe3262ef730d45bc48e5c9ebf649d27b8471d0a96c",
            "fixture-format": "blockchain_test",
            "comment": "`execution-specs` generated test",
            "filling-transition-tool": "2.19.0",
            "description": "Test_internal_call_hitting_gas_limit.",
            "url": "https://github.com/ethereum/execution-specs/blob/tests-snobal-devnet-5@v8037.0.0/tests/ported_static/stTransactionTest/test_internal_call_hitting_gas_limit.py#L24",
            "metadata": {
                "opcode_count": {}
            }
        }
    }
}