{
    "tests/ported_static/stSolidityTest/test_test_keywords.py::test_test_keywords[fork_Cancun-blockchain_test_from_state_test]": {
        "network": "Cancun",
        "genesisBlockHeader": {
            "parentHash": "0x0000000000000000000000000000000000000000000000000000000000000000",
            "uncleHash": "0x1dcc4de8dec75d7aab85b567b6ccd41ad312451b948a7413f0a142fd40d49347",
            "coinbase": "0x0000000000000000000000000000000000000000",
            "stateRoot": "0x9807f04032771f592d5422637d875c9366dc2b815605c42d197efe43dd6d66e5",
            "transactionsTrie": "0x56e81f171bcc55a6ff8345e692c0f86e5b48e01b996cadc001622fb5e363b421",
            "receiptTrie": "0x56e81f171bcc55a6ff8345e692c0f86e5b48e01b996cadc001622fb5e363b421",
            "bloom": "0x00000000000000000000000000000000000000000000000000000000000000000000000000000000000000000000000000000000000000000000000000000000000000000000000000000000000000000000000000000000000000000000000000000000000000000000000000000000000000000000000000000000000000000000000000000000000000000000000000000000000000000000000000000000000000000000000000000000000000000000000000000000000000000000000000000000000000000000000000000000000000000000000000000000000000000000000000000000000000000000000000000000000000000000000000000000",
            "difficulty": "0x00",
            "number": "0x00",
            "gasLimit": "0x05f5e100",
            "gasUsed": "0x00",
            "timestamp": "0x00",
            "extraData": "0x00",
            "mixHash": "0x0000000000000000000000000000000000000000000000000000000000000000",
            "nonce": "0x0000000000000000",
            "baseFeePerGas": "0x0b",
            "withdrawalsRoot": "0x56e81f171bcc55a6ff8345e692c0f86e5b48e01b996cadc001622fb5e363b421",
            "blobGasUsed": "0x00",
            "excessBlobGas": "0x00",
            "parentBeaconBlockRoot": "0x0000000000000000000000000000000000000000000000000000000000000000",
            "hash": "0xb73cd8b1f80026bab59d5cf9598e8d7ce2cb690b089029f347abf39685cfcd92"
        },
        "pre": {
            "0x000f3df6d732807ef1319fb7b8bb8522d0beac02": {
                "nonce": "0x01",
                "balance": "0x00",
                "code": "0x3373fffffffffffffffffffffffffffffffffffffffe14604d57602036146024575f5ffd5b5f35801560495762001fff810690815414603c575f5ffd5b62001fff01545f5260205ff35b5f5ffd5b62001fff42064281555f359062001fff015500",
                "storage": {}
            },
            "0xe7dcb339943a6db535ffe618ec32d1e4e5a50f37": {
                "nonce": "0x00",
                "balance": "0x0186a0",
                "code": "0x7c01000000000000000000000000000000000000000000000000000000006000350463380e439681146037578063c040622614604757005b603d6084565b8060005260206000f35b604d6057565b8060005260206000f35b6000605f6084565b600060006101000a81548160ff0219169083021790555060ff60016000540416905090565b6000808160011560cd575b600a82121560a157600190910190608f565b81600a1460ac5760c9565b50600a5b60008160ff16111560c85760019182900391900360b0565b5b60d5565b6000925060ed565b8160001460e05760e8565b6001925060ed565b600092505b50509056",
                "storage": {}
            },
            "0x7f3f285918d9b5e764174551e10b7539b97bbb27": {
                "nonce": "0x00",
                "balance": "0x05f5e100",
                "code": "0x",
                "storage": {}
            }
        },
        "postState": {
            "0x000f3df6d732807ef1319fb7b8bb8522d0beac02": {
                "nonce": "0x01",
                "balance": "0x00",
                "code": "0x3373fffffffffffffffffffffffffffffffffffffffe14604d57602036146024575f5ffd5b5f35801560495762001fff810690815414603c575f5ffd5b62001fff01545f5260205ff35b5f5ffd5b62001fff42064281555f359062001fff015500",
                "storage": {
                    "0x03e8": "0x03e8"
                }
            },
            "0xe7dcb339943a6db535ffe618ec32d1e4e5a50f37": {
                "nonce": "0x00",
                "balance": "0x0186a1",
                "code": "0x7c01000000000000000000000000000000000000000000000000000000006000350463380e439681146037578063c040622614604757005b603d6084565b8060005260206000f35b604d6057565b8060005260206000f35b6000605f6084565b600060006101000a81548160ff0219169083021790555060ff60016000540416905090565b6000808160011560cd575b600a82121560a157600190910190608f565b81600a1460ac5760c9565b50600a5b60008160ff16111560c85760019182900391900360b0565b5b60d5565b6000925060ed565b8160001460e05760e8565b6001925060ed565b600092505b50509056",
                "storage": {
                    "0x00": "0x01"
                }
            },
            "0x7f3f285918d9b5e764174551e10b7539b97bbb27": {
                "nonce": "0x01",
                "balance": "0x05ef0947",
                "code": "0x",
                "storage": {}
            }
        },
        "lastblockhash": "0x1c3b6f55b7fdfec3b257133f8a1b9fb408df41e80e369926db9668e712fef8be",
        "config": {
            "network": "Cancun",
            "chainid": "0x01",
            "blobSchedule": {
                "Cancun": {
                    "target": "0x03",
                    "max": "0x06",
                    "baseFeeUpdateFraction": "0x32f0ed"
                }
            }
        },
        "genesisRLP": "0xf9023cf90236a00000000000000000000000000000000000000000000000000000000000000000a01dcc4de8dec75d7aab85b567b6ccd41ad312451b948a7413f0a142fd40d49347940000000000000000000000000000000000000000a09807f04032771f592d5422637d875c9366dc2b815605c42d197efe43dd6d66e5a056e81f171bcc55a6ff8345e692c0f86e5b48e01b996cadc001622fb5e363b421a056e81f171bcc55a6ff8345e692c0f86e5b48e01b996cadc001622fb5e363b421b901000000000000000000000000000000000000000000000000000000000000000000000000000000000000000000000000000000000000000000000000000000000000000000000000000000000000000000000000000000000000000000000000000000000000000000000000000000000000000000000000000000000000000000000000000000000000000000000000000000000000000000000000000000000000000000000000000000000000000000000000000000000000000000000000000000000000000000000000000000000000000000000000000000000000000000000000000000000000000000000000000000000000000000000000000000000080808405f5e100808000a000000000000000000000000000000000000000000000000000000000000000008800000000000000000ba056e81f171bcc55a6ff8345e692c0f86e5b48e01b996cadc001622fb5e363b4218080a00000000000000000000000000000000000000000000000000000000000000000c0c0c0",
        "blocks": [
            {
                "blockHeader": {
                    "parentHash": "0xb73cd8b1f80026bab59d5cf9598e8d7ce2cb690b089029f347abf39685cfcd92",
                    "uncleHash": "0x1dcc4de8dec75d7aab85b567b6ccd41ad312451b948a7413f0a142fd40d49347",
                    "coinbase": "0x2adc25665018aa1fe0e6bc666dac8fc2697ff9ba",
                    "stateRoot": "0x538934ac8ba48820491e281d62aafb96365e447071effe7c8e3651b1e36e5eba",
                    "transactionsTrie": "0x701c36fd06dbf3d3b12049bcaa6d913dc9e04fe0c5cd062fe49191e00a9e9c43",
                    "receiptTrie": "0x6666d0584ccca34619cd89fcb5a214b53038b12faabb435f28dbaf43421f7219",
                    "bloom": "0x00000000000000000000000000000000000000000000000000000000000000000000000000000000000000000000000000000000000000000000000000000000000000000000000000000000000000000000000000000000000000000000000000000000000000000000000000000000000000000000000000000000000000000000000000000000000000000000000000000000000000000000000000000000000000000000000000000000000000000000000000000000000000000000000000000000000000000000000000000000000000000000000000000000000000000000000000000000000000000000000000000000000000000000000000000000",
                    "difficulty": "0x00",
                    "number": "0x01",
                    "gasLimit": "0x05f5e100",
                    "gasUsed": "0xaf2c",
                    "timestamp": "0x03e8",
                    "extraData": "0x00",
                    "mixHash": "0x0000000000000000000000000000000000000000000000000000000000020000",
                    "nonce": "0x0000000000000000",
                    "baseFeePerGas": "0x0a",
                    "withdrawalsRoot": "0x56e81f171bcc55a6ff8345e692c0f86e5b48e01b996cadc001622fb5e363b421",
                    "blobGasUsed": "0x00",
                    "excessBlobGas": "0x00",
                    "parentBeaconBlockRoot": "0x0000000000000000000000000000000000000000000000000000000000000000",
                    "hash": "0x1c3b6f55b7fdfec3b257133f8a1b9fb408df41e80e369926db9668e712fef8be"
                },
                "transactions": [
                    {
                        "type": "0x00",
                        "chainId": "0x01",
                        "nonce": "0x00",
                        "gasPrice": "0x0a",
                        "gasLimit": "0x055730",
                        "to": "0xe7dcb339943a6db535ffe618ec32d1e4e5a50f37",
                        "value": "0x01",
                        "data": "0xc0406226",
                        "v": "0x25",
                        "r": "0x294836bea3146c379f292832062128c078fc34f1e5c808d4253b1cfdb3d490ba",
                        "s": "0x573db32a1b187a01c65f9af8a774ca0c62732fb3e079c006f9bab6defce8c817",
                        "sender": "0x7f3f285918d9b5e764174551e10b7539b97bbb27"
                    }
                ],
                "uncleHeaders": [],
                "withdrawals": [],
                "receipts": [
                    {
                        "transactionHash": "0x5bb1ecb4edb2d53a0da8c7abcf0db83f130f4938f357570c558e3c3e77768653",
                        "type": "0x00",
                        "cumulativeGasUsed": "0xaf2c",
                        "bloom": "0x00000000000000000000000000000000000000000000000000000000000000000000000000000000000000000000000000000000000000000000000000000000000000000000000000000000000000000000000000000000000000000000000000000000000000000000000000000000000000000000000000000000000000000000000000000000000000000000000000000000000000000000000000000000000000000000000000000000000000000000000000000000000000000000000000000000000000000000000000000000000000000000000000000000000000000000000000000000000000000000000000000000000000000000000000000000",
                        "logs": [],
                        "status": true,
                        "rlp": "0xf901080182af2cb9010000000000000000000000000000000000000000000000000000000000000000000000000000000000000000000000000000000000000000000000000000000000000000000000000000000000000000000000000000000000000000000000000000000000000000000000000000000000000000000000000000000000000000000000000000000000000000000000000000000000000000000000000000000000000000000000000000000000000000000000000000000000000000000000000000000000000000000000000000000000000000000000000000000000000000000000000000000000000000000000000000000000000000000000000000000000c0"
                    }
                ],
                "rlp": "0xf902a7f9023aa0b73cd8b1f80026bab59d5cf9598e8d7ce2cb690b089029f347abf39685cfcd92a01dcc4de8dec75d7aab85b567b6ccd41ad312451b948a7413f0a142fd40d49347942adc25665018aa1fe0e6bc666dac8fc2697ff9baa0538934ac8ba48820491e281d62aafb96365e447071effe7c8e3651b1e36e5ebaa0701c36fd06dbf3d3b12049bcaa6d913dc9e04fe0c5cd062fe49191e00a9e9c43a06666d0584ccca34619cd89fcb5a214b53038b12faabb435f28dbaf43421f7219b901000000000000000000000000000000000000000000000000000000000000000000000000000000000000000000000000000000000000000000000000000000000000000000000000000000000000000000000000000000000000000000000000000000000000000000000000000000000000000000000000000000000000000000000000000000000000000000000000000000000000000000000000000000000000000000000000000000000000000000000000000000000000000000000000000000000000000000000000000000000000000000000000000000000000000000000000000000000000000000000000000000000000000000000000000000000080018405f5e10082af2c8203e800a000000000000000000000000000000000000000000000000000000000000200008800000000000000000aa056e81f171bcc55a6ff8345e692c0f86e5b48e01b996cadc001622fb5e363b4218080a00000000000000000000000000000000000000000000000000000000000000000f866f864800a8305573094e7dcb339943a6db535ffe618ec32d1e4e5a50f370184c040622625a0294836bea3146c379f292832062128c078fc34f1e5c808d4253b1cfdb3d490baa0573db32a1b187a01c65f9af8a774ca0c62732fb3e079c006f9bab6defce8c817c0c0",
                "blocknumber": "1"
            }
        ],
        "sealEngine": "NoProof",
        "_info": {
            "hash": "0xcdb3ff7f37e30638229b7d01035aa8cff158860b05f0f03d89c323ac5cdaa66d",
            "fixture-format": "blockchain_test",
            "comment": "`execution-specs` generated test",
            "filling-transition-tool": "2.19.0",
            "description": "Test_test_keywords.",
            "url": "https://github.com/ethereum/execution-specs/blob/tests-bal@v5.7.0/tests/ported_static/stSolidityTest/test_test_keywords.py#L25",
            "metadata": {
                "opcode_count": {}
            }
        }
    }
}