{
    "tests/ported_static/stSolidityTest/test_test_keywords.py::test_test_keywords[fork_Cancun-blockchain_test_from_state_test]": {
        "network": "Cancun",
        "genesisBlockHeader": {
            "parentHash": "0x0000000000000000000000000000000000000000000000000000000000000000",
            "uncleHash": "0x1dcc4de8dec75d7aab85b567b6ccd41ad312451b948a7413f0a142fd40d49347",
            "coinbase": "0x0000000000000000000000000000000000000000",
            "stateRoot": "0x536c46ede96df841b68d44637c237cbe3bd3b339594943ce0cfc984775f0b944",
            "transactionsTrie": "0x56e81f171bcc55a6ff8345e692c0f86e5b48e01b996cadc001622fb5e363b421",
            "receiptTrie": "0x56e81f171bcc55a6ff8345e692c0f86e5b48e01b996cadc001622fb5e363b421",
            "bloom": "0x00000000000000000000000000000000000000000000000000000000000000000000000000000000000000000000000000000000000000000000000000000000000000000000000000000000000000000000000000000000000000000000000000000000000000000000000000000000000000000000000000000000000000000000000000000000000000000000000000000000000000000000000000000000000000000000000000000000000000000000000000000000000000000000000000000000000000000000000000000000000000000000000000000000000000000000000000000000000000000000000000000000000000000000000000000000",
            "difficulty": "0x00",
            "number": "0x00",
            "gasLimit": "0x05f5e100",
            "gasUsed": "0x00",
            "timestamp": "0x00",
            "extraData": "0x00",
            "mixHash": "0x0000000000000000000000000000000000000000000000000000000000000000",
            "nonce": "0x0000000000000000",
            "baseFeePerGas": "0x0b",
            "withdrawalsRoot": "0x56e81f171bcc55a6ff8345e692c0f86e5b48e01b996cadc001622fb5e363b421",
            "blobGasUsed": "0x00",
            "excessBlobGas": "0x00",
            "parentBeaconBlockRoot": "0x0000000000000000000000000000000000000000000000000000000000000000",
            "hash": "0x26e71ae16e760b881c138d542f3b717eddc46a7cc846df85abd147a0d26de8a8"
        },
        "pre": {
            "0x000f3df6d732807ef1319fb7b8bb8522d0beac02": {
                "nonce": "0x01",
                "balance": "0x00",
                "code": "0x3373fffffffffffffffffffffffffffffffffffffffe14604d57602036146024575f5ffd5b5f35801560495762001fff810690815414603c575f5ffd5b62001fff01545f5260205ff35b5f5ffd5b62001fff42064281555f359062001fff015500",
                "storage": {}
            },
            "0x962aea7d0a0e077e3075514cae986ba883e67d22": {
                "nonce": "0x00",
                "balance": "0x05f5e100",
                "code": "0x",
                "storage": {}
            },
            "0xe32847fe97a68235a6e921116c7e5aad3e72ce89": {
                "nonce": "0x00",
                "balance": "0x0186a0",
                "code": "0x7c01000000000000000000000000000000000000000000000000000000006000350463380e439681146037578063c040622614604757005b603d6084565b8060005260206000f35b604d6057565b8060005260206000f35b6000605f6084565b600060006101000a81548160ff0219169083021790555060ff60016000540416905090565b6000808160011560cd575b600a82121560a157600190910190608f565b81600a1460ac5760c9565b50600a5b60008160ff16111560c85760019182900391900360b0565b5b60d5565b6000925060ed565b8160001460e05760e8565b6001925060ed565b600092505b50509056",
                "storage": {}
            }
        },
        "postState": {
            "0x000f3df6d732807ef1319fb7b8bb8522d0beac02": {
                "nonce": "0x01",
                "balance": "0x00",
                "code": "0x3373fffffffffffffffffffffffffffffffffffffffe14604d57602036146024575f5ffd5b5f35801560495762001fff810690815414603c575f5ffd5b62001fff01545f5260205ff35b5f5ffd5b62001fff42064281555f359062001fff015500",
                "storage": {
                    "0x03e8": "0x03e8"
                }
            },
            "0x962aea7d0a0e077e3075514cae986ba883e67d22": {
                "nonce": "0x01",
                "balance": "0x05ef0947",
                "code": "0x",
                "storage": {}
            },
            "0xe32847fe97a68235a6e921116c7e5aad3e72ce89": {
                "nonce": "0x00",
                "balance": "0x0186a1",
                "code": "0x7c01000000000000000000000000000000000000000000000000000000006000350463380e439681146037578063c040622614604757005b603d6084565b8060005260206000f35b604d6057565b8060005260206000f35b6000605f6084565b600060006101000a81548160ff0219169083021790555060ff60016000540416905090565b6000808160011560cd575b600a82121560a157600190910190608f565b81600a1460ac5760c9565b50600a5b60008160ff16111560c85760019182900391900360b0565b5b60d5565b6000925060ed565b8160001460e05760e8565b6001925060ed565b600092505b50509056",
                "storage": {
                    "0x00": "0x01"
                }
            }
        },
        "lastblockhash": "0xfe992b767d7f593efb6cd94c8fd66eb03681d5dcdbd8d7a152aef8f5a90239ee",
        "config": {
            "network": "Cancun",
            "chainid": "0x01",
            "blobSchedule": {
                "Cancun": {
                    "target": "0x03",
                    "max": "0x06",
                    "baseFeeUpdateFraction": "0x32f0ed"
                }
            }
        },
        "genesisRLP": "0xf9023cf90236a00000000000000000000000000000000000000000000000000000000000000000a01dcc4de8dec75d7aab85b567b6ccd41ad312451b948a7413f0a142fd40d49347940000000000000000000000000000000000000000a0536c46ede96df841b68d44637c237cbe3bd3b339594943ce0cfc984775f0b944a056e81f171bcc55a6ff8345e692c0f86e5b48e01b996cadc001622fb5e363b421a056e81f171bcc55a6ff8345e692c0f86e5b48e01b996cadc001622fb5e363b421b901000000000000000000000000000000000000000000000000000000000000000000000000000000000000000000000000000000000000000000000000000000000000000000000000000000000000000000000000000000000000000000000000000000000000000000000000000000000000000000000000000000000000000000000000000000000000000000000000000000000000000000000000000000000000000000000000000000000000000000000000000000000000000000000000000000000000000000000000000000000000000000000000000000000000000000000000000000000000000000000000000000000000000000000000000000000080808405f5e100808000a000000000000000000000000000000000000000000000000000000000000000008800000000000000000ba056e81f171bcc55a6ff8345e692c0f86e5b48e01b996cadc001622fb5e363b4218080a00000000000000000000000000000000000000000000000000000000000000000c0c0c0",
        "blocks": [
            {
                "blockHeader": {
                    "parentHash": "0x26e71ae16e760b881c138d542f3b717eddc46a7cc846df85abd147a0d26de8a8",
                    "uncleHash": "0x1dcc4de8dec75d7aab85b567b6ccd41ad312451b948a7413f0a142fd40d49347",
                    "coinbase": "0x2adc25665018aa1fe0e6bc666dac8fc2697ff9ba",
                    "stateRoot": "0xc00c093bfa69f7aeaf72ec3dd0470d4ab03fe9733fc141345e74d45137592b40",
                    "transactionsTrie": "0xeef00f120aacb6016f49c784d3c6484534a440f3678324c80587b3a819c8cbc9",
                    "receiptTrie": "0x6666d0584ccca34619cd89fcb5a214b53038b12faabb435f28dbaf43421f7219",
                    "bloom": "0x00000000000000000000000000000000000000000000000000000000000000000000000000000000000000000000000000000000000000000000000000000000000000000000000000000000000000000000000000000000000000000000000000000000000000000000000000000000000000000000000000000000000000000000000000000000000000000000000000000000000000000000000000000000000000000000000000000000000000000000000000000000000000000000000000000000000000000000000000000000000000000000000000000000000000000000000000000000000000000000000000000000000000000000000000000000",
                    "difficulty": "0x00",
                    "number": "0x01",
                    "gasLimit": "0x05f5e100",
                    "gasUsed": "0xaf2c",
                    "timestamp": "0x03e8",
                    "extraData": "0x00",
                    "mixHash": "0x0000000000000000000000000000000000000000000000000000000000020000",
                    "nonce": "0x0000000000000000",
                    "baseFeePerGas": "0x0a",
                    "withdrawalsRoot": "0x56e81f171bcc55a6ff8345e692c0f86e5b48e01b996cadc001622fb5e363b421",
                    "blobGasUsed": "0x00",
                    "excessBlobGas": "0x00",
                    "parentBeaconBlockRoot": "0x0000000000000000000000000000000000000000000000000000000000000000",
                    "hash": "0xfe992b767d7f593efb6cd94c8fd66eb03681d5dcdbd8d7a152aef8f5a90239ee"
                },
                "transactions": [
                    {
                        "type": "0x00",
                        "chainId": "0x01",
                        "nonce": "0x00",
                        "gasPrice": "0x0a",
                        "gasLimit": "0x055730",
                        "to": "0xe32847fe97a68235a6e921116c7e5aad3e72ce89",
                        "value": "0x01",
                        "data": "0xc0406226",
                        "v": "0x25",
                        "r": "0x4d3aa83004a6f52095507035e3d29a7b20faa20b5eeb5e95ebfcbe7cd0e81320",
                        "s": "0x152a23d614df12948cd31982659590106b5114435418a161f23b03ed1d5b2a41",
                        "sender": "0x962aea7d0a0e077e3075514cae986ba883e67d22"
                    }
                ],
                "uncleHeaders": [],
                "withdrawals": [],
                "receipts": [
                    {
                        "transactionHash": "0x10ef0c3a68e6643d6c547f6cd062f854b64097414a9f90578361545fbee319f6",
                        "type": "0x00",
                        "cumulativeGasUsed": "0xaf2c",
                        "bloom": "0x00000000000000000000000000000000000000000000000000000000000000000000000000000000000000000000000000000000000000000000000000000000000000000000000000000000000000000000000000000000000000000000000000000000000000000000000000000000000000000000000000000000000000000000000000000000000000000000000000000000000000000000000000000000000000000000000000000000000000000000000000000000000000000000000000000000000000000000000000000000000000000000000000000000000000000000000000000000000000000000000000000000000000000000000000000000",
                        "logs": [],
                        "status": true,
                        "rlp": "0xf901080182af2cb9010000000000000000000000000000000000000000000000000000000000000000000000000000000000000000000000000000000000000000000000000000000000000000000000000000000000000000000000000000000000000000000000000000000000000000000000000000000000000000000000000000000000000000000000000000000000000000000000000000000000000000000000000000000000000000000000000000000000000000000000000000000000000000000000000000000000000000000000000000000000000000000000000000000000000000000000000000000000000000000000000000000000000000000000000000000000c0"
                    }
                ],
                "rlp": "0xf902a7f9023aa026e71ae16e760b881c138d542f3b717eddc46a7cc846df85abd147a0d26de8a8a01dcc4de8dec75d7aab85b567b6ccd41ad312451b948a7413f0a142fd40d49347942adc25665018aa1fe0e6bc666dac8fc2697ff9baa0c00c093bfa69f7aeaf72ec3dd0470d4ab03fe9733fc141345e74d45137592b40a0eef00f120aacb6016f49c784d3c6484534a440f3678324c80587b3a819c8cbc9a06666d0584ccca34619cd89fcb5a214b53038b12faabb435f28dbaf43421f7219b901000000000000000000000000000000000000000000000000000000000000000000000000000000000000000000000000000000000000000000000000000000000000000000000000000000000000000000000000000000000000000000000000000000000000000000000000000000000000000000000000000000000000000000000000000000000000000000000000000000000000000000000000000000000000000000000000000000000000000000000000000000000000000000000000000000000000000000000000000000000000000000000000000000000000000000000000000000000000000000000000000000000000000000000000000000000080018405f5e10082af2c8203e800a000000000000000000000000000000000000000000000000000000000000200008800000000000000000aa056e81f171bcc55a6ff8345e692c0f86e5b48e01b996cadc001622fb5e363b4218080a00000000000000000000000000000000000000000000000000000000000000000f866f864800a8305573094e32847fe97a68235a6e921116c7e5aad3e72ce890184c040622625a04d3aa83004a6f52095507035e3d29a7b20faa20b5eeb5e95ebfcbe7cd0e81320a0152a23d614df12948cd31982659590106b5114435418a161f23b03ed1d5b2a41c0c0",
                "blocknumber": "1"
            }
        ],
        "sealEngine": "NoProof",
        "_info": {
            "hash": "0xb0a4b9780e85d11432f11b1e481b610e2334302e96861954047f107f0a83ced4",
            "fixture-format": "blockchain_test",
            "comment": "`execution-specs` generated test",
            "filling-transition-tool": "2.19.0",
            "description": "Test_test_keywords.",
            "url": "https://github.com/ethereum/execution-specs/blob/tests-snobal-devnet-5@v8037.0.0/tests/ported_static/stSolidityTest/test_test_keywords.py#L24",
            "metadata": {
                "opcode_count": {}
            }
        }
    }
}