{
    "tests/cancun/eip4844_blobs/test_blobhash_opcode.py::test_blobhash_multiple_txs_in_block[fork_Cancun-blockchain_test]": {
        "network": "Cancun",
        "genesisBlockHeader": {
            "parentHash": "0x0000000000000000000000000000000000000000000000000000000000000000",
            "uncleHash": "0x1dcc4de8dec75d7aab85b567b6ccd41ad312451b948a7413f0a142fd40d49347",
            "coinbase": "0x0000000000000000000000000000000000000000",
            "stateRoot": "0x60127d168fa6b5abadf0a875b9b8e5883bb12ef7fd94fd92c09e716752f3b377",
            "transactionsTrie": "0x56e81f171bcc55a6ff8345e692c0f86e5b48e01b996cadc001622fb5e363b421",
            "receiptTrie": "0x56e81f171bcc55a6ff8345e692c0f86e5b48e01b996cadc001622fb5e363b421",
            "bloom": "0x00000000000000000000000000000000000000000000000000000000000000000000000000000000000000000000000000000000000000000000000000000000000000000000000000000000000000000000000000000000000000000000000000000000000000000000000000000000000000000000000000000000000000000000000000000000000000000000000000000000000000000000000000000000000000000000000000000000000000000000000000000000000000000000000000000000000000000000000000000000000000000000000000000000000000000000000000000000000000000000000000000000000000000000000000000000",
            "difficulty": "0x00",
            "number": "0x00",
            "gasLimit": "0x07270e00",
            "gasUsed": "0x00",
            "timestamp": "0x00",
            "extraData": "0x00",
            "mixHash": "0x0000000000000000000000000000000000000000000000000000000000000000",
            "nonce": "0x0000000000000000",
            "baseFeePerGas": "0x07",
            "withdrawalsRoot": "0x56e81f171bcc55a6ff8345e692c0f86e5b48e01b996cadc001622fb5e363b421",
            "blobGasUsed": "0x00",
            "excessBlobGas": "0x00",
            "parentBeaconBlockRoot": "0x0000000000000000000000000000000000000000000000000000000000000000",
            "hash": "0x972e321e1e2c4ee149d74ca7d8ec469ad8c2cc8259d9e8c7b9ddc79891897f2f"
        },
        "pre": {
            "0x000f3df6d732807ef1319fb7b8bb8522d0beac02": {
                "nonce": "0x01",
                "balance": "0x00",
                "code": "0x3373fffffffffffffffffffffffffffffffffffffffe14604d57602036146024575f5ffd5b5f35801560495762001fff810690815414603c575f5ffd5b62001fff01545f5260205ff35b5f5ffd5b62001fff42064281555f359062001fff015500",
                "storage": {}
            },
            "0xd5f25f363591081114bdfb406ca5d462b81f82c1": {
                "nonce": "0x01",
                "balance": "0x00",
                "code": "0x600049600055600149600155600249600255600349600355600449600455600549600555",
                "storage": {}
            },
            "0x68538f951e46fe414c829a084c071cfe6945d42c": {
                "nonce": "0x01",
                "balance": "0x00",
                "code": "0x600049600055600149600155600249600255600349600355600449600455600549600555",
                "storage": {}
            },
            "0xbccd931dd3a7da0f120f39cd8c278f21d66219e1": {
                "nonce": "0x01",
                "balance": "0x00",
                "code": "0x600049600055600149600155600249600255600349600355600449600455600549600555",
                "storage": {}
            },
            "0xc71a19e76b707e4ceb5f2c906e7f865f3124736b": {
                "nonce": "0x01",
                "balance": "0x00",
                "code": "0x600049600055600149600155600249600255600349600355600449600455600549600555",
                "storage": {}
            },
            "0x1ad9bc24818784172ff393bb6f89f094d4d2ca29": {
                "nonce": "0x00",
                "balance": "0x3635c9adc5dea00000",
                "code": "0x",
                "storage": {}
            }
        },
        "postState": {
            "0x000f3df6d732807ef1319fb7b8bb8522d0beac02": {
                "nonce": "0x01",
                "balance": "0x00",
                "code": "0x3373fffffffffffffffffffffffffffffffffffffffe14604d57602036146024575f5ffd5b5f35801560495762001fff810690815414603c575f5ffd5b62001fff01545f5260205ff35b5f5ffd5b62001fff42064281555f359062001fff015500",
                "storage": {
                    "0x0c": "0x0c",
                    "0x18": "0x18",
                    "0x24": "0x24"
                }
            },
            "0xd5f25f363591081114bdfb406ca5d462b81f82c1": {
                "nonce": "0x01",
                "balance": "0x00",
                "code": "0x600049600055600149600155600249600255600349600355600449600455600549600555",
                "storage": {}
            },
            "0x68538f951e46fe414c829a084c071cfe6945d42c": {
                "nonce": "0x01",
                "balance": "0x00",
                "code": "0x600049600055600149600155600249600255600349600355600449600455600549600555",
                "storage": {
                    "0x00": "0x01b8c5b09810b5fc07355d3da42e2c3a3e200c1d9a678491b7e8e256fc50cc4f",
                    "0x01": "0x015b4c8cc4f86aa2d2cf9e9ce97fca704a11a6c20f6b1d6c00a6e15f6d60a6df",
                    "0x02": "0x01878f80eaf10be1a6f618e6f8c071b10a6c14d9b89a3bf2a3f3cf2db6c5681d",
                    "0x03": "0x014eb72b108d562c639faeb6f8c6f366a28b0381c7d30431117ec8c7bb89f834",
                    "0x04": "0x01a9b2a6c3f3f0675b768d49b5f5dc5b5d988f88d55766247ba9e40b125f16bb",
                    "0x05": "0x01a4d4cde4aa01e57fb2c880d1d9c778c33bdf85e48ef4c4d4b4de51abccf4ed"
                }
            },
            "0xbccd931dd3a7da0f120f39cd8c278f21d66219e1": {
                "nonce": "0x01",
                "balance": "0x00",
                "code": "0x600049600055600149600155600249600255600349600355600449600455600549600555",
                "storage": {}
            },
            "0xc71a19e76b707e4ceb5f2c906e7f865f3124736b": {
                "nonce": "0x01",
                "balance": "0x00",
                "code": "0x600049600055600149600155600249600255600349600355600449600455600549600555",
                "storage": {
                    "0x00": "0x01b8c5b09810b5fc07355d3da42e2c3a3e200c1d9a678491b7e8e256fc50cc4f",
                    "0x01": "0x015b4c8cc4f86aa2d2cf9e9ce97fca704a11a6c20f6b1d6c00a6e15f6d60a6df",
                    "0x02": "0x01878f80eaf10be1a6f618e6f8c071b10a6c14d9b89a3bf2a3f3cf2db6c5681d",
                    "0x03": "0x014eb72b108d562c639faeb6f8c6f366a28b0381c7d30431117ec8c7bb89f834",
                    "0x04": "0x01a9b2a6c3f3f0675b768d49b5f5dc5b5d988f88d55766247ba9e40b125f16bb",
                    "0x05": "0x01a4d4cde4aa01e57fb2c880d1d9c778c33bdf85e48ef4c4d4b4de51abccf4ed"
                }
            },
            "0x1ad9bc24818784172ff393bb6f89f094d4d2ca29": {
                "nonce": "0x06",
                "balance": "0x3635c9adc5de3f0130",
                "code": "0x",
                "storage": {}
            }
        },
        "lastblockhash": "0xf8e4d05645a22abd183e8bb9b85e84bff1fc9f4550303c94097f2e3eaa659314",
        "config": {
            "network": "Cancun",
            "chainid": "0x01",
            "blobSchedule": {
                "Cancun": {
                    "target": "0x03",
                    "max": "0x06",
                    "baseFeeUpdateFraction": "0x32f0ed"
                }
            }
        },
        "genesisRLP": "0xf9023cf90236a00000000000000000000000000000000000000000000000000000000000000000a01dcc4de8dec75d7aab85b567b6ccd41ad312451b948a7413f0a142fd40d49347940000000000000000000000000000000000000000a060127d168fa6b5abadf0a875b9b8e5883bb12ef7fd94fd92c09e716752f3b377a056e81f171bcc55a6ff8345e692c0f86e5b48e01b996cadc001622fb5e363b421a056e81f171bcc55a6ff8345e692c0f86e5b48e01b996cadc001622fb5e363b421b901000000000000000000000000000000000000000000000000000000000000000000000000000000000000000000000000000000000000000000000000000000000000000000000000000000000000000000000000000000000000000000000000000000000000000000000000000000000000000000000000000000000000000000000000000000000000000000000000000000000000000000000000000000000000000000000000000000000000000000000000000000000000000000000000000000000000000000000000000000000000000000000000000000000000000000000000000000000000000000000000000000000000000000000000000000000080808407270e00808000a0000000000000000000000000000000000000000000000000000000000000000088000000000000000007a056e81f171bcc55a6ff8345e692c0f86e5b48e01b996cadc001622fb5e363b4218080a00000000000000000000000000000000000000000000000000000000000000000c0c0c0",
        "blocks": [
            {
                "blockHeader": {
                    "parentHash": "0x972e321e1e2c4ee149d74ca7d8ec469ad8c2cc8259d9e8c7b9ddc79891897f2f",
                    "uncleHash": "0x1dcc4de8dec75d7aab85b567b6ccd41ad312451b948a7413f0a142fd40d49347",
                    "coinbase": "0x2adc25665018aa1fe0e6bc666dac8fc2697ff9ba",
                    "stateRoot": "0x287cdbad7b7c414043a3b7b5626490c702cc1a46c80e5d9a299c4e5ef0fdb8e1",
                    "transactionsTrie": "0xb0fa55332af73ef292dfc967ca7814b0dcf9de8953115ed79f7ab1135852e540",
                    "receiptTrie": "0xf44b62ca500455002c17e676410100f1a6df14862de0691766cb2a9ed3c59dc8",
                    "bloom": "0x00000000000000000000000000000000000000000000000000000000000000000000000000000000000000000000000000000000000000000000000000000000000000000000000000000000000000000000000000000000000000000000000000000000000000000000000000000000000000000000000000000000000000000000000000000000000000000000000000000000000000000000000000000000000000000000000000000000000000000000000000000000000000000000000000000000000000000000000000000000000000000000000000000000000000000000000000000000000000000000000000000000000000000000000000000000",
                    "difficulty": "0x00",
                    "number": "0x01",
                    "gasLimit": "0x07270e00",
                    "gasUsed": "0x02f8a8",
                    "timestamp": "0x0c",
                    "extraData": "0x",
                    "mixHash": "0x0000000000000000000000000000000000000000000000000000000000000000",
                    "nonce": "0x0000000000000000",
                    "baseFeePerGas": "0x07",
                    "withdrawalsRoot": "0x56e81f171bcc55a6ff8345e692c0f86e5b48e01b996cadc001622fb5e363b421",
                    "blobGasUsed": "0x0c0000",
                    "excessBlobGas": "0x00",
                    "parentBeaconBlockRoot": "0x0000000000000000000000000000000000000000000000000000000000000000",
                    "hash": "0xf8b72816aac6d1646aba47c60d72207d0b5085614105394b16541a064fc11171"
                },
                "transactions": [
                    {
                        "type": "0x03",
                        "chainId": "0x01",
                        "nonce": "0x00",
                        "maxPriorityFeePerGas": "0x00",
                        "maxFeePerGas": "0x07",
                        "gasLimit": "0x4c4b40",
                        "to": "0xd5f25f363591081114bdfb406ca5d462b81f82c1",
                        "value": "0x00",
                        "data": "0x0000000000000000000000000000000000000000000000000000000000000000",
                        "accessList": [],
                        "maxFeePerBlobGas": "0x0a",
                        "blobVersionedHashes": [
                            "0x01b8c5b09810b5fc07355d3da42e2c3a3e200c1d9a678491b7e8e256fc50cc4f",
                            "0x015b4c8cc4f86aa2d2cf9e9ce97fca704a11a6c20f6b1d6c00a6e15f6d60a6df",
                            "0x01878f80eaf10be1a6f618e6f8c071b10a6c14d9b89a3bf2a3f3cf2db6c5681d",
                            "0x014eb72b108d562c639faeb6f8c6f366a28b0381c7d30431117ec8c7bb89f834",
                            "0x01a9b2a6c3f3f0675b768d49b5f5dc5b5d988f88d55766247ba9e40b125f16bb",
                            "0x01a4d4cde4aa01e57fb2c880d1d9c778c33bdf85e48ef4c4d4b4de51abccf4ed"
                        ],
                        "v": "0x00",
                        "r": "0x46917ad85099814aeb14d40f48391e785d05002e374ab982e58726044e0aba19",
                        "s": "0x5b98b0b66e7907a1490657266ab863611ede429f49f8ef9ca06311d38c400cc1",
                        "sender": "0x1ad9bc24818784172ff393bb6f89f094d4d2ca29"
                    },
                    {
                        "type": "0x02",
                        "chainId": "0x01",
                        "nonce": "0x01",
                        "maxPriorityFeePerGas": "0x00",
                        "maxFeePerGas": "0x07",
                        "gasLimit": "0x4c4b40",
                        "to": "0xd5f25f363591081114bdfb406ca5d462b81f82c1",
                        "value": "0x00",
                        "data": "0x0000000000000000000000000000000000000000000000000000000000000000",
                        "accessList": [],
                        "v": "0x00",
                        "r": "0x67bcf1f34a118c08dac8fd912f6a0b8ef0ce02cdab25af9313a6ac82be768c5f",
                        "s": "0x3702185e62e0ba3f40c5673fc949163b1c56f0804dd8afcdad7010a329086509",
                        "sender": "0x1ad9bc24818784172ff393bb6f89f094d4d2ca29"
                    }
                ],
                "uncleHeaders": [],
                "withdrawals": [],
                "receipts": [
                    {
                        "transactionHash": "0x9117e8340017d59128bf569171aaa7a2cb67a14bca0bffd4786d88fc844792ff",
                        "type": "0x03",
                        "cumulativeGasUsed": "0x0258b6",
                        "bloom": "0x00000000000000000000000000000000000000000000000000000000000000000000000000000000000000000000000000000000000000000000000000000000000000000000000000000000000000000000000000000000000000000000000000000000000000000000000000000000000000000000000000000000000000000000000000000000000000000000000000000000000000000000000000000000000000000000000000000000000000000000000000000000000000000000000000000000000000000000000000000000000000000000000000000000000000000000000000000000000000000000000000000000000000000000000000000000",
                        "logs": [],
                        "status": true,
                        "rlp": "0x03f9010901830258b6b9010000000000000000000000000000000000000000000000000000000000000000000000000000000000000000000000000000000000000000000000000000000000000000000000000000000000000000000000000000000000000000000000000000000000000000000000000000000000000000000000000000000000000000000000000000000000000000000000000000000000000000000000000000000000000000000000000000000000000000000000000000000000000000000000000000000000000000000000000000000000000000000000000000000000000000000000000000000000000000000000000000000000000000000000000000000000c0"
                    },
                    {
                        "transactionHash": "0xbd7b0729dbe8631ff0de731d5877d1d7ad75e4e7d962d652d430b8a1656af824",
                        "type": "0x02",
                        "cumulativeGasUsed": "0x02f8a8",
                        "bloom": "0x00000000000000000000000000000000000000000000000000000000000000000000000000000000000000000000000000000000000000000000000000000000000000000000000000000000000000000000000000000000000000000000000000000000000000000000000000000000000000000000000000000000000000000000000000000000000000000000000000000000000000000000000000000000000000000000000000000000000000000000000000000000000000000000000000000000000000000000000000000000000000000000000000000000000000000000000000000000000000000000000000000000000000000000000000000000",
                        "logs": [],
                        "status": true,
                        "rlp": "0x02f90109018302f8a8b9010000000000000000000000000000000000000000000000000000000000000000000000000000000000000000000000000000000000000000000000000000000000000000000000000000000000000000000000000000000000000000000000000000000000000000000000000000000000000000000000000000000000000000000000000000000000000000000000000000000000000000000000000000000000000000000000000000000000000000000000000000000000000000000000000000000000000000000000000000000000000000000000000000000000000000000000000000000000000000000000000000000000000000000000000000000000c0"
                    }
                ],
                "rlp": "0xf9041ff9023ca0972e321e1e2c4ee149d74ca7d8ec469ad8c2cc8259d9e8c7b9ddc79891897f2fa01dcc4de8dec75d7aab85b567b6ccd41ad312451b948a7413f0a142fd40d49347942adc25665018aa1fe0e6bc666dac8fc2697ff9baa0287cdbad7b7c414043a3b7b5626490c702cc1a46c80e5d9a299c4e5ef0fdb8e1a0b0fa55332af73ef292dfc967ca7814b0dcf9de8953115ed79f7ab1135852e540a0f44b62ca500455002c17e676410100f1a6df14862de0691766cb2a9ed3c59dc8b901000000000000000000000000000000000000000000000000000000000000000000000000000000000000000000000000000000000000000000000000000000000000000000000000000000000000000000000000000000000000000000000000000000000000000000000000000000000000000000000000000000000000000000000000000000000000000000000000000000000000000000000000000000000000000000000000000000000000000000000000000000000000000000000000000000000000000000000000000000000000000000000000000000000000000000000000000000000000000000000000000000000000000000000000000000000080018407270e008302f8a80c80a0000000000000000000000000000000000000000000000000000000000000000088000000000000000007a056e81f171bcc55a6ff8345e692c0f86e5b48e01b996cadc001622fb5e363b421830c000080a00000000000000000000000000000000000000000000000000000000000000000f901dbb9015003f9014c01808007834c4b4094d5f25f363591081114bdfb406ca5d462b81f82c180a00000000000000000000000000000000000000000000000000000000000000000c00af8c6a001b8c5b09810b5fc07355d3da42e2c3a3e200c1d9a678491b7e8e256fc50cc4fa0015b4c8cc4f86aa2d2cf9e9ce97fca704a11a6c20f6b1d6c00a6e15f6d60a6dfa001878f80eaf10be1a6f618e6f8c071b10a6c14d9b89a3bf2a3f3cf2db6c5681da0014eb72b108d562c639faeb6f8c6f366a28b0381c7d30431117ec8c7bb89f834a001a9b2a6c3f3f0675b768d49b5f5dc5b5d988f88d55766247ba9e40b125f16bba001a4d4cde4aa01e57fb2c880d1d9c778c33bdf85e48ef4c4d4b4de51abccf4ed80a046917ad85099814aeb14d40f48391e785d05002e374ab982e58726044e0aba19a05b98b0b66e7907a1490657266ab863611ede429f49f8ef9ca06311d38c400cc1b88602f88301018007834c4b4094d5f25f363591081114bdfb406ca5d462b81f82c180a00000000000000000000000000000000000000000000000000000000000000000c080a067bcf1f34a118c08dac8fd912f6a0b8ef0ce02cdab25af9313a6ac82be768c5fa03702185e62e0ba3f40c5673fc949163b1c56f0804dd8afcdad7010a329086509c0c0",
                "blocknumber": "1"
            },
            {
                "blockHeader": {
                    "parentHash": "0xf8b72816aac6d1646aba47c60d72207d0b5085614105394b16541a064fc11171",
                    "uncleHash": "0x1dcc4de8dec75d7aab85b567b6ccd41ad312451b948a7413f0a142fd40d49347",
                    "coinbase": "0x2adc25665018aa1fe0e6bc666dac8fc2697ff9ba",
                    "stateRoot": "0xde7a09a6b5e5fa0cc6bfbb135b4425a1932ab40251eb35cad880085ab56178cf",
                    "transactionsTrie": "0xd354fab0cda886dcd1d06810bf6eca915c7594d8e2458e73abbc34f713319077",
                    "receiptTrie": "0xda5ac010087a7cb6e374f2cda2f2c54242b12da3fc28ef70fffbdce90d262adf",
                    "bloom": "0x00000000000000000000000000000000000000000000000000000000000000000000000000000000000000000000000000000000000000000000000000000000000000000000000000000000000000000000000000000000000000000000000000000000000000000000000000000000000000000000000000000000000000000000000000000000000000000000000000000000000000000000000000000000000000000000000000000000000000000000000000000000000000000000000000000000000000000000000000000000000000000000000000000000000000000000000000000000000000000000000000000000000000000000000000000000",
                    "difficulty": "0x00",
                    "number": "0x02",
                    "gasLimit": "0x07270e00",
                    "gasUsed": "0x02df04",
                    "timestamp": "0x18",
                    "extraData": "0x",
                    "mixHash": "0x0000000000000000000000000000000000000000000000000000000000000000",
                    "nonce": "0x0000000000000000",
                    "baseFeePerGas": "0x07",
                    "withdrawalsRoot": "0x56e81f171bcc55a6ff8345e692c0f86e5b48e01b996cadc001622fb5e363b421",
                    "blobGasUsed": "0x0c0000",
                    "excessBlobGas": "0x060000",
                    "parentBeaconBlockRoot": "0x0000000000000000000000000000000000000000000000000000000000000000",
                    "hash": "0x0d7eaf51eb98adc7fce1b58aa7ca5bbba605ee61599b8296eb8164dda5223f97"
                },
                "transactions": [
                    {
                        "type": "0x02",
                        "chainId": "0x01",
                        "nonce": "0x02",
                        "maxPriorityFeePerGas": "0x00",
                        "maxFeePerGas": "0x07",
                        "gasLimit": "0x4c4b40",
                        "to": "0x68538f951e46fe414c829a084c071cfe6945d42c",
                        "value": "0x00",
                        "data": "0x0000000000000000000000000000000000000000000000000000000000000000",
                        "accessList": [],
                        "v": "0x00",
                        "r": "0xf56c60e1a860ca3282c4d50834d6ca932b2409dcdc523e568e17d88f0bf6bd6a",
                        "s": "0x2ac1940de9ed7d23b69b685bf51b68b8a821161d2c312440870451254b77fb5e",
                        "sender": "0x1ad9bc24818784172ff393bb6f89f094d4d2ca29"
                    },
                    {
                        "type": "0x03",
                        "chainId": "0x01",
                        "nonce": "0x03",
                        "maxPriorityFeePerGas": "0x00",
                        "maxFeePerGas": "0x07",
                        "gasLimit": "0x4c4b40",
                        "to": "0x68538f951e46fe414c829a084c071cfe6945d42c",
                        "value": "0x00",
                        "data": "0x0000000000000000000000000000000000000000000000000000000000000000",
                        "accessList": [],
                        "maxFeePerBlobGas": "0x0a",
                        "blobVersionedHashes": [
                            "0x01b8c5b09810b5fc07355d3da42e2c3a3e200c1d9a678491b7e8e256fc50cc4f",
                            "0x015b4c8cc4f86aa2d2cf9e9ce97fca704a11a6c20f6b1d6c00a6e15f6d60a6df",
                            "0x01878f80eaf10be1a6f618e6f8c071b10a6c14d9b89a3bf2a3f3cf2db6c5681d",
                            "0x014eb72b108d562c639faeb6f8c6f366a28b0381c7d30431117ec8c7bb89f834",
                            "0x01a9b2a6c3f3f0675b768d49b5f5dc5b5d988f88d55766247ba9e40b125f16bb",
                            "0x01a4d4cde4aa01e57fb2c880d1d9c778c33bdf85e48ef4c4d4b4de51abccf4ed"
                        ],
                        "v": "0x00",
                        "r": "0xb03bc68a5c026cce48b9c061b762ba8017b46c77a033b1917e8ce45d59a9c0e8",
                        "s": "0x108e85dbbf5157b3b0a7c50416cff77e0d611ff2c180723c4f069b72448afd91",
                        "sender": "0x1ad9bc24818784172ff393bb6f89f094d4d2ca29"
                    }
                ],
                "uncleHeaders": [],
                "withdrawals": [],
                "receipts": [
                    {
                        "transactionHash": "0x5f1e4ecb138eee7edd5fdf3508de29d27828672381242fab5c909f8138ee31ab",
                        "type": "0x02",
                        "cumulativeGasUsed": "0x864e",
                        "bloom": "0x00000000000000000000000000000000000000000000000000000000000000000000000000000000000000000000000000000000000000000000000000000000000000000000000000000000000000000000000000000000000000000000000000000000000000000000000000000000000000000000000000000000000000000000000000000000000000000000000000000000000000000000000000000000000000000000000000000000000000000000000000000000000000000000000000000000000000000000000000000000000000000000000000000000000000000000000000000000000000000000000000000000000000000000000000000000",
                        "logs": [],
                        "status": true,
                        "rlp": "0x02f901080182864eb9010000000000000000000000000000000000000000000000000000000000000000000000000000000000000000000000000000000000000000000000000000000000000000000000000000000000000000000000000000000000000000000000000000000000000000000000000000000000000000000000000000000000000000000000000000000000000000000000000000000000000000000000000000000000000000000000000000000000000000000000000000000000000000000000000000000000000000000000000000000000000000000000000000000000000000000000000000000000000000000000000000000000000000000000000000000000c0"
                    },
                    {
                        "transactionHash": "0xa87b3ede666e8efd0ebc7286cb694999f75eb67d7d5d0cf359004e35b0999cea",
                        "type": "0x03",
                        "cumulativeGasUsed": "0x02df04",
                        "bloom": "0x00000000000000000000000000000000000000000000000000000000000000000000000000000000000000000000000000000000000000000000000000000000000000000000000000000000000000000000000000000000000000000000000000000000000000000000000000000000000000000000000000000000000000000000000000000000000000000000000000000000000000000000000000000000000000000000000000000000000000000000000000000000000000000000000000000000000000000000000000000000000000000000000000000000000000000000000000000000000000000000000000000000000000000000000000000000",
                        "logs": [],
                        "status": true,
                        "rlp": "0x03f90109018302df04b9010000000000000000000000000000000000000000000000000000000000000000000000000000000000000000000000000000000000000000000000000000000000000000000000000000000000000000000000000000000000000000000000000000000000000000000000000000000000000000000000000000000000000000000000000000000000000000000000000000000000000000000000000000000000000000000000000000000000000000000000000000000000000000000000000000000000000000000000000000000000000000000000000000000000000000000000000000000000000000000000000000000000000000000000000000000000c0"
                    }
                ],
                "rlp": "0xf90422f9023fa0f8b72816aac6d1646aba47c60d72207d0b5085614105394b16541a064fc11171a01dcc4de8dec75d7aab85b567b6ccd41ad312451b948a7413f0a142fd40d49347942adc25665018aa1fe0e6bc666dac8fc2697ff9baa0de7a09a6b5e5fa0cc6bfbb135b4425a1932ab40251eb35cad880085ab56178cfa0d354fab0cda886dcd1d06810bf6eca915c7594d8e2458e73abbc34f713319077a0da5ac010087a7cb6e374f2cda2f2c54242b12da3fc28ef70fffbdce90d262adfb901000000000000000000000000000000000000000000000000000000000000000000000000000000000000000000000000000000000000000000000000000000000000000000000000000000000000000000000000000000000000000000000000000000000000000000000000000000000000000000000000000000000000000000000000000000000000000000000000000000000000000000000000000000000000000000000000000000000000000000000000000000000000000000000000000000000000000000000000000000000000000000000000000000000000000000000000000000000000000000000000000000000000000000000000000000000080028407270e008302df041880a0000000000000000000000000000000000000000000000000000000000000000088000000000000000007a056e81f171bcc55a6ff8345e692c0f86e5b48e01b996cadc001622fb5e363b421830c000083060000a00000000000000000000000000000000000000000000000000000000000000000f901dbb88602f88301028007834c4b409468538f951e46fe414c829a084c071cfe6945d42c80a00000000000000000000000000000000000000000000000000000000000000000c080a0f56c60e1a860ca3282c4d50834d6ca932b2409dcdc523e568e17d88f0bf6bd6aa02ac1940de9ed7d23b69b685bf51b68b8a821161d2c312440870451254b77fb5eb9015003f9014c01038007834c4b409468538f951e46fe414c829a084c071cfe6945d42c80a00000000000000000000000000000000000000000000000000000000000000000c00af8c6a001b8c5b09810b5fc07355d3da42e2c3a3e200c1d9a678491b7e8e256fc50cc4fa0015b4c8cc4f86aa2d2cf9e9ce97fca704a11a6c20f6b1d6c00a6e15f6d60a6dfa001878f80eaf10be1a6f618e6f8c071b10a6c14d9b89a3bf2a3f3cf2db6c5681da0014eb72b108d562c639faeb6f8c6f366a28b0381c7d30431117ec8c7bb89f834a001a9b2a6c3f3f0675b768d49b5f5dc5b5d988f88d55766247ba9e40b125f16bba001a4d4cde4aa01e57fb2c880d1d9c778c33bdf85e48ef4c4d4b4de51abccf4ed80a0b03bc68a5c026cce48b9c061b762ba8017b46c77a033b1917e8ce45d59a9c0e8a0108e85dbbf5157b3b0a7c50416cff77e0d611ff2c180723c4f069b72448afd91c0c0",
                "blocknumber": "2"
            },
            {
                "blockHeader": {
                    "parentHash": "0x0d7eaf51eb98adc7fce1b58aa7ca5bbba605ee61599b8296eb8164dda5223f97",
                    "uncleHash": "0x1dcc4de8dec75d7aab85b567b6ccd41ad312451b948a7413f0a142fd40d49347",
                    "coinbase": "0x2adc25665018aa1fe0e6bc666dac8fc2697ff9ba",
                    "stateRoot": "0x7156007d8f0fab7b63591b885f7f3397950ae296d3cbaa6dfdce749226b32ad8",
                    "transactionsTrie": "0x05e57215dc8ae758527e3943c5394b982dcdd723fa44d73f4712e7358e2f23b6",
                    "receiptTrie": "0xda5ac010087a7cb6e374f2cda2f2c54242b12da3fc28ef70fffbdce90d262adf",
                    "bloom": "0x00000000000000000000000000000000000000000000000000000000000000000000000000000000000000000000000000000000000000000000000000000000000000000000000000000000000000000000000000000000000000000000000000000000000000000000000000000000000000000000000000000000000000000000000000000000000000000000000000000000000000000000000000000000000000000000000000000000000000000000000000000000000000000000000000000000000000000000000000000000000000000000000000000000000000000000000000000000000000000000000000000000000000000000000000000000",
                    "difficulty": "0x00",
                    "number": "0x03",
                    "gasLimit": "0x07270e00",
                    "gasUsed": "0x02df04",
                    "timestamp": "0x24",
                    "extraData": "0x",
                    "mixHash": "0x0000000000000000000000000000000000000000000000000000000000000000",
                    "nonce": "0x0000000000000000",
                    "baseFeePerGas": "0x07",
                    "withdrawalsRoot": "0x56e81f171bcc55a6ff8345e692c0f86e5b48e01b996cadc001622fb5e363b421",
                    "blobGasUsed": "0x0c0000",
                    "excessBlobGas": "0x0c0000",
                    "parentBeaconBlockRoot": "0x0000000000000000000000000000000000000000000000000000000000000000",
                    "hash": "0xf8e4d05645a22abd183e8bb9b85e84bff1fc9f4550303c94097f2e3eaa659314"
                },
                "transactions": [
                    {
                        "type": "0x02",
                        "chainId": "0x01",
                        "nonce": "0x04",
                        "maxPriorityFeePerGas": "0x00",
                        "maxFeePerGas": "0x07",
                        "gasLimit": "0x4c4b40",
                        "to": "0xbccd931dd3a7da0f120f39cd8c278f21d66219e1",
                        "value": "0x00",
                        "data": "0x0000000000000000000000000000000000000000000000000000000000000000",
                        "accessList": [],
                        "v": "0x00",
                        "r": "0xf2fb416079f3b3bb18f97b6f066fd6992867841dc556f3388ff44ba705ee536e",
                        "s": "0x45c932c64aa22e1bcd26b86c00c1c3ba8ba34c687b720925c41a9a354a6e68db",
                        "sender": "0x1ad9bc24818784172ff393bb6f89f094d4d2ca29"
                    },
                    {
                        "type": "0x03",
                        "chainId": "0x01",
                        "nonce": "0x05",
                        "maxPriorityFeePerGas": "0x00",
                        "maxFeePerGas": "0x07",
                        "gasLimit": "0x4c4b40",
                        "to": "0xc71a19e76b707e4ceb5f2c906e7f865f3124736b",
                        "value": "0x00",
                        "data": "0x0000000000000000000000000000000000000000000000000000000000000000",
                        "accessList": [],
                        "maxFeePerBlobGas": "0x0a",
                        "blobVersionedHashes": [
                            "0x01b8c5b09810b5fc07355d3da42e2c3a3e200c1d9a678491b7e8e256fc50cc4f",
                            "0x015b4c8cc4f86aa2d2cf9e9ce97fca704a11a6c20f6b1d6c00a6e15f6d60a6df",
                            "0x01878f80eaf10be1a6f618e6f8c071b10a6c14d9b89a3bf2a3f3cf2db6c5681d",
                            "0x014eb72b108d562c639faeb6f8c6f366a28b0381c7d30431117ec8c7bb89f834",
                            "0x01a9b2a6c3f3f0675b768d49b5f5dc5b5d988f88d55766247ba9e40b125f16bb",
                            "0x01a4d4cde4aa01e57fb2c880d1d9c778c33bdf85e48ef4c4d4b4de51abccf4ed"
                        ],
                        "v": "0x00",
                        "r": "0x3e8303c45cdf47625b255e8abcc6b905f6b6875f33af3d0f376c02bd4bb55556",
                        "s": "0x37a8f798422219d73e700eb09dae5c80a5a83cefde367b5d6438544e2af426ba",
                        "sender": "0x1ad9bc24818784172ff393bb6f89f094d4d2ca29"
                    }
                ],
                "uncleHeaders": [],
                "withdrawals": [],
                "receipts": [
                    {
                        "transactionHash": "0xc2926590923d283ea0a104db00a0897b553ab6e6b65bb529ef71f20882676b39",
                        "type": "0x02",
                        "cumulativeGasUsed": "0x864e",
                        "bloom": "0x00000000000000000000000000000000000000000000000000000000000000000000000000000000000000000000000000000000000000000000000000000000000000000000000000000000000000000000000000000000000000000000000000000000000000000000000000000000000000000000000000000000000000000000000000000000000000000000000000000000000000000000000000000000000000000000000000000000000000000000000000000000000000000000000000000000000000000000000000000000000000000000000000000000000000000000000000000000000000000000000000000000000000000000000000000000",
                        "logs": [],
                        "status": true,
                        "rlp": "0x02f901080182864eb9010000000000000000000000000000000000000000000000000000000000000000000000000000000000000000000000000000000000000000000000000000000000000000000000000000000000000000000000000000000000000000000000000000000000000000000000000000000000000000000000000000000000000000000000000000000000000000000000000000000000000000000000000000000000000000000000000000000000000000000000000000000000000000000000000000000000000000000000000000000000000000000000000000000000000000000000000000000000000000000000000000000000000000000000000000000000c0"
                    },
                    {
                        "transactionHash": "0x6011c31ea5ee0d4c0af9ca65996e2bc6dbc1864565742ecd5001ab8bf2cc3109",
                        "type": "0x03",
                        "cumulativeGasUsed": "0x02df04",
                        "bloom": "0x00000000000000000000000000000000000000000000000000000000000000000000000000000000000000000000000000000000000000000000000000000000000000000000000000000000000000000000000000000000000000000000000000000000000000000000000000000000000000000000000000000000000000000000000000000000000000000000000000000000000000000000000000000000000000000000000000000000000000000000000000000000000000000000000000000000000000000000000000000000000000000000000000000000000000000000000000000000000000000000000000000000000000000000000000000000",
                        "logs": [],
                        "status": true,
                        "rlp": "0x03f90109018302df04b9010000000000000000000000000000000000000000000000000000000000000000000000000000000000000000000000000000000000000000000000000000000000000000000000000000000000000000000000000000000000000000000000000000000000000000000000000000000000000000000000000000000000000000000000000000000000000000000000000000000000000000000000000000000000000000000000000000000000000000000000000000000000000000000000000000000000000000000000000000000000000000000000000000000000000000000000000000000000000000000000000000000000000000000000000000000000c0"
                    }
                ],
                "rlp": "0xf90422f9023fa00d7eaf51eb98adc7fce1b58aa7ca5bbba605ee61599b8296eb8164dda5223f97a01dcc4de8dec75d7aab85b567b6ccd41ad312451b948a7413f0a142fd40d49347942adc25665018aa1fe0e6bc666dac8fc2697ff9baa07156007d8f0fab7b63591b885f7f3397950ae296d3cbaa6dfdce749226b32ad8a005e57215dc8ae758527e3943c5394b982dcdd723fa44d73f4712e7358e2f23b6a0da5ac010087a7cb6e374f2cda2f2c54242b12da3fc28ef70fffbdce90d262adfb901000000000000000000000000000000000000000000000000000000000000000000000000000000000000000000000000000000000000000000000000000000000000000000000000000000000000000000000000000000000000000000000000000000000000000000000000000000000000000000000000000000000000000000000000000000000000000000000000000000000000000000000000000000000000000000000000000000000000000000000000000000000000000000000000000000000000000000000000000000000000000000000000000000000000000000000000000000000000000000000000000000000000000000000000000000000080038407270e008302df042480a0000000000000000000000000000000000000000000000000000000000000000088000000000000000007a056e81f171bcc55a6ff8345e692c0f86e5b48e01b996cadc001622fb5e363b421830c0000830c0000a00000000000000000000000000000000000000000000000000000000000000000f901dbb88602f88301048007834c4b4094bccd931dd3a7da0f120f39cd8c278f21d66219e180a00000000000000000000000000000000000000000000000000000000000000000c080a0f2fb416079f3b3bb18f97b6f066fd6992867841dc556f3388ff44ba705ee536ea045c932c64aa22e1bcd26b86c00c1c3ba8ba34c687b720925c41a9a354a6e68dbb9015003f9014c01058007834c4b4094c71a19e76b707e4ceb5f2c906e7f865f3124736b80a00000000000000000000000000000000000000000000000000000000000000000c00af8c6a001b8c5b09810b5fc07355d3da42e2c3a3e200c1d9a678491b7e8e256fc50cc4fa0015b4c8cc4f86aa2d2cf9e9ce97fca704a11a6c20f6b1d6c00a6e15f6d60a6dfa001878f80eaf10be1a6f618e6f8c071b10a6c14d9b89a3bf2a3f3cf2db6c5681da0014eb72b108d562c639faeb6f8c6f366a28b0381c7d30431117ec8c7bb89f834a001a9b2a6c3f3f0675b768d49b5f5dc5b5d988f88d55766247ba9e40b125f16bba001a4d4cde4aa01e57fb2c880d1d9c778c33bdf85e48ef4c4d4b4de51abccf4ed80a03e8303c45cdf47625b255e8abcc6b905f6b6875f33af3d0f376c02bd4bb55556a037a8f798422219d73e700eb09dae5c80a5a83cefde367b5d6438544e2af426bac0c0",
                "blocknumber": "3"
            }
        ],
        "sealEngine": "NoProof",
        "_info": {
            "hash": "0x791721dc1fa581c3c1d10e59883abdc97eb8687b372c28016579af8f56006608",
            "fixture-format": "blockchain_test",
            "comment": "`execution-specs` generated test",
            "filling-transition-tool": "2.19.0",
            "description": "Tests that the `BLOBHASH` opcode returns the appropriate values when there\nis more than 1 blob tx type within a block (for tx types 2 and 3).\n\nScenarios involve tx type 3 followed by tx type 2 running the same code\nwithin a block, including the opposite.",
            "url": "https://github.com/ethereum/execution-specs/blob/tests-bal@v5.3.0/tests/cancun/eip4844_blobs/test_blobhash_opcode.py#L375",
            "opcode_count": {},
            "reference-spec": "https://github.com/ethereum/EIPs/blob/master/EIPS/eip-4844.md",
            "reference-spec-version": "de2e4a46ad93fc04e6fe3174dc6e90a3307bdb5f"
        }
    }
}