{
    "tests/ported_static/stZeroCallsTest/test_zero_value_delegatecall_to_non_zero_balance.py::test_zero_value_delegatecall_to_non_zero_balance[fork_Cancun-blockchain_test_from_state_test]": {
        "network": "Cancun",
        "genesisBlockHeader": {
            "parentHash": "0x0000000000000000000000000000000000000000000000000000000000000000",
            "uncleHash": "0x1dcc4de8dec75d7aab85b567b6ccd41ad312451b948a7413f0a142fd40d49347",
            "coinbase": "0x0000000000000000000000000000000000000000",
            "stateRoot": "0x4d831b2aa800b3067ccca4e326d35159f22ceae5b2d2a6eed5f6de3ead293c87",
            "transactionsTrie": "0x56e81f171bcc55a6ff8345e692c0f86e5b48e01b996cadc001622fb5e363b421",
            "receiptTrie": "0x56e81f171bcc55a6ff8345e692c0f86e5b48e01b996cadc001622fb5e363b421",
            "bloom": "0x00000000000000000000000000000000000000000000000000000000000000000000000000000000000000000000000000000000000000000000000000000000000000000000000000000000000000000000000000000000000000000000000000000000000000000000000000000000000000000000000000000000000000000000000000000000000000000000000000000000000000000000000000000000000000000000000000000000000000000000000000000000000000000000000000000000000000000000000000000000000000000000000000000000000000000000000000000000000000000000000000000000000000000000000000000000",
            "difficulty": "0x00",
            "number": "0x00",
            "gasLimit": "0x989680",
            "gasUsed": "0x00",
            "timestamp": "0x00",
            "extraData": "0x00",
            "mixHash": "0x0000000000000000000000000000000000000000000000000000000000000000",
            "nonce": "0x0000000000000000",
            "baseFeePerGas": "0x0b",
            "withdrawalsRoot": "0x56e81f171bcc55a6ff8345e692c0f86e5b48e01b996cadc001622fb5e363b421",
            "blobGasUsed": "0x00",
            "excessBlobGas": "0x00",
            "parentBeaconBlockRoot": "0x0000000000000000000000000000000000000000000000000000000000000000",
            "hash": "0x2880590de8c81355c84ad57835fe8fe6fcb3b2eb29544b584d4acbe82a1c9f31"
        },
        "pre": {
            "0x000f3df6d732807ef1319fb7b8bb8522d0beac02": {
                "nonce": "0x01",
                "balance": "0x00",
                "code": "0x3373fffffffffffffffffffffffffffffffffffffffe14604d57602036146024575f5ffd5b5f35801560495762001fff810690815414603c575f5ffd5b62001fff01545f5260205ff35b5f5ffd5b62001fff42064281555f359062001fff015500",
                "storage": {}
            },
            "0xd719ccdb2301950b0a0bdf09a2bb1d5f8b225f6f": {
                "nonce": "0x00",
                "balance": "0xe8d4a51000",
                "code": "0x",
                "storage": {}
            },
            "0xffc67f2969f9d462fd69c1d08c291c85e3cc6f51": {
                "nonce": "0x00",
                "balance": "0x64",
                "code": "0x",
                "storage": {}
            },
            "0xec7a77a6610c69079b5f99ce8df8cff82a8e8999": {
                "nonce": "0x00",
                "balance": "0x00",
                "code": "0x5a600055600060006000600073ffc67f2969f9d462fd69c1d08c291c85e3cc6f5161ea60f4600155600160645500",
                "storage": {}
            }
        },
        "postState": {
            "0x000f3df6d732807ef1319fb7b8bb8522d0beac02": {
                "nonce": "0x01",
                "balance": "0x00",
                "code": "0x3373fffffffffffffffffffffffffffffffffffffffe14604d57602036146024575f5ffd5b5f35801560495762001fff810690815414603c575f5ffd5b62001fff01545f5260205ff35b5f5ffd5b62001fff42064281555f359062001fff015500",
                "storage": {
                    "0x03e8": "0x03e8"
                }
            },
            "0xd719ccdb2301950b0a0bdf09a2bb1d5f8b225f6f": {
                "nonce": "0x01",
                "balance": "0xe8d4975708",
                "code": "0x",
                "storage": {}
            },
            "0xffc67f2969f9d462fd69c1d08c291c85e3cc6f51": {
                "nonce": "0x00",
                "balance": "0x64",
                "code": "0x",
                "storage": {}
            },
            "0xec7a77a6610c69079b5f99ce8df8cff82a8e8999": {
                "nonce": "0x00",
                "balance": "0x00",
                "code": "0x5a600055600060006000600073ffc67f2969f9d462fd69c1d08c291c85e3cc6f5161ea60f4600155600160645500",
                "storage": {
                    "0x00": "0x08d5b6",
                    "0x01": "0x01",
                    "0x64": "0x01"
                }
            }
        },
        "lastblockhash": "0xcdb00fb4b09e7eb93cfee8a24dd54f1f9dd10d06c6f4b7eb6db399a4ad2f886d",
        "config": {
            "network": "Cancun",
            "chainid": "0x01",
            "blobSchedule": {
                "Cancun": {
                    "target": "0x03",
                    "max": "0x06",
                    "baseFeeUpdateFraction": "0x32f0ed"
                }
            }
        },
        "genesisRLP": "0xf9023bf90235a00000000000000000000000000000000000000000000000000000000000000000a01dcc4de8dec75d7aab85b567b6ccd41ad312451b948a7413f0a142fd40d49347940000000000000000000000000000000000000000a04d831b2aa800b3067ccca4e326d35159f22ceae5b2d2a6eed5f6de3ead293c87a056e81f171bcc55a6ff8345e692c0f86e5b48e01b996cadc001622fb5e363b421a056e81f171bcc55a6ff8345e692c0f86e5b48e01b996cadc001622fb5e363b421b9010000000000000000000000000000000000000000000000000000000000000000000000000000000000000000000000000000000000000000000000000000000000000000000000000000000000000000000000000000000000000000000000000000000000000000000000000000000000000000000000000000000000000000000000000000000000000000000000000000000000000000000000000000000000000000000000000000000000000000000000000000000000000000000000000000000000000000000000000000000000000000000000000000000000000000000000000000000000000000000000000000000000000000000000000000000000808083989680808000a000000000000000000000000000000000000000000000000000000000000000008800000000000000000ba056e81f171bcc55a6ff8345e692c0f86e5b48e01b996cadc001622fb5e363b4218080a00000000000000000000000000000000000000000000000000000000000000000c0c0c0",
        "blocks": [
            {
                "blockHeader": {
                    "parentHash": "0x2880590de8c81355c84ad57835fe8fe6fcb3b2eb29544b584d4acbe82a1c9f31",
                    "uncleHash": "0x1dcc4de8dec75d7aab85b567b6ccd41ad312451b948a7413f0a142fd40d49347",
                    "coinbase": "0x2adc25665018aa1fe0e6bc666dac8fc2697ff9ba",
                    "stateRoot": "0x68e34565ec7e6ad10c13722af03372d137b9fc0ea4a62237bd73df8d4cd1f327",
                    "transactionsTrie": "0xa962d6a7f89273031983af55124484a56b851bd3b9f2ca75f58ac54a2d4c562b",
                    "receiptTrie": "0x9ff8401ad3f5114be6357b9ed3a9edfdf264ee6908b1d62f55948f8c6c9fc4f3",
                    "bloom": "0x00000000000000000000000000000000000000000000000000000000000000000000000000000000000000000000000000000000000000000000000000000000000000000000000000000000000000000000000000000000000000000000000000000000000000000000000000000000000000000000000000000000000000000000000000000000000000000000000000000000000000000000000000000000000000000000000000000000000000000000000000000000000000000000000000000000000000000000000000000000000000000000000000000000000000000000000000000000000000000000000000000000000000000000000000000000",
                    "difficulty": "0x00",
                    "number": "0x01",
                    "gasLimit": "0x989680",
                    "gasUsed": "0x015f4c",
                    "timestamp": "0x03e8",
                    "extraData": "0x00",
                    "mixHash": "0x0000000000000000000000000000000000000000000000000000000000020000",
                    "nonce": "0x0000000000000000",
                    "baseFeePerGas": "0x0a",
                    "withdrawalsRoot": "0x56e81f171bcc55a6ff8345e692c0f86e5b48e01b996cadc001622fb5e363b421",
                    "blobGasUsed": "0x00",
                    "excessBlobGas": "0x00",
                    "parentBeaconBlockRoot": "0x0000000000000000000000000000000000000000000000000000000000000000",
                    "hash": "0xcdb00fb4b09e7eb93cfee8a24dd54f1f9dd10d06c6f4b7eb6db399a4ad2f886d"
                },
                "transactions": [
                    {
                        "type": "0x00",
                        "chainId": "0x01",
                        "nonce": "0x00",
                        "gasPrice": "0x0a",
                        "gasLimit": "0x0927c0",
                        "to": "0xec7a77a6610c69079b5f99ce8df8cff82a8e8999",
                        "value": "0x00",
                        "data": "0x",
                        "v": "0x25",
                        "r": "0xcb1f42ba10451d1bcd46c65746b43430204683120b34bbdfffdab41a134782bf",
                        "s": "0x34ac365eacf43dc975f2d97950af2ae8d56181dd83f6423367be554d37717f4c",
                        "sender": "0xd719ccdb2301950b0a0bdf09a2bb1d5f8b225f6f"
                    }
                ],
                "uncleHeaders": [],
                "withdrawals": [],
                "receipts": [
                    {
                        "transactionHash": "0x094db9b780c0d9ccdbf6364ac2a69773ba541e8e9b01e48d02bb0a774a6f2a6b",
                        "type": "0x00",
                        "cumulativeGasUsed": "0x015f4c",
                        "bloom": "0x00000000000000000000000000000000000000000000000000000000000000000000000000000000000000000000000000000000000000000000000000000000000000000000000000000000000000000000000000000000000000000000000000000000000000000000000000000000000000000000000000000000000000000000000000000000000000000000000000000000000000000000000000000000000000000000000000000000000000000000000000000000000000000000000000000000000000000000000000000000000000000000000000000000000000000000000000000000000000000000000000000000000000000000000000000000",
                        "logs": [],
                        "status": true,
                        "rlp": "0xf901090183015f4cb9010000000000000000000000000000000000000000000000000000000000000000000000000000000000000000000000000000000000000000000000000000000000000000000000000000000000000000000000000000000000000000000000000000000000000000000000000000000000000000000000000000000000000000000000000000000000000000000000000000000000000000000000000000000000000000000000000000000000000000000000000000000000000000000000000000000000000000000000000000000000000000000000000000000000000000000000000000000000000000000000000000000000000000000000000000000000c0"
                    }
                ],
                "rlp": "0xf902a3f9023aa02880590de8c81355c84ad57835fe8fe6fcb3b2eb29544b584d4acbe82a1c9f31a01dcc4de8dec75d7aab85b567b6ccd41ad312451b948a7413f0a142fd40d49347942adc25665018aa1fe0e6bc666dac8fc2697ff9baa068e34565ec7e6ad10c13722af03372d137b9fc0ea4a62237bd73df8d4cd1f327a0a962d6a7f89273031983af55124484a56b851bd3b9f2ca75f58ac54a2d4c562ba09ff8401ad3f5114be6357b9ed3a9edfdf264ee6908b1d62f55948f8c6c9fc4f3b901000000000000000000000000000000000000000000000000000000000000000000000000000000000000000000000000000000000000000000000000000000000000000000000000000000000000000000000000000000000000000000000000000000000000000000000000000000000000000000000000000000000000000000000000000000000000000000000000000000000000000000000000000000000000000000000000000000000000000000000000000000000000000000000000000000000000000000000000000000000000000000000000000000000000000000000000000000000000000000000000000000000000000000000000000000000080018398968083015f4c8203e800a000000000000000000000000000000000000000000000000000000000000200008800000000000000000aa056e81f171bcc55a6ff8345e692c0f86e5b48e01b996cadc001622fb5e363b4218080a00000000000000000000000000000000000000000000000000000000000000000f862f860800a830927c094ec7a77a6610c69079b5f99ce8df8cff82a8e8999808025a0cb1f42ba10451d1bcd46c65746b43430204683120b34bbdfffdab41a134782bfa034ac365eacf43dc975f2d97950af2ae8d56181dd83f6423367be554d37717f4cc0c0",
                "blocknumber": "1"
            }
        ],
        "sealEngine": "NoProof",
        "_info": {
            "hash": "0xaef49a4f789efe3a4bd2a2199393dbc2e6d695819413de6b90c4f23992fbae89",
            "fixture-format": "blockchain_test",
            "comment": "`execution-specs` generated test",
            "filling-transition-tool": "2.19.0",
            "description": "Test_zero_value_delegatecall_to_non_zero_balance.",
            "url": "https://github.com/ethereum/execution-specs/blob/tests-snobal-devnet-5@v8037.0.0/tests/ported_static/stZeroCallsTest/test_zero_value_delegatecall_to_non_zero_balance.py#L24",
            "metadata": {
                "opcode_count": {}
            }
        }
    }
}