{
    "tests/ported_static/stEIP3607/test_transaction_colliding_with_non_empty_account_calls.py::test_transaction_colliding_with_non_empty_account_calls[fork_Cancun-blockchain_test_from_state_test]": {
        "network": "Cancun",
        "genesisBlockHeader": {
            "parentHash": "0x0000000000000000000000000000000000000000000000000000000000000000",
            "uncleHash": "0x1dcc4de8dec75d7aab85b567b6ccd41ad312451b948a7413f0a142fd40d49347",
            "coinbase": "0x0000000000000000000000000000000000000000",
            "stateRoot": "0x9a5f1a7eec0d6a7a8c46b5a337bda8a8d299234ac932e4c74a6c5d6417a79347",
            "transactionsTrie": "0x56e81f171bcc55a6ff8345e692c0f86e5b48e01b996cadc001622fb5e363b421",
            "receiptTrie": "0x56e81f171bcc55a6ff8345e692c0f86e5b48e01b996cadc001622fb5e363b421",
            "bloom": "0x00000000000000000000000000000000000000000000000000000000000000000000000000000000000000000000000000000000000000000000000000000000000000000000000000000000000000000000000000000000000000000000000000000000000000000000000000000000000000000000000000000000000000000000000000000000000000000000000000000000000000000000000000000000000000000000000000000000000000000000000000000000000000000000000000000000000000000000000000000000000000000000000000000000000000000000000000000000000000000000000000000000000000000000000000000000",
            "difficulty": "0x00",
            "number": "0x00",
            "gasLimit": "0xff112233445566",
            "gasUsed": "0x00",
            "timestamp": "0x00",
            "extraData": "0x00",
            "mixHash": "0x0000000000000000000000000000000000000000000000000000000000000000",
            "nonce": "0x0000000000000000",
            "baseFeePerGas": "0x0b",
            "withdrawalsRoot": "0x56e81f171bcc55a6ff8345e692c0f86e5b48e01b996cadc001622fb5e363b421",
            "blobGasUsed": "0x00",
            "excessBlobGas": "0x00",
            "parentBeaconBlockRoot": "0x0000000000000000000000000000000000000000000000000000000000000000",
            "hash": "0x633dd008fda9ac6fadf10007ac5670b94a7730fd3ce01e3176badef090a1429b"
        },
        "pre": {
            "0x000f3df6d732807ef1319fb7b8bb8522d0beac02": {
                "nonce": "0x01",
                "balance": "0x00",
                "code": "0x3373fffffffffffffffffffffffffffffffffffffffe14604d57602036146024575f5ffd5b5f35801560495762001fff810690815414603c575f5ffd5b62001fff01545f5260205ff35b5f5ffd5b62001fff42064281555f359062001fff015500",
                "storage": {}
            },
            "0xeb201d2887816e041f6e807e804f64f3a7a226fe": {
                "nonce": "0x01",
                "balance": "0x00",
                "code": "0x",
                "storage": {}
            },
            "0x2822eae5589c28b202c5ab4c9e07fb69edc8e65a": {
                "nonce": "0x00",
                "balance": "0x0de0b6b3a7640000",
                "code": "0x6000600155",
                "storage": {}
            },
            "0xd857dad5866e190fd86b79f027fb8ee8e60fbda7": {
                "nonce": "0x00",
                "balance": "0x00",
                "code": "0x6000600155",
                "storage": {}
            }
        },
        "postState": {
            "0x000f3df6d732807ef1319fb7b8bb8522d0beac02": {
                "nonce": "0x01",
                "balance": "0x00",
                "code": "0x3373fffffffffffffffffffffffffffffffffffffffe14604d57602036146024575f5ffd5b5f35801560495762001fff810690815414603c575f5ffd5b62001fff01545f5260205ff35b5f5ffd5b62001fff42064281555f359062001fff015500",
                "storage": {}
            },
            "0xeb201d2887816e041f6e807e804f64f3a7a226fe": {
                "nonce": "0x01",
                "balance": "0x00",
                "code": "0x",
                "storage": {}
            },
            "0x2822eae5589c28b202c5ab4c9e07fb69edc8e65a": {
                "nonce": "0x00",
                "balance": "0x0de0b6b3a7640000",
                "code": "0x6000600155",
                "storage": {}
            },
            "0xd857dad5866e190fd86b79f027fb8ee8e60fbda7": {
                "nonce": "0x00",
                "balance": "0x00",
                "code": "0x6000600155",
                "storage": {}
            }
        },
        "lastblockhash": "0x633dd008fda9ac6fadf10007ac5670b94a7730fd3ce01e3176badef090a1429b",
        "config": {
            "network": "Cancun",
            "chainid": "0x01",
            "blobSchedule": {
                "Cancun": {
                    "target": "0x03",
                    "max": "0x06",
                    "baseFeeUpdateFraction": "0x32f0ed"
                }
            }
        },
        "genesisRLP": "0xf9023ff90239a00000000000000000000000000000000000000000000000000000000000000000a01dcc4de8dec75d7aab85b567b6ccd41ad312451b948a7413f0a142fd40d49347940000000000000000000000000000000000000000a09a5f1a7eec0d6a7a8c46b5a337bda8a8d299234ac932e4c74a6c5d6417a79347a056e81f171bcc55a6ff8345e692c0f86e5b48e01b996cadc001622fb5e363b421a056e81f171bcc55a6ff8345e692c0f86e5b48e01b996cadc001622fb5e363b421b9010000000000000000000000000000000000000000000000000000000000000000000000000000000000000000000000000000000000000000000000000000000000000000000000000000000000000000000000000000000000000000000000000000000000000000000000000000000000000000000000000000000000000000000000000000000000000000000000000000000000000000000000000000000000000000000000000000000000000000000000000000000000000000000000000000000000000000000000000000000000000000000000000000000000000000000000000000000000000000000000000000000000000000000000000000000000808087ff112233445566808000a000000000000000000000000000000000000000000000000000000000000000008800000000000000000ba056e81f171bcc55a6ff8345e692c0f86e5b48e01b996cadc001622fb5e363b4218080a00000000000000000000000000000000000000000000000000000000000000000c0c0c0",
        "blocks": [
            {
                "rlp": "0xf902a7f9023ba0633dd008fda9ac6fadf10007ac5670b94a7730fd3ce01e3176badef090a1429ba01dcc4de8dec75d7aab85b567b6ccd41ad312451b948a7413f0a142fd40d4934794eb201d2887816e041f6e807e804f64f3a7a226fea09b471b6e2db8cb39d3eb93c5051336619a9430ae118e2672561c5f5dfcdddca6a0ef37de429cbc8d4d7d5b9540712323a6ed8e26610e649d8b5b48c7a80a547e55a056e81f171bcc55a6ff8345e692c0f86e5b48e01b996cadc001622fb5e363b421b9010000000000000000000000000000000000000000000000000000000000000000000000000000000000000000000000000000000000000000000000000000000000000000000000000000000000000000000000000000000000000000000000000000000000000000000000000000000000000000000000000000000000000000000000000000000000000000000000000000000000000000000000000000000000000000000000000000000000000000000000000000000000000000000000000000000000000000000000000000000000000000000000000000000000000000000000000000000000000000000000000000000000000000000000000000000000800187ff112233445566808203e800a000000000000000000000000000000000000000000000000000000000000200008800000000000000000aa056e81f171bcc55a6ff8345e692c0f86e5b48e01b996cadc001622fb5e363b4218080a00000000000000000000000000000000000000000000000000000000000000000f865f863800a83061a8094d857dad5866e190fd86b79f027fb8ee8e60fbda7830186a08025a0470659a3f6fb674e5584a36e41537315b8d4180912a4ba6579c0aeb1922ae466a059e9d6071291019b2f5cfbd9791f8364de1ff340422733b7ae9df5fc1a2d2591c0c0",
                "expectException": "TransactionException.SENDER_NOT_EOA",
                "rlp_decoded": {
                    "blockHeader": {
                        "parentHash": "0x633dd008fda9ac6fadf10007ac5670b94a7730fd3ce01e3176badef090a1429b",
                        "uncleHash": "0x1dcc4de8dec75d7aab85b567b6ccd41ad312451b948a7413f0a142fd40d49347",
                        "coinbase": "0xeb201d2887816e041f6e807e804f64f3a7a226fe",
                        "stateRoot": "0x9b471b6e2db8cb39d3eb93c5051336619a9430ae118e2672561c5f5dfcdddca6",
                        "transactionsTrie": "0xef37de429cbc8d4d7d5b9540712323a6ed8e26610e649d8b5b48c7a80a547e55",
                        "receiptTrie": "0x56e81f171bcc55a6ff8345e692c0f86e5b48e01b996cadc001622fb5e363b421",
                        "bloom": "0x00000000000000000000000000000000000000000000000000000000000000000000000000000000000000000000000000000000000000000000000000000000000000000000000000000000000000000000000000000000000000000000000000000000000000000000000000000000000000000000000000000000000000000000000000000000000000000000000000000000000000000000000000000000000000000000000000000000000000000000000000000000000000000000000000000000000000000000000000000000000000000000000000000000000000000000000000000000000000000000000000000000000000000000000000000000",
                        "difficulty": "0x00",
                        "number": "0x01",
                        "gasLimit": "0xff112233445566",
                        "gasUsed": "0x00",
                        "timestamp": "0x03e8",
                        "extraData": "0x00",
                        "mixHash": "0x0000000000000000000000000000000000000000000000000000000000020000",
                        "nonce": "0x0000000000000000",
                        "baseFeePerGas": "0x0a",
                        "withdrawalsRoot": "0x56e81f171bcc55a6ff8345e692c0f86e5b48e01b996cadc001622fb5e363b421",
                        "blobGasUsed": "0x00",
                        "excessBlobGas": "0x00",
                        "parentBeaconBlockRoot": "0x0000000000000000000000000000000000000000000000000000000000000000",
                        "hash": "0xa4761e570a3c29815498f9de13f40d3d4b9e510ff613c0ca46c6695515694926"
                    },
                    "transactions": [
                        {
                            "type": "0x00",
                            "chainId": "0x01",
                            "nonce": "0x00",
                            "gasPrice": "0x0a",
                            "gasLimit": "0x061a80",
                            "to": "0xd857dad5866e190fd86b79f027fb8ee8e60fbda7",
                            "value": "0x0186a0",
                            "data": "0x",
                            "v": "0x25",
                            "r": "0x470659a3f6fb674e5584a36e41537315b8d4180912a4ba6579c0aeb1922ae466",
                            "s": "0x59e9d6071291019b2f5cfbd9791f8364de1ff340422733b7ae9df5fc1a2d2591",
                            "sender": "0x2822eae5589c28b202c5ab4c9e07fb69edc8e65a"
                        }
                    ],
                    "uncleHeaders": [],
                    "withdrawals": [],
                    "blocknumber": "1"
                }
            }
        ],
        "sealEngine": "NoProof",
        "_info": {
            "hash": "0x284be793ce414d246b9296c1dff91163a1ae205017109920cbb452675d616e4c",
            "fixture-format": "blockchain_test",
            "comment": "`execution-specs` generated test",
            "filling-transition-tool": "2.19.0",
            "description": "Account with non-empty code attempts to send tx to call a contract.",
            "url": "https://github.com/ethereum/execution-specs/blob/tests-sn\u00f8bal-devnet-4@v1.0.0/tests/ported_static/stEIP3607/test_transaction_colliding_with_non_empty_account_calls.py#L26",
            "metadata": {
                "opcode_count": {}
            },
            "reference-spec": "https://github.com/ethereum/EIPs/blob/master/N/A",
            "reference-spec-version": "N/A"
        }
    }
}