{
    "tests/ported_static/stStaticCall/test_static_callcall_00.py::test_static_callcall_00[fork_Cancun-blockchain_test_from_state_test-d0]": {
        "network": "Cancun",
        "genesisBlockHeader": {
            "parentHash": "0x0000000000000000000000000000000000000000000000000000000000000000",
            "uncleHash": "0x1dcc4de8dec75d7aab85b567b6ccd41ad312451b948a7413f0a142fd40d49347",
            "coinbase": "0x0000000000000000000000000000000000000000",
            "stateRoot": "0x70d9f86405f135d6e5419ba595e71d1be8a907735bb2e58eac4098a03d91ccab",
            "transactionsTrie": "0x56e81f171bcc55a6ff8345e692c0f86e5b48e01b996cadc001622fb5e363b421",
            "receiptTrie": "0x56e81f171bcc55a6ff8345e692c0f86e5b48e01b996cadc001622fb5e363b421",
            "bloom": "0x00000000000000000000000000000000000000000000000000000000000000000000000000000000000000000000000000000000000000000000000000000000000000000000000000000000000000000000000000000000000000000000000000000000000000000000000000000000000000000000000000000000000000000000000000000000000000000000000000000000000000000000000000000000000000000000000000000000000000000000000000000000000000000000000000000000000000000000000000000000000000000000000000000000000000000000000000000000000000000000000000000000000000000000000000000000",
            "difficulty": "0x00",
            "number": "0x00",
            "gasLimit": "0x01c9c380",
            "gasUsed": "0x00",
            "timestamp": "0x00",
            "extraData": "0x00",
            "mixHash": "0x0000000000000000000000000000000000000000000000000000000000000000",
            "nonce": "0x0000000000000000",
            "baseFeePerGas": "0x0b",
            "withdrawalsRoot": "0x56e81f171bcc55a6ff8345e692c0f86e5b48e01b996cadc001622fb5e363b421",
            "blobGasUsed": "0x00",
            "excessBlobGas": "0x00",
            "parentBeaconBlockRoot": "0x0000000000000000000000000000000000000000000000000000000000000000",
            "hash": "0xb71773d9a254fced3dd3107c7616363e8470f8e2b84c0044cd810177b52d4f7c"
        },
        "pre": {
            "0x000f3df6d732807ef1319fb7b8bb8522d0beac02": {
                "nonce": "0x01",
                "balance": "0x00",
                "code": "0x3373fffffffffffffffffffffffffffffffffffffffe14604d57602036146024575f5ffd5b5f35801560495762001fff810690815414603c575f5ffd5b62001fff01545f5260205ff35b5f5ffd5b62001fff42064281555f359062001fff015500",
                "storage": {}
            },
            "0xd66f224cbd2fabb21b17bb53c56118f32f62ebd6": {
                "nonce": "0x00",
                "balance": "0x0de0b6b3a7640000",
                "code": "0x",
                "storage": {}
            },
            "0xc0e4183389eb57f779a986d8c878f89b9401dc8e": {
                "nonce": "0x00",
                "balance": "0x00",
                "code": "0x6000600060006000346000355af1600055600160015500",
                "storage": {}
            },
            "0x33f368f0b54063613cf5944941e8e0e4eeb64697": {
                "nonce": "0x00",
                "balance": "0x00",
                "code": "0x600160025533600455346007553060e6553260e8553660ec553860ee553a60f05500",
                "storage": {}
            },
            "0x29736372c0fab51db4556614ef27d74a89acfe21": {
                "nonce": "0x00",
                "balance": "0x00",
                "code": "0x6001600052336020523460405230606052326080523660a0523860c0523a60e05200",
                "storage": {}
            },
            "0x620b442c84d5068e6b57d390a1ac99130205406e": {
                "nonce": "0x00",
                "balance": "0x0de0b6b3a7640000",
                "code": "0x60406000604060007333f368f0b54063613cf5944941e8e0e4eeb646976203d090fa00",
                "storage": {}
            },
            "0xdcc76191e9f918ecfe9fba5414884d5ee621ae00": {
                "nonce": "0x00",
                "balance": "0x0de0b6b3a7640000",
                "code": "0x60406000604060007329736372c0fab51db4556614ef27d74a89acfe216203d090fa00",
                "storage": {}
            },
            "0x2f9ec0afcb4edcd7d38c6a48f5e36038263ca3cd": {
                "nonce": "0x00",
                "balance": "0x0de0b6b3a7640000",
                "code": "0x604060006040600073620b442c84d5068e6b57d390a1ac99130205406e62055730fa60005500",
                "storage": {}
            },
            "0xbf23f3306533431b2ee5e4ca95e0a0834c090105": {
                "nonce": "0x00",
                "balance": "0x0de0b6b3a7640000",
                "code": "0x604060006040600073dcc76191e9f918ecfe9fba5414884d5ee621ae0062055730fa60005500",
                "storage": {}
            }
        },
        "postState": {
            "0x000f3df6d732807ef1319fb7b8bb8522d0beac02": {
                "nonce": "0x01",
                "balance": "0x00",
                "code": "0x3373fffffffffffffffffffffffffffffffffffffffe14604d57602036146024575f5ffd5b5f35801560495762001fff810690815414603c575f5ffd5b62001fff01545f5260205ff35b5f5ffd5b62001fff42064281555f359062001fff015500",
                "storage": {
                    "0x03e8": "0x03e8"
                }
            },
            "0xd66f224cbd2fabb21b17bb53c56118f32f62ebd6": {
                "nonce": "0x01",
                "balance": "0x0de0b6b3a72f45f4",
                "code": "0x",
                "storage": {}
            },
            "0xc0e4183389eb57f779a986d8c878f89b9401dc8e": {
                "nonce": "0x00",
                "balance": "0x00",
                "code": "0x6000600060006000346000355af1600055600160015500",
                "storage": {
                    "0x00": "0x01",
                    "0x01": "0x01"
                }
            },
            "0x33f368f0b54063613cf5944941e8e0e4eeb64697": {
                "nonce": "0x00",
                "balance": "0x00",
                "code": "0x600160025533600455346007553060e6553260e8553660ec553860ee553a60f05500",
                "storage": {}
            },
            "0x29736372c0fab51db4556614ef27d74a89acfe21": {
                "nonce": "0x00",
                "balance": "0x00",
                "code": "0x6001600052336020523460405230606052326080523660a0523860c0523a60e05200",
                "storage": {}
            },
            "0x620b442c84d5068e6b57d390a1ac99130205406e": {
                "nonce": "0x00",
                "balance": "0x0de0b6b3a7640000",
                "code": "0x60406000604060007333f368f0b54063613cf5944941e8e0e4eeb646976203d090fa00",
                "storage": {}
            },
            "0xdcc76191e9f918ecfe9fba5414884d5ee621ae00": {
                "nonce": "0x00",
                "balance": "0x0de0b6b3a7640000",
                "code": "0x60406000604060007329736372c0fab51db4556614ef27d74a89acfe216203d090fa00",
                "storage": {}
            },
            "0x2f9ec0afcb4edcd7d38c6a48f5e36038263ca3cd": {
                "nonce": "0x00",
                "balance": "0x0de0b6b3a7640000",
                "code": "0x604060006040600073620b442c84d5068e6b57d390a1ac99130205406e62055730fa60005500",
                "storage": {
                    "0x00": "0x01"
                }
            },
            "0xbf23f3306533431b2ee5e4ca95e0a0834c090105": {
                "nonce": "0x00",
                "balance": "0x0de0b6b3a7640000",
                "code": "0x604060006040600073dcc76191e9f918ecfe9fba5414884d5ee621ae0062055730fa60005500",
                "storage": {}
            }
        },
        "lastblockhash": "0x21151369cd37a8fab4155e167dda0f5e77c969b9ea696a9374fe497f6faccca6",
        "config": {
            "network": "Cancun",
            "chainid": "0x01",
            "blobSchedule": {
                "Cancun": {
                    "target": "0x03",
                    "max": "0x06",
                    "baseFeeUpdateFraction": "0x32f0ed"
                }
            }
        },
        "genesisRLP": "0xf9023cf90236a00000000000000000000000000000000000000000000000000000000000000000a01dcc4de8dec75d7aab85b567b6ccd41ad312451b948a7413f0a142fd40d49347940000000000000000000000000000000000000000a070d9f86405f135d6e5419ba595e71d1be8a907735bb2e58eac4098a03d91ccaba056e81f171bcc55a6ff8345e692c0f86e5b48e01b996cadc001622fb5e363b421a056e81f171bcc55a6ff8345e692c0f86e5b48e01b996cadc001622fb5e363b421b901000000000000000000000000000000000000000000000000000000000000000000000000000000000000000000000000000000000000000000000000000000000000000000000000000000000000000000000000000000000000000000000000000000000000000000000000000000000000000000000000000000000000000000000000000000000000000000000000000000000000000000000000000000000000000000000000000000000000000000000000000000000000000000000000000000000000000000000000000000000000000000000000000000000000000000000000000000000000000000000000000000000000000000000000000000000080808401c9c380808000a000000000000000000000000000000000000000000000000000000000000000008800000000000000000ba056e81f171bcc55a6ff8345e692c0f86e5b48e01b996cadc001622fb5e363b4218080a00000000000000000000000000000000000000000000000000000000000000000c0c0c0",
        "blocks": [
            {
                "blockHeader": {
                    "parentHash": "0xb71773d9a254fced3dd3107c7616363e8470f8e2b84c0044cd810177b52d4f7c",
                    "uncleHash": "0x1dcc4de8dec75d7aab85b567b6ccd41ad312451b948a7413f0a142fd40d49347",
                    "coinbase": "0x2adc25665018aa1fe0e6bc666dac8fc2697ff9ba",
                    "stateRoot": "0x79df8b07d0c296544f4986b2ef6e5de51e364c1de34d18bc9f476edd02e23e52",
                    "transactionsTrie": "0x64bbc77cd92b407b1a182184e029c510435f94e2484d58c3b5bbdc6921aba581",
                    "receiptTrie": "0x8074cd015ebb4215013ca9a85e63987dae942ad1a09907a0260b7dca40c33718",
                    "bloom": "0x00000000000000000000000000000000000000000000000000000000000000000000000000000000000000000000000000000000000000000000000000000000000000000000000000000000000000000000000000000000000000000000000000000000000000000000000000000000000000000000000000000000000000000000000000000000000000000000000000000000000000000000000000000000000000000000000000000000000000000000000000000000000000000000000000000000000000000000000000000000000000000000000000000000000000000000000000000000000000000000000000000000000000000000000000000000",
                    "difficulty": "0x00",
                    "number": "0x01",
                    "gasLimit": "0x01c9c380",
                    "gasUsed": "0x0545ce",
                    "timestamp": "0x03e8",
                    "extraData": "0x00",
                    "mixHash": "0x0000000000000000000000000000000000000000000000000000000000020000",
                    "nonce": "0x0000000000000000",
                    "baseFeePerGas": "0x0a",
                    "withdrawalsRoot": "0x56e81f171bcc55a6ff8345e692c0f86e5b48e01b996cadc001622fb5e363b421",
                    "blobGasUsed": "0x00",
                    "excessBlobGas": "0x00",
                    "parentBeaconBlockRoot": "0x0000000000000000000000000000000000000000000000000000000000000000",
                    "hash": "0x21151369cd37a8fab4155e167dda0f5e77c969b9ea696a9374fe497f6faccca6"
                },
                "transactions": [
                    {
                        "type": "0x00",
                        "chainId": "0x01",
                        "nonce": "0x00",
                        "gasPrice": "0x0a",
                        "gasLimit": "0x2dc6c0",
                        "to": "0xc0e4183389eb57f779a986d8c878f89b9401dc8e",
                        "value": "0x00",
                        "data": "0x0000000000000000000000002f9ec0afcb4edcd7d38c6a48f5e36038263ca3cd",
                        "v": "0x25",
                        "r": "0x28fb3e6eae3cde321e3b1c0f569e1b4710cdddfaa53111fc0569f8ac2c1961dc",
                        "s": "0x2ad0aa2c6e0916d2825d00ad8e7f21ae28d9e747ea05787ca227c39b9fc40890",
                        "sender": "0xd66f224cbd2fabb21b17bb53c56118f32f62ebd6"
                    }
                ],
                "uncleHeaders": [],
                "withdrawals": [],
                "receipts": [
                    {
                        "transactionHash": "0x589793112a21343b4ae504f57af5e91d963f801ec5157353bbd6b2fbb4eb1bbf",
                        "type": "0x00",
                        "cumulativeGasUsed": "0x0545ce",
                        "bloom": "0x00000000000000000000000000000000000000000000000000000000000000000000000000000000000000000000000000000000000000000000000000000000000000000000000000000000000000000000000000000000000000000000000000000000000000000000000000000000000000000000000000000000000000000000000000000000000000000000000000000000000000000000000000000000000000000000000000000000000000000000000000000000000000000000000000000000000000000000000000000000000000000000000000000000000000000000000000000000000000000000000000000000000000000000000000000000",
                        "logs": [],
                        "status": true,
                        "rlp": "0xf9010901830545ceb9010000000000000000000000000000000000000000000000000000000000000000000000000000000000000000000000000000000000000000000000000000000000000000000000000000000000000000000000000000000000000000000000000000000000000000000000000000000000000000000000000000000000000000000000000000000000000000000000000000000000000000000000000000000000000000000000000000000000000000000000000000000000000000000000000000000000000000000000000000000000000000000000000000000000000000000000000000000000000000000000000000000000000000000000000000000000c0"
                    }
                ],
                "rlp": "0xf902c4f9023ba0b71773d9a254fced3dd3107c7616363e8470f8e2b84c0044cd810177b52d4f7ca01dcc4de8dec75d7aab85b567b6ccd41ad312451b948a7413f0a142fd40d49347942adc25665018aa1fe0e6bc666dac8fc2697ff9baa079df8b07d0c296544f4986b2ef6e5de51e364c1de34d18bc9f476edd02e23e52a064bbc77cd92b407b1a182184e029c510435f94e2484d58c3b5bbdc6921aba581a08074cd015ebb4215013ca9a85e63987dae942ad1a09907a0260b7dca40c33718b901000000000000000000000000000000000000000000000000000000000000000000000000000000000000000000000000000000000000000000000000000000000000000000000000000000000000000000000000000000000000000000000000000000000000000000000000000000000000000000000000000000000000000000000000000000000000000000000000000000000000000000000000000000000000000000000000000000000000000000000000000000000000000000000000000000000000000000000000000000000000000000000000000000000000000000000000000000000000000000000000000000000000000000000000000000000080018401c9c380830545ce8203e800a000000000000000000000000000000000000000000000000000000000000200008800000000000000000aa056e81f171bcc55a6ff8345e692c0f86e5b48e01b996cadc001622fb5e363b4218080a00000000000000000000000000000000000000000000000000000000000000000f882f880800a832dc6c094c0e4183389eb57f779a986d8c878f89b9401dc8e80a00000000000000000000000002f9ec0afcb4edcd7d38c6a48f5e36038263ca3cd25a028fb3e6eae3cde321e3b1c0f569e1b4710cdddfaa53111fc0569f8ac2c1961dca02ad0aa2c6e0916d2825d00ad8e7f21ae28d9e747ea05787ca227c39b9fc40890c0c0",
                "blocknumber": "1"
            }
        ],
        "sealEngine": "NoProof",
        "_info": {
            "hash": "0xb46be07fada56f5662039ed2bfe0b9293a0acdcae1190fb85cdb3dc5cc3aad8b",
            "fixture-format": "blockchain_test",
            "comment": "`execution-specs` generated test",
            "filling-transition-tool": "2.19.0",
            "description": "Test_static_callcall_00.",
            "url": "https://github.com/ethereum/execution-specs/blob/tests-snobal-devnet-5@v8037.0.0/tests/ported_static/stStaticCall/test_static_callcall_00.py#L28",
            "metadata": {
                "opcode_count": {}
            }
        }
    },
    "tests/ported_static/stStaticCall/test_static_callcall_00.py::test_static_callcall_00[fork_Cancun-blockchain_test_from_state_test-d1]": {
        "network": "Cancun",
        "genesisBlockHeader": {
            "parentHash": "0x0000000000000000000000000000000000000000000000000000000000000000",
            "uncleHash": "0x1dcc4de8dec75d7aab85b567b6ccd41ad312451b948a7413f0a142fd40d49347",
            "coinbase": "0x0000000000000000000000000000000000000000",
            "stateRoot": "0x70d9f86405f135d6e5419ba595e71d1be8a907735bb2e58eac4098a03d91ccab",
            "transactionsTrie": "0x56e81f171bcc55a6ff8345e692c0f86e5b48e01b996cadc001622fb5e363b421",
            "receiptTrie": "0x56e81f171bcc55a6ff8345e692c0f86e5b48e01b996cadc001622fb5e363b421",
            "bloom": "0x00000000000000000000000000000000000000000000000000000000000000000000000000000000000000000000000000000000000000000000000000000000000000000000000000000000000000000000000000000000000000000000000000000000000000000000000000000000000000000000000000000000000000000000000000000000000000000000000000000000000000000000000000000000000000000000000000000000000000000000000000000000000000000000000000000000000000000000000000000000000000000000000000000000000000000000000000000000000000000000000000000000000000000000000000000000",
            "difficulty": "0x00",
            "number": "0x00",
            "gasLimit": "0x01c9c380",
            "gasUsed": "0x00",
            "timestamp": "0x00",
            "extraData": "0x00",
            "mixHash": "0x0000000000000000000000000000000000000000000000000000000000000000",
            "nonce": "0x0000000000000000",
            "baseFeePerGas": "0x0b",
            "withdrawalsRoot": "0x56e81f171bcc55a6ff8345e692c0f86e5b48e01b996cadc001622fb5e363b421",
            "blobGasUsed": "0x00",
            "excessBlobGas": "0x00",
            "parentBeaconBlockRoot": "0x0000000000000000000000000000000000000000000000000000000000000000",
            "hash": "0xb71773d9a254fced3dd3107c7616363e8470f8e2b84c0044cd810177b52d4f7c"
        },
        "pre": {
            "0x000f3df6d732807ef1319fb7b8bb8522d0beac02": {
                "nonce": "0x01",
                "balance": "0x00",
                "code": "0x3373fffffffffffffffffffffffffffffffffffffffe14604d57602036146024575f5ffd5b5f35801560495762001fff810690815414603c575f5ffd5b62001fff01545f5260205ff35b5f5ffd5b62001fff42064281555f359062001fff015500",
                "storage": {}
            },
            "0xd66f224cbd2fabb21b17bb53c56118f32f62ebd6": {
                "nonce": "0x00",
                "balance": "0x0de0b6b3a7640000",
                "code": "0x",
                "storage": {}
            },
            "0xc0e4183389eb57f779a986d8c878f89b9401dc8e": {
                "nonce": "0x00",
                "balance": "0x00",
                "code": "0x6000600060006000346000355af1600055600160015500",
                "storage": {}
            },
            "0x33f368f0b54063613cf5944941e8e0e4eeb64697": {
                "nonce": "0x00",
                "balance": "0x00",
                "code": "0x600160025533600455346007553060e6553260e8553660ec553860ee553a60f05500",
                "storage": {}
            },
            "0x29736372c0fab51db4556614ef27d74a89acfe21": {
                "nonce": "0x00",
                "balance": "0x00",
                "code": "0x6001600052336020523460405230606052326080523660a0523860c0523a60e05200",
                "storage": {}
            },
            "0x620b442c84d5068e6b57d390a1ac99130205406e": {
                "nonce": "0x00",
                "balance": "0x0de0b6b3a7640000",
                "code": "0x60406000604060007333f368f0b54063613cf5944941e8e0e4eeb646976203d090fa00",
                "storage": {}
            },
            "0xdcc76191e9f918ecfe9fba5414884d5ee621ae00": {
                "nonce": "0x00",
                "balance": "0x0de0b6b3a7640000",
                "code": "0x60406000604060007329736372c0fab51db4556614ef27d74a89acfe216203d090fa00",
                "storage": {}
            },
            "0x2f9ec0afcb4edcd7d38c6a48f5e36038263ca3cd": {
                "nonce": "0x00",
                "balance": "0x0de0b6b3a7640000",
                "code": "0x604060006040600073620b442c84d5068e6b57d390a1ac99130205406e62055730fa60005500",
                "storage": {}
            },
            "0xbf23f3306533431b2ee5e4ca95e0a0834c090105": {
                "nonce": "0x00",
                "balance": "0x0de0b6b3a7640000",
                "code": "0x604060006040600073dcc76191e9f918ecfe9fba5414884d5ee621ae0062055730fa60005500",
                "storage": {}
            }
        },
        "postState": {
            "0x000f3df6d732807ef1319fb7b8bb8522d0beac02": {
                "nonce": "0x01",
                "balance": "0x00",
                "code": "0x3373fffffffffffffffffffffffffffffffffffffffe14604d57602036146024575f5ffd5b5f35801560495762001fff810690815414603c575f5ffd5b62001fff01545f5260205ff35b5f5ffd5b62001fff42064281555f359062001fff015500",
                "storage": {
                    "0x03e8": "0x03e8"
                }
            },
            "0xd66f224cbd2fabb21b17bb53c56118f32f62ebd6": {
                "nonce": "0x01",
                "balance": "0x0de0b6b3a755681a",
                "code": "0x",
                "storage": {}
            },
            "0xc0e4183389eb57f779a986d8c878f89b9401dc8e": {
                "nonce": "0x00",
                "balance": "0x00",
                "code": "0x6000600060006000346000355af1600055600160015500",
                "storage": {
                    "0x00": "0x01",
                    "0x01": "0x01"
                }
            },
            "0x33f368f0b54063613cf5944941e8e0e4eeb64697": {
                "nonce": "0x00",
                "balance": "0x00",
                "code": "0x600160025533600455346007553060e6553260e8553660ec553860ee553a60f05500",
                "storage": {}
            },
            "0x29736372c0fab51db4556614ef27d74a89acfe21": {
                "nonce": "0x00",
                "balance": "0x00",
                "code": "0x6001600052336020523460405230606052326080523660a0523860c0523a60e05200",
                "storage": {}
            },
            "0x620b442c84d5068e6b57d390a1ac99130205406e": {
                "nonce": "0x00",
                "balance": "0x0de0b6b3a7640000",
                "code": "0x60406000604060007333f368f0b54063613cf5944941e8e0e4eeb646976203d090fa00",
                "storage": {}
            },
            "0xdcc76191e9f918ecfe9fba5414884d5ee621ae00": {
                "nonce": "0x00",
                "balance": "0x0de0b6b3a7640000",
                "code": "0x60406000604060007329736372c0fab51db4556614ef27d74a89acfe216203d090fa00",
                "storage": {}
            },
            "0x2f9ec0afcb4edcd7d38c6a48f5e36038263ca3cd": {
                "nonce": "0x00",
                "balance": "0x0de0b6b3a7640000",
                "code": "0x604060006040600073620b442c84d5068e6b57d390a1ac99130205406e62055730fa60005500",
                "storage": {}
            },
            "0xbf23f3306533431b2ee5e4ca95e0a0834c090105": {
                "nonce": "0x00",
                "balance": "0x0de0b6b3a7640000",
                "code": "0x604060006040600073dcc76191e9f918ecfe9fba5414884d5ee621ae0062055730fa60005500",
                "storage": {
                    "0x00": "0x01"
                }
            }
        },
        "lastblockhash": "0x16ecfd88ae0f4aa268cff8c64c852eb41bccde87cf4115474f5619ede2f180fe",
        "config": {
            "network": "Cancun",
            "chainid": "0x01",
            "blobSchedule": {
                "Cancun": {
                    "target": "0x03",
                    "max": "0x06",
                    "baseFeeUpdateFraction": "0x32f0ed"
                }
            }
        },
        "genesisRLP": "0xf9023cf90236a00000000000000000000000000000000000000000000000000000000000000000a01dcc4de8dec75d7aab85b567b6ccd41ad312451b948a7413f0a142fd40d49347940000000000000000000000000000000000000000a070d9f86405f135d6e5419ba595e71d1be8a907735bb2e58eac4098a03d91ccaba056e81f171bcc55a6ff8345e692c0f86e5b48e01b996cadc001622fb5e363b421a056e81f171bcc55a6ff8345e692c0f86e5b48e01b996cadc001622fb5e363b421b901000000000000000000000000000000000000000000000000000000000000000000000000000000000000000000000000000000000000000000000000000000000000000000000000000000000000000000000000000000000000000000000000000000000000000000000000000000000000000000000000000000000000000000000000000000000000000000000000000000000000000000000000000000000000000000000000000000000000000000000000000000000000000000000000000000000000000000000000000000000000000000000000000000000000000000000000000000000000000000000000000000000000000000000000000000000080808401c9c380808000a000000000000000000000000000000000000000000000000000000000000000008800000000000000000ba056e81f171bcc55a6ff8345e692c0f86e5b48e01b996cadc001622fb5e363b4218080a00000000000000000000000000000000000000000000000000000000000000000c0c0c0",
        "blocks": [
            {
                "blockHeader": {
                    "parentHash": "0xb71773d9a254fced3dd3107c7616363e8470f8e2b84c0044cd810177b52d4f7c",
                    "uncleHash": "0x1dcc4de8dec75d7aab85b567b6ccd41ad312451b948a7413f0a142fd40d49347",
                    "coinbase": "0x2adc25665018aa1fe0e6bc666dac8fc2697ff9ba",
                    "stateRoot": "0x211ca64b1ea8f8670a6637c9c43d1918f71621be237b58631831def6756702e4",
                    "transactionsTrie": "0x73987684dd83a2458e5fbec6cd915b58eaa11ef4c979e203bf8284112f7d9009",
                    "receiptTrie": "0x038f112cccc3e986d954fdfd4ae46dbcba20e20650be4b9cc7c0728ea3cd153d",
                    "bloom": "0x00000000000000000000000000000000000000000000000000000000000000000000000000000000000000000000000000000000000000000000000000000000000000000000000000000000000000000000000000000000000000000000000000000000000000000000000000000000000000000000000000000000000000000000000000000000000000000000000000000000000000000000000000000000000000000000000000000000000000000000000000000000000000000000000000000000000000000000000000000000000000000000000000000000000000000000000000000000000000000000000000000000000000000000000000000000",
                    "difficulty": "0x00",
                    "number": "0x01",
                    "gasLimit": "0x01c9c380",
                    "gasUsed": "0x017597",
                    "timestamp": "0x03e8",
                    "extraData": "0x00",
                    "mixHash": "0x0000000000000000000000000000000000000000000000000000000000020000",
                    "nonce": "0x0000000000000000",
                    "baseFeePerGas": "0x0a",
                    "withdrawalsRoot": "0x56e81f171bcc55a6ff8345e692c0f86e5b48e01b996cadc001622fb5e363b421",
                    "blobGasUsed": "0x00",
                    "excessBlobGas": "0x00",
                    "parentBeaconBlockRoot": "0x0000000000000000000000000000000000000000000000000000000000000000",
                    "hash": "0x16ecfd88ae0f4aa268cff8c64c852eb41bccde87cf4115474f5619ede2f180fe"
                },
                "transactions": [
                    {
                        "type": "0x00",
                        "chainId": "0x01",
                        "nonce": "0x00",
                        "gasPrice": "0x0a",
                        "gasLimit": "0x2dc6c0",
                        "to": "0xc0e4183389eb57f779a986d8c878f89b9401dc8e",
                        "value": "0x00",
                        "data": "0x000000000000000000000000bf23f3306533431b2ee5e4ca95e0a0834c090105",
                        "v": "0x25",
                        "r": "0x4337cd2e125516ff6a6dd58a1b64b7a5b8d440c9bebfac87056a311c4aed80b7",
                        "s": "0x19048ccdb79c21dcb696410a3839163dc156186432542c0886261b83be6769fa",
                        "sender": "0xd66f224cbd2fabb21b17bb53c56118f32f62ebd6"
                    }
                ],
                "uncleHeaders": [],
                "withdrawals": [],
                "receipts": [
                    {
                        "transactionHash": "0xd1654d6ef24c181be40176712145ddb0c31c1b8c8fa48d786a9322f339caa2ba",
                        "type": "0x00",
                        "cumulativeGasUsed": "0x017597",
                        "bloom": "0x00000000000000000000000000000000000000000000000000000000000000000000000000000000000000000000000000000000000000000000000000000000000000000000000000000000000000000000000000000000000000000000000000000000000000000000000000000000000000000000000000000000000000000000000000000000000000000000000000000000000000000000000000000000000000000000000000000000000000000000000000000000000000000000000000000000000000000000000000000000000000000000000000000000000000000000000000000000000000000000000000000000000000000000000000000000",
                        "logs": [],
                        "status": true,
                        "rlp": "0xf901090183017597b9010000000000000000000000000000000000000000000000000000000000000000000000000000000000000000000000000000000000000000000000000000000000000000000000000000000000000000000000000000000000000000000000000000000000000000000000000000000000000000000000000000000000000000000000000000000000000000000000000000000000000000000000000000000000000000000000000000000000000000000000000000000000000000000000000000000000000000000000000000000000000000000000000000000000000000000000000000000000000000000000000000000000000000000000000000000000c0"
                    }
                ],
                "rlp": "0xf902c4f9023ba0b71773d9a254fced3dd3107c7616363e8470f8e2b84c0044cd810177b52d4f7ca01dcc4de8dec75d7aab85b567b6ccd41ad312451b948a7413f0a142fd40d49347942adc25665018aa1fe0e6bc666dac8fc2697ff9baa0211ca64b1ea8f8670a6637c9c43d1918f71621be237b58631831def6756702e4a073987684dd83a2458e5fbec6cd915b58eaa11ef4c979e203bf8284112f7d9009a0038f112cccc3e986d954fdfd4ae46dbcba20e20650be4b9cc7c0728ea3cd153db901000000000000000000000000000000000000000000000000000000000000000000000000000000000000000000000000000000000000000000000000000000000000000000000000000000000000000000000000000000000000000000000000000000000000000000000000000000000000000000000000000000000000000000000000000000000000000000000000000000000000000000000000000000000000000000000000000000000000000000000000000000000000000000000000000000000000000000000000000000000000000000000000000000000000000000000000000000000000000000000000000000000000000000000000000000000080018401c9c380830175978203e800a000000000000000000000000000000000000000000000000000000000000200008800000000000000000aa056e81f171bcc55a6ff8345e692c0f86e5b48e01b996cadc001622fb5e363b4218080a00000000000000000000000000000000000000000000000000000000000000000f882f880800a832dc6c094c0e4183389eb57f779a986d8c878f89b9401dc8e80a0000000000000000000000000bf23f3306533431b2ee5e4ca95e0a0834c09010525a04337cd2e125516ff6a6dd58a1b64b7a5b8d440c9bebfac87056a311c4aed80b7a019048ccdb79c21dcb696410a3839163dc156186432542c0886261b83be6769fac0c0",
                "blocknumber": "1"
            }
        ],
        "sealEngine": "NoProof",
        "_info": {
            "hash": "0xa7bbdcb41c182863bdc1fadb1fe155cdbb0acedfccd481e77c133ab6f8544e76",
            "fixture-format": "blockchain_test",
            "comment": "`execution-specs` generated test",
            "filling-transition-tool": "2.19.0",
            "description": "Test_static_callcall_00.",
            "url": "https://github.com/ethereum/execution-specs/blob/tests-snobal-devnet-5@v8037.0.0/tests/ported_static/stStaticCall/test_static_callcall_00.py#L28",
            "metadata": {
                "opcode_count": {}
            }
        }
    }
}