{
    "tests/ported_static/stStaticCall/test_static_callcall_00.py::test_static_callcall_00[fork_Cancun-blockchain_test_from_state_test-d0]": {
        "network": "Cancun",
        "genesisBlockHeader": {
            "parentHash": "0x0000000000000000000000000000000000000000000000000000000000000000",
            "uncleHash": "0x1dcc4de8dec75d7aab85b567b6ccd41ad312451b948a7413f0a142fd40d49347",
            "coinbase": "0x0000000000000000000000000000000000000000",
            "stateRoot": "0x8172bd279ce0ff292620d93b917e7343b30537584c63305b56e17b03b951e712",
            "transactionsTrie": "0x56e81f171bcc55a6ff8345e692c0f86e5b48e01b996cadc001622fb5e363b421",
            "receiptTrie": "0x56e81f171bcc55a6ff8345e692c0f86e5b48e01b996cadc001622fb5e363b421",
            "bloom": "0x00000000000000000000000000000000000000000000000000000000000000000000000000000000000000000000000000000000000000000000000000000000000000000000000000000000000000000000000000000000000000000000000000000000000000000000000000000000000000000000000000000000000000000000000000000000000000000000000000000000000000000000000000000000000000000000000000000000000000000000000000000000000000000000000000000000000000000000000000000000000000000000000000000000000000000000000000000000000000000000000000000000000000000000000000000000",
            "difficulty": "0x00",
            "number": "0x00",
            "gasLimit": "0x01c9c380",
            "gasUsed": "0x00",
            "timestamp": "0x00",
            "extraData": "0x00",
            "mixHash": "0x0000000000000000000000000000000000000000000000000000000000000000",
            "nonce": "0x0000000000000000",
            "baseFeePerGas": "0x0b",
            "withdrawalsRoot": "0x56e81f171bcc55a6ff8345e692c0f86e5b48e01b996cadc001622fb5e363b421",
            "blobGasUsed": "0x00",
            "excessBlobGas": "0x00",
            "parentBeaconBlockRoot": "0x0000000000000000000000000000000000000000000000000000000000000000",
            "hash": "0x0082e2c979f92c5cf140d55dbbb2e3b15261606420ee625d01faa4e91da1a6cd"
        },
        "pre": {
            "0x000f3df6d732807ef1319fb7b8bb8522d0beac02": {
                "nonce": "0x01",
                "balance": "0x00",
                "code": "0x3373fffffffffffffffffffffffffffffffffffffffe14604d57602036146024575f5ffd5b5f35801560495762001fff810690815414603c575f5ffd5b62001fff01545f5260205ff35b5f5ffd5b62001fff42064281555f359062001fff015500",
                "storage": {}
            },
            "0xc0e4183389eb57f779a986d8c878f89b9401dc8e": {
                "nonce": "0x00",
                "balance": "0x00",
                "code": "0x6000600060006000346000355af1600055600160015500",
                "storage": {}
            },
            "0x2f9ec0afcb4edcd7d38c6a48f5e36038263ca3cd": {
                "nonce": "0x00",
                "balance": "0x0de0b6b3a7640000",
                "code": "0x604060006040600073620b442c84d5068e6b57d390a1ac99130205406e62055730fa60005500",
                "storage": {}
            },
            "0x620b442c84d5068e6b57d390a1ac99130205406e": {
                "nonce": "0x00",
                "balance": "0x0de0b6b3a7640000",
                "code": "0x60406000604060007333f368f0b54063613cf5944941e8e0e4eeb646976203d090fa00",
                "storage": {}
            },
            "0x33f368f0b54063613cf5944941e8e0e4eeb64697": {
                "nonce": "0x00",
                "balance": "0x00",
                "code": "0x600160025533600455346007553060e6553260e8553660ec553860ee553a60f05500",
                "storage": {}
            },
            "0xbf23f3306533431b2ee5e4ca95e0a0834c090105": {
                "nonce": "0x00",
                "balance": "0x0de0b6b3a7640000",
                "code": "0x604060006040600073dcc76191e9f918ecfe9fba5414884d5ee621ae0062055730fa60005500",
                "storage": {}
            },
            "0xdcc76191e9f918ecfe9fba5414884d5ee621ae00": {
                "nonce": "0x00",
                "balance": "0x0de0b6b3a7640000",
                "code": "0x60406000604060007329736372c0fab51db4556614ef27d74a89acfe216203d090fa00",
                "storage": {}
            },
            "0x29736372c0fab51db4556614ef27d74a89acfe21": {
                "nonce": "0x00",
                "balance": "0x00",
                "code": "0x6001600052336020523460405230606052326080523660a0523860c0523a60e05200",
                "storage": {}
            },
            "0xebaf50debf10e08302fe4280c32df010463ca297": {
                "nonce": "0x00",
                "balance": "0x0de0b6b3a7640000",
                "code": "0x",
                "storage": {}
            }
        },
        "postState": {
            "0x000f3df6d732807ef1319fb7b8bb8522d0beac02": {
                "nonce": "0x01",
                "balance": "0x00",
                "code": "0x3373fffffffffffffffffffffffffffffffffffffffe14604d57602036146024575f5ffd5b5f35801560495762001fff810690815414603c575f5ffd5b62001fff01545f5260205ff35b5f5ffd5b62001fff42064281555f359062001fff015500",
                "storage": {
                    "0x03e8": "0x03e8"
                }
            },
            "0xc0e4183389eb57f779a986d8c878f89b9401dc8e": {
                "nonce": "0x00",
                "balance": "0x00",
                "code": "0x6000600060006000346000355af1600055600160015500",
                "storage": {
                    "0x00": "0x01",
                    "0x01": "0x01"
                }
            },
            "0x2f9ec0afcb4edcd7d38c6a48f5e36038263ca3cd": {
                "nonce": "0x00",
                "balance": "0x0de0b6b3a7640000",
                "code": "0x604060006040600073620b442c84d5068e6b57d390a1ac99130205406e62055730fa60005500",
                "storage": {
                    "0x00": "0x01"
                }
            },
            "0x620b442c84d5068e6b57d390a1ac99130205406e": {
                "nonce": "0x00",
                "balance": "0x0de0b6b3a7640000",
                "code": "0x60406000604060007333f368f0b54063613cf5944941e8e0e4eeb646976203d090fa00",
                "storage": {}
            },
            "0x33f368f0b54063613cf5944941e8e0e4eeb64697": {
                "nonce": "0x00",
                "balance": "0x00",
                "code": "0x600160025533600455346007553060e6553260e8553660ec553860ee553a60f05500",
                "storage": {}
            },
            "0xbf23f3306533431b2ee5e4ca95e0a0834c090105": {
                "nonce": "0x00",
                "balance": "0x0de0b6b3a7640000",
                "code": "0x604060006040600073dcc76191e9f918ecfe9fba5414884d5ee621ae0062055730fa60005500",
                "storage": {}
            },
            "0xdcc76191e9f918ecfe9fba5414884d5ee621ae00": {
                "nonce": "0x00",
                "balance": "0x0de0b6b3a7640000",
                "code": "0x60406000604060007329736372c0fab51db4556614ef27d74a89acfe216203d090fa00",
                "storage": {}
            },
            "0x29736372c0fab51db4556614ef27d74a89acfe21": {
                "nonce": "0x00",
                "balance": "0x00",
                "code": "0x6001600052336020523460405230606052326080523660a0523860c0523a60e05200",
                "storage": {}
            },
            "0xebaf50debf10e08302fe4280c32df010463ca297": {
                "nonce": "0x01",
                "balance": "0x0de0b6b3a72f45f4",
                "code": "0x",
                "storage": {}
            }
        },
        "lastblockhash": "0xea1ea7018a06795a67b198e1efd6a1c77cae303caf577fdd1318d89d0a64d30f",
        "config": {
            "network": "Cancun",
            "chainid": "0x01",
            "blobSchedule": {
                "Cancun": {
                    "target": "0x03",
                    "max": "0x06",
                    "baseFeeUpdateFraction": "0x32f0ed"
                }
            }
        },
        "genesisRLP": "0xf9023cf90236a00000000000000000000000000000000000000000000000000000000000000000a01dcc4de8dec75d7aab85b567b6ccd41ad312451b948a7413f0a142fd40d49347940000000000000000000000000000000000000000a08172bd279ce0ff292620d93b917e7343b30537584c63305b56e17b03b951e712a056e81f171bcc55a6ff8345e692c0f86e5b48e01b996cadc001622fb5e363b421a056e81f171bcc55a6ff8345e692c0f86e5b48e01b996cadc001622fb5e363b421b901000000000000000000000000000000000000000000000000000000000000000000000000000000000000000000000000000000000000000000000000000000000000000000000000000000000000000000000000000000000000000000000000000000000000000000000000000000000000000000000000000000000000000000000000000000000000000000000000000000000000000000000000000000000000000000000000000000000000000000000000000000000000000000000000000000000000000000000000000000000000000000000000000000000000000000000000000000000000000000000000000000000000000000000000000000000080808401c9c380808000a000000000000000000000000000000000000000000000000000000000000000008800000000000000000ba056e81f171bcc55a6ff8345e692c0f86e5b48e01b996cadc001622fb5e363b4218080a00000000000000000000000000000000000000000000000000000000000000000c0c0c0",
        "blocks": [
            {
                "blockHeader": {
                    "parentHash": "0x0082e2c979f92c5cf140d55dbbb2e3b15261606420ee625d01faa4e91da1a6cd",
                    "uncleHash": "0x1dcc4de8dec75d7aab85b567b6ccd41ad312451b948a7413f0a142fd40d49347",
                    "coinbase": "0x2adc25665018aa1fe0e6bc666dac8fc2697ff9ba",
                    "stateRoot": "0xf85db2148743f0f9a5eae04ab09dcffdbeb09b3d5fb9117949a86f53d88d95ce",
                    "transactionsTrie": "0xd8bd1ec4c3d1e82f6ac57107d08e86d053789ac104bd4adb0acc12b862d26584",
                    "receiptTrie": "0x8074cd015ebb4215013ca9a85e63987dae942ad1a09907a0260b7dca40c33718",
                    "bloom": "0x00000000000000000000000000000000000000000000000000000000000000000000000000000000000000000000000000000000000000000000000000000000000000000000000000000000000000000000000000000000000000000000000000000000000000000000000000000000000000000000000000000000000000000000000000000000000000000000000000000000000000000000000000000000000000000000000000000000000000000000000000000000000000000000000000000000000000000000000000000000000000000000000000000000000000000000000000000000000000000000000000000000000000000000000000000000",
                    "difficulty": "0x00",
                    "number": "0x01",
                    "gasLimit": "0x01c9c380",
                    "gasUsed": "0x0545ce",
                    "timestamp": "0x03e8",
                    "extraData": "0x00",
                    "mixHash": "0x0000000000000000000000000000000000000000000000000000000000020000",
                    "nonce": "0x0000000000000000",
                    "baseFeePerGas": "0x0a",
                    "withdrawalsRoot": "0x56e81f171bcc55a6ff8345e692c0f86e5b48e01b996cadc001622fb5e363b421",
                    "blobGasUsed": "0x00",
                    "excessBlobGas": "0x00",
                    "parentBeaconBlockRoot": "0x0000000000000000000000000000000000000000000000000000000000000000",
                    "hash": "0xea1ea7018a06795a67b198e1efd6a1c77cae303caf577fdd1318d89d0a64d30f"
                },
                "transactions": [
                    {
                        "type": "0x00",
                        "chainId": "0x01",
                        "nonce": "0x00",
                        "gasPrice": "0x0a",
                        "gasLimit": "0x2dc6c0",
                        "to": "0xc0e4183389eb57f779a986d8c878f89b9401dc8e",
                        "value": "0x00",
                        "data": "0x0000000000000000000000002f9ec0afcb4edcd7d38c6a48f5e36038263ca3cd",
                        "v": "0x26",
                        "r": "0x356a5dac1f0fe4d0db62b43b2e201f0562c72148418115d67e5ad5187d8e768f",
                        "s": "0x0728012898237d02175d62bff78e41169dc3e8a84b906a2f28d0fdd6e0acd9ce",
                        "sender": "0xebaf50debf10e08302fe4280c32df010463ca297"
                    }
                ],
                "uncleHeaders": [],
                "withdrawals": [],
                "receipts": [
                    {
                        "transactionHash": "0x39ce848b8aed468aabd77cc8941e3202f12d84f789ac57963e3c7ad385497640",
                        "type": "0x00",
                        "cumulativeGasUsed": "0x0545ce",
                        "bloom": "0x00000000000000000000000000000000000000000000000000000000000000000000000000000000000000000000000000000000000000000000000000000000000000000000000000000000000000000000000000000000000000000000000000000000000000000000000000000000000000000000000000000000000000000000000000000000000000000000000000000000000000000000000000000000000000000000000000000000000000000000000000000000000000000000000000000000000000000000000000000000000000000000000000000000000000000000000000000000000000000000000000000000000000000000000000000000",
                        "logs": [],
                        "status": true,
                        "rlp": "0xf9010901830545ceb9010000000000000000000000000000000000000000000000000000000000000000000000000000000000000000000000000000000000000000000000000000000000000000000000000000000000000000000000000000000000000000000000000000000000000000000000000000000000000000000000000000000000000000000000000000000000000000000000000000000000000000000000000000000000000000000000000000000000000000000000000000000000000000000000000000000000000000000000000000000000000000000000000000000000000000000000000000000000000000000000000000000000000000000000000000000000c0"
                    }
                ],
                "rlp": "0xf902c4f9023ba00082e2c979f92c5cf140d55dbbb2e3b15261606420ee625d01faa4e91da1a6cda01dcc4de8dec75d7aab85b567b6ccd41ad312451b948a7413f0a142fd40d49347942adc25665018aa1fe0e6bc666dac8fc2697ff9baa0f85db2148743f0f9a5eae04ab09dcffdbeb09b3d5fb9117949a86f53d88d95cea0d8bd1ec4c3d1e82f6ac57107d08e86d053789ac104bd4adb0acc12b862d26584a08074cd015ebb4215013ca9a85e63987dae942ad1a09907a0260b7dca40c33718b901000000000000000000000000000000000000000000000000000000000000000000000000000000000000000000000000000000000000000000000000000000000000000000000000000000000000000000000000000000000000000000000000000000000000000000000000000000000000000000000000000000000000000000000000000000000000000000000000000000000000000000000000000000000000000000000000000000000000000000000000000000000000000000000000000000000000000000000000000000000000000000000000000000000000000000000000000000000000000000000000000000000000000000000000000000000080018401c9c380830545ce8203e800a000000000000000000000000000000000000000000000000000000000000200008800000000000000000aa056e81f171bcc55a6ff8345e692c0f86e5b48e01b996cadc001622fb5e363b4218080a00000000000000000000000000000000000000000000000000000000000000000f882f880800a832dc6c094c0e4183389eb57f779a986d8c878f89b9401dc8e80a00000000000000000000000002f9ec0afcb4edcd7d38c6a48f5e36038263ca3cd26a0356a5dac1f0fe4d0db62b43b2e201f0562c72148418115d67e5ad5187d8e768fa00728012898237d02175d62bff78e41169dc3e8a84b906a2f28d0fdd6e0acd9cec0c0",
                "blocknumber": "1"
            }
        ],
        "sealEngine": "NoProof",
        "_info": {
            "hash": "0x6e23d9b2487a21004bce3ddc8ea594721345945c6cb7f548f2495afbae7abd6f",
            "fixture-format": "blockchain_test",
            "comment": "`execution-specs` generated test",
            "filling-transition-tool": "2.19.0",
            "description": "Test_static_callcall_00.",
            "url": "https://github.com/ethereum/execution-specs/blob/tests-bal@v5.7.0/tests/ported_static/stStaticCall/test_static_callcall_00.py#L29",
            "metadata": {
                "opcode_count": {}
            }
        }
    },
    "tests/ported_static/stStaticCall/test_static_callcall_00.py::test_static_callcall_00[fork_Cancun-blockchain_test_from_state_test-d1]": {
        "network": "Cancun",
        "genesisBlockHeader": {
            "parentHash": "0x0000000000000000000000000000000000000000000000000000000000000000",
            "uncleHash": "0x1dcc4de8dec75d7aab85b567b6ccd41ad312451b948a7413f0a142fd40d49347",
            "coinbase": "0x0000000000000000000000000000000000000000",
            "stateRoot": "0x8172bd279ce0ff292620d93b917e7343b30537584c63305b56e17b03b951e712",
            "transactionsTrie": "0x56e81f171bcc55a6ff8345e692c0f86e5b48e01b996cadc001622fb5e363b421",
            "receiptTrie": "0x56e81f171bcc55a6ff8345e692c0f86e5b48e01b996cadc001622fb5e363b421",
            "bloom": "0x00000000000000000000000000000000000000000000000000000000000000000000000000000000000000000000000000000000000000000000000000000000000000000000000000000000000000000000000000000000000000000000000000000000000000000000000000000000000000000000000000000000000000000000000000000000000000000000000000000000000000000000000000000000000000000000000000000000000000000000000000000000000000000000000000000000000000000000000000000000000000000000000000000000000000000000000000000000000000000000000000000000000000000000000000000000",
            "difficulty": "0x00",
            "number": "0x00",
            "gasLimit": "0x01c9c380",
            "gasUsed": "0x00",
            "timestamp": "0x00",
            "extraData": "0x00",
            "mixHash": "0x0000000000000000000000000000000000000000000000000000000000000000",
            "nonce": "0x0000000000000000",
            "baseFeePerGas": "0x0b",
            "withdrawalsRoot": "0x56e81f171bcc55a6ff8345e692c0f86e5b48e01b996cadc001622fb5e363b421",
            "blobGasUsed": "0x00",
            "excessBlobGas": "0x00",
            "parentBeaconBlockRoot": "0x0000000000000000000000000000000000000000000000000000000000000000",
            "hash": "0x0082e2c979f92c5cf140d55dbbb2e3b15261606420ee625d01faa4e91da1a6cd"
        },
        "pre": {
            "0x000f3df6d732807ef1319fb7b8bb8522d0beac02": {
                "nonce": "0x01",
                "balance": "0x00",
                "code": "0x3373fffffffffffffffffffffffffffffffffffffffe14604d57602036146024575f5ffd5b5f35801560495762001fff810690815414603c575f5ffd5b62001fff01545f5260205ff35b5f5ffd5b62001fff42064281555f359062001fff015500",
                "storage": {}
            },
            "0xc0e4183389eb57f779a986d8c878f89b9401dc8e": {
                "nonce": "0x00",
                "balance": "0x00",
                "code": "0x6000600060006000346000355af1600055600160015500",
                "storage": {}
            },
            "0x2f9ec0afcb4edcd7d38c6a48f5e36038263ca3cd": {
                "nonce": "0x00",
                "balance": "0x0de0b6b3a7640000",
                "code": "0x604060006040600073620b442c84d5068e6b57d390a1ac99130205406e62055730fa60005500",
                "storage": {}
            },
            "0x620b442c84d5068e6b57d390a1ac99130205406e": {
                "nonce": "0x00",
                "balance": "0x0de0b6b3a7640000",
                "code": "0x60406000604060007333f368f0b54063613cf5944941e8e0e4eeb646976203d090fa00",
                "storage": {}
            },
            "0x33f368f0b54063613cf5944941e8e0e4eeb64697": {
                "nonce": "0x00",
                "balance": "0x00",
                "code": "0x600160025533600455346007553060e6553260e8553660ec553860ee553a60f05500",
                "storage": {}
            },
            "0xbf23f3306533431b2ee5e4ca95e0a0834c090105": {
                "nonce": "0x00",
                "balance": "0x0de0b6b3a7640000",
                "code": "0x604060006040600073dcc76191e9f918ecfe9fba5414884d5ee621ae0062055730fa60005500",
                "storage": {}
            },
            "0xdcc76191e9f918ecfe9fba5414884d5ee621ae00": {
                "nonce": "0x00",
                "balance": "0x0de0b6b3a7640000",
                "code": "0x60406000604060007329736372c0fab51db4556614ef27d74a89acfe216203d090fa00",
                "storage": {}
            },
            "0x29736372c0fab51db4556614ef27d74a89acfe21": {
                "nonce": "0x00",
                "balance": "0x00",
                "code": "0x6001600052336020523460405230606052326080523660a0523860c0523a60e05200",
                "storage": {}
            },
            "0xebaf50debf10e08302fe4280c32df010463ca297": {
                "nonce": "0x00",
                "balance": "0x0de0b6b3a7640000",
                "code": "0x",
                "storage": {}
            }
        },
        "postState": {
            "0x000f3df6d732807ef1319fb7b8bb8522d0beac02": {
                "nonce": "0x01",
                "balance": "0x00",
                "code": "0x3373fffffffffffffffffffffffffffffffffffffffe14604d57602036146024575f5ffd5b5f35801560495762001fff810690815414603c575f5ffd5b62001fff01545f5260205ff35b5f5ffd5b62001fff42064281555f359062001fff015500",
                "storage": {
                    "0x03e8": "0x03e8"
                }
            },
            "0xc0e4183389eb57f779a986d8c878f89b9401dc8e": {
                "nonce": "0x00",
                "balance": "0x00",
                "code": "0x6000600060006000346000355af1600055600160015500",
                "storage": {
                    "0x00": "0x01",
                    "0x01": "0x01"
                }
            },
            "0x2f9ec0afcb4edcd7d38c6a48f5e36038263ca3cd": {
                "nonce": "0x00",
                "balance": "0x0de0b6b3a7640000",
                "code": "0x604060006040600073620b442c84d5068e6b57d390a1ac99130205406e62055730fa60005500",
                "storage": {}
            },
            "0x620b442c84d5068e6b57d390a1ac99130205406e": {
                "nonce": "0x00",
                "balance": "0x0de0b6b3a7640000",
                "code": "0x60406000604060007333f368f0b54063613cf5944941e8e0e4eeb646976203d090fa00",
                "storage": {}
            },
            "0x33f368f0b54063613cf5944941e8e0e4eeb64697": {
                "nonce": "0x00",
                "balance": "0x00",
                "code": "0x600160025533600455346007553060e6553260e8553660ec553860ee553a60f05500",
                "storage": {}
            },
            "0xbf23f3306533431b2ee5e4ca95e0a0834c090105": {
                "nonce": "0x00",
                "balance": "0x0de0b6b3a7640000",
                "code": "0x604060006040600073dcc76191e9f918ecfe9fba5414884d5ee621ae0062055730fa60005500",
                "storage": {
                    "0x00": "0x01"
                }
            },
            "0xdcc76191e9f918ecfe9fba5414884d5ee621ae00": {
                "nonce": "0x00",
                "balance": "0x0de0b6b3a7640000",
                "code": "0x60406000604060007329736372c0fab51db4556614ef27d74a89acfe216203d090fa00",
                "storage": {}
            },
            "0x29736372c0fab51db4556614ef27d74a89acfe21": {
                "nonce": "0x00",
                "balance": "0x00",
                "code": "0x6001600052336020523460405230606052326080523660a0523860c0523a60e05200",
                "storage": {}
            },
            "0xebaf50debf10e08302fe4280c32df010463ca297": {
                "nonce": "0x01",
                "balance": "0x0de0b6b3a755681a",
                "code": "0x",
                "storage": {}
            }
        },
        "lastblockhash": "0x3a785a12914a74e40cfd2d4b0c8086236bd0987e204b82af3d149623a27773c7",
        "config": {
            "network": "Cancun",
            "chainid": "0x01",
            "blobSchedule": {
                "Cancun": {
                    "target": "0x03",
                    "max": "0x06",
                    "baseFeeUpdateFraction": "0x32f0ed"
                }
            }
        },
        "genesisRLP": "0xf9023cf90236a00000000000000000000000000000000000000000000000000000000000000000a01dcc4de8dec75d7aab85b567b6ccd41ad312451b948a7413f0a142fd40d49347940000000000000000000000000000000000000000a08172bd279ce0ff292620d93b917e7343b30537584c63305b56e17b03b951e712a056e81f171bcc55a6ff8345e692c0f86e5b48e01b996cadc001622fb5e363b421a056e81f171bcc55a6ff8345e692c0f86e5b48e01b996cadc001622fb5e363b421b901000000000000000000000000000000000000000000000000000000000000000000000000000000000000000000000000000000000000000000000000000000000000000000000000000000000000000000000000000000000000000000000000000000000000000000000000000000000000000000000000000000000000000000000000000000000000000000000000000000000000000000000000000000000000000000000000000000000000000000000000000000000000000000000000000000000000000000000000000000000000000000000000000000000000000000000000000000000000000000000000000000000000000000000000000000000080808401c9c380808000a000000000000000000000000000000000000000000000000000000000000000008800000000000000000ba056e81f171bcc55a6ff8345e692c0f86e5b48e01b996cadc001622fb5e363b4218080a00000000000000000000000000000000000000000000000000000000000000000c0c0c0",
        "blocks": [
            {
                "blockHeader": {
                    "parentHash": "0x0082e2c979f92c5cf140d55dbbb2e3b15261606420ee625d01faa4e91da1a6cd",
                    "uncleHash": "0x1dcc4de8dec75d7aab85b567b6ccd41ad312451b948a7413f0a142fd40d49347",
                    "coinbase": "0x2adc25665018aa1fe0e6bc666dac8fc2697ff9ba",
                    "stateRoot": "0x3f448f940603cb5351b8d1c0d27e83848adcb61cc38c2ce43e87cc58f295391a",
                    "transactionsTrie": "0x59288ea9716689625f8ef63d022374074ae777b0dff893abf8d81c8ffd6583de",
                    "receiptTrie": "0x038f112cccc3e986d954fdfd4ae46dbcba20e20650be4b9cc7c0728ea3cd153d",
                    "bloom": "0x00000000000000000000000000000000000000000000000000000000000000000000000000000000000000000000000000000000000000000000000000000000000000000000000000000000000000000000000000000000000000000000000000000000000000000000000000000000000000000000000000000000000000000000000000000000000000000000000000000000000000000000000000000000000000000000000000000000000000000000000000000000000000000000000000000000000000000000000000000000000000000000000000000000000000000000000000000000000000000000000000000000000000000000000000000000",
                    "difficulty": "0x00",
                    "number": "0x01",
                    "gasLimit": "0x01c9c380",
                    "gasUsed": "0x017597",
                    "timestamp": "0x03e8",
                    "extraData": "0x00",
                    "mixHash": "0x0000000000000000000000000000000000000000000000000000000000020000",
                    "nonce": "0x0000000000000000",
                    "baseFeePerGas": "0x0a",
                    "withdrawalsRoot": "0x56e81f171bcc55a6ff8345e692c0f86e5b48e01b996cadc001622fb5e363b421",
                    "blobGasUsed": "0x00",
                    "excessBlobGas": "0x00",
                    "parentBeaconBlockRoot": "0x0000000000000000000000000000000000000000000000000000000000000000",
                    "hash": "0x3a785a12914a74e40cfd2d4b0c8086236bd0987e204b82af3d149623a27773c7"
                },
                "transactions": [
                    {
                        "type": "0x00",
                        "chainId": "0x01",
                        "nonce": "0x00",
                        "gasPrice": "0x0a",
                        "gasLimit": "0x2dc6c0",
                        "to": "0xc0e4183389eb57f779a986d8c878f89b9401dc8e",
                        "value": "0x00",
                        "data": "0x000000000000000000000000bf23f3306533431b2ee5e4ca95e0a0834c090105",
                        "v": "0x25",
                        "r": "0xc51a7384a99a95bf6778363c33f6f7d1f64602440fef22bc198d267b22d4c93e",
                        "s": "0x54b89f369b1ad1939e9daec83c54cf311c01918420cfc4acb608be74fe8d31fc",
                        "sender": "0xebaf50debf10e08302fe4280c32df010463ca297"
                    }
                ],
                "uncleHeaders": [],
                "withdrawals": [],
                "receipts": [
                    {
                        "transactionHash": "0x025b7a0db702dc0ec5518fb25d52975e0dc5c142c9ba4acb90764884e96fb796",
                        "type": "0x00",
                        "cumulativeGasUsed": "0x017597",
                        "bloom": "0x00000000000000000000000000000000000000000000000000000000000000000000000000000000000000000000000000000000000000000000000000000000000000000000000000000000000000000000000000000000000000000000000000000000000000000000000000000000000000000000000000000000000000000000000000000000000000000000000000000000000000000000000000000000000000000000000000000000000000000000000000000000000000000000000000000000000000000000000000000000000000000000000000000000000000000000000000000000000000000000000000000000000000000000000000000000",
                        "logs": [],
                        "status": true,
                        "rlp": "0xf901090183017597b9010000000000000000000000000000000000000000000000000000000000000000000000000000000000000000000000000000000000000000000000000000000000000000000000000000000000000000000000000000000000000000000000000000000000000000000000000000000000000000000000000000000000000000000000000000000000000000000000000000000000000000000000000000000000000000000000000000000000000000000000000000000000000000000000000000000000000000000000000000000000000000000000000000000000000000000000000000000000000000000000000000000000000000000000000000000000c0"
                    }
                ],
                "rlp": "0xf902c4f9023ba00082e2c979f92c5cf140d55dbbb2e3b15261606420ee625d01faa4e91da1a6cda01dcc4de8dec75d7aab85b567b6ccd41ad312451b948a7413f0a142fd40d49347942adc25665018aa1fe0e6bc666dac8fc2697ff9baa03f448f940603cb5351b8d1c0d27e83848adcb61cc38c2ce43e87cc58f295391aa059288ea9716689625f8ef63d022374074ae777b0dff893abf8d81c8ffd6583dea0038f112cccc3e986d954fdfd4ae46dbcba20e20650be4b9cc7c0728ea3cd153db901000000000000000000000000000000000000000000000000000000000000000000000000000000000000000000000000000000000000000000000000000000000000000000000000000000000000000000000000000000000000000000000000000000000000000000000000000000000000000000000000000000000000000000000000000000000000000000000000000000000000000000000000000000000000000000000000000000000000000000000000000000000000000000000000000000000000000000000000000000000000000000000000000000000000000000000000000000000000000000000000000000000000000000000000000000000080018401c9c380830175978203e800a000000000000000000000000000000000000000000000000000000000000200008800000000000000000aa056e81f171bcc55a6ff8345e692c0f86e5b48e01b996cadc001622fb5e363b4218080a00000000000000000000000000000000000000000000000000000000000000000f882f880800a832dc6c094c0e4183389eb57f779a986d8c878f89b9401dc8e80a0000000000000000000000000bf23f3306533431b2ee5e4ca95e0a0834c09010525a0c51a7384a99a95bf6778363c33f6f7d1f64602440fef22bc198d267b22d4c93ea054b89f369b1ad1939e9daec83c54cf311c01918420cfc4acb608be74fe8d31fcc0c0",
                "blocknumber": "1"
            }
        ],
        "sealEngine": "NoProof",
        "_info": {
            "hash": "0x680f75e6e8d230c5c1e82e1b9f5f46fec44bc4f2eee513af6b3f0f0589decb1f",
            "fixture-format": "blockchain_test",
            "comment": "`execution-specs` generated test",
            "filling-transition-tool": "2.19.0",
            "description": "Test_static_callcall_00.",
            "url": "https://github.com/ethereum/execution-specs/blob/tests-bal@v5.7.0/tests/ported_static/stStaticCall/test_static_callcall_00.py#L29",
            "metadata": {
                "opcode_count": {}
            }
        }
    }
}