{
    "tests/ported_static/stSolidityTest/test_recursive_create_contracts.py::test_recursive_create_contracts[fork_Cancun-blockchain_test_from_state_test]": {
        "network": "Cancun",
        "genesisBlockHeader": {
            "parentHash": "0x0000000000000000000000000000000000000000000000000000000000000000",
            "uncleHash": "0x1dcc4de8dec75d7aab85b567b6ccd41ad312451b948a7413f0a142fd40d49347",
            "coinbase": "0x0000000000000000000000000000000000000000",
            "stateRoot": "0x7754146b173c03a1604858c346c9c5cd481e2822966b2b918867b324897dc0d2",
            "transactionsTrie": "0x56e81f171bcc55a6ff8345e692c0f86e5b48e01b996cadc001622fb5e363b421",
            "receiptTrie": "0x56e81f171bcc55a6ff8345e692c0f86e5b48e01b996cadc001622fb5e363b421",
            "bloom": "0x00000000000000000000000000000000000000000000000000000000000000000000000000000000000000000000000000000000000000000000000000000000000000000000000000000000000000000000000000000000000000000000000000000000000000000000000000000000000000000000000000000000000000000000000000000000000000000000000000000000000000000000000000000000000000000000000000000000000000000000000000000000000000000000000000000000000000000000000000000000000000000000000000000000000000000000000000000000000000000000000000000000000000000000000000000000",
            "difficulty": "0x00",
            "number": "0x00",
            "gasLimit": "0x05f5e100",
            "gasUsed": "0x00",
            "timestamp": "0x00",
            "extraData": "0x00",
            "mixHash": "0x0000000000000000000000000000000000000000000000000000000000000000",
            "nonce": "0x0000000000000000",
            "baseFeePerGas": "0x0b",
            "withdrawalsRoot": "0x56e81f171bcc55a6ff8345e692c0f86e5b48e01b996cadc001622fb5e363b421",
            "blobGasUsed": "0x00",
            "excessBlobGas": "0x00",
            "parentBeaconBlockRoot": "0x0000000000000000000000000000000000000000000000000000000000000000",
            "hash": "0x038e5e061b513391875c4c5adec777e26977b88f4973c84dce6bc604685e7f9b"
        },
        "pre": {
            "0x000f3df6d732807ef1319fb7b8bb8522d0beac02": {
                "nonce": "0x01",
                "balance": "0x00",
                "code": "0x3373fffffffffffffffffffffffffffffffffffffffe14604d57602036146024575f5ffd5b5f35801560495762001fff810690815414603c575f5ffd5b62001fff01545f5260205ff35b5f5ffd5b62001fff42064281555f359062001fff015500",
                "storage": {}
            },
            "0xad534b3e645e73a210fa977d4e7577c1ce6c032c": {
                "nonce": "0x00",
                "balance": "0x1dcd6500",
                "code": "0x",
                "storage": {}
            },
            "0x095e7baea6a6c7c4c2dfeb977efac326af552d87": {
                "nonce": "0x00",
                "balance": "0x314dc6448d9338c15b0a00000000",
                "code": "0x60003560e060020a90048063820b13f614610021578063a444f5e91461003257005b61002c600435610093565b60006000f35b61003d600435610043565b60006000f35b600073095e7baea6a6c7c4c2dfeb977efac326af552d8760008190555081600181905550606b6101ad600039606b600054600160a060020a0316815260200182815260200160006000f090505050565b600060c86100e560003960c8600054600160a060020a0316815260200182815260200160006000f0905080600160a060020a0316600060026000600060006000848787f16100dd57005b50505050505600604060c860043960045160245160006001820391508160008190555060008211602657604c565b606b605d600039606b83600160a060020a0316815260200182815260200160006000f090505b505050600180605c6000396000f300006040606b6004396004516024516001810390508060008190555060008111602457605b565b81600160a060020a031663820b13f6600060008260e060020a026000526004858152602001600060008660325a03f1605857005b50505b5050600180606a6000396000f300006040606b6004396004516024516001810390508060008190555060008111602457605b565b81600160a060020a031663820b13f6600060008260e060020a026000526004858152602001600060008660325a03f1605857005b50505b5050600180606a6000396000f30000",
                "storage": {}
            }
        },
        "postState": {
            "0x000f3df6d732807ef1319fb7b8bb8522d0beac02": {
                "nonce": "0x01",
                "balance": "0x00",
                "code": "0x3373fffffffffffffffffffffffffffffffffffffffe14604d57602036146024575f5ffd5b5f35801560495762001fff810690815414603c575f5ffd5b62001fff01545f5260205ff35b5f5ffd5b62001fff42064281555f359062001fff015500",
                "storage": {
                    "0x03e8": "0x03e8"
                }
            },
            "0xad534b3e645e73a210fa977d4e7577c1ce6c032c": {
                "nonce": "0x01",
                "balance": "0x1da083db",
                "code": "0x",
                "storage": {}
            },
            "0x095e7baea6a6c7c4c2dfeb977efac326af552d87": {
                "nonce": "0x01",
                "balance": "0x314dc6448d9338c15b0a00000001",
                "code": "0x60003560e060020a90048063820b13f614610021578063a444f5e91461003257005b61002c600435610093565b60006000f35b61003d600435610043565b60006000f35b600073095e7baea6a6c7c4c2dfeb977efac326af552d8760008190555081600181905550606b6101ad600039606b600054600160a060020a0316815260200182815260200160006000f090505050565b600060c86100e560003960c8600054600160a060020a0316815260200182815260200160006000f0905080600160a060020a0316600060026000600060006000848787f16100dd57005b50505050505600604060c860043960045160245160006001820391508160008190555060008211602657604c565b606b605d600039606b83600160a060020a0316815260200182815260200160006000f090505b505050600180605c6000396000f300006040606b6004396004516024516001810390508060008190555060008111602457605b565b81600160a060020a031663820b13f6600060008260e060020a026000526004858152602001600060008660325a03f1605857005b50505b5050600180606a6000396000f300006040606b6004396004516024516001810390508060008190555060008111602457605b565b81600160a060020a031663820b13f6600060008260e060020a026000526004858152602001600060008660325a03f1605857005b50505b5050600180606a6000396000f30000",
                "storage": {
                    "0x00": "0x095e7baea6a6c7c4c2dfeb977efac326af552d87",
                    "0x01": "0x0304"
                }
            },
            "0xd2571607e241ecf590ed94b12d87c94babe36db6": {
                "nonce": "0x01",
                "balance": "0x00",
                "code": "0x",
                "storage": {
                    "0x00": "0x0303"
                }
            }
        },
        "lastblockhash": "0xc7067eb4b264da51e11e8b693b1e5302aaad1b7821bc62f3ca234123680dd94e",
        "config": {
            "network": "Cancun",
            "chainid": "0x01",
            "blobSchedule": {
                "Cancun": {
                    "target": "0x03",
                    "max": "0x06",
                    "baseFeeUpdateFraction": "0x32f0ed"
                }
            }
        },
        "genesisRLP": "0xf9023cf90236a00000000000000000000000000000000000000000000000000000000000000000a01dcc4de8dec75d7aab85b567b6ccd41ad312451b948a7413f0a142fd40d49347940000000000000000000000000000000000000000a07754146b173c03a1604858c346c9c5cd481e2822966b2b918867b324897dc0d2a056e81f171bcc55a6ff8345e692c0f86e5b48e01b996cadc001622fb5e363b421a056e81f171bcc55a6ff8345e692c0f86e5b48e01b996cadc001622fb5e363b421b901000000000000000000000000000000000000000000000000000000000000000000000000000000000000000000000000000000000000000000000000000000000000000000000000000000000000000000000000000000000000000000000000000000000000000000000000000000000000000000000000000000000000000000000000000000000000000000000000000000000000000000000000000000000000000000000000000000000000000000000000000000000000000000000000000000000000000000000000000000000000000000000000000000000000000000000000000000000000000000000000000000000000000000000000000000000080808405f5e100808000a000000000000000000000000000000000000000000000000000000000000000008800000000000000000ba056e81f171bcc55a6ff8345e692c0f86e5b48e01b996cadc001622fb5e363b4218080a00000000000000000000000000000000000000000000000000000000000000000c0c0c0",
        "blocks": [
            {
                "blockHeader": {
                    "parentHash": "0x038e5e061b513391875c4c5adec777e26977b88f4973c84dce6bc604685e7f9b",
                    "uncleHash": "0x1dcc4de8dec75d7aab85b567b6ccd41ad312451b948a7413f0a142fd40d49347",
                    "coinbase": "0x2adc25665018aa1fe0e6bc666dac8fc2697ff9ba",
                    "stateRoot": "0xfca7b51f13d562d9caa3aefa3e3ed603b3e746a51a8071f28014cc6e045a939f",
                    "transactionsTrie": "0xb2ce44fffb4bb486212c28b1410cab9c31802c136cf123ae7d42b9b8026aa734",
                    "receiptTrie": "0xa464fcb51088d87ccfc15b6e9892a422ac120416e41b5b7b83ff0760dff8e36f",
                    "bloom": "0x00000000000000000000000000000000000000000000000000000000000000000000000000000000000000000000000000000000000000000000000000000000000000000000000000000000000000000000000000000000000000000000000000000000000000000000000000000000000000000000000000000000000000000000000000000000000000000000000000000000000000000000000000000000000000000000000000000000000000000000000000000000000000000000000000000000000000000000000000000000000000000000000000000000000000000000000000000000000000000000000000000000000000000000000000000000",
                    "difficulty": "0x00",
                    "number": "0x01",
                    "gasLimit": "0x05f5e100",
                    "gasUsed": "0x047cea",
                    "timestamp": "0x03e8",
                    "extraData": "0x00",
                    "mixHash": "0x0000000000000000000000000000000000000000000000000000000000020000",
                    "nonce": "0x0000000000000000",
                    "baseFeePerGas": "0x0a",
                    "withdrawalsRoot": "0x56e81f171bcc55a6ff8345e692c0f86e5b48e01b996cadc001622fb5e363b421",
                    "blobGasUsed": "0x00",
                    "excessBlobGas": "0x00",
                    "parentBeaconBlockRoot": "0x0000000000000000000000000000000000000000000000000000000000000000",
                    "hash": "0xc7067eb4b264da51e11e8b693b1e5302aaad1b7821bc62f3ca234123680dd94e"
                },
                "transactions": [
                    {
                        "type": "0x00",
                        "chainId": "0x01",
                        "nonce": "0x00",
                        "gasPrice": "0x0a",
                        "gasLimit": "0x0493e0",
                        "to": "0x095e7baea6a6c7c4c2dfeb977efac326af552d87",
                        "value": "0x01",
                        "data": "0xa444f5e90000000000000000000000000000000000000000000000000000000000000304",
                        "v": "0x26",
                        "r": "0x5fe7167f2123b8eba386618817a6ef61de99492d18db0d53093a185fa1bb9f28",
                        "s": "0x1f0ec2060c3da65803ab26fca1b300744dee607cbc1b5ac4d4b8e3e043eb6d3d",
                        "sender": "0xad534b3e645e73a210fa977d4e7577c1ce6c032c"
                    }
                ],
                "uncleHeaders": [],
                "withdrawals": [],
                "receipts": [
                    {
                        "transactionHash": "0x78816bf12169d1ba5f8d69998c8477e5269767c4d4527c6616ec9b31ff457dea",
                        "type": "0x00",
                        "cumulativeGasUsed": "0x047cea",
                        "bloom": "0x00000000000000000000000000000000000000000000000000000000000000000000000000000000000000000000000000000000000000000000000000000000000000000000000000000000000000000000000000000000000000000000000000000000000000000000000000000000000000000000000000000000000000000000000000000000000000000000000000000000000000000000000000000000000000000000000000000000000000000000000000000000000000000000000000000000000000000000000000000000000000000000000000000000000000000000000000000000000000000000000000000000000000000000000000000000",
                        "logs": [],
                        "status": true,
                        "rlp": "0xf901090183047ceab9010000000000000000000000000000000000000000000000000000000000000000000000000000000000000000000000000000000000000000000000000000000000000000000000000000000000000000000000000000000000000000000000000000000000000000000000000000000000000000000000000000000000000000000000000000000000000000000000000000000000000000000000000000000000000000000000000000000000000000000000000000000000000000000000000000000000000000000000000000000000000000000000000000000000000000000000000000000000000000000000000000000000000000000000000000000000c0"
                    }
                ],
                "rlp": "0xf902c8f9023ba0038e5e061b513391875c4c5adec777e26977b88f4973c84dce6bc604685e7f9ba01dcc4de8dec75d7aab85b567b6ccd41ad312451b948a7413f0a142fd40d49347942adc25665018aa1fe0e6bc666dac8fc2697ff9baa0fca7b51f13d562d9caa3aefa3e3ed603b3e746a51a8071f28014cc6e045a939fa0b2ce44fffb4bb486212c28b1410cab9c31802c136cf123ae7d42b9b8026aa734a0a464fcb51088d87ccfc15b6e9892a422ac120416e41b5b7b83ff0760dff8e36fb901000000000000000000000000000000000000000000000000000000000000000000000000000000000000000000000000000000000000000000000000000000000000000000000000000000000000000000000000000000000000000000000000000000000000000000000000000000000000000000000000000000000000000000000000000000000000000000000000000000000000000000000000000000000000000000000000000000000000000000000000000000000000000000000000000000000000000000000000000000000000000000000000000000000000000000000000000000000000000000000000000000000000000000000000000000000080018405f5e10083047cea8203e800a000000000000000000000000000000000000000000000000000000000000200008800000000000000000aa056e81f171bcc55a6ff8345e692c0f86e5b48e01b996cadc001622fb5e363b4218080a00000000000000000000000000000000000000000000000000000000000000000f886f884800a830493e094095e7baea6a6c7c4c2dfeb977efac326af552d8701a4a444f5e9000000000000000000000000000000000000000000000000000000000000030426a05fe7167f2123b8eba386618817a6ef61de99492d18db0d53093a185fa1bb9f28a01f0ec2060c3da65803ab26fca1b300744dee607cbc1b5ac4d4b8e3e043eb6d3dc0c0",
                "blocknumber": "1"
            }
        ],
        "sealEngine": "NoProof",
        "_info": {
            "hash": "0x42c3e31fc6254500407e91d468622b7c92959ecfaadd21549328c5a7c5022c93",
            "fixture-format": "blockchain_test",
            "comment": "`execution-specs` generated test",
            "filling-transition-tool": "2.19.0",
            "description": "Test_recursive_create_contracts.",
            "url": "https://github.com/ethereum/execution-specs/blob/tests-snobal-devnet-5@v8037.0.0/tests/ported_static/stSolidityTest/test_recursive_create_contracts.py#L26",
            "metadata": {
                "opcode_count": {}
            }
        }
    }
}