{
    "tests/ported_static/stCallDelegateCodesHomestead/test_callcodecallcallcode_101.py::test_callcodecallcallcode_101[fork_Cancun-blockchain_test_from_state_test]": {
        "network": "Cancun",
        "genesisBlockHeader": {
            "parentHash": "0x0000000000000000000000000000000000000000000000000000000000000000",
            "uncleHash": "0x1dcc4de8dec75d7aab85b567b6ccd41ad312451b948a7413f0a142fd40d49347",
            "coinbase": "0x0000000000000000000000000000000000000000",
            "stateRoot": "0x7dcc11d13928b8bd89c152097c37b0ed7f7b5747f83491e2dfed45c119a9b45a",
            "transactionsTrie": "0x56e81f171bcc55a6ff8345e692c0f86e5b48e01b996cadc001622fb5e363b421",
            "receiptTrie": "0x56e81f171bcc55a6ff8345e692c0f86e5b48e01b996cadc001622fb5e363b421",
            "bloom": "0x00000000000000000000000000000000000000000000000000000000000000000000000000000000000000000000000000000000000000000000000000000000000000000000000000000000000000000000000000000000000000000000000000000000000000000000000000000000000000000000000000000000000000000000000000000000000000000000000000000000000000000000000000000000000000000000000000000000000000000000000000000000000000000000000000000000000000000000000000000000000000000000000000000000000000000000000000000000000000000000000000000000000000000000000000000000",
            "difficulty": "0x00",
            "number": "0x00",
            "gasLimit": "0x01c9c380",
            "gasUsed": "0x00",
            "timestamp": "0x00",
            "extraData": "0x00",
            "mixHash": "0x0000000000000000000000000000000000000000000000000000000000000000",
            "nonce": "0x0000000000000000",
            "baseFeePerGas": "0x0b",
            "withdrawalsRoot": "0x56e81f171bcc55a6ff8345e692c0f86e5b48e01b996cadc001622fb5e363b421",
            "blobGasUsed": "0x00",
            "excessBlobGas": "0x00",
            "parentBeaconBlockRoot": "0x0000000000000000000000000000000000000000000000000000000000000000",
            "hash": "0xeb5e935c6f0542824d53ba45b474c2d996a2eaa61c6d11da74f6297a40a11cb4"
        },
        "pre": {
            "0x000f3df6d732807ef1319fb7b8bb8522d0beac02": {
                "nonce": "0x01",
                "balance": "0x00",
                "code": "0x3373fffffffffffffffffffffffffffffffffffffffe14604d57602036146024575f5ffd5b5f35801560495762001fff810690815414603c575f5ffd5b62001fff01545f5260205ff35b5f5ffd5b62001fff42064281555f359062001fff015500",
                "storage": {}
            },
            "0xd66f224cbd2fabb21b17bb53c56118f32f62ebd6": {
                "nonce": "0x00",
                "balance": "0x0de0b6b3a7640000",
                "code": "0x",
                "storage": {}
            },
            "0xddc8746bd83f161fca0564ef5a63daabc7ce8347": {
                "nonce": "0x00",
                "balance": "0x00",
                "code": "0x600160035533600455346007553061014a553261014c55366101505538610152553a6101545500",
                "storage": {}
            },
            "0x30ff0ef0a9dbf1e0ee1c9b1ecd5b4be6580cc150": {
                "nonce": "0x00",
                "balance": "0x0de0b6b3a7640000",
                "code": "0x604060006040600073ddc8746bd83f161fca0564ef5a63daabc7ce83476203d090f46002553360065500",
                "storage": {}
            },
            "0xe380e8b8268ec64894a8347dcbc26267fcebec43": {
                "nonce": "0x00",
                "balance": "0x0de0b6b3a7640000",
                "code": "0x604060006040600060017330ff0ef0a9dbf1e0ee1c9b1ecd5b4be6580cc150620493e0f16001553360055500",
                "storage": {}
            },
            "0x59eadd21fe38b44aa6435b9f7514d96f8f6e04c4": {
                "nonce": "0x00",
                "balance": "0x0de0b6b3a7640000",
                "code": "0x604060006040600073e380e8b8268ec64894a8347dcbc26267fcebec4362055730f460005500",
                "storage": {}
            }
        },
        "postState": {
            "0x000f3df6d732807ef1319fb7b8bb8522d0beac02": {
                "nonce": "0x01",
                "balance": "0x00",
                "code": "0x3373fffffffffffffffffffffffffffffffffffffffe14604d57602036146024575f5ffd5b5f35801560495762001fff810690815414603c575f5ffd5b62001fff01545f5260205ff35b5f5ffd5b62001fff42064281555f359062001fff015500",
                "storage": {
                    "0x03e8": "0x03e8"
                }
            },
            "0xd66f224cbd2fabb21b17bb53c56118f32f62ebd6": {
                "nonce": "0x01",
                "balance": "0x0de0b6b3a732b95a",
                "code": "0x",
                "storage": {}
            },
            "0xddc8746bd83f161fca0564ef5a63daabc7ce8347": {
                "nonce": "0x00",
                "balance": "0x00",
                "code": "0x600160035533600455346007553061014a553261014c55366101505538610152553a6101545500",
                "storage": {}
            },
            "0x30ff0ef0a9dbf1e0ee1c9b1ecd5b4be6580cc150": {
                "nonce": "0x00",
                "balance": "0x0de0b6b3a7640001",
                "code": "0x604060006040600073ddc8746bd83f161fca0564ef5a63daabc7ce83476203d090f46002553360065500",
                "storage": {
                    "0x03": "0x01",
                    "0x04": "0x59eadd21fe38b44aa6435b9f7514d96f8f6e04c4",
                    "0x07": "0x01",
                    "0x014a": "0x30ff0ef0a9dbf1e0ee1c9b1ecd5b4be6580cc150",
                    "0x014c": "0xd66f224cbd2fabb21b17bb53c56118f32f62ebd6",
                    "0x0150": "0x40",
                    "0x0152": "0x27",
                    "0x0154": "0x0a",
                    "0x02": "0x01",
                    "0x06": "0x59eadd21fe38b44aa6435b9f7514d96f8f6e04c4"
                }
            },
            "0xe380e8b8268ec64894a8347dcbc26267fcebec43": {
                "nonce": "0x00",
                "balance": "0x0de0b6b3a7640000",
                "code": "0x604060006040600060017330ff0ef0a9dbf1e0ee1c9b1ecd5b4be6580cc150620493e0f16001553360055500",
                "storage": {}
            },
            "0x59eadd21fe38b44aa6435b9f7514d96f8f6e04c4": {
                "nonce": "0x00",
                "balance": "0x0de0b6b3a763ffff",
                "code": "0x604060006040600073e380e8b8268ec64894a8347dcbc26267fcebec4362055730f460005500",
                "storage": {
                    "0x01": "0x01",
                    "0x05": "0xd66f224cbd2fabb21b17bb53c56118f32f62ebd6",
                    "0x00": "0x01"
                }
            }
        },
        "lastblockhash": "0xadc88bd560f9c2e8c1aecc0b7b8dc10efc8226e233592882a4772926a8021f09",
        "config": {
            "network": "Cancun",
            "chainid": "0x01",
            "blobSchedule": {
                "Cancun": {
                    "target": "0x03",
                    "max": "0x06",
                    "baseFeeUpdateFraction": "0x32f0ed"
                }
            }
        },
        "genesisRLP": "0xf9023cf90236a00000000000000000000000000000000000000000000000000000000000000000a01dcc4de8dec75d7aab85b567b6ccd41ad312451b948a7413f0a142fd40d49347940000000000000000000000000000000000000000a07dcc11d13928b8bd89c152097c37b0ed7f7b5747f83491e2dfed45c119a9b45aa056e81f171bcc55a6ff8345e692c0f86e5b48e01b996cadc001622fb5e363b421a056e81f171bcc55a6ff8345e692c0f86e5b48e01b996cadc001622fb5e363b421b901000000000000000000000000000000000000000000000000000000000000000000000000000000000000000000000000000000000000000000000000000000000000000000000000000000000000000000000000000000000000000000000000000000000000000000000000000000000000000000000000000000000000000000000000000000000000000000000000000000000000000000000000000000000000000000000000000000000000000000000000000000000000000000000000000000000000000000000000000000000000000000000000000000000000000000000000000000000000000000000000000000000000000000000000000000000080808401c9c380808000a000000000000000000000000000000000000000000000000000000000000000008800000000000000000ba056e81f171bcc55a6ff8345e692c0f86e5b48e01b996cadc001622fb5e363b4218080a00000000000000000000000000000000000000000000000000000000000000000c0c0c0",
        "blocks": [
            {
                "blockHeader": {
                    "parentHash": "0xeb5e935c6f0542824d53ba45b474c2d996a2eaa61c6d11da74f6297a40a11cb4",
                    "uncleHash": "0x1dcc4de8dec75d7aab85b567b6ccd41ad312451b948a7413f0a142fd40d49347",
                    "coinbase": "0x2adc25665018aa1fe0e6bc666dac8fc2697ff9ba",
                    "stateRoot": "0x3bf43daf013e04c208fcafd03d16e89e7da2c9eb30427e4e7b52a4b46bb5eb45",
                    "transactionsTrie": "0xe2b6183d8cd1af52f45840689c271270a5b67e448079f796ccec45fa0ee221c1",
                    "receiptTrie": "0xc7e5134004e1a60e963d51b332a9ea8e8dea062afb066b117038c8b5454bf748",
                    "bloom": "0x00000000000000000000000000000000000000000000000000000000000000000000000000000000000000000000000000000000000000000000000000000000000000000000000000000000000000000000000000000000000000000000000000000000000000000000000000000000000000000000000000000000000000000000000000000000000000000000000000000000000000000000000000000000000000000000000000000000000000000000000000000000000000000000000000000000000000000000000000000000000000000000000000000000000000000000000000000000000000000000000000000000000000000000000000000000",
                    "difficulty": "0x00",
                    "number": "0x01",
                    "gasLimit": "0x01c9c380",
                    "gasUsed": "0x04ed77",
                    "timestamp": "0x03e8",
                    "extraData": "0x00",
                    "mixHash": "0x0000000000000000000000000000000000000000000000000000000000020000",
                    "nonce": "0x0000000000000000",
                    "baseFeePerGas": "0x0a",
                    "withdrawalsRoot": "0x56e81f171bcc55a6ff8345e692c0f86e5b48e01b996cadc001622fb5e363b421",
                    "blobGasUsed": "0x00",
                    "excessBlobGas": "0x00",
                    "parentBeaconBlockRoot": "0x0000000000000000000000000000000000000000000000000000000000000000",
                    "hash": "0xadc88bd560f9c2e8c1aecc0b7b8dc10efc8226e233592882a4772926a8021f09"
                },
                "transactions": [
                    {
                        "type": "0x00",
                        "chainId": "0x01",
                        "nonce": "0x00",
                        "gasPrice": "0x0a",
                        "gasLimit": "0x2dc6c0",
                        "to": "0x59eadd21fe38b44aa6435b9f7514d96f8f6e04c4",
                        "value": "0x00",
                        "data": "0x",
                        "v": "0x25",
                        "r": "0x0a6becde5462eb4b7418074aa2a9c4ca1e4351e1abcb8439834ac0cc9e95a7d2",
                        "s": "0x27b591321dc25e0369c6753f84bca10ba9b4dc3451677caac3f13a799f1708e7",
                        "sender": "0xd66f224cbd2fabb21b17bb53c56118f32f62ebd6"
                    }
                ],
                "uncleHeaders": [],
                "withdrawals": [],
                "receipts": [
                    {
                        "transactionHash": "0x0c7eb652e1f6ab7fda002d0074a20bd6b5ac7c99f4a07be72c96dbf7e76c0e34",
                        "type": "0x00",
                        "cumulativeGasUsed": "0x04ed77",
                        "bloom": "0x00000000000000000000000000000000000000000000000000000000000000000000000000000000000000000000000000000000000000000000000000000000000000000000000000000000000000000000000000000000000000000000000000000000000000000000000000000000000000000000000000000000000000000000000000000000000000000000000000000000000000000000000000000000000000000000000000000000000000000000000000000000000000000000000000000000000000000000000000000000000000000000000000000000000000000000000000000000000000000000000000000000000000000000000000000000",
                        "logs": [],
                        "status": true,
                        "rlp": "0xf90109018304ed77b9010000000000000000000000000000000000000000000000000000000000000000000000000000000000000000000000000000000000000000000000000000000000000000000000000000000000000000000000000000000000000000000000000000000000000000000000000000000000000000000000000000000000000000000000000000000000000000000000000000000000000000000000000000000000000000000000000000000000000000000000000000000000000000000000000000000000000000000000000000000000000000000000000000000000000000000000000000000000000000000000000000000000000000000000000000000000c0"
                    }
                ],
                "rlp": "0xf902a4f9023ba0eb5e935c6f0542824d53ba45b474c2d996a2eaa61c6d11da74f6297a40a11cb4a01dcc4de8dec75d7aab85b567b6ccd41ad312451b948a7413f0a142fd40d49347942adc25665018aa1fe0e6bc666dac8fc2697ff9baa03bf43daf013e04c208fcafd03d16e89e7da2c9eb30427e4e7b52a4b46bb5eb45a0e2b6183d8cd1af52f45840689c271270a5b67e448079f796ccec45fa0ee221c1a0c7e5134004e1a60e963d51b332a9ea8e8dea062afb066b117038c8b5454bf748b901000000000000000000000000000000000000000000000000000000000000000000000000000000000000000000000000000000000000000000000000000000000000000000000000000000000000000000000000000000000000000000000000000000000000000000000000000000000000000000000000000000000000000000000000000000000000000000000000000000000000000000000000000000000000000000000000000000000000000000000000000000000000000000000000000000000000000000000000000000000000000000000000000000000000000000000000000000000000000000000000000000000000000000000000000000000080018401c9c3808304ed778203e800a000000000000000000000000000000000000000000000000000000000000200008800000000000000000aa056e81f171bcc55a6ff8345e692c0f86e5b48e01b996cadc001622fb5e363b4218080a00000000000000000000000000000000000000000000000000000000000000000f862f860800a832dc6c09459eadd21fe38b44aa6435b9f7514d96f8f6e04c4808025a00a6becde5462eb4b7418074aa2a9c4ca1e4351e1abcb8439834ac0cc9e95a7d2a027b591321dc25e0369c6753f84bca10ba9b4dc3451677caac3f13a799f1708e7c0c0",
                "blocknumber": "1"
            }
        ],
        "sealEngine": "NoProof",
        "_info": {
            "hash": "0xc230cde0b841b5ffa77e626fd20822014b406b9ba70dbe6e839081bbcc0433b5",
            "fixture-format": "blockchain_test",
            "comment": "`execution-specs` generated test",
            "filling-transition-tool": "2.19.0",
            "description": "Test_callcodecallcallcode_101.",
            "url": "https://github.com/ethereum/execution-specs/blob/tests-snobal-devnet-5@v8037.0.0/tests/ported_static/stCallDelegateCodesHomestead/test_callcodecallcallcode_101.py#L24",
            "metadata": {
                "opcode_count": {}
            }
        }
    }
}