{
    "tests/frontier/create/test_create_suicide_store.py::test_create_suicide_store[fork_Cancun-create_opcode_CREATE-blockchain_test_from_state_test]": {
        "network": "Cancun",
        "genesisBlockHeader": {
            "parentHash": "0x0000000000000000000000000000000000000000000000000000000000000000",
            "uncleHash": "0x1dcc4de8dec75d7aab85b567b6ccd41ad312451b948a7413f0a142fd40d49347",
            "coinbase": "0x0000000000000000000000000000000000000000",
            "stateRoot": "0x0ef4b00f542fc309c802fc8ee31b3a0797f401ab760c28287e193bd114d68f44",
            "transactionsTrie": "0x56e81f171bcc55a6ff8345e692c0f86e5b48e01b996cadc001622fb5e363b421",
            "receiptTrie": "0x56e81f171bcc55a6ff8345e692c0f86e5b48e01b996cadc001622fb5e363b421",
            "bloom": "0x00000000000000000000000000000000000000000000000000000000000000000000000000000000000000000000000000000000000000000000000000000000000000000000000000000000000000000000000000000000000000000000000000000000000000000000000000000000000000000000000000000000000000000000000000000000000000000000000000000000000000000000000000000000000000000000000000000000000000000000000000000000000000000000000000000000000000000000000000000000000000000000000000000000000000000000000000000000000000000000000000000000000000000000000000000000",
            "difficulty": "0x00",
            "number": "0x00",
            "gasLimit": "0x07270e00",
            "gasUsed": "0x00",
            "timestamp": "0x00",
            "extraData": "0x00",
            "mixHash": "0x0000000000000000000000000000000000000000000000000000000000000000",
            "nonce": "0x0000000000000000",
            "baseFeePerGas": "0x07",
            "withdrawalsRoot": "0x56e81f171bcc55a6ff8345e692c0f86e5b48e01b996cadc001622fb5e363b421",
            "blobGasUsed": "0x00",
            "excessBlobGas": "0x00",
            "parentBeaconBlockRoot": "0x0000000000000000000000000000000000000000000000000000000000000000",
            "hash": "0x35e8af2500b592cef9c79fb42d91cc5c2ee37a654df40d783f118cd733940143"
        },
        "pre": {
            "0x000f3df6d732807ef1319fb7b8bb8522d0beac02": {
                "nonce": "0x01",
                "balance": "0x00",
                "code": "0x3373fffffffffffffffffffffffffffffffffffffffe14604d57602036146024575f5ffd5b5f35801560495762001fff810690815414603c575f5ffd5b62001fff01545f5260205ff35b5f5ffd5b62001fff42064281555f359062001fff015500",
                "storage": {}
            },
            "0x1ad9bc24818784172ff393bb6f89f094d4d2ca29": {
                "nonce": "0x00",
                "balance": "0x3635c9adc5dea00000",
                "code": "0x",
                "storage": {}
            },
            "0x17daeaaddf731eb9f66237055d365d3d2d6e8050": {
                "nonce": "0x01",
                "balance": "0x00",
                "code": "0x3660006000373660006000f0600055600260405260006000602060406000600054620493e05a03f1600160405260006000602060406000600054620493e05a03f1600260405260006000602060406000600054620493e05a03f1600360405260206064602060406000600054620493e05a03f16064516001556001600255",
                "storage": {}
            }
        },
        "postState": {
            "0x000f3df6d732807ef1319fb7b8bb8522d0beac02": {
                "nonce": "0x01",
                "balance": "0x00",
                "code": "0x3373fffffffffffffffffffffffffffffffffffffffe14604d57602036146024575f5ffd5b5f35801560495762001fff810690815414603c575f5ffd5b62001fff01545f5260205ff35b5f5ffd5b62001fff42064281555f359062001fff015500",
                "storage": {
                    "0x03e8": "0x03e8"
                }
            },
            "0x1ad9bc24818784172ff393bb6f89f094d4d2ca29": {
                "nonce": "0x01",
                "balance": "0x3635c9adc5de8538e2",
                "code": "0x",
                "storage": {}
            },
            "0x17daeaaddf731eb9f66237055d365d3d2d6e8050": {
                "nonce": "0x02",
                "balance": "0x00",
                "code": "0x3660006000373660006000f0600055600260405260006000602060406000600054620493e05a03f1600160405260006000602060406000600054620493e05a03f1600260405260006000602060406000600054620493e05a03f1600360405260206064602060406000600054620493e05a03f16064516001556001600255",
                "storage": {
                    "0x00": "0x4b1635e9d50ed49ddb11398a53ff2836b9f1bc0e",
                    "0x01": "0x48",
                    "0x02": "0x01"
                }
            },
            "0x2adc25665018aa1fe0e6bc666dac8fc2697ff9ba": {
                "nonce": "0x00",
                "balance": "0x080889",
                "code": "0x",
                "storage": {}
            }
        },
        "lastblockhash": "0x0fdefe25f4c1b4d4d4038fd609c6c4a73a79c5da22509471092816c041384b74",
        "config": {
            "network": "Cancun",
            "chainid": "0x01",
            "blobSchedule": {
                "Cancun": {
                    "target": "0x03",
                    "max": "0x06",
                    "baseFeeUpdateFraction": "0x32f0ed"
                }
            }
        },
        "genesisRLP": "0xf9023cf90236a00000000000000000000000000000000000000000000000000000000000000000a01dcc4de8dec75d7aab85b567b6ccd41ad312451b948a7413f0a142fd40d49347940000000000000000000000000000000000000000a00ef4b00f542fc309c802fc8ee31b3a0797f401ab760c28287e193bd114d68f44a056e81f171bcc55a6ff8345e692c0f86e5b48e01b996cadc001622fb5e363b421a056e81f171bcc55a6ff8345e692c0f86e5b48e01b996cadc001622fb5e363b421b901000000000000000000000000000000000000000000000000000000000000000000000000000000000000000000000000000000000000000000000000000000000000000000000000000000000000000000000000000000000000000000000000000000000000000000000000000000000000000000000000000000000000000000000000000000000000000000000000000000000000000000000000000000000000000000000000000000000000000000000000000000000000000000000000000000000000000000000000000000000000000000000000000000000000000000000000000000000000000000000000000000000000000000000000000000000080808407270e00808000a0000000000000000000000000000000000000000000000000000000000000000088000000000000000007a056e81f171bcc55a6ff8345e692c0f86e5b48e01b996cadc001622fb5e363b4218080a00000000000000000000000000000000000000000000000000000000000000000c0c0c0",
        "blocks": [
            {
                "blockHeader": {
                    "parentHash": "0x35e8af2500b592cef9c79fb42d91cc5c2ee37a654df40d783f118cd733940143",
                    "uncleHash": "0x1dcc4de8dec75d7aab85b567b6ccd41ad312451b948a7413f0a142fd40d49347",
                    "coinbase": "0x2adc25665018aa1fe0e6bc666dac8fc2697ff9ba",
                    "stateRoot": "0xcddaf320ed8f583c2a9789d24e29effccdd22d4b26acef30db5e445ff2d789fc",
                    "transactionsTrie": "0xe49cc69a9e71413985837e05ced633594c57520de7f376c30e5285f825eb061f",
                    "receiptTrie": "0x87bb61e11d459e40a69c255057f38b3cea9010c40f24906329691fb7b7e7158d",
                    "bloom": "0x00000000000000000000000000000000000000000000000000000000000000000000000000000000000000000000000000000000000000000000000000000000000000000000000000000000000000000000000000000000000000000000000000000000000000000000000000000000000000000000000000000000000000000000000000000000000000000000000000000000000000000000000000000000000000000000000000000000000000000000000000000000000000000000000000000000000000000000000000000000000000000000000000000000000000000000000000000000000000000000000000000000000000000000000000000000",
                    "difficulty": "0x00",
                    "number": "0x01",
                    "gasLimit": "0x07270e00",
                    "gasUsed": "0x02ad83",
                    "timestamp": "0x03e8",
                    "extraData": "0x00",
                    "mixHash": "0x0000000000000000000000000000000000000000000000000000000000000000",
                    "nonce": "0x0000000000000000",
                    "baseFeePerGas": "0x07",
                    "withdrawalsRoot": "0x56e81f171bcc55a6ff8345e692c0f86e5b48e01b996cadc001622fb5e363b421",
                    "blobGasUsed": "0x00",
                    "excessBlobGas": "0x00",
                    "parentBeaconBlockRoot": "0x0000000000000000000000000000000000000000000000000000000000000000",
                    "hash": "0x0fdefe25f4c1b4d4d4038fd609c6c4a73a79c5da22509471092816c041384b74"
                },
                "transactions": [
                    {
                        "type": "0x00",
                        "chainId": "0x01",
                        "nonce": "0x00",
                        "gasPrice": "0x0a",
                        "gasLimit": "0x0f4240",
                        "to": "0x17daeaaddf731eb9f66237055d365d3d2d6e8050",
                        "value": "0x00",
                        "data": "0x610070600081600b8239f3600160003514604b58015760026000351460285801576003600035146008580157604c5801565b60015c6001540160005260206000f360375801565b601260015401600155601260015c0160015d601f5801565b73c0f6dc9e5836f54caadbf59cc69346c508e1992bff60035801565b",
                        "v": "0x25",
                        "r": "0xc2f719ead7c7c0f8fcf850318c60e902f077ffda5946566115b2ffac7cc801b2",
                        "s": "0x424f3798ca25a77edb5cf8cca6d7f0981ad0464f42c02008178d82ad5fccda8d",
                        "sender": "0x1ad9bc24818784172ff393bb6f89f094d4d2ca29"
                    }
                ],
                "uncleHeaders": [],
                "withdrawals": [],
                "receipts": [
                    {
                        "transactionHash": "0x7bb9af12ad9f78468af8566a1062c6b8db5d9dc46f58f99ca2eb12fffdb2d361",
                        "type": "0x00",
                        "cumulativeGasUsed": "0x02ad83",
                        "bloom": "0x00000000000000000000000000000000000000000000000000000000000000000000000000000000000000000000000000000000000000000000000000000000000000000000000000000000000000000000000000000000000000000000000000000000000000000000000000000000000000000000000000000000000000000000000000000000000000000000000000000000000000000000000000000000000000000000000000000000000000000000000000000000000000000000000000000000000000000000000000000000000000000000000000000000000000000000000000000000000000000000000000000000000000000000000000000000",
                        "logs": [],
                        "status": true,
                        "rlp": "0xf90109018302ad83b9010000000000000000000000000000000000000000000000000000000000000000000000000000000000000000000000000000000000000000000000000000000000000000000000000000000000000000000000000000000000000000000000000000000000000000000000000000000000000000000000000000000000000000000000000000000000000000000000000000000000000000000000000000000000000000000000000000000000000000000000000000000000000000000000000000000000000000000000000000000000000000000000000000000000000000000000000000000000000000000000000000000000000000000000000000000000c0"
                    }
                ],
                "rlp": "0xf90320f9023ba035e8af2500b592cef9c79fb42d91cc5c2ee37a654df40d783f118cd733940143a01dcc4de8dec75d7aab85b567b6ccd41ad312451b948a7413f0a142fd40d49347942adc25665018aa1fe0e6bc666dac8fc2697ff9baa0cddaf320ed8f583c2a9789d24e29effccdd22d4b26acef30db5e445ff2d789fca0e49cc69a9e71413985837e05ced633594c57520de7f376c30e5285f825eb061fa087bb61e11d459e40a69c255057f38b3cea9010c40f24906329691fb7b7e7158db901000000000000000000000000000000000000000000000000000000000000000000000000000000000000000000000000000000000000000000000000000000000000000000000000000000000000000000000000000000000000000000000000000000000000000000000000000000000000000000000000000000000000000000000000000000000000000000000000000000000000000000000000000000000000000000000000000000000000000000000000000000000000000000000000000000000000000000000000000000000000000000000000000000000000000000000000000000000000000000000000000000000000000000000000000000000080018407270e008302ad838203e800a0000000000000000000000000000000000000000000000000000000000000000088000000000000000007a056e81f171bcc55a6ff8345e692c0f86e5b48e01b996cadc001622fb5e363b4218080a00000000000000000000000000000000000000000000000000000000000000000f8def8dc800a830f42409417daeaaddf731eb9f66237055d365d3d2d6e805080b87b610070600081600b8239f3600160003514604b58015760026000351460285801576003600035146008580157604c5801565b60015c6001540160005260206000f360375801565b601260015401600155601260015c0160015d601f5801565b73c0f6dc9e5836f54caadbf59cc69346c508e1992bff60035801565b25a0c2f719ead7c7c0f8fcf850318c60e902f077ffda5946566115b2ffac7cc801b2a0424f3798ca25a77edb5cf8cca6d7f0981ad0464f42c02008178d82ad5fccda8dc0c0",
                "blocknumber": "1"
            }
        ],
        "sealEngine": "NoProof",
        "_info": {
            "hash": "0xe4f635dffdec4c138e01f4b6d282f360ba098c19881fc8a728b34b5014d7182c",
            "fixture-format": "blockchain_test",
            "comment": "`execution-specs` generated test",
            "filling-transition-tool": "2.19.0",
            "description": "Create a dynamic contract that self-destructs, then call it to store some\ndata and then call it again to return that storage value.",
            "url": "https://github.com/ethereum/execution-specs/blob/tests-bal@v5.6.1/tests/frontier/create/test_create_suicide_store.py#L32",
            "metadata": {
                "opcode_count": {}
            }
        }
    },
    "tests/frontier/create/test_create_suicide_store.py::test_create_suicide_store[fork_Cancun-create_opcode_CREATE2-blockchain_test_from_state_test]": {
        "network": "Cancun",
        "genesisBlockHeader": {
            "parentHash": "0x0000000000000000000000000000000000000000000000000000000000000000",
            "uncleHash": "0x1dcc4de8dec75d7aab85b567b6ccd41ad312451b948a7413f0a142fd40d49347",
            "coinbase": "0x0000000000000000000000000000000000000000",
            "stateRoot": "0x0f0c34b2d8fb324df0572d4d87aa2fcd7d03853165b496f60ce15f7d9f0a7617",
            "transactionsTrie": "0x56e81f171bcc55a6ff8345e692c0f86e5b48e01b996cadc001622fb5e363b421",
            "receiptTrie": "0x56e81f171bcc55a6ff8345e692c0f86e5b48e01b996cadc001622fb5e363b421",
            "bloom": "0x00000000000000000000000000000000000000000000000000000000000000000000000000000000000000000000000000000000000000000000000000000000000000000000000000000000000000000000000000000000000000000000000000000000000000000000000000000000000000000000000000000000000000000000000000000000000000000000000000000000000000000000000000000000000000000000000000000000000000000000000000000000000000000000000000000000000000000000000000000000000000000000000000000000000000000000000000000000000000000000000000000000000000000000000000000000",
            "difficulty": "0x00",
            "number": "0x00",
            "gasLimit": "0x07270e00",
            "gasUsed": "0x00",
            "timestamp": "0x00",
            "extraData": "0x00",
            "mixHash": "0x0000000000000000000000000000000000000000000000000000000000000000",
            "nonce": "0x0000000000000000",
            "baseFeePerGas": "0x07",
            "withdrawalsRoot": "0x56e81f171bcc55a6ff8345e692c0f86e5b48e01b996cadc001622fb5e363b421",
            "blobGasUsed": "0x00",
            "excessBlobGas": "0x00",
            "parentBeaconBlockRoot": "0x0000000000000000000000000000000000000000000000000000000000000000",
            "hash": "0xd93d050fec1fa51381cab7cdfc381d2f0ed54e419429bdc2b90365b13e8df575"
        },
        "pre": {
            "0x000f3df6d732807ef1319fb7b8bb8522d0beac02": {
                "nonce": "0x01",
                "balance": "0x00",
                "code": "0x3373fffffffffffffffffffffffffffffffffffffffe14604d57602036146024575f5ffd5b5f35801560495762001fff810690815414603c575f5ffd5b62001fff01545f5260205ff35b5f5ffd5b62001fff42064281555f359062001fff015500",
                "storage": {}
            },
            "0x1ad9bc24818784172ff393bb6f89f094d4d2ca29": {
                "nonce": "0x00",
                "balance": "0x3635c9adc5dea00000",
                "code": "0x",
                "storage": {}
            },
            "0xc1a66b5c6a64e3e0031be1e329b34ca971f5730b": {
                "nonce": "0x01",
                "balance": "0x00",
                "code": "0x36600060003760003660006000f5600055600260405260006000602060406000600054620493e05a03f1600160405260006000602060406000600054620493e05a03f1600260405260006000602060406000600054620493e05a03f1600360405260206064602060406000600054620493e05a03f16064516001556001600255",
                "storage": {}
            }
        },
        "postState": {
            "0x000f3df6d732807ef1319fb7b8bb8522d0beac02": {
                "nonce": "0x01",
                "balance": "0x00",
                "code": "0x3373fffffffffffffffffffffffffffffffffffffffe14604d57602036146024575f5ffd5b5f35801560495762001fff810690815414603c575f5ffd5b62001fff01545f5260205ff35b5f5ffd5b62001fff42064281555f359062001fff015500",
                "storage": {
                    "0x03e8": "0x03e8"
                }
            },
            "0x1ad9bc24818784172ff393bb6f89f094d4d2ca29": {
                "nonce": "0x01",
                "balance": "0x3635c9adc5de8537d4",
                "code": "0x",
                "storage": {}
            },
            "0xc1a66b5c6a64e3e0031be1e329b34ca971f5730b": {
                "nonce": "0x02",
                "balance": "0x00",
                "code": "0x36600060003760003660006000f5600055600260405260006000602060406000600054620493e05a03f1600160405260006000602060406000600054620493e05a03f1600260405260006000602060406000600054620493e05a03f1600360405260206064602060406000600054620493e05a03f16064516001556001600255",
                "storage": {
                    "0x00": "0x771e3fe1b778723c09b0ca391af56fc2b84926ff",
                    "0x01": "0x48",
                    "0x02": "0x01"
                }
            },
            "0x2adc25665018aa1fe0e6bc666dac8fc2697ff9ba": {
                "nonce": "0x00",
                "balance": "0x0808da",
                "code": "0x",
                "storage": {}
            }
        },
        "lastblockhash": "0x0588659d3f9af51cb85adf8546e22ba52b6b939167451e8572e0d4cc53c76da6",
        "config": {
            "network": "Cancun",
            "chainid": "0x01",
            "blobSchedule": {
                "Cancun": {
                    "target": "0x03",
                    "max": "0x06",
                    "baseFeeUpdateFraction": "0x32f0ed"
                }
            }
        },
        "genesisRLP": "0xf9023cf90236a00000000000000000000000000000000000000000000000000000000000000000a01dcc4de8dec75d7aab85b567b6ccd41ad312451b948a7413f0a142fd40d49347940000000000000000000000000000000000000000a00f0c34b2d8fb324df0572d4d87aa2fcd7d03853165b496f60ce15f7d9f0a7617a056e81f171bcc55a6ff8345e692c0f86e5b48e01b996cadc001622fb5e363b421a056e81f171bcc55a6ff8345e692c0f86e5b48e01b996cadc001622fb5e363b421b901000000000000000000000000000000000000000000000000000000000000000000000000000000000000000000000000000000000000000000000000000000000000000000000000000000000000000000000000000000000000000000000000000000000000000000000000000000000000000000000000000000000000000000000000000000000000000000000000000000000000000000000000000000000000000000000000000000000000000000000000000000000000000000000000000000000000000000000000000000000000000000000000000000000000000000000000000000000000000000000000000000000000000000000000000000000080808407270e00808000a0000000000000000000000000000000000000000000000000000000000000000088000000000000000007a056e81f171bcc55a6ff8345e692c0f86e5b48e01b996cadc001622fb5e363b4218080a00000000000000000000000000000000000000000000000000000000000000000c0c0c0",
        "blocks": [
            {
                "blockHeader": {
                    "parentHash": "0xd93d050fec1fa51381cab7cdfc381d2f0ed54e419429bdc2b90365b13e8df575",
                    "uncleHash": "0x1dcc4de8dec75d7aab85b567b6ccd41ad312451b948a7413f0a142fd40d49347",
                    "coinbase": "0x2adc25665018aa1fe0e6bc666dac8fc2697ff9ba",
                    "stateRoot": "0xf5e5fad72bbb785bc594f6c52b0e2101ff67433c00a7fa1f5ad3821684846566",
                    "transactionsTrie": "0x505217d988de25915c5ddcecb7e5d3c9a52fd2af48fc3d0c604028690e4e0ec9",
                    "receiptTrie": "0x88664ce02636aa3651236050e9e1b15f5e43def9cd83ee01ade717b87a5d2b87",
                    "bloom": "0x00000000000000000000000000000000000000000000000000000000000000000000000000000000000000000000000000000000000000000000000000000000000000000000000000000000000000000000000000000000000000000000000000000000000000000000000000000000000000000000000000000000000000000000000000000000000000000000000000000000000000000000000000000000000000000000000000000000000000000000000000000000000000000000000000000000000000000000000000000000000000000000000000000000000000000000000000000000000000000000000000000000000000000000000000000000",
                    "difficulty": "0x00",
                    "number": "0x01",
                    "gasLimit": "0x07270e00",
                    "gasUsed": "0x02ad9e",
                    "timestamp": "0x03e8",
                    "extraData": "0x00",
                    "mixHash": "0x0000000000000000000000000000000000000000000000000000000000000000",
                    "nonce": "0x0000000000000000",
                    "baseFeePerGas": "0x07",
                    "withdrawalsRoot": "0x56e81f171bcc55a6ff8345e692c0f86e5b48e01b996cadc001622fb5e363b421",
                    "blobGasUsed": "0x00",
                    "excessBlobGas": "0x00",
                    "parentBeaconBlockRoot": "0x0000000000000000000000000000000000000000000000000000000000000000",
                    "hash": "0x0588659d3f9af51cb85adf8546e22ba52b6b939167451e8572e0d4cc53c76da6"
                },
                "transactions": [
                    {
                        "type": "0x00",
                        "chainId": "0x01",
                        "nonce": "0x00",
                        "gasPrice": "0x0a",
                        "gasLimit": "0x0f4240",
                        "to": "0xc1a66b5c6a64e3e0031be1e329b34ca971f5730b",
                        "value": "0x00",
                        "data": "0x610070600081600b8239f3600160003514604b58015760026000351460285801576003600035146008580157604c5801565b60015c6001540160005260206000f360375801565b601260015401600155601260015c0160015d601f5801565b73c0f6dc9e5836f54caadbf59cc69346c508e1992bff60035801565b",
                        "v": "0x25",
                        "r": "0x2c397f11502671187cab7b60a2827c82c1a073d74431de7d9eddd603c9cad0cf",
                        "s": "0x663bb9cc68ba6ba398bd4546903ec35c8de7dc6733f3078eb25bdcdb90e0761a",
                        "sender": "0x1ad9bc24818784172ff393bb6f89f094d4d2ca29"
                    }
                ],
                "uncleHeaders": [],
                "withdrawals": [],
                "receipts": [
                    {
                        "transactionHash": "0x3daa42fdfa15e59d88a1cf762650ca2d2dae35baf67482c86d98db05014c00a4",
                        "type": "0x00",
                        "cumulativeGasUsed": "0x02ad9e",
                        "bloom": "0x00000000000000000000000000000000000000000000000000000000000000000000000000000000000000000000000000000000000000000000000000000000000000000000000000000000000000000000000000000000000000000000000000000000000000000000000000000000000000000000000000000000000000000000000000000000000000000000000000000000000000000000000000000000000000000000000000000000000000000000000000000000000000000000000000000000000000000000000000000000000000000000000000000000000000000000000000000000000000000000000000000000000000000000000000000000",
                        "logs": [],
                        "status": true,
                        "rlp": "0xf90109018302ad9eb9010000000000000000000000000000000000000000000000000000000000000000000000000000000000000000000000000000000000000000000000000000000000000000000000000000000000000000000000000000000000000000000000000000000000000000000000000000000000000000000000000000000000000000000000000000000000000000000000000000000000000000000000000000000000000000000000000000000000000000000000000000000000000000000000000000000000000000000000000000000000000000000000000000000000000000000000000000000000000000000000000000000000000000000000000000000000c0"
                    }
                ],
                "rlp": "0xf90320f9023ba0d93d050fec1fa51381cab7cdfc381d2f0ed54e419429bdc2b90365b13e8df575a01dcc4de8dec75d7aab85b567b6ccd41ad312451b948a7413f0a142fd40d49347942adc25665018aa1fe0e6bc666dac8fc2697ff9baa0f5e5fad72bbb785bc594f6c52b0e2101ff67433c00a7fa1f5ad3821684846566a0505217d988de25915c5ddcecb7e5d3c9a52fd2af48fc3d0c604028690e4e0ec9a088664ce02636aa3651236050e9e1b15f5e43def9cd83ee01ade717b87a5d2b87b901000000000000000000000000000000000000000000000000000000000000000000000000000000000000000000000000000000000000000000000000000000000000000000000000000000000000000000000000000000000000000000000000000000000000000000000000000000000000000000000000000000000000000000000000000000000000000000000000000000000000000000000000000000000000000000000000000000000000000000000000000000000000000000000000000000000000000000000000000000000000000000000000000000000000000000000000000000000000000000000000000000000000000000000000000000000080018407270e008302ad9e8203e800a0000000000000000000000000000000000000000000000000000000000000000088000000000000000007a056e81f171bcc55a6ff8345e692c0f86e5b48e01b996cadc001622fb5e363b4218080a00000000000000000000000000000000000000000000000000000000000000000f8def8dc800a830f424094c1a66b5c6a64e3e0031be1e329b34ca971f5730b80b87b610070600081600b8239f3600160003514604b58015760026000351460285801576003600035146008580157604c5801565b60015c6001540160005260206000f360375801565b601260015401600155601260015c0160015d601f5801565b73c0f6dc9e5836f54caadbf59cc69346c508e1992bff60035801565b25a02c397f11502671187cab7b60a2827c82c1a073d74431de7d9eddd603c9cad0cfa0663bb9cc68ba6ba398bd4546903ec35c8de7dc6733f3078eb25bdcdb90e0761ac0c0",
                "blocknumber": "1"
            }
        ],
        "sealEngine": "NoProof",
        "_info": {
            "hash": "0x03f2b5ebd570f94b10d6e5b148af132295127f04385387ef9142152372f1a469",
            "fixture-format": "blockchain_test",
            "comment": "`execution-specs` generated test",
            "filling-transition-tool": "2.19.0",
            "description": "Create a dynamic contract that self-destructs, then call it to store some\ndata and then call it again to return that storage value.",
            "url": "https://github.com/ethereum/execution-specs/blob/tests-bal@v5.6.1/tests/frontier/create/test_create_suicide_store.py#L32",
            "metadata": {
                "opcode_count": {}
            }
        }
    }
}