{
    "tests/ported_static/stRevertTest/test_loop_delegate_calls_depth_then_revert.py::test_loop_delegate_calls_depth_then_revert[fork_Cancun-blockchain_test_from_state_test]": {
        "network": "Cancun",
        "genesisBlockHeader": {
            "parentHash": "0x0000000000000000000000000000000000000000000000000000000000000000",
            "uncleHash": "0x1dcc4de8dec75d7aab85b567b6ccd41ad312451b948a7413f0a142fd40d49347",
            "coinbase": "0x0000000000000000000000000000000000000000",
            "stateRoot": "0xd3a5151391b945e9f2fde6c9d6399fad24c5a9df61a6888b923fb156b92972a4",
            "transactionsTrie": "0x56e81f171bcc55a6ff8345e692c0f86e5b48e01b996cadc001622fb5e363b421",
            "receiptTrie": "0x56e81f171bcc55a6ff8345e692c0f86e5b48e01b996cadc001622fb5e363b421",
            "bloom": "0x00000000000000000000000000000000000000000000000000000000000000000000000000000000000000000000000000000000000000000000000000000000000000000000000000000000000000000000000000000000000000000000000000000000000000000000000000000000000000000000000000000000000000000000000000000000000000000000000000000000000000000000000000000000000000000000000000000000000000000000000000000000000000000000000000000000000000000000000000000000000000000000000000000000000000000000000000000000000000000000000000000000000000000000000000000000",
            "difficulty": "0x00",
            "number": "0x00",
            "gasLimit": "0x05f5e100",
            "gasUsed": "0x00",
            "timestamp": "0x00",
            "extraData": "0x00",
            "mixHash": "0x0000000000000000000000000000000000000000000000000000000000000000",
            "nonce": "0x0000000000000000",
            "baseFeePerGas": "0x0b",
            "withdrawalsRoot": "0x56e81f171bcc55a6ff8345e692c0f86e5b48e01b996cadc001622fb5e363b421",
            "blobGasUsed": "0x00",
            "excessBlobGas": "0x00",
            "parentBeaconBlockRoot": "0x0000000000000000000000000000000000000000000000000000000000000000",
            "hash": "0x9564b81f54620a709da9c01cd50370924b6a304385d8e2383fc4a8ca4f7304cf"
        },
        "pre": {
            "0x000f3df6d732807ef1319fb7b8bb8522d0beac02": {
                "nonce": "0x01",
                "balance": "0x00",
                "code": "0x3373fffffffffffffffffffffffffffffffffffffffe14604d57602036146024575f5ffd5b5f35801560495762001fff810690815414603c575f5ffd5b62001fff01545f5260205ff35b5f5ffd5b62001fff42064281555f359062001fff015500",
                "storage": {}
            },
            "0xd719ccdb2301950b0a0bdf09a2bb1d5f8b225f6f": {
                "nonce": "0x00",
                "balance": "0xe8d4a51000",
                "code": "0x",
                "storage": {}
            },
            "0xb0923c4a632de291fcdac653e6c6cc2b4e4cdfa8": {
                "nonce": "0x00",
                "balance": "0x00",
                "code": "0x600160005401600055600060006000600073f798cb78490da31dfacdcd1f2b3fb1948bb2b2285af400",
                "storage": {}
            },
            "0xf798cb78490da31dfacdcd1f2b3fb1948bb2b228": {
                "nonce": "0x00",
                "balance": "0x00",
                "code": "0x600160005401600055600060006000600073b0923c4a632de291fcdac653e6c6cc2b4e4cdfa85af400",
                "storage": {}
            }
        },
        "postState": {
            "0x000f3df6d732807ef1319fb7b8bb8522d0beac02": {
                "nonce": "0x01",
                "balance": "0x00",
                "code": "0x3373fffffffffffffffffffffffffffffffffffffffe14604d57602036146024575f5ffd5b5f35801560495762001fff810690815414603c575f5ffd5b62001fff01545f5260205ff35b5f5ffd5b62001fff42064281555f359062001fff015500",
                "storage": {
                    "0x03e8": "0x03e8"
                }
            },
            "0xd719ccdb2301950b0a0bdf09a2bb1d5f8b225f6f": {
                "nonce": "0x01",
                "balance": "0xe8d48a6d9a",
                "code": "0x",
                "storage": {}
            },
            "0xb0923c4a632de291fcdac653e6c6cc2b4e4cdfa8": {
                "nonce": "0x00",
                "balance": "0x00",
                "code": "0x600160005401600055600060006000600073f798cb78490da31dfacdcd1f2b3fb1948bb2b2285af400",
                "storage": {
                    "0x00": "0x0182"
                }
            },
            "0xf798cb78490da31dfacdcd1f2b3fb1948bb2b228": {
                "nonce": "0x00",
                "balance": "0x00",
                "code": "0x600160005401600055600060006000600073b0923c4a632de291fcdac653e6c6cc2b4e4cdfa85af400",
                "storage": {}
            }
        },
        "lastblockhash": "0x57606c9e9f1294cda696e8cf9b45b2c46a1de6594fe7f04394f1f430abf0c274",
        "config": {
            "network": "Cancun",
            "chainid": "0x01",
            "blobSchedule": {
                "Cancun": {
                    "target": "0x03",
                    "max": "0x06",
                    "baseFeeUpdateFraction": "0x32f0ed"
                }
            }
        },
        "genesisRLP": "0xf9023cf90236a00000000000000000000000000000000000000000000000000000000000000000a01dcc4de8dec75d7aab85b567b6ccd41ad312451b948a7413f0a142fd40d49347940000000000000000000000000000000000000000a0d3a5151391b945e9f2fde6c9d6399fad24c5a9df61a6888b923fb156b92972a4a056e81f171bcc55a6ff8345e692c0f86e5b48e01b996cadc001622fb5e363b421a056e81f171bcc55a6ff8345e692c0f86e5b48e01b996cadc001622fb5e363b421b901000000000000000000000000000000000000000000000000000000000000000000000000000000000000000000000000000000000000000000000000000000000000000000000000000000000000000000000000000000000000000000000000000000000000000000000000000000000000000000000000000000000000000000000000000000000000000000000000000000000000000000000000000000000000000000000000000000000000000000000000000000000000000000000000000000000000000000000000000000000000000000000000000000000000000000000000000000000000000000000000000000000000000000000000000000000080808405f5e100808000a000000000000000000000000000000000000000000000000000000000000000008800000000000000000ba056e81f171bcc55a6ff8345e692c0f86e5b48e01b996cadc001622fb5e363b4218080a00000000000000000000000000000000000000000000000000000000000000000c0c0c0",
        "blocks": [
            {
                "blockHeader": {
                    "parentHash": "0x9564b81f54620a709da9c01cd50370924b6a304385d8e2383fc4a8ca4f7304cf",
                    "uncleHash": "0x1dcc4de8dec75d7aab85b567b6ccd41ad312451b948a7413f0a142fd40d49347",
                    "coinbase": "0x2adc25665018aa1fe0e6bc666dac8fc2697ff9ba",
                    "stateRoot": "0xf334d3afc01523043d1f7d0786a76a80385b1b7336c082955cd962e8c8c2d255",
                    "transactionsTrie": "0xdd0c609a284b8bdd6851e2e0d3fd06c3043a15c77d6b31df1c115b0e7da0eff7",
                    "receiptTrie": "0x4ef608b9d588d059adc803020815be454493fe52f4305207443be55bf24af7af",
                    "bloom": "0x00000000000000000000000000000000000000000000000000000000000000000000000000000000000000000000000000000000000000000000000000000000000000000000000000000000000000000000000000000000000000000000000000000000000000000000000000000000000000000000000000000000000000000000000000000000000000000000000000000000000000000000000000000000000000000000000000000000000000000000000000000000000000000000000000000000000000000000000000000000000000000000000000000000000000000000000000000000000000000000000000000000000000000000000000000000",
                    "difficulty": "0x00",
                    "number": "0x01",
                    "gasLimit": "0x05f5e100",
                    "gasUsed": "0x02a9d7",
                    "timestamp": "0x03e8",
                    "extraData": "0x00",
                    "mixHash": "0x0000000000000000000000000000000000000000000000000000000000020000",
                    "nonce": "0x0000000000000000",
                    "baseFeePerGas": "0x0a",
                    "withdrawalsRoot": "0x56e81f171bcc55a6ff8345e692c0f86e5b48e01b996cadc001622fb5e363b421",
                    "blobGasUsed": "0x00",
                    "excessBlobGas": "0x00",
                    "parentBeaconBlockRoot": "0x0000000000000000000000000000000000000000000000000000000000000000",
                    "hash": "0x57606c9e9f1294cda696e8cf9b45b2c46a1de6594fe7f04394f1f430abf0c274"
                },
                "transactions": [
                    {
                        "type": "0x00",
                        "chainId": "0x01",
                        "nonce": "0x00",
                        "gasPrice": "0x0a",
                        "gasLimit": "0x989680",
                        "to": "0xb0923c4a632de291fcdac653e6c6cc2b4e4cdfa8",
                        "value": "0x00",
                        "data": "0x",
                        "v": "0x26",
                        "r": "0x36ea7d3388402048fd4e901096affacf2a66f67b131fccf8d68010f6bf2eb453",
                        "s": "0x7f24f5f47f5de00c0569d6f315b27a2153e930eceb7a4c7a17b8eec891500ed8",
                        "sender": "0xd719ccdb2301950b0a0bdf09a2bb1d5f8b225f6f"
                    }
                ],
                "uncleHeaders": [],
                "withdrawals": [],
                "receipts": [
                    {
                        "transactionHash": "0x6e4d58650b54a8f94d1462dc11cca7eb5248bae02b8b42acb9bca53ee1474b1e",
                        "type": "0x00",
                        "cumulativeGasUsed": "0x02a9d7",
                        "bloom": "0x00000000000000000000000000000000000000000000000000000000000000000000000000000000000000000000000000000000000000000000000000000000000000000000000000000000000000000000000000000000000000000000000000000000000000000000000000000000000000000000000000000000000000000000000000000000000000000000000000000000000000000000000000000000000000000000000000000000000000000000000000000000000000000000000000000000000000000000000000000000000000000000000000000000000000000000000000000000000000000000000000000000000000000000000000000000",
                        "logs": [],
                        "status": true,
                        "rlp": "0xf90109018302a9d7b9010000000000000000000000000000000000000000000000000000000000000000000000000000000000000000000000000000000000000000000000000000000000000000000000000000000000000000000000000000000000000000000000000000000000000000000000000000000000000000000000000000000000000000000000000000000000000000000000000000000000000000000000000000000000000000000000000000000000000000000000000000000000000000000000000000000000000000000000000000000000000000000000000000000000000000000000000000000000000000000000000000000000000000000000000000000000c0"
                    }
                ],
                "rlp": "0xf902a4f9023ba09564b81f54620a709da9c01cd50370924b6a304385d8e2383fc4a8ca4f7304cfa01dcc4de8dec75d7aab85b567b6ccd41ad312451b948a7413f0a142fd40d49347942adc25665018aa1fe0e6bc666dac8fc2697ff9baa0f334d3afc01523043d1f7d0786a76a80385b1b7336c082955cd962e8c8c2d255a0dd0c609a284b8bdd6851e2e0d3fd06c3043a15c77d6b31df1c115b0e7da0eff7a04ef608b9d588d059adc803020815be454493fe52f4305207443be55bf24af7afb901000000000000000000000000000000000000000000000000000000000000000000000000000000000000000000000000000000000000000000000000000000000000000000000000000000000000000000000000000000000000000000000000000000000000000000000000000000000000000000000000000000000000000000000000000000000000000000000000000000000000000000000000000000000000000000000000000000000000000000000000000000000000000000000000000000000000000000000000000000000000000000000000000000000000000000000000000000000000000000000000000000000000000000000000000000000080018405f5e1008302a9d78203e800a000000000000000000000000000000000000000000000000000000000000200008800000000000000000aa056e81f171bcc55a6ff8345e692c0f86e5b48e01b996cadc001622fb5e363b4218080a00000000000000000000000000000000000000000000000000000000000000000f862f860800a8398968094b0923c4a632de291fcdac653e6c6cc2b4e4cdfa8808026a036ea7d3388402048fd4e901096affacf2a66f67b131fccf8d68010f6bf2eb453a07f24f5f47f5de00c0569d6f315b27a2153e930eceb7a4c7a17b8eec891500ed8c0c0",
                "blocknumber": "1"
            }
        ],
        "sealEngine": "NoProof",
        "_info": {
            "hash": "0x7af04085a0faff0d7fdeb4bf324d3fc98cfa45afe22f34f733cb853ced55b34a",
            "fixture-format": "blockchain_test",
            "comment": "`execution-specs` generated test",
            "filling-transition-tool": "2.19.0",
            "description": "Test_loop_delegate_calls_depth_then_revert.",
            "url": "https://github.com/ethereum/execution-specs/blob/tests-snobal-devnet-5@v8037.0.0/tests/ported_static/stRevertTest/test_loop_delegate_calls_depth_then_revert.py#L24",
            "metadata": {
                "opcode_count": {}
            }
        }
    }
}