{
    "tests/static/state_tests/stMemoryTest/log3_dejavuFiller.json::log3_dejavu[fork_Cancun-state_test-]": {
        "env": {
            "currentCoinbase": "0x2adc25665018aa1fe0e6bc666dac8fc2697ff9ba",
            "currentGasLimit": "0x0c540be400",
            "currentNumber": "0x01",
            "currentTimestamp": "0x03e8",
            "currentRandom": "0x0000000000000000000000000000000000000000000000000000000000020000",
            "currentDifficulty": "0x00",
            "currentBaseFee": "0x0a",
            "currentExcessBlobGas": "0x00"
        },
        "pre": {
            "0x183e467adcdb4345fae2513f8cb17c0c35b6573e": {
                "nonce": "0x00",
                "balance": "0x271000000000",
                "code": "0x",
                "storage": {}
            },
            "0xb148ed3e5d27b7248b83dec93f9bee100829dc8d": {
                "nonce": "0x00",
                "balance": "0x0de0b6b3a7640000",
                "code": "0x60ff60ff60ff630fffffffa2",
                "storage": {}
            }
        },
        "transaction": {
            "nonce": "0x00",
            "gasPrice": "0x0a",
            "gasLimit": [
                "0x0186a0"
            ],
            "to": "0xb148ed3e5d27b7248b83dec93f9bee100829dc8d",
            "value": [
                "0x0a"
            ],
            "data": [
                "0x"
            ],
            "sender": "0x183e467adcdb4345fae2513f8cb17c0c35b6573e",
            "secretKey": "0x45d475d66d1698c34ea8bc07b148ed3e5d27b7248b83dec93f9bee100829dc8d"
        },
        "post": {
            "Cancun": [
                {
                    "hash": "0x0f4b6d5266862b7b1ef47708c3f4fd697ed22a099f3095624cf260ff716cfc1f",
                    "logs": "0x1dcc4de8dec75d7aab85b567b6ccd41ad312451b948a7413f0a142fd40d49347",
                    "txbytes": "0xf860800a830186a094b148ed3e5d27b7248b83dec93f9bee100829dc8d0a8026a08320317e4493b07a413e3333501ebdaa6a1b52bbce2028d55b85c5fdc36218c8a052b3c8204376d58bb8b6a54dd9be8f2967eb62e9775c62f131abda3b76936ee5",
                    "indexes": {
                        "data": 0,
                        "gas": 0,
                        "value": 0
                    },
                    "state": {
                        "0x183e467adcdb4345fae2513f8cb17c0c35b6573e": {
                            "nonce": "0x01",
                            "balance": "0x270ffff0bdc0",
                            "code": "0x",
                            "storage": {}
                        },
                        "0xb148ed3e5d27b7248b83dec93f9bee100829dc8d": {
                            "nonce": "0x00",
                            "balance": "0x0de0b6b3a7640000",
                            "code": "0x60ff60ff60ff630fffffffa2",
                            "storage": {}
                        }
                    }
                }
            ]
        },
        "config": {
            "blobSchedule": {
                "Cancun": {
                    "target": "0x03",
                    "max": "0x06",
                    "baseFeeUpdateFraction": "0x32f0ed"
                }
            },
            "chainid": "0x01"
        },
        "_info": {
            "hash": "0x3371f963ca5e5c6ad79cdcc265333393bf007d73cb753eebc341115e1c020967",
            "comment": "`execution-spec-tests` generated test",
            "filling-transition-tool": "ethereum-spec-evm-resolver 0.0.5",
            "description": "No description available - add a docstring to the python test class or function.",
            "url": "",
            "fixture-format": "state_test",
            "eels-resolution": {
                "git-url": "https://github.com/marioevz/execution-specs.git",
                "branch": "forks/bpo1",
                "commit": "3387e5f4aedfe99becfdc39b444d6371e25e0924"
            }
        }
    },
    "tests/static/state_tests/stMemoryTest/log3_dejavuFiller.json::log3_dejavu[fork_Osaka-state_test-]": {
        "env": {
            "currentCoinbase": "0x2adc25665018aa1fe0e6bc666dac8fc2697ff9ba",
            "currentGasLimit": "0x0c540be400",
            "currentNumber": "0x01",
            "currentTimestamp": "0x03e8",
            "currentRandom": "0x0000000000000000000000000000000000000000000000000000000000020000",
            "currentDifficulty": "0x00",
            "currentBaseFee": "0x0a",
            "currentExcessBlobGas": "0x00"
        },
        "pre": {
            "0x183e467adcdb4345fae2513f8cb17c0c35b6573e": {
                "nonce": "0x00",
                "balance": "0x271000000000",
                "code": "0x",
                "storage": {}
            },
            "0xb148ed3e5d27b7248b83dec93f9bee100829dc8d": {
                "nonce": "0x00",
                "balance": "0x0de0b6b3a7640000",
                "code": "0x60ff60ff60ff630fffffffa2",
                "storage": {}
            }
        },
        "transaction": {
            "nonce": "0x00",
            "gasPrice": "0x0a",
            "gasLimit": [
                "0x0186a0"
            ],
            "to": "0xb148ed3e5d27b7248b83dec93f9bee100829dc8d",
            "value": [
                "0x0a"
            ],
            "data": [
                "0x"
            ],
            "sender": "0x183e467adcdb4345fae2513f8cb17c0c35b6573e",
            "secretKey": "0x45d475d66d1698c34ea8bc07b148ed3e5d27b7248b83dec93f9bee100829dc8d"
        },
        "post": {
            "Osaka": [
                {
                    "hash": "0x0f4b6d5266862b7b1ef47708c3f4fd697ed22a099f3095624cf260ff716cfc1f",
                    "logs": "0x1dcc4de8dec75d7aab85b567b6ccd41ad312451b948a7413f0a142fd40d49347",
                    "txbytes": "0xf860800a830186a094b148ed3e5d27b7248b83dec93f9bee100829dc8d0a8026a08320317e4493b07a413e3333501ebdaa6a1b52bbce2028d55b85c5fdc36218c8a052b3c8204376d58bb8b6a54dd9be8f2967eb62e9775c62f131abda3b76936ee5",
                    "indexes": {
                        "data": 0,
                        "gas": 0,
                        "value": 0
                    },
                    "state": {
                        "0x183e467adcdb4345fae2513f8cb17c0c35b6573e": {
                            "nonce": "0x01",
                            "balance": "0x270ffff0bdc0",
                            "code": "0x",
                            "storage": {}
                        },
                        "0xb148ed3e5d27b7248b83dec93f9bee100829dc8d": {
                            "nonce": "0x00",
                            "balance": "0x0de0b6b3a7640000",
                            "code": "0x60ff60ff60ff630fffffffa2",
                            "storage": {}
                        }
                    }
                }
            ]
        },
        "config": {
            "blobSchedule": {
                "Cancun": {
                    "target": "0x03",
                    "max": "0x06",
                    "baseFeeUpdateFraction": "0x32f0ed"
                },
                "Prague": {
                    "target": "0x06",
                    "max": "0x09",
                    "baseFeeUpdateFraction": "0x4c6964"
                },
                "Osaka": {
                    "target": "0x06",
                    "max": "0x09",
                    "baseFeeUpdateFraction": "0x4c6964"
                }
            },
            "chainid": "0x01"
        },
        "_info": {
            "hash": "0x06c1b604f7b8121e00e3b95ede881754a63e81f2deeefc4543c1eabfb24c546a",
            "comment": "`execution-spec-tests` generated test",
            "filling-transition-tool": "ethereum-spec-evm-resolver 0.0.5",
            "description": "No description available - add a docstring to the python test class or function.",
            "url": "",
            "fixture-format": "state_test",
            "eels-resolution": {
                "git-url": "https://github.com/marioevz/execution-specs.git",
                "branch": "forks/bpo1",
                "commit": "3387e5f4aedfe99becfdc39b444d6371e25e0924"
            }
        }
    },
    "tests/static/state_tests/stMemoryTest/log3_dejavuFiller.json::log3_dejavu[fork_Prague-state_test-]": {
        "env": {
            "currentCoinbase": "0x2adc25665018aa1fe0e6bc666dac8fc2697ff9ba",
            "currentGasLimit": "0x0c540be400",
            "currentNumber": "0x01",
            "currentTimestamp": "0x03e8",
            "currentRandom": "0x0000000000000000000000000000000000000000000000000000000000020000",
            "currentDifficulty": "0x00",
            "currentBaseFee": "0x0a",
            "currentExcessBlobGas": "0x00"
        },
        "pre": {
            "0x183e467adcdb4345fae2513f8cb17c0c35b6573e": {
                "nonce": "0x00",
                "balance": "0x271000000000",
                "code": "0x",
                "storage": {}
            },
            "0xb148ed3e5d27b7248b83dec93f9bee100829dc8d": {
                "nonce": "0x00",
                "balance": "0x0de0b6b3a7640000",
                "code": "0x60ff60ff60ff630fffffffa2",
                "storage": {}
            }
        },
        "transaction": {
            "nonce": "0x00",
            "gasPrice": "0x0a",
            "gasLimit": [
                "0x0186a0"
            ],
            "to": "0xb148ed3e5d27b7248b83dec93f9bee100829dc8d",
            "value": [
                "0x0a"
            ],
            "data": [
                "0x"
            ],
            "sender": "0x183e467adcdb4345fae2513f8cb17c0c35b6573e",
            "secretKey": "0x45d475d66d1698c34ea8bc07b148ed3e5d27b7248b83dec93f9bee100829dc8d"
        },
        "post": {
            "Prague": [
                {
                    "hash": "0x0f4b6d5266862b7b1ef47708c3f4fd697ed22a099f3095624cf260ff716cfc1f",
                    "logs": "0x1dcc4de8dec75d7aab85b567b6ccd41ad312451b948a7413f0a142fd40d49347",
                    "txbytes": "0xf860800a830186a094b148ed3e5d27b7248b83dec93f9bee100829dc8d0a8026a08320317e4493b07a413e3333501ebdaa6a1b52bbce2028d55b85c5fdc36218c8a052b3c8204376d58bb8b6a54dd9be8f2967eb62e9775c62f131abda3b76936ee5",
                    "indexes": {
                        "data": 0,
                        "gas": 0,
                        "value": 0
                    },
                    "state": {
                        "0x183e467adcdb4345fae2513f8cb17c0c35b6573e": {
                            "nonce": "0x01",
                            "balance": "0x270ffff0bdc0",
                            "code": "0x",
                            "storage": {}
                        },
                        "0xb148ed3e5d27b7248b83dec93f9bee100829dc8d": {
                            "nonce": "0x00",
                            "balance": "0x0de0b6b3a7640000",
                            "code": "0x60ff60ff60ff630fffffffa2",
                            "storage": {}
                        }
                    }
                }
            ]
        },
        "config": {
            "blobSchedule": {
                "Cancun": {
                    "target": "0x03",
                    "max": "0x06",
                    "baseFeeUpdateFraction": "0x32f0ed"
                },
                "Prague": {
                    "target": "0x06",
                    "max": "0x09",
                    "baseFeeUpdateFraction": "0x4c6964"
                }
            },
            "chainid": "0x01"
        },
        "_info": {
            "hash": "0x3b5de755e61d0f79016b4c6745abb14716d5e02ad2f25da3f014227180a8ba00",
            "comment": "`execution-spec-tests` generated test",
            "filling-transition-tool": "ethereum-spec-evm-resolver 0.0.5",
            "description": "No description available - add a docstring to the python test class or function.",
            "url": "",
            "fixture-format": "state_test",
            "eels-resolution": {
                "git-url": "https://github.com/marioevz/execution-specs.git",
                "branch": "forks/bpo1",
                "commit": "3387e5f4aedfe99becfdc39b444d6371e25e0924"
            }
        }
    }
}