{
    "tests/static/state_tests/stMemoryTest/mem32kb_singleByte-1Filler.json::mem32kb_singleByte-1[fork_Cancun-state_test-]": {
        "env": {
            "currentCoinbase": "0x2adc25665018aa1fe0e6bc666dac8fc2697ff9ba",
            "currentGasLimit": "0x0a00000000",
            "currentNumber": "0x01",
            "currentTimestamp": "0x03e8",
            "currentRandom": "0x0000000000000000000000000000000000000000000000000000000000020000",
            "currentDifficulty": "0x00",
            "currentBaseFee": "0x0a",
            "currentExcessBlobGas": "0x00"
        },
        "pre": {
            "0x822141c93e8d0183120b7ac7fc57595576229cae": {
                "nonce": "0x00",
                "balance": "0x6400000000",
                "code": "0x",
                "storage": {}
            },
            "0x2aa85a3b78de6f7e7bf6c35728a17e57bcbc4bd8": {
                "nonce": "0x00",
                "balance": "0x0de0b6b3a7640000",
                "code": "0x602a617cfe535960005500",
                "storage": {}
            }
        },
        "transaction": {
            "nonce": "0x00",
            "gasPrice": "0x0a",
            "gasLimit": [
                "0x0186a0"
            ],
            "to": "0x2aa85a3b78de6f7e7bf6c35728a17e57bcbc4bd8",
            "value": [
                "0x0a"
            ],
            "data": [
                "0x"
            ],
            "sender": "0x822141c93e8d0183120b7ac7fc57595576229cae",
            "secretKey": "0xf208436efe6228711113414a2aa85a3b78de6f7e7bf6c35728a17e57bcbc4bd8"
        },
        "post": {
            "Cancun": [
                {
                    "hash": "0x118b48009ae46f5945016c351fb1f951b311aff557287979e828064c079d44fa",
                    "logs": "0x1dcc4de8dec75d7aab85b567b6ccd41ad312451b948a7413f0a142fd40d49347",
                    "txbytes": "0xf860800a830186a0942aa85a3b78de6f7e7bf6c35728a17e57bcbc4bd80a8025a0b4c13579a41ce24e7359aa78ead69bbf5e08cafd6291f2226c48204de6941065a07ef8014de7165fded15c67b90e118eab20a8a763432ba720d37a11d4cd8dd558",
                    "indexes": {
                        "data": 0,
                        "gas": 0,
                        "value": 0
                    },
                    "state": {
                        "0x822141c93e8d0183120b7ac7fc57595576229cae": {
                            "nonce": "0x01",
                            "balance": "0x63fff8aa58",
                            "code": "0x",
                            "storage": {}
                        },
                        "0x2aa85a3b78de6f7e7bf6c35728a17e57bcbc4bd8": {
                            "nonce": "0x00",
                            "balance": "0x0de0b6b3a764000a",
                            "code": "0x602a617cfe535960005500",
                            "storage": {
                                "0x00": "0x7d00"
                            }
                        }
                    }
                }
            ]
        },
        "config": {
            "blobSchedule": {
                "Cancun": {
                    "target": "0x03",
                    "max": "0x06",
                    "baseFeeUpdateFraction": "0x32f0ed"
                }
            },
            "chainid": "0x01"
        },
        "_info": {
            "hash": "0xe09797e37ae5ff5fde8cd4a3857593d776f3c20aa1ab6f7cf854cca1da9e2178",
            "comment": "`execution-specs` generated test",
            "filling-transition-tool": "2.18.0rc6",
            "description": "No description available - add a docstring to the python test class or function.",
            "url": "",
            "fixture-format": "state_test"
        }
    },
    "tests/static/state_tests/stMemoryTest/mem32kb_singleByte-1Filler.json::mem32kb_singleByte-1[fork_Osaka-state_test-]": {
        "env": {
            "currentCoinbase": "0x2adc25665018aa1fe0e6bc666dac8fc2697ff9ba",
            "currentGasLimit": "0x0a00000000",
            "currentNumber": "0x01",
            "currentTimestamp": "0x03e8",
            "currentRandom": "0x0000000000000000000000000000000000000000000000000000000000020000",
            "currentDifficulty": "0x00",
            "currentBaseFee": "0x0a",
            "currentExcessBlobGas": "0x00"
        },
        "pre": {
            "0x822141c93e8d0183120b7ac7fc57595576229cae": {
                "nonce": "0x00",
                "balance": "0x6400000000",
                "code": "0x",
                "storage": {}
            },
            "0x2aa85a3b78de6f7e7bf6c35728a17e57bcbc4bd8": {
                "nonce": "0x00",
                "balance": "0x0de0b6b3a7640000",
                "code": "0x602a617cfe535960005500",
                "storage": {}
            }
        },
        "transaction": {
            "nonce": "0x00",
            "gasPrice": "0x0a",
            "gasLimit": [
                "0x0186a0"
            ],
            "to": "0x2aa85a3b78de6f7e7bf6c35728a17e57bcbc4bd8",
            "value": [
                "0x0a"
            ],
            "data": [
                "0x"
            ],
            "sender": "0x822141c93e8d0183120b7ac7fc57595576229cae",
            "secretKey": "0xf208436efe6228711113414a2aa85a3b78de6f7e7bf6c35728a17e57bcbc4bd8"
        },
        "post": {
            "Osaka": [
                {
                    "hash": "0x118b48009ae46f5945016c351fb1f951b311aff557287979e828064c079d44fa",
                    "logs": "0x1dcc4de8dec75d7aab85b567b6ccd41ad312451b948a7413f0a142fd40d49347",
                    "txbytes": "0xf860800a830186a0942aa85a3b78de6f7e7bf6c35728a17e57bcbc4bd80a8025a0b4c13579a41ce24e7359aa78ead69bbf5e08cafd6291f2226c48204de6941065a07ef8014de7165fded15c67b90e118eab20a8a763432ba720d37a11d4cd8dd558",
                    "indexes": {
                        "data": 0,
                        "gas": 0,
                        "value": 0
                    },
                    "state": {
                        "0x822141c93e8d0183120b7ac7fc57595576229cae": {
                            "nonce": "0x01",
                            "balance": "0x63fff8aa58",
                            "code": "0x",
                            "storage": {}
                        },
                        "0x2aa85a3b78de6f7e7bf6c35728a17e57bcbc4bd8": {
                            "nonce": "0x00",
                            "balance": "0x0de0b6b3a764000a",
                            "code": "0x602a617cfe535960005500",
                            "storage": {
                                "0x00": "0x7d00"
                            }
                        }
                    }
                }
            ]
        },
        "config": {
            "blobSchedule": {
                "Cancun": {
                    "target": "0x03",
                    "max": "0x06",
                    "baseFeeUpdateFraction": "0x32f0ed"
                },
                "Prague": {
                    "target": "0x06",
                    "max": "0x09",
                    "baseFeeUpdateFraction": "0x4c6964"
                },
                "Osaka": {
                    "target": "0x06",
                    "max": "0x09",
                    "baseFeeUpdateFraction": "0x4c6964"
                }
            },
            "chainid": "0x01"
        },
        "_info": {
            "hash": "0xeaecdff58eef961bb8b9602e3ad87de69e0fa5f4bcd0c079455c57fddb2045d2",
            "comment": "`execution-specs` generated test",
            "filling-transition-tool": "2.18.0rc6",
            "description": "No description available - add a docstring to the python test class or function.",
            "url": "",
            "fixture-format": "state_test"
        }
    },
    "tests/static/state_tests/stMemoryTest/mem32kb_singleByte-1Filler.json::mem32kb_singleByte-1[fork_Prague-state_test-]": {
        "env": {
            "currentCoinbase": "0x2adc25665018aa1fe0e6bc666dac8fc2697ff9ba",
            "currentGasLimit": "0x0a00000000",
            "currentNumber": "0x01",
            "currentTimestamp": "0x03e8",
            "currentRandom": "0x0000000000000000000000000000000000000000000000000000000000020000",
            "currentDifficulty": "0x00",
            "currentBaseFee": "0x0a",
            "currentExcessBlobGas": "0x00"
        },
        "pre": {
            "0x822141c93e8d0183120b7ac7fc57595576229cae": {
                "nonce": "0x00",
                "balance": "0x6400000000",
                "code": "0x",
                "storage": {}
            },
            "0x2aa85a3b78de6f7e7bf6c35728a17e57bcbc4bd8": {
                "nonce": "0x00",
                "balance": "0x0de0b6b3a7640000",
                "code": "0x602a617cfe535960005500",
                "storage": {}
            }
        },
        "transaction": {
            "nonce": "0x00",
            "gasPrice": "0x0a",
            "gasLimit": [
                "0x0186a0"
            ],
            "to": "0x2aa85a3b78de6f7e7bf6c35728a17e57bcbc4bd8",
            "value": [
                "0x0a"
            ],
            "data": [
                "0x"
            ],
            "sender": "0x822141c93e8d0183120b7ac7fc57595576229cae",
            "secretKey": "0xf208436efe6228711113414a2aa85a3b78de6f7e7bf6c35728a17e57bcbc4bd8"
        },
        "post": {
            "Prague": [
                {
                    "hash": "0x118b48009ae46f5945016c351fb1f951b311aff557287979e828064c079d44fa",
                    "logs": "0x1dcc4de8dec75d7aab85b567b6ccd41ad312451b948a7413f0a142fd40d49347",
                    "txbytes": "0xf860800a830186a0942aa85a3b78de6f7e7bf6c35728a17e57bcbc4bd80a8025a0b4c13579a41ce24e7359aa78ead69bbf5e08cafd6291f2226c48204de6941065a07ef8014de7165fded15c67b90e118eab20a8a763432ba720d37a11d4cd8dd558",
                    "indexes": {
                        "data": 0,
                        "gas": 0,
                        "value": 0
                    },
                    "state": {
                        "0x822141c93e8d0183120b7ac7fc57595576229cae": {
                            "nonce": "0x01",
                            "balance": "0x63fff8aa58",
                            "code": "0x",
                            "storage": {}
                        },
                        "0x2aa85a3b78de6f7e7bf6c35728a17e57bcbc4bd8": {
                            "nonce": "0x00",
                            "balance": "0x0de0b6b3a764000a",
                            "code": "0x602a617cfe535960005500",
                            "storage": {
                                "0x00": "0x7d00"
                            }
                        }
                    }
                }
            ]
        },
        "config": {
            "blobSchedule": {
                "Cancun": {
                    "target": "0x03",
                    "max": "0x06",
                    "baseFeeUpdateFraction": "0x32f0ed"
                },
                "Prague": {
                    "target": "0x06",
                    "max": "0x09",
                    "baseFeeUpdateFraction": "0x4c6964"
                }
            },
            "chainid": "0x01"
        },
        "_info": {
            "hash": "0xa6bb12e8c8030efbcd7fed80c353c40c29cec005213733bb43bb4ad37cb9d64e",
            "comment": "`execution-specs` generated test",
            "filling-transition-tool": "2.18.0rc6",
            "description": "No description available - add a docstring to the python test class or function.",
            "url": "",
            "fixture-format": "state_test"
        }
    }
}