{
    "tests/static/state_tests/stMemoryTest/mem32b_singleByteFiller.json::mem32b_singleByte[fork_Cancun-state_test-]": {
        "env": {
            "currentCoinbase": "0x2adc25665018aa1fe0e6bc666dac8fc2697ff9ba",
            "currentGasLimit": "0x0a00000000",
            "currentNumber": "0x01",
            "currentTimestamp": "0x03e8",
            "currentRandom": "0x0000000000000000000000000000000000000000000000000000000000020000",
            "currentDifficulty": "0x00",
            "currentBaseFee": "0x0a",
            "currentExcessBlobGas": "0x00"
        },
        "pre": {
            "0x9a4069111c86275d0c1fdc982ca224837d893867": {
                "nonce": "0x00",
                "balance": "0x6400000000",
                "code": "0x",
                "storage": {}
            },
            "0xc9193bdd67bd81722315688011c3655b58aa6ef0": {
                "nonce": "0x00",
                "balance": "0x0de0b6b3a7640000",
                "code": "0x602a601f535960005500",
                "storage": {}
            }
        },
        "transaction": {
            "nonce": "0x00",
            "gasPrice": "0x0a",
            "gasLimit": [
                "0x0186a0"
            ],
            "to": "0xc9193bdd67bd81722315688011c3655b58aa6ef0",
            "value": [
                "0x0a"
            ],
            "data": [
                "0x"
            ],
            "sender": "0x9a4069111c86275d0c1fdc982ca224837d893867",
            "secretKey": "0x5c697a05dc9dd3be1977e42ac9193bdd67bd81722315688011c3655b58aa6ef0"
        },
        "post": {
            "Cancun": [
                {
                    "hash": "0x191d248ce09185c8c8ad363c3c5f889733087acd0806dc9805bff3cc69277962",
                    "logs": "0x1dcc4de8dec75d7aab85b567b6ccd41ad312451b948a7413f0a142fd40d49347",
                    "txbytes": "0xf860800a830186a094c9193bdd67bd81722315688011c3655b58aa6ef00a8025a05c7ccaed649d9025355d490dea2989743ffc68d247f935871816568243d8a970a06ee2a9981e8d3a72ff41b8217dc78fd509eaf055b0f80a22f09b901afaf20c71",
                    "indexes": {
                        "data": 0,
                        "gas": 0,
                        "value": 0
                    },
                    "state": {
                        "0x9a4069111c86275d0c1fdc982ca224837d893867": {
                            "nonce": "0x01",
                            "balance": "0x63fff96bb4",
                            "code": "0x",
                            "storage": {}
                        },
                        "0xc9193bdd67bd81722315688011c3655b58aa6ef0": {
                            "nonce": "0x00",
                            "balance": "0x0de0b6b3a764000a",
                            "code": "0x602a601f535960005500",
                            "storage": {
                                "0x00": "0x20"
                            }
                        }
                    }
                }
            ]
        },
        "config": {
            "blobSchedule": {
                "Cancun": {
                    "target": "0x03",
                    "max": "0x06",
                    "baseFeeUpdateFraction": "0x32f0ed"
                }
            },
            "chainid": "0x01"
        },
        "_info": {
            "hash": "0xd6a8a26b87dfcd70e9ec83e2efadede397a360b10647a6440fd8787ba129aa45",
            "comment": "`execution-spec-tests` generated test",
            "filling-transition-tool": "ethereum-spec-evm-resolver 0.0.5",
            "description": "No description available - add a docstring to the python test class or function.",
            "url": "",
            "fixture-format": "state_test",
            "eels-resolution": {
                "git-url": "https://github.com/ethereum/execution-specs.git",
                "branch": "forks/bpos",
                "commit": "7aacb2c54111391af5e98c505d5010b5698a770f"
            }
        }
    },
    "tests/static/state_tests/stMemoryTest/mem32b_singleByteFiller.json::mem32b_singleByte[fork_Osaka-state_test-]": {
        "env": {
            "currentCoinbase": "0x2adc25665018aa1fe0e6bc666dac8fc2697ff9ba",
            "currentGasLimit": "0x0a00000000",
            "currentNumber": "0x01",
            "currentTimestamp": "0x03e8",
            "currentRandom": "0x0000000000000000000000000000000000000000000000000000000000020000",
            "currentDifficulty": "0x00",
            "currentBaseFee": "0x0a",
            "currentExcessBlobGas": "0x00"
        },
        "pre": {
            "0x9a4069111c86275d0c1fdc982ca224837d893867": {
                "nonce": "0x00",
                "balance": "0x6400000000",
                "code": "0x",
                "storage": {}
            },
            "0xc9193bdd67bd81722315688011c3655b58aa6ef0": {
                "nonce": "0x00",
                "balance": "0x0de0b6b3a7640000",
                "code": "0x602a601f535960005500",
                "storage": {}
            }
        },
        "transaction": {
            "nonce": "0x00",
            "gasPrice": "0x0a",
            "gasLimit": [
                "0x0186a0"
            ],
            "to": "0xc9193bdd67bd81722315688011c3655b58aa6ef0",
            "value": [
                "0x0a"
            ],
            "data": [
                "0x"
            ],
            "sender": "0x9a4069111c86275d0c1fdc982ca224837d893867",
            "secretKey": "0x5c697a05dc9dd3be1977e42ac9193bdd67bd81722315688011c3655b58aa6ef0"
        },
        "post": {
            "Osaka": [
                {
                    "hash": "0x191d248ce09185c8c8ad363c3c5f889733087acd0806dc9805bff3cc69277962",
                    "logs": "0x1dcc4de8dec75d7aab85b567b6ccd41ad312451b948a7413f0a142fd40d49347",
                    "txbytes": "0xf860800a830186a094c9193bdd67bd81722315688011c3655b58aa6ef00a8025a05c7ccaed649d9025355d490dea2989743ffc68d247f935871816568243d8a970a06ee2a9981e8d3a72ff41b8217dc78fd509eaf055b0f80a22f09b901afaf20c71",
                    "indexes": {
                        "data": 0,
                        "gas": 0,
                        "value": 0
                    },
                    "state": {
                        "0x9a4069111c86275d0c1fdc982ca224837d893867": {
                            "nonce": "0x01",
                            "balance": "0x63fff96bb4",
                            "code": "0x",
                            "storage": {}
                        },
                        "0xc9193bdd67bd81722315688011c3655b58aa6ef0": {
                            "nonce": "0x00",
                            "balance": "0x0de0b6b3a764000a",
                            "code": "0x602a601f535960005500",
                            "storage": {
                                "0x00": "0x20"
                            }
                        }
                    }
                }
            ]
        },
        "config": {
            "blobSchedule": {
                "Cancun": {
                    "target": "0x03",
                    "max": "0x06",
                    "baseFeeUpdateFraction": "0x32f0ed"
                },
                "Prague": {
                    "target": "0x06",
                    "max": "0x09",
                    "baseFeeUpdateFraction": "0x4c6964"
                },
                "Osaka": {
                    "target": "0x06",
                    "max": "0x09",
                    "baseFeeUpdateFraction": "0x4c6964"
                }
            },
            "chainid": "0x01"
        },
        "_info": {
            "hash": "0xe395968ca2d6a141d9e115aea015843bcdde01399e59c5ce64867d909ff70c1a",
            "comment": "`execution-spec-tests` generated test",
            "filling-transition-tool": "ethereum-spec-evm-resolver 0.0.5",
            "description": "No description available - add a docstring to the python test class or function.",
            "url": "",
            "fixture-format": "state_test",
            "eels-resolution": {
                "git-url": "https://github.com/ethereum/execution-specs.git",
                "branch": "forks/bpos",
                "commit": "7aacb2c54111391af5e98c505d5010b5698a770f"
            }
        }
    },
    "tests/static/state_tests/stMemoryTest/mem32b_singleByteFiller.json::mem32b_singleByte[fork_Prague-state_test-]": {
        "env": {
            "currentCoinbase": "0x2adc25665018aa1fe0e6bc666dac8fc2697ff9ba",
            "currentGasLimit": "0x0a00000000",
            "currentNumber": "0x01",
            "currentTimestamp": "0x03e8",
            "currentRandom": "0x0000000000000000000000000000000000000000000000000000000000020000",
            "currentDifficulty": "0x00",
            "currentBaseFee": "0x0a",
            "currentExcessBlobGas": "0x00"
        },
        "pre": {
            "0x9a4069111c86275d0c1fdc982ca224837d893867": {
                "nonce": "0x00",
                "balance": "0x6400000000",
                "code": "0x",
                "storage": {}
            },
            "0xc9193bdd67bd81722315688011c3655b58aa6ef0": {
                "nonce": "0x00",
                "balance": "0x0de0b6b3a7640000",
                "code": "0x602a601f535960005500",
                "storage": {}
            }
        },
        "transaction": {
            "nonce": "0x00",
            "gasPrice": "0x0a",
            "gasLimit": [
                "0x0186a0"
            ],
            "to": "0xc9193bdd67bd81722315688011c3655b58aa6ef0",
            "value": [
                "0x0a"
            ],
            "data": [
                "0x"
            ],
            "sender": "0x9a4069111c86275d0c1fdc982ca224837d893867",
            "secretKey": "0x5c697a05dc9dd3be1977e42ac9193bdd67bd81722315688011c3655b58aa6ef0"
        },
        "post": {
            "Prague": [
                {
                    "hash": "0x191d248ce09185c8c8ad363c3c5f889733087acd0806dc9805bff3cc69277962",
                    "logs": "0x1dcc4de8dec75d7aab85b567b6ccd41ad312451b948a7413f0a142fd40d49347",
                    "txbytes": "0xf860800a830186a094c9193bdd67bd81722315688011c3655b58aa6ef00a8025a05c7ccaed649d9025355d490dea2989743ffc68d247f935871816568243d8a970a06ee2a9981e8d3a72ff41b8217dc78fd509eaf055b0f80a22f09b901afaf20c71",
                    "indexes": {
                        "data": 0,
                        "gas": 0,
                        "value": 0
                    },
                    "state": {
                        "0x9a4069111c86275d0c1fdc982ca224837d893867": {
                            "nonce": "0x01",
                            "balance": "0x63fff96bb4",
                            "code": "0x",
                            "storage": {}
                        },
                        "0xc9193bdd67bd81722315688011c3655b58aa6ef0": {
                            "nonce": "0x00",
                            "balance": "0x0de0b6b3a764000a",
                            "code": "0x602a601f535960005500",
                            "storage": {
                                "0x00": "0x20"
                            }
                        }
                    }
                }
            ]
        },
        "config": {
            "blobSchedule": {
                "Cancun": {
                    "target": "0x03",
                    "max": "0x06",
                    "baseFeeUpdateFraction": "0x32f0ed"
                },
                "Prague": {
                    "target": "0x06",
                    "max": "0x09",
                    "baseFeeUpdateFraction": "0x4c6964"
                }
            },
            "chainid": "0x01"
        },
        "_info": {
            "hash": "0xa3caaf0d0e813d80e206902aef2ec3563b6c489744211f7d5624e91919504a98",
            "comment": "`execution-spec-tests` generated test",
            "filling-transition-tool": "ethereum-spec-evm-resolver 0.0.5",
            "description": "No description available - add a docstring to the python test class or function.",
            "url": "",
            "fixture-format": "state_test",
            "eels-resolution": {
                "git-url": "https://github.com/ethereum/execution-specs.git",
                "branch": "forks/bpos",
                "commit": "7aacb2c54111391af5e98c505d5010b5698a770f"
            }
        }
    }
}