{
    "tests/static/state_tests/stMemoryTest/mem32kb+32Filler.json::mem32kb+32[fork_Cancun-state_test-]": {
        "env": {
            "currentCoinbase": "0x2adc25665018aa1fe0e6bc666dac8fc2697ff9ba",
            "currentGasLimit": "0x0a00000000",
            "currentNumber": "0x01",
            "currentTimestamp": "0x03e8",
            "currentRandom": "0x0000000000000000000000000000000000000000000000000000000000020000",
            "currentDifficulty": "0x00",
            "currentBaseFee": "0x0a",
            "currentExcessBlobGas": "0x00"
        },
        "pre": {
            "0x833571a9cc3bcaddb25dab35b271693b22ac09b1": {
                "nonce": "0x00",
                "balance": "0x6400000000",
                "code": "0x",
                "storage": {}
            },
            "0x91f6aea1a639b4295152de4bdff42f2d51298436": {
                "nonce": "0x00",
                "balance": "0x0de0b6b3a7640000",
                "code": "0x602a617d0052617d00516001555960005500",
                "storage": {}
            }
        },
        "transaction": {
            "nonce": "0x00",
            "gasPrice": "0x0a",
            "gasLimit": [
                "0x0186a0"
            ],
            "to": "0x91f6aea1a639b4295152de4bdff42f2d51298436",
            "value": [
                "0x0a"
            ],
            "data": [
                "0x"
            ],
            "sender": "0x833571a9cc3bcaddb25dab35b271693b22ac09b1",
            "secretKey": "0x25b4b4392429737c6efd5ede91f6aea1a639b4295152de4bdff42f2d51298436"
        },
        "post": {
            "Cancun": [
                {
                    "hash": "0x5f9475972850406c24e305aaa4a1ad44fe1f9666142082a5369867ffb73920ef",
                    "logs": "0x1dcc4de8dec75d7aab85b567b6ccd41ad312451b948a7413f0a142fd40d49347",
                    "txbytes": "0xf860800a830186a09491f6aea1a639b4295152de4bdff42f2d512984360a8025a0ae81f98849ee84db731d5568797381eaaf2185d77c4e570c2126023c2e5da4bea05f986a31cb6c5dff0d8c9b849e1fdae3a2a71d39df7c8acaaa5c0be11ad72d8c",
                    "indexes": {
                        "data": 0,
                        "gas": 0,
                        "value": 0
                    },
                    "state": {
                        "0x833571a9cc3bcaddb25dab35b271693b22ac09b1": {
                            "nonce": "0x01",
                            "balance": "0x63fff54a70",
                            "code": "0x",
                            "storage": {}
                        },
                        "0x91f6aea1a639b4295152de4bdff42f2d51298436": {
                            "nonce": "0x00",
                            "balance": "0x0de0b6b3a764000a",
                            "code": "0x602a617d0052617d00516001555960005500",
                            "storage": {
                                "0x01": "0x2a",
                                "0x00": "0x7d20"
                            }
                        }
                    }
                }
            ]
        },
        "config": {
            "blobSchedule": {
                "Cancun": {
                    "target": "0x03",
                    "max": "0x06",
                    "baseFeeUpdateFraction": "0x32f0ed"
                }
            },
            "chainid": "0x01"
        },
        "_info": {
            "hash": "0x1364d7ed019743fc7b49272c241e1fbd0e8d8ed2392293fd919592a26c7babcd",
            "comment": "`execution-spec-tests` generated test",
            "filling-transition-tool": "ethereum-spec-evm-resolver 0.0.5",
            "description": "No description available - add a docstring to the python test class or function.",
            "url": "",
            "fixture-format": "state_test",
            "eels-resolution": {
                "git-url": "https://github.com/ethereum/execution-specs.git",
                "branch": "forks/bpos",
                "commit": "7aacb2c54111391af5e98c505d5010b5698a770f"
            }
        }
    },
    "tests/static/state_tests/stMemoryTest/mem32kb+32Filler.json::mem32kb+32[fork_Osaka-state_test-]": {
        "env": {
            "currentCoinbase": "0x2adc25665018aa1fe0e6bc666dac8fc2697ff9ba",
            "currentGasLimit": "0x0a00000000",
            "currentNumber": "0x01",
            "currentTimestamp": "0x03e8",
            "currentRandom": "0x0000000000000000000000000000000000000000000000000000000000020000",
            "currentDifficulty": "0x00",
            "currentBaseFee": "0x0a",
            "currentExcessBlobGas": "0x00"
        },
        "pre": {
            "0x833571a9cc3bcaddb25dab35b271693b22ac09b1": {
                "nonce": "0x00",
                "balance": "0x6400000000",
                "code": "0x",
                "storage": {}
            },
            "0x91f6aea1a639b4295152de4bdff42f2d51298436": {
                "nonce": "0x00",
                "balance": "0x0de0b6b3a7640000",
                "code": "0x602a617d0052617d00516001555960005500",
                "storage": {}
            }
        },
        "transaction": {
            "nonce": "0x00",
            "gasPrice": "0x0a",
            "gasLimit": [
                "0x0186a0"
            ],
            "to": "0x91f6aea1a639b4295152de4bdff42f2d51298436",
            "value": [
                "0x0a"
            ],
            "data": [
                "0x"
            ],
            "sender": "0x833571a9cc3bcaddb25dab35b271693b22ac09b1",
            "secretKey": "0x25b4b4392429737c6efd5ede91f6aea1a639b4295152de4bdff42f2d51298436"
        },
        "post": {
            "Osaka": [
                {
                    "hash": "0x5f9475972850406c24e305aaa4a1ad44fe1f9666142082a5369867ffb73920ef",
                    "logs": "0x1dcc4de8dec75d7aab85b567b6ccd41ad312451b948a7413f0a142fd40d49347",
                    "txbytes": "0xf860800a830186a09491f6aea1a639b4295152de4bdff42f2d512984360a8025a0ae81f98849ee84db731d5568797381eaaf2185d77c4e570c2126023c2e5da4bea05f986a31cb6c5dff0d8c9b849e1fdae3a2a71d39df7c8acaaa5c0be11ad72d8c",
                    "indexes": {
                        "data": 0,
                        "gas": 0,
                        "value": 0
                    },
                    "state": {
                        "0x833571a9cc3bcaddb25dab35b271693b22ac09b1": {
                            "nonce": "0x01",
                            "balance": "0x63fff54a70",
                            "code": "0x",
                            "storage": {}
                        },
                        "0x91f6aea1a639b4295152de4bdff42f2d51298436": {
                            "nonce": "0x00",
                            "balance": "0x0de0b6b3a764000a",
                            "code": "0x602a617d0052617d00516001555960005500",
                            "storage": {
                                "0x01": "0x2a",
                                "0x00": "0x7d20"
                            }
                        }
                    }
                }
            ]
        },
        "config": {
            "blobSchedule": {
                "Cancun": {
                    "target": "0x03",
                    "max": "0x06",
                    "baseFeeUpdateFraction": "0x32f0ed"
                },
                "Prague": {
                    "target": "0x06",
                    "max": "0x09",
                    "baseFeeUpdateFraction": "0x4c6964"
                },
                "Osaka": {
                    "target": "0x06",
                    "max": "0x09",
                    "baseFeeUpdateFraction": "0x4c6964"
                }
            },
            "chainid": "0x01"
        },
        "_info": {
            "hash": "0x547e42109a4219b111ee5214f16aa2b0c9045bb541e25317102c1e26b3b40731",
            "comment": "`execution-spec-tests` generated test",
            "filling-transition-tool": "ethereum-spec-evm-resolver 0.0.5",
            "description": "No description available - add a docstring to the python test class or function.",
            "url": "",
            "fixture-format": "state_test",
            "eels-resolution": {
                "git-url": "https://github.com/ethereum/execution-specs.git",
                "branch": "forks/bpos",
                "commit": "7aacb2c54111391af5e98c505d5010b5698a770f"
            }
        }
    },
    "tests/static/state_tests/stMemoryTest/mem32kb+32Filler.json::mem32kb+32[fork_Prague-state_test-]": {
        "env": {
            "currentCoinbase": "0x2adc25665018aa1fe0e6bc666dac8fc2697ff9ba",
            "currentGasLimit": "0x0a00000000",
            "currentNumber": "0x01",
            "currentTimestamp": "0x03e8",
            "currentRandom": "0x0000000000000000000000000000000000000000000000000000000000020000",
            "currentDifficulty": "0x00",
            "currentBaseFee": "0x0a",
            "currentExcessBlobGas": "0x00"
        },
        "pre": {
            "0x833571a9cc3bcaddb25dab35b271693b22ac09b1": {
                "nonce": "0x00",
                "balance": "0x6400000000",
                "code": "0x",
                "storage": {}
            },
            "0x91f6aea1a639b4295152de4bdff42f2d51298436": {
                "nonce": "0x00",
                "balance": "0x0de0b6b3a7640000",
                "code": "0x602a617d0052617d00516001555960005500",
                "storage": {}
            }
        },
        "transaction": {
            "nonce": "0x00",
            "gasPrice": "0x0a",
            "gasLimit": [
                "0x0186a0"
            ],
            "to": "0x91f6aea1a639b4295152de4bdff42f2d51298436",
            "value": [
                "0x0a"
            ],
            "data": [
                "0x"
            ],
            "sender": "0x833571a9cc3bcaddb25dab35b271693b22ac09b1",
            "secretKey": "0x25b4b4392429737c6efd5ede91f6aea1a639b4295152de4bdff42f2d51298436"
        },
        "post": {
            "Prague": [
                {
                    "hash": "0x5f9475972850406c24e305aaa4a1ad44fe1f9666142082a5369867ffb73920ef",
                    "logs": "0x1dcc4de8dec75d7aab85b567b6ccd41ad312451b948a7413f0a142fd40d49347",
                    "txbytes": "0xf860800a830186a09491f6aea1a639b4295152de4bdff42f2d512984360a8025a0ae81f98849ee84db731d5568797381eaaf2185d77c4e570c2126023c2e5da4bea05f986a31cb6c5dff0d8c9b849e1fdae3a2a71d39df7c8acaaa5c0be11ad72d8c",
                    "indexes": {
                        "data": 0,
                        "gas": 0,
                        "value": 0
                    },
                    "state": {
                        "0x833571a9cc3bcaddb25dab35b271693b22ac09b1": {
                            "nonce": "0x01",
                            "balance": "0x63fff54a70",
                            "code": "0x",
                            "storage": {}
                        },
                        "0x91f6aea1a639b4295152de4bdff42f2d51298436": {
                            "nonce": "0x00",
                            "balance": "0x0de0b6b3a764000a",
                            "code": "0x602a617d0052617d00516001555960005500",
                            "storage": {
                                "0x01": "0x2a",
                                "0x00": "0x7d20"
                            }
                        }
                    }
                }
            ]
        },
        "config": {
            "blobSchedule": {
                "Cancun": {
                    "target": "0x03",
                    "max": "0x06",
                    "baseFeeUpdateFraction": "0x32f0ed"
                },
                "Prague": {
                    "target": "0x06",
                    "max": "0x09",
                    "baseFeeUpdateFraction": "0x4c6964"
                }
            },
            "chainid": "0x01"
        },
        "_info": {
            "hash": "0x1fb1eaafe1b71bab8b5ea53b4b6c9412252d22c451ac7c5389664843fb00c1ca",
            "comment": "`execution-spec-tests` generated test",
            "filling-transition-tool": "ethereum-spec-evm-resolver 0.0.5",
            "description": "No description available - add a docstring to the python test class or function.",
            "url": "",
            "fixture-format": "state_test",
            "eels-resolution": {
                "git-url": "https://github.com/ethereum/execution-specs.git",
                "branch": "forks/bpos",
                "commit": "7aacb2c54111391af5e98c505d5010b5698a770f"
            }
        }
    }
}