{
    "tests/static/state_tests/stMemoryTest/mem32kb_singleByte+1Filler.json::mem32kb_singleByte+1[fork_Cancun-state_test-]": {
        "env": {
            "currentCoinbase": "0x2adc25665018aa1fe0e6bc666dac8fc2697ff9ba",
            "currentGasLimit": "0x0a00000000",
            "currentNumber": "0x01",
            "currentTimestamp": "0x03e8",
            "currentRandom": "0x0000000000000000000000000000000000000000000000000000000000020000",
            "currentDifficulty": "0x00",
            "currentBaseFee": "0x0a",
            "currentExcessBlobGas": "0x00"
        },
        "pre": {
            "0xa12303c226cefc3bdd1ea401614fe90a4fcaa2dd": {
                "nonce": "0x00",
                "balance": "0x6400000000",
                "code": "0x",
                "storage": {}
            },
            "0x6701580b0eb5fe8bcc2acdbe511d2bcd577ba2f3": {
                "nonce": "0x00",
                "balance": "0x0de0b6b3a7640000",
                "code": "0x602a617d00535960005500",
                "storage": {}
            }
        },
        "transaction": {
            "nonce": "0x00",
            "gasPrice": "0x0a",
            "gasLimit": [
                "0x0186a0"
            ],
            "to": "0x6701580b0eb5fe8bcc2acdbe511d2bcd577ba2f3",
            "value": [
                "0x0a"
            ],
            "data": [
                "0x"
            ],
            "sender": "0xa12303c226cefc3bdd1ea401614fe90a4fcaa2dd",
            "secretKey": "0x65fc4e5a30080d4cceaa8c0c6701580b0eb5fe8bcc2acdbe511d2bcd577ba2f3"
        },
        "post": {
            "Cancun": [
                {
                    "hash": "0xfd8451a1b41034b82d540dad02c947e82a625d3e4a18e56ee50d357d52c5e69a",
                    "logs": "0x1dcc4de8dec75d7aab85b567b6ccd41ad312451b948a7413f0a142fd40d49347",
                    "txbytes": "0xf860800a830186a0946701580b0eb5fe8bcc2acdbe511d2bcd577ba2f30a8026a0194640268262e2f5f7cc209cc77f9efb83b2bdc8f12ff36a936f744f32d8953ba008e199b0f5b6b6e16d58bc20965f251bdbaed45f8ccf81a88c7350ca7f4ba5fb",
                    "indexes": {
                        "data": 0,
                        "gas": 0,
                        "value": 0
                    },
                    "state": {
                        "0xa12303c226cefc3bdd1ea401614fe90a4fcaa2dd": {
                            "nonce": "0x01",
                            "balance": "0x63fff8aa12",
                            "code": "0x",
                            "storage": {}
                        },
                        "0x6701580b0eb5fe8bcc2acdbe511d2bcd577ba2f3": {
                            "nonce": "0x00",
                            "balance": "0x0de0b6b3a764000a",
                            "code": "0x602a617d00535960005500",
                            "storage": {
                                "0x00": "0x7d20"
                            }
                        }
                    }
                }
            ]
        },
        "config": {
            "blobSchedule": {
                "Cancun": {
                    "target": "0x03",
                    "max": "0x06",
                    "baseFeeUpdateFraction": "0x32f0ed"
                }
            },
            "chainid": "0x01"
        },
        "_info": {
            "hash": "0xfe0c839df593cf8ac61794739ab832b13ed92110542ae5f0fa7287d2dadd8379",
            "comment": "`execution-specs` generated test",
            "filling-transition-tool": "2.18.0rc6",
            "description": "No description available - add a docstring to the python test class or function.",
            "url": "",
            "fixture-format": "state_test"
        }
    },
    "tests/static/state_tests/stMemoryTest/mem32kb_singleByte+1Filler.json::mem32kb_singleByte+1[fork_Osaka-state_test-]": {
        "env": {
            "currentCoinbase": "0x2adc25665018aa1fe0e6bc666dac8fc2697ff9ba",
            "currentGasLimit": "0x0a00000000",
            "currentNumber": "0x01",
            "currentTimestamp": "0x03e8",
            "currentRandom": "0x0000000000000000000000000000000000000000000000000000000000020000",
            "currentDifficulty": "0x00",
            "currentBaseFee": "0x0a",
            "currentExcessBlobGas": "0x00"
        },
        "pre": {
            "0xa12303c226cefc3bdd1ea401614fe90a4fcaa2dd": {
                "nonce": "0x00",
                "balance": "0x6400000000",
                "code": "0x",
                "storage": {}
            },
            "0x6701580b0eb5fe8bcc2acdbe511d2bcd577ba2f3": {
                "nonce": "0x00",
                "balance": "0x0de0b6b3a7640000",
                "code": "0x602a617d00535960005500",
                "storage": {}
            }
        },
        "transaction": {
            "nonce": "0x00",
            "gasPrice": "0x0a",
            "gasLimit": [
                "0x0186a0"
            ],
            "to": "0x6701580b0eb5fe8bcc2acdbe511d2bcd577ba2f3",
            "value": [
                "0x0a"
            ],
            "data": [
                "0x"
            ],
            "sender": "0xa12303c226cefc3bdd1ea401614fe90a4fcaa2dd",
            "secretKey": "0x65fc4e5a30080d4cceaa8c0c6701580b0eb5fe8bcc2acdbe511d2bcd577ba2f3"
        },
        "post": {
            "Osaka": [
                {
                    "hash": "0xfd8451a1b41034b82d540dad02c947e82a625d3e4a18e56ee50d357d52c5e69a",
                    "logs": "0x1dcc4de8dec75d7aab85b567b6ccd41ad312451b948a7413f0a142fd40d49347",
                    "txbytes": "0xf860800a830186a0946701580b0eb5fe8bcc2acdbe511d2bcd577ba2f30a8026a0194640268262e2f5f7cc209cc77f9efb83b2bdc8f12ff36a936f744f32d8953ba008e199b0f5b6b6e16d58bc20965f251bdbaed45f8ccf81a88c7350ca7f4ba5fb",
                    "indexes": {
                        "data": 0,
                        "gas": 0,
                        "value": 0
                    },
                    "state": {
                        "0xa12303c226cefc3bdd1ea401614fe90a4fcaa2dd": {
                            "nonce": "0x01",
                            "balance": "0x63fff8aa12",
                            "code": "0x",
                            "storage": {}
                        },
                        "0x6701580b0eb5fe8bcc2acdbe511d2bcd577ba2f3": {
                            "nonce": "0x00",
                            "balance": "0x0de0b6b3a764000a",
                            "code": "0x602a617d00535960005500",
                            "storage": {
                                "0x00": "0x7d20"
                            }
                        }
                    }
                }
            ]
        },
        "config": {
            "blobSchedule": {
                "Cancun": {
                    "target": "0x03",
                    "max": "0x06",
                    "baseFeeUpdateFraction": "0x32f0ed"
                },
                "Prague": {
                    "target": "0x06",
                    "max": "0x09",
                    "baseFeeUpdateFraction": "0x4c6964"
                },
                "Osaka": {
                    "target": "0x06",
                    "max": "0x09",
                    "baseFeeUpdateFraction": "0x4c6964"
                }
            },
            "chainid": "0x01"
        },
        "_info": {
            "hash": "0xcac3d1b0ece5c3b0d13adf24511f0c549a661bd82d003f3e7674832a1f482ccc",
            "comment": "`execution-specs` generated test",
            "filling-transition-tool": "2.18.0rc6",
            "description": "No description available - add a docstring to the python test class or function.",
            "url": "",
            "fixture-format": "state_test"
        }
    },
    "tests/static/state_tests/stMemoryTest/mem32kb_singleByte+1Filler.json::mem32kb_singleByte+1[fork_Prague-state_test-]": {
        "env": {
            "currentCoinbase": "0x2adc25665018aa1fe0e6bc666dac8fc2697ff9ba",
            "currentGasLimit": "0x0a00000000",
            "currentNumber": "0x01",
            "currentTimestamp": "0x03e8",
            "currentRandom": "0x0000000000000000000000000000000000000000000000000000000000020000",
            "currentDifficulty": "0x00",
            "currentBaseFee": "0x0a",
            "currentExcessBlobGas": "0x00"
        },
        "pre": {
            "0xa12303c226cefc3bdd1ea401614fe90a4fcaa2dd": {
                "nonce": "0x00",
                "balance": "0x6400000000",
                "code": "0x",
                "storage": {}
            },
            "0x6701580b0eb5fe8bcc2acdbe511d2bcd577ba2f3": {
                "nonce": "0x00",
                "balance": "0x0de0b6b3a7640000",
                "code": "0x602a617d00535960005500",
                "storage": {}
            }
        },
        "transaction": {
            "nonce": "0x00",
            "gasPrice": "0x0a",
            "gasLimit": [
                "0x0186a0"
            ],
            "to": "0x6701580b0eb5fe8bcc2acdbe511d2bcd577ba2f3",
            "value": [
                "0x0a"
            ],
            "data": [
                "0x"
            ],
            "sender": "0xa12303c226cefc3bdd1ea401614fe90a4fcaa2dd",
            "secretKey": "0x65fc4e5a30080d4cceaa8c0c6701580b0eb5fe8bcc2acdbe511d2bcd577ba2f3"
        },
        "post": {
            "Prague": [
                {
                    "hash": "0xfd8451a1b41034b82d540dad02c947e82a625d3e4a18e56ee50d357d52c5e69a",
                    "logs": "0x1dcc4de8dec75d7aab85b567b6ccd41ad312451b948a7413f0a142fd40d49347",
                    "txbytes": "0xf860800a830186a0946701580b0eb5fe8bcc2acdbe511d2bcd577ba2f30a8026a0194640268262e2f5f7cc209cc77f9efb83b2bdc8f12ff36a936f744f32d8953ba008e199b0f5b6b6e16d58bc20965f251bdbaed45f8ccf81a88c7350ca7f4ba5fb",
                    "indexes": {
                        "data": 0,
                        "gas": 0,
                        "value": 0
                    },
                    "state": {
                        "0xa12303c226cefc3bdd1ea401614fe90a4fcaa2dd": {
                            "nonce": "0x01",
                            "balance": "0x63fff8aa12",
                            "code": "0x",
                            "storage": {}
                        },
                        "0x6701580b0eb5fe8bcc2acdbe511d2bcd577ba2f3": {
                            "nonce": "0x00",
                            "balance": "0x0de0b6b3a764000a",
                            "code": "0x602a617d00535960005500",
                            "storage": {
                                "0x00": "0x7d20"
                            }
                        }
                    }
                }
            ]
        },
        "config": {
            "blobSchedule": {
                "Cancun": {
                    "target": "0x03",
                    "max": "0x06",
                    "baseFeeUpdateFraction": "0x32f0ed"
                },
                "Prague": {
                    "target": "0x06",
                    "max": "0x09",
                    "baseFeeUpdateFraction": "0x4c6964"
                }
            },
            "chainid": "0x01"
        },
        "_info": {
            "hash": "0xe509402c5cf9ed21cf3d4408a4311f08dc53b6888aaf8839d26c549770bed0f1",
            "comment": "`execution-specs` generated test",
            "filling-transition-tool": "2.18.0rc6",
            "description": "No description available - add a docstring to the python test class or function.",
            "url": "",
            "fixture-format": "state_test"
        }
    }
}