{
    "tests/static/state_tests/stMemoryTest/mem32kb_singleByte+33Filler.json::mem32kb_singleByte+33[fork_Cancun-state_test-]": {
        "env": {
            "currentCoinbase": "0x2adc25665018aa1fe0e6bc666dac8fc2697ff9ba",
            "currentGasLimit": "0x0a00000000",
            "currentNumber": "0x01",
            "currentTimestamp": "0x03e8",
            "currentRandom": "0x0000000000000000000000000000000000000000000000000000000000020000",
            "currentDifficulty": "0x00",
            "currentBaseFee": "0x0a",
            "currentExcessBlobGas": "0x00"
        },
        "pre": {
            "0x92fd644acc7e17b85cf72b207ef16b3d971a292c": {
                "nonce": "0x00",
                "balance": "0x6400000000",
                "code": "0x",
                "storage": {}
            },
            "0xa2ec43fc2e8eba331c81966717560264175fb6a3": {
                "nonce": "0x00",
                "balance": "0x0de0b6b3a7640000",
                "code": "0x602a617d20535960005500",
                "storage": {}
            }
        },
        "transaction": {
            "nonce": "0x00",
            "gasPrice": "0x0a",
            "gasLimit": [
                "0x0186a0"
            ],
            "to": "0xa2ec43fc2e8eba331c81966717560264175fb6a3",
            "value": [
                "0x0a"
            ],
            "data": [
                "0x"
            ],
            "sender": "0x92fd644acc7e17b85cf72b207ef16b3d971a292c",
            "secretKey": "0x15c60c0fd87895bdc3897c75a2ec43fc2e8eba331c81966717560264175fb6a3"
        },
        "post": {
            "Cancun": [
                {
                    "hash": "0xc3cc13ebfa16e2c41bbb1a1ff4974995fe0e68cd6c6ae31a040cea050aa14a9b",
                    "logs": "0x1dcc4de8dec75d7aab85b567b6ccd41ad312451b948a7413f0a142fd40d49347",
                    "txbytes": "0xf860800a830186a094a2ec43fc2e8eba331c81966717560264175fb6a30a8025a0bc1996571644c4d76fe49b4722846d27bcaa764d0d264436211f085af0b08742a05be40fedbc31633fa8d7eb42c4de06c8cc081ebe24d99f6f56377eaa02d11c4b",
                    "indexes": {
                        "data": 0,
                        "gas": 0,
                        "value": 0
                    },
                    "state": {
                        "0x92fd644acc7e17b85cf72b207ef16b3d971a292c": {
                            "nonce": "0x01",
                            "balance": "0x63fff8a9d6",
                            "code": "0x",
                            "storage": {}
                        },
                        "0xa2ec43fc2e8eba331c81966717560264175fb6a3": {
                            "nonce": "0x00",
                            "balance": "0x0de0b6b3a764000a",
                            "code": "0x602a617d20535960005500",
                            "storage": {
                                "0x00": "0x7d40"
                            }
                        }
                    }
                }
            ]
        },
        "config": {
            "blobSchedule": {
                "Cancun": {
                    "target": "0x03",
                    "max": "0x06",
                    "baseFeeUpdateFraction": "0x32f0ed"
                }
            },
            "chainid": "0x01"
        },
        "_info": {
            "hash": "0x6054c0276fd58bac11970f9cb4640e93bf06e28359c66b56226c53f77447975e",
            "comment": "`execution-spec-tests` generated test",
            "filling-transition-tool": "ethereum-spec-evm-resolver 0.0.5",
            "description": "No description available - add a docstring to the python test class or function.",
            "url": "",
            "fixture-format": "state_test",
            "eels-resolution": {
                "git-url": "https://github.com/marioevz/execution-specs.git",
                "branch": "forks/bpo1",
                "commit": "3387e5f4aedfe99becfdc39b444d6371e25e0924"
            }
        }
    },
    "tests/static/state_tests/stMemoryTest/mem32kb_singleByte+33Filler.json::mem32kb_singleByte+33[fork_Osaka-state_test-]": {
        "env": {
            "currentCoinbase": "0x2adc25665018aa1fe0e6bc666dac8fc2697ff9ba",
            "currentGasLimit": "0x0a00000000",
            "currentNumber": "0x01",
            "currentTimestamp": "0x03e8",
            "currentRandom": "0x0000000000000000000000000000000000000000000000000000000000020000",
            "currentDifficulty": "0x00",
            "currentBaseFee": "0x0a",
            "currentExcessBlobGas": "0x00"
        },
        "pre": {
            "0x92fd644acc7e17b85cf72b207ef16b3d971a292c": {
                "nonce": "0x00",
                "balance": "0x6400000000",
                "code": "0x",
                "storage": {}
            },
            "0xa2ec43fc2e8eba331c81966717560264175fb6a3": {
                "nonce": "0x00",
                "balance": "0x0de0b6b3a7640000",
                "code": "0x602a617d20535960005500",
                "storage": {}
            }
        },
        "transaction": {
            "nonce": "0x00",
            "gasPrice": "0x0a",
            "gasLimit": [
                "0x0186a0"
            ],
            "to": "0xa2ec43fc2e8eba331c81966717560264175fb6a3",
            "value": [
                "0x0a"
            ],
            "data": [
                "0x"
            ],
            "sender": "0x92fd644acc7e17b85cf72b207ef16b3d971a292c",
            "secretKey": "0x15c60c0fd87895bdc3897c75a2ec43fc2e8eba331c81966717560264175fb6a3"
        },
        "post": {
            "Osaka": [
                {
                    "hash": "0xc3cc13ebfa16e2c41bbb1a1ff4974995fe0e68cd6c6ae31a040cea050aa14a9b",
                    "logs": "0x1dcc4de8dec75d7aab85b567b6ccd41ad312451b948a7413f0a142fd40d49347",
                    "txbytes": "0xf860800a830186a094a2ec43fc2e8eba331c81966717560264175fb6a30a8025a0bc1996571644c4d76fe49b4722846d27bcaa764d0d264436211f085af0b08742a05be40fedbc31633fa8d7eb42c4de06c8cc081ebe24d99f6f56377eaa02d11c4b",
                    "indexes": {
                        "data": 0,
                        "gas": 0,
                        "value": 0
                    },
                    "state": {
                        "0x92fd644acc7e17b85cf72b207ef16b3d971a292c": {
                            "nonce": "0x01",
                            "balance": "0x63fff8a9d6",
                            "code": "0x",
                            "storage": {}
                        },
                        "0xa2ec43fc2e8eba331c81966717560264175fb6a3": {
                            "nonce": "0x00",
                            "balance": "0x0de0b6b3a764000a",
                            "code": "0x602a617d20535960005500",
                            "storage": {
                                "0x00": "0x7d40"
                            }
                        }
                    }
                }
            ]
        },
        "config": {
            "blobSchedule": {
                "Cancun": {
                    "target": "0x03",
                    "max": "0x06",
                    "baseFeeUpdateFraction": "0x32f0ed"
                },
                "Prague": {
                    "target": "0x06",
                    "max": "0x09",
                    "baseFeeUpdateFraction": "0x4c6964"
                },
                "Osaka": {
                    "target": "0x06",
                    "max": "0x09",
                    "baseFeeUpdateFraction": "0x4c6964"
                }
            },
            "chainid": "0x01"
        },
        "_info": {
            "hash": "0x0070f0afd771b07ea957f47f1255a0f8a7dc4d09d812ae93ba7ef83edf4b049f",
            "comment": "`execution-spec-tests` generated test",
            "filling-transition-tool": "ethereum-spec-evm-resolver 0.0.5",
            "description": "No description available - add a docstring to the python test class or function.",
            "url": "",
            "fixture-format": "state_test",
            "eels-resolution": {
                "git-url": "https://github.com/marioevz/execution-specs.git",
                "branch": "forks/bpo1",
                "commit": "3387e5f4aedfe99becfdc39b444d6371e25e0924"
            }
        }
    },
    "tests/static/state_tests/stMemoryTest/mem32kb_singleByte+33Filler.json::mem32kb_singleByte+33[fork_Prague-state_test-]": {
        "env": {
            "currentCoinbase": "0x2adc25665018aa1fe0e6bc666dac8fc2697ff9ba",
            "currentGasLimit": "0x0a00000000",
            "currentNumber": "0x01",
            "currentTimestamp": "0x03e8",
            "currentRandom": "0x0000000000000000000000000000000000000000000000000000000000020000",
            "currentDifficulty": "0x00",
            "currentBaseFee": "0x0a",
            "currentExcessBlobGas": "0x00"
        },
        "pre": {
            "0x92fd644acc7e17b85cf72b207ef16b3d971a292c": {
                "nonce": "0x00",
                "balance": "0x6400000000",
                "code": "0x",
                "storage": {}
            },
            "0xa2ec43fc2e8eba331c81966717560264175fb6a3": {
                "nonce": "0x00",
                "balance": "0x0de0b6b3a7640000",
                "code": "0x602a617d20535960005500",
                "storage": {}
            }
        },
        "transaction": {
            "nonce": "0x00",
            "gasPrice": "0x0a",
            "gasLimit": [
                "0x0186a0"
            ],
            "to": "0xa2ec43fc2e8eba331c81966717560264175fb6a3",
            "value": [
                "0x0a"
            ],
            "data": [
                "0x"
            ],
            "sender": "0x92fd644acc7e17b85cf72b207ef16b3d971a292c",
            "secretKey": "0x15c60c0fd87895bdc3897c75a2ec43fc2e8eba331c81966717560264175fb6a3"
        },
        "post": {
            "Prague": [
                {
                    "hash": "0xc3cc13ebfa16e2c41bbb1a1ff4974995fe0e68cd6c6ae31a040cea050aa14a9b",
                    "logs": "0x1dcc4de8dec75d7aab85b567b6ccd41ad312451b948a7413f0a142fd40d49347",
                    "txbytes": "0xf860800a830186a094a2ec43fc2e8eba331c81966717560264175fb6a30a8025a0bc1996571644c4d76fe49b4722846d27bcaa764d0d264436211f085af0b08742a05be40fedbc31633fa8d7eb42c4de06c8cc081ebe24d99f6f56377eaa02d11c4b",
                    "indexes": {
                        "data": 0,
                        "gas": 0,
                        "value": 0
                    },
                    "state": {
                        "0x92fd644acc7e17b85cf72b207ef16b3d971a292c": {
                            "nonce": "0x01",
                            "balance": "0x63fff8a9d6",
                            "code": "0x",
                            "storage": {}
                        },
                        "0xa2ec43fc2e8eba331c81966717560264175fb6a3": {
                            "nonce": "0x00",
                            "balance": "0x0de0b6b3a764000a",
                            "code": "0x602a617d20535960005500",
                            "storage": {
                                "0x00": "0x7d40"
                            }
                        }
                    }
                }
            ]
        },
        "config": {
            "blobSchedule": {
                "Cancun": {
                    "target": "0x03",
                    "max": "0x06",
                    "baseFeeUpdateFraction": "0x32f0ed"
                },
                "Prague": {
                    "target": "0x06",
                    "max": "0x09",
                    "baseFeeUpdateFraction": "0x4c6964"
                }
            },
            "chainid": "0x01"
        },
        "_info": {
            "hash": "0x11001717ba8acb1feb375fbb6f5729be055a5f3f6ab6c7845363c87f5d2c7b1c",
            "comment": "`execution-spec-tests` generated test",
            "filling-transition-tool": "ethereum-spec-evm-resolver 0.0.5",
            "description": "No description available - add a docstring to the python test class or function.",
            "url": "",
            "fixture-format": "state_test",
            "eels-resolution": {
                "git-url": "https://github.com/marioevz/execution-specs.git",
                "branch": "forks/bpo1",
                "commit": "3387e5f4aedfe99becfdc39b444d6371e25e0924"
            }
        }
    }
}