{
    "tests/static/state_tests/stMemoryTest/mem64kb+31Filler.json::mem64kb+31[fork_Cancun-state_test-]": {
        "env": {
            "currentCoinbase": "0x2adc25665018aa1fe0e6bc666dac8fc2697ff9ba",
            "currentGasLimit": "0x0a00000000",
            "currentNumber": "0x01",
            "currentTimestamp": "0x03e8",
            "currentRandom": "0x0000000000000000000000000000000000000000000000000000000000020000",
            "currentDifficulty": "0x00",
            "currentBaseFee": "0x0a",
            "currentExcessBlobGas": "0x00"
        },
        "pre": {
            "0xa8917bfe2f858c76311af873897085fa732de342": {
                "nonce": "0x00",
                "balance": "0x6400000000",
                "code": "0x",
                "storage": {}
            },
            "0x75217bdbbf79cdcf718b8d09c222a78dab94e415": {
                "nonce": "0x00",
                "balance": "0x0de0b6b3a7640000",
                "code": "0x602a61f9ff5261f9ff516001555960005500",
                "storage": {}
            }
        },
        "transaction": {
            "nonce": "0x00",
            "gasPrice": "0x0a",
            "gasLimit": [
                "0x0186a0"
            ],
            "to": "0x75217bdbbf79cdcf718b8d09c222a78dab94e415",
            "value": [
                "0x0a"
            ],
            "data": [
                "0x"
            ],
            "sender": "0xa8917bfe2f858c76311af873897085fa732de342",
            "secretKey": "0xd099f06ba3aac3dd45daca8a75217bdbbf79cdcf718b8d09c222a78dab94e415"
        },
        "post": {
            "Cancun": [
                {
                    "hash": "0x416aed187ddcddf7a7f7226e571eca0f784bfc7b3065436824c9c18eb783a26e",
                    "logs": "0x1dcc4de8dec75d7aab85b567b6ccd41ad312451b948a7413f0a142fd40d49347",
                    "txbytes": "0xf860800a830186a09475217bdbbf79cdcf718b8d09c222a78dab94e4150a8026a078b418c52eda61a8670737b2bb81633c1867aaa262d0b6801fa0d693298a8fbfa040fb6c80328068aec933d803c92465bd2cda81d4d2e816b160be0c87eb9c794e",
                    "indexes": {
                        "data": 0,
                        "gas": 0,
                        "value": 0
                    },
                    "state": {
                        "0xa8917bfe2f858c76311af873897085fa732de342": {
                            "nonce": "0x01",
                            "balance": "0x63fff3f03a",
                            "code": "0x",
                            "storage": {}
                        },
                        "0x75217bdbbf79cdcf718b8d09c222a78dab94e415": {
                            "nonce": "0x00",
                            "balance": "0x0de0b6b3a764000a",
                            "code": "0x602a61f9ff5261f9ff516001555960005500",
                            "storage": {
                                "0x01": "0x2a",
                                "0x00": "0xfa20"
                            }
                        }
                    }
                }
            ]
        },
        "config": {
            "blobSchedule": {
                "Cancun": {
                    "target": "0x03",
                    "max": "0x06",
                    "baseFeeUpdateFraction": "0x32f0ed"
                }
            },
            "chainid": "0x01"
        },
        "_info": {
            "hash": "0xfc8813dfedfaadbe9a5f1e47525bcd34f0e2e74acda5035a3386e31c967844ab",
            "comment": "`execution-spec-tests` generated test",
            "filling-transition-tool": "ethereum-spec-evm-resolver 0.0.5",
            "description": "No description available - add a docstring to the python test class or function.",
            "url": "",
            "fixture-format": "state_test",
            "eels-resolution": {
                "git-url": "https://github.com/ethereum/execution-specs.git",
                "branch": "forks/bpos",
                "commit": "7aacb2c54111391af5e98c505d5010b5698a770f"
            }
        }
    },
    "tests/static/state_tests/stMemoryTest/mem64kb+31Filler.json::mem64kb+31[fork_Osaka-state_test-]": {
        "env": {
            "currentCoinbase": "0x2adc25665018aa1fe0e6bc666dac8fc2697ff9ba",
            "currentGasLimit": "0x0a00000000",
            "currentNumber": "0x01",
            "currentTimestamp": "0x03e8",
            "currentRandom": "0x0000000000000000000000000000000000000000000000000000000000020000",
            "currentDifficulty": "0x00",
            "currentBaseFee": "0x0a",
            "currentExcessBlobGas": "0x00"
        },
        "pre": {
            "0xa8917bfe2f858c76311af873897085fa732de342": {
                "nonce": "0x00",
                "balance": "0x6400000000",
                "code": "0x",
                "storage": {}
            },
            "0x75217bdbbf79cdcf718b8d09c222a78dab94e415": {
                "nonce": "0x00",
                "balance": "0x0de0b6b3a7640000",
                "code": "0x602a61f9ff5261f9ff516001555960005500",
                "storage": {}
            }
        },
        "transaction": {
            "nonce": "0x00",
            "gasPrice": "0x0a",
            "gasLimit": [
                "0x0186a0"
            ],
            "to": "0x75217bdbbf79cdcf718b8d09c222a78dab94e415",
            "value": [
                "0x0a"
            ],
            "data": [
                "0x"
            ],
            "sender": "0xa8917bfe2f858c76311af873897085fa732de342",
            "secretKey": "0xd099f06ba3aac3dd45daca8a75217bdbbf79cdcf718b8d09c222a78dab94e415"
        },
        "post": {
            "Osaka": [
                {
                    "hash": "0x416aed187ddcddf7a7f7226e571eca0f784bfc7b3065436824c9c18eb783a26e",
                    "logs": "0x1dcc4de8dec75d7aab85b567b6ccd41ad312451b948a7413f0a142fd40d49347",
                    "txbytes": "0xf860800a830186a09475217bdbbf79cdcf718b8d09c222a78dab94e4150a8026a078b418c52eda61a8670737b2bb81633c1867aaa262d0b6801fa0d693298a8fbfa040fb6c80328068aec933d803c92465bd2cda81d4d2e816b160be0c87eb9c794e",
                    "indexes": {
                        "data": 0,
                        "gas": 0,
                        "value": 0
                    },
                    "state": {
                        "0xa8917bfe2f858c76311af873897085fa732de342": {
                            "nonce": "0x01",
                            "balance": "0x63fff3f03a",
                            "code": "0x",
                            "storage": {}
                        },
                        "0x75217bdbbf79cdcf718b8d09c222a78dab94e415": {
                            "nonce": "0x00",
                            "balance": "0x0de0b6b3a764000a",
                            "code": "0x602a61f9ff5261f9ff516001555960005500",
                            "storage": {
                                "0x01": "0x2a",
                                "0x00": "0xfa20"
                            }
                        }
                    }
                }
            ]
        },
        "config": {
            "blobSchedule": {
                "Cancun": {
                    "target": "0x03",
                    "max": "0x06",
                    "baseFeeUpdateFraction": "0x32f0ed"
                },
                "Prague": {
                    "target": "0x06",
                    "max": "0x09",
                    "baseFeeUpdateFraction": "0x4c6964"
                },
                "Osaka": {
                    "target": "0x06",
                    "max": "0x09",
                    "baseFeeUpdateFraction": "0x4c6964"
                }
            },
            "chainid": "0x01"
        },
        "_info": {
            "hash": "0x0008b22fc3eff29579b366e4b893090e559777634294349636b520bd9e801292",
            "comment": "`execution-spec-tests` generated test",
            "filling-transition-tool": "ethereum-spec-evm-resolver 0.0.5",
            "description": "No description available - add a docstring to the python test class or function.",
            "url": "",
            "fixture-format": "state_test",
            "eels-resolution": {
                "git-url": "https://github.com/ethereum/execution-specs.git",
                "branch": "forks/bpos",
                "commit": "7aacb2c54111391af5e98c505d5010b5698a770f"
            }
        }
    },
    "tests/static/state_tests/stMemoryTest/mem64kb+31Filler.json::mem64kb+31[fork_Prague-state_test-]": {
        "env": {
            "currentCoinbase": "0x2adc25665018aa1fe0e6bc666dac8fc2697ff9ba",
            "currentGasLimit": "0x0a00000000",
            "currentNumber": "0x01",
            "currentTimestamp": "0x03e8",
            "currentRandom": "0x0000000000000000000000000000000000000000000000000000000000020000",
            "currentDifficulty": "0x00",
            "currentBaseFee": "0x0a",
            "currentExcessBlobGas": "0x00"
        },
        "pre": {
            "0xa8917bfe2f858c76311af873897085fa732de342": {
                "nonce": "0x00",
                "balance": "0x6400000000",
                "code": "0x",
                "storage": {}
            },
            "0x75217bdbbf79cdcf718b8d09c222a78dab94e415": {
                "nonce": "0x00",
                "balance": "0x0de0b6b3a7640000",
                "code": "0x602a61f9ff5261f9ff516001555960005500",
                "storage": {}
            }
        },
        "transaction": {
            "nonce": "0x00",
            "gasPrice": "0x0a",
            "gasLimit": [
                "0x0186a0"
            ],
            "to": "0x75217bdbbf79cdcf718b8d09c222a78dab94e415",
            "value": [
                "0x0a"
            ],
            "data": [
                "0x"
            ],
            "sender": "0xa8917bfe2f858c76311af873897085fa732de342",
            "secretKey": "0xd099f06ba3aac3dd45daca8a75217bdbbf79cdcf718b8d09c222a78dab94e415"
        },
        "post": {
            "Prague": [
                {
                    "hash": "0x416aed187ddcddf7a7f7226e571eca0f784bfc7b3065436824c9c18eb783a26e",
                    "logs": "0x1dcc4de8dec75d7aab85b567b6ccd41ad312451b948a7413f0a142fd40d49347",
                    "txbytes": "0xf860800a830186a09475217bdbbf79cdcf718b8d09c222a78dab94e4150a8026a078b418c52eda61a8670737b2bb81633c1867aaa262d0b6801fa0d693298a8fbfa040fb6c80328068aec933d803c92465bd2cda81d4d2e816b160be0c87eb9c794e",
                    "indexes": {
                        "data": 0,
                        "gas": 0,
                        "value": 0
                    },
                    "state": {
                        "0xa8917bfe2f858c76311af873897085fa732de342": {
                            "nonce": "0x01",
                            "balance": "0x63fff3f03a",
                            "code": "0x",
                            "storage": {}
                        },
                        "0x75217bdbbf79cdcf718b8d09c222a78dab94e415": {
                            "nonce": "0x00",
                            "balance": "0x0de0b6b3a764000a",
                            "code": "0x602a61f9ff5261f9ff516001555960005500",
                            "storage": {
                                "0x01": "0x2a",
                                "0x00": "0xfa20"
                            }
                        }
                    }
                }
            ]
        },
        "config": {
            "blobSchedule": {
                "Cancun": {
                    "target": "0x03",
                    "max": "0x06",
                    "baseFeeUpdateFraction": "0x32f0ed"
                },
                "Prague": {
                    "target": "0x06",
                    "max": "0x09",
                    "baseFeeUpdateFraction": "0x4c6964"
                }
            },
            "chainid": "0x01"
        },
        "_info": {
            "hash": "0xa6436a7165cdf4e28f4b2fb7ffaa5acd9d9114999c869411d6348cf6ab889529",
            "comment": "`execution-spec-tests` generated test",
            "filling-transition-tool": "ethereum-spec-evm-resolver 0.0.5",
            "description": "No description available - add a docstring to the python test class or function.",
            "url": "",
            "fixture-format": "state_test",
            "eels-resolution": {
                "git-url": "https://github.com/ethereum/execution-specs.git",
                "branch": "forks/bpos",
                "commit": "7aacb2c54111391af5e98c505d5010b5698a770f"
            }
        }
    }
}