{
    "tests/static/state_tests/stMemoryTest/mem64kb_singleByte-33Filler.json::mem64kb_singleByte-33[fork_Cancun-state_test-]": {
        "env": {
            "currentCoinbase": "0x2adc25665018aa1fe0e6bc666dac8fc2697ff9ba",
            "currentGasLimit": "0x0a00000000",
            "currentNumber": "0x01",
            "currentTimestamp": "0x03e8",
            "currentRandom": "0x0000000000000000000000000000000000000000000000000000000000020000",
            "currentDifficulty": "0x00",
            "currentBaseFee": "0x0a",
            "currentExcessBlobGas": "0x00"
        },
        "pre": {
            "0xef8cccd62332cd6e89e38dac0c9615ec32e9d2ee": {
                "nonce": "0x00",
                "balance": "0x6400000000",
                "code": "0x",
                "storage": {}
            },
            "0x9c1d50af40664500ee30a4b429b4d1772b391b32": {
                "nonce": "0x00",
                "balance": "0x0de0b6b3a7640000",
                "code": "0x602a61f9de535960005500",
                "storage": {}
            }
        },
        "transaction": {
            "nonce": "0x00",
            "gasPrice": "0x0a",
            "gasLimit": [
                "0x0186a0"
            ],
            "to": "0x9c1d50af40664500ee30a4b429b4d1772b391b32",
            "value": [
                "0x0a"
            ],
            "data": [
                "0x"
            ],
            "sender": "0xef8cccd62332cd6e89e38dac0c9615ec32e9d2ee",
            "secretKey": "0x3d2891ef67706b343b4058b59c1d50af40664500ee30a4b429b4d1772b391b32"
        },
        "post": {
            "Cancun": [
                {
                    "hash": "0xfefcbc6baa6498df22f1fa5892e88a771c426207a5ec0da43c5437c29358959b",
                    "logs": "0x1dcc4de8dec75d7aab85b567b6ccd41ad312451b948a7413f0a142fd40d49347",
                    "txbytes": "0xf860800a830186a0949c1d50af40664500ee30a4b429b4d1772b391b320a8025a0482c39af106bd9c6fcba31c8f28374263aaab5291b14c438b1141ed16e0e453ca03e6e0be1283b5c134dab446fd22e3fc3df2ae33e930f939debd02c2e604d3e86",
                    "indexes": {
                        "data": 0,
                        "gas": 0,
                        "value": 0
                    },
                    "state": {
                        "0xef8cccd62332cd6e89e38dac0c9615ec32e9d2ee": {
                            "nonce": "0x01",
                            "balance": "0x63fff750b8",
                            "code": "0x",
                            "storage": {}
                        },
                        "0x9c1d50af40664500ee30a4b429b4d1772b391b32": {
                            "nonce": "0x00",
                            "balance": "0x0de0b6b3a764000a",
                            "code": "0x602a61f9de535960005500",
                            "storage": {
                                "0x00": "0xf9e0"
                            }
                        }
                    }
                }
            ]
        },
        "config": {
            "blobSchedule": {
                "Cancun": {
                    "target": "0x03",
                    "max": "0x06",
                    "baseFeeUpdateFraction": "0x32f0ed"
                }
            },
            "chainid": "0x01"
        },
        "_info": {
            "hash": "0x20bb49804c90dc139cfddba678903f261492202b2e15b16d61ed9fe73502db82",
            "comment": "`execution-specs` generated test",
            "filling-transition-tool": "2.18.0rc6",
            "description": "No description available - add a docstring to the python test class or function.",
            "url": "",
            "fixture-format": "state_test"
        }
    },
    "tests/static/state_tests/stMemoryTest/mem64kb_singleByte-33Filler.json::mem64kb_singleByte-33[fork_Osaka-state_test-]": {
        "env": {
            "currentCoinbase": "0x2adc25665018aa1fe0e6bc666dac8fc2697ff9ba",
            "currentGasLimit": "0x0a00000000",
            "currentNumber": "0x01",
            "currentTimestamp": "0x03e8",
            "currentRandom": "0x0000000000000000000000000000000000000000000000000000000000020000",
            "currentDifficulty": "0x00",
            "currentBaseFee": "0x0a",
            "currentExcessBlobGas": "0x00"
        },
        "pre": {
            "0xef8cccd62332cd6e89e38dac0c9615ec32e9d2ee": {
                "nonce": "0x00",
                "balance": "0x6400000000",
                "code": "0x",
                "storage": {}
            },
            "0x9c1d50af40664500ee30a4b429b4d1772b391b32": {
                "nonce": "0x00",
                "balance": "0x0de0b6b3a7640000",
                "code": "0x602a61f9de535960005500",
                "storage": {}
            }
        },
        "transaction": {
            "nonce": "0x00",
            "gasPrice": "0x0a",
            "gasLimit": [
                "0x0186a0"
            ],
            "to": "0x9c1d50af40664500ee30a4b429b4d1772b391b32",
            "value": [
                "0x0a"
            ],
            "data": [
                "0x"
            ],
            "sender": "0xef8cccd62332cd6e89e38dac0c9615ec32e9d2ee",
            "secretKey": "0x3d2891ef67706b343b4058b59c1d50af40664500ee30a4b429b4d1772b391b32"
        },
        "post": {
            "Osaka": [
                {
                    "hash": "0xfefcbc6baa6498df22f1fa5892e88a771c426207a5ec0da43c5437c29358959b",
                    "logs": "0x1dcc4de8dec75d7aab85b567b6ccd41ad312451b948a7413f0a142fd40d49347",
                    "txbytes": "0xf860800a830186a0949c1d50af40664500ee30a4b429b4d1772b391b320a8025a0482c39af106bd9c6fcba31c8f28374263aaab5291b14c438b1141ed16e0e453ca03e6e0be1283b5c134dab446fd22e3fc3df2ae33e930f939debd02c2e604d3e86",
                    "indexes": {
                        "data": 0,
                        "gas": 0,
                        "value": 0
                    },
                    "state": {
                        "0xef8cccd62332cd6e89e38dac0c9615ec32e9d2ee": {
                            "nonce": "0x01",
                            "balance": "0x63fff750b8",
                            "code": "0x",
                            "storage": {}
                        },
                        "0x9c1d50af40664500ee30a4b429b4d1772b391b32": {
                            "nonce": "0x00",
                            "balance": "0x0de0b6b3a764000a",
                            "code": "0x602a61f9de535960005500",
                            "storage": {
                                "0x00": "0xf9e0"
                            }
                        }
                    }
                }
            ]
        },
        "config": {
            "blobSchedule": {
                "Cancun": {
                    "target": "0x03",
                    "max": "0x06",
                    "baseFeeUpdateFraction": "0x32f0ed"
                },
                "Prague": {
                    "target": "0x06",
                    "max": "0x09",
                    "baseFeeUpdateFraction": "0x4c6964"
                },
                "Osaka": {
                    "target": "0x06",
                    "max": "0x09",
                    "baseFeeUpdateFraction": "0x4c6964"
                }
            },
            "chainid": "0x01"
        },
        "_info": {
            "hash": "0xb379fb8ec336d0185e939f8eb0fffac56a4d9aa26fd09b2ac87e4f0e8acfdb7f",
            "comment": "`execution-specs` generated test",
            "filling-transition-tool": "2.18.0rc6",
            "description": "No description available - add a docstring to the python test class or function.",
            "url": "",
            "fixture-format": "state_test"
        }
    },
    "tests/static/state_tests/stMemoryTest/mem64kb_singleByte-33Filler.json::mem64kb_singleByte-33[fork_Prague-state_test-]": {
        "env": {
            "currentCoinbase": "0x2adc25665018aa1fe0e6bc666dac8fc2697ff9ba",
            "currentGasLimit": "0x0a00000000",
            "currentNumber": "0x01",
            "currentTimestamp": "0x03e8",
            "currentRandom": "0x0000000000000000000000000000000000000000000000000000000000020000",
            "currentDifficulty": "0x00",
            "currentBaseFee": "0x0a",
            "currentExcessBlobGas": "0x00"
        },
        "pre": {
            "0xef8cccd62332cd6e89e38dac0c9615ec32e9d2ee": {
                "nonce": "0x00",
                "balance": "0x6400000000",
                "code": "0x",
                "storage": {}
            },
            "0x9c1d50af40664500ee30a4b429b4d1772b391b32": {
                "nonce": "0x00",
                "balance": "0x0de0b6b3a7640000",
                "code": "0x602a61f9de535960005500",
                "storage": {}
            }
        },
        "transaction": {
            "nonce": "0x00",
            "gasPrice": "0x0a",
            "gasLimit": [
                "0x0186a0"
            ],
            "to": "0x9c1d50af40664500ee30a4b429b4d1772b391b32",
            "value": [
                "0x0a"
            ],
            "data": [
                "0x"
            ],
            "sender": "0xef8cccd62332cd6e89e38dac0c9615ec32e9d2ee",
            "secretKey": "0x3d2891ef67706b343b4058b59c1d50af40664500ee30a4b429b4d1772b391b32"
        },
        "post": {
            "Prague": [
                {
                    "hash": "0xfefcbc6baa6498df22f1fa5892e88a771c426207a5ec0da43c5437c29358959b",
                    "logs": "0x1dcc4de8dec75d7aab85b567b6ccd41ad312451b948a7413f0a142fd40d49347",
                    "txbytes": "0xf860800a830186a0949c1d50af40664500ee30a4b429b4d1772b391b320a8025a0482c39af106bd9c6fcba31c8f28374263aaab5291b14c438b1141ed16e0e453ca03e6e0be1283b5c134dab446fd22e3fc3df2ae33e930f939debd02c2e604d3e86",
                    "indexes": {
                        "data": 0,
                        "gas": 0,
                        "value": 0
                    },
                    "state": {
                        "0xef8cccd62332cd6e89e38dac0c9615ec32e9d2ee": {
                            "nonce": "0x01",
                            "balance": "0x63fff750b8",
                            "code": "0x",
                            "storage": {}
                        },
                        "0x9c1d50af40664500ee30a4b429b4d1772b391b32": {
                            "nonce": "0x00",
                            "balance": "0x0de0b6b3a764000a",
                            "code": "0x602a61f9de535960005500",
                            "storage": {
                                "0x00": "0xf9e0"
                            }
                        }
                    }
                }
            ]
        },
        "config": {
            "blobSchedule": {
                "Cancun": {
                    "target": "0x03",
                    "max": "0x06",
                    "baseFeeUpdateFraction": "0x32f0ed"
                },
                "Prague": {
                    "target": "0x06",
                    "max": "0x09",
                    "baseFeeUpdateFraction": "0x4c6964"
                }
            },
            "chainid": "0x01"
        },
        "_info": {
            "hash": "0xbeacb8653f7446ca9eac1a3dcd9e6051bca04921c8d551fac3ee81536f09ad52",
            "comment": "`execution-specs` generated test",
            "filling-transition-tool": "2.18.0rc6",
            "description": "No description available - add a docstring to the python test class or function.",
            "url": "",
            "fixture-format": "state_test"
        }
    }
}