{
    "tests/static/state_tests/stMemoryTest/mem64kb+32Filler.json::mem64kb+32[fork_Cancun-state_test-]": {
        "env": {
            "currentCoinbase": "0x2adc25665018aa1fe0e6bc666dac8fc2697ff9ba",
            "currentGasLimit": "0x0a00000000",
            "currentNumber": "0x01",
            "currentTimestamp": "0x03e8",
            "currentRandom": "0x0000000000000000000000000000000000000000000000000000000000020000",
            "currentDifficulty": "0x00",
            "currentBaseFee": "0x0a",
            "currentExcessBlobGas": "0x00"
        },
        "pre": {
            "0x87b27803865842841ee1dd900d504271419d42b4": {
                "nonce": "0x00",
                "balance": "0x6400000000",
                "code": "0x",
                "storage": {}
            },
            "0xf107f2545c9867e8982424c47d27f34bb1ff72d3": {
                "nonce": "0x00",
                "balance": "0x0de0b6b3a7640000",
                "code": "0x602a61fa005261fa00516001555960005500",
                "storage": {}
            }
        },
        "transaction": {
            "nonce": "0x00",
            "gasPrice": "0x0a",
            "gasLimit": [
                "0x0186a0"
            ],
            "to": "0xf107f2545c9867e8982424c47d27f34bb1ff72d3",
            "value": [
                "0x0a"
            ],
            "data": [
                "0x"
            ],
            "sender": "0x87b27803865842841ee1dd900d504271419d42b4",
            "secretKey": "0x2b295401748f995512054a3af107f2545c9867e8982424c47d27f34bb1ff72d3"
        },
        "post": {
            "Cancun": [
                {
                    "hash": "0xe0a6df5185a7a841c4e511cd1ae990017ed8fbdbb04e99973f03e1b40c0bbc0a",
                    "logs": "0x1dcc4de8dec75d7aab85b567b6ccd41ad312451b948a7413f0a142fd40d49347",
                    "txbytes": "0xf860800a830186a094f107f2545c9867e8982424c47d27f34bb1ff72d30a8026a0e24fd79dd58911c7882a0aaa4988b3d122c4051eb29a4de0049af76c7fe798f4a006e307e8134fd012e58ec8eaef4374c629fb048a7a018d5724b389fbdec6eb2e",
                    "indexes": {
                        "data": 0,
                        "gas": 0,
                        "value": 0
                    },
                    "state": {
                        "0x87b27803865842841ee1dd900d504271419d42b4": {
                            "nonce": "0x01",
                            "balance": "0x63fff3f03a",
                            "code": "0x",
                            "storage": {}
                        },
                        "0xf107f2545c9867e8982424c47d27f34bb1ff72d3": {
                            "nonce": "0x00",
                            "balance": "0x0de0b6b3a764000a",
                            "code": "0x602a61fa005261fa00516001555960005500",
                            "storage": {
                                "0x01": "0x2a",
                                "0x00": "0xfa20"
                            }
                        }
                    }
                }
            ]
        },
        "config": {
            "blobSchedule": {
                "Cancun": {
                    "target": "0x03",
                    "max": "0x06",
                    "baseFeeUpdateFraction": "0x32f0ed"
                }
            },
            "chainid": "0x01"
        },
        "_info": {
            "hash": "0x1c2bb3e48d7a605d46b2546b40a3cc117501a6c61d621a8ee36b931fc7ecf91b",
            "comment": "`execution-spec-tests` generated test",
            "filling-transition-tool": "ethereum-spec-evm-resolver 0.0.5",
            "description": "No description available - add a docstring to the python test class or function.",
            "url": "",
            "fixture-format": "state_test",
            "eels-resolution": {
                "git-url": "https://github.com/ethereum/execution-specs.git",
                "branch": "forks/bpos",
                "commit": "7aacb2c54111391af5e98c505d5010b5698a770f"
            }
        }
    },
    "tests/static/state_tests/stMemoryTest/mem64kb+32Filler.json::mem64kb+32[fork_Osaka-state_test-]": {
        "env": {
            "currentCoinbase": "0x2adc25665018aa1fe0e6bc666dac8fc2697ff9ba",
            "currentGasLimit": "0x0a00000000",
            "currentNumber": "0x01",
            "currentTimestamp": "0x03e8",
            "currentRandom": "0x0000000000000000000000000000000000000000000000000000000000020000",
            "currentDifficulty": "0x00",
            "currentBaseFee": "0x0a",
            "currentExcessBlobGas": "0x00"
        },
        "pre": {
            "0x87b27803865842841ee1dd900d504271419d42b4": {
                "nonce": "0x00",
                "balance": "0x6400000000",
                "code": "0x",
                "storage": {}
            },
            "0xf107f2545c9867e8982424c47d27f34bb1ff72d3": {
                "nonce": "0x00",
                "balance": "0x0de0b6b3a7640000",
                "code": "0x602a61fa005261fa00516001555960005500",
                "storage": {}
            }
        },
        "transaction": {
            "nonce": "0x00",
            "gasPrice": "0x0a",
            "gasLimit": [
                "0x0186a0"
            ],
            "to": "0xf107f2545c9867e8982424c47d27f34bb1ff72d3",
            "value": [
                "0x0a"
            ],
            "data": [
                "0x"
            ],
            "sender": "0x87b27803865842841ee1dd900d504271419d42b4",
            "secretKey": "0x2b295401748f995512054a3af107f2545c9867e8982424c47d27f34bb1ff72d3"
        },
        "post": {
            "Osaka": [
                {
                    "hash": "0xe0a6df5185a7a841c4e511cd1ae990017ed8fbdbb04e99973f03e1b40c0bbc0a",
                    "logs": "0x1dcc4de8dec75d7aab85b567b6ccd41ad312451b948a7413f0a142fd40d49347",
                    "txbytes": "0xf860800a830186a094f107f2545c9867e8982424c47d27f34bb1ff72d30a8026a0e24fd79dd58911c7882a0aaa4988b3d122c4051eb29a4de0049af76c7fe798f4a006e307e8134fd012e58ec8eaef4374c629fb048a7a018d5724b389fbdec6eb2e",
                    "indexes": {
                        "data": 0,
                        "gas": 0,
                        "value": 0
                    },
                    "state": {
                        "0x87b27803865842841ee1dd900d504271419d42b4": {
                            "nonce": "0x01",
                            "balance": "0x63fff3f03a",
                            "code": "0x",
                            "storage": {}
                        },
                        "0xf107f2545c9867e8982424c47d27f34bb1ff72d3": {
                            "nonce": "0x00",
                            "balance": "0x0de0b6b3a764000a",
                            "code": "0x602a61fa005261fa00516001555960005500",
                            "storage": {
                                "0x01": "0x2a",
                                "0x00": "0xfa20"
                            }
                        }
                    }
                }
            ]
        },
        "config": {
            "blobSchedule": {
                "Cancun": {
                    "target": "0x03",
                    "max": "0x06",
                    "baseFeeUpdateFraction": "0x32f0ed"
                },
                "Prague": {
                    "target": "0x06",
                    "max": "0x09",
                    "baseFeeUpdateFraction": "0x4c6964"
                },
                "Osaka": {
                    "target": "0x06",
                    "max": "0x09",
                    "baseFeeUpdateFraction": "0x4c6964"
                }
            },
            "chainid": "0x01"
        },
        "_info": {
            "hash": "0x47c18f9fb5e7c8a953e5573f23444cda15879827e563d94947d091c54049a063",
            "comment": "`execution-spec-tests` generated test",
            "filling-transition-tool": "ethereum-spec-evm-resolver 0.0.5",
            "description": "No description available - add a docstring to the python test class or function.",
            "url": "",
            "fixture-format": "state_test",
            "eels-resolution": {
                "git-url": "https://github.com/ethereum/execution-specs.git",
                "branch": "forks/bpos",
                "commit": "7aacb2c54111391af5e98c505d5010b5698a770f"
            }
        }
    },
    "tests/static/state_tests/stMemoryTest/mem64kb+32Filler.json::mem64kb+32[fork_Prague-state_test-]": {
        "env": {
            "currentCoinbase": "0x2adc25665018aa1fe0e6bc666dac8fc2697ff9ba",
            "currentGasLimit": "0x0a00000000",
            "currentNumber": "0x01",
            "currentTimestamp": "0x03e8",
            "currentRandom": "0x0000000000000000000000000000000000000000000000000000000000020000",
            "currentDifficulty": "0x00",
            "currentBaseFee": "0x0a",
            "currentExcessBlobGas": "0x00"
        },
        "pre": {
            "0x87b27803865842841ee1dd900d504271419d42b4": {
                "nonce": "0x00",
                "balance": "0x6400000000",
                "code": "0x",
                "storage": {}
            },
            "0xf107f2545c9867e8982424c47d27f34bb1ff72d3": {
                "nonce": "0x00",
                "balance": "0x0de0b6b3a7640000",
                "code": "0x602a61fa005261fa00516001555960005500",
                "storage": {}
            }
        },
        "transaction": {
            "nonce": "0x00",
            "gasPrice": "0x0a",
            "gasLimit": [
                "0x0186a0"
            ],
            "to": "0xf107f2545c9867e8982424c47d27f34bb1ff72d3",
            "value": [
                "0x0a"
            ],
            "data": [
                "0x"
            ],
            "sender": "0x87b27803865842841ee1dd900d504271419d42b4",
            "secretKey": "0x2b295401748f995512054a3af107f2545c9867e8982424c47d27f34bb1ff72d3"
        },
        "post": {
            "Prague": [
                {
                    "hash": "0xe0a6df5185a7a841c4e511cd1ae990017ed8fbdbb04e99973f03e1b40c0bbc0a",
                    "logs": "0x1dcc4de8dec75d7aab85b567b6ccd41ad312451b948a7413f0a142fd40d49347",
                    "txbytes": "0xf860800a830186a094f107f2545c9867e8982424c47d27f34bb1ff72d30a8026a0e24fd79dd58911c7882a0aaa4988b3d122c4051eb29a4de0049af76c7fe798f4a006e307e8134fd012e58ec8eaef4374c629fb048a7a018d5724b389fbdec6eb2e",
                    "indexes": {
                        "data": 0,
                        "gas": 0,
                        "value": 0
                    },
                    "state": {
                        "0x87b27803865842841ee1dd900d504271419d42b4": {
                            "nonce": "0x01",
                            "balance": "0x63fff3f03a",
                            "code": "0x",
                            "storage": {}
                        },
                        "0xf107f2545c9867e8982424c47d27f34bb1ff72d3": {
                            "nonce": "0x00",
                            "balance": "0x0de0b6b3a764000a",
                            "code": "0x602a61fa005261fa00516001555960005500",
                            "storage": {
                                "0x01": "0x2a",
                                "0x00": "0xfa20"
                            }
                        }
                    }
                }
            ]
        },
        "config": {
            "blobSchedule": {
                "Cancun": {
                    "target": "0x03",
                    "max": "0x06",
                    "baseFeeUpdateFraction": "0x32f0ed"
                },
                "Prague": {
                    "target": "0x06",
                    "max": "0x09",
                    "baseFeeUpdateFraction": "0x4c6964"
                }
            },
            "chainid": "0x01"
        },
        "_info": {
            "hash": "0x18f04c8f6a8ddcb8d2e40ee1191961279f9bfe00a7f6fba00cb4d5bd931bcc2b",
            "comment": "`execution-spec-tests` generated test",
            "filling-transition-tool": "ethereum-spec-evm-resolver 0.0.5",
            "description": "No description available - add a docstring to the python test class or function.",
            "url": "",
            "fixture-format": "state_test",
            "eels-resolution": {
                "git-url": "https://github.com/ethereum/execution-specs.git",
                "branch": "forks/bpos",
                "commit": "7aacb2c54111391af5e98c505d5010b5698a770f"
            }
        }
    }
}