{
    "tests/static/state_tests/stMemoryTest/mem64kb-31Filler.json::mem64kb-31[fork_Cancun-state_test-]": {
        "env": {
            "currentCoinbase": "0x2adc25665018aa1fe0e6bc666dac8fc2697ff9ba",
            "currentGasLimit": "0x0a00000000",
            "currentNumber": "0x01",
            "currentTimestamp": "0x03e8",
            "currentRandom": "0x0000000000000000000000000000000000000000000000000000000000020000",
            "currentDifficulty": "0x00",
            "currentBaseFee": "0x0a",
            "currentExcessBlobGas": "0x00"
        },
        "pre": {
            "0x54fb3880ee56135332cff393b54cac10765b2eb3": {
                "nonce": "0x00",
                "balance": "0x6400000000",
                "code": "0x",
                "storage": {}
            },
            "0xe67a62b19d4c1d0ce62d85bfbb862d4a8316696b": {
                "nonce": "0x00",
                "balance": "0x0de0b6b3a7640000",
                "code": "0x602a61f9c15261f9c1516001555960005500",
                "storage": {}
            }
        },
        "transaction": {
            "nonce": "0x00",
            "gasPrice": "0x0a",
            "gasLimit": [
                "0x0186a0"
            ],
            "to": "0xe67a62b19d4c1d0ce62d85bfbb862d4a8316696b",
            "value": [
                "0x0a"
            ],
            "data": [
                "0x"
            ],
            "sender": "0x54fb3880ee56135332cff393b54cac10765b2eb3",
            "secretKey": "0x14cbf5cee50d816b7cc5bcd6e67a62b19d4c1d0ce62d85bfbb862d4a8316696b"
        },
        "post": {
            "Cancun": [
                {
                    "hash": "0xd86d1e21cace5eb2fa0eb5a54a227a28f0129501eff20c317fdfb7b1eb150ec0",
                    "logs": "0x1dcc4de8dec75d7aab85b567b6ccd41ad312451b948a7413f0a142fd40d49347",
                    "txbytes": "0xf860800a830186a094e67a62b19d4c1d0ce62d85bfbb862d4a8316696b0a8026a00dfe94c684c9f4bdbe7ae3b06849effc5d0276e9f4bd06c308b1e045225ee6fda0435ddd4449fbef81f5cf4568422ef792f763c80d8f19dcd3c76ce2cd6e176e77",
                    "indexes": {
                        "data": 0,
                        "gas": 0,
                        "value": 0
                    },
                    "state": {
                        "0x54fb3880ee56135332cff393b54cac10765b2eb3": {
                            "nonce": "0x01",
                            "balance": "0x63fff3f0a8",
                            "code": "0x",
                            "storage": {}
                        },
                        "0xe67a62b19d4c1d0ce62d85bfbb862d4a8316696b": {
                            "nonce": "0x00",
                            "balance": "0x0de0b6b3a764000a",
                            "code": "0x602a61f9c15261f9c1516001555960005500",
                            "storage": {
                                "0x01": "0x2a",
                                "0x00": "0xfa00"
                            }
                        }
                    }
                }
            ]
        },
        "config": {
            "blobSchedule": {
                "Cancun": {
                    "target": "0x03",
                    "max": "0x06",
                    "baseFeeUpdateFraction": "0x32f0ed"
                }
            },
            "chainid": "0x01"
        },
        "_info": {
            "hash": "0xfd3b3f4dd7abb8db5867440ae0aa0e8b6b813d8f6bd8dc9720c328e0d9e36728",
            "comment": "`execution-spec-tests` generated test",
            "filling-transition-tool": "ethereum-spec-evm-resolver 0.0.5",
            "description": "No description available - add a docstring to the python test class or function.",
            "url": "",
            "fixture-format": "state_test",
            "eels-resolution": {
                "git-url": "https://github.com/ethereum/execution-specs.git",
                "branch": "forks/bpos",
                "commit": "7aacb2c54111391af5e98c505d5010b5698a770f"
            }
        }
    },
    "tests/static/state_tests/stMemoryTest/mem64kb-31Filler.json::mem64kb-31[fork_Osaka-state_test-]": {
        "env": {
            "currentCoinbase": "0x2adc25665018aa1fe0e6bc666dac8fc2697ff9ba",
            "currentGasLimit": "0x0a00000000",
            "currentNumber": "0x01",
            "currentTimestamp": "0x03e8",
            "currentRandom": "0x0000000000000000000000000000000000000000000000000000000000020000",
            "currentDifficulty": "0x00",
            "currentBaseFee": "0x0a",
            "currentExcessBlobGas": "0x00"
        },
        "pre": {
            "0x54fb3880ee56135332cff393b54cac10765b2eb3": {
                "nonce": "0x00",
                "balance": "0x6400000000",
                "code": "0x",
                "storage": {}
            },
            "0xe67a62b19d4c1d0ce62d85bfbb862d4a8316696b": {
                "nonce": "0x00",
                "balance": "0x0de0b6b3a7640000",
                "code": "0x602a61f9c15261f9c1516001555960005500",
                "storage": {}
            }
        },
        "transaction": {
            "nonce": "0x00",
            "gasPrice": "0x0a",
            "gasLimit": [
                "0x0186a0"
            ],
            "to": "0xe67a62b19d4c1d0ce62d85bfbb862d4a8316696b",
            "value": [
                "0x0a"
            ],
            "data": [
                "0x"
            ],
            "sender": "0x54fb3880ee56135332cff393b54cac10765b2eb3",
            "secretKey": "0x14cbf5cee50d816b7cc5bcd6e67a62b19d4c1d0ce62d85bfbb862d4a8316696b"
        },
        "post": {
            "Osaka": [
                {
                    "hash": "0xd86d1e21cace5eb2fa0eb5a54a227a28f0129501eff20c317fdfb7b1eb150ec0",
                    "logs": "0x1dcc4de8dec75d7aab85b567b6ccd41ad312451b948a7413f0a142fd40d49347",
                    "txbytes": "0xf860800a830186a094e67a62b19d4c1d0ce62d85bfbb862d4a8316696b0a8026a00dfe94c684c9f4bdbe7ae3b06849effc5d0276e9f4bd06c308b1e045225ee6fda0435ddd4449fbef81f5cf4568422ef792f763c80d8f19dcd3c76ce2cd6e176e77",
                    "indexes": {
                        "data": 0,
                        "gas": 0,
                        "value": 0
                    },
                    "state": {
                        "0x54fb3880ee56135332cff393b54cac10765b2eb3": {
                            "nonce": "0x01",
                            "balance": "0x63fff3f0a8",
                            "code": "0x",
                            "storage": {}
                        },
                        "0xe67a62b19d4c1d0ce62d85bfbb862d4a8316696b": {
                            "nonce": "0x00",
                            "balance": "0x0de0b6b3a764000a",
                            "code": "0x602a61f9c15261f9c1516001555960005500",
                            "storage": {
                                "0x01": "0x2a",
                                "0x00": "0xfa00"
                            }
                        }
                    }
                }
            ]
        },
        "config": {
            "blobSchedule": {
                "Cancun": {
                    "target": "0x03",
                    "max": "0x06",
                    "baseFeeUpdateFraction": "0x32f0ed"
                },
                "Prague": {
                    "target": "0x06",
                    "max": "0x09",
                    "baseFeeUpdateFraction": "0x4c6964"
                },
                "Osaka": {
                    "target": "0x06",
                    "max": "0x09",
                    "baseFeeUpdateFraction": "0x4c6964"
                }
            },
            "chainid": "0x01"
        },
        "_info": {
            "hash": "0xf1f8d363d14af77fda1e208302a5e5db1eb4507bdafbaa1965d1b75ce45f8462",
            "comment": "`execution-spec-tests` generated test",
            "filling-transition-tool": "ethereum-spec-evm-resolver 0.0.5",
            "description": "No description available - add a docstring to the python test class or function.",
            "url": "",
            "fixture-format": "state_test",
            "eels-resolution": {
                "git-url": "https://github.com/ethereum/execution-specs.git",
                "branch": "forks/bpos",
                "commit": "7aacb2c54111391af5e98c505d5010b5698a770f"
            }
        }
    },
    "tests/static/state_tests/stMemoryTest/mem64kb-31Filler.json::mem64kb-31[fork_Prague-state_test-]": {
        "env": {
            "currentCoinbase": "0x2adc25665018aa1fe0e6bc666dac8fc2697ff9ba",
            "currentGasLimit": "0x0a00000000",
            "currentNumber": "0x01",
            "currentTimestamp": "0x03e8",
            "currentRandom": "0x0000000000000000000000000000000000000000000000000000000000020000",
            "currentDifficulty": "0x00",
            "currentBaseFee": "0x0a",
            "currentExcessBlobGas": "0x00"
        },
        "pre": {
            "0x54fb3880ee56135332cff393b54cac10765b2eb3": {
                "nonce": "0x00",
                "balance": "0x6400000000",
                "code": "0x",
                "storage": {}
            },
            "0xe67a62b19d4c1d0ce62d85bfbb862d4a8316696b": {
                "nonce": "0x00",
                "balance": "0x0de0b6b3a7640000",
                "code": "0x602a61f9c15261f9c1516001555960005500",
                "storage": {}
            }
        },
        "transaction": {
            "nonce": "0x00",
            "gasPrice": "0x0a",
            "gasLimit": [
                "0x0186a0"
            ],
            "to": "0xe67a62b19d4c1d0ce62d85bfbb862d4a8316696b",
            "value": [
                "0x0a"
            ],
            "data": [
                "0x"
            ],
            "sender": "0x54fb3880ee56135332cff393b54cac10765b2eb3",
            "secretKey": "0x14cbf5cee50d816b7cc5bcd6e67a62b19d4c1d0ce62d85bfbb862d4a8316696b"
        },
        "post": {
            "Prague": [
                {
                    "hash": "0xd86d1e21cace5eb2fa0eb5a54a227a28f0129501eff20c317fdfb7b1eb150ec0",
                    "logs": "0x1dcc4de8dec75d7aab85b567b6ccd41ad312451b948a7413f0a142fd40d49347",
                    "txbytes": "0xf860800a830186a094e67a62b19d4c1d0ce62d85bfbb862d4a8316696b0a8026a00dfe94c684c9f4bdbe7ae3b06849effc5d0276e9f4bd06c308b1e045225ee6fda0435ddd4449fbef81f5cf4568422ef792f763c80d8f19dcd3c76ce2cd6e176e77",
                    "indexes": {
                        "data": 0,
                        "gas": 0,
                        "value": 0
                    },
                    "state": {
                        "0x54fb3880ee56135332cff393b54cac10765b2eb3": {
                            "nonce": "0x01",
                            "balance": "0x63fff3f0a8",
                            "code": "0x",
                            "storage": {}
                        },
                        "0xe67a62b19d4c1d0ce62d85bfbb862d4a8316696b": {
                            "nonce": "0x00",
                            "balance": "0x0de0b6b3a764000a",
                            "code": "0x602a61f9c15261f9c1516001555960005500",
                            "storage": {
                                "0x01": "0x2a",
                                "0x00": "0xfa00"
                            }
                        }
                    }
                }
            ]
        },
        "config": {
            "blobSchedule": {
                "Cancun": {
                    "target": "0x03",
                    "max": "0x06",
                    "baseFeeUpdateFraction": "0x32f0ed"
                },
                "Prague": {
                    "target": "0x06",
                    "max": "0x09",
                    "baseFeeUpdateFraction": "0x4c6964"
                }
            },
            "chainid": "0x01"
        },
        "_info": {
            "hash": "0x841e42efa525c318e8ab7afb6d5e1c3bb6f5b80fd9f001970ad19365dafd7c95",
            "comment": "`execution-spec-tests` generated test",
            "filling-transition-tool": "ethereum-spec-evm-resolver 0.0.5",
            "description": "No description available - add a docstring to the python test class or function.",
            "url": "",
            "fixture-format": "state_test",
            "eels-resolution": {
                "git-url": "https://github.com/ethereum/execution-specs.git",
                "branch": "forks/bpos",
                "commit": "7aacb2c54111391af5e98c505d5010b5698a770f"
            }
        }
    }
}