{
    "tests/static/state_tests/stMemoryTest/mem64kb_singleByte-32Filler.json::mem64kb_singleByte-32[fork_Cancun-state_test-]": {
        "env": {
            "currentCoinbase": "0x2adc25665018aa1fe0e6bc666dac8fc2697ff9ba",
            "currentGasLimit": "0x0a00000000",
            "currentNumber": "0x01",
            "currentTimestamp": "0x03e8",
            "currentRandom": "0x0000000000000000000000000000000000000000000000000000000000020000",
            "currentDifficulty": "0x00",
            "currentBaseFee": "0x0a",
            "currentExcessBlobGas": "0x00"
        },
        "pre": {
            "0x77ac995bc26a0c0c0e133823ccfdbfced28ad5d1": {
                "nonce": "0x00",
                "balance": "0x6400000000",
                "code": "0x",
                "storage": {}
            },
            "0x6228cb8199dcdaeb02b9b18db86e2602a827de10": {
                "nonce": "0x00",
                "balance": "0x0de0b6b3a7640000",
                "code": "0x602a61f9df535960005500",
                "storage": {}
            }
        },
        "transaction": {
            "nonce": "0x00",
            "gasPrice": "0x0a",
            "gasLimit": [
                "0x0186a0"
            ],
            "to": "0x6228cb8199dcdaeb02b9b18db86e2602a827de10",
            "value": [
                "0x0a"
            ],
            "data": [
                "0x"
            ],
            "sender": "0x77ac995bc26a0c0c0e133823ccfdbfced28ad5d1",
            "secretKey": "0x8e701acec7017e63a592b90d6228cb8199dcdaeb02b9b18db86e2602a827de10"
        },
        "post": {
            "Cancun": [
                {
                    "hash": "0x0a78aaf1792c131c55aec9b2ce7cc8cfab0067a05dabd28e351310c32c447840",
                    "logs": "0x1dcc4de8dec75d7aab85b567b6ccd41ad312451b948a7413f0a142fd40d49347",
                    "txbytes": "0xf860800a830186a0946228cb8199dcdaeb02b9b18db86e2602a827de100a8025a01efe2709bd73e6f981d02422720751ee1e5f4f9c76fb0fe7872651e9225dfbd7a02d95a39246c7c106e00802b9739e99f465b3a9acbdcef3c597f5349308a84e00",
                    "indexes": {
                        "data": 0,
                        "gas": 0,
                        "value": 0
                    },
                    "state": {
                        "0x77ac995bc26a0c0c0e133823ccfdbfced28ad5d1": {
                            "nonce": "0x01",
                            "balance": "0x63fff750b8",
                            "code": "0x",
                            "storage": {}
                        },
                        "0x6228cb8199dcdaeb02b9b18db86e2602a827de10": {
                            "nonce": "0x00",
                            "balance": "0x0de0b6b3a764000a",
                            "code": "0x602a61f9df535960005500",
                            "storage": {
                                "0x00": "0xf9e0"
                            }
                        }
                    }
                }
            ]
        },
        "config": {
            "blobSchedule": {
                "Cancun": {
                    "target": "0x03",
                    "max": "0x06",
                    "baseFeeUpdateFraction": "0x32f0ed"
                }
            },
            "chainid": "0x01"
        },
        "_info": {
            "hash": "0x0990fea65a6ef01e1a1805f3740ef77c8233eb11058ef4ac41890119836d57b8",
            "comment": "`execution-spec-tests` generated test",
            "filling-transition-tool": "ethereum-spec-evm-resolver 0.0.5",
            "description": "No description available - add a docstring to the python test class or function.",
            "url": "",
            "fixture-format": "state_test",
            "eels-resolution": {
                "git-url": "https://github.com/marioevz/execution-specs.git",
                "branch": "forks/bpo1",
                "commit": "3387e5f4aedfe99becfdc39b444d6371e25e0924"
            }
        }
    },
    "tests/static/state_tests/stMemoryTest/mem64kb_singleByte-32Filler.json::mem64kb_singleByte-32[fork_Osaka-state_test-]": {
        "env": {
            "currentCoinbase": "0x2adc25665018aa1fe0e6bc666dac8fc2697ff9ba",
            "currentGasLimit": "0x0a00000000",
            "currentNumber": "0x01",
            "currentTimestamp": "0x03e8",
            "currentRandom": "0x0000000000000000000000000000000000000000000000000000000000020000",
            "currentDifficulty": "0x00",
            "currentBaseFee": "0x0a",
            "currentExcessBlobGas": "0x00"
        },
        "pre": {
            "0x77ac995bc26a0c0c0e133823ccfdbfced28ad5d1": {
                "nonce": "0x00",
                "balance": "0x6400000000",
                "code": "0x",
                "storage": {}
            },
            "0x6228cb8199dcdaeb02b9b18db86e2602a827de10": {
                "nonce": "0x00",
                "balance": "0x0de0b6b3a7640000",
                "code": "0x602a61f9df535960005500",
                "storage": {}
            }
        },
        "transaction": {
            "nonce": "0x00",
            "gasPrice": "0x0a",
            "gasLimit": [
                "0x0186a0"
            ],
            "to": "0x6228cb8199dcdaeb02b9b18db86e2602a827de10",
            "value": [
                "0x0a"
            ],
            "data": [
                "0x"
            ],
            "sender": "0x77ac995bc26a0c0c0e133823ccfdbfced28ad5d1",
            "secretKey": "0x8e701acec7017e63a592b90d6228cb8199dcdaeb02b9b18db86e2602a827de10"
        },
        "post": {
            "Osaka": [
                {
                    "hash": "0x0a78aaf1792c131c55aec9b2ce7cc8cfab0067a05dabd28e351310c32c447840",
                    "logs": "0x1dcc4de8dec75d7aab85b567b6ccd41ad312451b948a7413f0a142fd40d49347",
                    "txbytes": "0xf860800a830186a0946228cb8199dcdaeb02b9b18db86e2602a827de100a8025a01efe2709bd73e6f981d02422720751ee1e5f4f9c76fb0fe7872651e9225dfbd7a02d95a39246c7c106e00802b9739e99f465b3a9acbdcef3c597f5349308a84e00",
                    "indexes": {
                        "data": 0,
                        "gas": 0,
                        "value": 0
                    },
                    "state": {
                        "0x77ac995bc26a0c0c0e133823ccfdbfced28ad5d1": {
                            "nonce": "0x01",
                            "balance": "0x63fff750b8",
                            "code": "0x",
                            "storage": {}
                        },
                        "0x6228cb8199dcdaeb02b9b18db86e2602a827de10": {
                            "nonce": "0x00",
                            "balance": "0x0de0b6b3a764000a",
                            "code": "0x602a61f9df535960005500",
                            "storage": {
                                "0x00": "0xf9e0"
                            }
                        }
                    }
                }
            ]
        },
        "config": {
            "blobSchedule": {
                "Cancun": {
                    "target": "0x03",
                    "max": "0x06",
                    "baseFeeUpdateFraction": "0x32f0ed"
                },
                "Prague": {
                    "target": "0x06",
                    "max": "0x09",
                    "baseFeeUpdateFraction": "0x4c6964"
                },
                "Osaka": {
                    "target": "0x06",
                    "max": "0x09",
                    "baseFeeUpdateFraction": "0x4c6964"
                }
            },
            "chainid": "0x01"
        },
        "_info": {
            "hash": "0xc812bfc621e8ae075e26f9f3e6a44e99269cf3c853a0caf60f7db9d54b1e23e1",
            "comment": "`execution-spec-tests` generated test",
            "filling-transition-tool": "ethereum-spec-evm-resolver 0.0.5",
            "description": "No description available - add a docstring to the python test class or function.",
            "url": "",
            "fixture-format": "state_test",
            "eels-resolution": {
                "git-url": "https://github.com/marioevz/execution-specs.git",
                "branch": "forks/bpo1",
                "commit": "3387e5f4aedfe99becfdc39b444d6371e25e0924"
            }
        }
    },
    "tests/static/state_tests/stMemoryTest/mem64kb_singleByte-32Filler.json::mem64kb_singleByte-32[fork_Prague-state_test-]": {
        "env": {
            "currentCoinbase": "0x2adc25665018aa1fe0e6bc666dac8fc2697ff9ba",
            "currentGasLimit": "0x0a00000000",
            "currentNumber": "0x01",
            "currentTimestamp": "0x03e8",
            "currentRandom": "0x0000000000000000000000000000000000000000000000000000000000020000",
            "currentDifficulty": "0x00",
            "currentBaseFee": "0x0a",
            "currentExcessBlobGas": "0x00"
        },
        "pre": {
            "0x77ac995bc26a0c0c0e133823ccfdbfced28ad5d1": {
                "nonce": "0x00",
                "balance": "0x6400000000",
                "code": "0x",
                "storage": {}
            },
            "0x6228cb8199dcdaeb02b9b18db86e2602a827de10": {
                "nonce": "0x00",
                "balance": "0x0de0b6b3a7640000",
                "code": "0x602a61f9df535960005500",
                "storage": {}
            }
        },
        "transaction": {
            "nonce": "0x00",
            "gasPrice": "0x0a",
            "gasLimit": [
                "0x0186a0"
            ],
            "to": "0x6228cb8199dcdaeb02b9b18db86e2602a827de10",
            "value": [
                "0x0a"
            ],
            "data": [
                "0x"
            ],
            "sender": "0x77ac995bc26a0c0c0e133823ccfdbfced28ad5d1",
            "secretKey": "0x8e701acec7017e63a592b90d6228cb8199dcdaeb02b9b18db86e2602a827de10"
        },
        "post": {
            "Prague": [
                {
                    "hash": "0x0a78aaf1792c131c55aec9b2ce7cc8cfab0067a05dabd28e351310c32c447840",
                    "logs": "0x1dcc4de8dec75d7aab85b567b6ccd41ad312451b948a7413f0a142fd40d49347",
                    "txbytes": "0xf860800a830186a0946228cb8199dcdaeb02b9b18db86e2602a827de100a8025a01efe2709bd73e6f981d02422720751ee1e5f4f9c76fb0fe7872651e9225dfbd7a02d95a39246c7c106e00802b9739e99f465b3a9acbdcef3c597f5349308a84e00",
                    "indexes": {
                        "data": 0,
                        "gas": 0,
                        "value": 0
                    },
                    "state": {
                        "0x77ac995bc26a0c0c0e133823ccfdbfced28ad5d1": {
                            "nonce": "0x01",
                            "balance": "0x63fff750b8",
                            "code": "0x",
                            "storage": {}
                        },
                        "0x6228cb8199dcdaeb02b9b18db86e2602a827de10": {
                            "nonce": "0x00",
                            "balance": "0x0de0b6b3a764000a",
                            "code": "0x602a61f9df535960005500",
                            "storage": {
                                "0x00": "0xf9e0"
                            }
                        }
                    }
                }
            ]
        },
        "config": {
            "blobSchedule": {
                "Cancun": {
                    "target": "0x03",
                    "max": "0x06",
                    "baseFeeUpdateFraction": "0x32f0ed"
                },
                "Prague": {
                    "target": "0x06",
                    "max": "0x09",
                    "baseFeeUpdateFraction": "0x4c6964"
                }
            },
            "chainid": "0x01"
        },
        "_info": {
            "hash": "0xdb240b40a7c3ee46b41f3f8b8e1c7cf28fe8b607d421b450fc0fef580f5ac6dc",
            "comment": "`execution-spec-tests` generated test",
            "filling-transition-tool": "ethereum-spec-evm-resolver 0.0.5",
            "description": "No description available - add a docstring to the python test class or function.",
            "url": "",
            "fixture-format": "state_test",
            "eels-resolution": {
                "git-url": "https://github.com/marioevz/execution-specs.git",
                "branch": "forks/bpo1",
                "commit": "3387e5f4aedfe99becfdc39b444d6371e25e0924"
            }
        }
    }
}