{
    "tests/static/state_tests/stMemoryTest/mload16bitBoundFiller.json::mload16bitBound[fork_Cancun-state_test-]": {
        "env": {
            "currentCoinbase": "0x2adc25665018aa1fe0e6bc666dac8fc2697ff9ba",
            "currentGasLimit": "0x10000804025c",
            "currentNumber": "0x01",
            "currentTimestamp": "0x03e8",
            "currentRandom": "0x0000000000000000000000000000000000000000000000000000000000020000",
            "currentDifficulty": "0x00",
            "currentBaseFee": "0x0a",
            "currentExcessBlobGas": "0x00"
        },
        "pre": {
            "0x2b5ddcc3c1252e7d30beb043a4341133fd19628a": {
                "nonce": "0x00",
                "balance": "0xa00050281798",
                "code": "0x",
                "storage": {}
            },
            "0xde81f595cef03ab07288cf7ea7e61e5687d2a85f": {
                "nonce": "0x00",
                "balance": "0x0de0b6b3a7640000",
                "code": "0x620100005160015500",
                "storage": {}
            }
        },
        "transaction": {
            "nonce": "0x00",
            "gasPrice": "0x0a",
            "gasLimit": [
                "0x0186a0"
            ],
            "to": "0xde81f595cef03ab07288cf7ea7e61e5687d2a85f",
            "value": [
                "0x0a"
            ],
            "data": [
                "0x"
            ],
            "sender": "0x2b5ddcc3c1252e7d30beb043a4341133fd19628a",
            "secretKey": "0xc2a8ad23ce1c870e88245c1ade81f595cef03ab07288cf7ea7e61e5687d2a85f"
        },
        "post": {
            "Cancun": [
                {
                    "hash": "0x9aeff21e27b5e7ce1ad9dfea8863f9cc79f2d662e6cd4c3ed7f9494a0075355b",
                    "logs": "0x1dcc4de8dec75d7aab85b567b6ccd41ad312451b948a7413f0a142fd40d49347",
                    "txbytes": "0xf860800a830186a094de81f595cef03ab07288cf7ea7e61e5687d2a85f0a8025a0273a802d821a2458237d80ad85b4419127c95cd1fa3a3d51ca021dfb74fbe691a02e55197f1542014430f687a06f847f2dda403139717f8a0a0535b78ebe1f2b98",
                    "indexes": {
                        "data": 0,
                        "gas": 0,
                        "value": 0
                    },
                    "state": {
                        "0x2b5ddcc3c1252e7d30beb043a4341133fd19628a": {
                            "nonce": "0x01",
                            "balance": "0xa00050225c86",
                            "code": "0x",
                            "storage": {}
                        },
                        "0xde81f595cef03ab07288cf7ea7e61e5687d2a85f": {
                            "nonce": "0x00",
                            "balance": "0x0de0b6b3a764000a",
                            "code": "0x620100005160015500",
                            "storage": {}
                        }
                    }
                }
            ]
        },
        "config": {
            "blobSchedule": {
                "Cancun": {
                    "target": "0x03",
                    "max": "0x06",
                    "baseFeeUpdateFraction": "0x32f0ed"
                }
            },
            "chainid": "0x01"
        },
        "_info": {
            "hash": "0x9e4414c3e8521fc206d7653d1b3a820245248dae87e3b3a06f817958b7f5496a",
            "comment": "`execution-spec-tests` generated test",
            "filling-transition-tool": "ethereum-spec-evm-resolver 0.0.5",
            "description": "No description available - add a docstring to the python test class or function.",
            "url": "",
            "fixture-format": "state_test",
            "eels-resolution": {
                "git-url": "https://github.com/ethereum/execution-specs.git",
                "branch": "forks/bpos",
                "commit": "7aacb2c54111391af5e98c505d5010b5698a770f"
            }
        }
    },
    "tests/static/state_tests/stMemoryTest/mload16bitBoundFiller.json::mload16bitBound[fork_Osaka-state_test-]": {
        "env": {
            "currentCoinbase": "0x2adc25665018aa1fe0e6bc666dac8fc2697ff9ba",
            "currentGasLimit": "0x10000804025c",
            "currentNumber": "0x01",
            "currentTimestamp": "0x03e8",
            "currentRandom": "0x0000000000000000000000000000000000000000000000000000000000020000",
            "currentDifficulty": "0x00",
            "currentBaseFee": "0x0a",
            "currentExcessBlobGas": "0x00"
        },
        "pre": {
            "0x2b5ddcc3c1252e7d30beb043a4341133fd19628a": {
                "nonce": "0x00",
                "balance": "0xa00050281798",
                "code": "0x",
                "storage": {}
            },
            "0xde81f595cef03ab07288cf7ea7e61e5687d2a85f": {
                "nonce": "0x00",
                "balance": "0x0de0b6b3a7640000",
                "code": "0x620100005160015500",
                "storage": {}
            }
        },
        "transaction": {
            "nonce": "0x00",
            "gasPrice": "0x0a",
            "gasLimit": [
                "0x0186a0"
            ],
            "to": "0xde81f595cef03ab07288cf7ea7e61e5687d2a85f",
            "value": [
                "0x0a"
            ],
            "data": [
                "0x"
            ],
            "sender": "0x2b5ddcc3c1252e7d30beb043a4341133fd19628a",
            "secretKey": "0xc2a8ad23ce1c870e88245c1ade81f595cef03ab07288cf7ea7e61e5687d2a85f"
        },
        "post": {
            "Osaka": [
                {
                    "hash": "0x9aeff21e27b5e7ce1ad9dfea8863f9cc79f2d662e6cd4c3ed7f9494a0075355b",
                    "logs": "0x1dcc4de8dec75d7aab85b567b6ccd41ad312451b948a7413f0a142fd40d49347",
                    "txbytes": "0xf860800a830186a094de81f595cef03ab07288cf7ea7e61e5687d2a85f0a8025a0273a802d821a2458237d80ad85b4419127c95cd1fa3a3d51ca021dfb74fbe691a02e55197f1542014430f687a06f847f2dda403139717f8a0a0535b78ebe1f2b98",
                    "indexes": {
                        "data": 0,
                        "gas": 0,
                        "value": 0
                    },
                    "state": {
                        "0x2b5ddcc3c1252e7d30beb043a4341133fd19628a": {
                            "nonce": "0x01",
                            "balance": "0xa00050225c86",
                            "code": "0x",
                            "storage": {}
                        },
                        "0xde81f595cef03ab07288cf7ea7e61e5687d2a85f": {
                            "nonce": "0x00",
                            "balance": "0x0de0b6b3a764000a",
                            "code": "0x620100005160015500",
                            "storage": {}
                        }
                    }
                }
            ]
        },
        "config": {
            "blobSchedule": {
                "Cancun": {
                    "target": "0x03",
                    "max": "0x06",
                    "baseFeeUpdateFraction": "0x32f0ed"
                },
                "Prague": {
                    "target": "0x06",
                    "max": "0x09",
                    "baseFeeUpdateFraction": "0x4c6964"
                },
                "Osaka": {
                    "target": "0x06",
                    "max": "0x09",
                    "baseFeeUpdateFraction": "0x4c6964"
                }
            },
            "chainid": "0x01"
        },
        "_info": {
            "hash": "0x8c6e1cf8ac10b2f6e1eda8b43f3f09f891bc2f954565c5f835da061db145fdc3",
            "comment": "`execution-spec-tests` generated test",
            "filling-transition-tool": "ethereum-spec-evm-resolver 0.0.5",
            "description": "No description available - add a docstring to the python test class or function.",
            "url": "",
            "fixture-format": "state_test",
            "eels-resolution": {
                "git-url": "https://github.com/ethereum/execution-specs.git",
                "branch": "forks/bpos",
                "commit": "7aacb2c54111391af5e98c505d5010b5698a770f"
            }
        }
    },
    "tests/static/state_tests/stMemoryTest/mload16bitBoundFiller.json::mload16bitBound[fork_Prague-state_test-]": {
        "env": {
            "currentCoinbase": "0x2adc25665018aa1fe0e6bc666dac8fc2697ff9ba",
            "currentGasLimit": "0x10000804025c",
            "currentNumber": "0x01",
            "currentTimestamp": "0x03e8",
            "currentRandom": "0x0000000000000000000000000000000000000000000000000000000000020000",
            "currentDifficulty": "0x00",
            "currentBaseFee": "0x0a",
            "currentExcessBlobGas": "0x00"
        },
        "pre": {
            "0x2b5ddcc3c1252e7d30beb043a4341133fd19628a": {
                "nonce": "0x00",
                "balance": "0xa00050281798",
                "code": "0x",
                "storage": {}
            },
            "0xde81f595cef03ab07288cf7ea7e61e5687d2a85f": {
                "nonce": "0x00",
                "balance": "0x0de0b6b3a7640000",
                "code": "0x620100005160015500",
                "storage": {}
            }
        },
        "transaction": {
            "nonce": "0x00",
            "gasPrice": "0x0a",
            "gasLimit": [
                "0x0186a0"
            ],
            "to": "0xde81f595cef03ab07288cf7ea7e61e5687d2a85f",
            "value": [
                "0x0a"
            ],
            "data": [
                "0x"
            ],
            "sender": "0x2b5ddcc3c1252e7d30beb043a4341133fd19628a",
            "secretKey": "0xc2a8ad23ce1c870e88245c1ade81f595cef03ab07288cf7ea7e61e5687d2a85f"
        },
        "post": {
            "Prague": [
                {
                    "hash": "0x9aeff21e27b5e7ce1ad9dfea8863f9cc79f2d662e6cd4c3ed7f9494a0075355b",
                    "logs": "0x1dcc4de8dec75d7aab85b567b6ccd41ad312451b948a7413f0a142fd40d49347",
                    "txbytes": "0xf860800a830186a094de81f595cef03ab07288cf7ea7e61e5687d2a85f0a8025a0273a802d821a2458237d80ad85b4419127c95cd1fa3a3d51ca021dfb74fbe691a02e55197f1542014430f687a06f847f2dda403139717f8a0a0535b78ebe1f2b98",
                    "indexes": {
                        "data": 0,
                        "gas": 0,
                        "value": 0
                    },
                    "state": {
                        "0x2b5ddcc3c1252e7d30beb043a4341133fd19628a": {
                            "nonce": "0x01",
                            "balance": "0xa00050225c86",
                            "code": "0x",
                            "storage": {}
                        },
                        "0xde81f595cef03ab07288cf7ea7e61e5687d2a85f": {
                            "nonce": "0x00",
                            "balance": "0x0de0b6b3a764000a",
                            "code": "0x620100005160015500",
                            "storage": {}
                        }
                    }
                }
            ]
        },
        "config": {
            "blobSchedule": {
                "Cancun": {
                    "target": "0x03",
                    "max": "0x06",
                    "baseFeeUpdateFraction": "0x32f0ed"
                },
                "Prague": {
                    "target": "0x06",
                    "max": "0x09",
                    "baseFeeUpdateFraction": "0x4c6964"
                }
            },
            "chainid": "0x01"
        },
        "_info": {
            "hash": "0xf254bb079c3e1812e4677ccc26f73b30de5f3cdffce7dd7d56266ee46646a46b",
            "comment": "`execution-spec-tests` generated test",
            "filling-transition-tool": "ethereum-spec-evm-resolver 0.0.5",
            "description": "No description available - add a docstring to the python test class or function.",
            "url": "",
            "fixture-format": "state_test",
            "eels-resolution": {
                "git-url": "https://github.com/ethereum/execution-specs.git",
                "branch": "forks/bpos",
                "commit": "7aacb2c54111391af5e98c505d5010b5698a770f"
            }
        }
    }
}