{
    "tests/static/state_tests/stMemoryTest/stackLimitGas_1023Filler.json::stackLimitGas_1023[fork_Cancun-state_test-]": {
        "env": {
            "currentCoinbase": "0x2adc25665018aa1fe0e6bc666dac8fc2697ff9ba",
            "currentGasLimit": "0x0a00000000",
            "currentNumber": "0x01",
            "currentTimestamp": "0x03e8",
            "currentRandom": "0x0000000000000000000000000000000000000000000000000000000000020000",
            "currentDifficulty": "0x00",
            "currentBaseFee": "0x0a",
            "currentExcessBlobGas": "0x00"
        },
        "pre": {
            "0x1fa1201dce8aa9cd5ac339d98991b6782957f5f7": {
                "nonce": "0x00",
                "balance": "0x6400000000",
                "code": "0x",
                "storage": {}
            },
            "0x089f728d9ba7d0d2129bbcbe78c41ea89b47cf14": {
                "nonce": "0x00",
                "balance": "0x0de0b6b3a7640000",
                "code": "0x6103fd6000525b5a6001600051036000526000516006570000",
                "storage": {}
            }
        },
        "transaction": {
            "nonce": "0x00",
            "gasPrice": "0x0a",
            "gasLimit": [
                "0x0186a0"
            ],
            "to": "0x089f728d9ba7d0d2129bbcbe78c41ea89b47cf14",
            "value": [
                "0x0a"
            ],
            "data": [
                "0x"
            ],
            "sender": "0x1fa1201dce8aa9cd5ac339d98991b6782957f5f7",
            "secretKey": "0xcbf19c46638c9a602505df8e089f728d9ba7d0d2129bbcbe78c41ea89b47cf14"
        },
        "post": {
            "Cancun": [
                {
                    "hash": "0x45aaff4bffbfc69a458be62a0b94b2dee052ffa3e550e0aed588d742653a76b7",
                    "logs": "0x1dcc4de8dec75d7aab85b567b6ccd41ad312451b948a7413f0a142fd40d49347",
                    "txbytes": "0xf860800a830186a094089f728d9ba7d0d2129bbcbe78c41ea89b47cf140a8026a055e4bc81710582becc9fe2eb1aca59005cfadfd6ac4717b08d287f90c25453a7a049c26e24bd87bb6be61b861f3a61505714e11be9e9fa6f187c54330283b6e240",
                    "indexes": {
                        "data": 0,
                        "gas": 0,
                        "value": 0
                    },
                    "state": {
                        "0x1fa1201dce8aa9cd5ac339d98991b6782957f5f7": {
                            "nonce": "0x01",
                            "balance": "0x63fff68fde",
                            "code": "0x",
                            "storage": {}
                        },
                        "0x089f728d9ba7d0d2129bbcbe78c41ea89b47cf14": {
                            "nonce": "0x00",
                            "balance": "0x0de0b6b3a764000a",
                            "code": "0x6103fd6000525b5a6001600051036000526000516006570000",
                            "storage": {}
                        }
                    }
                }
            ]
        },
        "config": {
            "blobSchedule": {
                "Cancun": {
                    "target": "0x03",
                    "max": "0x06",
                    "baseFeeUpdateFraction": "0x32f0ed"
                }
            },
            "chainid": "0x01"
        },
        "_info": {
            "hash": "0x041478e2f37f2348bfb352105038c9f46bdeec9ae375c7bc6a737e51306963f9",
            "comment": "`execution-spec-tests` generated test",
            "filling-transition-tool": "ethereum-spec-evm-resolver 0.0.5",
            "description": "No description available - add a docstring to the python test class or function.",
            "url": "",
            "fixture-format": "state_test",
            "eels-resolution": {
                "git-url": "https://github.com/marioevz/execution-specs.git",
                "branch": "forks/bpo1",
                "commit": "3387e5f4aedfe99becfdc39b444d6371e25e0924"
            }
        }
    },
    "tests/static/state_tests/stMemoryTest/stackLimitGas_1023Filler.json::stackLimitGas_1023[fork_Osaka-state_test-]": {
        "env": {
            "currentCoinbase": "0x2adc25665018aa1fe0e6bc666dac8fc2697ff9ba",
            "currentGasLimit": "0x0a00000000",
            "currentNumber": "0x01",
            "currentTimestamp": "0x03e8",
            "currentRandom": "0x0000000000000000000000000000000000000000000000000000000000020000",
            "currentDifficulty": "0x00",
            "currentBaseFee": "0x0a",
            "currentExcessBlobGas": "0x00"
        },
        "pre": {
            "0x1fa1201dce8aa9cd5ac339d98991b6782957f5f7": {
                "nonce": "0x00",
                "balance": "0x6400000000",
                "code": "0x",
                "storage": {}
            },
            "0x089f728d9ba7d0d2129bbcbe78c41ea89b47cf14": {
                "nonce": "0x00",
                "balance": "0x0de0b6b3a7640000",
                "code": "0x6103fd6000525b5a6001600051036000526000516006570000",
                "storage": {}
            }
        },
        "transaction": {
            "nonce": "0x00",
            "gasPrice": "0x0a",
            "gasLimit": [
                "0x0186a0"
            ],
            "to": "0x089f728d9ba7d0d2129bbcbe78c41ea89b47cf14",
            "value": [
                "0x0a"
            ],
            "data": [
                "0x"
            ],
            "sender": "0x1fa1201dce8aa9cd5ac339d98991b6782957f5f7",
            "secretKey": "0xcbf19c46638c9a602505df8e089f728d9ba7d0d2129bbcbe78c41ea89b47cf14"
        },
        "post": {
            "Osaka": [
                {
                    "hash": "0x45aaff4bffbfc69a458be62a0b94b2dee052ffa3e550e0aed588d742653a76b7",
                    "logs": "0x1dcc4de8dec75d7aab85b567b6ccd41ad312451b948a7413f0a142fd40d49347",
                    "txbytes": "0xf860800a830186a094089f728d9ba7d0d2129bbcbe78c41ea89b47cf140a8026a055e4bc81710582becc9fe2eb1aca59005cfadfd6ac4717b08d287f90c25453a7a049c26e24bd87bb6be61b861f3a61505714e11be9e9fa6f187c54330283b6e240",
                    "indexes": {
                        "data": 0,
                        "gas": 0,
                        "value": 0
                    },
                    "state": {
                        "0x1fa1201dce8aa9cd5ac339d98991b6782957f5f7": {
                            "nonce": "0x01",
                            "balance": "0x63fff68fde",
                            "code": "0x",
                            "storage": {}
                        },
                        "0x089f728d9ba7d0d2129bbcbe78c41ea89b47cf14": {
                            "nonce": "0x00",
                            "balance": "0x0de0b6b3a764000a",
                            "code": "0x6103fd6000525b5a6001600051036000526000516006570000",
                            "storage": {}
                        }
                    }
                }
            ]
        },
        "config": {
            "blobSchedule": {
                "Cancun": {
                    "target": "0x03",
                    "max": "0x06",
                    "baseFeeUpdateFraction": "0x32f0ed"
                },
                "Prague": {
                    "target": "0x06",
                    "max": "0x09",
                    "baseFeeUpdateFraction": "0x4c6964"
                },
                "Osaka": {
                    "target": "0x06",
                    "max": "0x09",
                    "baseFeeUpdateFraction": "0x4c6964"
                }
            },
            "chainid": "0x01"
        },
        "_info": {
            "hash": "0x8cae853fd3603df9ff531da729e650643622783f6048c3601a6eba79dac2a0be",
            "comment": "`execution-spec-tests` generated test",
            "filling-transition-tool": "ethereum-spec-evm-resolver 0.0.5",
            "description": "No description available - add a docstring to the python test class or function.",
            "url": "",
            "fixture-format": "state_test",
            "eels-resolution": {
                "git-url": "https://github.com/marioevz/execution-specs.git",
                "branch": "forks/bpo1",
                "commit": "3387e5f4aedfe99becfdc39b444d6371e25e0924"
            }
        }
    },
    "tests/static/state_tests/stMemoryTest/stackLimitGas_1023Filler.json::stackLimitGas_1023[fork_Prague-state_test-]": {
        "env": {
            "currentCoinbase": "0x2adc25665018aa1fe0e6bc666dac8fc2697ff9ba",
            "currentGasLimit": "0x0a00000000",
            "currentNumber": "0x01",
            "currentTimestamp": "0x03e8",
            "currentRandom": "0x0000000000000000000000000000000000000000000000000000000000020000",
            "currentDifficulty": "0x00",
            "currentBaseFee": "0x0a",
            "currentExcessBlobGas": "0x00"
        },
        "pre": {
            "0x1fa1201dce8aa9cd5ac339d98991b6782957f5f7": {
                "nonce": "0x00",
                "balance": "0x6400000000",
                "code": "0x",
                "storage": {}
            },
            "0x089f728d9ba7d0d2129bbcbe78c41ea89b47cf14": {
                "nonce": "0x00",
                "balance": "0x0de0b6b3a7640000",
                "code": "0x6103fd6000525b5a6001600051036000526000516006570000",
                "storage": {}
            }
        },
        "transaction": {
            "nonce": "0x00",
            "gasPrice": "0x0a",
            "gasLimit": [
                "0x0186a0"
            ],
            "to": "0x089f728d9ba7d0d2129bbcbe78c41ea89b47cf14",
            "value": [
                "0x0a"
            ],
            "data": [
                "0x"
            ],
            "sender": "0x1fa1201dce8aa9cd5ac339d98991b6782957f5f7",
            "secretKey": "0xcbf19c46638c9a602505df8e089f728d9ba7d0d2129bbcbe78c41ea89b47cf14"
        },
        "post": {
            "Prague": [
                {
                    "hash": "0x45aaff4bffbfc69a458be62a0b94b2dee052ffa3e550e0aed588d742653a76b7",
                    "logs": "0x1dcc4de8dec75d7aab85b567b6ccd41ad312451b948a7413f0a142fd40d49347",
                    "txbytes": "0xf860800a830186a094089f728d9ba7d0d2129bbcbe78c41ea89b47cf140a8026a055e4bc81710582becc9fe2eb1aca59005cfadfd6ac4717b08d287f90c25453a7a049c26e24bd87bb6be61b861f3a61505714e11be9e9fa6f187c54330283b6e240",
                    "indexes": {
                        "data": 0,
                        "gas": 0,
                        "value": 0
                    },
                    "state": {
                        "0x1fa1201dce8aa9cd5ac339d98991b6782957f5f7": {
                            "nonce": "0x01",
                            "balance": "0x63fff68fde",
                            "code": "0x",
                            "storage": {}
                        },
                        "0x089f728d9ba7d0d2129bbcbe78c41ea89b47cf14": {
                            "nonce": "0x00",
                            "balance": "0x0de0b6b3a764000a",
                            "code": "0x6103fd6000525b5a6001600051036000526000516006570000",
                            "storage": {}
                        }
                    }
                }
            ]
        },
        "config": {
            "blobSchedule": {
                "Cancun": {
                    "target": "0x03",
                    "max": "0x06",
                    "baseFeeUpdateFraction": "0x32f0ed"
                },
                "Prague": {
                    "target": "0x06",
                    "max": "0x09",
                    "baseFeeUpdateFraction": "0x4c6964"
                }
            },
            "chainid": "0x01"
        },
        "_info": {
            "hash": "0xcc0d23f36ff6b2a127e16f6a9940fdea318a8419c75edbf4837733340047ba43",
            "comment": "`execution-spec-tests` generated test",
            "filling-transition-tool": "ethereum-spec-evm-resolver 0.0.5",
            "description": "No description available - add a docstring to the python test class or function.",
            "url": "",
            "fixture-format": "state_test",
            "eels-resolution": {
                "git-url": "https://github.com/marioevz/execution-specs.git",
                "branch": "forks/bpo1",
                "commit": "3387e5f4aedfe99becfdc39b444d6371e25e0924"
            }
        }
    }
}