{
    "tests/static/state_tests/stLogTests/log0_logMemStartTooHighFiller.json::log0_logMemStartTooHigh[fork_Cancun-state_test-]": {
        "env": {
            "currentCoinbase": "0x2adc25665018aa1fe0e6bc666dac8fc2697ff9ba",
            "currentGasLimit": "0x0f4240",
            "currentNumber": "0x01",
            "currentTimestamp": "0x03e8",
            "currentRandom": "0x0000000000000000000000000000000000000000000000000000000000020000",
            "currentDifficulty": "0x00",
            "currentBaseFee": "0x0a",
            "currentExcessBlobGas": "0x00"
        },
        "pre": {
            "0x84d5d86208ff07fc082ee0d36b2a5d3b06514025": {
                "nonce": "0x00",
                "balance": "0x0de0b6b3a7640000",
                "code": "0x",
                "storage": {}
            },
            "0xffd6a304a7c9a2e3362a58bcf803e3f669a4ecef": {
                "nonce": "0x00",
                "balance": "0x0de0b6b3a7640000",
                "code": "0x7faabbffffffffffffffffffffffffffffffffffffffffffffffffffffffffccdd60005260017fffffffffffffffffffffffffffffffffffffffffffffffffffffffffffffffffa000",
                "storage": {}
            },
            "0xffd6a304a7c9a2e3362a58bcf803e3f669a4edef": {
                "nonce": "0x00",
                "balance": "0x0de0b6b3a7640000",
                "code": "0x6000600060006000601773ffd6a304a7c9a2e3362a58bcf803e3f669a4ecef6103e8f160005500",
                "storage": {}
            }
        },
        "transaction": {
            "nonce": "0x00",
            "gasPrice": "0x0a",
            "gasLimit": [
                "0x033450"
            ],
            "to": "0xffd6a304a7c9a2e3362a58bcf803e3f669a4edef",
            "value": [
                "0x0186a0"
            ],
            "data": [
                "0x"
            ],
            "sender": "0x84d5d86208ff07fc082ee0d36b2a5d3b06514025",
            "secretKey": "0x3a1070101e77696358742858ffd6a304a7c9a2e3362a58bcf803e3f669a4ecef"
        },
        "post": {
            "Cancun": [
                {
                    "hash": "0x1399f51a68760c266005661270c62ef8eee5b1516bb5be8a143986a5cfa88c8b",
                    "logs": "0x1dcc4de8dec75d7aab85b567b6ccd41ad312451b948a7413f0a142fd40d49347",
                    "txbytes": "0xf863800a8303345094ffd6a304a7c9a2e3362a58bcf803e3f669a4edef830186a08025a0166f1640c883deaf0a12a555f73b051a313ca26c702e45ce1b1ddc4884b223c4a07725168bd65ac56e412eee1090824f7d195bc74e006681ea973069ac5653a304",
                    "indexes": {
                        "data": 0,
                        "gas": 0,
                        "value": 0
                    },
                    "state": {
                        "0x84d5d86208ff07fc082ee0d36b2a5d3b06514025": {
                            "nonce": "0x01",
                            "balance": "0x0de0b6b3a75d0200",
                            "code": "0x",
                            "storage": {}
                        },
                        "0xffd6a304a7c9a2e3362a58bcf803e3f669a4ecef": {
                            "nonce": "0x00",
                            "balance": "0x0de0b6b3a7640000",
                            "code": "0x7faabbffffffffffffffffffffffffffffffffffffffffffffffffffffffffccdd60005260017fffffffffffffffffffffffffffffffffffffffffffffffffffffffffffffffffa000",
                            "storage": {}
                        },
                        "0xffd6a304a7c9a2e3362a58bcf803e3f669a4edef": {
                            "nonce": "0x00",
                            "balance": "0x0de0b6b3a76586a0",
                            "code": "0x6000600060006000601773ffd6a304a7c9a2e3362a58bcf803e3f669a4ecef6103e8f160005500",
                            "storage": {}
                        }
                    }
                }
            ]
        },
        "config": {
            "blobSchedule": {
                "Cancun": {
                    "target": "0x03",
                    "max": "0x06",
                    "baseFeeUpdateFraction": "0x32f0ed"
                }
            },
            "chainid": "0x01"
        },
        "_info": {
            "hash": "0xa9bbed2dac042bbce524c18fdc89435af722add42b04245f09c7801ddcd8e283",
            "comment": "`execution-specs` generated test",
            "filling-transition-tool": "2.18.0rc6",
            "description": "No description available - add a docstring to the python test class or function.",
            "url": "",
            "fixture-format": "state_test"
        }
    },
    "tests/static/state_tests/stLogTests/log0_logMemStartTooHighFiller.json::log0_logMemStartTooHigh[fork_Osaka-state_test-]": {
        "env": {
            "currentCoinbase": "0x2adc25665018aa1fe0e6bc666dac8fc2697ff9ba",
            "currentGasLimit": "0x0f4240",
            "currentNumber": "0x01",
            "currentTimestamp": "0x03e8",
            "currentRandom": "0x0000000000000000000000000000000000000000000000000000000000020000",
            "currentDifficulty": "0x00",
            "currentBaseFee": "0x0a",
            "currentExcessBlobGas": "0x00"
        },
        "pre": {
            "0x84d5d86208ff07fc082ee0d36b2a5d3b06514025": {
                "nonce": "0x00",
                "balance": "0x0de0b6b3a7640000",
                "code": "0x",
                "storage": {}
            },
            "0xffd6a304a7c9a2e3362a58bcf803e3f669a4ecef": {
                "nonce": "0x00",
                "balance": "0x0de0b6b3a7640000",
                "code": "0x7faabbffffffffffffffffffffffffffffffffffffffffffffffffffffffffccdd60005260017fffffffffffffffffffffffffffffffffffffffffffffffffffffffffffffffffa000",
                "storage": {}
            },
            "0xffd6a304a7c9a2e3362a58bcf803e3f669a4edef": {
                "nonce": "0x00",
                "balance": "0x0de0b6b3a7640000",
                "code": "0x6000600060006000601773ffd6a304a7c9a2e3362a58bcf803e3f669a4ecef6103e8f160005500",
                "storage": {}
            }
        },
        "transaction": {
            "nonce": "0x00",
            "gasPrice": "0x0a",
            "gasLimit": [
                "0x033450"
            ],
            "to": "0xffd6a304a7c9a2e3362a58bcf803e3f669a4edef",
            "value": [
                "0x0186a0"
            ],
            "data": [
                "0x"
            ],
            "sender": "0x84d5d86208ff07fc082ee0d36b2a5d3b06514025",
            "secretKey": "0x3a1070101e77696358742858ffd6a304a7c9a2e3362a58bcf803e3f669a4ecef"
        },
        "post": {
            "Osaka": [
                {
                    "hash": "0x1399f51a68760c266005661270c62ef8eee5b1516bb5be8a143986a5cfa88c8b",
                    "logs": "0x1dcc4de8dec75d7aab85b567b6ccd41ad312451b948a7413f0a142fd40d49347",
                    "txbytes": "0xf863800a8303345094ffd6a304a7c9a2e3362a58bcf803e3f669a4edef830186a08025a0166f1640c883deaf0a12a555f73b051a313ca26c702e45ce1b1ddc4884b223c4a07725168bd65ac56e412eee1090824f7d195bc74e006681ea973069ac5653a304",
                    "indexes": {
                        "data": 0,
                        "gas": 0,
                        "value": 0
                    },
                    "state": {
                        "0x84d5d86208ff07fc082ee0d36b2a5d3b06514025": {
                            "nonce": "0x01",
                            "balance": "0x0de0b6b3a75d0200",
                            "code": "0x",
                            "storage": {}
                        },
                        "0xffd6a304a7c9a2e3362a58bcf803e3f669a4ecef": {
                            "nonce": "0x00",
                            "balance": "0x0de0b6b3a7640000",
                            "code": "0x7faabbffffffffffffffffffffffffffffffffffffffffffffffffffffffffccdd60005260017fffffffffffffffffffffffffffffffffffffffffffffffffffffffffffffffffa000",
                            "storage": {}
                        },
                        "0xffd6a304a7c9a2e3362a58bcf803e3f669a4edef": {
                            "nonce": "0x00",
                            "balance": "0x0de0b6b3a76586a0",
                            "code": "0x6000600060006000601773ffd6a304a7c9a2e3362a58bcf803e3f669a4ecef6103e8f160005500",
                            "storage": {}
                        }
                    }
                }
            ]
        },
        "config": {
            "blobSchedule": {
                "Cancun": {
                    "target": "0x03",
                    "max": "0x06",
                    "baseFeeUpdateFraction": "0x32f0ed"
                },
                "Prague": {
                    "target": "0x06",
                    "max": "0x09",
                    "baseFeeUpdateFraction": "0x4c6964"
                },
                "Osaka": {
                    "target": "0x06",
                    "max": "0x09",
                    "baseFeeUpdateFraction": "0x4c6964"
                }
            },
            "chainid": "0x01"
        },
        "_info": {
            "hash": "0x8f99838b4df099d37cdd11503538b9bd79cd04ccf94a20d434c29280a2dd01ab",
            "comment": "`execution-specs` generated test",
            "filling-transition-tool": "2.18.0rc6",
            "description": "No description available - add a docstring to the python test class or function.",
            "url": "",
            "fixture-format": "state_test"
        }
    },
    "tests/static/state_tests/stLogTests/log0_logMemStartTooHighFiller.json::log0_logMemStartTooHigh[fork_Prague-state_test-]": {
        "env": {
            "currentCoinbase": "0x2adc25665018aa1fe0e6bc666dac8fc2697ff9ba",
            "currentGasLimit": "0x0f4240",
            "currentNumber": "0x01",
            "currentTimestamp": "0x03e8",
            "currentRandom": "0x0000000000000000000000000000000000000000000000000000000000020000",
            "currentDifficulty": "0x00",
            "currentBaseFee": "0x0a",
            "currentExcessBlobGas": "0x00"
        },
        "pre": {
            "0x84d5d86208ff07fc082ee0d36b2a5d3b06514025": {
                "nonce": "0x00",
                "balance": "0x0de0b6b3a7640000",
                "code": "0x",
                "storage": {}
            },
            "0xffd6a304a7c9a2e3362a58bcf803e3f669a4ecef": {
                "nonce": "0x00",
                "balance": "0x0de0b6b3a7640000",
                "code": "0x7faabbffffffffffffffffffffffffffffffffffffffffffffffffffffffffccdd60005260017fffffffffffffffffffffffffffffffffffffffffffffffffffffffffffffffffa000",
                "storage": {}
            },
            "0xffd6a304a7c9a2e3362a58bcf803e3f669a4edef": {
                "nonce": "0x00",
                "balance": "0x0de0b6b3a7640000",
                "code": "0x6000600060006000601773ffd6a304a7c9a2e3362a58bcf803e3f669a4ecef6103e8f160005500",
                "storage": {}
            }
        },
        "transaction": {
            "nonce": "0x00",
            "gasPrice": "0x0a",
            "gasLimit": [
                "0x033450"
            ],
            "to": "0xffd6a304a7c9a2e3362a58bcf803e3f669a4edef",
            "value": [
                "0x0186a0"
            ],
            "data": [
                "0x"
            ],
            "sender": "0x84d5d86208ff07fc082ee0d36b2a5d3b06514025",
            "secretKey": "0x3a1070101e77696358742858ffd6a304a7c9a2e3362a58bcf803e3f669a4ecef"
        },
        "post": {
            "Prague": [
                {
                    "hash": "0x1399f51a68760c266005661270c62ef8eee5b1516bb5be8a143986a5cfa88c8b",
                    "logs": "0x1dcc4de8dec75d7aab85b567b6ccd41ad312451b948a7413f0a142fd40d49347",
                    "txbytes": "0xf863800a8303345094ffd6a304a7c9a2e3362a58bcf803e3f669a4edef830186a08025a0166f1640c883deaf0a12a555f73b051a313ca26c702e45ce1b1ddc4884b223c4a07725168bd65ac56e412eee1090824f7d195bc74e006681ea973069ac5653a304",
                    "indexes": {
                        "data": 0,
                        "gas": 0,
                        "value": 0
                    },
                    "state": {
                        "0x84d5d86208ff07fc082ee0d36b2a5d3b06514025": {
                            "nonce": "0x01",
                            "balance": "0x0de0b6b3a75d0200",
                            "code": "0x",
                            "storage": {}
                        },
                        "0xffd6a304a7c9a2e3362a58bcf803e3f669a4ecef": {
                            "nonce": "0x00",
                            "balance": "0x0de0b6b3a7640000",
                            "code": "0x7faabbffffffffffffffffffffffffffffffffffffffffffffffffffffffffccdd60005260017fffffffffffffffffffffffffffffffffffffffffffffffffffffffffffffffffa000",
                            "storage": {}
                        },
                        "0xffd6a304a7c9a2e3362a58bcf803e3f669a4edef": {
                            "nonce": "0x00",
                            "balance": "0x0de0b6b3a76586a0",
                            "code": "0x6000600060006000601773ffd6a304a7c9a2e3362a58bcf803e3f669a4ecef6103e8f160005500",
                            "storage": {}
                        }
                    }
                }
            ]
        },
        "config": {
            "blobSchedule": {
                "Cancun": {
                    "target": "0x03",
                    "max": "0x06",
                    "baseFeeUpdateFraction": "0x32f0ed"
                },
                "Prague": {
                    "target": "0x06",
                    "max": "0x09",
                    "baseFeeUpdateFraction": "0x4c6964"
                }
            },
            "chainid": "0x01"
        },
        "_info": {
            "hash": "0x9c33e08c0ebd288c17dfd9ddaa9a43176c6bce6f71c13da8cef9c649555b49d5",
            "comment": "`execution-specs` generated test",
            "filling-transition-tool": "2.18.0rc6",
            "description": "No description available - add a docstring to the python test class or function.",
            "url": "",
            "fixture-format": "state_test"
        }
    }
}