{
    "tests/static/state_tests/stLogTests/log1_MaxTopicFiller.json::log1_MaxTopic[fork_Cancun-state_test-]": {
        "env": {
            "currentCoinbase": "0x2adc25665018aa1fe0e6bc666dac8fc2697ff9ba",
            "currentGasLimit": "0x0f4240",
            "currentNumber": "0x01",
            "currentTimestamp": "0x03e8",
            "currentRandom": "0x0000000000000000000000000000000000000000000000000000000000020000",
            "currentDifficulty": "0x00",
            "currentBaseFee": "0x0a",
            "currentExcessBlobGas": "0x00"
        },
        "pre": {
            "0xc4bc5b2b49f188a393b2955c9e12110b707e64a3": {
                "nonce": "0x00",
                "balance": "0x0de0b6b3a7640000",
                "code": "0x",
                "storage": {}
            },
            "0x32e13e4e324787baf49f3c1942bcbc6d8af443d7": {
                "nonce": "0x00",
                "balance": "0x0de0b6b3a7640000",
                "code": "0x7faabbffffffffffffffffffffffffffffffffffffffffffffffffffffffffccdd6000527fffffffffffffffffffffffffffffffffffffffffffffffffffffffffffffffff60206000a100",
                "storage": {}
            },
            "0x32e13e4e324787baf49f3c1942bcbc6d8af444d7": {
                "nonce": "0x00",
                "balance": "0x0de0b6b3a7640000",
                "code": "0x600060006000600060177332e13e4e324787baf49f3c1942bcbc6d8af443d76103e8f160005500",
                "storage": {}
            }
        },
        "transaction": {
            "nonce": "0x00",
            "gasPrice": "0x0a",
            "gasLimit": [
                "0x033450"
            ],
            "to": "0x32e13e4e324787baf49f3c1942bcbc6d8af444d7",
            "value": [
                "0x0186a0"
            ],
            "data": [
                "0x"
            ],
            "sender": "0xc4bc5b2b49f188a393b2955c9e12110b707e64a3",
            "secretKey": "0x077236c460b5073bc6016c1832e13e4e324787baf49f3c1942bcbc6d8af443d7"
        },
        "post": {
            "Cancun": [
                {
                    "hash": "0x67fe2edbb83b5f1fbda9c4f7c7803c1419f8b4a6845412cd5d591a5ae594004d",
                    "logs": "0x149a3e4bfb448d72c3a7062a69fd4172cb83c95ff23e93e256e014b4568386e9",
                    "txbytes": "0xf863800a830334509432e13e4e324787baf49f3c1942bcbc6d8af444d7830186a08026a0d0f1b5efc1ae1e4872a0370bafb4d09b77abbc7706776b4fa7588435f9caff6fa048d1ac2c708dd671de2dcda3c5dda30bf35cfaad41177a61d2adb290c1a662ef",
                    "indexes": {
                        "data": 0,
                        "gas": 0,
                        "value": 0
                    },
                    "state": {
                        "0xc4bc5b2b49f188a393b2955c9e12110b707e64a3": {
                            "nonce": "0x01",
                            "balance": "0x0de0b6b3a75a5172",
                            "code": "0x",
                            "storage": {}
                        },
                        "0x32e13e4e324787baf49f3c1942bcbc6d8af443d7": {
                            "nonce": "0x00",
                            "balance": "0x0de0b6b3a7640017",
                            "code": "0x7faabbffffffffffffffffffffffffffffffffffffffffffffffffffffffffccdd6000527fffffffffffffffffffffffffffffffffffffffffffffffffffffffffffffffff60206000a100",
                            "storage": {}
                        },
                        "0x32e13e4e324787baf49f3c1942bcbc6d8af444d7": {
                            "nonce": "0x00",
                            "balance": "0x0de0b6b3a7658689",
                            "code": "0x600060006000600060177332e13e4e324787baf49f3c1942bcbc6d8af443d76103e8f160005500",
                            "storage": {
                                "0x00": "0x01"
                            }
                        }
                    }
                }
            ]
        },
        "config": {
            "blobSchedule": {
                "Cancun": {
                    "target": "0x03",
                    "max": "0x06",
                    "baseFeeUpdateFraction": "0x32f0ed"
                }
            },
            "chainid": "0x01"
        },
        "_info": {
            "hash": "0x0f4d951efd75f2975b4d0fc4de80a694fd5c629910541d5569972a24f7cf3bb7",
            "comment": "`execution-spec-tests` generated test",
            "filling-transition-tool": "ethereum-spec-evm-resolver 0.0.5",
            "description": "No description available - add a docstring to the python test class or function.",
            "url": "",
            "fixture-format": "state_test",
            "eels-resolution": {
                "git-url": "https://github.com/ethereum/execution-specs.git",
                "branch": "forks/bpos",
                "commit": "7aacb2c54111391af5e98c505d5010b5698a770f"
            }
        }
    },
    "tests/static/state_tests/stLogTests/log1_MaxTopicFiller.json::log1_MaxTopic[fork_Osaka-state_test-]": {
        "env": {
            "currentCoinbase": "0x2adc25665018aa1fe0e6bc666dac8fc2697ff9ba",
            "currentGasLimit": "0x0f4240",
            "currentNumber": "0x01",
            "currentTimestamp": "0x03e8",
            "currentRandom": "0x0000000000000000000000000000000000000000000000000000000000020000",
            "currentDifficulty": "0x00",
            "currentBaseFee": "0x0a",
            "currentExcessBlobGas": "0x00"
        },
        "pre": {
            "0xc4bc5b2b49f188a393b2955c9e12110b707e64a3": {
                "nonce": "0x00",
                "balance": "0x0de0b6b3a7640000",
                "code": "0x",
                "storage": {}
            },
            "0x32e13e4e324787baf49f3c1942bcbc6d8af443d7": {
                "nonce": "0x00",
                "balance": "0x0de0b6b3a7640000",
                "code": "0x7faabbffffffffffffffffffffffffffffffffffffffffffffffffffffffffccdd6000527fffffffffffffffffffffffffffffffffffffffffffffffffffffffffffffffff60206000a100",
                "storage": {}
            },
            "0x32e13e4e324787baf49f3c1942bcbc6d8af444d7": {
                "nonce": "0x00",
                "balance": "0x0de0b6b3a7640000",
                "code": "0x600060006000600060177332e13e4e324787baf49f3c1942bcbc6d8af443d76103e8f160005500",
                "storage": {}
            }
        },
        "transaction": {
            "nonce": "0x00",
            "gasPrice": "0x0a",
            "gasLimit": [
                "0x033450"
            ],
            "to": "0x32e13e4e324787baf49f3c1942bcbc6d8af444d7",
            "value": [
                "0x0186a0"
            ],
            "data": [
                "0x"
            ],
            "sender": "0xc4bc5b2b49f188a393b2955c9e12110b707e64a3",
            "secretKey": "0x077236c460b5073bc6016c1832e13e4e324787baf49f3c1942bcbc6d8af443d7"
        },
        "post": {
            "Osaka": [
                {
                    "hash": "0x67fe2edbb83b5f1fbda9c4f7c7803c1419f8b4a6845412cd5d591a5ae594004d",
                    "logs": "0x149a3e4bfb448d72c3a7062a69fd4172cb83c95ff23e93e256e014b4568386e9",
                    "txbytes": "0xf863800a830334509432e13e4e324787baf49f3c1942bcbc6d8af444d7830186a08026a0d0f1b5efc1ae1e4872a0370bafb4d09b77abbc7706776b4fa7588435f9caff6fa048d1ac2c708dd671de2dcda3c5dda30bf35cfaad41177a61d2adb290c1a662ef",
                    "indexes": {
                        "data": 0,
                        "gas": 0,
                        "value": 0
                    },
                    "state": {
                        "0xc4bc5b2b49f188a393b2955c9e12110b707e64a3": {
                            "nonce": "0x01",
                            "balance": "0x0de0b6b3a75a5172",
                            "code": "0x",
                            "storage": {}
                        },
                        "0x32e13e4e324787baf49f3c1942bcbc6d8af443d7": {
                            "nonce": "0x00",
                            "balance": "0x0de0b6b3a7640017",
                            "code": "0x7faabbffffffffffffffffffffffffffffffffffffffffffffffffffffffffccdd6000527fffffffffffffffffffffffffffffffffffffffffffffffffffffffffffffffff60206000a100",
                            "storage": {}
                        },
                        "0x32e13e4e324787baf49f3c1942bcbc6d8af444d7": {
                            "nonce": "0x00",
                            "balance": "0x0de0b6b3a7658689",
                            "code": "0x600060006000600060177332e13e4e324787baf49f3c1942bcbc6d8af443d76103e8f160005500",
                            "storage": {
                                "0x00": "0x01"
                            }
                        }
                    }
                }
            ]
        },
        "config": {
            "blobSchedule": {
                "Cancun": {
                    "target": "0x03",
                    "max": "0x06",
                    "baseFeeUpdateFraction": "0x32f0ed"
                },
                "Prague": {
                    "target": "0x06",
                    "max": "0x09",
                    "baseFeeUpdateFraction": "0x4c6964"
                },
                "Osaka": {
                    "target": "0x06",
                    "max": "0x09",
                    "baseFeeUpdateFraction": "0x4c6964"
                }
            },
            "chainid": "0x01"
        },
        "_info": {
            "hash": "0xfaad75c7e8932bb284c1363f0bf69472cd17dcf013d000336546d5dd5adb4f52",
            "comment": "`execution-spec-tests` generated test",
            "filling-transition-tool": "ethereum-spec-evm-resolver 0.0.5",
            "description": "No description available - add a docstring to the python test class or function.",
            "url": "",
            "fixture-format": "state_test",
            "eels-resolution": {
                "git-url": "https://github.com/ethereum/execution-specs.git",
                "branch": "forks/bpos",
                "commit": "7aacb2c54111391af5e98c505d5010b5698a770f"
            }
        }
    },
    "tests/static/state_tests/stLogTests/log1_MaxTopicFiller.json::log1_MaxTopic[fork_Prague-state_test-]": {
        "env": {
            "currentCoinbase": "0x2adc25665018aa1fe0e6bc666dac8fc2697ff9ba",
            "currentGasLimit": "0x0f4240",
            "currentNumber": "0x01",
            "currentTimestamp": "0x03e8",
            "currentRandom": "0x0000000000000000000000000000000000000000000000000000000000020000",
            "currentDifficulty": "0x00",
            "currentBaseFee": "0x0a",
            "currentExcessBlobGas": "0x00"
        },
        "pre": {
            "0xc4bc5b2b49f188a393b2955c9e12110b707e64a3": {
                "nonce": "0x00",
                "balance": "0x0de0b6b3a7640000",
                "code": "0x",
                "storage": {}
            },
            "0x32e13e4e324787baf49f3c1942bcbc6d8af443d7": {
                "nonce": "0x00",
                "balance": "0x0de0b6b3a7640000",
                "code": "0x7faabbffffffffffffffffffffffffffffffffffffffffffffffffffffffffccdd6000527fffffffffffffffffffffffffffffffffffffffffffffffffffffffffffffffff60206000a100",
                "storage": {}
            },
            "0x32e13e4e324787baf49f3c1942bcbc6d8af444d7": {
                "nonce": "0x00",
                "balance": "0x0de0b6b3a7640000",
                "code": "0x600060006000600060177332e13e4e324787baf49f3c1942bcbc6d8af443d76103e8f160005500",
                "storage": {}
            }
        },
        "transaction": {
            "nonce": "0x00",
            "gasPrice": "0x0a",
            "gasLimit": [
                "0x033450"
            ],
            "to": "0x32e13e4e324787baf49f3c1942bcbc6d8af444d7",
            "value": [
                "0x0186a0"
            ],
            "data": [
                "0x"
            ],
            "sender": "0xc4bc5b2b49f188a393b2955c9e12110b707e64a3",
            "secretKey": "0x077236c460b5073bc6016c1832e13e4e324787baf49f3c1942bcbc6d8af443d7"
        },
        "post": {
            "Prague": [
                {
                    "hash": "0x67fe2edbb83b5f1fbda9c4f7c7803c1419f8b4a6845412cd5d591a5ae594004d",
                    "logs": "0x149a3e4bfb448d72c3a7062a69fd4172cb83c95ff23e93e256e014b4568386e9",
                    "txbytes": "0xf863800a830334509432e13e4e324787baf49f3c1942bcbc6d8af444d7830186a08026a0d0f1b5efc1ae1e4872a0370bafb4d09b77abbc7706776b4fa7588435f9caff6fa048d1ac2c708dd671de2dcda3c5dda30bf35cfaad41177a61d2adb290c1a662ef",
                    "indexes": {
                        "data": 0,
                        "gas": 0,
                        "value": 0
                    },
                    "state": {
                        "0xc4bc5b2b49f188a393b2955c9e12110b707e64a3": {
                            "nonce": "0x01",
                            "balance": "0x0de0b6b3a75a5172",
                            "code": "0x",
                            "storage": {}
                        },
                        "0x32e13e4e324787baf49f3c1942bcbc6d8af443d7": {
                            "nonce": "0x00",
                            "balance": "0x0de0b6b3a7640017",
                            "code": "0x7faabbffffffffffffffffffffffffffffffffffffffffffffffffffffffffccdd6000527fffffffffffffffffffffffffffffffffffffffffffffffffffffffffffffffff60206000a100",
                            "storage": {}
                        },
                        "0x32e13e4e324787baf49f3c1942bcbc6d8af444d7": {
                            "nonce": "0x00",
                            "balance": "0x0de0b6b3a7658689",
                            "code": "0x600060006000600060177332e13e4e324787baf49f3c1942bcbc6d8af443d76103e8f160005500",
                            "storage": {
                                "0x00": "0x01"
                            }
                        }
                    }
                }
            ]
        },
        "config": {
            "blobSchedule": {
                "Cancun": {
                    "target": "0x03",
                    "max": "0x06",
                    "baseFeeUpdateFraction": "0x32f0ed"
                },
                "Prague": {
                    "target": "0x06",
                    "max": "0x09",
                    "baseFeeUpdateFraction": "0x4c6964"
                }
            },
            "chainid": "0x01"
        },
        "_info": {
            "hash": "0x1408e7d1dd617afbd983a7434891f96b2e774f9352c7fccfa273aed420a00825",
            "comment": "`execution-spec-tests` generated test",
            "filling-transition-tool": "ethereum-spec-evm-resolver 0.0.5",
            "description": "No description available - add a docstring to the python test class or function.",
            "url": "",
            "fixture-format": "state_test",
            "eels-resolution": {
                "git-url": "https://github.com/ethereum/execution-specs.git",
                "branch": "forks/bpos",
                "commit": "7aacb2c54111391af5e98c505d5010b5698a770f"
            }
        }
    }
}