{
    "tests/static/state_tests/stLogTests/log1_nonEmptyMemFiller.json::log1_nonEmptyMem[fork_Cancun-state_test-]": {
        "env": {
            "currentCoinbase": "0x2adc25665018aa1fe0e6bc666dac8fc2697ff9ba",
            "currentGasLimit": "0x0f4240",
            "currentNumber": "0x01",
            "currentTimestamp": "0x03e8",
            "currentRandom": "0x0000000000000000000000000000000000000000000000000000000000020000",
            "currentDifficulty": "0x00",
            "currentBaseFee": "0x0a",
            "currentExcessBlobGas": "0x00"
        },
        "pre": {
            "0xac083c922119ede1150828a5ba3162d52d3a7cd6": {
                "nonce": "0x00",
                "balance": "0x0de0b6b3a7640000",
                "code": "0x",
                "storage": {}
            },
            "0x6312271e51d5d1bcbdf1316d8389554079bcd2e0": {
                "nonce": "0x00",
                "balance": "0x0de0b6b3a7640000",
                "code": "0x7fffffffffffffffffffffffffffffffffffffffffffffffffffffffffffffffff600052600060206000a100",
                "storage": {}
            },
            "0x6312271e51d5d1bcbdf1316d8389554079bcd3e0": {
                "nonce": "0x00",
                "balance": "0x0de0b6b3a7640000",
                "code": "0x60006000600060006017736312271e51d5d1bcbdf1316d8389554079bcd2e06103e8f160005500",
                "storage": {}
            }
        },
        "transaction": {
            "nonce": "0x00",
            "gasPrice": "0x0a",
            "gasLimit": [
                "0x033450"
            ],
            "to": "0x6312271e51d5d1bcbdf1316d8389554079bcd3e0",
            "value": [
                "0x0186a0"
            ],
            "data": [
                "0x"
            ],
            "sender": "0xac083c922119ede1150828a5ba3162d52d3a7cd6",
            "secretKey": "0xd6230451d89d29bd10aa3aa16312271e51d5d1bcbdf1316d8389554079bcd2e0"
        },
        "post": {
            "Cancun": [
                {
                    "hash": "0xe5ade03422918cb7bc7cde4165de669be45c6912ae15003f801c4d4200ff7bfe",
                    "logs": "0x9a0b8c8f988858accf407ec1239239f1f0b5938c770293bf6b97dbb1abd7c5e4",
                    "txbytes": "0xf863800a83033450946312271e51d5d1bcbdf1316d8389554079bcd3e0830186a08025a0210217143912b04f23a7e5720f044c4617dc7e342d7c48e5388b955a115c3aefa058e5b9e8952865c4f58f249aa0f7679113e10b4c789397b8db8962a15cab26d3",
                    "indexes": {
                        "data": 0,
                        "gas": 0,
                        "value": 0
                    },
                    "state": {
                        "0xac083c922119ede1150828a5ba3162d52d3a7cd6": {
                            "nonce": "0x01",
                            "balance": "0x0de0b6b3a75a5172",
                            "code": "0x",
                            "storage": {}
                        },
                        "0x6312271e51d5d1bcbdf1316d8389554079bcd2e0": {
                            "nonce": "0x00",
                            "balance": "0x0de0b6b3a7640017",
                            "code": "0x7fffffffffffffffffffffffffffffffffffffffffffffffffffffffffffffffff600052600060206000a100",
                            "storage": {}
                        },
                        "0x6312271e51d5d1bcbdf1316d8389554079bcd3e0": {
                            "nonce": "0x00",
                            "balance": "0x0de0b6b3a7658689",
                            "code": "0x60006000600060006017736312271e51d5d1bcbdf1316d8389554079bcd2e06103e8f160005500",
                            "storage": {
                                "0x00": "0x01"
                            }
                        }
                    }
                }
            ]
        },
        "config": {
            "blobSchedule": {
                "Cancun": {
                    "target": "0x03",
                    "max": "0x06",
                    "baseFeeUpdateFraction": "0x32f0ed"
                }
            },
            "chainid": "0x01"
        },
        "_info": {
            "hash": "0xa4f01b9f5d6dd08323da2338f168e2514072e2d431dea783d482f74d3d60217c",
            "comment": "`execution-spec-tests` generated test",
            "filling-transition-tool": "ethereum-spec-evm-resolver 0.0.5",
            "description": "No description available - add a docstring to the python test class or function.",
            "url": "",
            "fixture-format": "state_test",
            "eels-resolution": {
                "git-url": "https://github.com/ethereum/execution-specs.git",
                "branch": "forks/bpos",
                "commit": "7aacb2c54111391af5e98c505d5010b5698a770f"
            }
        }
    },
    "tests/static/state_tests/stLogTests/log1_nonEmptyMemFiller.json::log1_nonEmptyMem[fork_Osaka-state_test-]": {
        "env": {
            "currentCoinbase": "0x2adc25665018aa1fe0e6bc666dac8fc2697ff9ba",
            "currentGasLimit": "0x0f4240",
            "currentNumber": "0x01",
            "currentTimestamp": "0x03e8",
            "currentRandom": "0x0000000000000000000000000000000000000000000000000000000000020000",
            "currentDifficulty": "0x00",
            "currentBaseFee": "0x0a",
            "currentExcessBlobGas": "0x00"
        },
        "pre": {
            "0xac083c922119ede1150828a5ba3162d52d3a7cd6": {
                "nonce": "0x00",
                "balance": "0x0de0b6b3a7640000",
                "code": "0x",
                "storage": {}
            },
            "0x6312271e51d5d1bcbdf1316d8389554079bcd2e0": {
                "nonce": "0x00",
                "balance": "0x0de0b6b3a7640000",
                "code": "0x7fffffffffffffffffffffffffffffffffffffffffffffffffffffffffffffffff600052600060206000a100",
                "storage": {}
            },
            "0x6312271e51d5d1bcbdf1316d8389554079bcd3e0": {
                "nonce": "0x00",
                "balance": "0x0de0b6b3a7640000",
                "code": "0x60006000600060006017736312271e51d5d1bcbdf1316d8389554079bcd2e06103e8f160005500",
                "storage": {}
            }
        },
        "transaction": {
            "nonce": "0x00",
            "gasPrice": "0x0a",
            "gasLimit": [
                "0x033450"
            ],
            "to": "0x6312271e51d5d1bcbdf1316d8389554079bcd3e0",
            "value": [
                "0x0186a0"
            ],
            "data": [
                "0x"
            ],
            "sender": "0xac083c922119ede1150828a5ba3162d52d3a7cd6",
            "secretKey": "0xd6230451d89d29bd10aa3aa16312271e51d5d1bcbdf1316d8389554079bcd2e0"
        },
        "post": {
            "Osaka": [
                {
                    "hash": "0xe5ade03422918cb7bc7cde4165de669be45c6912ae15003f801c4d4200ff7bfe",
                    "logs": "0x9a0b8c8f988858accf407ec1239239f1f0b5938c770293bf6b97dbb1abd7c5e4",
                    "txbytes": "0xf863800a83033450946312271e51d5d1bcbdf1316d8389554079bcd3e0830186a08025a0210217143912b04f23a7e5720f044c4617dc7e342d7c48e5388b955a115c3aefa058e5b9e8952865c4f58f249aa0f7679113e10b4c789397b8db8962a15cab26d3",
                    "indexes": {
                        "data": 0,
                        "gas": 0,
                        "value": 0
                    },
                    "state": {
                        "0xac083c922119ede1150828a5ba3162d52d3a7cd6": {
                            "nonce": "0x01",
                            "balance": "0x0de0b6b3a75a5172",
                            "code": "0x",
                            "storage": {}
                        },
                        "0x6312271e51d5d1bcbdf1316d8389554079bcd2e0": {
                            "nonce": "0x00",
                            "balance": "0x0de0b6b3a7640017",
                            "code": "0x7fffffffffffffffffffffffffffffffffffffffffffffffffffffffffffffffff600052600060206000a100",
                            "storage": {}
                        },
                        "0x6312271e51d5d1bcbdf1316d8389554079bcd3e0": {
                            "nonce": "0x00",
                            "balance": "0x0de0b6b3a7658689",
                            "code": "0x60006000600060006017736312271e51d5d1bcbdf1316d8389554079bcd2e06103e8f160005500",
                            "storage": {
                                "0x00": "0x01"
                            }
                        }
                    }
                }
            ]
        },
        "config": {
            "blobSchedule": {
                "Cancun": {
                    "target": "0x03",
                    "max": "0x06",
                    "baseFeeUpdateFraction": "0x32f0ed"
                },
                "Prague": {
                    "target": "0x06",
                    "max": "0x09",
                    "baseFeeUpdateFraction": "0x4c6964"
                },
                "Osaka": {
                    "target": "0x06",
                    "max": "0x09",
                    "baseFeeUpdateFraction": "0x4c6964"
                }
            },
            "chainid": "0x01"
        },
        "_info": {
            "hash": "0x64ee7c96798dbe5e269001801ec545f16ba4862461e2a942177349a4855570cc",
            "comment": "`execution-spec-tests` generated test",
            "filling-transition-tool": "ethereum-spec-evm-resolver 0.0.5",
            "description": "No description available - add a docstring to the python test class or function.",
            "url": "",
            "fixture-format": "state_test",
            "eels-resolution": {
                "git-url": "https://github.com/ethereum/execution-specs.git",
                "branch": "forks/bpos",
                "commit": "7aacb2c54111391af5e98c505d5010b5698a770f"
            }
        }
    },
    "tests/static/state_tests/stLogTests/log1_nonEmptyMemFiller.json::log1_nonEmptyMem[fork_Prague-state_test-]": {
        "env": {
            "currentCoinbase": "0x2adc25665018aa1fe0e6bc666dac8fc2697ff9ba",
            "currentGasLimit": "0x0f4240",
            "currentNumber": "0x01",
            "currentTimestamp": "0x03e8",
            "currentRandom": "0x0000000000000000000000000000000000000000000000000000000000020000",
            "currentDifficulty": "0x00",
            "currentBaseFee": "0x0a",
            "currentExcessBlobGas": "0x00"
        },
        "pre": {
            "0xac083c922119ede1150828a5ba3162d52d3a7cd6": {
                "nonce": "0x00",
                "balance": "0x0de0b6b3a7640000",
                "code": "0x",
                "storage": {}
            },
            "0x6312271e51d5d1bcbdf1316d8389554079bcd2e0": {
                "nonce": "0x00",
                "balance": "0x0de0b6b3a7640000",
                "code": "0x7fffffffffffffffffffffffffffffffffffffffffffffffffffffffffffffffff600052600060206000a100",
                "storage": {}
            },
            "0x6312271e51d5d1bcbdf1316d8389554079bcd3e0": {
                "nonce": "0x00",
                "balance": "0x0de0b6b3a7640000",
                "code": "0x60006000600060006017736312271e51d5d1bcbdf1316d8389554079bcd2e06103e8f160005500",
                "storage": {}
            }
        },
        "transaction": {
            "nonce": "0x00",
            "gasPrice": "0x0a",
            "gasLimit": [
                "0x033450"
            ],
            "to": "0x6312271e51d5d1bcbdf1316d8389554079bcd3e0",
            "value": [
                "0x0186a0"
            ],
            "data": [
                "0x"
            ],
            "sender": "0xac083c922119ede1150828a5ba3162d52d3a7cd6",
            "secretKey": "0xd6230451d89d29bd10aa3aa16312271e51d5d1bcbdf1316d8389554079bcd2e0"
        },
        "post": {
            "Prague": [
                {
                    "hash": "0xe5ade03422918cb7bc7cde4165de669be45c6912ae15003f801c4d4200ff7bfe",
                    "logs": "0x9a0b8c8f988858accf407ec1239239f1f0b5938c770293bf6b97dbb1abd7c5e4",
                    "txbytes": "0xf863800a83033450946312271e51d5d1bcbdf1316d8389554079bcd3e0830186a08025a0210217143912b04f23a7e5720f044c4617dc7e342d7c48e5388b955a115c3aefa058e5b9e8952865c4f58f249aa0f7679113e10b4c789397b8db8962a15cab26d3",
                    "indexes": {
                        "data": 0,
                        "gas": 0,
                        "value": 0
                    },
                    "state": {
                        "0xac083c922119ede1150828a5ba3162d52d3a7cd6": {
                            "nonce": "0x01",
                            "balance": "0x0de0b6b3a75a5172",
                            "code": "0x",
                            "storage": {}
                        },
                        "0x6312271e51d5d1bcbdf1316d8389554079bcd2e0": {
                            "nonce": "0x00",
                            "balance": "0x0de0b6b3a7640017",
                            "code": "0x7fffffffffffffffffffffffffffffffffffffffffffffffffffffffffffffffff600052600060206000a100",
                            "storage": {}
                        },
                        "0x6312271e51d5d1bcbdf1316d8389554079bcd3e0": {
                            "nonce": "0x00",
                            "balance": "0x0de0b6b3a7658689",
                            "code": "0x60006000600060006017736312271e51d5d1bcbdf1316d8389554079bcd2e06103e8f160005500",
                            "storage": {
                                "0x00": "0x01"
                            }
                        }
                    }
                }
            ]
        },
        "config": {
            "blobSchedule": {
                "Cancun": {
                    "target": "0x03",
                    "max": "0x06",
                    "baseFeeUpdateFraction": "0x32f0ed"
                },
                "Prague": {
                    "target": "0x06",
                    "max": "0x09",
                    "baseFeeUpdateFraction": "0x4c6964"
                }
            },
            "chainid": "0x01"
        },
        "_info": {
            "hash": "0x376e7b710590a1b07f2f72bea934acc9b94545e6c0e8169865b909f7b609eb14",
            "comment": "`execution-spec-tests` generated test",
            "filling-transition-tool": "ethereum-spec-evm-resolver 0.0.5",
            "description": "No description available - add a docstring to the python test class or function.",
            "url": "",
            "fixture-format": "state_test",
            "eels-resolution": {
                "git-url": "https://github.com/ethereum/execution-specs.git",
                "branch": "forks/bpos",
                "commit": "7aacb2c54111391af5e98c505d5010b5698a770f"
            }
        }
    }
}