{
    "tests/static/state_tests/stLogTests/log3_PCFiller.json::log3_PC[fork_Cancun-state_test-]": {
        "env": {
            "currentCoinbase": "0x2adc25665018aa1fe0e6bc666dac8fc2697ff9ba",
            "currentGasLimit": "0x0f4240",
            "currentNumber": "0x01",
            "currentTimestamp": "0x03e8",
            "currentRandom": "0x0000000000000000000000000000000000000000000000000000000000020000",
            "currentDifficulty": "0x00",
            "currentBaseFee": "0x0a",
            "currentExcessBlobGas": "0x00"
        },
        "pre": {
            "0x420e628b25a84d7a2d5afe45e7db84ecb5437149": {
                "nonce": "0x00",
                "balance": "0x0de0b6b3a7640000",
                "code": "0x",
                "storage": {}
            },
            "0xa13135a83db08e8415afe6cb2aae0a4be7bce2c2": {
                "nonce": "0x00",
                "balance": "0x0de0b6b3a7640000",
                "code": "0x60ff60005358585860206000a300",
                "storage": {}
            },
            "0xa13135a83db08e8415afe6cb2aae0a4be7bce3c2": {
                "nonce": "0x00",
                "balance": "0x0de0b6b3a7640000",
                "code": "0x6000600060006000601773a13135a83db08e8415afe6cb2aae0a4be7bce2c26103e8f160005500",
                "storage": {}
            }
        },
        "transaction": {
            "nonce": "0x00",
            "gasPrice": "0x0a",
            "gasLimit": [
                "0x033450"
            ],
            "to": "0xa13135a83db08e8415afe6cb2aae0a4be7bce3c2",
            "value": [
                "0x0186a0"
            ],
            "data": [
                "0x"
            ],
            "sender": "0x420e628b25a84d7a2d5afe45e7db84ecb5437149",
            "secretKey": "0x918f75e76198a1ddeaceb483a13135a83db08e8415afe6cb2aae0a4be7bce2c2"
        },
        "post": {
            "Cancun": [
                {
                    "hash": "0x0520222d555e8e4abca18ed60c2b9b09e009fd37b11d71f49f78ad831bf808d6",
                    "logs": "0x1219fbe7f4e64a7c0ae0fa3003f233e7241de2fe50ea5c69f7813531c4fe7cea",
                    "txbytes": "0xf863800a8303345094a13135a83db08e8415afe6cb2aae0a4be7bce3c2830186a08026a0f727b54c703ba2ed20e42add8cd1d1008737e37e6bd615dc8c9c68e97f860395a04bef7b664d13edcc3ddd32080aa4bba8dceedb689df62e45792a2655a10259af",
                    "indexes": {
                        "data": 0,
                        "gas": 0,
                        "value": 0
                    },
                    "state": {
                        "0x420e628b25a84d7a2d5afe45e7db84ecb5437149": {
                            "nonce": "0x01",
                            "balance": "0x0de0b6b3a75a3408",
                            "code": "0x",
                            "storage": {}
                        },
                        "0xa13135a83db08e8415afe6cb2aae0a4be7bce2c2": {
                            "nonce": "0x00",
                            "balance": "0x0de0b6b3a7640017",
                            "code": "0x60ff60005358585860206000a300",
                            "storage": {}
                        },
                        "0xa13135a83db08e8415afe6cb2aae0a4be7bce3c2": {
                            "nonce": "0x00",
                            "balance": "0x0de0b6b3a7658689",
                            "code": "0x6000600060006000601773a13135a83db08e8415afe6cb2aae0a4be7bce2c26103e8f160005500",
                            "storage": {
                                "0x00": "0x01"
                            }
                        }
                    }
                }
            ]
        },
        "config": {
            "blobSchedule": {
                "Cancun": {
                    "target": "0x03",
                    "max": "0x06",
                    "baseFeeUpdateFraction": "0x32f0ed"
                }
            },
            "chainid": "0x01"
        },
        "_info": {
            "hash": "0x4b0b8742ed598775771541c1facbd14298d4cc5682d01b1299caedf22d71fbb5",
            "comment": "`execution-specs` generated test",
            "filling-transition-tool": "2.18.0rc6",
            "description": "No description available - add a docstring to the python test class or function.",
            "url": "",
            "fixture-format": "state_test"
        }
    },
    "tests/static/state_tests/stLogTests/log3_PCFiller.json::log3_PC[fork_Osaka-state_test-]": {
        "env": {
            "currentCoinbase": "0x2adc25665018aa1fe0e6bc666dac8fc2697ff9ba",
            "currentGasLimit": "0x0f4240",
            "currentNumber": "0x01",
            "currentTimestamp": "0x03e8",
            "currentRandom": "0x0000000000000000000000000000000000000000000000000000000000020000",
            "currentDifficulty": "0x00",
            "currentBaseFee": "0x0a",
            "currentExcessBlobGas": "0x00"
        },
        "pre": {
            "0x420e628b25a84d7a2d5afe45e7db84ecb5437149": {
                "nonce": "0x00",
                "balance": "0x0de0b6b3a7640000",
                "code": "0x",
                "storage": {}
            },
            "0xa13135a83db08e8415afe6cb2aae0a4be7bce2c2": {
                "nonce": "0x00",
                "balance": "0x0de0b6b3a7640000",
                "code": "0x60ff60005358585860206000a300",
                "storage": {}
            },
            "0xa13135a83db08e8415afe6cb2aae0a4be7bce3c2": {
                "nonce": "0x00",
                "balance": "0x0de0b6b3a7640000",
                "code": "0x6000600060006000601773a13135a83db08e8415afe6cb2aae0a4be7bce2c26103e8f160005500",
                "storage": {}
            }
        },
        "transaction": {
            "nonce": "0x00",
            "gasPrice": "0x0a",
            "gasLimit": [
                "0x033450"
            ],
            "to": "0xa13135a83db08e8415afe6cb2aae0a4be7bce3c2",
            "value": [
                "0x0186a0"
            ],
            "data": [
                "0x"
            ],
            "sender": "0x420e628b25a84d7a2d5afe45e7db84ecb5437149",
            "secretKey": "0x918f75e76198a1ddeaceb483a13135a83db08e8415afe6cb2aae0a4be7bce2c2"
        },
        "post": {
            "Osaka": [
                {
                    "hash": "0x0520222d555e8e4abca18ed60c2b9b09e009fd37b11d71f49f78ad831bf808d6",
                    "logs": "0x1219fbe7f4e64a7c0ae0fa3003f233e7241de2fe50ea5c69f7813531c4fe7cea",
                    "txbytes": "0xf863800a8303345094a13135a83db08e8415afe6cb2aae0a4be7bce3c2830186a08026a0f727b54c703ba2ed20e42add8cd1d1008737e37e6bd615dc8c9c68e97f860395a04bef7b664d13edcc3ddd32080aa4bba8dceedb689df62e45792a2655a10259af",
                    "indexes": {
                        "data": 0,
                        "gas": 0,
                        "value": 0
                    },
                    "state": {
                        "0x420e628b25a84d7a2d5afe45e7db84ecb5437149": {
                            "nonce": "0x01",
                            "balance": "0x0de0b6b3a75a3408",
                            "code": "0x",
                            "storage": {}
                        },
                        "0xa13135a83db08e8415afe6cb2aae0a4be7bce2c2": {
                            "nonce": "0x00",
                            "balance": "0x0de0b6b3a7640017",
                            "code": "0x60ff60005358585860206000a300",
                            "storage": {}
                        },
                        "0xa13135a83db08e8415afe6cb2aae0a4be7bce3c2": {
                            "nonce": "0x00",
                            "balance": "0x0de0b6b3a7658689",
                            "code": "0x6000600060006000601773a13135a83db08e8415afe6cb2aae0a4be7bce2c26103e8f160005500",
                            "storage": {
                                "0x00": "0x01"
                            }
                        }
                    }
                }
            ]
        },
        "config": {
            "blobSchedule": {
                "Cancun": {
                    "target": "0x03",
                    "max": "0x06",
                    "baseFeeUpdateFraction": "0x32f0ed"
                },
                "Prague": {
                    "target": "0x06",
                    "max": "0x09",
                    "baseFeeUpdateFraction": "0x4c6964"
                },
                "Osaka": {
                    "target": "0x06",
                    "max": "0x09",
                    "baseFeeUpdateFraction": "0x4c6964"
                }
            },
            "chainid": "0x01"
        },
        "_info": {
            "hash": "0xebf5fc5f094130658ca00e00ad73b0460a5a3f29ae5062edde3deb4bcabc1d3d",
            "comment": "`execution-specs` generated test",
            "filling-transition-tool": "2.18.0rc6",
            "description": "No description available - add a docstring to the python test class or function.",
            "url": "",
            "fixture-format": "state_test"
        }
    },
    "tests/static/state_tests/stLogTests/log3_PCFiller.json::log3_PC[fork_Prague-state_test-]": {
        "env": {
            "currentCoinbase": "0x2adc25665018aa1fe0e6bc666dac8fc2697ff9ba",
            "currentGasLimit": "0x0f4240",
            "currentNumber": "0x01",
            "currentTimestamp": "0x03e8",
            "currentRandom": "0x0000000000000000000000000000000000000000000000000000000000020000",
            "currentDifficulty": "0x00",
            "currentBaseFee": "0x0a",
            "currentExcessBlobGas": "0x00"
        },
        "pre": {
            "0x420e628b25a84d7a2d5afe45e7db84ecb5437149": {
                "nonce": "0x00",
                "balance": "0x0de0b6b3a7640000",
                "code": "0x",
                "storage": {}
            },
            "0xa13135a83db08e8415afe6cb2aae0a4be7bce2c2": {
                "nonce": "0x00",
                "balance": "0x0de0b6b3a7640000",
                "code": "0x60ff60005358585860206000a300",
                "storage": {}
            },
            "0xa13135a83db08e8415afe6cb2aae0a4be7bce3c2": {
                "nonce": "0x00",
                "balance": "0x0de0b6b3a7640000",
                "code": "0x6000600060006000601773a13135a83db08e8415afe6cb2aae0a4be7bce2c26103e8f160005500",
                "storage": {}
            }
        },
        "transaction": {
            "nonce": "0x00",
            "gasPrice": "0x0a",
            "gasLimit": [
                "0x033450"
            ],
            "to": "0xa13135a83db08e8415afe6cb2aae0a4be7bce3c2",
            "value": [
                "0x0186a0"
            ],
            "data": [
                "0x"
            ],
            "sender": "0x420e628b25a84d7a2d5afe45e7db84ecb5437149",
            "secretKey": "0x918f75e76198a1ddeaceb483a13135a83db08e8415afe6cb2aae0a4be7bce2c2"
        },
        "post": {
            "Prague": [
                {
                    "hash": "0x0520222d555e8e4abca18ed60c2b9b09e009fd37b11d71f49f78ad831bf808d6",
                    "logs": "0x1219fbe7f4e64a7c0ae0fa3003f233e7241de2fe50ea5c69f7813531c4fe7cea",
                    "txbytes": "0xf863800a8303345094a13135a83db08e8415afe6cb2aae0a4be7bce3c2830186a08026a0f727b54c703ba2ed20e42add8cd1d1008737e37e6bd615dc8c9c68e97f860395a04bef7b664d13edcc3ddd32080aa4bba8dceedb689df62e45792a2655a10259af",
                    "indexes": {
                        "data": 0,
                        "gas": 0,
                        "value": 0
                    },
                    "state": {
                        "0x420e628b25a84d7a2d5afe45e7db84ecb5437149": {
                            "nonce": "0x01",
                            "balance": "0x0de0b6b3a75a3408",
                            "code": "0x",
                            "storage": {}
                        },
                        "0xa13135a83db08e8415afe6cb2aae0a4be7bce2c2": {
                            "nonce": "0x00",
                            "balance": "0x0de0b6b3a7640017",
                            "code": "0x60ff60005358585860206000a300",
                            "storage": {}
                        },
                        "0xa13135a83db08e8415afe6cb2aae0a4be7bce3c2": {
                            "nonce": "0x00",
                            "balance": "0x0de0b6b3a7658689",
                            "code": "0x6000600060006000601773a13135a83db08e8415afe6cb2aae0a4be7bce2c26103e8f160005500",
                            "storage": {
                                "0x00": "0x01"
                            }
                        }
                    }
                }
            ]
        },
        "config": {
            "blobSchedule": {
                "Cancun": {
                    "target": "0x03",
                    "max": "0x06",
                    "baseFeeUpdateFraction": "0x32f0ed"
                },
                "Prague": {
                    "target": "0x06",
                    "max": "0x09",
                    "baseFeeUpdateFraction": "0x4c6964"
                }
            },
            "chainid": "0x01"
        },
        "_info": {
            "hash": "0x8e17a32525807b6ef539d80c8553ff7a4d9b25a53aea7c4ce5c2e88dd9722bb3",
            "comment": "`execution-specs` generated test",
            "filling-transition-tool": "2.18.0rc6",
            "description": "No description available - add a docstring to the python test class or function.",
            "url": "",
            "fixture-format": "state_test"
        }
    }
}