{
    "tests/static/state_tests/stLogTests/log4_nonEmptyMem_logMemSize1_logMemStart31Filler.json::log4_nonEmptyMem_logMemSize1_logMemStart31[fork_Cancun-state_test-]": {
        "env": {
            "currentCoinbase": "0x2adc25665018aa1fe0e6bc666dac8fc2697ff9ba",
            "currentGasLimit": "0x0f4240",
            "currentNumber": "0x01",
            "currentTimestamp": "0x03e8",
            "currentRandom": "0x0000000000000000000000000000000000000000000000000000000000020000",
            "currentDifficulty": "0x00",
            "currentBaseFee": "0x0a",
            "currentExcessBlobGas": "0x00"
        },
        "pre": {
            "0x689e161f215de2d25c78000aac77a59f8a4165e8": {
                "nonce": "0x00",
                "balance": "0x0de0b6b3a7640000",
                "code": "0x",
                "storage": {}
            },
            "0xc9f6123aa67690811d0712eca2b35f3e4cfedb69": {
                "nonce": "0x00",
                "balance": "0x0de0b6b3a7640000",
                "code": "0x7faabbffffffffffffffffffffffffffffffffffffffffffffffffffffffffccdd60005260006000600060006001601fa400",
                "storage": {}
            },
            "0xc9f6123aa67690811d0712eca2b35f3e4cfedc69": {
                "nonce": "0x00",
                "balance": "0x0de0b6b3a7640000",
                "code": "0x6000600060006000601773c9f6123aa67690811d0712eca2b35f3e4cfedb696103e8f160005500",
                "storage": {}
            }
        },
        "transaction": {
            "nonce": "0x00",
            "gasPrice": "0x0a",
            "gasLimit": [
                "0x033450"
            ],
            "to": "0xc9f6123aa67690811d0712eca2b35f3e4cfedc69",
            "value": [
                "0x0186a0"
            ],
            "data": [
                "0x"
            ],
            "sender": "0x689e161f215de2d25c78000aac77a59f8a4165e8",
            "secretKey": "0x53af3e938ebaeb35a29439b6c9f6123aa67690811d0712eca2b35f3e4cfedb69"
        },
        "post": {
            "Cancun": [
                {
                    "hash": "0x5d365eafb2deefc7798e464638a830b317d54623068a4416881fb3163cb1e226",
                    "logs": "0x110ec899c86d812d4d1292bb3d50aba9289d2e4501845774bda1dc10433b51a3",
                    "txbytes": "0xf863800a8303345094c9f6123aa67690811d0712eca2b35f3e4cfedc69830186a08026a0504fd20a1e135edbec954d95449cad196ec860917a62df078e3f0fb2a7102fbba05a6b4b85c8c702bf521a07a782005af1bb84855f33d1c2392ab3422b548f588b",
                    "indexes": {
                        "data": 0,
                        "gas": 0,
                        "value": 0
                    },
                    "state": {
                        "0x689e161f215de2d25c78000aac77a59f8a4165e8": {
                            "nonce": "0x01",
                            "balance": "0x0de0b6b3a75a2ed6",
                            "code": "0x",
                            "storage": {}
                        },
                        "0xc9f6123aa67690811d0712eca2b35f3e4cfedb69": {
                            "nonce": "0x00",
                            "balance": "0x0de0b6b3a7640017",
                            "code": "0x7faabbffffffffffffffffffffffffffffffffffffffffffffffffffffffffccdd60005260006000600060006001601fa400",
                            "storage": {}
                        },
                        "0xc9f6123aa67690811d0712eca2b35f3e4cfedc69": {
                            "nonce": "0x00",
                            "balance": "0x0de0b6b3a7658689",
                            "code": "0x6000600060006000601773c9f6123aa67690811d0712eca2b35f3e4cfedb696103e8f160005500",
                            "storage": {
                                "0x00": "0x01"
                            }
                        }
                    }
                }
            ]
        },
        "config": {
            "blobSchedule": {
                "Cancun": {
                    "target": "0x03",
                    "max": "0x06",
                    "baseFeeUpdateFraction": "0x32f0ed"
                }
            },
            "chainid": "0x01"
        },
        "_info": {
            "hash": "0xe8d89f23143d62f066765b77d945be063a31506b9466d3716ed8ab7f4095a613",
            "comment": "`execution-spec-tests` generated test",
            "filling-transition-tool": "ethereum-spec-evm-resolver 0.0.5",
            "description": "No description available - add a docstring to the python test class or function.",
            "url": "",
            "fixture-format": "state_test",
            "eels-resolution": {
                "git-url": "https://github.com/marioevz/execution-specs.git",
                "branch": "forks/bpo1",
                "commit": "3387e5f4aedfe99becfdc39b444d6371e25e0924"
            }
        }
    },
    "tests/static/state_tests/stLogTests/log4_nonEmptyMem_logMemSize1_logMemStart31Filler.json::log4_nonEmptyMem_logMemSize1_logMemStart31[fork_Osaka-state_test-]": {
        "env": {
            "currentCoinbase": "0x2adc25665018aa1fe0e6bc666dac8fc2697ff9ba",
            "currentGasLimit": "0x0f4240",
            "currentNumber": "0x01",
            "currentTimestamp": "0x03e8",
            "currentRandom": "0x0000000000000000000000000000000000000000000000000000000000020000",
            "currentDifficulty": "0x00",
            "currentBaseFee": "0x0a",
            "currentExcessBlobGas": "0x00"
        },
        "pre": {
            "0x689e161f215de2d25c78000aac77a59f8a4165e8": {
                "nonce": "0x00",
                "balance": "0x0de0b6b3a7640000",
                "code": "0x",
                "storage": {}
            },
            "0xc9f6123aa67690811d0712eca2b35f3e4cfedb69": {
                "nonce": "0x00",
                "balance": "0x0de0b6b3a7640000",
                "code": "0x7faabbffffffffffffffffffffffffffffffffffffffffffffffffffffffffccdd60005260006000600060006001601fa400",
                "storage": {}
            },
            "0xc9f6123aa67690811d0712eca2b35f3e4cfedc69": {
                "nonce": "0x00",
                "balance": "0x0de0b6b3a7640000",
                "code": "0x6000600060006000601773c9f6123aa67690811d0712eca2b35f3e4cfedb696103e8f160005500",
                "storage": {}
            }
        },
        "transaction": {
            "nonce": "0x00",
            "gasPrice": "0x0a",
            "gasLimit": [
                "0x033450"
            ],
            "to": "0xc9f6123aa67690811d0712eca2b35f3e4cfedc69",
            "value": [
                "0x0186a0"
            ],
            "data": [
                "0x"
            ],
            "sender": "0x689e161f215de2d25c78000aac77a59f8a4165e8",
            "secretKey": "0x53af3e938ebaeb35a29439b6c9f6123aa67690811d0712eca2b35f3e4cfedb69"
        },
        "post": {
            "Osaka": [
                {
                    "hash": "0x5d365eafb2deefc7798e464638a830b317d54623068a4416881fb3163cb1e226",
                    "logs": "0x110ec899c86d812d4d1292bb3d50aba9289d2e4501845774bda1dc10433b51a3",
                    "txbytes": "0xf863800a8303345094c9f6123aa67690811d0712eca2b35f3e4cfedc69830186a08026a0504fd20a1e135edbec954d95449cad196ec860917a62df078e3f0fb2a7102fbba05a6b4b85c8c702bf521a07a782005af1bb84855f33d1c2392ab3422b548f588b",
                    "indexes": {
                        "data": 0,
                        "gas": 0,
                        "value": 0
                    },
                    "state": {
                        "0x689e161f215de2d25c78000aac77a59f8a4165e8": {
                            "nonce": "0x01",
                            "balance": "0x0de0b6b3a75a2ed6",
                            "code": "0x",
                            "storage": {}
                        },
                        "0xc9f6123aa67690811d0712eca2b35f3e4cfedb69": {
                            "nonce": "0x00",
                            "balance": "0x0de0b6b3a7640017",
                            "code": "0x7faabbffffffffffffffffffffffffffffffffffffffffffffffffffffffffccdd60005260006000600060006001601fa400",
                            "storage": {}
                        },
                        "0xc9f6123aa67690811d0712eca2b35f3e4cfedc69": {
                            "nonce": "0x00",
                            "balance": "0x0de0b6b3a7658689",
                            "code": "0x6000600060006000601773c9f6123aa67690811d0712eca2b35f3e4cfedb696103e8f160005500",
                            "storage": {
                                "0x00": "0x01"
                            }
                        }
                    }
                }
            ]
        },
        "config": {
            "blobSchedule": {
                "Cancun": {
                    "target": "0x03",
                    "max": "0x06",
                    "baseFeeUpdateFraction": "0x32f0ed"
                },
                "Prague": {
                    "target": "0x06",
                    "max": "0x09",
                    "baseFeeUpdateFraction": "0x4c6964"
                },
                "Osaka": {
                    "target": "0x06",
                    "max": "0x09",
                    "baseFeeUpdateFraction": "0x4c6964"
                }
            },
            "chainid": "0x01"
        },
        "_info": {
            "hash": "0x5ee4b452e4c08adedb204182df72864c9e1f27ad210c70c038ccd1ecbf3fa880",
            "comment": "`execution-spec-tests` generated test",
            "filling-transition-tool": "ethereum-spec-evm-resolver 0.0.5",
            "description": "No description available - add a docstring to the python test class or function.",
            "url": "",
            "fixture-format": "state_test",
            "eels-resolution": {
                "git-url": "https://github.com/marioevz/execution-specs.git",
                "branch": "forks/bpo1",
                "commit": "3387e5f4aedfe99becfdc39b444d6371e25e0924"
            }
        }
    },
    "tests/static/state_tests/stLogTests/log4_nonEmptyMem_logMemSize1_logMemStart31Filler.json::log4_nonEmptyMem_logMemSize1_logMemStart31[fork_Prague-state_test-]": {
        "env": {
            "currentCoinbase": "0x2adc25665018aa1fe0e6bc666dac8fc2697ff9ba",
            "currentGasLimit": "0x0f4240",
            "currentNumber": "0x01",
            "currentTimestamp": "0x03e8",
            "currentRandom": "0x0000000000000000000000000000000000000000000000000000000000020000",
            "currentDifficulty": "0x00",
            "currentBaseFee": "0x0a",
            "currentExcessBlobGas": "0x00"
        },
        "pre": {
            "0x689e161f215de2d25c78000aac77a59f8a4165e8": {
                "nonce": "0x00",
                "balance": "0x0de0b6b3a7640000",
                "code": "0x",
                "storage": {}
            },
            "0xc9f6123aa67690811d0712eca2b35f3e4cfedb69": {
                "nonce": "0x00",
                "balance": "0x0de0b6b3a7640000",
                "code": "0x7faabbffffffffffffffffffffffffffffffffffffffffffffffffffffffffccdd60005260006000600060006001601fa400",
                "storage": {}
            },
            "0xc9f6123aa67690811d0712eca2b35f3e4cfedc69": {
                "nonce": "0x00",
                "balance": "0x0de0b6b3a7640000",
                "code": "0x6000600060006000601773c9f6123aa67690811d0712eca2b35f3e4cfedb696103e8f160005500",
                "storage": {}
            }
        },
        "transaction": {
            "nonce": "0x00",
            "gasPrice": "0x0a",
            "gasLimit": [
                "0x033450"
            ],
            "to": "0xc9f6123aa67690811d0712eca2b35f3e4cfedc69",
            "value": [
                "0x0186a0"
            ],
            "data": [
                "0x"
            ],
            "sender": "0x689e161f215de2d25c78000aac77a59f8a4165e8",
            "secretKey": "0x53af3e938ebaeb35a29439b6c9f6123aa67690811d0712eca2b35f3e4cfedb69"
        },
        "post": {
            "Prague": [
                {
                    "hash": "0x5d365eafb2deefc7798e464638a830b317d54623068a4416881fb3163cb1e226",
                    "logs": "0x110ec899c86d812d4d1292bb3d50aba9289d2e4501845774bda1dc10433b51a3",
                    "txbytes": "0xf863800a8303345094c9f6123aa67690811d0712eca2b35f3e4cfedc69830186a08026a0504fd20a1e135edbec954d95449cad196ec860917a62df078e3f0fb2a7102fbba05a6b4b85c8c702bf521a07a782005af1bb84855f33d1c2392ab3422b548f588b",
                    "indexes": {
                        "data": 0,
                        "gas": 0,
                        "value": 0
                    },
                    "state": {
                        "0x689e161f215de2d25c78000aac77a59f8a4165e8": {
                            "nonce": "0x01",
                            "balance": "0x0de0b6b3a75a2ed6",
                            "code": "0x",
                            "storage": {}
                        },
                        "0xc9f6123aa67690811d0712eca2b35f3e4cfedb69": {
                            "nonce": "0x00",
                            "balance": "0x0de0b6b3a7640017",
                            "code": "0x7faabbffffffffffffffffffffffffffffffffffffffffffffffffffffffffccdd60005260006000600060006001601fa400",
                            "storage": {}
                        },
                        "0xc9f6123aa67690811d0712eca2b35f3e4cfedc69": {
                            "nonce": "0x00",
                            "balance": "0x0de0b6b3a7658689",
                            "code": "0x6000600060006000601773c9f6123aa67690811d0712eca2b35f3e4cfedb696103e8f160005500",
                            "storage": {
                                "0x00": "0x01"
                            }
                        }
                    }
                }
            ]
        },
        "config": {
            "blobSchedule": {
                "Cancun": {
                    "target": "0x03",
                    "max": "0x06",
                    "baseFeeUpdateFraction": "0x32f0ed"
                },
                "Prague": {
                    "target": "0x06",
                    "max": "0x09",
                    "baseFeeUpdateFraction": "0x4c6964"
                }
            },
            "chainid": "0x01"
        },
        "_info": {
            "hash": "0x2ed0d9816d90d147962f9ee6ce68753c8ec201cf281d543ecc7f783ea868c267",
            "comment": "`execution-spec-tests` generated test",
            "filling-transition-tool": "ethereum-spec-evm-resolver 0.0.5",
            "description": "No description available - add a docstring to the python test class or function.",
            "url": "",
            "fixture-format": "state_test",
            "eels-resolution": {
                "git-url": "https://github.com/marioevz/execution-specs.git",
                "branch": "forks/bpo1",
                "commit": "3387e5f4aedfe99becfdc39b444d6371e25e0924"
            }
        }
    }
}