{
    "tests/static/state_tests/stLogTests/log4_nonEmptyMemFiller.json::log4_nonEmptyMem[fork_Cancun-state_test-]": {
        "env": {
            "currentCoinbase": "0x2adc25665018aa1fe0e6bc666dac8fc2697ff9ba",
            "currentGasLimit": "0x0f4240",
            "currentNumber": "0x01",
            "currentTimestamp": "0x03e8",
            "currentRandom": "0x0000000000000000000000000000000000000000000000000000000000020000",
            "currentDifficulty": "0x00",
            "currentBaseFee": "0x0a",
            "currentExcessBlobGas": "0x00"
        },
        "pre": {
            "0xaa9eb528cfea6c1241ebdadacc31543e9f6f2f5d": {
                "nonce": "0x00",
                "balance": "0x0de0b6b3a7640000",
                "code": "0x",
                "storage": {}
            },
            "0xe1ce5ab699e7a2e75d9e12d1531da9022169f4e1": {
                "nonce": "0x00",
                "balance": "0x0de0b6b3a7640000",
                "code": "0x7fffffffffffffffffffffffffffffffffffffffffffffffffffffffffffffffff600052600060006000600060206000a400",
                "storage": {}
            },
            "0xe1ce5ab699e7a2e75d9e12d1531da9022169f5e1": {
                "nonce": "0x00",
                "balance": "0x0de0b6b3a7640000",
                "code": "0x6000600060006000601773e1ce5ab699e7a2e75d9e12d1531da9022169f4e16103e8f160005500",
                "storage": {}
            }
        },
        "transaction": {
            "nonce": "0x00",
            "gasPrice": "0x0a",
            "gasLimit": [
                "0x033450"
            ],
            "to": "0xe1ce5ab699e7a2e75d9e12d1531da9022169f5e1",
            "value": [
                "0x0186a0"
            ],
            "data": [
                "0x"
            ],
            "sender": "0xaa9eb528cfea6c1241ebdadacc31543e9f6f2f5d",
            "secretKey": "0xae93f5a51901e2a44e8e4df3e1ce5ab699e7a2e75d9e12d1531da9022169f4e1"
        },
        "post": {
            "Cancun": [
                {
                    "hash": "0x6efcf2c2b3ecd114df5942baca3b49d80172f5d0d470807996c763b95569c22f",
                    "logs": "0xcab23b943cb7a90b4d851f4338f37ac78b2edef5a82ae688ebf2705ffc8a0976",
                    "txbytes": "0xf863800a8303345094e1ce5ab699e7a2e75d9e12d1531da9022169f5e1830186a08026a04b00caaad315f67a57e3e1b9c35b34ca98aea0f7154679a50dbedf19ba022ab0a007dbba94adbae7218cc37e5c2609201de26eba714174c564a229ae785498d147",
                    "indexes": {
                        "data": 0,
                        "gas": 0,
                        "value": 0
                    },
                    "state": {
                        "0xaa9eb528cfea6c1241ebdadacc31543e9f6f2f5d": {
                            "nonce": "0x01",
                            "balance": "0x0de0b6b3a75a2526",
                            "code": "0x",
                            "storage": {}
                        },
                        "0xe1ce5ab699e7a2e75d9e12d1531da9022169f4e1": {
                            "nonce": "0x00",
                            "balance": "0x0de0b6b3a7640017",
                            "code": "0x7fffffffffffffffffffffffffffffffffffffffffffffffffffffffffffffffff600052600060006000600060206000a400",
                            "storage": {}
                        },
                        "0xe1ce5ab699e7a2e75d9e12d1531da9022169f5e1": {
                            "nonce": "0x00",
                            "balance": "0x0de0b6b3a7658689",
                            "code": "0x6000600060006000601773e1ce5ab699e7a2e75d9e12d1531da9022169f4e16103e8f160005500",
                            "storage": {
                                "0x00": "0x01"
                            }
                        }
                    }
                }
            ]
        },
        "config": {
            "blobSchedule": {
                "Cancun": {
                    "target": "0x03",
                    "max": "0x06",
                    "baseFeeUpdateFraction": "0x32f0ed"
                }
            },
            "chainid": "0x01"
        },
        "_info": {
            "hash": "0x4c20af09b9581f4fd0e15425535c8bbd452d9bfdaa90230477ea7598d0c0428b",
            "comment": "`execution-spec-tests` generated test",
            "filling-transition-tool": "ethereum-spec-evm-resolver 0.0.5",
            "description": "No description available - add a docstring to the python test class or function.",
            "url": "",
            "fixture-format": "state_test",
            "eels-resolution": {
                "git-url": "https://github.com/ethereum/execution-specs.git",
                "branch": "forks/bpos",
                "commit": "7aacb2c54111391af5e98c505d5010b5698a770f"
            }
        }
    },
    "tests/static/state_tests/stLogTests/log4_nonEmptyMemFiller.json::log4_nonEmptyMem[fork_Osaka-state_test-]": {
        "env": {
            "currentCoinbase": "0x2adc25665018aa1fe0e6bc666dac8fc2697ff9ba",
            "currentGasLimit": "0x0f4240",
            "currentNumber": "0x01",
            "currentTimestamp": "0x03e8",
            "currentRandom": "0x0000000000000000000000000000000000000000000000000000000000020000",
            "currentDifficulty": "0x00",
            "currentBaseFee": "0x0a",
            "currentExcessBlobGas": "0x00"
        },
        "pre": {
            "0xaa9eb528cfea6c1241ebdadacc31543e9f6f2f5d": {
                "nonce": "0x00",
                "balance": "0x0de0b6b3a7640000",
                "code": "0x",
                "storage": {}
            },
            "0xe1ce5ab699e7a2e75d9e12d1531da9022169f4e1": {
                "nonce": "0x00",
                "balance": "0x0de0b6b3a7640000",
                "code": "0x7fffffffffffffffffffffffffffffffffffffffffffffffffffffffffffffffff600052600060006000600060206000a400",
                "storage": {}
            },
            "0xe1ce5ab699e7a2e75d9e12d1531da9022169f5e1": {
                "nonce": "0x00",
                "balance": "0x0de0b6b3a7640000",
                "code": "0x6000600060006000601773e1ce5ab699e7a2e75d9e12d1531da9022169f4e16103e8f160005500",
                "storage": {}
            }
        },
        "transaction": {
            "nonce": "0x00",
            "gasPrice": "0x0a",
            "gasLimit": [
                "0x033450"
            ],
            "to": "0xe1ce5ab699e7a2e75d9e12d1531da9022169f5e1",
            "value": [
                "0x0186a0"
            ],
            "data": [
                "0x"
            ],
            "sender": "0xaa9eb528cfea6c1241ebdadacc31543e9f6f2f5d",
            "secretKey": "0xae93f5a51901e2a44e8e4df3e1ce5ab699e7a2e75d9e12d1531da9022169f4e1"
        },
        "post": {
            "Osaka": [
                {
                    "hash": "0x6efcf2c2b3ecd114df5942baca3b49d80172f5d0d470807996c763b95569c22f",
                    "logs": "0xcab23b943cb7a90b4d851f4338f37ac78b2edef5a82ae688ebf2705ffc8a0976",
                    "txbytes": "0xf863800a8303345094e1ce5ab699e7a2e75d9e12d1531da9022169f5e1830186a08026a04b00caaad315f67a57e3e1b9c35b34ca98aea0f7154679a50dbedf19ba022ab0a007dbba94adbae7218cc37e5c2609201de26eba714174c564a229ae785498d147",
                    "indexes": {
                        "data": 0,
                        "gas": 0,
                        "value": 0
                    },
                    "state": {
                        "0xaa9eb528cfea6c1241ebdadacc31543e9f6f2f5d": {
                            "nonce": "0x01",
                            "balance": "0x0de0b6b3a75a2526",
                            "code": "0x",
                            "storage": {}
                        },
                        "0xe1ce5ab699e7a2e75d9e12d1531da9022169f4e1": {
                            "nonce": "0x00",
                            "balance": "0x0de0b6b3a7640017",
                            "code": "0x7fffffffffffffffffffffffffffffffffffffffffffffffffffffffffffffffff600052600060006000600060206000a400",
                            "storage": {}
                        },
                        "0xe1ce5ab699e7a2e75d9e12d1531da9022169f5e1": {
                            "nonce": "0x00",
                            "balance": "0x0de0b6b3a7658689",
                            "code": "0x6000600060006000601773e1ce5ab699e7a2e75d9e12d1531da9022169f4e16103e8f160005500",
                            "storage": {
                                "0x00": "0x01"
                            }
                        }
                    }
                }
            ]
        },
        "config": {
            "blobSchedule": {
                "Cancun": {
                    "target": "0x03",
                    "max": "0x06",
                    "baseFeeUpdateFraction": "0x32f0ed"
                },
                "Prague": {
                    "target": "0x06",
                    "max": "0x09",
                    "baseFeeUpdateFraction": "0x4c6964"
                },
                "Osaka": {
                    "target": "0x06",
                    "max": "0x09",
                    "baseFeeUpdateFraction": "0x4c6964"
                }
            },
            "chainid": "0x01"
        },
        "_info": {
            "hash": "0x4dbe7417db1827c6f25e64db79908392e9cae05c49d8104c60f6f8235b8a7f29",
            "comment": "`execution-spec-tests` generated test",
            "filling-transition-tool": "ethereum-spec-evm-resolver 0.0.5",
            "description": "No description available - add a docstring to the python test class or function.",
            "url": "",
            "fixture-format": "state_test",
            "eels-resolution": {
                "git-url": "https://github.com/ethereum/execution-specs.git",
                "branch": "forks/bpos",
                "commit": "7aacb2c54111391af5e98c505d5010b5698a770f"
            }
        }
    },
    "tests/static/state_tests/stLogTests/log4_nonEmptyMemFiller.json::log4_nonEmptyMem[fork_Prague-state_test-]": {
        "env": {
            "currentCoinbase": "0x2adc25665018aa1fe0e6bc666dac8fc2697ff9ba",
            "currentGasLimit": "0x0f4240",
            "currentNumber": "0x01",
            "currentTimestamp": "0x03e8",
            "currentRandom": "0x0000000000000000000000000000000000000000000000000000000000020000",
            "currentDifficulty": "0x00",
            "currentBaseFee": "0x0a",
            "currentExcessBlobGas": "0x00"
        },
        "pre": {
            "0xaa9eb528cfea6c1241ebdadacc31543e9f6f2f5d": {
                "nonce": "0x00",
                "balance": "0x0de0b6b3a7640000",
                "code": "0x",
                "storage": {}
            },
            "0xe1ce5ab699e7a2e75d9e12d1531da9022169f4e1": {
                "nonce": "0x00",
                "balance": "0x0de0b6b3a7640000",
                "code": "0x7fffffffffffffffffffffffffffffffffffffffffffffffffffffffffffffffff600052600060006000600060206000a400",
                "storage": {}
            },
            "0xe1ce5ab699e7a2e75d9e12d1531da9022169f5e1": {
                "nonce": "0x00",
                "balance": "0x0de0b6b3a7640000",
                "code": "0x6000600060006000601773e1ce5ab699e7a2e75d9e12d1531da9022169f4e16103e8f160005500",
                "storage": {}
            }
        },
        "transaction": {
            "nonce": "0x00",
            "gasPrice": "0x0a",
            "gasLimit": [
                "0x033450"
            ],
            "to": "0xe1ce5ab699e7a2e75d9e12d1531da9022169f5e1",
            "value": [
                "0x0186a0"
            ],
            "data": [
                "0x"
            ],
            "sender": "0xaa9eb528cfea6c1241ebdadacc31543e9f6f2f5d",
            "secretKey": "0xae93f5a51901e2a44e8e4df3e1ce5ab699e7a2e75d9e12d1531da9022169f4e1"
        },
        "post": {
            "Prague": [
                {
                    "hash": "0x6efcf2c2b3ecd114df5942baca3b49d80172f5d0d470807996c763b95569c22f",
                    "logs": "0xcab23b943cb7a90b4d851f4338f37ac78b2edef5a82ae688ebf2705ffc8a0976",
                    "txbytes": "0xf863800a8303345094e1ce5ab699e7a2e75d9e12d1531da9022169f5e1830186a08026a04b00caaad315f67a57e3e1b9c35b34ca98aea0f7154679a50dbedf19ba022ab0a007dbba94adbae7218cc37e5c2609201de26eba714174c564a229ae785498d147",
                    "indexes": {
                        "data": 0,
                        "gas": 0,
                        "value": 0
                    },
                    "state": {
                        "0xaa9eb528cfea6c1241ebdadacc31543e9f6f2f5d": {
                            "nonce": "0x01",
                            "balance": "0x0de0b6b3a75a2526",
                            "code": "0x",
                            "storage": {}
                        },
                        "0xe1ce5ab699e7a2e75d9e12d1531da9022169f4e1": {
                            "nonce": "0x00",
                            "balance": "0x0de0b6b3a7640017",
                            "code": "0x7fffffffffffffffffffffffffffffffffffffffffffffffffffffffffffffffff600052600060006000600060206000a400",
                            "storage": {}
                        },
                        "0xe1ce5ab699e7a2e75d9e12d1531da9022169f5e1": {
                            "nonce": "0x00",
                            "balance": "0x0de0b6b3a7658689",
                            "code": "0x6000600060006000601773e1ce5ab699e7a2e75d9e12d1531da9022169f4e16103e8f160005500",
                            "storage": {
                                "0x00": "0x01"
                            }
                        }
                    }
                }
            ]
        },
        "config": {
            "blobSchedule": {
                "Cancun": {
                    "target": "0x03",
                    "max": "0x06",
                    "baseFeeUpdateFraction": "0x32f0ed"
                },
                "Prague": {
                    "target": "0x06",
                    "max": "0x09",
                    "baseFeeUpdateFraction": "0x4c6964"
                }
            },
            "chainid": "0x01"
        },
        "_info": {
            "hash": "0x06c03721cecc4af383de4f59cb7c03d10f8cb394ff16ccd394e737e7feb13677",
            "comment": "`execution-spec-tests` generated test",
            "filling-transition-tool": "ethereum-spec-evm-resolver 0.0.5",
            "description": "No description available - add a docstring to the python test class or function.",
            "url": "",
            "fixture-format": "state_test",
            "eels-resolution": {
                "git-url": "https://github.com/ethereum/execution-specs.git",
                "branch": "forks/bpos",
                "commit": "7aacb2c54111391af5e98c505d5010b5698a770f"
            }
        }
    }
}