{
    "tests/static/state_tests/stLogTests/logInOOG_CallFiller.json::logInOOG_Call[fork_Cancun-state_test-]": {
        "env": {
            "currentCoinbase": "0x2adc25665018aa1fe0e6bc666dac8fc2697ff9ba",
            "currentGasLimit": "0x0f4240",
            "currentNumber": "0x01",
            "currentTimestamp": "0x03e8",
            "currentRandom": "0x0000000000000000000000000000000000000000000000000000000000020000",
            "currentDifficulty": "0x00",
            "currentBaseFee": "0x0a",
            "currentExcessBlobGas": "0x00"
        },
        "pre": {
            "0x2c52b7f5996cc37724a7603898aaa46994d0bd0a": {
                "nonce": "0x00",
                "balance": "0x0de0b6b3a7640000",
                "code": "0x",
                "storage": {}
            },
            "0xea20b7ba04599a19a694b2888e9922d0ce8fe2a5": {
                "nonce": "0x00",
                "balance": "0x0de0b6b3a7640000",
                "code": "0x60206000a067ffffffffffffffff5100",
                "storage": {}
            },
            "0xea20b7ba04599a19a694b2888e9922d0ce8fe3a5": {
                "nonce": "0x00",
                "balance": "0x0de0b6b3a7640000",
                "code": "0x6000600060006000601773ea20b7ba04599a19a694b2888e9922d0ce8fe2a5620186a0f160005500",
                "storage": {}
            }
        },
        "transaction": {
            "nonce": "0x00",
            "gasPrice": "0x0a",
            "gasLimit": [
                "0x033450"
            ],
            "to": "0xea20b7ba04599a19a694b2888e9922d0ce8fe3a5",
            "value": [
                "0x0186a0"
            ],
            "data": [
                "0x"
            ],
            "sender": "0x2c52b7f5996cc37724a7603898aaa46994d0bd0a",
            "secretKey": "0x7560a3b8f0005479a6fff76bea20b7ba04599a19a694b2888e9922d0ce8fe2a5"
        },
        "post": {
            "Cancun": [
                {
                    "hash": "0x8a02e95848176b5727160e889d22a6bc5ae6a3eefe5ad9b9b42f4d345eea3e3e",
                    "logs": "0x1dcc4de8dec75d7aab85b567b6ccd41ad312451b948a7413f0a142fd40d49347",
                    "txbytes": "0xf862800a8303345094ea20b7ba04599a19a694b2888e9922d0ce8fe3a5830186a080259ffb1c1bd49e40265eeb0d6afb58f30a7cf653d8739888d774ec90b2b8e487c3a03d2490dd19e1541ae05dcc599ba4e949d8befdc13729bebd5aae413bf8be25f7",
                    "indexes": {
                        "data": 0,
                        "gas": 0,
                        "value": 0
                    },
                    "state": {
                        "0x2c52b7f5996cc37724a7603898aaa46994d0bd0a": {
                            "nonce": "0x01",
                            "balance": "0x0de0b6b3a74de6d0",
                            "code": "0x",
                            "storage": {}
                        },
                        "0xea20b7ba04599a19a694b2888e9922d0ce8fe2a5": {
                            "nonce": "0x00",
                            "balance": "0x0de0b6b3a7640000",
                            "code": "0x60206000a067ffffffffffffffff5100",
                            "storage": {}
                        },
                        "0xea20b7ba04599a19a694b2888e9922d0ce8fe3a5": {
                            "nonce": "0x00",
                            "balance": "0x0de0b6b3a76586a0",
                            "code": "0x6000600060006000601773ea20b7ba04599a19a694b2888e9922d0ce8fe2a5620186a0f160005500",
                            "storage": {}
                        }
                    }
                }
            ]
        },
        "config": {
            "blobSchedule": {
                "Cancun": {
                    "target": "0x03",
                    "max": "0x06",
                    "baseFeeUpdateFraction": "0x32f0ed"
                }
            },
            "chainid": "0x01"
        },
        "_info": {
            "hash": "0x2ab8a1dc7e169243b583e3a130c9e927338137fc24d953c5642c8efdf505e449",
            "comment": "`execution-spec-tests` generated test",
            "filling-transition-tool": "ethereum-spec-evm-resolver 0.0.5",
            "description": "No description available - add a docstring to the python test class or function.",
            "url": "",
            "fixture-format": "state_test",
            "eels-resolution": {
                "git-url": "https://github.com/ethereum/execution-specs.git",
                "branch": "forks/bpos",
                "commit": "7aacb2c54111391af5e98c505d5010b5698a770f"
            }
        }
    },
    "tests/static/state_tests/stLogTests/logInOOG_CallFiller.json::logInOOG_Call[fork_Osaka-state_test-]": {
        "env": {
            "currentCoinbase": "0x2adc25665018aa1fe0e6bc666dac8fc2697ff9ba",
            "currentGasLimit": "0x0f4240",
            "currentNumber": "0x01",
            "currentTimestamp": "0x03e8",
            "currentRandom": "0x0000000000000000000000000000000000000000000000000000000000020000",
            "currentDifficulty": "0x00",
            "currentBaseFee": "0x0a",
            "currentExcessBlobGas": "0x00"
        },
        "pre": {
            "0x2c52b7f5996cc37724a7603898aaa46994d0bd0a": {
                "nonce": "0x00",
                "balance": "0x0de0b6b3a7640000",
                "code": "0x",
                "storage": {}
            },
            "0xea20b7ba04599a19a694b2888e9922d0ce8fe2a5": {
                "nonce": "0x00",
                "balance": "0x0de0b6b3a7640000",
                "code": "0x60206000a067ffffffffffffffff5100",
                "storage": {}
            },
            "0xea20b7ba04599a19a694b2888e9922d0ce8fe3a5": {
                "nonce": "0x00",
                "balance": "0x0de0b6b3a7640000",
                "code": "0x6000600060006000601773ea20b7ba04599a19a694b2888e9922d0ce8fe2a5620186a0f160005500",
                "storage": {}
            }
        },
        "transaction": {
            "nonce": "0x00",
            "gasPrice": "0x0a",
            "gasLimit": [
                "0x033450"
            ],
            "to": "0xea20b7ba04599a19a694b2888e9922d0ce8fe3a5",
            "value": [
                "0x0186a0"
            ],
            "data": [
                "0x"
            ],
            "sender": "0x2c52b7f5996cc37724a7603898aaa46994d0bd0a",
            "secretKey": "0x7560a3b8f0005479a6fff76bea20b7ba04599a19a694b2888e9922d0ce8fe2a5"
        },
        "post": {
            "Osaka": [
                {
                    "hash": "0x8a02e95848176b5727160e889d22a6bc5ae6a3eefe5ad9b9b42f4d345eea3e3e",
                    "logs": "0x1dcc4de8dec75d7aab85b567b6ccd41ad312451b948a7413f0a142fd40d49347",
                    "txbytes": "0xf862800a8303345094ea20b7ba04599a19a694b2888e9922d0ce8fe3a5830186a080259ffb1c1bd49e40265eeb0d6afb58f30a7cf653d8739888d774ec90b2b8e487c3a03d2490dd19e1541ae05dcc599ba4e949d8befdc13729bebd5aae413bf8be25f7",
                    "indexes": {
                        "data": 0,
                        "gas": 0,
                        "value": 0
                    },
                    "state": {
                        "0x2c52b7f5996cc37724a7603898aaa46994d0bd0a": {
                            "nonce": "0x01",
                            "balance": "0x0de0b6b3a74de6d0",
                            "code": "0x",
                            "storage": {}
                        },
                        "0xea20b7ba04599a19a694b2888e9922d0ce8fe2a5": {
                            "nonce": "0x00",
                            "balance": "0x0de0b6b3a7640000",
                            "code": "0x60206000a067ffffffffffffffff5100",
                            "storage": {}
                        },
                        "0xea20b7ba04599a19a694b2888e9922d0ce8fe3a5": {
                            "nonce": "0x00",
                            "balance": "0x0de0b6b3a76586a0",
                            "code": "0x6000600060006000601773ea20b7ba04599a19a694b2888e9922d0ce8fe2a5620186a0f160005500",
                            "storage": {}
                        }
                    }
                }
            ]
        },
        "config": {
            "blobSchedule": {
                "Cancun": {
                    "target": "0x03",
                    "max": "0x06",
                    "baseFeeUpdateFraction": "0x32f0ed"
                },
                "Prague": {
                    "target": "0x06",
                    "max": "0x09",
                    "baseFeeUpdateFraction": "0x4c6964"
                },
                "Osaka": {
                    "target": "0x06",
                    "max": "0x09",
                    "baseFeeUpdateFraction": "0x4c6964"
                }
            },
            "chainid": "0x01"
        },
        "_info": {
            "hash": "0x8ca2072433e272f2ca4370cac82a681e635b4e753fe543f297c43168235ffb7b",
            "comment": "`execution-spec-tests` generated test",
            "filling-transition-tool": "ethereum-spec-evm-resolver 0.0.5",
            "description": "No description available - add a docstring to the python test class or function.",
            "url": "",
            "fixture-format": "state_test",
            "eels-resolution": {
                "git-url": "https://github.com/ethereum/execution-specs.git",
                "branch": "forks/bpos",
                "commit": "7aacb2c54111391af5e98c505d5010b5698a770f"
            }
        }
    },
    "tests/static/state_tests/stLogTests/logInOOG_CallFiller.json::logInOOG_Call[fork_Prague-state_test-]": {
        "env": {
            "currentCoinbase": "0x2adc25665018aa1fe0e6bc666dac8fc2697ff9ba",
            "currentGasLimit": "0x0f4240",
            "currentNumber": "0x01",
            "currentTimestamp": "0x03e8",
            "currentRandom": "0x0000000000000000000000000000000000000000000000000000000000020000",
            "currentDifficulty": "0x00",
            "currentBaseFee": "0x0a",
            "currentExcessBlobGas": "0x00"
        },
        "pre": {
            "0x2c52b7f5996cc37724a7603898aaa46994d0bd0a": {
                "nonce": "0x00",
                "balance": "0x0de0b6b3a7640000",
                "code": "0x",
                "storage": {}
            },
            "0xea20b7ba04599a19a694b2888e9922d0ce8fe2a5": {
                "nonce": "0x00",
                "balance": "0x0de0b6b3a7640000",
                "code": "0x60206000a067ffffffffffffffff5100",
                "storage": {}
            },
            "0xea20b7ba04599a19a694b2888e9922d0ce8fe3a5": {
                "nonce": "0x00",
                "balance": "0x0de0b6b3a7640000",
                "code": "0x6000600060006000601773ea20b7ba04599a19a694b2888e9922d0ce8fe2a5620186a0f160005500",
                "storage": {}
            }
        },
        "transaction": {
            "nonce": "0x00",
            "gasPrice": "0x0a",
            "gasLimit": [
                "0x033450"
            ],
            "to": "0xea20b7ba04599a19a694b2888e9922d0ce8fe3a5",
            "value": [
                "0x0186a0"
            ],
            "data": [
                "0x"
            ],
            "sender": "0x2c52b7f5996cc37724a7603898aaa46994d0bd0a",
            "secretKey": "0x7560a3b8f0005479a6fff76bea20b7ba04599a19a694b2888e9922d0ce8fe2a5"
        },
        "post": {
            "Prague": [
                {
                    "hash": "0x8a02e95848176b5727160e889d22a6bc5ae6a3eefe5ad9b9b42f4d345eea3e3e",
                    "logs": "0x1dcc4de8dec75d7aab85b567b6ccd41ad312451b948a7413f0a142fd40d49347",
                    "txbytes": "0xf862800a8303345094ea20b7ba04599a19a694b2888e9922d0ce8fe3a5830186a080259ffb1c1bd49e40265eeb0d6afb58f30a7cf653d8739888d774ec90b2b8e487c3a03d2490dd19e1541ae05dcc599ba4e949d8befdc13729bebd5aae413bf8be25f7",
                    "indexes": {
                        "data": 0,
                        "gas": 0,
                        "value": 0
                    },
                    "state": {
                        "0x2c52b7f5996cc37724a7603898aaa46994d0bd0a": {
                            "nonce": "0x01",
                            "balance": "0x0de0b6b3a74de6d0",
                            "code": "0x",
                            "storage": {}
                        },
                        "0xea20b7ba04599a19a694b2888e9922d0ce8fe2a5": {
                            "nonce": "0x00",
                            "balance": "0x0de0b6b3a7640000",
                            "code": "0x60206000a067ffffffffffffffff5100",
                            "storage": {}
                        },
                        "0xea20b7ba04599a19a694b2888e9922d0ce8fe3a5": {
                            "nonce": "0x00",
                            "balance": "0x0de0b6b3a76586a0",
                            "code": "0x6000600060006000601773ea20b7ba04599a19a694b2888e9922d0ce8fe2a5620186a0f160005500",
                            "storage": {}
                        }
                    }
                }
            ]
        },
        "config": {
            "blobSchedule": {
                "Cancun": {
                    "target": "0x03",
                    "max": "0x06",
                    "baseFeeUpdateFraction": "0x32f0ed"
                },
                "Prague": {
                    "target": "0x06",
                    "max": "0x09",
                    "baseFeeUpdateFraction": "0x4c6964"
                }
            },
            "chainid": "0x01"
        },
        "_info": {
            "hash": "0x8fc79964a072a39ca8db2d776c3ce30db56256a1991e91285ed5baf71cbcb856",
            "comment": "`execution-spec-tests` generated test",
            "filling-transition-tool": "ethereum-spec-evm-resolver 0.0.5",
            "description": "No description available - add a docstring to the python test class or function.",
            "url": "",
            "fixture-format": "state_test",
            "eels-resolution": {
                "git-url": "https://github.com/ethereum/execution-specs.git",
                "branch": "forks/bpos",
                "commit": "7aacb2c54111391af5e98c505d5010b5698a770f"
            }
        }
    }
}