{
    "tests/berlin/eip2929_gas_cost_increases/test_create.py::test_create_insufficient_balance[fork_Berlin-blockchain_test_from_state_test-CREATE2]": {
        "network": "Berlin",
        "genesisBlockHeader": {
            "parentHash": "0x0000000000000000000000000000000000000000000000000000000000000000",
            "uncleHash": "0x1dcc4de8dec75d7aab85b567b6ccd41ad312451b948a7413f0a142fd40d49347",
            "coinbase": "0x0000000000000000000000000000000000000000",
            "stateRoot": "0x3687b4bcbb2a2b19b75259009533c37dfaf696d65a29d8000f64e29183627938",
            "transactionsTrie": "0x56e81f171bcc55a6ff8345e692c0f86e5b48e01b996cadc001622fb5e363b421",
            "receiptTrie": "0x56e81f171bcc55a6ff8345e692c0f86e5b48e01b996cadc001622fb5e363b421",
            "bloom": "0x00000000000000000000000000000000000000000000000000000000000000000000000000000000000000000000000000000000000000000000000000000000000000000000000000000000000000000000000000000000000000000000000000000000000000000000000000000000000000000000000000000000000000000000000000000000000000000000000000000000000000000000000000000000000000000000000000000000000000000000000000000000000000000000000000000000000000000000000000000000000000000000000000000000000000000000000000000000000000000000000000000000000000000000000000000000",
            "difficulty": "0x020000",
            "number": "0x00",
            "gasLimit": "0x07270e00",
            "gasUsed": "0x00",
            "timestamp": "0x00",
            "extraData": "0x00",
            "mixHash": "0x0000000000000000000000000000000000000000000000000000000000000000",
            "nonce": "0x0000000000000000",
            "hash": "0x0a2cb797bccc9eed7b4beda95e090082cdc8f56d8beb2b11c034ccec9cccbb7a"
        },
        "pre": {
            "0x1cd139edc4a3f7538ace6ee7bc9d34099b9842bb": {
                "nonce": "0x01",
                "balance": "0x00",
                "code": "0x7f00000000000000000000000000000000000000000000000000000000000000006000526000600160006001f5600055",
                "storage": {
                    "0x00": "0x01"
                }
            },
            "0x336c3f27e9265c676fcd3a35c43f3581ad290165": {
                "nonce": "0x01",
                "balance": "0x00",
                "code": "0x5a739b0bf31a942d60d4e77366142971b5e556f0839c315a9050900360005a5a900301900360015500",
                "storage": {}
            },
            "0x52967ce59bfce75864464b215886435b6f44195b": {
                "nonce": "0x01",
                "balance": "0x00",
                "code": "0x60006000600060006000731cd139edc4a3f7538ace6ee7bc9d34099b9842bb5af16000600060006000600073336c3f27e9265c676fcd3a35c43f3581ad2901655af100",
                "storage": {}
            },
            "0x1ad9bc24818784172ff393bb6f89f094d4d2ca29": {
                "nonce": "0x00",
                "balance": "0x3635c9adc5dea00000",
                "code": "0x",
                "storage": {}
            }
        },
        "postState": {
            "0x1cd139edc4a3f7538ace6ee7bc9d34099b9842bb": {
                "nonce": "0x01",
                "balance": "0x00",
                "code": "0x7f00000000000000000000000000000000000000000000000000000000000000006000526000600160006001f5600055",
                "storage": {}
            },
            "0x336c3f27e9265c676fcd3a35c43f3581ad290165": {
                "nonce": "0x01",
                "balance": "0x00",
                "code": "0x5a739b0bf31a942d60d4e77366142971b5e556f0839c315a9050900360005a5a900301900360015500",
                "storage": {
                    "0x01": "0x0a2b"
                }
            },
            "0x52967ce59bfce75864464b215886435b6f44195b": {
                "nonce": "0x01",
                "balance": "0x00",
                "code": "0x60006000600060006000731cd139edc4a3f7538ace6ee7bc9d34099b9842bb5af16000600060006000600073336c3f27e9265c676fcd3a35c43f3581ad2901655af100",
                "storage": {}
            },
            "0x1ad9bc24818784172ff393bb6f89f094d4d2ca29": {
                "nonce": "0x01",
                "balance": "0x3635c9adc5de94dbd0",
                "code": "0x",
                "storage": {}
            },
            "0x2adc25665018aa1fe0e6bc666dac8fc2697ff9ba": {
                "nonce": "0x00",
                "balance": "0x1bc16d674ed32430",
                "code": "0x",
                "storage": {}
            }
        },
        "lastblockhash": "0xba294ac0b6dd635787afed634bb231a50a235cd21f825daecb81f3b777cdef5d",
        "config": {
            "network": "Berlin",
            "chainid": "0x01"
        },
        "genesisRLP": "0xf901f9f901f4a00000000000000000000000000000000000000000000000000000000000000000a01dcc4de8dec75d7aab85b567b6ccd41ad312451b948a7413f0a142fd40d49347940000000000000000000000000000000000000000a03687b4bcbb2a2b19b75259009533c37dfaf696d65a29d8000f64e29183627938a056e81f171bcc55a6ff8345e692c0f86e5b48e01b996cadc001622fb5e363b421a056e81f171bcc55a6ff8345e692c0f86e5b48e01b996cadc001622fb5e363b421b901000000000000000000000000000000000000000000000000000000000000000000000000000000000000000000000000000000000000000000000000000000000000000000000000000000000000000000000000000000000000000000000000000000000000000000000000000000000000000000000000000000000000000000000000000000000000000000000000000000000000000000000000000000000000000000000000000000000000000000000000000000000000000000000000000000000000000000000000000000000000000000000000000000000000000000000000000000000000000000000000000000000000000000000000000000000083020000808407270e00808000a00000000000000000000000000000000000000000000000000000000000000000880000000000000000c0c0",
        "blocks": [
            {
                "blockHeader": {
                    "parentHash": "0x0a2cb797bccc9eed7b4beda95e090082cdc8f56d8beb2b11c034ccec9cccbb7a",
                    "uncleHash": "0x1dcc4de8dec75d7aab85b567b6ccd41ad312451b948a7413f0a142fd40d49347",
                    "coinbase": "0x2adc25665018aa1fe0e6bc666dac8fc2697ff9ba",
                    "stateRoot": "0xb9d359afbc98881d38c6e8bf56475e2e3dc9714af27daf09ef4d35a97ccdb445",
                    "transactionsTrie": "0xb470f855c1f00a4b6e90d37b945583d71c50f931714b394c92d182c99299eb1d",
                    "receiptTrie": "0x48839c0261e83cde2b9b31e087acb87e3274fd900115624d76acb78775621fc2",
                    "bloom": "0x00000000000000000000000000000000000000000000000000000000000000000000000000000000000000000000000000000000000000000000000000000000000000000000000000000000000000000000000000000000000000000000000000000000000000000000000000000000000000000000000000000000000000000000000000000000000000000000000000000000000000000000000000000000000000000000000000000000000000000000000000000000000000000000000000000000000000000000000000000000000000000000000000000000000000000000000000000000000000000000000000000000000000000000000000000000",
                    "difficulty": "0x020000",
                    "number": "0x01",
                    "gasLimit": "0x07270e00",
                    "gasUsed": "0x011d38",
                    "timestamp": "0x03e8",
                    "extraData": "0x00",
                    "mixHash": "0x0000000000000000000000000000000000000000000000000000000000000000",
                    "nonce": "0x0000000000000000",
                    "hash": "0xba294ac0b6dd635787afed634bb231a50a235cd21f825daecb81f3b777cdef5d"
                },
                "transactions": [
                    {
                        "type": "0x00",
                        "chainId": "0x01",
                        "nonce": "0x00",
                        "gasPrice": "0x0a",
                        "gasLimit": "0x0f4240",
                        "to": "0x52967ce59bfce75864464b215886435b6f44195b",
                        "value": "0x00",
                        "data": "0x",
                        "v": "0x25",
                        "r": "0x38088086ceb4046493195b8ef50e2f4ea66e836ff2d3f9dcec55243680af11c9",
                        "s": "0x5926d8b908712a68b69229a1466cd4ff00906d332ad615e9cb886fc9af618eb0",
                        "sender": "0x1ad9bc24818784172ff393bb6f89f094d4d2ca29"
                    }
                ],
                "uncleHeaders": [],
                "receipts": [
                    {
                        "transactionHash": "0xb3bfce02af0c21262a764deb5dfae801cb5434f86d844349c523ef3f7f2fa9fd",
                        "type": "0x00",
                        "cumulativeGasUsed": "0x011d38",
                        "bloom": "0x00000000000000000000000000000000000000000000000000000000000000000000000000000000000000000000000000000000000000000000000000000000000000000000000000000000000000000000000000000000000000000000000000000000000000000000000000000000000000000000000000000000000000000000000000000000000000000000000000000000000000000000000000000000000000000000000000000000000000000000000000000000000000000000000000000000000000000000000000000000000000000000000000000000000000000000000000000000000000000000000000000000000000000000000000000000",
                        "logs": [],
                        "status": true,
                        "rlp": "0xf901090183011d38b9010000000000000000000000000000000000000000000000000000000000000000000000000000000000000000000000000000000000000000000000000000000000000000000000000000000000000000000000000000000000000000000000000000000000000000000000000000000000000000000000000000000000000000000000000000000000000000000000000000000000000000000000000000000000000000000000000000000000000000000000000000000000000000000000000000000000000000000000000000000000000000000000000000000000000000000000000000000000000000000000000000000000000000000000000000000000c0"
                    }
                ],
                "rlp": "0xf90261f901f9a00a2cb797bccc9eed7b4beda95e090082cdc8f56d8beb2b11c034ccec9cccbb7aa01dcc4de8dec75d7aab85b567b6ccd41ad312451b948a7413f0a142fd40d49347942adc25665018aa1fe0e6bc666dac8fc2697ff9baa0b9d359afbc98881d38c6e8bf56475e2e3dc9714af27daf09ef4d35a97ccdb445a0b470f855c1f00a4b6e90d37b945583d71c50f931714b394c92d182c99299eb1da048839c0261e83cde2b9b31e087acb87e3274fd900115624d76acb78775621fc2b901000000000000000000000000000000000000000000000000000000000000000000000000000000000000000000000000000000000000000000000000000000000000000000000000000000000000000000000000000000000000000000000000000000000000000000000000000000000000000000000000000000000000000000000000000000000000000000000000000000000000000000000000000000000000000000000000000000000000000000000000000000000000000000000000000000000000000000000000000000000000000000000000000000000000000000000000000000000000000000000000000000000000000000000000000000000083020000018407270e0083011d388203e800a00000000000000000000000000000000000000000000000000000000000000000880000000000000000f862f860800a830f42409452967ce59bfce75864464b215886435b6f44195b808025a038088086ceb4046493195b8ef50e2f4ea66e836ff2d3f9dcec55243680af11c9a05926d8b908712a68b69229a1466cd4ff00906d332ad615e9cb886fc9af618eb0c0",
                "blocknumber": "1"
            }
        ],
        "sealEngine": "NoProof",
        "_info": {
            "hash": "0x5093f8d66382ef233d07f5a822362ea0fdffe2c0bd081feac45aadd0338eda5a",
            "fixture-format": "blockchain_test",
            "comment": "`execution-specs` generated test",
            "filling-transition-tool": "2.19.0",
            "description": "Test that a failed CREATE/CREATE2 due to insufficient balance does not\nwarm the contract address.\n\nA creator contract with zero balance attempts to create with value=1.\nThe create aborts, and a subsequent BALANCE check on the would-be\ncontract address verifies it remains cold (costs G_COLD_ACCOUNT_ACCESS\ninstead of G_WARM_STORAGE_READ).",
            "url": "https://github.com/ethereum/execution-specs/blob/tests-bal@v5.6.0/tests/berlin/eip2929_gas_cost_increases/test_create.py#L39",
            "metadata": {
                "opcode_count": {}
            },
            "reference-spec": "https://github.com/ethereum/EIPs/blob/master/EIPS/eip-2929.md",
            "reference-spec-version": "0e11417265a623adb680c527b15d0cb6701b870b"
        }
    },
    "tests/berlin/eip2929_gas_cost_increases/test_create.py::test_create_insufficient_balance[fork_Berlin-blockchain_test_from_state_test-CREATE]": {
        "network": "Berlin",
        "genesisBlockHeader": {
            "parentHash": "0x0000000000000000000000000000000000000000000000000000000000000000",
            "uncleHash": "0x1dcc4de8dec75d7aab85b567b6ccd41ad312451b948a7413f0a142fd40d49347",
            "coinbase": "0x0000000000000000000000000000000000000000",
            "stateRoot": "0x8dc77a78116939b0e433c439e737b395bb19718a78f019eb4e6ba804b2c234b4",
            "transactionsTrie": "0x56e81f171bcc55a6ff8345e692c0f86e5b48e01b996cadc001622fb5e363b421",
            "receiptTrie": "0x56e81f171bcc55a6ff8345e692c0f86e5b48e01b996cadc001622fb5e363b421",
            "bloom": "0x00000000000000000000000000000000000000000000000000000000000000000000000000000000000000000000000000000000000000000000000000000000000000000000000000000000000000000000000000000000000000000000000000000000000000000000000000000000000000000000000000000000000000000000000000000000000000000000000000000000000000000000000000000000000000000000000000000000000000000000000000000000000000000000000000000000000000000000000000000000000000000000000000000000000000000000000000000000000000000000000000000000000000000000000000000000",
            "difficulty": "0x020000",
            "number": "0x00",
            "gasLimit": "0x07270e00",
            "gasUsed": "0x00",
            "timestamp": "0x00",
            "extraData": "0x00",
            "mixHash": "0x0000000000000000000000000000000000000000000000000000000000000000",
            "nonce": "0x0000000000000000",
            "hash": "0x4b342d1373d93775ec9a581a51f260a6f1b07b9c625b995eda4f6fed3c45d14c"
        },
        "pre": {
            "0x685f571ba93286ef13f768516e0e28e20033d0fd": {
                "nonce": "0x01",
                "balance": "0x00",
                "code": "0x7f0000000000000000000000000000000000000000000000000000000000000000600052600160006001f0600055",
                "storage": {
                    "0x00": "0x01"
                }
            },
            "0x4ef86a14c85c3870e31f2bd92e858601aaa085b8": {
                "nonce": "0x01",
                "balance": "0x00",
                "code": "0x5a73b8ceefe48745bfbe5cfdd39560a7bbbcfcddc533315a9050900360005a5a900301900360015500",
                "storage": {}
            },
            "0x5752275934e4e55991f394545f240bc9fbc5291a": {
                "nonce": "0x01",
                "balance": "0x00",
                "code": "0x6000600060006000600073685f571ba93286ef13f768516e0e28e20033d0fd5af160006000600060006000734ef86a14c85c3870e31f2bd92e858601aaa085b85af100",
                "storage": {}
            },
            "0x1ad9bc24818784172ff393bb6f89f094d4d2ca29": {
                "nonce": "0x00",
                "balance": "0x3635c9adc5dea00000",
                "code": "0x",
                "storage": {}
            }
        },
        "postState": {
            "0x685f571ba93286ef13f768516e0e28e20033d0fd": {
                "nonce": "0x01",
                "balance": "0x00",
                "code": "0x7f0000000000000000000000000000000000000000000000000000000000000000600052600160006001f0600055",
                "storage": {}
            },
            "0x4ef86a14c85c3870e31f2bd92e858601aaa085b8": {
                "nonce": "0x01",
                "balance": "0x00",
                "code": "0x5a73b8ceefe48745bfbe5cfdd39560a7bbbcfcddc533315a9050900360005a5a900301900360015500",
                "storage": {
                    "0x01": "0x0a2b"
                }
            },
            "0x5752275934e4e55991f394545f240bc9fbc5291a": {
                "nonce": "0x01",
                "balance": "0x00",
                "code": "0x6000600060006000600073685f571ba93286ef13f768516e0e28e20033d0fd5af160006000600060006000734ef86a14c85c3870e31f2bd92e858601aaa085b85af100",
                "storage": {}
            },
            "0x1ad9bc24818784172ff393bb6f89f094d4d2ca29": {
                "nonce": "0x01",
                "balance": "0x3635c9adc5de94dc2a",
                "code": "0x",
                "storage": {}
            },
            "0x2adc25665018aa1fe0e6bc666dac8fc2697ff9ba": {
                "nonce": "0x00",
                "balance": "0x1bc16d674ed323d6",
                "code": "0x",
                "storage": {}
            }
        },
        "lastblockhash": "0x2a2d241802c6bf4addde584cc0e5fc8cea3372ca94bd565cfb0e2a197c2e8adc",
        "config": {
            "network": "Berlin",
            "chainid": "0x01"
        },
        "genesisRLP": "0xf901f9f901f4a00000000000000000000000000000000000000000000000000000000000000000a01dcc4de8dec75d7aab85b567b6ccd41ad312451b948a7413f0a142fd40d49347940000000000000000000000000000000000000000a08dc77a78116939b0e433c439e737b395bb19718a78f019eb4e6ba804b2c234b4a056e81f171bcc55a6ff8345e692c0f86e5b48e01b996cadc001622fb5e363b421a056e81f171bcc55a6ff8345e692c0f86e5b48e01b996cadc001622fb5e363b421b901000000000000000000000000000000000000000000000000000000000000000000000000000000000000000000000000000000000000000000000000000000000000000000000000000000000000000000000000000000000000000000000000000000000000000000000000000000000000000000000000000000000000000000000000000000000000000000000000000000000000000000000000000000000000000000000000000000000000000000000000000000000000000000000000000000000000000000000000000000000000000000000000000000000000000000000000000000000000000000000000000000000000000000000000000000000083020000808407270e00808000a00000000000000000000000000000000000000000000000000000000000000000880000000000000000c0c0",
        "blocks": [
            {
                "blockHeader": {
                    "parentHash": "0x4b342d1373d93775ec9a581a51f260a6f1b07b9c625b995eda4f6fed3c45d14c",
                    "uncleHash": "0x1dcc4de8dec75d7aab85b567b6ccd41ad312451b948a7413f0a142fd40d49347",
                    "coinbase": "0x2adc25665018aa1fe0e6bc666dac8fc2697ff9ba",
                    "stateRoot": "0x91dad51b49427bdfa9b31d8eace7e84e155c3660ce9b070e11bfd610009438d2",
                    "transactionsTrie": "0xe5e21b7ffecdf0318947b3bcc2a66103df6ab85cad3e99cf0fcb29fa8b28b779",
                    "receiptTrie": "0x7b9ef00bc8f2626c5efff8668d4f2ce03f86d3920edc731a888e186e44f8ac97",
                    "bloom": "0x00000000000000000000000000000000000000000000000000000000000000000000000000000000000000000000000000000000000000000000000000000000000000000000000000000000000000000000000000000000000000000000000000000000000000000000000000000000000000000000000000000000000000000000000000000000000000000000000000000000000000000000000000000000000000000000000000000000000000000000000000000000000000000000000000000000000000000000000000000000000000000000000000000000000000000000000000000000000000000000000000000000000000000000000000000000",
                    "difficulty": "0x020000",
                    "number": "0x01",
                    "gasLimit": "0x07270e00",
                    "gasUsed": "0x011d2f",
                    "timestamp": "0x03e8",
                    "extraData": "0x00",
                    "mixHash": "0x0000000000000000000000000000000000000000000000000000000000000000",
                    "nonce": "0x0000000000000000",
                    "hash": "0x2a2d241802c6bf4addde584cc0e5fc8cea3372ca94bd565cfb0e2a197c2e8adc"
                },
                "transactions": [
                    {
                        "type": "0x00",
                        "chainId": "0x01",
                        "nonce": "0x00",
                        "gasPrice": "0x0a",
                        "gasLimit": "0x0f4240",
                        "to": "0x5752275934e4e55991f394545f240bc9fbc5291a",
                        "value": "0x00",
                        "data": "0x",
                        "v": "0x26",
                        "r": "0x2057ce71654817b1cec3bb577e781d1ba9eaabdfd738d314d9f7b64faf348a6d",
                        "s": "0x5de084346012798c9084bd693132d823528dd72c7a681b0539c470e503512545",
                        "sender": "0x1ad9bc24818784172ff393bb6f89f094d4d2ca29"
                    }
                ],
                "uncleHeaders": [],
                "receipts": [
                    {
                        "transactionHash": "0x0664b519d93b865002622f3f23c3965e62744bf25a51071078ec338ba423d5ca",
                        "type": "0x00",
                        "cumulativeGasUsed": "0x011d2f",
                        "bloom": "0x00000000000000000000000000000000000000000000000000000000000000000000000000000000000000000000000000000000000000000000000000000000000000000000000000000000000000000000000000000000000000000000000000000000000000000000000000000000000000000000000000000000000000000000000000000000000000000000000000000000000000000000000000000000000000000000000000000000000000000000000000000000000000000000000000000000000000000000000000000000000000000000000000000000000000000000000000000000000000000000000000000000000000000000000000000000",
                        "logs": [],
                        "status": true,
                        "rlp": "0xf901090183011d2fb9010000000000000000000000000000000000000000000000000000000000000000000000000000000000000000000000000000000000000000000000000000000000000000000000000000000000000000000000000000000000000000000000000000000000000000000000000000000000000000000000000000000000000000000000000000000000000000000000000000000000000000000000000000000000000000000000000000000000000000000000000000000000000000000000000000000000000000000000000000000000000000000000000000000000000000000000000000000000000000000000000000000000000000000000000000000000c0"
                    }
                ],
                "rlp": "0xf90261f901f9a04b342d1373d93775ec9a581a51f260a6f1b07b9c625b995eda4f6fed3c45d14ca01dcc4de8dec75d7aab85b567b6ccd41ad312451b948a7413f0a142fd40d49347942adc25665018aa1fe0e6bc666dac8fc2697ff9baa091dad51b49427bdfa9b31d8eace7e84e155c3660ce9b070e11bfd610009438d2a0e5e21b7ffecdf0318947b3bcc2a66103df6ab85cad3e99cf0fcb29fa8b28b779a07b9ef00bc8f2626c5efff8668d4f2ce03f86d3920edc731a888e186e44f8ac97b901000000000000000000000000000000000000000000000000000000000000000000000000000000000000000000000000000000000000000000000000000000000000000000000000000000000000000000000000000000000000000000000000000000000000000000000000000000000000000000000000000000000000000000000000000000000000000000000000000000000000000000000000000000000000000000000000000000000000000000000000000000000000000000000000000000000000000000000000000000000000000000000000000000000000000000000000000000000000000000000000000000000000000000000000000000000083020000018407270e0083011d2f8203e800a00000000000000000000000000000000000000000000000000000000000000000880000000000000000f862f860800a830f4240945752275934e4e55991f394545f240bc9fbc5291a808026a02057ce71654817b1cec3bb577e781d1ba9eaabdfd738d314d9f7b64faf348a6da05de084346012798c9084bd693132d823528dd72c7a681b0539c470e503512545c0",
                "blocknumber": "1"
            }
        ],
        "sealEngine": "NoProof",
        "_info": {
            "hash": "0x034afd6f6d4116fc2487b15f6a01543013716e62c1934e167a3b77d7104374ac",
            "fixture-format": "blockchain_test",
            "comment": "`execution-specs` generated test",
            "filling-transition-tool": "2.19.0",
            "description": "Test that a failed CREATE/CREATE2 due to insufficient balance does not\nwarm the contract address.\n\nA creator contract with zero balance attempts to create with value=1.\nThe create aborts, and a subsequent BALANCE check on the would-be\ncontract address verifies it remains cold (costs G_COLD_ACCOUNT_ACCESS\ninstead of G_WARM_STORAGE_READ).",
            "url": "https://github.com/ethereum/execution-specs/blob/tests-bal@v5.6.0/tests/berlin/eip2929_gas_cost_increases/test_create.py#L39",
            "metadata": {
                "opcode_count": {}
            },
            "reference-spec": "https://github.com/ethereum/EIPs/blob/master/EIPS/eip-2929.md",
            "reference-spec-version": "0e11417265a623adb680c527b15d0cb6701b870b"
        }
    }
}