{
    "tests/homestead/coverage/test_coverage.py::test_coverage[fork_Cancun-blockchain_test_from_state_test]": {
        "network": "Cancun",
        "genesisBlockHeader": {
            "parentHash": "0x0000000000000000000000000000000000000000000000000000000000000000",
            "uncleHash": "0x1dcc4de8dec75d7aab85b567b6ccd41ad312451b948a7413f0a142fd40d49347",
            "coinbase": "0x0000000000000000000000000000000000000000",
            "stateRoot": "0x3f22b32f85f1e1b807b6050bc450b6b77185d775d25b90ca7dd7d735fe5ff7e0",
            "transactionsTrie": "0x56e81f171bcc55a6ff8345e692c0f86e5b48e01b996cadc001622fb5e363b421",
            "receiptTrie": "0x56e81f171bcc55a6ff8345e692c0f86e5b48e01b996cadc001622fb5e363b421",
            "bloom": "0x00000000000000000000000000000000000000000000000000000000000000000000000000000000000000000000000000000000000000000000000000000000000000000000000000000000000000000000000000000000000000000000000000000000000000000000000000000000000000000000000000000000000000000000000000000000000000000000000000000000000000000000000000000000000000000000000000000000000000000000000000000000000000000000000000000000000000000000000000000000000000000000000000000000000000000000000000000000000000000000000000000000000000000000000000000000",
            "difficulty": "0x00",
            "number": "0x00",
            "gasLimit": "0x07270e00",
            "gasUsed": "0x00",
            "timestamp": "0x00",
            "extraData": "0x00",
            "mixHash": "0x0000000000000000000000000000000000000000000000000000000000000000",
            "nonce": "0x0000000000000000",
            "baseFeePerGas": "0x07",
            "withdrawalsRoot": "0x56e81f171bcc55a6ff8345e692c0f86e5b48e01b996cadc001622fb5e363b421",
            "blobGasUsed": "0x00",
            "excessBlobGas": "0x00",
            "parentBeaconBlockRoot": "0x0000000000000000000000000000000000000000000000000000000000000000",
            "hash": "0x2f3109cc63dcfe3b1c284312e1f05ff330e52e5ab00e8d2a2fd5b8c65e8b18c4"
        },
        "pre": {
            "0x000f3df6d732807ef1319fb7b8bb8522d0beac02": {
                "nonce": "0x01",
                "balance": "0x00",
                "code": "0x3373fffffffffffffffffffffffffffffffffffffffe14604d57602036146024575f5ffd5b5f35801560495762001fff810690815414603c575f5ffd5b62001fff01545f5260205ff35b5f5ffd5b62001fff42064281555f359062001fff015500",
                "storage": {}
            },
            "0x96449bee65a3701bb2a39ef7ca1c91718ec65789": {
                "nonce": "0x01",
                "balance": "0x00",
                "code": "0x600060011b600060011c600a600b600c600d600e9080815f6101026201020363010203047f01010101010101010101010101010101010101010101010101010101010101016001600053600360020160015060046010600039",
                "storage": {}
            },
            "0xc9dcf4795cfce8d1ed829e290265d27fe80151ef": {
                "nonce": "0x01",
                "balance": "0x0de0b6b3a7640000",
                "code": "0x600060006000600060007396449bee65a3701bb2a39ef7ca1c91718ec657895af160005260206000f3",
                "storage": {}
            },
            "0x682525b71cd8f25d795f603b2125786f97b19816": {
                "nonce": "0x00",
                "balance": "0x6124fee993bc0000",
                "code": "0x",
                "storage": {}
            }
        },
        "postState": {
            "0x000f3df6d732807ef1319fb7b8bb8522d0beac02": {
                "nonce": "0x01",
                "balance": "0x00",
                "code": "0x3373fffffffffffffffffffffffffffffffffffffffe14604d57602036146024575f5ffd5b5f35801560495762001fff810690815414603c575f5ffd5b62001fff01545f5260205ff35b5f5ffd5b62001fff42064281555f359062001fff015500",
                "storage": {
                    "0x03e8": "0x03e8"
                }
            },
            "0x96449bee65a3701bb2a39ef7ca1c91718ec65789": {
                "nonce": "0x01",
                "balance": "0x00",
                "code": "0x600060011b600060011c600a600b600c600d600e9080815f6101026201020363010203047f01010101010101010101010101010101010101010101010101010101010101016001600053600360020160015060046010600039",
                "storage": {}
            },
            "0xc9dcf4795cfce8d1ed829e290265d27fe80151ef": {
                "nonce": "0x01",
                "balance": "0x0de0b6b3a7640000",
                "code": "0x600060006000600060007396449bee65a3701bb2a39ef7ca1c91718ec657895af160005260206000f3",
                "storage": {}
            },
            "0x682525b71cd8f25d795f603b2125786f97b19816": {
                "nonce": "0x01",
                "balance": "0x6124fee993b860f8",
                "code": "0x",
                "storage": {}
            },
            "0x2adc25665018aa1fe0e6bc666dac8fc2697ff9ba": {
                "nonce": "0x00",
                "balance": "0x01161c",
                "code": "0x",
                "storage": {}
            }
        },
        "lastblockhash": "0xafc28ff70019131918c34805d43fa9338b94d21a2a18877e42e4ab59109d92e4",
        "config": {
            "network": "Cancun",
            "chainid": "0x01",
            "blobSchedule": {
                "Cancun": {
                    "target": "0x03",
                    "max": "0x06",
                    "baseFeeUpdateFraction": "0x32f0ed"
                }
            }
        },
        "genesisRLP": "0xf9023cf90236a00000000000000000000000000000000000000000000000000000000000000000a01dcc4de8dec75d7aab85b567b6ccd41ad312451b948a7413f0a142fd40d49347940000000000000000000000000000000000000000a03f22b32f85f1e1b807b6050bc450b6b77185d775d25b90ca7dd7d735fe5ff7e0a056e81f171bcc55a6ff8345e692c0f86e5b48e01b996cadc001622fb5e363b421a056e81f171bcc55a6ff8345e692c0f86e5b48e01b996cadc001622fb5e363b421b901000000000000000000000000000000000000000000000000000000000000000000000000000000000000000000000000000000000000000000000000000000000000000000000000000000000000000000000000000000000000000000000000000000000000000000000000000000000000000000000000000000000000000000000000000000000000000000000000000000000000000000000000000000000000000000000000000000000000000000000000000000000000000000000000000000000000000000000000000000000000000000000000000000000000000000000000000000000000000000000000000000000000000000000000000000000080808407270e00808000a0000000000000000000000000000000000000000000000000000000000000000088000000000000000007a056e81f171bcc55a6ff8345e692c0f86e5b48e01b996cadc001622fb5e363b4218080a00000000000000000000000000000000000000000000000000000000000000000c0c0c0",
        "blocks": [
            {
                "blockHeader": {
                    "parentHash": "0x2f3109cc63dcfe3b1c284312e1f05ff330e52e5ab00e8d2a2fd5b8c65e8b18c4",
                    "uncleHash": "0x1dcc4de8dec75d7aab85b567b6ccd41ad312451b948a7413f0a142fd40d49347",
                    "coinbase": "0x2adc25665018aa1fe0e6bc666dac8fc2697ff9ba",
                    "stateRoot": "0x71f37d11518582e121714c525683a28cbeb734e74d83eb50cfe90e2942b9faa0",
                    "transactionsTrie": "0x60c2ff9a5f5b2aaec128e3408228d3f4464104da5bdf5599a575f17df0266f55",
                    "receiptTrie": "0x40d1d302757dd24ccd5c05fe0762a15f464e44e6a47c440bd8529a639f98c435",
                    "bloom": "0x00000000000000000000000000000000000000000000000000000000000000000000000000000000000000000000000000000000000000000000000000000000000000000000000000000000000000000000000000000000000000000000000000000000000000000000000000000000000000000000000000000000000000000000000000000000000000000000000000000000000000000000000000000000000000000000000000000000000000000000000000000000000000000000000000000000000000000000000000000000000000000000000000000000000000000000000000000000000000000000000000000000000000000000000000000000",
                    "difficulty": "0x00",
                    "number": "0x01",
                    "gasLimit": "0x07270e00",
                    "gasUsed": "0x5cb4",
                    "timestamp": "0x03e8",
                    "extraData": "0x00",
                    "mixHash": "0x0000000000000000000000000000000000000000000000000000000000000000",
                    "nonce": "0x0000000000000000",
                    "baseFeePerGas": "0x07",
                    "withdrawalsRoot": "0x56e81f171bcc55a6ff8345e692c0f86e5b48e01b996cadc001622fb5e363b421",
                    "blobGasUsed": "0x00",
                    "excessBlobGas": "0x00",
                    "parentBeaconBlockRoot": "0x0000000000000000000000000000000000000000000000000000000000000000",
                    "hash": "0xafc28ff70019131918c34805d43fa9338b94d21a2a18877e42e4ab59109d92e4"
                },
                "transactions": [
                    {
                        "type": "0x02",
                        "chainId": "0x01",
                        "nonce": "0x00",
                        "maxPriorityFeePerGas": "0x05",
                        "maxFeePerGas": "0x0a",
                        "gasLimit": "0x0186a0",
                        "to": "0xc9dcf4795cfce8d1ed829e290265d27fe80151ef",
                        "value": "0x00",
                        "data": "0x",
                        "accessList": [],
                        "v": "0x00",
                        "r": "0xc088c93303fcddea2ea1aa580947193ac42c726e264a565bdb6a002fdae80b9a",
                        "s": "0x364e74ff863b90c3b0ce693aa11131fe8637a6134b3eb7807ca5f7d6096324a1",
                        "sender": "0x682525b71cd8f25d795f603b2125786f97b19816"
                    }
                ],
                "uncleHeaders": [],
                "withdrawals": [],
                "receipts": [
                    {
                        "transactionHash": "0xbc20ca74e2e369d29ad844b7dea00eaac20b0eb9611d2dab305d06f4640299d7",
                        "type": "0x02",
                        "cumulativeGasUsed": "0x5cb4",
                        "bloom": "0x00000000000000000000000000000000000000000000000000000000000000000000000000000000000000000000000000000000000000000000000000000000000000000000000000000000000000000000000000000000000000000000000000000000000000000000000000000000000000000000000000000000000000000000000000000000000000000000000000000000000000000000000000000000000000000000000000000000000000000000000000000000000000000000000000000000000000000000000000000000000000000000000000000000000000000000000000000000000000000000000000000000000000000000000000000000",
                        "logs": [],
                        "status": true,
                        "rlp": "0x02f9010801825cb4b9010000000000000000000000000000000000000000000000000000000000000000000000000000000000000000000000000000000000000000000000000000000000000000000000000000000000000000000000000000000000000000000000000000000000000000000000000000000000000000000000000000000000000000000000000000000000000000000000000000000000000000000000000000000000000000000000000000000000000000000000000000000000000000000000000000000000000000000000000000000000000000000000000000000000000000000000000000000000000000000000000000000000000000000000000000000000c0"
                    }
                ],
                "rlp": "0xf902a9f9023aa02f3109cc63dcfe3b1c284312e1f05ff330e52e5ab00e8d2a2fd5b8c65e8b18c4a01dcc4de8dec75d7aab85b567b6ccd41ad312451b948a7413f0a142fd40d49347942adc25665018aa1fe0e6bc666dac8fc2697ff9baa071f37d11518582e121714c525683a28cbeb734e74d83eb50cfe90e2942b9faa0a060c2ff9a5f5b2aaec128e3408228d3f4464104da5bdf5599a575f17df0266f55a040d1d302757dd24ccd5c05fe0762a15f464e44e6a47c440bd8529a639f98c435b901000000000000000000000000000000000000000000000000000000000000000000000000000000000000000000000000000000000000000000000000000000000000000000000000000000000000000000000000000000000000000000000000000000000000000000000000000000000000000000000000000000000000000000000000000000000000000000000000000000000000000000000000000000000000000000000000000000000000000000000000000000000000000000000000000000000000000000000000000000000000000000000000000000000000000000000000000000000000000000000000000000000000000000000000000000000080018407270e00825cb48203e800a0000000000000000000000000000000000000000000000000000000000000000088000000000000000007a056e81f171bcc55a6ff8345e692c0f86e5b48e01b996cadc001622fb5e363b4218080a00000000000000000000000000000000000000000000000000000000000000000f868b86602f8630180050a830186a094c9dcf4795cfce8d1ed829e290265d27fe80151ef8080c080a0c088c93303fcddea2ea1aa580947193ac42c726e264a565bdb6a002fdae80b9aa0364e74ff863b90c3b0ce693aa11131fe8637a6134b3eb7807ca5f7d6096324a1c0c0",
                "blocknumber": "1"
            }
        ],
        "sealEngine": "NoProof",
        "_info": {
            "hash": "0xb77c22f5973a5059d515c9fbebc09f65a00670bcb3d0838e309493c6f82e8a13",
            "fixture-format": "blockchain_test",
            "comment": "`execution-specs` generated test",
            "filling-transition-tool": "2.19.0",
            "description": "Cover gaps that result from transforming Yul code into our Python opcode\nwrapper bytecode.\n\nE.g. Yul tends to optimize stack items by using `SWAP1` and `DUP1` opcodes,\nwhich are not regularly used in python code.\n\nModify this test to cover more Yul code if required in the future.",
            "url": "https://github.com/ethereum/execution-specs/blob/tests-sn\u00f8bal-devnet-4@v1.0.0/tests/homestead/coverage/test_coverage.py#L21",
            "metadata": {
                "opcode_count": {}
            }
        }
    }
}