{
    "tests/frontier/touch/test_touch.py::test_zero_gas_price_and_touching[fork_ConstantinopleFix-blockchain_test_from_state_test]": {
        "network": "ConstantinopleFix",
        "genesisBlockHeader": {
            "parentHash": "0x0000000000000000000000000000000000000000000000000000000000000000",
            "uncleHash": "0x1dcc4de8dec75d7aab85b567b6ccd41ad312451b948a7413f0a142fd40d49347",
            "coinbase": "0x0000000000000000000000000000000000000000",
            "stateRoot": "0x2781f7de2d1ad1f407569fd550dee36fd90ac1e6941ac7f1ed017ddd0e946524",
            "transactionsTrie": "0x56e81f171bcc55a6ff8345e692c0f86e5b48e01b996cadc001622fb5e363b421",
            "receiptTrie": "0x56e81f171bcc55a6ff8345e692c0f86e5b48e01b996cadc001622fb5e363b421",
            "bloom": "0x00000000000000000000000000000000000000000000000000000000000000000000000000000000000000000000000000000000000000000000000000000000000000000000000000000000000000000000000000000000000000000000000000000000000000000000000000000000000000000000000000000000000000000000000000000000000000000000000000000000000000000000000000000000000000000000000000000000000000000000000000000000000000000000000000000000000000000000000000000000000000000000000000000000000000000000000000000000000000000000000000000000000000000000000000000000",
            "difficulty": "0x020000",
            "number": "0x00",
            "gasLimit": "0x07270e00",
            "gasUsed": "0x00",
            "timestamp": "0x00",
            "extraData": "0x00",
            "mixHash": "0x0000000000000000000000000000000000000000000000000000000000000000",
            "nonce": "0x0000000000000000",
            "hash": "0xbcfbf07d9efae9e688c7d880a890645afb698363cec56f1fba643373698502b3"
        },
        "pre": {
            "0x1ad9bc24818784172ff393bb6f89f094d4d2ca29": {
                "nonce": "0x00",
                "balance": "0x3635c9adc5dea00000",
                "code": "0x",
                "storage": {}
            },
            "0x43e6f595ac8e8c6e584c7a2d9949a6bfae8c4287": {
                "nonce": "0x01",
                "balance": "0x00",
                "code": "0x600160005500",
                "storage": {}
            }
        },
        "postState": {
            "0x1ad9bc24818784172ff393bb6f89f094d4d2ca29": {
                "nonce": "0x01",
                "balance": "0x3635c9adc5dea00000",
                "code": "0x",
                "storage": {}
            },
            "0x43e6f595ac8e8c6e584c7a2d9949a6bfae8c4287": {
                "nonce": "0x01",
                "balance": "0x00",
                "code": "0x600160005500",
                "storage": {
                    "0x00": "0x01"
                }
            },
            "0x2adc25665018aa1fe0e6bc666dac8fc2697ff9ba": {
                "nonce": "0x00",
                "balance": "0x1bc16d674ec80000",
                "code": "0x",
                "storage": {}
            }
        },
        "lastblockhash": "0x02331fcc2cdcca02de5fa20230a428a93c6c64726a692992542d6923aed5a3ab",
        "config": {
            "network": "ConstantinopleFix",
            "chainid": "0x01"
        },
        "genesisRLP": "0xf901f9f901f4a00000000000000000000000000000000000000000000000000000000000000000a01dcc4de8dec75d7aab85b567b6ccd41ad312451b948a7413f0a142fd40d49347940000000000000000000000000000000000000000a02781f7de2d1ad1f407569fd550dee36fd90ac1e6941ac7f1ed017ddd0e946524a056e81f171bcc55a6ff8345e692c0f86e5b48e01b996cadc001622fb5e363b421a056e81f171bcc55a6ff8345e692c0f86e5b48e01b996cadc001622fb5e363b421b901000000000000000000000000000000000000000000000000000000000000000000000000000000000000000000000000000000000000000000000000000000000000000000000000000000000000000000000000000000000000000000000000000000000000000000000000000000000000000000000000000000000000000000000000000000000000000000000000000000000000000000000000000000000000000000000000000000000000000000000000000000000000000000000000000000000000000000000000000000000000000000000000000000000000000000000000000000000000000000000000000000000000000000000000000000000083020000808407270e00808000a00000000000000000000000000000000000000000000000000000000000000000880000000000000000c0c0",
        "blocks": [
            {
                "blockHeader": {
                    "parentHash": "0xbcfbf07d9efae9e688c7d880a890645afb698363cec56f1fba643373698502b3",
                    "uncleHash": "0x1dcc4de8dec75d7aab85b567b6ccd41ad312451b948a7413f0a142fd40d49347",
                    "coinbase": "0x2adc25665018aa1fe0e6bc666dac8fc2697ff9ba",
                    "stateRoot": "0x0ce73db875f23c3b76fa497d5e659d8fe7248e2720e0ccb4bd1f4af7e082f359",
                    "transactionsTrie": "0xd154b91621e3032ae0922992b1bb88aae572ebd444fee6f00d3efecec2b1ce5c",
                    "receiptTrie": "0xdb40dac00f81a25b43f479147b4dfba23f58ee7cb09306e08983d750252181ca",
                    "bloom": "0x00000000000000000000000000000000000000000000000000000000000000000000000000000000000000000000000000000000000000000000000000000000000000000000000000000000000000000000000000000000000000000000000000000000000000000000000000000000000000000000000000000000000000000000000000000000000000000000000000000000000000000000000000000000000000000000000000000000000000000000000000000000000000000000000000000000000000000000000000000000000000000000000000000000000000000000000000000000000000000000000000000000000000000000000000000000",
                    "difficulty": "0x020000",
                    "number": "0x01",
                    "gasLimit": "0x07270e00",
                    "gasUsed": "0xa02e",
                    "timestamp": "0x03e8",
                    "extraData": "0x00",
                    "mixHash": "0x0000000000000000000000000000000000000000000000000000000000000000",
                    "nonce": "0x0000000000000000",
                    "hash": "0x02331fcc2cdcca02de5fa20230a428a93c6c64726a692992542d6923aed5a3ab"
                },
                "transactions": [
                    {
                        "type": "0x00",
                        "chainId": "0x01",
                        "nonce": "0x00",
                        "gasPrice": "0x00",
                        "gasLimit": "0x07a120",
                        "to": "0x43e6f595ac8e8c6e584c7a2d9949a6bfae8c4287",
                        "value": "0x00",
                        "data": "0x",
                        "v": "0x1b",
                        "r": "0x9e94275ff7871962da268db13fe22f1adcb6956401970a792f8a943046283e1f",
                        "s": "0x33cf792b9b7d80a1fedcd28abc6ffdd618d326a1c745b0d764d7c5609a03230d",
                        "sender": "0x1ad9bc24818784172ff393bb6f89f094d4d2ca29"
                    }
                ],
                "uncleHeaders": [],
                "receipts": [
                    {
                        "transactionHash": "0x981a632e1071fb9eebbc74e8a521fe256ad18c992d61f5c297731d6fbf461440",
                        "type": "0x00",
                        "cumulativeGasUsed": "0xa02e",
                        "bloom": "0x00000000000000000000000000000000000000000000000000000000000000000000000000000000000000000000000000000000000000000000000000000000000000000000000000000000000000000000000000000000000000000000000000000000000000000000000000000000000000000000000000000000000000000000000000000000000000000000000000000000000000000000000000000000000000000000000000000000000000000000000000000000000000000000000000000000000000000000000000000000000000000000000000000000000000000000000000000000000000000000000000000000000000000000000000000000",
                        "logs": [],
                        "status": true,
                        "rlp": "0xf901080182a02eb9010000000000000000000000000000000000000000000000000000000000000000000000000000000000000000000000000000000000000000000000000000000000000000000000000000000000000000000000000000000000000000000000000000000000000000000000000000000000000000000000000000000000000000000000000000000000000000000000000000000000000000000000000000000000000000000000000000000000000000000000000000000000000000000000000000000000000000000000000000000000000000000000000000000000000000000000000000000000000000000000000000000000000000000000000000000000c0"
                    }
                ],
                "rlp": "0xf90260f901f8a0bcfbf07d9efae9e688c7d880a890645afb698363cec56f1fba643373698502b3a01dcc4de8dec75d7aab85b567b6ccd41ad312451b948a7413f0a142fd40d49347942adc25665018aa1fe0e6bc666dac8fc2697ff9baa00ce73db875f23c3b76fa497d5e659d8fe7248e2720e0ccb4bd1f4af7e082f359a0d154b91621e3032ae0922992b1bb88aae572ebd444fee6f00d3efecec2b1ce5ca0db40dac00f81a25b43f479147b4dfba23f58ee7cb09306e08983d750252181cab901000000000000000000000000000000000000000000000000000000000000000000000000000000000000000000000000000000000000000000000000000000000000000000000000000000000000000000000000000000000000000000000000000000000000000000000000000000000000000000000000000000000000000000000000000000000000000000000000000000000000000000000000000000000000000000000000000000000000000000000000000000000000000000000000000000000000000000000000000000000000000000000000000000000000000000000000000000000000000000000000000000000000000000000000000000000083020000018407270e0082a02e8203e800a00000000000000000000000000000000000000000000000000000000000000000880000000000000000f862f86080808307a1209443e6f595ac8e8c6e584c7a2d9949a6bfae8c428780801ba09e94275ff7871962da268db13fe22f1adcb6956401970a792f8a943046283e1fa033cf792b9b7d80a1fedcd28abc6ffdd618d326a1c745b0d764d7c5609a03230dc0",
                "blocknumber": "1"
            }
        ],
        "sealEngine": "NoProof",
        "_info": {
            "hash": "0x1a5cfb9d7bbee9cf3096882d3d51cce56c8202b9bb7f19835b9339c3ca1dd162",
            "fixture-format": "blockchain_test",
            "comment": "`execution-specs` generated test",
            "filling-transition-tool": "2.19.0",
            "description": "Test sending a zero gasprice transaction in early forks respects\naccount touching rules.",
            "url": "https://github.com/ethereum/execution-specs/blob/tests-bal@v5.6.0/tests/frontier/touch/test_touch.py#L14",
            "metadata": {
                "opcode_count": {}
            }
        }
    }
}