{
    "tests/ported_static/stCreateTest/test_create_oo_gafter_init_code_returndata.py::test_create_oo_gafter_init_code_returndata[fork_Cancun-blockchain_test_from_state_test--g0]": {
        "network": "Cancun",
        "genesisBlockHeader": {
            "parentHash": "0x0000000000000000000000000000000000000000000000000000000000000000",
            "uncleHash": "0x1dcc4de8dec75d7aab85b567b6ccd41ad312451b948a7413f0a142fd40d49347",
            "coinbase": "0x0000000000000000000000000000000000000000",
            "stateRoot": "0xd5d51db30be23c82be83cc2b2bee495e1edfa0dca5617c5a04162099718d4d08",
            "transactionsTrie": "0x56e81f171bcc55a6ff8345e692c0f86e5b48e01b996cadc001622fb5e363b421",
            "receiptTrie": "0x56e81f171bcc55a6ff8345e692c0f86e5b48e01b996cadc001622fb5e363b421",
            "bloom": "0x00000000000000000000000000000000000000000000000000000000000000000000000000000000000000000000000000000000000000000000000000000000000000000000000000000000000000000000000000000000000000000000000000000000000000000000000000000000000000000000000000000000000000000000000000000000000000000000000000000000000000000000000000000000000000000000000000000000000000000000000000000000000000000000000000000000000000000000000000000000000000000000000000000000000000000000000000000000000000000000000000000000000000000000000000000000",
            "difficulty": "0x00",
            "number": "0x00",
            "gasLimit": "0x989680",
            "gasUsed": "0x00",
            "timestamp": "0x00",
            "extraData": "0x00",
            "mixHash": "0x0000000000000000000000000000000000000000000000000000000000000000",
            "nonce": "0x0000000000000000",
            "baseFeePerGas": "0x0b",
            "withdrawalsRoot": "0x56e81f171bcc55a6ff8345e692c0f86e5b48e01b996cadc001622fb5e363b421",
            "blobGasUsed": "0x00",
            "excessBlobGas": "0x00",
            "parentBeaconBlockRoot": "0x0000000000000000000000000000000000000000000000000000000000000000",
            "hash": "0xcb2da082a8711391d749ea3e27258e40463ddd321938fce58acc09414e9f3746"
        },
        "pre": {
            "0x000f3df6d732807ef1319fb7b8bb8522d0beac02": {
                "nonce": "0x01",
                "balance": "0x00",
                "code": "0x3373fffffffffffffffffffffffffffffffffffffffe14604d57602036146024575f5ffd5b5f35801560495762001fff810690815414603c575f5ffd5b62001fff01545f5260205ff35b5f5ffd5b62001fff42064281555f359062001fff015500",
                "storage": {}
            },
            "0xd719ccdb2301950b0a0bdf09a2bb1d5f8b225f6f": {
                "nonce": "0x00",
                "balance": "0xe8d4a51000",
                "code": "0x",
                "storage": {}
            },
            "0x8e0ccabd6d1e4417e4e57ad96b20d694b1d40a2e": {
                "nonce": "0x00",
                "balance": "0x00",
                "code": "0x6d6460016001556000526005601bf3600052600e60126000f0503d6001556020600060003e60005160025500",
                "storage": {}
            }
        },
        "postState": {
            "0x000f3df6d732807ef1319fb7b8bb8522d0beac02": {
                "nonce": "0x01",
                "balance": "0x00",
                "code": "0x3373fffffffffffffffffffffffffffffffffffffffe14604d57602036146024575f5ffd5b5f35801560495762001fff810690815414603c575f5ffd5b62001fff01545f5260205ff35b5f5ffd5b62001fff42064281555f359062001fff015500",
                "storage": {
                    "0x03e8": "0x03e8"
                }
            },
            "0xd719ccdb2301950b0a0bdf09a2bb1d5f8b225f6f": {
                "nonce": "0x01",
                "balance": "0xe8d49cd2a0",
                "code": "0x",
                "storage": {}
            },
            "0x8e0ccabd6d1e4417e4e57ad96b20d694b1d40a2e": {
                "nonce": "0x00",
                "balance": "0x00",
                "code": "0x6d6460016001556000526005601bf3600052600e60126000f0503d6001556020600060003e60005160025500",
                "storage": {}
            }
        },
        "lastblockhash": "0x76cac5757ce942c970af1545cfc2d64ebf3f8812125073adf2bbff0a9769b2a7",
        "config": {
            "network": "Cancun",
            "chainid": "0x01",
            "blobSchedule": {
                "Cancun": {
                    "target": "0x03",
                    "max": "0x06",
                    "baseFeeUpdateFraction": "0x32f0ed"
                }
            }
        },
        "genesisRLP": "0xf9023bf90235a00000000000000000000000000000000000000000000000000000000000000000a01dcc4de8dec75d7aab85b567b6ccd41ad312451b948a7413f0a142fd40d49347940000000000000000000000000000000000000000a0d5d51db30be23c82be83cc2b2bee495e1edfa0dca5617c5a04162099718d4d08a056e81f171bcc55a6ff8345e692c0f86e5b48e01b996cadc001622fb5e363b421a056e81f171bcc55a6ff8345e692c0f86e5b48e01b996cadc001622fb5e363b421b9010000000000000000000000000000000000000000000000000000000000000000000000000000000000000000000000000000000000000000000000000000000000000000000000000000000000000000000000000000000000000000000000000000000000000000000000000000000000000000000000000000000000000000000000000000000000000000000000000000000000000000000000000000000000000000000000000000000000000000000000000000000000000000000000000000000000000000000000000000000000000000000000000000000000000000000000000000000000000000000000000000000000000000000000000000000000808083989680808000a000000000000000000000000000000000000000000000000000000000000000008800000000000000000ba056e81f171bcc55a6ff8345e692c0f86e5b48e01b996cadc001622fb5e363b4218080a00000000000000000000000000000000000000000000000000000000000000000c0c0c0",
        "blocks": [
            {
                "blockHeader": {
                    "parentHash": "0xcb2da082a8711391d749ea3e27258e40463ddd321938fce58acc09414e9f3746",
                    "uncleHash": "0x1dcc4de8dec75d7aab85b567b6ccd41ad312451b948a7413f0a142fd40d49347",
                    "coinbase": "0x2adc25665018aa1fe0e6bc666dac8fc2697ff9ba",
                    "stateRoot": "0xee2d3892e01a65b0f192beef18599c706b63e56bd6121a5cb572f9774bd2235e",
                    "transactionsTrie": "0xb64261ed971d7a0859d18e2938637692c0f710e1dbecf253fd4b71f39c5e617d",
                    "receiptTrie": "0xa0012fbba7ac8349cb3a08fc9718afc72efcd07c28df76cdc294f15c233f5003",
                    "bloom": "0x00000000000000000000000000000000000000000000000000000000000000000000000000000000000000000000000000000000000000000000000000000000000000000000000000000000000000000000000000000000000000000000000000000000000000000000000000000000000000000000000000000000000000000000000000000000000000000000000000000000000000000000000000000000000000000000000000000000000000000000000000000000000000000000000000000000000000000000000000000000000000000000000000000000000000000000000000000000000000000000000000000000000000000000000000000000",
                    "difficulty": "0x00",
                    "number": "0x01",
                    "gasLimit": "0x989680",
                    "gasUsed": "0xd2f0",
                    "timestamp": "0x03e8",
                    "extraData": "0x00",
                    "mixHash": "0x0000000000000000000000000000000000000000000000000000000000020000",
                    "nonce": "0x0000000000000000",
                    "baseFeePerGas": "0x0a",
                    "withdrawalsRoot": "0x56e81f171bcc55a6ff8345e692c0f86e5b48e01b996cadc001622fb5e363b421",
                    "blobGasUsed": "0x00",
                    "excessBlobGas": "0x00",
                    "parentBeaconBlockRoot": "0x0000000000000000000000000000000000000000000000000000000000000000",
                    "hash": "0x76cac5757ce942c970af1545cfc2d64ebf3f8812125073adf2bbff0a9769b2a7"
                },
                "transactions": [
                    {
                        "type": "0x00",
                        "chainId": "0x01",
                        "nonce": "0x00",
                        "gasPrice": "0x0a",
                        "gasLimit": "0xd2f0",
                        "to": "0x8e0ccabd6d1e4417e4e57ad96b20d694b1d40a2e",
                        "value": "0x00",
                        "data": "0x",
                        "v": "0x25",
                        "r": "0x8ca45ca16455251a896366c8ce75ad6ddb97d677be5f1802209cb678617a28e8",
                        "s": "0x7417e8aa1ccd712e2d4168bd986a5bc4f39096cecec385709096225af50fe12d",
                        "sender": "0xd719ccdb2301950b0a0bdf09a2bb1d5f8b225f6f"
                    }
                ],
                "uncleHeaders": [],
                "withdrawals": [],
                "receipts": [
                    {
                        "transactionHash": "0x17b87cff6b95ac6db1f2ec95bbe4118f6a7f11ab156ec4cbf460e3af7ec99ac9",
                        "type": "0x00",
                        "cumulativeGasUsed": "0xd2f0",
                        "bloom": "0x00000000000000000000000000000000000000000000000000000000000000000000000000000000000000000000000000000000000000000000000000000000000000000000000000000000000000000000000000000000000000000000000000000000000000000000000000000000000000000000000000000000000000000000000000000000000000000000000000000000000000000000000000000000000000000000000000000000000000000000000000000000000000000000000000000000000000000000000000000000000000000000000000000000000000000000000000000000000000000000000000000000000000000000000000000000",
                        "logs": [],
                        "status": false,
                        "rlp": "0xf901088082d2f0b9010000000000000000000000000000000000000000000000000000000000000000000000000000000000000000000000000000000000000000000000000000000000000000000000000000000000000000000000000000000000000000000000000000000000000000000000000000000000000000000000000000000000000000000000000000000000000000000000000000000000000000000000000000000000000000000000000000000000000000000000000000000000000000000000000000000000000000000000000000000000000000000000000000000000000000000000000000000000000000000000000000000000000000000000000000000000c0"
                    }
                ],
                "rlp": "0xf902a1f90239a0cb2da082a8711391d749ea3e27258e40463ddd321938fce58acc09414e9f3746a01dcc4de8dec75d7aab85b567b6ccd41ad312451b948a7413f0a142fd40d49347942adc25665018aa1fe0e6bc666dac8fc2697ff9baa0ee2d3892e01a65b0f192beef18599c706b63e56bd6121a5cb572f9774bd2235ea0b64261ed971d7a0859d18e2938637692c0f710e1dbecf253fd4b71f39c5e617da0a0012fbba7ac8349cb3a08fc9718afc72efcd07c28df76cdc294f15c233f5003b901000000000000000000000000000000000000000000000000000000000000000000000000000000000000000000000000000000000000000000000000000000000000000000000000000000000000000000000000000000000000000000000000000000000000000000000000000000000000000000000000000000000000000000000000000000000000000000000000000000000000000000000000000000000000000000000000000000000000000000000000000000000000000000000000000000000000000000000000000000000000000000000000000000000000000000000000000000000000000000000000000000000000000000000000000000000080018398968082d2f08203e800a000000000000000000000000000000000000000000000000000000000000200008800000000000000000aa056e81f171bcc55a6ff8345e692c0f86e5b48e01b996cadc001622fb5e363b4218080a00000000000000000000000000000000000000000000000000000000000000000f861f85f800a82d2f0948e0ccabd6d1e4417e4e57ad96b20d694b1d40a2e808025a08ca45ca16455251a896366c8ce75ad6ddb97d677be5f1802209cb678617a28e8a07417e8aa1ccd712e2d4168bd986a5bc4f39096cecec385709096225af50fe12dc0c0",
                "blocknumber": "1"
            }
        ],
        "sealEngine": "NoProof",
        "_info": {
            "hash": "0xd6eb7f1b69e31af97fb540105f0b9cc00a80c213b3712993ffdb22c04bc7e72d",
            "fixture-format": "blockchain_test",
            "comment": "`execution-specs` generated test",
            "filling-transition-tool": "2.19.0",
            "description": "Call RETURNDATASIZE and RETURNDATACOPY after CREATE deploy a contract.",
            "url": "https://github.com/ethereum/execution-specs/blob/tests-snobal-devnet-5@v8037.0.0/tests/ported_static/stCreateTest/test_create_oo_gafter_init_code_returndata.py#L26",
            "metadata": {
                "opcode_count": {}
            }
        }
    },
    "tests/ported_static/stCreateTest/test_create_oo_gafter_init_code_returndata.py::test_create_oo_gafter_init_code_returndata[fork_Cancun-blockchain_test_from_state_test--g1]": {
        "network": "Cancun",
        "genesisBlockHeader": {
            "parentHash": "0x0000000000000000000000000000000000000000000000000000000000000000",
            "uncleHash": "0x1dcc4de8dec75d7aab85b567b6ccd41ad312451b948a7413f0a142fd40d49347",
            "coinbase": "0x0000000000000000000000000000000000000000",
            "stateRoot": "0xd5d51db30be23c82be83cc2b2bee495e1edfa0dca5617c5a04162099718d4d08",
            "transactionsTrie": "0x56e81f171bcc55a6ff8345e692c0f86e5b48e01b996cadc001622fb5e363b421",
            "receiptTrie": "0x56e81f171bcc55a6ff8345e692c0f86e5b48e01b996cadc001622fb5e363b421",
            "bloom": "0x00000000000000000000000000000000000000000000000000000000000000000000000000000000000000000000000000000000000000000000000000000000000000000000000000000000000000000000000000000000000000000000000000000000000000000000000000000000000000000000000000000000000000000000000000000000000000000000000000000000000000000000000000000000000000000000000000000000000000000000000000000000000000000000000000000000000000000000000000000000000000000000000000000000000000000000000000000000000000000000000000000000000000000000000000000000",
            "difficulty": "0x00",
            "number": "0x00",
            "gasLimit": "0x989680",
            "gasUsed": "0x00",
            "timestamp": "0x00",
            "extraData": "0x00",
            "mixHash": "0x0000000000000000000000000000000000000000000000000000000000000000",
            "nonce": "0x0000000000000000",
            "baseFeePerGas": "0x0b",
            "withdrawalsRoot": "0x56e81f171bcc55a6ff8345e692c0f86e5b48e01b996cadc001622fb5e363b421",
            "blobGasUsed": "0x00",
            "excessBlobGas": "0x00",
            "parentBeaconBlockRoot": "0x0000000000000000000000000000000000000000000000000000000000000000",
            "hash": "0xcb2da082a8711391d749ea3e27258e40463ddd321938fce58acc09414e9f3746"
        },
        "pre": {
            "0x000f3df6d732807ef1319fb7b8bb8522d0beac02": {
                "nonce": "0x01",
                "balance": "0x00",
                "code": "0x3373fffffffffffffffffffffffffffffffffffffffe14604d57602036146024575f5ffd5b5f35801560495762001fff810690815414603c575f5ffd5b62001fff01545f5260205ff35b5f5ffd5b62001fff42064281555f359062001fff015500",
                "storage": {}
            },
            "0xd719ccdb2301950b0a0bdf09a2bb1d5f8b225f6f": {
                "nonce": "0x00",
                "balance": "0xe8d4a51000",
                "code": "0x",
                "storage": {}
            },
            "0x8e0ccabd6d1e4417e4e57ad96b20d694b1d40a2e": {
                "nonce": "0x00",
                "balance": "0x00",
                "code": "0x6d6460016001556000526005601bf3600052600e60126000f0503d6001556020600060003e60005160025500",
                "storage": {}
            }
        },
        "postState": {
            "0x000f3df6d732807ef1319fb7b8bb8522d0beac02": {
                "nonce": "0x01",
                "balance": "0x00",
                "code": "0x3373fffffffffffffffffffffffffffffffffffffffe14604d57602036146024575f5ffd5b5f35801560495762001fff810690815414603c575f5ffd5b62001fff01545f5260205ff35b5f5ffd5b62001fff42064281555f359062001fff015500",
                "storage": {
                    "0x03e8": "0x03e8"
                }
            },
            "0xd719ccdb2301950b0a0bdf09a2bb1d5f8b225f6f": {
                "nonce": "0x01",
                "balance": "0xe8d4969110",
                "code": "0x",
                "storage": {}
            },
            "0x8e0ccabd6d1e4417e4e57ad96b20d694b1d40a2e": {
                "nonce": "0x00",
                "balance": "0x00",
                "code": "0x6d6460016001556000526005601bf3600052600e60126000f0503d6001556020600060003e60005160025500",
                "storage": {}
            }
        },
        "lastblockhash": "0xc3d20980b8706763eb9651965445512463b44c13f005c29e6fa37ad117a3fa4f",
        "config": {
            "network": "Cancun",
            "chainid": "0x01",
            "blobSchedule": {
                "Cancun": {
                    "target": "0x03",
                    "max": "0x06",
                    "baseFeeUpdateFraction": "0x32f0ed"
                }
            }
        },
        "genesisRLP": "0xf9023bf90235a00000000000000000000000000000000000000000000000000000000000000000a01dcc4de8dec75d7aab85b567b6ccd41ad312451b948a7413f0a142fd40d49347940000000000000000000000000000000000000000a0d5d51db30be23c82be83cc2b2bee495e1edfa0dca5617c5a04162099718d4d08a056e81f171bcc55a6ff8345e692c0f86e5b48e01b996cadc001622fb5e363b421a056e81f171bcc55a6ff8345e692c0f86e5b48e01b996cadc001622fb5e363b421b9010000000000000000000000000000000000000000000000000000000000000000000000000000000000000000000000000000000000000000000000000000000000000000000000000000000000000000000000000000000000000000000000000000000000000000000000000000000000000000000000000000000000000000000000000000000000000000000000000000000000000000000000000000000000000000000000000000000000000000000000000000000000000000000000000000000000000000000000000000000000000000000000000000000000000000000000000000000000000000000000000000000000000000000000000000000000808083989680808000a000000000000000000000000000000000000000000000000000000000000000008800000000000000000ba056e81f171bcc55a6ff8345e692c0f86e5b48e01b996cadc001622fb5e363b4218080a00000000000000000000000000000000000000000000000000000000000000000c0c0c0",
        "blocks": [
            {
                "blockHeader": {
                    "parentHash": "0xcb2da082a8711391d749ea3e27258e40463ddd321938fce58acc09414e9f3746",
                    "uncleHash": "0x1dcc4de8dec75d7aab85b567b6ccd41ad312451b948a7413f0a142fd40d49347",
                    "coinbase": "0x2adc25665018aa1fe0e6bc666dac8fc2697ff9ba",
                    "stateRoot": "0x86fc4ee1feecf85f26a742722d29851e28b91085010a222fef1e0fcf2d7e44af",
                    "transactionsTrie": "0x58c789d57fba0354955410e1fa9cec77e79e6ba9e6029eefa3f0910788656588",
                    "receiptTrie": "0x1bdcd930b7fdc5c12eb348343be4e7b6b5d1024f01ce0aa853862491e8095d8b",
                    "bloom": "0x00000000000000000000000000000000000000000000000000000000000000000000000000000000000000000000000000000000000000000000000000000000000000000000000000000000000000000000000000000000000000000000000000000000000000000000000000000000000000000000000000000000000000000000000000000000000000000000000000000000000000000000000000000000000000000000000000000000000000000000000000000000000000000000000000000000000000000000000000000000000000000000000000000000000000000000000000000000000000000000000000000000000000000000000000000000",
                    "difficulty": "0x00",
                    "number": "0x01",
                    "gasLimit": "0x989680",
                    "gasUsed": "0x017318",
                    "timestamp": "0x03e8",
                    "extraData": "0x00",
                    "mixHash": "0x0000000000000000000000000000000000000000000000000000000000020000",
                    "nonce": "0x0000000000000000",
                    "baseFeePerGas": "0x0a",
                    "withdrawalsRoot": "0x56e81f171bcc55a6ff8345e692c0f86e5b48e01b996cadc001622fb5e363b421",
                    "blobGasUsed": "0x00",
                    "excessBlobGas": "0x00",
                    "parentBeaconBlockRoot": "0x0000000000000000000000000000000000000000000000000000000000000000",
                    "hash": "0xc3d20980b8706763eb9651965445512463b44c13f005c29e6fa37ad117a3fa4f"
                },
                "transactions": [
                    {
                        "type": "0x00",
                        "chainId": "0x01",
                        "nonce": "0x00",
                        "gasPrice": "0x0a",
                        "gasLimit": "0x017318",
                        "to": "0x8e0ccabd6d1e4417e4e57ad96b20d694b1d40a2e",
                        "value": "0x00",
                        "data": "0x",
                        "v": "0x26",
                        "r": "0x500efe5cfd7fe310bd132a9f607cf0d307cc64013752314ed1e7067ad1108d17",
                        "s": "0x3cdd18e07ea476c119c5e18fa0838a452ec84098d46deb70c9d8d3b14791c2e5",
                        "sender": "0xd719ccdb2301950b0a0bdf09a2bb1d5f8b225f6f"
                    }
                ],
                "uncleHeaders": [],
                "withdrawals": [],
                "receipts": [
                    {
                        "transactionHash": "0x29634f325d7a78115f700d827fea542e1837fad4d56c48f0b2c02c8e3e92dce5",
                        "type": "0x00",
                        "cumulativeGasUsed": "0x017318",
                        "bloom": "0x00000000000000000000000000000000000000000000000000000000000000000000000000000000000000000000000000000000000000000000000000000000000000000000000000000000000000000000000000000000000000000000000000000000000000000000000000000000000000000000000000000000000000000000000000000000000000000000000000000000000000000000000000000000000000000000000000000000000000000000000000000000000000000000000000000000000000000000000000000000000000000000000000000000000000000000000000000000000000000000000000000000000000000000000000000000",
                        "logs": [],
                        "status": false,
                        "rlp": "0xf901098083017318b9010000000000000000000000000000000000000000000000000000000000000000000000000000000000000000000000000000000000000000000000000000000000000000000000000000000000000000000000000000000000000000000000000000000000000000000000000000000000000000000000000000000000000000000000000000000000000000000000000000000000000000000000000000000000000000000000000000000000000000000000000000000000000000000000000000000000000000000000000000000000000000000000000000000000000000000000000000000000000000000000000000000000000000000000000000000000c0"
                    }
                ],
                "rlp": "0xf902a3f9023aa0cb2da082a8711391d749ea3e27258e40463ddd321938fce58acc09414e9f3746a01dcc4de8dec75d7aab85b567b6ccd41ad312451b948a7413f0a142fd40d49347942adc25665018aa1fe0e6bc666dac8fc2697ff9baa086fc4ee1feecf85f26a742722d29851e28b91085010a222fef1e0fcf2d7e44afa058c789d57fba0354955410e1fa9cec77e79e6ba9e6029eefa3f0910788656588a01bdcd930b7fdc5c12eb348343be4e7b6b5d1024f01ce0aa853862491e8095d8bb9010000000000000000000000000000000000000000000000000000000000000000000000000000000000000000000000000000000000000000000000000000000000000000000000000000000000000000000000000000000000000000000000000000000000000000000000000000000000000000000000000000000000000000000000000000000000000000000000000000000000000000000000000000000000000000000000000000000000000000000000000000000000000000000000000000000000000000000000000000000000000000000000000000000000000000000000000000000000000000000000000000000000000000000000000000000000800183989680830173188203e800a000000000000000000000000000000000000000000000000000000000000200008800000000000000000aa056e81f171bcc55a6ff8345e692c0f86e5b48e01b996cadc001622fb5e363b4218080a00000000000000000000000000000000000000000000000000000000000000000f862f860800a83017318948e0ccabd6d1e4417e4e57ad96b20d694b1d40a2e808026a0500efe5cfd7fe310bd132a9f607cf0d307cc64013752314ed1e7067ad1108d17a03cdd18e07ea476c119c5e18fa0838a452ec84098d46deb70c9d8d3b14791c2e5c0c0",
                "blocknumber": "1"
            }
        ],
        "sealEngine": "NoProof",
        "_info": {
            "hash": "0x3deecdb4cf973b2366cbbdeea9fd83092b9b2e63f9d777a66da9591132ea0a0c",
            "fixture-format": "blockchain_test",
            "comment": "`execution-specs` generated test",
            "filling-transition-tool": "2.19.0",
            "description": "Call RETURNDATASIZE and RETURNDATACOPY after CREATE deploy a contract.",
            "url": "https://github.com/ethereum/execution-specs/blob/tests-snobal-devnet-5@v8037.0.0/tests/ported_static/stCreateTest/test_create_oo_gafter_init_code_returndata.py#L26",
            "metadata": {
                "opcode_count": {}
            }
        }
    }
}