{
    "tests/static/state_tests/stCallDelegateCodesHomestead/callcodecallcall_100Filler.json::callcodecallcall_100[fork_Cancun-state_test-]": {
        "env": {
            "currentCoinbase": "0x2adc25665018aa1fe0e6bc666dac8fc2697ff9ba",
            "currentGasLimit": "0x01c9c380",
            "currentNumber": "0x01",
            "currentTimestamp": "0x03e8",
            "currentRandom": "0x0000000000000000000000000000000000000000000000000000000000020000",
            "currentDifficulty": "0x00",
            "currentBaseFee": "0x0a",
            "currentExcessBlobGas": "0x00"
        },
        "pre": {
            "0xa5e66e1dd82887e7f0e1fe506f713629f3bb1ce5": {
                "nonce": "0x00",
                "balance": "0x0de0b6b3a7640000",
                "code": "0x",
                "storage": {}
            },
            "0xf24cf048d2c628967ed52cc4383831e15daca3da": {
                "nonce": "0x00",
                "balance": "0x00",
                "code": "0x600160035533600455346007553061014a553261014c55366101505538610152553a6101545500",
                "storage": {}
            },
            "0xf24cf048d2c628967ed52cc4383831e15daca4da": {
                "nonce": "0x00",
                "balance": "0x0de0b6b3a7640000",
                "code": "0x6040600060406000600273f24cf048d2c628967ed52cc4383831e15daca3da6203d090f160025500",
                "storage": {}
            },
            "0xf24cf048d2c628967ed52cc4383831e15daca5da": {
                "nonce": "0x00",
                "balance": "0x0de0b6b3a7640000",
                "code": "0x6040600060406000600173f24cf048d2c628967ed52cc4383831e15daca4da620493e0f16001553360055500",
                "storage": {}
            },
            "0xf24cf048d2c628967ed52cc4383831e15daca6da": {
                "nonce": "0x00",
                "balance": "0x0de0b6b3a7640000",
                "code": "0x604060006040600073f24cf048d2c628967ed52cc4383831e15daca5da62055730f460005500",
                "storage": {}
            }
        },
        "transaction": {
            "nonce": "0x00",
            "gasPrice": "0x0a",
            "gasLimit": [
                "0x2dc6c0"
            ],
            "to": "0xf24cf048d2c628967ed52cc4383831e15daca6da",
            "value": [
                "0x00"
            ],
            "data": [
                "0x"
            ],
            "sender": "0xa5e66e1dd82887e7f0e1fe506f713629f3bb1ce5",
            "secretKey": "0x1aeed4f49018270c80a1dd98f24cf048d2c628967ed52cc4383831e15daca3da"
        },
        "post": {
            "Cancun": [
                {
                    "hash": "0x947f354fbc0f1e7ae1fd73ae4afa09dacdaeb228b41bcee4d7342334615cc034",
                    "logs": "0x1dcc4de8dec75d7aab85b567b6ccd41ad312451b948a7413f0a142fd40d49347",
                    "txbytes": "0xf860800a832dc6c094f24cf048d2c628967ed52cc4383831e15daca6da808025a001cd229ba8f47ad68c2e09c502efdade81837cf7154d271aa405b4271fcbf50ca045768d77baf1ec09f1eb0a08c0875b3a00482bd0b296f9b9ba5f2c58ade3c3bd",
                    "indexes": {
                        "data": 0,
                        "gas": 0,
                        "value": 0
                    },
                    "state": {
                        "0xa5e66e1dd82887e7f0e1fe506f713629f3bb1ce5": {
                            "nonce": "0x01",
                            "balance": "0x0de0b6b3a73512fe",
                            "code": "0x",
                            "storage": {}
                        },
                        "0xf24cf048d2c628967ed52cc4383831e15daca3da": {
                            "nonce": "0x00",
                            "balance": "0x02",
                            "code": "0x600160035533600455346007553061014a553261014c55366101505538610152553a6101545500",
                            "storage": {
                                "0x03": "0x01",
                                "0x04": "0xf24cf048d2c628967ed52cc4383831e15daca4da",
                                "0x07": "0x02",
                                "0x014a": "0xf24cf048d2c628967ed52cc4383831e15daca3da",
                                "0x014c": "0xa5e66e1dd82887e7f0e1fe506f713629f3bb1ce5",
                                "0x0150": "0x40",
                                "0x0152": "0x27",
                                "0x0154": "0x0a"
                            }
                        },
                        "0xf24cf048d2c628967ed52cc4383831e15daca4da": {
                            "nonce": "0x00",
                            "balance": "0x0de0b6b3a763ffff",
                            "code": "0x6040600060406000600273f24cf048d2c628967ed52cc4383831e15daca3da6203d090f160025500",
                            "storage": {
                                "0x02": "0x01"
                            }
                        },
                        "0xf24cf048d2c628967ed52cc4383831e15daca5da": {
                            "nonce": "0x00",
                            "balance": "0x0de0b6b3a7640000",
                            "code": "0x6040600060406000600173f24cf048d2c628967ed52cc4383831e15daca4da620493e0f16001553360055500",
                            "storage": {}
                        },
                        "0xf24cf048d2c628967ed52cc4383831e15daca6da": {
                            "nonce": "0x00",
                            "balance": "0x0de0b6b3a763ffff",
                            "code": "0x604060006040600073f24cf048d2c628967ed52cc4383831e15daca5da62055730f460005500",
                            "storage": {
                                "0x01": "0x01",
                                "0x05": "0xa5e66e1dd82887e7f0e1fe506f713629f3bb1ce5",
                                "0x00": "0x01"
                            }
                        }
                    }
                }
            ]
        },
        "config": {
            "blobSchedule": {
                "Cancun": {
                    "target": "0x03",
                    "max": "0x06",
                    "baseFeeUpdateFraction": "0x32f0ed"
                }
            },
            "chainid": "0x01"
        },
        "_info": {
            "hash": "0x26e83353a8b43ee96527739bfbf80cf158ae6520693e9d48ef4dbedeb02c4310",
            "comment": "`execution-specs` generated test",
            "filling-transition-tool": "2.18.0rc6",
            "description": "No description available - add a docstring to the python test class or function.",
            "url": "",
            "fixture-format": "state_test"
        }
    },
    "tests/static/state_tests/stCallDelegateCodesHomestead/callcodecallcall_100Filler.json::callcodecallcall_100[fork_Osaka-state_test-]": {
        "env": {
            "currentCoinbase": "0x2adc25665018aa1fe0e6bc666dac8fc2697ff9ba",
            "currentGasLimit": "0x01c9c380",
            "currentNumber": "0x01",
            "currentTimestamp": "0x03e8",
            "currentRandom": "0x0000000000000000000000000000000000000000000000000000000000020000",
            "currentDifficulty": "0x00",
            "currentBaseFee": "0x0a",
            "currentExcessBlobGas": "0x00"
        },
        "pre": {
            "0xa5e66e1dd82887e7f0e1fe506f713629f3bb1ce5": {
                "nonce": "0x00",
                "balance": "0x0de0b6b3a7640000",
                "code": "0x",
                "storage": {}
            },
            "0xf24cf048d2c628967ed52cc4383831e15daca3da": {
                "nonce": "0x00",
                "balance": "0x00",
                "code": "0x600160035533600455346007553061014a553261014c55366101505538610152553a6101545500",
                "storage": {}
            },
            "0xf24cf048d2c628967ed52cc4383831e15daca4da": {
                "nonce": "0x00",
                "balance": "0x0de0b6b3a7640000",
                "code": "0x6040600060406000600273f24cf048d2c628967ed52cc4383831e15daca3da6203d090f160025500",
                "storage": {}
            },
            "0xf24cf048d2c628967ed52cc4383831e15daca5da": {
                "nonce": "0x00",
                "balance": "0x0de0b6b3a7640000",
                "code": "0x6040600060406000600173f24cf048d2c628967ed52cc4383831e15daca4da620493e0f16001553360055500",
                "storage": {}
            },
            "0xf24cf048d2c628967ed52cc4383831e15daca6da": {
                "nonce": "0x00",
                "balance": "0x0de0b6b3a7640000",
                "code": "0x604060006040600073f24cf048d2c628967ed52cc4383831e15daca5da62055730f460005500",
                "storage": {}
            }
        },
        "transaction": {
            "nonce": "0x00",
            "gasPrice": "0x0a",
            "gasLimit": [
                "0x2dc6c0"
            ],
            "to": "0xf24cf048d2c628967ed52cc4383831e15daca6da",
            "value": [
                "0x00"
            ],
            "data": [
                "0x"
            ],
            "sender": "0xa5e66e1dd82887e7f0e1fe506f713629f3bb1ce5",
            "secretKey": "0x1aeed4f49018270c80a1dd98f24cf048d2c628967ed52cc4383831e15daca3da"
        },
        "post": {
            "Osaka": [
                {
                    "hash": "0x947f354fbc0f1e7ae1fd73ae4afa09dacdaeb228b41bcee4d7342334615cc034",
                    "logs": "0x1dcc4de8dec75d7aab85b567b6ccd41ad312451b948a7413f0a142fd40d49347",
                    "txbytes": "0xf860800a832dc6c094f24cf048d2c628967ed52cc4383831e15daca6da808025a001cd229ba8f47ad68c2e09c502efdade81837cf7154d271aa405b4271fcbf50ca045768d77baf1ec09f1eb0a08c0875b3a00482bd0b296f9b9ba5f2c58ade3c3bd",
                    "indexes": {
                        "data": 0,
                        "gas": 0,
                        "value": 0
                    },
                    "state": {
                        "0xa5e66e1dd82887e7f0e1fe506f713629f3bb1ce5": {
                            "nonce": "0x01",
                            "balance": "0x0de0b6b3a73512fe",
                            "code": "0x",
                            "storage": {}
                        },
                        "0xf24cf048d2c628967ed52cc4383831e15daca3da": {
                            "nonce": "0x00",
                            "balance": "0x02",
                            "code": "0x600160035533600455346007553061014a553261014c55366101505538610152553a6101545500",
                            "storage": {
                                "0x03": "0x01",
                                "0x04": "0xf24cf048d2c628967ed52cc4383831e15daca4da",
                                "0x07": "0x02",
                                "0x014a": "0xf24cf048d2c628967ed52cc4383831e15daca3da",
                                "0x014c": "0xa5e66e1dd82887e7f0e1fe506f713629f3bb1ce5",
                                "0x0150": "0x40",
                                "0x0152": "0x27",
                                "0x0154": "0x0a"
                            }
                        },
                        "0xf24cf048d2c628967ed52cc4383831e15daca4da": {
                            "nonce": "0x00",
                            "balance": "0x0de0b6b3a763ffff",
                            "code": "0x6040600060406000600273f24cf048d2c628967ed52cc4383831e15daca3da6203d090f160025500",
                            "storage": {
                                "0x02": "0x01"
                            }
                        },
                        "0xf24cf048d2c628967ed52cc4383831e15daca5da": {
                            "nonce": "0x00",
                            "balance": "0x0de0b6b3a7640000",
                            "code": "0x6040600060406000600173f24cf048d2c628967ed52cc4383831e15daca4da620493e0f16001553360055500",
                            "storage": {}
                        },
                        "0xf24cf048d2c628967ed52cc4383831e15daca6da": {
                            "nonce": "0x00",
                            "balance": "0x0de0b6b3a763ffff",
                            "code": "0x604060006040600073f24cf048d2c628967ed52cc4383831e15daca5da62055730f460005500",
                            "storage": {
                                "0x01": "0x01",
                                "0x05": "0xa5e66e1dd82887e7f0e1fe506f713629f3bb1ce5",
                                "0x00": "0x01"
                            }
                        }
                    }
                }
            ]
        },
        "config": {
            "blobSchedule": {
                "Cancun": {
                    "target": "0x03",
                    "max": "0x06",
                    "baseFeeUpdateFraction": "0x32f0ed"
                },
                "Prague": {
                    "target": "0x06",
                    "max": "0x09",
                    "baseFeeUpdateFraction": "0x4c6964"
                },
                "Osaka": {
                    "target": "0x06",
                    "max": "0x09",
                    "baseFeeUpdateFraction": "0x4c6964"
                }
            },
            "chainid": "0x01"
        },
        "_info": {
            "hash": "0x1c3425720756843b7f1231b0c6e98ac3a1b4ad07988123b46a703fd6a0cca75f",
            "comment": "`execution-specs` generated test",
            "filling-transition-tool": "2.18.0rc6",
            "description": "No description available - add a docstring to the python test class or function.",
            "url": "",
            "fixture-format": "state_test"
        }
    },
    "tests/static/state_tests/stCallDelegateCodesHomestead/callcodecallcall_100Filler.json::callcodecallcall_100[fork_Prague-state_test-]": {
        "env": {
            "currentCoinbase": "0x2adc25665018aa1fe0e6bc666dac8fc2697ff9ba",
            "currentGasLimit": "0x01c9c380",
            "currentNumber": "0x01",
            "currentTimestamp": "0x03e8",
            "currentRandom": "0x0000000000000000000000000000000000000000000000000000000000020000",
            "currentDifficulty": "0x00",
            "currentBaseFee": "0x0a",
            "currentExcessBlobGas": "0x00"
        },
        "pre": {
            "0xa5e66e1dd82887e7f0e1fe506f713629f3bb1ce5": {
                "nonce": "0x00",
                "balance": "0x0de0b6b3a7640000",
                "code": "0x",
                "storage": {}
            },
            "0xf24cf048d2c628967ed52cc4383831e15daca3da": {
                "nonce": "0x00",
                "balance": "0x00",
                "code": "0x600160035533600455346007553061014a553261014c55366101505538610152553a6101545500",
                "storage": {}
            },
            "0xf24cf048d2c628967ed52cc4383831e15daca4da": {
                "nonce": "0x00",
                "balance": "0x0de0b6b3a7640000",
                "code": "0x6040600060406000600273f24cf048d2c628967ed52cc4383831e15daca3da6203d090f160025500",
                "storage": {}
            },
            "0xf24cf048d2c628967ed52cc4383831e15daca5da": {
                "nonce": "0x00",
                "balance": "0x0de0b6b3a7640000",
                "code": "0x6040600060406000600173f24cf048d2c628967ed52cc4383831e15daca4da620493e0f16001553360055500",
                "storage": {}
            },
            "0xf24cf048d2c628967ed52cc4383831e15daca6da": {
                "nonce": "0x00",
                "balance": "0x0de0b6b3a7640000",
                "code": "0x604060006040600073f24cf048d2c628967ed52cc4383831e15daca5da62055730f460005500",
                "storage": {}
            }
        },
        "transaction": {
            "nonce": "0x00",
            "gasPrice": "0x0a",
            "gasLimit": [
                "0x2dc6c0"
            ],
            "to": "0xf24cf048d2c628967ed52cc4383831e15daca6da",
            "value": [
                "0x00"
            ],
            "data": [
                "0x"
            ],
            "sender": "0xa5e66e1dd82887e7f0e1fe506f713629f3bb1ce5",
            "secretKey": "0x1aeed4f49018270c80a1dd98f24cf048d2c628967ed52cc4383831e15daca3da"
        },
        "post": {
            "Prague": [
                {
                    "hash": "0x947f354fbc0f1e7ae1fd73ae4afa09dacdaeb228b41bcee4d7342334615cc034",
                    "logs": "0x1dcc4de8dec75d7aab85b567b6ccd41ad312451b948a7413f0a142fd40d49347",
                    "txbytes": "0xf860800a832dc6c094f24cf048d2c628967ed52cc4383831e15daca6da808025a001cd229ba8f47ad68c2e09c502efdade81837cf7154d271aa405b4271fcbf50ca045768d77baf1ec09f1eb0a08c0875b3a00482bd0b296f9b9ba5f2c58ade3c3bd",
                    "indexes": {
                        "data": 0,
                        "gas": 0,
                        "value": 0
                    },
                    "state": {
                        "0xa5e66e1dd82887e7f0e1fe506f713629f3bb1ce5": {
                            "nonce": "0x01",
                            "balance": "0x0de0b6b3a73512fe",
                            "code": "0x",
                            "storage": {}
                        },
                        "0xf24cf048d2c628967ed52cc4383831e15daca3da": {
                            "nonce": "0x00",
                            "balance": "0x02",
                            "code": "0x600160035533600455346007553061014a553261014c55366101505538610152553a6101545500",
                            "storage": {
                                "0x03": "0x01",
                                "0x04": "0xf24cf048d2c628967ed52cc4383831e15daca4da",
                                "0x07": "0x02",
                                "0x014a": "0xf24cf048d2c628967ed52cc4383831e15daca3da",
                                "0x014c": "0xa5e66e1dd82887e7f0e1fe506f713629f3bb1ce5",
                                "0x0150": "0x40",
                                "0x0152": "0x27",
                                "0x0154": "0x0a"
                            }
                        },
                        "0xf24cf048d2c628967ed52cc4383831e15daca4da": {
                            "nonce": "0x00",
                            "balance": "0x0de0b6b3a763ffff",
                            "code": "0x6040600060406000600273f24cf048d2c628967ed52cc4383831e15daca3da6203d090f160025500",
                            "storage": {
                                "0x02": "0x01"
                            }
                        },
                        "0xf24cf048d2c628967ed52cc4383831e15daca5da": {
                            "nonce": "0x00",
                            "balance": "0x0de0b6b3a7640000",
                            "code": "0x6040600060406000600173f24cf048d2c628967ed52cc4383831e15daca4da620493e0f16001553360055500",
                            "storage": {}
                        },
                        "0xf24cf048d2c628967ed52cc4383831e15daca6da": {
                            "nonce": "0x00",
                            "balance": "0x0de0b6b3a763ffff",
                            "code": "0x604060006040600073f24cf048d2c628967ed52cc4383831e15daca5da62055730f460005500",
                            "storage": {
                                "0x01": "0x01",
                                "0x05": "0xa5e66e1dd82887e7f0e1fe506f713629f3bb1ce5",
                                "0x00": "0x01"
                            }
                        }
                    }
                }
            ]
        },
        "config": {
            "blobSchedule": {
                "Cancun": {
                    "target": "0x03",
                    "max": "0x06",
                    "baseFeeUpdateFraction": "0x32f0ed"
                },
                "Prague": {
                    "target": "0x06",
                    "max": "0x09",
                    "baseFeeUpdateFraction": "0x4c6964"
                }
            },
            "chainid": "0x01"
        },
        "_info": {
            "hash": "0x8c780479fd23ac84383de7a889940ea590741bbaf7d9854daff605b036f9817a",
            "comment": "`execution-specs` generated test",
            "filling-transition-tool": "2.18.0rc6",
            "description": "No description available - add a docstring to the python test class or function.",
            "url": "",
            "fixture-format": "state_test"
        }
    }
}