{
    "tests/static/state_tests/stCallDelegateCodesHomestead/callcallcode_01Filler.json::callcallcode_01[fork_Cancun-state_test-]": {
        "env": {
            "currentCoinbase": "0x2adc25665018aa1fe0e6bc666dac8fc2697ff9ba",
            "currentGasLimit": "0x01c9c380",
            "currentNumber": "0x01",
            "currentTimestamp": "0x03e8",
            "currentRandom": "0x0000000000000000000000000000000000000000000000000000000000020000",
            "currentDifficulty": "0x00",
            "currentBaseFee": "0x0a",
            "currentExcessBlobGas": "0x00"
        },
        "pre": {
            "0xa6405a61f8c71650739caaa775318484632d936c": {
                "nonce": "0x00",
                "balance": "0x0de0b6b3a7640000",
                "code": "0x",
                "storage": {}
            },
            "0x389bc9dbde45ba80aba1fb76dc8353791ffbda80": {
                "nonce": "0x00",
                "balance": "0x00",
                "code": "0x600160025533600455346007553060e6553260e8553660ec553860ee553a60f05500",
                "storage": {}
            },
            "0x389bc9dbde45ba80aba1fb76dc8353791ffbdb80": {
                "nonce": "0x00",
                "balance": "0x00",
                "code": "0x604060006040600073389bc9dbde45ba80aba1fb76dc8353791ffbda806203d090f460015500",
                "storage": {}
            },
            "0x389bc9dbde45ba80aba1fb76dc8353791ffbdc80": {
                "nonce": "0x00",
                "balance": "0x0de0b6b3a7640000",
                "code": "0x6040600060406000600173389bc9dbde45ba80aba1fb76dc8353791ffbdb8062055730f160005500",
                "storage": {}
            }
        },
        "transaction": {
            "nonce": "0x00",
            "gasPrice": "0x0a",
            "gasLimit": [
                "0x2dc6c0"
            ],
            "to": "0x389bc9dbde45ba80aba1fb76dc8353791ffbdc80",
            "value": [
                "0x00"
            ],
            "data": [
                "0x"
            ],
            "sender": "0xa6405a61f8c71650739caaa775318484632d936c",
            "secretKey": "0xc7679983ba5aa3cbc982260f389bc9dbde45ba80aba1fb76dc8353791ffbda80"
        },
        "post": {
            "Cancun": [
                {
                    "hash": "0x8fd4359aab67bc888c4816207adf47e377505fcdafc7aa5688314c4e98dd2e25",
                    "logs": "0x1dcc4de8dec75d7aab85b567b6ccd41ad312451b948a7413f0a142fd40d49347",
                    "txbytes": "0xf860800a832dc6c094389bc9dbde45ba80aba1fb76dc8353791ffbdc80808026a019d30632be945efd5630193604981c88705afd14a1eeaa3dc8204863c3159b4ba0172efbb882b494ebfbe9876a13521290c36915fe1b989f24cac34bdcca44a270",
                    "indexes": {
                        "data": 0,
                        "gas": 0,
                        "value": 0
                    },
                    "state": {
                        "0xa6405a61f8c71650739caaa775318484632d936c": {
                            "nonce": "0x01",
                            "balance": "0x0de0b6b3a73d3e34",
                            "code": "0x",
                            "storage": {}
                        },
                        "0x389bc9dbde45ba80aba1fb76dc8353791ffbda80": {
                            "nonce": "0x00",
                            "balance": "0x00",
                            "code": "0x600160025533600455346007553060e6553260e8553660ec553860ee553a60f05500",
                            "storage": {}
                        },
                        "0x389bc9dbde45ba80aba1fb76dc8353791ffbdb80": {
                            "nonce": "0x00",
                            "balance": "0x01",
                            "code": "0x604060006040600073389bc9dbde45ba80aba1fb76dc8353791ffbda806203d090f460015500",
                            "storage": {
                                "0x02": "0x01",
                                "0x04": "0x389bc9dbde45ba80aba1fb76dc8353791ffbdc80",
                                "0x07": "0x01",
                                "0xe6": "0x389bc9dbde45ba80aba1fb76dc8353791ffbdb80",
                                "0xe8": "0xa6405a61f8c71650739caaa775318484632d936c",
                                "0xec": "0x40",
                                "0xee": "0x22",
                                "0xf0": "0x0a",
                                "0x01": "0x01"
                            }
                        },
                        "0x389bc9dbde45ba80aba1fb76dc8353791ffbdc80": {
                            "nonce": "0x00",
                            "balance": "0x0de0b6b3a763ffff",
                            "code": "0x6040600060406000600173389bc9dbde45ba80aba1fb76dc8353791ffbdb8062055730f160005500",
                            "storage": {
                                "0x00": "0x01"
                            }
                        }
                    }
                }
            ]
        },
        "config": {
            "blobSchedule": {
                "Cancun": {
                    "target": "0x03",
                    "max": "0x06",
                    "baseFeeUpdateFraction": "0x32f0ed"
                }
            },
            "chainid": "0x01"
        },
        "_info": {
            "hash": "0x3442e574cadbd9f05781d362f5b7b6fde3d60650a79b9b4d6ff2222efb833308",
            "comment": "`execution-specs` generated test",
            "filling-transition-tool": "2.18.0rc6",
            "description": "No description available - add a docstring to the python test class or function.",
            "url": "",
            "fixture-format": "state_test"
        }
    },
    "tests/static/state_tests/stCallDelegateCodesHomestead/callcallcode_01Filler.json::callcallcode_01[fork_Osaka-state_test-]": {
        "env": {
            "currentCoinbase": "0x2adc25665018aa1fe0e6bc666dac8fc2697ff9ba",
            "currentGasLimit": "0x01c9c380",
            "currentNumber": "0x01",
            "currentTimestamp": "0x03e8",
            "currentRandom": "0x0000000000000000000000000000000000000000000000000000000000020000",
            "currentDifficulty": "0x00",
            "currentBaseFee": "0x0a",
            "currentExcessBlobGas": "0x00"
        },
        "pre": {
            "0xa6405a61f8c71650739caaa775318484632d936c": {
                "nonce": "0x00",
                "balance": "0x0de0b6b3a7640000",
                "code": "0x",
                "storage": {}
            },
            "0x389bc9dbde45ba80aba1fb76dc8353791ffbda80": {
                "nonce": "0x00",
                "balance": "0x00",
                "code": "0x600160025533600455346007553060e6553260e8553660ec553860ee553a60f05500",
                "storage": {}
            },
            "0x389bc9dbde45ba80aba1fb76dc8353791ffbdb80": {
                "nonce": "0x00",
                "balance": "0x00",
                "code": "0x604060006040600073389bc9dbde45ba80aba1fb76dc8353791ffbda806203d090f460015500",
                "storage": {}
            },
            "0x389bc9dbde45ba80aba1fb76dc8353791ffbdc80": {
                "nonce": "0x00",
                "balance": "0x0de0b6b3a7640000",
                "code": "0x6040600060406000600173389bc9dbde45ba80aba1fb76dc8353791ffbdb8062055730f160005500",
                "storage": {}
            }
        },
        "transaction": {
            "nonce": "0x00",
            "gasPrice": "0x0a",
            "gasLimit": [
                "0x2dc6c0"
            ],
            "to": "0x389bc9dbde45ba80aba1fb76dc8353791ffbdc80",
            "value": [
                "0x00"
            ],
            "data": [
                "0x"
            ],
            "sender": "0xa6405a61f8c71650739caaa775318484632d936c",
            "secretKey": "0xc7679983ba5aa3cbc982260f389bc9dbde45ba80aba1fb76dc8353791ffbda80"
        },
        "post": {
            "Osaka": [
                {
                    "hash": "0x8fd4359aab67bc888c4816207adf47e377505fcdafc7aa5688314c4e98dd2e25",
                    "logs": "0x1dcc4de8dec75d7aab85b567b6ccd41ad312451b948a7413f0a142fd40d49347",
                    "txbytes": "0xf860800a832dc6c094389bc9dbde45ba80aba1fb76dc8353791ffbdc80808026a019d30632be945efd5630193604981c88705afd14a1eeaa3dc8204863c3159b4ba0172efbb882b494ebfbe9876a13521290c36915fe1b989f24cac34bdcca44a270",
                    "indexes": {
                        "data": 0,
                        "gas": 0,
                        "value": 0
                    },
                    "state": {
                        "0xa6405a61f8c71650739caaa775318484632d936c": {
                            "nonce": "0x01",
                            "balance": "0x0de0b6b3a73d3e34",
                            "code": "0x",
                            "storage": {}
                        },
                        "0x389bc9dbde45ba80aba1fb76dc8353791ffbda80": {
                            "nonce": "0x00",
                            "balance": "0x00",
                            "code": "0x600160025533600455346007553060e6553260e8553660ec553860ee553a60f05500",
                            "storage": {}
                        },
                        "0x389bc9dbde45ba80aba1fb76dc8353791ffbdb80": {
                            "nonce": "0x00",
                            "balance": "0x01",
                            "code": "0x604060006040600073389bc9dbde45ba80aba1fb76dc8353791ffbda806203d090f460015500",
                            "storage": {
                                "0x02": "0x01",
                                "0x04": "0x389bc9dbde45ba80aba1fb76dc8353791ffbdc80",
                                "0x07": "0x01",
                                "0xe6": "0x389bc9dbde45ba80aba1fb76dc8353791ffbdb80",
                                "0xe8": "0xa6405a61f8c71650739caaa775318484632d936c",
                                "0xec": "0x40",
                                "0xee": "0x22",
                                "0xf0": "0x0a",
                                "0x01": "0x01"
                            }
                        },
                        "0x389bc9dbde45ba80aba1fb76dc8353791ffbdc80": {
                            "nonce": "0x00",
                            "balance": "0x0de0b6b3a763ffff",
                            "code": "0x6040600060406000600173389bc9dbde45ba80aba1fb76dc8353791ffbdb8062055730f160005500",
                            "storage": {
                                "0x00": "0x01"
                            }
                        }
                    }
                }
            ]
        },
        "config": {
            "blobSchedule": {
                "Cancun": {
                    "target": "0x03",
                    "max": "0x06",
                    "baseFeeUpdateFraction": "0x32f0ed"
                },
                "Prague": {
                    "target": "0x06",
                    "max": "0x09",
                    "baseFeeUpdateFraction": "0x4c6964"
                },
                "Osaka": {
                    "target": "0x06",
                    "max": "0x09",
                    "baseFeeUpdateFraction": "0x4c6964"
                }
            },
            "chainid": "0x01"
        },
        "_info": {
            "hash": "0xfb756d8227b7081d9624f8ff6c7798f1c30219e6c054f61b61131a7fbc7fc16d",
            "comment": "`execution-specs` generated test",
            "filling-transition-tool": "2.18.0rc6",
            "description": "No description available - add a docstring to the python test class or function.",
            "url": "",
            "fixture-format": "state_test"
        }
    },
    "tests/static/state_tests/stCallDelegateCodesHomestead/callcallcode_01Filler.json::callcallcode_01[fork_Prague-state_test-]": {
        "env": {
            "currentCoinbase": "0x2adc25665018aa1fe0e6bc666dac8fc2697ff9ba",
            "currentGasLimit": "0x01c9c380",
            "currentNumber": "0x01",
            "currentTimestamp": "0x03e8",
            "currentRandom": "0x0000000000000000000000000000000000000000000000000000000000020000",
            "currentDifficulty": "0x00",
            "currentBaseFee": "0x0a",
            "currentExcessBlobGas": "0x00"
        },
        "pre": {
            "0xa6405a61f8c71650739caaa775318484632d936c": {
                "nonce": "0x00",
                "balance": "0x0de0b6b3a7640000",
                "code": "0x",
                "storage": {}
            },
            "0x389bc9dbde45ba80aba1fb76dc8353791ffbda80": {
                "nonce": "0x00",
                "balance": "0x00",
                "code": "0x600160025533600455346007553060e6553260e8553660ec553860ee553a60f05500",
                "storage": {}
            },
            "0x389bc9dbde45ba80aba1fb76dc8353791ffbdb80": {
                "nonce": "0x00",
                "balance": "0x00",
                "code": "0x604060006040600073389bc9dbde45ba80aba1fb76dc8353791ffbda806203d090f460015500",
                "storage": {}
            },
            "0x389bc9dbde45ba80aba1fb76dc8353791ffbdc80": {
                "nonce": "0x00",
                "balance": "0x0de0b6b3a7640000",
                "code": "0x6040600060406000600173389bc9dbde45ba80aba1fb76dc8353791ffbdb8062055730f160005500",
                "storage": {}
            }
        },
        "transaction": {
            "nonce": "0x00",
            "gasPrice": "0x0a",
            "gasLimit": [
                "0x2dc6c0"
            ],
            "to": "0x389bc9dbde45ba80aba1fb76dc8353791ffbdc80",
            "value": [
                "0x00"
            ],
            "data": [
                "0x"
            ],
            "sender": "0xa6405a61f8c71650739caaa775318484632d936c",
            "secretKey": "0xc7679983ba5aa3cbc982260f389bc9dbde45ba80aba1fb76dc8353791ffbda80"
        },
        "post": {
            "Prague": [
                {
                    "hash": "0x8fd4359aab67bc888c4816207adf47e377505fcdafc7aa5688314c4e98dd2e25",
                    "logs": "0x1dcc4de8dec75d7aab85b567b6ccd41ad312451b948a7413f0a142fd40d49347",
                    "txbytes": "0xf860800a832dc6c094389bc9dbde45ba80aba1fb76dc8353791ffbdc80808026a019d30632be945efd5630193604981c88705afd14a1eeaa3dc8204863c3159b4ba0172efbb882b494ebfbe9876a13521290c36915fe1b989f24cac34bdcca44a270",
                    "indexes": {
                        "data": 0,
                        "gas": 0,
                        "value": 0
                    },
                    "state": {
                        "0xa6405a61f8c71650739caaa775318484632d936c": {
                            "nonce": "0x01",
                            "balance": "0x0de0b6b3a73d3e34",
                            "code": "0x",
                            "storage": {}
                        },
                        "0x389bc9dbde45ba80aba1fb76dc8353791ffbda80": {
                            "nonce": "0x00",
                            "balance": "0x00",
                            "code": "0x600160025533600455346007553060e6553260e8553660ec553860ee553a60f05500",
                            "storage": {}
                        },
                        "0x389bc9dbde45ba80aba1fb76dc8353791ffbdb80": {
                            "nonce": "0x00",
                            "balance": "0x01",
                            "code": "0x604060006040600073389bc9dbde45ba80aba1fb76dc8353791ffbda806203d090f460015500",
                            "storage": {
                                "0x02": "0x01",
                                "0x04": "0x389bc9dbde45ba80aba1fb76dc8353791ffbdc80",
                                "0x07": "0x01",
                                "0xe6": "0x389bc9dbde45ba80aba1fb76dc8353791ffbdb80",
                                "0xe8": "0xa6405a61f8c71650739caaa775318484632d936c",
                                "0xec": "0x40",
                                "0xee": "0x22",
                                "0xf0": "0x0a",
                                "0x01": "0x01"
                            }
                        },
                        "0x389bc9dbde45ba80aba1fb76dc8353791ffbdc80": {
                            "nonce": "0x00",
                            "balance": "0x0de0b6b3a763ffff",
                            "code": "0x6040600060406000600173389bc9dbde45ba80aba1fb76dc8353791ffbdb8062055730f160005500",
                            "storage": {
                                "0x00": "0x01"
                            }
                        }
                    }
                }
            ]
        },
        "config": {
            "blobSchedule": {
                "Cancun": {
                    "target": "0x03",
                    "max": "0x06",
                    "baseFeeUpdateFraction": "0x32f0ed"
                },
                "Prague": {
                    "target": "0x06",
                    "max": "0x09",
                    "baseFeeUpdateFraction": "0x4c6964"
                }
            },
            "chainid": "0x01"
        },
        "_info": {
            "hash": "0xb80fad9dca6dec9f47276d18c524d6510051a50152d07593b32c60a4b1b2adc0",
            "comment": "`execution-specs` generated test",
            "filling-transition-tool": "2.18.0rc6",
            "description": "No description available - add a docstring to the python test class or function.",
            "url": "",
            "fixture-format": "state_test"
        }
    }
}