{
    "tests/static/state_tests/stCallDelegateCodesHomestead/callcodecallcallcode_101Filler.json::callcodecallcallcode_101[fork_Cancun-state_test-]": {
        "env": {
            "currentCoinbase": "0x2adc25665018aa1fe0e6bc666dac8fc2697ff9ba",
            "currentGasLimit": "0x01c9c380",
            "currentNumber": "0x01",
            "currentTimestamp": "0x03e8",
            "currentRandom": "0x0000000000000000000000000000000000000000000000000000000000020000",
            "currentDifficulty": "0x00",
            "currentBaseFee": "0x0a",
            "currentExcessBlobGas": "0x00"
        },
        "pre": {
            "0xe77f96f429780908ea1bd191a0817a871c717fe1": {
                "nonce": "0x00",
                "balance": "0x0de0b6b3a7640000",
                "code": "0x",
                "storage": {}
            },
            "0x32cadf5ad10223aab07002c35ce574aa2674d053": {
                "nonce": "0x00",
                "balance": "0x00",
                "code": "0x600160035533600455346007553061014a553261014c55366101505538610152553a6101545500",
                "storage": {}
            },
            "0x32cadf5ad10223aab07002c35ce574aa2674d153": {
                "nonce": "0x00",
                "balance": "0x0de0b6b3a7640000",
                "code": "0x60406000604060007332cadf5ad10223aab07002c35ce574aa2674d0536203d090f46002553360065500",
                "storage": {}
            },
            "0x32cadf5ad10223aab07002c35ce574aa2674d253": {
                "nonce": "0x00",
                "balance": "0x0de0b6b3a7640000",
                "code": "0x604060006040600060017332cadf5ad10223aab07002c35ce574aa2674d153620493e0f16001553360055500",
                "storage": {}
            },
            "0x32cadf5ad10223aab07002c35ce574aa2674d353": {
                "nonce": "0x00",
                "balance": "0x0de0b6b3a7640000",
                "code": "0x60406000604060007332cadf5ad10223aab07002c35ce574aa2674d25362055730f460005500",
                "storage": {}
            }
        },
        "transaction": {
            "nonce": "0x00",
            "gasPrice": "0x0a",
            "gasLimit": [
                "0x2dc6c0"
            ],
            "to": "0x32cadf5ad10223aab07002c35ce574aa2674d353",
            "value": [
                "0x00"
            ],
            "data": [
                "0x"
            ],
            "sender": "0xe77f96f429780908ea1bd191a0817a871c717fe1",
            "secretKey": "0xeecf42030b67a26c4a761f1732cadf5ad10223aab07002c35ce574aa2674d053"
        },
        "post": {
            "Cancun": [
                {
                    "hash": "0x47373ee53b31f9c2502b899fac93b81f8776dfdbf2bf18fc0d8693e3ac8f530d",
                    "logs": "0x1dcc4de8dec75d7aab85b567b6ccd41ad312451b948a7413f0a142fd40d49347",
                    "txbytes": "0xf860800a832dc6c09432cadf5ad10223aab07002c35ce574aa2674d353808025a0e33b25bbbcc660260651b26a962f683d620bcb7b6606353e483d7dc87e60ce22a029bf2549d531e3bd28e6515141c12898fbb4b36532a4218ff0a1559a59985933",
                    "indexes": {
                        "data": 0,
                        "gas": 0,
                        "value": 0
                    },
                    "state": {
                        "0xe77f96f429780908ea1bd191a0817a871c717fe1": {
                            "nonce": "0x01",
                            "balance": "0x0de0b6b3a732b95a",
                            "code": "0x",
                            "storage": {}
                        },
                        "0x32cadf5ad10223aab07002c35ce574aa2674d053": {
                            "nonce": "0x00",
                            "balance": "0x00",
                            "code": "0x600160035533600455346007553061014a553261014c55366101505538610152553a6101545500",
                            "storage": {}
                        },
                        "0x32cadf5ad10223aab07002c35ce574aa2674d153": {
                            "nonce": "0x00",
                            "balance": "0x0de0b6b3a7640001",
                            "code": "0x60406000604060007332cadf5ad10223aab07002c35ce574aa2674d0536203d090f46002553360065500",
                            "storage": {
                                "0x03": "0x01",
                                "0x04": "0x32cadf5ad10223aab07002c35ce574aa2674d353",
                                "0x07": "0x01",
                                "0x014a": "0x32cadf5ad10223aab07002c35ce574aa2674d153",
                                "0x014c": "0xe77f96f429780908ea1bd191a0817a871c717fe1",
                                "0x0150": "0x40",
                                "0x0152": "0x27",
                                "0x0154": "0x0a",
                                "0x02": "0x01",
                                "0x06": "0x32cadf5ad10223aab07002c35ce574aa2674d353"
                            }
                        },
                        "0x32cadf5ad10223aab07002c35ce574aa2674d253": {
                            "nonce": "0x00",
                            "balance": "0x0de0b6b3a7640000",
                            "code": "0x604060006040600060017332cadf5ad10223aab07002c35ce574aa2674d153620493e0f16001553360055500",
                            "storage": {}
                        },
                        "0x32cadf5ad10223aab07002c35ce574aa2674d353": {
                            "nonce": "0x00",
                            "balance": "0x0de0b6b3a763ffff",
                            "code": "0x60406000604060007332cadf5ad10223aab07002c35ce574aa2674d25362055730f460005500",
                            "storage": {
                                "0x01": "0x01",
                                "0x05": "0xe77f96f429780908ea1bd191a0817a871c717fe1",
                                "0x00": "0x01"
                            }
                        }
                    }
                }
            ]
        },
        "config": {
            "blobSchedule": {
                "Cancun": {
                    "target": "0x03",
                    "max": "0x06",
                    "baseFeeUpdateFraction": "0x32f0ed"
                }
            },
            "chainid": "0x01"
        },
        "_info": {
            "hash": "0x451fba87daa745cc19004fda24e9789ba08e13e0be7ce8eabfb7c25377d8bc2f",
            "comment": "`execution-spec-tests` generated test",
            "filling-transition-tool": "ethereum-spec-evm-resolver 0.0.5",
            "description": "No description available - add a docstring to the python test class or function.",
            "url": "",
            "fixture-format": "state_test",
            "eels-resolution": {
                "git-url": "https://github.com/marioevz/execution-specs.git",
                "branch": "forks/bpo1",
                "commit": "3387e5f4aedfe99becfdc39b444d6371e25e0924"
            }
        }
    },
    "tests/static/state_tests/stCallDelegateCodesHomestead/callcodecallcallcode_101Filler.json::callcodecallcallcode_101[fork_Osaka-state_test-]": {
        "env": {
            "currentCoinbase": "0x2adc25665018aa1fe0e6bc666dac8fc2697ff9ba",
            "currentGasLimit": "0x01c9c380",
            "currentNumber": "0x01",
            "currentTimestamp": "0x03e8",
            "currentRandom": "0x0000000000000000000000000000000000000000000000000000000000020000",
            "currentDifficulty": "0x00",
            "currentBaseFee": "0x0a",
            "currentExcessBlobGas": "0x00"
        },
        "pre": {
            "0xe77f96f429780908ea1bd191a0817a871c717fe1": {
                "nonce": "0x00",
                "balance": "0x0de0b6b3a7640000",
                "code": "0x",
                "storage": {}
            },
            "0x32cadf5ad10223aab07002c35ce574aa2674d053": {
                "nonce": "0x00",
                "balance": "0x00",
                "code": "0x600160035533600455346007553061014a553261014c55366101505538610152553a6101545500",
                "storage": {}
            },
            "0x32cadf5ad10223aab07002c35ce574aa2674d153": {
                "nonce": "0x00",
                "balance": "0x0de0b6b3a7640000",
                "code": "0x60406000604060007332cadf5ad10223aab07002c35ce574aa2674d0536203d090f46002553360065500",
                "storage": {}
            },
            "0x32cadf5ad10223aab07002c35ce574aa2674d253": {
                "nonce": "0x00",
                "balance": "0x0de0b6b3a7640000",
                "code": "0x604060006040600060017332cadf5ad10223aab07002c35ce574aa2674d153620493e0f16001553360055500",
                "storage": {}
            },
            "0x32cadf5ad10223aab07002c35ce574aa2674d353": {
                "nonce": "0x00",
                "balance": "0x0de0b6b3a7640000",
                "code": "0x60406000604060007332cadf5ad10223aab07002c35ce574aa2674d25362055730f460005500",
                "storage": {}
            }
        },
        "transaction": {
            "nonce": "0x00",
            "gasPrice": "0x0a",
            "gasLimit": [
                "0x2dc6c0"
            ],
            "to": "0x32cadf5ad10223aab07002c35ce574aa2674d353",
            "value": [
                "0x00"
            ],
            "data": [
                "0x"
            ],
            "sender": "0xe77f96f429780908ea1bd191a0817a871c717fe1",
            "secretKey": "0xeecf42030b67a26c4a761f1732cadf5ad10223aab07002c35ce574aa2674d053"
        },
        "post": {
            "Osaka": [
                {
                    "hash": "0x47373ee53b31f9c2502b899fac93b81f8776dfdbf2bf18fc0d8693e3ac8f530d",
                    "logs": "0x1dcc4de8dec75d7aab85b567b6ccd41ad312451b948a7413f0a142fd40d49347",
                    "txbytes": "0xf860800a832dc6c09432cadf5ad10223aab07002c35ce574aa2674d353808025a0e33b25bbbcc660260651b26a962f683d620bcb7b6606353e483d7dc87e60ce22a029bf2549d531e3bd28e6515141c12898fbb4b36532a4218ff0a1559a59985933",
                    "indexes": {
                        "data": 0,
                        "gas": 0,
                        "value": 0
                    },
                    "state": {
                        "0xe77f96f429780908ea1bd191a0817a871c717fe1": {
                            "nonce": "0x01",
                            "balance": "0x0de0b6b3a732b95a",
                            "code": "0x",
                            "storage": {}
                        },
                        "0x32cadf5ad10223aab07002c35ce574aa2674d053": {
                            "nonce": "0x00",
                            "balance": "0x00",
                            "code": "0x600160035533600455346007553061014a553261014c55366101505538610152553a6101545500",
                            "storage": {}
                        },
                        "0x32cadf5ad10223aab07002c35ce574aa2674d153": {
                            "nonce": "0x00",
                            "balance": "0x0de0b6b3a7640001",
                            "code": "0x60406000604060007332cadf5ad10223aab07002c35ce574aa2674d0536203d090f46002553360065500",
                            "storage": {
                                "0x03": "0x01",
                                "0x04": "0x32cadf5ad10223aab07002c35ce574aa2674d353",
                                "0x07": "0x01",
                                "0x014a": "0x32cadf5ad10223aab07002c35ce574aa2674d153",
                                "0x014c": "0xe77f96f429780908ea1bd191a0817a871c717fe1",
                                "0x0150": "0x40",
                                "0x0152": "0x27",
                                "0x0154": "0x0a",
                                "0x02": "0x01",
                                "0x06": "0x32cadf5ad10223aab07002c35ce574aa2674d353"
                            }
                        },
                        "0x32cadf5ad10223aab07002c35ce574aa2674d253": {
                            "nonce": "0x00",
                            "balance": "0x0de0b6b3a7640000",
                            "code": "0x604060006040600060017332cadf5ad10223aab07002c35ce574aa2674d153620493e0f16001553360055500",
                            "storage": {}
                        },
                        "0x32cadf5ad10223aab07002c35ce574aa2674d353": {
                            "nonce": "0x00",
                            "balance": "0x0de0b6b3a763ffff",
                            "code": "0x60406000604060007332cadf5ad10223aab07002c35ce574aa2674d25362055730f460005500",
                            "storage": {
                                "0x01": "0x01",
                                "0x05": "0xe77f96f429780908ea1bd191a0817a871c717fe1",
                                "0x00": "0x01"
                            }
                        }
                    }
                }
            ]
        },
        "config": {
            "blobSchedule": {
                "Cancun": {
                    "target": "0x03",
                    "max": "0x06",
                    "baseFeeUpdateFraction": "0x32f0ed"
                },
                "Prague": {
                    "target": "0x06",
                    "max": "0x09",
                    "baseFeeUpdateFraction": "0x4c6964"
                },
                "Osaka": {
                    "target": "0x06",
                    "max": "0x09",
                    "baseFeeUpdateFraction": "0x4c6964"
                }
            },
            "chainid": "0x01"
        },
        "_info": {
            "hash": "0x2441a210603d7ab15ce3334e3a6240f74ecc0b87bbcf6301787e3282508717f4",
            "comment": "`execution-spec-tests` generated test",
            "filling-transition-tool": "ethereum-spec-evm-resolver 0.0.5",
            "description": "No description available - add a docstring to the python test class or function.",
            "url": "",
            "fixture-format": "state_test",
            "eels-resolution": {
                "git-url": "https://github.com/marioevz/execution-specs.git",
                "branch": "forks/bpo1",
                "commit": "3387e5f4aedfe99becfdc39b444d6371e25e0924"
            }
        }
    },
    "tests/static/state_tests/stCallDelegateCodesHomestead/callcodecallcallcode_101Filler.json::callcodecallcallcode_101[fork_Prague-state_test-]": {
        "env": {
            "currentCoinbase": "0x2adc25665018aa1fe0e6bc666dac8fc2697ff9ba",
            "currentGasLimit": "0x01c9c380",
            "currentNumber": "0x01",
            "currentTimestamp": "0x03e8",
            "currentRandom": "0x0000000000000000000000000000000000000000000000000000000000020000",
            "currentDifficulty": "0x00",
            "currentBaseFee": "0x0a",
            "currentExcessBlobGas": "0x00"
        },
        "pre": {
            "0xe77f96f429780908ea1bd191a0817a871c717fe1": {
                "nonce": "0x00",
                "balance": "0x0de0b6b3a7640000",
                "code": "0x",
                "storage": {}
            },
            "0x32cadf5ad10223aab07002c35ce574aa2674d053": {
                "nonce": "0x00",
                "balance": "0x00",
                "code": "0x600160035533600455346007553061014a553261014c55366101505538610152553a6101545500",
                "storage": {}
            },
            "0x32cadf5ad10223aab07002c35ce574aa2674d153": {
                "nonce": "0x00",
                "balance": "0x0de0b6b3a7640000",
                "code": "0x60406000604060007332cadf5ad10223aab07002c35ce574aa2674d0536203d090f46002553360065500",
                "storage": {}
            },
            "0x32cadf5ad10223aab07002c35ce574aa2674d253": {
                "nonce": "0x00",
                "balance": "0x0de0b6b3a7640000",
                "code": "0x604060006040600060017332cadf5ad10223aab07002c35ce574aa2674d153620493e0f16001553360055500",
                "storage": {}
            },
            "0x32cadf5ad10223aab07002c35ce574aa2674d353": {
                "nonce": "0x00",
                "balance": "0x0de0b6b3a7640000",
                "code": "0x60406000604060007332cadf5ad10223aab07002c35ce574aa2674d25362055730f460005500",
                "storage": {}
            }
        },
        "transaction": {
            "nonce": "0x00",
            "gasPrice": "0x0a",
            "gasLimit": [
                "0x2dc6c0"
            ],
            "to": "0x32cadf5ad10223aab07002c35ce574aa2674d353",
            "value": [
                "0x00"
            ],
            "data": [
                "0x"
            ],
            "sender": "0xe77f96f429780908ea1bd191a0817a871c717fe1",
            "secretKey": "0xeecf42030b67a26c4a761f1732cadf5ad10223aab07002c35ce574aa2674d053"
        },
        "post": {
            "Prague": [
                {
                    "hash": "0x47373ee53b31f9c2502b899fac93b81f8776dfdbf2bf18fc0d8693e3ac8f530d",
                    "logs": "0x1dcc4de8dec75d7aab85b567b6ccd41ad312451b948a7413f0a142fd40d49347",
                    "txbytes": "0xf860800a832dc6c09432cadf5ad10223aab07002c35ce574aa2674d353808025a0e33b25bbbcc660260651b26a962f683d620bcb7b6606353e483d7dc87e60ce22a029bf2549d531e3bd28e6515141c12898fbb4b36532a4218ff0a1559a59985933",
                    "indexes": {
                        "data": 0,
                        "gas": 0,
                        "value": 0
                    },
                    "state": {
                        "0xe77f96f429780908ea1bd191a0817a871c717fe1": {
                            "nonce": "0x01",
                            "balance": "0x0de0b6b3a732b95a",
                            "code": "0x",
                            "storage": {}
                        },
                        "0x32cadf5ad10223aab07002c35ce574aa2674d053": {
                            "nonce": "0x00",
                            "balance": "0x00",
                            "code": "0x600160035533600455346007553061014a553261014c55366101505538610152553a6101545500",
                            "storage": {}
                        },
                        "0x32cadf5ad10223aab07002c35ce574aa2674d153": {
                            "nonce": "0x00",
                            "balance": "0x0de0b6b3a7640001",
                            "code": "0x60406000604060007332cadf5ad10223aab07002c35ce574aa2674d0536203d090f46002553360065500",
                            "storage": {
                                "0x03": "0x01",
                                "0x04": "0x32cadf5ad10223aab07002c35ce574aa2674d353",
                                "0x07": "0x01",
                                "0x014a": "0x32cadf5ad10223aab07002c35ce574aa2674d153",
                                "0x014c": "0xe77f96f429780908ea1bd191a0817a871c717fe1",
                                "0x0150": "0x40",
                                "0x0152": "0x27",
                                "0x0154": "0x0a",
                                "0x02": "0x01",
                                "0x06": "0x32cadf5ad10223aab07002c35ce574aa2674d353"
                            }
                        },
                        "0x32cadf5ad10223aab07002c35ce574aa2674d253": {
                            "nonce": "0x00",
                            "balance": "0x0de0b6b3a7640000",
                            "code": "0x604060006040600060017332cadf5ad10223aab07002c35ce574aa2674d153620493e0f16001553360055500",
                            "storage": {}
                        },
                        "0x32cadf5ad10223aab07002c35ce574aa2674d353": {
                            "nonce": "0x00",
                            "balance": "0x0de0b6b3a763ffff",
                            "code": "0x60406000604060007332cadf5ad10223aab07002c35ce574aa2674d25362055730f460005500",
                            "storage": {
                                "0x01": "0x01",
                                "0x05": "0xe77f96f429780908ea1bd191a0817a871c717fe1",
                                "0x00": "0x01"
                            }
                        }
                    }
                }
            ]
        },
        "config": {
            "blobSchedule": {
                "Cancun": {
                    "target": "0x03",
                    "max": "0x06",
                    "baseFeeUpdateFraction": "0x32f0ed"
                },
                "Prague": {
                    "target": "0x06",
                    "max": "0x09",
                    "baseFeeUpdateFraction": "0x4c6964"
                }
            },
            "chainid": "0x01"
        },
        "_info": {
            "hash": "0x4694cdcbd2aa910551872e375caaa2c7073414fa30fdd9b70a68839c817c2a8a",
            "comment": "`execution-spec-tests` generated test",
            "filling-transition-tool": "ethereum-spec-evm-resolver 0.0.5",
            "description": "No description available - add a docstring to the python test class or function.",
            "url": "",
            "fixture-format": "state_test",
            "eels-resolution": {
                "git-url": "https://github.com/marioevz/execution-specs.git",
                "branch": "forks/bpo1",
                "commit": "3387e5f4aedfe99becfdc39b444d6371e25e0924"
            }
        }
    }
}