{
    "tests/static/state_tests/stCallDelegateCodesHomestead/callcallcodecall_010_OOGMBeforeFiller.json::callcallcodecall_010_OOGMBefore[fork_Cancun-state_test-]": {
        "env": {
            "currentCoinbase": "0x2adc25665018aa1fe0e6bc666dac8fc2697ff9ba",
            "currentGasLimit": "0x01c9c380",
            "currentNumber": "0x01",
            "currentTimestamp": "0x03e8",
            "currentRandom": "0x0000000000000000000000000000000000000000000000000000000000020000",
            "currentDifficulty": "0x00",
            "currentBaseFee": "0x0a",
            "currentExcessBlobGas": "0x00"
        },
        "pre": {
            "0x3523b14642a1de48429884ec935945cab4204bfc": {
                "nonce": "0x00",
                "balance": "0x0de0b6b3a7640000",
                "code": "0x",
                "storage": {}
            },
            "0x97c9754a5c61df04ae0cb0b0e8a3929a32c5d377": {
                "nonce": "0x00",
                "balance": "0x00",
                "code": "0x600160035500",
                "storage": {}
            },
            "0x97c9754a5c61df04ae0cb0b0e8a3929a32c5d477": {
                "nonce": "0x00",
                "balance": "0x00",
                "code": "0x622fffff60002050604060006040600060007397c9754a5c61df04ae0cb0b0e8a3929a32c5d37762061a80f160025500",
                "storage": {}
            },
            "0x97c9754a5c61df04ae0cb0b0e8a3929a32c5d577": {
                "nonce": "0x00",
                "balance": "0x00",
                "code": "0x60406000604060007397c9754a5c61df04ae0cb0b0e8a3929a32c5d477620927c0f46001556001600b5500",
                "storage": {}
            },
            "0x97c9754a5c61df04ae0cb0b0e8a3929a32c5d677": {
                "nonce": "0x00",
                "balance": "0x0de0b6b3a7640000",
                "code": "0x604060006040600060007397c9754a5c61df04ae0cb0b0e8a3929a32c5d577620c3500f160005500",
                "storage": {}
            }
        },
        "transaction": {
            "nonce": "0x00",
            "gasPrice": "0x0a",
            "gasLimit": [
                "0x0f4240"
            ],
            "to": "0x97c9754a5c61df04ae0cb0b0e8a3929a32c5d677",
            "value": [
                "0x00"
            ],
            "data": [
                "0x"
            ],
            "sender": "0x3523b14642a1de48429884ec935945cab4204bfc",
            "secretKey": "0x86584ea2810fce6cc2b8478497c9754a5c61df04ae0cb0b0e8a3929a32c5d377"
        },
        "post": {
            "Cancun": [
                {
                    "hash": "0xedfeaa31007b157a58cc46d673e678ac577c61df8e1578bff1405c2083045b49",
                    "logs": "0x1dcc4de8dec75d7aab85b567b6ccd41ad312451b948a7413f0a142fd40d49347",
                    "txbytes": "0xf860800a830f42409497c9754a5c61df04ae0cb0b0e8a3929a32c5d677808025a0a3cf1113f2d0e49e70ef29a838dfc070043b7a7bcb608942fa00e85f8cd36383a073411cf391bc29f108dd79e6824b8ec9c64db36ff0b9fee63e326303f8545aae",
                    "indexes": {
                        "data": 0,
                        "gas": 0,
                        "value": 0
                    },
                    "state": {
                        "0x3523b14642a1de48429884ec935945cab4204bfc": {
                            "nonce": "0x01",
                            "balance": "0x0de0b6b3a6fd5c1a",
                            "code": "0x",
                            "storage": {}
                        },
                        "0x97c9754a5c61df04ae0cb0b0e8a3929a32c5d377": {
                            "nonce": "0x00",
                            "balance": "0x00",
                            "code": "0x600160035500",
                            "storage": {}
                        },
                        "0x97c9754a5c61df04ae0cb0b0e8a3929a32c5d477": {
                            "nonce": "0x00",
                            "balance": "0x00",
                            "code": "0x622fffff60002050604060006040600060007397c9754a5c61df04ae0cb0b0e8a3929a32c5d37762061a80f160025500",
                            "storage": {}
                        },
                        "0x97c9754a5c61df04ae0cb0b0e8a3929a32c5d577": {
                            "nonce": "0x00",
                            "balance": "0x00",
                            "code": "0x60406000604060007397c9754a5c61df04ae0cb0b0e8a3929a32c5d477620927c0f46001556001600b5500",
                            "storage": {
                                "0x0b": "0x01"
                            }
                        },
                        "0x97c9754a5c61df04ae0cb0b0e8a3929a32c5d677": {
                            "nonce": "0x00",
                            "balance": "0x0de0b6b3a7640000",
                            "code": "0x604060006040600060007397c9754a5c61df04ae0cb0b0e8a3929a32c5d577620c3500f160005500",
                            "storage": {
                                "0x00": "0x01"
                            }
                        }
                    }
                }
            ]
        },
        "config": {
            "blobSchedule": {
                "Cancun": {
                    "target": "0x03",
                    "max": "0x06",
                    "baseFeeUpdateFraction": "0x32f0ed"
                }
            },
            "chainid": "0x01"
        },
        "_info": {
            "hash": "0x123603d4ffa24f154147cf361d88c55fc1a4006f04516de55d0cff8210a2576e",
            "comment": "`execution-specs` generated test",
            "filling-transition-tool": "2.18.0rc6",
            "description": "No description available - add a docstring to the python test class or function.",
            "url": "",
            "fixture-format": "state_test"
        }
    },
    "tests/static/state_tests/stCallDelegateCodesHomestead/callcallcodecall_010_OOGMBeforeFiller.json::callcallcodecall_010_OOGMBefore[fork_Osaka-state_test-]": {
        "env": {
            "currentCoinbase": "0x2adc25665018aa1fe0e6bc666dac8fc2697ff9ba",
            "currentGasLimit": "0x01c9c380",
            "currentNumber": "0x01",
            "currentTimestamp": "0x03e8",
            "currentRandom": "0x0000000000000000000000000000000000000000000000000000000000020000",
            "currentDifficulty": "0x00",
            "currentBaseFee": "0x0a",
            "currentExcessBlobGas": "0x00"
        },
        "pre": {
            "0x3523b14642a1de48429884ec935945cab4204bfc": {
                "nonce": "0x00",
                "balance": "0x0de0b6b3a7640000",
                "code": "0x",
                "storage": {}
            },
            "0x97c9754a5c61df04ae0cb0b0e8a3929a32c5d377": {
                "nonce": "0x00",
                "balance": "0x00",
                "code": "0x600160035500",
                "storage": {}
            },
            "0x97c9754a5c61df04ae0cb0b0e8a3929a32c5d477": {
                "nonce": "0x00",
                "balance": "0x00",
                "code": "0x622fffff60002050604060006040600060007397c9754a5c61df04ae0cb0b0e8a3929a32c5d37762061a80f160025500",
                "storage": {}
            },
            "0x97c9754a5c61df04ae0cb0b0e8a3929a32c5d577": {
                "nonce": "0x00",
                "balance": "0x00",
                "code": "0x60406000604060007397c9754a5c61df04ae0cb0b0e8a3929a32c5d477620927c0f46001556001600b5500",
                "storage": {}
            },
            "0x97c9754a5c61df04ae0cb0b0e8a3929a32c5d677": {
                "nonce": "0x00",
                "balance": "0x0de0b6b3a7640000",
                "code": "0x604060006040600060007397c9754a5c61df04ae0cb0b0e8a3929a32c5d577620c3500f160005500",
                "storage": {}
            }
        },
        "transaction": {
            "nonce": "0x00",
            "gasPrice": "0x0a",
            "gasLimit": [
                "0x0f4240"
            ],
            "to": "0x97c9754a5c61df04ae0cb0b0e8a3929a32c5d677",
            "value": [
                "0x00"
            ],
            "data": [
                "0x"
            ],
            "sender": "0x3523b14642a1de48429884ec935945cab4204bfc",
            "secretKey": "0x86584ea2810fce6cc2b8478497c9754a5c61df04ae0cb0b0e8a3929a32c5d377"
        },
        "post": {
            "Osaka": [
                {
                    "hash": "0xedfeaa31007b157a58cc46d673e678ac577c61df8e1578bff1405c2083045b49",
                    "logs": "0x1dcc4de8dec75d7aab85b567b6ccd41ad312451b948a7413f0a142fd40d49347",
                    "txbytes": "0xf860800a830f42409497c9754a5c61df04ae0cb0b0e8a3929a32c5d677808025a0a3cf1113f2d0e49e70ef29a838dfc070043b7a7bcb608942fa00e85f8cd36383a073411cf391bc29f108dd79e6824b8ec9c64db36ff0b9fee63e326303f8545aae",
                    "indexes": {
                        "data": 0,
                        "gas": 0,
                        "value": 0
                    },
                    "state": {
                        "0x3523b14642a1de48429884ec935945cab4204bfc": {
                            "nonce": "0x01",
                            "balance": "0x0de0b6b3a6fd5c1a",
                            "code": "0x",
                            "storage": {}
                        },
                        "0x97c9754a5c61df04ae0cb0b0e8a3929a32c5d377": {
                            "nonce": "0x00",
                            "balance": "0x00",
                            "code": "0x600160035500",
                            "storage": {}
                        },
                        "0x97c9754a5c61df04ae0cb0b0e8a3929a32c5d477": {
                            "nonce": "0x00",
                            "balance": "0x00",
                            "code": "0x622fffff60002050604060006040600060007397c9754a5c61df04ae0cb0b0e8a3929a32c5d37762061a80f160025500",
                            "storage": {}
                        },
                        "0x97c9754a5c61df04ae0cb0b0e8a3929a32c5d577": {
                            "nonce": "0x00",
                            "balance": "0x00",
                            "code": "0x60406000604060007397c9754a5c61df04ae0cb0b0e8a3929a32c5d477620927c0f46001556001600b5500",
                            "storage": {
                                "0x0b": "0x01"
                            }
                        },
                        "0x97c9754a5c61df04ae0cb0b0e8a3929a32c5d677": {
                            "nonce": "0x00",
                            "balance": "0x0de0b6b3a7640000",
                            "code": "0x604060006040600060007397c9754a5c61df04ae0cb0b0e8a3929a32c5d577620c3500f160005500",
                            "storage": {
                                "0x00": "0x01"
                            }
                        }
                    }
                }
            ]
        },
        "config": {
            "blobSchedule": {
                "Cancun": {
                    "target": "0x03",
                    "max": "0x06",
                    "baseFeeUpdateFraction": "0x32f0ed"
                },
                "Prague": {
                    "target": "0x06",
                    "max": "0x09",
                    "baseFeeUpdateFraction": "0x4c6964"
                },
                "Osaka": {
                    "target": "0x06",
                    "max": "0x09",
                    "baseFeeUpdateFraction": "0x4c6964"
                }
            },
            "chainid": "0x01"
        },
        "_info": {
            "hash": "0x9d0a91438b541442f2e8a15efba1d3c5cfcf40730c35d5a78696f4975dce06bb",
            "comment": "`execution-specs` generated test",
            "filling-transition-tool": "2.18.0rc6",
            "description": "No description available - add a docstring to the python test class or function.",
            "url": "",
            "fixture-format": "state_test"
        }
    },
    "tests/static/state_tests/stCallDelegateCodesHomestead/callcallcodecall_010_OOGMBeforeFiller.json::callcallcodecall_010_OOGMBefore[fork_Prague-state_test-]": {
        "env": {
            "currentCoinbase": "0x2adc25665018aa1fe0e6bc666dac8fc2697ff9ba",
            "currentGasLimit": "0x01c9c380",
            "currentNumber": "0x01",
            "currentTimestamp": "0x03e8",
            "currentRandom": "0x0000000000000000000000000000000000000000000000000000000000020000",
            "currentDifficulty": "0x00",
            "currentBaseFee": "0x0a",
            "currentExcessBlobGas": "0x00"
        },
        "pre": {
            "0x3523b14642a1de48429884ec935945cab4204bfc": {
                "nonce": "0x00",
                "balance": "0x0de0b6b3a7640000",
                "code": "0x",
                "storage": {}
            },
            "0x97c9754a5c61df04ae0cb0b0e8a3929a32c5d377": {
                "nonce": "0x00",
                "balance": "0x00",
                "code": "0x600160035500",
                "storage": {}
            },
            "0x97c9754a5c61df04ae0cb0b0e8a3929a32c5d477": {
                "nonce": "0x00",
                "balance": "0x00",
                "code": "0x622fffff60002050604060006040600060007397c9754a5c61df04ae0cb0b0e8a3929a32c5d37762061a80f160025500",
                "storage": {}
            },
            "0x97c9754a5c61df04ae0cb0b0e8a3929a32c5d577": {
                "nonce": "0x00",
                "balance": "0x00",
                "code": "0x60406000604060007397c9754a5c61df04ae0cb0b0e8a3929a32c5d477620927c0f46001556001600b5500",
                "storage": {}
            },
            "0x97c9754a5c61df04ae0cb0b0e8a3929a32c5d677": {
                "nonce": "0x00",
                "balance": "0x0de0b6b3a7640000",
                "code": "0x604060006040600060007397c9754a5c61df04ae0cb0b0e8a3929a32c5d577620c3500f160005500",
                "storage": {}
            }
        },
        "transaction": {
            "nonce": "0x00",
            "gasPrice": "0x0a",
            "gasLimit": [
                "0x0f4240"
            ],
            "to": "0x97c9754a5c61df04ae0cb0b0e8a3929a32c5d677",
            "value": [
                "0x00"
            ],
            "data": [
                "0x"
            ],
            "sender": "0x3523b14642a1de48429884ec935945cab4204bfc",
            "secretKey": "0x86584ea2810fce6cc2b8478497c9754a5c61df04ae0cb0b0e8a3929a32c5d377"
        },
        "post": {
            "Prague": [
                {
                    "hash": "0xedfeaa31007b157a58cc46d673e678ac577c61df8e1578bff1405c2083045b49",
                    "logs": "0x1dcc4de8dec75d7aab85b567b6ccd41ad312451b948a7413f0a142fd40d49347",
                    "txbytes": "0xf860800a830f42409497c9754a5c61df04ae0cb0b0e8a3929a32c5d677808025a0a3cf1113f2d0e49e70ef29a838dfc070043b7a7bcb608942fa00e85f8cd36383a073411cf391bc29f108dd79e6824b8ec9c64db36ff0b9fee63e326303f8545aae",
                    "indexes": {
                        "data": 0,
                        "gas": 0,
                        "value": 0
                    },
                    "state": {
                        "0x3523b14642a1de48429884ec935945cab4204bfc": {
                            "nonce": "0x01",
                            "balance": "0x0de0b6b3a6fd5c1a",
                            "code": "0x",
                            "storage": {}
                        },
                        "0x97c9754a5c61df04ae0cb0b0e8a3929a32c5d377": {
                            "nonce": "0x00",
                            "balance": "0x00",
                            "code": "0x600160035500",
                            "storage": {}
                        },
                        "0x97c9754a5c61df04ae0cb0b0e8a3929a32c5d477": {
                            "nonce": "0x00",
                            "balance": "0x00",
                            "code": "0x622fffff60002050604060006040600060007397c9754a5c61df04ae0cb0b0e8a3929a32c5d37762061a80f160025500",
                            "storage": {}
                        },
                        "0x97c9754a5c61df04ae0cb0b0e8a3929a32c5d577": {
                            "nonce": "0x00",
                            "balance": "0x00",
                            "code": "0x60406000604060007397c9754a5c61df04ae0cb0b0e8a3929a32c5d477620927c0f46001556001600b5500",
                            "storage": {
                                "0x0b": "0x01"
                            }
                        },
                        "0x97c9754a5c61df04ae0cb0b0e8a3929a32c5d677": {
                            "nonce": "0x00",
                            "balance": "0x0de0b6b3a7640000",
                            "code": "0x604060006040600060007397c9754a5c61df04ae0cb0b0e8a3929a32c5d577620c3500f160005500",
                            "storage": {
                                "0x00": "0x01"
                            }
                        }
                    }
                }
            ]
        },
        "config": {
            "blobSchedule": {
                "Cancun": {
                    "target": "0x03",
                    "max": "0x06",
                    "baseFeeUpdateFraction": "0x32f0ed"
                },
                "Prague": {
                    "target": "0x06",
                    "max": "0x09",
                    "baseFeeUpdateFraction": "0x4c6964"
                }
            },
            "chainid": "0x01"
        },
        "_info": {
            "hash": "0x1036632ba13a69aa5b1ee58000f35e7643ca2eba51658c9f01cc9ff2d93343dc",
            "comment": "`execution-specs` generated test",
            "filling-transition-tool": "2.18.0rc6",
            "description": "No description available - add a docstring to the python test class or function.",
            "url": "",
            "fixture-format": "state_test"
        }
    }
}