{
    "tests/static/state_tests/stCallDelegateCodesHomestead/callcodecallcodecallcode_111Filler.json::callcodecallcodecallcode_111[fork_Cancun-state_test-]": {
        "env": {
            "currentCoinbase": "0x2adc25665018aa1fe0e6bc666dac8fc2697ff9ba",
            "currentGasLimit": "0x01c9c380",
            "currentNumber": "0x01",
            "currentTimestamp": "0x03e8",
            "currentRandom": "0x0000000000000000000000000000000000000000000000000000000000020000",
            "currentDifficulty": "0x00",
            "currentBaseFee": "0x0a",
            "currentExcessBlobGas": "0x00"
        },
        "pre": {
            "0xfcdf9b5afe9abb9ff1840c29f31d4f7247f02178": {
                "nonce": "0x00",
                "balance": "0x0de0b6b3a7640000",
                "code": "0x",
                "storage": {}
            },
            "0xd84728b2ac684580cbfb561206d0253eaf06741c": {
                "nonce": "0x00",
                "balance": "0x00",
                "code": "0x600160035533600455346007553061014a553261014c55366101505538610152553a6101545500",
                "storage": {}
            },
            "0xd84728b2ac684580cbfb561206d0253eaf06751c": {
                "nonce": "0x00",
                "balance": "0x0de0b6b3a7640000",
                "code": "0x604060006040600073d84728b2ac684580cbfb561206d0253eaf06741c6203d090f460025500",
                "storage": {}
            },
            "0xd84728b2ac684580cbfb561206d0253eaf06761c": {
                "nonce": "0x00",
                "balance": "0x0de0b6b3a7640000",
                "code": "0x604060006040600073d84728b2ac684580cbfb561206d0253eaf06751c620493e0f460015500",
                "storage": {}
            },
            "0xd84728b2ac684580cbfb561206d0253eaf06771c": {
                "nonce": "0x00",
                "balance": "0x0de0b6b3a7640000",
                "code": "0x604060006040600073d84728b2ac684580cbfb561206d0253eaf06761c62055730f460005500",
                "storage": {}
            }
        },
        "transaction": {
            "nonce": "0x00",
            "gasPrice": "0x0a",
            "gasLimit": [
                "0x2dc6c0"
            ],
            "to": "0xd84728b2ac684580cbfb561206d0253eaf06771c",
            "value": [
                "0x00"
            ],
            "data": [
                "0x"
            ],
            "sender": "0xfcdf9b5afe9abb9ff1840c29f31d4f7247f02178",
            "secretKey": "0x8c886cc4c17dfae199160933d84728b2ac684580cbfb561206d0253eaf06741c"
        },
        "post": {
            "Cancun": [
                {
                    "hash": "0x429d3fff303aeeaab1d4dfc1e0021f1c56652f2aa8a0749ee1f359801eca641f",
                    "logs": "0x1dcc4de8dec75d7aab85b567b6ccd41ad312451b948a7413f0a142fd40d49347",
                    "txbytes": "0xf860800a832dc6c094d84728b2ac684580cbfb561206d0253eaf06771c808025a0333f02a91b857633531dcd049e076ee821c17a3cbf72881f2f5da5394008397aa06baa5da4c5d6adc655e31d6d2f58bf5b6a3ca0a275113293dbf08bac5532778e",
                    "indexes": {
                        "data": 0,
                        "gas": 0,
                        "value": 0
                    },
                    "state": {
                        "0xfcdf9b5afe9abb9ff1840c29f31d4f7247f02178": {
                            "nonce": "0x01",
                            "balance": "0x0de0b6b3a73d877c",
                            "code": "0x",
                            "storage": {}
                        },
                        "0xd84728b2ac684580cbfb561206d0253eaf06741c": {
                            "nonce": "0x00",
                            "balance": "0x00",
                            "code": "0x600160035533600455346007553061014a553261014c55366101505538610152553a6101545500",
                            "storage": {}
                        },
                        "0xd84728b2ac684580cbfb561206d0253eaf06751c": {
                            "nonce": "0x00",
                            "balance": "0x0de0b6b3a7640000",
                            "code": "0x604060006040600073d84728b2ac684580cbfb561206d0253eaf06741c6203d090f460025500",
                            "storage": {}
                        },
                        "0xd84728b2ac684580cbfb561206d0253eaf06761c": {
                            "nonce": "0x00",
                            "balance": "0x0de0b6b3a7640000",
                            "code": "0x604060006040600073d84728b2ac684580cbfb561206d0253eaf06751c620493e0f460015500",
                            "storage": {}
                        },
                        "0xd84728b2ac684580cbfb561206d0253eaf06771c": {
                            "nonce": "0x00",
                            "balance": "0x0de0b6b3a7640000",
                            "code": "0x604060006040600073d84728b2ac684580cbfb561206d0253eaf06761c62055730f460005500",
                            "storage": {
                                "0x03": "0x01",
                                "0x04": "0xfcdf9b5afe9abb9ff1840c29f31d4f7247f02178",
                                "0x014a": "0xd84728b2ac684580cbfb561206d0253eaf06771c",
                                "0x014c": "0xfcdf9b5afe9abb9ff1840c29f31d4f7247f02178",
                                "0x0150": "0x40",
                                "0x0152": "0x27",
                                "0x0154": "0x0a",
                                "0x02": "0x01",
                                "0x01": "0x01",
                                "0x00": "0x01"
                            }
                        }
                    }
                }
            ]
        },
        "config": {
            "blobSchedule": {
                "Cancun": {
                    "target": "0x03",
                    "max": "0x06",
                    "baseFeeUpdateFraction": "0x32f0ed"
                }
            },
            "chainid": "0x01"
        },
        "_info": {
            "hash": "0x9a983ece263696abe09c13927bf39a2455d729c9a4ba39aa7f85b405fafc2735",
            "comment": "`execution-spec-tests` generated test",
            "filling-transition-tool": "ethereum-spec-evm-resolver 0.0.5",
            "description": "No description available - add a docstring to the python test class or function.",
            "url": "",
            "fixture-format": "state_test",
            "eels-resolution": {
                "git-url": "https://github.com/marioevz/execution-specs.git",
                "branch": "forks/bpo1",
                "commit": "3387e5f4aedfe99becfdc39b444d6371e25e0924"
            }
        }
    },
    "tests/static/state_tests/stCallDelegateCodesHomestead/callcodecallcodecallcode_111Filler.json::callcodecallcodecallcode_111[fork_Osaka-state_test-]": {
        "env": {
            "currentCoinbase": "0x2adc25665018aa1fe0e6bc666dac8fc2697ff9ba",
            "currentGasLimit": "0x01c9c380",
            "currentNumber": "0x01",
            "currentTimestamp": "0x03e8",
            "currentRandom": "0x0000000000000000000000000000000000000000000000000000000000020000",
            "currentDifficulty": "0x00",
            "currentBaseFee": "0x0a",
            "currentExcessBlobGas": "0x00"
        },
        "pre": {
            "0xfcdf9b5afe9abb9ff1840c29f31d4f7247f02178": {
                "nonce": "0x00",
                "balance": "0x0de0b6b3a7640000",
                "code": "0x",
                "storage": {}
            },
            "0xd84728b2ac684580cbfb561206d0253eaf06741c": {
                "nonce": "0x00",
                "balance": "0x00",
                "code": "0x600160035533600455346007553061014a553261014c55366101505538610152553a6101545500",
                "storage": {}
            },
            "0xd84728b2ac684580cbfb561206d0253eaf06751c": {
                "nonce": "0x00",
                "balance": "0x0de0b6b3a7640000",
                "code": "0x604060006040600073d84728b2ac684580cbfb561206d0253eaf06741c6203d090f460025500",
                "storage": {}
            },
            "0xd84728b2ac684580cbfb561206d0253eaf06761c": {
                "nonce": "0x00",
                "balance": "0x0de0b6b3a7640000",
                "code": "0x604060006040600073d84728b2ac684580cbfb561206d0253eaf06751c620493e0f460015500",
                "storage": {}
            },
            "0xd84728b2ac684580cbfb561206d0253eaf06771c": {
                "nonce": "0x00",
                "balance": "0x0de0b6b3a7640000",
                "code": "0x604060006040600073d84728b2ac684580cbfb561206d0253eaf06761c62055730f460005500",
                "storage": {}
            }
        },
        "transaction": {
            "nonce": "0x00",
            "gasPrice": "0x0a",
            "gasLimit": [
                "0x2dc6c0"
            ],
            "to": "0xd84728b2ac684580cbfb561206d0253eaf06771c",
            "value": [
                "0x00"
            ],
            "data": [
                "0x"
            ],
            "sender": "0xfcdf9b5afe9abb9ff1840c29f31d4f7247f02178",
            "secretKey": "0x8c886cc4c17dfae199160933d84728b2ac684580cbfb561206d0253eaf06741c"
        },
        "post": {
            "Osaka": [
                {
                    "hash": "0x429d3fff303aeeaab1d4dfc1e0021f1c56652f2aa8a0749ee1f359801eca641f",
                    "logs": "0x1dcc4de8dec75d7aab85b567b6ccd41ad312451b948a7413f0a142fd40d49347",
                    "txbytes": "0xf860800a832dc6c094d84728b2ac684580cbfb561206d0253eaf06771c808025a0333f02a91b857633531dcd049e076ee821c17a3cbf72881f2f5da5394008397aa06baa5da4c5d6adc655e31d6d2f58bf5b6a3ca0a275113293dbf08bac5532778e",
                    "indexes": {
                        "data": 0,
                        "gas": 0,
                        "value": 0
                    },
                    "state": {
                        "0xfcdf9b5afe9abb9ff1840c29f31d4f7247f02178": {
                            "nonce": "0x01",
                            "balance": "0x0de0b6b3a73d877c",
                            "code": "0x",
                            "storage": {}
                        },
                        "0xd84728b2ac684580cbfb561206d0253eaf06741c": {
                            "nonce": "0x00",
                            "balance": "0x00",
                            "code": "0x600160035533600455346007553061014a553261014c55366101505538610152553a6101545500",
                            "storage": {}
                        },
                        "0xd84728b2ac684580cbfb561206d0253eaf06751c": {
                            "nonce": "0x00",
                            "balance": "0x0de0b6b3a7640000",
                            "code": "0x604060006040600073d84728b2ac684580cbfb561206d0253eaf06741c6203d090f460025500",
                            "storage": {}
                        },
                        "0xd84728b2ac684580cbfb561206d0253eaf06761c": {
                            "nonce": "0x00",
                            "balance": "0x0de0b6b3a7640000",
                            "code": "0x604060006040600073d84728b2ac684580cbfb561206d0253eaf06751c620493e0f460015500",
                            "storage": {}
                        },
                        "0xd84728b2ac684580cbfb561206d0253eaf06771c": {
                            "nonce": "0x00",
                            "balance": "0x0de0b6b3a7640000",
                            "code": "0x604060006040600073d84728b2ac684580cbfb561206d0253eaf06761c62055730f460005500",
                            "storage": {
                                "0x03": "0x01",
                                "0x04": "0xfcdf9b5afe9abb9ff1840c29f31d4f7247f02178",
                                "0x014a": "0xd84728b2ac684580cbfb561206d0253eaf06771c",
                                "0x014c": "0xfcdf9b5afe9abb9ff1840c29f31d4f7247f02178",
                                "0x0150": "0x40",
                                "0x0152": "0x27",
                                "0x0154": "0x0a",
                                "0x02": "0x01",
                                "0x01": "0x01",
                                "0x00": "0x01"
                            }
                        }
                    }
                }
            ]
        },
        "config": {
            "blobSchedule": {
                "Cancun": {
                    "target": "0x03",
                    "max": "0x06",
                    "baseFeeUpdateFraction": "0x32f0ed"
                },
                "Prague": {
                    "target": "0x06",
                    "max": "0x09",
                    "baseFeeUpdateFraction": "0x4c6964"
                },
                "Osaka": {
                    "target": "0x06",
                    "max": "0x09",
                    "baseFeeUpdateFraction": "0x4c6964"
                }
            },
            "chainid": "0x01"
        },
        "_info": {
            "hash": "0x526d03a0f4a2cb422dab9462f0a6434850d782d0a9bf9a2469ae6f2266f5f77e",
            "comment": "`execution-spec-tests` generated test",
            "filling-transition-tool": "ethereum-spec-evm-resolver 0.0.5",
            "description": "No description available - add a docstring to the python test class or function.",
            "url": "",
            "fixture-format": "state_test",
            "eels-resolution": {
                "git-url": "https://github.com/marioevz/execution-specs.git",
                "branch": "forks/bpo1",
                "commit": "3387e5f4aedfe99becfdc39b444d6371e25e0924"
            }
        }
    },
    "tests/static/state_tests/stCallDelegateCodesHomestead/callcodecallcodecallcode_111Filler.json::callcodecallcodecallcode_111[fork_Prague-state_test-]": {
        "env": {
            "currentCoinbase": "0x2adc25665018aa1fe0e6bc666dac8fc2697ff9ba",
            "currentGasLimit": "0x01c9c380",
            "currentNumber": "0x01",
            "currentTimestamp": "0x03e8",
            "currentRandom": "0x0000000000000000000000000000000000000000000000000000000000020000",
            "currentDifficulty": "0x00",
            "currentBaseFee": "0x0a",
            "currentExcessBlobGas": "0x00"
        },
        "pre": {
            "0xfcdf9b5afe9abb9ff1840c29f31d4f7247f02178": {
                "nonce": "0x00",
                "balance": "0x0de0b6b3a7640000",
                "code": "0x",
                "storage": {}
            },
            "0xd84728b2ac684580cbfb561206d0253eaf06741c": {
                "nonce": "0x00",
                "balance": "0x00",
                "code": "0x600160035533600455346007553061014a553261014c55366101505538610152553a6101545500",
                "storage": {}
            },
            "0xd84728b2ac684580cbfb561206d0253eaf06751c": {
                "nonce": "0x00",
                "balance": "0x0de0b6b3a7640000",
                "code": "0x604060006040600073d84728b2ac684580cbfb561206d0253eaf06741c6203d090f460025500",
                "storage": {}
            },
            "0xd84728b2ac684580cbfb561206d0253eaf06761c": {
                "nonce": "0x00",
                "balance": "0x0de0b6b3a7640000",
                "code": "0x604060006040600073d84728b2ac684580cbfb561206d0253eaf06751c620493e0f460015500",
                "storage": {}
            },
            "0xd84728b2ac684580cbfb561206d0253eaf06771c": {
                "nonce": "0x00",
                "balance": "0x0de0b6b3a7640000",
                "code": "0x604060006040600073d84728b2ac684580cbfb561206d0253eaf06761c62055730f460005500",
                "storage": {}
            }
        },
        "transaction": {
            "nonce": "0x00",
            "gasPrice": "0x0a",
            "gasLimit": [
                "0x2dc6c0"
            ],
            "to": "0xd84728b2ac684580cbfb561206d0253eaf06771c",
            "value": [
                "0x00"
            ],
            "data": [
                "0x"
            ],
            "sender": "0xfcdf9b5afe9abb9ff1840c29f31d4f7247f02178",
            "secretKey": "0x8c886cc4c17dfae199160933d84728b2ac684580cbfb561206d0253eaf06741c"
        },
        "post": {
            "Prague": [
                {
                    "hash": "0x429d3fff303aeeaab1d4dfc1e0021f1c56652f2aa8a0749ee1f359801eca641f",
                    "logs": "0x1dcc4de8dec75d7aab85b567b6ccd41ad312451b948a7413f0a142fd40d49347",
                    "txbytes": "0xf860800a832dc6c094d84728b2ac684580cbfb561206d0253eaf06771c808025a0333f02a91b857633531dcd049e076ee821c17a3cbf72881f2f5da5394008397aa06baa5da4c5d6adc655e31d6d2f58bf5b6a3ca0a275113293dbf08bac5532778e",
                    "indexes": {
                        "data": 0,
                        "gas": 0,
                        "value": 0
                    },
                    "state": {
                        "0xfcdf9b5afe9abb9ff1840c29f31d4f7247f02178": {
                            "nonce": "0x01",
                            "balance": "0x0de0b6b3a73d877c",
                            "code": "0x",
                            "storage": {}
                        },
                        "0xd84728b2ac684580cbfb561206d0253eaf06741c": {
                            "nonce": "0x00",
                            "balance": "0x00",
                            "code": "0x600160035533600455346007553061014a553261014c55366101505538610152553a6101545500",
                            "storage": {}
                        },
                        "0xd84728b2ac684580cbfb561206d0253eaf06751c": {
                            "nonce": "0x00",
                            "balance": "0x0de0b6b3a7640000",
                            "code": "0x604060006040600073d84728b2ac684580cbfb561206d0253eaf06741c6203d090f460025500",
                            "storage": {}
                        },
                        "0xd84728b2ac684580cbfb561206d0253eaf06761c": {
                            "nonce": "0x00",
                            "balance": "0x0de0b6b3a7640000",
                            "code": "0x604060006040600073d84728b2ac684580cbfb561206d0253eaf06751c620493e0f460015500",
                            "storage": {}
                        },
                        "0xd84728b2ac684580cbfb561206d0253eaf06771c": {
                            "nonce": "0x00",
                            "balance": "0x0de0b6b3a7640000",
                            "code": "0x604060006040600073d84728b2ac684580cbfb561206d0253eaf06761c62055730f460005500",
                            "storage": {
                                "0x03": "0x01",
                                "0x04": "0xfcdf9b5afe9abb9ff1840c29f31d4f7247f02178",
                                "0x014a": "0xd84728b2ac684580cbfb561206d0253eaf06771c",
                                "0x014c": "0xfcdf9b5afe9abb9ff1840c29f31d4f7247f02178",
                                "0x0150": "0x40",
                                "0x0152": "0x27",
                                "0x0154": "0x0a",
                                "0x02": "0x01",
                                "0x01": "0x01",
                                "0x00": "0x01"
                            }
                        }
                    }
                }
            ]
        },
        "config": {
            "blobSchedule": {
                "Cancun": {
                    "target": "0x03",
                    "max": "0x06",
                    "baseFeeUpdateFraction": "0x32f0ed"
                },
                "Prague": {
                    "target": "0x06",
                    "max": "0x09",
                    "baseFeeUpdateFraction": "0x4c6964"
                }
            },
            "chainid": "0x01"
        },
        "_info": {
            "hash": "0xeb0bf7a6dd52b8d6d29ea56f26a513991a0d2c72b7041b682dcdbba64e146bcd",
            "comment": "`execution-spec-tests` generated test",
            "filling-transition-tool": "ethereum-spec-evm-resolver 0.0.5",
            "description": "No description available - add a docstring to the python test class or function.",
            "url": "",
            "fixture-format": "state_test",
            "eels-resolution": {
                "git-url": "https://github.com/marioevz/execution-specs.git",
                "branch": "forks/bpo1",
                "commit": "3387e5f4aedfe99becfdc39b444d6371e25e0924"
            }
        }
    }
}