{
    "tests/static/state_tests/stCallDelegateCodesHomestead/callcallcodecall_010_OOGMAfterFiller.json::callcallcodecall_010_OOGMAfter[fork_Cancun-state_test-]": {
        "env": {
            "currentCoinbase": "0x2adc25665018aa1fe0e6bc666dac8fc2697ff9ba",
            "currentGasLimit": "0x01c9c380",
            "currentNumber": "0x01",
            "currentTimestamp": "0x03e8",
            "currentRandom": "0x0000000000000000000000000000000000000000000000000000000000020000",
            "currentDifficulty": "0x00",
            "currentBaseFee": "0x0a",
            "currentExcessBlobGas": "0x00"
        },
        "pre": {
            "0x66e3ff5bbbaa45cb3de83c503887e41e0c6a31cd": {
                "nonce": "0x00",
                "balance": "0x0de0b6b3a7640000",
                "code": "0x",
                "storage": {}
            },
            "0x1f2813b5cb58ee953c0dc20c6376bd5dcc226e19": {
                "nonce": "0x00",
                "balance": "0x00",
                "code": "0x600160035500",
                "storage": {}
            },
            "0x1f2813b5cb58ee953c0dc20c6376bd5dcc226f19": {
                "nonce": "0x00",
                "balance": "0x00",
                "code": "0x60406000604060006000731f2813b5cb58ee953c0dc20c6376bd5dcc226e1962061a80f160025500",
                "storage": {}
            },
            "0x1f2813b5cb58ee953c0dc20c6376bd5dcc227019": {
                "nonce": "0x00",
                "balance": "0x00",
                "code": "0x6040600060406000731f2813b5cb58ee953c0dc20c6376bd5dcc226f19620927c0f4600155622fffff60002000",
                "storage": {}
            },
            "0x1f2813b5cb58ee953c0dc20c6376bd5dcc227119": {
                "nonce": "0x00",
                "balance": "0x0de0b6b3a7640000",
                "code": "0x60406000604060006000731f2813b5cb58ee953c0dc20c6376bd5dcc227019620c3500f16000556001600b5500",
                "storage": {}
            }
        },
        "transaction": {
            "nonce": "0x00",
            "gasPrice": "0x0a",
            "gasLimit": [
                "0x0f4240"
            ],
            "to": "0x1f2813b5cb58ee953c0dc20c6376bd5dcc227119",
            "value": [
                "0x00"
            ],
            "data": [
                "0x"
            ],
            "sender": "0x66e3ff5bbbaa45cb3de83c503887e41e0c6a31cd",
            "secretKey": "0x6c03b013febdcd744b100cde1f2813b5cb58ee953c0dc20c6376bd5dcc226e19"
        },
        "post": {
            "Cancun": [
                {
                    "hash": "0xfda208f240d90a514554a712af93fdd3b84c6b859c8e0011638e2d54ca48d1f2",
                    "logs": "0x1dcc4de8dec75d7aab85b567b6ccd41ad312451b948a7413f0a142fd40d49347",
                    "txbytes": "0xf860800a830f4240941f2813b5cb58ee953c0dc20c6376bd5dcc227119808026a0c46207ea3c3826e78348b6b790d06867319b957eec4ef3684ea70273d16af485a03791e0871f57fb569a9965c843bd3025c15c646c21cee243f8d53deba2d471f2",
                    "indexes": {
                        "data": 0,
                        "gas": 0,
                        "value": 0
                    },
                    "state": {
                        "0x66e3ff5bbbaa45cb3de83c503887e41e0c6a31cd": {
                            "nonce": "0x01",
                            "balance": "0x0de0b6b3a6e29d80",
                            "code": "0x",
                            "storage": {}
                        },
                        "0x1f2813b5cb58ee953c0dc20c6376bd5dcc226e19": {
                            "nonce": "0x00",
                            "balance": "0x00",
                            "code": "0x600160035500",
                            "storage": {}
                        },
                        "0x1f2813b5cb58ee953c0dc20c6376bd5dcc226f19": {
                            "nonce": "0x00",
                            "balance": "0x00",
                            "code": "0x60406000604060006000731f2813b5cb58ee953c0dc20c6376bd5dcc226e1962061a80f160025500",
                            "storage": {}
                        },
                        "0x1f2813b5cb58ee953c0dc20c6376bd5dcc227019": {
                            "nonce": "0x00",
                            "balance": "0x00",
                            "code": "0x6040600060406000731f2813b5cb58ee953c0dc20c6376bd5dcc226f19620927c0f4600155622fffff60002000",
                            "storage": {}
                        },
                        "0x1f2813b5cb58ee953c0dc20c6376bd5dcc227119": {
                            "nonce": "0x00",
                            "balance": "0x0de0b6b3a7640000",
                            "code": "0x60406000604060006000731f2813b5cb58ee953c0dc20c6376bd5dcc227019620c3500f16000556001600b5500",
                            "storage": {
                                "0x0b": "0x01"
                            }
                        }
                    }
                }
            ]
        },
        "config": {
            "blobSchedule": {
                "Cancun": {
                    "target": "0x03",
                    "max": "0x06",
                    "baseFeeUpdateFraction": "0x32f0ed"
                }
            },
            "chainid": "0x01"
        },
        "_info": {
            "hash": "0x8cfa903120242a038dd5e0373513f791c20355908c63c115302f6b995c8dbcae",
            "comment": "`execution-spec-tests` generated test",
            "filling-transition-tool": "ethereum-spec-evm-resolver 0.0.5",
            "description": "No description available - add a docstring to the python test class or function.",
            "url": "",
            "fixture-format": "state_test",
            "eels-resolution": {
                "git-url": "https://github.com/ethereum/execution-specs.git",
                "branch": "forks/bpos",
                "commit": "7aacb2c54111391af5e98c505d5010b5698a770f"
            }
        }
    },
    "tests/static/state_tests/stCallDelegateCodesHomestead/callcallcodecall_010_OOGMAfterFiller.json::callcallcodecall_010_OOGMAfter[fork_Osaka-state_test-]": {
        "env": {
            "currentCoinbase": "0x2adc25665018aa1fe0e6bc666dac8fc2697ff9ba",
            "currentGasLimit": "0x01c9c380",
            "currentNumber": "0x01",
            "currentTimestamp": "0x03e8",
            "currentRandom": "0x0000000000000000000000000000000000000000000000000000000000020000",
            "currentDifficulty": "0x00",
            "currentBaseFee": "0x0a",
            "currentExcessBlobGas": "0x00"
        },
        "pre": {
            "0x66e3ff5bbbaa45cb3de83c503887e41e0c6a31cd": {
                "nonce": "0x00",
                "balance": "0x0de0b6b3a7640000",
                "code": "0x",
                "storage": {}
            },
            "0x1f2813b5cb58ee953c0dc20c6376bd5dcc226e19": {
                "nonce": "0x00",
                "balance": "0x00",
                "code": "0x600160035500",
                "storage": {}
            },
            "0x1f2813b5cb58ee953c0dc20c6376bd5dcc226f19": {
                "nonce": "0x00",
                "balance": "0x00",
                "code": "0x60406000604060006000731f2813b5cb58ee953c0dc20c6376bd5dcc226e1962061a80f160025500",
                "storage": {}
            },
            "0x1f2813b5cb58ee953c0dc20c6376bd5dcc227019": {
                "nonce": "0x00",
                "balance": "0x00",
                "code": "0x6040600060406000731f2813b5cb58ee953c0dc20c6376bd5dcc226f19620927c0f4600155622fffff60002000",
                "storage": {}
            },
            "0x1f2813b5cb58ee953c0dc20c6376bd5dcc227119": {
                "nonce": "0x00",
                "balance": "0x0de0b6b3a7640000",
                "code": "0x60406000604060006000731f2813b5cb58ee953c0dc20c6376bd5dcc227019620c3500f16000556001600b5500",
                "storage": {}
            }
        },
        "transaction": {
            "nonce": "0x00",
            "gasPrice": "0x0a",
            "gasLimit": [
                "0x0f4240"
            ],
            "to": "0x1f2813b5cb58ee953c0dc20c6376bd5dcc227119",
            "value": [
                "0x00"
            ],
            "data": [
                "0x"
            ],
            "sender": "0x66e3ff5bbbaa45cb3de83c503887e41e0c6a31cd",
            "secretKey": "0x6c03b013febdcd744b100cde1f2813b5cb58ee953c0dc20c6376bd5dcc226e19"
        },
        "post": {
            "Osaka": [
                {
                    "hash": "0xfda208f240d90a514554a712af93fdd3b84c6b859c8e0011638e2d54ca48d1f2",
                    "logs": "0x1dcc4de8dec75d7aab85b567b6ccd41ad312451b948a7413f0a142fd40d49347",
                    "txbytes": "0xf860800a830f4240941f2813b5cb58ee953c0dc20c6376bd5dcc227119808026a0c46207ea3c3826e78348b6b790d06867319b957eec4ef3684ea70273d16af485a03791e0871f57fb569a9965c843bd3025c15c646c21cee243f8d53deba2d471f2",
                    "indexes": {
                        "data": 0,
                        "gas": 0,
                        "value": 0
                    },
                    "state": {
                        "0x66e3ff5bbbaa45cb3de83c503887e41e0c6a31cd": {
                            "nonce": "0x01",
                            "balance": "0x0de0b6b3a6e29d80",
                            "code": "0x",
                            "storage": {}
                        },
                        "0x1f2813b5cb58ee953c0dc20c6376bd5dcc226e19": {
                            "nonce": "0x00",
                            "balance": "0x00",
                            "code": "0x600160035500",
                            "storage": {}
                        },
                        "0x1f2813b5cb58ee953c0dc20c6376bd5dcc226f19": {
                            "nonce": "0x00",
                            "balance": "0x00",
                            "code": "0x60406000604060006000731f2813b5cb58ee953c0dc20c6376bd5dcc226e1962061a80f160025500",
                            "storage": {}
                        },
                        "0x1f2813b5cb58ee953c0dc20c6376bd5dcc227019": {
                            "nonce": "0x00",
                            "balance": "0x00",
                            "code": "0x6040600060406000731f2813b5cb58ee953c0dc20c6376bd5dcc226f19620927c0f4600155622fffff60002000",
                            "storage": {}
                        },
                        "0x1f2813b5cb58ee953c0dc20c6376bd5dcc227119": {
                            "nonce": "0x00",
                            "balance": "0x0de0b6b3a7640000",
                            "code": "0x60406000604060006000731f2813b5cb58ee953c0dc20c6376bd5dcc227019620c3500f16000556001600b5500",
                            "storage": {
                                "0x0b": "0x01"
                            }
                        }
                    }
                }
            ]
        },
        "config": {
            "blobSchedule": {
                "Cancun": {
                    "target": "0x03",
                    "max": "0x06",
                    "baseFeeUpdateFraction": "0x32f0ed"
                },
                "Prague": {
                    "target": "0x06",
                    "max": "0x09",
                    "baseFeeUpdateFraction": "0x4c6964"
                },
                "Osaka": {
                    "target": "0x06",
                    "max": "0x09",
                    "baseFeeUpdateFraction": "0x4c6964"
                }
            },
            "chainid": "0x01"
        },
        "_info": {
            "hash": "0x2ff89b662b55febbe7dc997e5755ef673bb989e77a0fe83cf9b75996b08605ad",
            "comment": "`execution-spec-tests` generated test",
            "filling-transition-tool": "ethereum-spec-evm-resolver 0.0.5",
            "description": "No description available - add a docstring to the python test class or function.",
            "url": "",
            "fixture-format": "state_test",
            "eels-resolution": {
                "git-url": "https://github.com/ethereum/execution-specs.git",
                "branch": "forks/bpos",
                "commit": "7aacb2c54111391af5e98c505d5010b5698a770f"
            }
        }
    },
    "tests/static/state_tests/stCallDelegateCodesHomestead/callcallcodecall_010_OOGMAfterFiller.json::callcallcodecall_010_OOGMAfter[fork_Prague-state_test-]": {
        "env": {
            "currentCoinbase": "0x2adc25665018aa1fe0e6bc666dac8fc2697ff9ba",
            "currentGasLimit": "0x01c9c380",
            "currentNumber": "0x01",
            "currentTimestamp": "0x03e8",
            "currentRandom": "0x0000000000000000000000000000000000000000000000000000000000020000",
            "currentDifficulty": "0x00",
            "currentBaseFee": "0x0a",
            "currentExcessBlobGas": "0x00"
        },
        "pre": {
            "0x66e3ff5bbbaa45cb3de83c503887e41e0c6a31cd": {
                "nonce": "0x00",
                "balance": "0x0de0b6b3a7640000",
                "code": "0x",
                "storage": {}
            },
            "0x1f2813b5cb58ee953c0dc20c6376bd5dcc226e19": {
                "nonce": "0x00",
                "balance": "0x00",
                "code": "0x600160035500",
                "storage": {}
            },
            "0x1f2813b5cb58ee953c0dc20c6376bd5dcc226f19": {
                "nonce": "0x00",
                "balance": "0x00",
                "code": "0x60406000604060006000731f2813b5cb58ee953c0dc20c6376bd5dcc226e1962061a80f160025500",
                "storage": {}
            },
            "0x1f2813b5cb58ee953c0dc20c6376bd5dcc227019": {
                "nonce": "0x00",
                "balance": "0x00",
                "code": "0x6040600060406000731f2813b5cb58ee953c0dc20c6376bd5dcc226f19620927c0f4600155622fffff60002000",
                "storage": {}
            },
            "0x1f2813b5cb58ee953c0dc20c6376bd5dcc227119": {
                "nonce": "0x00",
                "balance": "0x0de0b6b3a7640000",
                "code": "0x60406000604060006000731f2813b5cb58ee953c0dc20c6376bd5dcc227019620c3500f16000556001600b5500",
                "storage": {}
            }
        },
        "transaction": {
            "nonce": "0x00",
            "gasPrice": "0x0a",
            "gasLimit": [
                "0x0f4240"
            ],
            "to": "0x1f2813b5cb58ee953c0dc20c6376bd5dcc227119",
            "value": [
                "0x00"
            ],
            "data": [
                "0x"
            ],
            "sender": "0x66e3ff5bbbaa45cb3de83c503887e41e0c6a31cd",
            "secretKey": "0x6c03b013febdcd744b100cde1f2813b5cb58ee953c0dc20c6376bd5dcc226e19"
        },
        "post": {
            "Prague": [
                {
                    "hash": "0xfda208f240d90a514554a712af93fdd3b84c6b859c8e0011638e2d54ca48d1f2",
                    "logs": "0x1dcc4de8dec75d7aab85b567b6ccd41ad312451b948a7413f0a142fd40d49347",
                    "txbytes": "0xf860800a830f4240941f2813b5cb58ee953c0dc20c6376bd5dcc227119808026a0c46207ea3c3826e78348b6b790d06867319b957eec4ef3684ea70273d16af485a03791e0871f57fb569a9965c843bd3025c15c646c21cee243f8d53deba2d471f2",
                    "indexes": {
                        "data": 0,
                        "gas": 0,
                        "value": 0
                    },
                    "state": {
                        "0x66e3ff5bbbaa45cb3de83c503887e41e0c6a31cd": {
                            "nonce": "0x01",
                            "balance": "0x0de0b6b3a6e29d80",
                            "code": "0x",
                            "storage": {}
                        },
                        "0x1f2813b5cb58ee953c0dc20c6376bd5dcc226e19": {
                            "nonce": "0x00",
                            "balance": "0x00",
                            "code": "0x600160035500",
                            "storage": {}
                        },
                        "0x1f2813b5cb58ee953c0dc20c6376bd5dcc226f19": {
                            "nonce": "0x00",
                            "balance": "0x00",
                            "code": "0x60406000604060006000731f2813b5cb58ee953c0dc20c6376bd5dcc226e1962061a80f160025500",
                            "storage": {}
                        },
                        "0x1f2813b5cb58ee953c0dc20c6376bd5dcc227019": {
                            "nonce": "0x00",
                            "balance": "0x00",
                            "code": "0x6040600060406000731f2813b5cb58ee953c0dc20c6376bd5dcc226f19620927c0f4600155622fffff60002000",
                            "storage": {}
                        },
                        "0x1f2813b5cb58ee953c0dc20c6376bd5dcc227119": {
                            "nonce": "0x00",
                            "balance": "0x0de0b6b3a7640000",
                            "code": "0x60406000604060006000731f2813b5cb58ee953c0dc20c6376bd5dcc227019620c3500f16000556001600b5500",
                            "storage": {
                                "0x0b": "0x01"
                            }
                        }
                    }
                }
            ]
        },
        "config": {
            "blobSchedule": {
                "Cancun": {
                    "target": "0x03",
                    "max": "0x06",
                    "baseFeeUpdateFraction": "0x32f0ed"
                },
                "Prague": {
                    "target": "0x06",
                    "max": "0x09",
                    "baseFeeUpdateFraction": "0x4c6964"
                }
            },
            "chainid": "0x01"
        },
        "_info": {
            "hash": "0x2c456884584d90d54c2a27551cba0684194592ddaced6c4bcc3ef828030e0ba4",
            "comment": "`execution-spec-tests` generated test",
            "filling-transition-tool": "ethereum-spec-evm-resolver 0.0.5",
            "description": "No description available - add a docstring to the python test class or function.",
            "url": "",
            "fixture-format": "state_test",
            "eels-resolution": {
                "git-url": "https://github.com/ethereum/execution-specs.git",
                "branch": "forks/bpos",
                "commit": "7aacb2c54111391af5e98c505d5010b5698a770f"
            }
        }
    }
}