{
    "tests/static/state_tests/stCallDelegateCodesHomestead/callcodecallcode_11Filler.json::callcodecallcode_11[fork_Cancun-state_test-]": {
        "env": {
            "currentCoinbase": "0x2adc25665018aa1fe0e6bc666dac8fc2697ff9ba",
            "currentGasLimit": "0x01c9c380",
            "currentNumber": "0x01",
            "currentTimestamp": "0x03e8",
            "currentRandom": "0x0000000000000000000000000000000000000000000000000000000000020000",
            "currentDifficulty": "0x00",
            "currentBaseFee": "0x0a",
            "currentExcessBlobGas": "0x00"
        },
        "pre": {
            "0x9cad326f34ee7a119e566d09965b0680554fd338": {
                "nonce": "0x00",
                "balance": "0x0de0b6b3a7640000",
                "code": "0x",
                "storage": {}
            },
            "0x7a1ed4c6d14c38373b0f55816a5182d094132f81": {
                "nonce": "0x00",
                "balance": "0x00",
                "code": "0x600160025533600455346007553060e6553260e8553660ec553860ee553a60f05500",
                "storage": {}
            },
            "0x7a1ed4c6d14c38373b0f55816a5182d094133081": {
                "nonce": "0x00",
                "balance": "0x00",
                "code": "0x6040600060406000737a1ed4c6d14c38373b0f55816a5182d094132f816203d090f460015500",
                "storage": {}
            },
            "0x7a1ed4c6d14c38373b0f55816a5182d094133181": {
                "nonce": "0x00",
                "balance": "0x0de0b6b3a7640000",
                "code": "0x6040600060406000737a1ed4c6d14c38373b0f55816a5182d09413308162055730f460005500",
                "storage": {}
            }
        },
        "transaction": {
            "nonce": "0x00",
            "gasPrice": "0x0a",
            "gasLimit": [
                "0x2dc6c0"
            ],
            "to": "0x7a1ed4c6d14c38373b0f55816a5182d094133181",
            "value": [
                "0x00"
            ],
            "data": [
                "0x"
            ],
            "sender": "0x9cad326f34ee7a119e566d09965b0680554fd338",
            "secretKey": "0xf537334799249c3ca94b8ea07a1ed4c6d14c38373b0f55816a5182d094132f81"
        },
        "post": {
            "Cancun": [
                {
                    "hash": "0x3f12c476c465c2d2a2615f979a451b0fd1966c2dc6216f4cdc0b76f7ff8adebf",
                    "logs": "0x1dcc4de8dec75d7aab85b567b6ccd41ad312451b948a7413f0a142fd40d49347",
                    "txbytes": "0xf860800a832dc6c0947a1ed4c6d14c38373b0f55816a5182d094133181808025a09ffda6daa26711ca5c85f94785c40d2bc58ec25d7c093d802ca39eb43f2367a4a021d23c14d6cd01dc6cb245cfe3b4ea9c1db8b98a3a83525480b4eb8238e7a391",
                    "indexes": {
                        "data": 0,
                        "gas": 0,
                        "value": 0
                    },
                    "state": {
                        "0x9cad326f34ee7a119e566d09965b0680554fd338": {
                            "nonce": "0x01",
                            "balance": "0x0de0b6b3a7414d62",
                            "code": "0x",
                            "storage": {}
                        },
                        "0x7a1ed4c6d14c38373b0f55816a5182d094132f81": {
                            "nonce": "0x00",
                            "balance": "0x00",
                            "code": "0x600160025533600455346007553060e6553260e8553660ec553860ee553a60f05500",
                            "storage": {}
                        },
                        "0x7a1ed4c6d14c38373b0f55816a5182d094133081": {
                            "nonce": "0x00",
                            "balance": "0x00",
                            "code": "0x6040600060406000737a1ed4c6d14c38373b0f55816a5182d094132f816203d090f460015500",
                            "storage": {}
                        },
                        "0x7a1ed4c6d14c38373b0f55816a5182d094133181": {
                            "nonce": "0x00",
                            "balance": "0x0de0b6b3a7640000",
                            "code": "0x6040600060406000737a1ed4c6d14c38373b0f55816a5182d09413308162055730f460005500",
                            "storage": {
                                "0x02": "0x01",
                                "0x04": "0x9cad326f34ee7a119e566d09965b0680554fd338",
                                "0xe6": "0x7a1ed4c6d14c38373b0f55816a5182d094133181",
                                "0xe8": "0x9cad326f34ee7a119e566d09965b0680554fd338",
                                "0xec": "0x40",
                                "0xee": "0x22",
                                "0xf0": "0x0a",
                                "0x01": "0x01",
                                "0x00": "0x01"
                            }
                        }
                    }
                }
            ]
        },
        "config": {
            "blobSchedule": {
                "Cancun": {
                    "target": "0x03",
                    "max": "0x06",
                    "baseFeeUpdateFraction": "0x32f0ed"
                }
            },
            "chainid": "0x01"
        },
        "_info": {
            "hash": "0xddb8e34a623240021e568d1be5495ea34492543d6dd0771d3fed43acde38455c",
            "comment": "`execution-specs` generated test",
            "filling-transition-tool": "2.18.0rc6",
            "description": "No description available - add a docstring to the python test class or function.",
            "url": "",
            "fixture-format": "state_test"
        }
    },
    "tests/static/state_tests/stCallDelegateCodesHomestead/callcodecallcode_11Filler.json::callcodecallcode_11[fork_Osaka-state_test-]": {
        "env": {
            "currentCoinbase": "0x2adc25665018aa1fe0e6bc666dac8fc2697ff9ba",
            "currentGasLimit": "0x01c9c380",
            "currentNumber": "0x01",
            "currentTimestamp": "0x03e8",
            "currentRandom": "0x0000000000000000000000000000000000000000000000000000000000020000",
            "currentDifficulty": "0x00",
            "currentBaseFee": "0x0a",
            "currentExcessBlobGas": "0x00"
        },
        "pre": {
            "0x9cad326f34ee7a119e566d09965b0680554fd338": {
                "nonce": "0x00",
                "balance": "0x0de0b6b3a7640000",
                "code": "0x",
                "storage": {}
            },
            "0x7a1ed4c6d14c38373b0f55816a5182d094132f81": {
                "nonce": "0x00",
                "balance": "0x00",
                "code": "0x600160025533600455346007553060e6553260e8553660ec553860ee553a60f05500",
                "storage": {}
            },
            "0x7a1ed4c6d14c38373b0f55816a5182d094133081": {
                "nonce": "0x00",
                "balance": "0x00",
                "code": "0x6040600060406000737a1ed4c6d14c38373b0f55816a5182d094132f816203d090f460015500",
                "storage": {}
            },
            "0x7a1ed4c6d14c38373b0f55816a5182d094133181": {
                "nonce": "0x00",
                "balance": "0x0de0b6b3a7640000",
                "code": "0x6040600060406000737a1ed4c6d14c38373b0f55816a5182d09413308162055730f460005500",
                "storage": {}
            }
        },
        "transaction": {
            "nonce": "0x00",
            "gasPrice": "0x0a",
            "gasLimit": [
                "0x2dc6c0"
            ],
            "to": "0x7a1ed4c6d14c38373b0f55816a5182d094133181",
            "value": [
                "0x00"
            ],
            "data": [
                "0x"
            ],
            "sender": "0x9cad326f34ee7a119e566d09965b0680554fd338",
            "secretKey": "0xf537334799249c3ca94b8ea07a1ed4c6d14c38373b0f55816a5182d094132f81"
        },
        "post": {
            "Osaka": [
                {
                    "hash": "0x3f12c476c465c2d2a2615f979a451b0fd1966c2dc6216f4cdc0b76f7ff8adebf",
                    "logs": "0x1dcc4de8dec75d7aab85b567b6ccd41ad312451b948a7413f0a142fd40d49347",
                    "txbytes": "0xf860800a832dc6c0947a1ed4c6d14c38373b0f55816a5182d094133181808025a09ffda6daa26711ca5c85f94785c40d2bc58ec25d7c093d802ca39eb43f2367a4a021d23c14d6cd01dc6cb245cfe3b4ea9c1db8b98a3a83525480b4eb8238e7a391",
                    "indexes": {
                        "data": 0,
                        "gas": 0,
                        "value": 0
                    },
                    "state": {
                        "0x9cad326f34ee7a119e566d09965b0680554fd338": {
                            "nonce": "0x01",
                            "balance": "0x0de0b6b3a7414d62",
                            "code": "0x",
                            "storage": {}
                        },
                        "0x7a1ed4c6d14c38373b0f55816a5182d094132f81": {
                            "nonce": "0x00",
                            "balance": "0x00",
                            "code": "0x600160025533600455346007553060e6553260e8553660ec553860ee553a60f05500",
                            "storage": {}
                        },
                        "0x7a1ed4c6d14c38373b0f55816a5182d094133081": {
                            "nonce": "0x00",
                            "balance": "0x00",
                            "code": "0x6040600060406000737a1ed4c6d14c38373b0f55816a5182d094132f816203d090f460015500",
                            "storage": {}
                        },
                        "0x7a1ed4c6d14c38373b0f55816a5182d094133181": {
                            "nonce": "0x00",
                            "balance": "0x0de0b6b3a7640000",
                            "code": "0x6040600060406000737a1ed4c6d14c38373b0f55816a5182d09413308162055730f460005500",
                            "storage": {
                                "0x02": "0x01",
                                "0x04": "0x9cad326f34ee7a119e566d09965b0680554fd338",
                                "0xe6": "0x7a1ed4c6d14c38373b0f55816a5182d094133181",
                                "0xe8": "0x9cad326f34ee7a119e566d09965b0680554fd338",
                                "0xec": "0x40",
                                "0xee": "0x22",
                                "0xf0": "0x0a",
                                "0x01": "0x01",
                                "0x00": "0x01"
                            }
                        }
                    }
                }
            ]
        },
        "config": {
            "blobSchedule": {
                "Cancun": {
                    "target": "0x03",
                    "max": "0x06",
                    "baseFeeUpdateFraction": "0x32f0ed"
                },
                "Prague": {
                    "target": "0x06",
                    "max": "0x09",
                    "baseFeeUpdateFraction": "0x4c6964"
                },
                "Osaka": {
                    "target": "0x06",
                    "max": "0x09",
                    "baseFeeUpdateFraction": "0x4c6964"
                }
            },
            "chainid": "0x01"
        },
        "_info": {
            "hash": "0xede689d86a3a2ec8caed70d9b14984201e96038dc00caad7dd7598233b655704",
            "comment": "`execution-specs` generated test",
            "filling-transition-tool": "2.18.0rc6",
            "description": "No description available - add a docstring to the python test class or function.",
            "url": "",
            "fixture-format": "state_test"
        }
    },
    "tests/static/state_tests/stCallDelegateCodesHomestead/callcodecallcode_11Filler.json::callcodecallcode_11[fork_Prague-state_test-]": {
        "env": {
            "currentCoinbase": "0x2adc25665018aa1fe0e6bc666dac8fc2697ff9ba",
            "currentGasLimit": "0x01c9c380",
            "currentNumber": "0x01",
            "currentTimestamp": "0x03e8",
            "currentRandom": "0x0000000000000000000000000000000000000000000000000000000000020000",
            "currentDifficulty": "0x00",
            "currentBaseFee": "0x0a",
            "currentExcessBlobGas": "0x00"
        },
        "pre": {
            "0x9cad326f34ee7a119e566d09965b0680554fd338": {
                "nonce": "0x00",
                "balance": "0x0de0b6b3a7640000",
                "code": "0x",
                "storage": {}
            },
            "0x7a1ed4c6d14c38373b0f55816a5182d094132f81": {
                "nonce": "0x00",
                "balance": "0x00",
                "code": "0x600160025533600455346007553060e6553260e8553660ec553860ee553a60f05500",
                "storage": {}
            },
            "0x7a1ed4c6d14c38373b0f55816a5182d094133081": {
                "nonce": "0x00",
                "balance": "0x00",
                "code": "0x6040600060406000737a1ed4c6d14c38373b0f55816a5182d094132f816203d090f460015500",
                "storage": {}
            },
            "0x7a1ed4c6d14c38373b0f55816a5182d094133181": {
                "nonce": "0x00",
                "balance": "0x0de0b6b3a7640000",
                "code": "0x6040600060406000737a1ed4c6d14c38373b0f55816a5182d09413308162055730f460005500",
                "storage": {}
            }
        },
        "transaction": {
            "nonce": "0x00",
            "gasPrice": "0x0a",
            "gasLimit": [
                "0x2dc6c0"
            ],
            "to": "0x7a1ed4c6d14c38373b0f55816a5182d094133181",
            "value": [
                "0x00"
            ],
            "data": [
                "0x"
            ],
            "sender": "0x9cad326f34ee7a119e566d09965b0680554fd338",
            "secretKey": "0xf537334799249c3ca94b8ea07a1ed4c6d14c38373b0f55816a5182d094132f81"
        },
        "post": {
            "Prague": [
                {
                    "hash": "0x3f12c476c465c2d2a2615f979a451b0fd1966c2dc6216f4cdc0b76f7ff8adebf",
                    "logs": "0x1dcc4de8dec75d7aab85b567b6ccd41ad312451b948a7413f0a142fd40d49347",
                    "txbytes": "0xf860800a832dc6c0947a1ed4c6d14c38373b0f55816a5182d094133181808025a09ffda6daa26711ca5c85f94785c40d2bc58ec25d7c093d802ca39eb43f2367a4a021d23c14d6cd01dc6cb245cfe3b4ea9c1db8b98a3a83525480b4eb8238e7a391",
                    "indexes": {
                        "data": 0,
                        "gas": 0,
                        "value": 0
                    },
                    "state": {
                        "0x9cad326f34ee7a119e566d09965b0680554fd338": {
                            "nonce": "0x01",
                            "balance": "0x0de0b6b3a7414d62",
                            "code": "0x",
                            "storage": {}
                        },
                        "0x7a1ed4c6d14c38373b0f55816a5182d094132f81": {
                            "nonce": "0x00",
                            "balance": "0x00",
                            "code": "0x600160025533600455346007553060e6553260e8553660ec553860ee553a60f05500",
                            "storage": {}
                        },
                        "0x7a1ed4c6d14c38373b0f55816a5182d094133081": {
                            "nonce": "0x00",
                            "balance": "0x00",
                            "code": "0x6040600060406000737a1ed4c6d14c38373b0f55816a5182d094132f816203d090f460015500",
                            "storage": {}
                        },
                        "0x7a1ed4c6d14c38373b0f55816a5182d094133181": {
                            "nonce": "0x00",
                            "balance": "0x0de0b6b3a7640000",
                            "code": "0x6040600060406000737a1ed4c6d14c38373b0f55816a5182d09413308162055730f460005500",
                            "storage": {
                                "0x02": "0x01",
                                "0x04": "0x9cad326f34ee7a119e566d09965b0680554fd338",
                                "0xe6": "0x7a1ed4c6d14c38373b0f55816a5182d094133181",
                                "0xe8": "0x9cad326f34ee7a119e566d09965b0680554fd338",
                                "0xec": "0x40",
                                "0xee": "0x22",
                                "0xf0": "0x0a",
                                "0x01": "0x01",
                                "0x00": "0x01"
                            }
                        }
                    }
                }
            ]
        },
        "config": {
            "blobSchedule": {
                "Cancun": {
                    "target": "0x03",
                    "max": "0x06",
                    "baseFeeUpdateFraction": "0x32f0ed"
                },
                "Prague": {
                    "target": "0x06",
                    "max": "0x09",
                    "baseFeeUpdateFraction": "0x4c6964"
                }
            },
            "chainid": "0x01"
        },
        "_info": {
            "hash": "0xd341db4fbfb002f3bafb5b86309b4c3ce1181fe0c87c2487d83607a20e14ddd3",
            "comment": "`execution-specs` generated test",
            "filling-transition-tool": "2.18.0rc6",
            "description": "No description available - add a docstring to the python test class or function.",
            "url": "",
            "fixture-format": "state_test"
        }
    }
}