{
    "tests/constantinople/eip1052_extcodehash/test_extcodehash.py::test_extcodehash_via_call[fork_Istanbul-blockchain_test_from_state_test-opcode_CALLCODE]": {
        "network": "Istanbul",
        "genesisBlockHeader": {
            "parentHash": "0x0000000000000000000000000000000000000000000000000000000000000000",
            "uncleHash": "0x1dcc4de8dec75d7aab85b567b6ccd41ad312451b948a7413f0a142fd40d49347",
            "coinbase": "0x0000000000000000000000000000000000000000",
            "stateRoot": "0xf4d49b9a7fffaa8d458a8188f0d99d9eec459ec4c46b7ea633f19ac097474728",
            "transactionsTrie": "0x56e81f171bcc55a6ff8345e692c0f86e5b48e01b996cadc001622fb5e363b421",
            "receiptTrie": "0x56e81f171bcc55a6ff8345e692c0f86e5b48e01b996cadc001622fb5e363b421",
            "bloom": "0x00000000000000000000000000000000000000000000000000000000000000000000000000000000000000000000000000000000000000000000000000000000000000000000000000000000000000000000000000000000000000000000000000000000000000000000000000000000000000000000000000000000000000000000000000000000000000000000000000000000000000000000000000000000000000000000000000000000000000000000000000000000000000000000000000000000000000000000000000000000000000000000000000000000000000000000000000000000000000000000000000000000000000000000000000000000",
            "difficulty": "0x020000",
            "number": "0x00",
            "gasLimit": "0x07270e00",
            "gasUsed": "0x00",
            "timestamp": "0x00",
            "extraData": "0x00",
            "mixHash": "0x0000000000000000000000000000000000000000000000000000000000000000",
            "nonce": "0x0000000000000000",
            "hash": "0xeffc40b7a4ddf29381d32c1f8e3f295aa90aed98a8317350afa32d8ba61da3e0"
        },
        "pre": {
            "0xa743b0fd5c4186098bfb6e2302ddb5a6f48c1a9f": {
                "nonce": "0x01",
                "balance": "0x00",
                "code": "0x1234",
                "storage": {}
            },
            "0x3eced02499f6f40d0c87b38faf5f14583b488e09": {
                "nonce": "0x01",
                "balance": "0x00",
                "code": "0x73a743b0fd5c4186098bfb6e2302ddb5a6f48c1a9f3f60005273a743b0fd5c4186098bfb6e2302ddb5a6f48c1a9f3b60205260406000f3",
                "storage": {}
            },
            "0xa5db8f2556eac8e1dc1969d790fba6a4c96b78be": {
                "nonce": "0x01",
                "balance": "0x00",
                "code": "0x60006000600060006000733eced02499f6f40d0c87b38faf5f14583b488e09620249f0f26040600060003e600051600055602051600155",
                "storage": {}
            },
            "0x1ad9bc24818784172ff393bb6f89f094d4d2ca29": {
                "nonce": "0x00",
                "balance": "0x3635c9adc5dea00000",
                "code": "0x",
                "storage": {}
            }
        },
        "postState": {
            "0xa743b0fd5c4186098bfb6e2302ddb5a6f48c1a9f": {
                "nonce": "0x01",
                "balance": "0x00",
                "code": "0x1234",
                "storage": {}
            },
            "0x3eced02499f6f40d0c87b38faf5f14583b488e09": {
                "nonce": "0x01",
                "balance": "0x00",
                "code": "0x73a743b0fd5c4186098bfb6e2302ddb5a6f48c1a9f3f60005273a743b0fd5c4186098bfb6e2302ddb5a6f48c1a9f3b60205260406000f3",
                "storage": {}
            },
            "0xa5db8f2556eac8e1dc1969d790fba6a4c96b78be": {
                "nonce": "0x01",
                "balance": "0x00",
                "code": "0x60006000600060006000733eced02499f6f40d0c87b38faf5f14583b488e09620249f0f26040600060003e600051600055602051600155",
                "storage": {
                    "0x00": "0x56570de287d73cd1cb6092bb8fdee6173974955fdef345ae579ee9f475ea7432",
                    "0x01": "0x02"
                }
            },
            "0x1ad9bc24818784172ff393bb6f89f094d4d2ca29": {
                "nonce": "0x01",
                "balance": "0x3635c9adc5de965b86",
                "code": "0x",
                "storage": {}
            },
            "0x2adc25665018aa1fe0e6bc666dac8fc2697ff9ba": {
                "nonce": "0x00",
                "balance": "0x1bc16d674ed1a47a",
                "code": "0x",
                "storage": {}
            }
        },
        "lastblockhash": "0xe0642cf939a7bb3e29dd68072a294bbb1a54b72c3ef38c233ef95a01f057c75c",
        "config": {
            "network": "Istanbul",
            "chainid": "0x01"
        },
        "genesisRLP": "0xf901f9f901f4a00000000000000000000000000000000000000000000000000000000000000000a01dcc4de8dec75d7aab85b567b6ccd41ad312451b948a7413f0a142fd40d49347940000000000000000000000000000000000000000a0f4d49b9a7fffaa8d458a8188f0d99d9eec459ec4c46b7ea633f19ac097474728a056e81f171bcc55a6ff8345e692c0f86e5b48e01b996cadc001622fb5e363b421a056e81f171bcc55a6ff8345e692c0f86e5b48e01b996cadc001622fb5e363b421b901000000000000000000000000000000000000000000000000000000000000000000000000000000000000000000000000000000000000000000000000000000000000000000000000000000000000000000000000000000000000000000000000000000000000000000000000000000000000000000000000000000000000000000000000000000000000000000000000000000000000000000000000000000000000000000000000000000000000000000000000000000000000000000000000000000000000000000000000000000000000000000000000000000000000000000000000000000000000000000000000000000000000000000000000000000000083020000808407270e00808000a00000000000000000000000000000000000000000000000000000000000000000880000000000000000c0c0",
        "blocks": [
            {
                "blockHeader": {
                    "parentHash": "0xeffc40b7a4ddf29381d32c1f8e3f295aa90aed98a8317350afa32d8ba61da3e0",
                    "uncleHash": "0x1dcc4de8dec75d7aab85b567b6ccd41ad312451b948a7413f0a142fd40d49347",
                    "coinbase": "0x2adc25665018aa1fe0e6bc666dac8fc2697ff9ba",
                    "stateRoot": "0x585951df1f88eb2413c1f477d9a58e970bf1872f6b25e01a8af9607aeb410239",
                    "transactionsTrie": "0x39e6dc97b073a9e271a7dcf4888559a3ac9db79f7c5272c45344d3054c816c46",
                    "receiptTrie": "0x4008f86b71aa7ae34fd7db539637ed1db49023a6b585a7ef58a7d127538c76d3",
                    "bloom": "0x00000000000000000000000000000000000000000000000000000000000000000000000000000000000000000000000000000000000000000000000000000000000000000000000000000000000000000000000000000000000000000000000000000000000000000000000000000000000000000000000000000000000000000000000000000000000000000000000000000000000000000000000000000000000000000000000000000000000000000000000000000000000000000000000000000000000000000000000000000000000000000000000000000000000000000000000000000000000000000000000000000000000000000000000000000000",
                    "difficulty": "0x020000",
                    "number": "0x01",
                    "gasLimit": "0x07270e00",
                    "gasUsed": "0xf6d9",
                    "timestamp": "0x03e8",
                    "extraData": "0x00",
                    "mixHash": "0x0000000000000000000000000000000000000000000000000000000000000000",
                    "nonce": "0x0000000000000000",
                    "hash": "0xe0642cf939a7bb3e29dd68072a294bbb1a54b72c3ef38c233ef95a01f057c75c"
                },
                "transactions": [
                    {
                        "type": "0x00",
                        "chainId": "0x01",
                        "nonce": "0x00",
                        "gasPrice": "0x0a",
                        "gasLimit": "0x061a80",
                        "to": "0xa5db8f2556eac8e1dc1969d790fba6a4c96b78be",
                        "value": "0x00",
                        "data": "0x",
                        "v": "0x25",
                        "r": "0x7fc60d716396cbeace95ee446e43881a058963f5b143e4e43a9ff36c6ba5ee16",
                        "s": "0x1a2223b294ae1fc2446a4866e9f5fd3999fe67ece4e42492dcc99f2fcff08d7f",
                        "sender": "0x1ad9bc24818784172ff393bb6f89f094d4d2ca29"
                    }
                ],
                "uncleHeaders": [],
                "receipts": [
                    {
                        "transactionHash": "0x56a6c3bfb8a7d8c6cecfa8e578451d0bb220413378d1d48eb7faa3c7a11df6ee",
                        "type": "0x00",
                        "cumulativeGasUsed": "0xf6d9",
                        "bloom": "0x00000000000000000000000000000000000000000000000000000000000000000000000000000000000000000000000000000000000000000000000000000000000000000000000000000000000000000000000000000000000000000000000000000000000000000000000000000000000000000000000000000000000000000000000000000000000000000000000000000000000000000000000000000000000000000000000000000000000000000000000000000000000000000000000000000000000000000000000000000000000000000000000000000000000000000000000000000000000000000000000000000000000000000000000000000000",
                        "logs": [],
                        "status": true,
                        "rlp": "0xf901080182f6d9b9010000000000000000000000000000000000000000000000000000000000000000000000000000000000000000000000000000000000000000000000000000000000000000000000000000000000000000000000000000000000000000000000000000000000000000000000000000000000000000000000000000000000000000000000000000000000000000000000000000000000000000000000000000000000000000000000000000000000000000000000000000000000000000000000000000000000000000000000000000000000000000000000000000000000000000000000000000000000000000000000000000000000000000000000000000000000c0"
                    }
                ],
                "rlp": "0xf90260f901f8a0effc40b7a4ddf29381d32c1f8e3f295aa90aed98a8317350afa32d8ba61da3e0a01dcc4de8dec75d7aab85b567b6ccd41ad312451b948a7413f0a142fd40d49347942adc25665018aa1fe0e6bc666dac8fc2697ff9baa0585951df1f88eb2413c1f477d9a58e970bf1872f6b25e01a8af9607aeb410239a039e6dc97b073a9e271a7dcf4888559a3ac9db79f7c5272c45344d3054c816c46a04008f86b71aa7ae34fd7db539637ed1db49023a6b585a7ef58a7d127538c76d3b901000000000000000000000000000000000000000000000000000000000000000000000000000000000000000000000000000000000000000000000000000000000000000000000000000000000000000000000000000000000000000000000000000000000000000000000000000000000000000000000000000000000000000000000000000000000000000000000000000000000000000000000000000000000000000000000000000000000000000000000000000000000000000000000000000000000000000000000000000000000000000000000000000000000000000000000000000000000000000000000000000000000000000000000000000000000083020000018407270e0082f6d98203e800a00000000000000000000000000000000000000000000000000000000000000000880000000000000000f862f860800a83061a8094a5db8f2556eac8e1dc1969d790fba6a4c96b78be808025a07fc60d716396cbeace95ee446e43881a058963f5b143e4e43a9ff36c6ba5ee16a01a2223b294ae1fc2446a4866e9f5fd3999fe67ece4e42492dcc99f2fcff08d7fc0",
                "blocknumber": "1"
            }
        ],
        "sealEngine": "NoProof",
        "_info": {
            "hash": "0xeabff8087626b6b51cb3dc1c3f71bef15cb32f58892f1a8cc85e4d3b10db60dd",
            "fixture-format": "blockchain_test",
            "comment": "`execution-specs` generated test",
            "filling-transition-tool": "2.19.0",
            "description": "Test EXTCODEHASH/EXTCODESIZE queried via different call types.\n\nA helper contract computes EXTCODEHASH and EXTCODESIZE of a target\nand returns them. The caller invokes the helper using the\nparametrized call type and stores the results.",
            "url": "https://github.com/ethereum/execution-specs/blob/tests-bal@v5.5.1/tests/constantinople/eip1052_extcodehash/test_extcodehash.py#L676",
            "opcode_count": {},
            "reference-spec": "https://github.com/ethereum/EIPs/blob/master/EIPS/eip-1052.md",
            "reference-spec-version": "2dcbc7ce1563e9624e137e9d447374600af876fa"
        }
    },
    "tests/constantinople/eip1052_extcodehash/test_extcodehash.py::test_extcodehash_via_call[fork_Istanbul-blockchain_test_from_state_test-opcode_CALL]": {
        "network": "Istanbul",
        "genesisBlockHeader": {
            "parentHash": "0x0000000000000000000000000000000000000000000000000000000000000000",
            "uncleHash": "0x1dcc4de8dec75d7aab85b567b6ccd41ad312451b948a7413f0a142fd40d49347",
            "coinbase": "0x0000000000000000000000000000000000000000",
            "stateRoot": "0xfe71e3e07ff8911153b49433cf10c7277808dc19d05d44668e3ce5f571052fc2",
            "transactionsTrie": "0x56e81f171bcc55a6ff8345e692c0f86e5b48e01b996cadc001622fb5e363b421",
            "receiptTrie": "0x56e81f171bcc55a6ff8345e692c0f86e5b48e01b996cadc001622fb5e363b421",
            "bloom": "0x00000000000000000000000000000000000000000000000000000000000000000000000000000000000000000000000000000000000000000000000000000000000000000000000000000000000000000000000000000000000000000000000000000000000000000000000000000000000000000000000000000000000000000000000000000000000000000000000000000000000000000000000000000000000000000000000000000000000000000000000000000000000000000000000000000000000000000000000000000000000000000000000000000000000000000000000000000000000000000000000000000000000000000000000000000000",
            "difficulty": "0x020000",
            "number": "0x00",
            "gasLimit": "0x07270e00",
            "gasUsed": "0x00",
            "timestamp": "0x00",
            "extraData": "0x00",
            "mixHash": "0x0000000000000000000000000000000000000000000000000000000000000000",
            "nonce": "0x0000000000000000",
            "hash": "0xfa364cb04a48685dcd4983d931fb88b9013ab903380dc44c253e263bd0c74e79"
        },
        "pre": {
            "0xa743b0fd5c4186098bfb6e2302ddb5a6f48c1a9f": {
                "nonce": "0x01",
                "balance": "0x00",
                "code": "0x1234",
                "storage": {}
            },
            "0x3eced02499f6f40d0c87b38faf5f14583b488e09": {
                "nonce": "0x01",
                "balance": "0x00",
                "code": "0x73a743b0fd5c4186098bfb6e2302ddb5a6f48c1a9f3f60005273a743b0fd5c4186098bfb6e2302ddb5a6f48c1a9f3b60205260406000f3",
                "storage": {}
            },
            "0x7a4eda5ee749324495615bdbc5d8b6ce4092a2f9": {
                "nonce": "0x01",
                "balance": "0x00",
                "code": "0x60006000600060006000733eced02499f6f40d0c87b38faf5f14583b488e09620249f0f16040600060003e600051600055602051600155",
                "storage": {}
            },
            "0x1ad9bc24818784172ff393bb6f89f094d4d2ca29": {
                "nonce": "0x00",
                "balance": "0x3635c9adc5dea00000",
                "code": "0x",
                "storage": {}
            }
        },
        "postState": {
            "0xa743b0fd5c4186098bfb6e2302ddb5a6f48c1a9f": {
                "nonce": "0x01",
                "balance": "0x00",
                "code": "0x1234",
                "storage": {}
            },
            "0x3eced02499f6f40d0c87b38faf5f14583b488e09": {
                "nonce": "0x01",
                "balance": "0x00",
                "code": "0x73a743b0fd5c4186098bfb6e2302ddb5a6f48c1a9f3f60005273a743b0fd5c4186098bfb6e2302ddb5a6f48c1a9f3b60205260406000f3",
                "storage": {}
            },
            "0x7a4eda5ee749324495615bdbc5d8b6ce4092a2f9": {
                "nonce": "0x01",
                "balance": "0x00",
                "code": "0x60006000600060006000733eced02499f6f40d0c87b38faf5f14583b488e09620249f0f16040600060003e600051600055602051600155",
                "storage": {
                    "0x00": "0x56570de287d73cd1cb6092bb8fdee6173974955fdef345ae579ee9f475ea7432",
                    "0x01": "0x02"
                }
            },
            "0x1ad9bc24818784172ff393bb6f89f094d4d2ca29": {
                "nonce": "0x01",
                "balance": "0x3635c9adc5de965b86",
                "code": "0x",
                "storage": {}
            },
            "0x2adc25665018aa1fe0e6bc666dac8fc2697ff9ba": {
                "nonce": "0x00",
                "balance": "0x1bc16d674ed1a47a",
                "code": "0x",
                "storage": {}
            }
        },
        "lastblockhash": "0xb324f2b0a568980d1970c58182f230814564340c476a3d95d0805eb112ed68f7",
        "config": {
            "network": "Istanbul",
            "chainid": "0x01"
        },
        "genesisRLP": "0xf901f9f901f4a00000000000000000000000000000000000000000000000000000000000000000a01dcc4de8dec75d7aab85b567b6ccd41ad312451b948a7413f0a142fd40d49347940000000000000000000000000000000000000000a0fe71e3e07ff8911153b49433cf10c7277808dc19d05d44668e3ce5f571052fc2a056e81f171bcc55a6ff8345e692c0f86e5b48e01b996cadc001622fb5e363b421a056e81f171bcc55a6ff8345e692c0f86e5b48e01b996cadc001622fb5e363b421b901000000000000000000000000000000000000000000000000000000000000000000000000000000000000000000000000000000000000000000000000000000000000000000000000000000000000000000000000000000000000000000000000000000000000000000000000000000000000000000000000000000000000000000000000000000000000000000000000000000000000000000000000000000000000000000000000000000000000000000000000000000000000000000000000000000000000000000000000000000000000000000000000000000000000000000000000000000000000000000000000000000000000000000000000000000000083020000808407270e00808000a00000000000000000000000000000000000000000000000000000000000000000880000000000000000c0c0",
        "blocks": [
            {
                "blockHeader": {
                    "parentHash": "0xfa364cb04a48685dcd4983d931fb88b9013ab903380dc44c253e263bd0c74e79",
                    "uncleHash": "0x1dcc4de8dec75d7aab85b567b6ccd41ad312451b948a7413f0a142fd40d49347",
                    "coinbase": "0x2adc25665018aa1fe0e6bc666dac8fc2697ff9ba",
                    "stateRoot": "0x07591e2e9d8ab653adc2a9f4a7ae20ca3c62afdb8ad1cc705917adf13520c968",
                    "transactionsTrie": "0xd595dae96adbee8ae307a2f0d16e9921d58e61b25491046cc56de423657bf175",
                    "receiptTrie": "0x4008f86b71aa7ae34fd7db539637ed1db49023a6b585a7ef58a7d127538c76d3",
                    "bloom": "0x00000000000000000000000000000000000000000000000000000000000000000000000000000000000000000000000000000000000000000000000000000000000000000000000000000000000000000000000000000000000000000000000000000000000000000000000000000000000000000000000000000000000000000000000000000000000000000000000000000000000000000000000000000000000000000000000000000000000000000000000000000000000000000000000000000000000000000000000000000000000000000000000000000000000000000000000000000000000000000000000000000000000000000000000000000000",
                    "difficulty": "0x020000",
                    "number": "0x01",
                    "gasLimit": "0x07270e00",
                    "gasUsed": "0xf6d9",
                    "timestamp": "0x03e8",
                    "extraData": "0x00",
                    "mixHash": "0x0000000000000000000000000000000000000000000000000000000000000000",
                    "nonce": "0x0000000000000000",
                    "hash": "0xb324f2b0a568980d1970c58182f230814564340c476a3d95d0805eb112ed68f7"
                },
                "transactions": [
                    {
                        "type": "0x00",
                        "chainId": "0x01",
                        "nonce": "0x00",
                        "gasPrice": "0x0a",
                        "gasLimit": "0x061a80",
                        "to": "0x7a4eda5ee749324495615bdbc5d8b6ce4092a2f9",
                        "value": "0x00",
                        "data": "0x",
                        "v": "0x26",
                        "r": "0x209f8fcf36d5ee8b08f40f712ebbb57db07bcad3ec164ee29d9720a0668b838b",
                        "s": "0x70e2c17115a6447095e9148fecd7f01bd2f44b0598da26ab580880b5f19fc812",
                        "sender": "0x1ad9bc24818784172ff393bb6f89f094d4d2ca29"
                    }
                ],
                "uncleHeaders": [],
                "receipts": [
                    {
                        "transactionHash": "0xfa4e476e5c90f1f836ed398073addb9693535a773ccbe7421f0c31e72ee2bf80",
                        "type": "0x00",
                        "cumulativeGasUsed": "0xf6d9",
                        "bloom": "0x00000000000000000000000000000000000000000000000000000000000000000000000000000000000000000000000000000000000000000000000000000000000000000000000000000000000000000000000000000000000000000000000000000000000000000000000000000000000000000000000000000000000000000000000000000000000000000000000000000000000000000000000000000000000000000000000000000000000000000000000000000000000000000000000000000000000000000000000000000000000000000000000000000000000000000000000000000000000000000000000000000000000000000000000000000000",
                        "logs": [],
                        "status": true,
                        "rlp": "0xf901080182f6d9b9010000000000000000000000000000000000000000000000000000000000000000000000000000000000000000000000000000000000000000000000000000000000000000000000000000000000000000000000000000000000000000000000000000000000000000000000000000000000000000000000000000000000000000000000000000000000000000000000000000000000000000000000000000000000000000000000000000000000000000000000000000000000000000000000000000000000000000000000000000000000000000000000000000000000000000000000000000000000000000000000000000000000000000000000000000000000c0"
                    }
                ],
                "rlp": "0xf90260f901f8a0fa364cb04a48685dcd4983d931fb88b9013ab903380dc44c253e263bd0c74e79a01dcc4de8dec75d7aab85b567b6ccd41ad312451b948a7413f0a142fd40d49347942adc25665018aa1fe0e6bc666dac8fc2697ff9baa007591e2e9d8ab653adc2a9f4a7ae20ca3c62afdb8ad1cc705917adf13520c968a0d595dae96adbee8ae307a2f0d16e9921d58e61b25491046cc56de423657bf175a04008f86b71aa7ae34fd7db539637ed1db49023a6b585a7ef58a7d127538c76d3b901000000000000000000000000000000000000000000000000000000000000000000000000000000000000000000000000000000000000000000000000000000000000000000000000000000000000000000000000000000000000000000000000000000000000000000000000000000000000000000000000000000000000000000000000000000000000000000000000000000000000000000000000000000000000000000000000000000000000000000000000000000000000000000000000000000000000000000000000000000000000000000000000000000000000000000000000000000000000000000000000000000000000000000000000000000000083020000018407270e0082f6d98203e800a00000000000000000000000000000000000000000000000000000000000000000880000000000000000f862f860800a83061a80947a4eda5ee749324495615bdbc5d8b6ce4092a2f9808026a0209f8fcf36d5ee8b08f40f712ebbb57db07bcad3ec164ee29d9720a0668b838ba070e2c17115a6447095e9148fecd7f01bd2f44b0598da26ab580880b5f19fc812c0",
                "blocknumber": "1"
            }
        ],
        "sealEngine": "NoProof",
        "_info": {
            "hash": "0x64c1e9523a2661ed02aba73e50818d6291077f44526f8b549dff1123fb03dcf5",
            "fixture-format": "blockchain_test",
            "comment": "`execution-specs` generated test",
            "filling-transition-tool": "2.19.0",
            "description": "Test EXTCODEHASH/EXTCODESIZE queried via different call types.\n\nA helper contract computes EXTCODEHASH and EXTCODESIZE of a target\nand returns them. The caller invokes the helper using the\nparametrized call type and stores the results.",
            "url": "https://github.com/ethereum/execution-specs/blob/tests-bal@v5.5.1/tests/constantinople/eip1052_extcodehash/test_extcodehash.py#L676",
            "opcode_count": {},
            "reference-spec": "https://github.com/ethereum/EIPs/blob/master/EIPS/eip-1052.md",
            "reference-spec-version": "2dcbc7ce1563e9624e137e9d447374600af876fa"
        }
    },
    "tests/constantinople/eip1052_extcodehash/test_extcodehash.py::test_extcodehash_via_call[fork_Istanbul-blockchain_test_from_state_test-opcode_DELEGATECALL]": {
        "network": "Istanbul",
        "genesisBlockHeader": {
            "parentHash": "0x0000000000000000000000000000000000000000000000000000000000000000",
            "uncleHash": "0x1dcc4de8dec75d7aab85b567b6ccd41ad312451b948a7413f0a142fd40d49347",
            "coinbase": "0x0000000000000000000000000000000000000000",
            "stateRoot": "0x57dba3586a529010b7bd08c2e82fec2eb583b42d2fa78590b5279da4d8cb9940",
            "transactionsTrie": "0x56e81f171bcc55a6ff8345e692c0f86e5b48e01b996cadc001622fb5e363b421",
            "receiptTrie": "0x56e81f171bcc55a6ff8345e692c0f86e5b48e01b996cadc001622fb5e363b421",
            "bloom": "0x00000000000000000000000000000000000000000000000000000000000000000000000000000000000000000000000000000000000000000000000000000000000000000000000000000000000000000000000000000000000000000000000000000000000000000000000000000000000000000000000000000000000000000000000000000000000000000000000000000000000000000000000000000000000000000000000000000000000000000000000000000000000000000000000000000000000000000000000000000000000000000000000000000000000000000000000000000000000000000000000000000000000000000000000000000000",
            "difficulty": "0x020000",
            "number": "0x00",
            "gasLimit": "0x07270e00",
            "gasUsed": "0x00",
            "timestamp": "0x00",
            "extraData": "0x00",
            "mixHash": "0x0000000000000000000000000000000000000000000000000000000000000000",
            "nonce": "0x0000000000000000",
            "hash": "0x0b845c38f29a0e4268aea9cf8443ce43c418c8fc2e3359c91fe3a9a53d6dcff6"
        },
        "pre": {
            "0xa743b0fd5c4186098bfb6e2302ddb5a6f48c1a9f": {
                "nonce": "0x01",
                "balance": "0x00",
                "code": "0x1234",
                "storage": {}
            },
            "0x3eced02499f6f40d0c87b38faf5f14583b488e09": {
                "nonce": "0x01",
                "balance": "0x00",
                "code": "0x73a743b0fd5c4186098bfb6e2302ddb5a6f48c1a9f3f60005273a743b0fd5c4186098bfb6e2302ddb5a6f48c1a9f3b60205260406000f3",
                "storage": {}
            },
            "0xff280cecb2391b4f68058e24365d7b764f9e20a3": {
                "nonce": "0x01",
                "balance": "0x00",
                "code": "0x6000600060006000733eced02499f6f40d0c87b38faf5f14583b488e09620249f0f46040600060003e600051600055602051600155",
                "storage": {}
            },
            "0x1ad9bc24818784172ff393bb6f89f094d4d2ca29": {
                "nonce": "0x00",
                "balance": "0x3635c9adc5dea00000",
                "code": "0x",
                "storage": {}
            }
        },
        "postState": {
            "0xa743b0fd5c4186098bfb6e2302ddb5a6f48c1a9f": {
                "nonce": "0x01",
                "balance": "0x00",
                "code": "0x1234",
                "storage": {}
            },
            "0x3eced02499f6f40d0c87b38faf5f14583b488e09": {
                "nonce": "0x01",
                "balance": "0x00",
                "code": "0x73a743b0fd5c4186098bfb6e2302ddb5a6f48c1a9f3f60005273a743b0fd5c4186098bfb6e2302ddb5a6f48c1a9f3b60205260406000f3",
                "storage": {}
            },
            "0xff280cecb2391b4f68058e24365d7b764f9e20a3": {
                "nonce": "0x01",
                "balance": "0x00",
                "code": "0x6000600060006000733eced02499f6f40d0c87b38faf5f14583b488e09620249f0f46040600060003e600051600055602051600155",
                "storage": {
                    "0x00": "0x56570de287d73cd1cb6092bb8fdee6173974955fdef345ae579ee9f475ea7432",
                    "0x01": "0x02"
                }
            },
            "0x1ad9bc24818784172ff393bb6f89f094d4d2ca29": {
                "nonce": "0x01",
                "balance": "0x3635c9adc5de965ba4",
                "code": "0x",
                "storage": {}
            },
            "0x2adc25665018aa1fe0e6bc666dac8fc2697ff9ba": {
                "nonce": "0x00",
                "balance": "0x1bc16d674ed1a45c",
                "code": "0x",
                "storage": {}
            }
        },
        "lastblockhash": "0x3dcaa879095e898805415028060b4d22851b5c5e0628bd61db0d43d44af176d0",
        "config": {
            "network": "Istanbul",
            "chainid": "0x01"
        },
        "genesisRLP": "0xf901f9f901f4a00000000000000000000000000000000000000000000000000000000000000000a01dcc4de8dec75d7aab85b567b6ccd41ad312451b948a7413f0a142fd40d49347940000000000000000000000000000000000000000a057dba3586a529010b7bd08c2e82fec2eb583b42d2fa78590b5279da4d8cb9940a056e81f171bcc55a6ff8345e692c0f86e5b48e01b996cadc001622fb5e363b421a056e81f171bcc55a6ff8345e692c0f86e5b48e01b996cadc001622fb5e363b421b901000000000000000000000000000000000000000000000000000000000000000000000000000000000000000000000000000000000000000000000000000000000000000000000000000000000000000000000000000000000000000000000000000000000000000000000000000000000000000000000000000000000000000000000000000000000000000000000000000000000000000000000000000000000000000000000000000000000000000000000000000000000000000000000000000000000000000000000000000000000000000000000000000000000000000000000000000000000000000000000000000000000000000000000000000000000083020000808407270e00808000a00000000000000000000000000000000000000000000000000000000000000000880000000000000000c0c0",
        "blocks": [
            {
                "blockHeader": {
                    "parentHash": "0x0b845c38f29a0e4268aea9cf8443ce43c418c8fc2e3359c91fe3a9a53d6dcff6",
                    "uncleHash": "0x1dcc4de8dec75d7aab85b567b6ccd41ad312451b948a7413f0a142fd40d49347",
                    "coinbase": "0x2adc25665018aa1fe0e6bc666dac8fc2697ff9ba",
                    "stateRoot": "0x5909f3377e4a52f36f9e0acd36f6bfc431c2f81f17cbc879afeab687108e744c",
                    "transactionsTrie": "0xd1afdd3024c85eb9db8a4221abae158bf03bc1a91426de90e20ca6186d43d3e7",
                    "receiptTrie": "0xdeedbb821f8c3f7c10c82273cdd3ac14bf2bcfd5e6ec23446be3ce637aed5746",
                    "bloom": "0x00000000000000000000000000000000000000000000000000000000000000000000000000000000000000000000000000000000000000000000000000000000000000000000000000000000000000000000000000000000000000000000000000000000000000000000000000000000000000000000000000000000000000000000000000000000000000000000000000000000000000000000000000000000000000000000000000000000000000000000000000000000000000000000000000000000000000000000000000000000000000000000000000000000000000000000000000000000000000000000000000000000000000000000000000000000",
                    "difficulty": "0x020000",
                    "number": "0x01",
                    "gasLimit": "0x07270e00",
                    "gasUsed": "0xf6d6",
                    "timestamp": "0x03e8",
                    "extraData": "0x00",
                    "mixHash": "0x0000000000000000000000000000000000000000000000000000000000000000",
                    "nonce": "0x0000000000000000",
                    "hash": "0x3dcaa879095e898805415028060b4d22851b5c5e0628bd61db0d43d44af176d0"
                },
                "transactions": [
                    {
                        "type": "0x00",
                        "chainId": "0x01",
                        "nonce": "0x00",
                        "gasPrice": "0x0a",
                        "gasLimit": "0x061a80",
                        "to": "0xff280cecb2391b4f68058e24365d7b764f9e20a3",
                        "value": "0x00",
                        "data": "0x",
                        "v": "0x25",
                        "r": "0xa813de08d636a03d9bd9aa0c1fb8227a51a2e5b1553471247112086e9ea48465",
                        "s": "0x64a3fc87e72f27b33834496583313f0b50cfd5d2855da0916019fad609f4b580",
                        "sender": "0x1ad9bc24818784172ff393bb6f89f094d4d2ca29"
                    }
                ],
                "uncleHeaders": [],
                "receipts": [
                    {
                        "transactionHash": "0x5cbbc76315920a10f364a31f2578876867fffa7a00d429a8848db3a4713c3cc0",
                        "type": "0x00",
                        "cumulativeGasUsed": "0xf6d6",
                        "bloom": "0x00000000000000000000000000000000000000000000000000000000000000000000000000000000000000000000000000000000000000000000000000000000000000000000000000000000000000000000000000000000000000000000000000000000000000000000000000000000000000000000000000000000000000000000000000000000000000000000000000000000000000000000000000000000000000000000000000000000000000000000000000000000000000000000000000000000000000000000000000000000000000000000000000000000000000000000000000000000000000000000000000000000000000000000000000000000",
                        "logs": [],
                        "status": true,
                        "rlp": "0xf901080182f6d6b9010000000000000000000000000000000000000000000000000000000000000000000000000000000000000000000000000000000000000000000000000000000000000000000000000000000000000000000000000000000000000000000000000000000000000000000000000000000000000000000000000000000000000000000000000000000000000000000000000000000000000000000000000000000000000000000000000000000000000000000000000000000000000000000000000000000000000000000000000000000000000000000000000000000000000000000000000000000000000000000000000000000000000000000000000000000000c0"
                    }
                ],
                "rlp": "0xf90260f901f8a00b845c38f29a0e4268aea9cf8443ce43c418c8fc2e3359c91fe3a9a53d6dcff6a01dcc4de8dec75d7aab85b567b6ccd41ad312451b948a7413f0a142fd40d49347942adc25665018aa1fe0e6bc666dac8fc2697ff9baa05909f3377e4a52f36f9e0acd36f6bfc431c2f81f17cbc879afeab687108e744ca0d1afdd3024c85eb9db8a4221abae158bf03bc1a91426de90e20ca6186d43d3e7a0deedbb821f8c3f7c10c82273cdd3ac14bf2bcfd5e6ec23446be3ce637aed5746b901000000000000000000000000000000000000000000000000000000000000000000000000000000000000000000000000000000000000000000000000000000000000000000000000000000000000000000000000000000000000000000000000000000000000000000000000000000000000000000000000000000000000000000000000000000000000000000000000000000000000000000000000000000000000000000000000000000000000000000000000000000000000000000000000000000000000000000000000000000000000000000000000000000000000000000000000000000000000000000000000000000000000000000000000000000000083020000018407270e0082f6d68203e800a00000000000000000000000000000000000000000000000000000000000000000880000000000000000f862f860800a83061a8094ff280cecb2391b4f68058e24365d7b764f9e20a3808025a0a813de08d636a03d9bd9aa0c1fb8227a51a2e5b1553471247112086e9ea48465a064a3fc87e72f27b33834496583313f0b50cfd5d2855da0916019fad609f4b580c0",
                "blocknumber": "1"
            }
        ],
        "sealEngine": "NoProof",
        "_info": {
            "hash": "0xe8c3a6655f504ebad23f074484a089b81e27db18ca7e9d808c48d88389681a37",
            "fixture-format": "blockchain_test",
            "comment": "`execution-specs` generated test",
            "filling-transition-tool": "2.19.0",
            "description": "Test EXTCODEHASH/EXTCODESIZE queried via different call types.\n\nA helper contract computes EXTCODEHASH and EXTCODESIZE of a target\nand returns them. The caller invokes the helper using the\nparametrized call type and stores the results.",
            "url": "https://github.com/ethereum/execution-specs/blob/tests-bal@v5.5.1/tests/constantinople/eip1052_extcodehash/test_extcodehash.py#L676",
            "opcode_count": {},
            "reference-spec": "https://github.com/ethereum/EIPs/blob/master/EIPS/eip-1052.md",
            "reference-spec-version": "2dcbc7ce1563e9624e137e9d447374600af876fa"
        }
    },
    "tests/constantinople/eip1052_extcodehash/test_extcodehash.py::test_extcodehash_via_call[fork_Istanbul-blockchain_test_from_state_test-opcode_STATICCALL]": {
        "network": "Istanbul",
        "genesisBlockHeader": {
            "parentHash": "0x0000000000000000000000000000000000000000000000000000000000000000",
            "uncleHash": "0x1dcc4de8dec75d7aab85b567b6ccd41ad312451b948a7413f0a142fd40d49347",
            "coinbase": "0x0000000000000000000000000000000000000000",
            "stateRoot": "0x0b88b890600dac334d2868f1555ed78d5ecf8075f14ae107b524f05afde9c01b",
            "transactionsTrie": "0x56e81f171bcc55a6ff8345e692c0f86e5b48e01b996cadc001622fb5e363b421",
            "receiptTrie": "0x56e81f171bcc55a6ff8345e692c0f86e5b48e01b996cadc001622fb5e363b421",
            "bloom": "0x00000000000000000000000000000000000000000000000000000000000000000000000000000000000000000000000000000000000000000000000000000000000000000000000000000000000000000000000000000000000000000000000000000000000000000000000000000000000000000000000000000000000000000000000000000000000000000000000000000000000000000000000000000000000000000000000000000000000000000000000000000000000000000000000000000000000000000000000000000000000000000000000000000000000000000000000000000000000000000000000000000000000000000000000000000000",
            "difficulty": "0x020000",
            "number": "0x00",
            "gasLimit": "0x07270e00",
            "gasUsed": "0x00",
            "timestamp": "0x00",
            "extraData": "0x00",
            "mixHash": "0x0000000000000000000000000000000000000000000000000000000000000000",
            "nonce": "0x0000000000000000",
            "hash": "0xe7314d372835442f54036716193ed9c5c5d5b4243db6ef1f2b0dafb8c4c075db"
        },
        "pre": {
            "0xa743b0fd5c4186098bfb6e2302ddb5a6f48c1a9f": {
                "nonce": "0x01",
                "balance": "0x00",
                "code": "0x1234",
                "storage": {}
            },
            "0x3eced02499f6f40d0c87b38faf5f14583b488e09": {
                "nonce": "0x01",
                "balance": "0x00",
                "code": "0x73a743b0fd5c4186098bfb6e2302ddb5a6f48c1a9f3f60005273a743b0fd5c4186098bfb6e2302ddb5a6f48c1a9f3b60205260406000f3",
                "storage": {}
            },
            "0x3285b036e3a1769b0fe239a214c065048d7bfd13": {
                "nonce": "0x01",
                "balance": "0x00",
                "code": "0x6000600060006000733eced02499f6f40d0c87b38faf5f14583b488e09620249f0fa6040600060003e600051600055602051600155",
                "storage": {}
            },
            "0x1ad9bc24818784172ff393bb6f89f094d4d2ca29": {
                "nonce": "0x00",
                "balance": "0x3635c9adc5dea00000",
                "code": "0x",
                "storage": {}
            }
        },
        "postState": {
            "0xa743b0fd5c4186098bfb6e2302ddb5a6f48c1a9f": {
                "nonce": "0x01",
                "balance": "0x00",
                "code": "0x1234",
                "storage": {}
            },
            "0x3eced02499f6f40d0c87b38faf5f14583b488e09": {
                "nonce": "0x01",
                "balance": "0x00",
                "code": "0x73a743b0fd5c4186098bfb6e2302ddb5a6f48c1a9f3f60005273a743b0fd5c4186098bfb6e2302ddb5a6f48c1a9f3b60205260406000f3",
                "storage": {}
            },
            "0x3285b036e3a1769b0fe239a214c065048d7bfd13": {
                "nonce": "0x01",
                "balance": "0x00",
                "code": "0x6000600060006000733eced02499f6f40d0c87b38faf5f14583b488e09620249f0fa6040600060003e600051600055602051600155",
                "storage": {
                    "0x00": "0x56570de287d73cd1cb6092bb8fdee6173974955fdef345ae579ee9f475ea7432",
                    "0x01": "0x02"
                }
            },
            "0x1ad9bc24818784172ff393bb6f89f094d4d2ca29": {
                "nonce": "0x01",
                "balance": "0x3635c9adc5de965ba4",
                "code": "0x",
                "storage": {}
            },
            "0x2adc25665018aa1fe0e6bc666dac8fc2697ff9ba": {
                "nonce": "0x00",
                "balance": "0x1bc16d674ed1a45c",
                "code": "0x",
                "storage": {}
            }
        },
        "lastblockhash": "0x63776a4ab9d77654a3f3d946e4015679d1b1f71b4d08dd89df70dbe0b6bced6b",
        "config": {
            "network": "Istanbul",
            "chainid": "0x01"
        },
        "genesisRLP": "0xf901f9f901f4a00000000000000000000000000000000000000000000000000000000000000000a01dcc4de8dec75d7aab85b567b6ccd41ad312451b948a7413f0a142fd40d49347940000000000000000000000000000000000000000a00b88b890600dac334d2868f1555ed78d5ecf8075f14ae107b524f05afde9c01ba056e81f171bcc55a6ff8345e692c0f86e5b48e01b996cadc001622fb5e363b421a056e81f171bcc55a6ff8345e692c0f86e5b48e01b996cadc001622fb5e363b421b901000000000000000000000000000000000000000000000000000000000000000000000000000000000000000000000000000000000000000000000000000000000000000000000000000000000000000000000000000000000000000000000000000000000000000000000000000000000000000000000000000000000000000000000000000000000000000000000000000000000000000000000000000000000000000000000000000000000000000000000000000000000000000000000000000000000000000000000000000000000000000000000000000000000000000000000000000000000000000000000000000000000000000000000000000000000083020000808407270e00808000a00000000000000000000000000000000000000000000000000000000000000000880000000000000000c0c0",
        "blocks": [
            {
                "blockHeader": {
                    "parentHash": "0xe7314d372835442f54036716193ed9c5c5d5b4243db6ef1f2b0dafb8c4c075db",
                    "uncleHash": "0x1dcc4de8dec75d7aab85b567b6ccd41ad312451b948a7413f0a142fd40d49347",
                    "coinbase": "0x2adc25665018aa1fe0e6bc666dac8fc2697ff9ba",
                    "stateRoot": "0x38573b27933fc2d1e0537aba8d90193f11c5620fea5e0aa1b8e1b9d13254e61a",
                    "transactionsTrie": "0xbca87b246ef3d5f91bfa59d1843a7c7d71c404ce3433d39c15a08e783107d993",
                    "receiptTrie": "0xdeedbb821f8c3f7c10c82273cdd3ac14bf2bcfd5e6ec23446be3ce637aed5746",
                    "bloom": "0x00000000000000000000000000000000000000000000000000000000000000000000000000000000000000000000000000000000000000000000000000000000000000000000000000000000000000000000000000000000000000000000000000000000000000000000000000000000000000000000000000000000000000000000000000000000000000000000000000000000000000000000000000000000000000000000000000000000000000000000000000000000000000000000000000000000000000000000000000000000000000000000000000000000000000000000000000000000000000000000000000000000000000000000000000000000",
                    "difficulty": "0x020000",
                    "number": "0x01",
                    "gasLimit": "0x07270e00",
                    "gasUsed": "0xf6d6",
                    "timestamp": "0x03e8",
                    "extraData": "0x00",
                    "mixHash": "0x0000000000000000000000000000000000000000000000000000000000000000",
                    "nonce": "0x0000000000000000",
                    "hash": "0x63776a4ab9d77654a3f3d946e4015679d1b1f71b4d08dd89df70dbe0b6bced6b"
                },
                "transactions": [
                    {
                        "type": "0x00",
                        "chainId": "0x01",
                        "nonce": "0x00",
                        "gasPrice": "0x0a",
                        "gasLimit": "0x061a80",
                        "to": "0x3285b036e3a1769b0fe239a214c065048d7bfd13",
                        "value": "0x00",
                        "data": "0x",
                        "v": "0x25",
                        "r": "0xf9c5bf139c3496a555e278b5e48e300c23142603e2a93b4604695d6b8dd1938e",
                        "s": "0x2c087b2df43025722a971540affdcffd904634e340907c8d0ee6ca8ab5eb6ab3",
                        "sender": "0x1ad9bc24818784172ff393bb6f89f094d4d2ca29"
                    }
                ],
                "uncleHeaders": [],
                "receipts": [
                    {
                        "transactionHash": "0x20ef99a5ebaae827408e5972a7f72f346626bf78da85ab806aa8fa774f4ff1d5",
                        "type": "0x00",
                        "cumulativeGasUsed": "0xf6d6",
                        "bloom": "0x00000000000000000000000000000000000000000000000000000000000000000000000000000000000000000000000000000000000000000000000000000000000000000000000000000000000000000000000000000000000000000000000000000000000000000000000000000000000000000000000000000000000000000000000000000000000000000000000000000000000000000000000000000000000000000000000000000000000000000000000000000000000000000000000000000000000000000000000000000000000000000000000000000000000000000000000000000000000000000000000000000000000000000000000000000000",
                        "logs": [],
                        "status": true,
                        "rlp": "0xf901080182f6d6b9010000000000000000000000000000000000000000000000000000000000000000000000000000000000000000000000000000000000000000000000000000000000000000000000000000000000000000000000000000000000000000000000000000000000000000000000000000000000000000000000000000000000000000000000000000000000000000000000000000000000000000000000000000000000000000000000000000000000000000000000000000000000000000000000000000000000000000000000000000000000000000000000000000000000000000000000000000000000000000000000000000000000000000000000000000000000c0"
                    }
                ],
                "rlp": "0xf90260f901f8a0e7314d372835442f54036716193ed9c5c5d5b4243db6ef1f2b0dafb8c4c075dba01dcc4de8dec75d7aab85b567b6ccd41ad312451b948a7413f0a142fd40d49347942adc25665018aa1fe0e6bc666dac8fc2697ff9baa038573b27933fc2d1e0537aba8d90193f11c5620fea5e0aa1b8e1b9d13254e61aa0bca87b246ef3d5f91bfa59d1843a7c7d71c404ce3433d39c15a08e783107d993a0deedbb821f8c3f7c10c82273cdd3ac14bf2bcfd5e6ec23446be3ce637aed5746b901000000000000000000000000000000000000000000000000000000000000000000000000000000000000000000000000000000000000000000000000000000000000000000000000000000000000000000000000000000000000000000000000000000000000000000000000000000000000000000000000000000000000000000000000000000000000000000000000000000000000000000000000000000000000000000000000000000000000000000000000000000000000000000000000000000000000000000000000000000000000000000000000000000000000000000000000000000000000000000000000000000000000000000000000000000000083020000018407270e0082f6d68203e800a00000000000000000000000000000000000000000000000000000000000000000880000000000000000f862f860800a83061a80943285b036e3a1769b0fe239a214c065048d7bfd13808025a0f9c5bf139c3496a555e278b5e48e300c23142603e2a93b4604695d6b8dd1938ea02c087b2df43025722a971540affdcffd904634e340907c8d0ee6ca8ab5eb6ab3c0",
                "blocknumber": "1"
            }
        ],
        "sealEngine": "NoProof",
        "_info": {
            "hash": "0xe404d40f54c9e77d519329d5f640bd51394efaeb9af29c02e8dc1cb2c6d36d32",
            "fixture-format": "blockchain_test",
            "comment": "`execution-specs` generated test",
            "filling-transition-tool": "2.19.0",
            "description": "Test EXTCODEHASH/EXTCODESIZE queried via different call types.\n\nA helper contract computes EXTCODEHASH and EXTCODESIZE of a target\nand returns them. The caller invokes the helper using the\nparametrized call type and stores the results.",
            "url": "https://github.com/ethereum/execution-specs/blob/tests-bal@v5.5.1/tests/constantinople/eip1052_extcodehash/test_extcodehash.py#L676",
            "opcode_count": {},
            "reference-spec": "https://github.com/ethereum/EIPs/blob/master/EIPS/eip-1052.md",
            "reference-spec-version": "2dcbc7ce1563e9624e137e9d447374600af876fa"
        }
    }
}