{
    "tests/constantinople/eip1052_extcodehash/test_extcodehash.py::test_extcodehash_call_to_selfdestruct[fork_Istanbul-call_opcode_CALL-blockchain_test_from_state_test]": {
        "network": "Istanbul",
        "genesisBlockHeader": {
            "parentHash": "0x0000000000000000000000000000000000000000000000000000000000000000",
            "uncleHash": "0x1dcc4de8dec75d7aab85b567b6ccd41ad312451b948a7413f0a142fd40d49347",
            "coinbase": "0x0000000000000000000000000000000000000000",
            "stateRoot": "0x78a3845afb7586432113a517308dc26be952cf484d3db716646296dcd8c77ede",
            "transactionsTrie": "0x56e81f171bcc55a6ff8345e692c0f86e5b48e01b996cadc001622fb5e363b421",
            "receiptTrie": "0x56e81f171bcc55a6ff8345e692c0f86e5b48e01b996cadc001622fb5e363b421",
            "bloom": "0x00000000000000000000000000000000000000000000000000000000000000000000000000000000000000000000000000000000000000000000000000000000000000000000000000000000000000000000000000000000000000000000000000000000000000000000000000000000000000000000000000000000000000000000000000000000000000000000000000000000000000000000000000000000000000000000000000000000000000000000000000000000000000000000000000000000000000000000000000000000000000000000000000000000000000000000000000000000000000000000000000000000000000000000000000000000",
            "difficulty": "0x020000",
            "number": "0x00",
            "gasLimit": "0x07270e00",
            "gasUsed": "0x00",
            "timestamp": "0x00",
            "extraData": "0x00",
            "mixHash": "0x0000000000000000000000000000000000000000000000000000000000000000",
            "nonce": "0x0000000000000000",
            "hash": "0x64722e50637998235838075892e5a75bd8dcd9f0ac7e7d92d9a09c52a7ffb7eb"
        },
        "pre": {
            "0x9e2d765f67baf5402618db6ce0a535982a53c6fc": {
                "nonce": "0x01",
                "balance": "0x014b230ce3",
                "code": "0x73c0f6dc9e5836f54caadbf59cc69346c508e1992bff",
                "storage": {}
            },
            "0x6dad7963db8cb45d9d98675b76bfe220984af94d": {
                "nonce": "0x01",
                "balance": "0x00",
                "code": "0x60006000600060006000739e2d765f67baf5402618db6ce0a535982a53c6fc62028488f1600055739e2d765f67baf5402618db6ce0a535982a53c6fc3f600155",
                "storage": {}
            },
            "0x1ad9bc24818784172ff393bb6f89f094d4d2ca29": {
                "nonce": "0x00",
                "balance": "0x3635c9adc5dea00000",
                "code": "0x",
                "storage": {}
            }
        },
        "postState": {
            "0x6dad7963db8cb45d9d98675b76bfe220984af94d": {
                "nonce": "0x01",
                "balance": "0x00",
                "code": "0x60006000600060006000739e2d765f67baf5402618db6ce0a535982a53c6fc62028488f1600055739e2d765f67baf5402618db6ce0a535982a53c6fc3f600155",
                "storage": {
                    "0x00": "0x01",
                    "0x01": "0x6b4ff852eddedbf436c55cddbc4c143cd2e28485c7e292175f9cc5817fc819ad"
                }
            },
            "0x1ad9bc24818784172ff393bb6f89f094d4d2ca29": {
                "nonce": "0x01",
                "balance": "0x3635c9adc5de958ed6",
                "code": "0x",
                "storage": {}
            },
            "0xc0f6dc9e5836f54caadbf59cc69346c508e1992b": {
                "nonce": "0x00",
                "balance": "0x014b230ce3",
                "code": "0x",
                "storage": {}
            },
            "0x2adc25665018aa1fe0e6bc666dac8fc2697ff9ba": {
                "nonce": "0x00",
                "balance": "0x1bc16d674ed2712a",
                "code": "0x",
                "storage": {}
            }
        },
        "lastblockhash": "0x85b55d02a9e8f6b8b4c71c4e2b5f2eedd4281dd0fb92a1c137fe88e93b4efbc9",
        "config": {
            "network": "Istanbul",
            "chainid": "0x01"
        },
        "genesisRLP": "0xf901f9f901f4a00000000000000000000000000000000000000000000000000000000000000000a01dcc4de8dec75d7aab85b567b6ccd41ad312451b948a7413f0a142fd40d49347940000000000000000000000000000000000000000a078a3845afb7586432113a517308dc26be952cf484d3db716646296dcd8c77edea056e81f171bcc55a6ff8345e692c0f86e5b48e01b996cadc001622fb5e363b421a056e81f171bcc55a6ff8345e692c0f86e5b48e01b996cadc001622fb5e363b421b901000000000000000000000000000000000000000000000000000000000000000000000000000000000000000000000000000000000000000000000000000000000000000000000000000000000000000000000000000000000000000000000000000000000000000000000000000000000000000000000000000000000000000000000000000000000000000000000000000000000000000000000000000000000000000000000000000000000000000000000000000000000000000000000000000000000000000000000000000000000000000000000000000000000000000000000000000000000000000000000000000000000000000000000000000000000083020000808407270e00808000a00000000000000000000000000000000000000000000000000000000000000000880000000000000000c0c0",
        "blocks": [
            {
                "blockHeader": {
                    "parentHash": "0x64722e50637998235838075892e5a75bd8dcd9f0ac7e7d92d9a09c52a7ffb7eb",
                    "uncleHash": "0x1dcc4de8dec75d7aab85b567b6ccd41ad312451b948a7413f0a142fd40d49347",
                    "coinbase": "0x2adc25665018aa1fe0e6bc666dac8fc2697ff9ba",
                    "stateRoot": "0xe3a80fb2c6f3f63480e00aeecf0906033f8f5b06af12e2f7f9ae93512e2dab86",
                    "transactionsTrie": "0xbf75d4e54078ff0a72a64c8f74d7af094ff8e26f02d6c6f49c3e174e3c0405e9",
                    "receiptTrie": "0x971ae6038e4b6adfdc0eda71c471c621a77de17a0256014eb9d7dae23c74d4b6",
                    "bloom": "0x00000000000000000000000000000000000000000000000000000000000000000000000000000000000000000000000000000000000000000000000000000000000000000000000000000000000000000000000000000000000000000000000000000000000000000000000000000000000000000000000000000000000000000000000000000000000000000000000000000000000000000000000000000000000000000000000000000000000000000000000000000000000000000000000000000000000000000000000000000000000000000000000000000000000000000000000000000000000000000000000000000000000000000000000000000000",
                    "difficulty": "0x020000",
                    "number": "0x01",
                    "gasLimit": "0x07270e00",
                    "gasUsed": "0x010b51",
                    "timestamp": "0x03e8",
                    "extraData": "0x00",
                    "mixHash": "0x0000000000000000000000000000000000000000000000000000000000000000",
                    "nonce": "0x0000000000000000",
                    "hash": "0x85b55d02a9e8f6b8b4c71c4e2b5f2eedd4281dd0fb92a1c137fe88e93b4efbc9"
                },
                "transactions": [
                    {
                        "type": "0x00",
                        "chainId": "0x01",
                        "nonce": "0x00",
                        "gasPrice": "0x0a",
                        "gasLimit": "0x061a80",
                        "to": "0x6dad7963db8cb45d9d98675b76bfe220984af94d",
                        "value": "0x00",
                        "data": "0x",
                        "v": "0x25",
                        "r": "0x485dfa5911f6ee0d8fef9f4f46a8ea1085af9447d9396b3604515a26f5e8f77f",
                        "s": "0x1119e5e8bf3d3a9080474a572d471926a9d5f9a97e6465ee109acd7597d46b48",
                        "sender": "0x1ad9bc24818784172ff393bb6f89f094d4d2ca29"
                    }
                ],
                "uncleHeaders": [],
                "receipts": [
                    {
                        "transactionHash": "0x0b446247b1908541a51d0bb1d580143586012895f64f4556c3e5d0edc87cf9c2",
                        "type": "0x00",
                        "cumulativeGasUsed": "0x010b51",
                        "bloom": "0x00000000000000000000000000000000000000000000000000000000000000000000000000000000000000000000000000000000000000000000000000000000000000000000000000000000000000000000000000000000000000000000000000000000000000000000000000000000000000000000000000000000000000000000000000000000000000000000000000000000000000000000000000000000000000000000000000000000000000000000000000000000000000000000000000000000000000000000000000000000000000000000000000000000000000000000000000000000000000000000000000000000000000000000000000000000",
                        "logs": [],
                        "status": true,
                        "rlp": "0xf901090183010b51b9010000000000000000000000000000000000000000000000000000000000000000000000000000000000000000000000000000000000000000000000000000000000000000000000000000000000000000000000000000000000000000000000000000000000000000000000000000000000000000000000000000000000000000000000000000000000000000000000000000000000000000000000000000000000000000000000000000000000000000000000000000000000000000000000000000000000000000000000000000000000000000000000000000000000000000000000000000000000000000000000000000000000000000000000000000000000c0"
                    }
                ],
                "rlp": "0xf90261f901f9a064722e50637998235838075892e5a75bd8dcd9f0ac7e7d92d9a09c52a7ffb7eba01dcc4de8dec75d7aab85b567b6ccd41ad312451b948a7413f0a142fd40d49347942adc25665018aa1fe0e6bc666dac8fc2697ff9baa0e3a80fb2c6f3f63480e00aeecf0906033f8f5b06af12e2f7f9ae93512e2dab86a0bf75d4e54078ff0a72a64c8f74d7af094ff8e26f02d6c6f49c3e174e3c0405e9a0971ae6038e4b6adfdc0eda71c471c621a77de17a0256014eb9d7dae23c74d4b6b901000000000000000000000000000000000000000000000000000000000000000000000000000000000000000000000000000000000000000000000000000000000000000000000000000000000000000000000000000000000000000000000000000000000000000000000000000000000000000000000000000000000000000000000000000000000000000000000000000000000000000000000000000000000000000000000000000000000000000000000000000000000000000000000000000000000000000000000000000000000000000000000000000000000000000000000000000000000000000000000000000000000000000000000000000000000083020000018407270e0083010b518203e800a00000000000000000000000000000000000000000000000000000000000000000880000000000000000f862f860800a83061a80946dad7963db8cb45d9d98675b76bfe220984af94d808025a0485dfa5911f6ee0d8fef9f4f46a8ea1085af9447d9396b3604515a26f5e8f77fa01119e5e8bf3d3a9080474a572d471926a9d5f9a97e6465ee109acd7597d46b48c0",
                "blocknumber": "1"
            }
        ],
        "sealEngine": "NoProof",
        "_info": {
            "hash": "0xbbe433cd18d4e7588fc22a1004ae97a14f880a0ef59988b5a0c0d36ac964ecb7",
            "fixture-format": "blockchain_test",
            "comment": "`execution-specs` generated test",
            "filling-transition-tool": "2.19.0",
            "description": "Test EXTCODEHASH after calling a contract that selfdestructs.\n\nCall a contract containing SELFDESTRUCT using each call type, then\ncheck EXTCODEHASH. The hash is always returned because the check\nhappens within the same transaction. STATICCALL fails because\nSELFDESTRUCT modifies state. Pre-Cancun, CALLCODE/DELEGATECALL\nexecute SELFDESTRUCT in the caller's context, destroying the test\ncontract at end of transaction.",
            "url": "https://github.com/ethereum/execution-specs/blob/tests-bal@v5.4.0/tests/constantinople/eip1052_extcodehash/test_extcodehash.py#L1254",
            "opcode_count": {},
            "reference-spec": "https://github.com/ethereum/EIPs/blob/master/EIPS/eip-1052.md",
            "reference-spec-version": "2dcbc7ce1563e9624e137e9d447374600af876fa"
        }
    },
    "tests/constantinople/eip1052_extcodehash/test_extcodehash.py::test_extcodehash_call_to_selfdestruct[fork_Istanbul-call_opcode_CALLCODE-blockchain_test_from_state_test]": {
        "network": "Istanbul",
        "genesisBlockHeader": {
            "parentHash": "0x0000000000000000000000000000000000000000000000000000000000000000",
            "uncleHash": "0x1dcc4de8dec75d7aab85b567b6ccd41ad312451b948a7413f0a142fd40d49347",
            "coinbase": "0x0000000000000000000000000000000000000000",
            "stateRoot": "0xdc7dfc72f4b9066b650157a2c32870ae7c48afe5f737b6c0592c5e387db68747",
            "transactionsTrie": "0x56e81f171bcc55a6ff8345e692c0f86e5b48e01b996cadc001622fb5e363b421",
            "receiptTrie": "0x56e81f171bcc55a6ff8345e692c0f86e5b48e01b996cadc001622fb5e363b421",
            "bloom": "0x00000000000000000000000000000000000000000000000000000000000000000000000000000000000000000000000000000000000000000000000000000000000000000000000000000000000000000000000000000000000000000000000000000000000000000000000000000000000000000000000000000000000000000000000000000000000000000000000000000000000000000000000000000000000000000000000000000000000000000000000000000000000000000000000000000000000000000000000000000000000000000000000000000000000000000000000000000000000000000000000000000000000000000000000000000000",
            "difficulty": "0x020000",
            "number": "0x00",
            "gasLimit": "0x07270e00",
            "gasUsed": "0x00",
            "timestamp": "0x00",
            "extraData": "0x00",
            "mixHash": "0x0000000000000000000000000000000000000000000000000000000000000000",
            "nonce": "0x0000000000000000",
            "hash": "0x92cc07e34d63fcad778826db793db6f5a881c36783773efecabe28acd976a75f"
        },
        "pre": {
            "0x9e2d765f67baf5402618db6ce0a535982a53c6fc": {
                "nonce": "0x01",
                "balance": "0x014b230ce3",
                "code": "0x73c0f6dc9e5836f54caadbf59cc69346c508e1992bff",
                "storage": {}
            },
            "0x1977c5fd811d61d5faf60cb2d9fc75a173e87049": {
                "nonce": "0x01",
                "balance": "0x00",
                "code": "0x60006000600060006000739e2d765f67baf5402618db6ce0a535982a53c6fc62028488f2600055739e2d765f67baf5402618db6ce0a535982a53c6fc3f600155",
                "storage": {}
            },
            "0x1ad9bc24818784172ff393bb6f89f094d4d2ca29": {
                "nonce": "0x00",
                "balance": "0x3635c9adc5dea00000",
                "code": "0x",
                "storage": {}
            }
        },
        "postState": {
            "0x9e2d765f67baf5402618db6ce0a535982a53c6fc": {
                "nonce": "0x01",
                "balance": "0x014b230ce3",
                "code": "0x73c0f6dc9e5836f54caadbf59cc69346c508e1992bff",
                "storage": {}
            },
            "0x1ad9bc24818784172ff393bb6f89f094d4d2ca29": {
                "nonce": "0x01",
                "balance": "0x3635c9adc5de995f66",
                "code": "0x",
                "storage": {}
            },
            "0x2adc25665018aa1fe0e6bc666dac8fc2697ff9ba": {
                "nonce": "0x00",
                "balance": "0x1bc16d674ecea09a",
                "code": "0x",
                "storage": {}
            }
        },
        "lastblockhash": "0x63539a07dca8ad2633b3c3a7b452f50e8029c3a413e84fe76f040e175403827c",
        "config": {
            "network": "Istanbul",
            "chainid": "0x01"
        },
        "genesisRLP": "0xf901f9f901f4a00000000000000000000000000000000000000000000000000000000000000000a01dcc4de8dec75d7aab85b567b6ccd41ad312451b948a7413f0a142fd40d49347940000000000000000000000000000000000000000a0dc7dfc72f4b9066b650157a2c32870ae7c48afe5f737b6c0592c5e387db68747a056e81f171bcc55a6ff8345e692c0f86e5b48e01b996cadc001622fb5e363b421a056e81f171bcc55a6ff8345e692c0f86e5b48e01b996cadc001622fb5e363b421b901000000000000000000000000000000000000000000000000000000000000000000000000000000000000000000000000000000000000000000000000000000000000000000000000000000000000000000000000000000000000000000000000000000000000000000000000000000000000000000000000000000000000000000000000000000000000000000000000000000000000000000000000000000000000000000000000000000000000000000000000000000000000000000000000000000000000000000000000000000000000000000000000000000000000000000000000000000000000000000000000000000000000000000000000000000000083020000808407270e00808000a00000000000000000000000000000000000000000000000000000000000000000880000000000000000c0c0",
        "blocks": [
            {
                "blockHeader": {
                    "parentHash": "0x92cc07e34d63fcad778826db793db6f5a881c36783773efecabe28acd976a75f",
                    "uncleHash": "0x1dcc4de8dec75d7aab85b567b6ccd41ad312451b948a7413f0a142fd40d49347",
                    "coinbase": "0x2adc25665018aa1fe0e6bc666dac8fc2697ff9ba",
                    "stateRoot": "0x1a56d0227177bd4374ed0eda6024fdeaa1de0ca42162ac5b3ed31fde02c0241d",
                    "transactionsTrie": "0xb6763d917b3f0eaa4b8010e88f51511d7049e54010c6f50442ef60b7451e3209",
                    "receiptTrie": "0x9f030b9492dd8ae2cc5a59e26f7a9213e36911d0857932efd7aaeeb720fe610d",
                    "bloom": "0x00000000000000000000000000000000000000000000000000000000000000000000000000000000000000000000000000000000000000000000000000000000000000000000000000000000000000000000000000000000000000000000000000000000000000000000000000000000000000000000000000000000000000000000000000000000000000000000000000000000000000000000000000000000000000000000000000000000000000000000000000000000000000000000000000000000000000000000000000000000000000000000000000000000000000000000000000000000000000000000000000000000000000000000000000000000",
                    "difficulty": "0x020000",
                    "number": "0x01",
                    "gasLimit": "0x07270e00",
                    "gasUsed": "0xa9a9",
                    "timestamp": "0x03e8",
                    "extraData": "0x00",
                    "mixHash": "0x0000000000000000000000000000000000000000000000000000000000000000",
                    "nonce": "0x0000000000000000",
                    "hash": "0x63539a07dca8ad2633b3c3a7b452f50e8029c3a413e84fe76f040e175403827c"
                },
                "transactions": [
                    {
                        "type": "0x00",
                        "chainId": "0x01",
                        "nonce": "0x00",
                        "gasPrice": "0x0a",
                        "gasLimit": "0x061a80",
                        "to": "0x1977c5fd811d61d5faf60cb2d9fc75a173e87049",
                        "value": "0x00",
                        "data": "0x",
                        "v": "0x25",
                        "r": "0xd44ef8300e5507d3cbba218f3ac5b47faeadc78311c1f82ec24582e59361c30b",
                        "s": "0x78271583a2269628d4464d57822a66f3e5a82645c80ea44ca576daa0128c7c4a",
                        "sender": "0x1ad9bc24818784172ff393bb6f89f094d4d2ca29"
                    }
                ],
                "uncleHeaders": [],
                "receipts": [
                    {
                        "transactionHash": "0xdc937838e8159e0b9caea381c151cd4a684dcf392be147a109e31a75811fc689",
                        "type": "0x00",
                        "cumulativeGasUsed": "0xa9a9",
                        "bloom": "0x00000000000000000000000000000000000000000000000000000000000000000000000000000000000000000000000000000000000000000000000000000000000000000000000000000000000000000000000000000000000000000000000000000000000000000000000000000000000000000000000000000000000000000000000000000000000000000000000000000000000000000000000000000000000000000000000000000000000000000000000000000000000000000000000000000000000000000000000000000000000000000000000000000000000000000000000000000000000000000000000000000000000000000000000000000000",
                        "logs": [],
                        "status": true,
                        "rlp": "0xf901080182a9a9b9010000000000000000000000000000000000000000000000000000000000000000000000000000000000000000000000000000000000000000000000000000000000000000000000000000000000000000000000000000000000000000000000000000000000000000000000000000000000000000000000000000000000000000000000000000000000000000000000000000000000000000000000000000000000000000000000000000000000000000000000000000000000000000000000000000000000000000000000000000000000000000000000000000000000000000000000000000000000000000000000000000000000000000000000000000000000c0"
                    }
                ],
                "rlp": "0xf90260f901f8a092cc07e34d63fcad778826db793db6f5a881c36783773efecabe28acd976a75fa01dcc4de8dec75d7aab85b567b6ccd41ad312451b948a7413f0a142fd40d49347942adc25665018aa1fe0e6bc666dac8fc2697ff9baa01a56d0227177bd4374ed0eda6024fdeaa1de0ca42162ac5b3ed31fde02c0241da0b6763d917b3f0eaa4b8010e88f51511d7049e54010c6f50442ef60b7451e3209a09f030b9492dd8ae2cc5a59e26f7a9213e36911d0857932efd7aaeeb720fe610db901000000000000000000000000000000000000000000000000000000000000000000000000000000000000000000000000000000000000000000000000000000000000000000000000000000000000000000000000000000000000000000000000000000000000000000000000000000000000000000000000000000000000000000000000000000000000000000000000000000000000000000000000000000000000000000000000000000000000000000000000000000000000000000000000000000000000000000000000000000000000000000000000000000000000000000000000000000000000000000000000000000000000000000000000000000000083020000018407270e0082a9a98203e800a00000000000000000000000000000000000000000000000000000000000000000880000000000000000f862f860800a83061a80941977c5fd811d61d5faf60cb2d9fc75a173e87049808025a0d44ef8300e5507d3cbba218f3ac5b47faeadc78311c1f82ec24582e59361c30ba078271583a2269628d4464d57822a66f3e5a82645c80ea44ca576daa0128c7c4ac0",
                "blocknumber": "1"
            }
        ],
        "sealEngine": "NoProof",
        "_info": {
            "hash": "0x32b3a7c05ff358a15d36f795740e77cd25eab0ad386333881bf25b4dafa01b3d",
            "fixture-format": "blockchain_test",
            "comment": "`execution-specs` generated test",
            "filling-transition-tool": "2.19.0",
            "description": "Test EXTCODEHASH after calling a contract that selfdestructs.\n\nCall a contract containing SELFDESTRUCT using each call type, then\ncheck EXTCODEHASH. The hash is always returned because the check\nhappens within the same transaction. STATICCALL fails because\nSELFDESTRUCT modifies state. Pre-Cancun, CALLCODE/DELEGATECALL\nexecute SELFDESTRUCT in the caller's context, destroying the test\ncontract at end of transaction.",
            "url": "https://github.com/ethereum/execution-specs/blob/tests-bal@v5.4.0/tests/constantinople/eip1052_extcodehash/test_extcodehash.py#L1254",
            "opcode_count": {},
            "reference-spec": "https://github.com/ethereum/EIPs/blob/master/EIPS/eip-1052.md",
            "reference-spec-version": "2dcbc7ce1563e9624e137e9d447374600af876fa"
        }
    },
    "tests/constantinople/eip1052_extcodehash/test_extcodehash.py::test_extcodehash_call_to_selfdestruct[fork_Istanbul-call_opcode_DELEGATECALL-blockchain_test_from_state_test]": {
        "network": "Istanbul",
        "genesisBlockHeader": {
            "parentHash": "0x0000000000000000000000000000000000000000000000000000000000000000",
            "uncleHash": "0x1dcc4de8dec75d7aab85b567b6ccd41ad312451b948a7413f0a142fd40d49347",
            "coinbase": "0x0000000000000000000000000000000000000000",
            "stateRoot": "0xc29290c06ff043755c4fbab0769aa84c9da1167138cfb3498d216b4de18e15b8",
            "transactionsTrie": "0x56e81f171bcc55a6ff8345e692c0f86e5b48e01b996cadc001622fb5e363b421",
            "receiptTrie": "0x56e81f171bcc55a6ff8345e692c0f86e5b48e01b996cadc001622fb5e363b421",
            "bloom": "0x00000000000000000000000000000000000000000000000000000000000000000000000000000000000000000000000000000000000000000000000000000000000000000000000000000000000000000000000000000000000000000000000000000000000000000000000000000000000000000000000000000000000000000000000000000000000000000000000000000000000000000000000000000000000000000000000000000000000000000000000000000000000000000000000000000000000000000000000000000000000000000000000000000000000000000000000000000000000000000000000000000000000000000000000000000000",
            "difficulty": "0x020000",
            "number": "0x00",
            "gasLimit": "0x07270e00",
            "gasUsed": "0x00",
            "timestamp": "0x00",
            "extraData": "0x00",
            "mixHash": "0x0000000000000000000000000000000000000000000000000000000000000000",
            "nonce": "0x0000000000000000",
            "hash": "0x6d0449622be7a2b54c64960cf1da7daadeaed2ef2286554b8f39c7acba5f3d9f"
        },
        "pre": {
            "0x9e2d765f67baf5402618db6ce0a535982a53c6fc": {
                "nonce": "0x01",
                "balance": "0x014b230ce3",
                "code": "0x73c0f6dc9e5836f54caadbf59cc69346c508e1992bff",
                "storage": {}
            },
            "0x7b9d51726205279d2c44af47657f7e70937647fd": {
                "nonce": "0x01",
                "balance": "0x00",
                "code": "0x6000600060006000739e2d765f67baf5402618db6ce0a535982a53c6fc62028488f4600055739e2d765f67baf5402618db6ce0a535982a53c6fc3f600155",
                "storage": {}
            },
            "0x1ad9bc24818784172ff393bb6f89f094d4d2ca29": {
                "nonce": "0x00",
                "balance": "0x3635c9adc5dea00000",
                "code": "0x",
                "storage": {}
            }
        },
        "postState": {
            "0x9e2d765f67baf5402618db6ce0a535982a53c6fc": {
                "nonce": "0x01",
                "balance": "0x014b230ce3",
                "code": "0x73c0f6dc9e5836f54caadbf59cc69346c508e1992bff",
                "storage": {}
            },
            "0x1ad9bc24818784172ff393bb6f89f094d4d2ca29": {
                "nonce": "0x01",
                "balance": "0x3635c9adc5de995f84",
                "code": "0x",
                "storage": {}
            },
            "0x2adc25665018aa1fe0e6bc666dac8fc2697ff9ba": {
                "nonce": "0x00",
                "balance": "0x1bc16d674ecea07c",
                "code": "0x",
                "storage": {}
            }
        },
        "lastblockhash": "0xdfad3a84da7547588db07ecceafd7064f51298b8f74c7dd7668c33a7e8a32726",
        "config": {
            "network": "Istanbul",
            "chainid": "0x01"
        },
        "genesisRLP": "0xf901f9f901f4a00000000000000000000000000000000000000000000000000000000000000000a01dcc4de8dec75d7aab85b567b6ccd41ad312451b948a7413f0a142fd40d49347940000000000000000000000000000000000000000a0c29290c06ff043755c4fbab0769aa84c9da1167138cfb3498d216b4de18e15b8a056e81f171bcc55a6ff8345e692c0f86e5b48e01b996cadc001622fb5e363b421a056e81f171bcc55a6ff8345e692c0f86e5b48e01b996cadc001622fb5e363b421b901000000000000000000000000000000000000000000000000000000000000000000000000000000000000000000000000000000000000000000000000000000000000000000000000000000000000000000000000000000000000000000000000000000000000000000000000000000000000000000000000000000000000000000000000000000000000000000000000000000000000000000000000000000000000000000000000000000000000000000000000000000000000000000000000000000000000000000000000000000000000000000000000000000000000000000000000000000000000000000000000000000000000000000000000000000000083020000808407270e00808000a00000000000000000000000000000000000000000000000000000000000000000880000000000000000c0c0",
        "blocks": [
            {
                "blockHeader": {
                    "parentHash": "0x6d0449622be7a2b54c64960cf1da7daadeaed2ef2286554b8f39c7acba5f3d9f",
                    "uncleHash": "0x1dcc4de8dec75d7aab85b567b6ccd41ad312451b948a7413f0a142fd40d49347",
                    "coinbase": "0x2adc25665018aa1fe0e6bc666dac8fc2697ff9ba",
                    "stateRoot": "0x6d00101bb4d89cddcd42adccccbc77148aa48e12297baa77af21ef1c87a11bf3",
                    "transactionsTrie": "0xd6e5b535b369ab71e4953c2fbe0306467f8ad269e7f992801cb8dac9c1b1ad65",
                    "receiptTrie": "0x225b929190983b6e5867dac691a894b358a192123c8e675036fa91a9f9ef0ac2",
                    "bloom": "0x00000000000000000000000000000000000000000000000000000000000000000000000000000000000000000000000000000000000000000000000000000000000000000000000000000000000000000000000000000000000000000000000000000000000000000000000000000000000000000000000000000000000000000000000000000000000000000000000000000000000000000000000000000000000000000000000000000000000000000000000000000000000000000000000000000000000000000000000000000000000000000000000000000000000000000000000000000000000000000000000000000000000000000000000000000000",
                    "difficulty": "0x020000",
                    "number": "0x01",
                    "gasLimit": "0x07270e00",
                    "gasUsed": "0xa9a6",
                    "timestamp": "0x03e8",
                    "extraData": "0x00",
                    "mixHash": "0x0000000000000000000000000000000000000000000000000000000000000000",
                    "nonce": "0x0000000000000000",
                    "hash": "0xdfad3a84da7547588db07ecceafd7064f51298b8f74c7dd7668c33a7e8a32726"
                },
                "transactions": [
                    {
                        "type": "0x00",
                        "chainId": "0x01",
                        "nonce": "0x00",
                        "gasPrice": "0x0a",
                        "gasLimit": "0x061a80",
                        "to": "0x7b9d51726205279d2c44af47657f7e70937647fd",
                        "value": "0x00",
                        "data": "0x",
                        "v": "0x26",
                        "r": "0x483bd9f877e385ac7ed7710963c27a6089322808a4f6d2c81ba789bd8a52b665",
                        "s": "0x51eeb66fd3b27aaa2d83d74eeba252a4bbd2fc9b8589abe8638a709cb455b04e",
                        "sender": "0x1ad9bc24818784172ff393bb6f89f094d4d2ca29"
                    }
                ],
                "uncleHeaders": [],
                "receipts": [
                    {
                        "transactionHash": "0xa86c236a67f324126cec1a1375fed1467c7a8add7dbf6bd6ea42aa44e4fbb5c8",
                        "type": "0x00",
                        "cumulativeGasUsed": "0xa9a6",
                        "bloom": "0x00000000000000000000000000000000000000000000000000000000000000000000000000000000000000000000000000000000000000000000000000000000000000000000000000000000000000000000000000000000000000000000000000000000000000000000000000000000000000000000000000000000000000000000000000000000000000000000000000000000000000000000000000000000000000000000000000000000000000000000000000000000000000000000000000000000000000000000000000000000000000000000000000000000000000000000000000000000000000000000000000000000000000000000000000000000",
                        "logs": [],
                        "status": true,
                        "rlp": "0xf901080182a9a6b9010000000000000000000000000000000000000000000000000000000000000000000000000000000000000000000000000000000000000000000000000000000000000000000000000000000000000000000000000000000000000000000000000000000000000000000000000000000000000000000000000000000000000000000000000000000000000000000000000000000000000000000000000000000000000000000000000000000000000000000000000000000000000000000000000000000000000000000000000000000000000000000000000000000000000000000000000000000000000000000000000000000000000000000000000000000000c0"
                    }
                ],
                "rlp": "0xf90260f901f8a06d0449622be7a2b54c64960cf1da7daadeaed2ef2286554b8f39c7acba5f3d9fa01dcc4de8dec75d7aab85b567b6ccd41ad312451b948a7413f0a142fd40d49347942adc25665018aa1fe0e6bc666dac8fc2697ff9baa06d00101bb4d89cddcd42adccccbc77148aa48e12297baa77af21ef1c87a11bf3a0d6e5b535b369ab71e4953c2fbe0306467f8ad269e7f992801cb8dac9c1b1ad65a0225b929190983b6e5867dac691a894b358a192123c8e675036fa91a9f9ef0ac2b901000000000000000000000000000000000000000000000000000000000000000000000000000000000000000000000000000000000000000000000000000000000000000000000000000000000000000000000000000000000000000000000000000000000000000000000000000000000000000000000000000000000000000000000000000000000000000000000000000000000000000000000000000000000000000000000000000000000000000000000000000000000000000000000000000000000000000000000000000000000000000000000000000000000000000000000000000000000000000000000000000000000000000000000000000000000083020000018407270e0082a9a68203e800a00000000000000000000000000000000000000000000000000000000000000000880000000000000000f862f860800a83061a80947b9d51726205279d2c44af47657f7e70937647fd808026a0483bd9f877e385ac7ed7710963c27a6089322808a4f6d2c81ba789bd8a52b665a051eeb66fd3b27aaa2d83d74eeba252a4bbd2fc9b8589abe8638a709cb455b04ec0",
                "blocknumber": "1"
            }
        ],
        "sealEngine": "NoProof",
        "_info": {
            "hash": "0x9d5cdd8382871ae97bdb5a4188fb5abb789b055fc50aef3c937c7c64307ad835",
            "fixture-format": "blockchain_test",
            "comment": "`execution-specs` generated test",
            "filling-transition-tool": "2.19.0",
            "description": "Test EXTCODEHASH after calling a contract that selfdestructs.\n\nCall a contract containing SELFDESTRUCT using each call type, then\ncheck EXTCODEHASH. The hash is always returned because the check\nhappens within the same transaction. STATICCALL fails because\nSELFDESTRUCT modifies state. Pre-Cancun, CALLCODE/DELEGATECALL\nexecute SELFDESTRUCT in the caller's context, destroying the test\ncontract at end of transaction.",
            "url": "https://github.com/ethereum/execution-specs/blob/tests-bal@v5.4.0/tests/constantinople/eip1052_extcodehash/test_extcodehash.py#L1254",
            "opcode_count": {},
            "reference-spec": "https://github.com/ethereum/EIPs/blob/master/EIPS/eip-1052.md",
            "reference-spec-version": "2dcbc7ce1563e9624e137e9d447374600af876fa"
        }
    },
    "tests/constantinople/eip1052_extcodehash/test_extcodehash.py::test_extcodehash_call_to_selfdestruct[fork_Istanbul-call_opcode_STATICCALL-blockchain_test_from_state_test]": {
        "network": "Istanbul",
        "genesisBlockHeader": {
            "parentHash": "0x0000000000000000000000000000000000000000000000000000000000000000",
            "uncleHash": "0x1dcc4de8dec75d7aab85b567b6ccd41ad312451b948a7413f0a142fd40d49347",
            "coinbase": "0x0000000000000000000000000000000000000000",
            "stateRoot": "0xe8cb6038809e74de495e62c2cd3273ba53914ccf0a40c02dc918a8cb2e734840",
            "transactionsTrie": "0x56e81f171bcc55a6ff8345e692c0f86e5b48e01b996cadc001622fb5e363b421",
            "receiptTrie": "0x56e81f171bcc55a6ff8345e692c0f86e5b48e01b996cadc001622fb5e363b421",
            "bloom": "0x00000000000000000000000000000000000000000000000000000000000000000000000000000000000000000000000000000000000000000000000000000000000000000000000000000000000000000000000000000000000000000000000000000000000000000000000000000000000000000000000000000000000000000000000000000000000000000000000000000000000000000000000000000000000000000000000000000000000000000000000000000000000000000000000000000000000000000000000000000000000000000000000000000000000000000000000000000000000000000000000000000000000000000000000000000000",
            "difficulty": "0x020000",
            "number": "0x00",
            "gasLimit": "0x07270e00",
            "gasUsed": "0x00",
            "timestamp": "0x00",
            "extraData": "0x00",
            "mixHash": "0x0000000000000000000000000000000000000000000000000000000000000000",
            "nonce": "0x0000000000000000",
            "hash": "0x17cad4c1fee8f3fb02fc0600b41b58ca5426202d6f5c57dcbdced8642cf45355"
        },
        "pre": {
            "0x9e2d765f67baf5402618db6ce0a535982a53c6fc": {
                "nonce": "0x01",
                "balance": "0x014b230ce3",
                "code": "0x73c0f6dc9e5836f54caadbf59cc69346c508e1992bff",
                "storage": {}
            },
            "0xb014f568e0da258ad40ce710d237cccc1adc1a6e": {
                "nonce": "0x01",
                "balance": "0x00",
                "code": "0x6000600060006000739e2d765f67baf5402618db6ce0a535982a53c6fc62028488fa600055739e2d765f67baf5402618db6ce0a535982a53c6fc3f600155",
                "storage": {
                    "0x00": "0xba5e"
                }
            },
            "0x1ad9bc24818784172ff393bb6f89f094d4d2ca29": {
                "nonce": "0x00",
                "balance": "0x3635c9adc5dea00000",
                "code": "0x",
                "storage": {}
            }
        },
        "postState": {
            "0x9e2d765f67baf5402618db6ce0a535982a53c6fc": {
                "nonce": "0x01",
                "balance": "0x014b230ce3",
                "code": "0x73c0f6dc9e5836f54caadbf59cc69346c508e1992bff",
                "storage": {}
            },
            "0xb014f568e0da258ad40ce710d237cccc1adc1a6e": {
                "nonce": "0x01",
                "balance": "0x00",
                "code": "0x6000600060006000739e2d765f67baf5402618db6ce0a535982a53c6fc62028488fa600055739e2d765f67baf5402618db6ce0a535982a53c6fc3f600155",
                "storage": {
                    "0x01": "0x6b4ff852eddedbf436c55cddbc4c143cd2e28485c7e292175f9cc5817fc819ad"
                }
            },
            "0x1ad9bc24818784172ff393bb6f89f094d4d2ca29": {
                "nonce": "0x01",
                "balance": "0x3635c9adc5de81e002",
                "code": "0x",
                "storage": {}
            },
            "0x2adc25665018aa1fe0e6bc666dac8fc2697ff9ba": {
                "nonce": "0x00",
                "balance": "0x1bc16d674ee61ffe",
                "code": "0x",
                "storage": {}
            }
        },
        "lastblockhash": "0xd794ae378aeb273b7647f28148ddce300d583022e55631996f6130d40cc62a56",
        "config": {
            "network": "Istanbul",
            "chainid": "0x01"
        },
        "genesisRLP": "0xf901f9f901f4a00000000000000000000000000000000000000000000000000000000000000000a01dcc4de8dec75d7aab85b567b6ccd41ad312451b948a7413f0a142fd40d49347940000000000000000000000000000000000000000a0e8cb6038809e74de495e62c2cd3273ba53914ccf0a40c02dc918a8cb2e734840a056e81f171bcc55a6ff8345e692c0f86e5b48e01b996cadc001622fb5e363b421a056e81f171bcc55a6ff8345e692c0f86e5b48e01b996cadc001622fb5e363b421b901000000000000000000000000000000000000000000000000000000000000000000000000000000000000000000000000000000000000000000000000000000000000000000000000000000000000000000000000000000000000000000000000000000000000000000000000000000000000000000000000000000000000000000000000000000000000000000000000000000000000000000000000000000000000000000000000000000000000000000000000000000000000000000000000000000000000000000000000000000000000000000000000000000000000000000000000000000000000000000000000000000000000000000000000000000000083020000808407270e00808000a00000000000000000000000000000000000000000000000000000000000000000880000000000000000c0c0",
        "blocks": [
            {
                "blockHeader": {
                    "parentHash": "0x17cad4c1fee8f3fb02fc0600b41b58ca5426202d6f5c57dcbdced8642cf45355",
                    "uncleHash": "0x1dcc4de8dec75d7aab85b567b6ccd41ad312451b948a7413f0a142fd40d49347",
                    "coinbase": "0x2adc25665018aa1fe0e6bc666dac8fc2697ff9ba",
                    "stateRoot": "0x872c1d87f4d91402bdb321e5d1085d0373959c39d6881194153b42a9bc8af2bc",
                    "transactionsTrie": "0xc25acc05693ad65c36df9ba051b36c86881348247d9b4d41eeb4a3e28146e055",
                    "receiptTrie": "0xefb020bfd1e8ee889bffcb8af8a7ea1c1b64bc0bcfb563eb3b5ef7e0e163f3f4",
                    "bloom": "0x00000000000000000000000000000000000000000000000000000000000000000000000000000000000000000000000000000000000000000000000000000000000000000000000000000000000000000000000000000000000000000000000000000000000000000000000000000000000000000000000000000000000000000000000000000000000000000000000000000000000000000000000000000000000000000000000000000000000000000000000000000000000000000000000000000000000000000000000000000000000000000000000000000000000000000000000000000000000000000000000000000000000000000000000000000000",
                    "difficulty": "0x020000",
                    "number": "0x01",
                    "gasLimit": "0x07270e00",
                    "gasUsed": "0x030333",
                    "timestamp": "0x03e8",
                    "extraData": "0x00",
                    "mixHash": "0x0000000000000000000000000000000000000000000000000000000000000000",
                    "nonce": "0x0000000000000000",
                    "hash": "0xd794ae378aeb273b7647f28148ddce300d583022e55631996f6130d40cc62a56"
                },
                "transactions": [
                    {
                        "type": "0x00",
                        "chainId": "0x01",
                        "nonce": "0x00",
                        "gasPrice": "0x0a",
                        "gasLimit": "0x061a80",
                        "to": "0xb014f568e0da258ad40ce710d237cccc1adc1a6e",
                        "value": "0x00",
                        "data": "0x",
                        "v": "0x25",
                        "r": "0x68b0469c39e39312518081a20f589a077350e5c2e75925ef4b5e4d92b1ec2b90",
                        "s": "0x2244a27db6fcda9c0ff027cc0a624c6b276cd640bdf26cdd4ab3eb3a287ba07d",
                        "sender": "0x1ad9bc24818784172ff393bb6f89f094d4d2ca29"
                    }
                ],
                "uncleHeaders": [],
                "receipts": [
                    {
                        "transactionHash": "0xca7a48e5647f1457253e63b0d5277e526694a61c9071fb7975496ad775a18c4a",
                        "type": "0x00",
                        "cumulativeGasUsed": "0x030333",
                        "bloom": "0x00000000000000000000000000000000000000000000000000000000000000000000000000000000000000000000000000000000000000000000000000000000000000000000000000000000000000000000000000000000000000000000000000000000000000000000000000000000000000000000000000000000000000000000000000000000000000000000000000000000000000000000000000000000000000000000000000000000000000000000000000000000000000000000000000000000000000000000000000000000000000000000000000000000000000000000000000000000000000000000000000000000000000000000000000000000",
                        "logs": [],
                        "status": true,
                        "rlp": "0xf901090183030333b9010000000000000000000000000000000000000000000000000000000000000000000000000000000000000000000000000000000000000000000000000000000000000000000000000000000000000000000000000000000000000000000000000000000000000000000000000000000000000000000000000000000000000000000000000000000000000000000000000000000000000000000000000000000000000000000000000000000000000000000000000000000000000000000000000000000000000000000000000000000000000000000000000000000000000000000000000000000000000000000000000000000000000000000000000000000000c0"
                    }
                ],
                "rlp": "0xf90261f901f9a017cad4c1fee8f3fb02fc0600b41b58ca5426202d6f5c57dcbdced8642cf45355a01dcc4de8dec75d7aab85b567b6ccd41ad312451b948a7413f0a142fd40d49347942adc25665018aa1fe0e6bc666dac8fc2697ff9baa0872c1d87f4d91402bdb321e5d1085d0373959c39d6881194153b42a9bc8af2bca0c25acc05693ad65c36df9ba051b36c86881348247d9b4d41eeb4a3e28146e055a0efb020bfd1e8ee889bffcb8af8a7ea1c1b64bc0bcfb563eb3b5ef7e0e163f3f4b901000000000000000000000000000000000000000000000000000000000000000000000000000000000000000000000000000000000000000000000000000000000000000000000000000000000000000000000000000000000000000000000000000000000000000000000000000000000000000000000000000000000000000000000000000000000000000000000000000000000000000000000000000000000000000000000000000000000000000000000000000000000000000000000000000000000000000000000000000000000000000000000000000000000000000000000000000000000000000000000000000000000000000000000000000000000083020000018407270e00830303338203e800a00000000000000000000000000000000000000000000000000000000000000000880000000000000000f862f860800a83061a8094b014f568e0da258ad40ce710d237cccc1adc1a6e808025a068b0469c39e39312518081a20f589a077350e5c2e75925ef4b5e4d92b1ec2b90a02244a27db6fcda9c0ff027cc0a624c6b276cd640bdf26cdd4ab3eb3a287ba07dc0",
                "blocknumber": "1"
            }
        ],
        "sealEngine": "NoProof",
        "_info": {
            "hash": "0xa6463ec742101c4f0362562b8b02cb6c41fa63131a9a8736e6397eb03b89788e",
            "fixture-format": "blockchain_test",
            "comment": "`execution-specs` generated test",
            "filling-transition-tool": "2.19.0",
            "description": "Test EXTCODEHASH after calling a contract that selfdestructs.\n\nCall a contract containing SELFDESTRUCT using each call type, then\ncheck EXTCODEHASH. The hash is always returned because the check\nhappens within the same transaction. STATICCALL fails because\nSELFDESTRUCT modifies state. Pre-Cancun, CALLCODE/DELEGATECALL\nexecute SELFDESTRUCT in the caller's context, destroying the test\ncontract at end of transaction.",
            "url": "https://github.com/ethereum/execution-specs/blob/tests-bal@v5.4.0/tests/constantinople/eip1052_extcodehash/test_extcodehash.py#L1254",
            "opcode_count": {},
            "reference-spec": "https://github.com/ethereum/EIPs/blob/master/EIPS/eip-1052.md",
            "reference-spec-version": "2dcbc7ce1563e9624e137e9d447374600af876fa"
        }
    }
}