{
    "tests/cancun/eip1153_tstore/test_tstorage_clear_after_tx.py::test_tstore_clear_after_tx[fork_Cancun-blockchain_test]": {
        "network": "Cancun",
        "genesisBlockHeader": {
            "parentHash": "0x0000000000000000000000000000000000000000000000000000000000000000",
            "uncleHash": "0x1dcc4de8dec75d7aab85b567b6ccd41ad312451b948a7413f0a142fd40d49347",
            "coinbase": "0x0000000000000000000000000000000000000000",
            "stateRoot": "0xae3db7afbcd476f6ce4a4c034b0aaf6f9d71dbaf3b0ad461a857eb1403893527",
            "transactionsTrie": "0x56e81f171bcc55a6ff8345e692c0f86e5b48e01b996cadc001622fb5e363b421",
            "receiptTrie": "0x56e81f171bcc55a6ff8345e692c0f86e5b48e01b996cadc001622fb5e363b421",
            "bloom": "0x00000000000000000000000000000000000000000000000000000000000000000000000000000000000000000000000000000000000000000000000000000000000000000000000000000000000000000000000000000000000000000000000000000000000000000000000000000000000000000000000000000000000000000000000000000000000000000000000000000000000000000000000000000000000000000000000000000000000000000000000000000000000000000000000000000000000000000000000000000000000000000000000000000000000000000000000000000000000000000000000000000000000000000000000000000000",
            "difficulty": "0x00",
            "number": "0x00",
            "gasLimit": "0x07270e00",
            "gasUsed": "0x00",
            "timestamp": "0x00",
            "extraData": "0x00",
            "mixHash": "0x0000000000000000000000000000000000000000000000000000000000000000",
            "nonce": "0x0000000000000000",
            "baseFeePerGas": "0x07",
            "withdrawalsRoot": "0x56e81f171bcc55a6ff8345e692c0f86e5b48e01b996cadc001622fb5e363b421",
            "blobGasUsed": "0x00",
            "excessBlobGas": "0x00",
            "parentBeaconBlockRoot": "0x0000000000000000000000000000000000000000000000000000000000000000",
            "hash": "0xf0acf2829def61ac57d0fa395292bd9530f043573f9ef96bb5ee1a8f8a2cc3a9"
        },
        "pre": {
            "0x000f3df6d732807ef1319fb7b8bb8522d0beac02": {
                "nonce": "0x01",
                "balance": "0x00",
                "code": "0x3373fffffffffffffffffffffffffffffffffffffffe14604d57602036146024575f5ffd5b5f35801560495762001fff810690815414603c575f5ffd5b62001fff01545f5260205ff35b5f5ffd5b62001fff42064281555f359062001fff015500",
                "storage": {}
            },
            "0xf3010b26ba07549a61e2f8a3e61f87027d714b9d": {
                "nonce": "0x01",
                "balance": "0x00",
                "code": "0x60015c600155600160015d",
                "storage": {}
            },
            "0x1ad9bc24818784172ff393bb6f89f094d4d2ca29": {
                "nonce": "0x00",
                "balance": "0x3635c9adc5dea00000",
                "code": "0x",
                "storage": {}
            }
        },
        "postState": {
            "0x000f3df6d732807ef1319fb7b8bb8522d0beac02": {
                "nonce": "0x01",
                "balance": "0x00",
                "code": "0x3373fffffffffffffffffffffffffffffffffffffffe14604d57602036146024575f5ffd5b5f35801560495762001fff810690815414603c575f5ffd5b62001fff01545f5260205ff35b5f5ffd5b62001fff42064281555f359062001fff015500",
                "storage": {
                    "0x0c": "0x0c"
                }
            },
            "0xf3010b26ba07549a61e2f8a3e61f87027d714b9d": {
                "nonce": "0x01",
                "balance": "0x00",
                "code": "0x60015c600155600160015d",
                "storage": {}
            },
            "0x1ad9bc24818784172ff393bb6f89f094d4d2ca29": {
                "nonce": "0x02",
                "balance": "0x3635c9adc5de98daf0",
                "code": "0x",
                "storage": {}
            },
            "0x2adc25665018aa1fe0e6bc666dac8fc2697ff9ba": {
                "nonce": "0x00",
                "balance": "0x0224b8",
                "code": "0x",
                "storage": {}
            }
        },
        "lastblockhash": "0xe474aa18e92247afae5aa90d20d3e3ff8603b657421e78d623326da959376176",
        "config": {
            "network": "Cancun",
            "chainid": "0x01",
            "blobSchedule": {
                "Cancun": {
                    "target": "0x03",
                    "max": "0x06",
                    "baseFeeUpdateFraction": "0x32f0ed"
                }
            }
        },
        "genesisRLP": "0xf9023cf90236a00000000000000000000000000000000000000000000000000000000000000000a01dcc4de8dec75d7aab85b567b6ccd41ad312451b948a7413f0a142fd40d49347940000000000000000000000000000000000000000a0ae3db7afbcd476f6ce4a4c034b0aaf6f9d71dbaf3b0ad461a857eb1403893527a056e81f171bcc55a6ff8345e692c0f86e5b48e01b996cadc001622fb5e363b421a056e81f171bcc55a6ff8345e692c0f86e5b48e01b996cadc001622fb5e363b421b901000000000000000000000000000000000000000000000000000000000000000000000000000000000000000000000000000000000000000000000000000000000000000000000000000000000000000000000000000000000000000000000000000000000000000000000000000000000000000000000000000000000000000000000000000000000000000000000000000000000000000000000000000000000000000000000000000000000000000000000000000000000000000000000000000000000000000000000000000000000000000000000000000000000000000000000000000000000000000000000000000000000000000000000000000000000080808407270e00808000a0000000000000000000000000000000000000000000000000000000000000000088000000000000000007a056e81f171bcc55a6ff8345e692c0f86e5b48e01b996cadc001622fb5e363b4218080a00000000000000000000000000000000000000000000000000000000000000000c0c0c0",
        "blocks": [
            {
                "blockHeader": {
                    "parentHash": "0xf0acf2829def61ac57d0fa395292bd9530f043573f9ef96bb5ee1a8f8a2cc3a9",
                    "uncleHash": "0x1dcc4de8dec75d7aab85b567b6ccd41ad312451b948a7413f0a142fd40d49347",
                    "coinbase": "0x2adc25665018aa1fe0e6bc666dac8fc2697ff9ba",
                    "stateRoot": "0x315395a07dafedcf651c7449a31e7b54fd9b8029865904af74dec8f9d30a5ee9",
                    "transactionsTrie": "0x6432b971a9bc6c4e2f25f0e7f426cb98cd83f67ffc74a67ab8842d412dc9500e",
                    "receiptTrie": "0x8f668f8b9d0cafee86ca26ba619eda34bef9f00e8694ee97efa8d363bda58fe3",
                    "bloom": "0x00000000000000000000000000000000000000000000000000000000000000000000000000000000000000000000000000000000000000000000000000000000000000000000000000000000000000000000000000000000000000000000000000000000000000000000000000000000000000000000000000000000000000000000000000000000000000000000000000000000000000000000000000000000000000000000000000000000000000000000000000000000000000000000000000000000000000000000000000000000000000000000000000000000000000000000000000000000000000000000000000000000000000000000000000000000",
                    "difficulty": "0x00",
                    "number": "0x01",
                    "gasLimit": "0x07270e00",
                    "gasUsed": "0xb6e8",
                    "timestamp": "0x0c",
                    "extraData": "0x",
                    "mixHash": "0x0000000000000000000000000000000000000000000000000000000000000000",
                    "nonce": "0x0000000000000000",
                    "baseFeePerGas": "0x07",
                    "withdrawalsRoot": "0x56e81f171bcc55a6ff8345e692c0f86e5b48e01b996cadc001622fb5e363b421",
                    "blobGasUsed": "0x00",
                    "excessBlobGas": "0x00",
                    "parentBeaconBlockRoot": "0x0000000000000000000000000000000000000000000000000000000000000000",
                    "hash": "0xe474aa18e92247afae5aa90d20d3e3ff8603b657421e78d623326da959376176"
                },
                "transactions": [
                    {
                        "type": "0x00",
                        "chainId": "0x01",
                        "nonce": "0x00",
                        "gasPrice": "0x0a",
                        "gasLimit": "0x0186a0",
                        "to": "0xf3010b26ba07549a61e2f8a3e61f87027d714b9d",
                        "value": "0x00",
                        "data": "0x",
                        "v": "0x26",
                        "r": "0x04d2f46e3c04acb7b81ff66f3a194b6057938ceba89bb31d8a66a0fe89406f07",
                        "s": "0x7d79a588f61f4870f11ead7c0a13834da26876dca020cf04a6061ebc42172e6d",
                        "sender": "0x1ad9bc24818784172ff393bb6f89f094d4d2ca29"
                    },
                    {
                        "type": "0x00",
                        "chainId": "0x01",
                        "nonce": "0x01",
                        "gasPrice": "0x0a",
                        "gasLimit": "0x0186a0",
                        "to": "0xf3010b26ba07549a61e2f8a3e61f87027d714b9d",
                        "value": "0x00",
                        "data": "0x",
                        "v": "0x26",
                        "r": "0x812ffad004037f8ed3c6a759d80bf9e470502cf93c6d13ffef3a079a417a685d",
                        "s": "0x460fbb46956ac50dd749a4dc84a8d5d5739e04747ff61e6ab3d6c01827d2e72a",
                        "sender": "0x1ad9bc24818784172ff393bb6f89f094d4d2ca29"
                    }
                ],
                "uncleHeaders": [],
                "withdrawals": [],
                "receipts": [
                    {
                        "transactionHash": "0xa78a374d2b012b442dc2078c22ab8692e7d64031b72a0cc841b5ae52769329c6",
                        "type": "0x00",
                        "cumulativeGasUsed": "0x5b74",
                        "bloom": "0x00000000000000000000000000000000000000000000000000000000000000000000000000000000000000000000000000000000000000000000000000000000000000000000000000000000000000000000000000000000000000000000000000000000000000000000000000000000000000000000000000000000000000000000000000000000000000000000000000000000000000000000000000000000000000000000000000000000000000000000000000000000000000000000000000000000000000000000000000000000000000000000000000000000000000000000000000000000000000000000000000000000000000000000000000000000",
                        "logs": [],
                        "status": true,
                        "rlp": "0xf9010801825b74b9010000000000000000000000000000000000000000000000000000000000000000000000000000000000000000000000000000000000000000000000000000000000000000000000000000000000000000000000000000000000000000000000000000000000000000000000000000000000000000000000000000000000000000000000000000000000000000000000000000000000000000000000000000000000000000000000000000000000000000000000000000000000000000000000000000000000000000000000000000000000000000000000000000000000000000000000000000000000000000000000000000000000000000000000000000000000c0"
                    },
                    {
                        "transactionHash": "0x3561e929ddf4a8fd75e94586fe48fa4d1deebf40d25983f32f861cfc855b16f1",
                        "type": "0x00",
                        "cumulativeGasUsed": "0xb6e8",
                        "bloom": "0x00000000000000000000000000000000000000000000000000000000000000000000000000000000000000000000000000000000000000000000000000000000000000000000000000000000000000000000000000000000000000000000000000000000000000000000000000000000000000000000000000000000000000000000000000000000000000000000000000000000000000000000000000000000000000000000000000000000000000000000000000000000000000000000000000000000000000000000000000000000000000000000000000000000000000000000000000000000000000000000000000000000000000000000000000000000",
                        "logs": [],
                        "status": true,
                        "rlp": "0xf901080182b6e8b9010000000000000000000000000000000000000000000000000000000000000000000000000000000000000000000000000000000000000000000000000000000000000000000000000000000000000000000000000000000000000000000000000000000000000000000000000000000000000000000000000000000000000000000000000000000000000000000000000000000000000000000000000000000000000000000000000000000000000000000000000000000000000000000000000000000000000000000000000000000000000000000000000000000000000000000000000000000000000000000000000000000000000000000000000000000000c0"
                    }
                ],
                "rlp": "0xf90303f90238a0f0acf2829def61ac57d0fa395292bd9530f043573f9ef96bb5ee1a8f8a2cc3a9a01dcc4de8dec75d7aab85b567b6ccd41ad312451b948a7413f0a142fd40d49347942adc25665018aa1fe0e6bc666dac8fc2697ff9baa0315395a07dafedcf651c7449a31e7b54fd9b8029865904af74dec8f9d30a5ee9a06432b971a9bc6c4e2f25f0e7f426cb98cd83f67ffc74a67ab8842d412dc9500ea08f668f8b9d0cafee86ca26ba619eda34bef9f00e8694ee97efa8d363bda58fe3b901000000000000000000000000000000000000000000000000000000000000000000000000000000000000000000000000000000000000000000000000000000000000000000000000000000000000000000000000000000000000000000000000000000000000000000000000000000000000000000000000000000000000000000000000000000000000000000000000000000000000000000000000000000000000000000000000000000000000000000000000000000000000000000000000000000000000000000000000000000000000000000000000000000000000000000000000000000000000000000000000000000000000000000000000000000000080018407270e0082b6e80c80a0000000000000000000000000000000000000000000000000000000000000000088000000000000000007a056e81f171bcc55a6ff8345e692c0f86e5b48e01b996cadc001622fb5e363b4218080a00000000000000000000000000000000000000000000000000000000000000000f8c4f860800a830186a094f3010b26ba07549a61e2f8a3e61f87027d714b9d808026a004d2f46e3c04acb7b81ff66f3a194b6057938ceba89bb31d8a66a0fe89406f07a07d79a588f61f4870f11ead7c0a13834da26876dca020cf04a6061ebc42172e6df860010a830186a094f3010b26ba07549a61e2f8a3e61f87027d714b9d808026a0812ffad004037f8ed3c6a759d80bf9e470502cf93c6d13ffef3a079a417a685da0460fbb46956ac50dd749a4dc84a8d5d5739e04747ff61e6ab3d6c01827d2e72ac0c0",
                "blocknumber": "1"
            }
        ],
        "sealEngine": "NoProof",
        "_info": {
            "hash": "0xa822a18538c199489bd3eeed405637fc809a67614fbac2c6366e4c7dbf2d66e0",
            "fixture-format": "blockchain_test",
            "comment": "`execution-specs` generated test",
            "filling-transition-tool": "2.19.0",
            "description": "First SSTOREs the TLOAD value of key 1 in slot 1. Then, it TSTOREs 1 in\nslot 1. The second tx will re-call the contract. The storage should stay\nempty, because the transient storage is cleared after the transaction.",
            "url": "https://github.com/ethereum/execution-specs/blob/tests-bal@v5.4.0/tests/cancun/eip1153_tstore/test_tstorage_clear_after_tx.py#L69",
            "opcode_count": {},
            "reference-spec": "https://github.com/ethereum/EIPs/blob/master/EIPS/eip-1153.md",
            "reference-spec-version": "1eb863b534a5a3e19e9c196ab2a7f3db4bb9da17"
        }
    }
}