{
    "tests/static/state_tests/stEIP150Specific/Transaction64Rule_d64e0Filler.json::Transaction64Rule_d64e0[fork_Cancun-state_test-]": {
        "env": {
            "currentCoinbase": "0x2adc25665018aa1fe0e6bc666dac8fc2697ff9ba",
            "currentGasLimit": "0x989680",
            "currentNumber": "0x01",
            "currentTimestamp": "0x03e8",
            "currentRandom": "0x0000000000000000000000000000000000000000000000000000000000020000",
            "currentDifficulty": "0x00",
            "currentBaseFee": "0x0a",
            "currentExcessBlobGas": "0x00"
        },
        "pre": {
            "0x55bb6d3da09e67150da8ee60858d798d1bde791a": {
                "nonce": "0x00",
                "balance": "0x00",
                "code": "0x600c60015500",
                "storage": {}
            },
            "0x55bb6d3da09e67150da8ee60858d798d1bde7a1a": {
                "nonce": "0x00",
                "balance": "0x00",
                "code": "0x5a600052600060006000600060007355bb6d3da09e67150da8ee60858d798d1bde791a62027100f1505a6000510360025500",
                "storage": {}
            },
            "0x7883196905615b5cfa99e21b9b4f40f849d1c39e": {
                "nonce": "0x00",
                "balance": "0xe8d4a51000",
                "code": "0x",
                "storage": {}
            }
        },
        "transaction": {
            "nonce": "0x00",
            "gasPrice": "0x0a",
            "gasLimit": [
                "0x02713e"
            ],
            "to": "0x55bb6d3da09e67150da8ee60858d798d1bde7a1a",
            "value": [
                "0x00"
            ],
            "data": [
                "0x"
            ],
            "sender": "0x7883196905615b5cfa99e21b9b4f40f849d1c39e",
            "secretKey": "0xcfa5842262ae8fb0934ba50555bb6d3da09e67150da8ee60858d798d1bde791a"
        },
        "post": {
            "Cancun": [
                {
                    "hash": "0x8599a7583dd9f6dadf1c478452523031bb2bdcdbaf49df89e4547c62a38c5ea9",
                    "logs": "0x1dcc4de8dec75d7aab85b567b6ccd41ad312451b948a7413f0a142fd40d49347",
                    "txbytes": "0xf860800a8302713e9455bb6d3da09e67150da8ee60858d798d1bde7a1a808026a06ce48903521ced9ce4819d2947cc51424783a427ae18f307b8ac9d656ded6e09a061962afa75f52b3b9844203a79a4de53f9ef464de9d0e6196b3018ff1dde849e",
                    "indexes": {
                        "data": 0,
                        "gas": 0,
                        "value": 0
                    },
                    "state": {
                        "0x55bb6d3da09e67150da8ee60858d798d1bde791a": {
                            "nonce": "0x00",
                            "balance": "0x00",
                            "code": "0x600c60015500",
                            "storage": {
                                "0x01": "0x0c"
                            }
                        },
                        "0x55bb6d3da09e67150da8ee60858d798d1bde7a1a": {
                            "nonce": "0x00",
                            "balance": "0x00",
                            "code": "0x5a600052600060006000600060007355bb6d3da09e67150da8ee60858d798d1bde791a62027100f1505a6000510360025500",
                            "storage": {
                                "0x02": "0x60a4"
                            }
                        },
                        "0x7883196905615b5cfa99e21b9b4f40f849d1c39e": {
                            "nonce": "0x01",
                            "balance": "0xe8d49ab574",
                            "code": "0x",
                            "storage": {}
                        }
                    }
                }
            ]
        },
        "config": {
            "blobSchedule": {
                "Cancun": {
                    "target": "0x03",
                    "max": "0x06",
                    "baseFeeUpdateFraction": "0x32f0ed"
                }
            },
            "chainid": "0x01"
        },
        "_info": {
            "hash": "0x6724fa16fb6d9787342489f6dcc74fdce2d37392b29d2fbf8cffcf0621955e2a",
            "comment": "`execution-spec-tests` generated test",
            "filling-transition-tool": "ethereum-spec-evm-resolver 0.0.5",
            "description": "No description available - add a docstring to the python test class or function.",
            "url": "",
            "fixture-format": "state_test",
            "reference-spec": "https://github.com/ethereum/EIPs/blob/master/",
            "reference-spec-version": "",
            "eels-resolution": {
                "git-url": "https://github.com/ethereum/execution-specs.git",
                "branch": "forks/bpos",
                "commit": "7aacb2c54111391af5e98c505d5010b5698a770f"
            }
        }
    },
    "tests/static/state_tests/stEIP150Specific/Transaction64Rule_d64e0Filler.json::Transaction64Rule_d64e0[fork_Osaka-state_test-]": {
        "env": {
            "currentCoinbase": "0x2adc25665018aa1fe0e6bc666dac8fc2697ff9ba",
            "currentGasLimit": "0x989680",
            "currentNumber": "0x01",
            "currentTimestamp": "0x03e8",
            "currentRandom": "0x0000000000000000000000000000000000000000000000000000000000020000",
            "currentDifficulty": "0x00",
            "currentBaseFee": "0x0a",
            "currentExcessBlobGas": "0x00"
        },
        "pre": {
            "0x55bb6d3da09e67150da8ee60858d798d1bde791a": {
                "nonce": "0x00",
                "balance": "0x00",
                "code": "0x600c60015500",
                "storage": {}
            },
            "0x55bb6d3da09e67150da8ee60858d798d1bde7a1a": {
                "nonce": "0x00",
                "balance": "0x00",
                "code": "0x5a600052600060006000600060007355bb6d3da09e67150da8ee60858d798d1bde791a62027100f1505a6000510360025500",
                "storage": {}
            },
            "0x7883196905615b5cfa99e21b9b4f40f849d1c39e": {
                "nonce": "0x00",
                "balance": "0xe8d4a51000",
                "code": "0x",
                "storage": {}
            }
        },
        "transaction": {
            "nonce": "0x00",
            "gasPrice": "0x0a",
            "gasLimit": [
                "0x02713e"
            ],
            "to": "0x55bb6d3da09e67150da8ee60858d798d1bde7a1a",
            "value": [
                "0x00"
            ],
            "data": [
                "0x"
            ],
            "sender": "0x7883196905615b5cfa99e21b9b4f40f849d1c39e",
            "secretKey": "0xcfa5842262ae8fb0934ba50555bb6d3da09e67150da8ee60858d798d1bde791a"
        },
        "post": {
            "Osaka": [
                {
                    "hash": "0x8599a7583dd9f6dadf1c478452523031bb2bdcdbaf49df89e4547c62a38c5ea9",
                    "logs": "0x1dcc4de8dec75d7aab85b567b6ccd41ad312451b948a7413f0a142fd40d49347",
                    "txbytes": "0xf860800a8302713e9455bb6d3da09e67150da8ee60858d798d1bde7a1a808026a06ce48903521ced9ce4819d2947cc51424783a427ae18f307b8ac9d656ded6e09a061962afa75f52b3b9844203a79a4de53f9ef464de9d0e6196b3018ff1dde849e",
                    "indexes": {
                        "data": 0,
                        "gas": 0,
                        "value": 0
                    },
                    "state": {
                        "0x55bb6d3da09e67150da8ee60858d798d1bde791a": {
                            "nonce": "0x00",
                            "balance": "0x00",
                            "code": "0x600c60015500",
                            "storage": {
                                "0x01": "0x0c"
                            }
                        },
                        "0x55bb6d3da09e67150da8ee60858d798d1bde7a1a": {
                            "nonce": "0x00",
                            "balance": "0x00",
                            "code": "0x5a600052600060006000600060007355bb6d3da09e67150da8ee60858d798d1bde791a62027100f1505a6000510360025500",
                            "storage": {
                                "0x02": "0x60a4"
                            }
                        },
                        "0x7883196905615b5cfa99e21b9b4f40f849d1c39e": {
                            "nonce": "0x01",
                            "balance": "0xe8d49ab574",
                            "code": "0x",
                            "storage": {}
                        }
                    }
                }
            ]
        },
        "config": {
            "blobSchedule": {
                "Cancun": {
                    "target": "0x03",
                    "max": "0x06",
                    "baseFeeUpdateFraction": "0x32f0ed"
                },
                "Prague": {
                    "target": "0x06",
                    "max": "0x09",
                    "baseFeeUpdateFraction": "0x4c6964"
                },
                "Osaka": {
                    "target": "0x06",
                    "max": "0x09",
                    "baseFeeUpdateFraction": "0x4c6964"
                }
            },
            "chainid": "0x01"
        },
        "_info": {
            "hash": "0xc7e083f3a79725a3fab4bb9d2e42da7de97dbb12b9044df6ef41b467da801423",
            "comment": "`execution-spec-tests` generated test",
            "filling-transition-tool": "ethereum-spec-evm-resolver 0.0.5",
            "description": "No description available - add a docstring to the python test class or function.",
            "url": "",
            "fixture-format": "state_test",
            "reference-spec": "https://github.com/ethereum/EIPs/blob/master/",
            "reference-spec-version": "",
            "eels-resolution": {
                "git-url": "https://github.com/ethereum/execution-specs.git",
                "branch": "forks/bpos",
                "commit": "7aacb2c54111391af5e98c505d5010b5698a770f"
            }
        }
    },
    "tests/static/state_tests/stEIP150Specific/Transaction64Rule_d64e0Filler.json::Transaction64Rule_d64e0[fork_Prague-state_test-]": {
        "env": {
            "currentCoinbase": "0x2adc25665018aa1fe0e6bc666dac8fc2697ff9ba",
            "currentGasLimit": "0x989680",
            "currentNumber": "0x01",
            "currentTimestamp": "0x03e8",
            "currentRandom": "0x0000000000000000000000000000000000000000000000000000000000020000",
            "currentDifficulty": "0x00",
            "currentBaseFee": "0x0a",
            "currentExcessBlobGas": "0x00"
        },
        "pre": {
            "0x55bb6d3da09e67150da8ee60858d798d1bde791a": {
                "nonce": "0x00",
                "balance": "0x00",
                "code": "0x600c60015500",
                "storage": {}
            },
            "0x55bb6d3da09e67150da8ee60858d798d1bde7a1a": {
                "nonce": "0x00",
                "balance": "0x00",
                "code": "0x5a600052600060006000600060007355bb6d3da09e67150da8ee60858d798d1bde791a62027100f1505a6000510360025500",
                "storage": {}
            },
            "0x7883196905615b5cfa99e21b9b4f40f849d1c39e": {
                "nonce": "0x00",
                "balance": "0xe8d4a51000",
                "code": "0x",
                "storage": {}
            }
        },
        "transaction": {
            "nonce": "0x00",
            "gasPrice": "0x0a",
            "gasLimit": [
                "0x02713e"
            ],
            "to": "0x55bb6d3da09e67150da8ee60858d798d1bde7a1a",
            "value": [
                "0x00"
            ],
            "data": [
                "0x"
            ],
            "sender": "0x7883196905615b5cfa99e21b9b4f40f849d1c39e",
            "secretKey": "0xcfa5842262ae8fb0934ba50555bb6d3da09e67150da8ee60858d798d1bde791a"
        },
        "post": {
            "Prague": [
                {
                    "hash": "0x8599a7583dd9f6dadf1c478452523031bb2bdcdbaf49df89e4547c62a38c5ea9",
                    "logs": "0x1dcc4de8dec75d7aab85b567b6ccd41ad312451b948a7413f0a142fd40d49347",
                    "txbytes": "0xf860800a8302713e9455bb6d3da09e67150da8ee60858d798d1bde7a1a808026a06ce48903521ced9ce4819d2947cc51424783a427ae18f307b8ac9d656ded6e09a061962afa75f52b3b9844203a79a4de53f9ef464de9d0e6196b3018ff1dde849e",
                    "indexes": {
                        "data": 0,
                        "gas": 0,
                        "value": 0
                    },
                    "state": {
                        "0x55bb6d3da09e67150da8ee60858d798d1bde791a": {
                            "nonce": "0x00",
                            "balance": "0x00",
                            "code": "0x600c60015500",
                            "storage": {
                                "0x01": "0x0c"
                            }
                        },
                        "0x55bb6d3da09e67150da8ee60858d798d1bde7a1a": {
                            "nonce": "0x00",
                            "balance": "0x00",
                            "code": "0x5a600052600060006000600060007355bb6d3da09e67150da8ee60858d798d1bde791a62027100f1505a6000510360025500",
                            "storage": {
                                "0x02": "0x60a4"
                            }
                        },
                        "0x7883196905615b5cfa99e21b9b4f40f849d1c39e": {
                            "nonce": "0x01",
                            "balance": "0xe8d49ab574",
                            "code": "0x",
                            "storage": {}
                        }
                    }
                }
            ]
        },
        "config": {
            "blobSchedule": {
                "Cancun": {
                    "target": "0x03",
                    "max": "0x06",
                    "baseFeeUpdateFraction": "0x32f0ed"
                },
                "Prague": {
                    "target": "0x06",
                    "max": "0x09",
                    "baseFeeUpdateFraction": "0x4c6964"
                }
            },
            "chainid": "0x01"
        },
        "_info": {
            "hash": "0x04b8019ce7c0303a911d6d894dd833b9dc2debaa15c72ac1f49c9cdd1df4d6d5",
            "comment": "`execution-spec-tests` generated test",
            "filling-transition-tool": "ethereum-spec-evm-resolver 0.0.5",
            "description": "No description available - add a docstring to the python test class or function.",
            "url": "",
            "fixture-format": "state_test",
            "reference-spec": "https://github.com/ethereum/EIPs/blob/master/",
            "reference-spec-version": "",
            "eels-resolution": {
                "git-url": "https://github.com/ethereum/execution-specs.git",
                "branch": "forks/bpos",
                "commit": "7aacb2c54111391af5e98c505d5010b5698a770f"
            }
        }
    }
}