{
    "tests/static/state_tests/stEIP150Specific/Transaction64Rule_d64p1Filler.json::Transaction64Rule_d64p1[fork_Cancun-state_test-]": {
        "env": {
            "currentCoinbase": "0x2adc25665018aa1fe0e6bc666dac8fc2697ff9ba",
            "currentGasLimit": "0x989680",
            "currentNumber": "0x01",
            "currentTimestamp": "0x03e8",
            "currentRandom": "0x0000000000000000000000000000000000000000000000000000000000020000",
            "currentDifficulty": "0x00",
            "currentBaseFee": "0x0a",
            "currentExcessBlobGas": "0x00"
        },
        "pre": {
            "0x7d2a6edda859eaf1e32afcfd90d7250b27c05680": {
                "nonce": "0x00",
                "balance": "0x00",
                "code": "0x600c60015500",
                "storage": {}
            },
            "0x7d2a6edda859eaf1e32afcfd90d7250b27c05780": {
                "nonce": "0x00",
                "balance": "0x00",
                "code": "0x5a60005260006000600060006000737d2a6edda859eaf1e32afcfd90d7250b27c0568062027100f1505a6000510360025500",
                "storage": {}
            },
            "0x45cd552aecdcdbe148a523dd5be538b4c67c0ce7": {
                "nonce": "0x00",
                "balance": "0xe8d4a51000",
                "code": "0x",
                "storage": {}
            }
        },
        "transaction": {
            "nonce": "0x00",
            "gasPrice": "0x0a",
            "gasLimit": [
                "0x02713f"
            ],
            "to": "0x7d2a6edda859eaf1e32afcfd90d7250b27c05780",
            "value": [
                "0x00"
            ],
            "data": [
                "0x"
            ],
            "sender": "0x45cd552aecdcdbe148a523dd5be538b4c67c0ce7",
            "secretKey": "0xdd977890ff7a0e83251c5fc17d2a6edda859eaf1e32afcfd90d7250b27c05680"
        },
        "post": {
            "Cancun": [
                {
                    "hash": "0x618ebf55615b0dee2eda072d0568722cad8238e0026fe4050863bc6f6308bcf0",
                    "logs": "0x1dcc4de8dec75d7aab85b567b6ccd41ad312451b948a7413f0a142fd40d49347",
                    "txbytes": "0xf860800a8302713f947d2a6edda859eaf1e32afcfd90d7250b27c05780808025a02a4e4cd3fd6ba95cb827fa2b9e26edbda431e971d94268f90347f553074c71cba03d595693bb0316b40f38bbc79d4b7def405f6b99ac941d53221789054226f2e8",
                    "indexes": {
                        "data": 0,
                        "gas": 0,
                        "value": 0
                    },
                    "state": {
                        "0x7d2a6edda859eaf1e32afcfd90d7250b27c05680": {
                            "nonce": "0x00",
                            "balance": "0x00",
                            "code": "0x600c60015500",
                            "storage": {
                                "0x01": "0x0c"
                            }
                        },
                        "0x7d2a6edda859eaf1e32afcfd90d7250b27c05780": {
                            "nonce": "0x00",
                            "balance": "0x00",
                            "code": "0x5a60005260006000600060006000737d2a6edda859eaf1e32afcfd90d7250b27c0568062027100f1505a6000510360025500",
                            "storage": {
                                "0x02": "0x60a4"
                            }
                        },
                        "0x45cd552aecdcdbe148a523dd5be538b4c67c0ce7": {
                            "nonce": "0x01",
                            "balance": "0xe8d49ab574",
                            "code": "0x",
                            "storage": {}
                        }
                    }
                }
            ]
        },
        "config": {
            "blobSchedule": {
                "Cancun": {
                    "target": "0x03",
                    "max": "0x06",
                    "baseFeeUpdateFraction": "0x32f0ed"
                }
            },
            "chainid": "0x01"
        },
        "_info": {
            "hash": "0x2e2329ac05e15fcb45183fc22399123ad47a6b5ad4797d9bd213478cf1c9954e",
            "comment": "`execution-spec-tests` generated test",
            "filling-transition-tool": "ethereum-spec-evm-resolver 0.0.5",
            "description": "No description available - add a docstring to the python test class or function.",
            "url": "",
            "fixture-format": "state_test",
            "reference-spec": "https://github.com/ethereum/EIPs/blob/master/",
            "reference-spec-version": "",
            "eels-resolution": {
                "git-url": "https://github.com/marioevz/execution-specs.git",
                "branch": "forks/bpo1",
                "commit": "3387e5f4aedfe99becfdc39b444d6371e25e0924"
            }
        }
    },
    "tests/static/state_tests/stEIP150Specific/Transaction64Rule_d64p1Filler.json::Transaction64Rule_d64p1[fork_Osaka-state_test-]": {
        "env": {
            "currentCoinbase": "0x2adc25665018aa1fe0e6bc666dac8fc2697ff9ba",
            "currentGasLimit": "0x989680",
            "currentNumber": "0x01",
            "currentTimestamp": "0x03e8",
            "currentRandom": "0x0000000000000000000000000000000000000000000000000000000000020000",
            "currentDifficulty": "0x00",
            "currentBaseFee": "0x0a",
            "currentExcessBlobGas": "0x00"
        },
        "pre": {
            "0x7d2a6edda859eaf1e32afcfd90d7250b27c05680": {
                "nonce": "0x00",
                "balance": "0x00",
                "code": "0x600c60015500",
                "storage": {}
            },
            "0x7d2a6edda859eaf1e32afcfd90d7250b27c05780": {
                "nonce": "0x00",
                "balance": "0x00",
                "code": "0x5a60005260006000600060006000737d2a6edda859eaf1e32afcfd90d7250b27c0568062027100f1505a6000510360025500",
                "storage": {}
            },
            "0x45cd552aecdcdbe148a523dd5be538b4c67c0ce7": {
                "nonce": "0x00",
                "balance": "0xe8d4a51000",
                "code": "0x",
                "storage": {}
            }
        },
        "transaction": {
            "nonce": "0x00",
            "gasPrice": "0x0a",
            "gasLimit": [
                "0x02713f"
            ],
            "to": "0x7d2a6edda859eaf1e32afcfd90d7250b27c05780",
            "value": [
                "0x00"
            ],
            "data": [
                "0x"
            ],
            "sender": "0x45cd552aecdcdbe148a523dd5be538b4c67c0ce7",
            "secretKey": "0xdd977890ff7a0e83251c5fc17d2a6edda859eaf1e32afcfd90d7250b27c05680"
        },
        "post": {
            "Osaka": [
                {
                    "hash": "0x618ebf55615b0dee2eda072d0568722cad8238e0026fe4050863bc6f6308bcf0",
                    "logs": "0x1dcc4de8dec75d7aab85b567b6ccd41ad312451b948a7413f0a142fd40d49347",
                    "txbytes": "0xf860800a8302713f947d2a6edda859eaf1e32afcfd90d7250b27c05780808025a02a4e4cd3fd6ba95cb827fa2b9e26edbda431e971d94268f90347f553074c71cba03d595693bb0316b40f38bbc79d4b7def405f6b99ac941d53221789054226f2e8",
                    "indexes": {
                        "data": 0,
                        "gas": 0,
                        "value": 0
                    },
                    "state": {
                        "0x7d2a6edda859eaf1e32afcfd90d7250b27c05680": {
                            "nonce": "0x00",
                            "balance": "0x00",
                            "code": "0x600c60015500",
                            "storage": {
                                "0x01": "0x0c"
                            }
                        },
                        "0x7d2a6edda859eaf1e32afcfd90d7250b27c05780": {
                            "nonce": "0x00",
                            "balance": "0x00",
                            "code": "0x5a60005260006000600060006000737d2a6edda859eaf1e32afcfd90d7250b27c0568062027100f1505a6000510360025500",
                            "storage": {
                                "0x02": "0x60a4"
                            }
                        },
                        "0x45cd552aecdcdbe148a523dd5be538b4c67c0ce7": {
                            "nonce": "0x01",
                            "balance": "0xe8d49ab574",
                            "code": "0x",
                            "storage": {}
                        }
                    }
                }
            ]
        },
        "config": {
            "blobSchedule": {
                "Cancun": {
                    "target": "0x03",
                    "max": "0x06",
                    "baseFeeUpdateFraction": "0x32f0ed"
                },
                "Prague": {
                    "target": "0x06",
                    "max": "0x09",
                    "baseFeeUpdateFraction": "0x4c6964"
                },
                "Osaka": {
                    "target": "0x06",
                    "max": "0x09",
                    "baseFeeUpdateFraction": "0x4c6964"
                }
            },
            "chainid": "0x01"
        },
        "_info": {
            "hash": "0x27f29a029ee4dc742ef4a076b8568617e109ec26cad98912b91f906a8a8cf346",
            "comment": "`execution-spec-tests` generated test",
            "filling-transition-tool": "ethereum-spec-evm-resolver 0.0.5",
            "description": "No description available - add a docstring to the python test class or function.",
            "url": "",
            "fixture-format": "state_test",
            "reference-spec": "https://github.com/ethereum/EIPs/blob/master/",
            "reference-spec-version": "",
            "eels-resolution": {
                "git-url": "https://github.com/marioevz/execution-specs.git",
                "branch": "forks/bpo1",
                "commit": "3387e5f4aedfe99becfdc39b444d6371e25e0924"
            }
        }
    },
    "tests/static/state_tests/stEIP150Specific/Transaction64Rule_d64p1Filler.json::Transaction64Rule_d64p1[fork_Prague-state_test-]": {
        "env": {
            "currentCoinbase": "0x2adc25665018aa1fe0e6bc666dac8fc2697ff9ba",
            "currentGasLimit": "0x989680",
            "currentNumber": "0x01",
            "currentTimestamp": "0x03e8",
            "currentRandom": "0x0000000000000000000000000000000000000000000000000000000000020000",
            "currentDifficulty": "0x00",
            "currentBaseFee": "0x0a",
            "currentExcessBlobGas": "0x00"
        },
        "pre": {
            "0x7d2a6edda859eaf1e32afcfd90d7250b27c05680": {
                "nonce": "0x00",
                "balance": "0x00",
                "code": "0x600c60015500",
                "storage": {}
            },
            "0x7d2a6edda859eaf1e32afcfd90d7250b27c05780": {
                "nonce": "0x00",
                "balance": "0x00",
                "code": "0x5a60005260006000600060006000737d2a6edda859eaf1e32afcfd90d7250b27c0568062027100f1505a6000510360025500",
                "storage": {}
            },
            "0x45cd552aecdcdbe148a523dd5be538b4c67c0ce7": {
                "nonce": "0x00",
                "balance": "0xe8d4a51000",
                "code": "0x",
                "storage": {}
            }
        },
        "transaction": {
            "nonce": "0x00",
            "gasPrice": "0x0a",
            "gasLimit": [
                "0x02713f"
            ],
            "to": "0x7d2a6edda859eaf1e32afcfd90d7250b27c05780",
            "value": [
                "0x00"
            ],
            "data": [
                "0x"
            ],
            "sender": "0x45cd552aecdcdbe148a523dd5be538b4c67c0ce7",
            "secretKey": "0xdd977890ff7a0e83251c5fc17d2a6edda859eaf1e32afcfd90d7250b27c05680"
        },
        "post": {
            "Prague": [
                {
                    "hash": "0x618ebf55615b0dee2eda072d0568722cad8238e0026fe4050863bc6f6308bcf0",
                    "logs": "0x1dcc4de8dec75d7aab85b567b6ccd41ad312451b948a7413f0a142fd40d49347",
                    "txbytes": "0xf860800a8302713f947d2a6edda859eaf1e32afcfd90d7250b27c05780808025a02a4e4cd3fd6ba95cb827fa2b9e26edbda431e971d94268f90347f553074c71cba03d595693bb0316b40f38bbc79d4b7def405f6b99ac941d53221789054226f2e8",
                    "indexes": {
                        "data": 0,
                        "gas": 0,
                        "value": 0
                    },
                    "state": {
                        "0x7d2a6edda859eaf1e32afcfd90d7250b27c05680": {
                            "nonce": "0x00",
                            "balance": "0x00",
                            "code": "0x600c60015500",
                            "storage": {
                                "0x01": "0x0c"
                            }
                        },
                        "0x7d2a6edda859eaf1e32afcfd90d7250b27c05780": {
                            "nonce": "0x00",
                            "balance": "0x00",
                            "code": "0x5a60005260006000600060006000737d2a6edda859eaf1e32afcfd90d7250b27c0568062027100f1505a6000510360025500",
                            "storage": {
                                "0x02": "0x60a4"
                            }
                        },
                        "0x45cd552aecdcdbe148a523dd5be538b4c67c0ce7": {
                            "nonce": "0x01",
                            "balance": "0xe8d49ab574",
                            "code": "0x",
                            "storage": {}
                        }
                    }
                }
            ]
        },
        "config": {
            "blobSchedule": {
                "Cancun": {
                    "target": "0x03",
                    "max": "0x06",
                    "baseFeeUpdateFraction": "0x32f0ed"
                },
                "Prague": {
                    "target": "0x06",
                    "max": "0x09",
                    "baseFeeUpdateFraction": "0x4c6964"
                }
            },
            "chainid": "0x01"
        },
        "_info": {
            "hash": "0x2cd5fd810a4cdc298de39a65cbbe62960223a25ecb1aa9b81f9cc2d41b7e46b9",
            "comment": "`execution-spec-tests` generated test",
            "filling-transition-tool": "ethereum-spec-evm-resolver 0.0.5",
            "description": "No description available - add a docstring to the python test class or function.",
            "url": "",
            "fixture-format": "state_test",
            "reference-spec": "https://github.com/ethereum/EIPs/blob/master/",
            "reference-spec-version": "",
            "eels-resolution": {
                "git-url": "https://github.com/marioevz/execution-specs.git",
                "branch": "forks/bpo1",
                "commit": "3387e5f4aedfe99becfdc39b444d6371e25e0924"
            }
        }
    }
}