{
    "tests/ported_static/stCreate2/test_create2collision_selfdestructed_revert.py::test_create2collision_selfdestructed_revert[fork_Cancun-blockchain_test_from_state_test-d0]": {
        "network": "Cancun",
        "genesisBlockHeader": {
            "parentHash": "0x0000000000000000000000000000000000000000000000000000000000000000",
            "uncleHash": "0x1dcc4de8dec75d7aab85b567b6ccd41ad312451b948a7413f0a142fd40d49347",
            "coinbase": "0x0000000000000000000000000000000000000000",
            "stateRoot": "0x9a570d719b37d866cf7964860a0a1d0c9dcef102687a7af4841f17cd1c7d18c6",
            "transactionsTrie": "0x56e81f171bcc55a6ff8345e692c0f86e5b48e01b996cadc001622fb5e363b421",
            "receiptTrie": "0x56e81f171bcc55a6ff8345e692c0f86e5b48e01b996cadc001622fb5e363b421",
            "bloom": "0x00000000000000000000000000000000000000000000000000000000000000000000000000000000000000000000000000000000000000000000000000000000000000000000000000000000000000000000000000000000000000000000000000000000000000000000000000000000000000000000000000000000000000000000000000000000000000000000000000000000000000000000000000000000000000000000000000000000000000000000000000000000000000000000000000000000000000000000000000000000000000000000000000000000000000000000000000000000000000000000000000000000000000000000000000000000",
            "difficulty": "0x00",
            "number": "0x00",
            "gasLimit": "0x0f4240",
            "gasUsed": "0x00",
            "timestamp": "0x00",
            "extraData": "0x00",
            "mixHash": "0x0000000000000000000000000000000000000000000000000000000000000000",
            "nonce": "0x0000000000000000",
            "baseFeePerGas": "0x0b",
            "withdrawalsRoot": "0x56e81f171bcc55a6ff8345e692c0f86e5b48e01b996cadc001622fb5e363b421",
            "blobGasUsed": "0x00",
            "excessBlobGas": "0x00",
            "parentBeaconBlockRoot": "0x0000000000000000000000000000000000000000000000000000000000000000",
            "hash": "0xe66d6c5ee608a59289a4559405cc63a2b80f2e112dc69175073076a294606ec5"
        },
        "pre": {
            "0x000f3df6d732807ef1319fb7b8bb8522d0beac02": {
                "nonce": "0x01",
                "balance": "0x00",
                "code": "0x3373fffffffffffffffffffffffffffffffffffffffe14604d57602036146024575f5ffd5b5f35801560495762001fff810690815414603c575f5ffd5b62001fff01545f5260205ff35b5f5ffd5b62001fff42064281555f359062001fff015500",
                "storage": {}
            },
            "0xa94f5374fce5edbc8e2a8697c15331677e6ebf0b": {
                "nonce": "0x00",
                "balance": "0x0de0b6b3a7640000",
                "code": "0x",
                "storage": {}
            },
            "0xe2b35478fdd26477cc576dd906e6277761246a3c": {
                "nonce": "0x00",
                "balance": "0x01",
                "code": "0x6010ff00",
                "storage": {}
            },
            "0xaf3ecba2fe09a4f6c19f16a9d119e44e08c2da01": {
                "nonce": "0x00",
                "balance": "0x01",
                "code": "0x6010ff00",
                "storage": {}
            },
            "0xec2c6832d00680ece8ff9254f81fdab0a5a2ac50": {
                "nonce": "0x00",
                "balance": "0x01",
                "code": "0x6010ff00",
                "storage": {}
            }
        },
        "postState": {
            "0x000f3df6d732807ef1319fb7b8bb8522d0beac02": {
                "nonce": "0x01",
                "balance": "0x00",
                "code": "0x3373fffffffffffffffffffffffffffffffffffffffe14604d57602036146024575f5ffd5b5f35801560495762001fff810690815414603c575f5ffd5b62001fff01545f5260205ff35b5f5ffd5b62001fff42064281555f359062001fff015500",
                "storage": {
                    "0x03e8": "0x03e8"
                }
            },
            "0xa94f5374fce5edbc8e2a8697c15331677e6ebf0b": {
                "nonce": "0x01",
                "balance": "0x0de0b6b3a727a074",
                "code": "0x",
                "storage": {}
            },
            "0xe2b35478fdd26477cc576dd906e6277761246a3c": {
                "nonce": "0x00",
                "balance": "0x01",
                "code": "0x6010ff00",
                "storage": {}
            },
            "0xaf3ecba2fe09a4f6c19f16a9d119e44e08c2da01": {
                "nonce": "0x00",
                "balance": "0x01",
                "code": "0x6010ff00",
                "storage": {}
            },
            "0xec2c6832d00680ece8ff9254f81fdab0a5a2ac50": {
                "nonce": "0x00",
                "balance": "0x01",
                "code": "0x6010ff00",
                "storage": {}
            }
        },
        "lastblockhash": "0xa9a3b9fdf02aa0d8c9b458b5f3e61ad65d89affc21e05111907a7fb96b8b6220",
        "config": {
            "network": "Cancun",
            "chainid": "0x01",
            "blobSchedule": {
                "Cancun": {
                    "target": "0x03",
                    "max": "0x06",
                    "baseFeeUpdateFraction": "0x32f0ed"
                }
            }
        },
        "genesisRLP": "0xf9023bf90235a00000000000000000000000000000000000000000000000000000000000000000a01dcc4de8dec75d7aab85b567b6ccd41ad312451b948a7413f0a142fd40d49347940000000000000000000000000000000000000000a09a570d719b37d866cf7964860a0a1d0c9dcef102687a7af4841f17cd1c7d18c6a056e81f171bcc55a6ff8345e692c0f86e5b48e01b996cadc001622fb5e363b421a056e81f171bcc55a6ff8345e692c0f86e5b48e01b996cadc001622fb5e363b421b90100000000000000000000000000000000000000000000000000000000000000000000000000000000000000000000000000000000000000000000000000000000000000000000000000000000000000000000000000000000000000000000000000000000000000000000000000000000000000000000000000000000000000000000000000000000000000000000000000000000000000000000000000000000000000000000000000000000000000000000000000000000000000000000000000000000000000000000000000000000000000000000000000000000000000000000000000000000000000000000000000000000000000000000000000000000008080830f4240808000a000000000000000000000000000000000000000000000000000000000000000008800000000000000000ba056e81f171bcc55a6ff8345e692c0f86e5b48e01b996cadc001622fb5e363b4218080a00000000000000000000000000000000000000000000000000000000000000000c0c0c0",
        "blocks": [
            {
                "blockHeader": {
                    "parentHash": "0xe66d6c5ee608a59289a4559405cc63a2b80f2e112dc69175073076a294606ec5",
                    "uncleHash": "0x1dcc4de8dec75d7aab85b567b6ccd41ad312451b948a7413f0a142fd40d49347",
                    "coinbase": "0x2adc25665018aa1fe0e6bc666dac8fc2697ff9ba",
                    "stateRoot": "0xd72d17f9af7fbb840d55822111a8ca25167d27e1150227203be7b43984a6237a",
                    "transactionsTrie": "0x634a8a80985590b1ba2c3baf0275482068ff3ffa1e0303352f1c0a0ef063cde7",
                    "receiptTrie": "0x8951c6766a6945e43a68680552e259d546db54516abcf7cf4012fb4890390796",
                    "bloom": "0x00000000000000000000000000000000000000000000000000000000000000000000000000000000000000000000000000000000000000000000000000000000000000000000000000000000000000000000000000000000000000000000000000000000000000000000000000000000000000000000000000000000000000000000000000000000000000000000000000000000000000000000000000000000000000000000000000000000000000000000000000000000000000000000000000000000000000000000000000000000000000000000000000000000000000000000000000000000000000000000000000000000000000000000000000000000",
                    "difficulty": "0x00",
                    "number": "0x01",
                    "gasLimit": "0x0f4240",
                    "gasUsed": "0x06098e",
                    "timestamp": "0x03e8",
                    "extraData": "0x00",
                    "mixHash": "0x0000000000000000000000000000000000000000000000000000000000020000",
                    "nonce": "0x0000000000000000",
                    "baseFeePerGas": "0x0a",
                    "withdrawalsRoot": "0x56e81f171bcc55a6ff8345e692c0f86e5b48e01b996cadc001622fb5e363b421",
                    "blobGasUsed": "0x00",
                    "excessBlobGas": "0x00",
                    "parentBeaconBlockRoot": "0x0000000000000000000000000000000000000000000000000000000000000000",
                    "hash": "0xa9a3b9fdf02aa0d8c9b458b5f3e61ad65d89affc21e05111907a7fb96b8b6220"
                },
                "transactions": [
                    {
                        "type": "0x00",
                        "chainId": "0x01",
                        "nonce": "0x00",
                        "gasPrice": "0x0a",
                        "gasLimit": "0x061a80",
                        "value": "0x01",
                        "data": "0x6000600060006000600073e2b35478fdd26477cc576dd906e6277761246a3c61c350f1506000600060006000f550621122336000526003601dfd00",
                        "v": "0x25",
                        "r": "0x9f8d2be05654670e22f07f97edaeee62a8691938a94c50917e65c1199679608a",
                        "s": "0x5efb4e3df63e0fd8c14d962e7974e0757ee493fbe8da012dd3bf05f5938f315a",
                        "sender": "0xa94f5374fce5edbc8e2a8697c15331677e6ebf0b",
                        "to": ""
                    }
                ],
                "uncleHeaders": [],
                "withdrawals": [],
                "receipts": [
                    {
                        "transactionHash": "0x764189c0e8fd9222c4f8d5c7bbeef6f132f777c615c666f37ab5be295f0d668f",
                        "type": "0x00",
                        "cumulativeGasUsed": "0x06098e",
                        "bloom": "0x00000000000000000000000000000000000000000000000000000000000000000000000000000000000000000000000000000000000000000000000000000000000000000000000000000000000000000000000000000000000000000000000000000000000000000000000000000000000000000000000000000000000000000000000000000000000000000000000000000000000000000000000000000000000000000000000000000000000000000000000000000000000000000000000000000000000000000000000000000000000000000000000000000000000000000000000000000000000000000000000000000000000000000000000000000000",
                        "logs": [],
                        "status": false,
                        "rlp": "0xf90109808306098eb9010000000000000000000000000000000000000000000000000000000000000000000000000000000000000000000000000000000000000000000000000000000000000000000000000000000000000000000000000000000000000000000000000000000000000000000000000000000000000000000000000000000000000000000000000000000000000000000000000000000000000000000000000000000000000000000000000000000000000000000000000000000000000000000000000000000000000000000000000000000000000000000000000000000000000000000000000000000000000000000000000000000000000000000000000000000000c0"
                    }
                ],
                "rlp": "0xf902cbf9023aa0e66d6c5ee608a59289a4559405cc63a2b80f2e112dc69175073076a294606ec5a01dcc4de8dec75d7aab85b567b6ccd41ad312451b948a7413f0a142fd40d49347942adc25665018aa1fe0e6bc666dac8fc2697ff9baa0d72d17f9af7fbb840d55822111a8ca25167d27e1150227203be7b43984a6237aa0634a8a80985590b1ba2c3baf0275482068ff3ffa1e0303352f1c0a0ef063cde7a08951c6766a6945e43a68680552e259d546db54516abcf7cf4012fb4890390796b90100000000000000000000000000000000000000000000000000000000000000000000000000000000000000000000000000000000000000000000000000000000000000000000000000000000000000000000000000000000000000000000000000000000000000000000000000000000000000000000000000000000000000000000000000000000000000000000000000000000000000000000000000000000000000000000000000000000000000000000000000000000000000000000000000000000000000000000000000000000000000000000000000000000000000000000000000000000000000000000000000000000000000000000000000000000008001830f42408306098e8203e800a000000000000000000000000000000000000000000000000000000000000200008800000000000000000aa056e81f171bcc55a6ff8345e692c0f86e5b48e01b996cadc001622fb5e363b4218080a00000000000000000000000000000000000000000000000000000000000000000f88af888800a83061a808001b83b6000600060006000600073e2b35478fdd26477cc576dd906e6277761246a3c61c350f1506000600060006000f550621122336000526003601dfd0025a09f8d2be05654670e22f07f97edaeee62a8691938a94c50917e65c1199679608aa05efb4e3df63e0fd8c14d962e7974e0757ee493fbe8da012dd3bf05f5938f315ac0c0",
                "blocknumber": "1"
            }
        ],
        "sealEngine": "NoProof",
        "_info": {
            "hash": "0xcca71e3bd47a9c3e71f6f8b5be169fd4d45ba1e85f4cf849a9ac563f7b862951",
            "fixture-format": "blockchain_test",
            "comment": "`execution-specs` generated test",
            "filling-transition-tool": "2.19.0",
            "description": "Collision with address that has been selfdestructed in the same...",
            "url": "https://github.com/ethereum/execution-specs/blob/tests-bal@v5.6.0/tests/ported_static/stCreate2/test_create2collision_selfdestructed_revert.py#L26",
            "metadata": {
                "opcode_count": {}
            }
        }
    },
    "tests/ported_static/stCreate2/test_create2collision_selfdestructed_revert.py::test_create2collision_selfdestructed_revert[fork_Cancun-blockchain_test_from_state_test-d1]": {
        "network": "Cancun",
        "genesisBlockHeader": {
            "parentHash": "0x0000000000000000000000000000000000000000000000000000000000000000",
            "uncleHash": "0x1dcc4de8dec75d7aab85b567b6ccd41ad312451b948a7413f0a142fd40d49347",
            "coinbase": "0x0000000000000000000000000000000000000000",
            "stateRoot": "0x9a570d719b37d866cf7964860a0a1d0c9dcef102687a7af4841f17cd1c7d18c6",
            "transactionsTrie": "0x56e81f171bcc55a6ff8345e692c0f86e5b48e01b996cadc001622fb5e363b421",
            "receiptTrie": "0x56e81f171bcc55a6ff8345e692c0f86e5b48e01b996cadc001622fb5e363b421",
            "bloom": "0x00000000000000000000000000000000000000000000000000000000000000000000000000000000000000000000000000000000000000000000000000000000000000000000000000000000000000000000000000000000000000000000000000000000000000000000000000000000000000000000000000000000000000000000000000000000000000000000000000000000000000000000000000000000000000000000000000000000000000000000000000000000000000000000000000000000000000000000000000000000000000000000000000000000000000000000000000000000000000000000000000000000000000000000000000000000",
            "difficulty": "0x00",
            "number": "0x00",
            "gasLimit": "0x0f4240",
            "gasUsed": "0x00",
            "timestamp": "0x00",
            "extraData": "0x00",
            "mixHash": "0x0000000000000000000000000000000000000000000000000000000000000000",
            "nonce": "0x0000000000000000",
            "baseFeePerGas": "0x0b",
            "withdrawalsRoot": "0x56e81f171bcc55a6ff8345e692c0f86e5b48e01b996cadc001622fb5e363b421",
            "blobGasUsed": "0x00",
            "excessBlobGas": "0x00",
            "parentBeaconBlockRoot": "0x0000000000000000000000000000000000000000000000000000000000000000",
            "hash": "0xe66d6c5ee608a59289a4559405cc63a2b80f2e112dc69175073076a294606ec5"
        },
        "pre": {
            "0x000f3df6d732807ef1319fb7b8bb8522d0beac02": {
                "nonce": "0x01",
                "balance": "0x00",
                "code": "0x3373fffffffffffffffffffffffffffffffffffffffe14604d57602036146024575f5ffd5b5f35801560495762001fff810690815414603c575f5ffd5b62001fff01545f5260205ff35b5f5ffd5b62001fff42064281555f359062001fff015500",
                "storage": {}
            },
            "0xa94f5374fce5edbc8e2a8697c15331677e6ebf0b": {
                "nonce": "0x00",
                "balance": "0x0de0b6b3a7640000",
                "code": "0x",
                "storage": {}
            },
            "0xe2b35478fdd26477cc576dd906e6277761246a3c": {
                "nonce": "0x00",
                "balance": "0x01",
                "code": "0x6010ff00",
                "storage": {}
            },
            "0xaf3ecba2fe09a4f6c19f16a9d119e44e08c2da01": {
                "nonce": "0x00",
                "balance": "0x01",
                "code": "0x6010ff00",
                "storage": {}
            },
            "0xec2c6832d00680ece8ff9254f81fdab0a5a2ac50": {
                "nonce": "0x00",
                "balance": "0x01",
                "code": "0x6010ff00",
                "storage": {}
            }
        },
        "postState": {
            "0x000f3df6d732807ef1319fb7b8bb8522d0beac02": {
                "nonce": "0x01",
                "balance": "0x00",
                "code": "0x3373fffffffffffffffffffffffffffffffffffffffe14604d57602036146024575f5ffd5b5f35801560495762001fff810690815414603c575f5ffd5b62001fff01545f5260205ff35b5f5ffd5b62001fff42064281555f359062001fff015500",
                "storage": {
                    "0x03e8": "0x03e8"
                }
            },
            "0xa94f5374fce5edbc8e2a8697c15331677e6ebf0b": {
                "nonce": "0x01",
                "balance": "0x0de0b6b3a727a074",
                "code": "0x",
                "storage": {}
            },
            "0xe2b35478fdd26477cc576dd906e6277761246a3c": {
                "nonce": "0x00",
                "balance": "0x01",
                "code": "0x6010ff00",
                "storage": {}
            },
            "0xaf3ecba2fe09a4f6c19f16a9d119e44e08c2da01": {
                "nonce": "0x00",
                "balance": "0x01",
                "code": "0x6010ff00",
                "storage": {}
            },
            "0xec2c6832d00680ece8ff9254f81fdab0a5a2ac50": {
                "nonce": "0x00",
                "balance": "0x01",
                "code": "0x6010ff00",
                "storage": {}
            }
        },
        "lastblockhash": "0x7ca58d1a2e58bdcf8401f925bf0b2646cc9f33b0bf73928a26e60ff9100fe49f",
        "config": {
            "network": "Cancun",
            "chainid": "0x01",
            "blobSchedule": {
                "Cancun": {
                    "target": "0x03",
                    "max": "0x06",
                    "baseFeeUpdateFraction": "0x32f0ed"
                }
            }
        },
        "genesisRLP": "0xf9023bf90235a00000000000000000000000000000000000000000000000000000000000000000a01dcc4de8dec75d7aab85b567b6ccd41ad312451b948a7413f0a142fd40d49347940000000000000000000000000000000000000000a09a570d719b37d866cf7964860a0a1d0c9dcef102687a7af4841f17cd1c7d18c6a056e81f171bcc55a6ff8345e692c0f86e5b48e01b996cadc001622fb5e363b421a056e81f171bcc55a6ff8345e692c0f86e5b48e01b996cadc001622fb5e363b421b90100000000000000000000000000000000000000000000000000000000000000000000000000000000000000000000000000000000000000000000000000000000000000000000000000000000000000000000000000000000000000000000000000000000000000000000000000000000000000000000000000000000000000000000000000000000000000000000000000000000000000000000000000000000000000000000000000000000000000000000000000000000000000000000000000000000000000000000000000000000000000000000000000000000000000000000000000000000000000000000000000000000000000000000000000000000008080830f4240808000a000000000000000000000000000000000000000000000000000000000000000008800000000000000000ba056e81f171bcc55a6ff8345e692c0f86e5b48e01b996cadc001622fb5e363b4218080a00000000000000000000000000000000000000000000000000000000000000000c0c0c0",
        "blocks": [
            {
                "blockHeader": {
                    "parentHash": "0xe66d6c5ee608a59289a4559405cc63a2b80f2e112dc69175073076a294606ec5",
                    "uncleHash": "0x1dcc4de8dec75d7aab85b567b6ccd41ad312451b948a7413f0a142fd40d49347",
                    "coinbase": "0x2adc25665018aa1fe0e6bc666dac8fc2697ff9ba",
                    "stateRoot": "0xd72d17f9af7fbb840d55822111a8ca25167d27e1150227203be7b43984a6237a",
                    "transactionsTrie": "0x99af1e398fdd77e09bc803383336a5bbd289e1fb27aa958c50b841f2d0ca222c",
                    "receiptTrie": "0x8951c6766a6945e43a68680552e259d546db54516abcf7cf4012fb4890390796",
                    "bloom": "0x00000000000000000000000000000000000000000000000000000000000000000000000000000000000000000000000000000000000000000000000000000000000000000000000000000000000000000000000000000000000000000000000000000000000000000000000000000000000000000000000000000000000000000000000000000000000000000000000000000000000000000000000000000000000000000000000000000000000000000000000000000000000000000000000000000000000000000000000000000000000000000000000000000000000000000000000000000000000000000000000000000000000000000000000000000000",
                    "difficulty": "0x00",
                    "number": "0x01",
                    "gasLimit": "0x0f4240",
                    "gasUsed": "0x06098e",
                    "timestamp": "0x03e8",
                    "extraData": "0x00",
                    "mixHash": "0x0000000000000000000000000000000000000000000000000000000000020000",
                    "nonce": "0x0000000000000000",
                    "baseFeePerGas": "0x0a",
                    "withdrawalsRoot": "0x56e81f171bcc55a6ff8345e692c0f86e5b48e01b996cadc001622fb5e363b421",
                    "blobGasUsed": "0x00",
                    "excessBlobGas": "0x00",
                    "parentBeaconBlockRoot": "0x0000000000000000000000000000000000000000000000000000000000000000",
                    "hash": "0x7ca58d1a2e58bdcf8401f925bf0b2646cc9f33b0bf73928a26e60ff9100fe49f"
                },
                "transactions": [
                    {
                        "type": "0x00",
                        "chainId": "0x01",
                        "nonce": "0x00",
                        "gasPrice": "0x0a",
                        "gasLimit": "0x061a80",
                        "value": "0x01",
                        "data": "0x6000600060006000600073e2b35478fdd26477cc576dd906e6277761246a3c61c350f15064600160015560005260006005601b6000f550621122336000526003601dfd00",
                        "v": "0x25",
                        "r": "0xed8eed58523f137f62cf04ed56d042fe54dc6b55fd1b4f39cd2c74bf519a58b1",
                        "s": "0x1cfb0e7f797f65a5d0b695de6529cabe946cd87054c4d75ad9d129ff962aef08",
                        "sender": "0xa94f5374fce5edbc8e2a8697c15331677e6ebf0b",
                        "to": ""
                    }
                ],
                "uncleHeaders": [],
                "withdrawals": [],
                "receipts": [
                    {
                        "transactionHash": "0xcf2d5234c05095fdf29769469c0169983b67d815a8a7472d3038d2e20a37be2e",
                        "type": "0x00",
                        "cumulativeGasUsed": "0x06098e",
                        "bloom": "0x00000000000000000000000000000000000000000000000000000000000000000000000000000000000000000000000000000000000000000000000000000000000000000000000000000000000000000000000000000000000000000000000000000000000000000000000000000000000000000000000000000000000000000000000000000000000000000000000000000000000000000000000000000000000000000000000000000000000000000000000000000000000000000000000000000000000000000000000000000000000000000000000000000000000000000000000000000000000000000000000000000000000000000000000000000000",
                        "logs": [],
                        "status": false,
                        "rlp": "0xf90109808306098eb9010000000000000000000000000000000000000000000000000000000000000000000000000000000000000000000000000000000000000000000000000000000000000000000000000000000000000000000000000000000000000000000000000000000000000000000000000000000000000000000000000000000000000000000000000000000000000000000000000000000000000000000000000000000000000000000000000000000000000000000000000000000000000000000000000000000000000000000000000000000000000000000000000000000000000000000000000000000000000000000000000000000000000000000000000000000000c0"
                    }
                ],
                "rlp": "0xf902d4f9023aa0e66d6c5ee608a59289a4559405cc63a2b80f2e112dc69175073076a294606ec5a01dcc4de8dec75d7aab85b567b6ccd41ad312451b948a7413f0a142fd40d49347942adc25665018aa1fe0e6bc666dac8fc2697ff9baa0d72d17f9af7fbb840d55822111a8ca25167d27e1150227203be7b43984a6237aa099af1e398fdd77e09bc803383336a5bbd289e1fb27aa958c50b841f2d0ca222ca08951c6766a6945e43a68680552e259d546db54516abcf7cf4012fb4890390796b90100000000000000000000000000000000000000000000000000000000000000000000000000000000000000000000000000000000000000000000000000000000000000000000000000000000000000000000000000000000000000000000000000000000000000000000000000000000000000000000000000000000000000000000000000000000000000000000000000000000000000000000000000000000000000000000000000000000000000000000000000000000000000000000000000000000000000000000000000000000000000000000000000000000000000000000000000000000000000000000000000000000000000000000000000000000008001830f42408306098e8203e800a000000000000000000000000000000000000000000000000000000000000200008800000000000000000aa056e81f171bcc55a6ff8345e692c0f86e5b48e01b996cadc001622fb5e363b4218080a00000000000000000000000000000000000000000000000000000000000000000f893f891800a83061a808001b8446000600060006000600073e2b35478fdd26477cc576dd906e6277761246a3c61c350f15064600160015560005260006005601b6000f550621122336000526003601dfd0025a0ed8eed58523f137f62cf04ed56d042fe54dc6b55fd1b4f39cd2c74bf519a58b1a01cfb0e7f797f65a5d0b695de6529cabe946cd87054c4d75ad9d129ff962aef08c0c0",
                "blocknumber": "1"
            }
        ],
        "sealEngine": "NoProof",
        "_info": {
            "hash": "0xded06a61a45024b4a33216c5448966e45bf923a17b4c0b71d7421710de6c9d1c",
            "fixture-format": "blockchain_test",
            "comment": "`execution-specs` generated test",
            "filling-transition-tool": "2.19.0",
            "description": "Collision with address that has been selfdestructed in the same...",
            "url": "https://github.com/ethereum/execution-specs/blob/tests-bal@v5.6.0/tests/ported_static/stCreate2/test_create2collision_selfdestructed_revert.py#L26",
            "metadata": {
                "opcode_count": {}
            }
        }
    },
    "tests/ported_static/stCreate2/test_create2collision_selfdestructed_revert.py::test_create2collision_selfdestructed_revert[fork_Cancun-blockchain_test_from_state_test-d2]": {
        "network": "Cancun",
        "genesisBlockHeader": {
            "parentHash": "0x0000000000000000000000000000000000000000000000000000000000000000",
            "uncleHash": "0x1dcc4de8dec75d7aab85b567b6ccd41ad312451b948a7413f0a142fd40d49347",
            "coinbase": "0x0000000000000000000000000000000000000000",
            "stateRoot": "0x9a570d719b37d866cf7964860a0a1d0c9dcef102687a7af4841f17cd1c7d18c6",
            "transactionsTrie": "0x56e81f171bcc55a6ff8345e692c0f86e5b48e01b996cadc001622fb5e363b421",
            "receiptTrie": "0x56e81f171bcc55a6ff8345e692c0f86e5b48e01b996cadc001622fb5e363b421",
            "bloom": "0x00000000000000000000000000000000000000000000000000000000000000000000000000000000000000000000000000000000000000000000000000000000000000000000000000000000000000000000000000000000000000000000000000000000000000000000000000000000000000000000000000000000000000000000000000000000000000000000000000000000000000000000000000000000000000000000000000000000000000000000000000000000000000000000000000000000000000000000000000000000000000000000000000000000000000000000000000000000000000000000000000000000000000000000000000000000",
            "difficulty": "0x00",
            "number": "0x00",
            "gasLimit": "0x0f4240",
            "gasUsed": "0x00",
            "timestamp": "0x00",
            "extraData": "0x00",
            "mixHash": "0x0000000000000000000000000000000000000000000000000000000000000000",
            "nonce": "0x0000000000000000",
            "baseFeePerGas": "0x0b",
            "withdrawalsRoot": "0x56e81f171bcc55a6ff8345e692c0f86e5b48e01b996cadc001622fb5e363b421",
            "blobGasUsed": "0x00",
            "excessBlobGas": "0x00",
            "parentBeaconBlockRoot": "0x0000000000000000000000000000000000000000000000000000000000000000",
            "hash": "0xe66d6c5ee608a59289a4559405cc63a2b80f2e112dc69175073076a294606ec5"
        },
        "pre": {
            "0x000f3df6d732807ef1319fb7b8bb8522d0beac02": {
                "nonce": "0x01",
                "balance": "0x00",
                "code": "0x3373fffffffffffffffffffffffffffffffffffffffe14604d57602036146024575f5ffd5b5f35801560495762001fff810690815414603c575f5ffd5b62001fff01545f5260205ff35b5f5ffd5b62001fff42064281555f359062001fff015500",
                "storage": {}
            },
            "0xa94f5374fce5edbc8e2a8697c15331677e6ebf0b": {
                "nonce": "0x00",
                "balance": "0x0de0b6b3a7640000",
                "code": "0x",
                "storage": {}
            },
            "0xe2b35478fdd26477cc576dd906e6277761246a3c": {
                "nonce": "0x00",
                "balance": "0x01",
                "code": "0x6010ff00",
                "storage": {}
            },
            "0xaf3ecba2fe09a4f6c19f16a9d119e44e08c2da01": {
                "nonce": "0x00",
                "balance": "0x01",
                "code": "0x6010ff00",
                "storage": {}
            },
            "0xec2c6832d00680ece8ff9254f81fdab0a5a2ac50": {
                "nonce": "0x00",
                "balance": "0x01",
                "code": "0x6010ff00",
                "storage": {}
            }
        },
        "postState": {
            "0x000f3df6d732807ef1319fb7b8bb8522d0beac02": {
                "nonce": "0x01",
                "balance": "0x00",
                "code": "0x3373fffffffffffffffffffffffffffffffffffffffe14604d57602036146024575f5ffd5b5f35801560495762001fff810690815414603c575f5ffd5b62001fff01545f5260205ff35b5f5ffd5b62001fff42064281555f359062001fff015500",
                "storage": {
                    "0x03e8": "0x03e8"
                }
            },
            "0xa94f5374fce5edbc8e2a8697c15331677e6ebf0b": {
                "nonce": "0x01",
                "balance": "0x0de0b6b3a727a060",
                "code": "0x",
                "storage": {}
            },
            "0xe2b35478fdd26477cc576dd906e6277761246a3c": {
                "nonce": "0x00",
                "balance": "0x01",
                "code": "0x6010ff00",
                "storage": {}
            },
            "0xaf3ecba2fe09a4f6c19f16a9d119e44e08c2da01": {
                "nonce": "0x00",
                "balance": "0x01",
                "code": "0x6010ff00",
                "storage": {}
            },
            "0xec2c6832d00680ece8ff9254f81fdab0a5a2ac50": {
                "nonce": "0x00",
                "balance": "0x01",
                "code": "0x6010ff00",
                "storage": {}
            }
        },
        "lastblockhash": "0x1e9263fccd99b329089ccee74740e72e28aadaf084fdcf41279cbf414bf3ab77",
        "config": {
            "network": "Cancun",
            "chainid": "0x01",
            "blobSchedule": {
                "Cancun": {
                    "target": "0x03",
                    "max": "0x06",
                    "baseFeeUpdateFraction": "0x32f0ed"
                }
            }
        },
        "genesisRLP": "0xf9023bf90235a00000000000000000000000000000000000000000000000000000000000000000a01dcc4de8dec75d7aab85b567b6ccd41ad312451b948a7413f0a142fd40d49347940000000000000000000000000000000000000000a09a570d719b37d866cf7964860a0a1d0c9dcef102687a7af4841f17cd1c7d18c6a056e81f171bcc55a6ff8345e692c0f86e5b48e01b996cadc001622fb5e363b421a056e81f171bcc55a6ff8345e692c0f86e5b48e01b996cadc001622fb5e363b421b90100000000000000000000000000000000000000000000000000000000000000000000000000000000000000000000000000000000000000000000000000000000000000000000000000000000000000000000000000000000000000000000000000000000000000000000000000000000000000000000000000000000000000000000000000000000000000000000000000000000000000000000000000000000000000000000000000000000000000000000000000000000000000000000000000000000000000000000000000000000000000000000000000000000000000000000000000000000000000000000000000000000000000000000000000000000008080830f4240808000a000000000000000000000000000000000000000000000000000000000000000008800000000000000000ba056e81f171bcc55a6ff8345e692c0f86e5b48e01b996cadc001622fb5e363b4218080a00000000000000000000000000000000000000000000000000000000000000000c0c0c0",
        "blocks": [
            {
                "blockHeader": {
                    "parentHash": "0xe66d6c5ee608a59289a4559405cc63a2b80f2e112dc69175073076a294606ec5",
                    "uncleHash": "0x1dcc4de8dec75d7aab85b567b6ccd41ad312451b948a7413f0a142fd40d49347",
                    "coinbase": "0x2adc25665018aa1fe0e6bc666dac8fc2697ff9ba",
                    "stateRoot": "0xe58b99619193102217f3d468f84f59e7699d8acd0165c01935e29d3371f8fa86",
                    "transactionsTrie": "0xed5ff55b8b5fdd7c7f56c2b69cfaf3ef20da1e9ed0483af1686adc341984ef29",
                    "receiptTrie": "0x5cab385b48279a81f9d4fe28735d407940978f6b7377f0cee18324fc601ab974",
                    "bloom": "0x00000000000000000000000000000000000000000000000000000000000000000000000000000000000000000000000000000000000000000000000000000000000000000000000000000000000000000000000000000000000000000000000000000000000000000000000000000000000000000000000000000000000000000000000000000000000000000000000000000000000000000000000000000000000000000000000000000000000000000000000000000000000000000000000000000000000000000000000000000000000000000000000000000000000000000000000000000000000000000000000000000000000000000000000000000000",
                    "difficulty": "0x00",
                    "number": "0x01",
                    "gasLimit": "0x0f4240",
                    "gasUsed": "0x060990",
                    "timestamp": "0x03e8",
                    "extraData": "0x00",
                    "mixHash": "0x0000000000000000000000000000000000000000000000000000000000020000",
                    "nonce": "0x0000000000000000",
                    "baseFeePerGas": "0x0a",
                    "withdrawalsRoot": "0x56e81f171bcc55a6ff8345e692c0f86e5b48e01b996cadc001622fb5e363b421",
                    "blobGasUsed": "0x00",
                    "excessBlobGas": "0x00",
                    "parentBeaconBlockRoot": "0x0000000000000000000000000000000000000000000000000000000000000000",
                    "hash": "0x1e9263fccd99b329089ccee74740e72e28aadaf084fdcf41279cbf414bf3ab77"
                },
                "transactions": [
                    {
                        "type": "0x00",
                        "chainId": "0x01",
                        "nonce": "0x00",
                        "gasPrice": "0x0a",
                        "gasLimit": "0x061a80",
                        "value": "0x01",
                        "data": "0x6000600060006000600073e2b35478fdd26477cc576dd906e6277761246a3c61c350f1506d6460016001556000526005601bf36000526000600e60126000f550621122336000526003601dfd00",
                        "v": "0x25",
                        "r": "0x5dcf1fb0743aa52e021665eec0cb1b91bd27d6ffc2128db8cff69534ef165c4a",
                        "s": "0x57af909c42594de5ce123591d7448455af70b2a75ab0ef6b7436bbb23a8f09cb",
                        "sender": "0xa94f5374fce5edbc8e2a8697c15331677e6ebf0b",
                        "to": ""
                    }
                ],
                "uncleHeaders": [],
                "withdrawals": [],
                "receipts": [
                    {
                        "transactionHash": "0x2db670b374ec665ef2e16103121603a9cc88dd55e5177bb232631216ad2e4ab0",
                        "type": "0x00",
                        "cumulativeGasUsed": "0x060990",
                        "bloom": "0x00000000000000000000000000000000000000000000000000000000000000000000000000000000000000000000000000000000000000000000000000000000000000000000000000000000000000000000000000000000000000000000000000000000000000000000000000000000000000000000000000000000000000000000000000000000000000000000000000000000000000000000000000000000000000000000000000000000000000000000000000000000000000000000000000000000000000000000000000000000000000000000000000000000000000000000000000000000000000000000000000000000000000000000000000000000",
                        "logs": [],
                        "status": false,
                        "rlp": "0xf901098083060990b9010000000000000000000000000000000000000000000000000000000000000000000000000000000000000000000000000000000000000000000000000000000000000000000000000000000000000000000000000000000000000000000000000000000000000000000000000000000000000000000000000000000000000000000000000000000000000000000000000000000000000000000000000000000000000000000000000000000000000000000000000000000000000000000000000000000000000000000000000000000000000000000000000000000000000000000000000000000000000000000000000000000000000000000000000000000000c0"
                    }
                ],
                "rlp": "0xf902ddf9023aa0e66d6c5ee608a59289a4559405cc63a2b80f2e112dc69175073076a294606ec5a01dcc4de8dec75d7aab85b567b6ccd41ad312451b948a7413f0a142fd40d49347942adc25665018aa1fe0e6bc666dac8fc2697ff9baa0e58b99619193102217f3d468f84f59e7699d8acd0165c01935e29d3371f8fa86a0ed5ff55b8b5fdd7c7f56c2b69cfaf3ef20da1e9ed0483af1686adc341984ef29a05cab385b48279a81f9d4fe28735d407940978f6b7377f0cee18324fc601ab974b90100000000000000000000000000000000000000000000000000000000000000000000000000000000000000000000000000000000000000000000000000000000000000000000000000000000000000000000000000000000000000000000000000000000000000000000000000000000000000000000000000000000000000000000000000000000000000000000000000000000000000000000000000000000000000000000000000000000000000000000000000000000000000000000000000000000000000000000000000000000000000000000000000000000000000000000000000000000000000000000000000000000000000000000000000000000008001830f4240830609908203e800a000000000000000000000000000000000000000000000000000000000000200008800000000000000000aa056e81f171bcc55a6ff8345e692c0f86e5b48e01b996cadc001622fb5e363b4218080a00000000000000000000000000000000000000000000000000000000000000000f89cf89a800a83061a808001b84d6000600060006000600073e2b35478fdd26477cc576dd906e6277761246a3c61c350f1506d6460016001556000526005601bf36000526000600e60126000f550621122336000526003601dfd0025a05dcf1fb0743aa52e021665eec0cb1b91bd27d6ffc2128db8cff69534ef165c4aa057af909c42594de5ce123591d7448455af70b2a75ab0ef6b7436bbb23a8f09cbc0c0",
                "blocknumber": "1"
            }
        ],
        "sealEngine": "NoProof",
        "_info": {
            "hash": "0x5117b9973feb69009b429edc8da274870066374a0f8981ebc3a6a2e7e57f5b17",
            "fixture-format": "blockchain_test",
            "comment": "`execution-specs` generated test",
            "filling-transition-tool": "2.19.0",
            "description": "Collision with address that has been selfdestructed in the same...",
            "url": "https://github.com/ethereum/execution-specs/blob/tests-bal@v5.6.0/tests/ported_static/stCreate2/test_create2collision_selfdestructed_revert.py#L26",
            "metadata": {
                "opcode_count": {}
            }
        }
    }
}