{
    "tests/ported_static/stRefundTest/test_refund_suicide50procent_cap.py::test_refund_suicide50procent_cap[fork_Cancun-blockchain_test_from_state_test-d0]": {
        "network": "Cancun",
        "genesisBlockHeader": {
            "parentHash": "0x0000000000000000000000000000000000000000000000000000000000000000",
            "uncleHash": "0x1dcc4de8dec75d7aab85b567b6ccd41ad312451b948a7413f0a142fd40d49347",
            "coinbase": "0x0000000000000000000000000000000000000000",
            "stateRoot": "0xf114103fd3085d87491b86820cc6f6adde2e6e8ad29878f3522cebcc683f209d",
            "transactionsTrie": "0x56e81f171bcc55a6ff8345e692c0f86e5b48e01b996cadc001622fb5e363b421",
            "receiptTrie": "0x56e81f171bcc55a6ff8345e692c0f86e5b48e01b996cadc001622fb5e363b421",
            "bloom": "0x00000000000000000000000000000000000000000000000000000000000000000000000000000000000000000000000000000000000000000000000000000000000000000000000000000000000000000000000000000000000000000000000000000000000000000000000000000000000000000000000000000000000000000000000000000000000000000000000000000000000000000000000000000000000000000000000000000000000000000000000000000000000000000000000000000000000000000000000000000000000000000000000000000000000000000000000000000000000000000000000000000000000000000000000000000000",
            "difficulty": "0x00",
            "number": "0x00",
            "gasLimit": "0x05f5e100",
            "gasUsed": "0x00",
            "timestamp": "0x00",
            "extraData": "0x00",
            "mixHash": "0x0000000000000000000000000000000000000000000000000000000000000000",
            "nonce": "0x0000000000000000",
            "baseFeePerGas": "0x0b",
            "withdrawalsRoot": "0x56e81f171bcc55a6ff8345e692c0f86e5b48e01b996cadc001622fb5e363b421",
            "blobGasUsed": "0x00",
            "excessBlobGas": "0x00",
            "parentBeaconBlockRoot": "0x0000000000000000000000000000000000000000000000000000000000000000",
            "hash": "0x2f8fa2c5eb15d8cfef360381b557334240beb251be7530d6d0eca3de23cc3873"
        },
        "pre": {
            "0x000f3df6d732807ef1319fb7b8bb8522d0beac02": {
                "nonce": "0x01",
                "balance": "0x00",
                "code": "0x3373fffffffffffffffffffffffffffffffffffffffe14604d57602036146024575f5ffd5b5f35801560495762001fff810690815414603c575f5ffd5b62001fff01545f5260205ff35b5f5ffd5b62001fff42064281555f359062001fff015500",
                "storage": {}
            },
            "0xeb201d2887816e041f6e807e804f64f3a7a226fe": {
                "nonce": "0x01",
                "balance": "0x00",
                "code": "0x",
                "storage": {}
            },
            "0xa6cc2ca5611255d50118601aa8ece6f124fc4c45": {
                "nonce": "0x00",
                "balance": "0x0de0b6b3a7640000",
                "code": "0x5a6016526001600a5560006000600060006000734ff65047ce9c85f968689e4369c10003026a41a9600035f1600b55600060015560006002556000600355600060045560006005556000600655600060075560006008555a6016510360175500",
                "storage": {
                    "0x01": "0x01",
                    "0x02": "0x01",
                    "0x03": "0x01",
                    "0x04": "0x01",
                    "0x05": "0x01",
                    "0x06": "0x01",
                    "0x07": "0x01",
                    "0x08": "0x01"
                }
            },
            "0xc4a2ca1058df329e5da4755f9921ddaf05cbaa06": {
                "nonce": "0x00",
                "balance": "0x3b9aca00",
                "code": "0x",
                "storage": {}
            },
            "0x4ff65047ce9c85f968689e4369c10003026a41a9": {
                "nonce": "0x00",
                "balance": "0x0de0b6b3a7640000",
                "code": "0x73a6cc2ca5611255d50118601aa8ece6f124fc4c45ff00",
                "storage": {}
            }
        },
        "postState": {
            "0x000f3df6d732807ef1319fb7b8bb8522d0beac02": {
                "nonce": "0x01",
                "balance": "0x00",
                "code": "0x3373fffffffffffffffffffffffffffffffffffffffe14604d57602036146024575f5ffd5b5f35801560495762001fff810690815414603c575f5ffd5b62001fff01545f5260205ff35b5f5ffd5b62001fff42064281555f359062001fff015500",
                "storage": {
                    "0x03e8": "0x03e8"
                }
            },
            "0xeb201d2887816e041f6e807e804f64f3a7a226fe": {
                "nonce": "0x01",
                "balance": "0x00",
                "code": "0x",
                "storage": {}
            },
            "0xa6cc2ca5611255d50118601aa8ece6f124fc4c45": {
                "nonce": "0x00",
                "balance": "0x0de0b6b3a7640000",
                "code": "0x5a6016526001600a5560006000600060006000734ff65047ce9c85f968689e4369c10003026a41a9600035f1600b55600060015560006002556000600355600060045560006005556000600655600060075560006008555a6016510360175500",
                "storage": {
                    "0x0a": "0x01",
                    "0x17": "0x0107a7"
                }
            },
            "0xc4a2ca1058df329e5da4755f9921ddaf05cbaa06": {
                "nonce": "0x01",
                "balance": "0x3b8d44b6",
                "code": "0x",
                "storage": {}
            },
            "0x4ff65047ce9c85f968689e4369c10003026a41a9": {
                "nonce": "0x00",
                "balance": "0x0de0b6b3a7640000",
                "code": "0x73a6cc2ca5611255d50118601aa8ece6f124fc4c45ff00",
                "storage": {}
            }
        },
        "lastblockhash": "0xbb78fee055c9ada9df1e3ecbfd1d54ce0364015f9d9c37b21b594f99015cfea9",
        "config": {
            "network": "Cancun",
            "chainid": "0x01",
            "blobSchedule": {
                "Cancun": {
                    "target": "0x03",
                    "max": "0x06",
                    "baseFeeUpdateFraction": "0x32f0ed"
                }
            }
        },
        "genesisRLP": "0xf9023cf90236a00000000000000000000000000000000000000000000000000000000000000000a01dcc4de8dec75d7aab85b567b6ccd41ad312451b948a7413f0a142fd40d49347940000000000000000000000000000000000000000a0f114103fd3085d87491b86820cc6f6adde2e6e8ad29878f3522cebcc683f209da056e81f171bcc55a6ff8345e692c0f86e5b48e01b996cadc001622fb5e363b421a056e81f171bcc55a6ff8345e692c0f86e5b48e01b996cadc001622fb5e363b421b901000000000000000000000000000000000000000000000000000000000000000000000000000000000000000000000000000000000000000000000000000000000000000000000000000000000000000000000000000000000000000000000000000000000000000000000000000000000000000000000000000000000000000000000000000000000000000000000000000000000000000000000000000000000000000000000000000000000000000000000000000000000000000000000000000000000000000000000000000000000000000000000000000000000000000000000000000000000000000000000000000000000000000000000000000000000080808405f5e100808000a000000000000000000000000000000000000000000000000000000000000000008800000000000000000ba056e81f171bcc55a6ff8345e692c0f86e5b48e01b996cadc001622fb5e363b4218080a00000000000000000000000000000000000000000000000000000000000000000c0c0c0",
        "blocks": [
            {
                "blockHeader": {
                    "parentHash": "0x2f8fa2c5eb15d8cfef360381b557334240beb251be7530d6d0eca3de23cc3873",
                    "uncleHash": "0x1dcc4de8dec75d7aab85b567b6ccd41ad312451b948a7413f0a142fd40d49347",
                    "coinbase": "0xeb201d2887816e041f6e807e804f64f3a7a226fe",
                    "stateRoot": "0x6e2bbf9f9e3fc21d87d9b4e570c3e955aaaccfb833a485d325f807421d553a85",
                    "transactionsTrie": "0xf3aac8de135db7b5baf8b61e2eb85b871946f4a5625310ac6bad9cdf1515420b",
                    "receiptTrie": "0x718b5fcc39db5fb563784a9b050f0b94b867a87ac4781fbedec6df975e393b2e",
                    "bloom": "0x00000000000000000000000000000000000000000000000000000000000000000000000000000000000000000000000000000000000000000000000000000000000000000000000000000000000000000000000000000000000000000000000000000000000000000000000000000000000000000000000000000000000000000000000000000000000000000000000000000000000000000000000000000000000000000000000000000000000000000000000000000000000000000000000000000000000000000000000000000000000000000000000000000000000000000000000000000000000000000000000000000000000000000000000000000000",
                    "difficulty": "0x00",
                    "number": "0x01",
                    "gasLimit": "0x05f5e100",
                    "gasUsed": "0x015a21",
                    "timestamp": "0x03e8",
                    "extraData": "0x00",
                    "mixHash": "0x0000000000000000000000000000000000000000000000000000000000020000",
                    "nonce": "0x0000000000000000",
                    "baseFeePerGas": "0x0a",
                    "withdrawalsRoot": "0x56e81f171bcc55a6ff8345e692c0f86e5b48e01b996cadc001622fb5e363b421",
                    "blobGasUsed": "0x00",
                    "excessBlobGas": "0x00",
                    "parentBeaconBlockRoot": "0x0000000000000000000000000000000000000000000000000000000000000000",
                    "hash": "0xbb78fee055c9ada9df1e3ecbfd1d54ce0364015f9d9c37b21b594f99015cfea9"
                },
                "transactions": [
                    {
                        "type": "0x00",
                        "chainId": "0x01",
                        "nonce": "0x00",
                        "gasPrice": "0x0a",
                        "gasLimit": "0x989680",
                        "to": "0xa6cc2ca5611255d50118601aa8ece6f124fc4c45",
                        "value": "0x00",
                        "data": "0x00000000000000000000000000000000000000000000000000000000000001f4",
                        "v": "0x25",
                        "r": "0x527ee58509b11db96fb7f2bc8318f0a1c02991a203e9188453dac4110ad8b601",
                        "s": "0x57a7a79eb09a6f94032d80299172db611547aa207f3934ebf65b7835b321947e",
                        "sender": "0xc4a2ca1058df329e5da4755f9921ddaf05cbaa06"
                    }
                ],
                "uncleHeaders": [],
                "withdrawals": [],
                "receipts": [
                    {
                        "transactionHash": "0x73d668d1a88abd81168f5545fbf0a9eb73e497e404de4f931397229511fd4275",
                        "type": "0x00",
                        "cumulativeGasUsed": "0x015a21",
                        "bloom": "0x00000000000000000000000000000000000000000000000000000000000000000000000000000000000000000000000000000000000000000000000000000000000000000000000000000000000000000000000000000000000000000000000000000000000000000000000000000000000000000000000000000000000000000000000000000000000000000000000000000000000000000000000000000000000000000000000000000000000000000000000000000000000000000000000000000000000000000000000000000000000000000000000000000000000000000000000000000000000000000000000000000000000000000000000000000000",
                        "logs": [],
                        "status": true,
                        "rlp": "0xf901090183015a21b9010000000000000000000000000000000000000000000000000000000000000000000000000000000000000000000000000000000000000000000000000000000000000000000000000000000000000000000000000000000000000000000000000000000000000000000000000000000000000000000000000000000000000000000000000000000000000000000000000000000000000000000000000000000000000000000000000000000000000000000000000000000000000000000000000000000000000000000000000000000000000000000000000000000000000000000000000000000000000000000000000000000000000000000000000000000000c0"
                    }
                ],
                "rlp": "0xf902c4f9023ba02f8fa2c5eb15d8cfef360381b557334240beb251be7530d6d0eca3de23cc3873a01dcc4de8dec75d7aab85b567b6ccd41ad312451b948a7413f0a142fd40d4934794eb201d2887816e041f6e807e804f64f3a7a226fea06e2bbf9f9e3fc21d87d9b4e570c3e955aaaccfb833a485d325f807421d553a85a0f3aac8de135db7b5baf8b61e2eb85b871946f4a5625310ac6bad9cdf1515420ba0718b5fcc39db5fb563784a9b050f0b94b867a87ac4781fbedec6df975e393b2eb901000000000000000000000000000000000000000000000000000000000000000000000000000000000000000000000000000000000000000000000000000000000000000000000000000000000000000000000000000000000000000000000000000000000000000000000000000000000000000000000000000000000000000000000000000000000000000000000000000000000000000000000000000000000000000000000000000000000000000000000000000000000000000000000000000000000000000000000000000000000000000000000000000000000000000000000000000000000000000000000000000000000000000000000000000000000080018405f5e10083015a218203e800a000000000000000000000000000000000000000000000000000000000000200008800000000000000000aa056e81f171bcc55a6ff8345e692c0f86e5b48e01b996cadc001622fb5e363b4218080a00000000000000000000000000000000000000000000000000000000000000000f882f880800a8398968094a6cc2ca5611255d50118601aa8ece6f124fc4c4580a000000000000000000000000000000000000000000000000000000000000001f425a0527ee58509b11db96fb7f2bc8318f0a1c02991a203e9188453dac4110ad8b601a057a7a79eb09a6f94032d80299172db611547aa207f3934ebf65b7835b321947ec0c0",
                "blocknumber": "1"
            }
        ],
        "sealEngine": "NoProof",
        "_info": {
            "hash": "0xd4363a1855790ea1f800d937a13b5ff802517066aecdbab638b46cf7cf7fc7e3",
            "fixture-format": "blockchain_test",
            "comment": "`execution-specs` generated test",
            "filling-transition-tool": "2.19.0",
            "description": "Test_refund_suicide50procent_cap.",
            "url": "https://github.com/ethereum/execution-specs/blob/tests-bal@v5.6.0/tests/ported_static/stRefundTest/test_refund_suicide50procent_cap.py#L29",
            "metadata": {
                "opcode_count": {}
            }
        }
    },
    "tests/ported_static/stRefundTest/test_refund_suicide50procent_cap.py::test_refund_suicide50procent_cap[fork_Cancun-blockchain_test_from_state_test-d1]": {
        "network": "Cancun",
        "genesisBlockHeader": {
            "parentHash": "0x0000000000000000000000000000000000000000000000000000000000000000",
            "uncleHash": "0x1dcc4de8dec75d7aab85b567b6ccd41ad312451b948a7413f0a142fd40d49347",
            "coinbase": "0x0000000000000000000000000000000000000000",
            "stateRoot": "0xf114103fd3085d87491b86820cc6f6adde2e6e8ad29878f3522cebcc683f209d",
            "transactionsTrie": "0x56e81f171bcc55a6ff8345e692c0f86e5b48e01b996cadc001622fb5e363b421",
            "receiptTrie": "0x56e81f171bcc55a6ff8345e692c0f86e5b48e01b996cadc001622fb5e363b421",
            "bloom": "0x00000000000000000000000000000000000000000000000000000000000000000000000000000000000000000000000000000000000000000000000000000000000000000000000000000000000000000000000000000000000000000000000000000000000000000000000000000000000000000000000000000000000000000000000000000000000000000000000000000000000000000000000000000000000000000000000000000000000000000000000000000000000000000000000000000000000000000000000000000000000000000000000000000000000000000000000000000000000000000000000000000000000000000000000000000000",
            "difficulty": "0x00",
            "number": "0x00",
            "gasLimit": "0x05f5e100",
            "gasUsed": "0x00",
            "timestamp": "0x00",
            "extraData": "0x00",
            "mixHash": "0x0000000000000000000000000000000000000000000000000000000000000000",
            "nonce": "0x0000000000000000",
            "baseFeePerGas": "0x0b",
            "withdrawalsRoot": "0x56e81f171bcc55a6ff8345e692c0f86e5b48e01b996cadc001622fb5e363b421",
            "blobGasUsed": "0x00",
            "excessBlobGas": "0x00",
            "parentBeaconBlockRoot": "0x0000000000000000000000000000000000000000000000000000000000000000",
            "hash": "0x2f8fa2c5eb15d8cfef360381b557334240beb251be7530d6d0eca3de23cc3873"
        },
        "pre": {
            "0x000f3df6d732807ef1319fb7b8bb8522d0beac02": {
                "nonce": "0x01",
                "balance": "0x00",
                "code": "0x3373fffffffffffffffffffffffffffffffffffffffe14604d57602036146024575f5ffd5b5f35801560495762001fff810690815414603c575f5ffd5b62001fff01545f5260205ff35b5f5ffd5b62001fff42064281555f359062001fff015500",
                "storage": {}
            },
            "0xeb201d2887816e041f6e807e804f64f3a7a226fe": {
                "nonce": "0x01",
                "balance": "0x00",
                "code": "0x",
                "storage": {}
            },
            "0xa6cc2ca5611255d50118601aa8ece6f124fc4c45": {
                "nonce": "0x00",
                "balance": "0x0de0b6b3a7640000",
                "code": "0x5a6016526001600a5560006000600060006000734ff65047ce9c85f968689e4369c10003026a41a9600035f1600b55600060015560006002556000600355600060045560006005556000600655600060075560006008555a6016510360175500",
                "storage": {
                    "0x01": "0x01",
                    "0x02": "0x01",
                    "0x03": "0x01",
                    "0x04": "0x01",
                    "0x05": "0x01",
                    "0x06": "0x01",
                    "0x07": "0x01",
                    "0x08": "0x01"
                }
            },
            "0xc4a2ca1058df329e5da4755f9921ddaf05cbaa06": {
                "nonce": "0x00",
                "balance": "0x3b9aca00",
                "code": "0x",
                "storage": {}
            },
            "0x4ff65047ce9c85f968689e4369c10003026a41a9": {
                "nonce": "0x00",
                "balance": "0x0de0b6b3a7640000",
                "code": "0x73a6cc2ca5611255d50118601aa8ece6f124fc4c45ff00",
                "storage": {}
            }
        },
        "postState": {
            "0x000f3df6d732807ef1319fb7b8bb8522d0beac02": {
                "nonce": "0x01",
                "balance": "0x00",
                "code": "0x3373fffffffffffffffffffffffffffffffffffffffe14604d57602036146024575f5ffd5b5f35801560495762001fff810690815414603c575f5ffd5b62001fff01545f5260205ff35b5f5ffd5b62001fff42064281555f359062001fff015500",
                "storage": {
                    "0x03e8": "0x03e8"
                }
            },
            "0xeb201d2887816e041f6e807e804f64f3a7a226fe": {
                "nonce": "0x01",
                "balance": "0x00",
                "code": "0x",
                "storage": {}
            },
            "0xa6cc2ca5611255d50118601aa8ece6f124fc4c45": {
                "nonce": "0x00",
                "balance": "0x1bc16d674ec80000",
                "code": "0x5a6016526001600a5560006000600060006000734ff65047ce9c85f968689e4369c10003026a41a9600035f1600b55600060015560006002556000600355600060045560006005556000600655600060075560006008555a6016510360175500",
                "storage": {
                    "0x0a": "0x01",
                    "0x0b": "0x01",
                    "0x17": "0x0166fa"
                }
            },
            "0xc4a2ca1058df329e5da4755f9921ddaf05cbaa06": {
                "nonce": "0x01",
                "balance": "0x3b8a4a7c",
                "code": "0x",
                "storage": {}
            },
            "0x4ff65047ce9c85f968689e4369c10003026a41a9": {
                "nonce": "0x00",
                "balance": "0x00",
                "code": "0x73a6cc2ca5611255d50118601aa8ece6f124fc4c45ff00",
                "storage": {}
            }
        },
        "lastblockhash": "0x3488b9d5aae25f5d2227419c8fbd4391c86be0f05045c3fddeb4f5c7d720a91c",
        "config": {
            "network": "Cancun",
            "chainid": "0x01",
            "blobSchedule": {
                "Cancun": {
                    "target": "0x03",
                    "max": "0x06",
                    "baseFeeUpdateFraction": "0x32f0ed"
                }
            }
        },
        "genesisRLP": "0xf9023cf90236a00000000000000000000000000000000000000000000000000000000000000000a01dcc4de8dec75d7aab85b567b6ccd41ad312451b948a7413f0a142fd40d49347940000000000000000000000000000000000000000a0f114103fd3085d87491b86820cc6f6adde2e6e8ad29878f3522cebcc683f209da056e81f171bcc55a6ff8345e692c0f86e5b48e01b996cadc001622fb5e363b421a056e81f171bcc55a6ff8345e692c0f86e5b48e01b996cadc001622fb5e363b421b901000000000000000000000000000000000000000000000000000000000000000000000000000000000000000000000000000000000000000000000000000000000000000000000000000000000000000000000000000000000000000000000000000000000000000000000000000000000000000000000000000000000000000000000000000000000000000000000000000000000000000000000000000000000000000000000000000000000000000000000000000000000000000000000000000000000000000000000000000000000000000000000000000000000000000000000000000000000000000000000000000000000000000000000000000000000080808405f5e100808000a000000000000000000000000000000000000000000000000000000000000000008800000000000000000ba056e81f171bcc55a6ff8345e692c0f86e5b48e01b996cadc001622fb5e363b4218080a00000000000000000000000000000000000000000000000000000000000000000c0c0c0",
        "blocks": [
            {
                "blockHeader": {
                    "parentHash": "0x2f8fa2c5eb15d8cfef360381b557334240beb251be7530d6d0eca3de23cc3873",
                    "uncleHash": "0x1dcc4de8dec75d7aab85b567b6ccd41ad312451b948a7413f0a142fd40d49347",
                    "coinbase": "0xeb201d2887816e041f6e807e804f64f3a7a226fe",
                    "stateRoot": "0x221ff57d864242162fcb42b2edd2358149c82d894420102578fea79bf6d0ddc6",
                    "transactionsTrie": "0x5dfa8f2ede83d8654934f825e970d92a20d6f41a005a492f3a1b05173c810e09",
                    "receiptTrie": "0x15f188a4bec7093ee9a54a9aac7453a9c429e5fd17c55ad593675c7cb892caba",
                    "bloom": "0x00000000000000000000000000000000000000000000000000000000000000000000000000000000000000000000000000000000000000000000000000000000000000000000000000000000000000000000000000000000000000000000000000000000000000000000000000000000000000000000000000000000000000000000000000000000000000000000000000000000000000000000000000000000000000000000000000000000000000000000000000000000000000000000000000000000000000000000000000000000000000000000000000000000000000000000000000000000000000000000000000000000000000000000000000000000",
                    "difficulty": "0x00",
                    "number": "0x01",
                    "gasLimit": "0x05f5e100",
                    "gasUsed": "0x01a65a",
                    "timestamp": "0x03e8",
                    "extraData": "0x00",
                    "mixHash": "0x0000000000000000000000000000000000000000000000000000000000020000",
                    "nonce": "0x0000000000000000",
                    "baseFeePerGas": "0x0a",
                    "withdrawalsRoot": "0x56e81f171bcc55a6ff8345e692c0f86e5b48e01b996cadc001622fb5e363b421",
                    "blobGasUsed": "0x00",
                    "excessBlobGas": "0x00",
                    "parentBeaconBlockRoot": "0x0000000000000000000000000000000000000000000000000000000000000000",
                    "hash": "0x3488b9d5aae25f5d2227419c8fbd4391c86be0f05045c3fddeb4f5c7d720a91c"
                },
                "transactions": [
                    {
                        "type": "0x00",
                        "chainId": "0x01",
                        "nonce": "0x00",
                        "gasPrice": "0x0a",
                        "gasLimit": "0x989680",
                        "to": "0xa6cc2ca5611255d50118601aa8ece6f124fc4c45",
                        "value": "0x00",
                        "data": "0x0000000000000000000000000000000000000000000000000000000000010000",
                        "v": "0x26",
                        "r": "0x8b5cf3eb8433ee4c895ec3e4f22052020cc8e3493172aaa2bc6caeb84eb815ab",
                        "s": "0x1768c954ee05d95d619adf0f24d216fbf7f1afa0db6a93fcc2f353fd1b471f01",
                        "sender": "0xc4a2ca1058df329e5da4755f9921ddaf05cbaa06"
                    }
                ],
                "uncleHeaders": [],
                "withdrawals": [],
                "receipts": [
                    {
                        "transactionHash": "0x7b6358c0d3e29831442ac1c2b750864772411818020d540f0e671063c178c2dd",
                        "type": "0x00",
                        "cumulativeGasUsed": "0x01a65a",
                        "bloom": "0x00000000000000000000000000000000000000000000000000000000000000000000000000000000000000000000000000000000000000000000000000000000000000000000000000000000000000000000000000000000000000000000000000000000000000000000000000000000000000000000000000000000000000000000000000000000000000000000000000000000000000000000000000000000000000000000000000000000000000000000000000000000000000000000000000000000000000000000000000000000000000000000000000000000000000000000000000000000000000000000000000000000000000000000000000000000",
                        "logs": [],
                        "status": true,
                        "rlp": "0xf90109018301a65ab9010000000000000000000000000000000000000000000000000000000000000000000000000000000000000000000000000000000000000000000000000000000000000000000000000000000000000000000000000000000000000000000000000000000000000000000000000000000000000000000000000000000000000000000000000000000000000000000000000000000000000000000000000000000000000000000000000000000000000000000000000000000000000000000000000000000000000000000000000000000000000000000000000000000000000000000000000000000000000000000000000000000000000000000000000000000000c0"
                    }
                ],
                "rlp": "0xf902c4f9023ba02f8fa2c5eb15d8cfef360381b557334240beb251be7530d6d0eca3de23cc3873a01dcc4de8dec75d7aab85b567b6ccd41ad312451b948a7413f0a142fd40d4934794eb201d2887816e041f6e807e804f64f3a7a226fea0221ff57d864242162fcb42b2edd2358149c82d894420102578fea79bf6d0ddc6a05dfa8f2ede83d8654934f825e970d92a20d6f41a005a492f3a1b05173c810e09a015f188a4bec7093ee9a54a9aac7453a9c429e5fd17c55ad593675c7cb892cabab901000000000000000000000000000000000000000000000000000000000000000000000000000000000000000000000000000000000000000000000000000000000000000000000000000000000000000000000000000000000000000000000000000000000000000000000000000000000000000000000000000000000000000000000000000000000000000000000000000000000000000000000000000000000000000000000000000000000000000000000000000000000000000000000000000000000000000000000000000000000000000000000000000000000000000000000000000000000000000000000000000000000000000000000000000000000080018405f5e1008301a65a8203e800a000000000000000000000000000000000000000000000000000000000000200008800000000000000000aa056e81f171bcc55a6ff8345e692c0f86e5b48e01b996cadc001622fb5e363b4218080a00000000000000000000000000000000000000000000000000000000000000000f882f880800a8398968094a6cc2ca5611255d50118601aa8ece6f124fc4c4580a0000000000000000000000000000000000000000000000000000000000001000026a08b5cf3eb8433ee4c895ec3e4f22052020cc8e3493172aaa2bc6caeb84eb815aba01768c954ee05d95d619adf0f24d216fbf7f1afa0db6a93fcc2f353fd1b471f01c0c0",
                "blocknumber": "1"
            }
        ],
        "sealEngine": "NoProof",
        "_info": {
            "hash": "0x9eb1ef4eba9c1707476333cc2e4f7cfe6ebf9c823969fafa626b2931f785d162",
            "fixture-format": "blockchain_test",
            "comment": "`execution-specs` generated test",
            "filling-transition-tool": "2.19.0",
            "description": "Test_refund_suicide50procent_cap.",
            "url": "https://github.com/ethereum/execution-specs/blob/tests-bal@v5.6.0/tests/ported_static/stRefundTest/test_refund_suicide50procent_cap.py#L29",
            "metadata": {
                "opcode_count": {}
            }
        }
    }
}