{
    "tests/ported_static/stRefundTest/test_refund_change_non_zero_storage.py::test_refund_change_non_zero_storage[fork_Cancun-blockchain_test_from_state_test]": {
        "network": "Cancun",
        "genesisBlockHeader": {
            "parentHash": "0x0000000000000000000000000000000000000000000000000000000000000000",
            "uncleHash": "0x1dcc4de8dec75d7aab85b567b6ccd41ad312451b948a7413f0a142fd40d49347",
            "coinbase": "0x0000000000000000000000000000000000000000",
            "stateRoot": "0x496288b52f57b930613b666a3f8b15d02eef736556fdf1ffd28469fac4ce058d",
            "transactionsTrie": "0x56e81f171bcc55a6ff8345e692c0f86e5b48e01b996cadc001622fb5e363b421",
            "receiptTrie": "0x56e81f171bcc55a6ff8345e692c0f86e5b48e01b996cadc001622fb5e363b421",
            "bloom": "0x00000000000000000000000000000000000000000000000000000000000000000000000000000000000000000000000000000000000000000000000000000000000000000000000000000000000000000000000000000000000000000000000000000000000000000000000000000000000000000000000000000000000000000000000000000000000000000000000000000000000000000000000000000000000000000000000000000000000000000000000000000000000000000000000000000000000000000000000000000000000000000000000000000000000000000000000000000000000000000000000000000000000000000000000000000000",
            "difficulty": "0x00",
            "number": "0x00",
            "gasLimit": "0x0f4240",
            "gasUsed": "0x00",
            "timestamp": "0x00",
            "extraData": "0x00",
            "mixHash": "0x0000000000000000000000000000000000000000000000000000000000000000",
            "nonce": "0x0000000000000000",
            "baseFeePerGas": "0x0b",
            "withdrawalsRoot": "0x56e81f171bcc55a6ff8345e692c0f86e5b48e01b996cadc001622fb5e363b421",
            "blobGasUsed": "0x00",
            "excessBlobGas": "0x00",
            "parentBeaconBlockRoot": "0x0000000000000000000000000000000000000000000000000000000000000000",
            "hash": "0x0b49bf444be1b01598a0ee54ca974ccf2af13d5b83e645d606f302b5e32da9bf"
        },
        "pre": {
            "0x000f3df6d732807ef1319fb7b8bb8522d0beac02": {
                "nonce": "0x01",
                "balance": "0x00",
                "code": "0x3373fffffffffffffffffffffffffffffffffffffffe14604d57602036146024575f5ffd5b5f35801560495762001fff810690815414603c575f5ffd5b62001fff01545f5260205ff35b5f5ffd5b62001fff42064281555f359062001fff015500",
                "storage": {}
            },
            "0xeb201d2887816e041f6e807e804f64f3a7a226fe": {
                "nonce": "0x01",
                "balance": "0x00",
                "code": "0x",
                "storage": {}
            },
            "0x904261b07d3a5f213bbd6fb9f3bb66f4fb65c7eb": {
                "nonce": "0x00",
                "balance": "0x0de0b6b3a7640000",
                "code": "0x601760015500",
                "storage": {
                    "0x01": "0x01"
                }
            },
            "0x720cdc678c4361866ff59a4307a6ece59bae06df": {
                "nonce": "0x00",
                "balance": "0x3c336080",
                "code": "0x",
                "storage": {}
            }
        },
        "postState": {
            "0x000f3df6d732807ef1319fb7b8bb8522d0beac02": {
                "nonce": "0x01",
                "balance": "0x00",
                "code": "0x3373fffffffffffffffffffffffffffffffffffffffe14604d57602036146024575f5ffd5b5f35801560495762001fff810690815414603c575f5ffd5b62001fff01545f5260205ff35b5f5ffd5b62001fff42064281555f359062001fff015500",
                "storage": {
                    "0x03e8": "0x03e8"
                }
            },
            "0xeb201d2887816e041f6e807e804f64f3a7a226fe": {
                "nonce": "0x01",
                "balance": "0x00",
                "code": "0x",
                "storage": {}
            },
            "0x904261b07d3a5f213bbd6fb9f3bb66f4fb65c7eb": {
                "nonce": "0x00",
                "balance": "0x0de0b6b3a764000a",
                "code": "0x601760015500",
                "storage": {
                    "0x01": "0x17"
                }
            },
            "0x720cdc678c4361866ff59a4307a6ece59bae06df": {
                "nonce": "0x01",
                "balance": "0x3c2f689a",
                "code": "0x",
                "storage": {}
            }
        },
        "lastblockhash": "0x46e1af5fa79687f7d7c5f5adfc637bf477974c78e6fc6388567f746008870798",
        "config": {
            "network": "Cancun",
            "chainid": "0x01",
            "blobSchedule": {
                "Cancun": {
                    "target": "0x03",
                    "max": "0x06",
                    "baseFeeUpdateFraction": "0x32f0ed"
                }
            }
        },
        "genesisRLP": "0xf9023bf90235a00000000000000000000000000000000000000000000000000000000000000000a01dcc4de8dec75d7aab85b567b6ccd41ad312451b948a7413f0a142fd40d49347940000000000000000000000000000000000000000a0496288b52f57b930613b666a3f8b15d02eef736556fdf1ffd28469fac4ce058da056e81f171bcc55a6ff8345e692c0f86e5b48e01b996cadc001622fb5e363b421a056e81f171bcc55a6ff8345e692c0f86e5b48e01b996cadc001622fb5e363b421b90100000000000000000000000000000000000000000000000000000000000000000000000000000000000000000000000000000000000000000000000000000000000000000000000000000000000000000000000000000000000000000000000000000000000000000000000000000000000000000000000000000000000000000000000000000000000000000000000000000000000000000000000000000000000000000000000000000000000000000000000000000000000000000000000000000000000000000000000000000000000000000000000000000000000000000000000000000000000000000000000000000000000000000000000000000000008080830f4240808000a000000000000000000000000000000000000000000000000000000000000000008800000000000000000ba056e81f171bcc55a6ff8345e692c0f86e5b48e01b996cadc001622fb5e363b4218080a00000000000000000000000000000000000000000000000000000000000000000c0c0c0",
        "blocks": [
            {
                "blockHeader": {
                    "parentHash": "0x0b49bf444be1b01598a0ee54ca974ccf2af13d5b83e645d606f302b5e32da9bf",
                    "uncleHash": "0x1dcc4de8dec75d7aab85b567b6ccd41ad312451b948a7413f0a142fd40d49347",
                    "coinbase": "0xeb201d2887816e041f6e807e804f64f3a7a226fe",
                    "stateRoot": "0x381980815424620f4c1ccc5077689f299e1229e3f6bef591492488c67c82d14d",
                    "transactionsTrie": "0x65ee21c043be489834140f6282629d8c823b9c73c84f3be07c431c1a49f1d6d7",
                    "receiptTrie": "0xab6d3e3083ddefb7cd463e1270c07a126b51ab736a8d8dcc95a910a73ece71e9",
                    "bloom": "0x00000000000000000000000000000000000000000000000000000000000000000000000000000000000000000000000000000000000000000000000000000000000000000000000000000000000000000000000000000000000000000000000000000000000000000000000000000000000000000000000000000000000000000000000000000000000000000000000000000000000000000000000000000000000000000000000000000000000000000000000000000000000000000000000000000000000000000000000000000000000000000000000000000000000000000000000000000000000000000000000000000000000000000000000000000000",
                    "difficulty": "0x00",
                    "number": "0x01",
                    "gasLimit": "0x0f4240",
                    "gasUsed": "0x6596",
                    "timestamp": "0x03e8",
                    "extraData": "0x00",
                    "mixHash": "0x0000000000000000000000000000000000000000000000000000000000020000",
                    "nonce": "0x0000000000000000",
                    "baseFeePerGas": "0x0a",
                    "withdrawalsRoot": "0x56e81f171bcc55a6ff8345e692c0f86e5b48e01b996cadc001622fb5e363b421",
                    "blobGasUsed": "0x00",
                    "excessBlobGas": "0x00",
                    "parentBeaconBlockRoot": "0x0000000000000000000000000000000000000000000000000000000000000000",
                    "hash": "0x46e1af5fa79687f7d7c5f5adfc637bf477974c78e6fc6388567f746008870798"
                },
                "transactions": [
                    {
                        "type": "0x00",
                        "chainId": "0x01",
                        "nonce": "0x00",
                        "gasPrice": "0x0a",
                        "gasLimit": "0x037c94",
                        "to": "0x904261b07d3a5f213bbd6fb9f3bb66f4fb65c7eb",
                        "value": "0x0a",
                        "data": "0x",
                        "v": "0x26",
                        "r": "0x75589c9c61d11310bcf895f282559f826d2e8e68aae0f108a107469fdef60a2b",
                        "s": "0x52bdf91a67fbcbea7d548590d67acf5a06478ec8f4ae0e0993abb7156f540644",
                        "sender": "0x720cdc678c4361866ff59a4307a6ece59bae06df"
                    }
                ],
                "uncleHeaders": [],
                "withdrawals": [],
                "receipts": [
                    {
                        "transactionHash": "0xf7b0bb76d9e2f8e61923dc6205f263f8cde35e83f9e13ee1b3b1b22d40abd6dc",
                        "type": "0x00",
                        "cumulativeGasUsed": "0x6596",
                        "bloom": "0x00000000000000000000000000000000000000000000000000000000000000000000000000000000000000000000000000000000000000000000000000000000000000000000000000000000000000000000000000000000000000000000000000000000000000000000000000000000000000000000000000000000000000000000000000000000000000000000000000000000000000000000000000000000000000000000000000000000000000000000000000000000000000000000000000000000000000000000000000000000000000000000000000000000000000000000000000000000000000000000000000000000000000000000000000000000",
                        "logs": [],
                        "status": true,
                        "rlp": "0xf9010801826596b9010000000000000000000000000000000000000000000000000000000000000000000000000000000000000000000000000000000000000000000000000000000000000000000000000000000000000000000000000000000000000000000000000000000000000000000000000000000000000000000000000000000000000000000000000000000000000000000000000000000000000000000000000000000000000000000000000000000000000000000000000000000000000000000000000000000000000000000000000000000000000000000000000000000000000000000000000000000000000000000000000000000000000000000000000000000000c0"
                    }
                ],
                "rlp": "0xf902a2f90239a00b49bf444be1b01598a0ee54ca974ccf2af13d5b83e645d606f302b5e32da9bfa01dcc4de8dec75d7aab85b567b6ccd41ad312451b948a7413f0a142fd40d4934794eb201d2887816e041f6e807e804f64f3a7a226fea0381980815424620f4c1ccc5077689f299e1229e3f6bef591492488c67c82d14da065ee21c043be489834140f6282629d8c823b9c73c84f3be07c431c1a49f1d6d7a0ab6d3e3083ddefb7cd463e1270c07a126b51ab736a8d8dcc95a910a73ece71e9b90100000000000000000000000000000000000000000000000000000000000000000000000000000000000000000000000000000000000000000000000000000000000000000000000000000000000000000000000000000000000000000000000000000000000000000000000000000000000000000000000000000000000000000000000000000000000000000000000000000000000000000000000000000000000000000000000000000000000000000000000000000000000000000000000000000000000000000000000000000000000000000000000000000000000000000000000000000000000000000000000000000000000000000000000000000000008001830f42408265968203e800a000000000000000000000000000000000000000000000000000000000000200008800000000000000000aa056e81f171bcc55a6ff8345e692c0f86e5b48e01b996cadc001622fb5e363b4218080a00000000000000000000000000000000000000000000000000000000000000000f862f860800a83037c9494904261b07d3a5f213bbd6fb9f3bb66f4fb65c7eb0a8026a075589c9c61d11310bcf895f282559f826d2e8e68aae0f108a107469fdef60a2ba052bdf91a67fbcbea7d548590d67acf5a06478ec8f4ae0e0993abb7156f540644c0c0",
                "blocknumber": "1"
            }
        ],
        "sealEngine": "NoProof",
        "_info": {
            "hash": "0xf6ea3162bbceabc0ba1b4883b0da86256c0b3a6f6316ebbcc58561f55359cdcf",
            "fixture-format": "blockchain_test",
            "comment": "`execution-specs` generated test",
            "filling-transition-tool": "2.19.0",
            "description": "Test_refund_change_non_zero_storage.",
            "url": "https://github.com/ethereum/execution-specs/blob/tests-bal@v5.7.0/tests/ported_static/stRefundTest/test_refund_change_non_zero_storage.py#L25",
            "metadata": {
                "opcode_count": {}
            }
        }
    }
}