{
    "tests/ported_static/stStaticCall/test_static_loop_calls_then_revert.py::test_static_loop_calls_then_revert[fork_Cancun-blockchain_test_from_state_test--g0]": {
        "network": "Cancun",
        "genesisBlockHeader": {
            "parentHash": "0x0000000000000000000000000000000000000000000000000000000000000000",
            "uncleHash": "0x1dcc4de8dec75d7aab85b567b6ccd41ad312451b948a7413f0a142fd40d49347",
            "coinbase": "0x0000000000000000000000000000000000000000",
            "stateRoot": "0x4516e99fa642a51db449f1905364d82be2900fd37054bd41529a096643f05bae",
            "transactionsTrie": "0x56e81f171bcc55a6ff8345e692c0f86e5b48e01b996cadc001622fb5e363b421",
            "receiptTrie": "0x56e81f171bcc55a6ff8345e692c0f86e5b48e01b996cadc001622fb5e363b421",
            "bloom": "0x00000000000000000000000000000000000000000000000000000000000000000000000000000000000000000000000000000000000000000000000000000000000000000000000000000000000000000000000000000000000000000000000000000000000000000000000000000000000000000000000000000000000000000000000000000000000000000000000000000000000000000000000000000000000000000000000000000000000000000000000000000000000000000000000000000000000000000000000000000000000000000000000000000000000000000000000000000000000000000000000000000000000000000000000000000000",
            "difficulty": "0x00",
            "number": "0x00",
            "gasLimit": "0x05f5e100",
            "gasUsed": "0x00",
            "timestamp": "0x00",
            "extraData": "0x00",
            "mixHash": "0x0000000000000000000000000000000000000000000000000000000000000000",
            "nonce": "0x0000000000000000",
            "baseFeePerGas": "0x0b",
            "withdrawalsRoot": "0x56e81f171bcc55a6ff8345e692c0f86e5b48e01b996cadc001622fb5e363b421",
            "blobGasUsed": "0x00",
            "excessBlobGas": "0x00",
            "parentBeaconBlockRoot": "0x0000000000000000000000000000000000000000000000000000000000000000",
            "hash": "0x9c7d1db1c2064f5a22603763b5ebdbd3931c94d73882e0fdb5800a597d1bcdf8"
        },
        "pre": {
            "0x000f3df6d732807ef1319fb7b8bb8522d0beac02": {
                "nonce": "0x01",
                "balance": "0x00",
                "code": "0x3373fffffffffffffffffffffffffffffffffffffffe14604d57602036146024575f5ffd5b5f35801560495762001fff810690815414603c575f5ffd5b62001fff01545f5260205ff35b5f5ffd5b62001fff42064281555f359062001fff015500",
                "storage": {}
            },
            "0xfaa10b404ab607779993c016cd5da73ae1f29d7e": {
                "nonce": "0x00",
                "balance": "0xe8d4a51000",
                "code": "0x",
                "storage": {}
            },
            "0xd64495cbba16d27a88b96f2a72417b957ed4cae6": {
                "nonce": "0x00",
                "balance": "0x00",
                "code": "0x61035260005260006000602060006000737a2af5cc0310371cce006e472ed3b5d68e62f8396127105a03f1600055600160015500",
                "storage": {}
            },
            "0x7a2af5cc0310371cce006e472ed3b5d68e62f839": {
                "nonce": "0x00",
                "balance": "0x00",
                "code": "0x5b60016000350360005260006000600060007359c89b27361fd637262b13489f28923c835e17b261c350fa50600051600057",
                "storage": {
                    "0x00": "0x0352"
                }
            },
            "0x59c89b27361fd637262b13489f28923c835e17b2": {
                "nonce": "0x00",
                "balance": "0x00",
                "code": "0x60005160010160005200",
                "storage": {}
            }
        },
        "postState": {
            "0x000f3df6d732807ef1319fb7b8bb8522d0beac02": {
                "nonce": "0x01",
                "balance": "0x00",
                "code": "0x3373fffffffffffffffffffffffffffffffffffffffe14604d57602036146024575f5ffd5b5f35801560495762001fff810690815414603c575f5ffd5b62001fff01545f5260205ff35b5f5ffd5b62001fff42064281555f359062001fff015500",
                "storage": {
                    "0x03e8": "0x03e8"
                }
            },
            "0xfaa10b404ab607779993c016cd5da73ae1f29d7e": {
                "nonce": "0x01",
                "balance": "0xe8cec3427e",
                "code": "0x",
                "storage": {}
            },
            "0xd64495cbba16d27a88b96f2a72417b957ed4cae6": {
                "nonce": "0x00",
                "balance": "0x00",
                "code": "0x61035260005260006000602060006000737a2af5cc0310371cce006e472ed3b5d68e62f8396127105a03f1600055600160015500",
                "storage": {
                    "0x01": "0x01"
                }
            },
            "0x7a2af5cc0310371cce006e472ed3b5d68e62f839": {
                "nonce": "0x00",
                "balance": "0x00",
                "code": "0x5b60016000350360005260006000600060007359c89b27361fd637262b13489f28923c835e17b261c350fa50600051600057",
                "storage": {
                    "0x00": "0x0352"
                }
            },
            "0x59c89b27361fd637262b13489f28923c835e17b2": {
                "nonce": "0x00",
                "balance": "0x00",
                "code": "0x60005160010160005200",
                "storage": {}
            }
        },
        "lastblockhash": "0x8073ee4292b03a5c5f84e4ed7a6a4bf4f2c9ea87f6c3a7c20b5424f2f6e6682e",
        "config": {
            "network": "Cancun",
            "chainid": "0x01",
            "blobSchedule": {
                "Cancun": {
                    "target": "0x03",
                    "max": "0x06",
                    "baseFeeUpdateFraction": "0x32f0ed"
                }
            }
        },
        "genesisRLP": "0xf9023cf90236a00000000000000000000000000000000000000000000000000000000000000000a01dcc4de8dec75d7aab85b567b6ccd41ad312451b948a7413f0a142fd40d49347940000000000000000000000000000000000000000a04516e99fa642a51db449f1905364d82be2900fd37054bd41529a096643f05baea056e81f171bcc55a6ff8345e692c0f86e5b48e01b996cadc001622fb5e363b421a056e81f171bcc55a6ff8345e692c0f86e5b48e01b996cadc001622fb5e363b421b901000000000000000000000000000000000000000000000000000000000000000000000000000000000000000000000000000000000000000000000000000000000000000000000000000000000000000000000000000000000000000000000000000000000000000000000000000000000000000000000000000000000000000000000000000000000000000000000000000000000000000000000000000000000000000000000000000000000000000000000000000000000000000000000000000000000000000000000000000000000000000000000000000000000000000000000000000000000000000000000000000000000000000000000000000000000080808405f5e100808000a000000000000000000000000000000000000000000000000000000000000000008800000000000000000ba056e81f171bcc55a6ff8345e692c0f86e5b48e01b996cadc001622fb5e363b4218080a00000000000000000000000000000000000000000000000000000000000000000c0c0c0",
        "blocks": [
            {
                "blockHeader": {
                    "parentHash": "0x9c7d1db1c2064f5a22603763b5ebdbd3931c94d73882e0fdb5800a597d1bcdf8",
                    "uncleHash": "0x1dcc4de8dec75d7aab85b567b6ccd41ad312451b948a7413f0a142fd40d49347",
                    "coinbase": "0x2adc25665018aa1fe0e6bc666dac8fc2697ff9ba",
                    "stateRoot": "0xcfc5a847a8bd5b2d1114642ce677f125ba19ef648e7e6981e0895bbd7a6f7fac",
                    "transactionsTrie": "0x89319a16b8a41f83f8d147a51ddfc1c7db33b47c65c6a9e60c1cda1c475fa82a",
                    "receiptTrie": "0x22861ace8ca226af3667b8e734447e8bf6c0ebef3ec1fa3b3dd68e2808442fe7",
                    "bloom": "0x00000000000000000000000000000000000000000000000000000000000000000000000000000000000000000000000000000000000000000000000000000000000000000000000000000000000000000000000000000000000000000000000000000000000000000000000000000000000000000000000000000000000000000000000000000000000000000000000000000000000000000000000000000000000000000000000000000000000000000000000000000000000000000000000000000000000000000000000000000000000000000000000000000000000000000000000000000000000000000000000000000000000000000000000000000000",
                    "difficulty": "0x00",
                    "number": "0x01",
                    "gasLimit": "0x05f5e100",
                    "gasUsed": "0x96948d",
                    "timestamp": "0x03e8",
                    "extraData": "0x00",
                    "mixHash": "0x0000000000000000000000000000000000000000000000000000000000020000",
                    "nonce": "0x0000000000000000",
                    "baseFeePerGas": "0x0a",
                    "withdrawalsRoot": "0x56e81f171bcc55a6ff8345e692c0f86e5b48e01b996cadc001622fb5e363b421",
                    "blobGasUsed": "0x00",
                    "excessBlobGas": "0x00",
                    "parentBeaconBlockRoot": "0x0000000000000000000000000000000000000000000000000000000000000000",
                    "hash": "0x8073ee4292b03a5c5f84e4ed7a6a4bf4f2c9ea87f6c3a7c20b5424f2f6e6682e"
                },
                "transactions": [
                    {
                        "type": "0x00",
                        "chainId": "0x01",
                        "nonce": "0x00",
                        "gasPrice": "0x0a",
                        "gasLimit": "0x989680",
                        "to": "0xd64495cbba16d27a88b96f2a72417b957ed4cae6",
                        "value": "0x00",
                        "data": "0x",
                        "v": "0x26",
                        "r": "0xebd6a8c8bda47a1ba2b15005511907a432af290e9201cab0b24ab33cfba62d0e",
                        "s": "0x3b37ffe5405118c7dbd721b382af6d1604c968591495932dc685c9a057841449",
                        "sender": "0xfaa10b404ab607779993c016cd5da73ae1f29d7e"
                    }
                ],
                "uncleHeaders": [],
                "withdrawals": [],
                "receipts": [
                    {
                        "transactionHash": "0xffc5a227862668b7156a31bb0b5b12c4803aca8403c30781d9493a0c226690b0",
                        "type": "0x00",
                        "cumulativeGasUsed": "0x96948d",
                        "bloom": "0x00000000000000000000000000000000000000000000000000000000000000000000000000000000000000000000000000000000000000000000000000000000000000000000000000000000000000000000000000000000000000000000000000000000000000000000000000000000000000000000000000000000000000000000000000000000000000000000000000000000000000000000000000000000000000000000000000000000000000000000000000000000000000000000000000000000000000000000000000000000000000000000000000000000000000000000000000000000000000000000000000000000000000000000000000000000",
                        "logs": [],
                        "status": true,
                        "rlp": "0xf90109018396948db9010000000000000000000000000000000000000000000000000000000000000000000000000000000000000000000000000000000000000000000000000000000000000000000000000000000000000000000000000000000000000000000000000000000000000000000000000000000000000000000000000000000000000000000000000000000000000000000000000000000000000000000000000000000000000000000000000000000000000000000000000000000000000000000000000000000000000000000000000000000000000000000000000000000000000000000000000000000000000000000000000000000000000000000000000000000000c0"
                    }
                ],
                "rlp": "0xf902a4f9023ba09c7d1db1c2064f5a22603763b5ebdbd3931c94d73882e0fdb5800a597d1bcdf8a01dcc4de8dec75d7aab85b567b6ccd41ad312451b948a7413f0a142fd40d49347942adc25665018aa1fe0e6bc666dac8fc2697ff9baa0cfc5a847a8bd5b2d1114642ce677f125ba19ef648e7e6981e0895bbd7a6f7faca089319a16b8a41f83f8d147a51ddfc1c7db33b47c65c6a9e60c1cda1c475fa82aa022861ace8ca226af3667b8e734447e8bf6c0ebef3ec1fa3b3dd68e2808442fe7b901000000000000000000000000000000000000000000000000000000000000000000000000000000000000000000000000000000000000000000000000000000000000000000000000000000000000000000000000000000000000000000000000000000000000000000000000000000000000000000000000000000000000000000000000000000000000000000000000000000000000000000000000000000000000000000000000000000000000000000000000000000000000000000000000000000000000000000000000000000000000000000000000000000000000000000000000000000000000000000000000000000000000000000000000000000000080018405f5e1008396948d8203e800a000000000000000000000000000000000000000000000000000000000000200008800000000000000000aa056e81f171bcc55a6ff8345e692c0f86e5b48e01b996cadc001622fb5e363b4218080a00000000000000000000000000000000000000000000000000000000000000000f862f860800a8398968094d64495cbba16d27a88b96f2a72417b957ed4cae6808026a0ebd6a8c8bda47a1ba2b15005511907a432af290e9201cab0b24ab33cfba62d0ea03b37ffe5405118c7dbd721b382af6d1604c968591495932dc685c9a057841449c0c0",
                "blocknumber": "1"
            }
        ],
        "sealEngine": "NoProof",
        "_info": {
            "hash": "0x1b4e32aba2c43e60908b219f22aa5c3dbc78d1464e90af6acc3698394f8bd744",
            "fixture-format": "blockchain_test",
            "comment": "`execution-specs` generated test",
            "filling-transition-tool": "2.19.0",
            "description": "Requires a separate pre-alloc group due to time required to fill...",
            "url": "https://github.com/ethereum/execution-specs/blob/tests-bal@v5.7.0/tests/ported_static/stStaticCall/test_static_loop_calls_then_revert.py#L29",
            "metadata": {
                "opcode_count": {}
            }
        }
    },
    "tests/ported_static/stStaticCall/test_static_loop_calls_then_revert.py::test_static_loop_calls_then_revert[fork_Cancun-blockchain_test_from_state_test--g1]": {
        "network": "Cancun",
        "genesisBlockHeader": {
            "parentHash": "0x0000000000000000000000000000000000000000000000000000000000000000",
            "uncleHash": "0x1dcc4de8dec75d7aab85b567b6ccd41ad312451b948a7413f0a142fd40d49347",
            "coinbase": "0x0000000000000000000000000000000000000000",
            "stateRoot": "0x4516e99fa642a51db449f1905364d82be2900fd37054bd41529a096643f05bae",
            "transactionsTrie": "0x56e81f171bcc55a6ff8345e692c0f86e5b48e01b996cadc001622fb5e363b421",
            "receiptTrie": "0x56e81f171bcc55a6ff8345e692c0f86e5b48e01b996cadc001622fb5e363b421",
            "bloom": "0x00000000000000000000000000000000000000000000000000000000000000000000000000000000000000000000000000000000000000000000000000000000000000000000000000000000000000000000000000000000000000000000000000000000000000000000000000000000000000000000000000000000000000000000000000000000000000000000000000000000000000000000000000000000000000000000000000000000000000000000000000000000000000000000000000000000000000000000000000000000000000000000000000000000000000000000000000000000000000000000000000000000000000000000000000000000",
            "difficulty": "0x00",
            "number": "0x00",
            "gasLimit": "0x05f5e100",
            "gasUsed": "0x00",
            "timestamp": "0x00",
            "extraData": "0x00",
            "mixHash": "0x0000000000000000000000000000000000000000000000000000000000000000",
            "nonce": "0x0000000000000000",
            "baseFeePerGas": "0x0b",
            "withdrawalsRoot": "0x56e81f171bcc55a6ff8345e692c0f86e5b48e01b996cadc001622fb5e363b421",
            "blobGasUsed": "0x00",
            "excessBlobGas": "0x00",
            "parentBeaconBlockRoot": "0x0000000000000000000000000000000000000000000000000000000000000000",
            "hash": "0x9c7d1db1c2064f5a22603763b5ebdbd3931c94d73882e0fdb5800a597d1bcdf8"
        },
        "pre": {
            "0x000f3df6d732807ef1319fb7b8bb8522d0beac02": {
                "nonce": "0x01",
                "balance": "0x00",
                "code": "0x3373fffffffffffffffffffffffffffffffffffffffe14604d57602036146024575f5ffd5b5f35801560495762001fff810690815414603c575f5ffd5b62001fff01545f5260205ff35b5f5ffd5b62001fff42064281555f359062001fff015500",
                "storage": {}
            },
            "0xfaa10b404ab607779993c016cd5da73ae1f29d7e": {
                "nonce": "0x00",
                "balance": "0xe8d4a51000",
                "code": "0x",
                "storage": {}
            },
            "0xd64495cbba16d27a88b96f2a72417b957ed4cae6": {
                "nonce": "0x00",
                "balance": "0x00",
                "code": "0x61035260005260006000602060006000737a2af5cc0310371cce006e472ed3b5d68e62f8396127105a03f1600055600160015500",
                "storage": {}
            },
            "0x7a2af5cc0310371cce006e472ed3b5d68e62f839": {
                "nonce": "0x00",
                "balance": "0x00",
                "code": "0x5b60016000350360005260006000600060007359c89b27361fd637262b13489f28923c835e17b261c350fa50600051600057",
                "storage": {
                    "0x00": "0x0352"
                }
            },
            "0x59c89b27361fd637262b13489f28923c835e17b2": {
                "nonce": "0x00",
                "balance": "0x00",
                "code": "0x60005160010160005200",
                "storage": {}
            }
        },
        "postState": {
            "0x000f3df6d732807ef1319fb7b8bb8522d0beac02": {
                "nonce": "0x01",
                "balance": "0x00",
                "code": "0x3373fffffffffffffffffffffffffffffffffffffffe14604d57602036146024575f5ffd5b5f35801560495762001fff810690815414603c575f5ffd5b62001fff01545f5260205ff35b5f5ffd5b62001fff42064281555f359062001fff015500",
                "storage": {
                    "0x03e8": "0x03e8"
                }
            },
            "0xfaa10b404ab607779993c016cd5da73ae1f29d7e": {
                "nonce": "0x01",
                "balance": "0xe8cf5976a4",
                "code": "0x",
                "storage": {}
            },
            "0xd64495cbba16d27a88b96f2a72417b957ed4cae6": {
                "nonce": "0x00",
                "balance": "0x00",
                "code": "0x61035260005260006000602060006000737a2af5cc0310371cce006e472ed3b5d68e62f8396127105a03f1600055600160015500",
                "storage": {
                    "0x01": "0x01"
                }
            },
            "0x7a2af5cc0310371cce006e472ed3b5d68e62f839": {
                "nonce": "0x00",
                "balance": "0x00",
                "code": "0x5b60016000350360005260006000600060007359c89b27361fd637262b13489f28923c835e17b261c350fa50600051600057",
                "storage": {
                    "0x00": "0x0352"
                }
            },
            "0x59c89b27361fd637262b13489f28923c835e17b2": {
                "nonce": "0x00",
                "balance": "0x00",
                "code": "0x60005160010160005200",
                "storage": {}
            }
        },
        "lastblockhash": "0x1ca4e37e24fafcd159349cc5a4d1a7ba7fdb29641f376a595f295e44891aa4f0",
        "config": {
            "network": "Cancun",
            "chainid": "0x01",
            "blobSchedule": {
                "Cancun": {
                    "target": "0x03",
                    "max": "0x06",
                    "baseFeeUpdateFraction": "0x32f0ed"
                }
            }
        },
        "genesisRLP": "0xf9023cf90236a00000000000000000000000000000000000000000000000000000000000000000a01dcc4de8dec75d7aab85b567b6ccd41ad312451b948a7413f0a142fd40d49347940000000000000000000000000000000000000000a04516e99fa642a51db449f1905364d82be2900fd37054bd41529a096643f05baea056e81f171bcc55a6ff8345e692c0f86e5b48e01b996cadc001622fb5e363b421a056e81f171bcc55a6ff8345e692c0f86e5b48e01b996cadc001622fb5e363b421b901000000000000000000000000000000000000000000000000000000000000000000000000000000000000000000000000000000000000000000000000000000000000000000000000000000000000000000000000000000000000000000000000000000000000000000000000000000000000000000000000000000000000000000000000000000000000000000000000000000000000000000000000000000000000000000000000000000000000000000000000000000000000000000000000000000000000000000000000000000000000000000000000000000000000000000000000000000000000000000000000000000000000000000000000000000000080808405f5e100808000a000000000000000000000000000000000000000000000000000000000000000008800000000000000000ba056e81f171bcc55a6ff8345e692c0f86e5b48e01b996cadc001622fb5e363b4218080a00000000000000000000000000000000000000000000000000000000000000000c0c0c0",
        "blocks": [
            {
                "blockHeader": {
                    "parentHash": "0x9c7d1db1c2064f5a22603763b5ebdbd3931c94d73882e0fdb5800a597d1bcdf8",
                    "uncleHash": "0x1dcc4de8dec75d7aab85b567b6ccd41ad312451b948a7413f0a142fd40d49347",
                    "coinbase": "0x2adc25665018aa1fe0e6bc666dac8fc2697ff9ba",
                    "stateRoot": "0x0219252282029a39461b5fd812680146a4b24e45d192285646d0c9cd60aee79b",
                    "transactionsTrie": "0x158765aa2f01d4aa12b1909be7245bc945ea7b2ccf7f40501e1f182549a9f6e2",
                    "receiptTrie": "0x1a579362439e905a65fa978aeb1bcbffa034595f8822dcd8bf7aba818f5e0034",
                    "bloom": "0x00000000000000000000000000000000000000000000000000000000000000000000000000000000000000000000000000000000000000000000000000000000000000000000000000000000000000000000000000000000000000000000000000000000000000000000000000000000000000000000000000000000000000000000000000000000000000000000000000000000000000000000000000000000000000000000000000000000000000000000000000000000000000000000000000000000000000000000000000000000000000000000000000000000000000000000000000000000000000000000000000000000000000000000000000000000",
                    "difficulty": "0x00",
                    "number": "0x01",
                    "gasLimit": "0x05f5e100",
                    "gasUsed": "0x878f56",
                    "timestamp": "0x03e8",
                    "extraData": "0x00",
                    "mixHash": "0x0000000000000000000000000000000000000000000000000000000000020000",
                    "nonce": "0x0000000000000000",
                    "baseFeePerGas": "0x0a",
                    "withdrawalsRoot": "0x56e81f171bcc55a6ff8345e692c0f86e5b48e01b996cadc001622fb5e363b421",
                    "blobGasUsed": "0x00",
                    "excessBlobGas": "0x00",
                    "parentBeaconBlockRoot": "0x0000000000000000000000000000000000000000000000000000000000000000",
                    "hash": "0x1ca4e37e24fafcd159349cc5a4d1a7ba7fdb29641f376a595f295e44891aa4f0"
                },
                "transactions": [
                    {
                        "type": "0x00",
                        "chainId": "0x01",
                        "nonce": "0x00",
                        "gasPrice": "0x0a",
                        "gasLimit": "0x895440",
                        "to": "0xd64495cbba16d27a88b96f2a72417b957ed4cae6",
                        "value": "0x00",
                        "data": "0x",
                        "v": "0x26",
                        "r": "0x878d90bb560dc46354988721e0d50ea2e76f56299742986537acb6d0a423f441",
                        "s": "0x3ae8ee4f931c1bac01508f07a08d6e89399b47a3e0774d9a67ac0a910c53977a",
                        "sender": "0xfaa10b404ab607779993c016cd5da73ae1f29d7e"
                    }
                ],
                "uncleHeaders": [],
                "withdrawals": [],
                "receipts": [
                    {
                        "transactionHash": "0xd30fcd5f6e13b562cc53b2398b7380edef30000a8be9f3bb14eb0312d6216465",
                        "type": "0x00",
                        "cumulativeGasUsed": "0x878f56",
                        "bloom": "0x00000000000000000000000000000000000000000000000000000000000000000000000000000000000000000000000000000000000000000000000000000000000000000000000000000000000000000000000000000000000000000000000000000000000000000000000000000000000000000000000000000000000000000000000000000000000000000000000000000000000000000000000000000000000000000000000000000000000000000000000000000000000000000000000000000000000000000000000000000000000000000000000000000000000000000000000000000000000000000000000000000000000000000000000000000000",
                        "logs": [],
                        "status": true,
                        "rlp": "0xf901090183878f56b9010000000000000000000000000000000000000000000000000000000000000000000000000000000000000000000000000000000000000000000000000000000000000000000000000000000000000000000000000000000000000000000000000000000000000000000000000000000000000000000000000000000000000000000000000000000000000000000000000000000000000000000000000000000000000000000000000000000000000000000000000000000000000000000000000000000000000000000000000000000000000000000000000000000000000000000000000000000000000000000000000000000000000000000000000000000000c0"
                    }
                ],
                "rlp": "0xf902a4f9023ba09c7d1db1c2064f5a22603763b5ebdbd3931c94d73882e0fdb5800a597d1bcdf8a01dcc4de8dec75d7aab85b567b6ccd41ad312451b948a7413f0a142fd40d49347942adc25665018aa1fe0e6bc666dac8fc2697ff9baa00219252282029a39461b5fd812680146a4b24e45d192285646d0c9cd60aee79ba0158765aa2f01d4aa12b1909be7245bc945ea7b2ccf7f40501e1f182549a9f6e2a01a579362439e905a65fa978aeb1bcbffa034595f8822dcd8bf7aba818f5e0034b901000000000000000000000000000000000000000000000000000000000000000000000000000000000000000000000000000000000000000000000000000000000000000000000000000000000000000000000000000000000000000000000000000000000000000000000000000000000000000000000000000000000000000000000000000000000000000000000000000000000000000000000000000000000000000000000000000000000000000000000000000000000000000000000000000000000000000000000000000000000000000000000000000000000000000000000000000000000000000000000000000000000000000000000000000000000080018405f5e10083878f568203e800a000000000000000000000000000000000000000000000000000000000000200008800000000000000000aa056e81f171bcc55a6ff8345e692c0f86e5b48e01b996cadc001622fb5e363b4218080a00000000000000000000000000000000000000000000000000000000000000000f862f860800a8389544094d64495cbba16d27a88b96f2a72417b957ed4cae6808026a0878d90bb560dc46354988721e0d50ea2e76f56299742986537acb6d0a423f441a03ae8ee4f931c1bac01508f07a08d6e89399b47a3e0774d9a67ac0a910c53977ac0c0",
                "blocknumber": "1"
            }
        ],
        "sealEngine": "NoProof",
        "_info": {
            "hash": "0x6ad317ec5f2ccc5a3c6d50092f3dbb42bb65816e8384ad3bd3b53c4a57aabdf5",
            "fixture-format": "blockchain_test",
            "comment": "`execution-specs` generated test",
            "filling-transition-tool": "2.19.0",
            "description": "Requires a separate pre-alloc group due to time required to fill...",
            "url": "https://github.com/ethereum/execution-specs/blob/tests-bal@v5.7.0/tests/ported_static/stStaticCall/test_static_loop_calls_then_revert.py#L29",
            "metadata": {
                "opcode_count": {}
            }
        }
    }
}