{
    "tests/ported_static/stSelfBalance/test_self_balance_call_types.py::test_self_balance_call_types[fork_Cancun-blockchain_test_from_state_test-d0]": {
        "network": "Cancun",
        "genesisBlockHeader": {
            "parentHash": "0x0000000000000000000000000000000000000000000000000000000000000000",
            "uncleHash": "0x1dcc4de8dec75d7aab85b567b6ccd41ad312451b948a7413f0a142fd40d49347",
            "coinbase": "0x0000000000000000000000000000000000000000",
            "stateRoot": "0x9f611517d873710cb0af375941ccf3c8d8147d36f02b1b9b54e935c36a551620",
            "transactionsTrie": "0x56e81f171bcc55a6ff8345e692c0f86e5b48e01b996cadc001622fb5e363b421",
            "receiptTrie": "0x56e81f171bcc55a6ff8345e692c0f86e5b48e01b996cadc001622fb5e363b421",
            "bloom": "0x00000000000000000000000000000000000000000000000000000000000000000000000000000000000000000000000000000000000000000000000000000000000000000000000000000000000000000000000000000000000000000000000000000000000000000000000000000000000000000000000000000000000000000000000000000000000000000000000000000000000000000000000000000000000000000000000000000000000000000000000000000000000000000000000000000000000000000000000000000000000000000000000000000000000000000000000000000000000000000000000000000000000000000000000000000000",
            "difficulty": "0x00",
            "number": "0x00",
            "gasLimit": "0x07270e00",
            "gasUsed": "0x00",
            "timestamp": "0x00",
            "extraData": "0x00",
            "mixHash": "0x0000000000000000000000000000000000000000000000000000000000000000",
            "nonce": "0x0000000000000000",
            "baseFeePerGas": "0x0b",
            "withdrawalsRoot": "0x56e81f171bcc55a6ff8345e692c0f86e5b48e01b996cadc001622fb5e363b421",
            "blobGasUsed": "0x00",
            "excessBlobGas": "0x00",
            "parentBeaconBlockRoot": "0x0000000000000000000000000000000000000000000000000000000000000000",
            "hash": "0xa557eb65059253120a94360e732d014b28576dc9beae0ebbd039e89d6de13222"
        },
        "pre": {
            "0x000f3df6d732807ef1319fb7b8bb8522d0beac02": {
                "nonce": "0x01",
                "balance": "0x00",
                "code": "0x3373fffffffffffffffffffffffffffffffffffffffe14604d57602036146024575f5ffd5b5f35801560495762001fff810690815414603c575f5ffd5b62001fff01545f5260205ff35b5f5ffd5b62001fff42064281555f359062001fff015500",
                "storage": {}
            },
            "0x1ad9bc24818784172ff393bb6f89f094d4d2ca29": {
                "nonce": "0x00",
                "balance": "0x3635c9adc5dea00000",
                "code": "0x",
                "storage": {}
            },
            "0xa590bbf1b07b00fed987724e1db1bf206c2bc37c": {
                "nonce": "0x00",
                "balance": "0x1000",
                "code": "0x3031471460115500",
                "storage": {}
            },
            "0x76bac61ee2056f42f6cc29f5400adae3e5705237": {
                "nonce": "0x00",
                "balance": "0x1100",
                "code": "0x4760215500",
                "storage": {}
            },
            "0x8537ce29429ea557e3903c255ee6554dd8d21d26": {
                "nonce": "0x00",
                "balance": "0x1200",
                "code": "0x5a475a905090036002900360315500",
                "storage": {}
            },
            "0xe1ce93b3251fb38ae74d41af9f865978c572cf63": {
                "nonce": "0x00",
                "balance": "0x1300",
                "code": "0x47806041556000600060006000600160006000f1504780604255900360435500",
                "storage": {}
            },
            "0x84bf87fbef135afea15330fdf5847eb504cff901": {
                "nonce": "0x00",
                "balance": "0x2000",
                "code": "0x60006080525b608051541560755760003560011415602c57600060006000600060006080515460155a03f1505b6000356002141560495760006000600060006080515460155a03f4505b60003560031415606857600060006000600060006080515460155a03f2505b6001608051016080526005565b00",
                "storage": {
                    "0x00": "0xa590bbf1b07b00fed987724e1db1bf206c2bc37c",
                    "0x01": "0x76bac61ee2056f42f6cc29f5400adae3e5705237",
                    "0x02": "0x8537ce29429ea557e3903c255ee6554dd8d21d26",
                    "0x03": "0xe1ce93b3251fb38ae74d41af9f865978c572cf63"
                }
            }
        },
        "postState": {
            "0x000f3df6d732807ef1319fb7b8bb8522d0beac02": {
                "nonce": "0x01",
                "balance": "0x00",
                "code": "0x3373fffffffffffffffffffffffffffffffffffffffe14604d57602036146024575f5ffd5b5f35801560495762001fff810690815414603c575f5ffd5b62001fff01545f5260205ff35b5f5ffd5b62001fff42064281555f359062001fff015500",
                "storage": {
                    "0x03e8": "0x03e8"
                }
            },
            "0x1ad9bc24818784172ff393bb6f89f094d4d2ca29": {
                "nonce": "0x01",
                "balance": "0x3635c9adc5de7fea22",
                "code": "0x",
                "storage": {}
            },
            "0xa590bbf1b07b00fed987724e1db1bf206c2bc37c": {
                "nonce": "0x00",
                "balance": "0x1000",
                "code": "0x3031471460115500",
                "storage": {
                    "0x11": "0x01"
                }
            },
            "0x76bac61ee2056f42f6cc29f5400adae3e5705237": {
                "nonce": "0x00",
                "balance": "0x1100",
                "code": "0x4760215500",
                "storage": {
                    "0x21": "0x1100"
                }
            },
            "0x8537ce29429ea557e3903c255ee6554dd8d21d26": {
                "nonce": "0x00",
                "balance": "0x1200",
                "code": "0x5a475a905090036002900360315500",
                "storage": {
                    "0x31": "0x05"
                }
            },
            "0xe1ce93b3251fb38ae74d41af9f865978c572cf63": {
                "nonce": "0x00",
                "balance": "0x12ff",
                "code": "0x47806041556000600060006000600160006000f1504780604255900360435500",
                "storage": {
                    "0x41": "0x1300",
                    "0x42": "0x12ff",
                    "0x43": "0x01"
                }
            },
            "0x84bf87fbef135afea15330fdf5847eb504cff901": {
                "nonce": "0x00",
                "balance": "0x2000",
                "code": "0x60006080525b608051541560755760003560011415602c57600060006000600060006080515460155a03f1505b6000356002141560495760006000600060006080515460155a03f4505b60003560031415606857600060006000600060006080515460155a03f2505b6001608051016080526005565b00",
                "storage": {
                    "0x00": "0xa590bbf1b07b00fed987724e1db1bf206c2bc37c",
                    "0x01": "0x76bac61ee2056f42f6cc29f5400adae3e5705237",
                    "0x02": "0x8537ce29429ea557e3903c255ee6554dd8d21d26",
                    "0x03": "0xe1ce93b3251fb38ae74d41af9f865978c572cf63"
                }
            },
            "0x0000000000000000000000000000000000000000": {
                "nonce": "0x00",
                "balance": "0x01",
                "code": "0x",
                "storage": {}
            }
        },
        "lastblockhash": "0xe16efef704a804725604f459ab12638c00932deed66d31e1b2a77695728eeabe",
        "config": {
            "network": "Cancun",
            "chainid": "0x01",
            "blobSchedule": {
                "Cancun": {
                    "target": "0x03",
                    "max": "0x06",
                    "baseFeeUpdateFraction": "0x32f0ed"
                }
            }
        },
        "genesisRLP": "0xf9023cf90236a00000000000000000000000000000000000000000000000000000000000000000a01dcc4de8dec75d7aab85b567b6ccd41ad312451b948a7413f0a142fd40d49347940000000000000000000000000000000000000000a09f611517d873710cb0af375941ccf3c8d8147d36f02b1b9b54e935c36a551620a056e81f171bcc55a6ff8345e692c0f86e5b48e01b996cadc001622fb5e363b421a056e81f171bcc55a6ff8345e692c0f86e5b48e01b996cadc001622fb5e363b421b901000000000000000000000000000000000000000000000000000000000000000000000000000000000000000000000000000000000000000000000000000000000000000000000000000000000000000000000000000000000000000000000000000000000000000000000000000000000000000000000000000000000000000000000000000000000000000000000000000000000000000000000000000000000000000000000000000000000000000000000000000000000000000000000000000000000000000000000000000000000000000000000000000000000000000000000000000000000000000000000000000000000000000000000000000000000080808407270e00808000a000000000000000000000000000000000000000000000000000000000000000008800000000000000000ba056e81f171bcc55a6ff8345e692c0f86e5b48e01b996cadc001622fb5e363b4218080a00000000000000000000000000000000000000000000000000000000000000000c0c0c0",
        "blocks": [
            {
                "blockHeader": {
                    "parentHash": "0xa557eb65059253120a94360e732d014b28576dc9beae0ebbd039e89d6de13222",
                    "uncleHash": "0x1dcc4de8dec75d7aab85b567b6ccd41ad312451b948a7413f0a142fd40d49347",
                    "coinbase": "0x2adc25665018aa1fe0e6bc666dac8fc2697ff9ba",
                    "stateRoot": "0x359f4827e497db06bc333025a01414cb9c32d4ce08845943f8b5a11c36afdadd",
                    "transactionsTrie": "0x0496a7befcba37a45d05fd97260a81f45313a88417c6396778e092634cf3628a",
                    "receiptTrie": "0x76a7ffa40a89fc2ec1c929a3265de37b996818c24fe24cf1ba5ca8625c2437a8",
                    "bloom": "0x00000000000000000000000000000000000000000000000000000000000000000000000000000000000000000000000000000000000000000000000000000000000000000000000000000000000000000000000000000000000000000000000000000000000000000000000000000000000000000000000000000000000000000000000000000000000000000000000000000000000000000000000000000000000000000000000000000000000000000000000000000000000000000000000000000000000000000000000000000000000000000000000000000000000000000000000000000000000000000000000000000000000000000000000000000000",
                    "difficulty": "0x00",
                    "number": "0x01",
                    "gasLimit": "0x07270e00",
                    "gasUsed": "0x033563",
                    "timestamp": "0x03e8",
                    "extraData": "0x00",
                    "mixHash": "0x0000000000000000000000000000000000000000000000000000000000020000",
                    "nonce": "0x0000000000000000",
                    "baseFeePerGas": "0x0a",
                    "withdrawalsRoot": "0x56e81f171bcc55a6ff8345e692c0f86e5b48e01b996cadc001622fb5e363b421",
                    "blobGasUsed": "0x00",
                    "excessBlobGas": "0x00",
                    "parentBeaconBlockRoot": "0x0000000000000000000000000000000000000000000000000000000000000000",
                    "hash": "0xe16efef704a804725604f459ab12638c00932deed66d31e1b2a77695728eeabe"
                },
                "transactions": [
                    {
                        "type": "0x00",
                        "chainId": "0x01",
                        "nonce": "0x00",
                        "gasPrice": "0x0a",
                        "gasLimit": "0x0f4240",
                        "to": "0x84bf87fbef135afea15330fdf5847eb504cff901",
                        "value": "0x00",
                        "data": "0x0000000000000000000000000000000000000000000000000000000000000001",
                        "v": "0x25",
                        "r": "0x353f8efc8a326f90f4cb48768cc1f94d7264d604d251000820ac17b56c57c038",
                        "s": "0x2beb3927ea249f70569c8d6c38088f169679c6e608fa679fff0a6e77bce33de4",
                        "sender": "0x1ad9bc24818784172ff393bb6f89f094d4d2ca29"
                    }
                ],
                "uncleHeaders": [],
                "withdrawals": [],
                "receipts": [
                    {
                        "transactionHash": "0xfb55539e96f74b39b19e2dee9736f9511bc0a0c2f0775dd64efeee6d0f310a22",
                        "type": "0x00",
                        "cumulativeGasUsed": "0x033563",
                        "bloom": "0x00000000000000000000000000000000000000000000000000000000000000000000000000000000000000000000000000000000000000000000000000000000000000000000000000000000000000000000000000000000000000000000000000000000000000000000000000000000000000000000000000000000000000000000000000000000000000000000000000000000000000000000000000000000000000000000000000000000000000000000000000000000000000000000000000000000000000000000000000000000000000000000000000000000000000000000000000000000000000000000000000000000000000000000000000000000",
                        "logs": [],
                        "status": true,
                        "rlp": "0xf901090183033563b9010000000000000000000000000000000000000000000000000000000000000000000000000000000000000000000000000000000000000000000000000000000000000000000000000000000000000000000000000000000000000000000000000000000000000000000000000000000000000000000000000000000000000000000000000000000000000000000000000000000000000000000000000000000000000000000000000000000000000000000000000000000000000000000000000000000000000000000000000000000000000000000000000000000000000000000000000000000000000000000000000000000000000000000000000000000000c0"
                    }
                ],
                "rlp": "0xf902c4f9023ba0a557eb65059253120a94360e732d014b28576dc9beae0ebbd039e89d6de13222a01dcc4de8dec75d7aab85b567b6ccd41ad312451b948a7413f0a142fd40d49347942adc25665018aa1fe0e6bc666dac8fc2697ff9baa0359f4827e497db06bc333025a01414cb9c32d4ce08845943f8b5a11c36afdadda00496a7befcba37a45d05fd97260a81f45313a88417c6396778e092634cf3628aa076a7ffa40a89fc2ec1c929a3265de37b996818c24fe24cf1ba5ca8625c2437a8b901000000000000000000000000000000000000000000000000000000000000000000000000000000000000000000000000000000000000000000000000000000000000000000000000000000000000000000000000000000000000000000000000000000000000000000000000000000000000000000000000000000000000000000000000000000000000000000000000000000000000000000000000000000000000000000000000000000000000000000000000000000000000000000000000000000000000000000000000000000000000000000000000000000000000000000000000000000000000000000000000000000000000000000000000000000000080018407270e00830335638203e800a000000000000000000000000000000000000000000000000000000000000200008800000000000000000aa056e81f171bcc55a6ff8345e692c0f86e5b48e01b996cadc001622fb5e363b4218080a00000000000000000000000000000000000000000000000000000000000000000f882f880800a830f42409484bf87fbef135afea15330fdf5847eb504cff90180a0000000000000000000000000000000000000000000000000000000000000000125a0353f8efc8a326f90f4cb48768cc1f94d7264d604d251000820ac17b56c57c038a02beb3927ea249f70569c8d6c38088f169679c6e608fa679fff0a6e77bce33de4c0c0",
                "blocknumber": "1"
            }
        ],
        "sealEngine": "NoProof",
        "_info": {
            "hash": "0x5b9ed55cbcdddea4a58dab50e2b02f7d5f0005dc43a407752ca2e959d594cdbb",
            "fixture-format": "blockchain_test",
            "comment": "`execution-specs` generated test",
            "filling-transition-tool": "2.19.0",
            "description": "SELFBALANCE tests inside CALL, DELEGATECALL, and CALLCODE.",
            "url": "https://github.com/ethereum/execution-specs/blob/tests-snobal-devnet-5@v8037.0.0/tests/ported_static/stSelfBalance/test_self_balance_call_types.py#L28",
            "metadata": {
                "opcode_count": {}
            }
        }
    },
    "tests/ported_static/stSelfBalance/test_self_balance_call_types.py::test_self_balance_call_types[fork_Cancun-blockchain_test_from_state_test-d1]": {
        "network": "Cancun",
        "genesisBlockHeader": {
            "parentHash": "0x0000000000000000000000000000000000000000000000000000000000000000",
            "uncleHash": "0x1dcc4de8dec75d7aab85b567b6ccd41ad312451b948a7413f0a142fd40d49347",
            "coinbase": "0x0000000000000000000000000000000000000000",
            "stateRoot": "0x9f611517d873710cb0af375941ccf3c8d8147d36f02b1b9b54e935c36a551620",
            "transactionsTrie": "0x56e81f171bcc55a6ff8345e692c0f86e5b48e01b996cadc001622fb5e363b421",
            "receiptTrie": "0x56e81f171bcc55a6ff8345e692c0f86e5b48e01b996cadc001622fb5e363b421",
            "bloom": "0x00000000000000000000000000000000000000000000000000000000000000000000000000000000000000000000000000000000000000000000000000000000000000000000000000000000000000000000000000000000000000000000000000000000000000000000000000000000000000000000000000000000000000000000000000000000000000000000000000000000000000000000000000000000000000000000000000000000000000000000000000000000000000000000000000000000000000000000000000000000000000000000000000000000000000000000000000000000000000000000000000000000000000000000000000000000",
            "difficulty": "0x00",
            "number": "0x00",
            "gasLimit": "0x07270e00",
            "gasUsed": "0x00",
            "timestamp": "0x00",
            "extraData": "0x00",
            "mixHash": "0x0000000000000000000000000000000000000000000000000000000000000000",
            "nonce": "0x0000000000000000",
            "baseFeePerGas": "0x0b",
            "withdrawalsRoot": "0x56e81f171bcc55a6ff8345e692c0f86e5b48e01b996cadc001622fb5e363b421",
            "blobGasUsed": "0x00",
            "excessBlobGas": "0x00",
            "parentBeaconBlockRoot": "0x0000000000000000000000000000000000000000000000000000000000000000",
            "hash": "0xa557eb65059253120a94360e732d014b28576dc9beae0ebbd039e89d6de13222"
        },
        "pre": {
            "0x000f3df6d732807ef1319fb7b8bb8522d0beac02": {
                "nonce": "0x01",
                "balance": "0x00",
                "code": "0x3373fffffffffffffffffffffffffffffffffffffffe14604d57602036146024575f5ffd5b5f35801560495762001fff810690815414603c575f5ffd5b62001fff01545f5260205ff35b5f5ffd5b62001fff42064281555f359062001fff015500",
                "storage": {}
            },
            "0x1ad9bc24818784172ff393bb6f89f094d4d2ca29": {
                "nonce": "0x00",
                "balance": "0x3635c9adc5dea00000",
                "code": "0x",
                "storage": {}
            },
            "0xa590bbf1b07b00fed987724e1db1bf206c2bc37c": {
                "nonce": "0x00",
                "balance": "0x1000",
                "code": "0x3031471460115500",
                "storage": {}
            },
            "0x76bac61ee2056f42f6cc29f5400adae3e5705237": {
                "nonce": "0x00",
                "balance": "0x1100",
                "code": "0x4760215500",
                "storage": {}
            },
            "0x8537ce29429ea557e3903c255ee6554dd8d21d26": {
                "nonce": "0x00",
                "balance": "0x1200",
                "code": "0x5a475a905090036002900360315500",
                "storage": {}
            },
            "0xe1ce93b3251fb38ae74d41af9f865978c572cf63": {
                "nonce": "0x00",
                "balance": "0x1300",
                "code": "0x47806041556000600060006000600160006000f1504780604255900360435500",
                "storage": {}
            },
            "0x84bf87fbef135afea15330fdf5847eb504cff901": {
                "nonce": "0x00",
                "balance": "0x2000",
                "code": "0x60006080525b608051541560755760003560011415602c57600060006000600060006080515460155a03f1505b6000356002141560495760006000600060006080515460155a03f4505b60003560031415606857600060006000600060006080515460155a03f2505b6001608051016080526005565b00",
                "storage": {
                    "0x00": "0xa590bbf1b07b00fed987724e1db1bf206c2bc37c",
                    "0x01": "0x76bac61ee2056f42f6cc29f5400adae3e5705237",
                    "0x02": "0x8537ce29429ea557e3903c255ee6554dd8d21d26",
                    "0x03": "0xe1ce93b3251fb38ae74d41af9f865978c572cf63"
                }
            }
        },
        "postState": {
            "0x000f3df6d732807ef1319fb7b8bb8522d0beac02": {
                "nonce": "0x01",
                "balance": "0x00",
                "code": "0x3373fffffffffffffffffffffffffffffffffffffffe14604d57602036146024575f5ffd5b5f35801560495762001fff810690815414603c575f5ffd5b62001fff01545f5260205ff35b5f5ffd5b62001fff42064281555f359062001fff015500",
                "storage": {
                    "0x03e8": "0x03e8"
                }
            },
            "0x1ad9bc24818784172ff393bb6f89f094d4d2ca29": {
                "nonce": "0x01",
                "balance": "0x3635c9adc5de7fea9a",
                "code": "0x",
                "storage": {}
            },
            "0xa590bbf1b07b00fed987724e1db1bf206c2bc37c": {
                "nonce": "0x00",
                "balance": "0x1000",
                "code": "0x3031471460115500",
                "storage": {}
            },
            "0x76bac61ee2056f42f6cc29f5400adae3e5705237": {
                "nonce": "0x00",
                "balance": "0x1100",
                "code": "0x4760215500",
                "storage": {}
            },
            "0x8537ce29429ea557e3903c255ee6554dd8d21d26": {
                "nonce": "0x00",
                "balance": "0x1200",
                "code": "0x5a475a905090036002900360315500",
                "storage": {}
            },
            "0xe1ce93b3251fb38ae74d41af9f865978c572cf63": {
                "nonce": "0x00",
                "balance": "0x1300",
                "code": "0x47806041556000600060006000600160006000f1504780604255900360435500",
                "storage": {}
            },
            "0x84bf87fbef135afea15330fdf5847eb504cff901": {
                "nonce": "0x00",
                "balance": "0x1fff",
                "code": "0x60006080525b608051541560755760003560011415602c57600060006000600060006080515460155a03f1505b6000356002141560495760006000600060006080515460155a03f4505b60003560031415606857600060006000600060006080515460155a03f2505b6001608051016080526005565b00",
                "storage": {
                    "0x00": "0xa590bbf1b07b00fed987724e1db1bf206c2bc37c",
                    "0x01": "0x76bac61ee2056f42f6cc29f5400adae3e5705237",
                    "0x02": "0x8537ce29429ea557e3903c255ee6554dd8d21d26",
                    "0x03": "0xe1ce93b3251fb38ae74d41af9f865978c572cf63",
                    "0x11": "0x01",
                    "0x21": "0x2000",
                    "0x31": "0x05",
                    "0x41": "0x2000",
                    "0x42": "0x1fff",
                    "0x43": "0x01"
                }
            },
            "0x0000000000000000000000000000000000000000": {
                "nonce": "0x00",
                "balance": "0x01",
                "code": "0x",
                "storage": {}
            }
        },
        "lastblockhash": "0xbbc755da49a212c599c756b06d4521d7456670cf223cb115f7232c8f61dc3e12",
        "config": {
            "network": "Cancun",
            "chainid": "0x01",
            "blobSchedule": {
                "Cancun": {
                    "target": "0x03",
                    "max": "0x06",
                    "baseFeeUpdateFraction": "0x32f0ed"
                }
            }
        },
        "genesisRLP": "0xf9023cf90236a00000000000000000000000000000000000000000000000000000000000000000a01dcc4de8dec75d7aab85b567b6ccd41ad312451b948a7413f0a142fd40d49347940000000000000000000000000000000000000000a09f611517d873710cb0af375941ccf3c8d8147d36f02b1b9b54e935c36a551620a056e81f171bcc55a6ff8345e692c0f86e5b48e01b996cadc001622fb5e363b421a056e81f171bcc55a6ff8345e692c0f86e5b48e01b996cadc001622fb5e363b421b901000000000000000000000000000000000000000000000000000000000000000000000000000000000000000000000000000000000000000000000000000000000000000000000000000000000000000000000000000000000000000000000000000000000000000000000000000000000000000000000000000000000000000000000000000000000000000000000000000000000000000000000000000000000000000000000000000000000000000000000000000000000000000000000000000000000000000000000000000000000000000000000000000000000000000000000000000000000000000000000000000000000000000000000000000000000080808407270e00808000a000000000000000000000000000000000000000000000000000000000000000008800000000000000000ba056e81f171bcc55a6ff8345e692c0f86e5b48e01b996cadc001622fb5e363b4218080a00000000000000000000000000000000000000000000000000000000000000000c0c0c0",
        "blocks": [
            {
                "blockHeader": {
                    "parentHash": "0xa557eb65059253120a94360e732d014b28576dc9beae0ebbd039e89d6de13222",
                    "uncleHash": "0x1dcc4de8dec75d7aab85b567b6ccd41ad312451b948a7413f0a142fd40d49347",
                    "coinbase": "0x2adc25665018aa1fe0e6bc666dac8fc2697ff9ba",
                    "stateRoot": "0x912c7d38abb2c07849e6f9736939be35d77b4cca47a0c6a3385e6f9c2c3a6b5e",
                    "transactionsTrie": "0x2d3329b008afddb8f16c26565a4a6129fcb7b4c3f4bf534933d175c0e48f0fa6",
                    "receiptTrie": "0x9175f96023f80f0da47280bb9ebcb322ebde3aea7e53b03b132560507a7d9d80",
                    "bloom": "0x00000000000000000000000000000000000000000000000000000000000000000000000000000000000000000000000000000000000000000000000000000000000000000000000000000000000000000000000000000000000000000000000000000000000000000000000000000000000000000000000000000000000000000000000000000000000000000000000000000000000000000000000000000000000000000000000000000000000000000000000000000000000000000000000000000000000000000000000000000000000000000000000000000000000000000000000000000000000000000000000000000000000000000000000000000000",
                    "difficulty": "0x00",
                    "number": "0x01",
                    "gasLimit": "0x07270e00",
                    "gasUsed": "0x033557",
                    "timestamp": "0x03e8",
                    "extraData": "0x00",
                    "mixHash": "0x0000000000000000000000000000000000000000000000000000000000020000",
                    "nonce": "0x0000000000000000",
                    "baseFeePerGas": "0x0a",
                    "withdrawalsRoot": "0x56e81f171bcc55a6ff8345e692c0f86e5b48e01b996cadc001622fb5e363b421",
                    "blobGasUsed": "0x00",
                    "excessBlobGas": "0x00",
                    "parentBeaconBlockRoot": "0x0000000000000000000000000000000000000000000000000000000000000000",
                    "hash": "0xbbc755da49a212c599c756b06d4521d7456670cf223cb115f7232c8f61dc3e12"
                },
                "transactions": [
                    {
                        "type": "0x00",
                        "chainId": "0x01",
                        "nonce": "0x00",
                        "gasPrice": "0x0a",
                        "gasLimit": "0x0f4240",
                        "to": "0x84bf87fbef135afea15330fdf5847eb504cff901",
                        "value": "0x00",
                        "data": "0x0000000000000000000000000000000000000000000000000000000000000002",
                        "v": "0x26",
                        "r": "0x6ba82e1da46c8c3d521360c19a2d19b27f9b6f7a5df2a68b4a17f586e5c7b64c",
                        "s": "0x0ddd573ee109ee496555d9dc97acb94f69d5a91ebda3f25256d706f4cc5f5fa0",
                        "sender": "0x1ad9bc24818784172ff393bb6f89f094d4d2ca29"
                    }
                ],
                "uncleHeaders": [],
                "withdrawals": [],
                "receipts": [
                    {
                        "transactionHash": "0x17bd1789c3aba91adc554d99b2fcb6548aec36a035f71f21d8838adb9f8169f8",
                        "type": "0x00",
                        "cumulativeGasUsed": "0x033557",
                        "bloom": "0x00000000000000000000000000000000000000000000000000000000000000000000000000000000000000000000000000000000000000000000000000000000000000000000000000000000000000000000000000000000000000000000000000000000000000000000000000000000000000000000000000000000000000000000000000000000000000000000000000000000000000000000000000000000000000000000000000000000000000000000000000000000000000000000000000000000000000000000000000000000000000000000000000000000000000000000000000000000000000000000000000000000000000000000000000000000",
                        "logs": [],
                        "status": true,
                        "rlp": "0xf901090183033557b9010000000000000000000000000000000000000000000000000000000000000000000000000000000000000000000000000000000000000000000000000000000000000000000000000000000000000000000000000000000000000000000000000000000000000000000000000000000000000000000000000000000000000000000000000000000000000000000000000000000000000000000000000000000000000000000000000000000000000000000000000000000000000000000000000000000000000000000000000000000000000000000000000000000000000000000000000000000000000000000000000000000000000000000000000000000000c0"
                    }
                ],
                "rlp": "0xf902c4f9023ba0a557eb65059253120a94360e732d014b28576dc9beae0ebbd039e89d6de13222a01dcc4de8dec75d7aab85b567b6ccd41ad312451b948a7413f0a142fd40d49347942adc25665018aa1fe0e6bc666dac8fc2697ff9baa0912c7d38abb2c07849e6f9736939be35d77b4cca47a0c6a3385e6f9c2c3a6b5ea02d3329b008afddb8f16c26565a4a6129fcb7b4c3f4bf534933d175c0e48f0fa6a09175f96023f80f0da47280bb9ebcb322ebde3aea7e53b03b132560507a7d9d80b901000000000000000000000000000000000000000000000000000000000000000000000000000000000000000000000000000000000000000000000000000000000000000000000000000000000000000000000000000000000000000000000000000000000000000000000000000000000000000000000000000000000000000000000000000000000000000000000000000000000000000000000000000000000000000000000000000000000000000000000000000000000000000000000000000000000000000000000000000000000000000000000000000000000000000000000000000000000000000000000000000000000000000000000000000000000080018407270e00830335578203e800a000000000000000000000000000000000000000000000000000000000000200008800000000000000000aa056e81f171bcc55a6ff8345e692c0f86e5b48e01b996cadc001622fb5e363b4218080a00000000000000000000000000000000000000000000000000000000000000000f882f880800a830f42409484bf87fbef135afea15330fdf5847eb504cff90180a0000000000000000000000000000000000000000000000000000000000000000226a06ba82e1da46c8c3d521360c19a2d19b27f9b6f7a5df2a68b4a17f586e5c7b64ca00ddd573ee109ee496555d9dc97acb94f69d5a91ebda3f25256d706f4cc5f5fa0c0c0",
                "blocknumber": "1"
            }
        ],
        "sealEngine": "NoProof",
        "_info": {
            "hash": "0x9c4eae2eb6835eb4e0b4cca0d543ae443c4745cd3455a2d814d595639c02f893",
            "fixture-format": "blockchain_test",
            "comment": "`execution-specs` generated test",
            "filling-transition-tool": "2.19.0",
            "description": "SELFBALANCE tests inside CALL, DELEGATECALL, and CALLCODE.",
            "url": "https://github.com/ethereum/execution-specs/blob/tests-snobal-devnet-5@v8037.0.0/tests/ported_static/stSelfBalance/test_self_balance_call_types.py#L28",
            "metadata": {
                "opcode_count": {}
            }
        }
    },
    "tests/ported_static/stSelfBalance/test_self_balance_call_types.py::test_self_balance_call_types[fork_Cancun-blockchain_test_from_state_test-d2]": {
        "network": "Cancun",
        "genesisBlockHeader": {
            "parentHash": "0x0000000000000000000000000000000000000000000000000000000000000000",
            "uncleHash": "0x1dcc4de8dec75d7aab85b567b6ccd41ad312451b948a7413f0a142fd40d49347",
            "coinbase": "0x0000000000000000000000000000000000000000",
            "stateRoot": "0x9f611517d873710cb0af375941ccf3c8d8147d36f02b1b9b54e935c36a551620",
            "transactionsTrie": "0x56e81f171bcc55a6ff8345e692c0f86e5b48e01b996cadc001622fb5e363b421",
            "receiptTrie": "0x56e81f171bcc55a6ff8345e692c0f86e5b48e01b996cadc001622fb5e363b421",
            "bloom": "0x00000000000000000000000000000000000000000000000000000000000000000000000000000000000000000000000000000000000000000000000000000000000000000000000000000000000000000000000000000000000000000000000000000000000000000000000000000000000000000000000000000000000000000000000000000000000000000000000000000000000000000000000000000000000000000000000000000000000000000000000000000000000000000000000000000000000000000000000000000000000000000000000000000000000000000000000000000000000000000000000000000000000000000000000000000000",
            "difficulty": "0x00",
            "number": "0x00",
            "gasLimit": "0x07270e00",
            "gasUsed": "0x00",
            "timestamp": "0x00",
            "extraData": "0x00",
            "mixHash": "0x0000000000000000000000000000000000000000000000000000000000000000",
            "nonce": "0x0000000000000000",
            "baseFeePerGas": "0x0b",
            "withdrawalsRoot": "0x56e81f171bcc55a6ff8345e692c0f86e5b48e01b996cadc001622fb5e363b421",
            "blobGasUsed": "0x00",
            "excessBlobGas": "0x00",
            "parentBeaconBlockRoot": "0x0000000000000000000000000000000000000000000000000000000000000000",
            "hash": "0xa557eb65059253120a94360e732d014b28576dc9beae0ebbd039e89d6de13222"
        },
        "pre": {
            "0x000f3df6d732807ef1319fb7b8bb8522d0beac02": {
                "nonce": "0x01",
                "balance": "0x00",
                "code": "0x3373fffffffffffffffffffffffffffffffffffffffe14604d57602036146024575f5ffd5b5f35801560495762001fff810690815414603c575f5ffd5b62001fff01545f5260205ff35b5f5ffd5b62001fff42064281555f359062001fff015500",
                "storage": {}
            },
            "0x1ad9bc24818784172ff393bb6f89f094d4d2ca29": {
                "nonce": "0x00",
                "balance": "0x3635c9adc5dea00000",
                "code": "0x",
                "storage": {}
            },
            "0xa590bbf1b07b00fed987724e1db1bf206c2bc37c": {
                "nonce": "0x00",
                "balance": "0x1000",
                "code": "0x3031471460115500",
                "storage": {}
            },
            "0x76bac61ee2056f42f6cc29f5400adae3e5705237": {
                "nonce": "0x00",
                "balance": "0x1100",
                "code": "0x4760215500",
                "storage": {}
            },
            "0x8537ce29429ea557e3903c255ee6554dd8d21d26": {
                "nonce": "0x00",
                "balance": "0x1200",
                "code": "0x5a475a905090036002900360315500",
                "storage": {}
            },
            "0xe1ce93b3251fb38ae74d41af9f865978c572cf63": {
                "nonce": "0x00",
                "balance": "0x1300",
                "code": "0x47806041556000600060006000600160006000f1504780604255900360435500",
                "storage": {}
            },
            "0x84bf87fbef135afea15330fdf5847eb504cff901": {
                "nonce": "0x00",
                "balance": "0x2000",
                "code": "0x60006080525b608051541560755760003560011415602c57600060006000600060006080515460155a03f1505b6000356002141560495760006000600060006080515460155a03f4505b60003560031415606857600060006000600060006080515460155a03f2505b6001608051016080526005565b00",
                "storage": {
                    "0x00": "0xa590bbf1b07b00fed987724e1db1bf206c2bc37c",
                    "0x01": "0x76bac61ee2056f42f6cc29f5400adae3e5705237",
                    "0x02": "0x8537ce29429ea557e3903c255ee6554dd8d21d26",
                    "0x03": "0xe1ce93b3251fb38ae74d41af9f865978c572cf63"
                }
            }
        },
        "postState": {
            "0x000f3df6d732807ef1319fb7b8bb8522d0beac02": {
                "nonce": "0x01",
                "balance": "0x00",
                "code": "0x3373fffffffffffffffffffffffffffffffffffffffe14604d57602036146024575f5ffd5b5f35801560495762001fff810690815414603c575f5ffd5b62001fff01545f5260205ff35b5f5ffd5b62001fff42064281555f359062001fff015500",
                "storage": {
                    "0x03e8": "0x03e8"
                }
            },
            "0x1ad9bc24818784172ff393bb6f89f094d4d2ca29": {
                "nonce": "0x01",
                "balance": "0x3635c9adc5de7fea22",
                "code": "0x",
                "storage": {}
            },
            "0xa590bbf1b07b00fed987724e1db1bf206c2bc37c": {
                "nonce": "0x00",
                "balance": "0x1000",
                "code": "0x3031471460115500",
                "storage": {}
            },
            "0x76bac61ee2056f42f6cc29f5400adae3e5705237": {
                "nonce": "0x00",
                "balance": "0x1100",
                "code": "0x4760215500",
                "storage": {}
            },
            "0x8537ce29429ea557e3903c255ee6554dd8d21d26": {
                "nonce": "0x00",
                "balance": "0x1200",
                "code": "0x5a475a905090036002900360315500",
                "storage": {}
            },
            "0xe1ce93b3251fb38ae74d41af9f865978c572cf63": {
                "nonce": "0x00",
                "balance": "0x1300",
                "code": "0x47806041556000600060006000600160006000f1504780604255900360435500",
                "storage": {}
            },
            "0x84bf87fbef135afea15330fdf5847eb504cff901": {
                "nonce": "0x00",
                "balance": "0x1fff",
                "code": "0x60006080525b608051541560755760003560011415602c57600060006000600060006080515460155a03f1505b6000356002141560495760006000600060006080515460155a03f4505b60003560031415606857600060006000600060006080515460155a03f2505b6001608051016080526005565b00",
                "storage": {
                    "0x00": "0xa590bbf1b07b00fed987724e1db1bf206c2bc37c",
                    "0x01": "0x76bac61ee2056f42f6cc29f5400adae3e5705237",
                    "0x02": "0x8537ce29429ea557e3903c255ee6554dd8d21d26",
                    "0x03": "0xe1ce93b3251fb38ae74d41af9f865978c572cf63",
                    "0x11": "0x01",
                    "0x21": "0x2000",
                    "0x31": "0x05",
                    "0x41": "0x2000",
                    "0x42": "0x1fff",
                    "0x43": "0x01"
                }
            },
            "0x0000000000000000000000000000000000000000": {
                "nonce": "0x00",
                "balance": "0x01",
                "code": "0x",
                "storage": {}
            }
        },
        "lastblockhash": "0x2b21d331e9832f76569d7bd4787b3a9cd658719cc6292c8d6dac4cefa5e8d0f8",
        "config": {
            "network": "Cancun",
            "chainid": "0x01",
            "blobSchedule": {
                "Cancun": {
                    "target": "0x03",
                    "max": "0x06",
                    "baseFeeUpdateFraction": "0x32f0ed"
                }
            }
        },
        "genesisRLP": "0xf9023cf90236a00000000000000000000000000000000000000000000000000000000000000000a01dcc4de8dec75d7aab85b567b6ccd41ad312451b948a7413f0a142fd40d49347940000000000000000000000000000000000000000a09f611517d873710cb0af375941ccf3c8d8147d36f02b1b9b54e935c36a551620a056e81f171bcc55a6ff8345e692c0f86e5b48e01b996cadc001622fb5e363b421a056e81f171bcc55a6ff8345e692c0f86e5b48e01b996cadc001622fb5e363b421b901000000000000000000000000000000000000000000000000000000000000000000000000000000000000000000000000000000000000000000000000000000000000000000000000000000000000000000000000000000000000000000000000000000000000000000000000000000000000000000000000000000000000000000000000000000000000000000000000000000000000000000000000000000000000000000000000000000000000000000000000000000000000000000000000000000000000000000000000000000000000000000000000000000000000000000000000000000000000000000000000000000000000000000000000000000000080808407270e00808000a000000000000000000000000000000000000000000000000000000000000000008800000000000000000ba056e81f171bcc55a6ff8345e692c0f86e5b48e01b996cadc001622fb5e363b4218080a00000000000000000000000000000000000000000000000000000000000000000c0c0c0",
        "blocks": [
            {
                "blockHeader": {
                    "parentHash": "0xa557eb65059253120a94360e732d014b28576dc9beae0ebbd039e89d6de13222",
                    "uncleHash": "0x1dcc4de8dec75d7aab85b567b6ccd41ad312451b948a7413f0a142fd40d49347",
                    "coinbase": "0x2adc25665018aa1fe0e6bc666dac8fc2697ff9ba",
                    "stateRoot": "0x99c950b125a49f1dd45a8e0008611535446cae9fe22965669fe86bd967cb438e",
                    "transactionsTrie": "0x1f9f310ab83597b72a939285909651f567de47e1f9453f7f113f9e807fc62353",
                    "receiptTrie": "0x76a7ffa40a89fc2ec1c929a3265de37b996818c24fe24cf1ba5ca8625c2437a8",
                    "bloom": "0x00000000000000000000000000000000000000000000000000000000000000000000000000000000000000000000000000000000000000000000000000000000000000000000000000000000000000000000000000000000000000000000000000000000000000000000000000000000000000000000000000000000000000000000000000000000000000000000000000000000000000000000000000000000000000000000000000000000000000000000000000000000000000000000000000000000000000000000000000000000000000000000000000000000000000000000000000000000000000000000000000000000000000000000000000000000",
                    "difficulty": "0x00",
                    "number": "0x01",
                    "gasLimit": "0x07270e00",
                    "gasUsed": "0x033563",
                    "timestamp": "0x03e8",
                    "extraData": "0x00",
                    "mixHash": "0x0000000000000000000000000000000000000000000000000000000000020000",
                    "nonce": "0x0000000000000000",
                    "baseFeePerGas": "0x0a",
                    "withdrawalsRoot": "0x56e81f171bcc55a6ff8345e692c0f86e5b48e01b996cadc001622fb5e363b421",
                    "blobGasUsed": "0x00",
                    "excessBlobGas": "0x00",
                    "parentBeaconBlockRoot": "0x0000000000000000000000000000000000000000000000000000000000000000",
                    "hash": "0x2b21d331e9832f76569d7bd4787b3a9cd658719cc6292c8d6dac4cefa5e8d0f8"
                },
                "transactions": [
                    {
                        "type": "0x00",
                        "chainId": "0x01",
                        "nonce": "0x00",
                        "gasPrice": "0x0a",
                        "gasLimit": "0x0f4240",
                        "to": "0x84bf87fbef135afea15330fdf5847eb504cff901",
                        "value": "0x00",
                        "data": "0x0000000000000000000000000000000000000000000000000000000000000003",
                        "v": "0x25",
                        "r": "0x5be5c4cebed89a4da8dc5fffb6560070405a42ad4d0ecbffed62492449d5ca30",
                        "s": "0x6596c4cacaa7ac0dc5928c7d9a98fdd296fcacd7e381d1e9e086d8ba6c6f32d9",
                        "sender": "0x1ad9bc24818784172ff393bb6f89f094d4d2ca29"
                    }
                ],
                "uncleHeaders": [],
                "withdrawals": [],
                "receipts": [
                    {
                        "transactionHash": "0x9f76c1ef13c91ca4ce7d8c974b03a7017fca668a39233dbe69ec8cb56a04c3d4",
                        "type": "0x00",
                        "cumulativeGasUsed": "0x033563",
                        "bloom": "0x00000000000000000000000000000000000000000000000000000000000000000000000000000000000000000000000000000000000000000000000000000000000000000000000000000000000000000000000000000000000000000000000000000000000000000000000000000000000000000000000000000000000000000000000000000000000000000000000000000000000000000000000000000000000000000000000000000000000000000000000000000000000000000000000000000000000000000000000000000000000000000000000000000000000000000000000000000000000000000000000000000000000000000000000000000000",
                        "logs": [],
                        "status": true,
                        "rlp": "0xf901090183033563b9010000000000000000000000000000000000000000000000000000000000000000000000000000000000000000000000000000000000000000000000000000000000000000000000000000000000000000000000000000000000000000000000000000000000000000000000000000000000000000000000000000000000000000000000000000000000000000000000000000000000000000000000000000000000000000000000000000000000000000000000000000000000000000000000000000000000000000000000000000000000000000000000000000000000000000000000000000000000000000000000000000000000000000000000000000000000c0"
                    }
                ],
                "rlp": "0xf902c4f9023ba0a557eb65059253120a94360e732d014b28576dc9beae0ebbd039e89d6de13222a01dcc4de8dec75d7aab85b567b6ccd41ad312451b948a7413f0a142fd40d49347942adc25665018aa1fe0e6bc666dac8fc2697ff9baa099c950b125a49f1dd45a8e0008611535446cae9fe22965669fe86bd967cb438ea01f9f310ab83597b72a939285909651f567de47e1f9453f7f113f9e807fc62353a076a7ffa40a89fc2ec1c929a3265de37b996818c24fe24cf1ba5ca8625c2437a8b901000000000000000000000000000000000000000000000000000000000000000000000000000000000000000000000000000000000000000000000000000000000000000000000000000000000000000000000000000000000000000000000000000000000000000000000000000000000000000000000000000000000000000000000000000000000000000000000000000000000000000000000000000000000000000000000000000000000000000000000000000000000000000000000000000000000000000000000000000000000000000000000000000000000000000000000000000000000000000000000000000000000000000000000000000000000080018407270e00830335638203e800a000000000000000000000000000000000000000000000000000000000000200008800000000000000000aa056e81f171bcc55a6ff8345e692c0f86e5b48e01b996cadc001622fb5e363b4218080a00000000000000000000000000000000000000000000000000000000000000000f882f880800a830f42409484bf87fbef135afea15330fdf5847eb504cff90180a0000000000000000000000000000000000000000000000000000000000000000325a05be5c4cebed89a4da8dc5fffb6560070405a42ad4d0ecbffed62492449d5ca30a06596c4cacaa7ac0dc5928c7d9a98fdd296fcacd7e381d1e9e086d8ba6c6f32d9c0c0",
                "blocknumber": "1"
            }
        ],
        "sealEngine": "NoProof",
        "_info": {
            "hash": "0x7da1c95b9c24ede1c537ff61be25eac7ae45248c8519125799f076b829c7e5bf",
            "fixture-format": "blockchain_test",
            "comment": "`execution-specs` generated test",
            "filling-transition-tool": "2.19.0",
            "description": "SELFBALANCE tests inside CALL, DELEGATECALL, and CALLCODE.",
            "url": "https://github.com/ethereum/execution-specs/blob/tests-snobal-devnet-5@v8037.0.0/tests/ported_static/stSelfBalance/test_self_balance_call_types.py#L28",
            "metadata": {
                "opcode_count": {}
            }
        }
    }
}