{
    "tests/ported_static/stCallDelegateCodesHomestead/test_callcallcodecallcode_011_oogm_before.py::test_callcallcodecallcode_011_oogm_before[fork_Cancun-blockchain_test_from_state_test]": {
        "network": "Cancun",
        "genesisBlockHeader": {
            "parentHash": "0x0000000000000000000000000000000000000000000000000000000000000000",
            "uncleHash": "0x1dcc4de8dec75d7aab85b567b6ccd41ad312451b948a7413f0a142fd40d49347",
            "coinbase": "0x0000000000000000000000000000000000000000",
            "stateRoot": "0xdc552e241666c697f4e9b921f740ebd5f69222d811bb61a839078e494bd41d20",
            "transactionsTrie": "0x56e81f171bcc55a6ff8345e692c0f86e5b48e01b996cadc001622fb5e363b421",
            "receiptTrie": "0x56e81f171bcc55a6ff8345e692c0f86e5b48e01b996cadc001622fb5e363b421",
            "bloom": "0x00000000000000000000000000000000000000000000000000000000000000000000000000000000000000000000000000000000000000000000000000000000000000000000000000000000000000000000000000000000000000000000000000000000000000000000000000000000000000000000000000000000000000000000000000000000000000000000000000000000000000000000000000000000000000000000000000000000000000000000000000000000000000000000000000000000000000000000000000000000000000000000000000000000000000000000000000000000000000000000000000000000000000000000000000000000",
            "difficulty": "0x00",
            "number": "0x00",
            "gasLimit": "0x01c9c380",
            "gasUsed": "0x00",
            "timestamp": "0x00",
            "extraData": "0x00",
            "mixHash": "0x0000000000000000000000000000000000000000000000000000000000000000",
            "nonce": "0x0000000000000000",
            "baseFeePerGas": "0x0b",
            "withdrawalsRoot": "0x56e81f171bcc55a6ff8345e692c0f86e5b48e01b996cadc001622fb5e363b421",
            "blobGasUsed": "0x00",
            "excessBlobGas": "0x00",
            "parentBeaconBlockRoot": "0x0000000000000000000000000000000000000000000000000000000000000000",
            "hash": "0x546b9f10c0ca76c61b4d9d7010c5ab4d74fabd91e2051ea8a0699208c292cb3b"
        },
        "pre": {
            "0x000f3df6d732807ef1319fb7b8bb8522d0beac02": {
                "nonce": "0x01",
                "balance": "0x00",
                "code": "0x3373fffffffffffffffffffffffffffffffffffffffe14604d57602036146024575f5ffd5b5f35801560495762001fff810690815414603c575f5ffd5b62001fff01545f5260205ff35b5f5ffd5b62001fff42064281555f359062001fff015500",
                "storage": {}
            },
            "0xd66f224cbd2fabb21b17bb53c56118f32f62ebd6": {
                "nonce": "0x00",
                "balance": "0x0de0b6b3a7640000",
                "code": "0x",
                "storage": {}
            },
            "0xf68e9b59ad48df3b9601ded50f7a1049113d801d": {
                "nonce": "0x00",
                "balance": "0x00",
                "code": "0x600160035500",
                "storage": {}
            },
            "0xdaa564d905e65830af3b86daf3e8e44a7a0583a7": {
                "nonce": "0x00",
                "balance": "0x00",
                "code": "0x622fffff60002050604060006040600073f68e9b59ad48df3b9601ded50f7a1049113d801d62061a80f460025500",
                "storage": {}
            },
            "0xf1720c84400e57c383703de8387e5ff10bb25b2a": {
                "nonce": "0x00",
                "balance": "0x00",
                "code": "0x604060006040600073daa564d905e65830af3b86daf3e8e44a7a0583a7620927c0f46001556001600b5500",
                "storage": {}
            },
            "0xfbdc1eae2e8a27bd80757a822a4fa93983d45c10": {
                "nonce": "0x00",
                "balance": "0x0de0b6b3a7640000",
                "code": "0x6040600060406000600073f1720c84400e57c383703de8387e5ff10bb25b2a620c3500f160005500",
                "storage": {}
            }
        },
        "postState": {
            "0x000f3df6d732807ef1319fb7b8bb8522d0beac02": {
                "nonce": "0x01",
                "balance": "0x00",
                "code": "0x3373fffffffffffffffffffffffffffffffffffffffe14604d57602036146024575f5ffd5b5f35801560495762001fff810690815414603c575f5ffd5b62001fff01545f5260205ff35b5f5ffd5b62001fff42064281555f359062001fff015500",
                "storage": {
                    "0x03e8": "0x03e8"
                }
            },
            "0xd66f224cbd2fabb21b17bb53c56118f32f62ebd6": {
                "nonce": "0x01",
                "balance": "0x0de0b6b3a6fd5c1a",
                "code": "0x",
                "storage": {}
            },
            "0xf68e9b59ad48df3b9601ded50f7a1049113d801d": {
                "nonce": "0x00",
                "balance": "0x00",
                "code": "0x600160035500",
                "storage": {}
            },
            "0xdaa564d905e65830af3b86daf3e8e44a7a0583a7": {
                "nonce": "0x00",
                "balance": "0x00",
                "code": "0x622fffff60002050604060006040600073f68e9b59ad48df3b9601ded50f7a1049113d801d62061a80f460025500",
                "storage": {}
            },
            "0xf1720c84400e57c383703de8387e5ff10bb25b2a": {
                "nonce": "0x00",
                "balance": "0x00",
                "code": "0x604060006040600073daa564d905e65830af3b86daf3e8e44a7a0583a7620927c0f46001556001600b5500",
                "storage": {
                    "0x0b": "0x01"
                }
            },
            "0xfbdc1eae2e8a27bd80757a822a4fa93983d45c10": {
                "nonce": "0x00",
                "balance": "0x0de0b6b3a7640000",
                "code": "0x6040600060406000600073f1720c84400e57c383703de8387e5ff10bb25b2a620c3500f160005500",
                "storage": {
                    "0x00": "0x01"
                }
            }
        },
        "lastblockhash": "0x0c14f071ea6d67b00d468af483783497e22b0b8b8a08b540f32d1658eed32588",
        "config": {
            "network": "Cancun",
            "chainid": "0x01",
            "blobSchedule": {
                "Cancun": {
                    "target": "0x03",
                    "max": "0x06",
                    "baseFeeUpdateFraction": "0x32f0ed"
                }
            }
        },
        "genesisRLP": "0xf9023cf90236a00000000000000000000000000000000000000000000000000000000000000000a01dcc4de8dec75d7aab85b567b6ccd41ad312451b948a7413f0a142fd40d49347940000000000000000000000000000000000000000a0dc552e241666c697f4e9b921f740ebd5f69222d811bb61a839078e494bd41d20a056e81f171bcc55a6ff8345e692c0f86e5b48e01b996cadc001622fb5e363b421a056e81f171bcc55a6ff8345e692c0f86e5b48e01b996cadc001622fb5e363b421b901000000000000000000000000000000000000000000000000000000000000000000000000000000000000000000000000000000000000000000000000000000000000000000000000000000000000000000000000000000000000000000000000000000000000000000000000000000000000000000000000000000000000000000000000000000000000000000000000000000000000000000000000000000000000000000000000000000000000000000000000000000000000000000000000000000000000000000000000000000000000000000000000000000000000000000000000000000000000000000000000000000000000000000000000000000000080808401c9c380808000a000000000000000000000000000000000000000000000000000000000000000008800000000000000000ba056e81f171bcc55a6ff8345e692c0f86e5b48e01b996cadc001622fb5e363b4218080a00000000000000000000000000000000000000000000000000000000000000000c0c0c0",
        "blocks": [
            {
                "blockHeader": {
                    "parentHash": "0x546b9f10c0ca76c61b4d9d7010c5ab4d74fabd91e2051ea8a0699208c292cb3b",
                    "uncleHash": "0x1dcc4de8dec75d7aab85b567b6ccd41ad312451b948a7413f0a142fd40d49347",
                    "coinbase": "0x2adc25665018aa1fe0e6bc666dac8fc2697ff9ba",
                    "stateRoot": "0x073657c93f1c443425fd4d4429e8d3ea69a51b88e1cef03e19315f7f3cabb449",
                    "transactionsTrie": "0xc9b302364661d4a1ad4e7a1124867ea8c2c9d356fb0cb47c1b2c8aaf8651ebca",
                    "receiptTrie": "0xf6ded63c4734847fb17e8e6776e516cfb2a93625a3b8ead678e77597e534c482",
                    "bloom": "0x00000000000000000000000000000000000000000000000000000000000000000000000000000000000000000000000000000000000000000000000000000000000000000000000000000000000000000000000000000000000000000000000000000000000000000000000000000000000000000000000000000000000000000000000000000000000000000000000000000000000000000000000000000000000000000000000000000000000000000000000000000000000000000000000000000000000000000000000000000000000000000000000000000000000000000000000000000000000000000000000000000000000000000000000000000000",
                    "difficulty": "0x00",
                    "number": "0x01",
                    "gasLimit": "0x01c9c380",
                    "gasUsed": "0x0a4397",
                    "timestamp": "0x03e8",
                    "extraData": "0x00",
                    "mixHash": "0x0000000000000000000000000000000000000000000000000000000000020000",
                    "nonce": "0x0000000000000000",
                    "baseFeePerGas": "0x0a",
                    "withdrawalsRoot": "0x56e81f171bcc55a6ff8345e692c0f86e5b48e01b996cadc001622fb5e363b421",
                    "blobGasUsed": "0x00",
                    "excessBlobGas": "0x00",
                    "parentBeaconBlockRoot": "0x0000000000000000000000000000000000000000000000000000000000000000",
                    "hash": "0x0c14f071ea6d67b00d468af483783497e22b0b8b8a08b540f32d1658eed32588"
                },
                "transactions": [
                    {
                        "type": "0x00",
                        "chainId": "0x01",
                        "nonce": "0x00",
                        "gasPrice": "0x0a",
                        "gasLimit": "0x0f4240",
                        "to": "0xfbdc1eae2e8a27bd80757a822a4fa93983d45c10",
                        "value": "0x00",
                        "data": "0x",
                        "v": "0x25",
                        "r": "0x308f153ce53937e4484ef117fb9adc539150f3a200e1c0b1b9949d371411ab7a",
                        "s": "0x48fd5d851962b4903d9a16fcd9af1c3c0d1c4a7186792f8df8706683dcd85dfe",
                        "sender": "0xd66f224cbd2fabb21b17bb53c56118f32f62ebd6"
                    }
                ],
                "uncleHeaders": [],
                "withdrawals": [],
                "receipts": [
                    {
                        "transactionHash": "0x38bf46cfeca8e8a2caf2ef7c286ee0c6d3dbdf78df207102fca1081cde890a73",
                        "type": "0x00",
                        "cumulativeGasUsed": "0x0a4397",
                        "bloom": "0x00000000000000000000000000000000000000000000000000000000000000000000000000000000000000000000000000000000000000000000000000000000000000000000000000000000000000000000000000000000000000000000000000000000000000000000000000000000000000000000000000000000000000000000000000000000000000000000000000000000000000000000000000000000000000000000000000000000000000000000000000000000000000000000000000000000000000000000000000000000000000000000000000000000000000000000000000000000000000000000000000000000000000000000000000000000",
                        "logs": [],
                        "status": true,
                        "rlp": "0xf9010901830a4397b9010000000000000000000000000000000000000000000000000000000000000000000000000000000000000000000000000000000000000000000000000000000000000000000000000000000000000000000000000000000000000000000000000000000000000000000000000000000000000000000000000000000000000000000000000000000000000000000000000000000000000000000000000000000000000000000000000000000000000000000000000000000000000000000000000000000000000000000000000000000000000000000000000000000000000000000000000000000000000000000000000000000000000000000000000000000000c0"
                    }
                ],
                "rlp": "0xf902a4f9023ba0546b9f10c0ca76c61b4d9d7010c5ab4d74fabd91e2051ea8a0699208c292cb3ba01dcc4de8dec75d7aab85b567b6ccd41ad312451b948a7413f0a142fd40d49347942adc25665018aa1fe0e6bc666dac8fc2697ff9baa0073657c93f1c443425fd4d4429e8d3ea69a51b88e1cef03e19315f7f3cabb449a0c9b302364661d4a1ad4e7a1124867ea8c2c9d356fb0cb47c1b2c8aaf8651ebcaa0f6ded63c4734847fb17e8e6776e516cfb2a93625a3b8ead678e77597e534c482b901000000000000000000000000000000000000000000000000000000000000000000000000000000000000000000000000000000000000000000000000000000000000000000000000000000000000000000000000000000000000000000000000000000000000000000000000000000000000000000000000000000000000000000000000000000000000000000000000000000000000000000000000000000000000000000000000000000000000000000000000000000000000000000000000000000000000000000000000000000000000000000000000000000000000000000000000000000000000000000000000000000000000000000000000000000000080018401c9c380830a43978203e800a000000000000000000000000000000000000000000000000000000000000200008800000000000000000aa056e81f171bcc55a6ff8345e692c0f86e5b48e01b996cadc001622fb5e363b4218080a00000000000000000000000000000000000000000000000000000000000000000f862f860800a830f424094fbdc1eae2e8a27bd80757a822a4fa93983d45c10808025a0308f153ce53937e4484ef117fb9adc539150f3a200e1c0b1b9949d371411ab7aa048fd5d851962b4903d9a16fcd9af1c3c0d1c4a7186792f8df8706683dcd85dfec0c0",
                "blocknumber": "1"
            }
        ],
        "sealEngine": "NoProof",
        "_info": {
            "hash": "0x76442020d8d6f1706faf647bace7870fbf10cf32a23182af41f62d340ee29ad9",
            "fixture-format": "blockchain_test",
            "comment": "`execution-specs` generated test",
            "filling-transition-tool": "2.19.0",
            "description": "CALL -> DELEGATE -> OOG DELEGATE -> CODE.",
            "url": "https://github.com/ethereum/execution-specs/blob/tests-snobal-devnet-5@v8037.0.0/tests/ported_static/stCallDelegateCodesHomestead/test_callcallcodecallcode_011_oogm_before.py#L24",
            "metadata": {
                "opcode_count": {}
            }
        }
    }
}