{
    "tests/constantinople/eip1052_extcodehash/test_extcodehash.py::test_extcodehash_in_init_code[fork_Shanghai-blockchain_test_from_state_test-create_opcode_CREATE2]": {
        "network": "Shanghai",
        "genesisBlockHeader": {
            "parentHash": "0x0000000000000000000000000000000000000000000000000000000000000000",
            "uncleHash": "0x1dcc4de8dec75d7aab85b567b6ccd41ad312451b948a7413f0a142fd40d49347",
            "coinbase": "0x0000000000000000000000000000000000000000",
            "stateRoot": "0xa77a55f75445515a9947fd7539298e711c9cbd1a8df45eee91a5fc44ce7a4746",
            "transactionsTrie": "0x56e81f171bcc55a6ff8345e692c0f86e5b48e01b996cadc001622fb5e363b421",
            "receiptTrie": "0x56e81f171bcc55a6ff8345e692c0f86e5b48e01b996cadc001622fb5e363b421",
            "bloom": "0x00000000000000000000000000000000000000000000000000000000000000000000000000000000000000000000000000000000000000000000000000000000000000000000000000000000000000000000000000000000000000000000000000000000000000000000000000000000000000000000000000000000000000000000000000000000000000000000000000000000000000000000000000000000000000000000000000000000000000000000000000000000000000000000000000000000000000000000000000000000000000000000000000000000000000000000000000000000000000000000000000000000000000000000000000000000",
            "difficulty": "0x00",
            "number": "0x00",
            "gasLimit": "0x07270e00",
            "gasUsed": "0x00",
            "timestamp": "0x00",
            "extraData": "0x00",
            "mixHash": "0x0000000000000000000000000000000000000000000000000000000000000000",
            "nonce": "0x0000000000000000",
            "baseFeePerGas": "0x07",
            "withdrawalsRoot": "0x56e81f171bcc55a6ff8345e692c0f86e5b48e01b996cadc001622fb5e363b421",
            "hash": "0x52d9a37b80b4c9ec15005fd6e0b5df656d91f095c3319c5c887a0f506ad131b9"
        },
        "pre": {
            "0x46e4a6a4695b41c4b337c35223562e46a3029892": {
                "nonce": "0x01",
                "balance": "0x00",
                "code": "0x11223344",
                "storage": {}
            },
            "0xe7e37c39a88e5712fab3ebb273c4c2f90cc64a61": {
                "nonce": "0x01",
                "balance": "0x00",
                "code": "0x36600060003760003660006000f500",
                "storage": {}
            },
            "0x1ad9bc24818784172ff393bb6f89f094d4d2ca29": {
                "nonce": "0x00",
                "balance": "0x3635c9adc5dea00000",
                "code": "0x",
                "storage": {}
            }
        },
        "postState": {
            "0x46e4a6a4695b41c4b337c35223562e46a3029892": {
                "nonce": "0x01",
                "balance": "0x00",
                "code": "0x11223344",
                "storage": {}
            },
            "0xe7e37c39a88e5712fab3ebb273c4c2f90cc64a61": {
                "nonce": "0x02",
                "balance": "0x00",
                "code": "0x36600060003760003660006000f500",
                "storage": {}
            },
            "0x1ad9bc24818784172ff393bb6f89f094d4d2ca29": {
                "nonce": "0x01",
                "balance": "0x3635c9adc5de909e08",
                "code": "0x",
                "storage": {}
            },
            "0xf2e34372bee0a04da62a021c1cdb2b82a99fb7c7": {
                "nonce": "0x01",
                "balance": "0x00",
                "code": "0x",
                "storage": {
                    "0x00": "0x36712aa4d0dd2f64a9ae6ac09555133a157c74ddf7c079a70c33e8b4bf70dd73",
                    "0x01": "0x04"
                }
            },
            "0x2adc25665018aa1fe0e6bc666dac8fc2697ff9ba": {
                "nonce": "0x00",
                "balance": "0x049d64",
                "code": "0x",
                "storage": {}
            }
        },
        "lastblockhash": "0x3717ab04ba2b8e0aa9cdcc5a9b3394932dd2866f0f417d4c02cbcc9c9af69d25",
        "config": {
            "network": "Shanghai",
            "chainid": "0x01"
        },
        "genesisRLP": "0xf90219f90213a00000000000000000000000000000000000000000000000000000000000000000a01dcc4de8dec75d7aab85b567b6ccd41ad312451b948a7413f0a142fd40d49347940000000000000000000000000000000000000000a0a77a55f75445515a9947fd7539298e711c9cbd1a8df45eee91a5fc44ce7a4746a056e81f171bcc55a6ff8345e692c0f86e5b48e01b996cadc001622fb5e363b421a056e81f171bcc55a6ff8345e692c0f86e5b48e01b996cadc001622fb5e363b421b901000000000000000000000000000000000000000000000000000000000000000000000000000000000000000000000000000000000000000000000000000000000000000000000000000000000000000000000000000000000000000000000000000000000000000000000000000000000000000000000000000000000000000000000000000000000000000000000000000000000000000000000000000000000000000000000000000000000000000000000000000000000000000000000000000000000000000000000000000000000000000000000000000000000000000000000000000000000000000000000000000000000000000000000000000000000080808407270e00808000a0000000000000000000000000000000000000000000000000000000000000000088000000000000000007a056e81f171bcc55a6ff8345e692c0f86e5b48e01b996cadc001622fb5e363b421c0c0c0",
        "blocks": [
            {
                "blockHeader": {
                    "parentHash": "0x52d9a37b80b4c9ec15005fd6e0b5df656d91f095c3319c5c887a0f506ad131b9",
                    "uncleHash": "0x1dcc4de8dec75d7aab85b567b6ccd41ad312451b948a7413f0a142fd40d49347",
                    "coinbase": "0x2adc25665018aa1fe0e6bc666dac8fc2697ff9ba",
                    "stateRoot": "0x6832968bd3515ffc1ceb75fc806e6b00c1b65f3d96c0db21b3a309b2de5b784e",
                    "transactionsTrie": "0x0a45f0e35b60fe11026ff8766855e4be5e6374f44af2ead1e7a91a0b5fbe425b",
                    "receiptTrie": "0x5b7cfe4150f573eff264d8231aa6713ad3cff7fc344d0b0a1a8a933643bf15df",
                    "bloom": "0x00000000000000000000000000000000000000000000000000000000000000000000000000000000000000000000000000000000000000000000000000000000000000000000000000000000000000000000000000000000000000000000000000000000000000000000000000000000000000000000000000000000000000000000000000000000000000000000000000000000000000000000000000000000000000000000000000000000000000000000000000000000000000000000000000000000000000000000000000000000000000000000000000000000000000000000000000000000000000000000000000000000000000000000000000000000",
                    "difficulty": "0x00",
                    "number": "0x01",
                    "gasLimit": "0x07270e00",
                    "gasUsed": "0x0189cc",
                    "timestamp": "0x03e8",
                    "extraData": "0x00",
                    "mixHash": "0x0000000000000000000000000000000000000000000000000000000000000000",
                    "nonce": "0x0000000000000000",
                    "baseFeePerGas": "0x07",
                    "withdrawalsRoot": "0x56e81f171bcc55a6ff8345e692c0f86e5b48e01b996cadc001622fb5e363b421",
                    "hash": "0x3717ab04ba2b8e0aa9cdcc5a9b3394932dd2866f0f417d4c02cbcc9c9af69d25"
                },
                "transactions": [
                    {
                        "type": "0x00",
                        "chainId": "0x01",
                        "nonce": "0x00",
                        "gasPrice": "0x0a",
                        "gasLimit": "0x0f4240",
                        "to": "0xe7e37c39a88e5712fab3ebb273c4c2f90cc64a61",
                        "value": "0x00",
                        "data": "0x7346e4a6a4695b41c4b337c35223562e46a30298923f6000557346e4a6a4695b41c4b337c35223562e46a30298923b60015560006000f3",
                        "v": "0x25",
                        "r": "0x19342f0f2e821a1ef5637844951ef804afe4d9b52d4569023bf08313f118be52",
                        "s": "0x3c2f5f234e95286b42ad34893d08b482fa18601ed8cbff45374eac289f7d42e6",
                        "sender": "0x1ad9bc24818784172ff393bb6f89f094d4d2ca29"
                    }
                ],
                "uncleHeaders": [],
                "withdrawals": [],
                "receipts": [
                    {
                        "transactionHash": "0x786a8232aa5e5adfa14adf320aec4b9538a746ebca91a1625cf9ddb639d835f2",
                        "type": "0x00",
                        "cumulativeGasUsed": "0x0189cc",
                        "bloom": "0x00000000000000000000000000000000000000000000000000000000000000000000000000000000000000000000000000000000000000000000000000000000000000000000000000000000000000000000000000000000000000000000000000000000000000000000000000000000000000000000000000000000000000000000000000000000000000000000000000000000000000000000000000000000000000000000000000000000000000000000000000000000000000000000000000000000000000000000000000000000000000000000000000000000000000000000000000000000000000000000000000000000000000000000000000000000",
                        "logs": [],
                        "status": true,
                        "rlp": "0xf9010901830189ccb9010000000000000000000000000000000000000000000000000000000000000000000000000000000000000000000000000000000000000000000000000000000000000000000000000000000000000000000000000000000000000000000000000000000000000000000000000000000000000000000000000000000000000000000000000000000000000000000000000000000000000000000000000000000000000000000000000000000000000000000000000000000000000000000000000000000000000000000000000000000000000000000000000000000000000000000000000000000000000000000000000000000000000000000000000000000000c0"
                    }
                ],
                "rlp": "0xf902b8f90218a052d9a37b80b4c9ec15005fd6e0b5df656d91f095c3319c5c887a0f506ad131b9a01dcc4de8dec75d7aab85b567b6ccd41ad312451b948a7413f0a142fd40d49347942adc25665018aa1fe0e6bc666dac8fc2697ff9baa06832968bd3515ffc1ceb75fc806e6b00c1b65f3d96c0db21b3a309b2de5b784ea00a45f0e35b60fe11026ff8766855e4be5e6374f44af2ead1e7a91a0b5fbe425ba05b7cfe4150f573eff264d8231aa6713ad3cff7fc344d0b0a1a8a933643bf15dfb901000000000000000000000000000000000000000000000000000000000000000000000000000000000000000000000000000000000000000000000000000000000000000000000000000000000000000000000000000000000000000000000000000000000000000000000000000000000000000000000000000000000000000000000000000000000000000000000000000000000000000000000000000000000000000000000000000000000000000000000000000000000000000000000000000000000000000000000000000000000000000000000000000000000000000000000000000000000000000000000000000000000000000000000000000000000080018407270e00830189cc8203e800a0000000000000000000000000000000000000000000000000000000000000000088000000000000000007a056e81f171bcc55a6ff8345e692c0f86e5b48e01b996cadc001622fb5e363b421f899f897800a830f424094e7e37c39a88e5712fab3ebb273c4c2f90cc64a6180b77346e4a6a4695b41c4b337c35223562e46a30298923f6000557346e4a6a4695b41c4b337c35223562e46a30298923b60015560006000f325a019342f0f2e821a1ef5637844951ef804afe4d9b52d4569023bf08313f118be52a03c2f5f234e95286b42ad34893d08b482fa18601ed8cbff45374eac289f7d42e6c0c0",
                "blocknumber": "1"
            }
        ],
        "sealEngine": "NoProof",
        "_info": {
            "hash": "0xfbd67462081c2d9381fec4abe87e6cdbee338eac4e01dc6477b4a0e2a4a278fb",
            "fixture-format": "blockchain_test",
            "comment": "`execution-specs` generated test",
            "filling-transition-tool": "2.19.0",
            "description": "Test EXTCODEHASH/EXTCODESIZE of an external account during init code.\n\nThe init code queries EXTCODEHASH and EXTCODESIZE of a pre-existing\ncontract and stores the results. With a create transaction the checks\nrun in the top-level init code; with CREATE/CREATE2 they run in a\ncontract-initiated creation.",
            "url": "https://github.com/ethereum/execution-specs/blob/tests-bal@v5.6.1/tests/constantinople/eip1052_extcodehash/test_extcodehash.py#L968",
            "metadata": {
                "opcode_count": {}
            },
            "reference-spec": "https://github.com/ethereum/EIPs/blob/master/EIPS/eip-1052.md",
            "reference-spec-version": "2dcbc7ce1563e9624e137e9d447374600af876fa"
        }
    },
    "tests/constantinople/eip1052_extcodehash/test_extcodehash.py::test_extcodehash_in_init_code[fork_Shanghai-blockchain_test_from_state_test-create_opcode_CREATE]": {
        "network": "Shanghai",
        "genesisBlockHeader": {
            "parentHash": "0x0000000000000000000000000000000000000000000000000000000000000000",
            "uncleHash": "0x1dcc4de8dec75d7aab85b567b6ccd41ad312451b948a7413f0a142fd40d49347",
            "coinbase": "0x0000000000000000000000000000000000000000",
            "stateRoot": "0x162cd8de5876d321add945065e26977b0d1dc87fcdf078d821f5a1cba4aa08de",
            "transactionsTrie": "0x56e81f171bcc55a6ff8345e692c0f86e5b48e01b996cadc001622fb5e363b421",
            "receiptTrie": "0x56e81f171bcc55a6ff8345e692c0f86e5b48e01b996cadc001622fb5e363b421",
            "bloom": "0x00000000000000000000000000000000000000000000000000000000000000000000000000000000000000000000000000000000000000000000000000000000000000000000000000000000000000000000000000000000000000000000000000000000000000000000000000000000000000000000000000000000000000000000000000000000000000000000000000000000000000000000000000000000000000000000000000000000000000000000000000000000000000000000000000000000000000000000000000000000000000000000000000000000000000000000000000000000000000000000000000000000000000000000000000000000",
            "difficulty": "0x00",
            "number": "0x00",
            "gasLimit": "0x07270e00",
            "gasUsed": "0x00",
            "timestamp": "0x00",
            "extraData": "0x00",
            "mixHash": "0x0000000000000000000000000000000000000000000000000000000000000000",
            "nonce": "0x0000000000000000",
            "baseFeePerGas": "0x07",
            "withdrawalsRoot": "0x56e81f171bcc55a6ff8345e692c0f86e5b48e01b996cadc001622fb5e363b421",
            "hash": "0x1ac3f13bd883d82addbf707509dc3da141a2fce92e29c34b980f3667da890d41"
        },
        "pre": {
            "0x46e4a6a4695b41c4b337c35223562e46a3029892": {
                "nonce": "0x01",
                "balance": "0x00",
                "code": "0x11223344",
                "storage": {}
            },
            "0x920b80d1e41446e87a14a2fe0f6b503cd91afe93": {
                "nonce": "0x01",
                "balance": "0x00",
                "code": "0x3660006000373660006000f000",
                "storage": {}
            },
            "0x1ad9bc24818784172ff393bb6f89f094d4d2ca29": {
                "nonce": "0x00",
                "balance": "0x3635c9adc5dea00000",
                "code": "0x",
                "storage": {}
            }
        },
        "postState": {
            "0x46e4a6a4695b41c4b337c35223562e46a3029892": {
                "nonce": "0x01",
                "balance": "0x00",
                "code": "0x11223344",
                "storage": {}
            },
            "0x920b80d1e41446e87a14a2fe0f6b503cd91afe93": {
                "nonce": "0x02",
                "balance": "0x00",
                "code": "0x3660006000373660006000f000",
                "storage": {}
            },
            "0x1ad9bc24818784172ff393bb6f89f094d4d2ca29": {
                "nonce": "0x01",
                "balance": "0x3635c9adc5de909e9e",
                "code": "0x",
                "storage": {}
            },
            "0xe62af3f0b87739c4995bbcbac9c7f769a084ae92": {
                "nonce": "0x01",
                "balance": "0x00",
                "code": "0x",
                "storage": {
                    "0x00": "0x36712aa4d0dd2f64a9ae6ac09555133a157c74ddf7c079a70c33e8b4bf70dd73",
                    "0x01": "0x04"
                }
            },
            "0x2adc25665018aa1fe0e6bc666dac8fc2697ff9ba": {
                "nonce": "0x00",
                "balance": "0x049d37",
                "code": "0x",
                "storage": {}
            }
        },
        "lastblockhash": "0xd63519bf05390ebbc84b2123c354badd97759f770d9b6424f329307fca088442",
        "config": {
            "network": "Shanghai",
            "chainid": "0x01"
        },
        "genesisRLP": "0xf90219f90213a00000000000000000000000000000000000000000000000000000000000000000a01dcc4de8dec75d7aab85b567b6ccd41ad312451b948a7413f0a142fd40d49347940000000000000000000000000000000000000000a0162cd8de5876d321add945065e26977b0d1dc87fcdf078d821f5a1cba4aa08dea056e81f171bcc55a6ff8345e692c0f86e5b48e01b996cadc001622fb5e363b421a056e81f171bcc55a6ff8345e692c0f86e5b48e01b996cadc001622fb5e363b421b901000000000000000000000000000000000000000000000000000000000000000000000000000000000000000000000000000000000000000000000000000000000000000000000000000000000000000000000000000000000000000000000000000000000000000000000000000000000000000000000000000000000000000000000000000000000000000000000000000000000000000000000000000000000000000000000000000000000000000000000000000000000000000000000000000000000000000000000000000000000000000000000000000000000000000000000000000000000000000000000000000000000000000000000000000000000080808407270e00808000a0000000000000000000000000000000000000000000000000000000000000000088000000000000000007a056e81f171bcc55a6ff8345e692c0f86e5b48e01b996cadc001622fb5e363b421c0c0c0",
        "blocks": [
            {
                "blockHeader": {
                    "parentHash": "0x1ac3f13bd883d82addbf707509dc3da141a2fce92e29c34b980f3667da890d41",
                    "uncleHash": "0x1dcc4de8dec75d7aab85b567b6ccd41ad312451b948a7413f0a142fd40d49347",
                    "coinbase": "0x2adc25665018aa1fe0e6bc666dac8fc2697ff9ba",
                    "stateRoot": "0x2f2d28aea83a2e0e712f21ca57a243e38a78cf3afb2527d486b28057d1ba77b7",
                    "transactionsTrie": "0xebe67d0d08e16f9952bb3200b67ef2022778122f58076ffbee797ac1eda3d1ee",
                    "receiptTrie": "0xf0deef0668d73bb371cb851328371fe87d9d8bacbb83885cd7c9ef42fc5648ea",
                    "bloom": "0x00000000000000000000000000000000000000000000000000000000000000000000000000000000000000000000000000000000000000000000000000000000000000000000000000000000000000000000000000000000000000000000000000000000000000000000000000000000000000000000000000000000000000000000000000000000000000000000000000000000000000000000000000000000000000000000000000000000000000000000000000000000000000000000000000000000000000000000000000000000000000000000000000000000000000000000000000000000000000000000000000000000000000000000000000000000",
                    "difficulty": "0x00",
                    "number": "0x01",
                    "gasLimit": "0x07270e00",
                    "gasUsed": "0x0189bd",
                    "timestamp": "0x03e8",
                    "extraData": "0x00",
                    "mixHash": "0x0000000000000000000000000000000000000000000000000000000000000000",
                    "nonce": "0x0000000000000000",
                    "baseFeePerGas": "0x07",
                    "withdrawalsRoot": "0x56e81f171bcc55a6ff8345e692c0f86e5b48e01b996cadc001622fb5e363b421",
                    "hash": "0xd63519bf05390ebbc84b2123c354badd97759f770d9b6424f329307fca088442"
                },
                "transactions": [
                    {
                        "type": "0x00",
                        "chainId": "0x01",
                        "nonce": "0x00",
                        "gasPrice": "0x0a",
                        "gasLimit": "0x0f4240",
                        "to": "0x920b80d1e41446e87a14a2fe0f6b503cd91afe93",
                        "value": "0x00",
                        "data": "0x7346e4a6a4695b41c4b337c35223562e46a30298923f6000557346e4a6a4695b41c4b337c35223562e46a30298923b60015560006000f3",
                        "v": "0x25",
                        "r": "0xa18f48f260ba70c53223055440ebec8c8a30c090e451cd7b4a2e6bc7b041aba3",
                        "s": "0x1a0bc813e6266029d6a5d5de4728514874cb34eb6dfb6bc5aafa2ce896f53b35",
                        "sender": "0x1ad9bc24818784172ff393bb6f89f094d4d2ca29"
                    }
                ],
                "uncleHeaders": [],
                "withdrawals": [],
                "receipts": [
                    {
                        "transactionHash": "0xe09b691e5fda0e9addd730cf7c9460950ae25fce27f04c135c7d382b737210a2",
                        "type": "0x00",
                        "cumulativeGasUsed": "0x0189bd",
                        "bloom": "0x00000000000000000000000000000000000000000000000000000000000000000000000000000000000000000000000000000000000000000000000000000000000000000000000000000000000000000000000000000000000000000000000000000000000000000000000000000000000000000000000000000000000000000000000000000000000000000000000000000000000000000000000000000000000000000000000000000000000000000000000000000000000000000000000000000000000000000000000000000000000000000000000000000000000000000000000000000000000000000000000000000000000000000000000000000000",
                        "logs": [],
                        "status": true,
                        "rlp": "0xf9010901830189bdb9010000000000000000000000000000000000000000000000000000000000000000000000000000000000000000000000000000000000000000000000000000000000000000000000000000000000000000000000000000000000000000000000000000000000000000000000000000000000000000000000000000000000000000000000000000000000000000000000000000000000000000000000000000000000000000000000000000000000000000000000000000000000000000000000000000000000000000000000000000000000000000000000000000000000000000000000000000000000000000000000000000000000000000000000000000000000c0"
                    }
                ],
                "rlp": "0xf902b8f90218a01ac3f13bd883d82addbf707509dc3da141a2fce92e29c34b980f3667da890d41a01dcc4de8dec75d7aab85b567b6ccd41ad312451b948a7413f0a142fd40d49347942adc25665018aa1fe0e6bc666dac8fc2697ff9baa02f2d28aea83a2e0e712f21ca57a243e38a78cf3afb2527d486b28057d1ba77b7a0ebe67d0d08e16f9952bb3200b67ef2022778122f58076ffbee797ac1eda3d1eea0f0deef0668d73bb371cb851328371fe87d9d8bacbb83885cd7c9ef42fc5648eab901000000000000000000000000000000000000000000000000000000000000000000000000000000000000000000000000000000000000000000000000000000000000000000000000000000000000000000000000000000000000000000000000000000000000000000000000000000000000000000000000000000000000000000000000000000000000000000000000000000000000000000000000000000000000000000000000000000000000000000000000000000000000000000000000000000000000000000000000000000000000000000000000000000000000000000000000000000000000000000000000000000000000000000000000000000000080018407270e00830189bd8203e800a0000000000000000000000000000000000000000000000000000000000000000088000000000000000007a056e81f171bcc55a6ff8345e692c0f86e5b48e01b996cadc001622fb5e363b421f899f897800a830f424094920b80d1e41446e87a14a2fe0f6b503cd91afe9380b77346e4a6a4695b41c4b337c35223562e46a30298923f6000557346e4a6a4695b41c4b337c35223562e46a30298923b60015560006000f325a0a18f48f260ba70c53223055440ebec8c8a30c090e451cd7b4a2e6bc7b041aba3a01a0bc813e6266029d6a5d5de4728514874cb34eb6dfb6bc5aafa2ce896f53b35c0c0",
                "blocknumber": "1"
            }
        ],
        "sealEngine": "NoProof",
        "_info": {
            "hash": "0x5839130192555cc437fd7b45cc256757a217ed900874fbd3bed0e6750cdec4ef",
            "fixture-format": "blockchain_test",
            "comment": "`execution-specs` generated test",
            "filling-transition-tool": "2.19.0",
            "description": "Test EXTCODEHASH/EXTCODESIZE of an external account during init code.\n\nThe init code queries EXTCODEHASH and EXTCODESIZE of a pre-existing\ncontract and stores the results. With a create transaction the checks\nrun in the top-level init code; with CREATE/CREATE2 they run in a\ncontract-initiated creation.",
            "url": "https://github.com/ethereum/execution-specs/blob/tests-bal@v5.6.1/tests/constantinople/eip1052_extcodehash/test_extcodehash.py#L968",
            "metadata": {
                "opcode_count": {}
            },
            "reference-spec": "https://github.com/ethereum/EIPs/blob/master/EIPS/eip-1052.md",
            "reference-spec-version": "2dcbc7ce1563e9624e137e9d447374600af876fa"
        }
    },
    "tests/constantinople/eip1052_extcodehash/test_extcodehash.py::test_extcodehash_in_init_code[fork_Shanghai-blockchain_test_from_state_test-create_tx]": {
        "network": "Shanghai",
        "genesisBlockHeader": {
            "parentHash": "0x0000000000000000000000000000000000000000000000000000000000000000",
            "uncleHash": "0x1dcc4de8dec75d7aab85b567b6ccd41ad312451b948a7413f0a142fd40d49347",
            "coinbase": "0x0000000000000000000000000000000000000000",
            "stateRoot": "0x3067fca27a35a6e460a89ca559ab39a219a8adda826254aa5b0724ff39004518",
            "transactionsTrie": "0x56e81f171bcc55a6ff8345e692c0f86e5b48e01b996cadc001622fb5e363b421",
            "receiptTrie": "0x56e81f171bcc55a6ff8345e692c0f86e5b48e01b996cadc001622fb5e363b421",
            "bloom": "0x00000000000000000000000000000000000000000000000000000000000000000000000000000000000000000000000000000000000000000000000000000000000000000000000000000000000000000000000000000000000000000000000000000000000000000000000000000000000000000000000000000000000000000000000000000000000000000000000000000000000000000000000000000000000000000000000000000000000000000000000000000000000000000000000000000000000000000000000000000000000000000000000000000000000000000000000000000000000000000000000000000000000000000000000000000000",
            "difficulty": "0x00",
            "number": "0x00",
            "gasLimit": "0x07270e00",
            "gasUsed": "0x00",
            "timestamp": "0x00",
            "extraData": "0x00",
            "mixHash": "0x0000000000000000000000000000000000000000000000000000000000000000",
            "nonce": "0x0000000000000000",
            "baseFeePerGas": "0x07",
            "withdrawalsRoot": "0x56e81f171bcc55a6ff8345e692c0f86e5b48e01b996cadc001622fb5e363b421",
            "hash": "0xa71dfa8303e064c7d6e421a89ed98b540a942641a5ba99c90fb9dd17abf2271d"
        },
        "pre": {
            "0x46e4a6a4695b41c4b337c35223562e46a3029892": {
                "nonce": "0x01",
                "balance": "0x00",
                "code": "0x11223344",
                "storage": {}
            },
            "0x1ad9bc24818784172ff393bb6f89f094d4d2ca29": {
                "nonce": "0x00",
                "balance": "0x3635c9adc5dea00000",
                "code": "0x",
                "storage": {}
            }
        },
        "postState": {
            "0x46e4a6a4695b41c4b337c35223562e46a3029892": {
                "nonce": "0x01",
                "balance": "0x00",
                "code": "0x11223344",
                "storage": {}
            },
            "0x1ad9bc24818784172ff393bb6f89f094d4d2ca29": {
                "nonce": "0x01",
                "balance": "0x3635c9adc5de909fd4",
                "code": "0x",
                "storage": {}
            },
            "0x36bdd8886852759e2046e3bf4c290d5c29c81d82": {
                "nonce": "0x01",
                "balance": "0x00",
                "code": "0x",
                "storage": {
                    "0x00": "0x36712aa4d0dd2f64a9ae6ac09555133a157c74ddf7c079a70c33e8b4bf70dd73",
                    "0x01": "0x04"
                }
            },
            "0x2adc25665018aa1fe0e6bc666dac8fc2697ff9ba": {
                "nonce": "0x00",
                "balance": "0x049cda",
                "code": "0x",
                "storage": {}
            }
        },
        "lastblockhash": "0x0885e1e90237468cb4aa764ddf6de6409ca9e16d14403229393f0e265711951f",
        "config": {
            "network": "Shanghai",
            "chainid": "0x01"
        },
        "genesisRLP": "0xf90219f90213a00000000000000000000000000000000000000000000000000000000000000000a01dcc4de8dec75d7aab85b567b6ccd41ad312451b948a7413f0a142fd40d49347940000000000000000000000000000000000000000a03067fca27a35a6e460a89ca559ab39a219a8adda826254aa5b0724ff39004518a056e81f171bcc55a6ff8345e692c0f86e5b48e01b996cadc001622fb5e363b421a056e81f171bcc55a6ff8345e692c0f86e5b48e01b996cadc001622fb5e363b421b901000000000000000000000000000000000000000000000000000000000000000000000000000000000000000000000000000000000000000000000000000000000000000000000000000000000000000000000000000000000000000000000000000000000000000000000000000000000000000000000000000000000000000000000000000000000000000000000000000000000000000000000000000000000000000000000000000000000000000000000000000000000000000000000000000000000000000000000000000000000000000000000000000000000000000000000000000000000000000000000000000000000000000000000000000000000080808407270e00808000a0000000000000000000000000000000000000000000000000000000000000000088000000000000000007a056e81f171bcc55a6ff8345e692c0f86e5b48e01b996cadc001622fb5e363b421c0c0c0",
        "blocks": [
            {
                "blockHeader": {
                    "parentHash": "0xa71dfa8303e064c7d6e421a89ed98b540a942641a5ba99c90fb9dd17abf2271d",
                    "uncleHash": "0x1dcc4de8dec75d7aab85b567b6ccd41ad312451b948a7413f0a142fd40d49347",
                    "coinbase": "0x2adc25665018aa1fe0e6bc666dac8fc2697ff9ba",
                    "stateRoot": "0xe6ff184d2fd2d6bdcf4ece1e0e93826ba4db6f394fa2d22dd315a3ca71040620",
                    "transactionsTrie": "0x13c01167bfacde30b951af083b676ab43f077f3cbaa531d4d9994b3c295bf243",
                    "receiptTrie": "0x8ece036155c19ef7a6116c91a4dd29dc7342b37b3691694f051e2394f43ee9a1",
                    "bloom": "0x00000000000000000000000000000000000000000000000000000000000000000000000000000000000000000000000000000000000000000000000000000000000000000000000000000000000000000000000000000000000000000000000000000000000000000000000000000000000000000000000000000000000000000000000000000000000000000000000000000000000000000000000000000000000000000000000000000000000000000000000000000000000000000000000000000000000000000000000000000000000000000000000000000000000000000000000000000000000000000000000000000000000000000000000000000000",
                    "difficulty": "0x00",
                    "number": "0x01",
                    "gasLimit": "0x07270e00",
                    "gasUsed": "0x01899e",
                    "timestamp": "0x03e8",
                    "extraData": "0x00",
                    "mixHash": "0x0000000000000000000000000000000000000000000000000000000000000000",
                    "nonce": "0x0000000000000000",
                    "baseFeePerGas": "0x07",
                    "withdrawalsRoot": "0x56e81f171bcc55a6ff8345e692c0f86e5b48e01b996cadc001622fb5e363b421",
                    "hash": "0x0885e1e90237468cb4aa764ddf6de6409ca9e16d14403229393f0e265711951f"
                },
                "transactions": [
                    {
                        "type": "0x00",
                        "chainId": "0x01",
                        "nonce": "0x00",
                        "gasPrice": "0x0a",
                        "gasLimit": "0x0f4240",
                        "value": "0x00",
                        "data": "0x7346e4a6a4695b41c4b337c35223562e46a30298923f6000557346e4a6a4695b41c4b337c35223562e46a30298923b60015560006000f3",
                        "v": "0x26",
                        "r": "0x3767788943680ca2b2f30b9bb59b8709c5a6257c42fc1739d9be6cd0e4fa91e4",
                        "s": "0x33614e3e7d11a37a8864302d9dc6689f39c654854a9997540c422ecc07d85011",
                        "sender": "0x1ad9bc24818784172ff393bb6f89f094d4d2ca29",
                        "to": ""
                    }
                ],
                "uncleHeaders": [],
                "withdrawals": [],
                "receipts": [
                    {
                        "transactionHash": "0x4ee7ee0f9b98ee7bd993b019395f93c8320ba0ad4f62158970fe2fda05989143",
                        "type": "0x00",
                        "cumulativeGasUsed": "0x01899e",
                        "bloom": "0x00000000000000000000000000000000000000000000000000000000000000000000000000000000000000000000000000000000000000000000000000000000000000000000000000000000000000000000000000000000000000000000000000000000000000000000000000000000000000000000000000000000000000000000000000000000000000000000000000000000000000000000000000000000000000000000000000000000000000000000000000000000000000000000000000000000000000000000000000000000000000000000000000000000000000000000000000000000000000000000000000000000000000000000000000000000",
                        "logs": [],
                        "status": true,
                        "rlp": "0xf90109018301899eb9010000000000000000000000000000000000000000000000000000000000000000000000000000000000000000000000000000000000000000000000000000000000000000000000000000000000000000000000000000000000000000000000000000000000000000000000000000000000000000000000000000000000000000000000000000000000000000000000000000000000000000000000000000000000000000000000000000000000000000000000000000000000000000000000000000000000000000000000000000000000000000000000000000000000000000000000000000000000000000000000000000000000000000000000000000000000c0"
                    }
                ],
                "rlp": "0xf902a4f90218a0a71dfa8303e064c7d6e421a89ed98b540a942641a5ba99c90fb9dd17abf2271da01dcc4de8dec75d7aab85b567b6ccd41ad312451b948a7413f0a142fd40d49347942adc25665018aa1fe0e6bc666dac8fc2697ff9baa0e6ff184d2fd2d6bdcf4ece1e0e93826ba4db6f394fa2d22dd315a3ca71040620a013c01167bfacde30b951af083b676ab43f077f3cbaa531d4d9994b3c295bf243a08ece036155c19ef7a6116c91a4dd29dc7342b37b3691694f051e2394f43ee9a1b901000000000000000000000000000000000000000000000000000000000000000000000000000000000000000000000000000000000000000000000000000000000000000000000000000000000000000000000000000000000000000000000000000000000000000000000000000000000000000000000000000000000000000000000000000000000000000000000000000000000000000000000000000000000000000000000000000000000000000000000000000000000000000000000000000000000000000000000000000000000000000000000000000000000000000000000000000000000000000000000000000000000000000000000000000000000080018407270e008301899e8203e800a0000000000000000000000000000000000000000000000000000000000000000088000000000000000007a056e81f171bcc55a6ff8345e692c0f86e5b48e01b996cadc001622fb5e363b421f885f883800a830f42408080b77346e4a6a4695b41c4b337c35223562e46a30298923f6000557346e4a6a4695b41c4b337c35223562e46a30298923b60015560006000f326a03767788943680ca2b2f30b9bb59b8709c5a6257c42fc1739d9be6cd0e4fa91e4a033614e3e7d11a37a8864302d9dc6689f39c654854a9997540c422ecc07d85011c0c0",
                "blocknumber": "1"
            }
        ],
        "sealEngine": "NoProof",
        "_info": {
            "hash": "0x86924d53a4118d193d4f568adac3c8c6d18c8d258412daac1448b89995cee3e0",
            "fixture-format": "blockchain_test",
            "comment": "`execution-specs` generated test",
            "filling-transition-tool": "2.19.0",
            "description": "Test EXTCODEHASH/EXTCODESIZE of an external account during init code.\n\nThe init code queries EXTCODEHASH and EXTCODESIZE of a pre-existing\ncontract and stores the results. With a create transaction the checks\nrun in the top-level init code; with CREATE/CREATE2 they run in a\ncontract-initiated creation.",
            "url": "https://github.com/ethereum/execution-specs/blob/tests-bal@v5.6.1/tests/constantinople/eip1052_extcodehash/test_extcodehash.py#L968",
            "metadata": {
                "opcode_count": {}
            },
            "reference-spec": "https://github.com/ethereum/EIPs/blob/master/EIPS/eip-1052.md",
            "reference-spec-version": "2dcbc7ce1563e9624e137e9d447374600af876fa"
        }
    }
}