{
    "tests/constantinople/eip1052_extcodehash/test_extcodehash.py::test_extcodehash_in_init_code[fork_Shanghai-blockchain_test_from_state_test-create_opcode_CREATE2]": {
        "network": "Shanghai",
        "genesisBlockHeader": {
            "parentHash": "0x0000000000000000000000000000000000000000000000000000000000000000",
            "uncleHash": "0x1dcc4de8dec75d7aab85b567b6ccd41ad312451b948a7413f0a142fd40d49347",
            "coinbase": "0x0000000000000000000000000000000000000000",
            "stateRoot": "0xa77a55f75445515a9947fd7539298e711c9cbd1a8df45eee91a5fc44ce7a4746",
            "transactionsTrie": "0x56e81f171bcc55a6ff8345e692c0f86e5b48e01b996cadc001622fb5e363b421",
            "receiptTrie": "0x56e81f171bcc55a6ff8345e692c0f86e5b48e01b996cadc001622fb5e363b421",
            "bloom": "0x00000000000000000000000000000000000000000000000000000000000000000000000000000000000000000000000000000000000000000000000000000000000000000000000000000000000000000000000000000000000000000000000000000000000000000000000000000000000000000000000000000000000000000000000000000000000000000000000000000000000000000000000000000000000000000000000000000000000000000000000000000000000000000000000000000000000000000000000000000000000000000000000000000000000000000000000000000000000000000000000000000000000000000000000000000000",
            "difficulty": "0x00",
            "number": "0x00",
            "gasLimit": "0x07270e00",
            "gasUsed": "0x00",
            "timestamp": "0x00",
            "extraData": "0x00",
            "mixHash": "0x0000000000000000000000000000000000000000000000000000000000000000",
            "nonce": "0x0000000000000000",
            "baseFeePerGas": "0x07",
            "withdrawalsRoot": "0x56e81f171bcc55a6ff8345e692c0f86e5b48e01b996cadc001622fb5e363b421",
            "hash": "0x52d9a37b80b4c9ec15005fd6e0b5df656d91f095c3319c5c887a0f506ad131b9"
        },
        "pre": {
            "0x46e4a6a4695b41c4b337c35223562e46a3029892": {
                "nonce": "0x01",
                "balance": "0x00",
                "code": "0x11223344",
                "storage": {}
            },
            "0xe7e37c39a88e5712fab3ebb273c4c2f90cc64a61": {
                "nonce": "0x01",
                "balance": "0x00",
                "code": "0x36600060003760003660006000f500",
                "storage": {}
            },
            "0x1ad9bc24818784172ff393bb6f89f094d4d2ca29": {
                "nonce": "0x00",
                "balance": "0x3635c9adc5dea00000",
                "code": "0x",
                "storage": {}
            }
        },
        "postState": {
            "0x46e4a6a4695b41c4b337c35223562e46a3029892": {
                "nonce": "0x01",
                "balance": "0x00",
                "code": "0x11223344",
                "storage": {}
            },
            "0xe7e37c39a88e5712fab3ebb273c4c2f90cc64a61": {
                "nonce": "0x02",
                "balance": "0x00",
                "code": "0x36600060003760003660006000f500",
                "storage": {}
            },
            "0x1ad9bc24818784172ff393bb6f89f094d4d2ca29": {
                "nonce": "0x01",
                "balance": "0x3635c9adc5de909e08",
                "code": "0x",
                "storage": {}
            },
            "0xf2e34372bee0a04da62a021c1cdb2b82a99fb7c7": {
                "nonce": "0x01",
                "balance": "0x00",
                "code": "0x",
                "storage": {
                    "0x00": "0x36712aa4d0dd2f64a9ae6ac09555133a157c74ddf7c079a70c33e8b4bf70dd73",
                    "0x01": "0x04"
                }
            },
            "0x2adc25665018aa1fe0e6bc666dac8fc2697ff9ba": {
                "nonce": "0x00",
                "balance": "0x049d64",
                "code": "0x",
                "storage": {}
            }
        },
        "lastblockhash": "0x21df2bbe56130fe76f9ef629e1bcce713c19926cfae7a3b07d67b63fb11afcd7",
        "config": {
            "network": "Shanghai",
            "chainid": "0x01"
        },
        "genesisRLP": "0xf90219f90213a00000000000000000000000000000000000000000000000000000000000000000a01dcc4de8dec75d7aab85b567b6ccd41ad312451b948a7413f0a142fd40d49347940000000000000000000000000000000000000000a0a77a55f75445515a9947fd7539298e711c9cbd1a8df45eee91a5fc44ce7a4746a056e81f171bcc55a6ff8345e692c0f86e5b48e01b996cadc001622fb5e363b421a056e81f171bcc55a6ff8345e692c0f86e5b48e01b996cadc001622fb5e363b421b901000000000000000000000000000000000000000000000000000000000000000000000000000000000000000000000000000000000000000000000000000000000000000000000000000000000000000000000000000000000000000000000000000000000000000000000000000000000000000000000000000000000000000000000000000000000000000000000000000000000000000000000000000000000000000000000000000000000000000000000000000000000000000000000000000000000000000000000000000000000000000000000000000000000000000000000000000000000000000000000000000000000000000000000000000000000080808407270e00808000a0000000000000000000000000000000000000000000000000000000000000000088000000000000000007a056e81f171bcc55a6ff8345e692c0f86e5b48e01b996cadc001622fb5e363b421c0c0c0",
        "blocks": [
            {
                "blockHeader": {
                    "parentHash": "0x52d9a37b80b4c9ec15005fd6e0b5df656d91f095c3319c5c887a0f506ad131b9",
                    "uncleHash": "0x1dcc4de8dec75d7aab85b567b6ccd41ad312451b948a7413f0a142fd40d49347",
                    "coinbase": "0x2adc25665018aa1fe0e6bc666dac8fc2697ff9ba",
                    "stateRoot": "0x6832968bd3515ffc1ceb75fc806e6b00c1b65f3d96c0db21b3a309b2de5b784e",
                    "transactionsTrie": "0x3304853dfee93cd011f70d12fea7cd48a7338b4e61d22c677bd97ad57bf2227d",
                    "receiptTrie": "0x5b7cfe4150f573eff264d8231aa6713ad3cff7fc344d0b0a1a8a933643bf15df",
                    "bloom": "0x00000000000000000000000000000000000000000000000000000000000000000000000000000000000000000000000000000000000000000000000000000000000000000000000000000000000000000000000000000000000000000000000000000000000000000000000000000000000000000000000000000000000000000000000000000000000000000000000000000000000000000000000000000000000000000000000000000000000000000000000000000000000000000000000000000000000000000000000000000000000000000000000000000000000000000000000000000000000000000000000000000000000000000000000000000000",
                    "difficulty": "0x00",
                    "number": "0x01",
                    "gasLimit": "0x07270e00",
                    "gasUsed": "0x0189cc",
                    "timestamp": "0x03e8",
                    "extraData": "0x00",
                    "mixHash": "0x0000000000000000000000000000000000000000000000000000000000000000",
                    "nonce": "0x0000000000000000",
                    "baseFeePerGas": "0x07",
                    "withdrawalsRoot": "0x56e81f171bcc55a6ff8345e692c0f86e5b48e01b996cadc001622fb5e363b421",
                    "hash": "0x21df2bbe56130fe76f9ef629e1bcce713c19926cfae7a3b07d67b63fb11afcd7"
                },
                "transactions": [
                    {
                        "type": "0x00",
                        "chainId": "0x01",
                        "nonce": "0x00",
                        "gasPrice": "0x0a",
                        "gasLimit": "0x061a80",
                        "to": "0xe7e37c39a88e5712fab3ebb273c4c2f90cc64a61",
                        "value": "0x00",
                        "data": "0x7346e4a6a4695b41c4b337c35223562e46a30298923f6000557346e4a6a4695b41c4b337c35223562e46a30298923b60015560006000f3",
                        "v": "0x26",
                        "r": "0xf8bc5b340d8295d61ade7af0c98a42796430c2309b9d8c58a19173aeeac5f36d",
                        "s": "0x1f95b7d44c132b037e82e47edd59ab9bd9834249e13cbb54667459783af5b292",
                        "sender": "0x1ad9bc24818784172ff393bb6f89f094d4d2ca29"
                    }
                ],
                "uncleHeaders": [],
                "withdrawals": [],
                "receipts": [
                    {
                        "transactionHash": "0x73e9817424d14b5973f35d645c553f42c98af12deee1bd53af557b1337258a91",
                        "type": "0x00",
                        "cumulativeGasUsed": "0x0189cc",
                        "bloom": "0x00000000000000000000000000000000000000000000000000000000000000000000000000000000000000000000000000000000000000000000000000000000000000000000000000000000000000000000000000000000000000000000000000000000000000000000000000000000000000000000000000000000000000000000000000000000000000000000000000000000000000000000000000000000000000000000000000000000000000000000000000000000000000000000000000000000000000000000000000000000000000000000000000000000000000000000000000000000000000000000000000000000000000000000000000000000",
                        "logs": [],
                        "status": true,
                        "rlp": "0xf9010901830189ccb9010000000000000000000000000000000000000000000000000000000000000000000000000000000000000000000000000000000000000000000000000000000000000000000000000000000000000000000000000000000000000000000000000000000000000000000000000000000000000000000000000000000000000000000000000000000000000000000000000000000000000000000000000000000000000000000000000000000000000000000000000000000000000000000000000000000000000000000000000000000000000000000000000000000000000000000000000000000000000000000000000000000000000000000000000000000000c0"
                    }
                ],
                "rlp": "0xf902b8f90218a052d9a37b80b4c9ec15005fd6e0b5df656d91f095c3319c5c887a0f506ad131b9a01dcc4de8dec75d7aab85b567b6ccd41ad312451b948a7413f0a142fd40d49347942adc25665018aa1fe0e6bc666dac8fc2697ff9baa06832968bd3515ffc1ceb75fc806e6b00c1b65f3d96c0db21b3a309b2de5b784ea03304853dfee93cd011f70d12fea7cd48a7338b4e61d22c677bd97ad57bf2227da05b7cfe4150f573eff264d8231aa6713ad3cff7fc344d0b0a1a8a933643bf15dfb901000000000000000000000000000000000000000000000000000000000000000000000000000000000000000000000000000000000000000000000000000000000000000000000000000000000000000000000000000000000000000000000000000000000000000000000000000000000000000000000000000000000000000000000000000000000000000000000000000000000000000000000000000000000000000000000000000000000000000000000000000000000000000000000000000000000000000000000000000000000000000000000000000000000000000000000000000000000000000000000000000000000000000000000000000000000080018407270e00830189cc8203e800a0000000000000000000000000000000000000000000000000000000000000000088000000000000000007a056e81f171bcc55a6ff8345e692c0f86e5b48e01b996cadc001622fb5e363b421f899f897800a83061a8094e7e37c39a88e5712fab3ebb273c4c2f90cc64a6180b77346e4a6a4695b41c4b337c35223562e46a30298923f6000557346e4a6a4695b41c4b337c35223562e46a30298923b60015560006000f326a0f8bc5b340d8295d61ade7af0c98a42796430c2309b9d8c58a19173aeeac5f36da01f95b7d44c132b037e82e47edd59ab9bd9834249e13cbb54667459783af5b292c0c0",
                "blocknumber": "1"
            }
        ],
        "sealEngine": "NoProof",
        "_info": {
            "hash": "0x0c927f5fe4439d911c5391aee5d75d684a6e20df8f74479633d500af039d5cbd",
            "fixture-format": "blockchain_test",
            "comment": "`execution-specs` generated test",
            "filling-transition-tool": "2.19.0",
            "description": "Test EXTCODEHASH/EXTCODESIZE of an external account during init code.\n\nThe init code queries EXTCODEHASH and EXTCODESIZE of a pre-existing\ncontract and stores the results. With a create transaction the checks\nrun in the top-level init code; with CREATE/CREATE2 they run in a\ncontract-initiated creation.",
            "url": "https://github.com/ethereum/execution-specs/blob/tests-bal@v5.7.0/tests/constantinople/eip1052_extcodehash/test_extcodehash.py#L1015",
            "metadata": {
                "opcode_count": {}
            },
            "reference-spec": "https://github.com/ethereum/EIPs/blob/master/EIPS/eip-1052.md",
            "reference-spec-version": "2dcbc7ce1563e9624e137e9d447374600af876fa"
        }
    },
    "tests/constantinople/eip1052_extcodehash/test_extcodehash.py::test_extcodehash_in_init_code[fork_Shanghai-blockchain_test_from_state_test-create_opcode_CREATE]": {
        "network": "Shanghai",
        "genesisBlockHeader": {
            "parentHash": "0x0000000000000000000000000000000000000000000000000000000000000000",
            "uncleHash": "0x1dcc4de8dec75d7aab85b567b6ccd41ad312451b948a7413f0a142fd40d49347",
            "coinbase": "0x0000000000000000000000000000000000000000",
            "stateRoot": "0x162cd8de5876d321add945065e26977b0d1dc87fcdf078d821f5a1cba4aa08de",
            "transactionsTrie": "0x56e81f171bcc55a6ff8345e692c0f86e5b48e01b996cadc001622fb5e363b421",
            "receiptTrie": "0x56e81f171bcc55a6ff8345e692c0f86e5b48e01b996cadc001622fb5e363b421",
            "bloom": "0x00000000000000000000000000000000000000000000000000000000000000000000000000000000000000000000000000000000000000000000000000000000000000000000000000000000000000000000000000000000000000000000000000000000000000000000000000000000000000000000000000000000000000000000000000000000000000000000000000000000000000000000000000000000000000000000000000000000000000000000000000000000000000000000000000000000000000000000000000000000000000000000000000000000000000000000000000000000000000000000000000000000000000000000000000000000",
            "difficulty": "0x00",
            "number": "0x00",
            "gasLimit": "0x07270e00",
            "gasUsed": "0x00",
            "timestamp": "0x00",
            "extraData": "0x00",
            "mixHash": "0x0000000000000000000000000000000000000000000000000000000000000000",
            "nonce": "0x0000000000000000",
            "baseFeePerGas": "0x07",
            "withdrawalsRoot": "0x56e81f171bcc55a6ff8345e692c0f86e5b48e01b996cadc001622fb5e363b421",
            "hash": "0x1ac3f13bd883d82addbf707509dc3da141a2fce92e29c34b980f3667da890d41"
        },
        "pre": {
            "0x46e4a6a4695b41c4b337c35223562e46a3029892": {
                "nonce": "0x01",
                "balance": "0x00",
                "code": "0x11223344",
                "storage": {}
            },
            "0x920b80d1e41446e87a14a2fe0f6b503cd91afe93": {
                "nonce": "0x01",
                "balance": "0x00",
                "code": "0x3660006000373660006000f000",
                "storage": {}
            },
            "0x1ad9bc24818784172ff393bb6f89f094d4d2ca29": {
                "nonce": "0x00",
                "balance": "0x3635c9adc5dea00000",
                "code": "0x",
                "storage": {}
            }
        },
        "postState": {
            "0x46e4a6a4695b41c4b337c35223562e46a3029892": {
                "nonce": "0x01",
                "balance": "0x00",
                "code": "0x11223344",
                "storage": {}
            },
            "0x920b80d1e41446e87a14a2fe0f6b503cd91afe93": {
                "nonce": "0x02",
                "balance": "0x00",
                "code": "0x3660006000373660006000f000",
                "storage": {}
            },
            "0x1ad9bc24818784172ff393bb6f89f094d4d2ca29": {
                "nonce": "0x01",
                "balance": "0x3635c9adc5de909e9e",
                "code": "0x",
                "storage": {}
            },
            "0xe62af3f0b87739c4995bbcbac9c7f769a084ae92": {
                "nonce": "0x01",
                "balance": "0x00",
                "code": "0x",
                "storage": {
                    "0x00": "0x36712aa4d0dd2f64a9ae6ac09555133a157c74ddf7c079a70c33e8b4bf70dd73",
                    "0x01": "0x04"
                }
            },
            "0x2adc25665018aa1fe0e6bc666dac8fc2697ff9ba": {
                "nonce": "0x00",
                "balance": "0x049d37",
                "code": "0x",
                "storage": {}
            }
        },
        "lastblockhash": "0x9a24610d575b2ca809611185b3c064dd106c5befabbe7e32d6bc74afdf3f97e8",
        "config": {
            "network": "Shanghai",
            "chainid": "0x01"
        },
        "genesisRLP": "0xf90219f90213a00000000000000000000000000000000000000000000000000000000000000000a01dcc4de8dec75d7aab85b567b6ccd41ad312451b948a7413f0a142fd40d49347940000000000000000000000000000000000000000a0162cd8de5876d321add945065e26977b0d1dc87fcdf078d821f5a1cba4aa08dea056e81f171bcc55a6ff8345e692c0f86e5b48e01b996cadc001622fb5e363b421a056e81f171bcc55a6ff8345e692c0f86e5b48e01b996cadc001622fb5e363b421b901000000000000000000000000000000000000000000000000000000000000000000000000000000000000000000000000000000000000000000000000000000000000000000000000000000000000000000000000000000000000000000000000000000000000000000000000000000000000000000000000000000000000000000000000000000000000000000000000000000000000000000000000000000000000000000000000000000000000000000000000000000000000000000000000000000000000000000000000000000000000000000000000000000000000000000000000000000000000000000000000000000000000000000000000000000000080808407270e00808000a0000000000000000000000000000000000000000000000000000000000000000088000000000000000007a056e81f171bcc55a6ff8345e692c0f86e5b48e01b996cadc001622fb5e363b421c0c0c0",
        "blocks": [
            {
                "blockHeader": {
                    "parentHash": "0x1ac3f13bd883d82addbf707509dc3da141a2fce92e29c34b980f3667da890d41",
                    "uncleHash": "0x1dcc4de8dec75d7aab85b567b6ccd41ad312451b948a7413f0a142fd40d49347",
                    "coinbase": "0x2adc25665018aa1fe0e6bc666dac8fc2697ff9ba",
                    "stateRoot": "0x2f2d28aea83a2e0e712f21ca57a243e38a78cf3afb2527d486b28057d1ba77b7",
                    "transactionsTrie": "0x01a13d7c4246aa6f5e5943ea8271f5c61795fca6b54b10ae5c2d41c3289e185e",
                    "receiptTrie": "0xf0deef0668d73bb371cb851328371fe87d9d8bacbb83885cd7c9ef42fc5648ea",
                    "bloom": "0x00000000000000000000000000000000000000000000000000000000000000000000000000000000000000000000000000000000000000000000000000000000000000000000000000000000000000000000000000000000000000000000000000000000000000000000000000000000000000000000000000000000000000000000000000000000000000000000000000000000000000000000000000000000000000000000000000000000000000000000000000000000000000000000000000000000000000000000000000000000000000000000000000000000000000000000000000000000000000000000000000000000000000000000000000000000",
                    "difficulty": "0x00",
                    "number": "0x01",
                    "gasLimit": "0x07270e00",
                    "gasUsed": "0x0189bd",
                    "timestamp": "0x03e8",
                    "extraData": "0x00",
                    "mixHash": "0x0000000000000000000000000000000000000000000000000000000000000000",
                    "nonce": "0x0000000000000000",
                    "baseFeePerGas": "0x07",
                    "withdrawalsRoot": "0x56e81f171bcc55a6ff8345e692c0f86e5b48e01b996cadc001622fb5e363b421",
                    "hash": "0x9a24610d575b2ca809611185b3c064dd106c5befabbe7e32d6bc74afdf3f97e8"
                },
                "transactions": [
                    {
                        "type": "0x00",
                        "chainId": "0x01",
                        "nonce": "0x00",
                        "gasPrice": "0x0a",
                        "gasLimit": "0x061a80",
                        "to": "0x920b80d1e41446e87a14a2fe0f6b503cd91afe93",
                        "value": "0x00",
                        "data": "0x7346e4a6a4695b41c4b337c35223562e46a30298923f6000557346e4a6a4695b41c4b337c35223562e46a30298923b60015560006000f3",
                        "v": "0x26",
                        "r": "0xd115a4344f2c340e99c3d276d60be2207322e6f437e7f3e1b8a8387730a83ee1",
                        "s": "0x2d048a44e75470141bdef27162c14bfca5af86bc747ba8f0a8f19767cf315caa",
                        "sender": "0x1ad9bc24818784172ff393bb6f89f094d4d2ca29"
                    }
                ],
                "uncleHeaders": [],
                "withdrawals": [],
                "receipts": [
                    {
                        "transactionHash": "0xe6dcae84b2343784b903edeab5a3992e78367521165e2a92249d66b04508ba86",
                        "type": "0x00",
                        "cumulativeGasUsed": "0x0189bd",
                        "bloom": "0x00000000000000000000000000000000000000000000000000000000000000000000000000000000000000000000000000000000000000000000000000000000000000000000000000000000000000000000000000000000000000000000000000000000000000000000000000000000000000000000000000000000000000000000000000000000000000000000000000000000000000000000000000000000000000000000000000000000000000000000000000000000000000000000000000000000000000000000000000000000000000000000000000000000000000000000000000000000000000000000000000000000000000000000000000000000",
                        "logs": [],
                        "status": true,
                        "rlp": "0xf9010901830189bdb9010000000000000000000000000000000000000000000000000000000000000000000000000000000000000000000000000000000000000000000000000000000000000000000000000000000000000000000000000000000000000000000000000000000000000000000000000000000000000000000000000000000000000000000000000000000000000000000000000000000000000000000000000000000000000000000000000000000000000000000000000000000000000000000000000000000000000000000000000000000000000000000000000000000000000000000000000000000000000000000000000000000000000000000000000000000000c0"
                    }
                ],
                "rlp": "0xf902b8f90218a01ac3f13bd883d82addbf707509dc3da141a2fce92e29c34b980f3667da890d41a01dcc4de8dec75d7aab85b567b6ccd41ad312451b948a7413f0a142fd40d49347942adc25665018aa1fe0e6bc666dac8fc2697ff9baa02f2d28aea83a2e0e712f21ca57a243e38a78cf3afb2527d486b28057d1ba77b7a001a13d7c4246aa6f5e5943ea8271f5c61795fca6b54b10ae5c2d41c3289e185ea0f0deef0668d73bb371cb851328371fe87d9d8bacbb83885cd7c9ef42fc5648eab901000000000000000000000000000000000000000000000000000000000000000000000000000000000000000000000000000000000000000000000000000000000000000000000000000000000000000000000000000000000000000000000000000000000000000000000000000000000000000000000000000000000000000000000000000000000000000000000000000000000000000000000000000000000000000000000000000000000000000000000000000000000000000000000000000000000000000000000000000000000000000000000000000000000000000000000000000000000000000000000000000000000000000000000000000000000080018407270e00830189bd8203e800a0000000000000000000000000000000000000000000000000000000000000000088000000000000000007a056e81f171bcc55a6ff8345e692c0f86e5b48e01b996cadc001622fb5e363b421f899f897800a83061a8094920b80d1e41446e87a14a2fe0f6b503cd91afe9380b77346e4a6a4695b41c4b337c35223562e46a30298923f6000557346e4a6a4695b41c4b337c35223562e46a30298923b60015560006000f326a0d115a4344f2c340e99c3d276d60be2207322e6f437e7f3e1b8a8387730a83ee1a02d048a44e75470141bdef27162c14bfca5af86bc747ba8f0a8f19767cf315caac0c0",
                "blocknumber": "1"
            }
        ],
        "sealEngine": "NoProof",
        "_info": {
            "hash": "0xdad178cbea261147217616d1017a8564392860e79ed5228c63b3896e4d541ebf",
            "fixture-format": "blockchain_test",
            "comment": "`execution-specs` generated test",
            "filling-transition-tool": "2.19.0",
            "description": "Test EXTCODEHASH/EXTCODESIZE of an external account during init code.\n\nThe init code queries EXTCODEHASH and EXTCODESIZE of a pre-existing\ncontract and stores the results. With a create transaction the checks\nrun in the top-level init code; with CREATE/CREATE2 they run in a\ncontract-initiated creation.",
            "url": "https://github.com/ethereum/execution-specs/blob/tests-bal@v5.7.0/tests/constantinople/eip1052_extcodehash/test_extcodehash.py#L1015",
            "metadata": {
                "opcode_count": {}
            },
            "reference-spec": "https://github.com/ethereum/EIPs/blob/master/EIPS/eip-1052.md",
            "reference-spec-version": "2dcbc7ce1563e9624e137e9d447374600af876fa"
        }
    },
    "tests/constantinople/eip1052_extcodehash/test_extcodehash.py::test_extcodehash_in_init_code[fork_Shanghai-blockchain_test_from_state_test-create_tx]": {
        "network": "Shanghai",
        "genesisBlockHeader": {
            "parentHash": "0x0000000000000000000000000000000000000000000000000000000000000000",
            "uncleHash": "0x1dcc4de8dec75d7aab85b567b6ccd41ad312451b948a7413f0a142fd40d49347",
            "coinbase": "0x0000000000000000000000000000000000000000",
            "stateRoot": "0x3067fca27a35a6e460a89ca559ab39a219a8adda826254aa5b0724ff39004518",
            "transactionsTrie": "0x56e81f171bcc55a6ff8345e692c0f86e5b48e01b996cadc001622fb5e363b421",
            "receiptTrie": "0x56e81f171bcc55a6ff8345e692c0f86e5b48e01b996cadc001622fb5e363b421",
            "bloom": "0x00000000000000000000000000000000000000000000000000000000000000000000000000000000000000000000000000000000000000000000000000000000000000000000000000000000000000000000000000000000000000000000000000000000000000000000000000000000000000000000000000000000000000000000000000000000000000000000000000000000000000000000000000000000000000000000000000000000000000000000000000000000000000000000000000000000000000000000000000000000000000000000000000000000000000000000000000000000000000000000000000000000000000000000000000000000",
            "difficulty": "0x00",
            "number": "0x00",
            "gasLimit": "0x07270e00",
            "gasUsed": "0x00",
            "timestamp": "0x00",
            "extraData": "0x00",
            "mixHash": "0x0000000000000000000000000000000000000000000000000000000000000000",
            "nonce": "0x0000000000000000",
            "baseFeePerGas": "0x07",
            "withdrawalsRoot": "0x56e81f171bcc55a6ff8345e692c0f86e5b48e01b996cadc001622fb5e363b421",
            "hash": "0xa71dfa8303e064c7d6e421a89ed98b540a942641a5ba99c90fb9dd17abf2271d"
        },
        "pre": {
            "0x46e4a6a4695b41c4b337c35223562e46a3029892": {
                "nonce": "0x01",
                "balance": "0x00",
                "code": "0x11223344",
                "storage": {}
            },
            "0x1ad9bc24818784172ff393bb6f89f094d4d2ca29": {
                "nonce": "0x00",
                "balance": "0x3635c9adc5dea00000",
                "code": "0x",
                "storage": {}
            }
        },
        "postState": {
            "0x46e4a6a4695b41c4b337c35223562e46a3029892": {
                "nonce": "0x01",
                "balance": "0x00",
                "code": "0x11223344",
                "storage": {}
            },
            "0x1ad9bc24818784172ff393bb6f89f094d4d2ca29": {
                "nonce": "0x01",
                "balance": "0x3635c9adc5de909fd4",
                "code": "0x",
                "storage": {}
            },
            "0x36bdd8886852759e2046e3bf4c290d5c29c81d82": {
                "nonce": "0x01",
                "balance": "0x00",
                "code": "0x",
                "storage": {
                    "0x00": "0x36712aa4d0dd2f64a9ae6ac09555133a157c74ddf7c079a70c33e8b4bf70dd73",
                    "0x01": "0x04"
                }
            },
            "0x2adc25665018aa1fe0e6bc666dac8fc2697ff9ba": {
                "nonce": "0x00",
                "balance": "0x049cda",
                "code": "0x",
                "storage": {}
            }
        },
        "lastblockhash": "0x152368a12b0e415855008931cfe21c206a38a63c412c41f9febfa8d5e393289a",
        "config": {
            "network": "Shanghai",
            "chainid": "0x01"
        },
        "genesisRLP": "0xf90219f90213a00000000000000000000000000000000000000000000000000000000000000000a01dcc4de8dec75d7aab85b567b6ccd41ad312451b948a7413f0a142fd40d49347940000000000000000000000000000000000000000a03067fca27a35a6e460a89ca559ab39a219a8adda826254aa5b0724ff39004518a056e81f171bcc55a6ff8345e692c0f86e5b48e01b996cadc001622fb5e363b421a056e81f171bcc55a6ff8345e692c0f86e5b48e01b996cadc001622fb5e363b421b901000000000000000000000000000000000000000000000000000000000000000000000000000000000000000000000000000000000000000000000000000000000000000000000000000000000000000000000000000000000000000000000000000000000000000000000000000000000000000000000000000000000000000000000000000000000000000000000000000000000000000000000000000000000000000000000000000000000000000000000000000000000000000000000000000000000000000000000000000000000000000000000000000000000000000000000000000000000000000000000000000000000000000000000000000000000080808407270e00808000a0000000000000000000000000000000000000000000000000000000000000000088000000000000000007a056e81f171bcc55a6ff8345e692c0f86e5b48e01b996cadc001622fb5e363b421c0c0c0",
        "blocks": [
            {
                "blockHeader": {
                    "parentHash": "0xa71dfa8303e064c7d6e421a89ed98b540a942641a5ba99c90fb9dd17abf2271d",
                    "uncleHash": "0x1dcc4de8dec75d7aab85b567b6ccd41ad312451b948a7413f0a142fd40d49347",
                    "coinbase": "0x2adc25665018aa1fe0e6bc666dac8fc2697ff9ba",
                    "stateRoot": "0xe6ff184d2fd2d6bdcf4ece1e0e93826ba4db6f394fa2d22dd315a3ca71040620",
                    "transactionsTrie": "0x6671d35d4edfbaae0e28f28d5b3444b9de49ae1686cc8a6577190c3f81c20bcc",
                    "receiptTrie": "0x8ece036155c19ef7a6116c91a4dd29dc7342b37b3691694f051e2394f43ee9a1",
                    "bloom": "0x00000000000000000000000000000000000000000000000000000000000000000000000000000000000000000000000000000000000000000000000000000000000000000000000000000000000000000000000000000000000000000000000000000000000000000000000000000000000000000000000000000000000000000000000000000000000000000000000000000000000000000000000000000000000000000000000000000000000000000000000000000000000000000000000000000000000000000000000000000000000000000000000000000000000000000000000000000000000000000000000000000000000000000000000000000000",
                    "difficulty": "0x00",
                    "number": "0x01",
                    "gasLimit": "0x07270e00",
                    "gasUsed": "0x01899e",
                    "timestamp": "0x03e8",
                    "extraData": "0x00",
                    "mixHash": "0x0000000000000000000000000000000000000000000000000000000000000000",
                    "nonce": "0x0000000000000000",
                    "baseFeePerGas": "0x07",
                    "withdrawalsRoot": "0x56e81f171bcc55a6ff8345e692c0f86e5b48e01b996cadc001622fb5e363b421",
                    "hash": "0x152368a12b0e415855008931cfe21c206a38a63c412c41f9febfa8d5e393289a"
                },
                "transactions": [
                    {
                        "type": "0x00",
                        "chainId": "0x01",
                        "nonce": "0x00",
                        "gasPrice": "0x0a",
                        "gasLimit": "0x061a80",
                        "value": "0x00",
                        "data": "0x7346e4a6a4695b41c4b337c35223562e46a30298923f6000557346e4a6a4695b41c4b337c35223562e46a30298923b60015560006000f3",
                        "v": "0x25",
                        "r": "0x83413cd499510c795d9203751e3d6e54187e2e710155c91f9a94ebca753ee3fc",
                        "s": "0x7d8ff02490422a156b12ab8ba1e4b1bb8201599e7772ca6f45f1b57ba7111c76",
                        "sender": "0x1ad9bc24818784172ff393bb6f89f094d4d2ca29",
                        "to": ""
                    }
                ],
                "uncleHeaders": [],
                "withdrawals": [],
                "receipts": [
                    {
                        "transactionHash": "0x18492291bf4880bcf31ea2fba32bfdb9b8420feb998597dabb5f0b2ad3db4d7d",
                        "type": "0x00",
                        "cumulativeGasUsed": "0x01899e",
                        "bloom": "0x00000000000000000000000000000000000000000000000000000000000000000000000000000000000000000000000000000000000000000000000000000000000000000000000000000000000000000000000000000000000000000000000000000000000000000000000000000000000000000000000000000000000000000000000000000000000000000000000000000000000000000000000000000000000000000000000000000000000000000000000000000000000000000000000000000000000000000000000000000000000000000000000000000000000000000000000000000000000000000000000000000000000000000000000000000000",
                        "logs": [],
                        "status": true,
                        "rlp": "0xf90109018301899eb9010000000000000000000000000000000000000000000000000000000000000000000000000000000000000000000000000000000000000000000000000000000000000000000000000000000000000000000000000000000000000000000000000000000000000000000000000000000000000000000000000000000000000000000000000000000000000000000000000000000000000000000000000000000000000000000000000000000000000000000000000000000000000000000000000000000000000000000000000000000000000000000000000000000000000000000000000000000000000000000000000000000000000000000000000000000000c0"
                    }
                ],
                "rlp": "0xf902a4f90218a0a71dfa8303e064c7d6e421a89ed98b540a942641a5ba99c90fb9dd17abf2271da01dcc4de8dec75d7aab85b567b6ccd41ad312451b948a7413f0a142fd40d49347942adc25665018aa1fe0e6bc666dac8fc2697ff9baa0e6ff184d2fd2d6bdcf4ece1e0e93826ba4db6f394fa2d22dd315a3ca71040620a06671d35d4edfbaae0e28f28d5b3444b9de49ae1686cc8a6577190c3f81c20bcca08ece036155c19ef7a6116c91a4dd29dc7342b37b3691694f051e2394f43ee9a1b901000000000000000000000000000000000000000000000000000000000000000000000000000000000000000000000000000000000000000000000000000000000000000000000000000000000000000000000000000000000000000000000000000000000000000000000000000000000000000000000000000000000000000000000000000000000000000000000000000000000000000000000000000000000000000000000000000000000000000000000000000000000000000000000000000000000000000000000000000000000000000000000000000000000000000000000000000000000000000000000000000000000000000000000000000000000080018407270e008301899e8203e800a0000000000000000000000000000000000000000000000000000000000000000088000000000000000007a056e81f171bcc55a6ff8345e692c0f86e5b48e01b996cadc001622fb5e363b421f885f883800a83061a808080b77346e4a6a4695b41c4b337c35223562e46a30298923f6000557346e4a6a4695b41c4b337c35223562e46a30298923b60015560006000f325a083413cd499510c795d9203751e3d6e54187e2e710155c91f9a94ebca753ee3fca07d8ff02490422a156b12ab8ba1e4b1bb8201599e7772ca6f45f1b57ba7111c76c0c0",
                "blocknumber": "1"
            }
        ],
        "sealEngine": "NoProof",
        "_info": {
            "hash": "0x11a15854b7ebe4e000eea4b757e4ed68c94ec1c4acdc93252f6eeee5ea8ccd57",
            "fixture-format": "blockchain_test",
            "comment": "`execution-specs` generated test",
            "filling-transition-tool": "2.19.0",
            "description": "Test EXTCODEHASH/EXTCODESIZE of an external account during init code.\n\nThe init code queries EXTCODEHASH and EXTCODESIZE of a pre-existing\ncontract and stores the results. With a create transaction the checks\nrun in the top-level init code; with CREATE/CREATE2 they run in a\ncontract-initiated creation.",
            "url": "https://github.com/ethereum/execution-specs/blob/tests-bal@v5.7.0/tests/constantinople/eip1052_extcodehash/test_extcodehash.py#L1015",
            "metadata": {
                "opcode_count": {}
            },
            "reference-spec": "https://github.com/ethereum/EIPs/blob/master/EIPS/eip-1052.md",
            "reference-spec-version": "2dcbc7ce1563e9624e137e9d447374600af876fa"
        }
    }
}