{
    "tests/constantinople/eip1052_extcodehash/test_extcodehash.py::test_extcodehash_codeless_with_storage[fork_Shanghai-blockchain_test_from_state_test-balance]": {
        "network": "Shanghai",
        "genesisBlockHeader": {
            "parentHash": "0x0000000000000000000000000000000000000000000000000000000000000000",
            "uncleHash": "0x1dcc4de8dec75d7aab85b567b6ccd41ad312451b948a7413f0a142fd40d49347",
            "coinbase": "0x0000000000000000000000000000000000000000",
            "stateRoot": "0xfd6ec6fb1d9455af62f4143bbc2d1f0fda52dd6208469bcf360ce679b9106ba7",
            "transactionsTrie": "0x56e81f171bcc55a6ff8345e692c0f86e5b48e01b996cadc001622fb5e363b421",
            "receiptTrie": "0x56e81f171bcc55a6ff8345e692c0f86e5b48e01b996cadc001622fb5e363b421",
            "bloom": "0x00000000000000000000000000000000000000000000000000000000000000000000000000000000000000000000000000000000000000000000000000000000000000000000000000000000000000000000000000000000000000000000000000000000000000000000000000000000000000000000000000000000000000000000000000000000000000000000000000000000000000000000000000000000000000000000000000000000000000000000000000000000000000000000000000000000000000000000000000000000000000000000000000000000000000000000000000000000000000000000000000000000000000000000000000000000",
            "difficulty": "0x00",
            "number": "0x00",
            "gasLimit": "0x07270e00",
            "gasUsed": "0x00",
            "timestamp": "0x00",
            "extraData": "0x00",
            "mixHash": "0x0000000000000000000000000000000000000000000000000000000000000000",
            "nonce": "0x0000000000000000",
            "baseFeePerGas": "0x07",
            "withdrawalsRoot": "0x56e81f171bcc55a6ff8345e692c0f86e5b48e01b996cadc001622fb5e363b421",
            "hash": "0x570d8b7c976e2015efcbd02e92f778251f635d53384d8f81afe5b92f2237cb5b"
        },
        "pre": {
            "0xc0f6dc9e5836f54caadbf59cc69346c508e1992b": {
                "nonce": "0x00",
                "balance": "0x01",
                "code": "0x",
                "storage": {
                    "0x01": "0x01"
                }
            },
            "0x9b5962eba47fd886ebfcf12678a6e0af53295a2b": {
                "nonce": "0x01",
                "balance": "0x00",
                "code": "0x73c0f6dc9e5836f54caadbf59cc69346c508e1992b3f60005573c0f6dc9e5836f54caadbf59cc69346c508e1992b3b600155",
                "storage": {
                    "0x01": "0xba5e"
                }
            },
            "0x1ad9bc24818784172ff393bb6f89f094d4d2ca29": {
                "nonce": "0x00",
                "balance": "0x3635c9adc5dea00000",
                "code": "0x",
                "storage": {}
            }
        },
        "postState": {
            "0xc0f6dc9e5836f54caadbf59cc69346c508e1992b": {
                "nonce": "0x00",
                "balance": "0x01",
                "code": "0x",
                "storage": {
                    "0x01": "0x01"
                }
            },
            "0x9b5962eba47fd886ebfcf12678a6e0af53295a2b": {
                "nonce": "0x01",
                "balance": "0x00",
                "code": "0x73c0f6dc9e5836f54caadbf59cc69346c508e1992b3f60005573c0f6dc9e5836f54caadbf59cc69346c508e1992b3b600155",
                "storage": {
                    "0x00": "0xc5d2460186f7233c927e7db2dcc703c0e500b653ca82273b7bfad8045d85a470"
                }
            },
            "0x1ad9bc24818784172ff393bb6f89f094d4d2ca29": {
                "nonce": "0x01",
                "balance": "0x3635c9adc5de98faa8",
                "code": "0x",
                "storage": {}
            },
            "0x2adc25665018aa1fe0e6bc666dac8fc2697ff9ba": {
                "nonce": "0x00",
                "balance": "0x021b34",
                "code": "0x",
                "storage": {}
            }
        },
        "lastblockhash": "0x05735866e49f9077e9281dff19c99007485f99353e4b9be40706413fcfb1b843",
        "config": {
            "network": "Shanghai",
            "chainid": "0x01"
        },
        "genesisRLP": "0xf90219f90213a00000000000000000000000000000000000000000000000000000000000000000a01dcc4de8dec75d7aab85b567b6ccd41ad312451b948a7413f0a142fd40d49347940000000000000000000000000000000000000000a0fd6ec6fb1d9455af62f4143bbc2d1f0fda52dd6208469bcf360ce679b9106ba7a056e81f171bcc55a6ff8345e692c0f86e5b48e01b996cadc001622fb5e363b421a056e81f171bcc55a6ff8345e692c0f86e5b48e01b996cadc001622fb5e363b421b901000000000000000000000000000000000000000000000000000000000000000000000000000000000000000000000000000000000000000000000000000000000000000000000000000000000000000000000000000000000000000000000000000000000000000000000000000000000000000000000000000000000000000000000000000000000000000000000000000000000000000000000000000000000000000000000000000000000000000000000000000000000000000000000000000000000000000000000000000000000000000000000000000000000000000000000000000000000000000000000000000000000000000000000000000000000080808407270e00808000a0000000000000000000000000000000000000000000000000000000000000000088000000000000000007a056e81f171bcc55a6ff8345e692c0f86e5b48e01b996cadc001622fb5e363b421c0c0c0",
        "blocks": [
            {
                "blockHeader": {
                    "parentHash": "0x570d8b7c976e2015efcbd02e92f778251f635d53384d8f81afe5b92f2237cb5b",
                    "uncleHash": "0x1dcc4de8dec75d7aab85b567b6ccd41ad312451b948a7413f0a142fd40d49347",
                    "coinbase": "0x2adc25665018aa1fe0e6bc666dac8fc2697ff9ba",
                    "stateRoot": "0xdc7c8618ca3363becf44e8fb79243931cb3467aa7a3e0bac973dfede96586b31",
                    "transactionsTrie": "0x4c11f37f6b8671b3bbb1b17eec51c7d3e7ec18c21910e3b298d65cf77ca07893",
                    "receiptTrie": "0xa6677908c35207a41ed99f6ca103b9800625fc2f5582c9cae7526fd5d0122e8b",
                    "bloom": "0x00000000000000000000000000000000000000000000000000000000000000000000000000000000000000000000000000000000000000000000000000000000000000000000000000000000000000000000000000000000000000000000000000000000000000000000000000000000000000000000000000000000000000000000000000000000000000000000000000000000000000000000000000000000000000000000000000000000000000000000000000000000000000000000000000000000000000000000000000000000000000000000000000000000000000000000000000000000000000000000000000000000000000000000000000000000",
                    "difficulty": "0x00",
                    "number": "0x01",
                    "gasLimit": "0x07270e00",
                    "gasUsed": "0xb3bc",
                    "timestamp": "0x03e8",
                    "extraData": "0x00",
                    "mixHash": "0x0000000000000000000000000000000000000000000000000000000000000000",
                    "nonce": "0x0000000000000000",
                    "baseFeePerGas": "0x07",
                    "withdrawalsRoot": "0x56e81f171bcc55a6ff8345e692c0f86e5b48e01b996cadc001622fb5e363b421",
                    "hash": "0x05735866e49f9077e9281dff19c99007485f99353e4b9be40706413fcfb1b843"
                },
                "transactions": [
                    {
                        "type": "0x00",
                        "chainId": "0x01",
                        "nonce": "0x00",
                        "gasPrice": "0x0a",
                        "gasLimit": "0x0186a0",
                        "to": "0x9b5962eba47fd886ebfcf12678a6e0af53295a2b",
                        "value": "0x00",
                        "data": "0x",
                        "v": "0x26",
                        "r": "0x709752f74fb5e2df242c29fd41d3f0dd0a3be95107b8401d54a4866138bdb6fa",
                        "s": "0x4e539644614a6f2856ec09bc9caa7da9a2492df6d2462b17c751e82b3dccc357",
                        "sender": "0x1ad9bc24818784172ff393bb6f89f094d4d2ca29"
                    }
                ],
                "uncleHeaders": [],
                "withdrawals": [],
                "receipts": [
                    {
                        "transactionHash": "0xf81154d52e35798a18af7d85dc50ac83d4667e7f706f2e6e21609b2047df71e0",
                        "type": "0x00",
                        "cumulativeGasUsed": "0xb3bc",
                        "bloom": "0x00000000000000000000000000000000000000000000000000000000000000000000000000000000000000000000000000000000000000000000000000000000000000000000000000000000000000000000000000000000000000000000000000000000000000000000000000000000000000000000000000000000000000000000000000000000000000000000000000000000000000000000000000000000000000000000000000000000000000000000000000000000000000000000000000000000000000000000000000000000000000000000000000000000000000000000000000000000000000000000000000000000000000000000000000000000",
                        "logs": [],
                        "status": true,
                        "rlp": "0xf901080182b3bcb9010000000000000000000000000000000000000000000000000000000000000000000000000000000000000000000000000000000000000000000000000000000000000000000000000000000000000000000000000000000000000000000000000000000000000000000000000000000000000000000000000000000000000000000000000000000000000000000000000000000000000000000000000000000000000000000000000000000000000000000000000000000000000000000000000000000000000000000000000000000000000000000000000000000000000000000000000000000000000000000000000000000000000000000000000000000000c0"
                    }
                ],
                "rlp": "0xf90280f90217a0570d8b7c976e2015efcbd02e92f778251f635d53384d8f81afe5b92f2237cb5ba01dcc4de8dec75d7aab85b567b6ccd41ad312451b948a7413f0a142fd40d49347942adc25665018aa1fe0e6bc666dac8fc2697ff9baa0dc7c8618ca3363becf44e8fb79243931cb3467aa7a3e0bac973dfede96586b31a04c11f37f6b8671b3bbb1b17eec51c7d3e7ec18c21910e3b298d65cf77ca07893a0a6677908c35207a41ed99f6ca103b9800625fc2f5582c9cae7526fd5d0122e8bb901000000000000000000000000000000000000000000000000000000000000000000000000000000000000000000000000000000000000000000000000000000000000000000000000000000000000000000000000000000000000000000000000000000000000000000000000000000000000000000000000000000000000000000000000000000000000000000000000000000000000000000000000000000000000000000000000000000000000000000000000000000000000000000000000000000000000000000000000000000000000000000000000000000000000000000000000000000000000000000000000000000000000000000000000000000000080018407270e0082b3bc8203e800a0000000000000000000000000000000000000000000000000000000000000000088000000000000000007a056e81f171bcc55a6ff8345e692c0f86e5b48e01b996cadc001622fb5e363b421f862f860800a830186a0949b5962eba47fd886ebfcf12678a6e0af53295a2b808026a0709752f74fb5e2df242c29fd41d3f0dd0a3be95107b8401d54a4866138bdb6faa04e539644614a6f2856ec09bc9caa7da9a2492df6d2462b17c751e82b3dccc357c0c0",
                "blocknumber": "1"
            }
        ],
        "sealEngine": "NoProof",
        "_info": {
            "hash": "0x4178daeaf0df98c3c6fdac2a7f0d61d293540c1a5306d55eb93ff49936fcbc49",
            "fixture-format": "blockchain_test",
            "comment": "`execution-specs` generated test",
            "filling-transition-tool": "2.19.0",
            "description": "Test EXTCODEHASH/EXTCODESIZE of a codeless account that has storage.\n\nAll three variants are non-empty per EIP-161 (non-zero balance or nonce),\nso EXTCODEHASH returns keccak256(\"\") and EXTCODESIZE returns 0.\nStorage is not part of the EIP-161 emptiness check.",
            "url": "https://github.com/ethereum/execution-specs/blob/tests-snobal-devnet-5@v8037.0.0/tests/constantinople/eip1052_extcodehash/test_extcodehash.py#L386",
            "metadata": {
                "opcode_count": {}
            },
            "reference-spec": "https://github.com/ethereum/EIPs/blob/master/EIPS/eip-1052.md",
            "reference-spec-version": "2dcbc7ce1563e9624e137e9d447374600af876fa"
        }
    },
    "tests/constantinople/eip1052_extcodehash/test_extcodehash.py::test_extcodehash_codeless_with_storage[fork_Shanghai-blockchain_test_from_state_test-balance_and_nonce]": {
        "network": "Shanghai",
        "genesisBlockHeader": {
            "parentHash": "0x0000000000000000000000000000000000000000000000000000000000000000",
            "uncleHash": "0x1dcc4de8dec75d7aab85b567b6ccd41ad312451b948a7413f0a142fd40d49347",
            "coinbase": "0x0000000000000000000000000000000000000000",
            "stateRoot": "0x247d5310a7b82bdb527edbf149f09ed22c20f3211bff064ee0d22c7eaab2f193",
            "transactionsTrie": "0x56e81f171bcc55a6ff8345e692c0f86e5b48e01b996cadc001622fb5e363b421",
            "receiptTrie": "0x56e81f171bcc55a6ff8345e692c0f86e5b48e01b996cadc001622fb5e363b421",
            "bloom": "0x00000000000000000000000000000000000000000000000000000000000000000000000000000000000000000000000000000000000000000000000000000000000000000000000000000000000000000000000000000000000000000000000000000000000000000000000000000000000000000000000000000000000000000000000000000000000000000000000000000000000000000000000000000000000000000000000000000000000000000000000000000000000000000000000000000000000000000000000000000000000000000000000000000000000000000000000000000000000000000000000000000000000000000000000000000000",
            "difficulty": "0x00",
            "number": "0x00",
            "gasLimit": "0x07270e00",
            "gasUsed": "0x00",
            "timestamp": "0x00",
            "extraData": "0x00",
            "mixHash": "0x0000000000000000000000000000000000000000000000000000000000000000",
            "nonce": "0x0000000000000000",
            "baseFeePerGas": "0x07",
            "withdrawalsRoot": "0x56e81f171bcc55a6ff8345e692c0f86e5b48e01b996cadc001622fb5e363b421",
            "hash": "0x555ad4d24e050d65979bb7b328eb5bdc7d7948035eeee0320ff3a9213de15cd6"
        },
        "pre": {
            "0xc0f6dc9e5836f54caadbf59cc69346c508e1992b": {
                "nonce": "0x01",
                "balance": "0x01",
                "code": "0x",
                "storage": {
                    "0x01": "0x01"
                }
            },
            "0x9b5962eba47fd886ebfcf12678a6e0af53295a2b": {
                "nonce": "0x01",
                "balance": "0x00",
                "code": "0x73c0f6dc9e5836f54caadbf59cc69346c508e1992b3f60005573c0f6dc9e5836f54caadbf59cc69346c508e1992b3b600155",
                "storage": {
                    "0x01": "0xba5e"
                }
            },
            "0x1ad9bc24818784172ff393bb6f89f094d4d2ca29": {
                "nonce": "0x00",
                "balance": "0x3635c9adc5dea00000",
                "code": "0x",
                "storage": {}
            }
        },
        "postState": {
            "0xc0f6dc9e5836f54caadbf59cc69346c508e1992b": {
                "nonce": "0x01",
                "balance": "0x01",
                "code": "0x",
                "storage": {
                    "0x01": "0x01"
                }
            },
            "0x9b5962eba47fd886ebfcf12678a6e0af53295a2b": {
                "nonce": "0x01",
                "balance": "0x00",
                "code": "0x73c0f6dc9e5836f54caadbf59cc69346c508e1992b3f60005573c0f6dc9e5836f54caadbf59cc69346c508e1992b3b600155",
                "storage": {
                    "0x00": "0xc5d2460186f7233c927e7db2dcc703c0e500b653ca82273b7bfad8045d85a470"
                }
            },
            "0x1ad9bc24818784172ff393bb6f89f094d4d2ca29": {
                "nonce": "0x01",
                "balance": "0x3635c9adc5de98faa8",
                "code": "0x",
                "storage": {}
            },
            "0x2adc25665018aa1fe0e6bc666dac8fc2697ff9ba": {
                "nonce": "0x00",
                "balance": "0x021b34",
                "code": "0x",
                "storage": {}
            }
        },
        "lastblockhash": "0x76d9353165a4dbdfab4e2ad38d050a992a913d4ad53f4a581a04338e166ddfe8",
        "config": {
            "network": "Shanghai",
            "chainid": "0x01"
        },
        "genesisRLP": "0xf90219f90213a00000000000000000000000000000000000000000000000000000000000000000a01dcc4de8dec75d7aab85b567b6ccd41ad312451b948a7413f0a142fd40d49347940000000000000000000000000000000000000000a0247d5310a7b82bdb527edbf149f09ed22c20f3211bff064ee0d22c7eaab2f193a056e81f171bcc55a6ff8345e692c0f86e5b48e01b996cadc001622fb5e363b421a056e81f171bcc55a6ff8345e692c0f86e5b48e01b996cadc001622fb5e363b421b901000000000000000000000000000000000000000000000000000000000000000000000000000000000000000000000000000000000000000000000000000000000000000000000000000000000000000000000000000000000000000000000000000000000000000000000000000000000000000000000000000000000000000000000000000000000000000000000000000000000000000000000000000000000000000000000000000000000000000000000000000000000000000000000000000000000000000000000000000000000000000000000000000000000000000000000000000000000000000000000000000000000000000000000000000000000080808407270e00808000a0000000000000000000000000000000000000000000000000000000000000000088000000000000000007a056e81f171bcc55a6ff8345e692c0f86e5b48e01b996cadc001622fb5e363b421c0c0c0",
        "blocks": [
            {
                "blockHeader": {
                    "parentHash": "0x555ad4d24e050d65979bb7b328eb5bdc7d7948035eeee0320ff3a9213de15cd6",
                    "uncleHash": "0x1dcc4de8dec75d7aab85b567b6ccd41ad312451b948a7413f0a142fd40d49347",
                    "coinbase": "0x2adc25665018aa1fe0e6bc666dac8fc2697ff9ba",
                    "stateRoot": "0xb22db2831c65f2db6dd259a388fc2c71a42093e65c376a23de8c292208e31fab",
                    "transactionsTrie": "0x4c11f37f6b8671b3bbb1b17eec51c7d3e7ec18c21910e3b298d65cf77ca07893",
                    "receiptTrie": "0xa6677908c35207a41ed99f6ca103b9800625fc2f5582c9cae7526fd5d0122e8b",
                    "bloom": "0x00000000000000000000000000000000000000000000000000000000000000000000000000000000000000000000000000000000000000000000000000000000000000000000000000000000000000000000000000000000000000000000000000000000000000000000000000000000000000000000000000000000000000000000000000000000000000000000000000000000000000000000000000000000000000000000000000000000000000000000000000000000000000000000000000000000000000000000000000000000000000000000000000000000000000000000000000000000000000000000000000000000000000000000000000000000",
                    "difficulty": "0x00",
                    "number": "0x01",
                    "gasLimit": "0x07270e00",
                    "gasUsed": "0xb3bc",
                    "timestamp": "0x03e8",
                    "extraData": "0x00",
                    "mixHash": "0x0000000000000000000000000000000000000000000000000000000000000000",
                    "nonce": "0x0000000000000000",
                    "baseFeePerGas": "0x07",
                    "withdrawalsRoot": "0x56e81f171bcc55a6ff8345e692c0f86e5b48e01b996cadc001622fb5e363b421",
                    "hash": "0x76d9353165a4dbdfab4e2ad38d050a992a913d4ad53f4a581a04338e166ddfe8"
                },
                "transactions": [
                    {
                        "type": "0x00",
                        "chainId": "0x01",
                        "nonce": "0x00",
                        "gasPrice": "0x0a",
                        "gasLimit": "0x0186a0",
                        "to": "0x9b5962eba47fd886ebfcf12678a6e0af53295a2b",
                        "value": "0x00",
                        "data": "0x",
                        "v": "0x26",
                        "r": "0x709752f74fb5e2df242c29fd41d3f0dd0a3be95107b8401d54a4866138bdb6fa",
                        "s": "0x4e539644614a6f2856ec09bc9caa7da9a2492df6d2462b17c751e82b3dccc357",
                        "sender": "0x1ad9bc24818784172ff393bb6f89f094d4d2ca29"
                    }
                ],
                "uncleHeaders": [],
                "withdrawals": [],
                "receipts": [
                    {
                        "transactionHash": "0xf81154d52e35798a18af7d85dc50ac83d4667e7f706f2e6e21609b2047df71e0",
                        "type": "0x00",
                        "cumulativeGasUsed": "0xb3bc",
                        "bloom": "0x00000000000000000000000000000000000000000000000000000000000000000000000000000000000000000000000000000000000000000000000000000000000000000000000000000000000000000000000000000000000000000000000000000000000000000000000000000000000000000000000000000000000000000000000000000000000000000000000000000000000000000000000000000000000000000000000000000000000000000000000000000000000000000000000000000000000000000000000000000000000000000000000000000000000000000000000000000000000000000000000000000000000000000000000000000000",
                        "logs": [],
                        "status": true,
                        "rlp": "0xf901080182b3bcb9010000000000000000000000000000000000000000000000000000000000000000000000000000000000000000000000000000000000000000000000000000000000000000000000000000000000000000000000000000000000000000000000000000000000000000000000000000000000000000000000000000000000000000000000000000000000000000000000000000000000000000000000000000000000000000000000000000000000000000000000000000000000000000000000000000000000000000000000000000000000000000000000000000000000000000000000000000000000000000000000000000000000000000000000000000000000c0"
                    }
                ],
                "rlp": "0xf90280f90217a0555ad4d24e050d65979bb7b328eb5bdc7d7948035eeee0320ff3a9213de15cd6a01dcc4de8dec75d7aab85b567b6ccd41ad312451b948a7413f0a142fd40d49347942adc25665018aa1fe0e6bc666dac8fc2697ff9baa0b22db2831c65f2db6dd259a388fc2c71a42093e65c376a23de8c292208e31faba04c11f37f6b8671b3bbb1b17eec51c7d3e7ec18c21910e3b298d65cf77ca07893a0a6677908c35207a41ed99f6ca103b9800625fc2f5582c9cae7526fd5d0122e8bb901000000000000000000000000000000000000000000000000000000000000000000000000000000000000000000000000000000000000000000000000000000000000000000000000000000000000000000000000000000000000000000000000000000000000000000000000000000000000000000000000000000000000000000000000000000000000000000000000000000000000000000000000000000000000000000000000000000000000000000000000000000000000000000000000000000000000000000000000000000000000000000000000000000000000000000000000000000000000000000000000000000000000000000000000000000000080018407270e0082b3bc8203e800a0000000000000000000000000000000000000000000000000000000000000000088000000000000000007a056e81f171bcc55a6ff8345e692c0f86e5b48e01b996cadc001622fb5e363b421f862f860800a830186a0949b5962eba47fd886ebfcf12678a6e0af53295a2b808026a0709752f74fb5e2df242c29fd41d3f0dd0a3be95107b8401d54a4866138bdb6faa04e539644614a6f2856ec09bc9caa7da9a2492df6d2462b17c751e82b3dccc357c0c0",
                "blocknumber": "1"
            }
        ],
        "sealEngine": "NoProof",
        "_info": {
            "hash": "0xbfbca252ca05de7c21bc9a7eb8af151514ac49c25b39dcfa8fabd3fa77f84f0a",
            "fixture-format": "blockchain_test",
            "comment": "`execution-specs` generated test",
            "filling-transition-tool": "2.19.0",
            "description": "Test EXTCODEHASH/EXTCODESIZE of a codeless account that has storage.\n\nAll three variants are non-empty per EIP-161 (non-zero balance or nonce),\nso EXTCODEHASH returns keccak256(\"\") and EXTCODESIZE returns 0.\nStorage is not part of the EIP-161 emptiness check.",
            "url": "https://github.com/ethereum/execution-specs/blob/tests-snobal-devnet-5@v8037.0.0/tests/constantinople/eip1052_extcodehash/test_extcodehash.py#L386",
            "metadata": {
                "opcode_count": {}
            },
            "reference-spec": "https://github.com/ethereum/EIPs/blob/master/EIPS/eip-1052.md",
            "reference-spec-version": "2dcbc7ce1563e9624e137e9d447374600af876fa"
        }
    },
    "tests/constantinople/eip1052_extcodehash/test_extcodehash.py::test_extcodehash_codeless_with_storage[fork_Shanghai-blockchain_test_from_state_test-nonce]": {
        "network": "Shanghai",
        "genesisBlockHeader": {
            "parentHash": "0x0000000000000000000000000000000000000000000000000000000000000000",
            "uncleHash": "0x1dcc4de8dec75d7aab85b567b6ccd41ad312451b948a7413f0a142fd40d49347",
            "coinbase": "0x0000000000000000000000000000000000000000",
            "stateRoot": "0x10b57a7e13b065f65a73dc777ad3325708223fba9e06c84cd79108e05fde81f2",
            "transactionsTrie": "0x56e81f171bcc55a6ff8345e692c0f86e5b48e01b996cadc001622fb5e363b421",
            "receiptTrie": "0x56e81f171bcc55a6ff8345e692c0f86e5b48e01b996cadc001622fb5e363b421",
            "bloom": "0x00000000000000000000000000000000000000000000000000000000000000000000000000000000000000000000000000000000000000000000000000000000000000000000000000000000000000000000000000000000000000000000000000000000000000000000000000000000000000000000000000000000000000000000000000000000000000000000000000000000000000000000000000000000000000000000000000000000000000000000000000000000000000000000000000000000000000000000000000000000000000000000000000000000000000000000000000000000000000000000000000000000000000000000000000000000",
            "difficulty": "0x00",
            "number": "0x00",
            "gasLimit": "0x07270e00",
            "gasUsed": "0x00",
            "timestamp": "0x00",
            "extraData": "0x00",
            "mixHash": "0x0000000000000000000000000000000000000000000000000000000000000000",
            "nonce": "0x0000000000000000",
            "baseFeePerGas": "0x07",
            "withdrawalsRoot": "0x56e81f171bcc55a6ff8345e692c0f86e5b48e01b996cadc001622fb5e363b421",
            "hash": "0x4283f7a1ef8b63d70032cfc2d6c61eba90e7d512a36b4b02325620f531eca975"
        },
        "pre": {
            "0xc0f6dc9e5836f54caadbf59cc69346c508e1992b": {
                "nonce": "0x01",
                "balance": "0x00",
                "code": "0x",
                "storage": {
                    "0x01": "0x01"
                }
            },
            "0x9b5962eba47fd886ebfcf12678a6e0af53295a2b": {
                "nonce": "0x01",
                "balance": "0x00",
                "code": "0x73c0f6dc9e5836f54caadbf59cc69346c508e1992b3f60005573c0f6dc9e5836f54caadbf59cc69346c508e1992b3b600155",
                "storage": {
                    "0x01": "0xba5e"
                }
            },
            "0x1ad9bc24818784172ff393bb6f89f094d4d2ca29": {
                "nonce": "0x00",
                "balance": "0x3635c9adc5dea00000",
                "code": "0x",
                "storage": {}
            }
        },
        "postState": {
            "0xc0f6dc9e5836f54caadbf59cc69346c508e1992b": {
                "nonce": "0x01",
                "balance": "0x00",
                "code": "0x",
                "storage": {
                    "0x01": "0x01"
                }
            },
            "0x9b5962eba47fd886ebfcf12678a6e0af53295a2b": {
                "nonce": "0x01",
                "balance": "0x00",
                "code": "0x73c0f6dc9e5836f54caadbf59cc69346c508e1992b3f60005573c0f6dc9e5836f54caadbf59cc69346c508e1992b3b600155",
                "storage": {
                    "0x00": "0xc5d2460186f7233c927e7db2dcc703c0e500b653ca82273b7bfad8045d85a470"
                }
            },
            "0x1ad9bc24818784172ff393bb6f89f094d4d2ca29": {
                "nonce": "0x01",
                "balance": "0x3635c9adc5de98faa8",
                "code": "0x",
                "storage": {}
            },
            "0x2adc25665018aa1fe0e6bc666dac8fc2697ff9ba": {
                "nonce": "0x00",
                "balance": "0x021b34",
                "code": "0x",
                "storage": {}
            }
        },
        "lastblockhash": "0x418ed08490474c80e47cca1bbcd856688c47c3cc17b81ce65fd1c36038e6d96d",
        "config": {
            "network": "Shanghai",
            "chainid": "0x01"
        },
        "genesisRLP": "0xf90219f90213a00000000000000000000000000000000000000000000000000000000000000000a01dcc4de8dec75d7aab85b567b6ccd41ad312451b948a7413f0a142fd40d49347940000000000000000000000000000000000000000a010b57a7e13b065f65a73dc777ad3325708223fba9e06c84cd79108e05fde81f2a056e81f171bcc55a6ff8345e692c0f86e5b48e01b996cadc001622fb5e363b421a056e81f171bcc55a6ff8345e692c0f86e5b48e01b996cadc001622fb5e363b421b901000000000000000000000000000000000000000000000000000000000000000000000000000000000000000000000000000000000000000000000000000000000000000000000000000000000000000000000000000000000000000000000000000000000000000000000000000000000000000000000000000000000000000000000000000000000000000000000000000000000000000000000000000000000000000000000000000000000000000000000000000000000000000000000000000000000000000000000000000000000000000000000000000000000000000000000000000000000000000000000000000000000000000000000000000000000080808407270e00808000a0000000000000000000000000000000000000000000000000000000000000000088000000000000000007a056e81f171bcc55a6ff8345e692c0f86e5b48e01b996cadc001622fb5e363b421c0c0c0",
        "blocks": [
            {
                "blockHeader": {
                    "parentHash": "0x4283f7a1ef8b63d70032cfc2d6c61eba90e7d512a36b4b02325620f531eca975",
                    "uncleHash": "0x1dcc4de8dec75d7aab85b567b6ccd41ad312451b948a7413f0a142fd40d49347",
                    "coinbase": "0x2adc25665018aa1fe0e6bc666dac8fc2697ff9ba",
                    "stateRoot": "0x4afc72b0ab40b7c3aceebf8d1dd2bd41ae54734a5ba306fbec42ecddda88161b",
                    "transactionsTrie": "0x4c11f37f6b8671b3bbb1b17eec51c7d3e7ec18c21910e3b298d65cf77ca07893",
                    "receiptTrie": "0xa6677908c35207a41ed99f6ca103b9800625fc2f5582c9cae7526fd5d0122e8b",
                    "bloom": "0x00000000000000000000000000000000000000000000000000000000000000000000000000000000000000000000000000000000000000000000000000000000000000000000000000000000000000000000000000000000000000000000000000000000000000000000000000000000000000000000000000000000000000000000000000000000000000000000000000000000000000000000000000000000000000000000000000000000000000000000000000000000000000000000000000000000000000000000000000000000000000000000000000000000000000000000000000000000000000000000000000000000000000000000000000000000",
                    "difficulty": "0x00",
                    "number": "0x01",
                    "gasLimit": "0x07270e00",
                    "gasUsed": "0xb3bc",
                    "timestamp": "0x03e8",
                    "extraData": "0x00",
                    "mixHash": "0x0000000000000000000000000000000000000000000000000000000000000000",
                    "nonce": "0x0000000000000000",
                    "baseFeePerGas": "0x07",
                    "withdrawalsRoot": "0x56e81f171bcc55a6ff8345e692c0f86e5b48e01b996cadc001622fb5e363b421",
                    "hash": "0x418ed08490474c80e47cca1bbcd856688c47c3cc17b81ce65fd1c36038e6d96d"
                },
                "transactions": [
                    {
                        "type": "0x00",
                        "chainId": "0x01",
                        "nonce": "0x00",
                        "gasPrice": "0x0a",
                        "gasLimit": "0x0186a0",
                        "to": "0x9b5962eba47fd886ebfcf12678a6e0af53295a2b",
                        "value": "0x00",
                        "data": "0x",
                        "v": "0x26",
                        "r": "0x709752f74fb5e2df242c29fd41d3f0dd0a3be95107b8401d54a4866138bdb6fa",
                        "s": "0x4e539644614a6f2856ec09bc9caa7da9a2492df6d2462b17c751e82b3dccc357",
                        "sender": "0x1ad9bc24818784172ff393bb6f89f094d4d2ca29"
                    }
                ],
                "uncleHeaders": [],
                "withdrawals": [],
                "receipts": [
                    {
                        "transactionHash": "0xf81154d52e35798a18af7d85dc50ac83d4667e7f706f2e6e21609b2047df71e0",
                        "type": "0x00",
                        "cumulativeGasUsed": "0xb3bc",
                        "bloom": "0x00000000000000000000000000000000000000000000000000000000000000000000000000000000000000000000000000000000000000000000000000000000000000000000000000000000000000000000000000000000000000000000000000000000000000000000000000000000000000000000000000000000000000000000000000000000000000000000000000000000000000000000000000000000000000000000000000000000000000000000000000000000000000000000000000000000000000000000000000000000000000000000000000000000000000000000000000000000000000000000000000000000000000000000000000000000",
                        "logs": [],
                        "status": true,
                        "rlp": "0xf901080182b3bcb9010000000000000000000000000000000000000000000000000000000000000000000000000000000000000000000000000000000000000000000000000000000000000000000000000000000000000000000000000000000000000000000000000000000000000000000000000000000000000000000000000000000000000000000000000000000000000000000000000000000000000000000000000000000000000000000000000000000000000000000000000000000000000000000000000000000000000000000000000000000000000000000000000000000000000000000000000000000000000000000000000000000000000000000000000000000000c0"
                    }
                ],
                "rlp": "0xf90280f90217a04283f7a1ef8b63d70032cfc2d6c61eba90e7d512a36b4b02325620f531eca975a01dcc4de8dec75d7aab85b567b6ccd41ad312451b948a7413f0a142fd40d49347942adc25665018aa1fe0e6bc666dac8fc2697ff9baa04afc72b0ab40b7c3aceebf8d1dd2bd41ae54734a5ba306fbec42ecddda88161ba04c11f37f6b8671b3bbb1b17eec51c7d3e7ec18c21910e3b298d65cf77ca07893a0a6677908c35207a41ed99f6ca103b9800625fc2f5582c9cae7526fd5d0122e8bb901000000000000000000000000000000000000000000000000000000000000000000000000000000000000000000000000000000000000000000000000000000000000000000000000000000000000000000000000000000000000000000000000000000000000000000000000000000000000000000000000000000000000000000000000000000000000000000000000000000000000000000000000000000000000000000000000000000000000000000000000000000000000000000000000000000000000000000000000000000000000000000000000000000000000000000000000000000000000000000000000000000000000000000000000000000000080018407270e0082b3bc8203e800a0000000000000000000000000000000000000000000000000000000000000000088000000000000000007a056e81f171bcc55a6ff8345e692c0f86e5b48e01b996cadc001622fb5e363b421f862f860800a830186a0949b5962eba47fd886ebfcf12678a6e0af53295a2b808026a0709752f74fb5e2df242c29fd41d3f0dd0a3be95107b8401d54a4866138bdb6faa04e539644614a6f2856ec09bc9caa7da9a2492df6d2462b17c751e82b3dccc357c0c0",
                "blocknumber": "1"
            }
        ],
        "sealEngine": "NoProof",
        "_info": {
            "hash": "0x532c727507c67978c93b2dc13f1a8d6b40abe9a471dfa42c5b02229c709152c9",
            "fixture-format": "blockchain_test",
            "comment": "`execution-specs` generated test",
            "filling-transition-tool": "2.19.0",
            "description": "Test EXTCODEHASH/EXTCODESIZE of a codeless account that has storage.\n\nAll three variants are non-empty per EIP-161 (non-zero balance or nonce),\nso EXTCODEHASH returns keccak256(\"\") and EXTCODESIZE returns 0.\nStorage is not part of the EIP-161 emptiness check.",
            "url": "https://github.com/ethereum/execution-specs/blob/tests-snobal-devnet-5@v8037.0.0/tests/constantinople/eip1052_extcodehash/test_extcodehash.py#L386",
            "metadata": {
                "opcode_count": {}
            },
            "reference-spec": "https://github.com/ethereum/EIPs/blob/master/EIPS/eip-1052.md",
            "reference-spec-version": "2dcbc7ce1563e9624e137e9d447374600af876fa"
        }
    }
}