{
    "tests/constantinople/eip1052_extcodehash/test_extcodehash.py::test_extcodehash_call_to_selfdestruct[fork_Shanghai-call_opcode_CALL-blockchain_test_from_state_test]": {
        "network": "Shanghai",
        "genesisBlockHeader": {
            "parentHash": "0x0000000000000000000000000000000000000000000000000000000000000000",
            "uncleHash": "0x1dcc4de8dec75d7aab85b567b6ccd41ad312451b948a7413f0a142fd40d49347",
            "coinbase": "0x0000000000000000000000000000000000000000",
            "stateRoot": "0x78a3845afb7586432113a517308dc26be952cf484d3db716646296dcd8c77ede",
            "transactionsTrie": "0x56e81f171bcc55a6ff8345e692c0f86e5b48e01b996cadc001622fb5e363b421",
            "receiptTrie": "0x56e81f171bcc55a6ff8345e692c0f86e5b48e01b996cadc001622fb5e363b421",
            "bloom": "0x00000000000000000000000000000000000000000000000000000000000000000000000000000000000000000000000000000000000000000000000000000000000000000000000000000000000000000000000000000000000000000000000000000000000000000000000000000000000000000000000000000000000000000000000000000000000000000000000000000000000000000000000000000000000000000000000000000000000000000000000000000000000000000000000000000000000000000000000000000000000000000000000000000000000000000000000000000000000000000000000000000000000000000000000000000000",
            "difficulty": "0x00",
            "number": "0x00",
            "gasLimit": "0x07270e00",
            "gasUsed": "0x00",
            "timestamp": "0x00",
            "extraData": "0x00",
            "mixHash": "0x0000000000000000000000000000000000000000000000000000000000000000",
            "nonce": "0x0000000000000000",
            "baseFeePerGas": "0x07",
            "withdrawalsRoot": "0x56e81f171bcc55a6ff8345e692c0f86e5b48e01b996cadc001622fb5e363b421",
            "hash": "0x9eb33f800c6cbe83fd23f9114edb7fd53a220170e77097b10f69f1db517f6d06"
        },
        "pre": {
            "0x9e2d765f67baf5402618db6ce0a535982a53c6fc": {
                "nonce": "0x01",
                "balance": "0x014b230ce3",
                "code": "0x73c0f6dc9e5836f54caadbf59cc69346c508e1992bff",
                "storage": {}
            },
            "0x6dad7963db8cb45d9d98675b76bfe220984af94d": {
                "nonce": "0x01",
                "balance": "0x00",
                "code": "0x60006000600060006000739e2d765f67baf5402618db6ce0a535982a53c6fc62028488f1600055739e2d765f67baf5402618db6ce0a535982a53c6fc3f600155",
                "storage": {}
            },
            "0x1ad9bc24818784172ff393bb6f89f094d4d2ca29": {
                "nonce": "0x00",
                "balance": "0x3635c9adc5dea00000",
                "code": "0x",
                "storage": {}
            }
        },
        "postState": {
            "0x6dad7963db8cb45d9d98675b76bfe220984af94d": {
                "nonce": "0x01",
                "balance": "0x00",
                "code": "0x60006000600060006000739e2d765f67baf5402618db6ce0a535982a53c6fc62028488f1600055739e2d765f67baf5402618db6ce0a535982a53c6fc3f600155",
                "storage": {
                    "0x00": "0x01",
                    "0x01": "0x6b4ff852eddedbf436c55cddbc4c143cd2e28485c7e292175f9cc5817fc819ad"
                }
            },
            "0x1ad9bc24818784172ff393bb6f89f094d4d2ca29": {
                "nonce": "0x01",
                "balance": "0x3635c9adc5de90a8ee",
                "code": "0x",
                "storage": {}
            },
            "0xc0f6dc9e5836f54caadbf59cc69346c508e1992b": {
                "nonce": "0x00",
                "balance": "0x014b230ce3",
                "code": "0x",
                "storage": {}
            },
            "0x2adc25665018aa1fe0e6bc666dac8fc2697ff9ba": {
                "nonce": "0x00",
                "balance": "0x049a1f",
                "code": "0x",
                "storage": {}
            }
        },
        "lastblockhash": "0x14f771cfa77d44720fb4e107fbb077c52fd89d64ab07323c39dd115cdfcc4746",
        "config": {
            "network": "Shanghai",
            "chainid": "0x01"
        },
        "genesisRLP": "0xf90219f90213a00000000000000000000000000000000000000000000000000000000000000000a01dcc4de8dec75d7aab85b567b6ccd41ad312451b948a7413f0a142fd40d49347940000000000000000000000000000000000000000a078a3845afb7586432113a517308dc26be952cf484d3db716646296dcd8c77edea056e81f171bcc55a6ff8345e692c0f86e5b48e01b996cadc001622fb5e363b421a056e81f171bcc55a6ff8345e692c0f86e5b48e01b996cadc001622fb5e363b421b901000000000000000000000000000000000000000000000000000000000000000000000000000000000000000000000000000000000000000000000000000000000000000000000000000000000000000000000000000000000000000000000000000000000000000000000000000000000000000000000000000000000000000000000000000000000000000000000000000000000000000000000000000000000000000000000000000000000000000000000000000000000000000000000000000000000000000000000000000000000000000000000000000000000000000000000000000000000000000000000000000000000000000000000000000000000080808407270e00808000a0000000000000000000000000000000000000000000000000000000000000000088000000000000000007a056e81f171bcc55a6ff8345e692c0f86e5b48e01b996cadc001622fb5e363b421c0c0c0",
        "blocks": [
            {
                "blockHeader": {
                    "parentHash": "0x9eb33f800c6cbe83fd23f9114edb7fd53a220170e77097b10f69f1db517f6d06",
                    "uncleHash": "0x1dcc4de8dec75d7aab85b567b6ccd41ad312451b948a7413f0a142fd40d49347",
                    "coinbase": "0x2adc25665018aa1fe0e6bc666dac8fc2697ff9ba",
                    "stateRoot": "0x38c9229e8823dd37ea8a4455ad13cd15560d2d871c3db5a4c9e656f43bbbe247",
                    "transactionsTrie": "0xa74c0b1072eaedaada99e3572223014ebe9f95179db763491ab5fd5502d4edd9",
                    "receiptTrie": "0xf08a236d070600cb02b15459adeee4b02f390d039639e44c6400dfa0e7d29f6c",
                    "bloom": "0x00000000000000000000000000000000000000000000000000000000000000000000000000000000000000000000000000000000000000000000000000000000000000000000000000000000000000000000000000000000000000000000000000000000000000000000000000000000000000000000000000000000000000000000000000000000000000000000000000000000000000000000000000000000000000000000000000000000000000000000000000000000000000000000000000000000000000000000000000000000000000000000000000000000000000000000000000000000000000000000000000000000000000000000000000000000",
                    "difficulty": "0x00",
                    "number": "0x01",
                    "gasLimit": "0x07270e00",
                    "gasUsed": "0x0188b5",
                    "timestamp": "0x03e8",
                    "extraData": "0x00",
                    "mixHash": "0x0000000000000000000000000000000000000000000000000000000000000000",
                    "nonce": "0x0000000000000000",
                    "baseFeePerGas": "0x07",
                    "withdrawalsRoot": "0x56e81f171bcc55a6ff8345e692c0f86e5b48e01b996cadc001622fb5e363b421",
                    "hash": "0x14f771cfa77d44720fb4e107fbb077c52fd89d64ab07323c39dd115cdfcc4746"
                },
                "transactions": [
                    {
                        "type": "0x00",
                        "chainId": "0x01",
                        "nonce": "0x00",
                        "gasPrice": "0x0a",
                        "gasLimit": "0x0f4240",
                        "to": "0x6dad7963db8cb45d9d98675b76bfe220984af94d",
                        "value": "0x00",
                        "data": "0x",
                        "v": "0x25",
                        "r": "0xd0e43b0bf616810b63d74aa9e966527920bbaf98cef28c69feb84f8099c9c3ad",
                        "s": "0x03d00af46cb3c98404715929bfc12e49a65c2492b80ee4005ae9a7dcd92ef83c",
                        "sender": "0x1ad9bc24818784172ff393bb6f89f094d4d2ca29"
                    }
                ],
                "uncleHeaders": [],
                "withdrawals": [],
                "receipts": [
                    {
                        "transactionHash": "0xb0d9fc6e2d260915a59a52b902167cc8f08166d9a7af239722c1f870caefd8f4",
                        "type": "0x00",
                        "cumulativeGasUsed": "0x0188b5",
                        "bloom": "0x00000000000000000000000000000000000000000000000000000000000000000000000000000000000000000000000000000000000000000000000000000000000000000000000000000000000000000000000000000000000000000000000000000000000000000000000000000000000000000000000000000000000000000000000000000000000000000000000000000000000000000000000000000000000000000000000000000000000000000000000000000000000000000000000000000000000000000000000000000000000000000000000000000000000000000000000000000000000000000000000000000000000000000000000000000000",
                        "logs": [],
                        "status": true,
                        "rlp": "0xf9010901830188b5b9010000000000000000000000000000000000000000000000000000000000000000000000000000000000000000000000000000000000000000000000000000000000000000000000000000000000000000000000000000000000000000000000000000000000000000000000000000000000000000000000000000000000000000000000000000000000000000000000000000000000000000000000000000000000000000000000000000000000000000000000000000000000000000000000000000000000000000000000000000000000000000000000000000000000000000000000000000000000000000000000000000000000000000000000000000000000c0"
                    }
                ],
                "rlp": "0xf90281f90218a09eb33f800c6cbe83fd23f9114edb7fd53a220170e77097b10f69f1db517f6d06a01dcc4de8dec75d7aab85b567b6ccd41ad312451b948a7413f0a142fd40d49347942adc25665018aa1fe0e6bc666dac8fc2697ff9baa038c9229e8823dd37ea8a4455ad13cd15560d2d871c3db5a4c9e656f43bbbe247a0a74c0b1072eaedaada99e3572223014ebe9f95179db763491ab5fd5502d4edd9a0f08a236d070600cb02b15459adeee4b02f390d039639e44c6400dfa0e7d29f6cb901000000000000000000000000000000000000000000000000000000000000000000000000000000000000000000000000000000000000000000000000000000000000000000000000000000000000000000000000000000000000000000000000000000000000000000000000000000000000000000000000000000000000000000000000000000000000000000000000000000000000000000000000000000000000000000000000000000000000000000000000000000000000000000000000000000000000000000000000000000000000000000000000000000000000000000000000000000000000000000000000000000000000000000000000000000000080018407270e00830188b58203e800a0000000000000000000000000000000000000000000000000000000000000000088000000000000000007a056e81f171bcc55a6ff8345e692c0f86e5b48e01b996cadc001622fb5e363b421f862f860800a830f4240946dad7963db8cb45d9d98675b76bfe220984af94d808025a0d0e43b0bf616810b63d74aa9e966527920bbaf98cef28c69feb84f8099c9c3ada003d00af46cb3c98404715929bfc12e49a65c2492b80ee4005ae9a7dcd92ef83cc0c0",
                "blocknumber": "1"
            }
        ],
        "sealEngine": "NoProof",
        "_info": {
            "hash": "0xe78fb05f1aa65e139d084eb8855721467d4a8e8fe1d09100bb13c67248a2bd14",
            "fixture-format": "blockchain_test",
            "comment": "`execution-specs` generated test",
            "filling-transition-tool": "2.19.0",
            "description": "Test EXTCODEHASH after calling a contract that selfdestructs.\n\nCall a contract containing SELFDESTRUCT using each call type, then\ncheck EXTCODEHASH. The hash is always returned because the check\nhappens within the same transaction. STATICCALL fails because\nSELFDESTRUCT modifies state. Pre-Cancun, CALLCODE/DELEGATECALL\nexecute SELFDESTRUCT in the caller's context, destroying the test\ncontract at end of transaction.",
            "url": "https://github.com/ethereum/execution-specs/blob/tests-bal@v5.6.1/tests/constantinople/eip1052_extcodehash/test_extcodehash.py#L1254",
            "metadata": {
                "opcode_count": {}
            },
            "reference-spec": "https://github.com/ethereum/EIPs/blob/master/EIPS/eip-1052.md",
            "reference-spec-version": "2dcbc7ce1563e9624e137e9d447374600af876fa"
        }
    },
    "tests/constantinople/eip1052_extcodehash/test_extcodehash.py::test_extcodehash_call_to_selfdestruct[fork_Shanghai-call_opcode_CALLCODE-blockchain_test_from_state_test]": {
        "network": "Shanghai",
        "genesisBlockHeader": {
            "parentHash": "0x0000000000000000000000000000000000000000000000000000000000000000",
            "uncleHash": "0x1dcc4de8dec75d7aab85b567b6ccd41ad312451b948a7413f0a142fd40d49347",
            "coinbase": "0x0000000000000000000000000000000000000000",
            "stateRoot": "0xdc7dfc72f4b9066b650157a2c32870ae7c48afe5f737b6c0592c5e387db68747",
            "transactionsTrie": "0x56e81f171bcc55a6ff8345e692c0f86e5b48e01b996cadc001622fb5e363b421",
            "receiptTrie": "0x56e81f171bcc55a6ff8345e692c0f86e5b48e01b996cadc001622fb5e363b421",
            "bloom": "0x00000000000000000000000000000000000000000000000000000000000000000000000000000000000000000000000000000000000000000000000000000000000000000000000000000000000000000000000000000000000000000000000000000000000000000000000000000000000000000000000000000000000000000000000000000000000000000000000000000000000000000000000000000000000000000000000000000000000000000000000000000000000000000000000000000000000000000000000000000000000000000000000000000000000000000000000000000000000000000000000000000000000000000000000000000000",
            "difficulty": "0x00",
            "number": "0x00",
            "gasLimit": "0x07270e00",
            "gasUsed": "0x00",
            "timestamp": "0x00",
            "extraData": "0x00",
            "mixHash": "0x0000000000000000000000000000000000000000000000000000000000000000",
            "nonce": "0x0000000000000000",
            "baseFeePerGas": "0x07",
            "withdrawalsRoot": "0x56e81f171bcc55a6ff8345e692c0f86e5b48e01b996cadc001622fb5e363b421",
            "hash": "0x55704e96e251b37a7a7b8a68296d7c562a4cab47ff9e071ce08b4cc0fe2a31a6"
        },
        "pre": {
            "0x9e2d765f67baf5402618db6ce0a535982a53c6fc": {
                "nonce": "0x01",
                "balance": "0x014b230ce3",
                "code": "0x73c0f6dc9e5836f54caadbf59cc69346c508e1992bff",
                "storage": {}
            },
            "0x1977c5fd811d61d5faf60cb2d9fc75a173e87049": {
                "nonce": "0x01",
                "balance": "0x00",
                "code": "0x60006000600060006000739e2d765f67baf5402618db6ce0a535982a53c6fc62028488f2600055739e2d765f67baf5402618db6ce0a535982a53c6fc3f600155",
                "storage": {}
            },
            "0x1ad9bc24818784172ff393bb6f89f094d4d2ca29": {
                "nonce": "0x00",
                "balance": "0x3635c9adc5dea00000",
                "code": "0x",
                "storage": {}
            }
        },
        "postState": {
            "0x9e2d765f67baf5402618db6ce0a535982a53c6fc": {
                "nonce": "0x01",
                "balance": "0x014b230ce3",
                "code": "0x73c0f6dc9e5836f54caadbf59cc69346c508e1992bff",
                "storage": {}
            },
            "0x1ad9bc24818784172ff393bb6f89f094d4d2ca29": {
                "nonce": "0x01",
                "balance": "0x3635c9adc5de94797e",
                "code": "0x",
                "storage": {}
            },
            "0x2adc25665018aa1fe0e6bc666dac8fc2697ff9ba": {
                "nonce": "0x00",
                "balance": "0x037527",
                "code": "0x",
                "storage": {}
            }
        },
        "lastblockhash": "0xe5f38797213aecfd1ca36633432397bd9af29072df16216393aeca9af0b7ac91",
        "config": {
            "network": "Shanghai",
            "chainid": "0x01"
        },
        "genesisRLP": "0xf90219f90213a00000000000000000000000000000000000000000000000000000000000000000a01dcc4de8dec75d7aab85b567b6ccd41ad312451b948a7413f0a142fd40d49347940000000000000000000000000000000000000000a0dc7dfc72f4b9066b650157a2c32870ae7c48afe5f737b6c0592c5e387db68747a056e81f171bcc55a6ff8345e692c0f86e5b48e01b996cadc001622fb5e363b421a056e81f171bcc55a6ff8345e692c0f86e5b48e01b996cadc001622fb5e363b421b901000000000000000000000000000000000000000000000000000000000000000000000000000000000000000000000000000000000000000000000000000000000000000000000000000000000000000000000000000000000000000000000000000000000000000000000000000000000000000000000000000000000000000000000000000000000000000000000000000000000000000000000000000000000000000000000000000000000000000000000000000000000000000000000000000000000000000000000000000000000000000000000000000000000000000000000000000000000000000000000000000000000000000000000000000000000080808407270e00808000a0000000000000000000000000000000000000000000000000000000000000000088000000000000000007a056e81f171bcc55a6ff8345e692c0f86e5b48e01b996cadc001622fb5e363b421c0c0c0",
        "blocks": [
            {
                "blockHeader": {
                    "parentHash": "0x55704e96e251b37a7a7b8a68296d7c562a4cab47ff9e071ce08b4cc0fe2a31a6",
                    "uncleHash": "0x1dcc4de8dec75d7aab85b567b6ccd41ad312451b948a7413f0a142fd40d49347",
                    "coinbase": "0x2adc25665018aa1fe0e6bc666dac8fc2697ff9ba",
                    "stateRoot": "0x4a4f078dff4d1e5af00db6800893a3c6c055a124aba805c541876ff0d9a8ca3b",
                    "transactionsTrie": "0xb09f06ea04d6b10cae6c6deb92a779575c02fd02a80d6fb048b35ff64671d159",
                    "receiptTrie": "0xc4e5ac8b9ae6a24ead7061f44a56b6cc425f17c4523f8ffd6283d04e65d9b49f",
                    "bloom": "0x00000000000000000000000000000000000000000000000000000000000000000000000000000000000000000000000000000000000000000000000000000000000000000000000000000000000000000000000000000000000000000000000000000000000000000000000000000000000000000000000000000000000000000000000000000000000000000000000000000000000000000000000000000000000000000000000000000000000000000000000000000000000000000000000000000000000000000000000000000000000000000000000000000000000000000000000000000000000000000000000000000000000000000000000000000000",
                    "difficulty": "0x00",
                    "number": "0x01",
                    "gasLimit": "0x07270e00",
                    "gasUsed": "0x01270d",
                    "timestamp": "0x03e8",
                    "extraData": "0x00",
                    "mixHash": "0x0000000000000000000000000000000000000000000000000000000000000000",
                    "nonce": "0x0000000000000000",
                    "baseFeePerGas": "0x07",
                    "withdrawalsRoot": "0x56e81f171bcc55a6ff8345e692c0f86e5b48e01b996cadc001622fb5e363b421",
                    "hash": "0xe5f38797213aecfd1ca36633432397bd9af29072df16216393aeca9af0b7ac91"
                },
                "transactions": [
                    {
                        "type": "0x00",
                        "chainId": "0x01",
                        "nonce": "0x00",
                        "gasPrice": "0x0a",
                        "gasLimit": "0x0f4240",
                        "to": "0x1977c5fd811d61d5faf60cb2d9fc75a173e87049",
                        "value": "0x00",
                        "data": "0x",
                        "v": "0x25",
                        "r": "0xe5cd9167df4428ffaa02d28d5aa3765ea4784b653d282c788bd0f43a5cd59d56",
                        "s": "0x65f377f3f63f95c0ad5589b6e62ec12cea99d7f392991eb68c1dee0a5bc6cdf2",
                        "sender": "0x1ad9bc24818784172ff393bb6f89f094d4d2ca29"
                    }
                ],
                "uncleHeaders": [],
                "withdrawals": [],
                "receipts": [
                    {
                        "transactionHash": "0x73bfd289ef1936c9f20659d755b7c2c483fe912838c4d3aec6576507093808d9",
                        "type": "0x00",
                        "cumulativeGasUsed": "0x01270d",
                        "bloom": "0x00000000000000000000000000000000000000000000000000000000000000000000000000000000000000000000000000000000000000000000000000000000000000000000000000000000000000000000000000000000000000000000000000000000000000000000000000000000000000000000000000000000000000000000000000000000000000000000000000000000000000000000000000000000000000000000000000000000000000000000000000000000000000000000000000000000000000000000000000000000000000000000000000000000000000000000000000000000000000000000000000000000000000000000000000000000",
                        "logs": [],
                        "status": true,
                        "rlp": "0xf90109018301270db9010000000000000000000000000000000000000000000000000000000000000000000000000000000000000000000000000000000000000000000000000000000000000000000000000000000000000000000000000000000000000000000000000000000000000000000000000000000000000000000000000000000000000000000000000000000000000000000000000000000000000000000000000000000000000000000000000000000000000000000000000000000000000000000000000000000000000000000000000000000000000000000000000000000000000000000000000000000000000000000000000000000000000000000000000000000000c0"
                    }
                ],
                "rlp": "0xf90281f90218a055704e96e251b37a7a7b8a68296d7c562a4cab47ff9e071ce08b4cc0fe2a31a6a01dcc4de8dec75d7aab85b567b6ccd41ad312451b948a7413f0a142fd40d49347942adc25665018aa1fe0e6bc666dac8fc2697ff9baa04a4f078dff4d1e5af00db6800893a3c6c055a124aba805c541876ff0d9a8ca3ba0b09f06ea04d6b10cae6c6deb92a779575c02fd02a80d6fb048b35ff64671d159a0c4e5ac8b9ae6a24ead7061f44a56b6cc425f17c4523f8ffd6283d04e65d9b49fb901000000000000000000000000000000000000000000000000000000000000000000000000000000000000000000000000000000000000000000000000000000000000000000000000000000000000000000000000000000000000000000000000000000000000000000000000000000000000000000000000000000000000000000000000000000000000000000000000000000000000000000000000000000000000000000000000000000000000000000000000000000000000000000000000000000000000000000000000000000000000000000000000000000000000000000000000000000000000000000000000000000000000000000000000000000000080018407270e008301270d8203e800a0000000000000000000000000000000000000000000000000000000000000000088000000000000000007a056e81f171bcc55a6ff8345e692c0f86e5b48e01b996cadc001622fb5e363b421f862f860800a830f4240941977c5fd811d61d5faf60cb2d9fc75a173e87049808025a0e5cd9167df4428ffaa02d28d5aa3765ea4784b653d282c788bd0f43a5cd59d56a065f377f3f63f95c0ad5589b6e62ec12cea99d7f392991eb68c1dee0a5bc6cdf2c0c0",
                "blocknumber": "1"
            }
        ],
        "sealEngine": "NoProof",
        "_info": {
            "hash": "0x765a4973f0ebb80a08dfa21bcf2a270c25eae7efb9933da13232c14f6076ba4e",
            "fixture-format": "blockchain_test",
            "comment": "`execution-specs` generated test",
            "filling-transition-tool": "2.19.0",
            "description": "Test EXTCODEHASH after calling a contract that selfdestructs.\n\nCall a contract containing SELFDESTRUCT using each call type, then\ncheck EXTCODEHASH. The hash is always returned because the check\nhappens within the same transaction. STATICCALL fails because\nSELFDESTRUCT modifies state. Pre-Cancun, CALLCODE/DELEGATECALL\nexecute SELFDESTRUCT in the caller's context, destroying the test\ncontract at end of transaction.",
            "url": "https://github.com/ethereum/execution-specs/blob/tests-bal@v5.6.1/tests/constantinople/eip1052_extcodehash/test_extcodehash.py#L1254",
            "metadata": {
                "opcode_count": {}
            },
            "reference-spec": "https://github.com/ethereum/EIPs/blob/master/EIPS/eip-1052.md",
            "reference-spec-version": "2dcbc7ce1563e9624e137e9d447374600af876fa"
        }
    },
    "tests/constantinople/eip1052_extcodehash/test_extcodehash.py::test_extcodehash_call_to_selfdestruct[fork_Shanghai-call_opcode_DELEGATECALL-blockchain_test_from_state_test]": {
        "network": "Shanghai",
        "genesisBlockHeader": {
            "parentHash": "0x0000000000000000000000000000000000000000000000000000000000000000",
            "uncleHash": "0x1dcc4de8dec75d7aab85b567b6ccd41ad312451b948a7413f0a142fd40d49347",
            "coinbase": "0x0000000000000000000000000000000000000000",
            "stateRoot": "0xc29290c06ff043755c4fbab0769aa84c9da1167138cfb3498d216b4de18e15b8",
            "transactionsTrie": "0x56e81f171bcc55a6ff8345e692c0f86e5b48e01b996cadc001622fb5e363b421",
            "receiptTrie": "0x56e81f171bcc55a6ff8345e692c0f86e5b48e01b996cadc001622fb5e363b421",
            "bloom": "0x00000000000000000000000000000000000000000000000000000000000000000000000000000000000000000000000000000000000000000000000000000000000000000000000000000000000000000000000000000000000000000000000000000000000000000000000000000000000000000000000000000000000000000000000000000000000000000000000000000000000000000000000000000000000000000000000000000000000000000000000000000000000000000000000000000000000000000000000000000000000000000000000000000000000000000000000000000000000000000000000000000000000000000000000000000000",
            "difficulty": "0x00",
            "number": "0x00",
            "gasLimit": "0x07270e00",
            "gasUsed": "0x00",
            "timestamp": "0x00",
            "extraData": "0x00",
            "mixHash": "0x0000000000000000000000000000000000000000000000000000000000000000",
            "nonce": "0x0000000000000000",
            "baseFeePerGas": "0x07",
            "withdrawalsRoot": "0x56e81f171bcc55a6ff8345e692c0f86e5b48e01b996cadc001622fb5e363b421",
            "hash": "0xad7fe4f22d7e88c39c52b2e51f55a99c99b6a87f2a025d04e6259bbccb131eef"
        },
        "pre": {
            "0x9e2d765f67baf5402618db6ce0a535982a53c6fc": {
                "nonce": "0x01",
                "balance": "0x014b230ce3",
                "code": "0x73c0f6dc9e5836f54caadbf59cc69346c508e1992bff",
                "storage": {}
            },
            "0x7b9d51726205279d2c44af47657f7e70937647fd": {
                "nonce": "0x01",
                "balance": "0x00",
                "code": "0x6000600060006000739e2d765f67baf5402618db6ce0a535982a53c6fc62028488f4600055739e2d765f67baf5402618db6ce0a535982a53c6fc3f600155",
                "storage": {}
            },
            "0x1ad9bc24818784172ff393bb6f89f094d4d2ca29": {
                "nonce": "0x00",
                "balance": "0x3635c9adc5dea00000",
                "code": "0x",
                "storage": {}
            }
        },
        "postState": {
            "0x9e2d765f67baf5402618db6ce0a535982a53c6fc": {
                "nonce": "0x01",
                "balance": "0x014b230ce3",
                "code": "0x73c0f6dc9e5836f54caadbf59cc69346c508e1992bff",
                "storage": {}
            },
            "0x1ad9bc24818784172ff393bb6f89f094d4d2ca29": {
                "nonce": "0x01",
                "balance": "0x3635c9adc5de94799c",
                "code": "0x",
                "storage": {}
            },
            "0x2adc25665018aa1fe0e6bc666dac8fc2697ff9ba": {
                "nonce": "0x00",
                "balance": "0x03751e",
                "code": "0x",
                "storage": {}
            }
        },
        "lastblockhash": "0x21b88e732b716341c3c333db4392d4dc1d2af948bec290204dc8ee70530aa3ad",
        "config": {
            "network": "Shanghai",
            "chainid": "0x01"
        },
        "genesisRLP": "0xf90219f90213a00000000000000000000000000000000000000000000000000000000000000000a01dcc4de8dec75d7aab85b567b6ccd41ad312451b948a7413f0a142fd40d49347940000000000000000000000000000000000000000a0c29290c06ff043755c4fbab0769aa84c9da1167138cfb3498d216b4de18e15b8a056e81f171bcc55a6ff8345e692c0f86e5b48e01b996cadc001622fb5e363b421a056e81f171bcc55a6ff8345e692c0f86e5b48e01b996cadc001622fb5e363b421b901000000000000000000000000000000000000000000000000000000000000000000000000000000000000000000000000000000000000000000000000000000000000000000000000000000000000000000000000000000000000000000000000000000000000000000000000000000000000000000000000000000000000000000000000000000000000000000000000000000000000000000000000000000000000000000000000000000000000000000000000000000000000000000000000000000000000000000000000000000000000000000000000000000000000000000000000000000000000000000000000000000000000000000000000000000000080808407270e00808000a0000000000000000000000000000000000000000000000000000000000000000088000000000000000007a056e81f171bcc55a6ff8345e692c0f86e5b48e01b996cadc001622fb5e363b421c0c0c0",
        "blocks": [
            {
                "blockHeader": {
                    "parentHash": "0xad7fe4f22d7e88c39c52b2e51f55a99c99b6a87f2a025d04e6259bbccb131eef",
                    "uncleHash": "0x1dcc4de8dec75d7aab85b567b6ccd41ad312451b948a7413f0a142fd40d49347",
                    "coinbase": "0x2adc25665018aa1fe0e6bc666dac8fc2697ff9ba",
                    "stateRoot": "0x0268b754b04931c0af6e30993d64bb9f815c7ba3531dcd1562e34c2338e01877",
                    "transactionsTrie": "0x737fe71d02f97605058d3b13255e78ff8561d4a28cd8530efb6856e3a2cffc45",
                    "receiptTrie": "0x23f94ec16c4115012c69c1f8348a4df14ca3d546c08d78b2c5d1957f780d5ceb",
                    "bloom": "0x00000000000000000000000000000000000000000000000000000000000000000000000000000000000000000000000000000000000000000000000000000000000000000000000000000000000000000000000000000000000000000000000000000000000000000000000000000000000000000000000000000000000000000000000000000000000000000000000000000000000000000000000000000000000000000000000000000000000000000000000000000000000000000000000000000000000000000000000000000000000000000000000000000000000000000000000000000000000000000000000000000000000000000000000000000000",
                    "difficulty": "0x00",
                    "number": "0x01",
                    "gasLimit": "0x07270e00",
                    "gasUsed": "0x01270a",
                    "timestamp": "0x03e8",
                    "extraData": "0x00",
                    "mixHash": "0x0000000000000000000000000000000000000000000000000000000000000000",
                    "nonce": "0x0000000000000000",
                    "baseFeePerGas": "0x07",
                    "withdrawalsRoot": "0x56e81f171bcc55a6ff8345e692c0f86e5b48e01b996cadc001622fb5e363b421",
                    "hash": "0x21b88e732b716341c3c333db4392d4dc1d2af948bec290204dc8ee70530aa3ad"
                },
                "transactions": [
                    {
                        "type": "0x00",
                        "chainId": "0x01",
                        "nonce": "0x00",
                        "gasPrice": "0x0a",
                        "gasLimit": "0x0f4240",
                        "to": "0x7b9d51726205279d2c44af47657f7e70937647fd",
                        "value": "0x00",
                        "data": "0x",
                        "v": "0x25",
                        "r": "0x885bf8ba6346e874a593d500bac6d7e3f4fe66ffabb7b2db200204a43ac33b57",
                        "s": "0x4df894f42e72cf4c4d495e4dda9e428294131d31d71472c775129304d2912c15",
                        "sender": "0x1ad9bc24818784172ff393bb6f89f094d4d2ca29"
                    }
                ],
                "uncleHeaders": [],
                "withdrawals": [],
                "receipts": [
                    {
                        "transactionHash": "0xcf3080615d7dee0d3e76ccea2d76cc3311f6b3efe7c50b59bf8fe6dc39bea874",
                        "type": "0x00",
                        "cumulativeGasUsed": "0x01270a",
                        "bloom": "0x00000000000000000000000000000000000000000000000000000000000000000000000000000000000000000000000000000000000000000000000000000000000000000000000000000000000000000000000000000000000000000000000000000000000000000000000000000000000000000000000000000000000000000000000000000000000000000000000000000000000000000000000000000000000000000000000000000000000000000000000000000000000000000000000000000000000000000000000000000000000000000000000000000000000000000000000000000000000000000000000000000000000000000000000000000000",
                        "logs": [],
                        "status": true,
                        "rlp": "0xf90109018301270ab9010000000000000000000000000000000000000000000000000000000000000000000000000000000000000000000000000000000000000000000000000000000000000000000000000000000000000000000000000000000000000000000000000000000000000000000000000000000000000000000000000000000000000000000000000000000000000000000000000000000000000000000000000000000000000000000000000000000000000000000000000000000000000000000000000000000000000000000000000000000000000000000000000000000000000000000000000000000000000000000000000000000000000000000000000000000000c0"
                    }
                ],
                "rlp": "0xf90281f90218a0ad7fe4f22d7e88c39c52b2e51f55a99c99b6a87f2a025d04e6259bbccb131eefa01dcc4de8dec75d7aab85b567b6ccd41ad312451b948a7413f0a142fd40d49347942adc25665018aa1fe0e6bc666dac8fc2697ff9baa00268b754b04931c0af6e30993d64bb9f815c7ba3531dcd1562e34c2338e01877a0737fe71d02f97605058d3b13255e78ff8561d4a28cd8530efb6856e3a2cffc45a023f94ec16c4115012c69c1f8348a4df14ca3d546c08d78b2c5d1957f780d5cebb901000000000000000000000000000000000000000000000000000000000000000000000000000000000000000000000000000000000000000000000000000000000000000000000000000000000000000000000000000000000000000000000000000000000000000000000000000000000000000000000000000000000000000000000000000000000000000000000000000000000000000000000000000000000000000000000000000000000000000000000000000000000000000000000000000000000000000000000000000000000000000000000000000000000000000000000000000000000000000000000000000000000000000000000000000000000080018407270e008301270a8203e800a0000000000000000000000000000000000000000000000000000000000000000088000000000000000007a056e81f171bcc55a6ff8345e692c0f86e5b48e01b996cadc001622fb5e363b421f862f860800a830f4240947b9d51726205279d2c44af47657f7e70937647fd808025a0885bf8ba6346e874a593d500bac6d7e3f4fe66ffabb7b2db200204a43ac33b57a04df894f42e72cf4c4d495e4dda9e428294131d31d71472c775129304d2912c15c0c0",
                "blocknumber": "1"
            }
        ],
        "sealEngine": "NoProof",
        "_info": {
            "hash": "0xd0a9f403b38e2dc7aa315f84c311f91eec11d5121434e097705a440baefee39f",
            "fixture-format": "blockchain_test",
            "comment": "`execution-specs` generated test",
            "filling-transition-tool": "2.19.0",
            "description": "Test EXTCODEHASH after calling a contract that selfdestructs.\n\nCall a contract containing SELFDESTRUCT using each call type, then\ncheck EXTCODEHASH. The hash is always returned because the check\nhappens within the same transaction. STATICCALL fails because\nSELFDESTRUCT modifies state. Pre-Cancun, CALLCODE/DELEGATECALL\nexecute SELFDESTRUCT in the caller's context, destroying the test\ncontract at end of transaction.",
            "url": "https://github.com/ethereum/execution-specs/blob/tests-bal@v5.6.1/tests/constantinople/eip1052_extcodehash/test_extcodehash.py#L1254",
            "metadata": {
                "opcode_count": {}
            },
            "reference-spec": "https://github.com/ethereum/EIPs/blob/master/EIPS/eip-1052.md",
            "reference-spec-version": "2dcbc7ce1563e9624e137e9d447374600af876fa"
        }
    },
    "tests/constantinople/eip1052_extcodehash/test_extcodehash.py::test_extcodehash_call_to_selfdestruct[fork_Shanghai-call_opcode_STATICCALL-blockchain_test_from_state_test]": {
        "network": "Shanghai",
        "genesisBlockHeader": {
            "parentHash": "0x0000000000000000000000000000000000000000000000000000000000000000",
            "uncleHash": "0x1dcc4de8dec75d7aab85b567b6ccd41ad312451b948a7413f0a142fd40d49347",
            "coinbase": "0x0000000000000000000000000000000000000000",
            "stateRoot": "0xe8cb6038809e74de495e62c2cd3273ba53914ccf0a40c02dc918a8cb2e734840",
            "transactionsTrie": "0x56e81f171bcc55a6ff8345e692c0f86e5b48e01b996cadc001622fb5e363b421",
            "receiptTrie": "0x56e81f171bcc55a6ff8345e692c0f86e5b48e01b996cadc001622fb5e363b421",
            "bloom": "0x00000000000000000000000000000000000000000000000000000000000000000000000000000000000000000000000000000000000000000000000000000000000000000000000000000000000000000000000000000000000000000000000000000000000000000000000000000000000000000000000000000000000000000000000000000000000000000000000000000000000000000000000000000000000000000000000000000000000000000000000000000000000000000000000000000000000000000000000000000000000000000000000000000000000000000000000000000000000000000000000000000000000000000000000000000000",
            "difficulty": "0x00",
            "number": "0x00",
            "gasLimit": "0x07270e00",
            "gasUsed": "0x00",
            "timestamp": "0x00",
            "extraData": "0x00",
            "mixHash": "0x0000000000000000000000000000000000000000000000000000000000000000",
            "nonce": "0x0000000000000000",
            "baseFeePerGas": "0x07",
            "withdrawalsRoot": "0x56e81f171bcc55a6ff8345e692c0f86e5b48e01b996cadc001622fb5e363b421",
            "hash": "0x95bf52b79a88b2484e3484b702f40a058f551c38138f2a74c088d809ca71cf9c"
        },
        "pre": {
            "0x9e2d765f67baf5402618db6ce0a535982a53c6fc": {
                "nonce": "0x01",
                "balance": "0x014b230ce3",
                "code": "0x73c0f6dc9e5836f54caadbf59cc69346c508e1992bff",
                "storage": {}
            },
            "0xb014f568e0da258ad40ce710d237cccc1adc1a6e": {
                "nonce": "0x01",
                "balance": "0x00",
                "code": "0x6000600060006000739e2d765f67baf5402618db6ce0a535982a53c6fc62028488fa600055739e2d765f67baf5402618db6ce0a535982a53c6fc3f600155",
                "storage": {
                    "0x00": "0xba5e"
                }
            },
            "0x1ad9bc24818784172ff393bb6f89f094d4d2ca29": {
                "nonce": "0x00",
                "balance": "0x3635c9adc5dea00000",
                "code": "0x",
                "storage": {}
            }
        },
        "postState": {
            "0x9e2d765f67baf5402618db6ce0a535982a53c6fc": {
                "nonce": "0x01",
                "balance": "0x014b230ce3",
                "code": "0x73c0f6dc9e5836f54caadbf59cc69346c508e1992bff",
                "storage": {}
            },
            "0xb014f568e0da258ad40ce710d237cccc1adc1a6e": {
                "nonce": "0x01",
                "balance": "0x00",
                "code": "0x6000600060006000739e2d765f67baf5402618db6ce0a535982a53c6fc62028488fa600055739e2d765f67baf5402618db6ce0a535982a53c6fc3f600155",
                "storage": {
                    "0x01": "0x6b4ff852eddedbf436c55cddbc4c143cd2e28485c7e292175f9cc5817fc819ad"
                }
            },
            "0x1ad9bc24818784172ff393bb6f89f094d4d2ca29": {
                "nonce": "0x01",
                "balance": "0x3635c9adc5de7fccc2",
                "code": "0x",
                "storage": {}
            },
            "0x2adc25665018aa1fe0e6bc666dac8fc2697ff9ba": {
                "nonce": "0x00",
                "balance": "0x09a8f9",
                "code": "0x",
                "storage": {}
            }
        },
        "lastblockhash": "0x2a8cd75035655b5bd033a18806d49ffbf99575e90f5e9035c330f4018ef92993",
        "config": {
            "network": "Shanghai",
            "chainid": "0x01"
        },
        "genesisRLP": "0xf90219f90213a00000000000000000000000000000000000000000000000000000000000000000a01dcc4de8dec75d7aab85b567b6ccd41ad312451b948a7413f0a142fd40d49347940000000000000000000000000000000000000000a0e8cb6038809e74de495e62c2cd3273ba53914ccf0a40c02dc918a8cb2e734840a056e81f171bcc55a6ff8345e692c0f86e5b48e01b996cadc001622fb5e363b421a056e81f171bcc55a6ff8345e692c0f86e5b48e01b996cadc001622fb5e363b421b901000000000000000000000000000000000000000000000000000000000000000000000000000000000000000000000000000000000000000000000000000000000000000000000000000000000000000000000000000000000000000000000000000000000000000000000000000000000000000000000000000000000000000000000000000000000000000000000000000000000000000000000000000000000000000000000000000000000000000000000000000000000000000000000000000000000000000000000000000000000000000000000000000000000000000000000000000000000000000000000000000000000000000000000000000000000080808407270e00808000a0000000000000000000000000000000000000000000000000000000000000000088000000000000000007a056e81f171bcc55a6ff8345e692c0f86e5b48e01b996cadc001622fb5e363b421c0c0c0",
        "blocks": [
            {
                "blockHeader": {
                    "parentHash": "0x95bf52b79a88b2484e3484b702f40a058f551c38138f2a74c088d809ca71cf9c",
                    "uncleHash": "0x1dcc4de8dec75d7aab85b567b6ccd41ad312451b948a7413f0a142fd40d49347",
                    "coinbase": "0x2adc25665018aa1fe0e6bc666dac8fc2697ff9ba",
                    "stateRoot": "0x5c5bc08da20fd4568c4f0c1509ec30aecec216f8a979ff7a9387754bb445ecac",
                    "transactionsTrie": "0x11dd72769f3b3f89f83b0b166343a7d4958151026575660c04f6ed8a8d0f2648",
                    "receiptTrie": "0x5c3207e581a565324574ad05da3d734eee0115c4e9cb07cd939edc21c86fa98a",
                    "bloom": "0x00000000000000000000000000000000000000000000000000000000000000000000000000000000000000000000000000000000000000000000000000000000000000000000000000000000000000000000000000000000000000000000000000000000000000000000000000000000000000000000000000000000000000000000000000000000000000000000000000000000000000000000000000000000000000000000000000000000000000000000000000000000000000000000000000000000000000000000000000000000000000000000000000000000000000000000000000000000000000000000000000000000000000000000000000000000",
                    "difficulty": "0x00",
                    "number": "0x01",
                    "gasLimit": "0x07270e00",
                    "gasUsed": "0x033853",
                    "timestamp": "0x03e8",
                    "extraData": "0x00",
                    "mixHash": "0x0000000000000000000000000000000000000000000000000000000000000000",
                    "nonce": "0x0000000000000000",
                    "baseFeePerGas": "0x07",
                    "withdrawalsRoot": "0x56e81f171bcc55a6ff8345e692c0f86e5b48e01b996cadc001622fb5e363b421",
                    "hash": "0x2a8cd75035655b5bd033a18806d49ffbf99575e90f5e9035c330f4018ef92993"
                },
                "transactions": [
                    {
                        "type": "0x00",
                        "chainId": "0x01",
                        "nonce": "0x00",
                        "gasPrice": "0x0a",
                        "gasLimit": "0x0f4240",
                        "to": "0xb014f568e0da258ad40ce710d237cccc1adc1a6e",
                        "value": "0x00",
                        "data": "0x",
                        "v": "0x25",
                        "r": "0x1f9c5a1c51cf09c4d5e385909f3aca36e7d5e81d0133c48243b07971ef76a631",
                        "s": "0x672c0407f635ae150e405cd89ae1f2aa3a7eeb3928b91a03d99493ee24ff3b0a",
                        "sender": "0x1ad9bc24818784172ff393bb6f89f094d4d2ca29"
                    }
                ],
                "uncleHeaders": [],
                "withdrawals": [],
                "receipts": [
                    {
                        "transactionHash": "0xf60d2bfe93395ae98ba37b273c47e17a5fc1e3f0ca2a4a08c8324347b22f05e8",
                        "type": "0x00",
                        "cumulativeGasUsed": "0x033853",
                        "bloom": "0x00000000000000000000000000000000000000000000000000000000000000000000000000000000000000000000000000000000000000000000000000000000000000000000000000000000000000000000000000000000000000000000000000000000000000000000000000000000000000000000000000000000000000000000000000000000000000000000000000000000000000000000000000000000000000000000000000000000000000000000000000000000000000000000000000000000000000000000000000000000000000000000000000000000000000000000000000000000000000000000000000000000000000000000000000000000",
                        "logs": [],
                        "status": true,
                        "rlp": "0xf901090183033853b9010000000000000000000000000000000000000000000000000000000000000000000000000000000000000000000000000000000000000000000000000000000000000000000000000000000000000000000000000000000000000000000000000000000000000000000000000000000000000000000000000000000000000000000000000000000000000000000000000000000000000000000000000000000000000000000000000000000000000000000000000000000000000000000000000000000000000000000000000000000000000000000000000000000000000000000000000000000000000000000000000000000000000000000000000000000000c0"
                    }
                ],
                "rlp": "0xf90281f90218a095bf52b79a88b2484e3484b702f40a058f551c38138f2a74c088d809ca71cf9ca01dcc4de8dec75d7aab85b567b6ccd41ad312451b948a7413f0a142fd40d49347942adc25665018aa1fe0e6bc666dac8fc2697ff9baa05c5bc08da20fd4568c4f0c1509ec30aecec216f8a979ff7a9387754bb445ecaca011dd72769f3b3f89f83b0b166343a7d4958151026575660c04f6ed8a8d0f2648a05c3207e581a565324574ad05da3d734eee0115c4e9cb07cd939edc21c86fa98ab901000000000000000000000000000000000000000000000000000000000000000000000000000000000000000000000000000000000000000000000000000000000000000000000000000000000000000000000000000000000000000000000000000000000000000000000000000000000000000000000000000000000000000000000000000000000000000000000000000000000000000000000000000000000000000000000000000000000000000000000000000000000000000000000000000000000000000000000000000000000000000000000000000000000000000000000000000000000000000000000000000000000000000000000000000000000080018407270e00830338538203e800a0000000000000000000000000000000000000000000000000000000000000000088000000000000000007a056e81f171bcc55a6ff8345e692c0f86e5b48e01b996cadc001622fb5e363b421f862f860800a830f424094b014f568e0da258ad40ce710d237cccc1adc1a6e808025a01f9c5a1c51cf09c4d5e385909f3aca36e7d5e81d0133c48243b07971ef76a631a0672c0407f635ae150e405cd89ae1f2aa3a7eeb3928b91a03d99493ee24ff3b0ac0c0",
                "blocknumber": "1"
            }
        ],
        "sealEngine": "NoProof",
        "_info": {
            "hash": "0x87cb7f13723f14c09e1c4b46fd0e9a49964cb095c941e8f6c60d1f2007989a11",
            "fixture-format": "blockchain_test",
            "comment": "`execution-specs` generated test",
            "filling-transition-tool": "2.19.0",
            "description": "Test EXTCODEHASH after calling a contract that selfdestructs.\n\nCall a contract containing SELFDESTRUCT using each call type, then\ncheck EXTCODEHASH. The hash is always returned because the check\nhappens within the same transaction. STATICCALL fails because\nSELFDESTRUCT modifies state. Pre-Cancun, CALLCODE/DELEGATECALL\nexecute SELFDESTRUCT in the caller's context, destroying the test\ncontract at end of transaction.",
            "url": "https://github.com/ethereum/execution-specs/blob/tests-bal@v5.6.1/tests/constantinople/eip1052_extcodehash/test_extcodehash.py#L1254",
            "metadata": {
                "opcode_count": {}
            },
            "reference-spec": "https://github.com/ethereum/EIPs/blob/master/EIPS/eip-1052.md",
            "reference-spec-version": "2dcbc7ce1563e9624e137e9d447374600af876fa"
        }
    }
}