{
    "tests/constantinople/eip1052_extcodehash/test_extcodehash.py::test_extcodehash_empty_contract_creation[fork_Shanghai-blockchain_test_from_state_test-opcode_CREATE2]": {
        "network": "Shanghai",
        "genesisBlockHeader": {
            "parentHash": "0x0000000000000000000000000000000000000000000000000000000000000000",
            "uncleHash": "0x1dcc4de8dec75d7aab85b567b6ccd41ad312451b948a7413f0a142fd40d49347",
            "coinbase": "0x0000000000000000000000000000000000000000",
            "stateRoot": "0x9a66b0fbf393a637699d3a138998ea9295fce1147aa9aaf2ec1b79a184129c34",
            "transactionsTrie": "0x56e81f171bcc55a6ff8345e692c0f86e5b48e01b996cadc001622fb5e363b421",
            "receiptTrie": "0x56e81f171bcc55a6ff8345e692c0f86e5b48e01b996cadc001622fb5e363b421",
            "bloom": "0x00000000000000000000000000000000000000000000000000000000000000000000000000000000000000000000000000000000000000000000000000000000000000000000000000000000000000000000000000000000000000000000000000000000000000000000000000000000000000000000000000000000000000000000000000000000000000000000000000000000000000000000000000000000000000000000000000000000000000000000000000000000000000000000000000000000000000000000000000000000000000000000000000000000000000000000000000000000000000000000000000000000000000000000000000000000",
            "difficulty": "0x00",
            "number": "0x00",
            "gasLimit": "0x07270e00",
            "gasUsed": "0x00",
            "timestamp": "0x00",
            "extraData": "0x00",
            "mixHash": "0x0000000000000000000000000000000000000000000000000000000000000000",
            "nonce": "0x0000000000000000",
            "baseFeePerGas": "0x07",
            "withdrawalsRoot": "0x56e81f171bcc55a6ff8345e692c0f86e5b48e01b996cadc001622fb5e363b421",
            "hash": "0x9ce6062fac5f54774aa4d4f6adb47874fcc4c49f22e3dbb3e67e208b37991538"
        },
        "pre": {
            "0xe2226b47f7b968da2f0d37a6ca5a35009620e9c8": {
                "nonce": "0x01",
                "balance": "0x00",
                "code": "0x7f60006000f30000000000000000000000000000000000000000000000000000006000526000600560006000f56000556000543f6001556000543b6002556020600060006000543c60005160035500",
                "storage": {
                    "0x00": "0xba5e",
                    "0x02": "0xba5e",
                    "0x03": "0xba5e"
                }
            },
            "0x1ad9bc24818784172ff393bb6f89f094d4d2ca29": {
                "nonce": "0x00",
                "balance": "0x3635c9adc5dea00000",
                "code": "0x",
                "storage": {}
            }
        },
        "postState": {
            "0xe2226b47f7b968da2f0d37a6ca5a35009620e9c8": {
                "nonce": "0x02",
                "balance": "0x00",
                "code": "0x7f60006000f30000000000000000000000000000000000000000000000000000006000526000600560006000f56000556000543f6001556000543b6002556020600060006000543c60005160035500",
                "storage": {
                    "0x00": "0x457fe62665285089d01b675f3dcc09dae7188692",
                    "0x01": "0xc5d2460186f7233c927e7db2dcc703c0e500b653ca82273b7bfad8045d85a470"
                }
            },
            "0x1ad9bc24818784172ff393bb6f89f094d4d2ca29": {
                "nonce": "0x01",
                "balance": "0x3635c9adc5de939d06",
                "code": "0x",
                "storage": {}
            },
            "0x457fe62665285089d01b675f3dcc09dae7188692": {
                "nonce": "0x01",
                "balance": "0x00",
                "code": "0x",
                "storage": {}
            },
            "0x2adc25665018aa1fe0e6bc666dac8fc2697ff9ba": {
                "nonce": "0x00",
                "balance": "0x03b74b",
                "code": "0x",
                "storage": {}
            }
        },
        "lastblockhash": "0xe3fde51eab69af99f3d83ed4748cc7436ae487b244edb38730c1617ae98f8a52",
        "config": {
            "network": "Shanghai",
            "chainid": "0x01"
        },
        "genesisRLP": "0xf90219f90213a00000000000000000000000000000000000000000000000000000000000000000a01dcc4de8dec75d7aab85b567b6ccd41ad312451b948a7413f0a142fd40d49347940000000000000000000000000000000000000000a09a66b0fbf393a637699d3a138998ea9295fce1147aa9aaf2ec1b79a184129c34a056e81f171bcc55a6ff8345e692c0f86e5b48e01b996cadc001622fb5e363b421a056e81f171bcc55a6ff8345e692c0f86e5b48e01b996cadc001622fb5e363b421b901000000000000000000000000000000000000000000000000000000000000000000000000000000000000000000000000000000000000000000000000000000000000000000000000000000000000000000000000000000000000000000000000000000000000000000000000000000000000000000000000000000000000000000000000000000000000000000000000000000000000000000000000000000000000000000000000000000000000000000000000000000000000000000000000000000000000000000000000000000000000000000000000000000000000000000000000000000000000000000000000000000000000000000000000000000000080808407270e00808000a0000000000000000000000000000000000000000000000000000000000000000088000000000000000007a056e81f171bcc55a6ff8345e692c0f86e5b48e01b996cadc001622fb5e363b421c0c0c0",
        "blocks": [
            {
                "blockHeader": {
                    "parentHash": "0x9ce6062fac5f54774aa4d4f6adb47874fcc4c49f22e3dbb3e67e208b37991538",
                    "uncleHash": "0x1dcc4de8dec75d7aab85b567b6ccd41ad312451b948a7413f0a142fd40d49347",
                    "coinbase": "0x2adc25665018aa1fe0e6bc666dac8fc2697ff9ba",
                    "stateRoot": "0x44815e821c7e2b420945c16d13b9907b18fae6d3b2e2698b20e0e76bd1913d86",
                    "transactionsTrie": "0x828b69ae053dfb0d89c16b56ebd584ceb78b0a0729bc8f969f70bc2527e21063",
                    "receiptTrie": "0x3d5a8d5713cde3fdf026b46de0832eb44f4af97d59a33ce93a7a41a8abb155d0",
                    "bloom": "0x00000000000000000000000000000000000000000000000000000000000000000000000000000000000000000000000000000000000000000000000000000000000000000000000000000000000000000000000000000000000000000000000000000000000000000000000000000000000000000000000000000000000000000000000000000000000000000000000000000000000000000000000000000000000000000000000000000000000000000000000000000000000000000000000000000000000000000000000000000000000000000000000000000000000000000000000000000000000000000000000000000000000000000000000000000000",
                    "difficulty": "0x00",
                    "number": "0x01",
                    "gasLimit": "0x07270e00",
                    "gasUsed": "0x013d19",
                    "timestamp": "0x03e8",
                    "extraData": "0x00",
                    "mixHash": "0x0000000000000000000000000000000000000000000000000000000000000000",
                    "nonce": "0x0000000000000000",
                    "baseFeePerGas": "0x07",
                    "withdrawalsRoot": "0x56e81f171bcc55a6ff8345e692c0f86e5b48e01b996cadc001622fb5e363b421",
                    "hash": "0xe3fde51eab69af99f3d83ed4748cc7436ae487b244edb38730c1617ae98f8a52"
                },
                "transactions": [
                    {
                        "type": "0x00",
                        "chainId": "0x01",
                        "nonce": "0x00",
                        "gasPrice": "0x0a",
                        "gasLimit": "0x061a80",
                        "to": "0xe2226b47f7b968da2f0d37a6ca5a35009620e9c8",
                        "value": "0x00",
                        "data": "0x",
                        "v": "0x25",
                        "r": "0x09c26017e3d7d9c0eb8020cd921991a78440d078a5c7b2e0bbd826a94af02891",
                        "s": "0x0ac116a53688d4192e403ed2490102063318c5acc641497cfaaee67635c4dade",
                        "sender": "0x1ad9bc24818784172ff393bb6f89f094d4d2ca29"
                    }
                ],
                "uncleHeaders": [],
                "withdrawals": [],
                "receipts": [
                    {
                        "transactionHash": "0x0e9962e160da4df54593982f4c5bfc1551956af16edb75c572e9f553f2a495f2",
                        "type": "0x00",
                        "cumulativeGasUsed": "0x013d19",
                        "bloom": "0x00000000000000000000000000000000000000000000000000000000000000000000000000000000000000000000000000000000000000000000000000000000000000000000000000000000000000000000000000000000000000000000000000000000000000000000000000000000000000000000000000000000000000000000000000000000000000000000000000000000000000000000000000000000000000000000000000000000000000000000000000000000000000000000000000000000000000000000000000000000000000000000000000000000000000000000000000000000000000000000000000000000000000000000000000000000",
                        "logs": [],
                        "status": true,
                        "rlp": "0xf901090183013d19b9010000000000000000000000000000000000000000000000000000000000000000000000000000000000000000000000000000000000000000000000000000000000000000000000000000000000000000000000000000000000000000000000000000000000000000000000000000000000000000000000000000000000000000000000000000000000000000000000000000000000000000000000000000000000000000000000000000000000000000000000000000000000000000000000000000000000000000000000000000000000000000000000000000000000000000000000000000000000000000000000000000000000000000000000000000000000c0"
                    }
                ],
                "rlp": "0xf90281f90218a09ce6062fac5f54774aa4d4f6adb47874fcc4c49f22e3dbb3e67e208b37991538a01dcc4de8dec75d7aab85b567b6ccd41ad312451b948a7413f0a142fd40d49347942adc25665018aa1fe0e6bc666dac8fc2697ff9baa044815e821c7e2b420945c16d13b9907b18fae6d3b2e2698b20e0e76bd1913d86a0828b69ae053dfb0d89c16b56ebd584ceb78b0a0729bc8f969f70bc2527e21063a03d5a8d5713cde3fdf026b46de0832eb44f4af97d59a33ce93a7a41a8abb155d0b901000000000000000000000000000000000000000000000000000000000000000000000000000000000000000000000000000000000000000000000000000000000000000000000000000000000000000000000000000000000000000000000000000000000000000000000000000000000000000000000000000000000000000000000000000000000000000000000000000000000000000000000000000000000000000000000000000000000000000000000000000000000000000000000000000000000000000000000000000000000000000000000000000000000000000000000000000000000000000000000000000000000000000000000000000000000080018407270e0083013d198203e800a0000000000000000000000000000000000000000000000000000000000000000088000000000000000007a056e81f171bcc55a6ff8345e692c0f86e5b48e01b996cadc001622fb5e363b421f862f860800a83061a8094e2226b47f7b968da2f0d37a6ca5a35009620e9c8808025a009c26017e3d7d9c0eb8020cd921991a78440d078a5c7b2e0bbd826a94af02891a00ac116a53688d4192e403ed2490102063318c5acc641497cfaaee67635c4dadec0c0",
                "blocknumber": "1"
            }
        ],
        "sealEngine": "NoProof",
        "_info": {
            "hash": "0x25bc1e1ce44f5be404734aea5e789ab80744b8d10a6ff5338094c27f7a1f3c13",
            "fixture-format": "blockchain_test",
            "comment": "`execution-specs` generated test",
            "filling-transition-tool": "2.19.0",
            "description": "Test EXTCODEHASH/EXTCODESIZE for empty contracts created with\nCREATE/CREATE2.",
            "url": "https://github.com/ethereum/execution-specs/blob/tests-bal@v5.7.0/tests/constantinople/eip1052_extcodehash/test_extcodehash.py#L307",
            "metadata": {
                "opcode_count": {}
            },
            "reference-spec": "https://github.com/ethereum/EIPs/blob/master/EIPS/eip-1052.md",
            "reference-spec-version": "2dcbc7ce1563e9624e137e9d447374600af876fa"
        }
    },
    "tests/constantinople/eip1052_extcodehash/test_extcodehash.py::test_extcodehash_empty_contract_creation[fork_Shanghai-blockchain_test_from_state_test-opcode_CREATE]": {
        "network": "Shanghai",
        "genesisBlockHeader": {
            "parentHash": "0x0000000000000000000000000000000000000000000000000000000000000000",
            "uncleHash": "0x1dcc4de8dec75d7aab85b567b6ccd41ad312451b948a7413f0a142fd40d49347",
            "coinbase": "0x0000000000000000000000000000000000000000",
            "stateRoot": "0x4c986e03266e8e4dedcd85faf60dba30721c39ade3446eb871c390b517b20383",
            "transactionsTrie": "0x56e81f171bcc55a6ff8345e692c0f86e5b48e01b996cadc001622fb5e363b421",
            "receiptTrie": "0x56e81f171bcc55a6ff8345e692c0f86e5b48e01b996cadc001622fb5e363b421",
            "bloom": "0x00000000000000000000000000000000000000000000000000000000000000000000000000000000000000000000000000000000000000000000000000000000000000000000000000000000000000000000000000000000000000000000000000000000000000000000000000000000000000000000000000000000000000000000000000000000000000000000000000000000000000000000000000000000000000000000000000000000000000000000000000000000000000000000000000000000000000000000000000000000000000000000000000000000000000000000000000000000000000000000000000000000000000000000000000000000",
            "difficulty": "0x00",
            "number": "0x00",
            "gasLimit": "0x07270e00",
            "gasUsed": "0x00",
            "timestamp": "0x00",
            "extraData": "0x00",
            "mixHash": "0x0000000000000000000000000000000000000000000000000000000000000000",
            "nonce": "0x0000000000000000",
            "baseFeePerGas": "0x07",
            "withdrawalsRoot": "0x56e81f171bcc55a6ff8345e692c0f86e5b48e01b996cadc001622fb5e363b421",
            "hash": "0x6459a943c86de7d7f38beca095b6f483620cf66a9353879a80ee6f3f6918cfc4"
        },
        "pre": {
            "0x0143f2db9db6ab9bb3d2629c13996a491f2c8867": {
                "nonce": "0x01",
                "balance": "0x00",
                "code": "0x7f60006000f3000000000000000000000000000000000000000000000000000000600052600560006000f06000556000543f6001556000543b6002556020600060006000543c60005160035500",
                "storage": {
                    "0x00": "0xba5e",
                    "0x02": "0xba5e",
                    "0x03": "0xba5e"
                }
            },
            "0x1ad9bc24818784172ff393bb6f89f094d4d2ca29": {
                "nonce": "0x00",
                "balance": "0x3635c9adc5dea00000",
                "code": "0x",
                "storage": {}
            }
        },
        "postState": {
            "0x0143f2db9db6ab9bb3d2629c13996a491f2c8867": {
                "nonce": "0x02",
                "balance": "0x00",
                "code": "0x7f60006000f3000000000000000000000000000000000000000000000000000000600052600560006000f06000556000543f6001556000543b6002556020600060006000543c60005160035500",
                "storage": {
                    "0x00": "0x3385fb91b73fbdf2ef74bd49db9ec8b5190e7672",
                    "0x01": "0xc5d2460186f7233c927e7db2dcc703c0e500b653ca82273b7bfad8045d85a470"
                }
            },
            "0x1ad9bc24818784172ff393bb6f89f094d4d2ca29": {
                "nonce": "0x01",
                "balance": "0x3635c9adc5de939d60",
                "code": "0x",
                "storage": {}
            },
            "0x3385fb91b73fbdf2ef74bd49db9ec8b5190e7672": {
                "nonce": "0x01",
                "balance": "0x00",
                "code": "0x",
                "storage": {}
            },
            "0x2adc25665018aa1fe0e6bc666dac8fc2697ff9ba": {
                "nonce": "0x00",
                "balance": "0x03b730",
                "code": "0x",
                "storage": {}
            }
        },
        "lastblockhash": "0xb632c081c7685a23eafaf14c61fa8cb9f7cc1fb692450fb885d15f1f26bb455f",
        "config": {
            "network": "Shanghai",
            "chainid": "0x01"
        },
        "genesisRLP": "0xf90219f90213a00000000000000000000000000000000000000000000000000000000000000000a01dcc4de8dec75d7aab85b567b6ccd41ad312451b948a7413f0a142fd40d49347940000000000000000000000000000000000000000a04c986e03266e8e4dedcd85faf60dba30721c39ade3446eb871c390b517b20383a056e81f171bcc55a6ff8345e692c0f86e5b48e01b996cadc001622fb5e363b421a056e81f171bcc55a6ff8345e692c0f86e5b48e01b996cadc001622fb5e363b421b901000000000000000000000000000000000000000000000000000000000000000000000000000000000000000000000000000000000000000000000000000000000000000000000000000000000000000000000000000000000000000000000000000000000000000000000000000000000000000000000000000000000000000000000000000000000000000000000000000000000000000000000000000000000000000000000000000000000000000000000000000000000000000000000000000000000000000000000000000000000000000000000000000000000000000000000000000000000000000000000000000000000000000000000000000000000080808407270e00808000a0000000000000000000000000000000000000000000000000000000000000000088000000000000000007a056e81f171bcc55a6ff8345e692c0f86e5b48e01b996cadc001622fb5e363b421c0c0c0",
        "blocks": [
            {
                "blockHeader": {
                    "parentHash": "0x6459a943c86de7d7f38beca095b6f483620cf66a9353879a80ee6f3f6918cfc4",
                    "uncleHash": "0x1dcc4de8dec75d7aab85b567b6ccd41ad312451b948a7413f0a142fd40d49347",
                    "coinbase": "0x2adc25665018aa1fe0e6bc666dac8fc2697ff9ba",
                    "stateRoot": "0xb6ce40264bb18badc1efc83878a016cf3434b956c374aed33b275b7d39b5ee1a",
                    "transactionsTrie": "0x9f6b91da20a25226a1d914ee4d8bc2d91e3a1e91d61f5087df68c1d70a647c92",
                    "receiptTrie": "0x4ccb05ecd77aea2c716a0dca15e13970ccdb1864db4fd718c108f4a5d7fec1cf",
                    "bloom": "0x00000000000000000000000000000000000000000000000000000000000000000000000000000000000000000000000000000000000000000000000000000000000000000000000000000000000000000000000000000000000000000000000000000000000000000000000000000000000000000000000000000000000000000000000000000000000000000000000000000000000000000000000000000000000000000000000000000000000000000000000000000000000000000000000000000000000000000000000000000000000000000000000000000000000000000000000000000000000000000000000000000000000000000000000000000000",
                    "difficulty": "0x00",
                    "number": "0x01",
                    "gasLimit": "0x07270e00",
                    "gasUsed": "0x013d10",
                    "timestamp": "0x03e8",
                    "extraData": "0x00",
                    "mixHash": "0x0000000000000000000000000000000000000000000000000000000000000000",
                    "nonce": "0x0000000000000000",
                    "baseFeePerGas": "0x07",
                    "withdrawalsRoot": "0x56e81f171bcc55a6ff8345e692c0f86e5b48e01b996cadc001622fb5e363b421",
                    "hash": "0xb632c081c7685a23eafaf14c61fa8cb9f7cc1fb692450fb885d15f1f26bb455f"
                },
                "transactions": [
                    {
                        "type": "0x00",
                        "chainId": "0x01",
                        "nonce": "0x00",
                        "gasPrice": "0x0a",
                        "gasLimit": "0x061a80",
                        "to": "0x0143f2db9db6ab9bb3d2629c13996a491f2c8867",
                        "value": "0x00",
                        "data": "0x",
                        "v": "0x26",
                        "r": "0xf37754891afcc051d26cc672f85320b3f8d5dc3892e7f689b094064ce472023a",
                        "s": "0x169df9a056e9420440fa90ec0e664133fa332e84530c43a0b46f83546a2dc1e6",
                        "sender": "0x1ad9bc24818784172ff393bb6f89f094d4d2ca29"
                    }
                ],
                "uncleHeaders": [],
                "withdrawals": [],
                "receipts": [
                    {
                        "transactionHash": "0x6bb3115c1a2b5ab700ac71447b2d560ac7838ee3dd4670424a8302f79ea57162",
                        "type": "0x00",
                        "cumulativeGasUsed": "0x013d10",
                        "bloom": "0x00000000000000000000000000000000000000000000000000000000000000000000000000000000000000000000000000000000000000000000000000000000000000000000000000000000000000000000000000000000000000000000000000000000000000000000000000000000000000000000000000000000000000000000000000000000000000000000000000000000000000000000000000000000000000000000000000000000000000000000000000000000000000000000000000000000000000000000000000000000000000000000000000000000000000000000000000000000000000000000000000000000000000000000000000000000",
                        "logs": [],
                        "status": true,
                        "rlp": "0xf901090183013d10b9010000000000000000000000000000000000000000000000000000000000000000000000000000000000000000000000000000000000000000000000000000000000000000000000000000000000000000000000000000000000000000000000000000000000000000000000000000000000000000000000000000000000000000000000000000000000000000000000000000000000000000000000000000000000000000000000000000000000000000000000000000000000000000000000000000000000000000000000000000000000000000000000000000000000000000000000000000000000000000000000000000000000000000000000000000000000c0"
                    }
                ],
                "rlp": "0xf90281f90218a06459a943c86de7d7f38beca095b6f483620cf66a9353879a80ee6f3f6918cfc4a01dcc4de8dec75d7aab85b567b6ccd41ad312451b948a7413f0a142fd40d49347942adc25665018aa1fe0e6bc666dac8fc2697ff9baa0b6ce40264bb18badc1efc83878a016cf3434b956c374aed33b275b7d39b5ee1aa09f6b91da20a25226a1d914ee4d8bc2d91e3a1e91d61f5087df68c1d70a647c92a04ccb05ecd77aea2c716a0dca15e13970ccdb1864db4fd718c108f4a5d7fec1cfb901000000000000000000000000000000000000000000000000000000000000000000000000000000000000000000000000000000000000000000000000000000000000000000000000000000000000000000000000000000000000000000000000000000000000000000000000000000000000000000000000000000000000000000000000000000000000000000000000000000000000000000000000000000000000000000000000000000000000000000000000000000000000000000000000000000000000000000000000000000000000000000000000000000000000000000000000000000000000000000000000000000000000000000000000000000000080018407270e0083013d108203e800a0000000000000000000000000000000000000000000000000000000000000000088000000000000000007a056e81f171bcc55a6ff8345e692c0f86e5b48e01b996cadc001622fb5e363b421f862f860800a83061a80940143f2db9db6ab9bb3d2629c13996a491f2c8867808026a0f37754891afcc051d26cc672f85320b3f8d5dc3892e7f689b094064ce472023aa0169df9a056e9420440fa90ec0e664133fa332e84530c43a0b46f83546a2dc1e6c0c0",
                "blocknumber": "1"
            }
        ],
        "sealEngine": "NoProof",
        "_info": {
            "hash": "0x759dbf240093e12b42daedf1687ac98def5d2b3b9ff10d30c9cebf7b74c6a300",
            "fixture-format": "blockchain_test",
            "comment": "`execution-specs` generated test",
            "filling-transition-tool": "2.19.0",
            "description": "Test EXTCODEHASH/EXTCODESIZE for empty contracts created with\nCREATE/CREATE2.",
            "url": "https://github.com/ethereum/execution-specs/blob/tests-bal@v5.7.0/tests/constantinople/eip1052_extcodehash/test_extcodehash.py#L307",
            "metadata": {
                "opcode_count": {}
            },
            "reference-spec": "https://github.com/ethereum/EIPs/blob/master/EIPS/eip-1052.md",
            "reference-spec-version": "2dcbc7ce1563e9624e137e9d447374600af876fa"
        }
    }
}