{
    "tests/ported_static/stStaticCall/test_static_callcodecallcall_100_oogm_after2.py::test_static_callcodecallcall_100_oogm_after2[fork_Cancun-blockchain_test_from_state_test--v0]": {
        "network": "Cancun",
        "genesisBlockHeader": {
            "parentHash": "0x0000000000000000000000000000000000000000000000000000000000000000",
            "uncleHash": "0x1dcc4de8dec75d7aab85b567b6ccd41ad312451b948a7413f0a142fd40d49347",
            "coinbase": "0x0000000000000000000000000000000000000000",
            "stateRoot": "0x26d34b3d63183a73450405d8a3d5e34703bfc3ca88b0f5fbe7d2c633f94ac123",
            "transactionsTrie": "0x56e81f171bcc55a6ff8345e692c0f86e5b48e01b996cadc001622fb5e363b421",
            "receiptTrie": "0x56e81f171bcc55a6ff8345e692c0f86e5b48e01b996cadc001622fb5e363b421",
            "bloom": "0x00000000000000000000000000000000000000000000000000000000000000000000000000000000000000000000000000000000000000000000000000000000000000000000000000000000000000000000000000000000000000000000000000000000000000000000000000000000000000000000000000000000000000000000000000000000000000000000000000000000000000000000000000000000000000000000000000000000000000000000000000000000000000000000000000000000000000000000000000000000000000000000000000000000000000000000000000000000000000000000000000000000000000000000000000000000",
            "difficulty": "0x00",
            "number": "0x00",
            "gasLimit": "0x01c9c380",
            "gasUsed": "0x00",
            "timestamp": "0x00",
            "extraData": "0x00",
            "mixHash": "0x0000000000000000000000000000000000000000000000000000000000000000",
            "nonce": "0x0000000000000000",
            "baseFeePerGas": "0x0b",
            "withdrawalsRoot": "0x56e81f171bcc55a6ff8345e692c0f86e5b48e01b996cadc001622fb5e363b421",
            "blobGasUsed": "0x00",
            "excessBlobGas": "0x00",
            "parentBeaconBlockRoot": "0x0000000000000000000000000000000000000000000000000000000000000000",
            "hash": "0x9ef51da8f7de9dafd4bfca16496211cbdb116af2303a9262fe757d5d15834d6a"
        },
        "pre": {
            "0x000f3df6d732807ef1319fb7b8bb8522d0beac02": {
                "nonce": "0x01",
                "balance": "0x00",
                "code": "0x3373fffffffffffffffffffffffffffffffffffffffe14604d57602036146024575f5ffd5b5f35801560495762001fff810690815414603c575f5ffd5b62001fff01545f5260205ff35b5f5ffd5b62001fff42064281555f359062001fff015500",
                "storage": {}
            },
            "0x8b3623c74bbf83102adc34299d32b5cd0e7d8cb9": {
                "nonce": "0x00",
                "balance": "0x0de0b6b3a7640000",
                "code": "0x60406000604060003460003562092856f2600055600160015500",
                "storage": {}
            },
            "0xf4645c150a8060778ad94dffe302081fc222dedb": {
                "nonce": "0x00",
                "balance": "0x00",
                "code": "0x604060006040600073444df104ea3853bfeaa91a755136f33385d12eea62061ad0fa505b61c3506080511015603f5760013b506001608051016080526023565b00",
                "storage": {}
            },
            "0x444df104ea3853bfeaa91a755136f33385d12eea": {
                "nonce": "0x00",
                "balance": "0x00",
                "code": "0x604060006040600073335c5531b84765a7626e6e76688f18b81be5259c6201d4d4fa00",
                "storage": {}
            },
            "0x335c5531b84765a7626e6e76688f18b81be5259c": {
                "nonce": "0x00",
                "balance": "0x00",
                "code": "0x600160035200",
                "storage": {}
            },
            "0xebaf50debf10e08302fe4280c32df010463ca297": {
                "nonce": "0x00",
                "balance": "0x0de0b6b3a7640000",
                "code": "0x",
                "storage": {}
            }
        },
        "postState": {
            "0x000f3df6d732807ef1319fb7b8bb8522d0beac02": {
                "nonce": "0x01",
                "balance": "0x00",
                "code": "0x3373fffffffffffffffffffffffffffffffffffffffe14604d57602036146024575f5ffd5b5f35801560495762001fff810690815414603c575f5ffd5b62001fff01545f5260205ff35b5f5ffd5b62001fff42064281555f359062001fff015500",
                "storage": {
                    "0x03e8": "0x03e8"
                }
            },
            "0x8b3623c74bbf83102adc34299d32b5cd0e7d8cb9": {
                "nonce": "0x00",
                "balance": "0x0de0b6b3a7640000",
                "code": "0x60406000604060003460003562092856f2600055600160015500",
                "storage": {
                    "0x01": "0x01"
                }
            },
            "0xf4645c150a8060778ad94dffe302081fc222dedb": {
                "nonce": "0x00",
                "balance": "0x00",
                "code": "0x604060006040600073444df104ea3853bfeaa91a755136f33385d12eea62061ad0fa505b61c3506080511015603f5760013b506001608051016080526023565b00",
                "storage": {}
            },
            "0x444df104ea3853bfeaa91a755136f33385d12eea": {
                "nonce": "0x00",
                "balance": "0x00",
                "code": "0x604060006040600073335c5531b84765a7626e6e76688f18b81be5259c6201d4d4fa00",
                "storage": {}
            },
            "0x335c5531b84765a7626e6e76688f18b81be5259c": {
                "nonce": "0x00",
                "balance": "0x00",
                "code": "0x600160035200",
                "storage": {}
            },
            "0xebaf50debf10e08302fe4280c32df010463ca297": {
                "nonce": "0x01",
                "balance": "0x0de0b6b3a7010db0",
                "code": "0x",
                "storage": {}
            }
        },
        "lastblockhash": "0x966ce1a92d35e7547f48ae1ee723ab94a7526f47df096939156d4a5f87c9d030",
        "config": {
            "network": "Cancun",
            "chainid": "0x01",
            "blobSchedule": {
                "Cancun": {
                    "target": "0x03",
                    "max": "0x06",
                    "baseFeeUpdateFraction": "0x32f0ed"
                }
            }
        },
        "genesisRLP": "0xf9023cf90236a00000000000000000000000000000000000000000000000000000000000000000a01dcc4de8dec75d7aab85b567b6ccd41ad312451b948a7413f0a142fd40d49347940000000000000000000000000000000000000000a026d34b3d63183a73450405d8a3d5e34703bfc3ca88b0f5fbe7d2c633f94ac123a056e81f171bcc55a6ff8345e692c0f86e5b48e01b996cadc001622fb5e363b421a056e81f171bcc55a6ff8345e692c0f86e5b48e01b996cadc001622fb5e363b421b901000000000000000000000000000000000000000000000000000000000000000000000000000000000000000000000000000000000000000000000000000000000000000000000000000000000000000000000000000000000000000000000000000000000000000000000000000000000000000000000000000000000000000000000000000000000000000000000000000000000000000000000000000000000000000000000000000000000000000000000000000000000000000000000000000000000000000000000000000000000000000000000000000000000000000000000000000000000000000000000000000000000000000000000000000000000080808401c9c380808000a000000000000000000000000000000000000000000000000000000000000000008800000000000000000ba056e81f171bcc55a6ff8345e692c0f86e5b48e01b996cadc001622fb5e363b4218080a00000000000000000000000000000000000000000000000000000000000000000c0c0c0",
        "blocks": [
            {
                "blockHeader": {
                    "parentHash": "0x9ef51da8f7de9dafd4bfca16496211cbdb116af2303a9262fe757d5d15834d6a",
                    "uncleHash": "0x1dcc4de8dec75d7aab85b567b6ccd41ad312451b948a7413f0a142fd40d49347",
                    "coinbase": "0x2adc25665018aa1fe0e6bc666dac8fc2697ff9ba",
                    "stateRoot": "0x74bb662df794aeaa15b5beb9ed730615772e47d3ea7e7537f928516d37abb3a7",
                    "transactionsTrie": "0x23ccf3129a9f6cf6ba31b7a58509931ab10c8b682f54306422fd698ce48b74e3",
                    "receiptTrie": "0xb342a86855880ee11de5772a443ffd84b0c45519b10a5d299814d381c50c8f0f",
                    "bloom": "0x00000000000000000000000000000000000000000000000000000000000000000000000000000000000000000000000000000000000000000000000000000000000000000000000000000000000000000000000000000000000000000000000000000000000000000000000000000000000000000000000000000000000000000000000000000000000000000000000000000000000000000000000000000000000000000000000000000000000000000000000000000000000000000000000000000000000000000000000000000000000000000000000000000000000000000000000000000000000000000000000000000000000000000000000000000000",
                    "difficulty": "0x00",
                    "number": "0x01",
                    "gasLimit": "0x01c9c380",
                    "gasUsed": "0x09e508",
                    "timestamp": "0x03e8",
                    "extraData": "0x00",
                    "mixHash": "0x0000000000000000000000000000000000000000000000000000000000020000",
                    "nonce": "0x0000000000000000",
                    "baseFeePerGas": "0x0a",
                    "withdrawalsRoot": "0x56e81f171bcc55a6ff8345e692c0f86e5b48e01b996cadc001622fb5e363b421",
                    "blobGasUsed": "0x00",
                    "excessBlobGas": "0x00",
                    "parentBeaconBlockRoot": "0x0000000000000000000000000000000000000000000000000000000000000000",
                    "hash": "0x966ce1a92d35e7547f48ae1ee723ab94a7526f47df096939156d4a5f87c9d030"
                },
                "transactions": [
                    {
                        "type": "0x00",
                        "chainId": "0x01",
                        "nonce": "0x00",
                        "gasPrice": "0x0a",
                        "gasLimit": "0x1a3ec0",
                        "to": "0x8b3623c74bbf83102adc34299d32b5cd0e7d8cb9",
                        "value": "0x00",
                        "data": "0x000000000000000000000000f4645c150a8060778ad94dffe302081fc222dedb",
                        "v": "0x26",
                        "r": "0x05737369db94d9a07d47edcc00640fe7d139be4acb1c95179efa819f814cdb8e",
                        "s": "0x62035dd9102a7556b46bf9960331c0623db64ea5f0e95fa78f4f4fe8a3057711",
                        "sender": "0xebaf50debf10e08302fe4280c32df010463ca297"
                    }
                ],
                "uncleHeaders": [],
                "withdrawals": [],
                "receipts": [
                    {
                        "transactionHash": "0xccbf1db898d8484b017d9edeb0fd49a5de642022baa83105430840d20db765da",
                        "type": "0x00",
                        "cumulativeGasUsed": "0x09e508",
                        "bloom": "0x00000000000000000000000000000000000000000000000000000000000000000000000000000000000000000000000000000000000000000000000000000000000000000000000000000000000000000000000000000000000000000000000000000000000000000000000000000000000000000000000000000000000000000000000000000000000000000000000000000000000000000000000000000000000000000000000000000000000000000000000000000000000000000000000000000000000000000000000000000000000000000000000000000000000000000000000000000000000000000000000000000000000000000000000000000000",
                        "logs": [],
                        "status": true,
                        "rlp": "0xf90109018309e508b9010000000000000000000000000000000000000000000000000000000000000000000000000000000000000000000000000000000000000000000000000000000000000000000000000000000000000000000000000000000000000000000000000000000000000000000000000000000000000000000000000000000000000000000000000000000000000000000000000000000000000000000000000000000000000000000000000000000000000000000000000000000000000000000000000000000000000000000000000000000000000000000000000000000000000000000000000000000000000000000000000000000000000000000000000000000000c0"
                    }
                ],
                "rlp": "0xf902c4f9023ba09ef51da8f7de9dafd4bfca16496211cbdb116af2303a9262fe757d5d15834d6aa01dcc4de8dec75d7aab85b567b6ccd41ad312451b948a7413f0a142fd40d49347942adc25665018aa1fe0e6bc666dac8fc2697ff9baa074bb662df794aeaa15b5beb9ed730615772e47d3ea7e7537f928516d37abb3a7a023ccf3129a9f6cf6ba31b7a58509931ab10c8b682f54306422fd698ce48b74e3a0b342a86855880ee11de5772a443ffd84b0c45519b10a5d299814d381c50c8f0fb901000000000000000000000000000000000000000000000000000000000000000000000000000000000000000000000000000000000000000000000000000000000000000000000000000000000000000000000000000000000000000000000000000000000000000000000000000000000000000000000000000000000000000000000000000000000000000000000000000000000000000000000000000000000000000000000000000000000000000000000000000000000000000000000000000000000000000000000000000000000000000000000000000000000000000000000000000000000000000000000000000000000000000000000000000000000080018401c9c3808309e5088203e800a000000000000000000000000000000000000000000000000000000000000200008800000000000000000aa056e81f171bcc55a6ff8345e692c0f86e5b48e01b996cadc001622fb5e363b4218080a00000000000000000000000000000000000000000000000000000000000000000f882f880800a831a3ec0948b3623c74bbf83102adc34299d32b5cd0e7d8cb980a0000000000000000000000000f4645c150a8060778ad94dffe302081fc222dedb26a005737369db94d9a07d47edcc00640fe7d139be4acb1c95179efa819f814cdb8ea062035dd9102a7556b46bf9960331c0623db64ea5f0e95fa78f4f4fe8a3057711c0c0",
                "blocknumber": "1"
            }
        ],
        "sealEngine": "NoProof",
        "_info": {
            "hash": "0x929bd0c8aff3235b369ffd0cc5bfc654c46a0971b83461a72d338b7f3479af39",
            "fixture-format": "blockchain_test",
            "comment": "`execution-specs` generated test",
            "filling-transition-tool": "2.19.0",
            "description": "Test_static_callcodecallcall_100_oogm_after2.",
            "url": "https://github.com/ethereum/execution-specs/blob/tests-bal@v5.6.1/tests/ported_static/stStaticCall/test_static_callcodecallcall_100_oogm_after2.py#L26",
            "metadata": {
                "opcode_count": {}
            }
        }
    },
    "tests/ported_static/stStaticCall/test_static_callcodecallcall_100_oogm_after2.py::test_static_callcodecallcall_100_oogm_after2[fork_Cancun-blockchain_test_from_state_test--v1]": {
        "network": "Cancun",
        "genesisBlockHeader": {
            "parentHash": "0x0000000000000000000000000000000000000000000000000000000000000000",
            "uncleHash": "0x1dcc4de8dec75d7aab85b567b6ccd41ad312451b948a7413f0a142fd40d49347",
            "coinbase": "0x0000000000000000000000000000000000000000",
            "stateRoot": "0x26d34b3d63183a73450405d8a3d5e34703bfc3ca88b0f5fbe7d2c633f94ac123",
            "transactionsTrie": "0x56e81f171bcc55a6ff8345e692c0f86e5b48e01b996cadc001622fb5e363b421",
            "receiptTrie": "0x56e81f171bcc55a6ff8345e692c0f86e5b48e01b996cadc001622fb5e363b421",
            "bloom": "0x00000000000000000000000000000000000000000000000000000000000000000000000000000000000000000000000000000000000000000000000000000000000000000000000000000000000000000000000000000000000000000000000000000000000000000000000000000000000000000000000000000000000000000000000000000000000000000000000000000000000000000000000000000000000000000000000000000000000000000000000000000000000000000000000000000000000000000000000000000000000000000000000000000000000000000000000000000000000000000000000000000000000000000000000000000000",
            "difficulty": "0x00",
            "number": "0x00",
            "gasLimit": "0x01c9c380",
            "gasUsed": "0x00",
            "timestamp": "0x00",
            "extraData": "0x00",
            "mixHash": "0x0000000000000000000000000000000000000000000000000000000000000000",
            "nonce": "0x0000000000000000",
            "baseFeePerGas": "0x0b",
            "withdrawalsRoot": "0x56e81f171bcc55a6ff8345e692c0f86e5b48e01b996cadc001622fb5e363b421",
            "blobGasUsed": "0x00",
            "excessBlobGas": "0x00",
            "parentBeaconBlockRoot": "0x0000000000000000000000000000000000000000000000000000000000000000",
            "hash": "0x9ef51da8f7de9dafd4bfca16496211cbdb116af2303a9262fe757d5d15834d6a"
        },
        "pre": {
            "0x000f3df6d732807ef1319fb7b8bb8522d0beac02": {
                "nonce": "0x01",
                "balance": "0x00",
                "code": "0x3373fffffffffffffffffffffffffffffffffffffffe14604d57602036146024575f5ffd5b5f35801560495762001fff810690815414603c575f5ffd5b62001fff01545f5260205ff35b5f5ffd5b62001fff42064281555f359062001fff015500",
                "storage": {}
            },
            "0x8b3623c74bbf83102adc34299d32b5cd0e7d8cb9": {
                "nonce": "0x00",
                "balance": "0x0de0b6b3a7640000",
                "code": "0x60406000604060003460003562092856f2600055600160015500",
                "storage": {}
            },
            "0xf4645c150a8060778ad94dffe302081fc222dedb": {
                "nonce": "0x00",
                "balance": "0x00",
                "code": "0x604060006040600073444df104ea3853bfeaa91a755136f33385d12eea62061ad0fa505b61c3506080511015603f5760013b506001608051016080526023565b00",
                "storage": {}
            },
            "0x444df104ea3853bfeaa91a755136f33385d12eea": {
                "nonce": "0x00",
                "balance": "0x00",
                "code": "0x604060006040600073335c5531b84765a7626e6e76688f18b81be5259c6201d4d4fa00",
                "storage": {}
            },
            "0x335c5531b84765a7626e6e76688f18b81be5259c": {
                "nonce": "0x00",
                "balance": "0x00",
                "code": "0x600160035200",
                "storage": {}
            },
            "0xebaf50debf10e08302fe4280c32df010463ca297": {
                "nonce": "0x00",
                "balance": "0x0de0b6b3a7640000",
                "code": "0x",
                "storage": {}
            }
        },
        "postState": {
            "0x000f3df6d732807ef1319fb7b8bb8522d0beac02": {
                "nonce": "0x01",
                "balance": "0x00",
                "code": "0x3373fffffffffffffffffffffffffffffffffffffffe14604d57602036146024575f5ffd5b5f35801560495762001fff810690815414603c575f5ffd5b62001fff01545f5260205ff35b5f5ffd5b62001fff42064281555f359062001fff015500",
                "storage": {
                    "0x03e8": "0x03e8"
                }
            },
            "0x8b3623c74bbf83102adc34299d32b5cd0e7d8cb9": {
                "nonce": "0x00",
                "balance": "0x0de0b6b3a7640001",
                "code": "0x60406000604060003460003562092856f2600055600160015500",
                "storage": {
                    "0x01": "0x01"
                }
            },
            "0xf4645c150a8060778ad94dffe302081fc222dedb": {
                "nonce": "0x00",
                "balance": "0x00",
                "code": "0x604060006040600073444df104ea3853bfeaa91a755136f33385d12eea62061ad0fa505b61c3506080511015603f5760013b506001608051016080526023565b00",
                "storage": {}
            },
            "0x444df104ea3853bfeaa91a755136f33385d12eea": {
                "nonce": "0x00",
                "balance": "0x00",
                "code": "0x604060006040600073335c5531b84765a7626e6e76688f18b81be5259c6201d4d4fa00",
                "storage": {}
            },
            "0x335c5531b84765a7626e6e76688f18b81be5259c": {
                "nonce": "0x00",
                "balance": "0x00",
                "code": "0x600160035200",
                "storage": {}
            },
            "0xebaf50debf10e08302fe4280c32df010463ca297": {
                "nonce": "0x01",
                "balance": "0x0de0b6b3a6ffae1f",
                "code": "0x",
                "storage": {}
            }
        },
        "lastblockhash": "0xb36e73133dda7c40c5acd2a1c4891420c32057e4981c3ff398612654f998e72e",
        "config": {
            "network": "Cancun",
            "chainid": "0x01",
            "blobSchedule": {
                "Cancun": {
                    "target": "0x03",
                    "max": "0x06",
                    "baseFeeUpdateFraction": "0x32f0ed"
                }
            }
        },
        "genesisRLP": "0xf9023cf90236a00000000000000000000000000000000000000000000000000000000000000000a01dcc4de8dec75d7aab85b567b6ccd41ad312451b948a7413f0a142fd40d49347940000000000000000000000000000000000000000a026d34b3d63183a73450405d8a3d5e34703bfc3ca88b0f5fbe7d2c633f94ac123a056e81f171bcc55a6ff8345e692c0f86e5b48e01b996cadc001622fb5e363b421a056e81f171bcc55a6ff8345e692c0f86e5b48e01b996cadc001622fb5e363b421b901000000000000000000000000000000000000000000000000000000000000000000000000000000000000000000000000000000000000000000000000000000000000000000000000000000000000000000000000000000000000000000000000000000000000000000000000000000000000000000000000000000000000000000000000000000000000000000000000000000000000000000000000000000000000000000000000000000000000000000000000000000000000000000000000000000000000000000000000000000000000000000000000000000000000000000000000000000000000000000000000000000000000000000000000000000000080808401c9c380808000a000000000000000000000000000000000000000000000000000000000000000008800000000000000000ba056e81f171bcc55a6ff8345e692c0f86e5b48e01b996cadc001622fb5e363b4218080a00000000000000000000000000000000000000000000000000000000000000000c0c0c0",
        "blocks": [
            {
                "blockHeader": {
                    "parentHash": "0x9ef51da8f7de9dafd4bfca16496211cbdb116af2303a9262fe757d5d15834d6a",
                    "uncleHash": "0x1dcc4de8dec75d7aab85b567b6ccd41ad312451b948a7413f0a142fd40d49347",
                    "coinbase": "0x2adc25665018aa1fe0e6bc666dac8fc2697ff9ba",
                    "stateRoot": "0x7ad6006f667bddd3a8e30eda0bdf6f93664cdb021aee749563c15828c0273f18",
                    "transactionsTrie": "0x9cd26fb839a4735093e6bbb42d01fc1ee19b3ac9e91be41a8b7c67fc0cea6b8f",
                    "receiptTrie": "0x70c12f0b6297f433272a1a9be05d82675980ffe3981877fa5489e71d368782f3",
                    "bloom": "0x00000000000000000000000000000000000000000000000000000000000000000000000000000000000000000000000000000000000000000000000000000000000000000000000000000000000000000000000000000000000000000000000000000000000000000000000000000000000000000000000000000000000000000000000000000000000000000000000000000000000000000000000000000000000000000000000000000000000000000000000000000000000000000000000000000000000000000000000000000000000000000000000000000000000000000000000000000000000000000000000000000000000000000000000000000000",
                    "difficulty": "0x00",
                    "number": "0x01",
                    "gasLimit": "0x01c9c380",
                    "gasUsed": "0x0a0830",
                    "timestamp": "0x03e8",
                    "extraData": "0x00",
                    "mixHash": "0x0000000000000000000000000000000000000000000000000000000000020000",
                    "nonce": "0x0000000000000000",
                    "baseFeePerGas": "0x0a",
                    "withdrawalsRoot": "0x56e81f171bcc55a6ff8345e692c0f86e5b48e01b996cadc001622fb5e363b421",
                    "blobGasUsed": "0x00",
                    "excessBlobGas": "0x00",
                    "parentBeaconBlockRoot": "0x0000000000000000000000000000000000000000000000000000000000000000",
                    "hash": "0xb36e73133dda7c40c5acd2a1c4891420c32057e4981c3ff398612654f998e72e"
                },
                "transactions": [
                    {
                        "type": "0x00",
                        "chainId": "0x01",
                        "nonce": "0x00",
                        "gasPrice": "0x0a",
                        "gasLimit": "0x1a3ec0",
                        "to": "0x8b3623c74bbf83102adc34299d32b5cd0e7d8cb9",
                        "value": "0x01",
                        "data": "0x000000000000000000000000f4645c150a8060778ad94dffe302081fc222dedb",
                        "v": "0x25",
                        "r": "0x2626a541a0d302b17cb836a2ed80a6e8e823ac39848cc748671316a8c60b17d3",
                        "s": "0x099b08087f942db0780309f24b88a941f0bdabea2a52c8726e0bd50226b38ae0",
                        "sender": "0xebaf50debf10e08302fe4280c32df010463ca297"
                    }
                ],
                "uncleHeaders": [],
                "withdrawals": [],
                "receipts": [
                    {
                        "transactionHash": "0xa32b388e4a52adb591a0fa7968d5a07ef18224e6e49f6e0c076260719af265dc",
                        "type": "0x00",
                        "cumulativeGasUsed": "0x0a0830",
                        "bloom": "0x00000000000000000000000000000000000000000000000000000000000000000000000000000000000000000000000000000000000000000000000000000000000000000000000000000000000000000000000000000000000000000000000000000000000000000000000000000000000000000000000000000000000000000000000000000000000000000000000000000000000000000000000000000000000000000000000000000000000000000000000000000000000000000000000000000000000000000000000000000000000000000000000000000000000000000000000000000000000000000000000000000000000000000000000000000000",
                        "logs": [],
                        "status": true,
                        "rlp": "0xf9010901830a0830b9010000000000000000000000000000000000000000000000000000000000000000000000000000000000000000000000000000000000000000000000000000000000000000000000000000000000000000000000000000000000000000000000000000000000000000000000000000000000000000000000000000000000000000000000000000000000000000000000000000000000000000000000000000000000000000000000000000000000000000000000000000000000000000000000000000000000000000000000000000000000000000000000000000000000000000000000000000000000000000000000000000000000000000000000000000000000c0"
                    }
                ],
                "rlp": "0xf902c4f9023ba09ef51da8f7de9dafd4bfca16496211cbdb116af2303a9262fe757d5d15834d6aa01dcc4de8dec75d7aab85b567b6ccd41ad312451b948a7413f0a142fd40d49347942adc25665018aa1fe0e6bc666dac8fc2697ff9baa07ad6006f667bddd3a8e30eda0bdf6f93664cdb021aee749563c15828c0273f18a09cd26fb839a4735093e6bbb42d01fc1ee19b3ac9e91be41a8b7c67fc0cea6b8fa070c12f0b6297f433272a1a9be05d82675980ffe3981877fa5489e71d368782f3b901000000000000000000000000000000000000000000000000000000000000000000000000000000000000000000000000000000000000000000000000000000000000000000000000000000000000000000000000000000000000000000000000000000000000000000000000000000000000000000000000000000000000000000000000000000000000000000000000000000000000000000000000000000000000000000000000000000000000000000000000000000000000000000000000000000000000000000000000000000000000000000000000000000000000000000000000000000000000000000000000000000000000000000000000000000000080018401c9c380830a08308203e800a000000000000000000000000000000000000000000000000000000000000200008800000000000000000aa056e81f171bcc55a6ff8345e692c0f86e5b48e01b996cadc001622fb5e363b4218080a00000000000000000000000000000000000000000000000000000000000000000f882f880800a831a3ec0948b3623c74bbf83102adc34299d32b5cd0e7d8cb901a0000000000000000000000000f4645c150a8060778ad94dffe302081fc222dedb25a02626a541a0d302b17cb836a2ed80a6e8e823ac39848cc748671316a8c60b17d3a0099b08087f942db0780309f24b88a941f0bdabea2a52c8726e0bd50226b38ae0c0c0",
                "blocknumber": "1"
            }
        ],
        "sealEngine": "NoProof",
        "_info": {
            "hash": "0x172edc503884d7863a227a41b8799326553782b081d21367383222a58b5b4c01",
            "fixture-format": "blockchain_test",
            "comment": "`execution-specs` generated test",
            "filling-transition-tool": "2.19.0",
            "description": "Test_static_callcodecallcall_100_oogm_after2.",
            "url": "https://github.com/ethereum/execution-specs/blob/tests-bal@v5.6.1/tests/ported_static/stStaticCall/test_static_callcodecallcall_100_oogm_after2.py#L26",
            "metadata": {
                "opcode_count": {}
            }
        }
    }
}