{
    "tests/ported_static/stStaticCall/test_static_callcall_00_ooge_1.py::test_static_callcall_00_ooge_1[fork_Cancun-blockchain_test_from_state_test-d0]": {
        "network": "Cancun",
        "genesisBlockHeader": {
            "parentHash": "0x0000000000000000000000000000000000000000000000000000000000000000",
            "uncleHash": "0x1dcc4de8dec75d7aab85b567b6ccd41ad312451b948a7413f0a142fd40d49347",
            "coinbase": "0x0000000000000000000000000000000000000000",
            "stateRoot": "0x20fa9e9d0c454d7819d23c68ce1b7a71c5572fdd3054ea09bc442612e1a608fe",
            "transactionsTrie": "0x56e81f171bcc55a6ff8345e692c0f86e5b48e01b996cadc001622fb5e363b421",
            "receiptTrie": "0x56e81f171bcc55a6ff8345e692c0f86e5b48e01b996cadc001622fb5e363b421",
            "bloom": "0x00000000000000000000000000000000000000000000000000000000000000000000000000000000000000000000000000000000000000000000000000000000000000000000000000000000000000000000000000000000000000000000000000000000000000000000000000000000000000000000000000000000000000000000000000000000000000000000000000000000000000000000000000000000000000000000000000000000000000000000000000000000000000000000000000000000000000000000000000000000000000000000000000000000000000000000000000000000000000000000000000000000000000000000000000000000",
            "difficulty": "0x00",
            "number": "0x00",
            "gasLimit": "0x01c9c380",
            "gasUsed": "0x00",
            "timestamp": "0x00",
            "extraData": "0x00",
            "mixHash": "0x0000000000000000000000000000000000000000000000000000000000000000",
            "nonce": "0x0000000000000000",
            "baseFeePerGas": "0x0b",
            "withdrawalsRoot": "0x56e81f171bcc55a6ff8345e692c0f86e5b48e01b996cadc001622fb5e363b421",
            "blobGasUsed": "0x00",
            "excessBlobGas": "0x00",
            "parentBeaconBlockRoot": "0x0000000000000000000000000000000000000000000000000000000000000000",
            "hash": "0x878f606507d638d4237fe7c2015dd9c89ffc2e61e96876ca1b29bec1269b279b"
        },
        "pre": {
            "0x000f3df6d732807ef1319fb7b8bb8522d0beac02": {
                "nonce": "0x01",
                "balance": "0x00",
                "code": "0x3373fffffffffffffffffffffffffffffffffffffffe14604d57602036146024575f5ffd5b5f35801560495762001fff810690815414603c575f5ffd5b62001fff01545f5260205ff35b5f5ffd5b62001fff42064281555f359062001fff015500",
                "storage": {}
            },
            "0xc0e4183389eb57f779a986d8c878f89b9401dc8e": {
                "nonce": "0x00",
                "balance": "0x00",
                "code": "0x6000600060006000346000355af1600055600160015500",
                "storage": {}
            },
            "0xa2ca69f1cf9ffa7a761899e8dd2f941d40326fd6": {
                "nonce": "0x00",
                "balance": "0x0de0b6b3a7640000",
                "code": "0x604060006040600073a122fc55193a6573fa47c988f537ae631e411058620249f0fa60005500",
                "storage": {}
            },
            "0xa122fc55193a6573fa47c988f537ae631e411058": {
                "nonce": "0x00",
                "balance": "0x0de0b6b3a7640000",
                "code": "0x6001600252604060006040600073a65f4b36f21ef107a26ab282b736f93d47bf83de620186a0fa50600160205200",
                "storage": {}
            },
            "0xa65f4b36f21ef107a26ab282b736f93d47bf83de": {
                "nonce": "0x00",
                "balance": "0x00",
                "code": "0x60016002553460055500",
                "storage": {}
            },
            "0x998a75f1a4457fb7b5872c51f34aa7256f732b1e": {
                "nonce": "0x00",
                "balance": "0x0de0b6b3a7640000",
                "code": "0x6040600060406000731d401212ba6c32405b4fdc993079acab6c7aab6f620249f0fa60005500",
                "storage": {}
            },
            "0x1d401212ba6c32405b4fdc993079acab6c7aab6f": {
                "nonce": "0x00",
                "balance": "0x0de0b6b3a7640000",
                "code": "0x6001600252604060006040600073609e4dfe6190235b9a0362084c741d9ec330fb1e620186a0fa50600160205200",
                "storage": {}
            },
            "0x609e4dfe6190235b9a0362084c741d9ec330fb1e": {
                "nonce": "0x00",
                "balance": "0x00",
                "code": "0x5b61c3506080511015601c5760013b506001608051016080526000565b00",
                "storage": {}
            },
            "0xebaf50debf10e08302fe4280c32df010463ca297": {
                "nonce": "0x00",
                "balance": "0x0de0b6b3a7640000",
                "code": "0x",
                "storage": {}
            }
        },
        "postState": {
            "0x000f3df6d732807ef1319fb7b8bb8522d0beac02": {
                "nonce": "0x01",
                "balance": "0x00",
                "code": "0x3373fffffffffffffffffffffffffffffffffffffffe14604d57602036146024575f5ffd5b5f35801560495762001fff810690815414603c575f5ffd5b62001fff01545f5260205ff35b5f5ffd5b62001fff42064281555f359062001fff015500",
                "storage": {
                    "0x03e8": "0x03e8"
                }
            },
            "0xc0e4183389eb57f779a986d8c878f89b9401dc8e": {
                "nonce": "0x00",
                "balance": "0x00",
                "code": "0x6000600060006000346000355af1600055600160015500",
                "storage": {
                    "0x00": "0x01",
                    "0x01": "0x01"
                }
            },
            "0xa2ca69f1cf9ffa7a761899e8dd2f941d40326fd6": {
                "nonce": "0x00",
                "balance": "0x0de0b6b3a7640000",
                "code": "0x604060006040600073a122fc55193a6573fa47c988f537ae631e411058620249f0fa60005500",
                "storage": {
                    "0x00": "0x01"
                }
            },
            "0xa122fc55193a6573fa47c988f537ae631e411058": {
                "nonce": "0x00",
                "balance": "0x0de0b6b3a7640000",
                "code": "0x6001600252604060006040600073a65f4b36f21ef107a26ab282b736f93d47bf83de620186a0fa50600160205200",
                "storage": {}
            },
            "0xa65f4b36f21ef107a26ab282b736f93d47bf83de": {
                "nonce": "0x00",
                "balance": "0x00",
                "code": "0x60016002553460055500",
                "storage": {}
            },
            "0x998a75f1a4457fb7b5872c51f34aa7256f732b1e": {
                "nonce": "0x00",
                "balance": "0x0de0b6b3a7640000",
                "code": "0x6040600060406000731d401212ba6c32405b4fdc993079acab6c7aab6f620249f0fa60005500",
                "storage": {}
            },
            "0x1d401212ba6c32405b4fdc993079acab6c7aab6f": {
                "nonce": "0x00",
                "balance": "0x0de0b6b3a7640000",
                "code": "0x6001600252604060006040600073609e4dfe6190235b9a0362084c741d9ec330fb1e620186a0fa50600160205200",
                "storage": {}
            },
            "0x609e4dfe6190235b9a0362084c741d9ec330fb1e": {
                "nonce": "0x00",
                "balance": "0x00",
                "code": "0x5b61c3506080511015601c5760013b506001608051016080526000565b00",
                "storage": {}
            },
            "0xebaf50debf10e08302fe4280c32df010463ca297": {
                "nonce": "0x01",
                "balance": "0x0de0b6b3a746288c",
                "code": "0x",
                "storage": {}
            }
        },
        "lastblockhash": "0xb0563b01df8cddcec9829271be6151387c9df1fe6a4d65dcb7d190d3234fee54",
        "config": {
            "network": "Cancun",
            "chainid": "0x01",
            "blobSchedule": {
                "Cancun": {
                    "target": "0x03",
                    "max": "0x06",
                    "baseFeeUpdateFraction": "0x32f0ed"
                }
            }
        },
        "genesisRLP": "0xf9023cf90236a00000000000000000000000000000000000000000000000000000000000000000a01dcc4de8dec75d7aab85b567b6ccd41ad312451b948a7413f0a142fd40d49347940000000000000000000000000000000000000000a020fa9e9d0c454d7819d23c68ce1b7a71c5572fdd3054ea09bc442612e1a608fea056e81f171bcc55a6ff8345e692c0f86e5b48e01b996cadc001622fb5e363b421a056e81f171bcc55a6ff8345e692c0f86e5b48e01b996cadc001622fb5e363b421b901000000000000000000000000000000000000000000000000000000000000000000000000000000000000000000000000000000000000000000000000000000000000000000000000000000000000000000000000000000000000000000000000000000000000000000000000000000000000000000000000000000000000000000000000000000000000000000000000000000000000000000000000000000000000000000000000000000000000000000000000000000000000000000000000000000000000000000000000000000000000000000000000000000000000000000000000000000000000000000000000000000000000000000000000000000000080808401c9c380808000a000000000000000000000000000000000000000000000000000000000000000008800000000000000000ba056e81f171bcc55a6ff8345e692c0f86e5b48e01b996cadc001622fb5e363b4218080a00000000000000000000000000000000000000000000000000000000000000000c0c0c0",
        "blocks": [
            {
                "blockHeader": {
                    "parentHash": "0x878f606507d638d4237fe7c2015dd9c89ffc2e61e96876ca1b29bec1269b279b",
                    "uncleHash": "0x1dcc4de8dec75d7aab85b567b6ccd41ad312451b948a7413f0a142fd40d49347",
                    "coinbase": "0x2adc25665018aa1fe0e6bc666dac8fc2697ff9ba",
                    "stateRoot": "0x2dfae7a780190c23373a3cc6e182bad7e4f0bac435aba2415aabcb3e54e7f464",
                    "transactionsTrie": "0x6c22d9cf1f7eab05c718342a1953a2cf5b53b00a8812f5fb5c114b8aa27b3196",
                    "receiptTrie": "0x6ff5b773cdc3fe95a2a7198eb620b361e7f3a4f799b1dec07455c02f2b2b0edd",
                    "bloom": "0x00000000000000000000000000000000000000000000000000000000000000000000000000000000000000000000000000000000000000000000000000000000000000000000000000000000000000000000000000000000000000000000000000000000000000000000000000000000000000000000000000000000000000000000000000000000000000000000000000000000000000000000000000000000000000000000000000000000000000000000000000000000000000000000000000000000000000000000000000000000000000000000000000000000000000000000000000000000000000000000000000000000000000000000000000000000",
                    "difficulty": "0x00",
                    "number": "0x01",
                    "gasLimit": "0x01c9c380",
                    "gasUsed": "0x02fbf2",
                    "timestamp": "0x03e8",
                    "extraData": "0x00",
                    "mixHash": "0x0000000000000000000000000000000000000000000000000000000000020000",
                    "nonce": "0x0000000000000000",
                    "baseFeePerGas": "0x0a",
                    "withdrawalsRoot": "0x56e81f171bcc55a6ff8345e692c0f86e5b48e01b996cadc001622fb5e363b421",
                    "blobGasUsed": "0x00",
                    "excessBlobGas": "0x00",
                    "parentBeaconBlockRoot": "0x0000000000000000000000000000000000000000000000000000000000000000",
                    "hash": "0xb0563b01df8cddcec9829271be6151387c9df1fe6a4d65dcb7d190d3234fee54"
                },
                "transactions": [
                    {
                        "type": "0x00",
                        "chainId": "0x01",
                        "nonce": "0x00",
                        "gasPrice": "0x0a",
                        "gasLimit": "0x05cca2",
                        "to": "0xc0e4183389eb57f779a986d8c878f89b9401dc8e",
                        "value": "0x00",
                        "data": "0x000000000000000000000000a2ca69f1cf9ffa7a761899e8dd2f941d40326fd6",
                        "v": "0x25",
                        "r": "0xb7a71fb26ffb13447f3d0b4db2a3f8373c8c7ba2f6a8822977abe8ea530e52ab",
                        "s": "0x1e2b84676cb6d6e83cad0679d49140c2f8c2e8010d525776a77273c712511b9b",
                        "sender": "0xebaf50debf10e08302fe4280c32df010463ca297"
                    }
                ],
                "uncleHeaders": [],
                "withdrawals": [],
                "receipts": [
                    {
                        "transactionHash": "0xc22125f394bc598b21fce6e4a62abf6410a3b7c753e6c378f2bf9259521216d9",
                        "type": "0x00",
                        "cumulativeGasUsed": "0x02fbf2",
                        "bloom": "0x00000000000000000000000000000000000000000000000000000000000000000000000000000000000000000000000000000000000000000000000000000000000000000000000000000000000000000000000000000000000000000000000000000000000000000000000000000000000000000000000000000000000000000000000000000000000000000000000000000000000000000000000000000000000000000000000000000000000000000000000000000000000000000000000000000000000000000000000000000000000000000000000000000000000000000000000000000000000000000000000000000000000000000000000000000000",
                        "logs": [],
                        "status": true,
                        "rlp": "0xf90109018302fbf2b9010000000000000000000000000000000000000000000000000000000000000000000000000000000000000000000000000000000000000000000000000000000000000000000000000000000000000000000000000000000000000000000000000000000000000000000000000000000000000000000000000000000000000000000000000000000000000000000000000000000000000000000000000000000000000000000000000000000000000000000000000000000000000000000000000000000000000000000000000000000000000000000000000000000000000000000000000000000000000000000000000000000000000000000000000000000000c0"
                    }
                ],
                "rlp": "0xf902c4f9023ba0878f606507d638d4237fe7c2015dd9c89ffc2e61e96876ca1b29bec1269b279ba01dcc4de8dec75d7aab85b567b6ccd41ad312451b948a7413f0a142fd40d49347942adc25665018aa1fe0e6bc666dac8fc2697ff9baa02dfae7a780190c23373a3cc6e182bad7e4f0bac435aba2415aabcb3e54e7f464a06c22d9cf1f7eab05c718342a1953a2cf5b53b00a8812f5fb5c114b8aa27b3196a06ff5b773cdc3fe95a2a7198eb620b361e7f3a4f799b1dec07455c02f2b2b0eddb901000000000000000000000000000000000000000000000000000000000000000000000000000000000000000000000000000000000000000000000000000000000000000000000000000000000000000000000000000000000000000000000000000000000000000000000000000000000000000000000000000000000000000000000000000000000000000000000000000000000000000000000000000000000000000000000000000000000000000000000000000000000000000000000000000000000000000000000000000000000000000000000000000000000000000000000000000000000000000000000000000000000000000000000000000000000080018401c9c3808302fbf28203e800a000000000000000000000000000000000000000000000000000000000000200008800000000000000000aa056e81f171bcc55a6ff8345e692c0f86e5b48e01b996cadc001622fb5e363b4218080a00000000000000000000000000000000000000000000000000000000000000000f882f880800a8305cca294c0e4183389eb57f779a986d8c878f89b9401dc8e80a0000000000000000000000000a2ca69f1cf9ffa7a761899e8dd2f941d40326fd625a0b7a71fb26ffb13447f3d0b4db2a3f8373c8c7ba2f6a8822977abe8ea530e52aba01e2b84676cb6d6e83cad0679d49140c2f8c2e8010d525776a77273c712511b9bc0c0",
                "blocknumber": "1"
            }
        ],
        "sealEngine": "NoProof",
        "_info": {
            "hash": "0x66cd2dd4237c3da002f29097c51bb5e16257d4fbc21ad2fa56b6e772e5fc00c2",
            "fixture-format": "blockchain_test",
            "comment": "`execution-specs` generated test",
            "filling-transition-tool": "2.19.0",
            "description": "Test_static_callcall_00_ooge_1.",
            "url": "https://github.com/ethereum/execution-specs/blob/tests-bal@v5.6.0/tests/ported_static/stStaticCall/test_static_callcall_00_ooge_1.py#L29",
            "metadata": {
                "opcode_count": {}
            }
        }
    },
    "tests/ported_static/stStaticCall/test_static_callcall_00_ooge_1.py::test_static_callcall_00_ooge_1[fork_Cancun-blockchain_test_from_state_test-d1]": {
        "network": "Cancun",
        "genesisBlockHeader": {
            "parentHash": "0x0000000000000000000000000000000000000000000000000000000000000000",
            "uncleHash": "0x1dcc4de8dec75d7aab85b567b6ccd41ad312451b948a7413f0a142fd40d49347",
            "coinbase": "0x0000000000000000000000000000000000000000",
            "stateRoot": "0x20fa9e9d0c454d7819d23c68ce1b7a71c5572fdd3054ea09bc442612e1a608fe",
            "transactionsTrie": "0x56e81f171bcc55a6ff8345e692c0f86e5b48e01b996cadc001622fb5e363b421",
            "receiptTrie": "0x56e81f171bcc55a6ff8345e692c0f86e5b48e01b996cadc001622fb5e363b421",
            "bloom": "0x00000000000000000000000000000000000000000000000000000000000000000000000000000000000000000000000000000000000000000000000000000000000000000000000000000000000000000000000000000000000000000000000000000000000000000000000000000000000000000000000000000000000000000000000000000000000000000000000000000000000000000000000000000000000000000000000000000000000000000000000000000000000000000000000000000000000000000000000000000000000000000000000000000000000000000000000000000000000000000000000000000000000000000000000000000000",
            "difficulty": "0x00",
            "number": "0x00",
            "gasLimit": "0x01c9c380",
            "gasUsed": "0x00",
            "timestamp": "0x00",
            "extraData": "0x00",
            "mixHash": "0x0000000000000000000000000000000000000000000000000000000000000000",
            "nonce": "0x0000000000000000",
            "baseFeePerGas": "0x0b",
            "withdrawalsRoot": "0x56e81f171bcc55a6ff8345e692c0f86e5b48e01b996cadc001622fb5e363b421",
            "blobGasUsed": "0x00",
            "excessBlobGas": "0x00",
            "parentBeaconBlockRoot": "0x0000000000000000000000000000000000000000000000000000000000000000",
            "hash": "0x878f606507d638d4237fe7c2015dd9c89ffc2e61e96876ca1b29bec1269b279b"
        },
        "pre": {
            "0x000f3df6d732807ef1319fb7b8bb8522d0beac02": {
                "nonce": "0x01",
                "balance": "0x00",
                "code": "0x3373fffffffffffffffffffffffffffffffffffffffe14604d57602036146024575f5ffd5b5f35801560495762001fff810690815414603c575f5ffd5b62001fff01545f5260205ff35b5f5ffd5b62001fff42064281555f359062001fff015500",
                "storage": {}
            },
            "0xc0e4183389eb57f779a986d8c878f89b9401dc8e": {
                "nonce": "0x00",
                "balance": "0x00",
                "code": "0x6000600060006000346000355af1600055600160015500",
                "storage": {}
            },
            "0xa2ca69f1cf9ffa7a761899e8dd2f941d40326fd6": {
                "nonce": "0x00",
                "balance": "0x0de0b6b3a7640000",
                "code": "0x604060006040600073a122fc55193a6573fa47c988f537ae631e411058620249f0fa60005500",
                "storage": {}
            },
            "0xa122fc55193a6573fa47c988f537ae631e411058": {
                "nonce": "0x00",
                "balance": "0x0de0b6b3a7640000",
                "code": "0x6001600252604060006040600073a65f4b36f21ef107a26ab282b736f93d47bf83de620186a0fa50600160205200",
                "storage": {}
            },
            "0xa65f4b36f21ef107a26ab282b736f93d47bf83de": {
                "nonce": "0x00",
                "balance": "0x00",
                "code": "0x60016002553460055500",
                "storage": {}
            },
            "0x998a75f1a4457fb7b5872c51f34aa7256f732b1e": {
                "nonce": "0x00",
                "balance": "0x0de0b6b3a7640000",
                "code": "0x6040600060406000731d401212ba6c32405b4fdc993079acab6c7aab6f620249f0fa60005500",
                "storage": {}
            },
            "0x1d401212ba6c32405b4fdc993079acab6c7aab6f": {
                "nonce": "0x00",
                "balance": "0x0de0b6b3a7640000",
                "code": "0x6001600252604060006040600073609e4dfe6190235b9a0362084c741d9ec330fb1e620186a0fa50600160205200",
                "storage": {}
            },
            "0x609e4dfe6190235b9a0362084c741d9ec330fb1e": {
                "nonce": "0x00",
                "balance": "0x00",
                "code": "0x5b61c3506080511015601c5760013b506001608051016080526000565b00",
                "storage": {}
            },
            "0xebaf50debf10e08302fe4280c32df010463ca297": {
                "nonce": "0x00",
                "balance": "0x0de0b6b3a7640000",
                "code": "0x",
                "storage": {}
            }
        },
        "postState": {
            "0x000f3df6d732807ef1319fb7b8bb8522d0beac02": {
                "nonce": "0x01",
                "balance": "0x00",
                "code": "0x3373fffffffffffffffffffffffffffffffffffffffe14604d57602036146024575f5ffd5b5f35801560495762001fff810690815414603c575f5ffd5b62001fff01545f5260205ff35b5f5ffd5b62001fff42064281555f359062001fff015500",
                "storage": {
                    "0x03e8": "0x03e8"
                }
            },
            "0xc0e4183389eb57f779a986d8c878f89b9401dc8e": {
                "nonce": "0x00",
                "balance": "0x00",
                "code": "0x6000600060006000346000355af1600055600160015500",
                "storage": {
                    "0x00": "0x01",
                    "0x01": "0x01"
                }
            },
            "0xa2ca69f1cf9ffa7a761899e8dd2f941d40326fd6": {
                "nonce": "0x00",
                "balance": "0x0de0b6b3a7640000",
                "code": "0x604060006040600073a122fc55193a6573fa47c988f537ae631e411058620249f0fa60005500",
                "storage": {}
            },
            "0xa122fc55193a6573fa47c988f537ae631e411058": {
                "nonce": "0x00",
                "balance": "0x0de0b6b3a7640000",
                "code": "0x6001600252604060006040600073a65f4b36f21ef107a26ab282b736f93d47bf83de620186a0fa50600160205200",
                "storage": {}
            },
            "0xa65f4b36f21ef107a26ab282b736f93d47bf83de": {
                "nonce": "0x00",
                "balance": "0x00",
                "code": "0x60016002553460055500",
                "storage": {}
            },
            "0x998a75f1a4457fb7b5872c51f34aa7256f732b1e": {
                "nonce": "0x00",
                "balance": "0x0de0b6b3a7640000",
                "code": "0x6040600060406000731d401212ba6c32405b4fdc993079acab6c7aab6f620249f0fa60005500",
                "storage": {
                    "0x00": "0x01"
                }
            },
            "0x1d401212ba6c32405b4fdc993079acab6c7aab6f": {
                "nonce": "0x00",
                "balance": "0x0de0b6b3a7640000",
                "code": "0x6001600252604060006040600073609e4dfe6190235b9a0362084c741d9ec330fb1e620186a0fa50600160205200",
                "storage": {}
            },
            "0x609e4dfe6190235b9a0362084c741d9ec330fb1e": {
                "nonce": "0x00",
                "balance": "0x00",
                "code": "0x5b61c3506080511015601c5760013b506001608051016080526000565b00",
                "storage": {}
            },
            "0xebaf50debf10e08302fe4280c32df010463ca297": {
                "nonce": "0x01",
                "balance": "0x0de0b6b3a746288c",
                "code": "0x",
                "storage": {}
            }
        },
        "lastblockhash": "0xb4fddd03d5d13825aaa76e14a94701492bc6ee578fa7e7e5ae019eb97e0cfd7f",
        "config": {
            "network": "Cancun",
            "chainid": "0x01",
            "blobSchedule": {
                "Cancun": {
                    "target": "0x03",
                    "max": "0x06",
                    "baseFeeUpdateFraction": "0x32f0ed"
                }
            }
        },
        "genesisRLP": "0xf9023cf90236a00000000000000000000000000000000000000000000000000000000000000000a01dcc4de8dec75d7aab85b567b6ccd41ad312451b948a7413f0a142fd40d49347940000000000000000000000000000000000000000a020fa9e9d0c454d7819d23c68ce1b7a71c5572fdd3054ea09bc442612e1a608fea056e81f171bcc55a6ff8345e692c0f86e5b48e01b996cadc001622fb5e363b421a056e81f171bcc55a6ff8345e692c0f86e5b48e01b996cadc001622fb5e363b421b901000000000000000000000000000000000000000000000000000000000000000000000000000000000000000000000000000000000000000000000000000000000000000000000000000000000000000000000000000000000000000000000000000000000000000000000000000000000000000000000000000000000000000000000000000000000000000000000000000000000000000000000000000000000000000000000000000000000000000000000000000000000000000000000000000000000000000000000000000000000000000000000000000000000000000000000000000000000000000000000000000000000000000000000000000000000080808401c9c380808000a000000000000000000000000000000000000000000000000000000000000000008800000000000000000ba056e81f171bcc55a6ff8345e692c0f86e5b48e01b996cadc001622fb5e363b4218080a00000000000000000000000000000000000000000000000000000000000000000c0c0c0",
        "blocks": [
            {
                "blockHeader": {
                    "parentHash": "0x878f606507d638d4237fe7c2015dd9c89ffc2e61e96876ca1b29bec1269b279b",
                    "uncleHash": "0x1dcc4de8dec75d7aab85b567b6ccd41ad312451b948a7413f0a142fd40d49347",
                    "coinbase": "0x2adc25665018aa1fe0e6bc666dac8fc2697ff9ba",
                    "stateRoot": "0x7ffe449183feae43f232b2a38abc63984f62a9bda77d9918550c079c4819f5c2",
                    "transactionsTrie": "0x9cf1fb5efad7cea3d0d43075d612f2ba5fe39a2fb32b14fc28914b72b461dca4",
                    "receiptTrie": "0x6ff5b773cdc3fe95a2a7198eb620b361e7f3a4f799b1dec07455c02f2b2b0edd",
                    "bloom": "0x00000000000000000000000000000000000000000000000000000000000000000000000000000000000000000000000000000000000000000000000000000000000000000000000000000000000000000000000000000000000000000000000000000000000000000000000000000000000000000000000000000000000000000000000000000000000000000000000000000000000000000000000000000000000000000000000000000000000000000000000000000000000000000000000000000000000000000000000000000000000000000000000000000000000000000000000000000000000000000000000000000000000000000000000000000000",
                    "difficulty": "0x00",
                    "number": "0x01",
                    "gasLimit": "0x01c9c380",
                    "gasUsed": "0x02fbf2",
                    "timestamp": "0x03e8",
                    "extraData": "0x00",
                    "mixHash": "0x0000000000000000000000000000000000000000000000000000000000020000",
                    "nonce": "0x0000000000000000",
                    "baseFeePerGas": "0x0a",
                    "withdrawalsRoot": "0x56e81f171bcc55a6ff8345e692c0f86e5b48e01b996cadc001622fb5e363b421",
                    "blobGasUsed": "0x00",
                    "excessBlobGas": "0x00",
                    "parentBeaconBlockRoot": "0x0000000000000000000000000000000000000000000000000000000000000000",
                    "hash": "0xb4fddd03d5d13825aaa76e14a94701492bc6ee578fa7e7e5ae019eb97e0cfd7f"
                },
                "transactions": [
                    {
                        "type": "0x00",
                        "chainId": "0x01",
                        "nonce": "0x00",
                        "gasPrice": "0x0a",
                        "gasLimit": "0x05cca2",
                        "to": "0xc0e4183389eb57f779a986d8c878f89b9401dc8e",
                        "value": "0x00",
                        "data": "0x000000000000000000000000998a75f1a4457fb7b5872c51f34aa7256f732b1e",
                        "v": "0x25",
                        "r": "0x993e9264a08149184f24d0af792ba784b0627c722eebf5ff2198d31d3de2264d",
                        "s": "0x61232265bfcdac8f51c2004dd77d9df167105714a83c6994f8a8dde988452d87",
                        "sender": "0xebaf50debf10e08302fe4280c32df010463ca297"
                    }
                ],
                "uncleHeaders": [],
                "withdrawals": [],
                "receipts": [
                    {
                        "transactionHash": "0x53abd5062acfea13267fd7a70d639fd3c673c0f68a4641f1ef5e497efe976372",
                        "type": "0x00",
                        "cumulativeGasUsed": "0x02fbf2",
                        "bloom": "0x00000000000000000000000000000000000000000000000000000000000000000000000000000000000000000000000000000000000000000000000000000000000000000000000000000000000000000000000000000000000000000000000000000000000000000000000000000000000000000000000000000000000000000000000000000000000000000000000000000000000000000000000000000000000000000000000000000000000000000000000000000000000000000000000000000000000000000000000000000000000000000000000000000000000000000000000000000000000000000000000000000000000000000000000000000000",
                        "logs": [],
                        "status": true,
                        "rlp": "0xf90109018302fbf2b9010000000000000000000000000000000000000000000000000000000000000000000000000000000000000000000000000000000000000000000000000000000000000000000000000000000000000000000000000000000000000000000000000000000000000000000000000000000000000000000000000000000000000000000000000000000000000000000000000000000000000000000000000000000000000000000000000000000000000000000000000000000000000000000000000000000000000000000000000000000000000000000000000000000000000000000000000000000000000000000000000000000000000000000000000000000000c0"
                    }
                ],
                "rlp": "0xf902c4f9023ba0878f606507d638d4237fe7c2015dd9c89ffc2e61e96876ca1b29bec1269b279ba01dcc4de8dec75d7aab85b567b6ccd41ad312451b948a7413f0a142fd40d49347942adc25665018aa1fe0e6bc666dac8fc2697ff9baa07ffe449183feae43f232b2a38abc63984f62a9bda77d9918550c079c4819f5c2a09cf1fb5efad7cea3d0d43075d612f2ba5fe39a2fb32b14fc28914b72b461dca4a06ff5b773cdc3fe95a2a7198eb620b361e7f3a4f799b1dec07455c02f2b2b0eddb901000000000000000000000000000000000000000000000000000000000000000000000000000000000000000000000000000000000000000000000000000000000000000000000000000000000000000000000000000000000000000000000000000000000000000000000000000000000000000000000000000000000000000000000000000000000000000000000000000000000000000000000000000000000000000000000000000000000000000000000000000000000000000000000000000000000000000000000000000000000000000000000000000000000000000000000000000000000000000000000000000000000000000000000000000000000080018401c9c3808302fbf28203e800a000000000000000000000000000000000000000000000000000000000000200008800000000000000000aa056e81f171bcc55a6ff8345e692c0f86e5b48e01b996cadc001622fb5e363b4218080a00000000000000000000000000000000000000000000000000000000000000000f882f880800a8305cca294c0e4183389eb57f779a986d8c878f89b9401dc8e80a0000000000000000000000000998a75f1a4457fb7b5872c51f34aa7256f732b1e25a0993e9264a08149184f24d0af792ba784b0627c722eebf5ff2198d31d3de2264da061232265bfcdac8f51c2004dd77d9df167105714a83c6994f8a8dde988452d87c0c0",
                "blocknumber": "1"
            }
        ],
        "sealEngine": "NoProof",
        "_info": {
            "hash": "0x3dceded6b8484c41409cf45a36ed377a9f33fe796cd384ac003253095281616f",
            "fixture-format": "blockchain_test",
            "comment": "`execution-specs` generated test",
            "filling-transition-tool": "2.19.0",
            "description": "Test_static_callcall_00_ooge_1.",
            "url": "https://github.com/ethereum/execution-specs/blob/tests-bal@v5.6.0/tests/ported_static/stStaticCall/test_static_callcall_00_ooge_1.py#L29",
            "metadata": {
                "opcode_count": {}
            }
        }
    }
}