{
    "tests/homestead/identity_precompile/test_identity.py::test_identity_return_overwrite[fork_Berlin-call_opcode_CALL-blockchain_test_from_state_test]": {
        "network": "Berlin",
        "genesisBlockHeader": {
            "parentHash": "0x0000000000000000000000000000000000000000000000000000000000000000",
            "uncleHash": "0x1dcc4de8dec75d7aab85b567b6ccd41ad312451b948a7413f0a142fd40d49347",
            "coinbase": "0x0000000000000000000000000000000000000000",
            "stateRoot": "0xa55ba51d9647e5ab3340c91d348529c9f3821a7aaad27a265512e63a8f610337",
            "transactionsTrie": "0x56e81f171bcc55a6ff8345e692c0f86e5b48e01b996cadc001622fb5e363b421",
            "receiptTrie": "0x56e81f171bcc55a6ff8345e692c0f86e5b48e01b996cadc001622fb5e363b421",
            "bloom": "0x00000000000000000000000000000000000000000000000000000000000000000000000000000000000000000000000000000000000000000000000000000000000000000000000000000000000000000000000000000000000000000000000000000000000000000000000000000000000000000000000000000000000000000000000000000000000000000000000000000000000000000000000000000000000000000000000000000000000000000000000000000000000000000000000000000000000000000000000000000000000000000000000000000000000000000000000000000000000000000000000000000000000000000000000000000000",
            "difficulty": "0x020000",
            "number": "0x00",
            "gasLimit": "0x07270e00",
            "gasUsed": "0x00",
            "timestamp": "0x00",
            "extraData": "0x00",
            "mixHash": "0x0000000000000000000000000000000000000000000000000000000000000000",
            "nonce": "0x0000000000000000",
            "hash": "0x55ec05546431eae17abf7e4ea49fb2dd4c70a6b1c2a05c6ddf9c296705e3c4ec"
        },
        "pre": {
            "0x8f38ce870d0e867a05d1bc903da57c12038de136": {
                "nonce": "0x01",
                "balance": "0x00",
                "code": "0x60016000536002600153600360025360046003536004600160046000600060045af13d600060003e59600020600155",
                "storage": {}
            },
            "0x1ad9bc24818784172ff393bb6f89f094d4d2ca29": {
                "nonce": "0x00",
                "balance": "0x3635c9adc5dea00000",
                "code": "0x",
                "storage": {}
            }
        },
        "postState": {
            "0x8f38ce870d0e867a05d1bc903da57c12038de136": {
                "nonce": "0x01",
                "balance": "0x00",
                "code": "0x60016000536002600153600360025360046003536004600160046000600060045af13d600060003e59600020600155",
                "storage": {
                    "0x01": "0x52d7963d9a152455cd39d5b7efa696eb4d4fac938d51cf5d779e3792944aff7b"
                }
            },
            "0x1ad9bc24818784172ff393bb6f89f094d4d2ca29": {
                "nonce": "0x01",
                "balance": "0x3635c9adc5de99633a",
                "code": "0x",
                "storage": {}
            },
            "0x2adc25665018aa1fe0e6bc666dac8fc2697ff9ba": {
                "nonce": "0x00",
                "balance": "0x1bc16d674ece9cc6",
                "code": "0x",
                "storage": {}
            }
        },
        "lastblockhash": "0xc40fba1c1ce53235524d09e6bb1b1dd31aec617a51dbb79a34efa2504e265d30",
        "config": {
            "network": "Berlin",
            "chainid": "0x01"
        },
        "genesisRLP": "0xf901f9f901f4a00000000000000000000000000000000000000000000000000000000000000000a01dcc4de8dec75d7aab85b567b6ccd41ad312451b948a7413f0a142fd40d49347940000000000000000000000000000000000000000a0a55ba51d9647e5ab3340c91d348529c9f3821a7aaad27a265512e63a8f610337a056e81f171bcc55a6ff8345e692c0f86e5b48e01b996cadc001622fb5e363b421a056e81f171bcc55a6ff8345e692c0f86e5b48e01b996cadc001622fb5e363b421b901000000000000000000000000000000000000000000000000000000000000000000000000000000000000000000000000000000000000000000000000000000000000000000000000000000000000000000000000000000000000000000000000000000000000000000000000000000000000000000000000000000000000000000000000000000000000000000000000000000000000000000000000000000000000000000000000000000000000000000000000000000000000000000000000000000000000000000000000000000000000000000000000000000000000000000000000000000000000000000000000000000000000000000000000000000000083020000808407270e00808000a00000000000000000000000000000000000000000000000000000000000000000880000000000000000c0c0",
        "blocks": [
            {
                "blockHeader": {
                    "parentHash": "0x55ec05546431eae17abf7e4ea49fb2dd4c70a6b1c2a05c6ddf9c296705e3c4ec",
                    "uncleHash": "0x1dcc4de8dec75d7aab85b567b6ccd41ad312451b948a7413f0a142fd40d49347",
                    "coinbase": "0x2adc25665018aa1fe0e6bc666dac8fc2697ff9ba",
                    "stateRoot": "0xc1b7938bedd2d5fcc9244bc6a2ca9a0e46207c3264a89ef625e920942e5bc488",
                    "transactionsTrie": "0xbad8ac489bceb7ff7f6ad429e4a112acff2c2d45b3e06ba1d874c20d3721b900",
                    "receiptTrie": "0xd38af1b981fc250c57a8c5eec1c015d3dd7300d1cc3f45002f2d981da3c8ffde",
                    "bloom": "0x00000000000000000000000000000000000000000000000000000000000000000000000000000000000000000000000000000000000000000000000000000000000000000000000000000000000000000000000000000000000000000000000000000000000000000000000000000000000000000000000000000000000000000000000000000000000000000000000000000000000000000000000000000000000000000000000000000000000000000000000000000000000000000000000000000000000000000000000000000000000000000000000000000000000000000000000000000000000000000000000000000000000000000000000000000000",
                    "difficulty": "0x020000",
                    "number": "0x01",
                    "gasLimit": "0x07270e00",
                    "gasUsed": "0xa947",
                    "timestamp": "0x03e8",
                    "extraData": "0x00",
                    "mixHash": "0x0000000000000000000000000000000000000000000000000000000000000000",
                    "nonce": "0x0000000000000000",
                    "hash": "0xc40fba1c1ce53235524d09e6bb1b1dd31aec617a51dbb79a34efa2504e265d30"
                },
                "transactions": [
                    {
                        "type": "0x00",
                        "chainId": "0x01",
                        "nonce": "0x00",
                        "gasPrice": "0x0a",
                        "gasLimit": "0x0186a0",
                        "to": "0x8f38ce870d0e867a05d1bc903da57c12038de136",
                        "value": "0x00",
                        "data": "0x",
                        "v": "0x26",
                        "r": "0x7d7ebd56616af083c8be70615d33cf23be1e71b357154d364786fbdf20136a30",
                        "s": "0x509adb96bf0fd4e3de3e2f5ded07569ea7e053d799963953cc18f9593e4016c6",
                        "sender": "0x1ad9bc24818784172ff393bb6f89f094d4d2ca29"
                    }
                ],
                "uncleHeaders": [],
                "receipts": [
                    {
                        "transactionHash": "0x979323c08baf656a3236672072d8dda0a7b38f4f249b9534f2d81dacc0fce780",
                        "type": "0x00",
                        "cumulativeGasUsed": "0xa947",
                        "bloom": "0x00000000000000000000000000000000000000000000000000000000000000000000000000000000000000000000000000000000000000000000000000000000000000000000000000000000000000000000000000000000000000000000000000000000000000000000000000000000000000000000000000000000000000000000000000000000000000000000000000000000000000000000000000000000000000000000000000000000000000000000000000000000000000000000000000000000000000000000000000000000000000000000000000000000000000000000000000000000000000000000000000000000000000000000000000000000",
                        "logs": [],
                        "status": true,
                        "rlp": "0xf901080182a947b9010000000000000000000000000000000000000000000000000000000000000000000000000000000000000000000000000000000000000000000000000000000000000000000000000000000000000000000000000000000000000000000000000000000000000000000000000000000000000000000000000000000000000000000000000000000000000000000000000000000000000000000000000000000000000000000000000000000000000000000000000000000000000000000000000000000000000000000000000000000000000000000000000000000000000000000000000000000000000000000000000000000000000000000000000000000000c0"
                    }
                ],
                "rlp": "0xf90260f901f8a055ec05546431eae17abf7e4ea49fb2dd4c70a6b1c2a05c6ddf9c296705e3c4eca01dcc4de8dec75d7aab85b567b6ccd41ad312451b948a7413f0a142fd40d49347942adc25665018aa1fe0e6bc666dac8fc2697ff9baa0c1b7938bedd2d5fcc9244bc6a2ca9a0e46207c3264a89ef625e920942e5bc488a0bad8ac489bceb7ff7f6ad429e4a112acff2c2d45b3e06ba1d874c20d3721b900a0d38af1b981fc250c57a8c5eec1c015d3dd7300d1cc3f45002f2d981da3c8ffdeb901000000000000000000000000000000000000000000000000000000000000000000000000000000000000000000000000000000000000000000000000000000000000000000000000000000000000000000000000000000000000000000000000000000000000000000000000000000000000000000000000000000000000000000000000000000000000000000000000000000000000000000000000000000000000000000000000000000000000000000000000000000000000000000000000000000000000000000000000000000000000000000000000000000000000000000000000000000000000000000000000000000000000000000000000000000000083020000018407270e0082a9478203e800a00000000000000000000000000000000000000000000000000000000000000000880000000000000000f862f860800a830186a0948f38ce870d0e867a05d1bc903da57c12038de136808026a07d7ebd56616af083c8be70615d33cf23be1e71b357154d364786fbdf20136a30a0509adb96bf0fd4e3de3e2f5ded07569ea7e053d799963953cc18f9593e4016c6c0",
                "blocknumber": "1"
            }
        ],
        "sealEngine": "NoProof",
        "_info": {
            "hash": "0x4adf0736ffcfe98958599b5eb0f3e8458705ed5de1134f03cf4cc4889df61ee0",
            "fixture-format": "blockchain_test",
            "comment": "`execution-specs` generated test",
            "filling-transition-tool": "2.19.0",
            "description": "Test the return data of the identity precompile overwriting its input.",
            "url": "https://github.com/ethereum/execution-specs/blob/tests-bal@v5.7.0/tests/homestead/identity_precompile/test_identity.py#L15",
            "metadata": {
                "opcode_count": {}
            }
        }
    },
    "tests/homestead/identity_precompile/test_identity.py::test_identity_return_overwrite[fork_Berlin-call_opcode_CALLCODE-blockchain_test_from_state_test]": {
        "network": "Berlin",
        "genesisBlockHeader": {
            "parentHash": "0x0000000000000000000000000000000000000000000000000000000000000000",
            "uncleHash": "0x1dcc4de8dec75d7aab85b567b6ccd41ad312451b948a7413f0a142fd40d49347",
            "coinbase": "0x0000000000000000000000000000000000000000",
            "stateRoot": "0xd00797cdcaf4d5e59630f57f6b275cc9b6a85a1631163a8555a230f119bfbabc",
            "transactionsTrie": "0x56e81f171bcc55a6ff8345e692c0f86e5b48e01b996cadc001622fb5e363b421",
            "receiptTrie": "0x56e81f171bcc55a6ff8345e692c0f86e5b48e01b996cadc001622fb5e363b421",
            "bloom": "0x00000000000000000000000000000000000000000000000000000000000000000000000000000000000000000000000000000000000000000000000000000000000000000000000000000000000000000000000000000000000000000000000000000000000000000000000000000000000000000000000000000000000000000000000000000000000000000000000000000000000000000000000000000000000000000000000000000000000000000000000000000000000000000000000000000000000000000000000000000000000000000000000000000000000000000000000000000000000000000000000000000000000000000000000000000000",
            "difficulty": "0x020000",
            "number": "0x00",
            "gasLimit": "0x07270e00",
            "gasUsed": "0x00",
            "timestamp": "0x00",
            "extraData": "0x00",
            "mixHash": "0x0000000000000000000000000000000000000000000000000000000000000000",
            "nonce": "0x0000000000000000",
            "hash": "0x89ab3ad70a0c6278912bd386a78354d96e79cb063c9243737386c5e6c8c38c0d"
        },
        "pre": {
            "0x15294bddb3e2b8af5fe463e98b934420ef76c27e": {
                "nonce": "0x01",
                "balance": "0x00",
                "code": "0x60016000536002600153600360025360046003536004600160046000600060045af23d600060003e59600020600155",
                "storage": {}
            },
            "0x1ad9bc24818784172ff393bb6f89f094d4d2ca29": {
                "nonce": "0x00",
                "balance": "0x3635c9adc5dea00000",
                "code": "0x",
                "storage": {}
            }
        },
        "postState": {
            "0x15294bddb3e2b8af5fe463e98b934420ef76c27e": {
                "nonce": "0x01",
                "balance": "0x00",
                "code": "0x60016000536002600153600360025360046003536004600160046000600060045af23d600060003e59600020600155",
                "storage": {
                    "0x01": "0x52d7963d9a152455cd39d5b7efa696eb4d4fac938d51cf5d779e3792944aff7b"
                }
            },
            "0x1ad9bc24818784172ff393bb6f89f094d4d2ca29": {
                "nonce": "0x01",
                "balance": "0x3635c9adc5de99633a",
                "code": "0x",
                "storage": {}
            },
            "0x2adc25665018aa1fe0e6bc666dac8fc2697ff9ba": {
                "nonce": "0x00",
                "balance": "0x1bc16d674ece9cc6",
                "code": "0x",
                "storage": {}
            }
        },
        "lastblockhash": "0x60dd3c51887ee40dbe4932aeca0206007749d7826ef797ac4267d0d0b99ecc45",
        "config": {
            "network": "Berlin",
            "chainid": "0x01"
        },
        "genesisRLP": "0xf901f9f901f4a00000000000000000000000000000000000000000000000000000000000000000a01dcc4de8dec75d7aab85b567b6ccd41ad312451b948a7413f0a142fd40d49347940000000000000000000000000000000000000000a0d00797cdcaf4d5e59630f57f6b275cc9b6a85a1631163a8555a230f119bfbabca056e81f171bcc55a6ff8345e692c0f86e5b48e01b996cadc001622fb5e363b421a056e81f171bcc55a6ff8345e692c0f86e5b48e01b996cadc001622fb5e363b421b901000000000000000000000000000000000000000000000000000000000000000000000000000000000000000000000000000000000000000000000000000000000000000000000000000000000000000000000000000000000000000000000000000000000000000000000000000000000000000000000000000000000000000000000000000000000000000000000000000000000000000000000000000000000000000000000000000000000000000000000000000000000000000000000000000000000000000000000000000000000000000000000000000000000000000000000000000000000000000000000000000000000000000000000000000000000083020000808407270e00808000a00000000000000000000000000000000000000000000000000000000000000000880000000000000000c0c0",
        "blocks": [
            {
                "blockHeader": {
                    "parentHash": "0x89ab3ad70a0c6278912bd386a78354d96e79cb063c9243737386c5e6c8c38c0d",
                    "uncleHash": "0x1dcc4de8dec75d7aab85b567b6ccd41ad312451b948a7413f0a142fd40d49347",
                    "coinbase": "0x2adc25665018aa1fe0e6bc666dac8fc2697ff9ba",
                    "stateRoot": "0x16defd9d804ec2aaf4b4bd6245043de260b07ad8bdbaa93aa51247f009f1de18",
                    "transactionsTrie": "0x857520ce814044670549e796a3260432c418ea75e766014c87a565e8f568d0e3",
                    "receiptTrie": "0xd38af1b981fc250c57a8c5eec1c015d3dd7300d1cc3f45002f2d981da3c8ffde",
                    "bloom": "0x00000000000000000000000000000000000000000000000000000000000000000000000000000000000000000000000000000000000000000000000000000000000000000000000000000000000000000000000000000000000000000000000000000000000000000000000000000000000000000000000000000000000000000000000000000000000000000000000000000000000000000000000000000000000000000000000000000000000000000000000000000000000000000000000000000000000000000000000000000000000000000000000000000000000000000000000000000000000000000000000000000000000000000000000000000000",
                    "difficulty": "0x020000",
                    "number": "0x01",
                    "gasLimit": "0x07270e00",
                    "gasUsed": "0xa947",
                    "timestamp": "0x03e8",
                    "extraData": "0x00",
                    "mixHash": "0x0000000000000000000000000000000000000000000000000000000000000000",
                    "nonce": "0x0000000000000000",
                    "hash": "0x60dd3c51887ee40dbe4932aeca0206007749d7826ef797ac4267d0d0b99ecc45"
                },
                "transactions": [
                    {
                        "type": "0x00",
                        "chainId": "0x01",
                        "nonce": "0x00",
                        "gasPrice": "0x0a",
                        "gasLimit": "0x0186a0",
                        "to": "0x15294bddb3e2b8af5fe463e98b934420ef76c27e",
                        "value": "0x00",
                        "data": "0x",
                        "v": "0x25",
                        "r": "0x925417dcab4ee58a4787244ad3b7f89bcd7310a07cd261ed7e998dfa511bd429",
                        "s": "0x360cd1a1eef3edefdfe3187f407b58f5fa480a448f0b790a871e4a0f87b86572",
                        "sender": "0x1ad9bc24818784172ff393bb6f89f094d4d2ca29"
                    }
                ],
                "uncleHeaders": [],
                "receipts": [
                    {
                        "transactionHash": "0xede6930ba961c5efd6c785ac5b12c432ac259a297b01d2436f4219bae0aae96f",
                        "type": "0x00",
                        "cumulativeGasUsed": "0xa947",
                        "bloom": "0x00000000000000000000000000000000000000000000000000000000000000000000000000000000000000000000000000000000000000000000000000000000000000000000000000000000000000000000000000000000000000000000000000000000000000000000000000000000000000000000000000000000000000000000000000000000000000000000000000000000000000000000000000000000000000000000000000000000000000000000000000000000000000000000000000000000000000000000000000000000000000000000000000000000000000000000000000000000000000000000000000000000000000000000000000000000",
                        "logs": [],
                        "status": true,
                        "rlp": "0xf901080182a947b9010000000000000000000000000000000000000000000000000000000000000000000000000000000000000000000000000000000000000000000000000000000000000000000000000000000000000000000000000000000000000000000000000000000000000000000000000000000000000000000000000000000000000000000000000000000000000000000000000000000000000000000000000000000000000000000000000000000000000000000000000000000000000000000000000000000000000000000000000000000000000000000000000000000000000000000000000000000000000000000000000000000000000000000000000000000000c0"
                    }
                ],
                "rlp": "0xf90260f901f8a089ab3ad70a0c6278912bd386a78354d96e79cb063c9243737386c5e6c8c38c0da01dcc4de8dec75d7aab85b567b6ccd41ad312451b948a7413f0a142fd40d49347942adc25665018aa1fe0e6bc666dac8fc2697ff9baa016defd9d804ec2aaf4b4bd6245043de260b07ad8bdbaa93aa51247f009f1de18a0857520ce814044670549e796a3260432c418ea75e766014c87a565e8f568d0e3a0d38af1b981fc250c57a8c5eec1c015d3dd7300d1cc3f45002f2d981da3c8ffdeb901000000000000000000000000000000000000000000000000000000000000000000000000000000000000000000000000000000000000000000000000000000000000000000000000000000000000000000000000000000000000000000000000000000000000000000000000000000000000000000000000000000000000000000000000000000000000000000000000000000000000000000000000000000000000000000000000000000000000000000000000000000000000000000000000000000000000000000000000000000000000000000000000000000000000000000000000000000000000000000000000000000000000000000000000000000000083020000018407270e0082a9478203e800a00000000000000000000000000000000000000000000000000000000000000000880000000000000000f862f860800a830186a09415294bddb3e2b8af5fe463e98b934420ef76c27e808025a0925417dcab4ee58a4787244ad3b7f89bcd7310a07cd261ed7e998dfa511bd429a0360cd1a1eef3edefdfe3187f407b58f5fa480a448f0b790a871e4a0f87b86572c0",
                "blocknumber": "1"
            }
        ],
        "sealEngine": "NoProof",
        "_info": {
            "hash": "0xe2bc835b62fcdfaf7fe98507c52513006417b5f1ea16186b62cc928b9edd2c1d",
            "fixture-format": "blockchain_test",
            "comment": "`execution-specs` generated test",
            "filling-transition-tool": "2.19.0",
            "description": "Test the return data of the identity precompile overwriting its input.",
            "url": "https://github.com/ethereum/execution-specs/blob/tests-bal@v5.7.0/tests/homestead/identity_precompile/test_identity.py#L15",
            "metadata": {
                "opcode_count": {}
            }
        }
    },
    "tests/homestead/identity_precompile/test_identity.py::test_identity_return_overwrite[fork_Berlin-call_opcode_DELEGATECALL-blockchain_test_from_state_test]": {
        "network": "Berlin",
        "genesisBlockHeader": {
            "parentHash": "0x0000000000000000000000000000000000000000000000000000000000000000",
            "uncleHash": "0x1dcc4de8dec75d7aab85b567b6ccd41ad312451b948a7413f0a142fd40d49347",
            "coinbase": "0x0000000000000000000000000000000000000000",
            "stateRoot": "0xeb0bd33780c449d651dcd65cf9ecc51dab8d509968cf171b01030d06f21d6162",
            "transactionsTrie": "0x56e81f171bcc55a6ff8345e692c0f86e5b48e01b996cadc001622fb5e363b421",
            "receiptTrie": "0x56e81f171bcc55a6ff8345e692c0f86e5b48e01b996cadc001622fb5e363b421",
            "bloom": "0x00000000000000000000000000000000000000000000000000000000000000000000000000000000000000000000000000000000000000000000000000000000000000000000000000000000000000000000000000000000000000000000000000000000000000000000000000000000000000000000000000000000000000000000000000000000000000000000000000000000000000000000000000000000000000000000000000000000000000000000000000000000000000000000000000000000000000000000000000000000000000000000000000000000000000000000000000000000000000000000000000000000000000000000000000000000",
            "difficulty": "0x020000",
            "number": "0x00",
            "gasLimit": "0x07270e00",
            "gasUsed": "0x00",
            "timestamp": "0x00",
            "extraData": "0x00",
            "mixHash": "0x0000000000000000000000000000000000000000000000000000000000000000",
            "nonce": "0x0000000000000000",
            "hash": "0xaef3e39e3ddbf56afc69afcde7ab112e0da17972390584e869b25c02c0f0bd8e"
        },
        "pre": {
            "0x638810d6c4f925b12ca82ee79e6acaeb2ef6d5e5": {
                "nonce": "0x01",
                "balance": "0x00",
                "code": "0x6001600053600260015360036002536004600353600460016004600060045af43d600060003e59600020600155",
                "storage": {}
            },
            "0x1ad9bc24818784172ff393bb6f89f094d4d2ca29": {
                "nonce": "0x00",
                "balance": "0x3635c9adc5dea00000",
                "code": "0x",
                "storage": {}
            }
        },
        "postState": {
            "0x638810d6c4f925b12ca82ee79e6acaeb2ef6d5e5": {
                "nonce": "0x01",
                "balance": "0x00",
                "code": "0x6001600053600260015360036002536004600353600460016004600060045af43d600060003e59600020600155",
                "storage": {
                    "0x01": "0x52d7963d9a152455cd39d5b7efa696eb4d4fac938d51cf5d779e3792944aff7b"
                }
            },
            "0x1ad9bc24818784172ff393bb6f89f094d4d2ca29": {
                "nonce": "0x01",
                "balance": "0x3635c9adc5de996358",
                "code": "0x",
                "storage": {}
            },
            "0x2adc25665018aa1fe0e6bc666dac8fc2697ff9ba": {
                "nonce": "0x00",
                "balance": "0x1bc16d674ece9ca8",
                "code": "0x",
                "storage": {}
            }
        },
        "lastblockhash": "0xc3a470176d9a365b01cef3ae84ffd65bab3f8135b16051260ce95981f3314278",
        "config": {
            "network": "Berlin",
            "chainid": "0x01"
        },
        "genesisRLP": "0xf901f9f901f4a00000000000000000000000000000000000000000000000000000000000000000a01dcc4de8dec75d7aab85b567b6ccd41ad312451b948a7413f0a142fd40d49347940000000000000000000000000000000000000000a0eb0bd33780c449d651dcd65cf9ecc51dab8d509968cf171b01030d06f21d6162a056e81f171bcc55a6ff8345e692c0f86e5b48e01b996cadc001622fb5e363b421a056e81f171bcc55a6ff8345e692c0f86e5b48e01b996cadc001622fb5e363b421b901000000000000000000000000000000000000000000000000000000000000000000000000000000000000000000000000000000000000000000000000000000000000000000000000000000000000000000000000000000000000000000000000000000000000000000000000000000000000000000000000000000000000000000000000000000000000000000000000000000000000000000000000000000000000000000000000000000000000000000000000000000000000000000000000000000000000000000000000000000000000000000000000000000000000000000000000000000000000000000000000000000000000000000000000000000000083020000808407270e00808000a00000000000000000000000000000000000000000000000000000000000000000880000000000000000c0c0",
        "blocks": [
            {
                "blockHeader": {
                    "parentHash": "0xaef3e39e3ddbf56afc69afcde7ab112e0da17972390584e869b25c02c0f0bd8e",
                    "uncleHash": "0x1dcc4de8dec75d7aab85b567b6ccd41ad312451b948a7413f0a142fd40d49347",
                    "coinbase": "0x2adc25665018aa1fe0e6bc666dac8fc2697ff9ba",
                    "stateRoot": "0xc692aab9c67ece004ebd877fec837d7a86882a07d2cee66df68dd35044a15715",
                    "transactionsTrie": "0xb210251d90fb772719dbf185586441161ffb836fb7af7c1f328551b7612567f8",
                    "receiptTrie": "0xc67e2cf23bf5004ea21d2fdfdecb0044f7bba6cf0506430d03ecdb72cafbd78e",
                    "bloom": "0x00000000000000000000000000000000000000000000000000000000000000000000000000000000000000000000000000000000000000000000000000000000000000000000000000000000000000000000000000000000000000000000000000000000000000000000000000000000000000000000000000000000000000000000000000000000000000000000000000000000000000000000000000000000000000000000000000000000000000000000000000000000000000000000000000000000000000000000000000000000000000000000000000000000000000000000000000000000000000000000000000000000000000000000000000000000",
                    "difficulty": "0x020000",
                    "number": "0x01",
                    "gasLimit": "0x07270e00",
                    "gasUsed": "0xa944",
                    "timestamp": "0x03e8",
                    "extraData": "0x00",
                    "mixHash": "0x0000000000000000000000000000000000000000000000000000000000000000",
                    "nonce": "0x0000000000000000",
                    "hash": "0xc3a470176d9a365b01cef3ae84ffd65bab3f8135b16051260ce95981f3314278"
                },
                "transactions": [
                    {
                        "type": "0x00",
                        "chainId": "0x01",
                        "nonce": "0x00",
                        "gasPrice": "0x0a",
                        "gasLimit": "0x0186a0",
                        "to": "0x638810d6c4f925b12ca82ee79e6acaeb2ef6d5e5",
                        "value": "0x00",
                        "data": "0x",
                        "v": "0x26",
                        "r": "0xec3dbc3a662db1a5137ed3e75ac03a5e2ec6cb839c52e63179cd097ad30d1800",
                        "s": "0x1e4d274c91056daa5d8e3e906358eef5adaca7d0519ff5d97787b45fceb928f1",
                        "sender": "0x1ad9bc24818784172ff393bb6f89f094d4d2ca29"
                    }
                ],
                "uncleHeaders": [],
                "receipts": [
                    {
                        "transactionHash": "0x85089d736175738018a4c50e6e149c98a5d65534a0447805623b1150246e2787",
                        "type": "0x00",
                        "cumulativeGasUsed": "0xa944",
                        "bloom": "0x00000000000000000000000000000000000000000000000000000000000000000000000000000000000000000000000000000000000000000000000000000000000000000000000000000000000000000000000000000000000000000000000000000000000000000000000000000000000000000000000000000000000000000000000000000000000000000000000000000000000000000000000000000000000000000000000000000000000000000000000000000000000000000000000000000000000000000000000000000000000000000000000000000000000000000000000000000000000000000000000000000000000000000000000000000000",
                        "logs": [],
                        "status": true,
                        "rlp": "0xf901080182a944b9010000000000000000000000000000000000000000000000000000000000000000000000000000000000000000000000000000000000000000000000000000000000000000000000000000000000000000000000000000000000000000000000000000000000000000000000000000000000000000000000000000000000000000000000000000000000000000000000000000000000000000000000000000000000000000000000000000000000000000000000000000000000000000000000000000000000000000000000000000000000000000000000000000000000000000000000000000000000000000000000000000000000000000000000000000000000c0"
                    }
                ],
                "rlp": "0xf90260f901f8a0aef3e39e3ddbf56afc69afcde7ab112e0da17972390584e869b25c02c0f0bd8ea01dcc4de8dec75d7aab85b567b6ccd41ad312451b948a7413f0a142fd40d49347942adc25665018aa1fe0e6bc666dac8fc2697ff9baa0c692aab9c67ece004ebd877fec837d7a86882a07d2cee66df68dd35044a15715a0b210251d90fb772719dbf185586441161ffb836fb7af7c1f328551b7612567f8a0c67e2cf23bf5004ea21d2fdfdecb0044f7bba6cf0506430d03ecdb72cafbd78eb901000000000000000000000000000000000000000000000000000000000000000000000000000000000000000000000000000000000000000000000000000000000000000000000000000000000000000000000000000000000000000000000000000000000000000000000000000000000000000000000000000000000000000000000000000000000000000000000000000000000000000000000000000000000000000000000000000000000000000000000000000000000000000000000000000000000000000000000000000000000000000000000000000000000000000000000000000000000000000000000000000000000000000000000000000000000083020000018407270e0082a9448203e800a00000000000000000000000000000000000000000000000000000000000000000880000000000000000f862f860800a830186a094638810d6c4f925b12ca82ee79e6acaeb2ef6d5e5808026a0ec3dbc3a662db1a5137ed3e75ac03a5e2ec6cb839c52e63179cd097ad30d1800a01e4d274c91056daa5d8e3e906358eef5adaca7d0519ff5d97787b45fceb928f1c0",
                "blocknumber": "1"
            }
        ],
        "sealEngine": "NoProof",
        "_info": {
            "hash": "0x8bdbbb4d763011506205c80b1337260a00c65833bc17dc49521df84f27ed7fd4",
            "fixture-format": "blockchain_test",
            "comment": "`execution-specs` generated test",
            "filling-transition-tool": "2.19.0",
            "description": "Test the return data of the identity precompile overwriting its input.",
            "url": "https://github.com/ethereum/execution-specs/blob/tests-bal@v5.7.0/tests/homestead/identity_precompile/test_identity.py#L15",
            "metadata": {
                "opcode_count": {}
            }
        }
    },
    "tests/homestead/identity_precompile/test_identity.py::test_identity_return_overwrite[fork_Berlin-call_opcode_STATICCALL-blockchain_test_from_state_test]": {
        "network": "Berlin",
        "genesisBlockHeader": {
            "parentHash": "0x0000000000000000000000000000000000000000000000000000000000000000",
            "uncleHash": "0x1dcc4de8dec75d7aab85b567b6ccd41ad312451b948a7413f0a142fd40d49347",
            "coinbase": "0x0000000000000000000000000000000000000000",
            "stateRoot": "0x61892b64a73fb92d7edf99f5fc78a97890f1accdecba884022cca30c1720ac2b",
            "transactionsTrie": "0x56e81f171bcc55a6ff8345e692c0f86e5b48e01b996cadc001622fb5e363b421",
            "receiptTrie": "0x56e81f171bcc55a6ff8345e692c0f86e5b48e01b996cadc001622fb5e363b421",
            "bloom": "0x00000000000000000000000000000000000000000000000000000000000000000000000000000000000000000000000000000000000000000000000000000000000000000000000000000000000000000000000000000000000000000000000000000000000000000000000000000000000000000000000000000000000000000000000000000000000000000000000000000000000000000000000000000000000000000000000000000000000000000000000000000000000000000000000000000000000000000000000000000000000000000000000000000000000000000000000000000000000000000000000000000000000000000000000000000000",
            "difficulty": "0x020000",
            "number": "0x00",
            "gasLimit": "0x07270e00",
            "gasUsed": "0x00",
            "timestamp": "0x00",
            "extraData": "0x00",
            "mixHash": "0x0000000000000000000000000000000000000000000000000000000000000000",
            "nonce": "0x0000000000000000",
            "hash": "0xbdccd9d3680d0f3c285de810404e56115722afc8045d18ac3f2b1a73a7c0c446"
        },
        "pre": {
            "0x3dc5c69c1e5e8d204f26e394b6a1a182b770e8a6": {
                "nonce": "0x01",
                "balance": "0x00",
                "code": "0x6001600053600260015360036002536004600353600460016004600060045afa3d600060003e59600020600155",
                "storage": {}
            },
            "0x1ad9bc24818784172ff393bb6f89f094d4d2ca29": {
                "nonce": "0x00",
                "balance": "0x3635c9adc5dea00000",
                "code": "0x",
                "storage": {}
            }
        },
        "postState": {
            "0x3dc5c69c1e5e8d204f26e394b6a1a182b770e8a6": {
                "nonce": "0x01",
                "balance": "0x00",
                "code": "0x6001600053600260015360036002536004600353600460016004600060045afa3d600060003e59600020600155",
                "storage": {
                    "0x01": "0x52d7963d9a152455cd39d5b7efa696eb4d4fac938d51cf5d779e3792944aff7b"
                }
            },
            "0x1ad9bc24818784172ff393bb6f89f094d4d2ca29": {
                "nonce": "0x01",
                "balance": "0x3635c9adc5de996358",
                "code": "0x",
                "storage": {}
            },
            "0x2adc25665018aa1fe0e6bc666dac8fc2697ff9ba": {
                "nonce": "0x00",
                "balance": "0x1bc16d674ece9ca8",
                "code": "0x",
                "storage": {}
            }
        },
        "lastblockhash": "0x118a98c43b781ed36e3aac7d13f59f5c9e5b4b5074b26fdf5cd3b32d09d6bdfa",
        "config": {
            "network": "Berlin",
            "chainid": "0x01"
        },
        "genesisRLP": "0xf901f9f901f4a00000000000000000000000000000000000000000000000000000000000000000a01dcc4de8dec75d7aab85b567b6ccd41ad312451b948a7413f0a142fd40d49347940000000000000000000000000000000000000000a061892b64a73fb92d7edf99f5fc78a97890f1accdecba884022cca30c1720ac2ba056e81f171bcc55a6ff8345e692c0f86e5b48e01b996cadc001622fb5e363b421a056e81f171bcc55a6ff8345e692c0f86e5b48e01b996cadc001622fb5e363b421b901000000000000000000000000000000000000000000000000000000000000000000000000000000000000000000000000000000000000000000000000000000000000000000000000000000000000000000000000000000000000000000000000000000000000000000000000000000000000000000000000000000000000000000000000000000000000000000000000000000000000000000000000000000000000000000000000000000000000000000000000000000000000000000000000000000000000000000000000000000000000000000000000000000000000000000000000000000000000000000000000000000000000000000000000000000000083020000808407270e00808000a00000000000000000000000000000000000000000000000000000000000000000880000000000000000c0c0",
        "blocks": [
            {
                "blockHeader": {
                    "parentHash": "0xbdccd9d3680d0f3c285de810404e56115722afc8045d18ac3f2b1a73a7c0c446",
                    "uncleHash": "0x1dcc4de8dec75d7aab85b567b6ccd41ad312451b948a7413f0a142fd40d49347",
                    "coinbase": "0x2adc25665018aa1fe0e6bc666dac8fc2697ff9ba",
                    "stateRoot": "0x3122e7cc87bb04c7afa7a79cf1cb5c1ba6de742b672af44a70ab3e3f83b45f69",
                    "transactionsTrie": "0x5cbd7acd57f0e4766bb953ca43f3b71e5897e8fbc8cf36e146e6332a2d0b0a53",
                    "receiptTrie": "0xc67e2cf23bf5004ea21d2fdfdecb0044f7bba6cf0506430d03ecdb72cafbd78e",
                    "bloom": "0x00000000000000000000000000000000000000000000000000000000000000000000000000000000000000000000000000000000000000000000000000000000000000000000000000000000000000000000000000000000000000000000000000000000000000000000000000000000000000000000000000000000000000000000000000000000000000000000000000000000000000000000000000000000000000000000000000000000000000000000000000000000000000000000000000000000000000000000000000000000000000000000000000000000000000000000000000000000000000000000000000000000000000000000000000000000",
                    "difficulty": "0x020000",
                    "number": "0x01",
                    "gasLimit": "0x07270e00",
                    "gasUsed": "0xa944",
                    "timestamp": "0x03e8",
                    "extraData": "0x00",
                    "mixHash": "0x0000000000000000000000000000000000000000000000000000000000000000",
                    "nonce": "0x0000000000000000",
                    "hash": "0x118a98c43b781ed36e3aac7d13f59f5c9e5b4b5074b26fdf5cd3b32d09d6bdfa"
                },
                "transactions": [
                    {
                        "type": "0x00",
                        "chainId": "0x01",
                        "nonce": "0x00",
                        "gasPrice": "0x0a",
                        "gasLimit": "0x0186a0",
                        "to": "0x3dc5c69c1e5e8d204f26e394b6a1a182b770e8a6",
                        "value": "0x00",
                        "data": "0x",
                        "v": "0x26",
                        "r": "0x5f33485d0b82b081fb5f2c4454b952a24409f8451b5f43bbfc23b186f332ff1d",
                        "s": "0x54e8544dfe44a9ebefa92b9918fd6d7f68b732a7ec27c6a452cf9730707e9822",
                        "sender": "0x1ad9bc24818784172ff393bb6f89f094d4d2ca29"
                    }
                ],
                "uncleHeaders": [],
                "receipts": [
                    {
                        "transactionHash": "0xb863368dc76ceef11e8185aeb2a56a5775732c708d9a9cf1b73e04e2024b28cc",
                        "type": "0x00",
                        "cumulativeGasUsed": "0xa944",
                        "bloom": "0x00000000000000000000000000000000000000000000000000000000000000000000000000000000000000000000000000000000000000000000000000000000000000000000000000000000000000000000000000000000000000000000000000000000000000000000000000000000000000000000000000000000000000000000000000000000000000000000000000000000000000000000000000000000000000000000000000000000000000000000000000000000000000000000000000000000000000000000000000000000000000000000000000000000000000000000000000000000000000000000000000000000000000000000000000000000",
                        "logs": [],
                        "status": true,
                        "rlp": "0xf901080182a944b9010000000000000000000000000000000000000000000000000000000000000000000000000000000000000000000000000000000000000000000000000000000000000000000000000000000000000000000000000000000000000000000000000000000000000000000000000000000000000000000000000000000000000000000000000000000000000000000000000000000000000000000000000000000000000000000000000000000000000000000000000000000000000000000000000000000000000000000000000000000000000000000000000000000000000000000000000000000000000000000000000000000000000000000000000000000000c0"
                    }
                ],
                "rlp": "0xf90260f901f8a0bdccd9d3680d0f3c285de810404e56115722afc8045d18ac3f2b1a73a7c0c446a01dcc4de8dec75d7aab85b567b6ccd41ad312451b948a7413f0a142fd40d49347942adc25665018aa1fe0e6bc666dac8fc2697ff9baa03122e7cc87bb04c7afa7a79cf1cb5c1ba6de742b672af44a70ab3e3f83b45f69a05cbd7acd57f0e4766bb953ca43f3b71e5897e8fbc8cf36e146e6332a2d0b0a53a0c67e2cf23bf5004ea21d2fdfdecb0044f7bba6cf0506430d03ecdb72cafbd78eb901000000000000000000000000000000000000000000000000000000000000000000000000000000000000000000000000000000000000000000000000000000000000000000000000000000000000000000000000000000000000000000000000000000000000000000000000000000000000000000000000000000000000000000000000000000000000000000000000000000000000000000000000000000000000000000000000000000000000000000000000000000000000000000000000000000000000000000000000000000000000000000000000000000000000000000000000000000000000000000000000000000000000000000000000000000000083020000018407270e0082a9448203e800a00000000000000000000000000000000000000000000000000000000000000000880000000000000000f862f860800a830186a0943dc5c69c1e5e8d204f26e394b6a1a182b770e8a6808026a05f33485d0b82b081fb5f2c4454b952a24409f8451b5f43bbfc23b186f332ff1da054e8544dfe44a9ebefa92b9918fd6d7f68b732a7ec27c6a452cf9730707e9822c0",
                "blocknumber": "1"
            }
        ],
        "sealEngine": "NoProof",
        "_info": {
            "hash": "0x15281eb62e4f7a3a8aecf6f18e973e8bb1d401db055e5bc469619c2f4d217eb3",
            "fixture-format": "blockchain_test",
            "comment": "`execution-specs` generated test",
            "filling-transition-tool": "2.19.0",
            "description": "Test the return data of the identity precompile overwriting its input.",
            "url": "https://github.com/ethereum/execution-specs/blob/tests-bal@v5.7.0/tests/homestead/identity_precompile/test_identity.py#L15",
            "metadata": {
                "opcode_count": {}
            }
        }
    }
}