{
    "tests/static/state_tests/VMTests/vmArithmeticTest/notFiller.yml::not[fork_Cancun-state_test-]": {
        "env": {
            "currentCoinbase": "0x2adc25665018aa1fe0e6bc666dac8fc2697ff9ba",
            "currentGasLimit": "0x05f5e100",
            "currentNumber": "0x01",
            "currentTimestamp": "0x03e8",
            "currentRandom": "0x0000000000000000000000000000000000000000000000000000000000020000",
            "currentDifficulty": "0x00",
            "currentBaseFee": "0x0a",
            "currentExcessBlobGas": "0x00"
        },
        "pre": {
            "0x0000000000000000000000000000000000001000": {
                "nonce": "0x00",
                "balance": "0x0ba1a9ce0ba1a9ce",
                "code": "0x670123456789abcdef1960005500",
                "storage": {}
            },
            "0xcccccccccccccccccccccccccccccccccccccccc": {
                "nonce": "0x00",
                "balance": "0x0ba1a9ce0ba1a9ce",
                "code": "0x600060006000600060006004356110000162fffffff100",
                "storage": {}
            },
            "0xa94f5374fce5edbc8e2a8697c15331677e6ebf0b": {
                "nonce": "0x00",
                "balance": "0x0ba1a9ce0ba1a9ce",
                "code": "0x",
                "storage": {}
            }
        },
        "transaction": {
            "nonce": "0x00",
            "gasPrice": "0x0a",
            "gasLimit": [
                "0x01000000"
            ],
            "to": "0xcccccccccccccccccccccccccccccccccccccccc",
            "value": [
                "0x01"
            ],
            "data": [
                "0x693c61390000000000000000000000000000000000000000000000000000000000000000"
            ],
            "sender": "0xa94f5374fce5edbc8e2a8697c15331677e6ebf0b",
            "secretKey": "0x45a915e4d060149eb4365960e6a7a45f334393093061116b197e3240065ff2d8"
        },
        "post": {
            "Cancun": [
                {
                    "hash": "0x04430a0154ac2f58cdc695c07bf72591fa1a8e39948bbb6c191a9e03f39e946b",
                    "logs": "0x1dcc4de8dec75d7aab85b567b6ccd41ad312451b948a7413f0a142fd40d49347",
                    "txbytes": "0xf885800a840100000094cccccccccccccccccccccccccccccccccccccccc01a4693c6139000000000000000000000000000000000000000000000000000000000000000025a02d818af6f2e5097c408511e8222fc5bc937ba1845a96089d6f4abc18c2808daaa05d0cd912bcbe07026df7c05dfbb7373e8d742b24c09b7a1bdf067c388f68d190",
                    "indexes": {
                        "data": 0,
                        "gas": 0,
                        "value": 0
                    },
                    "state": {
                        "0x0000000000000000000000000000000000001000": {
                            "nonce": "0x00",
                            "balance": "0x0ba1a9ce0ba1a9ce",
                            "code": "0x670123456789abcdef1960005500",
                            "storage": {
                                "0x00": "0xfffffffffffffffffffffffffffffffffffffffffffffffffedcba9876543210"
                            }
                        },
                        "0xcccccccccccccccccccccccccccccccccccccccc": {
                            "nonce": "0x00",
                            "balance": "0x0ba1a9ce0ba1a9cf",
                            "code": "0x600060006000600060006004356110000162fffffff100",
                            "storage": {}
                        },
                        "0xa94f5374fce5edbc8e2a8697c15331677e6ebf0b": {
                            "nonce": "0x01",
                            "balance": "0x0ba1a9ce0b9aa79f",
                            "code": "0x",
                            "storage": {}
                        }
                    }
                }
            ]
        },
        "config": {
            "blobSchedule": {
                "Cancun": {
                    "target": "0x03",
                    "max": "0x06",
                    "baseFeeUpdateFraction": "0x32f0ed"
                }
            },
            "chainid": "0x01"
        },
        "_info": {
            "hash": "0x1d7a2abe65a14bdc9bc0cbf376308453f0dfcca655bee0e397014db409314733",
            "comment": "`execution-specs` generated test",
            "filling-transition-tool": "2.18.0rc6",
            "description": "No description available - add a docstring to the python test class or function.",
            "url": "",
            "fixture-format": "state_test"
        }
    },
    "tests/static/state_tests/VMTests/vmArithmeticTest/notFiller.yml::not[fork_Osaka-state_test-]": {
        "env": {
            "currentCoinbase": "0x2adc25665018aa1fe0e6bc666dac8fc2697ff9ba",
            "currentGasLimit": "0x05f5e100",
            "currentNumber": "0x01",
            "currentTimestamp": "0x03e8",
            "currentRandom": "0x0000000000000000000000000000000000000000000000000000000000020000",
            "currentDifficulty": "0x00",
            "currentBaseFee": "0x0a",
            "currentExcessBlobGas": "0x00"
        },
        "pre": {
            "0x0000000000000000000000000000000000001000": {
                "nonce": "0x00",
                "balance": "0x0ba1a9ce0ba1a9ce",
                "code": "0x670123456789abcdef1960005500",
                "storage": {}
            },
            "0xcccccccccccccccccccccccccccccccccccccccc": {
                "nonce": "0x00",
                "balance": "0x0ba1a9ce0ba1a9ce",
                "code": "0x600060006000600060006004356110000162fffffff100",
                "storage": {}
            },
            "0xa94f5374fce5edbc8e2a8697c15331677e6ebf0b": {
                "nonce": "0x00",
                "balance": "0x0ba1a9ce0ba1a9ce",
                "code": "0x",
                "storage": {}
            }
        },
        "transaction": {
            "nonce": "0x00",
            "gasPrice": "0x0a",
            "gasLimit": [
                "0x01000000"
            ],
            "to": "0xcccccccccccccccccccccccccccccccccccccccc",
            "value": [
                "0x01"
            ],
            "data": [
                "0x693c61390000000000000000000000000000000000000000000000000000000000000000"
            ],
            "sender": "0xa94f5374fce5edbc8e2a8697c15331677e6ebf0b",
            "secretKey": "0x45a915e4d060149eb4365960e6a7a45f334393093061116b197e3240065ff2d8"
        },
        "post": {
            "Osaka": [
                {
                    "hash": "0x04430a0154ac2f58cdc695c07bf72591fa1a8e39948bbb6c191a9e03f39e946b",
                    "logs": "0x1dcc4de8dec75d7aab85b567b6ccd41ad312451b948a7413f0a142fd40d49347",
                    "txbytes": "0xf885800a840100000094cccccccccccccccccccccccccccccccccccccccc01a4693c6139000000000000000000000000000000000000000000000000000000000000000025a02d818af6f2e5097c408511e8222fc5bc937ba1845a96089d6f4abc18c2808daaa05d0cd912bcbe07026df7c05dfbb7373e8d742b24c09b7a1bdf067c388f68d190",
                    "indexes": {
                        "data": 0,
                        "gas": 0,
                        "value": 0
                    },
                    "state": {
                        "0x0000000000000000000000000000000000001000": {
                            "nonce": "0x00",
                            "balance": "0x0ba1a9ce0ba1a9ce",
                            "code": "0x670123456789abcdef1960005500",
                            "storage": {
                                "0x00": "0xfffffffffffffffffffffffffffffffffffffffffffffffffedcba9876543210"
                            }
                        },
                        "0xcccccccccccccccccccccccccccccccccccccccc": {
                            "nonce": "0x00",
                            "balance": "0x0ba1a9ce0ba1a9cf",
                            "code": "0x600060006000600060006004356110000162fffffff100",
                            "storage": {}
                        },
                        "0xa94f5374fce5edbc8e2a8697c15331677e6ebf0b": {
                            "nonce": "0x01",
                            "balance": "0x0ba1a9ce0b9aa79f",
                            "code": "0x",
                            "storage": {}
                        }
                    }
                }
            ]
        },
        "config": {
            "blobSchedule": {
                "Cancun": {
                    "target": "0x03",
                    "max": "0x06",
                    "baseFeeUpdateFraction": "0x32f0ed"
                },
                "Prague": {
                    "target": "0x06",
                    "max": "0x09",
                    "baseFeeUpdateFraction": "0x4c6964"
                },
                "Osaka": {
                    "target": "0x06",
                    "max": "0x09",
                    "baseFeeUpdateFraction": "0x4c6964"
                }
            },
            "chainid": "0x01"
        },
        "_info": {
            "hash": "0x288c314a98f6bb0511ea7bbca1e905ccc76f403eaa90d29fe0fed985b5b99b40",
            "comment": "`execution-specs` generated test",
            "filling-transition-tool": "2.18.0rc6",
            "description": "No description available - add a docstring to the python test class or function.",
            "url": "",
            "fixture-format": "state_test"
        }
    },
    "tests/static/state_tests/VMTests/vmArithmeticTest/notFiller.yml::not[fork_Prague-state_test-]": {
        "env": {
            "currentCoinbase": "0x2adc25665018aa1fe0e6bc666dac8fc2697ff9ba",
            "currentGasLimit": "0x05f5e100",
            "currentNumber": "0x01",
            "currentTimestamp": "0x03e8",
            "currentRandom": "0x0000000000000000000000000000000000000000000000000000000000020000",
            "currentDifficulty": "0x00",
            "currentBaseFee": "0x0a",
            "currentExcessBlobGas": "0x00"
        },
        "pre": {
            "0x0000000000000000000000000000000000001000": {
                "nonce": "0x00",
                "balance": "0x0ba1a9ce0ba1a9ce",
                "code": "0x670123456789abcdef1960005500",
                "storage": {}
            },
            "0xcccccccccccccccccccccccccccccccccccccccc": {
                "nonce": "0x00",
                "balance": "0x0ba1a9ce0ba1a9ce",
                "code": "0x600060006000600060006004356110000162fffffff100",
                "storage": {}
            },
            "0xa94f5374fce5edbc8e2a8697c15331677e6ebf0b": {
                "nonce": "0x00",
                "balance": "0x0ba1a9ce0ba1a9ce",
                "code": "0x",
                "storage": {}
            }
        },
        "transaction": {
            "nonce": "0x00",
            "gasPrice": "0x0a",
            "gasLimit": [
                "0x01000000"
            ],
            "to": "0xcccccccccccccccccccccccccccccccccccccccc",
            "value": [
                "0x01"
            ],
            "data": [
                "0x693c61390000000000000000000000000000000000000000000000000000000000000000"
            ],
            "sender": "0xa94f5374fce5edbc8e2a8697c15331677e6ebf0b",
            "secretKey": "0x45a915e4d060149eb4365960e6a7a45f334393093061116b197e3240065ff2d8"
        },
        "post": {
            "Prague": [
                {
                    "hash": "0x04430a0154ac2f58cdc695c07bf72591fa1a8e39948bbb6c191a9e03f39e946b",
                    "logs": "0x1dcc4de8dec75d7aab85b567b6ccd41ad312451b948a7413f0a142fd40d49347",
                    "txbytes": "0xf885800a840100000094cccccccccccccccccccccccccccccccccccccccc01a4693c6139000000000000000000000000000000000000000000000000000000000000000025a02d818af6f2e5097c408511e8222fc5bc937ba1845a96089d6f4abc18c2808daaa05d0cd912bcbe07026df7c05dfbb7373e8d742b24c09b7a1bdf067c388f68d190",
                    "indexes": {
                        "data": 0,
                        "gas": 0,
                        "value": 0
                    },
                    "state": {
                        "0x0000000000000000000000000000000000001000": {
                            "nonce": "0x00",
                            "balance": "0x0ba1a9ce0ba1a9ce",
                            "code": "0x670123456789abcdef1960005500",
                            "storage": {
                                "0x00": "0xfffffffffffffffffffffffffffffffffffffffffffffffffedcba9876543210"
                            }
                        },
                        "0xcccccccccccccccccccccccccccccccccccccccc": {
                            "nonce": "0x00",
                            "balance": "0x0ba1a9ce0ba1a9cf",
                            "code": "0x600060006000600060006004356110000162fffffff100",
                            "storage": {}
                        },
                        "0xa94f5374fce5edbc8e2a8697c15331677e6ebf0b": {
                            "nonce": "0x01",
                            "balance": "0x0ba1a9ce0b9aa79f",
                            "code": "0x",
                            "storage": {}
                        }
                    }
                }
            ]
        },
        "config": {
            "blobSchedule": {
                "Cancun": {
                    "target": "0x03",
                    "max": "0x06",
                    "baseFeeUpdateFraction": "0x32f0ed"
                },
                "Prague": {
                    "target": "0x06",
                    "max": "0x09",
                    "baseFeeUpdateFraction": "0x4c6964"
                }
            },
            "chainid": "0x01"
        },
        "_info": {
            "hash": "0xe59b94a953c72977e4f64085857ded4596b3c0b70673759bb194076ec4a3ea89",
            "comment": "`execution-specs` generated test",
            "filling-transition-tool": "2.18.0rc6",
            "description": "No description available - add a docstring to the python test class or function.",
            "url": "",
            "fixture-format": "state_test"
        }
    }
}