{
    "tests/ported_static/stMemoryTest/test_calldatacopy_dejavu.py::test_calldatacopy_dejavu[fork_Cancun-blockchain_test_from_state_test]": {
        "network": "Cancun",
        "genesisBlockHeader": {
            "parentHash": "0x0000000000000000000000000000000000000000000000000000000000000000",
            "uncleHash": "0x1dcc4de8dec75d7aab85b567b6ccd41ad312451b948a7413f0a142fd40d49347",
            "coinbase": "0x0000000000000000000000000000000000000000",
            "stateRoot": "0xcb559a533b9db924713248415e1f674bee0f02d1944a6cf7b382788c07ff0290",
            "transactionsTrie": "0x56e81f171bcc55a6ff8345e692c0f86e5b48e01b996cadc001622fb5e363b421",
            "receiptTrie": "0x56e81f171bcc55a6ff8345e692c0f86e5b48e01b996cadc001622fb5e363b421",
            "bloom": "0x00000000000000000000000000000000000000000000000000000000000000000000000000000000000000000000000000000000000000000000000000000000000000000000000000000000000000000000000000000000000000000000000000000000000000000000000000000000000000000000000000000000000000000000000000000000000000000000000000000000000000000000000000000000000000000000000000000000000000000000000000000000000000000000000000000000000000000000000000000000000000000000000000000000000000000000000000000000000000000000000000000000000000000000000000000000",
            "difficulty": "0x00",
            "number": "0x00",
            "gasLimit": "0x0c540be400",
            "gasUsed": "0x00",
            "timestamp": "0x00",
            "extraData": "0x00",
            "mixHash": "0x0000000000000000000000000000000000000000000000000000000000000000",
            "nonce": "0x0000000000000000",
            "baseFeePerGas": "0x0b",
            "withdrawalsRoot": "0x56e81f171bcc55a6ff8345e692c0f86e5b48e01b996cadc001622fb5e363b421",
            "blobGasUsed": "0x00",
            "excessBlobGas": "0x00",
            "parentBeaconBlockRoot": "0x0000000000000000000000000000000000000000000000000000000000000000",
            "hash": "0xb8d6fd1dc2626b20e12e6dab7dc3e7404e20513f508f3d473cb7def5c9d014bb"
        },
        "pre": {
            "0x000f3df6d732807ef1319fb7b8bb8522d0beac02": {
                "nonce": "0x01",
                "balance": "0x00",
                "code": "0x3373fffffffffffffffffffffffffffffffffffffffe14604d57602036146024575f5ffd5b5f35801560495762001fff810690815414603c575f5ffd5b62001fff01545f5260205ff35b5f5ffd5b62001fff42064281555f359062001fff015500",
                "storage": {}
            },
            "0xcb76ef53a4eb6ccf604daed675e91df8a0b544f8": {
                "nonce": "0x00",
                "balance": "0x0de0b6b3a7640000",
                "code": "0x60ff60ff630fffffff630fffffff37",
                "storage": {}
            },
            "0x894d19064bdc4e212b2e634e18a2b765d52e9b54": {
                "nonce": "0x00",
                "balance": "0x271000000000",
                "code": "0x",
                "storage": {}
            }
        },
        "postState": {
            "0x000f3df6d732807ef1319fb7b8bb8522d0beac02": {
                "nonce": "0x01",
                "balance": "0x00",
                "code": "0x3373fffffffffffffffffffffffffffffffffffffffe14604d57602036146024575f5ffd5b5f35801560495762001fff810690815414603c575f5ffd5b62001fff01545f5260205ff35b5f5ffd5b62001fff42064281555f359062001fff015500",
                "storage": {
                    "0x03e8": "0x03e8"
                }
            },
            "0xcb76ef53a4eb6ccf604daed675e91df8a0b544f8": {
                "nonce": "0x00",
                "balance": "0x0de0b6b3a7640000",
                "code": "0x60ff60ff630fffffff630fffffff37",
                "storage": {}
            },
            "0x894d19064bdc4e212b2e634e18a2b765d52e9b54": {
                "nonce": "0x01",
                "balance": "0x270ffff0bdc0",
                "code": "0x",
                "storage": {}
            }
        },
        "lastblockhash": "0x060a14700b3668b283d777b8e761253d161e0aba851bc00dfb33971420b483b7",
        "config": {
            "network": "Cancun",
            "chainid": "0x01",
            "blobSchedule": {
                "Cancun": {
                    "target": "0x03",
                    "max": "0x06",
                    "baseFeeUpdateFraction": "0x32f0ed"
                }
            }
        },
        "genesisRLP": "0xf9023df90237a00000000000000000000000000000000000000000000000000000000000000000a01dcc4de8dec75d7aab85b567b6ccd41ad312451b948a7413f0a142fd40d49347940000000000000000000000000000000000000000a0cb559a533b9db924713248415e1f674bee0f02d1944a6cf7b382788c07ff0290a056e81f171bcc55a6ff8345e692c0f86e5b48e01b996cadc001622fb5e363b421a056e81f171bcc55a6ff8345e692c0f86e5b48e01b996cadc001622fb5e363b421b90100000000000000000000000000000000000000000000000000000000000000000000000000000000000000000000000000000000000000000000000000000000000000000000000000000000000000000000000000000000000000000000000000000000000000000000000000000000000000000000000000000000000000000000000000000000000000000000000000000000000000000000000000000000000000000000000000000000000000000000000000000000000000000000000000000000000000000000000000000000000000000000000000000000000000000000000000000000000000000000000000000000000000000000000000000000008080850c540be400808000a000000000000000000000000000000000000000000000000000000000000000008800000000000000000ba056e81f171bcc55a6ff8345e692c0f86e5b48e01b996cadc001622fb5e363b4218080a00000000000000000000000000000000000000000000000000000000000000000c0c0c0",
        "blocks": [
            {
                "blockHeader": {
                    "parentHash": "0xb8d6fd1dc2626b20e12e6dab7dc3e7404e20513f508f3d473cb7def5c9d014bb",
                    "uncleHash": "0x1dcc4de8dec75d7aab85b567b6ccd41ad312451b948a7413f0a142fd40d49347",
                    "coinbase": "0x2adc25665018aa1fe0e6bc666dac8fc2697ff9ba",
                    "stateRoot": "0xa834cda4b55a0f176762a52da85ce439cd2d96b65f88e1b4e66d67df77f15118",
                    "transactionsTrie": "0xa865f0361baf1047c716ccfade21946da565f12b98a96b661d104a61ed6328b3",
                    "receiptTrie": "0x777f1c1c378807634128348e4f0eeca6a0e7f516ea411690ca04266323f671a4",
                    "bloom": "0x00000000000000000000000000000000000000000000000000000000000000000000000000000000000000000000000000000000000000000000000000000000000000000000000000000000000000000000000000000000000000000000000000000000000000000000000000000000000000000000000000000000000000000000000000000000000000000000000000000000000000000000000000000000000000000000000000000000000000000000000000000000000000000000000000000000000000000000000000000000000000000000000000000000000000000000000000000000000000000000000000000000000000000000000000000000",
                    "difficulty": "0x00",
                    "number": "0x01",
                    "gasLimit": "0x0c540be400",
                    "gasUsed": "0x0186a0",
                    "timestamp": "0x03e8",
                    "extraData": "0x00",
                    "mixHash": "0x0000000000000000000000000000000000000000000000000000000000020000",
                    "nonce": "0x0000000000000000",
                    "baseFeePerGas": "0x0a",
                    "withdrawalsRoot": "0x56e81f171bcc55a6ff8345e692c0f86e5b48e01b996cadc001622fb5e363b421",
                    "blobGasUsed": "0x00",
                    "excessBlobGas": "0x00",
                    "parentBeaconBlockRoot": "0x0000000000000000000000000000000000000000000000000000000000000000",
                    "hash": "0x060a14700b3668b283d777b8e761253d161e0aba851bc00dfb33971420b483b7"
                },
                "transactions": [
                    {
                        "type": "0x00",
                        "chainId": "0x01",
                        "nonce": "0x00",
                        "gasPrice": "0x0a",
                        "gasLimit": "0x0186a0",
                        "to": "0xcb76ef53a4eb6ccf604daed675e91df8a0b544f8",
                        "value": "0x0a",
                        "data": "0x",
                        "v": "0x26",
                        "r": "0x3be790b7c32528bbd2583cf07f68b0827660741a4c70261c7a3b41d8b7a308f7",
                        "s": "0x198054e5c91101df9191dc2dd737f2f5c3504d87428cdc06915c6e7a710c96b9",
                        "sender": "0x894d19064bdc4e212b2e634e18a2b765d52e9b54"
                    }
                ],
                "uncleHeaders": [],
                "withdrawals": [],
                "receipts": [
                    {
                        "transactionHash": "0x1fa8baed4d8b6b448714b8f9b24972ac53ada9f8504a2ed1fe31f2757aea53de",
                        "type": "0x00",
                        "cumulativeGasUsed": "0x0186a0",
                        "bloom": "0x00000000000000000000000000000000000000000000000000000000000000000000000000000000000000000000000000000000000000000000000000000000000000000000000000000000000000000000000000000000000000000000000000000000000000000000000000000000000000000000000000000000000000000000000000000000000000000000000000000000000000000000000000000000000000000000000000000000000000000000000000000000000000000000000000000000000000000000000000000000000000000000000000000000000000000000000000000000000000000000000000000000000000000000000000000000",
                        "logs": [],
                        "status": false,
                        "rlp": "0xf9010980830186a0b9010000000000000000000000000000000000000000000000000000000000000000000000000000000000000000000000000000000000000000000000000000000000000000000000000000000000000000000000000000000000000000000000000000000000000000000000000000000000000000000000000000000000000000000000000000000000000000000000000000000000000000000000000000000000000000000000000000000000000000000000000000000000000000000000000000000000000000000000000000000000000000000000000000000000000000000000000000000000000000000000000000000000000000000000000000000000c0"
                    }
                ],
                "rlp": "0xf902a5f9023ca0b8d6fd1dc2626b20e12e6dab7dc3e7404e20513f508f3d473cb7def5c9d014bba01dcc4de8dec75d7aab85b567b6ccd41ad312451b948a7413f0a142fd40d49347942adc25665018aa1fe0e6bc666dac8fc2697ff9baa0a834cda4b55a0f176762a52da85ce439cd2d96b65f88e1b4e66d67df77f15118a0a865f0361baf1047c716ccfade21946da565f12b98a96b661d104a61ed6328b3a0777f1c1c378807634128348e4f0eeca6a0e7f516ea411690ca04266323f671a4b90100000000000000000000000000000000000000000000000000000000000000000000000000000000000000000000000000000000000000000000000000000000000000000000000000000000000000000000000000000000000000000000000000000000000000000000000000000000000000000000000000000000000000000000000000000000000000000000000000000000000000000000000000000000000000000000000000000000000000000000000000000000000000000000000000000000000000000000000000000000000000000000000000000000000000000000000000000000000000000000000000000000000000000000000000000000008001850c540be400830186a08203e800a000000000000000000000000000000000000000000000000000000000000200008800000000000000000aa056e81f171bcc55a6ff8345e692c0f86e5b48e01b996cadc001622fb5e363b4218080a00000000000000000000000000000000000000000000000000000000000000000f862f860800a830186a094cb76ef53a4eb6ccf604daed675e91df8a0b544f80a8026a03be790b7c32528bbd2583cf07f68b0827660741a4c70261c7a3b41d8b7a308f7a0198054e5c91101df9191dc2dd737f2f5c3504d87428cdc06915c6e7a710c96b9c0c0",
                "blocknumber": "1"
            }
        ],
        "sealEngine": "NoProof",
        "_info": {
            "hash": "0x8c83df3b98522b7a0890f4a30563120a28a4eb34dc68051d0e024bd1cdfb840d",
            "fixture-format": "blockchain_test",
            "comment": "`execution-specs` generated test",
            "filling-transition-tool": "2.19.0",
            "description": "Test_calldatacopy_dejavu.",
            "url": "https://github.com/ethereum/execution-specs/blob/tests-bal@v5.6.1/tests/ported_static/stMemoryTest/test_calldatacopy_dejavu.py#L25",
            "metadata": {
                "opcode_count": {}
            }
        }
    }
}