{
    "tests/cancun/eip6780_selfdestruct/test_selfdestruct.py::test_create_multiple_contracts_destroy_one_then_destroy_other_next_tx[fork_Cancun-blockchain_test-selfdestruct_contract_initial_balance_0]": {
        "network": "Cancun",
        "genesisBlockHeader": {
            "parentHash": "0x0000000000000000000000000000000000000000000000000000000000000000",
            "uncleHash": "0x1dcc4de8dec75d7aab85b567b6ccd41ad312451b948a7413f0a142fd40d49347",
            "coinbase": "0x0000000000000000000000000000000000000000",
            "stateRoot": "0xbac3bd7e9151f819b19588c5af48b8e3dd889f4b3778344e6c9a2e58383ea1d2",
            "transactionsTrie": "0x56e81f171bcc55a6ff8345e692c0f86e5b48e01b996cadc001622fb5e363b421",
            "receiptTrie": "0x56e81f171bcc55a6ff8345e692c0f86e5b48e01b996cadc001622fb5e363b421",
            "bloom": "0x00000000000000000000000000000000000000000000000000000000000000000000000000000000000000000000000000000000000000000000000000000000000000000000000000000000000000000000000000000000000000000000000000000000000000000000000000000000000000000000000000000000000000000000000000000000000000000000000000000000000000000000000000000000000000000000000000000000000000000000000000000000000000000000000000000000000000000000000000000000000000000000000000000000000000000000000000000000000000000000000000000000000000000000000000000000",
            "difficulty": "0x00",
            "number": "0x00",
            "gasLimit": "0x07270e00",
            "gasUsed": "0x00",
            "timestamp": "0x00",
            "extraData": "0x00",
            "mixHash": "0x0000000000000000000000000000000000000000000000000000000000000000",
            "nonce": "0x0000000000000000",
            "baseFeePerGas": "0x07",
            "withdrawalsRoot": "0x56e81f171bcc55a6ff8345e692c0f86e5b48e01b996cadc001622fb5e363b421",
            "blobGasUsed": "0x00",
            "excessBlobGas": "0x00",
            "parentBeaconBlockRoot": "0x0000000000000000000000000000000000000000000000000000000000000000",
            "hash": "0x4e092e8a703b23ec8bffe92d04c8eeb469b3529307eb7d6106521be6cb29d9bb"
        },
        "pre": {
            "0x000f3df6d732807ef1319fb7b8bb8522d0beac02": {
                "nonce": "0x01",
                "balance": "0x00",
                "code": "0x3373fffffffffffffffffffffffffffffffffffffffe14604d57602036146024575f5ffd5b5f35801560495762001fff810690815414603c575f5ffd5b62001fff01545f5260205ff35b5f5ffd5b62001fff42064281555f359062001fff015500",
                "storage": {}
            },
            "0x1ad9bc24818784172ff393bb6f89f094d4d2ca29": {
                "nonce": "0x00",
                "balance": "0x3635c9adc5dea00000",
                "code": "0x",
                "storage": {}
            },
            "0x22d339df985a054d335af73613545d6008566b37": {
                "nonce": "0x01",
                "balance": "0x00",
                "code": "0x6000600055",
                "storage": {
                    "0x00": "0x01"
                }
            },
            "0xbda03cef788726024170ad4f42fb5c4c0efca7c9": {
                "nonce": "0x01",
                "balance": "0x00",
                "code": "0x610032600081600b8239f3600160005401600055600160003514600958015700601a5801565b7322d339df985a054d335af73613545d6008566b37ff5b",
                "storage": {}
            },
            "0x566b3a8221527d45ec972df82e19a31f788e477a": {
                "nonce": "0x01",
                "balance": "0x00",
                "code": "0x603d6000600073bda03cef788726024170ad4f42fb5c4c0efca7c93c6000603d60006000f56000556001603d60006000f560015560016000526000600060206000600060005445f160025560006000526000600060206000600060015445f160035500",
                "storage": {}
            },
            "0xb504dd9f70d30e6956a4e2d8e08c96f7aa00782d": {
                "nonce": "0x01",
                "balance": "0x00",
                "code": "0x6001600052600060006020600060007339c781784dd951e40f66eaabdaa0825ac134e7f745f100",
                "storage": {}
            }
        },
        "postState": {
            "0x000f3df6d732807ef1319fb7b8bb8522d0beac02": {
                "nonce": "0x01",
                "balance": "0x00",
                "code": "0x3373fffffffffffffffffffffffffffffffffffffffe14604d57602036146024575f5ffd5b5f35801560495762001fff810690815414603c575f5ffd5b62001fff01545f5260205ff35b5f5ffd5b62001fff42064281555f359062001fff015500",
                "storage": {
                    "0x0c": "0x0c"
                }
            },
            "0x1ad9bc24818784172ff393bb6f89f094d4d2ca29": {
                "nonce": "0x02",
                "balance": "0x3635c9adc5de748bf0",
                "code": "0x",
                "storage": {}
            },
            "0x22d339df985a054d335af73613545d6008566b37": {
                "nonce": "0x01",
                "balance": "0x00",
                "code": "0x6000600055",
                "storage": {
                    "0x00": "0x01"
                }
            },
            "0xbda03cef788726024170ad4f42fb5c4c0efca7c9": {
                "nonce": "0x01",
                "balance": "0x00",
                "code": "0x610032600081600b8239f3600160005401600055600160003514600958015700601a5801565b7322d339df985a054d335af73613545d6008566b37ff5b",
                "storage": {}
            },
            "0x566b3a8221527d45ec972df82e19a31f788e477a": {
                "nonce": "0x03",
                "balance": "0x00",
                "code": "0x603d6000600073bda03cef788726024170ad4f42fb5c4c0efca7c93c6000603d60006000f56000556001603d60006000f560015560016000526000600060206000600060005445f160025560006000526000600060206000600060015445f160035500",
                "storage": {
                    "0x00": "0x1e2c9144f1f16a8259a127b9729ae64f11776ea5",
                    "0x01": "0x39c781784dd951e40f66eaabdaa0825ac134e7f7",
                    "0x02": "0x01",
                    "0x03": "0x01"
                }
            },
            "0xb504dd9f70d30e6956a4e2d8e08c96f7aa00782d": {
                "nonce": "0x01",
                "balance": "0x00",
                "code": "0x6001600052600060006020600060007339c781784dd951e40f66eaabdaa0825ac134e7f745f100",
                "storage": {}
            },
            "0x39c781784dd951e40f66eaabdaa0825ac134e7f7": {
                "nonce": "0x01",
                "balance": "0x00",
                "code": "0x600160005401600055600160003514600958015700601a5801565b7322d339df985a054d335af73613545d6008566b37ff5b",
                "storage": {
                    "0x00": "0x02"
                }
            },
            "0x2adc25665018aa1fe0e6bc666dac8fc2697ff9ba": {
                "nonce": "0x00",
                "balance": "0x0d0938",
                "code": "0x",
                "storage": {}
            }
        },
        "lastblockhash": "0xaa3f53b6e65806202c57ddecf3c3b4f5002576da11db10ecac30cad49dfcc3a3",
        "config": {
            "network": "Cancun",
            "chainid": "0x01",
            "blobSchedule": {
                "Cancun": {
                    "target": "0x03",
                    "max": "0x06",
                    "baseFeeUpdateFraction": "0x32f0ed"
                }
            }
        },
        "genesisRLP": "0xf9023cf90236a00000000000000000000000000000000000000000000000000000000000000000a01dcc4de8dec75d7aab85b567b6ccd41ad312451b948a7413f0a142fd40d49347940000000000000000000000000000000000000000a0bac3bd7e9151f819b19588c5af48b8e3dd889f4b3778344e6c9a2e58383ea1d2a056e81f171bcc55a6ff8345e692c0f86e5b48e01b996cadc001622fb5e363b421a056e81f171bcc55a6ff8345e692c0f86e5b48e01b996cadc001622fb5e363b421b901000000000000000000000000000000000000000000000000000000000000000000000000000000000000000000000000000000000000000000000000000000000000000000000000000000000000000000000000000000000000000000000000000000000000000000000000000000000000000000000000000000000000000000000000000000000000000000000000000000000000000000000000000000000000000000000000000000000000000000000000000000000000000000000000000000000000000000000000000000000000000000000000000000000000000000000000000000000000000000000000000000000000000000000000000000000080808407270e00808000a0000000000000000000000000000000000000000000000000000000000000000088000000000000000007a056e81f171bcc55a6ff8345e692c0f86e5b48e01b996cadc001622fb5e363b4218080a00000000000000000000000000000000000000000000000000000000000000000c0c0c0",
        "blocks": [
            {
                "blockHeader": {
                    "parentHash": "0x4e092e8a703b23ec8bffe92d04c8eeb469b3529307eb7d6106521be6cb29d9bb",
                    "uncleHash": "0x1dcc4de8dec75d7aab85b567b6ccd41ad312451b948a7413f0a142fd40d49347",
                    "coinbase": "0x2adc25665018aa1fe0e6bc666dac8fc2697ff9ba",
                    "stateRoot": "0xa611d1f39ac5ab27008f94d7ab4d638d8e9468e7337dfdc3e6404f2efa1d8d1d",
                    "transactionsTrie": "0x1a329d60ff02ca1d7fb7f4e0cbfab123ffdb555ec6be69778c02f39c497ba438",
                    "receiptTrie": "0x4068c26e2f2ca46473c87c1d87fad1ee5b3091ba28d4a9a86a8f914a9651bbef",
                    "bloom": "0x00000000000000000000000000000000000000000000000000000000000000000000000000000000000000000000000000000000000000000000000000000000000000000000000000000000000000000000000000000000000000000000000000000000000000000000000000000000000000000000000000000000000000000000000000000000000000000000000000000000000000000000000000000000000000000000000000000000000000000000000000000000000000000000000000000000000000000000000000000000000000000000000000000000000000000000000000000000000000000000000000000000000000000000000000000000",
                    "difficulty": "0x00",
                    "number": "0x01",
                    "gasLimit": "0x07270e00",
                    "gasUsed": "0x045868",
                    "timestamp": "0x0c",
                    "extraData": "0x",
                    "mixHash": "0x0000000000000000000000000000000000000000000000000000000000000000",
                    "nonce": "0x0000000000000000",
                    "baseFeePerGas": "0x07",
                    "withdrawalsRoot": "0x56e81f171bcc55a6ff8345e692c0f86e5b48e01b996cadc001622fb5e363b421",
                    "blobGasUsed": "0x00",
                    "excessBlobGas": "0x00",
                    "parentBeaconBlockRoot": "0x0000000000000000000000000000000000000000000000000000000000000000",
                    "hash": "0xaa3f53b6e65806202c57ddecf3c3b4f5002576da11db10ecac30cad49dfcc3a3"
                },
                "transactions": [
                    {
                        "type": "0x00",
                        "chainId": "0x01",
                        "nonce": "0x00",
                        "gasPrice": "0x0a",
                        "gasLimit": "0x0f4240",
                        "to": "0x566b3a8221527d45ec972df82e19a31f788e477a",
                        "value": "0x00",
                        "data": "0x",
                        "v": "0x25",
                        "r": "0xab1171eab57132e4692ea5947d814107c024171c83fea845955bf5c8df482ad5",
                        "s": "0x1bd0f7f64e166a268851aa322d7c70a0d09f8dd504fde60fc85bc4f4a9477271",
                        "sender": "0x1ad9bc24818784172ff393bb6f89f094d4d2ca29"
                    },
                    {
                        "type": "0x00",
                        "chainId": "0x01",
                        "nonce": "0x01",
                        "gasPrice": "0x0a",
                        "gasLimit": "0x07a120",
                        "to": "0xb504dd9f70d30e6956a4e2d8e08c96f7aa00782d",
                        "value": "0x00",
                        "data": "0x",
                        "v": "0x25",
                        "r": "0x0ab822135d7356c24db398b516818444a5c583ea404f1f6507cc0cd6367e240b",
                        "s": "0x7ff30452d778972604a5e0e06eee691c83d27ab8e75a071e766fe5354f9087a1",
                        "sender": "0x1ad9bc24818784172ff393bb6f89f094d4d2ca29"
                    }
                ],
                "uncleHeaders": [],
                "withdrawals": [],
                "receipts": [
                    {
                        "transactionHash": "0x29ea6fd8a4b184298f5022225de9cf9afebffd1b02998a0100e85b32d790ab1a",
                        "type": "0x00",
                        "cumulativeGasUsed": "0x03cab2",
                        "bloom": "0x00000000000000000000000000000000000000000000000000000000000000000000000000000000000000000000000000000000000000000000000000000000000000000000000000000000000000000000000000000000000000000000000000000000000000000000000000000000000000000000000000000000000000000000000000000000000000000000000000000000000000000000000000000000000000000000000000000000000000000000000000000000000000000000000000000000000000000000000000000000000000000000000000000000000000000000000000000000000000000000000000000000000000000000000000000000",
                        "logs": [],
                        "status": true,
                        "rlp": "0xf90109018303cab2b9010000000000000000000000000000000000000000000000000000000000000000000000000000000000000000000000000000000000000000000000000000000000000000000000000000000000000000000000000000000000000000000000000000000000000000000000000000000000000000000000000000000000000000000000000000000000000000000000000000000000000000000000000000000000000000000000000000000000000000000000000000000000000000000000000000000000000000000000000000000000000000000000000000000000000000000000000000000000000000000000000000000000000000000000000000000000c0"
                    },
                    {
                        "transactionHash": "0xfa13bb898248b27159b60a15f9997c7f0264a04c66f99c7c3bb7f4f20beb2fc0",
                        "type": "0x00",
                        "cumulativeGasUsed": "0x045868",
                        "bloom": "0x00000000000000000000000000000000000000000000000000000000000000000000000000000000000000000000000000000000000000000000000000000000000000000000000000000000000000000000000000000000000000000000000000000000000000000000000000000000000000000000000000000000000000000000000000000000000000000000000000000000000000000000000000000000000000000000000000000000000000000000000000000000000000000000000000000000000000000000000000000000000000000000000000000000000000000000000000000000000000000000000000000000000000000000000000000000",
                        "logs": [],
                        "status": true,
                        "rlp": "0xf901090183045868b9010000000000000000000000000000000000000000000000000000000000000000000000000000000000000000000000000000000000000000000000000000000000000000000000000000000000000000000000000000000000000000000000000000000000000000000000000000000000000000000000000000000000000000000000000000000000000000000000000000000000000000000000000000000000000000000000000000000000000000000000000000000000000000000000000000000000000000000000000000000000000000000000000000000000000000000000000000000000000000000000000000000000000000000000000000000000c0"
                    }
                ],
                "rlp": "0xf90304f90239a04e092e8a703b23ec8bffe92d04c8eeb469b3529307eb7d6106521be6cb29d9bba01dcc4de8dec75d7aab85b567b6ccd41ad312451b948a7413f0a142fd40d49347942adc25665018aa1fe0e6bc666dac8fc2697ff9baa0a611d1f39ac5ab27008f94d7ab4d638d8e9468e7337dfdc3e6404f2efa1d8d1da01a329d60ff02ca1d7fb7f4e0cbfab123ffdb555ec6be69778c02f39c497ba438a04068c26e2f2ca46473c87c1d87fad1ee5b3091ba28d4a9a86a8f914a9651bbefb901000000000000000000000000000000000000000000000000000000000000000000000000000000000000000000000000000000000000000000000000000000000000000000000000000000000000000000000000000000000000000000000000000000000000000000000000000000000000000000000000000000000000000000000000000000000000000000000000000000000000000000000000000000000000000000000000000000000000000000000000000000000000000000000000000000000000000000000000000000000000000000000000000000000000000000000000000000000000000000000000000000000000000000000000000000000080018407270e00830458680c80a0000000000000000000000000000000000000000000000000000000000000000088000000000000000007a056e81f171bcc55a6ff8345e692c0f86e5b48e01b996cadc001622fb5e363b4218080a00000000000000000000000000000000000000000000000000000000000000000f8c4f860800a830f424094566b3a8221527d45ec972df82e19a31f788e477a808025a0ab1171eab57132e4692ea5947d814107c024171c83fea845955bf5c8df482ad5a01bd0f7f64e166a268851aa322d7c70a0d09f8dd504fde60fc85bc4f4a9477271f860010a8307a12094b504dd9f70d30e6956a4e2d8e08c96f7aa00782d808025a00ab822135d7356c24db398b516818444a5c583ea404f1f6507cc0cd6367e240ba07ff30452d778972604a5e0e06eee691c83d27ab8e75a071e766fe5354f9087a1c0c0",
                "blocknumber": "1"
            }
        ],
        "sealEngine": "NoProof",
        "_info": {
            "hash": "0x472961d88be4acff5b8c85256321543173461deee947808f6a0c415d427aefd2",
            "fixture-format": "blockchain_test",
            "comment": "`execution-specs` generated test",
            "filling-transition-tool": "2.19.0",
            "description": "Test creating multiple contracts in one transaction, destroying only one\nof them, then attempting to destroy the other in a subsequent transaction.\n\nContract A: Self-destructs in the same transaction as creation (deleted)\nContract B: Does NOT self-destruct in creation tx, attempted destruction\n            in subsequent tx (persists after EIP-6780)",
            "url": "https://github.com/ethereum/execution-specs/blob/tests-bal@v5.7.0/tests/cancun/eip6780_selfdestruct/test_selfdestruct.py#L1629",
            "metadata": {
                "opcode_count": {}
            },
            "reference-spec": "https://github.com/ethereum/EIPs/blob/master/EIPS/eip-6780.md",
            "reference-spec-version": "1b6a0e94cc47e859b9866e570391cf37dc55059a"
        }
    },
    "tests/cancun/eip6780_selfdestruct/test_selfdestruct.py::test_create_multiple_contracts_destroy_one_then_destroy_other_next_tx[fork_Cancun-blockchain_test-selfdestruct_contract_initial_balance_100000]": {
        "network": "Cancun",
        "genesisBlockHeader": {
            "parentHash": "0x0000000000000000000000000000000000000000000000000000000000000000",
            "uncleHash": "0x1dcc4de8dec75d7aab85b567b6ccd41ad312451b948a7413f0a142fd40d49347",
            "coinbase": "0x0000000000000000000000000000000000000000",
            "stateRoot": "0x484efd7362b87d7b091414b32f51ca7b42bc93186e35e560da39c01bfcee02ea",
            "transactionsTrie": "0x56e81f171bcc55a6ff8345e692c0f86e5b48e01b996cadc001622fb5e363b421",
            "receiptTrie": "0x56e81f171bcc55a6ff8345e692c0f86e5b48e01b996cadc001622fb5e363b421",
            "bloom": "0x00000000000000000000000000000000000000000000000000000000000000000000000000000000000000000000000000000000000000000000000000000000000000000000000000000000000000000000000000000000000000000000000000000000000000000000000000000000000000000000000000000000000000000000000000000000000000000000000000000000000000000000000000000000000000000000000000000000000000000000000000000000000000000000000000000000000000000000000000000000000000000000000000000000000000000000000000000000000000000000000000000000000000000000000000000000",
            "difficulty": "0x00",
            "number": "0x00",
            "gasLimit": "0x07270e00",
            "gasUsed": "0x00",
            "timestamp": "0x00",
            "extraData": "0x00",
            "mixHash": "0x0000000000000000000000000000000000000000000000000000000000000000",
            "nonce": "0x0000000000000000",
            "baseFeePerGas": "0x07",
            "withdrawalsRoot": "0x56e81f171bcc55a6ff8345e692c0f86e5b48e01b996cadc001622fb5e363b421",
            "blobGasUsed": "0x00",
            "excessBlobGas": "0x00",
            "parentBeaconBlockRoot": "0x0000000000000000000000000000000000000000000000000000000000000000",
            "hash": "0xc3dbcfe5ef2386e7dfc931b7841e5806ffadad8dfecbfed3c7158af23488e1b4"
        },
        "pre": {
            "0x000f3df6d732807ef1319fb7b8bb8522d0beac02": {
                "nonce": "0x01",
                "balance": "0x00",
                "code": "0x3373fffffffffffffffffffffffffffffffffffffffe14604d57602036146024575f5ffd5b5f35801560495762001fff810690815414603c575f5ffd5b62001fff01545f5260205ff35b5f5ffd5b62001fff42064281555f359062001fff015500",
                "storage": {}
            },
            "0x1ad9bc24818784172ff393bb6f89f094d4d2ca29": {
                "nonce": "0x00",
                "balance": "0x3635c9adc5dea00000",
                "code": "0x",
                "storage": {}
            },
            "0x22d339df985a054d335af73613545d6008566b37": {
                "nonce": "0x01",
                "balance": "0x00",
                "code": "0x6000600055",
                "storage": {
                    "0x00": "0x01"
                }
            },
            "0xbda03cef788726024170ad4f42fb5c4c0efca7c9": {
                "nonce": "0x01",
                "balance": "0x00",
                "code": "0x610032600081600b8239f3600160005401600055600160003514600958015700601a5801565b7322d339df985a054d335af73613545d6008566b37ff5b",
                "storage": {}
            },
            "0x566b3a8221527d45ec972df82e19a31f788e477a": {
                "nonce": "0x01",
                "balance": "0x00",
                "code": "0x603d6000600073bda03cef788726024170ad4f42fb5c4c0efca7c93c6000603d60006000f56000556001603d60006000f560015560016000526000600060206000600060005445f160025560006000526000600060206000600060015445f160035500",
                "storage": {}
            },
            "0x1e2c9144f1f16a8259a127b9729ae64f11776ea5": {
                "nonce": "0x00",
                "balance": "0x0186a0",
                "code": "0x",
                "storage": {}
            },
            "0x39c781784dd951e40f66eaabdaa0825ac134e7f7": {
                "nonce": "0x00",
                "balance": "0x0186a0",
                "code": "0x",
                "storage": {}
            },
            "0xb504dd9f70d30e6956a4e2d8e08c96f7aa00782d": {
                "nonce": "0x01",
                "balance": "0x00",
                "code": "0x6001600052600060006020600060007339c781784dd951e40f66eaabdaa0825ac134e7f745f100",
                "storage": {}
            }
        },
        "postState": {
            "0x000f3df6d732807ef1319fb7b8bb8522d0beac02": {
                "nonce": "0x01",
                "balance": "0x00",
                "code": "0x3373fffffffffffffffffffffffffffffffffffffffe14604d57602036146024575f5ffd5b5f35801560495762001fff810690815414603c575f5ffd5b62001fff01545f5260205ff35b5f5ffd5b62001fff42064281555f359062001fff015500",
                "storage": {
                    "0x0c": "0x0c"
                }
            },
            "0x1ad9bc24818784172ff393bb6f89f094d4d2ca29": {
                "nonce": "0x02",
                "balance": "0x3635c9adc5de748bf0",
                "code": "0x",
                "storage": {}
            },
            "0x22d339df985a054d335af73613545d6008566b37": {
                "nonce": "0x01",
                "balance": "0x030d40",
                "code": "0x6000600055",
                "storage": {
                    "0x00": "0x01"
                }
            },
            "0xbda03cef788726024170ad4f42fb5c4c0efca7c9": {
                "nonce": "0x01",
                "balance": "0x00",
                "code": "0x610032600081600b8239f3600160005401600055600160003514600958015700601a5801565b7322d339df985a054d335af73613545d6008566b37ff5b",
                "storage": {}
            },
            "0x566b3a8221527d45ec972df82e19a31f788e477a": {
                "nonce": "0x03",
                "balance": "0x00",
                "code": "0x603d6000600073bda03cef788726024170ad4f42fb5c4c0efca7c93c6000603d60006000f56000556001603d60006000f560015560016000526000600060206000600060005445f160025560006000526000600060206000600060015445f160035500",
                "storage": {
                    "0x00": "0x1e2c9144f1f16a8259a127b9729ae64f11776ea5",
                    "0x01": "0x39c781784dd951e40f66eaabdaa0825ac134e7f7",
                    "0x02": "0x01",
                    "0x03": "0x01"
                }
            },
            "0x39c781784dd951e40f66eaabdaa0825ac134e7f7": {
                "nonce": "0x01",
                "balance": "0x00",
                "code": "0x600160005401600055600160003514600958015700601a5801565b7322d339df985a054d335af73613545d6008566b37ff5b",
                "storage": {
                    "0x00": "0x02"
                }
            },
            "0xb504dd9f70d30e6956a4e2d8e08c96f7aa00782d": {
                "nonce": "0x01",
                "balance": "0x00",
                "code": "0x6001600052600060006020600060007339c781784dd951e40f66eaabdaa0825ac134e7f745f100",
                "storage": {}
            },
            "0x2adc25665018aa1fe0e6bc666dac8fc2697ff9ba": {
                "nonce": "0x00",
                "balance": "0x0d0938",
                "code": "0x",
                "storage": {}
            }
        },
        "lastblockhash": "0x83fe8fff8fc04cb6679f44b0b650c7dad67f145a33669de1325637741c6bdb70",
        "config": {
            "network": "Cancun",
            "chainid": "0x01",
            "blobSchedule": {
                "Cancun": {
                    "target": "0x03",
                    "max": "0x06",
                    "baseFeeUpdateFraction": "0x32f0ed"
                }
            }
        },
        "genesisRLP": "0xf9023cf90236a00000000000000000000000000000000000000000000000000000000000000000a01dcc4de8dec75d7aab85b567b6ccd41ad312451b948a7413f0a142fd40d49347940000000000000000000000000000000000000000a0484efd7362b87d7b091414b32f51ca7b42bc93186e35e560da39c01bfcee02eaa056e81f171bcc55a6ff8345e692c0f86e5b48e01b996cadc001622fb5e363b421a056e81f171bcc55a6ff8345e692c0f86e5b48e01b996cadc001622fb5e363b421b901000000000000000000000000000000000000000000000000000000000000000000000000000000000000000000000000000000000000000000000000000000000000000000000000000000000000000000000000000000000000000000000000000000000000000000000000000000000000000000000000000000000000000000000000000000000000000000000000000000000000000000000000000000000000000000000000000000000000000000000000000000000000000000000000000000000000000000000000000000000000000000000000000000000000000000000000000000000000000000000000000000000000000000000000000000000080808407270e00808000a0000000000000000000000000000000000000000000000000000000000000000088000000000000000007a056e81f171bcc55a6ff8345e692c0f86e5b48e01b996cadc001622fb5e363b4218080a00000000000000000000000000000000000000000000000000000000000000000c0c0c0",
        "blocks": [
            {
                "blockHeader": {
                    "parentHash": "0xc3dbcfe5ef2386e7dfc931b7841e5806ffadad8dfecbfed3c7158af23488e1b4",
                    "uncleHash": "0x1dcc4de8dec75d7aab85b567b6ccd41ad312451b948a7413f0a142fd40d49347",
                    "coinbase": "0x2adc25665018aa1fe0e6bc666dac8fc2697ff9ba",
                    "stateRoot": "0x852f8608b880ae54b6d60f043671c34f70dc0025f5d97026fde71c5b81d96854",
                    "transactionsTrie": "0x1a329d60ff02ca1d7fb7f4e0cbfab123ffdb555ec6be69778c02f39c497ba438",
                    "receiptTrie": "0x4068c26e2f2ca46473c87c1d87fad1ee5b3091ba28d4a9a86a8f914a9651bbef",
                    "bloom": "0x00000000000000000000000000000000000000000000000000000000000000000000000000000000000000000000000000000000000000000000000000000000000000000000000000000000000000000000000000000000000000000000000000000000000000000000000000000000000000000000000000000000000000000000000000000000000000000000000000000000000000000000000000000000000000000000000000000000000000000000000000000000000000000000000000000000000000000000000000000000000000000000000000000000000000000000000000000000000000000000000000000000000000000000000000000000",
                    "difficulty": "0x00",
                    "number": "0x01",
                    "gasLimit": "0x07270e00",
                    "gasUsed": "0x045868",
                    "timestamp": "0x0c",
                    "extraData": "0x",
                    "mixHash": "0x0000000000000000000000000000000000000000000000000000000000000000",
                    "nonce": "0x0000000000000000",
                    "baseFeePerGas": "0x07",
                    "withdrawalsRoot": "0x56e81f171bcc55a6ff8345e692c0f86e5b48e01b996cadc001622fb5e363b421",
                    "blobGasUsed": "0x00",
                    "excessBlobGas": "0x00",
                    "parentBeaconBlockRoot": "0x0000000000000000000000000000000000000000000000000000000000000000",
                    "hash": "0x83fe8fff8fc04cb6679f44b0b650c7dad67f145a33669de1325637741c6bdb70"
                },
                "transactions": [
                    {
                        "type": "0x00",
                        "chainId": "0x01",
                        "nonce": "0x00",
                        "gasPrice": "0x0a",
                        "gasLimit": "0x0f4240",
                        "to": "0x566b3a8221527d45ec972df82e19a31f788e477a",
                        "value": "0x00",
                        "data": "0x",
                        "v": "0x25",
                        "r": "0xab1171eab57132e4692ea5947d814107c024171c83fea845955bf5c8df482ad5",
                        "s": "0x1bd0f7f64e166a268851aa322d7c70a0d09f8dd504fde60fc85bc4f4a9477271",
                        "sender": "0x1ad9bc24818784172ff393bb6f89f094d4d2ca29"
                    },
                    {
                        "type": "0x00",
                        "chainId": "0x01",
                        "nonce": "0x01",
                        "gasPrice": "0x0a",
                        "gasLimit": "0x07a120",
                        "to": "0xb504dd9f70d30e6956a4e2d8e08c96f7aa00782d",
                        "value": "0x00",
                        "data": "0x",
                        "v": "0x25",
                        "r": "0x0ab822135d7356c24db398b516818444a5c583ea404f1f6507cc0cd6367e240b",
                        "s": "0x7ff30452d778972604a5e0e06eee691c83d27ab8e75a071e766fe5354f9087a1",
                        "sender": "0x1ad9bc24818784172ff393bb6f89f094d4d2ca29"
                    }
                ],
                "uncleHeaders": [],
                "withdrawals": [],
                "receipts": [
                    {
                        "transactionHash": "0x29ea6fd8a4b184298f5022225de9cf9afebffd1b02998a0100e85b32d790ab1a",
                        "type": "0x00",
                        "cumulativeGasUsed": "0x03cab2",
                        "bloom": "0x00000000000000000000000000000000000000000000000000000000000000000000000000000000000000000000000000000000000000000000000000000000000000000000000000000000000000000000000000000000000000000000000000000000000000000000000000000000000000000000000000000000000000000000000000000000000000000000000000000000000000000000000000000000000000000000000000000000000000000000000000000000000000000000000000000000000000000000000000000000000000000000000000000000000000000000000000000000000000000000000000000000000000000000000000000000",
                        "logs": [],
                        "status": true,
                        "rlp": "0xf90109018303cab2b9010000000000000000000000000000000000000000000000000000000000000000000000000000000000000000000000000000000000000000000000000000000000000000000000000000000000000000000000000000000000000000000000000000000000000000000000000000000000000000000000000000000000000000000000000000000000000000000000000000000000000000000000000000000000000000000000000000000000000000000000000000000000000000000000000000000000000000000000000000000000000000000000000000000000000000000000000000000000000000000000000000000000000000000000000000000000c0"
                    },
                    {
                        "transactionHash": "0xfa13bb898248b27159b60a15f9997c7f0264a04c66f99c7c3bb7f4f20beb2fc0",
                        "type": "0x00",
                        "cumulativeGasUsed": "0x045868",
                        "bloom": "0x00000000000000000000000000000000000000000000000000000000000000000000000000000000000000000000000000000000000000000000000000000000000000000000000000000000000000000000000000000000000000000000000000000000000000000000000000000000000000000000000000000000000000000000000000000000000000000000000000000000000000000000000000000000000000000000000000000000000000000000000000000000000000000000000000000000000000000000000000000000000000000000000000000000000000000000000000000000000000000000000000000000000000000000000000000000",
                        "logs": [],
                        "status": true,
                        "rlp": "0xf901090183045868b9010000000000000000000000000000000000000000000000000000000000000000000000000000000000000000000000000000000000000000000000000000000000000000000000000000000000000000000000000000000000000000000000000000000000000000000000000000000000000000000000000000000000000000000000000000000000000000000000000000000000000000000000000000000000000000000000000000000000000000000000000000000000000000000000000000000000000000000000000000000000000000000000000000000000000000000000000000000000000000000000000000000000000000000000000000000000c0"
                    }
                ],
                "rlp": "0xf90304f90239a0c3dbcfe5ef2386e7dfc931b7841e5806ffadad8dfecbfed3c7158af23488e1b4a01dcc4de8dec75d7aab85b567b6ccd41ad312451b948a7413f0a142fd40d49347942adc25665018aa1fe0e6bc666dac8fc2697ff9baa0852f8608b880ae54b6d60f043671c34f70dc0025f5d97026fde71c5b81d96854a01a329d60ff02ca1d7fb7f4e0cbfab123ffdb555ec6be69778c02f39c497ba438a04068c26e2f2ca46473c87c1d87fad1ee5b3091ba28d4a9a86a8f914a9651bbefb901000000000000000000000000000000000000000000000000000000000000000000000000000000000000000000000000000000000000000000000000000000000000000000000000000000000000000000000000000000000000000000000000000000000000000000000000000000000000000000000000000000000000000000000000000000000000000000000000000000000000000000000000000000000000000000000000000000000000000000000000000000000000000000000000000000000000000000000000000000000000000000000000000000000000000000000000000000000000000000000000000000000000000000000000000000000080018407270e00830458680c80a0000000000000000000000000000000000000000000000000000000000000000088000000000000000007a056e81f171bcc55a6ff8345e692c0f86e5b48e01b996cadc001622fb5e363b4218080a00000000000000000000000000000000000000000000000000000000000000000f8c4f860800a830f424094566b3a8221527d45ec972df82e19a31f788e477a808025a0ab1171eab57132e4692ea5947d814107c024171c83fea845955bf5c8df482ad5a01bd0f7f64e166a268851aa322d7c70a0d09f8dd504fde60fc85bc4f4a9477271f860010a8307a12094b504dd9f70d30e6956a4e2d8e08c96f7aa00782d808025a00ab822135d7356c24db398b516818444a5c583ea404f1f6507cc0cd6367e240ba07ff30452d778972604a5e0e06eee691c83d27ab8e75a071e766fe5354f9087a1c0c0",
                "blocknumber": "1"
            }
        ],
        "sealEngine": "NoProof",
        "_info": {
            "hash": "0x55ab7b65aa30bbc4cc2ecd5885a6f01a88ef3afe219525003aeda534c12c6b2d",
            "fixture-format": "blockchain_test",
            "comment": "`execution-specs` generated test",
            "filling-transition-tool": "2.19.0",
            "description": "Test creating multiple contracts in one transaction, destroying only one\nof them, then attempting to destroy the other in a subsequent transaction.\n\nContract A: Self-destructs in the same transaction as creation (deleted)\nContract B: Does NOT self-destruct in creation tx, attempted destruction\n            in subsequent tx (persists after EIP-6780)",
            "url": "https://github.com/ethereum/execution-specs/blob/tests-bal@v5.7.0/tests/cancun/eip6780_selfdestruct/test_selfdestruct.py#L1629",
            "metadata": {
                "opcode_count": {}
            },
            "reference-spec": "https://github.com/ethereum/EIPs/blob/master/EIPS/eip-6780.md",
            "reference-spec-version": "1b6a0e94cc47e859b9866e570391cf37dc55059a"
        }
    }
}