{
    "tests/ported_static/stMemoryStressTest/test_call_bounds.py::test_call_bounds[fork_Cancun-blockchain_test_from_state_test--g0]": {
        "network": "Cancun",
        "genesisBlockHeader": {
            "parentHash": "0x0000000000000000000000000000000000000000000000000000000000000000",
            "uncleHash": "0x1dcc4de8dec75d7aab85b567b6ccd41ad312451b948a7413f0a142fd40d49347",
            "coinbase": "0x0000000000000000000000000000000000000000",
            "stateRoot": "0xecc8b1521021d63e31491a56a46e333ff0772a45db36150f2accc7565fcb1e87",
            "transactionsTrie": "0x56e81f171bcc55a6ff8345e692c0f86e5b48e01b996cadc001622fb5e363b421",
            "receiptTrie": "0x56e81f171bcc55a6ff8345e692c0f86e5b48e01b996cadc001622fb5e363b421",
            "bloom": "0x00000000000000000000000000000000000000000000000000000000000000000000000000000000000000000000000000000000000000000000000000000000000000000000000000000000000000000000000000000000000000000000000000000000000000000000000000000000000000000000000000000000000000000000000000000000000000000000000000000000000000000000000000000000000000000000000000000000000000000000000000000000000000000000000000000000000000000000000000000000000000000000000000000000000000000000000000000000000000000000000000000000000000000000000000000000",
            "difficulty": "0x00",
            "number": "0x00",
            "gasLimit": "0x7fffffffffffffff",
            "gasUsed": "0x00",
            "timestamp": "0x00",
            "extraData": "0x00",
            "mixHash": "0x0000000000000000000000000000000000000000000000000000000000000000",
            "nonce": "0x0000000000000000",
            "baseFeePerGas": "0x0b",
            "withdrawalsRoot": "0x56e81f171bcc55a6ff8345e692c0f86e5b48e01b996cadc001622fb5e363b421",
            "blobGasUsed": "0x00",
            "excessBlobGas": "0x00",
            "parentBeaconBlockRoot": "0x0000000000000000000000000000000000000000000000000000000000000000",
            "hash": "0x53dcc8e65f75cd8f14717218abc8f18aa2bf39ef05b96c5036747c06458504e5"
        },
        "pre": {
            "0x000f3df6d732807ef1319fb7b8bb8522d0beac02": {
                "nonce": "0x01",
                "balance": "0x00",
                "code": "0x3373fffffffffffffffffffffffffffffffffffffffe14604d57602036146024575f5ffd5b5f35801560495762001fff810690815414603c575f5ffd5b62001fff01545f5260205ff35b5f5ffd5b62001fff42064281555f359062001fff015500",
                "storage": {}
            },
            "0x5da8c786ffe0d506dbff8faaa18d3875b733c94d": {
                "nonce": "0x00",
                "balance": "0xffffffffffffffffffffffffffffffffffffffffffffffffffffff",
                "code": "0x",
                "storage": {}
            },
            "0x3a9ad637d171156f66735584233a5125750f04f2": {
                "nonce": "0x00",
                "balance": "0x00",
                "code": "0x60005460010160005500",
                "storage": {}
            },
            "0x5db63c01fdac968b9e4040b298d527b2b673b519": {
                "nonce": "0x00",
                "balance": "0x00",
                "code": "0x60006000600060006000733a9ad637d171156f66735584233a5125750f04f26707fffffffffffffff150630fffffff6000630fffffff60006000733a9ad637d171156f66735584233a5125750f04f26707fffffffffffffff15063ffffffff600063ffffffff60006000733a9ad637d171156f66735584233a5125750f04f26707fffffffffffffff1506000630fffffff6000630fffffff6000733a9ad637d171156f66735584233a5125750f04f26707fffffffffffffff150600063ffffffff600063ffffffff6000733a9ad637d171156f66735584233a5125750f04f26707fffffffffffffff150600067ffffffffffffffff600067ffffffffffffffff6000733a9ad637d171156f66735584233a5125750f04f26707fffffffffffffff15060006fffffffffffffffffffffffffffffffff60006fffffffffffffffffffffffffffffffff6000733a9ad637d171156f66735584233a5125750f04f26707fffffffffffffff15060007fffffffffffffffffffffffffffffffffffffffffffffffffffffffffffffffff60007fffffffffffffffffffffffffffffffffffffffffffffffffffffffffffffffff6000733a9ad637d171156f66735584233a5125750f04f26707fffffffffffffff100",
                "storage": {}
            }
        },
        "postState": {
            "0x000f3df6d732807ef1319fb7b8bb8522d0beac02": {
                "nonce": "0x01",
                "balance": "0x00",
                "code": "0x3373fffffffffffffffffffffffffffffffffffffffe14604d57602036146024575f5ffd5b5f35801560495762001fff810690815414603c575f5ffd5b62001fff01545f5260205ff35b5f5ffd5b62001fff42064281555f359062001fff015500",
                "storage": {
                    "0x03e8": "0x03e8"
                }
            },
            "0x5da8c786ffe0d506dbff8faaa18d3875b733c94d": {
                "nonce": "0x01",
                "balance": "0xffffffffffffffffffffffffffffffffffffffffffffffffe91c9f",
                "code": "0x",
                "storage": {}
            },
            "0x3a9ad637d171156f66735584233a5125750f04f2": {
                "nonce": "0x00",
                "balance": "0x00",
                "code": "0x60005460010160005500",
                "storage": {}
            },
            "0x5db63c01fdac968b9e4040b298d527b2b673b519": {
                "nonce": "0x00",
                "balance": "0x00",
                "code": "0x60006000600060006000733a9ad637d171156f66735584233a5125750f04f26707fffffffffffffff150630fffffff6000630fffffff60006000733a9ad637d171156f66735584233a5125750f04f26707fffffffffffffff15063ffffffff600063ffffffff60006000733a9ad637d171156f66735584233a5125750f04f26707fffffffffffffff1506000630fffffff6000630fffffff6000733a9ad637d171156f66735584233a5125750f04f26707fffffffffffffff150600063ffffffff600063ffffffff6000733a9ad637d171156f66735584233a5125750f04f26707fffffffffffffff150600067ffffffffffffffff600067ffffffffffffffff6000733a9ad637d171156f66735584233a5125750f04f26707fffffffffffffff15060006fffffffffffffffffffffffffffffffff60006fffffffffffffffffffffffffffffffff6000733a9ad637d171156f66735584233a5125750f04f26707fffffffffffffff15060007fffffffffffffffffffffffffffffffffffffffffffffffffffffffffffffffff60007fffffffffffffffffffffffffffffffffffffffffffffffffffffffffffffffff6000733a9ad637d171156f66735584233a5125750f04f26707fffffffffffffff100",
                "storage": {}
            }
        },
        "lastblockhash": "0xb4cfe367f7f49aaf2f15da2838cb1ada7e022e030401371899de06da6aba5954",
        "config": {
            "network": "Cancun",
            "chainid": "0x01",
            "blobSchedule": {
                "Cancun": {
                    "target": "0x03",
                    "max": "0x06",
                    "baseFeeUpdateFraction": "0x32f0ed"
                }
            }
        },
        "genesisRLP": "0xf90240f9023aa00000000000000000000000000000000000000000000000000000000000000000a01dcc4de8dec75d7aab85b567b6ccd41ad312451b948a7413f0a142fd40d49347940000000000000000000000000000000000000000a0ecc8b1521021d63e31491a56a46e333ff0772a45db36150f2accc7565fcb1e87a056e81f171bcc55a6ff8345e692c0f86e5b48e01b996cadc001622fb5e363b421a056e81f171bcc55a6ff8345e692c0f86e5b48e01b996cadc001622fb5e363b421b90100000000000000000000000000000000000000000000000000000000000000000000000000000000000000000000000000000000000000000000000000000000000000000000000000000000000000000000000000000000000000000000000000000000000000000000000000000000000000000000000000000000000000000000000000000000000000000000000000000000000000000000000000000000000000000000000000000000000000000000000000000000000000000000000000000000000000000000000000000000000000000000000000000000000000000000000000000000000000000000000000000000000000000000000000000000008080887fffffffffffffff808000a000000000000000000000000000000000000000000000000000000000000000008800000000000000000ba056e81f171bcc55a6ff8345e692c0f86e5b48e01b996cadc001622fb5e363b4218080a00000000000000000000000000000000000000000000000000000000000000000c0c0c0",
        "blocks": [
            {
                "blockHeader": {
                    "parentHash": "0x53dcc8e65f75cd8f14717218abc8f18aa2bf39ef05b96c5036747c06458504e5",
                    "uncleHash": "0x1dcc4de8dec75d7aab85b567b6ccd41ad312451b948a7413f0a142fd40d49347",
                    "coinbase": "0x2adc25665018aa1fe0e6bc666dac8fc2697ff9ba",
                    "stateRoot": "0x2a63c607bcd47afbb938a11e698491ea17439f7f7916062569b372ab2580d198",
                    "transactionsTrie": "0xa281bc4b18972a8729a0129e0bf1347745b155e4ed90e634fe5003fc2a537e38",
                    "receiptTrie": "0xa0e10907f175886de9bd8cd4ac2c21d1db4109a3a9fecf60f54015ee102803fd",
                    "bloom": "0x00000000000000000000000000000000000000000000000000000000000000000000000000000000000000000000000000000000000000000000000000000000000000000000000000000000000000000000000000000000000000000000000000000000000000000000000000000000000000000000000000000000000000000000000000000000000000000000000000000000000000000000000000000000000000000000000000000000000000000000000000000000000000000000000000000000000000000000000000000000000000000000000000000000000000000000000000000000000000000000000000000000000000000000000000000000",
                    "difficulty": "0x00",
                    "number": "0x01",
                    "gasLimit": "0x7fffffffffffffff",
                    "gasUsed": "0x0249f0",
                    "timestamp": "0x03e8",
                    "extraData": "0x00",
                    "mixHash": "0x0000000000000000000000000000000000000000000000000000000000020000",
                    "nonce": "0x0000000000000000",
                    "baseFeePerGas": "0x0a",
                    "withdrawalsRoot": "0x56e81f171bcc55a6ff8345e692c0f86e5b48e01b996cadc001622fb5e363b421",
                    "blobGasUsed": "0x00",
                    "excessBlobGas": "0x00",
                    "parentBeaconBlockRoot": "0x0000000000000000000000000000000000000000000000000000000000000000",
                    "hash": "0xb4cfe367f7f49aaf2f15da2838cb1ada7e022e030401371899de06da6aba5954"
                },
                "transactions": [
                    {
                        "type": "0x00",
                        "chainId": "0x01",
                        "nonce": "0x00",
                        "gasPrice": "0x0a",
                        "gasLimit": "0x0249f0",
                        "to": "0x5db63c01fdac968b9e4040b298d527b2b673b519",
                        "value": "0x01",
                        "data": "0x",
                        "v": "0x26",
                        "r": "0xfba539a3d1c31daabb681cc9114a518f3f84acef5406b43f5f1296bcd4add346",
                        "s": "0x1d12a700c07c462974f44f124a415f202bc679d03490653f99503a5c621fa93a",
                        "sender": "0x5da8c786ffe0d506dbff8faaa18d3875b733c94d"
                    }
                ],
                "uncleHeaders": [],
                "withdrawals": [],
                "receipts": [
                    {
                        "transactionHash": "0x2aac12161af38dfc2ad57367bc1879bfbc28083449c2b28cd375ebf8777355f0",
                        "type": "0x00",
                        "cumulativeGasUsed": "0x0249f0",
                        "bloom": "0x00000000000000000000000000000000000000000000000000000000000000000000000000000000000000000000000000000000000000000000000000000000000000000000000000000000000000000000000000000000000000000000000000000000000000000000000000000000000000000000000000000000000000000000000000000000000000000000000000000000000000000000000000000000000000000000000000000000000000000000000000000000000000000000000000000000000000000000000000000000000000000000000000000000000000000000000000000000000000000000000000000000000000000000000000000000",
                        "logs": [],
                        "status": false,
                        "rlp": "0xf9010980830249f0b9010000000000000000000000000000000000000000000000000000000000000000000000000000000000000000000000000000000000000000000000000000000000000000000000000000000000000000000000000000000000000000000000000000000000000000000000000000000000000000000000000000000000000000000000000000000000000000000000000000000000000000000000000000000000000000000000000000000000000000000000000000000000000000000000000000000000000000000000000000000000000000000000000000000000000000000000000000000000000000000000000000000000000000000000000000000000c0"
                    }
                ],
                "rlp": "0xf902a8f9023fa053dcc8e65f75cd8f14717218abc8f18aa2bf39ef05b96c5036747c06458504e5a01dcc4de8dec75d7aab85b567b6ccd41ad312451b948a7413f0a142fd40d49347942adc25665018aa1fe0e6bc666dac8fc2697ff9baa02a63c607bcd47afbb938a11e698491ea17439f7f7916062569b372ab2580d198a0a281bc4b18972a8729a0129e0bf1347745b155e4ed90e634fe5003fc2a537e38a0a0e10907f175886de9bd8cd4ac2c21d1db4109a3a9fecf60f54015ee102803fdb90100000000000000000000000000000000000000000000000000000000000000000000000000000000000000000000000000000000000000000000000000000000000000000000000000000000000000000000000000000000000000000000000000000000000000000000000000000000000000000000000000000000000000000000000000000000000000000000000000000000000000000000000000000000000000000000000000000000000000000000000000000000000000000000000000000000000000000000000000000000000000000000000000000000000000000000000000000000000000000000000000000000000000000000000000000000008001887fffffffffffffff830249f08203e800a000000000000000000000000000000000000000000000000000000000000200008800000000000000000aa056e81f171bcc55a6ff8345e692c0f86e5b48e01b996cadc001622fb5e363b4218080a00000000000000000000000000000000000000000000000000000000000000000f862f860800a830249f0945db63c01fdac968b9e4040b298d527b2b673b519018026a0fba539a3d1c31daabb681cc9114a518f3f84acef5406b43f5f1296bcd4add346a01d12a700c07c462974f44f124a415f202bc679d03490653f99503a5c621fa93ac0c0",
                "blocknumber": "1"
            }
        ],
        "sealEngine": "NoProof",
        "_info": {
            "hash": "0x3a767188bd663858ed7224f436e2b2b1910d62b95086abe0fd52f0f358213d81",
            "fixture-format": "blockchain_test",
            "comment": "`execution-specs` generated test",
            "filling-transition-tool": "2.19.0",
            "description": "Test_call_bounds.",
            "url": "https://github.com/ethereum/execution-specs/blob/tests-snobal-devnet-5@v8037.0.0/tests/ported_static/stMemoryStressTest/test_call_bounds.py#L25",
            "metadata": {
                "opcode_count": {}
            }
        }
    },
    "tests/ported_static/stMemoryStressTest/test_call_bounds.py::test_call_bounds[fork_Cancun-blockchain_test_from_state_test--g1]": {
        "network": "Cancun",
        "genesisBlockHeader": {
            "parentHash": "0x0000000000000000000000000000000000000000000000000000000000000000",
            "uncleHash": "0x1dcc4de8dec75d7aab85b567b6ccd41ad312451b948a7413f0a142fd40d49347",
            "coinbase": "0x0000000000000000000000000000000000000000",
            "stateRoot": "0xecc8b1521021d63e31491a56a46e333ff0772a45db36150f2accc7565fcb1e87",
            "transactionsTrie": "0x56e81f171bcc55a6ff8345e692c0f86e5b48e01b996cadc001622fb5e363b421",
            "receiptTrie": "0x56e81f171bcc55a6ff8345e692c0f86e5b48e01b996cadc001622fb5e363b421",
            "bloom": "0x00000000000000000000000000000000000000000000000000000000000000000000000000000000000000000000000000000000000000000000000000000000000000000000000000000000000000000000000000000000000000000000000000000000000000000000000000000000000000000000000000000000000000000000000000000000000000000000000000000000000000000000000000000000000000000000000000000000000000000000000000000000000000000000000000000000000000000000000000000000000000000000000000000000000000000000000000000000000000000000000000000000000000000000000000000000",
            "difficulty": "0x00",
            "number": "0x00",
            "gasLimit": "0x7fffffffffffffff",
            "gasUsed": "0x00",
            "timestamp": "0x00",
            "extraData": "0x00",
            "mixHash": "0x0000000000000000000000000000000000000000000000000000000000000000",
            "nonce": "0x0000000000000000",
            "baseFeePerGas": "0x0b",
            "withdrawalsRoot": "0x56e81f171bcc55a6ff8345e692c0f86e5b48e01b996cadc001622fb5e363b421",
            "blobGasUsed": "0x00",
            "excessBlobGas": "0x00",
            "parentBeaconBlockRoot": "0x0000000000000000000000000000000000000000000000000000000000000000",
            "hash": "0x53dcc8e65f75cd8f14717218abc8f18aa2bf39ef05b96c5036747c06458504e5"
        },
        "pre": {
            "0x000f3df6d732807ef1319fb7b8bb8522d0beac02": {
                "nonce": "0x01",
                "balance": "0x00",
                "code": "0x3373fffffffffffffffffffffffffffffffffffffffe14604d57602036146024575f5ffd5b5f35801560495762001fff810690815414603c575f5ffd5b62001fff01545f5260205ff35b5f5ffd5b62001fff42064281555f359062001fff015500",
                "storage": {}
            },
            "0x5da8c786ffe0d506dbff8faaa18d3875b733c94d": {
                "nonce": "0x00",
                "balance": "0xffffffffffffffffffffffffffffffffffffffffffffffffffffff",
                "code": "0x",
                "storage": {}
            },
            "0x3a9ad637d171156f66735584233a5125750f04f2": {
                "nonce": "0x00",
                "balance": "0x00",
                "code": "0x60005460010160005500",
                "storage": {}
            },
            "0x5db63c01fdac968b9e4040b298d527b2b673b519": {
                "nonce": "0x00",
                "balance": "0x00",
                "code": "0x60006000600060006000733a9ad637d171156f66735584233a5125750f04f26707fffffffffffffff150630fffffff6000630fffffff60006000733a9ad637d171156f66735584233a5125750f04f26707fffffffffffffff15063ffffffff600063ffffffff60006000733a9ad637d171156f66735584233a5125750f04f26707fffffffffffffff1506000630fffffff6000630fffffff6000733a9ad637d171156f66735584233a5125750f04f26707fffffffffffffff150600063ffffffff600063ffffffff6000733a9ad637d171156f66735584233a5125750f04f26707fffffffffffffff150600067ffffffffffffffff600067ffffffffffffffff6000733a9ad637d171156f66735584233a5125750f04f26707fffffffffffffff15060006fffffffffffffffffffffffffffffffff60006fffffffffffffffffffffffffffffffff6000733a9ad637d171156f66735584233a5125750f04f26707fffffffffffffff15060007fffffffffffffffffffffffffffffffffffffffffffffffffffffffffffffffff60007fffffffffffffffffffffffffffffffffffffffffffffffffffffffffffffffff6000733a9ad637d171156f66735584233a5125750f04f26707fffffffffffffff100",
                "storage": {}
            }
        },
        "postState": {
            "0x000f3df6d732807ef1319fb7b8bb8522d0beac02": {
                "nonce": "0x01",
                "balance": "0x00",
                "code": "0x3373fffffffffffffffffffffffffffffffffffffffe14604d57602036146024575f5ffd5b5f35801560495762001fff810690815414603c575f5ffd5b62001fff01545f5260205ff35b5f5ffd5b62001fff42064281555f359062001fff015500",
                "storage": {
                    "0x03e8": "0x03e8"
                }
            },
            "0x5da8c786ffe0d506dbff8faaa18d3875b733c94d": {
                "nonce": "0x01",
                "balance": "0xfffffffffffffffffffffffffffffffffffffffffffffff5ffffff",
                "code": "0x",
                "storage": {}
            },
            "0x3a9ad637d171156f66735584233a5125750f04f2": {
                "nonce": "0x00",
                "balance": "0x00",
                "code": "0x60005460010160005500",
                "storage": {}
            },
            "0x5db63c01fdac968b9e4040b298d527b2b673b519": {
                "nonce": "0x00",
                "balance": "0x00",
                "code": "0x60006000600060006000733a9ad637d171156f66735584233a5125750f04f26707fffffffffffffff150630fffffff6000630fffffff60006000733a9ad637d171156f66735584233a5125750f04f26707fffffffffffffff15063ffffffff600063ffffffff60006000733a9ad637d171156f66735584233a5125750f04f26707fffffffffffffff1506000630fffffff6000630fffffff6000733a9ad637d171156f66735584233a5125750f04f26707fffffffffffffff150600063ffffffff600063ffffffff6000733a9ad637d171156f66735584233a5125750f04f26707fffffffffffffff150600067ffffffffffffffff600067ffffffffffffffff6000733a9ad637d171156f66735584233a5125750f04f26707fffffffffffffff15060006fffffffffffffffffffffffffffffffff60006fffffffffffffffffffffffffffffffff6000733a9ad637d171156f66735584233a5125750f04f26707fffffffffffffff15060007fffffffffffffffffffffffffffffffffffffffffffffffffffffffffffffffff60007fffffffffffffffffffffffffffffffffffffffffffffffffffffffffffffffff6000733a9ad637d171156f66735584233a5125750f04f26707fffffffffffffff100",
                "storage": {}
            }
        },
        "lastblockhash": "0xe690aad7744ee8472b35013ee4377ffd7237347d36f0f7c8f63299ce8e4fad5c",
        "config": {
            "network": "Cancun",
            "chainid": "0x01",
            "blobSchedule": {
                "Cancun": {
                    "target": "0x03",
                    "max": "0x06",
                    "baseFeeUpdateFraction": "0x32f0ed"
                }
            }
        },
        "genesisRLP": "0xf90240f9023aa00000000000000000000000000000000000000000000000000000000000000000a01dcc4de8dec75d7aab85b567b6ccd41ad312451b948a7413f0a142fd40d49347940000000000000000000000000000000000000000a0ecc8b1521021d63e31491a56a46e333ff0772a45db36150f2accc7565fcb1e87a056e81f171bcc55a6ff8345e692c0f86e5b48e01b996cadc001622fb5e363b421a056e81f171bcc55a6ff8345e692c0f86e5b48e01b996cadc001622fb5e363b421b90100000000000000000000000000000000000000000000000000000000000000000000000000000000000000000000000000000000000000000000000000000000000000000000000000000000000000000000000000000000000000000000000000000000000000000000000000000000000000000000000000000000000000000000000000000000000000000000000000000000000000000000000000000000000000000000000000000000000000000000000000000000000000000000000000000000000000000000000000000000000000000000000000000000000000000000000000000000000000000000000000000000000000000000000000000000008080887fffffffffffffff808000a000000000000000000000000000000000000000000000000000000000000000008800000000000000000ba056e81f171bcc55a6ff8345e692c0f86e5b48e01b996cadc001622fb5e363b4218080a00000000000000000000000000000000000000000000000000000000000000000c0c0c0",
        "blocks": [
            {
                "blockHeader": {
                    "parentHash": "0x53dcc8e65f75cd8f14717218abc8f18aa2bf39ef05b96c5036747c06458504e5",
                    "uncleHash": "0x1dcc4de8dec75d7aab85b567b6ccd41ad312451b948a7413f0a142fd40d49347",
                    "coinbase": "0x2adc25665018aa1fe0e6bc666dac8fc2697ff9ba",
                    "stateRoot": "0xb35b77b0cb3d3c37fd3bc5a98c8a710cc45b33188f0adcb06557538937c1a133",
                    "transactionsTrie": "0x99c16717b4dd84c7f2b31a2596cb033b85e760d32bd12d59a2cbb4ebc9f5ad92",
                    "receiptTrie": "0x6109c57d8983f520f4b510024a1760aff8d920bb293bbc00c30abdac956b3b2f",
                    "bloom": "0x00000000000000000000000000000000000000000000000000000000000000000000000000000000000000000000000000000000000000000000000000000000000000000000000000000000000000000000000000000000000000000000000000000000000000000000000000000000000000000000000000000000000000000000000000000000000000000000000000000000000000000000000000000000000000000000000000000000000000000000000000000000000000000000000000000000000000000000000000000000000000000000000000000000000000000000000000000000000000000000000000000000000000000000000000000000",
                    "difficulty": "0x00",
                    "number": "0x01",
                    "gasLimit": "0x7fffffffffffffff",
                    "gasUsed": "0x01000000",
                    "timestamp": "0x03e8",
                    "extraData": "0x00",
                    "mixHash": "0x0000000000000000000000000000000000000000000000000000000000020000",
                    "nonce": "0x0000000000000000",
                    "baseFeePerGas": "0x0a",
                    "withdrawalsRoot": "0x56e81f171bcc55a6ff8345e692c0f86e5b48e01b996cadc001622fb5e363b421",
                    "blobGasUsed": "0x00",
                    "excessBlobGas": "0x00",
                    "parentBeaconBlockRoot": "0x0000000000000000000000000000000000000000000000000000000000000000",
                    "hash": "0xe690aad7744ee8472b35013ee4377ffd7237347d36f0f7c8f63299ce8e4fad5c"
                },
                "transactions": [
                    {
                        "type": "0x00",
                        "chainId": "0x01",
                        "nonce": "0x00",
                        "gasPrice": "0x0a",
                        "gasLimit": "0x01000000",
                        "to": "0x5db63c01fdac968b9e4040b298d527b2b673b519",
                        "value": "0x01",
                        "data": "0x",
                        "v": "0x26",
                        "r": "0x4dbdfecb6d5997bcc70f3ed86e8b8c5aada3038cfc52412aa8b3994c465142cb",
                        "s": "0x1f61a55c89f014c7462242b1d8b3d76ac76ba1d8498fbc2ba6ac3089888f5bd0",
                        "sender": "0x5da8c786ffe0d506dbff8faaa18d3875b733c94d"
                    }
                ],
                "uncleHeaders": [],
                "withdrawals": [],
                "receipts": [
                    {
                        "transactionHash": "0x61794b96f1edaa1caf54ea94ed672df982cacd62d9967e1a3f1528a6360d2597",
                        "type": "0x00",
                        "cumulativeGasUsed": "0x01000000",
                        "bloom": "0x00000000000000000000000000000000000000000000000000000000000000000000000000000000000000000000000000000000000000000000000000000000000000000000000000000000000000000000000000000000000000000000000000000000000000000000000000000000000000000000000000000000000000000000000000000000000000000000000000000000000000000000000000000000000000000000000000000000000000000000000000000000000000000000000000000000000000000000000000000000000000000000000000000000000000000000000000000000000000000000000000000000000000000000000000000000",
                        "logs": [],
                        "status": false,
                        "rlp": "0xf9010a808401000000b9010000000000000000000000000000000000000000000000000000000000000000000000000000000000000000000000000000000000000000000000000000000000000000000000000000000000000000000000000000000000000000000000000000000000000000000000000000000000000000000000000000000000000000000000000000000000000000000000000000000000000000000000000000000000000000000000000000000000000000000000000000000000000000000000000000000000000000000000000000000000000000000000000000000000000000000000000000000000000000000000000000000000000000000000000000000000c0"
                    }
                ],
                "rlp": "0xf902aaf90240a053dcc8e65f75cd8f14717218abc8f18aa2bf39ef05b96c5036747c06458504e5a01dcc4de8dec75d7aab85b567b6ccd41ad312451b948a7413f0a142fd40d49347942adc25665018aa1fe0e6bc666dac8fc2697ff9baa0b35b77b0cb3d3c37fd3bc5a98c8a710cc45b33188f0adcb06557538937c1a133a099c16717b4dd84c7f2b31a2596cb033b85e760d32bd12d59a2cbb4ebc9f5ad92a06109c57d8983f520f4b510024a1760aff8d920bb293bbc00c30abdac956b3b2fb90100000000000000000000000000000000000000000000000000000000000000000000000000000000000000000000000000000000000000000000000000000000000000000000000000000000000000000000000000000000000000000000000000000000000000000000000000000000000000000000000000000000000000000000000000000000000000000000000000000000000000000000000000000000000000000000000000000000000000000000000000000000000000000000000000000000000000000000000000000000000000000000000000000000000000000000000000000000000000000000000000000000000000000000000000000000008001887fffffffffffffff84010000008203e800a000000000000000000000000000000000000000000000000000000000000200008800000000000000000aa056e81f171bcc55a6ff8345e692c0f86e5b48e01b996cadc001622fb5e363b4218080a00000000000000000000000000000000000000000000000000000000000000000f863f861800a8401000000945db63c01fdac968b9e4040b298d527b2b673b519018026a04dbdfecb6d5997bcc70f3ed86e8b8c5aada3038cfc52412aa8b3994c465142cba01f61a55c89f014c7462242b1d8b3d76ac76ba1d8498fbc2ba6ac3089888f5bd0c0c0",
                "blocknumber": "1"
            }
        ],
        "sealEngine": "NoProof",
        "_info": {
            "hash": "0x2ee34b9d2dae07f8d67acd918336bee1d9f8a127eb54b6a756a4230b90a456ff",
            "fixture-format": "blockchain_test",
            "comment": "`execution-specs` generated test",
            "filling-transition-tool": "2.19.0",
            "description": "Test_call_bounds.",
            "url": "https://github.com/ethereum/execution-specs/blob/tests-snobal-devnet-5@v8037.0.0/tests/ported_static/stMemoryStressTest/test_call_bounds.py#L25",
            "metadata": {
                "opcode_count": {}
            }
        }
    }
}