{
    "tests/ported_static/stSpecialTest/test_selfdestruct_eip2929.py::test_selfdestruct_eip2929[fork_Cancun-blockchain_test_from_state_test]": {
        "network": "Cancun",
        "genesisBlockHeader": {
            "parentHash": "0x0000000000000000000000000000000000000000000000000000000000000000",
            "uncleHash": "0x1dcc4de8dec75d7aab85b567b6ccd41ad312451b948a7413f0a142fd40d49347",
            "coinbase": "0x0000000000000000000000000000000000000000",
            "stateRoot": "0x51773f0fb9ec4509d9b9806dda3a9ddad6f4bc3a25dd3faf1b124360f716e129",
            "transactionsTrie": "0x56e81f171bcc55a6ff8345e692c0f86e5b48e01b996cadc001622fb5e363b421",
            "receiptTrie": "0x56e81f171bcc55a6ff8345e692c0f86e5b48e01b996cadc001622fb5e363b421",
            "bloom": "0x00000000000000000000000000000000000000000000000000000000000000000000000000000000000000000000000000000000000000000000000000000000000000000000000000000000000000000000000000000000000000000000000000000000000000000000000000000000000000000000000000000000000000000000000000000000000000000000000000000000000000000000000000000000000000000000000000000000000000000000000000000000000000000000000000000000000000000000000000000000000000000000000000000000000000000000000000000000000000000000000000000000000000000000000000000000",
            "difficulty": "0x00",
            "number": "0x00",
            "gasLimit": "0x07270e00",
            "gasUsed": "0x00",
            "timestamp": "0x00",
            "extraData": "0x00",
            "mixHash": "0x0000000000000000000000000000000000000000000000000000000000000000",
            "nonce": "0x0000000000000000",
            "baseFeePerGas": "0x0b",
            "withdrawalsRoot": "0x56e81f171bcc55a6ff8345e692c0f86e5b48e01b996cadc001622fb5e363b421",
            "blobGasUsed": "0x00",
            "excessBlobGas": "0x00",
            "parentBeaconBlockRoot": "0x0000000000000000000000000000000000000000000000000000000000000000",
            "hash": "0xf91850bb4112f13e179660d977e39d131a607db4442bfba10158f36a145691f7"
        },
        "pre": {
            "0x000f3df6d732807ef1319fb7b8bb8522d0beac02": {
                "nonce": "0x01",
                "balance": "0x00",
                "code": "0x3373fffffffffffffffffffffffffffffffffffffffe14604d57602036146024575f5ffd5b5f35801560495762001fff810690815414603c575f5ffd5b62001fff01545f5260205ff35b5f5ffd5b62001fff42064281555f359062001fff015500",
                "storage": {}
            },
            "0xd66f224cbd2fabb21b17bb53c56118f32f62ebd6": {
                "nonce": "0x00",
                "balance": "0x0de0b6b3a7640000",
                "code": "0x",
                "storage": {}
            },
            "0x4dc69b66e60350f45cc82f45d622415f8099c5c3": {
                "nonce": "0x01",
                "balance": "0x01",
                "code": "0x6000600060006000600060cc6000f1506000600060006000600060dd6000f1506000600060006000600060036000f15060aa6000526000600060206000600061dead5af15060aa6000526000600060206000600061dead5af15060bb6000526000600060206000600061dead5af15060bb6000526000600060206000600061dead5af15060cc6000526000600060206000600061dead5af15060cc6000526000600060206000600061dead5af15060dd6000526000600060206000600061dead5af15060dd6000526000600060206000600061dead5af15060016000526000600060206000600061dead5af15060016000526000600060206000600061dead5af15060026000526000600060206000600061dead5af15060026000526000600060206000600061dead5af15060036000526000600060206000600061dead5af1506001600155",
                "storage": {}
            },
            "0x2b055633084f94eb75e907c01b4bb900a9e3a8cb": {
                "nonce": "0x01",
                "balance": "0x01",
                "code": "0x60003574ffffffffffffffffffffffffffffffffffffffffff16ff",
                "storage": {}
            }
        },
        "postState": {
            "0x000f3df6d732807ef1319fb7b8bb8522d0beac02": {
                "nonce": "0x01",
                "balance": "0x00",
                "code": "0x3373fffffffffffffffffffffffffffffffffffffffe14604d57602036146024575f5ffd5b5f35801560495762001fff810690815414603c575f5ffd5b62001fff01545f5260205ff35b5f5ffd5b62001fff42064281555f359062001fff015500",
                "storage": {
                    "0x03e8": "0x03e8"
                }
            },
            "0xd66f224cbd2fabb21b17bb53c56118f32f62ebd6": {
                "nonce": "0x01",
                "balance": "0x0de0b6b3a75bf626",
                "code": "0x",
                "storage": {}
            },
            "0x4dc69b66e60350f45cc82f45d622415f8099c5c3": {
                "nonce": "0x01",
                "balance": "0x01",
                "code": "0x6000600060006000600060cc6000f1506000600060006000600060dd6000f1506000600060006000600060036000f15060aa6000526000600060206000600061dead5af15060aa6000526000600060206000600061dead5af15060bb6000526000600060206000600061dead5af15060bb6000526000600060206000600061dead5af15060cc6000526000600060206000600061dead5af15060cc6000526000600060206000600061dead5af15060dd6000526000600060206000600061dead5af15060dd6000526000600060206000600061dead5af15060016000526000600060206000600061dead5af15060016000526000600060206000600061dead5af15060026000526000600060206000600061dead5af15060026000526000600060206000600061dead5af15060036000526000600060206000600061dead5af1506001600155",
                "storage": {
                    "0x01": "0x01"
                }
            },
            "0x2b055633084f94eb75e907c01b4bb900a9e3a8cb": {
                "nonce": "0x01",
                "balance": "0x01",
                "code": "0x60003574ffffffffffffffffffffffffffffffffffffffffff16ff",
                "storage": {}
            }
        },
        "lastblockhash": "0xbdd7087a4c2d05aac143acb4bb52bbc1b168a952ab744f393daa278009ad6f64",
        "config": {
            "network": "Cancun",
            "chainid": "0x01",
            "blobSchedule": {
                "Cancun": {
                    "target": "0x03",
                    "max": "0x06",
                    "baseFeeUpdateFraction": "0x32f0ed"
                }
            }
        },
        "genesisRLP": "0xf9023cf90236a00000000000000000000000000000000000000000000000000000000000000000a01dcc4de8dec75d7aab85b567b6ccd41ad312451b948a7413f0a142fd40d49347940000000000000000000000000000000000000000a051773f0fb9ec4509d9b9806dda3a9ddad6f4bc3a25dd3faf1b124360f716e129a056e81f171bcc55a6ff8345e692c0f86e5b48e01b996cadc001622fb5e363b421a056e81f171bcc55a6ff8345e692c0f86e5b48e01b996cadc001622fb5e363b421b901000000000000000000000000000000000000000000000000000000000000000000000000000000000000000000000000000000000000000000000000000000000000000000000000000000000000000000000000000000000000000000000000000000000000000000000000000000000000000000000000000000000000000000000000000000000000000000000000000000000000000000000000000000000000000000000000000000000000000000000000000000000000000000000000000000000000000000000000000000000000000000000000000000000000000000000000000000000000000000000000000000000000000000000000000000000080808407270e00808000a000000000000000000000000000000000000000000000000000000000000000008800000000000000000ba056e81f171bcc55a6ff8345e692c0f86e5b48e01b996cadc001622fb5e363b4218080a00000000000000000000000000000000000000000000000000000000000000000c0c0c0",
        "blocks": [
            {
                "blockHeader": {
                    "parentHash": "0xf91850bb4112f13e179660d977e39d131a607db4442bfba10158f36a145691f7",
                    "uncleHash": "0x1dcc4de8dec75d7aab85b567b6ccd41ad312451b948a7413f0a142fd40d49347",
                    "coinbase": "0xb94f5374fce5edbc8e2a8697c15331677e6ebf0b",
                    "stateRoot": "0xb4f555c2d880f0abdfa6295965a1e23b1d33c376e452e914fe1eedde5566a236",
                    "transactionsTrie": "0xa6d7cdd6d62bd8b470f05b55ac3a028b935c4d95c781326f97c48b848111cf69",
                    "receiptTrie": "0xb95082467dd199cbddc839085a20963964614e5269217c9f264502cce2685a24",
                    "bloom": "0x00000000000000000000000000000000000000000000000000000000000000000000000000000000000000000000000000000000000000000000000000000000000000000000000000000000000000000000000000000000000000000000000000000000000000000000000000000000000000000000000000000000000000000000000000000000000000000000000000000000000000000000000000000000000000000000000000000000000000000000000000000000000000000000000000000000000000000000000000000000000000000000000000000000000000000000000000000000000000000000000000000000000000000000000000000000",
                    "difficulty": "0x00",
                    "number": "0x01",
                    "gasLimit": "0x07270e00",
                    "gasUsed": "0xcdc9",
                    "timestamp": "0x03e8",
                    "extraData": "0x00",
                    "mixHash": "0x0000000000000000000000000000000000000000000000000000000000020000",
                    "nonce": "0x0000000000000000",
                    "baseFeePerGas": "0x0a",
                    "withdrawalsRoot": "0x56e81f171bcc55a6ff8345e692c0f86e5b48e01b996cadc001622fb5e363b421",
                    "blobGasUsed": "0x00",
                    "excessBlobGas": "0x00",
                    "parentBeaconBlockRoot": "0x0000000000000000000000000000000000000000000000000000000000000000",
                    "hash": "0xbdd7087a4c2d05aac143acb4bb52bbc1b168a952ab744f393daa278009ad6f64"
                },
                "transactions": [
                    {
                        "type": "0x00",
                        "chainId": "0x01",
                        "nonce": "0x00",
                        "gasPrice": "0x0a",
                        "gasLimit": "0x7a1200",
                        "to": "0x4dc69b66e60350f45cc82f45d622415f8099c5c3",
                        "value": "0x00",
                        "data": "0x",
                        "v": "0x26",
                        "r": "0xdea590c011439619e6b0fef1cf7108d946578503f9dcc7dd1b36bb178f84fd3e",
                        "s": "0x2eca2bc80b0df23f872108d3a6034c25a68485cb470df80389d19c48071a2676",
                        "sender": "0xd66f224cbd2fabb21b17bb53c56118f32f62ebd6"
                    }
                ],
                "uncleHeaders": [],
                "withdrawals": [],
                "receipts": [
                    {
                        "transactionHash": "0x1c27dc90e71af156aab07fe861ea93441b8ed7fbd0cf1ea0b78b07f0f465bd8a",
                        "type": "0x00",
                        "cumulativeGasUsed": "0xcdc9",
                        "bloom": "0x00000000000000000000000000000000000000000000000000000000000000000000000000000000000000000000000000000000000000000000000000000000000000000000000000000000000000000000000000000000000000000000000000000000000000000000000000000000000000000000000000000000000000000000000000000000000000000000000000000000000000000000000000000000000000000000000000000000000000000000000000000000000000000000000000000000000000000000000000000000000000000000000000000000000000000000000000000000000000000000000000000000000000000000000000000000",
                        "logs": [],
                        "status": true,
                        "rlp": "0xf901080182cdc9b9010000000000000000000000000000000000000000000000000000000000000000000000000000000000000000000000000000000000000000000000000000000000000000000000000000000000000000000000000000000000000000000000000000000000000000000000000000000000000000000000000000000000000000000000000000000000000000000000000000000000000000000000000000000000000000000000000000000000000000000000000000000000000000000000000000000000000000000000000000000000000000000000000000000000000000000000000000000000000000000000000000000000000000000000000000000000c0"
                    }
                ],
                "rlp": "0xf902a3f9023aa0f91850bb4112f13e179660d977e39d131a607db4442bfba10158f36a145691f7a01dcc4de8dec75d7aab85b567b6ccd41ad312451b948a7413f0a142fd40d4934794b94f5374fce5edbc8e2a8697c15331677e6ebf0ba0b4f555c2d880f0abdfa6295965a1e23b1d33c376e452e914fe1eedde5566a236a0a6d7cdd6d62bd8b470f05b55ac3a028b935c4d95c781326f97c48b848111cf69a0b95082467dd199cbddc839085a20963964614e5269217c9f264502cce2685a24b901000000000000000000000000000000000000000000000000000000000000000000000000000000000000000000000000000000000000000000000000000000000000000000000000000000000000000000000000000000000000000000000000000000000000000000000000000000000000000000000000000000000000000000000000000000000000000000000000000000000000000000000000000000000000000000000000000000000000000000000000000000000000000000000000000000000000000000000000000000000000000000000000000000000000000000000000000000000000000000000000000000000000000000000000000000000080018407270e0082cdc98203e800a000000000000000000000000000000000000000000000000000000000000200008800000000000000000aa056e81f171bcc55a6ff8345e692c0f86e5b48e01b996cadc001622fb5e363b4218080a00000000000000000000000000000000000000000000000000000000000000000f862f860800a837a1200944dc69b66e60350f45cc82f45d622415f8099c5c3808026a0dea590c011439619e6b0fef1cf7108d946578503f9dcc7dd1b36bb178f84fd3ea02eca2bc80b0df23f872108d3a6034c25a68485cb470df80389d19c48071a2676c0c0",
                "blocknumber": "1"
            }
        ],
        "sealEngine": "NoProof",
        "_info": {
            "hash": "0xfbaa03c9d1d50d4a966401d7b86408191a477fa1ad4182282bcd59a2d7154f48",
            "fixture-format": "blockchain_test",
            "comment": "`execution-specs` generated test",
            "filling-transition-tool": "2.19.0",
            "description": "Martin: @tkstanczak requested a state-test regarding selfdestructs...",
            "url": "https://github.com/ethereum/execution-specs/blob/tests-snobal-devnet-5@v8037.0.0/tests/ported_static/stSpecialTest/test_selfdestruct_eip2929.py#L24",
            "metadata": {
                "opcode_count": {}
            },
            "reference-spec": "https://github.com/ethereum/EIPs/blob/master/N/A",
            "reference-spec-version": "N/A"
        }
    }
}