{
    "tests/ported_static/stSpecialTest/test_selfdestruct_eip2929.py::test_selfdestruct_eip2929[fork_Cancun-blockchain_test_from_state_test]": {
        "network": "Cancun",
        "genesisBlockHeader": {
            "parentHash": "0x0000000000000000000000000000000000000000000000000000000000000000",
            "uncleHash": "0x1dcc4de8dec75d7aab85b567b6ccd41ad312451b948a7413f0a142fd40d49347",
            "coinbase": "0x0000000000000000000000000000000000000000",
            "stateRoot": "0x0edf21c2ddd559652ea8fc914fa4597f747b149cab578a0025853be1365a9830",
            "transactionsTrie": "0x56e81f171bcc55a6ff8345e692c0f86e5b48e01b996cadc001622fb5e363b421",
            "receiptTrie": "0x56e81f171bcc55a6ff8345e692c0f86e5b48e01b996cadc001622fb5e363b421",
            "bloom": "0x00000000000000000000000000000000000000000000000000000000000000000000000000000000000000000000000000000000000000000000000000000000000000000000000000000000000000000000000000000000000000000000000000000000000000000000000000000000000000000000000000000000000000000000000000000000000000000000000000000000000000000000000000000000000000000000000000000000000000000000000000000000000000000000000000000000000000000000000000000000000000000000000000000000000000000000000000000000000000000000000000000000000000000000000000000000",
            "difficulty": "0x00",
            "number": "0x00",
            "gasLimit": "0x07270e00",
            "gasUsed": "0x00",
            "timestamp": "0x00",
            "extraData": "0x00",
            "mixHash": "0x0000000000000000000000000000000000000000000000000000000000000000",
            "nonce": "0x0000000000000000",
            "baseFeePerGas": "0x0b",
            "withdrawalsRoot": "0x56e81f171bcc55a6ff8345e692c0f86e5b48e01b996cadc001622fb5e363b421",
            "blobGasUsed": "0x00",
            "excessBlobGas": "0x00",
            "parentBeaconBlockRoot": "0x0000000000000000000000000000000000000000000000000000000000000000",
            "hash": "0x78b4f226c816f0cd2373d321eb141b589e7908b61f678184928b40c08ae2d72a"
        },
        "pre": {
            "0x000f3df6d732807ef1319fb7b8bb8522d0beac02": {
                "nonce": "0x01",
                "balance": "0x00",
                "code": "0x3373fffffffffffffffffffffffffffffffffffffffe14604d57602036146024575f5ffd5b5f35801560495762001fff810690815414603c575f5ffd5b62001fff01545f5260205ff35b5f5ffd5b62001fff42064281555f359062001fff015500",
                "storage": {}
            },
            "0x9ecbdbdbd8448cdd955755cdd81d6918e436f68a": {
                "nonce": "0x01",
                "balance": "0x00",
                "code": "0x",
                "storage": {}
            },
            "0x7704d8a022a1ba8f3539fc82c7d7fb065abc0df3": {
                "nonce": "0x01",
                "balance": "0x00",
                "code": "0x",
                "storage": {}
            },
            "0xb686be1a7a0f441fae9583884043ac034fe82089": {
                "nonce": "0x01",
                "balance": "0x01",
                "code": "0x6000600060006000600060cc6000f1506000600060006000600060dd6000f1506000600060006000600060036000f15060aa6000526000600060206000600061dead5af15060aa6000526000600060206000600061dead5af15060bb6000526000600060206000600061dead5af15060bb6000526000600060206000600061dead5af15060cc6000526000600060206000600061dead5af15060cc6000526000600060206000600061dead5af15060dd6000526000600060206000600061dead5af15060dd6000526000600060206000600061dead5af15060016000526000600060206000600061dead5af15060016000526000600060206000600061dead5af15060026000526000600060206000600061dead5af15060026000526000600060206000600061dead5af15060036000526000600060206000600061dead5af1506001600155",
                "storage": {}
            },
            "0xd2e5c26a2f035a63d0859e255621ed1e57148085": {
                "nonce": "0x01",
                "balance": "0x01",
                "code": "0x60003574ffffffffffffffffffffffffffffffffffffffffff16ff",
                "storage": {}
            },
            "0x2e3d0156d2b99a6eacba540c55f423c8f5a33143": {
                "nonce": "0x00",
                "balance": "0x0de0b6b3a7640000",
                "code": "0x",
                "storage": {}
            }
        },
        "postState": {
            "0x000f3df6d732807ef1319fb7b8bb8522d0beac02": {
                "nonce": "0x01",
                "balance": "0x00",
                "code": "0x3373fffffffffffffffffffffffffffffffffffffffe14604d57602036146024575f5ffd5b5f35801560495762001fff810690815414603c575f5ffd5b62001fff01545f5260205ff35b5f5ffd5b62001fff42064281555f359062001fff015500",
                "storage": {
                    "0x03e8": "0x03e8"
                }
            },
            "0x9ecbdbdbd8448cdd955755cdd81d6918e436f68a": {
                "nonce": "0x01",
                "balance": "0x00",
                "code": "0x",
                "storage": {}
            },
            "0x7704d8a022a1ba8f3539fc82c7d7fb065abc0df3": {
                "nonce": "0x01",
                "balance": "0x00",
                "code": "0x",
                "storage": {}
            },
            "0xb686be1a7a0f441fae9583884043ac034fe82089": {
                "nonce": "0x01",
                "balance": "0x01",
                "code": "0x6000600060006000600060cc6000f1506000600060006000600060dd6000f1506000600060006000600060036000f15060aa6000526000600060206000600061dead5af15060aa6000526000600060206000600061dead5af15060bb6000526000600060206000600061dead5af15060bb6000526000600060206000600061dead5af15060cc6000526000600060206000600061dead5af15060cc6000526000600060206000600061dead5af15060dd6000526000600060206000600061dead5af15060dd6000526000600060206000600061dead5af15060016000526000600060206000600061dead5af15060016000526000600060206000600061dead5af15060026000526000600060206000600061dead5af15060026000526000600060206000600061dead5af15060036000526000600060206000600061dead5af1506001600155",
                "storage": {
                    "0x01": "0x01"
                }
            },
            "0xd2e5c26a2f035a63d0859e255621ed1e57148085": {
                "nonce": "0x01",
                "balance": "0x01",
                "code": "0x60003574ffffffffffffffffffffffffffffffffffffffffff16ff",
                "storage": {}
            },
            "0x2e3d0156d2b99a6eacba540c55f423c8f5a33143": {
                "nonce": "0x01",
                "balance": "0x0de0b6b3a75bf626",
                "code": "0x",
                "storage": {}
            }
        },
        "lastblockhash": "0x08c4e2715abf4cf18bda79270318281543a828be8639b0273f16d706262374a9",
        "config": {
            "network": "Cancun",
            "chainid": "0x01",
            "blobSchedule": {
                "Cancun": {
                    "target": "0x03",
                    "max": "0x06",
                    "baseFeeUpdateFraction": "0x32f0ed"
                }
            }
        },
        "genesisRLP": "0xf9023cf90236a00000000000000000000000000000000000000000000000000000000000000000a01dcc4de8dec75d7aab85b567b6ccd41ad312451b948a7413f0a142fd40d49347940000000000000000000000000000000000000000a00edf21c2ddd559652ea8fc914fa4597f747b149cab578a0025853be1365a9830a056e81f171bcc55a6ff8345e692c0f86e5b48e01b996cadc001622fb5e363b421a056e81f171bcc55a6ff8345e692c0f86e5b48e01b996cadc001622fb5e363b421b901000000000000000000000000000000000000000000000000000000000000000000000000000000000000000000000000000000000000000000000000000000000000000000000000000000000000000000000000000000000000000000000000000000000000000000000000000000000000000000000000000000000000000000000000000000000000000000000000000000000000000000000000000000000000000000000000000000000000000000000000000000000000000000000000000000000000000000000000000000000000000000000000000000000000000000000000000000000000000000000000000000000000000000000000000000000080808407270e00808000a000000000000000000000000000000000000000000000000000000000000000008800000000000000000ba056e81f171bcc55a6ff8345e692c0f86e5b48e01b996cadc001622fb5e363b4218080a00000000000000000000000000000000000000000000000000000000000000000c0c0c0",
        "blocks": [
            {
                "blockHeader": {
                    "parentHash": "0x78b4f226c816f0cd2373d321eb141b589e7908b61f678184928b40c08ae2d72a",
                    "uncleHash": "0x1dcc4de8dec75d7aab85b567b6ccd41ad312451b948a7413f0a142fd40d49347",
                    "coinbase": "0xb94f5374fce5edbc8e2a8697c15331677e6ebf0b",
                    "stateRoot": "0x1985426e99c6f16593dd8b1c11b72da0afcb9ef22684d9a352d0e9aa99b9c85d",
                    "transactionsTrie": "0xdcff54976dd0c1498ee36260dedc576ab2cb9a53cf89ba192ed3205265912153",
                    "receiptTrie": "0xb95082467dd199cbddc839085a20963964614e5269217c9f264502cce2685a24",
                    "bloom": "0x00000000000000000000000000000000000000000000000000000000000000000000000000000000000000000000000000000000000000000000000000000000000000000000000000000000000000000000000000000000000000000000000000000000000000000000000000000000000000000000000000000000000000000000000000000000000000000000000000000000000000000000000000000000000000000000000000000000000000000000000000000000000000000000000000000000000000000000000000000000000000000000000000000000000000000000000000000000000000000000000000000000000000000000000000000000",
                    "difficulty": "0x00",
                    "number": "0x01",
                    "gasLimit": "0x07270e00",
                    "gasUsed": "0xcdc9",
                    "timestamp": "0x03e8",
                    "extraData": "0x00",
                    "mixHash": "0x0000000000000000000000000000000000000000000000000000000000020000",
                    "nonce": "0x0000000000000000",
                    "baseFeePerGas": "0x0a",
                    "withdrawalsRoot": "0x56e81f171bcc55a6ff8345e692c0f86e5b48e01b996cadc001622fb5e363b421",
                    "blobGasUsed": "0x00",
                    "excessBlobGas": "0x00",
                    "parentBeaconBlockRoot": "0x0000000000000000000000000000000000000000000000000000000000000000",
                    "hash": "0x08c4e2715abf4cf18bda79270318281543a828be8639b0273f16d706262374a9"
                },
                "transactions": [
                    {
                        "type": "0x00",
                        "chainId": "0x01",
                        "nonce": "0x00",
                        "gasPrice": "0x0a",
                        "gasLimit": "0x7a1200",
                        "to": "0xb686be1a7a0f441fae9583884043ac034fe82089",
                        "value": "0x00",
                        "data": "0x",
                        "v": "0x26",
                        "r": "0x0e771f8a75602deac1993edfc85df7ff46f035be535277240f6153a83aa212db",
                        "s": "0x4f762d6d6b885b20206ac2a48ee60605dda2a60df90b450db088264f390bb131",
                        "sender": "0x2e3d0156d2b99a6eacba540c55f423c8f5a33143"
                    }
                ],
                "uncleHeaders": [],
                "withdrawals": [],
                "receipts": [
                    {
                        "transactionHash": "0xa086816e767139e67cd0c113e1e73e314ab9e8aeaa012585b199a1ebe83d9508",
                        "type": "0x00",
                        "cumulativeGasUsed": "0xcdc9",
                        "bloom": "0x00000000000000000000000000000000000000000000000000000000000000000000000000000000000000000000000000000000000000000000000000000000000000000000000000000000000000000000000000000000000000000000000000000000000000000000000000000000000000000000000000000000000000000000000000000000000000000000000000000000000000000000000000000000000000000000000000000000000000000000000000000000000000000000000000000000000000000000000000000000000000000000000000000000000000000000000000000000000000000000000000000000000000000000000000000000",
                        "logs": [],
                        "status": true,
                        "rlp": "0xf901080182cdc9b9010000000000000000000000000000000000000000000000000000000000000000000000000000000000000000000000000000000000000000000000000000000000000000000000000000000000000000000000000000000000000000000000000000000000000000000000000000000000000000000000000000000000000000000000000000000000000000000000000000000000000000000000000000000000000000000000000000000000000000000000000000000000000000000000000000000000000000000000000000000000000000000000000000000000000000000000000000000000000000000000000000000000000000000000000000000000c0"
                    }
                ],
                "rlp": "0xf902a3f9023aa078b4f226c816f0cd2373d321eb141b589e7908b61f678184928b40c08ae2d72aa01dcc4de8dec75d7aab85b567b6ccd41ad312451b948a7413f0a142fd40d4934794b94f5374fce5edbc8e2a8697c15331677e6ebf0ba01985426e99c6f16593dd8b1c11b72da0afcb9ef22684d9a352d0e9aa99b9c85da0dcff54976dd0c1498ee36260dedc576ab2cb9a53cf89ba192ed3205265912153a0b95082467dd199cbddc839085a20963964614e5269217c9f264502cce2685a24b901000000000000000000000000000000000000000000000000000000000000000000000000000000000000000000000000000000000000000000000000000000000000000000000000000000000000000000000000000000000000000000000000000000000000000000000000000000000000000000000000000000000000000000000000000000000000000000000000000000000000000000000000000000000000000000000000000000000000000000000000000000000000000000000000000000000000000000000000000000000000000000000000000000000000000000000000000000000000000000000000000000000000000000000000000000000080018407270e0082cdc98203e800a000000000000000000000000000000000000000000000000000000000000200008800000000000000000aa056e81f171bcc55a6ff8345e692c0f86e5b48e01b996cadc001622fb5e363b4218080a00000000000000000000000000000000000000000000000000000000000000000f862f860800a837a120094b686be1a7a0f441fae9583884043ac034fe82089808026a00e771f8a75602deac1993edfc85df7ff46f035be535277240f6153a83aa212dba04f762d6d6b885b20206ac2a48ee60605dda2a60df90b450db088264f390bb131c0c0",
                "blocknumber": "1"
            }
        ],
        "sealEngine": "NoProof",
        "_info": {
            "hash": "0x9dc458112d427b4ee64ea80f430c88f6768b58cbf002fdda25a9cdf54a6780cf",
            "fixture-format": "blockchain_test",
            "comment": "`execution-specs` generated test",
            "filling-transition-tool": "2.19.0",
            "description": "Martin: @tkstanczak requested a state-test regarding selfdestructs...",
            "url": "https://github.com/ethereum/execution-specs/blob/tests-sn\u00f8bal-devnet-4@v1.0.0/tests/ported_static/stSpecialTest/test_selfdestruct_eip2929.py#L25",
            "metadata": {
                "opcode_count": {}
            },
            "reference-spec": "https://github.com/ethereum/EIPs/blob/master/N/A",
            "reference-spec-version": "N/A"
        }
    }
}