{
    "tests/ported_static/stStaticCall/test_static_revert_depth2.py::test_static_revert_depth2[fork_Cancun-blockchain_test_from_state_test]": {
        "network": "Cancun",
        "genesisBlockHeader": {
            "parentHash": "0x0000000000000000000000000000000000000000000000000000000000000000",
            "uncleHash": "0x1dcc4de8dec75d7aab85b567b6ccd41ad312451b948a7413f0a142fd40d49347",
            "coinbase": "0x0000000000000000000000000000000000000000",
            "stateRoot": "0xab7d87da3bef9e1b9ae51ac5c31fbf5dafcbcc77e9ce2b6563a02cd4e8ea85b1",
            "transactionsTrie": "0x56e81f171bcc55a6ff8345e692c0f86e5b48e01b996cadc001622fb5e363b421",
            "receiptTrie": "0x56e81f171bcc55a6ff8345e692c0f86e5b48e01b996cadc001622fb5e363b421",
            "bloom": "0x00000000000000000000000000000000000000000000000000000000000000000000000000000000000000000000000000000000000000000000000000000000000000000000000000000000000000000000000000000000000000000000000000000000000000000000000000000000000000000000000000000000000000000000000000000000000000000000000000000000000000000000000000000000000000000000000000000000000000000000000000000000000000000000000000000000000000000000000000000000000000000000000000000000000000000000000000000000000000000000000000000000000000000000000000000000",
            "difficulty": "0x00",
            "number": "0x00",
            "gasLimit": "0x989680",
            "gasUsed": "0x00",
            "timestamp": "0x00",
            "extraData": "0x00",
            "mixHash": "0x0000000000000000000000000000000000000000000000000000000000000000",
            "nonce": "0x0000000000000000",
            "baseFeePerGas": "0x0b",
            "withdrawalsRoot": "0x56e81f171bcc55a6ff8345e692c0f86e5b48e01b996cadc001622fb5e363b421",
            "blobGasUsed": "0x00",
            "excessBlobGas": "0x00",
            "parentBeaconBlockRoot": "0x0000000000000000000000000000000000000000000000000000000000000000",
            "hash": "0x261c2bfc4a4dc2ac8ef3a63ea8795e2c612deea774445fd91916ab036cd73f9d"
        },
        "pre": {
            "0x000f3df6d732807ef1319fb7b8bb8522d0beac02": {
                "nonce": "0x01",
                "balance": "0x00",
                "code": "0x3373fffffffffffffffffffffffffffffffffffffffe14604d57602036146024575f5ffd5b5f35801560495762001fff810690815414603c575f5ffd5b62001fff01545f5260205ff35b5f5ffd5b62001fff42064281555f359062001fff015500",
                "storage": {}
            },
            "0xfaa10b404ab607779993c016cd5da73ae1f29d7e": {
                "nonce": "0x00",
                "balance": "0xe8d4a51000",
                "code": "0x",
                "storage": {}
            },
            "0x57c111943c5e6f1817ee85fd1212409b7d1f7f26": {
                "nonce": "0x00",
                "balance": "0x00",
                "code": "0x6000546001016000556000600060006000735dd18f4768e54de1443f70ec11ad95d5db424293620249f0fa600155600060006000600073a61140a1c2699a13c619940208a513d42f654e98620249f0fa60025500",
                "storage": {}
            },
            "0x5dd18f4768e54de1443f70ec11ad95d5db424293": {
                "nonce": "0x00",
                "balance": "0x00",
                "code": "0x60006000600060007315b1327fe926a2172adfd10efdef1505c8e1546161c350fa50600160015200",
                "storage": {}
            },
            "0x15b1327fe926a2172adfd10efdef1505c8e15461": {
                "nonce": "0x00",
                "balance": "0x00",
                "code": "0x600160015200",
                "storage": {}
            },
            "0xa61140a1c2699a13c619940208a513d42f654e98": {
                "nonce": "0x00",
                "balance": "0x00",
                "code": "0x60006000600060007315b1327fe926a2172adfd10efdef1505c8e1546161c350fa50622fffff60002000",
                "storage": {}
            }
        },
        "postState": {
            "0x000f3df6d732807ef1319fb7b8bb8522d0beac02": {
                "nonce": "0x01",
                "balance": "0x00",
                "code": "0x3373fffffffffffffffffffffffffffffffffffffffe14604d57602036146024575f5ffd5b5f35801560495762001fff810690815414603c575f5ffd5b62001fff01545f5260205ff35b5f5ffd5b62001fff42064281555f359062001fff015500",
                "storage": {
                    "0x03e8": "0x03e8"
                }
            },
            "0xfaa10b404ab607779993c016cd5da73ae1f29d7e": {
                "nonce": "0x01",
                "balance": "0xe8d482af10",
                "code": "0x",
                "storage": {}
            },
            "0x57c111943c5e6f1817ee85fd1212409b7d1f7f26": {
                "nonce": "0x00",
                "balance": "0x00",
                "code": "0x6000546001016000556000600060006000735dd18f4768e54de1443f70ec11ad95d5db424293620249f0fa600155600060006000600073a61140a1c2699a13c619940208a513d42f654e98620249f0fa60025500",
                "storage": {
                    "0x00": "0x01",
                    "0x01": "0x01"
                }
            },
            "0x5dd18f4768e54de1443f70ec11ad95d5db424293": {
                "nonce": "0x00",
                "balance": "0x00",
                "code": "0x60006000600060007315b1327fe926a2172adfd10efdef1505c8e1546161c350fa50600160015200",
                "storage": {}
            },
            "0x15b1327fe926a2172adfd10efdef1505c8e15461": {
                "nonce": "0x00",
                "balance": "0x00",
                "code": "0x600160015200",
                "storage": {}
            },
            "0xa61140a1c2699a13c619940208a513d42f654e98": {
                "nonce": "0x00",
                "balance": "0x00",
                "code": "0x60006000600060007315b1327fe926a2172adfd10efdef1505c8e1546161c350fa50622fffff60002000",
                "storage": {}
            }
        },
        "lastblockhash": "0xa110214e13a79a862857f713ce85d9656fa7dff313611e813b4804ca2c873733",
        "config": {
            "network": "Cancun",
            "chainid": "0x01",
            "blobSchedule": {
                "Cancun": {
                    "target": "0x03",
                    "max": "0x06",
                    "baseFeeUpdateFraction": "0x32f0ed"
                }
            }
        },
        "genesisRLP": "0xf9023bf90235a00000000000000000000000000000000000000000000000000000000000000000a01dcc4de8dec75d7aab85b567b6ccd41ad312451b948a7413f0a142fd40d49347940000000000000000000000000000000000000000a0ab7d87da3bef9e1b9ae51ac5c31fbf5dafcbcc77e9ce2b6563a02cd4e8ea85b1a056e81f171bcc55a6ff8345e692c0f86e5b48e01b996cadc001622fb5e363b421a056e81f171bcc55a6ff8345e692c0f86e5b48e01b996cadc001622fb5e363b421b9010000000000000000000000000000000000000000000000000000000000000000000000000000000000000000000000000000000000000000000000000000000000000000000000000000000000000000000000000000000000000000000000000000000000000000000000000000000000000000000000000000000000000000000000000000000000000000000000000000000000000000000000000000000000000000000000000000000000000000000000000000000000000000000000000000000000000000000000000000000000000000000000000000000000000000000000000000000000000000000000000000000000000000000000000000000000808083989680808000a000000000000000000000000000000000000000000000000000000000000000008800000000000000000ba056e81f171bcc55a6ff8345e692c0f86e5b48e01b996cadc001622fb5e363b4218080a00000000000000000000000000000000000000000000000000000000000000000c0c0c0",
        "blocks": [
            {
                "blockHeader": {
                    "parentHash": "0x261c2bfc4a4dc2ac8ef3a63ea8795e2c612deea774445fd91916ab036cd73f9d",
                    "uncleHash": "0x1dcc4de8dec75d7aab85b567b6ccd41ad312451b948a7413f0a142fd40d49347",
                    "coinbase": "0x2adc25665018aa1fe0e6bc666dac8fc2697ff9ba",
                    "stateRoot": "0xeb065c917e24453249744e12693620f13d34ababa8f83c6f087926398db23e65",
                    "transactionsTrie": "0xaa4dc8aaf31bd48331585b7e48ba3c6ed72ba976a9bc671ab0b5df354203e0dc",
                    "receiptTrie": "0xe085a56ee0af42648e93d0922e653e3bed0fc865e01db46b5f77baec0e043028",
                    "bloom": "0x00000000000000000000000000000000000000000000000000000000000000000000000000000000000000000000000000000000000000000000000000000000000000000000000000000000000000000000000000000000000000000000000000000000000000000000000000000000000000000000000000000000000000000000000000000000000000000000000000000000000000000000000000000000000000000000000000000000000000000000000000000000000000000000000000000000000000000000000000000000000000000000000000000000000000000000000000000000000000000000000000000000000000000000000000000000",
                    "difficulty": "0x00",
                    "number": "0x01",
                    "gasLimit": "0x989680",
                    "gasUsed": "0x037018",
                    "timestamp": "0x03e8",
                    "extraData": "0x00",
                    "mixHash": "0x0000000000000000000000000000000000000000000000000000000000020000",
                    "nonce": "0x0000000000000000",
                    "baseFeePerGas": "0x0a",
                    "withdrawalsRoot": "0x56e81f171bcc55a6ff8345e692c0f86e5b48e01b996cadc001622fb5e363b421",
                    "blobGasUsed": "0x00",
                    "excessBlobGas": "0x00",
                    "parentBeaconBlockRoot": "0x0000000000000000000000000000000000000000000000000000000000000000",
                    "hash": "0xa110214e13a79a862857f713ce85d9656fa7dff313611e813b4804ca2c873733"
                },
                "transactions": [
                    {
                        "type": "0x00",
                        "chainId": "0x01",
                        "nonce": "0x00",
                        "gasPrice": "0x0a",
                        "gasLimit": "0x1a0b62",
                        "to": "0x57c111943c5e6f1817ee85fd1212409b7d1f7f26",
                        "value": "0x00",
                        "data": "0x",
                        "v": "0x25",
                        "r": "0xcc88f82432c60157939b9d5369265998a0a4c34ee5e21514078d3b2fbafa996c",
                        "s": "0x4bbae4e32519330839eb3d3a02f17f640dac6199a5b63ba5b7f64026f448c830",
                        "sender": "0xfaa10b404ab607779993c016cd5da73ae1f29d7e"
                    }
                ],
                "uncleHeaders": [],
                "withdrawals": [],
                "receipts": [
                    {
                        "transactionHash": "0xf0dddca330d9b50f6955fbba5334f19e6c8684325ecc2e5d60d5c2b2f7a7f047",
                        "type": "0x00",
                        "cumulativeGasUsed": "0x037018",
                        "bloom": "0x00000000000000000000000000000000000000000000000000000000000000000000000000000000000000000000000000000000000000000000000000000000000000000000000000000000000000000000000000000000000000000000000000000000000000000000000000000000000000000000000000000000000000000000000000000000000000000000000000000000000000000000000000000000000000000000000000000000000000000000000000000000000000000000000000000000000000000000000000000000000000000000000000000000000000000000000000000000000000000000000000000000000000000000000000000000",
                        "logs": [],
                        "status": true,
                        "rlp": "0xf901090183037018b9010000000000000000000000000000000000000000000000000000000000000000000000000000000000000000000000000000000000000000000000000000000000000000000000000000000000000000000000000000000000000000000000000000000000000000000000000000000000000000000000000000000000000000000000000000000000000000000000000000000000000000000000000000000000000000000000000000000000000000000000000000000000000000000000000000000000000000000000000000000000000000000000000000000000000000000000000000000000000000000000000000000000000000000000000000000000c0"
                    }
                ],
                "rlp": "0xf902a3f9023aa0261c2bfc4a4dc2ac8ef3a63ea8795e2c612deea774445fd91916ab036cd73f9da01dcc4de8dec75d7aab85b567b6ccd41ad312451b948a7413f0a142fd40d49347942adc25665018aa1fe0e6bc666dac8fc2697ff9baa0eb065c917e24453249744e12693620f13d34ababa8f83c6f087926398db23e65a0aa4dc8aaf31bd48331585b7e48ba3c6ed72ba976a9bc671ab0b5df354203e0dca0e085a56ee0af42648e93d0922e653e3bed0fc865e01db46b5f77baec0e043028b9010000000000000000000000000000000000000000000000000000000000000000000000000000000000000000000000000000000000000000000000000000000000000000000000000000000000000000000000000000000000000000000000000000000000000000000000000000000000000000000000000000000000000000000000000000000000000000000000000000000000000000000000000000000000000000000000000000000000000000000000000000000000000000000000000000000000000000000000000000000000000000000000000000000000000000000000000000000000000000000000000000000000000000000000000000000000800183989680830370188203e800a000000000000000000000000000000000000000000000000000000000000200008800000000000000000aa056e81f171bcc55a6ff8345e692c0f86e5b48e01b996cadc001622fb5e363b4218080a00000000000000000000000000000000000000000000000000000000000000000f862f860800a831a0b629457c111943c5e6f1817ee85fd1212409b7d1f7f26808025a0cc88f82432c60157939b9d5369265998a0a4c34ee5e21514078d3b2fbafa996ca04bbae4e32519330839eb3d3a02f17f640dac6199a5b63ba5b7f64026f448c830c0c0",
                "blocknumber": "1"
            }
        ],
        "sealEngine": "NoProof",
        "_info": {
            "hash": "0xc9ede7138957eb52d99c2a5690af4001d53576721dee89a1fc5324ccd051971f",
            "fixture-format": "blockchain_test",
            "comment": "`execution-specs` generated test",
            "filling-transition-tool": "2.19.0",
            "description": "Test_static_revert_depth2.",
            "url": "https://github.com/ethereum/execution-specs/blob/tests-sn\u00f8bal-devnet-4@v1.0.0/tests/ported_static/stStaticCall/test_static_revert_depth2.py#L25",
            "metadata": {
                "opcode_count": {}
            }
        }
    }
}