{
    "tests/ported_static/stRandom2/test_random_statetest648.py::test_random_statetest648[fork_Cancun-blockchain_test_from_state_test]": {
        "network": "Cancun",
        "genesisBlockHeader": {
            "parentHash": "0x0000000000000000000000000000000000000000000000000000000000000000",
            "uncleHash": "0x1dcc4de8dec75d7aab85b567b6ccd41ad312451b948a7413f0a142fd40d49347",
            "coinbase": "0x0000000000000000000000000000000000000000",
            "stateRoot": "0xbbcd33db57365465d53d66f8e6d1d14182e1c63944f52e02da45beef40666067",
            "transactionsTrie": "0x56e81f171bcc55a6ff8345e692c0f86e5b48e01b996cadc001622fb5e363b421",
            "receiptTrie": "0x56e81f171bcc55a6ff8345e692c0f86e5b48e01b996cadc001622fb5e363b421",
            "bloom": "0x00000000000000000000000000000000000000000000000000000000000000000000000000000000000000000000000000000000000000000000000000000000000000000000000000000000000000000000000000000000000000000000000000000000000000000000000000000000000000000000000000000000000000000000000000000000000000000000000000000000000000000000000000000000000000000000000000000000000000000000000000000000000000000000000000000000000000000000000000000000000000000000000000000000000000000000000000000000000000000000000000000000000000000000000000000000",
            "difficulty": "0x00",
            "number": "0x00",
            "gasLimit": "0x26e1f476fe1e22",
            "gasUsed": "0x00",
            "timestamp": "0x00",
            "extraData": "0x00",
            "mixHash": "0x0000000000000000000000000000000000000000000000000000000000000000",
            "nonce": "0x0000000000000000",
            "baseFeePerGas": "0x0b",
            "withdrawalsRoot": "0x56e81f171bcc55a6ff8345e692c0f86e5b48e01b996cadc001622fb5e363b421",
            "blobGasUsed": "0x00",
            "excessBlobGas": "0x00",
            "parentBeaconBlockRoot": "0x0000000000000000000000000000000000000000000000000000000000000000",
            "hash": "0x26f58ed29f2d415020f04485459e0e6846afc594991e95c63c5865a18f400fb0"
        },
        "pre": {
            "0x000f3df6d732807ef1319fb7b8bb8522d0beac02": {
                "nonce": "0x01",
                "balance": "0x00",
                "code": "0x3373fffffffffffffffffffffffffffffffffffffffe14604d57602036146024575f5ffd5b5f35801560495762001fff810690815414603c575f5ffd5b62001fff01545f5260205ff35b5f5ffd5b62001fff42064281555f359062001fff015500",
                "storage": {}
            },
            "0xd9fac10bcb409a736bdaea234d4f3a7a6994e194": {
                "nonce": "0x00",
                "balance": "0xffffffff",
                "code": "0x",
                "storage": {}
            },
            "0xb8358cf7f21af23b895c44901de66c4719da1d3e": {
                "nonce": "0x00",
                "balance": "0x00",
                "code": "0x600060006000600060f15af450600060005060f5fffd",
                "storage": {}
            },
            "0x8213f652785bb79d92d9f900db3f3909cd00d0a8": {
                "nonce": "0x00",
                "balance": "0x00",
                "code": "0x600050",
                "storage": {}
            }
        },
        "postState": {
            "0x000f3df6d732807ef1319fb7b8bb8522d0beac02": {
                "nonce": "0x01",
                "balance": "0x00",
                "code": "0x3373fffffffffffffffffffffffffffffffffffffffe14604d57602036146024575f5ffd5b5f35801560495762001fff810690815414603c575f5ffd5b62001fff01545f5260205ff35b5f5ffd5b62001fff42064281555f359062001fff015500",
                "storage": {
                    "0x03e8": "0x03e8"
                }
            },
            "0xd9fac10bcb409a736bdaea234d4f3a7a6994e194": {
                "nonce": "0x01",
                "balance": "0xff1c0e1d",
                "code": "0x",
                "storage": {}
            },
            "0xb8358cf7f21af23b895c44901de66c4719da1d3e": {
                "nonce": "0x00",
                "balance": "0x00",
                "code": "0x600060006000600060f15af450600060005060f5fffd",
                "storage": {}
            },
            "0x8213f652785bb79d92d9f900db3f3909cd00d0a8": {
                "nonce": "0x00",
                "balance": "0x00",
                "code": "0x600050",
                "storage": {}
            },
            "0x00000000000000000000000000000000000000f5": {
                "nonce": "0x00",
                "balance": "0xdb2206",
                "code": "0x",
                "storage": {}
            }
        },
        "lastblockhash": "0x659b6af4d69925971c17c6ae2e8ed8ad76a0e7cc4460b129e4e42da570ee2669",
        "config": {
            "network": "Cancun",
            "chainid": "0x01",
            "blobSchedule": {
                "Cancun": {
                    "target": "0x03",
                    "max": "0x06",
                    "baseFeeUpdateFraction": "0x32f0ed"
                }
            }
        },
        "genesisRLP": "0xf9023ff90239a00000000000000000000000000000000000000000000000000000000000000000a01dcc4de8dec75d7aab85b567b6ccd41ad312451b948a7413f0a142fd40d49347940000000000000000000000000000000000000000a0bbcd33db57365465d53d66f8e6d1d14182e1c63944f52e02da45beef40666067a056e81f171bcc55a6ff8345e692c0f86e5b48e01b996cadc001622fb5e363b421a056e81f171bcc55a6ff8345e692c0f86e5b48e01b996cadc001622fb5e363b421b901000000000000000000000000000000000000000000000000000000000000000000000000000000000000000000000000000000000000000000000000000000000000000000000000000000000000000000000000000000000000000000000000000000000000000000000000000000000000000000000000000000000000000000000000000000000000000000000000000000000000000000000000000000000000000000000000000000000000000000000000000000000000000000000000000000000000000000000000000000000000000000000000000000000000000000000000000000000000000000000000000000000000000000000000000000000080808726e1f476fe1e22808000a000000000000000000000000000000000000000000000000000000000000000008800000000000000000ba056e81f171bcc55a6ff8345e692c0f86e5b48e01b996cadc001622fb5e363b4218080a00000000000000000000000000000000000000000000000000000000000000000c0c0c0",
        "blocks": [
            {
                "blockHeader": {
                    "parentHash": "0x26f58ed29f2d415020f04485459e0e6846afc594991e95c63c5865a18f400fb0",
                    "uncleHash": "0x1dcc4de8dec75d7aab85b567b6ccd41ad312451b948a7413f0a142fd40d49347",
                    "coinbase": "0xb94f5374fce5edbc8e2a8697c15331677e6ebf0b",
                    "stateRoot": "0xa3d018b6bef7d6fb6915995c296553860769672974b8ff3e7cdc91df344661e4",
                    "transactionsTrie": "0x08f6af1dab35eac7fdc07ddbf62c7f27b05addfd212b77e36a0d6ab6383ef3fb",
                    "receiptTrie": "0xbf5891d9095ce149b020c61da81cc63fe391539048c3691f9d6eadc503d9e2cc",
                    "bloom": "0x00000000000000000000000000000000000000000000000000000000000000000000000000000000000000000000000000000000000000000000000000000000000000000000000000000000000000000000000000000000000000000000000000000000000000000000000000000000000000000000000000000000000000000000000000000000000000000000000000000000000000000000000000000000000000000000000000000000000000000000000000000000000000000000000000000000000000000000000000000000000000000000000000000000000000000000000000000000000000000000000000000000000000000000000000000000",
                    "difficulty": "0x00",
                    "number": "0x01",
                    "gasLimit": "0x26e1f476fe1e22",
                    "gasUsed": "0xe196",
                    "timestamp": "0x03e8",
                    "extraData": "0x00",
                    "mixHash": "0x0000000000000000000000000000000000000000000000000000000000020000",
                    "nonce": "0x0000000000000000",
                    "baseFeePerGas": "0x0a",
                    "withdrawalsRoot": "0x56e81f171bcc55a6ff8345e692c0f86e5b48e01b996cadc001622fb5e363b421",
                    "blobGasUsed": "0x00",
                    "excessBlobGas": "0x00",
                    "parentBeaconBlockRoot": "0x0000000000000000000000000000000000000000000000000000000000000000",
                    "hash": "0x659b6af4d69925971c17c6ae2e8ed8ad76a0e7cc4460b129e4e42da570ee2669"
                },
                "transactions": [
                    {
                        "type": "0x00",
                        "chainId": "0x01",
                        "nonce": "0x00",
                        "gasPrice": "0x0a",
                        "gasLimit": "0x053dad",
                        "to": "0xb8358cf7f21af23b895c44901de66c4719da1d3e",
                        "value": "0xdb2206",
                        "data": "0x384c289327fda733f319011b605929b98b6cc52e4915c942369264c71a3ca70ebce56fef7e41103f1acc71e91f299bf6c5730b265d6f9d475936735ea60c58b9bb125a78178171784759606d696e98f8522b52fe213edee397b3df6ca9f0c6",
                        "v": "0x26",
                        "r": "0x82dd625fbbc1b5e3e60150cfce60b8ba10f42ce1a3d7e28fdb785820769961f2",
                        "s": "0x345b7d50142ed8fca4b2d8a64485a82a35427f9f1046e7b3b7cdb18a24008117",
                        "sender": "0xd9fac10bcb409a736bdaea234d4f3a7a6994e194"
                    }
                ],
                "uncleHeaders": [],
                "withdrawals": [],
                "receipts": [
                    {
                        "transactionHash": "0xeb671f714368b6173c80eaab7f130b04441cc8e9da5a2c214df7bec7d57c1b2c",
                        "type": "0x00",
                        "cumulativeGasUsed": "0xe196",
                        "bloom": "0x00000000000000000000000000000000000000000000000000000000000000000000000000000000000000000000000000000000000000000000000000000000000000000000000000000000000000000000000000000000000000000000000000000000000000000000000000000000000000000000000000000000000000000000000000000000000000000000000000000000000000000000000000000000000000000000000000000000000000000000000000000000000000000000000000000000000000000000000000000000000000000000000000000000000000000000000000000000000000000000000000000000000000000000000000000000",
                        "logs": [],
                        "status": true,
                        "rlp": "0xf901080182e196b9010000000000000000000000000000000000000000000000000000000000000000000000000000000000000000000000000000000000000000000000000000000000000000000000000000000000000000000000000000000000000000000000000000000000000000000000000000000000000000000000000000000000000000000000000000000000000000000000000000000000000000000000000000000000000000000000000000000000000000000000000000000000000000000000000000000000000000000000000000000000000000000000000000000000000000000000000000000000000000000000000000000000000000000000000000000000c0"
                    }
                ],
                "rlp": "0xf90309f9023da026f58ed29f2d415020f04485459e0e6846afc594991e95c63c5865a18f400fb0a01dcc4de8dec75d7aab85b567b6ccd41ad312451b948a7413f0a142fd40d4934794b94f5374fce5edbc8e2a8697c15331677e6ebf0ba0a3d018b6bef7d6fb6915995c296553860769672974b8ff3e7cdc91df344661e4a008f6af1dab35eac7fdc07ddbf62c7f27b05addfd212b77e36a0d6ab6383ef3fba0bf5891d9095ce149b020c61da81cc63fe391539048c3691f9d6eadc503d9e2ccb901000000000000000000000000000000000000000000000000000000000000000000000000000000000000000000000000000000000000000000000000000000000000000000000000000000000000000000000000000000000000000000000000000000000000000000000000000000000000000000000000000000000000000000000000000000000000000000000000000000000000000000000000000000000000000000000000000000000000000000000000000000000000000000000000000000000000000000000000000000000000000000000000000000000000000000000000000000000000000000000000000000000000000000000000000000000080018726e1f476fe1e2282e1968203e800a000000000000000000000000000000000000000000000000000000000000200008800000000000000000aa056e81f171bcc55a6ff8345e692c0f86e5b48e01b996cadc001622fb5e363b4218080a00000000000000000000000000000000000000000000000000000000000000000f8c5f8c3800a83053dad94b8358cf7f21af23b895c44901de66c4719da1d3e83db2206b85f384c289327fda733f319011b605929b98b6cc52e4915c942369264c71a3ca70ebce56fef7e41103f1acc71e91f299bf6c5730b265d6f9d475936735ea60c58b9bb125a78178171784759606d696e98f8522b52fe213edee397b3df6ca9f0c626a082dd625fbbc1b5e3e60150cfce60b8ba10f42ce1a3d7e28fdb785820769961f2a0345b7d50142ed8fca4b2d8a64485a82a35427f9f1046e7b3b7cdb18a24008117c0c0",
                "blocknumber": "1"
            }
        ],
        "sealEngine": "NoProof",
        "_info": {
            "hash": "0x9c6a5fa29eaa7282d1276cf8a7377794626bb3518d08cee07dd985c4b77b1f6b",
            "fixture-format": "blockchain_test",
            "comment": "`execution-specs` generated test",
            "filling-transition-tool": "2.19.0",
            "description": "Consensus issue test produced by fuzz testing team...",
            "url": "https://github.com/ethereum/execution-specs/blob/tests-snobal-devnet-5@v8037.0.0/tests/ported_static/stRandom2/test_random_statetest648.py#L24",
            "metadata": {
                "opcode_count": {}
            }
        }
    }
}