{
    "tests/ported_static/stRandom2/test_random_statetest648.py::test_random_statetest648[fork_Cancun-blockchain_test_from_state_test]": {
        "network": "Cancun",
        "genesisBlockHeader": {
            "parentHash": "0x0000000000000000000000000000000000000000000000000000000000000000",
            "uncleHash": "0x1dcc4de8dec75d7aab85b567b6ccd41ad312451b948a7413f0a142fd40d49347",
            "coinbase": "0x0000000000000000000000000000000000000000",
            "stateRoot": "0x9724f6e3a2959e037495979dfdc20c5b55dbeef18b0ee67d2e982a27f60087c8",
            "transactionsTrie": "0x56e81f171bcc55a6ff8345e692c0f86e5b48e01b996cadc001622fb5e363b421",
            "receiptTrie": "0x56e81f171bcc55a6ff8345e692c0f86e5b48e01b996cadc001622fb5e363b421",
            "bloom": "0x00000000000000000000000000000000000000000000000000000000000000000000000000000000000000000000000000000000000000000000000000000000000000000000000000000000000000000000000000000000000000000000000000000000000000000000000000000000000000000000000000000000000000000000000000000000000000000000000000000000000000000000000000000000000000000000000000000000000000000000000000000000000000000000000000000000000000000000000000000000000000000000000000000000000000000000000000000000000000000000000000000000000000000000000000000000",
            "difficulty": "0x00",
            "number": "0x00",
            "gasLimit": "0x26e1f476fe1e22",
            "gasUsed": "0x00",
            "timestamp": "0x00",
            "extraData": "0x00",
            "mixHash": "0x0000000000000000000000000000000000000000000000000000000000000000",
            "nonce": "0x0000000000000000",
            "baseFeePerGas": "0x0b",
            "withdrawalsRoot": "0x56e81f171bcc55a6ff8345e692c0f86e5b48e01b996cadc001622fb5e363b421",
            "blobGasUsed": "0x00",
            "excessBlobGas": "0x00",
            "parentBeaconBlockRoot": "0x0000000000000000000000000000000000000000000000000000000000000000",
            "hash": "0x8120882fd3e3792fe3f8bc7cb49dfd748b38e9a0eda156e9aa312c1b74766570"
        },
        "pre": {
            "0x000f3df6d732807ef1319fb7b8bb8522d0beac02": {
                "nonce": "0x01",
                "balance": "0x00",
                "code": "0x3373fffffffffffffffffffffffffffffffffffffffe14604d57602036146024575f5ffd5b5f35801560495762001fff810690815414603c575f5ffd5b62001fff01545f5260205ff35b5f5ffd5b62001fff42064281555f359062001fff015500",
                "storage": {}
            },
            "0xca5c69fa03b9dff4d059971ac17edac7ef758725": {
                "nonce": "0x00",
                "balance": "0x00",
                "code": "0x600060006000600060f15af450600060005060f5fffd",
                "storage": {}
            },
            "0xa828265d4b2db08e65a1c68d2878f15368b5ae75": {
                "nonce": "0x00",
                "balance": "0x00",
                "code": "0x600050",
                "storage": {}
            },
            "0x8c78e3e2ffedb0eb21426734400554a5185299de": {
                "nonce": "0x00",
                "balance": "0xffffffff",
                "code": "0x",
                "storage": {}
            }
        },
        "postState": {
            "0x000f3df6d732807ef1319fb7b8bb8522d0beac02": {
                "nonce": "0x01",
                "balance": "0x00",
                "code": "0x3373fffffffffffffffffffffffffffffffffffffffe14604d57602036146024575f5ffd5b5f35801560495762001fff810690815414603c575f5ffd5b62001fff01545f5260205ff35b5f5ffd5b62001fff42064281555f359062001fff015500",
                "storage": {
                    "0x03e8": "0x03e8"
                }
            },
            "0xca5c69fa03b9dff4d059971ac17edac7ef758725": {
                "nonce": "0x00",
                "balance": "0x00",
                "code": "0x600060006000600060f15af450600060005060f5fffd",
                "storage": {}
            },
            "0xa828265d4b2db08e65a1c68d2878f15368b5ae75": {
                "nonce": "0x00",
                "balance": "0x00",
                "code": "0x600050",
                "storage": {}
            },
            "0x8c78e3e2ffedb0eb21426734400554a5185299de": {
                "nonce": "0x01",
                "balance": "0xff1c0e1d",
                "code": "0x",
                "storage": {}
            },
            "0x00000000000000000000000000000000000000f5": {
                "nonce": "0x00",
                "balance": "0xdb2206",
                "code": "0x",
                "storage": {}
            }
        },
        "lastblockhash": "0xf8d584b10313fea923f70013f263c335b99d6fabaa1664dc91ecd3d6795e3d8f",
        "config": {
            "network": "Cancun",
            "chainid": "0x01",
            "blobSchedule": {
                "Cancun": {
                    "target": "0x03",
                    "max": "0x06",
                    "baseFeeUpdateFraction": "0x32f0ed"
                }
            }
        },
        "genesisRLP": "0xf9023ff90239a00000000000000000000000000000000000000000000000000000000000000000a01dcc4de8dec75d7aab85b567b6ccd41ad312451b948a7413f0a142fd40d49347940000000000000000000000000000000000000000a09724f6e3a2959e037495979dfdc20c5b55dbeef18b0ee67d2e982a27f60087c8a056e81f171bcc55a6ff8345e692c0f86e5b48e01b996cadc001622fb5e363b421a056e81f171bcc55a6ff8345e692c0f86e5b48e01b996cadc001622fb5e363b421b901000000000000000000000000000000000000000000000000000000000000000000000000000000000000000000000000000000000000000000000000000000000000000000000000000000000000000000000000000000000000000000000000000000000000000000000000000000000000000000000000000000000000000000000000000000000000000000000000000000000000000000000000000000000000000000000000000000000000000000000000000000000000000000000000000000000000000000000000000000000000000000000000000000000000000000000000000000000000000000000000000000000000000000000000000000000080808726e1f476fe1e22808000a000000000000000000000000000000000000000000000000000000000000000008800000000000000000ba056e81f171bcc55a6ff8345e692c0f86e5b48e01b996cadc001622fb5e363b4218080a00000000000000000000000000000000000000000000000000000000000000000c0c0c0",
        "blocks": [
            {
                "blockHeader": {
                    "parentHash": "0x8120882fd3e3792fe3f8bc7cb49dfd748b38e9a0eda156e9aa312c1b74766570",
                    "uncleHash": "0x1dcc4de8dec75d7aab85b567b6ccd41ad312451b948a7413f0a142fd40d49347",
                    "coinbase": "0xb94f5374fce5edbc8e2a8697c15331677e6ebf0b",
                    "stateRoot": "0xda68085c82957bff6bcf346b392d944080edd95b796192c48228537a555d9ce3",
                    "transactionsTrie": "0x7d3cf799bcd50dbfcbb14889f8feca24cd2da01503dd0335658742b4648d0d8e",
                    "receiptTrie": "0xbf5891d9095ce149b020c61da81cc63fe391539048c3691f9d6eadc503d9e2cc",
                    "bloom": "0x00000000000000000000000000000000000000000000000000000000000000000000000000000000000000000000000000000000000000000000000000000000000000000000000000000000000000000000000000000000000000000000000000000000000000000000000000000000000000000000000000000000000000000000000000000000000000000000000000000000000000000000000000000000000000000000000000000000000000000000000000000000000000000000000000000000000000000000000000000000000000000000000000000000000000000000000000000000000000000000000000000000000000000000000000000000",
                    "difficulty": "0x00",
                    "number": "0x01",
                    "gasLimit": "0x26e1f476fe1e22",
                    "gasUsed": "0xe196",
                    "timestamp": "0x03e8",
                    "extraData": "0x00",
                    "mixHash": "0x0000000000000000000000000000000000000000000000000000000000020000",
                    "nonce": "0x0000000000000000",
                    "baseFeePerGas": "0x0a",
                    "withdrawalsRoot": "0x56e81f171bcc55a6ff8345e692c0f86e5b48e01b996cadc001622fb5e363b421",
                    "blobGasUsed": "0x00",
                    "excessBlobGas": "0x00",
                    "parentBeaconBlockRoot": "0x0000000000000000000000000000000000000000000000000000000000000000",
                    "hash": "0xf8d584b10313fea923f70013f263c335b99d6fabaa1664dc91ecd3d6795e3d8f"
                },
                "transactions": [
                    {
                        "type": "0x00",
                        "chainId": "0x01",
                        "nonce": "0x00",
                        "gasPrice": "0x0a",
                        "gasLimit": "0x053dad",
                        "to": "0xca5c69fa03b9dff4d059971ac17edac7ef758725",
                        "value": "0xdb2206",
                        "data": "0x384c289327fda733f319011b605929b98b6cc52e4915c942369264c71a3ca70ebce56fef7e41103f1acc71e91f299bf6c5730b265d6f9d475936735ea60c58b9bb125a78178171784759606d696e98f8522b52fe213edee397b3df6ca9f0c6",
                        "v": "0x26",
                        "r": "0x8add3982b9c39421e62306bffe5a55069686bb9e1c3fa1a3a36bad94d7ccea98",
                        "s": "0x6319e7156aefcc07a7fc3d50b70acb0cf21062daa4cc03fa56cf3b1a0177db07",
                        "sender": "0x8c78e3e2ffedb0eb21426734400554a5185299de"
                    }
                ],
                "uncleHeaders": [],
                "withdrawals": [],
                "receipts": [
                    {
                        "transactionHash": "0x822a79b473aa937195fbe0a47e9f9cc24e0c39b848ba73d98cd03f542b2908ba",
                        "type": "0x00",
                        "cumulativeGasUsed": "0xe196",
                        "bloom": "0x00000000000000000000000000000000000000000000000000000000000000000000000000000000000000000000000000000000000000000000000000000000000000000000000000000000000000000000000000000000000000000000000000000000000000000000000000000000000000000000000000000000000000000000000000000000000000000000000000000000000000000000000000000000000000000000000000000000000000000000000000000000000000000000000000000000000000000000000000000000000000000000000000000000000000000000000000000000000000000000000000000000000000000000000000000000",
                        "logs": [],
                        "status": true,
                        "rlp": "0xf901080182e196b9010000000000000000000000000000000000000000000000000000000000000000000000000000000000000000000000000000000000000000000000000000000000000000000000000000000000000000000000000000000000000000000000000000000000000000000000000000000000000000000000000000000000000000000000000000000000000000000000000000000000000000000000000000000000000000000000000000000000000000000000000000000000000000000000000000000000000000000000000000000000000000000000000000000000000000000000000000000000000000000000000000000000000000000000000000000000c0"
                    }
                ],
                "rlp": "0xf90309f9023da08120882fd3e3792fe3f8bc7cb49dfd748b38e9a0eda156e9aa312c1b74766570a01dcc4de8dec75d7aab85b567b6ccd41ad312451b948a7413f0a142fd40d4934794b94f5374fce5edbc8e2a8697c15331677e6ebf0ba0da68085c82957bff6bcf346b392d944080edd95b796192c48228537a555d9ce3a07d3cf799bcd50dbfcbb14889f8feca24cd2da01503dd0335658742b4648d0d8ea0bf5891d9095ce149b020c61da81cc63fe391539048c3691f9d6eadc503d9e2ccb901000000000000000000000000000000000000000000000000000000000000000000000000000000000000000000000000000000000000000000000000000000000000000000000000000000000000000000000000000000000000000000000000000000000000000000000000000000000000000000000000000000000000000000000000000000000000000000000000000000000000000000000000000000000000000000000000000000000000000000000000000000000000000000000000000000000000000000000000000000000000000000000000000000000000000000000000000000000000000000000000000000000000000000000000000000000080018726e1f476fe1e2282e1968203e800a000000000000000000000000000000000000000000000000000000000000200008800000000000000000aa056e81f171bcc55a6ff8345e692c0f86e5b48e01b996cadc001622fb5e363b4218080a00000000000000000000000000000000000000000000000000000000000000000f8c5f8c3800a83053dad94ca5c69fa03b9dff4d059971ac17edac7ef75872583db2206b85f384c289327fda733f319011b605929b98b6cc52e4915c942369264c71a3ca70ebce56fef7e41103f1acc71e91f299bf6c5730b265d6f9d475936735ea60c58b9bb125a78178171784759606d696e98f8522b52fe213edee397b3df6ca9f0c626a08add3982b9c39421e62306bffe5a55069686bb9e1c3fa1a3a36bad94d7ccea98a06319e7156aefcc07a7fc3d50b70acb0cf21062daa4cc03fa56cf3b1a0177db07c0c0",
                "blocknumber": "1"
            }
        ],
        "sealEngine": "NoProof",
        "_info": {
            "hash": "0x8038e6f3b71be673db144e8db631308c0fae445e2979cc3feabc350d32bab41c",
            "fixture-format": "blockchain_test",
            "comment": "`execution-specs` generated test",
            "filling-transition-tool": "2.19.0",
            "description": "Consensus issue test produced by fuzz testing team...",
            "url": "https://github.com/ethereum/execution-specs/blob/tests-bal@v5.6.0/tests/ported_static/stRandom2/test_random_statetest648.py#L25",
            "metadata": {
                "opcode_count": {}
            }
        }
    }
}