{
    "tests/ported_static/stCallDelegateCodesCallCodeHomestead/test_callcallcodecall_010.py::test_callcallcodecall_010[fork_Cancun-blockchain_test_from_state_test]": {
        "network": "Cancun",
        "genesisBlockHeader": {
            "parentHash": "0x0000000000000000000000000000000000000000000000000000000000000000",
            "uncleHash": "0x1dcc4de8dec75d7aab85b567b6ccd41ad312451b948a7413f0a142fd40d49347",
            "coinbase": "0x0000000000000000000000000000000000000000",
            "stateRoot": "0x8068c95e380e2e56f282ed391dacf390752dcd0f0dba995c1796f0bc88f711bb",
            "transactionsTrie": "0x56e81f171bcc55a6ff8345e692c0f86e5b48e01b996cadc001622fb5e363b421",
            "receiptTrie": "0x56e81f171bcc55a6ff8345e692c0f86e5b48e01b996cadc001622fb5e363b421",
            "bloom": "0x00000000000000000000000000000000000000000000000000000000000000000000000000000000000000000000000000000000000000000000000000000000000000000000000000000000000000000000000000000000000000000000000000000000000000000000000000000000000000000000000000000000000000000000000000000000000000000000000000000000000000000000000000000000000000000000000000000000000000000000000000000000000000000000000000000000000000000000000000000000000000000000000000000000000000000000000000000000000000000000000000000000000000000000000000000000",
            "difficulty": "0x00",
            "number": "0x00",
            "gasLimit": "0x01c9c380",
            "gasUsed": "0x00",
            "timestamp": "0x00",
            "extraData": "0x00",
            "mixHash": "0x0000000000000000000000000000000000000000000000000000000000000000",
            "nonce": "0x0000000000000000",
            "baseFeePerGas": "0x0b",
            "withdrawalsRoot": "0x56e81f171bcc55a6ff8345e692c0f86e5b48e01b996cadc001622fb5e363b421",
            "blobGasUsed": "0x00",
            "excessBlobGas": "0x00",
            "parentBeaconBlockRoot": "0x0000000000000000000000000000000000000000000000000000000000000000",
            "hash": "0xaa9f5088b14cda5ec1bba69f2fd7fe18cd0459aba10b87a4a602420e64a1b477"
        },
        "pre": {
            "0x000f3df6d732807ef1319fb7b8bb8522d0beac02": {
                "nonce": "0x01",
                "balance": "0x00",
                "code": "0x3373fffffffffffffffffffffffffffffffffffffffe14604d57602036146024575f5ffd5b5f35801560495762001fff810690815414603c575f5ffd5b62001fff01545f5260205ff35b5f5ffd5b62001fff42064281555f359062001fff015500",
                "storage": {}
            },
            "0xd66f224cbd2fabb21b17bb53c56118f32f62ebd6": {
                "nonce": "0x00",
                "balance": "0x0de0b6b3a7640000",
                "code": "0x",
                "storage": {}
            },
            "0xad29eb8067966dc55697f1235481e0908eaf88b5": {
                "nonce": "0x00",
                "balance": "0x00",
                "code": "0x600160035533600455346006553061014a553261014c55366101505538610152553a6101545500",
                "storage": {}
            },
            "0x2fc9ca2ff8eb1472e13250c9b03148d74eb6f7f4": {
                "nonce": "0x00",
                "balance": "0x0de0b6b3a7640000",
                "code": "0x6040600060406000600273ad29eb8067966dc55697f1235481e0908eaf88b56203d090f26002553360055500",
                "storage": {}
            },
            "0xfe34356d51a5352f3ad17677799422ff5dbd17f9": {
                "nonce": "0x00",
                "balance": "0x0de0b6b3a7640000",
                "code": "0x6040600060406000732fc9ca2ff8eb1472e13250c9b03148d74eb6f7f4620493e0f460015500",
                "storage": {}
            },
            "0x2ff54b7fff9b43649eeba7e9874fbc1f390ada74": {
                "nonce": "0x00",
                "balance": "0x0de0b6b3a7640000",
                "code": "0x6040600060406000600173fe34356d51a5352f3ad17677799422ff5dbd17f962055730f260005500",
                "storage": {}
            }
        },
        "postState": {
            "0x000f3df6d732807ef1319fb7b8bb8522d0beac02": {
                "nonce": "0x01",
                "balance": "0x00",
                "code": "0x3373fffffffffffffffffffffffffffffffffffffffe14604d57602036146024575f5ffd5b5f35801560495762001fff810690815414603c575f5ffd5b62001fff01545f5260205ff35b5f5ffd5b62001fff42064281555f359062001fff015500",
                "storage": {
                    "0x03e8": "0x03e8"
                }
            },
            "0xd66f224cbd2fabb21b17bb53c56118f32f62ebd6": {
                "nonce": "0x01",
                "balance": "0x0de0b6b3a73512fe",
                "code": "0x",
                "storage": {}
            },
            "0xad29eb8067966dc55697f1235481e0908eaf88b5": {
                "nonce": "0x00",
                "balance": "0x00",
                "code": "0x600160035533600455346006553061014a553261014c55366101505538610152553a6101545500",
                "storage": {}
            },
            "0x2fc9ca2ff8eb1472e13250c9b03148d74eb6f7f4": {
                "nonce": "0x00",
                "balance": "0x0de0b6b3a7640000",
                "code": "0x6040600060406000600273ad29eb8067966dc55697f1235481e0908eaf88b56203d090f26002553360055500",
                "storage": {}
            },
            "0xfe34356d51a5352f3ad17677799422ff5dbd17f9": {
                "nonce": "0x00",
                "balance": "0x0de0b6b3a7640000",
                "code": "0x6040600060406000732fc9ca2ff8eb1472e13250c9b03148d74eb6f7f4620493e0f460015500",
                "storage": {}
            },
            "0x2ff54b7fff9b43649eeba7e9874fbc1f390ada74": {
                "nonce": "0x00",
                "balance": "0x0de0b6b3a7640000",
                "code": "0x6040600060406000600173fe34356d51a5352f3ad17677799422ff5dbd17f962055730f260005500",
                "storage": {
                    "0x03": "0x01",
                    "0x04": "0x2ff54b7fff9b43649eeba7e9874fbc1f390ada74",
                    "0x06": "0x02",
                    "0x014a": "0x2ff54b7fff9b43649eeba7e9874fbc1f390ada74",
                    "0x014c": "0xd66f224cbd2fabb21b17bb53c56118f32f62ebd6",
                    "0x0150": "0x40",
                    "0x0152": "0x27",
                    "0x0154": "0x0a",
                    "0x02": "0x01",
                    "0x05": "0x2ff54b7fff9b43649eeba7e9874fbc1f390ada74",
                    "0x01": "0x01",
                    "0x00": "0x01"
                }
            }
        },
        "lastblockhash": "0x3ff04075ca736aa72fd44f9368bca7631dcfa2e7b6e4dd9233792d4a3a52c45a",
        "config": {
            "network": "Cancun",
            "chainid": "0x01",
            "blobSchedule": {
                "Cancun": {
                    "target": "0x03",
                    "max": "0x06",
                    "baseFeeUpdateFraction": "0x32f0ed"
                }
            }
        },
        "genesisRLP": "0xf9023cf90236a00000000000000000000000000000000000000000000000000000000000000000a01dcc4de8dec75d7aab85b567b6ccd41ad312451b948a7413f0a142fd40d49347940000000000000000000000000000000000000000a08068c95e380e2e56f282ed391dacf390752dcd0f0dba995c1796f0bc88f711bba056e81f171bcc55a6ff8345e692c0f86e5b48e01b996cadc001622fb5e363b421a056e81f171bcc55a6ff8345e692c0f86e5b48e01b996cadc001622fb5e363b421b901000000000000000000000000000000000000000000000000000000000000000000000000000000000000000000000000000000000000000000000000000000000000000000000000000000000000000000000000000000000000000000000000000000000000000000000000000000000000000000000000000000000000000000000000000000000000000000000000000000000000000000000000000000000000000000000000000000000000000000000000000000000000000000000000000000000000000000000000000000000000000000000000000000000000000000000000000000000000000000000000000000000000000000000000000000000080808401c9c380808000a000000000000000000000000000000000000000000000000000000000000000008800000000000000000ba056e81f171bcc55a6ff8345e692c0f86e5b48e01b996cadc001622fb5e363b4218080a00000000000000000000000000000000000000000000000000000000000000000c0c0c0",
        "blocks": [
            {
                "blockHeader": {
                    "parentHash": "0xaa9f5088b14cda5ec1bba69f2fd7fe18cd0459aba10b87a4a602420e64a1b477",
                    "uncleHash": "0x1dcc4de8dec75d7aab85b567b6ccd41ad312451b948a7413f0a142fd40d49347",
                    "coinbase": "0x2adc25665018aa1fe0e6bc666dac8fc2697ff9ba",
                    "stateRoot": "0x9cbbf8d9827719a029a317b6f5a8e5eedb464eb074db2c1444d264ffacd3547f",
                    "transactionsTrie": "0xbaa41e9b866f355b5b6865c73b1e1f09b1063fed0df90e207a8d69a9872f2ceb",
                    "receiptTrie": "0xd88e7846369c3e202e645f09af4727a983c33416333df1e4f099436becf4f4f3",
                    "bloom": "0x00000000000000000000000000000000000000000000000000000000000000000000000000000000000000000000000000000000000000000000000000000000000000000000000000000000000000000000000000000000000000000000000000000000000000000000000000000000000000000000000000000000000000000000000000000000000000000000000000000000000000000000000000000000000000000000000000000000000000000000000000000000000000000000000000000000000000000000000000000000000000000000000000000000000000000000000000000000000000000000000000000000000000000000000000000000",
                    "difficulty": "0x00",
                    "number": "0x01",
                    "gasLimit": "0x01c9c380",
                    "gasUsed": "0x04b14d",
                    "timestamp": "0x03e8",
                    "extraData": "0x00",
                    "mixHash": "0x0000000000000000000000000000000000000000000000000000000000020000",
                    "nonce": "0x0000000000000000",
                    "baseFeePerGas": "0x0a",
                    "withdrawalsRoot": "0x56e81f171bcc55a6ff8345e692c0f86e5b48e01b996cadc001622fb5e363b421",
                    "blobGasUsed": "0x00",
                    "excessBlobGas": "0x00",
                    "parentBeaconBlockRoot": "0x0000000000000000000000000000000000000000000000000000000000000000",
                    "hash": "0x3ff04075ca736aa72fd44f9368bca7631dcfa2e7b6e4dd9233792d4a3a52c45a"
                },
                "transactions": [
                    {
                        "type": "0x00",
                        "chainId": "0x01",
                        "nonce": "0x00",
                        "gasPrice": "0x0a",
                        "gasLimit": "0x2dc6c0",
                        "to": "0x2ff54b7fff9b43649eeba7e9874fbc1f390ada74",
                        "value": "0x00",
                        "data": "0x",
                        "v": "0x26",
                        "r": "0x900ad4241b56f9a6800f944dfa1ac61f362faaa71d5404ed9d407b8578155eff",
                        "s": "0x64591dc936d0822cc4901e080380f812c594dcf9a3e5dcf7e3411c3a108754cf",
                        "sender": "0xd66f224cbd2fabb21b17bb53c56118f32f62ebd6"
                    }
                ],
                "uncleHeaders": [],
                "withdrawals": [],
                "receipts": [
                    {
                        "transactionHash": "0xacdf96febd42c309ae33b7f4e8efa37d401201df73465d0868ced6e53174a818",
                        "type": "0x00",
                        "cumulativeGasUsed": "0x04b14d",
                        "bloom": "0x00000000000000000000000000000000000000000000000000000000000000000000000000000000000000000000000000000000000000000000000000000000000000000000000000000000000000000000000000000000000000000000000000000000000000000000000000000000000000000000000000000000000000000000000000000000000000000000000000000000000000000000000000000000000000000000000000000000000000000000000000000000000000000000000000000000000000000000000000000000000000000000000000000000000000000000000000000000000000000000000000000000000000000000000000000000",
                        "logs": [],
                        "status": true,
                        "rlp": "0xf90109018304b14db9010000000000000000000000000000000000000000000000000000000000000000000000000000000000000000000000000000000000000000000000000000000000000000000000000000000000000000000000000000000000000000000000000000000000000000000000000000000000000000000000000000000000000000000000000000000000000000000000000000000000000000000000000000000000000000000000000000000000000000000000000000000000000000000000000000000000000000000000000000000000000000000000000000000000000000000000000000000000000000000000000000000000000000000000000000000000c0"
                    }
                ],
                "rlp": "0xf902a4f9023ba0aa9f5088b14cda5ec1bba69f2fd7fe18cd0459aba10b87a4a602420e64a1b477a01dcc4de8dec75d7aab85b567b6ccd41ad312451b948a7413f0a142fd40d49347942adc25665018aa1fe0e6bc666dac8fc2697ff9baa09cbbf8d9827719a029a317b6f5a8e5eedb464eb074db2c1444d264ffacd3547fa0baa41e9b866f355b5b6865c73b1e1f09b1063fed0df90e207a8d69a9872f2ceba0d88e7846369c3e202e645f09af4727a983c33416333df1e4f099436becf4f4f3b901000000000000000000000000000000000000000000000000000000000000000000000000000000000000000000000000000000000000000000000000000000000000000000000000000000000000000000000000000000000000000000000000000000000000000000000000000000000000000000000000000000000000000000000000000000000000000000000000000000000000000000000000000000000000000000000000000000000000000000000000000000000000000000000000000000000000000000000000000000000000000000000000000000000000000000000000000000000000000000000000000000000000000000000000000000000080018401c9c3808304b14d8203e800a000000000000000000000000000000000000000000000000000000000000200008800000000000000000aa056e81f171bcc55a6ff8345e692c0f86e5b48e01b996cadc001622fb5e363b4218080a00000000000000000000000000000000000000000000000000000000000000000f862f860800a832dc6c0942ff54b7fff9b43649eeba7e9874fbc1f390ada74808026a0900ad4241b56f9a6800f944dfa1ac61f362faaa71d5404ed9d407b8578155effa064591dc936d0822cc4901e080380f812c594dcf9a3e5dcf7e3411c3a108754cfc0c0",
                "blocknumber": "1"
            }
        ],
        "sealEngine": "NoProof",
        "_info": {
            "hash": "0xca05d7fb38fa8c032e678b9408ebe1b8ef2a8f8a79e0b165e15785cb08cd50d8",
            "fixture-format": "blockchain_test",
            "comment": "`execution-specs` generated test",
            "filling-transition-tool": "2.19.0",
            "description": "Test_callcallcodecall_010.",
            "url": "https://github.com/ethereum/execution-specs/blob/tests-snobal-devnet-5@v8037.0.0/tests/ported_static/stCallDelegateCodesCallCodeHomestead/test_callcallcodecall_010.py#L24",
            "metadata": {
                "opcode_count": {}
            }
        }
    }
}