{
    "tests/ported_static/stSystemOperationsTest/test_suicide_send_ether_post_death.py::test_suicide_send_ether_post_death[fork_Cancun-blockchain_test_from_state_test]": {
        "network": "Cancun",
        "genesisBlockHeader": {
            "parentHash": "0x0000000000000000000000000000000000000000000000000000000000000000",
            "uncleHash": "0x1dcc4de8dec75d7aab85b567b6ccd41ad312451b948a7413f0a142fd40d49347",
            "coinbase": "0x0000000000000000000000000000000000000000",
            "stateRoot": "0x77278acc2e9272ec81d3185b3c843a36c3b071592cd190365b5db41bb1a685b6",
            "transactionsTrie": "0x56e81f171bcc55a6ff8345e692c0f86e5b48e01b996cadc001622fb5e363b421",
            "receiptTrie": "0x56e81f171bcc55a6ff8345e692c0f86e5b48e01b996cadc001622fb5e363b421",
            "bloom": "0x00000000000000000000000000000000000000000000000000000000000000000000000000000000000000000000000000000000000000000000000000000000000000000000000000000000000000000000000000000000000000000000000000000000000000000000000000000000000000000000000000000000000000000000000000000000000000000000000000000000000000000000000000000000000000000000000000000000000000000000000000000000000000000000000000000000000000000000000000000000000000000000000000000000000000000000000000000000000000000000000000000000000000000000000000000000",
            "difficulty": "0x00",
            "number": "0x00",
            "gasLimit": "0x989680",
            "gasUsed": "0x00",
            "timestamp": "0x00",
            "extraData": "0x00",
            "mixHash": "0x0000000000000000000000000000000000000000000000000000000000000000",
            "nonce": "0x0000000000000000",
            "baseFeePerGas": "0x0b",
            "withdrawalsRoot": "0x56e81f171bcc55a6ff8345e692c0f86e5b48e01b996cadc001622fb5e363b421",
            "blobGasUsed": "0x00",
            "excessBlobGas": "0x00",
            "parentBeaconBlockRoot": "0x0000000000000000000000000000000000000000000000000000000000000000",
            "hash": "0xd09bcecde4a758b8da5eca24298720482f78947ffd2cdf855e9d3fa08ce323bb"
        },
        "pre": {
            "0x000f3df6d732807ef1319fb7b8bb8522d0beac02": {
                "nonce": "0x01",
                "balance": "0x00",
                "code": "0x3373fffffffffffffffffffffffffffffffffffffffe14604d57602036146024575f5ffd5b5f35801560495762001fff810690815414603c575f5ffd5b62001fff01545f5260205ff35b5f5ffd5b62001fff42064281555f359062001fff015500",
                "storage": {}
            },
            "0xd66f224cbd2fabb21b17bb53c56118f32f62ebd6": {
                "nonce": "0x00",
                "balance": "0x0de0b6b3a7640000",
                "code": "0x",
                "storage": {}
            },
            "0x2cf0c5f12762fc3b7387629428e8250695350bdb": {
                "nonce": "0x00",
                "balance": "0x0de0b6b3a7640000",
                "code": "0x60606040526000357c01000000000000000000000000000000000000000000000000000000009004806335f46994146100445780634d536fe31461005157610042565b005b61004f600450610072565b005b61005c60045061008d565b6040518082815260200191505060405180910390f35b3073ffffffffffffffffffffffffffffffffffffffff16ff5b565b600060003073ffffffffffffffffffffffffffffffffffffffff166335f46994604051817c01000000000000000000000000000000000000000000000000000000000281526004018090506000604051808303816000876161da5a03f115610002575050503073ffffffffffffffffffffffffffffffffffffffff163190503373ffffffffffffffffffffffffffffffffffffffff16600082604051809050600060405180830381858888f1935050505050809150610147565b509056",
                "storage": {}
            }
        },
        "postState": {
            "0x000f3df6d732807ef1319fb7b8bb8522d0beac02": {
                "nonce": "0x01",
                "balance": "0x00",
                "code": "0x3373fffffffffffffffffffffffffffffffffffffffe14604d57602036146024575f5ffd5b5f35801560495762001fff810690815414603c575f5ffd5b62001fff01545f5260205ff35b5f5ffd5b62001fff42064281555f359062001fff015500",
                "storage": {
                    "0x03e8": "0x03e8"
                }
            },
            "0xd66f224cbd2fabb21b17bb53c56118f32f62ebd6": {
                "nonce": "0x01",
                "balance": "0x1bc16d674ec2e232",
                "code": "0x",
                "storage": {}
            },
            "0x2cf0c5f12762fc3b7387629428e8250695350bdb": {
                "nonce": "0x00",
                "balance": "0x00",
                "code": "0x60606040526000357c01000000000000000000000000000000000000000000000000000000009004806335f46994146100445780634d536fe31461005157610042565b005b61004f600450610072565b005b61005c60045061008d565b6040518082815260200191505060405180910390f35b3073ffffffffffffffffffffffffffffffffffffffff16ff5b565b600060003073ffffffffffffffffffffffffffffffffffffffff166335f46994604051817c01000000000000000000000000000000000000000000000000000000000281526004018090506000604051808303816000876161da5a03f115610002575050503073ffffffffffffffffffffffffffffffffffffffff163190503373ffffffffffffffffffffffffffffffffffffffff16600082604051809050600060405180830381858888f1935050505050809150610147565b509056",
                "storage": {}
            }
        },
        "lastblockhash": "0xfa501da6076190d56cf817242e9ad7b2a61ab7cd774b401700a14133eda3afec",
        "config": {
            "network": "Cancun",
            "chainid": "0x01",
            "blobSchedule": {
                "Cancun": {
                    "target": "0x03",
                    "max": "0x06",
                    "baseFeeUpdateFraction": "0x32f0ed"
                }
            }
        },
        "genesisRLP": "0xf9023bf90235a00000000000000000000000000000000000000000000000000000000000000000a01dcc4de8dec75d7aab85b567b6ccd41ad312451b948a7413f0a142fd40d49347940000000000000000000000000000000000000000a077278acc2e9272ec81d3185b3c843a36c3b071592cd190365b5db41bb1a685b6a056e81f171bcc55a6ff8345e692c0f86e5b48e01b996cadc001622fb5e363b421a056e81f171bcc55a6ff8345e692c0f86e5b48e01b996cadc001622fb5e363b421b9010000000000000000000000000000000000000000000000000000000000000000000000000000000000000000000000000000000000000000000000000000000000000000000000000000000000000000000000000000000000000000000000000000000000000000000000000000000000000000000000000000000000000000000000000000000000000000000000000000000000000000000000000000000000000000000000000000000000000000000000000000000000000000000000000000000000000000000000000000000000000000000000000000000000000000000000000000000000000000000000000000000000000000000000000000000000808083989680808000a000000000000000000000000000000000000000000000000000000000000000008800000000000000000ba056e81f171bcc55a6ff8345e692c0f86e5b48e01b996cadc001622fb5e363b4218080a00000000000000000000000000000000000000000000000000000000000000000c0c0c0",
        "blocks": [
            {
                "blockHeader": {
                    "parentHash": "0xd09bcecde4a758b8da5eca24298720482f78947ffd2cdf855e9d3fa08ce323bb",
                    "uncleHash": "0x1dcc4de8dec75d7aab85b567b6ccd41ad312451b948a7413f0a142fd40d49347",
                    "coinbase": "0x2adc25665018aa1fe0e6bc666dac8fc2697ff9ba",
                    "stateRoot": "0x139e08cf4a85b2dce065c297a4a8f111e81e1cf14419c816f59195e5919847f9",
                    "transactionsTrie": "0xd12a387e69280056622a5c4fcb69ae3f9a6f48c2769229f037e25a6b68f7238b",
                    "receiptTrie": "0xbd0ee0620d849ee36e25689d5cb1490f6af281f1e0ee0cb9bd8214eb33788d04",
                    "bloom": "0x00000000000000000000000000000000000000000000000000000000000000000000000000000000000000000000000000000000000000000000000000000000000000000000000000000000000000000000000000000000000000000000000000000000000000000000000000000000000000000000000000000000000000000000000000000000000000000000000000000000000000000000000000000000000000000000000000000000000000000000000000000000000000000000000000000000000000000000000000000000000000000000000000000000000000000000000000000000000000000000000000000000000000000000000000000000",
                    "difficulty": "0x00",
                    "number": "0x01",
                    "gasLimit": "0x989680",
                    "gasUsed": "0x82fb",
                    "timestamp": "0x03e8",
                    "extraData": "0x00",
                    "mixHash": "0x0000000000000000000000000000000000000000000000000000000000020000",
                    "nonce": "0x0000000000000000",
                    "baseFeePerGas": "0x0a",
                    "withdrawalsRoot": "0x56e81f171bcc55a6ff8345e692c0f86e5b48e01b996cadc001622fb5e363b421",
                    "blobGasUsed": "0x00",
                    "excessBlobGas": "0x00",
                    "parentBeaconBlockRoot": "0x0000000000000000000000000000000000000000000000000000000000000000",
                    "hash": "0xfa501da6076190d56cf817242e9ad7b2a61ab7cd774b401700a14133eda3afec"
                },
                "transactions": [
                    {
                        "type": "0x00",
                        "chainId": "0x01",
                        "nonce": "0x00",
                        "gasPrice": "0x0a",
                        "gasLimit": "0x2dc6c0",
                        "to": "0x2cf0c5f12762fc3b7387629428e8250695350bdb",
                        "value": "0x0186a0",
                        "data": "0x4d536fe3",
                        "v": "0x26",
                        "r": "0x100c93fdd8f37b8dcbe52ed95d00ba87674cadad514e7e125d533e3484f08799",
                        "s": "0x78a31b61f7e272c0db34034792a4c0989f86d9448af529a1a1d83416decce072",
                        "sender": "0xd66f224cbd2fabb21b17bb53c56118f32f62ebd6"
                    }
                ],
                "uncleHeaders": [],
                "withdrawals": [],
                "receipts": [
                    {
                        "transactionHash": "0x6209212e3b5e89d1d77eea1e2f960e562334ca61660b9302ee8f0456ffd816f1",
                        "type": "0x00",
                        "cumulativeGasUsed": "0x82fb",
                        "bloom": "0x00000000000000000000000000000000000000000000000000000000000000000000000000000000000000000000000000000000000000000000000000000000000000000000000000000000000000000000000000000000000000000000000000000000000000000000000000000000000000000000000000000000000000000000000000000000000000000000000000000000000000000000000000000000000000000000000000000000000000000000000000000000000000000000000000000000000000000000000000000000000000000000000000000000000000000000000000000000000000000000000000000000000000000000000000000000",
                        "logs": [],
                        "status": true,
                        "rlp": "0xf90108018282fbb9010000000000000000000000000000000000000000000000000000000000000000000000000000000000000000000000000000000000000000000000000000000000000000000000000000000000000000000000000000000000000000000000000000000000000000000000000000000000000000000000000000000000000000000000000000000000000000000000000000000000000000000000000000000000000000000000000000000000000000000000000000000000000000000000000000000000000000000000000000000000000000000000000000000000000000000000000000000000000000000000000000000000000000000000000000000000c0"
                    }
                ],
                "rlp": "0xf902a9f90239a0d09bcecde4a758b8da5eca24298720482f78947ffd2cdf855e9d3fa08ce323bba01dcc4de8dec75d7aab85b567b6ccd41ad312451b948a7413f0a142fd40d49347942adc25665018aa1fe0e6bc666dac8fc2697ff9baa0139e08cf4a85b2dce065c297a4a8f111e81e1cf14419c816f59195e5919847f9a0d12a387e69280056622a5c4fcb69ae3f9a6f48c2769229f037e25a6b68f7238ba0bd0ee0620d849ee36e25689d5cb1490f6af281f1e0ee0cb9bd8214eb33788d04b90100000000000000000000000000000000000000000000000000000000000000000000000000000000000000000000000000000000000000000000000000000000000000000000000000000000000000000000000000000000000000000000000000000000000000000000000000000000000000000000000000000000000000000000000000000000000000000000000000000000000000000000000000000000000000000000000000000000000000000000000000000000000000000000000000000000000000000000000000000000000000000000000000000000000000000000000000000000000000000000000000000000000000000000000000000000008001839896808282fb8203e800a000000000000000000000000000000000000000000000000000000000000200008800000000000000000aa056e81f171bcc55a6ff8345e692c0f86e5b48e01b996cadc001622fb5e363b4218080a00000000000000000000000000000000000000000000000000000000000000000f869f867800a832dc6c0942cf0c5f12762fc3b7387629428e8250695350bdb830186a0844d536fe326a0100c93fdd8f37b8dcbe52ed95d00ba87674cadad514e7e125d533e3484f08799a078a31b61f7e272c0db34034792a4c0989f86d9448af529a1a1d83416decce072c0c0",
                "blocknumber": "1"
            }
        ],
        "sealEngine": "NoProof",
        "_info": {
            "hash": "0x3042f59fe0e3fda26e8a80da2e1455c36678a00fde87e5eb6a2e39a6a2d085e1",
            "fixture-format": "blockchain_test",
            "comment": "`execution-specs` generated test",
            "filling-transition-tool": "2.19.0",
            "description": "Test_suicide_send_ether_post_death.",
            "url": "https://github.com/ethereum/execution-specs/blob/tests-snobal-devnet-5@v8037.0.0/tests/ported_static/stSystemOperationsTest/test_suicide_send_ether_post_death.py#L24",
            "metadata": {
                "opcode_count": {}
            }
        }
    }
}