{
    "tests/ported_static/stSystemOperationsTest/test_suicide_send_ether_post_death.py::test_suicide_send_ether_post_death[fork_Cancun-blockchain_test_from_state_test]": {
        "network": "Cancun",
        "genesisBlockHeader": {
            "parentHash": "0x0000000000000000000000000000000000000000000000000000000000000000",
            "uncleHash": "0x1dcc4de8dec75d7aab85b567b6ccd41ad312451b948a7413f0a142fd40d49347",
            "coinbase": "0x0000000000000000000000000000000000000000",
            "stateRoot": "0x02473e500a630a4d5f2683716fdb7d340680e2159a00bd8664effaddb2c97dd2",
            "transactionsTrie": "0x56e81f171bcc55a6ff8345e692c0f86e5b48e01b996cadc001622fb5e363b421",
            "receiptTrie": "0x56e81f171bcc55a6ff8345e692c0f86e5b48e01b996cadc001622fb5e363b421",
            "bloom": "0x00000000000000000000000000000000000000000000000000000000000000000000000000000000000000000000000000000000000000000000000000000000000000000000000000000000000000000000000000000000000000000000000000000000000000000000000000000000000000000000000000000000000000000000000000000000000000000000000000000000000000000000000000000000000000000000000000000000000000000000000000000000000000000000000000000000000000000000000000000000000000000000000000000000000000000000000000000000000000000000000000000000000000000000000000000000",
            "difficulty": "0x00",
            "number": "0x00",
            "gasLimit": "0x989680",
            "gasUsed": "0x00",
            "timestamp": "0x00",
            "extraData": "0x00",
            "mixHash": "0x0000000000000000000000000000000000000000000000000000000000000000",
            "nonce": "0x0000000000000000",
            "baseFeePerGas": "0x0b",
            "withdrawalsRoot": "0x56e81f171bcc55a6ff8345e692c0f86e5b48e01b996cadc001622fb5e363b421",
            "blobGasUsed": "0x00",
            "excessBlobGas": "0x00",
            "parentBeaconBlockRoot": "0x0000000000000000000000000000000000000000000000000000000000000000",
            "hash": "0xf7dd7390c93dd05e0570edcd4ff0f0806bc08e75ceb08bc4dfb9b187a4098ff9"
        },
        "pre": {
            "0x000f3df6d732807ef1319fb7b8bb8522d0beac02": {
                "nonce": "0x01",
                "balance": "0x00",
                "code": "0x3373fffffffffffffffffffffffffffffffffffffffe14604d57602036146024575f5ffd5b5f35801560495762001fff810690815414603c575f5ffd5b62001fff01545f5260205ff35b5f5ffd5b62001fff42064281555f359062001fff015500",
                "storage": {}
            },
            "0xa997455dca526734f5607f7c452de0cfb9af19f4": {
                "nonce": "0x00",
                "balance": "0x0de0b6b3a7640000",
                "code": "0x60606040526000357c01000000000000000000000000000000000000000000000000000000009004806335f46994146100445780634d536fe31461005157610042565b005b61004f600450610072565b005b61005c60045061008d565b6040518082815260200191505060405180910390f35b3073ffffffffffffffffffffffffffffffffffffffff16ff5b565b600060003073ffffffffffffffffffffffffffffffffffffffff166335f46994604051817c01000000000000000000000000000000000000000000000000000000000281526004018090506000604051808303816000876161da5a03f115610002575050503073ffffffffffffffffffffffffffffffffffffffff163190503373ffffffffffffffffffffffffffffffffffffffff16600082604051809050600060405180830381858888f1935050505050809150610147565b509056",
                "storage": {}
            },
            "0x2e3d0156d2b99a6eacba540c55f423c8f5a33143": {
                "nonce": "0x00",
                "balance": "0x0de0b6b3a7640000",
                "code": "0x",
                "storage": {}
            }
        },
        "postState": {
            "0x000f3df6d732807ef1319fb7b8bb8522d0beac02": {
                "nonce": "0x01",
                "balance": "0x00",
                "code": "0x3373fffffffffffffffffffffffffffffffffffffffe14604d57602036146024575f5ffd5b5f35801560495762001fff810690815414603c575f5ffd5b62001fff01545f5260205ff35b5f5ffd5b62001fff42064281555f359062001fff015500",
                "storage": {
                    "0x03e8": "0x03e8"
                }
            },
            "0xa997455dca526734f5607f7c452de0cfb9af19f4": {
                "nonce": "0x00",
                "balance": "0x00",
                "code": "0x60606040526000357c01000000000000000000000000000000000000000000000000000000009004806335f46994146100445780634d536fe31461005157610042565b005b61004f600450610072565b005b61005c60045061008d565b6040518082815260200191505060405180910390f35b3073ffffffffffffffffffffffffffffffffffffffff16ff5b565b600060003073ffffffffffffffffffffffffffffffffffffffff166335f46994604051817c01000000000000000000000000000000000000000000000000000000000281526004018090506000604051808303816000876161da5a03f115610002575050503073ffffffffffffffffffffffffffffffffffffffff163190503373ffffffffffffffffffffffffffffffffffffffff16600082604051809050600060405180830381858888f1935050505050809150610147565b509056",
                "storage": {}
            },
            "0x2e3d0156d2b99a6eacba540c55f423c8f5a33143": {
                "nonce": "0x01",
                "balance": "0x1bc16d674ec2e232",
                "code": "0x",
                "storage": {}
            }
        },
        "lastblockhash": "0x4bfde6598d03dbcb4a13a4bd0e02d34be41d18711b2e5875f9408cdb78d63fd7",
        "config": {
            "network": "Cancun",
            "chainid": "0x01",
            "blobSchedule": {
                "Cancun": {
                    "target": "0x03",
                    "max": "0x06",
                    "baseFeeUpdateFraction": "0x32f0ed"
                }
            }
        },
        "genesisRLP": "0xf9023bf90235a00000000000000000000000000000000000000000000000000000000000000000a01dcc4de8dec75d7aab85b567b6ccd41ad312451b948a7413f0a142fd40d49347940000000000000000000000000000000000000000a002473e500a630a4d5f2683716fdb7d340680e2159a00bd8664effaddb2c97dd2a056e81f171bcc55a6ff8345e692c0f86e5b48e01b996cadc001622fb5e363b421a056e81f171bcc55a6ff8345e692c0f86e5b48e01b996cadc001622fb5e363b421b9010000000000000000000000000000000000000000000000000000000000000000000000000000000000000000000000000000000000000000000000000000000000000000000000000000000000000000000000000000000000000000000000000000000000000000000000000000000000000000000000000000000000000000000000000000000000000000000000000000000000000000000000000000000000000000000000000000000000000000000000000000000000000000000000000000000000000000000000000000000000000000000000000000000000000000000000000000000000000000000000000000000000000000000000000000000000808083989680808000a000000000000000000000000000000000000000000000000000000000000000008800000000000000000ba056e81f171bcc55a6ff8345e692c0f86e5b48e01b996cadc001622fb5e363b4218080a00000000000000000000000000000000000000000000000000000000000000000c0c0c0",
        "blocks": [
            {
                "blockHeader": {
                    "parentHash": "0xf7dd7390c93dd05e0570edcd4ff0f0806bc08e75ceb08bc4dfb9b187a4098ff9",
                    "uncleHash": "0x1dcc4de8dec75d7aab85b567b6ccd41ad312451b948a7413f0a142fd40d49347",
                    "coinbase": "0x2adc25665018aa1fe0e6bc666dac8fc2697ff9ba",
                    "stateRoot": "0x76b70b7a6154e44c493ef916823f6bffeec96bd11e80384ed495be8a5ce2a699",
                    "transactionsTrie": "0xb6fd5823bfb265f1b23a4870df284ccb27147455d1754aa20559426fe5c27764",
                    "receiptTrie": "0xbd0ee0620d849ee36e25689d5cb1490f6af281f1e0ee0cb9bd8214eb33788d04",
                    "bloom": "0x00000000000000000000000000000000000000000000000000000000000000000000000000000000000000000000000000000000000000000000000000000000000000000000000000000000000000000000000000000000000000000000000000000000000000000000000000000000000000000000000000000000000000000000000000000000000000000000000000000000000000000000000000000000000000000000000000000000000000000000000000000000000000000000000000000000000000000000000000000000000000000000000000000000000000000000000000000000000000000000000000000000000000000000000000000000",
                    "difficulty": "0x00",
                    "number": "0x01",
                    "gasLimit": "0x989680",
                    "gasUsed": "0x82fb",
                    "timestamp": "0x03e8",
                    "extraData": "0x00",
                    "mixHash": "0x0000000000000000000000000000000000000000000000000000000000020000",
                    "nonce": "0x0000000000000000",
                    "baseFeePerGas": "0x0a",
                    "withdrawalsRoot": "0x56e81f171bcc55a6ff8345e692c0f86e5b48e01b996cadc001622fb5e363b421",
                    "blobGasUsed": "0x00",
                    "excessBlobGas": "0x00",
                    "parentBeaconBlockRoot": "0x0000000000000000000000000000000000000000000000000000000000000000",
                    "hash": "0x4bfde6598d03dbcb4a13a4bd0e02d34be41d18711b2e5875f9408cdb78d63fd7"
                },
                "transactions": [
                    {
                        "type": "0x00",
                        "chainId": "0x01",
                        "nonce": "0x00",
                        "gasPrice": "0x0a",
                        "gasLimit": "0x2dc6c0",
                        "to": "0xa997455dca526734f5607f7c452de0cfb9af19f4",
                        "value": "0x0186a0",
                        "data": "0x4d536fe3",
                        "v": "0x25",
                        "r": "0xd39e307806e59e66590a536594667792a6a40f4a5159940a624b7b597061418b",
                        "s": "0x7574604155d1ec88dd50a724bae2bb94e0608fad276935ca01d0d8d53ddc4e20",
                        "sender": "0x2e3d0156d2b99a6eacba540c55f423c8f5a33143"
                    }
                ],
                "uncleHeaders": [],
                "withdrawals": [],
                "receipts": [
                    {
                        "transactionHash": "0x235bc52259cf82bece9a04cafa9de7c5bf65da02693da8e27774f4140de68b2f",
                        "type": "0x00",
                        "cumulativeGasUsed": "0x82fb",
                        "bloom": "0x00000000000000000000000000000000000000000000000000000000000000000000000000000000000000000000000000000000000000000000000000000000000000000000000000000000000000000000000000000000000000000000000000000000000000000000000000000000000000000000000000000000000000000000000000000000000000000000000000000000000000000000000000000000000000000000000000000000000000000000000000000000000000000000000000000000000000000000000000000000000000000000000000000000000000000000000000000000000000000000000000000000000000000000000000000000",
                        "logs": [],
                        "status": true,
                        "rlp": "0xf90108018282fbb9010000000000000000000000000000000000000000000000000000000000000000000000000000000000000000000000000000000000000000000000000000000000000000000000000000000000000000000000000000000000000000000000000000000000000000000000000000000000000000000000000000000000000000000000000000000000000000000000000000000000000000000000000000000000000000000000000000000000000000000000000000000000000000000000000000000000000000000000000000000000000000000000000000000000000000000000000000000000000000000000000000000000000000000000000000000000c0"
                    }
                ],
                "rlp": "0xf902a9f90239a0f7dd7390c93dd05e0570edcd4ff0f0806bc08e75ceb08bc4dfb9b187a4098ff9a01dcc4de8dec75d7aab85b567b6ccd41ad312451b948a7413f0a142fd40d49347942adc25665018aa1fe0e6bc666dac8fc2697ff9baa076b70b7a6154e44c493ef916823f6bffeec96bd11e80384ed495be8a5ce2a699a0b6fd5823bfb265f1b23a4870df284ccb27147455d1754aa20559426fe5c27764a0bd0ee0620d849ee36e25689d5cb1490f6af281f1e0ee0cb9bd8214eb33788d04b90100000000000000000000000000000000000000000000000000000000000000000000000000000000000000000000000000000000000000000000000000000000000000000000000000000000000000000000000000000000000000000000000000000000000000000000000000000000000000000000000000000000000000000000000000000000000000000000000000000000000000000000000000000000000000000000000000000000000000000000000000000000000000000000000000000000000000000000000000000000000000000000000000000000000000000000000000000000000000000000000000000000000000000000000000000000008001839896808282fb8203e800a000000000000000000000000000000000000000000000000000000000000200008800000000000000000aa056e81f171bcc55a6ff8345e692c0f86e5b48e01b996cadc001622fb5e363b4218080a00000000000000000000000000000000000000000000000000000000000000000f869f867800a832dc6c094a997455dca526734f5607f7c452de0cfb9af19f4830186a0844d536fe325a0d39e307806e59e66590a536594667792a6a40f4a5159940a624b7b597061418ba07574604155d1ec88dd50a724bae2bb94e0608fad276935ca01d0d8d53ddc4e20c0c0",
                "blocknumber": "1"
            }
        ],
        "sealEngine": "NoProof",
        "_info": {
            "hash": "0xa61ce2efcbef7ac8b1e42a740502e867ce2c453f2c21a2a1eecc276113192c63",
            "fixture-format": "blockchain_test",
            "comment": "`execution-specs` generated test",
            "filling-transition-tool": "2.19.0",
            "description": "Test_suicide_send_ether_post_death.",
            "url": "https://github.com/ethereum/execution-specs/blob/tests-bal@v5.6.1/tests/ported_static/stSystemOperationsTest/test_suicide_send_ether_post_death.py#L25",
            "metadata": {
                "opcode_count": {}
            }
        }
    }
}