{
    "tests/ported_static/stCallDelegateCodesHomestead/test_callcodecallcodecallcode_111.py::test_callcodecallcodecallcode_111[fork_Cancun-blockchain_test_from_state_test]": {
        "network": "Cancun",
        "genesisBlockHeader": {
            "parentHash": "0x0000000000000000000000000000000000000000000000000000000000000000",
            "uncleHash": "0x1dcc4de8dec75d7aab85b567b6ccd41ad312451b948a7413f0a142fd40d49347",
            "coinbase": "0x0000000000000000000000000000000000000000",
            "stateRoot": "0xa4703b1754d18653ae0f74fe22d36844e9779ba1800192056d170dc2badf0dce",
            "transactionsTrie": "0x56e81f171bcc55a6ff8345e692c0f86e5b48e01b996cadc001622fb5e363b421",
            "receiptTrie": "0x56e81f171bcc55a6ff8345e692c0f86e5b48e01b996cadc001622fb5e363b421",
            "bloom": "0x00000000000000000000000000000000000000000000000000000000000000000000000000000000000000000000000000000000000000000000000000000000000000000000000000000000000000000000000000000000000000000000000000000000000000000000000000000000000000000000000000000000000000000000000000000000000000000000000000000000000000000000000000000000000000000000000000000000000000000000000000000000000000000000000000000000000000000000000000000000000000000000000000000000000000000000000000000000000000000000000000000000000000000000000000000000",
            "difficulty": "0x00",
            "number": "0x00",
            "gasLimit": "0x01c9c380",
            "gasUsed": "0x00",
            "timestamp": "0x00",
            "extraData": "0x00",
            "mixHash": "0x0000000000000000000000000000000000000000000000000000000000000000",
            "nonce": "0x0000000000000000",
            "baseFeePerGas": "0x0b",
            "withdrawalsRoot": "0x56e81f171bcc55a6ff8345e692c0f86e5b48e01b996cadc001622fb5e363b421",
            "blobGasUsed": "0x00",
            "excessBlobGas": "0x00",
            "parentBeaconBlockRoot": "0x0000000000000000000000000000000000000000000000000000000000000000",
            "hash": "0x29821193fcbfc00683415dafe7ad552db4887c1fad3325d7d5368c586b2d7211"
        },
        "pre": {
            "0x000f3df6d732807ef1319fb7b8bb8522d0beac02": {
                "nonce": "0x01",
                "balance": "0x00",
                "code": "0x3373fffffffffffffffffffffffffffffffffffffffe14604d57602036146024575f5ffd5b5f35801560495762001fff810690815414603c575f5ffd5b62001fff01545f5260205ff35b5f5ffd5b62001fff42064281555f359062001fff015500",
                "storage": {}
            },
            "0xd66f224cbd2fabb21b17bb53c56118f32f62ebd6": {
                "nonce": "0x00",
                "balance": "0x0de0b6b3a7640000",
                "code": "0x",
                "storage": {}
            },
            "0xddc8746bd83f161fca0564ef5a63daabc7ce8347": {
                "nonce": "0x00",
                "balance": "0x00",
                "code": "0x600160035533600455346007553061014a553261014c55366101505538610152553a6101545500",
                "storage": {}
            },
            "0x4e5a5d2477b9d6cc98e620adc011856f121009ee": {
                "nonce": "0x00",
                "balance": "0x0de0b6b3a7640000",
                "code": "0x604060006040600073ddc8746bd83f161fca0564ef5a63daabc7ce83476203d090f460025500",
                "storage": {}
            },
            "0x0dbd4cbf8a76742d32031e56b7e3ba8f314a20d9": {
                "nonce": "0x00",
                "balance": "0x0de0b6b3a7640000",
                "code": "0x6040600060406000734e5a5d2477b9d6cc98e620adc011856f121009ee620493e0f460015500",
                "storage": {}
            },
            "0x184e0e1c7b50f32f393bb1beb5feab9cfb0b0cae": {
                "nonce": "0x00",
                "balance": "0x0de0b6b3a7640000",
                "code": "0x6040600060406000730dbd4cbf8a76742d32031e56b7e3ba8f314a20d962055730f460005500",
                "storage": {}
            }
        },
        "postState": {
            "0x000f3df6d732807ef1319fb7b8bb8522d0beac02": {
                "nonce": "0x01",
                "balance": "0x00",
                "code": "0x3373fffffffffffffffffffffffffffffffffffffffe14604d57602036146024575f5ffd5b5f35801560495762001fff810690815414603c575f5ffd5b62001fff01545f5260205ff35b5f5ffd5b62001fff42064281555f359062001fff015500",
                "storage": {
                    "0x03e8": "0x03e8"
                }
            },
            "0xd66f224cbd2fabb21b17bb53c56118f32f62ebd6": {
                "nonce": "0x01",
                "balance": "0x0de0b6b3a73d877c",
                "code": "0x",
                "storage": {}
            },
            "0xddc8746bd83f161fca0564ef5a63daabc7ce8347": {
                "nonce": "0x00",
                "balance": "0x00",
                "code": "0x600160035533600455346007553061014a553261014c55366101505538610152553a6101545500",
                "storage": {}
            },
            "0x4e5a5d2477b9d6cc98e620adc011856f121009ee": {
                "nonce": "0x00",
                "balance": "0x0de0b6b3a7640000",
                "code": "0x604060006040600073ddc8746bd83f161fca0564ef5a63daabc7ce83476203d090f460025500",
                "storage": {}
            },
            "0x0dbd4cbf8a76742d32031e56b7e3ba8f314a20d9": {
                "nonce": "0x00",
                "balance": "0x0de0b6b3a7640000",
                "code": "0x6040600060406000734e5a5d2477b9d6cc98e620adc011856f121009ee620493e0f460015500",
                "storage": {}
            },
            "0x184e0e1c7b50f32f393bb1beb5feab9cfb0b0cae": {
                "nonce": "0x00",
                "balance": "0x0de0b6b3a7640000",
                "code": "0x6040600060406000730dbd4cbf8a76742d32031e56b7e3ba8f314a20d962055730f460005500",
                "storage": {
                    "0x03": "0x01",
                    "0x04": "0xd66f224cbd2fabb21b17bb53c56118f32f62ebd6",
                    "0x014a": "0x184e0e1c7b50f32f393bb1beb5feab9cfb0b0cae",
                    "0x014c": "0xd66f224cbd2fabb21b17bb53c56118f32f62ebd6",
                    "0x0150": "0x40",
                    "0x0152": "0x27",
                    "0x0154": "0x0a",
                    "0x02": "0x01",
                    "0x01": "0x01",
                    "0x00": "0x01"
                }
            }
        },
        "lastblockhash": "0xb31c21b184f905de179b4852539c329ca1008424d517056a95295094eb1fd135",
        "config": {
            "network": "Cancun",
            "chainid": "0x01",
            "blobSchedule": {
                "Cancun": {
                    "target": "0x03",
                    "max": "0x06",
                    "baseFeeUpdateFraction": "0x32f0ed"
                }
            }
        },
        "genesisRLP": "0xf9023cf90236a00000000000000000000000000000000000000000000000000000000000000000a01dcc4de8dec75d7aab85b567b6ccd41ad312451b948a7413f0a142fd40d49347940000000000000000000000000000000000000000a0a4703b1754d18653ae0f74fe22d36844e9779ba1800192056d170dc2badf0dcea056e81f171bcc55a6ff8345e692c0f86e5b48e01b996cadc001622fb5e363b421a056e81f171bcc55a6ff8345e692c0f86e5b48e01b996cadc001622fb5e363b421b901000000000000000000000000000000000000000000000000000000000000000000000000000000000000000000000000000000000000000000000000000000000000000000000000000000000000000000000000000000000000000000000000000000000000000000000000000000000000000000000000000000000000000000000000000000000000000000000000000000000000000000000000000000000000000000000000000000000000000000000000000000000000000000000000000000000000000000000000000000000000000000000000000000000000000000000000000000000000000000000000000000000000000000000000000000000080808401c9c380808000a000000000000000000000000000000000000000000000000000000000000000008800000000000000000ba056e81f171bcc55a6ff8345e692c0f86e5b48e01b996cadc001622fb5e363b4218080a00000000000000000000000000000000000000000000000000000000000000000c0c0c0",
        "blocks": [
            {
                "blockHeader": {
                    "parentHash": "0x29821193fcbfc00683415dafe7ad552db4887c1fad3325d7d5368c586b2d7211",
                    "uncleHash": "0x1dcc4de8dec75d7aab85b567b6ccd41ad312451b948a7413f0a142fd40d49347",
                    "coinbase": "0x2adc25665018aa1fe0e6bc666dac8fc2697ff9ba",
                    "stateRoot": "0x114b11415398a2c52ea2f2d6e791bb18909a7f77be38b9eb466e09eca9171967",
                    "transactionsTrie": "0x943800f70b18076065a54e76204914b3ff93f13842134ca627ebc101bdb0095f",
                    "receiptTrie": "0xcfce13ee49f623cff6b591149d3aa83d7c15fe9bca0e96d9ae4fa5f7c24cb366",
                    "bloom": "0x00000000000000000000000000000000000000000000000000000000000000000000000000000000000000000000000000000000000000000000000000000000000000000000000000000000000000000000000000000000000000000000000000000000000000000000000000000000000000000000000000000000000000000000000000000000000000000000000000000000000000000000000000000000000000000000000000000000000000000000000000000000000000000000000000000000000000000000000000000000000000000000000000000000000000000000000000000000000000000000000000000000000000000000000000000000",
                    "difficulty": "0x00",
                    "number": "0x01",
                    "gasLimit": "0x01c9c380",
                    "gasUsed": "0x03d8da",
                    "timestamp": "0x03e8",
                    "extraData": "0x00",
                    "mixHash": "0x0000000000000000000000000000000000000000000000000000000000020000",
                    "nonce": "0x0000000000000000",
                    "baseFeePerGas": "0x0a",
                    "withdrawalsRoot": "0x56e81f171bcc55a6ff8345e692c0f86e5b48e01b996cadc001622fb5e363b421",
                    "blobGasUsed": "0x00",
                    "excessBlobGas": "0x00",
                    "parentBeaconBlockRoot": "0x0000000000000000000000000000000000000000000000000000000000000000",
                    "hash": "0xb31c21b184f905de179b4852539c329ca1008424d517056a95295094eb1fd135"
                },
                "transactions": [
                    {
                        "type": "0x00",
                        "chainId": "0x01",
                        "nonce": "0x00",
                        "gasPrice": "0x0a",
                        "gasLimit": "0x2dc6c0",
                        "to": "0x184e0e1c7b50f32f393bb1beb5feab9cfb0b0cae",
                        "value": "0x00",
                        "data": "0x",
                        "v": "0x25",
                        "r": "0x3cdc5fc722bc9d593b44b031d23b879580dec3d00730c229dea8eaa7e7ed6951",
                        "s": "0x0ff6a4fc1e159e7b52230fa42e5f928544bd8d14f3cf6246831f51ad91a26397",
                        "sender": "0xd66f224cbd2fabb21b17bb53c56118f32f62ebd6"
                    }
                ],
                "uncleHeaders": [],
                "withdrawals": [],
                "receipts": [
                    {
                        "transactionHash": "0x545f8a5e97ef71092ce9f9d3c2d61de701eaf10cb8db34fbcfcd96a96be2e72d",
                        "type": "0x00",
                        "cumulativeGasUsed": "0x03d8da",
                        "bloom": "0x00000000000000000000000000000000000000000000000000000000000000000000000000000000000000000000000000000000000000000000000000000000000000000000000000000000000000000000000000000000000000000000000000000000000000000000000000000000000000000000000000000000000000000000000000000000000000000000000000000000000000000000000000000000000000000000000000000000000000000000000000000000000000000000000000000000000000000000000000000000000000000000000000000000000000000000000000000000000000000000000000000000000000000000000000000000",
                        "logs": [],
                        "status": true,
                        "rlp": "0xf90109018303d8dab9010000000000000000000000000000000000000000000000000000000000000000000000000000000000000000000000000000000000000000000000000000000000000000000000000000000000000000000000000000000000000000000000000000000000000000000000000000000000000000000000000000000000000000000000000000000000000000000000000000000000000000000000000000000000000000000000000000000000000000000000000000000000000000000000000000000000000000000000000000000000000000000000000000000000000000000000000000000000000000000000000000000000000000000000000000000000c0"
                    }
                ],
                "rlp": "0xf902a4f9023ba029821193fcbfc00683415dafe7ad552db4887c1fad3325d7d5368c586b2d7211a01dcc4de8dec75d7aab85b567b6ccd41ad312451b948a7413f0a142fd40d49347942adc25665018aa1fe0e6bc666dac8fc2697ff9baa0114b11415398a2c52ea2f2d6e791bb18909a7f77be38b9eb466e09eca9171967a0943800f70b18076065a54e76204914b3ff93f13842134ca627ebc101bdb0095fa0cfce13ee49f623cff6b591149d3aa83d7c15fe9bca0e96d9ae4fa5f7c24cb366b901000000000000000000000000000000000000000000000000000000000000000000000000000000000000000000000000000000000000000000000000000000000000000000000000000000000000000000000000000000000000000000000000000000000000000000000000000000000000000000000000000000000000000000000000000000000000000000000000000000000000000000000000000000000000000000000000000000000000000000000000000000000000000000000000000000000000000000000000000000000000000000000000000000000000000000000000000000000000000000000000000000000000000000000000000000000080018401c9c3808303d8da8203e800a000000000000000000000000000000000000000000000000000000000000200008800000000000000000aa056e81f171bcc55a6ff8345e692c0f86e5b48e01b996cadc001622fb5e363b4218080a00000000000000000000000000000000000000000000000000000000000000000f862f860800a832dc6c094184e0e1c7b50f32f393bb1beb5feab9cfb0b0cae808025a03cdc5fc722bc9d593b44b031d23b879580dec3d00730c229dea8eaa7e7ed6951a00ff6a4fc1e159e7b52230fa42e5f928544bd8d14f3cf6246831f51ad91a26397c0c0",
                "blocknumber": "1"
            }
        ],
        "sealEngine": "NoProof",
        "_info": {
            "hash": "0x4fcb445effd810c505c53a7ce5bed51583ac6ebcb1f2d4fc14a1239a3c2d1a6f",
            "fixture-format": "blockchain_test",
            "comment": "`execution-specs` generated test",
            "filling-transition-tool": "2.19.0",
            "description": "Test_callcodecallcodecallcode_111.",
            "url": "https://github.com/ethereum/execution-specs/blob/tests-snobal-devnet-5@v8037.0.0/tests/ported_static/stCallDelegateCodesHomestead/test_callcodecallcodecallcode_111.py#L24",
            "metadata": {
                "opcode_count": {}
            }
        }
    }
}