{
    "tests/ported_static/stDelegatecallTestHomestead/test_delegatecall_oo_gin_call.py::test_delegatecall_oo_gin_call[fork_Cancun-blockchain_test_from_state_test]": {
        "network": "Cancun",
        "genesisBlockHeader": {
            "parentHash": "0x0000000000000000000000000000000000000000000000000000000000000000",
            "uncleHash": "0x1dcc4de8dec75d7aab85b567b6ccd41ad312451b948a7413f0a142fd40d49347",
            "coinbase": "0x0000000000000000000000000000000000000000",
            "stateRoot": "0x56eec214c6efa4c1e51dfc891719c5ea5225ce43cd0af1bdc1a23ee32bf90272",
            "transactionsTrie": "0x56e81f171bcc55a6ff8345e692c0f86e5b48e01b996cadc001622fb5e363b421",
            "receiptTrie": "0x56e81f171bcc55a6ff8345e692c0f86e5b48e01b996cadc001622fb5e363b421",
            "bloom": "0x00000000000000000000000000000000000000000000000000000000000000000000000000000000000000000000000000000000000000000000000000000000000000000000000000000000000000000000000000000000000000000000000000000000000000000000000000000000000000000000000000000000000000000000000000000000000000000000000000000000000000000000000000000000000000000000000000000000000000000000000000000000000000000000000000000000000000000000000000000000000000000000000000000000000000000000000000000000000000000000000000000000000000000000000000000000",
            "difficulty": "0x00",
            "number": "0x00",
            "gasLimit": "0x01c9c380",
            "gasUsed": "0x00",
            "timestamp": "0x00",
            "extraData": "0x00",
            "mixHash": "0x0000000000000000000000000000000000000000000000000000000000000000",
            "nonce": "0x0000000000000000",
            "baseFeePerGas": "0x0b",
            "withdrawalsRoot": "0x56e81f171bcc55a6ff8345e692c0f86e5b48e01b996cadc001622fb5e363b421",
            "blobGasUsed": "0x00",
            "excessBlobGas": "0x00",
            "parentBeaconBlockRoot": "0x0000000000000000000000000000000000000000000000000000000000000000",
            "hash": "0x8ba443b1a3b112ec51321ff33cd485c22c898f965eaeccff0c00ca05a3a6f798"
        },
        "pre": {
            "0x000f3df6d732807ef1319fb7b8bb8522d0beac02": {
                "nonce": "0x01",
                "balance": "0x00",
                "code": "0x3373fffffffffffffffffffffffffffffffffffffffe14604d57602036146024575f5ffd5b5f35801560495762001fff810690815414603c575f5ffd5b62001fff01545f5260205ff35b5f5ffd5b62001fff42064281555f359062001fff015500",
                "storage": {}
            },
            "0xc0eee677168d4abe7e0974ef0a4284cca6133b11": {
                "nonce": "0x00",
                "balance": "0x0186a0",
                "code": "0x60016000600060006000730896f13e800125c0ccec44f3c434335f0a97bc1b612710f40160005500",
                "storage": {}
            },
            "0x0896f13e800125c0ccec44f3c434335f0a97bc1b": {
                "nonce": "0x00",
                "balance": "0x17",
                "code": "0x6001600155603760005360026000f3",
                "storage": {}
            },
            "0xebaf50debf10e08302fe4280c32df010463ca297": {
                "nonce": "0x00",
                "balance": "0x0de0b6b3a7640000",
                "code": "0x",
                "storage": {}
            }
        },
        "postState": {
            "0x000f3df6d732807ef1319fb7b8bb8522d0beac02": {
                "nonce": "0x01",
                "balance": "0x00",
                "code": "0x3373fffffffffffffffffffffffffffffffffffffffe14604d57602036146024575f5ffd5b5f35801560495762001fff810690815414603c575f5ffd5b62001fff01545f5260205ff35b5f5ffd5b62001fff42064281555f359062001fff015500",
                "storage": {
                    "0x03e8": "0x03e8"
                }
            },
            "0xc0eee677168d4abe7e0974ef0a4284cca6133b11": {
                "nonce": "0x00",
                "balance": "0x0186a0",
                "code": "0x60016000600060006000730896f13e800125c0ccec44f3c434335f0a97bc1b612710f40160005500",
                "storage": {
                    "0x00": "0x01"
                }
            },
            "0x0896f13e800125c0ccec44f3c434335f0a97bc1b": {
                "nonce": "0x00",
                "balance": "0x17",
                "code": "0x6001600155603760005360026000f3",
                "storage": {}
            },
            "0xebaf50debf10e08302fe4280c32df010463ca297": {
                "nonce": "0x01",
                "balance": "0x0de0b6b3a75b7f2a",
                "code": "0x",
                "storage": {}
            }
        },
        "lastblockhash": "0xa7d8c82a6a7bdb89562fbed1fe7b75f79c7fe2861f59e2c4aaf7343fe1a1fa3b",
        "config": {
            "network": "Cancun",
            "chainid": "0x01",
            "blobSchedule": {
                "Cancun": {
                    "target": "0x03",
                    "max": "0x06",
                    "baseFeeUpdateFraction": "0x32f0ed"
                }
            }
        },
        "genesisRLP": "0xf9023cf90236a00000000000000000000000000000000000000000000000000000000000000000a01dcc4de8dec75d7aab85b567b6ccd41ad312451b948a7413f0a142fd40d49347940000000000000000000000000000000000000000a056eec214c6efa4c1e51dfc891719c5ea5225ce43cd0af1bdc1a23ee32bf90272a056e81f171bcc55a6ff8345e692c0f86e5b48e01b996cadc001622fb5e363b421a056e81f171bcc55a6ff8345e692c0f86e5b48e01b996cadc001622fb5e363b421b901000000000000000000000000000000000000000000000000000000000000000000000000000000000000000000000000000000000000000000000000000000000000000000000000000000000000000000000000000000000000000000000000000000000000000000000000000000000000000000000000000000000000000000000000000000000000000000000000000000000000000000000000000000000000000000000000000000000000000000000000000000000000000000000000000000000000000000000000000000000000000000000000000000000000000000000000000000000000000000000000000000000000000000000000000000000080808401c9c380808000a000000000000000000000000000000000000000000000000000000000000000008800000000000000000ba056e81f171bcc55a6ff8345e692c0f86e5b48e01b996cadc001622fb5e363b4218080a00000000000000000000000000000000000000000000000000000000000000000c0c0c0",
        "blocks": [
            {
                "blockHeader": {
                    "parentHash": "0x8ba443b1a3b112ec51321ff33cd485c22c898f965eaeccff0c00ca05a3a6f798",
                    "uncleHash": "0x1dcc4de8dec75d7aab85b567b6ccd41ad312451b948a7413f0a142fd40d49347",
                    "coinbase": "0x2adc25665018aa1fe0e6bc666dac8fc2697ff9ba",
                    "stateRoot": "0x002b3b3f762621f7c212673aeaa2052d01198f706c1bd123a2aaf1e70314a8cf",
                    "transactionsTrie": "0x6d041275eb8d47a087e0464f0a861d2c6e2f63f398e60fbd8eac76c901ca06ed",
                    "receiptTrie": "0xc034d34c27baaae7cce6c58027c2d7bc7210836e72c7b9c9703ecf3b7b05dc43",
                    "bloom": "0x00000000000000000000000000000000000000000000000000000000000000000000000000000000000000000000000000000000000000000000000000000000000000000000000000000000000000000000000000000000000000000000000000000000000000000000000000000000000000000000000000000000000000000000000000000000000000000000000000000000000000000000000000000000000000000000000000000000000000000000000000000000000000000000000000000000000000000000000000000000000000000000000000000000000000000000000000000000000000000000000000000000000000000000000000000000",
                    "difficulty": "0x00",
                    "number": "0x01",
                    "gasLimit": "0x01c9c380",
                    "gasUsed": "0xd9af",
                    "timestamp": "0x03e8",
                    "extraData": "0x00",
                    "mixHash": "0x0000000000000000000000000000000000000000000000000000000000020000",
                    "nonce": "0x0000000000000000",
                    "baseFeePerGas": "0x0a",
                    "withdrawalsRoot": "0x56e81f171bcc55a6ff8345e692c0f86e5b48e01b996cadc001622fb5e363b421",
                    "blobGasUsed": "0x00",
                    "excessBlobGas": "0x00",
                    "parentBeaconBlockRoot": "0x0000000000000000000000000000000000000000000000000000000000000000",
                    "hash": "0xa7d8c82a6a7bdb89562fbed1fe7b75f79c7fe2861f59e2c4aaf7343fe1a1fa3b"
                },
                "transactions": [
                    {
                        "type": "0x00",
                        "chainId": "0x01",
                        "nonce": "0x00",
                        "gasPrice": "0x0a",
                        "gasLimit": "0x2dc6c0",
                        "to": "0xc0eee677168d4abe7e0974ef0a4284cca6133b11",
                        "value": "0x00",
                        "data": "0x",
                        "v": "0x25",
                        "r": "0x7cf0916d8cb1c209dca73a64733a70ae4160563e497df4f7213e72af100eba2c",
                        "s": "0x18566c81efb0719f3243bbb2df62971f41be4c36e959fbaf8bbff22edbd0c8dc",
                        "sender": "0xebaf50debf10e08302fe4280c32df010463ca297"
                    }
                ],
                "uncleHeaders": [],
                "withdrawals": [],
                "receipts": [
                    {
                        "transactionHash": "0xd78a4f5a264b0a3f813581dc1559e787335c7f8d46cb9f7a2afc4f22ba53118f",
                        "type": "0x00",
                        "cumulativeGasUsed": "0xd9af",
                        "bloom": "0x00000000000000000000000000000000000000000000000000000000000000000000000000000000000000000000000000000000000000000000000000000000000000000000000000000000000000000000000000000000000000000000000000000000000000000000000000000000000000000000000000000000000000000000000000000000000000000000000000000000000000000000000000000000000000000000000000000000000000000000000000000000000000000000000000000000000000000000000000000000000000000000000000000000000000000000000000000000000000000000000000000000000000000000000000000000",
                        "logs": [],
                        "status": true,
                        "rlp": "0xf901080182d9afb9010000000000000000000000000000000000000000000000000000000000000000000000000000000000000000000000000000000000000000000000000000000000000000000000000000000000000000000000000000000000000000000000000000000000000000000000000000000000000000000000000000000000000000000000000000000000000000000000000000000000000000000000000000000000000000000000000000000000000000000000000000000000000000000000000000000000000000000000000000000000000000000000000000000000000000000000000000000000000000000000000000000000000000000000000000000000c0"
                    }
                ],
                "rlp": "0xf902a3f9023aa08ba443b1a3b112ec51321ff33cd485c22c898f965eaeccff0c00ca05a3a6f798a01dcc4de8dec75d7aab85b567b6ccd41ad312451b948a7413f0a142fd40d49347942adc25665018aa1fe0e6bc666dac8fc2697ff9baa0002b3b3f762621f7c212673aeaa2052d01198f706c1bd123a2aaf1e70314a8cfa06d041275eb8d47a087e0464f0a861d2c6e2f63f398e60fbd8eac76c901ca06eda0c034d34c27baaae7cce6c58027c2d7bc7210836e72c7b9c9703ecf3b7b05dc43b901000000000000000000000000000000000000000000000000000000000000000000000000000000000000000000000000000000000000000000000000000000000000000000000000000000000000000000000000000000000000000000000000000000000000000000000000000000000000000000000000000000000000000000000000000000000000000000000000000000000000000000000000000000000000000000000000000000000000000000000000000000000000000000000000000000000000000000000000000000000000000000000000000000000000000000000000000000000000000000000000000000000000000000000000000000000080018401c9c38082d9af8203e800a000000000000000000000000000000000000000000000000000000000000200008800000000000000000aa056e81f171bcc55a6ff8345e692c0f86e5b48e01b996cadc001622fb5e363b4218080a00000000000000000000000000000000000000000000000000000000000000000f862f860800a832dc6c094c0eee677168d4abe7e0974ef0a4284cca6133b11808025a07cf0916d8cb1c209dca73a64733a70ae4160563e497df4f7213e72af100eba2ca018566c81efb0719f3243bbb2df62971f41be4c36e959fbaf8bbff22edbd0c8dcc0c0",
                "blocknumber": "1"
            }
        ],
        "sealEngine": "NoProof",
        "_info": {
            "hash": "0xb56a58f33dc53649c347007af3f04d21a73c6f60a6a47ec09e24d7be1a95e9b2",
            "fixture-format": "blockchain_test",
            "comment": "`execution-specs` generated test",
            "filling-transition-tool": "2.19.0",
            "description": "Test_delegatecall_oo_gin_call.",
            "url": "https://github.com/ethereum/execution-specs/blob/tests-bal@v5.6.1/tests/ported_static/stDelegatecallTestHomestead/test_delegatecall_oo_gin_call.py#L25",
            "metadata": {
                "opcode_count": {}
            }
        }
    }
}