{
    "tests/static/state_tests/stMemoryStressTest/CREATE_Bounds3Filler.json::CREATE_Bounds3[fork_Cancun-state_test--g0]": {
        "env": {
            "currentCoinbase": "0x2adc25665018aa1fe0e6bc666dac8fc2697ff9ba",
            "currentGasLimit": "0x7fffffffffffffff",
            "currentNumber": "0x01",
            "currentTimestamp": "0x03e8",
            "currentRandom": "0x0000000000000000000000000000000000000000000000000000000000020000",
            "currentDifficulty": "0x00",
            "currentBaseFee": "0x0a",
            "currentExcessBlobGas": "0x00"
        },
        "pre": {
            "0x1000000000000000000000000000000000000000": {
                "nonce": "0x00",
                "balance": "0x64",
                "code": "0x7f6001600155601080600c6000396000f3006000355415600957005b60203560006000526035602053605560215367ffffffffffffffff60006001f0506fffffffffffffffffffffffffffffffff60006001f0507fffffffffffffffffffffffffffffffffffffffffffffffffffffffffffffffff60006001f0506000630fffffff6001f050600063ffffffff6001f050600067ffffffffffffffff6001f05060006fffffffffffffffffffffffffffffffff6001f05060007fffffffffffffffffffffffffffffffffffffffffffffffffffffffffffffffff6001f050630fffffff630fffffff6001f05063ffffffff63ffffffff6001f05067ffffffffffffffff67ffffffffffffffff6001f0506fffffffffffffffffffffffffffffffff6fffffffffffffffffffffffffffffffff6001f0507fffffffffffffffffffffffffffffffffffffffffffffffffffffffffffffffff7fffffffffffffffffffffffffffffffffffffffffffffffffffffffffffffffff6001f000",
                "storage": {}
            },
            "0xa94f5374fce5edbc8e2a8697c15331677e6ebf0b": {
                "nonce": "0x00",
                "balance": "0x0fffffffffffffffffffffffffffffffffffffffffffffffff",
                "code": "0x",
                "storage": {}
            }
        },
        "transaction": {
            "nonce": "0x00",
            "gasPrice": "0x0a",
            "gasLimit": [
                "0x0249f0"
            ],
            "to": "0x1000000000000000000000000000000000000000",
            "value": [
                "0x00"
            ],
            "data": [
                "0x"
            ],
            "sender": "0xa94f5374fce5edbc8e2a8697c15331677e6ebf0b",
            "secretKey": "0x45a915e4d060149eb4365960e6a7a45f334393093061116b197e3240065ff2d8"
        },
        "post": {
            "Cancun": [
                {
                    "hash": "0x27cc979b573162a8e2347dd64e1e37f390226de614d76835ec392d1380783add",
                    "logs": "0x1dcc4de8dec75d7aab85b567b6ccd41ad312451b948a7413f0a142fd40d49347",
                    "txbytes": "0xf860800a830249f0941000000000000000000000000000000000000000808025a00a2caabe4d6639a1ed3259549a2d8c452c5e26133c07c711cd11f42ee74cef56a02a5d79bb4976fe5b168bd6111de3e841a75e89eaf5ebe1d681935da558157c54",
                    "indexes": {
                        "data": 0,
                        "gas": 0,
                        "value": 0
                    },
                    "state": {
                        "0x1000000000000000000000000000000000000000": {
                            "nonce": "0x00",
                            "balance": "0x64",
                            "code": "0x7f6001600155601080600c6000396000f3006000355415600957005b60203560006000526035602053605560215367ffffffffffffffff60006001f0506fffffffffffffffffffffffffffffffff60006001f0507fffffffffffffffffffffffffffffffffffffffffffffffffffffffffffffffff60006001f0506000630fffffff6001f050600063ffffffff6001f050600067ffffffffffffffff6001f05060006fffffffffffffffffffffffffffffffff6001f05060007fffffffffffffffffffffffffffffffffffffffffffffffffffffffffffffffff6001f050630fffffff630fffffff6001f05063ffffffff63ffffffff6001f05067ffffffffffffffff67ffffffffffffffff6001f0506fffffffffffffffffffffffffffffffff6fffffffffffffffffffffffffffffffff6001f0507fffffffffffffffffffffffffffffffffffffffffffffffffffffffffffffffff7fffffffffffffffffffffffffffffffffffffffffffffffffffffffffffffffff6001f000",
                            "storage": {}
                        },
                        "0xa94f5374fce5edbc8e2a8697c15331677e6ebf0b": {
                            "nonce": "0x01",
                            "balance": "0x0fffffffffffffffffffffffffffffffffffffffffffe91c9f",
                            "code": "0x",
                            "storage": {}
                        }
                    }
                }
            ]
        },
        "config": {
            "blobSchedule": {
                "Cancun": {
                    "target": "0x03",
                    "max": "0x06",
                    "baseFeeUpdateFraction": "0x32f0ed"
                }
            },
            "chainid": "0x01"
        },
        "_info": {
            "hash": "0xde90c32a3286f16cf57ef886a45d6b3b41e9958bca6dccf73f70e5b4c2746589",
            "comment": "`execution-specs` generated test",
            "filling-transition-tool": "2.18.0rc6",
            "description": "No description available - add a docstring to the python test class or function.",
            "url": "",
            "fixture-format": "state_test"
        }
    },
    "tests/static/state_tests/stMemoryStressTest/CREATE_Bounds3Filler.json::CREATE_Bounds3[fork_Cancun-state_test--g1]": {
        "env": {
            "currentCoinbase": "0x2adc25665018aa1fe0e6bc666dac8fc2697ff9ba",
            "currentGasLimit": "0x7fffffffffffffff",
            "currentNumber": "0x01",
            "currentTimestamp": "0x03e8",
            "currentRandom": "0x0000000000000000000000000000000000000000000000000000000000020000",
            "currentDifficulty": "0x00",
            "currentBaseFee": "0x0a",
            "currentExcessBlobGas": "0x00"
        },
        "pre": {
            "0x1000000000000000000000000000000000000000": {
                "nonce": "0x00",
                "balance": "0x64",
                "code": "0x7f6001600155601080600c6000396000f3006000355415600957005b60203560006000526035602053605560215367ffffffffffffffff60006001f0506fffffffffffffffffffffffffffffffff60006001f0507fffffffffffffffffffffffffffffffffffffffffffffffffffffffffffffffff60006001f0506000630fffffff6001f050600063ffffffff6001f050600067ffffffffffffffff6001f05060006fffffffffffffffffffffffffffffffff6001f05060007fffffffffffffffffffffffffffffffffffffffffffffffffffffffffffffffff6001f050630fffffff630fffffff6001f05063ffffffff63ffffffff6001f05067ffffffffffffffff67ffffffffffffffff6001f0506fffffffffffffffffffffffffffffffff6fffffffffffffffffffffffffffffffff6001f0507fffffffffffffffffffffffffffffffffffffffffffffffffffffffffffffffff7fffffffffffffffffffffffffffffffffffffffffffffffffffffffffffffffff6001f000",
                "storage": {}
            },
            "0xa94f5374fce5edbc8e2a8697c15331677e6ebf0b": {
                "nonce": "0x00",
                "balance": "0x0fffffffffffffffffffffffffffffffffffffffffffffffff",
                "code": "0x",
                "storage": {}
            }
        },
        "transaction": {
            "nonce": "0x00",
            "gasPrice": "0x0a",
            "gasLimit": [
                "0x0f4240"
            ],
            "to": "0x1000000000000000000000000000000000000000",
            "value": [
                "0x00"
            ],
            "data": [
                "0x"
            ],
            "sender": "0xa94f5374fce5edbc8e2a8697c15331677e6ebf0b",
            "secretKey": "0x45a915e4d060149eb4365960e6a7a45f334393093061116b197e3240065ff2d8"
        },
        "post": {
            "Cancun": [
                {
                    "hash": "0xc3f84cf1c8d9038134003741f16cc6563f0b06c374b596041ade3d2b59ec344c",
                    "logs": "0x1dcc4de8dec75d7aab85b567b6ccd41ad312451b948a7413f0a142fd40d49347",
                    "txbytes": "0xf860800a830f4240941000000000000000000000000000000000000000808026a0b875b8645dd6ad85c77ed1a6e780203ff5e63a535a08c5b0171a791bb227b78ba03856f59cf23b2247cf1ad0b4e05a1450b0d229be54ab5728318d308536c6e1fd",
                    "indexes": {
                        "data": 0,
                        "gas": 0,
                        "value": 0
                    },
                    "state": {
                        "0x1000000000000000000000000000000000000000": {
                            "nonce": "0x00",
                            "balance": "0x64",
                            "code": "0x7f6001600155601080600c6000396000f3006000355415600957005b60203560006000526035602053605560215367ffffffffffffffff60006001f0506fffffffffffffffffffffffffffffffff60006001f0507fffffffffffffffffffffffffffffffffffffffffffffffffffffffffffffffff60006001f0506000630fffffff6001f050600063ffffffff6001f050600067ffffffffffffffff6001f05060006fffffffffffffffffffffffffffffffff6001f05060007fffffffffffffffffffffffffffffffffffffffffffffffffffffffffffffffff6001f050630fffffff630fffffff6001f05063ffffffff63ffffffff6001f05067ffffffffffffffff67ffffffffffffffff6001f0506fffffffffffffffffffffffffffffffff6fffffffffffffffffffffffffffffffff6001f0507fffffffffffffffffffffffffffffffffffffffffffffffffffffffffffffffff7fffffffffffffffffffffffffffffffffffffffffffffffffffffffffffffffff6001f000",
                            "storage": {}
                        },
                        "0xa94f5374fce5edbc8e2a8697c15331677e6ebf0b": {
                            "nonce": "0x01",
                            "balance": "0x0fffffffffffffffffffffffffffffffffffffffffff67697f",
                            "code": "0x",
                            "storage": {}
                        }
                    }
                }
            ]
        },
        "config": {
            "blobSchedule": {
                "Cancun": {
                    "target": "0x03",
                    "max": "0x06",
                    "baseFeeUpdateFraction": "0x32f0ed"
                }
            },
            "chainid": "0x01"
        },
        "_info": {
            "hash": "0x1c6c66831d2e07b593e23d42d79c0a07f98efec84bc71567438359dc26a8de21",
            "comment": "`execution-specs` generated test",
            "filling-transition-tool": "2.18.0rc6",
            "description": "No description available - add a docstring to the python test class or function.",
            "url": "",
            "fixture-format": "state_test"
        }
    },
    "tests/static/state_tests/stMemoryStressTest/CREATE_Bounds3Filler.json::CREATE_Bounds3[fork_Cancun-state_test--g2]": {
        "env": {
            "currentCoinbase": "0x2adc25665018aa1fe0e6bc666dac8fc2697ff9ba",
            "currentGasLimit": "0x7fffffffffffffff",
            "currentNumber": "0x01",
            "currentTimestamp": "0x03e8",
            "currentRandom": "0x0000000000000000000000000000000000000000000000000000000000020000",
            "currentDifficulty": "0x00",
            "currentBaseFee": "0x0a",
            "currentExcessBlobGas": "0x00"
        },
        "pre": {
            "0x1000000000000000000000000000000000000000": {
                "nonce": "0x00",
                "balance": "0x64",
                "code": "0x7f6001600155601080600c6000396000f3006000355415600957005b60203560006000526035602053605560215367ffffffffffffffff60006001f0506fffffffffffffffffffffffffffffffff60006001f0507fffffffffffffffffffffffffffffffffffffffffffffffffffffffffffffffff60006001f0506000630fffffff6001f050600063ffffffff6001f050600067ffffffffffffffff6001f05060006fffffffffffffffffffffffffffffffff6001f05060007fffffffffffffffffffffffffffffffffffffffffffffffffffffffffffffffff6001f050630fffffff630fffffff6001f05063ffffffff63ffffffff6001f05067ffffffffffffffff67ffffffffffffffff6001f0506fffffffffffffffffffffffffffffffff6fffffffffffffffffffffffffffffffff6001f0507fffffffffffffffffffffffffffffffffffffffffffffffffffffffffffffffff7fffffffffffffffffffffffffffffffffffffffffffffffffffffffffffffffff6001f000",
                "storage": {}
            },
            "0xa94f5374fce5edbc8e2a8697c15331677e6ebf0b": {
                "nonce": "0x00",
                "balance": "0x0fffffffffffffffffffffffffffffffffffffffffffffffff",
                "code": "0x",
                "storage": {}
            }
        },
        "transaction": {
            "nonce": "0x00",
            "gasPrice": "0x0a",
            "gasLimit": [
                "0x01000000"
            ],
            "to": "0x1000000000000000000000000000000000000000",
            "value": [
                "0x00"
            ],
            "data": [
                "0x"
            ],
            "sender": "0xa94f5374fce5edbc8e2a8697c15331677e6ebf0b",
            "secretKey": "0x45a915e4d060149eb4365960e6a7a45f334393093061116b197e3240065ff2d8"
        },
        "post": {
            "Cancun": [
                {
                    "hash": "0x090f958d64ca0b7ff06e9bd37132a435a495f3f47b47b21b077690e11191b4bd",
                    "logs": "0x1dcc4de8dec75d7aab85b567b6ccd41ad312451b948a7413f0a142fd40d49347",
                    "txbytes": "0xf861800a8401000000941000000000000000000000000000000000000000808025a0f9ac29762edcc97687cc917ab9710b30f8bdc664e338eeb987d5f800e6430630a07a77f8828fefab9ef49f317f73a35cf99453fe1404da4a6ecd62fad3291b68b9",
                    "indexes": {
                        "data": 0,
                        "gas": 0,
                        "value": 0
                    },
                    "state": {
                        "0x1000000000000000000000000000000000000000": {
                            "nonce": "0x00",
                            "balance": "0x64",
                            "code": "0x7f6001600155601080600c6000396000f3006000355415600957005b60203560006000526035602053605560215367ffffffffffffffff60006001f0506fffffffffffffffffffffffffffffffff60006001f0507fffffffffffffffffffffffffffffffffffffffffffffffffffffffffffffffff60006001f0506000630fffffff6001f050600063ffffffff6001f050600067ffffffffffffffff6001f05060006fffffffffffffffffffffffffffffffff6001f05060007fffffffffffffffffffffffffffffffffffffffffffffffffffffffffffffffff6001f050630fffffff630fffffff6001f05063ffffffff63ffffffff6001f05067ffffffffffffffff67ffffffffffffffff6001f0506fffffffffffffffffffffffffffffffff6fffffffffffffffffffffffffffffffff6001f0507fffffffffffffffffffffffffffffffffffffffffffffffffffffffffffffffff7fffffffffffffffffffffffffffffffffffffffffffffffffffffffffffffffff6001f000",
                            "storage": {}
                        },
                        "0xa94f5374fce5edbc8e2a8697c15331677e6ebf0b": {
                            "nonce": "0x01",
                            "balance": "0x0ffffffffffffffffffffffffffffffffffffffffff5ffffff",
                            "code": "0x",
                            "storage": {}
                        }
                    }
                }
            ]
        },
        "config": {
            "blobSchedule": {
                "Cancun": {
                    "target": "0x03",
                    "max": "0x06",
                    "baseFeeUpdateFraction": "0x32f0ed"
                }
            },
            "chainid": "0x01"
        },
        "_info": {
            "hash": "0xc3db967315a5fa0d374a6323158fbfcde045a8dfc4d9631982b2ea7a8cd53ca2",
            "comment": "`execution-specs` generated test",
            "filling-transition-tool": "2.18.0rc6",
            "description": "No description available - add a docstring to the python test class or function.",
            "url": "",
            "fixture-format": "state_test"
        }
    },
    "tests/static/state_tests/stMemoryStressTest/CREATE_Bounds3Filler.json::CREATE_Bounds3[fork_Osaka-state_test--g0]": {
        "env": {
            "currentCoinbase": "0x2adc25665018aa1fe0e6bc666dac8fc2697ff9ba",
            "currentGasLimit": "0x7fffffffffffffff",
            "currentNumber": "0x01",
            "currentTimestamp": "0x03e8",
            "currentRandom": "0x0000000000000000000000000000000000000000000000000000000000020000",
            "currentDifficulty": "0x00",
            "currentBaseFee": "0x0a",
            "currentExcessBlobGas": "0x00"
        },
        "pre": {
            "0x1000000000000000000000000000000000000000": {
                "nonce": "0x00",
                "balance": "0x64",
                "code": "0x7f6001600155601080600c6000396000f3006000355415600957005b60203560006000526035602053605560215367ffffffffffffffff60006001f0506fffffffffffffffffffffffffffffffff60006001f0507fffffffffffffffffffffffffffffffffffffffffffffffffffffffffffffffff60006001f0506000630fffffff6001f050600063ffffffff6001f050600067ffffffffffffffff6001f05060006fffffffffffffffffffffffffffffffff6001f05060007fffffffffffffffffffffffffffffffffffffffffffffffffffffffffffffffff6001f050630fffffff630fffffff6001f05063ffffffff63ffffffff6001f05067ffffffffffffffff67ffffffffffffffff6001f0506fffffffffffffffffffffffffffffffff6fffffffffffffffffffffffffffffffff6001f0507fffffffffffffffffffffffffffffffffffffffffffffffffffffffffffffffff7fffffffffffffffffffffffffffffffffffffffffffffffffffffffffffffffff6001f000",
                "storage": {}
            },
            "0xa94f5374fce5edbc8e2a8697c15331677e6ebf0b": {
                "nonce": "0x00",
                "balance": "0x0fffffffffffffffffffffffffffffffffffffffffffffffff",
                "code": "0x",
                "storage": {}
            }
        },
        "transaction": {
            "nonce": "0x00",
            "gasPrice": "0x0a",
            "gasLimit": [
                "0x0249f0"
            ],
            "to": "0x1000000000000000000000000000000000000000",
            "value": [
                "0x00"
            ],
            "data": [
                "0x"
            ],
            "sender": "0xa94f5374fce5edbc8e2a8697c15331677e6ebf0b",
            "secretKey": "0x45a915e4d060149eb4365960e6a7a45f334393093061116b197e3240065ff2d8"
        },
        "post": {
            "Osaka": [
                {
                    "hash": "0x27cc979b573162a8e2347dd64e1e37f390226de614d76835ec392d1380783add",
                    "logs": "0x1dcc4de8dec75d7aab85b567b6ccd41ad312451b948a7413f0a142fd40d49347",
                    "txbytes": "0xf860800a830249f0941000000000000000000000000000000000000000808025a00a2caabe4d6639a1ed3259549a2d8c452c5e26133c07c711cd11f42ee74cef56a02a5d79bb4976fe5b168bd6111de3e841a75e89eaf5ebe1d681935da558157c54",
                    "indexes": {
                        "data": 0,
                        "gas": 0,
                        "value": 0
                    },
                    "state": {
                        "0x1000000000000000000000000000000000000000": {
                            "nonce": "0x00",
                            "balance": "0x64",
                            "code": "0x7f6001600155601080600c6000396000f3006000355415600957005b60203560006000526035602053605560215367ffffffffffffffff60006001f0506fffffffffffffffffffffffffffffffff60006001f0507fffffffffffffffffffffffffffffffffffffffffffffffffffffffffffffffff60006001f0506000630fffffff6001f050600063ffffffff6001f050600067ffffffffffffffff6001f05060006fffffffffffffffffffffffffffffffff6001f05060007fffffffffffffffffffffffffffffffffffffffffffffffffffffffffffffffff6001f050630fffffff630fffffff6001f05063ffffffff63ffffffff6001f05067ffffffffffffffff67ffffffffffffffff6001f0506fffffffffffffffffffffffffffffffff6fffffffffffffffffffffffffffffffff6001f0507fffffffffffffffffffffffffffffffffffffffffffffffffffffffffffffffff7fffffffffffffffffffffffffffffffffffffffffffffffffffffffffffffffff6001f000",
                            "storage": {}
                        },
                        "0xa94f5374fce5edbc8e2a8697c15331677e6ebf0b": {
                            "nonce": "0x01",
                            "balance": "0x0fffffffffffffffffffffffffffffffffffffffffffe91c9f",
                            "code": "0x",
                            "storage": {}
                        }
                    }
                }
            ]
        },
        "config": {
            "blobSchedule": {
                "Cancun": {
                    "target": "0x03",
                    "max": "0x06",
                    "baseFeeUpdateFraction": "0x32f0ed"
                },
                "Prague": {
                    "target": "0x06",
                    "max": "0x09",
                    "baseFeeUpdateFraction": "0x4c6964"
                },
                "Osaka": {
                    "target": "0x06",
                    "max": "0x09",
                    "baseFeeUpdateFraction": "0x4c6964"
                }
            },
            "chainid": "0x01"
        },
        "_info": {
            "hash": "0xdf71162988c34c8cde5cd2caa25ffbe56fa6dbad34a4e6750cda5d6da7050329",
            "comment": "`execution-specs` generated test",
            "filling-transition-tool": "2.18.0rc6",
            "description": "No description available - add a docstring to the python test class or function.",
            "url": "",
            "fixture-format": "state_test"
        }
    },
    "tests/static/state_tests/stMemoryStressTest/CREATE_Bounds3Filler.json::CREATE_Bounds3[fork_Osaka-state_test--g1]": {
        "env": {
            "currentCoinbase": "0x2adc25665018aa1fe0e6bc666dac8fc2697ff9ba",
            "currentGasLimit": "0x7fffffffffffffff",
            "currentNumber": "0x01",
            "currentTimestamp": "0x03e8",
            "currentRandom": "0x0000000000000000000000000000000000000000000000000000000000020000",
            "currentDifficulty": "0x00",
            "currentBaseFee": "0x0a",
            "currentExcessBlobGas": "0x00"
        },
        "pre": {
            "0x1000000000000000000000000000000000000000": {
                "nonce": "0x00",
                "balance": "0x64",
                "code": "0x7f6001600155601080600c6000396000f3006000355415600957005b60203560006000526035602053605560215367ffffffffffffffff60006001f0506fffffffffffffffffffffffffffffffff60006001f0507fffffffffffffffffffffffffffffffffffffffffffffffffffffffffffffffff60006001f0506000630fffffff6001f050600063ffffffff6001f050600067ffffffffffffffff6001f05060006fffffffffffffffffffffffffffffffff6001f05060007fffffffffffffffffffffffffffffffffffffffffffffffffffffffffffffffff6001f050630fffffff630fffffff6001f05063ffffffff63ffffffff6001f05067ffffffffffffffff67ffffffffffffffff6001f0506fffffffffffffffffffffffffffffffff6fffffffffffffffffffffffffffffffff6001f0507fffffffffffffffffffffffffffffffffffffffffffffffffffffffffffffffff7fffffffffffffffffffffffffffffffffffffffffffffffffffffffffffffffff6001f000",
                "storage": {}
            },
            "0xa94f5374fce5edbc8e2a8697c15331677e6ebf0b": {
                "nonce": "0x00",
                "balance": "0x0fffffffffffffffffffffffffffffffffffffffffffffffff",
                "code": "0x",
                "storage": {}
            }
        },
        "transaction": {
            "nonce": "0x00",
            "gasPrice": "0x0a",
            "gasLimit": [
                "0x0f4240"
            ],
            "to": "0x1000000000000000000000000000000000000000",
            "value": [
                "0x00"
            ],
            "data": [
                "0x"
            ],
            "sender": "0xa94f5374fce5edbc8e2a8697c15331677e6ebf0b",
            "secretKey": "0x45a915e4d060149eb4365960e6a7a45f334393093061116b197e3240065ff2d8"
        },
        "post": {
            "Osaka": [
                {
                    "hash": "0xc3f84cf1c8d9038134003741f16cc6563f0b06c374b596041ade3d2b59ec344c",
                    "logs": "0x1dcc4de8dec75d7aab85b567b6ccd41ad312451b948a7413f0a142fd40d49347",
                    "txbytes": "0xf860800a830f4240941000000000000000000000000000000000000000808026a0b875b8645dd6ad85c77ed1a6e780203ff5e63a535a08c5b0171a791bb227b78ba03856f59cf23b2247cf1ad0b4e05a1450b0d229be54ab5728318d308536c6e1fd",
                    "indexes": {
                        "data": 0,
                        "gas": 0,
                        "value": 0
                    },
                    "state": {
                        "0x1000000000000000000000000000000000000000": {
                            "nonce": "0x00",
                            "balance": "0x64",
                            "code": "0x7f6001600155601080600c6000396000f3006000355415600957005b60203560006000526035602053605560215367ffffffffffffffff60006001f0506fffffffffffffffffffffffffffffffff60006001f0507fffffffffffffffffffffffffffffffffffffffffffffffffffffffffffffffff60006001f0506000630fffffff6001f050600063ffffffff6001f050600067ffffffffffffffff6001f05060006fffffffffffffffffffffffffffffffff6001f05060007fffffffffffffffffffffffffffffffffffffffffffffffffffffffffffffffff6001f050630fffffff630fffffff6001f05063ffffffff63ffffffff6001f05067ffffffffffffffff67ffffffffffffffff6001f0506fffffffffffffffffffffffffffffffff6fffffffffffffffffffffffffffffffff6001f0507fffffffffffffffffffffffffffffffffffffffffffffffffffffffffffffffff7fffffffffffffffffffffffffffffffffffffffffffffffffffffffffffffffff6001f000",
                            "storage": {}
                        },
                        "0xa94f5374fce5edbc8e2a8697c15331677e6ebf0b": {
                            "nonce": "0x01",
                            "balance": "0x0fffffffffffffffffffffffffffffffffffffffffff67697f",
                            "code": "0x",
                            "storage": {}
                        }
                    }
                }
            ]
        },
        "config": {
            "blobSchedule": {
                "Cancun": {
                    "target": "0x03",
                    "max": "0x06",
                    "baseFeeUpdateFraction": "0x32f0ed"
                },
                "Prague": {
                    "target": "0x06",
                    "max": "0x09",
                    "baseFeeUpdateFraction": "0x4c6964"
                },
                "Osaka": {
                    "target": "0x06",
                    "max": "0x09",
                    "baseFeeUpdateFraction": "0x4c6964"
                }
            },
            "chainid": "0x01"
        },
        "_info": {
            "hash": "0x5c9f45edce84872ae9fb892b5b35e2182c5ac010558a4064cce6f997b80e446f",
            "comment": "`execution-specs` generated test",
            "filling-transition-tool": "2.18.0rc6",
            "description": "No description available - add a docstring to the python test class or function.",
            "url": "",
            "fixture-format": "state_test"
        }
    },
    "tests/static/state_tests/stMemoryStressTest/CREATE_Bounds3Filler.json::CREATE_Bounds3[fork_Osaka-state_test--g2]": {
        "env": {
            "currentCoinbase": "0x2adc25665018aa1fe0e6bc666dac8fc2697ff9ba",
            "currentGasLimit": "0x7fffffffffffffff",
            "currentNumber": "0x01",
            "currentTimestamp": "0x03e8",
            "currentRandom": "0x0000000000000000000000000000000000000000000000000000000000020000",
            "currentDifficulty": "0x00",
            "currentBaseFee": "0x0a",
            "currentExcessBlobGas": "0x00"
        },
        "pre": {
            "0x1000000000000000000000000000000000000000": {
                "nonce": "0x00",
                "balance": "0x64",
                "code": "0x7f6001600155601080600c6000396000f3006000355415600957005b60203560006000526035602053605560215367ffffffffffffffff60006001f0506fffffffffffffffffffffffffffffffff60006001f0507fffffffffffffffffffffffffffffffffffffffffffffffffffffffffffffffff60006001f0506000630fffffff6001f050600063ffffffff6001f050600067ffffffffffffffff6001f05060006fffffffffffffffffffffffffffffffff6001f05060007fffffffffffffffffffffffffffffffffffffffffffffffffffffffffffffffff6001f050630fffffff630fffffff6001f05063ffffffff63ffffffff6001f05067ffffffffffffffff67ffffffffffffffff6001f0506fffffffffffffffffffffffffffffffff6fffffffffffffffffffffffffffffffff6001f0507fffffffffffffffffffffffffffffffffffffffffffffffffffffffffffffffff7fffffffffffffffffffffffffffffffffffffffffffffffffffffffffffffffff6001f000",
                "storage": {}
            },
            "0xa94f5374fce5edbc8e2a8697c15331677e6ebf0b": {
                "nonce": "0x00",
                "balance": "0x0fffffffffffffffffffffffffffffffffffffffffffffffff",
                "code": "0x",
                "storage": {}
            }
        },
        "transaction": {
            "nonce": "0x00",
            "gasPrice": "0x0a",
            "gasLimit": [
                "0x01000000"
            ],
            "to": "0x1000000000000000000000000000000000000000",
            "value": [
                "0x00"
            ],
            "data": [
                "0x"
            ],
            "sender": "0xa94f5374fce5edbc8e2a8697c15331677e6ebf0b",
            "secretKey": "0x45a915e4d060149eb4365960e6a7a45f334393093061116b197e3240065ff2d8"
        },
        "post": {
            "Osaka": [
                {
                    "hash": "0x090f958d64ca0b7ff06e9bd37132a435a495f3f47b47b21b077690e11191b4bd",
                    "logs": "0x1dcc4de8dec75d7aab85b567b6ccd41ad312451b948a7413f0a142fd40d49347",
                    "txbytes": "0xf861800a8401000000941000000000000000000000000000000000000000808025a0f9ac29762edcc97687cc917ab9710b30f8bdc664e338eeb987d5f800e6430630a07a77f8828fefab9ef49f317f73a35cf99453fe1404da4a6ecd62fad3291b68b9",
                    "indexes": {
                        "data": 0,
                        "gas": 0,
                        "value": 0
                    },
                    "state": {
                        "0x1000000000000000000000000000000000000000": {
                            "nonce": "0x00",
                            "balance": "0x64",
                            "code": "0x7f6001600155601080600c6000396000f3006000355415600957005b60203560006000526035602053605560215367ffffffffffffffff60006001f0506fffffffffffffffffffffffffffffffff60006001f0507fffffffffffffffffffffffffffffffffffffffffffffffffffffffffffffffff60006001f0506000630fffffff6001f050600063ffffffff6001f050600067ffffffffffffffff6001f05060006fffffffffffffffffffffffffffffffff6001f05060007fffffffffffffffffffffffffffffffffffffffffffffffffffffffffffffffff6001f050630fffffff630fffffff6001f05063ffffffff63ffffffff6001f05067ffffffffffffffff67ffffffffffffffff6001f0506fffffffffffffffffffffffffffffffff6fffffffffffffffffffffffffffffffff6001f0507fffffffffffffffffffffffffffffffffffffffffffffffffffffffffffffffff7fffffffffffffffffffffffffffffffffffffffffffffffffffffffffffffffff6001f000",
                            "storage": {}
                        },
                        "0xa94f5374fce5edbc8e2a8697c15331677e6ebf0b": {
                            "nonce": "0x01",
                            "balance": "0x0ffffffffffffffffffffffffffffffffffffffffff5ffffff",
                            "code": "0x",
                            "storage": {}
                        }
                    }
                }
            ]
        },
        "config": {
            "blobSchedule": {
                "Cancun": {
                    "target": "0x03",
                    "max": "0x06",
                    "baseFeeUpdateFraction": "0x32f0ed"
                },
                "Prague": {
                    "target": "0x06",
                    "max": "0x09",
                    "baseFeeUpdateFraction": "0x4c6964"
                },
                "Osaka": {
                    "target": "0x06",
                    "max": "0x09",
                    "baseFeeUpdateFraction": "0x4c6964"
                }
            },
            "chainid": "0x01"
        },
        "_info": {
            "hash": "0xb9afd014745a27a69568dd094dac544aa04d4e36bc8f37c8932a5c76fbd7f62e",
            "comment": "`execution-specs` generated test",
            "filling-transition-tool": "2.18.0rc6",
            "description": "No description available - add a docstring to the python test class or function.",
            "url": "",
            "fixture-format": "state_test"
        }
    },
    "tests/static/state_tests/stMemoryStressTest/CREATE_Bounds3Filler.json::CREATE_Bounds3[fork_Prague-state_test--g0]": {
        "env": {
            "currentCoinbase": "0x2adc25665018aa1fe0e6bc666dac8fc2697ff9ba",
            "currentGasLimit": "0x7fffffffffffffff",
            "currentNumber": "0x01",
            "currentTimestamp": "0x03e8",
            "currentRandom": "0x0000000000000000000000000000000000000000000000000000000000020000",
            "currentDifficulty": "0x00",
            "currentBaseFee": "0x0a",
            "currentExcessBlobGas": "0x00"
        },
        "pre": {
            "0x1000000000000000000000000000000000000000": {
                "nonce": "0x00",
                "balance": "0x64",
                "code": "0x7f6001600155601080600c6000396000f3006000355415600957005b60203560006000526035602053605560215367ffffffffffffffff60006001f0506fffffffffffffffffffffffffffffffff60006001f0507fffffffffffffffffffffffffffffffffffffffffffffffffffffffffffffffff60006001f0506000630fffffff6001f050600063ffffffff6001f050600067ffffffffffffffff6001f05060006fffffffffffffffffffffffffffffffff6001f05060007fffffffffffffffffffffffffffffffffffffffffffffffffffffffffffffffff6001f050630fffffff630fffffff6001f05063ffffffff63ffffffff6001f05067ffffffffffffffff67ffffffffffffffff6001f0506fffffffffffffffffffffffffffffffff6fffffffffffffffffffffffffffffffff6001f0507fffffffffffffffffffffffffffffffffffffffffffffffffffffffffffffffff7fffffffffffffffffffffffffffffffffffffffffffffffffffffffffffffffff6001f000",
                "storage": {}
            },
            "0xa94f5374fce5edbc8e2a8697c15331677e6ebf0b": {
                "nonce": "0x00",
                "balance": "0x0fffffffffffffffffffffffffffffffffffffffffffffffff",
                "code": "0x",
                "storage": {}
            }
        },
        "transaction": {
            "nonce": "0x00",
            "gasPrice": "0x0a",
            "gasLimit": [
                "0x0249f0"
            ],
            "to": "0x1000000000000000000000000000000000000000",
            "value": [
                "0x00"
            ],
            "data": [
                "0x"
            ],
            "sender": "0xa94f5374fce5edbc8e2a8697c15331677e6ebf0b",
            "secretKey": "0x45a915e4d060149eb4365960e6a7a45f334393093061116b197e3240065ff2d8"
        },
        "post": {
            "Prague": [
                {
                    "hash": "0x27cc979b573162a8e2347dd64e1e37f390226de614d76835ec392d1380783add",
                    "logs": "0x1dcc4de8dec75d7aab85b567b6ccd41ad312451b948a7413f0a142fd40d49347",
                    "txbytes": "0xf860800a830249f0941000000000000000000000000000000000000000808025a00a2caabe4d6639a1ed3259549a2d8c452c5e26133c07c711cd11f42ee74cef56a02a5d79bb4976fe5b168bd6111de3e841a75e89eaf5ebe1d681935da558157c54",
                    "indexes": {
                        "data": 0,
                        "gas": 0,
                        "value": 0
                    },
                    "state": {
                        "0x1000000000000000000000000000000000000000": {
                            "nonce": "0x00",
                            "balance": "0x64",
                            "code": "0x7f6001600155601080600c6000396000f3006000355415600957005b60203560006000526035602053605560215367ffffffffffffffff60006001f0506fffffffffffffffffffffffffffffffff60006001f0507fffffffffffffffffffffffffffffffffffffffffffffffffffffffffffffffff60006001f0506000630fffffff6001f050600063ffffffff6001f050600067ffffffffffffffff6001f05060006fffffffffffffffffffffffffffffffff6001f05060007fffffffffffffffffffffffffffffffffffffffffffffffffffffffffffffffff6001f050630fffffff630fffffff6001f05063ffffffff63ffffffff6001f05067ffffffffffffffff67ffffffffffffffff6001f0506fffffffffffffffffffffffffffffffff6fffffffffffffffffffffffffffffffff6001f0507fffffffffffffffffffffffffffffffffffffffffffffffffffffffffffffffff7fffffffffffffffffffffffffffffffffffffffffffffffffffffffffffffffff6001f000",
                            "storage": {}
                        },
                        "0xa94f5374fce5edbc8e2a8697c15331677e6ebf0b": {
                            "nonce": "0x01",
                            "balance": "0x0fffffffffffffffffffffffffffffffffffffffffffe91c9f",
                            "code": "0x",
                            "storage": {}
                        }
                    }
                }
            ]
        },
        "config": {
            "blobSchedule": {
                "Cancun": {
                    "target": "0x03",
                    "max": "0x06",
                    "baseFeeUpdateFraction": "0x32f0ed"
                },
                "Prague": {
                    "target": "0x06",
                    "max": "0x09",
                    "baseFeeUpdateFraction": "0x4c6964"
                }
            },
            "chainid": "0x01"
        },
        "_info": {
            "hash": "0xfc5632586f25a2756239687ddfb4ef801a04e3cf021f5bcf5d076e83ea9a2df0",
            "comment": "`execution-specs` generated test",
            "filling-transition-tool": "2.18.0rc6",
            "description": "No description available - add a docstring to the python test class or function.",
            "url": "",
            "fixture-format": "state_test"
        }
    },
    "tests/static/state_tests/stMemoryStressTest/CREATE_Bounds3Filler.json::CREATE_Bounds3[fork_Prague-state_test--g1]": {
        "env": {
            "currentCoinbase": "0x2adc25665018aa1fe0e6bc666dac8fc2697ff9ba",
            "currentGasLimit": "0x7fffffffffffffff",
            "currentNumber": "0x01",
            "currentTimestamp": "0x03e8",
            "currentRandom": "0x0000000000000000000000000000000000000000000000000000000000020000",
            "currentDifficulty": "0x00",
            "currentBaseFee": "0x0a",
            "currentExcessBlobGas": "0x00"
        },
        "pre": {
            "0x1000000000000000000000000000000000000000": {
                "nonce": "0x00",
                "balance": "0x64",
                "code": "0x7f6001600155601080600c6000396000f3006000355415600957005b60203560006000526035602053605560215367ffffffffffffffff60006001f0506fffffffffffffffffffffffffffffffff60006001f0507fffffffffffffffffffffffffffffffffffffffffffffffffffffffffffffffff60006001f0506000630fffffff6001f050600063ffffffff6001f050600067ffffffffffffffff6001f05060006fffffffffffffffffffffffffffffffff6001f05060007fffffffffffffffffffffffffffffffffffffffffffffffffffffffffffffffff6001f050630fffffff630fffffff6001f05063ffffffff63ffffffff6001f05067ffffffffffffffff67ffffffffffffffff6001f0506fffffffffffffffffffffffffffffffff6fffffffffffffffffffffffffffffffff6001f0507fffffffffffffffffffffffffffffffffffffffffffffffffffffffffffffffff7fffffffffffffffffffffffffffffffffffffffffffffffffffffffffffffffff6001f000",
                "storage": {}
            },
            "0xa94f5374fce5edbc8e2a8697c15331677e6ebf0b": {
                "nonce": "0x00",
                "balance": "0x0fffffffffffffffffffffffffffffffffffffffffffffffff",
                "code": "0x",
                "storage": {}
            }
        },
        "transaction": {
            "nonce": "0x00",
            "gasPrice": "0x0a",
            "gasLimit": [
                "0x0f4240"
            ],
            "to": "0x1000000000000000000000000000000000000000",
            "value": [
                "0x00"
            ],
            "data": [
                "0x"
            ],
            "sender": "0xa94f5374fce5edbc8e2a8697c15331677e6ebf0b",
            "secretKey": "0x45a915e4d060149eb4365960e6a7a45f334393093061116b197e3240065ff2d8"
        },
        "post": {
            "Prague": [
                {
                    "hash": "0xc3f84cf1c8d9038134003741f16cc6563f0b06c374b596041ade3d2b59ec344c",
                    "logs": "0x1dcc4de8dec75d7aab85b567b6ccd41ad312451b948a7413f0a142fd40d49347",
                    "txbytes": "0xf860800a830f4240941000000000000000000000000000000000000000808026a0b875b8645dd6ad85c77ed1a6e780203ff5e63a535a08c5b0171a791bb227b78ba03856f59cf23b2247cf1ad0b4e05a1450b0d229be54ab5728318d308536c6e1fd",
                    "indexes": {
                        "data": 0,
                        "gas": 0,
                        "value": 0
                    },
                    "state": {
                        "0x1000000000000000000000000000000000000000": {
                            "nonce": "0x00",
                            "balance": "0x64",
                            "code": "0x7f6001600155601080600c6000396000f3006000355415600957005b60203560006000526035602053605560215367ffffffffffffffff60006001f0506fffffffffffffffffffffffffffffffff60006001f0507fffffffffffffffffffffffffffffffffffffffffffffffffffffffffffffffff60006001f0506000630fffffff6001f050600063ffffffff6001f050600067ffffffffffffffff6001f05060006fffffffffffffffffffffffffffffffff6001f05060007fffffffffffffffffffffffffffffffffffffffffffffffffffffffffffffffff6001f050630fffffff630fffffff6001f05063ffffffff63ffffffff6001f05067ffffffffffffffff67ffffffffffffffff6001f0506fffffffffffffffffffffffffffffffff6fffffffffffffffffffffffffffffffff6001f0507fffffffffffffffffffffffffffffffffffffffffffffffffffffffffffffffff7fffffffffffffffffffffffffffffffffffffffffffffffffffffffffffffffff6001f000",
                            "storage": {}
                        },
                        "0xa94f5374fce5edbc8e2a8697c15331677e6ebf0b": {
                            "nonce": "0x01",
                            "balance": "0x0fffffffffffffffffffffffffffffffffffffffffff67697f",
                            "code": "0x",
                            "storage": {}
                        }
                    }
                }
            ]
        },
        "config": {
            "blobSchedule": {
                "Cancun": {
                    "target": "0x03",
                    "max": "0x06",
                    "baseFeeUpdateFraction": "0x32f0ed"
                },
                "Prague": {
                    "target": "0x06",
                    "max": "0x09",
                    "baseFeeUpdateFraction": "0x4c6964"
                }
            },
            "chainid": "0x01"
        },
        "_info": {
            "hash": "0xaebe6c9bcf3b1e06255c85c09b8c920cb197d4dc0dd50f6fafa2a7d8ded89169",
            "comment": "`execution-specs` generated test",
            "filling-transition-tool": "2.18.0rc6",
            "description": "No description available - add a docstring to the python test class or function.",
            "url": "",
            "fixture-format": "state_test"
        }
    },
    "tests/static/state_tests/stMemoryStressTest/CREATE_Bounds3Filler.json::CREATE_Bounds3[fork_Prague-state_test--g2]": {
        "env": {
            "currentCoinbase": "0x2adc25665018aa1fe0e6bc666dac8fc2697ff9ba",
            "currentGasLimit": "0x7fffffffffffffff",
            "currentNumber": "0x01",
            "currentTimestamp": "0x03e8",
            "currentRandom": "0x0000000000000000000000000000000000000000000000000000000000020000",
            "currentDifficulty": "0x00",
            "currentBaseFee": "0x0a",
            "currentExcessBlobGas": "0x00"
        },
        "pre": {
            "0x1000000000000000000000000000000000000000": {
                "nonce": "0x00",
                "balance": "0x64",
                "code": "0x7f6001600155601080600c6000396000f3006000355415600957005b60203560006000526035602053605560215367ffffffffffffffff60006001f0506fffffffffffffffffffffffffffffffff60006001f0507fffffffffffffffffffffffffffffffffffffffffffffffffffffffffffffffff60006001f0506000630fffffff6001f050600063ffffffff6001f050600067ffffffffffffffff6001f05060006fffffffffffffffffffffffffffffffff6001f05060007fffffffffffffffffffffffffffffffffffffffffffffffffffffffffffffffff6001f050630fffffff630fffffff6001f05063ffffffff63ffffffff6001f05067ffffffffffffffff67ffffffffffffffff6001f0506fffffffffffffffffffffffffffffffff6fffffffffffffffffffffffffffffffff6001f0507fffffffffffffffffffffffffffffffffffffffffffffffffffffffffffffffff7fffffffffffffffffffffffffffffffffffffffffffffffffffffffffffffffff6001f000",
                "storage": {}
            },
            "0xa94f5374fce5edbc8e2a8697c15331677e6ebf0b": {
                "nonce": "0x00",
                "balance": "0x0fffffffffffffffffffffffffffffffffffffffffffffffff",
                "code": "0x",
                "storage": {}
            }
        },
        "transaction": {
            "nonce": "0x00",
            "gasPrice": "0x0a",
            "gasLimit": [
                "0x01000000"
            ],
            "to": "0x1000000000000000000000000000000000000000",
            "value": [
                "0x00"
            ],
            "data": [
                "0x"
            ],
            "sender": "0xa94f5374fce5edbc8e2a8697c15331677e6ebf0b",
            "secretKey": "0x45a915e4d060149eb4365960e6a7a45f334393093061116b197e3240065ff2d8"
        },
        "post": {
            "Prague": [
                {
                    "hash": "0x090f958d64ca0b7ff06e9bd37132a435a495f3f47b47b21b077690e11191b4bd",
                    "logs": "0x1dcc4de8dec75d7aab85b567b6ccd41ad312451b948a7413f0a142fd40d49347",
                    "txbytes": "0xf861800a8401000000941000000000000000000000000000000000000000808025a0f9ac29762edcc97687cc917ab9710b30f8bdc664e338eeb987d5f800e6430630a07a77f8828fefab9ef49f317f73a35cf99453fe1404da4a6ecd62fad3291b68b9",
                    "indexes": {
                        "data": 0,
                        "gas": 0,
                        "value": 0
                    },
                    "state": {
                        "0x1000000000000000000000000000000000000000": {
                            "nonce": "0x00",
                            "balance": "0x64",
                            "code": "0x7f6001600155601080600c6000396000f3006000355415600957005b60203560006000526035602053605560215367ffffffffffffffff60006001f0506fffffffffffffffffffffffffffffffff60006001f0507fffffffffffffffffffffffffffffffffffffffffffffffffffffffffffffffff60006001f0506000630fffffff6001f050600063ffffffff6001f050600067ffffffffffffffff6001f05060006fffffffffffffffffffffffffffffffff6001f05060007fffffffffffffffffffffffffffffffffffffffffffffffffffffffffffffffff6001f050630fffffff630fffffff6001f05063ffffffff63ffffffff6001f05067ffffffffffffffff67ffffffffffffffff6001f0506fffffffffffffffffffffffffffffffff6fffffffffffffffffffffffffffffffff6001f0507fffffffffffffffffffffffffffffffffffffffffffffffffffffffffffffffff7fffffffffffffffffffffffffffffffffffffffffffffffffffffffffffffffff6001f000",
                            "storage": {}
                        },
                        "0xa94f5374fce5edbc8e2a8697c15331677e6ebf0b": {
                            "nonce": "0x01",
                            "balance": "0x0ffffffffffffffffffffffffffffffffffffffffff5ffffff",
                            "code": "0x",
                            "storage": {}
                        }
                    }
                }
            ]
        },
        "config": {
            "blobSchedule": {
                "Cancun": {
                    "target": "0x03",
                    "max": "0x06",
                    "baseFeeUpdateFraction": "0x32f0ed"
                },
                "Prague": {
                    "target": "0x06",
                    "max": "0x09",
                    "baseFeeUpdateFraction": "0x4c6964"
                }
            },
            "chainid": "0x01"
        },
        "_info": {
            "hash": "0xf7bf3e024223726a2882ded33b4ba380bd84df470bb6774808ed331183497a5e",
            "comment": "`execution-specs` generated test",
            "filling-transition-tool": "2.18.0rc6",
            "description": "No description available - add a docstring to the python test class or function.",
            "url": "",
            "fixture-format": "state_test"
        }
    }
}