{
    "tests/ported_static/stStaticCall/test_static_callcodecallcodecall_110_oogm_after2.py::test_static_callcodecallcodecall_110_oogm_after2[fork_Cancun-blockchain_test_from_state_test--v0]": {
        "network": "Cancun",
        "genesisBlockHeader": {
            "parentHash": "0x0000000000000000000000000000000000000000000000000000000000000000",
            "uncleHash": "0x1dcc4de8dec75d7aab85b567b6ccd41ad312451b948a7413f0a142fd40d49347",
            "coinbase": "0x0000000000000000000000000000000000000000",
            "stateRoot": "0x105dba0ebc52487c3ba6758b1723850916bcef9a1a68e0cbc56f6841e7f8ebe5",
            "transactionsTrie": "0x56e81f171bcc55a6ff8345e692c0f86e5b48e01b996cadc001622fb5e363b421",
            "receiptTrie": "0x56e81f171bcc55a6ff8345e692c0f86e5b48e01b996cadc001622fb5e363b421",
            "bloom": "0x00000000000000000000000000000000000000000000000000000000000000000000000000000000000000000000000000000000000000000000000000000000000000000000000000000000000000000000000000000000000000000000000000000000000000000000000000000000000000000000000000000000000000000000000000000000000000000000000000000000000000000000000000000000000000000000000000000000000000000000000000000000000000000000000000000000000000000000000000000000000000000000000000000000000000000000000000000000000000000000000000000000000000000000000000000000",
            "difficulty": "0x00",
            "number": "0x00",
            "gasLimit": "0x01c9c380",
            "gasUsed": "0x00",
            "timestamp": "0x00",
            "extraData": "0x00",
            "mixHash": "0x0000000000000000000000000000000000000000000000000000000000000000",
            "nonce": "0x0000000000000000",
            "baseFeePerGas": "0x0b",
            "withdrawalsRoot": "0x56e81f171bcc55a6ff8345e692c0f86e5b48e01b996cadc001622fb5e363b421",
            "blobGasUsed": "0x00",
            "excessBlobGas": "0x00",
            "parentBeaconBlockRoot": "0x0000000000000000000000000000000000000000000000000000000000000000",
            "hash": "0xedee23e3dd4b2bd773a728829cdd9419597f491ac9e27162e38cab78445756c1"
        },
        "pre": {
            "0x000f3df6d732807ef1319fb7b8bb8522d0beac02": {
                "nonce": "0x01",
                "balance": "0x00",
                "code": "0x3373fffffffffffffffffffffffffffffffffffffffe14604d57602036146024575f5ffd5b5f35801560495762001fff810690815414603c575f5ffd5b62001fff01545f5260205ff35b5f5ffd5b62001fff42064281555f359062001fff015500",
                "storage": {}
            },
            "0x62b278a07428f1ff97ee7c884b711f6df3340707": {
                "nonce": "0x00",
                "balance": "0x0de0b6b3a7640000",
                "code": "0x604060006040600034735132347436f7bd136e83bf55270d821e276c2e5161eaf6f2600055600160015500",
                "storage": {}
            },
            "0x5132347436f7bd136e83bf55270d821e276c2e51": {
                "nonce": "0x00",
                "balance": "0x00",
                "code": "0x60406000604060006001340373eedcbac77fbd73bf2d0d7fedd710d089b466138d619c90f2505b61c350608051101560425760013b506001608051016080526026565b00",
                "storage": {}
            },
            "0xeedcbac77fbd73bf2d0d7fedd710d089b466138d": {
                "nonce": "0x00",
                "balance": "0x00",
                "code": "0x604060006040600073335c5531b84765a7626e6e76688f18b81be5259c614e34fa00",
                "storage": {}
            },
            "0x335c5531b84765a7626e6e76688f18b81be5259c": {
                "nonce": "0x00",
                "balance": "0x00",
                "code": "0x600160035200",
                "storage": {}
            },
            "0xebaf50debf10e08302fe4280c32df010463ca297": {
                "nonce": "0x00",
                "balance": "0x0de0b6b3a7640000",
                "code": "0x",
                "storage": {}
            }
        },
        "postState": {
            "0x000f3df6d732807ef1319fb7b8bb8522d0beac02": {
                "nonce": "0x01",
                "balance": "0x00",
                "code": "0x3373fffffffffffffffffffffffffffffffffffffffe14604d57602036146024575f5ffd5b5f35801560495762001fff810690815414603c575f5ffd5b62001fff01545f5260205ff35b5f5ffd5b62001fff42064281555f359062001fff015500",
                "storage": {
                    "0x03e8": "0x03e8"
                }
            },
            "0x62b278a07428f1ff97ee7c884b711f6df3340707": {
                "nonce": "0x00",
                "balance": "0x0de0b6b3a7640000",
                "code": "0x604060006040600034735132347436f7bd136e83bf55270d821e276c2e5161eaf6f2600055600160015500",
                "storage": {
                    "0x01": "0x01"
                }
            },
            "0x5132347436f7bd136e83bf55270d821e276c2e51": {
                "nonce": "0x00",
                "balance": "0x00",
                "code": "0x60406000604060006001340373eedcbac77fbd73bf2d0d7fedd710d089b466138d619c90f2505b61c350608051101560425760013b506001608051016080526026565b00",
                "storage": {}
            },
            "0xeedcbac77fbd73bf2d0d7fedd710d089b466138d": {
                "nonce": "0x00",
                "balance": "0x00",
                "code": "0x604060006040600073335c5531b84765a7626e6e76688f18b81be5259c614e34fa00",
                "storage": {}
            },
            "0x335c5531b84765a7626e6e76688f18b81be5259c": {
                "nonce": "0x00",
                "balance": "0x00",
                "code": "0x600160035200",
                "storage": {}
            },
            "0xebaf50debf10e08302fe4280c32df010463ca297": {
                "nonce": "0x01",
                "balance": "0x0de0b6b3a75381ee",
                "code": "0x",
                "storage": {}
            }
        },
        "lastblockhash": "0x609d64abc3886d1e9cbba9f358c96ed85ec3c0f9678f4eeb2c750653f88444fd",
        "config": {
            "network": "Cancun",
            "chainid": "0x01",
            "blobSchedule": {
                "Cancun": {
                    "target": "0x03",
                    "max": "0x06",
                    "baseFeeUpdateFraction": "0x32f0ed"
                }
            }
        },
        "genesisRLP": "0xf9023cf90236a00000000000000000000000000000000000000000000000000000000000000000a01dcc4de8dec75d7aab85b567b6ccd41ad312451b948a7413f0a142fd40d49347940000000000000000000000000000000000000000a0105dba0ebc52487c3ba6758b1723850916bcef9a1a68e0cbc56f6841e7f8ebe5a056e81f171bcc55a6ff8345e692c0f86e5b48e01b996cadc001622fb5e363b421a056e81f171bcc55a6ff8345e692c0f86e5b48e01b996cadc001622fb5e363b421b901000000000000000000000000000000000000000000000000000000000000000000000000000000000000000000000000000000000000000000000000000000000000000000000000000000000000000000000000000000000000000000000000000000000000000000000000000000000000000000000000000000000000000000000000000000000000000000000000000000000000000000000000000000000000000000000000000000000000000000000000000000000000000000000000000000000000000000000000000000000000000000000000000000000000000000000000000000000000000000000000000000000000000000000000000000000080808401c9c380808000a000000000000000000000000000000000000000000000000000000000000000008800000000000000000ba056e81f171bcc55a6ff8345e692c0f86e5b48e01b996cadc001622fb5e363b4218080a00000000000000000000000000000000000000000000000000000000000000000c0c0c0",
        "blocks": [
            {
                "blockHeader": {
                    "parentHash": "0xedee23e3dd4b2bd773a728829cdd9419597f491ac9e27162e38cab78445756c1",
                    "uncleHash": "0x1dcc4de8dec75d7aab85b567b6ccd41ad312451b948a7413f0a142fd40d49347",
                    "coinbase": "0x2adc25665018aa1fe0e6bc666dac8fc2697ff9ba",
                    "stateRoot": "0x31271c3695969c72321bb23aa63bc0dd96a62a421d23274e52a1e1aceeaafef5",
                    "transactionsTrie": "0x265e59b845ee1dd3c6573476690a584c1fe1a36ccfe60e8e47ae167ff55576d7",
                    "receiptTrie": "0x221c7fcdef991793bdc98530431cb1808c858230cb39fc8670ec1f62b3cee0fc",
                    "bloom": "0x00000000000000000000000000000000000000000000000000000000000000000000000000000000000000000000000000000000000000000000000000000000000000000000000000000000000000000000000000000000000000000000000000000000000000000000000000000000000000000000000000000000000000000000000000000000000000000000000000000000000000000000000000000000000000000000000000000000000000000000000000000000000000000000000000000000000000000000000000000000000000000000000000000000000000000000000000000000000000000000000000000000000000000000000000000000",
                    "difficulty": "0x00",
                    "number": "0x01",
                    "gasLimit": "0x01c9c380",
                    "gasUsed": "0x01a635",
                    "timestamp": "0x03e8",
                    "extraData": "0x00",
                    "mixHash": "0x0000000000000000000000000000000000000000000000000000000000020000",
                    "nonce": "0x0000000000000000",
                    "baseFeePerGas": "0x0a",
                    "withdrawalsRoot": "0x56e81f171bcc55a6ff8345e692c0f86e5b48e01b996cadc001622fb5e363b421",
                    "blobGasUsed": "0x00",
                    "excessBlobGas": "0x00",
                    "parentBeaconBlockRoot": "0x0000000000000000000000000000000000000000000000000000000000000000",
                    "hash": "0x609d64abc3886d1e9cbba9f358c96ed85ec3c0f9678f4eeb2c750653f88444fd"
                },
                "transactions": [
                    {
                        "type": "0x00",
                        "chainId": "0x01",
                        "nonce": "0x00",
                        "gasPrice": "0x0a",
                        "gasLimit": "0x029fe0",
                        "to": "0x62b278a07428f1ff97ee7c884b711f6df3340707",
                        "value": "0x00",
                        "data": "0x",
                        "v": "0x25",
                        "r": "0xa74d8447c59e1f515aeab1baa48898a3e349326e8ce5a987d5f107d317d087e1",
                        "s": "0x184e08a8df66c33d6d662cea9c493eebdb98d969ed29ee4b098831b257e49a38",
                        "sender": "0xebaf50debf10e08302fe4280c32df010463ca297"
                    }
                ],
                "uncleHeaders": [],
                "withdrawals": [],
                "receipts": [
                    {
                        "transactionHash": "0xfd1c81e61e021ab82dd8d9187e46f58310cbff547946690bb872ad2138d1a597",
                        "type": "0x00",
                        "cumulativeGasUsed": "0x01a635",
                        "bloom": "0x00000000000000000000000000000000000000000000000000000000000000000000000000000000000000000000000000000000000000000000000000000000000000000000000000000000000000000000000000000000000000000000000000000000000000000000000000000000000000000000000000000000000000000000000000000000000000000000000000000000000000000000000000000000000000000000000000000000000000000000000000000000000000000000000000000000000000000000000000000000000000000000000000000000000000000000000000000000000000000000000000000000000000000000000000000000",
                        "logs": [],
                        "status": true,
                        "rlp": "0xf90109018301a635b9010000000000000000000000000000000000000000000000000000000000000000000000000000000000000000000000000000000000000000000000000000000000000000000000000000000000000000000000000000000000000000000000000000000000000000000000000000000000000000000000000000000000000000000000000000000000000000000000000000000000000000000000000000000000000000000000000000000000000000000000000000000000000000000000000000000000000000000000000000000000000000000000000000000000000000000000000000000000000000000000000000000000000000000000000000000000c0"
                    }
                ],
                "rlp": "0xf902a4f9023ba0edee23e3dd4b2bd773a728829cdd9419597f491ac9e27162e38cab78445756c1a01dcc4de8dec75d7aab85b567b6ccd41ad312451b948a7413f0a142fd40d49347942adc25665018aa1fe0e6bc666dac8fc2697ff9baa031271c3695969c72321bb23aa63bc0dd96a62a421d23274e52a1e1aceeaafef5a0265e59b845ee1dd3c6573476690a584c1fe1a36ccfe60e8e47ae167ff55576d7a0221c7fcdef991793bdc98530431cb1808c858230cb39fc8670ec1f62b3cee0fcb901000000000000000000000000000000000000000000000000000000000000000000000000000000000000000000000000000000000000000000000000000000000000000000000000000000000000000000000000000000000000000000000000000000000000000000000000000000000000000000000000000000000000000000000000000000000000000000000000000000000000000000000000000000000000000000000000000000000000000000000000000000000000000000000000000000000000000000000000000000000000000000000000000000000000000000000000000000000000000000000000000000000000000000000000000000000080018401c9c3808301a6358203e800a000000000000000000000000000000000000000000000000000000000000200008800000000000000000aa056e81f171bcc55a6ff8345e692c0f86e5b48e01b996cadc001622fb5e363b4218080a00000000000000000000000000000000000000000000000000000000000000000f862f860800a83029fe09462b278a07428f1ff97ee7c884b711f6df3340707808025a0a74d8447c59e1f515aeab1baa48898a3e349326e8ce5a987d5f107d317d087e1a0184e08a8df66c33d6d662cea9c493eebdb98d969ed29ee4b098831b257e49a38c0c0",
                "blocknumber": "1"
            }
        ],
        "sealEngine": "NoProof",
        "_info": {
            "hash": "0x70b80d046b85f5b864991c3aded6e56924ae12565add905352a51fa07fe5021e",
            "fixture-format": "blockchain_test",
            "comment": "`execution-specs` generated test",
            "filling-transition-tool": "2.19.0",
            "description": "Test_static_callcodecallcodecall_110_oogm_after2.",
            "url": "https://github.com/ethereum/execution-specs/blob/tests-sn\u00f8bal-devnet-4@v1.0.0/tests/ported_static/stStaticCall/test_static_callcodecallcodecall_110_oogm_after2.py#L26",
            "metadata": {
                "opcode_count": {}
            }
        }
    },
    "tests/ported_static/stStaticCall/test_static_callcodecallcodecall_110_oogm_after2.py::test_static_callcodecallcodecall_110_oogm_after2[fork_Cancun-blockchain_test_from_state_test--v1]": {
        "network": "Cancun",
        "genesisBlockHeader": {
            "parentHash": "0x0000000000000000000000000000000000000000000000000000000000000000",
            "uncleHash": "0x1dcc4de8dec75d7aab85b567b6ccd41ad312451b948a7413f0a142fd40d49347",
            "coinbase": "0x0000000000000000000000000000000000000000",
            "stateRoot": "0x105dba0ebc52487c3ba6758b1723850916bcef9a1a68e0cbc56f6841e7f8ebe5",
            "transactionsTrie": "0x56e81f171bcc55a6ff8345e692c0f86e5b48e01b996cadc001622fb5e363b421",
            "receiptTrie": "0x56e81f171bcc55a6ff8345e692c0f86e5b48e01b996cadc001622fb5e363b421",
            "bloom": "0x00000000000000000000000000000000000000000000000000000000000000000000000000000000000000000000000000000000000000000000000000000000000000000000000000000000000000000000000000000000000000000000000000000000000000000000000000000000000000000000000000000000000000000000000000000000000000000000000000000000000000000000000000000000000000000000000000000000000000000000000000000000000000000000000000000000000000000000000000000000000000000000000000000000000000000000000000000000000000000000000000000000000000000000000000000000",
            "difficulty": "0x00",
            "number": "0x00",
            "gasLimit": "0x01c9c380",
            "gasUsed": "0x00",
            "timestamp": "0x00",
            "extraData": "0x00",
            "mixHash": "0x0000000000000000000000000000000000000000000000000000000000000000",
            "nonce": "0x0000000000000000",
            "baseFeePerGas": "0x0b",
            "withdrawalsRoot": "0x56e81f171bcc55a6ff8345e692c0f86e5b48e01b996cadc001622fb5e363b421",
            "blobGasUsed": "0x00",
            "excessBlobGas": "0x00",
            "parentBeaconBlockRoot": "0x0000000000000000000000000000000000000000000000000000000000000000",
            "hash": "0xedee23e3dd4b2bd773a728829cdd9419597f491ac9e27162e38cab78445756c1"
        },
        "pre": {
            "0x000f3df6d732807ef1319fb7b8bb8522d0beac02": {
                "nonce": "0x01",
                "balance": "0x00",
                "code": "0x3373fffffffffffffffffffffffffffffffffffffffe14604d57602036146024575f5ffd5b5f35801560495762001fff810690815414603c575f5ffd5b62001fff01545f5260205ff35b5f5ffd5b62001fff42064281555f359062001fff015500",
                "storage": {}
            },
            "0x62b278a07428f1ff97ee7c884b711f6df3340707": {
                "nonce": "0x00",
                "balance": "0x0de0b6b3a7640000",
                "code": "0x604060006040600034735132347436f7bd136e83bf55270d821e276c2e5161eaf6f2600055600160015500",
                "storage": {}
            },
            "0x5132347436f7bd136e83bf55270d821e276c2e51": {
                "nonce": "0x00",
                "balance": "0x00",
                "code": "0x60406000604060006001340373eedcbac77fbd73bf2d0d7fedd710d089b466138d619c90f2505b61c350608051101560425760013b506001608051016080526026565b00",
                "storage": {}
            },
            "0xeedcbac77fbd73bf2d0d7fedd710d089b466138d": {
                "nonce": "0x00",
                "balance": "0x00",
                "code": "0x604060006040600073335c5531b84765a7626e6e76688f18b81be5259c614e34fa00",
                "storage": {}
            },
            "0x335c5531b84765a7626e6e76688f18b81be5259c": {
                "nonce": "0x00",
                "balance": "0x00",
                "code": "0x600160035200",
                "storage": {}
            },
            "0xebaf50debf10e08302fe4280c32df010463ca297": {
                "nonce": "0x00",
                "balance": "0x0de0b6b3a7640000",
                "code": "0x",
                "storage": {}
            }
        },
        "postState": {
            "0x000f3df6d732807ef1319fb7b8bb8522d0beac02": {
                "nonce": "0x01",
                "balance": "0x00",
                "code": "0x3373fffffffffffffffffffffffffffffffffffffffe14604d57602036146024575f5ffd5b5f35801560495762001fff810690815414603c575f5ffd5b62001fff01545f5260205ff35b5f5ffd5b62001fff42064281555f359062001fff015500",
                "storage": {
                    "0x03e8": "0x03e8"
                }
            },
            "0x62b278a07428f1ff97ee7c884b711f6df3340707": {
                "nonce": "0x00",
                "balance": "0x0de0b6b3a7640001",
                "code": "0x604060006040600034735132347436f7bd136e83bf55270d821e276c2e5161eaf6f2600055600160015500",
                "storage": {
                    "0x01": "0x01"
                }
            },
            "0x5132347436f7bd136e83bf55270d821e276c2e51": {
                "nonce": "0x00",
                "balance": "0x00",
                "code": "0x60406000604060006001340373eedcbac77fbd73bf2d0d7fedd710d089b466138d619c90f2505b61c350608051101560425760013b506001608051016080526026565b00",
                "storage": {}
            },
            "0xeedcbac77fbd73bf2d0d7fedd710d089b466138d": {
                "nonce": "0x00",
                "balance": "0x00",
                "code": "0x604060006040600073335c5531b84765a7626e6e76688f18b81be5259c614e34fa00",
                "storage": {}
            },
            "0x335c5531b84765a7626e6e76688f18b81be5259c": {
                "nonce": "0x00",
                "balance": "0x00",
                "code": "0x600160035200",
                "storage": {}
            },
            "0xebaf50debf10e08302fe4280c32df010463ca297": {
                "nonce": "0x01",
                "balance": "0x0de0b6b3a752225d",
                "code": "0x",
                "storage": {}
            }
        },
        "lastblockhash": "0x6fa1eda0efd05f7fb4a011beb37bad2cf162a79b326f83ddde0d4e7394fb188e",
        "config": {
            "network": "Cancun",
            "chainid": "0x01",
            "blobSchedule": {
                "Cancun": {
                    "target": "0x03",
                    "max": "0x06",
                    "baseFeeUpdateFraction": "0x32f0ed"
                }
            }
        },
        "genesisRLP": "0xf9023cf90236a00000000000000000000000000000000000000000000000000000000000000000a01dcc4de8dec75d7aab85b567b6ccd41ad312451b948a7413f0a142fd40d49347940000000000000000000000000000000000000000a0105dba0ebc52487c3ba6758b1723850916bcef9a1a68e0cbc56f6841e7f8ebe5a056e81f171bcc55a6ff8345e692c0f86e5b48e01b996cadc001622fb5e363b421a056e81f171bcc55a6ff8345e692c0f86e5b48e01b996cadc001622fb5e363b421b901000000000000000000000000000000000000000000000000000000000000000000000000000000000000000000000000000000000000000000000000000000000000000000000000000000000000000000000000000000000000000000000000000000000000000000000000000000000000000000000000000000000000000000000000000000000000000000000000000000000000000000000000000000000000000000000000000000000000000000000000000000000000000000000000000000000000000000000000000000000000000000000000000000000000000000000000000000000000000000000000000000000000000000000000000000000080808401c9c380808000a000000000000000000000000000000000000000000000000000000000000000008800000000000000000ba056e81f171bcc55a6ff8345e692c0f86e5b48e01b996cadc001622fb5e363b4218080a00000000000000000000000000000000000000000000000000000000000000000c0c0c0",
        "blocks": [
            {
                "blockHeader": {
                    "parentHash": "0xedee23e3dd4b2bd773a728829cdd9419597f491ac9e27162e38cab78445756c1",
                    "uncleHash": "0x1dcc4de8dec75d7aab85b567b6ccd41ad312451b948a7413f0a142fd40d49347",
                    "coinbase": "0x2adc25665018aa1fe0e6bc666dac8fc2697ff9ba",
                    "stateRoot": "0xd126f5c465d4e13cec0f951f34c410709479ca2e102b4cfa73f8c693ad925635",
                    "transactionsTrie": "0xf983ecff974126a0f218172ac692d9c116b654c0ac24b824350b753044eb6c0e",
                    "receiptTrie": "0xe8622feb11b0455dfdb4517ba441d8065e60b684e60303a54ba76565d9bf532d",
                    "bloom": "0x00000000000000000000000000000000000000000000000000000000000000000000000000000000000000000000000000000000000000000000000000000000000000000000000000000000000000000000000000000000000000000000000000000000000000000000000000000000000000000000000000000000000000000000000000000000000000000000000000000000000000000000000000000000000000000000000000000000000000000000000000000000000000000000000000000000000000000000000000000000000000000000000000000000000000000000000000000000000000000000000000000000000000000000000000000000",
                    "difficulty": "0x00",
                    "number": "0x01",
                    "gasLimit": "0x01c9c380",
                    "gasUsed": "0x01c95d",
                    "timestamp": "0x03e8",
                    "extraData": "0x00",
                    "mixHash": "0x0000000000000000000000000000000000000000000000000000000000020000",
                    "nonce": "0x0000000000000000",
                    "baseFeePerGas": "0x0a",
                    "withdrawalsRoot": "0x56e81f171bcc55a6ff8345e692c0f86e5b48e01b996cadc001622fb5e363b421",
                    "blobGasUsed": "0x00",
                    "excessBlobGas": "0x00",
                    "parentBeaconBlockRoot": "0x0000000000000000000000000000000000000000000000000000000000000000",
                    "hash": "0x6fa1eda0efd05f7fb4a011beb37bad2cf162a79b326f83ddde0d4e7394fb188e"
                },
                "transactions": [
                    {
                        "type": "0x00",
                        "chainId": "0x01",
                        "nonce": "0x00",
                        "gasPrice": "0x0a",
                        "gasLimit": "0x029fe0",
                        "to": "0x62b278a07428f1ff97ee7c884b711f6df3340707",
                        "value": "0x01",
                        "data": "0x",
                        "v": "0x25",
                        "r": "0x90950d99f09256f0add2b39cfd9bb3d2ba0ca86f11ef2c9df23c82beceb846d8",
                        "s": "0x77345fe0368c788ca324c360cbfdcf4407bf54c9090e9d7685818c90781e2cc7",
                        "sender": "0xebaf50debf10e08302fe4280c32df010463ca297"
                    }
                ],
                "uncleHeaders": [],
                "withdrawals": [],
                "receipts": [
                    {
                        "transactionHash": "0xf0073628587f1ec7fdd33d95aa3453bd9060cc4454a5d125472d62dee0705699",
                        "type": "0x00",
                        "cumulativeGasUsed": "0x01c95d",
                        "bloom": "0x00000000000000000000000000000000000000000000000000000000000000000000000000000000000000000000000000000000000000000000000000000000000000000000000000000000000000000000000000000000000000000000000000000000000000000000000000000000000000000000000000000000000000000000000000000000000000000000000000000000000000000000000000000000000000000000000000000000000000000000000000000000000000000000000000000000000000000000000000000000000000000000000000000000000000000000000000000000000000000000000000000000000000000000000000000000",
                        "logs": [],
                        "status": true,
                        "rlp": "0xf90109018301c95db9010000000000000000000000000000000000000000000000000000000000000000000000000000000000000000000000000000000000000000000000000000000000000000000000000000000000000000000000000000000000000000000000000000000000000000000000000000000000000000000000000000000000000000000000000000000000000000000000000000000000000000000000000000000000000000000000000000000000000000000000000000000000000000000000000000000000000000000000000000000000000000000000000000000000000000000000000000000000000000000000000000000000000000000000000000000000c0"
                    }
                ],
                "rlp": "0xf902a4f9023ba0edee23e3dd4b2bd773a728829cdd9419597f491ac9e27162e38cab78445756c1a01dcc4de8dec75d7aab85b567b6ccd41ad312451b948a7413f0a142fd40d49347942adc25665018aa1fe0e6bc666dac8fc2697ff9baa0d126f5c465d4e13cec0f951f34c410709479ca2e102b4cfa73f8c693ad925635a0f983ecff974126a0f218172ac692d9c116b654c0ac24b824350b753044eb6c0ea0e8622feb11b0455dfdb4517ba441d8065e60b684e60303a54ba76565d9bf532db901000000000000000000000000000000000000000000000000000000000000000000000000000000000000000000000000000000000000000000000000000000000000000000000000000000000000000000000000000000000000000000000000000000000000000000000000000000000000000000000000000000000000000000000000000000000000000000000000000000000000000000000000000000000000000000000000000000000000000000000000000000000000000000000000000000000000000000000000000000000000000000000000000000000000000000000000000000000000000000000000000000000000000000000000000000000080018401c9c3808301c95d8203e800a000000000000000000000000000000000000000000000000000000000000200008800000000000000000aa056e81f171bcc55a6ff8345e692c0f86e5b48e01b996cadc001622fb5e363b4218080a00000000000000000000000000000000000000000000000000000000000000000f862f860800a83029fe09462b278a07428f1ff97ee7c884b711f6df3340707018025a090950d99f09256f0add2b39cfd9bb3d2ba0ca86f11ef2c9df23c82beceb846d8a077345fe0368c788ca324c360cbfdcf4407bf54c9090e9d7685818c90781e2cc7c0c0",
                "blocknumber": "1"
            }
        ],
        "sealEngine": "NoProof",
        "_info": {
            "hash": "0x89fb3522fee2de642290de96df23cd9567cc3ddb1653419cb2fdfa412fd87eb6",
            "fixture-format": "blockchain_test",
            "comment": "`execution-specs` generated test",
            "filling-transition-tool": "2.19.0",
            "description": "Test_static_callcodecallcodecall_110_oogm_after2.",
            "url": "https://github.com/ethereum/execution-specs/blob/tests-sn\u00f8bal-devnet-4@v1.0.0/tests/ported_static/stStaticCall/test_static_callcodecallcodecall_110_oogm_after2.py#L26",
            "metadata": {
                "opcode_count": {}
            }
        }
    },
    "tests/ported_static/stStaticCall/test_static_callcodecallcodecall_110_oogm_after2.py::test_static_callcodecallcodecall_110_oogm_after2[fork_Cancun-blockchain_test_from_state_test--v2]": {
        "network": "Cancun",
        "genesisBlockHeader": {
            "parentHash": "0x0000000000000000000000000000000000000000000000000000000000000000",
            "uncleHash": "0x1dcc4de8dec75d7aab85b567b6ccd41ad312451b948a7413f0a142fd40d49347",
            "coinbase": "0x0000000000000000000000000000000000000000",
            "stateRoot": "0x105dba0ebc52487c3ba6758b1723850916bcef9a1a68e0cbc56f6841e7f8ebe5",
            "transactionsTrie": "0x56e81f171bcc55a6ff8345e692c0f86e5b48e01b996cadc001622fb5e363b421",
            "receiptTrie": "0x56e81f171bcc55a6ff8345e692c0f86e5b48e01b996cadc001622fb5e363b421",
            "bloom": "0x00000000000000000000000000000000000000000000000000000000000000000000000000000000000000000000000000000000000000000000000000000000000000000000000000000000000000000000000000000000000000000000000000000000000000000000000000000000000000000000000000000000000000000000000000000000000000000000000000000000000000000000000000000000000000000000000000000000000000000000000000000000000000000000000000000000000000000000000000000000000000000000000000000000000000000000000000000000000000000000000000000000000000000000000000000000",
            "difficulty": "0x00",
            "number": "0x00",
            "gasLimit": "0x01c9c380",
            "gasUsed": "0x00",
            "timestamp": "0x00",
            "extraData": "0x00",
            "mixHash": "0x0000000000000000000000000000000000000000000000000000000000000000",
            "nonce": "0x0000000000000000",
            "baseFeePerGas": "0x0b",
            "withdrawalsRoot": "0x56e81f171bcc55a6ff8345e692c0f86e5b48e01b996cadc001622fb5e363b421",
            "blobGasUsed": "0x00",
            "excessBlobGas": "0x00",
            "parentBeaconBlockRoot": "0x0000000000000000000000000000000000000000000000000000000000000000",
            "hash": "0xedee23e3dd4b2bd773a728829cdd9419597f491ac9e27162e38cab78445756c1"
        },
        "pre": {
            "0x000f3df6d732807ef1319fb7b8bb8522d0beac02": {
                "nonce": "0x01",
                "balance": "0x00",
                "code": "0x3373fffffffffffffffffffffffffffffffffffffffe14604d57602036146024575f5ffd5b5f35801560495762001fff810690815414603c575f5ffd5b62001fff01545f5260205ff35b5f5ffd5b62001fff42064281555f359062001fff015500",
                "storage": {}
            },
            "0x62b278a07428f1ff97ee7c884b711f6df3340707": {
                "nonce": "0x00",
                "balance": "0x0de0b6b3a7640000",
                "code": "0x604060006040600034735132347436f7bd136e83bf55270d821e276c2e5161eaf6f2600055600160015500",
                "storage": {}
            },
            "0x5132347436f7bd136e83bf55270d821e276c2e51": {
                "nonce": "0x00",
                "balance": "0x00",
                "code": "0x60406000604060006001340373eedcbac77fbd73bf2d0d7fedd710d089b466138d619c90f2505b61c350608051101560425760013b506001608051016080526026565b00",
                "storage": {}
            },
            "0xeedcbac77fbd73bf2d0d7fedd710d089b466138d": {
                "nonce": "0x00",
                "balance": "0x00",
                "code": "0x604060006040600073335c5531b84765a7626e6e76688f18b81be5259c614e34fa00",
                "storage": {}
            },
            "0x335c5531b84765a7626e6e76688f18b81be5259c": {
                "nonce": "0x00",
                "balance": "0x00",
                "code": "0x600160035200",
                "storage": {}
            },
            "0xebaf50debf10e08302fe4280c32df010463ca297": {
                "nonce": "0x00",
                "balance": "0x0de0b6b3a7640000",
                "code": "0x",
                "storage": {}
            }
        },
        "postState": {
            "0x000f3df6d732807ef1319fb7b8bb8522d0beac02": {
                "nonce": "0x01",
                "balance": "0x00",
                "code": "0x3373fffffffffffffffffffffffffffffffffffffffe14604d57602036146024575f5ffd5b5f35801560495762001fff810690815414603c575f5ffd5b62001fff01545f5260205ff35b5f5ffd5b62001fff42064281555f359062001fff015500",
                "storage": {
                    "0x03e8": "0x03e8"
                }
            },
            "0x62b278a07428f1ff97ee7c884b711f6df3340707": {
                "nonce": "0x00",
                "balance": "0x0de0b6b3a7640002",
                "code": "0x604060006040600034735132347436f7bd136e83bf55270d821e276c2e5161eaf6f2600055600160015500",
                "storage": {
                    "0x01": "0x01"
                }
            },
            "0x5132347436f7bd136e83bf55270d821e276c2e51": {
                "nonce": "0x00",
                "balance": "0x00",
                "code": "0x60406000604060006001340373eedcbac77fbd73bf2d0d7fedd710d089b466138d619c90f2505b61c350608051101560425760013b506001608051016080526026565b00",
                "storage": {}
            },
            "0xeedcbac77fbd73bf2d0d7fedd710d089b466138d": {
                "nonce": "0x00",
                "balance": "0x00",
                "code": "0x604060006040600073335c5531b84765a7626e6e76688f18b81be5259c614e34fa00",
                "storage": {}
            },
            "0x335c5531b84765a7626e6e76688f18b81be5259c": {
                "nonce": "0x00",
                "balance": "0x00",
                "code": "0x600160035200",
                "storage": {}
            },
            "0xebaf50debf10e08302fe4280c32df010463ca297": {
                "nonce": "0x01",
                "balance": "0x0de0b6b3a752225c",
                "code": "0x",
                "storage": {}
            }
        },
        "lastblockhash": "0xaaadfb7d9493f8d91a70a82294ffebf8e2ec16c718bd81e343ca037d269c992a",
        "config": {
            "network": "Cancun",
            "chainid": "0x01",
            "blobSchedule": {
                "Cancun": {
                    "target": "0x03",
                    "max": "0x06",
                    "baseFeeUpdateFraction": "0x32f0ed"
                }
            }
        },
        "genesisRLP": "0xf9023cf90236a00000000000000000000000000000000000000000000000000000000000000000a01dcc4de8dec75d7aab85b567b6ccd41ad312451b948a7413f0a142fd40d49347940000000000000000000000000000000000000000a0105dba0ebc52487c3ba6758b1723850916bcef9a1a68e0cbc56f6841e7f8ebe5a056e81f171bcc55a6ff8345e692c0f86e5b48e01b996cadc001622fb5e363b421a056e81f171bcc55a6ff8345e692c0f86e5b48e01b996cadc001622fb5e363b421b901000000000000000000000000000000000000000000000000000000000000000000000000000000000000000000000000000000000000000000000000000000000000000000000000000000000000000000000000000000000000000000000000000000000000000000000000000000000000000000000000000000000000000000000000000000000000000000000000000000000000000000000000000000000000000000000000000000000000000000000000000000000000000000000000000000000000000000000000000000000000000000000000000000000000000000000000000000000000000000000000000000000000000000000000000000000080808401c9c380808000a000000000000000000000000000000000000000000000000000000000000000008800000000000000000ba056e81f171bcc55a6ff8345e692c0f86e5b48e01b996cadc001622fb5e363b4218080a00000000000000000000000000000000000000000000000000000000000000000c0c0c0",
        "blocks": [
            {
                "blockHeader": {
                    "parentHash": "0xedee23e3dd4b2bd773a728829cdd9419597f491ac9e27162e38cab78445756c1",
                    "uncleHash": "0x1dcc4de8dec75d7aab85b567b6ccd41ad312451b948a7413f0a142fd40d49347",
                    "coinbase": "0x2adc25665018aa1fe0e6bc666dac8fc2697ff9ba",
                    "stateRoot": "0xc5c5bf68662f71f2fa34b5c04bc30051cf736e92807d921d5940ac958ffc611e",
                    "transactionsTrie": "0x8b03702c31c2aa4bbbb3177d26ebbcc8a8b20ce9d47d0f60bdb91a063f0e9625",
                    "receiptTrie": "0xe8622feb11b0455dfdb4517ba441d8065e60b684e60303a54ba76565d9bf532d",
                    "bloom": "0x00000000000000000000000000000000000000000000000000000000000000000000000000000000000000000000000000000000000000000000000000000000000000000000000000000000000000000000000000000000000000000000000000000000000000000000000000000000000000000000000000000000000000000000000000000000000000000000000000000000000000000000000000000000000000000000000000000000000000000000000000000000000000000000000000000000000000000000000000000000000000000000000000000000000000000000000000000000000000000000000000000000000000000000000000000000",
                    "difficulty": "0x00",
                    "number": "0x01",
                    "gasLimit": "0x01c9c380",
                    "gasUsed": "0x01c95d",
                    "timestamp": "0x03e8",
                    "extraData": "0x00",
                    "mixHash": "0x0000000000000000000000000000000000000000000000000000000000020000",
                    "nonce": "0x0000000000000000",
                    "baseFeePerGas": "0x0a",
                    "withdrawalsRoot": "0x56e81f171bcc55a6ff8345e692c0f86e5b48e01b996cadc001622fb5e363b421",
                    "blobGasUsed": "0x00",
                    "excessBlobGas": "0x00",
                    "parentBeaconBlockRoot": "0x0000000000000000000000000000000000000000000000000000000000000000",
                    "hash": "0xaaadfb7d9493f8d91a70a82294ffebf8e2ec16c718bd81e343ca037d269c992a"
                },
                "transactions": [
                    {
                        "type": "0x00",
                        "chainId": "0x01",
                        "nonce": "0x00",
                        "gasPrice": "0x0a",
                        "gasLimit": "0x029fe0",
                        "to": "0x62b278a07428f1ff97ee7c884b711f6df3340707",
                        "value": "0x02",
                        "data": "0x",
                        "v": "0x26",
                        "r": "0x56f5a2caf37bba286ce2625ca383949e6bf812f6f9ad73de5d34090b4796d45d",
                        "s": "0x6af8337ec4d8b883fbf172f7e9126e838c471b0743228809f03bf747c5c74a44",
                        "sender": "0xebaf50debf10e08302fe4280c32df010463ca297"
                    }
                ],
                "uncleHeaders": [],
                "withdrawals": [],
                "receipts": [
                    {
                        "transactionHash": "0x49c606942b56f18f5a17166c054907de13d55f2fcc4e6c48072c7df7fb119df1",
                        "type": "0x00",
                        "cumulativeGasUsed": "0x01c95d",
                        "bloom": "0x00000000000000000000000000000000000000000000000000000000000000000000000000000000000000000000000000000000000000000000000000000000000000000000000000000000000000000000000000000000000000000000000000000000000000000000000000000000000000000000000000000000000000000000000000000000000000000000000000000000000000000000000000000000000000000000000000000000000000000000000000000000000000000000000000000000000000000000000000000000000000000000000000000000000000000000000000000000000000000000000000000000000000000000000000000000",
                        "logs": [],
                        "status": true,
                        "rlp": "0xf90109018301c95db9010000000000000000000000000000000000000000000000000000000000000000000000000000000000000000000000000000000000000000000000000000000000000000000000000000000000000000000000000000000000000000000000000000000000000000000000000000000000000000000000000000000000000000000000000000000000000000000000000000000000000000000000000000000000000000000000000000000000000000000000000000000000000000000000000000000000000000000000000000000000000000000000000000000000000000000000000000000000000000000000000000000000000000000000000000000000c0"
                    }
                ],
                "rlp": "0xf902a4f9023ba0edee23e3dd4b2bd773a728829cdd9419597f491ac9e27162e38cab78445756c1a01dcc4de8dec75d7aab85b567b6ccd41ad312451b948a7413f0a142fd40d49347942adc25665018aa1fe0e6bc666dac8fc2697ff9baa0c5c5bf68662f71f2fa34b5c04bc30051cf736e92807d921d5940ac958ffc611ea08b03702c31c2aa4bbbb3177d26ebbcc8a8b20ce9d47d0f60bdb91a063f0e9625a0e8622feb11b0455dfdb4517ba441d8065e60b684e60303a54ba76565d9bf532db901000000000000000000000000000000000000000000000000000000000000000000000000000000000000000000000000000000000000000000000000000000000000000000000000000000000000000000000000000000000000000000000000000000000000000000000000000000000000000000000000000000000000000000000000000000000000000000000000000000000000000000000000000000000000000000000000000000000000000000000000000000000000000000000000000000000000000000000000000000000000000000000000000000000000000000000000000000000000000000000000000000000000000000000000000000000080018401c9c3808301c95d8203e800a000000000000000000000000000000000000000000000000000000000000200008800000000000000000aa056e81f171bcc55a6ff8345e692c0f86e5b48e01b996cadc001622fb5e363b4218080a00000000000000000000000000000000000000000000000000000000000000000f862f860800a83029fe09462b278a07428f1ff97ee7c884b711f6df3340707028026a056f5a2caf37bba286ce2625ca383949e6bf812f6f9ad73de5d34090b4796d45da06af8337ec4d8b883fbf172f7e9126e838c471b0743228809f03bf747c5c74a44c0c0",
                "blocknumber": "1"
            }
        ],
        "sealEngine": "NoProof",
        "_info": {
            "hash": "0x7c872dc2a0ebef59ea952ad6fc59c05a3fadea12506fd1d53efe1c37d0ed06be",
            "fixture-format": "blockchain_test",
            "comment": "`execution-specs` generated test",
            "filling-transition-tool": "2.19.0",
            "description": "Test_static_callcodecallcodecall_110_oogm_after2.",
            "url": "https://github.com/ethereum/execution-specs/blob/tests-sn\u00f8bal-devnet-4@v1.0.0/tests/ported_static/stStaticCall/test_static_callcodecallcodecall_110_oogm_after2.py#L26",
            "metadata": {
                "opcode_count": {}
            }
        }
    }
}