{
    "tests/static/state_tests/stCallDelegateCodesHomestead/callcodecallcodecall_110_OOGMAfterFiller.json::callcodecallcodecall_110_OOGMAfter[fork_Cancun-blockchain_test_from_state_test-]": {
        "network": "Cancun",
        "genesisBlockHeader": {
            "parentHash": "0x0000000000000000000000000000000000000000000000000000000000000000",
            "uncleHash": "0x1dcc4de8dec75d7aab85b567b6ccd41ad312451b948a7413f0a142fd40d49347",
            "coinbase": "0x0000000000000000000000000000000000000000",
            "stateRoot": "0xc117c802fed76b49d4fd6d509bb27f631ea7696ce1187c30edfbc079c0458b28",
            "transactionsTrie": "0x56e81f171bcc55a6ff8345e692c0f86e5b48e01b996cadc001622fb5e363b421",
            "receiptTrie": "0x56e81f171bcc55a6ff8345e692c0f86e5b48e01b996cadc001622fb5e363b421",
            "bloom": "0x00000000000000000000000000000000000000000000000000000000000000000000000000000000000000000000000000000000000000000000000000000000000000000000000000000000000000000000000000000000000000000000000000000000000000000000000000000000000000000000000000000000000000000000000000000000000000000000000000000000000000000000000000000000000000000000000000000000000000000000000000000000000000000000000000000000000000000000000000000000000000000000000000000000000000000000000000000000000000000000000000000000000000000000000000000000",
            "difficulty": "0x00",
            "number": "0x00",
            "gasLimit": "0x01c9c380",
            "gasUsed": "0x00",
            "timestamp": "0x00",
            "extraData": "0x00",
            "mixHash": "0x0000000000000000000000000000000000000000000000000000000000000000",
            "nonce": "0x0000000000000000",
            "baseFeePerGas": "0x0b",
            "withdrawalsRoot": "0x56e81f171bcc55a6ff8345e692c0f86e5b48e01b996cadc001622fb5e363b421",
            "blobGasUsed": "0x00",
            "excessBlobGas": "0x00",
            "parentBeaconBlockRoot": "0x0000000000000000000000000000000000000000000000000000000000000000",
            "hash": "0x58ab075a95cdbec3b3fcfd76b1e3f28f29cc064a0c8384236955237110eb17f3"
        },
        "pre": {
            "0x000f3df6d732807ef1319fb7b8bb8522d0beac02": {
                "nonce": "0x01",
                "balance": "0x00",
                "code": "0x3373fffffffffffffffffffffffffffffffffffffffe14604d57602036146024575f5ffd5b5f35801560495762001fff810690815414603c575f5ffd5b62001fff01545f5260205ff35b5f5ffd5b62001fff42064281555f359062001fff015500",
                "storage": {}
            },
            "0xebaf50debf10e08302fe4280c32df010463ca297": {
                "nonce": "0x00",
                "balance": "0x0de0b6b3a7640000",
                "code": "0x",
                "storage": {}
            },
            "0xb126c622075b1189fb6c45e851641cfaddf65b36": {
                "nonce": "0x00",
                "balance": "0x00",
                "code": "0x600160035500",
                "storage": {}
            },
            "0x83b7d129b58ab5315b795f9a8d34294ec60c9d63": {
                "nonce": "0x00",
                "balance": "0x00",
                "code": "0x6040600060406000600073b126c622075b1189fb6c45e851641cfaddf65b3662061a80f160025500",
                "storage": {}
            },
            "0x1adae71ad3aeec97978e38be04da2a1773dfc506": {
                "nonce": "0x00",
                "balance": "0x00",
                "code": "0x60406000604060007383b7d129b58ab5315b795f9a8d34294ec60c9d63620927c0f4600155622fffff60002000",
                "storage": {}
            },
            "0x74ecd5f6537b2b48ebbff8d66aee8eb8f98430a3": {
                "nonce": "0x00",
                "balance": "0x0de0b6b3a7640000",
                "code": "0x6040600060406000731adae71ad3aeec97978e38be04da2a1773dfc506620c3500f46000556001600b5500",
                "storage": {}
            }
        },
        "postState": {
            "0x000f3df6d732807ef1319fb7b8bb8522d0beac02": {
                "nonce": "0x01",
                "balance": "0x00",
                "code": "0x3373fffffffffffffffffffffffffffffffffffffffe14604d57602036146024575f5ffd5b5f35801560495762001fff810690815414603c575f5ffd5b62001fff01545f5260205ff35b5f5ffd5b62001fff42064281555f359062001fff015500",
                "storage": {
                    "0x03e8": "0x03e8"
                }
            },
            "0xebaf50debf10e08302fe4280c32df010463ca297": {
                "nonce": "0x01",
                "balance": "0x0de0b6b3a6e29d9e",
                "code": "0x",
                "storage": {}
            },
            "0xb126c622075b1189fb6c45e851641cfaddf65b36": {
                "nonce": "0x00",
                "balance": "0x00",
                "code": "0x600160035500",
                "storage": {}
            },
            "0x83b7d129b58ab5315b795f9a8d34294ec60c9d63": {
                "nonce": "0x00",
                "balance": "0x00",
                "code": "0x6040600060406000600073b126c622075b1189fb6c45e851641cfaddf65b3662061a80f160025500",
                "storage": {}
            },
            "0x1adae71ad3aeec97978e38be04da2a1773dfc506": {
                "nonce": "0x00",
                "balance": "0x00",
                "code": "0x60406000604060007383b7d129b58ab5315b795f9a8d34294ec60c9d63620927c0f4600155622fffff60002000",
                "storage": {}
            },
            "0x74ecd5f6537b2b48ebbff8d66aee8eb8f98430a3": {
                "nonce": "0x00",
                "balance": "0x0de0b6b3a7640000",
                "code": "0x6040600060406000731adae71ad3aeec97978e38be04da2a1773dfc506620c3500f46000556001600b5500",
                "storage": {
                    "0x0b": "0x01"
                }
            }
        },
        "lastblockhash": "0x66e94e9380b3d7fc4b5635f34c88e885affc65306b901c154f1206ab447b317b",
        "config": {
            "network": "Cancun",
            "chainid": "0x01",
            "blobSchedule": {
                "Cancun": {
                    "target": "0x03",
                    "max": "0x06",
                    "baseFeeUpdateFraction": "0x32f0ed"
                }
            }
        },
        "genesisRLP": "0xf9023cf90236a00000000000000000000000000000000000000000000000000000000000000000a01dcc4de8dec75d7aab85b567b6ccd41ad312451b948a7413f0a142fd40d49347940000000000000000000000000000000000000000a0c117c802fed76b49d4fd6d509bb27f631ea7696ce1187c30edfbc079c0458b28a056e81f171bcc55a6ff8345e692c0f86e5b48e01b996cadc001622fb5e363b421a056e81f171bcc55a6ff8345e692c0f86e5b48e01b996cadc001622fb5e363b421b901000000000000000000000000000000000000000000000000000000000000000000000000000000000000000000000000000000000000000000000000000000000000000000000000000000000000000000000000000000000000000000000000000000000000000000000000000000000000000000000000000000000000000000000000000000000000000000000000000000000000000000000000000000000000000000000000000000000000000000000000000000000000000000000000000000000000000000000000000000000000000000000000000000000000000000000000000000000000000000000000000000000000000000000000000000000080808401c9c380808000a000000000000000000000000000000000000000000000000000000000000000008800000000000000000ba056e81f171bcc55a6ff8345e692c0f86e5b48e01b996cadc001622fb5e363b4218080a00000000000000000000000000000000000000000000000000000000000000000c0c0c0",
        "blocks": [
            {
                "blockHeader": {
                    "parentHash": "0x58ab075a95cdbec3b3fcfd76b1e3f28f29cc064a0c8384236955237110eb17f3",
                    "uncleHash": "0x1dcc4de8dec75d7aab85b567b6ccd41ad312451b948a7413f0a142fd40d49347",
                    "coinbase": "0x2adc25665018aa1fe0e6bc666dac8fc2697ff9ba",
                    "stateRoot": "0x8639da17f2fe861ecc8dc142927f5f66739dc618048cc606aae9543c206f24b9",
                    "transactionsTrie": "0x4268831efe5f2a2cc6d9b0fff07baa08b9b0572c05926eb9cb0a90d7d5d0a12b",
                    "receiptTrie": "0x44e47df55dc34ae3ccddfa7de96f696130e4084e1b3c1eb4f395cc855ae4c2a7",
                    "bloom": "0x00000000000000000000000000000000000000000000000000000000000000000000000000000000000000000000000000000000000000000000000000000000000000000000000000000000000000000000000000000000000000000000000000000000000000000000000000000000000000000000000000000000000000000000000000000000000000000000000000000000000000000000000000000000000000000000000000000000000000000000000000000000000000000000000000000000000000000000000000000000000000000000000000000000000000000000000000000000000000000000000000000000000000000000000000000000",
                    "difficulty": "0x00",
                    "number": "0x01",
                    "gasLimit": "0x01c9c380",
                    "gasUsed": "0x0cf03d",
                    "timestamp": "0x03e8",
                    "extraData": "0x00",
                    "mixHash": "0x0000000000000000000000000000000000000000000000000000000000020000",
                    "nonce": "0x0000000000000000",
                    "baseFeePerGas": "0x0a",
                    "withdrawalsRoot": "0x56e81f171bcc55a6ff8345e692c0f86e5b48e01b996cadc001622fb5e363b421",
                    "blobGasUsed": "0x00",
                    "excessBlobGas": "0x00",
                    "parentBeaconBlockRoot": "0x0000000000000000000000000000000000000000000000000000000000000000",
                    "hash": "0x66e94e9380b3d7fc4b5635f34c88e885affc65306b901c154f1206ab447b317b"
                },
                "transactions": [
                    {
                        "type": "0x00",
                        "chainId": "0x01",
                        "nonce": "0x00",
                        "gasPrice": "0x0a",
                        "gasLimit": "0x0f4240",
                        "to": "0x74ecd5f6537b2b48ebbff8d66aee8eb8f98430a3",
                        "value": "0x00",
                        "data": "0x",
                        "v": "0x26",
                        "r": "0x1cb35f342cdb891aa818a3df36fd03a439853e86838206dff78849b8fbaa6188",
                        "s": "0x5df0e7b283b6cc0ee441d8b71e50561ea89479dad0486032bb546f1ef24c529e",
                        "sender": "0xebaf50debf10e08302fe4280c32df010463ca297"
                    }
                ],
                "uncleHeaders": [],
                "withdrawals": [],
                "receipts": [
                    {
                        "transactionHash": "0x604934c13f9a27e24a03b0957174b1a8e97c1793f5e434db5e181e7a39c213cb",
                        "type": "0x00",
                        "cumulativeGasUsed": "0x0cf03d",
                        "bloom": "0x00000000000000000000000000000000000000000000000000000000000000000000000000000000000000000000000000000000000000000000000000000000000000000000000000000000000000000000000000000000000000000000000000000000000000000000000000000000000000000000000000000000000000000000000000000000000000000000000000000000000000000000000000000000000000000000000000000000000000000000000000000000000000000000000000000000000000000000000000000000000000000000000000000000000000000000000000000000000000000000000000000000000000000000000000000000",
                        "logs": [],
                        "status": true,
                        "rlp": "0xf9010901830cf03db9010000000000000000000000000000000000000000000000000000000000000000000000000000000000000000000000000000000000000000000000000000000000000000000000000000000000000000000000000000000000000000000000000000000000000000000000000000000000000000000000000000000000000000000000000000000000000000000000000000000000000000000000000000000000000000000000000000000000000000000000000000000000000000000000000000000000000000000000000000000000000000000000000000000000000000000000000000000000000000000000000000000000000000000000000000000000c0"
                    }
                ],
                "rlp": "0xf902a4f9023ba058ab075a95cdbec3b3fcfd76b1e3f28f29cc064a0c8384236955237110eb17f3a01dcc4de8dec75d7aab85b567b6ccd41ad312451b948a7413f0a142fd40d49347942adc25665018aa1fe0e6bc666dac8fc2697ff9baa08639da17f2fe861ecc8dc142927f5f66739dc618048cc606aae9543c206f24b9a04268831efe5f2a2cc6d9b0fff07baa08b9b0572c05926eb9cb0a90d7d5d0a12ba044e47df55dc34ae3ccddfa7de96f696130e4084e1b3c1eb4f395cc855ae4c2a7b901000000000000000000000000000000000000000000000000000000000000000000000000000000000000000000000000000000000000000000000000000000000000000000000000000000000000000000000000000000000000000000000000000000000000000000000000000000000000000000000000000000000000000000000000000000000000000000000000000000000000000000000000000000000000000000000000000000000000000000000000000000000000000000000000000000000000000000000000000000000000000000000000000000000000000000000000000000000000000000000000000000000000000000000000000000000080018401c9c380830cf03d8203e800a000000000000000000000000000000000000000000000000000000000000200008800000000000000000aa056e81f171bcc55a6ff8345e692c0f86e5b48e01b996cadc001622fb5e363b4218080a00000000000000000000000000000000000000000000000000000000000000000f862f860800a830f42409474ecd5f6537b2b48ebbff8d66aee8eb8f98430a3808026a01cb35f342cdb891aa818a3df36fd03a439853e86838206dff78849b8fbaa6188a05df0e7b283b6cc0ee441d8b71e50561ea89479dad0486032bb546f1ef24c529ec0c0",
                "blocknumber": "1"
            }
        ],
        "sealEngine": "NoProof",
        "_info": {
            "hash": "0x74da0c11f62486eebf1a5f44d680118150257e4b7969fbc19e1139986e6c9ac7",
            "fixture-format": "blockchain_test",
            "comment": "`execution-specs` generated test",
            "filling-transition-tool": "2.19.0",
            "description": "No description available - add a docstring to the python test class or function.",
            "url": "",
            "opcode_count": {}
        }
    }
}