{
    "tests/static/state_tests/stMemExpandingEIP150Calls/CallAskMoreGasOnDepth2ThenTransactionHasWithMemExpandingCallsFiller.json::CallAskMoreGasOnDepth2ThenTransactionHasWithMemExpandingCalls[fork_Cancun-blockchain_test_from_state_test-]": {
        "network": "Cancun",
        "genesisBlockHeader": {
            "parentHash": "0x0000000000000000000000000000000000000000000000000000000000000000",
            "uncleHash": "0x1dcc4de8dec75d7aab85b567b6ccd41ad312451b948a7413f0a142fd40d49347",
            "coinbase": "0x0000000000000000000000000000000000000000",
            "stateRoot": "0xdea19c4984e14430bb7abd15ce74503848a35ea9b41d05011cf551c88f0e7367",
            "transactionsTrie": "0x56e81f171bcc55a6ff8345e692c0f86e5b48e01b996cadc001622fb5e363b421",
            "receiptTrie": "0x56e81f171bcc55a6ff8345e692c0f86e5b48e01b996cadc001622fb5e363b421",
            "bloom": "0x00000000000000000000000000000000000000000000000000000000000000000000000000000000000000000000000000000000000000000000000000000000000000000000000000000000000000000000000000000000000000000000000000000000000000000000000000000000000000000000000000000000000000000000000000000000000000000000000000000000000000000000000000000000000000000000000000000000000000000000000000000000000000000000000000000000000000000000000000000000000000000000000000000000000000000000000000000000000000000000000000000000000000000000000000000000",
            "difficulty": "0x00",
            "number": "0x00",
            "gasLimit": "0x989680",
            "gasUsed": "0x00",
            "timestamp": "0x00",
            "extraData": "0x00",
            "mixHash": "0x0000000000000000000000000000000000000000000000000000000000000000",
            "nonce": "0x0000000000000000",
            "baseFeePerGas": "0x0b",
            "withdrawalsRoot": "0x56e81f171bcc55a6ff8345e692c0f86e5b48e01b996cadc001622fb5e363b421",
            "blobGasUsed": "0x00",
            "excessBlobGas": "0x00",
            "parentBeaconBlockRoot": "0x0000000000000000000000000000000000000000000000000000000000000000",
            "hash": "0x8282355cdc8dae067fdf9b09391ccbd24f67fe6c827ac43351910a08b6414d37"
        },
        "pre": {
            "0x000f3df6d732807ef1319fb7b8bb8522d0beac02": {
                "nonce": "0x01",
                "balance": "0x00",
                "code": "0x3373fffffffffffffffffffffffffffffffffffffffe14604d57602036146024575f5ffd5b5f35801560495762001fff810690815414603c575f5ffd5b62001fff01545f5260205ff35b5f5ffd5b62001fff42064281555f359062001fff015500",
                "storage": {}
            },
            "0x9edefdfb5a11a6b30dba1bff8726f94f9d9e1232": {
                "nonce": "0x00",
                "balance": "0x00",
                "code": "0x5a600855",
                "storage": {}
            },
            "0xa229d9efd075227ed1e0ea0427045b5ee24dc40a": {
                "nonce": "0x00",
                "balance": "0x00",
                "code": "0x5a60085560ff60ff60ff60ff6000739edefdfb5a11a6b30dba1bff8726f94f9d9e1232620927c0f1600955",
                "storage": {}
            },
            "0x97442da68a5f2b1be1728c655c0f395cffb999cf": {
                "nonce": "0x00",
                "balance": "0x00",
                "code": "0x5a60085560ff60ff60ff60ff600073a229d9efd075227ed1e0ea0427045b5ee24dc40a62030d40f1600955",
                "storage": {}
            },
            "0x823066fb511f07f5e49cbd8ca9874e4bc6ee9e65": {
                "nonce": "0x00",
                "balance": "0xe8d4a51000",
                "code": "0x",
                "storage": {}
            }
        },
        "postState": {
            "0x000f3df6d732807ef1319fb7b8bb8522d0beac02": {
                "nonce": "0x01",
                "balance": "0x00",
                "code": "0x3373fffffffffffffffffffffffffffffffffffffffe14604d57602036146024575f5ffd5b5f35801560495762001fff810690815414603c575f5ffd5b62001fff01545f5260205ff35b5f5ffd5b62001fff42064281555f359062001fff015500",
                "storage": {
                    "0x03e8": "0x03e8"
                }
            },
            "0x9edefdfb5a11a6b30dba1bff8726f94f9d9e1232": {
                "nonce": "0x00",
                "balance": "0x00",
                "code": "0x5a600855",
                "storage": {
                    "0x08": "0x02a1c7"
                }
            },
            "0xa229d9efd075227ed1e0ea0427045b5ee24dc40a": {
                "nonce": "0x00",
                "balance": "0x00",
                "code": "0x5a60085560ff60ff60ff60ff6000739edefdfb5a11a6b30dba1bff8726f94f9d9e1232620927c0f1600955",
                "storage": {
                    "0x08": "0x030d3e",
                    "0x09": "0x01"
                }
            },
            "0x97442da68a5f2b1be1728c655c0f395cffb999cf": {
                "nonce": "0x00",
                "balance": "0x00",
                "code": "0x5a60085560ff60ff60ff60ff600073a229d9efd075227ed1e0ea0427045b5ee24dc40a62030d40f1600955",
                "storage": {
                    "0x08": "0x08d5b6",
                    "0x09": "0x01"
                }
            },
            "0x823066fb511f07f5e49cbd8ca9874e4bc6ee9e65": {
                "nonce": "0x01",
                "balance": "0xe8d4902df2",
                "code": "0x",
                "storage": {}
            }
        },
        "lastblockhash": "0x0226a8a5605814d663adda7c4698f9fcff17e092b75e6ba95bf3f0648c9dbe0d",
        "config": {
            "network": "Cancun",
            "chainid": "0x01",
            "blobSchedule": {
                "Cancun": {
                    "target": "0x03",
                    "max": "0x06",
                    "baseFeeUpdateFraction": "0x32f0ed"
                }
            }
        },
        "genesisRLP": "0xf9023bf90235a00000000000000000000000000000000000000000000000000000000000000000a01dcc4de8dec75d7aab85b567b6ccd41ad312451b948a7413f0a142fd40d49347940000000000000000000000000000000000000000a0dea19c4984e14430bb7abd15ce74503848a35ea9b41d05011cf551c88f0e7367a056e81f171bcc55a6ff8345e692c0f86e5b48e01b996cadc001622fb5e363b421a056e81f171bcc55a6ff8345e692c0f86e5b48e01b996cadc001622fb5e363b421b9010000000000000000000000000000000000000000000000000000000000000000000000000000000000000000000000000000000000000000000000000000000000000000000000000000000000000000000000000000000000000000000000000000000000000000000000000000000000000000000000000000000000000000000000000000000000000000000000000000000000000000000000000000000000000000000000000000000000000000000000000000000000000000000000000000000000000000000000000000000000000000000000000000000000000000000000000000000000000000000000000000000000000000000000000000000000808083989680808000a000000000000000000000000000000000000000000000000000000000000000008800000000000000000ba056e81f171bcc55a6ff8345e692c0f86e5b48e01b996cadc001622fb5e363b4218080a00000000000000000000000000000000000000000000000000000000000000000c0c0c0",
        "blocks": [
            {
                "blockHeader": {
                    "parentHash": "0x8282355cdc8dae067fdf9b09391ccbd24f67fe6c827ac43351910a08b6414d37",
                    "uncleHash": "0x1dcc4de8dec75d7aab85b567b6ccd41ad312451b948a7413f0a142fd40d49347",
                    "coinbase": "0x2adc25665018aa1fe0e6bc666dac8fc2697ff9ba",
                    "stateRoot": "0x4321f688638d2130a5b3d335324128d70e191d91d83a58b78664e18d6697531e",
                    "transactionsTrie": "0xc0db41bcefe9ca355ae7df03f8b27c5b6d8a772c271154b12c900fd09aba7ddc",
                    "receiptTrie": "0xcfe1bcd238722e8cf03cde9d408384a6f18a10228466cc8fc90c92971217f5c1",
                    "bloom": "0x00000000000000000000000000000000000000000000000000000000000000000000000000000000000000000000000000000000000000000000000000000000000000000000000000000000000000000000000000000000000000000000000000000000000000000000000000000000000000000000000000000000000000000000000000000000000000000000000000000000000000000000000000000000000000000000000000000000000000000000000000000000000000000000000000000000000000000000000000000000000000000000000000000000000000000000000000000000000000000000000000000000000000000000000000000000",
                    "difficulty": "0x00",
                    "number": "0x01",
                    "gasLimit": "0x989680",
                    "gasUsed": "0x02169b",
                    "timestamp": "0x03e8",
                    "extraData": "0x00",
                    "mixHash": "0x0000000000000000000000000000000000000000000000000000000000020000",
                    "nonce": "0x0000000000000000",
                    "baseFeePerGas": "0x0a",
                    "withdrawalsRoot": "0x56e81f171bcc55a6ff8345e692c0f86e5b48e01b996cadc001622fb5e363b421",
                    "blobGasUsed": "0x00",
                    "excessBlobGas": "0x00",
                    "parentBeaconBlockRoot": "0x0000000000000000000000000000000000000000000000000000000000000000",
                    "hash": "0x0226a8a5605814d663adda7c4698f9fcff17e092b75e6ba95bf3f0648c9dbe0d"
                },
                "transactions": [
                    {
                        "type": "0x00",
                        "chainId": "0x01",
                        "nonce": "0x00",
                        "gasPrice": "0x0a",
                        "gasLimit": "0x0927c0",
                        "to": "0x97442da68a5f2b1be1728c655c0f395cffb999cf",
                        "value": "0x00",
                        "data": "0x",
                        "v": "0x26",
                        "r": "0xc96a49a443c81b9231953f1e4fa1ac148928a01fad6c875b15e4c538786b52e4",
                        "s": "0x2935fd5a8b133e59e227e16422a3d08455e65d7401e2c7e7a98848caee2022e5",
                        "sender": "0x823066fb511f07f5e49cbd8ca9874e4bc6ee9e65"
                    }
                ],
                "uncleHeaders": [],
                "withdrawals": [],
                "receipts": [
                    {
                        "transactionHash": "0xec43951b89f36de8fb09be459af3561c939edebf09dfd894a1776cb5baba5c2a",
                        "type": "0x00",
                        "cumulativeGasUsed": "0x02169b",
                        "bloom": "0x00000000000000000000000000000000000000000000000000000000000000000000000000000000000000000000000000000000000000000000000000000000000000000000000000000000000000000000000000000000000000000000000000000000000000000000000000000000000000000000000000000000000000000000000000000000000000000000000000000000000000000000000000000000000000000000000000000000000000000000000000000000000000000000000000000000000000000000000000000000000000000000000000000000000000000000000000000000000000000000000000000000000000000000000000000000",
                        "logs": [],
                        "status": true,
                        "rlp": "0xf90109018302169bb9010000000000000000000000000000000000000000000000000000000000000000000000000000000000000000000000000000000000000000000000000000000000000000000000000000000000000000000000000000000000000000000000000000000000000000000000000000000000000000000000000000000000000000000000000000000000000000000000000000000000000000000000000000000000000000000000000000000000000000000000000000000000000000000000000000000000000000000000000000000000000000000000000000000000000000000000000000000000000000000000000000000000000000000000000000000000c0"
                    }
                ],
                "rlp": "0xf902a3f9023aa08282355cdc8dae067fdf9b09391ccbd24f67fe6c827ac43351910a08b6414d37a01dcc4de8dec75d7aab85b567b6ccd41ad312451b948a7413f0a142fd40d49347942adc25665018aa1fe0e6bc666dac8fc2697ff9baa04321f688638d2130a5b3d335324128d70e191d91d83a58b78664e18d6697531ea0c0db41bcefe9ca355ae7df03f8b27c5b6d8a772c271154b12c900fd09aba7ddca0cfe1bcd238722e8cf03cde9d408384a6f18a10228466cc8fc90c92971217f5c1b90100000000000000000000000000000000000000000000000000000000000000000000000000000000000000000000000000000000000000000000000000000000000000000000000000000000000000000000000000000000000000000000000000000000000000000000000000000000000000000000000000000000000000000000000000000000000000000000000000000000000000000000000000000000000000000000000000000000000000000000000000000000000000000000000000000000000000000000000000000000000000000000000000000000000000000000000000000000000000000000000000000000000000000000000000000000008001839896808302169b8203e800a000000000000000000000000000000000000000000000000000000000000200008800000000000000000aa056e81f171bcc55a6ff8345e692c0f86e5b48e01b996cadc001622fb5e363b4218080a00000000000000000000000000000000000000000000000000000000000000000f862f860800a830927c09497442da68a5f2b1be1728c655c0f395cffb999cf808026a0c96a49a443c81b9231953f1e4fa1ac148928a01fad6c875b15e4c538786b52e4a02935fd5a8b133e59e227e16422a3d08455e65d7401e2c7e7a98848caee2022e5c0c0",
                "blocknumber": "1"
            }
        ],
        "sealEngine": "NoProof",
        "_info": {
            "hash": "0x4510699dfe9ffc646787dc044d3c47881f798c7b34a936d42ffda594fcf76952",
            "fixture-format": "blockchain_test",
            "comment": "`execution-specs` generated test",
            "filling-transition-tool": "2.19.0",
            "description": "No description available - add a docstring to the python test class or function.",
            "url": "",
            "opcode_count": {},
            "reference-spec": "https://github.com/ethereum/EIPs/blob/master/",
            "reference-spec-version": ""
        }
    }
}