{
    "tests/ported_static/stEIP150Specific/test_new_gas_price_for_codes.py::test_new_gas_price_for_codes[fork_Cancun-blockchain_test_from_state_test]": {
        "network": "Cancun",
        "genesisBlockHeader": {
            "parentHash": "0x0000000000000000000000000000000000000000000000000000000000000000",
            "uncleHash": "0x1dcc4de8dec75d7aab85b567b6ccd41ad312451b948a7413f0a142fd40d49347",
            "coinbase": "0x0000000000000000000000000000000000000000",
            "stateRoot": "0xb7f1e947a6d735cc5dd1a7880ccd6cc2a8c4c4cff97116009c0b6a3b3b3a43a5",
            "transactionsTrie": "0x56e81f171bcc55a6ff8345e692c0f86e5b48e01b996cadc001622fb5e363b421",
            "receiptTrie": "0x56e81f171bcc55a6ff8345e692c0f86e5b48e01b996cadc001622fb5e363b421",
            "bloom": "0x00000000000000000000000000000000000000000000000000000000000000000000000000000000000000000000000000000000000000000000000000000000000000000000000000000000000000000000000000000000000000000000000000000000000000000000000000000000000000000000000000000000000000000000000000000000000000000000000000000000000000000000000000000000000000000000000000000000000000000000000000000000000000000000000000000000000000000000000000000000000000000000000000000000000000000000000000000000000000000000000000000000000000000000000000000000",
            "difficulty": "0x00",
            "number": "0x00",
            "gasLimit": "0x989680",
            "gasUsed": "0x00",
            "timestamp": "0x00",
            "extraData": "0x00",
            "mixHash": "0x0000000000000000000000000000000000000000000000000000000000000000",
            "nonce": "0x0000000000000000",
            "baseFeePerGas": "0x0b",
            "withdrawalsRoot": "0x56e81f171bcc55a6ff8345e692c0f86e5b48e01b996cadc001622fb5e363b421",
            "blobGasUsed": "0x00",
            "excessBlobGas": "0x00",
            "parentBeaconBlockRoot": "0x0000000000000000000000000000000000000000000000000000000000000000",
            "hash": "0x14cb9e3b401681a8441f207e07c859a8ce12a4f5ebbecdb4fd5c0e3a30f39d24"
        },
        "pre": {
            "0x000f3df6d732807ef1319fb7b8bb8522d0beac02": {
                "nonce": "0x01",
                "balance": "0x00",
                "code": "0x3373fffffffffffffffffffffffffffffffffffffffe14604d57602036146024575f5ffd5b5f35801560495762001fff810690815414603c575f5ffd5b62001fff01545f5260205ff35b5f5ffd5b62001fff42064281555f359062001fff015500",
                "storage": {}
            },
            "0xfaa10b404ab607779993c016cd5da73ae1f29d7e": {
                "nonce": "0x00",
                "balance": "0xe8d4a51000",
                "code": "0x",
                "storage": {}
            },
            "0xc572a70afaab9d01d0a2afb855bfbafb47c8211b": {
                "nonce": "0x00",
                "balance": "0x6f",
                "code": "0x1122334455667788991011121314151617181920212223242526272829303132",
                "storage": {}
            },
            "0xad9d325b811cb0701839c07c6f139f3799476798": {
                "nonce": "0x00",
                "balance": "0x00",
                "code": "0x601160645500",
                "storage": {}
            },
            "0xfd9afc8315a88141164e2a753157ea3e0f72c707": {
                "nonce": "0x00",
                "balance": "0x00",
                "code": "0x5a6103e75273c572a70afaab9d01d0a2afb855bfbafb47c8211b3b60015560146000600073c572a70afaab9d01d0a2afb855bfbafb47c8211b3c6000516002556000546004556000600060006000600173ad9d325b811cb0701839c07c6f139f3799476798617530f16005556000600060006000600173ad9d325b811cb0701839c07c6f139f3799476798617530f2600655600060006000600073ad9d325b811cb0701839c07c6f139f3799476798617530f460075560006000600060006000731000000000000000000000000000000000000013617530f160085573faa10b404ab607779993c016cd5da73ae1f29d7e316003555a6103e75103600a5500",
                "storage": {
                    "0x00": "0x12"
                }
            }
        },
        "postState": {
            "0x000f3df6d732807ef1319fb7b8bb8522d0beac02": {
                "nonce": "0x01",
                "balance": "0x00",
                "code": "0x3373fffffffffffffffffffffffffffffffffffffffe14604d57602036146024575f5ffd5b5f35801560495762001fff810690815414603c575f5ffd5b62001fff01545f5260205ff35b5f5ffd5b62001fff42064281555f359062001fff015500",
                "storage": {
                    "0x03e8": "0x03e8"
                }
            },
            "0xfaa10b404ab607779993c016cd5da73ae1f29d7e": {
                "nonce": "0x01",
                "balance": "0xe8d4828d78",
                "code": "0x",
                "storage": {}
            },
            "0xc572a70afaab9d01d0a2afb855bfbafb47c8211b": {
                "nonce": "0x00",
                "balance": "0x6f",
                "code": "0x1122334455667788991011121314151617181920212223242526272829303132",
                "storage": {}
            },
            "0xad9d325b811cb0701839c07c6f139f3799476798": {
                "nonce": "0x00",
                "balance": "0x00",
                "code": "0x601160645500",
                "storage": {}
            },
            "0xfd9afc8315a88141164e2a753157ea3e0f72c707": {
                "nonce": "0x00",
                "balance": "0x00",
                "code": "0x5a6103e75273c572a70afaab9d01d0a2afb855bfbafb47c8211b3b60015560146000600073c572a70afaab9d01d0a2afb855bfbafb47c8211b3c6000516002556000546004556000600060006000600173ad9d325b811cb0701839c07c6f139f3799476798617530f16005556000600060006000600173ad9d325b811cb0701839c07c6f139f3799476798617530f2600655600060006000600073ad9d325b811cb0701839c07c6f139f3799476798617530f460075560006000600060006000731000000000000000000000000000000000000013617530f160085573faa10b404ab607779993c016cd5da73ae1f29d7e316003555a6103e75103600a5500",
                "storage": {
                    "0x00": "0x12",
                    "0x01": "0x20",
                    "0x02": "0x1122334455667788991011121314151617181920000000000000000000000000",
                    "0x04": "0x12",
                    "0x64": "0x11",
                    "0x07": "0x01",
                    "0x08": "0x01",
                    "0x03": "0xe8d4498280",
                    "0x0a": "0x02cb0a"
                }
            }
        },
        "lastblockhash": "0x2fa1ee85e9d155e5d9d432e228e4a090de978b973b8935cc09fbb03be863249c",
        "config": {
            "network": "Cancun",
            "chainid": "0x01",
            "blobSchedule": {
                "Cancun": {
                    "target": "0x03",
                    "max": "0x06",
                    "baseFeeUpdateFraction": "0x32f0ed"
                }
            }
        },
        "genesisRLP": "0xf9023bf90235a00000000000000000000000000000000000000000000000000000000000000000a01dcc4de8dec75d7aab85b567b6ccd41ad312451b948a7413f0a142fd40d49347940000000000000000000000000000000000000000a0b7f1e947a6d735cc5dd1a7880ccd6cc2a8c4c4cff97116009c0b6a3b3b3a43a5a056e81f171bcc55a6ff8345e692c0f86e5b48e01b996cadc001622fb5e363b421a056e81f171bcc55a6ff8345e692c0f86e5b48e01b996cadc001622fb5e363b421b9010000000000000000000000000000000000000000000000000000000000000000000000000000000000000000000000000000000000000000000000000000000000000000000000000000000000000000000000000000000000000000000000000000000000000000000000000000000000000000000000000000000000000000000000000000000000000000000000000000000000000000000000000000000000000000000000000000000000000000000000000000000000000000000000000000000000000000000000000000000000000000000000000000000000000000000000000000000000000000000000000000000000000000000000000000000000808083989680808000a000000000000000000000000000000000000000000000000000000000000000008800000000000000000ba056e81f171bcc55a6ff8345e692c0f86e5b48e01b996cadc001622fb5e363b4218080a00000000000000000000000000000000000000000000000000000000000000000c0c0c0",
        "blocks": [
            {
                "blockHeader": {
                    "parentHash": "0x14cb9e3b401681a8441f207e07c859a8ce12a4f5ebbecdb4fd5c0e3a30f39d24",
                    "uncleHash": "0x1dcc4de8dec75d7aab85b567b6ccd41ad312451b948a7413f0a142fd40d49347",
                    "coinbase": "0x2adc25665018aa1fe0e6bc666dac8fc2697ff9ba",
                    "stateRoot": "0xedfe9cda37fbe61956860bcef6bacce483a89418ee25d79afa03d5a54a75525e",
                    "transactionsTrie": "0x5fad6343b85412a7b8b64aa454ea9a35d5fc1d1b1576b5c66c05865ad9d7961a",
                    "receiptTrie": "0x82ed29e5f2cd552f091b43aed8881b53ef3c0cb8a7652b2d9af439a964eefd88",
                    "bloom": "0x00000000000000000000000000000000000000000000000000000000000000000000000000000000000000000000000000000000000000000000000000000000000000000000000000000000000000000000000000000000000000000000000000000000000000000000000000000000000000000000000000000000000000000000000000000000000000000000000000000000000000000000000000000000000000000000000000000000000000000000000000000000000000000000000000000000000000000000000000000000000000000000000000000000000000000000000000000000000000000000000000000000000000000000000000000000",
                    "difficulty": "0x00",
                    "number": "0x01",
                    "gasLimit": "0x989680",
                    "gasUsed": "0x037374",
                    "timestamp": "0x03e8",
                    "extraData": "0x00",
                    "mixHash": "0x0000000000000000000000000000000000000000000000000000000000020000",
                    "nonce": "0x0000000000000000",
                    "baseFeePerGas": "0x0a",
                    "withdrawalsRoot": "0x56e81f171bcc55a6ff8345e692c0f86e5b48e01b996cadc001622fb5e363b421",
                    "blobGasUsed": "0x00",
                    "excessBlobGas": "0x00",
                    "parentBeaconBlockRoot": "0x0000000000000000000000000000000000000000000000000000000000000000",
                    "hash": "0x2fa1ee85e9d155e5d9d432e228e4a090de978b973b8935cc09fbb03be863249c"
                },
                "transactions": [
                    {
                        "type": "0x00",
                        "chainId": "0x01",
                        "nonce": "0x00",
                        "gasPrice": "0x0a",
                        "gasLimit": "0x0927c0",
                        "to": "0xfd9afc8315a88141164e2a753157ea3e0f72c707",
                        "value": "0x00",
                        "data": "0x",
                        "v": "0x25",
                        "r": "0x04dfc0b6ce2bdb00d65a2c1162142ebca0951312025d03385758304d0a097770",
                        "s": "0x032cad2a5ec3c0ec619e327d7275c85b4bb3250d4183690c0858db9f72f470e2",
                        "sender": "0xfaa10b404ab607779993c016cd5da73ae1f29d7e"
                    }
                ],
                "uncleHeaders": [],
                "withdrawals": [],
                "receipts": [
                    {
                        "transactionHash": "0x43da5d91909abd1d0d7afee105fceebac826055135d1dabd5ad8df1b4e730208",
                        "type": "0x00",
                        "cumulativeGasUsed": "0x037374",
                        "bloom": "0x00000000000000000000000000000000000000000000000000000000000000000000000000000000000000000000000000000000000000000000000000000000000000000000000000000000000000000000000000000000000000000000000000000000000000000000000000000000000000000000000000000000000000000000000000000000000000000000000000000000000000000000000000000000000000000000000000000000000000000000000000000000000000000000000000000000000000000000000000000000000000000000000000000000000000000000000000000000000000000000000000000000000000000000000000000000",
                        "logs": [],
                        "status": true,
                        "rlp": "0xf901090183037374b9010000000000000000000000000000000000000000000000000000000000000000000000000000000000000000000000000000000000000000000000000000000000000000000000000000000000000000000000000000000000000000000000000000000000000000000000000000000000000000000000000000000000000000000000000000000000000000000000000000000000000000000000000000000000000000000000000000000000000000000000000000000000000000000000000000000000000000000000000000000000000000000000000000000000000000000000000000000000000000000000000000000000000000000000000000000000c0"
                    }
                ],
                "rlp": "0xf902a3f9023aa014cb9e3b401681a8441f207e07c859a8ce12a4f5ebbecdb4fd5c0e3a30f39d24a01dcc4de8dec75d7aab85b567b6ccd41ad312451b948a7413f0a142fd40d49347942adc25665018aa1fe0e6bc666dac8fc2697ff9baa0edfe9cda37fbe61956860bcef6bacce483a89418ee25d79afa03d5a54a75525ea05fad6343b85412a7b8b64aa454ea9a35d5fc1d1b1576b5c66c05865ad9d7961aa082ed29e5f2cd552f091b43aed8881b53ef3c0cb8a7652b2d9af439a964eefd88b9010000000000000000000000000000000000000000000000000000000000000000000000000000000000000000000000000000000000000000000000000000000000000000000000000000000000000000000000000000000000000000000000000000000000000000000000000000000000000000000000000000000000000000000000000000000000000000000000000000000000000000000000000000000000000000000000000000000000000000000000000000000000000000000000000000000000000000000000000000000000000000000000000000000000000000000000000000000000000000000000000000000000000000000000000000000000800183989680830373748203e800a000000000000000000000000000000000000000000000000000000000000200008800000000000000000aa056e81f171bcc55a6ff8345e692c0f86e5b48e01b996cadc001622fb5e363b4218080a00000000000000000000000000000000000000000000000000000000000000000f862f860800a830927c094fd9afc8315a88141164e2a753157ea3e0f72c707808025a004dfc0b6ce2bdb00d65a2c1162142ebca0951312025d03385758304d0a097770a0032cad2a5ec3c0ec619e327d7275c85b4bb3250d4183690c0858db9f72f470e2c0c0",
                "blocknumber": "1"
            }
        ],
        "sealEngine": "NoProof",
        "_info": {
            "hash": "0x985702277feee811eede58c12ccd74d1878a4e480c857f28eb2269ee9b68448d",
            "fixture-format": "blockchain_test",
            "comment": "`execution-specs` generated test",
            "filling-transition-tool": "2.19.0",
            "description": "Test_new_gas_price_for_codes.",
            "url": "https://github.com/ethereum/execution-specs/blob/tests-bal@v5.7.0/tests/ported_static/stEIP150Specific/test_new_gas_price_for_codes.py#L25",
            "metadata": {
                "opcode_count": {}
            },
            "reference-spec": "https://github.com/ethereum/EIPs/blob/master/N/A",
            "reference-spec-version": "N/A"
        }
    }
}