{
    "tests/frontier/identity_precompile/test_identity_returndatasize.py::test_identity_precompile_returndata[fork_Berlin-blockchain_test_from_state_test-output_size_greater_than_input]": {
        "network": "Berlin",
        "genesisBlockHeader": {
            "parentHash": "0x0000000000000000000000000000000000000000000000000000000000000000",
            "uncleHash": "0x1dcc4de8dec75d7aab85b567b6ccd41ad312451b948a7413f0a142fd40d49347",
            "coinbase": "0x0000000000000000000000000000000000000000",
            "stateRoot": "0x3f632307b4ba6159f73bf19a4cbb2298f55a511565287a75ee67a4d51cbc4fee",
            "transactionsTrie": "0x56e81f171bcc55a6ff8345e692c0f86e5b48e01b996cadc001622fb5e363b421",
            "receiptTrie": "0x56e81f171bcc55a6ff8345e692c0f86e5b48e01b996cadc001622fb5e363b421",
            "bloom": "0x00000000000000000000000000000000000000000000000000000000000000000000000000000000000000000000000000000000000000000000000000000000000000000000000000000000000000000000000000000000000000000000000000000000000000000000000000000000000000000000000000000000000000000000000000000000000000000000000000000000000000000000000000000000000000000000000000000000000000000000000000000000000000000000000000000000000000000000000000000000000000000000000000000000000000000000000000000000000000000000000000000000000000000000000000000000",
            "difficulty": "0x020000",
            "number": "0x00",
            "gasLimit": "0x07270e00",
            "gasUsed": "0x00",
            "timestamp": "0x00",
            "extraData": "0x00",
            "mixHash": "0x0000000000000000000000000000000000000000000000000000000000000000",
            "nonce": "0x0000000000000000",
            "hash": "0x03067d5ad8fc8fbce340744009704f26446c584ee9cdc7a0bb091dfebe1a9735"
        },
        "pre": {
            "0xfdf36672be841e159c3a72855c3864aeb32ad6c7": {
                "nonce": "0x01",
                "balance": "0x00",
                "code": "0x60006000525a7f112233445566778899aabbccddeeff00112233445566778899aabbccddeeff006000526020601060106000600060045af1503d60005500",
                "storage": {}
            },
            "0x1ad9bc24818784172ff393bb6f89f094d4d2ca29": {
                "nonce": "0x00",
                "balance": "0x3635c9adc5dea00000",
                "code": "0x",
                "storage": {}
            }
        },
        "postState": {
            "0xfdf36672be841e159c3a72855c3864aeb32ad6c7": {
                "nonce": "0x01",
                "balance": "0x00",
                "code": "0x60006000525a7f112233445566778899aabbccddeeff00112233445566778899aabbccddeeff006000526020601060106000600060045af1503d60005500",
                "storage": {
                    "0x00": "0x10"
                }
            },
            "0x1ad9bc24818784172ff393bb6f89f094d4d2ca29": {
                "nonce": "0x01",
                "balance": "0x3635c9adc5de9965ba",
                "code": "0x",
                "storage": {}
            },
            "0x2adc25665018aa1fe0e6bc666dac8fc2697ff9ba": {
                "nonce": "0x00",
                "balance": "0x1bc16d674ece9a46",
                "code": "0x",
                "storage": {}
            }
        },
        "lastblockhash": "0xcb96409d3ee183eaf89771a99ba44659f73f045f6ce2d9b69ef8e66c80851dca",
        "config": {
            "network": "Berlin",
            "chainid": "0x01"
        },
        "genesisRLP": "0xf901f9f901f4a00000000000000000000000000000000000000000000000000000000000000000a01dcc4de8dec75d7aab85b567b6ccd41ad312451b948a7413f0a142fd40d49347940000000000000000000000000000000000000000a03f632307b4ba6159f73bf19a4cbb2298f55a511565287a75ee67a4d51cbc4feea056e81f171bcc55a6ff8345e692c0f86e5b48e01b996cadc001622fb5e363b421a056e81f171bcc55a6ff8345e692c0f86e5b48e01b996cadc001622fb5e363b421b901000000000000000000000000000000000000000000000000000000000000000000000000000000000000000000000000000000000000000000000000000000000000000000000000000000000000000000000000000000000000000000000000000000000000000000000000000000000000000000000000000000000000000000000000000000000000000000000000000000000000000000000000000000000000000000000000000000000000000000000000000000000000000000000000000000000000000000000000000000000000000000000000000000000000000000000000000000000000000000000000000000000000000000000000000000000083020000808407270e00808000a00000000000000000000000000000000000000000000000000000000000000000880000000000000000c0c0",
        "blocks": [
            {
                "blockHeader": {
                    "parentHash": "0x03067d5ad8fc8fbce340744009704f26446c584ee9cdc7a0bb091dfebe1a9735",
                    "uncleHash": "0x1dcc4de8dec75d7aab85b567b6ccd41ad312451b948a7413f0a142fd40d49347",
                    "coinbase": "0x2adc25665018aa1fe0e6bc666dac8fc2697ff9ba",
                    "stateRoot": "0xcdda4fa410484fd915d8c5469779241c298086ebc48a2426b1dcb9fecf763b66",
                    "transactionsTrie": "0x9da90842140f94e70a1ff7c5c50dcd1333ed7adeaf2d709a3cf9242a58ac68e8",
                    "receiptTrie": "0xc12c0a6204237acd6f0be57cdc5371e43c86b47b700661769ba71e9720cd08fd",
                    "bloom": "0x00000000000000000000000000000000000000000000000000000000000000000000000000000000000000000000000000000000000000000000000000000000000000000000000000000000000000000000000000000000000000000000000000000000000000000000000000000000000000000000000000000000000000000000000000000000000000000000000000000000000000000000000000000000000000000000000000000000000000000000000000000000000000000000000000000000000000000000000000000000000000000000000000000000000000000000000000000000000000000000000000000000000000000000000000000000",
                    "difficulty": "0x020000",
                    "number": "0x01",
                    "gasLimit": "0x07270e00",
                    "gasUsed": "0xa907",
                    "timestamp": "0x03e8",
                    "extraData": "0x00",
                    "mixHash": "0x0000000000000000000000000000000000000000000000000000000000000000",
                    "nonce": "0x0000000000000000",
                    "hash": "0xcb96409d3ee183eaf89771a99ba44659f73f045f6ce2d9b69ef8e66c80851dca"
                },
                "transactions": [
                    {
                        "type": "0x00",
                        "chainId": "0x01",
                        "nonce": "0x00",
                        "gasPrice": "0x0a",
                        "gasLimit": "0x030d40",
                        "to": "0xfdf36672be841e159c3a72855c3864aeb32ad6c7",
                        "value": "0x00",
                        "data": "0x",
                        "v": "0x26",
                        "r": "0xf4e87f1014abff1a187de9762a567de1542b2406916d370f5bd1cdf938ef7373",
                        "s": "0x2ba0e570e26ecc26c8d3d9f43da86e8855ec69c18121697332d2f4163714ab07",
                        "sender": "0x1ad9bc24818784172ff393bb6f89f094d4d2ca29"
                    }
                ],
                "uncleHeaders": [],
                "receipts": [
                    {
                        "transactionHash": "0xc64fdfa98815d23e4578e7254c1a5e1d76aba9fcbfc00840298de95f4836c8e2",
                        "type": "0x00",
                        "cumulativeGasUsed": "0xa907",
                        "bloom": "0x00000000000000000000000000000000000000000000000000000000000000000000000000000000000000000000000000000000000000000000000000000000000000000000000000000000000000000000000000000000000000000000000000000000000000000000000000000000000000000000000000000000000000000000000000000000000000000000000000000000000000000000000000000000000000000000000000000000000000000000000000000000000000000000000000000000000000000000000000000000000000000000000000000000000000000000000000000000000000000000000000000000000000000000000000000000",
                        "logs": [],
                        "status": true,
                        "rlp": "0xf901080182a907b9010000000000000000000000000000000000000000000000000000000000000000000000000000000000000000000000000000000000000000000000000000000000000000000000000000000000000000000000000000000000000000000000000000000000000000000000000000000000000000000000000000000000000000000000000000000000000000000000000000000000000000000000000000000000000000000000000000000000000000000000000000000000000000000000000000000000000000000000000000000000000000000000000000000000000000000000000000000000000000000000000000000000000000000000000000000000c0"
                    }
                ],
                "rlp": "0xf90260f901f8a003067d5ad8fc8fbce340744009704f26446c584ee9cdc7a0bb091dfebe1a9735a01dcc4de8dec75d7aab85b567b6ccd41ad312451b948a7413f0a142fd40d49347942adc25665018aa1fe0e6bc666dac8fc2697ff9baa0cdda4fa410484fd915d8c5469779241c298086ebc48a2426b1dcb9fecf763b66a09da90842140f94e70a1ff7c5c50dcd1333ed7adeaf2d709a3cf9242a58ac68e8a0c12c0a6204237acd6f0be57cdc5371e43c86b47b700661769ba71e9720cd08fdb901000000000000000000000000000000000000000000000000000000000000000000000000000000000000000000000000000000000000000000000000000000000000000000000000000000000000000000000000000000000000000000000000000000000000000000000000000000000000000000000000000000000000000000000000000000000000000000000000000000000000000000000000000000000000000000000000000000000000000000000000000000000000000000000000000000000000000000000000000000000000000000000000000000000000000000000000000000000000000000000000000000000000000000000000000000000083020000018407270e0082a9078203e800a00000000000000000000000000000000000000000000000000000000000000000880000000000000000f862f860800a83030d4094fdf36672be841e159c3a72855c3864aeb32ad6c7808026a0f4e87f1014abff1a187de9762a567de1542b2406916d370f5bd1cdf938ef7373a02ba0e570e26ecc26c8d3d9f43da86e8855ec69c18121697332d2f4163714ab07c0",
                "blocknumber": "1"
            }
        ],
        "sealEngine": "NoProof",
        "_info": {
            "hash": "0xc8ee3e46101c3967aabe55eeaba4f5570924761f5fce615aa661a16073f0016f",
            "fixture-format": "blockchain_test",
            "comment": "`execution-specs` generated test",
            "filling-transition-tool": "2.19.0",
            "description": "Test identity precompile RETURNDATASIZE matches the input size regardless\nof the output buffer size.",
            "url": "https://github.com/ethereum/execution-specs/blob/tests-snobal-devnet-5@v8037.0.0/tests/frontier/identity_precompile/test_identity_returndatasize.py#L17",
            "metadata": {
                "opcode_count": {}
            }
        }
    },
    "tests/frontier/identity_precompile/test_identity_returndatasize.py::test_identity_precompile_returndata[fork_Berlin-blockchain_test_from_state_test-output_size_less_than_input]": {
        "network": "Berlin",
        "genesisBlockHeader": {
            "parentHash": "0x0000000000000000000000000000000000000000000000000000000000000000",
            "uncleHash": "0x1dcc4de8dec75d7aab85b567b6ccd41ad312451b948a7413f0a142fd40d49347",
            "coinbase": "0x0000000000000000000000000000000000000000",
            "stateRoot": "0x9bf3ba70137f1f67161052bc9a1fe4f236af1c780b7065bbf411610b89518f92",
            "transactionsTrie": "0x56e81f171bcc55a6ff8345e692c0f86e5b48e01b996cadc001622fb5e363b421",
            "receiptTrie": "0x56e81f171bcc55a6ff8345e692c0f86e5b48e01b996cadc001622fb5e363b421",
            "bloom": "0x00000000000000000000000000000000000000000000000000000000000000000000000000000000000000000000000000000000000000000000000000000000000000000000000000000000000000000000000000000000000000000000000000000000000000000000000000000000000000000000000000000000000000000000000000000000000000000000000000000000000000000000000000000000000000000000000000000000000000000000000000000000000000000000000000000000000000000000000000000000000000000000000000000000000000000000000000000000000000000000000000000000000000000000000000000000",
            "difficulty": "0x020000",
            "number": "0x00",
            "gasLimit": "0x07270e00",
            "gasUsed": "0x00",
            "timestamp": "0x00",
            "extraData": "0x00",
            "mixHash": "0x0000000000000000000000000000000000000000000000000000000000000000",
            "nonce": "0x0000000000000000",
            "hash": "0x81d3533f2e9fe557c63ca4394c70882e5192e3940c6beb86b73cb3f1de4d02db"
        },
        "pre": {
            "0x194a695a5556595941cce5a732eb195e17babea0": {
                "nonce": "0x01",
                "balance": "0x00",
                "code": "0x60006000525a7f112233445566778899aabbccddeeff00112233445566778899aabbccddeeff006000526010601060206000600060045af1503d60005500",
                "storage": {}
            },
            "0x1ad9bc24818784172ff393bb6f89f094d4d2ca29": {
                "nonce": "0x00",
                "balance": "0x3635c9adc5dea00000",
                "code": "0x",
                "storage": {}
            }
        },
        "postState": {
            "0x194a695a5556595941cce5a732eb195e17babea0": {
                "nonce": "0x01",
                "balance": "0x00",
                "code": "0x60006000525a7f112233445566778899aabbccddeeff00112233445566778899aabbccddeeff006000526010601060206000600060045af1503d60005500",
                "storage": {
                    "0x00": "0x20"
                }
            },
            "0x1ad9bc24818784172ff393bb6f89f094d4d2ca29": {
                "nonce": "0x01",
                "balance": "0x3635c9adc5de9965d8",
                "code": "0x",
                "storage": {}
            },
            "0x2adc25665018aa1fe0e6bc666dac8fc2697ff9ba": {
                "nonce": "0x00",
                "balance": "0x1bc16d674ece9a28",
                "code": "0x",
                "storage": {}
            }
        },
        "lastblockhash": "0xd23735ca9d72503582c2154b44cbf6a8754d4e47ad8b5a64b9bb6d72681672e2",
        "config": {
            "network": "Berlin",
            "chainid": "0x01"
        },
        "genesisRLP": "0xf901f9f901f4a00000000000000000000000000000000000000000000000000000000000000000a01dcc4de8dec75d7aab85b567b6ccd41ad312451b948a7413f0a142fd40d49347940000000000000000000000000000000000000000a09bf3ba70137f1f67161052bc9a1fe4f236af1c780b7065bbf411610b89518f92a056e81f171bcc55a6ff8345e692c0f86e5b48e01b996cadc001622fb5e363b421a056e81f171bcc55a6ff8345e692c0f86e5b48e01b996cadc001622fb5e363b421b901000000000000000000000000000000000000000000000000000000000000000000000000000000000000000000000000000000000000000000000000000000000000000000000000000000000000000000000000000000000000000000000000000000000000000000000000000000000000000000000000000000000000000000000000000000000000000000000000000000000000000000000000000000000000000000000000000000000000000000000000000000000000000000000000000000000000000000000000000000000000000000000000000000000000000000000000000000000000000000000000000000000000000000000000000000000083020000808407270e00808000a00000000000000000000000000000000000000000000000000000000000000000880000000000000000c0c0",
        "blocks": [
            {
                "blockHeader": {
                    "parentHash": "0x81d3533f2e9fe557c63ca4394c70882e5192e3940c6beb86b73cb3f1de4d02db",
                    "uncleHash": "0x1dcc4de8dec75d7aab85b567b6ccd41ad312451b948a7413f0a142fd40d49347",
                    "coinbase": "0x2adc25665018aa1fe0e6bc666dac8fc2697ff9ba",
                    "stateRoot": "0x96cadbfe0d89020c7e07932400de4bb564e0b74912839929a529b6f3821e9700",
                    "transactionsTrie": "0x9c72841950af784be2aa53df3b7a4b459aad8260a022cac4803279fc924ab30c",
                    "receiptTrie": "0x07cc3f3ae147733541f30ee8e2c73be1b38ad8ec766b9a0d0088d05932a6809b",
                    "bloom": "0x00000000000000000000000000000000000000000000000000000000000000000000000000000000000000000000000000000000000000000000000000000000000000000000000000000000000000000000000000000000000000000000000000000000000000000000000000000000000000000000000000000000000000000000000000000000000000000000000000000000000000000000000000000000000000000000000000000000000000000000000000000000000000000000000000000000000000000000000000000000000000000000000000000000000000000000000000000000000000000000000000000000000000000000000000000000",
                    "difficulty": "0x020000",
                    "number": "0x01",
                    "gasLimit": "0x07270e00",
                    "gasUsed": "0xa904",
                    "timestamp": "0x03e8",
                    "extraData": "0x00",
                    "mixHash": "0x0000000000000000000000000000000000000000000000000000000000000000",
                    "nonce": "0x0000000000000000",
                    "hash": "0xd23735ca9d72503582c2154b44cbf6a8754d4e47ad8b5a64b9bb6d72681672e2"
                },
                "transactions": [
                    {
                        "type": "0x00",
                        "chainId": "0x01",
                        "nonce": "0x00",
                        "gasPrice": "0x0a",
                        "gasLimit": "0x030d40",
                        "to": "0x194a695a5556595941cce5a732eb195e17babea0",
                        "value": "0x00",
                        "data": "0x",
                        "v": "0x25",
                        "r": "0x5ce3fa1c3816ae35cd6d6b43504e319a14fb35ddfb94495767a85da4a5745b53",
                        "s": "0x3408b151d014b3751b6c3f1eed17ec6d53e7a9cfd2c81b9d9f7fc15ad92a8626",
                        "sender": "0x1ad9bc24818784172ff393bb6f89f094d4d2ca29"
                    }
                ],
                "uncleHeaders": [],
                "receipts": [
                    {
                        "transactionHash": "0x9edb7d94a8a34bbdb965ed82f270e19138df27c3cfbf1850b0b80a34f9b7ab5c",
                        "type": "0x00",
                        "cumulativeGasUsed": "0xa904",
                        "bloom": "0x00000000000000000000000000000000000000000000000000000000000000000000000000000000000000000000000000000000000000000000000000000000000000000000000000000000000000000000000000000000000000000000000000000000000000000000000000000000000000000000000000000000000000000000000000000000000000000000000000000000000000000000000000000000000000000000000000000000000000000000000000000000000000000000000000000000000000000000000000000000000000000000000000000000000000000000000000000000000000000000000000000000000000000000000000000000",
                        "logs": [],
                        "status": true,
                        "rlp": "0xf901080182a904b9010000000000000000000000000000000000000000000000000000000000000000000000000000000000000000000000000000000000000000000000000000000000000000000000000000000000000000000000000000000000000000000000000000000000000000000000000000000000000000000000000000000000000000000000000000000000000000000000000000000000000000000000000000000000000000000000000000000000000000000000000000000000000000000000000000000000000000000000000000000000000000000000000000000000000000000000000000000000000000000000000000000000000000000000000000000000c0"
                    }
                ],
                "rlp": "0xf90260f901f8a081d3533f2e9fe557c63ca4394c70882e5192e3940c6beb86b73cb3f1de4d02dba01dcc4de8dec75d7aab85b567b6ccd41ad312451b948a7413f0a142fd40d49347942adc25665018aa1fe0e6bc666dac8fc2697ff9baa096cadbfe0d89020c7e07932400de4bb564e0b74912839929a529b6f3821e9700a09c72841950af784be2aa53df3b7a4b459aad8260a022cac4803279fc924ab30ca007cc3f3ae147733541f30ee8e2c73be1b38ad8ec766b9a0d0088d05932a6809bb901000000000000000000000000000000000000000000000000000000000000000000000000000000000000000000000000000000000000000000000000000000000000000000000000000000000000000000000000000000000000000000000000000000000000000000000000000000000000000000000000000000000000000000000000000000000000000000000000000000000000000000000000000000000000000000000000000000000000000000000000000000000000000000000000000000000000000000000000000000000000000000000000000000000000000000000000000000000000000000000000000000000000000000000000000000000083020000018407270e0082a9048203e800a00000000000000000000000000000000000000000000000000000000000000000880000000000000000f862f860800a83030d4094194a695a5556595941cce5a732eb195e17babea0808025a05ce3fa1c3816ae35cd6d6b43504e319a14fb35ddfb94495767a85da4a5745b53a03408b151d014b3751b6c3f1eed17ec6d53e7a9cfd2c81b9d9f7fc15ad92a8626c0",
                "blocknumber": "1"
            }
        ],
        "sealEngine": "NoProof",
        "_info": {
            "hash": "0x3f3fd8c377fc821b0c140f18c673e2a7b2da03b40c079432bd288e693278c8a1",
            "fixture-format": "blockchain_test",
            "comment": "`execution-specs` generated test",
            "filling-transition-tool": "2.19.0",
            "description": "Test identity precompile RETURNDATASIZE matches the input size regardless\nof the output buffer size.",
            "url": "https://github.com/ethereum/execution-specs/blob/tests-snobal-devnet-5@v8037.0.0/tests/frontier/identity_precompile/test_identity_returndatasize.py#L17",
            "metadata": {
                "opcode_count": {}
            }
        }
    }
}