{
    "tests/ported_static/stShift/test_shr_2_255_256.py::test_shr_2_255_256[fork_Cancun-blockchain_test_from_state_test]": {
        "network": "Cancun",
        "genesisBlockHeader": {
            "parentHash": "0x0000000000000000000000000000000000000000000000000000000000000000",
            "uncleHash": "0x1dcc4de8dec75d7aab85b567b6ccd41ad312451b948a7413f0a142fd40d49347",
            "coinbase": "0x0000000000000000000000000000000000000000",
            "stateRoot": "0x93fb8e5b802ca36459fa6d2fec0a1a303337e1e1f5dbffd45a7a359165d96779",
            "transactionsTrie": "0x56e81f171bcc55a6ff8345e692c0f86e5b48e01b996cadc001622fb5e363b421",
            "receiptTrie": "0x56e81f171bcc55a6ff8345e692c0f86e5b48e01b996cadc001622fb5e363b421",
            "bloom": "0x00000000000000000000000000000000000000000000000000000000000000000000000000000000000000000000000000000000000000000000000000000000000000000000000000000000000000000000000000000000000000000000000000000000000000000000000000000000000000000000000000000000000000000000000000000000000000000000000000000000000000000000000000000000000000000000000000000000000000000000000000000000000000000000000000000000000000000000000000000000000000000000000000000000000000000000000000000000000000000000000000000000000000000000000000000000",
            "difficulty": "0x00",
            "number": "0x00",
            "gasLimit": "0x0f4240",
            "gasUsed": "0x00",
            "timestamp": "0x00",
            "extraData": "0x00",
            "mixHash": "0x0000000000000000000000000000000000000000000000000000000000000000",
            "nonce": "0x0000000000000000",
            "baseFeePerGas": "0x0b",
            "withdrawalsRoot": "0x56e81f171bcc55a6ff8345e692c0f86e5b48e01b996cadc001622fb5e363b421",
            "blobGasUsed": "0x00",
            "excessBlobGas": "0x00",
            "parentBeaconBlockRoot": "0x0000000000000000000000000000000000000000000000000000000000000000",
            "hash": "0x77f29867d6a9f9f7ebc62c570ac9d4025979a40670c76fcdf7ca5659860b7437"
        },
        "pre": {
            "0x000f3df6d732807ef1319fb7b8bb8522d0beac02": {
                "nonce": "0x01",
                "balance": "0x00",
                "code": "0x3373fffffffffffffffffffffffffffffffffffffffe14604d57602036146024575f5ffd5b5f35801560495762001fff810690815414603c575f5ffd5b62001fff01545f5260205ff35b5f5ffd5b62001fff42064281555f359062001fff015500",
                "storage": {}
            },
            "0x634045b2e9ef0249256f6c175beddb252ccdcc65": {
                "nonce": "0x00",
                "balance": "0x0de0b6b3a7640000",
                "code": "0x7f80000000000000000000000000000000000000000000000000000000000000006101001c600055",
                "storage": {
                    "0x00": "0x03"
                }
            },
            "0x2e3d0156d2b99a6eacba540c55f423c8f5a33143": {
                "nonce": "0x00",
                "balance": "0x0de0b6b3a7640000",
                "code": "0x",
                "storage": {}
            }
        },
        "postState": {
            "0x000f3df6d732807ef1319fb7b8bb8522d0beac02": {
                "nonce": "0x01",
                "balance": "0x00",
                "code": "0x3373fffffffffffffffffffffffffffffffffffffffe14604d57602036146024575f5ffd5b5f35801560495762001fff810690815414603c575f5ffd5b62001fff01545f5260205ff35b5f5ffd5b62001fff42064281555f359062001fff015500",
                "storage": {
                    "0x03e8": "0x03e8"
                }
            },
            "0x634045b2e9ef0249256f6c175beddb252ccdcc65": {
                "nonce": "0x00",
                "balance": "0x0de0b6b3a76586a0",
                "code": "0x7f80000000000000000000000000000000000000000000000000000000000000006101001c600055",
                "storage": {}
            },
            "0x2e3d0156d2b99a6eacba540c55f423c8f5a33143": {
                "nonce": "0x01",
                "balance": "0x0de0b6b3a75f3cc8",
                "code": "0x",
                "storage": {}
            }
        },
        "lastblockhash": "0x08587ab13847ea30a73baeb3e940136084fe2c2d974705556f33356fe267724d",
        "config": {
            "network": "Cancun",
            "chainid": "0x01",
            "blobSchedule": {
                "Cancun": {
                    "target": "0x03",
                    "max": "0x06",
                    "baseFeeUpdateFraction": "0x32f0ed"
                }
            }
        },
        "genesisRLP": "0xf9023bf90235a00000000000000000000000000000000000000000000000000000000000000000a01dcc4de8dec75d7aab85b567b6ccd41ad312451b948a7413f0a142fd40d49347940000000000000000000000000000000000000000a093fb8e5b802ca36459fa6d2fec0a1a303337e1e1f5dbffd45a7a359165d96779a056e81f171bcc55a6ff8345e692c0f86e5b48e01b996cadc001622fb5e363b421a056e81f171bcc55a6ff8345e692c0f86e5b48e01b996cadc001622fb5e363b421b90100000000000000000000000000000000000000000000000000000000000000000000000000000000000000000000000000000000000000000000000000000000000000000000000000000000000000000000000000000000000000000000000000000000000000000000000000000000000000000000000000000000000000000000000000000000000000000000000000000000000000000000000000000000000000000000000000000000000000000000000000000000000000000000000000000000000000000000000000000000000000000000000000000000000000000000000000000000000000000000000000000000000000000000000000000000008080830f4240808000a000000000000000000000000000000000000000000000000000000000000000008800000000000000000ba056e81f171bcc55a6ff8345e692c0f86e5b48e01b996cadc001622fb5e363b4218080a00000000000000000000000000000000000000000000000000000000000000000c0c0c0",
        "blocks": [
            {
                "blockHeader": {
                    "parentHash": "0x77f29867d6a9f9f7ebc62c570ac9d4025979a40670c76fcdf7ca5659860b7437",
                    "uncleHash": "0x1dcc4de8dec75d7aab85b567b6ccd41ad312451b948a7413f0a142fd40d49347",
                    "coinbase": "0x2adc25665018aa1fe0e6bc666dac8fc2697ff9ba",
                    "stateRoot": "0x0ef7336fb11d6c6e9ae639f9e05e4c046906576dfe874391f024e347f07bffa2",
                    "transactionsTrie": "0x4f558dce56720b6b20d879c96ee6227d039eb49020f6524d885414299f79ac03",
                    "receiptTrie": "0x28c55eaf0dabd2d70fbc512aee0434de8baa6eac58978054378e0e1b52165c20",
                    "bloom": "0x00000000000000000000000000000000000000000000000000000000000000000000000000000000000000000000000000000000000000000000000000000000000000000000000000000000000000000000000000000000000000000000000000000000000000000000000000000000000000000000000000000000000000000000000000000000000000000000000000000000000000000000000000000000000000000000000000000000000000000000000000000000000000000000000000000000000000000000000000000000000000000000000000000000000000000000000000000000000000000000000000000000000000000000000000000000",
                    "difficulty": "0x00",
                    "number": "0x01",
                    "gasLimit": "0x0f4240",
                    "gasUsed": "0x52dc",
                    "timestamp": "0x03e8",
                    "extraData": "0x00",
                    "mixHash": "0x0000000000000000000000000000000000000000000000000000000000020000",
                    "nonce": "0x0000000000000000",
                    "baseFeePerGas": "0x0a",
                    "withdrawalsRoot": "0x56e81f171bcc55a6ff8345e692c0f86e5b48e01b996cadc001622fb5e363b421",
                    "blobGasUsed": "0x00",
                    "excessBlobGas": "0x00",
                    "parentBeaconBlockRoot": "0x0000000000000000000000000000000000000000000000000000000000000000",
                    "hash": "0x08587ab13847ea30a73baeb3e940136084fe2c2d974705556f33356fe267724d"
                },
                "transactions": [
                    {
                        "type": "0x00",
                        "chainId": "0x01",
                        "nonce": "0x00",
                        "gasPrice": "0x0a",
                        "gasLimit": "0x061a80",
                        "to": "0x634045b2e9ef0249256f6c175beddb252ccdcc65",
                        "value": "0x0186a0",
                        "data": "0x",
                        "v": "0x25",
                        "r": "0x1e0edec1126ad9a9b88182196bc3f7e2f3e3917fef5c319df5fb972f6b092073",
                        "s": "0x4706ebb47af654481966ccb41a7c72ee9e979af12a1494247b4688b2ac0986a2",
                        "sender": "0x2e3d0156d2b99a6eacba540c55f423c8f5a33143"
                    }
                ],
                "uncleHeaders": [],
                "withdrawals": [],
                "receipts": [
                    {
                        "transactionHash": "0x94d3dcf1bd351a7a2230e7d5982c6c2887070a36054816708b251db77ef3749b",
                        "type": "0x00",
                        "cumulativeGasUsed": "0x52dc",
                        "bloom": "0x00000000000000000000000000000000000000000000000000000000000000000000000000000000000000000000000000000000000000000000000000000000000000000000000000000000000000000000000000000000000000000000000000000000000000000000000000000000000000000000000000000000000000000000000000000000000000000000000000000000000000000000000000000000000000000000000000000000000000000000000000000000000000000000000000000000000000000000000000000000000000000000000000000000000000000000000000000000000000000000000000000000000000000000000000000000",
                        "logs": [],
                        "status": true,
                        "rlp": "0xf90108018252dcb9010000000000000000000000000000000000000000000000000000000000000000000000000000000000000000000000000000000000000000000000000000000000000000000000000000000000000000000000000000000000000000000000000000000000000000000000000000000000000000000000000000000000000000000000000000000000000000000000000000000000000000000000000000000000000000000000000000000000000000000000000000000000000000000000000000000000000000000000000000000000000000000000000000000000000000000000000000000000000000000000000000000000000000000000000000000000c0"
                    }
                ],
                "rlp": "0xf902a5f90239a077f29867d6a9f9f7ebc62c570ac9d4025979a40670c76fcdf7ca5659860b7437a01dcc4de8dec75d7aab85b567b6ccd41ad312451b948a7413f0a142fd40d49347942adc25665018aa1fe0e6bc666dac8fc2697ff9baa00ef7336fb11d6c6e9ae639f9e05e4c046906576dfe874391f024e347f07bffa2a04f558dce56720b6b20d879c96ee6227d039eb49020f6524d885414299f79ac03a028c55eaf0dabd2d70fbc512aee0434de8baa6eac58978054378e0e1b52165c20b90100000000000000000000000000000000000000000000000000000000000000000000000000000000000000000000000000000000000000000000000000000000000000000000000000000000000000000000000000000000000000000000000000000000000000000000000000000000000000000000000000000000000000000000000000000000000000000000000000000000000000000000000000000000000000000000000000000000000000000000000000000000000000000000000000000000000000000000000000000000000000000000000000000000000000000000000000000000000000000000000000000000000000000000000000000000008001830f42408252dc8203e800a000000000000000000000000000000000000000000000000000000000000200008800000000000000000aa056e81f171bcc55a6ff8345e692c0f86e5b48e01b996cadc001622fb5e363b4218080a00000000000000000000000000000000000000000000000000000000000000000f865f863800a83061a8094634045b2e9ef0249256f6c175beddb252ccdcc65830186a08025a01e0edec1126ad9a9b88182196bc3f7e2f3e3917fef5c319df5fb972f6b092073a04706ebb47af654481966ccb41a7c72ee9e979af12a1494247b4688b2ac0986a2c0c0",
                "blocknumber": "1"
            }
        ],
        "sealEngine": "NoProof",
        "_info": {
            "hash": "0xa3ba469120826fdf7cf4309b9eef15d82e4f4cbe6427db8848018e61596fbbce",
            "fixture-format": "blockchain_test",
            "comment": "`execution-specs` generated test",
            "filling-transition-tool": "2.19.0",
            "description": "Taken from https://github.",
            "url": "https://github.com/ethereum/execution-specs/blob/tests-sn\u00f8bal-devnet-4@v1.0.0/tests/ported_static/stShift/test_shr_2_255_256.py#L25",
            "metadata": {
                "opcode_count": {}
            }
        }
    }
}