{
    "tests/ported_static/stSolidityTest/test_test_contract_suicide.py::test_test_contract_suicide[fork_Cancun-blockchain_test_from_state_test]": {
        "network": "Cancun",
        "genesisBlockHeader": {
            "parentHash": "0x0000000000000000000000000000000000000000000000000000000000000000",
            "uncleHash": "0x1dcc4de8dec75d7aab85b567b6ccd41ad312451b948a7413f0a142fd40d49347",
            "coinbase": "0x0000000000000000000000000000000000000000",
            "stateRoot": "0x028bb5e3c2761fbea0aefefc5f8090d393b42e379251c8b64e91c3c47758a49f",
            "transactionsTrie": "0x56e81f171bcc55a6ff8345e692c0f86e5b48e01b996cadc001622fb5e363b421",
            "receiptTrie": "0x56e81f171bcc55a6ff8345e692c0f86e5b48e01b996cadc001622fb5e363b421",
            "bloom": "0x00000000000000000000000000000000000000000000000000000000000000000000000000000000000000000000000000000000000000000000000000000000000000000000000000000000000000000000000000000000000000000000000000000000000000000000000000000000000000000000000000000000000000000000000000000000000000000000000000000000000000000000000000000000000000000000000000000000000000000000000000000000000000000000000000000000000000000000000000000000000000000000000000000000000000000000000000000000000000000000000000000000000000000000000000000000",
            "difficulty": "0x00",
            "number": "0x00",
            "gasLimit": "0x05f5e100",
            "gasUsed": "0x00",
            "timestamp": "0x00",
            "extraData": "0x00",
            "mixHash": "0x0000000000000000000000000000000000000000000000000000000000000000",
            "nonce": "0x0000000000000000",
            "baseFeePerGas": "0x0b",
            "withdrawalsRoot": "0x56e81f171bcc55a6ff8345e692c0f86e5b48e01b996cadc001622fb5e363b421",
            "blobGasUsed": "0x00",
            "excessBlobGas": "0x00",
            "parentBeaconBlockRoot": "0x0000000000000000000000000000000000000000000000000000000000000000",
            "hash": "0xc4e4b0064aea698a93799023751d9ee03b4d448b562c758ebff5501cb33c74bc"
        },
        "pre": {
            "0x000f3df6d732807ef1319fb7b8bb8522d0beac02": {
                "nonce": "0x01",
                "balance": "0x00",
                "code": "0x3373fffffffffffffffffffffffffffffffffffffffe14604d57602036146024575f5ffd5b5f35801560495762001fff810690815414603c575f5ffd5b62001fff01545f5260205ff35b5f5ffd5b62001fff42064281555f359062001fff015500",
                "storage": {}
            },
            "0xfe34831df57f026afbfffd7e7b51b4adbfe135e1": {
                "nonce": "0x00",
                "balance": "0x0186a0",
                "code": "0x7c01000000000000000000000000000000000000000000000000000000006000350463a60eedda8114610039578063c04062261461004b57005b61004161005d565b8060005260206000f35b61005361015a565b8060005260206000f35b60006000608161018a600039608160006000f0905073ffffffffffffffffffffffffffffffffffffffff811662f55d9d6000807ef55d9d00000000000000000000000000000000000000000000000000000000825260044173ffffffffffffffffffffffffffffffffffffffff168152602001600060008660325a03f16100e057005b505073ffffffffffffffffffffffffffffffffffffffff811663b9c3d0a5602060007fb9c3d0a50000000000000000000000000000000000000000000000000000000081526004600060008660325a03f161013757005b505060005160e11461014857610151565b60019150610156565b600091505b5090565b600061016461005d565b600060006101000a81548160ff0219169083021790555060ff600160005404169050905600607580600c6000396000f3007c01000000000000000000000000000000000000000000000000000000006000350462f55d9d81146036578063b9c3d0a514604557005b603f600435605a565b60006000f35b604b6055565b8060005260206000f35b60e190565b8073ffffffffffffffffffffffffffffffffffffffff16ff5056",
                "storage": {}
            },
            "0x7f3f285918d9b5e764174551e10b7539b97bbb27": {
                "nonce": "0x00",
                "balance": "0x05f5e100",
                "code": "0x",
                "storage": {}
            }
        },
        "postState": {
            "0x000f3df6d732807ef1319fb7b8bb8522d0beac02": {
                "nonce": "0x01",
                "balance": "0x00",
                "code": "0x3373fffffffffffffffffffffffffffffffffffffffe14604d57602036146024575f5ffd5b5f35801560495762001fff810690815414603c575f5ffd5b62001fff01545f5260205ff35b5f5ffd5b62001fff42064281555f359062001fff015500",
                "storage": {
                    "0x03e8": "0x03e8"
                }
            },
            "0xfe34831df57f026afbfffd7e7b51b4adbfe135e1": {
                "nonce": "0x01",
                "balance": "0x0186a1",
                "code": "0x7c01000000000000000000000000000000000000000000000000000000006000350463a60eedda8114610039578063c04062261461004b57005b61004161005d565b8060005260206000f35b61005361015a565b8060005260206000f35b60006000608161018a600039608160006000f0905073ffffffffffffffffffffffffffffffffffffffff811662f55d9d6000807ef55d9d00000000000000000000000000000000000000000000000000000000825260044173ffffffffffffffffffffffffffffffffffffffff168152602001600060008660325a03f16100e057005b505073ffffffffffffffffffffffffffffffffffffffff811663b9c3d0a5602060007fb9c3d0a50000000000000000000000000000000000000000000000000000000081526004600060008660325a03f161013757005b505060005160e11461014857610151565b60019150610156565b600091505b5090565b600061016461005d565b600060006101000a81548160ff0219169083021790555060ff600160005404169050905600607580600c6000396000f3007c01000000000000000000000000000000000000000000000000000000006000350462f55d9d81146036578063b9c3d0a514604557005b603f600435605a565b60006000f35b604b6055565b8060005260206000f35b60e190565b8073ffffffffffffffffffffffffffffffffffffffff16ff5056",
                "storage": {
                    "0x00": "0x01"
                }
            },
            "0x7f3f285918d9b5e764174551e10b7539b97bbb27": {
                "nonce": "0x01",
                "balance": "0x05e5ec95",
                "code": "0x",
                "storage": {}
            }
        },
        "lastblockhash": "0x266e7cac5d87baccc47c31d2e489dc20cc856d0fe706418144e3bbfbc33bb935",
        "config": {
            "network": "Cancun",
            "chainid": "0x01",
            "blobSchedule": {
                "Cancun": {
                    "target": "0x03",
                    "max": "0x06",
                    "baseFeeUpdateFraction": "0x32f0ed"
                }
            }
        },
        "genesisRLP": "0xf9023cf90236a00000000000000000000000000000000000000000000000000000000000000000a01dcc4de8dec75d7aab85b567b6ccd41ad312451b948a7413f0a142fd40d49347940000000000000000000000000000000000000000a0028bb5e3c2761fbea0aefefc5f8090d393b42e379251c8b64e91c3c47758a49fa056e81f171bcc55a6ff8345e692c0f86e5b48e01b996cadc001622fb5e363b421a056e81f171bcc55a6ff8345e692c0f86e5b48e01b996cadc001622fb5e363b421b901000000000000000000000000000000000000000000000000000000000000000000000000000000000000000000000000000000000000000000000000000000000000000000000000000000000000000000000000000000000000000000000000000000000000000000000000000000000000000000000000000000000000000000000000000000000000000000000000000000000000000000000000000000000000000000000000000000000000000000000000000000000000000000000000000000000000000000000000000000000000000000000000000000000000000000000000000000000000000000000000000000000000000000000000000000000080808405f5e100808000a000000000000000000000000000000000000000000000000000000000000000008800000000000000000ba056e81f171bcc55a6ff8345e692c0f86e5b48e01b996cadc001622fb5e363b4218080a00000000000000000000000000000000000000000000000000000000000000000c0c0c0",
        "blocks": [
            {
                "blockHeader": {
                    "parentHash": "0xc4e4b0064aea698a93799023751d9ee03b4d448b562c758ebff5501cb33c74bc",
                    "uncleHash": "0x1dcc4de8dec75d7aab85b567b6ccd41ad312451b948a7413f0a142fd40d49347",
                    "coinbase": "0x2adc25665018aa1fe0e6bc666dac8fc2697ff9ba",
                    "stateRoot": "0xfaefbfb20ba5bb7674b5213858cd5dfaf04ba3b72e9a20079af3a9ae6a1be2f4",
                    "transactionsTrie": "0x6241f2a7ce316c4cdddb43962930bad4d16396b64dceb68c7ad9fd09faf5e0bb",
                    "receiptTrie": "0x7bf4d14e5789a8127318322984e59211320cec6546e4fb240df9f987df603943",
                    "bloom": "0x00000000000000000000000000000000000000000000000000000000000000000000000000000000000000000000000000000000000000000000000000000000000000000000000000000000000000000000000000000000000000000000000000000000000000000000000000000000000000000000000000000000000000000000000000000000000000000000000000000000000000000000000000000000000000000000000000000000000000000000000000000000000000000000000000000000000000000000000000000000000000000000000000000000000000000000000000000000000000000000000000000000000000000000000000000000",
                    "difficulty": "0x00",
                    "number": "0x01",
                    "gasLimit": "0x05f5e100",
                    "gasUsed": "0x019871",
                    "timestamp": "0x03e8",
                    "extraData": "0x00",
                    "mixHash": "0x0000000000000000000000000000000000000000000000000000000000020000",
                    "nonce": "0x0000000000000000",
                    "baseFeePerGas": "0x0a",
                    "withdrawalsRoot": "0x56e81f171bcc55a6ff8345e692c0f86e5b48e01b996cadc001622fb5e363b421",
                    "blobGasUsed": "0x00",
                    "excessBlobGas": "0x00",
                    "parentBeaconBlockRoot": "0x0000000000000000000000000000000000000000000000000000000000000000",
                    "hash": "0x266e7cac5d87baccc47c31d2e489dc20cc856d0fe706418144e3bbfbc33bb935"
                },
                "transactions": [
                    {
                        "type": "0x00",
                        "chainId": "0x01",
                        "nonce": "0x00",
                        "gasPrice": "0x0a",
                        "gasLimit": "0x055730",
                        "to": "0xfe34831df57f026afbfffd7e7b51b4adbfe135e1",
                        "value": "0x01",
                        "data": "0xc0406226",
                        "v": "0x25",
                        "r": "0x6e3857879bea7bd1a8e0ccab72ca78a23dbfbd6c3e87ed6a2c7485d4292214b4",
                        "s": "0x63008b09e7b0bd8f263533657a1cf05a013f0882a81c868f328eee50ab37657c",
                        "sender": "0x7f3f285918d9b5e764174551e10b7539b97bbb27"
                    }
                ],
                "uncleHeaders": [],
                "withdrawals": [],
                "receipts": [
                    {
                        "transactionHash": "0x288351b15ec0855f5e246293f87ad8e75833d0f33bd606269dc66f88da0649a9",
                        "type": "0x00",
                        "cumulativeGasUsed": "0x019871",
                        "bloom": "0x00000000000000000000000000000000000000000000000000000000000000000000000000000000000000000000000000000000000000000000000000000000000000000000000000000000000000000000000000000000000000000000000000000000000000000000000000000000000000000000000000000000000000000000000000000000000000000000000000000000000000000000000000000000000000000000000000000000000000000000000000000000000000000000000000000000000000000000000000000000000000000000000000000000000000000000000000000000000000000000000000000000000000000000000000000000",
                        "logs": [],
                        "status": true,
                        "rlp": "0xf901090183019871b9010000000000000000000000000000000000000000000000000000000000000000000000000000000000000000000000000000000000000000000000000000000000000000000000000000000000000000000000000000000000000000000000000000000000000000000000000000000000000000000000000000000000000000000000000000000000000000000000000000000000000000000000000000000000000000000000000000000000000000000000000000000000000000000000000000000000000000000000000000000000000000000000000000000000000000000000000000000000000000000000000000000000000000000000000000000000c0"
                    }
                ],
                "rlp": "0xf902a8f9023ba0c4e4b0064aea698a93799023751d9ee03b4d448b562c758ebff5501cb33c74bca01dcc4de8dec75d7aab85b567b6ccd41ad312451b948a7413f0a142fd40d49347942adc25665018aa1fe0e6bc666dac8fc2697ff9baa0faefbfb20ba5bb7674b5213858cd5dfaf04ba3b72e9a20079af3a9ae6a1be2f4a06241f2a7ce316c4cdddb43962930bad4d16396b64dceb68c7ad9fd09faf5e0bba07bf4d14e5789a8127318322984e59211320cec6546e4fb240df9f987df603943b901000000000000000000000000000000000000000000000000000000000000000000000000000000000000000000000000000000000000000000000000000000000000000000000000000000000000000000000000000000000000000000000000000000000000000000000000000000000000000000000000000000000000000000000000000000000000000000000000000000000000000000000000000000000000000000000000000000000000000000000000000000000000000000000000000000000000000000000000000000000000000000000000000000000000000000000000000000000000000000000000000000000000000000000000000000000080018405f5e100830198718203e800a000000000000000000000000000000000000000000000000000000000000200008800000000000000000aa056e81f171bcc55a6ff8345e692c0f86e5b48e01b996cadc001622fb5e363b4218080a00000000000000000000000000000000000000000000000000000000000000000f866f864800a8305573094fe34831df57f026afbfffd7e7b51b4adbfe135e10184c040622625a06e3857879bea7bd1a8e0ccab72ca78a23dbfbd6c3e87ed6a2c7485d4292214b4a063008b09e7b0bd8f263533657a1cf05a013f0882a81c868f328eee50ab37657cc0c0",
                "blocknumber": "1"
            }
        ],
        "sealEngine": "NoProof",
        "_info": {
            "hash": "0x652e12fdceb845e86b20c4c8c8e9cbfd10418915eccac9733cb944a913b521a4",
            "fixture-format": "blockchain_test",
            "comment": "`execution-specs` generated test",
            "filling-transition-tool": "2.19.0",
            "description": "Test_test_contract_suicide.",
            "url": "https://github.com/ethereum/execution-specs/blob/tests-bal@v5.7.0/tests/ported_static/stSolidityTest/test_test_contract_suicide.py#L25",
            "metadata": {
                "opcode_count": {}
            }
        }
    }
}