{
    "tests/ported_static/stCallCreateCallCodeTest/test_create_init_fail_undefined_instruction.py::test_create_init_fail_undefined_instruction[fork_Cancun-blockchain_test_from_state_test]": {
        "network": "Cancun",
        "genesisBlockHeader": {
            "parentHash": "0x0000000000000000000000000000000000000000000000000000000000000000",
            "uncleHash": "0x1dcc4de8dec75d7aab85b567b6ccd41ad312451b948a7413f0a142fd40d49347",
            "coinbase": "0x0000000000000000000000000000000000000000",
            "stateRoot": "0xd2f0d5dfe6dbb4c44b306b05ecc7c0adf8b64632c9344624747a5646d17412da",
            "transactionsTrie": "0x56e81f171bcc55a6ff8345e692c0f86e5b48e01b996cadc001622fb5e363b421",
            "receiptTrie": "0x56e81f171bcc55a6ff8345e692c0f86e5b48e01b996cadc001622fb5e363b421",
            "bloom": "0x00000000000000000000000000000000000000000000000000000000000000000000000000000000000000000000000000000000000000000000000000000000000000000000000000000000000000000000000000000000000000000000000000000000000000000000000000000000000000000000000000000000000000000000000000000000000000000000000000000000000000000000000000000000000000000000000000000000000000000000000000000000000000000000000000000000000000000000000000000000000000000000000000000000000000000000000000000000000000000000000000000000000000000000000000000000",
            "difficulty": "0x00",
            "number": "0x00",
            "gasLimit": "0x07270e00",
            "gasUsed": "0x00",
            "timestamp": "0x00",
            "extraData": "0x00",
            "mixHash": "0x0000000000000000000000000000000000000000000000000000000000000000",
            "nonce": "0x0000000000000000",
            "baseFeePerGas": "0x0b",
            "withdrawalsRoot": "0x56e81f171bcc55a6ff8345e692c0f86e5b48e01b996cadc001622fb5e363b421",
            "blobGasUsed": "0x00",
            "excessBlobGas": "0x00",
            "parentBeaconBlockRoot": "0x0000000000000000000000000000000000000000000000000000000000000000",
            "hash": "0x7df30b8ff946ce30d26da783001d5db1ac4a1f062494a5a3ca4a320717d8ee8f"
        },
        "pre": {
            "0x000f3df6d732807ef1319fb7b8bb8522d0beac02": {
                "nonce": "0x01",
                "balance": "0x00",
                "code": "0x3373fffffffffffffffffffffffffffffffffffffffe14604d57602036146024575f5ffd5b5f35801560495762001fff810690815414603c575f5ffd5b62001fff01545f5260205ff35b5f5ffd5b62001fff42064281555f359062001fff015500",
                "storage": {}
            },
            "0xd66f224cbd2fabb21b17bb53c56118f32f62ebd6": {
                "nonce": "0x00",
                "balance": "0x0de0b6b3a7640000",
                "code": "0x",
                "storage": {}
            },
            "0x631f4b53c9f7d5f68756269111e26c67a7769065": {
                "nonce": "0x00",
                "balance": "0x0de0b6b3a7640000",
                "code": "0x60f9600053600160006001f0ff00",
                "storage": {}
            },
            "0xe0dfb231461b7f7375dbe6b8b90829d2ed81549f": {
                "nonce": "0x00",
                "balance": "0x0de0b6b3a7640000",
                "code": "0x60f96000536000600160006001f5ff00",
                "storage": {}
            },
            "0x106c3fa6caf111675540f8aaed3aa211c50fa48d": {
                "nonce": "0x00",
                "balance": "0x0de0b6b3a7640000",
                "code": "0x6000600060006000600073631f4b53c9f7d5f68756269111e26c67a776906562061a80f16000556000600060006000600073e0dfb231461b7f7375dbe6b8b90829d2ed81549f62061a80f1600155600160025500",
                "storage": {}
            }
        },
        "postState": {
            "0x000f3df6d732807ef1319fb7b8bb8522d0beac02": {
                "nonce": "0x01",
                "balance": "0x00",
                "code": "0x3373fffffffffffffffffffffffffffffffffffffffe14604d57602036146024575f5ffd5b5f35801560495762001fff810690815414603c575f5ffd5b62001fff01545f5260205ff35b5f5ffd5b62001fff42064281555f359062001fff015500",
                "storage": {
                    "0x03e8": "0x03e8"
                }
            },
            "0xd66f224cbd2fabb21b17bb53c56118f32f62ebd6": {
                "nonce": "0x01",
                "balance": "0x0de0b6b3a6e05aac",
                "code": "0x",
                "storage": {}
            },
            "0x631f4b53c9f7d5f68756269111e26c67a7769065": {
                "nonce": "0x00",
                "balance": "0x0de0b6b3a7640000",
                "code": "0x60f9600053600160006001f0ff00",
                "storage": {}
            },
            "0xe0dfb231461b7f7375dbe6b8b90829d2ed81549f": {
                "nonce": "0x00",
                "balance": "0x0de0b6b3a7640000",
                "code": "0x60f96000536000600160006001f5ff00",
                "storage": {}
            },
            "0x106c3fa6caf111675540f8aaed3aa211c50fa48d": {
                "nonce": "0x00",
                "balance": "0x0de0b6b3a76586a0",
                "code": "0x6000600060006000600073631f4b53c9f7d5f68756269111e26c67a776906562061a80f16000556000600060006000600073e0dfb231461b7f7375dbe6b8b90829d2ed81549f62061a80f1600155600160025500",
                "storage": {
                    "0x02": "0x01"
                }
            }
        },
        "lastblockhash": "0x165a4013869dd8e15a5bcbef3d72e68145ba8003993d851d1f57fb681272a460",
        "config": {
            "network": "Cancun",
            "chainid": "0x01",
            "blobSchedule": {
                "Cancun": {
                    "target": "0x03",
                    "max": "0x06",
                    "baseFeeUpdateFraction": "0x32f0ed"
                }
            }
        },
        "genesisRLP": "0xf9023cf90236a00000000000000000000000000000000000000000000000000000000000000000a01dcc4de8dec75d7aab85b567b6ccd41ad312451b948a7413f0a142fd40d49347940000000000000000000000000000000000000000a0d2f0d5dfe6dbb4c44b306b05ecc7c0adf8b64632c9344624747a5646d17412daa056e81f171bcc55a6ff8345e692c0f86e5b48e01b996cadc001622fb5e363b421a056e81f171bcc55a6ff8345e692c0f86e5b48e01b996cadc001622fb5e363b421b901000000000000000000000000000000000000000000000000000000000000000000000000000000000000000000000000000000000000000000000000000000000000000000000000000000000000000000000000000000000000000000000000000000000000000000000000000000000000000000000000000000000000000000000000000000000000000000000000000000000000000000000000000000000000000000000000000000000000000000000000000000000000000000000000000000000000000000000000000000000000000000000000000000000000000000000000000000000000000000000000000000000000000000000000000000000080808407270e00808000a000000000000000000000000000000000000000000000000000000000000000008800000000000000000ba056e81f171bcc55a6ff8345e692c0f86e5b48e01b996cadc001622fb5e363b4218080a00000000000000000000000000000000000000000000000000000000000000000c0c0c0",
        "blocks": [
            {
                "blockHeader": {
                    "parentHash": "0x7df30b8ff946ce30d26da783001d5db1ac4a1f062494a5a3ca4a320717d8ee8f",
                    "uncleHash": "0x1dcc4de8dec75d7aab85b567b6ccd41ad312451b948a7413f0a142fd40d49347",
                    "coinbase": "0x2adc25665018aa1fe0e6bc666dac8fc2697ff9ba",
                    "stateRoot": "0xe67b99c0003f3b1e8a7358f7567211733271d72c3d2b638edf9e068b421a2d8b",
                    "transactionsTrie": "0xba9a0966981480087231c8cb8107f27292fa65f204e55a23342ed2152417362d",
                    "receiptTrie": "0xc96ac6fa2f8a710673b53f6fc0269c28d088a44c421756b5c54ff0ee8bb03b21",
                    "bloom": "0x00000000000000000000000000000000000000000000000000000000000000000000000000000000000000000000000000000000000000000000000000000000000000000000000000000000000000000000000000000000000000000000000000000000000000000000000000000000000000000000000000000000000000000000000000000000000000000000000000000000000000000000000000000000000000000000000000000000000000000000000000000000000000000000000000000000000000000000000000000000000000000000000000000000000000000000000000000000000000000000000000000000000000000000000000000000",
                    "difficulty": "0x00",
                    "number": "0x01",
                    "gasLimit": "0x07270e00",
                    "gasUsed": "0x0d0312",
                    "timestamp": "0x03e8",
                    "extraData": "0x00",
                    "mixHash": "0x0000000000000000000000000000000000000000000000000000000000020000",
                    "nonce": "0x0000000000000000",
                    "baseFeePerGas": "0x0a",
                    "withdrawalsRoot": "0x56e81f171bcc55a6ff8345e692c0f86e5b48e01b996cadc001622fb5e363b421",
                    "blobGasUsed": "0x00",
                    "excessBlobGas": "0x00",
                    "parentBeaconBlockRoot": "0x0000000000000000000000000000000000000000000000000000000000000000",
                    "hash": "0x165a4013869dd8e15a5bcbef3d72e68145ba8003993d851d1f57fb681272a460"
                },
                "transactions": [
                    {
                        "type": "0x00",
                        "chainId": "0x01",
                        "nonce": "0x00",
                        "gasPrice": "0x0a",
                        "gasLimit": "0x0dbba0",
                        "to": "0x106c3fa6caf111675540f8aaed3aa211c50fa48d",
                        "value": "0x0186a0",
                        "data": "0x",
                        "v": "0x25",
                        "r": "0x797197b95aec5eda44e0e3c5d9597addac93463e9c1dd412d0803bc45b349e6a",
                        "s": "0x742ca6beb6edc67f2c5c2b9b37e14711c6f3944d56099777c9b793379551e6f2",
                        "sender": "0xd66f224cbd2fabb21b17bb53c56118f32f62ebd6"
                    }
                ],
                "uncleHeaders": [],
                "withdrawals": [],
                "receipts": [
                    {
                        "transactionHash": "0x6f0919499b03247d5258aadaec0cee81ab81cf6ca9c8c9fbe2383ed4b44f89b6",
                        "type": "0x00",
                        "cumulativeGasUsed": "0x0d0312",
                        "bloom": "0x00000000000000000000000000000000000000000000000000000000000000000000000000000000000000000000000000000000000000000000000000000000000000000000000000000000000000000000000000000000000000000000000000000000000000000000000000000000000000000000000000000000000000000000000000000000000000000000000000000000000000000000000000000000000000000000000000000000000000000000000000000000000000000000000000000000000000000000000000000000000000000000000000000000000000000000000000000000000000000000000000000000000000000000000000000000",
                        "logs": [],
                        "status": true,
                        "rlp": "0xf9010901830d0312b9010000000000000000000000000000000000000000000000000000000000000000000000000000000000000000000000000000000000000000000000000000000000000000000000000000000000000000000000000000000000000000000000000000000000000000000000000000000000000000000000000000000000000000000000000000000000000000000000000000000000000000000000000000000000000000000000000000000000000000000000000000000000000000000000000000000000000000000000000000000000000000000000000000000000000000000000000000000000000000000000000000000000000000000000000000000000c0"
                    }
                ],
                "rlp": "0xf902a7f9023ba07df30b8ff946ce30d26da783001d5db1ac4a1f062494a5a3ca4a320717d8ee8fa01dcc4de8dec75d7aab85b567b6ccd41ad312451b948a7413f0a142fd40d49347942adc25665018aa1fe0e6bc666dac8fc2697ff9baa0e67b99c0003f3b1e8a7358f7567211733271d72c3d2b638edf9e068b421a2d8ba0ba9a0966981480087231c8cb8107f27292fa65f204e55a23342ed2152417362da0c96ac6fa2f8a710673b53f6fc0269c28d088a44c421756b5c54ff0ee8bb03b21b901000000000000000000000000000000000000000000000000000000000000000000000000000000000000000000000000000000000000000000000000000000000000000000000000000000000000000000000000000000000000000000000000000000000000000000000000000000000000000000000000000000000000000000000000000000000000000000000000000000000000000000000000000000000000000000000000000000000000000000000000000000000000000000000000000000000000000000000000000000000000000000000000000000000000000000000000000000000000000000000000000000000000000000000000000000000080018407270e00830d03128203e800a000000000000000000000000000000000000000000000000000000000000200008800000000000000000aa056e81f171bcc55a6ff8345e692c0f86e5b48e01b996cadc001622fb5e363b4218080a00000000000000000000000000000000000000000000000000000000000000000f865f863800a830dbba094106c3fa6caf111675540f8aaed3aa211c50fa48d830186a08025a0797197b95aec5eda44e0e3c5d9597addac93463e9c1dd412d0803bc45b349e6aa0742ca6beb6edc67f2c5c2b9b37e14711c6f3944d56099777c9b793379551e6f2c0c0",
                "blocknumber": "1"
            }
        ],
        "sealEngine": "NoProof",
        "_info": {
            "hash": "0xaf3fd23a4cd04d9ba234a2910bc486a4288f05cd2901e229e64e6d96d1139975",
            "fixture-format": "blockchain_test",
            "comment": "`execution-specs` generated test",
            "filling-transition-tool": "2.19.0",
            "description": "Create fails because init code has undefined opcode, trying to...",
            "url": "https://github.com/ethereum/execution-specs/blob/tests-snobal-devnet-5@v8037.0.0/tests/ported_static/stCallCreateCallCodeTest/test_create_init_fail_undefined_instruction.py#L24",
            "metadata": {
                "opcode_count": {}
            }
        }
    }
}