{
    "tests/frontier/create/test_create_suicide_store.py::test_create_suicide_store[fork_Istanbul-create_opcode_CREATE-blockchain_test_from_state_test]": {
        "network": "Istanbul",
        "genesisBlockHeader": {
            "parentHash": "0x0000000000000000000000000000000000000000000000000000000000000000",
            "uncleHash": "0x1dcc4de8dec75d7aab85b567b6ccd41ad312451b948a7413f0a142fd40d49347",
            "coinbase": "0x0000000000000000000000000000000000000000",
            "stateRoot": "0x73dc7969b0bed683a533c7cebeaba920235b90106a7c708ae5dc61ffc05b346a",
            "transactionsTrie": "0x56e81f171bcc55a6ff8345e692c0f86e5b48e01b996cadc001622fb5e363b421",
            "receiptTrie": "0x56e81f171bcc55a6ff8345e692c0f86e5b48e01b996cadc001622fb5e363b421",
            "bloom": "0x00000000000000000000000000000000000000000000000000000000000000000000000000000000000000000000000000000000000000000000000000000000000000000000000000000000000000000000000000000000000000000000000000000000000000000000000000000000000000000000000000000000000000000000000000000000000000000000000000000000000000000000000000000000000000000000000000000000000000000000000000000000000000000000000000000000000000000000000000000000000000000000000000000000000000000000000000000000000000000000000000000000000000000000000000000000",
            "difficulty": "0x020000",
            "number": "0x00",
            "gasLimit": "0x07270e00",
            "gasUsed": "0x00",
            "timestamp": "0x00",
            "extraData": "0x00",
            "mixHash": "0x0000000000000000000000000000000000000000000000000000000000000000",
            "nonce": "0x0000000000000000",
            "hash": "0xc7ebcd94699a2692a7be2b419140dc5df77a09616e0e0e89b563f164fbb9bab7"
        },
        "pre": {
            "0x1ad9bc24818784172ff393bb6f89f094d4d2ca29": {
                "nonce": "0x00",
                "balance": "0x3635c9adc5dea00000",
                "code": "0x",
                "storage": {}
            },
            "0x17daeaaddf731eb9f66237055d365d3d2d6e8050": {
                "nonce": "0x01",
                "balance": "0x00",
                "code": "0x3660006000373660006000f0600055600260405260006000602060406000600054620493e05a03f1600160405260006000602060406000600054620493e05a03f1600260405260006000602060406000600054620493e05a03f1600360405260206064602060406000600054620493e05a03f16064516001556001600255",
                "storage": {}
            }
        },
        "postState": {
            "0x1ad9bc24818784172ff393bb6f89f094d4d2ca29": {
                "nonce": "0x01",
                "balance": "0x3635c9adc5de89cfba",
                "code": "0x",
                "storage": {}
            },
            "0x17daeaaddf731eb9f66237055d365d3d2d6e8050": {
                "nonce": "0x02",
                "balance": "0x00",
                "code": "0x3660006000373660006000f0600055600260405260006000602060406000600054620493e05a03f1600160405260006000602060406000600054620493e05a03f1600260405260006000602060406000600054620493e05a03f1600360405260206064602060406000600054620493e05a03f16064516001556001600255",
                "storage": {
                    "0x00": "0x4b1635e9d50ed49ddb11398a53ff2836b9f1bc0e",
                    "0x01": "0x24",
                    "0x02": "0x01"
                }
            },
            "0x2adc25665018aa1fe0e6bc666dac8fc2697ff9ba": {
                "nonce": "0x00",
                "balance": "0x1bc16d674ede3046",
                "code": "0x",
                "storage": {}
            }
        },
        "lastblockhash": "0xca8a920855ee08f403b16749ff2d2d5872a34c0773b29d923553ab38c5b16419",
        "config": {
            "network": "Istanbul",
            "chainid": "0x01"
        },
        "genesisRLP": "0xf901f9f901f4a00000000000000000000000000000000000000000000000000000000000000000a01dcc4de8dec75d7aab85b567b6ccd41ad312451b948a7413f0a142fd40d49347940000000000000000000000000000000000000000a073dc7969b0bed683a533c7cebeaba920235b90106a7c708ae5dc61ffc05b346aa056e81f171bcc55a6ff8345e692c0f86e5b48e01b996cadc001622fb5e363b421a056e81f171bcc55a6ff8345e692c0f86e5b48e01b996cadc001622fb5e363b421b901000000000000000000000000000000000000000000000000000000000000000000000000000000000000000000000000000000000000000000000000000000000000000000000000000000000000000000000000000000000000000000000000000000000000000000000000000000000000000000000000000000000000000000000000000000000000000000000000000000000000000000000000000000000000000000000000000000000000000000000000000000000000000000000000000000000000000000000000000000000000000000000000000000000000000000000000000000000000000000000000000000000000000000000000000000000083020000808407270e00808000a00000000000000000000000000000000000000000000000000000000000000000880000000000000000c0c0",
        "blocks": [
            {
                "blockHeader": {
                    "parentHash": "0xc7ebcd94699a2692a7be2b419140dc5df77a09616e0e0e89b563f164fbb9bab7",
                    "uncleHash": "0x1dcc4de8dec75d7aab85b567b6ccd41ad312451b948a7413f0a142fd40d49347",
                    "coinbase": "0x2adc25665018aa1fe0e6bc666dac8fc2697ff9ba",
                    "stateRoot": "0xbfba5dd27473d2adeeedf445b040a3b437f9296b68c79f8e5cecf58532a03db5",
                    "transactionsTrie": "0x5c5c0be07d0b57ca4eb91d7be65136d962b61cf1f3181ad11f8bbb776e0fe31a",
                    "receiptTrie": "0xa4b06e7cdabdd8461590c7b6e0659095b8878289300cd95846ff904d6c7f0145",
                    "bloom": "0x00000000000000000000000000000000000000000000000000000000000000000000000000000000000000000000000000000000000000000000000000000000000000000000000000000000000000000000000000000000000000000000000000000000000000000000000000000000000000000000000000000000000000000000000000000000000000000000000000000000000000000000000000000000000000000000000000000000000000000000000000000000000000000000000000000000000000000000000000000000000000000000000000000000000000000000000000000000000000000000000000000000000000000000000000000000",
                    "difficulty": "0x020000",
                    "number": "0x01",
                    "gasLimit": "0x07270e00",
                    "gasUsed": "0x023807",
                    "timestamp": "0x03e8",
                    "extraData": "0x00",
                    "mixHash": "0x0000000000000000000000000000000000000000000000000000000000000000",
                    "nonce": "0x0000000000000000",
                    "hash": "0xca8a920855ee08f403b16749ff2d2d5872a34c0773b29d923553ab38c5b16419"
                },
                "transactions": [
                    {
                        "type": "0x00",
                        "chainId": "0x01",
                        "nonce": "0x00",
                        "gasPrice": "0x0a",
                        "gasLimit": "0x0f4240",
                        "to": "0x17daeaaddf731eb9f66237055d365d3d2d6e8050",
                        "value": "0x00",
                        "data": "0x610064600081600b8239f3600160003514603f5801576002600035146024580157600360003514600858015760405801565b60015460005260206000f3602f5801565b60126001540160015500601f5801565b73c0f6dc9e5836f54caadbf59cc69346c508e1992bff60035801565b",
                        "v": "0x26",
                        "r": "0x877170f7aa04da8f39462854639c2c24b735e93f1a0405c49d4c34d464ebc6a0",
                        "s": "0x3b67476a2bd08522c9541c54be923695c5e41b3ec785aa8b2f980daf0816ae89",
                        "sender": "0x1ad9bc24818784172ff393bb6f89f094d4d2ca29"
                    }
                ],
                "uncleHeaders": [],
                "receipts": [
                    {
                        "transactionHash": "0xb7e029e6217282f3aa7b5509344cb11dd73754f8b705bffc2c37f0bd02fb44e8",
                        "type": "0x00",
                        "cumulativeGasUsed": "0x023807",
                        "bloom": "0x00000000000000000000000000000000000000000000000000000000000000000000000000000000000000000000000000000000000000000000000000000000000000000000000000000000000000000000000000000000000000000000000000000000000000000000000000000000000000000000000000000000000000000000000000000000000000000000000000000000000000000000000000000000000000000000000000000000000000000000000000000000000000000000000000000000000000000000000000000000000000000000000000000000000000000000000000000000000000000000000000000000000000000000000000000000",
                        "logs": [],
                        "status": true,
                        "rlp": "0xf901090183023807b9010000000000000000000000000000000000000000000000000000000000000000000000000000000000000000000000000000000000000000000000000000000000000000000000000000000000000000000000000000000000000000000000000000000000000000000000000000000000000000000000000000000000000000000000000000000000000000000000000000000000000000000000000000000000000000000000000000000000000000000000000000000000000000000000000000000000000000000000000000000000000000000000000000000000000000000000000000000000000000000000000000000000000000000000000000000000c0"
                    }
                ],
                "rlp": "0xf902d1f901f9a0c7ebcd94699a2692a7be2b419140dc5df77a09616e0e0e89b563f164fbb9bab7a01dcc4de8dec75d7aab85b567b6ccd41ad312451b948a7413f0a142fd40d49347942adc25665018aa1fe0e6bc666dac8fc2697ff9baa0bfba5dd27473d2adeeedf445b040a3b437f9296b68c79f8e5cecf58532a03db5a05c5c0be07d0b57ca4eb91d7be65136d962b61cf1f3181ad11f8bbb776e0fe31aa0a4b06e7cdabdd8461590c7b6e0659095b8878289300cd95846ff904d6c7f0145b901000000000000000000000000000000000000000000000000000000000000000000000000000000000000000000000000000000000000000000000000000000000000000000000000000000000000000000000000000000000000000000000000000000000000000000000000000000000000000000000000000000000000000000000000000000000000000000000000000000000000000000000000000000000000000000000000000000000000000000000000000000000000000000000000000000000000000000000000000000000000000000000000000000000000000000000000000000000000000000000000000000000000000000000000000000000083020000018407270e00830238078203e800a00000000000000000000000000000000000000000000000000000000000000000880000000000000000f8d2f8d0800a830f42409417daeaaddf731eb9f66237055d365d3d2d6e805080b86f610064600081600b8239f3600160003514603f5801576002600035146024580157600360003514600858015760405801565b60015460005260206000f3602f5801565b60126001540160015500601f5801565b73c0f6dc9e5836f54caadbf59cc69346c508e1992bff60035801565b26a0877170f7aa04da8f39462854639c2c24b735e93f1a0405c49d4c34d464ebc6a0a03b67476a2bd08522c9541c54be923695c5e41b3ec785aa8b2f980daf0816ae89c0",
                "blocknumber": "1"
            }
        ],
        "sealEngine": "NoProof",
        "_info": {
            "hash": "0x1548afe4d05f8665db2d1448a9bb95bc17b7286fb6dc73b2261d3c7b2c54fb2f",
            "fixture-format": "blockchain_test",
            "comment": "`execution-specs` generated test",
            "filling-transition-tool": "2.19.0",
            "description": "Create a dynamic contract that self-destructs, then call it to store some\ndata and then call it again to return that storage value.",
            "url": "https://github.com/ethereum/execution-specs/blob/tests-bal@v5.6.1/tests/frontier/create/test_create_suicide_store.py#L32",
            "metadata": {
                "opcode_count": {}
            }
        }
    },
    "tests/frontier/create/test_create_suicide_store.py::test_create_suicide_store[fork_Istanbul-create_opcode_CREATE2-blockchain_test_from_state_test]": {
        "network": "Istanbul",
        "genesisBlockHeader": {
            "parentHash": "0x0000000000000000000000000000000000000000000000000000000000000000",
            "uncleHash": "0x1dcc4de8dec75d7aab85b567b6ccd41ad312451b948a7413f0a142fd40d49347",
            "coinbase": "0x0000000000000000000000000000000000000000",
            "stateRoot": "0x80cbb104ccffccadacf3025ce85318b67ffd03beedd4076dcbce694069c35f1e",
            "transactionsTrie": "0x56e81f171bcc55a6ff8345e692c0f86e5b48e01b996cadc001622fb5e363b421",
            "receiptTrie": "0x56e81f171bcc55a6ff8345e692c0f86e5b48e01b996cadc001622fb5e363b421",
            "bloom": "0x00000000000000000000000000000000000000000000000000000000000000000000000000000000000000000000000000000000000000000000000000000000000000000000000000000000000000000000000000000000000000000000000000000000000000000000000000000000000000000000000000000000000000000000000000000000000000000000000000000000000000000000000000000000000000000000000000000000000000000000000000000000000000000000000000000000000000000000000000000000000000000000000000000000000000000000000000000000000000000000000000000000000000000000000000000000",
            "difficulty": "0x020000",
            "number": "0x00",
            "gasLimit": "0x07270e00",
            "gasUsed": "0x00",
            "timestamp": "0x00",
            "extraData": "0x00",
            "mixHash": "0x0000000000000000000000000000000000000000000000000000000000000000",
            "nonce": "0x0000000000000000",
            "hash": "0x50ec78f7f646f96bc5e70043d6151017fe5cf8d6e9150721ff105546e68c53b0"
        },
        "pre": {
            "0x1ad9bc24818784172ff393bb6f89f094d4d2ca29": {
                "nonce": "0x00",
                "balance": "0x3635c9adc5dea00000",
                "code": "0x",
                "storage": {}
            },
            "0xc1a66b5c6a64e3e0031be1e329b34ca971f5730b": {
                "nonce": "0x01",
                "balance": "0x00",
                "code": "0x36600060003760003660006000f5600055600260405260006000602060406000600054620493e05a03f1600160405260006000602060406000600054620493e05a03f1600260405260006000602060406000600054620493e05a03f1600360405260206064602060406000600054620493e05a03f16064516001556001600255",
                "storage": {}
            }
        },
        "postState": {
            "0x1ad9bc24818784172ff393bb6f89f094d4d2ca29": {
                "nonce": "0x01",
                "balance": "0x3635c9adc5de89ceac",
                "code": "0x",
                "storage": {}
            },
            "0xc1a66b5c6a64e3e0031be1e329b34ca971f5730b": {
                "nonce": "0x02",
                "balance": "0x00",
                "code": "0x36600060003760003660006000f5600055600260405260006000602060406000600054620493e05a03f1600160405260006000602060406000600054620493e05a03f1600260405260006000602060406000600054620493e05a03f1600360405260206064602060406000600054620493e05a03f16064516001556001600255",
                "storage": {
                    "0x00": "0xccb6e3eff52f3ed46c022e8cecc9add7444e10cf",
                    "0x01": "0x24",
                    "0x02": "0x01"
                }
            },
            "0x2adc25665018aa1fe0e6bc666dac8fc2697ff9ba": {
                "nonce": "0x00",
                "balance": "0x1bc16d674ede3154",
                "code": "0x",
                "storage": {}
            }
        },
        "lastblockhash": "0xe67dfcd698792dfe3f36c74ce9f18d4f9afdf6773b279dc3c0453dc29b9df058",
        "config": {
            "network": "Istanbul",
            "chainid": "0x01"
        },
        "genesisRLP": "0xf901f9f901f4a00000000000000000000000000000000000000000000000000000000000000000a01dcc4de8dec75d7aab85b567b6ccd41ad312451b948a7413f0a142fd40d49347940000000000000000000000000000000000000000a080cbb104ccffccadacf3025ce85318b67ffd03beedd4076dcbce694069c35f1ea056e81f171bcc55a6ff8345e692c0f86e5b48e01b996cadc001622fb5e363b421a056e81f171bcc55a6ff8345e692c0f86e5b48e01b996cadc001622fb5e363b421b901000000000000000000000000000000000000000000000000000000000000000000000000000000000000000000000000000000000000000000000000000000000000000000000000000000000000000000000000000000000000000000000000000000000000000000000000000000000000000000000000000000000000000000000000000000000000000000000000000000000000000000000000000000000000000000000000000000000000000000000000000000000000000000000000000000000000000000000000000000000000000000000000000000000000000000000000000000000000000000000000000000000000000000000000000000000083020000808407270e00808000a00000000000000000000000000000000000000000000000000000000000000000880000000000000000c0c0",
        "blocks": [
            {
                "blockHeader": {
                    "parentHash": "0x50ec78f7f646f96bc5e70043d6151017fe5cf8d6e9150721ff105546e68c53b0",
                    "uncleHash": "0x1dcc4de8dec75d7aab85b567b6ccd41ad312451b948a7413f0a142fd40d49347",
                    "coinbase": "0x2adc25665018aa1fe0e6bc666dac8fc2697ff9ba",
                    "stateRoot": "0xcbd6fb6b4feb53a89628a6bbb434d25ae72e3c16d983a44fdbf79e768edf3560",
                    "transactionsTrie": "0xe256ea9db9d199d8f869c76ec3eb06b0ff78f1ab89b2a67098a6379dafad4914",
                    "receiptTrie": "0x56e39f82cdc25b3e5eda0ad30441bd323965434fd7b4b52e82c2865958fbebaa",
                    "bloom": "0x00000000000000000000000000000000000000000000000000000000000000000000000000000000000000000000000000000000000000000000000000000000000000000000000000000000000000000000000000000000000000000000000000000000000000000000000000000000000000000000000000000000000000000000000000000000000000000000000000000000000000000000000000000000000000000000000000000000000000000000000000000000000000000000000000000000000000000000000000000000000000000000000000000000000000000000000000000000000000000000000000000000000000000000000000000000",
                    "difficulty": "0x020000",
                    "number": "0x01",
                    "gasLimit": "0x07270e00",
                    "gasUsed": "0x023822",
                    "timestamp": "0x03e8",
                    "extraData": "0x00",
                    "mixHash": "0x0000000000000000000000000000000000000000000000000000000000000000",
                    "nonce": "0x0000000000000000",
                    "hash": "0xe67dfcd698792dfe3f36c74ce9f18d4f9afdf6773b279dc3c0453dc29b9df058"
                },
                "transactions": [
                    {
                        "type": "0x00",
                        "chainId": "0x01",
                        "nonce": "0x00",
                        "gasPrice": "0x0a",
                        "gasLimit": "0x0f4240",
                        "to": "0xc1a66b5c6a64e3e0031be1e329b34ca971f5730b",
                        "value": "0x00",
                        "data": "0x610064600081600b8239f3600160003514603f5801576002600035146024580157600360003514600858015760405801565b60015460005260206000f3602f5801565b60126001540160015500601f5801565b73c0f6dc9e5836f54caadbf59cc69346c508e1992bff60035801565b",
                        "v": "0x25",
                        "r": "0xc1c24d4cdd4cdcd20179ed3bc1fce0d3d23eae46c88a8a98c4af337089af0fae",
                        "s": "0x1318abe13fd5505c885f10f98c2137c2d11c6ddabed19832eddd3ee14529928e",
                        "sender": "0x1ad9bc24818784172ff393bb6f89f094d4d2ca29"
                    }
                ],
                "uncleHeaders": [],
                "receipts": [
                    {
                        "transactionHash": "0x5bb5a0bbb8d842c9ec4d24be6e62c9e5bdf12f7cabbd457d3bd9dbf218fdcf1f",
                        "type": "0x00",
                        "cumulativeGasUsed": "0x023822",
                        "bloom": "0x00000000000000000000000000000000000000000000000000000000000000000000000000000000000000000000000000000000000000000000000000000000000000000000000000000000000000000000000000000000000000000000000000000000000000000000000000000000000000000000000000000000000000000000000000000000000000000000000000000000000000000000000000000000000000000000000000000000000000000000000000000000000000000000000000000000000000000000000000000000000000000000000000000000000000000000000000000000000000000000000000000000000000000000000000000000",
                        "logs": [],
                        "status": true,
                        "rlp": "0xf901090183023822b9010000000000000000000000000000000000000000000000000000000000000000000000000000000000000000000000000000000000000000000000000000000000000000000000000000000000000000000000000000000000000000000000000000000000000000000000000000000000000000000000000000000000000000000000000000000000000000000000000000000000000000000000000000000000000000000000000000000000000000000000000000000000000000000000000000000000000000000000000000000000000000000000000000000000000000000000000000000000000000000000000000000000000000000000000000000000c0"
                    }
                ],
                "rlp": "0xf902d1f901f9a050ec78f7f646f96bc5e70043d6151017fe5cf8d6e9150721ff105546e68c53b0a01dcc4de8dec75d7aab85b567b6ccd41ad312451b948a7413f0a142fd40d49347942adc25665018aa1fe0e6bc666dac8fc2697ff9baa0cbd6fb6b4feb53a89628a6bbb434d25ae72e3c16d983a44fdbf79e768edf3560a0e256ea9db9d199d8f869c76ec3eb06b0ff78f1ab89b2a67098a6379dafad4914a056e39f82cdc25b3e5eda0ad30441bd323965434fd7b4b52e82c2865958fbebaab901000000000000000000000000000000000000000000000000000000000000000000000000000000000000000000000000000000000000000000000000000000000000000000000000000000000000000000000000000000000000000000000000000000000000000000000000000000000000000000000000000000000000000000000000000000000000000000000000000000000000000000000000000000000000000000000000000000000000000000000000000000000000000000000000000000000000000000000000000000000000000000000000000000000000000000000000000000000000000000000000000000000000000000000000000000000083020000018407270e00830238228203e800a00000000000000000000000000000000000000000000000000000000000000000880000000000000000f8d2f8d0800a830f424094c1a66b5c6a64e3e0031be1e329b34ca971f5730b80b86f610064600081600b8239f3600160003514603f5801576002600035146024580157600360003514600858015760405801565b60015460005260206000f3602f5801565b60126001540160015500601f5801565b73c0f6dc9e5836f54caadbf59cc69346c508e1992bff60035801565b25a0c1c24d4cdd4cdcd20179ed3bc1fce0d3d23eae46c88a8a98c4af337089af0faea01318abe13fd5505c885f10f98c2137c2d11c6ddabed19832eddd3ee14529928ec0",
                "blocknumber": "1"
            }
        ],
        "sealEngine": "NoProof",
        "_info": {
            "hash": "0x3b37428845e206d9f614550a4badfd920f8e85c82d7cd2b9d1ec55abe1361d11",
            "fixture-format": "blockchain_test",
            "comment": "`execution-specs` generated test",
            "filling-transition-tool": "2.19.0",
            "description": "Create a dynamic contract that self-destructs, then call it to store some\ndata and then call it again to return that storage value.",
            "url": "https://github.com/ethereum/execution-specs/blob/tests-bal@v5.6.1/tests/frontier/create/test_create_suicide_store.py#L32",
            "metadata": {
                "opcode_count": {}
            }
        }
    }
}