{
    "tests/ported_static/stStaticCall/test_static_callcodecall_10_suicide_end2.py::test_static_callcodecall_10_suicide_end2[fork_Cancun-blockchain_test_from_state_test--v0]": {
        "network": "Cancun",
        "genesisBlockHeader": {
            "parentHash": "0x0000000000000000000000000000000000000000000000000000000000000000",
            "uncleHash": "0x1dcc4de8dec75d7aab85b567b6ccd41ad312451b948a7413f0a142fd40d49347",
            "coinbase": "0x0000000000000000000000000000000000000000",
            "stateRoot": "0xe471bf0b10d0e34128cd423e5fdb7cce03a63976e01ab5dfbe9bda2a745613fa",
            "transactionsTrie": "0x56e81f171bcc55a6ff8345e692c0f86e5b48e01b996cadc001622fb5e363b421",
            "receiptTrie": "0x56e81f171bcc55a6ff8345e692c0f86e5b48e01b996cadc001622fb5e363b421",
            "bloom": "0x00000000000000000000000000000000000000000000000000000000000000000000000000000000000000000000000000000000000000000000000000000000000000000000000000000000000000000000000000000000000000000000000000000000000000000000000000000000000000000000000000000000000000000000000000000000000000000000000000000000000000000000000000000000000000000000000000000000000000000000000000000000000000000000000000000000000000000000000000000000000000000000000000000000000000000000000000000000000000000000000000000000000000000000000000000000",
            "difficulty": "0x00",
            "number": "0x00",
            "gasLimit": "0x01c9c380",
            "gasUsed": "0x00",
            "timestamp": "0x00",
            "extraData": "0x00",
            "mixHash": "0x0000000000000000000000000000000000000000000000000000000000000000",
            "nonce": "0x0000000000000000",
            "baseFeePerGas": "0x0b",
            "withdrawalsRoot": "0x56e81f171bcc55a6ff8345e692c0f86e5b48e01b996cadc001622fb5e363b421",
            "blobGasUsed": "0x00",
            "excessBlobGas": "0x00",
            "parentBeaconBlockRoot": "0x0000000000000000000000000000000000000000000000000000000000000000",
            "hash": "0x92a7a6e43c763164a46352d4ca6bcca968048de891ec29d599789b8198dc5d99"
        },
        "pre": {
            "0x000f3df6d732807ef1319fb7b8bb8522d0beac02": {
                "nonce": "0x01",
                "balance": "0x00",
                "code": "0x3373fffffffffffffffffffffffffffffffffffffffe14604d57602036146024575f5ffd5b5f35801560495762001fff810690815414603c575f5ffd5b62001fff01545f5260205ff35b5f5ffd5b62001fff42064281555f359062001fff015500",
                "storage": {}
            },
            "0x44d09ddf088dd88c0e91fa7ef74973ff94ad7414": {
                "nonce": "0x00",
                "balance": "0x0de0b6b3a7640000",
                "code": "0x60406000604060003473b60789f240ac9f12fcde1e4bbd5042a7f30932d4620249f0f26000555a60015500",
                "storage": {}
            },
            "0xb60789f240ac9f12fcde1e4bbd5042a7f30932d4": {
                "nonce": "0x00",
                "balance": "0x02540be400",
                "code": "0x604060006040600073cfb5784a5e49924becc2d5c5d2ee0a9b141e621661c350fa507344d09ddf088dd88c0e91fa7ef74973ff94ad7414ff00",
                "storage": {}
            },
            "0xcfb5784a5e49924becc2d5c5d2ee0a9b141e6216": {
                "nonce": "0x00",
                "balance": "0x02540be400",
                "code": "0x600160025200",
                "storage": {}
            },
            "0xebaf50debf10e08302fe4280c32df010463ca297": {
                "nonce": "0x00",
                "balance": "0x0de0b6b3a7640000",
                "code": "0x",
                "storage": {}
            }
        },
        "postState": {
            "0x000f3df6d732807ef1319fb7b8bb8522d0beac02": {
                "nonce": "0x01",
                "balance": "0x00",
                "code": "0x3373fffffffffffffffffffffffffffffffffffffffe14604d57602036146024575f5ffd5b5f35801560495762001fff810690815414603c575f5ffd5b62001fff01545f5260205ff35b5f5ffd5b62001fff42064281555f359062001fff015500",
                "storage": {
                    "0x03e8": "0x03e8"
                }
            },
            "0x44d09ddf088dd88c0e91fa7ef74973ff94ad7414": {
                "nonce": "0x00",
                "balance": "0x0de0b6b3a7640000",
                "code": "0x60406000604060003473b60789f240ac9f12fcde1e4bbd5042a7f30932d4620249f0f26000555a60015500",
                "storage": {
                    "0x00": "0x01",
                    "0x01": "0x2cf641"
                }
            },
            "0xb60789f240ac9f12fcde1e4bbd5042a7f30932d4": {
                "nonce": "0x00",
                "balance": "0x02540be400",
                "code": "0x604060006040600073cfb5784a5e49924becc2d5c5d2ee0a9b141e621661c350fa507344d09ddf088dd88c0e91fa7ef74973ff94ad7414ff00",
                "storage": {}
            },
            "0xcfb5784a5e49924becc2d5c5d2ee0a9b141e6216": {
                "nonce": "0x00",
                "balance": "0x02540be400",
                "code": "0x600160025200",
                "storage": {}
            },
            "0xebaf50debf10e08302fe4280c32df010463ca297": {
                "nonce": "0x01",
                "balance": "0x0de0b6b3a7587ba4",
                "code": "0x",
                "storage": {}
            }
        },
        "lastblockhash": "0x6eac55025773de9b85703508629db6cd43c6ee44f6dac85b2e957a4cad009b0f",
        "config": {
            "network": "Cancun",
            "chainid": "0x01",
            "blobSchedule": {
                "Cancun": {
                    "target": "0x03",
                    "max": "0x06",
                    "baseFeeUpdateFraction": "0x32f0ed"
                }
            }
        },
        "genesisRLP": "0xf9023cf90236a00000000000000000000000000000000000000000000000000000000000000000a01dcc4de8dec75d7aab85b567b6ccd41ad312451b948a7413f0a142fd40d49347940000000000000000000000000000000000000000a0e471bf0b10d0e34128cd423e5fdb7cce03a63976e01ab5dfbe9bda2a745613faa056e81f171bcc55a6ff8345e692c0f86e5b48e01b996cadc001622fb5e363b421a056e81f171bcc55a6ff8345e692c0f86e5b48e01b996cadc001622fb5e363b421b901000000000000000000000000000000000000000000000000000000000000000000000000000000000000000000000000000000000000000000000000000000000000000000000000000000000000000000000000000000000000000000000000000000000000000000000000000000000000000000000000000000000000000000000000000000000000000000000000000000000000000000000000000000000000000000000000000000000000000000000000000000000000000000000000000000000000000000000000000000000000000000000000000000000000000000000000000000000000000000000000000000000000000000000000000000000080808401c9c380808000a000000000000000000000000000000000000000000000000000000000000000008800000000000000000ba056e81f171bcc55a6ff8345e692c0f86e5b48e01b996cadc001622fb5e363b4218080a00000000000000000000000000000000000000000000000000000000000000000c0c0c0",
        "blocks": [
            {
                "blockHeader": {
                    "parentHash": "0x92a7a6e43c763164a46352d4ca6bcca968048de891ec29d599789b8198dc5d99",
                    "uncleHash": "0x1dcc4de8dec75d7aab85b567b6ccd41ad312451b948a7413f0a142fd40d49347",
                    "coinbase": "0x2adc25665018aa1fe0e6bc666dac8fc2697ff9ba",
                    "stateRoot": "0x0f1210930217b6e531d424eb0b3d75192f4dbfc8b29a6cd6f44d1d1d05d598be",
                    "transactionsTrie": "0xf46f5b6e143479bf4c3bc40eeff98b2342562696709094915cdda9f44794793f",
                    "receiptTrie": "0x5e5197bf554c4a6994ac1be72753066db06882613fabd17df0997e7af9d4bff1",
                    "bloom": "0x00000000000000000000000000000000000000000000000000000000000000000000000000000000000000000000000000000000000000000000000000000000000000000000000000000000000000000000000000000000000000000000000000000000000000000000000000000000000000000000000000000000000000000000000000000000000000000000000000000000000000000000000000000000000000000000000000000000000000000000000000000000000000000000000000000000000000000000000000000000000000000000000000000000000000000000000000000000000000000000000000000000000000000000000000000000",
                    "difficulty": "0x00",
                    "number": "0x01",
                    "gasLimit": "0x01c9c380",
                    "gasUsed": "0x0126d6",
                    "timestamp": "0x03e8",
                    "extraData": "0x00",
                    "mixHash": "0x0000000000000000000000000000000000000000000000000000000000020000",
                    "nonce": "0x0000000000000000",
                    "baseFeePerGas": "0x0a",
                    "withdrawalsRoot": "0x56e81f171bcc55a6ff8345e692c0f86e5b48e01b996cadc001622fb5e363b421",
                    "blobGasUsed": "0x00",
                    "excessBlobGas": "0x00",
                    "parentBeaconBlockRoot": "0x0000000000000000000000000000000000000000000000000000000000000000",
                    "hash": "0x6eac55025773de9b85703508629db6cd43c6ee44f6dac85b2e957a4cad009b0f"
                },
                "transactions": [
                    {
                        "type": "0x00",
                        "chainId": "0x01",
                        "nonce": "0x00",
                        "gasPrice": "0x0a",
                        "gasLimit": "0x2dc6c0",
                        "to": "0x44d09ddf088dd88c0e91fa7ef74973ff94ad7414",
                        "value": "0x00",
                        "data": "0x",
                        "v": "0x26",
                        "r": "0x35f8efb93d9e325e7cf00635913091e52c80e8248da28042e04030e9993d6af6",
                        "s": "0x46a7aec9dacdf1ac74f3756dca93c1a15a10d2b07c2b3d5f5f1d4f9b8f07df5e",
                        "sender": "0xebaf50debf10e08302fe4280c32df010463ca297"
                    }
                ],
                "uncleHeaders": [],
                "withdrawals": [],
                "receipts": [
                    {
                        "transactionHash": "0xba488fb7dcce359f1b0707da4cb07adea9b90d5adffa544498a064f5f6a36870",
                        "type": "0x00",
                        "cumulativeGasUsed": "0x0126d6",
                        "bloom": "0x00000000000000000000000000000000000000000000000000000000000000000000000000000000000000000000000000000000000000000000000000000000000000000000000000000000000000000000000000000000000000000000000000000000000000000000000000000000000000000000000000000000000000000000000000000000000000000000000000000000000000000000000000000000000000000000000000000000000000000000000000000000000000000000000000000000000000000000000000000000000000000000000000000000000000000000000000000000000000000000000000000000000000000000000000000000",
                        "logs": [],
                        "status": true,
                        "rlp": "0xf9010901830126d6b9010000000000000000000000000000000000000000000000000000000000000000000000000000000000000000000000000000000000000000000000000000000000000000000000000000000000000000000000000000000000000000000000000000000000000000000000000000000000000000000000000000000000000000000000000000000000000000000000000000000000000000000000000000000000000000000000000000000000000000000000000000000000000000000000000000000000000000000000000000000000000000000000000000000000000000000000000000000000000000000000000000000000000000000000000000000000c0"
                    }
                ],
                "rlp": "0xf902a4f9023ba092a7a6e43c763164a46352d4ca6bcca968048de891ec29d599789b8198dc5d99a01dcc4de8dec75d7aab85b567b6ccd41ad312451b948a7413f0a142fd40d49347942adc25665018aa1fe0e6bc666dac8fc2697ff9baa00f1210930217b6e531d424eb0b3d75192f4dbfc8b29a6cd6f44d1d1d05d598bea0f46f5b6e143479bf4c3bc40eeff98b2342562696709094915cdda9f44794793fa05e5197bf554c4a6994ac1be72753066db06882613fabd17df0997e7af9d4bff1b901000000000000000000000000000000000000000000000000000000000000000000000000000000000000000000000000000000000000000000000000000000000000000000000000000000000000000000000000000000000000000000000000000000000000000000000000000000000000000000000000000000000000000000000000000000000000000000000000000000000000000000000000000000000000000000000000000000000000000000000000000000000000000000000000000000000000000000000000000000000000000000000000000000000000000000000000000000000000000000000000000000000000000000000000000000000080018401c9c380830126d68203e800a000000000000000000000000000000000000000000000000000000000000200008800000000000000000aa056e81f171bcc55a6ff8345e692c0f86e5b48e01b996cadc001622fb5e363b4218080a00000000000000000000000000000000000000000000000000000000000000000f862f860800a832dc6c09444d09ddf088dd88c0e91fa7ef74973ff94ad7414808026a035f8efb93d9e325e7cf00635913091e52c80e8248da28042e04030e9993d6af6a046a7aec9dacdf1ac74f3756dca93c1a15a10d2b07c2b3d5f5f1d4f9b8f07df5ec0c0",
                "blocknumber": "1"
            }
        ],
        "sealEngine": "NoProof",
        "_info": {
            "hash": "0x3bf20d48392fa8c189c37444e38183dca29b8f59d23ef637396b5933921d7a70",
            "fixture-format": "blockchain_test",
            "comment": "`execution-specs` generated test",
            "filling-transition-tool": "2.19.0",
            "description": "Test_static_callcodecall_10_suicide_end2.",
            "url": "https://github.com/ethereum/execution-specs/blob/tests-sn\u00f8bal-devnet-4@v1.0.0/tests/ported_static/stStaticCall/test_static_callcodecall_10_suicide_end2.py#L29",
            "metadata": {
                "opcode_count": {}
            }
        }
    },
    "tests/ported_static/stStaticCall/test_static_callcodecall_10_suicide_end2.py::test_static_callcodecall_10_suicide_end2[fork_Cancun-blockchain_test_from_state_test--v1]": {
        "network": "Cancun",
        "genesisBlockHeader": {
            "parentHash": "0x0000000000000000000000000000000000000000000000000000000000000000",
            "uncleHash": "0x1dcc4de8dec75d7aab85b567b6ccd41ad312451b948a7413f0a142fd40d49347",
            "coinbase": "0x0000000000000000000000000000000000000000",
            "stateRoot": "0xe471bf0b10d0e34128cd423e5fdb7cce03a63976e01ab5dfbe9bda2a745613fa",
            "transactionsTrie": "0x56e81f171bcc55a6ff8345e692c0f86e5b48e01b996cadc001622fb5e363b421",
            "receiptTrie": "0x56e81f171bcc55a6ff8345e692c0f86e5b48e01b996cadc001622fb5e363b421",
            "bloom": "0x00000000000000000000000000000000000000000000000000000000000000000000000000000000000000000000000000000000000000000000000000000000000000000000000000000000000000000000000000000000000000000000000000000000000000000000000000000000000000000000000000000000000000000000000000000000000000000000000000000000000000000000000000000000000000000000000000000000000000000000000000000000000000000000000000000000000000000000000000000000000000000000000000000000000000000000000000000000000000000000000000000000000000000000000000000000",
            "difficulty": "0x00",
            "number": "0x00",
            "gasLimit": "0x01c9c380",
            "gasUsed": "0x00",
            "timestamp": "0x00",
            "extraData": "0x00",
            "mixHash": "0x0000000000000000000000000000000000000000000000000000000000000000",
            "nonce": "0x0000000000000000",
            "baseFeePerGas": "0x0b",
            "withdrawalsRoot": "0x56e81f171bcc55a6ff8345e692c0f86e5b48e01b996cadc001622fb5e363b421",
            "blobGasUsed": "0x00",
            "excessBlobGas": "0x00",
            "parentBeaconBlockRoot": "0x0000000000000000000000000000000000000000000000000000000000000000",
            "hash": "0x92a7a6e43c763164a46352d4ca6bcca968048de891ec29d599789b8198dc5d99"
        },
        "pre": {
            "0x000f3df6d732807ef1319fb7b8bb8522d0beac02": {
                "nonce": "0x01",
                "balance": "0x00",
                "code": "0x3373fffffffffffffffffffffffffffffffffffffffe14604d57602036146024575f5ffd5b5f35801560495762001fff810690815414603c575f5ffd5b62001fff01545f5260205ff35b5f5ffd5b62001fff42064281555f359062001fff015500",
                "storage": {}
            },
            "0x44d09ddf088dd88c0e91fa7ef74973ff94ad7414": {
                "nonce": "0x00",
                "balance": "0x0de0b6b3a7640000",
                "code": "0x60406000604060003473b60789f240ac9f12fcde1e4bbd5042a7f30932d4620249f0f26000555a60015500",
                "storage": {}
            },
            "0xb60789f240ac9f12fcde1e4bbd5042a7f30932d4": {
                "nonce": "0x00",
                "balance": "0x02540be400",
                "code": "0x604060006040600073cfb5784a5e49924becc2d5c5d2ee0a9b141e621661c350fa507344d09ddf088dd88c0e91fa7ef74973ff94ad7414ff00",
                "storage": {}
            },
            "0xcfb5784a5e49924becc2d5c5d2ee0a9b141e6216": {
                "nonce": "0x00",
                "balance": "0x02540be400",
                "code": "0x600160025200",
                "storage": {}
            },
            "0xebaf50debf10e08302fe4280c32df010463ca297": {
                "nonce": "0x00",
                "balance": "0x0de0b6b3a7640000",
                "code": "0x",
                "storage": {}
            }
        },
        "postState": {
            "0x000f3df6d732807ef1319fb7b8bb8522d0beac02": {
                "nonce": "0x01",
                "balance": "0x00",
                "code": "0x3373fffffffffffffffffffffffffffffffffffffffe14604d57602036146024575f5ffd5b5f35801560495762001fff810690815414603c575f5ffd5b62001fff01545f5260205ff35b5f5ffd5b62001fff42064281555f359062001fff015500",
                "storage": {
                    "0x03e8": "0x03e8"
                }
            },
            "0x44d09ddf088dd88c0e91fa7ef74973ff94ad7414": {
                "nonce": "0x00",
                "balance": "0x0de0b6b3a7640001",
                "code": "0x60406000604060003473b60789f240ac9f12fcde1e4bbd5042a7f30932d4620249f0f26000555a60015500",
                "storage": {
                    "0x00": "0x01",
                    "0x01": "0x2cdc15"
                }
            },
            "0xb60789f240ac9f12fcde1e4bbd5042a7f30932d4": {
                "nonce": "0x00",
                "balance": "0x02540be400",
                "code": "0x604060006040600073cfb5784a5e49924becc2d5c5d2ee0a9b141e621661c350fa507344d09ddf088dd88c0e91fa7ef74973ff94ad7414ff00",
                "storage": {}
            },
            "0xcfb5784a5e49924becc2d5c5d2ee0a9b141e6216": {
                "nonce": "0x00",
                "balance": "0x02540be400",
                "code": "0x600160025200",
                "storage": {}
            },
            "0xebaf50debf10e08302fe4280c32df010463ca297": {
                "nonce": "0x01",
                "balance": "0x0de0b6b3a75775eb",
                "code": "0x",
                "storage": {}
            }
        },
        "lastblockhash": "0x49eab49b518aec45564807a6e1c55531f39065bf764391abf2859b3463d63428",
        "config": {
            "network": "Cancun",
            "chainid": "0x01",
            "blobSchedule": {
                "Cancun": {
                    "target": "0x03",
                    "max": "0x06",
                    "baseFeeUpdateFraction": "0x32f0ed"
                }
            }
        },
        "genesisRLP": "0xf9023cf90236a00000000000000000000000000000000000000000000000000000000000000000a01dcc4de8dec75d7aab85b567b6ccd41ad312451b948a7413f0a142fd40d49347940000000000000000000000000000000000000000a0e471bf0b10d0e34128cd423e5fdb7cce03a63976e01ab5dfbe9bda2a745613faa056e81f171bcc55a6ff8345e692c0f86e5b48e01b996cadc001622fb5e363b421a056e81f171bcc55a6ff8345e692c0f86e5b48e01b996cadc001622fb5e363b421b901000000000000000000000000000000000000000000000000000000000000000000000000000000000000000000000000000000000000000000000000000000000000000000000000000000000000000000000000000000000000000000000000000000000000000000000000000000000000000000000000000000000000000000000000000000000000000000000000000000000000000000000000000000000000000000000000000000000000000000000000000000000000000000000000000000000000000000000000000000000000000000000000000000000000000000000000000000000000000000000000000000000000000000000000000000000080808401c9c380808000a000000000000000000000000000000000000000000000000000000000000000008800000000000000000ba056e81f171bcc55a6ff8345e692c0f86e5b48e01b996cadc001622fb5e363b4218080a00000000000000000000000000000000000000000000000000000000000000000c0c0c0",
        "blocks": [
            {
                "blockHeader": {
                    "parentHash": "0x92a7a6e43c763164a46352d4ca6bcca968048de891ec29d599789b8198dc5d99",
                    "uncleHash": "0x1dcc4de8dec75d7aab85b567b6ccd41ad312451b948a7413f0a142fd40d49347",
                    "coinbase": "0x2adc25665018aa1fe0e6bc666dac8fc2697ff9ba",
                    "stateRoot": "0x2f35352705120e4ac5751be1404817fe906997e26003918eb3d6d6c98060bacd",
                    "transactionsTrie": "0x827058f2903a2de570c31f007ec5292ab11e44ae266f4b1c5d858260d30a4c36",
                    "receiptTrie": "0x0ffddd897103616060895eeb4544e1756eccd64419177c14c338a7f67719f9ae",
                    "bloom": "0x00000000000000000000000000000000000000000000000000000000000000000000000000000000000000000000000000000000000000000000000000000000000000000000000000000000000000000000000000000000000000000000000000000000000000000000000000000000000000000000000000000000000000000000000000000000000000000000000000000000000000000000000000000000000000000000000000000000000000000000000000000000000000000000000000000000000000000000000000000000000000000000000000000000000000000000000000000000000000000000000000000000000000000000000000000000",
                    "difficulty": "0x00",
                    "number": "0x01",
                    "gasLimit": "0x01c9c380",
                    "gasUsed": "0x014102",
                    "timestamp": "0x03e8",
                    "extraData": "0x00",
                    "mixHash": "0x0000000000000000000000000000000000000000000000000000000000020000",
                    "nonce": "0x0000000000000000",
                    "baseFeePerGas": "0x0a",
                    "withdrawalsRoot": "0x56e81f171bcc55a6ff8345e692c0f86e5b48e01b996cadc001622fb5e363b421",
                    "blobGasUsed": "0x00",
                    "excessBlobGas": "0x00",
                    "parentBeaconBlockRoot": "0x0000000000000000000000000000000000000000000000000000000000000000",
                    "hash": "0x49eab49b518aec45564807a6e1c55531f39065bf764391abf2859b3463d63428"
                },
                "transactions": [
                    {
                        "type": "0x00",
                        "chainId": "0x01",
                        "nonce": "0x00",
                        "gasPrice": "0x0a",
                        "gasLimit": "0x2dc6c0",
                        "to": "0x44d09ddf088dd88c0e91fa7ef74973ff94ad7414",
                        "value": "0x01",
                        "data": "0x",
                        "v": "0x25",
                        "r": "0x717832aeae4e247e528514290f5cecfaafee39815229c282425d91209a77e6f2",
                        "s": "0x5104c44dbb605c66eddc888c99cf6d68afe192dae44e74dd3ed720ed92cc3839",
                        "sender": "0xebaf50debf10e08302fe4280c32df010463ca297"
                    }
                ],
                "uncleHeaders": [],
                "withdrawals": [],
                "receipts": [
                    {
                        "transactionHash": "0x6780a33e92148c76d6104a8649cdd1b40239985c8d1fbc296107a93ad488d935",
                        "type": "0x00",
                        "cumulativeGasUsed": "0x014102",
                        "bloom": "0x00000000000000000000000000000000000000000000000000000000000000000000000000000000000000000000000000000000000000000000000000000000000000000000000000000000000000000000000000000000000000000000000000000000000000000000000000000000000000000000000000000000000000000000000000000000000000000000000000000000000000000000000000000000000000000000000000000000000000000000000000000000000000000000000000000000000000000000000000000000000000000000000000000000000000000000000000000000000000000000000000000000000000000000000000000000",
                        "logs": [],
                        "status": true,
                        "rlp": "0xf901090183014102b9010000000000000000000000000000000000000000000000000000000000000000000000000000000000000000000000000000000000000000000000000000000000000000000000000000000000000000000000000000000000000000000000000000000000000000000000000000000000000000000000000000000000000000000000000000000000000000000000000000000000000000000000000000000000000000000000000000000000000000000000000000000000000000000000000000000000000000000000000000000000000000000000000000000000000000000000000000000000000000000000000000000000000000000000000000000000c0"
                    }
                ],
                "rlp": "0xf902a4f9023ba092a7a6e43c763164a46352d4ca6bcca968048de891ec29d599789b8198dc5d99a01dcc4de8dec75d7aab85b567b6ccd41ad312451b948a7413f0a142fd40d49347942adc25665018aa1fe0e6bc666dac8fc2697ff9baa02f35352705120e4ac5751be1404817fe906997e26003918eb3d6d6c98060bacda0827058f2903a2de570c31f007ec5292ab11e44ae266f4b1c5d858260d30a4c36a00ffddd897103616060895eeb4544e1756eccd64419177c14c338a7f67719f9aeb901000000000000000000000000000000000000000000000000000000000000000000000000000000000000000000000000000000000000000000000000000000000000000000000000000000000000000000000000000000000000000000000000000000000000000000000000000000000000000000000000000000000000000000000000000000000000000000000000000000000000000000000000000000000000000000000000000000000000000000000000000000000000000000000000000000000000000000000000000000000000000000000000000000000000000000000000000000000000000000000000000000000000000000000000000000000080018401c9c380830141028203e800a000000000000000000000000000000000000000000000000000000000000200008800000000000000000aa056e81f171bcc55a6ff8345e692c0f86e5b48e01b996cadc001622fb5e363b4218080a00000000000000000000000000000000000000000000000000000000000000000f862f860800a832dc6c09444d09ddf088dd88c0e91fa7ef74973ff94ad7414018025a0717832aeae4e247e528514290f5cecfaafee39815229c282425d91209a77e6f2a05104c44dbb605c66eddc888c99cf6d68afe192dae44e74dd3ed720ed92cc3839c0c0",
                "blocknumber": "1"
            }
        ],
        "sealEngine": "NoProof",
        "_info": {
            "hash": "0x607db4e55be1270faf6a02114d031022a986edc11a3cb3cc069c0254003701bd",
            "fixture-format": "blockchain_test",
            "comment": "`execution-specs` generated test",
            "filling-transition-tool": "2.19.0",
            "description": "Test_static_callcodecall_10_suicide_end2.",
            "url": "https://github.com/ethereum/execution-specs/blob/tests-sn\u00f8bal-devnet-4@v1.0.0/tests/ported_static/stStaticCall/test_static_callcodecall_10_suicide_end2.py#L29",
            "metadata": {
                "opcode_count": {}
            }
        }
    }
}