{
    "tests/ported_static/stStaticCall/test_static_callcodecall_10_suicide_end2.py::test_static_callcodecall_10_suicide_end2[fork_Cancun-blockchain_test_from_state_test--v0]": {
        "network": "Cancun",
        "genesisBlockHeader": {
            "parentHash": "0x0000000000000000000000000000000000000000000000000000000000000000",
            "uncleHash": "0x1dcc4de8dec75d7aab85b567b6ccd41ad312451b948a7413f0a142fd40d49347",
            "coinbase": "0x0000000000000000000000000000000000000000",
            "stateRoot": "0x1d42fa85733ee8fca9d3a9c8cf0b5a081e98b806a27f06b5e7e8bca5baccaa68",
            "transactionsTrie": "0x56e81f171bcc55a6ff8345e692c0f86e5b48e01b996cadc001622fb5e363b421",
            "receiptTrie": "0x56e81f171bcc55a6ff8345e692c0f86e5b48e01b996cadc001622fb5e363b421",
            "bloom": "0x00000000000000000000000000000000000000000000000000000000000000000000000000000000000000000000000000000000000000000000000000000000000000000000000000000000000000000000000000000000000000000000000000000000000000000000000000000000000000000000000000000000000000000000000000000000000000000000000000000000000000000000000000000000000000000000000000000000000000000000000000000000000000000000000000000000000000000000000000000000000000000000000000000000000000000000000000000000000000000000000000000000000000000000000000000000",
            "difficulty": "0x00",
            "number": "0x00",
            "gasLimit": "0x01c9c380",
            "gasUsed": "0x00",
            "timestamp": "0x00",
            "extraData": "0x00",
            "mixHash": "0x0000000000000000000000000000000000000000000000000000000000000000",
            "nonce": "0x0000000000000000",
            "baseFeePerGas": "0x0b",
            "withdrawalsRoot": "0x56e81f171bcc55a6ff8345e692c0f86e5b48e01b996cadc001622fb5e363b421",
            "blobGasUsed": "0x00",
            "excessBlobGas": "0x00",
            "parentBeaconBlockRoot": "0x0000000000000000000000000000000000000000000000000000000000000000",
            "hash": "0x1880a25d78f0b6a32f52d82a31e41015703f998e7ae8c6a6236b74d3cc7e6c0a"
        },
        "pre": {
            "0x000f3df6d732807ef1319fb7b8bb8522d0beac02": {
                "nonce": "0x01",
                "balance": "0x00",
                "code": "0x3373fffffffffffffffffffffffffffffffffffffffe14604d57602036146024575f5ffd5b5f35801560495762001fff810690815414603c575f5ffd5b62001fff01545f5260205ff35b5f5ffd5b62001fff42064281555f359062001fff015500",
                "storage": {}
            },
            "0xd66f224cbd2fabb21b17bb53c56118f32f62ebd6": {
                "nonce": "0x00",
                "balance": "0x0de0b6b3a7640000",
                "code": "0x",
                "storage": {}
            },
            "0xcfb5784a5e49924becc2d5c5d2ee0a9b141e6216": {
                "nonce": "0x00",
                "balance": "0x02540be400",
                "code": "0x600160025200",
                "storage": {}
            },
            "0x44d09ddf088dd88c0e91fa7ef74973ff94ad7414": {
                "nonce": "0x00",
                "balance": "0x0de0b6b3a7640000",
                "code": "0x60406000604060003473b60789f240ac9f12fcde1e4bbd5042a7f30932d4620249f0f26000555a60015500",
                "storage": {}
            },
            "0xb60789f240ac9f12fcde1e4bbd5042a7f30932d4": {
                "nonce": "0x00",
                "balance": "0x02540be400",
                "code": "0x604060006040600073cfb5784a5e49924becc2d5c5d2ee0a9b141e621661c350fa507344d09ddf088dd88c0e91fa7ef74973ff94ad7414ff00",
                "storage": {}
            }
        },
        "postState": {
            "0x000f3df6d732807ef1319fb7b8bb8522d0beac02": {
                "nonce": "0x01",
                "balance": "0x00",
                "code": "0x3373fffffffffffffffffffffffffffffffffffffffe14604d57602036146024575f5ffd5b5f35801560495762001fff810690815414603c575f5ffd5b62001fff01545f5260205ff35b5f5ffd5b62001fff42064281555f359062001fff015500",
                "storage": {
                    "0x03e8": "0x03e8"
                }
            },
            "0xd66f224cbd2fabb21b17bb53c56118f32f62ebd6": {
                "nonce": "0x01",
                "balance": "0x0de0b6b3a7587ba4",
                "code": "0x",
                "storage": {}
            },
            "0xcfb5784a5e49924becc2d5c5d2ee0a9b141e6216": {
                "nonce": "0x00",
                "balance": "0x02540be400",
                "code": "0x600160025200",
                "storage": {}
            },
            "0x44d09ddf088dd88c0e91fa7ef74973ff94ad7414": {
                "nonce": "0x00",
                "balance": "0x0de0b6b3a7640000",
                "code": "0x60406000604060003473b60789f240ac9f12fcde1e4bbd5042a7f30932d4620249f0f26000555a60015500",
                "storage": {
                    "0x00": "0x01",
                    "0x01": "0x2cf641"
                }
            },
            "0xb60789f240ac9f12fcde1e4bbd5042a7f30932d4": {
                "nonce": "0x00",
                "balance": "0x02540be400",
                "code": "0x604060006040600073cfb5784a5e49924becc2d5c5d2ee0a9b141e621661c350fa507344d09ddf088dd88c0e91fa7ef74973ff94ad7414ff00",
                "storage": {}
            }
        },
        "lastblockhash": "0x6d48d8ed61533036db2d24bef4a8d4119d6f8ea60b445df7a4f94db103eb38d3",
        "config": {
            "network": "Cancun",
            "chainid": "0x01",
            "blobSchedule": {
                "Cancun": {
                    "target": "0x03",
                    "max": "0x06",
                    "baseFeeUpdateFraction": "0x32f0ed"
                }
            }
        },
        "genesisRLP": "0xf9023cf90236a00000000000000000000000000000000000000000000000000000000000000000a01dcc4de8dec75d7aab85b567b6ccd41ad312451b948a7413f0a142fd40d49347940000000000000000000000000000000000000000a01d42fa85733ee8fca9d3a9c8cf0b5a081e98b806a27f06b5e7e8bca5baccaa68a056e81f171bcc55a6ff8345e692c0f86e5b48e01b996cadc001622fb5e363b421a056e81f171bcc55a6ff8345e692c0f86e5b48e01b996cadc001622fb5e363b421b901000000000000000000000000000000000000000000000000000000000000000000000000000000000000000000000000000000000000000000000000000000000000000000000000000000000000000000000000000000000000000000000000000000000000000000000000000000000000000000000000000000000000000000000000000000000000000000000000000000000000000000000000000000000000000000000000000000000000000000000000000000000000000000000000000000000000000000000000000000000000000000000000000000000000000000000000000000000000000000000000000000000000000000000000000000000080808401c9c380808000a000000000000000000000000000000000000000000000000000000000000000008800000000000000000ba056e81f171bcc55a6ff8345e692c0f86e5b48e01b996cadc001622fb5e363b4218080a00000000000000000000000000000000000000000000000000000000000000000c0c0c0",
        "blocks": [
            {
                "blockHeader": {
                    "parentHash": "0x1880a25d78f0b6a32f52d82a31e41015703f998e7ae8c6a6236b74d3cc7e6c0a",
                    "uncleHash": "0x1dcc4de8dec75d7aab85b567b6ccd41ad312451b948a7413f0a142fd40d49347",
                    "coinbase": "0x2adc25665018aa1fe0e6bc666dac8fc2697ff9ba",
                    "stateRoot": "0x18e30070c6de556aa08bc9214da34fc674a85e68c9f2c62ba17541fd1441e32a",
                    "transactionsTrie": "0x50dfcf5bbe2896b87d60078b03a7e7130ceca573b3a66a6d12bb9b4a200c9793",
                    "receiptTrie": "0x5e5197bf554c4a6994ac1be72753066db06882613fabd17df0997e7af9d4bff1",
                    "bloom": "0x00000000000000000000000000000000000000000000000000000000000000000000000000000000000000000000000000000000000000000000000000000000000000000000000000000000000000000000000000000000000000000000000000000000000000000000000000000000000000000000000000000000000000000000000000000000000000000000000000000000000000000000000000000000000000000000000000000000000000000000000000000000000000000000000000000000000000000000000000000000000000000000000000000000000000000000000000000000000000000000000000000000000000000000000000000000",
                    "difficulty": "0x00",
                    "number": "0x01",
                    "gasLimit": "0x01c9c380",
                    "gasUsed": "0x0126d6",
                    "timestamp": "0x03e8",
                    "extraData": "0x00",
                    "mixHash": "0x0000000000000000000000000000000000000000000000000000000000020000",
                    "nonce": "0x0000000000000000",
                    "baseFeePerGas": "0x0a",
                    "withdrawalsRoot": "0x56e81f171bcc55a6ff8345e692c0f86e5b48e01b996cadc001622fb5e363b421",
                    "blobGasUsed": "0x00",
                    "excessBlobGas": "0x00",
                    "parentBeaconBlockRoot": "0x0000000000000000000000000000000000000000000000000000000000000000",
                    "hash": "0x6d48d8ed61533036db2d24bef4a8d4119d6f8ea60b445df7a4f94db103eb38d3"
                },
                "transactions": [
                    {
                        "type": "0x00",
                        "chainId": "0x01",
                        "nonce": "0x00",
                        "gasPrice": "0x0a",
                        "gasLimit": "0x2dc6c0",
                        "to": "0x44d09ddf088dd88c0e91fa7ef74973ff94ad7414",
                        "value": "0x00",
                        "data": "0x",
                        "v": "0x26",
                        "r": "0x19ff8ed3812e1ec78918eda143708e9387600d7367fd8dbffb37c8dfacab5b09",
                        "s": "0x31fd7473ae05bc8acd4915aa22d08a2778c215fce8de40813d7d008353db57f2",
                        "sender": "0xd66f224cbd2fabb21b17bb53c56118f32f62ebd6"
                    }
                ],
                "uncleHeaders": [],
                "withdrawals": [],
                "receipts": [
                    {
                        "transactionHash": "0x52521a925fe8f322fed72767dca69672c4e6e1fac92b3efadfec2229c0124202",
                        "type": "0x00",
                        "cumulativeGasUsed": "0x0126d6",
                        "bloom": "0x00000000000000000000000000000000000000000000000000000000000000000000000000000000000000000000000000000000000000000000000000000000000000000000000000000000000000000000000000000000000000000000000000000000000000000000000000000000000000000000000000000000000000000000000000000000000000000000000000000000000000000000000000000000000000000000000000000000000000000000000000000000000000000000000000000000000000000000000000000000000000000000000000000000000000000000000000000000000000000000000000000000000000000000000000000000",
                        "logs": [],
                        "status": true,
                        "rlp": "0xf9010901830126d6b9010000000000000000000000000000000000000000000000000000000000000000000000000000000000000000000000000000000000000000000000000000000000000000000000000000000000000000000000000000000000000000000000000000000000000000000000000000000000000000000000000000000000000000000000000000000000000000000000000000000000000000000000000000000000000000000000000000000000000000000000000000000000000000000000000000000000000000000000000000000000000000000000000000000000000000000000000000000000000000000000000000000000000000000000000000000000c0"
                    }
                ],
                "rlp": "0xf902a4f9023ba01880a25d78f0b6a32f52d82a31e41015703f998e7ae8c6a6236b74d3cc7e6c0aa01dcc4de8dec75d7aab85b567b6ccd41ad312451b948a7413f0a142fd40d49347942adc25665018aa1fe0e6bc666dac8fc2697ff9baa018e30070c6de556aa08bc9214da34fc674a85e68c9f2c62ba17541fd1441e32aa050dfcf5bbe2896b87d60078b03a7e7130ceca573b3a66a6d12bb9b4a200c9793a05e5197bf554c4a6994ac1be72753066db06882613fabd17df0997e7af9d4bff1b901000000000000000000000000000000000000000000000000000000000000000000000000000000000000000000000000000000000000000000000000000000000000000000000000000000000000000000000000000000000000000000000000000000000000000000000000000000000000000000000000000000000000000000000000000000000000000000000000000000000000000000000000000000000000000000000000000000000000000000000000000000000000000000000000000000000000000000000000000000000000000000000000000000000000000000000000000000000000000000000000000000000000000000000000000000000080018401c9c380830126d68203e800a000000000000000000000000000000000000000000000000000000000000200008800000000000000000aa056e81f171bcc55a6ff8345e692c0f86e5b48e01b996cadc001622fb5e363b4218080a00000000000000000000000000000000000000000000000000000000000000000f862f860800a832dc6c09444d09ddf088dd88c0e91fa7ef74973ff94ad7414808026a019ff8ed3812e1ec78918eda143708e9387600d7367fd8dbffb37c8dfacab5b09a031fd7473ae05bc8acd4915aa22d08a2778c215fce8de40813d7d008353db57f2c0c0",
                "blocknumber": "1"
            }
        ],
        "sealEngine": "NoProof",
        "_info": {
            "hash": "0x29a05605c37043fe528eefe7d6523d4e589e25d50342cd2c33b8a5f0b23a32f6",
            "fixture-format": "blockchain_test",
            "comment": "`execution-specs` generated test",
            "filling-transition-tool": "2.19.0",
            "description": "Test_static_callcodecall_10_suicide_end2.",
            "url": "https://github.com/ethereum/execution-specs/blob/tests-snobal-devnet-5@v8037.0.0/tests/ported_static/stStaticCall/test_static_callcodecall_10_suicide_end2.py#L28",
            "metadata": {
                "opcode_count": {}
            }
        }
    },
    "tests/ported_static/stStaticCall/test_static_callcodecall_10_suicide_end2.py::test_static_callcodecall_10_suicide_end2[fork_Cancun-blockchain_test_from_state_test--v1]": {
        "network": "Cancun",
        "genesisBlockHeader": {
            "parentHash": "0x0000000000000000000000000000000000000000000000000000000000000000",
            "uncleHash": "0x1dcc4de8dec75d7aab85b567b6ccd41ad312451b948a7413f0a142fd40d49347",
            "coinbase": "0x0000000000000000000000000000000000000000",
            "stateRoot": "0x1d42fa85733ee8fca9d3a9c8cf0b5a081e98b806a27f06b5e7e8bca5baccaa68",
            "transactionsTrie": "0x56e81f171bcc55a6ff8345e692c0f86e5b48e01b996cadc001622fb5e363b421",
            "receiptTrie": "0x56e81f171bcc55a6ff8345e692c0f86e5b48e01b996cadc001622fb5e363b421",
            "bloom": "0x00000000000000000000000000000000000000000000000000000000000000000000000000000000000000000000000000000000000000000000000000000000000000000000000000000000000000000000000000000000000000000000000000000000000000000000000000000000000000000000000000000000000000000000000000000000000000000000000000000000000000000000000000000000000000000000000000000000000000000000000000000000000000000000000000000000000000000000000000000000000000000000000000000000000000000000000000000000000000000000000000000000000000000000000000000000",
            "difficulty": "0x00",
            "number": "0x00",
            "gasLimit": "0x01c9c380",
            "gasUsed": "0x00",
            "timestamp": "0x00",
            "extraData": "0x00",
            "mixHash": "0x0000000000000000000000000000000000000000000000000000000000000000",
            "nonce": "0x0000000000000000",
            "baseFeePerGas": "0x0b",
            "withdrawalsRoot": "0x56e81f171bcc55a6ff8345e692c0f86e5b48e01b996cadc001622fb5e363b421",
            "blobGasUsed": "0x00",
            "excessBlobGas": "0x00",
            "parentBeaconBlockRoot": "0x0000000000000000000000000000000000000000000000000000000000000000",
            "hash": "0x1880a25d78f0b6a32f52d82a31e41015703f998e7ae8c6a6236b74d3cc7e6c0a"
        },
        "pre": {
            "0x000f3df6d732807ef1319fb7b8bb8522d0beac02": {
                "nonce": "0x01",
                "balance": "0x00",
                "code": "0x3373fffffffffffffffffffffffffffffffffffffffe14604d57602036146024575f5ffd5b5f35801560495762001fff810690815414603c575f5ffd5b62001fff01545f5260205ff35b5f5ffd5b62001fff42064281555f359062001fff015500",
                "storage": {}
            },
            "0xd66f224cbd2fabb21b17bb53c56118f32f62ebd6": {
                "nonce": "0x00",
                "balance": "0x0de0b6b3a7640000",
                "code": "0x",
                "storage": {}
            },
            "0xcfb5784a5e49924becc2d5c5d2ee0a9b141e6216": {
                "nonce": "0x00",
                "balance": "0x02540be400",
                "code": "0x600160025200",
                "storage": {}
            },
            "0x44d09ddf088dd88c0e91fa7ef74973ff94ad7414": {
                "nonce": "0x00",
                "balance": "0x0de0b6b3a7640000",
                "code": "0x60406000604060003473b60789f240ac9f12fcde1e4bbd5042a7f30932d4620249f0f26000555a60015500",
                "storage": {}
            },
            "0xb60789f240ac9f12fcde1e4bbd5042a7f30932d4": {
                "nonce": "0x00",
                "balance": "0x02540be400",
                "code": "0x604060006040600073cfb5784a5e49924becc2d5c5d2ee0a9b141e621661c350fa507344d09ddf088dd88c0e91fa7ef74973ff94ad7414ff00",
                "storage": {}
            }
        },
        "postState": {
            "0x000f3df6d732807ef1319fb7b8bb8522d0beac02": {
                "nonce": "0x01",
                "balance": "0x00",
                "code": "0x3373fffffffffffffffffffffffffffffffffffffffe14604d57602036146024575f5ffd5b5f35801560495762001fff810690815414603c575f5ffd5b62001fff01545f5260205ff35b5f5ffd5b62001fff42064281555f359062001fff015500",
                "storage": {
                    "0x03e8": "0x03e8"
                }
            },
            "0xd66f224cbd2fabb21b17bb53c56118f32f62ebd6": {
                "nonce": "0x01",
                "balance": "0x0de0b6b3a75775eb",
                "code": "0x",
                "storage": {}
            },
            "0xcfb5784a5e49924becc2d5c5d2ee0a9b141e6216": {
                "nonce": "0x00",
                "balance": "0x02540be400",
                "code": "0x600160025200",
                "storage": {}
            },
            "0x44d09ddf088dd88c0e91fa7ef74973ff94ad7414": {
                "nonce": "0x00",
                "balance": "0x0de0b6b3a7640001",
                "code": "0x60406000604060003473b60789f240ac9f12fcde1e4bbd5042a7f30932d4620249f0f26000555a60015500",
                "storage": {
                    "0x00": "0x01",
                    "0x01": "0x2cdc15"
                }
            },
            "0xb60789f240ac9f12fcde1e4bbd5042a7f30932d4": {
                "nonce": "0x00",
                "balance": "0x02540be400",
                "code": "0x604060006040600073cfb5784a5e49924becc2d5c5d2ee0a9b141e621661c350fa507344d09ddf088dd88c0e91fa7ef74973ff94ad7414ff00",
                "storage": {}
            }
        },
        "lastblockhash": "0xa7f490f123f5cb218c373fb806f7be1930529d3ba66ba2268f545f343369506f",
        "config": {
            "network": "Cancun",
            "chainid": "0x01",
            "blobSchedule": {
                "Cancun": {
                    "target": "0x03",
                    "max": "0x06",
                    "baseFeeUpdateFraction": "0x32f0ed"
                }
            }
        },
        "genesisRLP": "0xf9023cf90236a00000000000000000000000000000000000000000000000000000000000000000a01dcc4de8dec75d7aab85b567b6ccd41ad312451b948a7413f0a142fd40d49347940000000000000000000000000000000000000000a01d42fa85733ee8fca9d3a9c8cf0b5a081e98b806a27f06b5e7e8bca5baccaa68a056e81f171bcc55a6ff8345e692c0f86e5b48e01b996cadc001622fb5e363b421a056e81f171bcc55a6ff8345e692c0f86e5b48e01b996cadc001622fb5e363b421b901000000000000000000000000000000000000000000000000000000000000000000000000000000000000000000000000000000000000000000000000000000000000000000000000000000000000000000000000000000000000000000000000000000000000000000000000000000000000000000000000000000000000000000000000000000000000000000000000000000000000000000000000000000000000000000000000000000000000000000000000000000000000000000000000000000000000000000000000000000000000000000000000000000000000000000000000000000000000000000000000000000000000000000000000000000000080808401c9c380808000a000000000000000000000000000000000000000000000000000000000000000008800000000000000000ba056e81f171bcc55a6ff8345e692c0f86e5b48e01b996cadc001622fb5e363b4218080a00000000000000000000000000000000000000000000000000000000000000000c0c0c0",
        "blocks": [
            {
                "blockHeader": {
                    "parentHash": "0x1880a25d78f0b6a32f52d82a31e41015703f998e7ae8c6a6236b74d3cc7e6c0a",
                    "uncleHash": "0x1dcc4de8dec75d7aab85b567b6ccd41ad312451b948a7413f0a142fd40d49347",
                    "coinbase": "0x2adc25665018aa1fe0e6bc666dac8fc2697ff9ba",
                    "stateRoot": "0xa09472f25c6e62051041f9f24aa4a6ff348af64b8366e7f7ada33363ef2d3b37",
                    "transactionsTrie": "0x3ab2d1fbac2db2119c6cffa56e333fe44f479c16ebe06f5f32ec45a5b17851ad",
                    "receiptTrie": "0x0ffddd897103616060895eeb4544e1756eccd64419177c14c338a7f67719f9ae",
                    "bloom": "0x00000000000000000000000000000000000000000000000000000000000000000000000000000000000000000000000000000000000000000000000000000000000000000000000000000000000000000000000000000000000000000000000000000000000000000000000000000000000000000000000000000000000000000000000000000000000000000000000000000000000000000000000000000000000000000000000000000000000000000000000000000000000000000000000000000000000000000000000000000000000000000000000000000000000000000000000000000000000000000000000000000000000000000000000000000000",
                    "difficulty": "0x00",
                    "number": "0x01",
                    "gasLimit": "0x01c9c380",
                    "gasUsed": "0x014102",
                    "timestamp": "0x03e8",
                    "extraData": "0x00",
                    "mixHash": "0x0000000000000000000000000000000000000000000000000000000000020000",
                    "nonce": "0x0000000000000000",
                    "baseFeePerGas": "0x0a",
                    "withdrawalsRoot": "0x56e81f171bcc55a6ff8345e692c0f86e5b48e01b996cadc001622fb5e363b421",
                    "blobGasUsed": "0x00",
                    "excessBlobGas": "0x00",
                    "parentBeaconBlockRoot": "0x0000000000000000000000000000000000000000000000000000000000000000",
                    "hash": "0xa7f490f123f5cb218c373fb806f7be1930529d3ba66ba2268f545f343369506f"
                },
                "transactions": [
                    {
                        "type": "0x00",
                        "chainId": "0x01",
                        "nonce": "0x00",
                        "gasPrice": "0x0a",
                        "gasLimit": "0x2dc6c0",
                        "to": "0x44d09ddf088dd88c0e91fa7ef74973ff94ad7414",
                        "value": "0x01",
                        "data": "0x",
                        "v": "0x25",
                        "r": "0x691372394329d4ca497814b511c760589846310edf5a9c5694649a3a4c75cb4e",
                        "s": "0x45b4bb2f20aa78810962a1e432797dcfbcb4e9bceda0fae7e7e5752f42712fdd",
                        "sender": "0xd66f224cbd2fabb21b17bb53c56118f32f62ebd6"
                    }
                ],
                "uncleHeaders": [],
                "withdrawals": [],
                "receipts": [
                    {
                        "transactionHash": "0xcea372cf5879fccbd710a961ef0db958777fa17f930729d7af0361e2ba8d459b",
                        "type": "0x00",
                        "cumulativeGasUsed": "0x014102",
                        "bloom": "0x00000000000000000000000000000000000000000000000000000000000000000000000000000000000000000000000000000000000000000000000000000000000000000000000000000000000000000000000000000000000000000000000000000000000000000000000000000000000000000000000000000000000000000000000000000000000000000000000000000000000000000000000000000000000000000000000000000000000000000000000000000000000000000000000000000000000000000000000000000000000000000000000000000000000000000000000000000000000000000000000000000000000000000000000000000000",
                        "logs": [],
                        "status": true,
                        "rlp": "0xf901090183014102b9010000000000000000000000000000000000000000000000000000000000000000000000000000000000000000000000000000000000000000000000000000000000000000000000000000000000000000000000000000000000000000000000000000000000000000000000000000000000000000000000000000000000000000000000000000000000000000000000000000000000000000000000000000000000000000000000000000000000000000000000000000000000000000000000000000000000000000000000000000000000000000000000000000000000000000000000000000000000000000000000000000000000000000000000000000000000c0"
                    }
                ],
                "rlp": "0xf902a4f9023ba01880a25d78f0b6a32f52d82a31e41015703f998e7ae8c6a6236b74d3cc7e6c0aa01dcc4de8dec75d7aab85b567b6ccd41ad312451b948a7413f0a142fd40d49347942adc25665018aa1fe0e6bc666dac8fc2697ff9baa0a09472f25c6e62051041f9f24aa4a6ff348af64b8366e7f7ada33363ef2d3b37a03ab2d1fbac2db2119c6cffa56e333fe44f479c16ebe06f5f32ec45a5b17851ada00ffddd897103616060895eeb4544e1756eccd64419177c14c338a7f67719f9aeb901000000000000000000000000000000000000000000000000000000000000000000000000000000000000000000000000000000000000000000000000000000000000000000000000000000000000000000000000000000000000000000000000000000000000000000000000000000000000000000000000000000000000000000000000000000000000000000000000000000000000000000000000000000000000000000000000000000000000000000000000000000000000000000000000000000000000000000000000000000000000000000000000000000000000000000000000000000000000000000000000000000000000000000000000000000000080018401c9c380830141028203e800a000000000000000000000000000000000000000000000000000000000000200008800000000000000000aa056e81f171bcc55a6ff8345e692c0f86e5b48e01b996cadc001622fb5e363b4218080a00000000000000000000000000000000000000000000000000000000000000000f862f860800a832dc6c09444d09ddf088dd88c0e91fa7ef74973ff94ad7414018025a0691372394329d4ca497814b511c760589846310edf5a9c5694649a3a4c75cb4ea045b4bb2f20aa78810962a1e432797dcfbcb4e9bceda0fae7e7e5752f42712fddc0c0",
                "blocknumber": "1"
            }
        ],
        "sealEngine": "NoProof",
        "_info": {
            "hash": "0x40d780582c9e0bf823304c908667146b3b1ca9edf828a5482bd8bdeeae9b0219",
            "fixture-format": "blockchain_test",
            "comment": "`execution-specs` generated test",
            "filling-transition-tool": "2.19.0",
            "description": "Test_static_callcodecall_10_suicide_end2.",
            "url": "https://github.com/ethereum/execution-specs/blob/tests-snobal-devnet-5@v8037.0.0/tests/ported_static/stStaticCall/test_static_callcodecall_10_suicide_end2.py#L28",
            "metadata": {
                "opcode_count": {}
            }
        }
    }
}