{
    "tests/ported_static/stStaticCall/test_static_check_call_cost_oog.py::test_static_check_call_cost_oog[fork_Cancun-blockchain_test_from_state_test--g0]": {
        "network": "Cancun",
        "genesisBlockHeader": {
            "parentHash": "0x0000000000000000000000000000000000000000000000000000000000000000",
            "uncleHash": "0x1dcc4de8dec75d7aab85b567b6ccd41ad312451b948a7413f0a142fd40d49347",
            "coinbase": "0x0000000000000000000000000000000000000000",
            "stateRoot": "0x2e8af32253fd9a8042e0cc6864e5347d2a7aa7482ae52369d79a5c24163471b6",
            "transactionsTrie": "0x56e81f171bcc55a6ff8345e692c0f86e5b48e01b996cadc001622fb5e363b421",
            "receiptTrie": "0x56e81f171bcc55a6ff8345e692c0f86e5b48e01b996cadc001622fb5e363b421",
            "bloom": "0x00000000000000000000000000000000000000000000000000000000000000000000000000000000000000000000000000000000000000000000000000000000000000000000000000000000000000000000000000000000000000000000000000000000000000000000000000000000000000000000000000000000000000000000000000000000000000000000000000000000000000000000000000000000000000000000000000000000000000000000000000000000000000000000000000000000000000000000000000000000000000000000000000000000000000000000000000000000000000000000000000000000000000000000000000000000",
            "difficulty": "0x00",
            "number": "0x00",
            "gasLimit": "0x989680",
            "gasUsed": "0x00",
            "timestamp": "0x00",
            "extraData": "0x00",
            "mixHash": "0x0000000000000000000000000000000000000000000000000000000000000000",
            "nonce": "0x0000000000000000",
            "baseFeePerGas": "0x0b",
            "withdrawalsRoot": "0x56e81f171bcc55a6ff8345e692c0f86e5b48e01b996cadc001622fb5e363b421",
            "blobGasUsed": "0x00",
            "excessBlobGas": "0x00",
            "parentBeaconBlockRoot": "0x0000000000000000000000000000000000000000000000000000000000000000",
            "hash": "0xb4865a4df1a47d06b207827c134e9154a2d3f58dbecd3a63ce803656a8f9ebd1"
        },
        "pre": {
            "0x000f3df6d732807ef1319fb7b8bb8522d0beac02": {
                "nonce": "0x01",
                "balance": "0x00",
                "code": "0x3373fffffffffffffffffffffffffffffffffffffffe14604d57602036146024575f5ffd5b5f35801560495762001fff810690815414603c575f5ffd5b62001fff01545f5260205ff35b5f5ffd5b62001fff42064281555f359062001fff015500",
                "storage": {}
            },
            "0x4cc525271527fd5fdc39b618a6fae7b781c5b4b6": {
                "nonce": "0x00",
                "balance": "0x5af3107a4000",
                "code": "0x",
                "storage": {}
            },
            "0xaedb765e00fb3fe326cbd2d72626c5afd9649bf4": {
                "nonce": "0x00",
                "balance": "0x00",
                "code": "0x6001600152622fffff60002000",
                "storage": {}
            },
            "0xc9fb129c1ad93694be07b671c55acbe59e26c19e": {
                "nonce": "0x00",
                "balance": "0x00",
                "code": "0x600060006000600073aedb765e00fb3fe326cbd2d72626c5afd9649bf46064fa00",
                "storage": {}
            }
        },
        "postState": {
            "0x000f3df6d732807ef1319fb7b8bb8522d0beac02": {
                "nonce": "0x01",
                "balance": "0x00",
                "code": "0x3373fffffffffffffffffffffffffffffffffffffffe14604d57602036146024575f5ffd5b5f35801560495762001fff810690815414603c575f5ffd5b62001fff01545f5260205ff35b5f5ffd5b62001fff42064281555f359062001fff015500",
                "storage": {
                    "0x03e8": "0x03e8"
                }
            },
            "0x4cc525271527fd5fdc39b618a6fae7b781c5b4b6": {
                "nonce": "0x01",
                "balance": "0x5af31076e4a0",
                "code": "0x",
                "storage": {}
            },
            "0xaedb765e00fb3fe326cbd2d72626c5afd9649bf4": {
                "nonce": "0x00",
                "balance": "0x00",
                "code": "0x6001600152622fffff60002000",
                "storage": {}
            },
            "0xc9fb129c1ad93694be07b671c55acbe59e26c19e": {
                "nonce": "0x00",
                "balance": "0x00",
                "code": "0x600060006000600073aedb765e00fb3fe326cbd2d72626c5afd9649bf46064fa00",
                "storage": {}
            }
        },
        "lastblockhash": "0x91735bb66a56b8fa09982a803bfc61b6c44e6f87c0d97224f25f27efd7f4f7fd",
        "config": {
            "network": "Cancun",
            "chainid": "0x01",
            "blobSchedule": {
                "Cancun": {
                    "target": "0x03",
                    "max": "0x06",
                    "baseFeeUpdateFraction": "0x32f0ed"
                }
            }
        },
        "genesisRLP": "0xf9023bf90235a00000000000000000000000000000000000000000000000000000000000000000a01dcc4de8dec75d7aab85b567b6ccd41ad312451b948a7413f0a142fd40d49347940000000000000000000000000000000000000000a02e8af32253fd9a8042e0cc6864e5347d2a7aa7482ae52369d79a5c24163471b6a056e81f171bcc55a6ff8345e692c0f86e5b48e01b996cadc001622fb5e363b421a056e81f171bcc55a6ff8345e692c0f86e5b48e01b996cadc001622fb5e363b421b9010000000000000000000000000000000000000000000000000000000000000000000000000000000000000000000000000000000000000000000000000000000000000000000000000000000000000000000000000000000000000000000000000000000000000000000000000000000000000000000000000000000000000000000000000000000000000000000000000000000000000000000000000000000000000000000000000000000000000000000000000000000000000000000000000000000000000000000000000000000000000000000000000000000000000000000000000000000000000000000000000000000000000000000000000000000000808083989680808000a000000000000000000000000000000000000000000000000000000000000000008800000000000000000ba056e81f171bcc55a6ff8345e692c0f86e5b48e01b996cadc001622fb5e363b4218080a00000000000000000000000000000000000000000000000000000000000000000c0c0c0",
        "blocks": [
            {
                "blockHeader": {
                    "parentHash": "0xb4865a4df1a47d06b207827c134e9154a2d3f58dbecd3a63ce803656a8f9ebd1",
                    "uncleHash": "0x1dcc4de8dec75d7aab85b567b6ccd41ad312451b948a7413f0a142fd40d49347",
                    "coinbase": "0x2adc25665018aa1fe0e6bc666dac8fc2697ff9ba",
                    "stateRoot": "0x95f2a6e5daa3442fd0991d5b97f313776ad995a2d7d7fa4945665d48099d81eb",
                    "transactionsTrie": "0xd7e91ee56333d15a7b56dc5c9071ea1e05e0597dbd479470b77ea34cc822e3b3",
                    "receiptTrie": "0xa6bc9035e6d8412a5cae112c9571af88f6aeb395cbd0a90eb273e0fd74502696",
                    "bloom": "0x00000000000000000000000000000000000000000000000000000000000000000000000000000000000000000000000000000000000000000000000000000000000000000000000000000000000000000000000000000000000000000000000000000000000000000000000000000000000000000000000000000000000000000000000000000000000000000000000000000000000000000000000000000000000000000000000000000000000000000000000000000000000000000000000000000000000000000000000000000000000000000000000000000000000000000000000000000000000000000000000000000000000000000000000000000000",
                    "difficulty": "0x00",
                    "number": "0x01",
                    "gasLimit": "0x989680",
                    "gasUsed": "0x55f0",
                    "timestamp": "0x03e8",
                    "extraData": "0x00",
                    "mixHash": "0x0000000000000000000000000000000000000000000000000000000000020000",
                    "nonce": "0x0000000000000000",
                    "baseFeePerGas": "0x0a",
                    "withdrawalsRoot": "0x56e81f171bcc55a6ff8345e692c0f86e5b48e01b996cadc001622fb5e363b421",
                    "blobGasUsed": "0x00",
                    "excessBlobGas": "0x00",
                    "parentBeaconBlockRoot": "0x0000000000000000000000000000000000000000000000000000000000000000",
                    "hash": "0x91735bb66a56b8fa09982a803bfc61b6c44e6f87c0d97224f25f27efd7f4f7fd"
                },
                "transactions": [
                    {
                        "type": "0x00",
                        "chainId": "0x01",
                        "nonce": "0x00",
                        "gasPrice": "0x0a",
                        "gasLimit": "0x55f0",
                        "to": "0xc9fb129c1ad93694be07b671c55acbe59e26c19e",
                        "value": "0x00",
                        "data": "0x",
                        "v": "0x25",
                        "r": "0x6c3ccac8d633f7b8bfc16170fbe5d8d4c7cd64875073222f1937dab7d37de602",
                        "s": "0x0645fec8cc65ce0f5a4dcda66c882a4d992dc2880afac8e823ba66cc014b9d5e",
                        "sender": "0x4cc525271527fd5fdc39b618a6fae7b781c5b4b6"
                    }
                ],
                "uncleHeaders": [],
                "withdrawals": [],
                "receipts": [
                    {
                        "transactionHash": "0xd9581ac3b09fe6eef06742b7e776f95328ea17188f438c2a78b7b5ff95b5fabb",
                        "type": "0x00",
                        "cumulativeGasUsed": "0x55f0",
                        "bloom": "0x00000000000000000000000000000000000000000000000000000000000000000000000000000000000000000000000000000000000000000000000000000000000000000000000000000000000000000000000000000000000000000000000000000000000000000000000000000000000000000000000000000000000000000000000000000000000000000000000000000000000000000000000000000000000000000000000000000000000000000000000000000000000000000000000000000000000000000000000000000000000000000000000000000000000000000000000000000000000000000000000000000000000000000000000000000000",
                        "logs": [],
                        "status": false,
                        "rlp": "0xf90108808255f0b9010000000000000000000000000000000000000000000000000000000000000000000000000000000000000000000000000000000000000000000000000000000000000000000000000000000000000000000000000000000000000000000000000000000000000000000000000000000000000000000000000000000000000000000000000000000000000000000000000000000000000000000000000000000000000000000000000000000000000000000000000000000000000000000000000000000000000000000000000000000000000000000000000000000000000000000000000000000000000000000000000000000000000000000000000000000000c0"
                    }
                ],
                "rlp": "0xf902a1f90239a0b4865a4df1a47d06b207827c134e9154a2d3f58dbecd3a63ce803656a8f9ebd1a01dcc4de8dec75d7aab85b567b6ccd41ad312451b948a7413f0a142fd40d49347942adc25665018aa1fe0e6bc666dac8fc2697ff9baa095f2a6e5daa3442fd0991d5b97f313776ad995a2d7d7fa4945665d48099d81eba0d7e91ee56333d15a7b56dc5c9071ea1e05e0597dbd479470b77ea34cc822e3b3a0a6bc9035e6d8412a5cae112c9571af88f6aeb395cbd0a90eb273e0fd74502696b90100000000000000000000000000000000000000000000000000000000000000000000000000000000000000000000000000000000000000000000000000000000000000000000000000000000000000000000000000000000000000000000000000000000000000000000000000000000000000000000000000000000000000000000000000000000000000000000000000000000000000000000000000000000000000000000000000000000000000000000000000000000000000000000000000000000000000000000000000000000000000000000000000000000000000000000000000000000000000000000000000000000000000000000000000000000008001839896808255f08203e800a000000000000000000000000000000000000000000000000000000000000200008800000000000000000aa056e81f171bcc55a6ff8345e692c0f86e5b48e01b996cadc001622fb5e363b4218080a00000000000000000000000000000000000000000000000000000000000000000f861f85f800a8255f094c9fb129c1ad93694be07b671c55acbe59e26c19e808025a06c3ccac8d633f7b8bfc16170fbe5d8d4c7cd64875073222f1937dab7d37de602a00645fec8cc65ce0f5a4dcda66c882a4d992dc2880afac8e823ba66cc014b9d5ec0c0",
                "blocknumber": "1"
            }
        ],
        "sealEngine": "NoProof",
        "_info": {
            "hash": "0x508a95d1becde28a1d6a00a424da37948aba93516a0d739ef0ad607f88829e22",
            "fixture-format": "blockchain_test",
            "comment": "`execution-specs` generated test",
            "filling-transition-tool": "2.19.0",
            "description": "Check balance in blackbox, just fill the balance consumed.",
            "url": "https://github.com/ethereum/execution-specs/blob/tests-snobal-devnet-5@v8037.0.0/tests/ported_static/stStaticCall/test_static_check_call_cost_oog.py#L25",
            "metadata": {
                "opcode_count": {}
            }
        }
    },
    "tests/ported_static/stStaticCall/test_static_check_call_cost_oog.py::test_static_check_call_cost_oog[fork_Cancun-blockchain_test_from_state_test--g1]": {
        "network": "Cancun",
        "genesisBlockHeader": {
            "parentHash": "0x0000000000000000000000000000000000000000000000000000000000000000",
            "uncleHash": "0x1dcc4de8dec75d7aab85b567b6ccd41ad312451b948a7413f0a142fd40d49347",
            "coinbase": "0x0000000000000000000000000000000000000000",
            "stateRoot": "0x2e8af32253fd9a8042e0cc6864e5347d2a7aa7482ae52369d79a5c24163471b6",
            "transactionsTrie": "0x56e81f171bcc55a6ff8345e692c0f86e5b48e01b996cadc001622fb5e363b421",
            "receiptTrie": "0x56e81f171bcc55a6ff8345e692c0f86e5b48e01b996cadc001622fb5e363b421",
            "bloom": "0x00000000000000000000000000000000000000000000000000000000000000000000000000000000000000000000000000000000000000000000000000000000000000000000000000000000000000000000000000000000000000000000000000000000000000000000000000000000000000000000000000000000000000000000000000000000000000000000000000000000000000000000000000000000000000000000000000000000000000000000000000000000000000000000000000000000000000000000000000000000000000000000000000000000000000000000000000000000000000000000000000000000000000000000000000000000",
            "difficulty": "0x00",
            "number": "0x00",
            "gasLimit": "0x989680",
            "gasUsed": "0x00",
            "timestamp": "0x00",
            "extraData": "0x00",
            "mixHash": "0x0000000000000000000000000000000000000000000000000000000000000000",
            "nonce": "0x0000000000000000",
            "baseFeePerGas": "0x0b",
            "withdrawalsRoot": "0x56e81f171bcc55a6ff8345e692c0f86e5b48e01b996cadc001622fb5e363b421",
            "blobGasUsed": "0x00",
            "excessBlobGas": "0x00",
            "parentBeaconBlockRoot": "0x0000000000000000000000000000000000000000000000000000000000000000",
            "hash": "0xb4865a4df1a47d06b207827c134e9154a2d3f58dbecd3a63ce803656a8f9ebd1"
        },
        "pre": {
            "0x000f3df6d732807ef1319fb7b8bb8522d0beac02": {
                "nonce": "0x01",
                "balance": "0x00",
                "code": "0x3373fffffffffffffffffffffffffffffffffffffffe14604d57602036146024575f5ffd5b5f35801560495762001fff810690815414603c575f5ffd5b62001fff01545f5260205ff35b5f5ffd5b62001fff42064281555f359062001fff015500",
                "storage": {}
            },
            "0x4cc525271527fd5fdc39b618a6fae7b781c5b4b6": {
                "nonce": "0x00",
                "balance": "0x5af3107a4000",
                "code": "0x",
                "storage": {}
            },
            "0xaedb765e00fb3fe326cbd2d72626c5afd9649bf4": {
                "nonce": "0x00",
                "balance": "0x00",
                "code": "0x6001600152622fffff60002000",
                "storage": {}
            },
            "0xc9fb129c1ad93694be07b671c55acbe59e26c19e": {
                "nonce": "0x00",
                "balance": "0x00",
                "code": "0x600060006000600073aedb765e00fb3fe326cbd2d72626c5afd9649bf46064fa00",
                "storage": {}
            }
        },
        "postState": {
            "0x000f3df6d732807ef1319fb7b8bb8522d0beac02": {
                "nonce": "0x01",
                "balance": "0x00",
                "code": "0x3373fffffffffffffffffffffffffffffffffffffffe14604d57602036146024575f5ffd5b5f35801560495762001fff810690815414603c575f5ffd5b62001fff01545f5260205ff35b5f5ffd5b62001fff42064281555f359062001fff015500",
                "storage": {
                    "0x03e8": "0x03e8"
                }
            },
            "0x4cc525271527fd5fdc39b618a6fae7b781c5b4b6": {
                "nonce": "0x01",
                "balance": "0x5af31076a184",
                "code": "0x",
                "storage": {}
            },
            "0xaedb765e00fb3fe326cbd2d72626c5afd9649bf4": {
                "nonce": "0x00",
                "balance": "0x00",
                "code": "0x6001600152622fffff60002000",
                "storage": {}
            },
            "0xc9fb129c1ad93694be07b671c55acbe59e26c19e": {
                "nonce": "0x00",
                "balance": "0x00",
                "code": "0x600060006000600073aedb765e00fb3fe326cbd2d72626c5afd9649bf46064fa00",
                "storage": {}
            }
        },
        "lastblockhash": "0x28a1a8962c151e65e7978736f06e4e2d4e3fd5f77979e965ccf4fd9e97fcddac",
        "config": {
            "network": "Cancun",
            "chainid": "0x01",
            "blobSchedule": {
                "Cancun": {
                    "target": "0x03",
                    "max": "0x06",
                    "baseFeeUpdateFraction": "0x32f0ed"
                }
            }
        },
        "genesisRLP": "0xf9023bf90235a00000000000000000000000000000000000000000000000000000000000000000a01dcc4de8dec75d7aab85b567b6ccd41ad312451b948a7413f0a142fd40d49347940000000000000000000000000000000000000000a02e8af32253fd9a8042e0cc6864e5347d2a7aa7482ae52369d79a5c24163471b6a056e81f171bcc55a6ff8345e692c0f86e5b48e01b996cadc001622fb5e363b421a056e81f171bcc55a6ff8345e692c0f86e5b48e01b996cadc001622fb5e363b421b9010000000000000000000000000000000000000000000000000000000000000000000000000000000000000000000000000000000000000000000000000000000000000000000000000000000000000000000000000000000000000000000000000000000000000000000000000000000000000000000000000000000000000000000000000000000000000000000000000000000000000000000000000000000000000000000000000000000000000000000000000000000000000000000000000000000000000000000000000000000000000000000000000000000000000000000000000000000000000000000000000000000000000000000000000000000000808083989680808000a000000000000000000000000000000000000000000000000000000000000000008800000000000000000ba056e81f171bcc55a6ff8345e692c0f86e5b48e01b996cadc001622fb5e363b4218080a00000000000000000000000000000000000000000000000000000000000000000c0c0c0",
        "blocks": [
            {
                "blockHeader": {
                    "parentHash": "0xb4865a4df1a47d06b207827c134e9154a2d3f58dbecd3a63ce803656a8f9ebd1",
                    "uncleHash": "0x1dcc4de8dec75d7aab85b567b6ccd41ad312451b948a7413f0a142fd40d49347",
                    "coinbase": "0x2adc25665018aa1fe0e6bc666dac8fc2697ff9ba",
                    "stateRoot": "0x90c409463e3274242e1da514692ce995c25f37a532d45bcb201d563116e6815d",
                    "transactionsTrie": "0x0f6c258060f851c640c76ec1b183471087291c28aea51e50387b6c9cb74053d6",
                    "receiptTrie": "0xcc02ce5fea672a5ab9eafc1967e0a07de16d6b20eeb5900e8f1eb37337090001",
                    "bloom": "0x00000000000000000000000000000000000000000000000000000000000000000000000000000000000000000000000000000000000000000000000000000000000000000000000000000000000000000000000000000000000000000000000000000000000000000000000000000000000000000000000000000000000000000000000000000000000000000000000000000000000000000000000000000000000000000000000000000000000000000000000000000000000000000000000000000000000000000000000000000000000000000000000000000000000000000000000000000000000000000000000000000000000000000000000000000000",
                    "difficulty": "0x00",
                    "number": "0x01",
                    "gasLimit": "0x989680",
                    "gasUsed": "0x5ca6",
                    "timestamp": "0x03e8",
                    "extraData": "0x00",
                    "mixHash": "0x0000000000000000000000000000000000000000000000000000000000020000",
                    "nonce": "0x0000000000000000",
                    "baseFeePerGas": "0x0a",
                    "withdrawalsRoot": "0x56e81f171bcc55a6ff8345e692c0f86e5b48e01b996cadc001622fb5e363b421",
                    "blobGasUsed": "0x00",
                    "excessBlobGas": "0x00",
                    "parentBeaconBlockRoot": "0x0000000000000000000000000000000000000000000000000000000000000000",
                    "hash": "0x28a1a8962c151e65e7978736f06e4e2d4e3fd5f77979e965ccf4fd9e97fcddac"
                },
                "transactions": [
                    {
                        "type": "0x00",
                        "chainId": "0x01",
                        "nonce": "0x00",
                        "gasPrice": "0x0a",
                        "gasLimit": "0x0f4240",
                        "to": "0xc9fb129c1ad93694be07b671c55acbe59e26c19e",
                        "value": "0x00",
                        "data": "0x",
                        "v": "0x26",
                        "r": "0x14f62dbc57685a8ae4cc7cd51675b2fe0eabeadfdca5017e4ed0313eaa63e91b",
                        "s": "0x096cb3936400821749f39365994570e002b130129a3aa84d25d5985e564ac9b5",
                        "sender": "0x4cc525271527fd5fdc39b618a6fae7b781c5b4b6"
                    }
                ],
                "uncleHeaders": [],
                "withdrawals": [],
                "receipts": [
                    {
                        "transactionHash": "0x95dd9b6b030f4124b5e4fff5613deb65d3755aeeebdeb16a98bd003d2a5bc403",
                        "type": "0x00",
                        "cumulativeGasUsed": "0x5ca6",
                        "bloom": "0x00000000000000000000000000000000000000000000000000000000000000000000000000000000000000000000000000000000000000000000000000000000000000000000000000000000000000000000000000000000000000000000000000000000000000000000000000000000000000000000000000000000000000000000000000000000000000000000000000000000000000000000000000000000000000000000000000000000000000000000000000000000000000000000000000000000000000000000000000000000000000000000000000000000000000000000000000000000000000000000000000000000000000000000000000000000",
                        "logs": [],
                        "status": true,
                        "rlp": "0xf9010801825ca6b9010000000000000000000000000000000000000000000000000000000000000000000000000000000000000000000000000000000000000000000000000000000000000000000000000000000000000000000000000000000000000000000000000000000000000000000000000000000000000000000000000000000000000000000000000000000000000000000000000000000000000000000000000000000000000000000000000000000000000000000000000000000000000000000000000000000000000000000000000000000000000000000000000000000000000000000000000000000000000000000000000000000000000000000000000000000000c0"
                    }
                ],
                "rlp": "0xf902a2f90239a0b4865a4df1a47d06b207827c134e9154a2d3f58dbecd3a63ce803656a8f9ebd1a01dcc4de8dec75d7aab85b567b6ccd41ad312451b948a7413f0a142fd40d49347942adc25665018aa1fe0e6bc666dac8fc2697ff9baa090c409463e3274242e1da514692ce995c25f37a532d45bcb201d563116e6815da00f6c258060f851c640c76ec1b183471087291c28aea51e50387b6c9cb74053d6a0cc02ce5fea672a5ab9eafc1967e0a07de16d6b20eeb5900e8f1eb37337090001b9010000000000000000000000000000000000000000000000000000000000000000000000000000000000000000000000000000000000000000000000000000000000000000000000000000000000000000000000000000000000000000000000000000000000000000000000000000000000000000000000000000000000000000000000000000000000000000000000000000000000000000000000000000000000000000000000000000000000000000000000000000000000000000000000000000000000000000000000000000000000000000000000000000000000000000000000000000000000000000000000000000000000000000000000000000000000800183989680825ca68203e800a000000000000000000000000000000000000000000000000000000000000200008800000000000000000aa056e81f171bcc55a6ff8345e692c0f86e5b48e01b996cadc001622fb5e363b4218080a00000000000000000000000000000000000000000000000000000000000000000f862f860800a830f424094c9fb129c1ad93694be07b671c55acbe59e26c19e808026a014f62dbc57685a8ae4cc7cd51675b2fe0eabeadfdca5017e4ed0313eaa63e91ba0096cb3936400821749f39365994570e002b130129a3aa84d25d5985e564ac9b5c0c0",
                "blocknumber": "1"
            }
        ],
        "sealEngine": "NoProof",
        "_info": {
            "hash": "0xa7bea9a52d0b6ec9f32374322e87bea7c9a90229baebbb6f3d5d642d0102905c",
            "fixture-format": "blockchain_test",
            "comment": "`execution-specs` generated test",
            "filling-transition-tool": "2.19.0",
            "description": "Check balance in blackbox, just fill the balance consumed.",
            "url": "https://github.com/ethereum/execution-specs/blob/tests-snobal-devnet-5@v8037.0.0/tests/ported_static/stStaticCall/test_static_check_call_cost_oog.py#L25",
            "metadata": {
                "opcode_count": {}
            }
        }
    }
}