{
    "tests/ported_static/stStaticCall/test_static_check_call_cost_oog.py::test_static_check_call_cost_oog[fork_Cancun-blockchain_test_from_state_test--g0]": {
        "network": "Cancun",
        "genesisBlockHeader": {
            "parentHash": "0x0000000000000000000000000000000000000000000000000000000000000000",
            "uncleHash": "0x1dcc4de8dec75d7aab85b567b6ccd41ad312451b948a7413f0a142fd40d49347",
            "coinbase": "0x0000000000000000000000000000000000000000",
            "stateRoot": "0xf5752b282e304eeb826138d76d3e33de0f1d1f6887dae12c249671260be4ed09",
            "transactionsTrie": "0x56e81f171bcc55a6ff8345e692c0f86e5b48e01b996cadc001622fb5e363b421",
            "receiptTrie": "0x56e81f171bcc55a6ff8345e692c0f86e5b48e01b996cadc001622fb5e363b421",
            "bloom": "0x00000000000000000000000000000000000000000000000000000000000000000000000000000000000000000000000000000000000000000000000000000000000000000000000000000000000000000000000000000000000000000000000000000000000000000000000000000000000000000000000000000000000000000000000000000000000000000000000000000000000000000000000000000000000000000000000000000000000000000000000000000000000000000000000000000000000000000000000000000000000000000000000000000000000000000000000000000000000000000000000000000000000000000000000000000000",
            "difficulty": "0x00",
            "number": "0x00",
            "gasLimit": "0x989680",
            "gasUsed": "0x00",
            "timestamp": "0x00",
            "extraData": "0x00",
            "mixHash": "0x0000000000000000000000000000000000000000000000000000000000000000",
            "nonce": "0x0000000000000000",
            "baseFeePerGas": "0x0b",
            "withdrawalsRoot": "0x56e81f171bcc55a6ff8345e692c0f86e5b48e01b996cadc001622fb5e363b421",
            "blobGasUsed": "0x00",
            "excessBlobGas": "0x00",
            "parentBeaconBlockRoot": "0x0000000000000000000000000000000000000000000000000000000000000000",
            "hash": "0xa5ca10ab54aa70e765fefc66988fc2f95c3ee83d2e2b2315f1bc4fb50c88ac84"
        },
        "pre": {
            "0x000f3df6d732807ef1319fb7b8bb8522d0beac02": {
                "nonce": "0x01",
                "balance": "0x00",
                "code": "0x3373fffffffffffffffffffffffffffffffffffffffe14604d57602036146024575f5ffd5b5f35801560495762001fff810690815414603c575f5ffd5b62001fff01545f5260205ff35b5f5ffd5b62001fff42064281555f359062001fff015500",
                "storage": {}
            },
            "0x6a0ad26ecf17c7340ded4285f64e23b3aafcf346": {
                "nonce": "0x00",
                "balance": "0x5af3107a4000",
                "code": "0x",
                "storage": {}
            },
            "0xb59292b3a630476adbc4a3643c0815b682a5009a": {
                "nonce": "0x00",
                "balance": "0x00",
                "code": "0x600060006000600073ebe7ed7a6e995c9843a6df04e332981ebb2772e06064fa00",
                "storage": {}
            },
            "0xebe7ed7a6e995c9843a6df04e332981ebb2772e0": {
                "nonce": "0x00",
                "balance": "0x00",
                "code": "0x6001600152622fffff60002000",
                "storage": {}
            }
        },
        "postState": {
            "0x000f3df6d732807ef1319fb7b8bb8522d0beac02": {
                "nonce": "0x01",
                "balance": "0x00",
                "code": "0x3373fffffffffffffffffffffffffffffffffffffffe14604d57602036146024575f5ffd5b5f35801560495762001fff810690815414603c575f5ffd5b62001fff01545f5260205ff35b5f5ffd5b62001fff42064281555f359062001fff015500",
                "storage": {
                    "0x03e8": "0x03e8"
                }
            },
            "0x6a0ad26ecf17c7340ded4285f64e23b3aafcf346": {
                "nonce": "0x01",
                "balance": "0x5af31076e4a0",
                "code": "0x",
                "storage": {}
            },
            "0xb59292b3a630476adbc4a3643c0815b682a5009a": {
                "nonce": "0x00",
                "balance": "0x00",
                "code": "0x600060006000600073ebe7ed7a6e995c9843a6df04e332981ebb2772e06064fa00",
                "storage": {}
            },
            "0xebe7ed7a6e995c9843a6df04e332981ebb2772e0": {
                "nonce": "0x00",
                "balance": "0x00",
                "code": "0x6001600152622fffff60002000",
                "storage": {}
            }
        },
        "lastblockhash": "0xc6351060f0662066d9f623b52aecd7f32616ab15fb65aa7212de04fa0a10e414",
        "config": {
            "network": "Cancun",
            "chainid": "0x01",
            "blobSchedule": {
                "Cancun": {
                    "target": "0x03",
                    "max": "0x06",
                    "baseFeeUpdateFraction": "0x32f0ed"
                }
            }
        },
        "genesisRLP": "0xf9023bf90235a00000000000000000000000000000000000000000000000000000000000000000a01dcc4de8dec75d7aab85b567b6ccd41ad312451b948a7413f0a142fd40d49347940000000000000000000000000000000000000000a0f5752b282e304eeb826138d76d3e33de0f1d1f6887dae12c249671260be4ed09a056e81f171bcc55a6ff8345e692c0f86e5b48e01b996cadc001622fb5e363b421a056e81f171bcc55a6ff8345e692c0f86e5b48e01b996cadc001622fb5e363b421b9010000000000000000000000000000000000000000000000000000000000000000000000000000000000000000000000000000000000000000000000000000000000000000000000000000000000000000000000000000000000000000000000000000000000000000000000000000000000000000000000000000000000000000000000000000000000000000000000000000000000000000000000000000000000000000000000000000000000000000000000000000000000000000000000000000000000000000000000000000000000000000000000000000000000000000000000000000000000000000000000000000000000000000000000000000000000808083989680808000a000000000000000000000000000000000000000000000000000000000000000008800000000000000000ba056e81f171bcc55a6ff8345e692c0f86e5b48e01b996cadc001622fb5e363b4218080a00000000000000000000000000000000000000000000000000000000000000000c0c0c0",
        "blocks": [
            {
                "blockHeader": {
                    "parentHash": "0xa5ca10ab54aa70e765fefc66988fc2f95c3ee83d2e2b2315f1bc4fb50c88ac84",
                    "uncleHash": "0x1dcc4de8dec75d7aab85b567b6ccd41ad312451b948a7413f0a142fd40d49347",
                    "coinbase": "0x2adc25665018aa1fe0e6bc666dac8fc2697ff9ba",
                    "stateRoot": "0x3717465203c0f3087ae876dc84325f52aab1faf27065832d140e9a8b16deb1c5",
                    "transactionsTrie": "0xe6241fcd6d72934d78319b3bfed79493cc93862db4db402b8bfd20047d8aec62",
                    "receiptTrie": "0xa6bc9035e6d8412a5cae112c9571af88f6aeb395cbd0a90eb273e0fd74502696",
                    "bloom": "0x00000000000000000000000000000000000000000000000000000000000000000000000000000000000000000000000000000000000000000000000000000000000000000000000000000000000000000000000000000000000000000000000000000000000000000000000000000000000000000000000000000000000000000000000000000000000000000000000000000000000000000000000000000000000000000000000000000000000000000000000000000000000000000000000000000000000000000000000000000000000000000000000000000000000000000000000000000000000000000000000000000000000000000000000000000000",
                    "difficulty": "0x00",
                    "number": "0x01",
                    "gasLimit": "0x989680",
                    "gasUsed": "0x55f0",
                    "timestamp": "0x03e8",
                    "extraData": "0x00",
                    "mixHash": "0x0000000000000000000000000000000000000000000000000000000000020000",
                    "nonce": "0x0000000000000000",
                    "baseFeePerGas": "0x0a",
                    "withdrawalsRoot": "0x56e81f171bcc55a6ff8345e692c0f86e5b48e01b996cadc001622fb5e363b421",
                    "blobGasUsed": "0x00",
                    "excessBlobGas": "0x00",
                    "parentBeaconBlockRoot": "0x0000000000000000000000000000000000000000000000000000000000000000",
                    "hash": "0xc6351060f0662066d9f623b52aecd7f32616ab15fb65aa7212de04fa0a10e414"
                },
                "transactions": [
                    {
                        "type": "0x00",
                        "chainId": "0x01",
                        "nonce": "0x00",
                        "gasPrice": "0x0a",
                        "gasLimit": "0x55f0",
                        "to": "0xb59292b3a630476adbc4a3643c0815b682a5009a",
                        "value": "0x00",
                        "data": "0x",
                        "v": "0x26",
                        "r": "0x5c9739058575a4eb3c097d6070274d98cad57ebf246a3531ec279099ccc156e4",
                        "s": "0x748adbc43e8c6e557e74453396808eea664f414508e580108c60d3eecb49b5bc",
                        "sender": "0x6a0ad26ecf17c7340ded4285f64e23b3aafcf346"
                    }
                ],
                "uncleHeaders": [],
                "withdrawals": [],
                "receipts": [
                    {
                        "transactionHash": "0xf4b61e6040e4caaeacec950313c8c08c7aabdd476cbd151cd03dd9a553ea26e2",
                        "type": "0x00",
                        "cumulativeGasUsed": "0x55f0",
                        "bloom": "0x00000000000000000000000000000000000000000000000000000000000000000000000000000000000000000000000000000000000000000000000000000000000000000000000000000000000000000000000000000000000000000000000000000000000000000000000000000000000000000000000000000000000000000000000000000000000000000000000000000000000000000000000000000000000000000000000000000000000000000000000000000000000000000000000000000000000000000000000000000000000000000000000000000000000000000000000000000000000000000000000000000000000000000000000000000000",
                        "logs": [],
                        "status": false,
                        "rlp": "0xf90108808255f0b9010000000000000000000000000000000000000000000000000000000000000000000000000000000000000000000000000000000000000000000000000000000000000000000000000000000000000000000000000000000000000000000000000000000000000000000000000000000000000000000000000000000000000000000000000000000000000000000000000000000000000000000000000000000000000000000000000000000000000000000000000000000000000000000000000000000000000000000000000000000000000000000000000000000000000000000000000000000000000000000000000000000000000000000000000000000000c0"
                    }
                ],
                "rlp": "0xf902a1f90239a0a5ca10ab54aa70e765fefc66988fc2f95c3ee83d2e2b2315f1bc4fb50c88ac84a01dcc4de8dec75d7aab85b567b6ccd41ad312451b948a7413f0a142fd40d49347942adc25665018aa1fe0e6bc666dac8fc2697ff9baa03717465203c0f3087ae876dc84325f52aab1faf27065832d140e9a8b16deb1c5a0e6241fcd6d72934d78319b3bfed79493cc93862db4db402b8bfd20047d8aec62a0a6bc9035e6d8412a5cae112c9571af88f6aeb395cbd0a90eb273e0fd74502696b90100000000000000000000000000000000000000000000000000000000000000000000000000000000000000000000000000000000000000000000000000000000000000000000000000000000000000000000000000000000000000000000000000000000000000000000000000000000000000000000000000000000000000000000000000000000000000000000000000000000000000000000000000000000000000000000000000000000000000000000000000000000000000000000000000000000000000000000000000000000000000000000000000000000000000000000000000000000000000000000000000000000000000000000000000000000008001839896808255f08203e800a000000000000000000000000000000000000000000000000000000000000200008800000000000000000aa056e81f171bcc55a6ff8345e692c0f86e5b48e01b996cadc001622fb5e363b4218080a00000000000000000000000000000000000000000000000000000000000000000f861f85f800a8255f094b59292b3a630476adbc4a3643c0815b682a5009a808026a05c9739058575a4eb3c097d6070274d98cad57ebf246a3531ec279099ccc156e4a0748adbc43e8c6e557e74453396808eea664f414508e580108c60d3eecb49b5bcc0c0",
                "blocknumber": "1"
            }
        ],
        "sealEngine": "NoProof",
        "_info": {
            "hash": "0x44a2c77672f66bb66843b9d1ad15e5822e06c143abd9099912ba3acee1f50d85",
            "fixture-format": "blockchain_test",
            "comment": "`execution-specs` generated test",
            "filling-transition-tool": "2.19.0",
            "description": "Check balance in blackbox, just fill the balance consumed.",
            "url": "https://github.com/ethereum/execution-specs/blob/tests-bal@v5.6.0/tests/ported_static/stStaticCall/test_static_check_call_cost_oog.py#L26",
            "metadata": {
                "opcode_count": {}
            }
        }
    },
    "tests/ported_static/stStaticCall/test_static_check_call_cost_oog.py::test_static_check_call_cost_oog[fork_Cancun-blockchain_test_from_state_test--g1]": {
        "network": "Cancun",
        "genesisBlockHeader": {
            "parentHash": "0x0000000000000000000000000000000000000000000000000000000000000000",
            "uncleHash": "0x1dcc4de8dec75d7aab85b567b6ccd41ad312451b948a7413f0a142fd40d49347",
            "coinbase": "0x0000000000000000000000000000000000000000",
            "stateRoot": "0xf5752b282e304eeb826138d76d3e33de0f1d1f6887dae12c249671260be4ed09",
            "transactionsTrie": "0x56e81f171bcc55a6ff8345e692c0f86e5b48e01b996cadc001622fb5e363b421",
            "receiptTrie": "0x56e81f171bcc55a6ff8345e692c0f86e5b48e01b996cadc001622fb5e363b421",
            "bloom": "0x00000000000000000000000000000000000000000000000000000000000000000000000000000000000000000000000000000000000000000000000000000000000000000000000000000000000000000000000000000000000000000000000000000000000000000000000000000000000000000000000000000000000000000000000000000000000000000000000000000000000000000000000000000000000000000000000000000000000000000000000000000000000000000000000000000000000000000000000000000000000000000000000000000000000000000000000000000000000000000000000000000000000000000000000000000000",
            "difficulty": "0x00",
            "number": "0x00",
            "gasLimit": "0x989680",
            "gasUsed": "0x00",
            "timestamp": "0x00",
            "extraData": "0x00",
            "mixHash": "0x0000000000000000000000000000000000000000000000000000000000000000",
            "nonce": "0x0000000000000000",
            "baseFeePerGas": "0x0b",
            "withdrawalsRoot": "0x56e81f171bcc55a6ff8345e692c0f86e5b48e01b996cadc001622fb5e363b421",
            "blobGasUsed": "0x00",
            "excessBlobGas": "0x00",
            "parentBeaconBlockRoot": "0x0000000000000000000000000000000000000000000000000000000000000000",
            "hash": "0xa5ca10ab54aa70e765fefc66988fc2f95c3ee83d2e2b2315f1bc4fb50c88ac84"
        },
        "pre": {
            "0x000f3df6d732807ef1319fb7b8bb8522d0beac02": {
                "nonce": "0x01",
                "balance": "0x00",
                "code": "0x3373fffffffffffffffffffffffffffffffffffffffe14604d57602036146024575f5ffd5b5f35801560495762001fff810690815414603c575f5ffd5b62001fff01545f5260205ff35b5f5ffd5b62001fff42064281555f359062001fff015500",
                "storage": {}
            },
            "0x6a0ad26ecf17c7340ded4285f64e23b3aafcf346": {
                "nonce": "0x00",
                "balance": "0x5af3107a4000",
                "code": "0x",
                "storage": {}
            },
            "0xb59292b3a630476adbc4a3643c0815b682a5009a": {
                "nonce": "0x00",
                "balance": "0x00",
                "code": "0x600060006000600073ebe7ed7a6e995c9843a6df04e332981ebb2772e06064fa00",
                "storage": {}
            },
            "0xebe7ed7a6e995c9843a6df04e332981ebb2772e0": {
                "nonce": "0x00",
                "balance": "0x00",
                "code": "0x6001600152622fffff60002000",
                "storage": {}
            }
        },
        "postState": {
            "0x000f3df6d732807ef1319fb7b8bb8522d0beac02": {
                "nonce": "0x01",
                "balance": "0x00",
                "code": "0x3373fffffffffffffffffffffffffffffffffffffffe14604d57602036146024575f5ffd5b5f35801560495762001fff810690815414603c575f5ffd5b62001fff01545f5260205ff35b5f5ffd5b62001fff42064281555f359062001fff015500",
                "storage": {
                    "0x03e8": "0x03e8"
                }
            },
            "0x6a0ad26ecf17c7340ded4285f64e23b3aafcf346": {
                "nonce": "0x01",
                "balance": "0x5af31076a184",
                "code": "0x",
                "storage": {}
            },
            "0xb59292b3a630476adbc4a3643c0815b682a5009a": {
                "nonce": "0x00",
                "balance": "0x00",
                "code": "0x600060006000600073ebe7ed7a6e995c9843a6df04e332981ebb2772e06064fa00",
                "storage": {}
            },
            "0xebe7ed7a6e995c9843a6df04e332981ebb2772e0": {
                "nonce": "0x00",
                "balance": "0x00",
                "code": "0x6001600152622fffff60002000",
                "storage": {}
            }
        },
        "lastblockhash": "0x0578dfc84d93615bce2f2ab75af1cac9d3231744d234c2930a03e59d3278f45f",
        "config": {
            "network": "Cancun",
            "chainid": "0x01",
            "blobSchedule": {
                "Cancun": {
                    "target": "0x03",
                    "max": "0x06",
                    "baseFeeUpdateFraction": "0x32f0ed"
                }
            }
        },
        "genesisRLP": "0xf9023bf90235a00000000000000000000000000000000000000000000000000000000000000000a01dcc4de8dec75d7aab85b567b6ccd41ad312451b948a7413f0a142fd40d49347940000000000000000000000000000000000000000a0f5752b282e304eeb826138d76d3e33de0f1d1f6887dae12c249671260be4ed09a056e81f171bcc55a6ff8345e692c0f86e5b48e01b996cadc001622fb5e363b421a056e81f171bcc55a6ff8345e692c0f86e5b48e01b996cadc001622fb5e363b421b9010000000000000000000000000000000000000000000000000000000000000000000000000000000000000000000000000000000000000000000000000000000000000000000000000000000000000000000000000000000000000000000000000000000000000000000000000000000000000000000000000000000000000000000000000000000000000000000000000000000000000000000000000000000000000000000000000000000000000000000000000000000000000000000000000000000000000000000000000000000000000000000000000000000000000000000000000000000000000000000000000000000000000000000000000000000000808083989680808000a000000000000000000000000000000000000000000000000000000000000000008800000000000000000ba056e81f171bcc55a6ff8345e692c0f86e5b48e01b996cadc001622fb5e363b4218080a00000000000000000000000000000000000000000000000000000000000000000c0c0c0",
        "blocks": [
            {
                "blockHeader": {
                    "parentHash": "0xa5ca10ab54aa70e765fefc66988fc2f95c3ee83d2e2b2315f1bc4fb50c88ac84",
                    "uncleHash": "0x1dcc4de8dec75d7aab85b567b6ccd41ad312451b948a7413f0a142fd40d49347",
                    "coinbase": "0x2adc25665018aa1fe0e6bc666dac8fc2697ff9ba",
                    "stateRoot": "0x99f532b9c8cbefe293c145156f5e02e8ef306c55cd5bfad81ee89339063c94c7",
                    "transactionsTrie": "0x04b427a4b827876a04be60355f5b4a111c39c4c5a93f72bc1cd8b013eb7a61cb",
                    "receiptTrie": "0xcc02ce5fea672a5ab9eafc1967e0a07de16d6b20eeb5900e8f1eb37337090001",
                    "bloom": "0x00000000000000000000000000000000000000000000000000000000000000000000000000000000000000000000000000000000000000000000000000000000000000000000000000000000000000000000000000000000000000000000000000000000000000000000000000000000000000000000000000000000000000000000000000000000000000000000000000000000000000000000000000000000000000000000000000000000000000000000000000000000000000000000000000000000000000000000000000000000000000000000000000000000000000000000000000000000000000000000000000000000000000000000000000000000",
                    "difficulty": "0x00",
                    "number": "0x01",
                    "gasLimit": "0x989680",
                    "gasUsed": "0x5ca6",
                    "timestamp": "0x03e8",
                    "extraData": "0x00",
                    "mixHash": "0x0000000000000000000000000000000000000000000000000000000000020000",
                    "nonce": "0x0000000000000000",
                    "baseFeePerGas": "0x0a",
                    "withdrawalsRoot": "0x56e81f171bcc55a6ff8345e692c0f86e5b48e01b996cadc001622fb5e363b421",
                    "blobGasUsed": "0x00",
                    "excessBlobGas": "0x00",
                    "parentBeaconBlockRoot": "0x0000000000000000000000000000000000000000000000000000000000000000",
                    "hash": "0x0578dfc84d93615bce2f2ab75af1cac9d3231744d234c2930a03e59d3278f45f"
                },
                "transactions": [
                    {
                        "type": "0x00",
                        "chainId": "0x01",
                        "nonce": "0x00",
                        "gasPrice": "0x0a",
                        "gasLimit": "0x0f4240",
                        "to": "0xb59292b3a630476adbc4a3643c0815b682a5009a",
                        "value": "0x00",
                        "data": "0x",
                        "v": "0x26",
                        "r": "0xeb433719db45baf21a6eb84d2e86cf099ae64ef4704fbeb4883535db83d96fc0",
                        "s": "0x3d8e53fec315f7a2e3294ac8fe06ec6ab4ea4bdb14827d7722a38b04325f2608",
                        "sender": "0x6a0ad26ecf17c7340ded4285f64e23b3aafcf346"
                    }
                ],
                "uncleHeaders": [],
                "withdrawals": [],
                "receipts": [
                    {
                        "transactionHash": "0x0ca9e1bb260a91d9652ca9435a2196bb87470a7961e5dbf353a647cae4aecd8a",
                        "type": "0x00",
                        "cumulativeGasUsed": "0x5ca6",
                        "bloom": "0x00000000000000000000000000000000000000000000000000000000000000000000000000000000000000000000000000000000000000000000000000000000000000000000000000000000000000000000000000000000000000000000000000000000000000000000000000000000000000000000000000000000000000000000000000000000000000000000000000000000000000000000000000000000000000000000000000000000000000000000000000000000000000000000000000000000000000000000000000000000000000000000000000000000000000000000000000000000000000000000000000000000000000000000000000000000",
                        "logs": [],
                        "status": true,
                        "rlp": "0xf9010801825ca6b9010000000000000000000000000000000000000000000000000000000000000000000000000000000000000000000000000000000000000000000000000000000000000000000000000000000000000000000000000000000000000000000000000000000000000000000000000000000000000000000000000000000000000000000000000000000000000000000000000000000000000000000000000000000000000000000000000000000000000000000000000000000000000000000000000000000000000000000000000000000000000000000000000000000000000000000000000000000000000000000000000000000000000000000000000000000000c0"
                    }
                ],
                "rlp": "0xf902a2f90239a0a5ca10ab54aa70e765fefc66988fc2f95c3ee83d2e2b2315f1bc4fb50c88ac84a01dcc4de8dec75d7aab85b567b6ccd41ad312451b948a7413f0a142fd40d49347942adc25665018aa1fe0e6bc666dac8fc2697ff9baa099f532b9c8cbefe293c145156f5e02e8ef306c55cd5bfad81ee89339063c94c7a004b427a4b827876a04be60355f5b4a111c39c4c5a93f72bc1cd8b013eb7a61cba0cc02ce5fea672a5ab9eafc1967e0a07de16d6b20eeb5900e8f1eb37337090001b9010000000000000000000000000000000000000000000000000000000000000000000000000000000000000000000000000000000000000000000000000000000000000000000000000000000000000000000000000000000000000000000000000000000000000000000000000000000000000000000000000000000000000000000000000000000000000000000000000000000000000000000000000000000000000000000000000000000000000000000000000000000000000000000000000000000000000000000000000000000000000000000000000000000000000000000000000000000000000000000000000000000000000000000000000000000000800183989680825ca68203e800a000000000000000000000000000000000000000000000000000000000000200008800000000000000000aa056e81f171bcc55a6ff8345e692c0f86e5b48e01b996cadc001622fb5e363b4218080a00000000000000000000000000000000000000000000000000000000000000000f862f860800a830f424094b59292b3a630476adbc4a3643c0815b682a5009a808026a0eb433719db45baf21a6eb84d2e86cf099ae64ef4704fbeb4883535db83d96fc0a03d8e53fec315f7a2e3294ac8fe06ec6ab4ea4bdb14827d7722a38b04325f2608c0c0",
                "blocknumber": "1"
            }
        ],
        "sealEngine": "NoProof",
        "_info": {
            "hash": "0xa2312e7fb17b7eb65add9432c9b1ac90732134e82279b767a3c87ae7be351472",
            "fixture-format": "blockchain_test",
            "comment": "`execution-specs` generated test",
            "filling-transition-tool": "2.19.0",
            "description": "Check balance in blackbox, just fill the balance consumed.",
            "url": "https://github.com/ethereum/execution-specs/blob/tests-bal@v5.6.0/tests/ported_static/stStaticCall/test_static_check_call_cost_oog.py#L26",
            "metadata": {
                "opcode_count": {}
            }
        }
    }
}