{
    "tests/ported_static/stStaticCall/test_static_callcodecallcallcode_101_oogm_after.py::test_static_callcodecallcallcode_101_oogm_after[fork_Cancun-blockchain_test_from_state_test]": {
        "network": "Cancun",
        "genesisBlockHeader": {
            "parentHash": "0x0000000000000000000000000000000000000000000000000000000000000000",
            "uncleHash": "0x1dcc4de8dec75d7aab85b567b6ccd41ad312451b948a7413f0a142fd40d49347",
            "coinbase": "0x0000000000000000000000000000000000000000",
            "stateRoot": "0xbe8e03fd2e42dabe0d28c5d9f0b17ec27c1efbe442f16012f7980daa0e8a75f2",
            "transactionsTrie": "0x56e81f171bcc55a6ff8345e692c0f86e5b48e01b996cadc001622fb5e363b421",
            "receiptTrie": "0x56e81f171bcc55a6ff8345e692c0f86e5b48e01b996cadc001622fb5e363b421",
            "bloom": "0x00000000000000000000000000000000000000000000000000000000000000000000000000000000000000000000000000000000000000000000000000000000000000000000000000000000000000000000000000000000000000000000000000000000000000000000000000000000000000000000000000000000000000000000000000000000000000000000000000000000000000000000000000000000000000000000000000000000000000000000000000000000000000000000000000000000000000000000000000000000000000000000000000000000000000000000000000000000000000000000000000000000000000000000000000000000",
            "difficulty": "0x00",
            "number": "0x00",
            "gasLimit": "0x01c9c380",
            "gasUsed": "0x00",
            "timestamp": "0x00",
            "extraData": "0x00",
            "mixHash": "0x0000000000000000000000000000000000000000000000000000000000000000",
            "nonce": "0x0000000000000000",
            "baseFeePerGas": "0x0b",
            "withdrawalsRoot": "0x56e81f171bcc55a6ff8345e692c0f86e5b48e01b996cadc001622fb5e363b421",
            "blobGasUsed": "0x00",
            "excessBlobGas": "0x00",
            "parentBeaconBlockRoot": "0x0000000000000000000000000000000000000000000000000000000000000000",
            "hash": "0x4b14a273aacb19c29def495a356025dd95119f88de2d8338cecdda8b0d564676"
        },
        "pre": {
            "0x000f3df6d732807ef1319fb7b8bb8522d0beac02": {
                "nonce": "0x01",
                "balance": "0x00",
                "code": "0x3373fffffffffffffffffffffffffffffffffffffffe14604d57602036146024575f5ffd5b5f35801560495762001fff810690815414603c575f5ffd5b62001fff01545f5260205ff35b5f5ffd5b62001fff42064281555f359062001fff015500",
                "storage": {}
            },
            "0xd66f224cbd2fabb21b17bb53c56118f32f62ebd6": {
                "nonce": "0x00",
                "balance": "0x0de0b6b3a7640000",
                "code": "0x",
                "storage": {}
            },
            "0x75a5c9cc0efb8bc7f2115d547f0327a153212014": {
                "nonce": "0x00",
                "balance": "0x00",
                "code": "0x600160035200",
                "storage": {}
            },
            "0xfbcb60081b976a37ef85a8897ed236a37cdf3ce9": {
                "nonce": "0x00",
                "balance": "0x00",
                "code": "0x600160035260406000604060007375a5c9cc0efb8bc7f2115d547f0327a153212014614e34f450600160035200",
                "storage": {}
            },
            "0xd625b27371a2783e9a5009151cecea6635cf30bd": {
                "nonce": "0x00",
                "balance": "0x00",
                "code": "0x6001600352604060006040600073fbcb60081b976a37ef85a8897ed236a37cdf3ce9619c90fa505b61c350608051101560435760013b506001608051016080526027565b00",
                "storage": {}
            },
            "0x41af19a937a80ccb68a98dff62f2e1a82b629b4a": {
                "nonce": "0x00",
                "balance": "0x0de0b6b3a7640000",
                "code": "0x604060006040600073d625b27371a2783e9a5009151cecea6635cf30bd61eaf6f4600055600160015500",
                "storage": {}
            }
        },
        "postState": {
            "0x000f3df6d732807ef1319fb7b8bb8522d0beac02": {
                "nonce": "0x01",
                "balance": "0x00",
                "code": "0x3373fffffffffffffffffffffffffffffffffffffffe14604d57602036146024575f5ffd5b5f35801560495762001fff810690815414603c575f5ffd5b62001fff01545f5260205ff35b5f5ffd5b62001fff42064281555f359062001fff015500",
                "storage": {
                    "0x03e8": "0x03e8"
                }
            },
            "0xd66f224cbd2fabb21b17bb53c56118f32f62ebd6": {
                "nonce": "0x01",
                "balance": "0x0de0b6b3a7538202",
                "code": "0x",
                "storage": {}
            },
            "0x75a5c9cc0efb8bc7f2115d547f0327a153212014": {
                "nonce": "0x00",
                "balance": "0x00",
                "code": "0x600160035200",
                "storage": {}
            },
            "0xfbcb60081b976a37ef85a8897ed236a37cdf3ce9": {
                "nonce": "0x00",
                "balance": "0x00",
                "code": "0x600160035260406000604060007375a5c9cc0efb8bc7f2115d547f0327a153212014614e34f450600160035200",
                "storage": {}
            },
            "0xd625b27371a2783e9a5009151cecea6635cf30bd": {
                "nonce": "0x00",
                "balance": "0x00",
                "code": "0x6001600352604060006040600073fbcb60081b976a37ef85a8897ed236a37cdf3ce9619c90fa505b61c350608051101560435760013b506001608051016080526027565b00",
                "storage": {}
            },
            "0x41af19a937a80ccb68a98dff62f2e1a82b629b4a": {
                "nonce": "0x00",
                "balance": "0x0de0b6b3a7640000",
                "code": "0x604060006040600073d625b27371a2783e9a5009151cecea6635cf30bd61eaf6f4600055600160015500",
                "storage": {
                    "0x01": "0x01"
                }
            }
        },
        "lastblockhash": "0xf74c853c209885493b1abbea66c2ab763ebe0d6651cade63317fe02346aabf14",
        "config": {
            "network": "Cancun",
            "chainid": "0x01",
            "blobSchedule": {
                "Cancun": {
                    "target": "0x03",
                    "max": "0x06",
                    "baseFeeUpdateFraction": "0x32f0ed"
                }
            }
        },
        "genesisRLP": "0xf9023cf90236a00000000000000000000000000000000000000000000000000000000000000000a01dcc4de8dec75d7aab85b567b6ccd41ad312451b948a7413f0a142fd40d49347940000000000000000000000000000000000000000a0be8e03fd2e42dabe0d28c5d9f0b17ec27c1efbe442f16012f7980daa0e8a75f2a056e81f171bcc55a6ff8345e692c0f86e5b48e01b996cadc001622fb5e363b421a056e81f171bcc55a6ff8345e692c0f86e5b48e01b996cadc001622fb5e363b421b901000000000000000000000000000000000000000000000000000000000000000000000000000000000000000000000000000000000000000000000000000000000000000000000000000000000000000000000000000000000000000000000000000000000000000000000000000000000000000000000000000000000000000000000000000000000000000000000000000000000000000000000000000000000000000000000000000000000000000000000000000000000000000000000000000000000000000000000000000000000000000000000000000000000000000000000000000000000000000000000000000000000000000000000000000000000080808401c9c380808000a000000000000000000000000000000000000000000000000000000000000000008800000000000000000ba056e81f171bcc55a6ff8345e692c0f86e5b48e01b996cadc001622fb5e363b4218080a00000000000000000000000000000000000000000000000000000000000000000c0c0c0",
        "blocks": [
            {
                "blockHeader": {
                    "parentHash": "0x4b14a273aacb19c29def495a356025dd95119f88de2d8338cecdda8b0d564676",
                    "uncleHash": "0x1dcc4de8dec75d7aab85b567b6ccd41ad312451b948a7413f0a142fd40d49347",
                    "coinbase": "0x2adc25665018aa1fe0e6bc666dac8fc2697ff9ba",
                    "stateRoot": "0x28b894f14708b8f002999da8bed54a91339a48117a967192cb8a03cdfce205fa",
                    "transactionsTrie": "0xe6b9c8c61bc4f6285827140efbb4db1c073aa843ef13212bb047a21300c52dda",
                    "receiptTrie": "0x5c249c0393f5158a09d5e32693e7364a0f640d0ead91576687b9d21f121faf26",
                    "bloom": "0x00000000000000000000000000000000000000000000000000000000000000000000000000000000000000000000000000000000000000000000000000000000000000000000000000000000000000000000000000000000000000000000000000000000000000000000000000000000000000000000000000000000000000000000000000000000000000000000000000000000000000000000000000000000000000000000000000000000000000000000000000000000000000000000000000000000000000000000000000000000000000000000000000000000000000000000000000000000000000000000000000000000000000000000000000000000",
                    "difficulty": "0x00",
                    "number": "0x01",
                    "gasLimit": "0x01c9c380",
                    "gasUsed": "0x01a633",
                    "timestamp": "0x03e8",
                    "extraData": "0x00",
                    "mixHash": "0x0000000000000000000000000000000000000000000000000000000000020000",
                    "nonce": "0x0000000000000000",
                    "baseFeePerGas": "0x0a",
                    "withdrawalsRoot": "0x56e81f171bcc55a6ff8345e692c0f86e5b48e01b996cadc001622fb5e363b421",
                    "blobGasUsed": "0x00",
                    "excessBlobGas": "0x00",
                    "parentBeaconBlockRoot": "0x0000000000000000000000000000000000000000000000000000000000000000",
                    "hash": "0xf74c853c209885493b1abbea66c2ab763ebe0d6651cade63317fe02346aabf14"
                },
                "transactions": [
                    {
                        "type": "0x00",
                        "chainId": "0x01",
                        "nonce": "0x00",
                        "gasPrice": "0x0a",
                        "gasLimit": "0x029fe0",
                        "to": "0x41af19a937a80ccb68a98dff62f2e1a82b629b4a",
                        "value": "0x00",
                        "data": "0x",
                        "v": "0x26",
                        "r": "0x1d244896e0460623dca21e0433eea16ca66a7630948d85cb671b0fa41aa7d376",
                        "s": "0x57a64b7c8ffa61f53ba7ef5e28e24cf18e43954710155a569b407dd80ff86ba2",
                        "sender": "0xd66f224cbd2fabb21b17bb53c56118f32f62ebd6"
                    }
                ],
                "uncleHeaders": [],
                "withdrawals": [],
                "receipts": [
                    {
                        "transactionHash": "0x9dad1b03bdef82c2553aaeed8127c8529171fb7f4eea3c9e480ee2c3e87ab11f",
                        "type": "0x00",
                        "cumulativeGasUsed": "0x01a633",
                        "bloom": "0x00000000000000000000000000000000000000000000000000000000000000000000000000000000000000000000000000000000000000000000000000000000000000000000000000000000000000000000000000000000000000000000000000000000000000000000000000000000000000000000000000000000000000000000000000000000000000000000000000000000000000000000000000000000000000000000000000000000000000000000000000000000000000000000000000000000000000000000000000000000000000000000000000000000000000000000000000000000000000000000000000000000000000000000000000000000",
                        "logs": [],
                        "status": true,
                        "rlp": "0xf90109018301a633b9010000000000000000000000000000000000000000000000000000000000000000000000000000000000000000000000000000000000000000000000000000000000000000000000000000000000000000000000000000000000000000000000000000000000000000000000000000000000000000000000000000000000000000000000000000000000000000000000000000000000000000000000000000000000000000000000000000000000000000000000000000000000000000000000000000000000000000000000000000000000000000000000000000000000000000000000000000000000000000000000000000000000000000000000000000000000c0"
                    }
                ],
                "rlp": "0xf902a4f9023ba04b14a273aacb19c29def495a356025dd95119f88de2d8338cecdda8b0d564676a01dcc4de8dec75d7aab85b567b6ccd41ad312451b948a7413f0a142fd40d49347942adc25665018aa1fe0e6bc666dac8fc2697ff9baa028b894f14708b8f002999da8bed54a91339a48117a967192cb8a03cdfce205faa0e6b9c8c61bc4f6285827140efbb4db1c073aa843ef13212bb047a21300c52ddaa05c249c0393f5158a09d5e32693e7364a0f640d0ead91576687b9d21f121faf26b901000000000000000000000000000000000000000000000000000000000000000000000000000000000000000000000000000000000000000000000000000000000000000000000000000000000000000000000000000000000000000000000000000000000000000000000000000000000000000000000000000000000000000000000000000000000000000000000000000000000000000000000000000000000000000000000000000000000000000000000000000000000000000000000000000000000000000000000000000000000000000000000000000000000000000000000000000000000000000000000000000000000000000000000000000000000080018401c9c3808301a6338203e800a000000000000000000000000000000000000000000000000000000000000200008800000000000000000aa056e81f171bcc55a6ff8345e692c0f86e5b48e01b996cadc001622fb5e363b4218080a00000000000000000000000000000000000000000000000000000000000000000f862f860800a83029fe09441af19a937a80ccb68a98dff62f2e1a82b629b4a808026a01d244896e0460623dca21e0433eea16ca66a7630948d85cb671b0fa41aa7d376a057a64b7c8ffa61f53ba7ef5e28e24cf18e43954710155a569b407dd80ff86ba2c0c0",
                "blocknumber": "1"
            }
        ],
        "sealEngine": "NoProof",
        "_info": {
            "hash": "0x923b47858e2bb6563bb7bd0bf25c6f34912b3c9f9a77ad96d6005953da43930c",
            "fixture-format": "blockchain_test",
            "comment": "`execution-specs` generated test",
            "filling-transition-tool": "2.19.0",
            "description": "Test_static_callcodecallcallcode_101_oogm_after.",
            "url": "https://github.com/ethereum/execution-specs/blob/tests-snobal-devnet-5@v8037.0.0/tests/ported_static/stStaticCall/test_static_callcodecallcallcode_101_oogm_after.py#L24",
            "metadata": {
                "opcode_count": {}
            }
        }
    }
}