{
    "tests/ported_static/stStaticCall/test_static_callcallcodecallcode_011_oogm_after_2.py::test_static_callcallcodecallcode_011_oogm_after_2[fork_Cancun-blockchain_test_from_state_test-d0]": {
        "network": "Cancun",
        "genesisBlockHeader": {
            "parentHash": "0x0000000000000000000000000000000000000000000000000000000000000000",
            "uncleHash": "0x1dcc4de8dec75d7aab85b567b6ccd41ad312451b948a7413f0a142fd40d49347",
            "coinbase": "0x0000000000000000000000000000000000000000",
            "stateRoot": "0xffb90dc88c6475d3ae801c8c4f604719717f434f59e07dbf47fc180cc85696b0",
            "transactionsTrie": "0x56e81f171bcc55a6ff8345e692c0f86e5b48e01b996cadc001622fb5e363b421",
            "receiptTrie": "0x56e81f171bcc55a6ff8345e692c0f86e5b48e01b996cadc001622fb5e363b421",
            "bloom": "0x00000000000000000000000000000000000000000000000000000000000000000000000000000000000000000000000000000000000000000000000000000000000000000000000000000000000000000000000000000000000000000000000000000000000000000000000000000000000000000000000000000000000000000000000000000000000000000000000000000000000000000000000000000000000000000000000000000000000000000000000000000000000000000000000000000000000000000000000000000000000000000000000000000000000000000000000000000000000000000000000000000000000000000000000000000000",
            "difficulty": "0x00",
            "number": "0x00",
            "gasLimit": "0x989680",
            "gasUsed": "0x00",
            "timestamp": "0x00",
            "extraData": "0x00",
            "mixHash": "0x0000000000000000000000000000000000000000000000000000000000000000",
            "nonce": "0x0000000000000000",
            "baseFeePerGas": "0x0b",
            "withdrawalsRoot": "0x56e81f171bcc55a6ff8345e692c0f86e5b48e01b996cadc001622fb5e363b421",
            "blobGasUsed": "0x00",
            "excessBlobGas": "0x00",
            "parentBeaconBlockRoot": "0x0000000000000000000000000000000000000000000000000000000000000000",
            "hash": "0x4aed5050db9b963c5530b48a5eed29f486e2391cd3d58d99829c32611f6ba99b"
        },
        "pre": {
            "0x000f3df6d732807ef1319fb7b8bb8522d0beac02": {
                "nonce": "0x01",
                "balance": "0x00",
                "code": "0x3373fffffffffffffffffffffffffffffffffffffffe14604d57602036146024575f5ffd5b5f35801560495762001fff810690815414603c575f5ffd5b62001fff01545f5260205ff35b5f5ffd5b62001fff42064281555f359062001fff015500",
                "storage": {}
            },
            "0xd66f224cbd2fabb21b17bb53c56118f32f62ebd6": {
                "nonce": "0x00",
                "balance": "0x0de0b6b3a7640000",
                "code": "0x",
                "storage": {}
            },
            "0x652a62e8338e91a46aa8387a2c205f35f79347ab": {
                "nonce": "0x00",
                "balance": "0x0de0b6b3a7640000",
                "code": "0x604060006040600060003561eaf6fa600055600160015500",
                "storage": {}
            },
            "0x335c5531b84765a7626e6e76688f18b81be5259c": {
                "nonce": "0x00",
                "balance": "0x00",
                "code": "0x600160035200",
                "storage": {}
            },
            "0x1e28daa61ad32aac8383a1f7b17986c69f0c3273": {
                "nonce": "0x00",
                "balance": "0x00",
                "code": "0x60016003526040600060406000600073335c5531b84765a7626e6e76688f18b81be5259c614e34f250600160205200",
                "storage": {}
            },
            "0x45445092b290295fb6c954103ff2ce24cf3cfaf5": {
                "nonce": "0x00",
                "balance": "0x00",
                "code": "0x600160035260406000604060006000731e28daa61ad32aac8383a1f7b17986c69f0c3273619c90f2505b61c350608051101560455760013b506001608051016080526029565b00",
                "storage": {}
            },
            "0x7da35806c36ef9661efa1128809b18a8ed9c78f0": {
                "nonce": "0x00",
                "balance": "0x00",
                "code": "0x600160035260406000604060006000731e28daa61ad32aac8383a1f7b17986c69f0c3273619c90f250600160035500",
                "storage": {}
            }
        },
        "postState": {
            "0x000f3df6d732807ef1319fb7b8bb8522d0beac02": {
                "nonce": "0x01",
                "balance": "0x00",
                "code": "0x3373fffffffffffffffffffffffffffffffffffffffe14604d57602036146024575f5ffd5b5f35801560495762001fff810690815414603c575f5ffd5b62001fff01545f5260205ff35b5f5ffd5b62001fff42064281555f359062001fff015500",
                "storage": {
                    "0x03e8": "0x03e8"
                }
            },
            "0xd66f224cbd2fabb21b17bb53c56118f32f62ebd6": {
                "nonce": "0x01",
                "balance": "0x0de0b6b3a7537384",
                "code": "0x",
                "storage": {}
            },
            "0x652a62e8338e91a46aa8387a2c205f35f79347ab": {
                "nonce": "0x00",
                "balance": "0x0de0b6b3a7640000",
                "code": "0x604060006040600060003561eaf6fa600055600160015500",
                "storage": {
                    "0x01": "0x01"
                }
            },
            "0x335c5531b84765a7626e6e76688f18b81be5259c": {
                "nonce": "0x00",
                "balance": "0x00",
                "code": "0x600160035200",
                "storage": {}
            },
            "0x1e28daa61ad32aac8383a1f7b17986c69f0c3273": {
                "nonce": "0x00",
                "balance": "0x00",
                "code": "0x60016003526040600060406000600073335c5531b84765a7626e6e76688f18b81be5259c614e34f250600160205200",
                "storage": {}
            },
            "0x45445092b290295fb6c954103ff2ce24cf3cfaf5": {
                "nonce": "0x00",
                "balance": "0x00",
                "code": "0x600160035260406000604060006000731e28daa61ad32aac8383a1f7b17986c69f0c3273619c90f2505b61c350608051101560455760013b506001608051016080526029565b00",
                "storage": {}
            },
            "0x7da35806c36ef9661efa1128809b18a8ed9c78f0": {
                "nonce": "0x00",
                "balance": "0x00",
                "code": "0x600160035260406000604060006000731e28daa61ad32aac8383a1f7b17986c69f0c3273619c90f250600160035500",
                "storage": {}
            }
        },
        "lastblockhash": "0xdb64063beefc38f965b06c54be5b8dd197cb122032c5f55ef34e0e6f6c487e26",
        "config": {
            "network": "Cancun",
            "chainid": "0x01",
            "blobSchedule": {
                "Cancun": {
                    "target": "0x03",
                    "max": "0x06",
                    "baseFeeUpdateFraction": "0x32f0ed"
                }
            }
        },
        "genesisRLP": "0xf9023bf90235a00000000000000000000000000000000000000000000000000000000000000000a01dcc4de8dec75d7aab85b567b6ccd41ad312451b948a7413f0a142fd40d49347940000000000000000000000000000000000000000a0ffb90dc88c6475d3ae801c8c4f604719717f434f59e07dbf47fc180cc85696b0a056e81f171bcc55a6ff8345e692c0f86e5b48e01b996cadc001622fb5e363b421a056e81f171bcc55a6ff8345e692c0f86e5b48e01b996cadc001622fb5e363b421b9010000000000000000000000000000000000000000000000000000000000000000000000000000000000000000000000000000000000000000000000000000000000000000000000000000000000000000000000000000000000000000000000000000000000000000000000000000000000000000000000000000000000000000000000000000000000000000000000000000000000000000000000000000000000000000000000000000000000000000000000000000000000000000000000000000000000000000000000000000000000000000000000000000000000000000000000000000000000000000000000000000000000000000000000000000000000808083989680808000a000000000000000000000000000000000000000000000000000000000000000008800000000000000000ba056e81f171bcc55a6ff8345e692c0f86e5b48e01b996cadc001622fb5e363b4218080a00000000000000000000000000000000000000000000000000000000000000000c0c0c0",
        "blocks": [
            {
                "blockHeader": {
                    "parentHash": "0x4aed5050db9b963c5530b48a5eed29f486e2391cd3d58d99829c32611f6ba99b",
                    "uncleHash": "0x1dcc4de8dec75d7aab85b567b6ccd41ad312451b948a7413f0a142fd40d49347",
                    "coinbase": "0x2adc25665018aa1fe0e6bc666dac8fc2697ff9ba",
                    "stateRoot": "0xb207e0cbfe2b848b1f6653b28b464cc23252b0498e03b3ee7244d46df00f8e21",
                    "transactionsTrie": "0xaaaef01efcec9642dcf955ff6edcd34dbeafd715da9485b34017fc8c70566117",
                    "receiptTrie": "0xac3ca6247e0defbbd30c034fab785140f13cf7b3a04267fa885cd8dc4d7c7c5f",
                    "bloom": "0x00000000000000000000000000000000000000000000000000000000000000000000000000000000000000000000000000000000000000000000000000000000000000000000000000000000000000000000000000000000000000000000000000000000000000000000000000000000000000000000000000000000000000000000000000000000000000000000000000000000000000000000000000000000000000000000000000000000000000000000000000000000000000000000000000000000000000000000000000000000000000000000000000000000000000000000000000000000000000000000000000000000000000000000000000000000",
                    "difficulty": "0x00",
                    "number": "0x01",
                    "gasLimit": "0x989680",
                    "gasUsed": "0x01a7a6",
                    "timestamp": "0x03e8",
                    "extraData": "0x00",
                    "mixHash": "0x0000000000000000000000000000000000000000000000000000000000020000",
                    "nonce": "0x0000000000000000",
                    "baseFeePerGas": "0x0a",
                    "withdrawalsRoot": "0x56e81f171bcc55a6ff8345e692c0f86e5b48e01b996cadc001622fb5e363b421",
                    "blobGasUsed": "0x00",
                    "excessBlobGas": "0x00",
                    "parentBeaconBlockRoot": "0x0000000000000000000000000000000000000000000000000000000000000000",
                    "hash": "0xdb64063beefc38f965b06c54be5b8dd197cb122032c5f55ef34e0e6f6c487e26"
                },
                "transactions": [
                    {
                        "type": "0x00",
                        "chainId": "0x01",
                        "nonce": "0x00",
                        "gasPrice": "0x0a",
                        "gasLimit": "0x029fe0",
                        "to": "0x652a62e8338e91a46aa8387a2c205f35f79347ab",
                        "value": "0x00",
                        "data": "0x0000000000000000000000007da35806c36ef9661efa1128809b18a8ed9c78f0",
                        "v": "0x26",
                        "r": "0x03fd2cf0f9f03fa6499f4f1c923ea9f9a70e5e0a519db1ab46f38eb952a555cb",
                        "s": "0x1e5e191e26af4ccd3a18975fb1d550cbbf7bbcbeb8e61e2223106650df839294",
                        "sender": "0xd66f224cbd2fabb21b17bb53c56118f32f62ebd6"
                    }
                ],
                "uncleHeaders": [],
                "withdrawals": [],
                "receipts": [
                    {
                        "transactionHash": "0x1e020a96c816d29c5ab4355b479ef91f2c1133916660cb4594d6a08d2f4d0a46",
                        "type": "0x00",
                        "cumulativeGasUsed": "0x01a7a6",
                        "bloom": "0x00000000000000000000000000000000000000000000000000000000000000000000000000000000000000000000000000000000000000000000000000000000000000000000000000000000000000000000000000000000000000000000000000000000000000000000000000000000000000000000000000000000000000000000000000000000000000000000000000000000000000000000000000000000000000000000000000000000000000000000000000000000000000000000000000000000000000000000000000000000000000000000000000000000000000000000000000000000000000000000000000000000000000000000000000000000",
                        "logs": [],
                        "status": true,
                        "rlp": "0xf90109018301a7a6b9010000000000000000000000000000000000000000000000000000000000000000000000000000000000000000000000000000000000000000000000000000000000000000000000000000000000000000000000000000000000000000000000000000000000000000000000000000000000000000000000000000000000000000000000000000000000000000000000000000000000000000000000000000000000000000000000000000000000000000000000000000000000000000000000000000000000000000000000000000000000000000000000000000000000000000000000000000000000000000000000000000000000000000000000000000000000c0"
                    }
                ],
                "rlp": "0xf902c3f9023aa04aed5050db9b963c5530b48a5eed29f486e2391cd3d58d99829c32611f6ba99ba01dcc4de8dec75d7aab85b567b6ccd41ad312451b948a7413f0a142fd40d49347942adc25665018aa1fe0e6bc666dac8fc2697ff9baa0b207e0cbfe2b848b1f6653b28b464cc23252b0498e03b3ee7244d46df00f8e21a0aaaef01efcec9642dcf955ff6edcd34dbeafd715da9485b34017fc8c70566117a0ac3ca6247e0defbbd30c034fab785140f13cf7b3a04267fa885cd8dc4d7c7c5fb90100000000000000000000000000000000000000000000000000000000000000000000000000000000000000000000000000000000000000000000000000000000000000000000000000000000000000000000000000000000000000000000000000000000000000000000000000000000000000000000000000000000000000000000000000000000000000000000000000000000000000000000000000000000000000000000000000000000000000000000000000000000000000000000000000000000000000000000000000000000000000000000000000000000000000000000000000000000000000000000000000000000000000000000000000000000008001839896808301a7a68203e800a000000000000000000000000000000000000000000000000000000000000200008800000000000000000aa056e81f171bcc55a6ff8345e692c0f86e5b48e01b996cadc001622fb5e363b4218080a00000000000000000000000000000000000000000000000000000000000000000f882f880800a83029fe094652a62e8338e91a46aa8387a2c205f35f79347ab80a00000000000000000000000007da35806c36ef9661efa1128809b18a8ed9c78f026a003fd2cf0f9f03fa6499f4f1c923ea9f9a70e5e0a519db1ab46f38eb952a555cba01e5e191e26af4ccd3a18975fb1d550cbbf7bbcbeb8e61e2223106650df839294c0c0",
                "blocknumber": "1"
            }
        ],
        "sealEngine": "NoProof",
        "_info": {
            "hash": "0xbbefd8cdff93991522e1041096c55b122d4de9e4d5323eb42d14a53658134b43",
            "fixture-format": "blockchain_test",
            "comment": "`execution-specs` generated test",
            "filling-transition-tool": "2.19.0",
            "description": "Test_static_callcallcodecallcode_011_oogm_after_2.",
            "url": "https://github.com/ethereum/execution-specs/blob/tests-snobal-devnet-5@v8037.0.0/tests/ported_static/stStaticCall/test_static_callcallcodecallcode_011_oogm_after_2.py#L25",
            "metadata": {
                "opcode_count": {}
            }
        }
    },
    "tests/ported_static/stStaticCall/test_static_callcallcodecallcode_011_oogm_after_2.py::test_static_callcallcodecallcode_011_oogm_after_2[fork_Cancun-blockchain_test_from_state_test-d1]": {
        "network": "Cancun",
        "genesisBlockHeader": {
            "parentHash": "0x0000000000000000000000000000000000000000000000000000000000000000",
            "uncleHash": "0x1dcc4de8dec75d7aab85b567b6ccd41ad312451b948a7413f0a142fd40d49347",
            "coinbase": "0x0000000000000000000000000000000000000000",
            "stateRoot": "0xffb90dc88c6475d3ae801c8c4f604719717f434f59e07dbf47fc180cc85696b0",
            "transactionsTrie": "0x56e81f171bcc55a6ff8345e692c0f86e5b48e01b996cadc001622fb5e363b421",
            "receiptTrie": "0x56e81f171bcc55a6ff8345e692c0f86e5b48e01b996cadc001622fb5e363b421",
            "bloom": "0x00000000000000000000000000000000000000000000000000000000000000000000000000000000000000000000000000000000000000000000000000000000000000000000000000000000000000000000000000000000000000000000000000000000000000000000000000000000000000000000000000000000000000000000000000000000000000000000000000000000000000000000000000000000000000000000000000000000000000000000000000000000000000000000000000000000000000000000000000000000000000000000000000000000000000000000000000000000000000000000000000000000000000000000000000000000",
            "difficulty": "0x00",
            "number": "0x00",
            "gasLimit": "0x989680",
            "gasUsed": "0x00",
            "timestamp": "0x00",
            "extraData": "0x00",
            "mixHash": "0x0000000000000000000000000000000000000000000000000000000000000000",
            "nonce": "0x0000000000000000",
            "baseFeePerGas": "0x0b",
            "withdrawalsRoot": "0x56e81f171bcc55a6ff8345e692c0f86e5b48e01b996cadc001622fb5e363b421",
            "blobGasUsed": "0x00",
            "excessBlobGas": "0x00",
            "parentBeaconBlockRoot": "0x0000000000000000000000000000000000000000000000000000000000000000",
            "hash": "0x4aed5050db9b963c5530b48a5eed29f486e2391cd3d58d99829c32611f6ba99b"
        },
        "pre": {
            "0x000f3df6d732807ef1319fb7b8bb8522d0beac02": {
                "nonce": "0x01",
                "balance": "0x00",
                "code": "0x3373fffffffffffffffffffffffffffffffffffffffe14604d57602036146024575f5ffd5b5f35801560495762001fff810690815414603c575f5ffd5b62001fff01545f5260205ff35b5f5ffd5b62001fff42064281555f359062001fff015500",
                "storage": {}
            },
            "0xd66f224cbd2fabb21b17bb53c56118f32f62ebd6": {
                "nonce": "0x00",
                "balance": "0x0de0b6b3a7640000",
                "code": "0x",
                "storage": {}
            },
            "0x652a62e8338e91a46aa8387a2c205f35f79347ab": {
                "nonce": "0x00",
                "balance": "0x0de0b6b3a7640000",
                "code": "0x604060006040600060003561eaf6fa600055600160015500",
                "storage": {}
            },
            "0x335c5531b84765a7626e6e76688f18b81be5259c": {
                "nonce": "0x00",
                "balance": "0x00",
                "code": "0x600160035200",
                "storage": {}
            },
            "0x1e28daa61ad32aac8383a1f7b17986c69f0c3273": {
                "nonce": "0x00",
                "balance": "0x00",
                "code": "0x60016003526040600060406000600073335c5531b84765a7626e6e76688f18b81be5259c614e34f250600160205200",
                "storage": {}
            },
            "0x45445092b290295fb6c954103ff2ce24cf3cfaf5": {
                "nonce": "0x00",
                "balance": "0x00",
                "code": "0x600160035260406000604060006000731e28daa61ad32aac8383a1f7b17986c69f0c3273619c90f2505b61c350608051101560455760013b506001608051016080526029565b00",
                "storage": {}
            },
            "0x7da35806c36ef9661efa1128809b18a8ed9c78f0": {
                "nonce": "0x00",
                "balance": "0x00",
                "code": "0x600160035260406000604060006000731e28daa61ad32aac8383a1f7b17986c69f0c3273619c90f250600160035500",
                "storage": {}
            }
        },
        "postState": {
            "0x000f3df6d732807ef1319fb7b8bb8522d0beac02": {
                "nonce": "0x01",
                "balance": "0x00",
                "code": "0x3373fffffffffffffffffffffffffffffffffffffffe14604d57602036146024575f5ffd5b5f35801560495762001fff810690815414603c575f5ffd5b62001fff01545f5260205ff35b5f5ffd5b62001fff42064281555f359062001fff015500",
                "storage": {
                    "0x03e8": "0x03e8"
                }
            },
            "0xd66f224cbd2fabb21b17bb53c56118f32f62ebd6": {
                "nonce": "0x01",
                "balance": "0x0de0b6b3a7537384",
                "code": "0x",
                "storage": {}
            },
            "0x652a62e8338e91a46aa8387a2c205f35f79347ab": {
                "nonce": "0x00",
                "balance": "0x0de0b6b3a7640000",
                "code": "0x604060006040600060003561eaf6fa600055600160015500",
                "storage": {
                    "0x01": "0x01"
                }
            },
            "0x335c5531b84765a7626e6e76688f18b81be5259c": {
                "nonce": "0x00",
                "balance": "0x00",
                "code": "0x600160035200",
                "storage": {}
            },
            "0x1e28daa61ad32aac8383a1f7b17986c69f0c3273": {
                "nonce": "0x00",
                "balance": "0x00",
                "code": "0x60016003526040600060406000600073335c5531b84765a7626e6e76688f18b81be5259c614e34f250600160205200",
                "storage": {}
            },
            "0x45445092b290295fb6c954103ff2ce24cf3cfaf5": {
                "nonce": "0x00",
                "balance": "0x00",
                "code": "0x600160035260406000604060006000731e28daa61ad32aac8383a1f7b17986c69f0c3273619c90f2505b61c350608051101560455760013b506001608051016080526029565b00",
                "storage": {}
            },
            "0x7da35806c36ef9661efa1128809b18a8ed9c78f0": {
                "nonce": "0x00",
                "balance": "0x00",
                "code": "0x600160035260406000604060006000731e28daa61ad32aac8383a1f7b17986c69f0c3273619c90f250600160035500",
                "storage": {}
            }
        },
        "lastblockhash": "0x04cfdb0a4f585b3c4abbd8674f542cc597fa910e18ef707272e518da9974100b",
        "config": {
            "network": "Cancun",
            "chainid": "0x01",
            "blobSchedule": {
                "Cancun": {
                    "target": "0x03",
                    "max": "0x06",
                    "baseFeeUpdateFraction": "0x32f0ed"
                }
            }
        },
        "genesisRLP": "0xf9023bf90235a00000000000000000000000000000000000000000000000000000000000000000a01dcc4de8dec75d7aab85b567b6ccd41ad312451b948a7413f0a142fd40d49347940000000000000000000000000000000000000000a0ffb90dc88c6475d3ae801c8c4f604719717f434f59e07dbf47fc180cc85696b0a056e81f171bcc55a6ff8345e692c0f86e5b48e01b996cadc001622fb5e363b421a056e81f171bcc55a6ff8345e692c0f86e5b48e01b996cadc001622fb5e363b421b9010000000000000000000000000000000000000000000000000000000000000000000000000000000000000000000000000000000000000000000000000000000000000000000000000000000000000000000000000000000000000000000000000000000000000000000000000000000000000000000000000000000000000000000000000000000000000000000000000000000000000000000000000000000000000000000000000000000000000000000000000000000000000000000000000000000000000000000000000000000000000000000000000000000000000000000000000000000000000000000000000000000000000000000000000000000000808083989680808000a000000000000000000000000000000000000000000000000000000000000000008800000000000000000ba056e81f171bcc55a6ff8345e692c0f86e5b48e01b996cadc001622fb5e363b4218080a00000000000000000000000000000000000000000000000000000000000000000c0c0c0",
        "blocks": [
            {
                "blockHeader": {
                    "parentHash": "0x4aed5050db9b963c5530b48a5eed29f486e2391cd3d58d99829c32611f6ba99b",
                    "uncleHash": "0x1dcc4de8dec75d7aab85b567b6ccd41ad312451b948a7413f0a142fd40d49347",
                    "coinbase": "0x2adc25665018aa1fe0e6bc666dac8fc2697ff9ba",
                    "stateRoot": "0xb207e0cbfe2b848b1f6653b28b464cc23252b0498e03b3ee7244d46df00f8e21",
                    "transactionsTrie": "0xd1552e23e6032cb0ca742a390f7aa46b995f0bedc99573f136c95f4f3d957985",
                    "receiptTrie": "0xac3ca6247e0defbbd30c034fab785140f13cf7b3a04267fa885cd8dc4d7c7c5f",
                    "bloom": "0x00000000000000000000000000000000000000000000000000000000000000000000000000000000000000000000000000000000000000000000000000000000000000000000000000000000000000000000000000000000000000000000000000000000000000000000000000000000000000000000000000000000000000000000000000000000000000000000000000000000000000000000000000000000000000000000000000000000000000000000000000000000000000000000000000000000000000000000000000000000000000000000000000000000000000000000000000000000000000000000000000000000000000000000000000000000",
                    "difficulty": "0x00",
                    "number": "0x01",
                    "gasLimit": "0x989680",
                    "gasUsed": "0x01a7a6",
                    "timestamp": "0x03e8",
                    "extraData": "0x00",
                    "mixHash": "0x0000000000000000000000000000000000000000000000000000000000020000",
                    "nonce": "0x0000000000000000",
                    "baseFeePerGas": "0x0a",
                    "withdrawalsRoot": "0x56e81f171bcc55a6ff8345e692c0f86e5b48e01b996cadc001622fb5e363b421",
                    "blobGasUsed": "0x00",
                    "excessBlobGas": "0x00",
                    "parentBeaconBlockRoot": "0x0000000000000000000000000000000000000000000000000000000000000000",
                    "hash": "0x04cfdb0a4f585b3c4abbd8674f542cc597fa910e18ef707272e518da9974100b"
                },
                "transactions": [
                    {
                        "type": "0x00",
                        "chainId": "0x01",
                        "nonce": "0x00",
                        "gasPrice": "0x0a",
                        "gasLimit": "0x029fe0",
                        "to": "0x652a62e8338e91a46aa8387a2c205f35f79347ab",
                        "value": "0x00",
                        "data": "0x00000000000000000000000045445092b290295fb6c954103ff2ce24cf3cfaf5",
                        "v": "0x26",
                        "r": "0xf20e0f237cb1e104102e888b99fe525776f02eb32669af326096f846fc402f09",
                        "s": "0x4ab4d9d7410136b795363cef8dd4e39e4978a36060b07386f7a826614fc07ffc",
                        "sender": "0xd66f224cbd2fabb21b17bb53c56118f32f62ebd6"
                    }
                ],
                "uncleHeaders": [],
                "withdrawals": [],
                "receipts": [
                    {
                        "transactionHash": "0x80f75e9cc7216c46157f9c38f4e19bd34422e900dc8bb284eef51a672ab31147",
                        "type": "0x00",
                        "cumulativeGasUsed": "0x01a7a6",
                        "bloom": "0x00000000000000000000000000000000000000000000000000000000000000000000000000000000000000000000000000000000000000000000000000000000000000000000000000000000000000000000000000000000000000000000000000000000000000000000000000000000000000000000000000000000000000000000000000000000000000000000000000000000000000000000000000000000000000000000000000000000000000000000000000000000000000000000000000000000000000000000000000000000000000000000000000000000000000000000000000000000000000000000000000000000000000000000000000000000",
                        "logs": [],
                        "status": true,
                        "rlp": "0xf90109018301a7a6b9010000000000000000000000000000000000000000000000000000000000000000000000000000000000000000000000000000000000000000000000000000000000000000000000000000000000000000000000000000000000000000000000000000000000000000000000000000000000000000000000000000000000000000000000000000000000000000000000000000000000000000000000000000000000000000000000000000000000000000000000000000000000000000000000000000000000000000000000000000000000000000000000000000000000000000000000000000000000000000000000000000000000000000000000000000000000c0"
                    }
                ],
                "rlp": "0xf902c3f9023aa04aed5050db9b963c5530b48a5eed29f486e2391cd3d58d99829c32611f6ba99ba01dcc4de8dec75d7aab85b567b6ccd41ad312451b948a7413f0a142fd40d49347942adc25665018aa1fe0e6bc666dac8fc2697ff9baa0b207e0cbfe2b848b1f6653b28b464cc23252b0498e03b3ee7244d46df00f8e21a0d1552e23e6032cb0ca742a390f7aa46b995f0bedc99573f136c95f4f3d957985a0ac3ca6247e0defbbd30c034fab785140f13cf7b3a04267fa885cd8dc4d7c7c5fb90100000000000000000000000000000000000000000000000000000000000000000000000000000000000000000000000000000000000000000000000000000000000000000000000000000000000000000000000000000000000000000000000000000000000000000000000000000000000000000000000000000000000000000000000000000000000000000000000000000000000000000000000000000000000000000000000000000000000000000000000000000000000000000000000000000000000000000000000000000000000000000000000000000000000000000000000000000000000000000000000000000000000000000000000000000000008001839896808301a7a68203e800a000000000000000000000000000000000000000000000000000000000000200008800000000000000000aa056e81f171bcc55a6ff8345e692c0f86e5b48e01b996cadc001622fb5e363b4218080a00000000000000000000000000000000000000000000000000000000000000000f882f880800a83029fe094652a62e8338e91a46aa8387a2c205f35f79347ab80a000000000000000000000000045445092b290295fb6c954103ff2ce24cf3cfaf526a0f20e0f237cb1e104102e888b99fe525776f02eb32669af326096f846fc402f09a04ab4d9d7410136b795363cef8dd4e39e4978a36060b07386f7a826614fc07ffcc0c0",
                "blocknumber": "1"
            }
        ],
        "sealEngine": "NoProof",
        "_info": {
            "hash": "0xb7df4f366414902137cf640299d7bb19625c721a97db827950d8c97f6134a097",
            "fixture-format": "blockchain_test",
            "comment": "`execution-specs` generated test",
            "filling-transition-tool": "2.19.0",
            "description": "Test_static_callcallcodecallcode_011_oogm_after_2.",
            "url": "https://github.com/ethereum/execution-specs/blob/tests-snobal-devnet-5@v8037.0.0/tests/ported_static/stStaticCall/test_static_callcallcodecallcode_011_oogm_after_2.py#L25",
            "metadata": {
                "opcode_count": {}
            }
        }
    }
}