{
    "tests/ported_static/stStaticCall/test_static_call_to_call_code_op_code_check.py::test_static_call_to_call_code_op_code_check[fork_Cancun-blockchain_test_from_state_test]": {
        "network": "Cancun",
        "genesisBlockHeader": {
            "parentHash": "0x0000000000000000000000000000000000000000000000000000000000000000",
            "uncleHash": "0x1dcc4de8dec75d7aab85b567b6ccd41ad312451b948a7413f0a142fd40d49347",
            "coinbase": "0x0000000000000000000000000000000000000000",
            "stateRoot": "0xa1eae4fde40a8c4b701a7d78665dbec5135f5bfbdc5d2581021a778f4db7e35b",
            "transactionsTrie": "0x56e81f171bcc55a6ff8345e692c0f86e5b48e01b996cadc001622fb5e363b421",
            "receiptTrie": "0x56e81f171bcc55a6ff8345e692c0f86e5b48e01b996cadc001622fb5e363b421",
            "bloom": "0x00000000000000000000000000000000000000000000000000000000000000000000000000000000000000000000000000000000000000000000000000000000000000000000000000000000000000000000000000000000000000000000000000000000000000000000000000000000000000000000000000000000000000000000000000000000000000000000000000000000000000000000000000000000000000000000000000000000000000000000000000000000000000000000000000000000000000000000000000000000000000000000000000000000000000000000000000000000000000000000000000000000000000000000000000000000",
            "difficulty": "0x00",
            "number": "0x00",
            "gasLimit": "0x989680",
            "gasUsed": "0x00",
            "timestamp": "0x00",
            "extraData": "0x00",
            "mixHash": "0x0000000000000000000000000000000000000000000000000000000000000000",
            "nonce": "0x0000000000000000",
            "baseFeePerGas": "0x0b",
            "withdrawalsRoot": "0x56e81f171bcc55a6ff8345e692c0f86e5b48e01b996cadc001622fb5e363b421",
            "blobGasUsed": "0x00",
            "excessBlobGas": "0x00",
            "parentBeaconBlockRoot": "0x0000000000000000000000000000000000000000000000000000000000000000",
            "hash": "0xaad820f8a21034cca1942bd626e43828ee8648aec499eb77d6b7fd26b98fb971"
        },
        "pre": {
            "0x000f3df6d732807ef1319fb7b8bb8522d0beac02": {
                "nonce": "0x01",
                "balance": "0x00",
                "code": "0x3373fffffffffffffffffffffffffffffffffffffffe14604d57602036146024575f5ffd5b5f35801560495762001fff810690815414603c575f5ffd5b62001fff01545f5260205ff35b5f5ffd5b62001fff42064281555f359062001fff015500",
                "storage": {}
            },
            "0x7ef8271e6cdb0a23220b73bf3e9697e173f9d015": {
                "nonce": "0x00",
                "balance": "0x0de0b6b3a7640000",
                "code": "0x6000600060006000600035620186a0fa60005500",
                "storage": {}
            },
            "0xea435169b5c0848d55c71080fb937e9b611a505d": {
                "nonce": "0x00",
                "balance": "0x0de0b6b3a7640000",
                "code": "0x6000600060006000600073f0d7d1b32bbc0012f183fb3e3f4f9434abed93bd620186a0f26000526000516001146038576001600155603e565b60016001525b00",
                "storage": {}
            },
            "0xf0d7d1b32bbc0012f183fb3e3f4f9434abed93bd": {
                "nonce": "0x00",
                "balance": "0x0de0b6b3a7640000",
                "code": "0x3273ebaf50debf10e08302fe4280c32df010463ca2971460225760026001556028565b60016001525b3373ea435169b5c0848d55c71080fb937e9b611a505d14604b5760026001556051565b60016001525b3073ea435169b5c0848d55c71080fb937e9b611a505d146074576002600155607a565b60016001525b34600014608a5760026001556090565b60016001525b00",
                "storage": {}
            },
            "0xebaf50debf10e08302fe4280c32df010463ca297": {
                "nonce": "0x00",
                "balance": "0x0de0b6b3a7640000",
                "code": "0x",
                "storage": {}
            }
        },
        "postState": {
            "0x000f3df6d732807ef1319fb7b8bb8522d0beac02": {
                "nonce": "0x01",
                "balance": "0x00",
                "code": "0x3373fffffffffffffffffffffffffffffffffffffffe14604d57602036146024575f5ffd5b5f35801560495762001fff810690815414603c575f5ffd5b62001fff01545f5260205ff35b5f5ffd5b62001fff42064281555f359062001fff015500",
                "storage": {
                    "0x03e8": "0x03e8"
                }
            },
            "0x7ef8271e6cdb0a23220b73bf3e9697e173f9d015": {
                "nonce": "0x00",
                "balance": "0x0de0b6b3a76586a0",
                "code": "0x6000600060006000600035620186a0fa60005500",
                "storage": {
                    "0x00": "0x01"
                }
            },
            "0xea435169b5c0848d55c71080fb937e9b611a505d": {
                "nonce": "0x00",
                "balance": "0x0de0b6b3a7640000",
                "code": "0x6000600060006000600073f0d7d1b32bbc0012f183fb3e3f4f9434abed93bd620186a0f26000526000516001146038576001600155603e565b60016001525b00",
                "storage": {}
            },
            "0xf0d7d1b32bbc0012f183fb3e3f4f9434abed93bd": {
                "nonce": "0x00",
                "balance": "0x0de0b6b3a7640000",
                "code": "0x3273ebaf50debf10e08302fe4280c32df010463ca2971460225760026001556028565b60016001525b3373ea435169b5c0848d55c71080fb937e9b611a505d14604b5760026001556051565b60016001525b3073ea435169b5c0848d55c71080fb937e9b611a505d146074576002600155607a565b60016001525b34600014608a5760026001556090565b60016001525b00",
                "storage": {}
            },
            "0xebaf50debf10e08302fe4280c32df010463ca297": {
                "nonce": "0x01",
                "balance": "0x0de0b6b3a75b036a",
                "code": "0x",
                "storage": {}
            }
        },
        "lastblockhash": "0xc11fd8874f16a5e4f52f8ba8ae8e2a8ffafc14a9c31ee2bca1df43570a1972f4",
        "config": {
            "network": "Cancun",
            "chainid": "0x01",
            "blobSchedule": {
                "Cancun": {
                    "target": "0x03",
                    "max": "0x06",
                    "baseFeeUpdateFraction": "0x32f0ed"
                }
            }
        },
        "genesisRLP": "0xf9023bf90235a00000000000000000000000000000000000000000000000000000000000000000a01dcc4de8dec75d7aab85b567b6ccd41ad312451b948a7413f0a142fd40d49347940000000000000000000000000000000000000000a0a1eae4fde40a8c4b701a7d78665dbec5135f5bfbdc5d2581021a778f4db7e35ba056e81f171bcc55a6ff8345e692c0f86e5b48e01b996cadc001622fb5e363b421a056e81f171bcc55a6ff8345e692c0f86e5b48e01b996cadc001622fb5e363b421b9010000000000000000000000000000000000000000000000000000000000000000000000000000000000000000000000000000000000000000000000000000000000000000000000000000000000000000000000000000000000000000000000000000000000000000000000000000000000000000000000000000000000000000000000000000000000000000000000000000000000000000000000000000000000000000000000000000000000000000000000000000000000000000000000000000000000000000000000000000000000000000000000000000000000000000000000000000000000000000000000000000000000000000000000000000000000808083989680808000a000000000000000000000000000000000000000000000000000000000000000008800000000000000000ba056e81f171bcc55a6ff8345e692c0f86e5b48e01b996cadc001622fb5e363b4218080a00000000000000000000000000000000000000000000000000000000000000000c0c0c0",
        "blocks": [
            {
                "blockHeader": {
                    "parentHash": "0xaad820f8a21034cca1942bd626e43828ee8648aec499eb77d6b7fd26b98fb971",
                    "uncleHash": "0x1dcc4de8dec75d7aab85b567b6ccd41ad312451b948a7413f0a142fd40d49347",
                    "coinbase": "0x2adc25665018aa1fe0e6bc666dac8fc2697ff9ba",
                    "stateRoot": "0x1b320484e67915dc07647054d786b9758b53edaa8aa9684347e8f326ae9bbfe5",
                    "transactionsTrie": "0x08dbd1f579b0d17d34f69b7448882c508eee2aa7c46b5f09f2ca7a67c41cd256",
                    "receiptTrie": "0xd1096f4d440f624538777c38f89db6c44bc028252a3963d47b6d5b8555fa9457",
                    "bloom": "0x00000000000000000000000000000000000000000000000000000000000000000000000000000000000000000000000000000000000000000000000000000000000000000000000000000000000000000000000000000000000000000000000000000000000000000000000000000000000000000000000000000000000000000000000000000000000000000000000000000000000000000000000000000000000000000000000000000000000000000000000000000000000000000000000000000000000000000000000000000000000000000000000000000000000000000000000000000000000000000000000000000000000000000000000000000000",
                    "difficulty": "0x00",
                    "number": "0x01",
                    "gasLimit": "0x989680",
                    "gasUsed": "0xbeff",
                    "timestamp": "0x03e8",
                    "extraData": "0x00",
                    "mixHash": "0x0000000000000000000000000000000000000000000000000000000000020000",
                    "nonce": "0x0000000000000000",
                    "baseFeePerGas": "0x0a",
                    "withdrawalsRoot": "0x56e81f171bcc55a6ff8345e692c0f86e5b48e01b996cadc001622fb5e363b421",
                    "blobGasUsed": "0x00",
                    "excessBlobGas": "0x00",
                    "parentBeaconBlockRoot": "0x0000000000000000000000000000000000000000000000000000000000000000",
                    "hash": "0xc11fd8874f16a5e4f52f8ba8ae8e2a8ffafc14a9c31ee2bca1df43570a1972f4"
                },
                "transactions": [
                    {
                        "type": "0x00",
                        "chainId": "0x01",
                        "nonce": "0x00",
                        "gasPrice": "0x0a",
                        "gasLimit": "0x0f4240",
                        "to": "0x7ef8271e6cdb0a23220b73bf3e9697e173f9d015",
                        "value": "0x0186a0",
                        "data": "0x000000000000000000000000ea435169b5c0848d55c71080fb937e9b611a505d",
                        "v": "0x25",
                        "r": "0xeff98b6103104a3fe9617f20c6800316aeb2ba74f926c09e33fa290b6180ef63",
                        "s": "0x0543d075c6f7ff33303a8944cf702f5f9e8446419e0c3972f663bc87cabc2750",
                        "sender": "0xebaf50debf10e08302fe4280c32df010463ca297"
                    }
                ],
                "uncleHeaders": [],
                "withdrawals": [],
                "receipts": [
                    {
                        "transactionHash": "0xc57d1379b8c32a8076bab7d341f3ddaab803c83a5f4e04cbc7f7a3734562b5c0",
                        "type": "0x00",
                        "cumulativeGasUsed": "0xbeff",
                        "bloom": "0x00000000000000000000000000000000000000000000000000000000000000000000000000000000000000000000000000000000000000000000000000000000000000000000000000000000000000000000000000000000000000000000000000000000000000000000000000000000000000000000000000000000000000000000000000000000000000000000000000000000000000000000000000000000000000000000000000000000000000000000000000000000000000000000000000000000000000000000000000000000000000000000000000000000000000000000000000000000000000000000000000000000000000000000000000000000",
                        "logs": [],
                        "status": true,
                        "rlp": "0xf901080182beffb9010000000000000000000000000000000000000000000000000000000000000000000000000000000000000000000000000000000000000000000000000000000000000000000000000000000000000000000000000000000000000000000000000000000000000000000000000000000000000000000000000000000000000000000000000000000000000000000000000000000000000000000000000000000000000000000000000000000000000000000000000000000000000000000000000000000000000000000000000000000000000000000000000000000000000000000000000000000000000000000000000000000000000000000000000000000000c0"
                    }
                ],
                "rlp": "0xf902c5f90239a0aad820f8a21034cca1942bd626e43828ee8648aec499eb77d6b7fd26b98fb971a01dcc4de8dec75d7aab85b567b6ccd41ad312451b948a7413f0a142fd40d49347942adc25665018aa1fe0e6bc666dac8fc2697ff9baa01b320484e67915dc07647054d786b9758b53edaa8aa9684347e8f326ae9bbfe5a008dbd1f579b0d17d34f69b7448882c508eee2aa7c46b5f09f2ca7a67c41cd256a0d1096f4d440f624538777c38f89db6c44bc028252a3963d47b6d5b8555fa9457b901000000000000000000000000000000000000000000000000000000000000000000000000000000000000000000000000000000000000000000000000000000000000000000000000000000000000000000000000000000000000000000000000000000000000000000000000000000000000000000000000000000000000000000000000000000000000000000000000000000000000000000000000000000000000000000000000000000000000000000000000000000000000000000000000000000000000000000000000000000000000000000000000000000000000000000000000000000000000000000000000000000000000000000000000000000000080018398968082beff8203e800a000000000000000000000000000000000000000000000000000000000000200008800000000000000000aa056e81f171bcc55a6ff8345e692c0f86e5b48e01b996cadc001622fb5e363b4218080a00000000000000000000000000000000000000000000000000000000000000000f885f883800a830f4240947ef8271e6cdb0a23220b73bf3e9697e173f9d015830186a0a0000000000000000000000000ea435169b5c0848d55c71080fb937e9b611a505d25a0eff98b6103104a3fe9617f20c6800316aeb2ba74f926c09e33fa290b6180ef63a00543d075c6f7ff33303a8944cf702f5f9e8446419e0c3972f663bc87cabc2750c0c0",
                "blocknumber": "1"
            }
        ],
        "sealEngine": "NoProof",
        "_info": {
            "hash": "0xe9f4fca327ef4c32cb257e5ad03142c50806acc075597f299c37b1a191983b8f",
            "fixture-format": "blockchain_test",
            "comment": "`execution-specs` generated test",
            "filling-transition-tool": "2.19.0",
            "description": "Test_static_call_to_call_code_op_code_check.",
            "url": "https://github.com/ethereum/execution-specs/blob/tests-bal@v5.7.0/tests/ported_static/stStaticCall/test_static_call_to_call_code_op_code_check.py#L25",
            "metadata": {
                "opcode_count": {}
            }
        }
    }
}