{
    "tests/ported_static/stEIP150singleCodeGasPrices/test_raw_call_code_gas_ask.py::test_raw_call_code_gas_ask[fork_Cancun-blockchain_test_from_state_test]": {
        "network": "Cancun",
        "genesisBlockHeader": {
            "parentHash": "0x0000000000000000000000000000000000000000000000000000000000000000",
            "uncleHash": "0x1dcc4de8dec75d7aab85b567b6ccd41ad312451b948a7413f0a142fd40d49347",
            "coinbase": "0x0000000000000000000000000000000000000000",
            "stateRoot": "0x77e2bb0f632a7057550405ae06b96254c855b3c32ef27f7c3022aac167f645a0",
            "transactionsTrie": "0x56e81f171bcc55a6ff8345e692c0f86e5b48e01b996cadc001622fb5e363b421",
            "receiptTrie": "0x56e81f171bcc55a6ff8345e692c0f86e5b48e01b996cadc001622fb5e363b421",
            "bloom": "0x00000000000000000000000000000000000000000000000000000000000000000000000000000000000000000000000000000000000000000000000000000000000000000000000000000000000000000000000000000000000000000000000000000000000000000000000000000000000000000000000000000000000000000000000000000000000000000000000000000000000000000000000000000000000000000000000000000000000000000000000000000000000000000000000000000000000000000000000000000000000000000000000000000000000000000000000000000000000000000000000000000000000000000000000000000000",
            "difficulty": "0x00",
            "number": "0x00",
            "gasLimit": "0x989680",
            "gasUsed": "0x00",
            "timestamp": "0x00",
            "extraData": "0x00",
            "mixHash": "0x0000000000000000000000000000000000000000000000000000000000000000",
            "nonce": "0x0000000000000000",
            "baseFeePerGas": "0x0b",
            "withdrawalsRoot": "0x56e81f171bcc55a6ff8345e692c0f86e5b48e01b996cadc001622fb5e363b421",
            "blobGasUsed": "0x00",
            "excessBlobGas": "0x00",
            "parentBeaconBlockRoot": "0x0000000000000000000000000000000000000000000000000000000000000000",
            "hash": "0xb2314aae2f1184fbdb456c0f89f25000ca5dc7662f3ca3b174579bd78ee1cbd6"
        },
        "pre": {
            "0x000f3df6d732807ef1319fb7b8bb8522d0beac02": {
                "nonce": "0x01",
                "balance": "0x00",
                "code": "0x3373fffffffffffffffffffffffffffffffffffffffe14604d57602036146024575f5ffd5b5f35801560495762001fff810690815414603c575f5ffd5b62001fff01545f5260205ff35b5f5ffd5b62001fff42064281555f359062001fff015500",
                "storage": {}
            },
            "0xe497cd0909c3691e0b6d2a42e26f36696fc27ba5": {
                "nonce": "0x00",
                "balance": "0x00",
                "code": "0x5a60025500",
                "storage": {}
            },
            "0xfaa10b404ab607779993c016cd5da73ae1f29d7e": {
                "nonce": "0x00",
                "balance": "0xe8d4a51000",
                "code": "0x",
                "storage": {}
            },
            "0x971fad0ee9240291bba0691a5c8db57fcb9a6a22": {
                "nonce": "0x00",
                "balance": "0x00",
                "code": "0x5a6000526000600060006000600073e497cd0909c3691e0b6d2a42e26f36696fc27ba5622dc6c0f2505a6000510360015500",
                "storage": {}
            }
        },
        "postState": {
            "0x000f3df6d732807ef1319fb7b8bb8522d0beac02": {
                "nonce": "0x01",
                "balance": "0x00",
                "code": "0x3373fffffffffffffffffffffffffffffffffffffffe14604d57602036146024575f5ffd5b5f35801560495762001fff810690815414603c575f5ffd5b62001fff01545f5260205ff35b5f5ffd5b62001fff42064281555f359062001fff015500",
                "storage": {
                    "0x03e8": "0x03e8"
                }
            },
            "0xe497cd0909c3691e0b6d2a42e26f36696fc27ba5": {
                "nonce": "0x00",
                "balance": "0x00",
                "code": "0x5a60025500",
                "storage": {}
            },
            "0xfaa10b404ab607779993c016cd5da73ae1f29d7e": {
                "nonce": "0x01",
                "balance": "0xe8d49ab57e",
                "code": "0x",
                "storage": {}
            },
            "0x971fad0ee9240291bba0691a5c8db57fcb9a6a22": {
                "nonce": "0x00",
                "balance": "0x00",
                "code": "0x5a6000526000600060006000600073e497cd0909c3691e0b6d2a42e26f36696fc27ba5622dc6c0f2505a6000510360015500",
                "storage": {
                    "0x02": "0x0727bb",
                    "0x01": "0x60a3"
                }
            }
        },
        "lastblockhash": "0xd69ad95f6912dcb8e55c7c074ed3cfe1a390e93eaf51c8a9adcf7236187c96ca",
        "config": {
            "network": "Cancun",
            "chainid": "0x01",
            "blobSchedule": {
                "Cancun": {
                    "target": "0x03",
                    "max": "0x06",
                    "baseFeeUpdateFraction": "0x32f0ed"
                }
            }
        },
        "genesisRLP": "0xf9023bf90235a00000000000000000000000000000000000000000000000000000000000000000a01dcc4de8dec75d7aab85b567b6ccd41ad312451b948a7413f0a142fd40d49347940000000000000000000000000000000000000000a077e2bb0f632a7057550405ae06b96254c855b3c32ef27f7c3022aac167f645a0a056e81f171bcc55a6ff8345e692c0f86e5b48e01b996cadc001622fb5e363b421a056e81f171bcc55a6ff8345e692c0f86e5b48e01b996cadc001622fb5e363b421b9010000000000000000000000000000000000000000000000000000000000000000000000000000000000000000000000000000000000000000000000000000000000000000000000000000000000000000000000000000000000000000000000000000000000000000000000000000000000000000000000000000000000000000000000000000000000000000000000000000000000000000000000000000000000000000000000000000000000000000000000000000000000000000000000000000000000000000000000000000000000000000000000000000000000000000000000000000000000000000000000000000000000000000000000000000000000808083989680808000a000000000000000000000000000000000000000000000000000000000000000008800000000000000000ba056e81f171bcc55a6ff8345e692c0f86e5b48e01b996cadc001622fb5e363b4218080a00000000000000000000000000000000000000000000000000000000000000000c0c0c0",
        "blocks": [
            {
                "blockHeader": {
                    "parentHash": "0xb2314aae2f1184fbdb456c0f89f25000ca5dc7662f3ca3b174579bd78ee1cbd6",
                    "uncleHash": "0x1dcc4de8dec75d7aab85b567b6ccd41ad312451b948a7413f0a142fd40d49347",
                    "coinbase": "0x2adc25665018aa1fe0e6bc666dac8fc2697ff9ba",
                    "stateRoot": "0x351c9e4e3be0309d9a20740b44f3ac3975dc13404bb7dbb390d71a66f16b1f14",
                    "transactionsTrie": "0x13656b3763331254055acd7a21e1df788c1530010af4204df2c68534bac68235",
                    "receiptTrie": "0x79c381f43cbc5bf41e882025bc24dc587fff9c12c5a9dac807b9bd1a9d131ef5",
                    "bloom": "0x00000000000000000000000000000000000000000000000000000000000000000000000000000000000000000000000000000000000000000000000000000000000000000000000000000000000000000000000000000000000000000000000000000000000000000000000000000000000000000000000000000000000000000000000000000000000000000000000000000000000000000000000000000000000000000000000000000000000000000000000000000000000000000000000000000000000000000000000000000000000000000000000000000000000000000000000000000000000000000000000000000000000000000000000000000000",
                    "difficulty": "0x00",
                    "number": "0x01",
                    "gasLimit": "0x989680",
                    "gasUsed": "0x01090d",
                    "timestamp": "0x03e8",
                    "extraData": "0x00",
                    "mixHash": "0x0000000000000000000000000000000000000000000000000000000000020000",
                    "nonce": "0x0000000000000000",
                    "baseFeePerGas": "0x0a",
                    "withdrawalsRoot": "0x56e81f171bcc55a6ff8345e692c0f86e5b48e01b996cadc001622fb5e363b421",
                    "blobGasUsed": "0x00",
                    "excessBlobGas": "0x00",
                    "parentBeaconBlockRoot": "0x0000000000000000000000000000000000000000000000000000000000000000",
                    "hash": "0xd69ad95f6912dcb8e55c7c074ed3cfe1a390e93eaf51c8a9adcf7236187c96ca"
                },
                "transactions": [
                    {
                        "type": "0x00",
                        "chainId": "0x01",
                        "nonce": "0x00",
                        "gasPrice": "0x0a",
                        "gasLimit": "0x07a120",
                        "to": "0x971fad0ee9240291bba0691a5c8db57fcb9a6a22",
                        "value": "0x00",
                        "data": "0x",
                        "v": "0x26",
                        "r": "0x2f1a7f628e20a25c8c58952fd01185275c8832c3fde60ce459f237c1950208d2",
                        "s": "0x461109bb2d79c9bcfd7c650fb614a1136716ca38f0e385fd504ed8090dbaac20",
                        "sender": "0xfaa10b404ab607779993c016cd5da73ae1f29d7e"
                    }
                ],
                "uncleHeaders": [],
                "withdrawals": [],
                "receipts": [
                    {
                        "transactionHash": "0x8cdcb6f84a4f25058260d7f0c9d3f16ef9b7bd9ad4517a2de8a756b71612bd44",
                        "type": "0x00",
                        "cumulativeGasUsed": "0x01090d",
                        "bloom": "0x00000000000000000000000000000000000000000000000000000000000000000000000000000000000000000000000000000000000000000000000000000000000000000000000000000000000000000000000000000000000000000000000000000000000000000000000000000000000000000000000000000000000000000000000000000000000000000000000000000000000000000000000000000000000000000000000000000000000000000000000000000000000000000000000000000000000000000000000000000000000000000000000000000000000000000000000000000000000000000000000000000000000000000000000000000000",
                        "logs": [],
                        "status": true,
                        "rlp": "0xf90109018301090db9010000000000000000000000000000000000000000000000000000000000000000000000000000000000000000000000000000000000000000000000000000000000000000000000000000000000000000000000000000000000000000000000000000000000000000000000000000000000000000000000000000000000000000000000000000000000000000000000000000000000000000000000000000000000000000000000000000000000000000000000000000000000000000000000000000000000000000000000000000000000000000000000000000000000000000000000000000000000000000000000000000000000000000000000000000000000c0"
                    }
                ],
                "rlp": "0xf902a3f9023aa0b2314aae2f1184fbdb456c0f89f25000ca5dc7662f3ca3b174579bd78ee1cbd6a01dcc4de8dec75d7aab85b567b6ccd41ad312451b948a7413f0a142fd40d49347942adc25665018aa1fe0e6bc666dac8fc2697ff9baa0351c9e4e3be0309d9a20740b44f3ac3975dc13404bb7dbb390d71a66f16b1f14a013656b3763331254055acd7a21e1df788c1530010af4204df2c68534bac68235a079c381f43cbc5bf41e882025bc24dc587fff9c12c5a9dac807b9bd1a9d131ef5b90100000000000000000000000000000000000000000000000000000000000000000000000000000000000000000000000000000000000000000000000000000000000000000000000000000000000000000000000000000000000000000000000000000000000000000000000000000000000000000000000000000000000000000000000000000000000000000000000000000000000000000000000000000000000000000000000000000000000000000000000000000000000000000000000000000000000000000000000000000000000000000000000000000000000000000000000000000000000000000000000000000000000000000000000000000000008001839896808301090d8203e800a000000000000000000000000000000000000000000000000000000000000200008800000000000000000aa056e81f171bcc55a6ff8345e692c0f86e5b48e01b996cadc001622fb5e363b4218080a00000000000000000000000000000000000000000000000000000000000000000f862f860800a8307a12094971fad0ee9240291bba0691a5c8db57fcb9a6a22808026a02f1a7f628e20a25c8c58952fd01185275c8832c3fde60ce459f237c1950208d2a0461109bb2d79c9bcfd7c650fb614a1136716ca38f0e385fd504ed8090dbaac20c0c0",
                "blocknumber": "1"
            }
        ],
        "sealEngine": "NoProof",
        "_info": {
            "hash": "0x48203b6781b9b523756fe5f77729d369665aa027fdeb569120f4ddad57aeb341",
            "fixture-format": "blockchain_test",
            "comment": "`execution-specs` generated test",
            "filling-transition-tool": "2.19.0",
            "description": "Test_raw_call_code_gas_ask.",
            "url": "https://github.com/ethereum/execution-specs/blob/tests-bal@v5.6.1/tests/ported_static/stEIP150singleCodeGasPrices/test_raw_call_code_gas_ask.py#L25",
            "metadata": {
                "opcode_count": {}
            },
            "reference-spec": "https://github.com/ethereum/EIPs/blob/master/N/A",
            "reference-spec-version": "N/A"
        }
    }
}