{
    "tests/ported_static/stStackTests/test_stack_overflow_swap.py::test_stack_overflow_swap[fork_Cancun-blockchain_test_from_state_test]": {
        "network": "Cancun",
        "genesisBlockHeader": {
            "parentHash": "0x0000000000000000000000000000000000000000000000000000000000000000",
            "uncleHash": "0x1dcc4de8dec75d7aab85b567b6ccd41ad312451b948a7413f0a142fd40d49347",
            "coinbase": "0x0000000000000000000000000000000000000000",
            "stateRoot": "0x37ef1dcdd6b96be00d8487501c76279af66e6e3d9c7a9e8d73170873b8f59403",
            "transactionsTrie": "0x56e81f171bcc55a6ff8345e692c0f86e5b48e01b996cadc001622fb5e363b421",
            "receiptTrie": "0x56e81f171bcc55a6ff8345e692c0f86e5b48e01b996cadc001622fb5e363b421",
            "bloom": "0x00000000000000000000000000000000000000000000000000000000000000000000000000000000000000000000000000000000000000000000000000000000000000000000000000000000000000000000000000000000000000000000000000000000000000000000000000000000000000000000000000000000000000000000000000000000000000000000000000000000000000000000000000000000000000000000000000000000000000000000000000000000000000000000000000000000000000000000000000000000000000000000000000000000000000000000000000000000000000000000000000000000000000000000000000000000",
            "difficulty": "0x00",
            "number": "0x00",
            "gasLimit": "0x07270e00",
            "gasUsed": "0x00",
            "timestamp": "0x00",
            "extraData": "0x00",
            "mixHash": "0x0000000000000000000000000000000000000000000000000000000000000000",
            "nonce": "0x0000000000000000",
            "baseFeePerGas": "0x0b",
            "withdrawalsRoot": "0x56e81f171bcc55a6ff8345e692c0f86e5b48e01b996cadc001622fb5e363b421",
            "blobGasUsed": "0x00",
            "excessBlobGas": "0x00",
            "parentBeaconBlockRoot": "0x0000000000000000000000000000000000000000000000000000000000000000",
            "hash": "0x29668b2d3ca6199ffae49aef6bb34e53f42005f9847eed2825b90838cb9f457c"
        },
        "pre": {
            "0x000f3df6d732807ef1319fb7b8bb8522d0beac02": {
                "nonce": "0x01",
                "balance": "0x00",
                "code": "0x3373fffffffffffffffffffffffffffffffffffffffe14604d57602036146024575f5ffd5b5f35801560495762001fff810690815414603c575f5ffd5b62001fff01545f5260205ff35b5f5ffd5b62001fff42064281555f359062001fff015500",
                "storage": {}
            },
            "0xb40b2f69a4e470f0b1e657ac5774a35a157b7672": {
                "nonce": "0x00",
                "balance": "0xe8d4a5100000000000",
                "code": "0x",
                "storage": {}
            },
            "0x6fe695af805fd901757d7c3266fac2789196a9d5": {
                "nonce": "0x00",
                "balance": "0xe8d4a5100000000000",
                "code": "0x",
                "storage": {}
            }
        },
        "postState": {
            "0x000f3df6d732807ef1319fb7b8bb8522d0beac02": {
                "nonce": "0x01",
                "balance": "0x00",
                "code": "0x3373fffffffffffffffffffffffffffffffffffffffe14604d57602036146024575f5ffd5b5f35801560495762001fff810690815414603c575f5ffd5b62001fff01545f5260205ff35b5f5ffd5b62001fff42064281555f359062001fff015500",
                "storage": {
                    "0x03e8": "0x03e8"
                }
            },
            "0xb40b2f69a4e470f0b1e657ac5774a35a157b7672": {
                "nonce": "0x01",
                "balance": "0xe8d4a50ffffff44bdd",
                "code": "0x",
                "storage": {}
            },
            "0x6fe695af805fd901757d7c3266fac2789196a9d5": {
                "nonce": "0x00",
                "balance": "0xe8d4a5100000000000",
                "code": "0x",
                "storage": {}
            },
            "0x8a39521e9382b9a4bd3cba8b89e745d050055150": {
                "nonce": "0x01",
                "balance": "0x01",
                "code": "0x",
                "storage": {}
            }
        },
        "lastblockhash": "0x4ecfce0cbcc8030aee533d1a3129959ed230b5f75fbc0d95473ede18c58452ff",
        "config": {
            "network": "Cancun",
            "chainid": "0x01",
            "blobSchedule": {
                "Cancun": {
                    "target": "0x03",
                    "max": "0x06",
                    "baseFeeUpdateFraction": "0x32f0ed"
                }
            }
        },
        "genesisRLP": "0xf9023cf90236a00000000000000000000000000000000000000000000000000000000000000000a01dcc4de8dec75d7aab85b567b6ccd41ad312451b948a7413f0a142fd40d49347940000000000000000000000000000000000000000a037ef1dcdd6b96be00d8487501c76279af66e6e3d9c7a9e8d73170873b8f59403a056e81f171bcc55a6ff8345e692c0f86e5b48e01b996cadc001622fb5e363b421a056e81f171bcc55a6ff8345e692c0f86e5b48e01b996cadc001622fb5e363b421b901000000000000000000000000000000000000000000000000000000000000000000000000000000000000000000000000000000000000000000000000000000000000000000000000000000000000000000000000000000000000000000000000000000000000000000000000000000000000000000000000000000000000000000000000000000000000000000000000000000000000000000000000000000000000000000000000000000000000000000000000000000000000000000000000000000000000000000000000000000000000000000000000000000000000000000000000000000000000000000000000000000000000000000000000000000000080808407270e00808000a000000000000000000000000000000000000000000000000000000000000000008800000000000000000ba056e81f171bcc55a6ff8345e692c0f86e5b48e01b996cadc001622fb5e363b4218080a00000000000000000000000000000000000000000000000000000000000000000c0c0c0",
        "blocks": [
            {
                "blockHeader": {
                    "parentHash": "0x29668b2d3ca6199ffae49aef6bb34e53f42005f9847eed2825b90838cb9f457c",
                    "uncleHash": "0x1dcc4de8dec75d7aab85b567b6ccd41ad312451b948a7413f0a142fd40d49347",
                    "coinbase": "0x2adc25665018aa1fe0e6bc666dac8fc2697ff9ba",
                    "stateRoot": "0xa72d43a4349d1e19e1f54a7acd782217ef6c952bc19f8bd0d3fbc1fa46bdf1f1",
                    "transactionsTrie": "0x4ecae227659e0c154f11d88a6c88875abad3dd17d203ff9c0f9ccbfb7a2b8563",
                    "receiptTrie": "0x777b75ab2a21fc1e65e1c2fa6dbe855dc390805ee52f981c2756a47a160e6fbf",
                    "bloom": "0x00000000000000000000000000000000000000000000000000000000000000000000000000000000000000000000000000000000000000000000000000000000000000000000000000000000000000000000000000000000000000000000000000000000000000000000000000000000000000000000000000000000000000000000000000000000000000000000000000000000000000000000000000000000000000000000000000000000000000000000000000000000000000000000000000000000000000000000000000000000000000000000000000000000000000000000000000000000000000000000000000000000000000000000000000000000",
                    "difficulty": "0x00",
                    "number": "0x01",
                    "gasLimit": "0x07270e00",
                    "gasUsed": "0x012b9d",
                    "timestamp": "0x03e8",
                    "extraData": "0x00",
                    "mixHash": "0x0000000000000000000000000000000000000000000000000000000000020000",
                    "nonce": "0x0000000000000000",
                    "baseFeePerGas": "0x0a",
                    "withdrawalsRoot": "0x56e81f171bcc55a6ff8345e692c0f86e5b48e01b996cadc001622fb5e363b421",
                    "blobGasUsed": "0x00",
                    "excessBlobGas": "0x00",
                    "parentBeaconBlockRoot": "0x0000000000000000000000000000000000000000000000000000000000000000",
                    "hash": "0x4ecfce0cbcc8030aee533d1a3129959ed230b5f75fbc0d95473ede18c58452ff"
                },
                "transactions": [
                    {
                        "type": "0x00",
                        "chainId": "0x01",
                        "nonce": "0x00",
                        "gasPrice": "0x0a",
                        "gasLimit": "0x5b8d80",
                        "value": "0x01",
                        "data": "0x600060006000600060006000600060006000600060006000600060006000600060006000600060006000600060006000600060006000600060006000600060006000600060006000600060006000600060006000600060006000600060006000600060006000600060006000600060006000600060006000600060006000600060006000600060006000600060006000600060006000600060006000600060006000600060006000600060006000600060006000600060006000600060006000600060006000600060006000600060006000600060006000600060006000600060006000600060006000600060006000600060006000600060006000600060006000600060006000600060006000600060006000600060006000600060006000600060006000600060006000600060006000600060006000600060006000600060006000600060006000600060006000600060006000600060006000600060006000600060006000600060006000600060006000600060006000600060006000600060006000600060006000600060006000600060006000600060006000600060006000600060006000600060006000600060006000600060006000600060006000600060006000600060006000600060006000600060006000600060006000600060006000600060006000600060006000600060006000600060006000600060006000600060006000600060006000600060006000600060006000600060006000600060006000600060006000600060006000600060006000600060006000600060006000600060006000600060006000600060006000600060006000600060006000600060006000600060006000600060006000600060006000600060006000600060006000600060006000600060006000600060006000600060006000600060006000600060006000600060006000600060006000600060006000600060006000600060006000600060006000600060006000600060006000600060006000600060006000600060006000600060006000600060006000600060006000600060006000600060006000600060006000600060006000600060006000600060006000600060006000600060006000600060006000600060006000600060006000600060006000600060006000600060006000600060006000600060006000600060006000600060006000600060006000600060006000600060006000600060006000600060006000600060006000600060006000600060006000600060006000600060006000600060006000600060006000600060006000600060006000600060006000600060006000600060006000600060006000600060006000600060006000600060006000600060006000600060006000600060006000600060006000600060006000600060006000600060006000600060006000600060006000600060006000600060006000600060006000600060006000600060006000600060006000600060006000600060006000600060006000600060006000600060006000600060006000600060006000600060006000600060006000600060006000600060006000600060006000600060006000600060006000600060006000600060006000600060006000600060006000600060006000600060006000600060006000600060006000600060006000600060006000600060006000600060006000600060006000600060006000600060006000600060006000600060006000600060006000600060006000600060006000600060006000600060006000600060006000600060006000600060006000600060006000600060006000600060006000600060006000600060006000600060006000600060006000600060006000600060006000600060006000600060006000600060006000600060006000600060006000600060006000600060006000600060006000600060006000600060006000600060006000600060006000600060006000600060006000600060006000600060006000600060006000600060006000600060006000600060006000600060006000600060006000600060006000600060006000600060006000600060006000600060006000600060006000600060006000600060006000600060006000600060006000600060006000600060006000600060006000600060006000600060006000600060006000600060006000600060006000600060006000600060006000600060006000600060006000600060006000600060006000600060006000600060006000600060006000600060006000600060006000600060006000600060006000600060006000600060006000600060006000600060006000600060006000600060006000600060006000600060006000600060006000600060006000600060006000600060006000600060006000600060006000600060006000600060006000600060006000600060006000600060006000600060006000600060006000600060006000600060006000600060006000600060006000600060006000600060006000600060006000600060006000600060006000600060006000600060006000600060006000600060006000600060006000600060006000600060006000600060006000600060006000600060006000600060006000600060006000600060006000600060006000600060006000600060006000600060006000600060006000600060006000600060006000600060006000600060006000600060006000600060006000600060006000600060006000600060006000600060006000600090",
                        "v": "0x25",
                        "r": "0x78640e3555d2c1361ea052ef87051ac399d02f099500565f11944d1bfefa779e",
                        "s": "0x5e4875c3a0b17818a7e33343a0c5879ebafba41a65361990ec2b2350e9b73487",
                        "sender": "0xb40b2f69a4e470f0b1e657ac5774a35a157b7672",
                        "to": ""
                    }
                ],
                "uncleHeaders": [],
                "withdrawals": [],
                "receipts": [
                    {
                        "transactionHash": "0x91c34512a1972118b7c20e73199cf73166c185d8787032a0de0026c69bdffcf4",
                        "type": "0x00",
                        "cumulativeGasUsed": "0x012b9d",
                        "bloom": "0x00000000000000000000000000000000000000000000000000000000000000000000000000000000000000000000000000000000000000000000000000000000000000000000000000000000000000000000000000000000000000000000000000000000000000000000000000000000000000000000000000000000000000000000000000000000000000000000000000000000000000000000000000000000000000000000000000000000000000000000000000000000000000000000000000000000000000000000000000000000000000000000000000000000000000000000000000000000000000000000000000000000000000000000000000000000",
                        "logs": [],
                        "status": true,
                        "rlp": "0xf901090183012b9db9010000000000000000000000000000000000000000000000000000000000000000000000000000000000000000000000000000000000000000000000000000000000000000000000000000000000000000000000000000000000000000000000000000000000000000000000000000000000000000000000000000000000000000000000000000000000000000000000000000000000000000000000000000000000000000000000000000000000000000000000000000000000000000000000000000000000000000000000000000000000000000000000000000000000000000000000000000000000000000000000000000000000000000000000000000000000c0"
                    }
                ],
                "rlp": "0xf90a95f9023ba029668b2d3ca6199ffae49aef6bb34e53f42005f9847eed2825b90838cb9f457ca01dcc4de8dec75d7aab85b567b6ccd41ad312451b948a7413f0a142fd40d49347942adc25665018aa1fe0e6bc666dac8fc2697ff9baa0a72d43a4349d1e19e1f54a7acd782217ef6c952bc19f8bd0d3fbc1fa46bdf1f1a04ecae227659e0c154f11d88a6c88875abad3dd17d203ff9c0f9ccbfb7a2b8563a0777b75ab2a21fc1e65e1c2fa6dbe855dc390805ee52f981c2756a47a160e6fbfb901000000000000000000000000000000000000000000000000000000000000000000000000000000000000000000000000000000000000000000000000000000000000000000000000000000000000000000000000000000000000000000000000000000000000000000000000000000000000000000000000000000000000000000000000000000000000000000000000000000000000000000000000000000000000000000000000000000000000000000000000000000000000000000000000000000000000000000000000000000000000000000000000000000000000000000000000000000000000000000000000000000000000000000000000000000000080018407270e0083012b9d8203e800a000000000000000000000000000000000000000000000000000000000000200008800000000000000000aa056e81f171bcc55a6ff8345e692c0f86e5b48e01b996cadc001622fb5e363b4218080a00000000000000000000000000000000000000000000000000000000000000000f90852f9084f800a835b8d808001b9080160006000600060006000600060006000600060006000600060006000600060006000600060006000600060006000600060006000600060006000600060006000600060006000600060006000600060006000600060006000600060006000600060006000600060006000600060006000600060006000600060006000600060006000600060006000600060006000600060006000600060006000600060006000600060006000600060006000600060006000600060006000600060006000600060006000600060006000600060006000600060006000600060006000600060006000600060006000600060006000600060006000600060006000600060006000600060006000600060006000600060006000600060006000600060006000600060006000600060006000600060006000600060006000600060006000600060006000600060006000600060006000600060006000600060006000600060006000600060006000600060006000600060006000600060006000600060006000600060006000600060006000600060006000600060006000600060006000600060006000600060006000600060006000600060006000600060006000600060006000600060006000600060006000600060006000600060006000600060006000600060006000600060006000600060006000600060006000600060006000600060006000600060006000600060006000600060006000600060006000600060006000600060006000600060006000600060006000600060006000600060006000600060006000600060006000600060006000600060006000600060006000600060006000600060006000600060006000600060006000600060006000600060006000600060006000600060006000600060006000600060006000600060006000600060006000600060006000600060006000600060006000600060006000600060006000600060006000600060006000600060006000600060006000600060006000600060006000600060006000600060006000600060006000600060006000600060006000600060006000600060006000600060006000600060006000600060006000600060006000600060006000600060006000600060006000600060006000600060006000600060006000600060006000600060006000600060006000600060006000600060006000600060006000600060006000600060006000600060006000600060006000600060006000600060006000600060006000600060006000600060006000600060006000600060006000600060006000600060006000600060006000600060006000600060006000600060006000600060006000600060006000600060006000600060006000600060006000600060006000600060006000600060006000600060006000600060006000600060006000600060006000600060006000600060006000600060006000600060006000600060006000600060006000600060006000600060006000600060006000600060006000600060006000600060006000600060006000600060006000600060006000600060006000600060006000600060006000600060006000600060006000600060006000600060006000600060006000600060006000600060006000600060006000600060006000600060006000600060006000600060006000600060006000600060006000600060006000600060006000600060006000600060006000600060006000600060006000600060006000600060006000600060006000600060006000600060006000600060006000600060006000600060006000600060006000600060006000600060006000600060006000600060006000600060006000600060006000600060006000600060006000600060006000600060006000600060006000600060006000600060006000600060006000600060006000600060006000600060006000600060006000600060006000600060006000600060006000600060006000600060006000600060006000600060006000600060006000600060006000600060006000600060006000600060006000600060006000600060006000600060006000600060006000600060006000600060006000600060006000600060006000600060006000600060006000600060006000600060006000600060006000600060006000600060006000600060006000600060006000600060006000600060006000600060006000600060006000600060006000600060006000600060006000600060006000600060006000600060006000600060006000600060006000600060006000600060006000600060006000600060006000600060006000600060006000600060006000600060006000600060006000600060006000600060006000600060006000600060006000600060006000600060006000600060006000600060006000600060006000600060006000600060006000600060006000600060006000600060006000600060006000600060006000600060006000600060006000600060006000600060006000600060006000600060006000600060006000600060006000600060006000600060006000600060006000600060006000600060006000600060006000600060006000600060006000600060006000600060006000600060006000600060006000600060006000600060006000600060006000600060006000600060006000600060006000600060006000600060006000600060006000600060006000600060006000600060006000600060006000600060006000600060009025a078640e3555d2c1361ea052ef87051ac399d02f099500565f11944d1bfefa779ea05e4875c3a0b17818a7e33343a0c5879ebafba41a65361990ec2b2350e9b73487c0c0",
                "blocknumber": "1"
            }
        ],
        "sealEngine": "NoProof",
        "_info": {
            "hash": "0x62690de8cb9c4aea2fd37e48712e98bbdd63880fcdb99aa3fa0576d3e6d0ec0f",
            "fixture-format": "blockchain_test",
            "comment": "`execution-specs` generated test",
            "filling-transition-tool": "2.19.0",
            "description": "Test_stack_overflow_swap.",
            "url": "https://github.com/ethereum/execution-specs/blob/tests-snobal-devnet-5@v8037.0.0/tests/ported_static/stStackTests/test_stack_overflow_swap.py#L24",
            "metadata": {
                "opcode_count": {}
            }
        }
    }
}