{
    "tests/byzantium/eip197_ec_pairing/test_ecpairing.py::test_valid[fork_Paris-blockchain_test_from_state_test-empty-ecpairing]": {
        "network": "Paris",
        "genesisBlockHeader": {
            "parentHash": "0x0000000000000000000000000000000000000000000000000000000000000000",
            "uncleHash": "0x1dcc4de8dec75d7aab85b567b6ccd41ad312451b948a7413f0a142fd40d49347",
            "coinbase": "0x0000000000000000000000000000000000000000",
            "stateRoot": "0x50c8c27134f8ce303fe35ec735bef9003bfde31fab3003bfcd82f095d056b92c",
            "transactionsTrie": "0x56e81f171bcc55a6ff8345e692c0f86e5b48e01b996cadc001622fb5e363b421",
            "receiptTrie": "0x56e81f171bcc55a6ff8345e692c0f86e5b48e01b996cadc001622fb5e363b421",
            "bloom": "0x00000000000000000000000000000000000000000000000000000000000000000000000000000000000000000000000000000000000000000000000000000000000000000000000000000000000000000000000000000000000000000000000000000000000000000000000000000000000000000000000000000000000000000000000000000000000000000000000000000000000000000000000000000000000000000000000000000000000000000000000000000000000000000000000000000000000000000000000000000000000000000000000000000000000000000000000000000000000000000000000000000000000000000000000000000000",
            "difficulty": "0x00",
            "number": "0x00",
            "gasLimit": "0x07270e00",
            "gasUsed": "0x00",
            "timestamp": "0x00",
            "extraData": "0x00",
            "mixHash": "0x0000000000000000000000000000000000000000000000000000000000000000",
            "nonce": "0x0000000000000000",
            "baseFeePerGas": "0x07",
            "hash": "0x5d60aaacb92f3bdceff4bbc7bbf238f17bbe633162791343fa077e5e09051d19"
        },
        "pre": {
            "0xab85ccf59f16d7e38d656c9b2a9179c58390573e": {
                "nonce": "0x01",
                "balance": "0x00",
                "code": "0x366000600037600060003660006000600861afc8f16000553d6001553d600060003e3d600020600255",
                "storage": {}
            },
            "0x1ad9bc24818784172ff393bb6f89f094d4d2ca29": {
                "nonce": "0x00",
                "balance": "0x3635c9adc5dea00000",
                "code": "0x",
                "storage": {}
            }
        },
        "postState": {
            "0xab85ccf59f16d7e38d656c9b2a9179c58390573e": {
                "nonce": "0x01",
                "balance": "0x00",
                "code": "0x366000600037600060003660006000600861afc8f16000553d6001553d600060003e3d600020600255",
                "storage": {
                    "0x00": "0x01",
                    "0x01": "0x20",
                    "0x02": "0xb10e2d527612073b26eecdfd717e6a320cf44b4afac2b0732d9fcbe2b7fa0cf6"
                }
            },
            "0x1ad9bc24818784172ff393bb6f89f094d4d2ca29": {
                "nonce": "0x01",
                "balance": "0x3635c9adc5de8bc838",
                "code": "0x",
                "storage": {}
            },
            "0x2adc25665018aa1fe0e6bc666dac8fc2697ff9ba": {
                "nonce": "0x00",
                "balance": "0x0610bc",
                "code": "0x",
                "storage": {}
            }
        },
        "lastblockhash": "0xab0c6c178132d82670ad01422a10f2a6571daee89aecd326236c83ff9751ec91",
        "config": {
            "network": "Paris",
            "chainid": "0x01"
        },
        "genesisRLP": "0xf901f7f901f2a00000000000000000000000000000000000000000000000000000000000000000a01dcc4de8dec75d7aab85b567b6ccd41ad312451b948a7413f0a142fd40d49347940000000000000000000000000000000000000000a050c8c27134f8ce303fe35ec735bef9003bfde31fab3003bfcd82f095d056b92ca056e81f171bcc55a6ff8345e692c0f86e5b48e01b996cadc001622fb5e363b421a056e81f171bcc55a6ff8345e692c0f86e5b48e01b996cadc001622fb5e363b421b901000000000000000000000000000000000000000000000000000000000000000000000000000000000000000000000000000000000000000000000000000000000000000000000000000000000000000000000000000000000000000000000000000000000000000000000000000000000000000000000000000000000000000000000000000000000000000000000000000000000000000000000000000000000000000000000000000000000000000000000000000000000000000000000000000000000000000000000000000000000000000000000000000000000000000000000000000000000000000000000000000000000000000000000000000000000080808407270e00808000a0000000000000000000000000000000000000000000000000000000000000000088000000000000000007c0c0",
        "blocks": [
            {
                "blockHeader": {
                    "parentHash": "0x5d60aaacb92f3bdceff4bbc7bbf238f17bbe633162791343fa077e5e09051d19",
                    "uncleHash": "0x1dcc4de8dec75d7aab85b567b6ccd41ad312451b948a7413f0a142fd40d49347",
                    "coinbase": "0x2adc25665018aa1fe0e6bc666dac8fc2697ff9ba",
                    "stateRoot": "0x32f0e26244458c37898e251e991b0425c3dbee56615579c377304d8435471e98",
                    "transactionsTrie": "0x39ad2bf064349149caacdf7675db1033c41121dda527f22d1dc5c627ae68e80a",
                    "receiptTrie": "0xa6a2d37f0bb7ee43395dba19a243b4c3d2d6542e0fcb0b437616e35624cbaa52",
                    "bloom": "0x00000000000000000000000000000000000000000000000000000000000000000000000000000000000000000000000000000000000000000000000000000000000000000000000000000000000000000000000000000000000000000000000000000000000000000000000000000000000000000000000000000000000000000000000000000000000000000000000000000000000000000000000000000000000000000000000000000000000000000000000000000000000000000000000000000000000000000000000000000000000000000000000000000000000000000000000000000000000000000000000000000000000000000000000000000000",
                    "difficulty": "0x00",
                    "number": "0x01",
                    "gasLimit": "0x07270e00",
                    "gasUsed": "0x020594",
                    "timestamp": "0x03e8",
                    "extraData": "0x00",
                    "mixHash": "0x0000000000000000000000000000000000000000000000000000000000000000",
                    "nonce": "0x0000000000000000",
                    "baseFeePerGas": "0x07",
                    "hash": "0xab0c6c178132d82670ad01422a10f2a6571daee89aecd326236c83ff9751ec91"
                },
                "transactions": [
                    {
                        "type": "0x00",
                        "chainId": "0x01",
                        "nonce": "0x00",
                        "gasPrice": "0x0a",
                        "gasLimit": "0x040f10",
                        "to": "0xab85ccf59f16d7e38d656c9b2a9179c58390573e",
                        "value": "0x00",
                        "data": "0x",
                        "v": "0x25",
                        "r": "0x3be105e4a69e1b6319a1a6f8e06208bc00446daffa492116cdfa683481716ff4",
                        "s": "0x0d97dbdda6b4b650fcbddd03dbc593f1bbac7c12412269bf3b2e1752e56334cd",
                        "sender": "0x1ad9bc24818784172ff393bb6f89f094d4d2ca29"
                    }
                ],
                "uncleHeaders": [],
                "receipts": [
                    {
                        "transactionHash": "0x55fd21262f5e19b2e323f6aadfa0acf27b3bb8c9c35a73fb6509e74280e25647",
                        "type": "0x00",
                        "cumulativeGasUsed": "0x020594",
                        "bloom": "0x00000000000000000000000000000000000000000000000000000000000000000000000000000000000000000000000000000000000000000000000000000000000000000000000000000000000000000000000000000000000000000000000000000000000000000000000000000000000000000000000000000000000000000000000000000000000000000000000000000000000000000000000000000000000000000000000000000000000000000000000000000000000000000000000000000000000000000000000000000000000000000000000000000000000000000000000000000000000000000000000000000000000000000000000000000000",
                        "logs": [],
                        "status": true,
                        "rlp": "0xf901090183020594b9010000000000000000000000000000000000000000000000000000000000000000000000000000000000000000000000000000000000000000000000000000000000000000000000000000000000000000000000000000000000000000000000000000000000000000000000000000000000000000000000000000000000000000000000000000000000000000000000000000000000000000000000000000000000000000000000000000000000000000000000000000000000000000000000000000000000000000000000000000000000000000000000000000000000000000000000000000000000000000000000000000000000000000000000000000000000c0"
                    }
                ],
                "rlp": "0xf9025ff901f7a05d60aaacb92f3bdceff4bbc7bbf238f17bbe633162791343fa077e5e09051d19a01dcc4de8dec75d7aab85b567b6ccd41ad312451b948a7413f0a142fd40d49347942adc25665018aa1fe0e6bc666dac8fc2697ff9baa032f0e26244458c37898e251e991b0425c3dbee56615579c377304d8435471e98a039ad2bf064349149caacdf7675db1033c41121dda527f22d1dc5c627ae68e80aa0a6a2d37f0bb7ee43395dba19a243b4c3d2d6542e0fcb0b437616e35624cbaa52b901000000000000000000000000000000000000000000000000000000000000000000000000000000000000000000000000000000000000000000000000000000000000000000000000000000000000000000000000000000000000000000000000000000000000000000000000000000000000000000000000000000000000000000000000000000000000000000000000000000000000000000000000000000000000000000000000000000000000000000000000000000000000000000000000000000000000000000000000000000000000000000000000000000000000000000000000000000000000000000000000000000000000000000000000000000000080018407270e00830205948203e800a0000000000000000000000000000000000000000000000000000000000000000088000000000000000007f862f860800a83040f1094ab85ccf59f16d7e38d656c9b2a9179c58390573e808025a03be105e4a69e1b6319a1a6f8e06208bc00446daffa492116cdfa683481716ff4a00d97dbdda6b4b650fcbddd03dbc593f1bbac7c12412269bf3b2e1752e56334cdc0",
                "blocknumber": "1"
            }
        ],
        "sealEngine": "NoProof",
        "_info": {
            "hash": "0xa7a1bb1afd0d4bd71af7b03869155a4849aa9a8970c751a22186d0b5e34dc839",
            "fixture-format": "blockchain_test",
            "comment": "`execution-specs` generated test",
            "filling-transition-tool": "2.19.0",
            "description": "Test valid inputs where the pairing check succeeds.",
            "url": "https://github.com/ethereum/execution-specs/blob/tests-bal@v5.3.0/tests/byzantium/eip197_ec_pairing/test_ecpairing.py#L24",
            "opcode_count": {},
            "reference-spec": "https://github.com/ethereum/EIPs/blob/master/EIPS/eip-197.md",
            "reference-spec-version": "9f9b3d33440e7c122b6c9192facfc380bc009422"
        }
    },
    "tests/byzantium/eip197_ec_pairing/test_ecpairing.py::test_valid[fork_Paris-blockchain_test_from_state_test-one_pair_g1_zero-ecpairing]": {
        "network": "Paris",
        "genesisBlockHeader": {
            "parentHash": "0x0000000000000000000000000000000000000000000000000000000000000000",
            "uncleHash": "0x1dcc4de8dec75d7aab85b567b6ccd41ad312451b948a7413f0a142fd40d49347",
            "coinbase": "0x0000000000000000000000000000000000000000",
            "stateRoot": "0x2fc4d12d7f1a3b8534f0ac9125e9b57ebaa26da423488830c0d7f82ef6ba9c1d",
            "transactionsTrie": "0x56e81f171bcc55a6ff8345e692c0f86e5b48e01b996cadc001622fb5e363b421",
            "receiptTrie": "0x56e81f171bcc55a6ff8345e692c0f86e5b48e01b996cadc001622fb5e363b421",
            "bloom": "0x00000000000000000000000000000000000000000000000000000000000000000000000000000000000000000000000000000000000000000000000000000000000000000000000000000000000000000000000000000000000000000000000000000000000000000000000000000000000000000000000000000000000000000000000000000000000000000000000000000000000000000000000000000000000000000000000000000000000000000000000000000000000000000000000000000000000000000000000000000000000000000000000000000000000000000000000000000000000000000000000000000000000000000000000000000000",
            "difficulty": "0x00",
            "number": "0x00",
            "gasLimit": "0x07270e00",
            "gasUsed": "0x00",
            "timestamp": "0x00",
            "extraData": "0x00",
            "mixHash": "0x0000000000000000000000000000000000000000000000000000000000000000",
            "nonce": "0x0000000000000000",
            "baseFeePerGas": "0x07",
            "hash": "0xceecec1d426a2ae857c9295810d366272dd64ab96c22722ce2e01ee071d75c6a"
        },
        "pre": {
            "0x4c1aef252d187e1f1f34e496082815ffd077f601": {
                "nonce": "0x01",
                "balance": "0x00",
                "code": "0x366000600037600060003660006000600862013498f16000553d6001553d600060003e3d600020600255",
                "storage": {}
            },
            "0x1ad9bc24818784172ff393bb6f89f094d4d2ca29": {
                "nonce": "0x00",
                "balance": "0x3635c9adc5dea00000",
                "code": "0x",
                "storage": {}
            }
        },
        "postState": {
            "0x4c1aef252d187e1f1f34e496082815ffd077f601": {
                "nonce": "0x01",
                "balance": "0x00",
                "code": "0x366000600037600060003660006000600862013498f16000553d6001553d600060003e3d600020600255",
                "storage": {
                    "0x00": "0x01",
                    "0x01": "0x20",
                    "0x02": "0xb10e2d527612073b26eecdfd717e6a320cf44b4afac2b0732d9fcbe2b7fa0cf6"
                }
            },
            "0x1ad9bc24818784172ff393bb6f89f094d4d2ca29": {
                "nonce": "0x01",
                "balance": "0x3635c9adc5de863dbe",
                "code": "0x",
                "storage": {}
            },
            "0x2adc25665018aa1fe0e6bc666dac8fc2697ff9ba": {
                "nonce": "0x00",
                "balance": "0x07ba47",
                "code": "0x",
                "storage": {}
            }
        },
        "lastblockhash": "0x3c4a1f5ddd697448acc81721ef8856f722bd9409be9c9e1171e8b5d1bca55bdc",
        "config": {
            "network": "Paris",
            "chainid": "0x01"
        },
        "genesisRLP": "0xf901f7f901f2a00000000000000000000000000000000000000000000000000000000000000000a01dcc4de8dec75d7aab85b567b6ccd41ad312451b948a7413f0a142fd40d49347940000000000000000000000000000000000000000a02fc4d12d7f1a3b8534f0ac9125e9b57ebaa26da423488830c0d7f82ef6ba9c1da056e81f171bcc55a6ff8345e692c0f86e5b48e01b996cadc001622fb5e363b421a056e81f171bcc55a6ff8345e692c0f86e5b48e01b996cadc001622fb5e363b421b901000000000000000000000000000000000000000000000000000000000000000000000000000000000000000000000000000000000000000000000000000000000000000000000000000000000000000000000000000000000000000000000000000000000000000000000000000000000000000000000000000000000000000000000000000000000000000000000000000000000000000000000000000000000000000000000000000000000000000000000000000000000000000000000000000000000000000000000000000000000000000000000000000000000000000000000000000000000000000000000000000000000000000000000000000000000080808407270e00808000a0000000000000000000000000000000000000000000000000000000000000000088000000000000000007c0c0",
        "blocks": [
            {
                "blockHeader": {
                    "parentHash": "0xceecec1d426a2ae857c9295810d366272dd64ab96c22722ce2e01ee071d75c6a",
                    "uncleHash": "0x1dcc4de8dec75d7aab85b567b6ccd41ad312451b948a7413f0a142fd40d49347",
                    "coinbase": "0x2adc25665018aa1fe0e6bc666dac8fc2697ff9ba",
                    "stateRoot": "0x4a933251cab67421b635b7a5c27f5abbd3d19d0c8578643b616a02db036bf707",
                    "transactionsTrie": "0x501efa2115cb011b0e481e249326248f975ab3a3647bdebce64a61d706d00b61",
                    "receiptTrie": "0xc860df019cee0b54af7d5b842c04838407e0994c07a596f82369a1b786c633b1",
                    "bloom": "0x00000000000000000000000000000000000000000000000000000000000000000000000000000000000000000000000000000000000000000000000000000000000000000000000000000000000000000000000000000000000000000000000000000000000000000000000000000000000000000000000000000000000000000000000000000000000000000000000000000000000000000000000000000000000000000000000000000000000000000000000000000000000000000000000000000000000000000000000000000000000000000000000000000000000000000000000000000000000000000000000000000000000000000000000000000000",
                    "difficulty": "0x00",
                    "number": "0x01",
                    "gasLimit": "0x07270e00",
                    "gasUsed": "0x02936d",
                    "timestamp": "0x03e8",
                    "extraData": "0x00",
                    "mixHash": "0x0000000000000000000000000000000000000000000000000000000000000000",
                    "nonce": "0x0000000000000000",
                    "baseFeePerGas": "0x07",
                    "hash": "0x3c4a1f5ddd697448acc81721ef8856f722bd9409be9c9e1171e8b5d1bca55bdc"
                },
                "transactions": [
                    {
                        "type": "0x00",
                        "chainId": "0x01",
                        "nonce": "0x00",
                        "gasPrice": "0x0a",
                        "gasLimit": "0x049cda",
                        "to": "0x4c1aef252d187e1f1f34e496082815ffd077f601",
                        "value": "0x00",
                        "data": "0x00000000000000000000000000000000000000000000000000000000000000000000000000000000000000000000000000000000000000000000000000000000198e9393920d483a7260bfb731fb5d25f1aa493335a9e71297e485b7aef312c21800deef121f1e76426a00665e5c4479674322d4f75edadd46debd5cd992f6ed090689d0585ff075ec9e99ad690c3395bc4b313370b38ef355acdadcd122975b12c85ea5db8c6deb4aab71808dcb408fe3d1e7690c43d37b4ce6cc0166fa7daa",
                        "v": "0x25",
                        "r": "0x8dc30432496d2ef883a76b03ab57ad6b28e4c0da8095ddd4bbf251b0d61bf558",
                        "s": "0x25b36aa3f983a8f67ffc445e10d17deb4e6cb63c8713fb22a383cc9b1c389b52",
                        "sender": "0x1ad9bc24818784172ff393bb6f89f094d4d2ca29"
                    }
                ],
                "uncleHeaders": [],
                "receipts": [
                    {
                        "transactionHash": "0xea6ca038b58de8ddd9a07d93dd9d710aea6cccb63073c3b7e13f00132387fbdf",
                        "type": "0x00",
                        "cumulativeGasUsed": "0x02936d",
                        "bloom": "0x00000000000000000000000000000000000000000000000000000000000000000000000000000000000000000000000000000000000000000000000000000000000000000000000000000000000000000000000000000000000000000000000000000000000000000000000000000000000000000000000000000000000000000000000000000000000000000000000000000000000000000000000000000000000000000000000000000000000000000000000000000000000000000000000000000000000000000000000000000000000000000000000000000000000000000000000000000000000000000000000000000000000000000000000000000000",
                        "logs": [],
                        "status": true,
                        "rlp": "0xf90109018302936db9010000000000000000000000000000000000000000000000000000000000000000000000000000000000000000000000000000000000000000000000000000000000000000000000000000000000000000000000000000000000000000000000000000000000000000000000000000000000000000000000000000000000000000000000000000000000000000000000000000000000000000000000000000000000000000000000000000000000000000000000000000000000000000000000000000000000000000000000000000000000000000000000000000000000000000000000000000000000000000000000000000000000000000000000000000000000c0"
                    }
                ],
                "rlp": "0xf90322f901f7a0ceecec1d426a2ae857c9295810d366272dd64ab96c22722ce2e01ee071d75c6aa01dcc4de8dec75d7aab85b567b6ccd41ad312451b948a7413f0a142fd40d49347942adc25665018aa1fe0e6bc666dac8fc2697ff9baa04a933251cab67421b635b7a5c27f5abbd3d19d0c8578643b616a02db036bf707a0501efa2115cb011b0e481e249326248f975ab3a3647bdebce64a61d706d00b61a0c860df019cee0b54af7d5b842c04838407e0994c07a596f82369a1b786c633b1b901000000000000000000000000000000000000000000000000000000000000000000000000000000000000000000000000000000000000000000000000000000000000000000000000000000000000000000000000000000000000000000000000000000000000000000000000000000000000000000000000000000000000000000000000000000000000000000000000000000000000000000000000000000000000000000000000000000000000000000000000000000000000000000000000000000000000000000000000000000000000000000000000000000000000000000000000000000000000000000000000000000000000000000000000000000000080018407270e008302936d8203e800a0000000000000000000000000000000000000000000000000000000000000000088000000000000000007f90124f90121800a83049cda944c1aef252d187e1f1f34e496082815ffd077f60180b8c000000000000000000000000000000000000000000000000000000000000000000000000000000000000000000000000000000000000000000000000000000000198e9393920d483a7260bfb731fb5d25f1aa493335a9e71297e485b7aef312c21800deef121f1e76426a00665e5c4479674322d4f75edadd46debd5cd992f6ed090689d0585ff075ec9e99ad690c3395bc4b313370b38ef355acdadcd122975b12c85ea5db8c6deb4aab71808dcb408fe3d1e7690c43d37b4ce6cc0166fa7daa25a08dc30432496d2ef883a76b03ab57ad6b28e4c0da8095ddd4bbf251b0d61bf558a025b36aa3f983a8f67ffc445e10d17deb4e6cb63c8713fb22a383cc9b1c389b52c0",
                "blocknumber": "1"
            }
        ],
        "sealEngine": "NoProof",
        "_info": {
            "hash": "0x64d19d2da2fa548947e724c2100755c4351b0b6140f0e2eae4df1c117f383e88",
            "fixture-format": "blockchain_test",
            "comment": "`execution-specs` generated test",
            "filling-transition-tool": "2.19.0",
            "description": "Test valid inputs where the pairing check succeeds.",
            "url": "https://github.com/ethereum/execution-specs/blob/tests-bal@v5.3.0/tests/byzantium/eip197_ec_pairing/test_ecpairing.py#L24",
            "opcode_count": {},
            "reference-spec": "https://github.com/ethereum/EIPs/blob/master/EIPS/eip-197.md",
            "reference-spec-version": "9f9b3d33440e7c122b6c9192facfc380bc009422"
        }
    },
    "tests/byzantium/eip197_ec_pairing/test_ecpairing.py::test_valid[fork_Paris-blockchain_test_from_state_test-one_pair_g2_zero-ecpairing]": {
        "network": "Paris",
        "genesisBlockHeader": {
            "parentHash": "0x0000000000000000000000000000000000000000000000000000000000000000",
            "uncleHash": "0x1dcc4de8dec75d7aab85b567b6ccd41ad312451b948a7413f0a142fd40d49347",
            "coinbase": "0x0000000000000000000000000000000000000000",
            "stateRoot": "0x2fc4d12d7f1a3b8534f0ac9125e9b57ebaa26da423488830c0d7f82ef6ba9c1d",
            "transactionsTrie": "0x56e81f171bcc55a6ff8345e692c0f86e5b48e01b996cadc001622fb5e363b421",
            "receiptTrie": "0x56e81f171bcc55a6ff8345e692c0f86e5b48e01b996cadc001622fb5e363b421",
            "bloom": "0x00000000000000000000000000000000000000000000000000000000000000000000000000000000000000000000000000000000000000000000000000000000000000000000000000000000000000000000000000000000000000000000000000000000000000000000000000000000000000000000000000000000000000000000000000000000000000000000000000000000000000000000000000000000000000000000000000000000000000000000000000000000000000000000000000000000000000000000000000000000000000000000000000000000000000000000000000000000000000000000000000000000000000000000000000000000",
            "difficulty": "0x00",
            "number": "0x00",
            "gasLimit": "0x07270e00",
            "gasUsed": "0x00",
            "timestamp": "0x00",
            "extraData": "0x00",
            "mixHash": "0x0000000000000000000000000000000000000000000000000000000000000000",
            "nonce": "0x0000000000000000",
            "baseFeePerGas": "0x07",
            "hash": "0xceecec1d426a2ae857c9295810d366272dd64ab96c22722ce2e01ee071d75c6a"
        },
        "pre": {
            "0x4c1aef252d187e1f1f34e496082815ffd077f601": {
                "nonce": "0x01",
                "balance": "0x00",
                "code": "0x366000600037600060003660006000600862013498f16000553d6001553d600060003e3d600020600255",
                "storage": {}
            },
            "0x1ad9bc24818784172ff393bb6f89f094d4d2ca29": {
                "nonce": "0x00",
                "balance": "0x3635c9adc5dea00000",
                "code": "0x",
                "storage": {}
            }
        },
        "postState": {
            "0x4c1aef252d187e1f1f34e496082815ffd077f601": {
                "nonce": "0x01",
                "balance": "0x00",
                "code": "0x366000600037600060003660006000600862013498f16000553d6001553d600060003e3d600020600255",
                "storage": {
                    "0x00": "0x01",
                    "0x01": "0x20",
                    "0x02": "0xb10e2d527612073b26eecdfd717e6a320cf44b4afac2b0732d9fcbe2b7fa0cf6"
                }
            },
            "0x1ad9bc24818784172ff393bb6f89f094d4d2ca29": {
                "nonce": "0x01",
                "balance": "0x3635c9adc5de8677de",
                "code": "0x",
                "storage": {}
            },
            "0x2adc25665018aa1fe0e6bc666dac8fc2697ff9ba": {
                "nonce": "0x00",
                "balance": "0x07a8d7",
                "code": "0x",
                "storage": {}
            }
        },
        "lastblockhash": "0xfa3cea6d0998e31ce8fb5cd296b4bf286f3802d28c36ec1a08d3a7e2be703847",
        "config": {
            "network": "Paris",
            "chainid": "0x01"
        },
        "genesisRLP": "0xf901f7f901f2a00000000000000000000000000000000000000000000000000000000000000000a01dcc4de8dec75d7aab85b567b6ccd41ad312451b948a7413f0a142fd40d49347940000000000000000000000000000000000000000a02fc4d12d7f1a3b8534f0ac9125e9b57ebaa26da423488830c0d7f82ef6ba9c1da056e81f171bcc55a6ff8345e692c0f86e5b48e01b996cadc001622fb5e363b421a056e81f171bcc55a6ff8345e692c0f86e5b48e01b996cadc001622fb5e363b421b901000000000000000000000000000000000000000000000000000000000000000000000000000000000000000000000000000000000000000000000000000000000000000000000000000000000000000000000000000000000000000000000000000000000000000000000000000000000000000000000000000000000000000000000000000000000000000000000000000000000000000000000000000000000000000000000000000000000000000000000000000000000000000000000000000000000000000000000000000000000000000000000000000000000000000000000000000000000000000000000000000000000000000000000000000000000080808407270e00808000a0000000000000000000000000000000000000000000000000000000000000000088000000000000000007c0c0",
        "blocks": [
            {
                "blockHeader": {
                    "parentHash": "0xceecec1d426a2ae857c9295810d366272dd64ab96c22722ce2e01ee071d75c6a",
                    "uncleHash": "0x1dcc4de8dec75d7aab85b567b6ccd41ad312451b948a7413f0a142fd40d49347",
                    "coinbase": "0x2adc25665018aa1fe0e6bc666dac8fc2697ff9ba",
                    "stateRoot": "0x83b0a4da63ec6543641c4721a28977949a153238b44348e2e80d06423fe4939e",
                    "transactionsTrie": "0xc6f9f95d030d47e98333e5321ca828a02582b518e2f1876288cd2591825a2474",
                    "receiptTrie": "0x302602e1875fd3c3e8d8f7d70499d23019d925fb13169b5faaa6adb2f7357ad7",
                    "bloom": "0x00000000000000000000000000000000000000000000000000000000000000000000000000000000000000000000000000000000000000000000000000000000000000000000000000000000000000000000000000000000000000000000000000000000000000000000000000000000000000000000000000000000000000000000000000000000000000000000000000000000000000000000000000000000000000000000000000000000000000000000000000000000000000000000000000000000000000000000000000000000000000000000000000000000000000000000000000000000000000000000000000000000000000000000000000000000",
                    "difficulty": "0x00",
                    "number": "0x01",
                    "gasLimit": "0x07270e00",
                    "gasUsed": "0x028d9d",
                    "timestamp": "0x03e8",
                    "extraData": "0x00",
                    "mixHash": "0x0000000000000000000000000000000000000000000000000000000000000000",
                    "nonce": "0x0000000000000000",
                    "baseFeePerGas": "0x07",
                    "hash": "0xfa3cea6d0998e31ce8fb5cd296b4bf286f3802d28c36ec1a08d3a7e2be703847"
                },
                "transactions": [
                    {
                        "type": "0x00",
                        "chainId": "0x01",
                        "nonce": "0x00",
                        "gasPrice": "0x0a",
                        "gasLimit": "0x04970a",
                        "to": "0x4c1aef252d187e1f1f34e496082815ffd077f601",
                        "value": "0x00",
                        "data": "0x000000000000000000000000000000000000000000000000000000000000000100000000000000000000000000000000000000000000000000000000000000020000000000000000000000000000000000000000000000000000000000000000000000000000000000000000000000000000000000000000000000000000000000000000000000000000000000000000000000000000000000000000000000000000000000000000000000000000000000000000000000000000000000000000",
                        "v": "0x26",
                        "r": "0x3cf5824bbdbb252bc43b89018ccaa800d704af331770720dd188d18b316cc652",
                        "s": "0x773316292eff74794bad353d458ec1e82afeb6cded32ca65ab71c1bf1eb44082",
                        "sender": "0x1ad9bc24818784172ff393bb6f89f094d4d2ca29"
                    }
                ],
                "uncleHeaders": [],
                "receipts": [
                    {
                        "transactionHash": "0x2709bd72b413e9bd6034235cfcc3dbdadca75343d5cc1b26ff4e9695dc90cb1d",
                        "type": "0x00",
                        "cumulativeGasUsed": "0x028d9d",
                        "bloom": "0x00000000000000000000000000000000000000000000000000000000000000000000000000000000000000000000000000000000000000000000000000000000000000000000000000000000000000000000000000000000000000000000000000000000000000000000000000000000000000000000000000000000000000000000000000000000000000000000000000000000000000000000000000000000000000000000000000000000000000000000000000000000000000000000000000000000000000000000000000000000000000000000000000000000000000000000000000000000000000000000000000000000000000000000000000000000",
                        "logs": [],
                        "status": true,
                        "rlp": "0xf901090183028d9db9010000000000000000000000000000000000000000000000000000000000000000000000000000000000000000000000000000000000000000000000000000000000000000000000000000000000000000000000000000000000000000000000000000000000000000000000000000000000000000000000000000000000000000000000000000000000000000000000000000000000000000000000000000000000000000000000000000000000000000000000000000000000000000000000000000000000000000000000000000000000000000000000000000000000000000000000000000000000000000000000000000000000000000000000000000000000c0"
                    }
                ],
                "rlp": "0xf90322f901f7a0ceecec1d426a2ae857c9295810d366272dd64ab96c22722ce2e01ee071d75c6aa01dcc4de8dec75d7aab85b567b6ccd41ad312451b948a7413f0a142fd40d49347942adc25665018aa1fe0e6bc666dac8fc2697ff9baa083b0a4da63ec6543641c4721a28977949a153238b44348e2e80d06423fe4939ea0c6f9f95d030d47e98333e5321ca828a02582b518e2f1876288cd2591825a2474a0302602e1875fd3c3e8d8f7d70499d23019d925fb13169b5faaa6adb2f7357ad7b901000000000000000000000000000000000000000000000000000000000000000000000000000000000000000000000000000000000000000000000000000000000000000000000000000000000000000000000000000000000000000000000000000000000000000000000000000000000000000000000000000000000000000000000000000000000000000000000000000000000000000000000000000000000000000000000000000000000000000000000000000000000000000000000000000000000000000000000000000000000000000000000000000000000000000000000000000000000000000000000000000000000000000000000000000000000080018407270e0083028d9d8203e800a0000000000000000000000000000000000000000000000000000000000000000088000000000000000007f90124f90121800a8304970a944c1aef252d187e1f1f34e496082815ffd077f60180b8c000000000000000000000000000000000000000000000000000000000000000010000000000000000000000000000000000000000000000000000000000000002000000000000000000000000000000000000000000000000000000000000000000000000000000000000000000000000000000000000000000000000000000000000000000000000000000000000000000000000000000000000000000000000000000000000000000000000000000000000000000000000000000000000000026a03cf5824bbdbb252bc43b89018ccaa800d704af331770720dd188d18b316cc652a0773316292eff74794bad353d458ec1e82afeb6cded32ca65ab71c1bf1eb44082c0",
                "blocknumber": "1"
            }
        ],
        "sealEngine": "NoProof",
        "_info": {
            "hash": "0x25cac4bc660a514f56798e1837e53c8daa2ee2d92c3cbdbbe3e1971afd0342e8",
            "fixture-format": "blockchain_test",
            "comment": "`execution-specs` generated test",
            "filling-transition-tool": "2.19.0",
            "description": "Test valid inputs where the pairing check succeeds.",
            "url": "https://github.com/ethereum/execution-specs/blob/tests-bal@v5.3.0/tests/byzantium/eip197_ec_pairing/test_ecpairing.py#L24",
            "opcode_count": {},
            "reference-spec": "https://github.com/ethereum/EIPs/blob/master/EIPS/eip-197.md",
            "reference-spec-version": "9f9b3d33440e7c122b6c9192facfc380bc009422"
        }
    },
    "tests/byzantium/eip197_ec_pairing/test_ecpairing.py::test_valid[fork_Paris-blockchain_test_from_state_test-two_pairs_negated_g1-ecpairing]": {
        "network": "Paris",
        "genesisBlockHeader": {
            "parentHash": "0x0000000000000000000000000000000000000000000000000000000000000000",
            "uncleHash": "0x1dcc4de8dec75d7aab85b567b6ccd41ad312451b948a7413f0a142fd40d49347",
            "coinbase": "0x0000000000000000000000000000000000000000",
            "stateRoot": "0xa4647aac375dec86c78b1f22ea218dad53525472260590eb4a10de110bf4c160",
            "transactionsTrie": "0x56e81f171bcc55a6ff8345e692c0f86e5b48e01b996cadc001622fb5e363b421",
            "receiptTrie": "0x56e81f171bcc55a6ff8345e692c0f86e5b48e01b996cadc001622fb5e363b421",
            "bloom": "0x00000000000000000000000000000000000000000000000000000000000000000000000000000000000000000000000000000000000000000000000000000000000000000000000000000000000000000000000000000000000000000000000000000000000000000000000000000000000000000000000000000000000000000000000000000000000000000000000000000000000000000000000000000000000000000000000000000000000000000000000000000000000000000000000000000000000000000000000000000000000000000000000000000000000000000000000000000000000000000000000000000000000000000000000000000000",
            "difficulty": "0x00",
            "number": "0x00",
            "gasLimit": "0x07270e00",
            "gasUsed": "0x00",
            "timestamp": "0x00",
            "extraData": "0x00",
            "mixHash": "0x0000000000000000000000000000000000000000000000000000000000000000",
            "nonce": "0x0000000000000000",
            "baseFeePerGas": "0x07",
            "hash": "0xe15df6c6089bb12b5c6f093bf4655d9266b93f1718c56198204dd624b7ccdf14"
        },
        "pre": {
            "0x7fa2150c64485377f3a4bd2c83b0cf851f98745d": {
                "nonce": "0x01",
                "balance": "0x00",
                "code": "0x36600060003760006000366000600060086201b968f16000553d6001553d600060003e3d600020600255",
                "storage": {}
            },
            "0x1ad9bc24818784172ff393bb6f89f094d4d2ca29": {
                "nonce": "0x00",
                "balance": "0x3635c9adc5dea00000",
                "code": "0x",
                "storage": {}
            }
        },
        "postState": {
            "0x7fa2150c64485377f3a4bd2c83b0cf851f98745d": {
                "nonce": "0x01",
                "balance": "0x00",
                "code": "0x36600060003760006000366000600060086201b968f16000553d6001553d600060003e3d600020600255",
                "storage": {
                    "0x00": "0x01",
                    "0x01": "0x20",
                    "0x02": "0xb10e2d527612073b26eecdfd717e6a320cf44b4afac2b0732d9fcbe2b7fa0cf6"
                }
            },
            "0x1ad9bc24818784172ff393bb6f89f094d4d2ca29": {
                "nonce": "0x01",
                "balance": "0x3635c9adc5de80a2be",
                "code": "0x",
                "storage": {}
            },
            "0x2adc25665018aa1fe0e6bc666dac8fc2697ff9ba": {
                "nonce": "0x00",
                "balance": "0x0968c7",
                "code": "0x",
                "storage": {}
            }
        },
        "lastblockhash": "0xf54f579275ffda614884367ad6ffc5fa385bb005ae879001c5fcee3de29ccc6b",
        "config": {
            "network": "Paris",
            "chainid": "0x01"
        },
        "genesisRLP": "0xf901f7f901f2a00000000000000000000000000000000000000000000000000000000000000000a01dcc4de8dec75d7aab85b567b6ccd41ad312451b948a7413f0a142fd40d49347940000000000000000000000000000000000000000a0a4647aac375dec86c78b1f22ea218dad53525472260590eb4a10de110bf4c160a056e81f171bcc55a6ff8345e692c0f86e5b48e01b996cadc001622fb5e363b421a056e81f171bcc55a6ff8345e692c0f86e5b48e01b996cadc001622fb5e363b421b901000000000000000000000000000000000000000000000000000000000000000000000000000000000000000000000000000000000000000000000000000000000000000000000000000000000000000000000000000000000000000000000000000000000000000000000000000000000000000000000000000000000000000000000000000000000000000000000000000000000000000000000000000000000000000000000000000000000000000000000000000000000000000000000000000000000000000000000000000000000000000000000000000000000000000000000000000000000000000000000000000000000000000000000000000000000080808407270e00808000a0000000000000000000000000000000000000000000000000000000000000000088000000000000000007c0c0",
        "blocks": [
            {
                "blockHeader": {
                    "parentHash": "0xe15df6c6089bb12b5c6f093bf4655d9266b93f1718c56198204dd624b7ccdf14",
                    "uncleHash": "0x1dcc4de8dec75d7aab85b567b6ccd41ad312451b948a7413f0a142fd40d49347",
                    "coinbase": "0x2adc25665018aa1fe0e6bc666dac8fc2697ff9ba",
                    "stateRoot": "0x32346c4beba328ec8efae38f14abf92f215082db091462560132000d5fdc06a2",
                    "transactionsTrie": "0x13bbce2232a07b6cb6731621c1b5dbb9b11ce25165f434ba8813b683727b4e7f",
                    "receiptTrie": "0x8ad186eef36497def738f834ca8ec6ebce4d94d9d7bd14f1cbce14a4d76bc7a5",
                    "bloom": "0x00000000000000000000000000000000000000000000000000000000000000000000000000000000000000000000000000000000000000000000000000000000000000000000000000000000000000000000000000000000000000000000000000000000000000000000000000000000000000000000000000000000000000000000000000000000000000000000000000000000000000000000000000000000000000000000000000000000000000000000000000000000000000000000000000000000000000000000000000000000000000000000000000000000000000000000000000000000000000000000000000000000000000000000000000000000",
                    "difficulty": "0x00",
                    "number": "0x01",
                    "gasLimit": "0x07270e00",
                    "gasUsed": "0x0322ed",
                    "timestamp": "0x03e8",
                    "extraData": "0x00",
                    "mixHash": "0x0000000000000000000000000000000000000000000000000000000000000000",
                    "nonce": "0x0000000000000000",
                    "baseFeePerGas": "0x07",
                    "hash": "0xf54f579275ffda614884367ad6ffc5fa385bb005ae879001c5fcee3de29ccc6b"
                },
                "transactions": [
                    {
                        "type": "0x00",
                        "chainId": "0x01",
                        "nonce": "0x00",
                        "gasPrice": "0x0a",
                        "gasLimit": "0x052c48",
                        "to": "0x7fa2150c64485377f3a4bd2c83b0cf851f98745d",
                        "value": "0x00",
                        "data": "0x00000000000000000000000000000000000000000000000000000000000000010000000000000000000000000000000000000000000000000000000000000002198e9393920d483a7260bfb731fb5d25f1aa493335a9e71297e485b7aef312c21800deef121f1e76426a00665e5c4479674322d4f75edadd46debd5cd992f6ed090689d0585ff075ec9e99ad690c3395bc4b313370b38ef355acdadcd122975b12c85ea5db8c6deb4aab71808dcb408fe3d1e7690c43d37b4ce6cc0166fa7daa000000000000000000000000000000000000000000000000000000000000000130644e72e131a029b85045b68181585d97816a916871ca8d3c208c16d87cfd45198e9393920d483a7260bfb731fb5d25f1aa493335a9e71297e485b7aef312c21800deef121f1e76426a00665e5c4479674322d4f75edadd46debd5cd992f6ed090689d0585ff075ec9e99ad690c3395bc4b313370b38ef355acdadcd122975b12c85ea5db8c6deb4aab71808dcb408fe3d1e7690c43d37b4ce6cc0166fa7daa",
                        "v": "0x25",
                        "r": "0x35182b1366ce8ffd0427fa9be78603987f528d5e187260639716bf764cc92897",
                        "s": "0x647ef5084afa75167e93bf62b68e6ee5825ed95aa7e68cdb91e983d9b805e24a",
                        "sender": "0x1ad9bc24818784172ff393bb6f89f094d4d2ca29"
                    }
                ],
                "uncleHeaders": [],
                "receipts": [
                    {
                        "transactionHash": "0x49cd6de9bb3fc7a6609ae5934c90b0d14fc8a089f91aeaa4b6ee54259f15d87a",
                        "type": "0x00",
                        "cumulativeGasUsed": "0x0322ed",
                        "bloom": "0x00000000000000000000000000000000000000000000000000000000000000000000000000000000000000000000000000000000000000000000000000000000000000000000000000000000000000000000000000000000000000000000000000000000000000000000000000000000000000000000000000000000000000000000000000000000000000000000000000000000000000000000000000000000000000000000000000000000000000000000000000000000000000000000000000000000000000000000000000000000000000000000000000000000000000000000000000000000000000000000000000000000000000000000000000000000",
                        "logs": [],
                        "status": true,
                        "rlp": "0xf9010901830322edb9010000000000000000000000000000000000000000000000000000000000000000000000000000000000000000000000000000000000000000000000000000000000000000000000000000000000000000000000000000000000000000000000000000000000000000000000000000000000000000000000000000000000000000000000000000000000000000000000000000000000000000000000000000000000000000000000000000000000000000000000000000000000000000000000000000000000000000000000000000000000000000000000000000000000000000000000000000000000000000000000000000000000000000000000000000000000c0"
                    }
                ],
                "rlp": "0xf903e3f901f7a0e15df6c6089bb12b5c6f093bf4655d9266b93f1718c56198204dd624b7ccdf14a01dcc4de8dec75d7aab85b567b6ccd41ad312451b948a7413f0a142fd40d49347942adc25665018aa1fe0e6bc666dac8fc2697ff9baa032346c4beba328ec8efae38f14abf92f215082db091462560132000d5fdc06a2a013bbce2232a07b6cb6731621c1b5dbb9b11ce25165f434ba8813b683727b4e7fa08ad186eef36497def738f834ca8ec6ebce4d94d9d7bd14f1cbce14a4d76bc7a5b901000000000000000000000000000000000000000000000000000000000000000000000000000000000000000000000000000000000000000000000000000000000000000000000000000000000000000000000000000000000000000000000000000000000000000000000000000000000000000000000000000000000000000000000000000000000000000000000000000000000000000000000000000000000000000000000000000000000000000000000000000000000000000000000000000000000000000000000000000000000000000000000000000000000000000000000000000000000000000000000000000000000000000000000000000000000080018407270e00830322ed8203e800a0000000000000000000000000000000000000000000000000000000000000000088000000000000000007f901e5f901e2800a83052c48947fa2150c64485377f3a4bd2c83b0cf851f98745d80b9018000000000000000000000000000000000000000000000000000000000000000010000000000000000000000000000000000000000000000000000000000000002198e9393920d483a7260bfb731fb5d25f1aa493335a9e71297e485b7aef312c21800deef121f1e76426a00665e5c4479674322d4f75edadd46debd5cd992f6ed090689d0585ff075ec9e99ad690c3395bc4b313370b38ef355acdadcd122975b12c85ea5db8c6deb4aab71808dcb408fe3d1e7690c43d37b4ce6cc0166fa7daa000000000000000000000000000000000000000000000000000000000000000130644e72e131a029b85045b68181585d97816a916871ca8d3c208c16d87cfd45198e9393920d483a7260bfb731fb5d25f1aa493335a9e71297e485b7aef312c21800deef121f1e76426a00665e5c4479674322d4f75edadd46debd5cd992f6ed090689d0585ff075ec9e99ad690c3395bc4b313370b38ef355acdadcd122975b12c85ea5db8c6deb4aab71808dcb408fe3d1e7690c43d37b4ce6cc0166fa7daa25a035182b1366ce8ffd0427fa9be78603987f528d5e187260639716bf764cc92897a0647ef5084afa75167e93bf62b68e6ee5825ed95aa7e68cdb91e983d9b805e24ac0",
                "blocknumber": "1"
            }
        ],
        "sealEngine": "NoProof",
        "_info": {
            "hash": "0x8f5e595d6a94a5c5e8f503cc0016a53cabc226e8ad940f329c79ca11b3402ddd",
            "fixture-format": "blockchain_test",
            "comment": "`execution-specs` generated test",
            "filling-transition-tool": "2.19.0",
            "description": "Test valid inputs where the pairing check succeeds.",
            "url": "https://github.com/ethereum/execution-specs/blob/tests-bal@v5.3.0/tests/byzantium/eip197_ec_pairing/test_ecpairing.py#L24",
            "opcode_count": {},
            "reference-spec": "https://github.com/ethereum/EIPs/blob/master/EIPS/eip-197.md",
            "reference-spec-version": "9f9b3d33440e7c122b6c9192facfc380bc009422"
        }
    }
}