{
    "tests/ported_static/stCallDelegateCodesHomestead/test_callcodecallcallcode_101_suicide_end.py::test_callcodecallcallcode_101_suicide_end[fork_Cancun-blockchain_test_from_state_test]": {
        "network": "Cancun",
        "genesisBlockHeader": {
            "parentHash": "0x0000000000000000000000000000000000000000000000000000000000000000",
            "uncleHash": "0x1dcc4de8dec75d7aab85b567b6ccd41ad312451b948a7413f0a142fd40d49347",
            "coinbase": "0x0000000000000000000000000000000000000000",
            "stateRoot": "0xf6f11c8ef56fa2ae70650c64ac4ee5cfa7b36a1b4d0ed1bd990f97796040d581",
            "transactionsTrie": "0x56e81f171bcc55a6ff8345e692c0f86e5b48e01b996cadc001622fb5e363b421",
            "receiptTrie": "0x56e81f171bcc55a6ff8345e692c0f86e5b48e01b996cadc001622fb5e363b421",
            "bloom": "0x00000000000000000000000000000000000000000000000000000000000000000000000000000000000000000000000000000000000000000000000000000000000000000000000000000000000000000000000000000000000000000000000000000000000000000000000000000000000000000000000000000000000000000000000000000000000000000000000000000000000000000000000000000000000000000000000000000000000000000000000000000000000000000000000000000000000000000000000000000000000000000000000000000000000000000000000000000000000000000000000000000000000000000000000000000000",
            "difficulty": "0x00",
            "number": "0x00",
            "gasLimit": "0x01c9c380",
            "gasUsed": "0x00",
            "timestamp": "0x00",
            "extraData": "0x00",
            "mixHash": "0x0000000000000000000000000000000000000000000000000000000000000000",
            "nonce": "0x0000000000000000",
            "baseFeePerGas": "0x0b",
            "withdrawalsRoot": "0x56e81f171bcc55a6ff8345e692c0f86e5b48e01b996cadc001622fb5e363b421",
            "blobGasUsed": "0x00",
            "excessBlobGas": "0x00",
            "parentBeaconBlockRoot": "0x0000000000000000000000000000000000000000000000000000000000000000",
            "hash": "0x2d29da6d246cef7ad702da9ec9f89b45b19bd5092a763b18508ecdd7ab48a75b"
        },
        "pre": {
            "0x000f3df6d732807ef1319fb7b8bb8522d0beac02": {
                "nonce": "0x01",
                "balance": "0x00",
                "code": "0x3373fffffffffffffffffffffffffffffffffffffffe14604d57602036146024575f5ffd5b5f35801560495762001fff810690815414603c575f5ffd5b62001fff01545f5260205ff35b5f5ffd5b62001fff42064281555f359062001fff015500",
                "storage": {}
            },
            "0xd66f224cbd2fabb21b17bb53c56118f32f62ebd6": {
                "nonce": "0x00",
                "balance": "0x0de0b6b3a7640000",
                "code": "0x",
                "storage": {}
            },
            "0x73b954ebc05bb0ff4a0f6a13a054d50ad1584099": {
                "nonce": "0x00",
                "balance": "0x02540be400",
                "code": "0x600160035500",
                "storage": {}
            },
            "0x2b30b637f37e3f5b8ca4ab846331d0779a3f4671": {
                "nonce": "0x00",
                "balance": "0x0de0b6b3a7640000",
                "code": "0x60406000604060007377b749ffff7ec61d31c79ed104f230a7959b2879620249f0f460005500",
                "storage": {}
            },
            "0x77b749ffff7ec61d31c79ed104f230a7959b2879": {
                "nonce": "0x00",
                "balance": "0x02540be400",
                "code": "0x6040600060406000600073ac521409e2fa9526bfe6b827805783d2e307c4ce620186a0f160015500",
                "storage": {}
            },
            "0xac521409e2fa9526bfe6b827805783d2e307c4ce": {
                "nonce": "0x00",
                "balance": "0x02540be400",
                "code": "0x60406000604060007373b954ebc05bb0ff4a0f6a13a054d50ad158409961c350f46002557377b749ffff7ec61d31c79ed104f230a7959b2879ff00",
                "storage": {}
            }
        },
        "postState": {
            "0x000f3df6d732807ef1319fb7b8bb8522d0beac02": {
                "nonce": "0x01",
                "balance": "0x00",
                "code": "0x3373fffffffffffffffffffffffffffffffffffffffe14604d57602036146024575f5ffd5b5f35801560495762001fff810690815414603c575f5ffd5b62001fff01545f5260205ff35b5f5ffd5b62001fff42064281555f359062001fff015500",
                "storage": {
                    "0x03e8": "0x03e8"
                }
            },
            "0xd66f224cbd2fabb21b17bb53c56118f32f62ebd6": {
                "nonce": "0x01",
                "balance": "0x0de0b6b3a75156ee",
                "code": "0x",
                "storage": {}
            },
            "0x73b954ebc05bb0ff4a0f6a13a054d50ad1584099": {
                "nonce": "0x00",
                "balance": "0x02540be400",
                "code": "0x600160035500",
                "storage": {}
            },
            "0x2b30b637f37e3f5b8ca4ab846331d0779a3f4671": {
                "nonce": "0x00",
                "balance": "0x0de0b6b3a7640000",
                "code": "0x60406000604060007377b749ffff7ec61d31c79ed104f230a7959b2879620249f0f460005500",
                "storage": {
                    "0x01": "0x01",
                    "0x00": "0x01"
                }
            },
            "0x77b749ffff7ec61d31c79ed104f230a7959b2879": {
                "nonce": "0x00",
                "balance": "0x04a817c800",
                "code": "0x6040600060406000600073ac521409e2fa9526bfe6b827805783d2e307c4ce620186a0f160015500",
                "storage": {}
            },
            "0xac521409e2fa9526bfe6b827805783d2e307c4ce": {
                "nonce": "0x00",
                "balance": "0x00",
                "code": "0x60406000604060007373b954ebc05bb0ff4a0f6a13a054d50ad158409961c350f46002557377b749ffff7ec61d31c79ed104f230a7959b2879ff00",
                "storage": {
                    "0x03": "0x01",
                    "0x02": "0x01"
                }
            }
        },
        "lastblockhash": "0xa1872021eabcb0849ea1169283b26ed228b50819fb15ca3e7523cf8521a2eac5",
        "config": {
            "network": "Cancun",
            "chainid": "0x01",
            "blobSchedule": {
                "Cancun": {
                    "target": "0x03",
                    "max": "0x06",
                    "baseFeeUpdateFraction": "0x32f0ed"
                }
            }
        },
        "genesisRLP": "0xf9023cf90236a00000000000000000000000000000000000000000000000000000000000000000a01dcc4de8dec75d7aab85b567b6ccd41ad312451b948a7413f0a142fd40d49347940000000000000000000000000000000000000000a0f6f11c8ef56fa2ae70650c64ac4ee5cfa7b36a1b4d0ed1bd990f97796040d581a056e81f171bcc55a6ff8345e692c0f86e5b48e01b996cadc001622fb5e363b421a056e81f171bcc55a6ff8345e692c0f86e5b48e01b996cadc001622fb5e363b421b901000000000000000000000000000000000000000000000000000000000000000000000000000000000000000000000000000000000000000000000000000000000000000000000000000000000000000000000000000000000000000000000000000000000000000000000000000000000000000000000000000000000000000000000000000000000000000000000000000000000000000000000000000000000000000000000000000000000000000000000000000000000000000000000000000000000000000000000000000000000000000000000000000000000000000000000000000000000000000000000000000000000000000000000000000000000080808401c9c380808000a000000000000000000000000000000000000000000000000000000000000000008800000000000000000ba056e81f171bcc55a6ff8345e692c0f86e5b48e01b996cadc001622fb5e363b4218080a00000000000000000000000000000000000000000000000000000000000000000c0c0c0",
        "blocks": [
            {
                "blockHeader": {
                    "parentHash": "0x2d29da6d246cef7ad702da9ec9f89b45b19bd5092a763b18508ecdd7ab48a75b",
                    "uncleHash": "0x1dcc4de8dec75d7aab85b567b6ccd41ad312451b948a7413f0a142fd40d49347",
                    "coinbase": "0x2adc25665018aa1fe0e6bc666dac8fc2697ff9ba",
                    "stateRoot": "0x40f24624c4b301244c79fb7cd80d1ddeac9a48b4d7fe8c93381ff8a9e1d89bd0",
                    "transactionsTrie": "0xb583447ad1e24c91f340f738ee1eb67e8a1789b4c53b6817c0b134cf75d15b2e",
                    "receiptTrie": "0x313eaf70e79df77b13ee7342da840c45ca4c32640583f721e76975e692b4a64d",
                    "bloom": "0x00000000000000000000000000000000000000000000000000000000000000000000000000000000000000000000000000000000000000000000000000000000000000000000000000000000000000000000000000000000000000000000000000000000000000000000000000000000000000000000000000000000000000000000000000000000000000000000000000000000000000000000000000000000000000000000000000000000000000000000000000000000000000000000000000000000000000000000000000000000000000000000000000000000000000000000000000000000000000000000000000000000000000000000000000000000",
                    "difficulty": "0x00",
                    "number": "0x01",
                    "gasLimit": "0x01c9c380",
                    "gasUsed": "0x01ddb5",
                    "timestamp": "0x03e8",
                    "extraData": "0x00",
                    "mixHash": "0x0000000000000000000000000000000000000000000000000000000000020000",
                    "nonce": "0x0000000000000000",
                    "baseFeePerGas": "0x0a",
                    "withdrawalsRoot": "0x56e81f171bcc55a6ff8345e692c0f86e5b48e01b996cadc001622fb5e363b421",
                    "blobGasUsed": "0x00",
                    "excessBlobGas": "0x00",
                    "parentBeaconBlockRoot": "0x0000000000000000000000000000000000000000000000000000000000000000",
                    "hash": "0xa1872021eabcb0849ea1169283b26ed228b50819fb15ca3e7523cf8521a2eac5"
                },
                "transactions": [
                    {
                        "type": "0x00",
                        "chainId": "0x01",
                        "nonce": "0x00",
                        "gasPrice": "0x0a",
                        "gasLimit": "0x2dc6c0",
                        "to": "0x2b30b637f37e3f5b8ca4ab846331d0779a3f4671",
                        "value": "0x00",
                        "data": "0x",
                        "v": "0x25",
                        "r": "0x712e68c50ec854bd1bac757cf823fd6f69d08600ce637928ffba1b68149f6fbc",
                        "s": "0x3688b19115996baff51a0f5c2627d42f3831e89e48db8e96c768301b9289ba45",
                        "sender": "0xd66f224cbd2fabb21b17bb53c56118f32f62ebd6"
                    }
                ],
                "uncleHeaders": [],
                "withdrawals": [],
                "receipts": [
                    {
                        "transactionHash": "0x177749a3844c533f05fd82c23d46061bf5c08772199b7de2c44f1b5a277344a2",
                        "type": "0x00",
                        "cumulativeGasUsed": "0x01ddb5",
                        "bloom": "0x00000000000000000000000000000000000000000000000000000000000000000000000000000000000000000000000000000000000000000000000000000000000000000000000000000000000000000000000000000000000000000000000000000000000000000000000000000000000000000000000000000000000000000000000000000000000000000000000000000000000000000000000000000000000000000000000000000000000000000000000000000000000000000000000000000000000000000000000000000000000000000000000000000000000000000000000000000000000000000000000000000000000000000000000000000000",
                        "logs": [],
                        "status": true,
                        "rlp": "0xf90109018301ddb5b9010000000000000000000000000000000000000000000000000000000000000000000000000000000000000000000000000000000000000000000000000000000000000000000000000000000000000000000000000000000000000000000000000000000000000000000000000000000000000000000000000000000000000000000000000000000000000000000000000000000000000000000000000000000000000000000000000000000000000000000000000000000000000000000000000000000000000000000000000000000000000000000000000000000000000000000000000000000000000000000000000000000000000000000000000000000000c0"
                    }
                ],
                "rlp": "0xf902a4f9023ba02d29da6d246cef7ad702da9ec9f89b45b19bd5092a763b18508ecdd7ab48a75ba01dcc4de8dec75d7aab85b567b6ccd41ad312451b948a7413f0a142fd40d49347942adc25665018aa1fe0e6bc666dac8fc2697ff9baa040f24624c4b301244c79fb7cd80d1ddeac9a48b4d7fe8c93381ff8a9e1d89bd0a0b583447ad1e24c91f340f738ee1eb67e8a1789b4c53b6817c0b134cf75d15b2ea0313eaf70e79df77b13ee7342da840c45ca4c32640583f721e76975e692b4a64db901000000000000000000000000000000000000000000000000000000000000000000000000000000000000000000000000000000000000000000000000000000000000000000000000000000000000000000000000000000000000000000000000000000000000000000000000000000000000000000000000000000000000000000000000000000000000000000000000000000000000000000000000000000000000000000000000000000000000000000000000000000000000000000000000000000000000000000000000000000000000000000000000000000000000000000000000000000000000000000000000000000000000000000000000000000000080018401c9c3808301ddb58203e800a000000000000000000000000000000000000000000000000000000000000200008800000000000000000aa056e81f171bcc55a6ff8345e692c0f86e5b48e01b996cadc001622fb5e363b4218080a00000000000000000000000000000000000000000000000000000000000000000f862f860800a832dc6c0942b30b637f37e3f5b8ca4ab846331d0779a3f4671808025a0712e68c50ec854bd1bac757cf823fd6f69d08600ce637928ffba1b68149f6fbca03688b19115996baff51a0f5c2627d42f3831e89e48db8e96c768301b9289ba45c0c0",
                "blocknumber": "1"
            }
        ],
        "sealEngine": "NoProof",
        "_info": {
            "hash": "0x881e7b2b541516d4233b43c755570600dc55caf224aedfca662a1c14b24e8e73",
            "fixture-format": "blockchain_test",
            "comment": "`execution-specs` generated test",
            "filling-transition-tool": "2.19.0",
            "description": "Test_callcodecallcallcode_101_suicide_end.",
            "url": "https://github.com/ethereum/execution-specs/blob/tests-snobal-devnet-5@v8037.0.0/tests/ported_static/stCallDelegateCodesHomestead/test_callcodecallcallcode_101_suicide_end.py#L24",
            "metadata": {
                "opcode_count": {}
            }
        }
    }
}