{
    "tests/ported_static/stStaticCall/test_static_callcodecall_10_2.py::test_static_callcodecall_10_2[fork_Cancun-blockchain_test_from_state_test]": {
        "network": "Cancun",
        "genesisBlockHeader": {
            "parentHash": "0x0000000000000000000000000000000000000000000000000000000000000000",
            "uncleHash": "0x1dcc4de8dec75d7aab85b567b6ccd41ad312451b948a7413f0a142fd40d49347",
            "coinbase": "0x0000000000000000000000000000000000000000",
            "stateRoot": "0x30c8e4b6f6334a4ffa23ebabcaddc29bda9a5733b131137917f378a364895e8f",
            "transactionsTrie": "0x56e81f171bcc55a6ff8345e692c0f86e5b48e01b996cadc001622fb5e363b421",
            "receiptTrie": "0x56e81f171bcc55a6ff8345e692c0f86e5b48e01b996cadc001622fb5e363b421",
            "bloom": "0x00000000000000000000000000000000000000000000000000000000000000000000000000000000000000000000000000000000000000000000000000000000000000000000000000000000000000000000000000000000000000000000000000000000000000000000000000000000000000000000000000000000000000000000000000000000000000000000000000000000000000000000000000000000000000000000000000000000000000000000000000000000000000000000000000000000000000000000000000000000000000000000000000000000000000000000000000000000000000000000000000000000000000000000000000000000",
            "difficulty": "0x00",
            "number": "0x00",
            "gasLimit": "0x01c9c380",
            "gasUsed": "0x00",
            "timestamp": "0x00",
            "extraData": "0x00",
            "mixHash": "0x0000000000000000000000000000000000000000000000000000000000000000",
            "nonce": "0x0000000000000000",
            "baseFeePerGas": "0x0b",
            "withdrawalsRoot": "0x56e81f171bcc55a6ff8345e692c0f86e5b48e01b996cadc001622fb5e363b421",
            "blobGasUsed": "0x00",
            "excessBlobGas": "0x00",
            "parentBeaconBlockRoot": "0x0000000000000000000000000000000000000000000000000000000000000000",
            "hash": "0x017e24bc8fbfd500cd3f74a42debd9b3a1c11b6d1395eeb2546125b9cd77f9e8"
        },
        "pre": {
            "0x000f3df6d732807ef1319fb7b8bb8522d0beac02": {
                "nonce": "0x01",
                "balance": "0x00",
                "code": "0x3373fffffffffffffffffffffffffffffffffffffffe14604d57602036146024575f5ffd5b5f35801560495762001fff810690815414603c575f5ffd5b62001fff01545f5260205ff35b5f5ffd5b62001fff42064281555f359062001fff015500",
                "storage": {}
            },
            "0xd66f224cbd2fabb21b17bb53c56118f32f62ebd6": {
                "nonce": "0x00",
                "balance": "0x0de0b6b3a7640000",
                "code": "0x",
                "storage": {}
            },
            "0xf03b91b845afb399365eb73a7fc3a01612d02666": {
                "nonce": "0x00",
                "balance": "0x00",
                "code": "0x600160015200",
                "storage": {}
            },
            "0x2f8e39ebdd6bd9c2ad662a002ba6d480753388fe": {
                "nonce": "0x00",
                "balance": "0x0de0b6b3a7640000",
                "code": "0x604060006040600073f03b91b845afb399365eb73a7fc3a01612d026666203d090fa00",
                "storage": {}
            },
            "0xb1ba8a7c9fa16c145cc3004211e6ba28126e4eed": {
                "nonce": "0x00",
                "balance": "0x0de0b6b3a7640000",
                "code": "0x60406000604060006001732f8e39ebdd6bd9c2ad662a002ba6d480753388fe62055730f2600055600160015500",
                "storage": {}
            }
        },
        "postState": {
            "0x000f3df6d732807ef1319fb7b8bb8522d0beac02": {
                "nonce": "0x01",
                "balance": "0x00",
                "code": "0x3373fffffffffffffffffffffffffffffffffffffffe14604d57602036146024575f5ffd5b5f35801560495762001fff810690815414603c575f5ffd5b62001fff01545f5260205ff35b5f5ffd5b62001fff42064281555f359062001fff015500",
                "storage": {
                    "0x03e8": "0x03e8"
                }
            },
            "0xd66f224cbd2fabb21b17bb53c56118f32f62ebd6": {
                "nonce": "0x01",
                "balance": "0x0de0b6b3a758395a",
                "code": "0x",
                "storage": {}
            },
            "0xf03b91b845afb399365eb73a7fc3a01612d02666": {
                "nonce": "0x00",
                "balance": "0x00",
                "code": "0x600160015200",
                "storage": {}
            },
            "0x2f8e39ebdd6bd9c2ad662a002ba6d480753388fe": {
                "nonce": "0x00",
                "balance": "0x0de0b6b3a7640000",
                "code": "0x604060006040600073f03b91b845afb399365eb73a7fc3a01612d026666203d090fa00",
                "storage": {}
            },
            "0xb1ba8a7c9fa16c145cc3004211e6ba28126e4eed": {
                "nonce": "0x00",
                "balance": "0x0de0b6b3a7640000",
                "code": "0x60406000604060006001732f8e39ebdd6bd9c2ad662a002ba6d480753388fe62055730f2600055600160015500",
                "storage": {
                    "0x00": "0x01",
                    "0x01": "0x01"
                }
            }
        },
        "lastblockhash": "0xcaef0cc7894b05aa32dba81629d29a6ef4c3bfb03d9ee39061c60826df576d42",
        "config": {
            "network": "Cancun",
            "chainid": "0x01",
            "blobSchedule": {
                "Cancun": {
                    "target": "0x03",
                    "max": "0x06",
                    "baseFeeUpdateFraction": "0x32f0ed"
                }
            }
        },
        "genesisRLP": "0xf9023cf90236a00000000000000000000000000000000000000000000000000000000000000000a01dcc4de8dec75d7aab85b567b6ccd41ad312451b948a7413f0a142fd40d49347940000000000000000000000000000000000000000a030c8e4b6f6334a4ffa23ebabcaddc29bda9a5733b131137917f378a364895e8fa056e81f171bcc55a6ff8345e692c0f86e5b48e01b996cadc001622fb5e363b421a056e81f171bcc55a6ff8345e692c0f86e5b48e01b996cadc001622fb5e363b421b901000000000000000000000000000000000000000000000000000000000000000000000000000000000000000000000000000000000000000000000000000000000000000000000000000000000000000000000000000000000000000000000000000000000000000000000000000000000000000000000000000000000000000000000000000000000000000000000000000000000000000000000000000000000000000000000000000000000000000000000000000000000000000000000000000000000000000000000000000000000000000000000000000000000000000000000000000000000000000000000000000000000000000000000000000000000080808401c9c380808000a000000000000000000000000000000000000000000000000000000000000000008800000000000000000ba056e81f171bcc55a6ff8345e692c0f86e5b48e01b996cadc001622fb5e363b4218080a00000000000000000000000000000000000000000000000000000000000000000c0c0c0",
        "blocks": [
            {
                "blockHeader": {
                    "parentHash": "0x017e24bc8fbfd500cd3f74a42debd9b3a1c11b6d1395eeb2546125b9cd77f9e8",
                    "uncleHash": "0x1dcc4de8dec75d7aab85b567b6ccd41ad312451b948a7413f0a142fd40d49347",
                    "coinbase": "0x2adc25665018aa1fe0e6bc666dac8fc2697ff9ba",
                    "stateRoot": "0x1b6088c666ce25c5f3bd976ad5139dcf5c0da4cc6441f02b30edd02ba23c2e07",
                    "transactionsTrie": "0x4c6fc03060d700096a76f32ee57bd9a294125d95f3cd732b3a4f12e86aebc33d",
                    "receiptTrie": "0xe471b70bc4f83b5f2c306bb9441e49f7705d8bee83bd3d2b9fdf7c5142cb8664",
                    "bloom": "0x00000000000000000000000000000000000000000000000000000000000000000000000000000000000000000000000000000000000000000000000000000000000000000000000000000000000000000000000000000000000000000000000000000000000000000000000000000000000000000000000000000000000000000000000000000000000000000000000000000000000000000000000000000000000000000000000000000000000000000000000000000000000000000000000000000000000000000000000000000000000000000000000000000000000000000000000000000000000000000000000000000000000000000000000000000000",
                    "difficulty": "0x00",
                    "number": "0x01",
                    "gasLimit": "0x01c9c380",
                    "gasUsed": "0x012d77",
                    "timestamp": "0x03e8",
                    "extraData": "0x00",
                    "mixHash": "0x0000000000000000000000000000000000000000000000000000000000020000",
                    "nonce": "0x0000000000000000",
                    "baseFeePerGas": "0x0a",
                    "withdrawalsRoot": "0x56e81f171bcc55a6ff8345e692c0f86e5b48e01b996cadc001622fb5e363b421",
                    "blobGasUsed": "0x00",
                    "excessBlobGas": "0x00",
                    "parentBeaconBlockRoot": "0x0000000000000000000000000000000000000000000000000000000000000000",
                    "hash": "0xcaef0cc7894b05aa32dba81629d29a6ef4c3bfb03d9ee39061c60826df576d42"
                },
                "transactions": [
                    {
                        "type": "0x00",
                        "chainId": "0x01",
                        "nonce": "0x00",
                        "gasPrice": "0x0a",
                        "gasLimit": "0x2dc6c0",
                        "to": "0xb1ba8a7c9fa16c145cc3004211e6ba28126e4eed",
                        "value": "0x00",
                        "data": "0x",
                        "v": "0x25",
                        "r": "0xfcc3aebff3177dc63b65ef0ec98785485d4660ff387b4f8df108bdff059c3a31",
                        "s": "0x1ceac8a483743776afaf5fae5e6d2f12deb01700afc5552461537e0737523b25",
                        "sender": "0xd66f224cbd2fabb21b17bb53c56118f32f62ebd6"
                    }
                ],
                "uncleHeaders": [],
                "withdrawals": [],
                "receipts": [
                    {
                        "transactionHash": "0x2a4542f597a30a3473138dfc318419f800c2a0c7c64c5c50ac1dfe09c72c511d",
                        "type": "0x00",
                        "cumulativeGasUsed": "0x012d77",
                        "bloom": "0x00000000000000000000000000000000000000000000000000000000000000000000000000000000000000000000000000000000000000000000000000000000000000000000000000000000000000000000000000000000000000000000000000000000000000000000000000000000000000000000000000000000000000000000000000000000000000000000000000000000000000000000000000000000000000000000000000000000000000000000000000000000000000000000000000000000000000000000000000000000000000000000000000000000000000000000000000000000000000000000000000000000000000000000000000000000",
                        "logs": [],
                        "status": true,
                        "rlp": "0xf901090183012d77b9010000000000000000000000000000000000000000000000000000000000000000000000000000000000000000000000000000000000000000000000000000000000000000000000000000000000000000000000000000000000000000000000000000000000000000000000000000000000000000000000000000000000000000000000000000000000000000000000000000000000000000000000000000000000000000000000000000000000000000000000000000000000000000000000000000000000000000000000000000000000000000000000000000000000000000000000000000000000000000000000000000000000000000000000000000000000c0"
                    }
                ],
                "rlp": "0xf902a4f9023ba0017e24bc8fbfd500cd3f74a42debd9b3a1c11b6d1395eeb2546125b9cd77f9e8a01dcc4de8dec75d7aab85b567b6ccd41ad312451b948a7413f0a142fd40d49347942adc25665018aa1fe0e6bc666dac8fc2697ff9baa01b6088c666ce25c5f3bd976ad5139dcf5c0da4cc6441f02b30edd02ba23c2e07a04c6fc03060d700096a76f32ee57bd9a294125d95f3cd732b3a4f12e86aebc33da0e471b70bc4f83b5f2c306bb9441e49f7705d8bee83bd3d2b9fdf7c5142cb8664b901000000000000000000000000000000000000000000000000000000000000000000000000000000000000000000000000000000000000000000000000000000000000000000000000000000000000000000000000000000000000000000000000000000000000000000000000000000000000000000000000000000000000000000000000000000000000000000000000000000000000000000000000000000000000000000000000000000000000000000000000000000000000000000000000000000000000000000000000000000000000000000000000000000000000000000000000000000000000000000000000000000000000000000000000000000000080018401c9c38083012d778203e800a000000000000000000000000000000000000000000000000000000000000200008800000000000000000aa056e81f171bcc55a6ff8345e692c0f86e5b48e01b996cadc001622fb5e363b4218080a00000000000000000000000000000000000000000000000000000000000000000f862f860800a832dc6c094b1ba8a7c9fa16c145cc3004211e6ba28126e4eed808025a0fcc3aebff3177dc63b65ef0ec98785485d4660ff387b4f8df108bdff059c3a31a01ceac8a483743776afaf5fae5e6d2f12deb01700afc5552461537e0737523b25c0c0",
                "blocknumber": "1"
            }
        ],
        "sealEngine": "NoProof",
        "_info": {
            "hash": "0xc8971f03ffc28aa03007b2d86c2e8f6efd9041b97d6555d3f221398543864a74",
            "fixture-format": "blockchain_test",
            "comment": "`execution-specs` generated test",
            "filling-transition-tool": "2.19.0",
            "description": "Test_static_callcodecall_10_2.",
            "url": "https://github.com/ethereum/execution-specs/blob/tests-snobal-devnet-5@v8037.0.0/tests/ported_static/stStaticCall/test_static_callcodecall_10_2.py#L24",
            "metadata": {
                "opcode_count": {}
            }
        }
    }
}