{
    "tests/ported_static/stRandom/test_random_statetest166.py::test_random_statetest166[fork_Cancun-blockchain_test_from_state_test]": {
        "network": "Cancun",
        "genesisBlockHeader": {
            "parentHash": "0x0000000000000000000000000000000000000000000000000000000000000000",
            "uncleHash": "0x1dcc4de8dec75d7aab85b567b6ccd41ad312451b948a7413f0a142fd40d49347",
            "coinbase": "0x0000000000000000000000000000000000000000",
            "stateRoot": "0x15342ce58a854dc3c77cc17f53ebc5e910d9bb73acd6a8a7f5e189429c0b17eb",
            "transactionsTrie": "0x56e81f171bcc55a6ff8345e692c0f86e5b48e01b996cadc001622fb5e363b421",
            "receiptTrie": "0x56e81f171bcc55a6ff8345e692c0f86e5b48e01b996cadc001622fb5e363b421",
            "bloom": "0x00000000000000000000000000000000000000000000000000000000000000000000000000000000000000000000000000000000000000000000000000000000000000000000000000000000000000000000000000000000000000000000000000000000000000000000000000000000000000000000000000000000000000000000000000000000000000000000000000000000000000000000000000000000000000000000000000000000000000000000000000000000000000000000000000000000000000000000000000000000000000000000000000000000000000000000000000000000000000000000000000000000000000000000000000000000",
            "difficulty": "0x00",
            "number": "0x00",
            "gasLimit": "0x7fffffffffffffff",
            "gasUsed": "0x00",
            "timestamp": "0x00",
            "extraData": "0x00",
            "mixHash": "0x0000000000000000000000000000000000000000000000000000000000000000",
            "nonce": "0x0000000000000000",
            "baseFeePerGas": "0x0b",
            "withdrawalsRoot": "0x56e81f171bcc55a6ff8345e692c0f86e5b48e01b996cadc001622fb5e363b421",
            "blobGasUsed": "0x00",
            "excessBlobGas": "0x00",
            "parentBeaconBlockRoot": "0x0000000000000000000000000000000000000000000000000000000000000000",
            "hash": "0x4647a9fb094355091f153662b152580cdc1ca2dd5c5d20c3ffdda68ea03e8265"
        },
        "pre": {
            "0x000f3df6d732807ef1319fb7b8bb8522d0beac02": {
                "nonce": "0x01",
                "balance": "0x00",
                "code": "0x3373fffffffffffffffffffffffffffffffffffffffe14604d57602036146024575f5ffd5b5f35801560495762001fff810690815414603c575f5ffd5b62001fff01545f5260205ff35b5f5ffd5b62001fff42064281555f359062001fff015500",
                "storage": {}
            },
            "0x2f20efb4edc7dd07322d9c24d64c9ffdab363ccb": {
                "nonce": "0x00",
                "balance": "0x00",
                "code": "0x7f00000000000000000000000100000000000000000000000000000000000000007f000000000000000000000000ffffffffffffffffffffffffffffffffffffffff817f0000000000000000000000010000000000000000000000000000000000000000417f00000000000000000000000000000000000000000000000000000000000000017f000000000000000000000000000000000000000000000000000000000000c350456f8eb7099d9f160532785143c5937e185560005155",
                "storage": {}
            },
            "0x4f3f701464972e74606d6ea82d4d3080599a0e79": {
                "nonce": "0x00",
                "balance": "0x2e",
                "code": "0x6000355415600957005b60203560003555",
                "storage": {}
            },
            "0x2e3d0156d2b99a6eacba540c55f423c8f5a33143": {
                "nonce": "0x00",
                "balance": "0x0de0b6b3a7640000",
                "code": "0x",
                "storage": {}
            }
        },
        "postState": {
            "0x000f3df6d732807ef1319fb7b8bb8522d0beac02": {
                "nonce": "0x01",
                "balance": "0x00",
                "code": "0x3373fffffffffffffffffffffffffffffffffffffffe14604d57602036146024575f5ffd5b5f35801560495762001fff810690815414603c575f5ffd5b62001fff01545f5260205ff35b5f5ffd5b62001fff42064281555f359062001fff015500",
                "storage": {
                    "0x03e8": "0x03e8"
                }
            },
            "0x2f20efb4edc7dd07322d9c24d64c9ffdab363ccb": {
                "nonce": "0x00",
                "balance": "0x603d8563",
                "code": "0x7f00000000000000000000000100000000000000000000000000000000000000007f000000000000000000000000ffffffffffffffffffffffffffffffffffffffff817f0000000000000000000000010000000000000000000000000000000000000000417f00000000000000000000000000000000000000000000000000000000000000017f000000000000000000000000000000000000000000000000000000000000c350456f8eb7099d9f160532785143c5937e185560005155",
                "storage": {
                    "0x00": "0x8eb7099d9f160532785143c5937e1855"
                }
            },
            "0x4f3f701464972e74606d6ea82d4d3080599a0e79": {
                "nonce": "0x00",
                "balance": "0x2e",
                "code": "0x6000355415600957005b60203560003555",
                "storage": {}
            },
            "0x2e3d0156d2b99a6eacba540c55f423c8f5a33143": {
                "nonce": "0x01",
                "balance": "0x0de0b6b3471fb1f9",
                "code": "0x",
                "storage": {}
            }
        },
        "lastblockhash": "0xe846e9469b51959a7421e95c0eec5a8bd4f2ed6784708fa20778787ce3f77c5b",
        "config": {
            "network": "Cancun",
            "chainid": "0x01",
            "blobSchedule": {
                "Cancun": {
                    "target": "0x03",
                    "max": "0x06",
                    "baseFeeUpdateFraction": "0x32f0ed"
                }
            }
        },
        "genesisRLP": "0xf90240f9023aa00000000000000000000000000000000000000000000000000000000000000000a01dcc4de8dec75d7aab85b567b6ccd41ad312451b948a7413f0a142fd40d49347940000000000000000000000000000000000000000a015342ce58a854dc3c77cc17f53ebc5e910d9bb73acd6a8a7f5e189429c0b17eba056e81f171bcc55a6ff8345e692c0f86e5b48e01b996cadc001622fb5e363b421a056e81f171bcc55a6ff8345e692c0f86e5b48e01b996cadc001622fb5e363b421b90100000000000000000000000000000000000000000000000000000000000000000000000000000000000000000000000000000000000000000000000000000000000000000000000000000000000000000000000000000000000000000000000000000000000000000000000000000000000000000000000000000000000000000000000000000000000000000000000000000000000000000000000000000000000000000000000000000000000000000000000000000000000000000000000000000000000000000000000000000000000000000000000000000000000000000000000000000000000000000000000000000000000000000000000000000000008080887fffffffffffffff808000a000000000000000000000000000000000000000000000000000000000000000008800000000000000000ba056e81f171bcc55a6ff8345e692c0f86e5b48e01b996cadc001622fb5e363b4218080a00000000000000000000000000000000000000000000000000000000000000000c0c0c0",
        "blocks": [
            {
                "blockHeader": {
                    "parentHash": "0x4647a9fb094355091f153662b152580cdc1ca2dd5c5d20c3ffdda68ea03e8265",
                    "uncleHash": "0x1dcc4de8dec75d7aab85b567b6ccd41ad312451b948a7413f0a142fd40d49347",
                    "coinbase": "0x4f3f701464972e74606d6ea82d4d3080599a0e79",
                    "stateRoot": "0xad52037b5fbe1b9734c9e31df1d076c02d35c086c618858adc7aefb468081791",
                    "transactionsTrie": "0xa47905505e36c46c14bfaf8a117ba435f94889f9c9a0a9aec81c47c1ed082533",
                    "receiptTrie": "0x86882cd1467501203b02e60aafafd09de4d2d3f2c10a4bd7ff961a2fa195d2a8",
                    "bloom": "0x00000000000000000000000000000000000000000000000000000000000000000000000000000000000000000000000000000000000000000000000000000000000000000000000000000000000000000000000000000000000000000000000000000000000000000000000000000000000000000000000000000000000000000000000000000000000000000000000000000000000000000000000000000000000000000000000000000000000000000000000000000000000000000000000000000000000000000000000000000000000000000000000000000000000000000000000000000000000000000000000000000000000000000000000000000000",
                    "difficulty": "0x00",
                    "number": "0x01",
                    "gasLimit": "0x7fffffffffffffff",
                    "gasUsed": "0xadaa",
                    "timestamp": "0x03e8",
                    "extraData": "0x00",
                    "mixHash": "0x0000000000000000000000000000000000000000000000000000000000020000",
                    "nonce": "0x0000000000000000",
                    "baseFeePerGas": "0x0a",
                    "withdrawalsRoot": "0x56e81f171bcc55a6ff8345e692c0f86e5b48e01b996cadc001622fb5e363b421",
                    "blobGasUsed": "0x00",
                    "excessBlobGas": "0x00",
                    "parentBeaconBlockRoot": "0x0000000000000000000000000000000000000000000000000000000000000000",
                    "hash": "0xe846e9469b51959a7421e95c0eec5a8bd4f2ed6784708fa20778787ce3f77c5b"
                },
                "transactions": [
                    {
                        "type": "0x00",
                        "chainId": "0x01",
                        "nonce": "0x00",
                        "gasPrice": "0x0a",
                        "gasLimit": "0x0186a0",
                        "to": "0x2f20efb4edc7dd07322d9c24d64c9ffdab363ccb",
                        "value": "0x603d8563",
                        "data": "0x7f00000000000000000000000100000000000000000000000000000000000000007f000000000000000000000000ffffffffffffffffffffffffffffffffffffffff817f0000000000000000000000010000000000000000000000000000000000000000417f00000000000000000000000000000000000000000000000000000000000000017f000000000000000000000000000000000000000000000000000000000000c350456f8eb7099d9f160532785143c5937e18",
                        "v": "0x25",
                        "r": "0x0938a9b4c9dd8649d3c5ab1949ac921d2be1131e75c69db7553054f6b0f0a00a",
                        "s": "0x39f7b16945b592e21aa8baa45c1ed7b4b146ca1b3c4902012c4007ad5c61b197",
                        "sender": "0x2e3d0156d2b99a6eacba540c55f423c8f5a33143"
                    }
                ],
                "uncleHeaders": [],
                "withdrawals": [],
                "receipts": [
                    {
                        "transactionHash": "0x2d3ce035b50eb241819d9c9761b3cc73301b11eeba5153b8cb8b2d540d86afa3",
                        "type": "0x00",
                        "cumulativeGasUsed": "0xadaa",
                        "bloom": "0x00000000000000000000000000000000000000000000000000000000000000000000000000000000000000000000000000000000000000000000000000000000000000000000000000000000000000000000000000000000000000000000000000000000000000000000000000000000000000000000000000000000000000000000000000000000000000000000000000000000000000000000000000000000000000000000000000000000000000000000000000000000000000000000000000000000000000000000000000000000000000000000000000000000000000000000000000000000000000000000000000000000000000000000000000000000",
                        "logs": [],
                        "status": true,
                        "rlp": "0xf901080182adaab9010000000000000000000000000000000000000000000000000000000000000000000000000000000000000000000000000000000000000000000000000000000000000000000000000000000000000000000000000000000000000000000000000000000000000000000000000000000000000000000000000000000000000000000000000000000000000000000000000000000000000000000000000000000000000000000000000000000000000000000000000000000000000000000000000000000000000000000000000000000000000000000000000000000000000000000000000000000000000000000000000000000000000000000000000000000000c0"
                    }
                ],
                "rlp": "0xf90366f9023ea04647a9fb094355091f153662b152580cdc1ca2dd5c5d20c3ffdda68ea03e8265a01dcc4de8dec75d7aab85b567b6ccd41ad312451b948a7413f0a142fd40d49347944f3f701464972e74606d6ea82d4d3080599a0e79a0ad52037b5fbe1b9734c9e31df1d076c02d35c086c618858adc7aefb468081791a0a47905505e36c46c14bfaf8a117ba435f94889f9c9a0a9aec81c47c1ed082533a086882cd1467501203b02e60aafafd09de4d2d3f2c10a4bd7ff961a2fa195d2a8b90100000000000000000000000000000000000000000000000000000000000000000000000000000000000000000000000000000000000000000000000000000000000000000000000000000000000000000000000000000000000000000000000000000000000000000000000000000000000000000000000000000000000000000000000000000000000000000000000000000000000000000000000000000000000000000000000000000000000000000000000000000000000000000000000000000000000000000000000000000000000000000000000000000000000000000000000000000000000000000000000000000000000000000000000000000000008001887fffffffffffffff82adaa8203e800a000000000000000000000000000000000000000000000000000000000000200008800000000000000000aa056e81f171bcc55a6ff8345e692c0f86e5b48e01b996cadc001622fb5e363b4218080a00000000000000000000000000000000000000000000000000000000000000000f90120f9011d800a830186a0942f20efb4edc7dd07322d9c24d64c9ffdab363ccb84603d8563b8b87f00000000000000000000000100000000000000000000000000000000000000007f000000000000000000000000ffffffffffffffffffffffffffffffffffffffff817f0000000000000000000000010000000000000000000000000000000000000000417f00000000000000000000000000000000000000000000000000000000000000017f000000000000000000000000000000000000000000000000000000000000c350456f8eb7099d9f160532785143c5937e1825a00938a9b4c9dd8649d3c5ab1949ac921d2be1131e75c69db7553054f6b0f0a00aa039f7b16945b592e21aa8baa45c1ed7b4b146ca1b3c4902012c4007ad5c61b197c0c0",
                "blocknumber": "1"
            }
        ],
        "sealEngine": "NoProof",
        "_info": {
            "hash": "0x6f78b05aa4656dd82d9dd8d16896a424eabc1eca86d9a2bf4a459e25002a633c",
            "fixture-format": "blockchain_test",
            "comment": "`execution-specs` generated test",
            "filling-transition-tool": "2.19.0",
            "description": "Test_random_statetest166.",
            "url": "https://github.com/ethereum/execution-specs/blob/tests-bal@v5.6.0/tests/ported_static/stRandom/test_random_statetest166.py#L25",
            "metadata": {
                "opcode_count": {}
            }
        }
    }
}