{
    "tests/frontier/opcodes/test_call.py::test_call_large_args_offset_size_zero[fork_Paris-call_opcode_CALL-blockchain_test_from_state_test]": {
        "network": "Paris",
        "genesisBlockHeader": {
            "parentHash": "0x0000000000000000000000000000000000000000000000000000000000000000",
            "uncleHash": "0x1dcc4de8dec75d7aab85b567b6ccd41ad312451b948a7413f0a142fd40d49347",
            "coinbase": "0x0000000000000000000000000000000000000000",
            "stateRoot": "0x25562c74f7def6ce932239aa86d8dc98ddbffc78e09a16ffee65946e59ea6c27",
            "transactionsTrie": "0x56e81f171bcc55a6ff8345e692c0f86e5b48e01b996cadc001622fb5e363b421",
            "receiptTrie": "0x56e81f171bcc55a6ff8345e692c0f86e5b48e01b996cadc001622fb5e363b421",
            "bloom": "0x00000000000000000000000000000000000000000000000000000000000000000000000000000000000000000000000000000000000000000000000000000000000000000000000000000000000000000000000000000000000000000000000000000000000000000000000000000000000000000000000000000000000000000000000000000000000000000000000000000000000000000000000000000000000000000000000000000000000000000000000000000000000000000000000000000000000000000000000000000000000000000000000000000000000000000000000000000000000000000000000000000000000000000000000000000000",
            "difficulty": "0x00",
            "number": "0x00",
            "gasLimit": "0x07270e00",
            "gasUsed": "0x00",
            "timestamp": "0x00",
            "extraData": "0x00",
            "mixHash": "0x0000000000000000000000000000000000000000000000000000000000000000",
            "nonce": "0x0000000000000000",
            "baseFeePerGas": "0x07",
            "hash": "0x05c3217ed7fc0612f9c76dc681b158326b84399b7db233135fb3a107a2e55ac1"
        },
        "pre": {
            "0x1ad9bc24818784172ff393bb6f89f094d4d2ca29": {
                "nonce": "0x00",
                "balance": "0x3635c9adc5dea00000",
                "code": "0x",
                "storage": {}
            },
            "0x2cc91f7a21dfc6bae64e1cff8f6b3eaac7435be9": {
                "nonce": "0x01",
                "balance": "0x00",
                "code": "0x5a6000600060006c10000000000000000000000000600060006000f15a9050900360155a5a900301900360005500",
                "storage": {}
            }
        },
        "postState": {
            "0x1ad9bc24818784172ff393bb6f89f094d4d2ca29": {
                "nonce": "0x01",
                "balance": "0x3635c9adc5de990476",
                "code": "0x",
                "storage": {}
            },
            "0x2cc91f7a21dfc6bae64e1cff8f6b3eaac7435be9": {
                "nonce": "0x01",
                "balance": "0x00",
                "code": "0x5a6000600060006c10000000000000000000000000600060006000f15a9050900360155a5a900301900360005500",
                "storage": {
                    "0x00": "0x0a28"
                }
            },
            "0x2adc25665018aa1fe0e6bc666dac8fc2697ff9ba": {
                "nonce": "0x00",
                "balance": "0x021843",
                "code": "0x",
                "storage": {}
            }
        },
        "lastblockhash": "0xebc8566db412bbd5b96bda248c01a02c6c9e052e772861acdccf034dae340ea7",
        "config": {
            "network": "Paris",
            "chainid": "0x01"
        },
        "genesisRLP": "0xf901f7f901f2a00000000000000000000000000000000000000000000000000000000000000000a01dcc4de8dec75d7aab85b567b6ccd41ad312451b948a7413f0a142fd40d49347940000000000000000000000000000000000000000a025562c74f7def6ce932239aa86d8dc98ddbffc78e09a16ffee65946e59ea6c27a056e81f171bcc55a6ff8345e692c0f86e5b48e01b996cadc001622fb5e363b421a056e81f171bcc55a6ff8345e692c0f86e5b48e01b996cadc001622fb5e363b421b901000000000000000000000000000000000000000000000000000000000000000000000000000000000000000000000000000000000000000000000000000000000000000000000000000000000000000000000000000000000000000000000000000000000000000000000000000000000000000000000000000000000000000000000000000000000000000000000000000000000000000000000000000000000000000000000000000000000000000000000000000000000000000000000000000000000000000000000000000000000000000000000000000000000000000000000000000000000000000000000000000000000000000000000000000000000080808407270e00808000a0000000000000000000000000000000000000000000000000000000000000000088000000000000000007c0c0",
        "blocks": [
            {
                "blockHeader": {
                    "parentHash": "0x05c3217ed7fc0612f9c76dc681b158326b84399b7db233135fb3a107a2e55ac1",
                    "uncleHash": "0x1dcc4de8dec75d7aab85b567b6ccd41ad312451b948a7413f0a142fd40d49347",
                    "coinbase": "0x2adc25665018aa1fe0e6bc666dac8fc2697ff9ba",
                    "stateRoot": "0xd2bf178912b304872cb2a7ca2c93edbf4070bdaf53ee2cabbb79fa9c973b2496",
                    "transactionsTrie": "0x1be0f6a53d49c7e102ff24112bd6c7863264497faf59c3566c448a06622ea613",
                    "receiptTrie": "0xb7fb671a8e8cef3d0c77a9428dd45c74d0167642ee375c6e8ea07c7864c87977",
                    "bloom": "0x00000000000000000000000000000000000000000000000000000000000000000000000000000000000000000000000000000000000000000000000000000000000000000000000000000000000000000000000000000000000000000000000000000000000000000000000000000000000000000000000000000000000000000000000000000000000000000000000000000000000000000000000000000000000000000000000000000000000000000000000000000000000000000000000000000000000000000000000000000000000000000000000000000000000000000000000000000000000000000000000000000000000000000000000000000000",
                    "difficulty": "0x00",
                    "number": "0x01",
                    "gasLimit": "0x07270e00",
                    "gasUsed": "0xb2c1",
                    "timestamp": "0x03e8",
                    "extraData": "0x00",
                    "mixHash": "0x0000000000000000000000000000000000000000000000000000000000000000",
                    "nonce": "0x0000000000000000",
                    "baseFeePerGas": "0x07",
                    "hash": "0xebc8566db412bbd5b96bda248c01a02c6c9e052e772861acdccf034dae340ea7"
                },
                "transactions": [
                    {
                        "type": "0x00",
                        "chainId": "0x01",
                        "nonce": "0x00",
                        "gasPrice": "0x0a",
                        "gasLimit": "0x07a120",
                        "to": "0x2cc91f7a21dfc6bae64e1cff8f6b3eaac7435be9",
                        "value": "0x00",
                        "data": "0x",
                        "v": "0x26",
                        "r": "0x32c1f11fd63a0fa4beb8d600a9a0054f3cc8242ca9780f828d75bf79bd9e6bb3",
                        "s": "0x0cc44187d5a887cbab3b670a59f00907dff2b63dc0b863f3e97c623cbecc97a6",
                        "sender": "0x1ad9bc24818784172ff393bb6f89f094d4d2ca29"
                    }
                ],
                "uncleHeaders": [],
                "receipts": [
                    {
                        "transactionHash": "0x03f4b26697c84986a641412318ff5411c4c7f08c59b0338d622b965918cd95a7",
                        "type": "0x00",
                        "cumulativeGasUsed": "0xb2c1",
                        "bloom": "0x00000000000000000000000000000000000000000000000000000000000000000000000000000000000000000000000000000000000000000000000000000000000000000000000000000000000000000000000000000000000000000000000000000000000000000000000000000000000000000000000000000000000000000000000000000000000000000000000000000000000000000000000000000000000000000000000000000000000000000000000000000000000000000000000000000000000000000000000000000000000000000000000000000000000000000000000000000000000000000000000000000000000000000000000000000000",
                        "logs": [],
                        "status": true,
                        "rlp": "0xf901080182b2c1b9010000000000000000000000000000000000000000000000000000000000000000000000000000000000000000000000000000000000000000000000000000000000000000000000000000000000000000000000000000000000000000000000000000000000000000000000000000000000000000000000000000000000000000000000000000000000000000000000000000000000000000000000000000000000000000000000000000000000000000000000000000000000000000000000000000000000000000000000000000000000000000000000000000000000000000000000000000000000000000000000000000000000000000000000000000000000c0"
                    }
                ],
                "rlp": "0xf9025ef901f6a005c3217ed7fc0612f9c76dc681b158326b84399b7db233135fb3a107a2e55ac1a01dcc4de8dec75d7aab85b567b6ccd41ad312451b948a7413f0a142fd40d49347942adc25665018aa1fe0e6bc666dac8fc2697ff9baa0d2bf178912b304872cb2a7ca2c93edbf4070bdaf53ee2cabbb79fa9c973b2496a01be0f6a53d49c7e102ff24112bd6c7863264497faf59c3566c448a06622ea613a0b7fb671a8e8cef3d0c77a9428dd45c74d0167642ee375c6e8ea07c7864c87977b901000000000000000000000000000000000000000000000000000000000000000000000000000000000000000000000000000000000000000000000000000000000000000000000000000000000000000000000000000000000000000000000000000000000000000000000000000000000000000000000000000000000000000000000000000000000000000000000000000000000000000000000000000000000000000000000000000000000000000000000000000000000000000000000000000000000000000000000000000000000000000000000000000000000000000000000000000000000000000000000000000000000000000000000000000000000080018407270e0082b2c18203e800a0000000000000000000000000000000000000000000000000000000000000000088000000000000000007f862f860800a8307a120942cc91f7a21dfc6bae64e1cff8f6b3eaac7435be9808026a032c1f11fd63a0fa4beb8d600a9a0054f3cc8242ca9780f828d75bf79bd9e6bb3a00cc44187d5a887cbab3b670a59f00907dff2b63dc0b863f3e97c623cbecc97a6c0",
                "blocknumber": "1"
            }
        ],
        "sealEngine": "NoProof",
        "_info": {
            "hash": "0xdb62decf4bcb38d68bfdd4c85639e50fb3865826bfb7444ae50901dbd1a6890b",
            "fixture-format": "blockchain_test",
            "comment": "`execution-specs` generated test",
            "filling-transition-tool": "2.19.0",
            "description": "Test xCALL with an extremely large args_offset and args_size set to zero.\nSince the size is zero, the large offset should not cause a revert.",
            "url": "https://github.com/ethereum/execution-specs/blob/tests-bal@v5.4.0/tests/frontier/opcodes/test_call.py#L173",
            "opcode_count": {}
        }
    },
    "tests/frontier/opcodes/test_call.py::test_call_large_args_offset_size_zero[fork_Paris-call_opcode_CALLCODE-blockchain_test_from_state_test]": {
        "network": "Paris",
        "genesisBlockHeader": {
            "parentHash": "0x0000000000000000000000000000000000000000000000000000000000000000",
            "uncleHash": "0x1dcc4de8dec75d7aab85b567b6ccd41ad312451b948a7413f0a142fd40d49347",
            "coinbase": "0x0000000000000000000000000000000000000000",
            "stateRoot": "0xe4876e401ca93250c8950b93349cb9d621e80cb970a0164f932de9dc384f7c52",
            "transactionsTrie": "0x56e81f171bcc55a6ff8345e692c0f86e5b48e01b996cadc001622fb5e363b421",
            "receiptTrie": "0x56e81f171bcc55a6ff8345e692c0f86e5b48e01b996cadc001622fb5e363b421",
            "bloom": "0x00000000000000000000000000000000000000000000000000000000000000000000000000000000000000000000000000000000000000000000000000000000000000000000000000000000000000000000000000000000000000000000000000000000000000000000000000000000000000000000000000000000000000000000000000000000000000000000000000000000000000000000000000000000000000000000000000000000000000000000000000000000000000000000000000000000000000000000000000000000000000000000000000000000000000000000000000000000000000000000000000000000000000000000000000000000",
            "difficulty": "0x00",
            "number": "0x00",
            "gasLimit": "0x07270e00",
            "gasUsed": "0x00",
            "timestamp": "0x00",
            "extraData": "0x00",
            "mixHash": "0x0000000000000000000000000000000000000000000000000000000000000000",
            "nonce": "0x0000000000000000",
            "baseFeePerGas": "0x07",
            "hash": "0x12cf428827a49dec8cca278790d9e8c2b23e631140075f616085ca9ad4079bcd"
        },
        "pre": {
            "0x1ad9bc24818784172ff393bb6f89f094d4d2ca29": {
                "nonce": "0x00",
                "balance": "0x3635c9adc5dea00000",
                "code": "0x",
                "storage": {}
            },
            "0x88ea742dbfb57d703662c75067eab8c56a98b29c": {
                "nonce": "0x01",
                "balance": "0x00",
                "code": "0x5a6000600060006c10000000000000000000000000600060006000f25a9050900360155a5a900301900360005500",
                "storage": {}
            }
        },
        "postState": {
            "0x1ad9bc24818784172ff393bb6f89f094d4d2ca29": {
                "nonce": "0x01",
                "balance": "0x3635c9adc5de990476",
                "code": "0x",
                "storage": {}
            },
            "0x88ea742dbfb57d703662c75067eab8c56a98b29c": {
                "nonce": "0x01",
                "balance": "0x00",
                "code": "0x5a6000600060006c10000000000000000000000000600060006000f25a9050900360155a5a900301900360005500",
                "storage": {
                    "0x00": "0x0a28"
                }
            },
            "0x2adc25665018aa1fe0e6bc666dac8fc2697ff9ba": {
                "nonce": "0x00",
                "balance": "0x021843",
                "code": "0x",
                "storage": {}
            }
        },
        "lastblockhash": "0xfd8c44a0e99704eaf5a66a29bc0e465032a737195110f68ec9dc0c1a1f46ed03",
        "config": {
            "network": "Paris",
            "chainid": "0x01"
        },
        "genesisRLP": "0xf901f7f901f2a00000000000000000000000000000000000000000000000000000000000000000a01dcc4de8dec75d7aab85b567b6ccd41ad312451b948a7413f0a142fd40d49347940000000000000000000000000000000000000000a0e4876e401ca93250c8950b93349cb9d621e80cb970a0164f932de9dc384f7c52a056e81f171bcc55a6ff8345e692c0f86e5b48e01b996cadc001622fb5e363b421a056e81f171bcc55a6ff8345e692c0f86e5b48e01b996cadc001622fb5e363b421b901000000000000000000000000000000000000000000000000000000000000000000000000000000000000000000000000000000000000000000000000000000000000000000000000000000000000000000000000000000000000000000000000000000000000000000000000000000000000000000000000000000000000000000000000000000000000000000000000000000000000000000000000000000000000000000000000000000000000000000000000000000000000000000000000000000000000000000000000000000000000000000000000000000000000000000000000000000000000000000000000000000000000000000000000000000000080808407270e00808000a0000000000000000000000000000000000000000000000000000000000000000088000000000000000007c0c0",
        "blocks": [
            {
                "blockHeader": {
                    "parentHash": "0x12cf428827a49dec8cca278790d9e8c2b23e631140075f616085ca9ad4079bcd",
                    "uncleHash": "0x1dcc4de8dec75d7aab85b567b6ccd41ad312451b948a7413f0a142fd40d49347",
                    "coinbase": "0x2adc25665018aa1fe0e6bc666dac8fc2697ff9ba",
                    "stateRoot": "0x0e5cc3edcbf37f1384d4d52cd074f71a9b3ec5f5c96f742d25fff5f61146adf6",
                    "transactionsTrie": "0x503c734abd0abec91e5c747ecb12be45114dcc4cd0c812b1fb153f2d5c4ca91a",
                    "receiptTrie": "0xb7fb671a8e8cef3d0c77a9428dd45c74d0167642ee375c6e8ea07c7864c87977",
                    "bloom": "0x00000000000000000000000000000000000000000000000000000000000000000000000000000000000000000000000000000000000000000000000000000000000000000000000000000000000000000000000000000000000000000000000000000000000000000000000000000000000000000000000000000000000000000000000000000000000000000000000000000000000000000000000000000000000000000000000000000000000000000000000000000000000000000000000000000000000000000000000000000000000000000000000000000000000000000000000000000000000000000000000000000000000000000000000000000000",
                    "difficulty": "0x00",
                    "number": "0x01",
                    "gasLimit": "0x07270e00",
                    "gasUsed": "0xb2c1",
                    "timestamp": "0x03e8",
                    "extraData": "0x00",
                    "mixHash": "0x0000000000000000000000000000000000000000000000000000000000000000",
                    "nonce": "0x0000000000000000",
                    "baseFeePerGas": "0x07",
                    "hash": "0xfd8c44a0e99704eaf5a66a29bc0e465032a737195110f68ec9dc0c1a1f46ed03"
                },
                "transactions": [
                    {
                        "type": "0x00",
                        "chainId": "0x01",
                        "nonce": "0x00",
                        "gasPrice": "0x0a",
                        "gasLimit": "0x07a120",
                        "to": "0x88ea742dbfb57d703662c75067eab8c56a98b29c",
                        "value": "0x00",
                        "data": "0x",
                        "v": "0x25",
                        "r": "0xd0f9cb074da21072e159afb6443dd9e6cc655ef332f9cc57a91c87e5c3539544",
                        "s": "0x388eb22ee423f1ac06f1740c22974ea785657f86061f447cff3e79ef15baa31e",
                        "sender": "0x1ad9bc24818784172ff393bb6f89f094d4d2ca29"
                    }
                ],
                "uncleHeaders": [],
                "receipts": [
                    {
                        "transactionHash": "0x5906e505cd91c520c50bf5bbe318f89226fe47531c28f802765830538d7e357a",
                        "type": "0x00",
                        "cumulativeGasUsed": "0xb2c1",
                        "bloom": "0x00000000000000000000000000000000000000000000000000000000000000000000000000000000000000000000000000000000000000000000000000000000000000000000000000000000000000000000000000000000000000000000000000000000000000000000000000000000000000000000000000000000000000000000000000000000000000000000000000000000000000000000000000000000000000000000000000000000000000000000000000000000000000000000000000000000000000000000000000000000000000000000000000000000000000000000000000000000000000000000000000000000000000000000000000000000",
                        "logs": [],
                        "status": true,
                        "rlp": "0xf901080182b2c1b9010000000000000000000000000000000000000000000000000000000000000000000000000000000000000000000000000000000000000000000000000000000000000000000000000000000000000000000000000000000000000000000000000000000000000000000000000000000000000000000000000000000000000000000000000000000000000000000000000000000000000000000000000000000000000000000000000000000000000000000000000000000000000000000000000000000000000000000000000000000000000000000000000000000000000000000000000000000000000000000000000000000000000000000000000000000000c0"
                    }
                ],
                "rlp": "0xf9025ef901f6a012cf428827a49dec8cca278790d9e8c2b23e631140075f616085ca9ad4079bcda01dcc4de8dec75d7aab85b567b6ccd41ad312451b948a7413f0a142fd40d49347942adc25665018aa1fe0e6bc666dac8fc2697ff9baa00e5cc3edcbf37f1384d4d52cd074f71a9b3ec5f5c96f742d25fff5f61146adf6a0503c734abd0abec91e5c747ecb12be45114dcc4cd0c812b1fb153f2d5c4ca91aa0b7fb671a8e8cef3d0c77a9428dd45c74d0167642ee375c6e8ea07c7864c87977b901000000000000000000000000000000000000000000000000000000000000000000000000000000000000000000000000000000000000000000000000000000000000000000000000000000000000000000000000000000000000000000000000000000000000000000000000000000000000000000000000000000000000000000000000000000000000000000000000000000000000000000000000000000000000000000000000000000000000000000000000000000000000000000000000000000000000000000000000000000000000000000000000000000000000000000000000000000000000000000000000000000000000000000000000000000000080018407270e0082b2c18203e800a0000000000000000000000000000000000000000000000000000000000000000088000000000000000007f862f860800a8307a1209488ea742dbfb57d703662c75067eab8c56a98b29c808025a0d0f9cb074da21072e159afb6443dd9e6cc655ef332f9cc57a91c87e5c3539544a0388eb22ee423f1ac06f1740c22974ea785657f86061f447cff3e79ef15baa31ec0",
                "blocknumber": "1"
            }
        ],
        "sealEngine": "NoProof",
        "_info": {
            "hash": "0xc76b488495d53b8570cb01764fada22f4d5342169c60a55e6bb362a560da8f79",
            "fixture-format": "blockchain_test",
            "comment": "`execution-specs` generated test",
            "filling-transition-tool": "2.19.0",
            "description": "Test xCALL with an extremely large args_offset and args_size set to zero.\nSince the size is zero, the large offset should not cause a revert.",
            "url": "https://github.com/ethereum/execution-specs/blob/tests-bal@v5.4.0/tests/frontier/opcodes/test_call.py#L173",
            "opcode_count": {}
        }
    },
    "tests/frontier/opcodes/test_call.py::test_call_large_args_offset_size_zero[fork_Paris-call_opcode_DELEGATECALL-blockchain_test_from_state_test]": {
        "network": "Paris",
        "genesisBlockHeader": {
            "parentHash": "0x0000000000000000000000000000000000000000000000000000000000000000",
            "uncleHash": "0x1dcc4de8dec75d7aab85b567b6ccd41ad312451b948a7413f0a142fd40d49347",
            "coinbase": "0x0000000000000000000000000000000000000000",
            "stateRoot": "0x538ae48a4f3fa8f852a96a1b0c75723f5e38e00b00fe25e688ce3639e2ea041d",
            "transactionsTrie": "0x56e81f171bcc55a6ff8345e692c0f86e5b48e01b996cadc001622fb5e363b421",
            "receiptTrie": "0x56e81f171bcc55a6ff8345e692c0f86e5b48e01b996cadc001622fb5e363b421",
            "bloom": "0x00000000000000000000000000000000000000000000000000000000000000000000000000000000000000000000000000000000000000000000000000000000000000000000000000000000000000000000000000000000000000000000000000000000000000000000000000000000000000000000000000000000000000000000000000000000000000000000000000000000000000000000000000000000000000000000000000000000000000000000000000000000000000000000000000000000000000000000000000000000000000000000000000000000000000000000000000000000000000000000000000000000000000000000000000000000",
            "difficulty": "0x00",
            "number": "0x00",
            "gasLimit": "0x07270e00",
            "gasUsed": "0x00",
            "timestamp": "0x00",
            "extraData": "0x00",
            "mixHash": "0x0000000000000000000000000000000000000000000000000000000000000000",
            "nonce": "0x0000000000000000",
            "baseFeePerGas": "0x07",
            "hash": "0xbb3b76be1233356d0820012f14307ac87399957f82d2d8bd6e00c3968468c6c0"
        },
        "pre": {
            "0x1ad9bc24818784172ff393bb6f89f094d4d2ca29": {
                "nonce": "0x00",
                "balance": "0x3635c9adc5dea00000",
                "code": "0x",
                "storage": {}
            },
            "0x41668e510a2fd0d590a11bfa61420a7788181f2f": {
                "nonce": "0x01",
                "balance": "0x00",
                "code": "0x5a6000600060006c1000000000000000000000000060006000f45a9050900360125a5a900301900360005500",
                "storage": {}
            }
        },
        "postState": {
            "0x1ad9bc24818784172ff393bb6f89f094d4d2ca29": {
                "nonce": "0x01",
                "balance": "0x3635c9adc5de990494",
                "code": "0x",
                "storage": {}
            },
            "0x41668e510a2fd0d590a11bfa61420a7788181f2f": {
                "nonce": "0x01",
                "balance": "0x00",
                "code": "0x5a6000600060006c1000000000000000000000000060006000f45a9050900360125a5a900301900360005500",
                "storage": {
                    "0x00": "0x0a28"
                }
            },
            "0x2adc25665018aa1fe0e6bc666dac8fc2697ff9ba": {
                "nonce": "0x00",
                "balance": "0x02183a",
                "code": "0x",
                "storage": {}
            }
        },
        "lastblockhash": "0x01727672526a4d4ee1f60a106927d7105efe44260f73a060230737f6eb5663f6",
        "config": {
            "network": "Paris",
            "chainid": "0x01"
        },
        "genesisRLP": "0xf901f7f901f2a00000000000000000000000000000000000000000000000000000000000000000a01dcc4de8dec75d7aab85b567b6ccd41ad312451b948a7413f0a142fd40d49347940000000000000000000000000000000000000000a0538ae48a4f3fa8f852a96a1b0c75723f5e38e00b00fe25e688ce3639e2ea041da056e81f171bcc55a6ff8345e692c0f86e5b48e01b996cadc001622fb5e363b421a056e81f171bcc55a6ff8345e692c0f86e5b48e01b996cadc001622fb5e363b421b901000000000000000000000000000000000000000000000000000000000000000000000000000000000000000000000000000000000000000000000000000000000000000000000000000000000000000000000000000000000000000000000000000000000000000000000000000000000000000000000000000000000000000000000000000000000000000000000000000000000000000000000000000000000000000000000000000000000000000000000000000000000000000000000000000000000000000000000000000000000000000000000000000000000000000000000000000000000000000000000000000000000000000000000000000000000080808407270e00808000a0000000000000000000000000000000000000000000000000000000000000000088000000000000000007c0c0",
        "blocks": [
            {
                "blockHeader": {
                    "parentHash": "0xbb3b76be1233356d0820012f14307ac87399957f82d2d8bd6e00c3968468c6c0",
                    "uncleHash": "0x1dcc4de8dec75d7aab85b567b6ccd41ad312451b948a7413f0a142fd40d49347",
                    "coinbase": "0x2adc25665018aa1fe0e6bc666dac8fc2697ff9ba",
                    "stateRoot": "0x7ae9c4373f35d2d858a51e1218499e447277669ae2bb8859a6e2f4d08232ab04",
                    "transactionsTrie": "0x2d8b7e328a35812cca3af0fd00b956cf2944414671d92300b5eedf30bec9001b",
                    "receiptTrie": "0x1c16fd203dfc35350a3cd5cd2945a6d4cd13d53901fd0669c41270fce8e68c44",
                    "bloom": "0x00000000000000000000000000000000000000000000000000000000000000000000000000000000000000000000000000000000000000000000000000000000000000000000000000000000000000000000000000000000000000000000000000000000000000000000000000000000000000000000000000000000000000000000000000000000000000000000000000000000000000000000000000000000000000000000000000000000000000000000000000000000000000000000000000000000000000000000000000000000000000000000000000000000000000000000000000000000000000000000000000000000000000000000000000000000",
                    "difficulty": "0x00",
                    "number": "0x01",
                    "gasLimit": "0x07270e00",
                    "gasUsed": "0xb2be",
                    "timestamp": "0x03e8",
                    "extraData": "0x00",
                    "mixHash": "0x0000000000000000000000000000000000000000000000000000000000000000",
                    "nonce": "0x0000000000000000",
                    "baseFeePerGas": "0x07",
                    "hash": "0x01727672526a4d4ee1f60a106927d7105efe44260f73a060230737f6eb5663f6"
                },
                "transactions": [
                    {
                        "type": "0x00",
                        "chainId": "0x01",
                        "nonce": "0x00",
                        "gasPrice": "0x0a",
                        "gasLimit": "0x07a120",
                        "to": "0x41668e510a2fd0d590a11bfa61420a7788181f2f",
                        "value": "0x00",
                        "data": "0x",
                        "v": "0x25",
                        "r": "0xb21c9ee25a23448f7fe201f21e367a75133fd65b8d9e8d1eb37a89b7683862e8",
                        "s": "0x35860be0a1da8c6669ae8b21b95cc7ed854db6de160d81de4c89d64e617d5fc7",
                        "sender": "0x1ad9bc24818784172ff393bb6f89f094d4d2ca29"
                    }
                ],
                "uncleHeaders": [],
                "receipts": [
                    {
                        "transactionHash": "0x643136b379bf9b1c6363d4a4e622434059aba32bcc7c4f10d7b8605f88437302",
                        "type": "0x00",
                        "cumulativeGasUsed": "0xb2be",
                        "bloom": "0x00000000000000000000000000000000000000000000000000000000000000000000000000000000000000000000000000000000000000000000000000000000000000000000000000000000000000000000000000000000000000000000000000000000000000000000000000000000000000000000000000000000000000000000000000000000000000000000000000000000000000000000000000000000000000000000000000000000000000000000000000000000000000000000000000000000000000000000000000000000000000000000000000000000000000000000000000000000000000000000000000000000000000000000000000000000",
                        "logs": [],
                        "status": true,
                        "rlp": "0xf901080182b2beb9010000000000000000000000000000000000000000000000000000000000000000000000000000000000000000000000000000000000000000000000000000000000000000000000000000000000000000000000000000000000000000000000000000000000000000000000000000000000000000000000000000000000000000000000000000000000000000000000000000000000000000000000000000000000000000000000000000000000000000000000000000000000000000000000000000000000000000000000000000000000000000000000000000000000000000000000000000000000000000000000000000000000000000000000000000000000c0"
                    }
                ],
                "rlp": "0xf9025ef901f6a0bb3b76be1233356d0820012f14307ac87399957f82d2d8bd6e00c3968468c6c0a01dcc4de8dec75d7aab85b567b6ccd41ad312451b948a7413f0a142fd40d49347942adc25665018aa1fe0e6bc666dac8fc2697ff9baa07ae9c4373f35d2d858a51e1218499e447277669ae2bb8859a6e2f4d08232ab04a02d8b7e328a35812cca3af0fd00b956cf2944414671d92300b5eedf30bec9001ba01c16fd203dfc35350a3cd5cd2945a6d4cd13d53901fd0669c41270fce8e68c44b901000000000000000000000000000000000000000000000000000000000000000000000000000000000000000000000000000000000000000000000000000000000000000000000000000000000000000000000000000000000000000000000000000000000000000000000000000000000000000000000000000000000000000000000000000000000000000000000000000000000000000000000000000000000000000000000000000000000000000000000000000000000000000000000000000000000000000000000000000000000000000000000000000000000000000000000000000000000000000000000000000000000000000000000000000000000080018407270e0082b2be8203e800a0000000000000000000000000000000000000000000000000000000000000000088000000000000000007f862f860800a8307a1209441668e510a2fd0d590a11bfa61420a7788181f2f808025a0b21c9ee25a23448f7fe201f21e367a75133fd65b8d9e8d1eb37a89b7683862e8a035860be0a1da8c6669ae8b21b95cc7ed854db6de160d81de4c89d64e617d5fc7c0",
                "blocknumber": "1"
            }
        ],
        "sealEngine": "NoProof",
        "_info": {
            "hash": "0x175c3089add2bcbec8f0f8a4b8ed9d45148a016abaa9b5efd8705b9940d38a18",
            "fixture-format": "blockchain_test",
            "comment": "`execution-specs` generated test",
            "filling-transition-tool": "2.19.0",
            "description": "Test xCALL with an extremely large args_offset and args_size set to zero.\nSince the size is zero, the large offset should not cause a revert.",
            "url": "https://github.com/ethereum/execution-specs/blob/tests-bal@v5.4.0/tests/frontier/opcodes/test_call.py#L173",
            "opcode_count": {}
        }
    },
    "tests/frontier/opcodes/test_call.py::test_call_large_args_offset_size_zero[fork_Paris-call_opcode_STATICCALL-blockchain_test_from_state_test]": {
        "network": "Paris",
        "genesisBlockHeader": {
            "parentHash": "0x0000000000000000000000000000000000000000000000000000000000000000",
            "uncleHash": "0x1dcc4de8dec75d7aab85b567b6ccd41ad312451b948a7413f0a142fd40d49347",
            "coinbase": "0x0000000000000000000000000000000000000000",
            "stateRoot": "0xb3def9873e429c874dd1ae9c2f869d365c04651fe8b7b98027238a178ebc94dd",
            "transactionsTrie": "0x56e81f171bcc55a6ff8345e692c0f86e5b48e01b996cadc001622fb5e363b421",
            "receiptTrie": "0x56e81f171bcc55a6ff8345e692c0f86e5b48e01b996cadc001622fb5e363b421",
            "bloom": "0x00000000000000000000000000000000000000000000000000000000000000000000000000000000000000000000000000000000000000000000000000000000000000000000000000000000000000000000000000000000000000000000000000000000000000000000000000000000000000000000000000000000000000000000000000000000000000000000000000000000000000000000000000000000000000000000000000000000000000000000000000000000000000000000000000000000000000000000000000000000000000000000000000000000000000000000000000000000000000000000000000000000000000000000000000000000",
            "difficulty": "0x00",
            "number": "0x00",
            "gasLimit": "0x07270e00",
            "gasUsed": "0x00",
            "timestamp": "0x00",
            "extraData": "0x00",
            "mixHash": "0x0000000000000000000000000000000000000000000000000000000000000000",
            "nonce": "0x0000000000000000",
            "baseFeePerGas": "0x07",
            "hash": "0x457208746e7f0002c8cb053f087ce25ea95ed3149e0bd6e320493b36c2516a44"
        },
        "pre": {
            "0x1ad9bc24818784172ff393bb6f89f094d4d2ca29": {
                "nonce": "0x00",
                "balance": "0x3635c9adc5dea00000",
                "code": "0x",
                "storage": {}
            },
            "0x3e3f5d0d5164183bc7e8b510e6684071434eb6a3": {
                "nonce": "0x01",
                "balance": "0x00",
                "code": "0x5a6000600060006c1000000000000000000000000060006000fa5a9050900360125a5a900301900360005500",
                "storage": {}
            }
        },
        "postState": {
            "0x1ad9bc24818784172ff393bb6f89f094d4d2ca29": {
                "nonce": "0x01",
                "balance": "0x3635c9adc5de990494",
                "code": "0x",
                "storage": {}
            },
            "0x3e3f5d0d5164183bc7e8b510e6684071434eb6a3": {
                "nonce": "0x01",
                "balance": "0x00",
                "code": "0x5a6000600060006c1000000000000000000000000060006000fa5a9050900360125a5a900301900360005500",
                "storage": {
                    "0x00": "0x0a28"
                }
            },
            "0x2adc25665018aa1fe0e6bc666dac8fc2697ff9ba": {
                "nonce": "0x00",
                "balance": "0x02183a",
                "code": "0x",
                "storage": {}
            }
        },
        "lastblockhash": "0xd32ba00a2c0cc18274a9baffc3f0b4d24c8794bea9a7c87c03b5139240a33ba4",
        "config": {
            "network": "Paris",
            "chainid": "0x01"
        },
        "genesisRLP": "0xf901f7f901f2a00000000000000000000000000000000000000000000000000000000000000000a01dcc4de8dec75d7aab85b567b6ccd41ad312451b948a7413f0a142fd40d49347940000000000000000000000000000000000000000a0b3def9873e429c874dd1ae9c2f869d365c04651fe8b7b98027238a178ebc94dda056e81f171bcc55a6ff8345e692c0f86e5b48e01b996cadc001622fb5e363b421a056e81f171bcc55a6ff8345e692c0f86e5b48e01b996cadc001622fb5e363b421b901000000000000000000000000000000000000000000000000000000000000000000000000000000000000000000000000000000000000000000000000000000000000000000000000000000000000000000000000000000000000000000000000000000000000000000000000000000000000000000000000000000000000000000000000000000000000000000000000000000000000000000000000000000000000000000000000000000000000000000000000000000000000000000000000000000000000000000000000000000000000000000000000000000000000000000000000000000000000000000000000000000000000000000000000000000000080808407270e00808000a0000000000000000000000000000000000000000000000000000000000000000088000000000000000007c0c0",
        "blocks": [
            {
                "blockHeader": {
                    "parentHash": "0x457208746e7f0002c8cb053f087ce25ea95ed3149e0bd6e320493b36c2516a44",
                    "uncleHash": "0x1dcc4de8dec75d7aab85b567b6ccd41ad312451b948a7413f0a142fd40d49347",
                    "coinbase": "0x2adc25665018aa1fe0e6bc666dac8fc2697ff9ba",
                    "stateRoot": "0x23878678134313c40c7cacae3c7ef28405c3e5040de4ec9c47490b77f8499eb4",
                    "transactionsTrie": "0xc3cbbcf7d9d0b0d47d81c9809eed055df1ffa0c8ba1664dd3cd5a30cbd945b07",
                    "receiptTrie": "0x1c16fd203dfc35350a3cd5cd2945a6d4cd13d53901fd0669c41270fce8e68c44",
                    "bloom": "0x00000000000000000000000000000000000000000000000000000000000000000000000000000000000000000000000000000000000000000000000000000000000000000000000000000000000000000000000000000000000000000000000000000000000000000000000000000000000000000000000000000000000000000000000000000000000000000000000000000000000000000000000000000000000000000000000000000000000000000000000000000000000000000000000000000000000000000000000000000000000000000000000000000000000000000000000000000000000000000000000000000000000000000000000000000000",
                    "difficulty": "0x00",
                    "number": "0x01",
                    "gasLimit": "0x07270e00",
                    "gasUsed": "0xb2be",
                    "timestamp": "0x03e8",
                    "extraData": "0x00",
                    "mixHash": "0x0000000000000000000000000000000000000000000000000000000000000000",
                    "nonce": "0x0000000000000000",
                    "baseFeePerGas": "0x07",
                    "hash": "0xd32ba00a2c0cc18274a9baffc3f0b4d24c8794bea9a7c87c03b5139240a33ba4"
                },
                "transactions": [
                    {
                        "type": "0x00",
                        "chainId": "0x01",
                        "nonce": "0x00",
                        "gasPrice": "0x0a",
                        "gasLimit": "0x07a120",
                        "to": "0x3e3f5d0d5164183bc7e8b510e6684071434eb6a3",
                        "value": "0x00",
                        "data": "0x",
                        "v": "0x26",
                        "r": "0xf39837e05b2bc69bda8e442d0ba94c78b5febd979f1ec74b477e1b34d155115c",
                        "s": "0x2e96166bef0db9e0733bccce61d71f77c1dac2cdc3af6283af73c5f0054bff27",
                        "sender": "0x1ad9bc24818784172ff393bb6f89f094d4d2ca29"
                    }
                ],
                "uncleHeaders": [],
                "receipts": [
                    {
                        "transactionHash": "0x048ed199299514319fda05dbcc047e7e50e0accd127bc897af668cb7fed1090d",
                        "type": "0x00",
                        "cumulativeGasUsed": "0xb2be",
                        "bloom": "0x00000000000000000000000000000000000000000000000000000000000000000000000000000000000000000000000000000000000000000000000000000000000000000000000000000000000000000000000000000000000000000000000000000000000000000000000000000000000000000000000000000000000000000000000000000000000000000000000000000000000000000000000000000000000000000000000000000000000000000000000000000000000000000000000000000000000000000000000000000000000000000000000000000000000000000000000000000000000000000000000000000000000000000000000000000000",
                        "logs": [],
                        "status": true,
                        "rlp": "0xf901080182b2beb9010000000000000000000000000000000000000000000000000000000000000000000000000000000000000000000000000000000000000000000000000000000000000000000000000000000000000000000000000000000000000000000000000000000000000000000000000000000000000000000000000000000000000000000000000000000000000000000000000000000000000000000000000000000000000000000000000000000000000000000000000000000000000000000000000000000000000000000000000000000000000000000000000000000000000000000000000000000000000000000000000000000000000000000000000000000000c0"
                    }
                ],
                "rlp": "0xf9025ef901f6a0457208746e7f0002c8cb053f087ce25ea95ed3149e0bd6e320493b36c2516a44a01dcc4de8dec75d7aab85b567b6ccd41ad312451b948a7413f0a142fd40d49347942adc25665018aa1fe0e6bc666dac8fc2697ff9baa023878678134313c40c7cacae3c7ef28405c3e5040de4ec9c47490b77f8499eb4a0c3cbbcf7d9d0b0d47d81c9809eed055df1ffa0c8ba1664dd3cd5a30cbd945b07a01c16fd203dfc35350a3cd5cd2945a6d4cd13d53901fd0669c41270fce8e68c44b901000000000000000000000000000000000000000000000000000000000000000000000000000000000000000000000000000000000000000000000000000000000000000000000000000000000000000000000000000000000000000000000000000000000000000000000000000000000000000000000000000000000000000000000000000000000000000000000000000000000000000000000000000000000000000000000000000000000000000000000000000000000000000000000000000000000000000000000000000000000000000000000000000000000000000000000000000000000000000000000000000000000000000000000000000000000080018407270e0082b2be8203e800a0000000000000000000000000000000000000000000000000000000000000000088000000000000000007f862f860800a8307a120943e3f5d0d5164183bc7e8b510e6684071434eb6a3808026a0f39837e05b2bc69bda8e442d0ba94c78b5febd979f1ec74b477e1b34d155115ca02e96166bef0db9e0733bccce61d71f77c1dac2cdc3af6283af73c5f0054bff27c0",
                "blocknumber": "1"
            }
        ],
        "sealEngine": "NoProof",
        "_info": {
            "hash": "0xc6c5e254d0529a87102aea143385e66c4880acbe278969cc6c625db9b25761db",
            "fixture-format": "blockchain_test",
            "comment": "`execution-specs` generated test",
            "filling-transition-tool": "2.19.0",
            "description": "Test xCALL with an extremely large args_offset and args_size set to zero.\nSince the size is zero, the large offset should not cause a revert.",
            "url": "https://github.com/ethereum/execution-specs/blob/tests-bal@v5.4.0/tests/frontier/opcodes/test_call.py#L173",
            "opcode_count": {}
        }
    }
}