{
    "tests/ported_static/stArgsZeroOneBalance/test_byte_non_const.py::test_byte_non_const[fork_Cancun-blockchain_test_from_state_test--v0]": {
        "network": "Cancun",
        "genesisBlockHeader": {
            "parentHash": "0x0000000000000000000000000000000000000000000000000000000000000000",
            "uncleHash": "0x1dcc4de8dec75d7aab85b567b6ccd41ad312451b948a7413f0a142fd40d49347",
            "coinbase": "0x0000000000000000000000000000000000000000",
            "stateRoot": "0x0626535fbead42062c54541dc5803150c7d51735f9bf6c3541041eb3f2cea25d",
            "transactionsTrie": "0x56e81f171bcc55a6ff8345e692c0f86e5b48e01b996cadc001622fb5e363b421",
            "receiptTrie": "0x56e81f171bcc55a6ff8345e692c0f86e5b48e01b996cadc001622fb5e363b421",
            "bloom": "0x00000000000000000000000000000000000000000000000000000000000000000000000000000000000000000000000000000000000000000000000000000000000000000000000000000000000000000000000000000000000000000000000000000000000000000000000000000000000000000000000000000000000000000000000000000000000000000000000000000000000000000000000000000000000000000000000000000000000000000000000000000000000000000000000000000000000000000000000000000000000000000000000000000000000000000000000000000000000000000000000000000000000000000000000000000000",
            "difficulty": "0x00",
            "number": "0x00",
            "gasLimit": "0x0f4240",
            "gasUsed": "0x00",
            "timestamp": "0x00",
            "extraData": "0x00",
            "mixHash": "0x0000000000000000000000000000000000000000000000000000000000000000",
            "nonce": "0x0000000000000000",
            "baseFeePerGas": "0x0b",
            "withdrawalsRoot": "0x56e81f171bcc55a6ff8345e692c0f86e5b48e01b996cadc001622fb5e363b421",
            "blobGasUsed": "0x00",
            "excessBlobGas": "0x00",
            "parentBeaconBlockRoot": "0x0000000000000000000000000000000000000000000000000000000000000000",
            "hash": "0xabb9836a9456c837105cf951168e0b95a909ecc845ba963d55ba9cd1aec877e6"
        },
        "pre": {
            "0x000f3df6d732807ef1319fb7b8bb8522d0beac02": {
                "nonce": "0x01",
                "balance": "0x00",
                "code": "0x3373fffffffffffffffffffffffffffffffffffffffe14604d57602036146024575f5ffd5b5f35801560495762001fff810690815414603c575f5ffd5b62001fff01545f5260205ff35b5f5ffd5b62001fff42064281555f359062001fff015500",
                "storage": {}
            },
            "0xd66f224cbd2fabb21b17bb53c56118f32f62ebd6": {
                "nonce": "0x00",
                "balance": "0x0de0b6b3a7640000",
                "code": "0x",
                "storage": {}
            },
            "0x86d606901085ba78c64d2e0b16831e6afd89de2d": {
                "nonce": "0x00",
                "balance": "0x00",
                "code": "0x7386d606901085ba78c64d2e0b16831e6afd89de2d317386d606901085ba78c64d2e0b16831e6afd89de2d311a60005500",
                "storage": {}
            }
        },
        "postState": {
            "0x000f3df6d732807ef1319fb7b8bb8522d0beac02": {
                "nonce": "0x01",
                "balance": "0x00",
                "code": "0x3373fffffffffffffffffffffffffffffffffffffffe14604d57602036146024575f5ffd5b5f35801560495762001fff810690815414603c575f5ffd5b62001fff01545f5260205ff35b5f5ffd5b62001fff42064281555f359062001fff015500",
                "storage": {
                    "0x03e8": "0x03e8"
                }
            },
            "0xd66f224cbd2fabb21b17bb53c56118f32f62ebd6": {
                "nonce": "0x01",
                "balance": "0x0de0b6b3a7606d78",
                "code": "0x",
                "storage": {}
            },
            "0x86d606901085ba78c64d2e0b16831e6afd89de2d": {
                "nonce": "0x00",
                "balance": "0x00",
                "code": "0x7386d606901085ba78c64d2e0b16831e6afd89de2d317386d606901085ba78c64d2e0b16831e6afd89de2d311a60005500",
                "storage": {}
            }
        },
        "lastblockhash": "0x2e431b436547e88b78226cf557e2b9fbe58224f01900d64ffaff7b6c2a5cebc9",
        "config": {
            "network": "Cancun",
            "chainid": "0x01",
            "blobSchedule": {
                "Cancun": {
                    "target": "0x03",
                    "max": "0x06",
                    "baseFeeUpdateFraction": "0x32f0ed"
                }
            }
        },
        "genesisRLP": "0xf9023bf90235a00000000000000000000000000000000000000000000000000000000000000000a01dcc4de8dec75d7aab85b567b6ccd41ad312451b948a7413f0a142fd40d49347940000000000000000000000000000000000000000a00626535fbead42062c54541dc5803150c7d51735f9bf6c3541041eb3f2cea25da056e81f171bcc55a6ff8345e692c0f86e5b48e01b996cadc001622fb5e363b421a056e81f171bcc55a6ff8345e692c0f86e5b48e01b996cadc001622fb5e363b421b90100000000000000000000000000000000000000000000000000000000000000000000000000000000000000000000000000000000000000000000000000000000000000000000000000000000000000000000000000000000000000000000000000000000000000000000000000000000000000000000000000000000000000000000000000000000000000000000000000000000000000000000000000000000000000000000000000000000000000000000000000000000000000000000000000000000000000000000000000000000000000000000000000000000000000000000000000000000000000000000000000000000000000000000000000000000008080830f4240808000a000000000000000000000000000000000000000000000000000000000000000008800000000000000000ba056e81f171bcc55a6ff8345e692c0f86e5b48e01b996cadc001622fb5e363b4218080a00000000000000000000000000000000000000000000000000000000000000000c0c0c0",
        "blocks": [
            {
                "blockHeader": {
                    "parentHash": "0xabb9836a9456c837105cf951168e0b95a909ecc845ba963d55ba9cd1aec877e6",
                    "uncleHash": "0x1dcc4de8dec75d7aab85b567b6ccd41ad312451b948a7413f0a142fd40d49347",
                    "coinbase": "0x2adc25665018aa1fe0e6bc666dac8fc2697ff9ba",
                    "stateRoot": "0xce8ed87edc700a734367b099ea21eb18de446d75bc8cb4030de4501a8db3e747",
                    "transactionsTrie": "0x02ac8a028777ba4c7ab6b52733fab27759b116882a380a6b16a9d336baae4292",
                    "receiptTrie": "0xf0621ae322a578c031606e4b5b88af6962874fdb3e03e610facd98196bd0ad1a",
                    "bloom": "0x00000000000000000000000000000000000000000000000000000000000000000000000000000000000000000000000000000000000000000000000000000000000000000000000000000000000000000000000000000000000000000000000000000000000000000000000000000000000000000000000000000000000000000000000000000000000000000000000000000000000000000000000000000000000000000000000000000000000000000000000000000000000000000000000000000000000000000000000000000000000000000000000000000000000000000000000000000000000000000000000000000000000000000000000000000000",
                    "difficulty": "0x00",
                    "number": "0x01",
                    "gasLimit": "0x0f4240",
                    "gasUsed": "0x5b74",
                    "timestamp": "0x03e8",
                    "extraData": "0x00",
                    "mixHash": "0x0000000000000000000000000000000000000000000000000000000000020000",
                    "nonce": "0x0000000000000000",
                    "baseFeePerGas": "0x0a",
                    "withdrawalsRoot": "0x56e81f171bcc55a6ff8345e692c0f86e5b48e01b996cadc001622fb5e363b421",
                    "blobGasUsed": "0x00",
                    "excessBlobGas": "0x00",
                    "parentBeaconBlockRoot": "0x0000000000000000000000000000000000000000000000000000000000000000",
                    "hash": "0x2e431b436547e88b78226cf557e2b9fbe58224f01900d64ffaff7b6c2a5cebc9"
                },
                "transactions": [
                    {
                        "type": "0x00",
                        "chainId": "0x01",
                        "nonce": "0x00",
                        "gasPrice": "0x0a",
                        "gasLimit": "0x061a80",
                        "to": "0x86d606901085ba78c64d2e0b16831e6afd89de2d",
                        "value": "0x00",
                        "data": "0x",
                        "v": "0x26",
                        "r": "0x8324861091bb7a53ee5f2a93dd08881ddd659e919a71ae333efddbcf700c6129",
                        "s": "0x6febf220cac8570e22f8df59f5b24b326021fddf0d7b77f9aa841547b128b578",
                        "sender": "0xd66f224cbd2fabb21b17bb53c56118f32f62ebd6"
                    }
                ],
                "uncleHeaders": [],
                "withdrawals": [],
                "receipts": [
                    {
                        "transactionHash": "0xf90525d40993b655253ac7950de2d457cb85410160776d142adde9b60c82a629",
                        "type": "0x00",
                        "cumulativeGasUsed": "0x5b74",
                        "bloom": "0x00000000000000000000000000000000000000000000000000000000000000000000000000000000000000000000000000000000000000000000000000000000000000000000000000000000000000000000000000000000000000000000000000000000000000000000000000000000000000000000000000000000000000000000000000000000000000000000000000000000000000000000000000000000000000000000000000000000000000000000000000000000000000000000000000000000000000000000000000000000000000000000000000000000000000000000000000000000000000000000000000000000000000000000000000000000",
                        "logs": [],
                        "status": true,
                        "rlp": "0xf9010801825b74b9010000000000000000000000000000000000000000000000000000000000000000000000000000000000000000000000000000000000000000000000000000000000000000000000000000000000000000000000000000000000000000000000000000000000000000000000000000000000000000000000000000000000000000000000000000000000000000000000000000000000000000000000000000000000000000000000000000000000000000000000000000000000000000000000000000000000000000000000000000000000000000000000000000000000000000000000000000000000000000000000000000000000000000000000000000000000c0"
                    }
                ],
                "rlp": "0xf902a2f90239a0abb9836a9456c837105cf951168e0b95a909ecc845ba963d55ba9cd1aec877e6a01dcc4de8dec75d7aab85b567b6ccd41ad312451b948a7413f0a142fd40d49347942adc25665018aa1fe0e6bc666dac8fc2697ff9baa0ce8ed87edc700a734367b099ea21eb18de446d75bc8cb4030de4501a8db3e747a002ac8a028777ba4c7ab6b52733fab27759b116882a380a6b16a9d336baae4292a0f0621ae322a578c031606e4b5b88af6962874fdb3e03e610facd98196bd0ad1ab90100000000000000000000000000000000000000000000000000000000000000000000000000000000000000000000000000000000000000000000000000000000000000000000000000000000000000000000000000000000000000000000000000000000000000000000000000000000000000000000000000000000000000000000000000000000000000000000000000000000000000000000000000000000000000000000000000000000000000000000000000000000000000000000000000000000000000000000000000000000000000000000000000000000000000000000000000000000000000000000000000000000000000000000000000000000008001830f4240825b748203e800a000000000000000000000000000000000000000000000000000000000000200008800000000000000000aa056e81f171bcc55a6ff8345e692c0f86e5b48e01b996cadc001622fb5e363b4218080a00000000000000000000000000000000000000000000000000000000000000000f862f860800a83061a809486d606901085ba78c64d2e0b16831e6afd89de2d808026a08324861091bb7a53ee5f2a93dd08881ddd659e919a71ae333efddbcf700c6129a06febf220cac8570e22f8df59f5b24b326021fddf0d7b77f9aa841547b128b578c0c0",
                "blocknumber": "1"
            }
        ],
        "sealEngine": "NoProof",
        "_info": {
            "hash": "0x82858c82a451376d92260dac2b5bdfba02633570192934e3189203b125915c0f",
            "fixture-format": "blockchain_test",
            "comment": "`execution-specs` generated test",
            "filling-transition-tool": "2.19.0",
            "description": "Test_byte_non_const.",
            "url": "https://github.com/ethereum/execution-specs/blob/tests-snobal-devnet-5@v8037.0.0/tests/ported_static/stArgsZeroOneBalance/test_byte_non_const.py#L28",
            "metadata": {
                "opcode_count": {}
            }
        }
    },
    "tests/ported_static/stArgsZeroOneBalance/test_byte_non_const.py::test_byte_non_const[fork_Cancun-blockchain_test_from_state_test--v1]": {
        "network": "Cancun",
        "genesisBlockHeader": {
            "parentHash": "0x0000000000000000000000000000000000000000000000000000000000000000",
            "uncleHash": "0x1dcc4de8dec75d7aab85b567b6ccd41ad312451b948a7413f0a142fd40d49347",
            "coinbase": "0x0000000000000000000000000000000000000000",
            "stateRoot": "0x0626535fbead42062c54541dc5803150c7d51735f9bf6c3541041eb3f2cea25d",
            "transactionsTrie": "0x56e81f171bcc55a6ff8345e692c0f86e5b48e01b996cadc001622fb5e363b421",
            "receiptTrie": "0x56e81f171bcc55a6ff8345e692c0f86e5b48e01b996cadc001622fb5e363b421",
            "bloom": "0x00000000000000000000000000000000000000000000000000000000000000000000000000000000000000000000000000000000000000000000000000000000000000000000000000000000000000000000000000000000000000000000000000000000000000000000000000000000000000000000000000000000000000000000000000000000000000000000000000000000000000000000000000000000000000000000000000000000000000000000000000000000000000000000000000000000000000000000000000000000000000000000000000000000000000000000000000000000000000000000000000000000000000000000000000000000",
            "difficulty": "0x00",
            "number": "0x00",
            "gasLimit": "0x0f4240",
            "gasUsed": "0x00",
            "timestamp": "0x00",
            "extraData": "0x00",
            "mixHash": "0x0000000000000000000000000000000000000000000000000000000000000000",
            "nonce": "0x0000000000000000",
            "baseFeePerGas": "0x0b",
            "withdrawalsRoot": "0x56e81f171bcc55a6ff8345e692c0f86e5b48e01b996cadc001622fb5e363b421",
            "blobGasUsed": "0x00",
            "excessBlobGas": "0x00",
            "parentBeaconBlockRoot": "0x0000000000000000000000000000000000000000000000000000000000000000",
            "hash": "0xabb9836a9456c837105cf951168e0b95a909ecc845ba963d55ba9cd1aec877e6"
        },
        "pre": {
            "0x000f3df6d732807ef1319fb7b8bb8522d0beac02": {
                "nonce": "0x01",
                "balance": "0x00",
                "code": "0x3373fffffffffffffffffffffffffffffffffffffffe14604d57602036146024575f5ffd5b5f35801560495762001fff810690815414603c575f5ffd5b62001fff01545f5260205ff35b5f5ffd5b62001fff42064281555f359062001fff015500",
                "storage": {}
            },
            "0xd66f224cbd2fabb21b17bb53c56118f32f62ebd6": {
                "nonce": "0x00",
                "balance": "0x0de0b6b3a7640000",
                "code": "0x",
                "storage": {}
            },
            "0x86d606901085ba78c64d2e0b16831e6afd89de2d": {
                "nonce": "0x00",
                "balance": "0x00",
                "code": "0x7386d606901085ba78c64d2e0b16831e6afd89de2d317386d606901085ba78c64d2e0b16831e6afd89de2d311a60005500",
                "storage": {}
            }
        },
        "postState": {
            "0x000f3df6d732807ef1319fb7b8bb8522d0beac02": {
                "nonce": "0x01",
                "balance": "0x00",
                "code": "0x3373fffffffffffffffffffffffffffffffffffffffe14604d57602036146024575f5ffd5b5f35801560495762001fff810690815414603c575f5ffd5b62001fff01545f5260205ff35b5f5ffd5b62001fff42064281555f359062001fff015500",
                "storage": {
                    "0x03e8": "0x03e8"
                }
            },
            "0xd66f224cbd2fabb21b17bb53c56118f32f62ebd6": {
                "nonce": "0x01",
                "balance": "0x0de0b6b3a7606d77",
                "code": "0x",
                "storage": {}
            },
            "0x86d606901085ba78c64d2e0b16831e6afd89de2d": {
                "nonce": "0x00",
                "balance": "0x01",
                "code": "0x7386d606901085ba78c64d2e0b16831e6afd89de2d317386d606901085ba78c64d2e0b16831e6afd89de2d311a60005500",
                "storage": {}
            }
        },
        "lastblockhash": "0xc1069015e01a26f9083c5934963613cc2e0b28c39d01edad6894a0b51bbcf505",
        "config": {
            "network": "Cancun",
            "chainid": "0x01",
            "blobSchedule": {
                "Cancun": {
                    "target": "0x03",
                    "max": "0x06",
                    "baseFeeUpdateFraction": "0x32f0ed"
                }
            }
        },
        "genesisRLP": "0xf9023bf90235a00000000000000000000000000000000000000000000000000000000000000000a01dcc4de8dec75d7aab85b567b6ccd41ad312451b948a7413f0a142fd40d49347940000000000000000000000000000000000000000a00626535fbead42062c54541dc5803150c7d51735f9bf6c3541041eb3f2cea25da056e81f171bcc55a6ff8345e692c0f86e5b48e01b996cadc001622fb5e363b421a056e81f171bcc55a6ff8345e692c0f86e5b48e01b996cadc001622fb5e363b421b90100000000000000000000000000000000000000000000000000000000000000000000000000000000000000000000000000000000000000000000000000000000000000000000000000000000000000000000000000000000000000000000000000000000000000000000000000000000000000000000000000000000000000000000000000000000000000000000000000000000000000000000000000000000000000000000000000000000000000000000000000000000000000000000000000000000000000000000000000000000000000000000000000000000000000000000000000000000000000000000000000000000000000000000000000000000008080830f4240808000a000000000000000000000000000000000000000000000000000000000000000008800000000000000000ba056e81f171bcc55a6ff8345e692c0f86e5b48e01b996cadc001622fb5e363b4218080a00000000000000000000000000000000000000000000000000000000000000000c0c0c0",
        "blocks": [
            {
                "blockHeader": {
                    "parentHash": "0xabb9836a9456c837105cf951168e0b95a909ecc845ba963d55ba9cd1aec877e6",
                    "uncleHash": "0x1dcc4de8dec75d7aab85b567b6ccd41ad312451b948a7413f0a142fd40d49347",
                    "coinbase": "0x2adc25665018aa1fe0e6bc666dac8fc2697ff9ba",
                    "stateRoot": "0x05358400b5aefdddf81219455d941ebf08bcabe66a32c3372b8307fb8e42307e",
                    "transactionsTrie": "0x69ef5f3c6e8394d41fa10161557cdc980d1f0901b76ae8d63c07386a1c62d1db",
                    "receiptTrie": "0xf0621ae322a578c031606e4b5b88af6962874fdb3e03e610facd98196bd0ad1a",
                    "bloom": "0x00000000000000000000000000000000000000000000000000000000000000000000000000000000000000000000000000000000000000000000000000000000000000000000000000000000000000000000000000000000000000000000000000000000000000000000000000000000000000000000000000000000000000000000000000000000000000000000000000000000000000000000000000000000000000000000000000000000000000000000000000000000000000000000000000000000000000000000000000000000000000000000000000000000000000000000000000000000000000000000000000000000000000000000000000000000",
                    "difficulty": "0x00",
                    "number": "0x01",
                    "gasLimit": "0x0f4240",
                    "gasUsed": "0x5b74",
                    "timestamp": "0x03e8",
                    "extraData": "0x00",
                    "mixHash": "0x0000000000000000000000000000000000000000000000000000000000020000",
                    "nonce": "0x0000000000000000",
                    "baseFeePerGas": "0x0a",
                    "withdrawalsRoot": "0x56e81f171bcc55a6ff8345e692c0f86e5b48e01b996cadc001622fb5e363b421",
                    "blobGasUsed": "0x00",
                    "excessBlobGas": "0x00",
                    "parentBeaconBlockRoot": "0x0000000000000000000000000000000000000000000000000000000000000000",
                    "hash": "0xc1069015e01a26f9083c5934963613cc2e0b28c39d01edad6894a0b51bbcf505"
                },
                "transactions": [
                    {
                        "type": "0x00",
                        "chainId": "0x01",
                        "nonce": "0x00",
                        "gasPrice": "0x0a",
                        "gasLimit": "0x061a80",
                        "to": "0x86d606901085ba78c64d2e0b16831e6afd89de2d",
                        "value": "0x01",
                        "data": "0x",
                        "v": "0x25",
                        "r": "0x1111a6148e6901b54771c673f50eb6cdb6b0178739ce97708816f80275ff3c8a",
                        "s": "0x7dc726b00487d7f960bdc51be05cd9a72692aa0f813c84ee94ac29a5fb892303",
                        "sender": "0xd66f224cbd2fabb21b17bb53c56118f32f62ebd6"
                    }
                ],
                "uncleHeaders": [],
                "withdrawals": [],
                "receipts": [
                    {
                        "transactionHash": "0x17f7a38704c82078e16f6cfd86917c1c1260a8cdd515e429a909699c73c44800",
                        "type": "0x00",
                        "cumulativeGasUsed": "0x5b74",
                        "bloom": "0x00000000000000000000000000000000000000000000000000000000000000000000000000000000000000000000000000000000000000000000000000000000000000000000000000000000000000000000000000000000000000000000000000000000000000000000000000000000000000000000000000000000000000000000000000000000000000000000000000000000000000000000000000000000000000000000000000000000000000000000000000000000000000000000000000000000000000000000000000000000000000000000000000000000000000000000000000000000000000000000000000000000000000000000000000000000",
                        "logs": [],
                        "status": true,
                        "rlp": "0xf9010801825b74b9010000000000000000000000000000000000000000000000000000000000000000000000000000000000000000000000000000000000000000000000000000000000000000000000000000000000000000000000000000000000000000000000000000000000000000000000000000000000000000000000000000000000000000000000000000000000000000000000000000000000000000000000000000000000000000000000000000000000000000000000000000000000000000000000000000000000000000000000000000000000000000000000000000000000000000000000000000000000000000000000000000000000000000000000000000000000c0"
                    }
                ],
                "rlp": "0xf902a2f90239a0abb9836a9456c837105cf951168e0b95a909ecc845ba963d55ba9cd1aec877e6a01dcc4de8dec75d7aab85b567b6ccd41ad312451b948a7413f0a142fd40d49347942adc25665018aa1fe0e6bc666dac8fc2697ff9baa005358400b5aefdddf81219455d941ebf08bcabe66a32c3372b8307fb8e42307ea069ef5f3c6e8394d41fa10161557cdc980d1f0901b76ae8d63c07386a1c62d1dba0f0621ae322a578c031606e4b5b88af6962874fdb3e03e610facd98196bd0ad1ab90100000000000000000000000000000000000000000000000000000000000000000000000000000000000000000000000000000000000000000000000000000000000000000000000000000000000000000000000000000000000000000000000000000000000000000000000000000000000000000000000000000000000000000000000000000000000000000000000000000000000000000000000000000000000000000000000000000000000000000000000000000000000000000000000000000000000000000000000000000000000000000000000000000000000000000000000000000000000000000000000000000000000000000000000000000000008001830f4240825b748203e800a000000000000000000000000000000000000000000000000000000000000200008800000000000000000aa056e81f171bcc55a6ff8345e692c0f86e5b48e01b996cadc001622fb5e363b4218080a00000000000000000000000000000000000000000000000000000000000000000f862f860800a83061a809486d606901085ba78c64d2e0b16831e6afd89de2d018025a01111a6148e6901b54771c673f50eb6cdb6b0178739ce97708816f80275ff3c8aa07dc726b00487d7f960bdc51be05cd9a72692aa0f813c84ee94ac29a5fb892303c0c0",
                "blocknumber": "1"
            }
        ],
        "sealEngine": "NoProof",
        "_info": {
            "hash": "0x45c18f82c65e650129e16320b71bf21e8b4328060008df14dea6a73c3705da80",
            "fixture-format": "blockchain_test",
            "comment": "`execution-specs` generated test",
            "filling-transition-tool": "2.19.0",
            "description": "Test_byte_non_const.",
            "url": "https://github.com/ethereum/execution-specs/blob/tests-snobal-devnet-5@v8037.0.0/tests/ported_static/stArgsZeroOneBalance/test_byte_non_const.py#L28",
            "metadata": {
                "opcode_count": {}
            }
        }
    }
}