{
    "tests/static/state_tests/stExtCodeHash/extCodeHashDeletedAccount1CancunFiller.yml::extCodeHashDeletedAccount1Cancun[fork_Cancun-state_test-]": {
        "env": {
            "currentCoinbase": "0x2adc25665018aa1fe0e6bc666dac8fc2697ff9ba",
            "currentGasLimit": "0x0f4240",
            "currentNumber": "0x01",
            "currentTimestamp": "0x03e8",
            "currentRandom": "0x0000000000000000000000000000000000000000000000000000000000020000",
            "currentDifficulty": "0x00",
            "currentBaseFee": "0x0a",
            "currentExcessBlobGas": "0x00"
        },
        "pre": {
            "0x095e7baea6a6c7c4c2dfeb977efac326af552d87": {
                "nonce": "0x00",
                "balance": "0x1bc16d674ec80000",
                "code": "0x604a80603b6000396000670de0b6b3a7640000f0506020600060006000600073bbbbbbbb000000000000000000000000000000006203f7a0f100fe6000600060006000600073cccccccc00000000000000000000000000000000620186a0f15060188060326000396000f300fe73deadbeef0000000000000000000000000000000031ff00",
                "storage": {}
            },
            "0xcccccccc00000000000000000000000000000000": {
                "nonce": "0x00",
                "balance": "0x0de0b6b3a7640000",
                "code": "0x600160015500",
                "storage": {}
            },
            "0xaaaaaaaa00000000000000000000000000000000": {
                "nonce": "0x00",
                "balance": "0x0de0b6b3a7640000",
                "code": "0x73deadbeef0000000000000000000000000000000031ff00",
                "storage": {}
            },
            "0xbbbbbbbb00000000000000000000000000000000": {
                "nonce": "0x00",
                "balance": "0x0de0b6b3a7640000",
                "code": "0x73d2571607e241ecf590ed94b12d87c94babe36db63f60015573d2571607e241ecf590ed94b12d87c94babe36db63b6002556002546000600073d2571607e241ecf590ed94b12d87c94babe36db63c6000516003556020600060006000600073d2571607e241ecf590ed94b12d87c94babe36db6620249f0f15073d2571607e241ecf590ed94b12d87c94babe36db63f60045573d2571607e241ecf590ed94b12d87c94babe36db63b6005556005546000602073d2571607e241ecf590ed94b12d87c94babe36db63c60205160065500",
                "storage": {}
            },
            "0xa94f5374fce5edbc8e2a8697c15331677e6ebf0b": {
                "nonce": "0x00",
                "balance": "0x0de0b6b3a7640000",
                "code": "0x",
                "storage": {}
            }
        },
        "transaction": {
            "nonce": "0x00",
            "gasPrice": "0x0a",
            "gasLimit": [
                "0x061a80"
            ],
            "to": "0x095e7baea6a6c7c4c2dfeb977efac326af552d87",
            "value": [
                "0x01"
            ],
            "data": [
                "0x"
            ],
            "sender": "0xa94f5374fce5edbc8e2a8697c15331677e6ebf0b",
            "secretKey": "0x45a915e4d060149eb4365960e6a7a45f334393093061116b197e3240065ff2d8"
        },
        "post": {
            "Cancun": [
                {
                    "hash": "0x876fafcf955ae32f86e34c78fb79b9c9e38019684c318524b163d098a976b9b9",
                    "logs": "0x1dcc4de8dec75d7aab85b567b6ccd41ad312451b948a7413f0a142fd40d49347",
                    "txbytes": "0xf860800a83061a8094095e7baea6a6c7c4c2dfeb977efac326af552d87018026a0f9968431ac1f14898a94910cfa844aa4efdd0d865620d1cc829fab81eeae2a4ba03016c0c04b1dcaebda70636115cca22a07460e2577297af37186247ac10f9051",
                    "indexes": {
                        "data": 0,
                        "gas": 0,
                        "value": 0
                    },
                    "state": {
                        "0x095e7baea6a6c7c4c2dfeb977efac326af552d87": {
                            "nonce": "0x01",
                            "balance": "0x0de0b6b3a7640001",
                            "code": "0x604a80603b6000396000670de0b6b3a7640000f0506020600060006000600073bbbbbbbb000000000000000000000000000000006203f7a0f100fe6000600060006000600073cccccccc00000000000000000000000000000000620186a0f15060188060326000396000f300fe73deadbeef0000000000000000000000000000000031ff00",
                            "storage": {}
                        },
                        "0xcccccccc00000000000000000000000000000000": {
                            "nonce": "0x00",
                            "balance": "0x0de0b6b3a7640000",
                            "code": "0x600160015500",
                            "storage": {
                                "0x01": "0x01"
                            }
                        },
                        "0xaaaaaaaa00000000000000000000000000000000": {
                            "nonce": "0x00",
                            "balance": "0x0de0b6b3a7640000",
                            "code": "0x73deadbeef0000000000000000000000000000000031ff00",
                            "storage": {}
                        },
                        "0xbbbbbbbb00000000000000000000000000000000": {
                            "nonce": "0x00",
                            "balance": "0x0de0b6b3a7640000",
                            "code": "0x73d2571607e241ecf590ed94b12d87c94babe36db63f60015573d2571607e241ecf590ed94b12d87c94babe36db63b6002556002546000600073d2571607e241ecf590ed94b12d87c94babe36db63c6000516003556020600060006000600073d2571607e241ecf590ed94b12d87c94babe36db6620249f0f15073d2571607e241ecf590ed94b12d87c94babe36db63f60045573d2571607e241ecf590ed94b12d87c94babe36db63b6005556005546000602073d2571607e241ecf590ed94b12d87c94babe36db63c60205160065500",
                            "storage": {
                                "0x01": "0x94e08c34847a4e52a3e523b70a5d9b2151155bd0bc10f7b7c550bda63229c756",
                                "0x02": "0x18",
                                "0x03": "0x73deadbeef0000000000000000000000000000000031ff000000000000000000",
                                "0x04": "0x94e08c34847a4e52a3e523b70a5d9b2151155bd0bc10f7b7c550bda63229c756",
                                "0x05": "0x18",
                                "0x06": "0x73deadbeef0000000000000000000000000000000031ff000000000000000000"
                            }
                        },
                        "0xa94f5374fce5edbc8e2a8697c15331677e6ebf0b": {
                            "nonce": "0x01",
                            "balance": "0x0de0b6b3a73d3d25",
                            "code": "0x",
                            "storage": {}
                        },
                        "0x0000000000000000000000000000000000000000": {
                            "nonce": "0x00",
                            "balance": "0x0de0b6b3a7640000",
                            "code": "0x",
                            "storage": {}
                        }
                    }
                }
            ]
        },
        "config": {
            "blobSchedule": {
                "Cancun": {
                    "target": "0x03",
                    "max": "0x06",
                    "baseFeeUpdateFraction": "0x32f0ed"
                }
            },
            "chainid": "0x01"
        },
        "_info": {
            "hash": "0x846f9bf37f42e623f1b29e9e66f00f9c03ae6efee69e0585e0e0b37f5144c349",
            "comment": "`execution-spec-tests` generated test",
            "filling-transition-tool": "ethereum-spec-evm-resolver 0.0.5",
            "description": "No description available - add a docstring to the python test class or function.",
            "url": "",
            "fixture-format": "state_test",
            "eels-resolution": {
                "git-url": "https://github.com/ethereum/execution-specs.git",
                "branch": "forks/bpos",
                "commit": "7aacb2c54111391af5e98c505d5010b5698a770f"
            }
        }
    },
    "tests/static/state_tests/stExtCodeHash/extCodeHashDeletedAccount1CancunFiller.yml::extCodeHashDeletedAccount1Cancun[fork_Osaka-state_test-]": {
        "env": {
            "currentCoinbase": "0x2adc25665018aa1fe0e6bc666dac8fc2697ff9ba",
            "currentGasLimit": "0x0f4240",
            "currentNumber": "0x01",
            "currentTimestamp": "0x03e8",
            "currentRandom": "0x0000000000000000000000000000000000000000000000000000000000020000",
            "currentDifficulty": "0x00",
            "currentBaseFee": "0x0a",
            "currentExcessBlobGas": "0x00"
        },
        "pre": {
            "0x095e7baea6a6c7c4c2dfeb977efac326af552d87": {
                "nonce": "0x00",
                "balance": "0x1bc16d674ec80000",
                "code": "0x604a80603b6000396000670de0b6b3a7640000f0506020600060006000600073bbbbbbbb000000000000000000000000000000006203f7a0f100fe6000600060006000600073cccccccc00000000000000000000000000000000620186a0f15060188060326000396000f300fe73deadbeef0000000000000000000000000000000031ff00",
                "storage": {}
            },
            "0xcccccccc00000000000000000000000000000000": {
                "nonce": "0x00",
                "balance": "0x0de0b6b3a7640000",
                "code": "0x600160015500",
                "storage": {}
            },
            "0xaaaaaaaa00000000000000000000000000000000": {
                "nonce": "0x00",
                "balance": "0x0de0b6b3a7640000",
                "code": "0x73deadbeef0000000000000000000000000000000031ff00",
                "storage": {}
            },
            "0xbbbbbbbb00000000000000000000000000000000": {
                "nonce": "0x00",
                "balance": "0x0de0b6b3a7640000",
                "code": "0x73d2571607e241ecf590ed94b12d87c94babe36db63f60015573d2571607e241ecf590ed94b12d87c94babe36db63b6002556002546000600073d2571607e241ecf590ed94b12d87c94babe36db63c6000516003556020600060006000600073d2571607e241ecf590ed94b12d87c94babe36db6620249f0f15073d2571607e241ecf590ed94b12d87c94babe36db63f60045573d2571607e241ecf590ed94b12d87c94babe36db63b6005556005546000602073d2571607e241ecf590ed94b12d87c94babe36db63c60205160065500",
                "storage": {}
            },
            "0xa94f5374fce5edbc8e2a8697c15331677e6ebf0b": {
                "nonce": "0x00",
                "balance": "0x0de0b6b3a7640000",
                "code": "0x",
                "storage": {}
            }
        },
        "transaction": {
            "nonce": "0x00",
            "gasPrice": "0x0a",
            "gasLimit": [
                "0x061a80"
            ],
            "to": "0x095e7baea6a6c7c4c2dfeb977efac326af552d87",
            "value": [
                "0x01"
            ],
            "data": [
                "0x"
            ],
            "sender": "0xa94f5374fce5edbc8e2a8697c15331677e6ebf0b",
            "secretKey": "0x45a915e4d060149eb4365960e6a7a45f334393093061116b197e3240065ff2d8"
        },
        "post": {
            "Osaka": [
                {
                    "hash": "0x876fafcf955ae32f86e34c78fb79b9c9e38019684c318524b163d098a976b9b9",
                    "logs": "0x1dcc4de8dec75d7aab85b567b6ccd41ad312451b948a7413f0a142fd40d49347",
                    "txbytes": "0xf860800a83061a8094095e7baea6a6c7c4c2dfeb977efac326af552d87018026a0f9968431ac1f14898a94910cfa844aa4efdd0d865620d1cc829fab81eeae2a4ba03016c0c04b1dcaebda70636115cca22a07460e2577297af37186247ac10f9051",
                    "indexes": {
                        "data": 0,
                        "gas": 0,
                        "value": 0
                    },
                    "state": {
                        "0x095e7baea6a6c7c4c2dfeb977efac326af552d87": {
                            "nonce": "0x01",
                            "balance": "0x0de0b6b3a7640001",
                            "code": "0x604a80603b6000396000670de0b6b3a7640000f0506020600060006000600073bbbbbbbb000000000000000000000000000000006203f7a0f100fe6000600060006000600073cccccccc00000000000000000000000000000000620186a0f15060188060326000396000f300fe73deadbeef0000000000000000000000000000000031ff00",
                            "storage": {}
                        },
                        "0xcccccccc00000000000000000000000000000000": {
                            "nonce": "0x00",
                            "balance": "0x0de0b6b3a7640000",
                            "code": "0x600160015500",
                            "storage": {
                                "0x01": "0x01"
                            }
                        },
                        "0xaaaaaaaa00000000000000000000000000000000": {
                            "nonce": "0x00",
                            "balance": "0x0de0b6b3a7640000",
                            "code": "0x73deadbeef0000000000000000000000000000000031ff00",
                            "storage": {}
                        },
                        "0xbbbbbbbb00000000000000000000000000000000": {
                            "nonce": "0x00",
                            "balance": "0x0de0b6b3a7640000",
                            "code": "0x73d2571607e241ecf590ed94b12d87c94babe36db63f60015573d2571607e241ecf590ed94b12d87c94babe36db63b6002556002546000600073d2571607e241ecf590ed94b12d87c94babe36db63c6000516003556020600060006000600073d2571607e241ecf590ed94b12d87c94babe36db6620249f0f15073d2571607e241ecf590ed94b12d87c94babe36db63f60045573d2571607e241ecf590ed94b12d87c94babe36db63b6005556005546000602073d2571607e241ecf590ed94b12d87c94babe36db63c60205160065500",
                            "storage": {
                                "0x01": "0x94e08c34847a4e52a3e523b70a5d9b2151155bd0bc10f7b7c550bda63229c756",
                                "0x02": "0x18",
                                "0x03": "0x73deadbeef0000000000000000000000000000000031ff000000000000000000",
                                "0x04": "0x94e08c34847a4e52a3e523b70a5d9b2151155bd0bc10f7b7c550bda63229c756",
                                "0x05": "0x18",
                                "0x06": "0x73deadbeef0000000000000000000000000000000031ff000000000000000000"
                            }
                        },
                        "0xa94f5374fce5edbc8e2a8697c15331677e6ebf0b": {
                            "nonce": "0x01",
                            "balance": "0x0de0b6b3a73d3d25",
                            "code": "0x",
                            "storage": {}
                        },
                        "0x0000000000000000000000000000000000000000": {
                            "nonce": "0x00",
                            "balance": "0x0de0b6b3a7640000",
                            "code": "0x",
                            "storage": {}
                        }
                    }
                }
            ]
        },
        "config": {
            "blobSchedule": {
                "Cancun": {
                    "target": "0x03",
                    "max": "0x06",
                    "baseFeeUpdateFraction": "0x32f0ed"
                },
                "Prague": {
                    "target": "0x06",
                    "max": "0x09",
                    "baseFeeUpdateFraction": "0x4c6964"
                },
                "Osaka": {
                    "target": "0x06",
                    "max": "0x09",
                    "baseFeeUpdateFraction": "0x4c6964"
                }
            },
            "chainid": "0x01"
        },
        "_info": {
            "hash": "0xc40b257e40ed0f587009dafc90ce03744431683e53bbb7c2d2d9a3cc4f3dd8cc",
            "comment": "`execution-spec-tests` generated test",
            "filling-transition-tool": "ethereum-spec-evm-resolver 0.0.5",
            "description": "No description available - add a docstring to the python test class or function.",
            "url": "",
            "fixture-format": "state_test",
            "eels-resolution": {
                "git-url": "https://github.com/ethereum/execution-specs.git",
                "branch": "forks/bpos",
                "commit": "7aacb2c54111391af5e98c505d5010b5698a770f"
            }
        }
    },
    "tests/static/state_tests/stExtCodeHash/extCodeHashDeletedAccount1CancunFiller.yml::extCodeHashDeletedAccount1Cancun[fork_Prague-state_test-]": {
        "env": {
            "currentCoinbase": "0x2adc25665018aa1fe0e6bc666dac8fc2697ff9ba",
            "currentGasLimit": "0x0f4240",
            "currentNumber": "0x01",
            "currentTimestamp": "0x03e8",
            "currentRandom": "0x0000000000000000000000000000000000000000000000000000000000020000",
            "currentDifficulty": "0x00",
            "currentBaseFee": "0x0a",
            "currentExcessBlobGas": "0x00"
        },
        "pre": {
            "0x095e7baea6a6c7c4c2dfeb977efac326af552d87": {
                "nonce": "0x00",
                "balance": "0x1bc16d674ec80000",
                "code": "0x604a80603b6000396000670de0b6b3a7640000f0506020600060006000600073bbbbbbbb000000000000000000000000000000006203f7a0f100fe6000600060006000600073cccccccc00000000000000000000000000000000620186a0f15060188060326000396000f300fe73deadbeef0000000000000000000000000000000031ff00",
                "storage": {}
            },
            "0xcccccccc00000000000000000000000000000000": {
                "nonce": "0x00",
                "balance": "0x0de0b6b3a7640000",
                "code": "0x600160015500",
                "storage": {}
            },
            "0xaaaaaaaa00000000000000000000000000000000": {
                "nonce": "0x00",
                "balance": "0x0de0b6b3a7640000",
                "code": "0x73deadbeef0000000000000000000000000000000031ff00",
                "storage": {}
            },
            "0xbbbbbbbb00000000000000000000000000000000": {
                "nonce": "0x00",
                "balance": "0x0de0b6b3a7640000",
                "code": "0x73d2571607e241ecf590ed94b12d87c94babe36db63f60015573d2571607e241ecf590ed94b12d87c94babe36db63b6002556002546000600073d2571607e241ecf590ed94b12d87c94babe36db63c6000516003556020600060006000600073d2571607e241ecf590ed94b12d87c94babe36db6620249f0f15073d2571607e241ecf590ed94b12d87c94babe36db63f60045573d2571607e241ecf590ed94b12d87c94babe36db63b6005556005546000602073d2571607e241ecf590ed94b12d87c94babe36db63c60205160065500",
                "storage": {}
            },
            "0xa94f5374fce5edbc8e2a8697c15331677e6ebf0b": {
                "nonce": "0x00",
                "balance": "0x0de0b6b3a7640000",
                "code": "0x",
                "storage": {}
            }
        },
        "transaction": {
            "nonce": "0x00",
            "gasPrice": "0x0a",
            "gasLimit": [
                "0x061a80"
            ],
            "to": "0x095e7baea6a6c7c4c2dfeb977efac326af552d87",
            "value": [
                "0x01"
            ],
            "data": [
                "0x"
            ],
            "sender": "0xa94f5374fce5edbc8e2a8697c15331677e6ebf0b",
            "secretKey": "0x45a915e4d060149eb4365960e6a7a45f334393093061116b197e3240065ff2d8"
        },
        "post": {
            "Prague": [
                {
                    "hash": "0x876fafcf955ae32f86e34c78fb79b9c9e38019684c318524b163d098a976b9b9",
                    "logs": "0x1dcc4de8dec75d7aab85b567b6ccd41ad312451b948a7413f0a142fd40d49347",
                    "txbytes": "0xf860800a83061a8094095e7baea6a6c7c4c2dfeb977efac326af552d87018026a0f9968431ac1f14898a94910cfa844aa4efdd0d865620d1cc829fab81eeae2a4ba03016c0c04b1dcaebda70636115cca22a07460e2577297af37186247ac10f9051",
                    "indexes": {
                        "data": 0,
                        "gas": 0,
                        "value": 0
                    },
                    "state": {
                        "0x095e7baea6a6c7c4c2dfeb977efac326af552d87": {
                            "nonce": "0x01",
                            "balance": "0x0de0b6b3a7640001",
                            "code": "0x604a80603b6000396000670de0b6b3a7640000f0506020600060006000600073bbbbbbbb000000000000000000000000000000006203f7a0f100fe6000600060006000600073cccccccc00000000000000000000000000000000620186a0f15060188060326000396000f300fe73deadbeef0000000000000000000000000000000031ff00",
                            "storage": {}
                        },
                        "0xcccccccc00000000000000000000000000000000": {
                            "nonce": "0x00",
                            "balance": "0x0de0b6b3a7640000",
                            "code": "0x600160015500",
                            "storage": {
                                "0x01": "0x01"
                            }
                        },
                        "0xaaaaaaaa00000000000000000000000000000000": {
                            "nonce": "0x00",
                            "balance": "0x0de0b6b3a7640000",
                            "code": "0x73deadbeef0000000000000000000000000000000031ff00",
                            "storage": {}
                        },
                        "0xbbbbbbbb00000000000000000000000000000000": {
                            "nonce": "0x00",
                            "balance": "0x0de0b6b3a7640000",
                            "code": "0x73d2571607e241ecf590ed94b12d87c94babe36db63f60015573d2571607e241ecf590ed94b12d87c94babe36db63b6002556002546000600073d2571607e241ecf590ed94b12d87c94babe36db63c6000516003556020600060006000600073d2571607e241ecf590ed94b12d87c94babe36db6620249f0f15073d2571607e241ecf590ed94b12d87c94babe36db63f60045573d2571607e241ecf590ed94b12d87c94babe36db63b6005556005546000602073d2571607e241ecf590ed94b12d87c94babe36db63c60205160065500",
                            "storage": {
                                "0x01": "0x94e08c34847a4e52a3e523b70a5d9b2151155bd0bc10f7b7c550bda63229c756",
                                "0x02": "0x18",
                                "0x03": "0x73deadbeef0000000000000000000000000000000031ff000000000000000000",
                                "0x04": "0x94e08c34847a4e52a3e523b70a5d9b2151155bd0bc10f7b7c550bda63229c756",
                                "0x05": "0x18",
                                "0x06": "0x73deadbeef0000000000000000000000000000000031ff000000000000000000"
                            }
                        },
                        "0xa94f5374fce5edbc8e2a8697c15331677e6ebf0b": {
                            "nonce": "0x01",
                            "balance": "0x0de0b6b3a73d3d25",
                            "code": "0x",
                            "storage": {}
                        },
                        "0x0000000000000000000000000000000000000000": {
                            "nonce": "0x00",
                            "balance": "0x0de0b6b3a7640000",
                            "code": "0x",
                            "storage": {}
                        }
                    }
                }
            ]
        },
        "config": {
            "blobSchedule": {
                "Cancun": {
                    "target": "0x03",
                    "max": "0x06",
                    "baseFeeUpdateFraction": "0x32f0ed"
                },
                "Prague": {
                    "target": "0x06",
                    "max": "0x09",
                    "baseFeeUpdateFraction": "0x4c6964"
                }
            },
            "chainid": "0x01"
        },
        "_info": {
            "hash": "0x8a0c3dd73e2e2b04d5aeeee73f5b22ce782e6eae331e84e718d242630f725225",
            "comment": "`execution-spec-tests` generated test",
            "filling-transition-tool": "ethereum-spec-evm-resolver 0.0.5",
            "description": "No description available - add a docstring to the python test class or function.",
            "url": "",
            "fixture-format": "state_test",
            "eels-resolution": {
                "git-url": "https://github.com/ethereum/execution-specs.git",
                "branch": "forks/bpos",
                "commit": "7aacb2c54111391af5e98c505d5010b5698a770f"
            }
        }
    }
}