{
    "tests/static/state_tests/stExtCodeHash/extCodeHashDeletedAccountFiller.yml::extCodeHashDeletedAccount[fork_Cancun-state_test-]": {
        "env": {
            "currentCoinbase": "0x2adc25665018aa1fe0e6bc666dac8fc2697ff9ba",
            "currentGasLimit": "0x0f4240",
            "currentNumber": "0x01",
            "currentTimestamp": "0x03e8",
            "currentRandom": "0x0000000000000000000000000000000000000000000000000000000000020000",
            "currentDifficulty": "0x00",
            "currentBaseFee": "0x0a",
            "currentExcessBlobGas": "0x00"
        },
        "pre": {
            "0x095e7baea6a6c7c4c2dfeb977efac326af552d87": {
                "nonce": "0x00",
                "balance": "0x0de0b6b3a7640000",
                "code": "0x6020600060006000600073deadbeef00000000000000000000000000000000620249f0f1506020600060003e6000516000556020600060006000600073deadbeef00000000000000000000000000000001620249f0f1506020600060003e6000516001556020600060006000600073deadbeef00000000000000000000000000000002620249f0f1506020600060003e6000516002556020600060006000600073aaaaaaaa00000000000000000000000000000000620249f0f1506020600060006000600073deadbeef00000000000000000000000000000000620249f0f1506020600060003e6000516003556020600060006000600073deadbeef00000000000000000000000000000001620249f0f1506020600060003e6000516004556020600060006000600073deadbeef00000000000000000000000000000002620249f0f1506020600060003e60005160055500",
                "storage": {}
            },
            "0xaaaaaaaa00000000000000000000000000000000": {
                "nonce": "0x00",
                "balance": "0x0de0b6b3a7640000",
                "code": "0x73deadbeef00000000000000000000000000000000ff00",
                "storage": {}
            },
            "0xdeadbeef00000000000000000000000000000000": {
                "nonce": "0x00",
                "balance": "0x0de0b6b3a7640000",
                "code": "0x73aaaaaaaa000000000000000000000000000000003f60005260206000f300",
                "storage": {}
            },
            "0xdeadbeef00000000000000000000000000000001": {
                "nonce": "0x00",
                "balance": "0x0de0b6b3a7640000",
                "code": "0x73aaaaaaaa000000000000000000000000000000003b60005260206000f300",
                "storage": {}
            },
            "0xdeadbeef00000000000000000000000000000002": {
                "nonce": "0x00",
                "balance": "0x0de0b6b3a7640000",
                "code": "0x73aaaaaaaa000000000000000000000000000000003b6000600073aaaaaaaa000000000000000000000000000000003c60206000f300",
                "storage": {}
            },
            "0xa94f5374fce5edbc8e2a8697c15331677e6ebf0b": {
                "nonce": "0x00",
                "balance": "0x0de0b6b3a7640000",
                "code": "0x",
                "storage": {}
            }
        },
        "transaction": {
            "nonce": "0x00",
            "gasPrice": "0x0a",
            "gasLimit": [
                "0x061a80"
            ],
            "to": "0x095e7baea6a6c7c4c2dfeb977efac326af552d87",
            "value": [
                "0x01"
            ],
            "data": [
                "0x"
            ],
            "sender": "0xa94f5374fce5edbc8e2a8697c15331677e6ebf0b",
            "secretKey": "0x45a915e4d060149eb4365960e6a7a45f334393093061116b197e3240065ff2d8"
        },
        "post": {
            "Cancun": [
                {
                    "hash": "0x0b95c85efca7e6589af3edd72c3e8f7bf4faefed7ac61c5f1be71e5484795278",
                    "logs": "0x1dcc4de8dec75d7aab85b567b6ccd41ad312451b948a7413f0a142fd40d49347",
                    "txbytes": "0xf860800a83061a8094095e7baea6a6c7c4c2dfeb977efac326af552d87018026a0f9968431ac1f14898a94910cfa844aa4efdd0d865620d1cc829fab81eeae2a4ba03016c0c04b1dcaebda70636115cca22a07460e2577297af37186247ac10f9051",
                    "indexes": {
                        "data": 0,
                        "gas": 0,
                        "value": 0
                    },
                    "state": {
                        "0x095e7baea6a6c7c4c2dfeb977efac326af552d87": {
                            "nonce": "0x00",
                            "balance": "0x0de0b6b3a7640001",
                            "code": "0x6020600060006000600073deadbeef00000000000000000000000000000000620249f0f1506020600060003e6000516000556020600060006000600073deadbeef00000000000000000000000000000001620249f0f1506020600060003e6000516001556020600060006000600073deadbeef00000000000000000000000000000002620249f0f1506020600060003e6000516002556020600060006000600073aaaaaaaa00000000000000000000000000000000620249f0f1506020600060006000600073deadbeef00000000000000000000000000000000620249f0f1506020600060003e6000516003556020600060006000600073deadbeef00000000000000000000000000000001620249f0f1506020600060003e6000516004556020600060006000600073deadbeef00000000000000000000000000000002620249f0f1506020600060003e60005160055500",
                            "storage": {
                                "0x00": "0xaa174f6647c45e8a984f39062ca89ccc3588c787d91106cfd57df387bd504efc",
                                "0x01": "0x17",
                                "0x02": "0x73deadbeef00000000000000000000000000000000ff00000000000000000000",
                                "0x03": "0xaa174f6647c45e8a984f39062ca89ccc3588c787d91106cfd57df387bd504efc",
                                "0x04": "0x17",
                                "0x05": "0x73deadbeef00000000000000000000000000000000ff00000000000000000000"
                            }
                        },
                        "0xaaaaaaaa00000000000000000000000000000000": {
                            "nonce": "0x00",
                            "balance": "0x00",
                            "code": "0x73deadbeef00000000000000000000000000000000ff00",
                            "storage": {}
                        },
                        "0xdeadbeef00000000000000000000000000000000": {
                            "nonce": "0x00",
                            "balance": "0x1bc16d674ec80000",
                            "code": "0x73aaaaaaaa000000000000000000000000000000003f60005260206000f300",
                            "storage": {}
                        },
                        "0xdeadbeef00000000000000000000000000000001": {
                            "nonce": "0x00",
                            "balance": "0x0de0b6b3a7640000",
                            "code": "0x73aaaaaaaa000000000000000000000000000000003b60005260206000f300",
                            "storage": {}
                        },
                        "0xdeadbeef00000000000000000000000000000002": {
                            "nonce": "0x00",
                            "balance": "0x0de0b6b3a7640000",
                            "code": "0x73aaaaaaaa000000000000000000000000000000003b6000600073aaaaaaaa000000000000000000000000000000003c60206000f300",
                            "storage": {}
                        },
                        "0xa94f5374fce5edbc8e2a8697c15331677e6ebf0b": {
                            "nonce": "0x01",
                            "balance": "0x0de0b6b3a749faa1",
                            "code": "0x",
                            "storage": {}
                        }
                    }
                }
            ]
        },
        "config": {
            "blobSchedule": {
                "Cancun": {
                    "target": "0x03",
                    "max": "0x06",
                    "baseFeeUpdateFraction": "0x32f0ed"
                }
            },
            "chainid": "0x01"
        },
        "_info": {
            "hash": "0xe87ce18198ab94d6ecdd69aacb07cf26ad5634a03241a14a2bfcf1a854a8c8f2",
            "comment": "`execution-spec-tests` generated test",
            "filling-transition-tool": "ethereum-spec-evm-resolver 0.0.5",
            "description": "No description available - add a docstring to the python test class or function.",
            "url": "",
            "fixture-format": "state_test",
            "eels-resolution": {
                "git-url": "https://github.com/ethereum/execution-specs.git",
                "branch": "forks/bpos",
                "commit": "7aacb2c54111391af5e98c505d5010b5698a770f"
            }
        }
    },
    "tests/static/state_tests/stExtCodeHash/extCodeHashDeletedAccountFiller.yml::extCodeHashDeletedAccount[fork_Osaka-state_test-]": {
        "env": {
            "currentCoinbase": "0x2adc25665018aa1fe0e6bc666dac8fc2697ff9ba",
            "currentGasLimit": "0x0f4240",
            "currentNumber": "0x01",
            "currentTimestamp": "0x03e8",
            "currentRandom": "0x0000000000000000000000000000000000000000000000000000000000020000",
            "currentDifficulty": "0x00",
            "currentBaseFee": "0x0a",
            "currentExcessBlobGas": "0x00"
        },
        "pre": {
            "0x095e7baea6a6c7c4c2dfeb977efac326af552d87": {
                "nonce": "0x00",
                "balance": "0x0de0b6b3a7640000",
                "code": "0x6020600060006000600073deadbeef00000000000000000000000000000000620249f0f1506020600060003e6000516000556020600060006000600073deadbeef00000000000000000000000000000001620249f0f1506020600060003e6000516001556020600060006000600073deadbeef00000000000000000000000000000002620249f0f1506020600060003e6000516002556020600060006000600073aaaaaaaa00000000000000000000000000000000620249f0f1506020600060006000600073deadbeef00000000000000000000000000000000620249f0f1506020600060003e6000516003556020600060006000600073deadbeef00000000000000000000000000000001620249f0f1506020600060003e6000516004556020600060006000600073deadbeef00000000000000000000000000000002620249f0f1506020600060003e60005160055500",
                "storage": {}
            },
            "0xaaaaaaaa00000000000000000000000000000000": {
                "nonce": "0x00",
                "balance": "0x0de0b6b3a7640000",
                "code": "0x73deadbeef00000000000000000000000000000000ff00",
                "storage": {}
            },
            "0xdeadbeef00000000000000000000000000000000": {
                "nonce": "0x00",
                "balance": "0x0de0b6b3a7640000",
                "code": "0x73aaaaaaaa000000000000000000000000000000003f60005260206000f300",
                "storage": {}
            },
            "0xdeadbeef00000000000000000000000000000001": {
                "nonce": "0x00",
                "balance": "0x0de0b6b3a7640000",
                "code": "0x73aaaaaaaa000000000000000000000000000000003b60005260206000f300",
                "storage": {}
            },
            "0xdeadbeef00000000000000000000000000000002": {
                "nonce": "0x00",
                "balance": "0x0de0b6b3a7640000",
                "code": "0x73aaaaaaaa000000000000000000000000000000003b6000600073aaaaaaaa000000000000000000000000000000003c60206000f300",
                "storage": {}
            },
            "0xa94f5374fce5edbc8e2a8697c15331677e6ebf0b": {
                "nonce": "0x00",
                "balance": "0x0de0b6b3a7640000",
                "code": "0x",
                "storage": {}
            }
        },
        "transaction": {
            "nonce": "0x00",
            "gasPrice": "0x0a",
            "gasLimit": [
                "0x061a80"
            ],
            "to": "0x095e7baea6a6c7c4c2dfeb977efac326af552d87",
            "value": [
                "0x01"
            ],
            "data": [
                "0x"
            ],
            "sender": "0xa94f5374fce5edbc8e2a8697c15331677e6ebf0b",
            "secretKey": "0x45a915e4d060149eb4365960e6a7a45f334393093061116b197e3240065ff2d8"
        },
        "post": {
            "Osaka": [
                {
                    "hash": "0x0b95c85efca7e6589af3edd72c3e8f7bf4faefed7ac61c5f1be71e5484795278",
                    "logs": "0x1dcc4de8dec75d7aab85b567b6ccd41ad312451b948a7413f0a142fd40d49347",
                    "txbytes": "0xf860800a83061a8094095e7baea6a6c7c4c2dfeb977efac326af552d87018026a0f9968431ac1f14898a94910cfa844aa4efdd0d865620d1cc829fab81eeae2a4ba03016c0c04b1dcaebda70636115cca22a07460e2577297af37186247ac10f9051",
                    "indexes": {
                        "data": 0,
                        "gas": 0,
                        "value": 0
                    },
                    "state": {
                        "0x095e7baea6a6c7c4c2dfeb977efac326af552d87": {
                            "nonce": "0x00",
                            "balance": "0x0de0b6b3a7640001",
                            "code": "0x6020600060006000600073deadbeef00000000000000000000000000000000620249f0f1506020600060003e6000516000556020600060006000600073deadbeef00000000000000000000000000000001620249f0f1506020600060003e6000516001556020600060006000600073deadbeef00000000000000000000000000000002620249f0f1506020600060003e6000516002556020600060006000600073aaaaaaaa00000000000000000000000000000000620249f0f1506020600060006000600073deadbeef00000000000000000000000000000000620249f0f1506020600060003e6000516003556020600060006000600073deadbeef00000000000000000000000000000001620249f0f1506020600060003e6000516004556020600060006000600073deadbeef00000000000000000000000000000002620249f0f1506020600060003e60005160055500",
                            "storage": {
                                "0x00": "0xaa174f6647c45e8a984f39062ca89ccc3588c787d91106cfd57df387bd504efc",
                                "0x01": "0x17",
                                "0x02": "0x73deadbeef00000000000000000000000000000000ff00000000000000000000",
                                "0x03": "0xaa174f6647c45e8a984f39062ca89ccc3588c787d91106cfd57df387bd504efc",
                                "0x04": "0x17",
                                "0x05": "0x73deadbeef00000000000000000000000000000000ff00000000000000000000"
                            }
                        },
                        "0xaaaaaaaa00000000000000000000000000000000": {
                            "nonce": "0x00",
                            "balance": "0x00",
                            "code": "0x73deadbeef00000000000000000000000000000000ff00",
                            "storage": {}
                        },
                        "0xdeadbeef00000000000000000000000000000000": {
                            "nonce": "0x00",
                            "balance": "0x1bc16d674ec80000",
                            "code": "0x73aaaaaaaa000000000000000000000000000000003f60005260206000f300",
                            "storage": {}
                        },
                        "0xdeadbeef00000000000000000000000000000001": {
                            "nonce": "0x00",
                            "balance": "0x0de0b6b3a7640000",
                            "code": "0x73aaaaaaaa000000000000000000000000000000003b60005260206000f300",
                            "storage": {}
                        },
                        "0xdeadbeef00000000000000000000000000000002": {
                            "nonce": "0x00",
                            "balance": "0x0de0b6b3a7640000",
                            "code": "0x73aaaaaaaa000000000000000000000000000000003b6000600073aaaaaaaa000000000000000000000000000000003c60206000f300",
                            "storage": {}
                        },
                        "0xa94f5374fce5edbc8e2a8697c15331677e6ebf0b": {
                            "nonce": "0x01",
                            "balance": "0x0de0b6b3a749faa1",
                            "code": "0x",
                            "storage": {}
                        }
                    }
                }
            ]
        },
        "config": {
            "blobSchedule": {
                "Cancun": {
                    "target": "0x03",
                    "max": "0x06",
                    "baseFeeUpdateFraction": "0x32f0ed"
                },
                "Prague": {
                    "target": "0x06",
                    "max": "0x09",
                    "baseFeeUpdateFraction": "0x4c6964"
                },
                "Osaka": {
                    "target": "0x06",
                    "max": "0x09",
                    "baseFeeUpdateFraction": "0x4c6964"
                }
            },
            "chainid": "0x01"
        },
        "_info": {
            "hash": "0xea7a457baddc5954d5f4ffb331441073754e80e486430df4c2a0d190cdac2994",
            "comment": "`execution-spec-tests` generated test",
            "filling-transition-tool": "ethereum-spec-evm-resolver 0.0.5",
            "description": "No description available - add a docstring to the python test class or function.",
            "url": "",
            "fixture-format": "state_test",
            "eels-resolution": {
                "git-url": "https://github.com/ethereum/execution-specs.git",
                "branch": "forks/bpos",
                "commit": "7aacb2c54111391af5e98c505d5010b5698a770f"
            }
        }
    },
    "tests/static/state_tests/stExtCodeHash/extCodeHashDeletedAccountFiller.yml::extCodeHashDeletedAccount[fork_Prague-state_test-]": {
        "env": {
            "currentCoinbase": "0x2adc25665018aa1fe0e6bc666dac8fc2697ff9ba",
            "currentGasLimit": "0x0f4240",
            "currentNumber": "0x01",
            "currentTimestamp": "0x03e8",
            "currentRandom": "0x0000000000000000000000000000000000000000000000000000000000020000",
            "currentDifficulty": "0x00",
            "currentBaseFee": "0x0a",
            "currentExcessBlobGas": "0x00"
        },
        "pre": {
            "0x095e7baea6a6c7c4c2dfeb977efac326af552d87": {
                "nonce": "0x00",
                "balance": "0x0de0b6b3a7640000",
                "code": "0x6020600060006000600073deadbeef00000000000000000000000000000000620249f0f1506020600060003e6000516000556020600060006000600073deadbeef00000000000000000000000000000001620249f0f1506020600060003e6000516001556020600060006000600073deadbeef00000000000000000000000000000002620249f0f1506020600060003e6000516002556020600060006000600073aaaaaaaa00000000000000000000000000000000620249f0f1506020600060006000600073deadbeef00000000000000000000000000000000620249f0f1506020600060003e6000516003556020600060006000600073deadbeef00000000000000000000000000000001620249f0f1506020600060003e6000516004556020600060006000600073deadbeef00000000000000000000000000000002620249f0f1506020600060003e60005160055500",
                "storage": {}
            },
            "0xaaaaaaaa00000000000000000000000000000000": {
                "nonce": "0x00",
                "balance": "0x0de0b6b3a7640000",
                "code": "0x73deadbeef00000000000000000000000000000000ff00",
                "storage": {}
            },
            "0xdeadbeef00000000000000000000000000000000": {
                "nonce": "0x00",
                "balance": "0x0de0b6b3a7640000",
                "code": "0x73aaaaaaaa000000000000000000000000000000003f60005260206000f300",
                "storage": {}
            },
            "0xdeadbeef00000000000000000000000000000001": {
                "nonce": "0x00",
                "balance": "0x0de0b6b3a7640000",
                "code": "0x73aaaaaaaa000000000000000000000000000000003b60005260206000f300",
                "storage": {}
            },
            "0xdeadbeef00000000000000000000000000000002": {
                "nonce": "0x00",
                "balance": "0x0de0b6b3a7640000",
                "code": "0x73aaaaaaaa000000000000000000000000000000003b6000600073aaaaaaaa000000000000000000000000000000003c60206000f300",
                "storage": {}
            },
            "0xa94f5374fce5edbc8e2a8697c15331677e6ebf0b": {
                "nonce": "0x00",
                "balance": "0x0de0b6b3a7640000",
                "code": "0x",
                "storage": {}
            }
        },
        "transaction": {
            "nonce": "0x00",
            "gasPrice": "0x0a",
            "gasLimit": [
                "0x061a80"
            ],
            "to": "0x095e7baea6a6c7c4c2dfeb977efac326af552d87",
            "value": [
                "0x01"
            ],
            "data": [
                "0x"
            ],
            "sender": "0xa94f5374fce5edbc8e2a8697c15331677e6ebf0b",
            "secretKey": "0x45a915e4d060149eb4365960e6a7a45f334393093061116b197e3240065ff2d8"
        },
        "post": {
            "Prague": [
                {
                    "hash": "0x0b95c85efca7e6589af3edd72c3e8f7bf4faefed7ac61c5f1be71e5484795278",
                    "logs": "0x1dcc4de8dec75d7aab85b567b6ccd41ad312451b948a7413f0a142fd40d49347",
                    "txbytes": "0xf860800a83061a8094095e7baea6a6c7c4c2dfeb977efac326af552d87018026a0f9968431ac1f14898a94910cfa844aa4efdd0d865620d1cc829fab81eeae2a4ba03016c0c04b1dcaebda70636115cca22a07460e2577297af37186247ac10f9051",
                    "indexes": {
                        "data": 0,
                        "gas": 0,
                        "value": 0
                    },
                    "state": {
                        "0x095e7baea6a6c7c4c2dfeb977efac326af552d87": {
                            "nonce": "0x00",
                            "balance": "0x0de0b6b3a7640001",
                            "code": "0x6020600060006000600073deadbeef00000000000000000000000000000000620249f0f1506020600060003e6000516000556020600060006000600073deadbeef00000000000000000000000000000001620249f0f1506020600060003e6000516001556020600060006000600073deadbeef00000000000000000000000000000002620249f0f1506020600060003e6000516002556020600060006000600073aaaaaaaa00000000000000000000000000000000620249f0f1506020600060006000600073deadbeef00000000000000000000000000000000620249f0f1506020600060003e6000516003556020600060006000600073deadbeef00000000000000000000000000000001620249f0f1506020600060003e6000516004556020600060006000600073deadbeef00000000000000000000000000000002620249f0f1506020600060003e60005160055500",
                            "storage": {
                                "0x00": "0xaa174f6647c45e8a984f39062ca89ccc3588c787d91106cfd57df387bd504efc",
                                "0x01": "0x17",
                                "0x02": "0x73deadbeef00000000000000000000000000000000ff00000000000000000000",
                                "0x03": "0xaa174f6647c45e8a984f39062ca89ccc3588c787d91106cfd57df387bd504efc",
                                "0x04": "0x17",
                                "0x05": "0x73deadbeef00000000000000000000000000000000ff00000000000000000000"
                            }
                        },
                        "0xaaaaaaaa00000000000000000000000000000000": {
                            "nonce": "0x00",
                            "balance": "0x00",
                            "code": "0x73deadbeef00000000000000000000000000000000ff00",
                            "storage": {}
                        },
                        "0xdeadbeef00000000000000000000000000000000": {
                            "nonce": "0x00",
                            "balance": "0x1bc16d674ec80000",
                            "code": "0x73aaaaaaaa000000000000000000000000000000003f60005260206000f300",
                            "storage": {}
                        },
                        "0xdeadbeef00000000000000000000000000000001": {
                            "nonce": "0x00",
                            "balance": "0x0de0b6b3a7640000",
                            "code": "0x73aaaaaaaa000000000000000000000000000000003b60005260206000f300",
                            "storage": {}
                        },
                        "0xdeadbeef00000000000000000000000000000002": {
                            "nonce": "0x00",
                            "balance": "0x0de0b6b3a7640000",
                            "code": "0x73aaaaaaaa000000000000000000000000000000003b6000600073aaaaaaaa000000000000000000000000000000003c60206000f300",
                            "storage": {}
                        },
                        "0xa94f5374fce5edbc8e2a8697c15331677e6ebf0b": {
                            "nonce": "0x01",
                            "balance": "0x0de0b6b3a749faa1",
                            "code": "0x",
                            "storage": {}
                        }
                    }
                }
            ]
        },
        "config": {
            "blobSchedule": {
                "Cancun": {
                    "target": "0x03",
                    "max": "0x06",
                    "baseFeeUpdateFraction": "0x32f0ed"
                },
                "Prague": {
                    "target": "0x06",
                    "max": "0x09",
                    "baseFeeUpdateFraction": "0x4c6964"
                }
            },
            "chainid": "0x01"
        },
        "_info": {
            "hash": "0x637839026c4c3407404c965206325273fd8067ae75be1dbe1002854604ea707e",
            "comment": "`execution-spec-tests` generated test",
            "filling-transition-tool": "ethereum-spec-evm-resolver 0.0.5",
            "description": "No description available - add a docstring to the python test class or function.",
            "url": "",
            "fixture-format": "state_test",
            "eels-resolution": {
                "git-url": "https://github.com/ethereum/execution-specs.git",
                "branch": "forks/bpos",
                "commit": "7aacb2c54111391af5e98c505d5010b5698a770f"
            }
        }
    }
}