{
    "tests/static/state_tests/stExtCodeHash/extCodeHashCreatedAndDeletedAccountRecheckInOuterCallFiller.json::extCodeHashCreatedAndDeletedAccountRecheckInOuterCall[fork_Cancun-state_test-]": {
        "env": {
            "currentCoinbase": "0x2adc25665018aa1fe0e6bc666dac8fc2697ff9ba",
            "currentGasLimit": "0x0f4240",
            "currentNumber": "0x01",
            "currentTimestamp": "0x03e8",
            "currentRandom": "0x0000000000000000000000000000000000000000000000000000000000020000",
            "currentDifficulty": "0x00",
            "currentBaseFee": "0x0a",
            "currentExcessBlobGas": "0x00"
        },
        "pre": {
            "0xa94f5374fce5edbc8e2a8697c15331677e6ebf0b": {
                "nonce": "0x00",
                "balance": "0x0de0b6b3a7640000",
                "code": "0x",
                "storage": {}
            },
            "0xdeadbeef00000000000000000000000000000000": {
                "nonce": "0x00",
                "balance": "0x0de0b6b3a7640000",
                "code": "0x6010601180604460803960806000f56000526000513f6000556000513b6001556000600060006000600060005162010000f1506000513f6002556000513b6003550000fe600480600d6000396000f300fe6000ff00",
                "storage": {}
            },
            "0xdeadbeef00000000000000000000000000000001": {
                "nonce": "0x00",
                "balance": "0x0de0b6b3a7640000",
                "code": "0x6000600060006000600073deadbeef0000000000000000000000000000000062020000f15073123f4c415171383dcf6f3ac6c3b70fe321e11b5e3f60005573123f4c415171383dcf6f3ac6c3b70fe321e11b5e3b6001550000",
                "storage": {}
            }
        },
        "transaction": {
            "nonce": "0x00",
            "gasPrice": "0x0a",
            "gasLimit": [
                "0x061a80"
            ],
            "to": "0xdeadbeef00000000000000000000000000000001",
            "value": [
                "0x01"
            ],
            "data": [
                "0x"
            ],
            "sender": "0xa94f5374fce5edbc8e2a8697c15331677e6ebf0b",
            "secretKey": "0x45a915e4d060149eb4365960e6a7a45f334393093061116b197e3240065ff2d8"
        },
        "post": {
            "Cancun": [
                {
                    "hash": "0x075fce705601ab21d8c3010e613c883c7043a20160d743ee0dfdf489269c7796",
                    "logs": "0x1dcc4de8dec75d7aab85b567b6ccd41ad312451b948a7413f0a142fd40d49347",
                    "txbytes": "0xf860800a83061a8094deadbeef00000000000000000000000000000001018026a0be1c884f37c78f48563ac113a3ffffeb949c0f212c04034e4d9d9f1a2db61dd2a0110be3e6022c74eca68769fdd0fba5fdab8f08e223caf13895900b8c5741030d",
                    "indexes": {
                        "data": 0,
                        "gas": 0,
                        "value": 0
                    },
                    "state": {
                        "0xa94f5374fce5edbc8e2a8697c15331677e6ebf0b": {
                            "nonce": "0x01",
                            "balance": "0x0de0b6b3a745ddef",
                            "code": "0x",
                            "storage": {}
                        },
                        "0xdeadbeef00000000000000000000000000000000": {
                            "nonce": "0x01",
                            "balance": "0x0de0b6b3a7640000",
                            "code": "0x6010601180604460803960806000f56000526000513f6000556000513b6001556000600060006000600060005162010000f1506000513f6002556000513b6003550000fe600480600d6000396000f300fe6000ff00",
                            "storage": {
                                "0x00": "0x73c5f15b1290fd9e66722596c2fa1e1c9341f7acb185530dce0bf0e0fec7dfc6",
                                "0x01": "0x04",
                                "0x02": "0x73c5f15b1290fd9e66722596c2fa1e1c9341f7acb185530dce0bf0e0fec7dfc6",
                                "0x03": "0x04"
                            }
                        },
                        "0xdeadbeef00000000000000000000000000000001": {
                            "nonce": "0x00",
                            "balance": "0x0de0b6b3a7640001",
                            "code": "0x6000600060006000600073deadbeef0000000000000000000000000000000062020000f15073123f4c415171383dcf6f3ac6c3b70fe321e11b5e3f60005573123f4c415171383dcf6f3ac6c3b70fe321e11b5e3b6001550000",
                            "storage": {
                                "0x00": "0x73c5f15b1290fd9e66722596c2fa1e1c9341f7acb185530dce0bf0e0fec7dfc6",
                                "0x01": "0x04"
                            }
                        }
                    }
                }
            ]
        },
        "config": {
            "blobSchedule": {
                "Cancun": {
                    "target": "0x03",
                    "max": "0x06",
                    "baseFeeUpdateFraction": "0x32f0ed"
                }
            },
            "chainid": "0x01"
        },
        "_info": {
            "hash": "0x628c554e29db56f9d9a4bb0d62a9d3524d3dab1af0f56d11b444ed91f8da2f83",
            "comment": "`execution-spec-tests` generated test",
            "filling-transition-tool": "ethereum-spec-evm-resolver 0.0.5",
            "description": "No description available - add a docstring to the python test class or function.",
            "url": "",
            "fixture-format": "state_test",
            "eels-resolution": {
                "git-url": "https://github.com/marioevz/execution-specs.git",
                "branch": "forks/bpo1",
                "commit": "3387e5f4aedfe99becfdc39b444d6371e25e0924"
            }
        }
    },
    "tests/static/state_tests/stExtCodeHash/extCodeHashCreatedAndDeletedAccountRecheckInOuterCallFiller.json::extCodeHashCreatedAndDeletedAccountRecheckInOuterCall[fork_Osaka-state_test-]": {
        "env": {
            "currentCoinbase": "0x2adc25665018aa1fe0e6bc666dac8fc2697ff9ba",
            "currentGasLimit": "0x0f4240",
            "currentNumber": "0x01",
            "currentTimestamp": "0x03e8",
            "currentRandom": "0x0000000000000000000000000000000000000000000000000000000000020000",
            "currentDifficulty": "0x00",
            "currentBaseFee": "0x0a",
            "currentExcessBlobGas": "0x00"
        },
        "pre": {
            "0xa94f5374fce5edbc8e2a8697c15331677e6ebf0b": {
                "nonce": "0x00",
                "balance": "0x0de0b6b3a7640000",
                "code": "0x",
                "storage": {}
            },
            "0xdeadbeef00000000000000000000000000000000": {
                "nonce": "0x00",
                "balance": "0x0de0b6b3a7640000",
                "code": "0x6010601180604460803960806000f56000526000513f6000556000513b6001556000600060006000600060005162010000f1506000513f6002556000513b6003550000fe600480600d6000396000f300fe6000ff00",
                "storage": {}
            },
            "0xdeadbeef00000000000000000000000000000001": {
                "nonce": "0x00",
                "balance": "0x0de0b6b3a7640000",
                "code": "0x6000600060006000600073deadbeef0000000000000000000000000000000062020000f15073123f4c415171383dcf6f3ac6c3b70fe321e11b5e3f60005573123f4c415171383dcf6f3ac6c3b70fe321e11b5e3b6001550000",
                "storage": {}
            }
        },
        "transaction": {
            "nonce": "0x00",
            "gasPrice": "0x0a",
            "gasLimit": [
                "0x061a80"
            ],
            "to": "0xdeadbeef00000000000000000000000000000001",
            "value": [
                "0x01"
            ],
            "data": [
                "0x"
            ],
            "sender": "0xa94f5374fce5edbc8e2a8697c15331677e6ebf0b",
            "secretKey": "0x45a915e4d060149eb4365960e6a7a45f334393093061116b197e3240065ff2d8"
        },
        "post": {
            "Osaka": [
                {
                    "hash": "0x075fce705601ab21d8c3010e613c883c7043a20160d743ee0dfdf489269c7796",
                    "logs": "0x1dcc4de8dec75d7aab85b567b6ccd41ad312451b948a7413f0a142fd40d49347",
                    "txbytes": "0xf860800a83061a8094deadbeef00000000000000000000000000000001018026a0be1c884f37c78f48563ac113a3ffffeb949c0f212c04034e4d9d9f1a2db61dd2a0110be3e6022c74eca68769fdd0fba5fdab8f08e223caf13895900b8c5741030d",
                    "indexes": {
                        "data": 0,
                        "gas": 0,
                        "value": 0
                    },
                    "state": {
                        "0xa94f5374fce5edbc8e2a8697c15331677e6ebf0b": {
                            "nonce": "0x01",
                            "balance": "0x0de0b6b3a745ddef",
                            "code": "0x",
                            "storage": {}
                        },
                        "0xdeadbeef00000000000000000000000000000000": {
                            "nonce": "0x01",
                            "balance": "0x0de0b6b3a7640000",
                            "code": "0x6010601180604460803960806000f56000526000513f6000556000513b6001556000600060006000600060005162010000f1506000513f6002556000513b6003550000fe600480600d6000396000f300fe6000ff00",
                            "storage": {
                                "0x00": "0x73c5f15b1290fd9e66722596c2fa1e1c9341f7acb185530dce0bf0e0fec7dfc6",
                                "0x01": "0x04",
                                "0x02": "0x73c5f15b1290fd9e66722596c2fa1e1c9341f7acb185530dce0bf0e0fec7dfc6",
                                "0x03": "0x04"
                            }
                        },
                        "0xdeadbeef00000000000000000000000000000001": {
                            "nonce": "0x00",
                            "balance": "0x0de0b6b3a7640001",
                            "code": "0x6000600060006000600073deadbeef0000000000000000000000000000000062020000f15073123f4c415171383dcf6f3ac6c3b70fe321e11b5e3f60005573123f4c415171383dcf6f3ac6c3b70fe321e11b5e3b6001550000",
                            "storage": {
                                "0x00": "0x73c5f15b1290fd9e66722596c2fa1e1c9341f7acb185530dce0bf0e0fec7dfc6",
                                "0x01": "0x04"
                            }
                        }
                    }
                }
            ]
        },
        "config": {
            "blobSchedule": {
                "Cancun": {
                    "target": "0x03",
                    "max": "0x06",
                    "baseFeeUpdateFraction": "0x32f0ed"
                },
                "Prague": {
                    "target": "0x06",
                    "max": "0x09",
                    "baseFeeUpdateFraction": "0x4c6964"
                },
                "Osaka": {
                    "target": "0x06",
                    "max": "0x09",
                    "baseFeeUpdateFraction": "0x4c6964"
                }
            },
            "chainid": "0x01"
        },
        "_info": {
            "hash": "0x4911e0101556337814cf9006316fd4540d58cb267fb92f10fd38da6ca123a7ee",
            "comment": "`execution-spec-tests` generated test",
            "filling-transition-tool": "ethereum-spec-evm-resolver 0.0.5",
            "description": "No description available - add a docstring to the python test class or function.",
            "url": "",
            "fixture-format": "state_test",
            "eels-resolution": {
                "git-url": "https://github.com/marioevz/execution-specs.git",
                "branch": "forks/bpo1",
                "commit": "3387e5f4aedfe99becfdc39b444d6371e25e0924"
            }
        }
    },
    "tests/static/state_tests/stExtCodeHash/extCodeHashCreatedAndDeletedAccountRecheckInOuterCallFiller.json::extCodeHashCreatedAndDeletedAccountRecheckInOuterCall[fork_Prague-state_test-]": {
        "env": {
            "currentCoinbase": "0x2adc25665018aa1fe0e6bc666dac8fc2697ff9ba",
            "currentGasLimit": "0x0f4240",
            "currentNumber": "0x01",
            "currentTimestamp": "0x03e8",
            "currentRandom": "0x0000000000000000000000000000000000000000000000000000000000020000",
            "currentDifficulty": "0x00",
            "currentBaseFee": "0x0a",
            "currentExcessBlobGas": "0x00"
        },
        "pre": {
            "0xa94f5374fce5edbc8e2a8697c15331677e6ebf0b": {
                "nonce": "0x00",
                "balance": "0x0de0b6b3a7640000",
                "code": "0x",
                "storage": {}
            },
            "0xdeadbeef00000000000000000000000000000000": {
                "nonce": "0x00",
                "balance": "0x0de0b6b3a7640000",
                "code": "0x6010601180604460803960806000f56000526000513f6000556000513b6001556000600060006000600060005162010000f1506000513f6002556000513b6003550000fe600480600d6000396000f300fe6000ff00",
                "storage": {}
            },
            "0xdeadbeef00000000000000000000000000000001": {
                "nonce": "0x00",
                "balance": "0x0de0b6b3a7640000",
                "code": "0x6000600060006000600073deadbeef0000000000000000000000000000000062020000f15073123f4c415171383dcf6f3ac6c3b70fe321e11b5e3f60005573123f4c415171383dcf6f3ac6c3b70fe321e11b5e3b6001550000",
                "storage": {}
            }
        },
        "transaction": {
            "nonce": "0x00",
            "gasPrice": "0x0a",
            "gasLimit": [
                "0x061a80"
            ],
            "to": "0xdeadbeef00000000000000000000000000000001",
            "value": [
                "0x01"
            ],
            "data": [
                "0x"
            ],
            "sender": "0xa94f5374fce5edbc8e2a8697c15331677e6ebf0b",
            "secretKey": "0x45a915e4d060149eb4365960e6a7a45f334393093061116b197e3240065ff2d8"
        },
        "post": {
            "Prague": [
                {
                    "hash": "0x075fce705601ab21d8c3010e613c883c7043a20160d743ee0dfdf489269c7796",
                    "logs": "0x1dcc4de8dec75d7aab85b567b6ccd41ad312451b948a7413f0a142fd40d49347",
                    "txbytes": "0xf860800a83061a8094deadbeef00000000000000000000000000000001018026a0be1c884f37c78f48563ac113a3ffffeb949c0f212c04034e4d9d9f1a2db61dd2a0110be3e6022c74eca68769fdd0fba5fdab8f08e223caf13895900b8c5741030d",
                    "indexes": {
                        "data": 0,
                        "gas": 0,
                        "value": 0
                    },
                    "state": {
                        "0xa94f5374fce5edbc8e2a8697c15331677e6ebf0b": {
                            "nonce": "0x01",
                            "balance": "0x0de0b6b3a745ddef",
                            "code": "0x",
                            "storage": {}
                        },
                        "0xdeadbeef00000000000000000000000000000000": {
                            "nonce": "0x01",
                            "balance": "0x0de0b6b3a7640000",
                            "code": "0x6010601180604460803960806000f56000526000513f6000556000513b6001556000600060006000600060005162010000f1506000513f6002556000513b6003550000fe600480600d6000396000f300fe6000ff00",
                            "storage": {
                                "0x00": "0x73c5f15b1290fd9e66722596c2fa1e1c9341f7acb185530dce0bf0e0fec7dfc6",
                                "0x01": "0x04",
                                "0x02": "0x73c5f15b1290fd9e66722596c2fa1e1c9341f7acb185530dce0bf0e0fec7dfc6",
                                "0x03": "0x04"
                            }
                        },
                        "0xdeadbeef00000000000000000000000000000001": {
                            "nonce": "0x00",
                            "balance": "0x0de0b6b3a7640001",
                            "code": "0x6000600060006000600073deadbeef0000000000000000000000000000000062020000f15073123f4c415171383dcf6f3ac6c3b70fe321e11b5e3f60005573123f4c415171383dcf6f3ac6c3b70fe321e11b5e3b6001550000",
                            "storage": {
                                "0x00": "0x73c5f15b1290fd9e66722596c2fa1e1c9341f7acb185530dce0bf0e0fec7dfc6",
                                "0x01": "0x04"
                            }
                        }
                    }
                }
            ]
        },
        "config": {
            "blobSchedule": {
                "Cancun": {
                    "target": "0x03",
                    "max": "0x06",
                    "baseFeeUpdateFraction": "0x32f0ed"
                },
                "Prague": {
                    "target": "0x06",
                    "max": "0x09",
                    "baseFeeUpdateFraction": "0x4c6964"
                }
            },
            "chainid": "0x01"
        },
        "_info": {
            "hash": "0x2f7093659d828167c83830c8620533d15cc3fb5cd4b554c39fdb3e28df1c0278",
            "comment": "`execution-spec-tests` generated test",
            "filling-transition-tool": "ethereum-spec-evm-resolver 0.0.5",
            "description": "No description available - add a docstring to the python test class or function.",
            "url": "",
            "fixture-format": "state_test",
            "eels-resolution": {
                "git-url": "https://github.com/marioevz/execution-specs.git",
                "branch": "forks/bpo1",
                "commit": "3387e5f4aedfe99becfdc39b444d6371e25e0924"
            }
        }
    }
}