{
    "tests/static/state_tests/stExtCodeHash/extCodeHashDeletedAccount3Filler.yml::extCodeHashDeletedAccount3[fork_Cancun-state_test-]": {
        "env": {
            "currentCoinbase": "0x2adc25665018aa1fe0e6bc666dac8fc2697ff9ba",
            "currentGasLimit": "0x0f4240",
            "currentNumber": "0x01",
            "currentTimestamp": "0x03e8",
            "currentRandom": "0x0000000000000000000000000000000000000000000000000000000000020000",
            "currentDifficulty": "0x00",
            "currentBaseFee": "0x0a",
            "currentExcessBlobGas": "0x00"
        },
        "pre": {
            "0x095e7baea6a6c7c4c2dfeb977efac326af552d87": {
                "nonce": "0x00",
                "balance": "0x0de0b6b3a7640000",
                "code": "0x6000603d80604060003960006000f56000526000516000556020600060006000600073bbbbbbbb00000000000000000000000000000000620249f0f1500000fe73cccccccc000000000000000000000000000000003b6000526000516000602073cccccccc000000000000000000000000000000003c6000516020f300",
                "storage": {}
            },
            "0xbbbbbbbb00000000000000000000000000000000": {
                "nonce": "0x00",
                "balance": "0x0de0b6b3a7640000",
                "code": "0x73554e36262c0e0ab156397c32444e4a018fe93b183f60015573554e36262c0e0ab156397c32444e4a018fe93b183b6002556002546000600073554e36262c0e0ab156397c32444e4a018fe93b183c6000516003556020600060006000600073554e36262c0e0ab156397c32444e4a018fe93b18620249f0f15073554e36262c0e0ab156397c32444e4a018fe93b183f60045573554e36262c0e0ab156397c32444e4a018fe93b183b6005556005546000602073554e36262c0e0ab156397c32444e4a018fe93b183c60205160065500",
                "storage": {}
            },
            "0xcccccccc00000000000000000000000000000000": {
                "nonce": "0x00",
                "balance": "0x00",
                "code": "0x73bbbbbbbb00000000000000000000000000000000ff00",
                "storage": {}
            },
            "0xa94f5374fce5edbc8e2a8697c15331677e6ebf0b": {
                "nonce": "0x00",
                "balance": "0x0de0b6b3a7640000",
                "code": "0x",
                "storage": {}
            }
        },
        "transaction": {
            "nonce": "0x00",
            "gasPrice": "0x0a",
            "gasLimit": [
                "0x061a80"
            ],
            "to": "0x095e7baea6a6c7c4c2dfeb977efac326af552d87",
            "value": [
                "0x01"
            ],
            "data": [
                "0x"
            ],
            "sender": "0xa94f5374fce5edbc8e2a8697c15331677e6ebf0b",
            "secretKey": "0x45a915e4d060149eb4365960e6a7a45f334393093061116b197e3240065ff2d8"
        },
        "post": {
            "Cancun": [
                {
                    "hash": "0x64ef7ff6ff1e56a9b3393e5baa68805a335d9549fd6606a846d05c5a41d8f0a9",
                    "logs": "0x1dcc4de8dec75d7aab85b567b6ccd41ad312451b948a7413f0a142fd40d49347",
                    "txbytes": "0xf860800a83061a8094095e7baea6a6c7c4c2dfeb977efac326af552d87018026a0f9968431ac1f14898a94910cfa844aa4efdd0d865620d1cc829fab81eeae2a4ba03016c0c04b1dcaebda70636115cca22a07460e2577297af37186247ac10f9051",
                    "indexes": {
                        "data": 0,
                        "gas": 0,
                        "value": 0
                    },
                    "state": {
                        "0x095e7baea6a6c7c4c2dfeb977efac326af552d87": {
                            "nonce": "0x01",
                            "balance": "0x0de0b6b3a7640001",
                            "code": "0x6000603d80604060003960006000f56000526000516000556020600060006000600073bbbbbbbb00000000000000000000000000000000620249f0f1500000fe73cccccccc000000000000000000000000000000003b6000526000516000602073cccccccc000000000000000000000000000000003c6000516020f300",
                            "storage": {
                                "0x00": "0x554e36262c0e0ab156397c32444e4a018fe93b18"
                            }
                        },
                        "0xbbbbbbbb00000000000000000000000000000000": {
                            "nonce": "0x00",
                            "balance": "0x0de0b6b3a7640000",
                            "code": "0x73554e36262c0e0ab156397c32444e4a018fe93b183f60015573554e36262c0e0ab156397c32444e4a018fe93b183b6002556002546000600073554e36262c0e0ab156397c32444e4a018fe93b183c6000516003556020600060006000600073554e36262c0e0ab156397c32444e4a018fe93b18620249f0f15073554e36262c0e0ab156397c32444e4a018fe93b183f60045573554e36262c0e0ab156397c32444e4a018fe93b183b6005556005546000602073554e36262c0e0ab156397c32444e4a018fe93b183c60205160065500",
                            "storage": {
                                "0x01": "0xbc0e1b58b60bffd44555bf2c703da0fc6e1e3971797e9c5554512d69f45e7a52",
                                "0x02": "0x17",
                                "0x03": "0x73bbbbbbbb00000000000000000000000000000000ff00000000000000000000",
                                "0x04": "0xbc0e1b58b60bffd44555bf2c703da0fc6e1e3971797e9c5554512d69f45e7a52",
                                "0x05": "0x17",
                                "0x06": "0x73bbbbbbbb00000000000000000000000000000000ff00000000000000000000"
                            }
                        },
                        "0xcccccccc00000000000000000000000000000000": {
                            "nonce": "0x00",
                            "balance": "0x00",
                            "code": "0x73bbbbbbbb00000000000000000000000000000000ff00",
                            "storage": {}
                        },
                        "0xa94f5374fce5edbc8e2a8697c15331677e6ebf0b": {
                            "nonce": "0x01",
                            "balance": "0x0de0b6b3a741dc4f",
                            "code": "0x",
                            "storage": {}
                        }
                    }
                }
            ]
        },
        "config": {
            "blobSchedule": {
                "Cancun": {
                    "target": "0x03",
                    "max": "0x06",
                    "baseFeeUpdateFraction": "0x32f0ed"
                }
            },
            "chainid": "0x01"
        },
        "_info": {
            "hash": "0x165f09430344c476504bb9d9cd5d4feafdd334afd70bbcc38a72b81c67451648",
            "comment": "`execution-specs` generated test",
            "filling-transition-tool": "2.18.0rc6",
            "description": "No description available - add a docstring to the python test class or function.",
            "url": "",
            "fixture-format": "state_test"
        }
    },
    "tests/static/state_tests/stExtCodeHash/extCodeHashDeletedAccount3Filler.yml::extCodeHashDeletedAccount3[fork_Osaka-state_test-]": {
        "env": {
            "currentCoinbase": "0x2adc25665018aa1fe0e6bc666dac8fc2697ff9ba",
            "currentGasLimit": "0x0f4240",
            "currentNumber": "0x01",
            "currentTimestamp": "0x03e8",
            "currentRandom": "0x0000000000000000000000000000000000000000000000000000000000020000",
            "currentDifficulty": "0x00",
            "currentBaseFee": "0x0a",
            "currentExcessBlobGas": "0x00"
        },
        "pre": {
            "0x095e7baea6a6c7c4c2dfeb977efac326af552d87": {
                "nonce": "0x00",
                "balance": "0x0de0b6b3a7640000",
                "code": "0x6000603d80604060003960006000f56000526000516000556020600060006000600073bbbbbbbb00000000000000000000000000000000620249f0f1500000fe73cccccccc000000000000000000000000000000003b6000526000516000602073cccccccc000000000000000000000000000000003c6000516020f300",
                "storage": {}
            },
            "0xbbbbbbbb00000000000000000000000000000000": {
                "nonce": "0x00",
                "balance": "0x0de0b6b3a7640000",
                "code": "0x73554e36262c0e0ab156397c32444e4a018fe93b183f60015573554e36262c0e0ab156397c32444e4a018fe93b183b6002556002546000600073554e36262c0e0ab156397c32444e4a018fe93b183c6000516003556020600060006000600073554e36262c0e0ab156397c32444e4a018fe93b18620249f0f15073554e36262c0e0ab156397c32444e4a018fe93b183f60045573554e36262c0e0ab156397c32444e4a018fe93b183b6005556005546000602073554e36262c0e0ab156397c32444e4a018fe93b183c60205160065500",
                "storage": {}
            },
            "0xcccccccc00000000000000000000000000000000": {
                "nonce": "0x00",
                "balance": "0x00",
                "code": "0x73bbbbbbbb00000000000000000000000000000000ff00",
                "storage": {}
            },
            "0xa94f5374fce5edbc8e2a8697c15331677e6ebf0b": {
                "nonce": "0x00",
                "balance": "0x0de0b6b3a7640000",
                "code": "0x",
                "storage": {}
            }
        },
        "transaction": {
            "nonce": "0x00",
            "gasPrice": "0x0a",
            "gasLimit": [
                "0x061a80"
            ],
            "to": "0x095e7baea6a6c7c4c2dfeb977efac326af552d87",
            "value": [
                "0x01"
            ],
            "data": [
                "0x"
            ],
            "sender": "0xa94f5374fce5edbc8e2a8697c15331677e6ebf0b",
            "secretKey": "0x45a915e4d060149eb4365960e6a7a45f334393093061116b197e3240065ff2d8"
        },
        "post": {
            "Osaka": [
                {
                    "hash": "0x64ef7ff6ff1e56a9b3393e5baa68805a335d9549fd6606a846d05c5a41d8f0a9",
                    "logs": "0x1dcc4de8dec75d7aab85b567b6ccd41ad312451b948a7413f0a142fd40d49347",
                    "txbytes": "0xf860800a83061a8094095e7baea6a6c7c4c2dfeb977efac326af552d87018026a0f9968431ac1f14898a94910cfa844aa4efdd0d865620d1cc829fab81eeae2a4ba03016c0c04b1dcaebda70636115cca22a07460e2577297af37186247ac10f9051",
                    "indexes": {
                        "data": 0,
                        "gas": 0,
                        "value": 0
                    },
                    "state": {
                        "0x095e7baea6a6c7c4c2dfeb977efac326af552d87": {
                            "nonce": "0x01",
                            "balance": "0x0de0b6b3a7640001",
                            "code": "0x6000603d80604060003960006000f56000526000516000556020600060006000600073bbbbbbbb00000000000000000000000000000000620249f0f1500000fe73cccccccc000000000000000000000000000000003b6000526000516000602073cccccccc000000000000000000000000000000003c6000516020f300",
                            "storage": {
                                "0x00": "0x554e36262c0e0ab156397c32444e4a018fe93b18"
                            }
                        },
                        "0xbbbbbbbb00000000000000000000000000000000": {
                            "nonce": "0x00",
                            "balance": "0x0de0b6b3a7640000",
                            "code": "0x73554e36262c0e0ab156397c32444e4a018fe93b183f60015573554e36262c0e0ab156397c32444e4a018fe93b183b6002556002546000600073554e36262c0e0ab156397c32444e4a018fe93b183c6000516003556020600060006000600073554e36262c0e0ab156397c32444e4a018fe93b18620249f0f15073554e36262c0e0ab156397c32444e4a018fe93b183f60045573554e36262c0e0ab156397c32444e4a018fe93b183b6005556005546000602073554e36262c0e0ab156397c32444e4a018fe93b183c60205160065500",
                            "storage": {
                                "0x01": "0xbc0e1b58b60bffd44555bf2c703da0fc6e1e3971797e9c5554512d69f45e7a52",
                                "0x02": "0x17",
                                "0x03": "0x73bbbbbbbb00000000000000000000000000000000ff00000000000000000000",
                                "0x04": "0xbc0e1b58b60bffd44555bf2c703da0fc6e1e3971797e9c5554512d69f45e7a52",
                                "0x05": "0x17",
                                "0x06": "0x73bbbbbbbb00000000000000000000000000000000ff00000000000000000000"
                            }
                        },
                        "0xcccccccc00000000000000000000000000000000": {
                            "nonce": "0x00",
                            "balance": "0x00",
                            "code": "0x73bbbbbbbb00000000000000000000000000000000ff00",
                            "storage": {}
                        },
                        "0xa94f5374fce5edbc8e2a8697c15331677e6ebf0b": {
                            "nonce": "0x01",
                            "balance": "0x0de0b6b3a741dc4f",
                            "code": "0x",
                            "storage": {}
                        }
                    }
                }
            ]
        },
        "config": {
            "blobSchedule": {
                "Cancun": {
                    "target": "0x03",
                    "max": "0x06",
                    "baseFeeUpdateFraction": "0x32f0ed"
                },
                "Prague": {
                    "target": "0x06",
                    "max": "0x09",
                    "baseFeeUpdateFraction": "0x4c6964"
                },
                "Osaka": {
                    "target": "0x06",
                    "max": "0x09",
                    "baseFeeUpdateFraction": "0x4c6964"
                }
            },
            "chainid": "0x01"
        },
        "_info": {
            "hash": "0x7646594dc7ce789391608828a9668d2164b3a3ab8d9f471a7da9d540c68601f2",
            "comment": "`execution-specs` generated test",
            "filling-transition-tool": "2.18.0rc6",
            "description": "No description available - add a docstring to the python test class or function.",
            "url": "",
            "fixture-format": "state_test"
        }
    },
    "tests/static/state_tests/stExtCodeHash/extCodeHashDeletedAccount3Filler.yml::extCodeHashDeletedAccount3[fork_Prague-state_test-]": {
        "env": {
            "currentCoinbase": "0x2adc25665018aa1fe0e6bc666dac8fc2697ff9ba",
            "currentGasLimit": "0x0f4240",
            "currentNumber": "0x01",
            "currentTimestamp": "0x03e8",
            "currentRandom": "0x0000000000000000000000000000000000000000000000000000000000020000",
            "currentDifficulty": "0x00",
            "currentBaseFee": "0x0a",
            "currentExcessBlobGas": "0x00"
        },
        "pre": {
            "0x095e7baea6a6c7c4c2dfeb977efac326af552d87": {
                "nonce": "0x00",
                "balance": "0x0de0b6b3a7640000",
                "code": "0x6000603d80604060003960006000f56000526000516000556020600060006000600073bbbbbbbb00000000000000000000000000000000620249f0f1500000fe73cccccccc000000000000000000000000000000003b6000526000516000602073cccccccc000000000000000000000000000000003c6000516020f300",
                "storage": {}
            },
            "0xbbbbbbbb00000000000000000000000000000000": {
                "nonce": "0x00",
                "balance": "0x0de0b6b3a7640000",
                "code": "0x73554e36262c0e0ab156397c32444e4a018fe93b183f60015573554e36262c0e0ab156397c32444e4a018fe93b183b6002556002546000600073554e36262c0e0ab156397c32444e4a018fe93b183c6000516003556020600060006000600073554e36262c0e0ab156397c32444e4a018fe93b18620249f0f15073554e36262c0e0ab156397c32444e4a018fe93b183f60045573554e36262c0e0ab156397c32444e4a018fe93b183b6005556005546000602073554e36262c0e0ab156397c32444e4a018fe93b183c60205160065500",
                "storage": {}
            },
            "0xcccccccc00000000000000000000000000000000": {
                "nonce": "0x00",
                "balance": "0x00",
                "code": "0x73bbbbbbbb00000000000000000000000000000000ff00",
                "storage": {}
            },
            "0xa94f5374fce5edbc8e2a8697c15331677e6ebf0b": {
                "nonce": "0x00",
                "balance": "0x0de0b6b3a7640000",
                "code": "0x",
                "storage": {}
            }
        },
        "transaction": {
            "nonce": "0x00",
            "gasPrice": "0x0a",
            "gasLimit": [
                "0x061a80"
            ],
            "to": "0x095e7baea6a6c7c4c2dfeb977efac326af552d87",
            "value": [
                "0x01"
            ],
            "data": [
                "0x"
            ],
            "sender": "0xa94f5374fce5edbc8e2a8697c15331677e6ebf0b",
            "secretKey": "0x45a915e4d060149eb4365960e6a7a45f334393093061116b197e3240065ff2d8"
        },
        "post": {
            "Prague": [
                {
                    "hash": "0x64ef7ff6ff1e56a9b3393e5baa68805a335d9549fd6606a846d05c5a41d8f0a9",
                    "logs": "0x1dcc4de8dec75d7aab85b567b6ccd41ad312451b948a7413f0a142fd40d49347",
                    "txbytes": "0xf860800a83061a8094095e7baea6a6c7c4c2dfeb977efac326af552d87018026a0f9968431ac1f14898a94910cfa844aa4efdd0d865620d1cc829fab81eeae2a4ba03016c0c04b1dcaebda70636115cca22a07460e2577297af37186247ac10f9051",
                    "indexes": {
                        "data": 0,
                        "gas": 0,
                        "value": 0
                    },
                    "state": {
                        "0x095e7baea6a6c7c4c2dfeb977efac326af552d87": {
                            "nonce": "0x01",
                            "balance": "0x0de0b6b3a7640001",
                            "code": "0x6000603d80604060003960006000f56000526000516000556020600060006000600073bbbbbbbb00000000000000000000000000000000620249f0f1500000fe73cccccccc000000000000000000000000000000003b6000526000516000602073cccccccc000000000000000000000000000000003c6000516020f300",
                            "storage": {
                                "0x00": "0x554e36262c0e0ab156397c32444e4a018fe93b18"
                            }
                        },
                        "0xbbbbbbbb00000000000000000000000000000000": {
                            "nonce": "0x00",
                            "balance": "0x0de0b6b3a7640000",
                            "code": "0x73554e36262c0e0ab156397c32444e4a018fe93b183f60015573554e36262c0e0ab156397c32444e4a018fe93b183b6002556002546000600073554e36262c0e0ab156397c32444e4a018fe93b183c6000516003556020600060006000600073554e36262c0e0ab156397c32444e4a018fe93b18620249f0f15073554e36262c0e0ab156397c32444e4a018fe93b183f60045573554e36262c0e0ab156397c32444e4a018fe93b183b6005556005546000602073554e36262c0e0ab156397c32444e4a018fe93b183c60205160065500",
                            "storage": {
                                "0x01": "0xbc0e1b58b60bffd44555bf2c703da0fc6e1e3971797e9c5554512d69f45e7a52",
                                "0x02": "0x17",
                                "0x03": "0x73bbbbbbbb00000000000000000000000000000000ff00000000000000000000",
                                "0x04": "0xbc0e1b58b60bffd44555bf2c703da0fc6e1e3971797e9c5554512d69f45e7a52",
                                "0x05": "0x17",
                                "0x06": "0x73bbbbbbbb00000000000000000000000000000000ff00000000000000000000"
                            }
                        },
                        "0xcccccccc00000000000000000000000000000000": {
                            "nonce": "0x00",
                            "balance": "0x00",
                            "code": "0x73bbbbbbbb00000000000000000000000000000000ff00",
                            "storage": {}
                        },
                        "0xa94f5374fce5edbc8e2a8697c15331677e6ebf0b": {
                            "nonce": "0x01",
                            "balance": "0x0de0b6b3a741dc4f",
                            "code": "0x",
                            "storage": {}
                        }
                    }
                }
            ]
        },
        "config": {
            "blobSchedule": {
                "Cancun": {
                    "target": "0x03",
                    "max": "0x06",
                    "baseFeeUpdateFraction": "0x32f0ed"
                },
                "Prague": {
                    "target": "0x06",
                    "max": "0x09",
                    "baseFeeUpdateFraction": "0x4c6964"
                }
            },
            "chainid": "0x01"
        },
        "_info": {
            "hash": "0x694ec59c5d415b4746849e946d9092164060791d0ca4bb588bec87ba06a72847",
            "comment": "`execution-specs` generated test",
            "filling-transition-tool": "2.18.0rc6",
            "description": "No description available - add a docstring to the python test class or function.",
            "url": "",
            "fixture-format": "state_test"
        }
    }
}