{
    "tests/ported_static/stCallDelegateCodesCallCodeHomestead/test_callcodecallcall_100_suicide_middle.py::test_callcodecallcall_100_suicide_middle[fork_Cancun-blockchain_test_from_state_test]": {
        "network": "Cancun",
        "genesisBlockHeader": {
            "parentHash": "0x0000000000000000000000000000000000000000000000000000000000000000",
            "uncleHash": "0x1dcc4de8dec75d7aab85b567b6ccd41ad312451b948a7413f0a142fd40d49347",
            "coinbase": "0x0000000000000000000000000000000000000000",
            "stateRoot": "0x044817f09660ade2a4b33f11b92dee8e2b696fae40165e5c0de9fcf9088539e0",
            "transactionsTrie": "0x56e81f171bcc55a6ff8345e692c0f86e5b48e01b996cadc001622fb5e363b421",
            "receiptTrie": "0x56e81f171bcc55a6ff8345e692c0f86e5b48e01b996cadc001622fb5e363b421",
            "bloom": "0x00000000000000000000000000000000000000000000000000000000000000000000000000000000000000000000000000000000000000000000000000000000000000000000000000000000000000000000000000000000000000000000000000000000000000000000000000000000000000000000000000000000000000000000000000000000000000000000000000000000000000000000000000000000000000000000000000000000000000000000000000000000000000000000000000000000000000000000000000000000000000000000000000000000000000000000000000000000000000000000000000000000000000000000000000000000",
            "difficulty": "0x00",
            "number": "0x00",
            "gasLimit": "0x01c9c380",
            "gasUsed": "0x00",
            "timestamp": "0x00",
            "extraData": "0x00",
            "mixHash": "0x0000000000000000000000000000000000000000000000000000000000000000",
            "nonce": "0x0000000000000000",
            "baseFeePerGas": "0x0b",
            "withdrawalsRoot": "0x56e81f171bcc55a6ff8345e692c0f86e5b48e01b996cadc001622fb5e363b421",
            "blobGasUsed": "0x00",
            "excessBlobGas": "0x00",
            "parentBeaconBlockRoot": "0x0000000000000000000000000000000000000000000000000000000000000000",
            "hash": "0x7b0d00214b638ea90b79936084db7493021adced64739bb20f2d2b79f0edd8d7"
        },
        "pre": {
            "0x000f3df6d732807ef1319fb7b8bb8522d0beac02": {
                "nonce": "0x01",
                "balance": "0x00",
                "code": "0x3373fffffffffffffffffffffffffffffffffffffffe14604d57602036146024575f5ffd5b5f35801560495762001fff810690815414603c575f5ffd5b62001fff01545f5260205ff35b5f5ffd5b62001fff42064281555f359062001fff015500",
                "storage": {}
            },
            "0x2b30b637f37e3f5b8ca4ab846331d0779a3f4671": {
                "nonce": "0x00",
                "balance": "0x0de0b6b3a7640000",
                "code": "0x604060006040600073eaf8c2ae0d01a880cea4e1aa88def5edd153d57b620249f0f460005500",
                "storage": {}
            },
            "0xeaf8c2ae0d01a880cea4e1aa88def5edd153d57b": {
                "nonce": "0x00",
                "balance": "0x02540be400",
                "code": "0x604060006040600060007323a077e1e6b0740d6bfbc41de582f2930abd1762620186a0f260015500",
                "storage": {}
            },
            "0x23a077e1e6b0740d6bfbc41de582f2930abd1762": {
                "nonce": "0x00",
                "balance": "0x02540be400",
                "code": "0x732b30b637f37e3f5b8ca4ab846331d0779a3f4671ff604060006040600060007373b954ebc05bb0ff4a0f6a13a054d50ad158409961c350f260025500",
                "storage": {}
            },
            "0x73b954ebc05bb0ff4a0f6a13a054d50ad1584099": {
                "nonce": "0x00",
                "balance": "0x02540be400",
                "code": "0x600160035500",
                "storage": {}
            },
            "0xebaf50debf10e08302fe4280c32df010463ca297": {
                "nonce": "0x00",
                "balance": "0x0de0b6b3a7640000",
                "code": "0x",
                "storage": {}
            }
        },
        "postState": {
            "0x000f3df6d732807ef1319fb7b8bb8522d0beac02": {
                "nonce": "0x01",
                "balance": "0x00",
                "code": "0x3373fffffffffffffffffffffffffffffffffffffffe14604d57602036146024575f5ffd5b5f35801560495762001fff810690815414603c575f5ffd5b62001fff01545f5260205ff35b5f5ffd5b62001fff42064281555f359062001fff015500",
                "storage": {
                    "0x03e8": "0x03e8"
                }
            },
            "0x2b30b637f37e3f5b8ca4ab846331d0779a3f4671": {
                "nonce": "0x00",
                "balance": "0x0de0b6b3a7640000",
                "code": "0x604060006040600073eaf8c2ae0d01a880cea4e1aa88def5edd153d57b620249f0f460005500",
                "storage": {
                    "0x01": "0x01",
                    "0x00": "0x01"
                }
            },
            "0xeaf8c2ae0d01a880cea4e1aa88def5edd153d57b": {
                "nonce": "0x00",
                "balance": "0x02540be400",
                "code": "0x604060006040600060007323a077e1e6b0740d6bfbc41de582f2930abd1762620186a0f260015500",
                "storage": {}
            },
            "0x23a077e1e6b0740d6bfbc41de582f2930abd1762": {
                "nonce": "0x00",
                "balance": "0x02540be400",
                "code": "0x732b30b637f37e3f5b8ca4ab846331d0779a3f4671ff604060006040600060007373b954ebc05bb0ff4a0f6a13a054d50ad158409961c350f260025500",
                "storage": {}
            },
            "0x73b954ebc05bb0ff4a0f6a13a054d50ad1584099": {
                "nonce": "0x00",
                "balance": "0x02540be400",
                "code": "0x600160035500",
                "storage": {}
            },
            "0xebaf50debf10e08302fe4280c32df010463ca297": {
                "nonce": "0x01",
                "balance": "0x0de0b6b3a7587c58",
                "code": "0x",
                "storage": {}
            }
        },
        "lastblockhash": "0x2e709c7c40dbcbd2c1353fdaf1299a110a7d847ce6cf3fa312048eeede24f285",
        "config": {
            "network": "Cancun",
            "chainid": "0x01",
            "blobSchedule": {
                "Cancun": {
                    "target": "0x03",
                    "max": "0x06",
                    "baseFeeUpdateFraction": "0x32f0ed"
                }
            }
        },
        "genesisRLP": "0xf9023cf90236a00000000000000000000000000000000000000000000000000000000000000000a01dcc4de8dec75d7aab85b567b6ccd41ad312451b948a7413f0a142fd40d49347940000000000000000000000000000000000000000a0044817f09660ade2a4b33f11b92dee8e2b696fae40165e5c0de9fcf9088539e0a056e81f171bcc55a6ff8345e692c0f86e5b48e01b996cadc001622fb5e363b421a056e81f171bcc55a6ff8345e692c0f86e5b48e01b996cadc001622fb5e363b421b901000000000000000000000000000000000000000000000000000000000000000000000000000000000000000000000000000000000000000000000000000000000000000000000000000000000000000000000000000000000000000000000000000000000000000000000000000000000000000000000000000000000000000000000000000000000000000000000000000000000000000000000000000000000000000000000000000000000000000000000000000000000000000000000000000000000000000000000000000000000000000000000000000000000000000000000000000000000000000000000000000000000000000000000000000000000080808401c9c380808000a000000000000000000000000000000000000000000000000000000000000000008800000000000000000ba056e81f171bcc55a6ff8345e692c0f86e5b48e01b996cadc001622fb5e363b4218080a00000000000000000000000000000000000000000000000000000000000000000c0c0c0",
        "blocks": [
            {
                "blockHeader": {
                    "parentHash": "0x7b0d00214b638ea90b79936084db7493021adced64739bb20f2d2b79f0edd8d7",
                    "uncleHash": "0x1dcc4de8dec75d7aab85b567b6ccd41ad312451b948a7413f0a142fd40d49347",
                    "coinbase": "0x2adc25665018aa1fe0e6bc666dac8fc2697ff9ba",
                    "stateRoot": "0x61b45933f15217bf1ad24e2e620f5a40e1b830bd7e41ac71f2513fcc135c0c43",
                    "transactionsTrie": "0xe4e16693e9697668a564b3a8993ddc78b5d9db7733e9c98a846c04be9d5eac61",
                    "receiptTrie": "0x9e26bc385cf204f991773297ac5e3f21cdd23a6c41c5cfae39833e20d10b7ff6",
                    "bloom": "0x00000000000000000000000000000000000000000000000000000000000000000000000000000000000000000000000000000000000000000000000000000000000000000000000000000000000000000000000000000000000000000000000000000000000000000000000000000000000000000000000000000000000000000000000000000000000000000000000000000000000000000000000000000000000000000000000000000000000000000000000000000000000000000000000000000000000000000000000000000000000000000000000000000000000000000000000000000000000000000000000000000000000000000000000000000000",
                    "difficulty": "0x00",
                    "number": "0x01",
                    "gasLimit": "0x01c9c380",
                    "gasUsed": "0x0126c4",
                    "timestamp": "0x03e8",
                    "extraData": "0x00",
                    "mixHash": "0x0000000000000000000000000000000000000000000000000000000000020000",
                    "nonce": "0x0000000000000000",
                    "baseFeePerGas": "0x0a",
                    "withdrawalsRoot": "0x56e81f171bcc55a6ff8345e692c0f86e5b48e01b996cadc001622fb5e363b421",
                    "blobGasUsed": "0x00",
                    "excessBlobGas": "0x00",
                    "parentBeaconBlockRoot": "0x0000000000000000000000000000000000000000000000000000000000000000",
                    "hash": "0x2e709c7c40dbcbd2c1353fdaf1299a110a7d847ce6cf3fa312048eeede24f285"
                },
                "transactions": [
                    {
                        "type": "0x00",
                        "chainId": "0x01",
                        "nonce": "0x00",
                        "gasPrice": "0x0a",
                        "gasLimit": "0x2dc6c0",
                        "to": "0x2b30b637f37e3f5b8ca4ab846331d0779a3f4671",
                        "value": "0x00",
                        "data": "0x",
                        "v": "0x25",
                        "r": "0x471012b872cf1fa728fb56090632d9d62f38d2f7d31dbf2b0e30cfaf47ac365f",
                        "s": "0x52199ed6abac38c74d11a3f06412ba3651de511c6d8e24a7f5be2625bb5eb4b2",
                        "sender": "0xebaf50debf10e08302fe4280c32df010463ca297"
                    }
                ],
                "uncleHeaders": [],
                "withdrawals": [],
                "receipts": [
                    {
                        "transactionHash": "0x6ee6a4553361c854812799bdf73f4ed9ed7cf9120726484a5ccab364b7913599",
                        "type": "0x00",
                        "cumulativeGasUsed": "0x0126c4",
                        "bloom": "0x00000000000000000000000000000000000000000000000000000000000000000000000000000000000000000000000000000000000000000000000000000000000000000000000000000000000000000000000000000000000000000000000000000000000000000000000000000000000000000000000000000000000000000000000000000000000000000000000000000000000000000000000000000000000000000000000000000000000000000000000000000000000000000000000000000000000000000000000000000000000000000000000000000000000000000000000000000000000000000000000000000000000000000000000000000000",
                        "logs": [],
                        "status": true,
                        "rlp": "0xf9010901830126c4b9010000000000000000000000000000000000000000000000000000000000000000000000000000000000000000000000000000000000000000000000000000000000000000000000000000000000000000000000000000000000000000000000000000000000000000000000000000000000000000000000000000000000000000000000000000000000000000000000000000000000000000000000000000000000000000000000000000000000000000000000000000000000000000000000000000000000000000000000000000000000000000000000000000000000000000000000000000000000000000000000000000000000000000000000000000000000c0"
                    }
                ],
                "rlp": "0xf902a4f9023ba07b0d00214b638ea90b79936084db7493021adced64739bb20f2d2b79f0edd8d7a01dcc4de8dec75d7aab85b567b6ccd41ad312451b948a7413f0a142fd40d49347942adc25665018aa1fe0e6bc666dac8fc2697ff9baa061b45933f15217bf1ad24e2e620f5a40e1b830bd7e41ac71f2513fcc135c0c43a0e4e16693e9697668a564b3a8993ddc78b5d9db7733e9c98a846c04be9d5eac61a09e26bc385cf204f991773297ac5e3f21cdd23a6c41c5cfae39833e20d10b7ff6b901000000000000000000000000000000000000000000000000000000000000000000000000000000000000000000000000000000000000000000000000000000000000000000000000000000000000000000000000000000000000000000000000000000000000000000000000000000000000000000000000000000000000000000000000000000000000000000000000000000000000000000000000000000000000000000000000000000000000000000000000000000000000000000000000000000000000000000000000000000000000000000000000000000000000000000000000000000000000000000000000000000000000000000000000000000000080018401c9c380830126c48203e800a000000000000000000000000000000000000000000000000000000000000200008800000000000000000aa056e81f171bcc55a6ff8345e692c0f86e5b48e01b996cadc001622fb5e363b4218080a00000000000000000000000000000000000000000000000000000000000000000f862f860800a832dc6c0942b30b637f37e3f5b8ca4ab846331d0779a3f4671808025a0471012b872cf1fa728fb56090632d9d62f38d2f7d31dbf2b0e30cfaf47ac365fa052199ed6abac38c74d11a3f06412ba3651de511c6d8e24a7f5be2625bb5eb4b2c0c0",
                "blocknumber": "1"
            }
        ],
        "sealEngine": "NoProof",
        "_info": {
            "hash": "0x06b46beef93c3cff046e2fe5076f2c38f528c21f1a343e224b28553be3ab5fff",
            "fixture-format": "blockchain_test",
            "comment": "`execution-specs` generated test",
            "filling-transition-tool": "2.19.0",
            "description": "Test_callcodecallcall_100_suicide_middle.",
            "url": "https://github.com/ethereum/execution-specs/blob/tests-bal@v5.7.0/tests/ported_static/stCallDelegateCodesCallCodeHomestead/test_callcodecallcall_100_suicide_middle.py#L25",
            "metadata": {
                "opcode_count": {}
            }
        }
    }
}