{
    "tests/ported_static/stStaticCall/test_staticcall_to_precompile_from_contract_initialization.py::test_staticcall_to_precompile_from_contract_initialization[fork_Cancun-blockchain_test_from_state_test]": {
        "network": "Cancun",
        "genesisBlockHeader": {
            "parentHash": "0x0000000000000000000000000000000000000000000000000000000000000000",
            "uncleHash": "0x1dcc4de8dec75d7aab85b567b6ccd41ad312451b948a7413f0a142fd40d49347",
            "coinbase": "0x0000000000000000000000000000000000000000",
            "stateRoot": "0xb3b56d382dedf818c9ba44867dbeed6b77031fe352fb23bf727683d6d74c79f8",
            "transactionsTrie": "0x56e81f171bcc55a6ff8345e692c0f86e5b48e01b996cadc001622fb5e363b421",
            "receiptTrie": "0x56e81f171bcc55a6ff8345e692c0f86e5b48e01b996cadc001622fb5e363b421",
            "bloom": "0x00000000000000000000000000000000000000000000000000000000000000000000000000000000000000000000000000000000000000000000000000000000000000000000000000000000000000000000000000000000000000000000000000000000000000000000000000000000000000000000000000000000000000000000000000000000000000000000000000000000000000000000000000000000000000000000000000000000000000000000000000000000000000000000000000000000000000000000000000000000000000000000000000000000000000000000000000000000000000000000000000000000000000000000000000000000",
            "difficulty": "0x00",
            "number": "0x00",
            "gasLimit": "0x989680",
            "gasUsed": "0x00",
            "timestamp": "0x00",
            "extraData": "0x00",
            "mixHash": "0x0000000000000000000000000000000000000000000000000000000000000000",
            "nonce": "0x0000000000000000",
            "baseFeePerGas": "0x0b",
            "withdrawalsRoot": "0x56e81f171bcc55a6ff8345e692c0f86e5b48e01b996cadc001622fb5e363b421",
            "blobGasUsed": "0x00",
            "excessBlobGas": "0x00",
            "parentBeaconBlockRoot": "0x0000000000000000000000000000000000000000000000000000000000000000",
            "hash": "0x5c53035400a224dfdb56f6e201a42d96a28c0c9635e1c38190fd087dbc5bad6a"
        },
        "pre": {
            "0x000f3df6d732807ef1319fb7b8bb8522d0beac02": {
                "nonce": "0x01",
                "balance": "0x00",
                "code": "0x3373fffffffffffffffffffffffffffffffffffffffe14604d57602036146024575f5ffd5b5f35801560495762001fff810690815414603c575f5ffd5b62001fff01545f5260205ff35b5f5ffd5b62001fff42064281555f359062001fff015500",
                "storage": {}
            },
            "0xa000000000000000000000000000000000000000": {
                "nonce": "0x00",
                "balance": "0x00",
                "code": "0x366000600037655a175a175a173660006000f560005500",
                "storage": {}
            },
            "0xa94f5374fce5edbc8e2a8697c15331677e6ebf0b": {
                "nonce": "0x00",
                "balance": "0x0de0b6b3a7640000",
                "code": "0x",
                "storage": {}
            }
        },
        "postState": {
            "0x000f3df6d732807ef1319fb7b8bb8522d0beac02": {
                "nonce": "0x01",
                "balance": "0x00",
                "code": "0x3373fffffffffffffffffffffffffffffffffffffffe14604d57602036146024575f5ffd5b5f35801560495762001fff810690815414603c575f5ffd5b62001fff01545f5260205ff35b5f5ffd5b62001fff42064281555f359062001fff015500",
                "storage": {
                    "0x03e8": "0x03e8"
                }
            },
            "0xa000000000000000000000000000000000000000": {
                "nonce": "0x01",
                "balance": "0x64",
                "code": "0x366000600037655a175a175a173660006000f560005500",
                "storage": {
                    "0x00": "0xfad204ed1275b429b66c9ce0614d62832d6b2580"
                }
            },
            "0xa94f5374fce5edbc8e2a8697c15331677e6ebf0b": {
                "nonce": "0x01",
                "balance": "0x0de0b6b3a6fb3160",
                "code": "0x",
                "storage": {}
            },
            "0xfad204ed1275b429b66c9ce0614d62832d6b2580": {
                "nonce": "0x01",
                "balance": "0x00",
                "code": "0x",
                "storage": {
                    "0x00": "0x01",
                    "0x01": "0xa94f5374fce5edbc8e2a8697c15331677e6ebf0b",
                    "0x02": "0x01",
                    "0x03": "0x01",
                    "0x04": "0x0ccccccccccccccccccccccccccccccccccccccccccccccccccc000000",
                    "0x05": "0x73f5062fb68ed2a1ec82ff8c73f9251bb9cf53a623bc93527e16bc5ae29dad74",
                    "0x06": "0x01",
                    "0x07": "0x0ccccccccccccccccccccccccccccccccccccccccccccccccccc000000",
                    "0x08": "0x14ef238cfa4075e9ede92f18b1566c1dd0b99aaa",
                    "0x09": "0x01",
                    "0x10": "0x0ccccccccccccccccccccccccccccccccccccccccccccccccccc000000",
                    "0x11": "0x01",
                    "0x12": "0x01",
                    "0x13": "0x01",
                    "0x14": "0x1f4d1d80177b1377743d1901f70d7389be7f7a35a35bfd234a8aaee615b88c49",
                    "0x15": "0x018683193ae021a2f8920fed186cde5d9b1365116865281ccf884c1f28b1df8f",
                    "0x16": "0x01",
                    "0x17": "0x1f4d1d80177b1377743d1901f70d7389be7f7a35a35bfd234a8aaee615b88c49",
                    "0x18": "0x018683193ae021a2f8920fed186cde5d9b1365116865281ccf884c1f28b1df8f",
                    "0x19": "0x01",
                    "0x20": "0x01"
                }
            }
        },
        "lastblockhash": "0x7f378bb8b2871c72f837a331615686a65b4a937aa0ca88766e46b037d53a9198",
        "config": {
            "network": "Cancun",
            "chainid": "0x01",
            "blobSchedule": {
                "Cancun": {
                    "target": "0x03",
                    "max": "0x06",
                    "baseFeeUpdateFraction": "0x32f0ed"
                }
            }
        },
        "genesisRLP": "0xf9023bf90235a00000000000000000000000000000000000000000000000000000000000000000a01dcc4de8dec75d7aab85b567b6ccd41ad312451b948a7413f0a142fd40d49347940000000000000000000000000000000000000000a0b3b56d382dedf818c9ba44867dbeed6b77031fe352fb23bf727683d6d74c79f8a056e81f171bcc55a6ff8345e692c0f86e5b48e01b996cadc001622fb5e363b421a056e81f171bcc55a6ff8345e692c0f86e5b48e01b996cadc001622fb5e363b421b9010000000000000000000000000000000000000000000000000000000000000000000000000000000000000000000000000000000000000000000000000000000000000000000000000000000000000000000000000000000000000000000000000000000000000000000000000000000000000000000000000000000000000000000000000000000000000000000000000000000000000000000000000000000000000000000000000000000000000000000000000000000000000000000000000000000000000000000000000000000000000000000000000000000000000000000000000000000000000000000000000000000000000000000000000000000000808083989680808000a000000000000000000000000000000000000000000000000000000000000000008800000000000000000ba056e81f171bcc55a6ff8345e692c0f86e5b48e01b996cadc001622fb5e363b4218080a00000000000000000000000000000000000000000000000000000000000000000c0c0c0",
        "blocks": [
            {
                "blockHeader": {
                    "parentHash": "0x5c53035400a224dfdb56f6e201a42d96a28c0c9635e1c38190fd087dbc5bad6a",
                    "uncleHash": "0x1dcc4de8dec75d7aab85b567b6ccd41ad312451b948a7413f0a142fd40d49347",
                    "coinbase": "0xcafe000000000000000000000000000000000001",
                    "stateRoot": "0x68f7c3156fd14ee87a4231add10b8dc3d147335bc33ee98811e6e9bb9f2d316d",
                    "transactionsTrie": "0x3cc908cbb71c88c20d453a79a7731116a024c0b3adaba4aa7241a65b7436d0f0",
                    "receiptTrie": "0x245de337ad6564423b544db6f89537f78f25eed1d08dd44f65d7d082dcf852f8",
                    "bloom": "0x00000000000000000000000000000000000000000000000000000000000000000000000000000000000000000000000000000000000000000000000000000000000000000000000000000000000000000000000000000000000000000000000000000000000000000000000000000000000000000000000000000000000000000000000000000000000000000000000000000000000000000000000000000000000000000000000000000000000000000000000000000000000000000000000000000000000000000000000000000000000000000000000000000000000000000000000000000000000000000000000000000000000000000000000000000000",
                    "difficulty": "0x00",
                    "number": "0x01",
                    "gasLimit": "0x989680",
                    "gasUsed": "0x0a7b06",
                    "timestamp": "0x03e8",
                    "extraData": "0x00",
                    "mixHash": "0x0000000000000000000000000000000000000000000000000000000000020000",
                    "nonce": "0x0000000000000000",
                    "baseFeePerGas": "0x0a",
                    "withdrawalsRoot": "0x56e81f171bcc55a6ff8345e692c0f86e5b48e01b996cadc001622fb5e363b421",
                    "blobGasUsed": "0x00",
                    "excessBlobGas": "0x00",
                    "parentBeaconBlockRoot": "0x0000000000000000000000000000000000000000000000000000000000000000",
                    "hash": "0x7f378bb8b2871c72f837a331615686a65b4a937aa0ca88766e46b037d53a9198"
                },
                "transactions": [
                    {
                        "type": "0x00",
                        "chainId": "0x01",
                        "nonce": "0x00",
                        "gasPrice": "0x0a",
                        "gasLimit": "0x0f4240",
                        "to": "0xa000000000000000000000000000000000000000",
                        "value": "0x64",
                        "data": "0x7f18c547e4f7b0f325ad1e56f57e26c745b09a3e503d86e00e5255ff7f715d3d1c600052601c6020527f73b1693892219d736caba55bdb67216e485557ea6b6af75f37096c9aa6a5a75f6040527feeb940b1d03b21e36b0e47e79769f095fe2ab855bd91e3a38756b7d75a9c454960605260206103e860806000600162061a80fa60005560a060020a6103e851066001556001543214600255600060005260006020526000604052600060605260006103e8527c0ccccccccccccccccccccccccccccccccccccccccccccccccccc00000060005260206103e86020600060025afa6003556000516004556103e851600555600060005260006103e8527c0ccccccccccccccccccccccccccccccccccccccccccccccccccc00000060005260206103e86020600060035afa6006556000516007556103e851600855600060005260006103e8527c0ccccccccccccccccccccccccccccccccccccccccccccccccccc00000060005260206103e86020600060045afa6009556103e851601055600060005260006103e8526001600052602060205260206040527f03fffffffffffffffffffffffffffffffffffffffffffffffffffffffefffffc6060527f2efffffffffffffffffffffffffffffffffffffffffffffffffffffffefffffc6080527f2f0000000000000000000000000000000000000000000000000000000000000060a05260206103e860a1600060055afa6011556103e85160125560006000526000602052600060405260006060526000608052600060a05260006103e8527f0f25929bcb43d5a57391564615c9e70a992b10eafa4db109709649cf48c50dd26000527f16da2f5cb6be7a0aa72c440c53c9bbdfec6c36c7d515536431b3a865468acbba6020527f1de49a4b0233273bba8146af82042d004f2085ec982397db0d97da17204cc2866040527f0217327ffc463919bef80cc166d09c6172639d8589799928761bcd9f22c903d460605260406103e86080600060065afa6013556103e85160145561040851601555600060005260006020526000604052600060605260006103e8526000610408527f0f25929bcb43d5a57391564615c9e70a992b10eafa4db109709649cf48c50dd26000527f16da2f5cb6be7a0aa72c440c53c9bbdfec6c36c7d515536431b3a865468acbba602052600360405260406103e86060600060075afa6016556103e8516017556104085160185560006000526000602052600060405260006103e8526000610408527f1c76476f4def4bb94541d57ebba1193381ffa7aa76ada664dd31c16024c43f596000527f3034dd2920f673e204fee2811c678745fc819b55d3e9d294e45c9b03a76aef416020527f209dd15ebff5d46c4bd888e51a93cf99a7329636c63514396b4a452003a35bf76040527f04bf11ca01483bfa8b34b43561848d28905960114c8ac04049af4b6315a416786060527f2bb8324af6cfc93537a2ad1a445cfd0ca2a71acd7ac41fadbf933c2a51be344d6080527f120a2a4cf30c1bf9845f20c6fe39e07ea2cce61f0c9bb048165fe5e4de87755060a0527f111e129f1cf1097710d41c4ac70fcdfa5ba2023c6ff1cbeac322de49d1b6df7c60c0527f2032c61a830e3c17286de9462bf242fca2883585b93870a73853face6a6bf41160e0527f198e9393920d483a7260bfb731fb5d25f1aa493335a9e71297e485b7aef312c2610100527f1800deef121f1e76426a00665e5c4479674322d4f75edadd46debd5cd992f6ed610120527f090689d0585ff075ec9e99ad690c3395bc4b313370b38ef355acdadcd122975b610140527f12c85ea5db8c6deb4aab71808dcb408fe3d1e7690c43d37b4ce6cc0166fa7daa6101605260206103e8610180600060085afa6019556103e85160205500",
                        "v": "0x26",
                        "r": "0x89df11039e654bbae1699f9facecface1a1ac478bc4cab34fb97b857187cbe46",
                        "s": "0x7ca9bf67ef56c39e0119329857142948a68b8ad422e77a9a610c4857b5a77a58",
                        "sender": "0xa94f5374fce5edbc8e2a8697c15331677e6ebf0b"
                    }
                ],
                "uncleHeaders": [],
                "withdrawals": [],
                "receipts": [
                    {
                        "transactionHash": "0xe5e63eeea9460d86eada569109b1a75061e62a03e237605e981c6ec3f1c0edc4",
                        "type": "0x00",
                        "cumulativeGasUsed": "0x0a7b06",
                        "bloom": "0x00000000000000000000000000000000000000000000000000000000000000000000000000000000000000000000000000000000000000000000000000000000000000000000000000000000000000000000000000000000000000000000000000000000000000000000000000000000000000000000000000000000000000000000000000000000000000000000000000000000000000000000000000000000000000000000000000000000000000000000000000000000000000000000000000000000000000000000000000000000000000000000000000000000000000000000000000000000000000000000000000000000000000000000000000000000",
                        "logs": [],
                        "status": true,
                        "rlp": "0xf9010901830a7b06b9010000000000000000000000000000000000000000000000000000000000000000000000000000000000000000000000000000000000000000000000000000000000000000000000000000000000000000000000000000000000000000000000000000000000000000000000000000000000000000000000000000000000000000000000000000000000000000000000000000000000000000000000000000000000000000000000000000000000000000000000000000000000000000000000000000000000000000000000000000000000000000000000000000000000000000000000000000000000000000000000000000000000000000000000000000000000c0"
                    }
                ],
                "rlp": "0xf90806f9023aa05c53035400a224dfdb56f6e201a42d96a28c0c9635e1c38190fd087dbc5bad6aa01dcc4de8dec75d7aab85b567b6ccd41ad312451b948a7413f0a142fd40d4934794cafe000000000000000000000000000000000001a068f7c3156fd14ee87a4231add10b8dc3d147335bc33ee98811e6e9bb9f2d316da03cc908cbb71c88c20d453a79a7731116a024c0b3adaba4aa7241a65b7436d0f0a0245de337ad6564423b544db6f89537f78f25eed1d08dd44f65d7d082dcf852f8b9010000000000000000000000000000000000000000000000000000000000000000000000000000000000000000000000000000000000000000000000000000000000000000000000000000000000000000000000000000000000000000000000000000000000000000000000000000000000000000000000000000000000000000000000000000000000000000000000000000000000000000000000000000000000000000000000000000000000000000000000000000000000000000000000000000000000000000000000000000000000000000000000000000000000000000000000000000000000000000000000000000000000000000000000000000000000800183989680830a7b068203e800a000000000000000000000000000000000000000000000000000000000000200008800000000000000000aa056e81f171bcc55a6ff8345e692c0f86e5b48e01b996cadc001622fb5e363b4218080a00000000000000000000000000000000000000000000000000000000000000000f905c4f905c1800a830f424094a00000000000000000000000000000000000000064b9055f7f18c547e4f7b0f325ad1e56f57e26c745b09a3e503d86e00e5255ff7f715d3d1c600052601c6020527f73b1693892219d736caba55bdb67216e485557ea6b6af75f37096c9aa6a5a75f6040527feeb940b1d03b21e36b0e47e79769f095fe2ab855bd91e3a38756b7d75a9c454960605260206103e860806000600162061a80fa60005560a060020a6103e851066001556001543214600255600060005260006020526000604052600060605260006103e8527c0ccccccccccccccccccccccccccccccccccccccccccccccccccc00000060005260206103e86020600060025afa6003556000516004556103e851600555600060005260006103e8527c0ccccccccccccccccccccccccccccccccccccccccccccccccccc00000060005260206103e86020600060035afa6006556000516007556103e851600855600060005260006103e8527c0ccccccccccccccccccccccccccccccccccccccccccccccccccc00000060005260206103e86020600060045afa6009556103e851601055600060005260006103e8526001600052602060205260206040527f03fffffffffffffffffffffffffffffffffffffffffffffffffffffffefffffc6060527f2efffffffffffffffffffffffffffffffffffffffffffffffffffffffefffffc6080527f2f0000000000000000000000000000000000000000000000000000000000000060a05260206103e860a1600060055afa6011556103e85160125560006000526000602052600060405260006060526000608052600060a05260006103e8527f0f25929bcb43d5a57391564615c9e70a992b10eafa4db109709649cf48c50dd26000527f16da2f5cb6be7a0aa72c440c53c9bbdfec6c36c7d515536431b3a865468acbba6020527f1de49a4b0233273bba8146af82042d004f2085ec982397db0d97da17204cc2866040527f0217327ffc463919bef80cc166d09c6172639d8589799928761bcd9f22c903d460605260406103e86080600060065afa6013556103e85160145561040851601555600060005260006020526000604052600060605260006103e8526000610408527f0f25929bcb43d5a57391564615c9e70a992b10eafa4db109709649cf48c50dd26000527f16da2f5cb6be7a0aa72c440c53c9bbdfec6c36c7d515536431b3a865468acbba602052600360405260406103e86060600060075afa6016556103e8516017556104085160185560006000526000602052600060405260006103e8526000610408527f1c76476f4def4bb94541d57ebba1193381ffa7aa76ada664dd31c16024c43f596000527f3034dd2920f673e204fee2811c678745fc819b55d3e9d294e45c9b03a76aef416020527f209dd15ebff5d46c4bd888e51a93cf99a7329636c63514396b4a452003a35bf76040527f04bf11ca01483bfa8b34b43561848d28905960114c8ac04049af4b6315a416786060527f2bb8324af6cfc93537a2ad1a445cfd0ca2a71acd7ac41fadbf933c2a51be344d6080527f120a2a4cf30c1bf9845f20c6fe39e07ea2cce61f0c9bb048165fe5e4de87755060a0527f111e129f1cf1097710d41c4ac70fcdfa5ba2023c6ff1cbeac322de49d1b6df7c60c0527f2032c61a830e3c17286de9462bf242fca2883585b93870a73853face6a6bf41160e0527f198e9393920d483a7260bfb731fb5d25f1aa493335a9e71297e485b7aef312c2610100527f1800deef121f1e76426a00665e5c4479674322d4f75edadd46debd5cd992f6ed610120527f090689d0585ff075ec9e99ad690c3395bc4b313370b38ef355acdadcd122975b610140527f12c85ea5db8c6deb4aab71808dcb408fe3d1e7690c43d37b4ce6cc0166fa7daa6101605260206103e8610180600060085afa6019556103e8516020550026a089df11039e654bbae1699f9facecface1a1ac478bc4cab34fb97b857187cbe46a07ca9bf67ef56c39e0119329857142948a68b8ad422e77a9a610c4857b5a77a58c0c0",
                "blocknumber": "1"
            }
        ],
        "sealEngine": "NoProof",
        "_info": {
            "hash": "0xc38d745a75958a874dcb09d493ac5ef042bc8194d9aa3867a7f44f3d0c5c2ff3",
            "fixture-format": "blockchain_test",
            "comment": "`execution-specs` generated test",
            "filling-transition-tool": "2.19.0",
            "description": "STATICCALL to precompiled contracts from contract initialization code.",
            "url": "https://github.com/ethereum/execution-specs/blob/tests-bal@v5.6.1/tests/ported_static/stStaticCall/test_staticcall_to_precompile_from_contract_initialization.py#L28",
            "metadata": {
                "opcode_count": {}
            }
        }
    }
}