{
    "tests/ported_static/stReturnDataTest/test_subcall_return_more_then_expected.py::test_subcall_return_more_then_expected[fork_Cancun-blockchain_test_from_state_test]": {
        "network": "Cancun",
        "genesisBlockHeader": {
            "parentHash": "0x0000000000000000000000000000000000000000000000000000000000000000",
            "uncleHash": "0x1dcc4de8dec75d7aab85b567b6ccd41ad312451b948a7413f0a142fd40d49347",
            "coinbase": "0x0000000000000000000000000000000000000000",
            "stateRoot": "0x345559b783833ccb247a87f99e0ad2a7ab3ba0a320d0a2ac4dc186b88ec1f31b",
            "transactionsTrie": "0x56e81f171bcc55a6ff8345e692c0f86e5b48e01b996cadc001622fb5e363b421",
            "receiptTrie": "0x56e81f171bcc55a6ff8345e692c0f86e5b48e01b996cadc001622fb5e363b421",
            "bloom": "0x00000000000000000000000000000000000000000000000000000000000000000000000000000000000000000000000000000000000000000000000000000000000000000000000000000000000000000000000000000000000000000000000000000000000000000000000000000000000000000000000000000000000000000000000000000000000000000000000000000000000000000000000000000000000000000000000000000000000000000000000000000000000000000000000000000000000000000000000000000000000000000000000000000000000000000000000000000000000000000000000000000000000000000000000000000000",
            "difficulty": "0x00",
            "number": "0x00",
            "gasLimit": "0x989680",
            "gasUsed": "0x00",
            "timestamp": "0x00",
            "extraData": "0x00",
            "mixHash": "0x0000000000000000000000000000000000000000000000000000000000000000",
            "nonce": "0x0000000000000000",
            "baseFeePerGas": "0x0b",
            "withdrawalsRoot": "0x56e81f171bcc55a6ff8345e692c0f86e5b48e01b996cadc001622fb5e363b421",
            "blobGasUsed": "0x00",
            "excessBlobGas": "0x00",
            "parentBeaconBlockRoot": "0x0000000000000000000000000000000000000000000000000000000000000000",
            "hash": "0x79559dc9d367c845a2bb9caee00438614dbc735e7cfdf2b62d3f1876a8606ed7"
        },
        "pre": {
            "0x000f3df6d732807ef1319fb7b8bb8522d0beac02": {
                "nonce": "0x01",
                "balance": "0x00",
                "code": "0x3373fffffffffffffffffffffffffffffffffffffffe14604d57602036146024575f5ffd5b5f35801560495762001fff810690815414603c575f5ffd5b62001fff01545f5260205ff35b5f5ffd5b62001fff42064281555f359062001fff015500",
                "storage": {}
            },
            "0xca70835d5e9b8c8e139a9693ab05705d291f86bb": {
                "nonce": "0x00",
                "balance": "0x0de0b6b3a7640000",
                "code": "0x600c600060006000600073a8592f39b32943f9f464090497722b4f9c15f59862030d40f1506000516000556000600052600c60006000600073a8592f39b32943f9f464090497722b4f9c15f59862030d40f4506000516001556000600052600c60006000600073a8592f39b32943f9f464090497722b4f9c15f59862030d40fa506000516002556000600052600c600060006000600073a8592f39b32943f9f464090497722b4f9c15f59862030d40f2506000516003556000600052600c600060006000600073028cdafc3d5d27d006ffb88e1ecf2fa4b412ee4f62030d40f1506000516004556000600052600c60006000600073028cdafc3d5d27d006ffb88e1ecf2fa4b412ee4f62030d40f4506000516005556000600052600c60006000600073028cdafc3d5d27d006ffb88e1ecf2fa4b412ee4f62030d40fa506000516006556000600052600c600060006000600073028cdafc3d5d27d006ffb88e1ecf2fa4b412ee4f62030d40f25060005160075500",
                "storage": {}
            },
            "0xa8592f39b32943f9f464090497722b4f9c15f598": {
                "nonce": "0x00",
                "balance": "0x0de0b6b3a7640000",
                "code": "0x7f11223344556677889910111213141516171819202122232425262728293031326000527f333435363738394041424344454647484950515253545556575859606162636460205260406000f300",
                "storage": {}
            },
            "0x028cdafc3d5d27d006ffb88e1ecf2fa4b412ee4f": {
                "nonce": "0x00",
                "balance": "0x0de0b6b3a7640000",
                "code": "0x7f11223344556677889910111213141516171819202122232425262728293031326000527f333435363738394041424344454647484950515253545556575859606162636460205260406000fd00",
                "storage": {}
            },
            "0xebaf50debf10e08302fe4280c32df010463ca297": {
                "nonce": "0x00",
                "balance": "0x0de0b6b3a7640000",
                "code": "0x",
                "storage": {}
            }
        },
        "postState": {
            "0x000f3df6d732807ef1319fb7b8bb8522d0beac02": {
                "nonce": "0x01",
                "balance": "0x00",
                "code": "0x3373fffffffffffffffffffffffffffffffffffffffe14604d57602036146024575f5ffd5b5f35801560495762001fff810690815414603c575f5ffd5b62001fff01545f5260205ff35b5f5ffd5b62001fff42064281555f359062001fff015500",
                "storage": {
                    "0x03e8": "0x03e8"
                }
            },
            "0xca70835d5e9b8c8e139a9693ab05705d291f86bb": {
                "nonce": "0x00",
                "balance": "0x0de0b6b3a7640001",
                "code": "0x600c600060006000600073a8592f39b32943f9f464090497722b4f9c15f59862030d40f1506000516000556000600052600c60006000600073a8592f39b32943f9f464090497722b4f9c15f59862030d40f4506000516001556000600052600c60006000600073a8592f39b32943f9f464090497722b4f9c15f59862030d40fa506000516002556000600052600c600060006000600073a8592f39b32943f9f464090497722b4f9c15f59862030d40f2506000516003556000600052600c600060006000600073028cdafc3d5d27d006ffb88e1ecf2fa4b412ee4f62030d40f1506000516004556000600052600c60006000600073028cdafc3d5d27d006ffb88e1ecf2fa4b412ee4f62030d40f4506000516005556000600052600c60006000600073028cdafc3d5d27d006ffb88e1ecf2fa4b412ee4f62030d40fa506000516006556000600052600c600060006000600073028cdafc3d5d27d006ffb88e1ecf2fa4b412ee4f62030d40f25060005160075500",
                "storage": {
                    "0x00": "0x1122334455667788991011120000000000000000000000000000000000000000",
                    "0x01": "0x1122334455667788991011120000000000000000000000000000000000000000",
                    "0x02": "0x1122334455667788991011120000000000000000000000000000000000000000",
                    "0x03": "0x1122334455667788991011120000000000000000000000000000000000000000",
                    "0x04": "0x1122334455667788991011120000000000000000000000000000000000000000",
                    "0x05": "0x1122334455667788991011120000000000000000000000000000000000000000",
                    "0x06": "0x1122334455667788991011120000000000000000000000000000000000000000",
                    "0x07": "0x1122334455667788991011120000000000000000000000000000000000000000"
                }
            },
            "0xa8592f39b32943f9f464090497722b4f9c15f598": {
                "nonce": "0x00",
                "balance": "0x0de0b6b3a7640000",
                "code": "0x7f11223344556677889910111213141516171819202122232425262728293031326000527f333435363738394041424344454647484950515253545556575859606162636460205260406000f300",
                "storage": {}
            },
            "0x028cdafc3d5d27d006ffb88e1ecf2fa4b412ee4f": {
                "nonce": "0x00",
                "balance": "0x0de0b6b3a7640000",
                "code": "0x7f11223344556677889910111213141516171819202122232425262728293031326000527f333435363738394041424344454647484950515253545556575859606162636460205260406000fd00",
                "storage": {}
            },
            "0xebaf50debf10e08302fe4280c32df010463ca297": {
                "nonce": "0x01",
                "balance": "0x0de0b6b3a744d963",
                "code": "0x",
                "storage": {}
            }
        },
        "lastblockhash": "0xff9023311c13ffa7409b4084428fe9393c3642d5ba51a1d8c7054d1afa8cf626",
        "config": {
            "network": "Cancun",
            "chainid": "0x01",
            "blobSchedule": {
                "Cancun": {
                    "target": "0x03",
                    "max": "0x06",
                    "baseFeeUpdateFraction": "0x32f0ed"
                }
            }
        },
        "genesisRLP": "0xf9023bf90235a00000000000000000000000000000000000000000000000000000000000000000a01dcc4de8dec75d7aab85b567b6ccd41ad312451b948a7413f0a142fd40d49347940000000000000000000000000000000000000000a0345559b783833ccb247a87f99e0ad2a7ab3ba0a320d0a2ac4dc186b88ec1f31ba056e81f171bcc55a6ff8345e692c0f86e5b48e01b996cadc001622fb5e363b421a056e81f171bcc55a6ff8345e692c0f86e5b48e01b996cadc001622fb5e363b421b9010000000000000000000000000000000000000000000000000000000000000000000000000000000000000000000000000000000000000000000000000000000000000000000000000000000000000000000000000000000000000000000000000000000000000000000000000000000000000000000000000000000000000000000000000000000000000000000000000000000000000000000000000000000000000000000000000000000000000000000000000000000000000000000000000000000000000000000000000000000000000000000000000000000000000000000000000000000000000000000000000000000000000000000000000000000000808083989680808000a000000000000000000000000000000000000000000000000000000000000000008800000000000000000ba056e81f171bcc55a6ff8345e692c0f86e5b48e01b996cadc001622fb5e363b4218080a00000000000000000000000000000000000000000000000000000000000000000c0c0c0",
        "blocks": [
            {
                "blockHeader": {
                    "parentHash": "0x79559dc9d367c845a2bb9caee00438614dbc735e7cfdf2b62d3f1876a8606ed7",
                    "uncleHash": "0x1dcc4de8dec75d7aab85b567b6ccd41ad312451b948a7413f0a142fd40d49347",
                    "coinbase": "0x2adc25665018aa1fe0e6bc666dac8fc2697ff9ba",
                    "stateRoot": "0x1d72ad32c14369918d9b9b14bee99be4ee334fbd0b5211cca154536c71af447d",
                    "transactionsTrie": "0xf31c5892fb696547d594127364867eb81fb172400067aa95868e04155ca2c6a9",
                    "receiptTrie": "0xd9a7f74c3db2686d2bb894542a157987634f1552a30697be850fb416e3cb10f4",
                    "bloom": "0x00000000000000000000000000000000000000000000000000000000000000000000000000000000000000000000000000000000000000000000000000000000000000000000000000000000000000000000000000000000000000000000000000000000000000000000000000000000000000000000000000000000000000000000000000000000000000000000000000000000000000000000000000000000000000000000000000000000000000000000000000000000000000000000000000000000000000000000000000000000000000000000000000000000000000000000000000000000000000000000000000000000000000000000000000000000",
                    "difficulty": "0x00",
                    "number": "0x01",
                    "gasLimit": "0x989680",
                    "gasUsed": "0x031d76",
                    "timestamp": "0x03e8",
                    "extraData": "0x00",
                    "mixHash": "0x0000000000000000000000000000000000000000000000000000000000020000",
                    "nonce": "0x0000000000000000",
                    "baseFeePerGas": "0x0a",
                    "withdrawalsRoot": "0x56e81f171bcc55a6ff8345e692c0f86e5b48e01b996cadc001622fb5e363b421",
                    "blobGasUsed": "0x00",
                    "excessBlobGas": "0x00",
                    "parentBeaconBlockRoot": "0x0000000000000000000000000000000000000000000000000000000000000000",
                    "hash": "0xff9023311c13ffa7409b4084428fe9393c3642d5ba51a1d8c7054d1afa8cf626"
                },
                "transactions": [
                    {
                        "type": "0x00",
                        "chainId": "0x01",
                        "nonce": "0x00",
                        "gasPrice": "0x0a",
                        "gasLimit": "0x061a80",
                        "to": "0xca70835d5e9b8c8e139a9693ab05705d291f86bb",
                        "value": "0x01",
                        "data": "0x",
                        "v": "0x26",
                        "r": "0x7118525628a597313b59e68e9a364be3d4243d476f3f539449d2cd5c2a873f92",
                        "s": "0x467982a59474b35375afcc4f4e0d5b2a46f5f0842ea33ffefb34a5d980f3d15d",
                        "sender": "0xebaf50debf10e08302fe4280c32df010463ca297"
                    }
                ],
                "uncleHeaders": [],
                "withdrawals": [],
                "receipts": [
                    {
                        "transactionHash": "0xc4cf41c20f1e8be97f15efaa4dfe58c6fa88e8dc9ac3758eabe47baf3e637e8a",
                        "type": "0x00",
                        "cumulativeGasUsed": "0x031d76",
                        "bloom": "0x00000000000000000000000000000000000000000000000000000000000000000000000000000000000000000000000000000000000000000000000000000000000000000000000000000000000000000000000000000000000000000000000000000000000000000000000000000000000000000000000000000000000000000000000000000000000000000000000000000000000000000000000000000000000000000000000000000000000000000000000000000000000000000000000000000000000000000000000000000000000000000000000000000000000000000000000000000000000000000000000000000000000000000000000000000000",
                        "logs": [],
                        "status": true,
                        "rlp": "0xf901090183031d76b9010000000000000000000000000000000000000000000000000000000000000000000000000000000000000000000000000000000000000000000000000000000000000000000000000000000000000000000000000000000000000000000000000000000000000000000000000000000000000000000000000000000000000000000000000000000000000000000000000000000000000000000000000000000000000000000000000000000000000000000000000000000000000000000000000000000000000000000000000000000000000000000000000000000000000000000000000000000000000000000000000000000000000000000000000000000000c0"
                    }
                ],
                "rlp": "0xf902a3f9023aa079559dc9d367c845a2bb9caee00438614dbc735e7cfdf2b62d3f1876a8606ed7a01dcc4de8dec75d7aab85b567b6ccd41ad312451b948a7413f0a142fd40d49347942adc25665018aa1fe0e6bc666dac8fc2697ff9baa01d72ad32c14369918d9b9b14bee99be4ee334fbd0b5211cca154536c71af447da0f31c5892fb696547d594127364867eb81fb172400067aa95868e04155ca2c6a9a0d9a7f74c3db2686d2bb894542a157987634f1552a30697be850fb416e3cb10f4b901000000000000000000000000000000000000000000000000000000000000000000000000000000000000000000000000000000000000000000000000000000000000000000000000000000000000000000000000000000000000000000000000000000000000000000000000000000000000000000000000000000000000000000000000000000000000000000000000000000000000000000000000000000000000000000000000000000000000000000000000000000000000000000000000000000000000000000000000000000000000000000000000000000000000000000000000000000000000000000000000000000000000000000000000000000000080018398968083031d768203e800a000000000000000000000000000000000000000000000000000000000000200008800000000000000000aa056e81f171bcc55a6ff8345e692c0f86e5b48e01b996cadc001622fb5e363b4218080a00000000000000000000000000000000000000000000000000000000000000000f862f860800a83061a8094ca70835d5e9b8c8e139a9693ab05705d291f86bb018026a07118525628a597313b59e68e9a364be3d4243d476f3f539449d2cd5c2a873f92a0467982a59474b35375afcc4f4e0d5b2a46f5f0842ea33ffefb34a5d980f3d15dc0c0",
                "blocknumber": "1"
            }
        ],
        "sealEngine": "NoProof",
        "_info": {
            "hash": "0x1a8a51d27ccaec7cd740c913889f553aec12cb33711c39f6f0a7e463acb507c1",
            "fixture-format": "blockchain_test",
            "comment": "`execution-specs` generated test",
            "filling-transition-tool": "2.19.0",
            "description": "Https://github.",
            "url": "https://github.com/ethereum/execution-specs/blob/tests-bal@v5.7.0/tests/ported_static/stReturnDataTest/test_subcall_return_more_then_expected.py#L25",
            "metadata": {
                "opcode_count": {}
            }
        }
    }
}