{
    "tests/ported_static/stZeroCallsRevert/test_zero_value_call_to_empty_oog_revert_paris.py::test_zero_value_call_to_empty_oog_revert_paris[fork_Cancun-blockchain_test_from_state_test]": {
        "network": "Cancun",
        "genesisBlockHeader": {
            "parentHash": "0x0000000000000000000000000000000000000000000000000000000000000000",
            "uncleHash": "0x1dcc4de8dec75d7aab85b567b6ccd41ad312451b948a7413f0a142fd40d49347",
            "coinbase": "0x0000000000000000000000000000000000000000",
            "stateRoot": "0xd74647f706bd96185e8886f6381f7923f3664e54132cc7d98f64ed3ea77374d5",
            "transactionsTrie": "0x56e81f171bcc55a6ff8345e692c0f86e5b48e01b996cadc001622fb5e363b421",
            "receiptTrie": "0x56e81f171bcc55a6ff8345e692c0f86e5b48e01b996cadc001622fb5e363b421",
            "bloom": "0x00000000000000000000000000000000000000000000000000000000000000000000000000000000000000000000000000000000000000000000000000000000000000000000000000000000000000000000000000000000000000000000000000000000000000000000000000000000000000000000000000000000000000000000000000000000000000000000000000000000000000000000000000000000000000000000000000000000000000000000000000000000000000000000000000000000000000000000000000000000000000000000000000000000000000000000000000000000000000000000000000000000000000000000000000000000",
            "difficulty": "0x00",
            "number": "0x00",
            "gasLimit": "0x07270e00",
            "gasUsed": "0x00",
            "timestamp": "0x00",
            "extraData": "0x00",
            "mixHash": "0x0000000000000000000000000000000000000000000000000000000000000000",
            "nonce": "0x0000000000000000",
            "baseFeePerGas": "0x0b",
            "withdrawalsRoot": "0x56e81f171bcc55a6ff8345e692c0f86e5b48e01b996cadc001622fb5e363b421",
            "blobGasUsed": "0x00",
            "excessBlobGas": "0x00",
            "parentBeaconBlockRoot": "0x0000000000000000000000000000000000000000000000000000000000000000",
            "hash": "0xefab316853dd76ee9570d3f96ecbe29226d31cb2d709ca67396552b3d9f3ad3b"
        },
        "pre": {
            "0x000f3df6d732807ef1319fb7b8bb8522d0beac02": {
                "nonce": "0x01",
                "balance": "0x00",
                "code": "0x3373fffffffffffffffffffffffffffffffffffffffe14604d57602036146024575f5ffd5b5f35801560495762001fff810690815414603c575f5ffd5b62001fff01545f5260205ff35b5f5ffd5b62001fff42064281555f359062001fff015500",
                "storage": {}
            },
            "0xfaa10b404ab607779993c016cd5da73ae1f29d7e": {
                "nonce": "0x00",
                "balance": "0xe8d4a51000",
                "code": "0x",
                "storage": {}
            },
            "0x3b02666bf6e822d04045c3aae0d6b4d6a64249c3": {
                "nonce": "0x00",
                "balance": "0x00",
                "code": "0x5a600055600060006000600060007376fae819612a29489a1a43208613d8f8557b889861ea60f1600155600c600255600c600355600c6004555a60645500",
                "storage": {}
            },
            "0x76fae819612a29489a1a43208613d8f8557b8898": {
                "nonce": "0x00",
                "balance": "0x0a",
                "code": "0x",
                "storage": {}
            }
        },
        "postState": {
            "0x000f3df6d732807ef1319fb7b8bb8522d0beac02": {
                "nonce": "0x01",
                "balance": "0x00",
                "code": "0x3373fffffffffffffffffffffffffffffffffffffffe14604d57602036146024575f5ffd5b5f35801560495762001fff810690815414603c575f5ffd5b62001fff01545f5260205ff35b5f5ffd5b62001fff42064281555f359062001fff015500",
                "storage": {
                    "0x03e8": "0x03e8"
                }
            },
            "0xfaa10b404ab607779993c016cd5da73ae1f29d7e": {
                "nonce": "0x01",
                "balance": "0xe8d4907690",
                "code": "0x",
                "storage": {}
            },
            "0x3b02666bf6e822d04045c3aae0d6b4d6a64249c3": {
                "nonce": "0x00",
                "balance": "0x00",
                "code": "0x5a600055600060006000600060007376fae819612a29489a1a43208613d8f8557b889861ea60f1600155600c600255600c600355600c6004555a60645500",
                "storage": {}
            },
            "0x76fae819612a29489a1a43208613d8f8557b8898": {
                "nonce": "0x00",
                "balance": "0x0a",
                "code": "0x",
                "storage": {}
            }
        },
        "lastblockhash": "0x92f2a67389c0aaeaffe42de102834375552379c78813459d3948f77335b1f920",
        "config": {
            "network": "Cancun",
            "chainid": "0x01",
            "blobSchedule": {
                "Cancun": {
                    "target": "0x03",
                    "max": "0x06",
                    "baseFeeUpdateFraction": "0x32f0ed"
                }
            }
        },
        "genesisRLP": "0xf9023cf90236a00000000000000000000000000000000000000000000000000000000000000000a01dcc4de8dec75d7aab85b567b6ccd41ad312451b948a7413f0a142fd40d49347940000000000000000000000000000000000000000a0d74647f706bd96185e8886f6381f7923f3664e54132cc7d98f64ed3ea77374d5a056e81f171bcc55a6ff8345e692c0f86e5b48e01b996cadc001622fb5e363b421a056e81f171bcc55a6ff8345e692c0f86e5b48e01b996cadc001622fb5e363b421b901000000000000000000000000000000000000000000000000000000000000000000000000000000000000000000000000000000000000000000000000000000000000000000000000000000000000000000000000000000000000000000000000000000000000000000000000000000000000000000000000000000000000000000000000000000000000000000000000000000000000000000000000000000000000000000000000000000000000000000000000000000000000000000000000000000000000000000000000000000000000000000000000000000000000000000000000000000000000000000000000000000000000000000000000000000000080808407270e00808000a000000000000000000000000000000000000000000000000000000000000000008800000000000000000ba056e81f171bcc55a6ff8345e692c0f86e5b48e01b996cadc001622fb5e363b4218080a00000000000000000000000000000000000000000000000000000000000000000c0c0c0",
        "blocks": [
            {
                "blockHeader": {
                    "parentHash": "0xefab316853dd76ee9570d3f96ecbe29226d31cb2d709ca67396552b3d9f3ad3b",
                    "uncleHash": "0x1dcc4de8dec75d7aab85b567b6ccd41ad312451b948a7413f0a142fd40d49347",
                    "coinbase": "0x2adc25665018aa1fe0e6bc666dac8fc2697ff9ba",
                    "stateRoot": "0x16bffeef0466bda33e56a1601a50f9d3adaf0fe9aeddf773399fb22d34a9723e",
                    "transactionsTrie": "0x6deebeb867843fae5cee9f33bf1a68c10f04a150c9112c1fb316467a4241bc14",
                    "receiptTrie": "0x54eeafc8891222b787b9c9bfab7e0d99866447dad965b012fa2e09404455ec9d",
                    "bloom": "0x00000000000000000000000000000000000000000000000000000000000000000000000000000000000000000000000000000000000000000000000000000000000000000000000000000000000000000000000000000000000000000000000000000000000000000000000000000000000000000000000000000000000000000000000000000000000000000000000000000000000000000000000000000000000000000000000000000000000000000000000000000000000000000000000000000000000000000000000000000000000000000000000000000000000000000000000000000000000000000000000000000000000000000000000000000000",
                    "difficulty": "0x00",
                    "number": "0x01",
                    "gasLimit": "0x07270e00",
                    "gasUsed": "0x020f58",
                    "timestamp": "0x03e8",
                    "extraData": "0x00",
                    "mixHash": "0x0000000000000000000000000000000000000000000000000000000000020000",
                    "nonce": "0x0000000000000000",
                    "baseFeePerGas": "0x0a",
                    "withdrawalsRoot": "0x56e81f171bcc55a6ff8345e692c0f86e5b48e01b996cadc001622fb5e363b421",
                    "blobGasUsed": "0x00",
                    "excessBlobGas": "0x00",
                    "parentBeaconBlockRoot": "0x0000000000000000000000000000000000000000000000000000000000000000",
                    "hash": "0x92f2a67389c0aaeaffe42de102834375552379c78813459d3948f77335b1f920"
                },
                "transactions": [
                    {
                        "type": "0x00",
                        "chainId": "0x01",
                        "nonce": "0x00",
                        "gasPrice": "0x0a",
                        "gasLimit": "0x020f58",
                        "to": "0x3b02666bf6e822d04045c3aae0d6b4d6a64249c3",
                        "value": "0x00",
                        "data": "0x",
                        "v": "0x25",
                        "r": "0x0fed3f98beeee9f09f6850ded347482122c84525a645ece475fca21d18d7e4fb",
                        "s": "0x63bf614b47d982f791f78bea8c420eca73d7e3c1efbed8b30b7e2c7d381ce686",
                        "sender": "0xfaa10b404ab607779993c016cd5da73ae1f29d7e"
                    }
                ],
                "uncleHeaders": [],
                "withdrawals": [],
                "receipts": [
                    {
                        "transactionHash": "0x6bfd4053456cb66c62e87154f732226d8e67a904eadd2b7ec30b6f6f3b084a24",
                        "type": "0x00",
                        "cumulativeGasUsed": "0x020f58",
                        "bloom": "0x00000000000000000000000000000000000000000000000000000000000000000000000000000000000000000000000000000000000000000000000000000000000000000000000000000000000000000000000000000000000000000000000000000000000000000000000000000000000000000000000000000000000000000000000000000000000000000000000000000000000000000000000000000000000000000000000000000000000000000000000000000000000000000000000000000000000000000000000000000000000000000000000000000000000000000000000000000000000000000000000000000000000000000000000000000000",
                        "logs": [],
                        "status": false,
                        "rlp": "0xf901098083020f58b9010000000000000000000000000000000000000000000000000000000000000000000000000000000000000000000000000000000000000000000000000000000000000000000000000000000000000000000000000000000000000000000000000000000000000000000000000000000000000000000000000000000000000000000000000000000000000000000000000000000000000000000000000000000000000000000000000000000000000000000000000000000000000000000000000000000000000000000000000000000000000000000000000000000000000000000000000000000000000000000000000000000000000000000000000000000000c0"
                    }
                ],
                "rlp": "0xf902a4f9023ba0efab316853dd76ee9570d3f96ecbe29226d31cb2d709ca67396552b3d9f3ad3ba01dcc4de8dec75d7aab85b567b6ccd41ad312451b948a7413f0a142fd40d49347942adc25665018aa1fe0e6bc666dac8fc2697ff9baa016bffeef0466bda33e56a1601a50f9d3adaf0fe9aeddf773399fb22d34a9723ea06deebeb867843fae5cee9f33bf1a68c10f04a150c9112c1fb316467a4241bc14a054eeafc8891222b787b9c9bfab7e0d99866447dad965b012fa2e09404455ec9db901000000000000000000000000000000000000000000000000000000000000000000000000000000000000000000000000000000000000000000000000000000000000000000000000000000000000000000000000000000000000000000000000000000000000000000000000000000000000000000000000000000000000000000000000000000000000000000000000000000000000000000000000000000000000000000000000000000000000000000000000000000000000000000000000000000000000000000000000000000000000000000000000000000000000000000000000000000000000000000000000000000000000000000000000000000000080018407270e0083020f588203e800a000000000000000000000000000000000000000000000000000000000000200008800000000000000000aa056e81f171bcc55a6ff8345e692c0f86e5b48e01b996cadc001622fb5e363b4218080a00000000000000000000000000000000000000000000000000000000000000000f862f860800a83020f58943b02666bf6e822d04045c3aae0d6b4d6a64249c3808025a00fed3f98beeee9f09f6850ded347482122c84525a645ece475fca21d18d7e4fba063bf614b47d982f791f78bea8c420eca73d7e3c1efbed8b30b7e2c7d381ce686c0c0",
                "blocknumber": "1"
            }
        ],
        "sealEngine": "NoProof",
        "_info": {
            "hash": "0x312b51478d1b8349c407afa17ff6125fe4977475dc089a18a347b54b88eb62d8",
            "fixture-format": "blockchain_test",
            "comment": "`execution-specs` generated test",
            "filling-transition-tool": "2.19.0",
            "description": "Test_zero_value_call_to_empty_oog_revert_paris.",
            "url": "https://github.com/ethereum/execution-specs/blob/tests-bal@v5.7.0/tests/ported_static/stZeroCallsRevert/test_zero_value_call_to_empty_oog_revert_paris.py#L25",
            "metadata": {
                "opcode_count": {}
            }
        }
    }
}