{
    "tests/static/state_tests/stEIP150singleCodeGasPrices/RawCallGasValueTransferMemoryAskFiller.json::RawCallGasValueTransferMemoryAsk[fork_Cancun-state_test-]": {
        "env": {
            "currentCoinbase": "0x2adc25665018aa1fe0e6bc666dac8fc2697ff9ba",
            "currentGasLimit": "0x989680",
            "currentNumber": "0x01",
            "currentTimestamp": "0x03e8",
            "currentRandom": "0x0000000000000000000000000000000000000000000000000000000000020000",
            "currentDifficulty": "0x00",
            "currentBaseFee": "0x0a",
            "currentExcessBlobGas": "0x00"
        },
        "pre": {
            "0x4c1822f6faf8691fd0e1e728516a9666a6731ffa": {
                "nonce": "0x00",
                "balance": "0xe8d4a51000",
                "code": "0x",
                "storage": {}
            },
            "0x6520da3968756705fcc0ea4d2fc875e1852f6560": {
                "nonce": "0x00",
                "balance": "0x00",
                "code": "0x5a60025500",
                "storage": {}
            },
            "0x6520da3968756705fcc0ea4d2fc875e1852f6660": {
                "nonce": "0x00",
                "balance": "0x00",
                "code": "0x5a600052611f406000611f406000600a736520da3968756705fcc0ea4d2fc875e1852f6560622dc6c0f1505a6000510360015500",
                "storage": {}
            }
        },
        "transaction": {
            "nonce": "0x00",
            "gasPrice": "0x0a",
            "gasLimit": [
                "0x07a120"
            ],
            "to": "0x6520da3968756705fcc0ea4d2fc875e1852f6660",
            "value": [
                "0x0a"
            ],
            "data": [
                "0x"
            ],
            "sender": "0x4c1822f6faf8691fd0e1e728516a9666a6731ffa",
            "secretKey": "0xcf47980adfe8c77de79c82346520da3968756705fcc0ea4d2fc875e1852f6560"
        },
        "post": {
            "Cancun": [
                {
                    "hash": "0xcb0a95fe383fe264007a3d10da807d986ba0a166892173773b96a2b37e9d5250",
                    "logs": "0x1dcc4de8dec75d7aab85b567b6ccd41ad312451b948a7413f0a142fd40d49347",
                    "txbytes": "0xf860800a8307a120946520da3968756705fcc0ea4d2fc875e1852f66600a8025a0760748b57be4461559191bdbe24185674994ecd5b97ed04575f356b1fe152d25a0084710547fba0b9c07782c9780295065f6a6a824583056cd82a665d1ed027200",
                    "indexes": {
                        "data": 0,
                        "gas": 0,
                        "value": 0
                    },
                    "state": {
                        "0x4c1822f6faf8691fd0e1e728516a9666a6731ffa": {
                            "nonce": "0x01",
                            "balance": "0xe8d4998dca",
                            "code": "0x",
                            "storage": {}
                        },
                        "0x6520da3968756705fcc0ea4d2fc875e1852f6560": {
                            "nonce": "0x00",
                            "balance": "0x0a",
                            "code": "0x5a60025500",
                            "storage": {
                                "0x02": "0x070ac4"
                            }
                        },
                        "0x6520da3968756705fcc0ea4d2fc875e1852f6660": {
                            "nonce": "0x00",
                            "balance": "0x00",
                            "code": "0x5a600052611f406000611f406000600a736520da3968756705fcc0ea4d2fc875e1852f6560622dc6c0f1505a6000510360015500",
                            "storage": {
                                "0x01": "0x7e34"
                            }
                        }
                    }
                }
            ]
        },
        "config": {
            "blobSchedule": {
                "Cancun": {
                    "target": "0x03",
                    "max": "0x06",
                    "baseFeeUpdateFraction": "0x32f0ed"
                }
            },
            "chainid": "0x01"
        },
        "_info": {
            "hash": "0xe2642beec24735eddfbebe07e147e793b44fe6484c027a09c2978235ba84df1a",
            "comment": "`execution-spec-tests` generated test",
            "filling-transition-tool": "ethereum-spec-evm-resolver 0.0.5",
            "description": "No description available - add a docstring to the python test class or function.",
            "url": "",
            "fixture-format": "state_test",
            "reference-spec": "https://github.com/ethereum/EIPs/blob/master/",
            "reference-spec-version": "",
            "eels-resolution": {
                "git-url": "https://github.com/ethereum/execution-specs.git",
                "branch": "forks/bpos",
                "commit": "7aacb2c54111391af5e98c505d5010b5698a770f"
            }
        }
    },
    "tests/static/state_tests/stEIP150singleCodeGasPrices/RawCallGasValueTransferMemoryAskFiller.json::RawCallGasValueTransferMemoryAsk[fork_Osaka-state_test-]": {
        "env": {
            "currentCoinbase": "0x2adc25665018aa1fe0e6bc666dac8fc2697ff9ba",
            "currentGasLimit": "0x989680",
            "currentNumber": "0x01",
            "currentTimestamp": "0x03e8",
            "currentRandom": "0x0000000000000000000000000000000000000000000000000000000000020000",
            "currentDifficulty": "0x00",
            "currentBaseFee": "0x0a",
            "currentExcessBlobGas": "0x00"
        },
        "pre": {
            "0x4c1822f6faf8691fd0e1e728516a9666a6731ffa": {
                "nonce": "0x00",
                "balance": "0xe8d4a51000",
                "code": "0x",
                "storage": {}
            },
            "0x6520da3968756705fcc0ea4d2fc875e1852f6560": {
                "nonce": "0x00",
                "balance": "0x00",
                "code": "0x5a60025500",
                "storage": {}
            },
            "0x6520da3968756705fcc0ea4d2fc875e1852f6660": {
                "nonce": "0x00",
                "balance": "0x00",
                "code": "0x5a600052611f406000611f406000600a736520da3968756705fcc0ea4d2fc875e1852f6560622dc6c0f1505a6000510360015500",
                "storage": {}
            }
        },
        "transaction": {
            "nonce": "0x00",
            "gasPrice": "0x0a",
            "gasLimit": [
                "0x07a120"
            ],
            "to": "0x6520da3968756705fcc0ea4d2fc875e1852f6660",
            "value": [
                "0x0a"
            ],
            "data": [
                "0x"
            ],
            "sender": "0x4c1822f6faf8691fd0e1e728516a9666a6731ffa",
            "secretKey": "0xcf47980adfe8c77de79c82346520da3968756705fcc0ea4d2fc875e1852f6560"
        },
        "post": {
            "Osaka": [
                {
                    "hash": "0xcb0a95fe383fe264007a3d10da807d986ba0a166892173773b96a2b37e9d5250",
                    "logs": "0x1dcc4de8dec75d7aab85b567b6ccd41ad312451b948a7413f0a142fd40d49347",
                    "txbytes": "0xf860800a8307a120946520da3968756705fcc0ea4d2fc875e1852f66600a8025a0760748b57be4461559191bdbe24185674994ecd5b97ed04575f356b1fe152d25a0084710547fba0b9c07782c9780295065f6a6a824583056cd82a665d1ed027200",
                    "indexes": {
                        "data": 0,
                        "gas": 0,
                        "value": 0
                    },
                    "state": {
                        "0x4c1822f6faf8691fd0e1e728516a9666a6731ffa": {
                            "nonce": "0x01",
                            "balance": "0xe8d4998dca",
                            "code": "0x",
                            "storage": {}
                        },
                        "0x6520da3968756705fcc0ea4d2fc875e1852f6560": {
                            "nonce": "0x00",
                            "balance": "0x0a",
                            "code": "0x5a60025500",
                            "storage": {
                                "0x02": "0x070ac4"
                            }
                        },
                        "0x6520da3968756705fcc0ea4d2fc875e1852f6660": {
                            "nonce": "0x00",
                            "balance": "0x00",
                            "code": "0x5a600052611f406000611f406000600a736520da3968756705fcc0ea4d2fc875e1852f6560622dc6c0f1505a6000510360015500",
                            "storage": {
                                "0x01": "0x7e34"
                            }
                        }
                    }
                }
            ]
        },
        "config": {
            "blobSchedule": {
                "Cancun": {
                    "target": "0x03",
                    "max": "0x06",
                    "baseFeeUpdateFraction": "0x32f0ed"
                },
                "Prague": {
                    "target": "0x06",
                    "max": "0x09",
                    "baseFeeUpdateFraction": "0x4c6964"
                },
                "Osaka": {
                    "target": "0x06",
                    "max": "0x09",
                    "baseFeeUpdateFraction": "0x4c6964"
                }
            },
            "chainid": "0x01"
        },
        "_info": {
            "hash": "0x1d027262b18a0c0ec37d1ac5ba5e72c3e78722398c7ba2dac45728847934815d",
            "comment": "`execution-spec-tests` generated test",
            "filling-transition-tool": "ethereum-spec-evm-resolver 0.0.5",
            "description": "No description available - add a docstring to the python test class or function.",
            "url": "",
            "fixture-format": "state_test",
            "reference-spec": "https://github.com/ethereum/EIPs/blob/master/",
            "reference-spec-version": "",
            "eels-resolution": {
                "git-url": "https://github.com/ethereum/execution-specs.git",
                "branch": "forks/bpos",
                "commit": "7aacb2c54111391af5e98c505d5010b5698a770f"
            }
        }
    },
    "tests/static/state_tests/stEIP150singleCodeGasPrices/RawCallGasValueTransferMemoryAskFiller.json::RawCallGasValueTransferMemoryAsk[fork_Prague-state_test-]": {
        "env": {
            "currentCoinbase": "0x2adc25665018aa1fe0e6bc666dac8fc2697ff9ba",
            "currentGasLimit": "0x989680",
            "currentNumber": "0x01",
            "currentTimestamp": "0x03e8",
            "currentRandom": "0x0000000000000000000000000000000000000000000000000000000000020000",
            "currentDifficulty": "0x00",
            "currentBaseFee": "0x0a",
            "currentExcessBlobGas": "0x00"
        },
        "pre": {
            "0x4c1822f6faf8691fd0e1e728516a9666a6731ffa": {
                "nonce": "0x00",
                "balance": "0xe8d4a51000",
                "code": "0x",
                "storage": {}
            },
            "0x6520da3968756705fcc0ea4d2fc875e1852f6560": {
                "nonce": "0x00",
                "balance": "0x00",
                "code": "0x5a60025500",
                "storage": {}
            },
            "0x6520da3968756705fcc0ea4d2fc875e1852f6660": {
                "nonce": "0x00",
                "balance": "0x00",
                "code": "0x5a600052611f406000611f406000600a736520da3968756705fcc0ea4d2fc875e1852f6560622dc6c0f1505a6000510360015500",
                "storage": {}
            }
        },
        "transaction": {
            "nonce": "0x00",
            "gasPrice": "0x0a",
            "gasLimit": [
                "0x07a120"
            ],
            "to": "0x6520da3968756705fcc0ea4d2fc875e1852f6660",
            "value": [
                "0x0a"
            ],
            "data": [
                "0x"
            ],
            "sender": "0x4c1822f6faf8691fd0e1e728516a9666a6731ffa",
            "secretKey": "0xcf47980adfe8c77de79c82346520da3968756705fcc0ea4d2fc875e1852f6560"
        },
        "post": {
            "Prague": [
                {
                    "hash": "0xcb0a95fe383fe264007a3d10da807d986ba0a166892173773b96a2b37e9d5250",
                    "logs": "0x1dcc4de8dec75d7aab85b567b6ccd41ad312451b948a7413f0a142fd40d49347",
                    "txbytes": "0xf860800a8307a120946520da3968756705fcc0ea4d2fc875e1852f66600a8025a0760748b57be4461559191bdbe24185674994ecd5b97ed04575f356b1fe152d25a0084710547fba0b9c07782c9780295065f6a6a824583056cd82a665d1ed027200",
                    "indexes": {
                        "data": 0,
                        "gas": 0,
                        "value": 0
                    },
                    "state": {
                        "0x4c1822f6faf8691fd0e1e728516a9666a6731ffa": {
                            "nonce": "0x01",
                            "balance": "0xe8d4998dca",
                            "code": "0x",
                            "storage": {}
                        },
                        "0x6520da3968756705fcc0ea4d2fc875e1852f6560": {
                            "nonce": "0x00",
                            "balance": "0x0a",
                            "code": "0x5a60025500",
                            "storage": {
                                "0x02": "0x070ac4"
                            }
                        },
                        "0x6520da3968756705fcc0ea4d2fc875e1852f6660": {
                            "nonce": "0x00",
                            "balance": "0x00",
                            "code": "0x5a600052611f406000611f406000600a736520da3968756705fcc0ea4d2fc875e1852f6560622dc6c0f1505a6000510360015500",
                            "storage": {
                                "0x01": "0x7e34"
                            }
                        }
                    }
                }
            ]
        },
        "config": {
            "blobSchedule": {
                "Cancun": {
                    "target": "0x03",
                    "max": "0x06",
                    "baseFeeUpdateFraction": "0x32f0ed"
                },
                "Prague": {
                    "target": "0x06",
                    "max": "0x09",
                    "baseFeeUpdateFraction": "0x4c6964"
                }
            },
            "chainid": "0x01"
        },
        "_info": {
            "hash": "0x2e2bff2a469d20d15fe1133f773e940c444895132621544209f170eb84725f87",
            "comment": "`execution-spec-tests` generated test",
            "filling-transition-tool": "ethereum-spec-evm-resolver 0.0.5",
            "description": "No description available - add a docstring to the python test class or function.",
            "url": "",
            "fixture-format": "state_test",
            "reference-spec": "https://github.com/ethereum/EIPs/blob/master/",
            "reference-spec-version": "",
            "eels-resolution": {
                "git-url": "https://github.com/ethereum/execution-specs.git",
                "branch": "forks/bpos",
                "commit": "7aacb2c54111391af5e98c505d5010b5698a770f"
            }
        }
    }
}