{
    "tests/static/state_tests/stEIP150singleCodeGasPrices/RawCreateGasFiller.json::RawCreateGas[fork_Cancun-state_test-]": {
        "env": {
            "currentCoinbase": "0x2adc25665018aa1fe0e6bc666dac8fc2697ff9ba",
            "currentGasLimit": "0x989680",
            "currentNumber": "0x01",
            "currentTimestamp": "0x03e8",
            "currentRandom": "0x0000000000000000000000000000000000000000000000000000000000020000",
            "currentDifficulty": "0x00",
            "currentBaseFee": "0x0a",
            "currentExcessBlobGas": "0x00"
        },
        "pre": {
            "0xa94f5374fce5edbc8e2a8697c15331677e6ebf0b": {
                "nonce": "0x00",
                "balance": "0xe8d4a51000",
                "code": "0x",
                "storage": {}
            },
            "0xb94f5374fce5edbc8e2a8697c15331677e6ebf0b": {
                "nonce": "0x00",
                "balance": "0x00",
                "code": "0x5a600052600060006000f0505a6000510360015500",
                "storage": {}
            }
        },
        "transaction": {
            "nonce": "0x00",
            "gasPrice": "0x0a",
            "gasLimit": [
                "0x07a120"
            ],
            "to": "0xb94f5374fce5edbc8e2a8697c15331677e6ebf0b",
            "value": [
                "0x00"
            ],
            "data": [
                "0x"
            ],
            "sender": "0xa94f5374fce5edbc8e2a8697c15331677e6ebf0b",
            "secretKey": "0x45a915e4d060149eb4365960e6a7a45f334393093061116b197e3240065ff2d8"
        },
        "post": {
            "Cancun": [
                {
                    "hash": "0x98ce7c12e0f7fe9f632f72bdf38d26a5e92b94f65fb6b04918224bffaa97e1ae",
                    "logs": "0x1dcc4de8dec75d7aab85b567b6ccd41ad312451b948a7413f0a142fd40d49347",
                    "txbytes": "0xf860800a8307a12094b94f5374fce5edbc8e2a8697c15331677e6ebf0b808025a013f976ff500828738471445edd2ab4acd7a8337e07ddbe504c73269b322f191fa01aa189e370c80db3699dcdfa6fca006c19453b0ccc5d4506c4d117516bf95c8f",
                    "indexes": {
                        "data": 0,
                        "gas": 0,
                        "value": 0
                    },
                    "state": {
                        "0xa94f5374fce5edbc8e2a8697c15331677e6ebf0b": {
                            "nonce": "0x01",
                            "balance": "0xe8d4999900",
                            "code": "0x",
                            "storage": {}
                        },
                        "0xb94f5374fce5edbc8e2a8697c15331677e6ebf0b": {
                            "nonce": "0x01",
                            "balance": "0x00",
                            "code": "0x5a600052600060006000f0505a6000510360015500",
                            "storage": {
                                "0x01": "0x7d16"
                            }
                        },
                        "0xf1ecf98489fa9ed60a664fc4998db699cfa39d40": {
                            "nonce": "0x01",
                            "balance": "0x00",
                            "code": "0x",
                            "storage": {}
                        }
                    }
                }
            ]
        },
        "config": {
            "blobSchedule": {
                "Cancun": {
                    "target": "0x03",
                    "max": "0x06",
                    "baseFeeUpdateFraction": "0x32f0ed"
                }
            },
            "chainid": "0x01"
        },
        "_info": {
            "hash": "0x24d60ab12d8368c586719888bcf3f64e5c7ae083ba39012b05c3590a5b2ebf50",
            "comment": "`execution-spec-tests` generated test",
            "filling-transition-tool": "ethereum-spec-evm-resolver 0.0.5",
            "description": "No description available - add a docstring to the python test class or function.",
            "url": "",
            "fixture-format": "state_test",
            "reference-spec": "https://github.com/ethereum/EIPs/blob/master/",
            "reference-spec-version": "",
            "eels-resolution": {
                "git-url": "https://github.com/marioevz/execution-specs.git",
                "branch": "forks/bpo1",
                "commit": "3387e5f4aedfe99becfdc39b444d6371e25e0924"
            }
        }
    },
    "tests/static/state_tests/stEIP150singleCodeGasPrices/RawCreateGasFiller.json::RawCreateGas[fork_Osaka-state_test-]": {
        "env": {
            "currentCoinbase": "0x2adc25665018aa1fe0e6bc666dac8fc2697ff9ba",
            "currentGasLimit": "0x989680",
            "currentNumber": "0x01",
            "currentTimestamp": "0x03e8",
            "currentRandom": "0x0000000000000000000000000000000000000000000000000000000000020000",
            "currentDifficulty": "0x00",
            "currentBaseFee": "0x0a",
            "currentExcessBlobGas": "0x00"
        },
        "pre": {
            "0xa94f5374fce5edbc8e2a8697c15331677e6ebf0b": {
                "nonce": "0x00",
                "balance": "0xe8d4a51000",
                "code": "0x",
                "storage": {}
            },
            "0xb94f5374fce5edbc8e2a8697c15331677e6ebf0b": {
                "nonce": "0x00",
                "balance": "0x00",
                "code": "0x5a600052600060006000f0505a6000510360015500",
                "storage": {}
            }
        },
        "transaction": {
            "nonce": "0x00",
            "gasPrice": "0x0a",
            "gasLimit": [
                "0x07a120"
            ],
            "to": "0xb94f5374fce5edbc8e2a8697c15331677e6ebf0b",
            "value": [
                "0x00"
            ],
            "data": [
                "0x"
            ],
            "sender": "0xa94f5374fce5edbc8e2a8697c15331677e6ebf0b",
            "secretKey": "0x45a915e4d060149eb4365960e6a7a45f334393093061116b197e3240065ff2d8"
        },
        "post": {
            "Osaka": [
                {
                    "hash": "0x98ce7c12e0f7fe9f632f72bdf38d26a5e92b94f65fb6b04918224bffaa97e1ae",
                    "logs": "0x1dcc4de8dec75d7aab85b567b6ccd41ad312451b948a7413f0a142fd40d49347",
                    "txbytes": "0xf860800a8307a12094b94f5374fce5edbc8e2a8697c15331677e6ebf0b808025a013f976ff500828738471445edd2ab4acd7a8337e07ddbe504c73269b322f191fa01aa189e370c80db3699dcdfa6fca006c19453b0ccc5d4506c4d117516bf95c8f",
                    "indexes": {
                        "data": 0,
                        "gas": 0,
                        "value": 0
                    },
                    "state": {
                        "0xa94f5374fce5edbc8e2a8697c15331677e6ebf0b": {
                            "nonce": "0x01",
                            "balance": "0xe8d4999900",
                            "code": "0x",
                            "storage": {}
                        },
                        "0xb94f5374fce5edbc8e2a8697c15331677e6ebf0b": {
                            "nonce": "0x01",
                            "balance": "0x00",
                            "code": "0x5a600052600060006000f0505a6000510360015500",
                            "storage": {
                                "0x01": "0x7d16"
                            }
                        },
                        "0xf1ecf98489fa9ed60a664fc4998db699cfa39d40": {
                            "nonce": "0x01",
                            "balance": "0x00",
                            "code": "0x",
                            "storage": {}
                        }
                    }
                }
            ]
        },
        "config": {
            "blobSchedule": {
                "Cancun": {
                    "target": "0x03",
                    "max": "0x06",
                    "baseFeeUpdateFraction": "0x32f0ed"
                },
                "Prague": {
                    "target": "0x06",
                    "max": "0x09",
                    "baseFeeUpdateFraction": "0x4c6964"
                },
                "Osaka": {
                    "target": "0x06",
                    "max": "0x09",
                    "baseFeeUpdateFraction": "0x4c6964"
                }
            },
            "chainid": "0x01"
        },
        "_info": {
            "hash": "0xa805ca25fea9064b8d672f16b59bfa25f203990a873ee91883c8257b158b57bd",
            "comment": "`execution-spec-tests` generated test",
            "filling-transition-tool": "ethereum-spec-evm-resolver 0.0.5",
            "description": "No description available - add a docstring to the python test class or function.",
            "url": "",
            "fixture-format": "state_test",
            "reference-spec": "https://github.com/ethereum/EIPs/blob/master/",
            "reference-spec-version": "",
            "eels-resolution": {
                "git-url": "https://github.com/marioevz/execution-specs.git",
                "branch": "forks/bpo1",
                "commit": "3387e5f4aedfe99becfdc39b444d6371e25e0924"
            }
        }
    },
    "tests/static/state_tests/stEIP150singleCodeGasPrices/RawCreateGasFiller.json::RawCreateGas[fork_Prague-state_test-]": {
        "env": {
            "currentCoinbase": "0x2adc25665018aa1fe0e6bc666dac8fc2697ff9ba",
            "currentGasLimit": "0x989680",
            "currentNumber": "0x01",
            "currentTimestamp": "0x03e8",
            "currentRandom": "0x0000000000000000000000000000000000000000000000000000000000020000",
            "currentDifficulty": "0x00",
            "currentBaseFee": "0x0a",
            "currentExcessBlobGas": "0x00"
        },
        "pre": {
            "0xa94f5374fce5edbc8e2a8697c15331677e6ebf0b": {
                "nonce": "0x00",
                "balance": "0xe8d4a51000",
                "code": "0x",
                "storage": {}
            },
            "0xb94f5374fce5edbc8e2a8697c15331677e6ebf0b": {
                "nonce": "0x00",
                "balance": "0x00",
                "code": "0x5a600052600060006000f0505a6000510360015500",
                "storage": {}
            }
        },
        "transaction": {
            "nonce": "0x00",
            "gasPrice": "0x0a",
            "gasLimit": [
                "0x07a120"
            ],
            "to": "0xb94f5374fce5edbc8e2a8697c15331677e6ebf0b",
            "value": [
                "0x00"
            ],
            "data": [
                "0x"
            ],
            "sender": "0xa94f5374fce5edbc8e2a8697c15331677e6ebf0b",
            "secretKey": "0x45a915e4d060149eb4365960e6a7a45f334393093061116b197e3240065ff2d8"
        },
        "post": {
            "Prague": [
                {
                    "hash": "0x98ce7c12e0f7fe9f632f72bdf38d26a5e92b94f65fb6b04918224bffaa97e1ae",
                    "logs": "0x1dcc4de8dec75d7aab85b567b6ccd41ad312451b948a7413f0a142fd40d49347",
                    "txbytes": "0xf860800a8307a12094b94f5374fce5edbc8e2a8697c15331677e6ebf0b808025a013f976ff500828738471445edd2ab4acd7a8337e07ddbe504c73269b322f191fa01aa189e370c80db3699dcdfa6fca006c19453b0ccc5d4506c4d117516bf95c8f",
                    "indexes": {
                        "data": 0,
                        "gas": 0,
                        "value": 0
                    },
                    "state": {
                        "0xa94f5374fce5edbc8e2a8697c15331677e6ebf0b": {
                            "nonce": "0x01",
                            "balance": "0xe8d4999900",
                            "code": "0x",
                            "storage": {}
                        },
                        "0xb94f5374fce5edbc8e2a8697c15331677e6ebf0b": {
                            "nonce": "0x01",
                            "balance": "0x00",
                            "code": "0x5a600052600060006000f0505a6000510360015500",
                            "storage": {
                                "0x01": "0x7d16"
                            }
                        },
                        "0xf1ecf98489fa9ed60a664fc4998db699cfa39d40": {
                            "nonce": "0x01",
                            "balance": "0x00",
                            "code": "0x",
                            "storage": {}
                        }
                    }
                }
            ]
        },
        "config": {
            "blobSchedule": {
                "Cancun": {
                    "target": "0x03",
                    "max": "0x06",
                    "baseFeeUpdateFraction": "0x32f0ed"
                },
                "Prague": {
                    "target": "0x06",
                    "max": "0x09",
                    "baseFeeUpdateFraction": "0x4c6964"
                }
            },
            "chainid": "0x01"
        },
        "_info": {
            "hash": "0xbe2399d6b0f69aa8a0f4a22b7820883a6736f211d4fd3da078903a36ec72938d",
            "comment": "`execution-spec-tests` generated test",
            "filling-transition-tool": "ethereum-spec-evm-resolver 0.0.5",
            "description": "No description available - add a docstring to the python test class or function.",
            "url": "",
            "fixture-format": "state_test",
            "reference-spec": "https://github.com/ethereum/EIPs/blob/master/",
            "reference-spec-version": "",
            "eels-resolution": {
                "git-url": "https://github.com/marioevz/execution-specs.git",
                "branch": "forks/bpo1",
                "commit": "3387e5f4aedfe99becfdc39b444d6371e25e0924"
            }
        }
    }
}