{
    "tests/static/state_tests/stEIP150singleCodeGasPrices/RawCreateFailGasValueTransferFiller.json::RawCreateFailGasValueTransfer[fork_Cancun-state_test-]": {
        "env": {
            "currentCoinbase": "0x2adc25665018aa1fe0e6bc666dac8fc2697ff9ba",
            "currentGasLimit": "0x989680",
            "currentNumber": "0x01",
            "currentTimestamp": "0x03e8",
            "currentRandom": "0x0000000000000000000000000000000000000000000000000000000000020000",
            "currentDifficulty": "0x00",
            "currentBaseFee": "0x0a",
            "currentExcessBlobGas": "0x00"
        },
        "pre": {
            "0xa94f5374fce5edbc8e2a8697c15331677e6ebf0b": {
                "nonce": "0x00",
                "balance": "0xe8d4a51000",
                "code": "0x",
                "storage": {}
            },
            "0xb94f5374fce5edbc8e2a8697c15331677e6ebf0b": {
                "nonce": "0x00",
                "balance": "0x00",
                "code": "0x5a60005260006000600bf0505a6000510360015500",
                "storage": {}
            }
        },
        "transaction": {
            "nonce": "0x00",
            "gasPrice": "0x0a",
            "gasLimit": [
                "0x07a120"
            ],
            "to": "0xb94f5374fce5edbc8e2a8697c15331677e6ebf0b",
            "value": [
                "0x0a"
            ],
            "data": [
                "0x"
            ],
            "sender": "0xa94f5374fce5edbc8e2a8697c15331677e6ebf0b",
            "secretKey": "0x45a915e4d060149eb4365960e6a7a45f334393093061116b197e3240065ff2d8"
        },
        "post": {
            "Cancun": [
                {
                    "hash": "0x4ce59f23b48947be5bfd61f13a69264b7d8b46645eb701020348cca7f51f36bb",
                    "logs": "0x1dcc4de8dec75d7aab85b567b6ccd41ad312451b948a7413f0a142fd40d49347",
                    "txbytes": "0xf860800a8307a12094b94f5374fce5edbc8e2a8697c15331677e6ebf0b0a8025a09c77a1ba5eda7b933308a086b898d66b56c384678b2f44aa0c3fcf19e78d7367a01f72457aed5b61bb91010b9047e85f3bdf4f9df4c7efabca90a355f5327c5dfa",
                    "indexes": {
                        "data": 0,
                        "gas": 0,
                        "value": 0
                    },
                    "state": {
                        "0xa94f5374fce5edbc8e2a8697c15331677e6ebf0b": {
                            "nonce": "0x01",
                            "balance": "0xe8d49998f6",
                            "code": "0x",
                            "storage": {}
                        },
                        "0xb94f5374fce5edbc8e2a8697c15331677e6ebf0b": {
                            "nonce": "0x00",
                            "balance": "0x0a",
                            "code": "0x5a60005260006000600bf0505a6000510360015500",
                            "storage": {
                                "0x01": "0x7d16"
                            }
                        }
                    }
                }
            ]
        },
        "config": {
            "blobSchedule": {
                "Cancun": {
                    "target": "0x03",
                    "max": "0x06",
                    "baseFeeUpdateFraction": "0x32f0ed"
                }
            },
            "chainid": "0x01"
        },
        "_info": {
            "hash": "0x4bb2f3c8b00548551174546be2f26b281a1577fcb628d2dd687e887c0778440b",
            "comment": "`execution-specs` generated test",
            "filling-transition-tool": "2.18.0rc6",
            "description": "No description available - add a docstring to the python test class or function.",
            "url": "",
            "fixture-format": "state_test",
            "reference-spec": "https://github.com/ethereum/EIPs/blob/master/",
            "reference-spec-version": ""
        }
    },
    "tests/static/state_tests/stEIP150singleCodeGasPrices/RawCreateFailGasValueTransferFiller.json::RawCreateFailGasValueTransfer[fork_Osaka-state_test-]": {
        "env": {
            "currentCoinbase": "0x2adc25665018aa1fe0e6bc666dac8fc2697ff9ba",
            "currentGasLimit": "0x989680",
            "currentNumber": "0x01",
            "currentTimestamp": "0x03e8",
            "currentRandom": "0x0000000000000000000000000000000000000000000000000000000000020000",
            "currentDifficulty": "0x00",
            "currentBaseFee": "0x0a",
            "currentExcessBlobGas": "0x00"
        },
        "pre": {
            "0xa94f5374fce5edbc8e2a8697c15331677e6ebf0b": {
                "nonce": "0x00",
                "balance": "0xe8d4a51000",
                "code": "0x",
                "storage": {}
            },
            "0xb94f5374fce5edbc8e2a8697c15331677e6ebf0b": {
                "nonce": "0x00",
                "balance": "0x00",
                "code": "0x5a60005260006000600bf0505a6000510360015500",
                "storage": {}
            }
        },
        "transaction": {
            "nonce": "0x00",
            "gasPrice": "0x0a",
            "gasLimit": [
                "0x07a120"
            ],
            "to": "0xb94f5374fce5edbc8e2a8697c15331677e6ebf0b",
            "value": [
                "0x0a"
            ],
            "data": [
                "0x"
            ],
            "sender": "0xa94f5374fce5edbc8e2a8697c15331677e6ebf0b",
            "secretKey": "0x45a915e4d060149eb4365960e6a7a45f334393093061116b197e3240065ff2d8"
        },
        "post": {
            "Osaka": [
                {
                    "hash": "0x4ce59f23b48947be5bfd61f13a69264b7d8b46645eb701020348cca7f51f36bb",
                    "logs": "0x1dcc4de8dec75d7aab85b567b6ccd41ad312451b948a7413f0a142fd40d49347",
                    "txbytes": "0xf860800a8307a12094b94f5374fce5edbc8e2a8697c15331677e6ebf0b0a8025a09c77a1ba5eda7b933308a086b898d66b56c384678b2f44aa0c3fcf19e78d7367a01f72457aed5b61bb91010b9047e85f3bdf4f9df4c7efabca90a355f5327c5dfa",
                    "indexes": {
                        "data": 0,
                        "gas": 0,
                        "value": 0
                    },
                    "state": {
                        "0xa94f5374fce5edbc8e2a8697c15331677e6ebf0b": {
                            "nonce": "0x01",
                            "balance": "0xe8d49998f6",
                            "code": "0x",
                            "storage": {}
                        },
                        "0xb94f5374fce5edbc8e2a8697c15331677e6ebf0b": {
                            "nonce": "0x00",
                            "balance": "0x0a",
                            "code": "0x5a60005260006000600bf0505a6000510360015500",
                            "storage": {
                                "0x01": "0x7d16"
                            }
                        }
                    }
                }
            ]
        },
        "config": {
            "blobSchedule": {
                "Cancun": {
                    "target": "0x03",
                    "max": "0x06",
                    "baseFeeUpdateFraction": "0x32f0ed"
                },
                "Prague": {
                    "target": "0x06",
                    "max": "0x09",
                    "baseFeeUpdateFraction": "0x4c6964"
                },
                "Osaka": {
                    "target": "0x06",
                    "max": "0x09",
                    "baseFeeUpdateFraction": "0x4c6964"
                }
            },
            "chainid": "0x01"
        },
        "_info": {
            "hash": "0x18546934679697b8b0f57eeac10c6eda7a7a6bd8c74c8e6757c26f662dcde06b",
            "comment": "`execution-specs` generated test",
            "filling-transition-tool": "2.18.0rc6",
            "description": "No description available - add a docstring to the python test class or function.",
            "url": "",
            "fixture-format": "state_test",
            "reference-spec": "https://github.com/ethereum/EIPs/blob/master/",
            "reference-spec-version": ""
        }
    },
    "tests/static/state_tests/stEIP150singleCodeGasPrices/RawCreateFailGasValueTransferFiller.json::RawCreateFailGasValueTransfer[fork_Prague-state_test-]": {
        "env": {
            "currentCoinbase": "0x2adc25665018aa1fe0e6bc666dac8fc2697ff9ba",
            "currentGasLimit": "0x989680",
            "currentNumber": "0x01",
            "currentTimestamp": "0x03e8",
            "currentRandom": "0x0000000000000000000000000000000000000000000000000000000000020000",
            "currentDifficulty": "0x00",
            "currentBaseFee": "0x0a",
            "currentExcessBlobGas": "0x00"
        },
        "pre": {
            "0xa94f5374fce5edbc8e2a8697c15331677e6ebf0b": {
                "nonce": "0x00",
                "balance": "0xe8d4a51000",
                "code": "0x",
                "storage": {}
            },
            "0xb94f5374fce5edbc8e2a8697c15331677e6ebf0b": {
                "nonce": "0x00",
                "balance": "0x00",
                "code": "0x5a60005260006000600bf0505a6000510360015500",
                "storage": {}
            }
        },
        "transaction": {
            "nonce": "0x00",
            "gasPrice": "0x0a",
            "gasLimit": [
                "0x07a120"
            ],
            "to": "0xb94f5374fce5edbc8e2a8697c15331677e6ebf0b",
            "value": [
                "0x0a"
            ],
            "data": [
                "0x"
            ],
            "sender": "0xa94f5374fce5edbc8e2a8697c15331677e6ebf0b",
            "secretKey": "0x45a915e4d060149eb4365960e6a7a45f334393093061116b197e3240065ff2d8"
        },
        "post": {
            "Prague": [
                {
                    "hash": "0x4ce59f23b48947be5bfd61f13a69264b7d8b46645eb701020348cca7f51f36bb",
                    "logs": "0x1dcc4de8dec75d7aab85b567b6ccd41ad312451b948a7413f0a142fd40d49347",
                    "txbytes": "0xf860800a8307a12094b94f5374fce5edbc8e2a8697c15331677e6ebf0b0a8025a09c77a1ba5eda7b933308a086b898d66b56c384678b2f44aa0c3fcf19e78d7367a01f72457aed5b61bb91010b9047e85f3bdf4f9df4c7efabca90a355f5327c5dfa",
                    "indexes": {
                        "data": 0,
                        "gas": 0,
                        "value": 0
                    },
                    "state": {
                        "0xa94f5374fce5edbc8e2a8697c15331677e6ebf0b": {
                            "nonce": "0x01",
                            "balance": "0xe8d49998f6",
                            "code": "0x",
                            "storage": {}
                        },
                        "0xb94f5374fce5edbc8e2a8697c15331677e6ebf0b": {
                            "nonce": "0x00",
                            "balance": "0x0a",
                            "code": "0x5a60005260006000600bf0505a6000510360015500",
                            "storage": {
                                "0x01": "0x7d16"
                            }
                        }
                    }
                }
            ]
        },
        "config": {
            "blobSchedule": {
                "Cancun": {
                    "target": "0x03",
                    "max": "0x06",
                    "baseFeeUpdateFraction": "0x32f0ed"
                },
                "Prague": {
                    "target": "0x06",
                    "max": "0x09",
                    "baseFeeUpdateFraction": "0x4c6964"
                }
            },
            "chainid": "0x01"
        },
        "_info": {
            "hash": "0x4eeee7cd24531fa3ed29d2f9a5463457d1aa5ad4f41e59badbc8e2a9d33dd7e9",
            "comment": "`execution-specs` generated test",
            "filling-transition-tool": "2.18.0rc6",
            "description": "No description available - add a docstring to the python test class or function.",
            "url": "",
            "fixture-format": "state_test",
            "reference-spec": "https://github.com/ethereum/EIPs/blob/master/",
            "reference-spec-version": ""
        }
    }
}