{
    "tests/static/state_tests/stEIP150singleCodeGasPrices/RawCallGasValueTransferAskFiller.json::RawCallGasValueTransferAsk[fork_Cancun-state_test-]": {
        "env": {
            "currentCoinbase": "0x2adc25665018aa1fe0e6bc666dac8fc2697ff9ba",
            "currentGasLimit": "0x989680",
            "currentNumber": "0x01",
            "currentTimestamp": "0x03e8",
            "currentRandom": "0x0000000000000000000000000000000000000000000000000000000000020000",
            "currentDifficulty": "0x00",
            "currentBaseFee": "0x0a",
            "currentExcessBlobGas": "0x00"
        },
        "pre": {
            "0x59a61e8bc21f7f1c45e1993d9ac29b684e422f0d": {
                "nonce": "0x00",
                "balance": "0xe8d4a51000",
                "code": "0x",
                "storage": {}
            },
            "0xeea3d2e8f935b115d256f2edcee77e6f17538c45": {
                "nonce": "0x00",
                "balance": "0x00",
                "code": "0x5a60025500",
                "storage": {}
            },
            "0xeea3d2e8f935b115d256f2edcee77e6f17538d45": {
                "nonce": "0x00",
                "balance": "0x00",
                "code": "0x5a6000526000600060006000600a73eea3d2e8f935b115d256f2edcee77e6f17538c45622dc6c0f1505a6000510360015500",
                "storage": {}
            }
        },
        "transaction": {
            "nonce": "0x00",
            "gasPrice": "0x0a",
            "gasLimit": [
                "0x07a120"
            ],
            "to": "0xeea3d2e8f935b115d256f2edcee77e6f17538d45",
            "value": [
                "0x0a"
            ],
            "data": [
                "0x"
            ],
            "sender": "0x59a61e8bc21f7f1c45e1993d9ac29b684e422f0d",
            "secretKey": "0xb94272bc9e74cfb372e2239deea3d2e8f935b115d256f2edcee77e6f17538c45"
        },
        "post": {
            "Cancun": [
                {
                    "hash": "0x68b35d7736c7733d4722ccb26879d7e73fc8db6ff178a93c0c39c0ee7cf41127",
                    "logs": "0x1dcc4de8dec75d7aab85b567b6ccd41ad312451b948a7413f0a142fd40d49347",
                    "txbytes": "0xf860800a8307a12094eea3d2e8f935b115d256f2edcee77e6f17538d450a8025a0a34b0bfb1c1944ef6b66cafa1e5c44bbfa2fa9dfc4a3053f02653bda6d7f9bb6a03069b4ede56d338cd438b432b29af824cf1b74cd6bd55050e0f41df80436639d",
                    "indexes": {
                        "data": 0,
                        "gas": 0,
                        "value": 0
                    },
                    "state": {
                        "0x59a61e8bc21f7f1c45e1993d9ac29b684e422f0d": {
                            "nonce": "0x01",
                            "balance": "0xe8d499afbc",
                            "code": "0x",
                            "storage": {}
                        },
                        "0xeea3d2e8f935b115d256f2edcee77e6f17538c45": {
                            "nonce": "0x00",
                            "balance": "0x0a",
                            "code": "0x5a60025500",
                            "storage": {
                                "0x02": "0x070e1c"
                            }
                        },
                        "0xeea3d2e8f935b115d256f2edcee77e6f17538d45": {
                            "nonce": "0x00",
                            "balance": "0x00",
                            "code": "0x5a6000526000600060006000600a73eea3d2e8f935b115d256f2edcee77e6f17538c45622dc6c0f1505a6000510360015500",
                            "storage": {
                                "0x01": "0x7acf"
                            }
                        }
                    }
                }
            ]
        },
        "config": {
            "blobSchedule": {
                "Cancun": {
                    "target": "0x03",
                    "max": "0x06",
                    "baseFeeUpdateFraction": "0x32f0ed"
                }
            },
            "chainid": "0x01"
        },
        "_info": {
            "hash": "0x09336fc4c75425c75778578a62068ca99d03e8f4eb51f5b8ecdbdddc54e1fe5a",
            "comment": "`execution-spec-tests` generated test",
            "filling-transition-tool": "ethereum-spec-evm-resolver 0.0.5",
            "description": "No description available - add a docstring to the python test class or function.",
            "url": "",
            "fixture-format": "state_test",
            "reference-spec": "https://github.com/ethereum/EIPs/blob/master/",
            "reference-spec-version": "",
            "eels-resolution": {
                "git-url": "https://github.com/marioevz/execution-specs.git",
                "branch": "forks/bpo1",
                "commit": "3387e5f4aedfe99becfdc39b444d6371e25e0924"
            }
        }
    },
    "tests/static/state_tests/stEIP150singleCodeGasPrices/RawCallGasValueTransferAskFiller.json::RawCallGasValueTransferAsk[fork_Osaka-state_test-]": {
        "env": {
            "currentCoinbase": "0x2adc25665018aa1fe0e6bc666dac8fc2697ff9ba",
            "currentGasLimit": "0x989680",
            "currentNumber": "0x01",
            "currentTimestamp": "0x03e8",
            "currentRandom": "0x0000000000000000000000000000000000000000000000000000000000020000",
            "currentDifficulty": "0x00",
            "currentBaseFee": "0x0a",
            "currentExcessBlobGas": "0x00"
        },
        "pre": {
            "0x59a61e8bc21f7f1c45e1993d9ac29b684e422f0d": {
                "nonce": "0x00",
                "balance": "0xe8d4a51000",
                "code": "0x",
                "storage": {}
            },
            "0xeea3d2e8f935b115d256f2edcee77e6f17538c45": {
                "nonce": "0x00",
                "balance": "0x00",
                "code": "0x5a60025500",
                "storage": {}
            },
            "0xeea3d2e8f935b115d256f2edcee77e6f17538d45": {
                "nonce": "0x00",
                "balance": "0x00",
                "code": "0x5a6000526000600060006000600a73eea3d2e8f935b115d256f2edcee77e6f17538c45622dc6c0f1505a6000510360015500",
                "storage": {}
            }
        },
        "transaction": {
            "nonce": "0x00",
            "gasPrice": "0x0a",
            "gasLimit": [
                "0x07a120"
            ],
            "to": "0xeea3d2e8f935b115d256f2edcee77e6f17538d45",
            "value": [
                "0x0a"
            ],
            "data": [
                "0x"
            ],
            "sender": "0x59a61e8bc21f7f1c45e1993d9ac29b684e422f0d",
            "secretKey": "0xb94272bc9e74cfb372e2239deea3d2e8f935b115d256f2edcee77e6f17538c45"
        },
        "post": {
            "Osaka": [
                {
                    "hash": "0x68b35d7736c7733d4722ccb26879d7e73fc8db6ff178a93c0c39c0ee7cf41127",
                    "logs": "0x1dcc4de8dec75d7aab85b567b6ccd41ad312451b948a7413f0a142fd40d49347",
                    "txbytes": "0xf860800a8307a12094eea3d2e8f935b115d256f2edcee77e6f17538d450a8025a0a34b0bfb1c1944ef6b66cafa1e5c44bbfa2fa9dfc4a3053f02653bda6d7f9bb6a03069b4ede56d338cd438b432b29af824cf1b74cd6bd55050e0f41df80436639d",
                    "indexes": {
                        "data": 0,
                        "gas": 0,
                        "value": 0
                    },
                    "state": {
                        "0x59a61e8bc21f7f1c45e1993d9ac29b684e422f0d": {
                            "nonce": "0x01",
                            "balance": "0xe8d499afbc",
                            "code": "0x",
                            "storage": {}
                        },
                        "0xeea3d2e8f935b115d256f2edcee77e6f17538c45": {
                            "nonce": "0x00",
                            "balance": "0x0a",
                            "code": "0x5a60025500",
                            "storage": {
                                "0x02": "0x070e1c"
                            }
                        },
                        "0xeea3d2e8f935b115d256f2edcee77e6f17538d45": {
                            "nonce": "0x00",
                            "balance": "0x00",
                            "code": "0x5a6000526000600060006000600a73eea3d2e8f935b115d256f2edcee77e6f17538c45622dc6c0f1505a6000510360015500",
                            "storage": {
                                "0x01": "0x7acf"
                            }
                        }
                    }
                }
            ]
        },
        "config": {
            "blobSchedule": {
                "Cancun": {
                    "target": "0x03",
                    "max": "0x06",
                    "baseFeeUpdateFraction": "0x32f0ed"
                },
                "Prague": {
                    "target": "0x06",
                    "max": "0x09",
                    "baseFeeUpdateFraction": "0x4c6964"
                },
                "Osaka": {
                    "target": "0x06",
                    "max": "0x09",
                    "baseFeeUpdateFraction": "0x4c6964"
                }
            },
            "chainid": "0x01"
        },
        "_info": {
            "hash": "0x7df07806e6fbbbd2ced366d77730a9d417356ab5dce4f26c7eb21d3bd1130840",
            "comment": "`execution-spec-tests` generated test",
            "filling-transition-tool": "ethereum-spec-evm-resolver 0.0.5",
            "description": "No description available - add a docstring to the python test class or function.",
            "url": "",
            "fixture-format": "state_test",
            "reference-spec": "https://github.com/ethereum/EIPs/blob/master/",
            "reference-spec-version": "",
            "eels-resolution": {
                "git-url": "https://github.com/marioevz/execution-specs.git",
                "branch": "forks/bpo1",
                "commit": "3387e5f4aedfe99becfdc39b444d6371e25e0924"
            }
        }
    },
    "tests/static/state_tests/stEIP150singleCodeGasPrices/RawCallGasValueTransferAskFiller.json::RawCallGasValueTransferAsk[fork_Prague-state_test-]": {
        "env": {
            "currentCoinbase": "0x2adc25665018aa1fe0e6bc666dac8fc2697ff9ba",
            "currentGasLimit": "0x989680",
            "currentNumber": "0x01",
            "currentTimestamp": "0x03e8",
            "currentRandom": "0x0000000000000000000000000000000000000000000000000000000000020000",
            "currentDifficulty": "0x00",
            "currentBaseFee": "0x0a",
            "currentExcessBlobGas": "0x00"
        },
        "pre": {
            "0x59a61e8bc21f7f1c45e1993d9ac29b684e422f0d": {
                "nonce": "0x00",
                "balance": "0xe8d4a51000",
                "code": "0x",
                "storage": {}
            },
            "0xeea3d2e8f935b115d256f2edcee77e6f17538c45": {
                "nonce": "0x00",
                "balance": "0x00",
                "code": "0x5a60025500",
                "storage": {}
            },
            "0xeea3d2e8f935b115d256f2edcee77e6f17538d45": {
                "nonce": "0x00",
                "balance": "0x00",
                "code": "0x5a6000526000600060006000600a73eea3d2e8f935b115d256f2edcee77e6f17538c45622dc6c0f1505a6000510360015500",
                "storage": {}
            }
        },
        "transaction": {
            "nonce": "0x00",
            "gasPrice": "0x0a",
            "gasLimit": [
                "0x07a120"
            ],
            "to": "0xeea3d2e8f935b115d256f2edcee77e6f17538d45",
            "value": [
                "0x0a"
            ],
            "data": [
                "0x"
            ],
            "sender": "0x59a61e8bc21f7f1c45e1993d9ac29b684e422f0d",
            "secretKey": "0xb94272bc9e74cfb372e2239deea3d2e8f935b115d256f2edcee77e6f17538c45"
        },
        "post": {
            "Prague": [
                {
                    "hash": "0x68b35d7736c7733d4722ccb26879d7e73fc8db6ff178a93c0c39c0ee7cf41127",
                    "logs": "0x1dcc4de8dec75d7aab85b567b6ccd41ad312451b948a7413f0a142fd40d49347",
                    "txbytes": "0xf860800a8307a12094eea3d2e8f935b115d256f2edcee77e6f17538d450a8025a0a34b0bfb1c1944ef6b66cafa1e5c44bbfa2fa9dfc4a3053f02653bda6d7f9bb6a03069b4ede56d338cd438b432b29af824cf1b74cd6bd55050e0f41df80436639d",
                    "indexes": {
                        "data": 0,
                        "gas": 0,
                        "value": 0
                    },
                    "state": {
                        "0x59a61e8bc21f7f1c45e1993d9ac29b684e422f0d": {
                            "nonce": "0x01",
                            "balance": "0xe8d499afbc",
                            "code": "0x",
                            "storage": {}
                        },
                        "0xeea3d2e8f935b115d256f2edcee77e6f17538c45": {
                            "nonce": "0x00",
                            "balance": "0x0a",
                            "code": "0x5a60025500",
                            "storage": {
                                "0x02": "0x070e1c"
                            }
                        },
                        "0xeea3d2e8f935b115d256f2edcee77e6f17538d45": {
                            "nonce": "0x00",
                            "balance": "0x00",
                            "code": "0x5a6000526000600060006000600a73eea3d2e8f935b115d256f2edcee77e6f17538c45622dc6c0f1505a6000510360015500",
                            "storage": {
                                "0x01": "0x7acf"
                            }
                        }
                    }
                }
            ]
        },
        "config": {
            "blobSchedule": {
                "Cancun": {
                    "target": "0x03",
                    "max": "0x06",
                    "baseFeeUpdateFraction": "0x32f0ed"
                },
                "Prague": {
                    "target": "0x06",
                    "max": "0x09",
                    "baseFeeUpdateFraction": "0x4c6964"
                }
            },
            "chainid": "0x01"
        },
        "_info": {
            "hash": "0xa3e3960d6e144ad786e8cd3f26ea1831ffdaaeb62466af6efbca6ed73771406e",
            "comment": "`execution-spec-tests` generated test",
            "filling-transition-tool": "ethereum-spec-evm-resolver 0.0.5",
            "description": "No description available - add a docstring to the python test class or function.",
            "url": "",
            "fixture-format": "state_test",
            "reference-spec": "https://github.com/ethereum/EIPs/blob/master/",
            "reference-spec-version": "",
            "eels-resolution": {
                "git-url": "https://github.com/marioevz/execution-specs.git",
                "branch": "forks/bpo1",
                "commit": "3387e5f4aedfe99becfdc39b444d6371e25e0924"
            }
        }
    }
}