{
    "tests/static/state_tests/stEIP150singleCodeGasPrices/RawCallCodeGasMemoryAskFiller.json::RawCallCodeGasMemoryAsk[fork_Cancun-state_test-]": {
        "env": {
            "currentCoinbase": "0x2adc25665018aa1fe0e6bc666dac8fc2697ff9ba",
            "currentGasLimit": "0x989680",
            "currentNumber": "0x01",
            "currentTimestamp": "0x03e8",
            "currentRandom": "0x0000000000000000000000000000000000000000000000000000000000020000",
            "currentDifficulty": "0x00",
            "currentBaseFee": "0x0a",
            "currentExcessBlobGas": "0x00"
        },
        "pre": {
            "0x9fcf1a16af2918f3d1e696bffaa4d77912a4ffe5": {
                "nonce": "0x00",
                "balance": "0xe8d4a51000",
                "code": "0x",
                "storage": {}
            },
            "0x6cf75f8aacfcda899dd95b572e2c92b0eaa609a7": {
                "nonce": "0x00",
                "balance": "0x00",
                "code": "0x5a60025500",
                "storage": {}
            },
            "0x6cf75f8aacfcda899dd95b572e2c92b0eaa60aa7": {
                "nonce": "0x00",
                "balance": "0x00",
                "code": "0x5a600052611f406000611f4060006000736cf75f8aacfcda899dd95b572e2c92b0eaa609a7622dc6c0f2505a6000510360015500",
                "storage": {}
            }
        },
        "transaction": {
            "nonce": "0x00",
            "gasPrice": "0x0a",
            "gasLimit": [
                "0x07a120"
            ],
            "to": "0x6cf75f8aacfcda899dd95b572e2c92b0eaa60aa7",
            "value": [
                "0x00"
            ],
            "data": [
                "0x"
            ],
            "sender": "0x9fcf1a16af2918f3d1e696bffaa4d77912a4ffe5",
            "secretKey": "0x017f68aa6f51733fdc95d69d6cf75f8aacfcda899dd95b572e2c92b0eaa609a7"
        },
        "post": {
            "Cancun": [
                {
                    "hash": "0x66c606e77271d94894328321e2300953b2589dc54fe47ab929ac63bce35d8fcc",
                    "logs": "0x1dcc4de8dec75d7aab85b567b6ccd41ad312451b948a7413f0a142fd40d49347",
                    "txbytes": "0xf860800a8307a120946cf75f8aacfcda899dd95b572e2c92b0eaa60aa7808026a0265f1853c2487f5a8285f3006aa911168a58c4ce9584b1acb5651b3d96aa86d5a05e5209ddb0d1e4102a5b624fecb8be4680d9d53f7ade1aaa3dfb9eb999512189",
                    "indexes": {
                        "data": 0,
                        "gas": 0,
                        "value": 0
                    },
                    "state": {
                        "0x9fcf1a16af2918f3d1e696bffaa4d77912a4ffe5": {
                            "nonce": "0x01",
                            "balance": "0xe8d49a938c",
                            "code": "0x",
                            "storage": {}
                        },
                        "0x6cf75f8aacfcda899dd95b572e2c92b0eaa609a7": {
                            "nonce": "0x00",
                            "balance": "0x00",
                            "code": "0x5a60025500",
                            "storage": {}
                        },
                        "0x6cf75f8aacfcda899dd95b572e2c92b0eaa60aa7": {
                            "nonce": "0x00",
                            "balance": "0x00",
                            "code": "0x5a600052611f406000611f4060006000736cf75f8aacfcda899dd95b572e2c92b0eaa609a7622dc6c0f2505a6000510360015500",
                            "storage": {
                                "0x02": "0x072464",
                                "0x01": "0x6408"
                            }
                        }
                    }
                }
            ]
        },
        "config": {
            "blobSchedule": {
                "Cancun": {
                    "target": "0x03",
                    "max": "0x06",
                    "baseFeeUpdateFraction": "0x32f0ed"
                }
            },
            "chainid": "0x01"
        },
        "_info": {
            "hash": "0x024dbcf9dc6311cbbd625abd0dc2167e8b14b0e92da7ab60f63d30e2407ffdde",
            "comment": "`execution-specs` generated test",
            "filling-transition-tool": "2.18.0rc6",
            "description": "No description available - add a docstring to the python test class or function.",
            "url": "",
            "fixture-format": "state_test",
            "reference-spec": "https://github.com/ethereum/EIPs/blob/master/",
            "reference-spec-version": ""
        }
    },
    "tests/static/state_tests/stEIP150singleCodeGasPrices/RawCallCodeGasMemoryAskFiller.json::RawCallCodeGasMemoryAsk[fork_Osaka-state_test-]": {
        "env": {
            "currentCoinbase": "0x2adc25665018aa1fe0e6bc666dac8fc2697ff9ba",
            "currentGasLimit": "0x989680",
            "currentNumber": "0x01",
            "currentTimestamp": "0x03e8",
            "currentRandom": "0x0000000000000000000000000000000000000000000000000000000000020000",
            "currentDifficulty": "0x00",
            "currentBaseFee": "0x0a",
            "currentExcessBlobGas": "0x00"
        },
        "pre": {
            "0x9fcf1a16af2918f3d1e696bffaa4d77912a4ffe5": {
                "nonce": "0x00",
                "balance": "0xe8d4a51000",
                "code": "0x",
                "storage": {}
            },
            "0x6cf75f8aacfcda899dd95b572e2c92b0eaa609a7": {
                "nonce": "0x00",
                "balance": "0x00",
                "code": "0x5a60025500",
                "storage": {}
            },
            "0x6cf75f8aacfcda899dd95b572e2c92b0eaa60aa7": {
                "nonce": "0x00",
                "balance": "0x00",
                "code": "0x5a600052611f406000611f4060006000736cf75f8aacfcda899dd95b572e2c92b0eaa609a7622dc6c0f2505a6000510360015500",
                "storage": {}
            }
        },
        "transaction": {
            "nonce": "0x00",
            "gasPrice": "0x0a",
            "gasLimit": [
                "0x07a120"
            ],
            "to": "0x6cf75f8aacfcda899dd95b572e2c92b0eaa60aa7",
            "value": [
                "0x00"
            ],
            "data": [
                "0x"
            ],
            "sender": "0x9fcf1a16af2918f3d1e696bffaa4d77912a4ffe5",
            "secretKey": "0x017f68aa6f51733fdc95d69d6cf75f8aacfcda899dd95b572e2c92b0eaa609a7"
        },
        "post": {
            "Osaka": [
                {
                    "hash": "0x66c606e77271d94894328321e2300953b2589dc54fe47ab929ac63bce35d8fcc",
                    "logs": "0x1dcc4de8dec75d7aab85b567b6ccd41ad312451b948a7413f0a142fd40d49347",
                    "txbytes": "0xf860800a8307a120946cf75f8aacfcda899dd95b572e2c92b0eaa60aa7808026a0265f1853c2487f5a8285f3006aa911168a58c4ce9584b1acb5651b3d96aa86d5a05e5209ddb0d1e4102a5b624fecb8be4680d9d53f7ade1aaa3dfb9eb999512189",
                    "indexes": {
                        "data": 0,
                        "gas": 0,
                        "value": 0
                    },
                    "state": {
                        "0x9fcf1a16af2918f3d1e696bffaa4d77912a4ffe5": {
                            "nonce": "0x01",
                            "balance": "0xe8d49a938c",
                            "code": "0x",
                            "storage": {}
                        },
                        "0x6cf75f8aacfcda899dd95b572e2c92b0eaa609a7": {
                            "nonce": "0x00",
                            "balance": "0x00",
                            "code": "0x5a60025500",
                            "storage": {}
                        },
                        "0x6cf75f8aacfcda899dd95b572e2c92b0eaa60aa7": {
                            "nonce": "0x00",
                            "balance": "0x00",
                            "code": "0x5a600052611f406000611f4060006000736cf75f8aacfcda899dd95b572e2c92b0eaa609a7622dc6c0f2505a6000510360015500",
                            "storage": {
                                "0x02": "0x072464",
                                "0x01": "0x6408"
                            }
                        }
                    }
                }
            ]
        },
        "config": {
            "blobSchedule": {
                "Cancun": {
                    "target": "0x03",
                    "max": "0x06",
                    "baseFeeUpdateFraction": "0x32f0ed"
                },
                "Prague": {
                    "target": "0x06",
                    "max": "0x09",
                    "baseFeeUpdateFraction": "0x4c6964"
                },
                "Osaka": {
                    "target": "0x06",
                    "max": "0x09",
                    "baseFeeUpdateFraction": "0x4c6964"
                }
            },
            "chainid": "0x01"
        },
        "_info": {
            "hash": "0x3057092ea05157ee31eb49e1423460204b1e035b174a2e694b47b3bdaa450bc5",
            "comment": "`execution-specs` generated test",
            "filling-transition-tool": "2.18.0rc6",
            "description": "No description available - add a docstring to the python test class or function.",
            "url": "",
            "fixture-format": "state_test",
            "reference-spec": "https://github.com/ethereum/EIPs/blob/master/",
            "reference-spec-version": ""
        }
    },
    "tests/static/state_tests/stEIP150singleCodeGasPrices/RawCallCodeGasMemoryAskFiller.json::RawCallCodeGasMemoryAsk[fork_Prague-state_test-]": {
        "env": {
            "currentCoinbase": "0x2adc25665018aa1fe0e6bc666dac8fc2697ff9ba",
            "currentGasLimit": "0x989680",
            "currentNumber": "0x01",
            "currentTimestamp": "0x03e8",
            "currentRandom": "0x0000000000000000000000000000000000000000000000000000000000020000",
            "currentDifficulty": "0x00",
            "currentBaseFee": "0x0a",
            "currentExcessBlobGas": "0x00"
        },
        "pre": {
            "0x9fcf1a16af2918f3d1e696bffaa4d77912a4ffe5": {
                "nonce": "0x00",
                "balance": "0xe8d4a51000",
                "code": "0x",
                "storage": {}
            },
            "0x6cf75f8aacfcda899dd95b572e2c92b0eaa609a7": {
                "nonce": "0x00",
                "balance": "0x00",
                "code": "0x5a60025500",
                "storage": {}
            },
            "0x6cf75f8aacfcda899dd95b572e2c92b0eaa60aa7": {
                "nonce": "0x00",
                "balance": "0x00",
                "code": "0x5a600052611f406000611f4060006000736cf75f8aacfcda899dd95b572e2c92b0eaa609a7622dc6c0f2505a6000510360015500",
                "storage": {}
            }
        },
        "transaction": {
            "nonce": "0x00",
            "gasPrice": "0x0a",
            "gasLimit": [
                "0x07a120"
            ],
            "to": "0x6cf75f8aacfcda899dd95b572e2c92b0eaa60aa7",
            "value": [
                "0x00"
            ],
            "data": [
                "0x"
            ],
            "sender": "0x9fcf1a16af2918f3d1e696bffaa4d77912a4ffe5",
            "secretKey": "0x017f68aa6f51733fdc95d69d6cf75f8aacfcda899dd95b572e2c92b0eaa609a7"
        },
        "post": {
            "Prague": [
                {
                    "hash": "0x66c606e77271d94894328321e2300953b2589dc54fe47ab929ac63bce35d8fcc",
                    "logs": "0x1dcc4de8dec75d7aab85b567b6ccd41ad312451b948a7413f0a142fd40d49347",
                    "txbytes": "0xf860800a8307a120946cf75f8aacfcda899dd95b572e2c92b0eaa60aa7808026a0265f1853c2487f5a8285f3006aa911168a58c4ce9584b1acb5651b3d96aa86d5a05e5209ddb0d1e4102a5b624fecb8be4680d9d53f7ade1aaa3dfb9eb999512189",
                    "indexes": {
                        "data": 0,
                        "gas": 0,
                        "value": 0
                    },
                    "state": {
                        "0x9fcf1a16af2918f3d1e696bffaa4d77912a4ffe5": {
                            "nonce": "0x01",
                            "balance": "0xe8d49a938c",
                            "code": "0x",
                            "storage": {}
                        },
                        "0x6cf75f8aacfcda899dd95b572e2c92b0eaa609a7": {
                            "nonce": "0x00",
                            "balance": "0x00",
                            "code": "0x5a60025500",
                            "storage": {}
                        },
                        "0x6cf75f8aacfcda899dd95b572e2c92b0eaa60aa7": {
                            "nonce": "0x00",
                            "balance": "0x00",
                            "code": "0x5a600052611f406000611f4060006000736cf75f8aacfcda899dd95b572e2c92b0eaa609a7622dc6c0f2505a6000510360015500",
                            "storage": {
                                "0x02": "0x072464",
                                "0x01": "0x6408"
                            }
                        }
                    }
                }
            ]
        },
        "config": {
            "blobSchedule": {
                "Cancun": {
                    "target": "0x03",
                    "max": "0x06",
                    "baseFeeUpdateFraction": "0x32f0ed"
                },
                "Prague": {
                    "target": "0x06",
                    "max": "0x09",
                    "baseFeeUpdateFraction": "0x4c6964"
                }
            },
            "chainid": "0x01"
        },
        "_info": {
            "hash": "0x16d3970c263134b30f343813f5ea4840089e505026ed3831f6e3cc6c9480535b",
            "comment": "`execution-specs` generated test",
            "filling-transition-tool": "2.18.0rc6",
            "description": "No description available - add a docstring to the python test class or function.",
            "url": "",
            "fixture-format": "state_test",
            "reference-spec": "https://github.com/ethereum/EIPs/blob/master/",
            "reference-spec-version": ""
        }
    }
}