{
    "tests/static/state_tests/stEIP150singleCodeGasPrices/RawDelegateCallGasFiller.json::RawDelegateCallGas[fork_Cancun-state_test-]": {
        "env": {
            "currentCoinbase": "0x2adc25665018aa1fe0e6bc666dac8fc2697ff9ba",
            "currentGasLimit": "0x989680",
            "currentNumber": "0x01",
            "currentTimestamp": "0x03e8",
            "currentRandom": "0x0000000000000000000000000000000000000000000000000000000000020000",
            "currentDifficulty": "0x00",
            "currentBaseFee": "0x0a",
            "currentExcessBlobGas": "0x00"
        },
        "pre": {
            "0x1bf0e2dcc47f81807f3b92480840b34c7b93a65c": {
                "nonce": "0x00",
                "balance": "0xe8d4a51000",
                "code": "0x",
                "storage": {}
            },
            "0x6ba1be8795eaa7cd6008d7089b728c6f6c5029ce": {
                "nonce": "0x00",
                "balance": "0x00",
                "code": "0x5a60025500",
                "storage": {}
            },
            "0x6ba1be8795eaa7cd6008d7089b728c6f6c502ace": {
                "nonce": "0x00",
                "balance": "0x00",
                "code": "0x5a6000526000600060006000736ba1be8795eaa7cd6008d7089b728c6f6c5029ce617530f4505a6000510360015500",
                "storage": {}
            }
        },
        "transaction": {
            "nonce": "0x00",
            "gasPrice": "0x0a",
            "gasLimit": [
                "0x07a120"
            ],
            "to": "0x6ba1be8795eaa7cd6008d7089b728c6f6c502ace",
            "value": [
                "0x00"
            ],
            "data": [
                "0x"
            ],
            "sender": "0x1bf0e2dcc47f81807f3b92480840b34c7b93a65c",
            "secretKey": "0xebb5f4186dba374aa46488656ba1be8795eaa7cd6008d7089b728c6f6c5029ce"
        },
        "post": {
            "Cancun": [
                {
                    "hash": "0x753a75c624eadf12cc44bec47eae39903ed29d76ad3647ad73a10dcc9b32bbc3",
                    "logs": "0x1dcc4de8dec75d7aab85b567b6ccd41ad312451b948a7413f0a142fd40d49347",
                    "txbytes": "0xf860800a8307a120946ba1be8795eaa7cd6008d7089b728c6f6c502ace808025a00d74f5371fc00c68a6d1939870dff2b64f732df804fe478d0c5cb10d99d399f4a047d22e5f7cfcb1957ae414012afb2956b9e878367075b8cb8ed76308a4cbafb1",
                    "indexes": {
                        "data": 0,
                        "gas": 0,
                        "value": 0
                    },
                    "state": {
                        "0x1bf0e2dcc47f81807f3b92480840b34c7b93a65c": {
                            "nonce": "0x01",
                            "balance": "0xe8d49ab59c",
                            "code": "0x",
                            "storage": {}
                        },
                        "0x6ba1be8795eaa7cd6008d7089b728c6f6c5029ce": {
                            "nonce": "0x00",
                            "balance": "0x00",
                            "code": "0x5a60025500",
                            "storage": {}
                        },
                        "0x6ba1be8795eaa7cd6008d7089b728c6f6c502ace": {
                            "nonce": "0x00",
                            "balance": "0x00",
                            "code": "0x5a6000526000600060006000736ba1be8795eaa7cd6008d7089b728c6f6c5029ce617530f4505a6000510360015500",
                            "storage": {
                                "0x02": "0x752e",
                                "0x01": "0x60a0"
                            }
                        }
                    }
                }
            ]
        },
        "config": {
            "blobSchedule": {
                "Cancun": {
                    "target": "0x03",
                    "max": "0x06",
                    "baseFeeUpdateFraction": "0x32f0ed"
                }
            },
            "chainid": "0x01"
        },
        "_info": {
            "hash": "0xcf17029ec1cb199969305df0cb95b228d05e08de069e17bb69db2be7c0f9fdbd",
            "comment": "`execution-spec-tests` generated test",
            "filling-transition-tool": "ethereum-spec-evm-resolver 0.0.5",
            "description": "No description available - add a docstring to the python test class or function.",
            "url": "",
            "fixture-format": "state_test",
            "reference-spec": "https://github.com/ethereum/EIPs/blob/master/",
            "reference-spec-version": "",
            "eels-resolution": {
                "git-url": "https://github.com/ethereum/execution-specs.git",
                "branch": "forks/bpos",
                "commit": "7aacb2c54111391af5e98c505d5010b5698a770f"
            }
        }
    },
    "tests/static/state_tests/stEIP150singleCodeGasPrices/RawDelegateCallGasFiller.json::RawDelegateCallGas[fork_Osaka-state_test-]": {
        "env": {
            "currentCoinbase": "0x2adc25665018aa1fe0e6bc666dac8fc2697ff9ba",
            "currentGasLimit": "0x989680",
            "currentNumber": "0x01",
            "currentTimestamp": "0x03e8",
            "currentRandom": "0x0000000000000000000000000000000000000000000000000000000000020000",
            "currentDifficulty": "0x00",
            "currentBaseFee": "0x0a",
            "currentExcessBlobGas": "0x00"
        },
        "pre": {
            "0x1bf0e2dcc47f81807f3b92480840b34c7b93a65c": {
                "nonce": "0x00",
                "balance": "0xe8d4a51000",
                "code": "0x",
                "storage": {}
            },
            "0x6ba1be8795eaa7cd6008d7089b728c6f6c5029ce": {
                "nonce": "0x00",
                "balance": "0x00",
                "code": "0x5a60025500",
                "storage": {}
            },
            "0x6ba1be8795eaa7cd6008d7089b728c6f6c502ace": {
                "nonce": "0x00",
                "balance": "0x00",
                "code": "0x5a6000526000600060006000736ba1be8795eaa7cd6008d7089b728c6f6c5029ce617530f4505a6000510360015500",
                "storage": {}
            }
        },
        "transaction": {
            "nonce": "0x00",
            "gasPrice": "0x0a",
            "gasLimit": [
                "0x07a120"
            ],
            "to": "0x6ba1be8795eaa7cd6008d7089b728c6f6c502ace",
            "value": [
                "0x00"
            ],
            "data": [
                "0x"
            ],
            "sender": "0x1bf0e2dcc47f81807f3b92480840b34c7b93a65c",
            "secretKey": "0xebb5f4186dba374aa46488656ba1be8795eaa7cd6008d7089b728c6f6c5029ce"
        },
        "post": {
            "Osaka": [
                {
                    "hash": "0x753a75c624eadf12cc44bec47eae39903ed29d76ad3647ad73a10dcc9b32bbc3",
                    "logs": "0x1dcc4de8dec75d7aab85b567b6ccd41ad312451b948a7413f0a142fd40d49347",
                    "txbytes": "0xf860800a8307a120946ba1be8795eaa7cd6008d7089b728c6f6c502ace808025a00d74f5371fc00c68a6d1939870dff2b64f732df804fe478d0c5cb10d99d399f4a047d22e5f7cfcb1957ae414012afb2956b9e878367075b8cb8ed76308a4cbafb1",
                    "indexes": {
                        "data": 0,
                        "gas": 0,
                        "value": 0
                    },
                    "state": {
                        "0x1bf0e2dcc47f81807f3b92480840b34c7b93a65c": {
                            "nonce": "0x01",
                            "balance": "0xe8d49ab59c",
                            "code": "0x",
                            "storage": {}
                        },
                        "0x6ba1be8795eaa7cd6008d7089b728c6f6c5029ce": {
                            "nonce": "0x00",
                            "balance": "0x00",
                            "code": "0x5a60025500",
                            "storage": {}
                        },
                        "0x6ba1be8795eaa7cd6008d7089b728c6f6c502ace": {
                            "nonce": "0x00",
                            "balance": "0x00",
                            "code": "0x5a6000526000600060006000736ba1be8795eaa7cd6008d7089b728c6f6c5029ce617530f4505a6000510360015500",
                            "storage": {
                                "0x02": "0x752e",
                                "0x01": "0x60a0"
                            }
                        }
                    }
                }
            ]
        },
        "config": {
            "blobSchedule": {
                "Cancun": {
                    "target": "0x03",
                    "max": "0x06",
                    "baseFeeUpdateFraction": "0x32f0ed"
                },
                "Prague": {
                    "target": "0x06",
                    "max": "0x09",
                    "baseFeeUpdateFraction": "0x4c6964"
                },
                "Osaka": {
                    "target": "0x06",
                    "max": "0x09",
                    "baseFeeUpdateFraction": "0x4c6964"
                }
            },
            "chainid": "0x01"
        },
        "_info": {
            "hash": "0x05b7ecb23699eb97f866fef6d52f331a8c9b58e1bc33601ce5fac64059f26ea0",
            "comment": "`execution-spec-tests` generated test",
            "filling-transition-tool": "ethereum-spec-evm-resolver 0.0.5",
            "description": "No description available - add a docstring to the python test class or function.",
            "url": "",
            "fixture-format": "state_test",
            "reference-spec": "https://github.com/ethereum/EIPs/blob/master/",
            "reference-spec-version": "",
            "eels-resolution": {
                "git-url": "https://github.com/ethereum/execution-specs.git",
                "branch": "forks/bpos",
                "commit": "7aacb2c54111391af5e98c505d5010b5698a770f"
            }
        }
    },
    "tests/static/state_tests/stEIP150singleCodeGasPrices/RawDelegateCallGasFiller.json::RawDelegateCallGas[fork_Prague-state_test-]": {
        "env": {
            "currentCoinbase": "0x2adc25665018aa1fe0e6bc666dac8fc2697ff9ba",
            "currentGasLimit": "0x989680",
            "currentNumber": "0x01",
            "currentTimestamp": "0x03e8",
            "currentRandom": "0x0000000000000000000000000000000000000000000000000000000000020000",
            "currentDifficulty": "0x00",
            "currentBaseFee": "0x0a",
            "currentExcessBlobGas": "0x00"
        },
        "pre": {
            "0x1bf0e2dcc47f81807f3b92480840b34c7b93a65c": {
                "nonce": "0x00",
                "balance": "0xe8d4a51000",
                "code": "0x",
                "storage": {}
            },
            "0x6ba1be8795eaa7cd6008d7089b728c6f6c5029ce": {
                "nonce": "0x00",
                "balance": "0x00",
                "code": "0x5a60025500",
                "storage": {}
            },
            "0x6ba1be8795eaa7cd6008d7089b728c6f6c502ace": {
                "nonce": "0x00",
                "balance": "0x00",
                "code": "0x5a6000526000600060006000736ba1be8795eaa7cd6008d7089b728c6f6c5029ce617530f4505a6000510360015500",
                "storage": {}
            }
        },
        "transaction": {
            "nonce": "0x00",
            "gasPrice": "0x0a",
            "gasLimit": [
                "0x07a120"
            ],
            "to": "0x6ba1be8795eaa7cd6008d7089b728c6f6c502ace",
            "value": [
                "0x00"
            ],
            "data": [
                "0x"
            ],
            "sender": "0x1bf0e2dcc47f81807f3b92480840b34c7b93a65c",
            "secretKey": "0xebb5f4186dba374aa46488656ba1be8795eaa7cd6008d7089b728c6f6c5029ce"
        },
        "post": {
            "Prague": [
                {
                    "hash": "0x753a75c624eadf12cc44bec47eae39903ed29d76ad3647ad73a10dcc9b32bbc3",
                    "logs": "0x1dcc4de8dec75d7aab85b567b6ccd41ad312451b948a7413f0a142fd40d49347",
                    "txbytes": "0xf860800a8307a120946ba1be8795eaa7cd6008d7089b728c6f6c502ace808025a00d74f5371fc00c68a6d1939870dff2b64f732df804fe478d0c5cb10d99d399f4a047d22e5f7cfcb1957ae414012afb2956b9e878367075b8cb8ed76308a4cbafb1",
                    "indexes": {
                        "data": 0,
                        "gas": 0,
                        "value": 0
                    },
                    "state": {
                        "0x1bf0e2dcc47f81807f3b92480840b34c7b93a65c": {
                            "nonce": "0x01",
                            "balance": "0xe8d49ab59c",
                            "code": "0x",
                            "storage": {}
                        },
                        "0x6ba1be8795eaa7cd6008d7089b728c6f6c5029ce": {
                            "nonce": "0x00",
                            "balance": "0x00",
                            "code": "0x5a60025500",
                            "storage": {}
                        },
                        "0x6ba1be8795eaa7cd6008d7089b728c6f6c502ace": {
                            "nonce": "0x00",
                            "balance": "0x00",
                            "code": "0x5a6000526000600060006000736ba1be8795eaa7cd6008d7089b728c6f6c5029ce617530f4505a6000510360015500",
                            "storage": {
                                "0x02": "0x752e",
                                "0x01": "0x60a0"
                            }
                        }
                    }
                }
            ]
        },
        "config": {
            "blobSchedule": {
                "Cancun": {
                    "target": "0x03",
                    "max": "0x06",
                    "baseFeeUpdateFraction": "0x32f0ed"
                },
                "Prague": {
                    "target": "0x06",
                    "max": "0x09",
                    "baseFeeUpdateFraction": "0x4c6964"
                }
            },
            "chainid": "0x01"
        },
        "_info": {
            "hash": "0xcd1e7b2ad355bb6e5c7995ed479f30b7ac2573fc06cd73d808c96ff6a681143f",
            "comment": "`execution-spec-tests` generated test",
            "filling-transition-tool": "ethereum-spec-evm-resolver 0.0.5",
            "description": "No description available - add a docstring to the python test class or function.",
            "url": "",
            "fixture-format": "state_test",
            "reference-spec": "https://github.com/ethereum/EIPs/blob/master/",
            "reference-spec-version": "",
            "eels-resolution": {
                "git-url": "https://github.com/ethereum/execution-specs.git",
                "branch": "forks/bpos",
                "commit": "7aacb2c54111391af5e98c505d5010b5698a770f"
            }
        }
    }
}