{
    "tests/static/state_tests/stEIP150singleCodeGasPrices/RawExtCodeCopyGasFiller.json::RawExtCodeCopyGas[fork_Cancun-state_test-]": {
        "env": {
            "currentCoinbase": "0x2adc25665018aa1fe0e6bc666dac8fc2697ff9ba",
            "currentGasLimit": "0x989680",
            "currentNumber": "0x01",
            "currentTimestamp": "0x03e8",
            "currentRandom": "0x0000000000000000000000000000000000000000000000000000000000020000",
            "currentDifficulty": "0x00",
            "currentBaseFee": "0x0a",
            "currentExcessBlobGas": "0x00"
        },
        "pre": {
            "0x31d0b21997f30e5eb2a731e7cb23c56329d47cb3": {
                "nonce": "0x00",
                "balance": "0xe8d4a51000",
                "code": "0x",
                "storage": {}
            },
            "0x9fa606602fef588182549c0a97767a65e994d3c6": {
                "nonce": "0x00",
                "balance": "0x00",
                "code": "0x0112233445566778899101112131415161718191202122232425",
                "storage": {}
            },
            "0x9fa606602fef588182549c0a97767a65e994d4c6": {
                "nonce": "0x00",
                "balance": "0x00",
                "code": "0x5a600052601460006020739fa606602fef588182549c0a97767a65e994d3c63c5a6000510360015500",
                "storage": {}
            }
        },
        "transaction": {
            "nonce": "0x00",
            "gasPrice": "0x0a",
            "gasLimit": [
                "0x0927c0"
            ],
            "to": "0x9fa606602fef588182549c0a97767a65e994d4c6",
            "value": [
                "0x00"
            ],
            "data": [
                "0x"
            ],
            "sender": "0x31d0b21997f30e5eb2a731e7cb23c56329d47cb3",
            "secretKey": "0x73f4c342fa0a25f48c59d3109fa606602fef588182549c0a97767a65e994d3c6"
        },
        "post": {
            "Cancun": [
                {
                    "hash": "0x411faa533eed2ecad5627dfd0e9f8bdb45431e4eab3900a5d78908afffa5c323",
                    "logs": "0x1dcc4de8dec75d7aab85b567b6ccd41ad312451b948a7413f0a142fd40d49347",
                    "txbytes": "0xf860800a830927c0949fa606602fef588182549c0a97767a65e994d4c6808026a00bdc1741cb9026703a7079007a2d6bf1dd4c668cfe2cf04e4ba296fdc1e1b6dda05b5d1fc95c776d416c712cb2808d629c9d480070a833987028c1b00089e8ac7a",
                    "indexes": {
                        "data": 0,
                        "gas": 0,
                        "value": 0
                    },
                    "state": {
                        "0x31d0b21997f30e5eb2a731e7cb23c56329d47cb3": {
                            "nonce": "0x01",
                            "balance": "0xe8d49e152a",
                            "code": "0x",
                            "storage": {}
                        },
                        "0x9fa606602fef588182549c0a97767a65e994d3c6": {
                            "nonce": "0x00",
                            "balance": "0x00",
                            "code": "0x0112233445566778899101112131415161718191202122232425",
                            "storage": {}
                        },
                        "0x9fa606602fef588182549c0a97767a65e994d4c6": {
                            "nonce": "0x00",
                            "balance": "0x00",
                            "code": "0x5a600052601460006020739fa606602fef588182549c0a97767a65e994d3c63c5a6000510360015500",
                            "storage": {
                                "0x01": "0x0a45"
                            }
                        }
                    }
                }
            ]
        },
        "config": {
            "blobSchedule": {
                "Cancun": {
                    "target": "0x03",
                    "max": "0x06",
                    "baseFeeUpdateFraction": "0x32f0ed"
                }
            },
            "chainid": "0x01"
        },
        "_info": {
            "hash": "0xab17b5c72b4621393d3b35fbfa5babd75612f921c4771e6baec28981aa588ccb",
            "comment": "`execution-specs` generated test",
            "filling-transition-tool": "2.18.0rc6",
            "description": "No description available - add a docstring to the python test class or function.",
            "url": "",
            "fixture-format": "state_test",
            "reference-spec": "https://github.com/ethereum/EIPs/blob/master/",
            "reference-spec-version": ""
        }
    },
    "tests/static/state_tests/stEIP150singleCodeGasPrices/RawExtCodeCopyGasFiller.json::RawExtCodeCopyGas[fork_Osaka-state_test-]": {
        "env": {
            "currentCoinbase": "0x2adc25665018aa1fe0e6bc666dac8fc2697ff9ba",
            "currentGasLimit": "0x989680",
            "currentNumber": "0x01",
            "currentTimestamp": "0x03e8",
            "currentRandom": "0x0000000000000000000000000000000000000000000000000000000000020000",
            "currentDifficulty": "0x00",
            "currentBaseFee": "0x0a",
            "currentExcessBlobGas": "0x00"
        },
        "pre": {
            "0x31d0b21997f30e5eb2a731e7cb23c56329d47cb3": {
                "nonce": "0x00",
                "balance": "0xe8d4a51000",
                "code": "0x",
                "storage": {}
            },
            "0x9fa606602fef588182549c0a97767a65e994d3c6": {
                "nonce": "0x00",
                "balance": "0x00",
                "code": "0x0112233445566778899101112131415161718191202122232425",
                "storage": {}
            },
            "0x9fa606602fef588182549c0a97767a65e994d4c6": {
                "nonce": "0x00",
                "balance": "0x00",
                "code": "0x5a600052601460006020739fa606602fef588182549c0a97767a65e994d3c63c5a6000510360015500",
                "storage": {}
            }
        },
        "transaction": {
            "nonce": "0x00",
            "gasPrice": "0x0a",
            "gasLimit": [
                "0x0927c0"
            ],
            "to": "0x9fa606602fef588182549c0a97767a65e994d4c6",
            "value": [
                "0x00"
            ],
            "data": [
                "0x"
            ],
            "sender": "0x31d0b21997f30e5eb2a731e7cb23c56329d47cb3",
            "secretKey": "0x73f4c342fa0a25f48c59d3109fa606602fef588182549c0a97767a65e994d3c6"
        },
        "post": {
            "Osaka": [
                {
                    "hash": "0x411faa533eed2ecad5627dfd0e9f8bdb45431e4eab3900a5d78908afffa5c323",
                    "logs": "0x1dcc4de8dec75d7aab85b567b6ccd41ad312451b948a7413f0a142fd40d49347",
                    "txbytes": "0xf860800a830927c0949fa606602fef588182549c0a97767a65e994d4c6808026a00bdc1741cb9026703a7079007a2d6bf1dd4c668cfe2cf04e4ba296fdc1e1b6dda05b5d1fc95c776d416c712cb2808d629c9d480070a833987028c1b00089e8ac7a",
                    "indexes": {
                        "data": 0,
                        "gas": 0,
                        "value": 0
                    },
                    "state": {
                        "0x31d0b21997f30e5eb2a731e7cb23c56329d47cb3": {
                            "nonce": "0x01",
                            "balance": "0xe8d49e152a",
                            "code": "0x",
                            "storage": {}
                        },
                        "0x9fa606602fef588182549c0a97767a65e994d3c6": {
                            "nonce": "0x00",
                            "balance": "0x00",
                            "code": "0x0112233445566778899101112131415161718191202122232425",
                            "storage": {}
                        },
                        "0x9fa606602fef588182549c0a97767a65e994d4c6": {
                            "nonce": "0x00",
                            "balance": "0x00",
                            "code": "0x5a600052601460006020739fa606602fef588182549c0a97767a65e994d3c63c5a6000510360015500",
                            "storage": {
                                "0x01": "0x0a45"
                            }
                        }
                    }
                }
            ]
        },
        "config": {
            "blobSchedule": {
                "Cancun": {
                    "target": "0x03",
                    "max": "0x06",
                    "baseFeeUpdateFraction": "0x32f0ed"
                },
                "Prague": {
                    "target": "0x06",
                    "max": "0x09",
                    "baseFeeUpdateFraction": "0x4c6964"
                },
                "Osaka": {
                    "target": "0x06",
                    "max": "0x09",
                    "baseFeeUpdateFraction": "0x4c6964"
                }
            },
            "chainid": "0x01"
        },
        "_info": {
            "hash": "0xcdeb69d655cd9416d83eef2a7f75e1f40e048ec39cf02247ed2b78d1ebeff8bf",
            "comment": "`execution-specs` generated test",
            "filling-transition-tool": "2.18.0rc6",
            "description": "No description available - add a docstring to the python test class or function.",
            "url": "",
            "fixture-format": "state_test",
            "reference-spec": "https://github.com/ethereum/EIPs/blob/master/",
            "reference-spec-version": ""
        }
    },
    "tests/static/state_tests/stEIP150singleCodeGasPrices/RawExtCodeCopyGasFiller.json::RawExtCodeCopyGas[fork_Prague-state_test-]": {
        "env": {
            "currentCoinbase": "0x2adc25665018aa1fe0e6bc666dac8fc2697ff9ba",
            "currentGasLimit": "0x989680",
            "currentNumber": "0x01",
            "currentTimestamp": "0x03e8",
            "currentRandom": "0x0000000000000000000000000000000000000000000000000000000000020000",
            "currentDifficulty": "0x00",
            "currentBaseFee": "0x0a",
            "currentExcessBlobGas": "0x00"
        },
        "pre": {
            "0x31d0b21997f30e5eb2a731e7cb23c56329d47cb3": {
                "nonce": "0x00",
                "balance": "0xe8d4a51000",
                "code": "0x",
                "storage": {}
            },
            "0x9fa606602fef588182549c0a97767a65e994d3c6": {
                "nonce": "0x00",
                "balance": "0x00",
                "code": "0x0112233445566778899101112131415161718191202122232425",
                "storage": {}
            },
            "0x9fa606602fef588182549c0a97767a65e994d4c6": {
                "nonce": "0x00",
                "balance": "0x00",
                "code": "0x5a600052601460006020739fa606602fef588182549c0a97767a65e994d3c63c5a6000510360015500",
                "storage": {}
            }
        },
        "transaction": {
            "nonce": "0x00",
            "gasPrice": "0x0a",
            "gasLimit": [
                "0x0927c0"
            ],
            "to": "0x9fa606602fef588182549c0a97767a65e994d4c6",
            "value": [
                "0x00"
            ],
            "data": [
                "0x"
            ],
            "sender": "0x31d0b21997f30e5eb2a731e7cb23c56329d47cb3",
            "secretKey": "0x73f4c342fa0a25f48c59d3109fa606602fef588182549c0a97767a65e994d3c6"
        },
        "post": {
            "Prague": [
                {
                    "hash": "0x411faa533eed2ecad5627dfd0e9f8bdb45431e4eab3900a5d78908afffa5c323",
                    "logs": "0x1dcc4de8dec75d7aab85b567b6ccd41ad312451b948a7413f0a142fd40d49347",
                    "txbytes": "0xf860800a830927c0949fa606602fef588182549c0a97767a65e994d4c6808026a00bdc1741cb9026703a7079007a2d6bf1dd4c668cfe2cf04e4ba296fdc1e1b6dda05b5d1fc95c776d416c712cb2808d629c9d480070a833987028c1b00089e8ac7a",
                    "indexes": {
                        "data": 0,
                        "gas": 0,
                        "value": 0
                    },
                    "state": {
                        "0x31d0b21997f30e5eb2a731e7cb23c56329d47cb3": {
                            "nonce": "0x01",
                            "balance": "0xe8d49e152a",
                            "code": "0x",
                            "storage": {}
                        },
                        "0x9fa606602fef588182549c0a97767a65e994d3c6": {
                            "nonce": "0x00",
                            "balance": "0x00",
                            "code": "0x0112233445566778899101112131415161718191202122232425",
                            "storage": {}
                        },
                        "0x9fa606602fef588182549c0a97767a65e994d4c6": {
                            "nonce": "0x00",
                            "balance": "0x00",
                            "code": "0x5a600052601460006020739fa606602fef588182549c0a97767a65e994d3c63c5a6000510360015500",
                            "storage": {
                                "0x01": "0x0a45"
                            }
                        }
                    }
                }
            ]
        },
        "config": {
            "blobSchedule": {
                "Cancun": {
                    "target": "0x03",
                    "max": "0x06",
                    "baseFeeUpdateFraction": "0x32f0ed"
                },
                "Prague": {
                    "target": "0x06",
                    "max": "0x09",
                    "baseFeeUpdateFraction": "0x4c6964"
                }
            },
            "chainid": "0x01"
        },
        "_info": {
            "hash": "0x2c6b20437bc6ac4a71f425429a9986dfb2e8385099815c9a010c27af40c91685",
            "comment": "`execution-specs` generated test",
            "filling-transition-tool": "2.18.0rc6",
            "description": "No description available - add a docstring to the python test class or function.",
            "url": "",
            "fixture-format": "state_test",
            "reference-spec": "https://github.com/ethereum/EIPs/blob/master/",
            "reference-spec-version": ""
        }
    }
}