{
    "tests/ported_static/stCallCodes/test_callcall_00.py::test_callcall_00[fork_Cancun-blockchain_test_from_state_test]": {
        "network": "Cancun",
        "genesisBlockHeader": {
            "parentHash": "0x0000000000000000000000000000000000000000000000000000000000000000",
            "uncleHash": "0x1dcc4de8dec75d7aab85b567b6ccd41ad312451b948a7413f0a142fd40d49347",
            "coinbase": "0x0000000000000000000000000000000000000000",
            "stateRoot": "0xc557248257f70a499f3ea746720d8bb00e8133ae7c03a22259b9cedbf4bbc06b",
            "transactionsTrie": "0x56e81f171bcc55a6ff8345e692c0f86e5b48e01b996cadc001622fb5e363b421",
            "receiptTrie": "0x56e81f171bcc55a6ff8345e692c0f86e5b48e01b996cadc001622fb5e363b421",
            "bloom": "0x00000000000000000000000000000000000000000000000000000000000000000000000000000000000000000000000000000000000000000000000000000000000000000000000000000000000000000000000000000000000000000000000000000000000000000000000000000000000000000000000000000000000000000000000000000000000000000000000000000000000000000000000000000000000000000000000000000000000000000000000000000000000000000000000000000000000000000000000000000000000000000000000000000000000000000000000000000000000000000000000000000000000000000000000000000000",
            "difficulty": "0x00",
            "number": "0x00",
            "gasLimit": "0x01c9c380",
            "gasUsed": "0x00",
            "timestamp": "0x00",
            "extraData": "0x00",
            "mixHash": "0x0000000000000000000000000000000000000000000000000000000000000000",
            "nonce": "0x0000000000000000",
            "baseFeePerGas": "0x0b",
            "withdrawalsRoot": "0x56e81f171bcc55a6ff8345e692c0f86e5b48e01b996cadc001622fb5e363b421",
            "blobGasUsed": "0x00",
            "excessBlobGas": "0x00",
            "parentBeaconBlockRoot": "0x0000000000000000000000000000000000000000000000000000000000000000",
            "hash": "0x9d5c20f2f2f841280a08d77573ae884e6391eb2219bf6d89bdddde54ca11d632"
        },
        "pre": {
            "0x000f3df6d732807ef1319fb7b8bb8522d0beac02": {
                "nonce": "0x01",
                "balance": "0x00",
                "code": "0x3373fffffffffffffffffffffffffffffffffffffffe14604d57602036146024575f5ffd5b5f35801560495762001fff810690815414603c575f5ffd5b62001fff01545f5260205ff35b5f5ffd5b62001fff42064281555f359062001fff015500",
                "storage": {}
            },
            "0xeb09ff15547417853f6f4b240b8804769c37b0f1": {
                "nonce": "0x00",
                "balance": "0x0de0b6b3a7640000",
                "code": "0x6040600060406000600173c3e151e887921d1edb46aae9b4a3ffc5b85e2a8962055730f160005500",
                "storage": {}
            },
            "0xc3e151e887921d1edb46aae9b4a3ffc5b85e2a89": {
                "nonce": "0x00",
                "balance": "0x0de0b6b3a7640000",
                "code": "0x604060006040600060027333f368f0b54063613cf5944941e8e0e4eeb646976203d090f160015500",
                "storage": {}
            },
            "0x33f368f0b54063613cf5944941e8e0e4eeb64697": {
                "nonce": "0x00",
                "balance": "0x00",
                "code": "0x600160025533600455346007553060e6553260e8553660ec553860ee553a60f05500",
                "storage": {}
            },
            "0xebaf50debf10e08302fe4280c32df010463ca297": {
                "nonce": "0x00",
                "balance": "0x0de0b6b3a7640000",
                "code": "0x",
                "storage": {}
            }
        },
        "postState": {
            "0x000f3df6d732807ef1319fb7b8bb8522d0beac02": {
                "nonce": "0x01",
                "balance": "0x00",
                "code": "0x3373fffffffffffffffffffffffffffffffffffffffe14604d57602036146024575f5ffd5b5f35801560495762001fff810690815414603c575f5ffd5b62001fff01545f5260205ff35b5f5ffd5b62001fff42064281555f359062001fff015500",
                "storage": {
                    "0x03e8": "0x03e8"
                }
            },
            "0xeb09ff15547417853f6f4b240b8804769c37b0f1": {
                "nonce": "0x00",
                "balance": "0x0de0b6b3a763ffff",
                "code": "0x6040600060406000600173c3e151e887921d1edb46aae9b4a3ffc5b85e2a8962055730f160005500",
                "storage": {
                    "0x00": "0x01"
                }
            },
            "0xc3e151e887921d1edb46aae9b4a3ffc5b85e2a89": {
                "nonce": "0x00",
                "balance": "0x0de0b6b3a763ffff",
                "code": "0x604060006040600060027333f368f0b54063613cf5944941e8e0e4eeb646976203d090f160015500",
                "storage": {
                    "0x01": "0x01"
                }
            },
            "0x33f368f0b54063613cf5944941e8e0e4eeb64697": {
                "nonce": "0x00",
                "balance": "0x02",
                "code": "0x600160025533600455346007553060e6553260e8553660ec553860ee553a60f05500",
                "storage": {
                    "0x02": "0x01",
                    "0x04": "0xc3e151e887921d1edb46aae9b4a3ffc5b85e2a89",
                    "0x07": "0x02",
                    "0xe6": "0x33f368f0b54063613cf5944941e8e0e4eeb64697",
                    "0xe8": "0xebaf50debf10e08302fe4280c32df010463ca297",
                    "0xec": "0x40",
                    "0xee": "0x22",
                    "0xf0": "0x0a"
                }
            },
            "0xebaf50debf10e08302fe4280c32df010463ca297": {
                "nonce": "0x01",
                "balance": "0x0de0b6b3a73c385e",
                "code": "0x",
                "storage": {}
            }
        },
        "lastblockhash": "0x824c3f64b58d9da0e4584a288a48327d2d269cb494d5a7cdfc7438572a7764a7",
        "config": {
            "network": "Cancun",
            "chainid": "0x01",
            "blobSchedule": {
                "Cancun": {
                    "target": "0x03",
                    "max": "0x06",
                    "baseFeeUpdateFraction": "0x32f0ed"
                }
            }
        },
        "genesisRLP": "0xf9023cf90236a00000000000000000000000000000000000000000000000000000000000000000a01dcc4de8dec75d7aab85b567b6ccd41ad312451b948a7413f0a142fd40d49347940000000000000000000000000000000000000000a0c557248257f70a499f3ea746720d8bb00e8133ae7c03a22259b9cedbf4bbc06ba056e81f171bcc55a6ff8345e692c0f86e5b48e01b996cadc001622fb5e363b421a056e81f171bcc55a6ff8345e692c0f86e5b48e01b996cadc001622fb5e363b421b901000000000000000000000000000000000000000000000000000000000000000000000000000000000000000000000000000000000000000000000000000000000000000000000000000000000000000000000000000000000000000000000000000000000000000000000000000000000000000000000000000000000000000000000000000000000000000000000000000000000000000000000000000000000000000000000000000000000000000000000000000000000000000000000000000000000000000000000000000000000000000000000000000000000000000000000000000000000000000000000000000000000000000000000000000000000080808401c9c380808000a000000000000000000000000000000000000000000000000000000000000000008800000000000000000ba056e81f171bcc55a6ff8345e692c0f86e5b48e01b996cadc001622fb5e363b4218080a00000000000000000000000000000000000000000000000000000000000000000c0c0c0",
        "blocks": [
            {
                "blockHeader": {
                    "parentHash": "0x9d5c20f2f2f841280a08d77573ae884e6391eb2219bf6d89bdddde54ca11d632",
                    "uncleHash": "0x1dcc4de8dec75d7aab85b567b6ccd41ad312451b948a7413f0a142fd40d49347",
                    "coinbase": "0x2adc25665018aa1fe0e6bc666dac8fc2697ff9ba",
                    "stateRoot": "0xbcb0e8bf94eb10c759e1a1d42b2a7d8865042dfaf06a10ce89cfc489fd1cf35c",
                    "transactionsTrie": "0xaa91b9cdc01516e93dea9ab939178eab794b1ba12e87c9e402909468ffa38b48",
                    "receiptTrie": "0x95904f4e949bbc1f767e77a7f53dd981613a4c2d23ee353ae26fcd58f1ac87ae",
                    "bloom": "0x00000000000000000000000000000000000000000000000000000000000000000000000000000000000000000000000000000000000000000000000000000000000000000000000000000000000000000000000000000000000000000000000000000000000000000000000000000000000000000000000000000000000000000000000000000000000000000000000000000000000000000000000000000000000000000000000000000000000000000000000000000000000000000000000000000000000000000000000000000000000000000000000000000000000000000000000000000000000000000000000000000000000000000000000000000000",
                    "difficulty": "0x00",
                    "number": "0x01",
                    "gasLimit": "0x01c9c380",
                    "gasUsed": "0x03fa5d",
                    "timestamp": "0x03e8",
                    "extraData": "0x00",
                    "mixHash": "0x0000000000000000000000000000000000000000000000000000000000020000",
                    "nonce": "0x0000000000000000",
                    "baseFeePerGas": "0x0a",
                    "withdrawalsRoot": "0x56e81f171bcc55a6ff8345e692c0f86e5b48e01b996cadc001622fb5e363b421",
                    "blobGasUsed": "0x00",
                    "excessBlobGas": "0x00",
                    "parentBeaconBlockRoot": "0x0000000000000000000000000000000000000000000000000000000000000000",
                    "hash": "0x824c3f64b58d9da0e4584a288a48327d2d269cb494d5a7cdfc7438572a7764a7"
                },
                "transactions": [
                    {
                        "type": "0x00",
                        "chainId": "0x01",
                        "nonce": "0x00",
                        "gasPrice": "0x0a",
                        "gasLimit": "0x2dc6c0",
                        "to": "0xeb09ff15547417853f6f4b240b8804769c37b0f1",
                        "value": "0x00",
                        "data": "0x",
                        "v": "0x26",
                        "r": "0xaf5f9be83f6859e660c732a55c3d0382b941e553a90a47309f764a5acf1583b1",
                        "s": "0x385fda1e2a3ec71a467ebb540f7a5c1df41f766beccf81cc85bc05241759add4",
                        "sender": "0xebaf50debf10e08302fe4280c32df010463ca297"
                    }
                ],
                "uncleHeaders": [],
                "withdrawals": [],
                "receipts": [
                    {
                        "transactionHash": "0xf5b5a1e51b45538cd705cef3f6cbf71c91c4c612c6cf40c1865b32f38e995399",
                        "type": "0x00",
                        "cumulativeGasUsed": "0x03fa5d",
                        "bloom": "0x00000000000000000000000000000000000000000000000000000000000000000000000000000000000000000000000000000000000000000000000000000000000000000000000000000000000000000000000000000000000000000000000000000000000000000000000000000000000000000000000000000000000000000000000000000000000000000000000000000000000000000000000000000000000000000000000000000000000000000000000000000000000000000000000000000000000000000000000000000000000000000000000000000000000000000000000000000000000000000000000000000000000000000000000000000000",
                        "logs": [],
                        "status": true,
                        "rlp": "0xf90109018303fa5db9010000000000000000000000000000000000000000000000000000000000000000000000000000000000000000000000000000000000000000000000000000000000000000000000000000000000000000000000000000000000000000000000000000000000000000000000000000000000000000000000000000000000000000000000000000000000000000000000000000000000000000000000000000000000000000000000000000000000000000000000000000000000000000000000000000000000000000000000000000000000000000000000000000000000000000000000000000000000000000000000000000000000000000000000000000000000c0"
                    }
                ],
                "rlp": "0xf902a4f9023ba09d5c20f2f2f841280a08d77573ae884e6391eb2219bf6d89bdddde54ca11d632a01dcc4de8dec75d7aab85b567b6ccd41ad312451b948a7413f0a142fd40d49347942adc25665018aa1fe0e6bc666dac8fc2697ff9baa0bcb0e8bf94eb10c759e1a1d42b2a7d8865042dfaf06a10ce89cfc489fd1cf35ca0aa91b9cdc01516e93dea9ab939178eab794b1ba12e87c9e402909468ffa38b48a095904f4e949bbc1f767e77a7f53dd981613a4c2d23ee353ae26fcd58f1ac87aeb901000000000000000000000000000000000000000000000000000000000000000000000000000000000000000000000000000000000000000000000000000000000000000000000000000000000000000000000000000000000000000000000000000000000000000000000000000000000000000000000000000000000000000000000000000000000000000000000000000000000000000000000000000000000000000000000000000000000000000000000000000000000000000000000000000000000000000000000000000000000000000000000000000000000000000000000000000000000000000000000000000000000000000000000000000000000080018401c9c3808303fa5d8203e800a000000000000000000000000000000000000000000000000000000000000200008800000000000000000aa056e81f171bcc55a6ff8345e692c0f86e5b48e01b996cadc001622fb5e363b4218080a00000000000000000000000000000000000000000000000000000000000000000f862f860800a832dc6c094eb09ff15547417853f6f4b240b8804769c37b0f1808026a0af5f9be83f6859e660c732a55c3d0382b941e553a90a47309f764a5acf1583b1a0385fda1e2a3ec71a467ebb540f7a5c1df41f766beccf81cc85bc05241759add4c0c0",
                "blocknumber": "1"
            }
        ],
        "sealEngine": "NoProof",
        "_info": {
            "hash": "0x8785502455c90ca6cc0d48b245ac179b37c34fbca63d5a8764b2497aac52acf2",
            "fixture-format": "blockchain_test",
            "comment": "`execution-specs` generated test",
            "filling-transition-tool": "2.19.0",
            "description": "Call -> call -> code, params check.",
            "url": "https://github.com/ethereum/execution-specs/blob/tests-bal@v5.6.1/tests/ported_static/stCallCodes/test_callcall_00.py#L25",
            "metadata": {
                "opcode_count": {}
            }
        }
    }
}