{
    "tests/ported_static/stCallDelegateCodesCallCodeHomestead/test_callcodecallcallcode_abcb_recursive.py::test_callcodecallcallcode_abcb_recursive[fork_Cancun-blockchain_test_from_state_test]": {
        "network": "Cancun",
        "genesisBlockHeader": {
            "parentHash": "0x0000000000000000000000000000000000000000000000000000000000000000",
            "uncleHash": "0x1dcc4de8dec75d7aab85b567b6ccd41ad312451b948a7413f0a142fd40d49347",
            "coinbase": "0x0000000000000000000000000000000000000000",
            "stateRoot": "0x901c81ed8a4a1e5c9bb55aff5a7e6931356ebd49fc831b969681e4c3f1cf78da",
            "transactionsTrie": "0x56e81f171bcc55a6ff8345e692c0f86e5b48e01b996cadc001622fb5e363b421",
            "receiptTrie": "0x56e81f171bcc55a6ff8345e692c0f86e5b48e01b996cadc001622fb5e363b421",
            "bloom": "0x00000000000000000000000000000000000000000000000000000000000000000000000000000000000000000000000000000000000000000000000000000000000000000000000000000000000000000000000000000000000000000000000000000000000000000000000000000000000000000000000000000000000000000000000000000000000000000000000000000000000000000000000000000000000000000000000000000000000000000000000000000000000000000000000000000000000000000000000000000000000000000000000000000000000000000000000000000000000000000000000000000000000000000000000000000000",
            "difficulty": "0x00",
            "number": "0x00",
            "gasLimit": "0xb2d05e00",
            "gasUsed": "0x00",
            "timestamp": "0x00",
            "extraData": "0x00",
            "mixHash": "0x0000000000000000000000000000000000000000000000000000000000000000",
            "nonce": "0x0000000000000000",
            "baseFeePerGas": "0x0b",
            "withdrawalsRoot": "0x56e81f171bcc55a6ff8345e692c0f86e5b48e01b996cadc001622fb5e363b421",
            "blobGasUsed": "0x00",
            "excessBlobGas": "0x00",
            "parentBeaconBlockRoot": "0x0000000000000000000000000000000000000000000000000000000000000000",
            "hash": "0x17c1b3b6eb99663c5ea76677fe64cbd5ee6e5a2999ecc339f1d6841915099e5b"
        },
        "pre": {
            "0x000f3df6d732807ef1319fb7b8bb8522d0beac02": {
                "nonce": "0x01",
                "balance": "0x00",
                "code": "0x3373fffffffffffffffffffffffffffffffffffffffe14604d57602036146024575f5ffd5b5f35801560495762001fff810690815414603c575f5ffd5b62001fff01545f5260205ff35b5f5ffd5b62001fff42064281555f359062001fff015500",
                "storage": {}
            },
            "0x15600a91a7af84b8c85782714b3391ed5d73f9a0": {
                "nonce": "0x00",
                "balance": "0x0de0b6b3a7640000",
                "code": "0x604060006040600073e2ab9779f4fb1d9d39211cc2082083add172e69c63017d7840f460005500",
                "storage": {}
            },
            "0xe2ab9779f4fb1d9d39211cc2082083add172e69c": {
                "nonce": "0x00",
                "balance": "0x02540be400",
                "code": "0x6040600060406000600073a72f0e2f2fc5fd0878af9b8e4aaed09983670929620f4240f260015500",
                "storage": {}
            },
            "0xa72f0e2f2fc5fd0878af9b8e4aaed09983670929": {
                "nonce": "0x00",
                "balance": "0x02540be400",
                "code": "0x604060006040600073e2ab9779f4fb1d9d39211cc2082083add172e69c6207a120f460025500",
                "storage": {}
            },
            "0xebaf50debf10e08302fe4280c32df010463ca297": {
                "nonce": "0x00",
                "balance": "0x0de0b6b3a7640000",
                "code": "0x",
                "storage": {}
            }
        },
        "postState": {
            "0x000f3df6d732807ef1319fb7b8bb8522d0beac02": {
                "nonce": "0x01",
                "balance": "0x00",
                "code": "0x3373fffffffffffffffffffffffffffffffffffffffe14604d57602036146024575f5ffd5b5f35801560495762001fff810690815414603c575f5ffd5b62001fff01545f5260205ff35b5f5ffd5b62001fff42064281555f359062001fff015500",
                "storage": {
                    "0x03e8": "0x03e8"
                }
            },
            "0x15600a91a7af84b8c85782714b3391ed5d73f9a0": {
                "nonce": "0x00",
                "balance": "0x0de0b6b3a7640000",
                "code": "0x604060006040600073e2ab9779f4fb1d9d39211cc2082083add172e69c63017d7840f460005500",
                "storage": {
                    "0x01": "0x01",
                    "0x00": "0x01"
                }
            },
            "0xe2ab9779f4fb1d9d39211cc2082083add172e69c": {
                "nonce": "0x00",
                "balance": "0x02540be400",
                "code": "0x6040600060406000600073a72f0e2f2fc5fd0878af9b8e4aaed09983670929620f4240f260015500",
                "storage": {}
            },
            "0xa72f0e2f2fc5fd0878af9b8e4aaed09983670929": {
                "nonce": "0x00",
                "balance": "0x02540be400",
                "code": "0x604060006040600073e2ab9779f4fb1d9d39211cc2082083add172e69c6207a120f460025500",
                "storage": {}
            },
            "0xebaf50debf10e08302fe4280c32df010463ca297": {
                "nonce": "0x01",
                "balance": "0x0de0b6b3a70c99a0",
                "code": "0x",
                "storage": {}
            }
        },
        "lastblockhash": "0x40fe0c1d80a1cb5851ac2453228f0afa61d22b1278cf7ab5770821b99de16e27",
        "config": {
            "network": "Cancun",
            "chainid": "0x01",
            "blobSchedule": {
                "Cancun": {
                    "target": "0x03",
                    "max": "0x06",
                    "baseFeeUpdateFraction": "0x32f0ed"
                }
            }
        },
        "genesisRLP": "0xf9023cf90236a00000000000000000000000000000000000000000000000000000000000000000a01dcc4de8dec75d7aab85b567b6ccd41ad312451b948a7413f0a142fd40d49347940000000000000000000000000000000000000000a0901c81ed8a4a1e5c9bb55aff5a7e6931356ebd49fc831b969681e4c3f1cf78daa056e81f171bcc55a6ff8345e692c0f86e5b48e01b996cadc001622fb5e363b421a056e81f171bcc55a6ff8345e692c0f86e5b48e01b996cadc001622fb5e363b421b9010000000000000000000000000000000000000000000000000000000000000000000000000000000000000000000000000000000000000000000000000000000000000000000000000000000000000000000000000000000000000000000000000000000000000000000000000000000000000000000000000000000000000000000000000000000000000000000000000000000000000000000000000000000000000000000000000000000000000000000000000000000000000000000000000000000000000000000000000000000000000000000000000000000000000000000000000000000000000000000000000000000000000000000000000000000000808084b2d05e00808000a000000000000000000000000000000000000000000000000000000000000000008800000000000000000ba056e81f171bcc55a6ff8345e692c0f86e5b48e01b996cadc001622fb5e363b4218080a00000000000000000000000000000000000000000000000000000000000000000c0c0c0",
        "blocks": [
            {
                "blockHeader": {
                    "parentHash": "0x17c1b3b6eb99663c5ea76677fe64cbd5ee6e5a2999ecc339f1d6841915099e5b",
                    "uncleHash": "0x1dcc4de8dec75d7aab85b567b6ccd41ad312451b948a7413f0a142fd40d49347",
                    "coinbase": "0x2adc25665018aa1fe0e6bc666dac8fc2697ff9ba",
                    "stateRoot": "0xa5c901f56592267866cfe8b9dae6b4b302a5c1f433be5ca8615e8c9656928ac3",
                    "transactionsTrie": "0xb61944d32265fefc435b3e74d7a0d21f8f8b21147cf20d658ce3ac60040e32f6",
                    "receiptTrie": "0x2cfdcc9f422af8df66fc27e6a5fac0806d619761e37db665ad7705be9a0fbef8",
                    "bloom": "0x00000000000000000000000000000000000000000000000000000000000000000000000000000000000000000000000000000000000000000000000000000000000000000000000000000000000000000000000000000000000000000000000000000000000000000000000000000000000000000000000000000000000000000000000000000000000000000000000000000000000000000000000000000000000000000000000000000000000000000000000000000000000000000000000000000000000000000000000000000000000000000000000000000000000000000000000000000000000000000000000000000000000000000000000000000000",
                    "difficulty": "0x00",
                    "number": "0x01",
                    "gasLimit": "0xb2d05e00",
                    "gasUsed": "0x08bd70",
                    "timestamp": "0x03e8",
                    "extraData": "0x00",
                    "mixHash": "0x0000000000000000000000000000000000000000000000000000000000020000",
                    "nonce": "0x0000000000000000",
                    "baseFeePerGas": "0x0a",
                    "withdrawalsRoot": "0x56e81f171bcc55a6ff8345e692c0f86e5b48e01b996cadc001622fb5e363b421",
                    "blobGasUsed": "0x00",
                    "excessBlobGas": "0x00",
                    "parentBeaconBlockRoot": "0x0000000000000000000000000000000000000000000000000000000000000000",
                    "hash": "0x40fe0c1d80a1cb5851ac2453228f0afa61d22b1278cf7ab5770821b99de16e27"
                },
                "transactions": [
                    {
                        "type": "0x00",
                        "chainId": "0x01",
                        "nonce": "0x00",
                        "gasPrice": "0x0a",
                        "gasLimit": "0x0927c0",
                        "to": "0x15600a91a7af84b8c85782714b3391ed5d73f9a0",
                        "value": "0x00",
                        "data": "0x",
                        "v": "0x25",
                        "r": "0x62112561a578631471ad7dd4cd773cf06d0c2a00bd129201e6d84f4422378e11",
                        "s": "0x2b2736e5c9d30a43bf66b4cab896caa768c8bdc01e0b71d858ad5e789ac6e12f",
                        "sender": "0xebaf50debf10e08302fe4280c32df010463ca297"
                    }
                ],
                "uncleHeaders": [],
                "withdrawals": [],
                "receipts": [
                    {
                        "transactionHash": "0x400ebd0a6ccee3b5e06a51f9dc433b9021a446703d6096d900dc5f015bb8ec39",
                        "type": "0x00",
                        "cumulativeGasUsed": "0x08bd70",
                        "bloom": "0x00000000000000000000000000000000000000000000000000000000000000000000000000000000000000000000000000000000000000000000000000000000000000000000000000000000000000000000000000000000000000000000000000000000000000000000000000000000000000000000000000000000000000000000000000000000000000000000000000000000000000000000000000000000000000000000000000000000000000000000000000000000000000000000000000000000000000000000000000000000000000000000000000000000000000000000000000000000000000000000000000000000000000000000000000000000",
                        "logs": [],
                        "status": true,
                        "rlp": "0xf90109018308bd70b9010000000000000000000000000000000000000000000000000000000000000000000000000000000000000000000000000000000000000000000000000000000000000000000000000000000000000000000000000000000000000000000000000000000000000000000000000000000000000000000000000000000000000000000000000000000000000000000000000000000000000000000000000000000000000000000000000000000000000000000000000000000000000000000000000000000000000000000000000000000000000000000000000000000000000000000000000000000000000000000000000000000000000000000000000000000000c0"
                    }
                ],
                "rlp": "0xf902a4f9023ba017c1b3b6eb99663c5ea76677fe64cbd5ee6e5a2999ecc339f1d6841915099e5ba01dcc4de8dec75d7aab85b567b6ccd41ad312451b948a7413f0a142fd40d49347942adc25665018aa1fe0e6bc666dac8fc2697ff9baa0a5c901f56592267866cfe8b9dae6b4b302a5c1f433be5ca8615e8c9656928ac3a0b61944d32265fefc435b3e74d7a0d21f8f8b21147cf20d658ce3ac60040e32f6a02cfdcc9f422af8df66fc27e6a5fac0806d619761e37db665ad7705be9a0fbef8b9010000000000000000000000000000000000000000000000000000000000000000000000000000000000000000000000000000000000000000000000000000000000000000000000000000000000000000000000000000000000000000000000000000000000000000000000000000000000000000000000000000000000000000000000000000000000000000000000000000000000000000000000000000000000000000000000000000000000000000000000000000000000000000000000000000000000000000000000000000000000000000000000000000000000000000000000000000000000000000000000000000000000000000000000000000000000800184b2d05e008308bd708203e800a000000000000000000000000000000000000000000000000000000000000200008800000000000000000aa056e81f171bcc55a6ff8345e692c0f86e5b48e01b996cadc001622fb5e363b4218080a00000000000000000000000000000000000000000000000000000000000000000f862f860800a830927c09415600a91a7af84b8c85782714b3391ed5d73f9a0808025a062112561a578631471ad7dd4cd773cf06d0c2a00bd129201e6d84f4422378e11a02b2736e5c9d30a43bf66b4cab896caa768c8bdc01e0b71d858ad5e789ac6e12fc0c0",
                "blocknumber": "1"
            }
        ],
        "sealEngine": "NoProof",
        "_info": {
            "hash": "0x8787ca8aba35558f3aa0694a53aa727ffb44a0dcecef9afb0781b87d2102487b",
            "fixture-format": "blockchain_test",
            "comment": "`execution-specs` generated test",
            "filling-transition-tool": "2.19.0",
            "description": "DELEGATECALL -> CALLCODE -> DELEGATECALL2 -> CALLCODE ->...",
            "url": "https://github.com/ethereum/execution-specs/blob/tests-bal@v5.6.0/tests/ported_static/stCallDelegateCodesCallCodeHomestead/test_callcodecallcallcode_abcb_recursive.py#L27",
            "metadata": {
                "opcode_count": {}
            }
        }
    }
}