{
    "tests/static/state_tests/stCallCodes/callcallcodecall_010_SuicideMiddleFiller.json::callcallcodecall_010_SuicideMiddle[fork_Cancun-blockchain_test_from_state_test-]": {
        "network": "Cancun",
        "genesisBlockHeader": {
            "parentHash": "0x0000000000000000000000000000000000000000000000000000000000000000",
            "uncleHash": "0x1dcc4de8dec75d7aab85b567b6ccd41ad312451b948a7413f0a142fd40d49347",
            "coinbase": "0x0000000000000000000000000000000000000000",
            "stateRoot": "0xbc31b74ca71060ff518e997ffb463c1e41771f25d3ebd0b9cc6da178300a4637",
            "transactionsTrie": "0x56e81f171bcc55a6ff8345e692c0f86e5b48e01b996cadc001622fb5e363b421",
            "receiptTrie": "0x56e81f171bcc55a6ff8345e692c0f86e5b48e01b996cadc001622fb5e363b421",
            "bloom": "0x00000000000000000000000000000000000000000000000000000000000000000000000000000000000000000000000000000000000000000000000000000000000000000000000000000000000000000000000000000000000000000000000000000000000000000000000000000000000000000000000000000000000000000000000000000000000000000000000000000000000000000000000000000000000000000000000000000000000000000000000000000000000000000000000000000000000000000000000000000000000000000000000000000000000000000000000000000000000000000000000000000000000000000000000000000000",
            "difficulty": "0x00",
            "number": "0x00",
            "gasLimit": "0x01c9c380",
            "gasUsed": "0x00",
            "timestamp": "0x00",
            "extraData": "0x00",
            "mixHash": "0x0000000000000000000000000000000000000000000000000000000000000000",
            "nonce": "0x0000000000000000",
            "baseFeePerGas": "0x0b",
            "withdrawalsRoot": "0x56e81f171bcc55a6ff8345e692c0f86e5b48e01b996cadc001622fb5e363b421",
            "blobGasUsed": "0x00",
            "excessBlobGas": "0x00",
            "parentBeaconBlockRoot": "0x0000000000000000000000000000000000000000000000000000000000000000",
            "hash": "0xb7f6a29e41779c2bbed975275f67ebbfa881855e75df0eaa7db282bcf4d6e97d"
        },
        "pre": {
            "0x000f3df6d732807ef1319fb7b8bb8522d0beac02": {
                "nonce": "0x01",
                "balance": "0x00",
                "code": "0x3373fffffffffffffffffffffffffffffffffffffffe14604d57602036146024575f5ffd5b5f35801560495762001fff810690815414603c575f5ffd5b62001fff01545f5260205ff35b5f5ffd5b62001fff42064281555f359062001fff015500",
                "storage": {}
            },
            "0xebaf50debf10e08302fe4280c32df010463ca297": {
                "nonce": "0x00",
                "balance": "0x0de0b6b3a7640000",
                "code": "0x",
                "storage": {}
            },
            "0x73b954ebc05bb0ff4a0f6a13a054d50ad1584099": {
                "nonce": "0x00",
                "balance": "0x02540be400",
                "code": "0x600160035500",
                "storage": {}
            },
            "0x4353e77718be108d4c149d88b34caceda42c5c66": {
                "nonce": "0x00",
                "balance": "0x0de0b6b3a7640000",
                "code": "0x6040600060406000600073eaf8c2ae0d01a880cea4e1aa88def5edd153d57b620249f0f160005500",
                "storage": {}
            },
            "0xeaf8c2ae0d01a880cea4e1aa88def5edd153d57b": {
                "nonce": "0x00",
                "balance": "0x02540be400",
                "code": "0x6040600060406000600073ac90bb4611b91d4c6292bd64e8656110822e01ed620186a0f260015500",
                "storage": {}
            },
            "0xac90bb4611b91d4c6292bd64e8656110822e01ed": {
                "nonce": "0x00",
                "balance": "0x02540be400",
                "code": "0x734353e77718be108d4c149d88b34caceda42c5c66ff604060006040600060007373b954ebc05bb0ff4a0f6a13a054d50ad158409961c350f160025500",
                "storage": {}
            }
        },
        "postState": {
            "0x000f3df6d732807ef1319fb7b8bb8522d0beac02": {
                "nonce": "0x01",
                "balance": "0x00",
                "code": "0x3373fffffffffffffffffffffffffffffffffffffffe14604d57602036146024575f5ffd5b5f35801560495762001fff810690815414603c575f5ffd5b62001fff01545f5260205ff35b5f5ffd5b62001fff42064281555f359062001fff015500",
                "storage": {
                    "0x03e8": "0x03e8"
                }
            },
            "0xebaf50debf10e08302fe4280c32df010463ca297": {
                "nonce": "0x01",
                "balance": "0x0de0b6b3a7587c3a",
                "code": "0x",
                "storage": {}
            },
            "0x73b954ebc05bb0ff4a0f6a13a054d50ad1584099": {
                "nonce": "0x00",
                "balance": "0x02540be400",
                "code": "0x600160035500",
                "storage": {}
            },
            "0x4353e77718be108d4c149d88b34caceda42c5c66": {
                "nonce": "0x00",
                "balance": "0x0de0b6b5fb6fe400",
                "code": "0x6040600060406000600073eaf8c2ae0d01a880cea4e1aa88def5edd153d57b620249f0f160005500",
                "storage": {
                    "0x00": "0x01"
                }
            },
            "0xeaf8c2ae0d01a880cea4e1aa88def5edd153d57b": {
                "nonce": "0x00",
                "balance": "0x00",
                "code": "0x6040600060406000600073ac90bb4611b91d4c6292bd64e8656110822e01ed620186a0f260015500",
                "storage": {
                    "0x01": "0x01"
                }
            },
            "0xac90bb4611b91d4c6292bd64e8656110822e01ed": {
                "nonce": "0x00",
                "balance": "0x02540be400",
                "code": "0x734353e77718be108d4c149d88b34caceda42c5c66ff604060006040600060007373b954ebc05bb0ff4a0f6a13a054d50ad158409961c350f160025500",
                "storage": {}
            }
        },
        "lastblockhash": "0x81dea87857920909267cae36bd4af23096be8e9cb2d6e42496725a6266ce15d5",
        "config": {
            "network": "Cancun",
            "chainid": "0x01",
            "blobSchedule": {
                "Cancun": {
                    "target": "0x03",
                    "max": "0x06",
                    "baseFeeUpdateFraction": "0x32f0ed"
                }
            }
        },
        "genesisRLP": "0xf9023cf90236a00000000000000000000000000000000000000000000000000000000000000000a01dcc4de8dec75d7aab85b567b6ccd41ad312451b948a7413f0a142fd40d49347940000000000000000000000000000000000000000a0bc31b74ca71060ff518e997ffb463c1e41771f25d3ebd0b9cc6da178300a4637a056e81f171bcc55a6ff8345e692c0f86e5b48e01b996cadc001622fb5e363b421a056e81f171bcc55a6ff8345e692c0f86e5b48e01b996cadc001622fb5e363b421b901000000000000000000000000000000000000000000000000000000000000000000000000000000000000000000000000000000000000000000000000000000000000000000000000000000000000000000000000000000000000000000000000000000000000000000000000000000000000000000000000000000000000000000000000000000000000000000000000000000000000000000000000000000000000000000000000000000000000000000000000000000000000000000000000000000000000000000000000000000000000000000000000000000000000000000000000000000000000000000000000000000000000000000000000000000000080808401c9c380808000a000000000000000000000000000000000000000000000000000000000000000008800000000000000000ba056e81f171bcc55a6ff8345e692c0f86e5b48e01b996cadc001622fb5e363b4218080a00000000000000000000000000000000000000000000000000000000000000000c0c0c0",
        "blocks": [
            {
                "blockHeader": {
                    "parentHash": "0xb7f6a29e41779c2bbed975275f67ebbfa881855e75df0eaa7db282bcf4d6e97d",
                    "uncleHash": "0x1dcc4de8dec75d7aab85b567b6ccd41ad312451b948a7413f0a142fd40d49347",
                    "coinbase": "0x2adc25665018aa1fe0e6bc666dac8fc2697ff9ba",
                    "stateRoot": "0xc1b0ed73f0b129563e3e2516e79b017053f654ccb6427d837e9ce107d3ea534d",
                    "transactionsTrie": "0xaddf500a3e4d6dd16ab7e7f771b1532735e11b65bb197f3c675ac87d1b3ded7d",
                    "receiptTrie": "0x883a729346217ffad6c0491d67d46d21bf7b246224086224fd8e11d20011e18c",
                    "bloom": "0x00000000000000000000000000000000000000000000000000000000000000000000000000000000000000000000000000000000000000000000000000000000000000000000000000000000000000000000000000000000000000000000000000000000000000000000000000000000000000000000000000000000000000000000000000000000000000000000000000000000000000000000000000000000000000000000000000000000000000000000000000000000000000000000000000000000000000000000000000000000000000000000000000000000000000000000000000000000000000000000000000000000000000000000000000000000",
                    "difficulty": "0x00",
                    "number": "0x01",
                    "gasLimit": "0x01c9c380",
                    "gasUsed": "0x0126c7",
                    "timestamp": "0x03e8",
                    "extraData": "0x00",
                    "mixHash": "0x0000000000000000000000000000000000000000000000000000000000020000",
                    "nonce": "0x0000000000000000",
                    "baseFeePerGas": "0x0a",
                    "withdrawalsRoot": "0x56e81f171bcc55a6ff8345e692c0f86e5b48e01b996cadc001622fb5e363b421",
                    "blobGasUsed": "0x00",
                    "excessBlobGas": "0x00",
                    "parentBeaconBlockRoot": "0x0000000000000000000000000000000000000000000000000000000000000000",
                    "hash": "0x81dea87857920909267cae36bd4af23096be8e9cb2d6e42496725a6266ce15d5"
                },
                "transactions": [
                    {
                        "type": "0x00",
                        "chainId": "0x01",
                        "nonce": "0x00",
                        "gasPrice": "0x0a",
                        "gasLimit": "0x2dc6c0",
                        "to": "0x4353e77718be108d4c149d88b34caceda42c5c66",
                        "value": "0x00",
                        "data": "0x",
                        "v": "0x25",
                        "r": "0xe7e147be1d7383e34cd33679abd73c155a45b57ff7e6b11d2ec4a5a7db5e24bf",
                        "s": "0x2cde67a621687521ce96eb865359bb4ca2baa5b3896c27cbd2a150819f715c59",
                        "sender": "0xebaf50debf10e08302fe4280c32df010463ca297"
                    }
                ],
                "uncleHeaders": [],
                "withdrawals": [],
                "receipts": [
                    {
                        "transactionHash": "0xe2fbaa67b8f481c87d6b415ffc9deb9eb35e12d2dbaccd54e28144161e771e73",
                        "type": "0x00",
                        "cumulativeGasUsed": "0x0126c7",
                        "bloom": "0x00000000000000000000000000000000000000000000000000000000000000000000000000000000000000000000000000000000000000000000000000000000000000000000000000000000000000000000000000000000000000000000000000000000000000000000000000000000000000000000000000000000000000000000000000000000000000000000000000000000000000000000000000000000000000000000000000000000000000000000000000000000000000000000000000000000000000000000000000000000000000000000000000000000000000000000000000000000000000000000000000000000000000000000000000000000",
                        "logs": [],
                        "status": true,
                        "rlp": "0xf9010901830126c7b9010000000000000000000000000000000000000000000000000000000000000000000000000000000000000000000000000000000000000000000000000000000000000000000000000000000000000000000000000000000000000000000000000000000000000000000000000000000000000000000000000000000000000000000000000000000000000000000000000000000000000000000000000000000000000000000000000000000000000000000000000000000000000000000000000000000000000000000000000000000000000000000000000000000000000000000000000000000000000000000000000000000000000000000000000000000000c0"
                    }
                ],
                "rlp": "0xf902a4f9023ba0b7f6a29e41779c2bbed975275f67ebbfa881855e75df0eaa7db282bcf4d6e97da01dcc4de8dec75d7aab85b567b6ccd41ad312451b948a7413f0a142fd40d49347942adc25665018aa1fe0e6bc666dac8fc2697ff9baa0c1b0ed73f0b129563e3e2516e79b017053f654ccb6427d837e9ce107d3ea534da0addf500a3e4d6dd16ab7e7f771b1532735e11b65bb197f3c675ac87d1b3ded7da0883a729346217ffad6c0491d67d46d21bf7b246224086224fd8e11d20011e18cb901000000000000000000000000000000000000000000000000000000000000000000000000000000000000000000000000000000000000000000000000000000000000000000000000000000000000000000000000000000000000000000000000000000000000000000000000000000000000000000000000000000000000000000000000000000000000000000000000000000000000000000000000000000000000000000000000000000000000000000000000000000000000000000000000000000000000000000000000000000000000000000000000000000000000000000000000000000000000000000000000000000000000000000000000000000000080018401c9c380830126c78203e800a000000000000000000000000000000000000000000000000000000000000200008800000000000000000aa056e81f171bcc55a6ff8345e692c0f86e5b48e01b996cadc001622fb5e363b4218080a00000000000000000000000000000000000000000000000000000000000000000f862f860800a832dc6c0944353e77718be108d4c149d88b34caceda42c5c66808025a0e7e147be1d7383e34cd33679abd73c155a45b57ff7e6b11d2ec4a5a7db5e24bfa02cde67a621687521ce96eb865359bb4ca2baa5b3896c27cbd2a150819f715c59c0c0",
                "blocknumber": "1"
            }
        ],
        "sealEngine": "NoProof",
        "_info": {
            "hash": "0x005792622dc224515a2b95fb7b7f1f3d702820d2fa2040fc9cfa5d72a5957756",
            "fixture-format": "blockchain_test",
            "comment": "`execution-specs` generated test",
            "filling-transition-tool": "2.19.0",
            "description": "No description available - add a docstring to the python test class or function.",
            "url": "",
            "opcode_count": {}
        }
    }
}