{
    "tests/cancun/eip6780_selfdestruct/test_selfdestruct_revert.py::test_selfdestruct_not_created_in_same_tx_with_revert[fork_Cancun-blockchain_test_from_state_test-no_outer_selfdestruct-not_same_tx-init_balance_2]": {
        "network": "Cancun",
        "genesisBlockHeader": {
            "parentHash": "0x0000000000000000000000000000000000000000000000000000000000000000",
            "uncleHash": "0x1dcc4de8dec75d7aab85b567b6ccd41ad312451b948a7413f0a142fd40d49347",
            "coinbase": "0x0000000000000000000000000000000000000000",
            "stateRoot": "0x8633aea8cbced55772f4dab1f2f75abb3f46998836893b4fdc4f5fcd16440dc3",
            "transactionsTrie": "0x56e81f171bcc55a6ff8345e692c0f86e5b48e01b996cadc001622fb5e363b421",
            "receiptTrie": "0x56e81f171bcc55a6ff8345e692c0f86e5b48e01b996cadc001622fb5e363b421",
            "bloom": "0x00000000000000000000000000000000000000000000000000000000000000000000000000000000000000000000000000000000000000000000000000000000000000000000000000000000000000000000000000000000000000000000000000000000000000000000000000000000000000000000000000000000000000000000000000000000000000000000000000000000000000000000000000000000000000000000000000000000000000000000000000000000000000000000000000000000000000000000000000000000000000000000000000000000000000000000000000000000000000000000000000000000000000000000000000000000",
            "difficulty": "0x00",
            "number": "0x00",
            "gasLimit": "0x07270e00",
            "gasUsed": "0x00",
            "timestamp": "0x00",
            "extraData": "0x00",
            "mixHash": "0x0000000000000000000000000000000000000000000000000000000000000000",
            "nonce": "0x0000000000000000",
            "baseFeePerGas": "0x07",
            "withdrawalsRoot": "0x56e81f171bcc55a6ff8345e692c0f86e5b48e01b996cadc001622fb5e363b421",
            "blobGasUsed": "0x00",
            "excessBlobGas": "0x00",
            "parentBeaconBlockRoot": "0x0000000000000000000000000000000000000000000000000000000000000000",
            "hash": "0xe40278111fba7d1b603f12eb95d25af793880e814e276c8ac0820d9aa0666bf0"
        },
        "pre": {
            "0x000f3df6d732807ef1319fb7b8bb8522d0beac02": {
                "nonce": "0x01",
                "balance": "0x00",
                "code": "0x3373fffffffffffffffffffffffffffffffffffffffe14604d57602036146024575f5ffd5b5f35801560495762001fff810690815414603c575f5ffd5b62001fff01545f5260205ff35b5f5ffd5b62001fff42064281555f359062001fff015500",
                "storage": {}
            },
            "0x1ad9bc24818784172ff393bb6f89f094d4d2ca29": {
                "nonce": "0x00",
                "balance": "0x3635c9adc5dea00000",
                "code": "0x",
                "storage": {}
            },
            "0xf2f0862623edbd88f669fd6d6131d56b6811c189": {
                "nonce": "0x01",
                "balance": "0x00",
                "code": "0x5f3573c0f6dc9e5836f54caadbf59cc69346c508e1992b90805f14602f57600114602557005b6001805401600155ff5b60015f54015f555f80f3",
                "storage": {}
            },
            "0x90a7c0803dc6717daa65b4f77adb6132d4565605": {
                "nonce": "0x01",
                "balance": "0x02",
                "code": "0x5f35600173f2f0862623edbd88f669fd6d6131d56b6811c1899190815f14603a5750600114602957005b5f6020816001819481835245f15f80fd5b90505f80525f8060208160018645f1505f525f80602081803045f150316001555f80f3",
                "storage": {}
            }
        },
        "postState": {
            "0x000f3df6d732807ef1319fb7b8bb8522d0beac02": {
                "nonce": "0x01",
                "balance": "0x00",
                "code": "0x3373fffffffffffffffffffffffffffffffffffffffe14604d57602036146024575f5ffd5b5f35801560495762001fff810690815414603c575f5ffd5b62001fff01545f5260205ff35b5f5ffd5b62001fff42064281555f359062001fff015500",
                "storage": {
                    "0x03e8": "0x03e8"
                }
            },
            "0x1ad9bc24818784172ff393bb6f89f094d4d2ca29": {
                "nonce": "0x01",
                "balance": "0x3635c9adc5de85d086",
                "code": "0x",
                "storage": {}
            },
            "0xf2f0862623edbd88f669fd6d6131d56b6811c189": {
                "nonce": "0x01",
                "balance": "0x01",
                "code": "0x5f3573c0f6dc9e5836f54caadbf59cc69346c508e1992b90805f14602f57600114602557005b6001805401600155ff5b60015f54015f555f80f3",
                "storage": {
                    "0x00": "0x01"
                }
            },
            "0x90a7c0803dc6717daa65b4f77adb6132d4565605": {
                "nonce": "0x01",
                "balance": "0x01",
                "code": "0x5f35600173f2f0862623edbd88f669fd6d6131d56b6811c1899190815f14603a5750600114602957005b5f6020816001819481835245f15f80fd5b90505f80525f8060208160018645f1505f525f80602081803045f150316001555f80f3",
                "storage": {
                    "0x01": "0x01"
                }
            },
            "0x36bdd8886852759e2046e3bf4c290d5c29c81d82": {
                "nonce": "0x01",
                "balance": "0x00",
                "code": "0x",
                "storage": {}
            },
            "0x2adc25665018aa1fe0e6bc666dac8fc2697ff9ba": {
                "nonce": "0x00",
                "balance": "0x07db0b",
                "code": "0x",
                "storage": {}
            }
        },
        "lastblockhash": "0x60227b5a002bb42495d6e7f7926f6e0d27fc2be8094e2addf14eeeaf17edb448",
        "config": {
            "network": "Cancun",
            "chainid": "0x01",
            "blobSchedule": {
                "Cancun": {
                    "target": "0x03",
                    "max": "0x06",
                    "baseFeeUpdateFraction": "0x32f0ed"
                }
            }
        },
        "genesisRLP": "0xf9023cf90236a00000000000000000000000000000000000000000000000000000000000000000a01dcc4de8dec75d7aab85b567b6ccd41ad312451b948a7413f0a142fd40d49347940000000000000000000000000000000000000000a08633aea8cbced55772f4dab1f2f75abb3f46998836893b4fdc4f5fcd16440dc3a056e81f171bcc55a6ff8345e692c0f86e5b48e01b996cadc001622fb5e363b421a056e81f171bcc55a6ff8345e692c0f86e5b48e01b996cadc001622fb5e363b421b901000000000000000000000000000000000000000000000000000000000000000000000000000000000000000000000000000000000000000000000000000000000000000000000000000000000000000000000000000000000000000000000000000000000000000000000000000000000000000000000000000000000000000000000000000000000000000000000000000000000000000000000000000000000000000000000000000000000000000000000000000000000000000000000000000000000000000000000000000000000000000000000000000000000000000000000000000000000000000000000000000000000000000000000000000000000080808407270e00808000a0000000000000000000000000000000000000000000000000000000000000000088000000000000000007a056e81f171bcc55a6ff8345e692c0f86e5b48e01b996cadc001622fb5e363b4218080a00000000000000000000000000000000000000000000000000000000000000000c0c0c0",
        "blocks": [
            {
                "blockHeader": {
                    "parentHash": "0xe40278111fba7d1b603f12eb95d25af793880e814e276c8ac0820d9aa0666bf0",
                    "uncleHash": "0x1dcc4de8dec75d7aab85b567b6ccd41ad312451b948a7413f0a142fd40d49347",
                    "coinbase": "0x2adc25665018aa1fe0e6bc666dac8fc2697ff9ba",
                    "stateRoot": "0x1196783dcb9e53e8303e3e326efc87a16c6ac009d3cadf0f3c23af83d4e1f9c7",
                    "transactionsTrie": "0x30f37fb1aaeeea476a3a421092dd685485fcf1fa8a0e1bef8d99fc85884a3d47",
                    "receiptTrie": "0x102f7ab7903d03f657c04c8d3ec2332619d03d53562328504ee976648425e65b",
                    "bloom": "0x00000000000000000000000000000000000000000000000000000000000000000000000000000000000000000000000000000000000000000000000000000000000000000000000000000000000000000000000000000000000000000000000000000000000000000000000000000000000000000000000000000000000000000000000000000000000000000000000000000000000000000000000000000000000000000000000000000000000000000000000000000000000000000000000000000000000000000000000000000000000000000000000000000000000000000000000000000000000000000000000000000000000000000000000000000000",
                    "difficulty": "0x00",
                    "number": "0x01",
                    "gasLimit": "0x07270e00",
                    "gasUsed": "0x029e59",
                    "timestamp": "0x03e8",
                    "extraData": "0x00",
                    "mixHash": "0x0000000000000000000000000000000000000000000000000000000000000000",
                    "nonce": "0x0000000000000000",
                    "baseFeePerGas": "0x07",
                    "withdrawalsRoot": "0x56e81f171bcc55a6ff8345e692c0f86e5b48e01b996cadc001622fb5e363b421",
                    "blobGasUsed": "0x00",
                    "excessBlobGas": "0x00",
                    "parentBeaconBlockRoot": "0x0000000000000000000000000000000000000000000000000000000000000000",
                    "hash": "0x60227b5a002bb42495d6e7f7926f6e0d27fc2be8094e2addf14eeeaf17edb448"
                },
                "transactions": [
                    {
                        "type": "0x00",
                        "chainId": "0x01",
                        "nonce": "0x00",
                        "gasPrice": "0x0a",
                        "gasLimit": "0x4c4b40",
                        "value": "0x00",
                        "data": "0x600060006000600060007390a7c0803dc6717daa65b4f77adb6132d456560545f1",
                        "v": "0x26",
                        "r": "0x41d2e1882a1efe7ff0ef9fb8429f26469ff0b5e416a6fa2f8748ec150a25c6a9",
                        "s": "0x29b4fb5807aa703861a589ea4dbd968e12f12fd4e064787a8238f1cd4aed0f92",
                        "sender": "0x1ad9bc24818784172ff393bb6f89f094d4d2ca29",
                        "to": ""
                    }
                ],
                "uncleHeaders": [],
                "withdrawals": [],
                "receipts": [
                    {
                        "transactionHash": "0xd27623162a2a1693f51a00339233c409ecbcc9c46da39ab62d0afc9dd4c590f4",
                        "type": "0x00",
                        "cumulativeGasUsed": "0x029e59",
                        "bloom": "0x00000000000000000000000000000000000000000000000000000000000000000000000000000000000000000000000000000000000000000000000000000000000000000000000000000000000000000000000000000000000000000000000000000000000000000000000000000000000000000000000000000000000000000000000000000000000000000000000000000000000000000000000000000000000000000000000000000000000000000000000000000000000000000000000000000000000000000000000000000000000000000000000000000000000000000000000000000000000000000000000000000000000000000000000000000000",
                        "logs": [],
                        "status": true,
                        "rlp": "0xf901090183029e59b9010000000000000000000000000000000000000000000000000000000000000000000000000000000000000000000000000000000000000000000000000000000000000000000000000000000000000000000000000000000000000000000000000000000000000000000000000000000000000000000000000000000000000000000000000000000000000000000000000000000000000000000000000000000000000000000000000000000000000000000000000000000000000000000000000000000000000000000000000000000000000000000000000000000000000000000000000000000000000000000000000000000000000000000000000000000000c0"
                    }
                ],
                "rlp": "0xf902b1f9023ba0e40278111fba7d1b603f12eb95d25af793880e814e276c8ac0820d9aa0666bf0a01dcc4de8dec75d7aab85b567b6ccd41ad312451b948a7413f0a142fd40d49347942adc25665018aa1fe0e6bc666dac8fc2697ff9baa01196783dcb9e53e8303e3e326efc87a16c6ac009d3cadf0f3c23af83d4e1f9c7a030f37fb1aaeeea476a3a421092dd685485fcf1fa8a0e1bef8d99fc85884a3d47a0102f7ab7903d03f657c04c8d3ec2332619d03d53562328504ee976648425e65bb901000000000000000000000000000000000000000000000000000000000000000000000000000000000000000000000000000000000000000000000000000000000000000000000000000000000000000000000000000000000000000000000000000000000000000000000000000000000000000000000000000000000000000000000000000000000000000000000000000000000000000000000000000000000000000000000000000000000000000000000000000000000000000000000000000000000000000000000000000000000000000000000000000000000000000000000000000000000000000000000000000000000000000000000000000000000080018407270e0083029e598203e800a0000000000000000000000000000000000000000000000000000000000000000088000000000000000007a056e81f171bcc55a6ff8345e692c0f86e5b48e01b996cadc001622fb5e363b4218080a00000000000000000000000000000000000000000000000000000000000000000f86ff86d800a834c4b408080a1600060006000600060007390a7c0803dc6717daa65b4f77adb6132d456560545f126a041d2e1882a1efe7ff0ef9fb8429f26469ff0b5e416a6fa2f8748ec150a25c6a9a029b4fb5807aa703861a589ea4dbd968e12f12fd4e064787a8238f1cd4aed0f92c0c0",
                "blocknumber": "1"
            }
        ],
        "sealEngine": "NoProof",
        "_info": {
            "hash": "0x16a0b1f50a849f7c1c45284b0f8ffb22efa8000cba9ba03071dcc3e9933fd2fe",
            "fixture-format": "blockchain_test",
            "comment": "`execution-specs` generated test",
            "filling-transition-tool": "2.19.0",
            "description": "Same test as selfdestruct_created_in_same_tx_with_revert except\nselfdestructable contract is pre-existing.",
            "url": "https://github.com/ethereum/execution-specs/blob/tests-bal@v5.6.1/tests/cancun/eip6780_selfdestruct/test_selfdestruct_revert.py#L510",
            "metadata": {
                "opcode_count": {}
            },
            "reference-spec": "https://github.com/ethereum/EIPs/blob/master/EIPS/eip-6780.md",
            "reference-spec-version": "1b6a0e94cc47e859b9866e570391cf37dc55059a"
        }
    },
    "tests/cancun/eip6780_selfdestruct/test_selfdestruct_revert.py::test_selfdestruct_not_created_in_same_tx_with_revert[fork_Cancun-blockchain_test_from_state_test-outer_selfdestruct_after_inner_call-not_same_tx-init_balance_2]": {
        "network": "Cancun",
        "genesisBlockHeader": {
            "parentHash": "0x0000000000000000000000000000000000000000000000000000000000000000",
            "uncleHash": "0x1dcc4de8dec75d7aab85b567b6ccd41ad312451b948a7413f0a142fd40d49347",
            "coinbase": "0x0000000000000000000000000000000000000000",
            "stateRoot": "0xa9f41d5b90b75effbf95a9565850105e412544ae202f9f1fe9c90bea902d3217",
            "transactionsTrie": "0x56e81f171bcc55a6ff8345e692c0f86e5b48e01b996cadc001622fb5e363b421",
            "receiptTrie": "0x56e81f171bcc55a6ff8345e692c0f86e5b48e01b996cadc001622fb5e363b421",
            "bloom": "0x00000000000000000000000000000000000000000000000000000000000000000000000000000000000000000000000000000000000000000000000000000000000000000000000000000000000000000000000000000000000000000000000000000000000000000000000000000000000000000000000000000000000000000000000000000000000000000000000000000000000000000000000000000000000000000000000000000000000000000000000000000000000000000000000000000000000000000000000000000000000000000000000000000000000000000000000000000000000000000000000000000000000000000000000000000000",
            "difficulty": "0x00",
            "number": "0x00",
            "gasLimit": "0x07270e00",
            "gasUsed": "0x00",
            "timestamp": "0x00",
            "extraData": "0x00",
            "mixHash": "0x0000000000000000000000000000000000000000000000000000000000000000",
            "nonce": "0x0000000000000000",
            "baseFeePerGas": "0x07",
            "withdrawalsRoot": "0x56e81f171bcc55a6ff8345e692c0f86e5b48e01b996cadc001622fb5e363b421",
            "blobGasUsed": "0x00",
            "excessBlobGas": "0x00",
            "parentBeaconBlockRoot": "0x0000000000000000000000000000000000000000000000000000000000000000",
            "hash": "0xdccd788c941d4981278e0e866317f1127c4ff44d3d79a5f4d8a8880180eec04a"
        },
        "pre": {
            "0x000f3df6d732807ef1319fb7b8bb8522d0beac02": {
                "nonce": "0x01",
                "balance": "0x00",
                "code": "0x3373fffffffffffffffffffffffffffffffffffffffe14604d57602036146024575f5ffd5b5f35801560495762001fff810690815414603c575f5ffd5b62001fff01545f5260205ff35b5f5ffd5b62001fff42064281555f359062001fff015500",
                "storage": {}
            },
            "0x1ad9bc24818784172ff393bb6f89f094d4d2ca29": {
                "nonce": "0x00",
                "balance": "0x3635c9adc5dea00000",
                "code": "0x",
                "storage": {}
            },
            "0xf2f0862623edbd88f669fd6d6131d56b6811c189": {
                "nonce": "0x01",
                "balance": "0x00",
                "code": "0x5f3573c0f6dc9e5836f54caadbf59cc69346c508e1992b90805f14602f57600114602557005b6001805401600155ff5b60015f54015f555f80f3",
                "storage": {}
            },
            "0x882dc98af58057b9aaec3bd45776312bd416126a": {
                "nonce": "0x01",
                "balance": "0x02",
                "code": "0x5f35600173f2f0862623edbd88f669fd6d6131d56b6811c1899190815f14603a5750600114602957005b5f6020816001819481835245f15f80fd5b5f602081600186829583805283808681868645f150835282808581803045f1508031825581835245f15f80f3",
                "storage": {}
            }
        },
        "postState": {
            "0x000f3df6d732807ef1319fb7b8bb8522d0beac02": {
                "nonce": "0x01",
                "balance": "0x00",
                "code": "0x3373fffffffffffffffffffffffffffffffffffffffe14604d57602036146024575f5ffd5b5f35801560495762001fff810690815414603c575f5ffd5b62001fff01545f5260205ff35b5f5ffd5b62001fff42064281555f359062001fff015500",
                "storage": {
                    "0x03e8": "0x03e8"
                }
            },
            "0x1ad9bc24818784172ff393bb6f89f094d4d2ca29": {
                "nonce": "0x01",
                "balance": "0x3635c9adc5de7c6a64",
                "code": "0x",
                "storage": {}
            },
            "0xf2f0862623edbd88f669fd6d6131d56b6811c189": {
                "nonce": "0x01",
                "balance": "0x00",
                "code": "0x5f3573c0f6dc9e5836f54caadbf59cc69346c508e1992b90805f14602f57600114602557005b6001805401600155ff5b60015f54015f555f80f3",
                "storage": {
                    "0x00": "0x01",
                    "0x01": "0x01"
                }
            },
            "0x882dc98af58057b9aaec3bd45776312bd416126a": {
                "nonce": "0x01",
                "balance": "0x00",
                "code": "0x5f35600173f2f0862623edbd88f669fd6d6131d56b6811c1899190815f14603a5750600114602957005b5f6020816001819481835245f15f80fd5b5f602081600186829583805283808681868645f150835282808581803045f1508031825581835245f15f80f3",
                "storage": {
                    "0x01": "0x01"
                }
            },
            "0x36bdd8886852759e2046e3bf4c290d5c29c81d82": {
                "nonce": "0x01",
                "balance": "0x00",
                "code": "0x",
                "storage": {}
            },
            "0xc0f6dc9e5836f54caadbf59cc69346c508e1992b": {
                "nonce": "0x00",
                "balance": "0x02",
                "code": "0x",
                "storage": {}
            },
            "0x2adc25665018aa1fe0e6bc666dac8fc2697ff9ba": {
                "nonce": "0x00",
                "balance": "0x0aace2",
                "code": "0x",
                "storage": {}
            }
        },
        "lastblockhash": "0x2bf9a4ae31f3ae8f1548673abd7eb074ede95412d7b96ae143a5e56666038197",
        "config": {
            "network": "Cancun",
            "chainid": "0x01",
            "blobSchedule": {
                "Cancun": {
                    "target": "0x03",
                    "max": "0x06",
                    "baseFeeUpdateFraction": "0x32f0ed"
                }
            }
        },
        "genesisRLP": "0xf9023cf90236a00000000000000000000000000000000000000000000000000000000000000000a01dcc4de8dec75d7aab85b567b6ccd41ad312451b948a7413f0a142fd40d49347940000000000000000000000000000000000000000a0a9f41d5b90b75effbf95a9565850105e412544ae202f9f1fe9c90bea902d3217a056e81f171bcc55a6ff8345e692c0f86e5b48e01b996cadc001622fb5e363b421a056e81f171bcc55a6ff8345e692c0f86e5b48e01b996cadc001622fb5e363b421b901000000000000000000000000000000000000000000000000000000000000000000000000000000000000000000000000000000000000000000000000000000000000000000000000000000000000000000000000000000000000000000000000000000000000000000000000000000000000000000000000000000000000000000000000000000000000000000000000000000000000000000000000000000000000000000000000000000000000000000000000000000000000000000000000000000000000000000000000000000000000000000000000000000000000000000000000000000000000000000000000000000000000000000000000000000000080808407270e00808000a0000000000000000000000000000000000000000000000000000000000000000088000000000000000007a056e81f171bcc55a6ff8345e692c0f86e5b48e01b996cadc001622fb5e363b4218080a00000000000000000000000000000000000000000000000000000000000000000c0c0c0",
        "blocks": [
            {
                "blockHeader": {
                    "parentHash": "0xdccd788c941d4981278e0e866317f1127c4ff44d3d79a5f4d8a8880180eec04a",
                    "uncleHash": "0x1dcc4de8dec75d7aab85b567b6ccd41ad312451b948a7413f0a142fd40d49347",
                    "coinbase": "0x2adc25665018aa1fe0e6bc666dac8fc2697ff9ba",
                    "stateRoot": "0x417b018a84aaa6bf87f3ef45c133912f3b3d8d6e5dee8abcc9cad657edff4a44",
                    "transactionsTrie": "0x3552e367009b38013420b6ccdaf3e03335f94785159e468bb45a5d6b15e4bae8",
                    "receiptTrie": "0x72145c82a5210aa99dcd2b26545c462e1559460e450016cfe810f0f9452c1b3f",
                    "bloom": "0x00000000000000000000000000000000000000000000000000000000000000000000000000000000000000000000000000000000000000000000000000000000000000000000000000000000000000000000000000000000000000000000000000000000000000000000000000000000000000000000000000000000000000000000000000000000000000000000000000000000000000000000000000000000000000000000000000000000000000000000000000000000000000000000000000000000000000000000000000000000000000000000000000000000000000000000000000000000000000000000000000000000000000000000000000000000",
                    "difficulty": "0x00",
                    "number": "0x01",
                    "gasLimit": "0x07270e00",
                    "gasUsed": "0x038ef6",
                    "timestamp": "0x03e8",
                    "extraData": "0x00",
                    "mixHash": "0x0000000000000000000000000000000000000000000000000000000000000000",
                    "nonce": "0x0000000000000000",
                    "baseFeePerGas": "0x07",
                    "withdrawalsRoot": "0x56e81f171bcc55a6ff8345e692c0f86e5b48e01b996cadc001622fb5e363b421",
                    "blobGasUsed": "0x00",
                    "excessBlobGas": "0x00",
                    "parentBeaconBlockRoot": "0x0000000000000000000000000000000000000000000000000000000000000000",
                    "hash": "0x2bf9a4ae31f3ae8f1548673abd7eb074ede95412d7b96ae143a5e56666038197"
                },
                "transactions": [
                    {
                        "type": "0x00",
                        "chainId": "0x01",
                        "nonce": "0x00",
                        "gasPrice": "0x0a",
                        "gasLimit": "0x4c4b40",
                        "value": "0x00",
                        "data": "0x6000600060006000600073882dc98af58057b9aaec3bd45776312bd416126a45f1",
                        "v": "0x25",
                        "r": "0x4435ffebe4ce5c7ab7b77fe7f9d82b0850e068a09b8647fdd5d32148f4a72957",
                        "s": "0x39b033b53d8e85ee9126fae99bcfcdd95d488a39ba597f57e21223eec8cecd9e",
                        "sender": "0x1ad9bc24818784172ff393bb6f89f094d4d2ca29",
                        "to": ""
                    }
                ],
                "uncleHeaders": [],
                "withdrawals": [],
                "receipts": [
                    {
                        "transactionHash": "0xdc81b7c7e234a7c5eb20c0676e26b9b84eb285a1cc507ff1420b4b378ba26bcd",
                        "type": "0x00",
                        "cumulativeGasUsed": "0x038ef6",
                        "bloom": "0x00000000000000000000000000000000000000000000000000000000000000000000000000000000000000000000000000000000000000000000000000000000000000000000000000000000000000000000000000000000000000000000000000000000000000000000000000000000000000000000000000000000000000000000000000000000000000000000000000000000000000000000000000000000000000000000000000000000000000000000000000000000000000000000000000000000000000000000000000000000000000000000000000000000000000000000000000000000000000000000000000000000000000000000000000000000",
                        "logs": [],
                        "status": true,
                        "rlp": "0xf901090183038ef6b9010000000000000000000000000000000000000000000000000000000000000000000000000000000000000000000000000000000000000000000000000000000000000000000000000000000000000000000000000000000000000000000000000000000000000000000000000000000000000000000000000000000000000000000000000000000000000000000000000000000000000000000000000000000000000000000000000000000000000000000000000000000000000000000000000000000000000000000000000000000000000000000000000000000000000000000000000000000000000000000000000000000000000000000000000000000000c0"
                    }
                ],
                "rlp": "0xf902b1f9023ba0dccd788c941d4981278e0e866317f1127c4ff44d3d79a5f4d8a8880180eec04aa01dcc4de8dec75d7aab85b567b6ccd41ad312451b948a7413f0a142fd40d49347942adc25665018aa1fe0e6bc666dac8fc2697ff9baa0417b018a84aaa6bf87f3ef45c133912f3b3d8d6e5dee8abcc9cad657edff4a44a03552e367009b38013420b6ccdaf3e03335f94785159e468bb45a5d6b15e4bae8a072145c82a5210aa99dcd2b26545c462e1559460e450016cfe810f0f9452c1b3fb901000000000000000000000000000000000000000000000000000000000000000000000000000000000000000000000000000000000000000000000000000000000000000000000000000000000000000000000000000000000000000000000000000000000000000000000000000000000000000000000000000000000000000000000000000000000000000000000000000000000000000000000000000000000000000000000000000000000000000000000000000000000000000000000000000000000000000000000000000000000000000000000000000000000000000000000000000000000000000000000000000000000000000000000000000000000080018407270e0083038ef68203e800a0000000000000000000000000000000000000000000000000000000000000000088000000000000000007a056e81f171bcc55a6ff8345e692c0f86e5b48e01b996cadc001622fb5e363b4218080a00000000000000000000000000000000000000000000000000000000000000000f86ff86d800a834c4b408080a16000600060006000600073882dc98af58057b9aaec3bd45776312bd416126a45f125a04435ffebe4ce5c7ab7b77fe7f9d82b0850e068a09b8647fdd5d32148f4a72957a039b033b53d8e85ee9126fae99bcfcdd95d488a39ba597f57e21223eec8cecd9ec0c0",
                "blocknumber": "1"
            }
        ],
        "sealEngine": "NoProof",
        "_info": {
            "hash": "0xc959e8e1220c3ec26668cef607a6dbc56bba84006f37733b852b91735a3223d0",
            "fixture-format": "blockchain_test",
            "comment": "`execution-specs` generated test",
            "filling-transition-tool": "2.19.0",
            "description": "Same test as selfdestruct_created_in_same_tx_with_revert except\nselfdestructable contract is pre-existing.",
            "url": "https://github.com/ethereum/execution-specs/blob/tests-bal@v5.6.1/tests/cancun/eip6780_selfdestruct/test_selfdestruct_revert.py#L510",
            "metadata": {
                "opcode_count": {}
            },
            "reference-spec": "https://github.com/ethereum/EIPs/blob/master/EIPS/eip-6780.md",
            "reference-spec-version": "1b6a0e94cc47e859b9866e570391cf37dc55059a"
        }
    },
    "tests/cancun/eip6780_selfdestruct/test_selfdestruct_revert.py::test_selfdestruct_not_created_in_same_tx_with_revert[fork_Cancun-blockchain_test_from_state_test-outer_selfdestruct_before_inner_call-not_same_tx-init_balance_2]": {
        "network": "Cancun",
        "genesisBlockHeader": {
            "parentHash": "0x0000000000000000000000000000000000000000000000000000000000000000",
            "uncleHash": "0x1dcc4de8dec75d7aab85b567b6ccd41ad312451b948a7413f0a142fd40d49347",
            "coinbase": "0x0000000000000000000000000000000000000000",
            "stateRoot": "0x3e29bf407ec8749259fefd175f0ee5eb12ec10f8b2c6b995ac68855030239d31",
            "transactionsTrie": "0x56e81f171bcc55a6ff8345e692c0f86e5b48e01b996cadc001622fb5e363b421",
            "receiptTrie": "0x56e81f171bcc55a6ff8345e692c0f86e5b48e01b996cadc001622fb5e363b421",
            "bloom": "0x00000000000000000000000000000000000000000000000000000000000000000000000000000000000000000000000000000000000000000000000000000000000000000000000000000000000000000000000000000000000000000000000000000000000000000000000000000000000000000000000000000000000000000000000000000000000000000000000000000000000000000000000000000000000000000000000000000000000000000000000000000000000000000000000000000000000000000000000000000000000000000000000000000000000000000000000000000000000000000000000000000000000000000000000000000000",
            "difficulty": "0x00",
            "number": "0x00",
            "gasLimit": "0x07270e00",
            "gasUsed": "0x00",
            "timestamp": "0x00",
            "extraData": "0x00",
            "mixHash": "0x0000000000000000000000000000000000000000000000000000000000000000",
            "nonce": "0x0000000000000000",
            "baseFeePerGas": "0x07",
            "withdrawalsRoot": "0x56e81f171bcc55a6ff8345e692c0f86e5b48e01b996cadc001622fb5e363b421",
            "blobGasUsed": "0x00",
            "excessBlobGas": "0x00",
            "parentBeaconBlockRoot": "0x0000000000000000000000000000000000000000000000000000000000000000",
            "hash": "0xe11e5a43c71326ebebdfff57f2205fac0d053c7620131645d4e2ee1f584aaf2e"
        },
        "pre": {
            "0x000f3df6d732807ef1319fb7b8bb8522d0beac02": {
                "nonce": "0x01",
                "balance": "0x00",
                "code": "0x3373fffffffffffffffffffffffffffffffffffffffe14604d57602036146024575f5ffd5b5f35801560495762001fff810690815414603c575f5ffd5b62001fff01545f5260205ff35b5f5ffd5b62001fff42064281555f359062001fff015500",
                "storage": {}
            },
            "0x1ad9bc24818784172ff393bb6f89f094d4d2ca29": {
                "nonce": "0x00",
                "balance": "0x3635c9adc5dea00000",
                "code": "0x",
                "storage": {}
            },
            "0xf2f0862623edbd88f669fd6d6131d56b6811c189": {
                "nonce": "0x01",
                "balance": "0x00",
                "code": "0x5f3573c0f6dc9e5836f54caadbf59cc69346c508e1992b90805f14602f57600114602557005b6001805401600155ff5b60015f54015f555f80f3",
                "storage": {}
            },
            "0x53cf250b5c7e313f7a96fbc1cdcefb4a6bf46a52": {
                "nonce": "0x01",
                "balance": "0x02",
                "code": "0x5f35600173f2f0862623edbd88f669fd6d6131d56b6811c1899190815f14603a5750600114602957005b5f6020816001819481835245f15f80fd5b905060015f525f8060208160018645f1505f80525f8060208160018645f1505f525f80602081803045f150316001555f80f3",
                "storage": {}
            }
        },
        "postState": {
            "0x000f3df6d732807ef1319fb7b8bb8522d0beac02": {
                "nonce": "0x01",
                "balance": "0x00",
                "code": "0x3373fffffffffffffffffffffffffffffffffffffffe14604d57602036146024575f5ffd5b5f35801560495762001fff810690815414603c575f5ffd5b62001fff01545f5260205ff35b5f5ffd5b62001fff42064281555f359062001fff015500",
                "storage": {
                    "0x03e8": "0x03e8"
                }
            },
            "0x1ad9bc24818784172ff393bb6f89f094d4d2ca29": {
                "nonce": "0x01",
                "balance": "0x3635c9adc5de84c5c4",
                "code": "0x",
                "storage": {}
            },
            "0xf2f0862623edbd88f669fd6d6131d56b6811c189": {
                "nonce": "0x01",
                "balance": "0x01",
                "code": "0x5f3573c0f6dc9e5836f54caadbf59cc69346c508e1992b90805f14602f57600114602557005b6001805401600155ff5b60015f54015f555f80f3",
                "storage": {
                    "0x01": "0x01",
                    "0x00": "0x01"
                }
            },
            "0x53cf250b5c7e313f7a96fbc1cdcefb4a6bf46a52": {
                "nonce": "0x01",
                "balance": "0x00",
                "code": "0x5f35600173f2f0862623edbd88f669fd6d6131d56b6811c1899190815f14603a5750600114602957005b5f6020816001819481835245f15f80fd5b905060015f525f8060208160018645f1505f80525f8060208160018645f1505f525f80602081803045f150316001555f80f3",
                "storage": {
                    "0x01": "0x01"
                }
            },
            "0x36bdd8886852759e2046e3bf4c290d5c29c81d82": {
                "nonce": "0x01",
                "balance": "0x00",
                "code": "0x",
                "storage": {}
            },
            "0xc0f6dc9e5836f54caadbf59cc69346c508e1992b": {
                "nonce": "0x00",
                "balance": "0x01",
                "code": "0x",
                "storage": {}
            },
            "0x2adc25665018aa1fe0e6bc666dac8fc2697ff9ba": {
                "nonce": "0x00",
                "balance": "0x082b12",
                "code": "0x",
                "storage": {}
            }
        },
        "lastblockhash": "0xc12b361f8bfc94c0949cc36e24c46083f5fd509e6c9c2ff233b483999b8ec068",
        "config": {
            "network": "Cancun",
            "chainid": "0x01",
            "blobSchedule": {
                "Cancun": {
                    "target": "0x03",
                    "max": "0x06",
                    "baseFeeUpdateFraction": "0x32f0ed"
                }
            }
        },
        "genesisRLP": "0xf9023cf90236a00000000000000000000000000000000000000000000000000000000000000000a01dcc4de8dec75d7aab85b567b6ccd41ad312451b948a7413f0a142fd40d49347940000000000000000000000000000000000000000a03e29bf407ec8749259fefd175f0ee5eb12ec10f8b2c6b995ac68855030239d31a056e81f171bcc55a6ff8345e692c0f86e5b48e01b996cadc001622fb5e363b421a056e81f171bcc55a6ff8345e692c0f86e5b48e01b996cadc001622fb5e363b421b901000000000000000000000000000000000000000000000000000000000000000000000000000000000000000000000000000000000000000000000000000000000000000000000000000000000000000000000000000000000000000000000000000000000000000000000000000000000000000000000000000000000000000000000000000000000000000000000000000000000000000000000000000000000000000000000000000000000000000000000000000000000000000000000000000000000000000000000000000000000000000000000000000000000000000000000000000000000000000000000000000000000000000000000000000000000080808407270e00808000a0000000000000000000000000000000000000000000000000000000000000000088000000000000000007a056e81f171bcc55a6ff8345e692c0f86e5b48e01b996cadc001622fb5e363b4218080a00000000000000000000000000000000000000000000000000000000000000000c0c0c0",
        "blocks": [
            {
                "blockHeader": {
                    "parentHash": "0xe11e5a43c71326ebebdfff57f2205fac0d053c7620131645d4e2ee1f584aaf2e",
                    "uncleHash": "0x1dcc4de8dec75d7aab85b567b6ccd41ad312451b948a7413f0a142fd40d49347",
                    "coinbase": "0x2adc25665018aa1fe0e6bc666dac8fc2697ff9ba",
                    "stateRoot": "0x85d52e0ea805b6c22d9d0291cac4c9592be8164f848677973591d6b68892c89e",
                    "transactionsTrie": "0xa0167efb3544cc14c5cd28e70456b45e8f8f054720aa31b6347598c5f62c8d7b",
                    "receiptTrie": "0xf8fbc295cbd4bc12ea4c6ef113c2fbaa50717e55eaeacd7a56f158af2d1a7373",
                    "bloom": "0x00000000000000000000000000000000000000000000000000000000000000000000000000000000000000000000000000000000000000000000000000000000000000000000000000000000000000000000000000000000000000000000000000000000000000000000000000000000000000000000000000000000000000000000000000000000000000000000000000000000000000000000000000000000000000000000000000000000000000000000000000000000000000000000000000000000000000000000000000000000000000000000000000000000000000000000000000000000000000000000000000000000000000000000000000000000",
                    "difficulty": "0x00",
                    "number": "0x01",
                    "gasLimit": "0x07270e00",
                    "gasUsed": "0x02b906",
                    "timestamp": "0x03e8",
                    "extraData": "0x00",
                    "mixHash": "0x0000000000000000000000000000000000000000000000000000000000000000",
                    "nonce": "0x0000000000000000",
                    "baseFeePerGas": "0x07",
                    "withdrawalsRoot": "0x56e81f171bcc55a6ff8345e692c0f86e5b48e01b996cadc001622fb5e363b421",
                    "blobGasUsed": "0x00",
                    "excessBlobGas": "0x00",
                    "parentBeaconBlockRoot": "0x0000000000000000000000000000000000000000000000000000000000000000",
                    "hash": "0xc12b361f8bfc94c0949cc36e24c46083f5fd509e6c9c2ff233b483999b8ec068"
                },
                "transactions": [
                    {
                        "type": "0x00",
                        "chainId": "0x01",
                        "nonce": "0x00",
                        "gasPrice": "0x0a",
                        "gasLimit": "0x4c4b40",
                        "value": "0x00",
                        "data": "0x600060006000600060007353cf250b5c7e313f7a96fbc1cdcefb4a6bf46a5245f1",
                        "v": "0x26",
                        "r": "0xa27bcda4cc349746dd50a16ead5705c1df914d2f9275d301ccd9dde0479b80f9",
                        "s": "0x4f6a99f85e37de1b525c3e2de0b69afe5bf47d799ba06864d731b8022938cca1",
                        "sender": "0x1ad9bc24818784172ff393bb6f89f094d4d2ca29",
                        "to": ""
                    }
                ],
                "uncleHeaders": [],
                "withdrawals": [],
                "receipts": [
                    {
                        "transactionHash": "0x62e937125dd4fcfd246e8a2a1d53fa38b69a7d8b6a7fbb99c206cecb83cdd6b4",
                        "type": "0x00",
                        "cumulativeGasUsed": "0x02b906",
                        "bloom": "0x00000000000000000000000000000000000000000000000000000000000000000000000000000000000000000000000000000000000000000000000000000000000000000000000000000000000000000000000000000000000000000000000000000000000000000000000000000000000000000000000000000000000000000000000000000000000000000000000000000000000000000000000000000000000000000000000000000000000000000000000000000000000000000000000000000000000000000000000000000000000000000000000000000000000000000000000000000000000000000000000000000000000000000000000000000000",
                        "logs": [],
                        "status": true,
                        "rlp": "0xf90109018302b906b9010000000000000000000000000000000000000000000000000000000000000000000000000000000000000000000000000000000000000000000000000000000000000000000000000000000000000000000000000000000000000000000000000000000000000000000000000000000000000000000000000000000000000000000000000000000000000000000000000000000000000000000000000000000000000000000000000000000000000000000000000000000000000000000000000000000000000000000000000000000000000000000000000000000000000000000000000000000000000000000000000000000000000000000000000000000000c0"
                    }
                ],
                "rlp": "0xf902b1f9023ba0e11e5a43c71326ebebdfff57f2205fac0d053c7620131645d4e2ee1f584aaf2ea01dcc4de8dec75d7aab85b567b6ccd41ad312451b948a7413f0a142fd40d49347942adc25665018aa1fe0e6bc666dac8fc2697ff9baa085d52e0ea805b6c22d9d0291cac4c9592be8164f848677973591d6b68892c89ea0a0167efb3544cc14c5cd28e70456b45e8f8f054720aa31b6347598c5f62c8d7ba0f8fbc295cbd4bc12ea4c6ef113c2fbaa50717e55eaeacd7a56f158af2d1a7373b901000000000000000000000000000000000000000000000000000000000000000000000000000000000000000000000000000000000000000000000000000000000000000000000000000000000000000000000000000000000000000000000000000000000000000000000000000000000000000000000000000000000000000000000000000000000000000000000000000000000000000000000000000000000000000000000000000000000000000000000000000000000000000000000000000000000000000000000000000000000000000000000000000000000000000000000000000000000000000000000000000000000000000000000000000000000080018407270e008302b9068203e800a0000000000000000000000000000000000000000000000000000000000000000088000000000000000007a056e81f171bcc55a6ff8345e692c0f86e5b48e01b996cadc001622fb5e363b4218080a00000000000000000000000000000000000000000000000000000000000000000f86ff86d800a834c4b408080a1600060006000600060007353cf250b5c7e313f7a96fbc1cdcefb4a6bf46a5245f126a0a27bcda4cc349746dd50a16ead5705c1df914d2f9275d301ccd9dde0479b80f9a04f6a99f85e37de1b525c3e2de0b69afe5bf47d799ba06864d731b8022938cca1c0c0",
                "blocknumber": "1"
            }
        ],
        "sealEngine": "NoProof",
        "_info": {
            "hash": "0x4bf83aa0916aff32426622b55e26ef26c1953b674f05eebc861fc4101c8154b8",
            "fixture-format": "blockchain_test",
            "comment": "`execution-specs` generated test",
            "filling-transition-tool": "2.19.0",
            "description": "Same test as selfdestruct_created_in_same_tx_with_revert except\nselfdestructable contract is pre-existing.",
            "url": "https://github.com/ethereum/execution-specs/blob/tests-bal@v5.6.1/tests/cancun/eip6780_selfdestruct/test_selfdestruct_revert.py#L510",
            "metadata": {
                "opcode_count": {}
            },
            "reference-spec": "https://github.com/ethereum/EIPs/blob/master/EIPS/eip-6780.md",
            "reference-spec-version": "1b6a0e94cc47e859b9866e570391cf37dc55059a"
        }
    }
}