{
    "tests/ported_static/stCallDelegateCodesHomestead/test_callcallcallcode_001_suicide_end.py::test_callcallcallcode_001_suicide_end[fork_Cancun-blockchain_test_from_state_test]": {
        "network": "Cancun",
        "genesisBlockHeader": {
            "parentHash": "0x0000000000000000000000000000000000000000000000000000000000000000",
            "uncleHash": "0x1dcc4de8dec75d7aab85b567b6ccd41ad312451b948a7413f0a142fd40d49347",
            "coinbase": "0x0000000000000000000000000000000000000000",
            "stateRoot": "0x38f12e29cbfc9db4ae3ca59f529674975463000d35a328851135db89fbe57ebd",
            "transactionsTrie": "0x56e81f171bcc55a6ff8345e692c0f86e5b48e01b996cadc001622fb5e363b421",
            "receiptTrie": "0x56e81f171bcc55a6ff8345e692c0f86e5b48e01b996cadc001622fb5e363b421",
            "bloom": "0x00000000000000000000000000000000000000000000000000000000000000000000000000000000000000000000000000000000000000000000000000000000000000000000000000000000000000000000000000000000000000000000000000000000000000000000000000000000000000000000000000000000000000000000000000000000000000000000000000000000000000000000000000000000000000000000000000000000000000000000000000000000000000000000000000000000000000000000000000000000000000000000000000000000000000000000000000000000000000000000000000000000000000000000000000000000",
            "difficulty": "0x00",
            "number": "0x00",
            "gasLimit": "0x01c9c380",
            "gasUsed": "0x00",
            "timestamp": "0x00",
            "extraData": "0x00",
            "mixHash": "0x0000000000000000000000000000000000000000000000000000000000000000",
            "nonce": "0x0000000000000000",
            "baseFeePerGas": "0x0b",
            "withdrawalsRoot": "0x56e81f171bcc55a6ff8345e692c0f86e5b48e01b996cadc001622fb5e363b421",
            "blobGasUsed": "0x00",
            "excessBlobGas": "0x00",
            "parentBeaconBlockRoot": "0x0000000000000000000000000000000000000000000000000000000000000000",
            "hash": "0x7482e9ce8e8fa650eab167c5420f8d3aa91d46665cac0a9eb9c1a0759a2353fd"
        },
        "pre": {
            "0x000f3df6d732807ef1319fb7b8bb8522d0beac02": {
                "nonce": "0x01",
                "balance": "0x00",
                "code": "0x3373fffffffffffffffffffffffffffffffffffffffe14604d57602036146024575f5ffd5b5f35801560495762001fff810690815414603c575f5ffd5b62001fff01545f5260205ff35b5f5ffd5b62001fff42064281555f359062001fff015500",
                "storage": {}
            },
            "0x4353e77718be108d4c149d88b34caceda42c5c66": {
                "nonce": "0x00",
                "balance": "0x0de0b6b3a7640000",
                "code": "0x604060006040600060007377b749ffff7ec61d31c79ed104f230a7959b2879620249f0f160005500",
                "storage": {}
            },
            "0x77b749ffff7ec61d31c79ed104f230a7959b2879": {
                "nonce": "0x00",
                "balance": "0x02540be400",
                "code": "0x6040600060406000600073ac521409e2fa9526bfe6b827805783d2e307c4ce620186a0f160015500",
                "storage": {}
            },
            "0xac521409e2fa9526bfe6b827805783d2e307c4ce": {
                "nonce": "0x00",
                "balance": "0x02540be400",
                "code": "0x60406000604060007373b954ebc05bb0ff4a0f6a13a054d50ad158409961c350f46002557377b749ffff7ec61d31c79ed104f230a7959b2879ff00",
                "storage": {}
            },
            "0x73b954ebc05bb0ff4a0f6a13a054d50ad1584099": {
                "nonce": "0x00",
                "balance": "0x02540be400",
                "code": "0x600160035500",
                "storage": {}
            },
            "0xebaf50debf10e08302fe4280c32df010463ca297": {
                "nonce": "0x00",
                "balance": "0x0de0b6b3a7640000",
                "code": "0x",
                "storage": {}
            }
        },
        "postState": {
            "0x000f3df6d732807ef1319fb7b8bb8522d0beac02": {
                "nonce": "0x01",
                "balance": "0x00",
                "code": "0x3373fffffffffffffffffffffffffffffffffffffffe14604d57602036146024575f5ffd5b5f35801560495762001fff810690815414603c575f5ffd5b62001fff01545f5260205ff35b5f5ffd5b62001fff42064281555f359062001fff015500",
                "storage": {
                    "0x03e8": "0x03e8"
                }
            },
            "0x4353e77718be108d4c149d88b34caceda42c5c66": {
                "nonce": "0x00",
                "balance": "0x0de0b6b3a7640000",
                "code": "0x604060006040600060007377b749ffff7ec61d31c79ed104f230a7959b2879620249f0f160005500",
                "storage": {
                    "0x00": "0x01"
                }
            },
            "0x77b749ffff7ec61d31c79ed104f230a7959b2879": {
                "nonce": "0x00",
                "balance": "0x04a817c800",
                "code": "0x6040600060406000600073ac521409e2fa9526bfe6b827805783d2e307c4ce620186a0f160015500",
                "storage": {
                    "0x01": "0x01"
                }
            },
            "0xac521409e2fa9526bfe6b827805783d2e307c4ce": {
                "nonce": "0x00",
                "balance": "0x00",
                "code": "0x60406000604060007373b954ebc05bb0ff4a0f6a13a054d50ad158409961c350f46002557377b749ffff7ec61d31c79ed104f230a7959b2879ff00",
                "storage": {
                    "0x03": "0x01",
                    "0x02": "0x01"
                }
            },
            "0x73b954ebc05bb0ff4a0f6a13a054d50ad1584099": {
                "nonce": "0x00",
                "balance": "0x02540be400",
                "code": "0x600160035500",
                "storage": {}
            },
            "0xebaf50debf10e08302fe4280c32df010463ca297": {
                "nonce": "0x01",
                "balance": "0x0de0b6b3a75156d0",
                "code": "0x",
                "storage": {}
            }
        },
        "lastblockhash": "0x532ff898d11deb399ac40689059ba5f6cf2c24873d430bcad9d2d9414f438536",
        "config": {
            "network": "Cancun",
            "chainid": "0x01",
            "blobSchedule": {
                "Cancun": {
                    "target": "0x03",
                    "max": "0x06",
                    "baseFeeUpdateFraction": "0x32f0ed"
                }
            }
        },
        "genesisRLP": "0xf9023cf90236a00000000000000000000000000000000000000000000000000000000000000000a01dcc4de8dec75d7aab85b567b6ccd41ad312451b948a7413f0a142fd40d49347940000000000000000000000000000000000000000a038f12e29cbfc9db4ae3ca59f529674975463000d35a328851135db89fbe57ebda056e81f171bcc55a6ff8345e692c0f86e5b48e01b996cadc001622fb5e363b421a056e81f171bcc55a6ff8345e692c0f86e5b48e01b996cadc001622fb5e363b421b901000000000000000000000000000000000000000000000000000000000000000000000000000000000000000000000000000000000000000000000000000000000000000000000000000000000000000000000000000000000000000000000000000000000000000000000000000000000000000000000000000000000000000000000000000000000000000000000000000000000000000000000000000000000000000000000000000000000000000000000000000000000000000000000000000000000000000000000000000000000000000000000000000000000000000000000000000000000000000000000000000000000000000000000000000000000080808401c9c380808000a000000000000000000000000000000000000000000000000000000000000000008800000000000000000ba056e81f171bcc55a6ff8345e692c0f86e5b48e01b996cadc001622fb5e363b4218080a00000000000000000000000000000000000000000000000000000000000000000c0c0c0",
        "blocks": [
            {
                "blockHeader": {
                    "parentHash": "0x7482e9ce8e8fa650eab167c5420f8d3aa91d46665cac0a9eb9c1a0759a2353fd",
                    "uncleHash": "0x1dcc4de8dec75d7aab85b567b6ccd41ad312451b948a7413f0a142fd40d49347",
                    "coinbase": "0x2adc25665018aa1fe0e6bc666dac8fc2697ff9ba",
                    "stateRoot": "0x790dc6c75862447b1a394db593c0c8e7b2f738a84c618c6f23107b6b5281746a",
                    "transactionsTrie": "0xaddf500a3e4d6dd16ab7e7f771b1532735e11b65bb197f3c675ac87d1b3ded7d",
                    "receiptTrie": "0xa41d44d1dd59bb893609ec6233c3e83c221d019851f6cf9bd7dc098c2471024e",
                    "bloom": "0x00000000000000000000000000000000000000000000000000000000000000000000000000000000000000000000000000000000000000000000000000000000000000000000000000000000000000000000000000000000000000000000000000000000000000000000000000000000000000000000000000000000000000000000000000000000000000000000000000000000000000000000000000000000000000000000000000000000000000000000000000000000000000000000000000000000000000000000000000000000000000000000000000000000000000000000000000000000000000000000000000000000000000000000000000000000",
                    "difficulty": "0x00",
                    "number": "0x01",
                    "gasLimit": "0x01c9c380",
                    "gasUsed": "0x01ddb8",
                    "timestamp": "0x03e8",
                    "extraData": "0x00",
                    "mixHash": "0x0000000000000000000000000000000000000000000000000000000000020000",
                    "nonce": "0x0000000000000000",
                    "baseFeePerGas": "0x0a",
                    "withdrawalsRoot": "0x56e81f171bcc55a6ff8345e692c0f86e5b48e01b996cadc001622fb5e363b421",
                    "blobGasUsed": "0x00",
                    "excessBlobGas": "0x00",
                    "parentBeaconBlockRoot": "0x0000000000000000000000000000000000000000000000000000000000000000",
                    "hash": "0x532ff898d11deb399ac40689059ba5f6cf2c24873d430bcad9d2d9414f438536"
                },
                "transactions": [
                    {
                        "type": "0x00",
                        "chainId": "0x01",
                        "nonce": "0x00",
                        "gasPrice": "0x0a",
                        "gasLimit": "0x2dc6c0",
                        "to": "0x4353e77718be108d4c149d88b34caceda42c5c66",
                        "value": "0x00",
                        "data": "0x",
                        "v": "0x25",
                        "r": "0xe7e147be1d7383e34cd33679abd73c155a45b57ff7e6b11d2ec4a5a7db5e24bf",
                        "s": "0x2cde67a621687521ce96eb865359bb4ca2baa5b3896c27cbd2a150819f715c59",
                        "sender": "0xebaf50debf10e08302fe4280c32df010463ca297"
                    }
                ],
                "uncleHeaders": [],
                "withdrawals": [],
                "receipts": [
                    {
                        "transactionHash": "0xe2fbaa67b8f481c87d6b415ffc9deb9eb35e12d2dbaccd54e28144161e771e73",
                        "type": "0x00",
                        "cumulativeGasUsed": "0x01ddb8",
                        "bloom": "0x00000000000000000000000000000000000000000000000000000000000000000000000000000000000000000000000000000000000000000000000000000000000000000000000000000000000000000000000000000000000000000000000000000000000000000000000000000000000000000000000000000000000000000000000000000000000000000000000000000000000000000000000000000000000000000000000000000000000000000000000000000000000000000000000000000000000000000000000000000000000000000000000000000000000000000000000000000000000000000000000000000000000000000000000000000000",
                        "logs": [],
                        "status": true,
                        "rlp": "0xf90109018301ddb8b9010000000000000000000000000000000000000000000000000000000000000000000000000000000000000000000000000000000000000000000000000000000000000000000000000000000000000000000000000000000000000000000000000000000000000000000000000000000000000000000000000000000000000000000000000000000000000000000000000000000000000000000000000000000000000000000000000000000000000000000000000000000000000000000000000000000000000000000000000000000000000000000000000000000000000000000000000000000000000000000000000000000000000000000000000000000000c0"
                    }
                ],
                "rlp": "0xf902a4f9023ba07482e9ce8e8fa650eab167c5420f8d3aa91d46665cac0a9eb9c1a0759a2353fda01dcc4de8dec75d7aab85b567b6ccd41ad312451b948a7413f0a142fd40d49347942adc25665018aa1fe0e6bc666dac8fc2697ff9baa0790dc6c75862447b1a394db593c0c8e7b2f738a84c618c6f23107b6b5281746aa0addf500a3e4d6dd16ab7e7f771b1532735e11b65bb197f3c675ac87d1b3ded7da0a41d44d1dd59bb893609ec6233c3e83c221d019851f6cf9bd7dc098c2471024eb901000000000000000000000000000000000000000000000000000000000000000000000000000000000000000000000000000000000000000000000000000000000000000000000000000000000000000000000000000000000000000000000000000000000000000000000000000000000000000000000000000000000000000000000000000000000000000000000000000000000000000000000000000000000000000000000000000000000000000000000000000000000000000000000000000000000000000000000000000000000000000000000000000000000000000000000000000000000000000000000000000000000000000000000000000000000080018401c9c3808301ddb88203e800a000000000000000000000000000000000000000000000000000000000000200008800000000000000000aa056e81f171bcc55a6ff8345e692c0f86e5b48e01b996cadc001622fb5e363b4218080a00000000000000000000000000000000000000000000000000000000000000000f862f860800a832dc6c0944353e77718be108d4c149d88b34caceda42c5c66808025a0e7e147be1d7383e34cd33679abd73c155a45b57ff7e6b11d2ec4a5a7db5e24bfa02cde67a621687521ce96eb865359bb4ca2baa5b3896c27cbd2a150819f715c59c0c0",
                "blocknumber": "1"
            }
        ],
        "sealEngine": "NoProof",
        "_info": {
            "hash": "0x5e7ebdc91e0aade3b2dcf53c8bf52de3a1cd0a228f7900d7a01909cc08e10bf4",
            "fixture-format": "blockchain_test",
            "comment": "`execution-specs` generated test",
            "filling-transition-tool": "2.19.0",
            "description": "Test_callcallcallcode_001_suicide_end.",
            "url": "https://github.com/ethereum/execution-specs/blob/tests-bal@v5.7.0/tests/ported_static/stCallDelegateCodesHomestead/test_callcallcallcode_001_suicide_end.py#L25",
            "metadata": {
                "opcode_count": {}
            }
        }
    }
}