{
    "tests/ported_static/stQuadraticComplexityTest/test_quadratic_complexity_solidity_call_data_copy.py::test_quadratic_complexity_solidity_call_data_copy[fork_Cancun-blockchain_test_from_state_test--g0]": {
        "network": "Cancun",
        "genesisBlockHeader": {
            "parentHash": "0x0000000000000000000000000000000000000000000000000000000000000000",
            "uncleHash": "0x1dcc4de8dec75d7aab85b567b6ccd41ad312451b948a7413f0a142fd40d49347",
            "coinbase": "0x0000000000000000000000000000000000000000",
            "stateRoot": "0x8c6c6b1aa16b755b533c71da5237af051d76fb6902fb28dc2674a28d89707ead",
            "transactionsTrie": "0x56e81f171bcc55a6ff8345e692c0f86e5b48e01b996cadc001622fb5e363b421",
            "receiptTrie": "0x56e81f171bcc55a6ff8345e692c0f86e5b48e01b996cadc001622fb5e363b421",
            "bloom": "0x00000000000000000000000000000000000000000000000000000000000000000000000000000000000000000000000000000000000000000000000000000000000000000000000000000000000000000000000000000000000000000000000000000000000000000000000000000000000000000000000000000000000000000000000000000000000000000000000000000000000000000000000000000000000000000000000000000000000000000000000000000000000000000000000000000000000000000000000000000000000000000000000000000000000000000000000000000000000000000000000000000000000000000000000000000000",
            "difficulty": "0x00",
            "number": "0x00",
            "gasLimit": "0x14dc9380",
            "gasUsed": "0x00",
            "timestamp": "0x00",
            "extraData": "0x00",
            "mixHash": "0x0000000000000000000000000000000000000000000000000000000000000000",
            "nonce": "0x0000000000000000",
            "baseFeePerGas": "0x0b",
            "withdrawalsRoot": "0x56e81f171bcc55a6ff8345e692c0f86e5b48e01b996cadc001622fb5e363b421",
            "blobGasUsed": "0x00",
            "excessBlobGas": "0x00",
            "parentBeaconBlockRoot": "0x0000000000000000000000000000000000000000000000000000000000000000",
            "hash": "0xb5eb09fef9ee5261273c9659331e9eccdfe2301eeade4604b794d11957c2031e"
        },
        "pre": {
            "0x000f3df6d732807ef1319fb7b8bb8522d0beac02": {
                "nonce": "0x01",
                "balance": "0x00",
                "code": "0x3373fffffffffffffffffffffffffffffffffffffffe14604d57602036146024575f5ffd5b5f35801560495762001fff810690815414603c575f5ffd5b62001fff01545f5260205ff35b5f5ffd5b62001fff42064281555f359062001fff015500",
                "storage": {}
            },
            "0xf09251d186b65b6975297a90483ee42d3713c274": {
                "nonce": "0x00",
                "balance": "0x11c37937e08000",
                "code": "0x",
                "storage": {}
            },
            "0x613891b5dccb5782adeec96b9a0b55f8bfd28c5c": {
                "nonce": "0x00",
                "balance": "0x4c4b40",
                "code": "0x61c350600060003700",
                "storage": {}
            },
            "0x17f0bb30f38e91e8ec418533874cb9f7ea2682ac": {
                "nonce": "0x00",
                "balance": "0x11c37937e08000",
                "code": "0x60003560e060020a9004806361a4770614601557005b601e6004356024565b60006000f35b60008160008190555073b94f5374fce5edbc8e2a8697c15331677e6ebf0b90505b600082131560bf5780600160a060020a03166000600060007f6a7573740000000000000000000000000000000000000000000000000000000081526004017f63616c6c000000000000000000000000000000000000000000000000000000008152602001600060008560155a03f150506001820391506045565b505056",
                "storage": {}
            }
        },
        "postState": {
            "0x000f3df6d732807ef1319fb7b8bb8522d0beac02": {
                "nonce": "0x01",
                "balance": "0x00",
                "code": "0x3373fffffffffffffffffffffffffffffffffffffffe14604d57602036146024575f5ffd5b5f35801560495762001fff810690815414603c575f5ffd5b62001fff01545f5260205ff35b5f5ffd5b62001fff42064281555f359062001fff015500",
                "storage": {
                    "0x03e8": "0x03e8"
                }
            },
            "0xf09251d186b65b6975297a90483ee42d3713c274": {
                "nonce": "0x01",
                "balance": "0x11c37937c99ca0",
                "code": "0x",
                "storage": {}
            },
            "0x613891b5dccb5782adeec96b9a0b55f8bfd28c5c": {
                "nonce": "0x00",
                "balance": "0x4c4b40",
                "code": "0x61c350600060003700",
                "storage": {}
            },
            "0x17f0bb30f38e91e8ec418533874cb9f7ea2682ac": {
                "nonce": "0x00",
                "balance": "0x11c37937e08000",
                "code": "0x60003560e060020a9004806361a4770614601557005b601e6004356024565b60006000f35b60008160008190555073b94f5374fce5edbc8e2a8697c15331677e6ebf0b90505b600082131560bf5780600160a060020a03166000600060007f6a7573740000000000000000000000000000000000000000000000000000000081526004017f63616c6c000000000000000000000000000000000000000000000000000000008152602001600060008560155a03f150506001820391506045565b505056",
                "storage": {}
            }
        },
        "lastblockhash": "0xedc1374f549764826f077e62971de5db0f34b8fe3f5831350a285b9ee503d1fc",
        "config": {
            "network": "Cancun",
            "chainid": "0x01",
            "blobSchedule": {
                "Cancun": {
                    "target": "0x03",
                    "max": "0x06",
                    "baseFeeUpdateFraction": "0x32f0ed"
                }
            }
        },
        "genesisRLP": "0xf9023cf90236a00000000000000000000000000000000000000000000000000000000000000000a01dcc4de8dec75d7aab85b567b6ccd41ad312451b948a7413f0a142fd40d49347940000000000000000000000000000000000000000a08c6c6b1aa16b755b533c71da5237af051d76fb6902fb28dc2674a28d89707eada056e81f171bcc55a6ff8345e692c0f86e5b48e01b996cadc001622fb5e363b421a056e81f171bcc55a6ff8345e692c0f86e5b48e01b996cadc001622fb5e363b421b901000000000000000000000000000000000000000000000000000000000000000000000000000000000000000000000000000000000000000000000000000000000000000000000000000000000000000000000000000000000000000000000000000000000000000000000000000000000000000000000000000000000000000000000000000000000000000000000000000000000000000000000000000000000000000000000000000000000000000000000000000000000000000000000000000000000000000000000000000000000000000000000000000000000000000000000000000000000000000000000000000000000000000000000000000000000080808414dc9380808000a000000000000000000000000000000000000000000000000000000000000000008800000000000000000ba056e81f171bcc55a6ff8345e692c0f86e5b48e01b996cadc001622fb5e363b4218080a00000000000000000000000000000000000000000000000000000000000000000c0c0c0",
        "blocks": [
            {
                "blockHeader": {
                    "parentHash": "0xb5eb09fef9ee5261273c9659331e9eccdfe2301eeade4604b794d11957c2031e",
                    "uncleHash": "0x1dcc4de8dec75d7aab85b567b6ccd41ad312451b948a7413f0a142fd40d49347",
                    "coinbase": "0x2adc25665018aa1fe0e6bc666dac8fc2697ff9ba",
                    "stateRoot": "0xf1af366568161a164b4fb1d55a99eefd5a4767db2722658a0364b436f66f0563",
                    "transactionsTrie": "0xc7f719e1ad2a12955449cc7ddad2bfa927f172f8ce077c06f5d9260923ef777b",
                    "receiptTrie": "0xa0e10907f175886de9bd8cd4ac2c21d1db4109a3a9fecf60f54015ee102803fd",
                    "bloom": "0x00000000000000000000000000000000000000000000000000000000000000000000000000000000000000000000000000000000000000000000000000000000000000000000000000000000000000000000000000000000000000000000000000000000000000000000000000000000000000000000000000000000000000000000000000000000000000000000000000000000000000000000000000000000000000000000000000000000000000000000000000000000000000000000000000000000000000000000000000000000000000000000000000000000000000000000000000000000000000000000000000000000000000000000000000000000",
                    "difficulty": "0x00",
                    "number": "0x01",
                    "gasLimit": "0x14dc9380",
                    "gasUsed": "0x0249f0",
                    "timestamp": "0x03e8",
                    "extraData": "0x00",
                    "mixHash": "0x0000000000000000000000000000000000000000000000000000000000020000",
                    "nonce": "0x0000000000000000",
                    "baseFeePerGas": "0x0a",
                    "withdrawalsRoot": "0x56e81f171bcc55a6ff8345e692c0f86e5b48e01b996cadc001622fb5e363b421",
                    "blobGasUsed": "0x00",
                    "excessBlobGas": "0x00",
                    "parentBeaconBlockRoot": "0x0000000000000000000000000000000000000000000000000000000000000000",
                    "hash": "0xedc1374f549764826f077e62971de5db0f34b8fe3f5831350a285b9ee503d1fc"
                },
                "transactions": [
                    {
                        "type": "0x00",
                        "chainId": "0x01",
                        "nonce": "0x00",
                        "gasPrice": "0x0a",
                        "gasLimit": "0x0249f0",
                        "to": "0x17f0bb30f38e91e8ec418533874cb9f7ea2682ac",
                        "value": "0x01",
                        "data": "0x61a47706000000000000000000000000000000000000000000000000000000000000c350",
                        "v": "0x25",
                        "r": "0x4f8fc23cb80127b269932eb194d5e813616a39b9f82ef884a3feb2465784d0d3",
                        "s": "0x334f9dce2ede6556f1b78c73c75221359355865e6c61e9a7dcb1620871b12cc8",
                        "sender": "0xf09251d186b65b6975297a90483ee42d3713c274"
                    }
                ],
                "uncleHeaders": [],
                "withdrawals": [],
                "receipts": [
                    {
                        "transactionHash": "0x1142cd6a2a0a3f6055150ea0111eddc7c1114067af2832e1149620bf17695df8",
                        "type": "0x00",
                        "cumulativeGasUsed": "0x0249f0",
                        "bloom": "0x00000000000000000000000000000000000000000000000000000000000000000000000000000000000000000000000000000000000000000000000000000000000000000000000000000000000000000000000000000000000000000000000000000000000000000000000000000000000000000000000000000000000000000000000000000000000000000000000000000000000000000000000000000000000000000000000000000000000000000000000000000000000000000000000000000000000000000000000000000000000000000000000000000000000000000000000000000000000000000000000000000000000000000000000000000000",
                        "logs": [],
                        "status": false,
                        "rlp": "0xf9010980830249f0b9010000000000000000000000000000000000000000000000000000000000000000000000000000000000000000000000000000000000000000000000000000000000000000000000000000000000000000000000000000000000000000000000000000000000000000000000000000000000000000000000000000000000000000000000000000000000000000000000000000000000000000000000000000000000000000000000000000000000000000000000000000000000000000000000000000000000000000000000000000000000000000000000000000000000000000000000000000000000000000000000000000000000000000000000000000000000c0"
                    }
                ],
                "rlp": "0xf902c8f9023ba0b5eb09fef9ee5261273c9659331e9eccdfe2301eeade4604b794d11957c2031ea01dcc4de8dec75d7aab85b567b6ccd41ad312451b948a7413f0a142fd40d49347942adc25665018aa1fe0e6bc666dac8fc2697ff9baa0f1af366568161a164b4fb1d55a99eefd5a4767db2722658a0364b436f66f0563a0c7f719e1ad2a12955449cc7ddad2bfa927f172f8ce077c06f5d9260923ef777ba0a0e10907f175886de9bd8cd4ac2c21d1db4109a3a9fecf60f54015ee102803fdb901000000000000000000000000000000000000000000000000000000000000000000000000000000000000000000000000000000000000000000000000000000000000000000000000000000000000000000000000000000000000000000000000000000000000000000000000000000000000000000000000000000000000000000000000000000000000000000000000000000000000000000000000000000000000000000000000000000000000000000000000000000000000000000000000000000000000000000000000000000000000000000000000000000000000000000000000000000000000000000000000000000000000000000000000000000000080018414dc9380830249f08203e800a000000000000000000000000000000000000000000000000000000000000200008800000000000000000aa056e81f171bcc55a6ff8345e692c0f86e5b48e01b996cadc001622fb5e363b4218080a00000000000000000000000000000000000000000000000000000000000000000f886f884800a830249f09417f0bb30f38e91e8ec418533874cb9f7ea2682ac01a461a47706000000000000000000000000000000000000000000000000000000000000c35025a04f8fc23cb80127b269932eb194d5e813616a39b9f82ef884a3feb2465784d0d3a0334f9dce2ede6556f1b78c73c75221359355865e6c61e9a7dcb1620871b12cc8c0c0",
                "blocknumber": "1"
            }
        ],
        "sealEngine": "NoProof",
        "_info": {
            "hash": "0x9f33e6a3f6d404f58ea770ed6a53a97f81f145ad2369af390f0c5420c3058b73",
            "fixture-format": "blockchain_test",
            "comment": "`execution-specs` generated test",
            "filling-transition-tool": "2.19.0",
            "description": "Test_quadratic_complexity_solidity_call_data_copy.",
            "url": "https://github.com/ethereum/execution-specs/blob/tests-snobal-devnet-5@v8037.0.0/tests/ported_static/stQuadraticComplexityTest/test_quadratic_complexity_solidity_call_data_copy.py#L26",
            "metadata": {
                "opcode_count": {}
            }
        }
    },
    "tests/ported_static/stQuadraticComplexityTest/test_quadratic_complexity_solidity_call_data_copy.py::test_quadratic_complexity_solidity_call_data_copy[fork_Cancun-blockchain_test_from_state_test--g1]": {
        "network": "Cancun",
        "genesisBlockHeader": {
            "parentHash": "0x0000000000000000000000000000000000000000000000000000000000000000",
            "uncleHash": "0x1dcc4de8dec75d7aab85b567b6ccd41ad312451b948a7413f0a142fd40d49347",
            "coinbase": "0x0000000000000000000000000000000000000000",
            "stateRoot": "0x8c6c6b1aa16b755b533c71da5237af051d76fb6902fb28dc2674a28d89707ead",
            "transactionsTrie": "0x56e81f171bcc55a6ff8345e692c0f86e5b48e01b996cadc001622fb5e363b421",
            "receiptTrie": "0x56e81f171bcc55a6ff8345e692c0f86e5b48e01b996cadc001622fb5e363b421",
            "bloom": "0x00000000000000000000000000000000000000000000000000000000000000000000000000000000000000000000000000000000000000000000000000000000000000000000000000000000000000000000000000000000000000000000000000000000000000000000000000000000000000000000000000000000000000000000000000000000000000000000000000000000000000000000000000000000000000000000000000000000000000000000000000000000000000000000000000000000000000000000000000000000000000000000000000000000000000000000000000000000000000000000000000000000000000000000000000000000",
            "difficulty": "0x00",
            "number": "0x00",
            "gasLimit": "0x14dc9380",
            "gasUsed": "0x00",
            "timestamp": "0x00",
            "extraData": "0x00",
            "mixHash": "0x0000000000000000000000000000000000000000000000000000000000000000",
            "nonce": "0x0000000000000000",
            "baseFeePerGas": "0x0b",
            "withdrawalsRoot": "0x56e81f171bcc55a6ff8345e692c0f86e5b48e01b996cadc001622fb5e363b421",
            "blobGasUsed": "0x00",
            "excessBlobGas": "0x00",
            "parentBeaconBlockRoot": "0x0000000000000000000000000000000000000000000000000000000000000000",
            "hash": "0xb5eb09fef9ee5261273c9659331e9eccdfe2301eeade4604b794d11957c2031e"
        },
        "pre": {
            "0x000f3df6d732807ef1319fb7b8bb8522d0beac02": {
                "nonce": "0x01",
                "balance": "0x00",
                "code": "0x3373fffffffffffffffffffffffffffffffffffffffe14604d57602036146024575f5ffd5b5f35801560495762001fff810690815414603c575f5ffd5b62001fff01545f5260205ff35b5f5ffd5b62001fff42064281555f359062001fff015500",
                "storage": {}
            },
            "0xf09251d186b65b6975297a90483ee42d3713c274": {
                "nonce": "0x00",
                "balance": "0x11c37937e08000",
                "code": "0x",
                "storage": {}
            },
            "0x613891b5dccb5782adeec96b9a0b55f8bfd28c5c": {
                "nonce": "0x00",
                "balance": "0x4c4b40",
                "code": "0x61c350600060003700",
                "storage": {}
            },
            "0x17f0bb30f38e91e8ec418533874cb9f7ea2682ac": {
                "nonce": "0x00",
                "balance": "0x11c37937e08000",
                "code": "0x60003560e060020a9004806361a4770614601557005b601e6004356024565b60006000f35b60008160008190555073b94f5374fce5edbc8e2a8697c15331677e6ebf0b90505b600082131560bf5780600160a060020a03166000600060007f6a7573740000000000000000000000000000000000000000000000000000000081526004017f63616c6c000000000000000000000000000000000000000000000000000000008152602001600060008560155a03f150506001820391506045565b505056",
                "storage": {}
            }
        },
        "postState": {
            "0x000f3df6d732807ef1319fb7b8bb8522d0beac02": {
                "nonce": "0x01",
                "balance": "0x00",
                "code": "0x3373fffffffffffffffffffffffffffffffffffffffe14604d57602036146024575f5ffd5b5f35801560495762001fff810690815414603c575f5ffd5b62001fff01545f5260205ff35b5f5ffd5b62001fff42064281555f359062001fff015500",
                "storage": {
                    "0x03e8": "0x03e8"
                }
            },
            "0xf09251d186b65b6975297a90483ee42d3713c274": {
                "nonce": "0x01",
                "balance": "0x11c3792f3c9555",
                "code": "0x",
                "storage": {}
            },
            "0x613891b5dccb5782adeec96b9a0b55f8bfd28c5c": {
                "nonce": "0x00",
                "balance": "0x4c4b40",
                "code": "0x61c350600060003700",
                "storage": {}
            },
            "0x17f0bb30f38e91e8ec418533874cb9f7ea2682ac": {
                "nonce": "0x00",
                "balance": "0x11c37937e08001",
                "code": "0x60003560e060020a9004806361a4770614601557005b601e6004356024565b60006000f35b60008160008190555073b94f5374fce5edbc8e2a8697c15331677e6ebf0b90505b600082131560bf5780600160a060020a03166000600060007f6a7573740000000000000000000000000000000000000000000000000000000081526004017f63616c6c000000000000000000000000000000000000000000000000000000008152602001600060008560155a03f150506001820391506045565b505056",
                "storage": {
                    "0x00": "0xc350"
                }
            }
        },
        "lastblockhash": "0xc28c6a5b4744e7597f6102945a1e3c74e44faaf0205546b5f76ef19926657e56",
        "config": {
            "network": "Cancun",
            "chainid": "0x01",
            "blobSchedule": {
                "Cancun": {
                    "target": "0x03",
                    "max": "0x06",
                    "baseFeeUpdateFraction": "0x32f0ed"
                }
            }
        },
        "genesisRLP": "0xf9023cf90236a00000000000000000000000000000000000000000000000000000000000000000a01dcc4de8dec75d7aab85b567b6ccd41ad312451b948a7413f0a142fd40d49347940000000000000000000000000000000000000000a08c6c6b1aa16b755b533c71da5237af051d76fb6902fb28dc2674a28d89707eada056e81f171bcc55a6ff8345e692c0f86e5b48e01b996cadc001622fb5e363b421a056e81f171bcc55a6ff8345e692c0f86e5b48e01b996cadc001622fb5e363b421b901000000000000000000000000000000000000000000000000000000000000000000000000000000000000000000000000000000000000000000000000000000000000000000000000000000000000000000000000000000000000000000000000000000000000000000000000000000000000000000000000000000000000000000000000000000000000000000000000000000000000000000000000000000000000000000000000000000000000000000000000000000000000000000000000000000000000000000000000000000000000000000000000000000000000000000000000000000000000000000000000000000000000000000000000000000000080808414dc9380808000a000000000000000000000000000000000000000000000000000000000000000008800000000000000000ba056e81f171bcc55a6ff8345e692c0f86e5b48e01b996cadc001622fb5e363b4218080a00000000000000000000000000000000000000000000000000000000000000000c0c0c0",
        "blocks": [
            {
                "blockHeader": {
                    "parentHash": "0xb5eb09fef9ee5261273c9659331e9eccdfe2301eeade4604b794d11957c2031e",
                    "uncleHash": "0x1dcc4de8dec75d7aab85b567b6ccd41ad312451b948a7413f0a142fd40d49347",
                    "coinbase": "0x2adc25665018aa1fe0e6bc666dac8fc2697ff9ba",
                    "stateRoot": "0xbd6e20145337e17721f1813d6fd0534838d2e2f637edffa0eb368194906ca3b3",
                    "transactionsTrie": "0x0c4f2b8bc7c6f726179082d51c3fa8df6b294581b8e6e630e1cab2954dd61042",
                    "receiptTrie": "0x6db3c9d55d211054d9c7757140d66b759345d6c08d487fcbfb44c7ccb0eb42e5",
                    "bloom": "0x00000000000000000000000000000000000000000000000000000000000000000000000000000000000000000000000000000000000000000000000000000000000000000000000000000000000000000000000000000000000000000000000000000000000000000000000000000000000000000000000000000000000000000000000000000000000000000000000000000000000000000000000000000000000000000000000000000000000000000000000000000000000000000000000000000000000000000000000000000000000000000000000000000000000000000000000000000000000000000000000000000000000000000000000000000000",
                    "difficulty": "0x00",
                    "number": "0x01",
                    "gasLimit": "0x14dc9380",
                    "gasUsed": "0xdd3111",
                    "timestamp": "0x03e8",
                    "extraData": "0x00",
                    "mixHash": "0x0000000000000000000000000000000000000000000000000000000000020000",
                    "nonce": "0x0000000000000000",
                    "baseFeePerGas": "0x0a",
                    "withdrawalsRoot": "0x56e81f171bcc55a6ff8345e692c0f86e5b48e01b996cadc001622fb5e363b421",
                    "blobGasUsed": "0x00",
                    "excessBlobGas": "0x00",
                    "parentBeaconBlockRoot": "0x0000000000000000000000000000000000000000000000000000000000000000",
                    "hash": "0xc28c6a5b4744e7597f6102945a1e3c74e44faaf0205546b5f76ef19926657e56"
                },
                "transactions": [
                    {
                        "type": "0x00",
                        "chainId": "0x01",
                        "nonce": "0x00",
                        "gasPrice": "0x0a",
                        "gasLimit": "0x0ee6b280",
                        "to": "0x17f0bb30f38e91e8ec418533874cb9f7ea2682ac",
                        "value": "0x01",
                        "data": "0x61a47706000000000000000000000000000000000000000000000000000000000000c350",
                        "v": "0x25",
                        "r": "0x65f553337d1f0e1a26056e6fc2a7065cc3e116875a32e19ed4cf7314b70f7536",
                        "s": "0x7e5b8d16d2e58e337cec4fa65948b0243e9db93df8c2760b69d84f027c18ffe0",
                        "sender": "0xf09251d186b65b6975297a90483ee42d3713c274"
                    }
                ],
                "uncleHeaders": [],
                "withdrawals": [],
                "receipts": [
                    {
                        "transactionHash": "0x9183a5840e2c211caaa052cd45623bdbeb0c6b1dce452ff40de1b472fb5a684a",
                        "type": "0x00",
                        "cumulativeGasUsed": "0xdd3111",
                        "bloom": "0x00000000000000000000000000000000000000000000000000000000000000000000000000000000000000000000000000000000000000000000000000000000000000000000000000000000000000000000000000000000000000000000000000000000000000000000000000000000000000000000000000000000000000000000000000000000000000000000000000000000000000000000000000000000000000000000000000000000000000000000000000000000000000000000000000000000000000000000000000000000000000000000000000000000000000000000000000000000000000000000000000000000000000000000000000000000",
                        "logs": [],
                        "status": true,
                        "rlp": "0xf901090183dd3111b9010000000000000000000000000000000000000000000000000000000000000000000000000000000000000000000000000000000000000000000000000000000000000000000000000000000000000000000000000000000000000000000000000000000000000000000000000000000000000000000000000000000000000000000000000000000000000000000000000000000000000000000000000000000000000000000000000000000000000000000000000000000000000000000000000000000000000000000000000000000000000000000000000000000000000000000000000000000000000000000000000000000000000000000000000000000000c0"
                    }
                ],
                "rlp": "0xf902c9f9023ba0b5eb09fef9ee5261273c9659331e9eccdfe2301eeade4604b794d11957c2031ea01dcc4de8dec75d7aab85b567b6ccd41ad312451b948a7413f0a142fd40d49347942adc25665018aa1fe0e6bc666dac8fc2697ff9baa0bd6e20145337e17721f1813d6fd0534838d2e2f637edffa0eb368194906ca3b3a00c4f2b8bc7c6f726179082d51c3fa8df6b294581b8e6e630e1cab2954dd61042a06db3c9d55d211054d9c7757140d66b759345d6c08d487fcbfb44c7ccb0eb42e5b901000000000000000000000000000000000000000000000000000000000000000000000000000000000000000000000000000000000000000000000000000000000000000000000000000000000000000000000000000000000000000000000000000000000000000000000000000000000000000000000000000000000000000000000000000000000000000000000000000000000000000000000000000000000000000000000000000000000000000000000000000000000000000000000000000000000000000000000000000000000000000000000000000000000000000000000000000000000000000000000000000000000000000000000000000000000080018414dc938083dd31118203e800a000000000000000000000000000000000000000000000000000000000000200008800000000000000000aa056e81f171bcc55a6ff8345e692c0f86e5b48e01b996cadc001622fb5e363b4218080a00000000000000000000000000000000000000000000000000000000000000000f887f885800a840ee6b2809417f0bb30f38e91e8ec418533874cb9f7ea2682ac01a461a47706000000000000000000000000000000000000000000000000000000000000c35025a065f553337d1f0e1a26056e6fc2a7065cc3e116875a32e19ed4cf7314b70f7536a07e5b8d16d2e58e337cec4fa65948b0243e9db93df8c2760b69d84f027c18ffe0c0c0",
                "blocknumber": "1"
            }
        ],
        "sealEngine": "NoProof",
        "_info": {
            "hash": "0xd2547d4aaa002dd3b6f2ec72a50e772a8a9b3a5b0eda708a910bf00fae3b82c7",
            "fixture-format": "blockchain_test",
            "comment": "`execution-specs` generated test",
            "filling-transition-tool": "2.19.0",
            "description": "Test_quadratic_complexity_solidity_call_data_copy.",
            "url": "https://github.com/ethereum/execution-specs/blob/tests-snobal-devnet-5@v8037.0.0/tests/ported_static/stQuadraticComplexityTest/test_quadratic_complexity_solidity_call_data_copy.py#L26",
            "metadata": {
                "opcode_count": {}
            }
        }
    }
}