{
    "tests/ported_static/stQuadraticComplexityTest/test_quadratic_complexity_solidity_call_data_copy.py::test_quadratic_complexity_solidity_call_data_copy[fork_Cancun-blockchain_test_from_state_test--g0]": {
        "network": "Cancun",
        "genesisBlockHeader": {
            "parentHash": "0x0000000000000000000000000000000000000000000000000000000000000000",
            "uncleHash": "0x1dcc4de8dec75d7aab85b567b6ccd41ad312451b948a7413f0a142fd40d49347",
            "coinbase": "0x0000000000000000000000000000000000000000",
            "stateRoot": "0x4bdcb090e214d1e9078a19ba483e8a64bb4677130e4c4c2cb33ec855f9f55c8d",
            "transactionsTrie": "0x56e81f171bcc55a6ff8345e692c0f86e5b48e01b996cadc001622fb5e363b421",
            "receiptTrie": "0x56e81f171bcc55a6ff8345e692c0f86e5b48e01b996cadc001622fb5e363b421",
            "bloom": "0x00000000000000000000000000000000000000000000000000000000000000000000000000000000000000000000000000000000000000000000000000000000000000000000000000000000000000000000000000000000000000000000000000000000000000000000000000000000000000000000000000000000000000000000000000000000000000000000000000000000000000000000000000000000000000000000000000000000000000000000000000000000000000000000000000000000000000000000000000000000000000000000000000000000000000000000000000000000000000000000000000000000000000000000000000000000",
            "difficulty": "0x00",
            "number": "0x00",
            "gasLimit": "0x14dc9380",
            "gasUsed": "0x00",
            "timestamp": "0x00",
            "extraData": "0x00",
            "mixHash": "0x0000000000000000000000000000000000000000000000000000000000000000",
            "nonce": "0x0000000000000000",
            "baseFeePerGas": "0x0b",
            "withdrawalsRoot": "0x56e81f171bcc55a6ff8345e692c0f86e5b48e01b996cadc001622fb5e363b421",
            "blobGasUsed": "0x00",
            "excessBlobGas": "0x00",
            "parentBeaconBlockRoot": "0x0000000000000000000000000000000000000000000000000000000000000000",
            "hash": "0x76dedb07e3f31f28406bf833d55cfa75c81fd01cff86ce6535243fb06b421b56"
        },
        "pre": {
            "0x000f3df6d732807ef1319fb7b8bb8522d0beac02": {
                "nonce": "0x01",
                "balance": "0x00",
                "code": "0x3373fffffffffffffffffffffffffffffffffffffffe14604d57602036146024575f5ffd5b5f35801560495762001fff810690815414603c575f5ffd5b62001fff01545f5260205ff35b5f5ffd5b62001fff42064281555f359062001fff015500",
                "storage": {}
            },
            "0xa94f5374fce5edbc8e2a8697c15331677e6ebf0b": {
                "nonce": "0x00",
                "balance": "0x11c37937e08000",
                "code": "0x60003560e060020a9004806361a4770614601557005b601e6004356024565b60006000f35b60008160008190555073b94f5374fce5edbc8e2a8697c15331677e6ebf0b90505b600082131560bf5780600160a060020a03166000600060007f6a7573740000000000000000000000000000000000000000000000000000000081526004017f63616c6c000000000000000000000000000000000000000000000000000000008152602001600060008560155a03f150506001820391506045565b505056",
                "storage": {}
            },
            "0xb94f5374fce5edbc8e2a8697c15331677e6ebf0b": {
                "nonce": "0x00",
                "balance": "0x4c4b40",
                "code": "0x61c350600060003700",
                "storage": {}
            },
            "0xc9c5a15a403e41498b6f69f6f89dd9f5892d21f7": {
                "nonce": "0x00",
                "balance": "0x11c37937e08000",
                "code": "0x",
                "storage": {}
            }
        },
        "postState": {
            "0x000f3df6d732807ef1319fb7b8bb8522d0beac02": {
                "nonce": "0x01",
                "balance": "0x00",
                "code": "0x3373fffffffffffffffffffffffffffffffffffffffe14604d57602036146024575f5ffd5b5f35801560495762001fff810690815414603c575f5ffd5b62001fff01545f5260205ff35b5f5ffd5b62001fff42064281555f359062001fff015500",
                "storage": {
                    "0x03e8": "0x03e8"
                }
            },
            "0xa94f5374fce5edbc8e2a8697c15331677e6ebf0b": {
                "nonce": "0x00",
                "balance": "0x11c37937e08000",
                "code": "0x60003560e060020a9004806361a4770614601557005b601e6004356024565b60006000f35b60008160008190555073b94f5374fce5edbc8e2a8697c15331677e6ebf0b90505b600082131560bf5780600160a060020a03166000600060007f6a7573740000000000000000000000000000000000000000000000000000000081526004017f63616c6c000000000000000000000000000000000000000000000000000000008152602001600060008560155a03f150506001820391506045565b505056",
                "storage": {}
            },
            "0xb94f5374fce5edbc8e2a8697c15331677e6ebf0b": {
                "nonce": "0x00",
                "balance": "0x4c4b40",
                "code": "0x61c350600060003700",
                "storage": {}
            },
            "0xc9c5a15a403e41498b6f69f6f89dd9f5892d21f7": {
                "nonce": "0x01",
                "balance": "0x11c37937c99ca0",
                "code": "0x",
                "storage": {}
            }
        },
        "lastblockhash": "0xcd05cc358cb2087b2a7725c7a6d044d5fd9fefa34c8d738ea4f2b98e5334a31b",
        "config": {
            "network": "Cancun",
            "chainid": "0x01",
            "blobSchedule": {
                "Cancun": {
                    "target": "0x03",
                    "max": "0x06",
                    "baseFeeUpdateFraction": "0x32f0ed"
                }
            }
        },
        "genesisRLP": "0xf9023cf90236a00000000000000000000000000000000000000000000000000000000000000000a01dcc4de8dec75d7aab85b567b6ccd41ad312451b948a7413f0a142fd40d49347940000000000000000000000000000000000000000a04bdcb090e214d1e9078a19ba483e8a64bb4677130e4c4c2cb33ec855f9f55c8da056e81f171bcc55a6ff8345e692c0f86e5b48e01b996cadc001622fb5e363b421a056e81f171bcc55a6ff8345e692c0f86e5b48e01b996cadc001622fb5e363b421b901000000000000000000000000000000000000000000000000000000000000000000000000000000000000000000000000000000000000000000000000000000000000000000000000000000000000000000000000000000000000000000000000000000000000000000000000000000000000000000000000000000000000000000000000000000000000000000000000000000000000000000000000000000000000000000000000000000000000000000000000000000000000000000000000000000000000000000000000000000000000000000000000000000000000000000000000000000000000000000000000000000000000000000000000000000000080808414dc9380808000a000000000000000000000000000000000000000000000000000000000000000008800000000000000000ba056e81f171bcc55a6ff8345e692c0f86e5b48e01b996cadc001622fb5e363b4218080a00000000000000000000000000000000000000000000000000000000000000000c0c0c0",
        "blocks": [
            {
                "blockHeader": {
                    "parentHash": "0x76dedb07e3f31f28406bf833d55cfa75c81fd01cff86ce6535243fb06b421b56",
                    "uncleHash": "0x1dcc4de8dec75d7aab85b567b6ccd41ad312451b948a7413f0a142fd40d49347",
                    "coinbase": "0x2adc25665018aa1fe0e6bc666dac8fc2697ff9ba",
                    "stateRoot": "0x3d70af18f51b30e44b36e5ed779a32f91e86973f4c2514b96cc4aae51597daf9",
                    "transactionsTrie": "0x8dcc282cbb30be8a7d26c7cee83acb4c5440569c5c682e2e00a49ddc7609eb09",
                    "receiptTrie": "0xa0e10907f175886de9bd8cd4ac2c21d1db4109a3a9fecf60f54015ee102803fd",
                    "bloom": "0x00000000000000000000000000000000000000000000000000000000000000000000000000000000000000000000000000000000000000000000000000000000000000000000000000000000000000000000000000000000000000000000000000000000000000000000000000000000000000000000000000000000000000000000000000000000000000000000000000000000000000000000000000000000000000000000000000000000000000000000000000000000000000000000000000000000000000000000000000000000000000000000000000000000000000000000000000000000000000000000000000000000000000000000000000000000",
                    "difficulty": "0x00",
                    "number": "0x01",
                    "gasLimit": "0x14dc9380",
                    "gasUsed": "0x0249f0",
                    "timestamp": "0x03e8",
                    "extraData": "0x00",
                    "mixHash": "0x0000000000000000000000000000000000000000000000000000000000020000",
                    "nonce": "0x0000000000000000",
                    "baseFeePerGas": "0x0a",
                    "withdrawalsRoot": "0x56e81f171bcc55a6ff8345e692c0f86e5b48e01b996cadc001622fb5e363b421",
                    "blobGasUsed": "0x00",
                    "excessBlobGas": "0x00",
                    "parentBeaconBlockRoot": "0x0000000000000000000000000000000000000000000000000000000000000000",
                    "hash": "0xcd05cc358cb2087b2a7725c7a6d044d5fd9fefa34c8d738ea4f2b98e5334a31b"
                },
                "transactions": [
                    {
                        "type": "0x00",
                        "chainId": "0x01",
                        "nonce": "0x00",
                        "gasPrice": "0x0a",
                        "gasLimit": "0x0249f0",
                        "to": "0xa94f5374fce5edbc8e2a8697c15331677e6ebf0b",
                        "value": "0x01",
                        "data": "0x61a47706000000000000000000000000000000000000000000000000000000000000c350",
                        "v": "0x26",
                        "r": "0x3bfc0009c614486e99aab4fd10e123f6fa19cdb035e7c6f7d1e1afa778ba4a1b",
                        "s": "0x3ad9cab87ef547c272bc13a6bd096685aac718a57463c1bdb94cc441d95d2e",
                        "sender": "0xc9c5a15a403e41498b6f69f6f89dd9f5892d21f7"
                    }
                ],
                "uncleHeaders": [],
                "withdrawals": [],
                "receipts": [
                    {
                        "transactionHash": "0x55ef64c2c21140a487a22b247560d6b2a25a8ff714e504d32a92801467924c25",
                        "type": "0x00",
                        "cumulativeGasUsed": "0x0249f0",
                        "bloom": "0x00000000000000000000000000000000000000000000000000000000000000000000000000000000000000000000000000000000000000000000000000000000000000000000000000000000000000000000000000000000000000000000000000000000000000000000000000000000000000000000000000000000000000000000000000000000000000000000000000000000000000000000000000000000000000000000000000000000000000000000000000000000000000000000000000000000000000000000000000000000000000000000000000000000000000000000000000000000000000000000000000000000000000000000000000000000",
                        "logs": [],
                        "status": false,
                        "rlp": "0xf9010980830249f0b9010000000000000000000000000000000000000000000000000000000000000000000000000000000000000000000000000000000000000000000000000000000000000000000000000000000000000000000000000000000000000000000000000000000000000000000000000000000000000000000000000000000000000000000000000000000000000000000000000000000000000000000000000000000000000000000000000000000000000000000000000000000000000000000000000000000000000000000000000000000000000000000000000000000000000000000000000000000000000000000000000000000000000000000000000000000000c0"
                    }
                ],
                "rlp": "0xf902c7f9023ba076dedb07e3f31f28406bf833d55cfa75c81fd01cff86ce6535243fb06b421b56a01dcc4de8dec75d7aab85b567b6ccd41ad312451b948a7413f0a142fd40d49347942adc25665018aa1fe0e6bc666dac8fc2697ff9baa03d70af18f51b30e44b36e5ed779a32f91e86973f4c2514b96cc4aae51597daf9a08dcc282cbb30be8a7d26c7cee83acb4c5440569c5c682e2e00a49ddc7609eb09a0a0e10907f175886de9bd8cd4ac2c21d1db4109a3a9fecf60f54015ee102803fdb901000000000000000000000000000000000000000000000000000000000000000000000000000000000000000000000000000000000000000000000000000000000000000000000000000000000000000000000000000000000000000000000000000000000000000000000000000000000000000000000000000000000000000000000000000000000000000000000000000000000000000000000000000000000000000000000000000000000000000000000000000000000000000000000000000000000000000000000000000000000000000000000000000000000000000000000000000000000000000000000000000000000000000000000000000000000080018414dc9380830249f08203e800a000000000000000000000000000000000000000000000000000000000000200008800000000000000000aa056e81f171bcc55a6ff8345e692c0f86e5b48e01b996cadc001622fb5e363b4218080a00000000000000000000000000000000000000000000000000000000000000000f885f883800a830249f094a94f5374fce5edbc8e2a8697c15331677e6ebf0b01a461a47706000000000000000000000000000000000000000000000000000000000000c35026a03bfc0009c614486e99aab4fd10e123f6fa19cdb035e7c6f7d1e1afa778ba4a1b9f3ad9cab87ef547c272bc13a6bd096685aac718a57463c1bdb94cc441d95d2ec0c0",
                "blocknumber": "1"
            }
        ],
        "sealEngine": "NoProof",
        "_info": {
            "hash": "0x4fe50de3fd0d3dda4f40cee20811bce17ce99446164eff13c4c37261c9e3fb08",
            "fixture-format": "blockchain_test",
            "comment": "`execution-specs` generated test",
            "filling-transition-tool": "2.19.0",
            "description": "Test_quadratic_complexity_solidity_call_data_copy.",
            "url": "https://github.com/ethereum/execution-specs/blob/tests-bal@v5.6.1/tests/ported_static/stQuadraticComplexityTest/test_quadratic_complexity_solidity_call_data_copy.py#L27",
            "metadata": {
                "opcode_count": {}
            }
        }
    },
    "tests/ported_static/stQuadraticComplexityTest/test_quadratic_complexity_solidity_call_data_copy.py::test_quadratic_complexity_solidity_call_data_copy[fork_Cancun-blockchain_test_from_state_test--g1]": {
        "network": "Cancun",
        "genesisBlockHeader": {
            "parentHash": "0x0000000000000000000000000000000000000000000000000000000000000000",
            "uncleHash": "0x1dcc4de8dec75d7aab85b567b6ccd41ad312451b948a7413f0a142fd40d49347",
            "coinbase": "0x0000000000000000000000000000000000000000",
            "stateRoot": "0x4bdcb090e214d1e9078a19ba483e8a64bb4677130e4c4c2cb33ec855f9f55c8d",
            "transactionsTrie": "0x56e81f171bcc55a6ff8345e692c0f86e5b48e01b996cadc001622fb5e363b421",
            "receiptTrie": "0x56e81f171bcc55a6ff8345e692c0f86e5b48e01b996cadc001622fb5e363b421",
            "bloom": "0x00000000000000000000000000000000000000000000000000000000000000000000000000000000000000000000000000000000000000000000000000000000000000000000000000000000000000000000000000000000000000000000000000000000000000000000000000000000000000000000000000000000000000000000000000000000000000000000000000000000000000000000000000000000000000000000000000000000000000000000000000000000000000000000000000000000000000000000000000000000000000000000000000000000000000000000000000000000000000000000000000000000000000000000000000000000",
            "difficulty": "0x00",
            "number": "0x00",
            "gasLimit": "0x14dc9380",
            "gasUsed": "0x00",
            "timestamp": "0x00",
            "extraData": "0x00",
            "mixHash": "0x0000000000000000000000000000000000000000000000000000000000000000",
            "nonce": "0x0000000000000000",
            "baseFeePerGas": "0x0b",
            "withdrawalsRoot": "0x56e81f171bcc55a6ff8345e692c0f86e5b48e01b996cadc001622fb5e363b421",
            "blobGasUsed": "0x00",
            "excessBlobGas": "0x00",
            "parentBeaconBlockRoot": "0x0000000000000000000000000000000000000000000000000000000000000000",
            "hash": "0x76dedb07e3f31f28406bf833d55cfa75c81fd01cff86ce6535243fb06b421b56"
        },
        "pre": {
            "0x000f3df6d732807ef1319fb7b8bb8522d0beac02": {
                "nonce": "0x01",
                "balance": "0x00",
                "code": "0x3373fffffffffffffffffffffffffffffffffffffffe14604d57602036146024575f5ffd5b5f35801560495762001fff810690815414603c575f5ffd5b62001fff01545f5260205ff35b5f5ffd5b62001fff42064281555f359062001fff015500",
                "storage": {}
            },
            "0xa94f5374fce5edbc8e2a8697c15331677e6ebf0b": {
                "nonce": "0x00",
                "balance": "0x11c37937e08000",
                "code": "0x60003560e060020a9004806361a4770614601557005b601e6004356024565b60006000f35b60008160008190555073b94f5374fce5edbc8e2a8697c15331677e6ebf0b90505b600082131560bf5780600160a060020a03166000600060007f6a7573740000000000000000000000000000000000000000000000000000000081526004017f63616c6c000000000000000000000000000000000000000000000000000000008152602001600060008560155a03f150506001820391506045565b505056",
                "storage": {}
            },
            "0xb94f5374fce5edbc8e2a8697c15331677e6ebf0b": {
                "nonce": "0x00",
                "balance": "0x4c4b40",
                "code": "0x61c350600060003700",
                "storage": {}
            },
            "0xc9c5a15a403e41498b6f69f6f89dd9f5892d21f7": {
                "nonce": "0x00",
                "balance": "0x11c37937e08000",
                "code": "0x",
                "storage": {}
            }
        },
        "postState": {
            "0x000f3df6d732807ef1319fb7b8bb8522d0beac02": {
                "nonce": "0x01",
                "balance": "0x00",
                "code": "0x3373fffffffffffffffffffffffffffffffffffffffe14604d57602036146024575f5ffd5b5f35801560495762001fff810690815414603c575f5ffd5b62001fff01545f5260205ff35b5f5ffd5b62001fff42064281555f359062001fff015500",
                "storage": {
                    "0x03e8": "0x03e8"
                }
            },
            "0xa94f5374fce5edbc8e2a8697c15331677e6ebf0b": {
                "nonce": "0x00",
                "balance": "0x11c37937e08000",
                "code": "0x60003560e060020a9004806361a4770614601557005b601e6004356024565b60006000f35b60008160008190555073b94f5374fce5edbc8e2a8697c15331677e6ebf0b90505b600082131560bf5780600160a060020a03166000600060007f6a7573740000000000000000000000000000000000000000000000000000000081526004017f63616c6c000000000000000000000000000000000000000000000000000000008152602001600060008560155a03f150506001820391506045565b505056",
                "storage": {}
            },
            "0xb94f5374fce5edbc8e2a8697c15331677e6ebf0b": {
                "nonce": "0x00",
                "balance": "0x4c4b40",
                "code": "0x61c350600060003700",
                "storage": {}
            },
            "0xc9c5a15a403e41498b6f69f6f89dd9f5892d21f7": {
                "nonce": "0x01",
                "balance": "0x11c378a2dd8700",
                "code": "0x",
                "storage": {}
            }
        },
        "lastblockhash": "0xaf3a8ba170a28e84df177f56609dad4e7e3a208f52827720d515d292463e8a8b",
        "config": {
            "network": "Cancun",
            "chainid": "0x01",
            "blobSchedule": {
                "Cancun": {
                    "target": "0x03",
                    "max": "0x06",
                    "baseFeeUpdateFraction": "0x32f0ed"
                }
            }
        },
        "genesisRLP": "0xf9023cf90236a00000000000000000000000000000000000000000000000000000000000000000a01dcc4de8dec75d7aab85b567b6ccd41ad312451b948a7413f0a142fd40d49347940000000000000000000000000000000000000000a04bdcb090e214d1e9078a19ba483e8a64bb4677130e4c4c2cb33ec855f9f55c8da056e81f171bcc55a6ff8345e692c0f86e5b48e01b996cadc001622fb5e363b421a056e81f171bcc55a6ff8345e692c0f86e5b48e01b996cadc001622fb5e363b421b901000000000000000000000000000000000000000000000000000000000000000000000000000000000000000000000000000000000000000000000000000000000000000000000000000000000000000000000000000000000000000000000000000000000000000000000000000000000000000000000000000000000000000000000000000000000000000000000000000000000000000000000000000000000000000000000000000000000000000000000000000000000000000000000000000000000000000000000000000000000000000000000000000000000000000000000000000000000000000000000000000000000000000000000000000000000080808414dc9380808000a000000000000000000000000000000000000000000000000000000000000000008800000000000000000ba056e81f171bcc55a6ff8345e692c0f86e5b48e01b996cadc001622fb5e363b4218080a00000000000000000000000000000000000000000000000000000000000000000c0c0c0",
        "blocks": [
            {
                "blockHeader": {
                    "parentHash": "0x76dedb07e3f31f28406bf833d55cfa75c81fd01cff86ce6535243fb06b421b56",
                    "uncleHash": "0x1dcc4de8dec75d7aab85b567b6ccd41ad312451b948a7413f0a142fd40d49347",
                    "coinbase": "0x2adc25665018aa1fe0e6bc666dac8fc2697ff9ba",
                    "stateRoot": "0x3ed52addc848416291813f61b253f15db288d7ff8285ed8952d0af1ce85aa4a4",
                    "transactionsTrie": "0x2ccc7002ce600dcd85d3770810f8e430ce37331f64cfb9b2c3bf87ca80a292a7",
                    "receiptTrie": "0x27408083641cf20cfde86cd87cd57bf10c741d7553352ca96118e31ab8ceb9ce",
                    "bloom": "0x00000000000000000000000000000000000000000000000000000000000000000000000000000000000000000000000000000000000000000000000000000000000000000000000000000000000000000000000000000000000000000000000000000000000000000000000000000000000000000000000000000000000000000000000000000000000000000000000000000000000000000000000000000000000000000000000000000000000000000000000000000000000000000000000000000000000000000000000000000000000000000000000000000000000000000000000000000000000000000000000000000000000000000000000000000000",
                    "difficulty": "0x00",
                    "number": "0x01",
                    "gasLimit": "0x14dc9380",
                    "gasUsed": "0x0ee6b280",
                    "timestamp": "0x03e8",
                    "extraData": "0x00",
                    "mixHash": "0x0000000000000000000000000000000000000000000000000000000000020000",
                    "nonce": "0x0000000000000000",
                    "baseFeePerGas": "0x0a",
                    "withdrawalsRoot": "0x56e81f171bcc55a6ff8345e692c0f86e5b48e01b996cadc001622fb5e363b421",
                    "blobGasUsed": "0x00",
                    "excessBlobGas": "0x00",
                    "parentBeaconBlockRoot": "0x0000000000000000000000000000000000000000000000000000000000000000",
                    "hash": "0xaf3a8ba170a28e84df177f56609dad4e7e3a208f52827720d515d292463e8a8b"
                },
                "transactions": [
                    {
                        "type": "0x00",
                        "chainId": "0x01",
                        "nonce": "0x00",
                        "gasPrice": "0x0a",
                        "gasLimit": "0x0ee6b280",
                        "to": "0xa94f5374fce5edbc8e2a8697c15331677e6ebf0b",
                        "value": "0x01",
                        "data": "0x61a47706000000000000000000000000000000000000000000000000000000000000c350",
                        "v": "0x25",
                        "r": "0xe451b9c976f34488e8913e1d6d551aa12486f48ff36d89c345c7126ef3826973",
                        "s": "0x47268ddd08413c21d8d0a75d7e4ba5dc34f4cf4248f4836a9447f1f80984528e",
                        "sender": "0xc9c5a15a403e41498b6f69f6f89dd9f5892d21f7"
                    }
                ],
                "uncleHeaders": [],
                "withdrawals": [],
                "receipts": [
                    {
                        "transactionHash": "0xdc05df8edfbd8fd492bf78bec857744d29db676ac87cc0970d6294e88b0a5529",
                        "type": "0x00",
                        "cumulativeGasUsed": "0x0ee6b280",
                        "bloom": "0x00000000000000000000000000000000000000000000000000000000000000000000000000000000000000000000000000000000000000000000000000000000000000000000000000000000000000000000000000000000000000000000000000000000000000000000000000000000000000000000000000000000000000000000000000000000000000000000000000000000000000000000000000000000000000000000000000000000000000000000000000000000000000000000000000000000000000000000000000000000000000000000000000000000000000000000000000000000000000000000000000000000000000000000000000000000",
                        "logs": [],
                        "status": false,
                        "rlp": "0xf9010a80840ee6b280b9010000000000000000000000000000000000000000000000000000000000000000000000000000000000000000000000000000000000000000000000000000000000000000000000000000000000000000000000000000000000000000000000000000000000000000000000000000000000000000000000000000000000000000000000000000000000000000000000000000000000000000000000000000000000000000000000000000000000000000000000000000000000000000000000000000000000000000000000000000000000000000000000000000000000000000000000000000000000000000000000000000000000000000000000000000000000c0"
                    }
                ],
                "rlp": "0xf902caf9023ca076dedb07e3f31f28406bf833d55cfa75c81fd01cff86ce6535243fb06b421b56a01dcc4de8dec75d7aab85b567b6ccd41ad312451b948a7413f0a142fd40d49347942adc25665018aa1fe0e6bc666dac8fc2697ff9baa03ed52addc848416291813f61b253f15db288d7ff8285ed8952d0af1ce85aa4a4a02ccc7002ce600dcd85d3770810f8e430ce37331f64cfb9b2c3bf87ca80a292a7a027408083641cf20cfde86cd87cd57bf10c741d7553352ca96118e31ab8ceb9ceb901000000000000000000000000000000000000000000000000000000000000000000000000000000000000000000000000000000000000000000000000000000000000000000000000000000000000000000000000000000000000000000000000000000000000000000000000000000000000000000000000000000000000000000000000000000000000000000000000000000000000000000000000000000000000000000000000000000000000000000000000000000000000000000000000000000000000000000000000000000000000000000000000000000000000000000000000000000000000000000000000000000000000000000000000000000000080018414dc9380840ee6b2808203e800a000000000000000000000000000000000000000000000000000000000000200008800000000000000000aa056e81f171bcc55a6ff8345e692c0f86e5b48e01b996cadc001622fb5e363b4218080a00000000000000000000000000000000000000000000000000000000000000000f887f885800a840ee6b28094a94f5374fce5edbc8e2a8697c15331677e6ebf0b01a461a47706000000000000000000000000000000000000000000000000000000000000c35025a0e451b9c976f34488e8913e1d6d551aa12486f48ff36d89c345c7126ef3826973a047268ddd08413c21d8d0a75d7e4ba5dc34f4cf4248f4836a9447f1f80984528ec0c0",
                "blocknumber": "1"
            }
        ],
        "sealEngine": "NoProof",
        "_info": {
            "hash": "0x44ec4a683d16ec0dcfc507d889c34bc9cde0f2f4b087e1256870e5b1f7c88e71",
            "fixture-format": "blockchain_test",
            "comment": "`execution-specs` generated test",
            "filling-transition-tool": "2.19.0",
            "description": "Test_quadratic_complexity_solidity_call_data_copy.",
            "url": "https://github.com/ethereum/execution-specs/blob/tests-bal@v5.6.1/tests/ported_static/stQuadraticComplexityTest/test_quadratic_complexity_solidity_call_data_copy.py#L27",
            "metadata": {
                "opcode_count": {}
            }
        }
    }
}