{
    "tests/constantinople/eip1014_create2/test_create2_revert.py::test_create2_revert_preserves_balance[fork_Paris-blockchain_test_from_state_test]": {
        "network": "Paris",
        "genesisBlockHeader": {
            "parentHash": "0x0000000000000000000000000000000000000000000000000000000000000000",
            "uncleHash": "0x1dcc4de8dec75d7aab85b567b6ccd41ad312451b948a7413f0a142fd40d49347",
            "coinbase": "0x0000000000000000000000000000000000000000",
            "stateRoot": "0x0f9df99d26c04203708a1642d40fcd64266f7f92a6ce7f6f7edeed0c8b695e17",
            "transactionsTrie": "0x56e81f171bcc55a6ff8345e692c0f86e5b48e01b996cadc001622fb5e363b421",
            "receiptTrie": "0x56e81f171bcc55a6ff8345e692c0f86e5b48e01b996cadc001622fb5e363b421",
            "bloom": "0x00000000000000000000000000000000000000000000000000000000000000000000000000000000000000000000000000000000000000000000000000000000000000000000000000000000000000000000000000000000000000000000000000000000000000000000000000000000000000000000000000000000000000000000000000000000000000000000000000000000000000000000000000000000000000000000000000000000000000000000000000000000000000000000000000000000000000000000000000000000000000000000000000000000000000000000000000000000000000000000000000000000000000000000000000000000",
            "difficulty": "0x00",
            "number": "0x00",
            "gasLimit": "0x07270e00",
            "gasUsed": "0x00",
            "timestamp": "0x00",
            "extraData": "0x00",
            "mixHash": "0x0000000000000000000000000000000000000000000000000000000000000000",
            "nonce": "0x0000000000000000",
            "baseFeePerGas": "0x07",
            "hash": "0x18d749a9a8d1bd19f72fc9c5f0c7510a9dbf41dce17fa49f2c3205868d14913c"
        },
        "pre": {
            "0xd5a3841935d4a6c7144bcdc779bea01c56a5246c": {
                "nonce": "0x01",
                "balance": "0x00",
                "code": "0x36600060003760003660006000f560005500",
                "storage": {
                    "0x00": "0xba5e"
                }
            },
            "0x170a89a85da5159f4e019fbdbcb19a05d6ac3e43": {
                "nonce": "0x00",
                "balance": "0x01",
                "code": "0x",
                "storage": {}
            },
            "0x1ad9bc24818784172ff393bb6f89f094d4d2ca29": {
                "nonce": "0x00",
                "balance": "0x3635c9adc5dea00000",
                "code": "0x",
                "storage": {}
            }
        },
        "postState": {
            "0xd5a3841935d4a6c7144bcdc779bea01c56a5246c": {
                "nonce": "0x02",
                "balance": "0x00",
                "code": "0x36600060003760003660006000f560005500",
                "storage": {}
            },
            "0x170a89a85da5159f4e019fbdbcb19a05d6ac3e43": {
                "nonce": "0x00",
                "balance": "0x01",
                "code": "0x",
                "storage": {}
            },
            "0x1ad9bc24818784172ff393bb6f89f094d4d2ca29": {
                "nonce": "0x01",
                "balance": "0x3635c9adc5de947bd6",
                "code": "0x",
                "storage": {}
            },
            "0x2adc25665018aa1fe0e6bc666dac8fc2697ff9ba": {
                "nonce": "0x00",
                "balance": "0x037473",
                "code": "0x",
                "storage": {}
            }
        },
        "lastblockhash": "0x0ae243231de526097444d129fcb13d12ffd9784c0f0d6b22f816a10d8566049b",
        "config": {
            "network": "Paris",
            "chainid": "0x01"
        },
        "genesisRLP": "0xf901f7f901f2a00000000000000000000000000000000000000000000000000000000000000000a01dcc4de8dec75d7aab85b567b6ccd41ad312451b948a7413f0a142fd40d49347940000000000000000000000000000000000000000a00f9df99d26c04203708a1642d40fcd64266f7f92a6ce7f6f7edeed0c8b695e17a056e81f171bcc55a6ff8345e692c0f86e5b48e01b996cadc001622fb5e363b421a056e81f171bcc55a6ff8345e692c0f86e5b48e01b996cadc001622fb5e363b421b901000000000000000000000000000000000000000000000000000000000000000000000000000000000000000000000000000000000000000000000000000000000000000000000000000000000000000000000000000000000000000000000000000000000000000000000000000000000000000000000000000000000000000000000000000000000000000000000000000000000000000000000000000000000000000000000000000000000000000000000000000000000000000000000000000000000000000000000000000000000000000000000000000000000000000000000000000000000000000000000000000000000000000000000000000000000080808407270e00808000a0000000000000000000000000000000000000000000000000000000000000000088000000000000000007c0c0",
        "blocks": [
            {
                "blockHeader": {
                    "parentHash": "0x18d749a9a8d1bd19f72fc9c5f0c7510a9dbf41dce17fa49f2c3205868d14913c",
                    "uncleHash": "0x1dcc4de8dec75d7aab85b567b6ccd41ad312451b948a7413f0a142fd40d49347",
                    "coinbase": "0x2adc25665018aa1fe0e6bc666dac8fc2697ff9ba",
                    "stateRoot": "0xc5722e965be5b7ecd6f810ec059503f1b05e77348f2159e5b99b9bd598ddae64",
                    "transactionsTrie": "0x71d4af047ebcb306f3fd416cee9f7e4f837ea543fa3e567a3c07f7539430e35f",
                    "receiptTrie": "0x611e1e8df1508f2dcb943ef15ad26a9d8c95eb3cb646cbe35132aab6b5b2ce7b",
                    "bloom": "0x00000000000000000000000000000000000000000000000000000000000000000000000000000000000000000000000000000000000000000000000000000000000000000000000000000000000000000000000000000000000000000000000000000000000000000000000000000000000000000000000000000000000000000000000000000000000000000000000000000000000000000000000000000000000000000000000000000000000000000000000000000000000000000000000000000000000000000000000000000000000000000000000000000000000000000000000000000000000000000000000000000000000000000000000000000000",
                    "difficulty": "0x00",
                    "number": "0x01",
                    "gasLimit": "0x07270e00",
                    "gasUsed": "0x0126d1",
                    "timestamp": "0x03e8",
                    "extraData": "0x00",
                    "mixHash": "0x0000000000000000000000000000000000000000000000000000000000000000",
                    "nonce": "0x0000000000000000",
                    "baseFeePerGas": "0x07",
                    "hash": "0x0ae243231de526097444d129fcb13d12ffd9784c0f0d6b22f816a10d8566049b"
                },
                "transactions": [
                    {
                        "type": "0x00",
                        "chainId": "0x01",
                        "nonce": "0x00",
                        "gasPrice": "0x0a",
                        "gasLimit": "0x0f4240",
                        "to": "0xd5a3841935d4a6c7144bcdc779bea01c56a5246c",
                        "value": "0x00",
                        "data": "0x600160005560006000fd",
                        "v": "0x25",
                        "r": "0xfa786ef10e3048ed15cd4a34d53ec10df1017ac20aea3e3a7f0991e9bd324da3",
                        "s": "0x174bdd1a059dad192baf19eeb27db4af16c05399ad63467231e694bab9b21ea9",
                        "sender": "0x1ad9bc24818784172ff393bb6f89f094d4d2ca29"
                    }
                ],
                "uncleHeaders": [],
                "receipts": [
                    {
                        "transactionHash": "0x9dd0025323db8f939f1810a2f4e0bac2a79d89883e893fbe2805ea43b896e40a",
                        "type": "0x00",
                        "cumulativeGasUsed": "0x0126d1",
                        "bloom": "0x00000000000000000000000000000000000000000000000000000000000000000000000000000000000000000000000000000000000000000000000000000000000000000000000000000000000000000000000000000000000000000000000000000000000000000000000000000000000000000000000000000000000000000000000000000000000000000000000000000000000000000000000000000000000000000000000000000000000000000000000000000000000000000000000000000000000000000000000000000000000000000000000000000000000000000000000000000000000000000000000000000000000000000000000000000000",
                        "logs": [],
                        "status": true,
                        "rlp": "0xf9010901830126d1b9010000000000000000000000000000000000000000000000000000000000000000000000000000000000000000000000000000000000000000000000000000000000000000000000000000000000000000000000000000000000000000000000000000000000000000000000000000000000000000000000000000000000000000000000000000000000000000000000000000000000000000000000000000000000000000000000000000000000000000000000000000000000000000000000000000000000000000000000000000000000000000000000000000000000000000000000000000000000000000000000000000000000000000000000000000000000c0"
                    }
                ],
                "rlp": "0xf90269f901f7a018d749a9a8d1bd19f72fc9c5f0c7510a9dbf41dce17fa49f2c3205868d14913ca01dcc4de8dec75d7aab85b567b6ccd41ad312451b948a7413f0a142fd40d49347942adc25665018aa1fe0e6bc666dac8fc2697ff9baa0c5722e965be5b7ecd6f810ec059503f1b05e77348f2159e5b99b9bd598ddae64a071d4af047ebcb306f3fd416cee9f7e4f837ea543fa3e567a3c07f7539430e35fa0611e1e8df1508f2dcb943ef15ad26a9d8c95eb3cb646cbe35132aab6b5b2ce7bb901000000000000000000000000000000000000000000000000000000000000000000000000000000000000000000000000000000000000000000000000000000000000000000000000000000000000000000000000000000000000000000000000000000000000000000000000000000000000000000000000000000000000000000000000000000000000000000000000000000000000000000000000000000000000000000000000000000000000000000000000000000000000000000000000000000000000000000000000000000000000000000000000000000000000000000000000000000000000000000000000000000000000000000000000000000000080018407270e00830126d18203e800a0000000000000000000000000000000000000000000000000000000000000000088000000000000000007f86cf86a800a830f424094d5a3841935d4a6c7144bcdc779bea01c56a5246c808a600160005560006000fd25a0fa786ef10e3048ed15cd4a34d53ec10df1017ac20aea3e3a7f0991e9bd324da3a0174bdd1a059dad192baf19eeb27db4af16c05399ad63467231e694bab9b21ea9c0",
                "blocknumber": "1"
            }
        ],
        "sealEngine": "NoProof",
        "_info": {
            "hash": "0xeb88fc58d5f9cf1aa8c366740c2e4839009a4f8ed1605af5a626738cb5b26b91",
            "fixture-format": "blockchain_test",
            "comment": "`execution-specs` generated test",
            "filling-transition-tool": "2.19.0",
            "description": "Test that CREATE2 revert preserves pre-existing balance at target.\n\nAddress X has a pre-existing balance but no code. CREATE2 targets X\nwith init code that reverts. After the revert, X must still have its\noriginal balance, nonce=0, and no code or storage.",
            "url": "https://github.com/ethereum/execution-specs/blob/tests-bal@v5.7.0/tests/constantinople/eip1014_create2/test_create2_revert.py#L24",
            "metadata": {
                "opcode_count": {}
            },
            "reference-spec": "https://github.com/ethereum/EIPs/blob/master/EIPS/eip-1014.md",
            "reference-spec-version": "31d4d62ec1dfc9f2bb26ca648f05d4cc2f47da09"
        }
    }
}