{
    "tests/ported_static/stStaticCall/test_static_callcallcodecallcode_011_ooge_2.py::test_static_callcallcodecallcode_011_ooge_2[fork_Cancun-blockchain_test_from_state_test-d0]": {
        "network": "Cancun",
        "genesisBlockHeader": {
            "parentHash": "0x0000000000000000000000000000000000000000000000000000000000000000",
            "uncleHash": "0x1dcc4de8dec75d7aab85b567b6ccd41ad312451b948a7413f0a142fd40d49347",
            "coinbase": "0x0000000000000000000000000000000000000000",
            "stateRoot": "0x40375e0543ee020cf0f62ed38aa9d5fb62ce1eb6b42bae2d7996333f6e96ed1c",
            "transactionsTrie": "0x56e81f171bcc55a6ff8345e692c0f86e5b48e01b996cadc001622fb5e363b421",
            "receiptTrie": "0x56e81f171bcc55a6ff8345e692c0f86e5b48e01b996cadc001622fb5e363b421",
            "bloom": "0x00000000000000000000000000000000000000000000000000000000000000000000000000000000000000000000000000000000000000000000000000000000000000000000000000000000000000000000000000000000000000000000000000000000000000000000000000000000000000000000000000000000000000000000000000000000000000000000000000000000000000000000000000000000000000000000000000000000000000000000000000000000000000000000000000000000000000000000000000000000000000000000000000000000000000000000000000000000000000000000000000000000000000000000000000000000",
            "difficulty": "0x00",
            "number": "0x00",
            "gasLimit": "0x01c9c380",
            "gasUsed": "0x00",
            "timestamp": "0x00",
            "extraData": "0x00",
            "mixHash": "0x0000000000000000000000000000000000000000000000000000000000000000",
            "nonce": "0x0000000000000000",
            "baseFeePerGas": "0x0b",
            "withdrawalsRoot": "0x56e81f171bcc55a6ff8345e692c0f86e5b48e01b996cadc001622fb5e363b421",
            "blobGasUsed": "0x00",
            "excessBlobGas": "0x00",
            "parentBeaconBlockRoot": "0x0000000000000000000000000000000000000000000000000000000000000000",
            "hash": "0x458ec1a107f839eca2125bd33a6337293419b5aaff6fb9a0f13da47052eeaf58"
        },
        "pre": {
            "0x000f3df6d732807ef1319fb7b8bb8522d0beac02": {
                "nonce": "0x01",
                "balance": "0x00",
                "code": "0x3373fffffffffffffffffffffffffffffffffffffffe14604d57602036146024575f5ffd5b5f35801560495762001fff810690815414603c575f5ffd5b62001fff01545f5260205ff35b5f5ffd5b62001fff42064281555f359062001fff015500",
                "storage": {}
            },
            "0xd66f224cbd2fabb21b17bb53c56118f32f62ebd6": {
                "nonce": "0x00",
                "balance": "0x0de0b6b3a7640000",
                "code": "0x",
                "storage": {}
            },
            "0x11a4a9dad43e6ed44e108eaf7fb160f9835068f4": {
                "nonce": "0x00",
                "balance": "0x00",
                "code": "0x600160035260406000604060006000600035620186a0f250600160035200",
                "storage": {}
            },
            "0x335c5531b84765a7626e6e76688f18b81be5259c": {
                "nonce": "0x00",
                "balance": "0x00",
                "code": "0x600160035200",
                "storage": {}
            },
            "0x6e143211e9d36eaeebe65f6ed69d6c28500040d6": {
                "nonce": "0x00",
                "balance": "0x0de0b6b3a7640000",
                "code": "0x60003560005260406000604060007311a4a9dad43e6ed44e108eaf7fb160f9835068f4620249f0fa600055600160015500",
                "storage": {}
            },
            "0xbb2e6e56806816e94a356b0f0c8e53f98e44d6ad": {
                "nonce": "0x00",
                "balance": "0x00",
                "code": "0x600b6003526040600060406000600073335c5531b84765a7626e6e76688f18b81be5259c614e34f2506001600d5200",
                "storage": {}
            },
            "0xf43b4e8b779078758104039080947f8f74e663d3": {
                "nonce": "0x00",
                "balance": "0x00",
                "code": "0x600b6003526040600060406000600173335c5531b84765a7626e6e76688f18b81be5259c614e34f2506001600d5200",
                "storage": {}
            }
        },
        "postState": {
            "0x000f3df6d732807ef1319fb7b8bb8522d0beac02": {
                "nonce": "0x01",
                "balance": "0x00",
                "code": "0x3373fffffffffffffffffffffffffffffffffffffffe14604d57602036146024575f5ffd5b5f35801560495762001fff810690815414603c575f5ffd5b62001fff01545f5260205ff35b5f5ffd5b62001fff42064281555f359062001fff015500",
                "storage": {
                    "0x03e8": "0x03e8"
                }
            },
            "0xd66f224cbd2fabb21b17bb53c56118f32f62ebd6": {
                "nonce": "0x01",
                "balance": "0x0de0b6b3a758c7ee",
                "code": "0x",
                "storage": {}
            },
            "0x11a4a9dad43e6ed44e108eaf7fb160f9835068f4": {
                "nonce": "0x00",
                "balance": "0x00",
                "code": "0x600160035260406000604060006000600035620186a0f250600160035200",
                "storage": {}
            },
            "0x335c5531b84765a7626e6e76688f18b81be5259c": {
                "nonce": "0x00",
                "balance": "0x00",
                "code": "0x600160035200",
                "storage": {}
            },
            "0x6e143211e9d36eaeebe65f6ed69d6c28500040d6": {
                "nonce": "0x00",
                "balance": "0x0de0b6b3a7640000",
                "code": "0x60003560005260406000604060007311a4a9dad43e6ed44e108eaf7fb160f9835068f4620249f0fa600055600160015500",
                "storage": {
                    "0x00": "0x01",
                    "0x01": "0x01"
                }
            },
            "0xbb2e6e56806816e94a356b0f0c8e53f98e44d6ad": {
                "nonce": "0x00",
                "balance": "0x00",
                "code": "0x600b6003526040600060406000600073335c5531b84765a7626e6e76688f18b81be5259c614e34f2506001600d5200",
                "storage": {}
            },
            "0xf43b4e8b779078758104039080947f8f74e663d3": {
                "nonce": "0x00",
                "balance": "0x00",
                "code": "0x600b6003526040600060406000600173335c5531b84765a7626e6e76688f18b81be5259c614e34f2506001600d5200",
                "storage": {}
            }
        },
        "lastblockhash": "0x0a5dbc42cf4bb267e74e262cafac247eb55a11c1134e795b0fcc206a7b6203c8",
        "config": {
            "network": "Cancun",
            "chainid": "0x01",
            "blobSchedule": {
                "Cancun": {
                    "target": "0x03",
                    "max": "0x06",
                    "baseFeeUpdateFraction": "0x32f0ed"
                }
            }
        },
        "genesisRLP": "0xf9023cf90236a00000000000000000000000000000000000000000000000000000000000000000a01dcc4de8dec75d7aab85b567b6ccd41ad312451b948a7413f0a142fd40d49347940000000000000000000000000000000000000000a040375e0543ee020cf0f62ed38aa9d5fb62ce1eb6b42bae2d7996333f6e96ed1ca056e81f171bcc55a6ff8345e692c0f86e5b48e01b996cadc001622fb5e363b421a056e81f171bcc55a6ff8345e692c0f86e5b48e01b996cadc001622fb5e363b421b901000000000000000000000000000000000000000000000000000000000000000000000000000000000000000000000000000000000000000000000000000000000000000000000000000000000000000000000000000000000000000000000000000000000000000000000000000000000000000000000000000000000000000000000000000000000000000000000000000000000000000000000000000000000000000000000000000000000000000000000000000000000000000000000000000000000000000000000000000000000000000000000000000000000000000000000000000000000000000000000000000000000000000000000000000000000080808401c9c380808000a000000000000000000000000000000000000000000000000000000000000000008800000000000000000ba056e81f171bcc55a6ff8345e692c0f86e5b48e01b996cadc001622fb5e363b4218080a00000000000000000000000000000000000000000000000000000000000000000c0c0c0",
        "blocks": [
            {
                "blockHeader": {
                    "parentHash": "0x458ec1a107f839eca2125bd33a6337293419b5aaff6fb9a0f13da47052eeaf58",
                    "uncleHash": "0x1dcc4de8dec75d7aab85b567b6ccd41ad312451b948a7413f0a142fd40d49347",
                    "coinbase": "0x2adc25665018aa1fe0e6bc666dac8fc2697ff9ba",
                    "stateRoot": "0x91ab3c31188c11db7283db72d107b11194f6f0d624b62d77dbb0d99456e52210",
                    "transactionsTrie": "0xf27c4744822402d0459a315ab1e14bd205096a58d8be268546b71e567bd82da2",
                    "receiptTrie": "0x73217647f59f4369482f7f308cfa637670612e388bd8b72f1c87209dd522e3e5",
                    "bloom": "0x00000000000000000000000000000000000000000000000000000000000000000000000000000000000000000000000000000000000000000000000000000000000000000000000000000000000000000000000000000000000000000000000000000000000000000000000000000000000000000000000000000000000000000000000000000000000000000000000000000000000000000000000000000000000000000000000000000000000000000000000000000000000000000000000000000000000000000000000000000000000000000000000000000000000000000000000000000000000000000000000000000000000000000000000000000000",
                    "difficulty": "0x00",
                    "number": "0x01",
                    "gasLimit": "0x01c9c380",
                    "gasUsed": "0x011f35",
                    "timestamp": "0x03e8",
                    "extraData": "0x00",
                    "mixHash": "0x0000000000000000000000000000000000000000000000000000000000020000",
                    "nonce": "0x0000000000000000",
                    "baseFeePerGas": "0x0a",
                    "withdrawalsRoot": "0x56e81f171bcc55a6ff8345e692c0f86e5b48e01b996cadc001622fb5e363b421",
                    "blobGasUsed": "0x00",
                    "excessBlobGas": "0x00",
                    "parentBeaconBlockRoot": "0x0000000000000000000000000000000000000000000000000000000000000000",
                    "hash": "0x0a5dbc42cf4bb267e74e262cafac247eb55a11c1134e795b0fcc206a7b6203c8"
                },
                "transactions": [
                    {
                        "type": "0x00",
                        "chainId": "0x01",
                        "nonce": "0x00",
                        "gasPrice": "0x0a",
                        "gasLimit": "0x029fe0",
                        "to": "0x6e143211e9d36eaeebe65f6ed69d6c28500040d6",
                        "value": "0x00",
                        "data": "0x000000000000000000000000bb2e6e56806816e94a356b0f0c8e53f98e44d6ad",
                        "v": "0x26",
                        "r": "0xe9c02077c3fb088a2f61513e2890942ca160ff42f30b68591220ba9f3edc7f3a",
                        "s": "0x11dd9d3f50a02efb2d12e790a4a61c860b384a6a553e2ac0ed14529847d759d3",
                        "sender": "0xd66f224cbd2fabb21b17bb53c56118f32f62ebd6"
                    }
                ],
                "uncleHeaders": [],
                "withdrawals": [],
                "receipts": [
                    {
                        "transactionHash": "0x772b91391343f746ec992a8b6362d9c9cea4d0f20574c234c510588a3515e1bc",
                        "type": "0x00",
                        "cumulativeGasUsed": "0x011f35",
                        "bloom": "0x00000000000000000000000000000000000000000000000000000000000000000000000000000000000000000000000000000000000000000000000000000000000000000000000000000000000000000000000000000000000000000000000000000000000000000000000000000000000000000000000000000000000000000000000000000000000000000000000000000000000000000000000000000000000000000000000000000000000000000000000000000000000000000000000000000000000000000000000000000000000000000000000000000000000000000000000000000000000000000000000000000000000000000000000000000000",
                        "logs": [],
                        "status": true,
                        "rlp": "0xf901090183011f35b9010000000000000000000000000000000000000000000000000000000000000000000000000000000000000000000000000000000000000000000000000000000000000000000000000000000000000000000000000000000000000000000000000000000000000000000000000000000000000000000000000000000000000000000000000000000000000000000000000000000000000000000000000000000000000000000000000000000000000000000000000000000000000000000000000000000000000000000000000000000000000000000000000000000000000000000000000000000000000000000000000000000000000000000000000000000000c0"
                    }
                ],
                "rlp": "0xf902c4f9023ba0458ec1a107f839eca2125bd33a6337293419b5aaff6fb9a0f13da47052eeaf58a01dcc4de8dec75d7aab85b567b6ccd41ad312451b948a7413f0a142fd40d49347942adc25665018aa1fe0e6bc666dac8fc2697ff9baa091ab3c31188c11db7283db72d107b11194f6f0d624b62d77dbb0d99456e52210a0f27c4744822402d0459a315ab1e14bd205096a58d8be268546b71e567bd82da2a073217647f59f4369482f7f308cfa637670612e388bd8b72f1c87209dd522e3e5b901000000000000000000000000000000000000000000000000000000000000000000000000000000000000000000000000000000000000000000000000000000000000000000000000000000000000000000000000000000000000000000000000000000000000000000000000000000000000000000000000000000000000000000000000000000000000000000000000000000000000000000000000000000000000000000000000000000000000000000000000000000000000000000000000000000000000000000000000000000000000000000000000000000000000000000000000000000000000000000000000000000000000000000000000000000000080018401c9c38083011f358203e800a000000000000000000000000000000000000000000000000000000000000200008800000000000000000aa056e81f171bcc55a6ff8345e692c0f86e5b48e01b996cadc001622fb5e363b4218080a00000000000000000000000000000000000000000000000000000000000000000f882f880800a83029fe0946e143211e9d36eaeebe65f6ed69d6c28500040d680a0000000000000000000000000bb2e6e56806816e94a356b0f0c8e53f98e44d6ad26a0e9c02077c3fb088a2f61513e2890942ca160ff42f30b68591220ba9f3edc7f3aa011dd9d3f50a02efb2d12e790a4a61c860b384a6a553e2ac0ed14529847d759d3c0c0",
                "blocknumber": "1"
            }
        ],
        "sealEngine": "NoProof",
        "_info": {
            "hash": "0xa4782928a41cdf8329f0d2d9f22c9a26d105da3405b75779caa65e1038c1905a",
            "fixture-format": "blockchain_test",
            "comment": "`execution-specs` generated test",
            "filling-transition-tool": "2.19.0",
            "description": "Test_static_callcallcodecallcode_011_ooge_2.",
            "url": "https://github.com/ethereum/execution-specs/blob/tests-snobal-devnet-5@v8037.0.0/tests/ported_static/stStaticCall/test_static_callcallcodecallcode_011_ooge_2.py#L28",
            "metadata": {
                "opcode_count": {}
            }
        }
    },
    "tests/ported_static/stStaticCall/test_static_callcallcodecallcode_011_ooge_2.py::test_static_callcallcodecallcode_011_ooge_2[fork_Cancun-blockchain_test_from_state_test-d1]": {
        "network": "Cancun",
        "genesisBlockHeader": {
            "parentHash": "0x0000000000000000000000000000000000000000000000000000000000000000",
            "uncleHash": "0x1dcc4de8dec75d7aab85b567b6ccd41ad312451b948a7413f0a142fd40d49347",
            "coinbase": "0x0000000000000000000000000000000000000000",
            "stateRoot": "0x40375e0543ee020cf0f62ed38aa9d5fb62ce1eb6b42bae2d7996333f6e96ed1c",
            "transactionsTrie": "0x56e81f171bcc55a6ff8345e692c0f86e5b48e01b996cadc001622fb5e363b421",
            "receiptTrie": "0x56e81f171bcc55a6ff8345e692c0f86e5b48e01b996cadc001622fb5e363b421",
            "bloom": "0x00000000000000000000000000000000000000000000000000000000000000000000000000000000000000000000000000000000000000000000000000000000000000000000000000000000000000000000000000000000000000000000000000000000000000000000000000000000000000000000000000000000000000000000000000000000000000000000000000000000000000000000000000000000000000000000000000000000000000000000000000000000000000000000000000000000000000000000000000000000000000000000000000000000000000000000000000000000000000000000000000000000000000000000000000000000",
            "difficulty": "0x00",
            "number": "0x00",
            "gasLimit": "0x01c9c380",
            "gasUsed": "0x00",
            "timestamp": "0x00",
            "extraData": "0x00",
            "mixHash": "0x0000000000000000000000000000000000000000000000000000000000000000",
            "nonce": "0x0000000000000000",
            "baseFeePerGas": "0x0b",
            "withdrawalsRoot": "0x56e81f171bcc55a6ff8345e692c0f86e5b48e01b996cadc001622fb5e363b421",
            "blobGasUsed": "0x00",
            "excessBlobGas": "0x00",
            "parentBeaconBlockRoot": "0x0000000000000000000000000000000000000000000000000000000000000000",
            "hash": "0x458ec1a107f839eca2125bd33a6337293419b5aaff6fb9a0f13da47052eeaf58"
        },
        "pre": {
            "0x000f3df6d732807ef1319fb7b8bb8522d0beac02": {
                "nonce": "0x01",
                "balance": "0x00",
                "code": "0x3373fffffffffffffffffffffffffffffffffffffffe14604d57602036146024575f5ffd5b5f35801560495762001fff810690815414603c575f5ffd5b62001fff01545f5260205ff35b5f5ffd5b62001fff42064281555f359062001fff015500",
                "storage": {}
            },
            "0xd66f224cbd2fabb21b17bb53c56118f32f62ebd6": {
                "nonce": "0x00",
                "balance": "0x0de0b6b3a7640000",
                "code": "0x",
                "storage": {}
            },
            "0x11a4a9dad43e6ed44e108eaf7fb160f9835068f4": {
                "nonce": "0x00",
                "balance": "0x00",
                "code": "0x600160035260406000604060006000600035620186a0f250600160035200",
                "storage": {}
            },
            "0x335c5531b84765a7626e6e76688f18b81be5259c": {
                "nonce": "0x00",
                "balance": "0x00",
                "code": "0x600160035200",
                "storage": {}
            },
            "0x6e143211e9d36eaeebe65f6ed69d6c28500040d6": {
                "nonce": "0x00",
                "balance": "0x0de0b6b3a7640000",
                "code": "0x60003560005260406000604060007311a4a9dad43e6ed44e108eaf7fb160f9835068f4620249f0fa600055600160015500",
                "storage": {}
            },
            "0xbb2e6e56806816e94a356b0f0c8e53f98e44d6ad": {
                "nonce": "0x00",
                "balance": "0x00",
                "code": "0x600b6003526040600060406000600073335c5531b84765a7626e6e76688f18b81be5259c614e34f2506001600d5200",
                "storage": {}
            },
            "0xf43b4e8b779078758104039080947f8f74e663d3": {
                "nonce": "0x00",
                "balance": "0x00",
                "code": "0x600b6003526040600060406000600173335c5531b84765a7626e6e76688f18b81be5259c614e34f2506001600d5200",
                "storage": {}
            }
        },
        "postState": {
            "0x000f3df6d732807ef1319fb7b8bb8522d0beac02": {
                "nonce": "0x01",
                "balance": "0x00",
                "code": "0x3373fffffffffffffffffffffffffffffffffffffffe14604d57602036146024575f5ffd5b5f35801560495762001fff810690815414603c575f5ffd5b62001fff01545f5260205ff35b5f5ffd5b62001fff42064281555f359062001fff015500",
                "storage": {
                    "0x03e8": "0x03e8"
                }
            },
            "0xd66f224cbd2fabb21b17bb53c56118f32f62ebd6": {
                "nonce": "0x01",
                "balance": "0x0de0b6b3a757c2cc",
                "code": "0x",
                "storage": {}
            },
            "0x11a4a9dad43e6ed44e108eaf7fb160f9835068f4": {
                "nonce": "0x00",
                "balance": "0x00",
                "code": "0x600160035260406000604060006000600035620186a0f250600160035200",
                "storage": {}
            },
            "0x335c5531b84765a7626e6e76688f18b81be5259c": {
                "nonce": "0x00",
                "balance": "0x00",
                "code": "0x600160035200",
                "storage": {}
            },
            "0x6e143211e9d36eaeebe65f6ed69d6c28500040d6": {
                "nonce": "0x00",
                "balance": "0x0de0b6b3a7640000",
                "code": "0x60003560005260406000604060007311a4a9dad43e6ed44e108eaf7fb160f9835068f4620249f0fa600055600160015500",
                "storage": {
                    "0x00": "0x01",
                    "0x01": "0x01"
                }
            },
            "0xbb2e6e56806816e94a356b0f0c8e53f98e44d6ad": {
                "nonce": "0x00",
                "balance": "0x00",
                "code": "0x600b6003526040600060406000600073335c5531b84765a7626e6e76688f18b81be5259c614e34f2506001600d5200",
                "storage": {}
            },
            "0xf43b4e8b779078758104039080947f8f74e663d3": {
                "nonce": "0x00",
                "balance": "0x00",
                "code": "0x600b6003526040600060406000600173335c5531b84765a7626e6e76688f18b81be5259c614e34f2506001600d5200",
                "storage": {}
            }
        },
        "lastblockhash": "0x6b4f5df37925057ae010d6c11497db8f3399d063942ecd7394f865184134b4fb",
        "config": {
            "network": "Cancun",
            "chainid": "0x01",
            "blobSchedule": {
                "Cancun": {
                    "target": "0x03",
                    "max": "0x06",
                    "baseFeeUpdateFraction": "0x32f0ed"
                }
            }
        },
        "genesisRLP": "0xf9023cf90236a00000000000000000000000000000000000000000000000000000000000000000a01dcc4de8dec75d7aab85b567b6ccd41ad312451b948a7413f0a142fd40d49347940000000000000000000000000000000000000000a040375e0543ee020cf0f62ed38aa9d5fb62ce1eb6b42bae2d7996333f6e96ed1ca056e81f171bcc55a6ff8345e692c0f86e5b48e01b996cadc001622fb5e363b421a056e81f171bcc55a6ff8345e692c0f86e5b48e01b996cadc001622fb5e363b421b901000000000000000000000000000000000000000000000000000000000000000000000000000000000000000000000000000000000000000000000000000000000000000000000000000000000000000000000000000000000000000000000000000000000000000000000000000000000000000000000000000000000000000000000000000000000000000000000000000000000000000000000000000000000000000000000000000000000000000000000000000000000000000000000000000000000000000000000000000000000000000000000000000000000000000000000000000000000000000000000000000000000000000000000000000000000080808401c9c380808000a000000000000000000000000000000000000000000000000000000000000000008800000000000000000ba056e81f171bcc55a6ff8345e692c0f86e5b48e01b996cadc001622fb5e363b4218080a00000000000000000000000000000000000000000000000000000000000000000c0c0c0",
        "blocks": [
            {
                "blockHeader": {
                    "parentHash": "0x458ec1a107f839eca2125bd33a6337293419b5aaff6fb9a0f13da47052eeaf58",
                    "uncleHash": "0x1dcc4de8dec75d7aab85b567b6ccd41ad312451b948a7413f0a142fd40d49347",
                    "coinbase": "0x2adc25665018aa1fe0e6bc666dac8fc2697ff9ba",
                    "stateRoot": "0x9c1665ceb20cc03994c3a4efb5aece4d6f27b6cfd66aaa2d97ef03ce034b09fd",
                    "transactionsTrie": "0x9055500b2598c50dfa9525f0e81dbf8343360ad97caf08f40f1fd71938fd25a2",
                    "receiptTrie": "0x24947d09fa327ac79a80fa9655f47c97cdb8d656c55195ae13c99e7e57513589",
                    "bloom": "0x00000000000000000000000000000000000000000000000000000000000000000000000000000000000000000000000000000000000000000000000000000000000000000000000000000000000000000000000000000000000000000000000000000000000000000000000000000000000000000000000000000000000000000000000000000000000000000000000000000000000000000000000000000000000000000000000000000000000000000000000000000000000000000000000000000000000000000000000000000000000000000000000000000000000000000000000000000000000000000000000000000000000000000000000000000000",
                    "difficulty": "0x00",
                    "number": "0x01",
                    "gasLimit": "0x01c9c380",
                    "gasUsed": "0x013952",
                    "timestamp": "0x03e8",
                    "extraData": "0x00",
                    "mixHash": "0x0000000000000000000000000000000000000000000000000000000000020000",
                    "nonce": "0x0000000000000000",
                    "baseFeePerGas": "0x0a",
                    "withdrawalsRoot": "0x56e81f171bcc55a6ff8345e692c0f86e5b48e01b996cadc001622fb5e363b421",
                    "blobGasUsed": "0x00",
                    "excessBlobGas": "0x00",
                    "parentBeaconBlockRoot": "0x0000000000000000000000000000000000000000000000000000000000000000",
                    "hash": "0x6b4f5df37925057ae010d6c11497db8f3399d063942ecd7394f865184134b4fb"
                },
                "transactions": [
                    {
                        "type": "0x00",
                        "chainId": "0x01",
                        "nonce": "0x00",
                        "gasPrice": "0x0a",
                        "gasLimit": "0x029fe0",
                        "to": "0x6e143211e9d36eaeebe65f6ed69d6c28500040d6",
                        "value": "0x00",
                        "data": "0x000000000000000000000000f43b4e8b779078758104039080947f8f74e663d3",
                        "v": "0x25",
                        "r": "0xf5905767570efbcb76804807b2bf86862c1c36763ac5cd54d401495c9ce10012",
                        "s": "0x799043e7ff61ddb395da9eb69f08c523b32c1a98485bd8e51838607da48ba58d",
                        "sender": "0xd66f224cbd2fabb21b17bb53c56118f32f62ebd6"
                    }
                ],
                "uncleHeaders": [],
                "withdrawals": [],
                "receipts": [
                    {
                        "transactionHash": "0xa00fec6d4f71d883e2c9eee5a10ee32d8c0df034d22fe72bb75834c99e7bb77f",
                        "type": "0x00",
                        "cumulativeGasUsed": "0x013952",
                        "bloom": "0x00000000000000000000000000000000000000000000000000000000000000000000000000000000000000000000000000000000000000000000000000000000000000000000000000000000000000000000000000000000000000000000000000000000000000000000000000000000000000000000000000000000000000000000000000000000000000000000000000000000000000000000000000000000000000000000000000000000000000000000000000000000000000000000000000000000000000000000000000000000000000000000000000000000000000000000000000000000000000000000000000000000000000000000000000000000",
                        "logs": [],
                        "status": true,
                        "rlp": "0xf901090183013952b9010000000000000000000000000000000000000000000000000000000000000000000000000000000000000000000000000000000000000000000000000000000000000000000000000000000000000000000000000000000000000000000000000000000000000000000000000000000000000000000000000000000000000000000000000000000000000000000000000000000000000000000000000000000000000000000000000000000000000000000000000000000000000000000000000000000000000000000000000000000000000000000000000000000000000000000000000000000000000000000000000000000000000000000000000000000000c0"
                    }
                ],
                "rlp": "0xf902c4f9023ba0458ec1a107f839eca2125bd33a6337293419b5aaff6fb9a0f13da47052eeaf58a01dcc4de8dec75d7aab85b567b6ccd41ad312451b948a7413f0a142fd40d49347942adc25665018aa1fe0e6bc666dac8fc2697ff9baa09c1665ceb20cc03994c3a4efb5aece4d6f27b6cfd66aaa2d97ef03ce034b09fda09055500b2598c50dfa9525f0e81dbf8343360ad97caf08f40f1fd71938fd25a2a024947d09fa327ac79a80fa9655f47c97cdb8d656c55195ae13c99e7e57513589b901000000000000000000000000000000000000000000000000000000000000000000000000000000000000000000000000000000000000000000000000000000000000000000000000000000000000000000000000000000000000000000000000000000000000000000000000000000000000000000000000000000000000000000000000000000000000000000000000000000000000000000000000000000000000000000000000000000000000000000000000000000000000000000000000000000000000000000000000000000000000000000000000000000000000000000000000000000000000000000000000000000000000000000000000000000000080018401c9c380830139528203e800a000000000000000000000000000000000000000000000000000000000000200008800000000000000000aa056e81f171bcc55a6ff8345e692c0f86e5b48e01b996cadc001622fb5e363b4218080a00000000000000000000000000000000000000000000000000000000000000000f882f880800a83029fe0946e143211e9d36eaeebe65f6ed69d6c28500040d680a0000000000000000000000000f43b4e8b779078758104039080947f8f74e663d325a0f5905767570efbcb76804807b2bf86862c1c36763ac5cd54d401495c9ce10012a0799043e7ff61ddb395da9eb69f08c523b32c1a98485bd8e51838607da48ba58dc0c0",
                "blocknumber": "1"
            }
        ],
        "sealEngine": "NoProof",
        "_info": {
            "hash": "0xb084de588ba78131de5df902378cb3e22d36fc39bd2c10c3c9f8589e77ca4ba0",
            "fixture-format": "blockchain_test",
            "comment": "`execution-specs` generated test",
            "filling-transition-tool": "2.19.0",
            "description": "Test_static_callcallcodecallcode_011_ooge_2.",
            "url": "https://github.com/ethereum/execution-specs/blob/tests-snobal-devnet-5@v8037.0.0/tests/ported_static/stStaticCall/test_static_callcallcodecallcode_011_ooge_2.py#L28",
            "metadata": {
                "opcode_count": {}
            }
        }
    }
}