{
    "tests/ported_static/stStaticCall/test_static_callcallcodecallcode_011_ooge_2.py::test_static_callcallcodecallcode_011_ooge_2[fork_Cancun-blockchain_test_from_state_test-d0]": {
        "network": "Cancun",
        "genesisBlockHeader": {
            "parentHash": "0x0000000000000000000000000000000000000000000000000000000000000000",
            "uncleHash": "0x1dcc4de8dec75d7aab85b567b6ccd41ad312451b948a7413f0a142fd40d49347",
            "coinbase": "0x0000000000000000000000000000000000000000",
            "stateRoot": "0x353295acc3262c0f617ebf70030dbbd346ec1f21a85772afeef3ff291c59a3c5",
            "transactionsTrie": "0x56e81f171bcc55a6ff8345e692c0f86e5b48e01b996cadc001622fb5e363b421",
            "receiptTrie": "0x56e81f171bcc55a6ff8345e692c0f86e5b48e01b996cadc001622fb5e363b421",
            "bloom": "0x00000000000000000000000000000000000000000000000000000000000000000000000000000000000000000000000000000000000000000000000000000000000000000000000000000000000000000000000000000000000000000000000000000000000000000000000000000000000000000000000000000000000000000000000000000000000000000000000000000000000000000000000000000000000000000000000000000000000000000000000000000000000000000000000000000000000000000000000000000000000000000000000000000000000000000000000000000000000000000000000000000000000000000000000000000000",
            "difficulty": "0x00",
            "number": "0x00",
            "gasLimit": "0x01c9c380",
            "gasUsed": "0x00",
            "timestamp": "0x00",
            "extraData": "0x00",
            "mixHash": "0x0000000000000000000000000000000000000000000000000000000000000000",
            "nonce": "0x0000000000000000",
            "baseFeePerGas": "0x0b",
            "withdrawalsRoot": "0x56e81f171bcc55a6ff8345e692c0f86e5b48e01b996cadc001622fb5e363b421",
            "blobGasUsed": "0x00",
            "excessBlobGas": "0x00",
            "parentBeaconBlockRoot": "0x0000000000000000000000000000000000000000000000000000000000000000",
            "hash": "0x54f5527453d7028eb78018acc9662cb1e2a7dd0f24367845dc641838fe6ed2c6"
        },
        "pre": {
            "0x000f3df6d732807ef1319fb7b8bb8522d0beac02": {
                "nonce": "0x01",
                "balance": "0x00",
                "code": "0x3373fffffffffffffffffffffffffffffffffffffffe14604d57602036146024575f5ffd5b5f35801560495762001fff810690815414603c575f5ffd5b62001fff01545f5260205ff35b5f5ffd5b62001fff42064281555f359062001fff015500",
                "storage": {}
            },
            "0x6e143211e9d36eaeebe65f6ed69d6c28500040d6": {
                "nonce": "0x00",
                "balance": "0x0de0b6b3a7640000",
                "code": "0x60003560005260406000604060007311a4a9dad43e6ed44e108eaf7fb160f9835068f4620249f0fa600055600160015500",
                "storage": {}
            },
            "0x11a4a9dad43e6ed44e108eaf7fb160f9835068f4": {
                "nonce": "0x00",
                "balance": "0x00",
                "code": "0x600160035260406000604060006000600035620186a0f250600160035200",
                "storage": {}
            },
            "0xbb2e6e56806816e94a356b0f0c8e53f98e44d6ad": {
                "nonce": "0x00",
                "balance": "0x00",
                "code": "0x600b6003526040600060406000600073335c5531b84765a7626e6e76688f18b81be5259c614e34f2506001600d5200",
                "storage": {}
            },
            "0xf43b4e8b779078758104039080947f8f74e663d3": {
                "nonce": "0x00",
                "balance": "0x00",
                "code": "0x600b6003526040600060406000600173335c5531b84765a7626e6e76688f18b81be5259c614e34f2506001600d5200",
                "storage": {}
            },
            "0x335c5531b84765a7626e6e76688f18b81be5259c": {
                "nonce": "0x00",
                "balance": "0x00",
                "code": "0x600160035200",
                "storage": {}
            },
            "0xebaf50debf10e08302fe4280c32df010463ca297": {
                "nonce": "0x00",
                "balance": "0x0de0b6b3a7640000",
                "code": "0x",
                "storage": {}
            }
        },
        "postState": {
            "0x000f3df6d732807ef1319fb7b8bb8522d0beac02": {
                "nonce": "0x01",
                "balance": "0x00",
                "code": "0x3373fffffffffffffffffffffffffffffffffffffffe14604d57602036146024575f5ffd5b5f35801560495762001fff810690815414603c575f5ffd5b62001fff01545f5260205ff35b5f5ffd5b62001fff42064281555f359062001fff015500",
                "storage": {
                    "0x03e8": "0x03e8"
                }
            },
            "0x6e143211e9d36eaeebe65f6ed69d6c28500040d6": {
                "nonce": "0x00",
                "balance": "0x0de0b6b3a7640000",
                "code": "0x60003560005260406000604060007311a4a9dad43e6ed44e108eaf7fb160f9835068f4620249f0fa600055600160015500",
                "storage": {
                    "0x00": "0x01",
                    "0x01": "0x01"
                }
            },
            "0x11a4a9dad43e6ed44e108eaf7fb160f9835068f4": {
                "nonce": "0x00",
                "balance": "0x00",
                "code": "0x600160035260406000604060006000600035620186a0f250600160035200",
                "storage": {}
            },
            "0xbb2e6e56806816e94a356b0f0c8e53f98e44d6ad": {
                "nonce": "0x00",
                "balance": "0x00",
                "code": "0x600b6003526040600060406000600073335c5531b84765a7626e6e76688f18b81be5259c614e34f2506001600d5200",
                "storage": {}
            },
            "0xf43b4e8b779078758104039080947f8f74e663d3": {
                "nonce": "0x00",
                "balance": "0x00",
                "code": "0x600b6003526040600060406000600173335c5531b84765a7626e6e76688f18b81be5259c614e34f2506001600d5200",
                "storage": {}
            },
            "0x335c5531b84765a7626e6e76688f18b81be5259c": {
                "nonce": "0x00",
                "balance": "0x00",
                "code": "0x600160035200",
                "storage": {}
            },
            "0xebaf50debf10e08302fe4280c32df010463ca297": {
                "nonce": "0x01",
                "balance": "0x0de0b6b3a758c7ee",
                "code": "0x",
                "storage": {}
            }
        },
        "lastblockhash": "0x92ca7766eb32034fb4d4b36ab4884f8155ea280876de8ff378e74992c13154a5",
        "config": {
            "network": "Cancun",
            "chainid": "0x01",
            "blobSchedule": {
                "Cancun": {
                    "target": "0x03",
                    "max": "0x06",
                    "baseFeeUpdateFraction": "0x32f0ed"
                }
            }
        },
        "genesisRLP": "0xf9023cf90236a00000000000000000000000000000000000000000000000000000000000000000a01dcc4de8dec75d7aab85b567b6ccd41ad312451b948a7413f0a142fd40d49347940000000000000000000000000000000000000000a0353295acc3262c0f617ebf70030dbbd346ec1f21a85772afeef3ff291c59a3c5a056e81f171bcc55a6ff8345e692c0f86e5b48e01b996cadc001622fb5e363b421a056e81f171bcc55a6ff8345e692c0f86e5b48e01b996cadc001622fb5e363b421b901000000000000000000000000000000000000000000000000000000000000000000000000000000000000000000000000000000000000000000000000000000000000000000000000000000000000000000000000000000000000000000000000000000000000000000000000000000000000000000000000000000000000000000000000000000000000000000000000000000000000000000000000000000000000000000000000000000000000000000000000000000000000000000000000000000000000000000000000000000000000000000000000000000000000000000000000000000000000000000000000000000000000000000000000000000000080808401c9c380808000a000000000000000000000000000000000000000000000000000000000000000008800000000000000000ba056e81f171bcc55a6ff8345e692c0f86e5b48e01b996cadc001622fb5e363b4218080a00000000000000000000000000000000000000000000000000000000000000000c0c0c0",
        "blocks": [
            {
                "blockHeader": {
                    "parentHash": "0x54f5527453d7028eb78018acc9662cb1e2a7dd0f24367845dc641838fe6ed2c6",
                    "uncleHash": "0x1dcc4de8dec75d7aab85b567b6ccd41ad312451b948a7413f0a142fd40d49347",
                    "coinbase": "0x2adc25665018aa1fe0e6bc666dac8fc2697ff9ba",
                    "stateRoot": "0x523c52aba4d1e3494ae97475c9b22a127d845077abe28fbce7fe06758039d44b",
                    "transactionsTrie": "0x1bd7e571f6952254625871fc84af8ce82f7e38d8416ce976e41f9897baab2e61",
                    "receiptTrie": "0x73217647f59f4369482f7f308cfa637670612e388bd8b72f1c87209dd522e3e5",
                    "bloom": "0x00000000000000000000000000000000000000000000000000000000000000000000000000000000000000000000000000000000000000000000000000000000000000000000000000000000000000000000000000000000000000000000000000000000000000000000000000000000000000000000000000000000000000000000000000000000000000000000000000000000000000000000000000000000000000000000000000000000000000000000000000000000000000000000000000000000000000000000000000000000000000000000000000000000000000000000000000000000000000000000000000000000000000000000000000000000",
                    "difficulty": "0x00",
                    "number": "0x01",
                    "gasLimit": "0x01c9c380",
                    "gasUsed": "0x011f35",
                    "timestamp": "0x03e8",
                    "extraData": "0x00",
                    "mixHash": "0x0000000000000000000000000000000000000000000000000000000000020000",
                    "nonce": "0x0000000000000000",
                    "baseFeePerGas": "0x0a",
                    "withdrawalsRoot": "0x56e81f171bcc55a6ff8345e692c0f86e5b48e01b996cadc001622fb5e363b421",
                    "blobGasUsed": "0x00",
                    "excessBlobGas": "0x00",
                    "parentBeaconBlockRoot": "0x0000000000000000000000000000000000000000000000000000000000000000",
                    "hash": "0x92ca7766eb32034fb4d4b36ab4884f8155ea280876de8ff378e74992c13154a5"
                },
                "transactions": [
                    {
                        "type": "0x00",
                        "chainId": "0x01",
                        "nonce": "0x00",
                        "gasPrice": "0x0a",
                        "gasLimit": "0x029fe0",
                        "to": "0x6e143211e9d36eaeebe65f6ed69d6c28500040d6",
                        "value": "0x00",
                        "data": "0x000000000000000000000000bb2e6e56806816e94a356b0f0c8e53f98e44d6ad",
                        "v": "0x26",
                        "r": "0x9f67a94419a4f34915bc3259ef36b22523d6faf4b6798383159ba087ca48272e",
                        "s": "0x447a07f7490f30243a92e4019fdbe63772ed9fc3cceaf31cc3190dca52f740ae",
                        "sender": "0xebaf50debf10e08302fe4280c32df010463ca297"
                    }
                ],
                "uncleHeaders": [],
                "withdrawals": [],
                "receipts": [
                    {
                        "transactionHash": "0xdf106d6bf90808224d2fe8a0c57bf8962352255047a54eaa56acb7129b4e1c1b",
                        "type": "0x00",
                        "cumulativeGasUsed": "0x011f35",
                        "bloom": "0x00000000000000000000000000000000000000000000000000000000000000000000000000000000000000000000000000000000000000000000000000000000000000000000000000000000000000000000000000000000000000000000000000000000000000000000000000000000000000000000000000000000000000000000000000000000000000000000000000000000000000000000000000000000000000000000000000000000000000000000000000000000000000000000000000000000000000000000000000000000000000000000000000000000000000000000000000000000000000000000000000000000000000000000000000000000",
                        "logs": [],
                        "status": true,
                        "rlp": "0xf901090183011f35b9010000000000000000000000000000000000000000000000000000000000000000000000000000000000000000000000000000000000000000000000000000000000000000000000000000000000000000000000000000000000000000000000000000000000000000000000000000000000000000000000000000000000000000000000000000000000000000000000000000000000000000000000000000000000000000000000000000000000000000000000000000000000000000000000000000000000000000000000000000000000000000000000000000000000000000000000000000000000000000000000000000000000000000000000000000000000c0"
                    }
                ],
                "rlp": "0xf902c4f9023ba054f5527453d7028eb78018acc9662cb1e2a7dd0f24367845dc641838fe6ed2c6a01dcc4de8dec75d7aab85b567b6ccd41ad312451b948a7413f0a142fd40d49347942adc25665018aa1fe0e6bc666dac8fc2697ff9baa0523c52aba4d1e3494ae97475c9b22a127d845077abe28fbce7fe06758039d44ba01bd7e571f6952254625871fc84af8ce82f7e38d8416ce976e41f9897baab2e61a073217647f59f4369482f7f308cfa637670612e388bd8b72f1c87209dd522e3e5b901000000000000000000000000000000000000000000000000000000000000000000000000000000000000000000000000000000000000000000000000000000000000000000000000000000000000000000000000000000000000000000000000000000000000000000000000000000000000000000000000000000000000000000000000000000000000000000000000000000000000000000000000000000000000000000000000000000000000000000000000000000000000000000000000000000000000000000000000000000000000000000000000000000000000000000000000000000000000000000000000000000000000000000000000000000000080018401c9c38083011f358203e800a000000000000000000000000000000000000000000000000000000000000200008800000000000000000aa056e81f171bcc55a6ff8345e692c0f86e5b48e01b996cadc001622fb5e363b4218080a00000000000000000000000000000000000000000000000000000000000000000f882f880800a83029fe0946e143211e9d36eaeebe65f6ed69d6c28500040d680a0000000000000000000000000bb2e6e56806816e94a356b0f0c8e53f98e44d6ad26a09f67a94419a4f34915bc3259ef36b22523d6faf4b6798383159ba087ca48272ea0447a07f7490f30243a92e4019fdbe63772ed9fc3cceaf31cc3190dca52f740aec0c0",
                "blocknumber": "1"
            }
        ],
        "sealEngine": "NoProof",
        "_info": {
            "hash": "0x639fda433912210ebcb7af2e55b0a37f02ea4e72f55c3b27b8906b4a805ec426",
            "fixture-format": "blockchain_test",
            "comment": "`execution-specs` generated test",
            "filling-transition-tool": "2.19.0",
            "description": "Test_static_callcallcodecallcode_011_ooge_2.",
            "url": "https://github.com/ethereum/execution-specs/blob/tests-bal@v5.6.0/tests/ported_static/stStaticCall/test_static_callcallcodecallcode_011_ooge_2.py#L29",
            "metadata": {
                "opcode_count": {}
            }
        }
    },
    "tests/ported_static/stStaticCall/test_static_callcallcodecallcode_011_ooge_2.py::test_static_callcallcodecallcode_011_ooge_2[fork_Cancun-blockchain_test_from_state_test-d1]": {
        "network": "Cancun",
        "genesisBlockHeader": {
            "parentHash": "0x0000000000000000000000000000000000000000000000000000000000000000",
            "uncleHash": "0x1dcc4de8dec75d7aab85b567b6ccd41ad312451b948a7413f0a142fd40d49347",
            "coinbase": "0x0000000000000000000000000000000000000000",
            "stateRoot": "0x353295acc3262c0f617ebf70030dbbd346ec1f21a85772afeef3ff291c59a3c5",
            "transactionsTrie": "0x56e81f171bcc55a6ff8345e692c0f86e5b48e01b996cadc001622fb5e363b421",
            "receiptTrie": "0x56e81f171bcc55a6ff8345e692c0f86e5b48e01b996cadc001622fb5e363b421",
            "bloom": "0x00000000000000000000000000000000000000000000000000000000000000000000000000000000000000000000000000000000000000000000000000000000000000000000000000000000000000000000000000000000000000000000000000000000000000000000000000000000000000000000000000000000000000000000000000000000000000000000000000000000000000000000000000000000000000000000000000000000000000000000000000000000000000000000000000000000000000000000000000000000000000000000000000000000000000000000000000000000000000000000000000000000000000000000000000000000",
            "difficulty": "0x00",
            "number": "0x00",
            "gasLimit": "0x01c9c380",
            "gasUsed": "0x00",
            "timestamp": "0x00",
            "extraData": "0x00",
            "mixHash": "0x0000000000000000000000000000000000000000000000000000000000000000",
            "nonce": "0x0000000000000000",
            "baseFeePerGas": "0x0b",
            "withdrawalsRoot": "0x56e81f171bcc55a6ff8345e692c0f86e5b48e01b996cadc001622fb5e363b421",
            "blobGasUsed": "0x00",
            "excessBlobGas": "0x00",
            "parentBeaconBlockRoot": "0x0000000000000000000000000000000000000000000000000000000000000000",
            "hash": "0x54f5527453d7028eb78018acc9662cb1e2a7dd0f24367845dc641838fe6ed2c6"
        },
        "pre": {
            "0x000f3df6d732807ef1319fb7b8bb8522d0beac02": {
                "nonce": "0x01",
                "balance": "0x00",
                "code": "0x3373fffffffffffffffffffffffffffffffffffffffe14604d57602036146024575f5ffd5b5f35801560495762001fff810690815414603c575f5ffd5b62001fff01545f5260205ff35b5f5ffd5b62001fff42064281555f359062001fff015500",
                "storage": {}
            },
            "0x6e143211e9d36eaeebe65f6ed69d6c28500040d6": {
                "nonce": "0x00",
                "balance": "0x0de0b6b3a7640000",
                "code": "0x60003560005260406000604060007311a4a9dad43e6ed44e108eaf7fb160f9835068f4620249f0fa600055600160015500",
                "storage": {}
            },
            "0x11a4a9dad43e6ed44e108eaf7fb160f9835068f4": {
                "nonce": "0x00",
                "balance": "0x00",
                "code": "0x600160035260406000604060006000600035620186a0f250600160035200",
                "storage": {}
            },
            "0xbb2e6e56806816e94a356b0f0c8e53f98e44d6ad": {
                "nonce": "0x00",
                "balance": "0x00",
                "code": "0x600b6003526040600060406000600073335c5531b84765a7626e6e76688f18b81be5259c614e34f2506001600d5200",
                "storage": {}
            },
            "0xf43b4e8b779078758104039080947f8f74e663d3": {
                "nonce": "0x00",
                "balance": "0x00",
                "code": "0x600b6003526040600060406000600173335c5531b84765a7626e6e76688f18b81be5259c614e34f2506001600d5200",
                "storage": {}
            },
            "0x335c5531b84765a7626e6e76688f18b81be5259c": {
                "nonce": "0x00",
                "balance": "0x00",
                "code": "0x600160035200",
                "storage": {}
            },
            "0xebaf50debf10e08302fe4280c32df010463ca297": {
                "nonce": "0x00",
                "balance": "0x0de0b6b3a7640000",
                "code": "0x",
                "storage": {}
            }
        },
        "postState": {
            "0x000f3df6d732807ef1319fb7b8bb8522d0beac02": {
                "nonce": "0x01",
                "balance": "0x00",
                "code": "0x3373fffffffffffffffffffffffffffffffffffffffe14604d57602036146024575f5ffd5b5f35801560495762001fff810690815414603c575f5ffd5b62001fff01545f5260205ff35b5f5ffd5b62001fff42064281555f359062001fff015500",
                "storage": {
                    "0x03e8": "0x03e8"
                }
            },
            "0x6e143211e9d36eaeebe65f6ed69d6c28500040d6": {
                "nonce": "0x00",
                "balance": "0x0de0b6b3a7640000",
                "code": "0x60003560005260406000604060007311a4a9dad43e6ed44e108eaf7fb160f9835068f4620249f0fa600055600160015500",
                "storage": {
                    "0x00": "0x01",
                    "0x01": "0x01"
                }
            },
            "0x11a4a9dad43e6ed44e108eaf7fb160f9835068f4": {
                "nonce": "0x00",
                "balance": "0x00",
                "code": "0x600160035260406000604060006000600035620186a0f250600160035200",
                "storage": {}
            },
            "0xbb2e6e56806816e94a356b0f0c8e53f98e44d6ad": {
                "nonce": "0x00",
                "balance": "0x00",
                "code": "0x600b6003526040600060406000600073335c5531b84765a7626e6e76688f18b81be5259c614e34f2506001600d5200",
                "storage": {}
            },
            "0xf43b4e8b779078758104039080947f8f74e663d3": {
                "nonce": "0x00",
                "balance": "0x00",
                "code": "0x600b6003526040600060406000600173335c5531b84765a7626e6e76688f18b81be5259c614e34f2506001600d5200",
                "storage": {}
            },
            "0x335c5531b84765a7626e6e76688f18b81be5259c": {
                "nonce": "0x00",
                "balance": "0x00",
                "code": "0x600160035200",
                "storage": {}
            },
            "0xebaf50debf10e08302fe4280c32df010463ca297": {
                "nonce": "0x01",
                "balance": "0x0de0b6b3a757c2cc",
                "code": "0x",
                "storage": {}
            }
        },
        "lastblockhash": "0xf41537c1145e8242a5ca5d902d30e5a6b72b7c908a04855492bd7e46040f6710",
        "config": {
            "network": "Cancun",
            "chainid": "0x01",
            "blobSchedule": {
                "Cancun": {
                    "target": "0x03",
                    "max": "0x06",
                    "baseFeeUpdateFraction": "0x32f0ed"
                }
            }
        },
        "genesisRLP": "0xf9023cf90236a00000000000000000000000000000000000000000000000000000000000000000a01dcc4de8dec75d7aab85b567b6ccd41ad312451b948a7413f0a142fd40d49347940000000000000000000000000000000000000000a0353295acc3262c0f617ebf70030dbbd346ec1f21a85772afeef3ff291c59a3c5a056e81f171bcc55a6ff8345e692c0f86e5b48e01b996cadc001622fb5e363b421a056e81f171bcc55a6ff8345e692c0f86e5b48e01b996cadc001622fb5e363b421b901000000000000000000000000000000000000000000000000000000000000000000000000000000000000000000000000000000000000000000000000000000000000000000000000000000000000000000000000000000000000000000000000000000000000000000000000000000000000000000000000000000000000000000000000000000000000000000000000000000000000000000000000000000000000000000000000000000000000000000000000000000000000000000000000000000000000000000000000000000000000000000000000000000000000000000000000000000000000000000000000000000000000000000000000000000000080808401c9c380808000a000000000000000000000000000000000000000000000000000000000000000008800000000000000000ba056e81f171bcc55a6ff8345e692c0f86e5b48e01b996cadc001622fb5e363b4218080a00000000000000000000000000000000000000000000000000000000000000000c0c0c0",
        "blocks": [
            {
                "blockHeader": {
                    "parentHash": "0x54f5527453d7028eb78018acc9662cb1e2a7dd0f24367845dc641838fe6ed2c6",
                    "uncleHash": "0x1dcc4de8dec75d7aab85b567b6ccd41ad312451b948a7413f0a142fd40d49347",
                    "coinbase": "0x2adc25665018aa1fe0e6bc666dac8fc2697ff9ba",
                    "stateRoot": "0x1a95b0e21cf07a1f04d44aa40499d6271b8f47dd4244f7b97e2544cf84d8f170",
                    "transactionsTrie": "0xcdc22fc59f8593fea3a7ce8945accbaa7bc97caf191460e4c9d04fda8bdc2178",
                    "receiptTrie": "0x24947d09fa327ac79a80fa9655f47c97cdb8d656c55195ae13c99e7e57513589",
                    "bloom": "0x00000000000000000000000000000000000000000000000000000000000000000000000000000000000000000000000000000000000000000000000000000000000000000000000000000000000000000000000000000000000000000000000000000000000000000000000000000000000000000000000000000000000000000000000000000000000000000000000000000000000000000000000000000000000000000000000000000000000000000000000000000000000000000000000000000000000000000000000000000000000000000000000000000000000000000000000000000000000000000000000000000000000000000000000000000000",
                    "difficulty": "0x00",
                    "number": "0x01",
                    "gasLimit": "0x01c9c380",
                    "gasUsed": "0x013952",
                    "timestamp": "0x03e8",
                    "extraData": "0x00",
                    "mixHash": "0x0000000000000000000000000000000000000000000000000000000000020000",
                    "nonce": "0x0000000000000000",
                    "baseFeePerGas": "0x0a",
                    "withdrawalsRoot": "0x56e81f171bcc55a6ff8345e692c0f86e5b48e01b996cadc001622fb5e363b421",
                    "blobGasUsed": "0x00",
                    "excessBlobGas": "0x00",
                    "parentBeaconBlockRoot": "0x0000000000000000000000000000000000000000000000000000000000000000",
                    "hash": "0xf41537c1145e8242a5ca5d902d30e5a6b72b7c908a04855492bd7e46040f6710"
                },
                "transactions": [
                    {
                        "type": "0x00",
                        "chainId": "0x01",
                        "nonce": "0x00",
                        "gasPrice": "0x0a",
                        "gasLimit": "0x029fe0",
                        "to": "0x6e143211e9d36eaeebe65f6ed69d6c28500040d6",
                        "value": "0x00",
                        "data": "0x000000000000000000000000f43b4e8b779078758104039080947f8f74e663d3",
                        "v": "0x26",
                        "r": "0x86dd290d14a016d3f328b527275063bef976df1eddd73008b7eab319ee3ccd49",
                        "s": "0x0505bb3b0f579ff4b57fd73db26d3c68e7b803d372ba5fafe0249c08521df545",
                        "sender": "0xebaf50debf10e08302fe4280c32df010463ca297"
                    }
                ],
                "uncleHeaders": [],
                "withdrawals": [],
                "receipts": [
                    {
                        "transactionHash": "0xea27e0577cebcd4c04cee57b57990730d816b981d449055adba9328b8e1bb171",
                        "type": "0x00",
                        "cumulativeGasUsed": "0x013952",
                        "bloom": "0x00000000000000000000000000000000000000000000000000000000000000000000000000000000000000000000000000000000000000000000000000000000000000000000000000000000000000000000000000000000000000000000000000000000000000000000000000000000000000000000000000000000000000000000000000000000000000000000000000000000000000000000000000000000000000000000000000000000000000000000000000000000000000000000000000000000000000000000000000000000000000000000000000000000000000000000000000000000000000000000000000000000000000000000000000000000",
                        "logs": [],
                        "status": true,
                        "rlp": "0xf901090183013952b9010000000000000000000000000000000000000000000000000000000000000000000000000000000000000000000000000000000000000000000000000000000000000000000000000000000000000000000000000000000000000000000000000000000000000000000000000000000000000000000000000000000000000000000000000000000000000000000000000000000000000000000000000000000000000000000000000000000000000000000000000000000000000000000000000000000000000000000000000000000000000000000000000000000000000000000000000000000000000000000000000000000000000000000000000000000000c0"
                    }
                ],
                "rlp": "0xf902c4f9023ba054f5527453d7028eb78018acc9662cb1e2a7dd0f24367845dc641838fe6ed2c6a01dcc4de8dec75d7aab85b567b6ccd41ad312451b948a7413f0a142fd40d49347942adc25665018aa1fe0e6bc666dac8fc2697ff9baa01a95b0e21cf07a1f04d44aa40499d6271b8f47dd4244f7b97e2544cf84d8f170a0cdc22fc59f8593fea3a7ce8945accbaa7bc97caf191460e4c9d04fda8bdc2178a024947d09fa327ac79a80fa9655f47c97cdb8d656c55195ae13c99e7e57513589b901000000000000000000000000000000000000000000000000000000000000000000000000000000000000000000000000000000000000000000000000000000000000000000000000000000000000000000000000000000000000000000000000000000000000000000000000000000000000000000000000000000000000000000000000000000000000000000000000000000000000000000000000000000000000000000000000000000000000000000000000000000000000000000000000000000000000000000000000000000000000000000000000000000000000000000000000000000000000000000000000000000000000000000000000000000000080018401c9c380830139528203e800a000000000000000000000000000000000000000000000000000000000000200008800000000000000000aa056e81f171bcc55a6ff8345e692c0f86e5b48e01b996cadc001622fb5e363b4218080a00000000000000000000000000000000000000000000000000000000000000000f882f880800a83029fe0946e143211e9d36eaeebe65f6ed69d6c28500040d680a0000000000000000000000000f43b4e8b779078758104039080947f8f74e663d326a086dd290d14a016d3f328b527275063bef976df1eddd73008b7eab319ee3ccd49a00505bb3b0f579ff4b57fd73db26d3c68e7b803d372ba5fafe0249c08521df545c0c0",
                "blocknumber": "1"
            }
        ],
        "sealEngine": "NoProof",
        "_info": {
            "hash": "0x9ed68da2cd35b1cab2758ec269f189ff643cb4c25e2c33598f4c942cad685fb3",
            "fixture-format": "blockchain_test",
            "comment": "`execution-specs` generated test",
            "filling-transition-tool": "2.19.0",
            "description": "Test_static_callcallcodecallcode_011_ooge_2.",
            "url": "https://github.com/ethereum/execution-specs/blob/tests-bal@v5.6.0/tests/ported_static/stStaticCall/test_static_callcallcodecallcode_011_ooge_2.py#L29",
            "metadata": {
                "opcode_count": {}
            }
        }
    }
}