{
    "tests/constantinople/eip1052_extcodehash/test_extcodehash.py::test_extcodehash_via_call[fork_ConstantinopleFix-blockchain_test_from_state_test-opcode_CALLCODE]": {
        "network": "ConstantinopleFix",
        "genesisBlockHeader": {
            "parentHash": "0x0000000000000000000000000000000000000000000000000000000000000000",
            "uncleHash": "0x1dcc4de8dec75d7aab85b567b6ccd41ad312451b948a7413f0a142fd40d49347",
            "coinbase": "0x0000000000000000000000000000000000000000",
            "stateRoot": "0xf4d49b9a7fffaa8d458a8188f0d99d9eec459ec4c46b7ea633f19ac097474728",
            "transactionsTrie": "0x56e81f171bcc55a6ff8345e692c0f86e5b48e01b996cadc001622fb5e363b421",
            "receiptTrie": "0x56e81f171bcc55a6ff8345e692c0f86e5b48e01b996cadc001622fb5e363b421",
            "bloom": "0x00000000000000000000000000000000000000000000000000000000000000000000000000000000000000000000000000000000000000000000000000000000000000000000000000000000000000000000000000000000000000000000000000000000000000000000000000000000000000000000000000000000000000000000000000000000000000000000000000000000000000000000000000000000000000000000000000000000000000000000000000000000000000000000000000000000000000000000000000000000000000000000000000000000000000000000000000000000000000000000000000000000000000000000000000000000",
            "difficulty": "0x020000",
            "number": "0x00",
            "gasLimit": "0x07270e00",
            "gasUsed": "0x00",
            "timestamp": "0x00",
            "extraData": "0x00",
            "mixHash": "0x0000000000000000000000000000000000000000000000000000000000000000",
            "nonce": "0x0000000000000000",
            "hash": "0xeffc40b7a4ddf29381d32c1f8e3f295aa90aed98a8317350afa32d8ba61da3e0"
        },
        "pre": {
            "0xa743b0fd5c4186098bfb6e2302ddb5a6f48c1a9f": {
                "nonce": "0x01",
                "balance": "0x00",
                "code": "0x1234",
                "storage": {}
            },
            "0x3eced02499f6f40d0c87b38faf5f14583b488e09": {
                "nonce": "0x01",
                "balance": "0x00",
                "code": "0x73a743b0fd5c4186098bfb6e2302ddb5a6f48c1a9f3f60005273a743b0fd5c4186098bfb6e2302ddb5a6f48c1a9f3b60205260406000f3",
                "storage": {}
            },
            "0xa5db8f2556eac8e1dc1969d790fba6a4c96b78be": {
                "nonce": "0x01",
                "balance": "0x00",
                "code": "0x60006000600060006000733eced02499f6f40d0c87b38faf5f14583b488e09620249f0f26040600060003e600051600055602051600155",
                "storage": {}
            },
            "0x1ad9bc24818784172ff393bb6f89f094d4d2ca29": {
                "nonce": "0x00",
                "balance": "0x3635c9adc5dea00000",
                "code": "0x",
                "storage": {}
            }
        },
        "postState": {
            "0xa743b0fd5c4186098bfb6e2302ddb5a6f48c1a9f": {
                "nonce": "0x01",
                "balance": "0x00",
                "code": "0x1234",
                "storage": {}
            },
            "0x3eced02499f6f40d0c87b38faf5f14583b488e09": {
                "nonce": "0x01",
                "balance": "0x00",
                "code": "0x73a743b0fd5c4186098bfb6e2302ddb5a6f48c1a9f3f60005273a743b0fd5c4186098bfb6e2302ddb5a6f48c1a9f3b60205260406000f3",
                "storage": {}
            },
            "0xa5db8f2556eac8e1dc1969d790fba6a4c96b78be": {
                "nonce": "0x01",
                "balance": "0x00",
                "code": "0x60006000600060006000733eced02499f6f40d0c87b38faf5f14583b488e09620249f0f26040600060003e600051600055602051600155",
                "storage": {
                    "0x00": "0x56570de287d73cd1cb6092bb8fdee6173974955fdef345ae579ee9f475ea7432",
                    "0x01": "0x02"
                }
            },
            "0x1ad9bc24818784172ff393bb6f89f094d4d2ca29": {
                "nonce": "0x01",
                "balance": "0x3635c9adc5de96673e",
                "code": "0x",
                "storage": {}
            },
            "0x2adc25665018aa1fe0e6bc666dac8fc2697ff9ba": {
                "nonce": "0x00",
                "balance": "0x1bc16d674ed198c2",
                "code": "0x",
                "storage": {}
            }
        },
        "lastblockhash": "0x694ffe0b66351ecfcaaa93c2d38c442499691559908e51dcf7a298c2117d1514",
        "config": {
            "network": "ConstantinopleFix",
            "chainid": "0x01"
        },
        "genesisRLP": "0xf901f9f901f4a00000000000000000000000000000000000000000000000000000000000000000a01dcc4de8dec75d7aab85b567b6ccd41ad312451b948a7413f0a142fd40d49347940000000000000000000000000000000000000000a0f4d49b9a7fffaa8d458a8188f0d99d9eec459ec4c46b7ea633f19ac097474728a056e81f171bcc55a6ff8345e692c0f86e5b48e01b996cadc001622fb5e363b421a056e81f171bcc55a6ff8345e692c0f86e5b48e01b996cadc001622fb5e363b421b901000000000000000000000000000000000000000000000000000000000000000000000000000000000000000000000000000000000000000000000000000000000000000000000000000000000000000000000000000000000000000000000000000000000000000000000000000000000000000000000000000000000000000000000000000000000000000000000000000000000000000000000000000000000000000000000000000000000000000000000000000000000000000000000000000000000000000000000000000000000000000000000000000000000000000000000000000000000000000000000000000000000000000000000000000000000083020000808407270e00808000a00000000000000000000000000000000000000000000000000000000000000000880000000000000000c0c0",
        "blocks": [
            {
                "blockHeader": {
                    "parentHash": "0xeffc40b7a4ddf29381d32c1f8e3f295aa90aed98a8317350afa32d8ba61da3e0",
                    "uncleHash": "0x1dcc4de8dec75d7aab85b567b6ccd41ad312451b948a7413f0a142fd40d49347",
                    "coinbase": "0x2adc25665018aa1fe0e6bc666dac8fc2697ff9ba",
                    "stateRoot": "0xbcca2ec7806236468f54e07d9895a0fc81cb713abecf0df88fd0f10a4b7fab1b",
                    "transactionsTrie": "0x2f3331097cb21a448e58f62642bae8d4cf07166d63e6f1179855e95536b20f13",
                    "receiptTrie": "0x7f31c8667d10f966dcafdcd0add7c24d7abfe7b116b3e157aecbc4840471a4be",
                    "bloom": "0x00000000000000000000000000000000000000000000000000000000000000000000000000000000000000000000000000000000000000000000000000000000000000000000000000000000000000000000000000000000000000000000000000000000000000000000000000000000000000000000000000000000000000000000000000000000000000000000000000000000000000000000000000000000000000000000000000000000000000000000000000000000000000000000000000000000000000000000000000000000000000000000000000000000000000000000000000000000000000000000000000000000000000000000000000000000",
                    "difficulty": "0x020000",
                    "number": "0x01",
                    "gasLimit": "0x07270e00",
                    "gasUsed": "0xf5ad",
                    "timestamp": "0x03e8",
                    "extraData": "0x00",
                    "mixHash": "0x0000000000000000000000000000000000000000000000000000000000000000",
                    "nonce": "0x0000000000000000",
                    "hash": "0x694ffe0b66351ecfcaaa93c2d38c442499691559908e51dcf7a298c2117d1514"
                },
                "transactions": [
                    {
                        "type": "0x00",
                        "chainId": "0x01",
                        "nonce": "0x00",
                        "gasPrice": "0x0a",
                        "gasLimit": "0x0f4240",
                        "to": "0xa5db8f2556eac8e1dc1969d790fba6a4c96b78be",
                        "value": "0x00",
                        "data": "0x",
                        "v": "0x26",
                        "r": "0xcfdc3d4028dcc83528b2883da4eead1e03c7b41b7c47ffa1e756419aa2ece557",
                        "s": "0x67acfdfb67df749d7c202c014f9e47c95cbc0680114cc6253210e08c54ddddb7",
                        "sender": "0x1ad9bc24818784172ff393bb6f89f094d4d2ca29"
                    }
                ],
                "uncleHeaders": [],
                "receipts": [
                    {
                        "transactionHash": "0x160b12b6fdb2b838a4f72f56adfd46b87a671bebfa5212c13af0662e539204d9",
                        "type": "0x00",
                        "cumulativeGasUsed": "0xf5ad",
                        "bloom": "0x00000000000000000000000000000000000000000000000000000000000000000000000000000000000000000000000000000000000000000000000000000000000000000000000000000000000000000000000000000000000000000000000000000000000000000000000000000000000000000000000000000000000000000000000000000000000000000000000000000000000000000000000000000000000000000000000000000000000000000000000000000000000000000000000000000000000000000000000000000000000000000000000000000000000000000000000000000000000000000000000000000000000000000000000000000000",
                        "logs": [],
                        "status": true,
                        "rlp": "0xf901080182f5adb9010000000000000000000000000000000000000000000000000000000000000000000000000000000000000000000000000000000000000000000000000000000000000000000000000000000000000000000000000000000000000000000000000000000000000000000000000000000000000000000000000000000000000000000000000000000000000000000000000000000000000000000000000000000000000000000000000000000000000000000000000000000000000000000000000000000000000000000000000000000000000000000000000000000000000000000000000000000000000000000000000000000000000000000000000000000000c0"
                    }
                ],
                "rlp": "0xf90260f901f8a0effc40b7a4ddf29381d32c1f8e3f295aa90aed98a8317350afa32d8ba61da3e0a01dcc4de8dec75d7aab85b567b6ccd41ad312451b948a7413f0a142fd40d49347942adc25665018aa1fe0e6bc666dac8fc2697ff9baa0bcca2ec7806236468f54e07d9895a0fc81cb713abecf0df88fd0f10a4b7fab1ba02f3331097cb21a448e58f62642bae8d4cf07166d63e6f1179855e95536b20f13a07f31c8667d10f966dcafdcd0add7c24d7abfe7b116b3e157aecbc4840471a4beb901000000000000000000000000000000000000000000000000000000000000000000000000000000000000000000000000000000000000000000000000000000000000000000000000000000000000000000000000000000000000000000000000000000000000000000000000000000000000000000000000000000000000000000000000000000000000000000000000000000000000000000000000000000000000000000000000000000000000000000000000000000000000000000000000000000000000000000000000000000000000000000000000000000000000000000000000000000000000000000000000000000000000000000000000000000000083020000018407270e0082f5ad8203e800a00000000000000000000000000000000000000000000000000000000000000000880000000000000000f862f860800a830f424094a5db8f2556eac8e1dc1969d790fba6a4c96b78be808026a0cfdc3d4028dcc83528b2883da4eead1e03c7b41b7c47ffa1e756419aa2ece557a067acfdfb67df749d7c202c014f9e47c95cbc0680114cc6253210e08c54ddddb7c0",
                "blocknumber": "1"
            }
        ],
        "sealEngine": "NoProof",
        "_info": {
            "hash": "0x6c1c3074a280b4b345e83077de23eb56abe5deb1d78a026496e4083eb7325980",
            "fixture-format": "blockchain_test",
            "comment": "`execution-specs` generated test",
            "filling-transition-tool": "2.19.0",
            "description": "Test EXTCODEHASH/EXTCODESIZE queried via different call types.\n\nA helper contract computes EXTCODEHASH and EXTCODESIZE of a target\nand returns them. The caller invokes the helper using the\nparametrized call type and stores the results.",
            "url": "https://github.com/ethereum/execution-specs/blob/tests-bal@v5.6.0/tests/constantinople/eip1052_extcodehash/test_extcodehash.py#L676",
            "metadata": {
                "opcode_count": {}
            },
            "reference-spec": "https://github.com/ethereum/EIPs/blob/master/EIPS/eip-1052.md",
            "reference-spec-version": "2dcbc7ce1563e9624e137e9d447374600af876fa"
        }
    },
    "tests/constantinople/eip1052_extcodehash/test_extcodehash.py::test_extcodehash_via_call[fork_ConstantinopleFix-blockchain_test_from_state_test-opcode_CALL]": {
        "network": "ConstantinopleFix",
        "genesisBlockHeader": {
            "parentHash": "0x0000000000000000000000000000000000000000000000000000000000000000",
            "uncleHash": "0x1dcc4de8dec75d7aab85b567b6ccd41ad312451b948a7413f0a142fd40d49347",
            "coinbase": "0x0000000000000000000000000000000000000000",
            "stateRoot": "0xfe71e3e07ff8911153b49433cf10c7277808dc19d05d44668e3ce5f571052fc2",
            "transactionsTrie": "0x56e81f171bcc55a6ff8345e692c0f86e5b48e01b996cadc001622fb5e363b421",
            "receiptTrie": "0x56e81f171bcc55a6ff8345e692c0f86e5b48e01b996cadc001622fb5e363b421",
            "bloom": "0x00000000000000000000000000000000000000000000000000000000000000000000000000000000000000000000000000000000000000000000000000000000000000000000000000000000000000000000000000000000000000000000000000000000000000000000000000000000000000000000000000000000000000000000000000000000000000000000000000000000000000000000000000000000000000000000000000000000000000000000000000000000000000000000000000000000000000000000000000000000000000000000000000000000000000000000000000000000000000000000000000000000000000000000000000000000",
            "difficulty": "0x020000",
            "number": "0x00",
            "gasLimit": "0x07270e00",
            "gasUsed": "0x00",
            "timestamp": "0x00",
            "extraData": "0x00",
            "mixHash": "0x0000000000000000000000000000000000000000000000000000000000000000",
            "nonce": "0x0000000000000000",
            "hash": "0xfa364cb04a48685dcd4983d931fb88b9013ab903380dc44c253e263bd0c74e79"
        },
        "pre": {
            "0xa743b0fd5c4186098bfb6e2302ddb5a6f48c1a9f": {
                "nonce": "0x01",
                "balance": "0x00",
                "code": "0x1234",
                "storage": {}
            },
            "0x3eced02499f6f40d0c87b38faf5f14583b488e09": {
                "nonce": "0x01",
                "balance": "0x00",
                "code": "0x73a743b0fd5c4186098bfb6e2302ddb5a6f48c1a9f3f60005273a743b0fd5c4186098bfb6e2302ddb5a6f48c1a9f3b60205260406000f3",
                "storage": {}
            },
            "0x7a4eda5ee749324495615bdbc5d8b6ce4092a2f9": {
                "nonce": "0x01",
                "balance": "0x00",
                "code": "0x60006000600060006000733eced02499f6f40d0c87b38faf5f14583b488e09620249f0f16040600060003e600051600055602051600155",
                "storage": {}
            },
            "0x1ad9bc24818784172ff393bb6f89f094d4d2ca29": {
                "nonce": "0x00",
                "balance": "0x3635c9adc5dea00000",
                "code": "0x",
                "storage": {}
            }
        },
        "postState": {
            "0xa743b0fd5c4186098bfb6e2302ddb5a6f48c1a9f": {
                "nonce": "0x01",
                "balance": "0x00",
                "code": "0x1234",
                "storage": {}
            },
            "0x3eced02499f6f40d0c87b38faf5f14583b488e09": {
                "nonce": "0x01",
                "balance": "0x00",
                "code": "0x73a743b0fd5c4186098bfb6e2302ddb5a6f48c1a9f3f60005273a743b0fd5c4186098bfb6e2302ddb5a6f48c1a9f3b60205260406000f3",
                "storage": {}
            },
            "0x7a4eda5ee749324495615bdbc5d8b6ce4092a2f9": {
                "nonce": "0x01",
                "balance": "0x00",
                "code": "0x60006000600060006000733eced02499f6f40d0c87b38faf5f14583b488e09620249f0f16040600060003e600051600055602051600155",
                "storage": {
                    "0x00": "0x56570de287d73cd1cb6092bb8fdee6173974955fdef345ae579ee9f475ea7432",
                    "0x01": "0x02"
                }
            },
            "0x1ad9bc24818784172ff393bb6f89f094d4d2ca29": {
                "nonce": "0x01",
                "balance": "0x3635c9adc5de96673e",
                "code": "0x",
                "storage": {}
            },
            "0x2adc25665018aa1fe0e6bc666dac8fc2697ff9ba": {
                "nonce": "0x00",
                "balance": "0x1bc16d674ed198c2",
                "code": "0x",
                "storage": {}
            }
        },
        "lastblockhash": "0xafe3341079ef58fc329af3c5ecdb38d9df75fbdbfd3fae3181036caddbf402e0",
        "config": {
            "network": "ConstantinopleFix",
            "chainid": "0x01"
        },
        "genesisRLP": "0xf901f9f901f4a00000000000000000000000000000000000000000000000000000000000000000a01dcc4de8dec75d7aab85b567b6ccd41ad312451b948a7413f0a142fd40d49347940000000000000000000000000000000000000000a0fe71e3e07ff8911153b49433cf10c7277808dc19d05d44668e3ce5f571052fc2a056e81f171bcc55a6ff8345e692c0f86e5b48e01b996cadc001622fb5e363b421a056e81f171bcc55a6ff8345e692c0f86e5b48e01b996cadc001622fb5e363b421b901000000000000000000000000000000000000000000000000000000000000000000000000000000000000000000000000000000000000000000000000000000000000000000000000000000000000000000000000000000000000000000000000000000000000000000000000000000000000000000000000000000000000000000000000000000000000000000000000000000000000000000000000000000000000000000000000000000000000000000000000000000000000000000000000000000000000000000000000000000000000000000000000000000000000000000000000000000000000000000000000000000000000000000000000000000000083020000808407270e00808000a00000000000000000000000000000000000000000000000000000000000000000880000000000000000c0c0",
        "blocks": [
            {
                "blockHeader": {
                    "parentHash": "0xfa364cb04a48685dcd4983d931fb88b9013ab903380dc44c253e263bd0c74e79",
                    "uncleHash": "0x1dcc4de8dec75d7aab85b567b6ccd41ad312451b948a7413f0a142fd40d49347",
                    "coinbase": "0x2adc25665018aa1fe0e6bc666dac8fc2697ff9ba",
                    "stateRoot": "0x82b081439902e59fa19b4e60b1aa8b9b3ed93dab7f5ebaee0f022655c1e32a02",
                    "transactionsTrie": "0x48a6320a94fd6528a79aeabb256129201f41a14c31ac8332c78b64eae18d15a4",
                    "receiptTrie": "0x7f31c8667d10f966dcafdcd0add7c24d7abfe7b116b3e157aecbc4840471a4be",
                    "bloom": "0x00000000000000000000000000000000000000000000000000000000000000000000000000000000000000000000000000000000000000000000000000000000000000000000000000000000000000000000000000000000000000000000000000000000000000000000000000000000000000000000000000000000000000000000000000000000000000000000000000000000000000000000000000000000000000000000000000000000000000000000000000000000000000000000000000000000000000000000000000000000000000000000000000000000000000000000000000000000000000000000000000000000000000000000000000000000",
                    "difficulty": "0x020000",
                    "number": "0x01",
                    "gasLimit": "0x07270e00",
                    "gasUsed": "0xf5ad",
                    "timestamp": "0x03e8",
                    "extraData": "0x00",
                    "mixHash": "0x0000000000000000000000000000000000000000000000000000000000000000",
                    "nonce": "0x0000000000000000",
                    "hash": "0xafe3341079ef58fc329af3c5ecdb38d9df75fbdbfd3fae3181036caddbf402e0"
                },
                "transactions": [
                    {
                        "type": "0x00",
                        "chainId": "0x01",
                        "nonce": "0x00",
                        "gasPrice": "0x0a",
                        "gasLimit": "0x0f4240",
                        "to": "0x7a4eda5ee749324495615bdbc5d8b6ce4092a2f9",
                        "value": "0x00",
                        "data": "0x",
                        "v": "0x26",
                        "r": "0xb327dc9f6c8109a44767e9791d27c85836850a14f088a18ab0744edbcf3aba5a",
                        "s": "0x047d695c4ffa500bb9a2f3eaaeea32760ce9ff00c8bb094794e9ae407693f41b",
                        "sender": "0x1ad9bc24818784172ff393bb6f89f094d4d2ca29"
                    }
                ],
                "uncleHeaders": [],
                "receipts": [
                    {
                        "transactionHash": "0x37b57cb5a46b6a96faa2f11c34d4e7440688c052826ce18c52619909fadc31fb",
                        "type": "0x00",
                        "cumulativeGasUsed": "0xf5ad",
                        "bloom": "0x00000000000000000000000000000000000000000000000000000000000000000000000000000000000000000000000000000000000000000000000000000000000000000000000000000000000000000000000000000000000000000000000000000000000000000000000000000000000000000000000000000000000000000000000000000000000000000000000000000000000000000000000000000000000000000000000000000000000000000000000000000000000000000000000000000000000000000000000000000000000000000000000000000000000000000000000000000000000000000000000000000000000000000000000000000000",
                        "logs": [],
                        "status": true,
                        "rlp": "0xf901080182f5adb9010000000000000000000000000000000000000000000000000000000000000000000000000000000000000000000000000000000000000000000000000000000000000000000000000000000000000000000000000000000000000000000000000000000000000000000000000000000000000000000000000000000000000000000000000000000000000000000000000000000000000000000000000000000000000000000000000000000000000000000000000000000000000000000000000000000000000000000000000000000000000000000000000000000000000000000000000000000000000000000000000000000000000000000000000000000000c0"
                    }
                ],
                "rlp": "0xf90260f901f8a0fa364cb04a48685dcd4983d931fb88b9013ab903380dc44c253e263bd0c74e79a01dcc4de8dec75d7aab85b567b6ccd41ad312451b948a7413f0a142fd40d49347942adc25665018aa1fe0e6bc666dac8fc2697ff9baa082b081439902e59fa19b4e60b1aa8b9b3ed93dab7f5ebaee0f022655c1e32a02a048a6320a94fd6528a79aeabb256129201f41a14c31ac8332c78b64eae18d15a4a07f31c8667d10f966dcafdcd0add7c24d7abfe7b116b3e157aecbc4840471a4beb901000000000000000000000000000000000000000000000000000000000000000000000000000000000000000000000000000000000000000000000000000000000000000000000000000000000000000000000000000000000000000000000000000000000000000000000000000000000000000000000000000000000000000000000000000000000000000000000000000000000000000000000000000000000000000000000000000000000000000000000000000000000000000000000000000000000000000000000000000000000000000000000000000000000000000000000000000000000000000000000000000000000000000000000000000000000083020000018407270e0082f5ad8203e800a00000000000000000000000000000000000000000000000000000000000000000880000000000000000f862f860800a830f4240947a4eda5ee749324495615bdbc5d8b6ce4092a2f9808026a0b327dc9f6c8109a44767e9791d27c85836850a14f088a18ab0744edbcf3aba5aa0047d695c4ffa500bb9a2f3eaaeea32760ce9ff00c8bb094794e9ae407693f41bc0",
                "blocknumber": "1"
            }
        ],
        "sealEngine": "NoProof",
        "_info": {
            "hash": "0xc3b5ee204104e8f6d6547921c80ee782673f8bb526ff6b2c676c806eb41de945",
            "fixture-format": "blockchain_test",
            "comment": "`execution-specs` generated test",
            "filling-transition-tool": "2.19.0",
            "description": "Test EXTCODEHASH/EXTCODESIZE queried via different call types.\n\nA helper contract computes EXTCODEHASH and EXTCODESIZE of a target\nand returns them. The caller invokes the helper using the\nparametrized call type and stores the results.",
            "url": "https://github.com/ethereum/execution-specs/blob/tests-bal@v5.6.0/tests/constantinople/eip1052_extcodehash/test_extcodehash.py#L676",
            "metadata": {
                "opcode_count": {}
            },
            "reference-spec": "https://github.com/ethereum/EIPs/blob/master/EIPS/eip-1052.md",
            "reference-spec-version": "2dcbc7ce1563e9624e137e9d447374600af876fa"
        }
    },
    "tests/constantinople/eip1052_extcodehash/test_extcodehash.py::test_extcodehash_via_call[fork_ConstantinopleFix-blockchain_test_from_state_test-opcode_DELEGATECALL]": {
        "network": "ConstantinopleFix",
        "genesisBlockHeader": {
            "parentHash": "0x0000000000000000000000000000000000000000000000000000000000000000",
            "uncleHash": "0x1dcc4de8dec75d7aab85b567b6ccd41ad312451b948a7413f0a142fd40d49347",
            "coinbase": "0x0000000000000000000000000000000000000000",
            "stateRoot": "0x57dba3586a529010b7bd08c2e82fec2eb583b42d2fa78590b5279da4d8cb9940",
            "transactionsTrie": "0x56e81f171bcc55a6ff8345e692c0f86e5b48e01b996cadc001622fb5e363b421",
            "receiptTrie": "0x56e81f171bcc55a6ff8345e692c0f86e5b48e01b996cadc001622fb5e363b421",
            "bloom": "0x00000000000000000000000000000000000000000000000000000000000000000000000000000000000000000000000000000000000000000000000000000000000000000000000000000000000000000000000000000000000000000000000000000000000000000000000000000000000000000000000000000000000000000000000000000000000000000000000000000000000000000000000000000000000000000000000000000000000000000000000000000000000000000000000000000000000000000000000000000000000000000000000000000000000000000000000000000000000000000000000000000000000000000000000000000000",
            "difficulty": "0x020000",
            "number": "0x00",
            "gasLimit": "0x07270e00",
            "gasUsed": "0x00",
            "timestamp": "0x00",
            "extraData": "0x00",
            "mixHash": "0x0000000000000000000000000000000000000000000000000000000000000000",
            "nonce": "0x0000000000000000",
            "hash": "0x0b845c38f29a0e4268aea9cf8443ce43c418c8fc2e3359c91fe3a9a53d6dcff6"
        },
        "pre": {
            "0xa743b0fd5c4186098bfb6e2302ddb5a6f48c1a9f": {
                "nonce": "0x01",
                "balance": "0x00",
                "code": "0x1234",
                "storage": {}
            },
            "0x3eced02499f6f40d0c87b38faf5f14583b488e09": {
                "nonce": "0x01",
                "balance": "0x00",
                "code": "0x73a743b0fd5c4186098bfb6e2302ddb5a6f48c1a9f3f60005273a743b0fd5c4186098bfb6e2302ddb5a6f48c1a9f3b60205260406000f3",
                "storage": {}
            },
            "0xff280cecb2391b4f68058e24365d7b764f9e20a3": {
                "nonce": "0x01",
                "balance": "0x00",
                "code": "0x6000600060006000733eced02499f6f40d0c87b38faf5f14583b488e09620249f0f46040600060003e600051600055602051600155",
                "storage": {}
            },
            "0x1ad9bc24818784172ff393bb6f89f094d4d2ca29": {
                "nonce": "0x00",
                "balance": "0x3635c9adc5dea00000",
                "code": "0x",
                "storage": {}
            }
        },
        "postState": {
            "0xa743b0fd5c4186098bfb6e2302ddb5a6f48c1a9f": {
                "nonce": "0x01",
                "balance": "0x00",
                "code": "0x1234",
                "storage": {}
            },
            "0x3eced02499f6f40d0c87b38faf5f14583b488e09": {
                "nonce": "0x01",
                "balance": "0x00",
                "code": "0x73a743b0fd5c4186098bfb6e2302ddb5a6f48c1a9f3f60005273a743b0fd5c4186098bfb6e2302ddb5a6f48c1a9f3b60205260406000f3",
                "storage": {}
            },
            "0xff280cecb2391b4f68058e24365d7b764f9e20a3": {
                "nonce": "0x01",
                "balance": "0x00",
                "code": "0x6000600060006000733eced02499f6f40d0c87b38faf5f14583b488e09620249f0f46040600060003e600051600055602051600155",
                "storage": {
                    "0x00": "0x56570de287d73cd1cb6092bb8fdee6173974955fdef345ae579ee9f475ea7432",
                    "0x01": "0x02"
                }
            },
            "0x1ad9bc24818784172ff393bb6f89f094d4d2ca29": {
                "nonce": "0x01",
                "balance": "0x3635c9adc5de96675c",
                "code": "0x",
                "storage": {}
            },
            "0x2adc25665018aa1fe0e6bc666dac8fc2697ff9ba": {
                "nonce": "0x00",
                "balance": "0x1bc16d674ed198a4",
                "code": "0x",
                "storage": {}
            }
        },
        "lastblockhash": "0xf1a12bd505154e7bda22845187e9daa842ee5149fb31393db43459a934563a53",
        "config": {
            "network": "ConstantinopleFix",
            "chainid": "0x01"
        },
        "genesisRLP": "0xf901f9f901f4a00000000000000000000000000000000000000000000000000000000000000000a01dcc4de8dec75d7aab85b567b6ccd41ad312451b948a7413f0a142fd40d49347940000000000000000000000000000000000000000a057dba3586a529010b7bd08c2e82fec2eb583b42d2fa78590b5279da4d8cb9940a056e81f171bcc55a6ff8345e692c0f86e5b48e01b996cadc001622fb5e363b421a056e81f171bcc55a6ff8345e692c0f86e5b48e01b996cadc001622fb5e363b421b901000000000000000000000000000000000000000000000000000000000000000000000000000000000000000000000000000000000000000000000000000000000000000000000000000000000000000000000000000000000000000000000000000000000000000000000000000000000000000000000000000000000000000000000000000000000000000000000000000000000000000000000000000000000000000000000000000000000000000000000000000000000000000000000000000000000000000000000000000000000000000000000000000000000000000000000000000000000000000000000000000000000000000000000000000000000083020000808407270e00808000a00000000000000000000000000000000000000000000000000000000000000000880000000000000000c0c0",
        "blocks": [
            {
                "blockHeader": {
                    "parentHash": "0x0b845c38f29a0e4268aea9cf8443ce43c418c8fc2e3359c91fe3a9a53d6dcff6",
                    "uncleHash": "0x1dcc4de8dec75d7aab85b567b6ccd41ad312451b948a7413f0a142fd40d49347",
                    "coinbase": "0x2adc25665018aa1fe0e6bc666dac8fc2697ff9ba",
                    "stateRoot": "0x6ae93ce6bea5e5e905c422fe6fc18a74c1dc5bd3cbc9bac37efea8a90487a379",
                    "transactionsTrie": "0x9b268e05d692f6d2f85de192d4caa7fca634b0855d0718ddb88b7337bb35201e",
                    "receiptTrie": "0x308bb9296dad1a4404a9e675a1d5ac7e9f05264d53de6c3db0b341c4a9a69a8b",
                    "bloom": "0x00000000000000000000000000000000000000000000000000000000000000000000000000000000000000000000000000000000000000000000000000000000000000000000000000000000000000000000000000000000000000000000000000000000000000000000000000000000000000000000000000000000000000000000000000000000000000000000000000000000000000000000000000000000000000000000000000000000000000000000000000000000000000000000000000000000000000000000000000000000000000000000000000000000000000000000000000000000000000000000000000000000000000000000000000000000",
                    "difficulty": "0x020000",
                    "number": "0x01",
                    "gasLimit": "0x07270e00",
                    "gasUsed": "0xf5aa",
                    "timestamp": "0x03e8",
                    "extraData": "0x00",
                    "mixHash": "0x0000000000000000000000000000000000000000000000000000000000000000",
                    "nonce": "0x0000000000000000",
                    "hash": "0xf1a12bd505154e7bda22845187e9daa842ee5149fb31393db43459a934563a53"
                },
                "transactions": [
                    {
                        "type": "0x00",
                        "chainId": "0x01",
                        "nonce": "0x00",
                        "gasPrice": "0x0a",
                        "gasLimit": "0x0f4240",
                        "to": "0xff280cecb2391b4f68058e24365d7b764f9e20a3",
                        "value": "0x00",
                        "data": "0x",
                        "v": "0x25",
                        "r": "0x729e172b162bfa0d726e73c8ac188aaa97d9c43184e2137614107a7cde78d2e0",
                        "s": "0x0f1248002f1bf368598658558b0c0f3c1049c486a30bb2f863209ed310ad5647",
                        "sender": "0x1ad9bc24818784172ff393bb6f89f094d4d2ca29"
                    }
                ],
                "uncleHeaders": [],
                "receipts": [
                    {
                        "transactionHash": "0xcda4c5bfb7e08cc90f1684bd850d7ffd715a0bf9b442c430d0553e28ab67a58d",
                        "type": "0x00",
                        "cumulativeGasUsed": "0xf5aa",
                        "bloom": "0x00000000000000000000000000000000000000000000000000000000000000000000000000000000000000000000000000000000000000000000000000000000000000000000000000000000000000000000000000000000000000000000000000000000000000000000000000000000000000000000000000000000000000000000000000000000000000000000000000000000000000000000000000000000000000000000000000000000000000000000000000000000000000000000000000000000000000000000000000000000000000000000000000000000000000000000000000000000000000000000000000000000000000000000000000000000",
                        "logs": [],
                        "status": true,
                        "rlp": "0xf901080182f5aab9010000000000000000000000000000000000000000000000000000000000000000000000000000000000000000000000000000000000000000000000000000000000000000000000000000000000000000000000000000000000000000000000000000000000000000000000000000000000000000000000000000000000000000000000000000000000000000000000000000000000000000000000000000000000000000000000000000000000000000000000000000000000000000000000000000000000000000000000000000000000000000000000000000000000000000000000000000000000000000000000000000000000000000000000000000000000c0"
                    }
                ],
                "rlp": "0xf90260f901f8a00b845c38f29a0e4268aea9cf8443ce43c418c8fc2e3359c91fe3a9a53d6dcff6a01dcc4de8dec75d7aab85b567b6ccd41ad312451b948a7413f0a142fd40d49347942adc25665018aa1fe0e6bc666dac8fc2697ff9baa06ae93ce6bea5e5e905c422fe6fc18a74c1dc5bd3cbc9bac37efea8a90487a379a09b268e05d692f6d2f85de192d4caa7fca634b0855d0718ddb88b7337bb35201ea0308bb9296dad1a4404a9e675a1d5ac7e9f05264d53de6c3db0b341c4a9a69a8bb901000000000000000000000000000000000000000000000000000000000000000000000000000000000000000000000000000000000000000000000000000000000000000000000000000000000000000000000000000000000000000000000000000000000000000000000000000000000000000000000000000000000000000000000000000000000000000000000000000000000000000000000000000000000000000000000000000000000000000000000000000000000000000000000000000000000000000000000000000000000000000000000000000000000000000000000000000000000000000000000000000000000000000000000000000000000083020000018407270e0082f5aa8203e800a00000000000000000000000000000000000000000000000000000000000000000880000000000000000f862f860800a830f424094ff280cecb2391b4f68058e24365d7b764f9e20a3808025a0729e172b162bfa0d726e73c8ac188aaa97d9c43184e2137614107a7cde78d2e0a00f1248002f1bf368598658558b0c0f3c1049c486a30bb2f863209ed310ad5647c0",
                "blocknumber": "1"
            }
        ],
        "sealEngine": "NoProof",
        "_info": {
            "hash": "0xa8907df6a3d769a7ed0bd1e7e55b6988701264ad4e0ceedcaea73786a3145113",
            "fixture-format": "blockchain_test",
            "comment": "`execution-specs` generated test",
            "filling-transition-tool": "2.19.0",
            "description": "Test EXTCODEHASH/EXTCODESIZE queried via different call types.\n\nA helper contract computes EXTCODEHASH and EXTCODESIZE of a target\nand returns them. The caller invokes the helper using the\nparametrized call type and stores the results.",
            "url": "https://github.com/ethereum/execution-specs/blob/tests-bal@v5.6.0/tests/constantinople/eip1052_extcodehash/test_extcodehash.py#L676",
            "metadata": {
                "opcode_count": {}
            },
            "reference-spec": "https://github.com/ethereum/EIPs/blob/master/EIPS/eip-1052.md",
            "reference-spec-version": "2dcbc7ce1563e9624e137e9d447374600af876fa"
        }
    },
    "tests/constantinople/eip1052_extcodehash/test_extcodehash.py::test_extcodehash_via_call[fork_ConstantinopleFix-blockchain_test_from_state_test-opcode_STATICCALL]": {
        "network": "ConstantinopleFix",
        "genesisBlockHeader": {
            "parentHash": "0x0000000000000000000000000000000000000000000000000000000000000000",
            "uncleHash": "0x1dcc4de8dec75d7aab85b567b6ccd41ad312451b948a7413f0a142fd40d49347",
            "coinbase": "0x0000000000000000000000000000000000000000",
            "stateRoot": "0x0b88b890600dac334d2868f1555ed78d5ecf8075f14ae107b524f05afde9c01b",
            "transactionsTrie": "0x56e81f171bcc55a6ff8345e692c0f86e5b48e01b996cadc001622fb5e363b421",
            "receiptTrie": "0x56e81f171bcc55a6ff8345e692c0f86e5b48e01b996cadc001622fb5e363b421",
            "bloom": "0x00000000000000000000000000000000000000000000000000000000000000000000000000000000000000000000000000000000000000000000000000000000000000000000000000000000000000000000000000000000000000000000000000000000000000000000000000000000000000000000000000000000000000000000000000000000000000000000000000000000000000000000000000000000000000000000000000000000000000000000000000000000000000000000000000000000000000000000000000000000000000000000000000000000000000000000000000000000000000000000000000000000000000000000000000000000",
            "difficulty": "0x020000",
            "number": "0x00",
            "gasLimit": "0x07270e00",
            "gasUsed": "0x00",
            "timestamp": "0x00",
            "extraData": "0x00",
            "mixHash": "0x0000000000000000000000000000000000000000000000000000000000000000",
            "nonce": "0x0000000000000000",
            "hash": "0xe7314d372835442f54036716193ed9c5c5d5b4243db6ef1f2b0dafb8c4c075db"
        },
        "pre": {
            "0xa743b0fd5c4186098bfb6e2302ddb5a6f48c1a9f": {
                "nonce": "0x01",
                "balance": "0x00",
                "code": "0x1234",
                "storage": {}
            },
            "0x3eced02499f6f40d0c87b38faf5f14583b488e09": {
                "nonce": "0x01",
                "balance": "0x00",
                "code": "0x73a743b0fd5c4186098bfb6e2302ddb5a6f48c1a9f3f60005273a743b0fd5c4186098bfb6e2302ddb5a6f48c1a9f3b60205260406000f3",
                "storage": {}
            },
            "0x3285b036e3a1769b0fe239a214c065048d7bfd13": {
                "nonce": "0x01",
                "balance": "0x00",
                "code": "0x6000600060006000733eced02499f6f40d0c87b38faf5f14583b488e09620249f0fa6040600060003e600051600055602051600155",
                "storage": {}
            },
            "0x1ad9bc24818784172ff393bb6f89f094d4d2ca29": {
                "nonce": "0x00",
                "balance": "0x3635c9adc5dea00000",
                "code": "0x",
                "storage": {}
            }
        },
        "postState": {
            "0xa743b0fd5c4186098bfb6e2302ddb5a6f48c1a9f": {
                "nonce": "0x01",
                "balance": "0x00",
                "code": "0x1234",
                "storage": {}
            },
            "0x3eced02499f6f40d0c87b38faf5f14583b488e09": {
                "nonce": "0x01",
                "balance": "0x00",
                "code": "0x73a743b0fd5c4186098bfb6e2302ddb5a6f48c1a9f3f60005273a743b0fd5c4186098bfb6e2302ddb5a6f48c1a9f3b60205260406000f3",
                "storage": {}
            },
            "0x3285b036e3a1769b0fe239a214c065048d7bfd13": {
                "nonce": "0x01",
                "balance": "0x00",
                "code": "0x6000600060006000733eced02499f6f40d0c87b38faf5f14583b488e09620249f0fa6040600060003e600051600055602051600155",
                "storage": {
                    "0x00": "0x56570de287d73cd1cb6092bb8fdee6173974955fdef345ae579ee9f475ea7432",
                    "0x01": "0x02"
                }
            },
            "0x1ad9bc24818784172ff393bb6f89f094d4d2ca29": {
                "nonce": "0x01",
                "balance": "0x3635c9adc5de96675c",
                "code": "0x",
                "storage": {}
            },
            "0x2adc25665018aa1fe0e6bc666dac8fc2697ff9ba": {
                "nonce": "0x00",
                "balance": "0x1bc16d674ed198a4",
                "code": "0x",
                "storage": {}
            }
        },
        "lastblockhash": "0x999f3cde098bc5c3b1dc3981110127dc10507137603b64f999d7a0c2ce7aa54d",
        "config": {
            "network": "ConstantinopleFix",
            "chainid": "0x01"
        },
        "genesisRLP": "0xf901f9f901f4a00000000000000000000000000000000000000000000000000000000000000000a01dcc4de8dec75d7aab85b567b6ccd41ad312451b948a7413f0a142fd40d49347940000000000000000000000000000000000000000a00b88b890600dac334d2868f1555ed78d5ecf8075f14ae107b524f05afde9c01ba056e81f171bcc55a6ff8345e692c0f86e5b48e01b996cadc001622fb5e363b421a056e81f171bcc55a6ff8345e692c0f86e5b48e01b996cadc001622fb5e363b421b901000000000000000000000000000000000000000000000000000000000000000000000000000000000000000000000000000000000000000000000000000000000000000000000000000000000000000000000000000000000000000000000000000000000000000000000000000000000000000000000000000000000000000000000000000000000000000000000000000000000000000000000000000000000000000000000000000000000000000000000000000000000000000000000000000000000000000000000000000000000000000000000000000000000000000000000000000000000000000000000000000000000000000000000000000000000083020000808407270e00808000a00000000000000000000000000000000000000000000000000000000000000000880000000000000000c0c0",
        "blocks": [
            {
                "blockHeader": {
                    "parentHash": "0xe7314d372835442f54036716193ed9c5c5d5b4243db6ef1f2b0dafb8c4c075db",
                    "uncleHash": "0x1dcc4de8dec75d7aab85b567b6ccd41ad312451b948a7413f0a142fd40d49347",
                    "coinbase": "0x2adc25665018aa1fe0e6bc666dac8fc2697ff9ba",
                    "stateRoot": "0xb8f68ee6fc87ef72e898ca61312dbc8d386161875740e361502cec1db644da44",
                    "transactionsTrie": "0x66311c963d39aa16f2a25f129c91ae665ca91a5beed072f66a6c40bcd2294d2c",
                    "receiptTrie": "0x308bb9296dad1a4404a9e675a1d5ac7e9f05264d53de6c3db0b341c4a9a69a8b",
                    "bloom": "0x00000000000000000000000000000000000000000000000000000000000000000000000000000000000000000000000000000000000000000000000000000000000000000000000000000000000000000000000000000000000000000000000000000000000000000000000000000000000000000000000000000000000000000000000000000000000000000000000000000000000000000000000000000000000000000000000000000000000000000000000000000000000000000000000000000000000000000000000000000000000000000000000000000000000000000000000000000000000000000000000000000000000000000000000000000000",
                    "difficulty": "0x020000",
                    "number": "0x01",
                    "gasLimit": "0x07270e00",
                    "gasUsed": "0xf5aa",
                    "timestamp": "0x03e8",
                    "extraData": "0x00",
                    "mixHash": "0x0000000000000000000000000000000000000000000000000000000000000000",
                    "nonce": "0x0000000000000000",
                    "hash": "0x999f3cde098bc5c3b1dc3981110127dc10507137603b64f999d7a0c2ce7aa54d"
                },
                "transactions": [
                    {
                        "type": "0x00",
                        "chainId": "0x01",
                        "nonce": "0x00",
                        "gasPrice": "0x0a",
                        "gasLimit": "0x0f4240",
                        "to": "0x3285b036e3a1769b0fe239a214c065048d7bfd13",
                        "value": "0x00",
                        "data": "0x",
                        "v": "0x25",
                        "r": "0xddc8d9d3d6090e08b08a69fe23a0ff76a81f2207a8414e98dbf3dcb6517724b9",
                        "s": "0x2767294c5c0c389d689d429f8749c9ac30243fc001badfb91c53421b4fec1d9a",
                        "sender": "0x1ad9bc24818784172ff393bb6f89f094d4d2ca29"
                    }
                ],
                "uncleHeaders": [],
                "receipts": [
                    {
                        "transactionHash": "0x67ffe52d77c6d06e02c6809c6d71e48fb89455022687028016579c4a054c6e4a",
                        "type": "0x00",
                        "cumulativeGasUsed": "0xf5aa",
                        "bloom": "0x00000000000000000000000000000000000000000000000000000000000000000000000000000000000000000000000000000000000000000000000000000000000000000000000000000000000000000000000000000000000000000000000000000000000000000000000000000000000000000000000000000000000000000000000000000000000000000000000000000000000000000000000000000000000000000000000000000000000000000000000000000000000000000000000000000000000000000000000000000000000000000000000000000000000000000000000000000000000000000000000000000000000000000000000000000000",
                        "logs": [],
                        "status": true,
                        "rlp": "0xf901080182f5aab9010000000000000000000000000000000000000000000000000000000000000000000000000000000000000000000000000000000000000000000000000000000000000000000000000000000000000000000000000000000000000000000000000000000000000000000000000000000000000000000000000000000000000000000000000000000000000000000000000000000000000000000000000000000000000000000000000000000000000000000000000000000000000000000000000000000000000000000000000000000000000000000000000000000000000000000000000000000000000000000000000000000000000000000000000000000000c0"
                    }
                ],
                "rlp": "0xf90260f901f8a0e7314d372835442f54036716193ed9c5c5d5b4243db6ef1f2b0dafb8c4c075dba01dcc4de8dec75d7aab85b567b6ccd41ad312451b948a7413f0a142fd40d49347942adc25665018aa1fe0e6bc666dac8fc2697ff9baa0b8f68ee6fc87ef72e898ca61312dbc8d386161875740e361502cec1db644da44a066311c963d39aa16f2a25f129c91ae665ca91a5beed072f66a6c40bcd2294d2ca0308bb9296dad1a4404a9e675a1d5ac7e9f05264d53de6c3db0b341c4a9a69a8bb901000000000000000000000000000000000000000000000000000000000000000000000000000000000000000000000000000000000000000000000000000000000000000000000000000000000000000000000000000000000000000000000000000000000000000000000000000000000000000000000000000000000000000000000000000000000000000000000000000000000000000000000000000000000000000000000000000000000000000000000000000000000000000000000000000000000000000000000000000000000000000000000000000000000000000000000000000000000000000000000000000000000000000000000000000000000083020000018407270e0082f5aa8203e800a00000000000000000000000000000000000000000000000000000000000000000880000000000000000f862f860800a830f4240943285b036e3a1769b0fe239a214c065048d7bfd13808025a0ddc8d9d3d6090e08b08a69fe23a0ff76a81f2207a8414e98dbf3dcb6517724b9a02767294c5c0c389d689d429f8749c9ac30243fc001badfb91c53421b4fec1d9ac0",
                "blocknumber": "1"
            }
        ],
        "sealEngine": "NoProof",
        "_info": {
            "hash": "0xbf61d6bbe648984a0a7ed2b47b6ce7cfe0ae70cc7b9d334a01ae5314aa0e2a9e",
            "fixture-format": "blockchain_test",
            "comment": "`execution-specs` generated test",
            "filling-transition-tool": "2.19.0",
            "description": "Test EXTCODEHASH/EXTCODESIZE queried via different call types.\n\nA helper contract computes EXTCODEHASH and EXTCODESIZE of a target\nand returns them. The caller invokes the helper using the\nparametrized call type and stores the results.",
            "url": "https://github.com/ethereum/execution-specs/blob/tests-bal@v5.6.0/tests/constantinople/eip1052_extcodehash/test_extcodehash.py#L676",
            "metadata": {
                "opcode_count": {}
            },
            "reference-spec": "https://github.com/ethereum/EIPs/blob/master/EIPS/eip-1052.md",
            "reference-spec-version": "2dcbc7ce1563e9624e137e9d447374600af876fa"
        }
    }
}