{
    "tests/constantinople/eip1052_extcodehash/test_extcodehash.py::test_extcodehash_after_selfdestruct[fork_ConstantinopleFix-blockchain_test_from_state_test-create2]": {
        "network": "ConstantinopleFix",
        "genesisBlockHeader": {
            "parentHash": "0x0000000000000000000000000000000000000000000000000000000000000000",
            "uncleHash": "0x1dcc4de8dec75d7aab85b567b6ccd41ad312451b948a7413f0a142fd40d49347",
            "coinbase": "0x0000000000000000000000000000000000000000",
            "stateRoot": "0x9e2fdf39992380b8f727f111b0f7ad0689561a9617cb049818deb585725894ab",
            "transactionsTrie": "0x56e81f171bcc55a6ff8345e692c0f86e5b48e01b996cadc001622fb5e363b421",
            "receiptTrie": "0x56e81f171bcc55a6ff8345e692c0f86e5b48e01b996cadc001622fb5e363b421",
            "bloom": "0x00000000000000000000000000000000000000000000000000000000000000000000000000000000000000000000000000000000000000000000000000000000000000000000000000000000000000000000000000000000000000000000000000000000000000000000000000000000000000000000000000000000000000000000000000000000000000000000000000000000000000000000000000000000000000000000000000000000000000000000000000000000000000000000000000000000000000000000000000000000000000000000000000000000000000000000000000000000000000000000000000000000000000000000000000000000",
            "difficulty": "0x020000",
            "number": "0x00",
            "gasLimit": "0x07270e00",
            "gasUsed": "0x00",
            "timestamp": "0x00",
            "extraData": "0x00",
            "mixHash": "0x0000000000000000000000000000000000000000000000000000000000000000",
            "nonce": "0x0000000000000000",
            "hash": "0x958e94f0ef33a5be0c49360c88c244ec3a767d67c7f86aa1f2429d582c5b38e0"
        },
        "pre": {
            "0x41a518d831226e823f596a55c095b9d7bc73f8ff": {
                "nonce": "0x01",
                "balance": "0x00",
                "code": "0x7f610002600081600b8239f332ff000000000000000000000000000000000000006000526000600d60006000f56000556000543f6001556000543b60025560006000526002600060006000543c60005160035560006000600060006000600054620186a0f1506000543f6004556000543b60055560006000526002600060006000543c600051600655",
                "storage": {
                    "0x00": "0xba5e"
                }
            },
            "0x1ad9bc24818784172ff393bb6f89f094d4d2ca29": {
                "nonce": "0x00",
                "balance": "0x3635c9adc5dea00000",
                "code": "0x",
                "storage": {}
            }
        },
        "postState": {
            "0x41a518d831226e823f596a55c095b9d7bc73f8ff": {
                "nonce": "0x02",
                "balance": "0x00",
                "code": "0x7f610002600081600b8239f332ff000000000000000000000000000000000000006000526000600d60006000f56000556000543f6001556000543b60025560006000526002600060006000543c60005160035560006000600060006000600054620186a0f1506000543f6004556000543b60055560006000526002600060006000543c600051600655",
                "storage": {
                    "0x00": "0x7575a1682d901310b571843daa185b1823a2d31d",
                    "0x01": "0x3a6ca0f2fdba9798ec7350fb5106f9dd4102ec04a5cbd39ec60cd921c3d7af06",
                    "0x02": "0x02",
                    "0x03": "0x32ff000000000000000000000000000000000000000000000000000000000000",
                    "0x04": "0x3a6ca0f2fdba9798ec7350fb5106f9dd4102ec04a5cbd39ec60cd921c3d7af06",
                    "0x05": "0x02",
                    "0x06": "0x32ff000000000000000000000000000000000000000000000000000000000000"
                }
            },
            "0x1ad9bc24818784172ff393bb6f89f094d4d2ca29": {
                "nonce": "0x01",
                "balance": "0x3635c9adc5de86c810",
                "code": "0x",
                "storage": {}
            },
            "0x2adc25665018aa1fe0e6bc666dac8fc2697ff9ba": {
                "nonce": "0x00",
                "balance": "0x1bc16d674ee137f0",
                "code": "0x",
                "storage": {}
            }
        },
        "lastblockhash": "0x176ba155afec57874211f294fad0e8902d2b2a98f8b8f4694aff2065fae75dfd",
        "config": {
            "network": "ConstantinopleFix",
            "chainid": "0x01"
        },
        "genesisRLP": "0xf901f9f901f4a00000000000000000000000000000000000000000000000000000000000000000a01dcc4de8dec75d7aab85b567b6ccd41ad312451b948a7413f0a142fd40d49347940000000000000000000000000000000000000000a09e2fdf39992380b8f727f111b0f7ad0689561a9617cb049818deb585725894aba056e81f171bcc55a6ff8345e692c0f86e5b48e01b996cadc001622fb5e363b421a056e81f171bcc55a6ff8345e692c0f86e5b48e01b996cadc001622fb5e363b421b901000000000000000000000000000000000000000000000000000000000000000000000000000000000000000000000000000000000000000000000000000000000000000000000000000000000000000000000000000000000000000000000000000000000000000000000000000000000000000000000000000000000000000000000000000000000000000000000000000000000000000000000000000000000000000000000000000000000000000000000000000000000000000000000000000000000000000000000000000000000000000000000000000000000000000000000000000000000000000000000000000000000000000000000000000000000083020000808407270e00808000a00000000000000000000000000000000000000000000000000000000000000000880000000000000000c0c0",
        "blocks": [
            {
                "blockHeader": {
                    "parentHash": "0x958e94f0ef33a5be0c49360c88c244ec3a767d67c7f86aa1f2429d582c5b38e0",
                    "uncleHash": "0x1dcc4de8dec75d7aab85b567b6ccd41ad312451b948a7413f0a142fd40d49347",
                    "coinbase": "0x2adc25665018aa1fe0e6bc666dac8fc2697ff9ba",
                    "stateRoot": "0xe3f53e8428e11322318347d21763398a64b5f1a6f0224562e518c229f6060546",
                    "transactionsTrie": "0xdd7d1199043d3430a534b9ba35c57d265c082f5e60510ac795850d058ff27dee",
                    "receiptTrie": "0x962351087938c3504f147ae65c2dc2d87d608d6df73f6b0d12a5be2b338715aa",
                    "bloom": "0x00000000000000000000000000000000000000000000000000000000000000000000000000000000000000000000000000000000000000000000000000000000000000000000000000000000000000000000000000000000000000000000000000000000000000000000000000000000000000000000000000000000000000000000000000000000000000000000000000000000000000000000000000000000000000000000000000000000000000000000000000000000000000000000000000000000000000000000000000000000000000000000000000000000000000000000000000000000000000000000000000000000000000000000000000000000",
                    "difficulty": "0x020000",
                    "number": "0x01",
                    "gasLimit": "0x07270e00",
                    "gasUsed": "0x028598",
                    "timestamp": "0x03e8",
                    "extraData": "0x00",
                    "mixHash": "0x0000000000000000000000000000000000000000000000000000000000000000",
                    "nonce": "0x0000000000000000",
                    "hash": "0x176ba155afec57874211f294fad0e8902d2b2a98f8b8f4694aff2065fae75dfd"
                },
                "transactions": [
                    {
                        "type": "0x00",
                        "chainId": "0x01",
                        "nonce": "0x00",
                        "gasPrice": "0x0a",
                        "gasLimit": "0x061a80",
                        "to": "0x41a518d831226e823f596a55c095b9d7bc73f8ff",
                        "value": "0x00",
                        "data": "0x",
                        "v": "0x25",
                        "r": "0x096f47ad3a4e2b1a188c4810bb95214fb1bf56ee5fd2214b92a63955074e94b1",
                        "s": "0x03c4be38a3b46974e995642003c894b1514b06efb0651b1bf95216fdf4a75ef2",
                        "sender": "0x1ad9bc24818784172ff393bb6f89f094d4d2ca29"
                    }
                ],
                "uncleHeaders": [],
                "receipts": [
                    {
                        "transactionHash": "0xa8aa3e0f2c1799d1d10c98254f06b5515aee2190309f113cf2a9da10186dca52",
                        "type": "0x00",
                        "cumulativeGasUsed": "0x028598",
                        "bloom": "0x00000000000000000000000000000000000000000000000000000000000000000000000000000000000000000000000000000000000000000000000000000000000000000000000000000000000000000000000000000000000000000000000000000000000000000000000000000000000000000000000000000000000000000000000000000000000000000000000000000000000000000000000000000000000000000000000000000000000000000000000000000000000000000000000000000000000000000000000000000000000000000000000000000000000000000000000000000000000000000000000000000000000000000000000000000000",
                        "logs": [],
                        "status": true,
                        "rlp": "0xf901090183028598b9010000000000000000000000000000000000000000000000000000000000000000000000000000000000000000000000000000000000000000000000000000000000000000000000000000000000000000000000000000000000000000000000000000000000000000000000000000000000000000000000000000000000000000000000000000000000000000000000000000000000000000000000000000000000000000000000000000000000000000000000000000000000000000000000000000000000000000000000000000000000000000000000000000000000000000000000000000000000000000000000000000000000000000000000000000000000c0"
                    }
                ],
                "rlp": "0xf90261f901f9a0958e94f0ef33a5be0c49360c88c244ec3a767d67c7f86aa1f2429d582c5b38e0a01dcc4de8dec75d7aab85b567b6ccd41ad312451b948a7413f0a142fd40d49347942adc25665018aa1fe0e6bc666dac8fc2697ff9baa0e3f53e8428e11322318347d21763398a64b5f1a6f0224562e518c229f6060546a0dd7d1199043d3430a534b9ba35c57d265c082f5e60510ac795850d058ff27deea0962351087938c3504f147ae65c2dc2d87d608d6df73f6b0d12a5be2b338715aab901000000000000000000000000000000000000000000000000000000000000000000000000000000000000000000000000000000000000000000000000000000000000000000000000000000000000000000000000000000000000000000000000000000000000000000000000000000000000000000000000000000000000000000000000000000000000000000000000000000000000000000000000000000000000000000000000000000000000000000000000000000000000000000000000000000000000000000000000000000000000000000000000000000000000000000000000000000000000000000000000000000000000000000000000000000000083020000018407270e00830285988203e800a00000000000000000000000000000000000000000000000000000000000000000880000000000000000f862f860800a83061a809441a518d831226e823f596a55c095b9d7bc73f8ff808025a0096f47ad3a4e2b1a188c4810bb95214fb1bf56ee5fd2214b92a63955074e94b1a003c4be38a3b46974e995642003c894b1514b06efb0651b1bf95216fdf4a75ef2c0",
                "blocknumber": "1"
            }
        ],
        "sealEngine": "NoProof",
        "_info": {
            "hash": "0x13373091a6808d2a08472f685793bef0ab387f07963ff0953cffbd78d402edf9",
            "fixture-format": "blockchain_test",
            "comment": "`execution-specs` generated test",
            "filling-transition-tool": "2.19.0",
            "description": "Test EXTCODEHASH/EXTCODESIZE/EXTCODECOPY before and after SELFDESTRUCT.\n\nVerifies that code hash, size, and copied code remain unchanged\nwithin the transaction after SELFDESTRUCT is triggered.\nPre-Cancun, all selfdestructed accounts are deleted. From Cancun\n(EIP-6780), only accounts created in the same transaction are\ndeleted; pre-existing accounts persist with balance drained.",
            "url": "https://github.com/ethereum/execution-specs/blob/tests-sn\u00f8bal-devnet-4@v1.0.0/tests/constantinople/eip1052_extcodehash/test_extcodehash.py#L777",
            "metadata": {
                "opcode_count": {}
            },
            "reference-spec": "https://github.com/ethereum/EIPs/blob/master/EIPS/eip-1052.md",
            "reference-spec-version": "2dcbc7ce1563e9624e137e9d447374600af876fa"
        }
    },
    "tests/constantinople/eip1052_extcodehash/test_extcodehash.py::test_extcodehash_after_selfdestruct[fork_ConstantinopleFix-blockchain_test_from_state_test-create]": {
        "network": "ConstantinopleFix",
        "genesisBlockHeader": {
            "parentHash": "0x0000000000000000000000000000000000000000000000000000000000000000",
            "uncleHash": "0x1dcc4de8dec75d7aab85b567b6ccd41ad312451b948a7413f0a142fd40d49347",
            "coinbase": "0x0000000000000000000000000000000000000000",
            "stateRoot": "0xe3d7b455d825946d9a93f4073ebe5a9b3b5dcbc7e6a47bf4952e93994fbd7ca3",
            "transactionsTrie": "0x56e81f171bcc55a6ff8345e692c0f86e5b48e01b996cadc001622fb5e363b421",
            "receiptTrie": "0x56e81f171bcc55a6ff8345e692c0f86e5b48e01b996cadc001622fb5e363b421",
            "bloom": "0x00000000000000000000000000000000000000000000000000000000000000000000000000000000000000000000000000000000000000000000000000000000000000000000000000000000000000000000000000000000000000000000000000000000000000000000000000000000000000000000000000000000000000000000000000000000000000000000000000000000000000000000000000000000000000000000000000000000000000000000000000000000000000000000000000000000000000000000000000000000000000000000000000000000000000000000000000000000000000000000000000000000000000000000000000000000",
            "difficulty": "0x020000",
            "number": "0x00",
            "gasLimit": "0x07270e00",
            "gasUsed": "0x00",
            "timestamp": "0x00",
            "extraData": "0x00",
            "mixHash": "0x0000000000000000000000000000000000000000000000000000000000000000",
            "nonce": "0x0000000000000000",
            "hash": "0x20d465de285650549e46e87700b8abe4e1338f9f29a4dfd63b70ac361136049b"
        },
        "pre": {
            "0xe7186ea0c9fd562f61de9fc9a27b47cabad7894a": {
                "nonce": "0x01",
                "balance": "0x00",
                "code": "0x7f610002600081600b8239f332ff00000000000000000000000000000000000000600052600d60006000f06000556000543f6001556000543b60025560006000526002600060006000543c60005160035560006000600060006000600054620186a0f1506000543f6004556000543b60055560006000526002600060006000543c600051600655",
                "storage": {
                    "0x00": "0xba5e"
                }
            },
            "0x1ad9bc24818784172ff393bb6f89f094d4d2ca29": {
                "nonce": "0x00",
                "balance": "0x3635c9adc5dea00000",
                "code": "0x",
                "storage": {}
            }
        },
        "postState": {
            "0xe7186ea0c9fd562f61de9fc9a27b47cabad7894a": {
                "nonce": "0x02",
                "balance": "0x00",
                "code": "0x7f610002600081600b8239f332ff00000000000000000000000000000000000000600052600d60006000f06000556000543f6001556000543b60025560006000526002600060006000543c60005160035560006000600060006000600054620186a0f1506000543f6004556000543b60055560006000526002600060006000543c600051600655",
                "storage": {
                    "0x00": "0xdbfe21295c375d2a148ba776410ff63e09ac78b5",
                    "0x01": "0x3a6ca0f2fdba9798ec7350fb5106f9dd4102ec04a5cbd39ec60cd921c3d7af06",
                    "0x02": "0x02",
                    "0x03": "0x32ff000000000000000000000000000000000000000000000000000000000000",
                    "0x04": "0x3a6ca0f2fdba9798ec7350fb5106f9dd4102ec04a5cbd39ec60cd921c3d7af06",
                    "0x05": "0x02",
                    "0x06": "0x32ff000000000000000000000000000000000000000000000000000000000000"
                }
            },
            "0x1ad9bc24818784172ff393bb6f89f094d4d2ca29": {
                "nonce": "0x01",
                "balance": "0x3635c9adc5de86c86a",
                "code": "0x",
                "storage": {}
            },
            "0x2adc25665018aa1fe0e6bc666dac8fc2697ff9ba": {
                "nonce": "0x00",
                "balance": "0x1bc16d674ee13796",
                "code": "0x",
                "storage": {}
            }
        },
        "lastblockhash": "0xb8243123c12117c73b8742105406b1acad87e8b67a344f3c6d8084ae58808335",
        "config": {
            "network": "ConstantinopleFix",
            "chainid": "0x01"
        },
        "genesisRLP": "0xf901f9f901f4a00000000000000000000000000000000000000000000000000000000000000000a01dcc4de8dec75d7aab85b567b6ccd41ad312451b948a7413f0a142fd40d49347940000000000000000000000000000000000000000a0e3d7b455d825946d9a93f4073ebe5a9b3b5dcbc7e6a47bf4952e93994fbd7ca3a056e81f171bcc55a6ff8345e692c0f86e5b48e01b996cadc001622fb5e363b421a056e81f171bcc55a6ff8345e692c0f86e5b48e01b996cadc001622fb5e363b421b901000000000000000000000000000000000000000000000000000000000000000000000000000000000000000000000000000000000000000000000000000000000000000000000000000000000000000000000000000000000000000000000000000000000000000000000000000000000000000000000000000000000000000000000000000000000000000000000000000000000000000000000000000000000000000000000000000000000000000000000000000000000000000000000000000000000000000000000000000000000000000000000000000000000000000000000000000000000000000000000000000000000000000000000000000000000083020000808407270e00808000a00000000000000000000000000000000000000000000000000000000000000000880000000000000000c0c0",
        "blocks": [
            {
                "blockHeader": {
                    "parentHash": "0x20d465de285650549e46e87700b8abe4e1338f9f29a4dfd63b70ac361136049b",
                    "uncleHash": "0x1dcc4de8dec75d7aab85b567b6ccd41ad312451b948a7413f0a142fd40d49347",
                    "coinbase": "0x2adc25665018aa1fe0e6bc666dac8fc2697ff9ba",
                    "stateRoot": "0x4cb01679a2d03032987d819d940113bb3659ed73517db58a89638787f5eb083d",
                    "transactionsTrie": "0xd47f2c0141e002b28928c1b1612677550470d981b5a989fa01d159b6ba28813f",
                    "receiptTrie": "0x1a8873fb45ca0c3b7c6865691699c04e20ae4ec4e34af4fa6a374084fa5dd39a",
                    "bloom": "0x00000000000000000000000000000000000000000000000000000000000000000000000000000000000000000000000000000000000000000000000000000000000000000000000000000000000000000000000000000000000000000000000000000000000000000000000000000000000000000000000000000000000000000000000000000000000000000000000000000000000000000000000000000000000000000000000000000000000000000000000000000000000000000000000000000000000000000000000000000000000000000000000000000000000000000000000000000000000000000000000000000000000000000000000000000000",
                    "difficulty": "0x020000",
                    "number": "0x01",
                    "gasLimit": "0x07270e00",
                    "gasUsed": "0x02858f",
                    "timestamp": "0x03e8",
                    "extraData": "0x00",
                    "mixHash": "0x0000000000000000000000000000000000000000000000000000000000000000",
                    "nonce": "0x0000000000000000",
                    "hash": "0xb8243123c12117c73b8742105406b1acad87e8b67a344f3c6d8084ae58808335"
                },
                "transactions": [
                    {
                        "type": "0x00",
                        "chainId": "0x01",
                        "nonce": "0x00",
                        "gasPrice": "0x0a",
                        "gasLimit": "0x061a80",
                        "to": "0xe7186ea0c9fd562f61de9fc9a27b47cabad7894a",
                        "value": "0x00",
                        "data": "0x",
                        "v": "0x25",
                        "r": "0xcabf69f9cd212782574b1d47ce1836c50cb6f0ee4b3586835f35633ef3a040c6",
                        "s": "0x7382480f797cbae79015b8d88af35eab1cd67136e57ea2dd6f88ced1acb43f31",
                        "sender": "0x1ad9bc24818784172ff393bb6f89f094d4d2ca29"
                    }
                ],
                "uncleHeaders": [],
                "receipts": [
                    {
                        "transactionHash": "0xbb14652bf022028d1542d4fb477db0e33daa092558d08404309ca6f0210d9439",
                        "type": "0x00",
                        "cumulativeGasUsed": "0x02858f",
                        "bloom": "0x00000000000000000000000000000000000000000000000000000000000000000000000000000000000000000000000000000000000000000000000000000000000000000000000000000000000000000000000000000000000000000000000000000000000000000000000000000000000000000000000000000000000000000000000000000000000000000000000000000000000000000000000000000000000000000000000000000000000000000000000000000000000000000000000000000000000000000000000000000000000000000000000000000000000000000000000000000000000000000000000000000000000000000000000000000000",
                        "logs": [],
                        "status": true,
                        "rlp": "0xf90109018302858fb9010000000000000000000000000000000000000000000000000000000000000000000000000000000000000000000000000000000000000000000000000000000000000000000000000000000000000000000000000000000000000000000000000000000000000000000000000000000000000000000000000000000000000000000000000000000000000000000000000000000000000000000000000000000000000000000000000000000000000000000000000000000000000000000000000000000000000000000000000000000000000000000000000000000000000000000000000000000000000000000000000000000000000000000000000000000000c0"
                    }
                ],
                "rlp": "0xf90261f901f9a020d465de285650549e46e87700b8abe4e1338f9f29a4dfd63b70ac361136049ba01dcc4de8dec75d7aab85b567b6ccd41ad312451b948a7413f0a142fd40d49347942adc25665018aa1fe0e6bc666dac8fc2697ff9baa04cb01679a2d03032987d819d940113bb3659ed73517db58a89638787f5eb083da0d47f2c0141e002b28928c1b1612677550470d981b5a989fa01d159b6ba28813fa01a8873fb45ca0c3b7c6865691699c04e20ae4ec4e34af4fa6a374084fa5dd39ab901000000000000000000000000000000000000000000000000000000000000000000000000000000000000000000000000000000000000000000000000000000000000000000000000000000000000000000000000000000000000000000000000000000000000000000000000000000000000000000000000000000000000000000000000000000000000000000000000000000000000000000000000000000000000000000000000000000000000000000000000000000000000000000000000000000000000000000000000000000000000000000000000000000000000000000000000000000000000000000000000000000000000000000000000000000000083020000018407270e008302858f8203e800a00000000000000000000000000000000000000000000000000000000000000000880000000000000000f862f860800a83061a8094e7186ea0c9fd562f61de9fc9a27b47cabad7894a808025a0cabf69f9cd212782574b1d47ce1836c50cb6f0ee4b3586835f35633ef3a040c6a07382480f797cbae79015b8d88af35eab1cd67136e57ea2dd6f88ced1acb43f31c0",
                "blocknumber": "1"
            }
        ],
        "sealEngine": "NoProof",
        "_info": {
            "hash": "0x914e7a269a81a915098f4e167936d6e9d41cdcb889f556186eae101e18c04a4f",
            "fixture-format": "blockchain_test",
            "comment": "`execution-specs` generated test",
            "filling-transition-tool": "2.19.0",
            "description": "Test EXTCODEHASH/EXTCODESIZE/EXTCODECOPY before and after SELFDESTRUCT.\n\nVerifies that code hash, size, and copied code remain unchanged\nwithin the transaction after SELFDESTRUCT is triggered.\nPre-Cancun, all selfdestructed accounts are deleted. From Cancun\n(EIP-6780), only accounts created in the same transaction are\ndeleted; pre-existing accounts persist with balance drained.",
            "url": "https://github.com/ethereum/execution-specs/blob/tests-sn\u00f8bal-devnet-4@v1.0.0/tests/constantinople/eip1052_extcodehash/test_extcodehash.py#L777",
            "metadata": {
                "opcode_count": {}
            },
            "reference-spec": "https://github.com/ethereum/EIPs/blob/master/EIPS/eip-1052.md",
            "reference-spec-version": "2dcbc7ce1563e9624e137e9d447374600af876fa"
        }
    },
    "tests/constantinople/eip1052_extcodehash/test_extcodehash.py::test_extcodehash_after_selfdestruct[fork_ConstantinopleFix-blockchain_test_from_state_test-pre_existing]": {
        "network": "ConstantinopleFix",
        "genesisBlockHeader": {
            "parentHash": "0x0000000000000000000000000000000000000000000000000000000000000000",
            "uncleHash": "0x1dcc4de8dec75d7aab85b567b6ccd41ad312451b948a7413f0a142fd40d49347",
            "coinbase": "0x0000000000000000000000000000000000000000",
            "stateRoot": "0x50d8a7f925a9486e8a2ccc79a1f18840768e39609d7f105a415fddcdf286a107",
            "transactionsTrie": "0x56e81f171bcc55a6ff8345e692c0f86e5b48e01b996cadc001622fb5e363b421",
            "receiptTrie": "0x56e81f171bcc55a6ff8345e692c0f86e5b48e01b996cadc001622fb5e363b421",
            "bloom": "0x00000000000000000000000000000000000000000000000000000000000000000000000000000000000000000000000000000000000000000000000000000000000000000000000000000000000000000000000000000000000000000000000000000000000000000000000000000000000000000000000000000000000000000000000000000000000000000000000000000000000000000000000000000000000000000000000000000000000000000000000000000000000000000000000000000000000000000000000000000000000000000000000000000000000000000000000000000000000000000000000000000000000000000000000000000000",
            "difficulty": "0x020000",
            "number": "0x00",
            "gasLimit": "0x07270e00",
            "gasUsed": "0x00",
            "timestamp": "0x00",
            "extraData": "0x00",
            "mixHash": "0x0000000000000000000000000000000000000000000000000000000000000000",
            "nonce": "0x0000000000000000",
            "hash": "0x62ddabd6dfea63a99761ca270a6251d5e67ea9769dea70d3035801bd141d7f49"
        },
        "pre": {
            "0x4e79bc2cd8a7eb5b08159b6d1c42d2b768d9fefd": {
                "nonce": "0x01",
                "balance": "0x01",
                "code": "0x32ff",
                "storage": {}
            },
            "0x8efc5703232bdedd935b8c5723760398fbae28a6": {
                "nonce": "0x01",
                "balance": "0x00",
                "code": "0x734e79bc2cd8a7eb5b08159b6d1c42d2b768d9fefd3f600055734e79bc2cd8a7eb5b08159b6d1c42d2b768d9fefd3b6001556000600052600260006000734e79bc2cd8a7eb5b08159b6d1c42d2b768d9fefd3c60005160025560006000600060006000734e79bc2cd8a7eb5b08159b6d1c42d2b768d9fefd620186a0f150734e79bc2cd8a7eb5b08159b6d1c42d2b768d9fefd3f600355734e79bc2cd8a7eb5b08159b6d1c42d2b768d9fefd3b6004556000600052600260006000734e79bc2cd8a7eb5b08159b6d1c42d2b768d9fefd3c600051600555",
                "storage": {}
            },
            "0x1ad9bc24818784172ff393bb6f89f094d4d2ca29": {
                "nonce": "0x00",
                "balance": "0x3635c9adc5dea00000",
                "code": "0x",
                "storage": {}
            }
        },
        "postState": {
            "0x8efc5703232bdedd935b8c5723760398fbae28a6": {
                "nonce": "0x01",
                "balance": "0x00",
                "code": "0x734e79bc2cd8a7eb5b08159b6d1c42d2b768d9fefd3f600055734e79bc2cd8a7eb5b08159b6d1c42d2b768d9fefd3b6001556000600052600260006000734e79bc2cd8a7eb5b08159b6d1c42d2b768d9fefd3c60005160025560006000600060006000734e79bc2cd8a7eb5b08159b6d1c42d2b768d9fefd620186a0f150734e79bc2cd8a7eb5b08159b6d1c42d2b768d9fefd3f600355734e79bc2cd8a7eb5b08159b6d1c42d2b768d9fefd3b6004556000600052600260006000734e79bc2cd8a7eb5b08159b6d1c42d2b768d9fefd3c600051600555",
                "storage": {
                    "0x00": "0x3a6ca0f2fdba9798ec7350fb5106f9dd4102ec04a5cbd39ec60cd921c3d7af06",
                    "0x01": "0x02",
                    "0x02": "0x32ff000000000000000000000000000000000000000000000000000000000000",
                    "0x03": "0x3a6ca0f2fdba9798ec7350fb5106f9dd4102ec04a5cbd39ec60cd921c3d7af06",
                    "0x04": "0x02",
                    "0x05": "0x32ff000000000000000000000000000000000000000000000000000000000000"
                }
            },
            "0x1ad9bc24818784172ff393bb6f89f094d4d2ca29": {
                "nonce": "0x01",
                "balance": "0x3635c9adc5de8cb5cd",
                "code": "0x",
                "storage": {}
            },
            "0x2adc25665018aa1fe0e6bc666dac8fc2697ff9ba": {
                "nonce": "0x00",
                "balance": "0x1bc16d674edb4a34",
                "code": "0x",
                "storage": {}
            }
        },
        "lastblockhash": "0x77a4a9f7fd39b69547c581bfe0e01b709fd7a60ec92e26fdd46e559ccaa01957",
        "config": {
            "network": "ConstantinopleFix",
            "chainid": "0x01"
        },
        "genesisRLP": "0xf901f9f901f4a00000000000000000000000000000000000000000000000000000000000000000a01dcc4de8dec75d7aab85b567b6ccd41ad312451b948a7413f0a142fd40d49347940000000000000000000000000000000000000000a050d8a7f925a9486e8a2ccc79a1f18840768e39609d7f105a415fddcdf286a107a056e81f171bcc55a6ff8345e692c0f86e5b48e01b996cadc001622fb5e363b421a056e81f171bcc55a6ff8345e692c0f86e5b48e01b996cadc001622fb5e363b421b901000000000000000000000000000000000000000000000000000000000000000000000000000000000000000000000000000000000000000000000000000000000000000000000000000000000000000000000000000000000000000000000000000000000000000000000000000000000000000000000000000000000000000000000000000000000000000000000000000000000000000000000000000000000000000000000000000000000000000000000000000000000000000000000000000000000000000000000000000000000000000000000000000000000000000000000000000000000000000000000000000000000000000000000000000000000083020000808407270e00808000a00000000000000000000000000000000000000000000000000000000000000000880000000000000000c0c0",
        "blocks": [
            {
                "blockHeader": {
                    "parentHash": "0x62ddabd6dfea63a99761ca270a6251d5e67ea9769dea70d3035801bd141d7f49",
                    "uncleHash": "0x1dcc4de8dec75d7aab85b567b6ccd41ad312451b948a7413f0a142fd40d49347",
                    "coinbase": "0x2adc25665018aa1fe0e6bc666dac8fc2697ff9ba",
                    "stateRoot": "0x95c82ce94117b5ca324d14b10be262b01118bab2893f5492d78a068fdd3f3958",
                    "transactionsTrie": "0x6583104a9b7e3be81efdb2d54e2fe43197debe56a2484b8078995806f080a4b9",
                    "receiptTrie": "0x7d2952474316b404826ed23816859f60735c8f9010e0d1a43c3995c8bf97c55c",
                    "bloom": "0x00000000000000000000000000000000000000000000000000000000000000000000000000000000000000000000000000000000000000000000000000000000000000000000000000000000000000000000000000000000000000000000000000000000000000000000000000000000000000000000000000000000000000000000000000000000000000000000000000000000000000000000000000000000000000000000000000000000000000000000000000000000000000000000000000000000000000000000000000000000000000000000000000000000000000000000000000000000000000000000000000000000000000000000000000000000",
                    "difficulty": "0x020000",
                    "number": "0x01",
                    "gasLimit": "0x07270e00",
                    "gasUsed": "0x01edd2",
                    "timestamp": "0x03e8",
                    "extraData": "0x00",
                    "mixHash": "0x0000000000000000000000000000000000000000000000000000000000000000",
                    "nonce": "0x0000000000000000",
                    "hash": "0x77a4a9f7fd39b69547c581bfe0e01b709fd7a60ec92e26fdd46e559ccaa01957"
                },
                "transactions": [
                    {
                        "type": "0x00",
                        "chainId": "0x01",
                        "nonce": "0x00",
                        "gasPrice": "0x0a",
                        "gasLimit": "0x061a80",
                        "to": "0x8efc5703232bdedd935b8c5723760398fbae28a6",
                        "value": "0x00",
                        "data": "0x",
                        "v": "0x25",
                        "r": "0x03789eaaa85adefd28f08c9b7767cc7d4a654db0d6eba18751b9606ad60b5de3",
                        "s": "0x04318cee105bdfe55ad94e4f59793281581af374cd0f4a15fbbf77f951bb85da",
                        "sender": "0x1ad9bc24818784172ff393bb6f89f094d4d2ca29"
                    }
                ],
                "uncleHeaders": [],
                "receipts": [
                    {
                        "transactionHash": "0xec98bfc5b531bf7c7466ac95f1a545c1165f9384ceb2ff27ea01fdb787a0fe5f",
                        "type": "0x00",
                        "cumulativeGasUsed": "0x01edd2",
                        "bloom": "0x00000000000000000000000000000000000000000000000000000000000000000000000000000000000000000000000000000000000000000000000000000000000000000000000000000000000000000000000000000000000000000000000000000000000000000000000000000000000000000000000000000000000000000000000000000000000000000000000000000000000000000000000000000000000000000000000000000000000000000000000000000000000000000000000000000000000000000000000000000000000000000000000000000000000000000000000000000000000000000000000000000000000000000000000000000000",
                        "logs": [],
                        "status": true,
                        "rlp": "0xf90109018301edd2b9010000000000000000000000000000000000000000000000000000000000000000000000000000000000000000000000000000000000000000000000000000000000000000000000000000000000000000000000000000000000000000000000000000000000000000000000000000000000000000000000000000000000000000000000000000000000000000000000000000000000000000000000000000000000000000000000000000000000000000000000000000000000000000000000000000000000000000000000000000000000000000000000000000000000000000000000000000000000000000000000000000000000000000000000000000000000c0"
                    }
                ],
                "rlp": "0xf90261f901f9a062ddabd6dfea63a99761ca270a6251d5e67ea9769dea70d3035801bd141d7f49a01dcc4de8dec75d7aab85b567b6ccd41ad312451b948a7413f0a142fd40d49347942adc25665018aa1fe0e6bc666dac8fc2697ff9baa095c82ce94117b5ca324d14b10be262b01118bab2893f5492d78a068fdd3f3958a06583104a9b7e3be81efdb2d54e2fe43197debe56a2484b8078995806f080a4b9a07d2952474316b404826ed23816859f60735c8f9010e0d1a43c3995c8bf97c55cb901000000000000000000000000000000000000000000000000000000000000000000000000000000000000000000000000000000000000000000000000000000000000000000000000000000000000000000000000000000000000000000000000000000000000000000000000000000000000000000000000000000000000000000000000000000000000000000000000000000000000000000000000000000000000000000000000000000000000000000000000000000000000000000000000000000000000000000000000000000000000000000000000000000000000000000000000000000000000000000000000000000000000000000000000000000000083020000018407270e008301edd28203e800a00000000000000000000000000000000000000000000000000000000000000000880000000000000000f862f860800a83061a80948efc5703232bdedd935b8c5723760398fbae28a6808025a003789eaaa85adefd28f08c9b7767cc7d4a654db0d6eba18751b9606ad60b5de3a004318cee105bdfe55ad94e4f59793281581af374cd0f4a15fbbf77f951bb85dac0",
                "blocknumber": "1"
            }
        ],
        "sealEngine": "NoProof",
        "_info": {
            "hash": "0xe6fc6b682e50ff8e94d1023dd0340466797a85116cf35bc3a4177674c13330d4",
            "fixture-format": "blockchain_test",
            "comment": "`execution-specs` generated test",
            "filling-transition-tool": "2.19.0",
            "description": "Test EXTCODEHASH/EXTCODESIZE/EXTCODECOPY before and after SELFDESTRUCT.\n\nVerifies that code hash, size, and copied code remain unchanged\nwithin the transaction after SELFDESTRUCT is triggered.\nPre-Cancun, all selfdestructed accounts are deleted. From Cancun\n(EIP-6780), only accounts created in the same transaction are\ndeleted; pre-existing accounts persist with balance drained.",
            "url": "https://github.com/ethereum/execution-specs/blob/tests-sn\u00f8bal-devnet-4@v1.0.0/tests/constantinople/eip1052_extcodehash/test_extcodehash.py#L777",
            "metadata": {
                "opcode_count": {}
            },
            "reference-spec": "https://github.com/ethereum/EIPs/blob/master/EIPS/eip-1052.md",
            "reference-spec-version": "2dcbc7ce1563e9624e137e9d447374600af876fa"
        }
    }
}