{
    "tests/constantinople/eip1052_extcodehash/test_extcodehash.py::test_extcodehash_call_to_selfdestruct[fork_ConstantinopleFix-call_opcode_CALL-blockchain_test_from_state_test]": {
        "network": "ConstantinopleFix",
        "genesisBlockHeader": {
            "parentHash": "0x0000000000000000000000000000000000000000000000000000000000000000",
            "uncleHash": "0x1dcc4de8dec75d7aab85b567b6ccd41ad312451b948a7413f0a142fd40d49347",
            "coinbase": "0x0000000000000000000000000000000000000000",
            "stateRoot": "0x78a3845afb7586432113a517308dc26be952cf484d3db716646296dcd8c77ede",
            "transactionsTrie": "0x56e81f171bcc55a6ff8345e692c0f86e5b48e01b996cadc001622fb5e363b421",
            "receiptTrie": "0x56e81f171bcc55a6ff8345e692c0f86e5b48e01b996cadc001622fb5e363b421",
            "bloom": "0x00000000000000000000000000000000000000000000000000000000000000000000000000000000000000000000000000000000000000000000000000000000000000000000000000000000000000000000000000000000000000000000000000000000000000000000000000000000000000000000000000000000000000000000000000000000000000000000000000000000000000000000000000000000000000000000000000000000000000000000000000000000000000000000000000000000000000000000000000000000000000000000000000000000000000000000000000000000000000000000000000000000000000000000000000000000",
            "difficulty": "0x020000",
            "number": "0x00",
            "gasLimit": "0x07270e00",
            "gasUsed": "0x00",
            "timestamp": "0x00",
            "extraData": "0x00",
            "mixHash": "0x0000000000000000000000000000000000000000000000000000000000000000",
            "nonce": "0x0000000000000000",
            "hash": "0x64722e50637998235838075892e5a75bd8dcd9f0ac7e7d92d9a09c52a7ffb7eb"
        },
        "pre": {
            "0x9e2d765f67baf5402618db6ce0a535982a53c6fc": {
                "nonce": "0x01",
                "balance": "0x014b230ce3",
                "code": "0x73c0f6dc9e5836f54caadbf59cc69346c508e1992bff",
                "storage": {}
            },
            "0x6dad7963db8cb45d9d98675b76bfe220984af94d": {
                "nonce": "0x01",
                "balance": "0x00",
                "code": "0x60006000600060006000739e2d765f67baf5402618db6ce0a535982a53c6fc62028488f1600055739e2d765f67baf5402618db6ce0a535982a53c6fc3f600155",
                "storage": {}
            },
            "0x1ad9bc24818784172ff393bb6f89f094d4d2ca29": {
                "nonce": "0x00",
                "balance": "0x3635c9adc5dea00000",
                "code": "0x",
                "storage": {}
            }
        },
        "postState": {
            "0x6dad7963db8cb45d9d98675b76bfe220984af94d": {
                "nonce": "0x01",
                "balance": "0x00",
                "code": "0x60006000600060006000739e2d765f67baf5402618db6ce0a535982a53c6fc62028488f1600055739e2d765f67baf5402618db6ce0a535982a53c6fc3f600155",
                "storage": {
                    "0x00": "0x01",
                    "0x01": "0x6b4ff852eddedbf436c55cddbc4c143cd2e28485c7e292175f9cc5817fc819ad"
                }
            },
            "0x1ad9bc24818784172ff393bb6f89f094d4d2ca29": {
                "nonce": "0x01",
                "balance": "0x3635c9adc5de959a8e",
                "code": "0x",
                "storage": {}
            },
            "0xc0f6dc9e5836f54caadbf59cc69346c508e1992b": {
                "nonce": "0x00",
                "balance": "0x014b230ce3",
                "code": "0x",
                "storage": {}
            },
            "0x2adc25665018aa1fe0e6bc666dac8fc2697ff9ba": {
                "nonce": "0x00",
                "balance": "0x1bc16d674ed26572",
                "code": "0x",
                "storage": {}
            }
        },
        "lastblockhash": "0x0659efc6f219e295b637ff969976e0698cb1d4b25bc67e94b9d500e21b2c4582",
        "config": {
            "network": "ConstantinopleFix",
            "chainid": "0x01"
        },
        "genesisRLP": "0xf901f9f901f4a00000000000000000000000000000000000000000000000000000000000000000a01dcc4de8dec75d7aab85b567b6ccd41ad312451b948a7413f0a142fd40d49347940000000000000000000000000000000000000000a078a3845afb7586432113a517308dc26be952cf484d3db716646296dcd8c77edea056e81f171bcc55a6ff8345e692c0f86e5b48e01b996cadc001622fb5e363b421a056e81f171bcc55a6ff8345e692c0f86e5b48e01b996cadc001622fb5e363b421b901000000000000000000000000000000000000000000000000000000000000000000000000000000000000000000000000000000000000000000000000000000000000000000000000000000000000000000000000000000000000000000000000000000000000000000000000000000000000000000000000000000000000000000000000000000000000000000000000000000000000000000000000000000000000000000000000000000000000000000000000000000000000000000000000000000000000000000000000000000000000000000000000000000000000000000000000000000000000000000000000000000000000000000000000000000000083020000808407270e00808000a00000000000000000000000000000000000000000000000000000000000000000880000000000000000c0c0",
        "blocks": [
            {
                "blockHeader": {
                    "parentHash": "0x64722e50637998235838075892e5a75bd8dcd9f0ac7e7d92d9a09c52a7ffb7eb",
                    "uncleHash": "0x1dcc4de8dec75d7aab85b567b6ccd41ad312451b948a7413f0a142fd40d49347",
                    "coinbase": "0x2adc25665018aa1fe0e6bc666dac8fc2697ff9ba",
                    "stateRoot": "0x6cdd298193bd90fcf31cfe6cb0596a0772f86d111b2c52a3025e316febf0a9c2",
                    "transactionsTrie": "0xbf75d4e54078ff0a72a64c8f74d7af094ff8e26f02d6c6f49c3e174e3c0405e9",
                    "receiptTrie": "0x2a3fff174059a46d0abfa2ab4164b6f2dd32ee6e74b83f2e4c2114bfb714a05e",
                    "bloom": "0x00000000000000000000000000000000000000000000000000000000000000000000000000000000000000000000000000000000000000000000000000000000000000000000000000000000000000000000000000000000000000000000000000000000000000000000000000000000000000000000000000000000000000000000000000000000000000000000000000000000000000000000000000000000000000000000000000000000000000000000000000000000000000000000000000000000000000000000000000000000000000000000000000000000000000000000000000000000000000000000000000000000000000000000000000000000",
                    "difficulty": "0x020000",
                    "number": "0x01",
                    "gasLimit": "0x07270e00",
                    "gasUsed": "0x010a25",
                    "timestamp": "0x03e8",
                    "extraData": "0x00",
                    "mixHash": "0x0000000000000000000000000000000000000000000000000000000000000000",
                    "nonce": "0x0000000000000000",
                    "hash": "0x0659efc6f219e295b637ff969976e0698cb1d4b25bc67e94b9d500e21b2c4582"
                },
                "transactions": [
                    {
                        "type": "0x00",
                        "chainId": "0x01",
                        "nonce": "0x00",
                        "gasPrice": "0x0a",
                        "gasLimit": "0x061a80",
                        "to": "0x6dad7963db8cb45d9d98675b76bfe220984af94d",
                        "value": "0x00",
                        "data": "0x",
                        "v": "0x25",
                        "r": "0x485dfa5911f6ee0d8fef9f4f46a8ea1085af9447d9396b3604515a26f5e8f77f",
                        "s": "0x1119e5e8bf3d3a9080474a572d471926a9d5f9a97e6465ee109acd7597d46b48",
                        "sender": "0x1ad9bc24818784172ff393bb6f89f094d4d2ca29"
                    }
                ],
                "uncleHeaders": [],
                "receipts": [
                    {
                        "transactionHash": "0x0b446247b1908541a51d0bb1d580143586012895f64f4556c3e5d0edc87cf9c2",
                        "type": "0x00",
                        "cumulativeGasUsed": "0x010a25",
                        "bloom": "0x00000000000000000000000000000000000000000000000000000000000000000000000000000000000000000000000000000000000000000000000000000000000000000000000000000000000000000000000000000000000000000000000000000000000000000000000000000000000000000000000000000000000000000000000000000000000000000000000000000000000000000000000000000000000000000000000000000000000000000000000000000000000000000000000000000000000000000000000000000000000000000000000000000000000000000000000000000000000000000000000000000000000000000000000000000000",
                        "logs": [],
                        "status": true,
                        "rlp": "0xf901090183010a25b9010000000000000000000000000000000000000000000000000000000000000000000000000000000000000000000000000000000000000000000000000000000000000000000000000000000000000000000000000000000000000000000000000000000000000000000000000000000000000000000000000000000000000000000000000000000000000000000000000000000000000000000000000000000000000000000000000000000000000000000000000000000000000000000000000000000000000000000000000000000000000000000000000000000000000000000000000000000000000000000000000000000000000000000000000000000000c0"
                    }
                ],
                "rlp": "0xf90261f901f9a064722e50637998235838075892e5a75bd8dcd9f0ac7e7d92d9a09c52a7ffb7eba01dcc4de8dec75d7aab85b567b6ccd41ad312451b948a7413f0a142fd40d49347942adc25665018aa1fe0e6bc666dac8fc2697ff9baa06cdd298193bd90fcf31cfe6cb0596a0772f86d111b2c52a3025e316febf0a9c2a0bf75d4e54078ff0a72a64c8f74d7af094ff8e26f02d6c6f49c3e174e3c0405e9a02a3fff174059a46d0abfa2ab4164b6f2dd32ee6e74b83f2e4c2114bfb714a05eb901000000000000000000000000000000000000000000000000000000000000000000000000000000000000000000000000000000000000000000000000000000000000000000000000000000000000000000000000000000000000000000000000000000000000000000000000000000000000000000000000000000000000000000000000000000000000000000000000000000000000000000000000000000000000000000000000000000000000000000000000000000000000000000000000000000000000000000000000000000000000000000000000000000000000000000000000000000000000000000000000000000000000000000000000000000000083020000018407270e0083010a258203e800a00000000000000000000000000000000000000000000000000000000000000000880000000000000000f862f860800a83061a80946dad7963db8cb45d9d98675b76bfe220984af94d808025a0485dfa5911f6ee0d8fef9f4f46a8ea1085af9447d9396b3604515a26f5e8f77fa01119e5e8bf3d3a9080474a572d471926a9d5f9a97e6465ee109acd7597d46b48c0",
                "blocknumber": "1"
            }
        ],
        "sealEngine": "NoProof",
        "_info": {
            "hash": "0x94177f0891650e069c7eb72cc102160c6fbe696e1ff65edb0468886ecab089ff",
            "fixture-format": "blockchain_test",
            "comment": "`execution-specs` generated test",
            "filling-transition-tool": "2.19.0",
            "description": "Test EXTCODEHASH after calling a contract that selfdestructs.\n\nCall a contract containing SELFDESTRUCT using each call type, then\ncheck EXTCODEHASH. The hash is always returned because the check\nhappens within the same transaction. STATICCALL fails because\nSELFDESTRUCT modifies state. Pre-Cancun, CALLCODE/DELEGATECALL\nexecute SELFDESTRUCT in the caller's context, destroying the test\ncontract at end of transaction.",
            "url": "https://github.com/ethereum/execution-specs/blob/tests-sn\u00f8bal-devnet-4@v1.0.0/tests/constantinople/eip1052_extcodehash/test_extcodehash.py#L1319",
            "metadata": {
                "opcode_count": {}
            },
            "reference-spec": "https://github.com/ethereum/EIPs/blob/master/EIPS/eip-1052.md",
            "reference-spec-version": "2dcbc7ce1563e9624e137e9d447374600af876fa"
        }
    },
    "tests/constantinople/eip1052_extcodehash/test_extcodehash.py::test_extcodehash_call_to_selfdestruct[fork_ConstantinopleFix-call_opcode_CALLCODE-blockchain_test_from_state_test]": {
        "network": "ConstantinopleFix",
        "genesisBlockHeader": {
            "parentHash": "0x0000000000000000000000000000000000000000000000000000000000000000",
            "uncleHash": "0x1dcc4de8dec75d7aab85b567b6ccd41ad312451b948a7413f0a142fd40d49347",
            "coinbase": "0x0000000000000000000000000000000000000000",
            "stateRoot": "0xdc7dfc72f4b9066b650157a2c32870ae7c48afe5f737b6c0592c5e387db68747",
            "transactionsTrie": "0x56e81f171bcc55a6ff8345e692c0f86e5b48e01b996cadc001622fb5e363b421",
            "receiptTrie": "0x56e81f171bcc55a6ff8345e692c0f86e5b48e01b996cadc001622fb5e363b421",
            "bloom": "0x00000000000000000000000000000000000000000000000000000000000000000000000000000000000000000000000000000000000000000000000000000000000000000000000000000000000000000000000000000000000000000000000000000000000000000000000000000000000000000000000000000000000000000000000000000000000000000000000000000000000000000000000000000000000000000000000000000000000000000000000000000000000000000000000000000000000000000000000000000000000000000000000000000000000000000000000000000000000000000000000000000000000000000000000000000000",
            "difficulty": "0x020000",
            "number": "0x00",
            "gasLimit": "0x07270e00",
            "gasUsed": "0x00",
            "timestamp": "0x00",
            "extraData": "0x00",
            "mixHash": "0x0000000000000000000000000000000000000000000000000000000000000000",
            "nonce": "0x0000000000000000",
            "hash": "0x92cc07e34d63fcad778826db793db6f5a881c36783773efecabe28acd976a75f"
        },
        "pre": {
            "0x9e2d765f67baf5402618db6ce0a535982a53c6fc": {
                "nonce": "0x01",
                "balance": "0x014b230ce3",
                "code": "0x73c0f6dc9e5836f54caadbf59cc69346c508e1992bff",
                "storage": {}
            },
            "0x1977c5fd811d61d5faf60cb2d9fc75a173e87049": {
                "nonce": "0x01",
                "balance": "0x00",
                "code": "0x60006000600060006000739e2d765f67baf5402618db6ce0a535982a53c6fc62028488f2600055739e2d765f67baf5402618db6ce0a535982a53c6fc3f600155",
                "storage": {}
            },
            "0x1ad9bc24818784172ff393bb6f89f094d4d2ca29": {
                "nonce": "0x00",
                "balance": "0x3635c9adc5dea00000",
                "code": "0x",
                "storage": {}
            }
        },
        "postState": {
            "0x9e2d765f67baf5402618db6ce0a535982a53c6fc": {
                "nonce": "0x01",
                "balance": "0x014b230ce3",
                "code": "0x73c0f6dc9e5836f54caadbf59cc69346c508e1992bff",
                "storage": {}
            },
            "0x1ad9bc24818784172ff393bb6f89f094d4d2ca29": {
                "nonce": "0x01",
                "balance": "0x3635c9adc5de996b1e",
                "code": "0x",
                "storage": {}
            },
            "0x2adc25665018aa1fe0e6bc666dac8fc2697ff9ba": {
                "nonce": "0x00",
                "balance": "0x1bc16d674ece94e2",
                "code": "0x",
                "storage": {}
            }
        },
        "lastblockhash": "0x020d853b68bd2404aad8a75779b40a084f7f92595ff5401c3f9b05268401241d",
        "config": {
            "network": "ConstantinopleFix",
            "chainid": "0x01"
        },
        "genesisRLP": "0xf901f9f901f4a00000000000000000000000000000000000000000000000000000000000000000a01dcc4de8dec75d7aab85b567b6ccd41ad312451b948a7413f0a142fd40d49347940000000000000000000000000000000000000000a0dc7dfc72f4b9066b650157a2c32870ae7c48afe5f737b6c0592c5e387db68747a056e81f171bcc55a6ff8345e692c0f86e5b48e01b996cadc001622fb5e363b421a056e81f171bcc55a6ff8345e692c0f86e5b48e01b996cadc001622fb5e363b421b901000000000000000000000000000000000000000000000000000000000000000000000000000000000000000000000000000000000000000000000000000000000000000000000000000000000000000000000000000000000000000000000000000000000000000000000000000000000000000000000000000000000000000000000000000000000000000000000000000000000000000000000000000000000000000000000000000000000000000000000000000000000000000000000000000000000000000000000000000000000000000000000000000000000000000000000000000000000000000000000000000000000000000000000000000000000083020000808407270e00808000a00000000000000000000000000000000000000000000000000000000000000000880000000000000000c0c0",
        "blocks": [
            {
                "blockHeader": {
                    "parentHash": "0x92cc07e34d63fcad778826db793db6f5a881c36783773efecabe28acd976a75f",
                    "uncleHash": "0x1dcc4de8dec75d7aab85b567b6ccd41ad312451b948a7413f0a142fd40d49347",
                    "coinbase": "0x2adc25665018aa1fe0e6bc666dac8fc2697ff9ba",
                    "stateRoot": "0x2fb8a9ff391ca30d6969ae614b220e7fd2f1a77ddfa5420742e7df3c1ad57c82",
                    "transactionsTrie": "0xb6763d917b3f0eaa4b8010e88f51511d7049e54010c6f50442ef60b7451e3209",
                    "receiptTrie": "0xc144414b83c0f82b804bf811edc01a7b6277a7e9e00bade6cc3f39268197cb05",
                    "bloom": "0x00000000000000000000000000000000000000000000000000000000000000000000000000000000000000000000000000000000000000000000000000000000000000000000000000000000000000000000000000000000000000000000000000000000000000000000000000000000000000000000000000000000000000000000000000000000000000000000000000000000000000000000000000000000000000000000000000000000000000000000000000000000000000000000000000000000000000000000000000000000000000000000000000000000000000000000000000000000000000000000000000000000000000000000000000000000",
                    "difficulty": "0x020000",
                    "number": "0x01",
                    "gasLimit": "0x07270e00",
                    "gasUsed": "0xa87d",
                    "timestamp": "0x03e8",
                    "extraData": "0x00",
                    "mixHash": "0x0000000000000000000000000000000000000000000000000000000000000000",
                    "nonce": "0x0000000000000000",
                    "hash": "0x020d853b68bd2404aad8a75779b40a084f7f92595ff5401c3f9b05268401241d"
                },
                "transactions": [
                    {
                        "type": "0x00",
                        "chainId": "0x01",
                        "nonce": "0x00",
                        "gasPrice": "0x0a",
                        "gasLimit": "0x061a80",
                        "to": "0x1977c5fd811d61d5faf60cb2d9fc75a173e87049",
                        "value": "0x00",
                        "data": "0x",
                        "v": "0x25",
                        "r": "0xd44ef8300e5507d3cbba218f3ac5b47faeadc78311c1f82ec24582e59361c30b",
                        "s": "0x78271583a2269628d4464d57822a66f3e5a82645c80ea44ca576daa0128c7c4a",
                        "sender": "0x1ad9bc24818784172ff393bb6f89f094d4d2ca29"
                    }
                ],
                "uncleHeaders": [],
                "receipts": [
                    {
                        "transactionHash": "0xdc937838e8159e0b9caea381c151cd4a684dcf392be147a109e31a75811fc689",
                        "type": "0x00",
                        "cumulativeGasUsed": "0xa87d",
                        "bloom": "0x00000000000000000000000000000000000000000000000000000000000000000000000000000000000000000000000000000000000000000000000000000000000000000000000000000000000000000000000000000000000000000000000000000000000000000000000000000000000000000000000000000000000000000000000000000000000000000000000000000000000000000000000000000000000000000000000000000000000000000000000000000000000000000000000000000000000000000000000000000000000000000000000000000000000000000000000000000000000000000000000000000000000000000000000000000000",
                        "logs": [],
                        "status": true,
                        "rlp": "0xf901080182a87db9010000000000000000000000000000000000000000000000000000000000000000000000000000000000000000000000000000000000000000000000000000000000000000000000000000000000000000000000000000000000000000000000000000000000000000000000000000000000000000000000000000000000000000000000000000000000000000000000000000000000000000000000000000000000000000000000000000000000000000000000000000000000000000000000000000000000000000000000000000000000000000000000000000000000000000000000000000000000000000000000000000000000000000000000000000000000c0"
                    }
                ],
                "rlp": "0xf90260f901f8a092cc07e34d63fcad778826db793db6f5a881c36783773efecabe28acd976a75fa01dcc4de8dec75d7aab85b567b6ccd41ad312451b948a7413f0a142fd40d49347942adc25665018aa1fe0e6bc666dac8fc2697ff9baa02fb8a9ff391ca30d6969ae614b220e7fd2f1a77ddfa5420742e7df3c1ad57c82a0b6763d917b3f0eaa4b8010e88f51511d7049e54010c6f50442ef60b7451e3209a0c144414b83c0f82b804bf811edc01a7b6277a7e9e00bade6cc3f39268197cb05b901000000000000000000000000000000000000000000000000000000000000000000000000000000000000000000000000000000000000000000000000000000000000000000000000000000000000000000000000000000000000000000000000000000000000000000000000000000000000000000000000000000000000000000000000000000000000000000000000000000000000000000000000000000000000000000000000000000000000000000000000000000000000000000000000000000000000000000000000000000000000000000000000000000000000000000000000000000000000000000000000000000000000000000000000000000000083020000018407270e0082a87d8203e800a00000000000000000000000000000000000000000000000000000000000000000880000000000000000f862f860800a83061a80941977c5fd811d61d5faf60cb2d9fc75a173e87049808025a0d44ef8300e5507d3cbba218f3ac5b47faeadc78311c1f82ec24582e59361c30ba078271583a2269628d4464d57822a66f3e5a82645c80ea44ca576daa0128c7c4ac0",
                "blocknumber": "1"
            }
        ],
        "sealEngine": "NoProof",
        "_info": {
            "hash": "0x05b0c8ecdb62509b3e39dad2c3befefbd7a8446a9eda3ccadbd65bd075cf43c3",
            "fixture-format": "blockchain_test",
            "comment": "`execution-specs` generated test",
            "filling-transition-tool": "2.19.0",
            "description": "Test EXTCODEHASH after calling a contract that selfdestructs.\n\nCall a contract containing SELFDESTRUCT using each call type, then\ncheck EXTCODEHASH. The hash is always returned because the check\nhappens within the same transaction. STATICCALL fails because\nSELFDESTRUCT modifies state. Pre-Cancun, CALLCODE/DELEGATECALL\nexecute SELFDESTRUCT in the caller's context, destroying the test\ncontract at end of transaction.",
            "url": "https://github.com/ethereum/execution-specs/blob/tests-sn\u00f8bal-devnet-4@v1.0.0/tests/constantinople/eip1052_extcodehash/test_extcodehash.py#L1319",
            "metadata": {
                "opcode_count": {}
            },
            "reference-spec": "https://github.com/ethereum/EIPs/blob/master/EIPS/eip-1052.md",
            "reference-spec-version": "2dcbc7ce1563e9624e137e9d447374600af876fa"
        }
    },
    "tests/constantinople/eip1052_extcodehash/test_extcodehash.py::test_extcodehash_call_to_selfdestruct[fork_ConstantinopleFix-call_opcode_DELEGATECALL-blockchain_test_from_state_test]": {
        "network": "ConstantinopleFix",
        "genesisBlockHeader": {
            "parentHash": "0x0000000000000000000000000000000000000000000000000000000000000000",
            "uncleHash": "0x1dcc4de8dec75d7aab85b567b6ccd41ad312451b948a7413f0a142fd40d49347",
            "coinbase": "0x0000000000000000000000000000000000000000",
            "stateRoot": "0xc29290c06ff043755c4fbab0769aa84c9da1167138cfb3498d216b4de18e15b8",
            "transactionsTrie": "0x56e81f171bcc55a6ff8345e692c0f86e5b48e01b996cadc001622fb5e363b421",
            "receiptTrie": "0x56e81f171bcc55a6ff8345e692c0f86e5b48e01b996cadc001622fb5e363b421",
            "bloom": "0x00000000000000000000000000000000000000000000000000000000000000000000000000000000000000000000000000000000000000000000000000000000000000000000000000000000000000000000000000000000000000000000000000000000000000000000000000000000000000000000000000000000000000000000000000000000000000000000000000000000000000000000000000000000000000000000000000000000000000000000000000000000000000000000000000000000000000000000000000000000000000000000000000000000000000000000000000000000000000000000000000000000000000000000000000000000",
            "difficulty": "0x020000",
            "number": "0x00",
            "gasLimit": "0x07270e00",
            "gasUsed": "0x00",
            "timestamp": "0x00",
            "extraData": "0x00",
            "mixHash": "0x0000000000000000000000000000000000000000000000000000000000000000",
            "nonce": "0x0000000000000000",
            "hash": "0x6d0449622be7a2b54c64960cf1da7daadeaed2ef2286554b8f39c7acba5f3d9f"
        },
        "pre": {
            "0x9e2d765f67baf5402618db6ce0a535982a53c6fc": {
                "nonce": "0x01",
                "balance": "0x014b230ce3",
                "code": "0x73c0f6dc9e5836f54caadbf59cc69346c508e1992bff",
                "storage": {}
            },
            "0x7b9d51726205279d2c44af47657f7e70937647fd": {
                "nonce": "0x01",
                "balance": "0x00",
                "code": "0x6000600060006000739e2d765f67baf5402618db6ce0a535982a53c6fc62028488f4600055739e2d765f67baf5402618db6ce0a535982a53c6fc3f600155",
                "storage": {}
            },
            "0x1ad9bc24818784172ff393bb6f89f094d4d2ca29": {
                "nonce": "0x00",
                "balance": "0x3635c9adc5dea00000",
                "code": "0x",
                "storage": {}
            }
        },
        "postState": {
            "0x9e2d765f67baf5402618db6ce0a535982a53c6fc": {
                "nonce": "0x01",
                "balance": "0x014b230ce3",
                "code": "0x73c0f6dc9e5836f54caadbf59cc69346c508e1992bff",
                "storage": {}
            },
            "0x1ad9bc24818784172ff393bb6f89f094d4d2ca29": {
                "nonce": "0x01",
                "balance": "0x3635c9adc5de996b3c",
                "code": "0x",
                "storage": {}
            },
            "0x2adc25665018aa1fe0e6bc666dac8fc2697ff9ba": {
                "nonce": "0x00",
                "balance": "0x1bc16d674ece94c4",
                "code": "0x",
                "storage": {}
            }
        },
        "lastblockhash": "0xb1162a3fdbc168dc19c12592a4a035128b28ca07a205bcaedc91993811c866b9",
        "config": {
            "network": "ConstantinopleFix",
            "chainid": "0x01"
        },
        "genesisRLP": "0xf901f9f901f4a00000000000000000000000000000000000000000000000000000000000000000a01dcc4de8dec75d7aab85b567b6ccd41ad312451b948a7413f0a142fd40d49347940000000000000000000000000000000000000000a0c29290c06ff043755c4fbab0769aa84c9da1167138cfb3498d216b4de18e15b8a056e81f171bcc55a6ff8345e692c0f86e5b48e01b996cadc001622fb5e363b421a056e81f171bcc55a6ff8345e692c0f86e5b48e01b996cadc001622fb5e363b421b901000000000000000000000000000000000000000000000000000000000000000000000000000000000000000000000000000000000000000000000000000000000000000000000000000000000000000000000000000000000000000000000000000000000000000000000000000000000000000000000000000000000000000000000000000000000000000000000000000000000000000000000000000000000000000000000000000000000000000000000000000000000000000000000000000000000000000000000000000000000000000000000000000000000000000000000000000000000000000000000000000000000000000000000000000000000083020000808407270e00808000a00000000000000000000000000000000000000000000000000000000000000000880000000000000000c0c0",
        "blocks": [
            {
                "blockHeader": {
                    "parentHash": "0x6d0449622be7a2b54c64960cf1da7daadeaed2ef2286554b8f39c7acba5f3d9f",
                    "uncleHash": "0x1dcc4de8dec75d7aab85b567b6ccd41ad312451b948a7413f0a142fd40d49347",
                    "coinbase": "0x2adc25665018aa1fe0e6bc666dac8fc2697ff9ba",
                    "stateRoot": "0x67d1b7f2257b3b362144137b67cce9e727ce3f8fceeed49625df2ee045a08abe",
                    "transactionsTrie": "0xd6e5b535b369ab71e4953c2fbe0306467f8ad269e7f992801cb8dac9c1b1ad65",
                    "receiptTrie": "0x1fac6359905c0d09d1d93e5edc8a5633e141f9d71a6ea6ecf9e04ef68fe55e48",
                    "bloom": "0x00000000000000000000000000000000000000000000000000000000000000000000000000000000000000000000000000000000000000000000000000000000000000000000000000000000000000000000000000000000000000000000000000000000000000000000000000000000000000000000000000000000000000000000000000000000000000000000000000000000000000000000000000000000000000000000000000000000000000000000000000000000000000000000000000000000000000000000000000000000000000000000000000000000000000000000000000000000000000000000000000000000000000000000000000000000",
                    "difficulty": "0x020000",
                    "number": "0x01",
                    "gasLimit": "0x07270e00",
                    "gasUsed": "0xa87a",
                    "timestamp": "0x03e8",
                    "extraData": "0x00",
                    "mixHash": "0x0000000000000000000000000000000000000000000000000000000000000000",
                    "nonce": "0x0000000000000000",
                    "hash": "0xb1162a3fdbc168dc19c12592a4a035128b28ca07a205bcaedc91993811c866b9"
                },
                "transactions": [
                    {
                        "type": "0x00",
                        "chainId": "0x01",
                        "nonce": "0x00",
                        "gasPrice": "0x0a",
                        "gasLimit": "0x061a80",
                        "to": "0x7b9d51726205279d2c44af47657f7e70937647fd",
                        "value": "0x00",
                        "data": "0x",
                        "v": "0x26",
                        "r": "0x483bd9f877e385ac7ed7710963c27a6089322808a4f6d2c81ba789bd8a52b665",
                        "s": "0x51eeb66fd3b27aaa2d83d74eeba252a4bbd2fc9b8589abe8638a709cb455b04e",
                        "sender": "0x1ad9bc24818784172ff393bb6f89f094d4d2ca29"
                    }
                ],
                "uncleHeaders": [],
                "receipts": [
                    {
                        "transactionHash": "0xa86c236a67f324126cec1a1375fed1467c7a8add7dbf6bd6ea42aa44e4fbb5c8",
                        "type": "0x00",
                        "cumulativeGasUsed": "0xa87a",
                        "bloom": "0x00000000000000000000000000000000000000000000000000000000000000000000000000000000000000000000000000000000000000000000000000000000000000000000000000000000000000000000000000000000000000000000000000000000000000000000000000000000000000000000000000000000000000000000000000000000000000000000000000000000000000000000000000000000000000000000000000000000000000000000000000000000000000000000000000000000000000000000000000000000000000000000000000000000000000000000000000000000000000000000000000000000000000000000000000000000",
                        "logs": [],
                        "status": true,
                        "rlp": "0xf901080182a87ab9010000000000000000000000000000000000000000000000000000000000000000000000000000000000000000000000000000000000000000000000000000000000000000000000000000000000000000000000000000000000000000000000000000000000000000000000000000000000000000000000000000000000000000000000000000000000000000000000000000000000000000000000000000000000000000000000000000000000000000000000000000000000000000000000000000000000000000000000000000000000000000000000000000000000000000000000000000000000000000000000000000000000000000000000000000000000c0"
                    }
                ],
                "rlp": "0xf90260f901f8a06d0449622be7a2b54c64960cf1da7daadeaed2ef2286554b8f39c7acba5f3d9fa01dcc4de8dec75d7aab85b567b6ccd41ad312451b948a7413f0a142fd40d49347942adc25665018aa1fe0e6bc666dac8fc2697ff9baa067d1b7f2257b3b362144137b67cce9e727ce3f8fceeed49625df2ee045a08abea0d6e5b535b369ab71e4953c2fbe0306467f8ad269e7f992801cb8dac9c1b1ad65a01fac6359905c0d09d1d93e5edc8a5633e141f9d71a6ea6ecf9e04ef68fe55e48b901000000000000000000000000000000000000000000000000000000000000000000000000000000000000000000000000000000000000000000000000000000000000000000000000000000000000000000000000000000000000000000000000000000000000000000000000000000000000000000000000000000000000000000000000000000000000000000000000000000000000000000000000000000000000000000000000000000000000000000000000000000000000000000000000000000000000000000000000000000000000000000000000000000000000000000000000000000000000000000000000000000000000000000000000000000000083020000018407270e0082a87a8203e800a00000000000000000000000000000000000000000000000000000000000000000880000000000000000f862f860800a83061a80947b9d51726205279d2c44af47657f7e70937647fd808026a0483bd9f877e385ac7ed7710963c27a6089322808a4f6d2c81ba789bd8a52b665a051eeb66fd3b27aaa2d83d74eeba252a4bbd2fc9b8589abe8638a709cb455b04ec0",
                "blocknumber": "1"
            }
        ],
        "sealEngine": "NoProof",
        "_info": {
            "hash": "0x3f47cd71b43fb64412aad595986fd06e480fc1e40a83129e6e7004d6133d5830",
            "fixture-format": "blockchain_test",
            "comment": "`execution-specs` generated test",
            "filling-transition-tool": "2.19.0",
            "description": "Test EXTCODEHASH after calling a contract that selfdestructs.\n\nCall a contract containing SELFDESTRUCT using each call type, then\ncheck EXTCODEHASH. The hash is always returned because the check\nhappens within the same transaction. STATICCALL fails because\nSELFDESTRUCT modifies state. Pre-Cancun, CALLCODE/DELEGATECALL\nexecute SELFDESTRUCT in the caller's context, destroying the test\ncontract at end of transaction.",
            "url": "https://github.com/ethereum/execution-specs/blob/tests-sn\u00f8bal-devnet-4@v1.0.0/tests/constantinople/eip1052_extcodehash/test_extcodehash.py#L1319",
            "metadata": {
                "opcode_count": {}
            },
            "reference-spec": "https://github.com/ethereum/EIPs/blob/master/EIPS/eip-1052.md",
            "reference-spec-version": "2dcbc7ce1563e9624e137e9d447374600af876fa"
        }
    },
    "tests/constantinople/eip1052_extcodehash/test_extcodehash.py::test_extcodehash_call_to_selfdestruct[fork_ConstantinopleFix-call_opcode_STATICCALL-blockchain_test_from_state_test]": {
        "network": "ConstantinopleFix",
        "genesisBlockHeader": {
            "parentHash": "0x0000000000000000000000000000000000000000000000000000000000000000",
            "uncleHash": "0x1dcc4de8dec75d7aab85b567b6ccd41ad312451b948a7413f0a142fd40d49347",
            "coinbase": "0x0000000000000000000000000000000000000000",
            "stateRoot": "0xe8cb6038809e74de495e62c2cd3273ba53914ccf0a40c02dc918a8cb2e734840",
            "transactionsTrie": "0x56e81f171bcc55a6ff8345e692c0f86e5b48e01b996cadc001622fb5e363b421",
            "receiptTrie": "0x56e81f171bcc55a6ff8345e692c0f86e5b48e01b996cadc001622fb5e363b421",
            "bloom": "0x00000000000000000000000000000000000000000000000000000000000000000000000000000000000000000000000000000000000000000000000000000000000000000000000000000000000000000000000000000000000000000000000000000000000000000000000000000000000000000000000000000000000000000000000000000000000000000000000000000000000000000000000000000000000000000000000000000000000000000000000000000000000000000000000000000000000000000000000000000000000000000000000000000000000000000000000000000000000000000000000000000000000000000000000000000000",
            "difficulty": "0x020000",
            "number": "0x00",
            "gasLimit": "0x07270e00",
            "gasUsed": "0x00",
            "timestamp": "0x00",
            "extraData": "0x00",
            "mixHash": "0x0000000000000000000000000000000000000000000000000000000000000000",
            "nonce": "0x0000000000000000",
            "hash": "0x17cad4c1fee8f3fb02fc0600b41b58ca5426202d6f5c57dcbdced8642cf45355"
        },
        "pre": {
            "0x9e2d765f67baf5402618db6ce0a535982a53c6fc": {
                "nonce": "0x01",
                "balance": "0x014b230ce3",
                "code": "0x73c0f6dc9e5836f54caadbf59cc69346c508e1992bff",
                "storage": {}
            },
            "0xb014f568e0da258ad40ce710d237cccc1adc1a6e": {
                "nonce": "0x01",
                "balance": "0x00",
                "code": "0x6000600060006000739e2d765f67baf5402618db6ce0a535982a53c6fc62028488fa600055739e2d765f67baf5402618db6ce0a535982a53c6fc3f600155",
                "storage": {
                    "0x00": "0xba5e"
                }
            },
            "0x1ad9bc24818784172ff393bb6f89f094d4d2ca29": {
                "nonce": "0x00",
                "balance": "0x3635c9adc5dea00000",
                "code": "0x",
                "storage": {}
            }
        },
        "postState": {
            "0x9e2d765f67baf5402618db6ce0a535982a53c6fc": {
                "nonce": "0x01",
                "balance": "0x014b230ce3",
                "code": "0x73c0f6dc9e5836f54caadbf59cc69346c508e1992bff",
                "storage": {}
            },
            "0xb014f568e0da258ad40ce710d237cccc1adc1a6e": {
                "nonce": "0x01",
                "balance": "0x00",
                "code": "0x6000600060006000739e2d765f67baf5402618db6ce0a535982a53c6fc62028488fa600055739e2d765f67baf5402618db6ce0a535982a53c6fc3f600155",
                "storage": {
                    "0x01": "0x6b4ff852eddedbf436c55cddbc4c143cd2e28485c7e292175f9cc5817fc819ad"
                }
            },
            "0x1ad9bc24818784172ff393bb6f89f094d4d2ca29": {
                "nonce": "0x01",
                "balance": "0x3635c9adc5de81ebba",
                "code": "0x",
                "storage": {}
            },
            "0x2adc25665018aa1fe0e6bc666dac8fc2697ff9ba": {
                "nonce": "0x00",
                "balance": "0x1bc16d674ee61446",
                "code": "0x",
                "storage": {}
            }
        },
        "lastblockhash": "0x8c5f4c6975f80238b53c9efdc869198b52c3052cf956b821e1d1f29de3c02e61",
        "config": {
            "network": "ConstantinopleFix",
            "chainid": "0x01"
        },
        "genesisRLP": "0xf901f9f901f4a00000000000000000000000000000000000000000000000000000000000000000a01dcc4de8dec75d7aab85b567b6ccd41ad312451b948a7413f0a142fd40d49347940000000000000000000000000000000000000000a0e8cb6038809e74de495e62c2cd3273ba53914ccf0a40c02dc918a8cb2e734840a056e81f171bcc55a6ff8345e692c0f86e5b48e01b996cadc001622fb5e363b421a056e81f171bcc55a6ff8345e692c0f86e5b48e01b996cadc001622fb5e363b421b901000000000000000000000000000000000000000000000000000000000000000000000000000000000000000000000000000000000000000000000000000000000000000000000000000000000000000000000000000000000000000000000000000000000000000000000000000000000000000000000000000000000000000000000000000000000000000000000000000000000000000000000000000000000000000000000000000000000000000000000000000000000000000000000000000000000000000000000000000000000000000000000000000000000000000000000000000000000000000000000000000000000000000000000000000000000083020000808407270e00808000a00000000000000000000000000000000000000000000000000000000000000000880000000000000000c0c0",
        "blocks": [
            {
                "blockHeader": {
                    "parentHash": "0x17cad4c1fee8f3fb02fc0600b41b58ca5426202d6f5c57dcbdced8642cf45355",
                    "uncleHash": "0x1dcc4de8dec75d7aab85b567b6ccd41ad312451b948a7413f0a142fd40d49347",
                    "coinbase": "0x2adc25665018aa1fe0e6bc666dac8fc2697ff9ba",
                    "stateRoot": "0x6469da581d1bef8d29426ae0faabe2c5a63320fb8cc329275576b9768b423b7e",
                    "transactionsTrie": "0xc25acc05693ad65c36df9ba051b36c86881348247d9b4d41eeb4a3e28146e055",
                    "receiptTrie": "0x0cb7543a7d1cf05901ee10a662fc7713ad10f96fdbe9dabf2854fc3f18ba256a",
                    "bloom": "0x00000000000000000000000000000000000000000000000000000000000000000000000000000000000000000000000000000000000000000000000000000000000000000000000000000000000000000000000000000000000000000000000000000000000000000000000000000000000000000000000000000000000000000000000000000000000000000000000000000000000000000000000000000000000000000000000000000000000000000000000000000000000000000000000000000000000000000000000000000000000000000000000000000000000000000000000000000000000000000000000000000000000000000000000000000000",
                    "difficulty": "0x020000",
                    "number": "0x01",
                    "gasLimit": "0x07270e00",
                    "gasUsed": "0x030207",
                    "timestamp": "0x03e8",
                    "extraData": "0x00",
                    "mixHash": "0x0000000000000000000000000000000000000000000000000000000000000000",
                    "nonce": "0x0000000000000000",
                    "hash": "0x8c5f4c6975f80238b53c9efdc869198b52c3052cf956b821e1d1f29de3c02e61"
                },
                "transactions": [
                    {
                        "type": "0x00",
                        "chainId": "0x01",
                        "nonce": "0x00",
                        "gasPrice": "0x0a",
                        "gasLimit": "0x061a80",
                        "to": "0xb014f568e0da258ad40ce710d237cccc1adc1a6e",
                        "value": "0x00",
                        "data": "0x",
                        "v": "0x25",
                        "r": "0x68b0469c39e39312518081a20f589a077350e5c2e75925ef4b5e4d92b1ec2b90",
                        "s": "0x2244a27db6fcda9c0ff027cc0a624c6b276cd640bdf26cdd4ab3eb3a287ba07d",
                        "sender": "0x1ad9bc24818784172ff393bb6f89f094d4d2ca29"
                    }
                ],
                "uncleHeaders": [],
                "receipts": [
                    {
                        "transactionHash": "0xca7a48e5647f1457253e63b0d5277e526694a61c9071fb7975496ad775a18c4a",
                        "type": "0x00",
                        "cumulativeGasUsed": "0x030207",
                        "bloom": "0x00000000000000000000000000000000000000000000000000000000000000000000000000000000000000000000000000000000000000000000000000000000000000000000000000000000000000000000000000000000000000000000000000000000000000000000000000000000000000000000000000000000000000000000000000000000000000000000000000000000000000000000000000000000000000000000000000000000000000000000000000000000000000000000000000000000000000000000000000000000000000000000000000000000000000000000000000000000000000000000000000000000000000000000000000000000",
                        "logs": [],
                        "status": true,
                        "rlp": "0xf901090183030207b9010000000000000000000000000000000000000000000000000000000000000000000000000000000000000000000000000000000000000000000000000000000000000000000000000000000000000000000000000000000000000000000000000000000000000000000000000000000000000000000000000000000000000000000000000000000000000000000000000000000000000000000000000000000000000000000000000000000000000000000000000000000000000000000000000000000000000000000000000000000000000000000000000000000000000000000000000000000000000000000000000000000000000000000000000000000000c0"
                    }
                ],
                "rlp": "0xf90261f901f9a017cad4c1fee8f3fb02fc0600b41b58ca5426202d6f5c57dcbdced8642cf45355a01dcc4de8dec75d7aab85b567b6ccd41ad312451b948a7413f0a142fd40d49347942adc25665018aa1fe0e6bc666dac8fc2697ff9baa06469da581d1bef8d29426ae0faabe2c5a63320fb8cc329275576b9768b423b7ea0c25acc05693ad65c36df9ba051b36c86881348247d9b4d41eeb4a3e28146e055a00cb7543a7d1cf05901ee10a662fc7713ad10f96fdbe9dabf2854fc3f18ba256ab901000000000000000000000000000000000000000000000000000000000000000000000000000000000000000000000000000000000000000000000000000000000000000000000000000000000000000000000000000000000000000000000000000000000000000000000000000000000000000000000000000000000000000000000000000000000000000000000000000000000000000000000000000000000000000000000000000000000000000000000000000000000000000000000000000000000000000000000000000000000000000000000000000000000000000000000000000000000000000000000000000000000000000000000000000000000083020000018407270e00830302078203e800a00000000000000000000000000000000000000000000000000000000000000000880000000000000000f862f860800a83061a8094b014f568e0da258ad40ce710d237cccc1adc1a6e808025a068b0469c39e39312518081a20f589a077350e5c2e75925ef4b5e4d92b1ec2b90a02244a27db6fcda9c0ff027cc0a624c6b276cd640bdf26cdd4ab3eb3a287ba07dc0",
                "blocknumber": "1"
            }
        ],
        "sealEngine": "NoProof",
        "_info": {
            "hash": "0xea08146cf2538ac385988fe792fcbecf29b093f971f6c03ca2a734b07ba68a8e",
            "fixture-format": "blockchain_test",
            "comment": "`execution-specs` generated test",
            "filling-transition-tool": "2.19.0",
            "description": "Test EXTCODEHASH after calling a contract that selfdestructs.\n\nCall a contract containing SELFDESTRUCT using each call type, then\ncheck EXTCODEHASH. The hash is always returned because the check\nhappens within the same transaction. STATICCALL fails because\nSELFDESTRUCT modifies state. Pre-Cancun, CALLCODE/DELEGATECALL\nexecute SELFDESTRUCT in the caller's context, destroying the test\ncontract at end of transaction.",
            "url": "https://github.com/ethereum/execution-specs/blob/tests-sn\u00f8bal-devnet-4@v1.0.0/tests/constantinople/eip1052_extcodehash/test_extcodehash.py#L1319",
            "metadata": {
                "opcode_count": {}
            },
            "reference-spec": "https://github.com/ethereum/EIPs/blob/master/EIPS/eip-1052.md",
            "reference-spec-version": "2dcbc7ce1563e9624e137e9d447374600af876fa"
        }
    }
}