{
    "tests/constantinople/eip1052_extcodehash/test_extcodehash.py::test_extcodehash_of_empty[fork_ConstantinopleFix-blockchain_test_from_state_test-target_exists_False]": {
        "network": "ConstantinopleFix",
        "genesisBlockHeader": {
            "parentHash": "0x0000000000000000000000000000000000000000000000000000000000000000",
            "uncleHash": "0x1dcc4de8dec75d7aab85b567b6ccd41ad312451b948a7413f0a142fd40d49347",
            "coinbase": "0x0000000000000000000000000000000000000000",
            "stateRoot": "0x86f4ff0f1e6f39b0721fe17e51a6401a626fa83c321fde2c672564e5dc608d7e",
            "transactionsTrie": "0x56e81f171bcc55a6ff8345e692c0f86e5b48e01b996cadc001622fb5e363b421",
            "receiptTrie": "0x56e81f171bcc55a6ff8345e692c0f86e5b48e01b996cadc001622fb5e363b421",
            "bloom": "0x00000000000000000000000000000000000000000000000000000000000000000000000000000000000000000000000000000000000000000000000000000000000000000000000000000000000000000000000000000000000000000000000000000000000000000000000000000000000000000000000000000000000000000000000000000000000000000000000000000000000000000000000000000000000000000000000000000000000000000000000000000000000000000000000000000000000000000000000000000000000000000000000000000000000000000000000000000000000000000000000000000000000000000000000000000000",
            "difficulty": "0x020000",
            "number": "0x00",
            "gasLimit": "0x07270e00",
            "gasUsed": "0x00",
            "timestamp": "0x00",
            "extraData": "0x00",
            "mixHash": "0x0000000000000000000000000000000000000000000000000000000000000000",
            "nonce": "0x0000000000000000",
            "hash": "0xeb93069e05d2a23809b07bef66dc1dc76a1e5b4f6630014594f8d138d005a9d1"
        },
        "pre": {
            "0xbd3e47d20d8dbd0f91efbd8b067ffc886d4bfc41": {
                "nonce": "0x01",
                "balance": "0x00",
                "code": "0x73c0f6dc9e5836f54caadbf59cc69346c508e1992b3f60005573c0f6dc9e5836f54caadbf59cc69346c508e1992b3b600155",
                "storage": {
                    "0x00": "0xba5e",
                    "0x01": "0xba5e"
                }
            },
            "0x1ad9bc24818784172ff393bb6f89f094d4d2ca29": {
                "nonce": "0x00",
                "balance": "0x3635c9adc5dea00000",
                "code": "0x",
                "storage": {}
            }
        },
        "postState": {
            "0xbd3e47d20d8dbd0f91efbd8b067ffc886d4bfc41": {
                "nonce": "0x01",
                "balance": "0x01",
                "code": "0x73c0f6dc9e5836f54caadbf59cc69346c508e1992b3f60005573c0f6dc9e5836f54caadbf59cc69346c508e1992b3b600155",
                "storage": {}
            },
            "0x1ad9bc24818784172ff393bb6f89f094d4d2ca29": {
                "nonce": "0x01",
                "balance": "0x3635c9adc5de9d8ccf",
                "code": "0x",
                "storage": {}
            },
            "0x2adc25665018aa1fe0e6bc666dac8fc2697ff9ba": {
                "nonce": "0x00",
                "balance": "0x1bc16d674eca7330",
                "code": "0x",
                "storage": {}
            }
        },
        "lastblockhash": "0x4cf53dc128117c72560bcf8014c0e26dd148e4b99009c33dae10c9f02a0ec5a6",
        "config": {
            "network": "ConstantinopleFix",
            "chainid": "0x01"
        },
        "genesisRLP": "0xf901f9f901f4a00000000000000000000000000000000000000000000000000000000000000000a01dcc4de8dec75d7aab85b567b6ccd41ad312451b948a7413f0a142fd40d49347940000000000000000000000000000000000000000a086f4ff0f1e6f39b0721fe17e51a6401a626fa83c321fde2c672564e5dc608d7ea056e81f171bcc55a6ff8345e692c0f86e5b48e01b996cadc001622fb5e363b421a056e81f171bcc55a6ff8345e692c0f86e5b48e01b996cadc001622fb5e363b421b901000000000000000000000000000000000000000000000000000000000000000000000000000000000000000000000000000000000000000000000000000000000000000000000000000000000000000000000000000000000000000000000000000000000000000000000000000000000000000000000000000000000000000000000000000000000000000000000000000000000000000000000000000000000000000000000000000000000000000000000000000000000000000000000000000000000000000000000000000000000000000000000000000000000000000000000000000000000000000000000000000000000000000000000000000000000083020000808407270e00808000a00000000000000000000000000000000000000000000000000000000000000000880000000000000000c0c0",
        "blocks": [
            {
                "blockHeader": {
                    "parentHash": "0xeb93069e05d2a23809b07bef66dc1dc76a1e5b4f6630014594f8d138d005a9d1",
                    "uncleHash": "0x1dcc4de8dec75d7aab85b567b6ccd41ad312451b948a7413f0a142fd40d49347",
                    "coinbase": "0x2adc25665018aa1fe0e6bc666dac8fc2697ff9ba",
                    "stateRoot": "0x6dc9d8a06b69c05fa4b375113c23df1cc953fb0e114c8eaa7ffa2de90fc095ee",
                    "transactionsTrie": "0xfe642339b6687540746e87df5b06a999ced47b3d2ab8ce6d4a3406a6db7d0588",
                    "receiptTrie": "0x10cb9360b5ebaeeefab2b0a99407fe94faa249179205a946d7ca30dfbd1802b7",
                    "bloom": "0x00000000000000000000000000000000000000000000000000000000000000000000000000000000000000000000000000000000000000000000000000000000000000000000000000000000000000000000000000000000000000000000000000000000000000000000000000000000000000000000000000000000000000000000000000000000000000000000000000000000000000000000000000000000000000000000000000000000000000000000000000000000000000000000000000000000000000000000000000000000000000000000000000000000000000000000000000000000000000000000000000000000000000000000000000000000",
                    "difficulty": "0x020000",
                    "number": "0x01",
                    "gasLimit": "0x07270e00",
                    "gasUsed": "0x3eb8",
                    "timestamp": "0x03e8",
                    "extraData": "0x00",
                    "mixHash": "0x0000000000000000000000000000000000000000000000000000000000000000",
                    "nonce": "0x0000000000000000",
                    "hash": "0x4cf53dc128117c72560bcf8014c0e26dd148e4b99009c33dae10c9f02a0ec5a6"
                },
                "transactions": [
                    {
                        "type": "0x00",
                        "chainId": "0x01",
                        "nonce": "0x00",
                        "gasPrice": "0x0a",
                        "gasLimit": "0x061a80",
                        "to": "0xbd3e47d20d8dbd0f91efbd8b067ffc886d4bfc41",
                        "value": "0x01",
                        "data": "0x",
                        "v": "0x26",
                        "r": "0x5715f4a3575ac399fce679c66c4ef4b7299818fa8b6c4a69ff5011b17e6e6eb6",
                        "s": "0x0274425d04e4b068b226da94a9fd04d4c4b58f8ce76b7f41c3035d303faeffcd",
                        "sender": "0x1ad9bc24818784172ff393bb6f89f094d4d2ca29"
                    }
                ],
                "uncleHeaders": [],
                "receipts": [
                    {
                        "transactionHash": "0x3995be61fcc7e13b2f28b8c1b698c2720ed454081bd26abfbd33c54067a68e81",
                        "type": "0x00",
                        "cumulativeGasUsed": "0x3eb8",
                        "bloom": "0x00000000000000000000000000000000000000000000000000000000000000000000000000000000000000000000000000000000000000000000000000000000000000000000000000000000000000000000000000000000000000000000000000000000000000000000000000000000000000000000000000000000000000000000000000000000000000000000000000000000000000000000000000000000000000000000000000000000000000000000000000000000000000000000000000000000000000000000000000000000000000000000000000000000000000000000000000000000000000000000000000000000000000000000000000000000",
                        "logs": [],
                        "status": true,
                        "rlp": "0xf9010801823eb8b9010000000000000000000000000000000000000000000000000000000000000000000000000000000000000000000000000000000000000000000000000000000000000000000000000000000000000000000000000000000000000000000000000000000000000000000000000000000000000000000000000000000000000000000000000000000000000000000000000000000000000000000000000000000000000000000000000000000000000000000000000000000000000000000000000000000000000000000000000000000000000000000000000000000000000000000000000000000000000000000000000000000000000000000000000000000000c0"
                    }
                ],
                "rlp": "0xf90260f901f8a0eb93069e05d2a23809b07bef66dc1dc76a1e5b4f6630014594f8d138d005a9d1a01dcc4de8dec75d7aab85b567b6ccd41ad312451b948a7413f0a142fd40d49347942adc25665018aa1fe0e6bc666dac8fc2697ff9baa06dc9d8a06b69c05fa4b375113c23df1cc953fb0e114c8eaa7ffa2de90fc095eea0fe642339b6687540746e87df5b06a999ced47b3d2ab8ce6d4a3406a6db7d0588a010cb9360b5ebaeeefab2b0a99407fe94faa249179205a946d7ca30dfbd1802b7b901000000000000000000000000000000000000000000000000000000000000000000000000000000000000000000000000000000000000000000000000000000000000000000000000000000000000000000000000000000000000000000000000000000000000000000000000000000000000000000000000000000000000000000000000000000000000000000000000000000000000000000000000000000000000000000000000000000000000000000000000000000000000000000000000000000000000000000000000000000000000000000000000000000000000000000000000000000000000000000000000000000000000000000000000000000000083020000018407270e00823eb88203e800a00000000000000000000000000000000000000000000000000000000000000000880000000000000000f862f860800a83061a8094bd3e47d20d8dbd0f91efbd8b067ffc886d4bfc41018026a05715f4a3575ac399fce679c66c4ef4b7299818fa8b6c4a69ff5011b17e6e6eb6a00274425d04e4b068b226da94a9fd04d4c4b58f8ce76b7f41c3035d303faeffcdc0",
                "blocknumber": "1"
            }
        ],
        "sealEngine": "NoProof",
        "_info": {
            "hash": "0x6cd81fd6dbeef803466652797d585b20201472573391dbc928d25ea20a020000",
            "fixture-format": "blockchain_test",
            "comment": "`execution-specs` generated test",
            "filling-transition-tool": "2.19.0",
            "description": "Test EXTCODEHASH/EXTCODESIZE for non-existent and empty accounts.",
            "url": "https://github.com/ethereum/execution-specs/blob/tests-bal@v5.7.0/tests/constantinople/eip1052_extcodehash/test_extcodehash.py#L80",
            "metadata": {
                "opcode_count": {}
            },
            "reference-spec": "https://github.com/ethereum/EIPs/blob/master/EIPS/eip-1052.md",
            "reference-spec-version": "2dcbc7ce1563e9624e137e9d447374600af876fa"
        }
    },
    "tests/constantinople/eip1052_extcodehash/test_extcodehash.py::test_extcodehash_of_empty[fork_ConstantinopleFix-blockchain_test_from_state_test-target_exists_True]": {
        "network": "ConstantinopleFix",
        "genesisBlockHeader": {
            "parentHash": "0x0000000000000000000000000000000000000000000000000000000000000000",
            "uncleHash": "0x1dcc4de8dec75d7aab85b567b6ccd41ad312451b948a7413f0a142fd40d49347",
            "coinbase": "0x0000000000000000000000000000000000000000",
            "stateRoot": "0x0ebdfe209dc1caa7e5a0ced2eacbd9d91f20434b3de12782a496fe1a6a55a000",
            "transactionsTrie": "0x56e81f171bcc55a6ff8345e692c0f86e5b48e01b996cadc001622fb5e363b421",
            "receiptTrie": "0x56e81f171bcc55a6ff8345e692c0f86e5b48e01b996cadc001622fb5e363b421",
            "bloom": "0x00000000000000000000000000000000000000000000000000000000000000000000000000000000000000000000000000000000000000000000000000000000000000000000000000000000000000000000000000000000000000000000000000000000000000000000000000000000000000000000000000000000000000000000000000000000000000000000000000000000000000000000000000000000000000000000000000000000000000000000000000000000000000000000000000000000000000000000000000000000000000000000000000000000000000000000000000000000000000000000000000000000000000000000000000000000",
            "difficulty": "0x020000",
            "number": "0x00",
            "gasLimit": "0x07270e00",
            "gasUsed": "0x00",
            "timestamp": "0x00",
            "extraData": "0x00",
            "mixHash": "0x0000000000000000000000000000000000000000000000000000000000000000",
            "nonce": "0x0000000000000000",
            "hash": "0xe2fe06e20d35dad6f6ec551d85b85106188273e16be83d9592371fae90bec1ab"
        },
        "pre": {
            "0xc0f6dc9e5836f54caadbf59cc69346c508e1992b": {
                "nonce": "0x00",
                "balance": "0x01",
                "code": "0x",
                "storage": {}
            },
            "0x9b5962eba47fd886ebfcf12678a6e0af53295a2b": {
                "nonce": "0x01",
                "balance": "0x00",
                "code": "0x73c0f6dc9e5836f54caadbf59cc69346c508e1992b3f60005573c0f6dc9e5836f54caadbf59cc69346c508e1992b3b600155",
                "storage": {
                    "0x01": "0xba5e"
                }
            },
            "0x1ad9bc24818784172ff393bb6f89f094d4d2ca29": {
                "nonce": "0x00",
                "balance": "0x3635c9adc5dea00000",
                "code": "0x",
                "storage": {}
            }
        },
        "postState": {
            "0xc0f6dc9e5836f54caadbf59cc69346c508e1992b": {
                "nonce": "0x00",
                "balance": "0x01",
                "code": "0x",
                "storage": {}
            },
            "0x9b5962eba47fd886ebfcf12678a6e0af53295a2b": {
                "nonce": "0x01",
                "balance": "0x01",
                "code": "0x73c0f6dc9e5836f54caadbf59cc69346c508e1992b3f60005573c0f6dc9e5836f54caadbf59cc69346c508e1992b3b600155",
                "storage": {
                    "0x00": "0xc5d2460186f7233c927e7db2dcc703c0e500b653ca82273b7bfad8045d85a470"
                }
            },
            "0x1ad9bc24818784172ff393bb6f89f094d4d2ca29": {
                "nonce": "0x01",
                "balance": "0x3635c9adc5de9b199f",
                "code": "0x",
                "storage": {}
            },
            "0x2adc25665018aa1fe0e6bc666dac8fc2697ff9ba": {
                "nonce": "0x00",
                "balance": "0x1bc16d674ecce660",
                "code": "0x",
                "storage": {}
            }
        },
        "lastblockhash": "0x122929d777aabf3ca48bd38fe3f874fb58654f6a99e0a6df9c668c1bbef67855",
        "config": {
            "network": "ConstantinopleFix",
            "chainid": "0x01"
        },
        "genesisRLP": "0xf901f9f901f4a00000000000000000000000000000000000000000000000000000000000000000a01dcc4de8dec75d7aab85b567b6ccd41ad312451b948a7413f0a142fd40d49347940000000000000000000000000000000000000000a00ebdfe209dc1caa7e5a0ced2eacbd9d91f20434b3de12782a496fe1a6a55a000a056e81f171bcc55a6ff8345e692c0f86e5b48e01b996cadc001622fb5e363b421a056e81f171bcc55a6ff8345e692c0f86e5b48e01b996cadc001622fb5e363b421b901000000000000000000000000000000000000000000000000000000000000000000000000000000000000000000000000000000000000000000000000000000000000000000000000000000000000000000000000000000000000000000000000000000000000000000000000000000000000000000000000000000000000000000000000000000000000000000000000000000000000000000000000000000000000000000000000000000000000000000000000000000000000000000000000000000000000000000000000000000000000000000000000000000000000000000000000000000000000000000000000000000000000000000000000000000000083020000808407270e00808000a00000000000000000000000000000000000000000000000000000000000000000880000000000000000c0c0",
        "blocks": [
            {
                "blockHeader": {
                    "parentHash": "0xe2fe06e20d35dad6f6ec551d85b85106188273e16be83d9592371fae90bec1ab",
                    "uncleHash": "0x1dcc4de8dec75d7aab85b567b6ccd41ad312451b948a7413f0a142fd40d49347",
                    "coinbase": "0x2adc25665018aa1fe0e6bc666dac8fc2697ff9ba",
                    "stateRoot": "0x7da4a6d6a94041330280db0a9636e8d91a0b79f3e288a57501a13cb013024ee9",
                    "transactionsTrie": "0xb59aacb7089f877d1f96842ab82e4406118bf15e5746811f67d0308c5cf01683",
                    "receiptTrie": "0xc4e7fc5616e9419453381a7148b68ac75674947d790c2c72db9c61ad4a287dc5",
                    "bloom": "0x00000000000000000000000000000000000000000000000000000000000000000000000000000000000000000000000000000000000000000000000000000000000000000000000000000000000000000000000000000000000000000000000000000000000000000000000000000000000000000000000000000000000000000000000000000000000000000000000000000000000000000000000000000000000000000000000000000000000000000000000000000000000000000000000000000000000000000000000000000000000000000000000000000000000000000000000000000000000000000000000000000000000000000000000000000000",
                    "difficulty": "0x020000",
                    "number": "0x01",
                    "gasLimit": "0x07270e00",
                    "gasUsed": "0x7d70",
                    "timestamp": "0x03e8",
                    "extraData": "0x00",
                    "mixHash": "0x0000000000000000000000000000000000000000000000000000000000000000",
                    "nonce": "0x0000000000000000",
                    "hash": "0x122929d777aabf3ca48bd38fe3f874fb58654f6a99e0a6df9c668c1bbef67855"
                },
                "transactions": [
                    {
                        "type": "0x00",
                        "chainId": "0x01",
                        "nonce": "0x00",
                        "gasPrice": "0x0a",
                        "gasLimit": "0x061a80",
                        "to": "0x9b5962eba47fd886ebfcf12678a6e0af53295a2b",
                        "value": "0x01",
                        "data": "0x",
                        "v": "0x25",
                        "r": "0xbca9ed01110d0d77b5ef3457e48a090f7b4a9f1b9cf517bb57958ea441e97923",
                        "s": "0x4cbc79621e2444028c51e9c84c2782f60e177dc672d8f5c9667242e12883fe2f",
                        "sender": "0x1ad9bc24818784172ff393bb6f89f094d4d2ca29"
                    }
                ],
                "uncleHeaders": [],
                "receipts": [
                    {
                        "transactionHash": "0xb81da440a2fda8ec8f11a28a36ab3ef5bedeff8dca2ad016e694d2b542ffaa2b",
                        "type": "0x00",
                        "cumulativeGasUsed": "0x7d70",
                        "bloom": "0x00000000000000000000000000000000000000000000000000000000000000000000000000000000000000000000000000000000000000000000000000000000000000000000000000000000000000000000000000000000000000000000000000000000000000000000000000000000000000000000000000000000000000000000000000000000000000000000000000000000000000000000000000000000000000000000000000000000000000000000000000000000000000000000000000000000000000000000000000000000000000000000000000000000000000000000000000000000000000000000000000000000000000000000000000000000",
                        "logs": [],
                        "status": true,
                        "rlp": "0xf9010801827d70b9010000000000000000000000000000000000000000000000000000000000000000000000000000000000000000000000000000000000000000000000000000000000000000000000000000000000000000000000000000000000000000000000000000000000000000000000000000000000000000000000000000000000000000000000000000000000000000000000000000000000000000000000000000000000000000000000000000000000000000000000000000000000000000000000000000000000000000000000000000000000000000000000000000000000000000000000000000000000000000000000000000000000000000000000000000000000c0"
                    }
                ],
                "rlp": "0xf90260f901f8a0e2fe06e20d35dad6f6ec551d85b85106188273e16be83d9592371fae90bec1aba01dcc4de8dec75d7aab85b567b6ccd41ad312451b948a7413f0a142fd40d49347942adc25665018aa1fe0e6bc666dac8fc2697ff9baa07da4a6d6a94041330280db0a9636e8d91a0b79f3e288a57501a13cb013024ee9a0b59aacb7089f877d1f96842ab82e4406118bf15e5746811f67d0308c5cf01683a0c4e7fc5616e9419453381a7148b68ac75674947d790c2c72db9c61ad4a287dc5b901000000000000000000000000000000000000000000000000000000000000000000000000000000000000000000000000000000000000000000000000000000000000000000000000000000000000000000000000000000000000000000000000000000000000000000000000000000000000000000000000000000000000000000000000000000000000000000000000000000000000000000000000000000000000000000000000000000000000000000000000000000000000000000000000000000000000000000000000000000000000000000000000000000000000000000000000000000000000000000000000000000000000000000000000000000000083020000018407270e00827d708203e800a00000000000000000000000000000000000000000000000000000000000000000880000000000000000f862f860800a83061a80949b5962eba47fd886ebfcf12678a6e0af53295a2b018025a0bca9ed01110d0d77b5ef3457e48a090f7b4a9f1b9cf517bb57958ea441e97923a04cbc79621e2444028c51e9c84c2782f60e177dc672d8f5c9667242e12883fe2fc0",
                "blocknumber": "1"
            }
        ],
        "sealEngine": "NoProof",
        "_info": {
            "hash": "0x0e19a75322f91cace34230ae473179c5963d926ed6cac1a221cfe95110232bd5",
            "fixture-format": "blockchain_test",
            "comment": "`execution-specs` generated test",
            "filling-transition-tool": "2.19.0",
            "description": "Test EXTCODEHASH/EXTCODESIZE for non-existent and empty accounts.",
            "url": "https://github.com/ethereum/execution-specs/blob/tests-bal@v5.7.0/tests/constantinople/eip1052_extcodehash/test_extcodehash.py#L80",
            "metadata": {
                "opcode_count": {}
            },
            "reference-spec": "https://github.com/ethereum/EIPs/blob/master/EIPS/eip-1052.md",
            "reference-spec-version": "2dcbc7ce1563e9624e137e9d447374600af876fa"
        }
    }
}