{
    "tests/constantinople/eip1052_extcodehash/test_extcodehash.py::test_extcodehash_empty_contract_creation[fork_ConstantinopleFix-blockchain_test_from_state_test-opcode_CREATE2]": {
        "network": "ConstantinopleFix",
        "genesisBlockHeader": {
            "parentHash": "0x0000000000000000000000000000000000000000000000000000000000000000",
            "uncleHash": "0x1dcc4de8dec75d7aab85b567b6ccd41ad312451b948a7413f0a142fd40d49347",
            "coinbase": "0x0000000000000000000000000000000000000000",
            "stateRoot": "0x9a66b0fbf393a637699d3a138998ea9295fce1147aa9aaf2ec1b79a184129c34",
            "transactionsTrie": "0x56e81f171bcc55a6ff8345e692c0f86e5b48e01b996cadc001622fb5e363b421",
            "receiptTrie": "0x56e81f171bcc55a6ff8345e692c0f86e5b48e01b996cadc001622fb5e363b421",
            "bloom": "0x00000000000000000000000000000000000000000000000000000000000000000000000000000000000000000000000000000000000000000000000000000000000000000000000000000000000000000000000000000000000000000000000000000000000000000000000000000000000000000000000000000000000000000000000000000000000000000000000000000000000000000000000000000000000000000000000000000000000000000000000000000000000000000000000000000000000000000000000000000000000000000000000000000000000000000000000000000000000000000000000000000000000000000000000000000000",
            "difficulty": "0x020000",
            "number": "0x00",
            "gasLimit": "0x07270e00",
            "gasUsed": "0x00",
            "timestamp": "0x00",
            "extraData": "0x00",
            "mixHash": "0x0000000000000000000000000000000000000000000000000000000000000000",
            "nonce": "0x0000000000000000",
            "hash": "0x1c22f64c6c4cf56bcb93ab4527a0b7f193b2d71bb60df4ef6568e59b02f38fbf"
        },
        "pre": {
            "0xe2226b47f7b968da2f0d37a6ca5a35009620e9c8": {
                "nonce": "0x01",
                "balance": "0x00",
                "code": "0x7f60006000f30000000000000000000000000000000000000000000000000000006000526000600560006000f56000556000543f6001556000543b6002556020600060006000543c60005160035500",
                "storage": {
                    "0x00": "0xba5e",
                    "0x02": "0xba5e",
                    "0x03": "0xba5e"
                }
            },
            "0x1ad9bc24818784172ff393bb6f89f094d4d2ca29": {
                "nonce": "0x00",
                "balance": "0x3635c9adc5dea00000",
                "code": "0x",
                "storage": {}
            }
        },
        "postState": {
            "0xe2226b47f7b968da2f0d37a6ca5a35009620e9c8": {
                "nonce": "0x02",
                "balance": "0x00",
                "code": "0x7f60006000f30000000000000000000000000000000000000000000000000000006000526000600560006000f56000556000543f6001556000543b6002556020600060006000543c60005160035500",
                "storage": {
                    "0x00": "0x457fe62665285089d01b675f3dcc09dae7188692",
                    "0x01": "0xc5d2460186f7233c927e7db2dcc703c0e500b653ca82273b7bfad8045d85a470"
                }
            },
            "0x1ad9bc24818784172ff393bb6f89f094d4d2ca29": {
                "nonce": "0x01",
                "balance": "0x3635c9adc5de96c5b2",
                "code": "0x",
                "storage": {}
            },
            "0x457fe62665285089d01b675f3dcc09dae7188692": {
                "nonce": "0x01",
                "balance": "0x00",
                "code": "0x",
                "storage": {}
            },
            "0x2adc25665018aa1fe0e6bc666dac8fc2697ff9ba": {
                "nonce": "0x00",
                "balance": "0x1bc16d674ed13a4e",
                "code": "0x",
                "storage": {}
            }
        },
        "lastblockhash": "0xf354f537a203ef7a9309d237e8c5ab62d5caab0968572a9e4749fca6881792eb",
        "config": {
            "network": "ConstantinopleFix",
            "chainid": "0x01"
        },
        "genesisRLP": "0xf901f9f901f4a00000000000000000000000000000000000000000000000000000000000000000a01dcc4de8dec75d7aab85b567b6ccd41ad312451b948a7413f0a142fd40d49347940000000000000000000000000000000000000000a09a66b0fbf393a637699d3a138998ea9295fce1147aa9aaf2ec1b79a184129c34a056e81f171bcc55a6ff8345e692c0f86e5b48e01b996cadc001622fb5e363b421a056e81f171bcc55a6ff8345e692c0f86e5b48e01b996cadc001622fb5e363b421b901000000000000000000000000000000000000000000000000000000000000000000000000000000000000000000000000000000000000000000000000000000000000000000000000000000000000000000000000000000000000000000000000000000000000000000000000000000000000000000000000000000000000000000000000000000000000000000000000000000000000000000000000000000000000000000000000000000000000000000000000000000000000000000000000000000000000000000000000000000000000000000000000000000000000000000000000000000000000000000000000000000000000000000000000000000000083020000808407270e00808000a00000000000000000000000000000000000000000000000000000000000000000880000000000000000c0c0",
        "blocks": [
            {
                "blockHeader": {
                    "parentHash": "0x1c22f64c6c4cf56bcb93ab4527a0b7f193b2d71bb60df4ef6568e59b02f38fbf",
                    "uncleHash": "0x1dcc4de8dec75d7aab85b567b6ccd41ad312451b948a7413f0a142fd40d49347",
                    "coinbase": "0x2adc25665018aa1fe0e6bc666dac8fc2697ff9ba",
                    "stateRoot": "0xa9585a58100a0a8da06db9047e91444a1185a0435e36263060df6e5c6dd5cefb",
                    "transactionsTrie": "0x6de12a7a04af17ae746d159604bb06bbca94bbca80cf145d916115eab99d0c13",
                    "receiptTrie": "0x208e0f7da9d21052132d3999fd236f59997f46a4f24127c95d20959853634849",
                    "bloom": "0x00000000000000000000000000000000000000000000000000000000000000000000000000000000000000000000000000000000000000000000000000000000000000000000000000000000000000000000000000000000000000000000000000000000000000000000000000000000000000000000000000000000000000000000000000000000000000000000000000000000000000000000000000000000000000000000000000000000000000000000000000000000000000000000000000000000000000000000000000000000000000000000000000000000000000000000000000000000000000000000000000000000000000000000000000000000",
                    "difficulty": "0x020000",
                    "number": "0x01",
                    "gasLimit": "0x07270e00",
                    "gasUsed": "0xec3b",
                    "timestamp": "0x03e8",
                    "extraData": "0x00",
                    "mixHash": "0x0000000000000000000000000000000000000000000000000000000000000000",
                    "nonce": "0x0000000000000000",
                    "hash": "0xf354f537a203ef7a9309d237e8c5ab62d5caab0968572a9e4749fca6881792eb"
                },
                "transactions": [
                    {
                        "type": "0x00",
                        "chainId": "0x01",
                        "nonce": "0x00",
                        "gasPrice": "0x0a",
                        "gasLimit": "0x0f4240",
                        "to": "0xe2226b47f7b968da2f0d37a6ca5a35009620e9c8",
                        "value": "0x00",
                        "data": "0x",
                        "v": "0x26",
                        "r": "0xf48051d42077fb72d672e9be4655972ce823bddc7e241efa6aad6e51b0a23ec3",
                        "s": "0x2729b3fe3cf842ab45a81c7f51f1509eca73e6e353e41beb350a501eae56c682",
                        "sender": "0x1ad9bc24818784172ff393bb6f89f094d4d2ca29"
                    }
                ],
                "uncleHeaders": [],
                "receipts": [
                    {
                        "transactionHash": "0x2ad975fb137b26126fc0b711852ec37a41e0428a47637253dae84a5f1c5b8bea",
                        "type": "0x00",
                        "cumulativeGasUsed": "0xec3b",
                        "bloom": "0x00000000000000000000000000000000000000000000000000000000000000000000000000000000000000000000000000000000000000000000000000000000000000000000000000000000000000000000000000000000000000000000000000000000000000000000000000000000000000000000000000000000000000000000000000000000000000000000000000000000000000000000000000000000000000000000000000000000000000000000000000000000000000000000000000000000000000000000000000000000000000000000000000000000000000000000000000000000000000000000000000000000000000000000000000000000",
                        "logs": [],
                        "status": true,
                        "rlp": "0xf901080182ec3bb9010000000000000000000000000000000000000000000000000000000000000000000000000000000000000000000000000000000000000000000000000000000000000000000000000000000000000000000000000000000000000000000000000000000000000000000000000000000000000000000000000000000000000000000000000000000000000000000000000000000000000000000000000000000000000000000000000000000000000000000000000000000000000000000000000000000000000000000000000000000000000000000000000000000000000000000000000000000000000000000000000000000000000000000000000000000000c0"
                    }
                ],
                "rlp": "0xf90260f901f8a01c22f64c6c4cf56bcb93ab4527a0b7f193b2d71bb60df4ef6568e59b02f38fbfa01dcc4de8dec75d7aab85b567b6ccd41ad312451b948a7413f0a142fd40d49347942adc25665018aa1fe0e6bc666dac8fc2697ff9baa0a9585a58100a0a8da06db9047e91444a1185a0435e36263060df6e5c6dd5cefba06de12a7a04af17ae746d159604bb06bbca94bbca80cf145d916115eab99d0c13a0208e0f7da9d21052132d3999fd236f59997f46a4f24127c95d20959853634849b901000000000000000000000000000000000000000000000000000000000000000000000000000000000000000000000000000000000000000000000000000000000000000000000000000000000000000000000000000000000000000000000000000000000000000000000000000000000000000000000000000000000000000000000000000000000000000000000000000000000000000000000000000000000000000000000000000000000000000000000000000000000000000000000000000000000000000000000000000000000000000000000000000000000000000000000000000000000000000000000000000000000000000000000000000000000083020000018407270e0082ec3b8203e800a00000000000000000000000000000000000000000000000000000000000000000880000000000000000f862f860800a830f424094e2226b47f7b968da2f0d37a6ca5a35009620e9c8808026a0f48051d42077fb72d672e9be4655972ce823bddc7e241efa6aad6e51b0a23ec3a02729b3fe3cf842ab45a81c7f51f1509eca73e6e353e41beb350a501eae56c682c0",
                "blocknumber": "1"
            }
        ],
        "sealEngine": "NoProof",
        "_info": {
            "hash": "0x8862a6978a000841f8a8fd31c6940ad4bbcdb39f16e1651ce3f8857cd3fe46c6",
            "fixture-format": "blockchain_test",
            "comment": "`execution-specs` generated test",
            "filling-transition-tool": "2.19.0",
            "description": "Test EXTCODEHASH/EXTCODESIZE for empty contracts created with\nCREATE/CREATE2.",
            "url": "https://github.com/ethereum/execution-specs/blob/tests-bal@v5.6.0/tests/constantinople/eip1052_extcodehash/test_extcodehash.py#L291",
            "metadata": {
                "opcode_count": {}
            },
            "reference-spec": "https://github.com/ethereum/EIPs/blob/master/EIPS/eip-1052.md",
            "reference-spec-version": "2dcbc7ce1563e9624e137e9d447374600af876fa"
        }
    },
    "tests/constantinople/eip1052_extcodehash/test_extcodehash.py::test_extcodehash_empty_contract_creation[fork_ConstantinopleFix-blockchain_test_from_state_test-opcode_CREATE]": {
        "network": "ConstantinopleFix",
        "genesisBlockHeader": {
            "parentHash": "0x0000000000000000000000000000000000000000000000000000000000000000",
            "uncleHash": "0x1dcc4de8dec75d7aab85b567b6ccd41ad312451b948a7413f0a142fd40d49347",
            "coinbase": "0x0000000000000000000000000000000000000000",
            "stateRoot": "0x4c986e03266e8e4dedcd85faf60dba30721c39ade3446eb871c390b517b20383",
            "transactionsTrie": "0x56e81f171bcc55a6ff8345e692c0f86e5b48e01b996cadc001622fb5e363b421",
            "receiptTrie": "0x56e81f171bcc55a6ff8345e692c0f86e5b48e01b996cadc001622fb5e363b421",
            "bloom": "0x00000000000000000000000000000000000000000000000000000000000000000000000000000000000000000000000000000000000000000000000000000000000000000000000000000000000000000000000000000000000000000000000000000000000000000000000000000000000000000000000000000000000000000000000000000000000000000000000000000000000000000000000000000000000000000000000000000000000000000000000000000000000000000000000000000000000000000000000000000000000000000000000000000000000000000000000000000000000000000000000000000000000000000000000000000000",
            "difficulty": "0x020000",
            "number": "0x00",
            "gasLimit": "0x07270e00",
            "gasUsed": "0x00",
            "timestamp": "0x00",
            "extraData": "0x00",
            "mixHash": "0x0000000000000000000000000000000000000000000000000000000000000000",
            "nonce": "0x0000000000000000",
            "hash": "0xa9bc068e74bec713497fde371c3a9175f43fae95dec7cf4d06924e16c2641cde"
        },
        "pre": {
            "0x0143f2db9db6ab9bb3d2629c13996a491f2c8867": {
                "nonce": "0x01",
                "balance": "0x00",
                "code": "0x7f60006000f3000000000000000000000000000000000000000000000000000000600052600560006000f06000556000543f6001556000543b6002556020600060006000543c60005160035500",
                "storage": {
                    "0x00": "0xba5e",
                    "0x02": "0xba5e",
                    "0x03": "0xba5e"
                }
            },
            "0x1ad9bc24818784172ff393bb6f89f094d4d2ca29": {
                "nonce": "0x00",
                "balance": "0x3635c9adc5dea00000",
                "code": "0x",
                "storage": {}
            }
        },
        "postState": {
            "0x0143f2db9db6ab9bb3d2629c13996a491f2c8867": {
                "nonce": "0x02",
                "balance": "0x00",
                "code": "0x7f60006000f3000000000000000000000000000000000000000000000000000000600052600560006000f06000556000543f6001556000543b6002556020600060006000543c60005160035500",
                "storage": {
                    "0x00": "0x3385fb91b73fbdf2ef74bd49db9ec8b5190e7672",
                    "0x01": "0xc5d2460186f7233c927e7db2dcc703c0e500b653ca82273b7bfad8045d85a470"
                }
            },
            "0x1ad9bc24818784172ff393bb6f89f094d4d2ca29": {
                "nonce": "0x01",
                "balance": "0x3635c9adc5de96c60c",
                "code": "0x",
                "storage": {}
            },
            "0x3385fb91b73fbdf2ef74bd49db9ec8b5190e7672": {
                "nonce": "0x01",
                "balance": "0x00",
                "code": "0x",
                "storage": {}
            },
            "0x2adc25665018aa1fe0e6bc666dac8fc2697ff9ba": {
                "nonce": "0x00",
                "balance": "0x1bc16d674ed139f4",
                "code": "0x",
                "storage": {}
            }
        },
        "lastblockhash": "0xa6e6e867fd421e5bc5b3a8b20f2561b64333ae11b1f00c31431e4dc9991e6333",
        "config": {
            "network": "ConstantinopleFix",
            "chainid": "0x01"
        },
        "genesisRLP": "0xf901f9f901f4a00000000000000000000000000000000000000000000000000000000000000000a01dcc4de8dec75d7aab85b567b6ccd41ad312451b948a7413f0a142fd40d49347940000000000000000000000000000000000000000a04c986e03266e8e4dedcd85faf60dba30721c39ade3446eb871c390b517b20383a056e81f171bcc55a6ff8345e692c0f86e5b48e01b996cadc001622fb5e363b421a056e81f171bcc55a6ff8345e692c0f86e5b48e01b996cadc001622fb5e363b421b901000000000000000000000000000000000000000000000000000000000000000000000000000000000000000000000000000000000000000000000000000000000000000000000000000000000000000000000000000000000000000000000000000000000000000000000000000000000000000000000000000000000000000000000000000000000000000000000000000000000000000000000000000000000000000000000000000000000000000000000000000000000000000000000000000000000000000000000000000000000000000000000000000000000000000000000000000000000000000000000000000000000000000000000000000000000083020000808407270e00808000a00000000000000000000000000000000000000000000000000000000000000000880000000000000000c0c0",
        "blocks": [
            {
                "blockHeader": {
                    "parentHash": "0xa9bc068e74bec713497fde371c3a9175f43fae95dec7cf4d06924e16c2641cde",
                    "uncleHash": "0x1dcc4de8dec75d7aab85b567b6ccd41ad312451b948a7413f0a142fd40d49347",
                    "coinbase": "0x2adc25665018aa1fe0e6bc666dac8fc2697ff9ba",
                    "stateRoot": "0xf85b612559d2df4403c161d53be7c9326a08997cc2693bced883db898b7216c5",
                    "transactionsTrie": "0x73c8c0b8d5bc3df95a7234e00605f7a928f0d7bd1fcaf4e720bff7e73f781dfc",
                    "receiptTrie": "0x55a5acb996cd4ea7f0ffe79fe7d153ab7aa2ef57da9e7d04a531a3188196cbaa",
                    "bloom": "0x00000000000000000000000000000000000000000000000000000000000000000000000000000000000000000000000000000000000000000000000000000000000000000000000000000000000000000000000000000000000000000000000000000000000000000000000000000000000000000000000000000000000000000000000000000000000000000000000000000000000000000000000000000000000000000000000000000000000000000000000000000000000000000000000000000000000000000000000000000000000000000000000000000000000000000000000000000000000000000000000000000000000000000000000000000000",
                    "difficulty": "0x020000",
                    "number": "0x01",
                    "gasLimit": "0x07270e00",
                    "gasUsed": "0xec32",
                    "timestamp": "0x03e8",
                    "extraData": "0x00",
                    "mixHash": "0x0000000000000000000000000000000000000000000000000000000000000000",
                    "nonce": "0x0000000000000000",
                    "hash": "0xa6e6e867fd421e5bc5b3a8b20f2561b64333ae11b1f00c31431e4dc9991e6333"
                },
                "transactions": [
                    {
                        "type": "0x00",
                        "chainId": "0x01",
                        "nonce": "0x00",
                        "gasPrice": "0x0a",
                        "gasLimit": "0x0f4240",
                        "to": "0x0143f2db9db6ab9bb3d2629c13996a491f2c8867",
                        "value": "0x00",
                        "data": "0x",
                        "v": "0x26",
                        "r": "0x0b8d53fe6afd921b052fe8d9fe79581572c36a53285b637682aeb46abb009981",
                        "s": "0xcc56465424e50413413b1f2554e6f9951fedeea0614fb1ec92e9af3e5d67b5",
                        "sender": "0x1ad9bc24818784172ff393bb6f89f094d4d2ca29"
                    }
                ],
                "uncleHeaders": [],
                "receipts": [
                    {
                        "transactionHash": "0x042e6616a4dc2a50e3f90e4fd75117798c49e5f54201ada1b66ee27cc0cc7209",
                        "type": "0x00",
                        "cumulativeGasUsed": "0xec32",
                        "bloom": "0x00000000000000000000000000000000000000000000000000000000000000000000000000000000000000000000000000000000000000000000000000000000000000000000000000000000000000000000000000000000000000000000000000000000000000000000000000000000000000000000000000000000000000000000000000000000000000000000000000000000000000000000000000000000000000000000000000000000000000000000000000000000000000000000000000000000000000000000000000000000000000000000000000000000000000000000000000000000000000000000000000000000000000000000000000000000",
                        "logs": [],
                        "status": true,
                        "rlp": "0xf901080182ec32b9010000000000000000000000000000000000000000000000000000000000000000000000000000000000000000000000000000000000000000000000000000000000000000000000000000000000000000000000000000000000000000000000000000000000000000000000000000000000000000000000000000000000000000000000000000000000000000000000000000000000000000000000000000000000000000000000000000000000000000000000000000000000000000000000000000000000000000000000000000000000000000000000000000000000000000000000000000000000000000000000000000000000000000000000000000000000c0"
                    }
                ],
                "rlp": "0xf9025ff901f8a0a9bc068e74bec713497fde371c3a9175f43fae95dec7cf4d06924e16c2641cdea01dcc4de8dec75d7aab85b567b6ccd41ad312451b948a7413f0a142fd40d49347942adc25665018aa1fe0e6bc666dac8fc2697ff9baa0f85b612559d2df4403c161d53be7c9326a08997cc2693bced883db898b7216c5a073c8c0b8d5bc3df95a7234e00605f7a928f0d7bd1fcaf4e720bff7e73f781dfca055a5acb996cd4ea7f0ffe79fe7d153ab7aa2ef57da9e7d04a531a3188196cbaab901000000000000000000000000000000000000000000000000000000000000000000000000000000000000000000000000000000000000000000000000000000000000000000000000000000000000000000000000000000000000000000000000000000000000000000000000000000000000000000000000000000000000000000000000000000000000000000000000000000000000000000000000000000000000000000000000000000000000000000000000000000000000000000000000000000000000000000000000000000000000000000000000000000000000000000000000000000000000000000000000000000000000000000000000000000000083020000018407270e0082ec328203e800a00000000000000000000000000000000000000000000000000000000000000000880000000000000000f861f85f800a830f4240940143f2db9db6ab9bb3d2629c13996a491f2c8867808026a00b8d53fe6afd921b052fe8d9fe79581572c36a53285b637682aeb46abb0099819fcc56465424e50413413b1f2554e6f9951fedeea0614fb1ec92e9af3e5d67b5c0",
                "blocknumber": "1"
            }
        ],
        "sealEngine": "NoProof",
        "_info": {
            "hash": "0x2741dc981e513d77e5b1a6c8c79d5a5e5c4bd1fbfd324c64eb3e27a63ff51747",
            "fixture-format": "blockchain_test",
            "comment": "`execution-specs` generated test",
            "filling-transition-tool": "2.19.0",
            "description": "Test EXTCODEHASH/EXTCODESIZE for empty contracts created with\nCREATE/CREATE2.",
            "url": "https://github.com/ethereum/execution-specs/blob/tests-bal@v5.6.0/tests/constantinople/eip1052_extcodehash/test_extcodehash.py#L291",
            "metadata": {
                "opcode_count": {}
            },
            "reference-spec": "https://github.com/ethereum/EIPs/blob/master/EIPS/eip-1052.md",
            "reference-spec-version": "2dcbc7ce1563e9624e137e9d447374600af876fa"
        }
    }
}