{
    "tests/constantinople/eip1052_extcodehash/test_extcodehash.py::test_extcodehash_call_to_nonexistent[fork_ConstantinopleFix-call_opcode_CALL-blockchain_test_from_state_test]": {
        "network": "ConstantinopleFix",
        "genesisBlockHeader": {
            "parentHash": "0x0000000000000000000000000000000000000000000000000000000000000000",
            "uncleHash": "0x1dcc4de8dec75d7aab85b567b6ccd41ad312451b948a7413f0a142fd40d49347",
            "coinbase": "0x0000000000000000000000000000000000000000",
            "stateRoot": "0x3f4a80c96bc414c70ad43e892369668eb7af9caf67d33f470e3303a715546a95",
            "transactionsTrie": "0x56e81f171bcc55a6ff8345e692c0f86e5b48e01b996cadc001622fb5e363b421",
            "receiptTrie": "0x56e81f171bcc55a6ff8345e692c0f86e5b48e01b996cadc001622fb5e363b421",
            "bloom": "0x00000000000000000000000000000000000000000000000000000000000000000000000000000000000000000000000000000000000000000000000000000000000000000000000000000000000000000000000000000000000000000000000000000000000000000000000000000000000000000000000000000000000000000000000000000000000000000000000000000000000000000000000000000000000000000000000000000000000000000000000000000000000000000000000000000000000000000000000000000000000000000000000000000000000000000000000000000000000000000000000000000000000000000000000000000000",
            "difficulty": "0x020000",
            "number": "0x00",
            "gasLimit": "0x07270e00",
            "gasUsed": "0x00",
            "timestamp": "0x00",
            "extraData": "0x00",
            "mixHash": "0x0000000000000000000000000000000000000000000000000000000000000000",
            "nonce": "0x0000000000000000",
            "hash": "0xc40d32cb5ead029fd38246dadaab19d61c6bb82bb6f33002c1be5d3cd9e4df13"
        },
        "pre": {
            "0x94734f685580564673fa010f5e6957422af24171": {
                "nonce": "0x01",
                "balance": "0x00",
                "code": "0x6000600060006000600073c0f6dc9e5836f54caadbf59cc69346c508e1992b6161a8f160005573c0f6dc9e5836f54caadbf59cc69346c508e1992b3f600155",
                "storage": {
                    "0x01": "0xba5e"
                }
            },
            "0x1ad9bc24818784172ff393bb6f89f094d4d2ca29": {
                "nonce": "0x00",
                "balance": "0x3635c9adc5dea00000",
                "code": "0x",
                "storage": {}
            }
        },
        "postState": {
            "0x94734f685580564673fa010f5e6957422af24171": {
                "nonce": "0x01",
                "balance": "0x00",
                "code": "0x6000600060006000600073c0f6dc9e5836f54caadbf59cc69346c508e1992b6161a8f160005573c0f6dc9e5836f54caadbf59cc69346c508e1992b3f600155",
                "storage": {
                    "0x00": "0x01"
                }
            },
            "0x1ad9bc24818784172ff393bb6f89f094d4d2ca29": {
                "nonce": "0x01",
                "balance": "0x3635c9adc5de9b18ec",
                "code": "0x",
                "storage": {}
            },
            "0x2adc25665018aa1fe0e6bc666dac8fc2697ff9ba": {
                "nonce": "0x00",
                "balance": "0x1bc16d674ecce714",
                "code": "0x",
                "storage": {}
            }
        },
        "lastblockhash": "0xac154501737afc4e4cc1ef4bac7c9bc41c7e64017d1c358592a4954186fa67c3",
        "config": {
            "network": "ConstantinopleFix",
            "chainid": "0x01"
        },
        "genesisRLP": "0xf901f9f901f4a00000000000000000000000000000000000000000000000000000000000000000a01dcc4de8dec75d7aab85b567b6ccd41ad312451b948a7413f0a142fd40d49347940000000000000000000000000000000000000000a03f4a80c96bc414c70ad43e892369668eb7af9caf67d33f470e3303a715546a95a056e81f171bcc55a6ff8345e692c0f86e5b48e01b996cadc001622fb5e363b421a056e81f171bcc55a6ff8345e692c0f86e5b48e01b996cadc001622fb5e363b421b901000000000000000000000000000000000000000000000000000000000000000000000000000000000000000000000000000000000000000000000000000000000000000000000000000000000000000000000000000000000000000000000000000000000000000000000000000000000000000000000000000000000000000000000000000000000000000000000000000000000000000000000000000000000000000000000000000000000000000000000000000000000000000000000000000000000000000000000000000000000000000000000000000000000000000000000000000000000000000000000000000000000000000000000000000000000083020000808407270e00808000a00000000000000000000000000000000000000000000000000000000000000000880000000000000000c0c0",
        "blocks": [
            {
                "blockHeader": {
                    "parentHash": "0xc40d32cb5ead029fd38246dadaab19d61c6bb82bb6f33002c1be5d3cd9e4df13",
                    "uncleHash": "0x1dcc4de8dec75d7aab85b567b6ccd41ad312451b948a7413f0a142fd40d49347",
                    "coinbase": "0x2adc25665018aa1fe0e6bc666dac8fc2697ff9ba",
                    "stateRoot": "0xcd7b0895e940a9de958c170f0ce8a775817056ca69a82428822f295be293a0dd",
                    "transactionsTrie": "0x9cb27188d302f621abe43c758bf3a6e1e596cb567026762aabbecd127dcd640c",
                    "receiptTrie": "0xc9a2368e6ed14f45b06dfd61a5b4e71dedeb91089c22ae0a6fae721f331e9b4f",
                    "bloom": "0x00000000000000000000000000000000000000000000000000000000000000000000000000000000000000000000000000000000000000000000000000000000000000000000000000000000000000000000000000000000000000000000000000000000000000000000000000000000000000000000000000000000000000000000000000000000000000000000000000000000000000000000000000000000000000000000000000000000000000000000000000000000000000000000000000000000000000000000000000000000000000000000000000000000000000000000000000000000000000000000000000000000000000000000000000000000",
                    "difficulty": "0x020000",
                    "number": "0x01",
                    "gasLimit": "0x07270e00",
                    "gasUsed": "0x7d82",
                    "timestamp": "0x03e8",
                    "extraData": "0x00",
                    "mixHash": "0x0000000000000000000000000000000000000000000000000000000000000000",
                    "nonce": "0x0000000000000000",
                    "hash": "0xac154501737afc4e4cc1ef4bac7c9bc41c7e64017d1c358592a4954186fa67c3"
                },
                "transactions": [
                    {
                        "type": "0x00",
                        "chainId": "0x01",
                        "nonce": "0x00",
                        "gasPrice": "0x0a",
                        "gasLimit": "0x0f4240",
                        "to": "0x94734f685580564673fa010f5e6957422af24171",
                        "value": "0x00",
                        "data": "0x",
                        "v": "0x25",
                        "r": "0xc1c7946452c4b8901c3b53baa46a1c340499aac35e46857150b067d56834f390",
                        "s": "0x357c0d26c2d9154c265c8bca13572376022eaf5cf0b58bf009e80ed77c3dacc7",
                        "sender": "0x1ad9bc24818784172ff393bb6f89f094d4d2ca29"
                    }
                ],
                "uncleHeaders": [],
                "receipts": [
                    {
                        "transactionHash": "0x56dcc4fb50c68275f67dfc5d6cb00e893e86a54f5cb53abbff6127bf6f64229e",
                        "type": "0x00",
                        "cumulativeGasUsed": "0x7d82",
                        "bloom": "0x00000000000000000000000000000000000000000000000000000000000000000000000000000000000000000000000000000000000000000000000000000000000000000000000000000000000000000000000000000000000000000000000000000000000000000000000000000000000000000000000000000000000000000000000000000000000000000000000000000000000000000000000000000000000000000000000000000000000000000000000000000000000000000000000000000000000000000000000000000000000000000000000000000000000000000000000000000000000000000000000000000000000000000000000000000000",
                        "logs": [],
                        "status": true,
                        "rlp": "0xf9010801827d82b9010000000000000000000000000000000000000000000000000000000000000000000000000000000000000000000000000000000000000000000000000000000000000000000000000000000000000000000000000000000000000000000000000000000000000000000000000000000000000000000000000000000000000000000000000000000000000000000000000000000000000000000000000000000000000000000000000000000000000000000000000000000000000000000000000000000000000000000000000000000000000000000000000000000000000000000000000000000000000000000000000000000000000000000000000000000000c0"
                    }
                ],
                "rlp": "0xf90260f901f8a0c40d32cb5ead029fd38246dadaab19d61c6bb82bb6f33002c1be5d3cd9e4df13a01dcc4de8dec75d7aab85b567b6ccd41ad312451b948a7413f0a142fd40d49347942adc25665018aa1fe0e6bc666dac8fc2697ff9baa0cd7b0895e940a9de958c170f0ce8a775817056ca69a82428822f295be293a0dda09cb27188d302f621abe43c758bf3a6e1e596cb567026762aabbecd127dcd640ca0c9a2368e6ed14f45b06dfd61a5b4e71dedeb91089c22ae0a6fae721f331e9b4fb901000000000000000000000000000000000000000000000000000000000000000000000000000000000000000000000000000000000000000000000000000000000000000000000000000000000000000000000000000000000000000000000000000000000000000000000000000000000000000000000000000000000000000000000000000000000000000000000000000000000000000000000000000000000000000000000000000000000000000000000000000000000000000000000000000000000000000000000000000000000000000000000000000000000000000000000000000000000000000000000000000000000000000000000000000000000083020000018407270e00827d828203e800a00000000000000000000000000000000000000000000000000000000000000000880000000000000000f862f860800a830f42409494734f685580564673fa010f5e6957422af24171808025a0c1c7946452c4b8901c3b53baa46a1c340499aac35e46857150b067d56834f390a0357c0d26c2d9154c265c8bca13572376022eaf5cf0b58bf009e80ed77c3dacc7c0",
                "blocknumber": "1"
            }
        ],
        "sealEngine": "NoProof",
        "_info": {
            "hash": "0xe5b0eba3d25dc370e4ee310b7d879383298292b0d05cc3e51476aa83d7a1adf4",
            "fixture-format": "blockchain_test",
            "comment": "`execution-specs` generated test",
            "filling-transition-tool": "2.19.0",
            "description": "Test EXTCODEHASH after calling a non-existent account.\n\nCall a non-existent address using each call type, then check\nEXTCODEHASH \u2014 it returns 0 because the account does not exist.",
            "url": "https://github.com/ethereum/execution-specs/blob/tests-bal@v5.6.1/tests/constantinople/eip1052_extcodehash/test_extcodehash.py#L1210",
            "metadata": {
                "opcode_count": {}
            },
            "reference-spec": "https://github.com/ethereum/EIPs/blob/master/EIPS/eip-1052.md",
            "reference-spec-version": "2dcbc7ce1563e9624e137e9d447374600af876fa"
        }
    },
    "tests/constantinople/eip1052_extcodehash/test_extcodehash.py::test_extcodehash_call_to_nonexistent[fork_ConstantinopleFix-call_opcode_CALLCODE-blockchain_test_from_state_test]": {
        "network": "ConstantinopleFix",
        "genesisBlockHeader": {
            "parentHash": "0x0000000000000000000000000000000000000000000000000000000000000000",
            "uncleHash": "0x1dcc4de8dec75d7aab85b567b6ccd41ad312451b948a7413f0a142fd40d49347",
            "coinbase": "0x0000000000000000000000000000000000000000",
            "stateRoot": "0x5647a72243d700dbd5c4794a560cb2eaf8a7a996e38bdc933842cf7e9e9a9227",
            "transactionsTrie": "0x56e81f171bcc55a6ff8345e692c0f86e5b48e01b996cadc001622fb5e363b421",
            "receiptTrie": "0x56e81f171bcc55a6ff8345e692c0f86e5b48e01b996cadc001622fb5e363b421",
            "bloom": "0x00000000000000000000000000000000000000000000000000000000000000000000000000000000000000000000000000000000000000000000000000000000000000000000000000000000000000000000000000000000000000000000000000000000000000000000000000000000000000000000000000000000000000000000000000000000000000000000000000000000000000000000000000000000000000000000000000000000000000000000000000000000000000000000000000000000000000000000000000000000000000000000000000000000000000000000000000000000000000000000000000000000000000000000000000000000",
            "difficulty": "0x020000",
            "number": "0x00",
            "gasLimit": "0x07270e00",
            "gasUsed": "0x00",
            "timestamp": "0x00",
            "extraData": "0x00",
            "mixHash": "0x0000000000000000000000000000000000000000000000000000000000000000",
            "nonce": "0x0000000000000000",
            "hash": "0x10fd3a071ccc5a0c79ec82ac75c153d9ce20372fdd4be4b4ba75c4d0e3b6ccb6"
        },
        "pre": {
            "0x5f212d0ccac6ddead31f793e0cd28cc45e914a20": {
                "nonce": "0x01",
                "balance": "0x00",
                "code": "0x6000600060006000600073c0f6dc9e5836f54caadbf59cc69346c508e1992b6161a8f260005573c0f6dc9e5836f54caadbf59cc69346c508e1992b3f600155",
                "storage": {
                    "0x01": "0xba5e"
                }
            },
            "0x1ad9bc24818784172ff393bb6f89f094d4d2ca29": {
                "nonce": "0x00",
                "balance": "0x3635c9adc5dea00000",
                "code": "0x",
                "storage": {}
            }
        },
        "postState": {
            "0x5f212d0ccac6ddead31f793e0cd28cc45e914a20": {
                "nonce": "0x01",
                "balance": "0x00",
                "code": "0x6000600060006000600073c0f6dc9e5836f54caadbf59cc69346c508e1992b6161a8f260005573c0f6dc9e5836f54caadbf59cc69346c508e1992b3f600155",
                "storage": {
                    "0x00": "0x01"
                }
            },
            "0x1ad9bc24818784172ff393bb6f89f094d4d2ca29": {
                "nonce": "0x01",
                "balance": "0x3635c9adc5de9b18ec",
                "code": "0x",
                "storage": {}
            },
            "0x2adc25665018aa1fe0e6bc666dac8fc2697ff9ba": {
                "nonce": "0x00",
                "balance": "0x1bc16d674ecce714",
                "code": "0x",
                "storage": {}
            }
        },
        "lastblockhash": "0x2a1ef137edbcdf10f09c8ebdab08df6299bc8b6d1fa6ffd1433c60fbe438e5eb",
        "config": {
            "network": "ConstantinopleFix",
            "chainid": "0x01"
        },
        "genesisRLP": "0xf901f9f901f4a00000000000000000000000000000000000000000000000000000000000000000a01dcc4de8dec75d7aab85b567b6ccd41ad312451b948a7413f0a142fd40d49347940000000000000000000000000000000000000000a05647a72243d700dbd5c4794a560cb2eaf8a7a996e38bdc933842cf7e9e9a9227a056e81f171bcc55a6ff8345e692c0f86e5b48e01b996cadc001622fb5e363b421a056e81f171bcc55a6ff8345e692c0f86e5b48e01b996cadc001622fb5e363b421b901000000000000000000000000000000000000000000000000000000000000000000000000000000000000000000000000000000000000000000000000000000000000000000000000000000000000000000000000000000000000000000000000000000000000000000000000000000000000000000000000000000000000000000000000000000000000000000000000000000000000000000000000000000000000000000000000000000000000000000000000000000000000000000000000000000000000000000000000000000000000000000000000000000000000000000000000000000000000000000000000000000000000000000000000000000000083020000808407270e00808000a00000000000000000000000000000000000000000000000000000000000000000880000000000000000c0c0",
        "blocks": [
            {
                "blockHeader": {
                    "parentHash": "0x10fd3a071ccc5a0c79ec82ac75c153d9ce20372fdd4be4b4ba75c4d0e3b6ccb6",
                    "uncleHash": "0x1dcc4de8dec75d7aab85b567b6ccd41ad312451b948a7413f0a142fd40d49347",
                    "coinbase": "0x2adc25665018aa1fe0e6bc666dac8fc2697ff9ba",
                    "stateRoot": "0xd4f0cd30c7330e60f878823e9b2fb1cb10767658bf7ab80bdd0dd2005a7e4e37",
                    "transactionsTrie": "0x33e1084795d52590b7ec8ea3191a1c18d98857d444d20bf1947453d6dddaef60",
                    "receiptTrie": "0xc9a2368e6ed14f45b06dfd61a5b4e71dedeb91089c22ae0a6fae721f331e9b4f",
                    "bloom": "0x00000000000000000000000000000000000000000000000000000000000000000000000000000000000000000000000000000000000000000000000000000000000000000000000000000000000000000000000000000000000000000000000000000000000000000000000000000000000000000000000000000000000000000000000000000000000000000000000000000000000000000000000000000000000000000000000000000000000000000000000000000000000000000000000000000000000000000000000000000000000000000000000000000000000000000000000000000000000000000000000000000000000000000000000000000000",
                    "difficulty": "0x020000",
                    "number": "0x01",
                    "gasLimit": "0x07270e00",
                    "gasUsed": "0x7d82",
                    "timestamp": "0x03e8",
                    "extraData": "0x00",
                    "mixHash": "0x0000000000000000000000000000000000000000000000000000000000000000",
                    "nonce": "0x0000000000000000",
                    "hash": "0x2a1ef137edbcdf10f09c8ebdab08df6299bc8b6d1fa6ffd1433c60fbe438e5eb"
                },
                "transactions": [
                    {
                        "type": "0x00",
                        "chainId": "0x01",
                        "nonce": "0x00",
                        "gasPrice": "0x0a",
                        "gasLimit": "0x0f4240",
                        "to": "0x5f212d0ccac6ddead31f793e0cd28cc45e914a20",
                        "value": "0x00",
                        "data": "0x",
                        "v": "0x26",
                        "r": "0x93990805135a860c828a91ba3d260426e5d5005caf12fe225cc2e4d591070154",
                        "s": "0x46d0dc10421caebdb9e510a14b2d45c465b702866dd281b748c00def8604722d",
                        "sender": "0x1ad9bc24818784172ff393bb6f89f094d4d2ca29"
                    }
                ],
                "uncleHeaders": [],
                "receipts": [
                    {
                        "transactionHash": "0xb1be87d82a701375447208d130c99a64a582ee929e4d92c5b3bc64e9ad516c8b",
                        "type": "0x00",
                        "cumulativeGasUsed": "0x7d82",
                        "bloom": "0x00000000000000000000000000000000000000000000000000000000000000000000000000000000000000000000000000000000000000000000000000000000000000000000000000000000000000000000000000000000000000000000000000000000000000000000000000000000000000000000000000000000000000000000000000000000000000000000000000000000000000000000000000000000000000000000000000000000000000000000000000000000000000000000000000000000000000000000000000000000000000000000000000000000000000000000000000000000000000000000000000000000000000000000000000000000",
                        "logs": [],
                        "status": true,
                        "rlp": "0xf9010801827d82b9010000000000000000000000000000000000000000000000000000000000000000000000000000000000000000000000000000000000000000000000000000000000000000000000000000000000000000000000000000000000000000000000000000000000000000000000000000000000000000000000000000000000000000000000000000000000000000000000000000000000000000000000000000000000000000000000000000000000000000000000000000000000000000000000000000000000000000000000000000000000000000000000000000000000000000000000000000000000000000000000000000000000000000000000000000000000c0"
                    }
                ],
                "rlp": "0xf90260f901f8a010fd3a071ccc5a0c79ec82ac75c153d9ce20372fdd4be4b4ba75c4d0e3b6ccb6a01dcc4de8dec75d7aab85b567b6ccd41ad312451b948a7413f0a142fd40d49347942adc25665018aa1fe0e6bc666dac8fc2697ff9baa0d4f0cd30c7330e60f878823e9b2fb1cb10767658bf7ab80bdd0dd2005a7e4e37a033e1084795d52590b7ec8ea3191a1c18d98857d444d20bf1947453d6dddaef60a0c9a2368e6ed14f45b06dfd61a5b4e71dedeb91089c22ae0a6fae721f331e9b4fb901000000000000000000000000000000000000000000000000000000000000000000000000000000000000000000000000000000000000000000000000000000000000000000000000000000000000000000000000000000000000000000000000000000000000000000000000000000000000000000000000000000000000000000000000000000000000000000000000000000000000000000000000000000000000000000000000000000000000000000000000000000000000000000000000000000000000000000000000000000000000000000000000000000000000000000000000000000000000000000000000000000000000000000000000000000000083020000018407270e00827d828203e800a00000000000000000000000000000000000000000000000000000000000000000880000000000000000f862f860800a830f4240945f212d0ccac6ddead31f793e0cd28cc45e914a20808026a093990805135a860c828a91ba3d260426e5d5005caf12fe225cc2e4d591070154a046d0dc10421caebdb9e510a14b2d45c465b702866dd281b748c00def8604722dc0",
                "blocknumber": "1"
            }
        ],
        "sealEngine": "NoProof",
        "_info": {
            "hash": "0x2033e243a3980f4d8737376f607dcd40f6e44f53d49fca939eee5a6980c27030",
            "fixture-format": "blockchain_test",
            "comment": "`execution-specs` generated test",
            "filling-transition-tool": "2.19.0",
            "description": "Test EXTCODEHASH after calling a non-existent account.\n\nCall a non-existent address using each call type, then check\nEXTCODEHASH \u2014 it returns 0 because the account does not exist.",
            "url": "https://github.com/ethereum/execution-specs/blob/tests-bal@v5.6.1/tests/constantinople/eip1052_extcodehash/test_extcodehash.py#L1210",
            "metadata": {
                "opcode_count": {}
            },
            "reference-spec": "https://github.com/ethereum/EIPs/blob/master/EIPS/eip-1052.md",
            "reference-spec-version": "2dcbc7ce1563e9624e137e9d447374600af876fa"
        }
    },
    "tests/constantinople/eip1052_extcodehash/test_extcodehash.py::test_extcodehash_call_to_nonexistent[fork_ConstantinopleFix-call_opcode_DELEGATECALL-blockchain_test_from_state_test]": {
        "network": "ConstantinopleFix",
        "genesisBlockHeader": {
            "parentHash": "0x0000000000000000000000000000000000000000000000000000000000000000",
            "uncleHash": "0x1dcc4de8dec75d7aab85b567b6ccd41ad312451b948a7413f0a142fd40d49347",
            "coinbase": "0x0000000000000000000000000000000000000000",
            "stateRoot": "0x8d22e554556276efe22abb7565dc6e98e1cc62a942bc8055c2dfb57691f5e351",
            "transactionsTrie": "0x56e81f171bcc55a6ff8345e692c0f86e5b48e01b996cadc001622fb5e363b421",
            "receiptTrie": "0x56e81f171bcc55a6ff8345e692c0f86e5b48e01b996cadc001622fb5e363b421",
            "bloom": "0x00000000000000000000000000000000000000000000000000000000000000000000000000000000000000000000000000000000000000000000000000000000000000000000000000000000000000000000000000000000000000000000000000000000000000000000000000000000000000000000000000000000000000000000000000000000000000000000000000000000000000000000000000000000000000000000000000000000000000000000000000000000000000000000000000000000000000000000000000000000000000000000000000000000000000000000000000000000000000000000000000000000000000000000000000000000",
            "difficulty": "0x020000",
            "number": "0x00",
            "gasLimit": "0x07270e00",
            "gasUsed": "0x00",
            "timestamp": "0x00",
            "extraData": "0x00",
            "mixHash": "0x0000000000000000000000000000000000000000000000000000000000000000",
            "nonce": "0x0000000000000000",
            "hash": "0x5aec8912bb9ca3ec397b10f65f0d4b85436f41661a6665c4784299677f6f1ee4"
        },
        "pre": {
            "0x4f1c36edcc734ea5f5c2f69c6253a2a825c6e9c3": {
                "nonce": "0x01",
                "balance": "0x00",
                "code": "0x600060006000600073c0f6dc9e5836f54caadbf59cc69346c508e1992b6161a8f460005573c0f6dc9e5836f54caadbf59cc69346c508e1992b3f600155",
                "storage": {
                    "0x01": "0xba5e"
                }
            },
            "0x1ad9bc24818784172ff393bb6f89f094d4d2ca29": {
                "nonce": "0x00",
                "balance": "0x3635c9adc5dea00000",
                "code": "0x",
                "storage": {}
            }
        },
        "postState": {
            "0x4f1c36edcc734ea5f5c2f69c6253a2a825c6e9c3": {
                "nonce": "0x01",
                "balance": "0x00",
                "code": "0x600060006000600073c0f6dc9e5836f54caadbf59cc69346c508e1992b6161a8f460005573c0f6dc9e5836f54caadbf59cc69346c508e1992b3f600155",
                "storage": {
                    "0x00": "0x01"
                }
            },
            "0x1ad9bc24818784172ff393bb6f89f094d4d2ca29": {
                "nonce": "0x01",
                "balance": "0x3635c9adc5de9b190a",
                "code": "0x",
                "storage": {}
            },
            "0x2adc25665018aa1fe0e6bc666dac8fc2697ff9ba": {
                "nonce": "0x00",
                "balance": "0x1bc16d674ecce6f6",
                "code": "0x",
                "storage": {}
            }
        },
        "lastblockhash": "0x04a7aa098126bb5146e7160e3406da702a68a9bd93a3ebe06e470cc07b87dd66",
        "config": {
            "network": "ConstantinopleFix",
            "chainid": "0x01"
        },
        "genesisRLP": "0xf901f9f901f4a00000000000000000000000000000000000000000000000000000000000000000a01dcc4de8dec75d7aab85b567b6ccd41ad312451b948a7413f0a142fd40d49347940000000000000000000000000000000000000000a08d22e554556276efe22abb7565dc6e98e1cc62a942bc8055c2dfb57691f5e351a056e81f171bcc55a6ff8345e692c0f86e5b48e01b996cadc001622fb5e363b421a056e81f171bcc55a6ff8345e692c0f86e5b48e01b996cadc001622fb5e363b421b901000000000000000000000000000000000000000000000000000000000000000000000000000000000000000000000000000000000000000000000000000000000000000000000000000000000000000000000000000000000000000000000000000000000000000000000000000000000000000000000000000000000000000000000000000000000000000000000000000000000000000000000000000000000000000000000000000000000000000000000000000000000000000000000000000000000000000000000000000000000000000000000000000000000000000000000000000000000000000000000000000000000000000000000000000000000083020000808407270e00808000a00000000000000000000000000000000000000000000000000000000000000000880000000000000000c0c0",
        "blocks": [
            {
                "blockHeader": {
                    "parentHash": "0x5aec8912bb9ca3ec397b10f65f0d4b85436f41661a6665c4784299677f6f1ee4",
                    "uncleHash": "0x1dcc4de8dec75d7aab85b567b6ccd41ad312451b948a7413f0a142fd40d49347",
                    "coinbase": "0x2adc25665018aa1fe0e6bc666dac8fc2697ff9ba",
                    "stateRoot": "0x23232a8cce554f1631789023cf625980fb2a64b4ae13dad87ffb8a8a597ec5c7",
                    "transactionsTrie": "0xb34436a4779b48bed9a08d5cc99ee30b63892103e783a396014b58c47be2dd70",
                    "receiptTrie": "0x1333323a10cc1c57a31ba2ad9ad0c0279de526d7541eae7ff5a3ec00717215cf",
                    "bloom": "0x00000000000000000000000000000000000000000000000000000000000000000000000000000000000000000000000000000000000000000000000000000000000000000000000000000000000000000000000000000000000000000000000000000000000000000000000000000000000000000000000000000000000000000000000000000000000000000000000000000000000000000000000000000000000000000000000000000000000000000000000000000000000000000000000000000000000000000000000000000000000000000000000000000000000000000000000000000000000000000000000000000000000000000000000000000000",
                    "difficulty": "0x020000",
                    "number": "0x01",
                    "gasLimit": "0x07270e00",
                    "gasUsed": "0x7d7f",
                    "timestamp": "0x03e8",
                    "extraData": "0x00",
                    "mixHash": "0x0000000000000000000000000000000000000000000000000000000000000000",
                    "nonce": "0x0000000000000000",
                    "hash": "0x04a7aa098126bb5146e7160e3406da702a68a9bd93a3ebe06e470cc07b87dd66"
                },
                "transactions": [
                    {
                        "type": "0x00",
                        "chainId": "0x01",
                        "nonce": "0x00",
                        "gasPrice": "0x0a",
                        "gasLimit": "0x0f4240",
                        "to": "0x4f1c36edcc734ea5f5c2f69c6253a2a825c6e9c3",
                        "value": "0x00",
                        "data": "0x",
                        "v": "0x25",
                        "r": "0xdd22811bf23a71daf9340eeeb63d62ec2c749f5b817bd7226106a17294edb2ac",
                        "s": "0x072c469b6738233fb44789d734d482bb8ab3dc31b3d8b6aabd76a85c536623c2",
                        "sender": "0x1ad9bc24818784172ff393bb6f89f094d4d2ca29"
                    }
                ],
                "uncleHeaders": [],
                "receipts": [
                    {
                        "transactionHash": "0x46a5891169cf694609040ef3832fc209d78113446319d50dbf9ed7e62433ea37",
                        "type": "0x00",
                        "cumulativeGasUsed": "0x7d7f",
                        "bloom": "0x00000000000000000000000000000000000000000000000000000000000000000000000000000000000000000000000000000000000000000000000000000000000000000000000000000000000000000000000000000000000000000000000000000000000000000000000000000000000000000000000000000000000000000000000000000000000000000000000000000000000000000000000000000000000000000000000000000000000000000000000000000000000000000000000000000000000000000000000000000000000000000000000000000000000000000000000000000000000000000000000000000000000000000000000000000000",
                        "logs": [],
                        "status": true,
                        "rlp": "0xf9010801827d7fb9010000000000000000000000000000000000000000000000000000000000000000000000000000000000000000000000000000000000000000000000000000000000000000000000000000000000000000000000000000000000000000000000000000000000000000000000000000000000000000000000000000000000000000000000000000000000000000000000000000000000000000000000000000000000000000000000000000000000000000000000000000000000000000000000000000000000000000000000000000000000000000000000000000000000000000000000000000000000000000000000000000000000000000000000000000000000c0"
                    }
                ],
                "rlp": "0xf90260f901f8a05aec8912bb9ca3ec397b10f65f0d4b85436f41661a6665c4784299677f6f1ee4a01dcc4de8dec75d7aab85b567b6ccd41ad312451b948a7413f0a142fd40d49347942adc25665018aa1fe0e6bc666dac8fc2697ff9baa023232a8cce554f1631789023cf625980fb2a64b4ae13dad87ffb8a8a597ec5c7a0b34436a4779b48bed9a08d5cc99ee30b63892103e783a396014b58c47be2dd70a01333323a10cc1c57a31ba2ad9ad0c0279de526d7541eae7ff5a3ec00717215cfb901000000000000000000000000000000000000000000000000000000000000000000000000000000000000000000000000000000000000000000000000000000000000000000000000000000000000000000000000000000000000000000000000000000000000000000000000000000000000000000000000000000000000000000000000000000000000000000000000000000000000000000000000000000000000000000000000000000000000000000000000000000000000000000000000000000000000000000000000000000000000000000000000000000000000000000000000000000000000000000000000000000000000000000000000000000000083020000018407270e00827d7f8203e800a00000000000000000000000000000000000000000000000000000000000000000880000000000000000f862f860800a830f4240944f1c36edcc734ea5f5c2f69c6253a2a825c6e9c3808025a0dd22811bf23a71daf9340eeeb63d62ec2c749f5b817bd7226106a17294edb2aca0072c469b6738233fb44789d734d482bb8ab3dc31b3d8b6aabd76a85c536623c2c0",
                "blocknumber": "1"
            }
        ],
        "sealEngine": "NoProof",
        "_info": {
            "hash": "0x60734c65b01874a9b333f3a1b5d80226819c1599ba18506ad34fb054011d8b57",
            "fixture-format": "blockchain_test",
            "comment": "`execution-specs` generated test",
            "filling-transition-tool": "2.19.0",
            "description": "Test EXTCODEHASH after calling a non-existent account.\n\nCall a non-existent address using each call type, then check\nEXTCODEHASH \u2014 it returns 0 because the account does not exist.",
            "url": "https://github.com/ethereum/execution-specs/blob/tests-bal@v5.6.1/tests/constantinople/eip1052_extcodehash/test_extcodehash.py#L1210",
            "metadata": {
                "opcode_count": {}
            },
            "reference-spec": "https://github.com/ethereum/EIPs/blob/master/EIPS/eip-1052.md",
            "reference-spec-version": "2dcbc7ce1563e9624e137e9d447374600af876fa"
        }
    },
    "tests/constantinople/eip1052_extcodehash/test_extcodehash.py::test_extcodehash_call_to_nonexistent[fork_ConstantinopleFix-call_opcode_STATICCALL-blockchain_test_from_state_test]": {
        "network": "ConstantinopleFix",
        "genesisBlockHeader": {
            "parentHash": "0x0000000000000000000000000000000000000000000000000000000000000000",
            "uncleHash": "0x1dcc4de8dec75d7aab85b567b6ccd41ad312451b948a7413f0a142fd40d49347",
            "coinbase": "0x0000000000000000000000000000000000000000",
            "stateRoot": "0x372a18c9a82c0bf1c8062020a2329c537b5894aa09d3022e36d82f249a670f3c",
            "transactionsTrie": "0x56e81f171bcc55a6ff8345e692c0f86e5b48e01b996cadc001622fb5e363b421",
            "receiptTrie": "0x56e81f171bcc55a6ff8345e692c0f86e5b48e01b996cadc001622fb5e363b421",
            "bloom": "0x00000000000000000000000000000000000000000000000000000000000000000000000000000000000000000000000000000000000000000000000000000000000000000000000000000000000000000000000000000000000000000000000000000000000000000000000000000000000000000000000000000000000000000000000000000000000000000000000000000000000000000000000000000000000000000000000000000000000000000000000000000000000000000000000000000000000000000000000000000000000000000000000000000000000000000000000000000000000000000000000000000000000000000000000000000000",
            "difficulty": "0x020000",
            "number": "0x00",
            "gasLimit": "0x07270e00",
            "gasUsed": "0x00",
            "timestamp": "0x00",
            "extraData": "0x00",
            "mixHash": "0x0000000000000000000000000000000000000000000000000000000000000000",
            "nonce": "0x0000000000000000",
            "hash": "0x0130bd684d7ee7f94b93c4197e72c0b4c838003e6c646c64a9f32dd2979f1d5d"
        },
        "pre": {
            "0x83c828a86d4e617068f3a4a6f0cb46594d6b151a": {
                "nonce": "0x01",
                "balance": "0x00",
                "code": "0x600060006000600073c0f6dc9e5836f54caadbf59cc69346c508e1992b6161a8fa60005573c0f6dc9e5836f54caadbf59cc69346c508e1992b3f600155",
                "storage": {
                    "0x01": "0xba5e"
                }
            },
            "0x1ad9bc24818784172ff393bb6f89f094d4d2ca29": {
                "nonce": "0x00",
                "balance": "0x3635c9adc5dea00000",
                "code": "0x",
                "storage": {}
            }
        },
        "postState": {
            "0x83c828a86d4e617068f3a4a6f0cb46594d6b151a": {
                "nonce": "0x01",
                "balance": "0x00",
                "code": "0x600060006000600073c0f6dc9e5836f54caadbf59cc69346c508e1992b6161a8fa60005573c0f6dc9e5836f54caadbf59cc69346c508e1992b3f600155",
                "storage": {
                    "0x00": "0x01"
                }
            },
            "0x1ad9bc24818784172ff393bb6f89f094d4d2ca29": {
                "nonce": "0x01",
                "balance": "0x3635c9adc5de9b190a",
                "code": "0x",
                "storage": {}
            },
            "0x2adc25665018aa1fe0e6bc666dac8fc2697ff9ba": {
                "nonce": "0x00",
                "balance": "0x1bc16d674ecce6f6",
                "code": "0x",
                "storage": {}
            }
        },
        "lastblockhash": "0x881740d4a2f55646bed0076a3470c1d8e9ac60b79a4db7bf21978ae230564f7f",
        "config": {
            "network": "ConstantinopleFix",
            "chainid": "0x01"
        },
        "genesisRLP": "0xf901f9f901f4a00000000000000000000000000000000000000000000000000000000000000000a01dcc4de8dec75d7aab85b567b6ccd41ad312451b948a7413f0a142fd40d49347940000000000000000000000000000000000000000a0372a18c9a82c0bf1c8062020a2329c537b5894aa09d3022e36d82f249a670f3ca056e81f171bcc55a6ff8345e692c0f86e5b48e01b996cadc001622fb5e363b421a056e81f171bcc55a6ff8345e692c0f86e5b48e01b996cadc001622fb5e363b421b901000000000000000000000000000000000000000000000000000000000000000000000000000000000000000000000000000000000000000000000000000000000000000000000000000000000000000000000000000000000000000000000000000000000000000000000000000000000000000000000000000000000000000000000000000000000000000000000000000000000000000000000000000000000000000000000000000000000000000000000000000000000000000000000000000000000000000000000000000000000000000000000000000000000000000000000000000000000000000000000000000000000000000000000000000000000083020000808407270e00808000a00000000000000000000000000000000000000000000000000000000000000000880000000000000000c0c0",
        "blocks": [
            {
                "blockHeader": {
                    "parentHash": "0x0130bd684d7ee7f94b93c4197e72c0b4c838003e6c646c64a9f32dd2979f1d5d",
                    "uncleHash": "0x1dcc4de8dec75d7aab85b567b6ccd41ad312451b948a7413f0a142fd40d49347",
                    "coinbase": "0x2adc25665018aa1fe0e6bc666dac8fc2697ff9ba",
                    "stateRoot": "0x27dfaaa5b234255625b46cfbea850f520abb85148361e919718fea469e225801",
                    "transactionsTrie": "0x732a03013891afb63a1591b2ae31eb1a921d1ef22b39f4244df04750719da4cb",
                    "receiptTrie": "0x1333323a10cc1c57a31ba2ad9ad0c0279de526d7541eae7ff5a3ec00717215cf",
                    "bloom": "0x00000000000000000000000000000000000000000000000000000000000000000000000000000000000000000000000000000000000000000000000000000000000000000000000000000000000000000000000000000000000000000000000000000000000000000000000000000000000000000000000000000000000000000000000000000000000000000000000000000000000000000000000000000000000000000000000000000000000000000000000000000000000000000000000000000000000000000000000000000000000000000000000000000000000000000000000000000000000000000000000000000000000000000000000000000000",
                    "difficulty": "0x020000",
                    "number": "0x01",
                    "gasLimit": "0x07270e00",
                    "gasUsed": "0x7d7f",
                    "timestamp": "0x03e8",
                    "extraData": "0x00",
                    "mixHash": "0x0000000000000000000000000000000000000000000000000000000000000000",
                    "nonce": "0x0000000000000000",
                    "hash": "0x881740d4a2f55646bed0076a3470c1d8e9ac60b79a4db7bf21978ae230564f7f"
                },
                "transactions": [
                    {
                        "type": "0x00",
                        "chainId": "0x01",
                        "nonce": "0x00",
                        "gasPrice": "0x0a",
                        "gasLimit": "0x0f4240",
                        "to": "0x83c828a86d4e617068f3a4a6f0cb46594d6b151a",
                        "value": "0x00",
                        "data": "0x",
                        "v": "0x26",
                        "r": "0xbcf7a81da18d4acc77d257767d0327bc4a21e40b3cea42c3586b06b9b75ed970",
                        "s": "0x76ac52b469caa50d14bf209f0389cbdfe7f31b745cc4734dd345e389bc25a8de",
                        "sender": "0x1ad9bc24818784172ff393bb6f89f094d4d2ca29"
                    }
                ],
                "uncleHeaders": [],
                "receipts": [
                    {
                        "transactionHash": "0xdd64eab278218eb55da55e37f93990c4499239067bd3bce45d237d1e542faf10",
                        "type": "0x00",
                        "cumulativeGasUsed": "0x7d7f",
                        "bloom": "0x00000000000000000000000000000000000000000000000000000000000000000000000000000000000000000000000000000000000000000000000000000000000000000000000000000000000000000000000000000000000000000000000000000000000000000000000000000000000000000000000000000000000000000000000000000000000000000000000000000000000000000000000000000000000000000000000000000000000000000000000000000000000000000000000000000000000000000000000000000000000000000000000000000000000000000000000000000000000000000000000000000000000000000000000000000000",
                        "logs": [],
                        "status": true,
                        "rlp": "0xf9010801827d7fb9010000000000000000000000000000000000000000000000000000000000000000000000000000000000000000000000000000000000000000000000000000000000000000000000000000000000000000000000000000000000000000000000000000000000000000000000000000000000000000000000000000000000000000000000000000000000000000000000000000000000000000000000000000000000000000000000000000000000000000000000000000000000000000000000000000000000000000000000000000000000000000000000000000000000000000000000000000000000000000000000000000000000000000000000000000000000c0"
                    }
                ],
                "rlp": "0xf90260f901f8a00130bd684d7ee7f94b93c4197e72c0b4c838003e6c646c64a9f32dd2979f1d5da01dcc4de8dec75d7aab85b567b6ccd41ad312451b948a7413f0a142fd40d49347942adc25665018aa1fe0e6bc666dac8fc2697ff9baa027dfaaa5b234255625b46cfbea850f520abb85148361e919718fea469e225801a0732a03013891afb63a1591b2ae31eb1a921d1ef22b39f4244df04750719da4cba01333323a10cc1c57a31ba2ad9ad0c0279de526d7541eae7ff5a3ec00717215cfb901000000000000000000000000000000000000000000000000000000000000000000000000000000000000000000000000000000000000000000000000000000000000000000000000000000000000000000000000000000000000000000000000000000000000000000000000000000000000000000000000000000000000000000000000000000000000000000000000000000000000000000000000000000000000000000000000000000000000000000000000000000000000000000000000000000000000000000000000000000000000000000000000000000000000000000000000000000000000000000000000000000000000000000000000000000000083020000018407270e00827d7f8203e800a00000000000000000000000000000000000000000000000000000000000000000880000000000000000f862f860800a830f42409483c828a86d4e617068f3a4a6f0cb46594d6b151a808026a0bcf7a81da18d4acc77d257767d0327bc4a21e40b3cea42c3586b06b9b75ed970a076ac52b469caa50d14bf209f0389cbdfe7f31b745cc4734dd345e389bc25a8dec0",
                "blocknumber": "1"
            }
        ],
        "sealEngine": "NoProof",
        "_info": {
            "hash": "0xbd3a9ceba3dafbb671310c8567a306a9ff5d8369d00dde99c3e299b6b11dace2",
            "fixture-format": "blockchain_test",
            "comment": "`execution-specs` generated test",
            "filling-transition-tool": "2.19.0",
            "description": "Test EXTCODEHASH after calling a non-existent account.\n\nCall a non-existent address using each call type, then check\nEXTCODEHASH \u2014 it returns 0 because the account does not exist.",
            "url": "https://github.com/ethereum/execution-specs/blob/tests-bal@v5.6.1/tests/constantinople/eip1052_extcodehash/test_extcodehash.py#L1210",
            "metadata": {
                "opcode_count": {}
            },
            "reference-spec": "https://github.com/ethereum/EIPs/blob/master/EIPS/eip-1052.md",
            "reference-spec-version": "2dcbc7ce1563e9624e137e9d447374600af876fa"
        }
    }
}