{
    "tests/constantinople/eip1052_extcodehash/test_extcodehash.py::test_extcodehash_dynamic_account_overwrite[fork_ConstantinopleFix-blockchain_test_from_state_test-target_exists_False]": {
        "network": "ConstantinopleFix",
        "genesisBlockHeader": {
            "parentHash": "0x0000000000000000000000000000000000000000000000000000000000000000",
            "uncleHash": "0x1dcc4de8dec75d7aab85b567b6ccd41ad312451b948a7413f0a142fd40d49347",
            "coinbase": "0x0000000000000000000000000000000000000000",
            "stateRoot": "0xe5c438189278b1cdab5d3ef2e326fd3f7fa85618f9cf0c0b3776066e16d5ed4c",
            "transactionsTrie": "0x56e81f171bcc55a6ff8345e692c0f86e5b48e01b996cadc001622fb5e363b421",
            "receiptTrie": "0x56e81f171bcc55a6ff8345e692c0f86e5b48e01b996cadc001622fb5e363b421",
            "bloom": "0x00000000000000000000000000000000000000000000000000000000000000000000000000000000000000000000000000000000000000000000000000000000000000000000000000000000000000000000000000000000000000000000000000000000000000000000000000000000000000000000000000000000000000000000000000000000000000000000000000000000000000000000000000000000000000000000000000000000000000000000000000000000000000000000000000000000000000000000000000000000000000000000000000000000000000000000000000000000000000000000000000000000000000000000000000000000",
            "difficulty": "0x020000",
            "number": "0x00",
            "gasLimit": "0x07270e00",
            "gasUsed": "0x00",
            "timestamp": "0x00",
            "extraData": "0x00",
            "mixHash": "0x0000000000000000000000000000000000000000000000000000000000000000",
            "nonce": "0x0000000000000000",
            "hash": "0x4c77628aa1e6de35525d2f2952c8a51b55dc614aecc39a547fa0c3ef76454582"
        },
        "pre": {
            "0x303d284c44fff5f262f6d7a0f21fbdb7face17cf": {
                "nonce": "0x01",
                "balance": "0x01",
                "code": "0x6000353f6000556000353b6001556020600060006000353c60005160025560006000600060006000356000f46003557f610005600081600b8239f36001604a55000000000000000000000000000000006000526000601060006000f56004556000353f6005556000353b6006556020600060006000353c60005160075560006000600060006000355af4600855600060006000600060006000355af1600955",
                "storage": {
                    "0x00": "0xba5e",
                    "0x01": "0xba5e",
                    "0x02": "0xba5e",
                    "0x04": "0xba5e"
                }
            },
            "0x1ad9bc24818784172ff393bb6f89f094d4d2ca29": {
                "nonce": "0x00",
                "balance": "0x3635c9adc5dea00000",
                "code": "0x",
                "storage": {}
            }
        },
        "postState": {
            "0x303d284c44fff5f262f6d7a0f21fbdb7face17cf": {
                "nonce": "0x02",
                "balance": "0x01",
                "code": "0x6000353f6000556000353b6001556020600060006000353c60005160025560006000600060006000356000f46003557f610005600081600b8239f36001604a55000000000000000000000000000000006000526000601060006000f56004556000353f6005556000353b6006556020600060006000353c60005160075560006000600060006000355af4600855600060006000600060006000355af1600955",
                "storage": {
                    "0x04": "0x3178dbc701586eff6e6d35d4f147e956209ed2af",
                    "0x03": "0x01",
                    "0x05": "0x9d45013a17a644bbb764766c97a899b278a408219894f979e9924226f4569c21",
                    "0x06": "0x05",
                    "0x07": "0x6001604a55000000000000000000000000000000000000000000000000000000",
                    "0x4a": "0x01",
                    "0x08": "0x01",
                    "0x09": "0x01"
                }
            },
            "0x1ad9bc24818784172ff393bb6f89f094d4d2ca29": {
                "nonce": "0x01",
                "balance": "0x3635c9adc5de820a78",
                "code": "0x",
                "storage": {}
            },
            "0x3178dbc701586eff6e6d35d4f147e956209ed2af": {
                "nonce": "0x01",
                "balance": "0x00",
                "code": "0x6001604a55",
                "storage": {
                    "0x4a": "0x01"
                }
            },
            "0x2adc25665018aa1fe0e6bc666dac8fc2697ff9ba": {
                "nonce": "0x00",
                "balance": "0x1bc16d674ee5f588",
                "code": "0x",
                "storage": {}
            }
        },
        "lastblockhash": "0x8104cb6bb7c9d1f4b493fcfdd66d685d95cd2de237ccfc1889a618e1e236c7e3",
        "config": {
            "network": "ConstantinopleFix",
            "chainid": "0x01"
        },
        "genesisRLP": "0xf901f9f901f4a00000000000000000000000000000000000000000000000000000000000000000a01dcc4de8dec75d7aab85b567b6ccd41ad312451b948a7413f0a142fd40d49347940000000000000000000000000000000000000000a0e5c438189278b1cdab5d3ef2e326fd3f7fa85618f9cf0c0b3776066e16d5ed4ca056e81f171bcc55a6ff8345e692c0f86e5b48e01b996cadc001622fb5e363b421a056e81f171bcc55a6ff8345e692c0f86e5b48e01b996cadc001622fb5e363b421b901000000000000000000000000000000000000000000000000000000000000000000000000000000000000000000000000000000000000000000000000000000000000000000000000000000000000000000000000000000000000000000000000000000000000000000000000000000000000000000000000000000000000000000000000000000000000000000000000000000000000000000000000000000000000000000000000000000000000000000000000000000000000000000000000000000000000000000000000000000000000000000000000000000000000000000000000000000000000000000000000000000000000000000000000000000000083020000808407270e00808000a00000000000000000000000000000000000000000000000000000000000000000880000000000000000c0c0",
        "blocks": [
            {
                "blockHeader": {
                    "parentHash": "0x4c77628aa1e6de35525d2f2952c8a51b55dc614aecc39a547fa0c3ef76454582",
                    "uncleHash": "0x1dcc4de8dec75d7aab85b567b6ccd41ad312451b948a7413f0a142fd40d49347",
                    "coinbase": "0x2adc25665018aa1fe0e6bc666dac8fc2697ff9ba",
                    "stateRoot": "0x46159690db6dc9bd2218eb01109ac8ccf35d3103d9158ac6bd67a61add90d485",
                    "transactionsTrie": "0x21895abd74f3c09e0aa9114cbb865063ff209b9c23c135f80b2dee135021b1f9",
                    "receiptTrie": "0x482d68ea67ee94f8cf4c5165a3e5f71f72440b5ee74822b8aeccda49740e2754",
                    "bloom": "0x00000000000000000000000000000000000000000000000000000000000000000000000000000000000000000000000000000000000000000000000000000000000000000000000000000000000000000000000000000000000000000000000000000000000000000000000000000000000000000000000000000000000000000000000000000000000000000000000000000000000000000000000000000000000000000000000000000000000000000000000000000000000000000000000000000000000000000000000000000000000000000000000000000000000000000000000000000000000000000000000000000000000000000000000000000000",
                    "difficulty": "0x020000",
                    "number": "0x01",
                    "gasLimit": "0x07270e00",
                    "gasUsed": "0x02fef4",
                    "timestamp": "0x03e8",
                    "extraData": "0x00",
                    "mixHash": "0x0000000000000000000000000000000000000000000000000000000000000000",
                    "nonce": "0x0000000000000000",
                    "hash": "0x8104cb6bb7c9d1f4b493fcfdd66d685d95cd2de237ccfc1889a618e1e236c7e3"
                },
                "transactions": [
                    {
                        "type": "0x00",
                        "chainId": "0x01",
                        "nonce": "0x00",
                        "gasPrice": "0x0a",
                        "gasLimit": "0x061a80",
                        "to": "0x303d284c44fff5f262f6d7a0f21fbdb7face17cf",
                        "value": "0x00",
                        "data": "0x0000000000000000000000003178dbc701586eff6e6d35d4f147e956209ed2af",
                        "v": "0x26",
                        "r": "0xf3f8730556ec93f674414e051b7b7ba0b13ce3b655f987e41041c65b8b722e39",
                        "s": "0x7a9b276b61f2de8f3cafcf463b0dfdaab1fefb24f3dbec095d4f0815dacb6b8b",
                        "sender": "0x1ad9bc24818784172ff393bb6f89f094d4d2ca29"
                    }
                ],
                "uncleHeaders": [],
                "receipts": [
                    {
                        "transactionHash": "0xc59bc4fc6d31bc6c365ab00ba5591d2a4c06dfc86f3866c637b116c412e31dc3",
                        "type": "0x00",
                        "cumulativeGasUsed": "0x02fef4",
                        "bloom": "0x00000000000000000000000000000000000000000000000000000000000000000000000000000000000000000000000000000000000000000000000000000000000000000000000000000000000000000000000000000000000000000000000000000000000000000000000000000000000000000000000000000000000000000000000000000000000000000000000000000000000000000000000000000000000000000000000000000000000000000000000000000000000000000000000000000000000000000000000000000000000000000000000000000000000000000000000000000000000000000000000000000000000000000000000000000000",
                        "logs": [],
                        "status": true,
                        "rlp": "0xf90109018302fef4b9010000000000000000000000000000000000000000000000000000000000000000000000000000000000000000000000000000000000000000000000000000000000000000000000000000000000000000000000000000000000000000000000000000000000000000000000000000000000000000000000000000000000000000000000000000000000000000000000000000000000000000000000000000000000000000000000000000000000000000000000000000000000000000000000000000000000000000000000000000000000000000000000000000000000000000000000000000000000000000000000000000000000000000000000000000000000c0"
                    }
                ],
                "rlp": "0xf90281f901f9a04c77628aa1e6de35525d2f2952c8a51b55dc614aecc39a547fa0c3ef76454582a01dcc4de8dec75d7aab85b567b6ccd41ad312451b948a7413f0a142fd40d49347942adc25665018aa1fe0e6bc666dac8fc2697ff9baa046159690db6dc9bd2218eb01109ac8ccf35d3103d9158ac6bd67a61add90d485a021895abd74f3c09e0aa9114cbb865063ff209b9c23c135f80b2dee135021b1f9a0482d68ea67ee94f8cf4c5165a3e5f71f72440b5ee74822b8aeccda49740e2754b901000000000000000000000000000000000000000000000000000000000000000000000000000000000000000000000000000000000000000000000000000000000000000000000000000000000000000000000000000000000000000000000000000000000000000000000000000000000000000000000000000000000000000000000000000000000000000000000000000000000000000000000000000000000000000000000000000000000000000000000000000000000000000000000000000000000000000000000000000000000000000000000000000000000000000000000000000000000000000000000000000000000000000000000000000000000083020000018407270e008302fef48203e800a00000000000000000000000000000000000000000000000000000000000000000880000000000000000f882f880800a83061a8094303d284c44fff5f262f6d7a0f21fbdb7face17cf80a00000000000000000000000003178dbc701586eff6e6d35d4f147e956209ed2af26a0f3f8730556ec93f674414e051b7b7ba0b13ce3b655f987e41041c65b8b722e39a07a9b276b61f2de8f3cafcf463b0dfdaab1fefb24f3dbec095d4f0815dacb6b8bc0",
                "blocknumber": "1"
            }
        ],
        "sealEngine": "NoProof",
        "_info": {
            "hash": "0xc37c775ee0e10409d8f6f40f558460c3542c227d2c6a2de0117dd6ceda011f40",
            "fixture-format": "blockchain_test",
            "comment": "`execution-specs` generated test",
            "filling-transition-tool": "2.19.0",
            "description": "Test EXTCODEHASH of non-existent/no-code account,\nthen with code deployed at the address via CREATE2.\n\nThis verifies that the code hash cache is correctly updated during the\ntransaction when an account is overwritten by CREATE2.\n\nThe target address is computed after the caller contract code is deployed,\nand passed as calldata to the caller contract.\n\nThe target account code sets a fixed storage slot. This code is executed\nat the caller account via DELEGATECALL and at the target account via CALL.\n\nModified from original test: target account has no storage to avoid\nEIP-7610 collision behavior.",
            "url": "https://github.com/ethereum/execution-specs/blob/tests-snobal-devnet-5@v8037.0.0/tests/constantinople/eip1052_extcodehash/test_extcodehash.py#L441",
            "metadata": {
                "opcode_count": {}
            },
            "reference-spec": "https://github.com/ethereum/EIPs/blob/master/EIPS/eip-1052.md",
            "reference-spec-version": "2dcbc7ce1563e9624e137e9d447374600af876fa"
        }
    },
    "tests/constantinople/eip1052_extcodehash/test_extcodehash.py::test_extcodehash_dynamic_account_overwrite[fork_ConstantinopleFix-blockchain_test_from_state_test-target_exists_True]": {
        "network": "ConstantinopleFix",
        "genesisBlockHeader": {
            "parentHash": "0x0000000000000000000000000000000000000000000000000000000000000000",
            "uncleHash": "0x1dcc4de8dec75d7aab85b567b6ccd41ad312451b948a7413f0a142fd40d49347",
            "coinbase": "0x0000000000000000000000000000000000000000",
            "stateRoot": "0xba22f6d74f1dea2f918496be1e5631837070f84defa46caa81fbbe292b4a11b2",
            "transactionsTrie": "0x56e81f171bcc55a6ff8345e692c0f86e5b48e01b996cadc001622fb5e363b421",
            "receiptTrie": "0x56e81f171bcc55a6ff8345e692c0f86e5b48e01b996cadc001622fb5e363b421",
            "bloom": "0x00000000000000000000000000000000000000000000000000000000000000000000000000000000000000000000000000000000000000000000000000000000000000000000000000000000000000000000000000000000000000000000000000000000000000000000000000000000000000000000000000000000000000000000000000000000000000000000000000000000000000000000000000000000000000000000000000000000000000000000000000000000000000000000000000000000000000000000000000000000000000000000000000000000000000000000000000000000000000000000000000000000000000000000000000000000",
            "difficulty": "0x020000",
            "number": "0x00",
            "gasLimit": "0x07270e00",
            "gasUsed": "0x00",
            "timestamp": "0x00",
            "extraData": "0x00",
            "mixHash": "0x0000000000000000000000000000000000000000000000000000000000000000",
            "nonce": "0x0000000000000000",
            "hash": "0x0f29954b62faab2f5c515f49c47a5f44845427a03abd8141aafda1a99b829a3d"
        },
        "pre": {
            "0x8cb013ee6d08358cbe95e556d019a38ec6fc8c11": {
                "nonce": "0x01",
                "balance": "0x01",
                "code": "0x6000353f6000556000353b6001556020600060006000353c60005160025560006000600060006000356000f46003557f610005600081600b8239f36001604a55000000000000000000000000000000006000526000601060006000f56004556000353f6005556000353b6006556020600060006000353c60005160075560006000600060006000355af4600855600060006000600060006000355af1600955",
                "storage": {
                    "0x01": "0xba5e",
                    "0x02": "0xba5e",
                    "0x04": "0xba5e"
                }
            },
            "0xcc64a5dd62624460f91069dae0b31e54de68dab9": {
                "nonce": "0x00",
                "balance": "0x01",
                "code": "0x",
                "storage": {}
            },
            "0x1ad9bc24818784172ff393bb6f89f094d4d2ca29": {
                "nonce": "0x00",
                "balance": "0x3635c9adc5dea00000",
                "code": "0x",
                "storage": {}
            }
        },
        "postState": {
            "0x8cb013ee6d08358cbe95e556d019a38ec6fc8c11": {
                "nonce": "0x02",
                "balance": "0x01",
                "code": "0x6000353f6000556000353b6001556020600060006000353c60005160025560006000600060006000356000f46003557f610005600081600b8239f36001604a55000000000000000000000000000000006000526000601060006000f56004556000353f6005556000353b6006556020600060006000353c60005160075560006000600060006000355af4600855600060006000600060006000355af1600955",
                "storage": {
                    "0x04": "0xcc64a5dd62624460f91069dae0b31e54de68dab9",
                    "0x00": "0xc5d2460186f7233c927e7db2dcc703c0e500b653ca82273b7bfad8045d85a470",
                    "0x03": "0x01",
                    "0x05": "0x9d45013a17a644bbb764766c97a899b278a408219894f979e9924226f4569c21",
                    "0x06": "0x05",
                    "0x07": "0x6001604a55000000000000000000000000000000000000000000000000000000",
                    "0x4a": "0x01",
                    "0x08": "0x01",
                    "0x09": "0x01"
                }
            },
            "0xcc64a5dd62624460f91069dae0b31e54de68dab9": {
                "nonce": "0x01",
                "balance": "0x01",
                "code": "0x6001604a55",
                "storage": {
                    "0x4a": "0x01"
                }
            },
            "0x1ad9bc24818784172ff393bb6f89f094d4d2ca29": {
                "nonce": "0x01",
                "balance": "0x3635c9adc5de7d7698",
                "code": "0x",
                "storage": {}
            },
            "0x2adc25665018aa1fe0e6bc666dac8fc2697ff9ba": {
                "nonce": "0x00",
                "balance": "0x1bc16d674eea8968",
                "code": "0x",
                "storage": {}
            }
        },
        "lastblockhash": "0xabe965250dcc2feafc596c47262f80f029d4499ebe4c68da41be5ffd8e2c5b4e",
        "config": {
            "network": "ConstantinopleFix",
            "chainid": "0x01"
        },
        "genesisRLP": "0xf901f9f901f4a00000000000000000000000000000000000000000000000000000000000000000a01dcc4de8dec75d7aab85b567b6ccd41ad312451b948a7413f0a142fd40d49347940000000000000000000000000000000000000000a0ba22f6d74f1dea2f918496be1e5631837070f84defa46caa81fbbe292b4a11b2a056e81f171bcc55a6ff8345e692c0f86e5b48e01b996cadc001622fb5e363b421a056e81f171bcc55a6ff8345e692c0f86e5b48e01b996cadc001622fb5e363b421b901000000000000000000000000000000000000000000000000000000000000000000000000000000000000000000000000000000000000000000000000000000000000000000000000000000000000000000000000000000000000000000000000000000000000000000000000000000000000000000000000000000000000000000000000000000000000000000000000000000000000000000000000000000000000000000000000000000000000000000000000000000000000000000000000000000000000000000000000000000000000000000000000000000000000000000000000000000000000000000000000000000000000000000000000000000000083020000808407270e00808000a00000000000000000000000000000000000000000000000000000000000000000880000000000000000c0c0",
        "blocks": [
            {
                "blockHeader": {
                    "parentHash": "0x0f29954b62faab2f5c515f49c47a5f44845427a03abd8141aafda1a99b829a3d",
                    "uncleHash": "0x1dcc4de8dec75d7aab85b567b6ccd41ad312451b948a7413f0a142fd40d49347",
                    "coinbase": "0x2adc25665018aa1fe0e6bc666dac8fc2697ff9ba",
                    "stateRoot": "0x794f3468d7934f484c41502d92da52935b464c26442541166717f5cf1341eae2",
                    "transactionsTrie": "0x38d4b90a39b7954707de6b9249ecd506bef80812d18ec09365517e656f397fc3",
                    "receiptTrie": "0x004ed487a7efd2337c0e660e33babdb65eeebbaedb731027878a4f9442d06a77",
                    "bloom": "0x00000000000000000000000000000000000000000000000000000000000000000000000000000000000000000000000000000000000000000000000000000000000000000000000000000000000000000000000000000000000000000000000000000000000000000000000000000000000000000000000000000000000000000000000000000000000000000000000000000000000000000000000000000000000000000000000000000000000000000000000000000000000000000000000000000000000000000000000000000000000000000000000000000000000000000000000000000000000000000000000000000000000000000000000000000000",
                    "difficulty": "0x020000",
                    "number": "0x01",
                    "gasLimit": "0x07270e00",
                    "gasUsed": "0x037424",
                    "timestamp": "0x03e8",
                    "extraData": "0x00",
                    "mixHash": "0x0000000000000000000000000000000000000000000000000000000000000000",
                    "nonce": "0x0000000000000000",
                    "hash": "0xabe965250dcc2feafc596c47262f80f029d4499ebe4c68da41be5ffd8e2c5b4e"
                },
                "transactions": [
                    {
                        "type": "0x00",
                        "chainId": "0x01",
                        "nonce": "0x00",
                        "gasPrice": "0x0a",
                        "gasLimit": "0x061a80",
                        "to": "0x8cb013ee6d08358cbe95e556d019a38ec6fc8c11",
                        "value": "0x00",
                        "data": "0x000000000000000000000000cc64a5dd62624460f91069dae0b31e54de68dab9",
                        "v": "0x26",
                        "r": "0xa9cf06d75e5306d41dd1a13e4e6afa4c3a5c41c0ed9a6a2904234697ed999933",
                        "s": "0x43d8d85c06c1b205d7a87433c6d5b9ac41bc15eefee6870da3ccab8109e66927",
                        "sender": "0x1ad9bc24818784172ff393bb6f89f094d4d2ca29"
                    }
                ],
                "uncleHeaders": [],
                "receipts": [
                    {
                        "transactionHash": "0x9165b9fdd0f259da19eeac008cc251bbade85b7cf6b407acb43a4ae238859e41",
                        "type": "0x00",
                        "cumulativeGasUsed": "0x037424",
                        "bloom": "0x00000000000000000000000000000000000000000000000000000000000000000000000000000000000000000000000000000000000000000000000000000000000000000000000000000000000000000000000000000000000000000000000000000000000000000000000000000000000000000000000000000000000000000000000000000000000000000000000000000000000000000000000000000000000000000000000000000000000000000000000000000000000000000000000000000000000000000000000000000000000000000000000000000000000000000000000000000000000000000000000000000000000000000000000000000000",
                        "logs": [],
                        "status": true,
                        "rlp": "0xf901090183037424b9010000000000000000000000000000000000000000000000000000000000000000000000000000000000000000000000000000000000000000000000000000000000000000000000000000000000000000000000000000000000000000000000000000000000000000000000000000000000000000000000000000000000000000000000000000000000000000000000000000000000000000000000000000000000000000000000000000000000000000000000000000000000000000000000000000000000000000000000000000000000000000000000000000000000000000000000000000000000000000000000000000000000000000000000000000000000c0"
                    }
                ],
                "rlp": "0xf90281f901f9a00f29954b62faab2f5c515f49c47a5f44845427a03abd8141aafda1a99b829a3da01dcc4de8dec75d7aab85b567b6ccd41ad312451b948a7413f0a142fd40d49347942adc25665018aa1fe0e6bc666dac8fc2697ff9baa0794f3468d7934f484c41502d92da52935b464c26442541166717f5cf1341eae2a038d4b90a39b7954707de6b9249ecd506bef80812d18ec09365517e656f397fc3a0004ed487a7efd2337c0e660e33babdb65eeebbaedb731027878a4f9442d06a77b901000000000000000000000000000000000000000000000000000000000000000000000000000000000000000000000000000000000000000000000000000000000000000000000000000000000000000000000000000000000000000000000000000000000000000000000000000000000000000000000000000000000000000000000000000000000000000000000000000000000000000000000000000000000000000000000000000000000000000000000000000000000000000000000000000000000000000000000000000000000000000000000000000000000000000000000000000000000000000000000000000000000000000000000000000000000083020000018407270e00830374248203e800a00000000000000000000000000000000000000000000000000000000000000000880000000000000000f882f880800a83061a80948cb013ee6d08358cbe95e556d019a38ec6fc8c1180a0000000000000000000000000cc64a5dd62624460f91069dae0b31e54de68dab926a0a9cf06d75e5306d41dd1a13e4e6afa4c3a5c41c0ed9a6a2904234697ed999933a043d8d85c06c1b205d7a87433c6d5b9ac41bc15eefee6870da3ccab8109e66927c0",
                "blocknumber": "1"
            }
        ],
        "sealEngine": "NoProof",
        "_info": {
            "hash": "0x605dda3860c26f26b723f33efd0b43e5329924b7cb6ec2d8e5e5226a90534b84",
            "fixture-format": "blockchain_test",
            "comment": "`execution-specs` generated test",
            "filling-transition-tool": "2.19.0",
            "description": "Test EXTCODEHASH of non-existent/no-code account,\nthen with code deployed at the address via CREATE2.\n\nThis verifies that the code hash cache is correctly updated during the\ntransaction when an account is overwritten by CREATE2.\n\nThe target address is computed after the caller contract code is deployed,\nand passed as calldata to the caller contract.\n\nThe target account code sets a fixed storage slot. This code is executed\nat the caller account via DELEGATECALL and at the target account via CALL.\n\nModified from original test: target account has no storage to avoid\nEIP-7610 collision behavior.",
            "url": "https://github.com/ethereum/execution-specs/blob/tests-snobal-devnet-5@v8037.0.0/tests/constantinople/eip1052_extcodehash/test_extcodehash.py#L441",
            "metadata": {
                "opcode_count": {}
            },
            "reference-spec": "https://github.com/ethereum/EIPs/blob/master/EIPS/eip-1052.md",
            "reference-spec-version": "2dcbc7ce1563e9624e137e9d447374600af876fa"
        }
    }
}