{
    "tests/constantinople/eip1052_extcodehash/test_extcodehash.py::test_extcodehash_created_and_deleted[fork_ConstantinopleFix-blockchain_test_from_state_test-call]": {
        "network": "ConstantinopleFix",
        "genesisBlockHeader": {
            "parentHash": "0x0000000000000000000000000000000000000000000000000000000000000000",
            "uncleHash": "0x1dcc4de8dec75d7aab85b567b6ccd41ad312451b948a7413f0a142fd40d49347",
            "coinbase": "0x0000000000000000000000000000000000000000",
            "stateRoot": "0x3771572b9570549471a45aafc39431f63f2db7c1a446310deb79a654ddec741a",
            "transactionsTrie": "0x56e81f171bcc55a6ff8345e692c0f86e5b48e01b996cadc001622fb5e363b421",
            "receiptTrie": "0x56e81f171bcc55a6ff8345e692c0f86e5b48e01b996cadc001622fb5e363b421",
            "bloom": "0x00000000000000000000000000000000000000000000000000000000000000000000000000000000000000000000000000000000000000000000000000000000000000000000000000000000000000000000000000000000000000000000000000000000000000000000000000000000000000000000000000000000000000000000000000000000000000000000000000000000000000000000000000000000000000000000000000000000000000000000000000000000000000000000000000000000000000000000000000000000000000000000000000000000000000000000000000000000000000000000000000000000000000000000000000000000",
            "difficulty": "0x020000",
            "number": "0x00",
            "gasLimit": "0x07270e00",
            "gasUsed": "0x00",
            "timestamp": "0x00",
            "extraData": "0x00",
            "mixHash": "0x0000000000000000000000000000000000000000000000000000000000000000",
            "nonce": "0x0000000000000000",
            "hash": "0x9645ce730c2d6d0331c1f83a14261654dd302dc00cb891994d806429497ac1a3"
        },
        "pre": {
            "0x038183b717bb2d14b99e7095a73e663f9ae9f5a3": {
                "nonce": "0x01",
                "balance": "0x00",
                "code": "0x7f610003600081600b8239f36000ff0000000000000000000000000000000000006000526010600e60006000f56000556000543f6001556000543b6002556020600060006000543c6000516003556000600060006000600060005462010000f1506000543f6004556000543b6005556020600060006000543c600051600655",
                "storage": {
                    "0x00": "0xba5e"
                }
            },
            "0x1ad9bc24818784172ff393bb6f89f094d4d2ca29": {
                "nonce": "0x00",
                "balance": "0x3635c9adc5dea00000",
                "code": "0x",
                "storage": {}
            }
        },
        "postState": {
            "0x038183b717bb2d14b99e7095a73e663f9ae9f5a3": {
                "nonce": "0x02",
                "balance": "0x00",
                "code": "0x7f610003600081600b8239f36000ff0000000000000000000000000000000000006000526010600e60006000f56000556000543f6001556000543b6002556020600060006000543c6000516003556000600060006000600060005462010000f1506000543f6004556000543b6005556020600060006000543c600051600655",
                "storage": {
                    "0x00": "0x7467977e25e7fb202abb90f42280dfd8db234dec",
                    "0x01": "0x396daaf3a7871f857cc9b5878c6bb66c394a6d109706095617db9f4e4c22edcd",
                    "0x02": "0x03",
                    "0x03": "0x6000ff0000000000000000000000000000000000000000000000000000000000",
                    "0x04": "0x396daaf3a7871f857cc9b5878c6bb66c394a6d109706095617db9f4e4c22edcd",
                    "0x05": "0x03",
                    "0x06": "0x6000ff0000000000000000000000000000000000000000000000000000000000"
                }
            },
            "0x1ad9bc24818784172ff393bb6f89f094d4d2ca29": {
                "nonce": "0x01",
                "balance": "0x3635c9adc5de86c0ea",
                "code": "0x",
                "storage": {}
            },
            "0x2adc25665018aa1fe0e6bc666dac8fc2697ff9ba": {
                "nonce": "0x00",
                "balance": "0x1bc16d674ee13f16",
                "code": "0x",
                "storage": {}
            }
        },
        "lastblockhash": "0xd8088cfa566df7349f6ae4d2c1fc10024aa1897c7982876ad0cc1ee1557e124b",
        "config": {
            "network": "ConstantinopleFix",
            "chainid": "0x01"
        },
        "genesisRLP": "0xf901f9f901f4a00000000000000000000000000000000000000000000000000000000000000000a01dcc4de8dec75d7aab85b567b6ccd41ad312451b948a7413f0a142fd40d49347940000000000000000000000000000000000000000a03771572b9570549471a45aafc39431f63f2db7c1a446310deb79a654ddec741aa056e81f171bcc55a6ff8345e692c0f86e5b48e01b996cadc001622fb5e363b421a056e81f171bcc55a6ff8345e692c0f86e5b48e01b996cadc001622fb5e363b421b901000000000000000000000000000000000000000000000000000000000000000000000000000000000000000000000000000000000000000000000000000000000000000000000000000000000000000000000000000000000000000000000000000000000000000000000000000000000000000000000000000000000000000000000000000000000000000000000000000000000000000000000000000000000000000000000000000000000000000000000000000000000000000000000000000000000000000000000000000000000000000000000000000000000000000000000000000000000000000000000000000000000000000000000000000000000083020000808407270e00808000a00000000000000000000000000000000000000000000000000000000000000000880000000000000000c0c0",
        "blocks": [
            {
                "blockHeader": {
                    "parentHash": "0x9645ce730c2d6d0331c1f83a14261654dd302dc00cb891994d806429497ac1a3",
                    "uncleHash": "0x1dcc4de8dec75d7aab85b567b6ccd41ad312451b948a7413f0a142fd40d49347",
                    "coinbase": "0x2adc25665018aa1fe0e6bc666dac8fc2697ff9ba",
                    "stateRoot": "0xb91c91e292e70e22567d294364dca29965408d5e029b0e21d849d7e901407ea2",
                    "transactionsTrie": "0x94083305e231ee33edd820f96ba45c8b1a6720a033cfed28e109211facafd121",
                    "receiptTrie": "0x32187c833a63b3b6df0fd9ae645ae819fe194a78dcfb84cef56fbafae5699418",
                    "bloom": "0x00000000000000000000000000000000000000000000000000000000000000000000000000000000000000000000000000000000000000000000000000000000000000000000000000000000000000000000000000000000000000000000000000000000000000000000000000000000000000000000000000000000000000000000000000000000000000000000000000000000000000000000000000000000000000000000000000000000000000000000000000000000000000000000000000000000000000000000000000000000000000000000000000000000000000000000000000000000000000000000000000000000000000000000000000000000",
                    "difficulty": "0x020000",
                    "number": "0x01",
                    "gasLimit": "0x07270e00",
                    "gasUsed": "0x02864f",
                    "timestamp": "0x03e8",
                    "extraData": "0x00",
                    "mixHash": "0x0000000000000000000000000000000000000000000000000000000000000000",
                    "nonce": "0x0000000000000000",
                    "hash": "0xd8088cfa566df7349f6ae4d2c1fc10024aa1897c7982876ad0cc1ee1557e124b"
                },
                "transactions": [
                    {
                        "type": "0x00",
                        "chainId": "0x01",
                        "nonce": "0x00",
                        "gasPrice": "0x0a",
                        "gasLimit": "0x061a80",
                        "to": "0x038183b717bb2d14b99e7095a73e663f9ae9f5a3",
                        "value": "0x00",
                        "data": "0x",
                        "v": "0x26",
                        "r": "0x4411f1e5ea9aaa7c14321d84093691b17baa0798b7281b0a12adf51c8f621162",
                        "s": "0x18220995aa9f55cd309cf1a4ce428b71820e00a1c2e12b6cf227fead9feba4f8",
                        "sender": "0x1ad9bc24818784172ff393bb6f89f094d4d2ca29"
                    }
                ],
                "uncleHeaders": [],
                "receipts": [
                    {
                        "transactionHash": "0xea1288f3926074127478f0f83827b1933e570da9ca883898b55633a299a86943",
                        "type": "0x00",
                        "cumulativeGasUsed": "0x02864f",
                        "bloom": "0x00000000000000000000000000000000000000000000000000000000000000000000000000000000000000000000000000000000000000000000000000000000000000000000000000000000000000000000000000000000000000000000000000000000000000000000000000000000000000000000000000000000000000000000000000000000000000000000000000000000000000000000000000000000000000000000000000000000000000000000000000000000000000000000000000000000000000000000000000000000000000000000000000000000000000000000000000000000000000000000000000000000000000000000000000000000",
                        "logs": [],
                        "status": true,
                        "rlp": "0xf90109018302864fb9010000000000000000000000000000000000000000000000000000000000000000000000000000000000000000000000000000000000000000000000000000000000000000000000000000000000000000000000000000000000000000000000000000000000000000000000000000000000000000000000000000000000000000000000000000000000000000000000000000000000000000000000000000000000000000000000000000000000000000000000000000000000000000000000000000000000000000000000000000000000000000000000000000000000000000000000000000000000000000000000000000000000000000000000000000000000c0"
                    }
                ],
                "rlp": "0xf90261f901f9a09645ce730c2d6d0331c1f83a14261654dd302dc00cb891994d806429497ac1a3a01dcc4de8dec75d7aab85b567b6ccd41ad312451b948a7413f0a142fd40d49347942adc25665018aa1fe0e6bc666dac8fc2697ff9baa0b91c91e292e70e22567d294364dca29965408d5e029b0e21d849d7e901407ea2a094083305e231ee33edd820f96ba45c8b1a6720a033cfed28e109211facafd121a032187c833a63b3b6df0fd9ae645ae819fe194a78dcfb84cef56fbafae5699418b901000000000000000000000000000000000000000000000000000000000000000000000000000000000000000000000000000000000000000000000000000000000000000000000000000000000000000000000000000000000000000000000000000000000000000000000000000000000000000000000000000000000000000000000000000000000000000000000000000000000000000000000000000000000000000000000000000000000000000000000000000000000000000000000000000000000000000000000000000000000000000000000000000000000000000000000000000000000000000000000000000000000000000000000000000000000083020000018407270e008302864f8203e800a00000000000000000000000000000000000000000000000000000000000000000880000000000000000f862f860800a83061a8094038183b717bb2d14b99e7095a73e663f9ae9f5a3808026a04411f1e5ea9aaa7c14321d84093691b17baa0798b7281b0a12adf51c8f621162a018220995aa9f55cd309cf1a4ce428b71820e00a1c2e12b6cf227fead9feba4f8c0",
                "blocknumber": "1"
            }
        ],
        "sealEngine": "NoProof",
        "_info": {
            "hash": "0x6832e14283abcefc0345b99407d52cca49d5212ddc6bc427cb22d0a071d25feb",
            "fixture-format": "blockchain_test",
            "comment": "`execution-specs` generated test",
            "filling-transition-tool": "2.19.0",
            "description": "Test EXTCODEHASH of an account created and selfdestructed in same tx.\n\nCREATE2 a contract with SELFDESTRUCT code, check EXTCODEHASH,\nEXTCODESIZE, and EXTCODECOPY before and after triggering it. Within\nthe transaction, the values remain unchanged. With CALL the created\ncontract is deleted at end of transaction; with STATICCALL the\ntrigger fails and the contract persists.",
            "url": "https://github.com/ethereum/execution-specs/blob/tests-snobal-devnet-5@v8037.0.0/tests/constantinople/eip1052_extcodehash/test_extcodehash.py#L1384",
            "metadata": {
                "opcode_count": {}
            },
            "reference-spec": "https://github.com/ethereum/EIPs/blob/master/EIPS/eip-1052.md",
            "reference-spec-version": "2dcbc7ce1563e9624e137e9d447374600af876fa"
        }
    },
    "tests/constantinople/eip1052_extcodehash/test_extcodehash.py::test_extcodehash_created_and_deleted[fork_ConstantinopleFix-blockchain_test_from_state_test-staticcall]": {
        "network": "ConstantinopleFix",
        "genesisBlockHeader": {
            "parentHash": "0x0000000000000000000000000000000000000000000000000000000000000000",
            "uncleHash": "0x1dcc4de8dec75d7aab85b567b6ccd41ad312451b948a7413f0a142fd40d49347",
            "coinbase": "0x0000000000000000000000000000000000000000",
            "stateRoot": "0xb7f753c5d68e2c979d3846f13b3fcc1564d37c566b2cbe8bfe5148032afef7f3",
            "transactionsTrie": "0x56e81f171bcc55a6ff8345e692c0f86e5b48e01b996cadc001622fb5e363b421",
            "receiptTrie": "0x56e81f171bcc55a6ff8345e692c0f86e5b48e01b996cadc001622fb5e363b421",
            "bloom": "0x00000000000000000000000000000000000000000000000000000000000000000000000000000000000000000000000000000000000000000000000000000000000000000000000000000000000000000000000000000000000000000000000000000000000000000000000000000000000000000000000000000000000000000000000000000000000000000000000000000000000000000000000000000000000000000000000000000000000000000000000000000000000000000000000000000000000000000000000000000000000000000000000000000000000000000000000000000000000000000000000000000000000000000000000000000000",
            "difficulty": "0x020000",
            "number": "0x00",
            "gasLimit": "0x07270e00",
            "gasUsed": "0x00",
            "timestamp": "0x00",
            "extraData": "0x00",
            "mixHash": "0x0000000000000000000000000000000000000000000000000000000000000000",
            "nonce": "0x0000000000000000",
            "hash": "0x1f4506b5c1ea103132957241a772947a44d25d445e583697b9f933aba59a1c2f"
        },
        "pre": {
            "0x0e76b1355a4470c8f32fecfc74cc88c97ffa3303": {
                "nonce": "0x01",
                "balance": "0x00",
                "code": "0x7f610003600081600b8239f36000ff0000000000000000000000000000000000006000526010600e60006000f56000556000543f6001556000543b6002556020600060006000543c600051600355600060006000600060005462010000fa506000543f6004556000543b6005556020600060006000543c600051600655",
                "storage": {
                    "0x00": "0xba5e"
                }
            },
            "0x1ad9bc24818784172ff393bb6f89f094d4d2ca29": {
                "nonce": "0x00",
                "balance": "0x3635c9adc5dea00000",
                "code": "0x",
                "storage": {}
            }
        },
        "postState": {
            "0x0e76b1355a4470c8f32fecfc74cc88c97ffa3303": {
                "nonce": "0x02",
                "balance": "0x00",
                "code": "0x7f610003600081600b8239f36000ff0000000000000000000000000000000000006000526010600e60006000f56000556000543f6001556000543b6002556020600060006000543c600051600355600060006000600060005462010000fa506000543f6004556000543b6005556020600060006000543c600051600655",
                "storage": {
                    "0x00": "0xa386ad0d8071981082960f9e64396afda92a7444",
                    "0x01": "0x396daaf3a7871f857cc9b5878c6bb66c394a6d109706095617db9f4e4c22edcd",
                    "0x02": "0x03",
                    "0x03": "0x6000ff0000000000000000000000000000000000000000000000000000000000",
                    "0x04": "0x396daaf3a7871f857cc9b5878c6bb66c394a6d109706095617db9f4e4c22edcd",
                    "0x05": "0x03",
                    "0x06": "0x6000ff0000000000000000000000000000000000000000000000000000000000"
                }
            },
            "0x1ad9bc24818784172ff393bb6f89f094d4d2ca29": {
                "nonce": "0x01",
                "balance": "0x3635c9adc5de79daf6",
                "code": "0x",
                "storage": {}
            },
            "0xa386ad0d8071981082960f9e64396afda92a7444": {
                "nonce": "0x01",
                "balance": "0x00",
                "code": "0x6000ff",
                "storage": {}
            },
            "0x2adc25665018aa1fe0e6bc666dac8fc2697ff9ba": {
                "nonce": "0x00",
                "balance": "0x1bc16d674eee250a",
                "code": "0x",
                "storage": {}
            }
        },
        "lastblockhash": "0x91c806cea792b9c0dd7035dc2870d9f96d7168e52fcdb7bb902cd2423b433caa",
        "config": {
            "network": "ConstantinopleFix",
            "chainid": "0x01"
        },
        "genesisRLP": "0xf901f9f901f4a00000000000000000000000000000000000000000000000000000000000000000a01dcc4de8dec75d7aab85b567b6ccd41ad312451b948a7413f0a142fd40d49347940000000000000000000000000000000000000000a0b7f753c5d68e2c979d3846f13b3fcc1564d37c566b2cbe8bfe5148032afef7f3a056e81f171bcc55a6ff8345e692c0f86e5b48e01b996cadc001622fb5e363b421a056e81f171bcc55a6ff8345e692c0f86e5b48e01b996cadc001622fb5e363b421b901000000000000000000000000000000000000000000000000000000000000000000000000000000000000000000000000000000000000000000000000000000000000000000000000000000000000000000000000000000000000000000000000000000000000000000000000000000000000000000000000000000000000000000000000000000000000000000000000000000000000000000000000000000000000000000000000000000000000000000000000000000000000000000000000000000000000000000000000000000000000000000000000000000000000000000000000000000000000000000000000000000000000000000000000000000000083020000808407270e00808000a00000000000000000000000000000000000000000000000000000000000000000880000000000000000c0c0",
        "blocks": [
            {
                "blockHeader": {
                    "parentHash": "0x1f4506b5c1ea103132957241a772947a44d25d445e583697b9f933aba59a1c2f",
                    "uncleHash": "0x1dcc4de8dec75d7aab85b567b6ccd41ad312451b948a7413f0a142fd40d49347",
                    "coinbase": "0x2adc25665018aa1fe0e6bc666dac8fc2697ff9ba",
                    "stateRoot": "0xb852d50fe76742db1b7d261d36dac352de43dd1586e18b6031a548190006eb26",
                    "transactionsTrie": "0x19e20abc4eb1d91d8245265ce9b3ab50915bba01b77c2ca9e2500692319f7234",
                    "receiptTrie": "0xfc50e0a8dd0a44fec69b0e2b9b369e473058ad1a291cfc5eeb5a96f3dd8a5b3f",
                    "bloom": "0x00000000000000000000000000000000000000000000000000000000000000000000000000000000000000000000000000000000000000000000000000000000000000000000000000000000000000000000000000000000000000000000000000000000000000000000000000000000000000000000000000000000000000000000000000000000000000000000000000000000000000000000000000000000000000000000000000000000000000000000000000000000000000000000000000000000000000000000000000000000000000000000000000000000000000000000000000000000000000000000000000000000000000000000000000000000",
                    "difficulty": "0x020000",
                    "number": "0x01",
                    "gasLimit": "0x07270e00",
                    "gasUsed": "0x03d081",
                    "timestamp": "0x03e8",
                    "extraData": "0x00",
                    "mixHash": "0x0000000000000000000000000000000000000000000000000000000000000000",
                    "nonce": "0x0000000000000000",
                    "hash": "0x91c806cea792b9c0dd7035dc2870d9f96d7168e52fcdb7bb902cd2423b433caa"
                },
                "transactions": [
                    {
                        "type": "0x00",
                        "chainId": "0x01",
                        "nonce": "0x00",
                        "gasPrice": "0x0a",
                        "gasLimit": "0x061a80",
                        "to": "0x0e76b1355a4470c8f32fecfc74cc88c97ffa3303",
                        "value": "0x00",
                        "data": "0x",
                        "v": "0x25",
                        "r": "0x389760e50e7ce7f1ffa9088a4ca3a4661464315421f27d6cc08e97567a00537c",
                        "s": "0x05984f8f0fb9759cf94e4b1be3915b2d7b61e33e3a44ce08d50f370eac448d3d",
                        "sender": "0x1ad9bc24818784172ff393bb6f89f094d4d2ca29"
                    }
                ],
                "uncleHeaders": [],
                "receipts": [
                    {
                        "transactionHash": "0x4470cd7f4a9ad85416295c8f2b0011f7ba73d9815a9909542e45b122c431e8b7",
                        "type": "0x00",
                        "cumulativeGasUsed": "0x03d081",
                        "bloom": "0x00000000000000000000000000000000000000000000000000000000000000000000000000000000000000000000000000000000000000000000000000000000000000000000000000000000000000000000000000000000000000000000000000000000000000000000000000000000000000000000000000000000000000000000000000000000000000000000000000000000000000000000000000000000000000000000000000000000000000000000000000000000000000000000000000000000000000000000000000000000000000000000000000000000000000000000000000000000000000000000000000000000000000000000000000000000",
                        "logs": [],
                        "status": true,
                        "rlp": "0xf90109018303d081b9010000000000000000000000000000000000000000000000000000000000000000000000000000000000000000000000000000000000000000000000000000000000000000000000000000000000000000000000000000000000000000000000000000000000000000000000000000000000000000000000000000000000000000000000000000000000000000000000000000000000000000000000000000000000000000000000000000000000000000000000000000000000000000000000000000000000000000000000000000000000000000000000000000000000000000000000000000000000000000000000000000000000000000000000000000000000c0"
                    }
                ],
                "rlp": "0xf90261f901f9a01f4506b5c1ea103132957241a772947a44d25d445e583697b9f933aba59a1c2fa01dcc4de8dec75d7aab85b567b6ccd41ad312451b948a7413f0a142fd40d49347942adc25665018aa1fe0e6bc666dac8fc2697ff9baa0b852d50fe76742db1b7d261d36dac352de43dd1586e18b6031a548190006eb26a019e20abc4eb1d91d8245265ce9b3ab50915bba01b77c2ca9e2500692319f7234a0fc50e0a8dd0a44fec69b0e2b9b369e473058ad1a291cfc5eeb5a96f3dd8a5b3fb901000000000000000000000000000000000000000000000000000000000000000000000000000000000000000000000000000000000000000000000000000000000000000000000000000000000000000000000000000000000000000000000000000000000000000000000000000000000000000000000000000000000000000000000000000000000000000000000000000000000000000000000000000000000000000000000000000000000000000000000000000000000000000000000000000000000000000000000000000000000000000000000000000000000000000000000000000000000000000000000000000000000000000000000000000000000083020000018407270e008303d0818203e800a00000000000000000000000000000000000000000000000000000000000000000880000000000000000f862f860800a83061a80940e76b1355a4470c8f32fecfc74cc88c97ffa3303808025a0389760e50e7ce7f1ffa9088a4ca3a4661464315421f27d6cc08e97567a00537ca005984f8f0fb9759cf94e4b1be3915b2d7b61e33e3a44ce08d50f370eac448d3dc0",
                "blocknumber": "1"
            }
        ],
        "sealEngine": "NoProof",
        "_info": {
            "hash": "0x4c80f253019749a8f711c0661a9157b74fbf83adce55c0923fbc1499c92b03db",
            "fixture-format": "blockchain_test",
            "comment": "`execution-specs` generated test",
            "filling-transition-tool": "2.19.0",
            "description": "Test EXTCODEHASH of an account created and selfdestructed in same tx.\n\nCREATE2 a contract with SELFDESTRUCT code, check EXTCODEHASH,\nEXTCODESIZE, and EXTCODECOPY before and after triggering it. Within\nthe transaction, the values remain unchanged. With CALL the created\ncontract is deleted at end of transaction; with STATICCALL the\ntrigger fails and the contract persists.",
            "url": "https://github.com/ethereum/execution-specs/blob/tests-snobal-devnet-5@v8037.0.0/tests/constantinople/eip1052_extcodehash/test_extcodehash.py#L1384",
            "metadata": {
                "opcode_count": {}
            },
            "reference-spec": "https://github.com/ethereum/EIPs/blob/master/EIPS/eip-1052.md",
            "reference-spec-version": "2dcbc7ce1563e9624e137e9d447374600af876fa"
        }
    }
}