{
    "tests/ported_static/stRevertTest/test_touch_to_empty_account_revert3_paris.py::test_touch_to_empty_account_revert3_paris[fork_Cancun-blockchain_test_from_state_test]": {
        "network": "Cancun",
        "genesisBlockHeader": {
            "parentHash": "0x0000000000000000000000000000000000000000000000000000000000000000",
            "uncleHash": "0x1dcc4de8dec75d7aab85b567b6ccd41ad312451b948a7413f0a142fd40d49347",
            "coinbase": "0x0000000000000000000000000000000000000000",
            "stateRoot": "0x1a7c87b5bc51d619c01bc6d2b6f7a84372904503e218118422bb1688da9ddc7a",
            "transactionsTrie": "0x56e81f171bcc55a6ff8345e692c0f86e5b48e01b996cadc001622fb5e363b421",
            "receiptTrie": "0x56e81f171bcc55a6ff8345e692c0f86e5b48e01b996cadc001622fb5e363b421",
            "bloom": "0x00000000000000000000000000000000000000000000000000000000000000000000000000000000000000000000000000000000000000000000000000000000000000000000000000000000000000000000000000000000000000000000000000000000000000000000000000000000000000000000000000000000000000000000000000000000000000000000000000000000000000000000000000000000000000000000000000000000000000000000000000000000000000000000000000000000000000000000000000000000000000000000000000000000000000000000000000000000000000000000000000000000000000000000000000000000",
            "difficulty": "0x00",
            "number": "0x00",
            "gasLimit": "0x989680",
            "gasUsed": "0x00",
            "timestamp": "0x00",
            "extraData": "0x00",
            "mixHash": "0x0000000000000000000000000000000000000000000000000000000000000000",
            "nonce": "0x0000000000000000",
            "baseFeePerGas": "0x0b",
            "withdrawalsRoot": "0x56e81f171bcc55a6ff8345e692c0f86e5b48e01b996cadc001622fb5e363b421",
            "blobGasUsed": "0x00",
            "excessBlobGas": "0x00",
            "parentBeaconBlockRoot": "0x0000000000000000000000000000000000000000000000000000000000000000",
            "hash": "0x8e16e0fefc78df92ea7fb422b6fc9f69e143cd845a918c5d83ab1bec0c4ec2cc"
        },
        "pre": {
            "0x000f3df6d732807ef1319fb7b8bb8522d0beac02": {
                "nonce": "0x01",
                "balance": "0x00",
                "code": "0x3373fffffffffffffffffffffffffffffffffffffffe14604d57602036146024575f5ffd5b5f35801560495762001fff810690815414603c575f5ffd5b62001fff01545f5260205ff35b5f5ffd5b62001fff42064281555f359062001fff015500",
                "storage": {}
            },
            "0xd719ccdb2301950b0a0bdf09a2bb1d5f8b225f6f": {
                "nonce": "0x00",
                "balance": "0xe8d4a51000",
                "code": "0x",
                "storage": {}
            },
            "0xd17feeb0d691f6df47893bc7b92ea5dbfece9856": {
                "nonce": "0x00",
                "balance": "0x0a",
                "code": "0x",
                "storage": {}
            },
            "0x2c15fc30a9979fb941328b73779ec67c67a8227a": {
                "nonce": "0x00",
                "balance": "0x00",
                "code": "0x73d17feeb0d691f6df47893bc7b92ea5dbfece9856ff00",
                "storage": {}
            },
            "0xd31a818034f59a1b3bc0e599f53011331f48926f": {
                "nonce": "0x00",
                "balance": "0x00",
                "code": "0x73d17feeb0d691f6df47893bc7b92ea5dbfece9856ff00",
                "storage": {}
            },
            "0x8d97eb0d0a95667f61fe60dda487ad9b27230cc9": {
                "nonce": "0x00",
                "balance": "0x00",
                "code": "0x6000600060006000600073d31a818034f59a1b3bc0e599f53011331f48926f620186a0f1600255622fffff60002000",
                "storage": {}
            },
            "0xb85fbf0f75745f6ae99eae53dc225cf0490d17da": {
                "nonce": "0x00",
                "balance": "0x00",
                "code": "0x60006000600060006000732c15fc30a9979fb941328b73779ec67c67a8227a6201fbd0f160005560006000600060006000738d97eb0d0a95667f61fe60dda487ad9b27230cc96201fbd0f160015500",
                "storage": {}
            }
        },
        "postState": {
            "0x000f3df6d732807ef1319fb7b8bb8522d0beac02": {
                "nonce": "0x01",
                "balance": "0x00",
                "code": "0x3373fffffffffffffffffffffffffffffffffffffffe14604d57602036146024575f5ffd5b5f35801560495762001fff810690815414603c575f5ffd5b62001fff01545f5260205ff35b5f5ffd5b62001fff42064281555f359062001fff015500",
                "storage": {
                    "0x03e8": "0x03e8"
                }
            },
            "0xd719ccdb2301950b0a0bdf09a2bb1d5f8b225f6f": {
                "nonce": "0x01",
                "balance": "0xe8d4885a5a",
                "code": "0x",
                "storage": {}
            },
            "0xd17feeb0d691f6df47893bc7b92ea5dbfece9856": {
                "nonce": "0x00",
                "balance": "0x0a",
                "code": "0x",
                "storage": {}
            },
            "0x2c15fc30a9979fb941328b73779ec67c67a8227a": {
                "nonce": "0x00",
                "balance": "0x00",
                "code": "0x73d17feeb0d691f6df47893bc7b92ea5dbfece9856ff00",
                "storage": {}
            },
            "0xd31a818034f59a1b3bc0e599f53011331f48926f": {
                "nonce": "0x00",
                "balance": "0x00",
                "code": "0x73d17feeb0d691f6df47893bc7b92ea5dbfece9856ff00",
                "storage": {}
            },
            "0x8d97eb0d0a95667f61fe60dda487ad9b27230cc9": {
                "nonce": "0x00",
                "balance": "0x00",
                "code": "0x6000600060006000600073d31a818034f59a1b3bc0e599f53011331f48926f620186a0f1600255622fffff60002000",
                "storage": {}
            },
            "0xb85fbf0f75745f6ae99eae53dc225cf0490d17da": {
                "nonce": "0x00",
                "balance": "0x00",
                "code": "0x60006000600060006000732c15fc30a9979fb941328b73779ec67c67a8227a6201fbd0f160005560006000600060006000738d97eb0d0a95667f61fe60dda487ad9b27230cc96201fbd0f160015500",
                "storage": {
                    "0x00": "0x01"
                }
            }
        },
        "lastblockhash": "0x632a812aea6b5a5efb0dc5c422b2f4c9b7acf2a3a5147a2b96f21a779feedc6c",
        "config": {
            "network": "Cancun",
            "chainid": "0x01",
            "blobSchedule": {
                "Cancun": {
                    "target": "0x03",
                    "max": "0x06",
                    "baseFeeUpdateFraction": "0x32f0ed"
                }
            }
        },
        "genesisRLP": "0xf9023bf90235a00000000000000000000000000000000000000000000000000000000000000000a01dcc4de8dec75d7aab85b567b6ccd41ad312451b948a7413f0a142fd40d49347940000000000000000000000000000000000000000a01a7c87b5bc51d619c01bc6d2b6f7a84372904503e218118422bb1688da9ddc7aa056e81f171bcc55a6ff8345e692c0f86e5b48e01b996cadc001622fb5e363b421a056e81f171bcc55a6ff8345e692c0f86e5b48e01b996cadc001622fb5e363b421b9010000000000000000000000000000000000000000000000000000000000000000000000000000000000000000000000000000000000000000000000000000000000000000000000000000000000000000000000000000000000000000000000000000000000000000000000000000000000000000000000000000000000000000000000000000000000000000000000000000000000000000000000000000000000000000000000000000000000000000000000000000000000000000000000000000000000000000000000000000000000000000000000000000000000000000000000000000000000000000000000000000000000000000000000000000000000808083989680808000a000000000000000000000000000000000000000000000000000000000000000008800000000000000000ba056e81f171bcc55a6ff8345e692c0f86e5b48e01b996cadc001622fb5e363b4218080a00000000000000000000000000000000000000000000000000000000000000000c0c0c0",
        "blocks": [
            {
                "blockHeader": {
                    "parentHash": "0x8e16e0fefc78df92ea7fb422b6fc9f69e143cd845a918c5d83ab1bec0c4ec2cc",
                    "uncleHash": "0x1dcc4de8dec75d7aab85b567b6ccd41ad312451b948a7413f0a142fd40d49347",
                    "coinbase": "0x2adc25665018aa1fe0e6bc666dac8fc2697ff9ba",
                    "stateRoot": "0xfb3f4d4965c238f0909b3b67a87c0c1c7ace2f65e98302e8841c0678019e5ce6",
                    "transactionsTrie": "0xca9ba0b70ca784e90ae23d0e4b7b83f1404d314c78ea1af85ed3f7195c98a3aa",
                    "receiptTrie": "0x3b771f0e0bda6a6bae7890a585ca0acf2a1026fee24ccd33406126743526ddd2",
                    "bloom": "0x00000000000000000000000000000000000000000000000000000000000000000000000000000000000000000000000000000000000000000000000000000000000000000000000000000000000000000000000000000000000000000000000000000000000000000000000000000000000000000000000000000000000000000000000000000000000000000000000000000000000000000000000000000000000000000000000000000000000000000000000000000000000000000000000000000000000000000000000000000000000000000000000000000000000000000000000000000000000000000000000000000000000000000000000000000000",
                    "difficulty": "0x00",
                    "number": "0x01",
                    "gasLimit": "0x989680",
                    "gasUsed": "0x02def7",
                    "timestamp": "0x03e8",
                    "extraData": "0x00",
                    "mixHash": "0x0000000000000000000000000000000000000000000000000000000000020000",
                    "nonce": "0x0000000000000000",
                    "baseFeePerGas": "0x0a",
                    "withdrawalsRoot": "0x56e81f171bcc55a6ff8345e692c0f86e5b48e01b996cadc001622fb5e363b421",
                    "blobGasUsed": "0x00",
                    "excessBlobGas": "0x00",
                    "parentBeaconBlockRoot": "0x0000000000000000000000000000000000000000000000000000000000000000",
                    "hash": "0x632a812aea6b5a5efb0dc5c422b2f4c9b7acf2a3a5147a2b96f21a779feedc6c"
                },
                "transactions": [
                    {
                        "type": "0x00",
                        "chainId": "0x01",
                        "nonce": "0x00",
                        "gasPrice": "0x0a",
                        "gasLimit": "0x030d40",
                        "to": "0xb85fbf0f75745f6ae99eae53dc225cf0490d17da",
                        "value": "0x00",
                        "data": "0x",
                        "v": "0x26",
                        "r": "0x40f4b0107696b6efcd4b1d8b6ec0e0083565d50528ede1b93055e9fa36bece7d",
                        "s": "0x5cdd8695a5d63cef354ea668a365f7ad3bb7a4833a59a8f491a40e7604ab33d6",
                        "sender": "0xd719ccdb2301950b0a0bdf09a2bb1d5f8b225f6f"
                    }
                ],
                "uncleHeaders": [],
                "withdrawals": [],
                "receipts": [
                    {
                        "transactionHash": "0x91e9a7f5dc7cbff3e3d36b3f56f5c46d78d296544d1efca87fb5301beb337831",
                        "type": "0x00",
                        "cumulativeGasUsed": "0x02def7",
                        "bloom": "0x00000000000000000000000000000000000000000000000000000000000000000000000000000000000000000000000000000000000000000000000000000000000000000000000000000000000000000000000000000000000000000000000000000000000000000000000000000000000000000000000000000000000000000000000000000000000000000000000000000000000000000000000000000000000000000000000000000000000000000000000000000000000000000000000000000000000000000000000000000000000000000000000000000000000000000000000000000000000000000000000000000000000000000000000000000000",
                        "logs": [],
                        "status": true,
                        "rlp": "0xf90109018302def7b9010000000000000000000000000000000000000000000000000000000000000000000000000000000000000000000000000000000000000000000000000000000000000000000000000000000000000000000000000000000000000000000000000000000000000000000000000000000000000000000000000000000000000000000000000000000000000000000000000000000000000000000000000000000000000000000000000000000000000000000000000000000000000000000000000000000000000000000000000000000000000000000000000000000000000000000000000000000000000000000000000000000000000000000000000000000000c0"
                    }
                ],
                "rlp": "0xf902a3f9023aa08e16e0fefc78df92ea7fb422b6fc9f69e143cd845a918c5d83ab1bec0c4ec2cca01dcc4de8dec75d7aab85b567b6ccd41ad312451b948a7413f0a142fd40d49347942adc25665018aa1fe0e6bc666dac8fc2697ff9baa0fb3f4d4965c238f0909b3b67a87c0c1c7ace2f65e98302e8841c0678019e5ce6a0ca9ba0b70ca784e90ae23d0e4b7b83f1404d314c78ea1af85ed3f7195c98a3aaa03b771f0e0bda6a6bae7890a585ca0acf2a1026fee24ccd33406126743526ddd2b90100000000000000000000000000000000000000000000000000000000000000000000000000000000000000000000000000000000000000000000000000000000000000000000000000000000000000000000000000000000000000000000000000000000000000000000000000000000000000000000000000000000000000000000000000000000000000000000000000000000000000000000000000000000000000000000000000000000000000000000000000000000000000000000000000000000000000000000000000000000000000000000000000000000000000000000000000000000000000000000000000000000000000000000000000000000008001839896808302def78203e800a000000000000000000000000000000000000000000000000000000000000200008800000000000000000aa056e81f171bcc55a6ff8345e692c0f86e5b48e01b996cadc001622fb5e363b4218080a00000000000000000000000000000000000000000000000000000000000000000f862f860800a83030d4094b85fbf0f75745f6ae99eae53dc225cf0490d17da808026a040f4b0107696b6efcd4b1d8b6ec0e0083565d50528ede1b93055e9fa36bece7da05cdd8695a5d63cef354ea668a365f7ad3bb7a4833a59a8f491a40e7604ab33d6c0c0",
                "blocknumber": "1"
            }
        ],
        "sealEngine": "NoProof",
        "_info": {
            "hash": "0x99c6e4b5cb53f125a99dec5d2a58bec8e649e5e66d6e04a8ef81b28ce9fd70ab",
            "fixture-format": "blockchain_test",
            "comment": "`execution-specs` generated test",
            "filling-transition-tool": "2.19.0",
            "description": "Test_touch_to_empty_account_revert3_paris.",
            "url": "https://github.com/ethereum/execution-specs/blob/tests-snobal-devnet-5@v8037.0.0/tests/ported_static/stRevertTest/test_touch_to_empty_account_revert3_paris.py#L24",
            "metadata": {
                "opcode_count": {}
            }
        }
    }
}