{
    "tests/ported_static/stStaticCall/test_static_callcodecallcallcode_101_oogm_after_1.py::test_static_callcodecallcallcode_101_oogm_after_1[fork_Cancun-blockchain_test_from_state_test-d0]": {
        "network": "Cancun",
        "genesisBlockHeader": {
            "parentHash": "0x0000000000000000000000000000000000000000000000000000000000000000",
            "uncleHash": "0x1dcc4de8dec75d7aab85b567b6ccd41ad312451b948a7413f0a142fd40d49347",
            "coinbase": "0x0000000000000000000000000000000000000000",
            "stateRoot": "0xea3cf2ec9b02bbc3c4c94d9c9bd31a19388d0ee327b6afa5271525b2054ac073",
            "transactionsTrie": "0x56e81f171bcc55a6ff8345e692c0f86e5b48e01b996cadc001622fb5e363b421",
            "receiptTrie": "0x56e81f171bcc55a6ff8345e692c0f86e5b48e01b996cadc001622fb5e363b421",
            "bloom": "0x00000000000000000000000000000000000000000000000000000000000000000000000000000000000000000000000000000000000000000000000000000000000000000000000000000000000000000000000000000000000000000000000000000000000000000000000000000000000000000000000000000000000000000000000000000000000000000000000000000000000000000000000000000000000000000000000000000000000000000000000000000000000000000000000000000000000000000000000000000000000000000000000000000000000000000000000000000000000000000000000000000000000000000000000000000000",
            "difficulty": "0x00",
            "number": "0x00",
            "gasLimit": "0x989680",
            "gasUsed": "0x00",
            "timestamp": "0x00",
            "extraData": "0x00",
            "mixHash": "0x0000000000000000000000000000000000000000000000000000000000000000",
            "nonce": "0x0000000000000000",
            "baseFeePerGas": "0x0b",
            "withdrawalsRoot": "0x56e81f171bcc55a6ff8345e692c0f86e5b48e01b996cadc001622fb5e363b421",
            "blobGasUsed": "0x00",
            "excessBlobGas": "0x00",
            "parentBeaconBlockRoot": "0x0000000000000000000000000000000000000000000000000000000000000000",
            "hash": "0x608ed7dfc7959e729d4b183ef3e7f85500b55203c0fb22e914a7a67e55ddf7ea"
        },
        "pre": {
            "0x000f3df6d732807ef1319fb7b8bb8522d0beac02": {
                "nonce": "0x01",
                "balance": "0x00",
                "code": "0x3373fffffffffffffffffffffffffffffffffffffffe14604d57602036146024575f5ffd5b5f35801560495762001fff810690815414603c575f5ffd5b62001fff01545f5260205ff35b5f5ffd5b62001fff42064281555f359062001fff015500",
                "storage": {}
            },
            "0xaab59f13d96113334fab5c68e4e62b61f6cbf647": {
                "nonce": "0x00",
                "balance": "0x0de0b6b3a7640000",
                "code": "0x600060006000600060006000355af2600055600160015500",
                "storage": {}
            },
            "0xb9abd0ef44ae2df9f408d150c5b6fb6a181be9cf": {
                "nonce": "0x00",
                "balance": "0x0de0b6b3a7640000",
                "code": "0x6040600060406000600073f4645c150a8060778ad94dffe302081fc222dedb620aaef6f250600160035200",
                "storage": {}
            },
            "0xf4645c150a8060778ad94dffe302081fc222dedb": {
                "nonce": "0x00",
                "balance": "0x00",
                "code": "0x604060006040600073858db7418c9e1c32811e5bc39366bdf6e2ed249262061ad0fa505b61c3506080511015603f5760013b506001608051016080526023565b00",
                "storage": {}
            },
            "0x858db7418c9e1c32811e5bc39366bdf6e2ed2492": {
                "nonce": "0x00",
                "balance": "0x00",
                "code": "0x6040600060406000600073335c5531b84765a7626e6e76688f18b81be5259c6201d4d4f250600160035200",
                "storage": {}
            },
            "0x335c5531b84765a7626e6e76688f18b81be5259c": {
                "nonce": "0x00",
                "balance": "0x00",
                "code": "0x600160035200",
                "storage": {}
            },
            "0x6486b0cd8779006e5cd706484b0d890b9a220805": {
                "nonce": "0x00",
                "balance": "0x0de0b6b3a7640000",
                "code": "0x604060006040600060007318dc408f6983f318529a93583ee12f590c537820620aaef6f250600160035200",
                "storage": {}
            },
            "0x18dc408f6983f318529a93583ee12f590c537820": {
                "nonce": "0x00",
                "balance": "0x00",
                "code": "0x604060006040600073677db155fab75972f19732afb328a0ea6472a6ab62061ad0fa50600160035200",
                "storage": {}
            },
            "0x677db155fab75972f19732afb328a0ea6472a6ab": {
                "nonce": "0x00",
                "balance": "0x00",
                "code": "0x6040600060406000600073b126c622075b1189fb6c45e851641cfaddf65b366201d4d4f250600160035200",
                "storage": {}
            },
            "0xb126c622075b1189fb6c45e851641cfaddf65b36": {
                "nonce": "0x00",
                "balance": "0x00",
                "code": "0x600160035500",
                "storage": {}
            },
            "0xebaf50debf10e08302fe4280c32df010463ca297": {
                "nonce": "0x00",
                "balance": "0x0de0b6b3a7640000",
                "code": "0x",
                "storage": {}
            }
        },
        "postState": {
            "0x000f3df6d732807ef1319fb7b8bb8522d0beac02": {
                "nonce": "0x01",
                "balance": "0x00",
                "code": "0x3373fffffffffffffffffffffffffffffffffffffffe14604d57602036146024575f5ffd5b5f35801560495762001fff810690815414603c575f5ffd5b62001fff01545f5260205ff35b5f5ffd5b62001fff42064281555f359062001fff015500",
                "storage": {
                    "0x03e8": "0x03e8"
                }
            },
            "0xaab59f13d96113334fab5c68e4e62b61f6cbf647": {
                "nonce": "0x00",
                "balance": "0x0de0b6b3a7640000",
                "code": "0x600060006000600060006000355af2600055600160015500",
                "storage": {
                    "0x00": "0x01",
                    "0x01": "0x01"
                }
            },
            "0xb9abd0ef44ae2df9f408d150c5b6fb6a181be9cf": {
                "nonce": "0x00",
                "balance": "0x0de0b6b3a7640000",
                "code": "0x6040600060406000600073f4645c150a8060778ad94dffe302081fc222dedb620aaef6f250600160035200",
                "storage": {}
            },
            "0xf4645c150a8060778ad94dffe302081fc222dedb": {
                "nonce": "0x00",
                "balance": "0x00",
                "code": "0x604060006040600073858db7418c9e1c32811e5bc39366bdf6e2ed249262061ad0fa505b61c3506080511015603f5760013b506001608051016080526023565b00",
                "storage": {}
            },
            "0x858db7418c9e1c32811e5bc39366bdf6e2ed2492": {
                "nonce": "0x00",
                "balance": "0x00",
                "code": "0x6040600060406000600073335c5531b84765a7626e6e76688f18b81be5259c6201d4d4f250600160035200",
                "storage": {}
            },
            "0x335c5531b84765a7626e6e76688f18b81be5259c": {
                "nonce": "0x00",
                "balance": "0x00",
                "code": "0x600160035200",
                "storage": {}
            },
            "0x6486b0cd8779006e5cd706484b0d890b9a220805": {
                "nonce": "0x00",
                "balance": "0x0de0b6b3a7640000",
                "code": "0x604060006040600060007318dc408f6983f318529a93583ee12f590c537820620aaef6f250600160035200",
                "storage": {}
            },
            "0x18dc408f6983f318529a93583ee12f590c537820": {
                "nonce": "0x00",
                "balance": "0x00",
                "code": "0x604060006040600073677db155fab75972f19732afb328a0ea6472a6ab62061ad0fa50600160035200",
                "storage": {}
            },
            "0x677db155fab75972f19732afb328a0ea6472a6ab": {
                "nonce": "0x00",
                "balance": "0x00",
                "code": "0x6040600060406000600073b126c622075b1189fb6c45e851641cfaddf65b366201d4d4f250600160035200",
                "storage": {}
            },
            "0xb126c622075b1189fb6c45e851641cfaddf65b36": {
                "nonce": "0x00",
                "balance": "0x00",
                "code": "0x600160035500",
                "storage": {}
            },
            "0xebaf50debf10e08302fe4280c32df010463ca297": {
                "nonce": "0x01",
                "balance": "0x0de0b6b3a6ee5b48",
                "code": "0x",
                "storage": {}
            }
        },
        "lastblockhash": "0x0f492eb32a0118e21125ea1dbdf655b61a477829e36348f07f9770dadad90df8",
        "config": {
            "network": "Cancun",
            "chainid": "0x01",
            "blobSchedule": {
                "Cancun": {
                    "target": "0x03",
                    "max": "0x06",
                    "baseFeeUpdateFraction": "0x32f0ed"
                }
            }
        },
        "genesisRLP": "0xf9023bf90235a00000000000000000000000000000000000000000000000000000000000000000a01dcc4de8dec75d7aab85b567b6ccd41ad312451b948a7413f0a142fd40d49347940000000000000000000000000000000000000000a0ea3cf2ec9b02bbc3c4c94d9c9bd31a19388d0ee327b6afa5271525b2054ac073a056e81f171bcc55a6ff8345e692c0f86e5b48e01b996cadc001622fb5e363b421a056e81f171bcc55a6ff8345e692c0f86e5b48e01b996cadc001622fb5e363b421b9010000000000000000000000000000000000000000000000000000000000000000000000000000000000000000000000000000000000000000000000000000000000000000000000000000000000000000000000000000000000000000000000000000000000000000000000000000000000000000000000000000000000000000000000000000000000000000000000000000000000000000000000000000000000000000000000000000000000000000000000000000000000000000000000000000000000000000000000000000000000000000000000000000000000000000000000000000000000000000000000000000000000000000000000000000000000808083989680808000a000000000000000000000000000000000000000000000000000000000000000008800000000000000000ba056e81f171bcc55a6ff8345e692c0f86e5b48e01b996cadc001622fb5e363b4218080a00000000000000000000000000000000000000000000000000000000000000000c0c0c0",
        "blocks": [
            {
                "blockHeader": {
                    "parentHash": "0x608ed7dfc7959e729d4b183ef3e7f85500b55203c0fb22e914a7a67e55ddf7ea",
                    "uncleHash": "0x1dcc4de8dec75d7aab85b567b6ccd41ad312451b948a7413f0a142fd40d49347",
                    "coinbase": "0x2adc25665018aa1fe0e6bc666dac8fc2697ff9ba",
                    "stateRoot": "0x8282472b0396ca1dc67c1a3014719313f19322d18e6c7f22b10e8527fb1e2ec8",
                    "transactionsTrie": "0xe12b17cd1ab6b0e7941d25a7a602229b577ae7581174ff7f4b72fbe6e7d3f4d7",
                    "receiptTrie": "0x9bf6198ebec995a2a808f84f21f979945b9af4e21af9c27f2c21f5218f455080",
                    "bloom": "0x00000000000000000000000000000000000000000000000000000000000000000000000000000000000000000000000000000000000000000000000000000000000000000000000000000000000000000000000000000000000000000000000000000000000000000000000000000000000000000000000000000000000000000000000000000000000000000000000000000000000000000000000000000000000000000000000000000000000000000000000000000000000000000000000000000000000000000000000000000000000000000000000000000000000000000000000000000000000000000000000000000000000000000000000000000000",
                    "difficulty": "0x00",
                    "number": "0x01",
                    "gasLimit": "0x989680",
                    "gasUsed": "0x0bc3ac",
                    "timestamp": "0x03e8",
                    "extraData": "0x00",
                    "mixHash": "0x0000000000000000000000000000000000000000000000000000000000020000",
                    "nonce": "0x0000000000000000",
                    "baseFeePerGas": "0x0a",
                    "withdrawalsRoot": "0x56e81f171bcc55a6ff8345e692c0f86e5b48e01b996cadc001622fb5e363b421",
                    "blobGasUsed": "0x00",
                    "excessBlobGas": "0x00",
                    "parentBeaconBlockRoot": "0x0000000000000000000000000000000000000000000000000000000000000000",
                    "hash": "0x0f492eb32a0118e21125ea1dbdf655b61a477829e36348f07f9770dadad90df8"
                },
                "transactions": [
                    {
                        "type": "0x00",
                        "chainId": "0x01",
                        "nonce": "0x00",
                        "gasPrice": "0x0a",
                        "gasLimit": "0x1a3ec0",
                        "to": "0xaab59f13d96113334fab5c68e4e62b61f6cbf647",
                        "value": "0x00",
                        "data": "0x000000000000000000000000b9abd0ef44ae2df9f408d150c5b6fb6a181be9cf",
                        "v": "0x26",
                        "r": "0x2680a32c74dcc39a063cf411e8851849e48a449f5c08e44b571344597a00d36e",
                        "s": "0x6e62357da0ab0780c7ff1f465c8751363da7cd8496de5cedea3282002b811fa0",
                        "sender": "0xebaf50debf10e08302fe4280c32df010463ca297"
                    }
                ],
                "uncleHeaders": [],
                "withdrawals": [],
                "receipts": [
                    {
                        "transactionHash": "0xc6d3e81898ddfdd27a3ee133bc55699c5acf9e2bde0d55538cef21580f84f327",
                        "type": "0x00",
                        "cumulativeGasUsed": "0x0bc3ac",
                        "bloom": "0x00000000000000000000000000000000000000000000000000000000000000000000000000000000000000000000000000000000000000000000000000000000000000000000000000000000000000000000000000000000000000000000000000000000000000000000000000000000000000000000000000000000000000000000000000000000000000000000000000000000000000000000000000000000000000000000000000000000000000000000000000000000000000000000000000000000000000000000000000000000000000000000000000000000000000000000000000000000000000000000000000000000000000000000000000000000",
                        "logs": [],
                        "status": true,
                        "rlp": "0xf9010901830bc3acb9010000000000000000000000000000000000000000000000000000000000000000000000000000000000000000000000000000000000000000000000000000000000000000000000000000000000000000000000000000000000000000000000000000000000000000000000000000000000000000000000000000000000000000000000000000000000000000000000000000000000000000000000000000000000000000000000000000000000000000000000000000000000000000000000000000000000000000000000000000000000000000000000000000000000000000000000000000000000000000000000000000000000000000000000000000000000c0"
                    }
                ],
                "rlp": "0xf902c3f9023aa0608ed7dfc7959e729d4b183ef3e7f85500b55203c0fb22e914a7a67e55ddf7eaa01dcc4de8dec75d7aab85b567b6ccd41ad312451b948a7413f0a142fd40d49347942adc25665018aa1fe0e6bc666dac8fc2697ff9baa08282472b0396ca1dc67c1a3014719313f19322d18e6c7f22b10e8527fb1e2ec8a0e12b17cd1ab6b0e7941d25a7a602229b577ae7581174ff7f4b72fbe6e7d3f4d7a09bf6198ebec995a2a808f84f21f979945b9af4e21af9c27f2c21f5218f455080b9010000000000000000000000000000000000000000000000000000000000000000000000000000000000000000000000000000000000000000000000000000000000000000000000000000000000000000000000000000000000000000000000000000000000000000000000000000000000000000000000000000000000000000000000000000000000000000000000000000000000000000000000000000000000000000000000000000000000000000000000000000000000000000000000000000000000000000000000000000000000000000000000000000000000000000000000000000000000000000000000000000000000000000000000000000000000800183989680830bc3ac8203e800a000000000000000000000000000000000000000000000000000000000000200008800000000000000000aa056e81f171bcc55a6ff8345e692c0f86e5b48e01b996cadc001622fb5e363b4218080a00000000000000000000000000000000000000000000000000000000000000000f882f880800a831a3ec094aab59f13d96113334fab5c68e4e62b61f6cbf64780a0000000000000000000000000b9abd0ef44ae2df9f408d150c5b6fb6a181be9cf26a02680a32c74dcc39a063cf411e8851849e48a449f5c08e44b571344597a00d36ea06e62357da0ab0780c7ff1f465c8751363da7cd8496de5cedea3282002b811fa0c0c0",
                "blocknumber": "1"
            }
        ],
        "sealEngine": "NoProof",
        "_info": {
            "hash": "0x34b83563fec5944b270ae8097b360fd7a5a8af9cc2975ed01a303fc527488424",
            "fixture-format": "blockchain_test",
            "comment": "`execution-specs` generated test",
            "filling-transition-tool": "2.19.0",
            "description": "Test_static_callcodecallcallcode_101_oogm_after_1.",
            "url": "https://github.com/ethereum/execution-specs/blob/tests-sn\u00f8bal-devnet-4@v1.0.0/tests/ported_static/stStaticCall/test_static_callcodecallcallcode_101_oogm_after_1.py#L26",
            "metadata": {
                "opcode_count": {}
            }
        }
    },
    "tests/ported_static/stStaticCall/test_static_callcodecallcallcode_101_oogm_after_1.py::test_static_callcodecallcallcode_101_oogm_after_1[fork_Cancun-blockchain_test_from_state_test-d1]": {
        "network": "Cancun",
        "genesisBlockHeader": {
            "parentHash": "0x0000000000000000000000000000000000000000000000000000000000000000",
            "uncleHash": "0x1dcc4de8dec75d7aab85b567b6ccd41ad312451b948a7413f0a142fd40d49347",
            "coinbase": "0x0000000000000000000000000000000000000000",
            "stateRoot": "0xea3cf2ec9b02bbc3c4c94d9c9bd31a19388d0ee327b6afa5271525b2054ac073",
            "transactionsTrie": "0x56e81f171bcc55a6ff8345e692c0f86e5b48e01b996cadc001622fb5e363b421",
            "receiptTrie": "0x56e81f171bcc55a6ff8345e692c0f86e5b48e01b996cadc001622fb5e363b421",
            "bloom": "0x00000000000000000000000000000000000000000000000000000000000000000000000000000000000000000000000000000000000000000000000000000000000000000000000000000000000000000000000000000000000000000000000000000000000000000000000000000000000000000000000000000000000000000000000000000000000000000000000000000000000000000000000000000000000000000000000000000000000000000000000000000000000000000000000000000000000000000000000000000000000000000000000000000000000000000000000000000000000000000000000000000000000000000000000000000000",
            "difficulty": "0x00",
            "number": "0x00",
            "gasLimit": "0x989680",
            "gasUsed": "0x00",
            "timestamp": "0x00",
            "extraData": "0x00",
            "mixHash": "0x0000000000000000000000000000000000000000000000000000000000000000",
            "nonce": "0x0000000000000000",
            "baseFeePerGas": "0x0b",
            "withdrawalsRoot": "0x56e81f171bcc55a6ff8345e692c0f86e5b48e01b996cadc001622fb5e363b421",
            "blobGasUsed": "0x00",
            "excessBlobGas": "0x00",
            "parentBeaconBlockRoot": "0x0000000000000000000000000000000000000000000000000000000000000000",
            "hash": "0x608ed7dfc7959e729d4b183ef3e7f85500b55203c0fb22e914a7a67e55ddf7ea"
        },
        "pre": {
            "0x000f3df6d732807ef1319fb7b8bb8522d0beac02": {
                "nonce": "0x01",
                "balance": "0x00",
                "code": "0x3373fffffffffffffffffffffffffffffffffffffffe14604d57602036146024575f5ffd5b5f35801560495762001fff810690815414603c575f5ffd5b62001fff01545f5260205ff35b5f5ffd5b62001fff42064281555f359062001fff015500",
                "storage": {}
            },
            "0xaab59f13d96113334fab5c68e4e62b61f6cbf647": {
                "nonce": "0x00",
                "balance": "0x0de0b6b3a7640000",
                "code": "0x600060006000600060006000355af2600055600160015500",
                "storage": {}
            },
            "0xb9abd0ef44ae2df9f408d150c5b6fb6a181be9cf": {
                "nonce": "0x00",
                "balance": "0x0de0b6b3a7640000",
                "code": "0x6040600060406000600073f4645c150a8060778ad94dffe302081fc222dedb620aaef6f250600160035200",
                "storage": {}
            },
            "0xf4645c150a8060778ad94dffe302081fc222dedb": {
                "nonce": "0x00",
                "balance": "0x00",
                "code": "0x604060006040600073858db7418c9e1c32811e5bc39366bdf6e2ed249262061ad0fa505b61c3506080511015603f5760013b506001608051016080526023565b00",
                "storage": {}
            },
            "0x858db7418c9e1c32811e5bc39366bdf6e2ed2492": {
                "nonce": "0x00",
                "balance": "0x00",
                "code": "0x6040600060406000600073335c5531b84765a7626e6e76688f18b81be5259c6201d4d4f250600160035200",
                "storage": {}
            },
            "0x335c5531b84765a7626e6e76688f18b81be5259c": {
                "nonce": "0x00",
                "balance": "0x00",
                "code": "0x600160035200",
                "storage": {}
            },
            "0x6486b0cd8779006e5cd706484b0d890b9a220805": {
                "nonce": "0x00",
                "balance": "0x0de0b6b3a7640000",
                "code": "0x604060006040600060007318dc408f6983f318529a93583ee12f590c537820620aaef6f250600160035200",
                "storage": {}
            },
            "0x18dc408f6983f318529a93583ee12f590c537820": {
                "nonce": "0x00",
                "balance": "0x00",
                "code": "0x604060006040600073677db155fab75972f19732afb328a0ea6472a6ab62061ad0fa50600160035200",
                "storage": {}
            },
            "0x677db155fab75972f19732afb328a0ea6472a6ab": {
                "nonce": "0x00",
                "balance": "0x00",
                "code": "0x6040600060406000600073b126c622075b1189fb6c45e851641cfaddf65b366201d4d4f250600160035200",
                "storage": {}
            },
            "0xb126c622075b1189fb6c45e851641cfaddf65b36": {
                "nonce": "0x00",
                "balance": "0x00",
                "code": "0x600160035500",
                "storage": {}
            },
            "0xebaf50debf10e08302fe4280c32df010463ca297": {
                "nonce": "0x00",
                "balance": "0x0de0b6b3a7640000",
                "code": "0x",
                "storage": {}
            }
        },
        "postState": {
            "0x000f3df6d732807ef1319fb7b8bb8522d0beac02": {
                "nonce": "0x01",
                "balance": "0x00",
                "code": "0x3373fffffffffffffffffffffffffffffffffffffffe14604d57602036146024575f5ffd5b5f35801560495762001fff810690815414603c575f5ffd5b62001fff01545f5260205ff35b5f5ffd5b62001fff42064281555f359062001fff015500",
                "storage": {
                    "0x03e8": "0x03e8"
                }
            },
            "0xaab59f13d96113334fab5c68e4e62b61f6cbf647": {
                "nonce": "0x00",
                "balance": "0x0de0b6b3a7640000",
                "code": "0x600060006000600060006000355af2600055600160015500",
                "storage": {
                    "0x00": "0x01",
                    "0x01": "0x01"
                }
            },
            "0xb9abd0ef44ae2df9f408d150c5b6fb6a181be9cf": {
                "nonce": "0x00",
                "balance": "0x0de0b6b3a7640000",
                "code": "0x6040600060406000600073f4645c150a8060778ad94dffe302081fc222dedb620aaef6f250600160035200",
                "storage": {}
            },
            "0xf4645c150a8060778ad94dffe302081fc222dedb": {
                "nonce": "0x00",
                "balance": "0x00",
                "code": "0x604060006040600073858db7418c9e1c32811e5bc39366bdf6e2ed249262061ad0fa505b61c3506080511015603f5760013b506001608051016080526023565b00",
                "storage": {}
            },
            "0x858db7418c9e1c32811e5bc39366bdf6e2ed2492": {
                "nonce": "0x00",
                "balance": "0x00",
                "code": "0x6040600060406000600073335c5531b84765a7626e6e76688f18b81be5259c6201d4d4f250600160035200",
                "storage": {}
            },
            "0x335c5531b84765a7626e6e76688f18b81be5259c": {
                "nonce": "0x00",
                "balance": "0x00",
                "code": "0x600160035200",
                "storage": {}
            },
            "0x6486b0cd8779006e5cd706484b0d890b9a220805": {
                "nonce": "0x00",
                "balance": "0x0de0b6b3a7640000",
                "code": "0x604060006040600060007318dc408f6983f318529a93583ee12f590c537820620aaef6f250600160035200",
                "storage": {}
            },
            "0x18dc408f6983f318529a93583ee12f590c537820": {
                "nonce": "0x00",
                "balance": "0x00",
                "code": "0x604060006040600073677db155fab75972f19732afb328a0ea6472a6ab62061ad0fa50600160035200",
                "storage": {}
            },
            "0x677db155fab75972f19732afb328a0ea6472a6ab": {
                "nonce": "0x00",
                "balance": "0x00",
                "code": "0x6040600060406000600073b126c622075b1189fb6c45e851641cfaddf65b366201d4d4f250600160035200",
                "storage": {}
            },
            "0xb126c622075b1189fb6c45e851641cfaddf65b36": {
                "nonce": "0x00",
                "balance": "0x00",
                "code": "0x600160035500",
                "storage": {}
            },
            "0xebaf50debf10e08302fe4280c32df010463ca297": {
                "nonce": "0x01",
                "balance": "0x0de0b6b3a746131a",
                "code": "0x",
                "storage": {}
            }
        },
        "lastblockhash": "0x5f0f8affbb222b3f35886180cbde02e6b52e242c4e753f648214cd8f687a580f",
        "config": {
            "network": "Cancun",
            "chainid": "0x01",
            "blobSchedule": {
                "Cancun": {
                    "target": "0x03",
                    "max": "0x06",
                    "baseFeeUpdateFraction": "0x32f0ed"
                }
            }
        },
        "genesisRLP": "0xf9023bf90235a00000000000000000000000000000000000000000000000000000000000000000a01dcc4de8dec75d7aab85b567b6ccd41ad312451b948a7413f0a142fd40d49347940000000000000000000000000000000000000000a0ea3cf2ec9b02bbc3c4c94d9c9bd31a19388d0ee327b6afa5271525b2054ac073a056e81f171bcc55a6ff8345e692c0f86e5b48e01b996cadc001622fb5e363b421a056e81f171bcc55a6ff8345e692c0f86e5b48e01b996cadc001622fb5e363b421b9010000000000000000000000000000000000000000000000000000000000000000000000000000000000000000000000000000000000000000000000000000000000000000000000000000000000000000000000000000000000000000000000000000000000000000000000000000000000000000000000000000000000000000000000000000000000000000000000000000000000000000000000000000000000000000000000000000000000000000000000000000000000000000000000000000000000000000000000000000000000000000000000000000000000000000000000000000000000000000000000000000000000000000000000000000000000808083989680808000a000000000000000000000000000000000000000000000000000000000000000008800000000000000000ba056e81f171bcc55a6ff8345e692c0f86e5b48e01b996cadc001622fb5e363b4218080a00000000000000000000000000000000000000000000000000000000000000000c0c0c0",
        "blocks": [
            {
                "blockHeader": {
                    "parentHash": "0x608ed7dfc7959e729d4b183ef3e7f85500b55203c0fb22e914a7a67e55ddf7ea",
                    "uncleHash": "0x1dcc4de8dec75d7aab85b567b6ccd41ad312451b948a7413f0a142fd40d49347",
                    "coinbase": "0x2adc25665018aa1fe0e6bc666dac8fc2697ff9ba",
                    "stateRoot": "0xc44da44bda51dd42dce6bb98213e1a5ea881f31f22d5d03fdeb5c852e8776a46",
                    "transactionsTrie": "0xcdb140ca491fe18363957f6ef78227112d60721e3368f07351ac88483c172a7d",
                    "receiptTrie": "0x36f0feb85c022d65ef8e4a2b534f680237906cdfc997269259aced640dd7fadd",
                    "bloom": "0x00000000000000000000000000000000000000000000000000000000000000000000000000000000000000000000000000000000000000000000000000000000000000000000000000000000000000000000000000000000000000000000000000000000000000000000000000000000000000000000000000000000000000000000000000000000000000000000000000000000000000000000000000000000000000000000000000000000000000000000000000000000000000000000000000000000000000000000000000000000000000000000000000000000000000000000000000000000000000000000000000000000000000000000000000000000",
                    "difficulty": "0x00",
                    "number": "0x01",
                    "gasLimit": "0x989680",
                    "gasUsed": "0x02fe17",
                    "timestamp": "0x03e8",
                    "extraData": "0x00",
                    "mixHash": "0x0000000000000000000000000000000000000000000000000000000000020000",
                    "nonce": "0x0000000000000000",
                    "baseFeePerGas": "0x0a",
                    "withdrawalsRoot": "0x56e81f171bcc55a6ff8345e692c0f86e5b48e01b996cadc001622fb5e363b421",
                    "blobGasUsed": "0x00",
                    "excessBlobGas": "0x00",
                    "parentBeaconBlockRoot": "0x0000000000000000000000000000000000000000000000000000000000000000",
                    "hash": "0x5f0f8affbb222b3f35886180cbde02e6b52e242c4e753f648214cd8f687a580f"
                },
                "transactions": [
                    {
                        "type": "0x00",
                        "chainId": "0x01",
                        "nonce": "0x00",
                        "gasPrice": "0x0a",
                        "gasLimit": "0x1a3ec0",
                        "to": "0xaab59f13d96113334fab5c68e4e62b61f6cbf647",
                        "value": "0x00",
                        "data": "0x0000000000000000000000006486b0cd8779006e5cd706484b0d890b9a220805",
                        "v": "0x26",
                        "r": "0xc2373e7cd31983e765ed4a9fc4353a25065e8ef69d38bcd00efebfb9f4df7c86",
                        "s": "0x5c5f2964fb45e8668c229470a1ae83845bf63fa37cb5be7100c1e088ebbdb5ae",
                        "sender": "0xebaf50debf10e08302fe4280c32df010463ca297"
                    }
                ],
                "uncleHeaders": [],
                "withdrawals": [],
                "receipts": [
                    {
                        "transactionHash": "0xdfb96d2ce6775d74a178bd029362478794fa93b97952ab0e1de4496a0bb225bd",
                        "type": "0x00",
                        "cumulativeGasUsed": "0x02fe17",
                        "bloom": "0x00000000000000000000000000000000000000000000000000000000000000000000000000000000000000000000000000000000000000000000000000000000000000000000000000000000000000000000000000000000000000000000000000000000000000000000000000000000000000000000000000000000000000000000000000000000000000000000000000000000000000000000000000000000000000000000000000000000000000000000000000000000000000000000000000000000000000000000000000000000000000000000000000000000000000000000000000000000000000000000000000000000000000000000000000000000",
                        "logs": [],
                        "status": true,
                        "rlp": "0xf90109018302fe17b9010000000000000000000000000000000000000000000000000000000000000000000000000000000000000000000000000000000000000000000000000000000000000000000000000000000000000000000000000000000000000000000000000000000000000000000000000000000000000000000000000000000000000000000000000000000000000000000000000000000000000000000000000000000000000000000000000000000000000000000000000000000000000000000000000000000000000000000000000000000000000000000000000000000000000000000000000000000000000000000000000000000000000000000000000000000000c0"
                    }
                ],
                "rlp": "0xf902c3f9023aa0608ed7dfc7959e729d4b183ef3e7f85500b55203c0fb22e914a7a67e55ddf7eaa01dcc4de8dec75d7aab85b567b6ccd41ad312451b948a7413f0a142fd40d49347942adc25665018aa1fe0e6bc666dac8fc2697ff9baa0c44da44bda51dd42dce6bb98213e1a5ea881f31f22d5d03fdeb5c852e8776a46a0cdb140ca491fe18363957f6ef78227112d60721e3368f07351ac88483c172a7da036f0feb85c022d65ef8e4a2b534f680237906cdfc997269259aced640dd7faddb90100000000000000000000000000000000000000000000000000000000000000000000000000000000000000000000000000000000000000000000000000000000000000000000000000000000000000000000000000000000000000000000000000000000000000000000000000000000000000000000000000000000000000000000000000000000000000000000000000000000000000000000000000000000000000000000000000000000000000000000000000000000000000000000000000000000000000000000000000000000000000000000000000000000000000000000000000000000000000000000000000000000000000000000000000000000008001839896808302fe178203e800a000000000000000000000000000000000000000000000000000000000000200008800000000000000000aa056e81f171bcc55a6ff8345e692c0f86e5b48e01b996cadc001622fb5e363b4218080a00000000000000000000000000000000000000000000000000000000000000000f882f880800a831a3ec094aab59f13d96113334fab5c68e4e62b61f6cbf64780a00000000000000000000000006486b0cd8779006e5cd706484b0d890b9a22080526a0c2373e7cd31983e765ed4a9fc4353a25065e8ef69d38bcd00efebfb9f4df7c86a05c5f2964fb45e8668c229470a1ae83845bf63fa37cb5be7100c1e088ebbdb5aec0c0",
                "blocknumber": "1"
            }
        ],
        "sealEngine": "NoProof",
        "_info": {
            "hash": "0x58ded2215ae0b0c09bda96620cb6c3e930292072cdde67131e3e1e205827c818",
            "fixture-format": "blockchain_test",
            "comment": "`execution-specs` generated test",
            "filling-transition-tool": "2.19.0",
            "description": "Test_static_callcodecallcallcode_101_oogm_after_1.",
            "url": "https://github.com/ethereum/execution-specs/blob/tests-sn\u00f8bal-devnet-4@v1.0.0/tests/ported_static/stStaticCall/test_static_callcodecallcallcode_101_oogm_after_1.py#L26",
            "metadata": {
                "opcode_count": {}
            }
        }
    }
}