{
    "tests/ported_static/stStaticCall/test_static_callcodecallcallcode_101_oogm_after_1.py::test_static_callcodecallcallcode_101_oogm_after_1[fork_Cancun-blockchain_test_from_state_test-d0]": {
        "network": "Cancun",
        "genesisBlockHeader": {
            "parentHash": "0x0000000000000000000000000000000000000000000000000000000000000000",
            "uncleHash": "0x1dcc4de8dec75d7aab85b567b6ccd41ad312451b948a7413f0a142fd40d49347",
            "coinbase": "0x0000000000000000000000000000000000000000",
            "stateRoot": "0x8eaecd6f297ccbf144bf835d4fe20c137cddb9d53aa1cd8ac0f5d24fdfa4974f",
            "transactionsTrie": "0x56e81f171bcc55a6ff8345e692c0f86e5b48e01b996cadc001622fb5e363b421",
            "receiptTrie": "0x56e81f171bcc55a6ff8345e692c0f86e5b48e01b996cadc001622fb5e363b421",
            "bloom": "0x00000000000000000000000000000000000000000000000000000000000000000000000000000000000000000000000000000000000000000000000000000000000000000000000000000000000000000000000000000000000000000000000000000000000000000000000000000000000000000000000000000000000000000000000000000000000000000000000000000000000000000000000000000000000000000000000000000000000000000000000000000000000000000000000000000000000000000000000000000000000000000000000000000000000000000000000000000000000000000000000000000000000000000000000000000000",
            "difficulty": "0x00",
            "number": "0x00",
            "gasLimit": "0x989680",
            "gasUsed": "0x00",
            "timestamp": "0x00",
            "extraData": "0x00",
            "mixHash": "0x0000000000000000000000000000000000000000000000000000000000000000",
            "nonce": "0x0000000000000000",
            "baseFeePerGas": "0x0b",
            "withdrawalsRoot": "0x56e81f171bcc55a6ff8345e692c0f86e5b48e01b996cadc001622fb5e363b421",
            "blobGasUsed": "0x00",
            "excessBlobGas": "0x00",
            "parentBeaconBlockRoot": "0x0000000000000000000000000000000000000000000000000000000000000000",
            "hash": "0x0b1351f3c9b3cac559977788fca38462ad3a1f84c64e53006ca831dfb6ffc9e4"
        },
        "pre": {
            "0x000f3df6d732807ef1319fb7b8bb8522d0beac02": {
                "nonce": "0x01",
                "balance": "0x00",
                "code": "0x3373fffffffffffffffffffffffffffffffffffffffe14604d57602036146024575f5ffd5b5f35801560495762001fff810690815414603c575f5ffd5b62001fff01545f5260205ff35b5f5ffd5b62001fff42064281555f359062001fff015500",
                "storage": {}
            },
            "0xd66f224cbd2fabb21b17bb53c56118f32f62ebd6": {
                "nonce": "0x00",
                "balance": "0x0de0b6b3a7640000",
                "code": "0x",
                "storage": {}
            },
            "0xaab59f13d96113334fab5c68e4e62b61f6cbf647": {
                "nonce": "0x00",
                "balance": "0x0de0b6b3a7640000",
                "code": "0x600060006000600060006000355af2600055600160015500",
                "storage": {}
            },
            "0x335c5531b84765a7626e6e76688f18b81be5259c": {
                "nonce": "0x00",
                "balance": "0x00",
                "code": "0x600160035200",
                "storage": {}
            },
            "0xb126c622075b1189fb6c45e851641cfaddf65b36": {
                "nonce": "0x00",
                "balance": "0x00",
                "code": "0x600160035500",
                "storage": {}
            },
            "0x858db7418c9e1c32811e5bc39366bdf6e2ed2492": {
                "nonce": "0x00",
                "balance": "0x00",
                "code": "0x6040600060406000600073335c5531b84765a7626e6e76688f18b81be5259c6201d4d4f250600160035200",
                "storage": {}
            },
            "0x677db155fab75972f19732afb328a0ea6472a6ab": {
                "nonce": "0x00",
                "balance": "0x00",
                "code": "0x6040600060406000600073b126c622075b1189fb6c45e851641cfaddf65b366201d4d4f250600160035200",
                "storage": {}
            },
            "0xf4645c150a8060778ad94dffe302081fc222dedb": {
                "nonce": "0x00",
                "balance": "0x00",
                "code": "0x604060006040600073858db7418c9e1c32811e5bc39366bdf6e2ed249262061ad0fa505b61c3506080511015603f5760013b506001608051016080526023565b00",
                "storage": {}
            },
            "0x18dc408f6983f318529a93583ee12f590c537820": {
                "nonce": "0x00",
                "balance": "0x00",
                "code": "0x604060006040600073677db155fab75972f19732afb328a0ea6472a6ab62061ad0fa50600160035200",
                "storage": {}
            },
            "0xb9abd0ef44ae2df9f408d150c5b6fb6a181be9cf": {
                "nonce": "0x00",
                "balance": "0x0de0b6b3a7640000",
                "code": "0x6040600060406000600073f4645c150a8060778ad94dffe302081fc222dedb620aaef6f250600160035200",
                "storage": {}
            },
            "0x6486b0cd8779006e5cd706484b0d890b9a220805": {
                "nonce": "0x00",
                "balance": "0x0de0b6b3a7640000",
                "code": "0x604060006040600060007318dc408f6983f318529a93583ee12f590c537820620aaef6f250600160035200",
                "storage": {}
            }
        },
        "postState": {
            "0x000f3df6d732807ef1319fb7b8bb8522d0beac02": {
                "nonce": "0x01",
                "balance": "0x00",
                "code": "0x3373fffffffffffffffffffffffffffffffffffffffe14604d57602036146024575f5ffd5b5f35801560495762001fff810690815414603c575f5ffd5b62001fff01545f5260205ff35b5f5ffd5b62001fff42064281555f359062001fff015500",
                "storage": {
                    "0x03e8": "0x03e8"
                }
            },
            "0xd66f224cbd2fabb21b17bb53c56118f32f62ebd6": {
                "nonce": "0x01",
                "balance": "0x0de0b6b3a6ee5b48",
                "code": "0x",
                "storage": {}
            },
            "0xaab59f13d96113334fab5c68e4e62b61f6cbf647": {
                "nonce": "0x00",
                "balance": "0x0de0b6b3a7640000",
                "code": "0x600060006000600060006000355af2600055600160015500",
                "storage": {
                    "0x00": "0x01",
                    "0x01": "0x01"
                }
            },
            "0x335c5531b84765a7626e6e76688f18b81be5259c": {
                "nonce": "0x00",
                "balance": "0x00",
                "code": "0x600160035200",
                "storage": {}
            },
            "0xb126c622075b1189fb6c45e851641cfaddf65b36": {
                "nonce": "0x00",
                "balance": "0x00",
                "code": "0x600160035500",
                "storage": {}
            },
            "0x858db7418c9e1c32811e5bc39366bdf6e2ed2492": {
                "nonce": "0x00",
                "balance": "0x00",
                "code": "0x6040600060406000600073335c5531b84765a7626e6e76688f18b81be5259c6201d4d4f250600160035200",
                "storage": {}
            },
            "0x677db155fab75972f19732afb328a0ea6472a6ab": {
                "nonce": "0x00",
                "balance": "0x00",
                "code": "0x6040600060406000600073b126c622075b1189fb6c45e851641cfaddf65b366201d4d4f250600160035200",
                "storage": {}
            },
            "0xf4645c150a8060778ad94dffe302081fc222dedb": {
                "nonce": "0x00",
                "balance": "0x00",
                "code": "0x604060006040600073858db7418c9e1c32811e5bc39366bdf6e2ed249262061ad0fa505b61c3506080511015603f5760013b506001608051016080526023565b00",
                "storage": {}
            },
            "0x18dc408f6983f318529a93583ee12f590c537820": {
                "nonce": "0x00",
                "balance": "0x00",
                "code": "0x604060006040600073677db155fab75972f19732afb328a0ea6472a6ab62061ad0fa50600160035200",
                "storage": {}
            },
            "0xb9abd0ef44ae2df9f408d150c5b6fb6a181be9cf": {
                "nonce": "0x00",
                "balance": "0x0de0b6b3a7640000",
                "code": "0x6040600060406000600073f4645c150a8060778ad94dffe302081fc222dedb620aaef6f250600160035200",
                "storage": {}
            },
            "0x6486b0cd8779006e5cd706484b0d890b9a220805": {
                "nonce": "0x00",
                "balance": "0x0de0b6b3a7640000",
                "code": "0x604060006040600060007318dc408f6983f318529a93583ee12f590c537820620aaef6f250600160035200",
                "storage": {}
            }
        },
        "lastblockhash": "0x5116111668cbe492a30fefe3027740e96d53435fafc35773ce00e723ebbc112a",
        "config": {
            "network": "Cancun",
            "chainid": "0x01",
            "blobSchedule": {
                "Cancun": {
                    "target": "0x03",
                    "max": "0x06",
                    "baseFeeUpdateFraction": "0x32f0ed"
                }
            }
        },
        "genesisRLP": "0xf9023bf90235a00000000000000000000000000000000000000000000000000000000000000000a01dcc4de8dec75d7aab85b567b6ccd41ad312451b948a7413f0a142fd40d49347940000000000000000000000000000000000000000a08eaecd6f297ccbf144bf835d4fe20c137cddb9d53aa1cd8ac0f5d24fdfa4974fa056e81f171bcc55a6ff8345e692c0f86e5b48e01b996cadc001622fb5e363b421a056e81f171bcc55a6ff8345e692c0f86e5b48e01b996cadc001622fb5e363b421b9010000000000000000000000000000000000000000000000000000000000000000000000000000000000000000000000000000000000000000000000000000000000000000000000000000000000000000000000000000000000000000000000000000000000000000000000000000000000000000000000000000000000000000000000000000000000000000000000000000000000000000000000000000000000000000000000000000000000000000000000000000000000000000000000000000000000000000000000000000000000000000000000000000000000000000000000000000000000000000000000000000000000000000000000000000000000808083989680808000a000000000000000000000000000000000000000000000000000000000000000008800000000000000000ba056e81f171bcc55a6ff8345e692c0f86e5b48e01b996cadc001622fb5e363b4218080a00000000000000000000000000000000000000000000000000000000000000000c0c0c0",
        "blocks": [
            {
                "blockHeader": {
                    "parentHash": "0x0b1351f3c9b3cac559977788fca38462ad3a1f84c64e53006ca831dfb6ffc9e4",
                    "uncleHash": "0x1dcc4de8dec75d7aab85b567b6ccd41ad312451b948a7413f0a142fd40d49347",
                    "coinbase": "0x2adc25665018aa1fe0e6bc666dac8fc2697ff9ba",
                    "stateRoot": "0xdb00f4b54cf168f9858775c8495395ae9996e36e64eb0a8f6e10933c3613426c",
                    "transactionsTrie": "0xe77223d6a81a958c9a181044c606be5e2ee1cadc7931e4787919cd7f62a4308d",
                    "receiptTrie": "0x9bf6198ebec995a2a808f84f21f979945b9af4e21af9c27f2c21f5218f455080",
                    "bloom": "0x00000000000000000000000000000000000000000000000000000000000000000000000000000000000000000000000000000000000000000000000000000000000000000000000000000000000000000000000000000000000000000000000000000000000000000000000000000000000000000000000000000000000000000000000000000000000000000000000000000000000000000000000000000000000000000000000000000000000000000000000000000000000000000000000000000000000000000000000000000000000000000000000000000000000000000000000000000000000000000000000000000000000000000000000000000000",
                    "difficulty": "0x00",
                    "number": "0x01",
                    "gasLimit": "0x989680",
                    "gasUsed": "0x0bc3ac",
                    "timestamp": "0x03e8",
                    "extraData": "0x00",
                    "mixHash": "0x0000000000000000000000000000000000000000000000000000000000020000",
                    "nonce": "0x0000000000000000",
                    "baseFeePerGas": "0x0a",
                    "withdrawalsRoot": "0x56e81f171bcc55a6ff8345e692c0f86e5b48e01b996cadc001622fb5e363b421",
                    "blobGasUsed": "0x00",
                    "excessBlobGas": "0x00",
                    "parentBeaconBlockRoot": "0x0000000000000000000000000000000000000000000000000000000000000000",
                    "hash": "0x5116111668cbe492a30fefe3027740e96d53435fafc35773ce00e723ebbc112a"
                },
                "transactions": [
                    {
                        "type": "0x00",
                        "chainId": "0x01",
                        "nonce": "0x00",
                        "gasPrice": "0x0a",
                        "gasLimit": "0x1a3ec0",
                        "to": "0xaab59f13d96113334fab5c68e4e62b61f6cbf647",
                        "value": "0x00",
                        "data": "0x000000000000000000000000b9abd0ef44ae2df9f408d150c5b6fb6a181be9cf",
                        "v": "0x25",
                        "r": "0xd98327251e50194a84ffadb5f054a043ce8fb00064debffdcc09e139c2f0b218",
                        "s": "0x14c5b9c8b85312395a7231495e507a604cfa661c3fce82475588cc1defafdbb2",
                        "sender": "0xd66f224cbd2fabb21b17bb53c56118f32f62ebd6"
                    }
                ],
                "uncleHeaders": [],
                "withdrawals": [],
                "receipts": [
                    {
                        "transactionHash": "0xc2a491fb747ceeff517b634f76717352923d85c24565e43459519c2d9b4dddf2",
                        "type": "0x00",
                        "cumulativeGasUsed": "0x0bc3ac",
                        "bloom": "0x00000000000000000000000000000000000000000000000000000000000000000000000000000000000000000000000000000000000000000000000000000000000000000000000000000000000000000000000000000000000000000000000000000000000000000000000000000000000000000000000000000000000000000000000000000000000000000000000000000000000000000000000000000000000000000000000000000000000000000000000000000000000000000000000000000000000000000000000000000000000000000000000000000000000000000000000000000000000000000000000000000000000000000000000000000000",
                        "logs": [],
                        "status": true,
                        "rlp": "0xf9010901830bc3acb9010000000000000000000000000000000000000000000000000000000000000000000000000000000000000000000000000000000000000000000000000000000000000000000000000000000000000000000000000000000000000000000000000000000000000000000000000000000000000000000000000000000000000000000000000000000000000000000000000000000000000000000000000000000000000000000000000000000000000000000000000000000000000000000000000000000000000000000000000000000000000000000000000000000000000000000000000000000000000000000000000000000000000000000000000000000000c0"
                    }
                ],
                "rlp": "0xf902c3f9023aa00b1351f3c9b3cac559977788fca38462ad3a1f84c64e53006ca831dfb6ffc9e4a01dcc4de8dec75d7aab85b567b6ccd41ad312451b948a7413f0a142fd40d49347942adc25665018aa1fe0e6bc666dac8fc2697ff9baa0db00f4b54cf168f9858775c8495395ae9996e36e64eb0a8f6e10933c3613426ca0e77223d6a81a958c9a181044c606be5e2ee1cadc7931e4787919cd7f62a4308da09bf6198ebec995a2a808f84f21f979945b9af4e21af9c27f2c21f5218f455080b9010000000000000000000000000000000000000000000000000000000000000000000000000000000000000000000000000000000000000000000000000000000000000000000000000000000000000000000000000000000000000000000000000000000000000000000000000000000000000000000000000000000000000000000000000000000000000000000000000000000000000000000000000000000000000000000000000000000000000000000000000000000000000000000000000000000000000000000000000000000000000000000000000000000000000000000000000000000000000000000000000000000000000000000000000000000000800183989680830bc3ac8203e800a000000000000000000000000000000000000000000000000000000000000200008800000000000000000aa056e81f171bcc55a6ff8345e692c0f86e5b48e01b996cadc001622fb5e363b4218080a00000000000000000000000000000000000000000000000000000000000000000f882f880800a831a3ec094aab59f13d96113334fab5c68e4e62b61f6cbf64780a0000000000000000000000000b9abd0ef44ae2df9f408d150c5b6fb6a181be9cf25a0d98327251e50194a84ffadb5f054a043ce8fb00064debffdcc09e139c2f0b218a014c5b9c8b85312395a7231495e507a604cfa661c3fce82475588cc1defafdbb2c0c0",
                "blocknumber": "1"
            }
        ],
        "sealEngine": "NoProof",
        "_info": {
            "hash": "0x1d238a81c297868470b8110135449ea4727e5eee9c26400fb4b6e70632d4bc67",
            "fixture-format": "blockchain_test",
            "comment": "`execution-specs` generated test",
            "filling-transition-tool": "2.19.0",
            "description": "Test_static_callcodecallcallcode_101_oogm_after_1.",
            "url": "https://github.com/ethereum/execution-specs/blob/tests-snobal-devnet-5@v8037.0.0/tests/ported_static/stStaticCall/test_static_callcodecallcallcode_101_oogm_after_1.py#L25",
            "metadata": {
                "opcode_count": {}
            }
        }
    },
    "tests/ported_static/stStaticCall/test_static_callcodecallcallcode_101_oogm_after_1.py::test_static_callcodecallcallcode_101_oogm_after_1[fork_Cancun-blockchain_test_from_state_test-d1]": {
        "network": "Cancun",
        "genesisBlockHeader": {
            "parentHash": "0x0000000000000000000000000000000000000000000000000000000000000000",
            "uncleHash": "0x1dcc4de8dec75d7aab85b567b6ccd41ad312451b948a7413f0a142fd40d49347",
            "coinbase": "0x0000000000000000000000000000000000000000",
            "stateRoot": "0x8eaecd6f297ccbf144bf835d4fe20c137cddb9d53aa1cd8ac0f5d24fdfa4974f",
            "transactionsTrie": "0x56e81f171bcc55a6ff8345e692c0f86e5b48e01b996cadc001622fb5e363b421",
            "receiptTrie": "0x56e81f171bcc55a6ff8345e692c0f86e5b48e01b996cadc001622fb5e363b421",
            "bloom": "0x00000000000000000000000000000000000000000000000000000000000000000000000000000000000000000000000000000000000000000000000000000000000000000000000000000000000000000000000000000000000000000000000000000000000000000000000000000000000000000000000000000000000000000000000000000000000000000000000000000000000000000000000000000000000000000000000000000000000000000000000000000000000000000000000000000000000000000000000000000000000000000000000000000000000000000000000000000000000000000000000000000000000000000000000000000000",
            "difficulty": "0x00",
            "number": "0x00",
            "gasLimit": "0x989680",
            "gasUsed": "0x00",
            "timestamp": "0x00",
            "extraData": "0x00",
            "mixHash": "0x0000000000000000000000000000000000000000000000000000000000000000",
            "nonce": "0x0000000000000000",
            "baseFeePerGas": "0x0b",
            "withdrawalsRoot": "0x56e81f171bcc55a6ff8345e692c0f86e5b48e01b996cadc001622fb5e363b421",
            "blobGasUsed": "0x00",
            "excessBlobGas": "0x00",
            "parentBeaconBlockRoot": "0x0000000000000000000000000000000000000000000000000000000000000000",
            "hash": "0x0b1351f3c9b3cac559977788fca38462ad3a1f84c64e53006ca831dfb6ffc9e4"
        },
        "pre": {
            "0x000f3df6d732807ef1319fb7b8bb8522d0beac02": {
                "nonce": "0x01",
                "balance": "0x00",
                "code": "0x3373fffffffffffffffffffffffffffffffffffffffe14604d57602036146024575f5ffd5b5f35801560495762001fff810690815414603c575f5ffd5b62001fff01545f5260205ff35b5f5ffd5b62001fff42064281555f359062001fff015500",
                "storage": {}
            },
            "0xd66f224cbd2fabb21b17bb53c56118f32f62ebd6": {
                "nonce": "0x00",
                "balance": "0x0de0b6b3a7640000",
                "code": "0x",
                "storage": {}
            },
            "0xaab59f13d96113334fab5c68e4e62b61f6cbf647": {
                "nonce": "0x00",
                "balance": "0x0de0b6b3a7640000",
                "code": "0x600060006000600060006000355af2600055600160015500",
                "storage": {}
            },
            "0x335c5531b84765a7626e6e76688f18b81be5259c": {
                "nonce": "0x00",
                "balance": "0x00",
                "code": "0x600160035200",
                "storage": {}
            },
            "0xb126c622075b1189fb6c45e851641cfaddf65b36": {
                "nonce": "0x00",
                "balance": "0x00",
                "code": "0x600160035500",
                "storage": {}
            },
            "0x858db7418c9e1c32811e5bc39366bdf6e2ed2492": {
                "nonce": "0x00",
                "balance": "0x00",
                "code": "0x6040600060406000600073335c5531b84765a7626e6e76688f18b81be5259c6201d4d4f250600160035200",
                "storage": {}
            },
            "0x677db155fab75972f19732afb328a0ea6472a6ab": {
                "nonce": "0x00",
                "balance": "0x00",
                "code": "0x6040600060406000600073b126c622075b1189fb6c45e851641cfaddf65b366201d4d4f250600160035200",
                "storage": {}
            },
            "0xf4645c150a8060778ad94dffe302081fc222dedb": {
                "nonce": "0x00",
                "balance": "0x00",
                "code": "0x604060006040600073858db7418c9e1c32811e5bc39366bdf6e2ed249262061ad0fa505b61c3506080511015603f5760013b506001608051016080526023565b00",
                "storage": {}
            },
            "0x18dc408f6983f318529a93583ee12f590c537820": {
                "nonce": "0x00",
                "balance": "0x00",
                "code": "0x604060006040600073677db155fab75972f19732afb328a0ea6472a6ab62061ad0fa50600160035200",
                "storage": {}
            },
            "0xb9abd0ef44ae2df9f408d150c5b6fb6a181be9cf": {
                "nonce": "0x00",
                "balance": "0x0de0b6b3a7640000",
                "code": "0x6040600060406000600073f4645c150a8060778ad94dffe302081fc222dedb620aaef6f250600160035200",
                "storage": {}
            },
            "0x6486b0cd8779006e5cd706484b0d890b9a220805": {
                "nonce": "0x00",
                "balance": "0x0de0b6b3a7640000",
                "code": "0x604060006040600060007318dc408f6983f318529a93583ee12f590c537820620aaef6f250600160035200",
                "storage": {}
            }
        },
        "postState": {
            "0x000f3df6d732807ef1319fb7b8bb8522d0beac02": {
                "nonce": "0x01",
                "balance": "0x00",
                "code": "0x3373fffffffffffffffffffffffffffffffffffffffe14604d57602036146024575f5ffd5b5f35801560495762001fff810690815414603c575f5ffd5b62001fff01545f5260205ff35b5f5ffd5b62001fff42064281555f359062001fff015500",
                "storage": {
                    "0x03e8": "0x03e8"
                }
            },
            "0xd66f224cbd2fabb21b17bb53c56118f32f62ebd6": {
                "nonce": "0x01",
                "balance": "0x0de0b6b3a746131a",
                "code": "0x",
                "storage": {}
            },
            "0xaab59f13d96113334fab5c68e4e62b61f6cbf647": {
                "nonce": "0x00",
                "balance": "0x0de0b6b3a7640000",
                "code": "0x600060006000600060006000355af2600055600160015500",
                "storage": {
                    "0x00": "0x01",
                    "0x01": "0x01"
                }
            },
            "0x335c5531b84765a7626e6e76688f18b81be5259c": {
                "nonce": "0x00",
                "balance": "0x00",
                "code": "0x600160035200",
                "storage": {}
            },
            "0xb126c622075b1189fb6c45e851641cfaddf65b36": {
                "nonce": "0x00",
                "balance": "0x00",
                "code": "0x600160035500",
                "storage": {}
            },
            "0x858db7418c9e1c32811e5bc39366bdf6e2ed2492": {
                "nonce": "0x00",
                "balance": "0x00",
                "code": "0x6040600060406000600073335c5531b84765a7626e6e76688f18b81be5259c6201d4d4f250600160035200",
                "storage": {}
            },
            "0x677db155fab75972f19732afb328a0ea6472a6ab": {
                "nonce": "0x00",
                "balance": "0x00",
                "code": "0x6040600060406000600073b126c622075b1189fb6c45e851641cfaddf65b366201d4d4f250600160035200",
                "storage": {}
            },
            "0xf4645c150a8060778ad94dffe302081fc222dedb": {
                "nonce": "0x00",
                "balance": "0x00",
                "code": "0x604060006040600073858db7418c9e1c32811e5bc39366bdf6e2ed249262061ad0fa505b61c3506080511015603f5760013b506001608051016080526023565b00",
                "storage": {}
            },
            "0x18dc408f6983f318529a93583ee12f590c537820": {
                "nonce": "0x00",
                "balance": "0x00",
                "code": "0x604060006040600073677db155fab75972f19732afb328a0ea6472a6ab62061ad0fa50600160035200",
                "storage": {}
            },
            "0xb9abd0ef44ae2df9f408d150c5b6fb6a181be9cf": {
                "nonce": "0x00",
                "balance": "0x0de0b6b3a7640000",
                "code": "0x6040600060406000600073f4645c150a8060778ad94dffe302081fc222dedb620aaef6f250600160035200",
                "storage": {}
            },
            "0x6486b0cd8779006e5cd706484b0d890b9a220805": {
                "nonce": "0x00",
                "balance": "0x0de0b6b3a7640000",
                "code": "0x604060006040600060007318dc408f6983f318529a93583ee12f590c537820620aaef6f250600160035200",
                "storage": {}
            }
        },
        "lastblockhash": "0xc113758d2e5dc6ec1664a5c4a2cde718f66ce04d61d3685e0b0083ba5cd7e2ea",
        "config": {
            "network": "Cancun",
            "chainid": "0x01",
            "blobSchedule": {
                "Cancun": {
                    "target": "0x03",
                    "max": "0x06",
                    "baseFeeUpdateFraction": "0x32f0ed"
                }
            }
        },
        "genesisRLP": "0xf9023bf90235a00000000000000000000000000000000000000000000000000000000000000000a01dcc4de8dec75d7aab85b567b6ccd41ad312451b948a7413f0a142fd40d49347940000000000000000000000000000000000000000a08eaecd6f297ccbf144bf835d4fe20c137cddb9d53aa1cd8ac0f5d24fdfa4974fa056e81f171bcc55a6ff8345e692c0f86e5b48e01b996cadc001622fb5e363b421a056e81f171bcc55a6ff8345e692c0f86e5b48e01b996cadc001622fb5e363b421b9010000000000000000000000000000000000000000000000000000000000000000000000000000000000000000000000000000000000000000000000000000000000000000000000000000000000000000000000000000000000000000000000000000000000000000000000000000000000000000000000000000000000000000000000000000000000000000000000000000000000000000000000000000000000000000000000000000000000000000000000000000000000000000000000000000000000000000000000000000000000000000000000000000000000000000000000000000000000000000000000000000000000000000000000000000000000808083989680808000a000000000000000000000000000000000000000000000000000000000000000008800000000000000000ba056e81f171bcc55a6ff8345e692c0f86e5b48e01b996cadc001622fb5e363b4218080a00000000000000000000000000000000000000000000000000000000000000000c0c0c0",
        "blocks": [
            {
                "blockHeader": {
                    "parentHash": "0x0b1351f3c9b3cac559977788fca38462ad3a1f84c64e53006ca831dfb6ffc9e4",
                    "uncleHash": "0x1dcc4de8dec75d7aab85b567b6ccd41ad312451b948a7413f0a142fd40d49347",
                    "coinbase": "0x2adc25665018aa1fe0e6bc666dac8fc2697ff9ba",
                    "stateRoot": "0x2fcbc0f9b6ba457587445bf76ab793a88e993babb28898daf4a1caf51f7f547a",
                    "transactionsTrie": "0x7275a059f7dc212a093a69b981d6d8455fb9adc2bc4cb4cdecce3c4919b6479f",
                    "receiptTrie": "0x36f0feb85c022d65ef8e4a2b534f680237906cdfc997269259aced640dd7fadd",
                    "bloom": "0x00000000000000000000000000000000000000000000000000000000000000000000000000000000000000000000000000000000000000000000000000000000000000000000000000000000000000000000000000000000000000000000000000000000000000000000000000000000000000000000000000000000000000000000000000000000000000000000000000000000000000000000000000000000000000000000000000000000000000000000000000000000000000000000000000000000000000000000000000000000000000000000000000000000000000000000000000000000000000000000000000000000000000000000000000000000",
                    "difficulty": "0x00",
                    "number": "0x01",
                    "gasLimit": "0x989680",
                    "gasUsed": "0x02fe17",
                    "timestamp": "0x03e8",
                    "extraData": "0x00",
                    "mixHash": "0x0000000000000000000000000000000000000000000000000000000000020000",
                    "nonce": "0x0000000000000000",
                    "baseFeePerGas": "0x0a",
                    "withdrawalsRoot": "0x56e81f171bcc55a6ff8345e692c0f86e5b48e01b996cadc001622fb5e363b421",
                    "blobGasUsed": "0x00",
                    "excessBlobGas": "0x00",
                    "parentBeaconBlockRoot": "0x0000000000000000000000000000000000000000000000000000000000000000",
                    "hash": "0xc113758d2e5dc6ec1664a5c4a2cde718f66ce04d61d3685e0b0083ba5cd7e2ea"
                },
                "transactions": [
                    {
                        "type": "0x00",
                        "chainId": "0x01",
                        "nonce": "0x00",
                        "gasPrice": "0x0a",
                        "gasLimit": "0x1a3ec0",
                        "to": "0xaab59f13d96113334fab5c68e4e62b61f6cbf647",
                        "value": "0x00",
                        "data": "0x0000000000000000000000006486b0cd8779006e5cd706484b0d890b9a220805",
                        "v": "0x25",
                        "r": "0x8f2e86359f6931d6e0d8c352640a87c020a41e393f29c38974a4bc2f6013b843",
                        "s": "0x5852772e7de50c026b11ee56b479e68563e55d0d79a9e723f4261a9e505c9941",
                        "sender": "0xd66f224cbd2fabb21b17bb53c56118f32f62ebd6"
                    }
                ],
                "uncleHeaders": [],
                "withdrawals": [],
                "receipts": [
                    {
                        "transactionHash": "0x7b4fca17dcc4598235445a56906fe4422878ff19ef7eae7260d1fc14701ac5fd",
                        "type": "0x00",
                        "cumulativeGasUsed": "0x02fe17",
                        "bloom": "0x00000000000000000000000000000000000000000000000000000000000000000000000000000000000000000000000000000000000000000000000000000000000000000000000000000000000000000000000000000000000000000000000000000000000000000000000000000000000000000000000000000000000000000000000000000000000000000000000000000000000000000000000000000000000000000000000000000000000000000000000000000000000000000000000000000000000000000000000000000000000000000000000000000000000000000000000000000000000000000000000000000000000000000000000000000000",
                        "logs": [],
                        "status": true,
                        "rlp": "0xf90109018302fe17b9010000000000000000000000000000000000000000000000000000000000000000000000000000000000000000000000000000000000000000000000000000000000000000000000000000000000000000000000000000000000000000000000000000000000000000000000000000000000000000000000000000000000000000000000000000000000000000000000000000000000000000000000000000000000000000000000000000000000000000000000000000000000000000000000000000000000000000000000000000000000000000000000000000000000000000000000000000000000000000000000000000000000000000000000000000000000c0"
                    }
                ],
                "rlp": "0xf902c3f9023aa00b1351f3c9b3cac559977788fca38462ad3a1f84c64e53006ca831dfb6ffc9e4a01dcc4de8dec75d7aab85b567b6ccd41ad312451b948a7413f0a142fd40d49347942adc25665018aa1fe0e6bc666dac8fc2697ff9baa02fcbc0f9b6ba457587445bf76ab793a88e993babb28898daf4a1caf51f7f547aa07275a059f7dc212a093a69b981d6d8455fb9adc2bc4cb4cdecce3c4919b6479fa036f0feb85c022d65ef8e4a2b534f680237906cdfc997269259aced640dd7faddb90100000000000000000000000000000000000000000000000000000000000000000000000000000000000000000000000000000000000000000000000000000000000000000000000000000000000000000000000000000000000000000000000000000000000000000000000000000000000000000000000000000000000000000000000000000000000000000000000000000000000000000000000000000000000000000000000000000000000000000000000000000000000000000000000000000000000000000000000000000000000000000000000000000000000000000000000000000000000000000000000000000000000000000000000000000000008001839896808302fe178203e800a000000000000000000000000000000000000000000000000000000000000200008800000000000000000aa056e81f171bcc55a6ff8345e692c0f86e5b48e01b996cadc001622fb5e363b4218080a00000000000000000000000000000000000000000000000000000000000000000f882f880800a831a3ec094aab59f13d96113334fab5c68e4e62b61f6cbf64780a00000000000000000000000006486b0cd8779006e5cd706484b0d890b9a22080525a08f2e86359f6931d6e0d8c352640a87c020a41e393f29c38974a4bc2f6013b843a05852772e7de50c026b11ee56b479e68563e55d0d79a9e723f4261a9e505c9941c0c0",
                "blocknumber": "1"
            }
        ],
        "sealEngine": "NoProof",
        "_info": {
            "hash": "0x5959c04ec4008dc66908ae632f87f61a983a2130406f612c2b3721bc44c8ddb9",
            "fixture-format": "blockchain_test",
            "comment": "`execution-specs` generated test",
            "filling-transition-tool": "2.19.0",
            "description": "Test_static_callcodecallcallcode_101_oogm_after_1.",
            "url": "https://github.com/ethereum/execution-specs/blob/tests-snobal-devnet-5@v8037.0.0/tests/ported_static/stStaticCall/test_static_callcodecallcallcode_101_oogm_after_1.py#L25",
            "metadata": {
                "opcode_count": {}
            }
        }
    }
}