{
    "tests/ported_static/stRefundTest/test_refund_call_to_suicide_storage.py::test_refund_call_to_suicide_storage[fork_Cancun-blockchain_test_from_state_test-d0]": {
        "network": "Cancun",
        "genesisBlockHeader": {
            "parentHash": "0x0000000000000000000000000000000000000000000000000000000000000000",
            "uncleHash": "0x1dcc4de8dec75d7aab85b567b6ccd41ad312451b948a7413f0a142fd40d49347",
            "coinbase": "0x0000000000000000000000000000000000000000",
            "stateRoot": "0xeb7921ac7a8484791c91def04e1360b2ed42724e150220ad9d8c76a042869a78",
            "transactionsTrie": "0x56e81f171bcc55a6ff8345e692c0f86e5b48e01b996cadc001622fb5e363b421",
            "receiptTrie": "0x56e81f171bcc55a6ff8345e692c0f86e5b48e01b996cadc001622fb5e363b421",
            "bloom": "0x00000000000000000000000000000000000000000000000000000000000000000000000000000000000000000000000000000000000000000000000000000000000000000000000000000000000000000000000000000000000000000000000000000000000000000000000000000000000000000000000000000000000000000000000000000000000000000000000000000000000000000000000000000000000000000000000000000000000000000000000000000000000000000000000000000000000000000000000000000000000000000000000000000000000000000000000000000000000000000000000000000000000000000000000000000000",
            "difficulty": "0x00",
            "number": "0x00",
            "gasLimit": "0x05f5e100",
            "gasUsed": "0x00",
            "timestamp": "0x00",
            "extraData": "0x00",
            "mixHash": "0x0000000000000000000000000000000000000000000000000000000000000000",
            "nonce": "0x0000000000000000",
            "baseFeePerGas": "0x0b",
            "withdrawalsRoot": "0x56e81f171bcc55a6ff8345e692c0f86e5b48e01b996cadc001622fb5e363b421",
            "blobGasUsed": "0x00",
            "excessBlobGas": "0x00",
            "parentBeaconBlockRoot": "0x0000000000000000000000000000000000000000000000000000000000000000",
            "hash": "0xae142bec050e19edfbbdb0584b5867cddf3ac7ea62892639dbc8d83778de28d8"
        },
        "pre": {
            "0x000f3df6d732807ef1319fb7b8bb8522d0beac02": {
                "nonce": "0x01",
                "balance": "0x00",
                "code": "0x3373fffffffffffffffffffffffffffffffffffffffe14604d57602036146024575f5ffd5b5f35801560495762001fff810690815414603c575f5ffd5b62001fff01545f5260205ff35b5f5ffd5b62001fff42064281555f359062001fff015500",
                "storage": {}
            },
            "0x10f01d60936d8d7ad4c34039faf4f8827f1a197b": {
                "nonce": "0x00",
                "balance": "0x02540be400",
                "code": "0x",
                "storage": {}
            },
            "0x5be4b33890f720eff72be0019b122e0ff75cb937": {
                "nonce": "0x00",
                "balance": "0x0de0b6b3a7640000",
                "code": "0x60006000600060006000739dea1ad5123f3d8b91cfc830b1c602597883e97c600035f160005500",
                "storage": {
                    "0x01": "0x01"
                }
            },
            "0x9dea1ad5123f3d8b91cfc830b1c602597883e97c": {
                "nonce": "0x00",
                "balance": "0x0de0b6b3a7640000",
                "code": "0x735be4b33890f720eff72be0019b122e0ff75cb937ff00",
                "storage": {
                    "0x01": "0x01"
                }
            }
        },
        "postState": {
            "0x000f3df6d732807ef1319fb7b8bb8522d0beac02": {
                "nonce": "0x01",
                "balance": "0x00",
                "code": "0x3373fffffffffffffffffffffffffffffffffffffffe14604d57602036146024575f5ffd5b5f35801560495762001fff810690815414603c575f5ffd5b62001fff01545f5260205ff35b5f5ffd5b62001fff42064281555f359062001fff015500",
                "storage": {
                    "0x03e8": "0x03e8"
                }
            },
            "0x10f01d60936d8d7ad4c34039faf4f8827f1a197b": {
                "nonce": "0x01",
                "balance": "0x025407d9a0",
                "code": "0x",
                "storage": {}
            },
            "0x5be4b33890f720eff72be0019b122e0ff75cb937": {
                "nonce": "0x00",
                "balance": "0x0de0b6b3a764000a",
                "code": "0x60006000600060006000739dea1ad5123f3d8b91cfc830b1c602597883e97c600035f160005500",
                "storage": {
                    "0x01": "0x01"
                }
            },
            "0x9dea1ad5123f3d8b91cfc830b1c602597883e97c": {
                "nonce": "0x00",
                "balance": "0x0de0b6b3a7640000",
                "code": "0x735be4b33890f720eff72be0019b122e0ff75cb937ff00",
                "storage": {
                    "0x01": "0x01"
                }
            }
        },
        "lastblockhash": "0x6dd98d378342531b4dd01f10473c3247e5b4bf0e6e2a32c4c524e56cedfac0a1",
        "config": {
            "network": "Cancun",
            "chainid": "0x01",
            "blobSchedule": {
                "Cancun": {
                    "target": "0x03",
                    "max": "0x06",
                    "baseFeeUpdateFraction": "0x32f0ed"
                }
            }
        },
        "genesisRLP": "0xf9023cf90236a00000000000000000000000000000000000000000000000000000000000000000a01dcc4de8dec75d7aab85b567b6ccd41ad312451b948a7413f0a142fd40d49347940000000000000000000000000000000000000000a0eb7921ac7a8484791c91def04e1360b2ed42724e150220ad9d8c76a042869a78a056e81f171bcc55a6ff8345e692c0f86e5b48e01b996cadc001622fb5e363b421a056e81f171bcc55a6ff8345e692c0f86e5b48e01b996cadc001622fb5e363b421b901000000000000000000000000000000000000000000000000000000000000000000000000000000000000000000000000000000000000000000000000000000000000000000000000000000000000000000000000000000000000000000000000000000000000000000000000000000000000000000000000000000000000000000000000000000000000000000000000000000000000000000000000000000000000000000000000000000000000000000000000000000000000000000000000000000000000000000000000000000000000000000000000000000000000000000000000000000000000000000000000000000000000000000000000000000000080808405f5e100808000a000000000000000000000000000000000000000000000000000000000000000008800000000000000000ba056e81f171bcc55a6ff8345e692c0f86e5b48e01b996cadc001622fb5e363b4218080a00000000000000000000000000000000000000000000000000000000000000000c0c0c0",
        "blocks": [
            {
                "blockHeader": {
                    "parentHash": "0xae142bec050e19edfbbdb0584b5867cddf3ac7ea62892639dbc8d83778de28d8",
                    "uncleHash": "0x1dcc4de8dec75d7aab85b567b6ccd41ad312451b948a7413f0a142fd40d49347",
                    "coinbase": "0x2adc25665018aa1fe0e6bc666dac8fc2697ff9ba",
                    "stateRoot": "0x42da368973ad3e466d286aa6f4563c9db702bdf483db4f921d91b0605f078e32",
                    "transactionsTrie": "0x4b9d73cde968a1e5f8567262614121b707c5b46253ce935f46bfc29384ed2e3f",
                    "receiptTrie": "0x97c6de02fb5872b46a6b6a83bb382684354622ce38b21cefe7c2bf0a658250c8",
                    "bloom": "0x00000000000000000000000000000000000000000000000000000000000000000000000000000000000000000000000000000000000000000000000000000000000000000000000000000000000000000000000000000000000000000000000000000000000000000000000000000000000000000000000000000000000000000000000000000000000000000000000000000000000000000000000000000000000000000000000000000000000000000000000000000000000000000000000000000000000000000000000000000000000000000000000000000000000000000000000000000000000000000000000000000000000000000000000000000000",
                    "difficulty": "0x00",
                    "number": "0x01",
                    "gasLimit": "0x05f5e100",
                    "gasUsed": "0x676f",
                    "timestamp": "0x03e8",
                    "extraData": "0x00",
                    "mixHash": "0x0000000000000000000000000000000000000000000000000000000000020000",
                    "nonce": "0x0000000000000000",
                    "baseFeePerGas": "0x0a",
                    "withdrawalsRoot": "0x56e81f171bcc55a6ff8345e692c0f86e5b48e01b996cadc001622fb5e363b421",
                    "blobGasUsed": "0x00",
                    "excessBlobGas": "0x00",
                    "parentBeaconBlockRoot": "0x0000000000000000000000000000000000000000000000000000000000000000",
                    "hash": "0x6dd98d378342531b4dd01f10473c3247e5b4bf0e6e2a32c4c524e56cedfac0a1"
                },
                "transactions": [
                    {
                        "type": "0x00",
                        "chainId": "0x01",
                        "nonce": "0x00",
                        "gasPrice": "0x0a",
                        "gasLimit": "0x989680",
                        "to": "0x5be4b33890f720eff72be0019b122e0ff75cb937",
                        "value": "0x0a",
                        "data": "0x00000000000000000000000000000000000000000000000000000000000001f4",
                        "v": "0x25",
                        "r": "0xd9f9b5627ca90ac9f50c81f508fabfd4fbd7edf6d466b4a84fdafe019ccd0eef",
                        "s": "0x15557be964b9626edd997043b6fa778edbbe70fa9554211523b9bdd60bf12f24",
                        "sender": "0x10f01d60936d8d7ad4c34039faf4f8827f1a197b"
                    }
                ],
                "uncleHeaders": [],
                "withdrawals": [],
                "receipts": [
                    {
                        "transactionHash": "0x33e2c27c93402df729504f8af2984e27d02fb5a6f6737802462b321796f0be37",
                        "type": "0x00",
                        "cumulativeGasUsed": "0x676f",
                        "bloom": "0x00000000000000000000000000000000000000000000000000000000000000000000000000000000000000000000000000000000000000000000000000000000000000000000000000000000000000000000000000000000000000000000000000000000000000000000000000000000000000000000000000000000000000000000000000000000000000000000000000000000000000000000000000000000000000000000000000000000000000000000000000000000000000000000000000000000000000000000000000000000000000000000000000000000000000000000000000000000000000000000000000000000000000000000000000000000",
                        "logs": [],
                        "status": true,
                        "rlp": "0xf901080182676fb9010000000000000000000000000000000000000000000000000000000000000000000000000000000000000000000000000000000000000000000000000000000000000000000000000000000000000000000000000000000000000000000000000000000000000000000000000000000000000000000000000000000000000000000000000000000000000000000000000000000000000000000000000000000000000000000000000000000000000000000000000000000000000000000000000000000000000000000000000000000000000000000000000000000000000000000000000000000000000000000000000000000000000000000000000000000000c0"
                    }
                ],
                "rlp": "0xf902c3f9023aa0ae142bec050e19edfbbdb0584b5867cddf3ac7ea62892639dbc8d83778de28d8a01dcc4de8dec75d7aab85b567b6ccd41ad312451b948a7413f0a142fd40d49347942adc25665018aa1fe0e6bc666dac8fc2697ff9baa042da368973ad3e466d286aa6f4563c9db702bdf483db4f921d91b0605f078e32a04b9d73cde968a1e5f8567262614121b707c5b46253ce935f46bfc29384ed2e3fa097c6de02fb5872b46a6b6a83bb382684354622ce38b21cefe7c2bf0a658250c8b901000000000000000000000000000000000000000000000000000000000000000000000000000000000000000000000000000000000000000000000000000000000000000000000000000000000000000000000000000000000000000000000000000000000000000000000000000000000000000000000000000000000000000000000000000000000000000000000000000000000000000000000000000000000000000000000000000000000000000000000000000000000000000000000000000000000000000000000000000000000000000000000000000000000000000000000000000000000000000000000000000000000000000000000000000000000080018405f5e10082676f8203e800a000000000000000000000000000000000000000000000000000000000000200008800000000000000000aa056e81f171bcc55a6ff8345e692c0f86e5b48e01b996cadc001622fb5e363b4218080a00000000000000000000000000000000000000000000000000000000000000000f882f880800a83989680945be4b33890f720eff72be0019b122e0ff75cb9370aa000000000000000000000000000000000000000000000000000000000000001f425a0d9f9b5627ca90ac9f50c81f508fabfd4fbd7edf6d466b4a84fdafe019ccd0eefa015557be964b9626edd997043b6fa778edbbe70fa9554211523b9bdd60bf12f24c0c0",
                "blocknumber": "1"
            }
        ],
        "sealEngine": "NoProof",
        "_info": {
            "hash": "0x50a9e040b0b4385ae5942f05a1810d9b995a7f4d08328c7078e1f11c98888aac",
            "fixture-format": "blockchain_test",
            "comment": "`execution-specs` generated test",
            "filling-transition-tool": "2.19.0",
            "description": "Test_refund_call_to_suicide_storage.",
            "url": "https://github.com/ethereum/execution-specs/blob/tests-snobal-devnet-5@v8037.0.0/tests/ported_static/stRefundTest/test_refund_call_to_suicide_storage.py#L28",
            "metadata": {
                "opcode_count": {}
            }
        }
    },
    "tests/ported_static/stRefundTest/test_refund_call_to_suicide_storage.py::test_refund_call_to_suicide_storage[fork_Cancun-blockchain_test_from_state_test-d1]": {
        "network": "Cancun",
        "genesisBlockHeader": {
            "parentHash": "0x0000000000000000000000000000000000000000000000000000000000000000",
            "uncleHash": "0x1dcc4de8dec75d7aab85b567b6ccd41ad312451b948a7413f0a142fd40d49347",
            "coinbase": "0x0000000000000000000000000000000000000000",
            "stateRoot": "0xeb7921ac7a8484791c91def04e1360b2ed42724e150220ad9d8c76a042869a78",
            "transactionsTrie": "0x56e81f171bcc55a6ff8345e692c0f86e5b48e01b996cadc001622fb5e363b421",
            "receiptTrie": "0x56e81f171bcc55a6ff8345e692c0f86e5b48e01b996cadc001622fb5e363b421",
            "bloom": "0x00000000000000000000000000000000000000000000000000000000000000000000000000000000000000000000000000000000000000000000000000000000000000000000000000000000000000000000000000000000000000000000000000000000000000000000000000000000000000000000000000000000000000000000000000000000000000000000000000000000000000000000000000000000000000000000000000000000000000000000000000000000000000000000000000000000000000000000000000000000000000000000000000000000000000000000000000000000000000000000000000000000000000000000000000000000",
            "difficulty": "0x00",
            "number": "0x00",
            "gasLimit": "0x05f5e100",
            "gasUsed": "0x00",
            "timestamp": "0x00",
            "extraData": "0x00",
            "mixHash": "0x0000000000000000000000000000000000000000000000000000000000000000",
            "nonce": "0x0000000000000000",
            "baseFeePerGas": "0x0b",
            "withdrawalsRoot": "0x56e81f171bcc55a6ff8345e692c0f86e5b48e01b996cadc001622fb5e363b421",
            "blobGasUsed": "0x00",
            "excessBlobGas": "0x00",
            "parentBeaconBlockRoot": "0x0000000000000000000000000000000000000000000000000000000000000000",
            "hash": "0xae142bec050e19edfbbdb0584b5867cddf3ac7ea62892639dbc8d83778de28d8"
        },
        "pre": {
            "0x000f3df6d732807ef1319fb7b8bb8522d0beac02": {
                "nonce": "0x01",
                "balance": "0x00",
                "code": "0x3373fffffffffffffffffffffffffffffffffffffffe14604d57602036146024575f5ffd5b5f35801560495762001fff810690815414603c575f5ffd5b62001fff01545f5260205ff35b5f5ffd5b62001fff42064281555f359062001fff015500",
                "storage": {}
            },
            "0x10f01d60936d8d7ad4c34039faf4f8827f1a197b": {
                "nonce": "0x00",
                "balance": "0x02540be400",
                "code": "0x",
                "storage": {}
            },
            "0x5be4b33890f720eff72be0019b122e0ff75cb937": {
                "nonce": "0x00",
                "balance": "0x0de0b6b3a7640000",
                "code": "0x60006000600060006000739dea1ad5123f3d8b91cfc830b1c602597883e97c600035f160005500",
                "storage": {
                    "0x01": "0x01"
                }
            },
            "0x9dea1ad5123f3d8b91cfc830b1c602597883e97c": {
                "nonce": "0x00",
                "balance": "0x0de0b6b3a7640000",
                "code": "0x735be4b33890f720eff72be0019b122e0ff75cb937ff00",
                "storage": {
                    "0x01": "0x01"
                }
            }
        },
        "postState": {
            "0x000f3df6d732807ef1319fb7b8bb8522d0beac02": {
                "nonce": "0x01",
                "balance": "0x00",
                "code": "0x3373fffffffffffffffffffffffffffffffffffffffe14604d57602036146024575f5ffd5b5f35801560495762001fff810690815414603c575f5ffd5b62001fff01545f5260205ff35b5f5ffd5b62001fff42064281555f359062001fff015500",
                "storage": {
                    "0x03e8": "0x03e8"
                }
            },
            "0x10f01d60936d8d7ad4c34039faf4f8827f1a197b": {
                "nonce": "0x01",
                "balance": "0x02540420da",
                "code": "0x",
                "storage": {}
            },
            "0x5be4b33890f720eff72be0019b122e0ff75cb937": {
                "nonce": "0x00",
                "balance": "0x1bc16d674ec8000a",
                "code": "0x60006000600060006000739dea1ad5123f3d8b91cfc830b1c602597883e97c600035f160005500",
                "storage": {
                    "0x01": "0x01",
                    "0x00": "0x01"
                }
            },
            "0x9dea1ad5123f3d8b91cfc830b1c602597883e97c": {
                "nonce": "0x00",
                "balance": "0x00",
                "code": "0x735be4b33890f720eff72be0019b122e0ff75cb937ff00",
                "storage": {
                    "0x01": "0x01"
                }
            }
        },
        "lastblockhash": "0xb9a73411f0a8bb6da578b354794f6a5f1c5c979084250a4bf62b8a6612d7109f",
        "config": {
            "network": "Cancun",
            "chainid": "0x01",
            "blobSchedule": {
                "Cancun": {
                    "target": "0x03",
                    "max": "0x06",
                    "baseFeeUpdateFraction": "0x32f0ed"
                }
            }
        },
        "genesisRLP": "0xf9023cf90236a00000000000000000000000000000000000000000000000000000000000000000a01dcc4de8dec75d7aab85b567b6ccd41ad312451b948a7413f0a142fd40d49347940000000000000000000000000000000000000000a0eb7921ac7a8484791c91def04e1360b2ed42724e150220ad9d8c76a042869a78a056e81f171bcc55a6ff8345e692c0f86e5b48e01b996cadc001622fb5e363b421a056e81f171bcc55a6ff8345e692c0f86e5b48e01b996cadc001622fb5e363b421b901000000000000000000000000000000000000000000000000000000000000000000000000000000000000000000000000000000000000000000000000000000000000000000000000000000000000000000000000000000000000000000000000000000000000000000000000000000000000000000000000000000000000000000000000000000000000000000000000000000000000000000000000000000000000000000000000000000000000000000000000000000000000000000000000000000000000000000000000000000000000000000000000000000000000000000000000000000000000000000000000000000000000000000000000000000000080808405f5e100808000a000000000000000000000000000000000000000000000000000000000000000008800000000000000000ba056e81f171bcc55a6ff8345e692c0f86e5b48e01b996cadc001622fb5e363b4218080a00000000000000000000000000000000000000000000000000000000000000000c0c0c0",
        "blocks": [
            {
                "blockHeader": {
                    "parentHash": "0xae142bec050e19edfbbdb0584b5867cddf3ac7ea62892639dbc8d83778de28d8",
                    "uncleHash": "0x1dcc4de8dec75d7aab85b567b6ccd41ad312451b948a7413f0a142fd40d49347",
                    "coinbase": "0x2adc25665018aa1fe0e6bc666dac8fc2697ff9ba",
                    "stateRoot": "0xda8930481eca16b8094a8d07362bcae0a2507e3452f48769ffdc70cb740e9d74",
                    "transactionsTrie": "0x699111daa032987f8dd86e3c9c9e16525d12038c20bce5880a19cdbc22cf7906",
                    "receiptTrie": "0x1308bb235d16e8d6d7cd60b981eb70f9e87ef5ce00796ec0ecdd001807703a8f",
                    "bloom": "0x00000000000000000000000000000000000000000000000000000000000000000000000000000000000000000000000000000000000000000000000000000000000000000000000000000000000000000000000000000000000000000000000000000000000000000000000000000000000000000000000000000000000000000000000000000000000000000000000000000000000000000000000000000000000000000000000000000000000000000000000000000000000000000000000000000000000000000000000000000000000000000000000000000000000000000000000000000000000000000000000000000000000000000000000000000000",
                    "difficulty": "0x00",
                    "number": "0x01",
                    "gasLimit": "0x05f5e100",
                    "gasUsed": "0xc6b6",
                    "timestamp": "0x03e8",
                    "extraData": "0x00",
                    "mixHash": "0x0000000000000000000000000000000000000000000000000000000000020000",
                    "nonce": "0x0000000000000000",
                    "baseFeePerGas": "0x0a",
                    "withdrawalsRoot": "0x56e81f171bcc55a6ff8345e692c0f86e5b48e01b996cadc001622fb5e363b421",
                    "blobGasUsed": "0x00",
                    "excessBlobGas": "0x00",
                    "parentBeaconBlockRoot": "0x0000000000000000000000000000000000000000000000000000000000000000",
                    "hash": "0xb9a73411f0a8bb6da578b354794f6a5f1c5c979084250a4bf62b8a6612d7109f"
                },
                "transactions": [
                    {
                        "type": "0x00",
                        "chainId": "0x01",
                        "nonce": "0x00",
                        "gasPrice": "0x0a",
                        "gasLimit": "0x989680",
                        "to": "0x5be4b33890f720eff72be0019b122e0ff75cb937",
                        "value": "0x0a",
                        "data": "0x0000000000000000000000000000000000000000000000000000000000010000",
                        "v": "0x26",
                        "r": "0x6700883a497a0843797880613801f1a0d43647cea3016a451543b33c1e0fe360",
                        "s": "0x0ee57265f93da1f99cfd727bde4f53ca839cd764afc576fcdd57c3cba94b894d",
                        "sender": "0x10f01d60936d8d7ad4c34039faf4f8827f1a197b"
                    }
                ],
                "uncleHeaders": [],
                "withdrawals": [],
                "receipts": [
                    {
                        "transactionHash": "0x9f998c0e8ef3d27d9b5eedb4e2b509c042b1cee01190eb6db3f5e8eb915ca2a1",
                        "type": "0x00",
                        "cumulativeGasUsed": "0xc6b6",
                        "bloom": "0x00000000000000000000000000000000000000000000000000000000000000000000000000000000000000000000000000000000000000000000000000000000000000000000000000000000000000000000000000000000000000000000000000000000000000000000000000000000000000000000000000000000000000000000000000000000000000000000000000000000000000000000000000000000000000000000000000000000000000000000000000000000000000000000000000000000000000000000000000000000000000000000000000000000000000000000000000000000000000000000000000000000000000000000000000000000",
                        "logs": [],
                        "status": true,
                        "rlp": "0xf901080182c6b6b9010000000000000000000000000000000000000000000000000000000000000000000000000000000000000000000000000000000000000000000000000000000000000000000000000000000000000000000000000000000000000000000000000000000000000000000000000000000000000000000000000000000000000000000000000000000000000000000000000000000000000000000000000000000000000000000000000000000000000000000000000000000000000000000000000000000000000000000000000000000000000000000000000000000000000000000000000000000000000000000000000000000000000000000000000000000000c0"
                    }
                ],
                "rlp": "0xf902c3f9023aa0ae142bec050e19edfbbdb0584b5867cddf3ac7ea62892639dbc8d83778de28d8a01dcc4de8dec75d7aab85b567b6ccd41ad312451b948a7413f0a142fd40d49347942adc25665018aa1fe0e6bc666dac8fc2697ff9baa0da8930481eca16b8094a8d07362bcae0a2507e3452f48769ffdc70cb740e9d74a0699111daa032987f8dd86e3c9c9e16525d12038c20bce5880a19cdbc22cf7906a01308bb235d16e8d6d7cd60b981eb70f9e87ef5ce00796ec0ecdd001807703a8fb901000000000000000000000000000000000000000000000000000000000000000000000000000000000000000000000000000000000000000000000000000000000000000000000000000000000000000000000000000000000000000000000000000000000000000000000000000000000000000000000000000000000000000000000000000000000000000000000000000000000000000000000000000000000000000000000000000000000000000000000000000000000000000000000000000000000000000000000000000000000000000000000000000000000000000000000000000000000000000000000000000000000000000000000000000000000080018405f5e10082c6b68203e800a000000000000000000000000000000000000000000000000000000000000200008800000000000000000aa056e81f171bcc55a6ff8345e692c0f86e5b48e01b996cadc001622fb5e363b4218080a00000000000000000000000000000000000000000000000000000000000000000f882f880800a83989680945be4b33890f720eff72be0019b122e0ff75cb9370aa0000000000000000000000000000000000000000000000000000000000001000026a06700883a497a0843797880613801f1a0d43647cea3016a451543b33c1e0fe360a00ee57265f93da1f99cfd727bde4f53ca839cd764afc576fcdd57c3cba94b894dc0c0",
                "blocknumber": "1"
            }
        ],
        "sealEngine": "NoProof",
        "_info": {
            "hash": "0xda28fbcbce948da053b85e5ac5e41390c5cd8f838aeab83153818ff39dd4b9af",
            "fixture-format": "blockchain_test",
            "comment": "`execution-specs` generated test",
            "filling-transition-tool": "2.19.0",
            "description": "Test_refund_call_to_suicide_storage.",
            "url": "https://github.com/ethereum/execution-specs/blob/tests-snobal-devnet-5@v8037.0.0/tests/ported_static/stRefundTest/test_refund_call_to_suicide_storage.py#L28",
            "metadata": {
                "opcode_count": {}
            }
        }
    }
}