{
    "tests/ported_static/stStaticCall/test_static_call50000.py::test_static_call50000[fork_Cancun-blockchain_test_from_state_test-d0]": {
        "network": "Cancun",
        "genesisBlockHeader": {
            "parentHash": "0x0000000000000000000000000000000000000000000000000000000000000000",
            "uncleHash": "0x1dcc4de8dec75d7aab85b567b6ccd41ad312451b948a7413f0a142fd40d49347",
            "coinbase": "0x0000000000000000000000000000000000000000",
            "stateRoot": "0xec66bf1b7b5e99d9e62978657f48349a41ea45bb81c7c3054616d35a4b7d93b2",
            "transactionsTrie": "0x56e81f171bcc55a6ff8345e692c0f86e5b48e01b996cadc001622fb5e363b421",
            "receiptTrie": "0x56e81f171bcc55a6ff8345e692c0f86e5b48e01b996cadc001622fb5e363b421",
            "bloom": "0x00000000000000000000000000000000000000000000000000000000000000000000000000000000000000000000000000000000000000000000000000000000000000000000000000000000000000000000000000000000000000000000000000000000000000000000000000000000000000000000000000000000000000000000000000000000000000000000000000000000000000000000000000000000000000000000000000000000000000000000000000000000000000000000000000000000000000000000000000000000000000000000000000000000000000000000000000000000000000000000000000000000000000000000000000000000",
            "difficulty": "0x00",
            "number": "0x00",
            "gasLimit": "0x174876e800",
            "gasUsed": "0x00",
            "timestamp": "0x00",
            "extraData": "0x00",
            "mixHash": "0x0000000000000000000000000000000000000000000000000000000000000000",
            "nonce": "0x0000000000000000",
            "baseFeePerGas": "0x0b",
            "withdrawalsRoot": "0x56e81f171bcc55a6ff8345e692c0f86e5b48e01b996cadc001622fb5e363b421",
            "blobGasUsed": "0x00",
            "excessBlobGas": "0x00",
            "parentBeaconBlockRoot": "0x0000000000000000000000000000000000000000000000000000000000000000",
            "hash": "0x18273f504580bcc81805250f128a85c46c6b7cbb2e8e44dcc5c4082f18aff676"
        },
        "pre": {
            "0x000f3df6d732807ef1319fb7b8bb8522d0beac02": {
                "nonce": "0x01",
                "balance": "0x00",
                "code": "0x3373fffffffffffffffffffffffffffffffffffffffe14604d57602036146024575f5ffd5b5f35801560495762001fff810690815414603c575f5ffd5b62001fff01545f5260205ff35b5f5ffd5b62001fff42064281555f359062001fff015500",
                "storage": {}
            },
            "0x2c854741c819493b3a940ebc70c2ced66e29473d": {
                "nonce": "0x00",
                "balance": "0xffffffffffffffffffffffffffffffff",
                "code": "0x",
                "storage": {}
            },
            "0x6d440cd3e818056e21914c856e3712f4186b06c8": {
                "nonce": "0x00",
                "balance": "0x1b58",
                "code": "0x60005460005200",
                "storage": {
                    "0x00": "0x01"
                }
            },
            "0x7efd7e4e34d1783f5d86b7862a37b3bbbd13deb8": {
                "nonce": "0x00",
                "balance": "0x1b58",
                "code": "0x60005460005500",
                "storage": {
                    "0x00": "0x01"
                }
            },
            "0xc0e4183389eb57f779a986d8c878f89b9401dc8e": {
                "nonce": "0x00",
                "balance": "0x00",
                "code": "0x6000600060006000346000355af1600055600160015500",
                "storage": {}
            },
            "0xb00a8701f877b1152cd955e957fcbaf51a15f55f": {
                "nonce": "0x00",
                "balance": "0x0fffffffffffff",
                "code": "0x5b61c3506080511015603e576000600061c3506000736d440cd3e818056e21914c856e3712f4186b06c8620186a0fa6000556001608051016080526000565b60805160205500",
                "storage": {}
            },
            "0x2e396fd4f6f2799d61f534b43175f5344c65ecac": {
                "nonce": "0x00",
                "balance": "0x0fffffffffffff",
                "code": "0x5b61c3506080511015603e576000600061c3506000737efd7e4e34d1783f5d86b7862a37b3bbbd13deb8620186a0fa6000556001608051016080526000565b60805160015500",
                "storage": {}
            }
        },
        "postState": {
            "0x000f3df6d732807ef1319fb7b8bb8522d0beac02": {
                "nonce": "0x01",
                "balance": "0x00",
                "code": "0x3373fffffffffffffffffffffffffffffffffffffffe14604d57602036146024575f5ffd5b5f35801560495762001fff810690815414603c575f5ffd5b62001fff01545f5260205ff35b5f5ffd5b62001fff42064281555f359062001fff015500",
                "storage": {
                    "0x03e8": "0x03e8"
                }
            },
            "0x2c854741c819493b3a940ebc70c2ced66e29473d": {
                "nonce": "0x01",
                "balance": "0xfffffffffffffffffffffff45362fe51",
                "code": "0x",
                "storage": {}
            },
            "0x6d440cd3e818056e21914c856e3712f4186b06c8": {
                "nonce": "0x00",
                "balance": "0x1b58",
                "code": "0x60005460005200",
                "storage": {
                    "0x00": "0x01"
                }
            },
            "0x7efd7e4e34d1783f5d86b7862a37b3bbbd13deb8": {
                "nonce": "0x00",
                "balance": "0x1b58",
                "code": "0x60005460005500",
                "storage": {
                    "0x00": "0x01"
                }
            },
            "0xc0e4183389eb57f779a986d8c878f89b9401dc8e": {
                "nonce": "0x00",
                "balance": "0x00",
                "code": "0x6000600060006000346000355af1600055600160015500",
                "storage": {
                    "0x00": "0x01",
                    "0x01": "0x01"
                }
            },
            "0xb00a8701f877b1152cd955e957fcbaf51a15f55f": {
                "nonce": "0x00",
                "balance": "0x0fffffffffffff",
                "code": "0x5b61c3506080511015603e576000600061c3506000736d440cd3e818056e21914c856e3712f4186b06c8620186a0fa6000556001608051016080526000565b60805160205500",
                "storage": {}
            },
            "0x2e396fd4f6f2799d61f534b43175f5344c65ecac": {
                "nonce": "0x00",
                "balance": "0x10000000000009",
                "code": "0x5b61c3506080511015603e576000600061c3506000737efd7e4e34d1783f5d86b7862a37b3bbbd13deb8620186a0fa6000556001608051016080526000565b60805160015500",
                "storage": {
                    "0x01": "0xc350"
                }
            }
        },
        "lastblockhash": "0x0975df3f1bae210eeca6b4c37c35f67300b8d42ca16159c082c02c84619cf369",
        "config": {
            "network": "Cancun",
            "chainid": "0x01",
            "blobSchedule": {
                "Cancun": {
                    "target": "0x03",
                    "max": "0x06",
                    "baseFeeUpdateFraction": "0x32f0ed"
                }
            }
        },
        "genesisRLP": "0xf9023df90237a00000000000000000000000000000000000000000000000000000000000000000a01dcc4de8dec75d7aab85b567b6ccd41ad312451b948a7413f0a142fd40d49347940000000000000000000000000000000000000000a0ec66bf1b7b5e99d9e62978657f48349a41ea45bb81c7c3054616d35a4b7d93b2a056e81f171bcc55a6ff8345e692c0f86e5b48e01b996cadc001622fb5e363b421a056e81f171bcc55a6ff8345e692c0f86e5b48e01b996cadc001622fb5e363b421b9010000000000000000000000000000000000000000000000000000000000000000000000000000000000000000000000000000000000000000000000000000000000000000000000000000000000000000000000000000000000000000000000000000000000000000000000000000000000000000000000000000000000000000000000000000000000000000000000000000000000000000000000000000000000000000000000000000000000000000000000000000000000000000000000000000000000000000000000000000000000000000000000000000000000000000000000000000000000000000000000000000000000000000000000000000000000808085174876e800808000a000000000000000000000000000000000000000000000000000000000000000008800000000000000000ba056e81f171bcc55a6ff8345e692c0f86e5b48e01b996cadc001622fb5e363b4218080a00000000000000000000000000000000000000000000000000000000000000000c0c0c0",
        "blocks": [
            {
                "blockHeader": {
                    "parentHash": "0x18273f504580bcc81805250f128a85c46c6b7cbb2e8e44dcc5c4082f18aff676",
                    "uncleHash": "0x1dcc4de8dec75d7aab85b567b6ccd41ad312451b948a7413f0a142fd40d49347",
                    "coinbase": "0xb94f5374fce5edbc8e2a8697c15331677e6ebf0b",
                    "stateRoot": "0x8ff2fe27fd3747b33c5ba0d63b81a8bbb1043e37eda1eb8e70f30aa0ec9f6136",
                    "transactionsTrie": "0x242e98f3de1f491d524b67db5591aa3e1c616aa10b1a7f63f31405ec146ba837",
                    "receiptTrie": "0xe33a37ea76406f31ea1fcb19d6322d2ed6f62380dbc2d4b9d9f1be4162eb9f77",
                    "bloom": "0x00000000000000000000000000000000000000000000000000000000000000000000000000000000000000000000000000000000000000000000000000000000000000000000000000000000000000000000000000000000000000000000000000000000000000000000000000000000000000000000000000000000000000000000000000000000000000000000000000000000000000000000000000000000000000000000000000000000000000000000000000000000000000000000000000000000000000000000000000000000000000000000000000000000000000000000000000000000000000000000000000000000000000000000000000000000",
                    "difficulty": "0x00",
                    "number": "0x01",
                    "gasLimit": "0x174876e800",
                    "gasUsed": "0x012adc802a",
                    "timestamp": "0x03e8",
                    "extraData": "0x00",
                    "mixHash": "0x0000000000000000000000000000000000000000000000000000000000020000",
                    "nonce": "0x0000000000000000",
                    "baseFeePerGas": "0x0a",
                    "withdrawalsRoot": "0x56e81f171bcc55a6ff8345e692c0f86e5b48e01b996cadc001622fb5e363b421",
                    "blobGasUsed": "0x00",
                    "excessBlobGas": "0x00",
                    "parentBeaconBlockRoot": "0x0000000000000000000000000000000000000000000000000000000000000000",
                    "hash": "0x0975df3f1bae210eeca6b4c37c35f67300b8d42ca16159c082c02c84619cf369"
                },
                "transactions": [
                    {
                        "type": "0x00",
                        "chainId": "0x01",
                        "nonce": "0x00",
                        "gasPrice": "0x0a",
                        "gasLimit": "0x14f46b0400",
                        "to": "0xc0e4183389eb57f779a986d8c878f89b9401dc8e",
                        "value": "0x0a",
                        "data": "0x0000000000000000000000002e396fd4f6f2799d61f534b43175f5344c65ecac",
                        "v": "0x25",
                        "r": "0x91c50900995a76600dde2dcb2d6d4b09cf932ca0813c82eae2efb1b4039ac286",
                        "s": "0x380c6e52efd6cc07362bb30d34ced70cc5be4f7071f4390090a36e2faa95a46d",
                        "sender": "0x2c854741c819493b3a940ebc70c2ced66e29473d"
                    }
                ],
                "uncleHeaders": [],
                "withdrawals": [],
                "receipts": [
                    {
                        "transactionHash": "0x7e6a904e42857b8baa410b89555062c083507157a6028b30b7dfb768d113d5b7",
                        "type": "0x00",
                        "cumulativeGasUsed": "0x012adc802a",
                        "bloom": "0x00000000000000000000000000000000000000000000000000000000000000000000000000000000000000000000000000000000000000000000000000000000000000000000000000000000000000000000000000000000000000000000000000000000000000000000000000000000000000000000000000000000000000000000000000000000000000000000000000000000000000000000000000000000000000000000000000000000000000000000000000000000000000000000000000000000000000000000000000000000000000000000000000000000000000000000000000000000000000000000000000000000000000000000000000000000",
                        "logs": [],
                        "status": true,
                        "rlp": "0xf9010b0185012adc802ab9010000000000000000000000000000000000000000000000000000000000000000000000000000000000000000000000000000000000000000000000000000000000000000000000000000000000000000000000000000000000000000000000000000000000000000000000000000000000000000000000000000000000000000000000000000000000000000000000000000000000000000000000000000000000000000000000000000000000000000000000000000000000000000000000000000000000000000000000000000000000000000000000000000000000000000000000000000000000000000000000000000000000000000000000000000000000c0"
                    }
                ],
                "rlp": "0xf902c9f9023ea018273f504580bcc81805250f128a85c46c6b7cbb2e8e44dcc5c4082f18aff676a01dcc4de8dec75d7aab85b567b6ccd41ad312451b948a7413f0a142fd40d4934794b94f5374fce5edbc8e2a8697c15331677e6ebf0ba08ff2fe27fd3747b33c5ba0d63b81a8bbb1043e37eda1eb8e70f30aa0ec9f6136a0242e98f3de1f491d524b67db5591aa3e1c616aa10b1a7f63f31405ec146ba837a0e33a37ea76406f31ea1fcb19d6322d2ed6f62380dbc2d4b9d9f1be4162eb9f77b9010000000000000000000000000000000000000000000000000000000000000000000000000000000000000000000000000000000000000000000000000000000000000000000000000000000000000000000000000000000000000000000000000000000000000000000000000000000000000000000000000000000000000000000000000000000000000000000000000000000000000000000000000000000000000000000000000000000000000000000000000000000000000000000000000000000000000000000000000000000000000000000000000000000000000000000000000000000000000000000000000000000000000000000000000000000000800185174876e80085012adc802a8203e800a000000000000000000000000000000000000000000000000000000000000200008800000000000000000aa056e81f171bcc55a6ff8345e692c0f86e5b48e01b996cadc001622fb5e363b4218080a00000000000000000000000000000000000000000000000000000000000000000f884f882800a8514f46b040094c0e4183389eb57f779a986d8c878f89b9401dc8e0aa00000000000000000000000002e396fd4f6f2799d61f534b43175f5344c65ecac25a091c50900995a76600dde2dcb2d6d4b09cf932ca0813c82eae2efb1b4039ac286a0380c6e52efd6cc07362bb30d34ced70cc5be4f7071f4390090a36e2faa95a46dc0c0",
                "blocknumber": "1"
            }
        ],
        "sealEngine": "NoProof",
        "_info": {
            "hash": "0xedfea70f93a306b591db7d038547d02997cee20b0cd4f84bf55967787f40681f",
            "fixture-format": "blockchain_test",
            "comment": "`execution-specs` generated test",
            "filling-transition-tool": "2.19.0",
            "description": "Test_static_call50000.",
            "url": "https://github.com/ethereum/execution-specs/blob/tests-snobal-devnet-5@v8037.0.0/tests/ported_static/stStaticCall/test_static_call50000.py#L28",
            "metadata": {
                "opcode_count": {}
            }
        }
    },
    "tests/ported_static/stStaticCall/test_static_call50000.py::test_static_call50000[fork_Cancun-blockchain_test_from_state_test-d1]": {
        "network": "Cancun",
        "genesisBlockHeader": {
            "parentHash": "0x0000000000000000000000000000000000000000000000000000000000000000",
            "uncleHash": "0x1dcc4de8dec75d7aab85b567b6ccd41ad312451b948a7413f0a142fd40d49347",
            "coinbase": "0x0000000000000000000000000000000000000000",
            "stateRoot": "0xec66bf1b7b5e99d9e62978657f48349a41ea45bb81c7c3054616d35a4b7d93b2",
            "transactionsTrie": "0x56e81f171bcc55a6ff8345e692c0f86e5b48e01b996cadc001622fb5e363b421",
            "receiptTrie": "0x56e81f171bcc55a6ff8345e692c0f86e5b48e01b996cadc001622fb5e363b421",
            "bloom": "0x00000000000000000000000000000000000000000000000000000000000000000000000000000000000000000000000000000000000000000000000000000000000000000000000000000000000000000000000000000000000000000000000000000000000000000000000000000000000000000000000000000000000000000000000000000000000000000000000000000000000000000000000000000000000000000000000000000000000000000000000000000000000000000000000000000000000000000000000000000000000000000000000000000000000000000000000000000000000000000000000000000000000000000000000000000000",
            "difficulty": "0x00",
            "number": "0x00",
            "gasLimit": "0x174876e800",
            "gasUsed": "0x00",
            "timestamp": "0x00",
            "extraData": "0x00",
            "mixHash": "0x0000000000000000000000000000000000000000000000000000000000000000",
            "nonce": "0x0000000000000000",
            "baseFeePerGas": "0x0b",
            "withdrawalsRoot": "0x56e81f171bcc55a6ff8345e692c0f86e5b48e01b996cadc001622fb5e363b421",
            "blobGasUsed": "0x00",
            "excessBlobGas": "0x00",
            "parentBeaconBlockRoot": "0x0000000000000000000000000000000000000000000000000000000000000000",
            "hash": "0x18273f504580bcc81805250f128a85c46c6b7cbb2e8e44dcc5c4082f18aff676"
        },
        "pre": {
            "0x000f3df6d732807ef1319fb7b8bb8522d0beac02": {
                "nonce": "0x01",
                "balance": "0x00",
                "code": "0x3373fffffffffffffffffffffffffffffffffffffffe14604d57602036146024575f5ffd5b5f35801560495762001fff810690815414603c575f5ffd5b62001fff01545f5260205ff35b5f5ffd5b62001fff42064281555f359062001fff015500",
                "storage": {}
            },
            "0x2c854741c819493b3a940ebc70c2ced66e29473d": {
                "nonce": "0x00",
                "balance": "0xffffffffffffffffffffffffffffffff",
                "code": "0x",
                "storage": {}
            },
            "0x6d440cd3e818056e21914c856e3712f4186b06c8": {
                "nonce": "0x00",
                "balance": "0x1b58",
                "code": "0x60005460005200",
                "storage": {
                    "0x00": "0x01"
                }
            },
            "0x7efd7e4e34d1783f5d86b7862a37b3bbbd13deb8": {
                "nonce": "0x00",
                "balance": "0x1b58",
                "code": "0x60005460005500",
                "storage": {
                    "0x00": "0x01"
                }
            },
            "0xc0e4183389eb57f779a986d8c878f89b9401dc8e": {
                "nonce": "0x00",
                "balance": "0x00",
                "code": "0x6000600060006000346000355af1600055600160015500",
                "storage": {}
            },
            "0xb00a8701f877b1152cd955e957fcbaf51a15f55f": {
                "nonce": "0x00",
                "balance": "0x0fffffffffffff",
                "code": "0x5b61c3506080511015603e576000600061c3506000736d440cd3e818056e21914c856e3712f4186b06c8620186a0fa6000556001608051016080526000565b60805160205500",
                "storage": {}
            },
            "0x2e396fd4f6f2799d61f534b43175f5344c65ecac": {
                "nonce": "0x00",
                "balance": "0x0fffffffffffff",
                "code": "0x5b61c3506080511015603e576000600061c3506000737efd7e4e34d1783f5d86b7862a37b3bbbd13deb8620186a0fa6000556001608051016080526000565b60805160015500",
                "storage": {}
            }
        },
        "postState": {
            "0x000f3df6d732807ef1319fb7b8bb8522d0beac02": {
                "nonce": "0x01",
                "balance": "0x00",
                "code": "0x3373fffffffffffffffffffffffffffffffffffffffe14604d57602036146024575f5ffd5b5f35801560495762001fff810690815414603c575f5ffd5b62001fff01545f5260205ff35b5f5ffd5b62001fff42064281555f359062001fff015500",
                "storage": {
                    "0x03e8": "0x03e8"
                }
            },
            "0x2c854741c819493b3a940ebc70c2ced66e29473d": {
                "nonce": "0x01",
                "balance": "0xfffffffffffffffffffffffff4449cd9",
                "code": "0x",
                "storage": {}
            },
            "0x6d440cd3e818056e21914c856e3712f4186b06c8": {
                "nonce": "0x00",
                "balance": "0x1b58",
                "code": "0x60005460005200",
                "storage": {
                    "0x00": "0x01"
                }
            },
            "0x7efd7e4e34d1783f5d86b7862a37b3bbbd13deb8": {
                "nonce": "0x00",
                "balance": "0x1b58",
                "code": "0x60005460005500",
                "storage": {
                    "0x00": "0x01"
                }
            },
            "0xc0e4183389eb57f779a986d8c878f89b9401dc8e": {
                "nonce": "0x00",
                "balance": "0x00",
                "code": "0x6000600060006000346000355af1600055600160015500",
                "storage": {
                    "0x00": "0x01",
                    "0x01": "0x01"
                }
            },
            "0xb00a8701f877b1152cd955e957fcbaf51a15f55f": {
                "nonce": "0x00",
                "balance": "0x10000000000009",
                "code": "0x5b61c3506080511015603e576000600061c3506000736d440cd3e818056e21914c856e3712f4186b06c8620186a0fa6000556001608051016080526000565b60805160205500",
                "storage": {
                    "0x00": "0x01",
                    "0x20": "0xc350"
                }
            },
            "0x2e396fd4f6f2799d61f534b43175f5344c65ecac": {
                "nonce": "0x00",
                "balance": "0x0fffffffffffff",
                "code": "0x5b61c3506080511015603e576000600061c3506000737efd7e4e34d1783f5d86b7862a37b3bbbd13deb8620186a0fa6000556001608051016080526000565b60805160015500",
                "storage": {}
            }
        },
        "lastblockhash": "0xfcd3f58b430da415251d2090ac3150460e912dd95a2225f9be70bb7a0ef6d56b",
        "config": {
            "network": "Cancun",
            "chainid": "0x01",
            "blobSchedule": {
                "Cancun": {
                    "target": "0x03",
                    "max": "0x06",
                    "baseFeeUpdateFraction": "0x32f0ed"
                }
            }
        },
        "genesisRLP": "0xf9023df90237a00000000000000000000000000000000000000000000000000000000000000000a01dcc4de8dec75d7aab85b567b6ccd41ad312451b948a7413f0a142fd40d49347940000000000000000000000000000000000000000a0ec66bf1b7b5e99d9e62978657f48349a41ea45bb81c7c3054616d35a4b7d93b2a056e81f171bcc55a6ff8345e692c0f86e5b48e01b996cadc001622fb5e363b421a056e81f171bcc55a6ff8345e692c0f86e5b48e01b996cadc001622fb5e363b421b9010000000000000000000000000000000000000000000000000000000000000000000000000000000000000000000000000000000000000000000000000000000000000000000000000000000000000000000000000000000000000000000000000000000000000000000000000000000000000000000000000000000000000000000000000000000000000000000000000000000000000000000000000000000000000000000000000000000000000000000000000000000000000000000000000000000000000000000000000000000000000000000000000000000000000000000000000000000000000000000000000000000000000000000000000000000000808085174876e800808000a000000000000000000000000000000000000000000000000000000000000000008800000000000000000ba056e81f171bcc55a6ff8345e692c0f86e5b48e01b996cadc001622fb5e363b4218080a00000000000000000000000000000000000000000000000000000000000000000c0c0c0",
        "blocks": [
            {
                "blockHeader": {
                    "parentHash": "0x18273f504580bcc81805250f128a85c46c6b7cbb2e8e44dcc5c4082f18aff676",
                    "uncleHash": "0x1dcc4de8dec75d7aab85b567b6ccd41ad312451b948a7413f0a142fd40d49347",
                    "coinbase": "0xb94f5374fce5edbc8e2a8697c15331677e6ebf0b",
                    "stateRoot": "0xc525afc951b82456dbdc787d38439dce3bbbf82b0612944d39c672e16c0e5788",
                    "transactionsTrie": "0x3ecd822fd6e03e3981d1c776cdb408b56ece36aea798c488f6f05492388b47cf",
                    "receiptTrie": "0xd5f372a849aaa977a2974f3e0a579610c03d8c576736c8393267854de3973674",
                    "bloom": "0x00000000000000000000000000000000000000000000000000000000000000000000000000000000000000000000000000000000000000000000000000000000000000000000000000000000000000000000000000000000000000000000000000000000000000000000000000000000000000000000000000000000000000000000000000000000000000000000000000000000000000000000000000000000000000000000000000000000000000000000000000000000000000000000000000000000000000000000000000000000000000000000000000000000000000000000000000000000000000000000000000000000000000000000000000000000",
                    "difficulty": "0x00",
                    "number": "0x01",
                    "gasLimit": "0x174876e800",
                    "gasUsed": "0x012c56b6",
                    "timestamp": "0x03e8",
                    "extraData": "0x00",
                    "mixHash": "0x0000000000000000000000000000000000000000000000000000000000020000",
                    "nonce": "0x0000000000000000",
                    "baseFeePerGas": "0x0a",
                    "withdrawalsRoot": "0x56e81f171bcc55a6ff8345e692c0f86e5b48e01b996cadc001622fb5e363b421",
                    "blobGasUsed": "0x00",
                    "excessBlobGas": "0x00",
                    "parentBeaconBlockRoot": "0x0000000000000000000000000000000000000000000000000000000000000000",
                    "hash": "0xfcd3f58b430da415251d2090ac3150460e912dd95a2225f9be70bb7a0ef6d56b"
                },
                "transactions": [
                    {
                        "type": "0x00",
                        "chainId": "0x01",
                        "nonce": "0x00",
                        "gasPrice": "0x0a",
                        "gasLimit": "0x14f46b0400",
                        "to": "0xc0e4183389eb57f779a986d8c878f89b9401dc8e",
                        "value": "0x0a",
                        "data": "0x000000000000000000000000b00a8701f877b1152cd955e957fcbaf51a15f55f",
                        "v": "0x26",
                        "r": "0x25c3e611804c0c35f81ac233e7a7478774c80ff3ef3bdcdaf93b1733e019b72f",
                        "s": "0x01ac3b4b64e2df331e19902f28e60de9ce17c6f6e75adb5f00534f49df274ab2",
                        "sender": "0x2c854741c819493b3a940ebc70c2ced66e29473d"
                    }
                ],
                "uncleHeaders": [],
                "withdrawals": [],
                "receipts": [
                    {
                        "transactionHash": "0xde879af4f275a57a49bafdac0165d758739ddf2a5e069e2ade1d6218237e2832",
                        "type": "0x00",
                        "cumulativeGasUsed": "0x012c56b6",
                        "bloom": "0x00000000000000000000000000000000000000000000000000000000000000000000000000000000000000000000000000000000000000000000000000000000000000000000000000000000000000000000000000000000000000000000000000000000000000000000000000000000000000000000000000000000000000000000000000000000000000000000000000000000000000000000000000000000000000000000000000000000000000000000000000000000000000000000000000000000000000000000000000000000000000000000000000000000000000000000000000000000000000000000000000000000000000000000000000000000",
                        "logs": [],
                        "status": true,
                        "rlp": "0xf9010a0184012c56b6b9010000000000000000000000000000000000000000000000000000000000000000000000000000000000000000000000000000000000000000000000000000000000000000000000000000000000000000000000000000000000000000000000000000000000000000000000000000000000000000000000000000000000000000000000000000000000000000000000000000000000000000000000000000000000000000000000000000000000000000000000000000000000000000000000000000000000000000000000000000000000000000000000000000000000000000000000000000000000000000000000000000000000000000000000000000000000c0"
                    }
                ],
                "rlp": "0xf902c8f9023da018273f504580bcc81805250f128a85c46c6b7cbb2e8e44dcc5c4082f18aff676a01dcc4de8dec75d7aab85b567b6ccd41ad312451b948a7413f0a142fd40d4934794b94f5374fce5edbc8e2a8697c15331677e6ebf0ba0c525afc951b82456dbdc787d38439dce3bbbf82b0612944d39c672e16c0e5788a03ecd822fd6e03e3981d1c776cdb408b56ece36aea798c488f6f05492388b47cfa0d5f372a849aaa977a2974f3e0a579610c03d8c576736c8393267854de3973674b9010000000000000000000000000000000000000000000000000000000000000000000000000000000000000000000000000000000000000000000000000000000000000000000000000000000000000000000000000000000000000000000000000000000000000000000000000000000000000000000000000000000000000000000000000000000000000000000000000000000000000000000000000000000000000000000000000000000000000000000000000000000000000000000000000000000000000000000000000000000000000000000000000000000000000000000000000000000000000000000000000000000000000000000000000000000000800185174876e80084012c56b68203e800a000000000000000000000000000000000000000000000000000000000000200008800000000000000000aa056e81f171bcc55a6ff8345e692c0f86e5b48e01b996cadc001622fb5e363b4218080a00000000000000000000000000000000000000000000000000000000000000000f884f882800a8514f46b040094c0e4183389eb57f779a986d8c878f89b9401dc8e0aa0000000000000000000000000b00a8701f877b1152cd955e957fcbaf51a15f55f26a025c3e611804c0c35f81ac233e7a7478774c80ff3ef3bdcdaf93b1733e019b72fa001ac3b4b64e2df331e19902f28e60de9ce17c6f6e75adb5f00534f49df274ab2c0c0",
                "blocknumber": "1"
            }
        ],
        "sealEngine": "NoProof",
        "_info": {
            "hash": "0xf5d3e79a9890427c5d619cd3ab3a8ceb73e28fff27cd2f41e8607ef2ce7e8c43",
            "fixture-format": "blockchain_test",
            "comment": "`execution-specs` generated test",
            "filling-transition-tool": "2.19.0",
            "description": "Test_static_call50000.",
            "url": "https://github.com/ethereum/execution-specs/blob/tests-snobal-devnet-5@v8037.0.0/tests/ported_static/stStaticCall/test_static_call50000.py#L28",
            "metadata": {
                "opcode_count": {}
            }
        }
    }
}