{
    "tests/ported_static/stStaticCall/test_static_callcallcodecallcode_011_oogm_after.py::test_static_callcallcodecallcode_011_oogm_after[fork_Cancun-blockchain_test_from_state_test-d0]": {
        "network": "Cancun",
        "genesisBlockHeader": {
            "parentHash": "0x0000000000000000000000000000000000000000000000000000000000000000",
            "uncleHash": "0x1dcc4de8dec75d7aab85b567b6ccd41ad312451b948a7413f0a142fd40d49347",
            "coinbase": "0x0000000000000000000000000000000000000000",
            "stateRoot": "0x6f0ad83ff278e3aba3478dbad5ecc7526f1c549c1fec84d2c82df39629bab93c",
            "transactionsTrie": "0x56e81f171bcc55a6ff8345e692c0f86e5b48e01b996cadc001622fb5e363b421",
            "receiptTrie": "0x56e81f171bcc55a6ff8345e692c0f86e5b48e01b996cadc001622fb5e363b421",
            "bloom": "0x00000000000000000000000000000000000000000000000000000000000000000000000000000000000000000000000000000000000000000000000000000000000000000000000000000000000000000000000000000000000000000000000000000000000000000000000000000000000000000000000000000000000000000000000000000000000000000000000000000000000000000000000000000000000000000000000000000000000000000000000000000000000000000000000000000000000000000000000000000000000000000000000000000000000000000000000000000000000000000000000000000000000000000000000000000000",
            "difficulty": "0x00",
            "number": "0x00",
            "gasLimit": "0x01c9c380",
            "gasUsed": "0x00",
            "timestamp": "0x00",
            "extraData": "0x00",
            "mixHash": "0x0000000000000000000000000000000000000000000000000000000000000000",
            "nonce": "0x0000000000000000",
            "baseFeePerGas": "0x0b",
            "withdrawalsRoot": "0x56e81f171bcc55a6ff8345e692c0f86e5b48e01b996cadc001622fb5e363b421",
            "blobGasUsed": "0x00",
            "excessBlobGas": "0x00",
            "parentBeaconBlockRoot": "0x0000000000000000000000000000000000000000000000000000000000000000",
            "hash": "0x79e43d0cda1c75e798e7df5afd0d5098e28ebe52a96b4fecfc94d98a16df1ffb"
        },
        "pre": {
            "0x000f3df6d732807ef1319fb7b8bb8522d0beac02": {
                "nonce": "0x01",
                "balance": "0x00",
                "code": "0x3373fffffffffffffffffffffffffffffffffffffffe14604d57602036146024575f5ffd5b5f35801560495762001fff810690815414603c575f5ffd5b62001fff01545f5260205ff35b5f5ffd5b62001fff42064281555f359062001fff015500",
                "storage": {}
            },
            "0xb4d115b5309a03febd836abb6456bce43cec037b": {
                "nonce": "0x00",
                "balance": "0x0de0b6b3a7640000",
                "code": "0x604060006040600060003561eaecfa600055600160015500",
                "storage": {}
            },
            "0x476564431e8a9c2c934ef7712a1182eebb46b872": {
                "nonce": "0x00",
                "balance": "0x00",
                "code": "0x6001600152604060006040600073fecf0806036b619896da47f661dfce85c0107e9d619c90f450600160035500",
                "storage": {}
            },
            "0xd678d9a03433a246d441a9a225553d3e4e760c5f": {
                "nonce": "0x00",
                "balance": "0x00",
                "code": "0x6001600152604060006040600073fecf0806036b619896da47f661dfce85c0107e9d619c90f4505b61c350608051101560435760013b506001608051016080526027565b00",
                "storage": {}
            },
            "0xfecf0806036b619896da47f661dfce85c0107e9d": {
                "nonce": "0x00",
                "balance": "0x00",
                "code": "0x6001600152604060006040600073335c5531b84765a7626e6e76688f18b81be5259c614e34f450600160015200",
                "storage": {}
            },
            "0x335c5531b84765a7626e6e76688f18b81be5259c": {
                "nonce": "0x00",
                "balance": "0x00",
                "code": "0x600160035200",
                "storage": {}
            },
            "0xebaf50debf10e08302fe4280c32df010463ca297": {
                "nonce": "0x00",
                "balance": "0x0de0b6b3a7640000",
                "code": "0x",
                "storage": {}
            }
        },
        "postState": {
            "0x000f3df6d732807ef1319fb7b8bb8522d0beac02": {
                "nonce": "0x01",
                "balance": "0x00",
                "code": "0x3373fffffffffffffffffffffffffffffffffffffffe14604d57602036146024575f5ffd5b5f35801560495762001fff810690815414603c575f5ffd5b62001fff01545f5260205ff35b5f5ffd5b62001fff42064281555f359062001fff015500",
                "storage": {
                    "0x03e8": "0x03e8"
                }
            },
            "0xb4d115b5309a03febd836abb6456bce43cec037b": {
                "nonce": "0x00",
                "balance": "0x0de0b6b3a7640000",
                "code": "0x604060006040600060003561eaecfa600055600160015500",
                "storage": {
                    "0x01": "0x01"
                }
            },
            "0x476564431e8a9c2c934ef7712a1182eebb46b872": {
                "nonce": "0x00",
                "balance": "0x00",
                "code": "0x6001600152604060006040600073fecf0806036b619896da47f661dfce85c0107e9d619c90f450600160035500",
                "storage": {}
            },
            "0xd678d9a03433a246d441a9a225553d3e4e760c5f": {
                "nonce": "0x00",
                "balance": "0x00",
                "code": "0x6001600152604060006040600073fecf0806036b619896da47f661dfce85c0107e9d619c90f4505b61c350608051101560435760013b506001608051016080526027565b00",
                "storage": {}
            },
            "0xfecf0806036b619896da47f661dfce85c0107e9d": {
                "nonce": "0x00",
                "balance": "0x00",
                "code": "0x6001600152604060006040600073335c5531b84765a7626e6e76688f18b81be5259c614e34f450600160015200",
                "storage": {}
            },
            "0x335c5531b84765a7626e6e76688f18b81be5259c": {
                "nonce": "0x00",
                "balance": "0x00",
                "code": "0x600160035200",
                "storage": {}
            },
            "0xebaf50debf10e08302fe4280c32df010463ca297": {
                "nonce": "0x01",
                "balance": "0x0de0b6b3a75373e8",
                "code": "0x",
                "storage": {}
            }
        },
        "lastblockhash": "0x00c38cb457181581425c605d095aeebbe61f0993e4f96a0b6a7fee64ddc48c21",
        "config": {
            "network": "Cancun",
            "chainid": "0x01",
            "blobSchedule": {
                "Cancun": {
                    "target": "0x03",
                    "max": "0x06",
                    "baseFeeUpdateFraction": "0x32f0ed"
                }
            }
        },
        "genesisRLP": "0xf9023cf90236a00000000000000000000000000000000000000000000000000000000000000000a01dcc4de8dec75d7aab85b567b6ccd41ad312451b948a7413f0a142fd40d49347940000000000000000000000000000000000000000a06f0ad83ff278e3aba3478dbad5ecc7526f1c549c1fec84d2c82df39629bab93ca056e81f171bcc55a6ff8345e692c0f86e5b48e01b996cadc001622fb5e363b421a056e81f171bcc55a6ff8345e692c0f86e5b48e01b996cadc001622fb5e363b421b901000000000000000000000000000000000000000000000000000000000000000000000000000000000000000000000000000000000000000000000000000000000000000000000000000000000000000000000000000000000000000000000000000000000000000000000000000000000000000000000000000000000000000000000000000000000000000000000000000000000000000000000000000000000000000000000000000000000000000000000000000000000000000000000000000000000000000000000000000000000000000000000000000000000000000000000000000000000000000000000000000000000000000000000000000000000080808401c9c380808000a000000000000000000000000000000000000000000000000000000000000000008800000000000000000ba056e81f171bcc55a6ff8345e692c0f86e5b48e01b996cadc001622fb5e363b4218080a00000000000000000000000000000000000000000000000000000000000000000c0c0c0",
        "blocks": [
            {
                "blockHeader": {
                    "parentHash": "0x79e43d0cda1c75e798e7df5afd0d5098e28ebe52a96b4fecfc94d98a16df1ffb",
                    "uncleHash": "0x1dcc4de8dec75d7aab85b567b6ccd41ad312451b948a7413f0a142fd40d49347",
                    "coinbase": "0x2adc25665018aa1fe0e6bc666dac8fc2697ff9ba",
                    "stateRoot": "0x26967f65b2409e9c8e71236fba3818a11f6d171c1d2edba17e4ee44eedd9fb97",
                    "transactionsTrie": "0xa6719b5cb7133df279482fd860c7c876a8619f59ac24349269ac5e9681760ed4",
                    "receiptTrie": "0x3e465512eeba8748c1c182429f9bab20438a4a33782d5c363ac03b811471bec0",
                    "bloom": "0x00000000000000000000000000000000000000000000000000000000000000000000000000000000000000000000000000000000000000000000000000000000000000000000000000000000000000000000000000000000000000000000000000000000000000000000000000000000000000000000000000000000000000000000000000000000000000000000000000000000000000000000000000000000000000000000000000000000000000000000000000000000000000000000000000000000000000000000000000000000000000000000000000000000000000000000000000000000000000000000000000000000000000000000000000000000",
                    "difficulty": "0x00",
                    "number": "0x01",
                    "gasLimit": "0x01c9c380",
                    "gasUsed": "0x01a79c",
                    "timestamp": "0x03e8",
                    "extraData": "0x00",
                    "mixHash": "0x0000000000000000000000000000000000000000000000000000000000020000",
                    "nonce": "0x0000000000000000",
                    "baseFeePerGas": "0x0a",
                    "withdrawalsRoot": "0x56e81f171bcc55a6ff8345e692c0f86e5b48e01b996cadc001622fb5e363b421",
                    "blobGasUsed": "0x00",
                    "excessBlobGas": "0x00",
                    "parentBeaconBlockRoot": "0x0000000000000000000000000000000000000000000000000000000000000000",
                    "hash": "0x00c38cb457181581425c605d095aeebbe61f0993e4f96a0b6a7fee64ddc48c21"
                },
                "transactions": [
                    {
                        "type": "0x00",
                        "chainId": "0x01",
                        "nonce": "0x00",
                        "gasPrice": "0x0a",
                        "gasLimit": "0x029fe0",
                        "to": "0xb4d115b5309a03febd836abb6456bce43cec037b",
                        "value": "0x00",
                        "data": "0x000000000000000000000000476564431e8a9c2c934ef7712a1182eebb46b872",
                        "v": "0x25",
                        "r": "0x712f9aacf86af15a34cec655f0cd20f02a3dd7dbdbb33fa9b9887a34dc74f6b9",
                        "s": "0x0c26183018028dc6a8c66a6167328efe1ecebcc18ef012c864030e302b118468",
                        "sender": "0xebaf50debf10e08302fe4280c32df010463ca297"
                    }
                ],
                "uncleHeaders": [],
                "withdrawals": [],
                "receipts": [
                    {
                        "transactionHash": "0xbbaf5078a99de8ae2b09aef65ac63f8029c34f1f9b5f1eb4cd383d18f799ebfd",
                        "type": "0x00",
                        "cumulativeGasUsed": "0x01a79c",
                        "bloom": "0x00000000000000000000000000000000000000000000000000000000000000000000000000000000000000000000000000000000000000000000000000000000000000000000000000000000000000000000000000000000000000000000000000000000000000000000000000000000000000000000000000000000000000000000000000000000000000000000000000000000000000000000000000000000000000000000000000000000000000000000000000000000000000000000000000000000000000000000000000000000000000000000000000000000000000000000000000000000000000000000000000000000000000000000000000000000",
                        "logs": [],
                        "status": true,
                        "rlp": "0xf90109018301a79cb9010000000000000000000000000000000000000000000000000000000000000000000000000000000000000000000000000000000000000000000000000000000000000000000000000000000000000000000000000000000000000000000000000000000000000000000000000000000000000000000000000000000000000000000000000000000000000000000000000000000000000000000000000000000000000000000000000000000000000000000000000000000000000000000000000000000000000000000000000000000000000000000000000000000000000000000000000000000000000000000000000000000000000000000000000000000000c0"
                    }
                ],
                "rlp": "0xf902c4f9023ba079e43d0cda1c75e798e7df5afd0d5098e28ebe52a96b4fecfc94d98a16df1ffba01dcc4de8dec75d7aab85b567b6ccd41ad312451b948a7413f0a142fd40d49347942adc25665018aa1fe0e6bc666dac8fc2697ff9baa026967f65b2409e9c8e71236fba3818a11f6d171c1d2edba17e4ee44eedd9fb97a0a6719b5cb7133df279482fd860c7c876a8619f59ac24349269ac5e9681760ed4a03e465512eeba8748c1c182429f9bab20438a4a33782d5c363ac03b811471bec0b901000000000000000000000000000000000000000000000000000000000000000000000000000000000000000000000000000000000000000000000000000000000000000000000000000000000000000000000000000000000000000000000000000000000000000000000000000000000000000000000000000000000000000000000000000000000000000000000000000000000000000000000000000000000000000000000000000000000000000000000000000000000000000000000000000000000000000000000000000000000000000000000000000000000000000000000000000000000000000000000000000000000000000000000000000000000080018401c9c3808301a79c8203e800a000000000000000000000000000000000000000000000000000000000000200008800000000000000000aa056e81f171bcc55a6ff8345e692c0f86e5b48e01b996cadc001622fb5e363b4218080a00000000000000000000000000000000000000000000000000000000000000000f882f880800a83029fe094b4d115b5309a03febd836abb6456bce43cec037b80a0000000000000000000000000476564431e8a9c2c934ef7712a1182eebb46b87225a0712f9aacf86af15a34cec655f0cd20f02a3dd7dbdbb33fa9b9887a34dc74f6b9a00c26183018028dc6a8c66a6167328efe1ecebcc18ef012c864030e302b118468c0c0",
                "blocknumber": "1"
            }
        ],
        "sealEngine": "NoProof",
        "_info": {
            "hash": "0x68537f1d052a2cc9fc72ed1e1b5434fddd017341177fc4fdd895afbfe84aadf0",
            "fixture-format": "blockchain_test",
            "comment": "`execution-specs` generated test",
            "filling-transition-tool": "2.19.0",
            "description": "Test_static_callcallcodecallcode_011_oogm_after.",
            "url": "https://github.com/ethereum/execution-specs/blob/tests-bal@v5.6.0/tests/ported_static/stStaticCall/test_static_callcallcodecallcode_011_oogm_after.py#L26",
            "metadata": {
                "opcode_count": {}
            }
        }
    },
    "tests/ported_static/stStaticCall/test_static_callcallcodecallcode_011_oogm_after.py::test_static_callcallcodecallcode_011_oogm_after[fork_Cancun-blockchain_test_from_state_test-d1]": {
        "network": "Cancun",
        "genesisBlockHeader": {
            "parentHash": "0x0000000000000000000000000000000000000000000000000000000000000000",
            "uncleHash": "0x1dcc4de8dec75d7aab85b567b6ccd41ad312451b948a7413f0a142fd40d49347",
            "coinbase": "0x0000000000000000000000000000000000000000",
            "stateRoot": "0x6f0ad83ff278e3aba3478dbad5ecc7526f1c549c1fec84d2c82df39629bab93c",
            "transactionsTrie": "0x56e81f171bcc55a6ff8345e692c0f86e5b48e01b996cadc001622fb5e363b421",
            "receiptTrie": "0x56e81f171bcc55a6ff8345e692c0f86e5b48e01b996cadc001622fb5e363b421",
            "bloom": "0x00000000000000000000000000000000000000000000000000000000000000000000000000000000000000000000000000000000000000000000000000000000000000000000000000000000000000000000000000000000000000000000000000000000000000000000000000000000000000000000000000000000000000000000000000000000000000000000000000000000000000000000000000000000000000000000000000000000000000000000000000000000000000000000000000000000000000000000000000000000000000000000000000000000000000000000000000000000000000000000000000000000000000000000000000000000",
            "difficulty": "0x00",
            "number": "0x00",
            "gasLimit": "0x01c9c380",
            "gasUsed": "0x00",
            "timestamp": "0x00",
            "extraData": "0x00",
            "mixHash": "0x0000000000000000000000000000000000000000000000000000000000000000",
            "nonce": "0x0000000000000000",
            "baseFeePerGas": "0x0b",
            "withdrawalsRoot": "0x56e81f171bcc55a6ff8345e692c0f86e5b48e01b996cadc001622fb5e363b421",
            "blobGasUsed": "0x00",
            "excessBlobGas": "0x00",
            "parentBeaconBlockRoot": "0x0000000000000000000000000000000000000000000000000000000000000000",
            "hash": "0x79e43d0cda1c75e798e7df5afd0d5098e28ebe52a96b4fecfc94d98a16df1ffb"
        },
        "pre": {
            "0x000f3df6d732807ef1319fb7b8bb8522d0beac02": {
                "nonce": "0x01",
                "balance": "0x00",
                "code": "0x3373fffffffffffffffffffffffffffffffffffffffe14604d57602036146024575f5ffd5b5f35801560495762001fff810690815414603c575f5ffd5b62001fff01545f5260205ff35b5f5ffd5b62001fff42064281555f359062001fff015500",
                "storage": {}
            },
            "0xb4d115b5309a03febd836abb6456bce43cec037b": {
                "nonce": "0x00",
                "balance": "0x0de0b6b3a7640000",
                "code": "0x604060006040600060003561eaecfa600055600160015500",
                "storage": {}
            },
            "0x476564431e8a9c2c934ef7712a1182eebb46b872": {
                "nonce": "0x00",
                "balance": "0x00",
                "code": "0x6001600152604060006040600073fecf0806036b619896da47f661dfce85c0107e9d619c90f450600160035500",
                "storage": {}
            },
            "0xd678d9a03433a246d441a9a225553d3e4e760c5f": {
                "nonce": "0x00",
                "balance": "0x00",
                "code": "0x6001600152604060006040600073fecf0806036b619896da47f661dfce85c0107e9d619c90f4505b61c350608051101560435760013b506001608051016080526027565b00",
                "storage": {}
            },
            "0xfecf0806036b619896da47f661dfce85c0107e9d": {
                "nonce": "0x00",
                "balance": "0x00",
                "code": "0x6001600152604060006040600073335c5531b84765a7626e6e76688f18b81be5259c614e34f450600160015200",
                "storage": {}
            },
            "0x335c5531b84765a7626e6e76688f18b81be5259c": {
                "nonce": "0x00",
                "balance": "0x00",
                "code": "0x600160035200",
                "storage": {}
            },
            "0xebaf50debf10e08302fe4280c32df010463ca297": {
                "nonce": "0x00",
                "balance": "0x0de0b6b3a7640000",
                "code": "0x",
                "storage": {}
            }
        },
        "postState": {
            "0x000f3df6d732807ef1319fb7b8bb8522d0beac02": {
                "nonce": "0x01",
                "balance": "0x00",
                "code": "0x3373fffffffffffffffffffffffffffffffffffffffe14604d57602036146024575f5ffd5b5f35801560495762001fff810690815414603c575f5ffd5b62001fff01545f5260205ff35b5f5ffd5b62001fff42064281555f359062001fff015500",
                "storage": {
                    "0x03e8": "0x03e8"
                }
            },
            "0xb4d115b5309a03febd836abb6456bce43cec037b": {
                "nonce": "0x00",
                "balance": "0x0de0b6b3a7640000",
                "code": "0x604060006040600060003561eaecfa600055600160015500",
                "storage": {
                    "0x01": "0x01"
                }
            },
            "0x476564431e8a9c2c934ef7712a1182eebb46b872": {
                "nonce": "0x00",
                "balance": "0x00",
                "code": "0x6001600152604060006040600073fecf0806036b619896da47f661dfce85c0107e9d619c90f450600160035500",
                "storage": {}
            },
            "0xd678d9a03433a246d441a9a225553d3e4e760c5f": {
                "nonce": "0x00",
                "balance": "0x00",
                "code": "0x6001600152604060006040600073fecf0806036b619896da47f661dfce85c0107e9d619c90f4505b61c350608051101560435760013b506001608051016080526027565b00",
                "storage": {}
            },
            "0xfecf0806036b619896da47f661dfce85c0107e9d": {
                "nonce": "0x00",
                "balance": "0x00",
                "code": "0x6001600152604060006040600073335c5531b84765a7626e6e76688f18b81be5259c614e34f450600160015200",
                "storage": {}
            },
            "0x335c5531b84765a7626e6e76688f18b81be5259c": {
                "nonce": "0x00",
                "balance": "0x00",
                "code": "0x600160035200",
                "storage": {}
            },
            "0xebaf50debf10e08302fe4280c32df010463ca297": {
                "nonce": "0x01",
                "balance": "0x0de0b6b3a75373e8",
                "code": "0x",
                "storage": {}
            }
        },
        "lastblockhash": "0x67d2e68fd85578c3880ed338d2b233ca6e8e0085435f948ded547cf702ed399e",
        "config": {
            "network": "Cancun",
            "chainid": "0x01",
            "blobSchedule": {
                "Cancun": {
                    "target": "0x03",
                    "max": "0x06",
                    "baseFeeUpdateFraction": "0x32f0ed"
                }
            }
        },
        "genesisRLP": "0xf9023cf90236a00000000000000000000000000000000000000000000000000000000000000000a01dcc4de8dec75d7aab85b567b6ccd41ad312451b948a7413f0a142fd40d49347940000000000000000000000000000000000000000a06f0ad83ff278e3aba3478dbad5ecc7526f1c549c1fec84d2c82df39629bab93ca056e81f171bcc55a6ff8345e692c0f86e5b48e01b996cadc001622fb5e363b421a056e81f171bcc55a6ff8345e692c0f86e5b48e01b996cadc001622fb5e363b421b901000000000000000000000000000000000000000000000000000000000000000000000000000000000000000000000000000000000000000000000000000000000000000000000000000000000000000000000000000000000000000000000000000000000000000000000000000000000000000000000000000000000000000000000000000000000000000000000000000000000000000000000000000000000000000000000000000000000000000000000000000000000000000000000000000000000000000000000000000000000000000000000000000000000000000000000000000000000000000000000000000000000000000000000000000000000080808401c9c380808000a000000000000000000000000000000000000000000000000000000000000000008800000000000000000ba056e81f171bcc55a6ff8345e692c0f86e5b48e01b996cadc001622fb5e363b4218080a00000000000000000000000000000000000000000000000000000000000000000c0c0c0",
        "blocks": [
            {
                "blockHeader": {
                    "parentHash": "0x79e43d0cda1c75e798e7df5afd0d5098e28ebe52a96b4fecfc94d98a16df1ffb",
                    "uncleHash": "0x1dcc4de8dec75d7aab85b567b6ccd41ad312451b948a7413f0a142fd40d49347",
                    "coinbase": "0x2adc25665018aa1fe0e6bc666dac8fc2697ff9ba",
                    "stateRoot": "0x26967f65b2409e9c8e71236fba3818a11f6d171c1d2edba17e4ee44eedd9fb97",
                    "transactionsTrie": "0x412b3e0735cdde40821071c41aca9da1aba9e63dad64680418928348accbad86",
                    "receiptTrie": "0x3e465512eeba8748c1c182429f9bab20438a4a33782d5c363ac03b811471bec0",
                    "bloom": "0x00000000000000000000000000000000000000000000000000000000000000000000000000000000000000000000000000000000000000000000000000000000000000000000000000000000000000000000000000000000000000000000000000000000000000000000000000000000000000000000000000000000000000000000000000000000000000000000000000000000000000000000000000000000000000000000000000000000000000000000000000000000000000000000000000000000000000000000000000000000000000000000000000000000000000000000000000000000000000000000000000000000000000000000000000000000",
                    "difficulty": "0x00",
                    "number": "0x01",
                    "gasLimit": "0x01c9c380",
                    "gasUsed": "0x01a79c",
                    "timestamp": "0x03e8",
                    "extraData": "0x00",
                    "mixHash": "0x0000000000000000000000000000000000000000000000000000000000020000",
                    "nonce": "0x0000000000000000",
                    "baseFeePerGas": "0x0a",
                    "withdrawalsRoot": "0x56e81f171bcc55a6ff8345e692c0f86e5b48e01b996cadc001622fb5e363b421",
                    "blobGasUsed": "0x00",
                    "excessBlobGas": "0x00",
                    "parentBeaconBlockRoot": "0x0000000000000000000000000000000000000000000000000000000000000000",
                    "hash": "0x67d2e68fd85578c3880ed338d2b233ca6e8e0085435f948ded547cf702ed399e"
                },
                "transactions": [
                    {
                        "type": "0x00",
                        "chainId": "0x01",
                        "nonce": "0x00",
                        "gasPrice": "0x0a",
                        "gasLimit": "0x029fe0",
                        "to": "0xb4d115b5309a03febd836abb6456bce43cec037b",
                        "value": "0x00",
                        "data": "0x000000000000000000000000d678d9a03433a246d441a9a225553d3e4e760c5f",
                        "v": "0x25",
                        "r": "0xfca481b1427e9631261c6a4e5c34aef0f0d04c1dbaf4ccd6944769e0739de2b9",
                        "s": "0x51b19f0d51b6adea827e56ea268d5dbe4440dc5bb0057a18c93b6769a3aaaf74",
                        "sender": "0xebaf50debf10e08302fe4280c32df010463ca297"
                    }
                ],
                "uncleHeaders": [],
                "withdrawals": [],
                "receipts": [
                    {
                        "transactionHash": "0xddf072abd4038b1467a95f535f0f708888ea866392d8829ac6a1bfa08f44f046",
                        "type": "0x00",
                        "cumulativeGasUsed": "0x01a79c",
                        "bloom": "0x00000000000000000000000000000000000000000000000000000000000000000000000000000000000000000000000000000000000000000000000000000000000000000000000000000000000000000000000000000000000000000000000000000000000000000000000000000000000000000000000000000000000000000000000000000000000000000000000000000000000000000000000000000000000000000000000000000000000000000000000000000000000000000000000000000000000000000000000000000000000000000000000000000000000000000000000000000000000000000000000000000000000000000000000000000000",
                        "logs": [],
                        "status": true,
                        "rlp": "0xf90109018301a79cb9010000000000000000000000000000000000000000000000000000000000000000000000000000000000000000000000000000000000000000000000000000000000000000000000000000000000000000000000000000000000000000000000000000000000000000000000000000000000000000000000000000000000000000000000000000000000000000000000000000000000000000000000000000000000000000000000000000000000000000000000000000000000000000000000000000000000000000000000000000000000000000000000000000000000000000000000000000000000000000000000000000000000000000000000000000000000c0"
                    }
                ],
                "rlp": "0xf902c4f9023ba079e43d0cda1c75e798e7df5afd0d5098e28ebe52a96b4fecfc94d98a16df1ffba01dcc4de8dec75d7aab85b567b6ccd41ad312451b948a7413f0a142fd40d49347942adc25665018aa1fe0e6bc666dac8fc2697ff9baa026967f65b2409e9c8e71236fba3818a11f6d171c1d2edba17e4ee44eedd9fb97a0412b3e0735cdde40821071c41aca9da1aba9e63dad64680418928348accbad86a03e465512eeba8748c1c182429f9bab20438a4a33782d5c363ac03b811471bec0b901000000000000000000000000000000000000000000000000000000000000000000000000000000000000000000000000000000000000000000000000000000000000000000000000000000000000000000000000000000000000000000000000000000000000000000000000000000000000000000000000000000000000000000000000000000000000000000000000000000000000000000000000000000000000000000000000000000000000000000000000000000000000000000000000000000000000000000000000000000000000000000000000000000000000000000000000000000000000000000000000000000000000000000000000000000000080018401c9c3808301a79c8203e800a000000000000000000000000000000000000000000000000000000000000200008800000000000000000aa056e81f171bcc55a6ff8345e692c0f86e5b48e01b996cadc001622fb5e363b4218080a00000000000000000000000000000000000000000000000000000000000000000f882f880800a83029fe094b4d115b5309a03febd836abb6456bce43cec037b80a0000000000000000000000000d678d9a03433a246d441a9a225553d3e4e760c5f25a0fca481b1427e9631261c6a4e5c34aef0f0d04c1dbaf4ccd6944769e0739de2b9a051b19f0d51b6adea827e56ea268d5dbe4440dc5bb0057a18c93b6769a3aaaf74c0c0",
                "blocknumber": "1"
            }
        ],
        "sealEngine": "NoProof",
        "_info": {
            "hash": "0xaeaacf0058c17a3c00703e608590825f835661369722f0e629c51d521e141614",
            "fixture-format": "blockchain_test",
            "comment": "`execution-specs` generated test",
            "filling-transition-tool": "2.19.0",
            "description": "Test_static_callcallcodecallcode_011_oogm_after.",
            "url": "https://github.com/ethereum/execution-specs/blob/tests-bal@v5.6.0/tests/ported_static/stStaticCall/test_static_callcallcodecallcode_011_oogm_after.py#L26",
            "metadata": {
                "opcode_count": {}
            }
        }
    }
}