{
    "tests/byzantium/eip197_ec_pairing/test_gas.py::test_gas_costs[fork_Istanbul-blockchain_test_from_state_test-enough_gas_False-ecpairing]": {
        "network": "Istanbul",
        "genesisBlockHeader": {
            "parentHash": "0x0000000000000000000000000000000000000000000000000000000000000000",
            "uncleHash": "0x1dcc4de8dec75d7aab85b567b6ccd41ad312451b948a7413f0a142fd40d49347",
            "coinbase": "0x0000000000000000000000000000000000000000",
            "stateRoot": "0x4b39151399fb4aaee760cd7011cf5083a7cdc871a205bd18e0d7ceaa5412571d",
            "transactionsTrie": "0x56e81f171bcc55a6ff8345e692c0f86e5b48e01b996cadc001622fb5e363b421",
            "receiptTrie": "0x56e81f171bcc55a6ff8345e692c0f86e5b48e01b996cadc001622fb5e363b421",
            "bloom": "0x00000000000000000000000000000000000000000000000000000000000000000000000000000000000000000000000000000000000000000000000000000000000000000000000000000000000000000000000000000000000000000000000000000000000000000000000000000000000000000000000000000000000000000000000000000000000000000000000000000000000000000000000000000000000000000000000000000000000000000000000000000000000000000000000000000000000000000000000000000000000000000000000000000000000000000000000000000000000000000000000000000000000000000000000000000000",
            "difficulty": "0x020000",
            "number": "0x00",
            "gasLimit": "0x07270e00",
            "gasUsed": "0x00",
            "timestamp": "0x00",
            "extraData": "0x00",
            "mixHash": "0x0000000000000000000000000000000000000000000000000000000000000000",
            "nonce": "0x0000000000000000",
            "hash": "0x1a48b50b712b720840116b3af3cef73c768c627015c01ddaab8da6782df2fb29"
        },
        "pre": {
            "0x178c5fe49d7f4e5cedad7ec24d8d98cba40f720a": {
                "nonce": "0x01",
                "balance": "0x00",
                "code": "0x60006000600060006000600861afc7f1600055",
                "storage": {
                    "0x00": "0xdeadbeef"
                }
            },
            "0x1ad9bc24818784172ff393bb6f89f094d4d2ca29": {
                "nonce": "0x00",
                "balance": "0x3635c9adc5dea00000",
                "code": "0x",
                "storage": {}
            }
        },
        "postState": {
            "0x178c5fe49d7f4e5cedad7ec24d8d98cba40f720a": {
                "nonce": "0x01",
                "balance": "0x00",
                "code": "0x60006000600060006000600861afc7f1600055",
                "storage": {}
            },
            "0x1ad9bc24818784172ff393bb6f89f094d4d2ca29": {
                "nonce": "0x01",
                "balance": "0x3635c9adc5de975842",
                "code": "0x",
                "storage": {}
            },
            "0x2adc25665018aa1fe0e6bc666dac8fc2697ff9ba": {
                "nonce": "0x00",
                "balance": "0x1bc16d674ed0a7be",
                "code": "0x",
                "storage": {}
            }
        },
        "lastblockhash": "0xee1da4f78e6346900808e2225fbea441962e8862248d0b71ac3f32261f3ee2a9",
        "config": {
            "network": "Istanbul",
            "chainid": "0x01"
        },
        "genesisRLP": "0xf901f9f901f4a00000000000000000000000000000000000000000000000000000000000000000a01dcc4de8dec75d7aab85b567b6ccd41ad312451b948a7413f0a142fd40d49347940000000000000000000000000000000000000000a04b39151399fb4aaee760cd7011cf5083a7cdc871a205bd18e0d7ceaa5412571da056e81f171bcc55a6ff8345e692c0f86e5b48e01b996cadc001622fb5e363b421a056e81f171bcc55a6ff8345e692c0f86e5b48e01b996cadc001622fb5e363b421b901000000000000000000000000000000000000000000000000000000000000000000000000000000000000000000000000000000000000000000000000000000000000000000000000000000000000000000000000000000000000000000000000000000000000000000000000000000000000000000000000000000000000000000000000000000000000000000000000000000000000000000000000000000000000000000000000000000000000000000000000000000000000000000000000000000000000000000000000000000000000000000000000000000000000000000000000000000000000000000000000000000000000000000000000000000000083020000808407270e00808000a00000000000000000000000000000000000000000000000000000000000000000880000000000000000c0c0",
        "blocks": [
            {
                "blockHeader": {
                    "parentHash": "0x1a48b50b712b720840116b3af3cef73c768c627015c01ddaab8da6782df2fb29",
                    "uncleHash": "0x1dcc4de8dec75d7aab85b567b6ccd41ad312451b948a7413f0a142fd40d49347",
                    "coinbase": "0x2adc25665018aa1fe0e6bc666dac8fc2697ff9ba",
                    "stateRoot": "0xe55efd2cf07ed8dd3af83367cd354bed145db4501c0971b6e5662ef4b6a3d84a",
                    "transactionsTrie": "0x765a3e311b976aaefd7fcde9fe2b350aaa518fdd9c723236769a779a036dce06",
                    "receiptTrie": "0x507fd9714ae927bb359fa9bc3cad40054f9e870c132c53f2749699b995991dd4",
                    "bloom": "0x00000000000000000000000000000000000000000000000000000000000000000000000000000000000000000000000000000000000000000000000000000000000000000000000000000000000000000000000000000000000000000000000000000000000000000000000000000000000000000000000000000000000000000000000000000000000000000000000000000000000000000000000000000000000000000000000000000000000000000000000000000000000000000000000000000000000000000000000000000000000000000000000000000000000000000000000000000000000000000000000000000000000000000000000000000000",
                    "difficulty": "0x020000",
                    "number": "0x01",
                    "gasLimit": "0x07270e00",
                    "gasUsed": "0xdd93",
                    "timestamp": "0x03e8",
                    "extraData": "0x00",
                    "mixHash": "0x0000000000000000000000000000000000000000000000000000000000000000",
                    "nonce": "0x0000000000000000",
                    "hash": "0xee1da4f78e6346900808e2225fbea441962e8862248d0b71ac3f32261f3ee2a9"
                },
                "transactions": [
                    {
                        "type": "0x00",
                        "chainId": "0x01",
                        "nonce": "0x00",
                        "gasPrice": "0x0a",
                        "gasLimit": "0x0f4240",
                        "to": "0x178c5fe49d7f4e5cedad7ec24d8d98cba40f720a",
                        "value": "0x00",
                        "data": "0x",
                        "v": "0x25",
                        "r": "0x620a1057376d077f6aa68d37fbfd6681dcb2414871f9dc4d220430fe340b3ffc",
                        "s": "0x7f06563e6da9d09b6804d3ed858b6d94b3b2d9dac8e164a041eec506ed14544c",
                        "sender": "0x1ad9bc24818784172ff393bb6f89f094d4d2ca29"
                    }
                ],
                "uncleHeaders": [],
                "receipts": [
                    {
                        "transactionHash": "0xc4cb2bceb1a60d8836a79615080cdb42590015005a1896295c852a9798a004f9",
                        "type": "0x00",
                        "cumulativeGasUsed": "0xdd93",
                        "bloom": "0x00000000000000000000000000000000000000000000000000000000000000000000000000000000000000000000000000000000000000000000000000000000000000000000000000000000000000000000000000000000000000000000000000000000000000000000000000000000000000000000000000000000000000000000000000000000000000000000000000000000000000000000000000000000000000000000000000000000000000000000000000000000000000000000000000000000000000000000000000000000000000000000000000000000000000000000000000000000000000000000000000000000000000000000000000000000",
                        "logs": [],
                        "status": true,
                        "rlp": "0xf901080182dd93b9010000000000000000000000000000000000000000000000000000000000000000000000000000000000000000000000000000000000000000000000000000000000000000000000000000000000000000000000000000000000000000000000000000000000000000000000000000000000000000000000000000000000000000000000000000000000000000000000000000000000000000000000000000000000000000000000000000000000000000000000000000000000000000000000000000000000000000000000000000000000000000000000000000000000000000000000000000000000000000000000000000000000000000000000000000000000c0"
                    }
                ],
                "rlp": "0xf90260f901f8a01a48b50b712b720840116b3af3cef73c768c627015c01ddaab8da6782df2fb29a01dcc4de8dec75d7aab85b567b6ccd41ad312451b948a7413f0a142fd40d49347942adc25665018aa1fe0e6bc666dac8fc2697ff9baa0e55efd2cf07ed8dd3af83367cd354bed145db4501c0971b6e5662ef4b6a3d84aa0765a3e311b976aaefd7fcde9fe2b350aaa518fdd9c723236769a779a036dce06a0507fd9714ae927bb359fa9bc3cad40054f9e870c132c53f2749699b995991dd4b901000000000000000000000000000000000000000000000000000000000000000000000000000000000000000000000000000000000000000000000000000000000000000000000000000000000000000000000000000000000000000000000000000000000000000000000000000000000000000000000000000000000000000000000000000000000000000000000000000000000000000000000000000000000000000000000000000000000000000000000000000000000000000000000000000000000000000000000000000000000000000000000000000000000000000000000000000000000000000000000000000000000000000000000000000000000083020000018407270e0082dd938203e800a00000000000000000000000000000000000000000000000000000000000000000880000000000000000f862f860800a830f424094178c5fe49d7f4e5cedad7ec24d8d98cba40f720a808025a0620a1057376d077f6aa68d37fbfd6681dcb2414871f9dc4d220430fe340b3ffca07f06563e6da9d09b6804d3ed858b6d94b3b2d9dac8e164a041eec506ed14544cc0",
                "blocknumber": "1"
            }
        ],
        "sealEngine": "NoProof",
        "_info": {
            "hash": "0x419512302614195e74e4e2d7e9a254081e1de8a82cb19640fdf053a4822eaa59",
            "fixture-format": "blockchain_test",
            "comment": "`execution-specs` generated test",
            "filling-transition-tool": "2.19.0",
            "description": "Tests the constant gas behavior of `ecpairing` precompiled contract.",
            "url": "https://github.com/ethereum/execution-specs/blob/tests-bal@v5.3.0/tests/byzantium/eip197_ec_pairing/test_gas.py#L20",
            "opcode_count": {},
            "reference-spec": "https://github.com/ethereum/EIPs/blob/master/EIPS/eip-197.md",
            "reference-spec-version": "9f9b3d33440e7c122b6c9192facfc380bc009422"
        }
    },
    "tests/byzantium/eip197_ec_pairing/test_gas.py::test_gas_costs[fork_Istanbul-blockchain_test_from_state_test-enough_gas_True-ecpairing]": {
        "network": "Istanbul",
        "genesisBlockHeader": {
            "parentHash": "0x0000000000000000000000000000000000000000000000000000000000000000",
            "uncleHash": "0x1dcc4de8dec75d7aab85b567b6ccd41ad312451b948a7413f0a142fd40d49347",
            "coinbase": "0x0000000000000000000000000000000000000000",
            "stateRoot": "0x936b4920f0ad4bc4afd0704f58315dac1e93bb4ab3403dfc6a8992b9ddcc7c5c",
            "transactionsTrie": "0x56e81f171bcc55a6ff8345e692c0f86e5b48e01b996cadc001622fb5e363b421",
            "receiptTrie": "0x56e81f171bcc55a6ff8345e692c0f86e5b48e01b996cadc001622fb5e363b421",
            "bloom": "0x00000000000000000000000000000000000000000000000000000000000000000000000000000000000000000000000000000000000000000000000000000000000000000000000000000000000000000000000000000000000000000000000000000000000000000000000000000000000000000000000000000000000000000000000000000000000000000000000000000000000000000000000000000000000000000000000000000000000000000000000000000000000000000000000000000000000000000000000000000000000000000000000000000000000000000000000000000000000000000000000000000000000000000000000000000000",
            "difficulty": "0x020000",
            "number": "0x00",
            "gasLimit": "0x07270e00",
            "gasUsed": "0x00",
            "timestamp": "0x00",
            "extraData": "0x00",
            "mixHash": "0x0000000000000000000000000000000000000000000000000000000000000000",
            "nonce": "0x0000000000000000",
            "hash": "0xb22061fa31d5d9b3f79dd60a7bb299ee36de23c48a0280f8b6bf4615861efc22"
        },
        "pre": {
            "0x40291178ce97c2f3661cd7a4c18f622a543174f2": {
                "nonce": "0x01",
                "balance": "0x00",
                "code": "0x60006000600060006000600861afc8f1600055",
                "storage": {
                    "0x00": "0xdeadbeef"
                }
            },
            "0x1ad9bc24818784172ff393bb6f89f094d4d2ca29": {
                "nonce": "0x00",
                "balance": "0x3635c9adc5dea00000",
                "code": "0x",
                "storage": {}
            }
        },
        "postState": {
            "0x40291178ce97c2f3661cd7a4c18f622a543174f2": {
                "nonce": "0x01",
                "balance": "0x00",
                "code": "0x60006000600060006000600861afc8f1600055",
                "storage": {
                    "0x00": "0x01"
                }
            },
            "0x1ad9bc24818784172ff393bb6f89f094d4d2ca29": {
                "nonce": "0x01",
                "balance": "0x3635c9adc5de950e48",
                "code": "0x",
                "storage": {}
            },
            "0x2adc25665018aa1fe0e6bc666dac8fc2697ff9ba": {
                "nonce": "0x00",
                "balance": "0x1bc16d674ed2f1b8",
                "code": "0x",
                "storage": {}
            }
        },
        "lastblockhash": "0x8a982d2e7431f9f835c9f3956ebcafbc8228a1981c1a8cd8e46f1c0039222b47",
        "config": {
            "network": "Istanbul",
            "chainid": "0x01"
        },
        "genesisRLP": "0xf901f9f901f4a00000000000000000000000000000000000000000000000000000000000000000a01dcc4de8dec75d7aab85b567b6ccd41ad312451b948a7413f0a142fd40d49347940000000000000000000000000000000000000000a0936b4920f0ad4bc4afd0704f58315dac1e93bb4ab3403dfc6a8992b9ddcc7c5ca056e81f171bcc55a6ff8345e692c0f86e5b48e01b996cadc001622fb5e363b421a056e81f171bcc55a6ff8345e692c0f86e5b48e01b996cadc001622fb5e363b421b901000000000000000000000000000000000000000000000000000000000000000000000000000000000000000000000000000000000000000000000000000000000000000000000000000000000000000000000000000000000000000000000000000000000000000000000000000000000000000000000000000000000000000000000000000000000000000000000000000000000000000000000000000000000000000000000000000000000000000000000000000000000000000000000000000000000000000000000000000000000000000000000000000000000000000000000000000000000000000000000000000000000000000000000000000000000083020000808407270e00808000a00000000000000000000000000000000000000000000000000000000000000000880000000000000000c0c0",
        "blocks": [
            {
                "blockHeader": {
                    "parentHash": "0xb22061fa31d5d9b3f79dd60a7bb299ee36de23c48a0280f8b6bf4615861efc22",
                    "uncleHash": "0x1dcc4de8dec75d7aab85b567b6ccd41ad312451b948a7413f0a142fd40d49347",
                    "coinbase": "0x2adc25665018aa1fe0e6bc666dac8fc2697ff9ba",
                    "stateRoot": "0xd45de660c97373abb827cc3fdef6dd01fdbf717a142531d66df8150f47f573e3",
                    "transactionsTrie": "0xa21655b38ecfcaa98f61738cd6de2a83a5d1c8e739748d368784299341d295f6",
                    "receiptTrie": "0xdf658316d148e618401ac0d87acea8e6142dcf687ea01930c554e793e16754ae",
                    "bloom": "0x00000000000000000000000000000000000000000000000000000000000000000000000000000000000000000000000000000000000000000000000000000000000000000000000000000000000000000000000000000000000000000000000000000000000000000000000000000000000000000000000000000000000000000000000000000000000000000000000000000000000000000000000000000000000000000000000000000000000000000000000000000000000000000000000000000000000000000000000000000000000000000000000000000000000000000000000000000000000000000000000000000000000000000000000000000000",
                    "difficulty": "0x020000",
                    "number": "0x01",
                    "gasLimit": "0x07270e00",
                    "gasUsed": "0x01182c",
                    "timestamp": "0x03e8",
                    "extraData": "0x00",
                    "mixHash": "0x0000000000000000000000000000000000000000000000000000000000000000",
                    "nonce": "0x0000000000000000",
                    "hash": "0x8a982d2e7431f9f835c9f3956ebcafbc8228a1981c1a8cd8e46f1c0039222b47"
                },
                "transactions": [
                    {
                        "type": "0x00",
                        "chainId": "0x01",
                        "nonce": "0x00",
                        "gasPrice": "0x0a",
                        "gasLimit": "0x0f4240",
                        "to": "0x40291178ce97c2f3661cd7a4c18f622a543174f2",
                        "value": "0x00",
                        "data": "0x",
                        "v": "0x25",
                        "r": "0xf29164f826cac3b178610f34ece8e26c7a06bd6df2073c492d123eb09189b330",
                        "s": "0x3ce28a10712abc9ec96400e492dab56d5daa67eea535dd2d1355ef182865c4f2",
                        "sender": "0x1ad9bc24818784172ff393bb6f89f094d4d2ca29"
                    }
                ],
                "uncleHeaders": [],
                "receipts": [
                    {
                        "transactionHash": "0xa1bb8d3fcdba402ad052560c66a7431fcfb8caec02001dfc7592cc6cb94497d2",
                        "type": "0x00",
                        "cumulativeGasUsed": "0x01182c",
                        "bloom": "0x00000000000000000000000000000000000000000000000000000000000000000000000000000000000000000000000000000000000000000000000000000000000000000000000000000000000000000000000000000000000000000000000000000000000000000000000000000000000000000000000000000000000000000000000000000000000000000000000000000000000000000000000000000000000000000000000000000000000000000000000000000000000000000000000000000000000000000000000000000000000000000000000000000000000000000000000000000000000000000000000000000000000000000000000000000000",
                        "logs": [],
                        "status": true,
                        "rlp": "0xf90109018301182cb9010000000000000000000000000000000000000000000000000000000000000000000000000000000000000000000000000000000000000000000000000000000000000000000000000000000000000000000000000000000000000000000000000000000000000000000000000000000000000000000000000000000000000000000000000000000000000000000000000000000000000000000000000000000000000000000000000000000000000000000000000000000000000000000000000000000000000000000000000000000000000000000000000000000000000000000000000000000000000000000000000000000000000000000000000000000000c0"
                    }
                ],
                "rlp": "0xf90261f901f9a0b22061fa31d5d9b3f79dd60a7bb299ee36de23c48a0280f8b6bf4615861efc22a01dcc4de8dec75d7aab85b567b6ccd41ad312451b948a7413f0a142fd40d49347942adc25665018aa1fe0e6bc666dac8fc2697ff9baa0d45de660c97373abb827cc3fdef6dd01fdbf717a142531d66df8150f47f573e3a0a21655b38ecfcaa98f61738cd6de2a83a5d1c8e739748d368784299341d295f6a0df658316d148e618401ac0d87acea8e6142dcf687ea01930c554e793e16754aeb901000000000000000000000000000000000000000000000000000000000000000000000000000000000000000000000000000000000000000000000000000000000000000000000000000000000000000000000000000000000000000000000000000000000000000000000000000000000000000000000000000000000000000000000000000000000000000000000000000000000000000000000000000000000000000000000000000000000000000000000000000000000000000000000000000000000000000000000000000000000000000000000000000000000000000000000000000000000000000000000000000000000000000000000000000000000083020000018407270e008301182c8203e800a00000000000000000000000000000000000000000000000000000000000000000880000000000000000f862f860800a830f42409440291178ce97c2f3661cd7a4c18f622a543174f2808025a0f29164f826cac3b178610f34ece8e26c7a06bd6df2073c492d123eb09189b330a03ce28a10712abc9ec96400e492dab56d5daa67eea535dd2d1355ef182865c4f2c0",
                "blocknumber": "1"
            }
        ],
        "sealEngine": "NoProof",
        "_info": {
            "hash": "0x4b34d60c4c4155c45599763a8bc165d16bd2f5d0608910fb1287925456c91720",
            "fixture-format": "blockchain_test",
            "comment": "`execution-specs` generated test",
            "filling-transition-tool": "2.19.0",
            "description": "Tests the constant gas behavior of `ecpairing` precompiled contract.",
            "url": "https://github.com/ethereum/execution-specs/blob/tests-bal@v5.3.0/tests/byzantium/eip197_ec_pairing/test_gas.py#L20",
            "opcode_count": {},
            "reference-spec": "https://github.com/ethereum/EIPs/blob/master/EIPS/eip-197.md",
            "reference-spec-version": "9f9b3d33440e7c122b6c9192facfc380bc009422"
        }
    }
}