{
    "tests/byzantium/eip197_ec_pairing/test_ecpairing.py::test_valid[fork_Istanbul-blockchain_test_from_state_test-empty-ecpairing]": {
        "network": "Istanbul",
        "genesisBlockHeader": {
            "parentHash": "0x0000000000000000000000000000000000000000000000000000000000000000",
            "uncleHash": "0x1dcc4de8dec75d7aab85b567b6ccd41ad312451b948a7413f0a142fd40d49347",
            "coinbase": "0x0000000000000000000000000000000000000000",
            "stateRoot": "0x50c8c27134f8ce303fe35ec735bef9003bfde31fab3003bfcd82f095d056b92c",
            "transactionsTrie": "0x56e81f171bcc55a6ff8345e692c0f86e5b48e01b996cadc001622fb5e363b421",
            "receiptTrie": "0x56e81f171bcc55a6ff8345e692c0f86e5b48e01b996cadc001622fb5e363b421",
            "bloom": "0x00000000000000000000000000000000000000000000000000000000000000000000000000000000000000000000000000000000000000000000000000000000000000000000000000000000000000000000000000000000000000000000000000000000000000000000000000000000000000000000000000000000000000000000000000000000000000000000000000000000000000000000000000000000000000000000000000000000000000000000000000000000000000000000000000000000000000000000000000000000000000000000000000000000000000000000000000000000000000000000000000000000000000000000000000000000",
            "difficulty": "0x020000",
            "number": "0x00",
            "gasLimit": "0x07270e00",
            "gasUsed": "0x00",
            "timestamp": "0x00",
            "extraData": "0x00",
            "mixHash": "0x0000000000000000000000000000000000000000000000000000000000000000",
            "nonce": "0x0000000000000000",
            "hash": "0xd3b4aa2abd4949b99f503fe8aed21d217da35f3550e2e41dfde9cdf6c9f0bf02"
        },
        "pre": {
            "0xab85ccf59f16d7e38d656c9b2a9179c58390573e": {
                "nonce": "0x01",
                "balance": "0x00",
                "code": "0x366000600037600060003660006000600861afc8f16000553d6001553d600060003e3d600020600255",
                "storage": {}
            },
            "0x1ad9bc24818784172ff393bb6f89f094d4d2ca29": {
                "nonce": "0x00",
                "balance": "0x3635c9adc5dea00000",
                "code": "0x",
                "storage": {}
            }
        },
        "postState": {
            "0xab85ccf59f16d7e38d656c9b2a9179c58390573e": {
                "nonce": "0x01",
                "balance": "0x00",
                "code": "0x366000600037600060003660006000600861afc8f16000553d6001553d600060003e3d600020600255",
                "storage": {
                    "0x00": "0x01",
                    "0x01": "0x20",
                    "0x02": "0xb10e2d527612073b26eecdfd717e6a320cf44b4afac2b0732d9fcbe2b7fa0cf6"
                }
            },
            "0x1ad9bc24818784172ff393bb6f89f094d4d2ca29": {
                "nonce": "0x01",
                "balance": "0x3635c9adc5de8ca6e0",
                "code": "0x",
                "storage": {}
            },
            "0x2adc25665018aa1fe0e6bc666dac8fc2697ff9ba": {
                "nonce": "0x00",
                "balance": "0x1bc16d674edb5920",
                "code": "0x",
                "storage": {}
            }
        },
        "lastblockhash": "0x3f00a3fbb8a4440d675a4437885d68a995a213f2ba186abbda40ade9081c74ab",
        "config": {
            "network": "Istanbul",
            "chainid": "0x01"
        },
        "genesisRLP": "0xf901f9f901f4a00000000000000000000000000000000000000000000000000000000000000000a01dcc4de8dec75d7aab85b567b6ccd41ad312451b948a7413f0a142fd40d49347940000000000000000000000000000000000000000a050c8c27134f8ce303fe35ec735bef9003bfde31fab3003bfcd82f095d056b92ca056e81f171bcc55a6ff8345e692c0f86e5b48e01b996cadc001622fb5e363b421a056e81f171bcc55a6ff8345e692c0f86e5b48e01b996cadc001622fb5e363b421b901000000000000000000000000000000000000000000000000000000000000000000000000000000000000000000000000000000000000000000000000000000000000000000000000000000000000000000000000000000000000000000000000000000000000000000000000000000000000000000000000000000000000000000000000000000000000000000000000000000000000000000000000000000000000000000000000000000000000000000000000000000000000000000000000000000000000000000000000000000000000000000000000000000000000000000000000000000000000000000000000000000000000000000000000000000000083020000808407270e00808000a00000000000000000000000000000000000000000000000000000000000000000880000000000000000c0c0",
        "blocks": [
            {
                "blockHeader": {
                    "parentHash": "0xd3b4aa2abd4949b99f503fe8aed21d217da35f3550e2e41dfde9cdf6c9f0bf02",
                    "uncleHash": "0x1dcc4de8dec75d7aab85b567b6ccd41ad312451b948a7413f0a142fd40d49347",
                    "coinbase": "0x2adc25665018aa1fe0e6bc666dac8fc2697ff9ba",
                    "stateRoot": "0x107e51f50c7c79b229af9582c804ac9d138d8eed2326677d3214b10e2f0dda49",
                    "transactionsTrie": "0x39ad2bf064349149caacdf7675db1033c41121dda527f22d1dc5c627ae68e80a",
                    "receiptTrie": "0x1a8735bc3546017aad8ecb2dd3dcdfbb0dc88eaab0d1b3a6f484be7452a0246c",
                    "bloom": "0x00000000000000000000000000000000000000000000000000000000000000000000000000000000000000000000000000000000000000000000000000000000000000000000000000000000000000000000000000000000000000000000000000000000000000000000000000000000000000000000000000000000000000000000000000000000000000000000000000000000000000000000000000000000000000000000000000000000000000000000000000000000000000000000000000000000000000000000000000000000000000000000000000000000000000000000000000000000000000000000000000000000000000000000000000000000",
                    "difficulty": "0x020000",
                    "number": "0x01",
                    "gasLimit": "0x07270e00",
                    "gasUsed": "0x01ef50",
                    "timestamp": "0x03e8",
                    "extraData": "0x00",
                    "mixHash": "0x0000000000000000000000000000000000000000000000000000000000000000",
                    "nonce": "0x0000000000000000",
                    "hash": "0x3f00a3fbb8a4440d675a4437885d68a995a213f2ba186abbda40ade9081c74ab"
                },
                "transactions": [
                    {
                        "type": "0x00",
                        "chainId": "0x01",
                        "nonce": "0x00",
                        "gasPrice": "0x0a",
                        "gasLimit": "0x040f10",
                        "to": "0xab85ccf59f16d7e38d656c9b2a9179c58390573e",
                        "value": "0x00",
                        "data": "0x",
                        "v": "0x25",
                        "r": "0x3be105e4a69e1b6319a1a6f8e06208bc00446daffa492116cdfa683481716ff4",
                        "s": "0x0d97dbdda6b4b650fcbddd03dbc593f1bbac7c12412269bf3b2e1752e56334cd",
                        "sender": "0x1ad9bc24818784172ff393bb6f89f094d4d2ca29"
                    }
                ],
                "uncleHeaders": [],
                "receipts": [
                    {
                        "transactionHash": "0x55fd21262f5e19b2e323f6aadfa0acf27b3bb8c9c35a73fb6509e74280e25647",
                        "type": "0x00",
                        "cumulativeGasUsed": "0x01ef50",
                        "bloom": "0x00000000000000000000000000000000000000000000000000000000000000000000000000000000000000000000000000000000000000000000000000000000000000000000000000000000000000000000000000000000000000000000000000000000000000000000000000000000000000000000000000000000000000000000000000000000000000000000000000000000000000000000000000000000000000000000000000000000000000000000000000000000000000000000000000000000000000000000000000000000000000000000000000000000000000000000000000000000000000000000000000000000000000000000000000000000",
                        "logs": [],
                        "status": true,
                        "rlp": "0xf90109018301ef50b9010000000000000000000000000000000000000000000000000000000000000000000000000000000000000000000000000000000000000000000000000000000000000000000000000000000000000000000000000000000000000000000000000000000000000000000000000000000000000000000000000000000000000000000000000000000000000000000000000000000000000000000000000000000000000000000000000000000000000000000000000000000000000000000000000000000000000000000000000000000000000000000000000000000000000000000000000000000000000000000000000000000000000000000000000000000000c0"
                    }
                ],
                "rlp": "0xf90261f901f9a0d3b4aa2abd4949b99f503fe8aed21d217da35f3550e2e41dfde9cdf6c9f0bf02a01dcc4de8dec75d7aab85b567b6ccd41ad312451b948a7413f0a142fd40d49347942adc25665018aa1fe0e6bc666dac8fc2697ff9baa0107e51f50c7c79b229af9582c804ac9d138d8eed2326677d3214b10e2f0dda49a039ad2bf064349149caacdf7675db1033c41121dda527f22d1dc5c627ae68e80aa01a8735bc3546017aad8ecb2dd3dcdfbb0dc88eaab0d1b3a6f484be7452a0246cb901000000000000000000000000000000000000000000000000000000000000000000000000000000000000000000000000000000000000000000000000000000000000000000000000000000000000000000000000000000000000000000000000000000000000000000000000000000000000000000000000000000000000000000000000000000000000000000000000000000000000000000000000000000000000000000000000000000000000000000000000000000000000000000000000000000000000000000000000000000000000000000000000000000000000000000000000000000000000000000000000000000000000000000000000000000000083020000018407270e008301ef508203e800a00000000000000000000000000000000000000000000000000000000000000000880000000000000000f862f860800a83040f1094ab85ccf59f16d7e38d656c9b2a9179c58390573e808025a03be105e4a69e1b6319a1a6f8e06208bc00446daffa492116cdfa683481716ff4a00d97dbdda6b4b650fcbddd03dbc593f1bbac7c12412269bf3b2e1752e56334cdc0",
                "blocknumber": "1"
            }
        ],
        "sealEngine": "NoProof",
        "_info": {
            "hash": "0xa63d670f70262c8292066442e50eaf81eb99b05558aa07953e4de753902392c0",
            "fixture-format": "blockchain_test",
            "comment": "`execution-specs` generated test",
            "filling-transition-tool": "2.19.0",
            "description": "Test valid inputs where the pairing check succeeds.",
            "url": "https://github.com/ethereum/execution-specs/blob/tests-bal@v5.3.0/tests/byzantium/eip197_ec_pairing/test_ecpairing.py#L24",
            "opcode_count": {},
            "reference-spec": "https://github.com/ethereum/EIPs/blob/master/EIPS/eip-197.md",
            "reference-spec-version": "9f9b3d33440e7c122b6c9192facfc380bc009422"
        }
    },
    "tests/byzantium/eip197_ec_pairing/test_ecpairing.py::test_valid[fork_Istanbul-blockchain_test_from_state_test-one_pair_g1_zero-ecpairing]": {
        "network": "Istanbul",
        "genesisBlockHeader": {
            "parentHash": "0x0000000000000000000000000000000000000000000000000000000000000000",
            "uncleHash": "0x1dcc4de8dec75d7aab85b567b6ccd41ad312451b948a7413f0a142fd40d49347",
            "coinbase": "0x0000000000000000000000000000000000000000",
            "stateRoot": "0x2fc4d12d7f1a3b8534f0ac9125e9b57ebaa26da423488830c0d7f82ef6ba9c1d",
            "transactionsTrie": "0x56e81f171bcc55a6ff8345e692c0f86e5b48e01b996cadc001622fb5e363b421",
            "receiptTrie": "0x56e81f171bcc55a6ff8345e692c0f86e5b48e01b996cadc001622fb5e363b421",
            "bloom": "0x00000000000000000000000000000000000000000000000000000000000000000000000000000000000000000000000000000000000000000000000000000000000000000000000000000000000000000000000000000000000000000000000000000000000000000000000000000000000000000000000000000000000000000000000000000000000000000000000000000000000000000000000000000000000000000000000000000000000000000000000000000000000000000000000000000000000000000000000000000000000000000000000000000000000000000000000000000000000000000000000000000000000000000000000000000000",
            "difficulty": "0x020000",
            "number": "0x00",
            "gasLimit": "0x07270e00",
            "gasUsed": "0x00",
            "timestamp": "0x00",
            "extraData": "0x00",
            "mixHash": "0x0000000000000000000000000000000000000000000000000000000000000000",
            "nonce": "0x0000000000000000",
            "hash": "0xb7f50aab2645c761221547b70127a12b2e080d319fecb1dcd4a4af8936400bd2"
        },
        "pre": {
            "0x4c1aef252d187e1f1f34e496082815ffd077f601": {
                "nonce": "0x01",
                "balance": "0x00",
                "code": "0x366000600037600060003660006000600862013498f16000553d6001553d600060003e3d600020600255",
                "storage": {}
            },
            "0x1ad9bc24818784172ff393bb6f89f094d4d2ca29": {
                "nonce": "0x00",
                "balance": "0x3635c9adc5dea00000",
                "code": "0x",
                "storage": {}
            }
        },
        "postState": {
            "0x4c1aef252d187e1f1f34e496082815ffd077f601": {
                "nonce": "0x01",
                "balance": "0x00",
                "code": "0x366000600037600060003660006000600862013498f16000553d6001553d600060003e3d600020600255",
                "storage": {
                    "0x00": "0x01",
                    "0x01": "0x20",
                    "0x02": "0xb10e2d527612073b26eecdfd717e6a320cf44b4afac2b0732d9fcbe2b7fa0cf6"
                }
            },
            "0x1ad9bc24818784172ff393bb6f89f094d4d2ca29": {
                "nonce": "0x01",
                "balance": "0x3635c9adc5de871c66",
                "code": "0x",
                "storage": {}
            },
            "0x2adc25665018aa1fe0e6bc666dac8fc2697ff9ba": {
                "nonce": "0x00",
                "balance": "0x1bc16d674ee0e39a",
                "code": "0x",
                "storage": {}
            }
        },
        "lastblockhash": "0x1ab623b15b50123666f1ec3d1765fdee689b330cb5f37a207b336750c0830471",
        "config": {
            "network": "Istanbul",
            "chainid": "0x01"
        },
        "genesisRLP": "0xf901f9f901f4a00000000000000000000000000000000000000000000000000000000000000000a01dcc4de8dec75d7aab85b567b6ccd41ad312451b948a7413f0a142fd40d49347940000000000000000000000000000000000000000a02fc4d12d7f1a3b8534f0ac9125e9b57ebaa26da423488830c0d7f82ef6ba9c1da056e81f171bcc55a6ff8345e692c0f86e5b48e01b996cadc001622fb5e363b421a056e81f171bcc55a6ff8345e692c0f86e5b48e01b996cadc001622fb5e363b421b901000000000000000000000000000000000000000000000000000000000000000000000000000000000000000000000000000000000000000000000000000000000000000000000000000000000000000000000000000000000000000000000000000000000000000000000000000000000000000000000000000000000000000000000000000000000000000000000000000000000000000000000000000000000000000000000000000000000000000000000000000000000000000000000000000000000000000000000000000000000000000000000000000000000000000000000000000000000000000000000000000000000000000000000000000000000083020000808407270e00808000a00000000000000000000000000000000000000000000000000000000000000000880000000000000000c0c0",
        "blocks": [
            {
                "blockHeader": {
                    "parentHash": "0xb7f50aab2645c761221547b70127a12b2e080d319fecb1dcd4a4af8936400bd2",
                    "uncleHash": "0x1dcc4de8dec75d7aab85b567b6ccd41ad312451b948a7413f0a142fd40d49347",
                    "coinbase": "0x2adc25665018aa1fe0e6bc666dac8fc2697ff9ba",
                    "stateRoot": "0xb905d28de0f060407c36fcf1cf22c9a478a483433651e8f326e4dd9dee0c3b34",
                    "transactionsTrie": "0x501efa2115cb011b0e481e249326248f975ab3a3647bdebce64a61d706d00b61",
                    "receiptTrie": "0x67dcc6c134b1af6cf54bccfed4cc83b57e76339f74d87006a69120129ceec70f",
                    "bloom": "0x00000000000000000000000000000000000000000000000000000000000000000000000000000000000000000000000000000000000000000000000000000000000000000000000000000000000000000000000000000000000000000000000000000000000000000000000000000000000000000000000000000000000000000000000000000000000000000000000000000000000000000000000000000000000000000000000000000000000000000000000000000000000000000000000000000000000000000000000000000000000000000000000000000000000000000000000000000000000000000000000000000000000000000000000000000000",
                    "difficulty": "0x020000",
                    "number": "0x01",
                    "gasLimit": "0x07270e00",
                    "gasUsed": "0x027d29",
                    "timestamp": "0x03e8",
                    "extraData": "0x00",
                    "mixHash": "0x0000000000000000000000000000000000000000000000000000000000000000",
                    "nonce": "0x0000000000000000",
                    "hash": "0x1ab623b15b50123666f1ec3d1765fdee689b330cb5f37a207b336750c0830471"
                },
                "transactions": [
                    {
                        "type": "0x00",
                        "chainId": "0x01",
                        "nonce": "0x00",
                        "gasPrice": "0x0a",
                        "gasLimit": "0x049cda",
                        "to": "0x4c1aef252d187e1f1f34e496082815ffd077f601",
                        "value": "0x00",
                        "data": "0x00000000000000000000000000000000000000000000000000000000000000000000000000000000000000000000000000000000000000000000000000000000198e9393920d483a7260bfb731fb5d25f1aa493335a9e71297e485b7aef312c21800deef121f1e76426a00665e5c4479674322d4f75edadd46debd5cd992f6ed090689d0585ff075ec9e99ad690c3395bc4b313370b38ef355acdadcd122975b12c85ea5db8c6deb4aab71808dcb408fe3d1e7690c43d37b4ce6cc0166fa7daa",
                        "v": "0x25",
                        "r": "0x8dc30432496d2ef883a76b03ab57ad6b28e4c0da8095ddd4bbf251b0d61bf558",
                        "s": "0x25b36aa3f983a8f67ffc445e10d17deb4e6cb63c8713fb22a383cc9b1c389b52",
                        "sender": "0x1ad9bc24818784172ff393bb6f89f094d4d2ca29"
                    }
                ],
                "uncleHeaders": [],
                "receipts": [
                    {
                        "transactionHash": "0xea6ca038b58de8ddd9a07d93dd9d710aea6cccb63073c3b7e13f00132387fbdf",
                        "type": "0x00",
                        "cumulativeGasUsed": "0x027d29",
                        "bloom": "0x00000000000000000000000000000000000000000000000000000000000000000000000000000000000000000000000000000000000000000000000000000000000000000000000000000000000000000000000000000000000000000000000000000000000000000000000000000000000000000000000000000000000000000000000000000000000000000000000000000000000000000000000000000000000000000000000000000000000000000000000000000000000000000000000000000000000000000000000000000000000000000000000000000000000000000000000000000000000000000000000000000000000000000000000000000000",
                        "logs": [],
                        "status": true,
                        "rlp": "0xf901090183027d29b9010000000000000000000000000000000000000000000000000000000000000000000000000000000000000000000000000000000000000000000000000000000000000000000000000000000000000000000000000000000000000000000000000000000000000000000000000000000000000000000000000000000000000000000000000000000000000000000000000000000000000000000000000000000000000000000000000000000000000000000000000000000000000000000000000000000000000000000000000000000000000000000000000000000000000000000000000000000000000000000000000000000000000000000000000000000000c0"
                    }
                ],
                "rlp": "0xf90324f901f9a0b7f50aab2645c761221547b70127a12b2e080d319fecb1dcd4a4af8936400bd2a01dcc4de8dec75d7aab85b567b6ccd41ad312451b948a7413f0a142fd40d49347942adc25665018aa1fe0e6bc666dac8fc2697ff9baa0b905d28de0f060407c36fcf1cf22c9a478a483433651e8f326e4dd9dee0c3b34a0501efa2115cb011b0e481e249326248f975ab3a3647bdebce64a61d706d00b61a067dcc6c134b1af6cf54bccfed4cc83b57e76339f74d87006a69120129ceec70fb901000000000000000000000000000000000000000000000000000000000000000000000000000000000000000000000000000000000000000000000000000000000000000000000000000000000000000000000000000000000000000000000000000000000000000000000000000000000000000000000000000000000000000000000000000000000000000000000000000000000000000000000000000000000000000000000000000000000000000000000000000000000000000000000000000000000000000000000000000000000000000000000000000000000000000000000000000000000000000000000000000000000000000000000000000000000083020000018407270e0083027d298203e800a00000000000000000000000000000000000000000000000000000000000000000880000000000000000f90124f90121800a83049cda944c1aef252d187e1f1f34e496082815ffd077f60180b8c000000000000000000000000000000000000000000000000000000000000000000000000000000000000000000000000000000000000000000000000000000000198e9393920d483a7260bfb731fb5d25f1aa493335a9e71297e485b7aef312c21800deef121f1e76426a00665e5c4479674322d4f75edadd46debd5cd992f6ed090689d0585ff075ec9e99ad690c3395bc4b313370b38ef355acdadcd122975b12c85ea5db8c6deb4aab71808dcb408fe3d1e7690c43d37b4ce6cc0166fa7daa25a08dc30432496d2ef883a76b03ab57ad6b28e4c0da8095ddd4bbf251b0d61bf558a025b36aa3f983a8f67ffc445e10d17deb4e6cb63c8713fb22a383cc9b1c389b52c0",
                "blocknumber": "1"
            }
        ],
        "sealEngine": "NoProof",
        "_info": {
            "hash": "0x9850efee8eda585c470d23a84885a5a6f5fc3f714214ed85f13ca2fc9f18348d",
            "fixture-format": "blockchain_test",
            "comment": "`execution-specs` generated test",
            "filling-transition-tool": "2.19.0",
            "description": "Test valid inputs where the pairing check succeeds.",
            "url": "https://github.com/ethereum/execution-specs/blob/tests-bal@v5.3.0/tests/byzantium/eip197_ec_pairing/test_ecpairing.py#L24",
            "opcode_count": {},
            "reference-spec": "https://github.com/ethereum/EIPs/blob/master/EIPS/eip-197.md",
            "reference-spec-version": "9f9b3d33440e7c122b6c9192facfc380bc009422"
        }
    },
    "tests/byzantium/eip197_ec_pairing/test_ecpairing.py::test_valid[fork_Istanbul-blockchain_test_from_state_test-one_pair_g2_zero-ecpairing]": {
        "network": "Istanbul",
        "genesisBlockHeader": {
            "parentHash": "0x0000000000000000000000000000000000000000000000000000000000000000",
            "uncleHash": "0x1dcc4de8dec75d7aab85b567b6ccd41ad312451b948a7413f0a142fd40d49347",
            "coinbase": "0x0000000000000000000000000000000000000000",
            "stateRoot": "0x2fc4d12d7f1a3b8534f0ac9125e9b57ebaa26da423488830c0d7f82ef6ba9c1d",
            "transactionsTrie": "0x56e81f171bcc55a6ff8345e692c0f86e5b48e01b996cadc001622fb5e363b421",
            "receiptTrie": "0x56e81f171bcc55a6ff8345e692c0f86e5b48e01b996cadc001622fb5e363b421",
            "bloom": "0x00000000000000000000000000000000000000000000000000000000000000000000000000000000000000000000000000000000000000000000000000000000000000000000000000000000000000000000000000000000000000000000000000000000000000000000000000000000000000000000000000000000000000000000000000000000000000000000000000000000000000000000000000000000000000000000000000000000000000000000000000000000000000000000000000000000000000000000000000000000000000000000000000000000000000000000000000000000000000000000000000000000000000000000000000000000",
            "difficulty": "0x020000",
            "number": "0x00",
            "gasLimit": "0x07270e00",
            "gasUsed": "0x00",
            "timestamp": "0x00",
            "extraData": "0x00",
            "mixHash": "0x0000000000000000000000000000000000000000000000000000000000000000",
            "nonce": "0x0000000000000000",
            "hash": "0xb7f50aab2645c761221547b70127a12b2e080d319fecb1dcd4a4af8936400bd2"
        },
        "pre": {
            "0x4c1aef252d187e1f1f34e496082815ffd077f601": {
                "nonce": "0x01",
                "balance": "0x00",
                "code": "0x366000600037600060003660006000600862013498f16000553d6001553d600060003e3d600020600255",
                "storage": {}
            },
            "0x1ad9bc24818784172ff393bb6f89f094d4d2ca29": {
                "nonce": "0x00",
                "balance": "0x3635c9adc5dea00000",
                "code": "0x",
                "storage": {}
            }
        },
        "postState": {
            "0x4c1aef252d187e1f1f34e496082815ffd077f601": {
                "nonce": "0x01",
                "balance": "0x00",
                "code": "0x366000600037600060003660006000600862013498f16000553d6001553d600060003e3d600020600255",
                "storage": {
                    "0x00": "0x01",
                    "0x01": "0x20",
                    "0x02": "0xb10e2d527612073b26eecdfd717e6a320cf44b4afac2b0732d9fcbe2b7fa0cf6"
                }
            },
            "0x1ad9bc24818784172ff393bb6f89f094d4d2ca29": {
                "nonce": "0x01",
                "balance": "0x3635c9adc5de875686",
                "code": "0x",
                "storage": {}
            },
            "0x2adc25665018aa1fe0e6bc666dac8fc2697ff9ba": {
                "nonce": "0x00",
                "balance": "0x1bc16d674ee0a97a",
                "code": "0x",
                "storage": {}
            }
        },
        "lastblockhash": "0x49f000e8e6b7f91f0e185f043a938647daafb8072ecf837d95c863868a9d24d2",
        "config": {
            "network": "Istanbul",
            "chainid": "0x01"
        },
        "genesisRLP": "0xf901f9f901f4a00000000000000000000000000000000000000000000000000000000000000000a01dcc4de8dec75d7aab85b567b6ccd41ad312451b948a7413f0a142fd40d49347940000000000000000000000000000000000000000a02fc4d12d7f1a3b8534f0ac9125e9b57ebaa26da423488830c0d7f82ef6ba9c1da056e81f171bcc55a6ff8345e692c0f86e5b48e01b996cadc001622fb5e363b421a056e81f171bcc55a6ff8345e692c0f86e5b48e01b996cadc001622fb5e363b421b901000000000000000000000000000000000000000000000000000000000000000000000000000000000000000000000000000000000000000000000000000000000000000000000000000000000000000000000000000000000000000000000000000000000000000000000000000000000000000000000000000000000000000000000000000000000000000000000000000000000000000000000000000000000000000000000000000000000000000000000000000000000000000000000000000000000000000000000000000000000000000000000000000000000000000000000000000000000000000000000000000000000000000000000000000000000083020000808407270e00808000a00000000000000000000000000000000000000000000000000000000000000000880000000000000000c0c0",
        "blocks": [
            {
                "blockHeader": {
                    "parentHash": "0xb7f50aab2645c761221547b70127a12b2e080d319fecb1dcd4a4af8936400bd2",
                    "uncleHash": "0x1dcc4de8dec75d7aab85b567b6ccd41ad312451b948a7413f0a142fd40d49347",
                    "coinbase": "0x2adc25665018aa1fe0e6bc666dac8fc2697ff9ba",
                    "stateRoot": "0x70dd54cf2a4ebba5b2b0009993589e137f7912c92e068ec25d33f1fdcd15886e",
                    "transactionsTrie": "0xc6f9f95d030d47e98333e5321ca828a02582b518e2f1876288cd2591825a2474",
                    "receiptTrie": "0xa16a530d3f58f49e51a24e32ed761c8cc2ad79ca0dd0b4b0da2957b8c7b850ea",
                    "bloom": "0x00000000000000000000000000000000000000000000000000000000000000000000000000000000000000000000000000000000000000000000000000000000000000000000000000000000000000000000000000000000000000000000000000000000000000000000000000000000000000000000000000000000000000000000000000000000000000000000000000000000000000000000000000000000000000000000000000000000000000000000000000000000000000000000000000000000000000000000000000000000000000000000000000000000000000000000000000000000000000000000000000000000000000000000000000000000",
                    "difficulty": "0x020000",
                    "number": "0x01",
                    "gasLimit": "0x07270e00",
                    "gasUsed": "0x027759",
                    "timestamp": "0x03e8",
                    "extraData": "0x00",
                    "mixHash": "0x0000000000000000000000000000000000000000000000000000000000000000",
                    "nonce": "0x0000000000000000",
                    "hash": "0x49f000e8e6b7f91f0e185f043a938647daafb8072ecf837d95c863868a9d24d2"
                },
                "transactions": [
                    {
                        "type": "0x00",
                        "chainId": "0x01",
                        "nonce": "0x00",
                        "gasPrice": "0x0a",
                        "gasLimit": "0x04970a",
                        "to": "0x4c1aef252d187e1f1f34e496082815ffd077f601",
                        "value": "0x00",
                        "data": "0x000000000000000000000000000000000000000000000000000000000000000100000000000000000000000000000000000000000000000000000000000000020000000000000000000000000000000000000000000000000000000000000000000000000000000000000000000000000000000000000000000000000000000000000000000000000000000000000000000000000000000000000000000000000000000000000000000000000000000000000000000000000000000000000000",
                        "v": "0x26",
                        "r": "0x3cf5824bbdbb252bc43b89018ccaa800d704af331770720dd188d18b316cc652",
                        "s": "0x773316292eff74794bad353d458ec1e82afeb6cded32ca65ab71c1bf1eb44082",
                        "sender": "0x1ad9bc24818784172ff393bb6f89f094d4d2ca29"
                    }
                ],
                "uncleHeaders": [],
                "receipts": [
                    {
                        "transactionHash": "0x2709bd72b413e9bd6034235cfcc3dbdadca75343d5cc1b26ff4e9695dc90cb1d",
                        "type": "0x00",
                        "cumulativeGasUsed": "0x027759",
                        "bloom": "0x00000000000000000000000000000000000000000000000000000000000000000000000000000000000000000000000000000000000000000000000000000000000000000000000000000000000000000000000000000000000000000000000000000000000000000000000000000000000000000000000000000000000000000000000000000000000000000000000000000000000000000000000000000000000000000000000000000000000000000000000000000000000000000000000000000000000000000000000000000000000000000000000000000000000000000000000000000000000000000000000000000000000000000000000000000000",
                        "logs": [],
                        "status": true,
                        "rlp": "0xf901090183027759b9010000000000000000000000000000000000000000000000000000000000000000000000000000000000000000000000000000000000000000000000000000000000000000000000000000000000000000000000000000000000000000000000000000000000000000000000000000000000000000000000000000000000000000000000000000000000000000000000000000000000000000000000000000000000000000000000000000000000000000000000000000000000000000000000000000000000000000000000000000000000000000000000000000000000000000000000000000000000000000000000000000000000000000000000000000000000c0"
                    }
                ],
                "rlp": "0xf90324f901f9a0b7f50aab2645c761221547b70127a12b2e080d319fecb1dcd4a4af8936400bd2a01dcc4de8dec75d7aab85b567b6ccd41ad312451b948a7413f0a142fd40d49347942adc25665018aa1fe0e6bc666dac8fc2697ff9baa070dd54cf2a4ebba5b2b0009993589e137f7912c92e068ec25d33f1fdcd15886ea0c6f9f95d030d47e98333e5321ca828a02582b518e2f1876288cd2591825a2474a0a16a530d3f58f49e51a24e32ed761c8cc2ad79ca0dd0b4b0da2957b8c7b850eab901000000000000000000000000000000000000000000000000000000000000000000000000000000000000000000000000000000000000000000000000000000000000000000000000000000000000000000000000000000000000000000000000000000000000000000000000000000000000000000000000000000000000000000000000000000000000000000000000000000000000000000000000000000000000000000000000000000000000000000000000000000000000000000000000000000000000000000000000000000000000000000000000000000000000000000000000000000000000000000000000000000000000000000000000000000000083020000018407270e00830277598203e800a00000000000000000000000000000000000000000000000000000000000000000880000000000000000f90124f90121800a8304970a944c1aef252d187e1f1f34e496082815ffd077f60180b8c000000000000000000000000000000000000000000000000000000000000000010000000000000000000000000000000000000000000000000000000000000002000000000000000000000000000000000000000000000000000000000000000000000000000000000000000000000000000000000000000000000000000000000000000000000000000000000000000000000000000000000000000000000000000000000000000000000000000000000000000000000000000000000000000026a03cf5824bbdbb252bc43b89018ccaa800d704af331770720dd188d18b316cc652a0773316292eff74794bad353d458ec1e82afeb6cded32ca65ab71c1bf1eb44082c0",
                "blocknumber": "1"
            }
        ],
        "sealEngine": "NoProof",
        "_info": {
            "hash": "0xbb927063f551aaa93e4ec99baa91aa2b4f4b8a570b9269ca6744b1ed6f314a7d",
            "fixture-format": "blockchain_test",
            "comment": "`execution-specs` generated test",
            "filling-transition-tool": "2.19.0",
            "description": "Test valid inputs where the pairing check succeeds.",
            "url": "https://github.com/ethereum/execution-specs/blob/tests-bal@v5.3.0/tests/byzantium/eip197_ec_pairing/test_ecpairing.py#L24",
            "opcode_count": {},
            "reference-spec": "https://github.com/ethereum/EIPs/blob/master/EIPS/eip-197.md",
            "reference-spec-version": "9f9b3d33440e7c122b6c9192facfc380bc009422"
        }
    },
    "tests/byzantium/eip197_ec_pairing/test_ecpairing.py::test_valid[fork_Istanbul-blockchain_test_from_state_test-two_pairs_negated_g1-ecpairing]": {
        "network": "Istanbul",
        "genesisBlockHeader": {
            "parentHash": "0x0000000000000000000000000000000000000000000000000000000000000000",
            "uncleHash": "0x1dcc4de8dec75d7aab85b567b6ccd41ad312451b948a7413f0a142fd40d49347",
            "coinbase": "0x0000000000000000000000000000000000000000",
            "stateRoot": "0xa4647aac375dec86c78b1f22ea218dad53525472260590eb4a10de110bf4c160",
            "transactionsTrie": "0x56e81f171bcc55a6ff8345e692c0f86e5b48e01b996cadc001622fb5e363b421",
            "receiptTrie": "0x56e81f171bcc55a6ff8345e692c0f86e5b48e01b996cadc001622fb5e363b421",
            "bloom": "0x00000000000000000000000000000000000000000000000000000000000000000000000000000000000000000000000000000000000000000000000000000000000000000000000000000000000000000000000000000000000000000000000000000000000000000000000000000000000000000000000000000000000000000000000000000000000000000000000000000000000000000000000000000000000000000000000000000000000000000000000000000000000000000000000000000000000000000000000000000000000000000000000000000000000000000000000000000000000000000000000000000000000000000000000000000000",
            "difficulty": "0x020000",
            "number": "0x00",
            "gasLimit": "0x07270e00",
            "gasUsed": "0x00",
            "timestamp": "0x00",
            "extraData": "0x00",
            "mixHash": "0x0000000000000000000000000000000000000000000000000000000000000000",
            "nonce": "0x0000000000000000",
            "hash": "0x7c512065ea8946d86c3c51ccb2b4dd62b66577bf5883701ad04581ca3531ef87"
        },
        "pre": {
            "0x7fa2150c64485377f3a4bd2c83b0cf851f98745d": {
                "nonce": "0x01",
                "balance": "0x00",
                "code": "0x36600060003760006000366000600060086201b968f16000553d6001553d600060003e3d600020600255",
                "storage": {}
            },
            "0x1ad9bc24818784172ff393bb6f89f094d4d2ca29": {
                "nonce": "0x00",
                "balance": "0x3635c9adc5dea00000",
                "code": "0x",
                "storage": {}
            }
        },
        "postState": {
            "0x7fa2150c64485377f3a4bd2c83b0cf851f98745d": {
                "nonce": "0x01",
                "balance": "0x00",
                "code": "0x36600060003760006000366000600060086201b968f16000553d6001553d600060003e3d600020600255",
                "storage": {
                    "0x00": "0x01",
                    "0x01": "0x20",
                    "0x02": "0xb10e2d527612073b26eecdfd717e6a320cf44b4afac2b0732d9fcbe2b7fa0cf6"
                }
            },
            "0x1ad9bc24818784172ff393bb6f89f094d4d2ca29": {
                "nonce": "0x01",
                "balance": "0x3635c9adc5de818166",
                "code": "0x",
                "storage": {}
            },
            "0x2adc25665018aa1fe0e6bc666dac8fc2697ff9ba": {
                "nonce": "0x00",
                "balance": "0x1bc16d674ee67e9a",
                "code": "0x",
                "storage": {}
            }
        },
        "lastblockhash": "0x315b65396cf2b4b2cac13a17e33e3df476ad06aefa5f2fdd6958672b131da4b5",
        "config": {
            "network": "Istanbul",
            "chainid": "0x01"
        },
        "genesisRLP": "0xf901f9f901f4a00000000000000000000000000000000000000000000000000000000000000000a01dcc4de8dec75d7aab85b567b6ccd41ad312451b948a7413f0a142fd40d49347940000000000000000000000000000000000000000a0a4647aac375dec86c78b1f22ea218dad53525472260590eb4a10de110bf4c160a056e81f171bcc55a6ff8345e692c0f86e5b48e01b996cadc001622fb5e363b421a056e81f171bcc55a6ff8345e692c0f86e5b48e01b996cadc001622fb5e363b421b901000000000000000000000000000000000000000000000000000000000000000000000000000000000000000000000000000000000000000000000000000000000000000000000000000000000000000000000000000000000000000000000000000000000000000000000000000000000000000000000000000000000000000000000000000000000000000000000000000000000000000000000000000000000000000000000000000000000000000000000000000000000000000000000000000000000000000000000000000000000000000000000000000000000000000000000000000000000000000000000000000000000000000000000000000000000083020000808407270e00808000a00000000000000000000000000000000000000000000000000000000000000000880000000000000000c0c0",
        "blocks": [
            {
                "blockHeader": {
                    "parentHash": "0x7c512065ea8946d86c3c51ccb2b4dd62b66577bf5883701ad04581ca3531ef87",
                    "uncleHash": "0x1dcc4de8dec75d7aab85b567b6ccd41ad312451b948a7413f0a142fd40d49347",
                    "coinbase": "0x2adc25665018aa1fe0e6bc666dac8fc2697ff9ba",
                    "stateRoot": "0xd2b25563c69d73dd00c51c4042d2b3e68674c393d63d912e5bd0ea6a09b08e25",
                    "transactionsTrie": "0x13bbce2232a07b6cb6731621c1b5dbb9b11ce25165f434ba8813b683727b4e7f",
                    "receiptTrie": "0x6ee755a85c48dea3d6bd8409a576d841128ccaf6ed66f766a5135a515c00aafc",
                    "bloom": "0x00000000000000000000000000000000000000000000000000000000000000000000000000000000000000000000000000000000000000000000000000000000000000000000000000000000000000000000000000000000000000000000000000000000000000000000000000000000000000000000000000000000000000000000000000000000000000000000000000000000000000000000000000000000000000000000000000000000000000000000000000000000000000000000000000000000000000000000000000000000000000000000000000000000000000000000000000000000000000000000000000000000000000000000000000000000",
                    "difficulty": "0x020000",
                    "number": "0x01",
                    "gasLimit": "0x07270e00",
                    "gasUsed": "0x030ca9",
                    "timestamp": "0x03e8",
                    "extraData": "0x00",
                    "mixHash": "0x0000000000000000000000000000000000000000000000000000000000000000",
                    "nonce": "0x0000000000000000",
                    "hash": "0x315b65396cf2b4b2cac13a17e33e3df476ad06aefa5f2fdd6958672b131da4b5"
                },
                "transactions": [
                    {
                        "type": "0x00",
                        "chainId": "0x01",
                        "nonce": "0x00",
                        "gasPrice": "0x0a",
                        "gasLimit": "0x052c48",
                        "to": "0x7fa2150c64485377f3a4bd2c83b0cf851f98745d",
                        "value": "0x00",
                        "data": "0x00000000000000000000000000000000000000000000000000000000000000010000000000000000000000000000000000000000000000000000000000000002198e9393920d483a7260bfb731fb5d25f1aa493335a9e71297e485b7aef312c21800deef121f1e76426a00665e5c4479674322d4f75edadd46debd5cd992f6ed090689d0585ff075ec9e99ad690c3395bc4b313370b38ef355acdadcd122975b12c85ea5db8c6deb4aab71808dcb408fe3d1e7690c43d37b4ce6cc0166fa7daa000000000000000000000000000000000000000000000000000000000000000130644e72e131a029b85045b68181585d97816a916871ca8d3c208c16d87cfd45198e9393920d483a7260bfb731fb5d25f1aa493335a9e71297e485b7aef312c21800deef121f1e76426a00665e5c4479674322d4f75edadd46debd5cd992f6ed090689d0585ff075ec9e99ad690c3395bc4b313370b38ef355acdadcd122975b12c85ea5db8c6deb4aab71808dcb408fe3d1e7690c43d37b4ce6cc0166fa7daa",
                        "v": "0x25",
                        "r": "0x35182b1366ce8ffd0427fa9be78603987f528d5e187260639716bf764cc92897",
                        "s": "0x647ef5084afa75167e93bf62b68e6ee5825ed95aa7e68cdb91e983d9b805e24a",
                        "sender": "0x1ad9bc24818784172ff393bb6f89f094d4d2ca29"
                    }
                ],
                "uncleHeaders": [],
                "receipts": [
                    {
                        "transactionHash": "0x49cd6de9bb3fc7a6609ae5934c90b0d14fc8a089f91aeaa4b6ee54259f15d87a",
                        "type": "0x00",
                        "cumulativeGasUsed": "0x030ca9",
                        "bloom": "0x00000000000000000000000000000000000000000000000000000000000000000000000000000000000000000000000000000000000000000000000000000000000000000000000000000000000000000000000000000000000000000000000000000000000000000000000000000000000000000000000000000000000000000000000000000000000000000000000000000000000000000000000000000000000000000000000000000000000000000000000000000000000000000000000000000000000000000000000000000000000000000000000000000000000000000000000000000000000000000000000000000000000000000000000000000000",
                        "logs": [],
                        "status": true,
                        "rlp": "0xf901090183030ca9b9010000000000000000000000000000000000000000000000000000000000000000000000000000000000000000000000000000000000000000000000000000000000000000000000000000000000000000000000000000000000000000000000000000000000000000000000000000000000000000000000000000000000000000000000000000000000000000000000000000000000000000000000000000000000000000000000000000000000000000000000000000000000000000000000000000000000000000000000000000000000000000000000000000000000000000000000000000000000000000000000000000000000000000000000000000000000c0"
                    }
                ],
                "rlp": "0xf903e5f901f9a07c512065ea8946d86c3c51ccb2b4dd62b66577bf5883701ad04581ca3531ef87a01dcc4de8dec75d7aab85b567b6ccd41ad312451b948a7413f0a142fd40d49347942adc25665018aa1fe0e6bc666dac8fc2697ff9baa0d2b25563c69d73dd00c51c4042d2b3e68674c393d63d912e5bd0ea6a09b08e25a013bbce2232a07b6cb6731621c1b5dbb9b11ce25165f434ba8813b683727b4e7fa06ee755a85c48dea3d6bd8409a576d841128ccaf6ed66f766a5135a515c00aafcb901000000000000000000000000000000000000000000000000000000000000000000000000000000000000000000000000000000000000000000000000000000000000000000000000000000000000000000000000000000000000000000000000000000000000000000000000000000000000000000000000000000000000000000000000000000000000000000000000000000000000000000000000000000000000000000000000000000000000000000000000000000000000000000000000000000000000000000000000000000000000000000000000000000000000000000000000000000000000000000000000000000000000000000000000000000000083020000018407270e0083030ca98203e800a00000000000000000000000000000000000000000000000000000000000000000880000000000000000f901e5f901e2800a83052c48947fa2150c64485377f3a4bd2c83b0cf851f98745d80b9018000000000000000000000000000000000000000000000000000000000000000010000000000000000000000000000000000000000000000000000000000000002198e9393920d483a7260bfb731fb5d25f1aa493335a9e71297e485b7aef312c21800deef121f1e76426a00665e5c4479674322d4f75edadd46debd5cd992f6ed090689d0585ff075ec9e99ad690c3395bc4b313370b38ef355acdadcd122975b12c85ea5db8c6deb4aab71808dcb408fe3d1e7690c43d37b4ce6cc0166fa7daa000000000000000000000000000000000000000000000000000000000000000130644e72e131a029b85045b68181585d97816a916871ca8d3c208c16d87cfd45198e9393920d483a7260bfb731fb5d25f1aa493335a9e71297e485b7aef312c21800deef121f1e76426a00665e5c4479674322d4f75edadd46debd5cd992f6ed090689d0585ff075ec9e99ad690c3395bc4b313370b38ef355acdadcd122975b12c85ea5db8c6deb4aab71808dcb408fe3d1e7690c43d37b4ce6cc0166fa7daa25a035182b1366ce8ffd0427fa9be78603987f528d5e187260639716bf764cc92897a0647ef5084afa75167e93bf62b68e6ee5825ed95aa7e68cdb91e983d9b805e24ac0",
                "blocknumber": "1"
            }
        ],
        "sealEngine": "NoProof",
        "_info": {
            "hash": "0x6c041ec93aac5b62a9ceaf85fcb254ad74f0660d623a9f8893bf27c542a2f93c",
            "fixture-format": "blockchain_test",
            "comment": "`execution-specs` generated test",
            "filling-transition-tool": "2.19.0",
            "description": "Test valid inputs where the pairing check succeeds.",
            "url": "https://github.com/ethereum/execution-specs/blob/tests-bal@v5.3.0/tests/byzantium/eip197_ec_pairing/test_ecpairing.py#L24",
            "opcode_count": {},
            "reference-spec": "https://github.com/ethereum/EIPs/blob/master/EIPS/eip-197.md",
            "reference-spec-version": "9f9b3d33440e7c122b6c9192facfc380bc009422"
        }
    }
}