{
    "tests/constantinople/eip1052_extcodehash/test_extcodehash.py::test_extcodehash_of_empty[fork_London-blockchain_test_from_state_test-target_exists_False]": {
        "network": "London",
        "genesisBlockHeader": {
            "parentHash": "0x0000000000000000000000000000000000000000000000000000000000000000",
            "uncleHash": "0x1dcc4de8dec75d7aab85b567b6ccd41ad312451b948a7413f0a142fd40d49347",
            "coinbase": "0x0000000000000000000000000000000000000000",
            "stateRoot": "0x86f4ff0f1e6f39b0721fe17e51a6401a626fa83c321fde2c672564e5dc608d7e",
            "transactionsTrie": "0x56e81f171bcc55a6ff8345e692c0f86e5b48e01b996cadc001622fb5e363b421",
            "receiptTrie": "0x56e81f171bcc55a6ff8345e692c0f86e5b48e01b996cadc001622fb5e363b421",
            "bloom": "0x00000000000000000000000000000000000000000000000000000000000000000000000000000000000000000000000000000000000000000000000000000000000000000000000000000000000000000000000000000000000000000000000000000000000000000000000000000000000000000000000000000000000000000000000000000000000000000000000000000000000000000000000000000000000000000000000000000000000000000000000000000000000000000000000000000000000000000000000000000000000000000000000000000000000000000000000000000000000000000000000000000000000000000000000000000000",
            "difficulty": "0x020000",
            "number": "0x00",
            "gasLimit": "0x07270e00",
            "gasUsed": "0x00",
            "timestamp": "0x00",
            "extraData": "0x00",
            "mixHash": "0x0000000000000000000000000000000000000000000000000000000000000000",
            "nonce": "0x0000000000000000",
            "baseFeePerGas": "0x07",
            "hash": "0xb1d4214420ecd5d3107dc02aeb4fee43800206ceb36ef86740173dc78054ac20"
        },
        "pre": {
            "0xbd3e47d20d8dbd0f91efbd8b067ffc886d4bfc41": {
                "nonce": "0x01",
                "balance": "0x00",
                "code": "0x73c0f6dc9e5836f54caadbf59cc69346c508e1992b3f60005573c0f6dc9e5836f54caadbf59cc69346c508e1992b3b600155",
                "storage": {
                    "0x00": "0xba5e",
                    "0x01": "0xba5e"
                }
            },
            "0x1ad9bc24818784172ff393bb6f89f094d4d2ca29": {
                "nonce": "0x00",
                "balance": "0x3635c9adc5dea00000",
                "code": "0x",
                "storage": {}
            }
        },
        "postState": {
            "0xbd3e47d20d8dbd0f91efbd8b067ffc886d4bfc41": {
                "nonce": "0x01",
                "balance": "0x01",
                "code": "0x73c0f6dc9e5836f54caadbf59cc69346c508e1992b3f60005573c0f6dc9e5836f54caadbf59cc69346c508e1992b3b600155",
                "storage": {}
            },
            "0x1ad9bc24818784172ff393bb6f89f094d4d2ca29": {
                "nonce": "0x01",
                "balance": "0x3635c9adc5de9be27b",
                "code": "0x",
                "storage": {}
            },
            "0x2adc25665018aa1fe0e6bc666dac8fc2697ff9ba": {
                "nonce": "0x00",
                "balance": "0x1bc16d674ec93c0e",
                "code": "0x",
                "storage": {}
            }
        },
        "lastblockhash": "0xd7ae32057d449703499f52ca435e3306d80ca4b9e92110e916d9e59c801be27d",
        "config": {
            "network": "London",
            "chainid": "0x01"
        },
        "genesisRLP": "0xf901faf901f5a00000000000000000000000000000000000000000000000000000000000000000a01dcc4de8dec75d7aab85b567b6ccd41ad312451b948a7413f0a142fd40d49347940000000000000000000000000000000000000000a086f4ff0f1e6f39b0721fe17e51a6401a626fa83c321fde2c672564e5dc608d7ea056e81f171bcc55a6ff8345e692c0f86e5b48e01b996cadc001622fb5e363b421a056e81f171bcc55a6ff8345e692c0f86e5b48e01b996cadc001622fb5e363b421b901000000000000000000000000000000000000000000000000000000000000000000000000000000000000000000000000000000000000000000000000000000000000000000000000000000000000000000000000000000000000000000000000000000000000000000000000000000000000000000000000000000000000000000000000000000000000000000000000000000000000000000000000000000000000000000000000000000000000000000000000000000000000000000000000000000000000000000000000000000000000000000000000000000000000000000000000000000000000000000000000000000000000000000000000000000000083020000808407270e00808000a0000000000000000000000000000000000000000000000000000000000000000088000000000000000007c0c0",
        "blocks": [
            {
                "blockHeader": {
                    "parentHash": "0xb1d4214420ecd5d3107dc02aeb4fee43800206ceb36ef86740173dc78054ac20",
                    "uncleHash": "0x1dcc4de8dec75d7aab85b567b6ccd41ad312451b948a7413f0a142fd40d49347",
                    "coinbase": "0x2adc25665018aa1fe0e6bc666dac8fc2697ff9ba",
                    "stateRoot": "0xf8a6adaa4397965de1e5abb8e7bf7c6d8d658b6e1429c05900e1aa35e8d2bbbe",
                    "transactionsTrie": "0x9ea96b048302339dd97b2d8f6d52b6e8ddfd18faaaae2a90ff8e2c7afdac9354",
                    "receiptTrie": "0xa8b5da752d6ae4c8c1011510bf3934af280059181f7b7dcc8265bbc5765494b2",
                    "bloom": "0x00000000000000000000000000000000000000000000000000000000000000000000000000000000000000000000000000000000000000000000000000000000000000000000000000000000000000000000000000000000000000000000000000000000000000000000000000000000000000000000000000000000000000000000000000000000000000000000000000000000000000000000000000000000000000000000000000000000000000000000000000000000000000000000000000000000000000000000000000000000000000000000000000000000000000000000000000000000000000000000000000000000000000000000000000000000",
                    "difficulty": "0x020000",
                    "number": "0x01",
                    "gasLimit": "0x07270e00",
                    "gasUsed": "0x695a",
                    "timestamp": "0x03e8",
                    "extraData": "0x00",
                    "mixHash": "0x0000000000000000000000000000000000000000000000000000000000000000",
                    "nonce": "0x0000000000000000",
                    "baseFeePerGas": "0x07",
                    "hash": "0xd7ae32057d449703499f52ca435e3306d80ca4b9e92110e916d9e59c801be27d"
                },
                "transactions": [
                    {
                        "type": "0x00",
                        "chainId": "0x01",
                        "nonce": "0x00",
                        "gasPrice": "0x0a",
                        "gasLimit": "0x0f4240",
                        "to": "0xbd3e47d20d8dbd0f91efbd8b067ffc886d4bfc41",
                        "value": "0x01",
                        "data": "0x",
                        "v": "0x25",
                        "r": "0xbc45d12155cd6be26def0a2c158843a271680811cfe676fb0c334667cbbf532b",
                        "s": "0x6fb889d401f5d92910b25f0f1f7159167ed76d17c149654b79d6511865e9bbba",
                        "sender": "0x1ad9bc24818784172ff393bb6f89f094d4d2ca29"
                    }
                ],
                "uncleHeaders": [],
                "receipts": [
                    {
                        "transactionHash": "0xe4df3224bc018543764e569767976a26d761f3612a9be814e46dbb0ca0e65a37",
                        "type": "0x00",
                        "cumulativeGasUsed": "0x695a",
                        "bloom": "0x00000000000000000000000000000000000000000000000000000000000000000000000000000000000000000000000000000000000000000000000000000000000000000000000000000000000000000000000000000000000000000000000000000000000000000000000000000000000000000000000000000000000000000000000000000000000000000000000000000000000000000000000000000000000000000000000000000000000000000000000000000000000000000000000000000000000000000000000000000000000000000000000000000000000000000000000000000000000000000000000000000000000000000000000000000000",
                        "logs": [],
                        "status": true,
                        "rlp": "0xf901080182695ab9010000000000000000000000000000000000000000000000000000000000000000000000000000000000000000000000000000000000000000000000000000000000000000000000000000000000000000000000000000000000000000000000000000000000000000000000000000000000000000000000000000000000000000000000000000000000000000000000000000000000000000000000000000000000000000000000000000000000000000000000000000000000000000000000000000000000000000000000000000000000000000000000000000000000000000000000000000000000000000000000000000000000000000000000000000000000c0"
                    }
                ],
                "rlp": "0xf90261f901f9a0b1d4214420ecd5d3107dc02aeb4fee43800206ceb36ef86740173dc78054ac20a01dcc4de8dec75d7aab85b567b6ccd41ad312451b948a7413f0a142fd40d49347942adc25665018aa1fe0e6bc666dac8fc2697ff9baa0f8a6adaa4397965de1e5abb8e7bf7c6d8d658b6e1429c05900e1aa35e8d2bbbea09ea96b048302339dd97b2d8f6d52b6e8ddfd18faaaae2a90ff8e2c7afdac9354a0a8b5da752d6ae4c8c1011510bf3934af280059181f7b7dcc8265bbc5765494b2b901000000000000000000000000000000000000000000000000000000000000000000000000000000000000000000000000000000000000000000000000000000000000000000000000000000000000000000000000000000000000000000000000000000000000000000000000000000000000000000000000000000000000000000000000000000000000000000000000000000000000000000000000000000000000000000000000000000000000000000000000000000000000000000000000000000000000000000000000000000000000000000000000000000000000000000000000000000000000000000000000000000000000000000000000000000000083020000018407270e0082695a8203e800a0000000000000000000000000000000000000000000000000000000000000000088000000000000000007f862f860800a830f424094bd3e47d20d8dbd0f91efbd8b067ffc886d4bfc41018025a0bc45d12155cd6be26def0a2c158843a271680811cfe676fb0c334667cbbf532ba06fb889d401f5d92910b25f0f1f7159167ed76d17c149654b79d6511865e9bbbac0",
                "blocknumber": "1"
            }
        ],
        "sealEngine": "NoProof",
        "_info": {
            "hash": "0x3b6c7fc1f4aa67ceb79556b35cfa20998c7e539b24e684e91e12c23ef08558ed",
            "fixture-format": "blockchain_test",
            "comment": "`execution-specs` generated test",
            "filling-transition-tool": "2.19.0",
            "description": "Test EXTCODEHASH/EXTCODESIZE for non-existent and empty accounts.",
            "url": "https://github.com/ethereum/execution-specs/blob/tests-bal@v5.6.1/tests/constantinople/eip1052_extcodehash/test_extcodehash.py#L76",
            "metadata": {
                "opcode_count": {}
            },
            "reference-spec": "https://github.com/ethereum/EIPs/blob/master/EIPS/eip-1052.md",
            "reference-spec-version": "2dcbc7ce1563e9624e137e9d447374600af876fa"
        }
    },
    "tests/constantinople/eip1052_extcodehash/test_extcodehash.py::test_extcodehash_of_empty[fork_London-blockchain_test_from_state_test-target_exists_True]": {
        "network": "London",
        "genesisBlockHeader": {
            "parentHash": "0x0000000000000000000000000000000000000000000000000000000000000000",
            "uncleHash": "0x1dcc4de8dec75d7aab85b567b6ccd41ad312451b948a7413f0a142fd40d49347",
            "coinbase": "0x0000000000000000000000000000000000000000",
            "stateRoot": "0x0ebdfe209dc1caa7e5a0ced2eacbd9d91f20434b3de12782a496fe1a6a55a000",
            "transactionsTrie": "0x56e81f171bcc55a6ff8345e692c0f86e5b48e01b996cadc001622fb5e363b421",
            "receiptTrie": "0x56e81f171bcc55a6ff8345e692c0f86e5b48e01b996cadc001622fb5e363b421",
            "bloom": "0x00000000000000000000000000000000000000000000000000000000000000000000000000000000000000000000000000000000000000000000000000000000000000000000000000000000000000000000000000000000000000000000000000000000000000000000000000000000000000000000000000000000000000000000000000000000000000000000000000000000000000000000000000000000000000000000000000000000000000000000000000000000000000000000000000000000000000000000000000000000000000000000000000000000000000000000000000000000000000000000000000000000000000000000000000000000",
            "difficulty": "0x020000",
            "number": "0x00",
            "gasLimit": "0x07270e00",
            "gasUsed": "0x00",
            "timestamp": "0x00",
            "extraData": "0x00",
            "mixHash": "0x0000000000000000000000000000000000000000000000000000000000000000",
            "nonce": "0x0000000000000000",
            "baseFeePerGas": "0x07",
            "hash": "0xf66aec485eb4f52eac115eece66455b427143d84027730700509d8697434b15e"
        },
        "pre": {
            "0xc0f6dc9e5836f54caadbf59cc69346c508e1992b": {
                "nonce": "0x00",
                "balance": "0x01",
                "code": "0x",
                "storage": {}
            },
            "0x9b5962eba47fd886ebfcf12678a6e0af53295a2b": {
                "nonce": "0x01",
                "balance": "0x00",
                "code": "0x73c0f6dc9e5836f54caadbf59cc69346c508e1992b3f60005573c0f6dc9e5836f54caadbf59cc69346c508e1992b3b600155",
                "storage": {
                    "0x01": "0xba5e"
                }
            },
            "0x1ad9bc24818784172ff393bb6f89f094d4d2ca29": {
                "nonce": "0x00",
                "balance": "0x3635c9adc5dea00000",
                "code": "0x",
                "storage": {}
            }
        },
        "postState": {
            "0xc0f6dc9e5836f54caadbf59cc69346c508e1992b": {
                "nonce": "0x00",
                "balance": "0x01",
                "code": "0x",
                "storage": {}
            },
            "0x9b5962eba47fd886ebfcf12678a6e0af53295a2b": {
                "nonce": "0x01",
                "balance": "0x01",
                "code": "0x73c0f6dc9e5836f54caadbf59cc69346c508e1992b3f60005573c0f6dc9e5836f54caadbf59cc69346c508e1992b3b600155",
                "storage": {
                    "0x00": "0xc5d2460186f7233c927e7db2dcc703c0e500b653ca82273b7bfad8045d85a470"
                }
            },
            "0x1ad9bc24818784172ff393bb6f89f094d4d2ca29": {
                "nonce": "0x01",
                "balance": "0x3635c9adc5de98faa7",
                "code": "0x",
                "storage": {}
            },
            "0x2adc25665018aa1fe0e6bc666dac8fc2697ff9ba": {
                "nonce": "0x00",
                "balance": "0x1bc16d674eca1b34",
                "code": "0x",
                "storage": {}
            }
        },
        "lastblockhash": "0x215f9b7dabb26889772f1521e0564aa9372dd288e24d8773ffee3f76ce5245c3",
        "config": {
            "network": "London",
            "chainid": "0x01"
        },
        "genesisRLP": "0xf901faf901f5a00000000000000000000000000000000000000000000000000000000000000000a01dcc4de8dec75d7aab85b567b6ccd41ad312451b948a7413f0a142fd40d49347940000000000000000000000000000000000000000a00ebdfe209dc1caa7e5a0ced2eacbd9d91f20434b3de12782a496fe1a6a55a000a056e81f171bcc55a6ff8345e692c0f86e5b48e01b996cadc001622fb5e363b421a056e81f171bcc55a6ff8345e692c0f86e5b48e01b996cadc001622fb5e363b421b901000000000000000000000000000000000000000000000000000000000000000000000000000000000000000000000000000000000000000000000000000000000000000000000000000000000000000000000000000000000000000000000000000000000000000000000000000000000000000000000000000000000000000000000000000000000000000000000000000000000000000000000000000000000000000000000000000000000000000000000000000000000000000000000000000000000000000000000000000000000000000000000000000000000000000000000000000000000000000000000000000000000000000000000000000000000083020000808407270e00808000a0000000000000000000000000000000000000000000000000000000000000000088000000000000000007c0c0",
        "blocks": [
            {
                "blockHeader": {
                    "parentHash": "0xf66aec485eb4f52eac115eece66455b427143d84027730700509d8697434b15e",
                    "uncleHash": "0x1dcc4de8dec75d7aab85b567b6ccd41ad312451b948a7413f0a142fd40d49347",
                    "coinbase": "0x2adc25665018aa1fe0e6bc666dac8fc2697ff9ba",
                    "stateRoot": "0xfda7b70d7f86dd5950b17e81e3accdd8f0255d559fba87e21d0feca96469d985",
                    "transactionsTrie": "0x7f6c39a9b3ddbccec0c462e59b95c9f6ec9fa90aee5a8821a83660be780fc059",
                    "receiptTrie": "0xa6677908c35207a41ed99f6ca103b9800625fc2f5582c9cae7526fd5d0122e8b",
                    "bloom": "0x00000000000000000000000000000000000000000000000000000000000000000000000000000000000000000000000000000000000000000000000000000000000000000000000000000000000000000000000000000000000000000000000000000000000000000000000000000000000000000000000000000000000000000000000000000000000000000000000000000000000000000000000000000000000000000000000000000000000000000000000000000000000000000000000000000000000000000000000000000000000000000000000000000000000000000000000000000000000000000000000000000000000000000000000000000000",
                    "difficulty": "0x020000",
                    "number": "0x01",
                    "gasLimit": "0x07270e00",
                    "gasUsed": "0xb3bc",
                    "timestamp": "0x03e8",
                    "extraData": "0x00",
                    "mixHash": "0x0000000000000000000000000000000000000000000000000000000000000000",
                    "nonce": "0x0000000000000000",
                    "baseFeePerGas": "0x07",
                    "hash": "0x215f9b7dabb26889772f1521e0564aa9372dd288e24d8773ffee3f76ce5245c3"
                },
                "transactions": [
                    {
                        "type": "0x00",
                        "chainId": "0x01",
                        "nonce": "0x00",
                        "gasPrice": "0x0a",
                        "gasLimit": "0x0f4240",
                        "to": "0x9b5962eba47fd886ebfcf12678a6e0af53295a2b",
                        "value": "0x01",
                        "data": "0x",
                        "v": "0x25",
                        "r": "0x75eb1f23f80be93310bc6e5c4f4042830f2b869e299dcc1986400b2142ee2944",
                        "s": "0x0c36c4756ac2bfa3329e99b0beebeae5b657e6175d2fe01ed6443e063372aee7",
                        "sender": "0x1ad9bc24818784172ff393bb6f89f094d4d2ca29"
                    }
                ],
                "uncleHeaders": [],
                "receipts": [
                    {
                        "transactionHash": "0x58df153b470311ba8e800cf2fce975aea335a7bcbd44561ae9b265eb882ccc71",
                        "type": "0x00",
                        "cumulativeGasUsed": "0xb3bc",
                        "bloom": "0x00000000000000000000000000000000000000000000000000000000000000000000000000000000000000000000000000000000000000000000000000000000000000000000000000000000000000000000000000000000000000000000000000000000000000000000000000000000000000000000000000000000000000000000000000000000000000000000000000000000000000000000000000000000000000000000000000000000000000000000000000000000000000000000000000000000000000000000000000000000000000000000000000000000000000000000000000000000000000000000000000000000000000000000000000000000",
                        "logs": [],
                        "status": true,
                        "rlp": "0xf901080182b3bcb9010000000000000000000000000000000000000000000000000000000000000000000000000000000000000000000000000000000000000000000000000000000000000000000000000000000000000000000000000000000000000000000000000000000000000000000000000000000000000000000000000000000000000000000000000000000000000000000000000000000000000000000000000000000000000000000000000000000000000000000000000000000000000000000000000000000000000000000000000000000000000000000000000000000000000000000000000000000000000000000000000000000000000000000000000000000000c0"
                    }
                ],
                "rlp": "0xf90261f901f9a0f66aec485eb4f52eac115eece66455b427143d84027730700509d8697434b15ea01dcc4de8dec75d7aab85b567b6ccd41ad312451b948a7413f0a142fd40d49347942adc25665018aa1fe0e6bc666dac8fc2697ff9baa0fda7b70d7f86dd5950b17e81e3accdd8f0255d559fba87e21d0feca96469d985a07f6c39a9b3ddbccec0c462e59b95c9f6ec9fa90aee5a8821a83660be780fc059a0a6677908c35207a41ed99f6ca103b9800625fc2f5582c9cae7526fd5d0122e8bb901000000000000000000000000000000000000000000000000000000000000000000000000000000000000000000000000000000000000000000000000000000000000000000000000000000000000000000000000000000000000000000000000000000000000000000000000000000000000000000000000000000000000000000000000000000000000000000000000000000000000000000000000000000000000000000000000000000000000000000000000000000000000000000000000000000000000000000000000000000000000000000000000000000000000000000000000000000000000000000000000000000000000000000000000000000000083020000018407270e0082b3bc8203e800a0000000000000000000000000000000000000000000000000000000000000000088000000000000000007f862f860800a830f4240949b5962eba47fd886ebfcf12678a6e0af53295a2b018025a075eb1f23f80be93310bc6e5c4f4042830f2b869e299dcc1986400b2142ee2944a00c36c4756ac2bfa3329e99b0beebeae5b657e6175d2fe01ed6443e063372aee7c0",
                "blocknumber": "1"
            }
        ],
        "sealEngine": "NoProof",
        "_info": {
            "hash": "0xb786b942de5476fb0413788ad147b38fe53d00c189b7c179829cbc889738324c",
            "fixture-format": "blockchain_test",
            "comment": "`execution-specs` generated test",
            "filling-transition-tool": "2.19.0",
            "description": "Test EXTCODEHASH/EXTCODESIZE for non-existent and empty accounts.",
            "url": "https://github.com/ethereum/execution-specs/blob/tests-bal@v5.6.1/tests/constantinople/eip1052_extcodehash/test_extcodehash.py#L76",
            "metadata": {
                "opcode_count": {}
            },
            "reference-spec": "https://github.com/ethereum/EIPs/blob/master/EIPS/eip-1052.md",
            "reference-spec-version": "2dcbc7ce1563e9624e137e9d447374600af876fa"
        }
    }
}