{
    "tests/constantinople/eip1052_extcodehash/test_extcodehash.py::test_extcodehash_via_call[fork_London-blockchain_test_from_state_test-opcode_CALLCODE]": {
        "network": "London",
        "genesisBlockHeader": {
            "parentHash": "0x0000000000000000000000000000000000000000000000000000000000000000",
            "uncleHash": "0x1dcc4de8dec75d7aab85b567b6ccd41ad312451b948a7413f0a142fd40d49347",
            "coinbase": "0x0000000000000000000000000000000000000000",
            "stateRoot": "0xf4d49b9a7fffaa8d458a8188f0d99d9eec459ec4c46b7ea633f19ac097474728",
            "transactionsTrie": "0x56e81f171bcc55a6ff8345e692c0f86e5b48e01b996cadc001622fb5e363b421",
            "receiptTrie": "0x56e81f171bcc55a6ff8345e692c0f86e5b48e01b996cadc001622fb5e363b421",
            "bloom": "0x00000000000000000000000000000000000000000000000000000000000000000000000000000000000000000000000000000000000000000000000000000000000000000000000000000000000000000000000000000000000000000000000000000000000000000000000000000000000000000000000000000000000000000000000000000000000000000000000000000000000000000000000000000000000000000000000000000000000000000000000000000000000000000000000000000000000000000000000000000000000000000000000000000000000000000000000000000000000000000000000000000000000000000000000000000000",
            "difficulty": "0x020000",
            "number": "0x00",
            "gasLimit": "0x07270e00",
            "gasUsed": "0x00",
            "timestamp": "0x00",
            "extraData": "0x00",
            "mixHash": "0x0000000000000000000000000000000000000000000000000000000000000000",
            "nonce": "0x0000000000000000",
            "baseFeePerGas": "0x07",
            "hash": "0x04c782e220687e777e8baecf36f9dab278ce27644b03a609e8ec02c1c1498100"
        },
        "pre": {
            "0xa743b0fd5c4186098bfb6e2302ddb5a6f48c1a9f": {
                "nonce": "0x01",
                "balance": "0x00",
                "code": "0x1234",
                "storage": {}
            },
            "0x3eced02499f6f40d0c87b38faf5f14583b488e09": {
                "nonce": "0x01",
                "balance": "0x00",
                "code": "0x73a743b0fd5c4186098bfb6e2302ddb5a6f48c1a9f3f60005273a743b0fd5c4186098bfb6e2302ddb5a6f48c1a9f3b60205260406000f3",
                "storage": {}
            },
            "0xa5db8f2556eac8e1dc1969d790fba6a4c96b78be": {
                "nonce": "0x01",
                "balance": "0x00",
                "code": "0x60006000600060006000733eced02499f6f40d0c87b38faf5f14583b488e09620249f0f26040600060003e600051600055602051600155",
                "storage": {}
            },
            "0x1ad9bc24818784172ff393bb6f89f094d4d2ca29": {
                "nonce": "0x00",
                "balance": "0x3635c9adc5dea00000",
                "code": "0x",
                "storage": {}
            }
        },
        "postState": {
            "0xa743b0fd5c4186098bfb6e2302ddb5a6f48c1a9f": {
                "nonce": "0x01",
                "balance": "0x00",
                "code": "0x1234",
                "storage": {}
            },
            "0x3eced02499f6f40d0c87b38faf5f14583b488e09": {
                "nonce": "0x01",
                "balance": "0x00",
                "code": "0x73a743b0fd5c4186098bfb6e2302ddb5a6f48c1a9f3f60005273a743b0fd5c4186098bfb6e2302ddb5a6f48c1a9f3b60205260406000f3",
                "storage": {}
            },
            "0xa5db8f2556eac8e1dc1969d790fba6a4c96b78be": {
                "nonce": "0x01",
                "balance": "0x00",
                "code": "0x60006000600060006000733eced02499f6f40d0c87b38faf5f14583b488e09620249f0f26040600060003e600051600055602051600155",
                "storage": {
                    "0x00": "0x56570de287d73cd1cb6092bb8fdee6173974955fdef345ae579ee9f475ea7432",
                    "0x01": "0x02"
                }
            },
            "0x1ad9bc24818784172ff393bb6f89f094d4d2ca29": {
                "nonce": "0x01",
                "balance": "0x3635c9adc5de953a76",
                "code": "0x",
                "storage": {}
            },
            "0x2adc25665018aa1fe0e6bc666dac8fc2697ff9ba": {
                "nonce": "0x00",
                "balance": "0x1bc16d674ecb3b43",
                "code": "0x",
                "storage": {}
            }
        },
        "lastblockhash": "0x6437726a16417735357d6298e350f9c3992c9cec52a3a02ab7d2803d84c36cdb",
        "config": {
            "network": "London",
            "chainid": "0x01"
        },
        "genesisRLP": "0xf901faf901f5a00000000000000000000000000000000000000000000000000000000000000000a01dcc4de8dec75d7aab85b567b6ccd41ad312451b948a7413f0a142fd40d49347940000000000000000000000000000000000000000a0f4d49b9a7fffaa8d458a8188f0d99d9eec459ec4c46b7ea633f19ac097474728a056e81f171bcc55a6ff8345e692c0f86e5b48e01b996cadc001622fb5e363b421a056e81f171bcc55a6ff8345e692c0f86e5b48e01b996cadc001622fb5e363b421b901000000000000000000000000000000000000000000000000000000000000000000000000000000000000000000000000000000000000000000000000000000000000000000000000000000000000000000000000000000000000000000000000000000000000000000000000000000000000000000000000000000000000000000000000000000000000000000000000000000000000000000000000000000000000000000000000000000000000000000000000000000000000000000000000000000000000000000000000000000000000000000000000000000000000000000000000000000000000000000000000000000000000000000000000000000000083020000808407270e00808000a0000000000000000000000000000000000000000000000000000000000000000088000000000000000007c0c0",
        "blocks": [
            {
                "blockHeader": {
                    "parentHash": "0x04c782e220687e777e8baecf36f9dab278ce27644b03a609e8ec02c1c1498100",
                    "uncleHash": "0x1dcc4de8dec75d7aab85b567b6ccd41ad312451b948a7413f0a142fd40d49347",
                    "coinbase": "0x2adc25665018aa1fe0e6bc666dac8fc2697ff9ba",
                    "stateRoot": "0x76cf35dd185b4572fa262924363a419e2f7fc55a48df2c95e823e1449c4d8d2f",
                    "transactionsTrie": "0x2f3331097cb21a448e58f62642bae8d4cf07166d63e6f1179855e95536b20f13",
                    "receiptTrie": "0x68b71bb9426560262a1727d9b678a7918c0c8db33b0a49a225672b7ae578e970",
                    "bloom": "0x00000000000000000000000000000000000000000000000000000000000000000000000000000000000000000000000000000000000000000000000000000000000000000000000000000000000000000000000000000000000000000000000000000000000000000000000000000000000000000000000000000000000000000000000000000000000000000000000000000000000000000000000000000000000000000000000000000000000000000000000000000000000000000000000000000000000000000000000000000000000000000000000000000000000000000000000000000000000000000000000000000000000000000000000000000000",
                    "difficulty": "0x020000",
                    "number": "0x01",
                    "gasLimit": "0x07270e00",
                    "gasUsed": "0x0113c1",
                    "timestamp": "0x03e8",
                    "extraData": "0x00",
                    "mixHash": "0x0000000000000000000000000000000000000000000000000000000000000000",
                    "nonce": "0x0000000000000000",
                    "baseFeePerGas": "0x07",
                    "hash": "0x6437726a16417735357d6298e350f9c3992c9cec52a3a02ab7d2803d84c36cdb"
                },
                "transactions": [
                    {
                        "type": "0x00",
                        "chainId": "0x01",
                        "nonce": "0x00",
                        "gasPrice": "0x0a",
                        "gasLimit": "0x0f4240",
                        "to": "0xa5db8f2556eac8e1dc1969d790fba6a4c96b78be",
                        "value": "0x00",
                        "data": "0x",
                        "v": "0x26",
                        "r": "0xcfdc3d4028dcc83528b2883da4eead1e03c7b41b7c47ffa1e756419aa2ece557",
                        "s": "0x67acfdfb67df749d7c202c014f9e47c95cbc0680114cc6253210e08c54ddddb7",
                        "sender": "0x1ad9bc24818784172ff393bb6f89f094d4d2ca29"
                    }
                ],
                "uncleHeaders": [],
                "receipts": [
                    {
                        "transactionHash": "0x160b12b6fdb2b838a4f72f56adfd46b87a671bebfa5212c13af0662e539204d9",
                        "type": "0x00",
                        "cumulativeGasUsed": "0x0113c1",
                        "bloom": "0x00000000000000000000000000000000000000000000000000000000000000000000000000000000000000000000000000000000000000000000000000000000000000000000000000000000000000000000000000000000000000000000000000000000000000000000000000000000000000000000000000000000000000000000000000000000000000000000000000000000000000000000000000000000000000000000000000000000000000000000000000000000000000000000000000000000000000000000000000000000000000000000000000000000000000000000000000000000000000000000000000000000000000000000000000000000",
                        "logs": [],
                        "status": true,
                        "rlp": "0xf9010901830113c1b9010000000000000000000000000000000000000000000000000000000000000000000000000000000000000000000000000000000000000000000000000000000000000000000000000000000000000000000000000000000000000000000000000000000000000000000000000000000000000000000000000000000000000000000000000000000000000000000000000000000000000000000000000000000000000000000000000000000000000000000000000000000000000000000000000000000000000000000000000000000000000000000000000000000000000000000000000000000000000000000000000000000000000000000000000000000000c0"
                    }
                ],
                "rlp": "0xf90262f901faa004c782e220687e777e8baecf36f9dab278ce27644b03a609e8ec02c1c1498100a01dcc4de8dec75d7aab85b567b6ccd41ad312451b948a7413f0a142fd40d49347942adc25665018aa1fe0e6bc666dac8fc2697ff9baa076cf35dd185b4572fa262924363a419e2f7fc55a48df2c95e823e1449c4d8d2fa02f3331097cb21a448e58f62642bae8d4cf07166d63e6f1179855e95536b20f13a068b71bb9426560262a1727d9b678a7918c0c8db33b0a49a225672b7ae578e970b901000000000000000000000000000000000000000000000000000000000000000000000000000000000000000000000000000000000000000000000000000000000000000000000000000000000000000000000000000000000000000000000000000000000000000000000000000000000000000000000000000000000000000000000000000000000000000000000000000000000000000000000000000000000000000000000000000000000000000000000000000000000000000000000000000000000000000000000000000000000000000000000000000000000000000000000000000000000000000000000000000000000000000000000000000000000083020000018407270e00830113c18203e800a0000000000000000000000000000000000000000000000000000000000000000088000000000000000007f862f860800a830f424094a5db8f2556eac8e1dc1969d790fba6a4c96b78be808026a0cfdc3d4028dcc83528b2883da4eead1e03c7b41b7c47ffa1e756419aa2ece557a067acfdfb67df749d7c202c014f9e47c95cbc0680114cc6253210e08c54ddddb7c0",
                "blocknumber": "1"
            }
        ],
        "sealEngine": "NoProof",
        "_info": {
            "hash": "0x650d28caf054cd5639d9e470f61cebe984c41a483d2d95d672087c7e226ce08c",
            "fixture-format": "blockchain_test",
            "comment": "`execution-specs` generated test",
            "filling-transition-tool": "2.19.0",
            "description": "Test EXTCODEHASH/EXTCODESIZE queried via different call types.\n\nA helper contract computes EXTCODEHASH and EXTCODESIZE of a target\nand returns them. The caller invokes the helper using the\nparametrized call type and stores the results.",
            "url": "https://github.com/ethereum/execution-specs/blob/tests-bal@v5.6.0/tests/constantinople/eip1052_extcodehash/test_extcodehash.py#L676",
            "metadata": {
                "opcode_count": {}
            },
            "reference-spec": "https://github.com/ethereum/EIPs/blob/master/EIPS/eip-1052.md",
            "reference-spec-version": "2dcbc7ce1563e9624e137e9d447374600af876fa"
        }
    },
    "tests/constantinople/eip1052_extcodehash/test_extcodehash.py::test_extcodehash_via_call[fork_London-blockchain_test_from_state_test-opcode_CALL]": {
        "network": "London",
        "genesisBlockHeader": {
            "parentHash": "0x0000000000000000000000000000000000000000000000000000000000000000",
            "uncleHash": "0x1dcc4de8dec75d7aab85b567b6ccd41ad312451b948a7413f0a142fd40d49347",
            "coinbase": "0x0000000000000000000000000000000000000000",
            "stateRoot": "0xfe71e3e07ff8911153b49433cf10c7277808dc19d05d44668e3ce5f571052fc2",
            "transactionsTrie": "0x56e81f171bcc55a6ff8345e692c0f86e5b48e01b996cadc001622fb5e363b421",
            "receiptTrie": "0x56e81f171bcc55a6ff8345e692c0f86e5b48e01b996cadc001622fb5e363b421",
            "bloom": "0x00000000000000000000000000000000000000000000000000000000000000000000000000000000000000000000000000000000000000000000000000000000000000000000000000000000000000000000000000000000000000000000000000000000000000000000000000000000000000000000000000000000000000000000000000000000000000000000000000000000000000000000000000000000000000000000000000000000000000000000000000000000000000000000000000000000000000000000000000000000000000000000000000000000000000000000000000000000000000000000000000000000000000000000000000000000",
            "difficulty": "0x020000",
            "number": "0x00",
            "gasLimit": "0x07270e00",
            "gasUsed": "0x00",
            "timestamp": "0x00",
            "extraData": "0x00",
            "mixHash": "0x0000000000000000000000000000000000000000000000000000000000000000",
            "nonce": "0x0000000000000000",
            "baseFeePerGas": "0x07",
            "hash": "0xe3ce344bb841e22f6ed0f0015e5997fe698fa7a4da9aca172b5d1a9ded543f36"
        },
        "pre": {
            "0xa743b0fd5c4186098bfb6e2302ddb5a6f48c1a9f": {
                "nonce": "0x01",
                "balance": "0x00",
                "code": "0x1234",
                "storage": {}
            },
            "0x3eced02499f6f40d0c87b38faf5f14583b488e09": {
                "nonce": "0x01",
                "balance": "0x00",
                "code": "0x73a743b0fd5c4186098bfb6e2302ddb5a6f48c1a9f3f60005273a743b0fd5c4186098bfb6e2302ddb5a6f48c1a9f3b60205260406000f3",
                "storage": {}
            },
            "0x7a4eda5ee749324495615bdbc5d8b6ce4092a2f9": {
                "nonce": "0x01",
                "balance": "0x00",
                "code": "0x60006000600060006000733eced02499f6f40d0c87b38faf5f14583b488e09620249f0f16040600060003e600051600055602051600155",
                "storage": {}
            },
            "0x1ad9bc24818784172ff393bb6f89f094d4d2ca29": {
                "nonce": "0x00",
                "balance": "0x3635c9adc5dea00000",
                "code": "0x",
                "storage": {}
            }
        },
        "postState": {
            "0xa743b0fd5c4186098bfb6e2302ddb5a6f48c1a9f": {
                "nonce": "0x01",
                "balance": "0x00",
                "code": "0x1234",
                "storage": {}
            },
            "0x3eced02499f6f40d0c87b38faf5f14583b488e09": {
                "nonce": "0x01",
                "balance": "0x00",
                "code": "0x73a743b0fd5c4186098bfb6e2302ddb5a6f48c1a9f3f60005273a743b0fd5c4186098bfb6e2302ddb5a6f48c1a9f3b60205260406000f3",
                "storage": {}
            },
            "0x7a4eda5ee749324495615bdbc5d8b6ce4092a2f9": {
                "nonce": "0x01",
                "balance": "0x00",
                "code": "0x60006000600060006000733eced02499f6f40d0c87b38faf5f14583b488e09620249f0f16040600060003e600051600055602051600155",
                "storage": {
                    "0x00": "0x56570de287d73cd1cb6092bb8fdee6173974955fdef345ae579ee9f475ea7432",
                    "0x01": "0x02"
                }
            },
            "0x1ad9bc24818784172ff393bb6f89f094d4d2ca29": {
                "nonce": "0x01",
                "balance": "0x3635c9adc5de953a76",
                "code": "0x",
                "storage": {}
            },
            "0x2adc25665018aa1fe0e6bc666dac8fc2697ff9ba": {
                "nonce": "0x00",
                "balance": "0x1bc16d674ecb3b43",
                "code": "0x",
                "storage": {}
            }
        },
        "lastblockhash": "0xa0a212ac9a65ea1e880f69492f29dba8743ffb084153789b2ce1233786e22579",
        "config": {
            "network": "London",
            "chainid": "0x01"
        },
        "genesisRLP": "0xf901faf901f5a00000000000000000000000000000000000000000000000000000000000000000a01dcc4de8dec75d7aab85b567b6ccd41ad312451b948a7413f0a142fd40d49347940000000000000000000000000000000000000000a0fe71e3e07ff8911153b49433cf10c7277808dc19d05d44668e3ce5f571052fc2a056e81f171bcc55a6ff8345e692c0f86e5b48e01b996cadc001622fb5e363b421a056e81f171bcc55a6ff8345e692c0f86e5b48e01b996cadc001622fb5e363b421b901000000000000000000000000000000000000000000000000000000000000000000000000000000000000000000000000000000000000000000000000000000000000000000000000000000000000000000000000000000000000000000000000000000000000000000000000000000000000000000000000000000000000000000000000000000000000000000000000000000000000000000000000000000000000000000000000000000000000000000000000000000000000000000000000000000000000000000000000000000000000000000000000000000000000000000000000000000000000000000000000000000000000000000000000000000000083020000808407270e00808000a0000000000000000000000000000000000000000000000000000000000000000088000000000000000007c0c0",
        "blocks": [
            {
                "blockHeader": {
                    "parentHash": "0xe3ce344bb841e22f6ed0f0015e5997fe698fa7a4da9aca172b5d1a9ded543f36",
                    "uncleHash": "0x1dcc4de8dec75d7aab85b567b6ccd41ad312451b948a7413f0a142fd40d49347",
                    "coinbase": "0x2adc25665018aa1fe0e6bc666dac8fc2697ff9ba",
                    "stateRoot": "0x73eb9a76dd06eb9824baf6cbede2849bb63b6a1760d1c29b55a23fb9dfdcf564",
                    "transactionsTrie": "0x48a6320a94fd6528a79aeabb256129201f41a14c31ac8332c78b64eae18d15a4",
                    "receiptTrie": "0x68b71bb9426560262a1727d9b678a7918c0c8db33b0a49a225672b7ae578e970",
                    "bloom": "0x00000000000000000000000000000000000000000000000000000000000000000000000000000000000000000000000000000000000000000000000000000000000000000000000000000000000000000000000000000000000000000000000000000000000000000000000000000000000000000000000000000000000000000000000000000000000000000000000000000000000000000000000000000000000000000000000000000000000000000000000000000000000000000000000000000000000000000000000000000000000000000000000000000000000000000000000000000000000000000000000000000000000000000000000000000000",
                    "difficulty": "0x020000",
                    "number": "0x01",
                    "gasLimit": "0x07270e00",
                    "gasUsed": "0x0113c1",
                    "timestamp": "0x03e8",
                    "extraData": "0x00",
                    "mixHash": "0x0000000000000000000000000000000000000000000000000000000000000000",
                    "nonce": "0x0000000000000000",
                    "baseFeePerGas": "0x07",
                    "hash": "0xa0a212ac9a65ea1e880f69492f29dba8743ffb084153789b2ce1233786e22579"
                },
                "transactions": [
                    {
                        "type": "0x00",
                        "chainId": "0x01",
                        "nonce": "0x00",
                        "gasPrice": "0x0a",
                        "gasLimit": "0x0f4240",
                        "to": "0x7a4eda5ee749324495615bdbc5d8b6ce4092a2f9",
                        "value": "0x00",
                        "data": "0x",
                        "v": "0x26",
                        "r": "0xb327dc9f6c8109a44767e9791d27c85836850a14f088a18ab0744edbcf3aba5a",
                        "s": "0x047d695c4ffa500bb9a2f3eaaeea32760ce9ff00c8bb094794e9ae407693f41b",
                        "sender": "0x1ad9bc24818784172ff393bb6f89f094d4d2ca29"
                    }
                ],
                "uncleHeaders": [],
                "receipts": [
                    {
                        "transactionHash": "0x37b57cb5a46b6a96faa2f11c34d4e7440688c052826ce18c52619909fadc31fb",
                        "type": "0x00",
                        "cumulativeGasUsed": "0x0113c1",
                        "bloom": "0x00000000000000000000000000000000000000000000000000000000000000000000000000000000000000000000000000000000000000000000000000000000000000000000000000000000000000000000000000000000000000000000000000000000000000000000000000000000000000000000000000000000000000000000000000000000000000000000000000000000000000000000000000000000000000000000000000000000000000000000000000000000000000000000000000000000000000000000000000000000000000000000000000000000000000000000000000000000000000000000000000000000000000000000000000000000",
                        "logs": [],
                        "status": true,
                        "rlp": "0xf9010901830113c1b9010000000000000000000000000000000000000000000000000000000000000000000000000000000000000000000000000000000000000000000000000000000000000000000000000000000000000000000000000000000000000000000000000000000000000000000000000000000000000000000000000000000000000000000000000000000000000000000000000000000000000000000000000000000000000000000000000000000000000000000000000000000000000000000000000000000000000000000000000000000000000000000000000000000000000000000000000000000000000000000000000000000000000000000000000000000000c0"
                    }
                ],
                "rlp": "0xf90262f901faa0e3ce344bb841e22f6ed0f0015e5997fe698fa7a4da9aca172b5d1a9ded543f36a01dcc4de8dec75d7aab85b567b6ccd41ad312451b948a7413f0a142fd40d49347942adc25665018aa1fe0e6bc666dac8fc2697ff9baa073eb9a76dd06eb9824baf6cbede2849bb63b6a1760d1c29b55a23fb9dfdcf564a048a6320a94fd6528a79aeabb256129201f41a14c31ac8332c78b64eae18d15a4a068b71bb9426560262a1727d9b678a7918c0c8db33b0a49a225672b7ae578e970b901000000000000000000000000000000000000000000000000000000000000000000000000000000000000000000000000000000000000000000000000000000000000000000000000000000000000000000000000000000000000000000000000000000000000000000000000000000000000000000000000000000000000000000000000000000000000000000000000000000000000000000000000000000000000000000000000000000000000000000000000000000000000000000000000000000000000000000000000000000000000000000000000000000000000000000000000000000000000000000000000000000000000000000000000000000000083020000018407270e00830113c18203e800a0000000000000000000000000000000000000000000000000000000000000000088000000000000000007f862f860800a830f4240947a4eda5ee749324495615bdbc5d8b6ce4092a2f9808026a0b327dc9f6c8109a44767e9791d27c85836850a14f088a18ab0744edbcf3aba5aa0047d695c4ffa500bb9a2f3eaaeea32760ce9ff00c8bb094794e9ae407693f41bc0",
                "blocknumber": "1"
            }
        ],
        "sealEngine": "NoProof",
        "_info": {
            "hash": "0x9d5174949c6de7214abc1ba135670513f92592405259affdb7441b86541660f7",
            "fixture-format": "blockchain_test",
            "comment": "`execution-specs` generated test",
            "filling-transition-tool": "2.19.0",
            "description": "Test EXTCODEHASH/EXTCODESIZE queried via different call types.\n\nA helper contract computes EXTCODEHASH and EXTCODESIZE of a target\nand returns them. The caller invokes the helper using the\nparametrized call type and stores the results.",
            "url": "https://github.com/ethereum/execution-specs/blob/tests-bal@v5.6.0/tests/constantinople/eip1052_extcodehash/test_extcodehash.py#L676",
            "metadata": {
                "opcode_count": {}
            },
            "reference-spec": "https://github.com/ethereum/EIPs/blob/master/EIPS/eip-1052.md",
            "reference-spec-version": "2dcbc7ce1563e9624e137e9d447374600af876fa"
        }
    },
    "tests/constantinople/eip1052_extcodehash/test_extcodehash.py::test_extcodehash_via_call[fork_London-blockchain_test_from_state_test-opcode_DELEGATECALL]": {
        "network": "London",
        "genesisBlockHeader": {
            "parentHash": "0x0000000000000000000000000000000000000000000000000000000000000000",
            "uncleHash": "0x1dcc4de8dec75d7aab85b567b6ccd41ad312451b948a7413f0a142fd40d49347",
            "coinbase": "0x0000000000000000000000000000000000000000",
            "stateRoot": "0x57dba3586a529010b7bd08c2e82fec2eb583b42d2fa78590b5279da4d8cb9940",
            "transactionsTrie": "0x56e81f171bcc55a6ff8345e692c0f86e5b48e01b996cadc001622fb5e363b421",
            "receiptTrie": "0x56e81f171bcc55a6ff8345e692c0f86e5b48e01b996cadc001622fb5e363b421",
            "bloom": "0x00000000000000000000000000000000000000000000000000000000000000000000000000000000000000000000000000000000000000000000000000000000000000000000000000000000000000000000000000000000000000000000000000000000000000000000000000000000000000000000000000000000000000000000000000000000000000000000000000000000000000000000000000000000000000000000000000000000000000000000000000000000000000000000000000000000000000000000000000000000000000000000000000000000000000000000000000000000000000000000000000000000000000000000000000000000",
            "difficulty": "0x020000",
            "number": "0x00",
            "gasLimit": "0x07270e00",
            "gasUsed": "0x00",
            "timestamp": "0x00",
            "extraData": "0x00",
            "mixHash": "0x0000000000000000000000000000000000000000000000000000000000000000",
            "nonce": "0x0000000000000000",
            "baseFeePerGas": "0x07",
            "hash": "0x25436fb82affbd28ff12daf57d129b3a91acfcde561d25123e0923ca071f7f0a"
        },
        "pre": {
            "0xa743b0fd5c4186098bfb6e2302ddb5a6f48c1a9f": {
                "nonce": "0x01",
                "balance": "0x00",
                "code": "0x1234",
                "storage": {}
            },
            "0x3eced02499f6f40d0c87b38faf5f14583b488e09": {
                "nonce": "0x01",
                "balance": "0x00",
                "code": "0x73a743b0fd5c4186098bfb6e2302ddb5a6f48c1a9f3f60005273a743b0fd5c4186098bfb6e2302ddb5a6f48c1a9f3b60205260406000f3",
                "storage": {}
            },
            "0xff280cecb2391b4f68058e24365d7b764f9e20a3": {
                "nonce": "0x01",
                "balance": "0x00",
                "code": "0x6000600060006000733eced02499f6f40d0c87b38faf5f14583b488e09620249f0f46040600060003e600051600055602051600155",
                "storage": {}
            },
            "0x1ad9bc24818784172ff393bb6f89f094d4d2ca29": {
                "nonce": "0x00",
                "balance": "0x3635c9adc5dea00000",
                "code": "0x",
                "storage": {}
            }
        },
        "postState": {
            "0xa743b0fd5c4186098bfb6e2302ddb5a6f48c1a9f": {
                "nonce": "0x01",
                "balance": "0x00",
                "code": "0x1234",
                "storage": {}
            },
            "0x3eced02499f6f40d0c87b38faf5f14583b488e09": {
                "nonce": "0x01",
                "balance": "0x00",
                "code": "0x73a743b0fd5c4186098bfb6e2302ddb5a6f48c1a9f3f60005273a743b0fd5c4186098bfb6e2302ddb5a6f48c1a9f3b60205260406000f3",
                "storage": {}
            },
            "0xff280cecb2391b4f68058e24365d7b764f9e20a3": {
                "nonce": "0x01",
                "balance": "0x00",
                "code": "0x6000600060006000733eced02499f6f40d0c87b38faf5f14583b488e09620249f0f46040600060003e600051600055602051600155",
                "storage": {
                    "0x00": "0x56570de287d73cd1cb6092bb8fdee6173974955fdef345ae579ee9f475ea7432",
                    "0x01": "0x02"
                }
            },
            "0x1ad9bc24818784172ff393bb6f89f094d4d2ca29": {
                "nonce": "0x01",
                "balance": "0x3635c9adc5de953a94",
                "code": "0x",
                "storage": {}
            },
            "0x2adc25665018aa1fe0e6bc666dac8fc2697ff9ba": {
                "nonce": "0x00",
                "balance": "0x1bc16d674ecb3b3a",
                "code": "0x",
                "storage": {}
            }
        },
        "lastblockhash": "0x0dd5f3f600483ea7e836f9ba26ba55ac6c2b4b418dccf3836de101449618510f",
        "config": {
            "network": "London",
            "chainid": "0x01"
        },
        "genesisRLP": "0xf901faf901f5a00000000000000000000000000000000000000000000000000000000000000000a01dcc4de8dec75d7aab85b567b6ccd41ad312451b948a7413f0a142fd40d49347940000000000000000000000000000000000000000a057dba3586a529010b7bd08c2e82fec2eb583b42d2fa78590b5279da4d8cb9940a056e81f171bcc55a6ff8345e692c0f86e5b48e01b996cadc001622fb5e363b421a056e81f171bcc55a6ff8345e692c0f86e5b48e01b996cadc001622fb5e363b421b901000000000000000000000000000000000000000000000000000000000000000000000000000000000000000000000000000000000000000000000000000000000000000000000000000000000000000000000000000000000000000000000000000000000000000000000000000000000000000000000000000000000000000000000000000000000000000000000000000000000000000000000000000000000000000000000000000000000000000000000000000000000000000000000000000000000000000000000000000000000000000000000000000000000000000000000000000000000000000000000000000000000000000000000000000000000083020000808407270e00808000a0000000000000000000000000000000000000000000000000000000000000000088000000000000000007c0c0",
        "blocks": [
            {
                "blockHeader": {
                    "parentHash": "0x25436fb82affbd28ff12daf57d129b3a91acfcde561d25123e0923ca071f7f0a",
                    "uncleHash": "0x1dcc4de8dec75d7aab85b567b6ccd41ad312451b948a7413f0a142fd40d49347",
                    "coinbase": "0x2adc25665018aa1fe0e6bc666dac8fc2697ff9ba",
                    "stateRoot": "0xd57e7f233b6593860fc161cfb65a359fe81510cba8c4d9fc63725272f8a695eb",
                    "transactionsTrie": "0x9b268e05d692f6d2f85de192d4caa7fca634b0855d0718ddb88b7337bb35201e",
                    "receiptTrie": "0x2bcbc18f87b49d22074b9f34b814c7b8d71580cb350f6a79cb0ada1e2b8509cd",
                    "bloom": "0x00000000000000000000000000000000000000000000000000000000000000000000000000000000000000000000000000000000000000000000000000000000000000000000000000000000000000000000000000000000000000000000000000000000000000000000000000000000000000000000000000000000000000000000000000000000000000000000000000000000000000000000000000000000000000000000000000000000000000000000000000000000000000000000000000000000000000000000000000000000000000000000000000000000000000000000000000000000000000000000000000000000000000000000000000000000",
                    "difficulty": "0x020000",
                    "number": "0x01",
                    "gasLimit": "0x07270e00",
                    "gasUsed": "0x0113be",
                    "timestamp": "0x03e8",
                    "extraData": "0x00",
                    "mixHash": "0x0000000000000000000000000000000000000000000000000000000000000000",
                    "nonce": "0x0000000000000000",
                    "baseFeePerGas": "0x07",
                    "hash": "0x0dd5f3f600483ea7e836f9ba26ba55ac6c2b4b418dccf3836de101449618510f"
                },
                "transactions": [
                    {
                        "type": "0x00",
                        "chainId": "0x01",
                        "nonce": "0x00",
                        "gasPrice": "0x0a",
                        "gasLimit": "0x0f4240",
                        "to": "0xff280cecb2391b4f68058e24365d7b764f9e20a3",
                        "value": "0x00",
                        "data": "0x",
                        "v": "0x25",
                        "r": "0x729e172b162bfa0d726e73c8ac188aaa97d9c43184e2137614107a7cde78d2e0",
                        "s": "0x0f1248002f1bf368598658558b0c0f3c1049c486a30bb2f863209ed310ad5647",
                        "sender": "0x1ad9bc24818784172ff393bb6f89f094d4d2ca29"
                    }
                ],
                "uncleHeaders": [],
                "receipts": [
                    {
                        "transactionHash": "0xcda4c5bfb7e08cc90f1684bd850d7ffd715a0bf9b442c430d0553e28ab67a58d",
                        "type": "0x00",
                        "cumulativeGasUsed": "0x0113be",
                        "bloom": "0x00000000000000000000000000000000000000000000000000000000000000000000000000000000000000000000000000000000000000000000000000000000000000000000000000000000000000000000000000000000000000000000000000000000000000000000000000000000000000000000000000000000000000000000000000000000000000000000000000000000000000000000000000000000000000000000000000000000000000000000000000000000000000000000000000000000000000000000000000000000000000000000000000000000000000000000000000000000000000000000000000000000000000000000000000000000",
                        "logs": [],
                        "status": true,
                        "rlp": "0xf9010901830113beb9010000000000000000000000000000000000000000000000000000000000000000000000000000000000000000000000000000000000000000000000000000000000000000000000000000000000000000000000000000000000000000000000000000000000000000000000000000000000000000000000000000000000000000000000000000000000000000000000000000000000000000000000000000000000000000000000000000000000000000000000000000000000000000000000000000000000000000000000000000000000000000000000000000000000000000000000000000000000000000000000000000000000000000000000000000000000c0"
                    }
                ],
                "rlp": "0xf90262f901faa025436fb82affbd28ff12daf57d129b3a91acfcde561d25123e0923ca071f7f0aa01dcc4de8dec75d7aab85b567b6ccd41ad312451b948a7413f0a142fd40d49347942adc25665018aa1fe0e6bc666dac8fc2697ff9baa0d57e7f233b6593860fc161cfb65a359fe81510cba8c4d9fc63725272f8a695eba09b268e05d692f6d2f85de192d4caa7fca634b0855d0718ddb88b7337bb35201ea02bcbc18f87b49d22074b9f34b814c7b8d71580cb350f6a79cb0ada1e2b8509cdb901000000000000000000000000000000000000000000000000000000000000000000000000000000000000000000000000000000000000000000000000000000000000000000000000000000000000000000000000000000000000000000000000000000000000000000000000000000000000000000000000000000000000000000000000000000000000000000000000000000000000000000000000000000000000000000000000000000000000000000000000000000000000000000000000000000000000000000000000000000000000000000000000000000000000000000000000000000000000000000000000000000000000000000000000000000000083020000018407270e00830113be8203e800a0000000000000000000000000000000000000000000000000000000000000000088000000000000000007f862f860800a830f424094ff280cecb2391b4f68058e24365d7b764f9e20a3808025a0729e172b162bfa0d726e73c8ac188aaa97d9c43184e2137614107a7cde78d2e0a00f1248002f1bf368598658558b0c0f3c1049c486a30bb2f863209ed310ad5647c0",
                "blocknumber": "1"
            }
        ],
        "sealEngine": "NoProof",
        "_info": {
            "hash": "0x0f1ba94bf2284d0e423d2867b907055529bfe34f6a04f226c6ff24f0a318a838",
            "fixture-format": "blockchain_test",
            "comment": "`execution-specs` generated test",
            "filling-transition-tool": "2.19.0",
            "description": "Test EXTCODEHASH/EXTCODESIZE queried via different call types.\n\nA helper contract computes EXTCODEHASH and EXTCODESIZE of a target\nand returns them. The caller invokes the helper using the\nparametrized call type and stores the results.",
            "url": "https://github.com/ethereum/execution-specs/blob/tests-bal@v5.6.0/tests/constantinople/eip1052_extcodehash/test_extcodehash.py#L676",
            "metadata": {
                "opcode_count": {}
            },
            "reference-spec": "https://github.com/ethereum/EIPs/blob/master/EIPS/eip-1052.md",
            "reference-spec-version": "2dcbc7ce1563e9624e137e9d447374600af876fa"
        }
    },
    "tests/constantinople/eip1052_extcodehash/test_extcodehash.py::test_extcodehash_via_call[fork_London-blockchain_test_from_state_test-opcode_STATICCALL]": {
        "network": "London",
        "genesisBlockHeader": {
            "parentHash": "0x0000000000000000000000000000000000000000000000000000000000000000",
            "uncleHash": "0x1dcc4de8dec75d7aab85b567b6ccd41ad312451b948a7413f0a142fd40d49347",
            "coinbase": "0x0000000000000000000000000000000000000000",
            "stateRoot": "0x0b88b890600dac334d2868f1555ed78d5ecf8075f14ae107b524f05afde9c01b",
            "transactionsTrie": "0x56e81f171bcc55a6ff8345e692c0f86e5b48e01b996cadc001622fb5e363b421",
            "receiptTrie": "0x56e81f171bcc55a6ff8345e692c0f86e5b48e01b996cadc001622fb5e363b421",
            "bloom": "0x00000000000000000000000000000000000000000000000000000000000000000000000000000000000000000000000000000000000000000000000000000000000000000000000000000000000000000000000000000000000000000000000000000000000000000000000000000000000000000000000000000000000000000000000000000000000000000000000000000000000000000000000000000000000000000000000000000000000000000000000000000000000000000000000000000000000000000000000000000000000000000000000000000000000000000000000000000000000000000000000000000000000000000000000000000000",
            "difficulty": "0x020000",
            "number": "0x00",
            "gasLimit": "0x07270e00",
            "gasUsed": "0x00",
            "timestamp": "0x00",
            "extraData": "0x00",
            "mixHash": "0x0000000000000000000000000000000000000000000000000000000000000000",
            "nonce": "0x0000000000000000",
            "baseFeePerGas": "0x07",
            "hash": "0x556adb4e5b792eafa3ea875858800693ce8a406f1b4346ee1d3f9ade034a8919"
        },
        "pre": {
            "0xa743b0fd5c4186098bfb6e2302ddb5a6f48c1a9f": {
                "nonce": "0x01",
                "balance": "0x00",
                "code": "0x1234",
                "storage": {}
            },
            "0x3eced02499f6f40d0c87b38faf5f14583b488e09": {
                "nonce": "0x01",
                "balance": "0x00",
                "code": "0x73a743b0fd5c4186098bfb6e2302ddb5a6f48c1a9f3f60005273a743b0fd5c4186098bfb6e2302ddb5a6f48c1a9f3b60205260406000f3",
                "storage": {}
            },
            "0x3285b036e3a1769b0fe239a214c065048d7bfd13": {
                "nonce": "0x01",
                "balance": "0x00",
                "code": "0x6000600060006000733eced02499f6f40d0c87b38faf5f14583b488e09620249f0fa6040600060003e600051600055602051600155",
                "storage": {}
            },
            "0x1ad9bc24818784172ff393bb6f89f094d4d2ca29": {
                "nonce": "0x00",
                "balance": "0x3635c9adc5dea00000",
                "code": "0x",
                "storage": {}
            }
        },
        "postState": {
            "0xa743b0fd5c4186098bfb6e2302ddb5a6f48c1a9f": {
                "nonce": "0x01",
                "balance": "0x00",
                "code": "0x1234",
                "storage": {}
            },
            "0x3eced02499f6f40d0c87b38faf5f14583b488e09": {
                "nonce": "0x01",
                "balance": "0x00",
                "code": "0x73a743b0fd5c4186098bfb6e2302ddb5a6f48c1a9f3f60005273a743b0fd5c4186098bfb6e2302ddb5a6f48c1a9f3b60205260406000f3",
                "storage": {}
            },
            "0x3285b036e3a1769b0fe239a214c065048d7bfd13": {
                "nonce": "0x01",
                "balance": "0x00",
                "code": "0x6000600060006000733eced02499f6f40d0c87b38faf5f14583b488e09620249f0fa6040600060003e600051600055602051600155",
                "storage": {
                    "0x00": "0x56570de287d73cd1cb6092bb8fdee6173974955fdef345ae579ee9f475ea7432",
                    "0x01": "0x02"
                }
            },
            "0x1ad9bc24818784172ff393bb6f89f094d4d2ca29": {
                "nonce": "0x01",
                "balance": "0x3635c9adc5de953a94",
                "code": "0x",
                "storage": {}
            },
            "0x2adc25665018aa1fe0e6bc666dac8fc2697ff9ba": {
                "nonce": "0x00",
                "balance": "0x1bc16d674ecb3b3a",
                "code": "0x",
                "storage": {}
            }
        },
        "lastblockhash": "0xa182624a4d3bc365113b5ac1609dfcc98b8ff7a8ba33943c1daa102fdc53346a",
        "config": {
            "network": "London",
            "chainid": "0x01"
        },
        "genesisRLP": "0xf901faf901f5a00000000000000000000000000000000000000000000000000000000000000000a01dcc4de8dec75d7aab85b567b6ccd41ad312451b948a7413f0a142fd40d49347940000000000000000000000000000000000000000a00b88b890600dac334d2868f1555ed78d5ecf8075f14ae107b524f05afde9c01ba056e81f171bcc55a6ff8345e692c0f86e5b48e01b996cadc001622fb5e363b421a056e81f171bcc55a6ff8345e692c0f86e5b48e01b996cadc001622fb5e363b421b901000000000000000000000000000000000000000000000000000000000000000000000000000000000000000000000000000000000000000000000000000000000000000000000000000000000000000000000000000000000000000000000000000000000000000000000000000000000000000000000000000000000000000000000000000000000000000000000000000000000000000000000000000000000000000000000000000000000000000000000000000000000000000000000000000000000000000000000000000000000000000000000000000000000000000000000000000000000000000000000000000000000000000000000000000000000083020000808407270e00808000a0000000000000000000000000000000000000000000000000000000000000000088000000000000000007c0c0",
        "blocks": [
            {
                "blockHeader": {
                    "parentHash": "0x556adb4e5b792eafa3ea875858800693ce8a406f1b4346ee1d3f9ade034a8919",
                    "uncleHash": "0x1dcc4de8dec75d7aab85b567b6ccd41ad312451b948a7413f0a142fd40d49347",
                    "coinbase": "0x2adc25665018aa1fe0e6bc666dac8fc2697ff9ba",
                    "stateRoot": "0x4ddd77d30e95ac6b17fe6e423f725554b936a28450e3c789229f9308bf135a5f",
                    "transactionsTrie": "0x66311c963d39aa16f2a25f129c91ae665ca91a5beed072f66a6c40bcd2294d2c",
                    "receiptTrie": "0x2bcbc18f87b49d22074b9f34b814c7b8d71580cb350f6a79cb0ada1e2b8509cd",
                    "bloom": "0x00000000000000000000000000000000000000000000000000000000000000000000000000000000000000000000000000000000000000000000000000000000000000000000000000000000000000000000000000000000000000000000000000000000000000000000000000000000000000000000000000000000000000000000000000000000000000000000000000000000000000000000000000000000000000000000000000000000000000000000000000000000000000000000000000000000000000000000000000000000000000000000000000000000000000000000000000000000000000000000000000000000000000000000000000000000",
                    "difficulty": "0x020000",
                    "number": "0x01",
                    "gasLimit": "0x07270e00",
                    "gasUsed": "0x0113be",
                    "timestamp": "0x03e8",
                    "extraData": "0x00",
                    "mixHash": "0x0000000000000000000000000000000000000000000000000000000000000000",
                    "nonce": "0x0000000000000000",
                    "baseFeePerGas": "0x07",
                    "hash": "0xa182624a4d3bc365113b5ac1609dfcc98b8ff7a8ba33943c1daa102fdc53346a"
                },
                "transactions": [
                    {
                        "type": "0x00",
                        "chainId": "0x01",
                        "nonce": "0x00",
                        "gasPrice": "0x0a",
                        "gasLimit": "0x0f4240",
                        "to": "0x3285b036e3a1769b0fe239a214c065048d7bfd13",
                        "value": "0x00",
                        "data": "0x",
                        "v": "0x25",
                        "r": "0xddc8d9d3d6090e08b08a69fe23a0ff76a81f2207a8414e98dbf3dcb6517724b9",
                        "s": "0x2767294c5c0c389d689d429f8749c9ac30243fc001badfb91c53421b4fec1d9a",
                        "sender": "0x1ad9bc24818784172ff393bb6f89f094d4d2ca29"
                    }
                ],
                "uncleHeaders": [],
                "receipts": [
                    {
                        "transactionHash": "0x67ffe52d77c6d06e02c6809c6d71e48fb89455022687028016579c4a054c6e4a",
                        "type": "0x00",
                        "cumulativeGasUsed": "0x0113be",
                        "bloom": "0x00000000000000000000000000000000000000000000000000000000000000000000000000000000000000000000000000000000000000000000000000000000000000000000000000000000000000000000000000000000000000000000000000000000000000000000000000000000000000000000000000000000000000000000000000000000000000000000000000000000000000000000000000000000000000000000000000000000000000000000000000000000000000000000000000000000000000000000000000000000000000000000000000000000000000000000000000000000000000000000000000000000000000000000000000000000",
                        "logs": [],
                        "status": true,
                        "rlp": "0xf9010901830113beb9010000000000000000000000000000000000000000000000000000000000000000000000000000000000000000000000000000000000000000000000000000000000000000000000000000000000000000000000000000000000000000000000000000000000000000000000000000000000000000000000000000000000000000000000000000000000000000000000000000000000000000000000000000000000000000000000000000000000000000000000000000000000000000000000000000000000000000000000000000000000000000000000000000000000000000000000000000000000000000000000000000000000000000000000000000000000c0"
                    }
                ],
                "rlp": "0xf90262f901faa0556adb4e5b792eafa3ea875858800693ce8a406f1b4346ee1d3f9ade034a8919a01dcc4de8dec75d7aab85b567b6ccd41ad312451b948a7413f0a142fd40d49347942adc25665018aa1fe0e6bc666dac8fc2697ff9baa04ddd77d30e95ac6b17fe6e423f725554b936a28450e3c789229f9308bf135a5fa066311c963d39aa16f2a25f129c91ae665ca91a5beed072f66a6c40bcd2294d2ca02bcbc18f87b49d22074b9f34b814c7b8d71580cb350f6a79cb0ada1e2b8509cdb901000000000000000000000000000000000000000000000000000000000000000000000000000000000000000000000000000000000000000000000000000000000000000000000000000000000000000000000000000000000000000000000000000000000000000000000000000000000000000000000000000000000000000000000000000000000000000000000000000000000000000000000000000000000000000000000000000000000000000000000000000000000000000000000000000000000000000000000000000000000000000000000000000000000000000000000000000000000000000000000000000000000000000000000000000000000083020000018407270e00830113be8203e800a0000000000000000000000000000000000000000000000000000000000000000088000000000000000007f862f860800a830f4240943285b036e3a1769b0fe239a214c065048d7bfd13808025a0ddc8d9d3d6090e08b08a69fe23a0ff76a81f2207a8414e98dbf3dcb6517724b9a02767294c5c0c389d689d429f8749c9ac30243fc001badfb91c53421b4fec1d9ac0",
                "blocknumber": "1"
            }
        ],
        "sealEngine": "NoProof",
        "_info": {
            "hash": "0x934400a8f63c218b1e088c7cf089151c0237fe716ac827a7eebaa52dcf12ddda",
            "fixture-format": "blockchain_test",
            "comment": "`execution-specs` generated test",
            "filling-transition-tool": "2.19.0",
            "description": "Test EXTCODEHASH/EXTCODESIZE queried via different call types.\n\nA helper contract computes EXTCODEHASH and EXTCODESIZE of a target\nand returns them. The caller invokes the helper using the\nparametrized call type and stores the results.",
            "url": "https://github.com/ethereum/execution-specs/blob/tests-bal@v5.6.0/tests/constantinople/eip1052_extcodehash/test_extcodehash.py#L676",
            "metadata": {
                "opcode_count": {}
            },
            "reference-spec": "https://github.com/ethereum/EIPs/blob/master/EIPS/eip-1052.md",
            "reference-spec-version": "2dcbc7ce1563e9624e137e9d447374600af876fa"
        }
    }
}