{
    "tests/constantinople/eip1052_extcodehash/test_extcodehash.py::test_extcodehash_call_to_nonexistent[fork_London-call_opcode_CALL-blockchain_test_from_state_test]": {
        "network": "London",
        "genesisBlockHeader": {
            "parentHash": "0x0000000000000000000000000000000000000000000000000000000000000000",
            "uncleHash": "0x1dcc4de8dec75d7aab85b567b6ccd41ad312451b948a7413f0a142fd40d49347",
            "coinbase": "0x0000000000000000000000000000000000000000",
            "stateRoot": "0x3f4a80c96bc414c70ad43e892369668eb7af9caf67d33f470e3303a715546a95",
            "transactionsTrie": "0x56e81f171bcc55a6ff8345e692c0f86e5b48e01b996cadc001622fb5e363b421",
            "receiptTrie": "0x56e81f171bcc55a6ff8345e692c0f86e5b48e01b996cadc001622fb5e363b421",
            "bloom": "0x00000000000000000000000000000000000000000000000000000000000000000000000000000000000000000000000000000000000000000000000000000000000000000000000000000000000000000000000000000000000000000000000000000000000000000000000000000000000000000000000000000000000000000000000000000000000000000000000000000000000000000000000000000000000000000000000000000000000000000000000000000000000000000000000000000000000000000000000000000000000000000000000000000000000000000000000000000000000000000000000000000000000000000000000000000000",
            "difficulty": "0x020000",
            "number": "0x00",
            "gasLimit": "0x07270e00",
            "gasUsed": "0x00",
            "timestamp": "0x00",
            "extraData": "0x00",
            "mixHash": "0x0000000000000000000000000000000000000000000000000000000000000000",
            "nonce": "0x0000000000000000",
            "baseFeePerGas": "0x07",
            "hash": "0xaf02d85a54808346f0e7c01793afb657a4621a4d76643a937f21d778c340f862"
        },
        "pre": {
            "0x94734f685580564673fa010f5e6957422af24171": {
                "nonce": "0x01",
                "balance": "0x00",
                "code": "0x6000600060006000600073c0f6dc9e5836f54caadbf59cc69346c508e1992b6161a8f160005573c0f6dc9e5836f54caadbf59cc69346c508e1992b3f600155",
                "storage": {
                    "0x01": "0xba5e"
                }
            },
            "0x1ad9bc24818784172ff393bb6f89f094d4d2ca29": {
                "nonce": "0x00",
                "balance": "0x3635c9adc5dea00000",
                "code": "0x",
                "storage": {}
            }
        },
        "postState": {
            "0x94734f685580564673fa010f5e6957422af24171": {
                "nonce": "0x01",
                "balance": "0x00",
                "code": "0x6000600060006000600073c0f6dc9e5836f54caadbf59cc69346c508e1992b6161a8f160005573c0f6dc9e5836f54caadbf59cc69346c508e1992b3f600155",
                "storage": {
                    "0x00": "0x01"
                }
            },
            "0x1ad9bc24818784172ff393bb6f89f094d4d2ca29": {
                "nonce": "0x01",
                "balance": "0x3635c9adc5de98f9f4",
                "code": "0x",
                "storage": {}
            },
            "0x2adc25665018aa1fe0e6bc666dac8fc2697ff9ba": {
                "nonce": "0x00",
                "balance": "0x1bc16d674eca1b6a",
                "code": "0x",
                "storage": {}
            }
        },
        "lastblockhash": "0x08a91b67761385c768ded7dd2af4af163c7f74248efdc9436cc5d3b5a261ddb3",
        "config": {
            "network": "London",
            "chainid": "0x01"
        },
        "genesisRLP": "0xf901faf901f5a00000000000000000000000000000000000000000000000000000000000000000a01dcc4de8dec75d7aab85b567b6ccd41ad312451b948a7413f0a142fd40d49347940000000000000000000000000000000000000000a03f4a80c96bc414c70ad43e892369668eb7af9caf67d33f470e3303a715546a95a056e81f171bcc55a6ff8345e692c0f86e5b48e01b996cadc001622fb5e363b421a056e81f171bcc55a6ff8345e692c0f86e5b48e01b996cadc001622fb5e363b421b901000000000000000000000000000000000000000000000000000000000000000000000000000000000000000000000000000000000000000000000000000000000000000000000000000000000000000000000000000000000000000000000000000000000000000000000000000000000000000000000000000000000000000000000000000000000000000000000000000000000000000000000000000000000000000000000000000000000000000000000000000000000000000000000000000000000000000000000000000000000000000000000000000000000000000000000000000000000000000000000000000000000000000000000000000000000083020000808407270e00808000a0000000000000000000000000000000000000000000000000000000000000000088000000000000000007c0c0",
        "blocks": [
            {
                "blockHeader": {
                    "parentHash": "0xaf02d85a54808346f0e7c01793afb657a4621a4d76643a937f21d778c340f862",
                    "uncleHash": "0x1dcc4de8dec75d7aab85b567b6ccd41ad312451b948a7413f0a142fd40d49347",
                    "coinbase": "0x2adc25665018aa1fe0e6bc666dac8fc2697ff9ba",
                    "stateRoot": "0x0baf5d94df92e770a9209c84143f70bb0fb076eaf1344696b95cb1195eb6b037",
                    "transactionsTrie": "0x9cb27188d302f621abe43c758bf3a6e1e596cb567026762aabbecd127dcd640c",
                    "receiptTrie": "0x77687ca9433183ade8d621a2fa5d1ac3171ece79936065e5023b3eb8092b26b9",
                    "bloom": "0x00000000000000000000000000000000000000000000000000000000000000000000000000000000000000000000000000000000000000000000000000000000000000000000000000000000000000000000000000000000000000000000000000000000000000000000000000000000000000000000000000000000000000000000000000000000000000000000000000000000000000000000000000000000000000000000000000000000000000000000000000000000000000000000000000000000000000000000000000000000000000000000000000000000000000000000000000000000000000000000000000000000000000000000000000000000",
                    "difficulty": "0x020000",
                    "number": "0x01",
                    "gasLimit": "0x07270e00",
                    "gasUsed": "0xb3ce",
                    "timestamp": "0x03e8",
                    "extraData": "0x00",
                    "mixHash": "0x0000000000000000000000000000000000000000000000000000000000000000",
                    "nonce": "0x0000000000000000",
                    "baseFeePerGas": "0x07",
                    "hash": "0x08a91b67761385c768ded7dd2af4af163c7f74248efdc9436cc5d3b5a261ddb3"
                },
                "transactions": [
                    {
                        "type": "0x00",
                        "chainId": "0x01",
                        "nonce": "0x00",
                        "gasPrice": "0x0a",
                        "gasLimit": "0x0f4240",
                        "to": "0x94734f685580564673fa010f5e6957422af24171",
                        "value": "0x00",
                        "data": "0x",
                        "v": "0x25",
                        "r": "0xc1c7946452c4b8901c3b53baa46a1c340499aac35e46857150b067d56834f390",
                        "s": "0x357c0d26c2d9154c265c8bca13572376022eaf5cf0b58bf009e80ed77c3dacc7",
                        "sender": "0x1ad9bc24818784172ff393bb6f89f094d4d2ca29"
                    }
                ],
                "uncleHeaders": [],
                "receipts": [
                    {
                        "transactionHash": "0x56dcc4fb50c68275f67dfc5d6cb00e893e86a54f5cb53abbff6127bf6f64229e",
                        "type": "0x00",
                        "cumulativeGasUsed": "0xb3ce",
                        "bloom": "0x00000000000000000000000000000000000000000000000000000000000000000000000000000000000000000000000000000000000000000000000000000000000000000000000000000000000000000000000000000000000000000000000000000000000000000000000000000000000000000000000000000000000000000000000000000000000000000000000000000000000000000000000000000000000000000000000000000000000000000000000000000000000000000000000000000000000000000000000000000000000000000000000000000000000000000000000000000000000000000000000000000000000000000000000000000000",
                        "logs": [],
                        "status": true,
                        "rlp": "0xf901080182b3ceb9010000000000000000000000000000000000000000000000000000000000000000000000000000000000000000000000000000000000000000000000000000000000000000000000000000000000000000000000000000000000000000000000000000000000000000000000000000000000000000000000000000000000000000000000000000000000000000000000000000000000000000000000000000000000000000000000000000000000000000000000000000000000000000000000000000000000000000000000000000000000000000000000000000000000000000000000000000000000000000000000000000000000000000000000000000000000c0"
                    }
                ],
                "rlp": "0xf90261f901f9a0af02d85a54808346f0e7c01793afb657a4621a4d76643a937f21d778c340f862a01dcc4de8dec75d7aab85b567b6ccd41ad312451b948a7413f0a142fd40d49347942adc25665018aa1fe0e6bc666dac8fc2697ff9baa00baf5d94df92e770a9209c84143f70bb0fb076eaf1344696b95cb1195eb6b037a09cb27188d302f621abe43c758bf3a6e1e596cb567026762aabbecd127dcd640ca077687ca9433183ade8d621a2fa5d1ac3171ece79936065e5023b3eb8092b26b9b901000000000000000000000000000000000000000000000000000000000000000000000000000000000000000000000000000000000000000000000000000000000000000000000000000000000000000000000000000000000000000000000000000000000000000000000000000000000000000000000000000000000000000000000000000000000000000000000000000000000000000000000000000000000000000000000000000000000000000000000000000000000000000000000000000000000000000000000000000000000000000000000000000000000000000000000000000000000000000000000000000000000000000000000000000000000083020000018407270e0082b3ce8203e800a0000000000000000000000000000000000000000000000000000000000000000088000000000000000007f862f860800a830f42409494734f685580564673fa010f5e6957422af24171808025a0c1c7946452c4b8901c3b53baa46a1c340499aac35e46857150b067d56834f390a0357c0d26c2d9154c265c8bca13572376022eaf5cf0b58bf009e80ed77c3dacc7c0",
                "blocknumber": "1"
            }
        ],
        "sealEngine": "NoProof",
        "_info": {
            "hash": "0xb753f6ab76eb0abc067db34fb51201ca22b02dafdace3e1a5199e9a7b37bdf8c",
            "fixture-format": "blockchain_test",
            "comment": "`execution-specs` generated test",
            "filling-transition-tool": "2.19.0",
            "description": "Test EXTCODEHASH after calling a non-existent account.\n\nCall a non-existent address using each call type, then check\nEXTCODEHASH \u2014 it returns 0 because the account does not exist.",
            "url": "https://github.com/ethereum/execution-specs/blob/tests-bal@v5.6.0/tests/constantinople/eip1052_extcodehash/test_extcodehash.py#L1210",
            "metadata": {
                "opcode_count": {}
            },
            "reference-spec": "https://github.com/ethereum/EIPs/blob/master/EIPS/eip-1052.md",
            "reference-spec-version": "2dcbc7ce1563e9624e137e9d447374600af876fa"
        }
    },
    "tests/constantinople/eip1052_extcodehash/test_extcodehash.py::test_extcodehash_call_to_nonexistent[fork_London-call_opcode_CALLCODE-blockchain_test_from_state_test]": {
        "network": "London",
        "genesisBlockHeader": {
            "parentHash": "0x0000000000000000000000000000000000000000000000000000000000000000",
            "uncleHash": "0x1dcc4de8dec75d7aab85b567b6ccd41ad312451b948a7413f0a142fd40d49347",
            "coinbase": "0x0000000000000000000000000000000000000000",
            "stateRoot": "0x5647a72243d700dbd5c4794a560cb2eaf8a7a996e38bdc933842cf7e9e9a9227",
            "transactionsTrie": "0x56e81f171bcc55a6ff8345e692c0f86e5b48e01b996cadc001622fb5e363b421",
            "receiptTrie": "0x56e81f171bcc55a6ff8345e692c0f86e5b48e01b996cadc001622fb5e363b421",
            "bloom": "0x00000000000000000000000000000000000000000000000000000000000000000000000000000000000000000000000000000000000000000000000000000000000000000000000000000000000000000000000000000000000000000000000000000000000000000000000000000000000000000000000000000000000000000000000000000000000000000000000000000000000000000000000000000000000000000000000000000000000000000000000000000000000000000000000000000000000000000000000000000000000000000000000000000000000000000000000000000000000000000000000000000000000000000000000000000000",
            "difficulty": "0x020000",
            "number": "0x00",
            "gasLimit": "0x07270e00",
            "gasUsed": "0x00",
            "timestamp": "0x00",
            "extraData": "0x00",
            "mixHash": "0x0000000000000000000000000000000000000000000000000000000000000000",
            "nonce": "0x0000000000000000",
            "baseFeePerGas": "0x07",
            "hash": "0xcc802c1d290ae6b1628e3403305701d8339670976bc67199c66f15f214b52b6a"
        },
        "pre": {
            "0x5f212d0ccac6ddead31f793e0cd28cc45e914a20": {
                "nonce": "0x01",
                "balance": "0x00",
                "code": "0x6000600060006000600073c0f6dc9e5836f54caadbf59cc69346c508e1992b6161a8f260005573c0f6dc9e5836f54caadbf59cc69346c508e1992b3f600155",
                "storage": {
                    "0x01": "0xba5e"
                }
            },
            "0x1ad9bc24818784172ff393bb6f89f094d4d2ca29": {
                "nonce": "0x00",
                "balance": "0x3635c9adc5dea00000",
                "code": "0x",
                "storage": {}
            }
        },
        "postState": {
            "0x5f212d0ccac6ddead31f793e0cd28cc45e914a20": {
                "nonce": "0x01",
                "balance": "0x00",
                "code": "0x6000600060006000600073c0f6dc9e5836f54caadbf59cc69346c508e1992b6161a8f260005573c0f6dc9e5836f54caadbf59cc69346c508e1992b3f600155",
                "storage": {
                    "0x00": "0x01"
                }
            },
            "0x1ad9bc24818784172ff393bb6f89f094d4d2ca29": {
                "nonce": "0x01",
                "balance": "0x3635c9adc5de98f9f4",
                "code": "0x",
                "storage": {}
            },
            "0x2adc25665018aa1fe0e6bc666dac8fc2697ff9ba": {
                "nonce": "0x00",
                "balance": "0x1bc16d674eca1b6a",
                "code": "0x",
                "storage": {}
            }
        },
        "lastblockhash": "0xc96be41c84331a4157d6dfa8dd4cae4d2e56413382da68b256cd27d61f53898e",
        "config": {
            "network": "London",
            "chainid": "0x01"
        },
        "genesisRLP": "0xf901faf901f5a00000000000000000000000000000000000000000000000000000000000000000a01dcc4de8dec75d7aab85b567b6ccd41ad312451b948a7413f0a142fd40d49347940000000000000000000000000000000000000000a05647a72243d700dbd5c4794a560cb2eaf8a7a996e38bdc933842cf7e9e9a9227a056e81f171bcc55a6ff8345e692c0f86e5b48e01b996cadc001622fb5e363b421a056e81f171bcc55a6ff8345e692c0f86e5b48e01b996cadc001622fb5e363b421b901000000000000000000000000000000000000000000000000000000000000000000000000000000000000000000000000000000000000000000000000000000000000000000000000000000000000000000000000000000000000000000000000000000000000000000000000000000000000000000000000000000000000000000000000000000000000000000000000000000000000000000000000000000000000000000000000000000000000000000000000000000000000000000000000000000000000000000000000000000000000000000000000000000000000000000000000000000000000000000000000000000000000000000000000000000000083020000808407270e00808000a0000000000000000000000000000000000000000000000000000000000000000088000000000000000007c0c0",
        "blocks": [
            {
                "blockHeader": {
                    "parentHash": "0xcc802c1d290ae6b1628e3403305701d8339670976bc67199c66f15f214b52b6a",
                    "uncleHash": "0x1dcc4de8dec75d7aab85b567b6ccd41ad312451b948a7413f0a142fd40d49347",
                    "coinbase": "0x2adc25665018aa1fe0e6bc666dac8fc2697ff9ba",
                    "stateRoot": "0x25508aafea206415855a388412ea20bd24a92f009d445ed54fb39e26976e51b2",
                    "transactionsTrie": "0x33e1084795d52590b7ec8ea3191a1c18d98857d444d20bf1947453d6dddaef60",
                    "receiptTrie": "0x77687ca9433183ade8d621a2fa5d1ac3171ece79936065e5023b3eb8092b26b9",
                    "bloom": "0x00000000000000000000000000000000000000000000000000000000000000000000000000000000000000000000000000000000000000000000000000000000000000000000000000000000000000000000000000000000000000000000000000000000000000000000000000000000000000000000000000000000000000000000000000000000000000000000000000000000000000000000000000000000000000000000000000000000000000000000000000000000000000000000000000000000000000000000000000000000000000000000000000000000000000000000000000000000000000000000000000000000000000000000000000000000",
                    "difficulty": "0x020000",
                    "number": "0x01",
                    "gasLimit": "0x07270e00",
                    "gasUsed": "0xb3ce",
                    "timestamp": "0x03e8",
                    "extraData": "0x00",
                    "mixHash": "0x0000000000000000000000000000000000000000000000000000000000000000",
                    "nonce": "0x0000000000000000",
                    "baseFeePerGas": "0x07",
                    "hash": "0xc96be41c84331a4157d6dfa8dd4cae4d2e56413382da68b256cd27d61f53898e"
                },
                "transactions": [
                    {
                        "type": "0x00",
                        "chainId": "0x01",
                        "nonce": "0x00",
                        "gasPrice": "0x0a",
                        "gasLimit": "0x0f4240",
                        "to": "0x5f212d0ccac6ddead31f793e0cd28cc45e914a20",
                        "value": "0x00",
                        "data": "0x",
                        "v": "0x26",
                        "r": "0x93990805135a860c828a91ba3d260426e5d5005caf12fe225cc2e4d591070154",
                        "s": "0x46d0dc10421caebdb9e510a14b2d45c465b702866dd281b748c00def8604722d",
                        "sender": "0x1ad9bc24818784172ff393bb6f89f094d4d2ca29"
                    }
                ],
                "uncleHeaders": [],
                "receipts": [
                    {
                        "transactionHash": "0xb1be87d82a701375447208d130c99a64a582ee929e4d92c5b3bc64e9ad516c8b",
                        "type": "0x00",
                        "cumulativeGasUsed": "0xb3ce",
                        "bloom": "0x00000000000000000000000000000000000000000000000000000000000000000000000000000000000000000000000000000000000000000000000000000000000000000000000000000000000000000000000000000000000000000000000000000000000000000000000000000000000000000000000000000000000000000000000000000000000000000000000000000000000000000000000000000000000000000000000000000000000000000000000000000000000000000000000000000000000000000000000000000000000000000000000000000000000000000000000000000000000000000000000000000000000000000000000000000000",
                        "logs": [],
                        "status": true,
                        "rlp": "0xf901080182b3ceb9010000000000000000000000000000000000000000000000000000000000000000000000000000000000000000000000000000000000000000000000000000000000000000000000000000000000000000000000000000000000000000000000000000000000000000000000000000000000000000000000000000000000000000000000000000000000000000000000000000000000000000000000000000000000000000000000000000000000000000000000000000000000000000000000000000000000000000000000000000000000000000000000000000000000000000000000000000000000000000000000000000000000000000000000000000000000c0"
                    }
                ],
                "rlp": "0xf90261f901f9a0cc802c1d290ae6b1628e3403305701d8339670976bc67199c66f15f214b52b6aa01dcc4de8dec75d7aab85b567b6ccd41ad312451b948a7413f0a142fd40d49347942adc25665018aa1fe0e6bc666dac8fc2697ff9baa025508aafea206415855a388412ea20bd24a92f009d445ed54fb39e26976e51b2a033e1084795d52590b7ec8ea3191a1c18d98857d444d20bf1947453d6dddaef60a077687ca9433183ade8d621a2fa5d1ac3171ece79936065e5023b3eb8092b26b9b901000000000000000000000000000000000000000000000000000000000000000000000000000000000000000000000000000000000000000000000000000000000000000000000000000000000000000000000000000000000000000000000000000000000000000000000000000000000000000000000000000000000000000000000000000000000000000000000000000000000000000000000000000000000000000000000000000000000000000000000000000000000000000000000000000000000000000000000000000000000000000000000000000000000000000000000000000000000000000000000000000000000000000000000000000000000083020000018407270e0082b3ce8203e800a0000000000000000000000000000000000000000000000000000000000000000088000000000000000007f862f860800a830f4240945f212d0ccac6ddead31f793e0cd28cc45e914a20808026a093990805135a860c828a91ba3d260426e5d5005caf12fe225cc2e4d591070154a046d0dc10421caebdb9e510a14b2d45c465b702866dd281b748c00def8604722dc0",
                "blocknumber": "1"
            }
        ],
        "sealEngine": "NoProof",
        "_info": {
            "hash": "0x57d5ef9e43b6b6bb617677df6e466b41a615146aa60cd346fc39d29a2d28f3ac",
            "fixture-format": "blockchain_test",
            "comment": "`execution-specs` generated test",
            "filling-transition-tool": "2.19.0",
            "description": "Test EXTCODEHASH after calling a non-existent account.\n\nCall a non-existent address using each call type, then check\nEXTCODEHASH \u2014 it returns 0 because the account does not exist.",
            "url": "https://github.com/ethereum/execution-specs/blob/tests-bal@v5.6.0/tests/constantinople/eip1052_extcodehash/test_extcodehash.py#L1210",
            "metadata": {
                "opcode_count": {}
            },
            "reference-spec": "https://github.com/ethereum/EIPs/blob/master/EIPS/eip-1052.md",
            "reference-spec-version": "2dcbc7ce1563e9624e137e9d447374600af876fa"
        }
    },
    "tests/constantinople/eip1052_extcodehash/test_extcodehash.py::test_extcodehash_call_to_nonexistent[fork_London-call_opcode_DELEGATECALL-blockchain_test_from_state_test]": {
        "network": "London",
        "genesisBlockHeader": {
            "parentHash": "0x0000000000000000000000000000000000000000000000000000000000000000",
            "uncleHash": "0x1dcc4de8dec75d7aab85b567b6ccd41ad312451b948a7413f0a142fd40d49347",
            "coinbase": "0x0000000000000000000000000000000000000000",
            "stateRoot": "0x8d22e554556276efe22abb7565dc6e98e1cc62a942bc8055c2dfb57691f5e351",
            "transactionsTrie": "0x56e81f171bcc55a6ff8345e692c0f86e5b48e01b996cadc001622fb5e363b421",
            "receiptTrie": "0x56e81f171bcc55a6ff8345e692c0f86e5b48e01b996cadc001622fb5e363b421",
            "bloom": "0x00000000000000000000000000000000000000000000000000000000000000000000000000000000000000000000000000000000000000000000000000000000000000000000000000000000000000000000000000000000000000000000000000000000000000000000000000000000000000000000000000000000000000000000000000000000000000000000000000000000000000000000000000000000000000000000000000000000000000000000000000000000000000000000000000000000000000000000000000000000000000000000000000000000000000000000000000000000000000000000000000000000000000000000000000000000",
            "difficulty": "0x020000",
            "number": "0x00",
            "gasLimit": "0x07270e00",
            "gasUsed": "0x00",
            "timestamp": "0x00",
            "extraData": "0x00",
            "mixHash": "0x0000000000000000000000000000000000000000000000000000000000000000",
            "nonce": "0x0000000000000000",
            "baseFeePerGas": "0x07",
            "hash": "0x8569d92882008903bcbaf69595e57a05636a7203ae328f6174aee0523fc47137"
        },
        "pre": {
            "0x4f1c36edcc734ea5f5c2f69c6253a2a825c6e9c3": {
                "nonce": "0x01",
                "balance": "0x00",
                "code": "0x600060006000600073c0f6dc9e5836f54caadbf59cc69346c508e1992b6161a8f460005573c0f6dc9e5836f54caadbf59cc69346c508e1992b3f600155",
                "storage": {
                    "0x01": "0xba5e"
                }
            },
            "0x1ad9bc24818784172ff393bb6f89f094d4d2ca29": {
                "nonce": "0x00",
                "balance": "0x3635c9adc5dea00000",
                "code": "0x",
                "storage": {}
            }
        },
        "postState": {
            "0x4f1c36edcc734ea5f5c2f69c6253a2a825c6e9c3": {
                "nonce": "0x01",
                "balance": "0x00",
                "code": "0x600060006000600073c0f6dc9e5836f54caadbf59cc69346c508e1992b6161a8f460005573c0f6dc9e5836f54caadbf59cc69346c508e1992b3f600155",
                "storage": {
                    "0x00": "0x01"
                }
            },
            "0x1ad9bc24818784172ff393bb6f89f094d4d2ca29": {
                "nonce": "0x01",
                "balance": "0x3635c9adc5de98fa12",
                "code": "0x",
                "storage": {}
            },
            "0x2adc25665018aa1fe0e6bc666dac8fc2697ff9ba": {
                "nonce": "0x00",
                "balance": "0x1bc16d674eca1b61",
                "code": "0x",
                "storage": {}
            }
        },
        "lastblockhash": "0xf9e09446db9e0efe31381498aff69fde0c3bdffc16a3eb8d8a64247352731e3c",
        "config": {
            "network": "London",
            "chainid": "0x01"
        },
        "genesisRLP": "0xf901faf901f5a00000000000000000000000000000000000000000000000000000000000000000a01dcc4de8dec75d7aab85b567b6ccd41ad312451b948a7413f0a142fd40d49347940000000000000000000000000000000000000000a08d22e554556276efe22abb7565dc6e98e1cc62a942bc8055c2dfb57691f5e351a056e81f171bcc55a6ff8345e692c0f86e5b48e01b996cadc001622fb5e363b421a056e81f171bcc55a6ff8345e692c0f86e5b48e01b996cadc001622fb5e363b421b901000000000000000000000000000000000000000000000000000000000000000000000000000000000000000000000000000000000000000000000000000000000000000000000000000000000000000000000000000000000000000000000000000000000000000000000000000000000000000000000000000000000000000000000000000000000000000000000000000000000000000000000000000000000000000000000000000000000000000000000000000000000000000000000000000000000000000000000000000000000000000000000000000000000000000000000000000000000000000000000000000000000000000000000000000000000083020000808407270e00808000a0000000000000000000000000000000000000000000000000000000000000000088000000000000000007c0c0",
        "blocks": [
            {
                "blockHeader": {
                    "parentHash": "0x8569d92882008903bcbaf69595e57a05636a7203ae328f6174aee0523fc47137",
                    "uncleHash": "0x1dcc4de8dec75d7aab85b567b6ccd41ad312451b948a7413f0a142fd40d49347",
                    "coinbase": "0x2adc25665018aa1fe0e6bc666dac8fc2697ff9ba",
                    "stateRoot": "0x4808fbaf0dd20695282e20bf6ea57a0197a077edffbe1701ed4da2f76b8ac7e1",
                    "transactionsTrie": "0xb34436a4779b48bed9a08d5cc99ee30b63892103e783a396014b58c47be2dd70",
                    "receiptTrie": "0x23d66267e27ccbddad3ad5e28f388b0f8357482179bc287c973046a7341fc054",
                    "bloom": "0x00000000000000000000000000000000000000000000000000000000000000000000000000000000000000000000000000000000000000000000000000000000000000000000000000000000000000000000000000000000000000000000000000000000000000000000000000000000000000000000000000000000000000000000000000000000000000000000000000000000000000000000000000000000000000000000000000000000000000000000000000000000000000000000000000000000000000000000000000000000000000000000000000000000000000000000000000000000000000000000000000000000000000000000000000000000",
                    "difficulty": "0x020000",
                    "number": "0x01",
                    "gasLimit": "0x07270e00",
                    "gasUsed": "0xb3cb",
                    "timestamp": "0x03e8",
                    "extraData": "0x00",
                    "mixHash": "0x0000000000000000000000000000000000000000000000000000000000000000",
                    "nonce": "0x0000000000000000",
                    "baseFeePerGas": "0x07",
                    "hash": "0xf9e09446db9e0efe31381498aff69fde0c3bdffc16a3eb8d8a64247352731e3c"
                },
                "transactions": [
                    {
                        "type": "0x00",
                        "chainId": "0x01",
                        "nonce": "0x00",
                        "gasPrice": "0x0a",
                        "gasLimit": "0x0f4240",
                        "to": "0x4f1c36edcc734ea5f5c2f69c6253a2a825c6e9c3",
                        "value": "0x00",
                        "data": "0x",
                        "v": "0x25",
                        "r": "0xdd22811bf23a71daf9340eeeb63d62ec2c749f5b817bd7226106a17294edb2ac",
                        "s": "0x072c469b6738233fb44789d734d482bb8ab3dc31b3d8b6aabd76a85c536623c2",
                        "sender": "0x1ad9bc24818784172ff393bb6f89f094d4d2ca29"
                    }
                ],
                "uncleHeaders": [],
                "receipts": [
                    {
                        "transactionHash": "0x46a5891169cf694609040ef3832fc209d78113446319d50dbf9ed7e62433ea37",
                        "type": "0x00",
                        "cumulativeGasUsed": "0xb3cb",
                        "bloom": "0x00000000000000000000000000000000000000000000000000000000000000000000000000000000000000000000000000000000000000000000000000000000000000000000000000000000000000000000000000000000000000000000000000000000000000000000000000000000000000000000000000000000000000000000000000000000000000000000000000000000000000000000000000000000000000000000000000000000000000000000000000000000000000000000000000000000000000000000000000000000000000000000000000000000000000000000000000000000000000000000000000000000000000000000000000000000",
                        "logs": [],
                        "status": true,
                        "rlp": "0xf901080182b3cbb9010000000000000000000000000000000000000000000000000000000000000000000000000000000000000000000000000000000000000000000000000000000000000000000000000000000000000000000000000000000000000000000000000000000000000000000000000000000000000000000000000000000000000000000000000000000000000000000000000000000000000000000000000000000000000000000000000000000000000000000000000000000000000000000000000000000000000000000000000000000000000000000000000000000000000000000000000000000000000000000000000000000000000000000000000000000000c0"
                    }
                ],
                "rlp": "0xf90261f901f9a08569d92882008903bcbaf69595e57a05636a7203ae328f6174aee0523fc47137a01dcc4de8dec75d7aab85b567b6ccd41ad312451b948a7413f0a142fd40d49347942adc25665018aa1fe0e6bc666dac8fc2697ff9baa04808fbaf0dd20695282e20bf6ea57a0197a077edffbe1701ed4da2f76b8ac7e1a0b34436a4779b48bed9a08d5cc99ee30b63892103e783a396014b58c47be2dd70a023d66267e27ccbddad3ad5e28f388b0f8357482179bc287c973046a7341fc054b901000000000000000000000000000000000000000000000000000000000000000000000000000000000000000000000000000000000000000000000000000000000000000000000000000000000000000000000000000000000000000000000000000000000000000000000000000000000000000000000000000000000000000000000000000000000000000000000000000000000000000000000000000000000000000000000000000000000000000000000000000000000000000000000000000000000000000000000000000000000000000000000000000000000000000000000000000000000000000000000000000000000000000000000000000000000083020000018407270e0082b3cb8203e800a0000000000000000000000000000000000000000000000000000000000000000088000000000000000007f862f860800a830f4240944f1c36edcc734ea5f5c2f69c6253a2a825c6e9c3808025a0dd22811bf23a71daf9340eeeb63d62ec2c749f5b817bd7226106a17294edb2aca0072c469b6738233fb44789d734d482bb8ab3dc31b3d8b6aabd76a85c536623c2c0",
                "blocknumber": "1"
            }
        ],
        "sealEngine": "NoProof",
        "_info": {
            "hash": "0x45a88c1d1fc3263b66c994cf2044cb0e24cbc39e16f4e0e95d7d259d441faefa",
            "fixture-format": "blockchain_test",
            "comment": "`execution-specs` generated test",
            "filling-transition-tool": "2.19.0",
            "description": "Test EXTCODEHASH after calling a non-existent account.\n\nCall a non-existent address using each call type, then check\nEXTCODEHASH \u2014 it returns 0 because the account does not exist.",
            "url": "https://github.com/ethereum/execution-specs/blob/tests-bal@v5.6.0/tests/constantinople/eip1052_extcodehash/test_extcodehash.py#L1210",
            "metadata": {
                "opcode_count": {}
            },
            "reference-spec": "https://github.com/ethereum/EIPs/blob/master/EIPS/eip-1052.md",
            "reference-spec-version": "2dcbc7ce1563e9624e137e9d447374600af876fa"
        }
    },
    "tests/constantinople/eip1052_extcodehash/test_extcodehash.py::test_extcodehash_call_to_nonexistent[fork_London-call_opcode_STATICCALL-blockchain_test_from_state_test]": {
        "network": "London",
        "genesisBlockHeader": {
            "parentHash": "0x0000000000000000000000000000000000000000000000000000000000000000",
            "uncleHash": "0x1dcc4de8dec75d7aab85b567b6ccd41ad312451b948a7413f0a142fd40d49347",
            "coinbase": "0x0000000000000000000000000000000000000000",
            "stateRoot": "0x372a18c9a82c0bf1c8062020a2329c537b5894aa09d3022e36d82f249a670f3c",
            "transactionsTrie": "0x56e81f171bcc55a6ff8345e692c0f86e5b48e01b996cadc001622fb5e363b421",
            "receiptTrie": "0x56e81f171bcc55a6ff8345e692c0f86e5b48e01b996cadc001622fb5e363b421",
            "bloom": "0x00000000000000000000000000000000000000000000000000000000000000000000000000000000000000000000000000000000000000000000000000000000000000000000000000000000000000000000000000000000000000000000000000000000000000000000000000000000000000000000000000000000000000000000000000000000000000000000000000000000000000000000000000000000000000000000000000000000000000000000000000000000000000000000000000000000000000000000000000000000000000000000000000000000000000000000000000000000000000000000000000000000000000000000000000000000",
            "difficulty": "0x020000",
            "number": "0x00",
            "gasLimit": "0x07270e00",
            "gasUsed": "0x00",
            "timestamp": "0x00",
            "extraData": "0x00",
            "mixHash": "0x0000000000000000000000000000000000000000000000000000000000000000",
            "nonce": "0x0000000000000000",
            "baseFeePerGas": "0x07",
            "hash": "0xe6d0e9dc6eeda3f44230e3c98db472120052a0f4879c9c7eb94bc497e9369040"
        },
        "pre": {
            "0x83c828a86d4e617068f3a4a6f0cb46594d6b151a": {
                "nonce": "0x01",
                "balance": "0x00",
                "code": "0x600060006000600073c0f6dc9e5836f54caadbf59cc69346c508e1992b6161a8fa60005573c0f6dc9e5836f54caadbf59cc69346c508e1992b3f600155",
                "storage": {
                    "0x01": "0xba5e"
                }
            },
            "0x1ad9bc24818784172ff393bb6f89f094d4d2ca29": {
                "nonce": "0x00",
                "balance": "0x3635c9adc5dea00000",
                "code": "0x",
                "storage": {}
            }
        },
        "postState": {
            "0x83c828a86d4e617068f3a4a6f0cb46594d6b151a": {
                "nonce": "0x01",
                "balance": "0x00",
                "code": "0x600060006000600073c0f6dc9e5836f54caadbf59cc69346c508e1992b6161a8fa60005573c0f6dc9e5836f54caadbf59cc69346c508e1992b3f600155",
                "storage": {
                    "0x00": "0x01"
                }
            },
            "0x1ad9bc24818784172ff393bb6f89f094d4d2ca29": {
                "nonce": "0x01",
                "balance": "0x3635c9adc5de98fa12",
                "code": "0x",
                "storage": {}
            },
            "0x2adc25665018aa1fe0e6bc666dac8fc2697ff9ba": {
                "nonce": "0x00",
                "balance": "0x1bc16d674eca1b61",
                "code": "0x",
                "storage": {}
            }
        },
        "lastblockhash": "0x950b0d5fe7f7c20d8591242ccea15ff48dbe1e0bcd4fe47a8463c1f3dfd1db6c",
        "config": {
            "network": "London",
            "chainid": "0x01"
        },
        "genesisRLP": "0xf901faf901f5a00000000000000000000000000000000000000000000000000000000000000000a01dcc4de8dec75d7aab85b567b6ccd41ad312451b948a7413f0a142fd40d49347940000000000000000000000000000000000000000a0372a18c9a82c0bf1c8062020a2329c537b5894aa09d3022e36d82f249a670f3ca056e81f171bcc55a6ff8345e692c0f86e5b48e01b996cadc001622fb5e363b421a056e81f171bcc55a6ff8345e692c0f86e5b48e01b996cadc001622fb5e363b421b901000000000000000000000000000000000000000000000000000000000000000000000000000000000000000000000000000000000000000000000000000000000000000000000000000000000000000000000000000000000000000000000000000000000000000000000000000000000000000000000000000000000000000000000000000000000000000000000000000000000000000000000000000000000000000000000000000000000000000000000000000000000000000000000000000000000000000000000000000000000000000000000000000000000000000000000000000000000000000000000000000000000000000000000000000000000083020000808407270e00808000a0000000000000000000000000000000000000000000000000000000000000000088000000000000000007c0c0",
        "blocks": [
            {
                "blockHeader": {
                    "parentHash": "0xe6d0e9dc6eeda3f44230e3c98db472120052a0f4879c9c7eb94bc497e9369040",
                    "uncleHash": "0x1dcc4de8dec75d7aab85b567b6ccd41ad312451b948a7413f0a142fd40d49347",
                    "coinbase": "0x2adc25665018aa1fe0e6bc666dac8fc2697ff9ba",
                    "stateRoot": "0xd0bea2a5bb8fe964cc9c6140667bffdacdc0d5503c0fc739dab1f77e858416b0",
                    "transactionsTrie": "0x732a03013891afb63a1591b2ae31eb1a921d1ef22b39f4244df04750719da4cb",
                    "receiptTrie": "0x23d66267e27ccbddad3ad5e28f388b0f8357482179bc287c973046a7341fc054",
                    "bloom": "0x00000000000000000000000000000000000000000000000000000000000000000000000000000000000000000000000000000000000000000000000000000000000000000000000000000000000000000000000000000000000000000000000000000000000000000000000000000000000000000000000000000000000000000000000000000000000000000000000000000000000000000000000000000000000000000000000000000000000000000000000000000000000000000000000000000000000000000000000000000000000000000000000000000000000000000000000000000000000000000000000000000000000000000000000000000000",
                    "difficulty": "0x020000",
                    "number": "0x01",
                    "gasLimit": "0x07270e00",
                    "gasUsed": "0xb3cb",
                    "timestamp": "0x03e8",
                    "extraData": "0x00",
                    "mixHash": "0x0000000000000000000000000000000000000000000000000000000000000000",
                    "nonce": "0x0000000000000000",
                    "baseFeePerGas": "0x07",
                    "hash": "0x950b0d5fe7f7c20d8591242ccea15ff48dbe1e0bcd4fe47a8463c1f3dfd1db6c"
                },
                "transactions": [
                    {
                        "type": "0x00",
                        "chainId": "0x01",
                        "nonce": "0x00",
                        "gasPrice": "0x0a",
                        "gasLimit": "0x0f4240",
                        "to": "0x83c828a86d4e617068f3a4a6f0cb46594d6b151a",
                        "value": "0x00",
                        "data": "0x",
                        "v": "0x26",
                        "r": "0xbcf7a81da18d4acc77d257767d0327bc4a21e40b3cea42c3586b06b9b75ed970",
                        "s": "0x76ac52b469caa50d14bf209f0389cbdfe7f31b745cc4734dd345e389bc25a8de",
                        "sender": "0x1ad9bc24818784172ff393bb6f89f094d4d2ca29"
                    }
                ],
                "uncleHeaders": [],
                "receipts": [
                    {
                        "transactionHash": "0xdd64eab278218eb55da55e37f93990c4499239067bd3bce45d237d1e542faf10",
                        "type": "0x00",
                        "cumulativeGasUsed": "0xb3cb",
                        "bloom": "0x00000000000000000000000000000000000000000000000000000000000000000000000000000000000000000000000000000000000000000000000000000000000000000000000000000000000000000000000000000000000000000000000000000000000000000000000000000000000000000000000000000000000000000000000000000000000000000000000000000000000000000000000000000000000000000000000000000000000000000000000000000000000000000000000000000000000000000000000000000000000000000000000000000000000000000000000000000000000000000000000000000000000000000000000000000000",
                        "logs": [],
                        "status": true,
                        "rlp": "0xf901080182b3cbb9010000000000000000000000000000000000000000000000000000000000000000000000000000000000000000000000000000000000000000000000000000000000000000000000000000000000000000000000000000000000000000000000000000000000000000000000000000000000000000000000000000000000000000000000000000000000000000000000000000000000000000000000000000000000000000000000000000000000000000000000000000000000000000000000000000000000000000000000000000000000000000000000000000000000000000000000000000000000000000000000000000000000000000000000000000000000c0"
                    }
                ],
                "rlp": "0xf90261f901f9a0e6d0e9dc6eeda3f44230e3c98db472120052a0f4879c9c7eb94bc497e9369040a01dcc4de8dec75d7aab85b567b6ccd41ad312451b948a7413f0a142fd40d49347942adc25665018aa1fe0e6bc666dac8fc2697ff9baa0d0bea2a5bb8fe964cc9c6140667bffdacdc0d5503c0fc739dab1f77e858416b0a0732a03013891afb63a1591b2ae31eb1a921d1ef22b39f4244df04750719da4cba023d66267e27ccbddad3ad5e28f388b0f8357482179bc287c973046a7341fc054b901000000000000000000000000000000000000000000000000000000000000000000000000000000000000000000000000000000000000000000000000000000000000000000000000000000000000000000000000000000000000000000000000000000000000000000000000000000000000000000000000000000000000000000000000000000000000000000000000000000000000000000000000000000000000000000000000000000000000000000000000000000000000000000000000000000000000000000000000000000000000000000000000000000000000000000000000000000000000000000000000000000000000000000000000000000000083020000018407270e0082b3cb8203e800a0000000000000000000000000000000000000000000000000000000000000000088000000000000000007f862f860800a830f42409483c828a86d4e617068f3a4a6f0cb46594d6b151a808026a0bcf7a81da18d4acc77d257767d0327bc4a21e40b3cea42c3586b06b9b75ed970a076ac52b469caa50d14bf209f0389cbdfe7f31b745cc4734dd345e389bc25a8dec0",
                "blocknumber": "1"
            }
        ],
        "sealEngine": "NoProof",
        "_info": {
            "hash": "0x2d750135b8c37ae9d73c361a71b190df6227fb17a0f9f0e5dc2e9a490e208b02",
            "fixture-format": "blockchain_test",
            "comment": "`execution-specs` generated test",
            "filling-transition-tool": "2.19.0",
            "description": "Test EXTCODEHASH after calling a non-existent account.\n\nCall a non-existent address using each call type, then check\nEXTCODEHASH \u2014 it returns 0 because the account does not exist.",
            "url": "https://github.com/ethereum/execution-specs/blob/tests-bal@v5.6.0/tests/constantinople/eip1052_extcodehash/test_extcodehash.py#L1210",
            "metadata": {
                "opcode_count": {}
            },
            "reference-spec": "https://github.com/ethereum/EIPs/blob/master/EIPS/eip-1052.md",
            "reference-spec-version": "2dcbc7ce1563e9624e137e9d447374600af876fa"
        }
    }
}