{
    "tests/constantinople/eip1052_extcodehash/test_extcodehash.py::test_extcodehash_changed_account[fork_London-blockchain_test_from_state_test]": {
        "network": "London",
        "genesisBlockHeader": {
            "parentHash": "0x0000000000000000000000000000000000000000000000000000000000000000",
            "uncleHash": "0x1dcc4de8dec75d7aab85b567b6ccd41ad312451b948a7413f0a142fd40d49347",
            "coinbase": "0x0000000000000000000000000000000000000000",
            "stateRoot": "0xd7d6b2871da201de6e8f818923876b8e18d4760d01b9df122ea3b82f5c5073f9",
            "transactionsTrie": "0x56e81f171bcc55a6ff8345e692c0f86e5b48e01b996cadc001622fb5e363b421",
            "receiptTrie": "0x56e81f171bcc55a6ff8345e692c0f86e5b48e01b996cadc001622fb5e363b421",
            "bloom": "0x00000000000000000000000000000000000000000000000000000000000000000000000000000000000000000000000000000000000000000000000000000000000000000000000000000000000000000000000000000000000000000000000000000000000000000000000000000000000000000000000000000000000000000000000000000000000000000000000000000000000000000000000000000000000000000000000000000000000000000000000000000000000000000000000000000000000000000000000000000000000000000000000000000000000000000000000000000000000000000000000000000000000000000000000000000000",
            "difficulty": "0x020000",
            "number": "0x00",
            "gasLimit": "0x07270e00",
            "gasUsed": "0x00",
            "timestamp": "0x00",
            "extraData": "0x00",
            "mixHash": "0x0000000000000000000000000000000000000000000000000000000000000000",
            "nonce": "0x0000000000000000",
            "baseFeePerGas": "0x07",
            "hash": "0xaeef4c61a9f0ca5e4b73e6bdda9e8f9ec14670c8b05244cf191b3f14777bb626"
        },
        "pre": {
            "0x9d8f65e06f4802a78100b82e3db472fc5f86dc2c": {
                "nonce": "0x01",
                "balance": "0x00",
                "code": "0x600060006000f0611234600055",
                "storage": {}
            },
            "0x81255ffb35d17335f1239660ea940d7e1364cb79": {
                "nonce": "0x01",
                "balance": "0x01",
                "code": "0x739d8f65e06f4802a78100b82e3db472fc5f86dc2c3f600055739d8f65e06f4802a78100b82e3db472fc5f86dc2c3b60015560006000600060006001739d8f65e06f4802a78100b82e3db472fc5f86dc2c5af150739d8f65e06f4802a78100b82e3db472fc5f86dc2c3f600255739d8f65e06f4802a78100b82e3db472fc5f86dc2c3b600355",
                "storage": {}
            },
            "0x1ad9bc24818784172ff393bb6f89f094d4d2ca29": {
                "nonce": "0x00",
                "balance": "0x3635c9adc5dea00000",
                "code": "0x",
                "storage": {}
            }
        },
        "postState": {
            "0x9d8f65e06f4802a78100b82e3db472fc5f86dc2c": {
                "nonce": "0x02",
                "balance": "0x01",
                "code": "0x600060006000f0611234600055",
                "storage": {
                    "0x00": "0x1234"
                }
            },
            "0x81255ffb35d17335f1239660ea940d7e1364cb79": {
                "nonce": "0x01",
                "balance": "0x00",
                "code": "0x739d8f65e06f4802a78100b82e3db472fc5f86dc2c3f600055739d8f65e06f4802a78100b82e3db472fc5f86dc2c3b60015560006000600060006001739d8f65e06f4802a78100b82e3db472fc5f86dc2c5af150739d8f65e06f4802a78100b82e3db472fc5f86dc2c3f600255739d8f65e06f4802a78100b82e3db472fc5f86dc2c3b600355",
                "storage": {
                    "0x00": "0xcd8af14e232454162856b58790208d5e2ed419eeca7564a98c489f1fb3a04e68",
                    "0x01": "0x0d",
                    "0x02": "0xcd8af14e232454162856b58790208d5e2ed419eeca7564a98c489f1fb3a04e68",
                    "0x03": "0x0d"
                }
            },
            "0x1ad9bc24818784172ff393bb6f89f094d4d2ca29": {
                "nonce": "0x01",
                "balance": "0x3635c9adc5de858ffe",
                "code": "0x",
                "storage": {}
            },
            "0x067c0272f525d763c0880d7c19b1a492d0d0a545": {
                "nonce": "0x01",
                "balance": "0x00",
                "code": "0x",
                "storage": {}
            },
            "0x2adc25665018aa1fe0e6bc666dac8fc2697ff9ba": {
                "nonce": "0x00",
                "balance": "0x1bc16d674ecfee67",
                "code": "0x",
                "storage": {}
            }
        },
        "lastblockhash": "0x046df5abe44b730d04227fad7ea16f719d1ae836ac85a05af33298036b060484",
        "config": {
            "network": "London",
            "chainid": "0x01"
        },
        "genesisRLP": "0xf901faf901f5a00000000000000000000000000000000000000000000000000000000000000000a01dcc4de8dec75d7aab85b567b6ccd41ad312451b948a7413f0a142fd40d49347940000000000000000000000000000000000000000a0d7d6b2871da201de6e8f818923876b8e18d4760d01b9df122ea3b82f5c5073f9a056e81f171bcc55a6ff8345e692c0f86e5b48e01b996cadc001622fb5e363b421a056e81f171bcc55a6ff8345e692c0f86e5b48e01b996cadc001622fb5e363b421b901000000000000000000000000000000000000000000000000000000000000000000000000000000000000000000000000000000000000000000000000000000000000000000000000000000000000000000000000000000000000000000000000000000000000000000000000000000000000000000000000000000000000000000000000000000000000000000000000000000000000000000000000000000000000000000000000000000000000000000000000000000000000000000000000000000000000000000000000000000000000000000000000000000000000000000000000000000000000000000000000000000000000000000000000000000000083020000808407270e00808000a0000000000000000000000000000000000000000000000000000000000000000088000000000000000007c0c0",
        "blocks": [
            {
                "blockHeader": {
                    "parentHash": "0xaeef4c61a9f0ca5e4b73e6bdda9e8f9ec14670c8b05244cf191b3f14777bb626",
                    "uncleHash": "0x1dcc4de8dec75d7aab85b567b6ccd41ad312451b948a7413f0a142fd40d49347",
                    "coinbase": "0x2adc25665018aa1fe0e6bc666dac8fc2697ff9ba",
                    "stateRoot": "0xe8e5c0edc4ddb1bf8fd6424e89bd527105d57222828d40ff6b4f9d45a101b3cd",
                    "transactionsTrie": "0xb95a0165d241558d72cbe463421ec63f4a3ad7bb769a9e6115cdbdef55fa1f7b",
                    "receiptTrie": "0x01e2b85d0edef445ab276c633f344742001198e54274d64ccbf6dbdee9fa2949",
                    "bloom": "0x00000000000000000000000000000000000000000000000000000000000000000000000000000000000000000000000000000000000000000000000000000000000000000000000000000000000000000000000000000000000000000000000000000000000000000000000000000000000000000000000000000000000000000000000000000000000000000000000000000000000000000000000000000000000000000000000000000000000000000000000000000000000000000000000000000000000000000000000000000000000000000000000000000000000000000000000000000000000000000000000000000000000000000000000000000000",
                    "difficulty": "0x020000",
                    "number": "0x01",
                    "gasLimit": "0x07270e00",
                    "gasUsed": "0x02a4cd",
                    "timestamp": "0x03e8",
                    "extraData": "0x00",
                    "mixHash": "0x0000000000000000000000000000000000000000000000000000000000000000",
                    "nonce": "0x0000000000000000",
                    "baseFeePerGas": "0x07",
                    "hash": "0x046df5abe44b730d04227fad7ea16f719d1ae836ac85a05af33298036b060484"
                },
                "transactions": [
                    {
                        "type": "0x00",
                        "chainId": "0x01",
                        "nonce": "0x00",
                        "gasPrice": "0x0a",
                        "gasLimit": "0x061a80",
                        "to": "0x81255ffb35d17335f1239660ea940d7e1364cb79",
                        "value": "0x00",
                        "data": "0x",
                        "v": "0x26",
                        "r": "0x32a756a1c23e70eaa08d862d4259af79ab956de5a38eda28219675c810f8e746",
                        "s": "0x73fd2e4698543edba526a673a4ceafa405e197b51c483b77ab23fe2c8d307fe5",
                        "sender": "0x1ad9bc24818784172ff393bb6f89f094d4d2ca29"
                    }
                ],
                "uncleHeaders": [],
                "receipts": [
                    {
                        "transactionHash": "0xe986004c291758056a39d7a2d6d3a67c6ef5b3334b65b147c41d676e7e2eda22",
                        "type": "0x00",
                        "cumulativeGasUsed": "0x02a4cd",
                        "bloom": "0x00000000000000000000000000000000000000000000000000000000000000000000000000000000000000000000000000000000000000000000000000000000000000000000000000000000000000000000000000000000000000000000000000000000000000000000000000000000000000000000000000000000000000000000000000000000000000000000000000000000000000000000000000000000000000000000000000000000000000000000000000000000000000000000000000000000000000000000000000000000000000000000000000000000000000000000000000000000000000000000000000000000000000000000000000000000",
                        "logs": [],
                        "status": true,
                        "rlp": "0xf90109018302a4cdb9010000000000000000000000000000000000000000000000000000000000000000000000000000000000000000000000000000000000000000000000000000000000000000000000000000000000000000000000000000000000000000000000000000000000000000000000000000000000000000000000000000000000000000000000000000000000000000000000000000000000000000000000000000000000000000000000000000000000000000000000000000000000000000000000000000000000000000000000000000000000000000000000000000000000000000000000000000000000000000000000000000000000000000000000000000000000c0"
                    }
                ],
                "rlp": "0xf90262f901faa0aeef4c61a9f0ca5e4b73e6bdda9e8f9ec14670c8b05244cf191b3f14777bb626a01dcc4de8dec75d7aab85b567b6ccd41ad312451b948a7413f0a142fd40d49347942adc25665018aa1fe0e6bc666dac8fc2697ff9baa0e8e5c0edc4ddb1bf8fd6424e89bd527105d57222828d40ff6b4f9d45a101b3cda0b95a0165d241558d72cbe463421ec63f4a3ad7bb769a9e6115cdbdef55fa1f7ba001e2b85d0edef445ab276c633f344742001198e54274d64ccbf6dbdee9fa2949b901000000000000000000000000000000000000000000000000000000000000000000000000000000000000000000000000000000000000000000000000000000000000000000000000000000000000000000000000000000000000000000000000000000000000000000000000000000000000000000000000000000000000000000000000000000000000000000000000000000000000000000000000000000000000000000000000000000000000000000000000000000000000000000000000000000000000000000000000000000000000000000000000000000000000000000000000000000000000000000000000000000000000000000000000000000000083020000018407270e008302a4cd8203e800a0000000000000000000000000000000000000000000000000000000000000000088000000000000000007f862f860800a83061a809481255ffb35d17335f1239660ea940d7e1364cb79808026a032a756a1c23e70eaa08d862d4259af79ab956de5a38eda28219675c810f8e746a073fd2e4698543edba526a673a4ceafa405e197b51c483b77ab23fe2c8d307fe5c0",
                "blocknumber": "1"
            }
        ],
        "sealEngine": "NoProof",
        "_info": {
            "hash": "0xfa3be1d6b8669c6bc2de120aa6c67e5cac0cb7d943cbf75ecd34d3d14fb3061a",
            "fixture-format": "blockchain_test",
            "comment": "`execution-specs` generated test",
            "filling-transition-tool": "2.19.0",
            "description": "Test EXTCODEHASH/EXTCODESIZE before and after changing account state.\n\nA secondary contract has its nonce incremented (via CREATE), balance\nincreased (via CALL value), and storage modified (via SSTORE) when\ncalled. The caller verifies that EXTCODEHASH and EXTCODESIZE return\nthe same values before and after these mutations.",
            "url": "https://github.com/ethereum/execution-specs/blob/tests-snobal-devnet-5@v8037.0.0/tests/constantinople/eip1052_extcodehash/test_extcodehash.py#L890",
            "metadata": {
                "opcode_count": {}
            },
            "reference-spec": "https://github.com/ethereum/EIPs/blob/master/EIPS/eip-1052.md",
            "reference-spec-version": "2dcbc7ce1563e9624e137e9d447374600af876fa"
        }
    }
}