{
    "tests/static/state_tests/stCallDelegateCodesCallCodeHomestead/callcallcodecall_010_SuicideEndFiller.json::callcallcodecall_010_SuicideEnd[fork_Cancun-state_test-]": {
        "env": {
            "currentCoinbase": "0x2adc25665018aa1fe0e6bc666dac8fc2697ff9ba",
            "currentGasLimit": "0x01c9c380",
            "currentNumber": "0x01",
            "currentTimestamp": "0x03e8",
            "currentRandom": "0x0000000000000000000000000000000000000000000000000000000000020000",
            "currentDifficulty": "0x00",
            "currentBaseFee": "0x0a",
            "currentExcessBlobGas": "0x00"
        },
        "pre": {
            "0xcc99a2da9c89b4418315931b3a244be3c61a922b": {
                "nonce": "0x00",
                "balance": "0x0de0b6b3a7640000",
                "code": "0x",
                "storage": {}
            },
            "0xb1f9f7c697abbd8fe2f4ebe4f9b5a8873241d27c": {
                "nonce": "0x00",
                "balance": "0x02540be400",
                "code": "0x600160035500",
                "storage": {}
            },
            "0xb1f9f7c697abbd8fe2f4ebe4f9b5a8873241d37c": {
                "nonce": "0x00",
                "balance": "0x0de0b6b3a7640000",
                "code": "0x6040600060406000600073b1f9f7c697abbd8fe2f4ebe4f9b5a8873241d47c620249f0f260005500",
                "storage": {}
            },
            "0xb1f9f7c697abbd8fe2f4ebe4f9b5a8873241d47c": {
                "nonce": "0x00",
                "balance": "0x02540be400",
                "code": "0x604060006040600073b1f9f7c697abbd8fe2f4ebe4f9b5a8873241d57c620186a0f460015500",
                "storage": {}
            },
            "0xb1f9f7c697abbd8fe2f4ebe4f9b5a8873241d57c": {
                "nonce": "0x00",
                "balance": "0x02540be400",
                "code": "0x6040600060406000600073b1f9f7c697abbd8fe2f4ebe4f9b5a8873241d27c61c350f260025573b1f9f7c697abbd8fe2f4ebe4f9b5a8873241d47cff00",
                "storage": {}
            }
        },
        "transaction": {
            "nonce": "0x00",
            "gasPrice": "0x0a",
            "gasLimit": [
                "0x2dc6c0"
            ],
            "to": "0xb1f9f7c697abbd8fe2f4ebe4f9b5a8873241d37c",
            "value": [
                "0x00"
            ],
            "data": [
                "0x"
            ],
            "sender": "0xcc99a2da9c89b4418315931b3a244be3c61a922b",
            "secretKey": "0x89e42a7d27eb0ff7f4674a45b1f9f7c697abbd8fe2f4ebe4f9b5a8873241d27c"
        },
        "post": {
            "Cancun": [
                {
                    "hash": "0xcca043a80a31223d907020da37179e5495daf429cf7a3a354309d6abd322a5e6",
                    "logs": "0x1dcc4de8dec75d7aab85b567b6ccd41ad312451b948a7413f0a142fd40d49347",
                    "txbytes": "0xf860800a832dc6c094b1f9f7c697abbd8fe2f4ebe4f9b5a8873241d37c808026a09da16670396dc55e1a6d9bad904c9d06596921271c0afad3ab88b4565cd50ed0a06aa433b1317ed7f0712ff823cf421c9c63be66c9f085ba0faebaea57a4ba3007",
                    "indexes": {
                        "data": 0,
                        "gas": 0,
                        "value": 0
                    },
                    "state": {
                        "0xcc99a2da9c89b4418315931b3a244be3c61a922b": {
                            "nonce": "0x01",
                            "balance": "0x0de0b6b3a75156d0",
                            "code": "0x",
                            "storage": {}
                        },
                        "0xb1f9f7c697abbd8fe2f4ebe4f9b5a8873241d27c": {
                            "nonce": "0x00",
                            "balance": "0x02540be400",
                            "code": "0x600160035500",
                            "storage": {}
                        },
                        "0xb1f9f7c697abbd8fe2f4ebe4f9b5a8873241d37c": {
                            "nonce": "0x00",
                            "balance": "0x00",
                            "code": "0x6040600060406000600073b1f9f7c697abbd8fe2f4ebe4f9b5a8873241d47c620249f0f260005500",
                            "storage": {
                                "0x03": "0x01",
                                "0x02": "0x01",
                                "0x01": "0x01",
                                "0x00": "0x01"
                            }
                        },
                        "0xb1f9f7c697abbd8fe2f4ebe4f9b5a8873241d47c": {
                            "nonce": "0x00",
                            "balance": "0x0de0b6b5fb6fe400",
                            "code": "0x604060006040600073b1f9f7c697abbd8fe2f4ebe4f9b5a8873241d57c620186a0f460015500",
                            "storage": {}
                        },
                        "0xb1f9f7c697abbd8fe2f4ebe4f9b5a8873241d57c": {
                            "nonce": "0x00",
                            "balance": "0x02540be400",
                            "code": "0x6040600060406000600073b1f9f7c697abbd8fe2f4ebe4f9b5a8873241d27c61c350f260025573b1f9f7c697abbd8fe2f4ebe4f9b5a8873241d47cff00",
                            "storage": {}
                        }
                    }
                }
            ]
        },
        "config": {
            "blobSchedule": {
                "Cancun": {
                    "target": "0x03",
                    "max": "0x06",
                    "baseFeeUpdateFraction": "0x32f0ed"
                }
            },
            "chainid": "0x01"
        },
        "_info": {
            "hash": "0x836dfb365c33ab6a886a2ed6d3b8166cbb074996b696d32e94a6718cfb4ea048",
            "comment": "`execution-spec-tests` generated test",
            "filling-transition-tool": "ethereum-spec-evm-resolver 0.0.5",
            "description": "No description available - add a docstring to the python test class or function.",
            "url": "",
            "fixture-format": "state_test",
            "eels-resolution": {
                "git-url": "https://github.com/marioevz/execution-specs.git",
                "branch": "forks/bpo1",
                "commit": "3387e5f4aedfe99becfdc39b444d6371e25e0924"
            }
        }
    },
    "tests/static/state_tests/stCallDelegateCodesCallCodeHomestead/callcallcodecall_010_SuicideEndFiller.json::callcallcodecall_010_SuicideEnd[fork_Osaka-state_test-]": {
        "env": {
            "currentCoinbase": "0x2adc25665018aa1fe0e6bc666dac8fc2697ff9ba",
            "currentGasLimit": "0x01c9c380",
            "currentNumber": "0x01",
            "currentTimestamp": "0x03e8",
            "currentRandom": "0x0000000000000000000000000000000000000000000000000000000000020000",
            "currentDifficulty": "0x00",
            "currentBaseFee": "0x0a",
            "currentExcessBlobGas": "0x00"
        },
        "pre": {
            "0xcc99a2da9c89b4418315931b3a244be3c61a922b": {
                "nonce": "0x00",
                "balance": "0x0de0b6b3a7640000",
                "code": "0x",
                "storage": {}
            },
            "0xb1f9f7c697abbd8fe2f4ebe4f9b5a8873241d27c": {
                "nonce": "0x00",
                "balance": "0x02540be400",
                "code": "0x600160035500",
                "storage": {}
            },
            "0xb1f9f7c697abbd8fe2f4ebe4f9b5a8873241d37c": {
                "nonce": "0x00",
                "balance": "0x0de0b6b3a7640000",
                "code": "0x6040600060406000600073b1f9f7c697abbd8fe2f4ebe4f9b5a8873241d47c620249f0f260005500",
                "storage": {}
            },
            "0xb1f9f7c697abbd8fe2f4ebe4f9b5a8873241d47c": {
                "nonce": "0x00",
                "balance": "0x02540be400",
                "code": "0x604060006040600073b1f9f7c697abbd8fe2f4ebe4f9b5a8873241d57c620186a0f460015500",
                "storage": {}
            },
            "0xb1f9f7c697abbd8fe2f4ebe4f9b5a8873241d57c": {
                "nonce": "0x00",
                "balance": "0x02540be400",
                "code": "0x6040600060406000600073b1f9f7c697abbd8fe2f4ebe4f9b5a8873241d27c61c350f260025573b1f9f7c697abbd8fe2f4ebe4f9b5a8873241d47cff00",
                "storage": {}
            }
        },
        "transaction": {
            "nonce": "0x00",
            "gasPrice": "0x0a",
            "gasLimit": [
                "0x2dc6c0"
            ],
            "to": "0xb1f9f7c697abbd8fe2f4ebe4f9b5a8873241d37c",
            "value": [
                "0x00"
            ],
            "data": [
                "0x"
            ],
            "sender": "0xcc99a2da9c89b4418315931b3a244be3c61a922b",
            "secretKey": "0x89e42a7d27eb0ff7f4674a45b1f9f7c697abbd8fe2f4ebe4f9b5a8873241d27c"
        },
        "post": {
            "Osaka": [
                {
                    "hash": "0xcca043a80a31223d907020da37179e5495daf429cf7a3a354309d6abd322a5e6",
                    "logs": "0x1dcc4de8dec75d7aab85b567b6ccd41ad312451b948a7413f0a142fd40d49347",
                    "txbytes": "0xf860800a832dc6c094b1f9f7c697abbd8fe2f4ebe4f9b5a8873241d37c808026a09da16670396dc55e1a6d9bad904c9d06596921271c0afad3ab88b4565cd50ed0a06aa433b1317ed7f0712ff823cf421c9c63be66c9f085ba0faebaea57a4ba3007",
                    "indexes": {
                        "data": 0,
                        "gas": 0,
                        "value": 0
                    },
                    "state": {
                        "0xcc99a2da9c89b4418315931b3a244be3c61a922b": {
                            "nonce": "0x01",
                            "balance": "0x0de0b6b3a75156d0",
                            "code": "0x",
                            "storage": {}
                        },
                        "0xb1f9f7c697abbd8fe2f4ebe4f9b5a8873241d27c": {
                            "nonce": "0x00",
                            "balance": "0x02540be400",
                            "code": "0x600160035500",
                            "storage": {}
                        },
                        "0xb1f9f7c697abbd8fe2f4ebe4f9b5a8873241d37c": {
                            "nonce": "0x00",
                            "balance": "0x00",
                            "code": "0x6040600060406000600073b1f9f7c697abbd8fe2f4ebe4f9b5a8873241d47c620249f0f260005500",
                            "storage": {
                                "0x03": "0x01",
                                "0x02": "0x01",
                                "0x01": "0x01",
                                "0x00": "0x01"
                            }
                        },
                        "0xb1f9f7c697abbd8fe2f4ebe4f9b5a8873241d47c": {
                            "nonce": "0x00",
                            "balance": "0x0de0b6b5fb6fe400",
                            "code": "0x604060006040600073b1f9f7c697abbd8fe2f4ebe4f9b5a8873241d57c620186a0f460015500",
                            "storage": {}
                        },
                        "0xb1f9f7c697abbd8fe2f4ebe4f9b5a8873241d57c": {
                            "nonce": "0x00",
                            "balance": "0x02540be400",
                            "code": "0x6040600060406000600073b1f9f7c697abbd8fe2f4ebe4f9b5a8873241d27c61c350f260025573b1f9f7c697abbd8fe2f4ebe4f9b5a8873241d47cff00",
                            "storage": {}
                        }
                    }
                }
            ]
        },
        "config": {
            "blobSchedule": {
                "Cancun": {
                    "target": "0x03",
                    "max": "0x06",
                    "baseFeeUpdateFraction": "0x32f0ed"
                },
                "Prague": {
                    "target": "0x06",
                    "max": "0x09",
                    "baseFeeUpdateFraction": "0x4c6964"
                },
                "Osaka": {
                    "target": "0x06",
                    "max": "0x09",
                    "baseFeeUpdateFraction": "0x4c6964"
                }
            },
            "chainid": "0x01"
        },
        "_info": {
            "hash": "0xbfccc55346feecd15a195193132fab337debf7791524632f223ade97aea9c51e",
            "comment": "`execution-spec-tests` generated test",
            "filling-transition-tool": "ethereum-spec-evm-resolver 0.0.5",
            "description": "No description available - add a docstring to the python test class or function.",
            "url": "",
            "fixture-format": "state_test",
            "eels-resolution": {
                "git-url": "https://github.com/marioevz/execution-specs.git",
                "branch": "forks/bpo1",
                "commit": "3387e5f4aedfe99becfdc39b444d6371e25e0924"
            }
        }
    },
    "tests/static/state_tests/stCallDelegateCodesCallCodeHomestead/callcallcodecall_010_SuicideEndFiller.json::callcallcodecall_010_SuicideEnd[fork_Prague-state_test-]": {
        "env": {
            "currentCoinbase": "0x2adc25665018aa1fe0e6bc666dac8fc2697ff9ba",
            "currentGasLimit": "0x01c9c380",
            "currentNumber": "0x01",
            "currentTimestamp": "0x03e8",
            "currentRandom": "0x0000000000000000000000000000000000000000000000000000000000020000",
            "currentDifficulty": "0x00",
            "currentBaseFee": "0x0a",
            "currentExcessBlobGas": "0x00"
        },
        "pre": {
            "0xcc99a2da9c89b4418315931b3a244be3c61a922b": {
                "nonce": "0x00",
                "balance": "0x0de0b6b3a7640000",
                "code": "0x",
                "storage": {}
            },
            "0xb1f9f7c697abbd8fe2f4ebe4f9b5a8873241d27c": {
                "nonce": "0x00",
                "balance": "0x02540be400",
                "code": "0x600160035500",
                "storage": {}
            },
            "0xb1f9f7c697abbd8fe2f4ebe4f9b5a8873241d37c": {
                "nonce": "0x00",
                "balance": "0x0de0b6b3a7640000",
                "code": "0x6040600060406000600073b1f9f7c697abbd8fe2f4ebe4f9b5a8873241d47c620249f0f260005500",
                "storage": {}
            },
            "0xb1f9f7c697abbd8fe2f4ebe4f9b5a8873241d47c": {
                "nonce": "0x00",
                "balance": "0x02540be400",
                "code": "0x604060006040600073b1f9f7c697abbd8fe2f4ebe4f9b5a8873241d57c620186a0f460015500",
                "storage": {}
            },
            "0xb1f9f7c697abbd8fe2f4ebe4f9b5a8873241d57c": {
                "nonce": "0x00",
                "balance": "0x02540be400",
                "code": "0x6040600060406000600073b1f9f7c697abbd8fe2f4ebe4f9b5a8873241d27c61c350f260025573b1f9f7c697abbd8fe2f4ebe4f9b5a8873241d47cff00",
                "storage": {}
            }
        },
        "transaction": {
            "nonce": "0x00",
            "gasPrice": "0x0a",
            "gasLimit": [
                "0x2dc6c0"
            ],
            "to": "0xb1f9f7c697abbd8fe2f4ebe4f9b5a8873241d37c",
            "value": [
                "0x00"
            ],
            "data": [
                "0x"
            ],
            "sender": "0xcc99a2da9c89b4418315931b3a244be3c61a922b",
            "secretKey": "0x89e42a7d27eb0ff7f4674a45b1f9f7c697abbd8fe2f4ebe4f9b5a8873241d27c"
        },
        "post": {
            "Prague": [
                {
                    "hash": "0xcca043a80a31223d907020da37179e5495daf429cf7a3a354309d6abd322a5e6",
                    "logs": "0x1dcc4de8dec75d7aab85b567b6ccd41ad312451b948a7413f0a142fd40d49347",
                    "txbytes": "0xf860800a832dc6c094b1f9f7c697abbd8fe2f4ebe4f9b5a8873241d37c808026a09da16670396dc55e1a6d9bad904c9d06596921271c0afad3ab88b4565cd50ed0a06aa433b1317ed7f0712ff823cf421c9c63be66c9f085ba0faebaea57a4ba3007",
                    "indexes": {
                        "data": 0,
                        "gas": 0,
                        "value": 0
                    },
                    "state": {
                        "0xcc99a2da9c89b4418315931b3a244be3c61a922b": {
                            "nonce": "0x01",
                            "balance": "0x0de0b6b3a75156d0",
                            "code": "0x",
                            "storage": {}
                        },
                        "0xb1f9f7c697abbd8fe2f4ebe4f9b5a8873241d27c": {
                            "nonce": "0x00",
                            "balance": "0x02540be400",
                            "code": "0x600160035500",
                            "storage": {}
                        },
                        "0xb1f9f7c697abbd8fe2f4ebe4f9b5a8873241d37c": {
                            "nonce": "0x00",
                            "balance": "0x00",
                            "code": "0x6040600060406000600073b1f9f7c697abbd8fe2f4ebe4f9b5a8873241d47c620249f0f260005500",
                            "storage": {
                                "0x03": "0x01",
                                "0x02": "0x01",
                                "0x01": "0x01",
                                "0x00": "0x01"
                            }
                        },
                        "0xb1f9f7c697abbd8fe2f4ebe4f9b5a8873241d47c": {
                            "nonce": "0x00",
                            "balance": "0x0de0b6b5fb6fe400",
                            "code": "0x604060006040600073b1f9f7c697abbd8fe2f4ebe4f9b5a8873241d57c620186a0f460015500",
                            "storage": {}
                        },
                        "0xb1f9f7c697abbd8fe2f4ebe4f9b5a8873241d57c": {
                            "nonce": "0x00",
                            "balance": "0x02540be400",
                            "code": "0x6040600060406000600073b1f9f7c697abbd8fe2f4ebe4f9b5a8873241d27c61c350f260025573b1f9f7c697abbd8fe2f4ebe4f9b5a8873241d47cff00",
                            "storage": {}
                        }
                    }
                }
            ]
        },
        "config": {
            "blobSchedule": {
                "Cancun": {
                    "target": "0x03",
                    "max": "0x06",
                    "baseFeeUpdateFraction": "0x32f0ed"
                },
                "Prague": {
                    "target": "0x06",
                    "max": "0x09",
                    "baseFeeUpdateFraction": "0x4c6964"
                }
            },
            "chainid": "0x01"
        },
        "_info": {
            "hash": "0x967f606cb6d1ae9171d62e244f5aeaba11db1868b75e1704a614cb75c0abb576",
            "comment": "`execution-spec-tests` generated test",
            "filling-transition-tool": "ethereum-spec-evm-resolver 0.0.5",
            "description": "No description available - add a docstring to the python test class or function.",
            "url": "",
            "fixture-format": "state_test",
            "eels-resolution": {
                "git-url": "https://github.com/marioevz/execution-specs.git",
                "branch": "forks/bpo1",
                "commit": "3387e5f4aedfe99becfdc39b444d6371e25e0924"
            }
        }
    }
}