{
    "tests/static/state_tests/stCallDelegateCodesCallCodeHomestead/callcodecallcall_100_OOGMBeforeFiller.json::callcodecallcall_100_OOGMBefore[fork_Cancun-state_test-]": {
        "env": {
            "currentCoinbase": "0x2adc25665018aa1fe0e6bc666dac8fc2697ff9ba",
            "currentGasLimit": "0x01c9c380",
            "currentNumber": "0x01",
            "currentTimestamp": "0x03e8",
            "currentRandom": "0x0000000000000000000000000000000000000000000000000000000000020000",
            "currentDifficulty": "0x00",
            "currentBaseFee": "0x0a",
            "currentExcessBlobGas": "0x00"
        },
        "pre": {
            "0x376d4cb5fbb8a92770497958fcdfb1b1d97c490f": {
                "nonce": "0x00",
                "balance": "0x0de0b6b3a7640000",
                "code": "0x",
                "storage": {}
            },
            "0x1fc4506b95a9bb2c1086086e2a8ae79562aa6326": {
                "nonce": "0x00",
                "balance": "0x00",
                "code": "0x600160035500",
                "storage": {}
            },
            "0x1fc4506b95a9bb2c1086086e2a8ae79562aa6426": {
                "nonce": "0x00",
                "balance": "0x00",
                "code": "0x622fffff6000205060406000604060006000731fc4506b95a9bb2c1086086e2a8ae79562aa632662061a80f260025500",
                "storage": {}
            },
            "0x1fc4506b95a9bb2c1086086e2a8ae79562aa6526": {
                "nonce": "0x00",
                "balance": "0x00",
                "code": "0x60406000604060006000731fc4506b95a9bb2c1086086e2a8ae79562aa6426620927c0f26001556001600b5500",
                "storage": {}
            },
            "0x1fc4506b95a9bb2c1086086e2a8ae79562aa6626": {
                "nonce": "0x00",
                "balance": "0x0de0b6b3a7640000",
                "code": "0x6040600060406000731fc4506b95a9bb2c1086086e2a8ae79562aa6526620c3500f460005500",
                "storage": {}
            }
        },
        "transaction": {
            "nonce": "0x00",
            "gasPrice": "0x0a",
            "gasLimit": [
                "0x0f4240"
            ],
            "to": "0x1fc4506b95a9bb2c1086086e2a8ae79562aa6626",
            "value": [
                "0x00"
            ],
            "data": [
                "0x"
            ],
            "sender": "0x376d4cb5fbb8a92770497958fcdfb1b1d97c490f",
            "secretKey": "0x1e371b89a0e17c40e04f8eb51fc4506b95a9bb2c1086086e2a8ae79562aa6326"
        },
        "post": {
            "Cancun": [
                {
                    "hash": "0x2144341bbd16af4c5369a93f6ba120a62ee01b69756a063ec2c47468d292050f",
                    "logs": "0x1dcc4de8dec75d7aab85b567b6ccd41ad312451b948a7413f0a142fd40d49347",
                    "txbytes": "0xf860800a830f4240941fc4506b95a9bb2c1086086e2a8ae79562aa6626808026a099da08e2c224095004f5561f2eb776969ca0f2a6a54710ef138bd81ecbce603ca07fe6529a2b9c5ed0768b6089cb8d11c0e213c70ba84cb77b9be3868362c75b26",
                    "indexes": {
                        "data": 0,
                        "gas": 0,
                        "value": 0
                    },
                    "state": {
                        "0x376d4cb5fbb8a92770497958fcdfb1b1d97c490f": {
                            "nonce": "0x01",
                            "balance": "0x0de0b6b3a6fd5c1a",
                            "code": "0x",
                            "storage": {}
                        },
                        "0x1fc4506b95a9bb2c1086086e2a8ae79562aa6326": {
                            "nonce": "0x00",
                            "balance": "0x00",
                            "code": "0x600160035500",
                            "storage": {}
                        },
                        "0x1fc4506b95a9bb2c1086086e2a8ae79562aa6426": {
                            "nonce": "0x00",
                            "balance": "0x00",
                            "code": "0x622fffff6000205060406000604060006000731fc4506b95a9bb2c1086086e2a8ae79562aa632662061a80f260025500",
                            "storage": {}
                        },
                        "0x1fc4506b95a9bb2c1086086e2a8ae79562aa6526": {
                            "nonce": "0x00",
                            "balance": "0x00",
                            "code": "0x60406000604060006000731fc4506b95a9bb2c1086086e2a8ae79562aa6426620927c0f26001556001600b5500",
                            "storage": {}
                        },
                        "0x1fc4506b95a9bb2c1086086e2a8ae79562aa6626": {
                            "nonce": "0x00",
                            "balance": "0x0de0b6b3a7640000",
                            "code": "0x6040600060406000731fc4506b95a9bb2c1086086e2a8ae79562aa6526620c3500f460005500",
                            "storage": {
                                "0x0b": "0x01",
                                "0x00": "0x01"
                            }
                        }
                    }
                }
            ]
        },
        "config": {
            "blobSchedule": {
                "Cancun": {
                    "target": "0x03",
                    "max": "0x06",
                    "baseFeeUpdateFraction": "0x32f0ed"
                }
            },
            "chainid": "0x01"
        },
        "_info": {
            "hash": "0x88076067c1385ba601f8444aec2a3ec6522e543965b1bc4b332d2685839d7d7c",
            "comment": "`execution-specs` generated test",
            "filling-transition-tool": "2.18.0rc6",
            "description": "No description available - add a docstring to the python test class or function.",
            "url": "",
            "fixture-format": "state_test"
        }
    },
    "tests/static/state_tests/stCallDelegateCodesCallCodeHomestead/callcodecallcall_100_OOGMBeforeFiller.json::callcodecallcall_100_OOGMBefore[fork_Osaka-state_test-]": {
        "env": {
            "currentCoinbase": "0x2adc25665018aa1fe0e6bc666dac8fc2697ff9ba",
            "currentGasLimit": "0x01c9c380",
            "currentNumber": "0x01",
            "currentTimestamp": "0x03e8",
            "currentRandom": "0x0000000000000000000000000000000000000000000000000000000000020000",
            "currentDifficulty": "0x00",
            "currentBaseFee": "0x0a",
            "currentExcessBlobGas": "0x00"
        },
        "pre": {
            "0x376d4cb5fbb8a92770497958fcdfb1b1d97c490f": {
                "nonce": "0x00",
                "balance": "0x0de0b6b3a7640000",
                "code": "0x",
                "storage": {}
            },
            "0x1fc4506b95a9bb2c1086086e2a8ae79562aa6326": {
                "nonce": "0x00",
                "balance": "0x00",
                "code": "0x600160035500",
                "storage": {}
            },
            "0x1fc4506b95a9bb2c1086086e2a8ae79562aa6426": {
                "nonce": "0x00",
                "balance": "0x00",
                "code": "0x622fffff6000205060406000604060006000731fc4506b95a9bb2c1086086e2a8ae79562aa632662061a80f260025500",
                "storage": {}
            },
            "0x1fc4506b95a9bb2c1086086e2a8ae79562aa6526": {
                "nonce": "0x00",
                "balance": "0x00",
                "code": "0x60406000604060006000731fc4506b95a9bb2c1086086e2a8ae79562aa6426620927c0f26001556001600b5500",
                "storage": {}
            },
            "0x1fc4506b95a9bb2c1086086e2a8ae79562aa6626": {
                "nonce": "0x00",
                "balance": "0x0de0b6b3a7640000",
                "code": "0x6040600060406000731fc4506b95a9bb2c1086086e2a8ae79562aa6526620c3500f460005500",
                "storage": {}
            }
        },
        "transaction": {
            "nonce": "0x00",
            "gasPrice": "0x0a",
            "gasLimit": [
                "0x0f4240"
            ],
            "to": "0x1fc4506b95a9bb2c1086086e2a8ae79562aa6626",
            "value": [
                "0x00"
            ],
            "data": [
                "0x"
            ],
            "sender": "0x376d4cb5fbb8a92770497958fcdfb1b1d97c490f",
            "secretKey": "0x1e371b89a0e17c40e04f8eb51fc4506b95a9bb2c1086086e2a8ae79562aa6326"
        },
        "post": {
            "Osaka": [
                {
                    "hash": "0x2144341bbd16af4c5369a93f6ba120a62ee01b69756a063ec2c47468d292050f",
                    "logs": "0x1dcc4de8dec75d7aab85b567b6ccd41ad312451b948a7413f0a142fd40d49347",
                    "txbytes": "0xf860800a830f4240941fc4506b95a9bb2c1086086e2a8ae79562aa6626808026a099da08e2c224095004f5561f2eb776969ca0f2a6a54710ef138bd81ecbce603ca07fe6529a2b9c5ed0768b6089cb8d11c0e213c70ba84cb77b9be3868362c75b26",
                    "indexes": {
                        "data": 0,
                        "gas": 0,
                        "value": 0
                    },
                    "state": {
                        "0x376d4cb5fbb8a92770497958fcdfb1b1d97c490f": {
                            "nonce": "0x01",
                            "balance": "0x0de0b6b3a6fd5c1a",
                            "code": "0x",
                            "storage": {}
                        },
                        "0x1fc4506b95a9bb2c1086086e2a8ae79562aa6326": {
                            "nonce": "0x00",
                            "balance": "0x00",
                            "code": "0x600160035500",
                            "storage": {}
                        },
                        "0x1fc4506b95a9bb2c1086086e2a8ae79562aa6426": {
                            "nonce": "0x00",
                            "balance": "0x00",
                            "code": "0x622fffff6000205060406000604060006000731fc4506b95a9bb2c1086086e2a8ae79562aa632662061a80f260025500",
                            "storage": {}
                        },
                        "0x1fc4506b95a9bb2c1086086e2a8ae79562aa6526": {
                            "nonce": "0x00",
                            "balance": "0x00",
                            "code": "0x60406000604060006000731fc4506b95a9bb2c1086086e2a8ae79562aa6426620927c0f26001556001600b5500",
                            "storage": {}
                        },
                        "0x1fc4506b95a9bb2c1086086e2a8ae79562aa6626": {
                            "nonce": "0x00",
                            "balance": "0x0de0b6b3a7640000",
                            "code": "0x6040600060406000731fc4506b95a9bb2c1086086e2a8ae79562aa6526620c3500f460005500",
                            "storage": {
                                "0x0b": "0x01",
                                "0x00": "0x01"
                            }
                        }
                    }
                }
            ]
        },
        "config": {
            "blobSchedule": {
                "Cancun": {
                    "target": "0x03",
                    "max": "0x06",
                    "baseFeeUpdateFraction": "0x32f0ed"
                },
                "Prague": {
                    "target": "0x06",
                    "max": "0x09",
                    "baseFeeUpdateFraction": "0x4c6964"
                },
                "Osaka": {
                    "target": "0x06",
                    "max": "0x09",
                    "baseFeeUpdateFraction": "0x4c6964"
                }
            },
            "chainid": "0x01"
        },
        "_info": {
            "hash": "0x03a4aa1023987e2a840d2cda51c8f24f6854089d026b2a8148944597f9c68d64",
            "comment": "`execution-specs` generated test",
            "filling-transition-tool": "2.18.0rc6",
            "description": "No description available - add a docstring to the python test class or function.",
            "url": "",
            "fixture-format": "state_test"
        }
    },
    "tests/static/state_tests/stCallDelegateCodesCallCodeHomestead/callcodecallcall_100_OOGMBeforeFiller.json::callcodecallcall_100_OOGMBefore[fork_Prague-state_test-]": {
        "env": {
            "currentCoinbase": "0x2adc25665018aa1fe0e6bc666dac8fc2697ff9ba",
            "currentGasLimit": "0x01c9c380",
            "currentNumber": "0x01",
            "currentTimestamp": "0x03e8",
            "currentRandom": "0x0000000000000000000000000000000000000000000000000000000000020000",
            "currentDifficulty": "0x00",
            "currentBaseFee": "0x0a",
            "currentExcessBlobGas": "0x00"
        },
        "pre": {
            "0x376d4cb5fbb8a92770497958fcdfb1b1d97c490f": {
                "nonce": "0x00",
                "balance": "0x0de0b6b3a7640000",
                "code": "0x",
                "storage": {}
            },
            "0x1fc4506b95a9bb2c1086086e2a8ae79562aa6326": {
                "nonce": "0x00",
                "balance": "0x00",
                "code": "0x600160035500",
                "storage": {}
            },
            "0x1fc4506b95a9bb2c1086086e2a8ae79562aa6426": {
                "nonce": "0x00",
                "balance": "0x00",
                "code": "0x622fffff6000205060406000604060006000731fc4506b95a9bb2c1086086e2a8ae79562aa632662061a80f260025500",
                "storage": {}
            },
            "0x1fc4506b95a9bb2c1086086e2a8ae79562aa6526": {
                "nonce": "0x00",
                "balance": "0x00",
                "code": "0x60406000604060006000731fc4506b95a9bb2c1086086e2a8ae79562aa6426620927c0f26001556001600b5500",
                "storage": {}
            },
            "0x1fc4506b95a9bb2c1086086e2a8ae79562aa6626": {
                "nonce": "0x00",
                "balance": "0x0de0b6b3a7640000",
                "code": "0x6040600060406000731fc4506b95a9bb2c1086086e2a8ae79562aa6526620c3500f460005500",
                "storage": {}
            }
        },
        "transaction": {
            "nonce": "0x00",
            "gasPrice": "0x0a",
            "gasLimit": [
                "0x0f4240"
            ],
            "to": "0x1fc4506b95a9bb2c1086086e2a8ae79562aa6626",
            "value": [
                "0x00"
            ],
            "data": [
                "0x"
            ],
            "sender": "0x376d4cb5fbb8a92770497958fcdfb1b1d97c490f",
            "secretKey": "0x1e371b89a0e17c40e04f8eb51fc4506b95a9bb2c1086086e2a8ae79562aa6326"
        },
        "post": {
            "Prague": [
                {
                    "hash": "0x2144341bbd16af4c5369a93f6ba120a62ee01b69756a063ec2c47468d292050f",
                    "logs": "0x1dcc4de8dec75d7aab85b567b6ccd41ad312451b948a7413f0a142fd40d49347",
                    "txbytes": "0xf860800a830f4240941fc4506b95a9bb2c1086086e2a8ae79562aa6626808026a099da08e2c224095004f5561f2eb776969ca0f2a6a54710ef138bd81ecbce603ca07fe6529a2b9c5ed0768b6089cb8d11c0e213c70ba84cb77b9be3868362c75b26",
                    "indexes": {
                        "data": 0,
                        "gas": 0,
                        "value": 0
                    },
                    "state": {
                        "0x376d4cb5fbb8a92770497958fcdfb1b1d97c490f": {
                            "nonce": "0x01",
                            "balance": "0x0de0b6b3a6fd5c1a",
                            "code": "0x",
                            "storage": {}
                        },
                        "0x1fc4506b95a9bb2c1086086e2a8ae79562aa6326": {
                            "nonce": "0x00",
                            "balance": "0x00",
                            "code": "0x600160035500",
                            "storage": {}
                        },
                        "0x1fc4506b95a9bb2c1086086e2a8ae79562aa6426": {
                            "nonce": "0x00",
                            "balance": "0x00",
                            "code": "0x622fffff6000205060406000604060006000731fc4506b95a9bb2c1086086e2a8ae79562aa632662061a80f260025500",
                            "storage": {}
                        },
                        "0x1fc4506b95a9bb2c1086086e2a8ae79562aa6526": {
                            "nonce": "0x00",
                            "balance": "0x00",
                            "code": "0x60406000604060006000731fc4506b95a9bb2c1086086e2a8ae79562aa6426620927c0f26001556001600b5500",
                            "storage": {}
                        },
                        "0x1fc4506b95a9bb2c1086086e2a8ae79562aa6626": {
                            "nonce": "0x00",
                            "balance": "0x0de0b6b3a7640000",
                            "code": "0x6040600060406000731fc4506b95a9bb2c1086086e2a8ae79562aa6526620c3500f460005500",
                            "storage": {
                                "0x0b": "0x01",
                                "0x00": "0x01"
                            }
                        }
                    }
                }
            ]
        },
        "config": {
            "blobSchedule": {
                "Cancun": {
                    "target": "0x03",
                    "max": "0x06",
                    "baseFeeUpdateFraction": "0x32f0ed"
                },
                "Prague": {
                    "target": "0x06",
                    "max": "0x09",
                    "baseFeeUpdateFraction": "0x4c6964"
                }
            },
            "chainid": "0x01"
        },
        "_info": {
            "hash": "0x36d90d247fc4ea62511fe245e417cc8c95d6aedcf276aa48a24018ed286444fe",
            "comment": "`execution-specs` generated test",
            "filling-transition-tool": "2.18.0rc6",
            "description": "No description available - add a docstring to the python test class or function.",
            "url": "",
            "fixture-format": "state_test"
        }
    }
}