{
    "tests/static/state_tests/stCallDelegateCodesCallCodeHomestead/callcodecallcodecall_110_OOGMAfterFiller.json::callcodecallcodecall_110_OOGMAfter[fork_Cancun-state_test-]": {
        "env": {
            "currentCoinbase": "0x2adc25665018aa1fe0e6bc666dac8fc2697ff9ba",
            "currentGasLimit": "0x01c9c380",
            "currentNumber": "0x01",
            "currentTimestamp": "0x03e8",
            "currentRandom": "0x0000000000000000000000000000000000000000000000000000000000020000",
            "currentDifficulty": "0x00",
            "currentBaseFee": "0x0a",
            "currentExcessBlobGas": "0x00"
        },
        "pre": {
            "0x8374ac0692ff7c84ca494321f16592d5b3548ae0": {
                "nonce": "0x00",
                "balance": "0x0de0b6b3a7640000",
                "code": "0x",
                "storage": {}
            },
            "0x6f5418ddd6a4f66e354cffb7343f0705c1de79cb": {
                "nonce": "0x00",
                "balance": "0x00",
                "code": "0x600160035500",
                "storage": {}
            },
            "0x6f5418ddd6a4f66e354cffb7343f0705c1de7acb": {
                "nonce": "0x00",
                "balance": "0x00",
                "code": "0x60406000604060006000736f5418ddd6a4f66e354cffb7343f0705c1de79cb62061a80f260025500",
                "storage": {}
            },
            "0x6f5418ddd6a4f66e354cffb7343f0705c1de7bcb": {
                "nonce": "0x00",
                "balance": "0x00",
                "code": "0x6040600060406000736f5418ddd6a4f66e354cffb7343f0705c1de7acb620927c0f4600155622fffff60002000",
                "storage": {}
            },
            "0x6f5418ddd6a4f66e354cffb7343f0705c1de7ccb": {
                "nonce": "0x00",
                "balance": "0x0de0b6b3a7640000",
                "code": "0x6040600060406000736f5418ddd6a4f66e354cffb7343f0705c1de7bcb620c3500f46000556001600b5500",
                "storage": {}
            }
        },
        "transaction": {
            "nonce": "0x00",
            "gasPrice": "0x0a",
            "gasLimit": [
                "0x0f4240"
            ],
            "to": "0x6f5418ddd6a4f66e354cffb7343f0705c1de7ccb",
            "value": [
                "0x00"
            ],
            "data": [
                "0x"
            ],
            "sender": "0x8374ac0692ff7c84ca494321f16592d5b3548ae0",
            "secretKey": "0x796d3e468156ff5b563369cc6f5418ddd6a4f66e354cffb7343f0705c1de79cb"
        },
        "post": {
            "Cancun": [
                {
                    "hash": "0x6057d61b22aaa8c999dbc3479691a727de87d1cb2b757ff745cabbdab494786a",
                    "logs": "0x1dcc4de8dec75d7aab85b567b6ccd41ad312451b948a7413f0a142fd40d49347",
                    "txbytes": "0xf860800a830f4240946f5418ddd6a4f66e354cffb7343f0705c1de7ccb808025a09d64e88a03b76b126f4ae241ab86e2a231ebc23f3e9920448b26a79458caf6bda005b52a28f01b647d79dcb95c95011f58120446865598fb6dd2d0e7f37a1fc12c",
                    "indexes": {
                        "data": 0,
                        "gas": 0,
                        "value": 0
                    },
                    "state": {
                        "0x8374ac0692ff7c84ca494321f16592d5b3548ae0": {
                            "nonce": "0x01",
                            "balance": "0x0de0b6b3a6e29d9e",
                            "code": "0x",
                            "storage": {}
                        },
                        "0x6f5418ddd6a4f66e354cffb7343f0705c1de79cb": {
                            "nonce": "0x00",
                            "balance": "0x00",
                            "code": "0x600160035500",
                            "storage": {}
                        },
                        "0x6f5418ddd6a4f66e354cffb7343f0705c1de7acb": {
                            "nonce": "0x00",
                            "balance": "0x00",
                            "code": "0x60406000604060006000736f5418ddd6a4f66e354cffb7343f0705c1de79cb62061a80f260025500",
                            "storage": {}
                        },
                        "0x6f5418ddd6a4f66e354cffb7343f0705c1de7bcb": {
                            "nonce": "0x00",
                            "balance": "0x00",
                            "code": "0x6040600060406000736f5418ddd6a4f66e354cffb7343f0705c1de7acb620927c0f4600155622fffff60002000",
                            "storage": {}
                        },
                        "0x6f5418ddd6a4f66e354cffb7343f0705c1de7ccb": {
                            "nonce": "0x00",
                            "balance": "0x0de0b6b3a7640000",
                            "code": "0x6040600060406000736f5418ddd6a4f66e354cffb7343f0705c1de7bcb620c3500f46000556001600b5500",
                            "storage": {
                                "0x0b": "0x01"
                            }
                        }
                    }
                }
            ]
        },
        "config": {
            "blobSchedule": {
                "Cancun": {
                    "target": "0x03",
                    "max": "0x06",
                    "baseFeeUpdateFraction": "0x32f0ed"
                }
            },
            "chainid": "0x01"
        },
        "_info": {
            "hash": "0x419f33f36bf051aa299e1f64edb14064d59926b01c17eac85b9bcacd41d7a3de",
            "comment": "`execution-spec-tests` generated test",
            "filling-transition-tool": "ethereum-spec-evm-resolver 0.0.5",
            "description": "No description available - add a docstring to the python test class or function.",
            "url": "",
            "fixture-format": "state_test",
            "eels-resolution": {
                "git-url": "https://github.com/marioevz/execution-specs.git",
                "branch": "forks/bpo1",
                "commit": "3387e5f4aedfe99becfdc39b444d6371e25e0924"
            }
        }
    },
    "tests/static/state_tests/stCallDelegateCodesCallCodeHomestead/callcodecallcodecall_110_OOGMAfterFiller.json::callcodecallcodecall_110_OOGMAfter[fork_Osaka-state_test-]": {
        "env": {
            "currentCoinbase": "0x2adc25665018aa1fe0e6bc666dac8fc2697ff9ba",
            "currentGasLimit": "0x01c9c380",
            "currentNumber": "0x01",
            "currentTimestamp": "0x03e8",
            "currentRandom": "0x0000000000000000000000000000000000000000000000000000000000020000",
            "currentDifficulty": "0x00",
            "currentBaseFee": "0x0a",
            "currentExcessBlobGas": "0x00"
        },
        "pre": {
            "0x8374ac0692ff7c84ca494321f16592d5b3548ae0": {
                "nonce": "0x00",
                "balance": "0x0de0b6b3a7640000",
                "code": "0x",
                "storage": {}
            },
            "0x6f5418ddd6a4f66e354cffb7343f0705c1de79cb": {
                "nonce": "0x00",
                "balance": "0x00",
                "code": "0x600160035500",
                "storage": {}
            },
            "0x6f5418ddd6a4f66e354cffb7343f0705c1de7acb": {
                "nonce": "0x00",
                "balance": "0x00",
                "code": "0x60406000604060006000736f5418ddd6a4f66e354cffb7343f0705c1de79cb62061a80f260025500",
                "storage": {}
            },
            "0x6f5418ddd6a4f66e354cffb7343f0705c1de7bcb": {
                "nonce": "0x00",
                "balance": "0x00",
                "code": "0x6040600060406000736f5418ddd6a4f66e354cffb7343f0705c1de7acb620927c0f4600155622fffff60002000",
                "storage": {}
            },
            "0x6f5418ddd6a4f66e354cffb7343f0705c1de7ccb": {
                "nonce": "0x00",
                "balance": "0x0de0b6b3a7640000",
                "code": "0x6040600060406000736f5418ddd6a4f66e354cffb7343f0705c1de7bcb620c3500f46000556001600b5500",
                "storage": {}
            }
        },
        "transaction": {
            "nonce": "0x00",
            "gasPrice": "0x0a",
            "gasLimit": [
                "0x0f4240"
            ],
            "to": "0x6f5418ddd6a4f66e354cffb7343f0705c1de7ccb",
            "value": [
                "0x00"
            ],
            "data": [
                "0x"
            ],
            "sender": "0x8374ac0692ff7c84ca494321f16592d5b3548ae0",
            "secretKey": "0x796d3e468156ff5b563369cc6f5418ddd6a4f66e354cffb7343f0705c1de79cb"
        },
        "post": {
            "Osaka": [
                {
                    "hash": "0x6057d61b22aaa8c999dbc3479691a727de87d1cb2b757ff745cabbdab494786a",
                    "logs": "0x1dcc4de8dec75d7aab85b567b6ccd41ad312451b948a7413f0a142fd40d49347",
                    "txbytes": "0xf860800a830f4240946f5418ddd6a4f66e354cffb7343f0705c1de7ccb808025a09d64e88a03b76b126f4ae241ab86e2a231ebc23f3e9920448b26a79458caf6bda005b52a28f01b647d79dcb95c95011f58120446865598fb6dd2d0e7f37a1fc12c",
                    "indexes": {
                        "data": 0,
                        "gas": 0,
                        "value": 0
                    },
                    "state": {
                        "0x8374ac0692ff7c84ca494321f16592d5b3548ae0": {
                            "nonce": "0x01",
                            "balance": "0x0de0b6b3a6e29d9e",
                            "code": "0x",
                            "storage": {}
                        },
                        "0x6f5418ddd6a4f66e354cffb7343f0705c1de79cb": {
                            "nonce": "0x00",
                            "balance": "0x00",
                            "code": "0x600160035500",
                            "storage": {}
                        },
                        "0x6f5418ddd6a4f66e354cffb7343f0705c1de7acb": {
                            "nonce": "0x00",
                            "balance": "0x00",
                            "code": "0x60406000604060006000736f5418ddd6a4f66e354cffb7343f0705c1de79cb62061a80f260025500",
                            "storage": {}
                        },
                        "0x6f5418ddd6a4f66e354cffb7343f0705c1de7bcb": {
                            "nonce": "0x00",
                            "balance": "0x00",
                            "code": "0x6040600060406000736f5418ddd6a4f66e354cffb7343f0705c1de7acb620927c0f4600155622fffff60002000",
                            "storage": {}
                        },
                        "0x6f5418ddd6a4f66e354cffb7343f0705c1de7ccb": {
                            "nonce": "0x00",
                            "balance": "0x0de0b6b3a7640000",
                            "code": "0x6040600060406000736f5418ddd6a4f66e354cffb7343f0705c1de7bcb620c3500f46000556001600b5500",
                            "storage": {
                                "0x0b": "0x01"
                            }
                        }
                    }
                }
            ]
        },
        "config": {
            "blobSchedule": {
                "Cancun": {
                    "target": "0x03",
                    "max": "0x06",
                    "baseFeeUpdateFraction": "0x32f0ed"
                },
                "Prague": {
                    "target": "0x06",
                    "max": "0x09",
                    "baseFeeUpdateFraction": "0x4c6964"
                },
                "Osaka": {
                    "target": "0x06",
                    "max": "0x09",
                    "baseFeeUpdateFraction": "0x4c6964"
                }
            },
            "chainid": "0x01"
        },
        "_info": {
            "hash": "0x81eb84cb4efa6463d9884aa5984e98420ae961ace64a7cd4b9027c3bcc76b631",
            "comment": "`execution-spec-tests` generated test",
            "filling-transition-tool": "ethereum-spec-evm-resolver 0.0.5",
            "description": "No description available - add a docstring to the python test class or function.",
            "url": "",
            "fixture-format": "state_test",
            "eels-resolution": {
                "git-url": "https://github.com/marioevz/execution-specs.git",
                "branch": "forks/bpo1",
                "commit": "3387e5f4aedfe99becfdc39b444d6371e25e0924"
            }
        }
    },
    "tests/static/state_tests/stCallDelegateCodesCallCodeHomestead/callcodecallcodecall_110_OOGMAfterFiller.json::callcodecallcodecall_110_OOGMAfter[fork_Prague-state_test-]": {
        "env": {
            "currentCoinbase": "0x2adc25665018aa1fe0e6bc666dac8fc2697ff9ba",
            "currentGasLimit": "0x01c9c380",
            "currentNumber": "0x01",
            "currentTimestamp": "0x03e8",
            "currentRandom": "0x0000000000000000000000000000000000000000000000000000000000020000",
            "currentDifficulty": "0x00",
            "currentBaseFee": "0x0a",
            "currentExcessBlobGas": "0x00"
        },
        "pre": {
            "0x8374ac0692ff7c84ca494321f16592d5b3548ae0": {
                "nonce": "0x00",
                "balance": "0x0de0b6b3a7640000",
                "code": "0x",
                "storage": {}
            },
            "0x6f5418ddd6a4f66e354cffb7343f0705c1de79cb": {
                "nonce": "0x00",
                "balance": "0x00",
                "code": "0x600160035500",
                "storage": {}
            },
            "0x6f5418ddd6a4f66e354cffb7343f0705c1de7acb": {
                "nonce": "0x00",
                "balance": "0x00",
                "code": "0x60406000604060006000736f5418ddd6a4f66e354cffb7343f0705c1de79cb62061a80f260025500",
                "storage": {}
            },
            "0x6f5418ddd6a4f66e354cffb7343f0705c1de7bcb": {
                "nonce": "0x00",
                "balance": "0x00",
                "code": "0x6040600060406000736f5418ddd6a4f66e354cffb7343f0705c1de7acb620927c0f4600155622fffff60002000",
                "storage": {}
            },
            "0x6f5418ddd6a4f66e354cffb7343f0705c1de7ccb": {
                "nonce": "0x00",
                "balance": "0x0de0b6b3a7640000",
                "code": "0x6040600060406000736f5418ddd6a4f66e354cffb7343f0705c1de7bcb620c3500f46000556001600b5500",
                "storage": {}
            }
        },
        "transaction": {
            "nonce": "0x00",
            "gasPrice": "0x0a",
            "gasLimit": [
                "0x0f4240"
            ],
            "to": "0x6f5418ddd6a4f66e354cffb7343f0705c1de7ccb",
            "value": [
                "0x00"
            ],
            "data": [
                "0x"
            ],
            "sender": "0x8374ac0692ff7c84ca494321f16592d5b3548ae0",
            "secretKey": "0x796d3e468156ff5b563369cc6f5418ddd6a4f66e354cffb7343f0705c1de79cb"
        },
        "post": {
            "Prague": [
                {
                    "hash": "0x6057d61b22aaa8c999dbc3479691a727de87d1cb2b757ff745cabbdab494786a",
                    "logs": "0x1dcc4de8dec75d7aab85b567b6ccd41ad312451b948a7413f0a142fd40d49347",
                    "txbytes": "0xf860800a830f4240946f5418ddd6a4f66e354cffb7343f0705c1de7ccb808025a09d64e88a03b76b126f4ae241ab86e2a231ebc23f3e9920448b26a79458caf6bda005b52a28f01b647d79dcb95c95011f58120446865598fb6dd2d0e7f37a1fc12c",
                    "indexes": {
                        "data": 0,
                        "gas": 0,
                        "value": 0
                    },
                    "state": {
                        "0x8374ac0692ff7c84ca494321f16592d5b3548ae0": {
                            "nonce": "0x01",
                            "balance": "0x0de0b6b3a6e29d9e",
                            "code": "0x",
                            "storage": {}
                        },
                        "0x6f5418ddd6a4f66e354cffb7343f0705c1de79cb": {
                            "nonce": "0x00",
                            "balance": "0x00",
                            "code": "0x600160035500",
                            "storage": {}
                        },
                        "0x6f5418ddd6a4f66e354cffb7343f0705c1de7acb": {
                            "nonce": "0x00",
                            "balance": "0x00",
                            "code": "0x60406000604060006000736f5418ddd6a4f66e354cffb7343f0705c1de79cb62061a80f260025500",
                            "storage": {}
                        },
                        "0x6f5418ddd6a4f66e354cffb7343f0705c1de7bcb": {
                            "nonce": "0x00",
                            "balance": "0x00",
                            "code": "0x6040600060406000736f5418ddd6a4f66e354cffb7343f0705c1de7acb620927c0f4600155622fffff60002000",
                            "storage": {}
                        },
                        "0x6f5418ddd6a4f66e354cffb7343f0705c1de7ccb": {
                            "nonce": "0x00",
                            "balance": "0x0de0b6b3a7640000",
                            "code": "0x6040600060406000736f5418ddd6a4f66e354cffb7343f0705c1de7bcb620c3500f46000556001600b5500",
                            "storage": {
                                "0x0b": "0x01"
                            }
                        }
                    }
                }
            ]
        },
        "config": {
            "blobSchedule": {
                "Cancun": {
                    "target": "0x03",
                    "max": "0x06",
                    "baseFeeUpdateFraction": "0x32f0ed"
                },
                "Prague": {
                    "target": "0x06",
                    "max": "0x09",
                    "baseFeeUpdateFraction": "0x4c6964"
                }
            },
            "chainid": "0x01"
        },
        "_info": {
            "hash": "0x6fd72a88b454181da2e1cf4d2bbf3855f3e2f9a5b0dfe61979854e139f30eed7",
            "comment": "`execution-spec-tests` generated test",
            "filling-transition-tool": "ethereum-spec-evm-resolver 0.0.5",
            "description": "No description available - add a docstring to the python test class or function.",
            "url": "",
            "fixture-format": "state_test",
            "eels-resolution": {
                "git-url": "https://github.com/marioevz/execution-specs.git",
                "branch": "forks/bpo1",
                "commit": "3387e5f4aedfe99becfdc39b444d6371e25e0924"
            }
        }
    }
}