{
    "tests/static/state_tests/stCallDelegateCodesCallCodeHomestead/callcodecallcodecall_110_OOGEFiller.json::callcodecallcodecall_110_OOGE[fork_Cancun-state_test-]": {
        "env": {
            "currentCoinbase": "0x2adc25665018aa1fe0e6bc666dac8fc2697ff9ba",
            "currentGasLimit": "0x01c9c380",
            "currentNumber": "0x01",
            "currentTimestamp": "0x03e8",
            "currentRandom": "0x0000000000000000000000000000000000000000000000000000000000020000",
            "currentDifficulty": "0x00",
            "currentBaseFee": "0x0a",
            "currentExcessBlobGas": "0x00"
        },
        "pre": {
            "0xd26e468897eb54d0e10d1f5517d3ce5d6cf49ea4": {
                "nonce": "0x00",
                "balance": "0x0de0b6b3a7640000",
                "code": "0x",
                "storage": {}
            },
            "0xd7a9383c6f9083d6c0b33a7c1bcf3f4b7aecd5c9": {
                "nonce": "0x00",
                "balance": "0x00",
                "code": "0x6001600355622fffff60002000",
                "storage": {}
            },
            "0xd7a9383c6f9083d6c0b33a7c1bcf3f4b7aecd6c9": {
                "nonce": "0x00",
                "balance": "0x00",
                "code": "0x6040600060406000600073d7a9383c6f9083d6c0b33a7c1bcf3f4b7aecd5c962061a80f26002556001600b5500",
                "storage": {}
            },
            "0xd7a9383c6f9083d6c0b33a7c1bcf3f4b7aecd7c9": {
                "nonce": "0x00",
                "balance": "0x00",
                "code": "0x604060006040600073d7a9383c6f9083d6c0b33a7c1bcf3f4b7aecd6c9620927c0f460015500",
                "storage": {}
            },
            "0xd7a9383c6f9083d6c0b33a7c1bcf3f4b7aecd8c9": {
                "nonce": "0x00",
                "balance": "0x0de0b6b3a7640000",
                "code": "0x604060006040600073d7a9383c6f9083d6c0b33a7c1bcf3f4b7aecd7c9620c3500f460005500",
                "storage": {}
            }
        },
        "transaction": {
            "nonce": "0x00",
            "gasPrice": "0x0a",
            "gasLimit": [
                "0x0f4240"
            ],
            "to": "0xd7a9383c6f9083d6c0b33a7c1bcf3f4b7aecd8c9",
            "value": [
                "0x00"
            ],
            "data": [
                "0x"
            ],
            "sender": "0xd26e468897eb54d0e10d1f5517d3ce5d6cf49ea4",
            "secretKey": "0x1af11beb695d553e2b8459c4d7a9383c6f9083d6c0b33a7c1bcf3f4b7aecd5c9"
        },
        "post": {
            "Cancun": [
                {
                    "hash": "0xd20dedafd2c6c6135ecef29bbacbe51eeaf16dd42efd75936b10bcc9942d27f0",
                    "logs": "0x1dcc4de8dec75d7aab85b567b6ccd41ad312451b948a7413f0a142fd40d49347",
                    "txbytes": "0xf860800a830f424094d7a9383c6f9083d6c0b33a7c1bcf3f4b7aecd8c9808026a04ca5585d90f62ba7f8fd7da59bce1742bf20418ab0aaec9dcfd4e094451dcf4aa025232473fca80954742ecefe2c09b0e0a7075cce67b54ff9385db976825b7eb9",
                    "indexes": {
                        "data": 0,
                        "gas": 0,
                        "value": 0
                    },
                    "state": {
                        "0xd26e468897eb54d0e10d1f5517d3ce5d6cf49ea4": {
                            "nonce": "0x01",
                            "balance": "0x0de0b6b3a7181ab4",
                            "code": "0x",
                            "storage": {}
                        },
                        "0xd7a9383c6f9083d6c0b33a7c1bcf3f4b7aecd5c9": {
                            "nonce": "0x00",
                            "balance": "0x00",
                            "code": "0x6001600355622fffff60002000",
                            "storage": {}
                        },
                        "0xd7a9383c6f9083d6c0b33a7c1bcf3f4b7aecd6c9": {
                            "nonce": "0x00",
                            "balance": "0x00",
                            "code": "0x6040600060406000600073d7a9383c6f9083d6c0b33a7c1bcf3f4b7aecd5c962061a80f26002556001600b5500",
                            "storage": {}
                        },
                        "0xd7a9383c6f9083d6c0b33a7c1bcf3f4b7aecd7c9": {
                            "nonce": "0x00",
                            "balance": "0x00",
                            "code": "0x604060006040600073d7a9383c6f9083d6c0b33a7c1bcf3f4b7aecd6c9620927c0f460015500",
                            "storage": {}
                        },
                        "0xd7a9383c6f9083d6c0b33a7c1bcf3f4b7aecd8c9": {
                            "nonce": "0x00",
                            "balance": "0x0de0b6b3a7640000",
                            "code": "0x604060006040600073d7a9383c6f9083d6c0b33a7c1bcf3f4b7aecd7c9620c3500f460005500",
                            "storage": {
                                "0x0b": "0x01",
                                "0x01": "0x01",
                                "0x00": "0x01"
                            }
                        }
                    }
                }
            ]
        },
        "config": {
            "blobSchedule": {
                "Cancun": {
                    "target": "0x03",
                    "max": "0x06",
                    "baseFeeUpdateFraction": "0x32f0ed"
                }
            },
            "chainid": "0x01"
        },
        "_info": {
            "hash": "0x56733b455d34627132c6950e48e258c2bafca579bb3da7723184de9bb3143268",
            "comment": "`execution-spec-tests` generated test",
            "filling-transition-tool": "ethereum-spec-evm-resolver 0.0.5",
            "description": "No description available - add a docstring to the python test class or function.",
            "url": "",
            "fixture-format": "state_test",
            "eels-resolution": {
                "git-url": "https://github.com/marioevz/execution-specs.git",
                "branch": "forks/bpo1",
                "commit": "3387e5f4aedfe99becfdc39b444d6371e25e0924"
            }
        }
    },
    "tests/static/state_tests/stCallDelegateCodesCallCodeHomestead/callcodecallcodecall_110_OOGEFiller.json::callcodecallcodecall_110_OOGE[fork_Osaka-state_test-]": {
        "env": {
            "currentCoinbase": "0x2adc25665018aa1fe0e6bc666dac8fc2697ff9ba",
            "currentGasLimit": "0x01c9c380",
            "currentNumber": "0x01",
            "currentTimestamp": "0x03e8",
            "currentRandom": "0x0000000000000000000000000000000000000000000000000000000000020000",
            "currentDifficulty": "0x00",
            "currentBaseFee": "0x0a",
            "currentExcessBlobGas": "0x00"
        },
        "pre": {
            "0xd26e468897eb54d0e10d1f5517d3ce5d6cf49ea4": {
                "nonce": "0x00",
                "balance": "0x0de0b6b3a7640000",
                "code": "0x",
                "storage": {}
            },
            "0xd7a9383c6f9083d6c0b33a7c1bcf3f4b7aecd5c9": {
                "nonce": "0x00",
                "balance": "0x00",
                "code": "0x6001600355622fffff60002000",
                "storage": {}
            },
            "0xd7a9383c6f9083d6c0b33a7c1bcf3f4b7aecd6c9": {
                "nonce": "0x00",
                "balance": "0x00",
                "code": "0x6040600060406000600073d7a9383c6f9083d6c0b33a7c1bcf3f4b7aecd5c962061a80f26002556001600b5500",
                "storage": {}
            },
            "0xd7a9383c6f9083d6c0b33a7c1bcf3f4b7aecd7c9": {
                "nonce": "0x00",
                "balance": "0x00",
                "code": "0x604060006040600073d7a9383c6f9083d6c0b33a7c1bcf3f4b7aecd6c9620927c0f460015500",
                "storage": {}
            },
            "0xd7a9383c6f9083d6c0b33a7c1bcf3f4b7aecd8c9": {
                "nonce": "0x00",
                "balance": "0x0de0b6b3a7640000",
                "code": "0x604060006040600073d7a9383c6f9083d6c0b33a7c1bcf3f4b7aecd7c9620c3500f460005500",
                "storage": {}
            }
        },
        "transaction": {
            "nonce": "0x00",
            "gasPrice": "0x0a",
            "gasLimit": [
                "0x0f4240"
            ],
            "to": "0xd7a9383c6f9083d6c0b33a7c1bcf3f4b7aecd8c9",
            "value": [
                "0x00"
            ],
            "data": [
                "0x"
            ],
            "sender": "0xd26e468897eb54d0e10d1f5517d3ce5d6cf49ea4",
            "secretKey": "0x1af11beb695d553e2b8459c4d7a9383c6f9083d6c0b33a7c1bcf3f4b7aecd5c9"
        },
        "post": {
            "Osaka": [
                {
                    "hash": "0xd20dedafd2c6c6135ecef29bbacbe51eeaf16dd42efd75936b10bcc9942d27f0",
                    "logs": "0x1dcc4de8dec75d7aab85b567b6ccd41ad312451b948a7413f0a142fd40d49347",
                    "txbytes": "0xf860800a830f424094d7a9383c6f9083d6c0b33a7c1bcf3f4b7aecd8c9808026a04ca5585d90f62ba7f8fd7da59bce1742bf20418ab0aaec9dcfd4e094451dcf4aa025232473fca80954742ecefe2c09b0e0a7075cce67b54ff9385db976825b7eb9",
                    "indexes": {
                        "data": 0,
                        "gas": 0,
                        "value": 0
                    },
                    "state": {
                        "0xd26e468897eb54d0e10d1f5517d3ce5d6cf49ea4": {
                            "nonce": "0x01",
                            "balance": "0x0de0b6b3a7181ab4",
                            "code": "0x",
                            "storage": {}
                        },
                        "0xd7a9383c6f9083d6c0b33a7c1bcf3f4b7aecd5c9": {
                            "nonce": "0x00",
                            "balance": "0x00",
                            "code": "0x6001600355622fffff60002000",
                            "storage": {}
                        },
                        "0xd7a9383c6f9083d6c0b33a7c1bcf3f4b7aecd6c9": {
                            "nonce": "0x00",
                            "balance": "0x00",
                            "code": "0x6040600060406000600073d7a9383c6f9083d6c0b33a7c1bcf3f4b7aecd5c962061a80f26002556001600b5500",
                            "storage": {}
                        },
                        "0xd7a9383c6f9083d6c0b33a7c1bcf3f4b7aecd7c9": {
                            "nonce": "0x00",
                            "balance": "0x00",
                            "code": "0x604060006040600073d7a9383c6f9083d6c0b33a7c1bcf3f4b7aecd6c9620927c0f460015500",
                            "storage": {}
                        },
                        "0xd7a9383c6f9083d6c0b33a7c1bcf3f4b7aecd8c9": {
                            "nonce": "0x00",
                            "balance": "0x0de0b6b3a7640000",
                            "code": "0x604060006040600073d7a9383c6f9083d6c0b33a7c1bcf3f4b7aecd7c9620c3500f460005500",
                            "storage": {
                                "0x0b": "0x01",
                                "0x01": "0x01",
                                "0x00": "0x01"
                            }
                        }
                    }
                }
            ]
        },
        "config": {
            "blobSchedule": {
                "Cancun": {
                    "target": "0x03",
                    "max": "0x06",
                    "baseFeeUpdateFraction": "0x32f0ed"
                },
                "Prague": {
                    "target": "0x06",
                    "max": "0x09",
                    "baseFeeUpdateFraction": "0x4c6964"
                },
                "Osaka": {
                    "target": "0x06",
                    "max": "0x09",
                    "baseFeeUpdateFraction": "0x4c6964"
                }
            },
            "chainid": "0x01"
        },
        "_info": {
            "hash": "0xabe5721ebc4b61faea2dba9535954a3d97fd26054848753093af30a54ce8d97b",
            "comment": "`execution-spec-tests` generated test",
            "filling-transition-tool": "ethereum-spec-evm-resolver 0.0.5",
            "description": "No description available - add a docstring to the python test class or function.",
            "url": "",
            "fixture-format": "state_test",
            "eels-resolution": {
                "git-url": "https://github.com/marioevz/execution-specs.git",
                "branch": "forks/bpo1",
                "commit": "3387e5f4aedfe99becfdc39b444d6371e25e0924"
            }
        }
    },
    "tests/static/state_tests/stCallDelegateCodesCallCodeHomestead/callcodecallcodecall_110_OOGEFiller.json::callcodecallcodecall_110_OOGE[fork_Prague-state_test-]": {
        "env": {
            "currentCoinbase": "0x2adc25665018aa1fe0e6bc666dac8fc2697ff9ba",
            "currentGasLimit": "0x01c9c380",
            "currentNumber": "0x01",
            "currentTimestamp": "0x03e8",
            "currentRandom": "0x0000000000000000000000000000000000000000000000000000000000020000",
            "currentDifficulty": "0x00",
            "currentBaseFee": "0x0a",
            "currentExcessBlobGas": "0x00"
        },
        "pre": {
            "0xd26e468897eb54d0e10d1f5517d3ce5d6cf49ea4": {
                "nonce": "0x00",
                "balance": "0x0de0b6b3a7640000",
                "code": "0x",
                "storage": {}
            },
            "0xd7a9383c6f9083d6c0b33a7c1bcf3f4b7aecd5c9": {
                "nonce": "0x00",
                "balance": "0x00",
                "code": "0x6001600355622fffff60002000",
                "storage": {}
            },
            "0xd7a9383c6f9083d6c0b33a7c1bcf3f4b7aecd6c9": {
                "nonce": "0x00",
                "balance": "0x00",
                "code": "0x6040600060406000600073d7a9383c6f9083d6c0b33a7c1bcf3f4b7aecd5c962061a80f26002556001600b5500",
                "storage": {}
            },
            "0xd7a9383c6f9083d6c0b33a7c1bcf3f4b7aecd7c9": {
                "nonce": "0x00",
                "balance": "0x00",
                "code": "0x604060006040600073d7a9383c6f9083d6c0b33a7c1bcf3f4b7aecd6c9620927c0f460015500",
                "storage": {}
            },
            "0xd7a9383c6f9083d6c0b33a7c1bcf3f4b7aecd8c9": {
                "nonce": "0x00",
                "balance": "0x0de0b6b3a7640000",
                "code": "0x604060006040600073d7a9383c6f9083d6c0b33a7c1bcf3f4b7aecd7c9620c3500f460005500",
                "storage": {}
            }
        },
        "transaction": {
            "nonce": "0x00",
            "gasPrice": "0x0a",
            "gasLimit": [
                "0x0f4240"
            ],
            "to": "0xd7a9383c6f9083d6c0b33a7c1bcf3f4b7aecd8c9",
            "value": [
                "0x00"
            ],
            "data": [
                "0x"
            ],
            "sender": "0xd26e468897eb54d0e10d1f5517d3ce5d6cf49ea4",
            "secretKey": "0x1af11beb695d553e2b8459c4d7a9383c6f9083d6c0b33a7c1bcf3f4b7aecd5c9"
        },
        "post": {
            "Prague": [
                {
                    "hash": "0xd20dedafd2c6c6135ecef29bbacbe51eeaf16dd42efd75936b10bcc9942d27f0",
                    "logs": "0x1dcc4de8dec75d7aab85b567b6ccd41ad312451b948a7413f0a142fd40d49347",
                    "txbytes": "0xf860800a830f424094d7a9383c6f9083d6c0b33a7c1bcf3f4b7aecd8c9808026a04ca5585d90f62ba7f8fd7da59bce1742bf20418ab0aaec9dcfd4e094451dcf4aa025232473fca80954742ecefe2c09b0e0a7075cce67b54ff9385db976825b7eb9",
                    "indexes": {
                        "data": 0,
                        "gas": 0,
                        "value": 0
                    },
                    "state": {
                        "0xd26e468897eb54d0e10d1f5517d3ce5d6cf49ea4": {
                            "nonce": "0x01",
                            "balance": "0x0de0b6b3a7181ab4",
                            "code": "0x",
                            "storage": {}
                        },
                        "0xd7a9383c6f9083d6c0b33a7c1bcf3f4b7aecd5c9": {
                            "nonce": "0x00",
                            "balance": "0x00",
                            "code": "0x6001600355622fffff60002000",
                            "storage": {}
                        },
                        "0xd7a9383c6f9083d6c0b33a7c1bcf3f4b7aecd6c9": {
                            "nonce": "0x00",
                            "balance": "0x00",
                            "code": "0x6040600060406000600073d7a9383c6f9083d6c0b33a7c1bcf3f4b7aecd5c962061a80f26002556001600b5500",
                            "storage": {}
                        },
                        "0xd7a9383c6f9083d6c0b33a7c1bcf3f4b7aecd7c9": {
                            "nonce": "0x00",
                            "balance": "0x00",
                            "code": "0x604060006040600073d7a9383c6f9083d6c0b33a7c1bcf3f4b7aecd6c9620927c0f460015500",
                            "storage": {}
                        },
                        "0xd7a9383c6f9083d6c0b33a7c1bcf3f4b7aecd8c9": {
                            "nonce": "0x00",
                            "balance": "0x0de0b6b3a7640000",
                            "code": "0x604060006040600073d7a9383c6f9083d6c0b33a7c1bcf3f4b7aecd7c9620c3500f460005500",
                            "storage": {
                                "0x0b": "0x01",
                                "0x01": "0x01",
                                "0x00": "0x01"
                            }
                        }
                    }
                }
            ]
        },
        "config": {
            "blobSchedule": {
                "Cancun": {
                    "target": "0x03",
                    "max": "0x06",
                    "baseFeeUpdateFraction": "0x32f0ed"
                },
                "Prague": {
                    "target": "0x06",
                    "max": "0x09",
                    "baseFeeUpdateFraction": "0x4c6964"
                }
            },
            "chainid": "0x01"
        },
        "_info": {
            "hash": "0x80261b01ed3a0577ff14844a54babb7003d0370a4cba051194485e763dc4749e",
            "comment": "`execution-spec-tests` generated test",
            "filling-transition-tool": "ethereum-spec-evm-resolver 0.0.5",
            "description": "No description available - add a docstring to the python test class or function.",
            "url": "",
            "fixture-format": "state_test",
            "eels-resolution": {
                "git-url": "https://github.com/marioevz/execution-specs.git",
                "branch": "forks/bpo1",
                "commit": "3387e5f4aedfe99becfdc39b444d6371e25e0924"
            }
        }
    }
}