{
    "tests/static/state_tests/stCallDelegateCodesCallCodeHomestead/callcallcodecall_010_SuicideMiddleFiller.json::callcallcodecall_010_SuicideMiddle[fork_Cancun-state_test-]": {
        "env": {
            "currentCoinbase": "0x2adc25665018aa1fe0e6bc666dac8fc2697ff9ba",
            "currentGasLimit": "0x01c9c380",
            "currentNumber": "0x01",
            "currentTimestamp": "0x03e8",
            "currentRandom": "0x0000000000000000000000000000000000000000000000000000000000020000",
            "currentDifficulty": "0x00",
            "currentBaseFee": "0x0a",
            "currentExcessBlobGas": "0x00"
        },
        "pre": {
            "0x22de544319125227068f0c8311f38bd4cd953219": {
                "nonce": "0x00",
                "balance": "0x0de0b6b3a7640000",
                "code": "0x",
                "storage": {}
            },
            "0xa65ba5076609e604f5c027979017d6aaf1519cbc": {
                "nonce": "0x00",
                "balance": "0x02540be400",
                "code": "0x600160035500",
                "storage": {}
            },
            "0xa65ba5076609e604f5c027979017d6aaf1519dbc": {
                "nonce": "0x00",
                "balance": "0x0de0b6b3a7640000",
                "code": "0x6040600060406000600073a65ba5076609e604f5c027979017d6aaf1519ebc620249f0f260005500",
                "storage": {}
            },
            "0xa65ba5076609e604f5c027979017d6aaf1519ebc": {
                "nonce": "0x00",
                "balance": "0x02540be400",
                "code": "0x604060006040600073a65ba5076609e604f5c027979017d6aaf1519fbc620186a0f460015500",
                "storage": {}
            },
            "0xa65ba5076609e604f5c027979017d6aaf1519fbc": {
                "nonce": "0x00",
                "balance": "0x02540be400",
                "code": "0x73a65ba5076609e604f5c027979017d6aaf1519dbcff6040600060406000600073a65ba5076609e604f5c027979017d6aaf1519cbc61c350f260025500",
                "storage": {}
            }
        },
        "transaction": {
            "nonce": "0x00",
            "gasPrice": "0x0a",
            "gasLimit": [
                "0x2dc6c0"
            ],
            "to": "0xa65ba5076609e604f5c027979017d6aaf1519dbc",
            "value": [
                "0x00"
            ],
            "data": [
                "0x"
            ],
            "sender": "0x22de544319125227068f0c8311f38bd4cd953219",
            "secretKey": "0xcf0eba0cd5e16b6a96b8820ea65ba5076609e604f5c027979017d6aaf1519cbc"
        },
        "post": {
            "Cancun": [
                {
                    "hash": "0x11a357425900242244a505d61f172aaf4a6200c753d2396b4003e06be0023743",
                    "logs": "0x1dcc4de8dec75d7aab85b567b6ccd41ad312451b948a7413f0a142fd40d49347",
                    "txbytes": "0xf860800a832dc6c094a65ba5076609e604f5c027979017d6aaf1519dbc808026a00f74371f3ee47ecdda978b080c59c3d4ba0f9740aed86befa0ca5bd0ae609c8ba03ab8e34f014b3ba8c67d62008b8ea13d75af867045f600a68278d5d424e9dcd1",
                    "indexes": {
                        "data": 0,
                        "gas": 0,
                        "value": 0
                    },
                    "state": {
                        "0x22de544319125227068f0c8311f38bd4cd953219": {
                            "nonce": "0x01",
                            "balance": "0x0de0b6b3a7587c58",
                            "code": "0x",
                            "storage": {}
                        },
                        "0xa65ba5076609e604f5c027979017d6aaf1519cbc": {
                            "nonce": "0x00",
                            "balance": "0x02540be400",
                            "code": "0x600160035500",
                            "storage": {}
                        },
                        "0xa65ba5076609e604f5c027979017d6aaf1519dbc": {
                            "nonce": "0x00",
                            "balance": "0x0de0b6b3a7640000",
                            "code": "0x6040600060406000600073a65ba5076609e604f5c027979017d6aaf1519ebc620249f0f260005500",
                            "storage": {
                                "0x01": "0x01",
                                "0x00": "0x01"
                            }
                        },
                        "0xa65ba5076609e604f5c027979017d6aaf1519ebc": {
                            "nonce": "0x00",
                            "balance": "0x02540be400",
                            "code": "0x604060006040600073a65ba5076609e604f5c027979017d6aaf1519fbc620186a0f460015500",
                            "storage": {}
                        },
                        "0xa65ba5076609e604f5c027979017d6aaf1519fbc": {
                            "nonce": "0x00",
                            "balance": "0x02540be400",
                            "code": "0x73a65ba5076609e604f5c027979017d6aaf1519dbcff6040600060406000600073a65ba5076609e604f5c027979017d6aaf1519cbc61c350f260025500",
                            "storage": {}
                        }
                    }
                }
            ]
        },
        "config": {
            "blobSchedule": {
                "Cancun": {
                    "target": "0x03",
                    "max": "0x06",
                    "baseFeeUpdateFraction": "0x32f0ed"
                }
            },
            "chainid": "0x01"
        },
        "_info": {
            "hash": "0xef8e9c6288a4b81d557b39814d997b8bcc5c41afb7badc36aab1171be8066f55",
            "comment": "`execution-spec-tests` generated test",
            "filling-transition-tool": "ethereum-spec-evm-resolver 0.0.5",
            "description": "No description available - add a docstring to the python test class or function.",
            "url": "",
            "fixture-format": "state_test",
            "eels-resolution": {
                "git-url": "https://github.com/marioevz/execution-specs.git",
                "branch": "forks/bpo1",
                "commit": "3387e5f4aedfe99becfdc39b444d6371e25e0924"
            }
        }
    },
    "tests/static/state_tests/stCallDelegateCodesCallCodeHomestead/callcallcodecall_010_SuicideMiddleFiller.json::callcallcodecall_010_SuicideMiddle[fork_Osaka-state_test-]": {
        "env": {
            "currentCoinbase": "0x2adc25665018aa1fe0e6bc666dac8fc2697ff9ba",
            "currentGasLimit": "0x01c9c380",
            "currentNumber": "0x01",
            "currentTimestamp": "0x03e8",
            "currentRandom": "0x0000000000000000000000000000000000000000000000000000000000020000",
            "currentDifficulty": "0x00",
            "currentBaseFee": "0x0a",
            "currentExcessBlobGas": "0x00"
        },
        "pre": {
            "0x22de544319125227068f0c8311f38bd4cd953219": {
                "nonce": "0x00",
                "balance": "0x0de0b6b3a7640000",
                "code": "0x",
                "storage": {}
            },
            "0xa65ba5076609e604f5c027979017d6aaf1519cbc": {
                "nonce": "0x00",
                "balance": "0x02540be400",
                "code": "0x600160035500",
                "storage": {}
            },
            "0xa65ba5076609e604f5c027979017d6aaf1519dbc": {
                "nonce": "0x00",
                "balance": "0x0de0b6b3a7640000",
                "code": "0x6040600060406000600073a65ba5076609e604f5c027979017d6aaf1519ebc620249f0f260005500",
                "storage": {}
            },
            "0xa65ba5076609e604f5c027979017d6aaf1519ebc": {
                "nonce": "0x00",
                "balance": "0x02540be400",
                "code": "0x604060006040600073a65ba5076609e604f5c027979017d6aaf1519fbc620186a0f460015500",
                "storage": {}
            },
            "0xa65ba5076609e604f5c027979017d6aaf1519fbc": {
                "nonce": "0x00",
                "balance": "0x02540be400",
                "code": "0x73a65ba5076609e604f5c027979017d6aaf1519dbcff6040600060406000600073a65ba5076609e604f5c027979017d6aaf1519cbc61c350f260025500",
                "storage": {}
            }
        },
        "transaction": {
            "nonce": "0x00",
            "gasPrice": "0x0a",
            "gasLimit": [
                "0x2dc6c0"
            ],
            "to": "0xa65ba5076609e604f5c027979017d6aaf1519dbc",
            "value": [
                "0x00"
            ],
            "data": [
                "0x"
            ],
            "sender": "0x22de544319125227068f0c8311f38bd4cd953219",
            "secretKey": "0xcf0eba0cd5e16b6a96b8820ea65ba5076609e604f5c027979017d6aaf1519cbc"
        },
        "post": {
            "Osaka": [
                {
                    "hash": "0x11a357425900242244a505d61f172aaf4a6200c753d2396b4003e06be0023743",
                    "logs": "0x1dcc4de8dec75d7aab85b567b6ccd41ad312451b948a7413f0a142fd40d49347",
                    "txbytes": "0xf860800a832dc6c094a65ba5076609e604f5c027979017d6aaf1519dbc808026a00f74371f3ee47ecdda978b080c59c3d4ba0f9740aed86befa0ca5bd0ae609c8ba03ab8e34f014b3ba8c67d62008b8ea13d75af867045f600a68278d5d424e9dcd1",
                    "indexes": {
                        "data": 0,
                        "gas": 0,
                        "value": 0
                    },
                    "state": {
                        "0x22de544319125227068f0c8311f38bd4cd953219": {
                            "nonce": "0x01",
                            "balance": "0x0de0b6b3a7587c58",
                            "code": "0x",
                            "storage": {}
                        },
                        "0xa65ba5076609e604f5c027979017d6aaf1519cbc": {
                            "nonce": "0x00",
                            "balance": "0x02540be400",
                            "code": "0x600160035500",
                            "storage": {}
                        },
                        "0xa65ba5076609e604f5c027979017d6aaf1519dbc": {
                            "nonce": "0x00",
                            "balance": "0x0de0b6b3a7640000",
                            "code": "0x6040600060406000600073a65ba5076609e604f5c027979017d6aaf1519ebc620249f0f260005500",
                            "storage": {
                                "0x01": "0x01",
                                "0x00": "0x01"
                            }
                        },
                        "0xa65ba5076609e604f5c027979017d6aaf1519ebc": {
                            "nonce": "0x00",
                            "balance": "0x02540be400",
                            "code": "0x604060006040600073a65ba5076609e604f5c027979017d6aaf1519fbc620186a0f460015500",
                            "storage": {}
                        },
                        "0xa65ba5076609e604f5c027979017d6aaf1519fbc": {
                            "nonce": "0x00",
                            "balance": "0x02540be400",
                            "code": "0x73a65ba5076609e604f5c027979017d6aaf1519dbcff6040600060406000600073a65ba5076609e604f5c027979017d6aaf1519cbc61c350f260025500",
                            "storage": {}
                        }
                    }
                }
            ]
        },
        "config": {
            "blobSchedule": {
                "Cancun": {
                    "target": "0x03",
                    "max": "0x06",
                    "baseFeeUpdateFraction": "0x32f0ed"
                },
                "Prague": {
                    "target": "0x06",
                    "max": "0x09",
                    "baseFeeUpdateFraction": "0x4c6964"
                },
                "Osaka": {
                    "target": "0x06",
                    "max": "0x09",
                    "baseFeeUpdateFraction": "0x4c6964"
                }
            },
            "chainid": "0x01"
        },
        "_info": {
            "hash": "0xc2641b8d4151b475b0a791b389324ca9bd3f72d3d933812c46506644cb9d15d1",
            "comment": "`execution-spec-tests` generated test",
            "filling-transition-tool": "ethereum-spec-evm-resolver 0.0.5",
            "description": "No description available - add a docstring to the python test class or function.",
            "url": "",
            "fixture-format": "state_test",
            "eels-resolution": {
                "git-url": "https://github.com/marioevz/execution-specs.git",
                "branch": "forks/bpo1",
                "commit": "3387e5f4aedfe99becfdc39b444d6371e25e0924"
            }
        }
    },
    "tests/static/state_tests/stCallDelegateCodesCallCodeHomestead/callcallcodecall_010_SuicideMiddleFiller.json::callcallcodecall_010_SuicideMiddle[fork_Prague-state_test-]": {
        "env": {
            "currentCoinbase": "0x2adc25665018aa1fe0e6bc666dac8fc2697ff9ba",
            "currentGasLimit": "0x01c9c380",
            "currentNumber": "0x01",
            "currentTimestamp": "0x03e8",
            "currentRandom": "0x0000000000000000000000000000000000000000000000000000000000020000",
            "currentDifficulty": "0x00",
            "currentBaseFee": "0x0a",
            "currentExcessBlobGas": "0x00"
        },
        "pre": {
            "0x22de544319125227068f0c8311f38bd4cd953219": {
                "nonce": "0x00",
                "balance": "0x0de0b6b3a7640000",
                "code": "0x",
                "storage": {}
            },
            "0xa65ba5076609e604f5c027979017d6aaf1519cbc": {
                "nonce": "0x00",
                "balance": "0x02540be400",
                "code": "0x600160035500",
                "storage": {}
            },
            "0xa65ba5076609e604f5c027979017d6aaf1519dbc": {
                "nonce": "0x00",
                "balance": "0x0de0b6b3a7640000",
                "code": "0x6040600060406000600073a65ba5076609e604f5c027979017d6aaf1519ebc620249f0f260005500",
                "storage": {}
            },
            "0xa65ba5076609e604f5c027979017d6aaf1519ebc": {
                "nonce": "0x00",
                "balance": "0x02540be400",
                "code": "0x604060006040600073a65ba5076609e604f5c027979017d6aaf1519fbc620186a0f460015500",
                "storage": {}
            },
            "0xa65ba5076609e604f5c027979017d6aaf1519fbc": {
                "nonce": "0x00",
                "balance": "0x02540be400",
                "code": "0x73a65ba5076609e604f5c027979017d6aaf1519dbcff6040600060406000600073a65ba5076609e604f5c027979017d6aaf1519cbc61c350f260025500",
                "storage": {}
            }
        },
        "transaction": {
            "nonce": "0x00",
            "gasPrice": "0x0a",
            "gasLimit": [
                "0x2dc6c0"
            ],
            "to": "0xa65ba5076609e604f5c027979017d6aaf1519dbc",
            "value": [
                "0x00"
            ],
            "data": [
                "0x"
            ],
            "sender": "0x22de544319125227068f0c8311f38bd4cd953219",
            "secretKey": "0xcf0eba0cd5e16b6a96b8820ea65ba5076609e604f5c027979017d6aaf1519cbc"
        },
        "post": {
            "Prague": [
                {
                    "hash": "0x11a357425900242244a505d61f172aaf4a6200c753d2396b4003e06be0023743",
                    "logs": "0x1dcc4de8dec75d7aab85b567b6ccd41ad312451b948a7413f0a142fd40d49347",
                    "txbytes": "0xf860800a832dc6c094a65ba5076609e604f5c027979017d6aaf1519dbc808026a00f74371f3ee47ecdda978b080c59c3d4ba0f9740aed86befa0ca5bd0ae609c8ba03ab8e34f014b3ba8c67d62008b8ea13d75af867045f600a68278d5d424e9dcd1",
                    "indexes": {
                        "data": 0,
                        "gas": 0,
                        "value": 0
                    },
                    "state": {
                        "0x22de544319125227068f0c8311f38bd4cd953219": {
                            "nonce": "0x01",
                            "balance": "0x0de0b6b3a7587c58",
                            "code": "0x",
                            "storage": {}
                        },
                        "0xa65ba5076609e604f5c027979017d6aaf1519cbc": {
                            "nonce": "0x00",
                            "balance": "0x02540be400",
                            "code": "0x600160035500",
                            "storage": {}
                        },
                        "0xa65ba5076609e604f5c027979017d6aaf1519dbc": {
                            "nonce": "0x00",
                            "balance": "0x0de0b6b3a7640000",
                            "code": "0x6040600060406000600073a65ba5076609e604f5c027979017d6aaf1519ebc620249f0f260005500",
                            "storage": {
                                "0x01": "0x01",
                                "0x00": "0x01"
                            }
                        },
                        "0xa65ba5076609e604f5c027979017d6aaf1519ebc": {
                            "nonce": "0x00",
                            "balance": "0x02540be400",
                            "code": "0x604060006040600073a65ba5076609e604f5c027979017d6aaf1519fbc620186a0f460015500",
                            "storage": {}
                        },
                        "0xa65ba5076609e604f5c027979017d6aaf1519fbc": {
                            "nonce": "0x00",
                            "balance": "0x02540be400",
                            "code": "0x73a65ba5076609e604f5c027979017d6aaf1519dbcff6040600060406000600073a65ba5076609e604f5c027979017d6aaf1519cbc61c350f260025500",
                            "storage": {}
                        }
                    }
                }
            ]
        },
        "config": {
            "blobSchedule": {
                "Cancun": {
                    "target": "0x03",
                    "max": "0x06",
                    "baseFeeUpdateFraction": "0x32f0ed"
                },
                "Prague": {
                    "target": "0x06",
                    "max": "0x09",
                    "baseFeeUpdateFraction": "0x4c6964"
                }
            },
            "chainid": "0x01"
        },
        "_info": {
            "hash": "0x8b5a60ecb918dfbf1706b0ab30e5aa4f166b0246b8491f06c10a95b171f99434",
            "comment": "`execution-spec-tests` generated test",
            "filling-transition-tool": "ethereum-spec-evm-resolver 0.0.5",
            "description": "No description available - add a docstring to the python test class or function.",
            "url": "",
            "fixture-format": "state_test",
            "eels-resolution": {
                "git-url": "https://github.com/marioevz/execution-specs.git",
                "branch": "forks/bpo1",
                "commit": "3387e5f4aedfe99becfdc39b444d6371e25e0924"
            }
        }
    }
}