{
    "tests/static/state_tests/stCallDelegateCodesCallCodeHomestead/callcallcodecallcode_011_OOGMAfterFiller.json::callcallcodecallcode_011_OOGMAfter[fork_Cancun-state_test-]": {
        "env": {
            "currentCoinbase": "0x2adc25665018aa1fe0e6bc666dac8fc2697ff9ba",
            "currentGasLimit": "0x01c9c380",
            "currentNumber": "0x01",
            "currentTimestamp": "0x03e8",
            "currentRandom": "0x0000000000000000000000000000000000000000000000000000000000020000",
            "currentDifficulty": "0x00",
            "currentBaseFee": "0x0a",
            "currentExcessBlobGas": "0x00"
        },
        "pre": {
            "0x4678d64673ca94e9ca82806c4759e863f1099696": {
                "nonce": "0x00",
                "balance": "0x0de0b6b3a7640000",
                "code": "0x",
                "storage": {}
            },
            "0xc81ce551d8d7a8a24ff3cc158d3480ed3e1a8684": {
                "nonce": "0x00",
                "balance": "0x00",
                "code": "0x600160035500",
                "storage": {}
            },
            "0xc81ce551d8d7a8a24ff3cc158d3480ed3e1a8784": {
                "nonce": "0x00",
                "balance": "0x00",
                "code": "0x604060006040600073c81ce551d8d7a8a24ff3cc158d3480ed3e1a868462061a80f460025500",
                "storage": {}
            },
            "0xc81ce551d8d7a8a24ff3cc158d3480ed3e1a8884": {
                "nonce": "0x00",
                "balance": "0x00",
                "code": "0x604060006040600073c81ce551d8d7a8a24ff3cc158d3480ed3e1a8784620927c0f4600155622fffff60002000",
                "storage": {}
            },
            "0xc81ce551d8d7a8a24ff3cc158d3480ed3e1a8984": {
                "nonce": "0x00",
                "balance": "0x0de0b6b3a7640000",
                "code": "0x6040600060406000600073c81ce551d8d7a8a24ff3cc158d3480ed3e1a8884620c3500f26000556001600b5500",
                "storage": {}
            }
        },
        "transaction": {
            "nonce": "0x00",
            "gasPrice": "0x0a",
            "gasLimit": [
                "0x0f4240"
            ],
            "to": "0xc81ce551d8d7a8a24ff3cc158d3480ed3e1a8984",
            "value": [
                "0x00"
            ],
            "data": [
                "0x"
            ],
            "sender": "0x4678d64673ca94e9ca82806c4759e863f1099696",
            "secretKey": "0xa20f21ae37f658b1b443801cc81ce551d8d7a8a24ff3cc158d3480ed3e1a8684"
        },
        "post": {
            "Cancun": [
                {
                    "hash": "0x2e895fcb106a99bc9152477ee74543a56f936d81b6b8e80806e083fc73bb7811",
                    "logs": "0x1dcc4de8dec75d7aab85b567b6ccd41ad312451b948a7413f0a142fd40d49347",
                    "txbytes": "0xf860800a830f424094c81ce551d8d7a8a24ff3cc158d3480ed3e1a8984808026a08f65c564213634906217a622e273b5aeaaec453ca88a4717747139d3feaef091a053fcf286895158e002df190fbfb0e1491ac752d2f706e66b941d87101e14a235",
                    "indexes": {
                        "data": 0,
                        "gas": 0,
                        "value": 0
                    },
                    "state": {
                        "0x4678d64673ca94e9ca82806c4759e863f1099696": {
                            "nonce": "0x01",
                            "balance": "0x0de0b6b3a6e29d80",
                            "code": "0x",
                            "storage": {}
                        },
                        "0xc81ce551d8d7a8a24ff3cc158d3480ed3e1a8684": {
                            "nonce": "0x00",
                            "balance": "0x00",
                            "code": "0x600160035500",
                            "storage": {}
                        },
                        "0xc81ce551d8d7a8a24ff3cc158d3480ed3e1a8784": {
                            "nonce": "0x00",
                            "balance": "0x00",
                            "code": "0x604060006040600073c81ce551d8d7a8a24ff3cc158d3480ed3e1a868462061a80f460025500",
                            "storage": {}
                        },
                        "0xc81ce551d8d7a8a24ff3cc158d3480ed3e1a8884": {
                            "nonce": "0x00",
                            "balance": "0x00",
                            "code": "0x604060006040600073c81ce551d8d7a8a24ff3cc158d3480ed3e1a8784620927c0f4600155622fffff60002000",
                            "storage": {}
                        },
                        "0xc81ce551d8d7a8a24ff3cc158d3480ed3e1a8984": {
                            "nonce": "0x00",
                            "balance": "0x0de0b6b3a7640000",
                            "code": "0x6040600060406000600073c81ce551d8d7a8a24ff3cc158d3480ed3e1a8884620c3500f26000556001600b5500",
                            "storage": {
                                "0x0b": "0x01"
                            }
                        }
                    }
                }
            ]
        },
        "config": {
            "blobSchedule": {
                "Cancun": {
                    "target": "0x03",
                    "max": "0x06",
                    "baseFeeUpdateFraction": "0x32f0ed"
                }
            },
            "chainid": "0x01"
        },
        "_info": {
            "hash": "0xb7faa6be173b25625769bdf6d13cf0f7ffc2a195f42cfb4a3b421e1ada0b78f4",
            "comment": "`execution-specs` generated test",
            "filling-transition-tool": "2.18.0rc6",
            "description": "No description available - add a docstring to the python test class or function.",
            "url": "",
            "fixture-format": "state_test"
        }
    },
    "tests/static/state_tests/stCallDelegateCodesCallCodeHomestead/callcallcodecallcode_011_OOGMAfterFiller.json::callcallcodecallcode_011_OOGMAfter[fork_Osaka-state_test-]": {
        "env": {
            "currentCoinbase": "0x2adc25665018aa1fe0e6bc666dac8fc2697ff9ba",
            "currentGasLimit": "0x01c9c380",
            "currentNumber": "0x01",
            "currentTimestamp": "0x03e8",
            "currentRandom": "0x0000000000000000000000000000000000000000000000000000000000020000",
            "currentDifficulty": "0x00",
            "currentBaseFee": "0x0a",
            "currentExcessBlobGas": "0x00"
        },
        "pre": {
            "0x4678d64673ca94e9ca82806c4759e863f1099696": {
                "nonce": "0x00",
                "balance": "0x0de0b6b3a7640000",
                "code": "0x",
                "storage": {}
            },
            "0xc81ce551d8d7a8a24ff3cc158d3480ed3e1a8684": {
                "nonce": "0x00",
                "balance": "0x00",
                "code": "0x600160035500",
                "storage": {}
            },
            "0xc81ce551d8d7a8a24ff3cc158d3480ed3e1a8784": {
                "nonce": "0x00",
                "balance": "0x00",
                "code": "0x604060006040600073c81ce551d8d7a8a24ff3cc158d3480ed3e1a868462061a80f460025500",
                "storage": {}
            },
            "0xc81ce551d8d7a8a24ff3cc158d3480ed3e1a8884": {
                "nonce": "0x00",
                "balance": "0x00",
                "code": "0x604060006040600073c81ce551d8d7a8a24ff3cc158d3480ed3e1a8784620927c0f4600155622fffff60002000",
                "storage": {}
            },
            "0xc81ce551d8d7a8a24ff3cc158d3480ed3e1a8984": {
                "nonce": "0x00",
                "balance": "0x0de0b6b3a7640000",
                "code": "0x6040600060406000600073c81ce551d8d7a8a24ff3cc158d3480ed3e1a8884620c3500f26000556001600b5500",
                "storage": {}
            }
        },
        "transaction": {
            "nonce": "0x00",
            "gasPrice": "0x0a",
            "gasLimit": [
                "0x0f4240"
            ],
            "to": "0xc81ce551d8d7a8a24ff3cc158d3480ed3e1a8984",
            "value": [
                "0x00"
            ],
            "data": [
                "0x"
            ],
            "sender": "0x4678d64673ca94e9ca82806c4759e863f1099696",
            "secretKey": "0xa20f21ae37f658b1b443801cc81ce551d8d7a8a24ff3cc158d3480ed3e1a8684"
        },
        "post": {
            "Osaka": [
                {
                    "hash": "0x2e895fcb106a99bc9152477ee74543a56f936d81b6b8e80806e083fc73bb7811",
                    "logs": "0x1dcc4de8dec75d7aab85b567b6ccd41ad312451b948a7413f0a142fd40d49347",
                    "txbytes": "0xf860800a830f424094c81ce551d8d7a8a24ff3cc158d3480ed3e1a8984808026a08f65c564213634906217a622e273b5aeaaec453ca88a4717747139d3feaef091a053fcf286895158e002df190fbfb0e1491ac752d2f706e66b941d87101e14a235",
                    "indexes": {
                        "data": 0,
                        "gas": 0,
                        "value": 0
                    },
                    "state": {
                        "0x4678d64673ca94e9ca82806c4759e863f1099696": {
                            "nonce": "0x01",
                            "balance": "0x0de0b6b3a6e29d80",
                            "code": "0x",
                            "storage": {}
                        },
                        "0xc81ce551d8d7a8a24ff3cc158d3480ed3e1a8684": {
                            "nonce": "0x00",
                            "balance": "0x00",
                            "code": "0x600160035500",
                            "storage": {}
                        },
                        "0xc81ce551d8d7a8a24ff3cc158d3480ed3e1a8784": {
                            "nonce": "0x00",
                            "balance": "0x00",
                            "code": "0x604060006040600073c81ce551d8d7a8a24ff3cc158d3480ed3e1a868462061a80f460025500",
                            "storage": {}
                        },
                        "0xc81ce551d8d7a8a24ff3cc158d3480ed3e1a8884": {
                            "nonce": "0x00",
                            "balance": "0x00",
                            "code": "0x604060006040600073c81ce551d8d7a8a24ff3cc158d3480ed3e1a8784620927c0f4600155622fffff60002000",
                            "storage": {}
                        },
                        "0xc81ce551d8d7a8a24ff3cc158d3480ed3e1a8984": {
                            "nonce": "0x00",
                            "balance": "0x0de0b6b3a7640000",
                            "code": "0x6040600060406000600073c81ce551d8d7a8a24ff3cc158d3480ed3e1a8884620c3500f26000556001600b5500",
                            "storage": {
                                "0x0b": "0x01"
                            }
                        }
                    }
                }
            ]
        },
        "config": {
            "blobSchedule": {
                "Cancun": {
                    "target": "0x03",
                    "max": "0x06",
                    "baseFeeUpdateFraction": "0x32f0ed"
                },
                "Prague": {
                    "target": "0x06",
                    "max": "0x09",
                    "baseFeeUpdateFraction": "0x4c6964"
                },
                "Osaka": {
                    "target": "0x06",
                    "max": "0x09",
                    "baseFeeUpdateFraction": "0x4c6964"
                }
            },
            "chainid": "0x01"
        },
        "_info": {
            "hash": "0xd6361ff222e1bbd68a1b99f33ba09081249c036c7b9126353925c72941f70760",
            "comment": "`execution-specs` generated test",
            "filling-transition-tool": "2.18.0rc6",
            "description": "No description available - add a docstring to the python test class or function.",
            "url": "",
            "fixture-format": "state_test"
        }
    },
    "tests/static/state_tests/stCallDelegateCodesCallCodeHomestead/callcallcodecallcode_011_OOGMAfterFiller.json::callcallcodecallcode_011_OOGMAfter[fork_Prague-state_test-]": {
        "env": {
            "currentCoinbase": "0x2adc25665018aa1fe0e6bc666dac8fc2697ff9ba",
            "currentGasLimit": "0x01c9c380",
            "currentNumber": "0x01",
            "currentTimestamp": "0x03e8",
            "currentRandom": "0x0000000000000000000000000000000000000000000000000000000000020000",
            "currentDifficulty": "0x00",
            "currentBaseFee": "0x0a",
            "currentExcessBlobGas": "0x00"
        },
        "pre": {
            "0x4678d64673ca94e9ca82806c4759e863f1099696": {
                "nonce": "0x00",
                "balance": "0x0de0b6b3a7640000",
                "code": "0x",
                "storage": {}
            },
            "0xc81ce551d8d7a8a24ff3cc158d3480ed3e1a8684": {
                "nonce": "0x00",
                "balance": "0x00",
                "code": "0x600160035500",
                "storage": {}
            },
            "0xc81ce551d8d7a8a24ff3cc158d3480ed3e1a8784": {
                "nonce": "0x00",
                "balance": "0x00",
                "code": "0x604060006040600073c81ce551d8d7a8a24ff3cc158d3480ed3e1a868462061a80f460025500",
                "storage": {}
            },
            "0xc81ce551d8d7a8a24ff3cc158d3480ed3e1a8884": {
                "nonce": "0x00",
                "balance": "0x00",
                "code": "0x604060006040600073c81ce551d8d7a8a24ff3cc158d3480ed3e1a8784620927c0f4600155622fffff60002000",
                "storage": {}
            },
            "0xc81ce551d8d7a8a24ff3cc158d3480ed3e1a8984": {
                "nonce": "0x00",
                "balance": "0x0de0b6b3a7640000",
                "code": "0x6040600060406000600073c81ce551d8d7a8a24ff3cc158d3480ed3e1a8884620c3500f26000556001600b5500",
                "storage": {}
            }
        },
        "transaction": {
            "nonce": "0x00",
            "gasPrice": "0x0a",
            "gasLimit": [
                "0x0f4240"
            ],
            "to": "0xc81ce551d8d7a8a24ff3cc158d3480ed3e1a8984",
            "value": [
                "0x00"
            ],
            "data": [
                "0x"
            ],
            "sender": "0x4678d64673ca94e9ca82806c4759e863f1099696",
            "secretKey": "0xa20f21ae37f658b1b443801cc81ce551d8d7a8a24ff3cc158d3480ed3e1a8684"
        },
        "post": {
            "Prague": [
                {
                    "hash": "0x2e895fcb106a99bc9152477ee74543a56f936d81b6b8e80806e083fc73bb7811",
                    "logs": "0x1dcc4de8dec75d7aab85b567b6ccd41ad312451b948a7413f0a142fd40d49347",
                    "txbytes": "0xf860800a830f424094c81ce551d8d7a8a24ff3cc158d3480ed3e1a8984808026a08f65c564213634906217a622e273b5aeaaec453ca88a4717747139d3feaef091a053fcf286895158e002df190fbfb0e1491ac752d2f706e66b941d87101e14a235",
                    "indexes": {
                        "data": 0,
                        "gas": 0,
                        "value": 0
                    },
                    "state": {
                        "0x4678d64673ca94e9ca82806c4759e863f1099696": {
                            "nonce": "0x01",
                            "balance": "0x0de0b6b3a6e29d80",
                            "code": "0x",
                            "storage": {}
                        },
                        "0xc81ce551d8d7a8a24ff3cc158d3480ed3e1a8684": {
                            "nonce": "0x00",
                            "balance": "0x00",
                            "code": "0x600160035500",
                            "storage": {}
                        },
                        "0xc81ce551d8d7a8a24ff3cc158d3480ed3e1a8784": {
                            "nonce": "0x00",
                            "balance": "0x00",
                            "code": "0x604060006040600073c81ce551d8d7a8a24ff3cc158d3480ed3e1a868462061a80f460025500",
                            "storage": {}
                        },
                        "0xc81ce551d8d7a8a24ff3cc158d3480ed3e1a8884": {
                            "nonce": "0x00",
                            "balance": "0x00",
                            "code": "0x604060006040600073c81ce551d8d7a8a24ff3cc158d3480ed3e1a8784620927c0f4600155622fffff60002000",
                            "storage": {}
                        },
                        "0xc81ce551d8d7a8a24ff3cc158d3480ed3e1a8984": {
                            "nonce": "0x00",
                            "balance": "0x0de0b6b3a7640000",
                            "code": "0x6040600060406000600073c81ce551d8d7a8a24ff3cc158d3480ed3e1a8884620c3500f26000556001600b5500",
                            "storage": {
                                "0x0b": "0x01"
                            }
                        }
                    }
                }
            ]
        },
        "config": {
            "blobSchedule": {
                "Cancun": {
                    "target": "0x03",
                    "max": "0x06",
                    "baseFeeUpdateFraction": "0x32f0ed"
                },
                "Prague": {
                    "target": "0x06",
                    "max": "0x09",
                    "baseFeeUpdateFraction": "0x4c6964"
                }
            },
            "chainid": "0x01"
        },
        "_info": {
            "hash": "0x546a6e15941536efe18638dd36f7fe9a1267051ad7973ea933196ddd740af70a",
            "comment": "`execution-specs` generated test",
            "filling-transition-tool": "2.18.0rc6",
            "description": "No description available - add a docstring to the python test class or function.",
            "url": "",
            "fixture-format": "state_test"
        }
    }
}