{
    "tests/static/state_tests/stCallDelegateCodesCallCodeHomestead/callcodecall_10_SuicideEndFiller.json::callcodecall_10_SuicideEnd[fork_Cancun-state_test-]": {
        "env": {
            "currentCoinbase": "0x2adc25665018aa1fe0e6bc666dac8fc2697ff9ba",
            "currentGasLimit": "0x01c9c380",
            "currentNumber": "0x01",
            "currentTimestamp": "0x03e8",
            "currentRandom": "0x0000000000000000000000000000000000000000000000000000000000020000",
            "currentDifficulty": "0x00",
            "currentBaseFee": "0x0a",
            "currentExcessBlobGas": "0x00"
        },
        "pre": {
            "0x5b66e289bca65d33606b6020f8e637bc218128fd": {
                "nonce": "0x00",
                "balance": "0x0de0b6b3a7640000",
                "code": "0x",
                "storage": {}
            },
            "0xd04a215c792c803c3774ded0dc6ddcb54735f0ca": {
                "nonce": "0x00",
                "balance": "0x02540be400",
                "code": "0x600160025500",
                "storage": {}
            },
            "0xd04a215c792c803c3774ded0dc6ddcb54735f1ca": {
                "nonce": "0x00",
                "balance": "0x0de0b6b3a7640000",
                "code": "0x604060006040600073d04a215c792c803c3774ded0dc6ddcb54735f2ca620249f0f460005500",
                "storage": {}
            },
            "0xd04a215c792c803c3774ded0dc6ddcb54735f2ca": {
                "nonce": "0x00",
                "balance": "0x02540be400",
                "code": "0x6040600060406000600073d04a215c792c803c3774ded0dc6ddcb54735f0ca61c350f260015573d04a215c792c803c3774ded0dc6ddcb54735f1caff00",
                "storage": {}
            }
        },
        "transaction": {
            "nonce": "0x00",
            "gasPrice": "0x0a",
            "gasLimit": [
                "0x2dc6c0"
            ],
            "to": "0xd04a215c792c803c3774ded0dc6ddcb54735f1ca",
            "value": [
                "0x00"
            ],
            "data": [
                "0x"
            ],
            "sender": "0x5b66e289bca65d33606b6020f8e637bc218128fd",
            "secretKey": "0x5d46a6338c965c59d728cd34d04a215c792c803c3774ded0dc6ddcb54735f0ca"
        },
        "post": {
            "Cancun": [
                {
                    "hash": "0xbd775840d019153cabd94fa1e502ca1ad65edb361daa62d26f552bb49ce8c5d4",
                    "logs": "0x1dcc4de8dec75d7aab85b567b6ccd41ad312451b948a7413f0a142fd40d49347",
                    "txbytes": "0xf860800a832dc6c094d04a215c792c803c3774ded0dc6ddcb54735f1ca808026a016e73ed9d6346f5d7fc98403789d4868b0f622814ef063bd73f3f60cc82638b7a04f548308d72407fceba51062e370701a9af56314ed1cecc2de6a22091cc02f2f",
                    "indexes": {
                        "data": 0,
                        "gas": 0,
                        "value": 0
                    },
                    "state": {
                        "0x5b66e289bca65d33606b6020f8e637bc218128fd": {
                            "nonce": "0x01",
                            "balance": "0x0de0b6b3a7551cd4",
                            "code": "0x",
                            "storage": {}
                        },
                        "0xd04a215c792c803c3774ded0dc6ddcb54735f0ca": {
                            "nonce": "0x00",
                            "balance": "0x02540be400",
                            "code": "0x600160025500",
                            "storage": {}
                        },
                        "0xd04a215c792c803c3774ded0dc6ddcb54735f1ca": {
                            "nonce": "0x00",
                            "balance": "0x0de0b6b3a7640000",
                            "code": "0x604060006040600073d04a215c792c803c3774ded0dc6ddcb54735f2ca620249f0f460005500",
                            "storage": {
                                "0x02": "0x01",
                                "0x01": "0x01",
                                "0x00": "0x01"
                            }
                        },
                        "0xd04a215c792c803c3774ded0dc6ddcb54735f2ca": {
                            "nonce": "0x00",
                            "balance": "0x02540be400",
                            "code": "0x6040600060406000600073d04a215c792c803c3774ded0dc6ddcb54735f0ca61c350f260015573d04a215c792c803c3774ded0dc6ddcb54735f1caff00",
                            "storage": {}
                        }
                    }
                }
            ]
        },
        "config": {
            "blobSchedule": {
                "Cancun": {
                    "target": "0x03",
                    "max": "0x06",
                    "baseFeeUpdateFraction": "0x32f0ed"
                }
            },
            "chainid": "0x01"
        },
        "_info": {
            "hash": "0xe03d0ac16db919b916f06ed74b497f5c8b7e6150dd12e330d484be06b294f15d",
            "comment": "`execution-specs` generated test",
            "filling-transition-tool": "2.18.0rc6",
            "description": "No description available - add a docstring to the python test class or function.",
            "url": "",
            "fixture-format": "state_test"
        }
    },
    "tests/static/state_tests/stCallDelegateCodesCallCodeHomestead/callcodecall_10_SuicideEndFiller.json::callcodecall_10_SuicideEnd[fork_Osaka-state_test-]": {
        "env": {
            "currentCoinbase": "0x2adc25665018aa1fe0e6bc666dac8fc2697ff9ba",
            "currentGasLimit": "0x01c9c380",
            "currentNumber": "0x01",
            "currentTimestamp": "0x03e8",
            "currentRandom": "0x0000000000000000000000000000000000000000000000000000000000020000",
            "currentDifficulty": "0x00",
            "currentBaseFee": "0x0a",
            "currentExcessBlobGas": "0x00"
        },
        "pre": {
            "0x5b66e289bca65d33606b6020f8e637bc218128fd": {
                "nonce": "0x00",
                "balance": "0x0de0b6b3a7640000",
                "code": "0x",
                "storage": {}
            },
            "0xd04a215c792c803c3774ded0dc6ddcb54735f0ca": {
                "nonce": "0x00",
                "balance": "0x02540be400",
                "code": "0x600160025500",
                "storage": {}
            },
            "0xd04a215c792c803c3774ded0dc6ddcb54735f1ca": {
                "nonce": "0x00",
                "balance": "0x0de0b6b3a7640000",
                "code": "0x604060006040600073d04a215c792c803c3774ded0dc6ddcb54735f2ca620249f0f460005500",
                "storage": {}
            },
            "0xd04a215c792c803c3774ded0dc6ddcb54735f2ca": {
                "nonce": "0x00",
                "balance": "0x02540be400",
                "code": "0x6040600060406000600073d04a215c792c803c3774ded0dc6ddcb54735f0ca61c350f260015573d04a215c792c803c3774ded0dc6ddcb54735f1caff00",
                "storage": {}
            }
        },
        "transaction": {
            "nonce": "0x00",
            "gasPrice": "0x0a",
            "gasLimit": [
                "0x2dc6c0"
            ],
            "to": "0xd04a215c792c803c3774ded0dc6ddcb54735f1ca",
            "value": [
                "0x00"
            ],
            "data": [
                "0x"
            ],
            "sender": "0x5b66e289bca65d33606b6020f8e637bc218128fd",
            "secretKey": "0x5d46a6338c965c59d728cd34d04a215c792c803c3774ded0dc6ddcb54735f0ca"
        },
        "post": {
            "Osaka": [
                {
                    "hash": "0xbd775840d019153cabd94fa1e502ca1ad65edb361daa62d26f552bb49ce8c5d4",
                    "logs": "0x1dcc4de8dec75d7aab85b567b6ccd41ad312451b948a7413f0a142fd40d49347",
                    "txbytes": "0xf860800a832dc6c094d04a215c792c803c3774ded0dc6ddcb54735f1ca808026a016e73ed9d6346f5d7fc98403789d4868b0f622814ef063bd73f3f60cc82638b7a04f548308d72407fceba51062e370701a9af56314ed1cecc2de6a22091cc02f2f",
                    "indexes": {
                        "data": 0,
                        "gas": 0,
                        "value": 0
                    },
                    "state": {
                        "0x5b66e289bca65d33606b6020f8e637bc218128fd": {
                            "nonce": "0x01",
                            "balance": "0x0de0b6b3a7551cd4",
                            "code": "0x",
                            "storage": {}
                        },
                        "0xd04a215c792c803c3774ded0dc6ddcb54735f0ca": {
                            "nonce": "0x00",
                            "balance": "0x02540be400",
                            "code": "0x600160025500",
                            "storage": {}
                        },
                        "0xd04a215c792c803c3774ded0dc6ddcb54735f1ca": {
                            "nonce": "0x00",
                            "balance": "0x0de0b6b3a7640000",
                            "code": "0x604060006040600073d04a215c792c803c3774ded0dc6ddcb54735f2ca620249f0f460005500",
                            "storage": {
                                "0x02": "0x01",
                                "0x01": "0x01",
                                "0x00": "0x01"
                            }
                        },
                        "0xd04a215c792c803c3774ded0dc6ddcb54735f2ca": {
                            "nonce": "0x00",
                            "balance": "0x02540be400",
                            "code": "0x6040600060406000600073d04a215c792c803c3774ded0dc6ddcb54735f0ca61c350f260015573d04a215c792c803c3774ded0dc6ddcb54735f1caff00",
                            "storage": {}
                        }
                    }
                }
            ]
        },
        "config": {
            "blobSchedule": {
                "Cancun": {
                    "target": "0x03",
                    "max": "0x06",
                    "baseFeeUpdateFraction": "0x32f0ed"
                },
                "Prague": {
                    "target": "0x06",
                    "max": "0x09",
                    "baseFeeUpdateFraction": "0x4c6964"
                },
                "Osaka": {
                    "target": "0x06",
                    "max": "0x09",
                    "baseFeeUpdateFraction": "0x4c6964"
                }
            },
            "chainid": "0x01"
        },
        "_info": {
            "hash": "0xfa1f40b95f35a57a5e5f6b112f278ca793cf1febf3c0aa6db5b4163009ec95cd",
            "comment": "`execution-specs` generated test",
            "filling-transition-tool": "2.18.0rc6",
            "description": "No description available - add a docstring to the python test class or function.",
            "url": "",
            "fixture-format": "state_test"
        }
    },
    "tests/static/state_tests/stCallDelegateCodesCallCodeHomestead/callcodecall_10_SuicideEndFiller.json::callcodecall_10_SuicideEnd[fork_Prague-state_test-]": {
        "env": {
            "currentCoinbase": "0x2adc25665018aa1fe0e6bc666dac8fc2697ff9ba",
            "currentGasLimit": "0x01c9c380",
            "currentNumber": "0x01",
            "currentTimestamp": "0x03e8",
            "currentRandom": "0x0000000000000000000000000000000000000000000000000000000000020000",
            "currentDifficulty": "0x00",
            "currentBaseFee": "0x0a",
            "currentExcessBlobGas": "0x00"
        },
        "pre": {
            "0x5b66e289bca65d33606b6020f8e637bc218128fd": {
                "nonce": "0x00",
                "balance": "0x0de0b6b3a7640000",
                "code": "0x",
                "storage": {}
            },
            "0xd04a215c792c803c3774ded0dc6ddcb54735f0ca": {
                "nonce": "0x00",
                "balance": "0x02540be400",
                "code": "0x600160025500",
                "storage": {}
            },
            "0xd04a215c792c803c3774ded0dc6ddcb54735f1ca": {
                "nonce": "0x00",
                "balance": "0x0de0b6b3a7640000",
                "code": "0x604060006040600073d04a215c792c803c3774ded0dc6ddcb54735f2ca620249f0f460005500",
                "storage": {}
            },
            "0xd04a215c792c803c3774ded0dc6ddcb54735f2ca": {
                "nonce": "0x00",
                "balance": "0x02540be400",
                "code": "0x6040600060406000600073d04a215c792c803c3774ded0dc6ddcb54735f0ca61c350f260015573d04a215c792c803c3774ded0dc6ddcb54735f1caff00",
                "storage": {}
            }
        },
        "transaction": {
            "nonce": "0x00",
            "gasPrice": "0x0a",
            "gasLimit": [
                "0x2dc6c0"
            ],
            "to": "0xd04a215c792c803c3774ded0dc6ddcb54735f1ca",
            "value": [
                "0x00"
            ],
            "data": [
                "0x"
            ],
            "sender": "0x5b66e289bca65d33606b6020f8e637bc218128fd",
            "secretKey": "0x5d46a6338c965c59d728cd34d04a215c792c803c3774ded0dc6ddcb54735f0ca"
        },
        "post": {
            "Prague": [
                {
                    "hash": "0xbd775840d019153cabd94fa1e502ca1ad65edb361daa62d26f552bb49ce8c5d4",
                    "logs": "0x1dcc4de8dec75d7aab85b567b6ccd41ad312451b948a7413f0a142fd40d49347",
                    "txbytes": "0xf860800a832dc6c094d04a215c792c803c3774ded0dc6ddcb54735f1ca808026a016e73ed9d6346f5d7fc98403789d4868b0f622814ef063bd73f3f60cc82638b7a04f548308d72407fceba51062e370701a9af56314ed1cecc2de6a22091cc02f2f",
                    "indexes": {
                        "data": 0,
                        "gas": 0,
                        "value": 0
                    },
                    "state": {
                        "0x5b66e289bca65d33606b6020f8e637bc218128fd": {
                            "nonce": "0x01",
                            "balance": "0x0de0b6b3a7551cd4",
                            "code": "0x",
                            "storage": {}
                        },
                        "0xd04a215c792c803c3774ded0dc6ddcb54735f0ca": {
                            "nonce": "0x00",
                            "balance": "0x02540be400",
                            "code": "0x600160025500",
                            "storage": {}
                        },
                        "0xd04a215c792c803c3774ded0dc6ddcb54735f1ca": {
                            "nonce": "0x00",
                            "balance": "0x0de0b6b3a7640000",
                            "code": "0x604060006040600073d04a215c792c803c3774ded0dc6ddcb54735f2ca620249f0f460005500",
                            "storage": {
                                "0x02": "0x01",
                                "0x01": "0x01",
                                "0x00": "0x01"
                            }
                        },
                        "0xd04a215c792c803c3774ded0dc6ddcb54735f2ca": {
                            "nonce": "0x00",
                            "balance": "0x02540be400",
                            "code": "0x6040600060406000600073d04a215c792c803c3774ded0dc6ddcb54735f0ca61c350f260015573d04a215c792c803c3774ded0dc6ddcb54735f1caff00",
                            "storage": {}
                        }
                    }
                }
            ]
        },
        "config": {
            "blobSchedule": {
                "Cancun": {
                    "target": "0x03",
                    "max": "0x06",
                    "baseFeeUpdateFraction": "0x32f0ed"
                },
                "Prague": {
                    "target": "0x06",
                    "max": "0x09",
                    "baseFeeUpdateFraction": "0x4c6964"
                }
            },
            "chainid": "0x01"
        },
        "_info": {
            "hash": "0xbfd62807726670076b66652c1f12dada54b4eaaa0296689ffb948891eec256f9",
            "comment": "`execution-specs` generated test",
            "filling-transition-tool": "2.18.0rc6",
            "description": "No description available - add a docstring to the python test class or function.",
            "url": "",
            "fixture-format": "state_test"
        }
    }
}