{
    "tests/static/state_tests/stCallDelegateCodesCallCodeHomestead/callcallcallcode_001_OOGEFiller.json::callcallcallcode_001_OOGE[fork_Cancun-state_test-]": {
        "env": {
            "currentCoinbase": "0x2adc25665018aa1fe0e6bc666dac8fc2697ff9ba",
            "currentGasLimit": "0x01c9c380",
            "currentNumber": "0x01",
            "currentTimestamp": "0x03e8",
            "currentRandom": "0x0000000000000000000000000000000000000000000000000000000000020000",
            "currentDifficulty": "0x00",
            "currentBaseFee": "0x0a",
            "currentExcessBlobGas": "0x00"
        },
        "pre": {
            "0x895e12e6d8e28db2513055e25c20c816f2ea3636": {
                "nonce": "0x00",
                "balance": "0x0de0b6b3a7640000",
                "code": "0x",
                "storage": {}
            },
            "0x4db3d71710ea9c66ed902c601f7903c710b2e489": {
                "nonce": "0x00",
                "balance": "0x00",
                "code": "0x6001600355622fffff60002000",
                "storage": {}
            },
            "0x4db3d71710ea9c66ed902c601f7903c710b2e589": {
                "nonce": "0x00",
                "balance": "0x00",
                "code": "0x6040600060406000734db3d71710ea9c66ed902c601f7903c710b2e48962061a80f46002556001600b5500",
                "storage": {}
            },
            "0x4db3d71710ea9c66ed902c601f7903c710b2e689": {
                "nonce": "0x00",
                "balance": "0x00",
                "code": "0x60406000604060006000734db3d71710ea9c66ed902c601f7903c710b2e589620927c0f260015500",
                "storage": {}
            },
            "0x4db3d71710ea9c66ed902c601f7903c710b2e789": {
                "nonce": "0x00",
                "balance": "0x0de0b6b3a7640000",
                "code": "0x60406000604060006000734db3d71710ea9c66ed902c601f7903c710b2e689620c3500f260005500",
                "storage": {}
            }
        },
        "transaction": {
            "nonce": "0x00",
            "gasPrice": "0x0a",
            "gasLimit": [
                "0x0f4240"
            ],
            "to": "0x4db3d71710ea9c66ed902c601f7903c710b2e789",
            "value": [
                "0x00"
            ],
            "data": [
                "0x"
            ],
            "sender": "0x895e12e6d8e28db2513055e25c20c816f2ea3636",
            "secretKey": "0x3ea4fb22360658db4bccac3d4db3d71710ea9c66ed902c601f7903c710b2e489"
        },
        "post": {
            "Cancun": [
                {
                    "hash": "0xcdbc1955a9934b432c221faf6f95f402e0a712e507024044649a6007e25f4fa5",
                    "logs": "0x1dcc4de8dec75d7aab85b567b6ccd41ad312451b948a7413f0a142fd40d49347",
                    "txbytes": "0xf860800a830f4240944db3d71710ea9c66ed902c601f7903c710b2e789808026a05d2175318b16a1eecce1a458565ca1e68a72a2d729649f3d8422f839ab7964c3a02f14ccea611c43203c15f1fd8e809912de837f304c99c494a29117f38e8fbaba",
                    "indexes": {
                        "data": 0,
                        "gas": 0,
                        "value": 0
                    },
                    "state": {
                        "0x895e12e6d8e28db2513055e25c20c816f2ea3636": {
                            "nonce": "0x01",
                            "balance": "0x0de0b6b3a7181a96",
                            "code": "0x",
                            "storage": {}
                        },
                        "0x4db3d71710ea9c66ed902c601f7903c710b2e489": {
                            "nonce": "0x00",
                            "balance": "0x00",
                            "code": "0x6001600355622fffff60002000",
                            "storage": {}
                        },
                        "0x4db3d71710ea9c66ed902c601f7903c710b2e589": {
                            "nonce": "0x00",
                            "balance": "0x00",
                            "code": "0x6040600060406000734db3d71710ea9c66ed902c601f7903c710b2e48962061a80f46002556001600b5500",
                            "storage": {}
                        },
                        "0x4db3d71710ea9c66ed902c601f7903c710b2e689": {
                            "nonce": "0x00",
                            "balance": "0x00",
                            "code": "0x60406000604060006000734db3d71710ea9c66ed902c601f7903c710b2e589620927c0f260015500",
                            "storage": {}
                        },
                        "0x4db3d71710ea9c66ed902c601f7903c710b2e789": {
                            "nonce": "0x00",
                            "balance": "0x0de0b6b3a7640000",
                            "code": "0x60406000604060006000734db3d71710ea9c66ed902c601f7903c710b2e689620c3500f260005500",
                            "storage": {
                                "0x0b": "0x01",
                                "0x01": "0x01",
                                "0x00": "0x01"
                            }
                        }
                    }
                }
            ]
        },
        "config": {
            "blobSchedule": {
                "Cancun": {
                    "target": "0x03",
                    "max": "0x06",
                    "baseFeeUpdateFraction": "0x32f0ed"
                }
            },
            "chainid": "0x01"
        },
        "_info": {
            "hash": "0x55e5dc393e5560a83632a34593d4e47a9fe7eb0b8c5e9a17e4a34f46578d894f",
            "comment": "`execution-specs` generated test",
            "filling-transition-tool": "2.18.0rc6",
            "description": "No description available - add a docstring to the python test class or function.",
            "url": "",
            "fixture-format": "state_test"
        }
    },
    "tests/static/state_tests/stCallDelegateCodesCallCodeHomestead/callcallcallcode_001_OOGEFiller.json::callcallcallcode_001_OOGE[fork_Osaka-state_test-]": {
        "env": {
            "currentCoinbase": "0x2adc25665018aa1fe0e6bc666dac8fc2697ff9ba",
            "currentGasLimit": "0x01c9c380",
            "currentNumber": "0x01",
            "currentTimestamp": "0x03e8",
            "currentRandom": "0x0000000000000000000000000000000000000000000000000000000000020000",
            "currentDifficulty": "0x00",
            "currentBaseFee": "0x0a",
            "currentExcessBlobGas": "0x00"
        },
        "pre": {
            "0x895e12e6d8e28db2513055e25c20c816f2ea3636": {
                "nonce": "0x00",
                "balance": "0x0de0b6b3a7640000",
                "code": "0x",
                "storage": {}
            },
            "0x4db3d71710ea9c66ed902c601f7903c710b2e489": {
                "nonce": "0x00",
                "balance": "0x00",
                "code": "0x6001600355622fffff60002000",
                "storage": {}
            },
            "0x4db3d71710ea9c66ed902c601f7903c710b2e589": {
                "nonce": "0x00",
                "balance": "0x00",
                "code": "0x6040600060406000734db3d71710ea9c66ed902c601f7903c710b2e48962061a80f46002556001600b5500",
                "storage": {}
            },
            "0x4db3d71710ea9c66ed902c601f7903c710b2e689": {
                "nonce": "0x00",
                "balance": "0x00",
                "code": "0x60406000604060006000734db3d71710ea9c66ed902c601f7903c710b2e589620927c0f260015500",
                "storage": {}
            },
            "0x4db3d71710ea9c66ed902c601f7903c710b2e789": {
                "nonce": "0x00",
                "balance": "0x0de0b6b3a7640000",
                "code": "0x60406000604060006000734db3d71710ea9c66ed902c601f7903c710b2e689620c3500f260005500",
                "storage": {}
            }
        },
        "transaction": {
            "nonce": "0x00",
            "gasPrice": "0x0a",
            "gasLimit": [
                "0x0f4240"
            ],
            "to": "0x4db3d71710ea9c66ed902c601f7903c710b2e789",
            "value": [
                "0x00"
            ],
            "data": [
                "0x"
            ],
            "sender": "0x895e12e6d8e28db2513055e25c20c816f2ea3636",
            "secretKey": "0x3ea4fb22360658db4bccac3d4db3d71710ea9c66ed902c601f7903c710b2e489"
        },
        "post": {
            "Osaka": [
                {
                    "hash": "0xcdbc1955a9934b432c221faf6f95f402e0a712e507024044649a6007e25f4fa5",
                    "logs": "0x1dcc4de8dec75d7aab85b567b6ccd41ad312451b948a7413f0a142fd40d49347",
                    "txbytes": "0xf860800a830f4240944db3d71710ea9c66ed902c601f7903c710b2e789808026a05d2175318b16a1eecce1a458565ca1e68a72a2d729649f3d8422f839ab7964c3a02f14ccea611c43203c15f1fd8e809912de837f304c99c494a29117f38e8fbaba",
                    "indexes": {
                        "data": 0,
                        "gas": 0,
                        "value": 0
                    },
                    "state": {
                        "0x895e12e6d8e28db2513055e25c20c816f2ea3636": {
                            "nonce": "0x01",
                            "balance": "0x0de0b6b3a7181a96",
                            "code": "0x",
                            "storage": {}
                        },
                        "0x4db3d71710ea9c66ed902c601f7903c710b2e489": {
                            "nonce": "0x00",
                            "balance": "0x00",
                            "code": "0x6001600355622fffff60002000",
                            "storage": {}
                        },
                        "0x4db3d71710ea9c66ed902c601f7903c710b2e589": {
                            "nonce": "0x00",
                            "balance": "0x00",
                            "code": "0x6040600060406000734db3d71710ea9c66ed902c601f7903c710b2e48962061a80f46002556001600b5500",
                            "storage": {}
                        },
                        "0x4db3d71710ea9c66ed902c601f7903c710b2e689": {
                            "nonce": "0x00",
                            "balance": "0x00",
                            "code": "0x60406000604060006000734db3d71710ea9c66ed902c601f7903c710b2e589620927c0f260015500",
                            "storage": {}
                        },
                        "0x4db3d71710ea9c66ed902c601f7903c710b2e789": {
                            "nonce": "0x00",
                            "balance": "0x0de0b6b3a7640000",
                            "code": "0x60406000604060006000734db3d71710ea9c66ed902c601f7903c710b2e689620c3500f260005500",
                            "storage": {
                                "0x0b": "0x01",
                                "0x01": "0x01",
                                "0x00": "0x01"
                            }
                        }
                    }
                }
            ]
        },
        "config": {
            "blobSchedule": {
                "Cancun": {
                    "target": "0x03",
                    "max": "0x06",
                    "baseFeeUpdateFraction": "0x32f0ed"
                },
                "Prague": {
                    "target": "0x06",
                    "max": "0x09",
                    "baseFeeUpdateFraction": "0x4c6964"
                },
                "Osaka": {
                    "target": "0x06",
                    "max": "0x09",
                    "baseFeeUpdateFraction": "0x4c6964"
                }
            },
            "chainid": "0x01"
        },
        "_info": {
            "hash": "0x9fd31fce220e655edca44b07affa1de7100bcc72cf6217fa82ef072cc468b2ee",
            "comment": "`execution-specs` generated test",
            "filling-transition-tool": "2.18.0rc6",
            "description": "No description available - add a docstring to the python test class or function.",
            "url": "",
            "fixture-format": "state_test"
        }
    },
    "tests/static/state_tests/stCallDelegateCodesCallCodeHomestead/callcallcallcode_001_OOGEFiller.json::callcallcallcode_001_OOGE[fork_Prague-state_test-]": {
        "env": {
            "currentCoinbase": "0x2adc25665018aa1fe0e6bc666dac8fc2697ff9ba",
            "currentGasLimit": "0x01c9c380",
            "currentNumber": "0x01",
            "currentTimestamp": "0x03e8",
            "currentRandom": "0x0000000000000000000000000000000000000000000000000000000000020000",
            "currentDifficulty": "0x00",
            "currentBaseFee": "0x0a",
            "currentExcessBlobGas": "0x00"
        },
        "pre": {
            "0x895e12e6d8e28db2513055e25c20c816f2ea3636": {
                "nonce": "0x00",
                "balance": "0x0de0b6b3a7640000",
                "code": "0x",
                "storage": {}
            },
            "0x4db3d71710ea9c66ed902c601f7903c710b2e489": {
                "nonce": "0x00",
                "balance": "0x00",
                "code": "0x6001600355622fffff60002000",
                "storage": {}
            },
            "0x4db3d71710ea9c66ed902c601f7903c710b2e589": {
                "nonce": "0x00",
                "balance": "0x00",
                "code": "0x6040600060406000734db3d71710ea9c66ed902c601f7903c710b2e48962061a80f46002556001600b5500",
                "storage": {}
            },
            "0x4db3d71710ea9c66ed902c601f7903c710b2e689": {
                "nonce": "0x00",
                "balance": "0x00",
                "code": "0x60406000604060006000734db3d71710ea9c66ed902c601f7903c710b2e589620927c0f260015500",
                "storage": {}
            },
            "0x4db3d71710ea9c66ed902c601f7903c710b2e789": {
                "nonce": "0x00",
                "balance": "0x0de0b6b3a7640000",
                "code": "0x60406000604060006000734db3d71710ea9c66ed902c601f7903c710b2e689620c3500f260005500",
                "storage": {}
            }
        },
        "transaction": {
            "nonce": "0x00",
            "gasPrice": "0x0a",
            "gasLimit": [
                "0x0f4240"
            ],
            "to": "0x4db3d71710ea9c66ed902c601f7903c710b2e789",
            "value": [
                "0x00"
            ],
            "data": [
                "0x"
            ],
            "sender": "0x895e12e6d8e28db2513055e25c20c816f2ea3636",
            "secretKey": "0x3ea4fb22360658db4bccac3d4db3d71710ea9c66ed902c601f7903c710b2e489"
        },
        "post": {
            "Prague": [
                {
                    "hash": "0xcdbc1955a9934b432c221faf6f95f402e0a712e507024044649a6007e25f4fa5",
                    "logs": "0x1dcc4de8dec75d7aab85b567b6ccd41ad312451b948a7413f0a142fd40d49347",
                    "txbytes": "0xf860800a830f4240944db3d71710ea9c66ed902c601f7903c710b2e789808026a05d2175318b16a1eecce1a458565ca1e68a72a2d729649f3d8422f839ab7964c3a02f14ccea611c43203c15f1fd8e809912de837f304c99c494a29117f38e8fbaba",
                    "indexes": {
                        "data": 0,
                        "gas": 0,
                        "value": 0
                    },
                    "state": {
                        "0x895e12e6d8e28db2513055e25c20c816f2ea3636": {
                            "nonce": "0x01",
                            "balance": "0x0de0b6b3a7181a96",
                            "code": "0x",
                            "storage": {}
                        },
                        "0x4db3d71710ea9c66ed902c601f7903c710b2e489": {
                            "nonce": "0x00",
                            "balance": "0x00",
                            "code": "0x6001600355622fffff60002000",
                            "storage": {}
                        },
                        "0x4db3d71710ea9c66ed902c601f7903c710b2e589": {
                            "nonce": "0x00",
                            "balance": "0x00",
                            "code": "0x6040600060406000734db3d71710ea9c66ed902c601f7903c710b2e48962061a80f46002556001600b5500",
                            "storage": {}
                        },
                        "0x4db3d71710ea9c66ed902c601f7903c710b2e689": {
                            "nonce": "0x00",
                            "balance": "0x00",
                            "code": "0x60406000604060006000734db3d71710ea9c66ed902c601f7903c710b2e589620927c0f260015500",
                            "storage": {}
                        },
                        "0x4db3d71710ea9c66ed902c601f7903c710b2e789": {
                            "nonce": "0x00",
                            "balance": "0x0de0b6b3a7640000",
                            "code": "0x60406000604060006000734db3d71710ea9c66ed902c601f7903c710b2e689620c3500f260005500",
                            "storage": {
                                "0x0b": "0x01",
                                "0x01": "0x01",
                                "0x00": "0x01"
                            }
                        }
                    }
                }
            ]
        },
        "config": {
            "blobSchedule": {
                "Cancun": {
                    "target": "0x03",
                    "max": "0x06",
                    "baseFeeUpdateFraction": "0x32f0ed"
                },
                "Prague": {
                    "target": "0x06",
                    "max": "0x09",
                    "baseFeeUpdateFraction": "0x4c6964"
                }
            },
            "chainid": "0x01"
        },
        "_info": {
            "hash": "0x20bc484c4b49a4ac5bac1781593be37fbc77e55bb57b5133928f5e324edbc74d",
            "comment": "`execution-specs` generated test",
            "filling-transition-tool": "2.18.0rc6",
            "description": "No description available - add a docstring to the python test class or function.",
            "url": "",
            "fixture-format": "state_test"
        }
    }
}