{
    "tests/static/state_tests/stCallDelegateCodesCallCodeHomestead/callcodecallcode_11_OOGEFiller.json::callcodecallcode_11_OOGE[fork_Cancun-state_test-]": {
        "env": {
            "currentCoinbase": "0x2adc25665018aa1fe0e6bc666dac8fc2697ff9ba",
            "currentGasLimit": "0x01c9c380",
            "currentNumber": "0x01",
            "currentTimestamp": "0x03e8",
            "currentRandom": "0x0000000000000000000000000000000000000000000000000000000000020000",
            "currentDifficulty": "0x00",
            "currentBaseFee": "0x0a",
            "currentExcessBlobGas": "0x00"
        },
        "pre": {
            "0xefd47e9e236f1c66b63a480cdb2ac5853c386490": {
                "nonce": "0x00",
                "balance": "0x0de0b6b3a7640000",
                "code": "0x",
                "storage": {}
            },
            "0xbd75c54c62a35dc8cfb14eecf6893b7e6dd146a9": {
                "nonce": "0x00",
                "balance": "0x00",
                "code": "0x6001600255622fffff60002000",
                "storage": {}
            },
            "0xbd75c54c62a35dc8cfb14eecf6893b7e6dd147a9": {
                "nonce": "0x00",
                "balance": "0x00",
                "code": "0x604060006040600073bd75c54c62a35dc8cfb14eecf6893b7e6dd146a9620927c0f46001556001600b5500",
                "storage": {}
            },
            "0xbd75c54c62a35dc8cfb14eecf6893b7e6dd148a9": {
                "nonce": "0x00",
                "balance": "0x0de0b6b3a7640000",
                "code": "0x604060006040600073bd75c54c62a35dc8cfb14eecf6893b7e6dd147a9620c3500f460005500",
                "storage": {}
            }
        },
        "transaction": {
            "nonce": "0x00",
            "gasPrice": "0x0a",
            "gasLimit": [
                "0x0f4240"
            ],
            "to": "0xbd75c54c62a35dc8cfb14eecf6893b7e6dd148a9",
            "value": [
                "0x00"
            ],
            "data": [
                "0x"
            ],
            "sender": "0xefd47e9e236f1c66b63a480cdb2ac5853c386490",
            "secretKey": "0xc87063da89e21940329eb2c5bd75c54c62a35dc8cfb14eecf6893b7e6dd146a9"
        },
        "post": {
            "Cancun": [
                {
                    "hash": "0x0b457a41a1f2baac545dcfaa64b8c8499fd9e2d8f3664a3243e3fd801c29d436",
                    "logs": "0x1dcc4de8dec75d7aab85b567b6ccd41ad312451b948a7413f0a142fd40d49347",
                    "txbytes": "0xf860800a830f424094bd75c54c62a35dc8cfb14eecf6893b7e6dd148a9808026a0745de568870781470df2b8c3f3a4b1550852c76c164eecc6066d812491015f41a05f11ee8c51f5906e476d871bd58356c372539061c677ea6fb7558ee13ce3f87d",
                    "indexes": {
                        "data": 0,
                        "gas": 0,
                        "value": 0
                    },
                    "state": {
                        "0xefd47e9e236f1c66b63a480cdb2ac5853c386490": {
                            "nonce": "0x01",
                            "balance": "0x0de0b6b3a6fd5c38",
                            "code": "0x",
                            "storage": {}
                        },
                        "0xbd75c54c62a35dc8cfb14eecf6893b7e6dd146a9": {
                            "nonce": "0x00",
                            "balance": "0x00",
                            "code": "0x6001600255622fffff60002000",
                            "storage": {}
                        },
                        "0xbd75c54c62a35dc8cfb14eecf6893b7e6dd147a9": {
                            "nonce": "0x00",
                            "balance": "0x00",
                            "code": "0x604060006040600073bd75c54c62a35dc8cfb14eecf6893b7e6dd146a9620927c0f46001556001600b5500",
                            "storage": {}
                        },
                        "0xbd75c54c62a35dc8cfb14eecf6893b7e6dd148a9": {
                            "nonce": "0x00",
                            "balance": "0x0de0b6b3a7640000",
                            "code": "0x604060006040600073bd75c54c62a35dc8cfb14eecf6893b7e6dd147a9620c3500f460005500",
                            "storage": {
                                "0x0b": "0x01",
                                "0x00": "0x01"
                            }
                        }
                    }
                }
            ]
        },
        "config": {
            "blobSchedule": {
                "Cancun": {
                    "target": "0x03",
                    "max": "0x06",
                    "baseFeeUpdateFraction": "0x32f0ed"
                }
            },
            "chainid": "0x01"
        },
        "_info": {
            "hash": "0xf1ace107cd56be2b9c9f1e6b63c723feb450f6a3c70ede82252bafebf7646897",
            "comment": "`execution-specs` generated test",
            "filling-transition-tool": "2.18.0rc6",
            "description": "No description available - add a docstring to the python test class or function.",
            "url": "",
            "fixture-format": "state_test"
        }
    },
    "tests/static/state_tests/stCallDelegateCodesCallCodeHomestead/callcodecallcode_11_OOGEFiller.json::callcodecallcode_11_OOGE[fork_Osaka-state_test-]": {
        "env": {
            "currentCoinbase": "0x2adc25665018aa1fe0e6bc666dac8fc2697ff9ba",
            "currentGasLimit": "0x01c9c380",
            "currentNumber": "0x01",
            "currentTimestamp": "0x03e8",
            "currentRandom": "0x0000000000000000000000000000000000000000000000000000000000020000",
            "currentDifficulty": "0x00",
            "currentBaseFee": "0x0a",
            "currentExcessBlobGas": "0x00"
        },
        "pre": {
            "0xefd47e9e236f1c66b63a480cdb2ac5853c386490": {
                "nonce": "0x00",
                "balance": "0x0de0b6b3a7640000",
                "code": "0x",
                "storage": {}
            },
            "0xbd75c54c62a35dc8cfb14eecf6893b7e6dd146a9": {
                "nonce": "0x00",
                "balance": "0x00",
                "code": "0x6001600255622fffff60002000",
                "storage": {}
            },
            "0xbd75c54c62a35dc8cfb14eecf6893b7e6dd147a9": {
                "nonce": "0x00",
                "balance": "0x00",
                "code": "0x604060006040600073bd75c54c62a35dc8cfb14eecf6893b7e6dd146a9620927c0f46001556001600b5500",
                "storage": {}
            },
            "0xbd75c54c62a35dc8cfb14eecf6893b7e6dd148a9": {
                "nonce": "0x00",
                "balance": "0x0de0b6b3a7640000",
                "code": "0x604060006040600073bd75c54c62a35dc8cfb14eecf6893b7e6dd147a9620c3500f460005500",
                "storage": {}
            }
        },
        "transaction": {
            "nonce": "0x00",
            "gasPrice": "0x0a",
            "gasLimit": [
                "0x0f4240"
            ],
            "to": "0xbd75c54c62a35dc8cfb14eecf6893b7e6dd148a9",
            "value": [
                "0x00"
            ],
            "data": [
                "0x"
            ],
            "sender": "0xefd47e9e236f1c66b63a480cdb2ac5853c386490",
            "secretKey": "0xc87063da89e21940329eb2c5bd75c54c62a35dc8cfb14eecf6893b7e6dd146a9"
        },
        "post": {
            "Osaka": [
                {
                    "hash": "0x0b457a41a1f2baac545dcfaa64b8c8499fd9e2d8f3664a3243e3fd801c29d436",
                    "logs": "0x1dcc4de8dec75d7aab85b567b6ccd41ad312451b948a7413f0a142fd40d49347",
                    "txbytes": "0xf860800a830f424094bd75c54c62a35dc8cfb14eecf6893b7e6dd148a9808026a0745de568870781470df2b8c3f3a4b1550852c76c164eecc6066d812491015f41a05f11ee8c51f5906e476d871bd58356c372539061c677ea6fb7558ee13ce3f87d",
                    "indexes": {
                        "data": 0,
                        "gas": 0,
                        "value": 0
                    },
                    "state": {
                        "0xefd47e9e236f1c66b63a480cdb2ac5853c386490": {
                            "nonce": "0x01",
                            "balance": "0x0de0b6b3a6fd5c38",
                            "code": "0x",
                            "storage": {}
                        },
                        "0xbd75c54c62a35dc8cfb14eecf6893b7e6dd146a9": {
                            "nonce": "0x00",
                            "balance": "0x00",
                            "code": "0x6001600255622fffff60002000",
                            "storage": {}
                        },
                        "0xbd75c54c62a35dc8cfb14eecf6893b7e6dd147a9": {
                            "nonce": "0x00",
                            "balance": "0x00",
                            "code": "0x604060006040600073bd75c54c62a35dc8cfb14eecf6893b7e6dd146a9620927c0f46001556001600b5500",
                            "storage": {}
                        },
                        "0xbd75c54c62a35dc8cfb14eecf6893b7e6dd148a9": {
                            "nonce": "0x00",
                            "balance": "0x0de0b6b3a7640000",
                            "code": "0x604060006040600073bd75c54c62a35dc8cfb14eecf6893b7e6dd147a9620c3500f460005500",
                            "storage": {
                                "0x0b": "0x01",
                                "0x00": "0x01"
                            }
                        }
                    }
                }
            ]
        },
        "config": {
            "blobSchedule": {
                "Cancun": {
                    "target": "0x03",
                    "max": "0x06",
                    "baseFeeUpdateFraction": "0x32f0ed"
                },
                "Prague": {
                    "target": "0x06",
                    "max": "0x09",
                    "baseFeeUpdateFraction": "0x4c6964"
                },
                "Osaka": {
                    "target": "0x06",
                    "max": "0x09",
                    "baseFeeUpdateFraction": "0x4c6964"
                }
            },
            "chainid": "0x01"
        },
        "_info": {
            "hash": "0x2c98b28dfefa90257ec513a70e9135553bbfea8501dd499eed15d0d7d6cc977b",
            "comment": "`execution-specs` generated test",
            "filling-transition-tool": "2.18.0rc6",
            "description": "No description available - add a docstring to the python test class or function.",
            "url": "",
            "fixture-format": "state_test"
        }
    },
    "tests/static/state_tests/stCallDelegateCodesCallCodeHomestead/callcodecallcode_11_OOGEFiller.json::callcodecallcode_11_OOGE[fork_Prague-state_test-]": {
        "env": {
            "currentCoinbase": "0x2adc25665018aa1fe0e6bc666dac8fc2697ff9ba",
            "currentGasLimit": "0x01c9c380",
            "currentNumber": "0x01",
            "currentTimestamp": "0x03e8",
            "currentRandom": "0x0000000000000000000000000000000000000000000000000000000000020000",
            "currentDifficulty": "0x00",
            "currentBaseFee": "0x0a",
            "currentExcessBlobGas": "0x00"
        },
        "pre": {
            "0xefd47e9e236f1c66b63a480cdb2ac5853c386490": {
                "nonce": "0x00",
                "balance": "0x0de0b6b3a7640000",
                "code": "0x",
                "storage": {}
            },
            "0xbd75c54c62a35dc8cfb14eecf6893b7e6dd146a9": {
                "nonce": "0x00",
                "balance": "0x00",
                "code": "0x6001600255622fffff60002000",
                "storage": {}
            },
            "0xbd75c54c62a35dc8cfb14eecf6893b7e6dd147a9": {
                "nonce": "0x00",
                "balance": "0x00",
                "code": "0x604060006040600073bd75c54c62a35dc8cfb14eecf6893b7e6dd146a9620927c0f46001556001600b5500",
                "storage": {}
            },
            "0xbd75c54c62a35dc8cfb14eecf6893b7e6dd148a9": {
                "nonce": "0x00",
                "balance": "0x0de0b6b3a7640000",
                "code": "0x604060006040600073bd75c54c62a35dc8cfb14eecf6893b7e6dd147a9620c3500f460005500",
                "storage": {}
            }
        },
        "transaction": {
            "nonce": "0x00",
            "gasPrice": "0x0a",
            "gasLimit": [
                "0x0f4240"
            ],
            "to": "0xbd75c54c62a35dc8cfb14eecf6893b7e6dd148a9",
            "value": [
                "0x00"
            ],
            "data": [
                "0x"
            ],
            "sender": "0xefd47e9e236f1c66b63a480cdb2ac5853c386490",
            "secretKey": "0xc87063da89e21940329eb2c5bd75c54c62a35dc8cfb14eecf6893b7e6dd146a9"
        },
        "post": {
            "Prague": [
                {
                    "hash": "0x0b457a41a1f2baac545dcfaa64b8c8499fd9e2d8f3664a3243e3fd801c29d436",
                    "logs": "0x1dcc4de8dec75d7aab85b567b6ccd41ad312451b948a7413f0a142fd40d49347",
                    "txbytes": "0xf860800a830f424094bd75c54c62a35dc8cfb14eecf6893b7e6dd148a9808026a0745de568870781470df2b8c3f3a4b1550852c76c164eecc6066d812491015f41a05f11ee8c51f5906e476d871bd58356c372539061c677ea6fb7558ee13ce3f87d",
                    "indexes": {
                        "data": 0,
                        "gas": 0,
                        "value": 0
                    },
                    "state": {
                        "0xefd47e9e236f1c66b63a480cdb2ac5853c386490": {
                            "nonce": "0x01",
                            "balance": "0x0de0b6b3a6fd5c38",
                            "code": "0x",
                            "storage": {}
                        },
                        "0xbd75c54c62a35dc8cfb14eecf6893b7e6dd146a9": {
                            "nonce": "0x00",
                            "balance": "0x00",
                            "code": "0x6001600255622fffff60002000",
                            "storage": {}
                        },
                        "0xbd75c54c62a35dc8cfb14eecf6893b7e6dd147a9": {
                            "nonce": "0x00",
                            "balance": "0x00",
                            "code": "0x604060006040600073bd75c54c62a35dc8cfb14eecf6893b7e6dd146a9620927c0f46001556001600b5500",
                            "storage": {}
                        },
                        "0xbd75c54c62a35dc8cfb14eecf6893b7e6dd148a9": {
                            "nonce": "0x00",
                            "balance": "0x0de0b6b3a7640000",
                            "code": "0x604060006040600073bd75c54c62a35dc8cfb14eecf6893b7e6dd147a9620c3500f460005500",
                            "storage": {
                                "0x0b": "0x01",
                                "0x00": "0x01"
                            }
                        }
                    }
                }
            ]
        },
        "config": {
            "blobSchedule": {
                "Cancun": {
                    "target": "0x03",
                    "max": "0x06",
                    "baseFeeUpdateFraction": "0x32f0ed"
                },
                "Prague": {
                    "target": "0x06",
                    "max": "0x09",
                    "baseFeeUpdateFraction": "0x4c6964"
                }
            },
            "chainid": "0x01"
        },
        "_info": {
            "hash": "0x6a3bd73b072ca28ee7380ad211b5236a8fb94671932a5afa91326fdfa3b822e0",
            "comment": "`execution-specs` generated test",
            "filling-transition-tool": "2.18.0rc6",
            "description": "No description available - add a docstring to the python test class or function.",
            "url": "",
            "fixture-format": "state_test"
        }
    }
}