{
    "tests/static/state_tests/stCallDelegateCodesCallCodeHomestead/callcodecallcodecallcode_111Filler.json::callcodecallcodecallcode_111[fork_Cancun-state_test-]": {
        "env": {
            "currentCoinbase": "0x2adc25665018aa1fe0e6bc666dac8fc2697ff9ba",
            "currentGasLimit": "0x01c9c380",
            "currentNumber": "0x01",
            "currentTimestamp": "0x03e8",
            "currentRandom": "0x0000000000000000000000000000000000000000000000000000000000020000",
            "currentDifficulty": "0x00",
            "currentBaseFee": "0x0a",
            "currentExcessBlobGas": "0x00"
        },
        "pre": {
            "0x32ffacee0c38d68be9313a7c8f623c94163e6452": {
                "nonce": "0x00",
                "balance": "0x0de0b6b3a7640000",
                "code": "0x",
                "storage": {}
            },
            "0x027e37151ae46f16c8e581a8fce500efb5eddc87": {
                "nonce": "0x00",
                "balance": "0x00",
                "code": "0x600160035533600455346007553061014a553261014c55366101505538610152553a6101545500",
                "storage": {}
            },
            "0x027e37151ae46f16c8e581a8fce500efb5eddd87": {
                "nonce": "0x00",
                "balance": "0x00",
                "code": "0x604060006040600073027e37151ae46f16c8e581a8fce500efb5eddc876203d090f460025500",
                "storage": {}
            },
            "0x027e37151ae46f16c8e581a8fce500efb5edde87": {
                "nonce": "0x00",
                "balance": "0x00",
                "code": "0x604060006040600073027e37151ae46f16c8e581a8fce500efb5eddd87620493e0f460015500",
                "storage": {}
            },
            "0x027e37151ae46f16c8e581a8fce500efb5eddf87": {
                "nonce": "0x00",
                "balance": "0x0de0b6b3a7640000",
                "code": "0x604060006040600073027e37151ae46f16c8e581a8fce500efb5edde8762055730f460005500",
                "storage": {}
            }
        },
        "transaction": {
            "nonce": "0x00",
            "gasPrice": "0x0a",
            "gasLimit": [
                "0x2dc6c0"
            ],
            "to": "0x027e37151ae46f16c8e581a8fce500efb5eddf87",
            "value": [
                "0x00"
            ],
            "data": [
                "0x"
            ],
            "sender": "0x32ffacee0c38d68be9313a7c8f623c94163e6452",
            "secretKey": "0x4f7049bdbf6cbb45401eaee5027e37151ae46f16c8e581a8fce500efb5eddc87"
        },
        "post": {
            "Cancun": [
                {
                    "hash": "0x4c62f8f685d38b21d3394065eb3b25caabcadfa6d311291042f32abb32d57deb",
                    "logs": "0x1dcc4de8dec75d7aab85b567b6ccd41ad312451b948a7413f0a142fd40d49347",
                    "txbytes": "0xf860800a832dc6c094027e37151ae46f16c8e581a8fce500efb5eddf87808026a063f42efde493463137518464daa3f47ebef38d514ff542849cd59de28cd319b9a03956747a46302358933c4edea2a3591aa3628ee73129d4300921d7c42ae7fae1",
                    "indexes": {
                        "data": 0,
                        "gas": 0,
                        "value": 0
                    },
                    "state": {
                        "0x32ffacee0c38d68be9313a7c8f623c94163e6452": {
                            "nonce": "0x01",
                            "balance": "0x0de0b6b3a73d877c",
                            "code": "0x",
                            "storage": {}
                        },
                        "0x027e37151ae46f16c8e581a8fce500efb5eddc87": {
                            "nonce": "0x00",
                            "balance": "0x00",
                            "code": "0x600160035533600455346007553061014a553261014c55366101505538610152553a6101545500",
                            "storage": {}
                        },
                        "0x027e37151ae46f16c8e581a8fce500efb5eddd87": {
                            "nonce": "0x00",
                            "balance": "0x00",
                            "code": "0x604060006040600073027e37151ae46f16c8e581a8fce500efb5eddc876203d090f460025500",
                            "storage": {}
                        },
                        "0x027e37151ae46f16c8e581a8fce500efb5edde87": {
                            "nonce": "0x00",
                            "balance": "0x00",
                            "code": "0x604060006040600073027e37151ae46f16c8e581a8fce500efb5eddd87620493e0f460015500",
                            "storage": {}
                        },
                        "0x027e37151ae46f16c8e581a8fce500efb5eddf87": {
                            "nonce": "0x00",
                            "balance": "0x0de0b6b3a7640000",
                            "code": "0x604060006040600073027e37151ae46f16c8e581a8fce500efb5edde8762055730f460005500",
                            "storage": {
                                "0x03": "0x01",
                                "0x04": "0x32ffacee0c38d68be9313a7c8f623c94163e6452",
                                "0x014a": "0x027e37151ae46f16c8e581a8fce500efb5eddf87",
                                "0x014c": "0x32ffacee0c38d68be9313a7c8f623c94163e6452",
                                "0x0150": "0x40",
                                "0x0152": "0x27",
                                "0x0154": "0x0a",
                                "0x02": "0x01",
                                "0x01": "0x01",
                                "0x00": "0x01"
                            }
                        }
                    }
                }
            ]
        },
        "config": {
            "blobSchedule": {
                "Cancun": {
                    "target": "0x03",
                    "max": "0x06",
                    "baseFeeUpdateFraction": "0x32f0ed"
                }
            },
            "chainid": "0x01"
        },
        "_info": {
            "hash": "0x99f101f6b1d0dd9cae99f89c36920274a30d035bc5cea74dae666f6ede4431a6",
            "comment": "`execution-spec-tests` generated test",
            "filling-transition-tool": "ethereum-spec-evm-resolver 0.0.5",
            "description": "No description available - add a docstring to the python test class or function.",
            "url": "",
            "fixture-format": "state_test",
            "eels-resolution": {
                "git-url": "https://github.com/ethereum/execution-specs.git",
                "branch": "forks/bpos",
                "commit": "7aacb2c54111391af5e98c505d5010b5698a770f"
            }
        }
    },
    "tests/static/state_tests/stCallDelegateCodesCallCodeHomestead/callcodecallcodecallcode_111Filler.json::callcodecallcodecallcode_111[fork_Osaka-state_test-]": {
        "env": {
            "currentCoinbase": "0x2adc25665018aa1fe0e6bc666dac8fc2697ff9ba",
            "currentGasLimit": "0x01c9c380",
            "currentNumber": "0x01",
            "currentTimestamp": "0x03e8",
            "currentRandom": "0x0000000000000000000000000000000000000000000000000000000000020000",
            "currentDifficulty": "0x00",
            "currentBaseFee": "0x0a",
            "currentExcessBlobGas": "0x00"
        },
        "pre": {
            "0x32ffacee0c38d68be9313a7c8f623c94163e6452": {
                "nonce": "0x00",
                "balance": "0x0de0b6b3a7640000",
                "code": "0x",
                "storage": {}
            },
            "0x027e37151ae46f16c8e581a8fce500efb5eddc87": {
                "nonce": "0x00",
                "balance": "0x00",
                "code": "0x600160035533600455346007553061014a553261014c55366101505538610152553a6101545500",
                "storage": {}
            },
            "0x027e37151ae46f16c8e581a8fce500efb5eddd87": {
                "nonce": "0x00",
                "balance": "0x00",
                "code": "0x604060006040600073027e37151ae46f16c8e581a8fce500efb5eddc876203d090f460025500",
                "storage": {}
            },
            "0x027e37151ae46f16c8e581a8fce500efb5edde87": {
                "nonce": "0x00",
                "balance": "0x00",
                "code": "0x604060006040600073027e37151ae46f16c8e581a8fce500efb5eddd87620493e0f460015500",
                "storage": {}
            },
            "0x027e37151ae46f16c8e581a8fce500efb5eddf87": {
                "nonce": "0x00",
                "balance": "0x0de0b6b3a7640000",
                "code": "0x604060006040600073027e37151ae46f16c8e581a8fce500efb5edde8762055730f460005500",
                "storage": {}
            }
        },
        "transaction": {
            "nonce": "0x00",
            "gasPrice": "0x0a",
            "gasLimit": [
                "0x2dc6c0"
            ],
            "to": "0x027e37151ae46f16c8e581a8fce500efb5eddf87",
            "value": [
                "0x00"
            ],
            "data": [
                "0x"
            ],
            "sender": "0x32ffacee0c38d68be9313a7c8f623c94163e6452",
            "secretKey": "0x4f7049bdbf6cbb45401eaee5027e37151ae46f16c8e581a8fce500efb5eddc87"
        },
        "post": {
            "Osaka": [
                {
                    "hash": "0x4c62f8f685d38b21d3394065eb3b25caabcadfa6d311291042f32abb32d57deb",
                    "logs": "0x1dcc4de8dec75d7aab85b567b6ccd41ad312451b948a7413f0a142fd40d49347",
                    "txbytes": "0xf860800a832dc6c094027e37151ae46f16c8e581a8fce500efb5eddf87808026a063f42efde493463137518464daa3f47ebef38d514ff542849cd59de28cd319b9a03956747a46302358933c4edea2a3591aa3628ee73129d4300921d7c42ae7fae1",
                    "indexes": {
                        "data": 0,
                        "gas": 0,
                        "value": 0
                    },
                    "state": {
                        "0x32ffacee0c38d68be9313a7c8f623c94163e6452": {
                            "nonce": "0x01",
                            "balance": "0x0de0b6b3a73d877c",
                            "code": "0x",
                            "storage": {}
                        },
                        "0x027e37151ae46f16c8e581a8fce500efb5eddc87": {
                            "nonce": "0x00",
                            "balance": "0x00",
                            "code": "0x600160035533600455346007553061014a553261014c55366101505538610152553a6101545500",
                            "storage": {}
                        },
                        "0x027e37151ae46f16c8e581a8fce500efb5eddd87": {
                            "nonce": "0x00",
                            "balance": "0x00",
                            "code": "0x604060006040600073027e37151ae46f16c8e581a8fce500efb5eddc876203d090f460025500",
                            "storage": {}
                        },
                        "0x027e37151ae46f16c8e581a8fce500efb5edde87": {
                            "nonce": "0x00",
                            "balance": "0x00",
                            "code": "0x604060006040600073027e37151ae46f16c8e581a8fce500efb5eddd87620493e0f460015500",
                            "storage": {}
                        },
                        "0x027e37151ae46f16c8e581a8fce500efb5eddf87": {
                            "nonce": "0x00",
                            "balance": "0x0de0b6b3a7640000",
                            "code": "0x604060006040600073027e37151ae46f16c8e581a8fce500efb5edde8762055730f460005500",
                            "storage": {
                                "0x03": "0x01",
                                "0x04": "0x32ffacee0c38d68be9313a7c8f623c94163e6452",
                                "0x014a": "0x027e37151ae46f16c8e581a8fce500efb5eddf87",
                                "0x014c": "0x32ffacee0c38d68be9313a7c8f623c94163e6452",
                                "0x0150": "0x40",
                                "0x0152": "0x27",
                                "0x0154": "0x0a",
                                "0x02": "0x01",
                                "0x01": "0x01",
                                "0x00": "0x01"
                            }
                        }
                    }
                }
            ]
        },
        "config": {
            "blobSchedule": {
                "Cancun": {
                    "target": "0x03",
                    "max": "0x06",
                    "baseFeeUpdateFraction": "0x32f0ed"
                },
                "Prague": {
                    "target": "0x06",
                    "max": "0x09",
                    "baseFeeUpdateFraction": "0x4c6964"
                },
                "Osaka": {
                    "target": "0x06",
                    "max": "0x09",
                    "baseFeeUpdateFraction": "0x4c6964"
                }
            },
            "chainid": "0x01"
        },
        "_info": {
            "hash": "0x3789cbaf64e83612b1b416694703e170be6cd7d5946cc7ca44aba8a86fb36aa7",
            "comment": "`execution-spec-tests` generated test",
            "filling-transition-tool": "ethereum-spec-evm-resolver 0.0.5",
            "description": "No description available - add a docstring to the python test class or function.",
            "url": "",
            "fixture-format": "state_test",
            "eels-resolution": {
                "git-url": "https://github.com/ethereum/execution-specs.git",
                "branch": "forks/bpos",
                "commit": "7aacb2c54111391af5e98c505d5010b5698a770f"
            }
        }
    },
    "tests/static/state_tests/stCallDelegateCodesCallCodeHomestead/callcodecallcodecallcode_111Filler.json::callcodecallcodecallcode_111[fork_Prague-state_test-]": {
        "env": {
            "currentCoinbase": "0x2adc25665018aa1fe0e6bc666dac8fc2697ff9ba",
            "currentGasLimit": "0x01c9c380",
            "currentNumber": "0x01",
            "currentTimestamp": "0x03e8",
            "currentRandom": "0x0000000000000000000000000000000000000000000000000000000000020000",
            "currentDifficulty": "0x00",
            "currentBaseFee": "0x0a",
            "currentExcessBlobGas": "0x00"
        },
        "pre": {
            "0x32ffacee0c38d68be9313a7c8f623c94163e6452": {
                "nonce": "0x00",
                "balance": "0x0de0b6b3a7640000",
                "code": "0x",
                "storage": {}
            },
            "0x027e37151ae46f16c8e581a8fce500efb5eddc87": {
                "nonce": "0x00",
                "balance": "0x00",
                "code": "0x600160035533600455346007553061014a553261014c55366101505538610152553a6101545500",
                "storage": {}
            },
            "0x027e37151ae46f16c8e581a8fce500efb5eddd87": {
                "nonce": "0x00",
                "balance": "0x00",
                "code": "0x604060006040600073027e37151ae46f16c8e581a8fce500efb5eddc876203d090f460025500",
                "storage": {}
            },
            "0x027e37151ae46f16c8e581a8fce500efb5edde87": {
                "nonce": "0x00",
                "balance": "0x00",
                "code": "0x604060006040600073027e37151ae46f16c8e581a8fce500efb5eddd87620493e0f460015500",
                "storage": {}
            },
            "0x027e37151ae46f16c8e581a8fce500efb5eddf87": {
                "nonce": "0x00",
                "balance": "0x0de0b6b3a7640000",
                "code": "0x604060006040600073027e37151ae46f16c8e581a8fce500efb5edde8762055730f460005500",
                "storage": {}
            }
        },
        "transaction": {
            "nonce": "0x00",
            "gasPrice": "0x0a",
            "gasLimit": [
                "0x2dc6c0"
            ],
            "to": "0x027e37151ae46f16c8e581a8fce500efb5eddf87",
            "value": [
                "0x00"
            ],
            "data": [
                "0x"
            ],
            "sender": "0x32ffacee0c38d68be9313a7c8f623c94163e6452",
            "secretKey": "0x4f7049bdbf6cbb45401eaee5027e37151ae46f16c8e581a8fce500efb5eddc87"
        },
        "post": {
            "Prague": [
                {
                    "hash": "0x4c62f8f685d38b21d3394065eb3b25caabcadfa6d311291042f32abb32d57deb",
                    "logs": "0x1dcc4de8dec75d7aab85b567b6ccd41ad312451b948a7413f0a142fd40d49347",
                    "txbytes": "0xf860800a832dc6c094027e37151ae46f16c8e581a8fce500efb5eddf87808026a063f42efde493463137518464daa3f47ebef38d514ff542849cd59de28cd319b9a03956747a46302358933c4edea2a3591aa3628ee73129d4300921d7c42ae7fae1",
                    "indexes": {
                        "data": 0,
                        "gas": 0,
                        "value": 0
                    },
                    "state": {
                        "0x32ffacee0c38d68be9313a7c8f623c94163e6452": {
                            "nonce": "0x01",
                            "balance": "0x0de0b6b3a73d877c",
                            "code": "0x",
                            "storage": {}
                        },
                        "0x027e37151ae46f16c8e581a8fce500efb5eddc87": {
                            "nonce": "0x00",
                            "balance": "0x00",
                            "code": "0x600160035533600455346007553061014a553261014c55366101505538610152553a6101545500",
                            "storage": {}
                        },
                        "0x027e37151ae46f16c8e581a8fce500efb5eddd87": {
                            "nonce": "0x00",
                            "balance": "0x00",
                            "code": "0x604060006040600073027e37151ae46f16c8e581a8fce500efb5eddc876203d090f460025500",
                            "storage": {}
                        },
                        "0x027e37151ae46f16c8e581a8fce500efb5edde87": {
                            "nonce": "0x00",
                            "balance": "0x00",
                            "code": "0x604060006040600073027e37151ae46f16c8e581a8fce500efb5eddd87620493e0f460015500",
                            "storage": {}
                        },
                        "0x027e37151ae46f16c8e581a8fce500efb5eddf87": {
                            "nonce": "0x00",
                            "balance": "0x0de0b6b3a7640000",
                            "code": "0x604060006040600073027e37151ae46f16c8e581a8fce500efb5edde8762055730f460005500",
                            "storage": {
                                "0x03": "0x01",
                                "0x04": "0x32ffacee0c38d68be9313a7c8f623c94163e6452",
                                "0x014a": "0x027e37151ae46f16c8e581a8fce500efb5eddf87",
                                "0x014c": "0x32ffacee0c38d68be9313a7c8f623c94163e6452",
                                "0x0150": "0x40",
                                "0x0152": "0x27",
                                "0x0154": "0x0a",
                                "0x02": "0x01",
                                "0x01": "0x01",
                                "0x00": "0x01"
                            }
                        }
                    }
                }
            ]
        },
        "config": {
            "blobSchedule": {
                "Cancun": {
                    "target": "0x03",
                    "max": "0x06",
                    "baseFeeUpdateFraction": "0x32f0ed"
                },
                "Prague": {
                    "target": "0x06",
                    "max": "0x09",
                    "baseFeeUpdateFraction": "0x4c6964"
                }
            },
            "chainid": "0x01"
        },
        "_info": {
            "hash": "0x8425e2af35e0175d44be5924764050669ca1f197ce9f07bf693ef0853709713c",
            "comment": "`execution-spec-tests` generated test",
            "filling-transition-tool": "ethereum-spec-evm-resolver 0.0.5",
            "description": "No description available - add a docstring to the python test class or function.",
            "url": "",
            "fixture-format": "state_test",
            "eels-resolution": {
                "git-url": "https://github.com/ethereum/execution-specs.git",
                "branch": "forks/bpos",
                "commit": "7aacb2c54111391af5e98c505d5010b5698a770f"
            }
        }
    }
}