{
    "tests/static/state_tests/stCallDelegateCodesCallCodeHomestead/callcallcodecallcode_ABCB_RECURSIVEFiller.json::callcallcodecallcode_ABCB_RECURSIVE[fork_Cancun-state_test-]": {
        "env": {
            "currentCoinbase": "0x2adc25665018aa1fe0e6bc666dac8fc2697ff9ba",
            "currentGasLimit": "0xb2d05e00",
            "currentNumber": "0x01",
            "currentTimestamp": "0x03e8",
            "currentRandom": "0x0000000000000000000000000000000000000000000000000000000000020000",
            "currentDifficulty": "0x00",
            "currentBaseFee": "0x0a",
            "currentExcessBlobGas": "0x00"
        },
        "pre": {
            "0xe030583477c5388ed19a5332531005ddcced9d88": {
                "nonce": "0x00",
                "balance": "0x0de0b6b3a7640000",
                "code": "0x",
                "storage": {}
            },
            "0x631c96578fccd71185a2aa955d7b70d5ceb6b3e6": {
                "nonce": "0x00",
                "balance": "0x0de0b6b3a7640000",
                "code": "0x6040600060406000600073631c96578fccd71185a2aa955d7b70d5ceb6b4e663017d7840f260005500",
                "storage": {}
            },
            "0x631c96578fccd71185a2aa955d7b70d5ceb6b4e6": {
                "nonce": "0x00",
                "balance": "0x02540be400",
                "code": "0x604060006040600073631c96578fccd71185a2aa955d7b70d5ceb6b5e6620f4240f460015500",
                "storage": {}
            },
            "0x631c96578fccd71185a2aa955d7b70d5ceb6b5e6": {
                "nonce": "0x00",
                "balance": "0x02540be400",
                "code": "0x604060006040600073631c96578fccd71185a2aa955d7b70d5ceb6b4e66207a120f460025500",
                "storage": {}
            }
        },
        "transaction": {
            "nonce": "0x00",
            "gasPrice": "0x0a",
            "gasLimit": [
                "0x0927c0"
            ],
            "to": "0x631c96578fccd71185a2aa955d7b70d5ceb6b3e6",
            "value": [
                "0x00"
            ],
            "data": [
                "0x"
            ],
            "sender": "0xe030583477c5388ed19a5332531005ddcced9d88",
            "secretKey": "0x79e18c13d31ab8bb5bb00b38631c96578fccd71185a2aa955d7b70d5ceb6b3e6"
        },
        "post": {
            "Cancun": [
                {
                    "hash": "0x29caa805648a7ddb24c60cbed0901d5525d6679d4fcfeeb17d15d2bd2fb01387",
                    "logs": "0x1dcc4de8dec75d7aab85b567b6ccd41ad312451b948a7413f0a142fd40d49347",
                    "txbytes": "0xf860800a830927c094631c96578fccd71185a2aa955d7b70d5ceb6b3e6808026a018e9fb97f420296259f19f9394bdac4b6cf8bacb4da6004e870aea69b88a769ba0483ec685af42dd5dd8abb56e393050927abbd97f765bc4a1c3a81869b90b8063",
                    "indexes": {
                        "data": 0,
                        "gas": 0,
                        "value": 0
                    },
                    "state": {
                        "0xe030583477c5388ed19a5332531005ddcced9d88": {
                            "nonce": "0x01",
                            "balance": "0x0de0b6b3a70c99a0",
                            "code": "0x",
                            "storage": {}
                        },
                        "0x631c96578fccd71185a2aa955d7b70d5ceb6b3e6": {
                            "nonce": "0x00",
                            "balance": "0x0de0b6b3a7640000",
                            "code": "0x6040600060406000600073631c96578fccd71185a2aa955d7b70d5ceb6b4e663017d7840f260005500",
                            "storage": {
                                "0x01": "0x01",
                                "0x00": "0x01"
                            }
                        },
                        "0x631c96578fccd71185a2aa955d7b70d5ceb6b4e6": {
                            "nonce": "0x00",
                            "balance": "0x02540be400",
                            "code": "0x604060006040600073631c96578fccd71185a2aa955d7b70d5ceb6b5e6620f4240f460015500",
                            "storage": {}
                        },
                        "0x631c96578fccd71185a2aa955d7b70d5ceb6b5e6": {
                            "nonce": "0x00",
                            "balance": "0x02540be400",
                            "code": "0x604060006040600073631c96578fccd71185a2aa955d7b70d5ceb6b4e66207a120f460025500",
                            "storage": {}
                        }
                    }
                }
            ]
        },
        "config": {
            "blobSchedule": {
                "Cancun": {
                    "target": "0x03",
                    "max": "0x06",
                    "baseFeeUpdateFraction": "0x32f0ed"
                }
            },
            "chainid": "0x01"
        },
        "_info": {
            "hash": "0x3b2238c6ccbd3bcf64e740b01c35d003aac73a2ecad0b58661c7b2625d0933d7",
            "comment": "`execution-spec-tests` generated test",
            "filling-transition-tool": "ethereum-spec-evm-resolver 0.0.5",
            "description": "No description available - add a docstring to the python test class or function.",
            "url": "",
            "fixture-format": "state_test",
            "eels-resolution": {
                "git-url": "https://github.com/ethereum/execution-specs.git",
                "branch": "forks/bpos",
                "commit": "7aacb2c54111391af5e98c505d5010b5698a770f"
            }
        }
    },
    "tests/static/state_tests/stCallDelegateCodesCallCodeHomestead/callcallcodecallcode_ABCB_RECURSIVEFiller.json::callcallcodecallcode_ABCB_RECURSIVE[fork_Osaka-state_test-]": {
        "env": {
            "currentCoinbase": "0x2adc25665018aa1fe0e6bc666dac8fc2697ff9ba",
            "currentGasLimit": "0xb2d05e00",
            "currentNumber": "0x01",
            "currentTimestamp": "0x03e8",
            "currentRandom": "0x0000000000000000000000000000000000000000000000000000000000020000",
            "currentDifficulty": "0x00",
            "currentBaseFee": "0x0a",
            "currentExcessBlobGas": "0x00"
        },
        "pre": {
            "0xe030583477c5388ed19a5332531005ddcced9d88": {
                "nonce": "0x00",
                "balance": "0x0de0b6b3a7640000",
                "code": "0x",
                "storage": {}
            },
            "0x631c96578fccd71185a2aa955d7b70d5ceb6b3e6": {
                "nonce": "0x00",
                "balance": "0x0de0b6b3a7640000",
                "code": "0x6040600060406000600073631c96578fccd71185a2aa955d7b70d5ceb6b4e663017d7840f260005500",
                "storage": {}
            },
            "0x631c96578fccd71185a2aa955d7b70d5ceb6b4e6": {
                "nonce": "0x00",
                "balance": "0x02540be400",
                "code": "0x604060006040600073631c96578fccd71185a2aa955d7b70d5ceb6b5e6620f4240f460015500",
                "storage": {}
            },
            "0x631c96578fccd71185a2aa955d7b70d5ceb6b5e6": {
                "nonce": "0x00",
                "balance": "0x02540be400",
                "code": "0x604060006040600073631c96578fccd71185a2aa955d7b70d5ceb6b4e66207a120f460025500",
                "storage": {}
            }
        },
        "transaction": {
            "nonce": "0x00",
            "gasPrice": "0x0a",
            "gasLimit": [
                "0x0927c0"
            ],
            "to": "0x631c96578fccd71185a2aa955d7b70d5ceb6b3e6",
            "value": [
                "0x00"
            ],
            "data": [
                "0x"
            ],
            "sender": "0xe030583477c5388ed19a5332531005ddcced9d88",
            "secretKey": "0x79e18c13d31ab8bb5bb00b38631c96578fccd71185a2aa955d7b70d5ceb6b3e6"
        },
        "post": {
            "Osaka": [
                {
                    "hash": "0x29caa805648a7ddb24c60cbed0901d5525d6679d4fcfeeb17d15d2bd2fb01387",
                    "logs": "0x1dcc4de8dec75d7aab85b567b6ccd41ad312451b948a7413f0a142fd40d49347",
                    "txbytes": "0xf860800a830927c094631c96578fccd71185a2aa955d7b70d5ceb6b3e6808026a018e9fb97f420296259f19f9394bdac4b6cf8bacb4da6004e870aea69b88a769ba0483ec685af42dd5dd8abb56e393050927abbd97f765bc4a1c3a81869b90b8063",
                    "indexes": {
                        "data": 0,
                        "gas": 0,
                        "value": 0
                    },
                    "state": {
                        "0xe030583477c5388ed19a5332531005ddcced9d88": {
                            "nonce": "0x01",
                            "balance": "0x0de0b6b3a70c99a0",
                            "code": "0x",
                            "storage": {}
                        },
                        "0x631c96578fccd71185a2aa955d7b70d5ceb6b3e6": {
                            "nonce": "0x00",
                            "balance": "0x0de0b6b3a7640000",
                            "code": "0x6040600060406000600073631c96578fccd71185a2aa955d7b70d5ceb6b4e663017d7840f260005500",
                            "storage": {
                                "0x01": "0x01",
                                "0x00": "0x01"
                            }
                        },
                        "0x631c96578fccd71185a2aa955d7b70d5ceb6b4e6": {
                            "nonce": "0x00",
                            "balance": "0x02540be400",
                            "code": "0x604060006040600073631c96578fccd71185a2aa955d7b70d5ceb6b5e6620f4240f460015500",
                            "storage": {}
                        },
                        "0x631c96578fccd71185a2aa955d7b70d5ceb6b5e6": {
                            "nonce": "0x00",
                            "balance": "0x02540be400",
                            "code": "0x604060006040600073631c96578fccd71185a2aa955d7b70d5ceb6b4e66207a120f460025500",
                            "storage": {}
                        }
                    }
                }
            ]
        },
        "config": {
            "blobSchedule": {
                "Cancun": {
                    "target": "0x03",
                    "max": "0x06",
                    "baseFeeUpdateFraction": "0x32f0ed"
                },
                "Prague": {
                    "target": "0x06",
                    "max": "0x09",
                    "baseFeeUpdateFraction": "0x4c6964"
                },
                "Osaka": {
                    "target": "0x06",
                    "max": "0x09",
                    "baseFeeUpdateFraction": "0x4c6964"
                }
            },
            "chainid": "0x01"
        },
        "_info": {
            "hash": "0x904bf98e014d841ef82b6e7a3f62d64b844ca84b6b6dfdead5f9f5240d711290",
            "comment": "`execution-spec-tests` generated test",
            "filling-transition-tool": "ethereum-spec-evm-resolver 0.0.5",
            "description": "No description available - add a docstring to the python test class or function.",
            "url": "",
            "fixture-format": "state_test",
            "eels-resolution": {
                "git-url": "https://github.com/ethereum/execution-specs.git",
                "branch": "forks/bpos",
                "commit": "7aacb2c54111391af5e98c505d5010b5698a770f"
            }
        }
    },
    "tests/static/state_tests/stCallDelegateCodesCallCodeHomestead/callcallcodecallcode_ABCB_RECURSIVEFiller.json::callcallcodecallcode_ABCB_RECURSIVE[fork_Prague-state_test-]": {
        "env": {
            "currentCoinbase": "0x2adc25665018aa1fe0e6bc666dac8fc2697ff9ba",
            "currentGasLimit": "0xb2d05e00",
            "currentNumber": "0x01",
            "currentTimestamp": "0x03e8",
            "currentRandom": "0x0000000000000000000000000000000000000000000000000000000000020000",
            "currentDifficulty": "0x00",
            "currentBaseFee": "0x0a",
            "currentExcessBlobGas": "0x00"
        },
        "pre": {
            "0xe030583477c5388ed19a5332531005ddcced9d88": {
                "nonce": "0x00",
                "balance": "0x0de0b6b3a7640000",
                "code": "0x",
                "storage": {}
            },
            "0x631c96578fccd71185a2aa955d7b70d5ceb6b3e6": {
                "nonce": "0x00",
                "balance": "0x0de0b6b3a7640000",
                "code": "0x6040600060406000600073631c96578fccd71185a2aa955d7b70d5ceb6b4e663017d7840f260005500",
                "storage": {}
            },
            "0x631c96578fccd71185a2aa955d7b70d5ceb6b4e6": {
                "nonce": "0x00",
                "balance": "0x02540be400",
                "code": "0x604060006040600073631c96578fccd71185a2aa955d7b70d5ceb6b5e6620f4240f460015500",
                "storage": {}
            },
            "0x631c96578fccd71185a2aa955d7b70d5ceb6b5e6": {
                "nonce": "0x00",
                "balance": "0x02540be400",
                "code": "0x604060006040600073631c96578fccd71185a2aa955d7b70d5ceb6b4e66207a120f460025500",
                "storage": {}
            }
        },
        "transaction": {
            "nonce": "0x00",
            "gasPrice": "0x0a",
            "gasLimit": [
                "0x0927c0"
            ],
            "to": "0x631c96578fccd71185a2aa955d7b70d5ceb6b3e6",
            "value": [
                "0x00"
            ],
            "data": [
                "0x"
            ],
            "sender": "0xe030583477c5388ed19a5332531005ddcced9d88",
            "secretKey": "0x79e18c13d31ab8bb5bb00b38631c96578fccd71185a2aa955d7b70d5ceb6b3e6"
        },
        "post": {
            "Prague": [
                {
                    "hash": "0x29caa805648a7ddb24c60cbed0901d5525d6679d4fcfeeb17d15d2bd2fb01387",
                    "logs": "0x1dcc4de8dec75d7aab85b567b6ccd41ad312451b948a7413f0a142fd40d49347",
                    "txbytes": "0xf860800a830927c094631c96578fccd71185a2aa955d7b70d5ceb6b3e6808026a018e9fb97f420296259f19f9394bdac4b6cf8bacb4da6004e870aea69b88a769ba0483ec685af42dd5dd8abb56e393050927abbd97f765bc4a1c3a81869b90b8063",
                    "indexes": {
                        "data": 0,
                        "gas": 0,
                        "value": 0
                    },
                    "state": {
                        "0xe030583477c5388ed19a5332531005ddcced9d88": {
                            "nonce": "0x01",
                            "balance": "0x0de0b6b3a70c99a0",
                            "code": "0x",
                            "storage": {}
                        },
                        "0x631c96578fccd71185a2aa955d7b70d5ceb6b3e6": {
                            "nonce": "0x00",
                            "balance": "0x0de0b6b3a7640000",
                            "code": "0x6040600060406000600073631c96578fccd71185a2aa955d7b70d5ceb6b4e663017d7840f260005500",
                            "storage": {
                                "0x01": "0x01",
                                "0x00": "0x01"
                            }
                        },
                        "0x631c96578fccd71185a2aa955d7b70d5ceb6b4e6": {
                            "nonce": "0x00",
                            "balance": "0x02540be400",
                            "code": "0x604060006040600073631c96578fccd71185a2aa955d7b70d5ceb6b5e6620f4240f460015500",
                            "storage": {}
                        },
                        "0x631c96578fccd71185a2aa955d7b70d5ceb6b5e6": {
                            "nonce": "0x00",
                            "balance": "0x02540be400",
                            "code": "0x604060006040600073631c96578fccd71185a2aa955d7b70d5ceb6b4e66207a120f460025500",
                            "storage": {}
                        }
                    }
                }
            ]
        },
        "config": {
            "blobSchedule": {
                "Cancun": {
                    "target": "0x03",
                    "max": "0x06",
                    "baseFeeUpdateFraction": "0x32f0ed"
                },
                "Prague": {
                    "target": "0x06",
                    "max": "0x09",
                    "baseFeeUpdateFraction": "0x4c6964"
                }
            },
            "chainid": "0x01"
        },
        "_info": {
            "hash": "0xc5bb6d6cf461b8cf0c3ae0103dac26af64dca1dd6af914203bc0f1fc665818a4",
            "comment": "`execution-spec-tests` generated test",
            "filling-transition-tool": "ethereum-spec-evm-resolver 0.0.5",
            "description": "No description available - add a docstring to the python test class or function.",
            "url": "",
            "fixture-format": "state_test",
            "eels-resolution": {
                "git-url": "https://github.com/ethereum/execution-specs.git",
                "branch": "forks/bpos",
                "commit": "7aacb2c54111391af5e98c505d5010b5698a770f"
            }
        }
    }
}