{
    "tests/ported_static/stWalletTest/test_wallet_kill_not_by_owner.py::test_wallet_kill_not_by_owner[fork_Cancun-blockchain_test_from_state_test]": {
        "network": "Cancun",
        "genesisBlockHeader": {
            "parentHash": "0x0000000000000000000000000000000000000000000000000000000000000000",
            "uncleHash": "0x1dcc4de8dec75d7aab85b567b6ccd41ad312451b948a7413f0a142fd40d49347",
            "coinbase": "0x0000000000000000000000000000000000000000",
            "stateRoot": "0xcd268a6ee6b9a073024ece51df424d2ee6b24ebf38e654d31de135db67f23a45",
            "transactionsTrie": "0x56e81f171bcc55a6ff8345e692c0f86e5b48e01b996cadc001622fb5e363b421",
            "receiptTrie": "0x56e81f171bcc55a6ff8345e692c0f86e5b48e01b996cadc001622fb5e363b421",
            "bloom": "0x00000000000000000000000000000000000000000000000000000000000000000000000000000000000000000000000000000000000000000000000000000000000000000000000000000000000000000000000000000000000000000000000000000000000000000000000000000000000000000000000000000000000000000000000000000000000000000000000000000000000000000000000000000000000000000000000000000000000000000000000000000000000000000000000000000000000000000000000000000000000000000000000000000000000000000000000000000000000000000000000000000000000000000000000000000000",
            "difficulty": "0x00",
            "number": "0x00",
            "gasLimit": "0x05f5e100",
            "gasUsed": "0x00",
            "timestamp": "0x00",
            "extraData": "0x00",
            "mixHash": "0x0000000000000000000000000000000000000000000000000000000000000000",
            "nonce": "0x0000000000000000",
            "baseFeePerGas": "0x0b",
            "withdrawalsRoot": "0x56e81f171bcc55a6ff8345e692c0f86e5b48e01b996cadc001622fb5e363b421",
            "blobGasUsed": "0x00",
            "excessBlobGas": "0x00",
            "parentBeaconBlockRoot": "0x0000000000000000000000000000000000000000000000000000000000000000",
            "hash": "0x494d06dac2e3e3ed13a80a1362da72120afc259f99a297f3bc412fc35607c068"
        },
        "pre": {
            "0x000f3df6d732807ef1319fb7b8bb8522d0beac02": {
                "nonce": "0x01",
                "balance": "0x00",
                "code": "0x3373fffffffffffffffffffffffffffffffffffffffe14604d57602036146024575f5ffd5b5f35801560495762001fff810690815414603c575f5ffd5b62001fff01545f5260205ff35b5f5ffd5b62001fff42064281555f359062001fff015500",
                "storage": {}
            },
            "0x3e6e7d3f93b507995965e00f1d22153c811c7834": {
                "nonce": "0x01",
                "balance": "0x0de0b6b3a75ef08f",
                "code": "0x",
                "storage": {}
            },
            "0x02ca1e3fbef13c9a60a7455e4af424d392b9ad93": {
                "nonce": "0x01",
                "balance": "0x0de0b6b3a75ef08f",
                "code": "0x",
                "storage": {}
            },
            "0x8a75b79a6d1ae2823fa310ace8580ab030fabc66": {
                "nonce": "0x00",
                "balance": "0x64",
                "code": "0x606060405236156100b95760e060020a6000350463173825d9811461010b5780632f54bf6e146101675780634123cb6b1461018f5780635c52c2f5146101985780637065cb48146101c9578063746c9171146101fd578063797af62714610206578063b20d30a914610219578063b61d27f61461024d578063b75c7dc61461026e578063ba51a6df1461029e578063c2cf7326146102d2578063cbf0b0c014610312578063f00d4b5d14610346578063f1736d861461037f575b61038960003411156101095760408051600160a060020a033316815234602082015281517fe1fffcc4923d04b559f4d29a8bfc6cda04eb5b0d3c460751c2402c5c5cc9109c929181900390910190a15b565b610389600435600060003643604051808484808284375050509091019081526040519081900360200190209050610693815b600160a060020a0333166000908152610102602052604081205481808083811415610c1357610d6c565b61038b6004355b600160a060020a03811660009081526101026020526040812054115b919050565b61038b60015481565b610389600036436040518084848082843750505090910190815260405190819003602001902090506107e58161013d565b6103896004356000364360405180848480828437505050909101908152604051908190036020019020905061060b8161013d565b61038b60005481565b61038b6004355b600081610a4b8161013d565b610389600435600036436040518084848082843750505090910190815260405190819003602001902090506107d98161013d565b61038b6004803590602480359160443591820191013560006108043361016e565b610389600435600160a060020a033316600090815261010260205260408120549080808381141561039d5761041f565b610389600435600036436040518084848082843750505090910190815260405190819003602001902090506107528161013d565b61038b600435602435600082815261010360209081526040808320600160a060020a0385168452610102909252822054829081818114156107ab576107cf565b610389600435600036436040518084848082843750505090910190815260405190819003602001902090506107f38161013d565b6103896004356024356000600036436040518084848082843750505090910190815260405190819003602001902090506104ac8161013d565b61038b6101055481565b005b60408051918252519081900360200190f35b5050506000828152610103602052604081206001810154600284900a929083168190111561041f5781546001838101805492909101845590849003905560408051600160a060020a03331681526020810187905281517fc7fb647e59b18047309aa15aad418e5d7ca96d173ad704f1031a2c3d7591734b929181900390910190a15b5050505050565b600160a060020a03831660028361010081101561000257508301819055600160a060020a03851660008181526101026020908152604080832083905584835291829020869055815192835282019290925281517fb532073b38c83145e3e5135377a08bf9aab55bc0fd7c1179cd4fb995d2a5159c929181900390910190a15b505b505050565b156104a5576104ba8361016e565b156104c557506104a7565b600160a060020a0384166000908152610102602052604081205492508214156104ee57506104a7565b6104265b6101045460005b81811015610eba57610104805461010891600091849081101561000257600080516020610f7583398151915201548252506020918252604081208054600160a060020a0319168155600181018290556002810180548382559083528383209193610f3f92601f9290920104810190610a33565b60018054810190819055600160a060020a038316906002906101008110156100025790900160005081905550600160005054610102600050600084600160a060020a03168152602001908152602001600020600050819055507f994a936646fe87ffe4f1e469d3d6aa417d6b855598397f323de5b449f765f0c3826040518082600160a060020a0316815260200191505060405180910390a15b505b50565b15610606576106198261016e565b156106245750610608565b61062c6104f2565b60015460fa90106106415761063f610656565b505b60015460fa901061056c5750610608565b6107105b600060015b600154811015610a47575b600154811080156106865750600281610100811015610002570154600014155b15610d7557600101610666565b156104a757600160a060020a0383166000908152610102602052604081205492508214156106c15750610606565b60016001600050540360006000505411156106dc5750610606565b600060028361010081101561000257508301819055600160a060020a038416815261010260205260408120556106526104f2565b5060408051600160a060020a038516815290517f58619076adf5bb0943d100ef88d52d7c3fd691b19d3a9071b555b651fbf418da9181900360200190a1505050565b15610606576001548211156107675750610608565b60008290556107746104f2565b6040805183815290517facbdb084c721332ac59f9b8e392196c9eb0e4932862da8eb9beaf0dad4f550da9181900360200190a15050565b506001830154600282900a908116600014156107ca57600094506107cf565b600194505b5050505092915050565b15610606575061010555565b156106085760006101065550565b156106065781600160a060020a0316ff5b15610a2357610818846000610e4f3361016e565b156108d4577f92ca3a80853e6663fa31fa10b99225f18d4902939b4c53a9caae9043f6efd00433858786866040518086600160a060020a0316815260200185815260200184600160a060020a031681526020018060200182810382528484828181526020019250808284378201915050965050505050505060405180910390a184600160a060020a03168484846040518083838082843750505090810191506000908083038185876185025a03f15060009350610a2392505050565b6000364360405180848480828437505050909101908152604051908190036020019020915061090490508161020d565b158015610927575060008181526101086020526040812054600160a060020a0316145b15610a235760008181526101086020908152604082208054600160a060020a03191688178155600181018790556002018054858255818452928290209092601f01919091048101908490868215610a2b579182015b82811115610a2b57823582600050559160200191906001019061097c565b50600050507f1733cbb53659d713b79580f79f3f9ff215f78a7c7aa45890f3b89fc5cddfbf328133868887876040518087815260200186600160a060020a0316815260200185815260200184600160a060020a03168152602001806020018281038252848482818152602001925080828437820191505097505050505050505060405180910390a15b949350505050565b5061099a9291505b80821115610a475760008155600101610a33565b5090565b15610c005760008381526101086020526040812054600160a060020a031614610c0057604080516000918220805460018201546002929092018054600160a060020a0392909216949293909291819084908015610acd57820191906000526020600020905b815481529060010190602001808311610ab057829003601f168201915b50509250505060006040518083038185876185025a03f1505050600084815261010860209081526040805181842080546001820154600160a060020a033381811686529685018c905294840181905293166060830181905260a06080840181815260029390930180549185018290527fe7c957c06e9a662c1a6c77366179f5b702b97651dc28eee7d5bf1dff6e40bb4a985095968b969294929390929160c083019085908015610ba257820191906000526020600020905b815481529060010190602001808311610b8557829003601f168201915b505097505050505050505060405180910390a160008381526101086020908152604082208054600160a060020a031916815560018101839055600281018054848255908452828420919392610c0692601f9290920104810190610a33565b50919050565b505050600191505061018a565b6000868152610103602052604081208054909450909250821415610c9c578154835560018381018390556101048054918201808255828015829011610c6b57818360005260206000209182019101610c6b9190610a33565b50505060028401819055610104805488929081101561000257600091909152600080516020610f7583398151915201555b506001820154600284900a90811660001415610d6c5760408051600160a060020a03331681526020810188905281517fe1c52dc63b719ade82e8bea94cc41a0d5d28e4aaf536adb5e9cccc9ff8c1aeda929181900390910190a1825460019011610d59576000868152610103602052604090206002015461010480549091908110156100025760406000908120600080516020610f758339815191529290920181905580825560018083018290556002909201559550610d6c9050565b8254600019018355600183018054821790555b50505050919050565b5b60018054118015610d9857506001546002906101008110156100025701546000145b15610dac5760018054600019019055610d76565b60015481108015610dcf5750600154600290610100811015610002570154600014155b8015610de957506002816101008110156100025701546000145b15610e4a57600154600290610100811015610002578101549082610100811015610002578101919091558190610102906000908361010081101561000257810154825260209290925260408120929092556001546101008110156100025701555b61065b565b1561018a5761010754610e655b62015180420490565b1115610e7e57600061010655610e79610e5c565b610107555b6101065480830110801590610e9c5750610106546101055490830111155b15610eb25750610106805482019055600161018a565b50600061018a565b6106066101045460005b81811015610f4a5761010480548290811015610002576000918252600080516020610f75833981519152015414610f3757610104805461010391600091849081101561000257600080516020610f7583398151915201548252506020919091526040812081815560018101829055600201555b600101610ec4565b5050506001016104f9565b61010480546000808355919091526104a790600080516020610f7583398151915290810190610a3356004c0be60200faa20559308cb7b5a1bb3255c16cb1cab91f525b5ae7a03d02fabe",
                "storage": {
                    "0x00": "0x01",
                    "0x01": "0x01",
                    "0x03": "0x02ca1e3fbef13c9a60a7455e4af424d392b9ad93",
                    "0x0106": "0x0c22e4",
                    "0x6e369836487c234b9e553ef3f787c2d8865520739d340c67b3d251a33986e58d": "0x01"
                }
            }
        },
        "postState": {
            "0x000f3df6d732807ef1319fb7b8bb8522d0beac02": {
                "nonce": "0x01",
                "balance": "0x00",
                "code": "0x3373fffffffffffffffffffffffffffffffffffffffe14604d57602036146024575f5ffd5b5f35801560495762001fff810690815414603c575f5ffd5b62001fff01545f5260205ff35b5f5ffd5b62001fff42064281555f359062001fff015500",
                "storage": {
                    "0x03e8": "0x03e8"
                }
            },
            "0x3e6e7d3f93b507995965e00f1d22153c811c7834": {
                "nonce": "0x02",
                "balance": "0x0de0b6b3a75b389b",
                "code": "0x",
                "storage": {}
            },
            "0x02ca1e3fbef13c9a60a7455e4af424d392b9ad93": {
                "nonce": "0x01",
                "balance": "0x0de0b6b3a75ef08f",
                "code": "0x",
                "storage": {}
            },
            "0x8a75b79a6d1ae2823fa310ace8580ab030fabc66": {
                "nonce": "0x00",
                "balance": "0xc8",
                "code": "0x606060405236156100b95760e060020a6000350463173825d9811461010b5780632f54bf6e146101675780634123cb6b1461018f5780635c52c2f5146101985780637065cb48146101c9578063746c9171146101fd578063797af62714610206578063b20d30a914610219578063b61d27f61461024d578063b75c7dc61461026e578063ba51a6df1461029e578063c2cf7326146102d2578063cbf0b0c014610312578063f00d4b5d14610346578063f1736d861461037f575b61038960003411156101095760408051600160a060020a033316815234602082015281517fe1fffcc4923d04b559f4d29a8bfc6cda04eb5b0d3c460751c2402c5c5cc9109c929181900390910190a15b565b610389600435600060003643604051808484808284375050509091019081526040519081900360200190209050610693815b600160a060020a0333166000908152610102602052604081205481808083811415610c1357610d6c565b61038b6004355b600160a060020a03811660009081526101026020526040812054115b919050565b61038b60015481565b610389600036436040518084848082843750505090910190815260405190819003602001902090506107e58161013d565b6103896004356000364360405180848480828437505050909101908152604051908190036020019020905061060b8161013d565b61038b60005481565b61038b6004355b600081610a4b8161013d565b610389600435600036436040518084848082843750505090910190815260405190819003602001902090506107d98161013d565b61038b6004803590602480359160443591820191013560006108043361016e565b610389600435600160a060020a033316600090815261010260205260408120549080808381141561039d5761041f565b610389600435600036436040518084848082843750505090910190815260405190819003602001902090506107528161013d565b61038b600435602435600082815261010360209081526040808320600160a060020a0385168452610102909252822054829081818114156107ab576107cf565b610389600435600036436040518084848082843750505090910190815260405190819003602001902090506107f38161013d565b6103896004356024356000600036436040518084848082843750505090910190815260405190819003602001902090506104ac8161013d565b61038b6101055481565b005b60408051918252519081900360200190f35b5050506000828152610103602052604081206001810154600284900a929083168190111561041f5781546001838101805492909101845590849003905560408051600160a060020a03331681526020810187905281517fc7fb647e59b18047309aa15aad418e5d7ca96d173ad704f1031a2c3d7591734b929181900390910190a15b5050505050565b600160a060020a03831660028361010081101561000257508301819055600160a060020a03851660008181526101026020908152604080832083905584835291829020869055815192835282019290925281517fb532073b38c83145e3e5135377a08bf9aab55bc0fd7c1179cd4fb995d2a5159c929181900390910190a15b505b505050565b156104a5576104ba8361016e565b156104c557506104a7565b600160a060020a0384166000908152610102602052604081205492508214156104ee57506104a7565b6104265b6101045460005b81811015610eba57610104805461010891600091849081101561000257600080516020610f7583398151915201548252506020918252604081208054600160a060020a0319168155600181018290556002810180548382559083528383209193610f3f92601f9290920104810190610a33565b60018054810190819055600160a060020a038316906002906101008110156100025790900160005081905550600160005054610102600050600084600160a060020a03168152602001908152602001600020600050819055507f994a936646fe87ffe4f1e469d3d6aa417d6b855598397f323de5b449f765f0c3826040518082600160a060020a0316815260200191505060405180910390a15b505b50565b15610606576106198261016e565b156106245750610608565b61062c6104f2565b60015460fa90106106415761063f610656565b505b60015460fa901061056c5750610608565b6107105b600060015b600154811015610a47575b600154811080156106865750600281610100811015610002570154600014155b15610d7557600101610666565b156104a757600160a060020a0383166000908152610102602052604081205492508214156106c15750610606565b60016001600050540360006000505411156106dc5750610606565b600060028361010081101561000257508301819055600160a060020a038416815261010260205260408120556106526104f2565b5060408051600160a060020a038516815290517f58619076adf5bb0943d100ef88d52d7c3fd691b19d3a9071b555b651fbf418da9181900360200190a1505050565b15610606576001548211156107675750610608565b60008290556107746104f2565b6040805183815290517facbdb084c721332ac59f9b8e392196c9eb0e4932862da8eb9beaf0dad4f550da9181900360200190a15050565b506001830154600282900a908116600014156107ca57600094506107cf565b600194505b5050505092915050565b15610606575061010555565b156106085760006101065550565b156106065781600160a060020a0316ff5b15610a2357610818846000610e4f3361016e565b156108d4577f92ca3a80853e6663fa31fa10b99225f18d4902939b4c53a9caae9043f6efd00433858786866040518086600160a060020a0316815260200185815260200184600160a060020a031681526020018060200182810382528484828181526020019250808284378201915050965050505050505060405180910390a184600160a060020a03168484846040518083838082843750505090810191506000908083038185876185025a03f15060009350610a2392505050565b6000364360405180848480828437505050909101908152604051908190036020019020915061090490508161020d565b158015610927575060008181526101086020526040812054600160a060020a0316145b15610a235760008181526101086020908152604082208054600160a060020a03191688178155600181018790556002018054858255818452928290209092601f01919091048101908490868215610a2b579182015b82811115610a2b57823582600050559160200191906001019061097c565b50600050507f1733cbb53659d713b79580f79f3f9ff215f78a7c7aa45890f3b89fc5cddfbf328133868887876040518087815260200186600160a060020a0316815260200185815260200184600160a060020a03168152602001806020018281038252848482818152602001925080828437820191505097505050505050505060405180910390a15b949350505050565b5061099a9291505b80821115610a475760008155600101610a33565b5090565b15610c005760008381526101086020526040812054600160a060020a031614610c0057604080516000918220805460018201546002929092018054600160a060020a0392909216949293909291819084908015610acd57820191906000526020600020905b815481529060010190602001808311610ab057829003601f168201915b50509250505060006040518083038185876185025a03f1505050600084815261010860209081526040805181842080546001820154600160a060020a033381811686529685018c905294840181905293166060830181905260a06080840181815260029390930180549185018290527fe7c957c06e9a662c1a6c77366179f5b702b97651dc28eee7d5bf1dff6e40bb4a985095968b969294929390929160c083019085908015610ba257820191906000526020600020905b815481529060010190602001808311610b8557829003601f168201915b505097505050505050505060405180910390a160008381526101086020908152604082208054600160a060020a031916815560018101839055600281018054848255908452828420919392610c0692601f9290920104810190610a33565b50919050565b505050600191505061018a565b6000868152610103602052604081208054909450909250821415610c9c578154835560018381018390556101048054918201808255828015829011610c6b57818360005260206000209182019101610c6b9190610a33565b50505060028401819055610104805488929081101561000257600091909152600080516020610f7583398151915201555b506001820154600284900a90811660001415610d6c5760408051600160a060020a03331681526020810188905281517fe1c52dc63b719ade82e8bea94cc41a0d5d28e4aaf536adb5e9cccc9ff8c1aeda929181900390910190a1825460019011610d59576000868152610103602052604090206002015461010480549091908110156100025760406000908120600080516020610f758339815191529290920181905580825560018083018290556002909201559550610d6c9050565b8254600019018355600183018054821790555b50505050919050565b5b60018054118015610d9857506001546002906101008110156100025701546000145b15610dac5760018054600019019055610d76565b60015481108015610dcf5750600154600290610100811015610002570154600014155b8015610de957506002816101008110156100025701546000145b15610e4a57600154600290610100811015610002578101549082610100811015610002578101919091558190610102906000908361010081101561000257810154825260209290925260408120929092556001546101008110156100025701555b61065b565b1561018a5761010754610e655b62015180420490565b1115610e7e57600061010655610e79610e5c565b610107555b6101065480830110801590610e9c5750610106546101055490830111155b15610eb25750610106805482019055600161018a565b50600061018a565b6106066101045460005b81811015610f4a5761010480548290811015610002576000918252600080516020610f75833981519152015414610f3757610104805461010391600091849081101561000257600080516020610f7583398151915201548252506020919091526040812081815560018101829055600201555b600101610ec4565b5050506001016104f9565b61010480546000808355919091526104a790600080516020610f7583398151915290810190610a3356004c0be60200faa20559308cb7b5a1bb3255c16cb1cab91f525b5ae7a03d02fabe",
                "storage": {
                    "0x00": "0x01",
                    "0x01": "0x01",
                    "0x03": "0x02ca1e3fbef13c9a60a7455e4af424d392b9ad93",
                    "0x0106": "0x0c22e4",
                    "0x6e369836487c234b9e553ef3f787c2d8865520739d340c67b3d251a33986e58d": "0x01"
                }
            }
        },
        "lastblockhash": "0x26f1061f5034c37c6c4a2146e3b39fa291b9cd192ed5c2d6ed06f6d504013b90",
        "config": {
            "network": "Cancun",
            "chainid": "0x01",
            "blobSchedule": {
                "Cancun": {
                    "target": "0x03",
                    "max": "0x06",
                    "baseFeeUpdateFraction": "0x32f0ed"
                }
            }
        },
        "genesisRLP": "0xf9023cf90236a00000000000000000000000000000000000000000000000000000000000000000a01dcc4de8dec75d7aab85b567b6ccd41ad312451b948a7413f0a142fd40d49347940000000000000000000000000000000000000000a0cd268a6ee6b9a073024ece51df424d2ee6b24ebf38e654d31de135db67f23a45a056e81f171bcc55a6ff8345e692c0f86e5b48e01b996cadc001622fb5e363b421a056e81f171bcc55a6ff8345e692c0f86e5b48e01b996cadc001622fb5e363b421b901000000000000000000000000000000000000000000000000000000000000000000000000000000000000000000000000000000000000000000000000000000000000000000000000000000000000000000000000000000000000000000000000000000000000000000000000000000000000000000000000000000000000000000000000000000000000000000000000000000000000000000000000000000000000000000000000000000000000000000000000000000000000000000000000000000000000000000000000000000000000000000000000000000000000000000000000000000000000000000000000000000000000000000000000000000000080808405f5e100808000a000000000000000000000000000000000000000000000000000000000000000008800000000000000000ba056e81f171bcc55a6ff8345e692c0f86e5b48e01b996cadc001622fb5e363b4218080a00000000000000000000000000000000000000000000000000000000000000000c0c0c0",
        "blocks": [
            {
                "blockHeader": {
                    "parentHash": "0x494d06dac2e3e3ed13a80a1362da72120afc259f99a297f3bc412fc35607c068",
                    "uncleHash": "0x1dcc4de8dec75d7aab85b567b6ccd41ad312451b948a7413f0a142fd40d49347",
                    "coinbase": "0x2adc25665018aa1fe0e6bc666dac8fc2697ff9ba",
                    "stateRoot": "0xb452a1e0edef95f0dbad6169a6e409b62ef4fa89d8d09f0cbbd8b553256bf07f",
                    "transactionsTrie": "0x36909a1517cd35566c72ffa4959ab875940efe5d2d3329884d7d7286680b10bb",
                    "receiptTrie": "0x08196e772e4dacf4d85cc221fd3e3b7ad8de63103ef885fb5a64a95e6b863824",
                    "bloom": "0x00000000000000000000000000000000000000000000000000000000000000000000000000000000000000000000000000000000000000000000000000000000000000000000000000000000000000000000000000000000000000000000000000000000000000000000000000000000000000000000000000000000000000000000000000000000000000000000000000000000000000000000000000000000000000000000000000000000000000000000000000000000000000000000000000000000000000000000000000000000000000000000000000000000000000000000000000000000000000000000000000000000000000000000000000000000",
                    "difficulty": "0x00",
                    "number": "0x01",
                    "gasLimit": "0x05f5e100",
                    "gasUsed": "0x5f28",
                    "timestamp": "0x03e8",
                    "extraData": "0x00",
                    "mixHash": "0x0000000000000000000000000000000000000000000000000000000000020000",
                    "nonce": "0x0000000000000000",
                    "baseFeePerGas": "0x0a",
                    "withdrawalsRoot": "0x56e81f171bcc55a6ff8345e692c0f86e5b48e01b996cadc001622fb5e363b421",
                    "blobGasUsed": "0x00",
                    "excessBlobGas": "0x00",
                    "parentBeaconBlockRoot": "0x0000000000000000000000000000000000000000000000000000000000000000",
                    "hash": "0x26f1061f5034c37c6c4a2146e3b39fa291b9cd192ed5c2d6ed06f6d504013b90"
                },
                "transactions": [
                    {
                        "type": "0x00",
                        "chainId": "0x01",
                        "nonce": "0x01",
                        "gasPrice": "0x0a",
                        "gasLimit": "0x989680",
                        "to": "0x8a75b79a6d1ae2823fa310ace8580ab030fabc66",
                        "value": "0x64",
                        "data": "0xcbf0b0c0000000000000000000000000aaaf5374fce5edbc8e2a8697c15331677e6ebaaa",
                        "v": "0x26",
                        "r": "0x3be6edfe34f2f527346c3a97c2cfb9b55748403b83f866cd16d641a553528c72",
                        "s": "0x10e421112855407f15642fefe7b7676cf6d980f65bcdf0cde0669ae427e6eafd",
                        "sender": "0x3e6e7d3f93b507995965e00f1d22153c811c7834"
                    }
                ],
                "uncleHeaders": [],
                "withdrawals": [],
                "receipts": [
                    {
                        "transactionHash": "0x8d1049866ba3673d7b8799869c42cb7a5e6574b3bff0003699df46f91a89948b",
                        "type": "0x00",
                        "cumulativeGasUsed": "0x5f28",
                        "bloom": "0x00000000000000000000000000000000000000000000000000000000000000000000000000000000000000000000000000000000000000000000000000000000000000000000000000000000000000000000000000000000000000000000000000000000000000000000000000000000000000000000000000000000000000000000000000000000000000000000000000000000000000000000000000000000000000000000000000000000000000000000000000000000000000000000000000000000000000000000000000000000000000000000000000000000000000000000000000000000000000000000000000000000000000000000000000000000",
                        "logs": [],
                        "status": true,
                        "rlp": "0xf9010801825f28b9010000000000000000000000000000000000000000000000000000000000000000000000000000000000000000000000000000000000000000000000000000000000000000000000000000000000000000000000000000000000000000000000000000000000000000000000000000000000000000000000000000000000000000000000000000000000000000000000000000000000000000000000000000000000000000000000000000000000000000000000000000000000000000000000000000000000000000000000000000000000000000000000000000000000000000000000000000000000000000000000000000000000000000000000000000000000c0"
                    }
                ],
                "rlp": "0xf902c7f9023aa0494d06dac2e3e3ed13a80a1362da72120afc259f99a297f3bc412fc35607c068a01dcc4de8dec75d7aab85b567b6ccd41ad312451b948a7413f0a142fd40d49347942adc25665018aa1fe0e6bc666dac8fc2697ff9baa0b452a1e0edef95f0dbad6169a6e409b62ef4fa89d8d09f0cbbd8b553256bf07fa036909a1517cd35566c72ffa4959ab875940efe5d2d3329884d7d7286680b10bba008196e772e4dacf4d85cc221fd3e3b7ad8de63103ef885fb5a64a95e6b863824b901000000000000000000000000000000000000000000000000000000000000000000000000000000000000000000000000000000000000000000000000000000000000000000000000000000000000000000000000000000000000000000000000000000000000000000000000000000000000000000000000000000000000000000000000000000000000000000000000000000000000000000000000000000000000000000000000000000000000000000000000000000000000000000000000000000000000000000000000000000000000000000000000000000000000000000000000000000000000000000000000000000000000000000000000000000000080018405f5e100825f288203e800a000000000000000000000000000000000000000000000000000000000000200008800000000000000000aa056e81f171bcc55a6ff8345e692c0f86e5b48e01b996cadc001622fb5e363b4218080a00000000000000000000000000000000000000000000000000000000000000000f886f884010a83989680948a75b79a6d1ae2823fa310ace8580ab030fabc6664a4cbf0b0c0000000000000000000000000aaaf5374fce5edbc8e2a8697c15331677e6ebaaa26a03be6edfe34f2f527346c3a97c2cfb9b55748403b83f866cd16d641a553528c72a010e421112855407f15642fefe7b7676cf6d980f65bcdf0cde0669ae427e6eafdc0c0",
                "blocknumber": "1"
            }
        ],
        "sealEngine": "NoProof",
        "_info": {
            "hash": "0xfd039a774744d182da19ffe1f3298d02082dc1d126db0779a3fa34b7d7dc7ba1",
            "fixture-format": "blockchain_test",
            "comment": "`execution-specs` generated test",
            "filling-transition-tool": "2.19.0",
            "description": "Test_wallet_kill_not_by_owner.",
            "url": "https://github.com/ethereum/execution-specs/blob/tests-snobal-devnet-5@v8037.0.0/tests/ported_static/stWalletTest/test_wallet_kill_not_by_owner.py#L24",
            "metadata": {
                "opcode_count": {}
            }
        }
    }
}