{
    "tests/constantinople/eip1052_extcodehash/test_extcodehash.py::test_extcodehash_after_selfdestruct[fork_ConstantinopleFix-blockchain_test_from_state_test-create2]": {
        "network": "ConstantinopleFix",
        "genesisBlockHeader": {
            "parentHash": "0x0000000000000000000000000000000000000000000000000000000000000000",
            "uncleHash": "0x1dcc4de8dec75d7aab85b567b6ccd41ad312451b948a7413f0a142fd40d49347",
            "coinbase": "0x0000000000000000000000000000000000000000",
            "stateRoot": "0x9e2fdf39992380b8f727f111b0f7ad0689561a9617cb049818deb585725894ab",
            "transactionsTrie": "0x56e81f171bcc55a6ff8345e692c0f86e5b48e01b996cadc001622fb5e363b421",
            "receiptTrie": "0x56e81f171bcc55a6ff8345e692c0f86e5b48e01b996cadc001622fb5e363b421",
            "bloom": "0x00000000000000000000000000000000000000000000000000000000000000000000000000000000000000000000000000000000000000000000000000000000000000000000000000000000000000000000000000000000000000000000000000000000000000000000000000000000000000000000000000000000000000000000000000000000000000000000000000000000000000000000000000000000000000000000000000000000000000000000000000000000000000000000000000000000000000000000000000000000000000000000000000000000000000000000000000000000000000000000000000000000000000000000000000000000",
            "difficulty": "0x020000",
            "number": "0x00",
            "gasLimit": "0x07270e00",
            "gasUsed": "0x00",
            "timestamp": "0x00",
            "extraData": "0x00",
            "mixHash": "0x0000000000000000000000000000000000000000000000000000000000000000",
            "nonce": "0x0000000000000000",
            "hash": "0x958e94f0ef33a5be0c49360c88c244ec3a767d67c7f86aa1f2429d582c5b38e0"
        },
        "pre": {
            "0x41a518d831226e823f596a55c095b9d7bc73f8ff": {
                "nonce": "0x01",
                "balance": "0x00",
                "code": "0x7f610002600081600b8239f332ff000000000000000000000000000000000000006000526000600d60006000f56000556000543f6001556000543b60025560006000526002600060006000543c60005160035560006000600060006000600054620186a0f1506000543f6004556000543b60055560006000526002600060006000543c600051600655",
                "storage": {
                    "0x00": "0xba5e"
                }
            },
            "0x1ad9bc24818784172ff393bb6f89f094d4d2ca29": {
                "nonce": "0x00",
                "balance": "0x3635c9adc5dea00000",
                "code": "0x",
                "storage": {}
            }
        },
        "postState": {
            "0x41a518d831226e823f596a55c095b9d7bc73f8ff": {
                "nonce": "0x02",
                "balance": "0x00",
                "code": "0x7f610002600081600b8239f332ff000000000000000000000000000000000000006000526000600d60006000f56000556000543f6001556000543b60025560006000526002600060006000543c60005160035560006000600060006000600054620186a0f1506000543f6004556000543b60055560006000526002600060006000543c600051600655",
                "storage": {
                    "0x00": "0x7575a1682d901310b571843daa185b1823a2d31d",
                    "0x01": "0x3a6ca0f2fdba9798ec7350fb5106f9dd4102ec04a5cbd39ec60cd921c3d7af06",
                    "0x02": "0x02",
                    "0x03": "0x32ff000000000000000000000000000000000000000000000000000000000000",
                    "0x04": "0x3a6ca0f2fdba9798ec7350fb5106f9dd4102ec04a5cbd39ec60cd921c3d7af06",
                    "0x05": "0x02",
                    "0x06": "0x32ff000000000000000000000000000000000000000000000000000000000000"
                }
            },
            "0x1ad9bc24818784172ff393bb6f89f094d4d2ca29": {
                "nonce": "0x01",
                "balance": "0x3635c9adc5de86c810",
                "code": "0x",
                "storage": {}
            },
            "0x2adc25665018aa1fe0e6bc666dac8fc2697ff9ba": {
                "nonce": "0x00",
                "balance": "0x1bc16d674ee137f0",
                "code": "0x",
                "storage": {}
            }
        },
        "lastblockhash": "0x6969502f4ca6d572eec3b436b92f7d36bf11fdfbdd950233d273b07f16c0f6dd",
        "config": {
            "network": "ConstantinopleFix",
            "chainid": "0x01"
        },
        "genesisRLP": "0xf901f9f901f4a00000000000000000000000000000000000000000000000000000000000000000a01dcc4de8dec75d7aab85b567b6ccd41ad312451b948a7413f0a142fd40d49347940000000000000000000000000000000000000000a09e2fdf39992380b8f727f111b0f7ad0689561a9617cb049818deb585725894aba056e81f171bcc55a6ff8345e692c0f86e5b48e01b996cadc001622fb5e363b421a056e81f171bcc55a6ff8345e692c0f86e5b48e01b996cadc001622fb5e363b421b901000000000000000000000000000000000000000000000000000000000000000000000000000000000000000000000000000000000000000000000000000000000000000000000000000000000000000000000000000000000000000000000000000000000000000000000000000000000000000000000000000000000000000000000000000000000000000000000000000000000000000000000000000000000000000000000000000000000000000000000000000000000000000000000000000000000000000000000000000000000000000000000000000000000000000000000000000000000000000000000000000000000000000000000000000000000083020000808407270e00808000a00000000000000000000000000000000000000000000000000000000000000000880000000000000000c0c0",
        "blocks": [
            {
                "blockHeader": {
                    "parentHash": "0x958e94f0ef33a5be0c49360c88c244ec3a767d67c7f86aa1f2429d582c5b38e0",
                    "uncleHash": "0x1dcc4de8dec75d7aab85b567b6ccd41ad312451b948a7413f0a142fd40d49347",
                    "coinbase": "0x2adc25665018aa1fe0e6bc666dac8fc2697ff9ba",
                    "stateRoot": "0xe3f53e8428e11322318347d21763398a64b5f1a6f0224562e518c229f6060546",
                    "transactionsTrie": "0x99bf405f36e9710619abd671d102c79e58e749f82eaf7614f342e1a27eed9384",
                    "receiptTrie": "0x962351087938c3504f147ae65c2dc2d87d608d6df73f6b0d12a5be2b338715aa",
                    "bloom": "0x00000000000000000000000000000000000000000000000000000000000000000000000000000000000000000000000000000000000000000000000000000000000000000000000000000000000000000000000000000000000000000000000000000000000000000000000000000000000000000000000000000000000000000000000000000000000000000000000000000000000000000000000000000000000000000000000000000000000000000000000000000000000000000000000000000000000000000000000000000000000000000000000000000000000000000000000000000000000000000000000000000000000000000000000000000000",
                    "difficulty": "0x020000",
                    "number": "0x01",
                    "gasLimit": "0x07270e00",
                    "gasUsed": "0x028598",
                    "timestamp": "0x03e8",
                    "extraData": "0x00",
                    "mixHash": "0x0000000000000000000000000000000000000000000000000000000000000000",
                    "nonce": "0x0000000000000000",
                    "hash": "0x6969502f4ca6d572eec3b436b92f7d36bf11fdfbdd950233d273b07f16c0f6dd"
                },
                "transactions": [
                    {
                        "type": "0x00",
                        "chainId": "0x01",
                        "nonce": "0x00",
                        "gasPrice": "0x0a",
                        "gasLimit": "0x0f4240",
                        "to": "0x41a518d831226e823f596a55c095b9d7bc73f8ff",
                        "value": "0x00",
                        "data": "0x",
                        "v": "0x26",
                        "r": "0xe7c1863ff7ff9233906b3506465aa79342857de2c72105108388738b4b1952ad",
                        "s": "0x11b6886b8b1f80218d7d68abac344561a9d72eb60aeaadc32a731557959e46ec",
                        "sender": "0x1ad9bc24818784172ff393bb6f89f094d4d2ca29"
                    }
                ],
                "uncleHeaders": [],
                "receipts": [
                    {
                        "transactionHash": "0xf3148008c9c9bdc0fffa94d78fb59b52208a6cee1222cf47518ea6d13dd50a66",
                        "type": "0x00",
                        "cumulativeGasUsed": "0x028598",
                        "bloom": "0x00000000000000000000000000000000000000000000000000000000000000000000000000000000000000000000000000000000000000000000000000000000000000000000000000000000000000000000000000000000000000000000000000000000000000000000000000000000000000000000000000000000000000000000000000000000000000000000000000000000000000000000000000000000000000000000000000000000000000000000000000000000000000000000000000000000000000000000000000000000000000000000000000000000000000000000000000000000000000000000000000000000000000000000000000000000",
                        "logs": [],
                        "status": true,
                        "rlp": "0xf901090183028598b9010000000000000000000000000000000000000000000000000000000000000000000000000000000000000000000000000000000000000000000000000000000000000000000000000000000000000000000000000000000000000000000000000000000000000000000000000000000000000000000000000000000000000000000000000000000000000000000000000000000000000000000000000000000000000000000000000000000000000000000000000000000000000000000000000000000000000000000000000000000000000000000000000000000000000000000000000000000000000000000000000000000000000000000000000000000000c0"
                    }
                ],
                "rlp": "0xf90261f901f9a0958e94f0ef33a5be0c49360c88c244ec3a767d67c7f86aa1f2429d582c5b38e0a01dcc4de8dec75d7aab85b567b6ccd41ad312451b948a7413f0a142fd40d49347942adc25665018aa1fe0e6bc666dac8fc2697ff9baa0e3f53e8428e11322318347d21763398a64b5f1a6f0224562e518c229f6060546a099bf405f36e9710619abd671d102c79e58e749f82eaf7614f342e1a27eed9384a0962351087938c3504f147ae65c2dc2d87d608d6df73f6b0d12a5be2b338715aab901000000000000000000000000000000000000000000000000000000000000000000000000000000000000000000000000000000000000000000000000000000000000000000000000000000000000000000000000000000000000000000000000000000000000000000000000000000000000000000000000000000000000000000000000000000000000000000000000000000000000000000000000000000000000000000000000000000000000000000000000000000000000000000000000000000000000000000000000000000000000000000000000000000000000000000000000000000000000000000000000000000000000000000000000000000000083020000018407270e00830285988203e800a00000000000000000000000000000000000000000000000000000000000000000880000000000000000f862f860800a830f42409441a518d831226e823f596a55c095b9d7bc73f8ff808026a0e7c1863ff7ff9233906b3506465aa79342857de2c72105108388738b4b1952ada011b6886b8b1f80218d7d68abac344561a9d72eb60aeaadc32a731557959e46ecc0",
                "blocknumber": "1"
            }
        ],
        "sealEngine": "NoProof",
        "_info": {
            "hash": "0xd1a5c1def4195913a8a91ab8a24ddafa845ac133a7c1ef889ed56dcdbbd1be35",
            "fixture-format": "blockchain_test",
            "comment": "`execution-specs` generated test",
            "filling-transition-tool": "2.19.0",
            "description": "Test EXTCODEHASH/EXTCODESIZE/EXTCODECOPY before and after SELFDESTRUCT.\n\nVerifies that code hash, size, and copied code remain unchanged\nwithin the transaction after SELFDESTRUCT is triggered.\nPre-Cancun, all selfdestructed accounts are deleted. From Cancun\n(EIP-6780), only accounts created in the same transaction are\ndeleted; pre-existing accounts persist with balance drained.",
            "url": "https://github.com/ethereum/execution-specs/blob/tests-bal@v5.3.0/tests/constantinople/eip1052_extcodehash/test_extcodehash.py#L739",
            "opcode_count": {},
            "reference-spec": "https://github.com/ethereum/EIPs/blob/master/EIPS/eip-1052.md",
            "reference-spec-version": "2dcbc7ce1563e9624e137e9d447374600af876fa"
        }
    },
    "tests/constantinople/eip1052_extcodehash/test_extcodehash.py::test_extcodehash_after_selfdestruct[fork_ConstantinopleFix-blockchain_test_from_state_test-create]": {
        "network": "ConstantinopleFix",
        "genesisBlockHeader": {
            "parentHash": "0x0000000000000000000000000000000000000000000000000000000000000000",
            "uncleHash": "0x1dcc4de8dec75d7aab85b567b6ccd41ad312451b948a7413f0a142fd40d49347",
            "coinbase": "0x0000000000000000000000000000000000000000",
            "stateRoot": "0xe3d7b455d825946d9a93f4073ebe5a9b3b5dcbc7e6a47bf4952e93994fbd7ca3",
            "transactionsTrie": "0x56e81f171bcc55a6ff8345e692c0f86e5b48e01b996cadc001622fb5e363b421",
            "receiptTrie": "0x56e81f171bcc55a6ff8345e692c0f86e5b48e01b996cadc001622fb5e363b421",
            "bloom": "0x00000000000000000000000000000000000000000000000000000000000000000000000000000000000000000000000000000000000000000000000000000000000000000000000000000000000000000000000000000000000000000000000000000000000000000000000000000000000000000000000000000000000000000000000000000000000000000000000000000000000000000000000000000000000000000000000000000000000000000000000000000000000000000000000000000000000000000000000000000000000000000000000000000000000000000000000000000000000000000000000000000000000000000000000000000000",
            "difficulty": "0x020000",
            "number": "0x00",
            "gasLimit": "0x07270e00",
            "gasUsed": "0x00",
            "timestamp": "0x00",
            "extraData": "0x00",
            "mixHash": "0x0000000000000000000000000000000000000000000000000000000000000000",
            "nonce": "0x0000000000000000",
            "hash": "0x20d465de285650549e46e87700b8abe4e1338f9f29a4dfd63b70ac361136049b"
        },
        "pre": {
            "0xe7186ea0c9fd562f61de9fc9a27b47cabad7894a": {
                "nonce": "0x01",
                "balance": "0x00",
                "code": "0x7f610002600081600b8239f332ff00000000000000000000000000000000000000600052600d60006000f06000556000543f6001556000543b60025560006000526002600060006000543c60005160035560006000600060006000600054620186a0f1506000543f6004556000543b60055560006000526002600060006000543c600051600655",
                "storage": {
                    "0x00": "0xba5e"
                }
            },
            "0x1ad9bc24818784172ff393bb6f89f094d4d2ca29": {
                "nonce": "0x00",
                "balance": "0x3635c9adc5dea00000",
                "code": "0x",
                "storage": {}
            }
        },
        "postState": {
            "0xe7186ea0c9fd562f61de9fc9a27b47cabad7894a": {
                "nonce": "0x02",
                "balance": "0x00",
                "code": "0x7f610002600081600b8239f332ff00000000000000000000000000000000000000600052600d60006000f06000556000543f6001556000543b60025560006000526002600060006000543c60005160035560006000600060006000600054620186a0f1506000543f6004556000543b60055560006000526002600060006000543c600051600655",
                "storage": {
                    "0x00": "0xdbfe21295c375d2a148ba776410ff63e09ac78b5",
                    "0x01": "0x3a6ca0f2fdba9798ec7350fb5106f9dd4102ec04a5cbd39ec60cd921c3d7af06",
                    "0x02": "0x02",
                    "0x03": "0x32ff000000000000000000000000000000000000000000000000000000000000",
                    "0x04": "0x3a6ca0f2fdba9798ec7350fb5106f9dd4102ec04a5cbd39ec60cd921c3d7af06",
                    "0x05": "0x02",
                    "0x06": "0x32ff000000000000000000000000000000000000000000000000000000000000"
                }
            },
            "0x1ad9bc24818784172ff393bb6f89f094d4d2ca29": {
                "nonce": "0x01",
                "balance": "0x3635c9adc5de86c86a",
                "code": "0x",
                "storage": {}
            },
            "0x2adc25665018aa1fe0e6bc666dac8fc2697ff9ba": {
                "nonce": "0x00",
                "balance": "0x1bc16d674ee13796",
                "code": "0x",
                "storage": {}
            }
        },
        "lastblockhash": "0x4f3c7ecf86b627643130cf1a6c25d5c334969dccfc53398ac6061cd153774b51",
        "config": {
            "network": "ConstantinopleFix",
            "chainid": "0x01"
        },
        "genesisRLP": "0xf901f9f901f4a00000000000000000000000000000000000000000000000000000000000000000a01dcc4de8dec75d7aab85b567b6ccd41ad312451b948a7413f0a142fd40d49347940000000000000000000000000000000000000000a0e3d7b455d825946d9a93f4073ebe5a9b3b5dcbc7e6a47bf4952e93994fbd7ca3a056e81f171bcc55a6ff8345e692c0f86e5b48e01b996cadc001622fb5e363b421a056e81f171bcc55a6ff8345e692c0f86e5b48e01b996cadc001622fb5e363b421b901000000000000000000000000000000000000000000000000000000000000000000000000000000000000000000000000000000000000000000000000000000000000000000000000000000000000000000000000000000000000000000000000000000000000000000000000000000000000000000000000000000000000000000000000000000000000000000000000000000000000000000000000000000000000000000000000000000000000000000000000000000000000000000000000000000000000000000000000000000000000000000000000000000000000000000000000000000000000000000000000000000000000000000000000000000000083020000808407270e00808000a00000000000000000000000000000000000000000000000000000000000000000880000000000000000c0c0",
        "blocks": [
            {
                "blockHeader": {
                    "parentHash": "0x20d465de285650549e46e87700b8abe4e1338f9f29a4dfd63b70ac361136049b",
                    "uncleHash": "0x1dcc4de8dec75d7aab85b567b6ccd41ad312451b948a7413f0a142fd40d49347",
                    "coinbase": "0x2adc25665018aa1fe0e6bc666dac8fc2697ff9ba",
                    "stateRoot": "0x4cb01679a2d03032987d819d940113bb3659ed73517db58a89638787f5eb083d",
                    "transactionsTrie": "0x83a7e18c1a211249aa116f7a2958a3f2a9cfd0c0c2367fde375f7a1a9794651a",
                    "receiptTrie": "0x1a8873fb45ca0c3b7c6865691699c04e20ae4ec4e34af4fa6a374084fa5dd39a",
                    "bloom": "0x00000000000000000000000000000000000000000000000000000000000000000000000000000000000000000000000000000000000000000000000000000000000000000000000000000000000000000000000000000000000000000000000000000000000000000000000000000000000000000000000000000000000000000000000000000000000000000000000000000000000000000000000000000000000000000000000000000000000000000000000000000000000000000000000000000000000000000000000000000000000000000000000000000000000000000000000000000000000000000000000000000000000000000000000000000000",
                    "difficulty": "0x020000",
                    "number": "0x01",
                    "gasLimit": "0x07270e00",
                    "gasUsed": "0x02858f",
                    "timestamp": "0x03e8",
                    "extraData": "0x00",
                    "mixHash": "0x0000000000000000000000000000000000000000000000000000000000000000",
                    "nonce": "0x0000000000000000",
                    "hash": "0x4f3c7ecf86b627643130cf1a6c25d5c334969dccfc53398ac6061cd153774b51"
                },
                "transactions": [
                    {
                        "type": "0x00",
                        "chainId": "0x01",
                        "nonce": "0x00",
                        "gasPrice": "0x0a",
                        "gasLimit": "0x0f4240",
                        "to": "0xe7186ea0c9fd562f61de9fc9a27b47cabad7894a",
                        "value": "0x00",
                        "data": "0x",
                        "v": "0x26",
                        "r": "0x7dba1838521b2cef8c51940b327e3400c5a657c2532e00e55413deefaa9303e4",
                        "s": "0x59f693d883fe647e4b6a196e0d643600d7f02128afe0083ad411c9411cd522e9",
                        "sender": "0x1ad9bc24818784172ff393bb6f89f094d4d2ca29"
                    }
                ],
                "uncleHeaders": [],
                "receipts": [
                    {
                        "transactionHash": "0xab32026b6dac80b92b713992abbb0b7d45867e993a50c79ea130085b81ff8c49",
                        "type": "0x00",
                        "cumulativeGasUsed": "0x02858f",
                        "bloom": "0x00000000000000000000000000000000000000000000000000000000000000000000000000000000000000000000000000000000000000000000000000000000000000000000000000000000000000000000000000000000000000000000000000000000000000000000000000000000000000000000000000000000000000000000000000000000000000000000000000000000000000000000000000000000000000000000000000000000000000000000000000000000000000000000000000000000000000000000000000000000000000000000000000000000000000000000000000000000000000000000000000000000000000000000000000000000",
                        "logs": [],
                        "status": true,
                        "rlp": "0xf90109018302858fb9010000000000000000000000000000000000000000000000000000000000000000000000000000000000000000000000000000000000000000000000000000000000000000000000000000000000000000000000000000000000000000000000000000000000000000000000000000000000000000000000000000000000000000000000000000000000000000000000000000000000000000000000000000000000000000000000000000000000000000000000000000000000000000000000000000000000000000000000000000000000000000000000000000000000000000000000000000000000000000000000000000000000000000000000000000000000c0"
                    }
                ],
                "rlp": "0xf90261f901f9a020d465de285650549e46e87700b8abe4e1338f9f29a4dfd63b70ac361136049ba01dcc4de8dec75d7aab85b567b6ccd41ad312451b948a7413f0a142fd40d49347942adc25665018aa1fe0e6bc666dac8fc2697ff9baa04cb01679a2d03032987d819d940113bb3659ed73517db58a89638787f5eb083da083a7e18c1a211249aa116f7a2958a3f2a9cfd0c0c2367fde375f7a1a9794651aa01a8873fb45ca0c3b7c6865691699c04e20ae4ec4e34af4fa6a374084fa5dd39ab901000000000000000000000000000000000000000000000000000000000000000000000000000000000000000000000000000000000000000000000000000000000000000000000000000000000000000000000000000000000000000000000000000000000000000000000000000000000000000000000000000000000000000000000000000000000000000000000000000000000000000000000000000000000000000000000000000000000000000000000000000000000000000000000000000000000000000000000000000000000000000000000000000000000000000000000000000000000000000000000000000000000000000000000000000000000083020000018407270e008302858f8203e800a00000000000000000000000000000000000000000000000000000000000000000880000000000000000f862f860800a830f424094e7186ea0c9fd562f61de9fc9a27b47cabad7894a808026a07dba1838521b2cef8c51940b327e3400c5a657c2532e00e55413deefaa9303e4a059f693d883fe647e4b6a196e0d643600d7f02128afe0083ad411c9411cd522e9c0",
                "blocknumber": "1"
            }
        ],
        "sealEngine": "NoProof",
        "_info": {
            "hash": "0x73f2559735c82e78a513c75ec82ee08c4266a66641e3e7987ca6e7f1bd326ef8",
            "fixture-format": "blockchain_test",
            "comment": "`execution-specs` generated test",
            "filling-transition-tool": "2.19.0",
            "description": "Test EXTCODEHASH/EXTCODESIZE/EXTCODECOPY before and after SELFDESTRUCT.\n\nVerifies that code hash, size, and copied code remain unchanged\nwithin the transaction after SELFDESTRUCT is triggered.\nPre-Cancun, all selfdestructed accounts are deleted. From Cancun\n(EIP-6780), only accounts created in the same transaction are\ndeleted; pre-existing accounts persist with balance drained.",
            "url": "https://github.com/ethereum/execution-specs/blob/tests-bal@v5.3.0/tests/constantinople/eip1052_extcodehash/test_extcodehash.py#L739",
            "opcode_count": {},
            "reference-spec": "https://github.com/ethereum/EIPs/blob/master/EIPS/eip-1052.md",
            "reference-spec-version": "2dcbc7ce1563e9624e137e9d447374600af876fa"
        }
    },
    "tests/constantinople/eip1052_extcodehash/test_extcodehash.py::test_extcodehash_after_selfdestruct[fork_ConstantinopleFix-blockchain_test_from_state_test-pre_existing]": {
        "network": "ConstantinopleFix",
        "genesisBlockHeader": {
            "parentHash": "0x0000000000000000000000000000000000000000000000000000000000000000",
            "uncleHash": "0x1dcc4de8dec75d7aab85b567b6ccd41ad312451b948a7413f0a142fd40d49347",
            "coinbase": "0x0000000000000000000000000000000000000000",
            "stateRoot": "0x50d8a7f925a9486e8a2ccc79a1f18840768e39609d7f105a415fddcdf286a107",
            "transactionsTrie": "0x56e81f171bcc55a6ff8345e692c0f86e5b48e01b996cadc001622fb5e363b421",
            "receiptTrie": "0x56e81f171bcc55a6ff8345e692c0f86e5b48e01b996cadc001622fb5e363b421",
            "bloom": "0x00000000000000000000000000000000000000000000000000000000000000000000000000000000000000000000000000000000000000000000000000000000000000000000000000000000000000000000000000000000000000000000000000000000000000000000000000000000000000000000000000000000000000000000000000000000000000000000000000000000000000000000000000000000000000000000000000000000000000000000000000000000000000000000000000000000000000000000000000000000000000000000000000000000000000000000000000000000000000000000000000000000000000000000000000000000",
            "difficulty": "0x020000",
            "number": "0x00",
            "gasLimit": "0x07270e00",
            "gasUsed": "0x00",
            "timestamp": "0x00",
            "extraData": "0x00",
            "mixHash": "0x0000000000000000000000000000000000000000000000000000000000000000",
            "nonce": "0x0000000000000000",
            "hash": "0x62ddabd6dfea63a99761ca270a6251d5e67ea9769dea70d3035801bd141d7f49"
        },
        "pre": {
            "0x4e79bc2cd8a7eb5b08159b6d1c42d2b768d9fefd": {
                "nonce": "0x01",
                "balance": "0x01",
                "code": "0x32ff",
                "storage": {}
            },
            "0x8efc5703232bdedd935b8c5723760398fbae28a6": {
                "nonce": "0x01",
                "balance": "0x00",
                "code": "0x734e79bc2cd8a7eb5b08159b6d1c42d2b768d9fefd3f600055734e79bc2cd8a7eb5b08159b6d1c42d2b768d9fefd3b6001556000600052600260006000734e79bc2cd8a7eb5b08159b6d1c42d2b768d9fefd3c60005160025560006000600060006000734e79bc2cd8a7eb5b08159b6d1c42d2b768d9fefd620186a0f150734e79bc2cd8a7eb5b08159b6d1c42d2b768d9fefd3f600355734e79bc2cd8a7eb5b08159b6d1c42d2b768d9fefd3b6004556000600052600260006000734e79bc2cd8a7eb5b08159b6d1c42d2b768d9fefd3c600051600555",
                "storage": {}
            },
            "0x1ad9bc24818784172ff393bb6f89f094d4d2ca29": {
                "nonce": "0x00",
                "balance": "0x3635c9adc5dea00000",
                "code": "0x",
                "storage": {}
            }
        },
        "postState": {
            "0x8efc5703232bdedd935b8c5723760398fbae28a6": {
                "nonce": "0x01",
                "balance": "0x00",
                "code": "0x734e79bc2cd8a7eb5b08159b6d1c42d2b768d9fefd3f600055734e79bc2cd8a7eb5b08159b6d1c42d2b768d9fefd3b6001556000600052600260006000734e79bc2cd8a7eb5b08159b6d1c42d2b768d9fefd3c60005160025560006000600060006000734e79bc2cd8a7eb5b08159b6d1c42d2b768d9fefd620186a0f150734e79bc2cd8a7eb5b08159b6d1c42d2b768d9fefd3f600355734e79bc2cd8a7eb5b08159b6d1c42d2b768d9fefd3b6004556000600052600260006000734e79bc2cd8a7eb5b08159b6d1c42d2b768d9fefd3c600051600555",
                "storage": {
                    "0x00": "0x3a6ca0f2fdba9798ec7350fb5106f9dd4102ec04a5cbd39ec60cd921c3d7af06",
                    "0x01": "0x02",
                    "0x02": "0x32ff000000000000000000000000000000000000000000000000000000000000",
                    "0x03": "0x3a6ca0f2fdba9798ec7350fb5106f9dd4102ec04a5cbd39ec60cd921c3d7af06",
                    "0x04": "0x02",
                    "0x05": "0x32ff000000000000000000000000000000000000000000000000000000000000"
                }
            },
            "0x1ad9bc24818784172ff393bb6f89f094d4d2ca29": {
                "nonce": "0x01",
                "balance": "0x3635c9adc5de8cb5cd",
                "code": "0x",
                "storage": {}
            },
            "0x2adc25665018aa1fe0e6bc666dac8fc2697ff9ba": {
                "nonce": "0x00",
                "balance": "0x1bc16d674edb4a34",
                "code": "0x",
                "storage": {}
            }
        },
        "lastblockhash": "0xa0bb380b22ae1c6566d68a1d80d9a92b46d16f8acb0c4579f716bc619a6acf94",
        "config": {
            "network": "ConstantinopleFix",
            "chainid": "0x01"
        },
        "genesisRLP": "0xf901f9f901f4a00000000000000000000000000000000000000000000000000000000000000000a01dcc4de8dec75d7aab85b567b6ccd41ad312451b948a7413f0a142fd40d49347940000000000000000000000000000000000000000a050d8a7f925a9486e8a2ccc79a1f18840768e39609d7f105a415fddcdf286a107a056e81f171bcc55a6ff8345e692c0f86e5b48e01b996cadc001622fb5e363b421a056e81f171bcc55a6ff8345e692c0f86e5b48e01b996cadc001622fb5e363b421b901000000000000000000000000000000000000000000000000000000000000000000000000000000000000000000000000000000000000000000000000000000000000000000000000000000000000000000000000000000000000000000000000000000000000000000000000000000000000000000000000000000000000000000000000000000000000000000000000000000000000000000000000000000000000000000000000000000000000000000000000000000000000000000000000000000000000000000000000000000000000000000000000000000000000000000000000000000000000000000000000000000000000000000000000000000000083020000808407270e00808000a00000000000000000000000000000000000000000000000000000000000000000880000000000000000c0c0",
        "blocks": [
            {
                "blockHeader": {
                    "parentHash": "0x62ddabd6dfea63a99761ca270a6251d5e67ea9769dea70d3035801bd141d7f49",
                    "uncleHash": "0x1dcc4de8dec75d7aab85b567b6ccd41ad312451b948a7413f0a142fd40d49347",
                    "coinbase": "0x2adc25665018aa1fe0e6bc666dac8fc2697ff9ba",
                    "stateRoot": "0x95c82ce94117b5ca324d14b10be262b01118bab2893f5492d78a068fdd3f3958",
                    "transactionsTrie": "0x6cfeb4f3fb95c49100689631bc8145a1603fbd1132bbfb9bdad38239a6f34200",
                    "receiptTrie": "0x7d2952474316b404826ed23816859f60735c8f9010e0d1a43c3995c8bf97c55c",
                    "bloom": "0x00000000000000000000000000000000000000000000000000000000000000000000000000000000000000000000000000000000000000000000000000000000000000000000000000000000000000000000000000000000000000000000000000000000000000000000000000000000000000000000000000000000000000000000000000000000000000000000000000000000000000000000000000000000000000000000000000000000000000000000000000000000000000000000000000000000000000000000000000000000000000000000000000000000000000000000000000000000000000000000000000000000000000000000000000000000",
                    "difficulty": "0x020000",
                    "number": "0x01",
                    "gasLimit": "0x07270e00",
                    "gasUsed": "0x01edd2",
                    "timestamp": "0x03e8",
                    "extraData": "0x00",
                    "mixHash": "0x0000000000000000000000000000000000000000000000000000000000000000",
                    "nonce": "0x0000000000000000",
                    "hash": "0xa0bb380b22ae1c6566d68a1d80d9a92b46d16f8acb0c4579f716bc619a6acf94"
                },
                "transactions": [
                    {
                        "type": "0x00",
                        "chainId": "0x01",
                        "nonce": "0x00",
                        "gasPrice": "0x0a",
                        "gasLimit": "0x0f4240",
                        "to": "0x8efc5703232bdedd935b8c5723760398fbae28a6",
                        "value": "0x00",
                        "data": "0x",
                        "v": "0x25",
                        "r": "0x205b8aaff6fd0d37f0a9861ebfca2eb75527bbbb9d22a2e3f67cffd553ffd697",
                        "s": "0x26542725f3fe9fcc55bb4542d7320c50c300ce11a36a75529deceff58d873d6f",
                        "sender": "0x1ad9bc24818784172ff393bb6f89f094d4d2ca29"
                    }
                ],
                "uncleHeaders": [],
                "receipts": [
                    {
                        "transactionHash": "0xb046db43ebc8aa503d2634d9fabf1b0d9fbc357bfb401b784da9e2b98375f3d7",
                        "type": "0x00",
                        "cumulativeGasUsed": "0x01edd2",
                        "bloom": "0x00000000000000000000000000000000000000000000000000000000000000000000000000000000000000000000000000000000000000000000000000000000000000000000000000000000000000000000000000000000000000000000000000000000000000000000000000000000000000000000000000000000000000000000000000000000000000000000000000000000000000000000000000000000000000000000000000000000000000000000000000000000000000000000000000000000000000000000000000000000000000000000000000000000000000000000000000000000000000000000000000000000000000000000000000000000",
                        "logs": [],
                        "status": true,
                        "rlp": "0xf90109018301edd2b9010000000000000000000000000000000000000000000000000000000000000000000000000000000000000000000000000000000000000000000000000000000000000000000000000000000000000000000000000000000000000000000000000000000000000000000000000000000000000000000000000000000000000000000000000000000000000000000000000000000000000000000000000000000000000000000000000000000000000000000000000000000000000000000000000000000000000000000000000000000000000000000000000000000000000000000000000000000000000000000000000000000000000000000000000000000000c0"
                    }
                ],
                "rlp": "0xf90261f901f9a062ddabd6dfea63a99761ca270a6251d5e67ea9769dea70d3035801bd141d7f49a01dcc4de8dec75d7aab85b567b6ccd41ad312451b948a7413f0a142fd40d49347942adc25665018aa1fe0e6bc666dac8fc2697ff9baa095c82ce94117b5ca324d14b10be262b01118bab2893f5492d78a068fdd3f3958a06cfeb4f3fb95c49100689631bc8145a1603fbd1132bbfb9bdad38239a6f34200a07d2952474316b404826ed23816859f60735c8f9010e0d1a43c3995c8bf97c55cb901000000000000000000000000000000000000000000000000000000000000000000000000000000000000000000000000000000000000000000000000000000000000000000000000000000000000000000000000000000000000000000000000000000000000000000000000000000000000000000000000000000000000000000000000000000000000000000000000000000000000000000000000000000000000000000000000000000000000000000000000000000000000000000000000000000000000000000000000000000000000000000000000000000000000000000000000000000000000000000000000000000000000000000000000000000000083020000018407270e008301edd28203e800a00000000000000000000000000000000000000000000000000000000000000000880000000000000000f862f860800a830f4240948efc5703232bdedd935b8c5723760398fbae28a6808025a0205b8aaff6fd0d37f0a9861ebfca2eb75527bbbb9d22a2e3f67cffd553ffd697a026542725f3fe9fcc55bb4542d7320c50c300ce11a36a75529deceff58d873d6fc0",
                "blocknumber": "1"
            }
        ],
        "sealEngine": "NoProof",
        "_info": {
            "hash": "0x8d5930c2518a0952c409b98120c35c6b6cbc42b874d1c09ee53ddf30a95eb41f",
            "fixture-format": "blockchain_test",
            "comment": "`execution-specs` generated test",
            "filling-transition-tool": "2.19.0",
            "description": "Test EXTCODEHASH/EXTCODESIZE/EXTCODECOPY before and after SELFDESTRUCT.\n\nVerifies that code hash, size, and copied code remain unchanged\nwithin the transaction after SELFDESTRUCT is triggered.\nPre-Cancun, all selfdestructed accounts are deleted. From Cancun\n(EIP-6780), only accounts created in the same transaction are\ndeleted; pre-existing accounts persist with balance drained.",
            "url": "https://github.com/ethereum/execution-specs/blob/tests-bal@v5.3.0/tests/constantinople/eip1052_extcodehash/test_extcodehash.py#L739",
            "opcode_count": {},
            "reference-spec": "https://github.com/ethereum/EIPs/blob/master/EIPS/eip-1052.md",
            "reference-spec-version": "2dcbc7ce1563e9624e137e9d447374600af876fa"
        }
    }
}