{
    "tests/constantinople/eip1052_extcodehash/test_extcodehash.py::test_extcodehash_self_in_init[fork_ConstantinopleFix-blockchain_test_from_state_test-create_opcode_CREATE2]": {
        "network": "ConstantinopleFix",
        "genesisBlockHeader": {
            "parentHash": "0x0000000000000000000000000000000000000000000000000000000000000000",
            "uncleHash": "0x1dcc4de8dec75d7aab85b567b6ccd41ad312451b948a7413f0a142fd40d49347",
            "coinbase": "0x0000000000000000000000000000000000000000",
            "stateRoot": "0x7367564407f9344a567097ea5c65182c4ecfbf6bf7158164861b712819e4b82f",
            "transactionsTrie": "0x56e81f171bcc55a6ff8345e692c0f86e5b48e01b996cadc001622fb5e363b421",
            "receiptTrie": "0x56e81f171bcc55a6ff8345e692c0f86e5b48e01b996cadc001622fb5e363b421",
            "bloom": "0x00000000000000000000000000000000000000000000000000000000000000000000000000000000000000000000000000000000000000000000000000000000000000000000000000000000000000000000000000000000000000000000000000000000000000000000000000000000000000000000000000000000000000000000000000000000000000000000000000000000000000000000000000000000000000000000000000000000000000000000000000000000000000000000000000000000000000000000000000000000000000000000000000000000000000000000000000000000000000000000000000000000000000000000000000000000",
            "difficulty": "0x020000",
            "number": "0x00",
            "gasLimit": "0x07270e00",
            "gasUsed": "0x00",
            "timestamp": "0x00",
            "extraData": "0x00",
            "mixHash": "0x0000000000000000000000000000000000000000000000000000000000000000",
            "nonce": "0x0000000000000000",
            "hash": "0x0ffc633914f4fc86943f8014805779f074f315aae22995e4344d13578da4f20a"
        },
        "pre": {
            "0xe7e37c39a88e5712fab3ebb273c4c2f90cc64a61": {
                "nonce": "0x01",
                "balance": "0x00",
                "code": "0x36600060003760003660006000f500",
                "storage": {}
            },
            "0x1ad9bc24818784172ff393bb6f89f094d4d2ca29": {
                "nonce": "0x00",
                "balance": "0x3635c9adc5dea00000",
                "code": "0x",
                "storage": {}
            }
        },
        "postState": {
            "0xe7e37c39a88e5712fab3ebb273c4c2f90cc64a61": {
                "nonce": "0x02",
                "balance": "0x00",
                "code": "0x36600060003760003660006000f500",
                "storage": {}
            },
            "0x1ad9bc24818784172ff393bb6f89f094d4d2ca29": {
                "nonce": "0x01",
                "balance": "0x3635c9adc5de93cbdc",
                "code": "0x",
                "storage": {}
            },
            "0x91349fa62e9c21deb9cf1382628ac909d3ff75f0": {
                "nonce": "0x01",
                "balance": "0x00",
                "code": "0x",
                "storage": {
                    "0x00": "0xc5d2460186f7233c927e7db2dcc703c0e500b653ca82273b7bfad8045d85a470"
                }
            },
            "0x2adc25665018aa1fe0e6bc666dac8fc2697ff9ba": {
                "nonce": "0x00",
                "balance": "0x1bc16d674ed43424",
                "code": "0x",
                "storage": {}
            }
        },
        "lastblockhash": "0xf128c9dba817e9d8c37c300eb16ff7e82ca8456e1d29e56a8d50976ba1d0e732",
        "config": {
            "network": "ConstantinopleFix",
            "chainid": "0x01"
        },
        "genesisRLP": "0xf901f9f901f4a00000000000000000000000000000000000000000000000000000000000000000a01dcc4de8dec75d7aab85b567b6ccd41ad312451b948a7413f0a142fd40d49347940000000000000000000000000000000000000000a07367564407f9344a567097ea5c65182c4ecfbf6bf7158164861b712819e4b82fa056e81f171bcc55a6ff8345e692c0f86e5b48e01b996cadc001622fb5e363b421a056e81f171bcc55a6ff8345e692c0f86e5b48e01b996cadc001622fb5e363b421b901000000000000000000000000000000000000000000000000000000000000000000000000000000000000000000000000000000000000000000000000000000000000000000000000000000000000000000000000000000000000000000000000000000000000000000000000000000000000000000000000000000000000000000000000000000000000000000000000000000000000000000000000000000000000000000000000000000000000000000000000000000000000000000000000000000000000000000000000000000000000000000000000000000000000000000000000000000000000000000000000000000000000000000000000000000000083020000808407270e00808000a00000000000000000000000000000000000000000000000000000000000000000880000000000000000c0c0",
        "blocks": [
            {
                "blockHeader": {
                    "parentHash": "0x0ffc633914f4fc86943f8014805779f074f315aae22995e4344d13578da4f20a",
                    "uncleHash": "0x1dcc4de8dec75d7aab85b567b6ccd41ad312451b948a7413f0a142fd40d49347",
                    "coinbase": "0x2adc25665018aa1fe0e6bc666dac8fc2697ff9ba",
                    "stateRoot": "0x4cd067ae6bcf71127c5c5a5147b622a31810a490b3e37e5c6ffa6a48af8c0d21",
                    "transactionsTrie": "0x53bfa0165bae71a04adf538225225c4f8ef907dcf15d4e407697d6a4520562a8",
                    "receiptTrie": "0x459264747d3b96ba42df92e8ea09b37bb6b77275870f1c7df3e57a408b9f9068",
                    "bloom": "0x00000000000000000000000000000000000000000000000000000000000000000000000000000000000000000000000000000000000000000000000000000000000000000000000000000000000000000000000000000000000000000000000000000000000000000000000000000000000000000000000000000000000000000000000000000000000000000000000000000000000000000000000000000000000000000000000000000000000000000000000000000000000000000000000000000000000000000000000000000000000000000000000000000000000000000000000000000000000000000000000000000000000000000000000000000000",
                    "difficulty": "0x020000",
                    "number": "0x01",
                    "gasLimit": "0x07270e00",
                    "gasUsed": "0x01386a",
                    "timestamp": "0x03e8",
                    "extraData": "0x00",
                    "mixHash": "0x0000000000000000000000000000000000000000000000000000000000000000",
                    "nonce": "0x0000000000000000",
                    "hash": "0xf128c9dba817e9d8c37c300eb16ff7e82ca8456e1d29e56a8d50976ba1d0e732"
                },
                "transactions": [
                    {
                        "type": "0x00",
                        "chainId": "0x01",
                        "nonce": "0x00",
                        "gasPrice": "0x0a",
                        "gasLimit": "0x061a80",
                        "to": "0xe7e37c39a88e5712fab3ebb273c4c2f90cc64a61",
                        "value": "0x00",
                        "data": "0x303f600055303b60015560006000f3",
                        "v": "0x26",
                        "r": "0x6f364d5ab645d82e0ff10804060b392d7401b616e924c3dfc91655e65567c28c",
                        "s": "0x56b405d7d9aebc3b36b8da68a7211de49f0a9db4b9db37dece150fbb2b02e6b2",
                        "sender": "0x1ad9bc24818784172ff393bb6f89f094d4d2ca29"
                    }
                ],
                "uncleHeaders": [],
                "receipts": [
                    {
                        "transactionHash": "0xedfbe6d87589df0587b90a1b850471033329f819e1ae7f8cf47d173bdef7d4e5",
                        "type": "0x00",
                        "cumulativeGasUsed": "0x01386a",
                        "bloom": "0x00000000000000000000000000000000000000000000000000000000000000000000000000000000000000000000000000000000000000000000000000000000000000000000000000000000000000000000000000000000000000000000000000000000000000000000000000000000000000000000000000000000000000000000000000000000000000000000000000000000000000000000000000000000000000000000000000000000000000000000000000000000000000000000000000000000000000000000000000000000000000000000000000000000000000000000000000000000000000000000000000000000000000000000000000000000",
                        "logs": [],
                        "status": true,
                        "rlp": "0xf90109018301386ab9010000000000000000000000000000000000000000000000000000000000000000000000000000000000000000000000000000000000000000000000000000000000000000000000000000000000000000000000000000000000000000000000000000000000000000000000000000000000000000000000000000000000000000000000000000000000000000000000000000000000000000000000000000000000000000000000000000000000000000000000000000000000000000000000000000000000000000000000000000000000000000000000000000000000000000000000000000000000000000000000000000000000000000000000000000000000c0"
                    }
                ],
                "rlp": "0xf90270f901f9a00ffc633914f4fc86943f8014805779f074f315aae22995e4344d13578da4f20aa01dcc4de8dec75d7aab85b567b6ccd41ad312451b948a7413f0a142fd40d49347942adc25665018aa1fe0e6bc666dac8fc2697ff9baa04cd067ae6bcf71127c5c5a5147b622a31810a490b3e37e5c6ffa6a48af8c0d21a053bfa0165bae71a04adf538225225c4f8ef907dcf15d4e407697d6a4520562a8a0459264747d3b96ba42df92e8ea09b37bb6b77275870f1c7df3e57a408b9f9068b901000000000000000000000000000000000000000000000000000000000000000000000000000000000000000000000000000000000000000000000000000000000000000000000000000000000000000000000000000000000000000000000000000000000000000000000000000000000000000000000000000000000000000000000000000000000000000000000000000000000000000000000000000000000000000000000000000000000000000000000000000000000000000000000000000000000000000000000000000000000000000000000000000000000000000000000000000000000000000000000000000000000000000000000000000000000083020000018407270e008301386a8203e800a00000000000000000000000000000000000000000000000000000000000000000880000000000000000f871f86f800a83061a8094e7e37c39a88e5712fab3ebb273c4c2f90cc64a61808f303f600055303b60015560006000f326a06f364d5ab645d82e0ff10804060b392d7401b616e924c3dfc91655e65567c28ca056b405d7d9aebc3b36b8da68a7211de49f0a9db4b9db37dece150fbb2b02e6b2c0",
                "blocknumber": "1"
            }
        ],
        "sealEngine": "NoProof",
        "_info": {
            "hash": "0xccb0336ada296b437ab4ebf1bab4654f9c17a24cc723670570703e1e86329c16",
            "fixture-format": "blockchain_test",
            "comment": "`execution-specs` generated test",
            "filling-transition-tool": "2.19.0",
            "description": "Test EXTCODEHASH/EXTCODESIZE of self during init code.\n\nDuring init code execution the account exists but has no code yet,\nso EXTCODEHASH(ADDRESS) returns keccak256(\"\") and\nEXTCODESIZE(ADDRESS) returns 0.",
            "url": "https://github.com/ethereum/execution-specs/blob/tests-bal@v5.3.0/tests/constantinople/eip1052_extcodehash/test_extcodehash.py#L1052",
            "opcode_count": {},
            "reference-spec": "https://github.com/ethereum/EIPs/blob/master/EIPS/eip-1052.md",
            "reference-spec-version": "2dcbc7ce1563e9624e137e9d447374600af876fa"
        }
    },
    "tests/constantinople/eip1052_extcodehash/test_extcodehash.py::test_extcodehash_self_in_init[fork_ConstantinopleFix-blockchain_test_from_state_test-create_opcode_CREATE]": {
        "network": "ConstantinopleFix",
        "genesisBlockHeader": {
            "parentHash": "0x0000000000000000000000000000000000000000000000000000000000000000",
            "uncleHash": "0x1dcc4de8dec75d7aab85b567b6ccd41ad312451b948a7413f0a142fd40d49347",
            "coinbase": "0x0000000000000000000000000000000000000000",
            "stateRoot": "0x3300b4724853c9228c4fcafca907f17b155327a2a09261d22f0230c82a6d4127",
            "transactionsTrie": "0x56e81f171bcc55a6ff8345e692c0f86e5b48e01b996cadc001622fb5e363b421",
            "receiptTrie": "0x56e81f171bcc55a6ff8345e692c0f86e5b48e01b996cadc001622fb5e363b421",
            "bloom": "0x00000000000000000000000000000000000000000000000000000000000000000000000000000000000000000000000000000000000000000000000000000000000000000000000000000000000000000000000000000000000000000000000000000000000000000000000000000000000000000000000000000000000000000000000000000000000000000000000000000000000000000000000000000000000000000000000000000000000000000000000000000000000000000000000000000000000000000000000000000000000000000000000000000000000000000000000000000000000000000000000000000000000000000000000000000000",
            "difficulty": "0x020000",
            "number": "0x00",
            "gasLimit": "0x07270e00",
            "gasUsed": "0x00",
            "timestamp": "0x00",
            "extraData": "0x00",
            "mixHash": "0x0000000000000000000000000000000000000000000000000000000000000000",
            "nonce": "0x0000000000000000",
            "hash": "0xbf88d8719c432c661d3be100d737cb2589e36779e5b7f829f0d4cd39d416955b"
        },
        "pre": {
            "0x920b80d1e41446e87a14a2fe0f6b503cd91afe93": {
                "nonce": "0x01",
                "balance": "0x00",
                "code": "0x3660006000373660006000f000",
                "storage": {}
            },
            "0x1ad9bc24818784172ff393bb6f89f094d4d2ca29": {
                "nonce": "0x00",
                "balance": "0x3635c9adc5dea00000",
                "code": "0x",
                "storage": {}
            }
        },
        "postState": {
            "0x920b80d1e41446e87a14a2fe0f6b503cd91afe93": {
                "nonce": "0x02",
                "balance": "0x00",
                "code": "0x3660006000373660006000f000",
                "storage": {}
            },
            "0x1ad9bc24818784172ff393bb6f89f094d4d2ca29": {
                "nonce": "0x01",
                "balance": "0x3635c9adc5de93cc36",
                "code": "0x",
                "storage": {}
            },
            "0xe62af3f0b87739c4995bbcbac9c7f769a084ae92": {
                "nonce": "0x01",
                "balance": "0x00",
                "code": "0x",
                "storage": {
                    "0x00": "0xc5d2460186f7233c927e7db2dcc703c0e500b653ca82273b7bfad8045d85a470"
                }
            },
            "0x2adc25665018aa1fe0e6bc666dac8fc2697ff9ba": {
                "nonce": "0x00",
                "balance": "0x1bc16d674ed433ca",
                "code": "0x",
                "storage": {}
            }
        },
        "lastblockhash": "0xeacf0323241eb7fca173f8f1d8aa95c22c8e1a580d9258537bda47cb0b0c448b",
        "config": {
            "network": "ConstantinopleFix",
            "chainid": "0x01"
        },
        "genesisRLP": "0xf901f9f901f4a00000000000000000000000000000000000000000000000000000000000000000a01dcc4de8dec75d7aab85b567b6ccd41ad312451b948a7413f0a142fd40d49347940000000000000000000000000000000000000000a03300b4724853c9228c4fcafca907f17b155327a2a09261d22f0230c82a6d4127a056e81f171bcc55a6ff8345e692c0f86e5b48e01b996cadc001622fb5e363b421a056e81f171bcc55a6ff8345e692c0f86e5b48e01b996cadc001622fb5e363b421b901000000000000000000000000000000000000000000000000000000000000000000000000000000000000000000000000000000000000000000000000000000000000000000000000000000000000000000000000000000000000000000000000000000000000000000000000000000000000000000000000000000000000000000000000000000000000000000000000000000000000000000000000000000000000000000000000000000000000000000000000000000000000000000000000000000000000000000000000000000000000000000000000000000000000000000000000000000000000000000000000000000000000000000000000000000000083020000808407270e00808000a00000000000000000000000000000000000000000000000000000000000000000880000000000000000c0c0",
        "blocks": [
            {
                "blockHeader": {
                    "parentHash": "0xbf88d8719c432c661d3be100d737cb2589e36779e5b7f829f0d4cd39d416955b",
                    "uncleHash": "0x1dcc4de8dec75d7aab85b567b6ccd41ad312451b948a7413f0a142fd40d49347",
                    "coinbase": "0x2adc25665018aa1fe0e6bc666dac8fc2697ff9ba",
                    "stateRoot": "0x9e29bbc1517693b119165fedb2054805887362911bc09c4c341d0880f1b595dc",
                    "transactionsTrie": "0x7a249f3d8df7af1e514f9e0eb6407794d5123ad27010b1fe3948e74d70abd34c",
                    "receiptTrie": "0xa4324aee57df43205247952bca3e5f922f6201668fc85df616bce0a86981d8e4",
                    "bloom": "0x00000000000000000000000000000000000000000000000000000000000000000000000000000000000000000000000000000000000000000000000000000000000000000000000000000000000000000000000000000000000000000000000000000000000000000000000000000000000000000000000000000000000000000000000000000000000000000000000000000000000000000000000000000000000000000000000000000000000000000000000000000000000000000000000000000000000000000000000000000000000000000000000000000000000000000000000000000000000000000000000000000000000000000000000000000000",
                    "difficulty": "0x020000",
                    "number": "0x01",
                    "gasLimit": "0x07270e00",
                    "gasUsed": "0x013861",
                    "timestamp": "0x03e8",
                    "extraData": "0x00",
                    "mixHash": "0x0000000000000000000000000000000000000000000000000000000000000000",
                    "nonce": "0x0000000000000000",
                    "hash": "0xeacf0323241eb7fca173f8f1d8aa95c22c8e1a580d9258537bda47cb0b0c448b"
                },
                "transactions": [
                    {
                        "type": "0x00",
                        "chainId": "0x01",
                        "nonce": "0x00",
                        "gasPrice": "0x0a",
                        "gasLimit": "0x061a80",
                        "to": "0x920b80d1e41446e87a14a2fe0f6b503cd91afe93",
                        "value": "0x00",
                        "data": "0x303f600055303b60015560006000f3",
                        "v": "0x26",
                        "r": "0xa7126ee6e9e6468b89d6c92eab166eb5a26259644a324e03b653610c0d3514de",
                        "s": "0x51a30de1c4df44f7138c812cb6d4f97906c1962e95fc945709ea72b15bf16f76",
                        "sender": "0x1ad9bc24818784172ff393bb6f89f094d4d2ca29"
                    }
                ],
                "uncleHeaders": [],
                "receipts": [
                    {
                        "transactionHash": "0x74f2c825593eb048afdaa45f1d311eab8e4312e58c37d0416beaf4051d84d687",
                        "type": "0x00",
                        "cumulativeGasUsed": "0x013861",
                        "bloom": "0x00000000000000000000000000000000000000000000000000000000000000000000000000000000000000000000000000000000000000000000000000000000000000000000000000000000000000000000000000000000000000000000000000000000000000000000000000000000000000000000000000000000000000000000000000000000000000000000000000000000000000000000000000000000000000000000000000000000000000000000000000000000000000000000000000000000000000000000000000000000000000000000000000000000000000000000000000000000000000000000000000000000000000000000000000000000",
                        "logs": [],
                        "status": true,
                        "rlp": "0xf901090183013861b9010000000000000000000000000000000000000000000000000000000000000000000000000000000000000000000000000000000000000000000000000000000000000000000000000000000000000000000000000000000000000000000000000000000000000000000000000000000000000000000000000000000000000000000000000000000000000000000000000000000000000000000000000000000000000000000000000000000000000000000000000000000000000000000000000000000000000000000000000000000000000000000000000000000000000000000000000000000000000000000000000000000000000000000000000000000000c0"
                    }
                ],
                "rlp": "0xf90270f901f9a0bf88d8719c432c661d3be100d737cb2589e36779e5b7f829f0d4cd39d416955ba01dcc4de8dec75d7aab85b567b6ccd41ad312451b948a7413f0a142fd40d49347942adc25665018aa1fe0e6bc666dac8fc2697ff9baa09e29bbc1517693b119165fedb2054805887362911bc09c4c341d0880f1b595dca07a249f3d8df7af1e514f9e0eb6407794d5123ad27010b1fe3948e74d70abd34ca0a4324aee57df43205247952bca3e5f922f6201668fc85df616bce0a86981d8e4b901000000000000000000000000000000000000000000000000000000000000000000000000000000000000000000000000000000000000000000000000000000000000000000000000000000000000000000000000000000000000000000000000000000000000000000000000000000000000000000000000000000000000000000000000000000000000000000000000000000000000000000000000000000000000000000000000000000000000000000000000000000000000000000000000000000000000000000000000000000000000000000000000000000000000000000000000000000000000000000000000000000000000000000000000000000000083020000018407270e00830138618203e800a00000000000000000000000000000000000000000000000000000000000000000880000000000000000f871f86f800a83061a8094920b80d1e41446e87a14a2fe0f6b503cd91afe93808f303f600055303b60015560006000f326a0a7126ee6e9e6468b89d6c92eab166eb5a26259644a324e03b653610c0d3514dea051a30de1c4df44f7138c812cb6d4f97906c1962e95fc945709ea72b15bf16f76c0",
                "blocknumber": "1"
            }
        ],
        "sealEngine": "NoProof",
        "_info": {
            "hash": "0x332796e576ac952edf9cdf4becee2b8e8d076e5a1ed487246931d1ac86c3395b",
            "fixture-format": "blockchain_test",
            "comment": "`execution-specs` generated test",
            "filling-transition-tool": "2.19.0",
            "description": "Test EXTCODEHASH/EXTCODESIZE of self during init code.\n\nDuring init code execution the account exists but has no code yet,\nso EXTCODEHASH(ADDRESS) returns keccak256(\"\") and\nEXTCODESIZE(ADDRESS) returns 0.",
            "url": "https://github.com/ethereum/execution-specs/blob/tests-bal@v5.3.0/tests/constantinople/eip1052_extcodehash/test_extcodehash.py#L1052",
            "opcode_count": {},
            "reference-spec": "https://github.com/ethereum/EIPs/blob/master/EIPS/eip-1052.md",
            "reference-spec-version": "2dcbc7ce1563e9624e137e9d447374600af876fa"
        }
    },
    "tests/constantinople/eip1052_extcodehash/test_extcodehash.py::test_extcodehash_self_in_init[fork_ConstantinopleFix-blockchain_test_from_state_test-create_tx]": {
        "network": "ConstantinopleFix",
        "genesisBlockHeader": {
            "parentHash": "0x0000000000000000000000000000000000000000000000000000000000000000",
            "uncleHash": "0x1dcc4de8dec75d7aab85b567b6ccd41ad312451b948a7413f0a142fd40d49347",
            "coinbase": "0x0000000000000000000000000000000000000000",
            "stateRoot": "0x4b555d9d75fa8b4e5f0bec2ff06c8fca800d261b6840bc7a516ab1c6282999a9",
            "transactionsTrie": "0x56e81f171bcc55a6ff8345e692c0f86e5b48e01b996cadc001622fb5e363b421",
            "receiptTrie": "0x56e81f171bcc55a6ff8345e692c0f86e5b48e01b996cadc001622fb5e363b421",
            "bloom": "0x00000000000000000000000000000000000000000000000000000000000000000000000000000000000000000000000000000000000000000000000000000000000000000000000000000000000000000000000000000000000000000000000000000000000000000000000000000000000000000000000000000000000000000000000000000000000000000000000000000000000000000000000000000000000000000000000000000000000000000000000000000000000000000000000000000000000000000000000000000000000000000000000000000000000000000000000000000000000000000000000000000000000000000000000000000000",
            "difficulty": "0x020000",
            "number": "0x00",
            "gasLimit": "0x07270e00",
            "gasUsed": "0x00",
            "timestamp": "0x00",
            "extraData": "0x00",
            "mixHash": "0x0000000000000000000000000000000000000000000000000000000000000000",
            "nonce": "0x0000000000000000",
            "hash": "0x86a74cabdcd962275e2a9b92d417c7a8305cb90ef1139936810bc360a639143f"
        },
        "pre": {
            "0x1ad9bc24818784172ff393bb6f89f094d4d2ca29": {
                "nonce": "0x00",
                "balance": "0x3635c9adc5dea00000",
                "code": "0x",
                "storage": {}
            }
        },
        "postState": {
            "0x1ad9bc24818784172ff393bb6f89f094d4d2ca29": {
                "nonce": "0x01",
                "balance": "0x3635c9adc5de93cd30",
                "code": "0x",
                "storage": {}
            },
            "0x36bdd8886852759e2046e3bf4c290d5c29c81d82": {
                "nonce": "0x01",
                "balance": "0x00",
                "code": "0x",
                "storage": {
                    "0x00": "0xc5d2460186f7233c927e7db2dcc703c0e500b653ca82273b7bfad8045d85a470"
                }
            },
            "0x2adc25665018aa1fe0e6bc666dac8fc2697ff9ba": {
                "nonce": "0x00",
                "balance": "0x1bc16d674ed432d0",
                "code": "0x",
                "storage": {}
            }
        },
        "lastblockhash": "0x8b20af003816965410d2ed18e589b2a01b8144960aca3adda1bbf128cd0bd471",
        "config": {
            "network": "ConstantinopleFix",
            "chainid": "0x01"
        },
        "genesisRLP": "0xf901f9f901f4a00000000000000000000000000000000000000000000000000000000000000000a01dcc4de8dec75d7aab85b567b6ccd41ad312451b948a7413f0a142fd40d49347940000000000000000000000000000000000000000a04b555d9d75fa8b4e5f0bec2ff06c8fca800d261b6840bc7a516ab1c6282999a9a056e81f171bcc55a6ff8345e692c0f86e5b48e01b996cadc001622fb5e363b421a056e81f171bcc55a6ff8345e692c0f86e5b48e01b996cadc001622fb5e363b421b901000000000000000000000000000000000000000000000000000000000000000000000000000000000000000000000000000000000000000000000000000000000000000000000000000000000000000000000000000000000000000000000000000000000000000000000000000000000000000000000000000000000000000000000000000000000000000000000000000000000000000000000000000000000000000000000000000000000000000000000000000000000000000000000000000000000000000000000000000000000000000000000000000000000000000000000000000000000000000000000000000000000000000000000000000000000083020000808407270e00808000a00000000000000000000000000000000000000000000000000000000000000000880000000000000000c0c0",
        "blocks": [
            {
                "blockHeader": {
                    "parentHash": "0x86a74cabdcd962275e2a9b92d417c7a8305cb90ef1139936810bc360a639143f",
                    "uncleHash": "0x1dcc4de8dec75d7aab85b567b6ccd41ad312451b948a7413f0a142fd40d49347",
                    "coinbase": "0x2adc25665018aa1fe0e6bc666dac8fc2697ff9ba",
                    "stateRoot": "0xb72f2d45035cd04581243d64dd9eae657de5127ad6d8b851bf7e15029c33c006",
                    "transactionsTrie": "0xbb867ed74ee9ec32d1663f247b2fe52d1d608dc00195826a327abc279285a080",
                    "receiptTrie": "0x83d62f7f8b3b44d14d0462e24bb1715b3e839bd17713e8e0e6f0e79fdc343dff",
                    "bloom": "0x00000000000000000000000000000000000000000000000000000000000000000000000000000000000000000000000000000000000000000000000000000000000000000000000000000000000000000000000000000000000000000000000000000000000000000000000000000000000000000000000000000000000000000000000000000000000000000000000000000000000000000000000000000000000000000000000000000000000000000000000000000000000000000000000000000000000000000000000000000000000000000000000000000000000000000000000000000000000000000000000000000000000000000000000000000000",
                    "difficulty": "0x020000",
                    "number": "0x01",
                    "gasLimit": "0x07270e00",
                    "gasUsed": "0x013848",
                    "timestamp": "0x03e8",
                    "extraData": "0x00",
                    "mixHash": "0x0000000000000000000000000000000000000000000000000000000000000000",
                    "nonce": "0x0000000000000000",
                    "hash": "0x8b20af003816965410d2ed18e589b2a01b8144960aca3adda1bbf128cd0bd471"
                },
                "transactions": [
                    {
                        "type": "0x00",
                        "chainId": "0x01",
                        "nonce": "0x00",
                        "gasPrice": "0x0a",
                        "gasLimit": "0x061a80",
                        "value": "0x00",
                        "data": "0x303f600055303b60015560006000f3",
                        "v": "0x26",
                        "r": "0xe43f54ba098882fb2b6f442d52465f14c105679ee0ed80d5563f14c4b1ffe248",
                        "s": "0x43189860618933bc0dc4f493d8739444afe9a6ceadabdbd9600388078436f9fe",
                        "sender": "0x1ad9bc24818784172ff393bb6f89f094d4d2ca29",
                        "to": ""
                    }
                ],
                "uncleHeaders": [],
                "receipts": [
                    {
                        "transactionHash": "0xd747faae1e05b1daeea72e5287d5662d48b025823be2dacb91865b9bd2882c6c",
                        "type": "0x00",
                        "cumulativeGasUsed": "0x013848",
                        "bloom": "0x00000000000000000000000000000000000000000000000000000000000000000000000000000000000000000000000000000000000000000000000000000000000000000000000000000000000000000000000000000000000000000000000000000000000000000000000000000000000000000000000000000000000000000000000000000000000000000000000000000000000000000000000000000000000000000000000000000000000000000000000000000000000000000000000000000000000000000000000000000000000000000000000000000000000000000000000000000000000000000000000000000000000000000000000000000000",
                        "logs": [],
                        "status": true,
                        "rlp": "0xf901090183013848b9010000000000000000000000000000000000000000000000000000000000000000000000000000000000000000000000000000000000000000000000000000000000000000000000000000000000000000000000000000000000000000000000000000000000000000000000000000000000000000000000000000000000000000000000000000000000000000000000000000000000000000000000000000000000000000000000000000000000000000000000000000000000000000000000000000000000000000000000000000000000000000000000000000000000000000000000000000000000000000000000000000000000000000000000000000000000c0"
                    }
                ],
                "rlp": "0xf9025cf901f9a086a74cabdcd962275e2a9b92d417c7a8305cb90ef1139936810bc360a639143fa01dcc4de8dec75d7aab85b567b6ccd41ad312451b948a7413f0a142fd40d49347942adc25665018aa1fe0e6bc666dac8fc2697ff9baa0b72f2d45035cd04581243d64dd9eae657de5127ad6d8b851bf7e15029c33c006a0bb867ed74ee9ec32d1663f247b2fe52d1d608dc00195826a327abc279285a080a083d62f7f8b3b44d14d0462e24bb1715b3e839bd17713e8e0e6f0e79fdc343dffb901000000000000000000000000000000000000000000000000000000000000000000000000000000000000000000000000000000000000000000000000000000000000000000000000000000000000000000000000000000000000000000000000000000000000000000000000000000000000000000000000000000000000000000000000000000000000000000000000000000000000000000000000000000000000000000000000000000000000000000000000000000000000000000000000000000000000000000000000000000000000000000000000000000000000000000000000000000000000000000000000000000000000000000000000000000000083020000018407270e00830138488203e800a00000000000000000000000000000000000000000000000000000000000000000880000000000000000f85df85b800a83061a8080808f303f600055303b60015560006000f326a0e43f54ba098882fb2b6f442d52465f14c105679ee0ed80d5563f14c4b1ffe248a043189860618933bc0dc4f493d8739444afe9a6ceadabdbd9600388078436f9fec0",
                "blocknumber": "1"
            }
        ],
        "sealEngine": "NoProof",
        "_info": {
            "hash": "0x0b659960b29ea36dfd73b3028d42d4422c2479e8e7637b485b54b2852a1a921f",
            "fixture-format": "blockchain_test",
            "comment": "`execution-specs` generated test",
            "filling-transition-tool": "2.19.0",
            "description": "Test EXTCODEHASH/EXTCODESIZE of self during init code.\n\nDuring init code execution the account exists but has no code yet,\nso EXTCODEHASH(ADDRESS) returns keccak256(\"\") and\nEXTCODESIZE(ADDRESS) returns 0.",
            "url": "https://github.com/ethereum/execution-specs/blob/tests-bal@v5.3.0/tests/constantinople/eip1052_extcodehash/test_extcodehash.py#L1052",
            "opcode_count": {},
            "reference-spec": "https://github.com/ethereum/EIPs/blob/master/EIPS/eip-1052.md",
            "reference-spec-version": "2dcbc7ce1563e9624e137e9d447374600af876fa"
        }
    }
}