{
    "tests/constantinople/eip1052_extcodehash/test_extcodehash.py::test_extcodehash_in_init_code[fork_ConstantinopleFix-blockchain_test_from_state_test-create_opcode_CREATE2]": {
        "network": "ConstantinopleFix",
        "genesisBlockHeader": {
            "parentHash": "0x0000000000000000000000000000000000000000000000000000000000000000",
            "uncleHash": "0x1dcc4de8dec75d7aab85b567b6ccd41ad312451b948a7413f0a142fd40d49347",
            "coinbase": "0x0000000000000000000000000000000000000000",
            "stateRoot": "0xa77a55f75445515a9947fd7539298e711c9cbd1a8df45eee91a5fc44ce7a4746",
            "transactionsTrie": "0x56e81f171bcc55a6ff8345e692c0f86e5b48e01b996cadc001622fb5e363b421",
            "receiptTrie": "0x56e81f171bcc55a6ff8345e692c0f86e5b48e01b996cadc001622fb5e363b421",
            "bloom": "0x00000000000000000000000000000000000000000000000000000000000000000000000000000000000000000000000000000000000000000000000000000000000000000000000000000000000000000000000000000000000000000000000000000000000000000000000000000000000000000000000000000000000000000000000000000000000000000000000000000000000000000000000000000000000000000000000000000000000000000000000000000000000000000000000000000000000000000000000000000000000000000000000000000000000000000000000000000000000000000000000000000000000000000000000000000000",
            "difficulty": "0x020000",
            "number": "0x00",
            "gasLimit": "0x07270e00",
            "gasUsed": "0x00",
            "timestamp": "0x00",
            "extraData": "0x00",
            "mixHash": "0x0000000000000000000000000000000000000000000000000000000000000000",
            "nonce": "0x0000000000000000",
            "hash": "0x461fde0142ac7e4b719a2adba003bce77f12fb59cf77b47ebe757dcef0d7e288"
        },
        "pre": {
            "0x46e4a6a4695b41c4b337c35223562e46a3029892": {
                "nonce": "0x01",
                "balance": "0x00",
                "code": "0x11223344",
                "storage": {}
            },
            "0xe7e37c39a88e5712fab3ebb273c4c2f90cc64a61": {
                "nonce": "0x01",
                "balance": "0x00",
                "code": "0x36600060003760003660006000f500",
                "storage": {}
            },
            "0x1ad9bc24818784172ff393bb6f89f094d4d2ca29": {
                "nonce": "0x00",
                "balance": "0x3635c9adc5dea00000",
                "code": "0x",
                "storage": {}
            }
        },
        "postState": {
            "0x46e4a6a4695b41c4b337c35223562e46a3029892": {
                "nonce": "0x01",
                "balance": "0x00",
                "code": "0x11223344",
                "storage": {}
            },
            "0xe7e37c39a88e5712fab3ebb273c4c2f90cc64a61": {
                "nonce": "0x02",
                "balance": "0x00",
                "code": "0x36600060003760003660006000f500",
                "storage": {}
            },
            "0x1ad9bc24818784172ff393bb6f89f094d4d2ca29": {
                "nonce": "0x01",
                "balance": "0x3635c9adc5de911720",
                "code": "0x",
                "storage": {}
            },
            "0xf2e34372bee0a04da62a021c1cdb2b82a99fb7c7": {
                "nonce": "0x01",
                "balance": "0x00",
                "code": "0x",
                "storage": {
                    "0x00": "0x36712aa4d0dd2f64a9ae6ac09555133a157c74ddf7c079a70c33e8b4bf70dd73",
                    "0x01": "0x04"
                }
            },
            "0x2adc25665018aa1fe0e6bc666dac8fc2697ff9ba": {
                "nonce": "0x00",
                "balance": "0x1bc16d674ed6e8e0",
                "code": "0x",
                "storage": {}
            }
        },
        "lastblockhash": "0xd5b2588d65083ddac88e01aa3870f82be6fdb41a2404478a9d4d14f2c34df687",
        "config": {
            "network": "ConstantinopleFix",
            "chainid": "0x01"
        },
        "genesisRLP": "0xf901f9f901f4a00000000000000000000000000000000000000000000000000000000000000000a01dcc4de8dec75d7aab85b567b6ccd41ad312451b948a7413f0a142fd40d49347940000000000000000000000000000000000000000a0a77a55f75445515a9947fd7539298e711c9cbd1a8df45eee91a5fc44ce7a4746a056e81f171bcc55a6ff8345e692c0f86e5b48e01b996cadc001622fb5e363b421a056e81f171bcc55a6ff8345e692c0f86e5b48e01b996cadc001622fb5e363b421b901000000000000000000000000000000000000000000000000000000000000000000000000000000000000000000000000000000000000000000000000000000000000000000000000000000000000000000000000000000000000000000000000000000000000000000000000000000000000000000000000000000000000000000000000000000000000000000000000000000000000000000000000000000000000000000000000000000000000000000000000000000000000000000000000000000000000000000000000000000000000000000000000000000000000000000000000000000000000000000000000000000000000000000000000000000000083020000808407270e00808000a00000000000000000000000000000000000000000000000000000000000000000880000000000000000c0c0",
        "blocks": [
            {
                "blockHeader": {
                    "parentHash": "0x461fde0142ac7e4b719a2adba003bce77f12fb59cf77b47ebe757dcef0d7e288",
                    "uncleHash": "0x1dcc4de8dec75d7aab85b567b6ccd41ad312451b948a7413f0a142fd40d49347",
                    "coinbase": "0x2adc25665018aa1fe0e6bc666dac8fc2697ff9ba",
                    "stateRoot": "0xdf4fff7be8b1f0e81328ed47899297216ea0b66d449e0ad4844e2d98b49088c6",
                    "transactionsTrie": "0x3304853dfee93cd011f70d12fea7cd48a7338b4e61d22c677bd97ad57bf2227d",
                    "receiptTrie": "0x535c4687971338d4f6e765ff7dc1d66fbc361ea24ccd2757d7af4cb173b05195",
                    "bloom": "0x00000000000000000000000000000000000000000000000000000000000000000000000000000000000000000000000000000000000000000000000000000000000000000000000000000000000000000000000000000000000000000000000000000000000000000000000000000000000000000000000000000000000000000000000000000000000000000000000000000000000000000000000000000000000000000000000000000000000000000000000000000000000000000000000000000000000000000000000000000000000000000000000000000000000000000000000000000000000000000000000000000000000000000000000000000000",
                    "difficulty": "0x020000",
                    "number": "0x01",
                    "gasLimit": "0x07270e00",
                    "gasUsed": "0x017db0",
                    "timestamp": "0x03e8",
                    "extraData": "0x00",
                    "mixHash": "0x0000000000000000000000000000000000000000000000000000000000000000",
                    "nonce": "0x0000000000000000",
                    "hash": "0xd5b2588d65083ddac88e01aa3870f82be6fdb41a2404478a9d4d14f2c34df687"
                },
                "transactions": [
                    {
                        "type": "0x00",
                        "chainId": "0x01",
                        "nonce": "0x00",
                        "gasPrice": "0x0a",
                        "gasLimit": "0x061a80",
                        "to": "0xe7e37c39a88e5712fab3ebb273c4c2f90cc64a61",
                        "value": "0x00",
                        "data": "0x7346e4a6a4695b41c4b337c35223562e46a30298923f6000557346e4a6a4695b41c4b337c35223562e46a30298923b60015560006000f3",
                        "v": "0x26",
                        "r": "0xf8bc5b340d8295d61ade7af0c98a42796430c2309b9d8c58a19173aeeac5f36d",
                        "s": "0x1f95b7d44c132b037e82e47edd59ab9bd9834249e13cbb54667459783af5b292",
                        "sender": "0x1ad9bc24818784172ff393bb6f89f094d4d2ca29"
                    }
                ],
                "uncleHeaders": [],
                "receipts": [
                    {
                        "transactionHash": "0x73e9817424d14b5973f35d645c553f42c98af12deee1bd53af557b1337258a91",
                        "type": "0x00",
                        "cumulativeGasUsed": "0x017db0",
                        "bloom": "0x00000000000000000000000000000000000000000000000000000000000000000000000000000000000000000000000000000000000000000000000000000000000000000000000000000000000000000000000000000000000000000000000000000000000000000000000000000000000000000000000000000000000000000000000000000000000000000000000000000000000000000000000000000000000000000000000000000000000000000000000000000000000000000000000000000000000000000000000000000000000000000000000000000000000000000000000000000000000000000000000000000000000000000000000000000000",
                        "logs": [],
                        "status": true,
                        "rlp": "0xf901090183017db0b9010000000000000000000000000000000000000000000000000000000000000000000000000000000000000000000000000000000000000000000000000000000000000000000000000000000000000000000000000000000000000000000000000000000000000000000000000000000000000000000000000000000000000000000000000000000000000000000000000000000000000000000000000000000000000000000000000000000000000000000000000000000000000000000000000000000000000000000000000000000000000000000000000000000000000000000000000000000000000000000000000000000000000000000000000000000000c0"
                    }
                ],
                "rlp": "0xf90298f901f9a0461fde0142ac7e4b719a2adba003bce77f12fb59cf77b47ebe757dcef0d7e288a01dcc4de8dec75d7aab85b567b6ccd41ad312451b948a7413f0a142fd40d49347942adc25665018aa1fe0e6bc666dac8fc2697ff9baa0df4fff7be8b1f0e81328ed47899297216ea0b66d449e0ad4844e2d98b49088c6a03304853dfee93cd011f70d12fea7cd48a7338b4e61d22c677bd97ad57bf2227da0535c4687971338d4f6e765ff7dc1d66fbc361ea24ccd2757d7af4cb173b05195b901000000000000000000000000000000000000000000000000000000000000000000000000000000000000000000000000000000000000000000000000000000000000000000000000000000000000000000000000000000000000000000000000000000000000000000000000000000000000000000000000000000000000000000000000000000000000000000000000000000000000000000000000000000000000000000000000000000000000000000000000000000000000000000000000000000000000000000000000000000000000000000000000000000000000000000000000000000000000000000000000000000000000000000000000000000000083020000018407270e0083017db08203e800a00000000000000000000000000000000000000000000000000000000000000000880000000000000000f899f897800a83061a8094e7e37c39a88e5712fab3ebb273c4c2f90cc64a6180b77346e4a6a4695b41c4b337c35223562e46a30298923f6000557346e4a6a4695b41c4b337c35223562e46a30298923b60015560006000f326a0f8bc5b340d8295d61ade7af0c98a42796430c2309b9d8c58a19173aeeac5f36da01f95b7d44c132b037e82e47edd59ab9bd9834249e13cbb54667459783af5b292c0",
                "blocknumber": "1"
            }
        ],
        "sealEngine": "NoProof",
        "_info": {
            "hash": "0x8b36fc8d59c573518f6f9823219537581562516a5d2b287b5535ca917bdfc9d5",
            "fixture-format": "blockchain_test",
            "comment": "`execution-specs` generated test",
            "filling-transition-tool": "2.19.0",
            "description": "Test EXTCODEHASH/EXTCODESIZE of an external account during init code.\n\nThe init code queries EXTCODEHASH and EXTCODESIZE of a pre-existing\ncontract and stores the results. With a create transaction the checks\nrun in the top-level init code; with CREATE/CREATE2 they run in a\ncontract-initiated creation.",
            "url": "https://github.com/ethereum/execution-specs/blob/tests-bal@v5.3.0/tests/constantinople/eip1052_extcodehash/test_extcodehash.py#L967",
            "opcode_count": {},
            "reference-spec": "https://github.com/ethereum/EIPs/blob/master/EIPS/eip-1052.md",
            "reference-spec-version": "2dcbc7ce1563e9624e137e9d447374600af876fa"
        }
    },
    "tests/constantinople/eip1052_extcodehash/test_extcodehash.py::test_extcodehash_in_init_code[fork_ConstantinopleFix-blockchain_test_from_state_test-create_opcode_CREATE]": {
        "network": "ConstantinopleFix",
        "genesisBlockHeader": {
            "parentHash": "0x0000000000000000000000000000000000000000000000000000000000000000",
            "uncleHash": "0x1dcc4de8dec75d7aab85b567b6ccd41ad312451b948a7413f0a142fd40d49347",
            "coinbase": "0x0000000000000000000000000000000000000000",
            "stateRoot": "0x162cd8de5876d321add945065e26977b0d1dc87fcdf078d821f5a1cba4aa08de",
            "transactionsTrie": "0x56e81f171bcc55a6ff8345e692c0f86e5b48e01b996cadc001622fb5e363b421",
            "receiptTrie": "0x56e81f171bcc55a6ff8345e692c0f86e5b48e01b996cadc001622fb5e363b421",
            "bloom": "0x00000000000000000000000000000000000000000000000000000000000000000000000000000000000000000000000000000000000000000000000000000000000000000000000000000000000000000000000000000000000000000000000000000000000000000000000000000000000000000000000000000000000000000000000000000000000000000000000000000000000000000000000000000000000000000000000000000000000000000000000000000000000000000000000000000000000000000000000000000000000000000000000000000000000000000000000000000000000000000000000000000000000000000000000000000000",
            "difficulty": "0x020000",
            "number": "0x00",
            "gasLimit": "0x07270e00",
            "gasUsed": "0x00",
            "timestamp": "0x00",
            "extraData": "0x00",
            "mixHash": "0x0000000000000000000000000000000000000000000000000000000000000000",
            "nonce": "0x0000000000000000",
            "hash": "0xb3a2148c90f5b5bbbb94c27aba6557c4f7777620530675d7c7fca711a92d0bad"
        },
        "pre": {
            "0x46e4a6a4695b41c4b337c35223562e46a3029892": {
                "nonce": "0x01",
                "balance": "0x00",
                "code": "0x11223344",
                "storage": {}
            },
            "0x920b80d1e41446e87a14a2fe0f6b503cd91afe93": {
                "nonce": "0x01",
                "balance": "0x00",
                "code": "0x3660006000373660006000f000",
                "storage": {}
            },
            "0x1ad9bc24818784172ff393bb6f89f094d4d2ca29": {
                "nonce": "0x00",
                "balance": "0x3635c9adc5dea00000",
                "code": "0x",
                "storage": {}
            }
        },
        "postState": {
            "0x46e4a6a4695b41c4b337c35223562e46a3029892": {
                "nonce": "0x01",
                "balance": "0x00",
                "code": "0x11223344",
                "storage": {}
            },
            "0x920b80d1e41446e87a14a2fe0f6b503cd91afe93": {
                "nonce": "0x02",
                "balance": "0x00",
                "code": "0x3660006000373660006000f000",
                "storage": {}
            },
            "0x1ad9bc24818784172ff393bb6f89f094d4d2ca29": {
                "nonce": "0x01",
                "balance": "0x3635c9adc5de9117b6",
                "code": "0x",
                "storage": {}
            },
            "0xe62af3f0b87739c4995bbcbac9c7f769a084ae92": {
                "nonce": "0x01",
                "balance": "0x00",
                "code": "0x",
                "storage": {
                    "0x00": "0x36712aa4d0dd2f64a9ae6ac09555133a157c74ddf7c079a70c33e8b4bf70dd73",
                    "0x01": "0x04"
                }
            },
            "0x2adc25665018aa1fe0e6bc666dac8fc2697ff9ba": {
                "nonce": "0x00",
                "balance": "0x1bc16d674ed6e84a",
                "code": "0x",
                "storage": {}
            }
        },
        "lastblockhash": "0xf0527ecf39d12b6487b0866f18569cbc4a898a0c1539e1b9cf29966968348b17",
        "config": {
            "network": "ConstantinopleFix",
            "chainid": "0x01"
        },
        "genesisRLP": "0xf901f9f901f4a00000000000000000000000000000000000000000000000000000000000000000a01dcc4de8dec75d7aab85b567b6ccd41ad312451b948a7413f0a142fd40d49347940000000000000000000000000000000000000000a0162cd8de5876d321add945065e26977b0d1dc87fcdf078d821f5a1cba4aa08dea056e81f171bcc55a6ff8345e692c0f86e5b48e01b996cadc001622fb5e363b421a056e81f171bcc55a6ff8345e692c0f86e5b48e01b996cadc001622fb5e363b421b901000000000000000000000000000000000000000000000000000000000000000000000000000000000000000000000000000000000000000000000000000000000000000000000000000000000000000000000000000000000000000000000000000000000000000000000000000000000000000000000000000000000000000000000000000000000000000000000000000000000000000000000000000000000000000000000000000000000000000000000000000000000000000000000000000000000000000000000000000000000000000000000000000000000000000000000000000000000000000000000000000000000000000000000000000000000083020000808407270e00808000a00000000000000000000000000000000000000000000000000000000000000000880000000000000000c0c0",
        "blocks": [
            {
                "blockHeader": {
                    "parentHash": "0xb3a2148c90f5b5bbbb94c27aba6557c4f7777620530675d7c7fca711a92d0bad",
                    "uncleHash": "0x1dcc4de8dec75d7aab85b567b6ccd41ad312451b948a7413f0a142fd40d49347",
                    "coinbase": "0x2adc25665018aa1fe0e6bc666dac8fc2697ff9ba",
                    "stateRoot": "0x6d0318d15718ee260d55a98230c4d20a9dae18ef7c95a73d84f5054750039703",
                    "transactionsTrie": "0x01a13d7c4246aa6f5e5943ea8271f5c61795fca6b54b10ae5c2d41c3289e185e",
                    "receiptTrie": "0xdf2a9b0554b86385458d5f57d1e1178739344b4f0baa11ca2eeecafd4fa6547a",
                    "bloom": "0x00000000000000000000000000000000000000000000000000000000000000000000000000000000000000000000000000000000000000000000000000000000000000000000000000000000000000000000000000000000000000000000000000000000000000000000000000000000000000000000000000000000000000000000000000000000000000000000000000000000000000000000000000000000000000000000000000000000000000000000000000000000000000000000000000000000000000000000000000000000000000000000000000000000000000000000000000000000000000000000000000000000000000000000000000000000",
                    "difficulty": "0x020000",
                    "number": "0x01",
                    "gasLimit": "0x07270e00",
                    "gasUsed": "0x017da1",
                    "timestamp": "0x03e8",
                    "extraData": "0x00",
                    "mixHash": "0x0000000000000000000000000000000000000000000000000000000000000000",
                    "nonce": "0x0000000000000000",
                    "hash": "0xf0527ecf39d12b6487b0866f18569cbc4a898a0c1539e1b9cf29966968348b17"
                },
                "transactions": [
                    {
                        "type": "0x00",
                        "chainId": "0x01",
                        "nonce": "0x00",
                        "gasPrice": "0x0a",
                        "gasLimit": "0x061a80",
                        "to": "0x920b80d1e41446e87a14a2fe0f6b503cd91afe93",
                        "value": "0x00",
                        "data": "0x7346e4a6a4695b41c4b337c35223562e46a30298923f6000557346e4a6a4695b41c4b337c35223562e46a30298923b60015560006000f3",
                        "v": "0x26",
                        "r": "0xd115a4344f2c340e99c3d276d60be2207322e6f437e7f3e1b8a8387730a83ee1",
                        "s": "0x2d048a44e75470141bdef27162c14bfca5af86bc747ba8f0a8f19767cf315caa",
                        "sender": "0x1ad9bc24818784172ff393bb6f89f094d4d2ca29"
                    }
                ],
                "uncleHeaders": [],
                "receipts": [
                    {
                        "transactionHash": "0xe6dcae84b2343784b903edeab5a3992e78367521165e2a92249d66b04508ba86",
                        "type": "0x00",
                        "cumulativeGasUsed": "0x017da1",
                        "bloom": "0x00000000000000000000000000000000000000000000000000000000000000000000000000000000000000000000000000000000000000000000000000000000000000000000000000000000000000000000000000000000000000000000000000000000000000000000000000000000000000000000000000000000000000000000000000000000000000000000000000000000000000000000000000000000000000000000000000000000000000000000000000000000000000000000000000000000000000000000000000000000000000000000000000000000000000000000000000000000000000000000000000000000000000000000000000000000",
                        "logs": [],
                        "status": true,
                        "rlp": "0xf901090183017da1b9010000000000000000000000000000000000000000000000000000000000000000000000000000000000000000000000000000000000000000000000000000000000000000000000000000000000000000000000000000000000000000000000000000000000000000000000000000000000000000000000000000000000000000000000000000000000000000000000000000000000000000000000000000000000000000000000000000000000000000000000000000000000000000000000000000000000000000000000000000000000000000000000000000000000000000000000000000000000000000000000000000000000000000000000000000000000c0"
                    }
                ],
                "rlp": "0xf90298f901f9a0b3a2148c90f5b5bbbb94c27aba6557c4f7777620530675d7c7fca711a92d0bada01dcc4de8dec75d7aab85b567b6ccd41ad312451b948a7413f0a142fd40d49347942adc25665018aa1fe0e6bc666dac8fc2697ff9baa06d0318d15718ee260d55a98230c4d20a9dae18ef7c95a73d84f5054750039703a001a13d7c4246aa6f5e5943ea8271f5c61795fca6b54b10ae5c2d41c3289e185ea0df2a9b0554b86385458d5f57d1e1178739344b4f0baa11ca2eeecafd4fa6547ab901000000000000000000000000000000000000000000000000000000000000000000000000000000000000000000000000000000000000000000000000000000000000000000000000000000000000000000000000000000000000000000000000000000000000000000000000000000000000000000000000000000000000000000000000000000000000000000000000000000000000000000000000000000000000000000000000000000000000000000000000000000000000000000000000000000000000000000000000000000000000000000000000000000000000000000000000000000000000000000000000000000000000000000000000000000000083020000018407270e0083017da18203e800a00000000000000000000000000000000000000000000000000000000000000000880000000000000000f899f897800a83061a8094920b80d1e41446e87a14a2fe0f6b503cd91afe9380b77346e4a6a4695b41c4b337c35223562e46a30298923f6000557346e4a6a4695b41c4b337c35223562e46a30298923b60015560006000f326a0d115a4344f2c340e99c3d276d60be2207322e6f437e7f3e1b8a8387730a83ee1a02d048a44e75470141bdef27162c14bfca5af86bc747ba8f0a8f19767cf315caac0",
                "blocknumber": "1"
            }
        ],
        "sealEngine": "NoProof",
        "_info": {
            "hash": "0xa728552e6c9a89aa31c1336a7164bff752766d30e6500eac1cac18442bcf2318",
            "fixture-format": "blockchain_test",
            "comment": "`execution-specs` generated test",
            "filling-transition-tool": "2.19.0",
            "description": "Test EXTCODEHASH/EXTCODESIZE of an external account during init code.\n\nThe init code queries EXTCODEHASH and EXTCODESIZE of a pre-existing\ncontract and stores the results. With a create transaction the checks\nrun in the top-level init code; with CREATE/CREATE2 they run in a\ncontract-initiated creation.",
            "url": "https://github.com/ethereum/execution-specs/blob/tests-bal@v5.3.0/tests/constantinople/eip1052_extcodehash/test_extcodehash.py#L967",
            "opcode_count": {},
            "reference-spec": "https://github.com/ethereum/EIPs/blob/master/EIPS/eip-1052.md",
            "reference-spec-version": "2dcbc7ce1563e9624e137e9d447374600af876fa"
        }
    },
    "tests/constantinople/eip1052_extcodehash/test_extcodehash.py::test_extcodehash_in_init_code[fork_ConstantinopleFix-blockchain_test_from_state_test-create_tx]": {
        "network": "ConstantinopleFix",
        "genesisBlockHeader": {
            "parentHash": "0x0000000000000000000000000000000000000000000000000000000000000000",
            "uncleHash": "0x1dcc4de8dec75d7aab85b567b6ccd41ad312451b948a7413f0a142fd40d49347",
            "coinbase": "0x0000000000000000000000000000000000000000",
            "stateRoot": "0x3067fca27a35a6e460a89ca559ab39a219a8adda826254aa5b0724ff39004518",
            "transactionsTrie": "0x56e81f171bcc55a6ff8345e692c0f86e5b48e01b996cadc001622fb5e363b421",
            "receiptTrie": "0x56e81f171bcc55a6ff8345e692c0f86e5b48e01b996cadc001622fb5e363b421",
            "bloom": "0x00000000000000000000000000000000000000000000000000000000000000000000000000000000000000000000000000000000000000000000000000000000000000000000000000000000000000000000000000000000000000000000000000000000000000000000000000000000000000000000000000000000000000000000000000000000000000000000000000000000000000000000000000000000000000000000000000000000000000000000000000000000000000000000000000000000000000000000000000000000000000000000000000000000000000000000000000000000000000000000000000000000000000000000000000000000",
            "difficulty": "0x020000",
            "number": "0x00",
            "gasLimit": "0x07270e00",
            "gasUsed": "0x00",
            "timestamp": "0x00",
            "extraData": "0x00",
            "mixHash": "0x0000000000000000000000000000000000000000000000000000000000000000",
            "nonce": "0x0000000000000000",
            "hash": "0x54b8c3d6c9da1b2e5d57a1826f881912cf658b433293d7d17b0b8dacd5933b3d"
        },
        "pre": {
            "0x46e4a6a4695b41c4b337c35223562e46a3029892": {
                "nonce": "0x01",
                "balance": "0x00",
                "code": "0x11223344",
                "storage": {}
            },
            "0x1ad9bc24818784172ff393bb6f89f094d4d2ca29": {
                "nonce": "0x00",
                "balance": "0x3635c9adc5dea00000",
                "code": "0x",
                "storage": {}
            }
        },
        "postState": {
            "0x46e4a6a4695b41c4b337c35223562e46a3029892": {
                "nonce": "0x01",
                "balance": "0x00",
                "code": "0x11223344",
                "storage": {}
            },
            "0x1ad9bc24818784172ff393bb6f89f094d4d2ca29": {
                "nonce": "0x01",
                "balance": "0x3635c9adc5de9118ec",
                "code": "0x",
                "storage": {}
            },
            "0x36bdd8886852759e2046e3bf4c290d5c29c81d82": {
                "nonce": "0x01",
                "balance": "0x00",
                "code": "0x",
                "storage": {
                    "0x00": "0x36712aa4d0dd2f64a9ae6ac09555133a157c74ddf7c079a70c33e8b4bf70dd73",
                    "0x01": "0x04"
                }
            },
            "0x2adc25665018aa1fe0e6bc666dac8fc2697ff9ba": {
                "nonce": "0x00",
                "balance": "0x1bc16d674ed6e714",
                "code": "0x",
                "storage": {}
            }
        },
        "lastblockhash": "0xab9a1f60a199c0443c578f590053cc71b2f3b6e43dde8bfdcdd85e6efde8d655",
        "config": {
            "network": "ConstantinopleFix",
            "chainid": "0x01"
        },
        "genesisRLP": "0xf901f9f901f4a00000000000000000000000000000000000000000000000000000000000000000a01dcc4de8dec75d7aab85b567b6ccd41ad312451b948a7413f0a142fd40d49347940000000000000000000000000000000000000000a03067fca27a35a6e460a89ca559ab39a219a8adda826254aa5b0724ff39004518a056e81f171bcc55a6ff8345e692c0f86e5b48e01b996cadc001622fb5e363b421a056e81f171bcc55a6ff8345e692c0f86e5b48e01b996cadc001622fb5e363b421b901000000000000000000000000000000000000000000000000000000000000000000000000000000000000000000000000000000000000000000000000000000000000000000000000000000000000000000000000000000000000000000000000000000000000000000000000000000000000000000000000000000000000000000000000000000000000000000000000000000000000000000000000000000000000000000000000000000000000000000000000000000000000000000000000000000000000000000000000000000000000000000000000000000000000000000000000000000000000000000000000000000000000000000000000000000000083020000808407270e00808000a00000000000000000000000000000000000000000000000000000000000000000880000000000000000c0c0",
        "blocks": [
            {
                "blockHeader": {
                    "parentHash": "0x54b8c3d6c9da1b2e5d57a1826f881912cf658b433293d7d17b0b8dacd5933b3d",
                    "uncleHash": "0x1dcc4de8dec75d7aab85b567b6ccd41ad312451b948a7413f0a142fd40d49347",
                    "coinbase": "0x2adc25665018aa1fe0e6bc666dac8fc2697ff9ba",
                    "stateRoot": "0x6d9d70643d847a56d906940f0a964e6e98df2f8ca35357feda28c08746243939",
                    "transactionsTrie": "0x6671d35d4edfbaae0e28f28d5b3444b9de49ae1686cc8a6577190c3f81c20bcc",
                    "receiptTrie": "0xda2c45779c65452fe66028a4e9585106259c9e4722d4b13c895a59940a672e5b",
                    "bloom": "0x00000000000000000000000000000000000000000000000000000000000000000000000000000000000000000000000000000000000000000000000000000000000000000000000000000000000000000000000000000000000000000000000000000000000000000000000000000000000000000000000000000000000000000000000000000000000000000000000000000000000000000000000000000000000000000000000000000000000000000000000000000000000000000000000000000000000000000000000000000000000000000000000000000000000000000000000000000000000000000000000000000000000000000000000000000000",
                    "difficulty": "0x020000",
                    "number": "0x01",
                    "gasLimit": "0x07270e00",
                    "gasUsed": "0x017d82",
                    "timestamp": "0x03e8",
                    "extraData": "0x00",
                    "mixHash": "0x0000000000000000000000000000000000000000000000000000000000000000",
                    "nonce": "0x0000000000000000",
                    "hash": "0xab9a1f60a199c0443c578f590053cc71b2f3b6e43dde8bfdcdd85e6efde8d655"
                },
                "transactions": [
                    {
                        "type": "0x00",
                        "chainId": "0x01",
                        "nonce": "0x00",
                        "gasPrice": "0x0a",
                        "gasLimit": "0x061a80",
                        "value": "0x00",
                        "data": "0x7346e4a6a4695b41c4b337c35223562e46a30298923f6000557346e4a6a4695b41c4b337c35223562e46a30298923b60015560006000f3",
                        "v": "0x25",
                        "r": "0x83413cd499510c795d9203751e3d6e54187e2e710155c91f9a94ebca753ee3fc",
                        "s": "0x7d8ff02490422a156b12ab8ba1e4b1bb8201599e7772ca6f45f1b57ba7111c76",
                        "sender": "0x1ad9bc24818784172ff393bb6f89f094d4d2ca29",
                        "to": ""
                    }
                ],
                "uncleHeaders": [],
                "receipts": [
                    {
                        "transactionHash": "0x18492291bf4880bcf31ea2fba32bfdb9b8420feb998597dabb5f0b2ad3db4d7d",
                        "type": "0x00",
                        "cumulativeGasUsed": "0x017d82",
                        "bloom": "0x00000000000000000000000000000000000000000000000000000000000000000000000000000000000000000000000000000000000000000000000000000000000000000000000000000000000000000000000000000000000000000000000000000000000000000000000000000000000000000000000000000000000000000000000000000000000000000000000000000000000000000000000000000000000000000000000000000000000000000000000000000000000000000000000000000000000000000000000000000000000000000000000000000000000000000000000000000000000000000000000000000000000000000000000000000000",
                        "logs": [],
                        "status": true,
                        "rlp": "0xf901090183017d82b9010000000000000000000000000000000000000000000000000000000000000000000000000000000000000000000000000000000000000000000000000000000000000000000000000000000000000000000000000000000000000000000000000000000000000000000000000000000000000000000000000000000000000000000000000000000000000000000000000000000000000000000000000000000000000000000000000000000000000000000000000000000000000000000000000000000000000000000000000000000000000000000000000000000000000000000000000000000000000000000000000000000000000000000000000000000000c0"
                    }
                ],
                "rlp": "0xf90284f901f9a054b8c3d6c9da1b2e5d57a1826f881912cf658b433293d7d17b0b8dacd5933b3da01dcc4de8dec75d7aab85b567b6ccd41ad312451b948a7413f0a142fd40d49347942adc25665018aa1fe0e6bc666dac8fc2697ff9baa06d9d70643d847a56d906940f0a964e6e98df2f8ca35357feda28c08746243939a06671d35d4edfbaae0e28f28d5b3444b9de49ae1686cc8a6577190c3f81c20bcca0da2c45779c65452fe66028a4e9585106259c9e4722d4b13c895a59940a672e5bb901000000000000000000000000000000000000000000000000000000000000000000000000000000000000000000000000000000000000000000000000000000000000000000000000000000000000000000000000000000000000000000000000000000000000000000000000000000000000000000000000000000000000000000000000000000000000000000000000000000000000000000000000000000000000000000000000000000000000000000000000000000000000000000000000000000000000000000000000000000000000000000000000000000000000000000000000000000000000000000000000000000000000000000000000000000000083020000018407270e0083017d828203e800a00000000000000000000000000000000000000000000000000000000000000000880000000000000000f885f883800a83061a808080b77346e4a6a4695b41c4b337c35223562e46a30298923f6000557346e4a6a4695b41c4b337c35223562e46a30298923b60015560006000f325a083413cd499510c795d9203751e3d6e54187e2e710155c91f9a94ebca753ee3fca07d8ff02490422a156b12ab8ba1e4b1bb8201599e7772ca6f45f1b57ba7111c76c0",
                "blocknumber": "1"
            }
        ],
        "sealEngine": "NoProof",
        "_info": {
            "hash": "0x3d837baec8e508fd21e0d803169c11dd5afbdfb8c74e56a81fe0368d24547521",
            "fixture-format": "blockchain_test",
            "comment": "`execution-specs` generated test",
            "filling-transition-tool": "2.19.0",
            "description": "Test EXTCODEHASH/EXTCODESIZE of an external account during init code.\n\nThe init code queries EXTCODEHASH and EXTCODESIZE of a pre-existing\ncontract and stores the results. With a create transaction the checks\nrun in the top-level init code; with CREATE/CREATE2 they run in a\ncontract-initiated creation.",
            "url": "https://github.com/ethereum/execution-specs/blob/tests-bal@v5.3.0/tests/constantinople/eip1052_extcodehash/test_extcodehash.py#L967",
            "opcode_count": {},
            "reference-spec": "https://github.com/ethereum/EIPs/blob/master/EIPS/eip-1052.md",
            "reference-spec-version": "2dcbc7ce1563e9624e137e9d447374600af876fa"
        }
    }
}