{
    "tests/constantinople/eip1052_extcodehash/test_extcodehash.py::test_extcodehash_call_to_selfdestruct[fork_Berlin-call_opcode_CALL-blockchain_test_from_state_test]": {
        "network": "Berlin",
        "genesisBlockHeader": {
            "parentHash": "0x0000000000000000000000000000000000000000000000000000000000000000",
            "uncleHash": "0x1dcc4de8dec75d7aab85b567b6ccd41ad312451b948a7413f0a142fd40d49347",
            "coinbase": "0x0000000000000000000000000000000000000000",
            "stateRoot": "0x78a3845afb7586432113a517308dc26be952cf484d3db716646296dcd8c77ede",
            "transactionsTrie": "0x56e81f171bcc55a6ff8345e692c0f86e5b48e01b996cadc001622fb5e363b421",
            "receiptTrie": "0x56e81f171bcc55a6ff8345e692c0f86e5b48e01b996cadc001622fb5e363b421",
            "bloom": "0x00000000000000000000000000000000000000000000000000000000000000000000000000000000000000000000000000000000000000000000000000000000000000000000000000000000000000000000000000000000000000000000000000000000000000000000000000000000000000000000000000000000000000000000000000000000000000000000000000000000000000000000000000000000000000000000000000000000000000000000000000000000000000000000000000000000000000000000000000000000000000000000000000000000000000000000000000000000000000000000000000000000000000000000000000000000",
            "difficulty": "0x020000",
            "number": "0x00",
            "gasLimit": "0x07270e00",
            "gasUsed": "0x00",
            "timestamp": "0x00",
            "extraData": "0x00",
            "mixHash": "0x0000000000000000000000000000000000000000000000000000000000000000",
            "nonce": "0x0000000000000000",
            "hash": "0x64722e50637998235838075892e5a75bd8dcd9f0ac7e7d92d9a09c52a7ffb7eb"
        },
        "pre": {
            "0x9e2d765f67baf5402618db6ce0a535982a53c6fc": {
                "nonce": "0x01",
                "balance": "0x014b230ce3",
                "code": "0x73c0f6dc9e5836f54caadbf59cc69346c508e1992bff",
                "storage": {}
            },
            "0x6dad7963db8cb45d9d98675b76bfe220984af94d": {
                "nonce": "0x01",
                "balance": "0x00",
                "code": "0x60006000600060006000739e2d765f67baf5402618db6ce0a535982a53c6fc62028488f1600055739e2d765f67baf5402618db6ce0a535982a53c6fc3f600155",
                "storage": {}
            },
            "0x1ad9bc24818784172ff393bb6f89f094d4d2ca29": {
                "nonce": "0x00",
                "balance": "0x3635c9adc5dea00000",
                "code": "0x",
                "storage": {}
            }
        },
        "postState": {
            "0x6dad7963db8cb45d9d98675b76bfe220984af94d": {
                "nonce": "0x01",
                "balance": "0x00",
                "code": "0x60006000600060006000739e2d765f67baf5402618db6ce0a535982a53c6fc62028488f1600055739e2d765f67baf5402618db6ce0a535982a53c6fc3f600155",
                "storage": {
                    "0x00": "0x01",
                    "0x01": "0x6b4ff852eddedbf436c55cddbc4c143cd2e28485c7e292175f9cc5817fc819ad"
                }
            },
            "0x1ad9bc24818784172ff393bb6f89f094d4d2ca29": {
                "nonce": "0x01",
                "balance": "0x3635c9adc5de94526e",
                "code": "0x",
                "storage": {}
            },
            "0xc0f6dc9e5836f54caadbf59cc69346c508e1992b": {
                "nonce": "0x00",
                "balance": "0x014b230ce3",
                "code": "0x",
                "storage": {}
            },
            "0x2adc25665018aa1fe0e6bc666dac8fc2697ff9ba": {
                "nonce": "0x00",
                "balance": "0x1bc16d674ed3ad92",
                "code": "0x",
                "storage": {}
            }
        },
        "lastblockhash": "0x0c7e6ff185d82d4d0a548770d9027124e06761377694a994fc197a1595836358",
        "config": {
            "network": "Berlin",
            "chainid": "0x01"
        },
        "genesisRLP": "0xf901f9f901f4a00000000000000000000000000000000000000000000000000000000000000000a01dcc4de8dec75d7aab85b567b6ccd41ad312451b948a7413f0a142fd40d49347940000000000000000000000000000000000000000a078a3845afb7586432113a517308dc26be952cf484d3db716646296dcd8c77edea056e81f171bcc55a6ff8345e692c0f86e5b48e01b996cadc001622fb5e363b421a056e81f171bcc55a6ff8345e692c0f86e5b48e01b996cadc001622fb5e363b421b901000000000000000000000000000000000000000000000000000000000000000000000000000000000000000000000000000000000000000000000000000000000000000000000000000000000000000000000000000000000000000000000000000000000000000000000000000000000000000000000000000000000000000000000000000000000000000000000000000000000000000000000000000000000000000000000000000000000000000000000000000000000000000000000000000000000000000000000000000000000000000000000000000000000000000000000000000000000000000000000000000000000000000000000000000000000083020000808407270e00808000a00000000000000000000000000000000000000000000000000000000000000000880000000000000000c0c0",
        "blocks": [
            {
                "blockHeader": {
                    "parentHash": "0x64722e50637998235838075892e5a75bd8dcd9f0ac7e7d92d9a09c52a7ffb7eb",
                    "uncleHash": "0x1dcc4de8dec75d7aab85b567b6ccd41ad312451b948a7413f0a142fd40d49347",
                    "coinbase": "0x2adc25665018aa1fe0e6bc666dac8fc2697ff9ba",
                    "stateRoot": "0xe2a3813b6c79ca50618597b2f0cf6864d45f9cc1a5430789826f04ead20645ee",
                    "transactionsTrie": "0xa74c0b1072eaedaada99e3572223014ebe9f95179db763491ab5fd5502d4edd9",
                    "receiptTrie": "0x01ca81397e02a5644e5c3fc06a01587dafd45939b92877d9554501cbb14eac79",
                    "bloom": "0x00000000000000000000000000000000000000000000000000000000000000000000000000000000000000000000000000000000000000000000000000000000000000000000000000000000000000000000000000000000000000000000000000000000000000000000000000000000000000000000000000000000000000000000000000000000000000000000000000000000000000000000000000000000000000000000000000000000000000000000000000000000000000000000000000000000000000000000000000000000000000000000000000000000000000000000000000000000000000000000000000000000000000000000000000000000",
                    "difficulty": "0x020000",
                    "number": "0x01",
                    "gasLimit": "0x07270e00",
                    "gasUsed": "0x012af5",
                    "timestamp": "0x03e8",
                    "extraData": "0x00",
                    "mixHash": "0x0000000000000000000000000000000000000000000000000000000000000000",
                    "nonce": "0x0000000000000000",
                    "hash": "0x0c7e6ff185d82d4d0a548770d9027124e06761377694a994fc197a1595836358"
                },
                "transactions": [
                    {
                        "type": "0x00",
                        "chainId": "0x01",
                        "nonce": "0x00",
                        "gasPrice": "0x0a",
                        "gasLimit": "0x0f4240",
                        "to": "0x6dad7963db8cb45d9d98675b76bfe220984af94d",
                        "value": "0x00",
                        "data": "0x",
                        "v": "0x25",
                        "r": "0xd0e43b0bf616810b63d74aa9e966527920bbaf98cef28c69feb84f8099c9c3ad",
                        "s": "0x03d00af46cb3c98404715929bfc12e49a65c2492b80ee4005ae9a7dcd92ef83c",
                        "sender": "0x1ad9bc24818784172ff393bb6f89f094d4d2ca29"
                    }
                ],
                "uncleHeaders": [],
                "receipts": [
                    {
                        "transactionHash": "0xb0d9fc6e2d260915a59a52b902167cc8f08166d9a7af239722c1f870caefd8f4",
                        "type": "0x00",
                        "cumulativeGasUsed": "0x012af5",
                        "bloom": "0x00000000000000000000000000000000000000000000000000000000000000000000000000000000000000000000000000000000000000000000000000000000000000000000000000000000000000000000000000000000000000000000000000000000000000000000000000000000000000000000000000000000000000000000000000000000000000000000000000000000000000000000000000000000000000000000000000000000000000000000000000000000000000000000000000000000000000000000000000000000000000000000000000000000000000000000000000000000000000000000000000000000000000000000000000000000",
                        "logs": [],
                        "status": true,
                        "rlp": "0xf901090183012af5b9010000000000000000000000000000000000000000000000000000000000000000000000000000000000000000000000000000000000000000000000000000000000000000000000000000000000000000000000000000000000000000000000000000000000000000000000000000000000000000000000000000000000000000000000000000000000000000000000000000000000000000000000000000000000000000000000000000000000000000000000000000000000000000000000000000000000000000000000000000000000000000000000000000000000000000000000000000000000000000000000000000000000000000000000000000000000c0"
                    }
                ],
                "rlp": "0xf90261f901f9a064722e50637998235838075892e5a75bd8dcd9f0ac7e7d92d9a09c52a7ffb7eba01dcc4de8dec75d7aab85b567b6ccd41ad312451b948a7413f0a142fd40d49347942adc25665018aa1fe0e6bc666dac8fc2697ff9baa0e2a3813b6c79ca50618597b2f0cf6864d45f9cc1a5430789826f04ead20645eea0a74c0b1072eaedaada99e3572223014ebe9f95179db763491ab5fd5502d4edd9a001ca81397e02a5644e5c3fc06a01587dafd45939b92877d9554501cbb14eac79b901000000000000000000000000000000000000000000000000000000000000000000000000000000000000000000000000000000000000000000000000000000000000000000000000000000000000000000000000000000000000000000000000000000000000000000000000000000000000000000000000000000000000000000000000000000000000000000000000000000000000000000000000000000000000000000000000000000000000000000000000000000000000000000000000000000000000000000000000000000000000000000000000000000000000000000000000000000000000000000000000000000000000000000000000000000000083020000018407270e0083012af58203e800a00000000000000000000000000000000000000000000000000000000000000000880000000000000000f862f860800a830f4240946dad7963db8cb45d9d98675b76bfe220984af94d808025a0d0e43b0bf616810b63d74aa9e966527920bbaf98cef28c69feb84f8099c9c3ada003d00af46cb3c98404715929bfc12e49a65c2492b80ee4005ae9a7dcd92ef83cc0",
                "blocknumber": "1"
            }
        ],
        "sealEngine": "NoProof",
        "_info": {
            "hash": "0xa50365272655b431352761563e3bc16fc81a6ad43a36e8b3ab977b97c6825190",
            "fixture-format": "blockchain_test",
            "comment": "`execution-specs` generated test",
            "filling-transition-tool": "2.19.0",
            "description": "Test EXTCODEHASH after calling a contract that selfdestructs.\n\nCall a contract containing SELFDESTRUCT using each call type, then\ncheck EXTCODEHASH. The hash is always returned because the check\nhappens within the same transaction. STATICCALL fails because\nSELFDESTRUCT modifies state. Pre-Cancun, CALLCODE/DELEGATECALL\nexecute SELFDESTRUCT in the caller's context, destroying the test\ncontract at end of transaction.",
            "url": "https://github.com/ethereum/execution-specs/blob/tests-bal@v5.6.1/tests/constantinople/eip1052_extcodehash/test_extcodehash.py#L1254",
            "metadata": {
                "opcode_count": {}
            },
            "reference-spec": "https://github.com/ethereum/EIPs/blob/master/EIPS/eip-1052.md",
            "reference-spec-version": "2dcbc7ce1563e9624e137e9d447374600af876fa"
        }
    },
    "tests/constantinople/eip1052_extcodehash/test_extcodehash.py::test_extcodehash_call_to_selfdestruct[fork_Berlin-call_opcode_CALLCODE-blockchain_test_from_state_test]": {
        "network": "Berlin",
        "genesisBlockHeader": {
            "parentHash": "0x0000000000000000000000000000000000000000000000000000000000000000",
            "uncleHash": "0x1dcc4de8dec75d7aab85b567b6ccd41ad312451b948a7413f0a142fd40d49347",
            "coinbase": "0x0000000000000000000000000000000000000000",
            "stateRoot": "0xdc7dfc72f4b9066b650157a2c32870ae7c48afe5f737b6c0592c5e387db68747",
            "transactionsTrie": "0x56e81f171bcc55a6ff8345e692c0f86e5b48e01b996cadc001622fb5e363b421",
            "receiptTrie": "0x56e81f171bcc55a6ff8345e692c0f86e5b48e01b996cadc001622fb5e363b421",
            "bloom": "0x00000000000000000000000000000000000000000000000000000000000000000000000000000000000000000000000000000000000000000000000000000000000000000000000000000000000000000000000000000000000000000000000000000000000000000000000000000000000000000000000000000000000000000000000000000000000000000000000000000000000000000000000000000000000000000000000000000000000000000000000000000000000000000000000000000000000000000000000000000000000000000000000000000000000000000000000000000000000000000000000000000000000000000000000000000000",
            "difficulty": "0x020000",
            "number": "0x00",
            "gasLimit": "0x07270e00",
            "gasUsed": "0x00",
            "timestamp": "0x00",
            "extraData": "0x00",
            "mixHash": "0x0000000000000000000000000000000000000000000000000000000000000000",
            "nonce": "0x0000000000000000",
            "hash": "0x92cc07e34d63fcad778826db793db6f5a881c36783773efecabe28acd976a75f"
        },
        "pre": {
            "0x9e2d765f67baf5402618db6ce0a535982a53c6fc": {
                "nonce": "0x01",
                "balance": "0x014b230ce3",
                "code": "0x73c0f6dc9e5836f54caadbf59cc69346c508e1992bff",
                "storage": {}
            },
            "0x1977c5fd811d61d5faf60cb2d9fc75a173e87049": {
                "nonce": "0x01",
                "balance": "0x00",
                "code": "0x60006000600060006000739e2d765f67baf5402618db6ce0a535982a53c6fc62028488f2600055739e2d765f67baf5402618db6ce0a535982a53c6fc3f600155",
                "storage": {}
            },
            "0x1ad9bc24818784172ff393bb6f89f094d4d2ca29": {
                "nonce": "0x00",
                "balance": "0x3635c9adc5dea00000",
                "code": "0x",
                "storage": {}
            }
        },
        "postState": {
            "0x9e2d765f67baf5402618db6ce0a535982a53c6fc": {
                "nonce": "0x01",
                "balance": "0x014b230ce3",
                "code": "0x73c0f6dc9e5836f54caadbf59cc69346c508e1992bff",
                "storage": {}
            },
            "0x1ad9bc24818784172ff393bb6f89f094d4d2ca29": {
                "nonce": "0x01",
                "balance": "0x3635c9adc5de9822fe",
                "code": "0x",
                "storage": {}
            },
            "0x2adc25665018aa1fe0e6bc666dac8fc2697ff9ba": {
                "nonce": "0x00",
                "balance": "0x1bc16d674ecfdd02",
                "code": "0x",
                "storage": {}
            }
        },
        "lastblockhash": "0x8793fbf8acbb8eca9cd5f317dbb7019ea2a556a838c3ac2648f5e084c23a6d3f",
        "config": {
            "network": "Berlin",
            "chainid": "0x01"
        },
        "genesisRLP": "0xf901f9f901f4a00000000000000000000000000000000000000000000000000000000000000000a01dcc4de8dec75d7aab85b567b6ccd41ad312451b948a7413f0a142fd40d49347940000000000000000000000000000000000000000a0dc7dfc72f4b9066b650157a2c32870ae7c48afe5f737b6c0592c5e387db68747a056e81f171bcc55a6ff8345e692c0f86e5b48e01b996cadc001622fb5e363b421a056e81f171bcc55a6ff8345e692c0f86e5b48e01b996cadc001622fb5e363b421b901000000000000000000000000000000000000000000000000000000000000000000000000000000000000000000000000000000000000000000000000000000000000000000000000000000000000000000000000000000000000000000000000000000000000000000000000000000000000000000000000000000000000000000000000000000000000000000000000000000000000000000000000000000000000000000000000000000000000000000000000000000000000000000000000000000000000000000000000000000000000000000000000000000000000000000000000000000000000000000000000000000000000000000000000000000000083020000808407270e00808000a00000000000000000000000000000000000000000000000000000000000000000880000000000000000c0c0",
        "blocks": [
            {
                "blockHeader": {
                    "parentHash": "0x92cc07e34d63fcad778826db793db6f5a881c36783773efecabe28acd976a75f",
                    "uncleHash": "0x1dcc4de8dec75d7aab85b567b6ccd41ad312451b948a7413f0a142fd40d49347",
                    "coinbase": "0x2adc25665018aa1fe0e6bc666dac8fc2697ff9ba",
                    "stateRoot": "0xdd8e280ba8fa05f532bcbea9f882b561e9e6b8665a962ec296d73636094b8e67",
                    "transactionsTrie": "0xb09f06ea04d6b10cae6c6deb92a779575c02fd02a80d6fb048b35ff64671d159",
                    "receiptTrie": "0xc03f4821a649cda90dda30e094c54960a6df34fcefba234293bcf4f608d7f7f8",
                    "bloom": "0x00000000000000000000000000000000000000000000000000000000000000000000000000000000000000000000000000000000000000000000000000000000000000000000000000000000000000000000000000000000000000000000000000000000000000000000000000000000000000000000000000000000000000000000000000000000000000000000000000000000000000000000000000000000000000000000000000000000000000000000000000000000000000000000000000000000000000000000000000000000000000000000000000000000000000000000000000000000000000000000000000000000000000000000000000000000",
                    "difficulty": "0x020000",
                    "number": "0x01",
                    "gasLimit": "0x07270e00",
                    "gasUsed": "0xc94d",
                    "timestamp": "0x03e8",
                    "extraData": "0x00",
                    "mixHash": "0x0000000000000000000000000000000000000000000000000000000000000000",
                    "nonce": "0x0000000000000000",
                    "hash": "0x8793fbf8acbb8eca9cd5f317dbb7019ea2a556a838c3ac2648f5e084c23a6d3f"
                },
                "transactions": [
                    {
                        "type": "0x00",
                        "chainId": "0x01",
                        "nonce": "0x00",
                        "gasPrice": "0x0a",
                        "gasLimit": "0x0f4240",
                        "to": "0x1977c5fd811d61d5faf60cb2d9fc75a173e87049",
                        "value": "0x00",
                        "data": "0x",
                        "v": "0x25",
                        "r": "0xe5cd9167df4428ffaa02d28d5aa3765ea4784b653d282c788bd0f43a5cd59d56",
                        "s": "0x65f377f3f63f95c0ad5589b6e62ec12cea99d7f392991eb68c1dee0a5bc6cdf2",
                        "sender": "0x1ad9bc24818784172ff393bb6f89f094d4d2ca29"
                    }
                ],
                "uncleHeaders": [],
                "receipts": [
                    {
                        "transactionHash": "0x73bfd289ef1936c9f20659d755b7c2c483fe912838c4d3aec6576507093808d9",
                        "type": "0x00",
                        "cumulativeGasUsed": "0xc94d",
                        "bloom": "0x00000000000000000000000000000000000000000000000000000000000000000000000000000000000000000000000000000000000000000000000000000000000000000000000000000000000000000000000000000000000000000000000000000000000000000000000000000000000000000000000000000000000000000000000000000000000000000000000000000000000000000000000000000000000000000000000000000000000000000000000000000000000000000000000000000000000000000000000000000000000000000000000000000000000000000000000000000000000000000000000000000000000000000000000000000000",
                        "logs": [],
                        "status": true,
                        "rlp": "0xf901080182c94db9010000000000000000000000000000000000000000000000000000000000000000000000000000000000000000000000000000000000000000000000000000000000000000000000000000000000000000000000000000000000000000000000000000000000000000000000000000000000000000000000000000000000000000000000000000000000000000000000000000000000000000000000000000000000000000000000000000000000000000000000000000000000000000000000000000000000000000000000000000000000000000000000000000000000000000000000000000000000000000000000000000000000000000000000000000000000c0"
                    }
                ],
                "rlp": "0xf90260f901f8a092cc07e34d63fcad778826db793db6f5a881c36783773efecabe28acd976a75fa01dcc4de8dec75d7aab85b567b6ccd41ad312451b948a7413f0a142fd40d49347942adc25665018aa1fe0e6bc666dac8fc2697ff9baa0dd8e280ba8fa05f532bcbea9f882b561e9e6b8665a962ec296d73636094b8e67a0b09f06ea04d6b10cae6c6deb92a779575c02fd02a80d6fb048b35ff64671d159a0c03f4821a649cda90dda30e094c54960a6df34fcefba234293bcf4f608d7f7f8b901000000000000000000000000000000000000000000000000000000000000000000000000000000000000000000000000000000000000000000000000000000000000000000000000000000000000000000000000000000000000000000000000000000000000000000000000000000000000000000000000000000000000000000000000000000000000000000000000000000000000000000000000000000000000000000000000000000000000000000000000000000000000000000000000000000000000000000000000000000000000000000000000000000000000000000000000000000000000000000000000000000000000000000000000000000000083020000018407270e0082c94d8203e800a00000000000000000000000000000000000000000000000000000000000000000880000000000000000f862f860800a830f4240941977c5fd811d61d5faf60cb2d9fc75a173e87049808025a0e5cd9167df4428ffaa02d28d5aa3765ea4784b653d282c788bd0f43a5cd59d56a065f377f3f63f95c0ad5589b6e62ec12cea99d7f392991eb68c1dee0a5bc6cdf2c0",
                "blocknumber": "1"
            }
        ],
        "sealEngine": "NoProof",
        "_info": {
            "hash": "0xf50faea435d52740ca9e900b88979e5905ef8ba3c2a5f60a0f85c55ec3f4030d",
            "fixture-format": "blockchain_test",
            "comment": "`execution-specs` generated test",
            "filling-transition-tool": "2.19.0",
            "description": "Test EXTCODEHASH after calling a contract that selfdestructs.\n\nCall a contract containing SELFDESTRUCT using each call type, then\ncheck EXTCODEHASH. The hash is always returned because the check\nhappens within the same transaction. STATICCALL fails because\nSELFDESTRUCT modifies state. Pre-Cancun, CALLCODE/DELEGATECALL\nexecute SELFDESTRUCT in the caller's context, destroying the test\ncontract at end of transaction.",
            "url": "https://github.com/ethereum/execution-specs/blob/tests-bal@v5.6.1/tests/constantinople/eip1052_extcodehash/test_extcodehash.py#L1254",
            "metadata": {
                "opcode_count": {}
            },
            "reference-spec": "https://github.com/ethereum/EIPs/blob/master/EIPS/eip-1052.md",
            "reference-spec-version": "2dcbc7ce1563e9624e137e9d447374600af876fa"
        }
    },
    "tests/constantinople/eip1052_extcodehash/test_extcodehash.py::test_extcodehash_call_to_selfdestruct[fork_Berlin-call_opcode_DELEGATECALL-blockchain_test_from_state_test]": {
        "network": "Berlin",
        "genesisBlockHeader": {
            "parentHash": "0x0000000000000000000000000000000000000000000000000000000000000000",
            "uncleHash": "0x1dcc4de8dec75d7aab85b567b6ccd41ad312451b948a7413f0a142fd40d49347",
            "coinbase": "0x0000000000000000000000000000000000000000",
            "stateRoot": "0xc29290c06ff043755c4fbab0769aa84c9da1167138cfb3498d216b4de18e15b8",
            "transactionsTrie": "0x56e81f171bcc55a6ff8345e692c0f86e5b48e01b996cadc001622fb5e363b421",
            "receiptTrie": "0x56e81f171bcc55a6ff8345e692c0f86e5b48e01b996cadc001622fb5e363b421",
            "bloom": "0x00000000000000000000000000000000000000000000000000000000000000000000000000000000000000000000000000000000000000000000000000000000000000000000000000000000000000000000000000000000000000000000000000000000000000000000000000000000000000000000000000000000000000000000000000000000000000000000000000000000000000000000000000000000000000000000000000000000000000000000000000000000000000000000000000000000000000000000000000000000000000000000000000000000000000000000000000000000000000000000000000000000000000000000000000000000",
            "difficulty": "0x020000",
            "number": "0x00",
            "gasLimit": "0x07270e00",
            "gasUsed": "0x00",
            "timestamp": "0x00",
            "extraData": "0x00",
            "mixHash": "0x0000000000000000000000000000000000000000000000000000000000000000",
            "nonce": "0x0000000000000000",
            "hash": "0x6d0449622be7a2b54c64960cf1da7daadeaed2ef2286554b8f39c7acba5f3d9f"
        },
        "pre": {
            "0x9e2d765f67baf5402618db6ce0a535982a53c6fc": {
                "nonce": "0x01",
                "balance": "0x014b230ce3",
                "code": "0x73c0f6dc9e5836f54caadbf59cc69346c508e1992bff",
                "storage": {}
            },
            "0x7b9d51726205279d2c44af47657f7e70937647fd": {
                "nonce": "0x01",
                "balance": "0x00",
                "code": "0x6000600060006000739e2d765f67baf5402618db6ce0a535982a53c6fc62028488f4600055739e2d765f67baf5402618db6ce0a535982a53c6fc3f600155",
                "storage": {}
            },
            "0x1ad9bc24818784172ff393bb6f89f094d4d2ca29": {
                "nonce": "0x00",
                "balance": "0x3635c9adc5dea00000",
                "code": "0x",
                "storage": {}
            }
        },
        "postState": {
            "0x9e2d765f67baf5402618db6ce0a535982a53c6fc": {
                "nonce": "0x01",
                "balance": "0x014b230ce3",
                "code": "0x73c0f6dc9e5836f54caadbf59cc69346c508e1992bff",
                "storage": {}
            },
            "0x1ad9bc24818784172ff393bb6f89f094d4d2ca29": {
                "nonce": "0x01",
                "balance": "0x3635c9adc5de98231c",
                "code": "0x",
                "storage": {}
            },
            "0x2adc25665018aa1fe0e6bc666dac8fc2697ff9ba": {
                "nonce": "0x00",
                "balance": "0x1bc16d674ecfdce4",
                "code": "0x",
                "storage": {}
            }
        },
        "lastblockhash": "0x01b6e32a7eeb17ee61f0ba4defe103b165b91a6a41fd5d52d93612c783eec490",
        "config": {
            "network": "Berlin",
            "chainid": "0x01"
        },
        "genesisRLP": "0xf901f9f901f4a00000000000000000000000000000000000000000000000000000000000000000a01dcc4de8dec75d7aab85b567b6ccd41ad312451b948a7413f0a142fd40d49347940000000000000000000000000000000000000000a0c29290c06ff043755c4fbab0769aa84c9da1167138cfb3498d216b4de18e15b8a056e81f171bcc55a6ff8345e692c0f86e5b48e01b996cadc001622fb5e363b421a056e81f171bcc55a6ff8345e692c0f86e5b48e01b996cadc001622fb5e363b421b901000000000000000000000000000000000000000000000000000000000000000000000000000000000000000000000000000000000000000000000000000000000000000000000000000000000000000000000000000000000000000000000000000000000000000000000000000000000000000000000000000000000000000000000000000000000000000000000000000000000000000000000000000000000000000000000000000000000000000000000000000000000000000000000000000000000000000000000000000000000000000000000000000000000000000000000000000000000000000000000000000000000000000000000000000000000083020000808407270e00808000a00000000000000000000000000000000000000000000000000000000000000000880000000000000000c0c0",
        "blocks": [
            {
                "blockHeader": {
                    "parentHash": "0x6d0449622be7a2b54c64960cf1da7daadeaed2ef2286554b8f39c7acba5f3d9f",
                    "uncleHash": "0x1dcc4de8dec75d7aab85b567b6ccd41ad312451b948a7413f0a142fd40d49347",
                    "coinbase": "0x2adc25665018aa1fe0e6bc666dac8fc2697ff9ba",
                    "stateRoot": "0x87b04bcc4b750fa6e6a6145e11f80991999348bb7c0870ac39d18a06558bed61",
                    "transactionsTrie": "0x737fe71d02f97605058d3b13255e78ff8561d4a28cd8530efb6856e3a2cffc45",
                    "receiptTrie": "0x1dbcd546a85159feec7aed813379b9e7a677aa3852109cf5609c494d3a58ca8a",
                    "bloom": "0x00000000000000000000000000000000000000000000000000000000000000000000000000000000000000000000000000000000000000000000000000000000000000000000000000000000000000000000000000000000000000000000000000000000000000000000000000000000000000000000000000000000000000000000000000000000000000000000000000000000000000000000000000000000000000000000000000000000000000000000000000000000000000000000000000000000000000000000000000000000000000000000000000000000000000000000000000000000000000000000000000000000000000000000000000000000",
                    "difficulty": "0x020000",
                    "number": "0x01",
                    "gasLimit": "0x07270e00",
                    "gasUsed": "0xc94a",
                    "timestamp": "0x03e8",
                    "extraData": "0x00",
                    "mixHash": "0x0000000000000000000000000000000000000000000000000000000000000000",
                    "nonce": "0x0000000000000000",
                    "hash": "0x01b6e32a7eeb17ee61f0ba4defe103b165b91a6a41fd5d52d93612c783eec490"
                },
                "transactions": [
                    {
                        "type": "0x00",
                        "chainId": "0x01",
                        "nonce": "0x00",
                        "gasPrice": "0x0a",
                        "gasLimit": "0x0f4240",
                        "to": "0x7b9d51726205279d2c44af47657f7e70937647fd",
                        "value": "0x00",
                        "data": "0x",
                        "v": "0x25",
                        "r": "0x885bf8ba6346e874a593d500bac6d7e3f4fe66ffabb7b2db200204a43ac33b57",
                        "s": "0x4df894f42e72cf4c4d495e4dda9e428294131d31d71472c775129304d2912c15",
                        "sender": "0x1ad9bc24818784172ff393bb6f89f094d4d2ca29"
                    }
                ],
                "uncleHeaders": [],
                "receipts": [
                    {
                        "transactionHash": "0xcf3080615d7dee0d3e76ccea2d76cc3311f6b3efe7c50b59bf8fe6dc39bea874",
                        "type": "0x00",
                        "cumulativeGasUsed": "0xc94a",
                        "bloom": "0x00000000000000000000000000000000000000000000000000000000000000000000000000000000000000000000000000000000000000000000000000000000000000000000000000000000000000000000000000000000000000000000000000000000000000000000000000000000000000000000000000000000000000000000000000000000000000000000000000000000000000000000000000000000000000000000000000000000000000000000000000000000000000000000000000000000000000000000000000000000000000000000000000000000000000000000000000000000000000000000000000000000000000000000000000000000",
                        "logs": [],
                        "status": true,
                        "rlp": "0xf901080182c94ab9010000000000000000000000000000000000000000000000000000000000000000000000000000000000000000000000000000000000000000000000000000000000000000000000000000000000000000000000000000000000000000000000000000000000000000000000000000000000000000000000000000000000000000000000000000000000000000000000000000000000000000000000000000000000000000000000000000000000000000000000000000000000000000000000000000000000000000000000000000000000000000000000000000000000000000000000000000000000000000000000000000000000000000000000000000000000c0"
                    }
                ],
                "rlp": "0xf90260f901f8a06d0449622be7a2b54c64960cf1da7daadeaed2ef2286554b8f39c7acba5f3d9fa01dcc4de8dec75d7aab85b567b6ccd41ad312451b948a7413f0a142fd40d49347942adc25665018aa1fe0e6bc666dac8fc2697ff9baa087b04bcc4b750fa6e6a6145e11f80991999348bb7c0870ac39d18a06558bed61a0737fe71d02f97605058d3b13255e78ff8561d4a28cd8530efb6856e3a2cffc45a01dbcd546a85159feec7aed813379b9e7a677aa3852109cf5609c494d3a58ca8ab901000000000000000000000000000000000000000000000000000000000000000000000000000000000000000000000000000000000000000000000000000000000000000000000000000000000000000000000000000000000000000000000000000000000000000000000000000000000000000000000000000000000000000000000000000000000000000000000000000000000000000000000000000000000000000000000000000000000000000000000000000000000000000000000000000000000000000000000000000000000000000000000000000000000000000000000000000000000000000000000000000000000000000000000000000000000083020000018407270e0082c94a8203e800a00000000000000000000000000000000000000000000000000000000000000000880000000000000000f862f860800a830f4240947b9d51726205279d2c44af47657f7e70937647fd808025a0885bf8ba6346e874a593d500bac6d7e3f4fe66ffabb7b2db200204a43ac33b57a04df894f42e72cf4c4d495e4dda9e428294131d31d71472c775129304d2912c15c0",
                "blocknumber": "1"
            }
        ],
        "sealEngine": "NoProof",
        "_info": {
            "hash": "0x620d85455a30b09638cd6abb59130ceae4195a552ab894b7e535520a1b769472",
            "fixture-format": "blockchain_test",
            "comment": "`execution-specs` generated test",
            "filling-transition-tool": "2.19.0",
            "description": "Test EXTCODEHASH after calling a contract that selfdestructs.\n\nCall a contract containing SELFDESTRUCT using each call type, then\ncheck EXTCODEHASH. The hash is always returned because the check\nhappens within the same transaction. STATICCALL fails because\nSELFDESTRUCT modifies state. Pre-Cancun, CALLCODE/DELEGATECALL\nexecute SELFDESTRUCT in the caller's context, destroying the test\ncontract at end of transaction.",
            "url": "https://github.com/ethereum/execution-specs/blob/tests-bal@v5.6.1/tests/constantinople/eip1052_extcodehash/test_extcodehash.py#L1254",
            "metadata": {
                "opcode_count": {}
            },
            "reference-spec": "https://github.com/ethereum/EIPs/blob/master/EIPS/eip-1052.md",
            "reference-spec-version": "2dcbc7ce1563e9624e137e9d447374600af876fa"
        }
    },
    "tests/constantinople/eip1052_extcodehash/test_extcodehash.py::test_extcodehash_call_to_selfdestruct[fork_Berlin-call_opcode_STATICCALL-blockchain_test_from_state_test]": {
        "network": "Berlin",
        "genesisBlockHeader": {
            "parentHash": "0x0000000000000000000000000000000000000000000000000000000000000000",
            "uncleHash": "0x1dcc4de8dec75d7aab85b567b6ccd41ad312451b948a7413f0a142fd40d49347",
            "coinbase": "0x0000000000000000000000000000000000000000",
            "stateRoot": "0xe8cb6038809e74de495e62c2cd3273ba53914ccf0a40c02dc918a8cb2e734840",
            "transactionsTrie": "0x56e81f171bcc55a6ff8345e692c0f86e5b48e01b996cadc001622fb5e363b421",
            "receiptTrie": "0x56e81f171bcc55a6ff8345e692c0f86e5b48e01b996cadc001622fb5e363b421",
            "bloom": "0x00000000000000000000000000000000000000000000000000000000000000000000000000000000000000000000000000000000000000000000000000000000000000000000000000000000000000000000000000000000000000000000000000000000000000000000000000000000000000000000000000000000000000000000000000000000000000000000000000000000000000000000000000000000000000000000000000000000000000000000000000000000000000000000000000000000000000000000000000000000000000000000000000000000000000000000000000000000000000000000000000000000000000000000000000000000",
            "difficulty": "0x020000",
            "number": "0x00",
            "gasLimit": "0x07270e00",
            "gasUsed": "0x00",
            "timestamp": "0x00",
            "extraData": "0x00",
            "mixHash": "0x0000000000000000000000000000000000000000000000000000000000000000",
            "nonce": "0x0000000000000000",
            "hash": "0x17cad4c1fee8f3fb02fc0600b41b58ca5426202d6f5c57dcbdced8642cf45355"
        },
        "pre": {
            "0x9e2d765f67baf5402618db6ce0a535982a53c6fc": {
                "nonce": "0x01",
                "balance": "0x014b230ce3",
                "code": "0x73c0f6dc9e5836f54caadbf59cc69346c508e1992bff",
                "storage": {}
            },
            "0xb014f568e0da258ad40ce710d237cccc1adc1a6e": {
                "nonce": "0x01",
                "balance": "0x00",
                "code": "0x6000600060006000739e2d765f67baf5402618db6ce0a535982a53c6fc62028488fa600055739e2d765f67baf5402618db6ce0a535982a53c6fc3f600155",
                "storage": {
                    "0x00": "0xba5e"
                }
            },
            "0x1ad9bc24818784172ff393bb6f89f094d4d2ca29": {
                "nonce": "0x00",
                "balance": "0x3635c9adc5dea00000",
                "code": "0x",
                "storage": {}
            }
        },
        "postState": {
            "0x9e2d765f67baf5402618db6ce0a535982a53c6fc": {
                "nonce": "0x01",
                "balance": "0x014b230ce3",
                "code": "0x73c0f6dc9e5836f54caadbf59cc69346c508e1992bff",
                "storage": {}
            },
            "0xb014f568e0da258ad40ce710d237cccc1adc1a6e": {
                "nonce": "0x01",
                "balance": "0x00",
                "code": "0x6000600060006000739e2d765f67baf5402618db6ce0a535982a53c6fc62028488fa600055739e2d765f67baf5402618db6ce0a535982a53c6fc3f600155",
                "storage": {
                    "0x01": "0x6b4ff852eddedbf436c55cddbc4c143cd2e28485c7e292175f9cc5817fc819ad"
                }
            },
            "0x1ad9bc24818784172ff393bb6f89f094d4d2ca29": {
                "nonce": "0x01",
                "balance": "0x3635c9adc5de815b32",
                "code": "0x",
                "storage": {}
            },
            "0x2adc25665018aa1fe0e6bc666dac8fc2697ff9ba": {
                "nonce": "0x00",
                "balance": "0x1bc16d674ee6a4ce",
                "code": "0x",
                "storage": {}
            }
        },
        "lastblockhash": "0xe2efed669a791fc90ef367cd8ea79fb67c2d32983b2812991a1ea8a9a680198d",
        "config": {
            "network": "Berlin",
            "chainid": "0x01"
        },
        "genesisRLP": "0xf901f9f901f4a00000000000000000000000000000000000000000000000000000000000000000a01dcc4de8dec75d7aab85b567b6ccd41ad312451b948a7413f0a142fd40d49347940000000000000000000000000000000000000000a0e8cb6038809e74de495e62c2cd3273ba53914ccf0a40c02dc918a8cb2e734840a056e81f171bcc55a6ff8345e692c0f86e5b48e01b996cadc001622fb5e363b421a056e81f171bcc55a6ff8345e692c0f86e5b48e01b996cadc001622fb5e363b421b901000000000000000000000000000000000000000000000000000000000000000000000000000000000000000000000000000000000000000000000000000000000000000000000000000000000000000000000000000000000000000000000000000000000000000000000000000000000000000000000000000000000000000000000000000000000000000000000000000000000000000000000000000000000000000000000000000000000000000000000000000000000000000000000000000000000000000000000000000000000000000000000000000000000000000000000000000000000000000000000000000000000000000000000000000000000083020000808407270e00808000a00000000000000000000000000000000000000000000000000000000000000000880000000000000000c0c0",
        "blocks": [
            {
                "blockHeader": {
                    "parentHash": "0x17cad4c1fee8f3fb02fc0600b41b58ca5426202d6f5c57dcbdced8642cf45355",
                    "uncleHash": "0x1dcc4de8dec75d7aab85b567b6ccd41ad312451b948a7413f0a142fd40d49347",
                    "coinbase": "0x2adc25665018aa1fe0e6bc666dac8fc2697ff9ba",
                    "stateRoot": "0xfbf67b41c508474f389331c44632502f64acd8d07b1710692f17d1c20ccb388b",
                    "transactionsTrie": "0x11dd72769f3b3f89f83b0b166343a7d4958151026575660c04f6ed8a8d0f2648",
                    "receiptTrie": "0x4ed22dabad520af84a7699c63a9a1d1b932775408174b614a7ae557b3b7bee5c",
                    "bloom": "0x00000000000000000000000000000000000000000000000000000000000000000000000000000000000000000000000000000000000000000000000000000000000000000000000000000000000000000000000000000000000000000000000000000000000000000000000000000000000000000000000000000000000000000000000000000000000000000000000000000000000000000000000000000000000000000000000000000000000000000000000000000000000000000000000000000000000000000000000000000000000000000000000000000000000000000000000000000000000000000000000000000000000000000000000000000000",
                    "difficulty": "0x020000",
                    "number": "0x01",
                    "gasLimit": "0x07270e00",
                    "gasUsed": "0x03107b",
                    "timestamp": "0x03e8",
                    "extraData": "0x00",
                    "mixHash": "0x0000000000000000000000000000000000000000000000000000000000000000",
                    "nonce": "0x0000000000000000",
                    "hash": "0xe2efed669a791fc90ef367cd8ea79fb67c2d32983b2812991a1ea8a9a680198d"
                },
                "transactions": [
                    {
                        "type": "0x00",
                        "chainId": "0x01",
                        "nonce": "0x00",
                        "gasPrice": "0x0a",
                        "gasLimit": "0x0f4240",
                        "to": "0xb014f568e0da258ad40ce710d237cccc1adc1a6e",
                        "value": "0x00",
                        "data": "0x",
                        "v": "0x25",
                        "r": "0x1f9c5a1c51cf09c4d5e385909f3aca36e7d5e81d0133c48243b07971ef76a631",
                        "s": "0x672c0407f635ae150e405cd89ae1f2aa3a7eeb3928b91a03d99493ee24ff3b0a",
                        "sender": "0x1ad9bc24818784172ff393bb6f89f094d4d2ca29"
                    }
                ],
                "uncleHeaders": [],
                "receipts": [
                    {
                        "transactionHash": "0xf60d2bfe93395ae98ba37b273c47e17a5fc1e3f0ca2a4a08c8324347b22f05e8",
                        "type": "0x00",
                        "cumulativeGasUsed": "0x03107b",
                        "bloom": "0x00000000000000000000000000000000000000000000000000000000000000000000000000000000000000000000000000000000000000000000000000000000000000000000000000000000000000000000000000000000000000000000000000000000000000000000000000000000000000000000000000000000000000000000000000000000000000000000000000000000000000000000000000000000000000000000000000000000000000000000000000000000000000000000000000000000000000000000000000000000000000000000000000000000000000000000000000000000000000000000000000000000000000000000000000000000",
                        "logs": [],
                        "status": true,
                        "rlp": "0xf90109018303107bb9010000000000000000000000000000000000000000000000000000000000000000000000000000000000000000000000000000000000000000000000000000000000000000000000000000000000000000000000000000000000000000000000000000000000000000000000000000000000000000000000000000000000000000000000000000000000000000000000000000000000000000000000000000000000000000000000000000000000000000000000000000000000000000000000000000000000000000000000000000000000000000000000000000000000000000000000000000000000000000000000000000000000000000000000000000000000c0"
                    }
                ],
                "rlp": "0xf90261f901f9a017cad4c1fee8f3fb02fc0600b41b58ca5426202d6f5c57dcbdced8642cf45355a01dcc4de8dec75d7aab85b567b6ccd41ad312451b948a7413f0a142fd40d49347942adc25665018aa1fe0e6bc666dac8fc2697ff9baa0fbf67b41c508474f389331c44632502f64acd8d07b1710692f17d1c20ccb388ba011dd72769f3b3f89f83b0b166343a7d4958151026575660c04f6ed8a8d0f2648a04ed22dabad520af84a7699c63a9a1d1b932775408174b614a7ae557b3b7bee5cb901000000000000000000000000000000000000000000000000000000000000000000000000000000000000000000000000000000000000000000000000000000000000000000000000000000000000000000000000000000000000000000000000000000000000000000000000000000000000000000000000000000000000000000000000000000000000000000000000000000000000000000000000000000000000000000000000000000000000000000000000000000000000000000000000000000000000000000000000000000000000000000000000000000000000000000000000000000000000000000000000000000000000000000000000000000000083020000018407270e008303107b8203e800a00000000000000000000000000000000000000000000000000000000000000000880000000000000000f862f860800a830f424094b014f568e0da258ad40ce710d237cccc1adc1a6e808025a01f9c5a1c51cf09c4d5e385909f3aca36e7d5e81d0133c48243b07971ef76a631a0672c0407f635ae150e405cd89ae1f2aa3a7eeb3928b91a03d99493ee24ff3b0ac0",
                "blocknumber": "1"
            }
        ],
        "sealEngine": "NoProof",
        "_info": {
            "hash": "0x656e88ed199b4a6648bfec5f27b2f48d021e910af0d60e52fcb6020e78d9c260",
            "fixture-format": "blockchain_test",
            "comment": "`execution-specs` generated test",
            "filling-transition-tool": "2.19.0",
            "description": "Test EXTCODEHASH after calling a contract that selfdestructs.\n\nCall a contract containing SELFDESTRUCT using each call type, then\ncheck EXTCODEHASH. The hash is always returned because the check\nhappens within the same transaction. STATICCALL fails because\nSELFDESTRUCT modifies state. Pre-Cancun, CALLCODE/DELEGATECALL\nexecute SELFDESTRUCT in the caller's context, destroying the test\ncontract at end of transaction.",
            "url": "https://github.com/ethereum/execution-specs/blob/tests-bal@v5.6.1/tests/constantinople/eip1052_extcodehash/test_extcodehash.py#L1254",
            "metadata": {
                "opcode_count": {}
            },
            "reference-spec": "https://github.com/ethereum/EIPs/blob/master/EIPS/eip-1052.md",
            "reference-spec-version": "2dcbc7ce1563e9624e137e9d447374600af876fa"
        }
    }
}