{
    "tests/constantinople/eip1052_extcodehash/test_extcodehash.py::test_extcodehash_changed_account[fork_Berlin-blockchain_test_from_state_test]": {
        "network": "Berlin",
        "genesisBlockHeader": {
            "parentHash": "0x0000000000000000000000000000000000000000000000000000000000000000",
            "uncleHash": "0x1dcc4de8dec75d7aab85b567b6ccd41ad312451b948a7413f0a142fd40d49347",
            "coinbase": "0x0000000000000000000000000000000000000000",
            "stateRoot": "0xd7d6b2871da201de6e8f818923876b8e18d4760d01b9df122ea3b82f5c5073f9",
            "transactionsTrie": "0x56e81f171bcc55a6ff8345e692c0f86e5b48e01b996cadc001622fb5e363b421",
            "receiptTrie": "0x56e81f171bcc55a6ff8345e692c0f86e5b48e01b996cadc001622fb5e363b421",
            "bloom": "0x00000000000000000000000000000000000000000000000000000000000000000000000000000000000000000000000000000000000000000000000000000000000000000000000000000000000000000000000000000000000000000000000000000000000000000000000000000000000000000000000000000000000000000000000000000000000000000000000000000000000000000000000000000000000000000000000000000000000000000000000000000000000000000000000000000000000000000000000000000000000000000000000000000000000000000000000000000000000000000000000000000000000000000000000000000000",
            "difficulty": "0x020000",
            "number": "0x00",
            "gasLimit": "0x07270e00",
            "gasUsed": "0x00",
            "timestamp": "0x00",
            "extraData": "0x00",
            "mixHash": "0x0000000000000000000000000000000000000000000000000000000000000000",
            "nonce": "0x0000000000000000",
            "hash": "0x6725bc902ea8db4fa3c21f20c7a1efdecf57a8dfc8d2831a0f62244e92235c9e"
        },
        "pre": {
            "0x9d8f65e06f4802a78100b82e3db472fc5f86dc2c": {
                "nonce": "0x01",
                "balance": "0x00",
                "code": "0x600060006000f0611234600055",
                "storage": {}
            },
            "0x81255ffb35d17335f1239660ea940d7e1364cb79": {
                "nonce": "0x01",
                "balance": "0x01",
                "code": "0x739d8f65e06f4802a78100b82e3db472fc5f86dc2c3f600055739d8f65e06f4802a78100b82e3db472fc5f86dc2c3b60015560006000600060006001739d8f65e06f4802a78100b82e3db472fc5f86dc2c5af150739d8f65e06f4802a78100b82e3db472fc5f86dc2c3f600255739d8f65e06f4802a78100b82e3db472fc5f86dc2c3b600355",
                "storage": {}
            },
            "0x1ad9bc24818784172ff393bb6f89f094d4d2ca29": {
                "nonce": "0x00",
                "balance": "0x3635c9adc5dea00000",
                "code": "0x",
                "storage": {}
            }
        },
        "postState": {
            "0x9d8f65e06f4802a78100b82e3db472fc5f86dc2c": {
                "nonce": "0x02",
                "balance": "0x01",
                "code": "0x600060006000f0611234600055",
                "storage": {
                    "0x00": "0x1234"
                }
            },
            "0x81255ffb35d17335f1239660ea940d7e1364cb79": {
                "nonce": "0x01",
                "balance": "0x00",
                "code": "0x739d8f65e06f4802a78100b82e3db472fc5f86dc2c3f600055739d8f65e06f4802a78100b82e3db472fc5f86dc2c3b60015560006000600060006001739d8f65e06f4802a78100b82e3db472fc5f86dc2c5af150739d8f65e06f4802a78100b82e3db472fc5f86dc2c3f600255739d8f65e06f4802a78100b82e3db472fc5f86dc2c3b600355",
                "storage": {
                    "0x00": "0xcd8af14e232454162856b58790208d5e2ed419eeca7564a98c489f1fb3a04e68",
                    "0x01": "0x0d",
                    "0x02": "0xcd8af14e232454162856b58790208d5e2ed419eeca7564a98c489f1fb3a04e68",
                    "0x03": "0x0d"
                }
            },
            "0x1ad9bc24818784172ff393bb6f89f094d4d2ca29": {
                "nonce": "0x01",
                "balance": "0x3635c9adc5de858ffe",
                "code": "0x",
                "storage": {}
            },
            "0x067c0272f525d763c0880d7c19b1a492d0d0a545": {
                "nonce": "0x01",
                "balance": "0x00",
                "code": "0x",
                "storage": {}
            },
            "0x2adc25665018aa1fe0e6bc666dac8fc2697ff9ba": {
                "nonce": "0x00",
                "balance": "0x1bc16d674ee27002",
                "code": "0x",
                "storage": {}
            }
        },
        "lastblockhash": "0x9577d9106ae7b1e2d126f12fe914b10b47d7c7f75d744614ca80794dba9f39e5",
        "config": {
            "network": "Berlin",
            "chainid": "0x01"
        },
        "genesisRLP": "0xf901f9f901f4a00000000000000000000000000000000000000000000000000000000000000000a01dcc4de8dec75d7aab85b567b6ccd41ad312451b948a7413f0a142fd40d49347940000000000000000000000000000000000000000a0d7d6b2871da201de6e8f818923876b8e18d4760d01b9df122ea3b82f5c5073f9a056e81f171bcc55a6ff8345e692c0f86e5b48e01b996cadc001622fb5e363b421a056e81f171bcc55a6ff8345e692c0f86e5b48e01b996cadc001622fb5e363b421b901000000000000000000000000000000000000000000000000000000000000000000000000000000000000000000000000000000000000000000000000000000000000000000000000000000000000000000000000000000000000000000000000000000000000000000000000000000000000000000000000000000000000000000000000000000000000000000000000000000000000000000000000000000000000000000000000000000000000000000000000000000000000000000000000000000000000000000000000000000000000000000000000000000000000000000000000000000000000000000000000000000000000000000000000000000000083020000808407270e00808000a00000000000000000000000000000000000000000000000000000000000000000880000000000000000c0c0",
        "blocks": [
            {
                "blockHeader": {
                    "parentHash": "0x6725bc902ea8db4fa3c21f20c7a1efdecf57a8dfc8d2831a0f62244e92235c9e",
                    "uncleHash": "0x1dcc4de8dec75d7aab85b567b6ccd41ad312451b948a7413f0a142fd40d49347",
                    "coinbase": "0x2adc25665018aa1fe0e6bc666dac8fc2697ff9ba",
                    "stateRoot": "0x058ef7c6f4fc1c389d6e0a5f91c66c5ce4be8fed46ab637e5830196b968a385d",
                    "transactionsTrie": "0xa3896dcfbd2ade7245e57f152258b801933d355e8fe5960500b3cd195334d5d0",
                    "receiptTrie": "0x01e2b85d0edef445ab276c633f344742001198e54274d64ccbf6dbdee9fa2949",
                    "bloom": "0x00000000000000000000000000000000000000000000000000000000000000000000000000000000000000000000000000000000000000000000000000000000000000000000000000000000000000000000000000000000000000000000000000000000000000000000000000000000000000000000000000000000000000000000000000000000000000000000000000000000000000000000000000000000000000000000000000000000000000000000000000000000000000000000000000000000000000000000000000000000000000000000000000000000000000000000000000000000000000000000000000000000000000000000000000000000",
                    "difficulty": "0x020000",
                    "number": "0x01",
                    "gasLimit": "0x07270e00",
                    "gasUsed": "0x02a4cd",
                    "timestamp": "0x03e8",
                    "extraData": "0x00",
                    "mixHash": "0x0000000000000000000000000000000000000000000000000000000000000000",
                    "nonce": "0x0000000000000000",
                    "hash": "0x9577d9106ae7b1e2d126f12fe914b10b47d7c7f75d744614ca80794dba9f39e5"
                },
                "transactions": [
                    {
                        "type": "0x00",
                        "chainId": "0x01",
                        "nonce": "0x00",
                        "gasPrice": "0x0a",
                        "gasLimit": "0x0f4240",
                        "to": "0x81255ffb35d17335f1239660ea940d7e1364cb79",
                        "value": "0x00",
                        "data": "0x",
                        "v": "0x26",
                        "r": "0xda78f5a56a883eebb294801678b3661c853c046284799b99b4bb830768903abd",
                        "s": "0x77c5f1e246b08f2402b30408597a1f99b7a59a270aa7e9d6686f360db7432d62",
                        "sender": "0x1ad9bc24818784172ff393bb6f89f094d4d2ca29"
                    }
                ],
                "uncleHeaders": [],
                "receipts": [
                    {
                        "transactionHash": "0x6b95f9683d2936253ee0fe5022fc0270e453e9fc28e69e06b9c50665fd04eec2",
                        "type": "0x00",
                        "cumulativeGasUsed": "0x02a4cd",
                        "bloom": "0x00000000000000000000000000000000000000000000000000000000000000000000000000000000000000000000000000000000000000000000000000000000000000000000000000000000000000000000000000000000000000000000000000000000000000000000000000000000000000000000000000000000000000000000000000000000000000000000000000000000000000000000000000000000000000000000000000000000000000000000000000000000000000000000000000000000000000000000000000000000000000000000000000000000000000000000000000000000000000000000000000000000000000000000000000000000",
                        "logs": [],
                        "status": true,
                        "rlp": "0xf90109018302a4cdb9010000000000000000000000000000000000000000000000000000000000000000000000000000000000000000000000000000000000000000000000000000000000000000000000000000000000000000000000000000000000000000000000000000000000000000000000000000000000000000000000000000000000000000000000000000000000000000000000000000000000000000000000000000000000000000000000000000000000000000000000000000000000000000000000000000000000000000000000000000000000000000000000000000000000000000000000000000000000000000000000000000000000000000000000000000000000c0"
                    }
                ],
                "rlp": "0xf90261f901f9a06725bc902ea8db4fa3c21f20c7a1efdecf57a8dfc8d2831a0f62244e92235c9ea01dcc4de8dec75d7aab85b567b6ccd41ad312451b948a7413f0a142fd40d49347942adc25665018aa1fe0e6bc666dac8fc2697ff9baa0058ef7c6f4fc1c389d6e0a5f91c66c5ce4be8fed46ab637e5830196b968a385da0a3896dcfbd2ade7245e57f152258b801933d355e8fe5960500b3cd195334d5d0a001e2b85d0edef445ab276c633f344742001198e54274d64ccbf6dbdee9fa2949b901000000000000000000000000000000000000000000000000000000000000000000000000000000000000000000000000000000000000000000000000000000000000000000000000000000000000000000000000000000000000000000000000000000000000000000000000000000000000000000000000000000000000000000000000000000000000000000000000000000000000000000000000000000000000000000000000000000000000000000000000000000000000000000000000000000000000000000000000000000000000000000000000000000000000000000000000000000000000000000000000000000000000000000000000000000000083020000018407270e008302a4cd8203e800a00000000000000000000000000000000000000000000000000000000000000000880000000000000000f862f860800a830f42409481255ffb35d17335f1239660ea940d7e1364cb79808026a0da78f5a56a883eebb294801678b3661c853c046284799b99b4bb830768903abda077c5f1e246b08f2402b30408597a1f99b7a59a270aa7e9d6686f360db7432d62c0",
                "blocknumber": "1"
            }
        ],
        "sealEngine": "NoProof",
        "_info": {
            "hash": "0x2e9da095a021fa5cd6beb79f4474768881e886ccd586f3d7e7608359509db811",
            "fixture-format": "blockchain_test",
            "comment": "`execution-specs` generated test",
            "filling-transition-tool": "2.19.0",
            "description": "Test EXTCODEHASH/EXTCODESIZE before and after changing account state.\n\nA secondary contract has its nonce incremented (via CREATE), balance\nincreased (via CALL value), and storage modified (via SSTORE) when\ncalled. The caller verifies that EXTCODEHASH and EXTCODESIZE return\nthe same values before and after these mutations.",
            "url": "https://github.com/ethereum/execution-specs/blob/tests-bal@v5.6.0/tests/constantinople/eip1052_extcodehash/test_extcodehash.py#L850",
            "metadata": {
                "opcode_count": {}
            },
            "reference-spec": "https://github.com/ethereum/EIPs/blob/master/EIPS/eip-1052.md",
            "reference-spec-version": "2dcbc7ce1563e9624e137e9d447374600af876fa"
        }
    }
}