{
    "tests/constantinople/eip1052_extcodehash/test_extcodehash.py::test_extcodehash_in_init_code[fork_Berlin-blockchain_test_from_state_test-create_opcode_CREATE2]": {
        "network": "Berlin",
        "genesisBlockHeader": {
            "parentHash": "0x0000000000000000000000000000000000000000000000000000000000000000",
            "uncleHash": "0x1dcc4de8dec75d7aab85b567b6ccd41ad312451b948a7413f0a142fd40d49347",
            "coinbase": "0x0000000000000000000000000000000000000000",
            "stateRoot": "0xa77a55f75445515a9947fd7539298e711c9cbd1a8df45eee91a5fc44ce7a4746",
            "transactionsTrie": "0x56e81f171bcc55a6ff8345e692c0f86e5b48e01b996cadc001622fb5e363b421",
            "receiptTrie": "0x56e81f171bcc55a6ff8345e692c0f86e5b48e01b996cadc001622fb5e363b421",
            "bloom": "0x00000000000000000000000000000000000000000000000000000000000000000000000000000000000000000000000000000000000000000000000000000000000000000000000000000000000000000000000000000000000000000000000000000000000000000000000000000000000000000000000000000000000000000000000000000000000000000000000000000000000000000000000000000000000000000000000000000000000000000000000000000000000000000000000000000000000000000000000000000000000000000000000000000000000000000000000000000000000000000000000000000000000000000000000000000000",
            "difficulty": "0x020000",
            "number": "0x00",
            "gasLimit": "0x07270e00",
            "gasUsed": "0x00",
            "timestamp": "0x00",
            "extraData": "0x00",
            "mixHash": "0x0000000000000000000000000000000000000000000000000000000000000000",
            "nonce": "0x0000000000000000",
            "hash": "0x461fde0142ac7e4b719a2adba003bce77f12fb59cf77b47ebe757dcef0d7e288"
        },
        "pre": {
            "0x46e4a6a4695b41c4b337c35223562e46a3029892": {
                "nonce": "0x01",
                "balance": "0x00",
                "code": "0x11223344",
                "storage": {}
            },
            "0xe7e37c39a88e5712fab3ebb273c4c2f90cc64a61": {
                "nonce": "0x01",
                "balance": "0x00",
                "code": "0x36600060003760003660006000f500",
                "storage": {}
            },
            "0x1ad9bc24818784172ff393bb6f89f094d4d2ca29": {
                "nonce": "0x00",
                "balance": "0x3635c9adc5dea00000",
                "code": "0x",
                "storage": {}
            }
        },
        "postState": {
            "0x46e4a6a4695b41c4b337c35223562e46a3029892": {
                "nonce": "0x01",
                "balance": "0x00",
                "code": "0x11223344",
                "storage": {}
            },
            "0xe7e37c39a88e5712fab3ebb273c4c2f90cc64a61": {
                "nonce": "0x02",
                "balance": "0x00",
                "code": "0x36600060003760003660006000f500",
                "storage": {}
            },
            "0x1ad9bc24818784172ff393bb6f89f094d4d2ca29": {
                "nonce": "0x01",
                "balance": "0x3635c9adc5de909e30",
                "code": "0x",
                "storage": {}
            },
            "0xf2e34372bee0a04da62a021c1cdb2b82a99fb7c7": {
                "nonce": "0x01",
                "balance": "0x00",
                "code": "0x",
                "storage": {
                    "0x00": "0x36712aa4d0dd2f64a9ae6ac09555133a157c74ddf7c079a70c33e8b4bf70dd73",
                    "0x01": "0x04"
                }
            },
            "0x2adc25665018aa1fe0e6bc666dac8fc2697ff9ba": {
                "nonce": "0x00",
                "balance": "0x1bc16d674ed761d0",
                "code": "0x",
                "storage": {}
            }
        },
        "lastblockhash": "0xd7677dcdcb93e02df293ddc008e86acf3c81812752334c0dd63732e2c7d693ef",
        "config": {
            "network": "Berlin",
            "chainid": "0x01"
        },
        "genesisRLP": "0xf901f9f901f4a00000000000000000000000000000000000000000000000000000000000000000a01dcc4de8dec75d7aab85b567b6ccd41ad312451b948a7413f0a142fd40d49347940000000000000000000000000000000000000000a0a77a55f75445515a9947fd7539298e711c9cbd1a8df45eee91a5fc44ce7a4746a056e81f171bcc55a6ff8345e692c0f86e5b48e01b996cadc001622fb5e363b421a056e81f171bcc55a6ff8345e692c0f86e5b48e01b996cadc001622fb5e363b421b901000000000000000000000000000000000000000000000000000000000000000000000000000000000000000000000000000000000000000000000000000000000000000000000000000000000000000000000000000000000000000000000000000000000000000000000000000000000000000000000000000000000000000000000000000000000000000000000000000000000000000000000000000000000000000000000000000000000000000000000000000000000000000000000000000000000000000000000000000000000000000000000000000000000000000000000000000000000000000000000000000000000000000000000000000000000083020000808407270e00808000a00000000000000000000000000000000000000000000000000000000000000000880000000000000000c0c0",
        "blocks": [
            {
                "blockHeader": {
                    "parentHash": "0x461fde0142ac7e4b719a2adba003bce77f12fb59cf77b47ebe757dcef0d7e288",
                    "uncleHash": "0x1dcc4de8dec75d7aab85b567b6ccd41ad312451b948a7413f0a142fd40d49347",
                    "coinbase": "0x2adc25665018aa1fe0e6bc666dac8fc2697ff9ba",
                    "stateRoot": "0xd472c1ce541bef50d4c8c3ad9718f836fdb3f8f43525190841a7b2ae5a8ef840",
                    "transactionsTrie": "0x0a45f0e35b60fe11026ff8766855e4be5e6374f44af2ead1e7a91a0b5fbe425b",
                    "receiptTrie": "0x4c0f571b03c36e5df5f26c97fb5314d824bd2532c7dd685a4eac04401c5f8e54",
                    "bloom": "0x00000000000000000000000000000000000000000000000000000000000000000000000000000000000000000000000000000000000000000000000000000000000000000000000000000000000000000000000000000000000000000000000000000000000000000000000000000000000000000000000000000000000000000000000000000000000000000000000000000000000000000000000000000000000000000000000000000000000000000000000000000000000000000000000000000000000000000000000000000000000000000000000000000000000000000000000000000000000000000000000000000000000000000000000000000000",
                    "difficulty": "0x020000",
                    "number": "0x01",
                    "gasLimit": "0x07270e00",
                    "gasUsed": "0x0189c8",
                    "timestamp": "0x03e8",
                    "extraData": "0x00",
                    "mixHash": "0x0000000000000000000000000000000000000000000000000000000000000000",
                    "nonce": "0x0000000000000000",
                    "hash": "0xd7677dcdcb93e02df293ddc008e86acf3c81812752334c0dd63732e2c7d693ef"
                },
                "transactions": [
                    {
                        "type": "0x00",
                        "chainId": "0x01",
                        "nonce": "0x00",
                        "gasPrice": "0x0a",
                        "gasLimit": "0x0f4240",
                        "to": "0xe7e37c39a88e5712fab3ebb273c4c2f90cc64a61",
                        "value": "0x00",
                        "data": "0x7346e4a6a4695b41c4b337c35223562e46a30298923f6000557346e4a6a4695b41c4b337c35223562e46a30298923b60015560006000f3",
                        "v": "0x25",
                        "r": "0x19342f0f2e821a1ef5637844951ef804afe4d9b52d4569023bf08313f118be52",
                        "s": "0x3c2f5f234e95286b42ad34893d08b482fa18601ed8cbff45374eac289f7d42e6",
                        "sender": "0x1ad9bc24818784172ff393bb6f89f094d4d2ca29"
                    }
                ],
                "uncleHeaders": [],
                "receipts": [
                    {
                        "transactionHash": "0x786a8232aa5e5adfa14adf320aec4b9538a746ebca91a1625cf9ddb639d835f2",
                        "type": "0x00",
                        "cumulativeGasUsed": "0x0189c8",
                        "bloom": "0x00000000000000000000000000000000000000000000000000000000000000000000000000000000000000000000000000000000000000000000000000000000000000000000000000000000000000000000000000000000000000000000000000000000000000000000000000000000000000000000000000000000000000000000000000000000000000000000000000000000000000000000000000000000000000000000000000000000000000000000000000000000000000000000000000000000000000000000000000000000000000000000000000000000000000000000000000000000000000000000000000000000000000000000000000000000",
                        "logs": [],
                        "status": true,
                        "rlp": "0xf9010901830189c8b9010000000000000000000000000000000000000000000000000000000000000000000000000000000000000000000000000000000000000000000000000000000000000000000000000000000000000000000000000000000000000000000000000000000000000000000000000000000000000000000000000000000000000000000000000000000000000000000000000000000000000000000000000000000000000000000000000000000000000000000000000000000000000000000000000000000000000000000000000000000000000000000000000000000000000000000000000000000000000000000000000000000000000000000000000000000000c0"
                    }
                ],
                "rlp": "0xf90298f901f9a0461fde0142ac7e4b719a2adba003bce77f12fb59cf77b47ebe757dcef0d7e288a01dcc4de8dec75d7aab85b567b6ccd41ad312451b948a7413f0a142fd40d49347942adc25665018aa1fe0e6bc666dac8fc2697ff9baa0d472c1ce541bef50d4c8c3ad9718f836fdb3f8f43525190841a7b2ae5a8ef840a00a45f0e35b60fe11026ff8766855e4be5e6374f44af2ead1e7a91a0b5fbe425ba04c0f571b03c36e5df5f26c97fb5314d824bd2532c7dd685a4eac04401c5f8e54b901000000000000000000000000000000000000000000000000000000000000000000000000000000000000000000000000000000000000000000000000000000000000000000000000000000000000000000000000000000000000000000000000000000000000000000000000000000000000000000000000000000000000000000000000000000000000000000000000000000000000000000000000000000000000000000000000000000000000000000000000000000000000000000000000000000000000000000000000000000000000000000000000000000000000000000000000000000000000000000000000000000000000000000000000000000000083020000018407270e00830189c88203e800a00000000000000000000000000000000000000000000000000000000000000000880000000000000000f899f897800a830f424094e7e37c39a88e5712fab3ebb273c4c2f90cc64a6180b77346e4a6a4695b41c4b337c35223562e46a30298923f6000557346e4a6a4695b41c4b337c35223562e46a30298923b60015560006000f325a019342f0f2e821a1ef5637844951ef804afe4d9b52d4569023bf08313f118be52a03c2f5f234e95286b42ad34893d08b482fa18601ed8cbff45374eac289f7d42e6c0",
                "blocknumber": "1"
            }
        ],
        "sealEngine": "NoProof",
        "_info": {
            "hash": "0xf47572eb1b7ad3b48f01174b3b42305a43fd6e747c6d964e48dfb8a75550f9e0",
            "fixture-format": "blockchain_test",
            "comment": "`execution-specs` generated test",
            "filling-transition-tool": "2.19.0",
            "description": "Test EXTCODEHASH/EXTCODESIZE of an external account during init code.\n\nThe init code queries EXTCODEHASH and EXTCODESIZE of a pre-existing\ncontract and stores the results. With a create transaction the checks\nrun in the top-level init code; with CREATE/CREATE2 they run in a\ncontract-initiated creation.",
            "url": "https://github.com/ethereum/execution-specs/blob/tests-bal@v5.6.1/tests/constantinople/eip1052_extcodehash/test_extcodehash.py#L968",
            "metadata": {
                "opcode_count": {}
            },
            "reference-spec": "https://github.com/ethereum/EIPs/blob/master/EIPS/eip-1052.md",
            "reference-spec-version": "2dcbc7ce1563e9624e137e9d447374600af876fa"
        }
    },
    "tests/constantinople/eip1052_extcodehash/test_extcodehash.py::test_extcodehash_in_init_code[fork_Berlin-blockchain_test_from_state_test-create_opcode_CREATE]": {
        "network": "Berlin",
        "genesisBlockHeader": {
            "parentHash": "0x0000000000000000000000000000000000000000000000000000000000000000",
            "uncleHash": "0x1dcc4de8dec75d7aab85b567b6ccd41ad312451b948a7413f0a142fd40d49347",
            "coinbase": "0x0000000000000000000000000000000000000000",
            "stateRoot": "0x162cd8de5876d321add945065e26977b0d1dc87fcdf078d821f5a1cba4aa08de",
            "transactionsTrie": "0x56e81f171bcc55a6ff8345e692c0f86e5b48e01b996cadc001622fb5e363b421",
            "receiptTrie": "0x56e81f171bcc55a6ff8345e692c0f86e5b48e01b996cadc001622fb5e363b421",
            "bloom": "0x00000000000000000000000000000000000000000000000000000000000000000000000000000000000000000000000000000000000000000000000000000000000000000000000000000000000000000000000000000000000000000000000000000000000000000000000000000000000000000000000000000000000000000000000000000000000000000000000000000000000000000000000000000000000000000000000000000000000000000000000000000000000000000000000000000000000000000000000000000000000000000000000000000000000000000000000000000000000000000000000000000000000000000000000000000000",
            "difficulty": "0x020000",
            "number": "0x00",
            "gasLimit": "0x07270e00",
            "gasUsed": "0x00",
            "timestamp": "0x00",
            "extraData": "0x00",
            "mixHash": "0x0000000000000000000000000000000000000000000000000000000000000000",
            "nonce": "0x0000000000000000",
            "hash": "0xb3a2148c90f5b5bbbb94c27aba6557c4f7777620530675d7c7fca711a92d0bad"
        },
        "pre": {
            "0x46e4a6a4695b41c4b337c35223562e46a3029892": {
                "nonce": "0x01",
                "balance": "0x00",
                "code": "0x11223344",
                "storage": {}
            },
            "0x920b80d1e41446e87a14a2fe0f6b503cd91afe93": {
                "nonce": "0x01",
                "balance": "0x00",
                "code": "0x3660006000373660006000f000",
                "storage": {}
            },
            "0x1ad9bc24818784172ff393bb6f89f094d4d2ca29": {
                "nonce": "0x00",
                "balance": "0x3635c9adc5dea00000",
                "code": "0x",
                "storage": {}
            }
        },
        "postState": {
            "0x46e4a6a4695b41c4b337c35223562e46a3029892": {
                "nonce": "0x01",
                "balance": "0x00",
                "code": "0x11223344",
                "storage": {}
            },
            "0x920b80d1e41446e87a14a2fe0f6b503cd91afe93": {
                "nonce": "0x02",
                "balance": "0x00",
                "code": "0x3660006000373660006000f000",
                "storage": {}
            },
            "0x1ad9bc24818784172ff393bb6f89f094d4d2ca29": {
                "nonce": "0x01",
                "balance": "0x3635c9adc5de909ec6",
                "code": "0x",
                "storage": {}
            },
            "0xe62af3f0b87739c4995bbcbac9c7f769a084ae92": {
                "nonce": "0x01",
                "balance": "0x00",
                "code": "0x",
                "storage": {
                    "0x00": "0x36712aa4d0dd2f64a9ae6ac09555133a157c74ddf7c079a70c33e8b4bf70dd73",
                    "0x01": "0x04"
                }
            },
            "0x2adc25665018aa1fe0e6bc666dac8fc2697ff9ba": {
                "nonce": "0x00",
                "balance": "0x1bc16d674ed7613a",
                "code": "0x",
                "storage": {}
            }
        },
        "lastblockhash": "0x13905ca553229f5efbc6364a1f06781d1244431ea3f44083d1352cbf7e419fa6",
        "config": {
            "network": "Berlin",
            "chainid": "0x01"
        },
        "genesisRLP": "0xf901f9f901f4a00000000000000000000000000000000000000000000000000000000000000000a01dcc4de8dec75d7aab85b567b6ccd41ad312451b948a7413f0a142fd40d49347940000000000000000000000000000000000000000a0162cd8de5876d321add945065e26977b0d1dc87fcdf078d821f5a1cba4aa08dea056e81f171bcc55a6ff8345e692c0f86e5b48e01b996cadc001622fb5e363b421a056e81f171bcc55a6ff8345e692c0f86e5b48e01b996cadc001622fb5e363b421b901000000000000000000000000000000000000000000000000000000000000000000000000000000000000000000000000000000000000000000000000000000000000000000000000000000000000000000000000000000000000000000000000000000000000000000000000000000000000000000000000000000000000000000000000000000000000000000000000000000000000000000000000000000000000000000000000000000000000000000000000000000000000000000000000000000000000000000000000000000000000000000000000000000000000000000000000000000000000000000000000000000000000000000000000000000000083020000808407270e00808000a00000000000000000000000000000000000000000000000000000000000000000880000000000000000c0c0",
        "blocks": [
            {
                "blockHeader": {
                    "parentHash": "0xb3a2148c90f5b5bbbb94c27aba6557c4f7777620530675d7c7fca711a92d0bad",
                    "uncleHash": "0x1dcc4de8dec75d7aab85b567b6ccd41ad312451b948a7413f0a142fd40d49347",
                    "coinbase": "0x2adc25665018aa1fe0e6bc666dac8fc2697ff9ba",
                    "stateRoot": "0xdb88278e406ff68042f8af78542b1eaa4ddd061f5c1676e670493318a7704a4a",
                    "transactionsTrie": "0xebe67d0d08e16f9952bb3200b67ef2022778122f58076ffbee797ac1eda3d1ee",
                    "receiptTrie": "0x08e384e204f6b2d72054493694926bdee4103180d806eb91ce4ac9ed99b74941",
                    "bloom": "0x00000000000000000000000000000000000000000000000000000000000000000000000000000000000000000000000000000000000000000000000000000000000000000000000000000000000000000000000000000000000000000000000000000000000000000000000000000000000000000000000000000000000000000000000000000000000000000000000000000000000000000000000000000000000000000000000000000000000000000000000000000000000000000000000000000000000000000000000000000000000000000000000000000000000000000000000000000000000000000000000000000000000000000000000000000000",
                    "difficulty": "0x020000",
                    "number": "0x01",
                    "gasLimit": "0x07270e00",
                    "gasUsed": "0x0189b9",
                    "timestamp": "0x03e8",
                    "extraData": "0x00",
                    "mixHash": "0x0000000000000000000000000000000000000000000000000000000000000000",
                    "nonce": "0x0000000000000000",
                    "hash": "0x13905ca553229f5efbc6364a1f06781d1244431ea3f44083d1352cbf7e419fa6"
                },
                "transactions": [
                    {
                        "type": "0x00",
                        "chainId": "0x01",
                        "nonce": "0x00",
                        "gasPrice": "0x0a",
                        "gasLimit": "0x0f4240",
                        "to": "0x920b80d1e41446e87a14a2fe0f6b503cd91afe93",
                        "value": "0x00",
                        "data": "0x7346e4a6a4695b41c4b337c35223562e46a30298923f6000557346e4a6a4695b41c4b337c35223562e46a30298923b60015560006000f3",
                        "v": "0x25",
                        "r": "0xa18f48f260ba70c53223055440ebec8c8a30c090e451cd7b4a2e6bc7b041aba3",
                        "s": "0x1a0bc813e6266029d6a5d5de4728514874cb34eb6dfb6bc5aafa2ce896f53b35",
                        "sender": "0x1ad9bc24818784172ff393bb6f89f094d4d2ca29"
                    }
                ],
                "uncleHeaders": [],
                "receipts": [
                    {
                        "transactionHash": "0xe09b691e5fda0e9addd730cf7c9460950ae25fce27f04c135c7d382b737210a2",
                        "type": "0x00",
                        "cumulativeGasUsed": "0x0189b9",
                        "bloom": "0x00000000000000000000000000000000000000000000000000000000000000000000000000000000000000000000000000000000000000000000000000000000000000000000000000000000000000000000000000000000000000000000000000000000000000000000000000000000000000000000000000000000000000000000000000000000000000000000000000000000000000000000000000000000000000000000000000000000000000000000000000000000000000000000000000000000000000000000000000000000000000000000000000000000000000000000000000000000000000000000000000000000000000000000000000000000",
                        "logs": [],
                        "status": true,
                        "rlp": "0xf9010901830189b9b9010000000000000000000000000000000000000000000000000000000000000000000000000000000000000000000000000000000000000000000000000000000000000000000000000000000000000000000000000000000000000000000000000000000000000000000000000000000000000000000000000000000000000000000000000000000000000000000000000000000000000000000000000000000000000000000000000000000000000000000000000000000000000000000000000000000000000000000000000000000000000000000000000000000000000000000000000000000000000000000000000000000000000000000000000000000000c0"
                    }
                ],
                "rlp": "0xf90298f901f9a0b3a2148c90f5b5bbbb94c27aba6557c4f7777620530675d7c7fca711a92d0bada01dcc4de8dec75d7aab85b567b6ccd41ad312451b948a7413f0a142fd40d49347942adc25665018aa1fe0e6bc666dac8fc2697ff9baa0db88278e406ff68042f8af78542b1eaa4ddd061f5c1676e670493318a7704a4aa0ebe67d0d08e16f9952bb3200b67ef2022778122f58076ffbee797ac1eda3d1eea008e384e204f6b2d72054493694926bdee4103180d806eb91ce4ac9ed99b74941b901000000000000000000000000000000000000000000000000000000000000000000000000000000000000000000000000000000000000000000000000000000000000000000000000000000000000000000000000000000000000000000000000000000000000000000000000000000000000000000000000000000000000000000000000000000000000000000000000000000000000000000000000000000000000000000000000000000000000000000000000000000000000000000000000000000000000000000000000000000000000000000000000000000000000000000000000000000000000000000000000000000000000000000000000000000000083020000018407270e00830189b98203e800a00000000000000000000000000000000000000000000000000000000000000000880000000000000000f899f897800a830f424094920b80d1e41446e87a14a2fe0f6b503cd91afe9380b77346e4a6a4695b41c4b337c35223562e46a30298923f6000557346e4a6a4695b41c4b337c35223562e46a30298923b60015560006000f325a0a18f48f260ba70c53223055440ebec8c8a30c090e451cd7b4a2e6bc7b041aba3a01a0bc813e6266029d6a5d5de4728514874cb34eb6dfb6bc5aafa2ce896f53b35c0",
                "blocknumber": "1"
            }
        ],
        "sealEngine": "NoProof",
        "_info": {
            "hash": "0xe3481a052b93de4f922eb6401c4c7f33ec965221b35a40df5f771c006835e639",
            "fixture-format": "blockchain_test",
            "comment": "`execution-specs` generated test",
            "filling-transition-tool": "2.19.0",
            "description": "Test EXTCODEHASH/EXTCODESIZE of an external account during init code.\n\nThe init code queries EXTCODEHASH and EXTCODESIZE of a pre-existing\ncontract and stores the results. With a create transaction the checks\nrun in the top-level init code; with CREATE/CREATE2 they run in a\ncontract-initiated creation.",
            "url": "https://github.com/ethereum/execution-specs/blob/tests-bal@v5.6.1/tests/constantinople/eip1052_extcodehash/test_extcodehash.py#L968",
            "metadata": {
                "opcode_count": {}
            },
            "reference-spec": "https://github.com/ethereum/EIPs/blob/master/EIPS/eip-1052.md",
            "reference-spec-version": "2dcbc7ce1563e9624e137e9d447374600af876fa"
        }
    },
    "tests/constantinople/eip1052_extcodehash/test_extcodehash.py::test_extcodehash_in_init_code[fork_Berlin-blockchain_test_from_state_test-create_tx]": {
        "network": "Berlin",
        "genesisBlockHeader": {
            "parentHash": "0x0000000000000000000000000000000000000000000000000000000000000000",
            "uncleHash": "0x1dcc4de8dec75d7aab85b567b6ccd41ad312451b948a7413f0a142fd40d49347",
            "coinbase": "0x0000000000000000000000000000000000000000",
            "stateRoot": "0x3067fca27a35a6e460a89ca559ab39a219a8adda826254aa5b0724ff39004518",
            "transactionsTrie": "0x56e81f171bcc55a6ff8345e692c0f86e5b48e01b996cadc001622fb5e363b421",
            "receiptTrie": "0x56e81f171bcc55a6ff8345e692c0f86e5b48e01b996cadc001622fb5e363b421",
            "bloom": "0x00000000000000000000000000000000000000000000000000000000000000000000000000000000000000000000000000000000000000000000000000000000000000000000000000000000000000000000000000000000000000000000000000000000000000000000000000000000000000000000000000000000000000000000000000000000000000000000000000000000000000000000000000000000000000000000000000000000000000000000000000000000000000000000000000000000000000000000000000000000000000000000000000000000000000000000000000000000000000000000000000000000000000000000000000000000",
            "difficulty": "0x020000",
            "number": "0x00",
            "gasLimit": "0x07270e00",
            "gasUsed": "0x00",
            "timestamp": "0x00",
            "extraData": "0x00",
            "mixHash": "0x0000000000000000000000000000000000000000000000000000000000000000",
            "nonce": "0x0000000000000000",
            "hash": "0x54b8c3d6c9da1b2e5d57a1826f881912cf658b433293d7d17b0b8dacd5933b3d"
        },
        "pre": {
            "0x46e4a6a4695b41c4b337c35223562e46a3029892": {
                "nonce": "0x01",
                "balance": "0x00",
                "code": "0x11223344",
                "storage": {}
            },
            "0x1ad9bc24818784172ff393bb6f89f094d4d2ca29": {
                "nonce": "0x00",
                "balance": "0x3635c9adc5dea00000",
                "code": "0x",
                "storage": {}
            }
        },
        "postState": {
            "0x46e4a6a4695b41c4b337c35223562e46a3029892": {
                "nonce": "0x01",
                "balance": "0x00",
                "code": "0x11223344",
                "storage": {}
            },
            "0x1ad9bc24818784172ff393bb6f89f094d4d2ca29": {
                "nonce": "0x01",
                "balance": "0x3635c9adc5de909ffc",
                "code": "0x",
                "storage": {}
            },
            "0x36bdd8886852759e2046e3bf4c290d5c29c81d82": {
                "nonce": "0x01",
                "balance": "0x00",
                "code": "0x",
                "storage": {
                    "0x00": "0x36712aa4d0dd2f64a9ae6ac09555133a157c74ddf7c079a70c33e8b4bf70dd73",
                    "0x01": "0x04"
                }
            },
            "0x2adc25665018aa1fe0e6bc666dac8fc2697ff9ba": {
                "nonce": "0x00",
                "balance": "0x1bc16d674ed76004",
                "code": "0x",
                "storage": {}
            }
        },
        "lastblockhash": "0x1cfc9fd13afd575c9c0bc690b4bb4e323bf710687be4c5d866eb32d718d2f4e6",
        "config": {
            "network": "Berlin",
            "chainid": "0x01"
        },
        "genesisRLP": "0xf901f9f901f4a00000000000000000000000000000000000000000000000000000000000000000a01dcc4de8dec75d7aab85b567b6ccd41ad312451b948a7413f0a142fd40d49347940000000000000000000000000000000000000000a03067fca27a35a6e460a89ca559ab39a219a8adda826254aa5b0724ff39004518a056e81f171bcc55a6ff8345e692c0f86e5b48e01b996cadc001622fb5e363b421a056e81f171bcc55a6ff8345e692c0f86e5b48e01b996cadc001622fb5e363b421b901000000000000000000000000000000000000000000000000000000000000000000000000000000000000000000000000000000000000000000000000000000000000000000000000000000000000000000000000000000000000000000000000000000000000000000000000000000000000000000000000000000000000000000000000000000000000000000000000000000000000000000000000000000000000000000000000000000000000000000000000000000000000000000000000000000000000000000000000000000000000000000000000000000000000000000000000000000000000000000000000000000000000000000000000000000000083020000808407270e00808000a00000000000000000000000000000000000000000000000000000000000000000880000000000000000c0c0",
        "blocks": [
            {
                "blockHeader": {
                    "parentHash": "0x54b8c3d6c9da1b2e5d57a1826f881912cf658b433293d7d17b0b8dacd5933b3d",
                    "uncleHash": "0x1dcc4de8dec75d7aab85b567b6ccd41ad312451b948a7413f0a142fd40d49347",
                    "coinbase": "0x2adc25665018aa1fe0e6bc666dac8fc2697ff9ba",
                    "stateRoot": "0xfe0d31725455af7b0eb46499a64706c700b450e57b8a04044c16be8a9f7fc529",
                    "transactionsTrie": "0x13c01167bfacde30b951af083b676ab43f077f3cbaa531d4d9994b3c295bf243",
                    "receiptTrie": "0x089bbd78b7fd1da8eb932c8f59c3e1d0f2eefadd8d1f00801b0a0432fe30b5f1",
                    "bloom": "0x00000000000000000000000000000000000000000000000000000000000000000000000000000000000000000000000000000000000000000000000000000000000000000000000000000000000000000000000000000000000000000000000000000000000000000000000000000000000000000000000000000000000000000000000000000000000000000000000000000000000000000000000000000000000000000000000000000000000000000000000000000000000000000000000000000000000000000000000000000000000000000000000000000000000000000000000000000000000000000000000000000000000000000000000000000000",
                    "difficulty": "0x020000",
                    "number": "0x01",
                    "gasLimit": "0x07270e00",
                    "gasUsed": "0x01899a",
                    "timestamp": "0x03e8",
                    "extraData": "0x00",
                    "mixHash": "0x0000000000000000000000000000000000000000000000000000000000000000",
                    "nonce": "0x0000000000000000",
                    "hash": "0x1cfc9fd13afd575c9c0bc690b4bb4e323bf710687be4c5d866eb32d718d2f4e6"
                },
                "transactions": [
                    {
                        "type": "0x00",
                        "chainId": "0x01",
                        "nonce": "0x00",
                        "gasPrice": "0x0a",
                        "gasLimit": "0x0f4240",
                        "value": "0x00",
                        "data": "0x7346e4a6a4695b41c4b337c35223562e46a30298923f6000557346e4a6a4695b41c4b337c35223562e46a30298923b60015560006000f3",
                        "v": "0x26",
                        "r": "0x3767788943680ca2b2f30b9bb59b8709c5a6257c42fc1739d9be6cd0e4fa91e4",
                        "s": "0x33614e3e7d11a37a8864302d9dc6689f39c654854a9997540c422ecc07d85011",
                        "sender": "0x1ad9bc24818784172ff393bb6f89f094d4d2ca29",
                        "to": ""
                    }
                ],
                "uncleHeaders": [],
                "receipts": [
                    {
                        "transactionHash": "0x4ee7ee0f9b98ee7bd993b019395f93c8320ba0ad4f62158970fe2fda05989143",
                        "type": "0x00",
                        "cumulativeGasUsed": "0x01899a",
                        "bloom": "0x00000000000000000000000000000000000000000000000000000000000000000000000000000000000000000000000000000000000000000000000000000000000000000000000000000000000000000000000000000000000000000000000000000000000000000000000000000000000000000000000000000000000000000000000000000000000000000000000000000000000000000000000000000000000000000000000000000000000000000000000000000000000000000000000000000000000000000000000000000000000000000000000000000000000000000000000000000000000000000000000000000000000000000000000000000000",
                        "logs": [],
                        "status": true,
                        "rlp": "0xf90109018301899ab9010000000000000000000000000000000000000000000000000000000000000000000000000000000000000000000000000000000000000000000000000000000000000000000000000000000000000000000000000000000000000000000000000000000000000000000000000000000000000000000000000000000000000000000000000000000000000000000000000000000000000000000000000000000000000000000000000000000000000000000000000000000000000000000000000000000000000000000000000000000000000000000000000000000000000000000000000000000000000000000000000000000000000000000000000000000000c0"
                    }
                ],
                "rlp": "0xf90284f901f9a054b8c3d6c9da1b2e5d57a1826f881912cf658b433293d7d17b0b8dacd5933b3da01dcc4de8dec75d7aab85b567b6ccd41ad312451b948a7413f0a142fd40d49347942adc25665018aa1fe0e6bc666dac8fc2697ff9baa0fe0d31725455af7b0eb46499a64706c700b450e57b8a04044c16be8a9f7fc529a013c01167bfacde30b951af083b676ab43f077f3cbaa531d4d9994b3c295bf243a0089bbd78b7fd1da8eb932c8f59c3e1d0f2eefadd8d1f00801b0a0432fe30b5f1b901000000000000000000000000000000000000000000000000000000000000000000000000000000000000000000000000000000000000000000000000000000000000000000000000000000000000000000000000000000000000000000000000000000000000000000000000000000000000000000000000000000000000000000000000000000000000000000000000000000000000000000000000000000000000000000000000000000000000000000000000000000000000000000000000000000000000000000000000000000000000000000000000000000000000000000000000000000000000000000000000000000000000000000000000000000000083020000018407270e008301899a8203e800a00000000000000000000000000000000000000000000000000000000000000000880000000000000000f885f883800a830f42408080b77346e4a6a4695b41c4b337c35223562e46a30298923f6000557346e4a6a4695b41c4b337c35223562e46a30298923b60015560006000f326a03767788943680ca2b2f30b9bb59b8709c5a6257c42fc1739d9be6cd0e4fa91e4a033614e3e7d11a37a8864302d9dc6689f39c654854a9997540c422ecc07d85011c0",
                "blocknumber": "1"
            }
        ],
        "sealEngine": "NoProof",
        "_info": {
            "hash": "0x3360411a557b5517133745defb21dfeb65cfba4807191432e76f410dfc23a5c8",
            "fixture-format": "blockchain_test",
            "comment": "`execution-specs` generated test",
            "filling-transition-tool": "2.19.0",
            "description": "Test EXTCODEHASH/EXTCODESIZE of an external account during init code.\n\nThe init code queries EXTCODEHASH and EXTCODESIZE of a pre-existing\ncontract and stores the results. With a create transaction the checks\nrun in the top-level init code; with CREATE/CREATE2 they run in a\ncontract-initiated creation.",
            "url": "https://github.com/ethereum/execution-specs/blob/tests-bal@v5.6.1/tests/constantinople/eip1052_extcodehash/test_extcodehash.py#L968",
            "metadata": {
                "opcode_count": {}
            },
            "reference-spec": "https://github.com/ethereum/EIPs/blob/master/EIPS/eip-1052.md",
            "reference-spec-version": "2dcbc7ce1563e9624e137e9d447374600af876fa"
        }
    }
}