{
    "tests/constantinople/eip1052_extcodehash/test_extcodehash.py::test_extcodehash_self_in_init[fork_Berlin-blockchain_test_from_state_test-create_opcode_CREATE2]": {
        "network": "Berlin",
        "genesisBlockHeader": {
            "parentHash": "0x0000000000000000000000000000000000000000000000000000000000000000",
            "uncleHash": "0x1dcc4de8dec75d7aab85b567b6ccd41ad312451b948a7413f0a142fd40d49347",
            "coinbase": "0x0000000000000000000000000000000000000000",
            "stateRoot": "0x7367564407f9344a567097ea5c65182c4ecfbf6bf7158164861b712819e4b82f",
            "transactionsTrie": "0x56e81f171bcc55a6ff8345e692c0f86e5b48e01b996cadc001622fb5e363b421",
            "receiptTrie": "0x56e81f171bcc55a6ff8345e692c0f86e5b48e01b996cadc001622fb5e363b421",
            "bloom": "0x00000000000000000000000000000000000000000000000000000000000000000000000000000000000000000000000000000000000000000000000000000000000000000000000000000000000000000000000000000000000000000000000000000000000000000000000000000000000000000000000000000000000000000000000000000000000000000000000000000000000000000000000000000000000000000000000000000000000000000000000000000000000000000000000000000000000000000000000000000000000000000000000000000000000000000000000000000000000000000000000000000000000000000000000000000000",
            "difficulty": "0x020000",
            "number": "0x00",
            "gasLimit": "0x07270e00",
            "gasUsed": "0x00",
            "timestamp": "0x00",
            "extraData": "0x00",
            "mixHash": "0x0000000000000000000000000000000000000000000000000000000000000000",
            "nonce": "0x0000000000000000",
            "hash": "0x0ffc633914f4fc86943f8014805779f074f315aae22995e4344d13578da4f20a"
        },
        "pre": {
            "0xe7e37c39a88e5712fab3ebb273c4c2f90cc64a61": {
                "nonce": "0x01",
                "balance": "0x00",
                "code": "0x36600060003760003660006000f500",
                "storage": {}
            },
            "0x1ad9bc24818784172ff393bb6f89f094d4d2ca29": {
                "nonce": "0x00",
                "balance": "0x3635c9adc5dea00000",
                "code": "0x",
                "storage": {}
            }
        },
        "postState": {
            "0xe7e37c39a88e5712fab3ebb273c4c2f90cc64a61": {
                "nonce": "0x02",
                "balance": "0x00",
                "code": "0x36600060003760003660006000f500",
                "storage": {}
            },
            "0x1ad9bc24818784172ff393bb6f89f094d4d2ca29": {
                "nonce": "0x01",
                "balance": "0x3635c9adc5de9422bc",
                "code": "0x",
                "storage": {}
            },
            "0x91349fa62e9c21deb9cf1382628ac909d3ff75f0": {
                "nonce": "0x01",
                "balance": "0x00",
                "code": "0x",
                "storage": {
                    "0x00": "0xc5d2460186f7233c927e7db2dcc703c0e500b653ca82273b7bfad8045d85a470"
                }
            },
            "0x2adc25665018aa1fe0e6bc666dac8fc2697ff9ba": {
                "nonce": "0x00",
                "balance": "0x1bc16d674ed3dd44",
                "code": "0x",
                "storage": {}
            }
        },
        "lastblockhash": "0x72803e69107f453d1785f68f1389e92356219bde7febec6b818ffb3c591d4771",
        "config": {
            "network": "Berlin",
            "chainid": "0x01"
        },
        "genesisRLP": "0xf901f9f901f4a00000000000000000000000000000000000000000000000000000000000000000a01dcc4de8dec75d7aab85b567b6ccd41ad312451b948a7413f0a142fd40d49347940000000000000000000000000000000000000000a07367564407f9344a567097ea5c65182c4ecfbf6bf7158164861b712819e4b82fa056e81f171bcc55a6ff8345e692c0f86e5b48e01b996cadc001622fb5e363b421a056e81f171bcc55a6ff8345e692c0f86e5b48e01b996cadc001622fb5e363b421b901000000000000000000000000000000000000000000000000000000000000000000000000000000000000000000000000000000000000000000000000000000000000000000000000000000000000000000000000000000000000000000000000000000000000000000000000000000000000000000000000000000000000000000000000000000000000000000000000000000000000000000000000000000000000000000000000000000000000000000000000000000000000000000000000000000000000000000000000000000000000000000000000000000000000000000000000000000000000000000000000000000000000000000000000000000000083020000808407270e00808000a00000000000000000000000000000000000000000000000000000000000000000880000000000000000c0c0",
        "blocks": [
            {
                "blockHeader": {
                    "parentHash": "0x0ffc633914f4fc86943f8014805779f074f315aae22995e4344d13578da4f20a",
                    "uncleHash": "0x1dcc4de8dec75d7aab85b567b6ccd41ad312451b948a7413f0a142fd40d49347",
                    "coinbase": "0x2adc25665018aa1fe0e6bc666dac8fc2697ff9ba",
                    "stateRoot": "0x1b11b2880b9f1086aab41c8c1b9ef84e6ce21a6ae54baada2071e3e12eb7c965",
                    "transactionsTrie": "0x666a4b9fd7e17bbf2bebe9b268d6308cfec651e67d25de11b211524fb13c4fb0",
                    "receiptTrie": "0x4e938229aee6ff0bfdb3c54b44f6c644870d1a8235d33660402fe02acf022aae",
                    "bloom": "0x00000000000000000000000000000000000000000000000000000000000000000000000000000000000000000000000000000000000000000000000000000000000000000000000000000000000000000000000000000000000000000000000000000000000000000000000000000000000000000000000000000000000000000000000000000000000000000000000000000000000000000000000000000000000000000000000000000000000000000000000000000000000000000000000000000000000000000000000000000000000000000000000000000000000000000000000000000000000000000000000000000000000000000000000000000000",
                    "difficulty": "0x020000",
                    "number": "0x01",
                    "gasLimit": "0x07270e00",
                    "gasUsed": "0x012fba",
                    "timestamp": "0x03e8",
                    "extraData": "0x00",
                    "mixHash": "0x0000000000000000000000000000000000000000000000000000000000000000",
                    "nonce": "0x0000000000000000",
                    "hash": "0x72803e69107f453d1785f68f1389e92356219bde7febec6b818ffb3c591d4771"
                },
                "transactions": [
                    {
                        "type": "0x00",
                        "chainId": "0x01",
                        "nonce": "0x00",
                        "gasPrice": "0x0a",
                        "gasLimit": "0x0f4240",
                        "to": "0xe7e37c39a88e5712fab3ebb273c4c2f90cc64a61",
                        "value": "0x00",
                        "data": "0x303f600055303b60015560006000f3",
                        "v": "0x26",
                        "r": "0xdb79f79c2daf97e1d7e73812e1f47e355433e31565121621a5b88ea5ff9dbe18",
                        "s": "0x2e8ae4fdf9c8404da40d643cbe582eb0b8b97e8c0d1fdb967a43e91ad4c02e76",
                        "sender": "0x1ad9bc24818784172ff393bb6f89f094d4d2ca29"
                    }
                ],
                "uncleHeaders": [],
                "receipts": [
                    {
                        "transactionHash": "0xba68d418e73774ed94e58bf1ada784509d949b32c1991cc01a5b3de91a15e5c8",
                        "type": "0x00",
                        "cumulativeGasUsed": "0x012fba",
                        "bloom": "0x00000000000000000000000000000000000000000000000000000000000000000000000000000000000000000000000000000000000000000000000000000000000000000000000000000000000000000000000000000000000000000000000000000000000000000000000000000000000000000000000000000000000000000000000000000000000000000000000000000000000000000000000000000000000000000000000000000000000000000000000000000000000000000000000000000000000000000000000000000000000000000000000000000000000000000000000000000000000000000000000000000000000000000000000000000000",
                        "logs": [],
                        "status": true,
                        "rlp": "0xf901090183012fbab9010000000000000000000000000000000000000000000000000000000000000000000000000000000000000000000000000000000000000000000000000000000000000000000000000000000000000000000000000000000000000000000000000000000000000000000000000000000000000000000000000000000000000000000000000000000000000000000000000000000000000000000000000000000000000000000000000000000000000000000000000000000000000000000000000000000000000000000000000000000000000000000000000000000000000000000000000000000000000000000000000000000000000000000000000000000000c0"
                    }
                ],
                "rlp": "0xf90270f901f9a00ffc633914f4fc86943f8014805779f074f315aae22995e4344d13578da4f20aa01dcc4de8dec75d7aab85b567b6ccd41ad312451b948a7413f0a142fd40d49347942adc25665018aa1fe0e6bc666dac8fc2697ff9baa01b11b2880b9f1086aab41c8c1b9ef84e6ce21a6ae54baada2071e3e12eb7c965a0666a4b9fd7e17bbf2bebe9b268d6308cfec651e67d25de11b211524fb13c4fb0a04e938229aee6ff0bfdb3c54b44f6c644870d1a8235d33660402fe02acf022aaeb901000000000000000000000000000000000000000000000000000000000000000000000000000000000000000000000000000000000000000000000000000000000000000000000000000000000000000000000000000000000000000000000000000000000000000000000000000000000000000000000000000000000000000000000000000000000000000000000000000000000000000000000000000000000000000000000000000000000000000000000000000000000000000000000000000000000000000000000000000000000000000000000000000000000000000000000000000000000000000000000000000000000000000000000000000000000083020000018407270e0083012fba8203e800a00000000000000000000000000000000000000000000000000000000000000000880000000000000000f871f86f800a830f424094e7e37c39a88e5712fab3ebb273c4c2f90cc64a61808f303f600055303b60015560006000f326a0db79f79c2daf97e1d7e73812e1f47e355433e31565121621a5b88ea5ff9dbe18a02e8ae4fdf9c8404da40d643cbe582eb0b8b97e8c0d1fdb967a43e91ad4c02e76c0",
                "blocknumber": "1"
            }
        ],
        "sealEngine": "NoProof",
        "_info": {
            "hash": "0x56e4805efbe717ab0b721dfadd9a5f3faa464d6ba4febfd8870078851ca9aae8",
            "fixture-format": "blockchain_test",
            "comment": "`execution-specs` generated test",
            "filling-transition-tool": "2.19.0",
            "description": "Test EXTCODEHASH/EXTCODESIZE of self during init code.\n\nDuring init code execution the account exists but has no code yet,\nso EXTCODEHASH(ADDRESS) returns keccak256(\"\") and\nEXTCODESIZE(ADDRESS) returns 0.",
            "url": "https://github.com/ethereum/execution-specs/blob/tests-bal@v5.6.0/tests/constantinople/eip1052_extcodehash/test_extcodehash.py#L1053",
            "metadata": {
                "opcode_count": {}
            },
            "reference-spec": "https://github.com/ethereum/EIPs/blob/master/EIPS/eip-1052.md",
            "reference-spec-version": "2dcbc7ce1563e9624e137e9d447374600af876fa"
        }
    },
    "tests/constantinople/eip1052_extcodehash/test_extcodehash.py::test_extcodehash_self_in_init[fork_Berlin-blockchain_test_from_state_test-create_opcode_CREATE]": {
        "network": "Berlin",
        "genesisBlockHeader": {
            "parentHash": "0x0000000000000000000000000000000000000000000000000000000000000000",
            "uncleHash": "0x1dcc4de8dec75d7aab85b567b6ccd41ad312451b948a7413f0a142fd40d49347",
            "coinbase": "0x0000000000000000000000000000000000000000",
            "stateRoot": "0x3300b4724853c9228c4fcafca907f17b155327a2a09261d22f0230c82a6d4127",
            "transactionsTrie": "0x56e81f171bcc55a6ff8345e692c0f86e5b48e01b996cadc001622fb5e363b421",
            "receiptTrie": "0x56e81f171bcc55a6ff8345e692c0f86e5b48e01b996cadc001622fb5e363b421",
            "bloom": "0x00000000000000000000000000000000000000000000000000000000000000000000000000000000000000000000000000000000000000000000000000000000000000000000000000000000000000000000000000000000000000000000000000000000000000000000000000000000000000000000000000000000000000000000000000000000000000000000000000000000000000000000000000000000000000000000000000000000000000000000000000000000000000000000000000000000000000000000000000000000000000000000000000000000000000000000000000000000000000000000000000000000000000000000000000000000",
            "difficulty": "0x020000",
            "number": "0x00",
            "gasLimit": "0x07270e00",
            "gasUsed": "0x00",
            "timestamp": "0x00",
            "extraData": "0x00",
            "mixHash": "0x0000000000000000000000000000000000000000000000000000000000000000",
            "nonce": "0x0000000000000000",
            "hash": "0xbf88d8719c432c661d3be100d737cb2589e36779e5b7f829f0d4cd39d416955b"
        },
        "pre": {
            "0x920b80d1e41446e87a14a2fe0f6b503cd91afe93": {
                "nonce": "0x01",
                "balance": "0x00",
                "code": "0x3660006000373660006000f000",
                "storage": {}
            },
            "0x1ad9bc24818784172ff393bb6f89f094d4d2ca29": {
                "nonce": "0x00",
                "balance": "0x3635c9adc5dea00000",
                "code": "0x",
                "storage": {}
            }
        },
        "postState": {
            "0x920b80d1e41446e87a14a2fe0f6b503cd91afe93": {
                "nonce": "0x02",
                "balance": "0x00",
                "code": "0x3660006000373660006000f000",
                "storage": {}
            },
            "0x1ad9bc24818784172ff393bb6f89f094d4d2ca29": {
                "nonce": "0x01",
                "balance": "0x3635c9adc5de942316",
                "code": "0x",
                "storage": {}
            },
            "0xe62af3f0b87739c4995bbcbac9c7f769a084ae92": {
                "nonce": "0x01",
                "balance": "0x00",
                "code": "0x",
                "storage": {
                    "0x00": "0xc5d2460186f7233c927e7db2dcc703c0e500b653ca82273b7bfad8045d85a470"
                }
            },
            "0x2adc25665018aa1fe0e6bc666dac8fc2697ff9ba": {
                "nonce": "0x00",
                "balance": "0x1bc16d674ed3dcea",
                "code": "0x",
                "storage": {}
            }
        },
        "lastblockhash": "0x7732686484ca13b8e015e8c739f080acd4d087763ca7a0b464e0ec7667068f9d",
        "config": {
            "network": "Berlin",
            "chainid": "0x01"
        },
        "genesisRLP": "0xf901f9f901f4a00000000000000000000000000000000000000000000000000000000000000000a01dcc4de8dec75d7aab85b567b6ccd41ad312451b948a7413f0a142fd40d49347940000000000000000000000000000000000000000a03300b4724853c9228c4fcafca907f17b155327a2a09261d22f0230c82a6d4127a056e81f171bcc55a6ff8345e692c0f86e5b48e01b996cadc001622fb5e363b421a056e81f171bcc55a6ff8345e692c0f86e5b48e01b996cadc001622fb5e363b421b901000000000000000000000000000000000000000000000000000000000000000000000000000000000000000000000000000000000000000000000000000000000000000000000000000000000000000000000000000000000000000000000000000000000000000000000000000000000000000000000000000000000000000000000000000000000000000000000000000000000000000000000000000000000000000000000000000000000000000000000000000000000000000000000000000000000000000000000000000000000000000000000000000000000000000000000000000000000000000000000000000000000000000000000000000000000083020000808407270e00808000a00000000000000000000000000000000000000000000000000000000000000000880000000000000000c0c0",
        "blocks": [
            {
                "blockHeader": {
                    "parentHash": "0xbf88d8719c432c661d3be100d737cb2589e36779e5b7f829f0d4cd39d416955b",
                    "uncleHash": "0x1dcc4de8dec75d7aab85b567b6ccd41ad312451b948a7413f0a142fd40d49347",
                    "coinbase": "0x2adc25665018aa1fe0e6bc666dac8fc2697ff9ba",
                    "stateRoot": "0x38230862d688156b899c377a15a9a99fe954626d3796b35b78b13ab35e2bc872",
                    "transactionsTrie": "0x3e66f1e60d41d7f49b19e771221eeb136ca48a861af7fb2d9a34c2c717f47f7a",
                    "receiptTrie": "0x6e7df2f999f3098f6ca2392a0f9c5f865674fdcef4facb9327e7c59ff80632ef",
                    "bloom": "0x00000000000000000000000000000000000000000000000000000000000000000000000000000000000000000000000000000000000000000000000000000000000000000000000000000000000000000000000000000000000000000000000000000000000000000000000000000000000000000000000000000000000000000000000000000000000000000000000000000000000000000000000000000000000000000000000000000000000000000000000000000000000000000000000000000000000000000000000000000000000000000000000000000000000000000000000000000000000000000000000000000000000000000000000000000000",
                    "difficulty": "0x020000",
                    "number": "0x01",
                    "gasLimit": "0x07270e00",
                    "gasUsed": "0x012fb1",
                    "timestamp": "0x03e8",
                    "extraData": "0x00",
                    "mixHash": "0x0000000000000000000000000000000000000000000000000000000000000000",
                    "nonce": "0x0000000000000000",
                    "hash": "0x7732686484ca13b8e015e8c739f080acd4d087763ca7a0b464e0ec7667068f9d"
                },
                "transactions": [
                    {
                        "type": "0x00",
                        "chainId": "0x01",
                        "nonce": "0x00",
                        "gasPrice": "0x0a",
                        "gasLimit": "0x0f4240",
                        "to": "0x920b80d1e41446e87a14a2fe0f6b503cd91afe93",
                        "value": "0x00",
                        "data": "0x303f600055303b60015560006000f3",
                        "v": "0x25",
                        "r": "0xf438ec22f0ef35669038e436fbb0f26c65e6c3a6cc870258f3f8a0208649d063",
                        "s": "0x1679338e02b4e25a7b37c7004d4b8a2de352c6027a0fc19ed58fa25cff455a6a",
                        "sender": "0x1ad9bc24818784172ff393bb6f89f094d4d2ca29"
                    }
                ],
                "uncleHeaders": [],
                "receipts": [
                    {
                        "transactionHash": "0xc624039a04afa6358ef4549cc37a3daa383e936a6e856b5bb8656d21bb129ad0",
                        "type": "0x00",
                        "cumulativeGasUsed": "0x012fb1",
                        "bloom": "0x00000000000000000000000000000000000000000000000000000000000000000000000000000000000000000000000000000000000000000000000000000000000000000000000000000000000000000000000000000000000000000000000000000000000000000000000000000000000000000000000000000000000000000000000000000000000000000000000000000000000000000000000000000000000000000000000000000000000000000000000000000000000000000000000000000000000000000000000000000000000000000000000000000000000000000000000000000000000000000000000000000000000000000000000000000000",
                        "logs": [],
                        "status": true,
                        "rlp": "0xf901090183012fb1b9010000000000000000000000000000000000000000000000000000000000000000000000000000000000000000000000000000000000000000000000000000000000000000000000000000000000000000000000000000000000000000000000000000000000000000000000000000000000000000000000000000000000000000000000000000000000000000000000000000000000000000000000000000000000000000000000000000000000000000000000000000000000000000000000000000000000000000000000000000000000000000000000000000000000000000000000000000000000000000000000000000000000000000000000000000000000c0"
                    }
                ],
                "rlp": "0xf90270f901f9a0bf88d8719c432c661d3be100d737cb2589e36779e5b7f829f0d4cd39d416955ba01dcc4de8dec75d7aab85b567b6ccd41ad312451b948a7413f0a142fd40d49347942adc25665018aa1fe0e6bc666dac8fc2697ff9baa038230862d688156b899c377a15a9a99fe954626d3796b35b78b13ab35e2bc872a03e66f1e60d41d7f49b19e771221eeb136ca48a861af7fb2d9a34c2c717f47f7aa06e7df2f999f3098f6ca2392a0f9c5f865674fdcef4facb9327e7c59ff80632efb901000000000000000000000000000000000000000000000000000000000000000000000000000000000000000000000000000000000000000000000000000000000000000000000000000000000000000000000000000000000000000000000000000000000000000000000000000000000000000000000000000000000000000000000000000000000000000000000000000000000000000000000000000000000000000000000000000000000000000000000000000000000000000000000000000000000000000000000000000000000000000000000000000000000000000000000000000000000000000000000000000000000000000000000000000000000083020000018407270e0083012fb18203e800a00000000000000000000000000000000000000000000000000000000000000000880000000000000000f871f86f800a830f424094920b80d1e41446e87a14a2fe0f6b503cd91afe93808f303f600055303b60015560006000f325a0f438ec22f0ef35669038e436fbb0f26c65e6c3a6cc870258f3f8a0208649d063a01679338e02b4e25a7b37c7004d4b8a2de352c6027a0fc19ed58fa25cff455a6ac0",
                "blocknumber": "1"
            }
        ],
        "sealEngine": "NoProof",
        "_info": {
            "hash": "0xd09b69d780a40a114188d9b2839666ac32f8c83a49ad92d5f4d33325cdd77090",
            "fixture-format": "blockchain_test",
            "comment": "`execution-specs` generated test",
            "filling-transition-tool": "2.19.0",
            "description": "Test EXTCODEHASH/EXTCODESIZE of self during init code.\n\nDuring init code execution the account exists but has no code yet,\nso EXTCODEHASH(ADDRESS) returns keccak256(\"\") and\nEXTCODESIZE(ADDRESS) returns 0.",
            "url": "https://github.com/ethereum/execution-specs/blob/tests-bal@v5.6.0/tests/constantinople/eip1052_extcodehash/test_extcodehash.py#L1053",
            "metadata": {
                "opcode_count": {}
            },
            "reference-spec": "https://github.com/ethereum/EIPs/blob/master/EIPS/eip-1052.md",
            "reference-spec-version": "2dcbc7ce1563e9624e137e9d447374600af876fa"
        }
    },
    "tests/constantinople/eip1052_extcodehash/test_extcodehash.py::test_extcodehash_self_in_init[fork_Berlin-blockchain_test_from_state_test-create_tx]": {
        "network": "Berlin",
        "genesisBlockHeader": {
            "parentHash": "0x0000000000000000000000000000000000000000000000000000000000000000",
            "uncleHash": "0x1dcc4de8dec75d7aab85b567b6ccd41ad312451b948a7413f0a142fd40d49347",
            "coinbase": "0x0000000000000000000000000000000000000000",
            "stateRoot": "0x4b555d9d75fa8b4e5f0bec2ff06c8fca800d261b6840bc7a516ab1c6282999a9",
            "transactionsTrie": "0x56e81f171bcc55a6ff8345e692c0f86e5b48e01b996cadc001622fb5e363b421",
            "receiptTrie": "0x56e81f171bcc55a6ff8345e692c0f86e5b48e01b996cadc001622fb5e363b421",
            "bloom": "0x00000000000000000000000000000000000000000000000000000000000000000000000000000000000000000000000000000000000000000000000000000000000000000000000000000000000000000000000000000000000000000000000000000000000000000000000000000000000000000000000000000000000000000000000000000000000000000000000000000000000000000000000000000000000000000000000000000000000000000000000000000000000000000000000000000000000000000000000000000000000000000000000000000000000000000000000000000000000000000000000000000000000000000000000000000000",
            "difficulty": "0x020000",
            "number": "0x00",
            "gasLimit": "0x07270e00",
            "gasUsed": "0x00",
            "timestamp": "0x00",
            "extraData": "0x00",
            "mixHash": "0x0000000000000000000000000000000000000000000000000000000000000000",
            "nonce": "0x0000000000000000",
            "hash": "0x86a74cabdcd962275e2a9b92d417c7a8305cb90ef1139936810bc360a639143f"
        },
        "pre": {
            "0x1ad9bc24818784172ff393bb6f89f094d4d2ca29": {
                "nonce": "0x00",
                "balance": "0x3635c9adc5dea00000",
                "code": "0x",
                "storage": {}
            }
        },
        "postState": {
            "0x1ad9bc24818784172ff393bb6f89f094d4d2ca29": {
                "nonce": "0x01",
                "balance": "0x3635c9adc5de942410",
                "code": "0x",
                "storage": {}
            },
            "0x36bdd8886852759e2046e3bf4c290d5c29c81d82": {
                "nonce": "0x01",
                "balance": "0x00",
                "code": "0x",
                "storage": {
                    "0x00": "0xc5d2460186f7233c927e7db2dcc703c0e500b653ca82273b7bfad8045d85a470"
                }
            },
            "0x2adc25665018aa1fe0e6bc666dac8fc2697ff9ba": {
                "nonce": "0x00",
                "balance": "0x1bc16d674ed3dbf0",
                "code": "0x",
                "storage": {}
            }
        },
        "lastblockhash": "0xfbae707211e6e0302a3caf028655e6c6e59eb9c43ca2cc855a797aefd71c7117",
        "config": {
            "network": "Berlin",
            "chainid": "0x01"
        },
        "genesisRLP": "0xf901f9f901f4a00000000000000000000000000000000000000000000000000000000000000000a01dcc4de8dec75d7aab85b567b6ccd41ad312451b948a7413f0a142fd40d49347940000000000000000000000000000000000000000a04b555d9d75fa8b4e5f0bec2ff06c8fca800d261b6840bc7a516ab1c6282999a9a056e81f171bcc55a6ff8345e692c0f86e5b48e01b996cadc001622fb5e363b421a056e81f171bcc55a6ff8345e692c0f86e5b48e01b996cadc001622fb5e363b421b901000000000000000000000000000000000000000000000000000000000000000000000000000000000000000000000000000000000000000000000000000000000000000000000000000000000000000000000000000000000000000000000000000000000000000000000000000000000000000000000000000000000000000000000000000000000000000000000000000000000000000000000000000000000000000000000000000000000000000000000000000000000000000000000000000000000000000000000000000000000000000000000000000000000000000000000000000000000000000000000000000000000000000000000000000000000083020000808407270e00808000a00000000000000000000000000000000000000000000000000000000000000000880000000000000000c0c0",
        "blocks": [
            {
                "blockHeader": {
                    "parentHash": "0x86a74cabdcd962275e2a9b92d417c7a8305cb90ef1139936810bc360a639143f",
                    "uncleHash": "0x1dcc4de8dec75d7aab85b567b6ccd41ad312451b948a7413f0a142fd40d49347",
                    "coinbase": "0x2adc25665018aa1fe0e6bc666dac8fc2697ff9ba",
                    "stateRoot": "0x64d9e12f20bfcbb923cc6785b8017cdb453d19c7ab5f45507e1df4b009ecaeb8",
                    "transactionsTrie": "0x39168450d7925f94d5271d6ab6877619488e8a66d071653b3aec76536d54a2c3",
                    "receiptTrie": "0x517d6d232c4d5b951829e2c4f5cbde2f3cbad1f93f584abb7386efa01a987bed",
                    "bloom": "0x00000000000000000000000000000000000000000000000000000000000000000000000000000000000000000000000000000000000000000000000000000000000000000000000000000000000000000000000000000000000000000000000000000000000000000000000000000000000000000000000000000000000000000000000000000000000000000000000000000000000000000000000000000000000000000000000000000000000000000000000000000000000000000000000000000000000000000000000000000000000000000000000000000000000000000000000000000000000000000000000000000000000000000000000000000000",
                    "difficulty": "0x020000",
                    "number": "0x01",
                    "gasLimit": "0x07270e00",
                    "gasUsed": "0x012f98",
                    "timestamp": "0x03e8",
                    "extraData": "0x00",
                    "mixHash": "0x0000000000000000000000000000000000000000000000000000000000000000",
                    "nonce": "0x0000000000000000",
                    "hash": "0xfbae707211e6e0302a3caf028655e6c6e59eb9c43ca2cc855a797aefd71c7117"
                },
                "transactions": [
                    {
                        "type": "0x00",
                        "chainId": "0x01",
                        "nonce": "0x00",
                        "gasPrice": "0x0a",
                        "gasLimit": "0x0f4240",
                        "value": "0x00",
                        "data": "0x303f600055303b60015560006000f3",
                        "v": "0x25",
                        "r": "0x067d9f895c7e6dca21b5a5b100b83ffe359c83f52de8fb604a030bfbec3edbe0",
                        "s": "0x04e0428cc780afd968740a76abc3648b5b8e0887f13cc016d144f7b5cc845c28",
                        "sender": "0x1ad9bc24818784172ff393bb6f89f094d4d2ca29",
                        "to": ""
                    }
                ],
                "uncleHeaders": [],
                "receipts": [
                    {
                        "transactionHash": "0x123d98452f94d42952a481d3c8f5bbdb27d034ba0a9287eb72633f81c89e5a7f",
                        "type": "0x00",
                        "cumulativeGasUsed": "0x012f98",
                        "bloom": "0x00000000000000000000000000000000000000000000000000000000000000000000000000000000000000000000000000000000000000000000000000000000000000000000000000000000000000000000000000000000000000000000000000000000000000000000000000000000000000000000000000000000000000000000000000000000000000000000000000000000000000000000000000000000000000000000000000000000000000000000000000000000000000000000000000000000000000000000000000000000000000000000000000000000000000000000000000000000000000000000000000000000000000000000000000000000",
                        "logs": [],
                        "status": true,
                        "rlp": "0xf901090183012f98b9010000000000000000000000000000000000000000000000000000000000000000000000000000000000000000000000000000000000000000000000000000000000000000000000000000000000000000000000000000000000000000000000000000000000000000000000000000000000000000000000000000000000000000000000000000000000000000000000000000000000000000000000000000000000000000000000000000000000000000000000000000000000000000000000000000000000000000000000000000000000000000000000000000000000000000000000000000000000000000000000000000000000000000000000000000000000c0"
                    }
                ],
                "rlp": "0xf9025cf901f9a086a74cabdcd962275e2a9b92d417c7a8305cb90ef1139936810bc360a639143fa01dcc4de8dec75d7aab85b567b6ccd41ad312451b948a7413f0a142fd40d49347942adc25665018aa1fe0e6bc666dac8fc2697ff9baa064d9e12f20bfcbb923cc6785b8017cdb453d19c7ab5f45507e1df4b009ecaeb8a039168450d7925f94d5271d6ab6877619488e8a66d071653b3aec76536d54a2c3a0517d6d232c4d5b951829e2c4f5cbde2f3cbad1f93f584abb7386efa01a987bedb901000000000000000000000000000000000000000000000000000000000000000000000000000000000000000000000000000000000000000000000000000000000000000000000000000000000000000000000000000000000000000000000000000000000000000000000000000000000000000000000000000000000000000000000000000000000000000000000000000000000000000000000000000000000000000000000000000000000000000000000000000000000000000000000000000000000000000000000000000000000000000000000000000000000000000000000000000000000000000000000000000000000000000000000000000000000083020000018407270e0083012f988203e800a00000000000000000000000000000000000000000000000000000000000000000880000000000000000f85df85b800a830f424080808f303f600055303b60015560006000f325a0067d9f895c7e6dca21b5a5b100b83ffe359c83f52de8fb604a030bfbec3edbe0a004e0428cc780afd968740a76abc3648b5b8e0887f13cc016d144f7b5cc845c28c0",
                "blocknumber": "1"
            }
        ],
        "sealEngine": "NoProof",
        "_info": {
            "hash": "0xa397f9dbdacb99dd18ee762c56f8a2773e7bb2531297b1e015660b0abeadfde6",
            "fixture-format": "blockchain_test",
            "comment": "`execution-specs` generated test",
            "filling-transition-tool": "2.19.0",
            "description": "Test EXTCODEHASH/EXTCODESIZE of self during init code.\n\nDuring init code execution the account exists but has no code yet,\nso EXTCODEHASH(ADDRESS) returns keccak256(\"\") and\nEXTCODESIZE(ADDRESS) returns 0.",
            "url": "https://github.com/ethereum/execution-specs/blob/tests-bal@v5.6.0/tests/constantinople/eip1052_extcodehash/test_extcodehash.py#L1053",
            "metadata": {
                "opcode_count": {}
            },
            "reference-spec": "https://github.com/ethereum/EIPs/blob/master/EIPS/eip-1052.md",
            "reference-spec-version": "2dcbc7ce1563e9624e137e9d447374600af876fa"
        }
    }
}