{
    "tests/constantinople/eip1052_extcodehash/test_extcodehash.py::test_extcodehash_self[fork_Berlin-blockchain_test_from_state_test]": {
        "network": "Berlin",
        "genesisBlockHeader": {
            "parentHash": "0x0000000000000000000000000000000000000000000000000000000000000000",
            "uncleHash": "0x1dcc4de8dec75d7aab85b567b6ccd41ad312451b948a7413f0a142fd40d49347",
            "coinbase": "0x0000000000000000000000000000000000000000",
            "stateRoot": "0x40ae776acac70baa15db84ee961c18608f63b55f0f842d3e2c8ee0e16e55bcb1",
            "transactionsTrie": "0x56e81f171bcc55a6ff8345e692c0f86e5b48e01b996cadc001622fb5e363b421",
            "receiptTrie": "0x56e81f171bcc55a6ff8345e692c0f86e5b48e01b996cadc001622fb5e363b421",
            "bloom": "0x00000000000000000000000000000000000000000000000000000000000000000000000000000000000000000000000000000000000000000000000000000000000000000000000000000000000000000000000000000000000000000000000000000000000000000000000000000000000000000000000000000000000000000000000000000000000000000000000000000000000000000000000000000000000000000000000000000000000000000000000000000000000000000000000000000000000000000000000000000000000000000000000000000000000000000000000000000000000000000000000000000000000000000000000000000000",
            "difficulty": "0x020000",
            "number": "0x00",
            "gasLimit": "0x07270e00",
            "gasUsed": "0x00",
            "timestamp": "0x00",
            "extraData": "0x00",
            "mixHash": "0x0000000000000000000000000000000000000000000000000000000000000000",
            "nonce": "0x0000000000000000",
            "hash": "0xe35d248ccc75ec7e13af71e4d1604f2ea3533908888eeaa587264c060a565cb3"
        },
        "pre": {
            "0x9837367a01c8d13f81f1ab4ed8d6d8a1cff29f91": {
                "nonce": "0x01",
                "balance": "0x00",
                "code": "0x303f600055303b600155",
                "storage": {}
            },
            "0x1ad9bc24818784172ff393bb6f89f094d4d2ca29": {
                "nonce": "0x00",
                "balance": "0x3635c9adc5dea00000",
                "code": "0x",
                "storage": {}
            }
        },
        "postState": {
            "0x9837367a01c8d13f81f1ab4ed8d6d8a1cff29f91": {
                "nonce": "0x01",
                "balance": "0x00",
                "code": "0x303f600055303b600155",
                "storage": {
                    "0x00": "0x62fea48724896a3135c89b6f1e59ae4dbabd3d7bc44ab43d92288c5e6e818085",
                    "0x01": "0x0a"
                }
            },
            "0x1ad9bc24818784172ff393bb6f89f094d4d2ca29": {
                "nonce": "0x01",
                "balance": "0x3635c9adc5de9604ec",
                "code": "0x",
                "storage": {}
            },
            "0x2adc25665018aa1fe0e6bc666dac8fc2697ff9ba": {
                "nonce": "0x00",
                "balance": "0x1bc16d674ed1fb14",
                "code": "0x",
                "storage": {}
            }
        },
        "lastblockhash": "0x5215d735291fb290fcdeadb6ebbae8106f37d7b068b05d8e2a301e6781b43e0b",
        "config": {
            "network": "Berlin",
            "chainid": "0x01"
        },
        "genesisRLP": "0xf901f9f901f4a00000000000000000000000000000000000000000000000000000000000000000a01dcc4de8dec75d7aab85b567b6ccd41ad312451b948a7413f0a142fd40d49347940000000000000000000000000000000000000000a040ae776acac70baa15db84ee961c18608f63b55f0f842d3e2c8ee0e16e55bcb1a056e81f171bcc55a6ff8345e692c0f86e5b48e01b996cadc001622fb5e363b421a056e81f171bcc55a6ff8345e692c0f86e5b48e01b996cadc001622fb5e363b421b901000000000000000000000000000000000000000000000000000000000000000000000000000000000000000000000000000000000000000000000000000000000000000000000000000000000000000000000000000000000000000000000000000000000000000000000000000000000000000000000000000000000000000000000000000000000000000000000000000000000000000000000000000000000000000000000000000000000000000000000000000000000000000000000000000000000000000000000000000000000000000000000000000000000000000000000000000000000000000000000000000000000000000000000000000000000083020000808407270e00808000a00000000000000000000000000000000000000000000000000000000000000000880000000000000000c0c0",
        "blocks": [
            {
                "blockHeader": {
                    "parentHash": "0xe35d248ccc75ec7e13af71e4d1604f2ea3533908888eeaa587264c060a565cb3",
                    "uncleHash": "0x1dcc4de8dec75d7aab85b567b6ccd41ad312451b948a7413f0a142fd40d49347",
                    "coinbase": "0x2adc25665018aa1fe0e6bc666dac8fc2697ff9ba",
                    "stateRoot": "0x73a01483335eeece4faf8fccdc636d0ddb76120667e211d2b969b82282948bd6",
                    "transactionsTrie": "0x29d0ecb02fd7375d9d10f5b4edc0f6dc8b78b570dd6a41457736b18964943cb0",
                    "receiptTrie": "0x2112fb3f29c6224a3afa8a4d5b205632df7930f0a4290d16342bf09d952f81b9",
                    "bloom": "0x00000000000000000000000000000000000000000000000000000000000000000000000000000000000000000000000000000000000000000000000000000000000000000000000000000000000000000000000000000000000000000000000000000000000000000000000000000000000000000000000000000000000000000000000000000000000000000000000000000000000000000000000000000000000000000000000000000000000000000000000000000000000000000000000000000000000000000000000000000000000000000000000000000000000000000000000000000000000000000000000000000000000000000000000000000000",
                    "difficulty": "0x020000",
                    "number": "0x01",
                    "gasLimit": "0x07270e00",
                    "gasUsed": "0xff82",
                    "timestamp": "0x03e8",
                    "extraData": "0x00",
                    "mixHash": "0x0000000000000000000000000000000000000000000000000000000000000000",
                    "nonce": "0x0000000000000000",
                    "hash": "0x5215d735291fb290fcdeadb6ebbae8106f37d7b068b05d8e2a301e6781b43e0b"
                },
                "transactions": [
                    {
                        "type": "0x00",
                        "chainId": "0x01",
                        "nonce": "0x00",
                        "gasPrice": "0x0a",
                        "gasLimit": "0x0f4240",
                        "to": "0x9837367a01c8d13f81f1ab4ed8d6d8a1cff29f91",
                        "value": "0x00",
                        "data": "0x",
                        "v": "0x25",
                        "r": "0x62bfe8d4464032db2b90d6cc59373d5318b504f225d3120772a899a1da88ec15",
                        "s": "0x5b49bb3b488a68ee8e73391bfa22ff1860572c7fa28e82375ca1133063853e24",
                        "sender": "0x1ad9bc24818784172ff393bb6f89f094d4d2ca29"
                    }
                ],
                "uncleHeaders": [],
                "receipts": [
                    {
                        "transactionHash": "0x617fc2fd07f0cfd654fe6829dbd4e39580adbd9d62854f847ac169ac065772bf",
                        "type": "0x00",
                        "cumulativeGasUsed": "0xff82",
                        "bloom": "0x00000000000000000000000000000000000000000000000000000000000000000000000000000000000000000000000000000000000000000000000000000000000000000000000000000000000000000000000000000000000000000000000000000000000000000000000000000000000000000000000000000000000000000000000000000000000000000000000000000000000000000000000000000000000000000000000000000000000000000000000000000000000000000000000000000000000000000000000000000000000000000000000000000000000000000000000000000000000000000000000000000000000000000000000000000000",
                        "logs": [],
                        "status": true,
                        "rlp": "0xf901080182ff82b9010000000000000000000000000000000000000000000000000000000000000000000000000000000000000000000000000000000000000000000000000000000000000000000000000000000000000000000000000000000000000000000000000000000000000000000000000000000000000000000000000000000000000000000000000000000000000000000000000000000000000000000000000000000000000000000000000000000000000000000000000000000000000000000000000000000000000000000000000000000000000000000000000000000000000000000000000000000000000000000000000000000000000000000000000000000000c0"
                    }
                ],
                "rlp": "0xf90260f901f8a0e35d248ccc75ec7e13af71e4d1604f2ea3533908888eeaa587264c060a565cb3a01dcc4de8dec75d7aab85b567b6ccd41ad312451b948a7413f0a142fd40d49347942adc25665018aa1fe0e6bc666dac8fc2697ff9baa073a01483335eeece4faf8fccdc636d0ddb76120667e211d2b969b82282948bd6a029d0ecb02fd7375d9d10f5b4edc0f6dc8b78b570dd6a41457736b18964943cb0a02112fb3f29c6224a3afa8a4d5b205632df7930f0a4290d16342bf09d952f81b9b901000000000000000000000000000000000000000000000000000000000000000000000000000000000000000000000000000000000000000000000000000000000000000000000000000000000000000000000000000000000000000000000000000000000000000000000000000000000000000000000000000000000000000000000000000000000000000000000000000000000000000000000000000000000000000000000000000000000000000000000000000000000000000000000000000000000000000000000000000000000000000000000000000000000000000000000000000000000000000000000000000000000000000000000000000000000083020000018407270e0082ff828203e800a00000000000000000000000000000000000000000000000000000000000000000880000000000000000f862f860800a830f4240949837367a01c8d13f81f1ab4ed8d6d8a1cff29f91808025a062bfe8d4464032db2b90d6cc59373d5318b504f225d3120772a899a1da88ec15a05b49bb3b488a68ee8e73391bfa22ff1860572c7fa28e82375ca1133063853e24c0",
                "blocknumber": "1"
            }
        ],
        "sealEngine": "NoProof",
        "_info": {
            "hash": "0x43c4dba5c3a9dbbe25f3782f7e86f69335f57e132353f5f48dffc0027849a3b0",
            "fixture-format": "blockchain_test",
            "comment": "`execution-specs` generated test",
            "filling-transition-tool": "2.19.0",
            "description": "Test EXTCODEHASH/EXTCODESIZE of the currently executing account.",
            "url": "https://github.com/ethereum/execution-specs/blob/tests-bal@v5.6.0/tests/constantinople/eip1052_extcodehash/test_extcodehash.py#L36",
            "metadata": {
                "opcode_count": {}
            },
            "reference-spec": "https://github.com/ethereum/EIPs/blob/master/EIPS/eip-1052.md",
            "reference-spec-version": "2dcbc7ce1563e9624e137e9d447374600af876fa"
        }
    }
}