{
    "tests/constantinople/eip1052_extcodehash/test_extcodehash.py::test_extcodecopy_zero_code[fork_Berlin-blockchain_test_from_state_test-target_type_existing]": {
        "network": "Berlin",
        "genesisBlockHeader": {
            "parentHash": "0x0000000000000000000000000000000000000000000000000000000000000000",
            "uncleHash": "0x1dcc4de8dec75d7aab85b567b6ccd41ad312451b948a7413f0a142fd40d49347",
            "coinbase": "0x0000000000000000000000000000000000000000",
            "stateRoot": "0x0f05b92d6362e8c85307beb4084552d763f5e1d1099a145702356e1fb3e648b2",
            "transactionsTrie": "0x56e81f171bcc55a6ff8345e692c0f86e5b48e01b996cadc001622fb5e363b421",
            "receiptTrie": "0x56e81f171bcc55a6ff8345e692c0f86e5b48e01b996cadc001622fb5e363b421",
            "bloom": "0x00000000000000000000000000000000000000000000000000000000000000000000000000000000000000000000000000000000000000000000000000000000000000000000000000000000000000000000000000000000000000000000000000000000000000000000000000000000000000000000000000000000000000000000000000000000000000000000000000000000000000000000000000000000000000000000000000000000000000000000000000000000000000000000000000000000000000000000000000000000000000000000000000000000000000000000000000000000000000000000000000000000000000000000000000000000",
            "difficulty": "0x020000",
            "number": "0x00",
            "gasLimit": "0x07270e00",
            "gasUsed": "0x00",
            "timestamp": "0x00",
            "extraData": "0x00",
            "mixHash": "0x0000000000000000000000000000000000000000000000000000000000000000",
            "nonce": "0x0000000000000000",
            "hash": "0xabc62f9ccebf340ab99401d0f5485fae37efeaef54eef2b1abb339dac2083c9b"
        },
        "pre": {
            "0xf36afef4dcb45e52f80cb039335952f77cec8960": {
                "nonce": "0x00",
                "balance": "0x01",
                "code": "0x",
                "storage": {}
            },
            "0x0f85f074ffd8a4b805c280b98054f0ee4e21cf0d": {
                "nonce": "0x01",
                "balance": "0x00",
                "code": "0x60206000600073f36afef4dcb45e52f80cb039335952f77cec89603c60005160005573f36afef4dcb45e52f80cb039335952f77cec89603b60015573f36afef4dcb45e52f80cb039335952f77cec89603f6002556000600060006000600073f36afef4dcb45e52f80cb039335952f77cec896061c350f2600355",
                "storage": {
                    "0x00": "0xba5e",
                    "0x01": "0xba5e"
                }
            },
            "0x1ad9bc24818784172ff393bb6f89f094d4d2ca29": {
                "nonce": "0x00",
                "balance": "0x3635c9adc5dea00000",
                "code": "0x",
                "storage": {}
            }
        },
        "postState": {
            "0xf36afef4dcb45e52f80cb039335952f77cec8960": {
                "nonce": "0x00",
                "balance": "0x01",
                "code": "0x",
                "storage": {}
            },
            "0x0f85f074ffd8a4b805c280b98054f0ee4e21cf0d": {
                "nonce": "0x01",
                "balance": "0x00",
                "code": "0x60206000600073f36afef4dcb45e52f80cb039335952f77cec89603c60005160005573f36afef4dcb45e52f80cb039335952f77cec89603b60015573f36afef4dcb45e52f80cb039335952f77cec89603f6002556000600060006000600073f36afef4dcb45e52f80cb039335952f77cec896061c350f2600355",
                "storage": {
                    "0x02": "0xc5d2460186f7233c927e7db2dcc703c0e500b653ca82273b7bfad8045d85a470",
                    "0x03": "0x01"
                }
            },
            "0x1ad9bc24818784172ff393bb6f89f094d4d2ca29": {
                "nonce": "0x01",
                "balance": "0x3635c9adc5de98a6a2",
                "code": "0x",
                "storage": {}
            },
            "0x2adc25665018aa1fe0e6bc666dac8fc2697ff9ba": {
                "nonce": "0x00",
                "balance": "0x1bc16d674ecf595e",
                "code": "0x",
                "storage": {}
            }
        },
        "lastblockhash": "0xc956edf8eebc89b244cf60b92351ca9037ced10c248f24baff66da0091a933de",
        "config": {
            "network": "Berlin",
            "chainid": "0x01"
        },
        "genesisRLP": "0xf901f9f901f4a00000000000000000000000000000000000000000000000000000000000000000a01dcc4de8dec75d7aab85b567b6ccd41ad312451b948a7413f0a142fd40d49347940000000000000000000000000000000000000000a00f05b92d6362e8c85307beb4084552d763f5e1d1099a145702356e1fb3e648b2a056e81f171bcc55a6ff8345e692c0f86e5b48e01b996cadc001622fb5e363b421a056e81f171bcc55a6ff8345e692c0f86e5b48e01b996cadc001622fb5e363b421b901000000000000000000000000000000000000000000000000000000000000000000000000000000000000000000000000000000000000000000000000000000000000000000000000000000000000000000000000000000000000000000000000000000000000000000000000000000000000000000000000000000000000000000000000000000000000000000000000000000000000000000000000000000000000000000000000000000000000000000000000000000000000000000000000000000000000000000000000000000000000000000000000000000000000000000000000000000000000000000000000000000000000000000000000000000000083020000808407270e00808000a00000000000000000000000000000000000000000000000000000000000000000880000000000000000c0c0",
        "blocks": [
            {
                "blockHeader": {
                    "parentHash": "0xabc62f9ccebf340ab99401d0f5485fae37efeaef54eef2b1abb339dac2083c9b",
                    "uncleHash": "0x1dcc4de8dec75d7aab85b567b6ccd41ad312451b948a7413f0a142fd40d49347",
                    "coinbase": "0x2adc25665018aa1fe0e6bc666dac8fc2697ff9ba",
                    "stateRoot": "0xaabc230189d21885ecec3f4a94443917dad3dcefcc24dbe62b0165db13627157",
                    "transactionsTrie": "0xf54d2ae678ed1b09fee6fd18c3e80e618f3efcc0ffab5f267b18db965872be0b",
                    "receiptTrie": "0xb4b2f0eeeb85d0374727ae19d2c54b107a4e540cc0b2cd187b20ed13ccf2fed9",
                    "bloom": "0x00000000000000000000000000000000000000000000000000000000000000000000000000000000000000000000000000000000000000000000000000000000000000000000000000000000000000000000000000000000000000000000000000000000000000000000000000000000000000000000000000000000000000000000000000000000000000000000000000000000000000000000000000000000000000000000000000000000000000000000000000000000000000000000000000000000000000000000000000000000000000000000000000000000000000000000000000000000000000000000000000000000000000000000000000000000",
                    "difficulty": "0x020000",
                    "number": "0x01",
                    "gasLimit": "0x07270e00",
                    "gasUsed": "0xbc23",
                    "timestamp": "0x03e8",
                    "extraData": "0x00",
                    "mixHash": "0x0000000000000000000000000000000000000000000000000000000000000000",
                    "nonce": "0x0000000000000000",
                    "hash": "0xc956edf8eebc89b244cf60b92351ca9037ced10c248f24baff66da0091a933de"
                },
                "transactions": [
                    {
                        "type": "0x00",
                        "chainId": "0x01",
                        "nonce": "0x00",
                        "gasPrice": "0x0a",
                        "gasLimit": "0x061a80",
                        "to": "0x0f85f074ffd8a4b805c280b98054f0ee4e21cf0d",
                        "value": "0x00",
                        "data": "0x",
                        "v": "0x25",
                        "r": "0x783cba3ba1024b3d43ff250c7f4bd7ff86cbd9f32843bd1c8916dd3fc0a82eac",
                        "s": "0x45b1cc6fcf8c3234156d66004bedeb548138bb7e0b07fcf2fc7e175572fdfbd5",
                        "sender": "0x1ad9bc24818784172ff393bb6f89f094d4d2ca29"
                    }
                ],
                "uncleHeaders": [],
                "receipts": [
                    {
                        "transactionHash": "0x5f2ec86c4275a6f1acb6cf8c1485b53a473c5f4dee7a1f43f7d5405ce270fc74",
                        "type": "0x00",
                        "cumulativeGasUsed": "0xbc23",
                        "bloom": "0x00000000000000000000000000000000000000000000000000000000000000000000000000000000000000000000000000000000000000000000000000000000000000000000000000000000000000000000000000000000000000000000000000000000000000000000000000000000000000000000000000000000000000000000000000000000000000000000000000000000000000000000000000000000000000000000000000000000000000000000000000000000000000000000000000000000000000000000000000000000000000000000000000000000000000000000000000000000000000000000000000000000000000000000000000000000",
                        "logs": [],
                        "status": true,
                        "rlp": "0xf901080182bc23b9010000000000000000000000000000000000000000000000000000000000000000000000000000000000000000000000000000000000000000000000000000000000000000000000000000000000000000000000000000000000000000000000000000000000000000000000000000000000000000000000000000000000000000000000000000000000000000000000000000000000000000000000000000000000000000000000000000000000000000000000000000000000000000000000000000000000000000000000000000000000000000000000000000000000000000000000000000000000000000000000000000000000000000000000000000000000c0"
                    }
                ],
                "rlp": "0xf90260f901f8a0abc62f9ccebf340ab99401d0f5485fae37efeaef54eef2b1abb339dac2083c9ba01dcc4de8dec75d7aab85b567b6ccd41ad312451b948a7413f0a142fd40d49347942adc25665018aa1fe0e6bc666dac8fc2697ff9baa0aabc230189d21885ecec3f4a94443917dad3dcefcc24dbe62b0165db13627157a0f54d2ae678ed1b09fee6fd18c3e80e618f3efcc0ffab5f267b18db965872be0ba0b4b2f0eeeb85d0374727ae19d2c54b107a4e540cc0b2cd187b20ed13ccf2fed9b901000000000000000000000000000000000000000000000000000000000000000000000000000000000000000000000000000000000000000000000000000000000000000000000000000000000000000000000000000000000000000000000000000000000000000000000000000000000000000000000000000000000000000000000000000000000000000000000000000000000000000000000000000000000000000000000000000000000000000000000000000000000000000000000000000000000000000000000000000000000000000000000000000000000000000000000000000000000000000000000000000000000000000000000000000000000083020000018407270e0082bc238203e800a00000000000000000000000000000000000000000000000000000000000000000880000000000000000f862f860800a83061a80940f85f074ffd8a4b805c280b98054f0ee4e21cf0d808025a0783cba3ba1024b3d43ff250c7f4bd7ff86cbd9f32843bd1c8916dd3fc0a82eaca045b1cc6fcf8c3234156d66004bedeb548138bb7e0b07fcf2fc7e175572fdfbd5c0",
                "blocknumber": "1"
            }
        ],
        "sealEngine": "NoProof",
        "_info": {
            "hash": "0x0b7691d391c54d0280cde167c7f03211c8d887ab90a69197a1157239c09d7e8f",
            "fixture-format": "blockchain_test",
            "comment": "`execution-specs` generated test",
            "filling-transition-tool": "2.19.0",
            "description": "Test EXTCODECOPY/EXTCODESIZE/EXTCODEHASH of accounts with no code.\n\nTwo account types: nonexistent (no state at all) and existing\n(EOA with balance, no code). EXTCODECOPY writes nothing to memory\n(stays zero). EXTCODEHASH is zero for nonexistent, keccak256(\"\")\nfor existing accounts.\n\nTODO: The original test also intended to cover empty accounts\n(zero nonce, zero balance, no code), but such accounts cannot\nexist in post-Paris forks due to EIP-161 cleanup.",
            "url": "https://github.com/ethereum/execution-specs/blob/tests-bal@v5.7.0/tests/constantinople/eip1052_extcodehash/test_extcodehash.py#L1823",
            "metadata": {
                "opcode_count": {}
            },
            "reference-spec": "https://github.com/ethereum/EIPs/blob/master/EIPS/eip-1052.md",
            "reference-spec-version": "2dcbc7ce1563e9624e137e9d447374600af876fa"
        }
    },
    "tests/constantinople/eip1052_extcodehash/test_extcodehash.py::test_extcodecopy_zero_code[fork_Berlin-blockchain_test_from_state_test-target_type_nonexistent]": {
        "network": "Berlin",
        "genesisBlockHeader": {
            "parentHash": "0x0000000000000000000000000000000000000000000000000000000000000000",
            "uncleHash": "0x1dcc4de8dec75d7aab85b567b6ccd41ad312451b948a7413f0a142fd40d49347",
            "coinbase": "0x0000000000000000000000000000000000000000",
            "stateRoot": "0xfbfb110e23642190fc8897c0ed90fde8a5e2719901d17af34d2952cb6ca93974",
            "transactionsTrie": "0x56e81f171bcc55a6ff8345e692c0f86e5b48e01b996cadc001622fb5e363b421",
            "receiptTrie": "0x56e81f171bcc55a6ff8345e692c0f86e5b48e01b996cadc001622fb5e363b421",
            "bloom": "0x00000000000000000000000000000000000000000000000000000000000000000000000000000000000000000000000000000000000000000000000000000000000000000000000000000000000000000000000000000000000000000000000000000000000000000000000000000000000000000000000000000000000000000000000000000000000000000000000000000000000000000000000000000000000000000000000000000000000000000000000000000000000000000000000000000000000000000000000000000000000000000000000000000000000000000000000000000000000000000000000000000000000000000000000000000000",
            "difficulty": "0x020000",
            "number": "0x00",
            "gasLimit": "0x07270e00",
            "gasUsed": "0x00",
            "timestamp": "0x00",
            "extraData": "0x00",
            "mixHash": "0x0000000000000000000000000000000000000000000000000000000000000000",
            "nonce": "0x0000000000000000",
            "hash": "0x2b3247162e92153ed43d44b80cda73532c0fefc94fef90ffbf194514989faadd"
        },
        "pre": {
            "0xbfc367fdab43ded29e94839cf7e829f83ab78ca5": {
                "nonce": "0x01",
                "balance": "0x00",
                "code": "0x60206000600073c0f6dc9e5836f54caadbf59cc69346c508e1992b3c60005160005573c0f6dc9e5836f54caadbf59cc69346c508e1992b3b60015573c0f6dc9e5836f54caadbf59cc69346c508e1992b3f6002556000600060006000600073c0f6dc9e5836f54caadbf59cc69346c508e1992b61c350f2600355",
                "storage": {
                    "0x00": "0xba5e",
                    "0x01": "0xba5e",
                    "0x02": "0xba5e"
                }
            },
            "0x1ad9bc24818784172ff393bb6f89f094d4d2ca29": {
                "nonce": "0x00",
                "balance": "0x3635c9adc5dea00000",
                "code": "0x",
                "storage": {}
            }
        },
        "postState": {
            "0xbfc367fdab43ded29e94839cf7e829f83ab78ca5": {
                "nonce": "0x01",
                "balance": "0x00",
                "code": "0x60206000600073c0f6dc9e5836f54caadbf59cc69346c508e1992b3c60005160005573c0f6dc9e5836f54caadbf59cc69346c508e1992b3b60015573c0f6dc9e5836f54caadbf59cc69346c508e1992b3f6002556000600060006000600073c0f6dc9e5836f54caadbf59cc69346c508e1992b61c350f2600355",
                "storage": {
                    "0x03": "0x01"
                }
            },
            "0x1ad9bc24818784172ff393bb6f89f094d4d2ca29": {
                "nonce": "0x01",
                "balance": "0x3635c9adc5de9b5758",
                "code": "0x",
                "storage": {}
            },
            "0x2adc25665018aa1fe0e6bc666dac8fc2697ff9ba": {
                "nonce": "0x00",
                "balance": "0x1bc16d674ecca8a8",
                "code": "0x",
                "storage": {}
            }
        },
        "lastblockhash": "0xb92f326c2b3680b3007a1b0b7ca80b2d46bafdee0b520d47bb1d6329180d76df",
        "config": {
            "network": "Berlin",
            "chainid": "0x01"
        },
        "genesisRLP": "0xf901f9f901f4a00000000000000000000000000000000000000000000000000000000000000000a01dcc4de8dec75d7aab85b567b6ccd41ad312451b948a7413f0a142fd40d49347940000000000000000000000000000000000000000a0fbfb110e23642190fc8897c0ed90fde8a5e2719901d17af34d2952cb6ca93974a056e81f171bcc55a6ff8345e692c0f86e5b48e01b996cadc001622fb5e363b421a056e81f171bcc55a6ff8345e692c0f86e5b48e01b996cadc001622fb5e363b421b901000000000000000000000000000000000000000000000000000000000000000000000000000000000000000000000000000000000000000000000000000000000000000000000000000000000000000000000000000000000000000000000000000000000000000000000000000000000000000000000000000000000000000000000000000000000000000000000000000000000000000000000000000000000000000000000000000000000000000000000000000000000000000000000000000000000000000000000000000000000000000000000000000000000000000000000000000000000000000000000000000000000000000000000000000000000083020000808407270e00808000a00000000000000000000000000000000000000000000000000000000000000000880000000000000000c0c0",
        "blocks": [
            {
                "blockHeader": {
                    "parentHash": "0x2b3247162e92153ed43d44b80cda73532c0fefc94fef90ffbf194514989faadd",
                    "uncleHash": "0x1dcc4de8dec75d7aab85b567b6ccd41ad312451b948a7413f0a142fd40d49347",
                    "coinbase": "0x2adc25665018aa1fe0e6bc666dac8fc2697ff9ba",
                    "stateRoot": "0x3e3e7841800a4cf194249baf00398881091a9f83d52f469eea2e5d5871cd6d58",
                    "transactionsTrie": "0xdd414e4ca0e702f64fdb9c740ec2e4a644dc7d6235165cb566e9239105a6c4ea",
                    "receiptTrie": "0x42439cee7fcef7ab349f115e147c9255fcaa96835e3f746bc175b2163b8574c3",
                    "bloom": "0x00000000000000000000000000000000000000000000000000000000000000000000000000000000000000000000000000000000000000000000000000000000000000000000000000000000000000000000000000000000000000000000000000000000000000000000000000000000000000000000000000000000000000000000000000000000000000000000000000000000000000000000000000000000000000000000000000000000000000000000000000000000000000000000000000000000000000000000000000000000000000000000000000000000000000000000000000000000000000000000000000000000000000000000000000000000",
                    "difficulty": "0x020000",
                    "number": "0x01",
                    "gasLimit": "0x07270e00",
                    "gasUsed": "0x7744",
                    "timestamp": "0x03e8",
                    "extraData": "0x00",
                    "mixHash": "0x0000000000000000000000000000000000000000000000000000000000000000",
                    "nonce": "0x0000000000000000",
                    "hash": "0xb92f326c2b3680b3007a1b0b7ca80b2d46bafdee0b520d47bb1d6329180d76df"
                },
                "transactions": [
                    {
                        "type": "0x00",
                        "chainId": "0x01",
                        "nonce": "0x00",
                        "gasPrice": "0x0a",
                        "gasLimit": "0x061a80",
                        "to": "0xbfc367fdab43ded29e94839cf7e829f83ab78ca5",
                        "value": "0x00",
                        "data": "0x",
                        "v": "0x25",
                        "r": "0xf56c627dc4412e943a106457cba4d127bcc0cf08a5dfcba74b3242203c2cde03",
                        "s": "0x2f20ec61ac162ded87593216be6353f80c8321a67f0377743489d35114f87df9",
                        "sender": "0x1ad9bc24818784172ff393bb6f89f094d4d2ca29"
                    }
                ],
                "uncleHeaders": [],
                "receipts": [
                    {
                        "transactionHash": "0x216d3691389c774b9e36f1001d38bf867174fb266adb18c0e87734ffc22a0774",
                        "type": "0x00",
                        "cumulativeGasUsed": "0x7744",
                        "bloom": "0x00000000000000000000000000000000000000000000000000000000000000000000000000000000000000000000000000000000000000000000000000000000000000000000000000000000000000000000000000000000000000000000000000000000000000000000000000000000000000000000000000000000000000000000000000000000000000000000000000000000000000000000000000000000000000000000000000000000000000000000000000000000000000000000000000000000000000000000000000000000000000000000000000000000000000000000000000000000000000000000000000000000000000000000000000000000",
                        "logs": [],
                        "status": true,
                        "rlp": "0xf9010801827744b9010000000000000000000000000000000000000000000000000000000000000000000000000000000000000000000000000000000000000000000000000000000000000000000000000000000000000000000000000000000000000000000000000000000000000000000000000000000000000000000000000000000000000000000000000000000000000000000000000000000000000000000000000000000000000000000000000000000000000000000000000000000000000000000000000000000000000000000000000000000000000000000000000000000000000000000000000000000000000000000000000000000000000000000000000000000000c0"
                    }
                ],
                "rlp": "0xf90260f901f8a02b3247162e92153ed43d44b80cda73532c0fefc94fef90ffbf194514989faadda01dcc4de8dec75d7aab85b567b6ccd41ad312451b948a7413f0a142fd40d49347942adc25665018aa1fe0e6bc666dac8fc2697ff9baa03e3e7841800a4cf194249baf00398881091a9f83d52f469eea2e5d5871cd6d58a0dd414e4ca0e702f64fdb9c740ec2e4a644dc7d6235165cb566e9239105a6c4eaa042439cee7fcef7ab349f115e147c9255fcaa96835e3f746bc175b2163b8574c3b901000000000000000000000000000000000000000000000000000000000000000000000000000000000000000000000000000000000000000000000000000000000000000000000000000000000000000000000000000000000000000000000000000000000000000000000000000000000000000000000000000000000000000000000000000000000000000000000000000000000000000000000000000000000000000000000000000000000000000000000000000000000000000000000000000000000000000000000000000000000000000000000000000000000000000000000000000000000000000000000000000000000000000000000000000000000083020000018407270e008277448203e800a00000000000000000000000000000000000000000000000000000000000000000880000000000000000f862f860800a83061a8094bfc367fdab43ded29e94839cf7e829f83ab78ca5808025a0f56c627dc4412e943a106457cba4d127bcc0cf08a5dfcba74b3242203c2cde03a02f20ec61ac162ded87593216be6353f80c8321a67f0377743489d35114f87df9c0",
                "blocknumber": "1"
            }
        ],
        "sealEngine": "NoProof",
        "_info": {
            "hash": "0x14d172070a2a6c695493f9dac991372dbe71c7542cdc1fb6145d02bcb325a370",
            "fixture-format": "blockchain_test",
            "comment": "`execution-specs` generated test",
            "filling-transition-tool": "2.19.0",
            "description": "Test EXTCODECOPY/EXTCODESIZE/EXTCODEHASH of accounts with no code.\n\nTwo account types: nonexistent (no state at all) and existing\n(EOA with balance, no code). EXTCODECOPY writes nothing to memory\n(stays zero). EXTCODEHASH is zero for nonexistent, keccak256(\"\")\nfor existing accounts.\n\nTODO: The original test also intended to cover empty accounts\n(zero nonce, zero balance, no code), but such accounts cannot\nexist in post-Paris forks due to EIP-161 cleanup.",
            "url": "https://github.com/ethereum/execution-specs/blob/tests-bal@v5.7.0/tests/constantinople/eip1052_extcodehash/test_extcodehash.py#L1823",
            "metadata": {
                "opcode_count": {}
            },
            "reference-spec": "https://github.com/ethereum/EIPs/blob/master/EIPS/eip-1052.md",
            "reference-spec-version": "2dcbc7ce1563e9624e137e9d447374600af876fa"
        }
    }
}