{
    "tests/ported_static/stStaticCall/test_static_callcodecallcallcode_101_ooge_2.py::test_static_callcodecallcallcode_101_ooge_2[fork_Cancun-blockchain_test_from_state_test]": {
        "network": "Cancun",
        "genesisBlockHeader": {
            "parentHash": "0x0000000000000000000000000000000000000000000000000000000000000000",
            "uncleHash": "0x1dcc4de8dec75d7aab85b567b6ccd41ad312451b948a7413f0a142fd40d49347",
            "coinbase": "0x0000000000000000000000000000000000000000",
            "stateRoot": "0xbfed209d50581f3b964a258cc7362ba93c2609819303bcdb8dcf7d8140fa0521",
            "transactionsTrie": "0x56e81f171bcc55a6ff8345e692c0f86e5b48e01b996cadc001622fb5e363b421",
            "receiptTrie": "0x56e81f171bcc55a6ff8345e692c0f86e5b48e01b996cadc001622fb5e363b421",
            "bloom": "0x00000000000000000000000000000000000000000000000000000000000000000000000000000000000000000000000000000000000000000000000000000000000000000000000000000000000000000000000000000000000000000000000000000000000000000000000000000000000000000000000000000000000000000000000000000000000000000000000000000000000000000000000000000000000000000000000000000000000000000000000000000000000000000000000000000000000000000000000000000000000000000000000000000000000000000000000000000000000000000000000000000000000000000000000000000000",
            "difficulty": "0x00",
            "number": "0x00",
            "gasLimit": "0x01c9c380",
            "gasUsed": "0x00",
            "timestamp": "0x00",
            "extraData": "0x00",
            "mixHash": "0x0000000000000000000000000000000000000000000000000000000000000000",
            "nonce": "0x0000000000000000",
            "baseFeePerGas": "0x0b",
            "withdrawalsRoot": "0x56e81f171bcc55a6ff8345e692c0f86e5b48e01b996cadc001622fb5e363b421",
            "blobGasUsed": "0x00",
            "excessBlobGas": "0x00",
            "parentBeaconBlockRoot": "0x0000000000000000000000000000000000000000000000000000000000000000",
            "hash": "0xfe10a41755a2f1c61e2ef110b05900a3b21e438aaaf5338599d48510169ffa9c"
        },
        "pre": {
            "0x000f3df6d732807ef1319fb7b8bb8522d0beac02": {
                "nonce": "0x01",
                "balance": "0x00",
                "code": "0x3373fffffffffffffffffffffffffffffffffffffffe14604d57602036146024575f5ffd5b5f35801560495762001fff810690815414603c575f5ffd5b62001fff01545f5260205ff35b5f5ffd5b62001fff42064281555f359062001fff015500",
                "storage": {}
            },
            "0x66227cf0a560e1f6f9e94345dd1b5c6758923ba6": {
                "nonce": "0x00",
                "balance": "0x0de0b6b3a7640000",
                "code": "0x604060006040600060007313ddac4297b5c0fb95bbc6d982184549393a980d620249f0f2600055600160015500",
                "storage": {}
            },
            "0x13ddac4297b5c0fb95bbc6d982184549393a980d": {
                "nonce": "0x00",
                "balance": "0x00",
                "code": "0x60406000604060007325d69e6a677bd6d872f436bad807c3244a268673620186a0fa00",
                "storage": {}
            },
            "0x25d69e6a677bd6d872f436bad807c3244a268673": {
                "nonce": "0x00",
                "balance": "0x00",
                "code": "0x6040600060406000600073fbef21c5a6c2adcf3d769f085e0cc9fe9a8df954614e34f200",
                "storage": {}
            },
            "0xfbef21c5a6c2adcf3d769f085e0cc9fe9a8df954": {
                "nonce": "0x00",
                "balance": "0x00",
                "code": "0x5b61c3506080511015601c5760013b506001608051016080526000565b00",
                "storage": {}
            },
            "0xebaf50debf10e08302fe4280c32df010463ca297": {
                "nonce": "0x00",
                "balance": "0x0de0b6b3a7640000",
                "code": "0x",
                "storage": {}
            }
        },
        "postState": {
            "0x000f3df6d732807ef1319fb7b8bb8522d0beac02": {
                "nonce": "0x01",
                "balance": "0x00",
                "code": "0x3373fffffffffffffffffffffffffffffffffffffffe14604d57602036146024575f5ffd5b5f35801560495762001fff810690815414603c575f5ffd5b62001fff01545f5260205ff35b5f5ffd5b62001fff42064281555f359062001fff015500",
                "storage": {
                    "0x03e8": "0x03e8"
                }
            },
            "0x66227cf0a560e1f6f9e94345dd1b5c6758923ba6": {
                "nonce": "0x00",
                "balance": "0x0de0b6b3a7640000",
                "code": "0x604060006040600060007313ddac4297b5c0fb95bbc6d982184549393a980d620249f0f2600055600160015500",
                "storage": {
                    "0x00": "0x01",
                    "0x01": "0x01"
                }
            },
            "0x13ddac4297b5c0fb95bbc6d982184549393a980d": {
                "nonce": "0x00",
                "balance": "0x00",
                "code": "0x60406000604060007325d69e6a677bd6d872f436bad807c3244a268673620186a0fa00",
                "storage": {}
            },
            "0x25d69e6a677bd6d872f436bad807c3244a268673": {
                "nonce": "0x00",
                "balance": "0x00",
                "code": "0x6040600060406000600073fbef21c5a6c2adcf3d769f085e0cc9fe9a8df954614e34f200",
                "storage": {}
            },
            "0xfbef21c5a6c2adcf3d769f085e0cc9fe9a8df954": {
                "nonce": "0x00",
                "balance": "0x00",
                "code": "0x5b61c3506080511015601c5760013b506001608051016080526000565b00",
                "storage": {}
            },
            "0xebaf50debf10e08302fe4280c32df010463ca297": {
                "nonce": "0x01",
                "balance": "0x0de0b6b3a755cb02",
                "code": "0x",
                "storage": {}
            }
        },
        "lastblockhash": "0xe0ef44666f8ed6c6999ada49c6bd3ce0185c00b1df698591af277dbba583f034",
        "config": {
            "network": "Cancun",
            "chainid": "0x01",
            "blobSchedule": {
                "Cancun": {
                    "target": "0x03",
                    "max": "0x06",
                    "baseFeeUpdateFraction": "0x32f0ed"
                }
            }
        },
        "genesisRLP": "0xf9023cf90236a00000000000000000000000000000000000000000000000000000000000000000a01dcc4de8dec75d7aab85b567b6ccd41ad312451b948a7413f0a142fd40d49347940000000000000000000000000000000000000000a0bfed209d50581f3b964a258cc7362ba93c2609819303bcdb8dcf7d8140fa0521a056e81f171bcc55a6ff8345e692c0f86e5b48e01b996cadc001622fb5e363b421a056e81f171bcc55a6ff8345e692c0f86e5b48e01b996cadc001622fb5e363b421b901000000000000000000000000000000000000000000000000000000000000000000000000000000000000000000000000000000000000000000000000000000000000000000000000000000000000000000000000000000000000000000000000000000000000000000000000000000000000000000000000000000000000000000000000000000000000000000000000000000000000000000000000000000000000000000000000000000000000000000000000000000000000000000000000000000000000000000000000000000000000000000000000000000000000000000000000000000000000000000000000000000000000000000000000000000000080808401c9c380808000a000000000000000000000000000000000000000000000000000000000000000008800000000000000000ba056e81f171bcc55a6ff8345e692c0f86e5b48e01b996cadc001622fb5e363b4218080a00000000000000000000000000000000000000000000000000000000000000000c0c0c0",
        "blocks": [
            {
                "blockHeader": {
                    "parentHash": "0xfe10a41755a2f1c61e2ef110b05900a3b21e438aaaf5338599d48510169ffa9c",
                    "uncleHash": "0x1dcc4de8dec75d7aab85b567b6ccd41ad312451b948a7413f0a142fd40d49347",
                    "coinbase": "0x2adc25665018aa1fe0e6bc666dac8fc2697ff9ba",
                    "stateRoot": "0xab12ce3e373d8e32f4f57f2864fdfbd1225ac9ec38aad95295c03847bc1d0692",
                    "transactionsTrie": "0xf702bfbac12fc7372b2ceb9bbb99ffa35840beccf57f483af569ce02d2af59b3",
                    "receiptTrie": "0xdf2b55af1c661ce76386f2d96284a3fff8a3016cc04558c0df697fb5e51e78ae",
                    "bloom": "0x00000000000000000000000000000000000000000000000000000000000000000000000000000000000000000000000000000000000000000000000000000000000000000000000000000000000000000000000000000000000000000000000000000000000000000000000000000000000000000000000000000000000000000000000000000000000000000000000000000000000000000000000000000000000000000000000000000000000000000000000000000000000000000000000000000000000000000000000000000000000000000000000000000000000000000000000000000000000000000000000000000000000000000000000000000000",
                    "difficulty": "0x00",
                    "number": "0x01",
                    "gasLimit": "0x01c9c380",
                    "gasUsed": "0x016bb3",
                    "timestamp": "0x03e8",
                    "extraData": "0x00",
                    "mixHash": "0x0000000000000000000000000000000000000000000000000000000000020000",
                    "nonce": "0x0000000000000000",
                    "baseFeePerGas": "0x0a",
                    "withdrawalsRoot": "0x56e81f171bcc55a6ff8345e692c0f86e5b48e01b996cadc001622fb5e363b421",
                    "blobGasUsed": "0x00",
                    "excessBlobGas": "0x00",
                    "parentBeaconBlockRoot": "0x0000000000000000000000000000000000000000000000000000000000000000",
                    "hash": "0xe0ef44666f8ed6c6999ada49c6bd3ce0185c00b1df698591af277dbba583f034"
                },
                "transactions": [
                    {
                        "type": "0x00",
                        "chainId": "0x01",
                        "nonce": "0x00",
                        "gasPrice": "0x0a",
                        "gasLimit": "0x029fe0",
                        "to": "0x66227cf0a560e1f6f9e94345dd1b5c6758923ba6",
                        "value": "0x00",
                        "data": "0x",
                        "v": "0x26",
                        "r": "0xf7fb7fb5ab286d9bfd349384dc542c544dc3c18a1d699d67054f1b13dfbee5ed",
                        "s": "0x3f528fa17592bff79d1ddd03f67aa339f996be017d40a19b945f45c66fef430d",
                        "sender": "0xebaf50debf10e08302fe4280c32df010463ca297"
                    }
                ],
                "uncleHeaders": [],
                "withdrawals": [],
                "receipts": [
                    {
                        "transactionHash": "0xe51059f43684ce90157799444f96eaf455ca2a7a7c3dac0ea45e4b97e80f2d33",
                        "type": "0x00",
                        "cumulativeGasUsed": "0x016bb3",
                        "bloom": "0x00000000000000000000000000000000000000000000000000000000000000000000000000000000000000000000000000000000000000000000000000000000000000000000000000000000000000000000000000000000000000000000000000000000000000000000000000000000000000000000000000000000000000000000000000000000000000000000000000000000000000000000000000000000000000000000000000000000000000000000000000000000000000000000000000000000000000000000000000000000000000000000000000000000000000000000000000000000000000000000000000000000000000000000000000000000",
                        "logs": [],
                        "status": true,
                        "rlp": "0xf901090183016bb3b9010000000000000000000000000000000000000000000000000000000000000000000000000000000000000000000000000000000000000000000000000000000000000000000000000000000000000000000000000000000000000000000000000000000000000000000000000000000000000000000000000000000000000000000000000000000000000000000000000000000000000000000000000000000000000000000000000000000000000000000000000000000000000000000000000000000000000000000000000000000000000000000000000000000000000000000000000000000000000000000000000000000000000000000000000000000000c0"
                    }
                ],
                "rlp": "0xf902a4f9023ba0fe10a41755a2f1c61e2ef110b05900a3b21e438aaaf5338599d48510169ffa9ca01dcc4de8dec75d7aab85b567b6ccd41ad312451b948a7413f0a142fd40d49347942adc25665018aa1fe0e6bc666dac8fc2697ff9baa0ab12ce3e373d8e32f4f57f2864fdfbd1225ac9ec38aad95295c03847bc1d0692a0f702bfbac12fc7372b2ceb9bbb99ffa35840beccf57f483af569ce02d2af59b3a0df2b55af1c661ce76386f2d96284a3fff8a3016cc04558c0df697fb5e51e78aeb901000000000000000000000000000000000000000000000000000000000000000000000000000000000000000000000000000000000000000000000000000000000000000000000000000000000000000000000000000000000000000000000000000000000000000000000000000000000000000000000000000000000000000000000000000000000000000000000000000000000000000000000000000000000000000000000000000000000000000000000000000000000000000000000000000000000000000000000000000000000000000000000000000000000000000000000000000000000000000000000000000000000000000000000000000000000080018401c9c38083016bb38203e800a000000000000000000000000000000000000000000000000000000000000200008800000000000000000aa056e81f171bcc55a6ff8345e692c0f86e5b48e01b996cadc001622fb5e363b4218080a00000000000000000000000000000000000000000000000000000000000000000f862f860800a83029fe09466227cf0a560e1f6f9e94345dd1b5c6758923ba6808026a0f7fb7fb5ab286d9bfd349384dc542c544dc3c18a1d699d67054f1b13dfbee5eda03f528fa17592bff79d1ddd03f67aa339f996be017d40a19b945f45c66fef430dc0c0",
                "blocknumber": "1"
            }
        ],
        "sealEngine": "NoProof",
        "_info": {
            "hash": "0xe06cb2b9642e8ba347621f35720a8b57829ce849b2dcef7354b161014c8fa9f1",
            "fixture-format": "blockchain_test",
            "comment": "`execution-specs` generated test",
            "filling-transition-tool": "2.19.0",
            "description": "Test_static_callcodecallcallcode_101_ooge_2.",
            "url": "https://github.com/ethereum/execution-specs/blob/tests-bal@v5.6.1/tests/ported_static/stStaticCall/test_static_callcodecallcallcode_101_ooge_2.py#L25",
            "metadata": {
                "opcode_count": {}
            }
        }
    }
}