{
    "tests/ported_static/stCallCreateCallCodeTest/test_call_recursive_bomb_pre_call.py::test_call_recursive_bomb_pre_call[fork_Cancun-blockchain_test_from_state_test]": {
        "network": "Cancun",
        "genesisBlockHeader": {
            "parentHash": "0x0000000000000000000000000000000000000000000000000000000000000000",
            "uncleHash": "0x1dcc4de8dec75d7aab85b567b6ccd41ad312451b948a7413f0a142fd40d49347",
            "coinbase": "0x0000000000000000000000000000000000000000",
            "stateRoot": "0xadc9be3861301341dbc771734c539fe112ba9ada6be763d6c721e31904f9a911",
            "transactionsTrie": "0x56e81f171bcc55a6ff8345e692c0f86e5b48e01b996cadc001622fb5e363b421",
            "receiptTrie": "0x56e81f171bcc55a6ff8345e692c0f86e5b48e01b996cadc001622fb5e363b421",
            "bloom": "0x00000000000000000000000000000000000000000000000000000000000000000000000000000000000000000000000000000000000000000000000000000000000000000000000000000000000000000000000000000000000000000000000000000000000000000000000000000000000000000000000000000000000000000000000000000000000000000000000000000000000000000000000000000000000000000000000000000000000000000000000000000000000000000000000000000000000000000000000000000000000000000000000000000000000000000000000000000000000000000000000000000000000000000000000000000000",
            "difficulty": "0x00",
            "number": "0x00",
            "gasLimit": "0x7fffffffffffffff",
            "gasUsed": "0x00",
            "timestamp": "0x00",
            "extraData": "0x00",
            "mixHash": "0x0000000000000000000000000000000000000000000000000000000000000000",
            "nonce": "0x0000000000000000",
            "baseFeePerGas": "0x0b",
            "withdrawalsRoot": "0x56e81f171bcc55a6ff8345e692c0f86e5b48e01b996cadc001622fb5e363b421",
            "blobGasUsed": "0x00",
            "excessBlobGas": "0x00",
            "parentBeaconBlockRoot": "0x0000000000000000000000000000000000000000000000000000000000000000",
            "hash": "0x5f9125f677eefecb96d16b8e9757a68ec765bc26c873b1a3c2773da467c7bafc"
        },
        "pre": {
            "0x000f3df6d732807ef1319fb7b8bb8522d0beac02": {
                "nonce": "0x01",
                "balance": "0x00",
                "code": "0x3373fffffffffffffffffffffffffffffffffffffffe14604d57602036146024575f5ffd5b5f35801560495762001fff810690815414603c575f5ffd5b62001fff01545f5260205ff35b5f5ffd5b62001fff42064281555f359062001fff015500",
                "storage": {}
            },
            "0x43bd0534d01632772d2b631a761b77a00a265797": {
                "nonce": "0x00",
                "balance": "0x0fffffffffffffffffffffffffffffff",
                "code": "0x",
                "storage": {}
            },
            "0x6d38b714ecb353c2f6a6fd7aa7f89572d47931a6": {
                "nonce": "0x00",
                "balance": "0x0de0b6b3a7640000",
                "code": "0x600160005401600055600060006000600060003062036b005a03f160015500",
                "storage": {}
            },
            "0xf34e45e47d76b84362787a809c23e370681d7447": {
                "nonce": "0x00",
                "balance": "0x0fffffffffffffffffffffffffffffff",
                "code": "0x6000600060006000601773bad304eb96065b2a98b57a48a06ae28d285a71b5620186a0f15060006000600060006017736d38b714ecb353c2f6a6fd7aa7f89572d47931a66707fffffffffffffff100",
                "storage": {}
            }
        },
        "postState": {
            "0x000f3df6d732807ef1319fb7b8bb8522d0beac02": {
                "nonce": "0x01",
                "balance": "0x00",
                "code": "0x3373fffffffffffffffffffffffffffffffffffffffe14604d57602036146024575f5ffd5b5f35801560495762001fff810690815414603c575f5ffd5b62001fff01545f5260205ff35b5f5ffd5b62001fff42064281555f359062001fff015500",
                "storage": {
                    "0x03e8": "0x03e8"
                }
            },
            "0x43bd0534d01632772d2b631a761b77a00a265797": {
                "nonce": "0x01",
                "balance": "0x0fffffffffffffffffffffffffaaafff",
                "code": "0x",
                "storage": {}
            },
            "0x6d38b714ecb353c2f6a6fd7aa7f89572d47931a6": {
                "nonce": "0x00",
                "balance": "0x0de0b6b3a7640017",
                "code": "0x600160005401600055600060006000600060003062036b005a03f160015500",
                "storage": {
                    "0x00": "0x0400",
                    "0x01": "0x01"
                }
            },
            "0xf34e45e47d76b84362787a809c23e370681d7447": {
                "nonce": "0x00",
                "balance": "0x0fffffffffffffffffffffffffffffd1",
                "code": "0x6000600060006000601773bad304eb96065b2a98b57a48a06ae28d285a71b5620186a0f15060006000600060006017736d38b714ecb353c2f6a6fd7aa7f89572d47931a66707fffffffffffffff100",
                "storage": {}
            },
            "0xbad304eb96065b2a98b57a48a06ae28d285a71b5": {
                "nonce": "0x00",
                "balance": "0x17",
                "code": "0x",
                "storage": {}
            }
        },
        "lastblockhash": "0x18ad6870035911d9072eab74bf62e5aa382d45c27dbfc98573ddbc03447e669d",
        "config": {
            "network": "Cancun",
            "chainid": "0x01",
            "blobSchedule": {
                "Cancun": {
                    "target": "0x03",
                    "max": "0x06",
                    "baseFeeUpdateFraction": "0x32f0ed"
                }
            }
        },
        "genesisRLP": "0xf90240f9023aa00000000000000000000000000000000000000000000000000000000000000000a01dcc4de8dec75d7aab85b567b6ccd41ad312451b948a7413f0a142fd40d49347940000000000000000000000000000000000000000a0adc9be3861301341dbc771734c539fe112ba9ada6be763d6c721e31904f9a911a056e81f171bcc55a6ff8345e692c0f86e5b48e01b996cadc001622fb5e363b421a056e81f171bcc55a6ff8345e692c0f86e5b48e01b996cadc001622fb5e363b421b90100000000000000000000000000000000000000000000000000000000000000000000000000000000000000000000000000000000000000000000000000000000000000000000000000000000000000000000000000000000000000000000000000000000000000000000000000000000000000000000000000000000000000000000000000000000000000000000000000000000000000000000000000000000000000000000000000000000000000000000000000000000000000000000000000000000000000000000000000000000000000000000000000000000000000000000000000000000000000000000000000000000000000000000000000000000008080887fffffffffffffff808000a000000000000000000000000000000000000000000000000000000000000000008800000000000000000ba056e81f171bcc55a6ff8345e692c0f86e5b48e01b996cadc001622fb5e363b4218080a00000000000000000000000000000000000000000000000000000000000000000c0c0c0",
        "blocks": [
            {
                "blockHeader": {
                    "parentHash": "0x5f9125f677eefecb96d16b8e9757a68ec765bc26c873b1a3c2773da467c7bafc",
                    "uncleHash": "0x1dcc4de8dec75d7aab85b567b6ccd41ad312451b948a7413f0a142fd40d49347",
                    "coinbase": "0x2adc25665018aa1fe0e6bc666dac8fc2697ff9ba",
                    "stateRoot": "0x83fb6d31bf7f440da54fb6d1b13f87e5a5c67e2372372cb8773103db31b6ebd9",
                    "transactionsTrie": "0x610d106071764f02e574e9b22babec925be07a835aafb48f64eb8bccd2153066",
                    "receiptTrie": "0x6c9590430347d19612d2fca0928b9462d737d16d5f4da9b1aac50ab3de19eae4",
                    "bloom": "0x00000000000000000000000000000000000000000000000000000000000000000000000000000000000000000000000000000000000000000000000000000000000000000000000000000000000000000000000000000000000000000000000000000000000000000000000000000000000000000000000000000000000000000000000000000000000000000000000000000000000000000000000000000000000000000000000000000000000000000000000000000000000000000000000000000000000000000000000000000000000000000000000000000000000000000000000000000000000000000000000000000000000000000000000000000000",
                    "difficulty": "0x00",
                    "number": "0x01",
                    "gasLimit": "0x7fffffffffffffff",
                    "gasUsed": "0x088800",
                    "timestamp": "0x03e8",
                    "extraData": "0x00",
                    "mixHash": "0x0000000000000000000000000000000000000000000000000000000000020000",
                    "nonce": "0x0000000000000000",
                    "baseFeePerGas": "0x0a",
                    "withdrawalsRoot": "0x56e81f171bcc55a6ff8345e692c0f86e5b48e01b996cadc001622fb5e363b421",
                    "blobGasUsed": "0x00",
                    "excessBlobGas": "0x00",
                    "parentBeaconBlockRoot": "0x0000000000000000000000000000000000000000000000000000000000000000",
                    "hash": "0x18ad6870035911d9072eab74bf62e5aa382d45c27dbfc98573ddbc03447e669d"
                },
                "transactions": [
                    {
                        "type": "0x00",
                        "chainId": "0x01",
                        "nonce": "0x00",
                        "gasPrice": "0x0a",
                        "gasLimit": "0x7fe0000000000001",
                        "to": "0xf34e45e47d76b84362787a809c23e370681d7447",
                        "value": "0x00",
                        "data": "0x",
                        "v": "0x26",
                        "r": "0x38b518f5233d33276c008b820b75603af31fff8573b32bbde1edb91e5941811c",
                        "s": "0x643d77569e4f8fc096069a58eb568e921936dbed8db09ede0de5ed14cf4cc587",
                        "sender": "0x43bd0534d01632772d2b631a761b77a00a265797"
                    }
                ],
                "uncleHeaders": [],
                "withdrawals": [],
                "receipts": [
                    {
                        "transactionHash": "0xe1c891827e81b0cd98365a241c1346353c06033333349bb6ab675ef5e283998c",
                        "type": "0x00",
                        "cumulativeGasUsed": "0x088800",
                        "bloom": "0x00000000000000000000000000000000000000000000000000000000000000000000000000000000000000000000000000000000000000000000000000000000000000000000000000000000000000000000000000000000000000000000000000000000000000000000000000000000000000000000000000000000000000000000000000000000000000000000000000000000000000000000000000000000000000000000000000000000000000000000000000000000000000000000000000000000000000000000000000000000000000000000000000000000000000000000000000000000000000000000000000000000000000000000000000000000",
                        "logs": [],
                        "status": true,
                        "rlp": "0xf901090183088800b9010000000000000000000000000000000000000000000000000000000000000000000000000000000000000000000000000000000000000000000000000000000000000000000000000000000000000000000000000000000000000000000000000000000000000000000000000000000000000000000000000000000000000000000000000000000000000000000000000000000000000000000000000000000000000000000000000000000000000000000000000000000000000000000000000000000000000000000000000000000000000000000000000000000000000000000000000000000000000000000000000000000000000000000000000000000000c0"
                    }
                ],
                "rlp": "0xf902adf9023fa05f9125f677eefecb96d16b8e9757a68ec765bc26c873b1a3c2773da467c7bafca01dcc4de8dec75d7aab85b567b6ccd41ad312451b948a7413f0a142fd40d49347942adc25665018aa1fe0e6bc666dac8fc2697ff9baa083fb6d31bf7f440da54fb6d1b13f87e5a5c67e2372372cb8773103db31b6ebd9a0610d106071764f02e574e9b22babec925be07a835aafb48f64eb8bccd2153066a06c9590430347d19612d2fca0928b9462d737d16d5f4da9b1aac50ab3de19eae4b90100000000000000000000000000000000000000000000000000000000000000000000000000000000000000000000000000000000000000000000000000000000000000000000000000000000000000000000000000000000000000000000000000000000000000000000000000000000000000000000000000000000000000000000000000000000000000000000000000000000000000000000000000000000000000000000000000000000000000000000000000000000000000000000000000000000000000000000000000000000000000000000000000000000000000000000000000000000000000000000000000000000000000000000000000000000008001887fffffffffffffff830888008203e800a000000000000000000000000000000000000000000000000000000000000200008800000000000000000aa056e81f171bcc55a6ff8345e692c0f86e5b48e01b996cadc001622fb5e363b4218080a00000000000000000000000000000000000000000000000000000000000000000f867f865800a887fe000000000000194f34e45e47d76b84362787a809c23e370681d7447808026a038b518f5233d33276c008b820b75603af31fff8573b32bbde1edb91e5941811ca0643d77569e4f8fc096069a58eb568e921936dbed8db09ede0de5ed14cf4cc587c0c0",
                "blocknumber": "1"
            }
        ],
        "sealEngine": "NoProof",
        "_info": {
            "hash": "0x6fec7d9efe69b9ffa2a13d134c804cd5c0868c149d7c9f465d14732bbb29f49a",
            "fixture-format": "blockchain_test",
            "comment": "`execution-specs` generated test",
            "filling-transition-tool": "2.19.0",
            "description": "Recursive call.",
            "url": "https://github.com/ethereum/execution-specs/blob/tests-snobal-devnet-5@v8037.0.0/tests/ported_static/stCallCreateCallCodeTest/test_call_recursive_bomb_pre_call.py#L24",
            "metadata": {
                "opcode_count": {}
            }
        }
    }
}