{
    "tests/ported_static/stCallDelegateCodesCallCodeHomestead/test_callcodecallcode_11_suicide_end.py::test_callcodecallcode_11_suicide_end[fork_Cancun-blockchain_test_from_state_test]": {
        "network": "Cancun",
        "genesisBlockHeader": {
            "parentHash": "0x0000000000000000000000000000000000000000000000000000000000000000",
            "uncleHash": "0x1dcc4de8dec75d7aab85b567b6ccd41ad312451b948a7413f0a142fd40d49347",
            "coinbase": "0x0000000000000000000000000000000000000000",
            "stateRoot": "0x4b432ee49e982098a6c9d756ca99fb3d18781422bacb434b212eedb92bd83a74",
            "transactionsTrie": "0x56e81f171bcc55a6ff8345e692c0f86e5b48e01b996cadc001622fb5e363b421",
            "receiptTrie": "0x56e81f171bcc55a6ff8345e692c0f86e5b48e01b996cadc001622fb5e363b421",
            "bloom": "0x00000000000000000000000000000000000000000000000000000000000000000000000000000000000000000000000000000000000000000000000000000000000000000000000000000000000000000000000000000000000000000000000000000000000000000000000000000000000000000000000000000000000000000000000000000000000000000000000000000000000000000000000000000000000000000000000000000000000000000000000000000000000000000000000000000000000000000000000000000000000000000000000000000000000000000000000000000000000000000000000000000000000000000000000000000000",
            "difficulty": "0x00",
            "number": "0x00",
            "gasLimit": "0x01c9c380",
            "gasUsed": "0x00",
            "timestamp": "0x00",
            "extraData": "0x00",
            "mixHash": "0x0000000000000000000000000000000000000000000000000000000000000000",
            "nonce": "0x0000000000000000",
            "baseFeePerGas": "0x0b",
            "withdrawalsRoot": "0x56e81f171bcc55a6ff8345e692c0f86e5b48e01b996cadc001622fb5e363b421",
            "blobGasUsed": "0x00",
            "excessBlobGas": "0x00",
            "parentBeaconBlockRoot": "0x0000000000000000000000000000000000000000000000000000000000000000",
            "hash": "0x00be1b47444603eb14e02e5015147693d74fe637ea16bd2c1d8391951d1bac2a"
        },
        "pre": {
            "0x000f3df6d732807ef1319fb7b8bb8522d0beac02": {
                "nonce": "0x01",
                "balance": "0x00",
                "code": "0x3373fffffffffffffffffffffffffffffffffffffffe14604d57602036146024575f5ffd5b5f35801560495762001fff810690815414603c575f5ffd5b62001fff01545f5260205ff35b5f5ffd5b62001fff42064281555f359062001fff015500",
                "storage": {}
            },
            "0xd66f224cbd2fabb21b17bb53c56118f32f62ebd6": {
                "nonce": "0x00",
                "balance": "0x0de0b6b3a7640000",
                "code": "0x",
                "storage": {}
            },
            "0x703b936fd4d674f0ff5d6957f61097152f8781b8": {
                "nonce": "0x00",
                "balance": "0x02540be400",
                "code": "0x600160025500",
                "storage": {}
            },
            "0x2b30b637f37e3f5b8ca4ab846331d0779a3f4671": {
                "nonce": "0x00",
                "balance": "0x0de0b6b3a7640000",
                "code": "0x6040600060406000731cca6e93108ec94304ae5eb121d323e6c317fe7a620249f0f460005500",
                "storage": {}
            },
            "0x1cca6e93108ec94304ae5eb121d323e6c317fe7a": {
                "nonce": "0x00",
                "balance": "0x02540be400",
                "code": "0x604060006040600073703b936fd4d674f0ff5d6957f61097152f8781b861c350f4600155732b30b637f37e3f5b8ca4ab846331d0779a3f4671ff00",
                "storage": {}
            }
        },
        "postState": {
            "0x000f3df6d732807ef1319fb7b8bb8522d0beac02": {
                "nonce": "0x01",
                "balance": "0x00",
                "code": "0x3373fffffffffffffffffffffffffffffffffffffffe14604d57602036146024575f5ffd5b5f35801560495762001fff810690815414603c575f5ffd5b62001fff01545f5260205ff35b5f5ffd5b62001fff42064281555f359062001fff015500",
                "storage": {
                    "0x03e8": "0x03e8"
                }
            },
            "0xd66f224cbd2fabb21b17bb53c56118f32f62ebd6": {
                "nonce": "0x01",
                "balance": "0x0de0b6b3a7551cf2",
                "code": "0x",
                "storage": {}
            },
            "0x703b936fd4d674f0ff5d6957f61097152f8781b8": {
                "nonce": "0x00",
                "balance": "0x02540be400",
                "code": "0x600160025500",
                "storage": {}
            },
            "0x2b30b637f37e3f5b8ca4ab846331d0779a3f4671": {
                "nonce": "0x00",
                "balance": "0x0de0b6b3a7640000",
                "code": "0x6040600060406000731cca6e93108ec94304ae5eb121d323e6c317fe7a620249f0f460005500",
                "storage": {
                    "0x02": "0x01",
                    "0x01": "0x01",
                    "0x00": "0x01"
                }
            },
            "0x1cca6e93108ec94304ae5eb121d323e6c317fe7a": {
                "nonce": "0x00",
                "balance": "0x02540be400",
                "code": "0x604060006040600073703b936fd4d674f0ff5d6957f61097152f8781b861c350f4600155732b30b637f37e3f5b8ca4ab846331d0779a3f4671ff00",
                "storage": {}
            }
        },
        "lastblockhash": "0x0f3a40272f9e84df87f814d324b6649c8764e0c44a77e331fb998afa2edccdf0",
        "config": {
            "network": "Cancun",
            "chainid": "0x01",
            "blobSchedule": {
                "Cancun": {
                    "target": "0x03",
                    "max": "0x06",
                    "baseFeeUpdateFraction": "0x32f0ed"
                }
            }
        },
        "genesisRLP": "0xf9023cf90236a00000000000000000000000000000000000000000000000000000000000000000a01dcc4de8dec75d7aab85b567b6ccd41ad312451b948a7413f0a142fd40d49347940000000000000000000000000000000000000000a04b432ee49e982098a6c9d756ca99fb3d18781422bacb434b212eedb92bd83a74a056e81f171bcc55a6ff8345e692c0f86e5b48e01b996cadc001622fb5e363b421a056e81f171bcc55a6ff8345e692c0f86e5b48e01b996cadc001622fb5e363b421b901000000000000000000000000000000000000000000000000000000000000000000000000000000000000000000000000000000000000000000000000000000000000000000000000000000000000000000000000000000000000000000000000000000000000000000000000000000000000000000000000000000000000000000000000000000000000000000000000000000000000000000000000000000000000000000000000000000000000000000000000000000000000000000000000000000000000000000000000000000000000000000000000000000000000000000000000000000000000000000000000000000000000000000000000000000000080808401c9c380808000a000000000000000000000000000000000000000000000000000000000000000008800000000000000000ba056e81f171bcc55a6ff8345e692c0f86e5b48e01b996cadc001622fb5e363b4218080a00000000000000000000000000000000000000000000000000000000000000000c0c0c0",
        "blocks": [
            {
                "blockHeader": {
                    "parentHash": "0x00be1b47444603eb14e02e5015147693d74fe637ea16bd2c1d8391951d1bac2a",
                    "uncleHash": "0x1dcc4de8dec75d7aab85b567b6ccd41ad312451b948a7413f0a142fd40d49347",
                    "coinbase": "0x2adc25665018aa1fe0e6bc666dac8fc2697ff9ba",
                    "stateRoot": "0x08f410c44d3b0cba728505178fa1471bcea5e3b08ecf7bee511c1e6d9c0ed3ce",
                    "transactionsTrie": "0xb583447ad1e24c91f340f738ee1eb67e8a1789b4c53b6817c0b134cf75d15b2e",
                    "receiptTrie": "0x11ac0eafea0d106fe2bda0233fa5932f01eef3a79059b65287b18d49f1223bbf",
                    "bloom": "0x00000000000000000000000000000000000000000000000000000000000000000000000000000000000000000000000000000000000000000000000000000000000000000000000000000000000000000000000000000000000000000000000000000000000000000000000000000000000000000000000000000000000000000000000000000000000000000000000000000000000000000000000000000000000000000000000000000000000000000000000000000000000000000000000000000000000000000000000000000000000000000000000000000000000000000000000000000000000000000000000000000000000000000000000000000000",
                    "difficulty": "0x00",
                    "number": "0x01",
                    "gasLimit": "0x01c9c380",
                    "gasUsed": "0x017d1b",
                    "timestamp": "0x03e8",
                    "extraData": "0x00",
                    "mixHash": "0x0000000000000000000000000000000000000000000000000000000000020000",
                    "nonce": "0x0000000000000000",
                    "baseFeePerGas": "0x0a",
                    "withdrawalsRoot": "0x56e81f171bcc55a6ff8345e692c0f86e5b48e01b996cadc001622fb5e363b421",
                    "blobGasUsed": "0x00",
                    "excessBlobGas": "0x00",
                    "parentBeaconBlockRoot": "0x0000000000000000000000000000000000000000000000000000000000000000",
                    "hash": "0x0f3a40272f9e84df87f814d324b6649c8764e0c44a77e331fb998afa2edccdf0"
                },
                "transactions": [
                    {
                        "type": "0x00",
                        "chainId": "0x01",
                        "nonce": "0x00",
                        "gasPrice": "0x0a",
                        "gasLimit": "0x2dc6c0",
                        "to": "0x2b30b637f37e3f5b8ca4ab846331d0779a3f4671",
                        "value": "0x00",
                        "data": "0x",
                        "v": "0x25",
                        "r": "0x712e68c50ec854bd1bac757cf823fd6f69d08600ce637928ffba1b68149f6fbc",
                        "s": "0x3688b19115996baff51a0f5c2627d42f3831e89e48db8e96c768301b9289ba45",
                        "sender": "0xd66f224cbd2fabb21b17bb53c56118f32f62ebd6"
                    }
                ],
                "uncleHeaders": [],
                "withdrawals": [],
                "receipts": [
                    {
                        "transactionHash": "0x177749a3844c533f05fd82c23d46061bf5c08772199b7de2c44f1b5a277344a2",
                        "type": "0x00",
                        "cumulativeGasUsed": "0x017d1b",
                        "bloom": "0x00000000000000000000000000000000000000000000000000000000000000000000000000000000000000000000000000000000000000000000000000000000000000000000000000000000000000000000000000000000000000000000000000000000000000000000000000000000000000000000000000000000000000000000000000000000000000000000000000000000000000000000000000000000000000000000000000000000000000000000000000000000000000000000000000000000000000000000000000000000000000000000000000000000000000000000000000000000000000000000000000000000000000000000000000000000",
                        "logs": [],
                        "status": true,
                        "rlp": "0xf901090183017d1bb9010000000000000000000000000000000000000000000000000000000000000000000000000000000000000000000000000000000000000000000000000000000000000000000000000000000000000000000000000000000000000000000000000000000000000000000000000000000000000000000000000000000000000000000000000000000000000000000000000000000000000000000000000000000000000000000000000000000000000000000000000000000000000000000000000000000000000000000000000000000000000000000000000000000000000000000000000000000000000000000000000000000000000000000000000000000000c0"
                    }
                ],
                "rlp": "0xf902a4f9023ba000be1b47444603eb14e02e5015147693d74fe637ea16bd2c1d8391951d1bac2aa01dcc4de8dec75d7aab85b567b6ccd41ad312451b948a7413f0a142fd40d49347942adc25665018aa1fe0e6bc666dac8fc2697ff9baa008f410c44d3b0cba728505178fa1471bcea5e3b08ecf7bee511c1e6d9c0ed3cea0b583447ad1e24c91f340f738ee1eb67e8a1789b4c53b6817c0b134cf75d15b2ea011ac0eafea0d106fe2bda0233fa5932f01eef3a79059b65287b18d49f1223bbfb901000000000000000000000000000000000000000000000000000000000000000000000000000000000000000000000000000000000000000000000000000000000000000000000000000000000000000000000000000000000000000000000000000000000000000000000000000000000000000000000000000000000000000000000000000000000000000000000000000000000000000000000000000000000000000000000000000000000000000000000000000000000000000000000000000000000000000000000000000000000000000000000000000000000000000000000000000000000000000000000000000000000000000000000000000000000080018401c9c38083017d1b8203e800a000000000000000000000000000000000000000000000000000000000000200008800000000000000000aa056e81f171bcc55a6ff8345e692c0f86e5b48e01b996cadc001622fb5e363b4218080a00000000000000000000000000000000000000000000000000000000000000000f862f860800a832dc6c0942b30b637f37e3f5b8ca4ab846331d0779a3f4671808025a0712e68c50ec854bd1bac757cf823fd6f69d08600ce637928ffba1b68149f6fbca03688b19115996baff51a0f5c2627d42f3831e89e48db8e96c768301b9289ba45c0c0",
                "blocknumber": "1"
            }
        ],
        "sealEngine": "NoProof",
        "_info": {
            "hash": "0x79c45a741739668d521849f663b521b3d95730e790ef77cc2e3ee57a7226358e",
            "fixture-format": "blockchain_test",
            "comment": "`execution-specs` generated test",
            "filling-transition-tool": "2.19.0",
            "description": "Test_callcodecallcode_11_suicide_end.",
            "url": "https://github.com/ethereum/execution-specs/blob/tests-snobal-devnet-5@v8037.0.0/tests/ported_static/stCallDelegateCodesCallCodeHomestead/test_callcodecallcode_11_suicide_end.py#L24",
            "metadata": {
                "opcode_count": {}
            }
        }
    }
}