{
    "tests/shanghai/eip3855_push0/test_push0.py::TestPush0CallContext::test_push0_contract_during_call_contexts[fork_Shanghai-blockchain_test_from_state_test-call]@bigmem": {
        "network": "Shanghai",
        "genesisBlockHeader": {
            "parentHash": "0x0000000000000000000000000000000000000000000000000000000000000000",
            "uncleHash": "0x1dcc4de8dec75d7aab85b567b6ccd41ad312451b948a7413f0a142fd40d49347",
            "coinbase": "0x0000000000000000000000000000000000000000",
            "stateRoot": "0xc4afedd8fb1dd970891dc6f1ab193f70f5d2d5185534e8a715cd1774143eee0b",
            "transactionsTrie": "0x56e81f171bcc55a6ff8345e692c0f86e5b48e01b996cadc001622fb5e363b421",
            "receiptTrie": "0x56e81f171bcc55a6ff8345e692c0f86e5b48e01b996cadc001622fb5e363b421",
            "bloom": "0x00000000000000000000000000000000000000000000000000000000000000000000000000000000000000000000000000000000000000000000000000000000000000000000000000000000000000000000000000000000000000000000000000000000000000000000000000000000000000000000000000000000000000000000000000000000000000000000000000000000000000000000000000000000000000000000000000000000000000000000000000000000000000000000000000000000000000000000000000000000000000000000000000000000000000000000000000000000000000000000000000000000000000000000000000000000",
            "difficulty": "0x00",
            "number": "0x00",
            "gasLimit": "0x07270e00",
            "gasUsed": "0x00",
            "timestamp": "0x00",
            "extraData": "0x00",
            "mixHash": "0x0000000000000000000000000000000000000000000000000000000000000000",
            "nonce": "0x0000000000000000",
            "baseFeePerGas": "0x07",
            "withdrawalsRoot": "0x56e81f171bcc55a6ff8345e692c0f86e5b48e01b996cadc001622fb5e363b421",
            "hash": "0x59d12f1793954a59e21e35138691f182a29754f8be6ca4eed20da87e2e206814"
        },
        "pre": {
            "0x1ad9bc24818784172ff393bb6f89f094d4d2ca29": {
                "nonce": "0x00",
                "balance": "0x3635c9adc5dea00000",
                "code": "0x",
                "storage": {}
            },
            "0xd39602eaf5e9bee3629b2cd83ee4fb67c9c3155d": {
                "nonce": "0x01",
                "balance": "0x00",
                "code": "0x60ff5f5360015ff3",
                "storage": {}
            },
            "0x520a79de82f45c70aa92f46cc9e8f1ec20450f17": {
                "nonce": "0x01",
                "balance": "0x00",
                "code": "0x6000600060006000600073d39602eaf5e9bee3629b2cd83ee4fb67c9c3155d620186a0f1600055600160005560016000601f3e600051600155",
                "storage": {}
            }
        },
        "postState": {
            "0x1ad9bc24818784172ff393bb6f89f094d4d2ca29": {
                "nonce": "0x01",
                "balance": "0x3635c9adc5de95a0ce",
                "code": "0x",
                "storage": {}
            },
            "0xd39602eaf5e9bee3629b2cd83ee4fb67c9c3155d": {
                "nonce": "0x01",
                "balance": "0x00",
                "code": "0x60ff5f5360015ff3",
                "storage": {}
            },
            "0x520a79de82f45c70aa92f46cc9e8f1ec20450f17": {
                "nonce": "0x01",
                "balance": "0x00",
                "code": "0x6000600060006000600073d39602eaf5e9bee3629b2cd83ee4fb67c9c3155d620186a0f1600055600160005560016000601f3e600051600155",
                "storage": {
                    "0x00": "0x01",
                    "0x01": "0xff"
                }
            },
            "0x2adc25665018aa1fe0e6bc666dac8fc2697ff9ba": {
                "nonce": "0x00",
                "balance": "0x031c8f",
                "code": "0x",
                "storage": {}
            }
        },
        "lastblockhash": "0xb216c8da71f85d98a1bead7e85dbb162756bbdc91d9f1414658fb363f4ffb99a",
        "config": {
            "network": "Shanghai",
            "chainid": "0x01"
        },
        "genesisRLP": "0xf90219f90213a00000000000000000000000000000000000000000000000000000000000000000a01dcc4de8dec75d7aab85b567b6ccd41ad312451b948a7413f0a142fd40d49347940000000000000000000000000000000000000000a0c4afedd8fb1dd970891dc6f1ab193f70f5d2d5185534e8a715cd1774143eee0ba056e81f171bcc55a6ff8345e692c0f86e5b48e01b996cadc001622fb5e363b421a056e81f171bcc55a6ff8345e692c0f86e5b48e01b996cadc001622fb5e363b421b901000000000000000000000000000000000000000000000000000000000000000000000000000000000000000000000000000000000000000000000000000000000000000000000000000000000000000000000000000000000000000000000000000000000000000000000000000000000000000000000000000000000000000000000000000000000000000000000000000000000000000000000000000000000000000000000000000000000000000000000000000000000000000000000000000000000000000000000000000000000000000000000000000000000000000000000000000000000000000000000000000000000000000000000000000000000080808407270e00808000a0000000000000000000000000000000000000000000000000000000000000000088000000000000000007a056e81f171bcc55a6ff8345e692c0f86e5b48e01b996cadc001622fb5e363b421c0c0c0",
        "blocks": [
            {
                "blockHeader": {
                    "parentHash": "0x59d12f1793954a59e21e35138691f182a29754f8be6ca4eed20da87e2e206814",
                    "uncleHash": "0x1dcc4de8dec75d7aab85b567b6ccd41ad312451b948a7413f0a142fd40d49347",
                    "coinbase": "0x2adc25665018aa1fe0e6bc666dac8fc2697ff9ba",
                    "stateRoot": "0x974bc65cdd2babaa3d0ddb19aeba893abb86a892b9768e848a86879022ae885c",
                    "transactionsTrie": "0x40febf1002231f0552e00864016f8d763d9ee3130e634e1ad23e370a20420dc4",
                    "receiptTrie": "0x64d2b19c0d71c3f3fb78dc292f9c5c3a52eac4fbc43dbcb62c622ba33a9e56c8",
                    "bloom": "0x00000000000000000000000000000000000000000000000000000000000000000000000000000000000000000000000000000000000000000000000000000000000000000000000000000000000000000000000000000000000000000000000000000000000000000000000000000000000000000000000000000000000000000000000000000000000000000000000000000000000000000000000000000000000000000000000000000000000000000000000000000000000000000000000000000000000000000000000000000000000000000000000000000000000000000000000000000000000000000000000000000000000000000000000000000000",
                    "difficulty": "0x00",
                    "number": "0x01",
                    "gasLimit": "0x07270e00",
                    "gasUsed": "0x010985",
                    "timestamp": "0x03e8",
                    "extraData": "0x00",
                    "mixHash": "0x0000000000000000000000000000000000000000000000000000000000000000",
                    "nonce": "0x0000000000000000",
                    "baseFeePerGas": "0x07",
                    "withdrawalsRoot": "0x56e81f171bcc55a6ff8345e692c0f86e5b48e01b996cadc001622fb5e363b421",
                    "hash": "0xb216c8da71f85d98a1bead7e85dbb162756bbdc91d9f1414658fb363f4ffb99a"
                },
                "transactions": [
                    {
                        "type": "0x00",
                        "chainId": "0x01",
                        "nonce": "0x00",
                        "gasPrice": "0x0a",
                        "gasLimit": "0x07a120",
                        "to": "0x520a79de82f45c70aa92f46cc9e8f1ec20450f17",
                        "value": "0x00",
                        "data": "0x",
                        "v": "0x26",
                        "r": "0x0fbf1be4ee6d662603b860d80fe303de945851135dfe0c3545fce00558053417",
                        "s": "0x12edc3aebb3d6e867b931dd6471d5632aa14fcabcb7e9c2d985337841ef59644",
                        "sender": "0x1ad9bc24818784172ff393bb6f89f094d4d2ca29"
                    }
                ],
                "uncleHeaders": [],
                "withdrawals": [],
                "receipts": [
                    {
                        "transactionHash": "0x87a83b411547b967293b73a98a9a23f2812ea2ea60045754961493dab864ce3e",
                        "type": "0x00",
                        "cumulativeGasUsed": "0x010985",
                        "bloom": "0x00000000000000000000000000000000000000000000000000000000000000000000000000000000000000000000000000000000000000000000000000000000000000000000000000000000000000000000000000000000000000000000000000000000000000000000000000000000000000000000000000000000000000000000000000000000000000000000000000000000000000000000000000000000000000000000000000000000000000000000000000000000000000000000000000000000000000000000000000000000000000000000000000000000000000000000000000000000000000000000000000000000000000000000000000000000",
                        "logs": [],
                        "status": true,
                        "rlp": "0xf901090183010985b9010000000000000000000000000000000000000000000000000000000000000000000000000000000000000000000000000000000000000000000000000000000000000000000000000000000000000000000000000000000000000000000000000000000000000000000000000000000000000000000000000000000000000000000000000000000000000000000000000000000000000000000000000000000000000000000000000000000000000000000000000000000000000000000000000000000000000000000000000000000000000000000000000000000000000000000000000000000000000000000000000000000000000000000000000000000000c0"
                    }
                ],
                "rlp": "0xf90281f90218a059d12f1793954a59e21e35138691f182a29754f8be6ca4eed20da87e2e206814a01dcc4de8dec75d7aab85b567b6ccd41ad312451b948a7413f0a142fd40d49347942adc25665018aa1fe0e6bc666dac8fc2697ff9baa0974bc65cdd2babaa3d0ddb19aeba893abb86a892b9768e848a86879022ae885ca040febf1002231f0552e00864016f8d763d9ee3130e634e1ad23e370a20420dc4a064d2b19c0d71c3f3fb78dc292f9c5c3a52eac4fbc43dbcb62c622ba33a9e56c8b901000000000000000000000000000000000000000000000000000000000000000000000000000000000000000000000000000000000000000000000000000000000000000000000000000000000000000000000000000000000000000000000000000000000000000000000000000000000000000000000000000000000000000000000000000000000000000000000000000000000000000000000000000000000000000000000000000000000000000000000000000000000000000000000000000000000000000000000000000000000000000000000000000000000000000000000000000000000000000000000000000000000000000000000000000000000080018407270e00830109858203e800a0000000000000000000000000000000000000000000000000000000000000000088000000000000000007a056e81f171bcc55a6ff8345e692c0f86e5b48e01b996cadc001622fb5e363b421f862f860800a8307a12094520a79de82f45c70aa92f46cc9e8f1ec20450f17808026a00fbf1be4ee6d662603b860d80fe303de945851135dfe0c3545fce00558053417a012edc3aebb3d6e867b931dd6471d5632aa14fcabcb7e9c2d985337841ef59644c0c0",
                "blocknumber": "1"
            }
        ],
        "sealEngine": "NoProof",
        "_info": {
            "hash": "0x40fc727a957b7cd4e73e8daf4763e8edbac591228da1d44de4792608388c4302",
            "fixture-format": "blockchain_test",
            "comment": "`execution-specs` generated test",
            "filling-transition-tool": "2.19.0",
            "description": "Test class documentation:\n\nTest the PUSH0 operation in various contract call contexts.\n\nTest PUSH0 in the following contract call contexts:\n\n- CALL,\n- CALLCODE,\n- DELEGATECALL,\n- STATICCALL.\n\n\nTest PUSH0 during various call contexts.",
            "url": "https://github.com/ethereum/execution-specs/blob/tests-bal@v5.4.0/tests/shanghai/eip3855_push0/test_push0.py#L137",
            "opcode_count": {},
            "reference-spec": "https://github.com/ethereum/EIPs/blob/master/EIPS/eip-3855.md",
            "reference-spec-version": "6f85bd73336de4aacfad7ac3bb3a7e1ba2d68f51"
        }
    },
    "tests/shanghai/eip3855_push0/test_push0.py::TestPush0CallContext::test_push0_contract_during_call_contexts[fork_Shanghai-blockchain_test_from_state_test-callcode]@bigmem": {
        "network": "Shanghai",
        "genesisBlockHeader": {
            "parentHash": "0x0000000000000000000000000000000000000000000000000000000000000000",
            "uncleHash": "0x1dcc4de8dec75d7aab85b567b6ccd41ad312451b948a7413f0a142fd40d49347",
            "coinbase": "0x0000000000000000000000000000000000000000",
            "stateRoot": "0xeb1a63866e2189b49772c1a87846ece9bd0443a015ae37835007ee0f44a0e947",
            "transactionsTrie": "0x56e81f171bcc55a6ff8345e692c0f86e5b48e01b996cadc001622fb5e363b421",
            "receiptTrie": "0x56e81f171bcc55a6ff8345e692c0f86e5b48e01b996cadc001622fb5e363b421",
            "bloom": "0x00000000000000000000000000000000000000000000000000000000000000000000000000000000000000000000000000000000000000000000000000000000000000000000000000000000000000000000000000000000000000000000000000000000000000000000000000000000000000000000000000000000000000000000000000000000000000000000000000000000000000000000000000000000000000000000000000000000000000000000000000000000000000000000000000000000000000000000000000000000000000000000000000000000000000000000000000000000000000000000000000000000000000000000000000000000",
            "difficulty": "0x00",
            "number": "0x00",
            "gasLimit": "0x07270e00",
            "gasUsed": "0x00",
            "timestamp": "0x00",
            "extraData": "0x00",
            "mixHash": "0x0000000000000000000000000000000000000000000000000000000000000000",
            "nonce": "0x0000000000000000",
            "baseFeePerGas": "0x07",
            "withdrawalsRoot": "0x56e81f171bcc55a6ff8345e692c0f86e5b48e01b996cadc001622fb5e363b421",
            "hash": "0xc582489c683dc79e7ff8104f0a9a4f08fe9da742a3a6818b67b2662c614f2193"
        },
        "pre": {
            "0x1ad9bc24818784172ff393bb6f89f094d4d2ca29": {
                "nonce": "0x00",
                "balance": "0x3635c9adc5dea00000",
                "code": "0x",
                "storage": {}
            },
            "0xd39602eaf5e9bee3629b2cd83ee4fb67c9c3155d": {
                "nonce": "0x01",
                "balance": "0x00",
                "code": "0x60ff5f5360015ff3",
                "storage": {}
            },
            "0xcefa1ac21f44088445ad0e427e5967a83dfd6a46": {
                "nonce": "0x01",
                "balance": "0x00",
                "code": "0x6000600060006000600073d39602eaf5e9bee3629b2cd83ee4fb67c9c3155d620186a0f2600055600160005560016000601f3e600051600155",
                "storage": {}
            }
        },
        "postState": {
            "0x1ad9bc24818784172ff393bb6f89f094d4d2ca29": {
                "nonce": "0x01",
                "balance": "0x3635c9adc5de95a0ce",
                "code": "0x",
                "storage": {}
            },
            "0xd39602eaf5e9bee3629b2cd83ee4fb67c9c3155d": {
                "nonce": "0x01",
                "balance": "0x00",
                "code": "0x60ff5f5360015ff3",
                "storage": {}
            },
            "0xcefa1ac21f44088445ad0e427e5967a83dfd6a46": {
                "nonce": "0x01",
                "balance": "0x00",
                "code": "0x6000600060006000600073d39602eaf5e9bee3629b2cd83ee4fb67c9c3155d620186a0f2600055600160005560016000601f3e600051600155",
                "storage": {
                    "0x00": "0x01",
                    "0x01": "0xff"
                }
            },
            "0x2adc25665018aa1fe0e6bc666dac8fc2697ff9ba": {
                "nonce": "0x00",
                "balance": "0x031c8f",
                "code": "0x",
                "storage": {}
            }
        },
        "lastblockhash": "0x4ce9020a328aa9e3439bfad3c9353d1ae86eb9a581f1fe04ebb68227d59e86e7",
        "config": {
            "network": "Shanghai",
            "chainid": "0x01"
        },
        "genesisRLP": "0xf90219f90213a00000000000000000000000000000000000000000000000000000000000000000a01dcc4de8dec75d7aab85b567b6ccd41ad312451b948a7413f0a142fd40d49347940000000000000000000000000000000000000000a0eb1a63866e2189b49772c1a87846ece9bd0443a015ae37835007ee0f44a0e947a056e81f171bcc55a6ff8345e692c0f86e5b48e01b996cadc001622fb5e363b421a056e81f171bcc55a6ff8345e692c0f86e5b48e01b996cadc001622fb5e363b421b901000000000000000000000000000000000000000000000000000000000000000000000000000000000000000000000000000000000000000000000000000000000000000000000000000000000000000000000000000000000000000000000000000000000000000000000000000000000000000000000000000000000000000000000000000000000000000000000000000000000000000000000000000000000000000000000000000000000000000000000000000000000000000000000000000000000000000000000000000000000000000000000000000000000000000000000000000000000000000000000000000000000000000000000000000000000080808407270e00808000a0000000000000000000000000000000000000000000000000000000000000000088000000000000000007a056e81f171bcc55a6ff8345e692c0f86e5b48e01b996cadc001622fb5e363b421c0c0c0",
        "blocks": [
            {
                "blockHeader": {
                    "parentHash": "0xc582489c683dc79e7ff8104f0a9a4f08fe9da742a3a6818b67b2662c614f2193",
                    "uncleHash": "0x1dcc4de8dec75d7aab85b567b6ccd41ad312451b948a7413f0a142fd40d49347",
                    "coinbase": "0x2adc25665018aa1fe0e6bc666dac8fc2697ff9ba",
                    "stateRoot": "0x02ffb27aec4ec26f35657769f1fe683f3c0ff85a5ebaaf90a577e30209b63d1e",
                    "transactionsTrie": "0x28178187baa1ed6da1a20f4eb5cbd247bfb37b627ed8aad42a0dd7b917316d91",
                    "receiptTrie": "0x64d2b19c0d71c3f3fb78dc292f9c5c3a52eac4fbc43dbcb62c622ba33a9e56c8",
                    "bloom": "0x00000000000000000000000000000000000000000000000000000000000000000000000000000000000000000000000000000000000000000000000000000000000000000000000000000000000000000000000000000000000000000000000000000000000000000000000000000000000000000000000000000000000000000000000000000000000000000000000000000000000000000000000000000000000000000000000000000000000000000000000000000000000000000000000000000000000000000000000000000000000000000000000000000000000000000000000000000000000000000000000000000000000000000000000000000000",
                    "difficulty": "0x00",
                    "number": "0x01",
                    "gasLimit": "0x07270e00",
                    "gasUsed": "0x010985",
                    "timestamp": "0x03e8",
                    "extraData": "0x00",
                    "mixHash": "0x0000000000000000000000000000000000000000000000000000000000000000",
                    "nonce": "0x0000000000000000",
                    "baseFeePerGas": "0x07",
                    "withdrawalsRoot": "0x56e81f171bcc55a6ff8345e692c0f86e5b48e01b996cadc001622fb5e363b421",
                    "hash": "0x4ce9020a328aa9e3439bfad3c9353d1ae86eb9a581f1fe04ebb68227d59e86e7"
                },
                "transactions": [
                    {
                        "type": "0x00",
                        "chainId": "0x01",
                        "nonce": "0x00",
                        "gasPrice": "0x0a",
                        "gasLimit": "0x07a120",
                        "to": "0xcefa1ac21f44088445ad0e427e5967a83dfd6a46",
                        "value": "0x00",
                        "data": "0x",
                        "v": "0x26",
                        "r": "0xa4a2977a731ecf3e10822cde481c6dd06c75c361e08864c211480ceb0b79ccd4",
                        "s": "0x1d4002f23c417f413a19e1688bde10852946a62810df441cac7d357dc062814b",
                        "sender": "0x1ad9bc24818784172ff393bb6f89f094d4d2ca29"
                    }
                ],
                "uncleHeaders": [],
                "withdrawals": [],
                "receipts": [
                    {
                        "transactionHash": "0x043f766efe1e00c9c6cacb3856bc9a04b2aaa7d4ff5f4733a9eeb8254fb29259",
                        "type": "0x00",
                        "cumulativeGasUsed": "0x010985",
                        "bloom": "0x00000000000000000000000000000000000000000000000000000000000000000000000000000000000000000000000000000000000000000000000000000000000000000000000000000000000000000000000000000000000000000000000000000000000000000000000000000000000000000000000000000000000000000000000000000000000000000000000000000000000000000000000000000000000000000000000000000000000000000000000000000000000000000000000000000000000000000000000000000000000000000000000000000000000000000000000000000000000000000000000000000000000000000000000000000000",
                        "logs": [],
                        "status": true,
                        "rlp": "0xf901090183010985b9010000000000000000000000000000000000000000000000000000000000000000000000000000000000000000000000000000000000000000000000000000000000000000000000000000000000000000000000000000000000000000000000000000000000000000000000000000000000000000000000000000000000000000000000000000000000000000000000000000000000000000000000000000000000000000000000000000000000000000000000000000000000000000000000000000000000000000000000000000000000000000000000000000000000000000000000000000000000000000000000000000000000000000000000000000000000c0"
                    }
                ],
                "rlp": "0xf90281f90218a0c582489c683dc79e7ff8104f0a9a4f08fe9da742a3a6818b67b2662c614f2193a01dcc4de8dec75d7aab85b567b6ccd41ad312451b948a7413f0a142fd40d49347942adc25665018aa1fe0e6bc666dac8fc2697ff9baa002ffb27aec4ec26f35657769f1fe683f3c0ff85a5ebaaf90a577e30209b63d1ea028178187baa1ed6da1a20f4eb5cbd247bfb37b627ed8aad42a0dd7b917316d91a064d2b19c0d71c3f3fb78dc292f9c5c3a52eac4fbc43dbcb62c622ba33a9e56c8b901000000000000000000000000000000000000000000000000000000000000000000000000000000000000000000000000000000000000000000000000000000000000000000000000000000000000000000000000000000000000000000000000000000000000000000000000000000000000000000000000000000000000000000000000000000000000000000000000000000000000000000000000000000000000000000000000000000000000000000000000000000000000000000000000000000000000000000000000000000000000000000000000000000000000000000000000000000000000000000000000000000000000000000000000000000000080018407270e00830109858203e800a0000000000000000000000000000000000000000000000000000000000000000088000000000000000007a056e81f171bcc55a6ff8345e692c0f86e5b48e01b996cadc001622fb5e363b421f862f860800a8307a12094cefa1ac21f44088445ad0e427e5967a83dfd6a46808026a0a4a2977a731ecf3e10822cde481c6dd06c75c361e08864c211480ceb0b79ccd4a01d4002f23c417f413a19e1688bde10852946a62810df441cac7d357dc062814bc0c0",
                "blocknumber": "1"
            }
        ],
        "sealEngine": "NoProof",
        "_info": {
            "hash": "0xaac214c60bf4ac05a877dd863c05494429e7537a775b88a5825bd80351fcc85f",
            "fixture-format": "blockchain_test",
            "comment": "`execution-specs` generated test",
            "filling-transition-tool": "2.19.0",
            "description": "Test class documentation:\n\nTest the PUSH0 operation in various contract call contexts.\n\nTest PUSH0 in the following contract call contexts:\n\n- CALL,\n- CALLCODE,\n- DELEGATECALL,\n- STATICCALL.\n\n\nTest PUSH0 during various call contexts.",
            "url": "https://github.com/ethereum/execution-specs/blob/tests-bal@v5.4.0/tests/shanghai/eip3855_push0/test_push0.py#L137",
            "opcode_count": {},
            "reference-spec": "https://github.com/ethereum/EIPs/blob/master/EIPS/eip-3855.md",
            "reference-spec-version": "6f85bd73336de4aacfad7ac3bb3a7e1ba2d68f51"
        }
    },
    "tests/shanghai/eip3855_push0/test_push0.py::TestPush0CallContext::test_push0_contract_during_call_contexts[fork_Shanghai-blockchain_test_from_state_test-delegatecall]@bigmem": {
        "network": "Shanghai",
        "genesisBlockHeader": {
            "parentHash": "0x0000000000000000000000000000000000000000000000000000000000000000",
            "uncleHash": "0x1dcc4de8dec75d7aab85b567b6ccd41ad312451b948a7413f0a142fd40d49347",
            "coinbase": "0x0000000000000000000000000000000000000000",
            "stateRoot": "0x6d3d715815938312c5251fc9612686436acfca3b2cd2fdc985d9c01a066e380c",
            "transactionsTrie": "0x56e81f171bcc55a6ff8345e692c0f86e5b48e01b996cadc001622fb5e363b421",
            "receiptTrie": "0x56e81f171bcc55a6ff8345e692c0f86e5b48e01b996cadc001622fb5e363b421",
            "bloom": "0x00000000000000000000000000000000000000000000000000000000000000000000000000000000000000000000000000000000000000000000000000000000000000000000000000000000000000000000000000000000000000000000000000000000000000000000000000000000000000000000000000000000000000000000000000000000000000000000000000000000000000000000000000000000000000000000000000000000000000000000000000000000000000000000000000000000000000000000000000000000000000000000000000000000000000000000000000000000000000000000000000000000000000000000000000000000",
            "difficulty": "0x00",
            "number": "0x00",
            "gasLimit": "0x07270e00",
            "gasUsed": "0x00",
            "timestamp": "0x00",
            "extraData": "0x00",
            "mixHash": "0x0000000000000000000000000000000000000000000000000000000000000000",
            "nonce": "0x0000000000000000",
            "baseFeePerGas": "0x07",
            "withdrawalsRoot": "0x56e81f171bcc55a6ff8345e692c0f86e5b48e01b996cadc001622fb5e363b421",
            "hash": "0x3cbcbe4ded2d8ce3faef9910cf176b855f9eca93b9926ac1625e3a2f249acbd7"
        },
        "pre": {
            "0x1ad9bc24818784172ff393bb6f89f094d4d2ca29": {
                "nonce": "0x00",
                "balance": "0x3635c9adc5dea00000",
                "code": "0x",
                "storage": {}
            },
            "0xd39602eaf5e9bee3629b2cd83ee4fb67c9c3155d": {
                "nonce": "0x01",
                "balance": "0x00",
                "code": "0x60ff5f5360015ff3",
                "storage": {}
            },
            "0x3832c7fcdc74ea6308a83d8632eaf32a5db14f26": {
                "nonce": "0x01",
                "balance": "0x00",
                "code": "0x600060006000600073d39602eaf5e9bee3629b2cd83ee4fb67c9c3155d620186a0f4600055600160005560016000601f3e600051600155",
                "storage": {}
            }
        },
        "postState": {
            "0x1ad9bc24818784172ff393bb6f89f094d4d2ca29": {
                "nonce": "0x01",
                "balance": "0x3635c9adc5de95a0ec",
                "code": "0x",
                "storage": {}
            },
            "0xd39602eaf5e9bee3629b2cd83ee4fb67c9c3155d": {
                "nonce": "0x01",
                "balance": "0x00",
                "code": "0x60ff5f5360015ff3",
                "storage": {}
            },
            "0x3832c7fcdc74ea6308a83d8632eaf32a5db14f26": {
                "nonce": "0x01",
                "balance": "0x00",
                "code": "0x600060006000600073d39602eaf5e9bee3629b2cd83ee4fb67c9c3155d620186a0f4600055600160005560016000601f3e600051600155",
                "storage": {
                    "0x00": "0x01",
                    "0x01": "0xff"
                }
            },
            "0x2adc25665018aa1fe0e6bc666dac8fc2697ff9ba": {
                "nonce": "0x00",
                "balance": "0x031c86",
                "code": "0x",
                "storage": {}
            }
        },
        "lastblockhash": "0x1d14872fca402b5f60a376bdc73d0cd614ed5b3ff96a24d5652638098fa83de5",
        "config": {
            "network": "Shanghai",
            "chainid": "0x01"
        },
        "genesisRLP": "0xf90219f90213a00000000000000000000000000000000000000000000000000000000000000000a01dcc4de8dec75d7aab85b567b6ccd41ad312451b948a7413f0a142fd40d49347940000000000000000000000000000000000000000a06d3d715815938312c5251fc9612686436acfca3b2cd2fdc985d9c01a066e380ca056e81f171bcc55a6ff8345e692c0f86e5b48e01b996cadc001622fb5e363b421a056e81f171bcc55a6ff8345e692c0f86e5b48e01b996cadc001622fb5e363b421b901000000000000000000000000000000000000000000000000000000000000000000000000000000000000000000000000000000000000000000000000000000000000000000000000000000000000000000000000000000000000000000000000000000000000000000000000000000000000000000000000000000000000000000000000000000000000000000000000000000000000000000000000000000000000000000000000000000000000000000000000000000000000000000000000000000000000000000000000000000000000000000000000000000000000000000000000000000000000000000000000000000000000000000000000000000000080808407270e00808000a0000000000000000000000000000000000000000000000000000000000000000088000000000000000007a056e81f171bcc55a6ff8345e692c0f86e5b48e01b996cadc001622fb5e363b421c0c0c0",
        "blocks": [
            {
                "blockHeader": {
                    "parentHash": "0x3cbcbe4ded2d8ce3faef9910cf176b855f9eca93b9926ac1625e3a2f249acbd7",
                    "uncleHash": "0x1dcc4de8dec75d7aab85b567b6ccd41ad312451b948a7413f0a142fd40d49347",
                    "coinbase": "0x2adc25665018aa1fe0e6bc666dac8fc2697ff9ba",
                    "stateRoot": "0xa3401cd1e99e3cd0277624609ac82b35f4efe8c769be734a8f607e6f1308f414",
                    "transactionsTrie": "0x70d030d2e8f202de464b43e67077eb45c912c53b70c23695a3f1b0583656fad2",
                    "receiptTrie": "0x2ab89a18d916ebe51698487b52c7ccd995495a95d4bdabcf1cf93aeb8d252839",
                    "bloom": "0x00000000000000000000000000000000000000000000000000000000000000000000000000000000000000000000000000000000000000000000000000000000000000000000000000000000000000000000000000000000000000000000000000000000000000000000000000000000000000000000000000000000000000000000000000000000000000000000000000000000000000000000000000000000000000000000000000000000000000000000000000000000000000000000000000000000000000000000000000000000000000000000000000000000000000000000000000000000000000000000000000000000000000000000000000000000",
                    "difficulty": "0x00",
                    "number": "0x01",
                    "gasLimit": "0x07270e00",
                    "gasUsed": "0x010982",
                    "timestamp": "0x03e8",
                    "extraData": "0x00",
                    "mixHash": "0x0000000000000000000000000000000000000000000000000000000000000000",
                    "nonce": "0x0000000000000000",
                    "baseFeePerGas": "0x07",
                    "withdrawalsRoot": "0x56e81f171bcc55a6ff8345e692c0f86e5b48e01b996cadc001622fb5e363b421",
                    "hash": "0x1d14872fca402b5f60a376bdc73d0cd614ed5b3ff96a24d5652638098fa83de5"
                },
                "transactions": [
                    {
                        "type": "0x00",
                        "chainId": "0x01",
                        "nonce": "0x00",
                        "gasPrice": "0x0a",
                        "gasLimit": "0x07a120",
                        "to": "0x3832c7fcdc74ea6308a83d8632eaf32a5db14f26",
                        "value": "0x00",
                        "data": "0x",
                        "v": "0x26",
                        "r": "0xd052eecdcd5225f3ffc311fb20ec5bd7540e1a39717261e780f6ccef39bbf8f4",
                        "s": "0x6fa8c73f26336b2842532ede8ed67cd805c4ed7f366e067cd70fd9b9957f87e7",
                        "sender": "0x1ad9bc24818784172ff393bb6f89f094d4d2ca29"
                    }
                ],
                "uncleHeaders": [],
                "withdrawals": [],
                "receipts": [
                    {
                        "transactionHash": "0xe416e152bf3fdaacc396cddff2ab412860252cbfc36fcc620215caae16b26f7a",
                        "type": "0x00",
                        "cumulativeGasUsed": "0x010982",
                        "bloom": "0x00000000000000000000000000000000000000000000000000000000000000000000000000000000000000000000000000000000000000000000000000000000000000000000000000000000000000000000000000000000000000000000000000000000000000000000000000000000000000000000000000000000000000000000000000000000000000000000000000000000000000000000000000000000000000000000000000000000000000000000000000000000000000000000000000000000000000000000000000000000000000000000000000000000000000000000000000000000000000000000000000000000000000000000000000000000",
                        "logs": [],
                        "status": true,
                        "rlp": "0xf901090183010982b9010000000000000000000000000000000000000000000000000000000000000000000000000000000000000000000000000000000000000000000000000000000000000000000000000000000000000000000000000000000000000000000000000000000000000000000000000000000000000000000000000000000000000000000000000000000000000000000000000000000000000000000000000000000000000000000000000000000000000000000000000000000000000000000000000000000000000000000000000000000000000000000000000000000000000000000000000000000000000000000000000000000000000000000000000000000000c0"
                    }
                ],
                "rlp": "0xf90281f90218a03cbcbe4ded2d8ce3faef9910cf176b855f9eca93b9926ac1625e3a2f249acbd7a01dcc4de8dec75d7aab85b567b6ccd41ad312451b948a7413f0a142fd40d49347942adc25665018aa1fe0e6bc666dac8fc2697ff9baa0a3401cd1e99e3cd0277624609ac82b35f4efe8c769be734a8f607e6f1308f414a070d030d2e8f202de464b43e67077eb45c912c53b70c23695a3f1b0583656fad2a02ab89a18d916ebe51698487b52c7ccd995495a95d4bdabcf1cf93aeb8d252839b901000000000000000000000000000000000000000000000000000000000000000000000000000000000000000000000000000000000000000000000000000000000000000000000000000000000000000000000000000000000000000000000000000000000000000000000000000000000000000000000000000000000000000000000000000000000000000000000000000000000000000000000000000000000000000000000000000000000000000000000000000000000000000000000000000000000000000000000000000000000000000000000000000000000000000000000000000000000000000000000000000000000000000000000000000000000080018407270e00830109828203e800a0000000000000000000000000000000000000000000000000000000000000000088000000000000000007a056e81f171bcc55a6ff8345e692c0f86e5b48e01b996cadc001622fb5e363b421f862f860800a8307a120943832c7fcdc74ea6308a83d8632eaf32a5db14f26808026a0d052eecdcd5225f3ffc311fb20ec5bd7540e1a39717261e780f6ccef39bbf8f4a06fa8c73f26336b2842532ede8ed67cd805c4ed7f366e067cd70fd9b9957f87e7c0c0",
                "blocknumber": "1"
            }
        ],
        "sealEngine": "NoProof",
        "_info": {
            "hash": "0x17ecd65a77ab9d978ea4e9b62cc58f25068712c055af7ce90938ce38055b72a4",
            "fixture-format": "blockchain_test",
            "comment": "`execution-specs` generated test",
            "filling-transition-tool": "2.19.0",
            "description": "Test class documentation:\n\nTest the PUSH0 operation in various contract call contexts.\n\nTest PUSH0 in the following contract call contexts:\n\n- CALL,\n- CALLCODE,\n- DELEGATECALL,\n- STATICCALL.\n\n\nTest PUSH0 during various call contexts.",
            "url": "https://github.com/ethereum/execution-specs/blob/tests-bal@v5.4.0/tests/shanghai/eip3855_push0/test_push0.py#L137",
            "opcode_count": {},
            "reference-spec": "https://github.com/ethereum/EIPs/blob/master/EIPS/eip-3855.md",
            "reference-spec-version": "6f85bd73336de4aacfad7ac3bb3a7e1ba2d68f51"
        }
    },
    "tests/shanghai/eip3855_push0/test_push0.py::TestPush0CallContext::test_push0_contract_during_call_contexts[fork_Shanghai-blockchain_test_from_state_test-staticcall]@bigmem": {
        "network": "Shanghai",
        "genesisBlockHeader": {
            "parentHash": "0x0000000000000000000000000000000000000000000000000000000000000000",
            "uncleHash": "0x1dcc4de8dec75d7aab85b567b6ccd41ad312451b948a7413f0a142fd40d49347",
            "coinbase": "0x0000000000000000000000000000000000000000",
            "stateRoot": "0x3232e452b374ce03a28a26e2383f4ff062e7dc69a91e23ee6d0dc67e59a1c35e",
            "transactionsTrie": "0x56e81f171bcc55a6ff8345e692c0f86e5b48e01b996cadc001622fb5e363b421",
            "receiptTrie": "0x56e81f171bcc55a6ff8345e692c0f86e5b48e01b996cadc001622fb5e363b421",
            "bloom": "0x00000000000000000000000000000000000000000000000000000000000000000000000000000000000000000000000000000000000000000000000000000000000000000000000000000000000000000000000000000000000000000000000000000000000000000000000000000000000000000000000000000000000000000000000000000000000000000000000000000000000000000000000000000000000000000000000000000000000000000000000000000000000000000000000000000000000000000000000000000000000000000000000000000000000000000000000000000000000000000000000000000000000000000000000000000000",
            "difficulty": "0x00",
            "number": "0x00",
            "gasLimit": "0x07270e00",
            "gasUsed": "0x00",
            "timestamp": "0x00",
            "extraData": "0x00",
            "mixHash": "0x0000000000000000000000000000000000000000000000000000000000000000",
            "nonce": "0x0000000000000000",
            "baseFeePerGas": "0x07",
            "withdrawalsRoot": "0x56e81f171bcc55a6ff8345e692c0f86e5b48e01b996cadc001622fb5e363b421",
            "hash": "0xbf17426ecfaef2ad3dfc57a09dba347896d643d9fe431eb4455b1f02d9c7f166"
        },
        "pre": {
            "0x1ad9bc24818784172ff393bb6f89f094d4d2ca29": {
                "nonce": "0x00",
                "balance": "0x3635c9adc5dea00000",
                "code": "0x",
                "storage": {}
            },
            "0xd39602eaf5e9bee3629b2cd83ee4fb67c9c3155d": {
                "nonce": "0x01",
                "balance": "0x00",
                "code": "0x60ff5f5360015ff3",
                "storage": {}
            },
            "0x2737b04e10c5878e3e37b58394a86fbda5a3fde7": {
                "nonce": "0x01",
                "balance": "0x00",
                "code": "0x600060006000600073d39602eaf5e9bee3629b2cd83ee4fb67c9c3155d620186a0fa600055600160005560016000601f3e600051600155",
                "storage": {}
            }
        },
        "postState": {
            "0x1ad9bc24818784172ff393bb6f89f094d4d2ca29": {
                "nonce": "0x01",
                "balance": "0x3635c9adc5de95a0ec",
                "code": "0x",
                "storage": {}
            },
            "0xd39602eaf5e9bee3629b2cd83ee4fb67c9c3155d": {
                "nonce": "0x01",
                "balance": "0x00",
                "code": "0x60ff5f5360015ff3",
                "storage": {}
            },
            "0x2737b04e10c5878e3e37b58394a86fbda5a3fde7": {
                "nonce": "0x01",
                "balance": "0x00",
                "code": "0x600060006000600073d39602eaf5e9bee3629b2cd83ee4fb67c9c3155d620186a0fa600055600160005560016000601f3e600051600155",
                "storage": {
                    "0x00": "0x01",
                    "0x01": "0xff"
                }
            },
            "0x2adc25665018aa1fe0e6bc666dac8fc2697ff9ba": {
                "nonce": "0x00",
                "balance": "0x031c86",
                "code": "0x",
                "storage": {}
            }
        },
        "lastblockhash": "0x120b993c9b4049519ad4ff187e5e2c55938449b79ef9bf3070be457134dae42c",
        "config": {
            "network": "Shanghai",
            "chainid": "0x01"
        },
        "genesisRLP": "0xf90219f90213a00000000000000000000000000000000000000000000000000000000000000000a01dcc4de8dec75d7aab85b567b6ccd41ad312451b948a7413f0a142fd40d49347940000000000000000000000000000000000000000a03232e452b374ce03a28a26e2383f4ff062e7dc69a91e23ee6d0dc67e59a1c35ea056e81f171bcc55a6ff8345e692c0f86e5b48e01b996cadc001622fb5e363b421a056e81f171bcc55a6ff8345e692c0f86e5b48e01b996cadc001622fb5e363b421b901000000000000000000000000000000000000000000000000000000000000000000000000000000000000000000000000000000000000000000000000000000000000000000000000000000000000000000000000000000000000000000000000000000000000000000000000000000000000000000000000000000000000000000000000000000000000000000000000000000000000000000000000000000000000000000000000000000000000000000000000000000000000000000000000000000000000000000000000000000000000000000000000000000000000000000000000000000000000000000000000000000000000000000000000000000000080808407270e00808000a0000000000000000000000000000000000000000000000000000000000000000088000000000000000007a056e81f171bcc55a6ff8345e692c0f86e5b48e01b996cadc001622fb5e363b421c0c0c0",
        "blocks": [
            {
                "blockHeader": {
                    "parentHash": "0xbf17426ecfaef2ad3dfc57a09dba347896d643d9fe431eb4455b1f02d9c7f166",
                    "uncleHash": "0x1dcc4de8dec75d7aab85b567b6ccd41ad312451b948a7413f0a142fd40d49347",
                    "coinbase": "0x2adc25665018aa1fe0e6bc666dac8fc2697ff9ba",
                    "stateRoot": "0x1091bb1600519f94a382f2921528d7dd66ffe6d85540ec475eb474958973ff37",
                    "transactionsTrie": "0x7f7194a6821a8e996ef849b8c6416b9050d8d7c3f791446383fb32786ab47e6c",
                    "receiptTrie": "0x2ab89a18d916ebe51698487b52c7ccd995495a95d4bdabcf1cf93aeb8d252839",
                    "bloom": "0x00000000000000000000000000000000000000000000000000000000000000000000000000000000000000000000000000000000000000000000000000000000000000000000000000000000000000000000000000000000000000000000000000000000000000000000000000000000000000000000000000000000000000000000000000000000000000000000000000000000000000000000000000000000000000000000000000000000000000000000000000000000000000000000000000000000000000000000000000000000000000000000000000000000000000000000000000000000000000000000000000000000000000000000000000000000",
                    "difficulty": "0x00",
                    "number": "0x01",
                    "gasLimit": "0x07270e00",
                    "gasUsed": "0x010982",
                    "timestamp": "0x03e8",
                    "extraData": "0x00",
                    "mixHash": "0x0000000000000000000000000000000000000000000000000000000000000000",
                    "nonce": "0x0000000000000000",
                    "baseFeePerGas": "0x07",
                    "withdrawalsRoot": "0x56e81f171bcc55a6ff8345e692c0f86e5b48e01b996cadc001622fb5e363b421",
                    "hash": "0x120b993c9b4049519ad4ff187e5e2c55938449b79ef9bf3070be457134dae42c"
                },
                "transactions": [
                    {
                        "type": "0x00",
                        "chainId": "0x01",
                        "nonce": "0x00",
                        "gasPrice": "0x0a",
                        "gasLimit": "0x07a120",
                        "to": "0x2737b04e10c5878e3e37b58394a86fbda5a3fde7",
                        "value": "0x00",
                        "data": "0x",
                        "v": "0x26",
                        "r": "0x3ffd4acc552a8560c81e567e8a88d777bdd45261532bfe3945b008443bd87a55",
                        "s": "0x51eaa0595b2d9c4515a869e9dfb8971fd335f0fc2e37f225b45f2294d94c8a4e",
                        "sender": "0x1ad9bc24818784172ff393bb6f89f094d4d2ca29"
                    }
                ],
                "uncleHeaders": [],
                "withdrawals": [],
                "receipts": [
                    {
                        "transactionHash": "0x81b42748a7033594ef43b6a9893609ef85381d6531dc2bf93d1cd997b40b6e1e",
                        "type": "0x00",
                        "cumulativeGasUsed": "0x010982",
                        "bloom": "0x00000000000000000000000000000000000000000000000000000000000000000000000000000000000000000000000000000000000000000000000000000000000000000000000000000000000000000000000000000000000000000000000000000000000000000000000000000000000000000000000000000000000000000000000000000000000000000000000000000000000000000000000000000000000000000000000000000000000000000000000000000000000000000000000000000000000000000000000000000000000000000000000000000000000000000000000000000000000000000000000000000000000000000000000000000000",
                        "logs": [],
                        "status": true,
                        "rlp": "0xf901090183010982b9010000000000000000000000000000000000000000000000000000000000000000000000000000000000000000000000000000000000000000000000000000000000000000000000000000000000000000000000000000000000000000000000000000000000000000000000000000000000000000000000000000000000000000000000000000000000000000000000000000000000000000000000000000000000000000000000000000000000000000000000000000000000000000000000000000000000000000000000000000000000000000000000000000000000000000000000000000000000000000000000000000000000000000000000000000000000c0"
                    }
                ],
                "rlp": "0xf90281f90218a0bf17426ecfaef2ad3dfc57a09dba347896d643d9fe431eb4455b1f02d9c7f166a01dcc4de8dec75d7aab85b567b6ccd41ad312451b948a7413f0a142fd40d49347942adc25665018aa1fe0e6bc666dac8fc2697ff9baa01091bb1600519f94a382f2921528d7dd66ffe6d85540ec475eb474958973ff37a07f7194a6821a8e996ef849b8c6416b9050d8d7c3f791446383fb32786ab47e6ca02ab89a18d916ebe51698487b52c7ccd995495a95d4bdabcf1cf93aeb8d252839b901000000000000000000000000000000000000000000000000000000000000000000000000000000000000000000000000000000000000000000000000000000000000000000000000000000000000000000000000000000000000000000000000000000000000000000000000000000000000000000000000000000000000000000000000000000000000000000000000000000000000000000000000000000000000000000000000000000000000000000000000000000000000000000000000000000000000000000000000000000000000000000000000000000000000000000000000000000000000000000000000000000000000000000000000000000000080018407270e00830109828203e800a0000000000000000000000000000000000000000000000000000000000000000088000000000000000007a056e81f171bcc55a6ff8345e692c0f86e5b48e01b996cadc001622fb5e363b421f862f860800a8307a120942737b04e10c5878e3e37b58394a86fbda5a3fde7808026a03ffd4acc552a8560c81e567e8a88d777bdd45261532bfe3945b008443bd87a55a051eaa0595b2d9c4515a869e9dfb8971fd335f0fc2e37f225b45f2294d94c8a4ec0c0",
                "blocknumber": "1"
            }
        ],
        "sealEngine": "NoProof",
        "_info": {
            "hash": "0x424cb194aad7efe7444aba2218dbde5b365a9a0eefe8425bd5abade2046caa13",
            "fixture-format": "blockchain_test",
            "comment": "`execution-specs` generated test",
            "filling-transition-tool": "2.19.0",
            "description": "Test class documentation:\n\nTest the PUSH0 operation in various contract call contexts.\n\nTest PUSH0 in the following contract call contexts:\n\n- CALL,\n- CALLCODE,\n- DELEGATECALL,\n- STATICCALL.\n\n\nTest PUSH0 during various call contexts.",
            "url": "https://github.com/ethereum/execution-specs/blob/tests-bal@v5.4.0/tests/shanghai/eip3855_push0/test_push0.py#L137",
            "opcode_count": {},
            "reference-spec": "https://github.com/ethereum/EIPs/blob/master/EIPS/eip-3855.md",
            "reference-spec-version": "6f85bd73336de4aacfad7ac3bb3a7e1ba2d68f51"
        }
    }
}