{
    "tests/ported_static/stCallDelegateCodesHomestead/test_callcallcodecallcode_abcb_recursive.py::test_callcallcodecallcode_abcb_recursive[fork_Cancun-blockchain_test_from_state_test]": {
        "network": "Cancun",
        "genesisBlockHeader": {
            "parentHash": "0x0000000000000000000000000000000000000000000000000000000000000000",
            "uncleHash": "0x1dcc4de8dec75d7aab85b567b6ccd41ad312451b948a7413f0a142fd40d49347",
            "coinbase": "0x0000000000000000000000000000000000000000",
            "stateRoot": "0xa0e363e0de0319dfea11d04448f8571c8d0b6c70e36e63fddee1c6fe07b50605",
            "transactionsTrie": "0x56e81f171bcc55a6ff8345e692c0f86e5b48e01b996cadc001622fb5e363b421",
            "receiptTrie": "0x56e81f171bcc55a6ff8345e692c0f86e5b48e01b996cadc001622fb5e363b421",
            "bloom": "0x00000000000000000000000000000000000000000000000000000000000000000000000000000000000000000000000000000000000000000000000000000000000000000000000000000000000000000000000000000000000000000000000000000000000000000000000000000000000000000000000000000000000000000000000000000000000000000000000000000000000000000000000000000000000000000000000000000000000000000000000000000000000000000000000000000000000000000000000000000000000000000000000000000000000000000000000000000000000000000000000000000000000000000000000000000000",
            "difficulty": "0x00",
            "number": "0x00",
            "gasLimit": "0x07270e00",
            "gasUsed": "0x00",
            "timestamp": "0x00",
            "extraData": "0x00",
            "mixHash": "0x0000000000000000000000000000000000000000000000000000000000000000",
            "nonce": "0x0000000000000000",
            "baseFeePerGas": "0x0b",
            "withdrawalsRoot": "0x56e81f171bcc55a6ff8345e692c0f86e5b48e01b996cadc001622fb5e363b421",
            "blobGasUsed": "0x00",
            "excessBlobGas": "0x00",
            "parentBeaconBlockRoot": "0x0000000000000000000000000000000000000000000000000000000000000000",
            "hash": "0xfbd01976fc102a25ea5bfb6f05e3c42cab72b50fddf58b57329df4604a18b0ed"
        },
        "pre": {
            "0x000f3df6d732807ef1319fb7b8bb8522d0beac02": {
                "nonce": "0x01",
                "balance": "0x00",
                "code": "0x3373fffffffffffffffffffffffffffffffffffffffe14604d57602036146024575f5ffd5b5f35801560495762001fff810690815414603c575f5ffd5b62001fff01545f5260205ff35b5f5ffd5b62001fff42064281555f359062001fff015500",
                "storage": {}
            },
            "0x039f3900e280b9c74d46e825b0b3814df4d705ac": {
                "nonce": "0x00",
                "balance": "0x0de0b6b3a7640000",
                "code": "0x6040600060406000600073e0b280638526cecd3ec29969b517aeb3fcbb31fa63017d7840f160005500",
                "storage": {}
            },
            "0xe0b280638526cecd3ec29969b517aeb3fcbb31fa": {
                "nonce": "0x00",
                "balance": "0x02540be400",
                "code": "0x604060006040600073a72f0e2f2fc5fd0878af9b8e4aaed09983670929620f4240f460015500",
                "storage": {}
            },
            "0xa72f0e2f2fc5fd0878af9b8e4aaed09983670929": {
                "nonce": "0x00",
                "balance": "0x02540be400",
                "code": "0x604060006040600073e0b280638526cecd3ec29969b517aeb3fcbb31fa6207a120f460025500",
                "storage": {}
            },
            "0xebaf50debf10e08302fe4280c32df010463ca297": {
                "nonce": "0x00",
                "balance": "0x0de0b6b3a7640000",
                "code": "0x",
                "storage": {}
            }
        },
        "postState": {
            "0x000f3df6d732807ef1319fb7b8bb8522d0beac02": {
                "nonce": "0x01",
                "balance": "0x00",
                "code": "0x3373fffffffffffffffffffffffffffffffffffffffe14604d57602036146024575f5ffd5b5f35801560495762001fff810690815414603c575f5ffd5b62001fff01545f5260205ff35b5f5ffd5b62001fff42064281555f359062001fff015500",
                "storage": {
                    "0x03e8": "0x03e8"
                }
            },
            "0x039f3900e280b9c74d46e825b0b3814df4d705ac": {
                "nonce": "0x00",
                "balance": "0x0de0b6b3a7640000",
                "code": "0x6040600060406000600073e0b280638526cecd3ec29969b517aeb3fcbb31fa63017d7840f160005500",
                "storage": {
                    "0x00": "0x01"
                }
            },
            "0xe0b280638526cecd3ec29969b517aeb3fcbb31fa": {
                "nonce": "0x00",
                "balance": "0x02540be400",
                "code": "0x604060006040600073a72f0e2f2fc5fd0878af9b8e4aaed09983670929620f4240f460015500",
                "storage": {
                    "0x01": "0x01"
                }
            },
            "0xa72f0e2f2fc5fd0878af9b8e4aaed09983670929": {
                "nonce": "0x00",
                "balance": "0x02540be400",
                "code": "0x604060006040600073e0b280638526cecd3ec29969b517aeb3fcbb31fa6207a120f460025500",
                "storage": {}
            },
            "0xebaf50debf10e08302fe4280c32df010463ca297": {
                "nonce": "0x01",
                "balance": "0x0de0b6b3a70c99a0",
                "code": "0x",
                "storage": {}
            }
        },
        "lastblockhash": "0xef5cfe1c2434fd819fd102f2b39e8a7a9455b5e6563959b64793e3f6b77cc2dc",
        "config": {
            "network": "Cancun",
            "chainid": "0x01",
            "blobSchedule": {
                "Cancun": {
                    "target": "0x03",
                    "max": "0x06",
                    "baseFeeUpdateFraction": "0x32f0ed"
                }
            }
        },
        "genesisRLP": "0xf9023cf90236a00000000000000000000000000000000000000000000000000000000000000000a01dcc4de8dec75d7aab85b567b6ccd41ad312451b948a7413f0a142fd40d49347940000000000000000000000000000000000000000a0a0e363e0de0319dfea11d04448f8571c8d0b6c70e36e63fddee1c6fe07b50605a056e81f171bcc55a6ff8345e692c0f86e5b48e01b996cadc001622fb5e363b421a056e81f171bcc55a6ff8345e692c0f86e5b48e01b996cadc001622fb5e363b421b901000000000000000000000000000000000000000000000000000000000000000000000000000000000000000000000000000000000000000000000000000000000000000000000000000000000000000000000000000000000000000000000000000000000000000000000000000000000000000000000000000000000000000000000000000000000000000000000000000000000000000000000000000000000000000000000000000000000000000000000000000000000000000000000000000000000000000000000000000000000000000000000000000000000000000000000000000000000000000000000000000000000000000000000000000000000080808407270e00808000a000000000000000000000000000000000000000000000000000000000000000008800000000000000000ba056e81f171bcc55a6ff8345e692c0f86e5b48e01b996cadc001622fb5e363b4218080a00000000000000000000000000000000000000000000000000000000000000000c0c0c0",
        "blocks": [
            {
                "blockHeader": {
                    "parentHash": "0xfbd01976fc102a25ea5bfb6f05e3c42cab72b50fddf58b57329df4604a18b0ed",
                    "uncleHash": "0x1dcc4de8dec75d7aab85b567b6ccd41ad312451b948a7413f0a142fd40d49347",
                    "coinbase": "0x2adc25665018aa1fe0e6bc666dac8fc2697ff9ba",
                    "stateRoot": "0x28f76d2e168f6dfa38fad258042bf7b3b3aa43b860b580af4b69366bb7892217",
                    "transactionsTrie": "0x7fcdfe57580d76c6e9993524f797eb8deb6d99ccfaa08ee5dce5063ee7e248b4",
                    "receiptTrie": "0x2cfdcc9f422af8df66fc27e6a5fac0806d619761e37db665ad7705be9a0fbef8",
                    "bloom": "0x00000000000000000000000000000000000000000000000000000000000000000000000000000000000000000000000000000000000000000000000000000000000000000000000000000000000000000000000000000000000000000000000000000000000000000000000000000000000000000000000000000000000000000000000000000000000000000000000000000000000000000000000000000000000000000000000000000000000000000000000000000000000000000000000000000000000000000000000000000000000000000000000000000000000000000000000000000000000000000000000000000000000000000000000000000000",
                    "difficulty": "0x00",
                    "number": "0x01",
                    "gasLimit": "0x07270e00",
                    "gasUsed": "0x08bd70",
                    "timestamp": "0x03e8",
                    "extraData": "0x00",
                    "mixHash": "0x0000000000000000000000000000000000000000000000000000000000020000",
                    "nonce": "0x0000000000000000",
                    "baseFeePerGas": "0x0a",
                    "withdrawalsRoot": "0x56e81f171bcc55a6ff8345e692c0f86e5b48e01b996cadc001622fb5e363b421",
                    "blobGasUsed": "0x00",
                    "excessBlobGas": "0x00",
                    "parentBeaconBlockRoot": "0x0000000000000000000000000000000000000000000000000000000000000000",
                    "hash": "0xef5cfe1c2434fd819fd102f2b39e8a7a9455b5e6563959b64793e3f6b77cc2dc"
                },
                "transactions": [
                    {
                        "type": "0x00",
                        "chainId": "0x01",
                        "nonce": "0x00",
                        "gasPrice": "0x0a",
                        "gasLimit": "0x0927c0",
                        "to": "0x039f3900e280b9c74d46e825b0b3814df4d705ac",
                        "value": "0x00",
                        "data": "0x",
                        "v": "0x25",
                        "r": "0xb4c52d465ea840b81e90afa8a9dd69ee2777762f8eda41f6cb4fbe750de69c66",
                        "s": "0x49de6511b5f0a206bbf202209f1b0d96bf418182da83e542b3d8559816c7c03c",
                        "sender": "0xebaf50debf10e08302fe4280c32df010463ca297"
                    }
                ],
                "uncleHeaders": [],
                "withdrawals": [],
                "receipts": [
                    {
                        "transactionHash": "0x8eca039da416638eb07cea6d3599d7a5e5089cff3b94af6cc221bdf878094599",
                        "type": "0x00",
                        "cumulativeGasUsed": "0x08bd70",
                        "bloom": "0x00000000000000000000000000000000000000000000000000000000000000000000000000000000000000000000000000000000000000000000000000000000000000000000000000000000000000000000000000000000000000000000000000000000000000000000000000000000000000000000000000000000000000000000000000000000000000000000000000000000000000000000000000000000000000000000000000000000000000000000000000000000000000000000000000000000000000000000000000000000000000000000000000000000000000000000000000000000000000000000000000000000000000000000000000000000",
                        "logs": [],
                        "status": true,
                        "rlp": "0xf90109018308bd70b9010000000000000000000000000000000000000000000000000000000000000000000000000000000000000000000000000000000000000000000000000000000000000000000000000000000000000000000000000000000000000000000000000000000000000000000000000000000000000000000000000000000000000000000000000000000000000000000000000000000000000000000000000000000000000000000000000000000000000000000000000000000000000000000000000000000000000000000000000000000000000000000000000000000000000000000000000000000000000000000000000000000000000000000000000000000000c0"
                    }
                ],
                "rlp": "0xf902a4f9023ba0fbd01976fc102a25ea5bfb6f05e3c42cab72b50fddf58b57329df4604a18b0eda01dcc4de8dec75d7aab85b567b6ccd41ad312451b948a7413f0a142fd40d49347942adc25665018aa1fe0e6bc666dac8fc2697ff9baa028f76d2e168f6dfa38fad258042bf7b3b3aa43b860b580af4b69366bb7892217a07fcdfe57580d76c6e9993524f797eb8deb6d99ccfaa08ee5dce5063ee7e248b4a02cfdcc9f422af8df66fc27e6a5fac0806d619761e37db665ad7705be9a0fbef8b901000000000000000000000000000000000000000000000000000000000000000000000000000000000000000000000000000000000000000000000000000000000000000000000000000000000000000000000000000000000000000000000000000000000000000000000000000000000000000000000000000000000000000000000000000000000000000000000000000000000000000000000000000000000000000000000000000000000000000000000000000000000000000000000000000000000000000000000000000000000000000000000000000000000000000000000000000000000000000000000000000000000000000000000000000000000080018407270e008308bd708203e800a000000000000000000000000000000000000000000000000000000000000200008800000000000000000aa056e81f171bcc55a6ff8345e692c0f86e5b48e01b996cadc001622fb5e363b4218080a00000000000000000000000000000000000000000000000000000000000000000f862f860800a830927c094039f3900e280b9c74d46e825b0b3814df4d705ac808025a0b4c52d465ea840b81e90afa8a9dd69ee2777762f8eda41f6cb4fbe750de69c66a049de6511b5f0a206bbf202209f1b0d96bf418182da83e542b3d8559816c7c03cc0c0",
                "blocknumber": "1"
            }
        ],
        "sealEngine": "NoProof",
        "_info": {
            "hash": "0x9c25d131cc30b9a2ba511a0fdc6fb68c612a0f58249ba35bd1835af81b203f4f",
            "fixture-format": "blockchain_test",
            "comment": "`execution-specs` generated test",
            "filling-transition-tool": "2.19.0",
            "description": "Test_callcallcodecallcode_abcb_recursive.",
            "url": "https://github.com/ethereum/execution-specs/blob/tests-sn\u00f8bal-devnet-4@v1.0.0/tests/ported_static/stCallDelegateCodesHomestead/test_callcallcodecallcode_abcb_recursive.py#L27",
            "metadata": {
                "opcode_count": {}
            }
        }
    }
}