{
    "tests/ported_static/stStaticCall/test_static_callcallcallcode_abcb_recursive2.py::test_static_callcallcallcode_abcb_recursive2[fork_Cancun-blockchain_test_from_state_test]": {
        "network": "Cancun",
        "genesisBlockHeader": {
            "parentHash": "0x0000000000000000000000000000000000000000000000000000000000000000",
            "uncleHash": "0x1dcc4de8dec75d7aab85b567b6ccd41ad312451b948a7413f0a142fd40d49347",
            "coinbase": "0x0000000000000000000000000000000000000000",
            "stateRoot": "0xbd99eaf62e46266652b724d66f7429ef4531bbb4b1d659b0b7fb638d3ac34ee0",
            "transactionsTrie": "0x56e81f171bcc55a6ff8345e692c0f86e5b48e01b996cadc001622fb5e363b421",
            "receiptTrie": "0x56e81f171bcc55a6ff8345e692c0f86e5b48e01b996cadc001622fb5e363b421",
            "bloom": "0x00000000000000000000000000000000000000000000000000000000000000000000000000000000000000000000000000000000000000000000000000000000000000000000000000000000000000000000000000000000000000000000000000000000000000000000000000000000000000000000000000000000000000000000000000000000000000000000000000000000000000000000000000000000000000000000000000000000000000000000000000000000000000000000000000000000000000000000000000000000000000000000000000000000000000000000000000000000000000000000000000000000000000000000000000000000",
            "difficulty": "0x00",
            "number": "0x00",
            "gasLimit": "0xb2d05e00",
            "gasUsed": "0x00",
            "timestamp": "0x00",
            "extraData": "0x00",
            "mixHash": "0x0000000000000000000000000000000000000000000000000000000000000000",
            "nonce": "0x0000000000000000",
            "baseFeePerGas": "0x0b",
            "withdrawalsRoot": "0x56e81f171bcc55a6ff8345e692c0f86e5b48e01b996cadc001622fb5e363b421",
            "blobGasUsed": "0x00",
            "excessBlobGas": "0x00",
            "parentBeaconBlockRoot": "0x0000000000000000000000000000000000000000000000000000000000000000",
            "hash": "0xbe38374e7fc8776ac27b21c1468c9d148581642a48f7fcd84b9522f0c2264c62"
        },
        "pre": {
            "0x000f3df6d732807ef1319fb7b8bb8522d0beac02": {
                "nonce": "0x01",
                "balance": "0x00",
                "code": "0x3373fffffffffffffffffffffffffffffffffffffffe14604d57602036146024575f5ffd5b5f35801560495762001fff810690815414603c575f5ffd5b62001fff01545f5260205ff35b5f5ffd5b62001fff42064281555f359062001fff015500",
                "storage": {}
            },
            "0xd66f224cbd2fabb21b17bb53c56118f32f62ebd6": {
                "nonce": "0x00",
                "balance": "0x0de0b6b3a7640000",
                "code": "0x",
                "storage": {}
            },
            "0x130e754252b72cb20aa752cb31176d9c2e9c8a21": {
                "nonce": "0x00",
                "balance": "0x0de0b6b3a7640000",
                "code": "0x6001600152604060006040600073a340f8b0f598f6d5ad2856ffe45aadd934f37cf163017d7840fa50600160035200",
                "storage": {}
            },
            "0xa340f8b0f598f6d5ad2856ffe45aadd934f37cf1": {
                "nonce": "0x00",
                "balance": "0x02540be400",
                "code": "0x6001600152604060006040600073812297c04813fea96b943b246d9d17ea17545526620f4240fa50600160025200",
                "storage": {}
            },
            "0x812297c04813fea96b943b246d9d17ea17545526": {
                "nonce": "0x00",
                "balance": "0x02540be400",
                "code": "0x60016001526040600060406000600073a340f8b0f598f6d5ad2856ffe45aadd934f37cf16207a120f250600160025200",
                "storage": {}
            }
        },
        "postState": {
            "0x000f3df6d732807ef1319fb7b8bb8522d0beac02": {
                "nonce": "0x01",
                "balance": "0x00",
                "code": "0x3373fffffffffffffffffffffffffffffffffffffffe14604d57602036146024575f5ffd5b5f35801560495762001fff810690815414603c575f5ffd5b62001fff01545f5260205ff35b5f5ffd5b62001fff42064281555f359062001fff015500",
                "storage": {
                    "0x03e8": "0x03e8"
                }
            },
            "0xd66f224cbd2fabb21b17bb53c56118f32f62ebd6": {
                "nonce": "0x01",
                "balance": "0x0de0b6b3a75a31ce",
                "code": "0x",
                "storage": {}
            },
            "0x130e754252b72cb20aa752cb31176d9c2e9c8a21": {
                "nonce": "0x00",
                "balance": "0x0de0b6b3a7640000",
                "code": "0x6001600152604060006040600073a340f8b0f598f6d5ad2856ffe45aadd934f37cf163017d7840fa50600160035200",
                "storage": {}
            },
            "0xa340f8b0f598f6d5ad2856ffe45aadd934f37cf1": {
                "nonce": "0x00",
                "balance": "0x02540be400",
                "code": "0x6001600152604060006040600073812297c04813fea96b943b246d9d17ea17545526620f4240fa50600160025200",
                "storage": {}
            },
            "0x812297c04813fea96b943b246d9d17ea17545526": {
                "nonce": "0x00",
                "balance": "0x02540be400",
                "code": "0x60016001526040600060406000600073a340f8b0f598f6d5ad2856ffe45aadd934f37cf16207a120f250600160025200",
                "storage": {}
            }
        },
        "lastblockhash": "0x2b8d8f55b3737e59d2db74db1638ae023677b019a4c1a7ed8c4b11ba80e0e5fa",
        "config": {
            "network": "Cancun",
            "chainid": "0x01",
            "blobSchedule": {
                "Cancun": {
                    "target": "0x03",
                    "max": "0x06",
                    "baseFeeUpdateFraction": "0x32f0ed"
                }
            }
        },
        "genesisRLP": "0xf9023cf90236a00000000000000000000000000000000000000000000000000000000000000000a01dcc4de8dec75d7aab85b567b6ccd41ad312451b948a7413f0a142fd40d49347940000000000000000000000000000000000000000a0bd99eaf62e46266652b724d66f7429ef4531bbb4b1d659b0b7fb638d3ac34ee0a056e81f171bcc55a6ff8345e692c0f86e5b48e01b996cadc001622fb5e363b421a056e81f171bcc55a6ff8345e692c0f86e5b48e01b996cadc001622fb5e363b421b9010000000000000000000000000000000000000000000000000000000000000000000000000000000000000000000000000000000000000000000000000000000000000000000000000000000000000000000000000000000000000000000000000000000000000000000000000000000000000000000000000000000000000000000000000000000000000000000000000000000000000000000000000000000000000000000000000000000000000000000000000000000000000000000000000000000000000000000000000000000000000000000000000000000000000000000000000000000000000000000000000000000000000000000000000000000000808084b2d05e00808000a000000000000000000000000000000000000000000000000000000000000000008800000000000000000ba056e81f171bcc55a6ff8345e692c0f86e5b48e01b996cadc001622fb5e363b4218080a00000000000000000000000000000000000000000000000000000000000000000c0c0c0",
        "blocks": [
            {
                "blockHeader": {
                    "parentHash": "0xbe38374e7fc8776ac27b21c1468c9d148581642a48f7fcd84b9522f0c2264c62",
                    "uncleHash": "0x1dcc4de8dec75d7aab85b567b6ccd41ad312451b948a7413f0a142fd40d49347",
                    "coinbase": "0x2adc25665018aa1fe0e6bc666dac8fc2697ff9ba",
                    "stateRoot": "0x37b7949dcc0520a3ae97f7935c8893610d5d2223bc7c648fd3cd9f61104f1aae",
                    "transactionsTrie": "0x1fbf1e7ffc05041816ab693114b1975e0b192d4a8803b60d963c0a1531412067",
                    "receiptTrie": "0x738e07910befbffbdf63ccfe24c01c4e6f5e68e54d97128b2f2dd82f6921c101",
                    "bloom": "0x00000000000000000000000000000000000000000000000000000000000000000000000000000000000000000000000000000000000000000000000000000000000000000000000000000000000000000000000000000000000000000000000000000000000000000000000000000000000000000000000000000000000000000000000000000000000000000000000000000000000000000000000000000000000000000000000000000000000000000000000000000000000000000000000000000000000000000000000000000000000000000000000000000000000000000000000000000000000000000000000000000000000000000000000000000000",
                    "difficulty": "0x00",
                    "number": "0x01",
                    "gasLimit": "0xb2d05e00",
                    "gasUsed": "0xfb05",
                    "timestamp": "0x03e8",
                    "extraData": "0x00",
                    "mixHash": "0x0000000000000000000000000000000000000000000000000000000000020000",
                    "nonce": "0x0000000000000000",
                    "baseFeePerGas": "0x0a",
                    "withdrawalsRoot": "0x56e81f171bcc55a6ff8345e692c0f86e5b48e01b996cadc001622fb5e363b421",
                    "blobGasUsed": "0x00",
                    "excessBlobGas": "0x00",
                    "parentBeaconBlockRoot": "0x0000000000000000000000000000000000000000000000000000000000000000",
                    "hash": "0x2b8d8f55b3737e59d2db74db1638ae023677b019a4c1a7ed8c4b11ba80e0e5fa"
                },
                "transactions": [
                    {
                        "type": "0x00",
                        "chainId": "0x01",
                        "nonce": "0x00",
                        "gasPrice": "0x0a",
                        "gasLimit": "0x0927c0",
                        "to": "0x130e754252b72cb20aa752cb31176d9c2e9c8a21",
                        "value": "0x00",
                        "data": "0x",
                        "v": "0x25",
                        "r": "0xc903b5d4452543a29a3c009345b886f1dcf40e5452c512e80954b467dc88c07f",
                        "s": "0x65a1379d2cdae3b47f21716d418ff58325644e5e14a9585c41a70c36d106a41b",
                        "sender": "0xd66f224cbd2fabb21b17bb53c56118f32f62ebd6"
                    }
                ],
                "uncleHeaders": [],
                "withdrawals": [],
                "receipts": [
                    {
                        "transactionHash": "0xe5e398aa9db79afcd6797517ffac41c72c0bf9a6663acd394815867ad534f93a",
                        "type": "0x00",
                        "cumulativeGasUsed": "0xfb05",
                        "bloom": "0x00000000000000000000000000000000000000000000000000000000000000000000000000000000000000000000000000000000000000000000000000000000000000000000000000000000000000000000000000000000000000000000000000000000000000000000000000000000000000000000000000000000000000000000000000000000000000000000000000000000000000000000000000000000000000000000000000000000000000000000000000000000000000000000000000000000000000000000000000000000000000000000000000000000000000000000000000000000000000000000000000000000000000000000000000000000",
                        "logs": [],
                        "status": true,
                        "rlp": "0xf901080182fb05b9010000000000000000000000000000000000000000000000000000000000000000000000000000000000000000000000000000000000000000000000000000000000000000000000000000000000000000000000000000000000000000000000000000000000000000000000000000000000000000000000000000000000000000000000000000000000000000000000000000000000000000000000000000000000000000000000000000000000000000000000000000000000000000000000000000000000000000000000000000000000000000000000000000000000000000000000000000000000000000000000000000000000000000000000000000000000c0"
                    }
                ],
                "rlp": "0xf902a3f9023aa0be38374e7fc8776ac27b21c1468c9d148581642a48f7fcd84b9522f0c2264c62a01dcc4de8dec75d7aab85b567b6ccd41ad312451b948a7413f0a142fd40d49347942adc25665018aa1fe0e6bc666dac8fc2697ff9baa037b7949dcc0520a3ae97f7935c8893610d5d2223bc7c648fd3cd9f61104f1aaea01fbf1e7ffc05041816ab693114b1975e0b192d4a8803b60d963c0a1531412067a0738e07910befbffbdf63ccfe24c01c4e6f5e68e54d97128b2f2dd82f6921c101b9010000000000000000000000000000000000000000000000000000000000000000000000000000000000000000000000000000000000000000000000000000000000000000000000000000000000000000000000000000000000000000000000000000000000000000000000000000000000000000000000000000000000000000000000000000000000000000000000000000000000000000000000000000000000000000000000000000000000000000000000000000000000000000000000000000000000000000000000000000000000000000000000000000000000000000000000000000000000000000000000000000000000000000000000000000000000800184b2d05e0082fb058203e800a000000000000000000000000000000000000000000000000000000000000200008800000000000000000aa056e81f171bcc55a6ff8345e692c0f86e5b48e01b996cadc001622fb5e363b4218080a00000000000000000000000000000000000000000000000000000000000000000f862f860800a830927c094130e754252b72cb20aa752cb31176d9c2e9c8a21808025a0c903b5d4452543a29a3c009345b886f1dcf40e5452c512e80954b467dc88c07fa065a1379d2cdae3b47f21716d418ff58325644e5e14a9585c41a70c36d106a41bc0c0",
                "blocknumber": "1"
            }
        ],
        "sealEngine": "NoProof",
        "_info": {
            "hash": "0xd4b7f97e84910723350481853f5baa8e3b2f7ba428240848f92d56be9abdb38e",
            "fixture-format": "blockchain_test",
            "comment": "`execution-specs` generated test",
            "filling-transition-tool": "2.19.0",
            "description": "Test_static_callcallcallcode_abcb_recursive2.",
            "url": "https://github.com/ethereum/execution-specs/blob/tests-snobal-devnet-5@v8037.0.0/tests/ported_static/stStaticCall/test_static_callcallcallcode_abcb_recursive2.py#L24",
            "metadata": {
                "opcode_count": {}
            }
        }
    }
}