{
    "tests/ported_static/stMemoryStressTest/test_callcode_bounds.py::test_callcode_bounds[fork_Cancun-blockchain_test_from_state_test--g0]": {
        "network": "Cancun",
        "genesisBlockHeader": {
            "parentHash": "0x0000000000000000000000000000000000000000000000000000000000000000",
            "uncleHash": "0x1dcc4de8dec75d7aab85b567b6ccd41ad312451b948a7413f0a142fd40d49347",
            "coinbase": "0x0000000000000000000000000000000000000000",
            "stateRoot": "0x1d7597ab071101ab4fa35422da3963b3674f2d7081e3c443a95ad49047ed8ab6",
            "transactionsTrie": "0x56e81f171bcc55a6ff8345e692c0f86e5b48e01b996cadc001622fb5e363b421",
            "receiptTrie": "0x56e81f171bcc55a6ff8345e692c0f86e5b48e01b996cadc001622fb5e363b421",
            "bloom": "0x00000000000000000000000000000000000000000000000000000000000000000000000000000000000000000000000000000000000000000000000000000000000000000000000000000000000000000000000000000000000000000000000000000000000000000000000000000000000000000000000000000000000000000000000000000000000000000000000000000000000000000000000000000000000000000000000000000000000000000000000000000000000000000000000000000000000000000000000000000000000000000000000000000000000000000000000000000000000000000000000000000000000000000000000000000000",
            "difficulty": "0x00",
            "number": "0x00",
            "gasLimit": "0x7fffffffffffffff",
            "gasUsed": "0x00",
            "timestamp": "0x00",
            "extraData": "0x00",
            "mixHash": "0x0000000000000000000000000000000000000000000000000000000000000000",
            "nonce": "0x0000000000000000",
            "baseFeePerGas": "0x0b",
            "withdrawalsRoot": "0x56e81f171bcc55a6ff8345e692c0f86e5b48e01b996cadc001622fb5e363b421",
            "blobGasUsed": "0x00",
            "excessBlobGas": "0x00",
            "parentBeaconBlockRoot": "0x0000000000000000000000000000000000000000000000000000000000000000",
            "hash": "0xc6cacf387fa01d65b79de3955b7a29351dec202a3669cfd9ca5b35098fe39068"
        },
        "pre": {
            "0x000f3df6d732807ef1319fb7b8bb8522d0beac02": {
                "nonce": "0x01",
                "balance": "0x00",
                "code": "0x3373fffffffffffffffffffffffffffffffffffffffe14604d57602036146024575f5ffd5b5f35801560495762001fff810690815414603c575f5ffd5b62001fff01545f5260205ff35b5f5ffd5b62001fff42064281555f359062001fff015500",
                "storage": {}
            },
            "0x92b42f831826417cc556c023e4d1d9cf2e833101": {
                "nonce": "0x00",
                "balance": "0xffffffffffffffffffffffffffffffffffffffffffffffffffffffffffffffff",
                "code": "0x",
                "storage": {}
            },
            "0x3a9ad637d171156f66735584233a5125750f04f2": {
                "nonce": "0x00",
                "balance": "0x00",
                "code": "0x60005460010160005500",
                "storage": {}
            },
            "0x9e441bacd7d45ffec22eccd17e8ebec9926363be": {
                "nonce": "0x00",
                "balance": "0x00",
                "code": "0x60006000600060006000733a9ad637d171156f66735584233a5125750f04f26707fffffffffffffff250630fffffff6000630fffffff60006000733a9ad637d171156f66735584233a5125750f04f26707fffffffffffffff25063ffffffff600063ffffffff60006000733a9ad637d171156f66735584233a5125750f04f26707fffffffffffffff2506000630fffffff6000630fffffff6000733a9ad637d171156f66735584233a5125750f04f26707fffffffffffffff250600063ffffffff600063ffffffff6000733a9ad637d171156f66735584233a5125750f04f26707fffffffffffffff250600067ffffffffffffffff600067ffffffffffffffff6000733a9ad637d171156f66735584233a5125750f04f26707fffffffffffffff25060006fffffffffffffffffffffffffffffffff60006fffffffffffffffffffffffffffffffff6000733a9ad637d171156f66735584233a5125750f04f26707fffffffffffffff25060007fffffffffffffffffffffffffffffffffffffffffffffffffffffffffffffffff60007fffffffffffffffffffffffffffffffffffffffffffffffffffffffffffffffff6000733a9ad637d171156f66735584233a5125750f04f26707fffffffffffffff200",
                "storage": {}
            }
        },
        "postState": {
            "0x000f3df6d732807ef1319fb7b8bb8522d0beac02": {
                "nonce": "0x01",
                "balance": "0x00",
                "code": "0x3373fffffffffffffffffffffffffffffffffffffffe14604d57602036146024575f5ffd5b5f35801560495762001fff810690815414603c575f5ffd5b62001fff01545f5260205ff35b5f5ffd5b62001fff42064281555f359062001fff015500",
                "storage": {
                    "0x03e8": "0x03e8"
                }
            },
            "0x92b42f831826417cc556c023e4d1d9cf2e833101": {
                "nonce": "0x01",
                "balance": "0xffffffffffffffffffffffffffffffffffffffffffffffffffffffffffe91c9f",
                "code": "0x",
                "storage": {}
            },
            "0x3a9ad637d171156f66735584233a5125750f04f2": {
                "nonce": "0x00",
                "balance": "0x00",
                "code": "0x60005460010160005500",
                "storage": {}
            },
            "0x9e441bacd7d45ffec22eccd17e8ebec9926363be": {
                "nonce": "0x00",
                "balance": "0x00",
                "code": "0x60006000600060006000733a9ad637d171156f66735584233a5125750f04f26707fffffffffffffff250630fffffff6000630fffffff60006000733a9ad637d171156f66735584233a5125750f04f26707fffffffffffffff25063ffffffff600063ffffffff60006000733a9ad637d171156f66735584233a5125750f04f26707fffffffffffffff2506000630fffffff6000630fffffff6000733a9ad637d171156f66735584233a5125750f04f26707fffffffffffffff250600063ffffffff600063ffffffff6000733a9ad637d171156f66735584233a5125750f04f26707fffffffffffffff250600067ffffffffffffffff600067ffffffffffffffff6000733a9ad637d171156f66735584233a5125750f04f26707fffffffffffffff25060006fffffffffffffffffffffffffffffffff60006fffffffffffffffffffffffffffffffff6000733a9ad637d171156f66735584233a5125750f04f26707fffffffffffffff25060007fffffffffffffffffffffffffffffffffffffffffffffffffffffffffffffffff60007fffffffffffffffffffffffffffffffffffffffffffffffffffffffffffffffff6000733a9ad637d171156f66735584233a5125750f04f26707fffffffffffffff200",
                "storage": {}
            }
        },
        "lastblockhash": "0x8a31e37d19c217f4829fb327ce18a3fa6fd7dec3f96ec79e969329434befeba1",
        "config": {
            "network": "Cancun",
            "chainid": "0x01",
            "blobSchedule": {
                "Cancun": {
                    "target": "0x03",
                    "max": "0x06",
                    "baseFeeUpdateFraction": "0x32f0ed"
                }
            }
        },
        "genesisRLP": "0xf90240f9023aa00000000000000000000000000000000000000000000000000000000000000000a01dcc4de8dec75d7aab85b567b6ccd41ad312451b948a7413f0a142fd40d49347940000000000000000000000000000000000000000a01d7597ab071101ab4fa35422da3963b3674f2d7081e3c443a95ad49047ed8ab6a056e81f171bcc55a6ff8345e692c0f86e5b48e01b996cadc001622fb5e363b421a056e81f171bcc55a6ff8345e692c0f86e5b48e01b996cadc001622fb5e363b421b90100000000000000000000000000000000000000000000000000000000000000000000000000000000000000000000000000000000000000000000000000000000000000000000000000000000000000000000000000000000000000000000000000000000000000000000000000000000000000000000000000000000000000000000000000000000000000000000000000000000000000000000000000000000000000000000000000000000000000000000000000000000000000000000000000000000000000000000000000000000000000000000000000000000000000000000000000000000000000000000000000000000000000000000000000000000008080887fffffffffffffff808000a000000000000000000000000000000000000000000000000000000000000000008800000000000000000ba056e81f171bcc55a6ff8345e692c0f86e5b48e01b996cadc001622fb5e363b4218080a00000000000000000000000000000000000000000000000000000000000000000c0c0c0",
        "blocks": [
            {
                "blockHeader": {
                    "parentHash": "0xc6cacf387fa01d65b79de3955b7a29351dec202a3669cfd9ca5b35098fe39068",
                    "uncleHash": "0x1dcc4de8dec75d7aab85b567b6ccd41ad312451b948a7413f0a142fd40d49347",
                    "coinbase": "0x2adc25665018aa1fe0e6bc666dac8fc2697ff9ba",
                    "stateRoot": "0x107c9796bbc3119c1ce5896e36c3dc2c8da62a557d9b352dfcebc9952dafa9d0",
                    "transactionsTrie": "0x30af2a105281f2a5d59caf7981dc481118107334cef7b1f8aedc155b09d5e155",
                    "receiptTrie": "0xa0e10907f175886de9bd8cd4ac2c21d1db4109a3a9fecf60f54015ee102803fd",
                    "bloom": "0x00000000000000000000000000000000000000000000000000000000000000000000000000000000000000000000000000000000000000000000000000000000000000000000000000000000000000000000000000000000000000000000000000000000000000000000000000000000000000000000000000000000000000000000000000000000000000000000000000000000000000000000000000000000000000000000000000000000000000000000000000000000000000000000000000000000000000000000000000000000000000000000000000000000000000000000000000000000000000000000000000000000000000000000000000000000",
                    "difficulty": "0x00",
                    "number": "0x01",
                    "gasLimit": "0x7fffffffffffffff",
                    "gasUsed": "0x0249f0",
                    "timestamp": "0x03e8",
                    "extraData": "0x00",
                    "mixHash": "0x0000000000000000000000000000000000000000000000000000000000020000",
                    "nonce": "0x0000000000000000",
                    "baseFeePerGas": "0x0a",
                    "withdrawalsRoot": "0x56e81f171bcc55a6ff8345e692c0f86e5b48e01b996cadc001622fb5e363b421",
                    "blobGasUsed": "0x00",
                    "excessBlobGas": "0x00",
                    "parentBeaconBlockRoot": "0x0000000000000000000000000000000000000000000000000000000000000000",
                    "hash": "0x8a31e37d19c217f4829fb327ce18a3fa6fd7dec3f96ec79e969329434befeba1"
                },
                "transactions": [
                    {
                        "type": "0x00",
                        "chainId": "0x01",
                        "nonce": "0x00",
                        "gasPrice": "0x0a",
                        "gasLimit": "0x0249f0",
                        "to": "0x9e441bacd7d45ffec22eccd17e8ebec9926363be",
                        "value": "0x01",
                        "data": "0x",
                        "v": "0x25",
                        "r": "0xb3981928db4eac442542455ce2364d3915089f777a26e6807b6805b56b0dc86d",
                        "s": "0x705deb8c1eea9445830e566af38f95adcce48e6c3bb912da04415a97cca7a8a1",
                        "sender": "0x92b42f831826417cc556c023e4d1d9cf2e833101"
                    }
                ],
                "uncleHeaders": [],
                "withdrawals": [],
                "receipts": [
                    {
                        "transactionHash": "0xf78d87ba8f646d328d8d95718f0ce6c0eb46c27c0366658fa64f581b44c7b538",
                        "type": "0x00",
                        "cumulativeGasUsed": "0x0249f0",
                        "bloom": "0x00000000000000000000000000000000000000000000000000000000000000000000000000000000000000000000000000000000000000000000000000000000000000000000000000000000000000000000000000000000000000000000000000000000000000000000000000000000000000000000000000000000000000000000000000000000000000000000000000000000000000000000000000000000000000000000000000000000000000000000000000000000000000000000000000000000000000000000000000000000000000000000000000000000000000000000000000000000000000000000000000000000000000000000000000000000",
                        "logs": [],
                        "status": false,
                        "rlp": "0xf9010980830249f0b9010000000000000000000000000000000000000000000000000000000000000000000000000000000000000000000000000000000000000000000000000000000000000000000000000000000000000000000000000000000000000000000000000000000000000000000000000000000000000000000000000000000000000000000000000000000000000000000000000000000000000000000000000000000000000000000000000000000000000000000000000000000000000000000000000000000000000000000000000000000000000000000000000000000000000000000000000000000000000000000000000000000000000000000000000000000000c0"
                    }
                ],
                "rlp": "0xf902a8f9023fa0c6cacf387fa01d65b79de3955b7a29351dec202a3669cfd9ca5b35098fe39068a01dcc4de8dec75d7aab85b567b6ccd41ad312451b948a7413f0a142fd40d49347942adc25665018aa1fe0e6bc666dac8fc2697ff9baa0107c9796bbc3119c1ce5896e36c3dc2c8da62a557d9b352dfcebc9952dafa9d0a030af2a105281f2a5d59caf7981dc481118107334cef7b1f8aedc155b09d5e155a0a0e10907f175886de9bd8cd4ac2c21d1db4109a3a9fecf60f54015ee102803fdb90100000000000000000000000000000000000000000000000000000000000000000000000000000000000000000000000000000000000000000000000000000000000000000000000000000000000000000000000000000000000000000000000000000000000000000000000000000000000000000000000000000000000000000000000000000000000000000000000000000000000000000000000000000000000000000000000000000000000000000000000000000000000000000000000000000000000000000000000000000000000000000000000000000000000000000000000000000000000000000000000000000000000000000000000000000000008001887fffffffffffffff830249f08203e800a000000000000000000000000000000000000000000000000000000000000200008800000000000000000aa056e81f171bcc55a6ff8345e692c0f86e5b48e01b996cadc001622fb5e363b4218080a00000000000000000000000000000000000000000000000000000000000000000f862f860800a830249f0949e441bacd7d45ffec22eccd17e8ebec9926363be018025a0b3981928db4eac442542455ce2364d3915089f777a26e6807b6805b56b0dc86da0705deb8c1eea9445830e566af38f95adcce48e6c3bb912da04415a97cca7a8a1c0c0",
                "blocknumber": "1"
            }
        ],
        "sealEngine": "NoProof",
        "_info": {
            "hash": "0x1c2254fbdf217dac264d9cb722f6ecf020e9f70db5bade2575a2604a1c09b599",
            "fixture-format": "blockchain_test",
            "comment": "`execution-specs` generated test",
            "filling-transition-tool": "2.19.0",
            "description": "Test_callcode_bounds.",
            "url": "https://github.com/ethereum/execution-specs/blob/tests-snobal-devnet-5@v8037.0.0/tests/ported_static/stMemoryStressTest/test_callcode_bounds.py#L25",
            "metadata": {
                "opcode_count": {}
            }
        }
    },
    "tests/ported_static/stMemoryStressTest/test_callcode_bounds.py::test_callcode_bounds[fork_Cancun-blockchain_test_from_state_test--g1]": {
        "network": "Cancun",
        "genesisBlockHeader": {
            "parentHash": "0x0000000000000000000000000000000000000000000000000000000000000000",
            "uncleHash": "0x1dcc4de8dec75d7aab85b567b6ccd41ad312451b948a7413f0a142fd40d49347",
            "coinbase": "0x0000000000000000000000000000000000000000",
            "stateRoot": "0x1d7597ab071101ab4fa35422da3963b3674f2d7081e3c443a95ad49047ed8ab6",
            "transactionsTrie": "0x56e81f171bcc55a6ff8345e692c0f86e5b48e01b996cadc001622fb5e363b421",
            "receiptTrie": "0x56e81f171bcc55a6ff8345e692c0f86e5b48e01b996cadc001622fb5e363b421",
            "bloom": "0x00000000000000000000000000000000000000000000000000000000000000000000000000000000000000000000000000000000000000000000000000000000000000000000000000000000000000000000000000000000000000000000000000000000000000000000000000000000000000000000000000000000000000000000000000000000000000000000000000000000000000000000000000000000000000000000000000000000000000000000000000000000000000000000000000000000000000000000000000000000000000000000000000000000000000000000000000000000000000000000000000000000000000000000000000000000",
            "difficulty": "0x00",
            "number": "0x00",
            "gasLimit": "0x7fffffffffffffff",
            "gasUsed": "0x00",
            "timestamp": "0x00",
            "extraData": "0x00",
            "mixHash": "0x0000000000000000000000000000000000000000000000000000000000000000",
            "nonce": "0x0000000000000000",
            "baseFeePerGas": "0x0b",
            "withdrawalsRoot": "0x56e81f171bcc55a6ff8345e692c0f86e5b48e01b996cadc001622fb5e363b421",
            "blobGasUsed": "0x00",
            "excessBlobGas": "0x00",
            "parentBeaconBlockRoot": "0x0000000000000000000000000000000000000000000000000000000000000000",
            "hash": "0xc6cacf387fa01d65b79de3955b7a29351dec202a3669cfd9ca5b35098fe39068"
        },
        "pre": {
            "0x000f3df6d732807ef1319fb7b8bb8522d0beac02": {
                "nonce": "0x01",
                "balance": "0x00",
                "code": "0x3373fffffffffffffffffffffffffffffffffffffffe14604d57602036146024575f5ffd5b5f35801560495762001fff810690815414603c575f5ffd5b62001fff01545f5260205ff35b5f5ffd5b62001fff42064281555f359062001fff015500",
                "storage": {}
            },
            "0x92b42f831826417cc556c023e4d1d9cf2e833101": {
                "nonce": "0x00",
                "balance": "0xffffffffffffffffffffffffffffffffffffffffffffffffffffffffffffffff",
                "code": "0x",
                "storage": {}
            },
            "0x3a9ad637d171156f66735584233a5125750f04f2": {
                "nonce": "0x00",
                "balance": "0x00",
                "code": "0x60005460010160005500",
                "storage": {}
            },
            "0x9e441bacd7d45ffec22eccd17e8ebec9926363be": {
                "nonce": "0x00",
                "balance": "0x00",
                "code": "0x60006000600060006000733a9ad637d171156f66735584233a5125750f04f26707fffffffffffffff250630fffffff6000630fffffff60006000733a9ad637d171156f66735584233a5125750f04f26707fffffffffffffff25063ffffffff600063ffffffff60006000733a9ad637d171156f66735584233a5125750f04f26707fffffffffffffff2506000630fffffff6000630fffffff6000733a9ad637d171156f66735584233a5125750f04f26707fffffffffffffff250600063ffffffff600063ffffffff6000733a9ad637d171156f66735584233a5125750f04f26707fffffffffffffff250600067ffffffffffffffff600067ffffffffffffffff6000733a9ad637d171156f66735584233a5125750f04f26707fffffffffffffff25060006fffffffffffffffffffffffffffffffff60006fffffffffffffffffffffffffffffffff6000733a9ad637d171156f66735584233a5125750f04f26707fffffffffffffff25060007fffffffffffffffffffffffffffffffffffffffffffffffffffffffffffffffff60007fffffffffffffffffffffffffffffffffffffffffffffffffffffffffffffffff6000733a9ad637d171156f66735584233a5125750f04f26707fffffffffffffff200",
                "storage": {}
            }
        },
        "postState": {
            "0x000f3df6d732807ef1319fb7b8bb8522d0beac02": {
                "nonce": "0x01",
                "balance": "0x00",
                "code": "0x3373fffffffffffffffffffffffffffffffffffffffe14604d57602036146024575f5ffd5b5f35801560495762001fff810690815414603c575f5ffd5b62001fff01545f5260205ff35b5f5ffd5b62001fff42064281555f359062001fff015500",
                "storage": {
                    "0x03e8": "0x03e8"
                }
            },
            "0x92b42f831826417cc556c023e4d1d9cf2e833101": {
                "nonce": "0x01",
                "balance": "0xfffffffffffffffffffffffffffffffffffffffffffffffffffffffff5ffffff",
                "code": "0x",
                "storage": {}
            },
            "0x3a9ad637d171156f66735584233a5125750f04f2": {
                "nonce": "0x00",
                "balance": "0x00",
                "code": "0x60005460010160005500",
                "storage": {}
            },
            "0x9e441bacd7d45ffec22eccd17e8ebec9926363be": {
                "nonce": "0x00",
                "balance": "0x00",
                "code": "0x60006000600060006000733a9ad637d171156f66735584233a5125750f04f26707fffffffffffffff250630fffffff6000630fffffff60006000733a9ad637d171156f66735584233a5125750f04f26707fffffffffffffff25063ffffffff600063ffffffff60006000733a9ad637d171156f66735584233a5125750f04f26707fffffffffffffff2506000630fffffff6000630fffffff6000733a9ad637d171156f66735584233a5125750f04f26707fffffffffffffff250600063ffffffff600063ffffffff6000733a9ad637d171156f66735584233a5125750f04f26707fffffffffffffff250600067ffffffffffffffff600067ffffffffffffffff6000733a9ad637d171156f66735584233a5125750f04f26707fffffffffffffff25060006fffffffffffffffffffffffffffffffff60006fffffffffffffffffffffffffffffffff6000733a9ad637d171156f66735584233a5125750f04f26707fffffffffffffff25060007fffffffffffffffffffffffffffffffffffffffffffffffffffffffffffffffff60007fffffffffffffffffffffffffffffffffffffffffffffffffffffffffffffffff6000733a9ad637d171156f66735584233a5125750f04f26707fffffffffffffff200",
                "storage": {}
            }
        },
        "lastblockhash": "0xde7afb0399a6d9084036f36a3a503f4b523cf4a661e5fa3108df9379c44c46e4",
        "config": {
            "network": "Cancun",
            "chainid": "0x01",
            "blobSchedule": {
                "Cancun": {
                    "target": "0x03",
                    "max": "0x06",
                    "baseFeeUpdateFraction": "0x32f0ed"
                }
            }
        },
        "genesisRLP": "0xf90240f9023aa00000000000000000000000000000000000000000000000000000000000000000a01dcc4de8dec75d7aab85b567b6ccd41ad312451b948a7413f0a142fd40d49347940000000000000000000000000000000000000000a01d7597ab071101ab4fa35422da3963b3674f2d7081e3c443a95ad49047ed8ab6a056e81f171bcc55a6ff8345e692c0f86e5b48e01b996cadc001622fb5e363b421a056e81f171bcc55a6ff8345e692c0f86e5b48e01b996cadc001622fb5e363b421b90100000000000000000000000000000000000000000000000000000000000000000000000000000000000000000000000000000000000000000000000000000000000000000000000000000000000000000000000000000000000000000000000000000000000000000000000000000000000000000000000000000000000000000000000000000000000000000000000000000000000000000000000000000000000000000000000000000000000000000000000000000000000000000000000000000000000000000000000000000000000000000000000000000000000000000000000000000000000000000000000000000000000000000000000000000000008080887fffffffffffffff808000a000000000000000000000000000000000000000000000000000000000000000008800000000000000000ba056e81f171bcc55a6ff8345e692c0f86e5b48e01b996cadc001622fb5e363b4218080a00000000000000000000000000000000000000000000000000000000000000000c0c0c0",
        "blocks": [
            {
                "blockHeader": {
                    "parentHash": "0xc6cacf387fa01d65b79de3955b7a29351dec202a3669cfd9ca5b35098fe39068",
                    "uncleHash": "0x1dcc4de8dec75d7aab85b567b6ccd41ad312451b948a7413f0a142fd40d49347",
                    "coinbase": "0x2adc25665018aa1fe0e6bc666dac8fc2697ff9ba",
                    "stateRoot": "0xbbb91f329f35b9f20ffa666b2d5591a5ced65e1521da1151d10269a077808654",
                    "transactionsTrie": "0xad98641969f175e483025b4a7f24bec0bc3f224ac828eed95175cb05057a0189",
                    "receiptTrie": "0x6109c57d8983f520f4b510024a1760aff8d920bb293bbc00c30abdac956b3b2f",
                    "bloom": "0x00000000000000000000000000000000000000000000000000000000000000000000000000000000000000000000000000000000000000000000000000000000000000000000000000000000000000000000000000000000000000000000000000000000000000000000000000000000000000000000000000000000000000000000000000000000000000000000000000000000000000000000000000000000000000000000000000000000000000000000000000000000000000000000000000000000000000000000000000000000000000000000000000000000000000000000000000000000000000000000000000000000000000000000000000000000",
                    "difficulty": "0x00",
                    "number": "0x01",
                    "gasLimit": "0x7fffffffffffffff",
                    "gasUsed": "0x01000000",
                    "timestamp": "0x03e8",
                    "extraData": "0x00",
                    "mixHash": "0x0000000000000000000000000000000000000000000000000000000000020000",
                    "nonce": "0x0000000000000000",
                    "baseFeePerGas": "0x0a",
                    "withdrawalsRoot": "0x56e81f171bcc55a6ff8345e692c0f86e5b48e01b996cadc001622fb5e363b421",
                    "blobGasUsed": "0x00",
                    "excessBlobGas": "0x00",
                    "parentBeaconBlockRoot": "0x0000000000000000000000000000000000000000000000000000000000000000",
                    "hash": "0xde7afb0399a6d9084036f36a3a503f4b523cf4a661e5fa3108df9379c44c46e4"
                },
                "transactions": [
                    {
                        "type": "0x00",
                        "chainId": "0x01",
                        "nonce": "0x00",
                        "gasPrice": "0x0a",
                        "gasLimit": "0x01000000",
                        "to": "0x9e441bacd7d45ffec22eccd17e8ebec9926363be",
                        "value": "0x01",
                        "data": "0x",
                        "v": "0x26",
                        "r": "0x65e52f47ec330f79522f75ff3e06b35150d91d8ed10b71784ace0c814f6cea34",
                        "s": "0x1102da322ac9db07348ee077d75fc18709251214a58a6b39c6751bfcb45e1bd7",
                        "sender": "0x92b42f831826417cc556c023e4d1d9cf2e833101"
                    }
                ],
                "uncleHeaders": [],
                "withdrawals": [],
                "receipts": [
                    {
                        "transactionHash": "0x87050f5b901794e7596897f812041c022cb103479a677d61e35ac7365cba65de",
                        "type": "0x00",
                        "cumulativeGasUsed": "0x01000000",
                        "bloom": "0x00000000000000000000000000000000000000000000000000000000000000000000000000000000000000000000000000000000000000000000000000000000000000000000000000000000000000000000000000000000000000000000000000000000000000000000000000000000000000000000000000000000000000000000000000000000000000000000000000000000000000000000000000000000000000000000000000000000000000000000000000000000000000000000000000000000000000000000000000000000000000000000000000000000000000000000000000000000000000000000000000000000000000000000000000000000",
                        "logs": [],
                        "status": false,
                        "rlp": "0xf9010a808401000000b9010000000000000000000000000000000000000000000000000000000000000000000000000000000000000000000000000000000000000000000000000000000000000000000000000000000000000000000000000000000000000000000000000000000000000000000000000000000000000000000000000000000000000000000000000000000000000000000000000000000000000000000000000000000000000000000000000000000000000000000000000000000000000000000000000000000000000000000000000000000000000000000000000000000000000000000000000000000000000000000000000000000000000000000000000000000000c0"
                    }
                ],
                "rlp": "0xf902aaf90240a0c6cacf387fa01d65b79de3955b7a29351dec202a3669cfd9ca5b35098fe39068a01dcc4de8dec75d7aab85b567b6ccd41ad312451b948a7413f0a142fd40d49347942adc25665018aa1fe0e6bc666dac8fc2697ff9baa0bbb91f329f35b9f20ffa666b2d5591a5ced65e1521da1151d10269a077808654a0ad98641969f175e483025b4a7f24bec0bc3f224ac828eed95175cb05057a0189a06109c57d8983f520f4b510024a1760aff8d920bb293bbc00c30abdac956b3b2fb90100000000000000000000000000000000000000000000000000000000000000000000000000000000000000000000000000000000000000000000000000000000000000000000000000000000000000000000000000000000000000000000000000000000000000000000000000000000000000000000000000000000000000000000000000000000000000000000000000000000000000000000000000000000000000000000000000000000000000000000000000000000000000000000000000000000000000000000000000000000000000000000000000000000000000000000000000000000000000000000000000000000000000000000000000000000008001887fffffffffffffff84010000008203e800a000000000000000000000000000000000000000000000000000000000000200008800000000000000000aa056e81f171bcc55a6ff8345e692c0f86e5b48e01b996cadc001622fb5e363b4218080a00000000000000000000000000000000000000000000000000000000000000000f863f861800a8401000000949e441bacd7d45ffec22eccd17e8ebec9926363be018026a065e52f47ec330f79522f75ff3e06b35150d91d8ed10b71784ace0c814f6cea34a01102da322ac9db07348ee077d75fc18709251214a58a6b39c6751bfcb45e1bd7c0c0",
                "blocknumber": "1"
            }
        ],
        "sealEngine": "NoProof",
        "_info": {
            "hash": "0x8ad51079fb832e0bbe94eadd74a69be954e20bccd28c86eba9fe08976eadecde",
            "fixture-format": "blockchain_test",
            "comment": "`execution-specs` generated test",
            "filling-transition-tool": "2.19.0",
            "description": "Test_callcode_bounds.",
            "url": "https://github.com/ethereum/execution-specs/blob/tests-snobal-devnet-5@v8037.0.0/tests/ported_static/stMemoryStressTest/test_callcode_bounds.py#L25",
            "metadata": {
                "opcode_count": {}
            }
        }
    }
}