{
    "tests/ported_static/stInitCodeTest/test_return_test.py::test_return_test[fork_Cancun-blockchain_test_from_state_test]": {
        "network": "Cancun",
        "genesisBlockHeader": {
            "parentHash": "0x0000000000000000000000000000000000000000000000000000000000000000",
            "uncleHash": "0x1dcc4de8dec75d7aab85b567b6ccd41ad312451b948a7413f0a142fd40d49347",
            "coinbase": "0x0000000000000000000000000000000000000000",
            "stateRoot": "0x9b5e761eddffddc38e9861fc16e364911aed95273fc9c2821dd808bce0f6ec78",
            "transactionsTrie": "0x56e81f171bcc55a6ff8345e692c0f86e5b48e01b996cadc001622fb5e363b421",
            "receiptTrie": "0x56e81f171bcc55a6ff8345e692c0f86e5b48e01b996cadc001622fb5e363b421",
            "bloom": "0x00000000000000000000000000000000000000000000000000000000000000000000000000000000000000000000000000000000000000000000000000000000000000000000000000000000000000000000000000000000000000000000000000000000000000000000000000000000000000000000000000000000000000000000000000000000000000000000000000000000000000000000000000000000000000000000000000000000000000000000000000000000000000000000000000000000000000000000000000000000000000000000000000000000000000000000000000000000000000000000000000000000000000000000000000000000",
            "difficulty": "0x00",
            "number": "0x00",
            "gasLimit": "0x989680",
            "gasUsed": "0x00",
            "timestamp": "0x00",
            "extraData": "0x00",
            "mixHash": "0x0000000000000000000000000000000000000000000000000000000000000000",
            "nonce": "0x0000000000000000",
            "baseFeePerGas": "0x0b",
            "withdrawalsRoot": "0x56e81f171bcc55a6ff8345e692c0f86e5b48e01b996cadc001622fb5e363b421",
            "blobGasUsed": "0x00",
            "excessBlobGas": "0x00",
            "parentBeaconBlockRoot": "0x0000000000000000000000000000000000000000000000000000000000000000",
            "hash": "0x11fdb0b5624743b9c4005d78146e920723927a7ca7bb21bccef72257737db3cf"
        },
        "pre": {
            "0x000f3df6d732807ef1319fb7b8bb8522d0beac02": {
                "nonce": "0x01",
                "balance": "0x00",
                "code": "0x3373fffffffffffffffffffffffffffffffffffffffe14604d57602036146024575f5ffd5b5f35801560495762001fff810690815414603c575f5ffd5b62001fff01545f5260205ff35b5f5ffd5b62001fff42064281555f359062001fff015500",
                "storage": {}
            },
            "0x6231b2a8ef842039049cd38626476e31ff3ca540": {
                "nonce": "0x00",
                "balance": "0x989680",
                "code": "0x",
                "storage": {}
            },
            "0xf6505e0cbd6dd16a70a4a6ec1710b9ea694d513b": {
                "nonce": "0x00",
                "balance": "0x0186a0",
                "code": "0x60156000526001601ff300",
                "storage": {}
            },
            "0xf8f29976050c78bdd7bc79dd6e1cc7405881ab62": {
                "nonce": "0x00",
                "balance": "0x00",
                "code": "0x6001601f6001601e600073f6505e0cbd6dd16a70a4a6ec1710b9ea694d513b6107d0f1506000516000556002601ef300",
                "storage": {}
            }
        },
        "postState": {
            "0x000f3df6d732807ef1319fb7b8bb8522d0beac02": {
                "nonce": "0x01",
                "balance": "0x00",
                "code": "0x3373fffffffffffffffffffffffffffffffffffffffe14604d57602036146024575f5ffd5b5f35801560495762001fff810690815414603c575f5ffd5b62001fff01545f5260205ff35b5f5ffd5b62001fff42064281555f359062001fff015500",
                "storage": {
                    "0x03e8": "0x03e8"
                }
            },
            "0x6231b2a8ef842039049cd38626476e31ff3ca540": {
                "nonce": "0x01",
                "balance": "0x919b0a",
                "code": "0x",
                "storage": {}
            },
            "0xf6505e0cbd6dd16a70a4a6ec1710b9ea694d513b": {
                "nonce": "0x00",
                "balance": "0x0186a0",
                "code": "0x60156000526001601ff300",
                "storage": {}
            },
            "0xf8f29976050c78bdd7bc79dd6e1cc7405881ab62": {
                "nonce": "0x00",
                "balance": "0x00",
                "code": "0x6001601f6001601e600073f6505e0cbd6dd16a70a4a6ec1710b9ea694d513b6107d0f1506000516000556002601ef300",
                "storage": {
                    "0x00": "0x15"
                }
            }
        },
        "lastblockhash": "0x3fe2c878f38c4f30f76e132200449d8d7c1e28167b3d1c37026d8890bc4e086e",
        "config": {
            "network": "Cancun",
            "chainid": "0x01",
            "blobSchedule": {
                "Cancun": {
                    "target": "0x03",
                    "max": "0x06",
                    "baseFeeUpdateFraction": "0x32f0ed"
                }
            }
        },
        "genesisRLP": "0xf9023bf90235a00000000000000000000000000000000000000000000000000000000000000000a01dcc4de8dec75d7aab85b567b6ccd41ad312451b948a7413f0a142fd40d49347940000000000000000000000000000000000000000a09b5e761eddffddc38e9861fc16e364911aed95273fc9c2821dd808bce0f6ec78a056e81f171bcc55a6ff8345e692c0f86e5b48e01b996cadc001622fb5e363b421a056e81f171bcc55a6ff8345e692c0f86e5b48e01b996cadc001622fb5e363b421b9010000000000000000000000000000000000000000000000000000000000000000000000000000000000000000000000000000000000000000000000000000000000000000000000000000000000000000000000000000000000000000000000000000000000000000000000000000000000000000000000000000000000000000000000000000000000000000000000000000000000000000000000000000000000000000000000000000000000000000000000000000000000000000000000000000000000000000000000000000000000000000000000000000000000000000000000000000000000000000000000000000000000000000000000000000000000808083989680808000a000000000000000000000000000000000000000000000000000000000000000008800000000000000000ba056e81f171bcc55a6ff8345e692c0f86e5b48e01b996cadc001622fb5e363b4218080a00000000000000000000000000000000000000000000000000000000000000000c0c0c0",
        "blocks": [
            {
                "blockHeader": {
                    "parentHash": "0x11fdb0b5624743b9c4005d78146e920723927a7ca7bb21bccef72257737db3cf",
                    "uncleHash": "0x1dcc4de8dec75d7aab85b567b6ccd41ad312451b948a7413f0a142fd40d49347",
                    "coinbase": "0x2adc25665018aa1fe0e6bc666dac8fc2697ff9ba",
                    "stateRoot": "0x4c8fca416e08ffedf232c57b4ddb9eb83e61e065584592569e32329f5aec1381",
                    "transactionsTrie": "0xf3ec0555bd8071718c36b56acabe12ab4117d8032d7adc38898dce8ed7a3b741",
                    "receiptTrie": "0x8b18f86cfc2ae5d400549eb7e6609334b497800ddbdc2b80086b8589043dd1e3",
                    "bloom": "0x00000000000000000000000000000000000000000000000000000000000000000000000000000000000000000000000000000000000000000000000000000000000000000000000000000000000000000000000000000000000000000000000000000000000000000000000000000000000000000000000000000000000000000000000000000000000000000000000000000000000000000000000000000000000000000000000000000000000000000000000000000000000000000000000000000000000000000000000000000000000000000000000000000000000000000000000000000000000000000000000000000000000000000000000000000000",
                    "difficulty": "0x00",
                    "number": "0x01",
                    "gasLimit": "0x989680",
                    "gasUsed": "0xb2bf",
                    "timestamp": "0x03e8",
                    "extraData": "0x00",
                    "mixHash": "0x0000000000000000000000000000000000000000000000000000000000020000",
                    "nonce": "0x0000000000000000",
                    "baseFeePerGas": "0x0a",
                    "withdrawalsRoot": "0x56e81f171bcc55a6ff8345e692c0f86e5b48e01b996cadc001622fb5e363b421",
                    "blobGasUsed": "0x00",
                    "excessBlobGas": "0x00",
                    "parentBeaconBlockRoot": "0x0000000000000000000000000000000000000000000000000000000000000000",
                    "hash": "0x3fe2c878f38c4f30f76e132200449d8d7c1e28167b3d1c37026d8890bc4e086e"
                },
                "transactions": [
                    {
                        "type": "0x00",
                        "chainId": "0x01",
                        "nonce": "0x00",
                        "gasPrice": "0x0a",
                        "gasLimit": "0x0493e0",
                        "to": "0xf8f29976050c78bdd7bc79dd6e1cc7405881ab62",
                        "value": "0x00",
                        "data": "0x",
                        "v": "0x25",
                        "r": "0xccf255108a9c237285a2bbdf701c7f992e49eda4b332b09a6023bd1753f6de3c",
                        "s": "0x6f57e7ca619c487ae182b957a6b9acee3269ed80fec524478910be84ece046cb",
                        "sender": "0x6231b2a8ef842039049cd38626476e31ff3ca540"
                    }
                ],
                "uncleHeaders": [],
                "withdrawals": [],
                "receipts": [
                    {
                        "transactionHash": "0x7c39169d8a8bf6ebd151f916e3bafd17b9933d0d7d3a0f55b03c1893f62b1137",
                        "type": "0x00",
                        "cumulativeGasUsed": "0xb2bf",
                        "bloom": "0x00000000000000000000000000000000000000000000000000000000000000000000000000000000000000000000000000000000000000000000000000000000000000000000000000000000000000000000000000000000000000000000000000000000000000000000000000000000000000000000000000000000000000000000000000000000000000000000000000000000000000000000000000000000000000000000000000000000000000000000000000000000000000000000000000000000000000000000000000000000000000000000000000000000000000000000000000000000000000000000000000000000000000000000000000000000",
                        "logs": [],
                        "status": true,
                        "rlp": "0xf901080182b2bfb9010000000000000000000000000000000000000000000000000000000000000000000000000000000000000000000000000000000000000000000000000000000000000000000000000000000000000000000000000000000000000000000000000000000000000000000000000000000000000000000000000000000000000000000000000000000000000000000000000000000000000000000000000000000000000000000000000000000000000000000000000000000000000000000000000000000000000000000000000000000000000000000000000000000000000000000000000000000000000000000000000000000000000000000000000000000000c0"
                    }
                ],
                "rlp": "0xf902a2f90239a011fdb0b5624743b9c4005d78146e920723927a7ca7bb21bccef72257737db3cfa01dcc4de8dec75d7aab85b567b6ccd41ad312451b948a7413f0a142fd40d49347942adc25665018aa1fe0e6bc666dac8fc2697ff9baa04c8fca416e08ffedf232c57b4ddb9eb83e61e065584592569e32329f5aec1381a0f3ec0555bd8071718c36b56acabe12ab4117d8032d7adc38898dce8ed7a3b741a08b18f86cfc2ae5d400549eb7e6609334b497800ddbdc2b80086b8589043dd1e3b901000000000000000000000000000000000000000000000000000000000000000000000000000000000000000000000000000000000000000000000000000000000000000000000000000000000000000000000000000000000000000000000000000000000000000000000000000000000000000000000000000000000000000000000000000000000000000000000000000000000000000000000000000000000000000000000000000000000000000000000000000000000000000000000000000000000000000000000000000000000000000000000000000000000000000000000000000000000000000000000000000000000000000000000000000000000080018398968082b2bf8203e800a000000000000000000000000000000000000000000000000000000000000200008800000000000000000aa056e81f171bcc55a6ff8345e692c0f86e5b48e01b996cadc001622fb5e363b4218080a00000000000000000000000000000000000000000000000000000000000000000f862f860800a830493e094f8f29976050c78bdd7bc79dd6e1cc7405881ab62808025a0ccf255108a9c237285a2bbdf701c7f992e49eda4b332b09a6023bd1753f6de3ca06f57e7ca619c487ae182b957a6b9acee3269ed80fec524478910be84ece046cbc0c0",
                "blocknumber": "1"
            }
        ],
        "sealEngine": "NoProof",
        "_info": {
            "hash": "0xe1d64a96ab4e6d8d92d9fd2a74a05834c888cff76f6ca4e3c3b9118c6ef02216",
            "fixture-format": "blockchain_test",
            "comment": "`execution-specs` generated test",
            "filling-transition-tool": "2.19.0",
            "description": "Test_return_test.",
            "url": "https://github.com/ethereum/execution-specs/blob/tests-snobal-devnet-5@v8037.0.0/tests/ported_static/stInitCodeTest/test_return_test.py#L24",
            "metadata": {
                "opcode_count": {}
            }
        }
    }
}