{
    "tests/ported_static/stCreateTest/test_create_e_contract_create_ne_contract_in_init_tr.py::test_create_e_contract_create_ne_contract_in_init_tr[fork_Cancun-blockchain_test_from_state_test]": {
        "network": "Cancun",
        "genesisBlockHeader": {
            "parentHash": "0x0000000000000000000000000000000000000000000000000000000000000000",
            "uncleHash": "0x1dcc4de8dec75d7aab85b567b6ccd41ad312451b948a7413f0a142fd40d49347",
            "coinbase": "0x0000000000000000000000000000000000000000",
            "stateRoot": "0x7faadee3c8b85c8b216ff7425e4f08440ecc5f6d74d1f2f1bd3ca00e78792269",
            "transactionsTrie": "0x56e81f171bcc55a6ff8345e692c0f86e5b48e01b996cadc001622fb5e363b421",
            "receiptTrie": "0x56e81f171bcc55a6ff8345e692c0f86e5b48e01b996cadc001622fb5e363b421",
            "bloom": "0x00000000000000000000000000000000000000000000000000000000000000000000000000000000000000000000000000000000000000000000000000000000000000000000000000000000000000000000000000000000000000000000000000000000000000000000000000000000000000000000000000000000000000000000000000000000000000000000000000000000000000000000000000000000000000000000000000000000000000000000000000000000000000000000000000000000000000000000000000000000000000000000000000000000000000000000000000000000000000000000000000000000000000000000000000000000",
            "difficulty": "0x00",
            "number": "0x00",
            "gasLimit": "0x989680",
            "gasUsed": "0x00",
            "timestamp": "0x00",
            "extraData": "0x00",
            "mixHash": "0x0000000000000000000000000000000000000000000000000000000000000000",
            "nonce": "0x0000000000000000",
            "baseFeePerGas": "0x0b",
            "withdrawalsRoot": "0x56e81f171bcc55a6ff8345e692c0f86e5b48e01b996cadc001622fb5e363b421",
            "blobGasUsed": "0x00",
            "excessBlobGas": "0x00",
            "parentBeaconBlockRoot": "0x0000000000000000000000000000000000000000000000000000000000000000",
            "hash": "0x2eecb99d4b9f8390ab61d15f32b00bb64e976e6fa9e2783cb2c53311e916d312"
        },
        "pre": {
            "0x000f3df6d732807ef1319fb7b8bb8522d0beac02": {
                "nonce": "0x01",
                "balance": "0x00",
                "code": "0x3373fffffffffffffffffffffffffffffffffffffffe14604d57602036146024575f5ffd5b5f35801560495762001fff810690815414603c575f5ffd5b62001fff01545f5260205ff35b5f5ffd5b62001fff42064281555f359062001fff015500",
                "storage": {}
            },
            "0xd719ccdb2301950b0a0bdf09a2bb1d5f8b225f6f": {
                "nonce": "0x00",
                "balance": "0xe8d4a51000",
                "code": "0x",
                "storage": {}
            },
            "0x7037739af118b0cc14ffadae7721fa1908e18023": {
                "nonce": "0x00",
                "balance": "0xe8d4a51000",
                "code": "0x600c60015500",
                "storage": {}
            }
        },
        "postState": {
            "0x000f3df6d732807ef1319fb7b8bb8522d0beac02": {
                "nonce": "0x01",
                "balance": "0x00",
                "code": "0x3373fffffffffffffffffffffffffffffffffffffffe14604d57602036146024575f5ffd5b5f35801560495762001fff810690815414603c575f5ffd5b62001fff01545f5260205ff35b5f5ffd5b62001fff42064281555f359062001fff015500",
                "storage": {
                    "0x03e8": "0x03e8"
                }
            },
            "0xd719ccdb2301950b0a0bdf09a2bb1d5f8b225f6f": {
                "nonce": "0x01",
                "balance": "0xe8d49406fc",
                "code": "0x",
                "storage": {}
            },
            "0x7037739af118b0cc14ffadae7721fa1908e18023": {
                "nonce": "0x00",
                "balance": "0xe8d4a51000",
                "code": "0x600c60015500",
                "storage": {
                    "0x01": "0x0c"
                }
            },
            "0x2c93579c7497d69b67047f1a50131f2f38eef5db": {
                "nonce": "0x02",
                "balance": "0x00",
                "code": "0x",
                "storage": {}
            },
            "0x3b0d90284cab763c85d4d2127d8633e7e4bca3e8": {
                "nonce": "0x01",
                "balance": "0x00",
                "code": "0x600c600055",
                "storage": {}
            }
        },
        "lastblockhash": "0xa96f58b3b4ea385f8d6d3cc748fbb858bb1d4f49bdcffa1e9302988a9472856f",
        "config": {
            "network": "Cancun",
            "chainid": "0x01",
            "blobSchedule": {
                "Cancun": {
                    "target": "0x03",
                    "max": "0x06",
                    "baseFeeUpdateFraction": "0x32f0ed"
                }
            }
        },
        "genesisRLP": "0xf9023bf90235a00000000000000000000000000000000000000000000000000000000000000000a01dcc4de8dec75d7aab85b567b6ccd41ad312451b948a7413f0a142fd40d49347940000000000000000000000000000000000000000a07faadee3c8b85c8b216ff7425e4f08440ecc5f6d74d1f2f1bd3ca00e78792269a056e81f171bcc55a6ff8345e692c0f86e5b48e01b996cadc001622fb5e363b421a056e81f171bcc55a6ff8345e692c0f86e5b48e01b996cadc001622fb5e363b421b9010000000000000000000000000000000000000000000000000000000000000000000000000000000000000000000000000000000000000000000000000000000000000000000000000000000000000000000000000000000000000000000000000000000000000000000000000000000000000000000000000000000000000000000000000000000000000000000000000000000000000000000000000000000000000000000000000000000000000000000000000000000000000000000000000000000000000000000000000000000000000000000000000000000000000000000000000000000000000000000000000000000000000000000000000000000000808083989680808000a000000000000000000000000000000000000000000000000000000000000000008800000000000000000ba056e81f171bcc55a6ff8345e692c0f86e5b48e01b996cadc001622fb5e363b4218080a00000000000000000000000000000000000000000000000000000000000000000c0c0c0",
        "blocks": [
            {
                "blockHeader": {
                    "parentHash": "0x2eecb99d4b9f8390ab61d15f32b00bb64e976e6fa9e2783cb2c53311e916d312",
                    "uncleHash": "0x1dcc4de8dec75d7aab85b567b6ccd41ad312451b948a7413f0a142fd40d49347",
                    "coinbase": "0x2adc25665018aa1fe0e6bc666dac8fc2697ff9ba",
                    "stateRoot": "0xb42947dcc14e5721897d46dd47ec6641de26251e1a6e7b9a68e868add7ea2046",
                    "transactionsTrie": "0xaa989c5da402e780f66230e516c5f1fb23e03a35b74edea008f760942f28f2bd",
                    "receiptTrie": "0x87bc475d1c4dd055f5b22d5f0358daf69a33ceae44a32b742840173b65b8a89e",
                    "bloom": "0x00000000000000000000000000000000000000000000000000000000000000000000000000000000000000000000000000000000000000000000000000000000000000000000000000000000000000000000000000000000000000000000000000000000000000000000000000000000000000000000000000000000000000000000000000000000000000000000000000000000000000000000000000000000000000000000000000000000000000000000000000000000000000000000000000000000000000000000000000000000000000000000000000000000000000000000000000000000000000000000000000000000000000000000000000000000",
                    "difficulty": "0x00",
                    "number": "0x01",
                    "gasLimit": "0x989680",
                    "gasUsed": "0x01b41a",
                    "timestamp": "0x03e8",
                    "extraData": "0x00",
                    "mixHash": "0x0000000000000000000000000000000000000000000000000000000000020000",
                    "nonce": "0x0000000000000000",
                    "baseFeePerGas": "0x0a",
                    "withdrawalsRoot": "0x56e81f171bcc55a6ff8345e692c0f86e5b48e01b996cadc001622fb5e363b421",
                    "blobGasUsed": "0x00",
                    "excessBlobGas": "0x00",
                    "parentBeaconBlockRoot": "0x0000000000000000000000000000000000000000000000000000000000000000",
                    "hash": "0xa96f58b3b4ea385f8d6d3cc748fbb858bb1d4f49bdcffa1e9302988a9472856f"
                },
                "transactions": [
                    {
                        "type": "0x00",
                        "chainId": "0x01",
                        "nonce": "0x00",
                        "gasPrice": "0x0a",
                        "gasLimit": "0x0927c0",
                        "value": "0x00",
                        "data": "0x60006000600060006000737037739af118b0cc14ffadae7721fa1908e1802361ea60f1506d64600c6000556000526005601bf3600052600e60126000f0",
                        "v": "0x25",
                        "r": "0xfacb9bb87db49a080c28a1a67dad278347f2b18cd86ad9ac076aa62c5bac843b",
                        "s": "0x0f53329b93c76d0d5e8063fcfb43e50c45ea40f6086e14fae2f16c8cad77788a",
                        "sender": "0xd719ccdb2301950b0a0bdf09a2bb1d5f8b225f6f",
                        "to": ""
                    }
                ],
                "uncleHeaders": [],
                "withdrawals": [],
                "receipts": [
                    {
                        "transactionHash": "0x9cbab06d3008e3d7b9d67422cfca4fdff316134b6a1ef6b04bf4d70f224695cb",
                        "type": "0x00",
                        "cumulativeGasUsed": "0x01b41a",
                        "bloom": "0x00000000000000000000000000000000000000000000000000000000000000000000000000000000000000000000000000000000000000000000000000000000000000000000000000000000000000000000000000000000000000000000000000000000000000000000000000000000000000000000000000000000000000000000000000000000000000000000000000000000000000000000000000000000000000000000000000000000000000000000000000000000000000000000000000000000000000000000000000000000000000000000000000000000000000000000000000000000000000000000000000000000000000000000000000000000",
                        "logs": [],
                        "status": true,
                        "rlp": "0xf90109018301b41ab9010000000000000000000000000000000000000000000000000000000000000000000000000000000000000000000000000000000000000000000000000000000000000000000000000000000000000000000000000000000000000000000000000000000000000000000000000000000000000000000000000000000000000000000000000000000000000000000000000000000000000000000000000000000000000000000000000000000000000000000000000000000000000000000000000000000000000000000000000000000000000000000000000000000000000000000000000000000000000000000000000000000000000000000000000000000000c0"
                    }
                ],
                "rlp": "0xf902cdf9023aa02eecb99d4b9f8390ab61d15f32b00bb64e976e6fa9e2783cb2c53311e916d312a01dcc4de8dec75d7aab85b567b6ccd41ad312451b948a7413f0a142fd40d49347942adc25665018aa1fe0e6bc666dac8fc2697ff9baa0b42947dcc14e5721897d46dd47ec6641de26251e1a6e7b9a68e868add7ea2046a0aa989c5da402e780f66230e516c5f1fb23e03a35b74edea008f760942f28f2bda087bc475d1c4dd055f5b22d5f0358daf69a33ceae44a32b742840173b65b8a89eb90100000000000000000000000000000000000000000000000000000000000000000000000000000000000000000000000000000000000000000000000000000000000000000000000000000000000000000000000000000000000000000000000000000000000000000000000000000000000000000000000000000000000000000000000000000000000000000000000000000000000000000000000000000000000000000000000000000000000000000000000000000000000000000000000000000000000000000000000000000000000000000000000000000000000000000000000000000000000000000000000000000000000000000000000000000000008001839896808301b41a8203e800a000000000000000000000000000000000000000000000000000000000000200008800000000000000000aa056e81f171bcc55a6ff8345e692c0f86e5b48e01b996cadc001622fb5e363b4218080a00000000000000000000000000000000000000000000000000000000000000000f88cf88a800a830927c08080b83d60006000600060006000737037739af118b0cc14ffadae7721fa1908e1802361ea60f1506d64600c6000556000526005601bf3600052600e60126000f025a0facb9bb87db49a080c28a1a67dad278347f2b18cd86ad9ac076aa62c5bac843ba00f53329b93c76d0d5e8063fcfb43e50c45ea40f6086e14fae2f16c8cad77788ac0c0",
                "blocknumber": "1"
            }
        ],
        "sealEngine": "NoProof",
        "_info": {
            "hash": "0x8389a7d9f82cd0df90a91b45903546a5e44da3959be6757a5d982ed85ea6b06c",
            "fixture-format": "blockchain_test",
            "comment": "`execution-specs` generated test",
            "filling-transition-tool": "2.19.0",
            "description": "Test_create_e_contract_create_ne_contract_in_init_tr.",
            "url": "https://github.com/ethereum/execution-specs/blob/tests-snobal-devnet-5@v8037.0.0/tests/ported_static/stCreateTest/test_create_e_contract_create_ne_contract_in_init_tr.py#L24",
            "metadata": {
                "opcode_count": {}
            }
        }
    }
}