{
    "tests/frontier/examples/test_block_intermediate_state.py::test_block_intermediate_state[fork_Frontier-blockchain_test]": {
        "network": "Frontier",
        "genesisBlockHeader": {
            "parentHash": "0x0000000000000000000000000000000000000000000000000000000000000000",
            "uncleHash": "0x1dcc4de8dec75d7aab85b567b6ccd41ad312451b948a7413f0a142fd40d49347",
            "coinbase": "0x0000000000000000000000000000000000000000",
            "stateRoot": "0x54c0b7011d50347550ba416f87ca9eec18f21e0c2ced6b78225266da36997589",
            "transactionsTrie": "0x56e81f171bcc55a6ff8345e692c0f86e5b48e01b996cadc001622fb5e363b421",
            "receiptTrie": "0x56e81f171bcc55a6ff8345e692c0f86e5b48e01b996cadc001622fb5e363b421",
            "bloom": "0x00000000000000000000000000000000000000000000000000000000000000000000000000000000000000000000000000000000000000000000000000000000000000000000000000000000000000000000000000000000000000000000000000000000000000000000000000000000000000000000000000000000000000000000000000000000000000000000000000000000000000000000000000000000000000000000000000000000000000000000000000000000000000000000000000000000000000000000000000000000000000000000000000000000000000000000000000000000000000000000000000000000000000000000000000000000",
            "difficulty": "0x020000",
            "number": "0x00",
            "gasLimit": "0x07270e00",
            "gasUsed": "0x00",
            "timestamp": "0x00",
            "extraData": "0x00",
            "mixHash": "0x0000000000000000000000000000000000000000000000000000000000000000",
            "nonce": "0x0000000000000000",
            "hash": "0xf0cf3288d55ae0cc47ea0a97fb552eba5098f43433b045bd1a103de563604ac7"
        },
        "pre": {
            "0x247c9be4051fbb24f5416c54388984fbaccc6810": {
                "nonce": "0x00",
                "balance": "0x3635c9adc5dea00000",
                "code": "0x",
                "storage": {}
            }
        },
        "postState": {
            "0x247c9be4051fbb24f5416c54388984fbaccc6810": {
                "nonce": "0x02",
                "balance": "0x3635c9adc5de999760",
                "code": "0x",
                "storage": {}
            },
            "0x504fdcca69194e6a29ac284abd3b87405cd550d4": {
                "nonce": "0x00",
                "balance": "0x00",
                "code": "0x",
                "storage": {}
            },
            "0x2adc25665018aa1fe0e6bc666dac8fc2697ff9ba": {
                "nonce": "0x00",
                "balance": "0xd02ab486cee268a0",
                "code": "0x",
                "storage": {}
            },
            "0x773f867187ece0597d08462348b0d5cccd1a020e": {
                "nonce": "0x00",
                "balance": "0x00",
                "code": "0x",
                "storage": {}
            }
        },
        "lastblockhash": "0x35633fd8bb972cae2e390d6310b4ae224bf1505158e5ec103bffc8ea6536f004",
        "config": {
            "network": "Frontier",
            "chainid": "0x01"
        },
        "genesisRLP": "0xf901f9f901f4a00000000000000000000000000000000000000000000000000000000000000000a01dcc4de8dec75d7aab85b567b6ccd41ad312451b948a7413f0a142fd40d49347940000000000000000000000000000000000000000a054c0b7011d50347550ba416f87ca9eec18f21e0c2ced6b78225266da36997589a056e81f171bcc55a6ff8345e692c0f86e5b48e01b996cadc001622fb5e363b421a056e81f171bcc55a6ff8345e692c0f86e5b48e01b996cadc001622fb5e363b421b901000000000000000000000000000000000000000000000000000000000000000000000000000000000000000000000000000000000000000000000000000000000000000000000000000000000000000000000000000000000000000000000000000000000000000000000000000000000000000000000000000000000000000000000000000000000000000000000000000000000000000000000000000000000000000000000000000000000000000000000000000000000000000000000000000000000000000000000000000000000000000000000000000000000000000000000000000000000000000000000000000000000000000000000000000000000083020000808407270e00808000a00000000000000000000000000000000000000000000000000000000000000000880000000000000000c0c0",
        "blocks": [
            {
                "blockHeader": {
                    "parentHash": "0xf0cf3288d55ae0cc47ea0a97fb552eba5098f43433b045bd1a103de563604ac7",
                    "uncleHash": "0x1dcc4de8dec75d7aab85b567b6ccd41ad312451b948a7413f0a142fd40d49347",
                    "coinbase": "0x2adc25665018aa1fe0e6bc666dac8fc2697ff9ba",
                    "stateRoot": "0xa5e38ba7f93ac3bb67b3a1848ee155f6cabed05c7c5fb8b4139f7af0f8fb694f",
                    "transactionsTrie": "0x847d0e3ef7c29e46bb7e0b35f2bd8d5067387768432ddea1eb0989f4633f187c",
                    "receiptTrie": "0x062c22a68cbf88e73d1349d052e1f99004c7ddd1e1ffec206d3ed9e613479300",
                    "bloom": "0x00000000000000000000000000000000000000000000000000000000000000000000000000000000000000000000000000000000000000000000000000000000000000000000000000000000000000000000000000000000000000000000000000000000000000000000000000000000000000000000000000000000000000000000000000000000000000000000000000000000000000000000000000000000000000000000000000000000000000000000000000000000000000000000000000000000000000000000000000000000000000000000000000000000000000000000000000000000000000000000000000000000000000000000000000000000",
                    "difficulty": "0x020040",
                    "number": "0x01",
                    "gasLimit": "0x07270e00",
                    "gasUsed": "0x5208",
                    "timestamp": "0x0c",
                    "extraData": "0x",
                    "mixHash": "0x0000000000000000000000000000000000000000000000000000000000000000",
                    "nonce": "0x0000000000000000",
                    "hash": "0x08226f020b2860b9f94e4e1eccf00cf4af610e12634e5c76723cd324330eb411"
                },
                "transactions": [
                    {
                        "type": "0x00",
                        "chainId": "0x01",
                        "nonce": "0x00",
                        "gasPrice": "0x0a",
                        "gasLimit": "0x0186a0",
                        "value": "0x00",
                        "data": "0x",
                        "v": "0x1c",
                        "r": "0x37e7f519df845b34d854b43cecdfa3fcc602879ecd8dad63e58f4111a962c692",
                        "s": "0x049175a9a102abb091ba4d129a39d9134766ce76de88bf5d0746f0cf44c776d7",
                        "sender": "0x247c9be4051fbb24f5416c54388984fbaccc6810",
                        "to": ""
                    }
                ],
                "uncleHeaders": [],
                "rlp": "0xf9024af901f6a0f0cf3288d55ae0cc47ea0a97fb552eba5098f43433b045bd1a103de563604ac7a01dcc4de8dec75d7aab85b567b6ccd41ad312451b948a7413f0a142fd40d49347942adc25665018aa1fe0e6bc666dac8fc2697ff9baa0a5e38ba7f93ac3bb67b3a1848ee155f6cabed05c7c5fb8b4139f7af0f8fb694fa0847d0e3ef7c29e46bb7e0b35f2bd8d5067387768432ddea1eb0989f4633f187ca0062c22a68cbf88e73d1349d052e1f99004c7ddd1e1ffec206d3ed9e613479300b901000000000000000000000000000000000000000000000000000000000000000000000000000000000000000000000000000000000000000000000000000000000000000000000000000000000000000000000000000000000000000000000000000000000000000000000000000000000000000000000000000000000000000000000000000000000000000000000000000000000000000000000000000000000000000000000000000000000000000000000000000000000000000000000000000000000000000000000000000000000000000000000000000000000000000000000000000000000000000000000000000000000000000000000000000000000083020040018407270e008252080c80a00000000000000000000000000000000000000000000000000000000000000000880000000000000000f84ef84c800a830186a08080801ca037e7f519df845b34d854b43cecdfa3fcc602879ecd8dad63e58f4111a962c692a0049175a9a102abb091ba4d129a39d9134766ce76de88bf5d0746f0cf44c776d7c0",
                "blocknumber": "1"
            },
            {
                "blockHeader": {
                    "parentHash": "0x08226f020b2860b9f94e4e1eccf00cf4af610e12634e5c76723cd324330eb411",
                    "uncleHash": "0x1dcc4de8dec75d7aab85b567b6ccd41ad312451b948a7413f0a142fd40d49347",
                    "coinbase": "0x2adc25665018aa1fe0e6bc666dac8fc2697ff9ba",
                    "stateRoot": "0x724c82f9be2d82a71a2f7a577aef7f4c2b20a083b45814561bc1ae994575ae51",
                    "transactionsTrie": "0x56e81f171bcc55a6ff8345e692c0f86e5b48e01b996cadc001622fb5e363b421",
                    "receiptTrie": "0x56e81f171bcc55a6ff8345e692c0f86e5b48e01b996cadc001622fb5e363b421",
                    "bloom": "0x00000000000000000000000000000000000000000000000000000000000000000000000000000000000000000000000000000000000000000000000000000000000000000000000000000000000000000000000000000000000000000000000000000000000000000000000000000000000000000000000000000000000000000000000000000000000000000000000000000000000000000000000000000000000000000000000000000000000000000000000000000000000000000000000000000000000000000000000000000000000000000000000000000000000000000000000000000000000000000000000000000000000000000000000000000000",
                    "difficulty": "0x020080",
                    "number": "0x02",
                    "gasLimit": "0x07270e00",
                    "gasUsed": "0x00",
                    "timestamp": "0x18",
                    "extraData": "0x",
                    "mixHash": "0x0000000000000000000000000000000000000000000000000000000000000000",
                    "nonce": "0x0000000000000000",
                    "hash": "0x6bf485e4673c28e3bcab2602e1b484ff80f8d2100cc12c11fb89b5b599bb3b06"
                },
                "transactions": [],
                "uncleHeaders": [],
                "rlp": "0xf901f9f901f4a008226f020b2860b9f94e4e1eccf00cf4af610e12634e5c76723cd324330eb411a01dcc4de8dec75d7aab85b567b6ccd41ad312451b948a7413f0a142fd40d49347942adc25665018aa1fe0e6bc666dac8fc2697ff9baa0724c82f9be2d82a71a2f7a577aef7f4c2b20a083b45814561bc1ae994575ae51a056e81f171bcc55a6ff8345e692c0f86e5b48e01b996cadc001622fb5e363b421a056e81f171bcc55a6ff8345e692c0f86e5b48e01b996cadc001622fb5e363b421b901000000000000000000000000000000000000000000000000000000000000000000000000000000000000000000000000000000000000000000000000000000000000000000000000000000000000000000000000000000000000000000000000000000000000000000000000000000000000000000000000000000000000000000000000000000000000000000000000000000000000000000000000000000000000000000000000000000000000000000000000000000000000000000000000000000000000000000000000000000000000000000000000000000000000000000000000000000000000000000000000000000000000000000000000000000000083020080028407270e00801880a00000000000000000000000000000000000000000000000000000000000000000880000000000000000c0c0",
                "blocknumber": "2"
            },
            {
                "blockHeader": {
                    "parentHash": "0x6bf485e4673c28e3bcab2602e1b484ff80f8d2100cc12c11fb89b5b599bb3b06",
                    "uncleHash": "0x1dcc4de8dec75d7aab85b567b6ccd41ad312451b948a7413f0a142fd40d49347",
                    "coinbase": "0x2adc25665018aa1fe0e6bc666dac8fc2697ff9ba",
                    "stateRoot": "0x45ebbea54fe9bb890804b7eebcd93fbd83ebad2a962c83f2b552c7b71886c3d1",
                    "transactionsTrie": "0xb0534f263a2e74df2a6363b3601a503341ab6c4a94588ba6dc040c8ef99fc8c9",
                    "receiptTrie": "0x0865650b75d2d5ad5f5fa51678a9de666f2e7acf726748e1b5534f536abcf474",
                    "bloom": "0x00000000000000000000000000000000000000000000000000000000000000000000000000000000000000000000000000000000000000000000000000000000000000000000000000000000000000000000000000000000000000000000000000000000000000000000000000000000000000000000000000000000000000000000000000000000000000000000000000000000000000000000000000000000000000000000000000000000000000000000000000000000000000000000000000000000000000000000000000000000000000000000000000000000000000000000000000000000000000000000000000000000000000000000000000000000",
                    "difficulty": "0x0200c0",
                    "number": "0x03",
                    "gasLimit": "0x07270e00",
                    "gasUsed": "0x5208",
                    "timestamp": "0x24",
                    "extraData": "0x",
                    "mixHash": "0x0000000000000000000000000000000000000000000000000000000000000000",
                    "nonce": "0x0000000000000000",
                    "hash": "0x35633fd8bb972cae2e390d6310b4ae224bf1505158e5ec103bffc8ea6536f004"
                },
                "transactions": [
                    {
                        "type": "0x00",
                        "chainId": "0x01",
                        "nonce": "0x01",
                        "gasPrice": "0x0a",
                        "gasLimit": "0x0186a0",
                        "value": "0x00",
                        "data": "0x",
                        "v": "0x1c",
                        "r": "0x2ea2e1bfa924c85d277eaaccb68b6fe05848ac903ff70c1f68e6b8c5973a36a8",
                        "s": "0x1f4329aa7544d5fdb879dd814cd1f82dd3717b5cfb58733b4eacf691c917382b",
                        "sender": "0x247c9be4051fbb24f5416c54388984fbaccc6810",
                        "to": ""
                    }
                ],
                "uncleHeaders": [],
                "rlp": "0xf9024af901f6a06bf485e4673c28e3bcab2602e1b484ff80f8d2100cc12c11fb89b5b599bb3b06a01dcc4de8dec75d7aab85b567b6ccd41ad312451b948a7413f0a142fd40d49347942adc25665018aa1fe0e6bc666dac8fc2697ff9baa045ebbea54fe9bb890804b7eebcd93fbd83ebad2a962c83f2b552c7b71886c3d1a0b0534f263a2e74df2a6363b3601a503341ab6c4a94588ba6dc040c8ef99fc8c9a00865650b75d2d5ad5f5fa51678a9de666f2e7acf726748e1b5534f536abcf474b9010000000000000000000000000000000000000000000000000000000000000000000000000000000000000000000000000000000000000000000000000000000000000000000000000000000000000000000000000000000000000000000000000000000000000000000000000000000000000000000000000000000000000000000000000000000000000000000000000000000000000000000000000000000000000000000000000000000000000000000000000000000000000000000000000000000000000000000000000000000000000000000000000000000000000000000000000000000000000000000000000000000000000000000000000000000000830200c0038407270e008252082480a00000000000000000000000000000000000000000000000000000000000000000880000000000000000f84ef84c010a830186a08080801ca02ea2e1bfa924c85d277eaaccb68b6fe05848ac903ff70c1f68e6b8c5973a36a8a01f4329aa7544d5fdb879dd814cd1f82dd3717b5cfb58733b4eacf691c917382bc0",
                "blocknumber": "3"
            }
        ],
        "sealEngine": "NoProof",
        "_info": {
            "hash": "0x3d15b1527e39ea25b32e7854f383ac53cda0318017e9698552617466a67d7fd1",
            "comment": "`execution-specs` generated test",
            "filling-transition-tool": "2.18.0rc6",
            "description": "Verify intermediate block states.",
            "url": "https://github.com/ethereum/execution-specs/blob/tests-v5.4.0/tests/frontier/examples/test_block_intermediate_state.py#L14",
            "fixture-format": "blockchain_test"
        }
    },
    "tests/frontier/examples/test_block_intermediate_state.py::test_block_intermediate_state[fork_Homestead-blockchain_test]": {
        "network": "Homestead",
        "genesisBlockHeader": {
            "parentHash": "0x0000000000000000000000000000000000000000000000000000000000000000",
            "uncleHash": "0x1dcc4de8dec75d7aab85b567b6ccd41ad312451b948a7413f0a142fd40d49347",
            "coinbase": "0x0000000000000000000000000000000000000000",
            "stateRoot": "0x54c0b7011d50347550ba416f87ca9eec18f21e0c2ced6b78225266da36997589",
            "transactionsTrie": "0x56e81f171bcc55a6ff8345e692c0f86e5b48e01b996cadc001622fb5e363b421",
            "receiptTrie": "0x56e81f171bcc55a6ff8345e692c0f86e5b48e01b996cadc001622fb5e363b421",
            "bloom": "0x00000000000000000000000000000000000000000000000000000000000000000000000000000000000000000000000000000000000000000000000000000000000000000000000000000000000000000000000000000000000000000000000000000000000000000000000000000000000000000000000000000000000000000000000000000000000000000000000000000000000000000000000000000000000000000000000000000000000000000000000000000000000000000000000000000000000000000000000000000000000000000000000000000000000000000000000000000000000000000000000000000000000000000000000000000000",
            "difficulty": "0x020000",
            "number": "0x00",
            "gasLimit": "0x07270e00",
            "gasUsed": "0x00",
            "timestamp": "0x00",
            "extraData": "0x00",
            "mixHash": "0x0000000000000000000000000000000000000000000000000000000000000000",
            "nonce": "0x0000000000000000",
            "hash": "0xf0cf3288d55ae0cc47ea0a97fb552eba5098f43433b045bd1a103de563604ac7"
        },
        "pre": {
            "0x247c9be4051fbb24f5416c54388984fbaccc6810": {
                "nonce": "0x00",
                "balance": "0x3635c9adc5dea00000",
                "code": "0x",
                "storage": {}
            }
        },
        "postState": {
            "0x247c9be4051fbb24f5416c54388984fbaccc6810": {
                "nonce": "0x02",
                "balance": "0x3635c9adc5de8fd360",
                "code": "0x",
                "storage": {}
            },
            "0x504fdcca69194e6a29ac284abd3b87405cd550d4": {
                "nonce": "0x00",
                "balance": "0x00",
                "code": "0x",
                "storage": {}
            },
            "0x2adc25665018aa1fe0e6bc666dac8fc2697ff9ba": {
                "nonce": "0x00",
                "balance": "0xd02ab486ceec2ca0",
                "code": "0x",
                "storage": {}
            },
            "0x773f867187ece0597d08462348b0d5cccd1a020e": {
                "nonce": "0x00",
                "balance": "0x00",
                "code": "0x",
                "storage": {}
            }
        },
        "lastblockhash": "0x83fb62a1448637cb3fb30949087203041917350480c184ff03d1307e2de11ec3",
        "config": {
            "network": "Homestead",
            "chainid": "0x01"
        },
        "genesisRLP": "0xf901f9f901f4a00000000000000000000000000000000000000000000000000000000000000000a01dcc4de8dec75d7aab85b567b6ccd41ad312451b948a7413f0a142fd40d49347940000000000000000000000000000000000000000a054c0b7011d50347550ba416f87ca9eec18f21e0c2ced6b78225266da36997589a056e81f171bcc55a6ff8345e692c0f86e5b48e01b996cadc001622fb5e363b421a056e81f171bcc55a6ff8345e692c0f86e5b48e01b996cadc001622fb5e363b421b901000000000000000000000000000000000000000000000000000000000000000000000000000000000000000000000000000000000000000000000000000000000000000000000000000000000000000000000000000000000000000000000000000000000000000000000000000000000000000000000000000000000000000000000000000000000000000000000000000000000000000000000000000000000000000000000000000000000000000000000000000000000000000000000000000000000000000000000000000000000000000000000000000000000000000000000000000000000000000000000000000000000000000000000000000000000083020000808407270e00808000a00000000000000000000000000000000000000000000000000000000000000000880000000000000000c0c0",
        "blocks": [
            {
                "blockHeader": {
                    "parentHash": "0xf0cf3288d55ae0cc47ea0a97fb552eba5098f43433b045bd1a103de563604ac7",
                    "uncleHash": "0x1dcc4de8dec75d7aab85b567b6ccd41ad312451b948a7413f0a142fd40d49347",
                    "coinbase": "0x2adc25665018aa1fe0e6bc666dac8fc2697ff9ba",
                    "stateRoot": "0xb987b7487a1160d026f33668a09979d67d01ea87dd976654061a6eeb5b0cfba7",
                    "transactionsTrie": "0x847d0e3ef7c29e46bb7e0b35f2bd8d5067387768432ddea1eb0989f4633f187c",
                    "receiptTrie": "0x4b2d63cfba89a2b86b62c1113f6f0f7abb95bfae3aaeaedc815f53c1f4deb751",
                    "bloom": "0x00000000000000000000000000000000000000000000000000000000000000000000000000000000000000000000000000000000000000000000000000000000000000000000000000000000000000000000000000000000000000000000000000000000000000000000000000000000000000000000000000000000000000000000000000000000000000000000000000000000000000000000000000000000000000000000000000000000000000000000000000000000000000000000000000000000000000000000000000000000000000000000000000000000000000000000000000000000000000000000000000000000000000000000000000000000",
                    "difficulty": "0x020000",
                    "number": "0x01",
                    "gasLimit": "0x07270e00",
                    "gasUsed": "0xcf08",
                    "timestamp": "0x0c",
                    "extraData": "0x",
                    "mixHash": "0x0000000000000000000000000000000000000000000000000000000000000000",
                    "nonce": "0x0000000000000000",
                    "hash": "0xcdc7c4a3fd8c3d02d78290a7523f5cb379cb6ff0965310736a93c63274143bd7"
                },
                "transactions": [
                    {
                        "type": "0x00",
                        "chainId": "0x01",
                        "nonce": "0x00",
                        "gasPrice": "0x0a",
                        "gasLimit": "0x0186a0",
                        "value": "0x00",
                        "data": "0x",
                        "v": "0x1c",
                        "r": "0x37e7f519df845b34d854b43cecdfa3fcc602879ecd8dad63e58f4111a962c692",
                        "s": "0x049175a9a102abb091ba4d129a39d9134766ce76de88bf5d0746f0cf44c776d7",
                        "sender": "0x247c9be4051fbb24f5416c54388984fbaccc6810",
                        "to": ""
                    }
                ],
                "uncleHeaders": [],
                "rlp": "0xf9024af901f6a0f0cf3288d55ae0cc47ea0a97fb552eba5098f43433b045bd1a103de563604ac7a01dcc4de8dec75d7aab85b567b6ccd41ad312451b948a7413f0a142fd40d49347942adc25665018aa1fe0e6bc666dac8fc2697ff9baa0b987b7487a1160d026f33668a09979d67d01ea87dd976654061a6eeb5b0cfba7a0847d0e3ef7c29e46bb7e0b35f2bd8d5067387768432ddea1eb0989f4633f187ca04b2d63cfba89a2b86b62c1113f6f0f7abb95bfae3aaeaedc815f53c1f4deb751b901000000000000000000000000000000000000000000000000000000000000000000000000000000000000000000000000000000000000000000000000000000000000000000000000000000000000000000000000000000000000000000000000000000000000000000000000000000000000000000000000000000000000000000000000000000000000000000000000000000000000000000000000000000000000000000000000000000000000000000000000000000000000000000000000000000000000000000000000000000000000000000000000000000000000000000000000000000000000000000000000000000000000000000000000000000000083020000018407270e0082cf080c80a00000000000000000000000000000000000000000000000000000000000000000880000000000000000f84ef84c800a830186a08080801ca037e7f519df845b34d854b43cecdfa3fcc602879ecd8dad63e58f4111a962c692a0049175a9a102abb091ba4d129a39d9134766ce76de88bf5d0746f0cf44c776d7c0",
                "blocknumber": "1"
            },
            {
                "blockHeader": {
                    "parentHash": "0xcdc7c4a3fd8c3d02d78290a7523f5cb379cb6ff0965310736a93c63274143bd7",
                    "uncleHash": "0x1dcc4de8dec75d7aab85b567b6ccd41ad312451b948a7413f0a142fd40d49347",
                    "coinbase": "0x2adc25665018aa1fe0e6bc666dac8fc2697ff9ba",
                    "stateRoot": "0x10ee8d5c559177d905ef421471998903194ed64221dce5ae1a6b0ba0e3eeec22",
                    "transactionsTrie": "0x56e81f171bcc55a6ff8345e692c0f86e5b48e01b996cadc001622fb5e363b421",
                    "receiptTrie": "0x56e81f171bcc55a6ff8345e692c0f86e5b48e01b996cadc001622fb5e363b421",
                    "bloom": "0x00000000000000000000000000000000000000000000000000000000000000000000000000000000000000000000000000000000000000000000000000000000000000000000000000000000000000000000000000000000000000000000000000000000000000000000000000000000000000000000000000000000000000000000000000000000000000000000000000000000000000000000000000000000000000000000000000000000000000000000000000000000000000000000000000000000000000000000000000000000000000000000000000000000000000000000000000000000000000000000000000000000000000000000000000000000",
                    "difficulty": "0x020000",
                    "number": "0x02",
                    "gasLimit": "0x07270e00",
                    "gasUsed": "0x00",
                    "timestamp": "0x18",
                    "extraData": "0x",
                    "mixHash": "0x0000000000000000000000000000000000000000000000000000000000000000",
                    "nonce": "0x0000000000000000",
                    "hash": "0xc6abde89b6f91218119be6eb8f3930e002f2f8517ddd9c426bdb32d3af46d888"
                },
                "transactions": [],
                "uncleHeaders": [],
                "rlp": "0xf901f9f901f4a0cdc7c4a3fd8c3d02d78290a7523f5cb379cb6ff0965310736a93c63274143bd7a01dcc4de8dec75d7aab85b567b6ccd41ad312451b948a7413f0a142fd40d49347942adc25665018aa1fe0e6bc666dac8fc2697ff9baa010ee8d5c559177d905ef421471998903194ed64221dce5ae1a6b0ba0e3eeec22a056e81f171bcc55a6ff8345e692c0f86e5b48e01b996cadc001622fb5e363b421a056e81f171bcc55a6ff8345e692c0f86e5b48e01b996cadc001622fb5e363b421b901000000000000000000000000000000000000000000000000000000000000000000000000000000000000000000000000000000000000000000000000000000000000000000000000000000000000000000000000000000000000000000000000000000000000000000000000000000000000000000000000000000000000000000000000000000000000000000000000000000000000000000000000000000000000000000000000000000000000000000000000000000000000000000000000000000000000000000000000000000000000000000000000000000000000000000000000000000000000000000000000000000000000000000000000000000000083020000028407270e00801880a00000000000000000000000000000000000000000000000000000000000000000880000000000000000c0c0",
                "blocknumber": "2"
            },
            {
                "blockHeader": {
                    "parentHash": "0xc6abde89b6f91218119be6eb8f3930e002f2f8517ddd9c426bdb32d3af46d888",
                    "uncleHash": "0x1dcc4de8dec75d7aab85b567b6ccd41ad312451b948a7413f0a142fd40d49347",
                    "coinbase": "0x2adc25665018aa1fe0e6bc666dac8fc2697ff9ba",
                    "stateRoot": "0xc916424816014d36357423a79a7aeeafba2f1c61c291d1db6d29416ed5f8a875",
                    "transactionsTrie": "0xb0534f263a2e74df2a6363b3601a503341ab6c4a94588ba6dc040c8ef99fc8c9",
                    "receiptTrie": "0xf1cfa1743f6810fd3ceab6a499142a520a77b98eb54714009497c103c002fc3b",
                    "bloom": "0x00000000000000000000000000000000000000000000000000000000000000000000000000000000000000000000000000000000000000000000000000000000000000000000000000000000000000000000000000000000000000000000000000000000000000000000000000000000000000000000000000000000000000000000000000000000000000000000000000000000000000000000000000000000000000000000000000000000000000000000000000000000000000000000000000000000000000000000000000000000000000000000000000000000000000000000000000000000000000000000000000000000000000000000000000000000",
                    "difficulty": "0x020000",
                    "number": "0x03",
                    "gasLimit": "0x07270e00",
                    "gasUsed": "0xcf08",
                    "timestamp": "0x24",
                    "extraData": "0x",
                    "mixHash": "0x0000000000000000000000000000000000000000000000000000000000000000",
                    "nonce": "0x0000000000000000",
                    "hash": "0x83fb62a1448637cb3fb30949087203041917350480c184ff03d1307e2de11ec3"
                },
                "transactions": [
                    {
                        "type": "0x00",
                        "chainId": "0x01",
                        "nonce": "0x01",
                        "gasPrice": "0x0a",
                        "gasLimit": "0x0186a0",
                        "value": "0x00",
                        "data": "0x",
                        "v": "0x1c",
                        "r": "0x2ea2e1bfa924c85d277eaaccb68b6fe05848ac903ff70c1f68e6b8c5973a36a8",
                        "s": "0x1f4329aa7544d5fdb879dd814cd1f82dd3717b5cfb58733b4eacf691c917382b",
                        "sender": "0x247c9be4051fbb24f5416c54388984fbaccc6810",
                        "to": ""
                    }
                ],
                "uncleHeaders": [],
                "rlp": "0xf9024af901f6a0c6abde89b6f91218119be6eb8f3930e002f2f8517ddd9c426bdb32d3af46d888a01dcc4de8dec75d7aab85b567b6ccd41ad312451b948a7413f0a142fd40d49347942adc25665018aa1fe0e6bc666dac8fc2697ff9baa0c916424816014d36357423a79a7aeeafba2f1c61c291d1db6d29416ed5f8a875a0b0534f263a2e74df2a6363b3601a503341ab6c4a94588ba6dc040c8ef99fc8c9a0f1cfa1743f6810fd3ceab6a499142a520a77b98eb54714009497c103c002fc3bb901000000000000000000000000000000000000000000000000000000000000000000000000000000000000000000000000000000000000000000000000000000000000000000000000000000000000000000000000000000000000000000000000000000000000000000000000000000000000000000000000000000000000000000000000000000000000000000000000000000000000000000000000000000000000000000000000000000000000000000000000000000000000000000000000000000000000000000000000000000000000000000000000000000000000000000000000000000000000000000000000000000000000000000000000000000000083020000038407270e0082cf082480a00000000000000000000000000000000000000000000000000000000000000000880000000000000000f84ef84c010a830186a08080801ca02ea2e1bfa924c85d277eaaccb68b6fe05848ac903ff70c1f68e6b8c5973a36a8a01f4329aa7544d5fdb879dd814cd1f82dd3717b5cfb58733b4eacf691c917382bc0",
                "blocknumber": "3"
            }
        ],
        "sealEngine": "NoProof",
        "_info": {
            "hash": "0xb8aea5a560516e78d5808af9e9890101e20f92432b8f1e990dcf9ab9d17d4221",
            "comment": "`execution-specs` generated test",
            "filling-transition-tool": "2.18.0rc6",
            "description": "Verify intermediate block states.",
            "url": "https://github.com/ethereum/execution-specs/blob/tests-v5.4.0/tests/frontier/examples/test_block_intermediate_state.py#L14",
            "fixture-format": "blockchain_test"
        }
    }
}