{
    "tests/frontier/identity_precompile/test_identity_returndatasize.py::test_identity_precompile_returndata[fork_Paris-blockchain_test_from_state_test-output_size_greater_than_input]": {
        "network": "Paris",
        "genesisBlockHeader": {
            "parentHash": "0x0000000000000000000000000000000000000000000000000000000000000000",
            "uncleHash": "0x1dcc4de8dec75d7aab85b567b6ccd41ad312451b948a7413f0a142fd40d49347",
            "coinbase": "0x0000000000000000000000000000000000000000",
            "stateRoot": "0x3f632307b4ba6159f73bf19a4cbb2298f55a511565287a75ee67a4d51cbc4fee",
            "transactionsTrie": "0x56e81f171bcc55a6ff8345e692c0f86e5b48e01b996cadc001622fb5e363b421",
            "receiptTrie": "0x56e81f171bcc55a6ff8345e692c0f86e5b48e01b996cadc001622fb5e363b421",
            "bloom": "0x00000000000000000000000000000000000000000000000000000000000000000000000000000000000000000000000000000000000000000000000000000000000000000000000000000000000000000000000000000000000000000000000000000000000000000000000000000000000000000000000000000000000000000000000000000000000000000000000000000000000000000000000000000000000000000000000000000000000000000000000000000000000000000000000000000000000000000000000000000000000000000000000000000000000000000000000000000000000000000000000000000000000000000000000000000000",
            "difficulty": "0x00",
            "number": "0x00",
            "gasLimit": "0x07270e00",
            "gasUsed": "0x00",
            "timestamp": "0x00",
            "extraData": "0x00",
            "mixHash": "0x0000000000000000000000000000000000000000000000000000000000000000",
            "nonce": "0x0000000000000000",
            "baseFeePerGas": "0x07",
            "hash": "0xb26c87402af2d29ce284850e798321b67353d3358bc345a0a1f10f81bd08dcd9"
        },
        "pre": {
            "0xfdf36672be841e159c3a72855c3864aeb32ad6c7": {
                "nonce": "0x01",
                "balance": "0x00",
                "code": "0x60006000525a7f112233445566778899aabbccddeeff00112233445566778899aabbccddeeff006000526020601060106000600060045af1503d60005500",
                "storage": {}
            },
            "0x1ad9bc24818784172ff393bb6f89f094d4d2ca29": {
                "nonce": "0x00",
                "balance": "0x3635c9adc5dea00000",
                "code": "0x",
                "storage": {}
            }
        },
        "postState": {
            "0xfdf36672be841e159c3a72855c3864aeb32ad6c7": {
                "nonce": "0x01",
                "balance": "0x00",
                "code": "0x60006000525a7f112233445566778899aabbccddeeff00112233445566778899aabbccddeeff006000526020601060106000600060045af1503d60005500",
                "storage": {
                    "0x00": "0x10"
                }
            },
            "0x1ad9bc24818784172ff393bb6f89f094d4d2ca29": {
                "nonce": "0x01",
                "balance": "0x3635c9adc5de9965ba",
                "code": "0x",
                "storage": {}
            },
            "0x2adc25665018aa1fe0e6bc666dac8fc2697ff9ba": {
                "nonce": "0x00",
                "balance": "0x01fb15",
                "code": "0x",
                "storage": {}
            }
        },
        "lastblockhash": "0x3d1b99c1dcd5c92c59cebd93fbba732022bb19d7b67118cdefe4c654cb9d2e56",
        "config": {
            "network": "Paris",
            "chainid": "0x01"
        },
        "genesisRLP": "0xf901f7f901f2a00000000000000000000000000000000000000000000000000000000000000000a01dcc4de8dec75d7aab85b567b6ccd41ad312451b948a7413f0a142fd40d49347940000000000000000000000000000000000000000a03f632307b4ba6159f73bf19a4cbb2298f55a511565287a75ee67a4d51cbc4feea056e81f171bcc55a6ff8345e692c0f86e5b48e01b996cadc001622fb5e363b421a056e81f171bcc55a6ff8345e692c0f86e5b48e01b996cadc001622fb5e363b421b901000000000000000000000000000000000000000000000000000000000000000000000000000000000000000000000000000000000000000000000000000000000000000000000000000000000000000000000000000000000000000000000000000000000000000000000000000000000000000000000000000000000000000000000000000000000000000000000000000000000000000000000000000000000000000000000000000000000000000000000000000000000000000000000000000000000000000000000000000000000000000000000000000000000000000000000000000000000000000000000000000000000000000000000000000000000080808407270e00808000a0000000000000000000000000000000000000000000000000000000000000000088000000000000000007c0c0",
        "blocks": [
            {
                "blockHeader": {
                    "parentHash": "0xb26c87402af2d29ce284850e798321b67353d3358bc345a0a1f10f81bd08dcd9",
                    "uncleHash": "0x1dcc4de8dec75d7aab85b567b6ccd41ad312451b948a7413f0a142fd40d49347",
                    "coinbase": "0x2adc25665018aa1fe0e6bc666dac8fc2697ff9ba",
                    "stateRoot": "0x426a08c39d0543efab7d6e3d8cf5ffcc600300b48ca9b3a3e853f16541a70d10",
                    "transactionsTrie": "0x9da90842140f94e70a1ff7c5c50dcd1333ed7adeaf2d709a3cf9242a58ac68e8",
                    "receiptTrie": "0xc12c0a6204237acd6f0be57cdc5371e43c86b47b700661769ba71e9720cd08fd",
                    "bloom": "0x00000000000000000000000000000000000000000000000000000000000000000000000000000000000000000000000000000000000000000000000000000000000000000000000000000000000000000000000000000000000000000000000000000000000000000000000000000000000000000000000000000000000000000000000000000000000000000000000000000000000000000000000000000000000000000000000000000000000000000000000000000000000000000000000000000000000000000000000000000000000000000000000000000000000000000000000000000000000000000000000000000000000000000000000000000000",
                    "difficulty": "0x00",
                    "number": "0x01",
                    "gasLimit": "0x07270e00",
                    "gasUsed": "0xa907",
                    "timestamp": "0x03e8",
                    "extraData": "0x00",
                    "mixHash": "0x0000000000000000000000000000000000000000000000000000000000000000",
                    "nonce": "0x0000000000000000",
                    "baseFeePerGas": "0x07",
                    "hash": "0x3d1b99c1dcd5c92c59cebd93fbba732022bb19d7b67118cdefe4c654cb9d2e56"
                },
                "transactions": [
                    {
                        "type": "0x00",
                        "chainId": "0x01",
                        "nonce": "0x00",
                        "gasPrice": "0x0a",
                        "gasLimit": "0x030d40",
                        "to": "0xfdf36672be841e159c3a72855c3864aeb32ad6c7",
                        "value": "0x00",
                        "data": "0x",
                        "v": "0x26",
                        "r": "0xf4e87f1014abff1a187de9762a567de1542b2406916d370f5bd1cdf938ef7373",
                        "s": "0x2ba0e570e26ecc26c8d3d9f43da86e8855ec69c18121697332d2f4163714ab07",
                        "sender": "0x1ad9bc24818784172ff393bb6f89f094d4d2ca29"
                    }
                ],
                "uncleHeaders": [],
                "receipts": [
                    {
                        "transactionHash": "0xc64fdfa98815d23e4578e7254c1a5e1d76aba9fcbfc00840298de95f4836c8e2",
                        "type": "0x00",
                        "cumulativeGasUsed": "0xa907",
                        "bloom": "0x00000000000000000000000000000000000000000000000000000000000000000000000000000000000000000000000000000000000000000000000000000000000000000000000000000000000000000000000000000000000000000000000000000000000000000000000000000000000000000000000000000000000000000000000000000000000000000000000000000000000000000000000000000000000000000000000000000000000000000000000000000000000000000000000000000000000000000000000000000000000000000000000000000000000000000000000000000000000000000000000000000000000000000000000000000000",
                        "logs": [],
                        "status": true,
                        "rlp": "0xf901080182a907b9010000000000000000000000000000000000000000000000000000000000000000000000000000000000000000000000000000000000000000000000000000000000000000000000000000000000000000000000000000000000000000000000000000000000000000000000000000000000000000000000000000000000000000000000000000000000000000000000000000000000000000000000000000000000000000000000000000000000000000000000000000000000000000000000000000000000000000000000000000000000000000000000000000000000000000000000000000000000000000000000000000000000000000000000000000000000c0"
                    }
                ],
                "rlp": "0xf9025ef901f6a0b26c87402af2d29ce284850e798321b67353d3358bc345a0a1f10f81bd08dcd9a01dcc4de8dec75d7aab85b567b6ccd41ad312451b948a7413f0a142fd40d49347942adc25665018aa1fe0e6bc666dac8fc2697ff9baa0426a08c39d0543efab7d6e3d8cf5ffcc600300b48ca9b3a3e853f16541a70d10a09da90842140f94e70a1ff7c5c50dcd1333ed7adeaf2d709a3cf9242a58ac68e8a0c12c0a6204237acd6f0be57cdc5371e43c86b47b700661769ba71e9720cd08fdb901000000000000000000000000000000000000000000000000000000000000000000000000000000000000000000000000000000000000000000000000000000000000000000000000000000000000000000000000000000000000000000000000000000000000000000000000000000000000000000000000000000000000000000000000000000000000000000000000000000000000000000000000000000000000000000000000000000000000000000000000000000000000000000000000000000000000000000000000000000000000000000000000000000000000000000000000000000000000000000000000000000000000000000000000000000000080018407270e0082a9078203e800a0000000000000000000000000000000000000000000000000000000000000000088000000000000000007f862f860800a83030d4094fdf36672be841e159c3a72855c3864aeb32ad6c7808026a0f4e87f1014abff1a187de9762a567de1542b2406916d370f5bd1cdf938ef7373a02ba0e570e26ecc26c8d3d9f43da86e8855ec69c18121697332d2f4163714ab07c0",
                "blocknumber": "1"
            }
        ],
        "sealEngine": "NoProof",
        "_info": {
            "hash": "0xb24ebf2bf092435798076cd6535a5bc24ff4e867c0cfbaf3bbff1992b954e989",
            "fixture-format": "blockchain_test",
            "comment": "`execution-specs` generated test",
            "filling-transition-tool": "2.19.0",
            "description": "Test identity precompile RETURNDATASIZE matches the input size regardless\nof the output buffer size.",
            "url": "https://github.com/ethereum/execution-specs/blob/tests-bal@v5.5.1/tests/frontier/identity_precompile/test_identity_returndatasize.py#L17",
            "opcode_count": {}
        }
    },
    "tests/frontier/identity_precompile/test_identity_returndatasize.py::test_identity_precompile_returndata[fork_Paris-blockchain_test_from_state_test-output_size_less_than_input]": {
        "network": "Paris",
        "genesisBlockHeader": {
            "parentHash": "0x0000000000000000000000000000000000000000000000000000000000000000",
            "uncleHash": "0x1dcc4de8dec75d7aab85b567b6ccd41ad312451b948a7413f0a142fd40d49347",
            "coinbase": "0x0000000000000000000000000000000000000000",
            "stateRoot": "0x9bf3ba70137f1f67161052bc9a1fe4f236af1c780b7065bbf411610b89518f92",
            "transactionsTrie": "0x56e81f171bcc55a6ff8345e692c0f86e5b48e01b996cadc001622fb5e363b421",
            "receiptTrie": "0x56e81f171bcc55a6ff8345e692c0f86e5b48e01b996cadc001622fb5e363b421",
            "bloom": "0x00000000000000000000000000000000000000000000000000000000000000000000000000000000000000000000000000000000000000000000000000000000000000000000000000000000000000000000000000000000000000000000000000000000000000000000000000000000000000000000000000000000000000000000000000000000000000000000000000000000000000000000000000000000000000000000000000000000000000000000000000000000000000000000000000000000000000000000000000000000000000000000000000000000000000000000000000000000000000000000000000000000000000000000000000000000",
            "difficulty": "0x00",
            "number": "0x00",
            "gasLimit": "0x07270e00",
            "gasUsed": "0x00",
            "timestamp": "0x00",
            "extraData": "0x00",
            "mixHash": "0x0000000000000000000000000000000000000000000000000000000000000000",
            "nonce": "0x0000000000000000",
            "baseFeePerGas": "0x07",
            "hash": "0x679ace7ce0e5657b0f787293fb3a7f919d1931fe91d99c111cb97918d6534e48"
        },
        "pre": {
            "0x194a695a5556595941cce5a732eb195e17babea0": {
                "nonce": "0x01",
                "balance": "0x00",
                "code": "0x60006000525a7f112233445566778899aabbccddeeff00112233445566778899aabbccddeeff006000526010601060206000600060045af1503d60005500",
                "storage": {}
            },
            "0x1ad9bc24818784172ff393bb6f89f094d4d2ca29": {
                "nonce": "0x00",
                "balance": "0x3635c9adc5dea00000",
                "code": "0x",
                "storage": {}
            }
        },
        "postState": {
            "0x194a695a5556595941cce5a732eb195e17babea0": {
                "nonce": "0x01",
                "balance": "0x00",
                "code": "0x60006000525a7f112233445566778899aabbccddeeff00112233445566778899aabbccddeeff006000526010601060206000600060045af1503d60005500",
                "storage": {
                    "0x00": "0x20"
                }
            },
            "0x1ad9bc24818784172ff393bb6f89f094d4d2ca29": {
                "nonce": "0x01",
                "balance": "0x3635c9adc5de9965d8",
                "code": "0x",
                "storage": {}
            },
            "0x2adc25665018aa1fe0e6bc666dac8fc2697ff9ba": {
                "nonce": "0x00",
                "balance": "0x01fb0c",
                "code": "0x",
                "storage": {}
            }
        },
        "lastblockhash": "0x8aae34373562bfed63c8f067e9247885f813b0ebd605ed09197b74b8e8f268b0",
        "config": {
            "network": "Paris",
            "chainid": "0x01"
        },
        "genesisRLP": "0xf901f7f901f2a00000000000000000000000000000000000000000000000000000000000000000a01dcc4de8dec75d7aab85b567b6ccd41ad312451b948a7413f0a142fd40d49347940000000000000000000000000000000000000000a09bf3ba70137f1f67161052bc9a1fe4f236af1c780b7065bbf411610b89518f92a056e81f171bcc55a6ff8345e692c0f86e5b48e01b996cadc001622fb5e363b421a056e81f171bcc55a6ff8345e692c0f86e5b48e01b996cadc001622fb5e363b421b901000000000000000000000000000000000000000000000000000000000000000000000000000000000000000000000000000000000000000000000000000000000000000000000000000000000000000000000000000000000000000000000000000000000000000000000000000000000000000000000000000000000000000000000000000000000000000000000000000000000000000000000000000000000000000000000000000000000000000000000000000000000000000000000000000000000000000000000000000000000000000000000000000000000000000000000000000000000000000000000000000000000000000000000000000000000080808407270e00808000a0000000000000000000000000000000000000000000000000000000000000000088000000000000000007c0c0",
        "blocks": [
            {
                "blockHeader": {
                    "parentHash": "0x679ace7ce0e5657b0f787293fb3a7f919d1931fe91d99c111cb97918d6534e48",
                    "uncleHash": "0x1dcc4de8dec75d7aab85b567b6ccd41ad312451b948a7413f0a142fd40d49347",
                    "coinbase": "0x2adc25665018aa1fe0e6bc666dac8fc2697ff9ba",
                    "stateRoot": "0xf7d2eee127dd0cf4718f040e710fe6e96f46a608e51469ca6e9a2e77d66f9e18",
                    "transactionsTrie": "0x9c72841950af784be2aa53df3b7a4b459aad8260a022cac4803279fc924ab30c",
                    "receiptTrie": "0x07cc3f3ae147733541f30ee8e2c73be1b38ad8ec766b9a0d0088d05932a6809b",
                    "bloom": "0x00000000000000000000000000000000000000000000000000000000000000000000000000000000000000000000000000000000000000000000000000000000000000000000000000000000000000000000000000000000000000000000000000000000000000000000000000000000000000000000000000000000000000000000000000000000000000000000000000000000000000000000000000000000000000000000000000000000000000000000000000000000000000000000000000000000000000000000000000000000000000000000000000000000000000000000000000000000000000000000000000000000000000000000000000000000",
                    "difficulty": "0x00",
                    "number": "0x01",
                    "gasLimit": "0x07270e00",
                    "gasUsed": "0xa904",
                    "timestamp": "0x03e8",
                    "extraData": "0x00",
                    "mixHash": "0x0000000000000000000000000000000000000000000000000000000000000000",
                    "nonce": "0x0000000000000000",
                    "baseFeePerGas": "0x07",
                    "hash": "0x8aae34373562bfed63c8f067e9247885f813b0ebd605ed09197b74b8e8f268b0"
                },
                "transactions": [
                    {
                        "type": "0x00",
                        "chainId": "0x01",
                        "nonce": "0x00",
                        "gasPrice": "0x0a",
                        "gasLimit": "0x030d40",
                        "to": "0x194a695a5556595941cce5a732eb195e17babea0",
                        "value": "0x00",
                        "data": "0x",
                        "v": "0x25",
                        "r": "0x5ce3fa1c3816ae35cd6d6b43504e319a14fb35ddfb94495767a85da4a5745b53",
                        "s": "0x3408b151d014b3751b6c3f1eed17ec6d53e7a9cfd2c81b9d9f7fc15ad92a8626",
                        "sender": "0x1ad9bc24818784172ff393bb6f89f094d4d2ca29"
                    }
                ],
                "uncleHeaders": [],
                "receipts": [
                    {
                        "transactionHash": "0x9edb7d94a8a34bbdb965ed82f270e19138df27c3cfbf1850b0b80a34f9b7ab5c",
                        "type": "0x00",
                        "cumulativeGasUsed": "0xa904",
                        "bloom": "0x00000000000000000000000000000000000000000000000000000000000000000000000000000000000000000000000000000000000000000000000000000000000000000000000000000000000000000000000000000000000000000000000000000000000000000000000000000000000000000000000000000000000000000000000000000000000000000000000000000000000000000000000000000000000000000000000000000000000000000000000000000000000000000000000000000000000000000000000000000000000000000000000000000000000000000000000000000000000000000000000000000000000000000000000000000000",
                        "logs": [],
                        "status": true,
                        "rlp": "0xf901080182a904b9010000000000000000000000000000000000000000000000000000000000000000000000000000000000000000000000000000000000000000000000000000000000000000000000000000000000000000000000000000000000000000000000000000000000000000000000000000000000000000000000000000000000000000000000000000000000000000000000000000000000000000000000000000000000000000000000000000000000000000000000000000000000000000000000000000000000000000000000000000000000000000000000000000000000000000000000000000000000000000000000000000000000000000000000000000000000c0"
                    }
                ],
                "rlp": "0xf9025ef901f6a0679ace7ce0e5657b0f787293fb3a7f919d1931fe91d99c111cb97918d6534e48a01dcc4de8dec75d7aab85b567b6ccd41ad312451b948a7413f0a142fd40d49347942adc25665018aa1fe0e6bc666dac8fc2697ff9baa0f7d2eee127dd0cf4718f040e710fe6e96f46a608e51469ca6e9a2e77d66f9e18a09c72841950af784be2aa53df3b7a4b459aad8260a022cac4803279fc924ab30ca007cc3f3ae147733541f30ee8e2c73be1b38ad8ec766b9a0d0088d05932a6809bb901000000000000000000000000000000000000000000000000000000000000000000000000000000000000000000000000000000000000000000000000000000000000000000000000000000000000000000000000000000000000000000000000000000000000000000000000000000000000000000000000000000000000000000000000000000000000000000000000000000000000000000000000000000000000000000000000000000000000000000000000000000000000000000000000000000000000000000000000000000000000000000000000000000000000000000000000000000000000000000000000000000000000000000000000000000000080018407270e0082a9048203e800a0000000000000000000000000000000000000000000000000000000000000000088000000000000000007f862f860800a83030d4094194a695a5556595941cce5a732eb195e17babea0808025a05ce3fa1c3816ae35cd6d6b43504e319a14fb35ddfb94495767a85da4a5745b53a03408b151d014b3751b6c3f1eed17ec6d53e7a9cfd2c81b9d9f7fc15ad92a8626c0",
                "blocknumber": "1"
            }
        ],
        "sealEngine": "NoProof",
        "_info": {
            "hash": "0xce978019e8df99a50d6e50e3341c6c172fc51d9ac460f94d960db14ddc0991e5",
            "fixture-format": "blockchain_test",
            "comment": "`execution-specs` generated test",
            "filling-transition-tool": "2.19.0",
            "description": "Test identity precompile RETURNDATASIZE matches the input size regardless\nof the output buffer size.",
            "url": "https://github.com/ethereum/execution-specs/blob/tests-bal@v5.5.1/tests/frontier/identity_precompile/test_identity_returndatasize.py#L17",
            "opcode_count": {}
        }
    }
}