{
    "tests/frontier/identity_precompile/test_identity.py::test_call_identity_precompile_large_params[fork_Paris-blockchain_test_from_state_test-tx_gas_limit_10000000-identity_5-call_type_CALLCODE]": {
        "network": "Paris",
        "genesisBlockHeader": {
            "parentHash": "0x0000000000000000000000000000000000000000000000000000000000000000",
            "uncleHash": "0x1dcc4de8dec75d7aab85b567b6ccd41ad312451b948a7413f0a142fd40d49347",
            "coinbase": "0x0000000000000000000000000000000000000000",
            "stateRoot": "0x87544e2d5b6dfa111e5fa90061843c3a6227a2d909242585fd91ed4fa75f32c8",
            "transactionsTrie": "0x56e81f171bcc55a6ff8345e692c0f86e5b48e01b996cadc001622fb5e363b421",
            "receiptTrie": "0x56e81f171bcc55a6ff8345e692c0f86e5b48e01b996cadc001622fb5e363b421",
            "bloom": "0x00000000000000000000000000000000000000000000000000000000000000000000000000000000000000000000000000000000000000000000000000000000000000000000000000000000000000000000000000000000000000000000000000000000000000000000000000000000000000000000000000000000000000000000000000000000000000000000000000000000000000000000000000000000000000000000000000000000000000000000000000000000000000000000000000000000000000000000000000000000000000000000000000000000000000000000000000000000000000000000000000000000000000000000000000000000",
            "difficulty": "0x00",
            "number": "0x00",
            "gasLimit": "0x07270e00",
            "gasUsed": "0x00",
            "timestamp": "0x00",
            "extraData": "0x00",
            "mixHash": "0x0000000000000000000000000000000000000000000000000000000000000000",
            "nonce": "0x0000000000000000",
            "baseFeePerGas": "0x07",
            "hash": "0x7f1ba33110f33e0cd910f16a51a78f981b1b912ab88d0495a3a57f74ee4aad7b"
        },
        "pre": {
            "0xe8ed8b66f5635ba39d1c821322c7e9676d518bdc": {
                "nonce": "0x01",
                "balance": "0x00",
                "code": "0x7fffffffffffffffffffffffffffffffffffffffffffffffffffffffffffffffff60005260206000620f4240600060006004610258f260005560005160015500",
                "storage": {
                    "0x00": "0xba5e"
                }
            },
            "0x1ad9bc24818784172ff393bb6f89f094d4d2ca29": {
                "nonce": "0x00",
                "balance": "0x3635c9adc5dea00000",
                "code": "0x",
                "storage": {}
            }
        },
        "postState": {
            "0xe8ed8b66f5635ba39d1c821322c7e9676d518bdc": {
                "nonce": "0x01",
                "balance": "0x00",
                "code": "0x7fffffffffffffffffffffffffffffffffffffffffffffffffffffffffffffffff60005260206000620f4240600060006004610258f260005560005160015500",
                "storage": {
                    "0x01": "0xffffffffffffffffffffffffffffffffffffffffffffffffffffffffffffffff"
                }
            },
            "0x1ad9bc24818784172ff393bb6f89f094d4d2ca29": {
                "nonce": "0x01",
                "balance": "0x3635c9adc5dd67efb8",
                "code": "0x",
                "storage": {}
            },
            "0x2adc25665018aa1fe0e6bc666dac8fc2697ff9ba": {
                "nonce": "0x00",
                "balance": "0x5d9e7c",
                "code": "0x",
                "storage": {}
            }
        },
        "lastblockhash": "0x4079824d8b79cebe0efad931f77cde2cbd6a2b5907e276c05c6dafbf58d59abe",
        "config": {
            "network": "Paris",
            "chainid": "0x01"
        },
        "genesisRLP": "0xf901f7f901f2a00000000000000000000000000000000000000000000000000000000000000000a01dcc4de8dec75d7aab85b567b6ccd41ad312451b948a7413f0a142fd40d49347940000000000000000000000000000000000000000a087544e2d5b6dfa111e5fa90061843c3a6227a2d909242585fd91ed4fa75f32c8a056e81f171bcc55a6ff8345e692c0f86e5b48e01b996cadc001622fb5e363b421a056e81f171bcc55a6ff8345e692c0f86e5b48e01b996cadc001622fb5e363b421b901000000000000000000000000000000000000000000000000000000000000000000000000000000000000000000000000000000000000000000000000000000000000000000000000000000000000000000000000000000000000000000000000000000000000000000000000000000000000000000000000000000000000000000000000000000000000000000000000000000000000000000000000000000000000000000000000000000000000000000000000000000000000000000000000000000000000000000000000000000000000000000000000000000000000000000000000000000000000000000000000000000000000000000000000000000000080808407270e00808000a0000000000000000000000000000000000000000000000000000000000000000088000000000000000007c0c0",
        "blocks": [
            {
                "blockHeader": {
                    "parentHash": "0x7f1ba33110f33e0cd910f16a51a78f981b1b912ab88d0495a3a57f74ee4aad7b",
                    "uncleHash": "0x1dcc4de8dec75d7aab85b567b6ccd41ad312451b948a7413f0a142fd40d49347",
                    "coinbase": "0x2adc25665018aa1fe0e6bc666dac8fc2697ff9ba",
                    "stateRoot": "0xcb5011362cb15aed39fe7c2c0f571b0517e2f6a4a6d2c627855703db8ea6ba92",
                    "transactionsTrie": "0xfab25bf1eb2d2bee1a31de1c1da871a89cec7e2b04380d8d4b92aee4bd00cfba",
                    "receiptTrie": "0x731d9989e3c171437718d7559d91316abc3e7b7f0236e6103e8bcab083e9bc8e",
                    "bloom": "0x00000000000000000000000000000000000000000000000000000000000000000000000000000000000000000000000000000000000000000000000000000000000000000000000000000000000000000000000000000000000000000000000000000000000000000000000000000000000000000000000000000000000000000000000000000000000000000000000000000000000000000000000000000000000000000000000000000000000000000000000000000000000000000000000000000000000000000000000000000000000000000000000000000000000000000000000000000000000000000000000000000000000000000000000000000000",
                    "difficulty": "0x00",
                    "number": "0x01",
                    "gasLimit": "0x07270e00",
                    "gasUsed": "0x1f34d4",
                    "timestamp": "0x03e8",
                    "extraData": "0x00",
                    "mixHash": "0x0000000000000000000000000000000000000000000000000000000000000000",
                    "nonce": "0x0000000000000000",
                    "baseFeePerGas": "0x07",
                    "hash": "0x4079824d8b79cebe0efad931f77cde2cbd6a2b5907e276c05c6dafbf58d59abe"
                },
                "transactions": [
                    {
                        "type": "0x00",
                        "chainId": "0x01",
                        "nonce": "0x00",
                        "gasPrice": "0x0a",
                        "gasLimit": "0x989680",
                        "to": "0xe8ed8b66f5635ba39d1c821322c7e9676d518bdc",
                        "value": "0x00",
                        "data": "0x",
                        "v": "0x25",
                        "r": "0xe50dd76f780a6148af369c2ec6b1c856460c9c9da730c88c10f77c01308e8706",
                        "s": "0x5bdacefa9568f9d6984e7a66c7de1c387d24a3e3270ba380d1336354986961c3",
                        "sender": "0x1ad9bc24818784172ff393bb6f89f094d4d2ca29"
                    }
                ],
                "uncleHeaders": [],
                "receipts": [
                    {
                        "transactionHash": "0x8e6549e17377626faa0915ce07df65bc400e34e76a86d4860538bcbbae901b52",
                        "type": "0x00",
                        "cumulativeGasUsed": "0x1f34d4",
                        "bloom": "0x00000000000000000000000000000000000000000000000000000000000000000000000000000000000000000000000000000000000000000000000000000000000000000000000000000000000000000000000000000000000000000000000000000000000000000000000000000000000000000000000000000000000000000000000000000000000000000000000000000000000000000000000000000000000000000000000000000000000000000000000000000000000000000000000000000000000000000000000000000000000000000000000000000000000000000000000000000000000000000000000000000000000000000000000000000000",
                        "logs": [],
                        "status": true,
                        "rlp": "0xf9010901831f34d4b9010000000000000000000000000000000000000000000000000000000000000000000000000000000000000000000000000000000000000000000000000000000000000000000000000000000000000000000000000000000000000000000000000000000000000000000000000000000000000000000000000000000000000000000000000000000000000000000000000000000000000000000000000000000000000000000000000000000000000000000000000000000000000000000000000000000000000000000000000000000000000000000000000000000000000000000000000000000000000000000000000000000000000000000000000000000000c0"
                    }
                ],
                "rlp": "0xf9025ff901f7a07f1ba33110f33e0cd910f16a51a78f981b1b912ab88d0495a3a57f74ee4aad7ba01dcc4de8dec75d7aab85b567b6ccd41ad312451b948a7413f0a142fd40d49347942adc25665018aa1fe0e6bc666dac8fc2697ff9baa0cb5011362cb15aed39fe7c2c0f571b0517e2f6a4a6d2c627855703db8ea6ba92a0fab25bf1eb2d2bee1a31de1c1da871a89cec7e2b04380d8d4b92aee4bd00cfbaa0731d9989e3c171437718d7559d91316abc3e7b7f0236e6103e8bcab083e9bc8eb901000000000000000000000000000000000000000000000000000000000000000000000000000000000000000000000000000000000000000000000000000000000000000000000000000000000000000000000000000000000000000000000000000000000000000000000000000000000000000000000000000000000000000000000000000000000000000000000000000000000000000000000000000000000000000000000000000000000000000000000000000000000000000000000000000000000000000000000000000000000000000000000000000000000000000000000000000000000000000000000000000000000000000000000000000000000080018407270e00831f34d48203e800a0000000000000000000000000000000000000000000000000000000000000000088000000000000000007f862f860800a8398968094e8ed8b66f5635ba39d1c821322c7e9676d518bdc808025a0e50dd76f780a6148af369c2ec6b1c856460c9c9da730c88c10f77c01308e8706a05bdacefa9568f9d6984e7a66c7de1c387d24a3e3270ba380d1336354986961c3c0",
                "blocknumber": "1"
            }
        ],
        "sealEngine": "NoProof",
        "_info": {
            "hash": "0x05b869b315c4ff56010fbe46a749454358f7741e9098e2f3b8225fafe38a379c",
            "fixture-format": "blockchain_test",
            "comment": "`execution-specs` generated test",
            "filling-transition-tool": "2.19.0",
            "description": "Test identity precompile when out of gas occurs.",
            "url": "https://github.com/ethereum/execution-specs/blob/tests-bal@v5.5.1/tests/frontier/identity_precompile/test_identity.py#L159",
            "opcode_count": {}
        }
    },
    "tests/frontier/identity_precompile/test_identity.py::test_call_identity_precompile_large_params[fork_Paris-blockchain_test_from_state_test-tx_gas_limit_10000000-identity_5-call_type_CALL]": {
        "network": "Paris",
        "genesisBlockHeader": {
            "parentHash": "0x0000000000000000000000000000000000000000000000000000000000000000",
            "uncleHash": "0x1dcc4de8dec75d7aab85b567b6ccd41ad312451b948a7413f0a142fd40d49347",
            "coinbase": "0x0000000000000000000000000000000000000000",
            "stateRoot": "0xaba6e9ba6b8e9b0fb2076db0c9dafbfc6158aa27473aaa31d14f69b73f3e2933",
            "transactionsTrie": "0x56e81f171bcc55a6ff8345e692c0f86e5b48e01b996cadc001622fb5e363b421",
            "receiptTrie": "0x56e81f171bcc55a6ff8345e692c0f86e5b48e01b996cadc001622fb5e363b421",
            "bloom": "0x00000000000000000000000000000000000000000000000000000000000000000000000000000000000000000000000000000000000000000000000000000000000000000000000000000000000000000000000000000000000000000000000000000000000000000000000000000000000000000000000000000000000000000000000000000000000000000000000000000000000000000000000000000000000000000000000000000000000000000000000000000000000000000000000000000000000000000000000000000000000000000000000000000000000000000000000000000000000000000000000000000000000000000000000000000000",
            "difficulty": "0x00",
            "number": "0x00",
            "gasLimit": "0x07270e00",
            "gasUsed": "0x00",
            "timestamp": "0x00",
            "extraData": "0x00",
            "mixHash": "0x0000000000000000000000000000000000000000000000000000000000000000",
            "nonce": "0x0000000000000000",
            "baseFeePerGas": "0x07",
            "hash": "0xf708c69021fd183b72f04b94606617cdbd9f582e561cdaff2dd35d4b2648a36e"
        },
        "pre": {
            "0x2ced21785a8442403e097aab1a48022e5290a7b2": {
                "nonce": "0x01",
                "balance": "0x00",
                "code": "0x7fffffffffffffffffffffffffffffffffffffffffffffffffffffffffffffffff60005260206000620f4240600060006004610258f160005560005160015500",
                "storage": {
                    "0x00": "0xba5e"
                }
            },
            "0x1ad9bc24818784172ff393bb6f89f094d4d2ca29": {
                "nonce": "0x00",
                "balance": "0x3635c9adc5dea00000",
                "code": "0x",
                "storage": {}
            }
        },
        "postState": {
            "0x2ced21785a8442403e097aab1a48022e5290a7b2": {
                "nonce": "0x01",
                "balance": "0x00",
                "code": "0x7fffffffffffffffffffffffffffffffffffffffffffffffffffffffffffffffff60005260206000620f4240600060006004610258f160005560005160015500",
                "storage": {
                    "0x01": "0xffffffffffffffffffffffffffffffffffffffffffffffffffffffffffffffff"
                }
            },
            "0x1ad9bc24818784172ff393bb6f89f094d4d2ca29": {
                "nonce": "0x01",
                "balance": "0x3635c9adc5dd67efb8",
                "code": "0x",
                "storage": {}
            },
            "0x2adc25665018aa1fe0e6bc666dac8fc2697ff9ba": {
                "nonce": "0x00",
                "balance": "0x5d9e7c",
                "code": "0x",
                "storage": {}
            }
        },
        "lastblockhash": "0xf0e9d1dfc7bd0536fa0277db13607d11f51a244c363d6256374aa678932aff75",
        "config": {
            "network": "Paris",
            "chainid": "0x01"
        },
        "genesisRLP": "0xf901f7f901f2a00000000000000000000000000000000000000000000000000000000000000000a01dcc4de8dec75d7aab85b567b6ccd41ad312451b948a7413f0a142fd40d49347940000000000000000000000000000000000000000a0aba6e9ba6b8e9b0fb2076db0c9dafbfc6158aa27473aaa31d14f69b73f3e2933a056e81f171bcc55a6ff8345e692c0f86e5b48e01b996cadc001622fb5e363b421a056e81f171bcc55a6ff8345e692c0f86e5b48e01b996cadc001622fb5e363b421b901000000000000000000000000000000000000000000000000000000000000000000000000000000000000000000000000000000000000000000000000000000000000000000000000000000000000000000000000000000000000000000000000000000000000000000000000000000000000000000000000000000000000000000000000000000000000000000000000000000000000000000000000000000000000000000000000000000000000000000000000000000000000000000000000000000000000000000000000000000000000000000000000000000000000000000000000000000000000000000000000000000000000000000000000000000000080808407270e00808000a0000000000000000000000000000000000000000000000000000000000000000088000000000000000007c0c0",
        "blocks": [
            {
                "blockHeader": {
                    "parentHash": "0xf708c69021fd183b72f04b94606617cdbd9f582e561cdaff2dd35d4b2648a36e",
                    "uncleHash": "0x1dcc4de8dec75d7aab85b567b6ccd41ad312451b948a7413f0a142fd40d49347",
                    "coinbase": "0x2adc25665018aa1fe0e6bc666dac8fc2697ff9ba",
                    "stateRoot": "0x098904167eaeeffcefc0c2da1972541b1e7840344b2f78fe1577ef8acdb7896c",
                    "transactionsTrie": "0x1ccaef2efcac13f5abf682defb2fbe41775a7d8587d86b236b58874732982025",
                    "receiptTrie": "0x731d9989e3c171437718d7559d91316abc3e7b7f0236e6103e8bcab083e9bc8e",
                    "bloom": "0x00000000000000000000000000000000000000000000000000000000000000000000000000000000000000000000000000000000000000000000000000000000000000000000000000000000000000000000000000000000000000000000000000000000000000000000000000000000000000000000000000000000000000000000000000000000000000000000000000000000000000000000000000000000000000000000000000000000000000000000000000000000000000000000000000000000000000000000000000000000000000000000000000000000000000000000000000000000000000000000000000000000000000000000000000000000",
                    "difficulty": "0x00",
                    "number": "0x01",
                    "gasLimit": "0x07270e00",
                    "gasUsed": "0x1f34d4",
                    "timestamp": "0x03e8",
                    "extraData": "0x00",
                    "mixHash": "0x0000000000000000000000000000000000000000000000000000000000000000",
                    "nonce": "0x0000000000000000",
                    "baseFeePerGas": "0x07",
                    "hash": "0xf0e9d1dfc7bd0536fa0277db13607d11f51a244c363d6256374aa678932aff75"
                },
                "transactions": [
                    {
                        "type": "0x00",
                        "chainId": "0x01",
                        "nonce": "0x00",
                        "gasPrice": "0x0a",
                        "gasLimit": "0x989680",
                        "to": "0x2ced21785a8442403e097aab1a48022e5290a7b2",
                        "value": "0x00",
                        "data": "0x",
                        "v": "0x26",
                        "r": "0x9124bd90d690ca715f6d61378a134bf78588ce7aa221d680df1700564b880dc3",
                        "s": "0x64c72eaee341bf3025700e09ef8208fc09241468ec42715c50566a9dd845f61a",
                        "sender": "0x1ad9bc24818784172ff393bb6f89f094d4d2ca29"
                    }
                ],
                "uncleHeaders": [],
                "receipts": [
                    {
                        "transactionHash": "0x3ff6dbb43ea5a00f9a2ad138b644387da218cc63e5ece3de58a00c98604a5434",
                        "type": "0x00",
                        "cumulativeGasUsed": "0x1f34d4",
                        "bloom": "0x00000000000000000000000000000000000000000000000000000000000000000000000000000000000000000000000000000000000000000000000000000000000000000000000000000000000000000000000000000000000000000000000000000000000000000000000000000000000000000000000000000000000000000000000000000000000000000000000000000000000000000000000000000000000000000000000000000000000000000000000000000000000000000000000000000000000000000000000000000000000000000000000000000000000000000000000000000000000000000000000000000000000000000000000000000000",
                        "logs": [],
                        "status": true,
                        "rlp": "0xf9010901831f34d4b9010000000000000000000000000000000000000000000000000000000000000000000000000000000000000000000000000000000000000000000000000000000000000000000000000000000000000000000000000000000000000000000000000000000000000000000000000000000000000000000000000000000000000000000000000000000000000000000000000000000000000000000000000000000000000000000000000000000000000000000000000000000000000000000000000000000000000000000000000000000000000000000000000000000000000000000000000000000000000000000000000000000000000000000000000000000000c0"
                    }
                ],
                "rlp": "0xf9025ff901f7a0f708c69021fd183b72f04b94606617cdbd9f582e561cdaff2dd35d4b2648a36ea01dcc4de8dec75d7aab85b567b6ccd41ad312451b948a7413f0a142fd40d49347942adc25665018aa1fe0e6bc666dac8fc2697ff9baa0098904167eaeeffcefc0c2da1972541b1e7840344b2f78fe1577ef8acdb7896ca01ccaef2efcac13f5abf682defb2fbe41775a7d8587d86b236b58874732982025a0731d9989e3c171437718d7559d91316abc3e7b7f0236e6103e8bcab083e9bc8eb901000000000000000000000000000000000000000000000000000000000000000000000000000000000000000000000000000000000000000000000000000000000000000000000000000000000000000000000000000000000000000000000000000000000000000000000000000000000000000000000000000000000000000000000000000000000000000000000000000000000000000000000000000000000000000000000000000000000000000000000000000000000000000000000000000000000000000000000000000000000000000000000000000000000000000000000000000000000000000000000000000000000000000000000000000000000080018407270e00831f34d48203e800a0000000000000000000000000000000000000000000000000000000000000000088000000000000000007f862f860800a83989680942ced21785a8442403e097aab1a48022e5290a7b2808026a09124bd90d690ca715f6d61378a134bf78588ce7aa221d680df1700564b880dc3a064c72eaee341bf3025700e09ef8208fc09241468ec42715c50566a9dd845f61ac0",
                "blocknumber": "1"
            }
        ],
        "sealEngine": "NoProof",
        "_info": {
            "hash": "0x1cbda92c205eebdab44f3586055c2696a7fe8f7473ab2b90060c02be8b10fc45",
            "fixture-format": "blockchain_test",
            "comment": "`execution-specs` generated test",
            "filling-transition-tool": "2.19.0",
            "description": "Test identity precompile when out of gas occurs.",
            "url": "https://github.com/ethereum/execution-specs/blob/tests-bal@v5.5.1/tests/frontier/identity_precompile/test_identity.py#L159",
            "opcode_count": {}
        }
    },
    "tests/frontier/identity_precompile/test_identity.py::test_call_identity_precompile_large_params[fork_Paris-blockchain_test_from_state_test-tx_gas_limit_10000000-identity_6-call_type_CALLCODE]": {
        "network": "Paris",
        "genesisBlockHeader": {
            "parentHash": "0x0000000000000000000000000000000000000000000000000000000000000000",
            "uncleHash": "0x1dcc4de8dec75d7aab85b567b6ccd41ad312451b948a7413f0a142fd40d49347",
            "coinbase": "0x0000000000000000000000000000000000000000",
            "stateRoot": "0xc4e0eee7582c599b8e3bee3b8930d0355859614d93b24e656e96f0d3449cbf8e",
            "transactionsTrie": "0x56e81f171bcc55a6ff8345e692c0f86e5b48e01b996cadc001622fb5e363b421",
            "receiptTrie": "0x56e81f171bcc55a6ff8345e692c0f86e5b48e01b996cadc001622fb5e363b421",
            "bloom": "0x00000000000000000000000000000000000000000000000000000000000000000000000000000000000000000000000000000000000000000000000000000000000000000000000000000000000000000000000000000000000000000000000000000000000000000000000000000000000000000000000000000000000000000000000000000000000000000000000000000000000000000000000000000000000000000000000000000000000000000000000000000000000000000000000000000000000000000000000000000000000000000000000000000000000000000000000000000000000000000000000000000000000000000000000000000000",
            "difficulty": "0x00",
            "number": "0x00",
            "gasLimit": "0x07270e00",
            "gasUsed": "0x00",
            "timestamp": "0x00",
            "extraData": "0x00",
            "mixHash": "0x0000000000000000000000000000000000000000000000000000000000000000",
            "nonce": "0x0000000000000000",
            "baseFeePerGas": "0x07",
            "hash": "0x5b9203f26060c33d953cbe76351e9b0fdf200cb209c4d12761fd07aba59dccf7"
        },
        "pre": {
            "0x79cfdb5c2c48a5cae77fffcc42806c2d825c4fe1": {
                "nonce": "0x01",
                "balance": "0x00",
                "code": "0x7fffffffffffffffffffffffffffffffffffffffffffffffffffffffffffffffff600052611234602052604060006020600060006004610258f260005560205160015500",
                "storage": {}
            },
            "0x1ad9bc24818784172ff393bb6f89f094d4d2ca29": {
                "nonce": "0x00",
                "balance": "0x3635c9adc5dea00000",
                "code": "0x",
                "storage": {}
            }
        },
        "postState": {
            "0x79cfdb5c2c48a5cae77fffcc42806c2d825c4fe1": {
                "nonce": "0x01",
                "balance": "0x00",
                "code": "0x7fffffffffffffffffffffffffffffffffffffffffffffffffffffffffffffffff600052611234602052604060006020600060006004610258f260005560205160015500",
                "storage": {
                    "0x00": "0x01",
                    "0x01": "0x1234"
                }
            },
            "0x1ad9bc24818784172ff393bb6f89f094d4d2ca29": {
                "nonce": "0x01",
                "balance": "0x3635c9adc5de96064a",
                "code": "0x",
                "storage": {}
            },
            "0x2adc25665018aa1fe0e6bc666dac8fc2697ff9ba": {
                "nonce": "0x00",
                "balance": "0x02fe1d",
                "code": "0x",
                "storage": {}
            }
        },
        "lastblockhash": "0x81a9e69f4dd27ca3a584740e903ff4ba25508913705f550bb72151fe578d49b1",
        "config": {
            "network": "Paris",
            "chainid": "0x01"
        },
        "genesisRLP": "0xf901f7f901f2a00000000000000000000000000000000000000000000000000000000000000000a01dcc4de8dec75d7aab85b567b6ccd41ad312451b948a7413f0a142fd40d49347940000000000000000000000000000000000000000a0c4e0eee7582c599b8e3bee3b8930d0355859614d93b24e656e96f0d3449cbf8ea056e81f171bcc55a6ff8345e692c0f86e5b48e01b996cadc001622fb5e363b421a056e81f171bcc55a6ff8345e692c0f86e5b48e01b996cadc001622fb5e363b421b901000000000000000000000000000000000000000000000000000000000000000000000000000000000000000000000000000000000000000000000000000000000000000000000000000000000000000000000000000000000000000000000000000000000000000000000000000000000000000000000000000000000000000000000000000000000000000000000000000000000000000000000000000000000000000000000000000000000000000000000000000000000000000000000000000000000000000000000000000000000000000000000000000000000000000000000000000000000000000000000000000000000000000000000000000000000080808407270e00808000a0000000000000000000000000000000000000000000000000000000000000000088000000000000000007c0c0",
        "blocks": [
            {
                "blockHeader": {
                    "parentHash": "0x5b9203f26060c33d953cbe76351e9b0fdf200cb209c4d12761fd07aba59dccf7",
                    "uncleHash": "0x1dcc4de8dec75d7aab85b567b6ccd41ad312451b948a7413f0a142fd40d49347",
                    "coinbase": "0x2adc25665018aa1fe0e6bc666dac8fc2697ff9ba",
                    "stateRoot": "0xd696a0dd04b0e71e555f9daded51f43c48f22ae022c7679bfc7e965b5d6eeae4",
                    "transactionsTrie": "0x7f398f2945ac41e106039ceb55a854eb3bc42fdc67138b5b8bc006e3f45fcbef",
                    "receiptTrie": "0x777b73f01d55070d93a8e4e24e2e15cfbada638ed27dbdddab95fcaa8db6c423",
                    "bloom": "0x00000000000000000000000000000000000000000000000000000000000000000000000000000000000000000000000000000000000000000000000000000000000000000000000000000000000000000000000000000000000000000000000000000000000000000000000000000000000000000000000000000000000000000000000000000000000000000000000000000000000000000000000000000000000000000000000000000000000000000000000000000000000000000000000000000000000000000000000000000000000000000000000000000000000000000000000000000000000000000000000000000000000000000000000000000000",
                    "difficulty": "0x00",
                    "number": "0x01",
                    "gasLimit": "0x07270e00",
                    "gasUsed": "0xff5f",
                    "timestamp": "0x03e8",
                    "extraData": "0x00",
                    "mixHash": "0x0000000000000000000000000000000000000000000000000000000000000000",
                    "nonce": "0x0000000000000000",
                    "baseFeePerGas": "0x07",
                    "hash": "0x81a9e69f4dd27ca3a584740e903ff4ba25508913705f550bb72151fe578d49b1"
                },
                "transactions": [
                    {
                        "type": "0x00",
                        "chainId": "0x01",
                        "nonce": "0x00",
                        "gasPrice": "0x0a",
                        "gasLimit": "0x989680",
                        "to": "0x79cfdb5c2c48a5cae77fffcc42806c2d825c4fe1",
                        "value": "0x00",
                        "data": "0x",
                        "v": "0x26",
                        "r": "0xd630312fcc68d3ea0b701f25ec47d7cde2c88ed5fd99ecdc45882e05316b2f27",
                        "s": "0x2ed012a2d1826c52f4f885c322664206b995cef3ca24794e9792bc58154b23ec",
                        "sender": "0x1ad9bc24818784172ff393bb6f89f094d4d2ca29"
                    }
                ],
                "uncleHeaders": [],
                "receipts": [
                    {
                        "transactionHash": "0x4f6dd131d13b45a5defdc17027be4f2048c9e377b4a2150ab791c908d73242ed",
                        "type": "0x00",
                        "cumulativeGasUsed": "0xff5f",
                        "bloom": "0x00000000000000000000000000000000000000000000000000000000000000000000000000000000000000000000000000000000000000000000000000000000000000000000000000000000000000000000000000000000000000000000000000000000000000000000000000000000000000000000000000000000000000000000000000000000000000000000000000000000000000000000000000000000000000000000000000000000000000000000000000000000000000000000000000000000000000000000000000000000000000000000000000000000000000000000000000000000000000000000000000000000000000000000000000000000",
                        "logs": [],
                        "status": true,
                        "rlp": "0xf901080182ff5fb9010000000000000000000000000000000000000000000000000000000000000000000000000000000000000000000000000000000000000000000000000000000000000000000000000000000000000000000000000000000000000000000000000000000000000000000000000000000000000000000000000000000000000000000000000000000000000000000000000000000000000000000000000000000000000000000000000000000000000000000000000000000000000000000000000000000000000000000000000000000000000000000000000000000000000000000000000000000000000000000000000000000000000000000000000000000000c0"
                    }
                ],
                "rlp": "0xf9025ef901f6a05b9203f26060c33d953cbe76351e9b0fdf200cb209c4d12761fd07aba59dccf7a01dcc4de8dec75d7aab85b567b6ccd41ad312451b948a7413f0a142fd40d49347942adc25665018aa1fe0e6bc666dac8fc2697ff9baa0d696a0dd04b0e71e555f9daded51f43c48f22ae022c7679bfc7e965b5d6eeae4a07f398f2945ac41e106039ceb55a854eb3bc42fdc67138b5b8bc006e3f45fcbefa0777b73f01d55070d93a8e4e24e2e15cfbada638ed27dbdddab95fcaa8db6c423b901000000000000000000000000000000000000000000000000000000000000000000000000000000000000000000000000000000000000000000000000000000000000000000000000000000000000000000000000000000000000000000000000000000000000000000000000000000000000000000000000000000000000000000000000000000000000000000000000000000000000000000000000000000000000000000000000000000000000000000000000000000000000000000000000000000000000000000000000000000000000000000000000000000000000000000000000000000000000000000000000000000000000000000000000000000000080018407270e0082ff5f8203e800a0000000000000000000000000000000000000000000000000000000000000000088000000000000000007f862f860800a839896809479cfdb5c2c48a5cae77fffcc42806c2d825c4fe1808026a0d630312fcc68d3ea0b701f25ec47d7cde2c88ed5fd99ecdc45882e05316b2f27a02ed012a2d1826c52f4f885c322664206b995cef3ca24794e9792bc58154b23ecc0",
                "blocknumber": "1"
            }
        ],
        "sealEngine": "NoProof",
        "_info": {
            "hash": "0xf27946e8367e5df00d7c7fb8b8ec4632183aacbaf5b0230ce02e4c5d8304a4ea",
            "fixture-format": "blockchain_test",
            "comment": "`execution-specs` generated test",
            "filling-transition-tool": "2.19.0",
            "description": "Test identity precompile when out of gas occurs.",
            "url": "https://github.com/ethereum/execution-specs/blob/tests-bal@v5.5.1/tests/frontier/identity_precompile/test_identity.py#L159",
            "opcode_count": {}
        }
    },
    "tests/frontier/identity_precompile/test_identity.py::test_call_identity_precompile_large_params[fork_Paris-blockchain_test_from_state_test-tx_gas_limit_10000000-identity_6-call_type_CALL]": {
        "network": "Paris",
        "genesisBlockHeader": {
            "parentHash": "0x0000000000000000000000000000000000000000000000000000000000000000",
            "uncleHash": "0x1dcc4de8dec75d7aab85b567b6ccd41ad312451b948a7413f0a142fd40d49347",
            "coinbase": "0x0000000000000000000000000000000000000000",
            "stateRoot": "0x42453f8586dd0fb5c5473e695d23f6de15d2781857a0be9d99b7122c54b037e8",
            "transactionsTrie": "0x56e81f171bcc55a6ff8345e692c0f86e5b48e01b996cadc001622fb5e363b421",
            "receiptTrie": "0x56e81f171bcc55a6ff8345e692c0f86e5b48e01b996cadc001622fb5e363b421",
            "bloom": "0x00000000000000000000000000000000000000000000000000000000000000000000000000000000000000000000000000000000000000000000000000000000000000000000000000000000000000000000000000000000000000000000000000000000000000000000000000000000000000000000000000000000000000000000000000000000000000000000000000000000000000000000000000000000000000000000000000000000000000000000000000000000000000000000000000000000000000000000000000000000000000000000000000000000000000000000000000000000000000000000000000000000000000000000000000000000",
            "difficulty": "0x00",
            "number": "0x00",
            "gasLimit": "0x07270e00",
            "gasUsed": "0x00",
            "timestamp": "0x00",
            "extraData": "0x00",
            "mixHash": "0x0000000000000000000000000000000000000000000000000000000000000000",
            "nonce": "0x0000000000000000",
            "baseFeePerGas": "0x07",
            "hash": "0x3817383e531714f1d2473ca8bbfdb3da3825cc8ad55519d8347885f2a5a1748b"
        },
        "pre": {
            "0xa9be479a79436dace89452d280dddbd5fadc0bd8": {
                "nonce": "0x01",
                "balance": "0x00",
                "code": "0x7fffffffffffffffffffffffffffffffffffffffffffffffffffffffffffffffff600052611234602052604060006020600060006004610258f160005560205160015500",
                "storage": {}
            },
            "0x1ad9bc24818784172ff393bb6f89f094d4d2ca29": {
                "nonce": "0x00",
                "balance": "0x3635c9adc5dea00000",
                "code": "0x",
                "storage": {}
            }
        },
        "postState": {
            "0xa9be479a79436dace89452d280dddbd5fadc0bd8": {
                "nonce": "0x01",
                "balance": "0x00",
                "code": "0x7fffffffffffffffffffffffffffffffffffffffffffffffffffffffffffffffff600052611234602052604060006020600060006004610258f160005560205160015500",
                "storage": {
                    "0x00": "0x01",
                    "0x01": "0x1234"
                }
            },
            "0x1ad9bc24818784172ff393bb6f89f094d4d2ca29": {
                "nonce": "0x01",
                "balance": "0x3635c9adc5de96064a",
                "code": "0x",
                "storage": {}
            },
            "0x2adc25665018aa1fe0e6bc666dac8fc2697ff9ba": {
                "nonce": "0x00",
                "balance": "0x02fe1d",
                "code": "0x",
                "storage": {}
            }
        },
        "lastblockhash": "0xb9b3a6cb4f61d925f72e5acbcbed11e3d98de4ab8f478fbdacd4490aec1a9520",
        "config": {
            "network": "Paris",
            "chainid": "0x01"
        },
        "genesisRLP": "0xf901f7f901f2a00000000000000000000000000000000000000000000000000000000000000000a01dcc4de8dec75d7aab85b567b6ccd41ad312451b948a7413f0a142fd40d49347940000000000000000000000000000000000000000a042453f8586dd0fb5c5473e695d23f6de15d2781857a0be9d99b7122c54b037e8a056e81f171bcc55a6ff8345e692c0f86e5b48e01b996cadc001622fb5e363b421a056e81f171bcc55a6ff8345e692c0f86e5b48e01b996cadc001622fb5e363b421b901000000000000000000000000000000000000000000000000000000000000000000000000000000000000000000000000000000000000000000000000000000000000000000000000000000000000000000000000000000000000000000000000000000000000000000000000000000000000000000000000000000000000000000000000000000000000000000000000000000000000000000000000000000000000000000000000000000000000000000000000000000000000000000000000000000000000000000000000000000000000000000000000000000000000000000000000000000000000000000000000000000000000000000000000000000000080808407270e00808000a0000000000000000000000000000000000000000000000000000000000000000088000000000000000007c0c0",
        "blocks": [
            {
                "blockHeader": {
                    "parentHash": "0x3817383e531714f1d2473ca8bbfdb3da3825cc8ad55519d8347885f2a5a1748b",
                    "uncleHash": "0x1dcc4de8dec75d7aab85b567b6ccd41ad312451b948a7413f0a142fd40d49347",
                    "coinbase": "0x2adc25665018aa1fe0e6bc666dac8fc2697ff9ba",
                    "stateRoot": "0xc82a657ca1ae2e96204bbd6e6fac8d5db0234d1a550d50c0d2fcaa68df615364",
                    "transactionsTrie": "0x1d9b9a8d47ff30e373970380b33547922b4c465ab339df6d464950da7256c73b",
                    "receiptTrie": "0x777b73f01d55070d93a8e4e24e2e15cfbada638ed27dbdddab95fcaa8db6c423",
                    "bloom": "0x00000000000000000000000000000000000000000000000000000000000000000000000000000000000000000000000000000000000000000000000000000000000000000000000000000000000000000000000000000000000000000000000000000000000000000000000000000000000000000000000000000000000000000000000000000000000000000000000000000000000000000000000000000000000000000000000000000000000000000000000000000000000000000000000000000000000000000000000000000000000000000000000000000000000000000000000000000000000000000000000000000000000000000000000000000000",
                    "difficulty": "0x00",
                    "number": "0x01",
                    "gasLimit": "0x07270e00",
                    "gasUsed": "0xff5f",
                    "timestamp": "0x03e8",
                    "extraData": "0x00",
                    "mixHash": "0x0000000000000000000000000000000000000000000000000000000000000000",
                    "nonce": "0x0000000000000000",
                    "baseFeePerGas": "0x07",
                    "hash": "0xb9b3a6cb4f61d925f72e5acbcbed11e3d98de4ab8f478fbdacd4490aec1a9520"
                },
                "transactions": [
                    {
                        "type": "0x00",
                        "chainId": "0x01",
                        "nonce": "0x00",
                        "gasPrice": "0x0a",
                        "gasLimit": "0x989680",
                        "to": "0xa9be479a79436dace89452d280dddbd5fadc0bd8",
                        "value": "0x00",
                        "data": "0x",
                        "v": "0x25",
                        "r": "0xffee59ba9a467845af39cb7753841c4565fa0afd34ada6059ffcbe60dffaf1d1",
                        "s": "0x1e06bb4cd2c49457b7ee731e134ef92c2c6adf1594a4fd1ceb203ac1133937c6",
                        "sender": "0x1ad9bc24818784172ff393bb6f89f094d4d2ca29"
                    }
                ],
                "uncleHeaders": [],
                "receipts": [
                    {
                        "transactionHash": "0x73c547360e151fe8b99556e5d97e52c64d287f0d98faed369a8c95d49543ef7d",
                        "type": "0x00",
                        "cumulativeGasUsed": "0xff5f",
                        "bloom": "0x00000000000000000000000000000000000000000000000000000000000000000000000000000000000000000000000000000000000000000000000000000000000000000000000000000000000000000000000000000000000000000000000000000000000000000000000000000000000000000000000000000000000000000000000000000000000000000000000000000000000000000000000000000000000000000000000000000000000000000000000000000000000000000000000000000000000000000000000000000000000000000000000000000000000000000000000000000000000000000000000000000000000000000000000000000000",
                        "logs": [],
                        "status": true,
                        "rlp": "0xf901080182ff5fb9010000000000000000000000000000000000000000000000000000000000000000000000000000000000000000000000000000000000000000000000000000000000000000000000000000000000000000000000000000000000000000000000000000000000000000000000000000000000000000000000000000000000000000000000000000000000000000000000000000000000000000000000000000000000000000000000000000000000000000000000000000000000000000000000000000000000000000000000000000000000000000000000000000000000000000000000000000000000000000000000000000000000000000000000000000000000c0"
                    }
                ],
                "rlp": "0xf9025ef901f6a03817383e531714f1d2473ca8bbfdb3da3825cc8ad55519d8347885f2a5a1748ba01dcc4de8dec75d7aab85b567b6ccd41ad312451b948a7413f0a142fd40d49347942adc25665018aa1fe0e6bc666dac8fc2697ff9baa0c82a657ca1ae2e96204bbd6e6fac8d5db0234d1a550d50c0d2fcaa68df615364a01d9b9a8d47ff30e373970380b33547922b4c465ab339df6d464950da7256c73ba0777b73f01d55070d93a8e4e24e2e15cfbada638ed27dbdddab95fcaa8db6c423b901000000000000000000000000000000000000000000000000000000000000000000000000000000000000000000000000000000000000000000000000000000000000000000000000000000000000000000000000000000000000000000000000000000000000000000000000000000000000000000000000000000000000000000000000000000000000000000000000000000000000000000000000000000000000000000000000000000000000000000000000000000000000000000000000000000000000000000000000000000000000000000000000000000000000000000000000000000000000000000000000000000000000000000000000000000000080018407270e0082ff5f8203e800a0000000000000000000000000000000000000000000000000000000000000000088000000000000000007f862f860800a8398968094a9be479a79436dace89452d280dddbd5fadc0bd8808025a0ffee59ba9a467845af39cb7753841c4565fa0afd34ada6059ffcbe60dffaf1d1a01e06bb4cd2c49457b7ee731e134ef92c2c6adf1594a4fd1ceb203ac1133937c6c0",
                "blocknumber": "1"
            }
        ],
        "sealEngine": "NoProof",
        "_info": {
            "hash": "0x678d33c85c3222402c273e801b394b733717b2b2c7bef44c472d84b353e6556e",
            "fixture-format": "blockchain_test",
            "comment": "`execution-specs` generated test",
            "filling-transition-tool": "2.19.0",
            "description": "Test identity precompile when out of gas occurs.",
            "url": "https://github.com/ethereum/execution-specs/blob/tests-bal@v5.5.1/tests/frontier/identity_precompile/test_identity.py#L159",
            "opcode_count": {}
        }
    }
}