{
    "tests/ported_static/stStaticCall/test_static_callcallcallcode_001_suicide_end.py::test_static_callcallcallcode_001_suicide_end[fork_Cancun-blockchain_test_from_state_test]": {
        "network": "Cancun",
        "genesisBlockHeader": {
            "parentHash": "0x0000000000000000000000000000000000000000000000000000000000000000",
            "uncleHash": "0x1dcc4de8dec75d7aab85b567b6ccd41ad312451b948a7413f0a142fd40d49347",
            "coinbase": "0x0000000000000000000000000000000000000000",
            "stateRoot": "0xd61053229ce249bfd784c3d3fd27aef65e0c4492b11a741d69a700b5fff25475",
            "transactionsTrie": "0x56e81f171bcc55a6ff8345e692c0f86e5b48e01b996cadc001622fb5e363b421",
            "receiptTrie": "0x56e81f171bcc55a6ff8345e692c0f86e5b48e01b996cadc001622fb5e363b421",
            "bloom": "0x00000000000000000000000000000000000000000000000000000000000000000000000000000000000000000000000000000000000000000000000000000000000000000000000000000000000000000000000000000000000000000000000000000000000000000000000000000000000000000000000000000000000000000000000000000000000000000000000000000000000000000000000000000000000000000000000000000000000000000000000000000000000000000000000000000000000000000000000000000000000000000000000000000000000000000000000000000000000000000000000000000000000000000000000000000000",
            "difficulty": "0x00",
            "number": "0x00",
            "gasLimit": "0x01c9c380",
            "gasUsed": "0x00",
            "timestamp": "0x00",
            "extraData": "0x00",
            "mixHash": "0x0000000000000000000000000000000000000000000000000000000000000000",
            "nonce": "0x0000000000000000",
            "baseFeePerGas": "0x0b",
            "withdrawalsRoot": "0x56e81f171bcc55a6ff8345e692c0f86e5b48e01b996cadc001622fb5e363b421",
            "blobGasUsed": "0x00",
            "excessBlobGas": "0x00",
            "parentBeaconBlockRoot": "0x0000000000000000000000000000000000000000000000000000000000000000",
            "hash": "0x3a276101b08ffb90f3d27af9efa8a9d5f097b90bf598f447553f279f590fb581"
        },
        "pre": {
            "0x000f3df6d732807ef1319fb7b8bb8522d0beac02": {
                "nonce": "0x01",
                "balance": "0x00",
                "code": "0x3373fffffffffffffffffffffffffffffffffffffffe14604d57602036146024575f5ffd5b5f35801560495762001fff810690815414603c575f5ffd5b62001fff01545f5260205ff35b5f5ffd5b62001fff42064281555f359062001fff015500",
                "storage": {}
            },
            "0xd66f224cbd2fabb21b17bb53c56118f32f62ebd6": {
                "nonce": "0x00",
                "balance": "0x0de0b6b3a7640000",
                "code": "0x",
                "storage": {}
            },
            "0x48e2d4c0b593bfebe5ddb4f13aa355b8bd83ddd3": {
                "nonce": "0x00",
                "balance": "0x02540be400",
                "code": "0x600160035200",
                "storage": {}
            },
            "0x569cdc3b32cc3f9747bbde39fd70fead591d2f0d": {
                "nonce": "0x00",
                "balance": "0x0de0b6b3a7640000",
                "code": "0x604060006040600073d7997c3f1aacabdc66b4da9461b9558b1787e01c620249f0fa600055600160015500",
                "storage": {}
            },
            "0xd7997c3f1aacabdc66b4da9461b9558b1787e01c": {
                "nonce": "0x00",
                "balance": "0x02540be400",
                "code": "0x6040600060406000734a31dd3a8c3c9a793ac0b3c234a4dbac2f201404620186a0fa00",
                "storage": {}
            },
            "0x4a31dd3a8c3c9a793ac0b3c234a4dbac2f201404": {
                "nonce": "0x00",
                "balance": "0x02540be400",
                "code": "0x60406000604060007348e2d4c0b593bfebe5ddb4f13aa355b8bd83ddd361c350f45073d7997c3f1aacabdc66b4da9461b9558b1787e01cff00",
                "storage": {}
            }
        },
        "postState": {
            "0x000f3df6d732807ef1319fb7b8bb8522d0beac02": {
                "nonce": "0x01",
                "balance": "0x00",
                "code": "0x3373fffffffffffffffffffffffffffffffffffffffe14604d57602036146024575f5ffd5b5f35801560495762001fff810690815414603c575f5ffd5b62001fff01545f5260205ff35b5f5ffd5b62001fff42064281555f359062001fff015500",
                "storage": {
                    "0x03e8": "0x03e8"
                }
            },
            "0xd66f224cbd2fabb21b17bb53c56118f32f62ebd6": {
                "nonce": "0x01",
                "balance": "0x0de0b6b3a749fd86",
                "code": "0x",
                "storage": {}
            },
            "0x48e2d4c0b593bfebe5ddb4f13aa355b8bd83ddd3": {
                "nonce": "0x00",
                "balance": "0x02540be400",
                "code": "0x600160035200",
                "storage": {}
            },
            "0x569cdc3b32cc3f9747bbde39fd70fead591d2f0d": {
                "nonce": "0x00",
                "balance": "0x0de0b6b3a7640000",
                "code": "0x604060006040600073d7997c3f1aacabdc66b4da9461b9558b1787e01c620249f0fa600055600160015500",
                "storage": {
                    "0x00": "0x01",
                    "0x01": "0x01"
                }
            },
            "0xd7997c3f1aacabdc66b4da9461b9558b1787e01c": {
                "nonce": "0x00",
                "balance": "0x02540be400",
                "code": "0x6040600060406000734a31dd3a8c3c9a793ac0b3c234a4dbac2f201404620186a0fa00",
                "storage": {}
            },
            "0x4a31dd3a8c3c9a793ac0b3c234a4dbac2f201404": {
                "nonce": "0x00",
                "balance": "0x02540be400",
                "code": "0x60406000604060007348e2d4c0b593bfebe5ddb4f13aa355b8bd83ddd361c350f45073d7997c3f1aacabdc66b4da9461b9558b1787e01cff00",
                "storage": {}
            }
        },
        "lastblockhash": "0xd905e8e5434acb942b7be636ff4fc5fe3cc45ab7be2cc03542cfd77d3929e56c",
        "config": {
            "network": "Cancun",
            "chainid": "0x01",
            "blobSchedule": {
                "Cancun": {
                    "target": "0x03",
                    "max": "0x06",
                    "baseFeeUpdateFraction": "0x32f0ed"
                }
            }
        },
        "genesisRLP": "0xf9023cf90236a00000000000000000000000000000000000000000000000000000000000000000a01dcc4de8dec75d7aab85b567b6ccd41ad312451b948a7413f0a142fd40d49347940000000000000000000000000000000000000000a0d61053229ce249bfd784c3d3fd27aef65e0c4492b11a741d69a700b5fff25475a056e81f171bcc55a6ff8345e692c0f86e5b48e01b996cadc001622fb5e363b421a056e81f171bcc55a6ff8345e692c0f86e5b48e01b996cadc001622fb5e363b421b901000000000000000000000000000000000000000000000000000000000000000000000000000000000000000000000000000000000000000000000000000000000000000000000000000000000000000000000000000000000000000000000000000000000000000000000000000000000000000000000000000000000000000000000000000000000000000000000000000000000000000000000000000000000000000000000000000000000000000000000000000000000000000000000000000000000000000000000000000000000000000000000000000000000000000000000000000000000000000000000000000000000000000000000000000000000080808401c9c380808000a000000000000000000000000000000000000000000000000000000000000000008800000000000000000ba056e81f171bcc55a6ff8345e692c0f86e5b48e01b996cadc001622fb5e363b4218080a00000000000000000000000000000000000000000000000000000000000000000c0c0c0",
        "blocks": [
            {
                "blockHeader": {
                    "parentHash": "0x3a276101b08ffb90f3d27af9efa8a9d5f097b90bf598f447553f279f590fb581",
                    "uncleHash": "0x1dcc4de8dec75d7aab85b567b6ccd41ad312451b948a7413f0a142fd40d49347",
                    "coinbase": "0x2adc25665018aa1fe0e6bc666dac8fc2697ff9ba",
                    "stateRoot": "0xce61e608aeabd9cea574146853fb531d5eacb29f97e78c17ca479faa1d4197ac",
                    "transactionsTrie": "0x09a958721d0b55755b6225bc8b59a647318547b9e83657da812e7e77da3715a3",
                    "receiptTrie": "0xf08389a215d44aeebb08de2295b094f49421a18f5d3cae7b912a3da90d60298e",
                    "bloom": "0x00000000000000000000000000000000000000000000000000000000000000000000000000000000000000000000000000000000000000000000000000000000000000000000000000000000000000000000000000000000000000000000000000000000000000000000000000000000000000000000000000000000000000000000000000000000000000000000000000000000000000000000000000000000000000000000000000000000000000000000000000000000000000000000000000000000000000000000000000000000000000000000000000000000000000000000000000000000000000000000000000000000000000000000000000000000",
                    "difficulty": "0x00",
                    "number": "0x01",
                    "gasLimit": "0x01c9c380",
                    "gasUsed": "0x0299d9",
                    "timestamp": "0x03e8",
                    "extraData": "0x00",
                    "mixHash": "0x0000000000000000000000000000000000000000000000000000000000020000",
                    "nonce": "0x0000000000000000",
                    "baseFeePerGas": "0x0a",
                    "withdrawalsRoot": "0x56e81f171bcc55a6ff8345e692c0f86e5b48e01b996cadc001622fb5e363b421",
                    "blobGasUsed": "0x00",
                    "excessBlobGas": "0x00",
                    "parentBeaconBlockRoot": "0x0000000000000000000000000000000000000000000000000000000000000000",
                    "hash": "0xd905e8e5434acb942b7be636ff4fc5fe3cc45ab7be2cc03542cfd77d3929e56c"
                },
                "transactions": [
                    {
                        "type": "0x00",
                        "chainId": "0x01",
                        "nonce": "0x00",
                        "gasPrice": "0x0a",
                        "gasLimit": "0x2dc6c0",
                        "to": "0x569cdc3b32cc3f9747bbde39fd70fead591d2f0d",
                        "value": "0x00",
                        "data": "0x",
                        "v": "0x25",
                        "r": "0xdf20ae9d0fc27060f7ff6d4bf5bad27cfab14a7ce19c18eb99f2c620b7127570",
                        "s": "0x5c3048c9d1456c4b4592faad325cc145fc46f28b86ca9e5df81b73ec82d53c57",
                        "sender": "0xd66f224cbd2fabb21b17bb53c56118f32f62ebd6"
                    }
                ],
                "uncleHeaders": [],
                "withdrawals": [],
                "receipts": [
                    {
                        "transactionHash": "0x0af700e6615d983bdbfde2c401b13bef62ec6262701bd72485066f753194d0d0",
                        "type": "0x00",
                        "cumulativeGasUsed": "0x0299d9",
                        "bloom": "0x00000000000000000000000000000000000000000000000000000000000000000000000000000000000000000000000000000000000000000000000000000000000000000000000000000000000000000000000000000000000000000000000000000000000000000000000000000000000000000000000000000000000000000000000000000000000000000000000000000000000000000000000000000000000000000000000000000000000000000000000000000000000000000000000000000000000000000000000000000000000000000000000000000000000000000000000000000000000000000000000000000000000000000000000000000000",
                        "logs": [],
                        "status": true,
                        "rlp": "0xf9010901830299d9b9010000000000000000000000000000000000000000000000000000000000000000000000000000000000000000000000000000000000000000000000000000000000000000000000000000000000000000000000000000000000000000000000000000000000000000000000000000000000000000000000000000000000000000000000000000000000000000000000000000000000000000000000000000000000000000000000000000000000000000000000000000000000000000000000000000000000000000000000000000000000000000000000000000000000000000000000000000000000000000000000000000000000000000000000000000000000c0"
                    }
                ],
                "rlp": "0xf902a4f9023ba03a276101b08ffb90f3d27af9efa8a9d5f097b90bf598f447553f279f590fb581a01dcc4de8dec75d7aab85b567b6ccd41ad312451b948a7413f0a142fd40d49347942adc25665018aa1fe0e6bc666dac8fc2697ff9baa0ce61e608aeabd9cea574146853fb531d5eacb29f97e78c17ca479faa1d4197aca009a958721d0b55755b6225bc8b59a647318547b9e83657da812e7e77da3715a3a0f08389a215d44aeebb08de2295b094f49421a18f5d3cae7b912a3da90d60298eb901000000000000000000000000000000000000000000000000000000000000000000000000000000000000000000000000000000000000000000000000000000000000000000000000000000000000000000000000000000000000000000000000000000000000000000000000000000000000000000000000000000000000000000000000000000000000000000000000000000000000000000000000000000000000000000000000000000000000000000000000000000000000000000000000000000000000000000000000000000000000000000000000000000000000000000000000000000000000000000000000000000000000000000000000000000000080018401c9c380830299d98203e800a000000000000000000000000000000000000000000000000000000000000200008800000000000000000aa056e81f171bcc55a6ff8345e692c0f86e5b48e01b996cadc001622fb5e363b4218080a00000000000000000000000000000000000000000000000000000000000000000f862f860800a832dc6c094569cdc3b32cc3f9747bbde39fd70fead591d2f0d808025a0df20ae9d0fc27060f7ff6d4bf5bad27cfab14a7ce19c18eb99f2c620b7127570a05c3048c9d1456c4b4592faad325cc145fc46f28b86ca9e5df81b73ec82d53c57c0c0",
                "blocknumber": "1"
            }
        ],
        "sealEngine": "NoProof",
        "_info": {
            "hash": "0x4608499eb342cb285f7be0ca2d0850f778598b6f4c499d9834e9fa5002c1ed9e",
            "fixture-format": "blockchain_test",
            "comment": "`execution-specs` generated test",
            "filling-transition-tool": "2.19.0",
            "description": "Test_static_callcallcallcode_001_suicide_end.",
            "url": "https://github.com/ethereum/execution-specs/blob/tests-snobal-devnet-5@v8037.0.0/tests/ported_static/stStaticCall/test_static_callcallcallcode_001_suicide_end.py#L24",
            "metadata": {
                "opcode_count": {}
            }
        }
    }
}