{
    "tests/ported_static/stStaticCall/test_static_callcallcallcode_001_oogm_before2.py::test_static_callcallcallcode_001_oogm_before2[fork_Cancun-blockchain_test_from_state_test-d0]": {
        "network": "Cancun",
        "genesisBlockHeader": {
            "parentHash": "0x0000000000000000000000000000000000000000000000000000000000000000",
            "uncleHash": "0x1dcc4de8dec75d7aab85b567b6ccd41ad312451b948a7413f0a142fd40d49347",
            "coinbase": "0x0000000000000000000000000000000000000000",
            "stateRoot": "0x62dc7db6a0928d916847089f4ed5c569a1a2921c9653cbb54f2e885560f76c83",
            "transactionsTrie": "0x56e81f171bcc55a6ff8345e692c0f86e5b48e01b996cadc001622fb5e363b421",
            "receiptTrie": "0x56e81f171bcc55a6ff8345e692c0f86e5b48e01b996cadc001622fb5e363b421",
            "bloom": "0x00000000000000000000000000000000000000000000000000000000000000000000000000000000000000000000000000000000000000000000000000000000000000000000000000000000000000000000000000000000000000000000000000000000000000000000000000000000000000000000000000000000000000000000000000000000000000000000000000000000000000000000000000000000000000000000000000000000000000000000000000000000000000000000000000000000000000000000000000000000000000000000000000000000000000000000000000000000000000000000000000000000000000000000000000000000",
            "difficulty": "0x00",
            "number": "0x00",
            "gasLimit": "0x01c9c380",
            "gasUsed": "0x00",
            "timestamp": "0x00",
            "extraData": "0x00",
            "mixHash": "0x0000000000000000000000000000000000000000000000000000000000000000",
            "nonce": "0x0000000000000000",
            "baseFeePerGas": "0x0b",
            "withdrawalsRoot": "0x56e81f171bcc55a6ff8345e692c0f86e5b48e01b996cadc001622fb5e363b421",
            "blobGasUsed": "0x00",
            "excessBlobGas": "0x00",
            "parentBeaconBlockRoot": "0x0000000000000000000000000000000000000000000000000000000000000000",
            "hash": "0xb9f07c6614da4f80362573501e469108003e353bc4e81848315eb0c3fc114f1d"
        },
        "pre": {
            "0x000f3df6d732807ef1319fb7b8bb8522d0beac02": {
                "nonce": "0x01",
                "balance": "0x00",
                "code": "0x3373fffffffffffffffffffffffffffffffffffffffe14604d57602036146024575f5ffd5b5f35801560495762001fff810690815414603c575f5ffd5b62001fff01545f5260205ff35b5f5ffd5b62001fff42064281555f359062001fff015500",
                "storage": {}
            },
            "0xd66f224cbd2fabb21b17bb53c56118f32f62ebd6": {
                "nonce": "0x00",
                "balance": "0x0de0b6b3a7640000",
                "code": "0x",
                "storage": {}
            },
            "0x7beca6585c70e19a4a6b3b0452a8c8867fec95e8": {
                "nonce": "0x00",
                "balance": "0x00",
                "code": "0x600035600052604060006040600060003562061ad0fa50600160205200",
                "storage": {}
            },
            "0x335c5531b84765a7626e6e76688f18b81be5259c": {
                "nonce": "0x00",
                "balance": "0x00",
                "code": "0x600160035200",
                "storage": {}
            },
            "0xc8cb56ed2b3bb8cb3e2f8ce276c85ad35d9ac1bf": {
                "nonce": "0x00",
                "balance": "0x0de0b6b3a7640000",
                "code": "0x6000356000526040600060206000737beca6585c70e19a4a6b3b0452a8c8867fec95e8620927c0fa600055600160015500",
                "storage": {}
            },
            "0xcf0670b1aa38b467e493459f12ac3b22fdc4a12b": {
                "nonce": "0x00",
                "balance": "0x00",
                "code": "0x5b61c3506080511015601c5760013b506001608051016080526000565b6040600060406000600073335c5531b84765a7626e6e76688f18b81be5259c6201d4d4f200",
                "storage": {}
            },
            "0xea6e38ec4f121597eea4bab20e02865062d20101": {
                "nonce": "0x00",
                "balance": "0x00",
                "code": "0x60016001556040600060406000600073335c5531b84765a7626e6e76688f18b81be5259c6201d4d4f200",
                "storage": {}
            }
        },
        "postState": {
            "0x000f3df6d732807ef1319fb7b8bb8522d0beac02": {
                "nonce": "0x01",
                "balance": "0x00",
                "code": "0x3373fffffffffffffffffffffffffffffffffffffffe14604d57602036146024575f5ffd5b5f35801560495762001fff810690815414603c575f5ffd5b62001fff01545f5260205ff35b5f5ffd5b62001fff42064281555f359062001fff015500",
                "storage": {
                    "0x03e8": "0x03e8"
                }
            },
            "0xd66f224cbd2fabb21b17bb53c56118f32f62ebd6": {
                "nonce": "0x01",
                "balance": "0x0de0b6b3a71c23ca",
                "code": "0x",
                "storage": {}
            },
            "0x7beca6585c70e19a4a6b3b0452a8c8867fec95e8": {
                "nonce": "0x00",
                "balance": "0x00",
                "code": "0x600035600052604060006040600060003562061ad0fa50600160205200",
                "storage": {}
            },
            "0x335c5531b84765a7626e6e76688f18b81be5259c": {
                "nonce": "0x00",
                "balance": "0x00",
                "code": "0x600160035200",
                "storage": {}
            },
            "0xc8cb56ed2b3bb8cb3e2f8ce276c85ad35d9ac1bf": {
                "nonce": "0x00",
                "balance": "0x0de0b6b3a7640000",
                "code": "0x6000356000526040600060206000737beca6585c70e19a4a6b3b0452a8c8867fec95e8620927c0fa600055600160015500",
                "storage": {
                    "0x00": "0x01",
                    "0x01": "0x01"
                }
            },
            "0xcf0670b1aa38b467e493459f12ac3b22fdc4a12b": {
                "nonce": "0x00",
                "balance": "0x00",
                "code": "0x5b61c3506080511015601c5760013b506001608051016080526000565b6040600060406000600073335c5531b84765a7626e6e76688f18b81be5259c6201d4d4f200",
                "storage": {}
            },
            "0xea6e38ec4f121597eea4bab20e02865062d20101": {
                "nonce": "0x00",
                "balance": "0x00",
                "code": "0x60016001556040600060406000600073335c5531b84765a7626e6e76688f18b81be5259c6201d4d4f200",
                "storage": {}
            }
        },
        "lastblockhash": "0x08e7740a7f0bba3ff888a487fb2ad7c2cb27750092bc656f262369dd30eee543",
        "config": {
            "network": "Cancun",
            "chainid": "0x01",
            "blobSchedule": {
                "Cancun": {
                    "target": "0x03",
                    "max": "0x06",
                    "baseFeeUpdateFraction": "0x32f0ed"
                }
            }
        },
        "genesisRLP": "0xf9023cf90236a00000000000000000000000000000000000000000000000000000000000000000a01dcc4de8dec75d7aab85b567b6ccd41ad312451b948a7413f0a142fd40d49347940000000000000000000000000000000000000000a062dc7db6a0928d916847089f4ed5c569a1a2921c9653cbb54f2e885560f76c83a056e81f171bcc55a6ff8345e692c0f86e5b48e01b996cadc001622fb5e363b421a056e81f171bcc55a6ff8345e692c0f86e5b48e01b996cadc001622fb5e363b421b901000000000000000000000000000000000000000000000000000000000000000000000000000000000000000000000000000000000000000000000000000000000000000000000000000000000000000000000000000000000000000000000000000000000000000000000000000000000000000000000000000000000000000000000000000000000000000000000000000000000000000000000000000000000000000000000000000000000000000000000000000000000000000000000000000000000000000000000000000000000000000000000000000000000000000000000000000000000000000000000000000000000000000000000000000000000080808401c9c380808000a000000000000000000000000000000000000000000000000000000000000000008800000000000000000ba056e81f171bcc55a6ff8345e692c0f86e5b48e01b996cadc001622fb5e363b4218080a00000000000000000000000000000000000000000000000000000000000000000c0c0c0",
        "blocks": [
            {
                "blockHeader": {
                    "parentHash": "0xb9f07c6614da4f80362573501e469108003e353bc4e81848315eb0c3fc114f1d",
                    "uncleHash": "0x1dcc4de8dec75d7aab85b567b6ccd41ad312451b948a7413f0a142fd40d49347",
                    "coinbase": "0x2adc25665018aa1fe0e6bc666dac8fc2697ff9ba",
                    "stateRoot": "0x85c070da0079b8bbdba73a0a527968d5a544011fed27a5eedf6db31a6d0ab766",
                    "transactionsTrie": "0xdde9ff15658d4aef70c2af40b5814af78f03ff887af77177d4e133c8ef0b4fbc",
                    "receiptTrie": "0xbb6cadcbf194217b16ec66a8b303a4ffd43aff95cc456ce2d4effba2a0968433",
                    "bloom": "0x00000000000000000000000000000000000000000000000000000000000000000000000000000000000000000000000000000000000000000000000000000000000000000000000000000000000000000000000000000000000000000000000000000000000000000000000000000000000000000000000000000000000000000000000000000000000000000000000000000000000000000000000000000000000000000000000000000000000000000000000000000000000000000000000000000000000000000000000000000000000000000000000000000000000000000000000000000000000000000000000000000000000000000000000000000000",
                    "difficulty": "0x00",
                    "number": "0x01",
                    "gasLimit": "0x01c9c380",
                    "gasUsed": "0x072f9f",
                    "timestamp": "0x03e8",
                    "extraData": "0x00",
                    "mixHash": "0x0000000000000000000000000000000000000000000000000000000000020000",
                    "nonce": "0x0000000000000000",
                    "baseFeePerGas": "0x0a",
                    "withdrawalsRoot": "0x56e81f171bcc55a6ff8345e692c0f86e5b48e01b996cadc001622fb5e363b421",
                    "blobGasUsed": "0x00",
                    "excessBlobGas": "0x00",
                    "parentBeaconBlockRoot": "0x0000000000000000000000000000000000000000000000000000000000000000",
                    "hash": "0x08e7740a7f0bba3ff888a487fb2ad7c2cb27750092bc656f262369dd30eee543"
                },
                "transactions": [
                    {
                        "type": "0x00",
                        "chainId": "0x01",
                        "nonce": "0x00",
                        "gasPrice": "0x0a",
                        "gasLimit": "0x1a3ec0",
                        "to": "0xc8cb56ed2b3bb8cb3e2f8ce276c85ad35d9ac1bf",
                        "value": "0x00",
                        "data": "0x000000000000000000000000ea6e38ec4f121597eea4bab20e02865062d20101",
                        "v": "0x26",
                        "r": "0xbf674cffb14d5558f54e4649b8cc7607cf227ec86ecdea0ddb050d0b31394af9",
                        "s": "0x25c556497f5983d46fbfd1112b8b3090a0c9f7a72c9e05aa41e78622a180e9c5",
                        "sender": "0xd66f224cbd2fabb21b17bb53c56118f32f62ebd6"
                    }
                ],
                "uncleHeaders": [],
                "withdrawals": [],
                "receipts": [
                    {
                        "transactionHash": "0xdd45a45f8cbe0e1293ce6a44d9ba791c8c06630ea8e322d6c17de3edbe59cd29",
                        "type": "0x00",
                        "cumulativeGasUsed": "0x072f9f",
                        "bloom": "0x00000000000000000000000000000000000000000000000000000000000000000000000000000000000000000000000000000000000000000000000000000000000000000000000000000000000000000000000000000000000000000000000000000000000000000000000000000000000000000000000000000000000000000000000000000000000000000000000000000000000000000000000000000000000000000000000000000000000000000000000000000000000000000000000000000000000000000000000000000000000000000000000000000000000000000000000000000000000000000000000000000000000000000000000000000000",
                        "logs": [],
                        "status": true,
                        "rlp": "0xf901090183072f9fb9010000000000000000000000000000000000000000000000000000000000000000000000000000000000000000000000000000000000000000000000000000000000000000000000000000000000000000000000000000000000000000000000000000000000000000000000000000000000000000000000000000000000000000000000000000000000000000000000000000000000000000000000000000000000000000000000000000000000000000000000000000000000000000000000000000000000000000000000000000000000000000000000000000000000000000000000000000000000000000000000000000000000000000000000000000000000c0"
                    }
                ],
                "rlp": "0xf902c4f9023ba0b9f07c6614da4f80362573501e469108003e353bc4e81848315eb0c3fc114f1da01dcc4de8dec75d7aab85b567b6ccd41ad312451b948a7413f0a142fd40d49347942adc25665018aa1fe0e6bc666dac8fc2697ff9baa085c070da0079b8bbdba73a0a527968d5a544011fed27a5eedf6db31a6d0ab766a0dde9ff15658d4aef70c2af40b5814af78f03ff887af77177d4e133c8ef0b4fbca0bb6cadcbf194217b16ec66a8b303a4ffd43aff95cc456ce2d4effba2a0968433b901000000000000000000000000000000000000000000000000000000000000000000000000000000000000000000000000000000000000000000000000000000000000000000000000000000000000000000000000000000000000000000000000000000000000000000000000000000000000000000000000000000000000000000000000000000000000000000000000000000000000000000000000000000000000000000000000000000000000000000000000000000000000000000000000000000000000000000000000000000000000000000000000000000000000000000000000000000000000000000000000000000000000000000000000000000000080018401c9c38083072f9f8203e800a000000000000000000000000000000000000000000000000000000000000200008800000000000000000aa056e81f171bcc55a6ff8345e692c0f86e5b48e01b996cadc001622fb5e363b4218080a00000000000000000000000000000000000000000000000000000000000000000f882f880800a831a3ec094c8cb56ed2b3bb8cb3e2f8ce276c85ad35d9ac1bf80a0000000000000000000000000ea6e38ec4f121597eea4bab20e02865062d2010126a0bf674cffb14d5558f54e4649b8cc7607cf227ec86ecdea0ddb050d0b31394af9a025c556497f5983d46fbfd1112b8b3090a0c9f7a72c9e05aa41e78622a180e9c5c0c0",
                "blocknumber": "1"
            }
        ],
        "sealEngine": "NoProof",
        "_info": {
            "hash": "0xdd9f5a0fca835b302ac3c5a966832f1c9c866748195437d2480ed63167a9079d",
            "fixture-format": "blockchain_test",
            "comment": "`execution-specs` generated test",
            "filling-transition-tool": "2.19.0",
            "description": "Test_static_callcallcallcode_001_oogm_before2.",
            "url": "https://github.com/ethereum/execution-specs/blob/tests-snobal-devnet-5@v8037.0.0/tests/ported_static/stStaticCall/test_static_callcallcallcode_001_oogm_before2.py#L25",
            "metadata": {
                "opcode_count": {}
            }
        }
    },
    "tests/ported_static/stStaticCall/test_static_callcallcallcode_001_oogm_before2.py::test_static_callcallcallcode_001_oogm_before2[fork_Cancun-blockchain_test_from_state_test-d1]": {
        "network": "Cancun",
        "genesisBlockHeader": {
            "parentHash": "0x0000000000000000000000000000000000000000000000000000000000000000",
            "uncleHash": "0x1dcc4de8dec75d7aab85b567b6ccd41ad312451b948a7413f0a142fd40d49347",
            "coinbase": "0x0000000000000000000000000000000000000000",
            "stateRoot": "0x62dc7db6a0928d916847089f4ed5c569a1a2921c9653cbb54f2e885560f76c83",
            "transactionsTrie": "0x56e81f171bcc55a6ff8345e692c0f86e5b48e01b996cadc001622fb5e363b421",
            "receiptTrie": "0x56e81f171bcc55a6ff8345e692c0f86e5b48e01b996cadc001622fb5e363b421",
            "bloom": "0x00000000000000000000000000000000000000000000000000000000000000000000000000000000000000000000000000000000000000000000000000000000000000000000000000000000000000000000000000000000000000000000000000000000000000000000000000000000000000000000000000000000000000000000000000000000000000000000000000000000000000000000000000000000000000000000000000000000000000000000000000000000000000000000000000000000000000000000000000000000000000000000000000000000000000000000000000000000000000000000000000000000000000000000000000000000",
            "difficulty": "0x00",
            "number": "0x00",
            "gasLimit": "0x01c9c380",
            "gasUsed": "0x00",
            "timestamp": "0x00",
            "extraData": "0x00",
            "mixHash": "0x0000000000000000000000000000000000000000000000000000000000000000",
            "nonce": "0x0000000000000000",
            "baseFeePerGas": "0x0b",
            "withdrawalsRoot": "0x56e81f171bcc55a6ff8345e692c0f86e5b48e01b996cadc001622fb5e363b421",
            "blobGasUsed": "0x00",
            "excessBlobGas": "0x00",
            "parentBeaconBlockRoot": "0x0000000000000000000000000000000000000000000000000000000000000000",
            "hash": "0xb9f07c6614da4f80362573501e469108003e353bc4e81848315eb0c3fc114f1d"
        },
        "pre": {
            "0x000f3df6d732807ef1319fb7b8bb8522d0beac02": {
                "nonce": "0x01",
                "balance": "0x00",
                "code": "0x3373fffffffffffffffffffffffffffffffffffffffe14604d57602036146024575f5ffd5b5f35801560495762001fff810690815414603c575f5ffd5b62001fff01545f5260205ff35b5f5ffd5b62001fff42064281555f359062001fff015500",
                "storage": {}
            },
            "0xd66f224cbd2fabb21b17bb53c56118f32f62ebd6": {
                "nonce": "0x00",
                "balance": "0x0de0b6b3a7640000",
                "code": "0x",
                "storage": {}
            },
            "0x7beca6585c70e19a4a6b3b0452a8c8867fec95e8": {
                "nonce": "0x00",
                "balance": "0x00",
                "code": "0x600035600052604060006040600060003562061ad0fa50600160205200",
                "storage": {}
            },
            "0x335c5531b84765a7626e6e76688f18b81be5259c": {
                "nonce": "0x00",
                "balance": "0x00",
                "code": "0x600160035200",
                "storage": {}
            },
            "0xc8cb56ed2b3bb8cb3e2f8ce276c85ad35d9ac1bf": {
                "nonce": "0x00",
                "balance": "0x0de0b6b3a7640000",
                "code": "0x6000356000526040600060206000737beca6585c70e19a4a6b3b0452a8c8867fec95e8620927c0fa600055600160015500",
                "storage": {}
            },
            "0xcf0670b1aa38b467e493459f12ac3b22fdc4a12b": {
                "nonce": "0x00",
                "balance": "0x00",
                "code": "0x5b61c3506080511015601c5760013b506001608051016080526000565b6040600060406000600073335c5531b84765a7626e6e76688f18b81be5259c6201d4d4f200",
                "storage": {}
            },
            "0xea6e38ec4f121597eea4bab20e02865062d20101": {
                "nonce": "0x00",
                "balance": "0x00",
                "code": "0x60016001556040600060406000600073335c5531b84765a7626e6e76688f18b81be5259c6201d4d4f200",
                "storage": {}
            }
        },
        "postState": {
            "0x000f3df6d732807ef1319fb7b8bb8522d0beac02": {
                "nonce": "0x01",
                "balance": "0x00",
                "code": "0x3373fffffffffffffffffffffffffffffffffffffffe14604d57602036146024575f5ffd5b5f35801560495762001fff810690815414603c575f5ffd5b62001fff01545f5260205ff35b5f5ffd5b62001fff42064281555f359062001fff015500",
                "storage": {
                    "0x03e8": "0x03e8"
                }
            },
            "0xd66f224cbd2fabb21b17bb53c56118f32f62ebd6": {
                "nonce": "0x01",
                "balance": "0x0de0b6b3a71c23ca",
                "code": "0x",
                "storage": {}
            },
            "0x7beca6585c70e19a4a6b3b0452a8c8867fec95e8": {
                "nonce": "0x00",
                "balance": "0x00",
                "code": "0x600035600052604060006040600060003562061ad0fa50600160205200",
                "storage": {}
            },
            "0x335c5531b84765a7626e6e76688f18b81be5259c": {
                "nonce": "0x00",
                "balance": "0x00",
                "code": "0x600160035200",
                "storage": {}
            },
            "0xc8cb56ed2b3bb8cb3e2f8ce276c85ad35d9ac1bf": {
                "nonce": "0x00",
                "balance": "0x0de0b6b3a7640000",
                "code": "0x6000356000526040600060206000737beca6585c70e19a4a6b3b0452a8c8867fec95e8620927c0fa600055600160015500",
                "storage": {
                    "0x00": "0x01",
                    "0x01": "0x01"
                }
            },
            "0xcf0670b1aa38b467e493459f12ac3b22fdc4a12b": {
                "nonce": "0x00",
                "balance": "0x00",
                "code": "0x5b61c3506080511015601c5760013b506001608051016080526000565b6040600060406000600073335c5531b84765a7626e6e76688f18b81be5259c6201d4d4f200",
                "storage": {}
            },
            "0xea6e38ec4f121597eea4bab20e02865062d20101": {
                "nonce": "0x00",
                "balance": "0x00",
                "code": "0x60016001556040600060406000600073335c5531b84765a7626e6e76688f18b81be5259c6201d4d4f200",
                "storage": {}
            }
        },
        "lastblockhash": "0xb255c3a1d6f46f4e2e2feedb8d823a760707c3611175e541d07893f0ebb3a3d1",
        "config": {
            "network": "Cancun",
            "chainid": "0x01",
            "blobSchedule": {
                "Cancun": {
                    "target": "0x03",
                    "max": "0x06",
                    "baseFeeUpdateFraction": "0x32f0ed"
                }
            }
        },
        "genesisRLP": "0xf9023cf90236a00000000000000000000000000000000000000000000000000000000000000000a01dcc4de8dec75d7aab85b567b6ccd41ad312451b948a7413f0a142fd40d49347940000000000000000000000000000000000000000a062dc7db6a0928d916847089f4ed5c569a1a2921c9653cbb54f2e885560f76c83a056e81f171bcc55a6ff8345e692c0f86e5b48e01b996cadc001622fb5e363b421a056e81f171bcc55a6ff8345e692c0f86e5b48e01b996cadc001622fb5e363b421b901000000000000000000000000000000000000000000000000000000000000000000000000000000000000000000000000000000000000000000000000000000000000000000000000000000000000000000000000000000000000000000000000000000000000000000000000000000000000000000000000000000000000000000000000000000000000000000000000000000000000000000000000000000000000000000000000000000000000000000000000000000000000000000000000000000000000000000000000000000000000000000000000000000000000000000000000000000000000000000000000000000000000000000000000000000000080808401c9c380808000a000000000000000000000000000000000000000000000000000000000000000008800000000000000000ba056e81f171bcc55a6ff8345e692c0f86e5b48e01b996cadc001622fb5e363b4218080a00000000000000000000000000000000000000000000000000000000000000000c0c0c0",
        "blocks": [
            {
                "blockHeader": {
                    "parentHash": "0xb9f07c6614da4f80362573501e469108003e353bc4e81848315eb0c3fc114f1d",
                    "uncleHash": "0x1dcc4de8dec75d7aab85b567b6ccd41ad312451b948a7413f0a142fd40d49347",
                    "coinbase": "0x2adc25665018aa1fe0e6bc666dac8fc2697ff9ba",
                    "stateRoot": "0x85c070da0079b8bbdba73a0a527968d5a544011fed27a5eedf6db31a6d0ab766",
                    "transactionsTrie": "0xa9a6e1ff62a84284384bfa4ef5c9bd7da0eac945e6be4339c49ddaca14dc4a20",
                    "receiptTrie": "0xbb6cadcbf194217b16ec66a8b303a4ffd43aff95cc456ce2d4effba2a0968433",
                    "bloom": "0x00000000000000000000000000000000000000000000000000000000000000000000000000000000000000000000000000000000000000000000000000000000000000000000000000000000000000000000000000000000000000000000000000000000000000000000000000000000000000000000000000000000000000000000000000000000000000000000000000000000000000000000000000000000000000000000000000000000000000000000000000000000000000000000000000000000000000000000000000000000000000000000000000000000000000000000000000000000000000000000000000000000000000000000000000000000",
                    "difficulty": "0x00",
                    "number": "0x01",
                    "gasLimit": "0x01c9c380",
                    "gasUsed": "0x072f9f",
                    "timestamp": "0x03e8",
                    "extraData": "0x00",
                    "mixHash": "0x0000000000000000000000000000000000000000000000000000000000020000",
                    "nonce": "0x0000000000000000",
                    "baseFeePerGas": "0x0a",
                    "withdrawalsRoot": "0x56e81f171bcc55a6ff8345e692c0f86e5b48e01b996cadc001622fb5e363b421",
                    "blobGasUsed": "0x00",
                    "excessBlobGas": "0x00",
                    "parentBeaconBlockRoot": "0x0000000000000000000000000000000000000000000000000000000000000000",
                    "hash": "0xb255c3a1d6f46f4e2e2feedb8d823a760707c3611175e541d07893f0ebb3a3d1"
                },
                "transactions": [
                    {
                        "type": "0x00",
                        "chainId": "0x01",
                        "nonce": "0x00",
                        "gasPrice": "0x0a",
                        "gasLimit": "0x1a3ec0",
                        "to": "0xc8cb56ed2b3bb8cb3e2f8ce276c85ad35d9ac1bf",
                        "value": "0x00",
                        "data": "0x000000000000000000000000cf0670b1aa38b467e493459f12ac3b22fdc4a12b",
                        "v": "0x26",
                        "r": "0x2948165861fd129ca9ab4360e730098bbcd8ca1e95da6017332c5f6ccf53de2d",
                        "s": "0x138638647b6986303d70de46625380594f6dc5311797bfac48f51465ee50f9c5",
                        "sender": "0xd66f224cbd2fabb21b17bb53c56118f32f62ebd6"
                    }
                ],
                "uncleHeaders": [],
                "withdrawals": [],
                "receipts": [
                    {
                        "transactionHash": "0x6ab0e48ca423e1679c933cdf26e15b0db13e6a8ae78e7664761f3f9b3c178cbb",
                        "type": "0x00",
                        "cumulativeGasUsed": "0x072f9f",
                        "bloom": "0x00000000000000000000000000000000000000000000000000000000000000000000000000000000000000000000000000000000000000000000000000000000000000000000000000000000000000000000000000000000000000000000000000000000000000000000000000000000000000000000000000000000000000000000000000000000000000000000000000000000000000000000000000000000000000000000000000000000000000000000000000000000000000000000000000000000000000000000000000000000000000000000000000000000000000000000000000000000000000000000000000000000000000000000000000000000",
                        "logs": [],
                        "status": true,
                        "rlp": "0xf901090183072f9fb9010000000000000000000000000000000000000000000000000000000000000000000000000000000000000000000000000000000000000000000000000000000000000000000000000000000000000000000000000000000000000000000000000000000000000000000000000000000000000000000000000000000000000000000000000000000000000000000000000000000000000000000000000000000000000000000000000000000000000000000000000000000000000000000000000000000000000000000000000000000000000000000000000000000000000000000000000000000000000000000000000000000000000000000000000000000000c0"
                    }
                ],
                "rlp": "0xf902c4f9023ba0b9f07c6614da4f80362573501e469108003e353bc4e81848315eb0c3fc114f1da01dcc4de8dec75d7aab85b567b6ccd41ad312451b948a7413f0a142fd40d49347942adc25665018aa1fe0e6bc666dac8fc2697ff9baa085c070da0079b8bbdba73a0a527968d5a544011fed27a5eedf6db31a6d0ab766a0a9a6e1ff62a84284384bfa4ef5c9bd7da0eac945e6be4339c49ddaca14dc4a20a0bb6cadcbf194217b16ec66a8b303a4ffd43aff95cc456ce2d4effba2a0968433b901000000000000000000000000000000000000000000000000000000000000000000000000000000000000000000000000000000000000000000000000000000000000000000000000000000000000000000000000000000000000000000000000000000000000000000000000000000000000000000000000000000000000000000000000000000000000000000000000000000000000000000000000000000000000000000000000000000000000000000000000000000000000000000000000000000000000000000000000000000000000000000000000000000000000000000000000000000000000000000000000000000000000000000000000000000000080018401c9c38083072f9f8203e800a000000000000000000000000000000000000000000000000000000000000200008800000000000000000aa056e81f171bcc55a6ff8345e692c0f86e5b48e01b996cadc001622fb5e363b4218080a00000000000000000000000000000000000000000000000000000000000000000f882f880800a831a3ec094c8cb56ed2b3bb8cb3e2f8ce276c85ad35d9ac1bf80a0000000000000000000000000cf0670b1aa38b467e493459f12ac3b22fdc4a12b26a02948165861fd129ca9ab4360e730098bbcd8ca1e95da6017332c5f6ccf53de2da0138638647b6986303d70de46625380594f6dc5311797bfac48f51465ee50f9c5c0c0",
                "blocknumber": "1"
            }
        ],
        "sealEngine": "NoProof",
        "_info": {
            "hash": "0xd66a5caeda1a0aa503e31203b5aabed0d2208a2244c14a7d53a1919124ec6267",
            "fixture-format": "blockchain_test",
            "comment": "`execution-specs` generated test",
            "filling-transition-tool": "2.19.0",
            "description": "Test_static_callcallcallcode_001_oogm_before2.",
            "url": "https://github.com/ethereum/execution-specs/blob/tests-snobal-devnet-5@v8037.0.0/tests/ported_static/stStaticCall/test_static_callcallcallcode_001_oogm_before2.py#L25",
            "metadata": {
                "opcode_count": {}
            }
        }
    }
}