{
    "tests/osaka/eip7951_p256verify_precompiles/test_p256verify.py::test_call_types[fork_Osaka-state_test--valid_call-call_opcode_CALLCODE]": {
        "env": {
            "currentCoinbase": "0x2adc25665018aa1fe0e6bc666dac8fc2697ff9ba",
            "currentGasLimit": "0x07270e00",
            "currentNumber": "0x01",
            "currentTimestamp": "0x03e8",
            "currentRandom": "0x0000000000000000000000000000000000000000000000000000000000000000",
            "currentDifficulty": "0x00",
            "currentBaseFee": "0x07",
            "currentExcessBlobGas": "0x00"
        },
        "pre": {
            "0xbb55df2ab86c55ae3378522936c75ef4e596e7e9": {
                "nonce": "0x01",
                "balance": "0x00",
                "code": "0x366000600037600060003660006000610100611af4f23d6001556000553d600060003e3d600020600255",
                "storage": {}
            },
            "0x91aecbe3e2ce6b0fd180b1e1b9e671c34f71f1db": {
                "nonce": "0x00",
                "balance": "0x3635c9adc5dea00000",
                "code": "0x",
                "storage": {}
            }
        },
        "transaction": {
            "nonce": "0x00",
            "maxPriorityFeePerGas": "0x00",
            "maxFeePerGas": "0x07",
            "gasLimit": [
                "0x020c6f"
            ],
            "to": "0xbb55df2ab86c55ae3378522936c75ef4e596e7e9",
            "value": [
                "0x00"
            ],
            "data": [
                "0xbb5a52f42f9c9261ed4361f59422a1e30036e7c32b270c8807a419feca6050232ba3a8be6b94d5ec80a6d9d1190a436effe50d85a1eee859b8cc6af9bd5c2e184cd60b855d442f5b3c7b11eb6c4e0ae7525fe710fab9aa7c77a67f79e6fadd762927b10512bae3eddcfe467828128bad2903269919f7086069c8c4df6c732838c7787964eaac00e5921fb1498a60f4606766b3d9685001558d1a974e7341513e"
            ],
            "accessLists": [
                []
            ],
            "sender": "0x91aecbe3e2ce6b0fd180b1e1b9e671c34f71f1db",
            "secretKey": "0xd6a21106fdda5d0e9231191dbb55df2ab86c55ae3378522936c75ef4e596e7e9"
        },
        "post": {
            "Osaka": [
                {
                    "hash": "0x7819f00dc6d874440d96a8ee741b536381797c6d1174aa8b6381b80a4ecbbcd1",
                    "logs": "0x1dcc4de8dec75d7aab85b567b6ccd41ad312451b948a7413f0a142fd40d49347",
                    "txbytes": "0x02f901040180800783020c6f94bb55df2ab86c55ae3378522936c75ef4e596e7e980b8a0bb5a52f42f9c9261ed4361f59422a1e30036e7c32b270c8807a419feca6050232ba3a8be6b94d5ec80a6d9d1190a436effe50d85a1eee859b8cc6af9bd5c2e184cd60b855d442f5b3c7b11eb6c4e0ae7525fe710fab9aa7c77a67f79e6fadd762927b10512bae3eddcfe467828128bad2903269919f7086069c8c4df6c732838c7787964eaac00e5921fb1498a60f4606766b3d9685001558d1a974e7341513ec080a04cc86b32a2a30bf28f67f6304a5abf2a443df49511db7dd916870502e0a2786ea05a326e9824d81dd0cd0124307386361172adde8a92dfe0277febb6a407c40358",
                    "indexes": {
                        "data": 0,
                        "gas": 0,
                        "value": 0
                    },
                    "state": {
                        "0xbb55df2ab86c55ae3378522936c75ef4e596e7e9": {
                            "nonce": "0x01",
                            "balance": "0x00",
                            "code": "0x366000600037600060003660006000610100611af4f23d6001556000553d600060003e3d600020600255",
                            "storage": {
                                "0x01": "0x20",
                                "0x00": "0x01",
                                "0x02": "0xb10e2d527612073b26eecdfd717e6a320cf44b4afac2b0732d9fcbe2b7fa0cf6"
                            }
                        },
                        "0x91aecbe3e2ce6b0fd180b1e1b9e671c34f71f1db": {
                            "nonce": "0x01",
                            "balance": "0x3635c9adc5de95a4ab",
                            "code": "0x",
                            "storage": {}
                        }
                    }
                }
            ]
        },
        "config": {
            "blobSchedule": {
                "Cancun": {
                    "target": "0x03",
                    "max": "0x06",
                    "baseFeeUpdateFraction": "0x32f0ed"
                },
                "Prague": {
                    "target": "0x06",
                    "max": "0x09",
                    "baseFeeUpdateFraction": "0x4c6964"
                },
                "Osaka": {
                    "target": "0x06",
                    "max": "0x09",
                    "baseFeeUpdateFraction": "0x4c6964"
                }
            },
            "chainid": "0x01"
        },
        "_info": {
            "hash": "0xb25a043437d0c789643a51902fcc33e2f53bd70a3b944163600543a381d4c387",
            "comment": "`execution-specs` generated test",
            "filling-transition-tool": "2.18.0rc6",
            "description": "Test P256Verify precompile using different call types.",
            "url": "https://github.com/ethereum/execution-specs/blob/tests-v5.4.0/tests/osaka/eip7951_p256verify_precompiles/test_p256verify.py#L1020",
            "fixture-format": "state_test",
            "reference-spec": "https://github.com/ethereum/EIPs/blob/master/EIPS/eip-7951.md",
            "reference-spec-version": "06aadd458ee04ede80498db55927b052eb5bef38"
        }
    },
    "tests/osaka/eip7951_p256verify_precompiles/test_p256verify.py::test_call_types[fork_Osaka-state_test--valid_call-call_opcode_DELEGATECALL]": {
        "env": {
            "currentCoinbase": "0x2adc25665018aa1fe0e6bc666dac8fc2697ff9ba",
            "currentGasLimit": "0x07270e00",
            "currentNumber": "0x01",
            "currentTimestamp": "0x03e8",
            "currentRandom": "0x0000000000000000000000000000000000000000000000000000000000000000",
            "currentDifficulty": "0x00",
            "currentBaseFee": "0x07",
            "currentExcessBlobGas": "0x00"
        },
        "pre": {
            "0x7549c206ae00b0be679eb26d18396625884897f7": {
                "nonce": "0x01",
                "balance": "0x00",
                "code": "0x36600060003760006000366000610100611af4f43d6001556000553d600060003e3d600020600255",
                "storage": {}
            },
            "0x3a7f000c9dc38ec041ce1354b3e74c8292b97310": {
                "nonce": "0x00",
                "balance": "0x3635c9adc5dea00000",
                "code": "0x",
                "storage": {}
            }
        },
        "transaction": {
            "nonce": "0x00",
            "maxPriorityFeePerGas": "0x00",
            "maxFeePerGas": "0x07",
            "gasLimit": [
                "0x020c6f"
            ],
            "to": "0x7549c206ae00b0be679eb26d18396625884897f7",
            "value": [
                "0x00"
            ],
            "data": [
                "0xbb5a52f42f9c9261ed4361f59422a1e30036e7c32b270c8807a419feca6050232ba3a8be6b94d5ec80a6d9d1190a436effe50d85a1eee859b8cc6af9bd5c2e184cd60b855d442f5b3c7b11eb6c4e0ae7525fe710fab9aa7c77a67f79e6fadd762927b10512bae3eddcfe467828128bad2903269919f7086069c8c4df6c732838c7787964eaac00e5921fb1498a60f4606766b3d9685001558d1a974e7341513e"
            ],
            "accessLists": [
                []
            ],
            "sender": "0x3a7f000c9dc38ec041ce1354b3e74c8292b97310",
            "secretKey": "0x3f80f2624c480440f95b20c07549c206ae00b0be679eb26d18396625884897f7"
        },
        "post": {
            "Osaka": [
                {
                    "hash": "0x4dfe92bcfcf1296817f1477c0f03c229e0a4c30898c2caefda5b045a9e1f60aa",
                    "logs": "0x1dcc4de8dec75d7aab85b567b6ccd41ad312451b948a7413f0a142fd40d49347",
                    "txbytes": "0x02f901040180800783020c6f947549c206ae00b0be679eb26d18396625884897f780b8a0bb5a52f42f9c9261ed4361f59422a1e30036e7c32b270c8807a419feca6050232ba3a8be6b94d5ec80a6d9d1190a436effe50d85a1eee859b8cc6af9bd5c2e184cd60b855d442f5b3c7b11eb6c4e0ae7525fe710fab9aa7c77a67f79e6fadd762927b10512bae3eddcfe467828128bad2903269919f7086069c8c4df6c732838c7787964eaac00e5921fb1498a60f4606766b3d9685001558d1a974e7341513ec080a0da5024df62b3cf884aca14b5addaeee5a52157d87f52c1ef67e467025c86898ea00ee60592dc4476b7cfb57f7b6286e65a73ddd915fcef224057d5059f18eb0079",
                    "indexes": {
                        "data": 0,
                        "gas": 0,
                        "value": 0
                    },
                    "state": {
                        "0x7549c206ae00b0be679eb26d18396625884897f7": {
                            "nonce": "0x01",
                            "balance": "0x00",
                            "code": "0x36600060003760006000366000610100611af4f43d6001556000553d600060003e3d600020600255",
                            "storage": {
                                "0x01": "0x20",
                                "0x00": "0x01",
                                "0x02": "0xb10e2d527612073b26eecdfd717e6a320cf44b4afac2b0732d9fcbe2b7fa0cf6"
                            }
                        },
                        "0x3a7f000c9dc38ec041ce1354b3e74c8292b97310": {
                            "nonce": "0x01",
                            "balance": "0x3635c9adc5de95a4c0",
                            "code": "0x",
                            "storage": {}
                        }
                    }
                }
            ]
        },
        "config": {
            "blobSchedule": {
                "Cancun": {
                    "target": "0x03",
                    "max": "0x06",
                    "baseFeeUpdateFraction": "0x32f0ed"
                },
                "Prague": {
                    "target": "0x06",
                    "max": "0x09",
                    "baseFeeUpdateFraction": "0x4c6964"
                },
                "Osaka": {
                    "target": "0x06",
                    "max": "0x09",
                    "baseFeeUpdateFraction": "0x4c6964"
                }
            },
            "chainid": "0x01"
        },
        "_info": {
            "hash": "0xfaa77ee74f0a079c6d98d3679a4ce8f1adef7d3617ef86890bdf6b015d23f107",
            "comment": "`execution-specs` generated test",
            "filling-transition-tool": "2.18.0rc6",
            "description": "Test P256Verify precompile using different call types.",
            "url": "https://github.com/ethereum/execution-specs/blob/tests-v5.4.0/tests/osaka/eip7951_p256verify_precompiles/test_p256verify.py#L1020",
            "fixture-format": "state_test",
            "reference-spec": "https://github.com/ethereum/EIPs/blob/master/EIPS/eip-7951.md",
            "reference-spec-version": "06aadd458ee04ede80498db55927b052eb5bef38"
        }
    },
    "tests/osaka/eip7951_p256verify_precompiles/test_p256verify.py::test_call_types[fork_Osaka-state_test--valid_call-call_opcode_STATICCALL]": {
        "env": {
            "currentCoinbase": "0x2adc25665018aa1fe0e6bc666dac8fc2697ff9ba",
            "currentGasLimit": "0x07270e00",
            "currentNumber": "0x01",
            "currentTimestamp": "0x03e8",
            "currentRandom": "0x0000000000000000000000000000000000000000000000000000000000000000",
            "currentDifficulty": "0x00",
            "currentBaseFee": "0x07",
            "currentExcessBlobGas": "0x00"
        },
        "pre": {
            "0xf9f59dee303d325fa600162715210a9b16d43860": {
                "nonce": "0x01",
                "balance": "0x00",
                "code": "0x36600060003760006000366000610100611af4fa3d6001556000553d600060003e3d600020600255",
                "storage": {}
            },
            "0x87a3b51263a4fad94e76d5eb1834275e36a15446": {
                "nonce": "0x00",
                "balance": "0x3635c9adc5dea00000",
                "code": "0x",
                "storage": {}
            }
        },
        "transaction": {
            "nonce": "0x00",
            "maxPriorityFeePerGas": "0x00",
            "maxFeePerGas": "0x07",
            "gasLimit": [
                "0x020c6f"
            ],
            "to": "0xf9f59dee303d325fa600162715210a9b16d43860",
            "value": [
                "0x00"
            ],
            "data": [
                "0xbb5a52f42f9c9261ed4361f59422a1e30036e7c32b270c8807a419feca6050232ba3a8be6b94d5ec80a6d9d1190a436effe50d85a1eee859b8cc6af9bd5c2e184cd60b855d442f5b3c7b11eb6c4e0ae7525fe710fab9aa7c77a67f79e6fadd762927b10512bae3eddcfe467828128bad2903269919f7086069c8c4df6c732838c7787964eaac00e5921fb1498a60f4606766b3d9685001558d1a974e7341513e"
            ],
            "accessLists": [
                []
            ],
            "sender": "0x87a3b51263a4fad94e76d5eb1834275e36a15446",
            "secretKey": "0x908cd68fb7877bee913882aff9f59dee303d325fa600162715210a9b16d43860"
        },
        "post": {
            "Osaka": [
                {
                    "hash": "0xdba2877f01205c3c73a420f534546773b48c595e461acb0ab654c7f64f6090c2",
                    "logs": "0x1dcc4de8dec75d7aab85b567b6ccd41ad312451b948a7413f0a142fd40d49347",
                    "txbytes": "0x02f901040180800783020c6f94f9f59dee303d325fa600162715210a9b16d4386080b8a0bb5a52f42f9c9261ed4361f59422a1e30036e7c32b270c8807a419feca6050232ba3a8be6b94d5ec80a6d9d1190a436effe50d85a1eee859b8cc6af9bd5c2e184cd60b855d442f5b3c7b11eb6c4e0ae7525fe710fab9aa7c77a67f79e6fadd762927b10512bae3eddcfe467828128bad2903269919f7086069c8c4df6c732838c7787964eaac00e5921fb1498a60f4606766b3d9685001558d1a974e7341513ec001a04c7e361e2ecc47f6c880f29c45708e7d66feccb0a73830253651d37402c5de46a029d707c9e24aa912728273f9d43b188e71602f157f54368c28257bd04d64631d",
                    "indexes": {
                        "data": 0,
                        "gas": 0,
                        "value": 0
                    },
                    "state": {
                        "0xf9f59dee303d325fa600162715210a9b16d43860": {
                            "nonce": "0x01",
                            "balance": "0x00",
                            "code": "0x36600060003760006000366000610100611af4fa3d6001556000553d600060003e3d600020600255",
                            "storage": {
                                "0x01": "0x20",
                                "0x00": "0x01",
                                "0x02": "0xb10e2d527612073b26eecdfd717e6a320cf44b4afac2b0732d9fcbe2b7fa0cf6"
                            }
                        },
                        "0x87a3b51263a4fad94e76d5eb1834275e36a15446": {
                            "nonce": "0x01",
                            "balance": "0x3635c9adc5de95a4c0",
                            "code": "0x",
                            "storage": {}
                        }
                    }
                }
            ]
        },
        "config": {
            "blobSchedule": {
                "Cancun": {
                    "target": "0x03",
                    "max": "0x06",
                    "baseFeeUpdateFraction": "0x32f0ed"
                },
                "Prague": {
                    "target": "0x06",
                    "max": "0x09",
                    "baseFeeUpdateFraction": "0x4c6964"
                },
                "Osaka": {
                    "target": "0x06",
                    "max": "0x09",
                    "baseFeeUpdateFraction": "0x4c6964"
                }
            },
            "chainid": "0x01"
        },
        "_info": {
            "hash": "0x18d378eab8ed3b3760b54545a4f3d2b063c9f9dedf4d20352f6821c1db33c52c",
            "comment": "`execution-specs` generated test",
            "filling-transition-tool": "2.18.0rc6",
            "description": "Test P256Verify precompile using different call types.",
            "url": "https://github.com/ethereum/execution-specs/blob/tests-v5.4.0/tests/osaka/eip7951_p256verify_precompiles/test_p256verify.py#L1020",
            "fixture-format": "state_test",
            "reference-spec": "https://github.com/ethereum/EIPs/blob/master/EIPS/eip-7951.md",
            "reference-spec-version": "06aadd458ee04ede80498db55927b052eb5bef38"
        }
    }
}