{
    "tests/ported_static/stMemoryStressTest/test_static_call_bounds.py::test_static_call_bounds[fork_Cancun-blockchain_test_from_state_test--g0]": {
        "network": "Cancun",
        "genesisBlockHeader": {
            "parentHash": "0x0000000000000000000000000000000000000000000000000000000000000000",
            "uncleHash": "0x1dcc4de8dec75d7aab85b567b6ccd41ad312451b948a7413f0a142fd40d49347",
            "coinbase": "0x0000000000000000000000000000000000000000",
            "stateRoot": "0xc40a9ecbcdffe82aff6ae70c1b2ad29a0a64e3ee9f6f7e653b57647e720d2fab",
            "transactionsTrie": "0x56e81f171bcc55a6ff8345e692c0f86e5b48e01b996cadc001622fb5e363b421",
            "receiptTrie": "0x56e81f171bcc55a6ff8345e692c0f86e5b48e01b996cadc001622fb5e363b421",
            "bloom": "0x00000000000000000000000000000000000000000000000000000000000000000000000000000000000000000000000000000000000000000000000000000000000000000000000000000000000000000000000000000000000000000000000000000000000000000000000000000000000000000000000000000000000000000000000000000000000000000000000000000000000000000000000000000000000000000000000000000000000000000000000000000000000000000000000000000000000000000000000000000000000000000000000000000000000000000000000000000000000000000000000000000000000000000000000000000000",
            "difficulty": "0x00",
            "number": "0x00",
            "gasLimit": "0x7fffffffffffffff",
            "gasUsed": "0x00",
            "timestamp": "0x00",
            "extraData": "0x00",
            "mixHash": "0x0000000000000000000000000000000000000000000000000000000000000000",
            "nonce": "0x0000000000000000",
            "baseFeePerGas": "0x0b",
            "withdrawalsRoot": "0x56e81f171bcc55a6ff8345e692c0f86e5b48e01b996cadc001622fb5e363b421",
            "blobGasUsed": "0x00",
            "excessBlobGas": "0x00",
            "parentBeaconBlockRoot": "0x0000000000000000000000000000000000000000000000000000000000000000",
            "hash": "0x60be35f309fcb64e6d39dc63afe46d7f2b618c3d365c6810cd034d17163ff270"
        },
        "pre": {
            "0x000f3df6d732807ef1319fb7b8bb8522d0beac02": {
                "nonce": "0x01",
                "balance": "0x00",
                "code": "0x3373fffffffffffffffffffffffffffffffffffffffe14604d57602036146024575f5ffd5b5f35801560495762001fff810690815414603c575f5ffd5b62001fff01545f5260205ff35b5f5ffd5b62001fff42064281555f359062001fff015500",
                "storage": {}
            },
            "0x5da8c786ffe0d506dbff8faaa18d3875b733c94d": {
                "nonce": "0x00",
                "balance": "0xffffffffffffffffffffffffffffffffffffffffffffffffffffff",
                "code": "0x",
                "storage": {}
            },
            "0x28a3c89c930867af5b1688d3ec671a3f3c1e5b72": {
                "nonce": "0x00",
                "balance": "0x00",
                "code": "0x60005460010160005200",
                "storage": {}
            },
            "0xcd12496ab57bc9c6333055379d2d35d12327c7ce": {
                "nonce": "0x00",
                "balance": "0x00",
                "code": "0x60006000600060007328a3c89c930867af5b1688d3ec671a3f3c1e5b726707fffffffffffffffa50630fffffff6000630fffffff60007328a3c89c930867af5b1688d3ec671a3f3c1e5b726707fffffffffffffffa5063ffffffff600063ffffffff60007328a3c89c930867af5b1688d3ec671a3f3c1e5b726707fffffffffffffffa506000630fffffff6000630fffffff7328a3c89c930867af5b1688d3ec671a3f3c1e5b726707fffffffffffffffa50600063ffffffff600063ffffffff7328a3c89c930867af5b1688d3ec671a3f3c1e5b726707fffffffffffffffa50600067ffffffffffffffff600067ffffffffffffffff7328a3c89c930867af5b1688d3ec671a3f3c1e5b726707fffffffffffffffa5060006fffffffffffffffffffffffffffffffff60006fffffffffffffffffffffffffffffffff7328a3c89c930867af5b1688d3ec671a3f3c1e5b726707fffffffffffffffa5060007fffffffffffffffffffffffffffffffffffffffffffffffffffffffffffffffff60007fffffffffffffffffffffffffffffffffffffffffffffffffffffffffffffffff7328a3c89c930867af5b1688d3ec671a3f3c1e5b726707fffffffffffffffa00",
                "storage": {}
            }
        },
        "postState": {
            "0x000f3df6d732807ef1319fb7b8bb8522d0beac02": {
                "nonce": "0x01",
                "balance": "0x00",
                "code": "0x3373fffffffffffffffffffffffffffffffffffffffe14604d57602036146024575f5ffd5b5f35801560495762001fff810690815414603c575f5ffd5b62001fff01545f5260205ff35b5f5ffd5b62001fff42064281555f359062001fff015500",
                "storage": {
                    "0x03e8": "0x03e8"
                }
            },
            "0x5da8c786ffe0d506dbff8faaa18d3875b733c94d": {
                "nonce": "0x01",
                "balance": "0xffffffffffffffffffffffffffffffffffffffffffffffffe91c9f",
                "code": "0x",
                "storage": {}
            },
            "0x28a3c89c930867af5b1688d3ec671a3f3c1e5b72": {
                "nonce": "0x00",
                "balance": "0x00",
                "code": "0x60005460010160005200",
                "storage": {}
            },
            "0xcd12496ab57bc9c6333055379d2d35d12327c7ce": {
                "nonce": "0x00",
                "balance": "0x00",
                "code": "0x60006000600060007328a3c89c930867af5b1688d3ec671a3f3c1e5b726707fffffffffffffffa50630fffffff6000630fffffff60007328a3c89c930867af5b1688d3ec671a3f3c1e5b726707fffffffffffffffa5063ffffffff600063ffffffff60007328a3c89c930867af5b1688d3ec671a3f3c1e5b726707fffffffffffffffa506000630fffffff6000630fffffff7328a3c89c930867af5b1688d3ec671a3f3c1e5b726707fffffffffffffffa50600063ffffffff600063ffffffff7328a3c89c930867af5b1688d3ec671a3f3c1e5b726707fffffffffffffffa50600067ffffffffffffffff600067ffffffffffffffff7328a3c89c930867af5b1688d3ec671a3f3c1e5b726707fffffffffffffffa5060006fffffffffffffffffffffffffffffffff60006fffffffffffffffffffffffffffffffff7328a3c89c930867af5b1688d3ec671a3f3c1e5b726707fffffffffffffffa5060007fffffffffffffffffffffffffffffffffffffffffffffffffffffffffffffffff60007fffffffffffffffffffffffffffffffffffffffffffffffffffffffffffffffff7328a3c89c930867af5b1688d3ec671a3f3c1e5b726707fffffffffffffffa00",
                "storage": {}
            }
        },
        "lastblockhash": "0x31a47d2ed81d0b38071d94d1f7b0f1e936a4375f69c64ae25b3ead2b535c7e1f",
        "config": {
            "network": "Cancun",
            "chainid": "0x01",
            "blobSchedule": {
                "Cancun": {
                    "target": "0x03",
                    "max": "0x06",
                    "baseFeeUpdateFraction": "0x32f0ed"
                }
            }
        },
        "genesisRLP": "0xf90240f9023aa00000000000000000000000000000000000000000000000000000000000000000a01dcc4de8dec75d7aab85b567b6ccd41ad312451b948a7413f0a142fd40d49347940000000000000000000000000000000000000000a0c40a9ecbcdffe82aff6ae70c1b2ad29a0a64e3ee9f6f7e653b57647e720d2faba056e81f171bcc55a6ff8345e692c0f86e5b48e01b996cadc001622fb5e363b421a056e81f171bcc55a6ff8345e692c0f86e5b48e01b996cadc001622fb5e363b421b90100000000000000000000000000000000000000000000000000000000000000000000000000000000000000000000000000000000000000000000000000000000000000000000000000000000000000000000000000000000000000000000000000000000000000000000000000000000000000000000000000000000000000000000000000000000000000000000000000000000000000000000000000000000000000000000000000000000000000000000000000000000000000000000000000000000000000000000000000000000000000000000000000000000000000000000000000000000000000000000000000000000000000000000000000000000008080887fffffffffffffff808000a000000000000000000000000000000000000000000000000000000000000000008800000000000000000ba056e81f171bcc55a6ff8345e692c0f86e5b48e01b996cadc001622fb5e363b4218080a00000000000000000000000000000000000000000000000000000000000000000c0c0c0",
        "blocks": [
            {
                "blockHeader": {
                    "parentHash": "0x60be35f309fcb64e6d39dc63afe46d7f2b618c3d365c6810cd034d17163ff270",
                    "uncleHash": "0x1dcc4de8dec75d7aab85b567b6ccd41ad312451b948a7413f0a142fd40d49347",
                    "coinbase": "0x2adc25665018aa1fe0e6bc666dac8fc2697ff9ba",
                    "stateRoot": "0x98eb8821250dee0b1f0325c5abba3f07ded53104e92eba756e7abbb9d0e9ab01",
                    "transactionsTrie": "0xcd68ed8a1ce1010ea4c8011713cd7cec73fead4065ead440a07bbba7d478e403",
                    "receiptTrie": "0xa0e10907f175886de9bd8cd4ac2c21d1db4109a3a9fecf60f54015ee102803fd",
                    "bloom": "0x00000000000000000000000000000000000000000000000000000000000000000000000000000000000000000000000000000000000000000000000000000000000000000000000000000000000000000000000000000000000000000000000000000000000000000000000000000000000000000000000000000000000000000000000000000000000000000000000000000000000000000000000000000000000000000000000000000000000000000000000000000000000000000000000000000000000000000000000000000000000000000000000000000000000000000000000000000000000000000000000000000000000000000000000000000000",
                    "difficulty": "0x00",
                    "number": "0x01",
                    "gasLimit": "0x7fffffffffffffff",
                    "gasUsed": "0x0249f0",
                    "timestamp": "0x03e8",
                    "extraData": "0x00",
                    "mixHash": "0x0000000000000000000000000000000000000000000000000000000000020000",
                    "nonce": "0x0000000000000000",
                    "baseFeePerGas": "0x0a",
                    "withdrawalsRoot": "0x56e81f171bcc55a6ff8345e692c0f86e5b48e01b996cadc001622fb5e363b421",
                    "blobGasUsed": "0x00",
                    "excessBlobGas": "0x00",
                    "parentBeaconBlockRoot": "0x0000000000000000000000000000000000000000000000000000000000000000",
                    "hash": "0x31a47d2ed81d0b38071d94d1f7b0f1e936a4375f69c64ae25b3ead2b535c7e1f"
                },
                "transactions": [
                    {
                        "type": "0x00",
                        "chainId": "0x01",
                        "nonce": "0x00",
                        "gasPrice": "0x0a",
                        "gasLimit": "0x0249f0",
                        "to": "0xcd12496ab57bc9c6333055379d2d35d12327c7ce",
                        "value": "0x01",
                        "data": "0x",
                        "v": "0x26",
                        "r": "0x754dbeb84c8b7a7658a8f58677ad401a8fa03f4054c055f7d1d3d352f796b7b4",
                        "s": "0x5e13a3a78c4defd4769780056c67376171dcb08a5c3aea0ad2b8af61bccf5984",
                        "sender": "0x5da8c786ffe0d506dbff8faaa18d3875b733c94d"
                    }
                ],
                "uncleHeaders": [],
                "withdrawals": [],
                "receipts": [
                    {
                        "transactionHash": "0x679e9fde4b164629e21f6d365107ef09e6eaf192bc13be72dbab85ca93421114",
                        "type": "0x00",
                        "cumulativeGasUsed": "0x0249f0",
                        "bloom": "0x00000000000000000000000000000000000000000000000000000000000000000000000000000000000000000000000000000000000000000000000000000000000000000000000000000000000000000000000000000000000000000000000000000000000000000000000000000000000000000000000000000000000000000000000000000000000000000000000000000000000000000000000000000000000000000000000000000000000000000000000000000000000000000000000000000000000000000000000000000000000000000000000000000000000000000000000000000000000000000000000000000000000000000000000000000000",
                        "logs": [],
                        "status": false,
                        "rlp": "0xf9010980830249f0b9010000000000000000000000000000000000000000000000000000000000000000000000000000000000000000000000000000000000000000000000000000000000000000000000000000000000000000000000000000000000000000000000000000000000000000000000000000000000000000000000000000000000000000000000000000000000000000000000000000000000000000000000000000000000000000000000000000000000000000000000000000000000000000000000000000000000000000000000000000000000000000000000000000000000000000000000000000000000000000000000000000000000000000000000000000000000c0"
                    }
                ],
                "rlp": "0xf902a8f9023fa060be35f309fcb64e6d39dc63afe46d7f2b618c3d365c6810cd034d17163ff270a01dcc4de8dec75d7aab85b567b6ccd41ad312451b948a7413f0a142fd40d49347942adc25665018aa1fe0e6bc666dac8fc2697ff9baa098eb8821250dee0b1f0325c5abba3f07ded53104e92eba756e7abbb9d0e9ab01a0cd68ed8a1ce1010ea4c8011713cd7cec73fead4065ead440a07bbba7d478e403a0a0e10907f175886de9bd8cd4ac2c21d1db4109a3a9fecf60f54015ee102803fdb90100000000000000000000000000000000000000000000000000000000000000000000000000000000000000000000000000000000000000000000000000000000000000000000000000000000000000000000000000000000000000000000000000000000000000000000000000000000000000000000000000000000000000000000000000000000000000000000000000000000000000000000000000000000000000000000000000000000000000000000000000000000000000000000000000000000000000000000000000000000000000000000000000000000000000000000000000000000000000000000000000000000000000000000000000000000008001887fffffffffffffff830249f08203e800a000000000000000000000000000000000000000000000000000000000000200008800000000000000000aa056e81f171bcc55a6ff8345e692c0f86e5b48e01b996cadc001622fb5e363b4218080a00000000000000000000000000000000000000000000000000000000000000000f862f860800a830249f094cd12496ab57bc9c6333055379d2d35d12327c7ce018026a0754dbeb84c8b7a7658a8f58677ad401a8fa03f4054c055f7d1d3d352f796b7b4a05e13a3a78c4defd4769780056c67376171dcb08a5c3aea0ad2b8af61bccf5984c0c0",
                "blocknumber": "1"
            }
        ],
        "sealEngine": "NoProof",
        "_info": {
            "hash": "0x0b9a8f955886ec9d23631fdb00eac51d93f1518aa7dec135fec793a2fa774f82",
            "fixture-format": "blockchain_test",
            "comment": "`execution-specs` generated test",
            "filling-transition-tool": "2.19.0",
            "description": "Test_static_call_bounds.",
            "url": "https://github.com/ethereum/execution-specs/blob/tests-snobal-devnet-5@v8037.0.0/tests/ported_static/stMemoryStressTest/test_static_call_bounds.py#L25",
            "metadata": {
                "opcode_count": {}
            }
        }
    },
    "tests/ported_static/stMemoryStressTest/test_static_call_bounds.py::test_static_call_bounds[fork_Cancun-blockchain_test_from_state_test--g1]": {
        "network": "Cancun",
        "genesisBlockHeader": {
            "parentHash": "0x0000000000000000000000000000000000000000000000000000000000000000",
            "uncleHash": "0x1dcc4de8dec75d7aab85b567b6ccd41ad312451b948a7413f0a142fd40d49347",
            "coinbase": "0x0000000000000000000000000000000000000000",
            "stateRoot": "0xc40a9ecbcdffe82aff6ae70c1b2ad29a0a64e3ee9f6f7e653b57647e720d2fab",
            "transactionsTrie": "0x56e81f171bcc55a6ff8345e692c0f86e5b48e01b996cadc001622fb5e363b421",
            "receiptTrie": "0x56e81f171bcc55a6ff8345e692c0f86e5b48e01b996cadc001622fb5e363b421",
            "bloom": "0x00000000000000000000000000000000000000000000000000000000000000000000000000000000000000000000000000000000000000000000000000000000000000000000000000000000000000000000000000000000000000000000000000000000000000000000000000000000000000000000000000000000000000000000000000000000000000000000000000000000000000000000000000000000000000000000000000000000000000000000000000000000000000000000000000000000000000000000000000000000000000000000000000000000000000000000000000000000000000000000000000000000000000000000000000000000",
            "difficulty": "0x00",
            "number": "0x00",
            "gasLimit": "0x7fffffffffffffff",
            "gasUsed": "0x00",
            "timestamp": "0x00",
            "extraData": "0x00",
            "mixHash": "0x0000000000000000000000000000000000000000000000000000000000000000",
            "nonce": "0x0000000000000000",
            "baseFeePerGas": "0x0b",
            "withdrawalsRoot": "0x56e81f171bcc55a6ff8345e692c0f86e5b48e01b996cadc001622fb5e363b421",
            "blobGasUsed": "0x00",
            "excessBlobGas": "0x00",
            "parentBeaconBlockRoot": "0x0000000000000000000000000000000000000000000000000000000000000000",
            "hash": "0x60be35f309fcb64e6d39dc63afe46d7f2b618c3d365c6810cd034d17163ff270"
        },
        "pre": {
            "0x000f3df6d732807ef1319fb7b8bb8522d0beac02": {
                "nonce": "0x01",
                "balance": "0x00",
                "code": "0x3373fffffffffffffffffffffffffffffffffffffffe14604d57602036146024575f5ffd5b5f35801560495762001fff810690815414603c575f5ffd5b62001fff01545f5260205ff35b5f5ffd5b62001fff42064281555f359062001fff015500",
                "storage": {}
            },
            "0x5da8c786ffe0d506dbff8faaa18d3875b733c94d": {
                "nonce": "0x00",
                "balance": "0xffffffffffffffffffffffffffffffffffffffffffffffffffffff",
                "code": "0x",
                "storage": {}
            },
            "0x28a3c89c930867af5b1688d3ec671a3f3c1e5b72": {
                "nonce": "0x00",
                "balance": "0x00",
                "code": "0x60005460010160005200",
                "storage": {}
            },
            "0xcd12496ab57bc9c6333055379d2d35d12327c7ce": {
                "nonce": "0x00",
                "balance": "0x00",
                "code": "0x60006000600060007328a3c89c930867af5b1688d3ec671a3f3c1e5b726707fffffffffffffffa50630fffffff6000630fffffff60007328a3c89c930867af5b1688d3ec671a3f3c1e5b726707fffffffffffffffa5063ffffffff600063ffffffff60007328a3c89c930867af5b1688d3ec671a3f3c1e5b726707fffffffffffffffa506000630fffffff6000630fffffff7328a3c89c930867af5b1688d3ec671a3f3c1e5b726707fffffffffffffffa50600063ffffffff600063ffffffff7328a3c89c930867af5b1688d3ec671a3f3c1e5b726707fffffffffffffffa50600067ffffffffffffffff600067ffffffffffffffff7328a3c89c930867af5b1688d3ec671a3f3c1e5b726707fffffffffffffffa5060006fffffffffffffffffffffffffffffffff60006fffffffffffffffffffffffffffffffff7328a3c89c930867af5b1688d3ec671a3f3c1e5b726707fffffffffffffffa5060007fffffffffffffffffffffffffffffffffffffffffffffffffffffffffffffffff60007fffffffffffffffffffffffffffffffffffffffffffffffffffffffffffffffff7328a3c89c930867af5b1688d3ec671a3f3c1e5b726707fffffffffffffffa00",
                "storage": {}
            }
        },
        "postState": {
            "0x000f3df6d732807ef1319fb7b8bb8522d0beac02": {
                "nonce": "0x01",
                "balance": "0x00",
                "code": "0x3373fffffffffffffffffffffffffffffffffffffffe14604d57602036146024575f5ffd5b5f35801560495762001fff810690815414603c575f5ffd5b62001fff01545f5260205ff35b5f5ffd5b62001fff42064281555f359062001fff015500",
                "storage": {
                    "0x03e8": "0x03e8"
                }
            },
            "0x5da8c786ffe0d506dbff8faaa18d3875b733c94d": {
                "nonce": "0x01",
                "balance": "0xfffffffffffffffffffffffffffffffffffffffffffffff5ffffff",
                "code": "0x",
                "storage": {}
            },
            "0x28a3c89c930867af5b1688d3ec671a3f3c1e5b72": {
                "nonce": "0x00",
                "balance": "0x00",
                "code": "0x60005460010160005200",
                "storage": {}
            },
            "0xcd12496ab57bc9c6333055379d2d35d12327c7ce": {
                "nonce": "0x00",
                "balance": "0x00",
                "code": "0x60006000600060007328a3c89c930867af5b1688d3ec671a3f3c1e5b726707fffffffffffffffa50630fffffff6000630fffffff60007328a3c89c930867af5b1688d3ec671a3f3c1e5b726707fffffffffffffffa5063ffffffff600063ffffffff60007328a3c89c930867af5b1688d3ec671a3f3c1e5b726707fffffffffffffffa506000630fffffff6000630fffffff7328a3c89c930867af5b1688d3ec671a3f3c1e5b726707fffffffffffffffa50600063ffffffff600063ffffffff7328a3c89c930867af5b1688d3ec671a3f3c1e5b726707fffffffffffffffa50600067ffffffffffffffff600067ffffffffffffffff7328a3c89c930867af5b1688d3ec671a3f3c1e5b726707fffffffffffffffa5060006fffffffffffffffffffffffffffffffff60006fffffffffffffffffffffffffffffffff7328a3c89c930867af5b1688d3ec671a3f3c1e5b726707fffffffffffffffa5060007fffffffffffffffffffffffffffffffffffffffffffffffffffffffffffffffff60007fffffffffffffffffffffffffffffffffffffffffffffffffffffffffffffffff7328a3c89c930867af5b1688d3ec671a3f3c1e5b726707fffffffffffffffa00",
                "storage": {}
            }
        },
        "lastblockhash": "0x42e4e713f63ca56df1b663f7243996ea9179f6eeeda46352bccee15169e7246a",
        "config": {
            "network": "Cancun",
            "chainid": "0x01",
            "blobSchedule": {
                "Cancun": {
                    "target": "0x03",
                    "max": "0x06",
                    "baseFeeUpdateFraction": "0x32f0ed"
                }
            }
        },
        "genesisRLP": "0xf90240f9023aa00000000000000000000000000000000000000000000000000000000000000000a01dcc4de8dec75d7aab85b567b6ccd41ad312451b948a7413f0a142fd40d49347940000000000000000000000000000000000000000a0c40a9ecbcdffe82aff6ae70c1b2ad29a0a64e3ee9f6f7e653b57647e720d2faba056e81f171bcc55a6ff8345e692c0f86e5b48e01b996cadc001622fb5e363b421a056e81f171bcc55a6ff8345e692c0f86e5b48e01b996cadc001622fb5e363b421b90100000000000000000000000000000000000000000000000000000000000000000000000000000000000000000000000000000000000000000000000000000000000000000000000000000000000000000000000000000000000000000000000000000000000000000000000000000000000000000000000000000000000000000000000000000000000000000000000000000000000000000000000000000000000000000000000000000000000000000000000000000000000000000000000000000000000000000000000000000000000000000000000000000000000000000000000000000000000000000000000000000000000000000000000000000000008080887fffffffffffffff808000a000000000000000000000000000000000000000000000000000000000000000008800000000000000000ba056e81f171bcc55a6ff8345e692c0f86e5b48e01b996cadc001622fb5e363b4218080a00000000000000000000000000000000000000000000000000000000000000000c0c0c0",
        "blocks": [
            {
                "blockHeader": {
                    "parentHash": "0x60be35f309fcb64e6d39dc63afe46d7f2b618c3d365c6810cd034d17163ff270",
                    "uncleHash": "0x1dcc4de8dec75d7aab85b567b6ccd41ad312451b948a7413f0a142fd40d49347",
                    "coinbase": "0x2adc25665018aa1fe0e6bc666dac8fc2697ff9ba",
                    "stateRoot": "0x348e3ee9738acacf857ec0096c8fbe4efce7db7d627b54f6fa36b8271730b225",
                    "transactionsTrie": "0x2543e02a82d0faa3409b6efe978e598919808396f0d4d31223c8f16b2914bbdd",
                    "receiptTrie": "0x6109c57d8983f520f4b510024a1760aff8d920bb293bbc00c30abdac956b3b2f",
                    "bloom": "0x00000000000000000000000000000000000000000000000000000000000000000000000000000000000000000000000000000000000000000000000000000000000000000000000000000000000000000000000000000000000000000000000000000000000000000000000000000000000000000000000000000000000000000000000000000000000000000000000000000000000000000000000000000000000000000000000000000000000000000000000000000000000000000000000000000000000000000000000000000000000000000000000000000000000000000000000000000000000000000000000000000000000000000000000000000000",
                    "difficulty": "0x00",
                    "number": "0x01",
                    "gasLimit": "0x7fffffffffffffff",
                    "gasUsed": "0x01000000",
                    "timestamp": "0x03e8",
                    "extraData": "0x00",
                    "mixHash": "0x0000000000000000000000000000000000000000000000000000000000020000",
                    "nonce": "0x0000000000000000",
                    "baseFeePerGas": "0x0a",
                    "withdrawalsRoot": "0x56e81f171bcc55a6ff8345e692c0f86e5b48e01b996cadc001622fb5e363b421",
                    "blobGasUsed": "0x00",
                    "excessBlobGas": "0x00",
                    "parentBeaconBlockRoot": "0x0000000000000000000000000000000000000000000000000000000000000000",
                    "hash": "0x42e4e713f63ca56df1b663f7243996ea9179f6eeeda46352bccee15169e7246a"
                },
                "transactions": [
                    {
                        "type": "0x00",
                        "chainId": "0x01",
                        "nonce": "0x00",
                        "gasPrice": "0x0a",
                        "gasLimit": "0x01000000",
                        "to": "0xcd12496ab57bc9c6333055379d2d35d12327c7ce",
                        "value": "0x01",
                        "data": "0x",
                        "v": "0x25",
                        "r": "0xba65ec7e3a9e51dd77f39637b17a9232b37bb2217fd5ae1d99a268416574b7bf",
                        "s": "0x700fd1cdf54b7ded572b56e466acb9c2204343a114c9afe2b9f3bc8f538104eb",
                        "sender": "0x5da8c786ffe0d506dbff8faaa18d3875b733c94d"
                    }
                ],
                "uncleHeaders": [],
                "withdrawals": [],
                "receipts": [
                    {
                        "transactionHash": "0x8b229705d01e7d5ad6c086b9d9d23fda620cb743f8b3b5e6c7453f8b16c220e4",
                        "type": "0x00",
                        "cumulativeGasUsed": "0x01000000",
                        "bloom": "0x00000000000000000000000000000000000000000000000000000000000000000000000000000000000000000000000000000000000000000000000000000000000000000000000000000000000000000000000000000000000000000000000000000000000000000000000000000000000000000000000000000000000000000000000000000000000000000000000000000000000000000000000000000000000000000000000000000000000000000000000000000000000000000000000000000000000000000000000000000000000000000000000000000000000000000000000000000000000000000000000000000000000000000000000000000000",
                        "logs": [],
                        "status": false,
                        "rlp": "0xf9010a808401000000b9010000000000000000000000000000000000000000000000000000000000000000000000000000000000000000000000000000000000000000000000000000000000000000000000000000000000000000000000000000000000000000000000000000000000000000000000000000000000000000000000000000000000000000000000000000000000000000000000000000000000000000000000000000000000000000000000000000000000000000000000000000000000000000000000000000000000000000000000000000000000000000000000000000000000000000000000000000000000000000000000000000000000000000000000000000000000c0"
                    }
                ],
                "rlp": "0xf902aaf90240a060be35f309fcb64e6d39dc63afe46d7f2b618c3d365c6810cd034d17163ff270a01dcc4de8dec75d7aab85b567b6ccd41ad312451b948a7413f0a142fd40d49347942adc25665018aa1fe0e6bc666dac8fc2697ff9baa0348e3ee9738acacf857ec0096c8fbe4efce7db7d627b54f6fa36b8271730b225a02543e02a82d0faa3409b6efe978e598919808396f0d4d31223c8f16b2914bbdda06109c57d8983f520f4b510024a1760aff8d920bb293bbc00c30abdac956b3b2fb90100000000000000000000000000000000000000000000000000000000000000000000000000000000000000000000000000000000000000000000000000000000000000000000000000000000000000000000000000000000000000000000000000000000000000000000000000000000000000000000000000000000000000000000000000000000000000000000000000000000000000000000000000000000000000000000000000000000000000000000000000000000000000000000000000000000000000000000000000000000000000000000000000000000000000000000000000000000000000000000000000000000000000000000000000000000008001887fffffffffffffff84010000008203e800a000000000000000000000000000000000000000000000000000000000000200008800000000000000000aa056e81f171bcc55a6ff8345e692c0f86e5b48e01b996cadc001622fb5e363b4218080a00000000000000000000000000000000000000000000000000000000000000000f863f861800a840100000094cd12496ab57bc9c6333055379d2d35d12327c7ce018025a0ba65ec7e3a9e51dd77f39637b17a9232b37bb2217fd5ae1d99a268416574b7bfa0700fd1cdf54b7ded572b56e466acb9c2204343a114c9afe2b9f3bc8f538104ebc0c0",
                "blocknumber": "1"
            }
        ],
        "sealEngine": "NoProof",
        "_info": {
            "hash": "0x881e228de89cdc19f647d46ebbb73482653530de78e550ecf88ea65449980c5e",
            "fixture-format": "blockchain_test",
            "comment": "`execution-specs` generated test",
            "filling-transition-tool": "2.19.0",
            "description": "Test_static_call_bounds.",
            "url": "https://github.com/ethereum/execution-specs/blob/tests-snobal-devnet-5@v8037.0.0/tests/ported_static/stMemoryStressTest/test_static_call_bounds.py#L25",
            "metadata": {
                "opcode_count": {}
            }
        }
    }
}