{
    "tests/ported_static/stMemoryStressTest/test_static_call_bounds.py::test_static_call_bounds[fork_Cancun-blockchain_test_from_state_test--g0]": {
        "network": "Cancun",
        "genesisBlockHeader": {
            "parentHash": "0x0000000000000000000000000000000000000000000000000000000000000000",
            "uncleHash": "0x1dcc4de8dec75d7aab85b567b6ccd41ad312451b948a7413f0a142fd40d49347",
            "coinbase": "0x0000000000000000000000000000000000000000",
            "stateRoot": "0x8fde256b51c429e6475ec727176c9ac18e393c41f2a6c3739a28d21a9cf0a1b8",
            "transactionsTrie": "0x56e81f171bcc55a6ff8345e692c0f86e5b48e01b996cadc001622fb5e363b421",
            "receiptTrie": "0x56e81f171bcc55a6ff8345e692c0f86e5b48e01b996cadc001622fb5e363b421",
            "bloom": "0x00000000000000000000000000000000000000000000000000000000000000000000000000000000000000000000000000000000000000000000000000000000000000000000000000000000000000000000000000000000000000000000000000000000000000000000000000000000000000000000000000000000000000000000000000000000000000000000000000000000000000000000000000000000000000000000000000000000000000000000000000000000000000000000000000000000000000000000000000000000000000000000000000000000000000000000000000000000000000000000000000000000000000000000000000000000",
            "difficulty": "0x00",
            "number": "0x00",
            "gasLimit": "0x7fffffffffffffff",
            "gasUsed": "0x00",
            "timestamp": "0x00",
            "extraData": "0x00",
            "mixHash": "0x0000000000000000000000000000000000000000000000000000000000000000",
            "nonce": "0x0000000000000000",
            "baseFeePerGas": "0x0b",
            "withdrawalsRoot": "0x56e81f171bcc55a6ff8345e692c0f86e5b48e01b996cadc001622fb5e363b421",
            "blobGasUsed": "0x00",
            "excessBlobGas": "0x00",
            "parentBeaconBlockRoot": "0x0000000000000000000000000000000000000000000000000000000000000000",
            "hash": "0x3f98d454485d1a4bba933b7502c602ffe1502a683d97e31b8a2d1131b6b25c31"
        },
        "pre": {
            "0x000f3df6d732807ef1319fb7b8bb8522d0beac02": {
                "nonce": "0x01",
                "balance": "0x00",
                "code": "0x3373fffffffffffffffffffffffffffffffffffffffe14604d57602036146024575f5ffd5b5f35801560495762001fff810690815414603c575f5ffd5b62001fff01545f5260205ff35b5f5ffd5b62001fff42064281555f359062001fff015500",
                "storage": {}
            },
            "0x7f91c742985ac295da40f3771a1be98f99f6a357": {
                "nonce": "0x00",
                "balance": "0x00",
                "code": "0x600060006000600073cc704d60c46b9c08aab4d15281184441ac7ed35c6707fffffffffffffffa50630fffffff6000630fffffff600073cc704d60c46b9c08aab4d15281184441ac7ed35c6707fffffffffffffffa5063ffffffff600063ffffffff600073cc704d60c46b9c08aab4d15281184441ac7ed35c6707fffffffffffffffa506000630fffffff6000630fffffff73cc704d60c46b9c08aab4d15281184441ac7ed35c6707fffffffffffffffa50600063ffffffff600063ffffffff73cc704d60c46b9c08aab4d15281184441ac7ed35c6707fffffffffffffffa50600067ffffffffffffffff600067ffffffffffffffff73cc704d60c46b9c08aab4d15281184441ac7ed35c6707fffffffffffffffa5060006fffffffffffffffffffffffffffffffff60006fffffffffffffffffffffffffffffffff73cc704d60c46b9c08aab4d15281184441ac7ed35c6707fffffffffffffffa5060007fffffffffffffffffffffffffffffffffffffffffffffffffffffffffffffffff60007fffffffffffffffffffffffffffffffffffffffffffffffffffffffffffffffff73cc704d60c46b9c08aab4d15281184441ac7ed35c6707fffffffffffffffa00",
                "storage": {}
            },
            "0xcc704d60c46b9c08aab4d15281184441ac7ed35c": {
                "nonce": "0x00",
                "balance": "0x00",
                "code": "0x60005460010160005200",
                "storage": {}
            },
            "0x4d2e21bbf9a40a8303787a066285648f8013129a": {
                "nonce": "0x00",
                "balance": "0xffffffffffffffffffffffffffffffffffffffffffffffffffffff",
                "code": "0x",
                "storage": {}
            }
        },
        "postState": {
            "0x000f3df6d732807ef1319fb7b8bb8522d0beac02": {
                "nonce": "0x01",
                "balance": "0x00",
                "code": "0x3373fffffffffffffffffffffffffffffffffffffffe14604d57602036146024575f5ffd5b5f35801560495762001fff810690815414603c575f5ffd5b62001fff01545f5260205ff35b5f5ffd5b62001fff42064281555f359062001fff015500",
                "storage": {
                    "0x03e8": "0x03e8"
                }
            },
            "0x7f91c742985ac295da40f3771a1be98f99f6a357": {
                "nonce": "0x00",
                "balance": "0x00",
                "code": "0x600060006000600073cc704d60c46b9c08aab4d15281184441ac7ed35c6707fffffffffffffffa50630fffffff6000630fffffff600073cc704d60c46b9c08aab4d15281184441ac7ed35c6707fffffffffffffffa5063ffffffff600063ffffffff600073cc704d60c46b9c08aab4d15281184441ac7ed35c6707fffffffffffffffa506000630fffffff6000630fffffff73cc704d60c46b9c08aab4d15281184441ac7ed35c6707fffffffffffffffa50600063ffffffff600063ffffffff73cc704d60c46b9c08aab4d15281184441ac7ed35c6707fffffffffffffffa50600067ffffffffffffffff600067ffffffffffffffff73cc704d60c46b9c08aab4d15281184441ac7ed35c6707fffffffffffffffa5060006fffffffffffffffffffffffffffffffff60006fffffffffffffffffffffffffffffffff73cc704d60c46b9c08aab4d15281184441ac7ed35c6707fffffffffffffffa5060007fffffffffffffffffffffffffffffffffffffffffffffffffffffffffffffffff60007fffffffffffffffffffffffffffffffffffffffffffffffffffffffffffffffff73cc704d60c46b9c08aab4d15281184441ac7ed35c6707fffffffffffffffa00",
                "storage": {}
            },
            "0xcc704d60c46b9c08aab4d15281184441ac7ed35c": {
                "nonce": "0x00",
                "balance": "0x00",
                "code": "0x60005460010160005200",
                "storage": {}
            },
            "0x4d2e21bbf9a40a8303787a066285648f8013129a": {
                "nonce": "0x01",
                "balance": "0xffffffffffffffffffffffffffffffffffffffffffffffffe91c9f",
                "code": "0x",
                "storage": {}
            }
        },
        "lastblockhash": "0xccdb7a0b12451b019728e4760a6914f5eae1de1d0d15ae548afd04bedc5a29da",
        "config": {
            "network": "Cancun",
            "chainid": "0x01",
            "blobSchedule": {
                "Cancun": {
                    "target": "0x03",
                    "max": "0x06",
                    "baseFeeUpdateFraction": "0x32f0ed"
                }
            }
        },
        "genesisRLP": "0xf90240f9023aa00000000000000000000000000000000000000000000000000000000000000000a01dcc4de8dec75d7aab85b567b6ccd41ad312451b948a7413f0a142fd40d49347940000000000000000000000000000000000000000a08fde256b51c429e6475ec727176c9ac18e393c41f2a6c3739a28d21a9cf0a1b8a056e81f171bcc55a6ff8345e692c0f86e5b48e01b996cadc001622fb5e363b421a056e81f171bcc55a6ff8345e692c0f86e5b48e01b996cadc001622fb5e363b421b90100000000000000000000000000000000000000000000000000000000000000000000000000000000000000000000000000000000000000000000000000000000000000000000000000000000000000000000000000000000000000000000000000000000000000000000000000000000000000000000000000000000000000000000000000000000000000000000000000000000000000000000000000000000000000000000000000000000000000000000000000000000000000000000000000000000000000000000000000000000000000000000000000000000000000000000000000000000000000000000000000000000000000000000000000000000008080887fffffffffffffff808000a000000000000000000000000000000000000000000000000000000000000000008800000000000000000ba056e81f171bcc55a6ff8345e692c0f86e5b48e01b996cadc001622fb5e363b4218080a00000000000000000000000000000000000000000000000000000000000000000c0c0c0",
        "blocks": [
            {
                "blockHeader": {
                    "parentHash": "0x3f98d454485d1a4bba933b7502c602ffe1502a683d97e31b8a2d1131b6b25c31",
                    "uncleHash": "0x1dcc4de8dec75d7aab85b567b6ccd41ad312451b948a7413f0a142fd40d49347",
                    "coinbase": "0x2adc25665018aa1fe0e6bc666dac8fc2697ff9ba",
                    "stateRoot": "0x0115d1ef626dfd533e6985f8bf6ba745d4f1ef0c7e26e94446d78fca7e7c0439",
                    "transactionsTrie": "0xce30fdde90e0ea6b010775294eb28c40b83535f27f92c29592ea9e175ff67ec2",
                    "receiptTrie": "0xa0e10907f175886de9bd8cd4ac2c21d1db4109a3a9fecf60f54015ee102803fd",
                    "bloom": "0x00000000000000000000000000000000000000000000000000000000000000000000000000000000000000000000000000000000000000000000000000000000000000000000000000000000000000000000000000000000000000000000000000000000000000000000000000000000000000000000000000000000000000000000000000000000000000000000000000000000000000000000000000000000000000000000000000000000000000000000000000000000000000000000000000000000000000000000000000000000000000000000000000000000000000000000000000000000000000000000000000000000000000000000000000000000",
                    "difficulty": "0x00",
                    "number": "0x01",
                    "gasLimit": "0x7fffffffffffffff",
                    "gasUsed": "0x0249f0",
                    "timestamp": "0x03e8",
                    "extraData": "0x00",
                    "mixHash": "0x0000000000000000000000000000000000000000000000000000000000020000",
                    "nonce": "0x0000000000000000",
                    "baseFeePerGas": "0x0a",
                    "withdrawalsRoot": "0x56e81f171bcc55a6ff8345e692c0f86e5b48e01b996cadc001622fb5e363b421",
                    "blobGasUsed": "0x00",
                    "excessBlobGas": "0x00",
                    "parentBeaconBlockRoot": "0x0000000000000000000000000000000000000000000000000000000000000000",
                    "hash": "0xccdb7a0b12451b019728e4760a6914f5eae1de1d0d15ae548afd04bedc5a29da"
                },
                "transactions": [
                    {
                        "type": "0x00",
                        "chainId": "0x01",
                        "nonce": "0x00",
                        "gasPrice": "0x0a",
                        "gasLimit": "0x0249f0",
                        "to": "0x7f91c742985ac295da40f3771a1be98f99f6a357",
                        "value": "0x01",
                        "data": "0x",
                        "v": "0x26",
                        "r": "0xcee6135947cdda6ad653cad29c656b558d5ca4e10da7bb04ecb4a1f461e02fd0",
                        "s": "0x01d3e5e3b1cf3bfd743b0351c85a580476f83164dda2a4214b933c6fd1bd54d4",
                        "sender": "0x4d2e21bbf9a40a8303787a066285648f8013129a"
                    }
                ],
                "uncleHeaders": [],
                "withdrawals": [],
                "receipts": [
                    {
                        "transactionHash": "0x78392e61234fb7f09b8cca276a7173888b550472eff8e891cb00c6d46ee6cbf4",
                        "type": "0x00",
                        "cumulativeGasUsed": "0x0249f0",
                        "bloom": "0x00000000000000000000000000000000000000000000000000000000000000000000000000000000000000000000000000000000000000000000000000000000000000000000000000000000000000000000000000000000000000000000000000000000000000000000000000000000000000000000000000000000000000000000000000000000000000000000000000000000000000000000000000000000000000000000000000000000000000000000000000000000000000000000000000000000000000000000000000000000000000000000000000000000000000000000000000000000000000000000000000000000000000000000000000000000",
                        "logs": [],
                        "status": false,
                        "rlp": "0xf9010980830249f0b9010000000000000000000000000000000000000000000000000000000000000000000000000000000000000000000000000000000000000000000000000000000000000000000000000000000000000000000000000000000000000000000000000000000000000000000000000000000000000000000000000000000000000000000000000000000000000000000000000000000000000000000000000000000000000000000000000000000000000000000000000000000000000000000000000000000000000000000000000000000000000000000000000000000000000000000000000000000000000000000000000000000000000000000000000000000000c0"
                    }
                ],
                "rlp": "0xf902a8f9023fa03f98d454485d1a4bba933b7502c602ffe1502a683d97e31b8a2d1131b6b25c31a01dcc4de8dec75d7aab85b567b6ccd41ad312451b948a7413f0a142fd40d49347942adc25665018aa1fe0e6bc666dac8fc2697ff9baa00115d1ef626dfd533e6985f8bf6ba745d4f1ef0c7e26e94446d78fca7e7c0439a0ce30fdde90e0ea6b010775294eb28c40b83535f27f92c29592ea9e175ff67ec2a0a0e10907f175886de9bd8cd4ac2c21d1db4109a3a9fecf60f54015ee102803fdb90100000000000000000000000000000000000000000000000000000000000000000000000000000000000000000000000000000000000000000000000000000000000000000000000000000000000000000000000000000000000000000000000000000000000000000000000000000000000000000000000000000000000000000000000000000000000000000000000000000000000000000000000000000000000000000000000000000000000000000000000000000000000000000000000000000000000000000000000000000000000000000000000000000000000000000000000000000000000000000000000000000000000000000000000000000000008001887fffffffffffffff830249f08203e800a000000000000000000000000000000000000000000000000000000000000200008800000000000000000aa056e81f171bcc55a6ff8345e692c0f86e5b48e01b996cadc001622fb5e363b4218080a00000000000000000000000000000000000000000000000000000000000000000f862f860800a830249f0947f91c742985ac295da40f3771a1be98f99f6a357018026a0cee6135947cdda6ad653cad29c656b558d5ca4e10da7bb04ecb4a1f461e02fd0a001d3e5e3b1cf3bfd743b0351c85a580476f83164dda2a4214b933c6fd1bd54d4c0c0",
                "blocknumber": "1"
            }
        ],
        "sealEngine": "NoProof",
        "_info": {
            "hash": "0x8944684930b0a1afe495c7bb7f0c2a2e49a7eac3e2fc430dd7fbaaecad49155c",
            "fixture-format": "blockchain_test",
            "comment": "`execution-specs` generated test",
            "filling-transition-tool": "2.19.0",
            "description": "Test_static_call_bounds.",
            "url": "https://github.com/ethereum/execution-specs/blob/tests-bal@v5.6.1/tests/ported_static/stMemoryStressTest/test_static_call_bounds.py#L26",
            "metadata": {
                "opcode_count": {}
            }
        }
    },
    "tests/ported_static/stMemoryStressTest/test_static_call_bounds.py::test_static_call_bounds[fork_Cancun-blockchain_test_from_state_test--g1]": {
        "network": "Cancun",
        "genesisBlockHeader": {
            "parentHash": "0x0000000000000000000000000000000000000000000000000000000000000000",
            "uncleHash": "0x1dcc4de8dec75d7aab85b567b6ccd41ad312451b948a7413f0a142fd40d49347",
            "coinbase": "0x0000000000000000000000000000000000000000",
            "stateRoot": "0x8fde256b51c429e6475ec727176c9ac18e393c41f2a6c3739a28d21a9cf0a1b8",
            "transactionsTrie": "0x56e81f171bcc55a6ff8345e692c0f86e5b48e01b996cadc001622fb5e363b421",
            "receiptTrie": "0x56e81f171bcc55a6ff8345e692c0f86e5b48e01b996cadc001622fb5e363b421",
            "bloom": "0x00000000000000000000000000000000000000000000000000000000000000000000000000000000000000000000000000000000000000000000000000000000000000000000000000000000000000000000000000000000000000000000000000000000000000000000000000000000000000000000000000000000000000000000000000000000000000000000000000000000000000000000000000000000000000000000000000000000000000000000000000000000000000000000000000000000000000000000000000000000000000000000000000000000000000000000000000000000000000000000000000000000000000000000000000000000",
            "difficulty": "0x00",
            "number": "0x00",
            "gasLimit": "0x7fffffffffffffff",
            "gasUsed": "0x00",
            "timestamp": "0x00",
            "extraData": "0x00",
            "mixHash": "0x0000000000000000000000000000000000000000000000000000000000000000",
            "nonce": "0x0000000000000000",
            "baseFeePerGas": "0x0b",
            "withdrawalsRoot": "0x56e81f171bcc55a6ff8345e692c0f86e5b48e01b996cadc001622fb5e363b421",
            "blobGasUsed": "0x00",
            "excessBlobGas": "0x00",
            "parentBeaconBlockRoot": "0x0000000000000000000000000000000000000000000000000000000000000000",
            "hash": "0x3f98d454485d1a4bba933b7502c602ffe1502a683d97e31b8a2d1131b6b25c31"
        },
        "pre": {
            "0x000f3df6d732807ef1319fb7b8bb8522d0beac02": {
                "nonce": "0x01",
                "balance": "0x00",
                "code": "0x3373fffffffffffffffffffffffffffffffffffffffe14604d57602036146024575f5ffd5b5f35801560495762001fff810690815414603c575f5ffd5b62001fff01545f5260205ff35b5f5ffd5b62001fff42064281555f359062001fff015500",
                "storage": {}
            },
            "0x7f91c742985ac295da40f3771a1be98f99f6a357": {
                "nonce": "0x00",
                "balance": "0x00",
                "code": "0x600060006000600073cc704d60c46b9c08aab4d15281184441ac7ed35c6707fffffffffffffffa50630fffffff6000630fffffff600073cc704d60c46b9c08aab4d15281184441ac7ed35c6707fffffffffffffffa5063ffffffff600063ffffffff600073cc704d60c46b9c08aab4d15281184441ac7ed35c6707fffffffffffffffa506000630fffffff6000630fffffff73cc704d60c46b9c08aab4d15281184441ac7ed35c6707fffffffffffffffa50600063ffffffff600063ffffffff73cc704d60c46b9c08aab4d15281184441ac7ed35c6707fffffffffffffffa50600067ffffffffffffffff600067ffffffffffffffff73cc704d60c46b9c08aab4d15281184441ac7ed35c6707fffffffffffffffa5060006fffffffffffffffffffffffffffffffff60006fffffffffffffffffffffffffffffffff73cc704d60c46b9c08aab4d15281184441ac7ed35c6707fffffffffffffffa5060007fffffffffffffffffffffffffffffffffffffffffffffffffffffffffffffffff60007fffffffffffffffffffffffffffffffffffffffffffffffffffffffffffffffff73cc704d60c46b9c08aab4d15281184441ac7ed35c6707fffffffffffffffa00",
                "storage": {}
            },
            "0xcc704d60c46b9c08aab4d15281184441ac7ed35c": {
                "nonce": "0x00",
                "balance": "0x00",
                "code": "0x60005460010160005200",
                "storage": {}
            },
            "0x4d2e21bbf9a40a8303787a066285648f8013129a": {
                "nonce": "0x00",
                "balance": "0xffffffffffffffffffffffffffffffffffffffffffffffffffffff",
                "code": "0x",
                "storage": {}
            }
        },
        "postState": {
            "0x000f3df6d732807ef1319fb7b8bb8522d0beac02": {
                "nonce": "0x01",
                "balance": "0x00",
                "code": "0x3373fffffffffffffffffffffffffffffffffffffffe14604d57602036146024575f5ffd5b5f35801560495762001fff810690815414603c575f5ffd5b62001fff01545f5260205ff35b5f5ffd5b62001fff42064281555f359062001fff015500",
                "storage": {
                    "0x03e8": "0x03e8"
                }
            },
            "0x7f91c742985ac295da40f3771a1be98f99f6a357": {
                "nonce": "0x00",
                "balance": "0x00",
                "code": "0x600060006000600073cc704d60c46b9c08aab4d15281184441ac7ed35c6707fffffffffffffffa50630fffffff6000630fffffff600073cc704d60c46b9c08aab4d15281184441ac7ed35c6707fffffffffffffffa5063ffffffff600063ffffffff600073cc704d60c46b9c08aab4d15281184441ac7ed35c6707fffffffffffffffa506000630fffffff6000630fffffff73cc704d60c46b9c08aab4d15281184441ac7ed35c6707fffffffffffffffa50600063ffffffff600063ffffffff73cc704d60c46b9c08aab4d15281184441ac7ed35c6707fffffffffffffffa50600067ffffffffffffffff600067ffffffffffffffff73cc704d60c46b9c08aab4d15281184441ac7ed35c6707fffffffffffffffa5060006fffffffffffffffffffffffffffffffff60006fffffffffffffffffffffffffffffffff73cc704d60c46b9c08aab4d15281184441ac7ed35c6707fffffffffffffffa5060007fffffffffffffffffffffffffffffffffffffffffffffffffffffffffffffffff60007fffffffffffffffffffffffffffffffffffffffffffffffffffffffffffffffff73cc704d60c46b9c08aab4d15281184441ac7ed35c6707fffffffffffffffa00",
                "storage": {}
            },
            "0xcc704d60c46b9c08aab4d15281184441ac7ed35c": {
                "nonce": "0x00",
                "balance": "0x00",
                "code": "0x60005460010160005200",
                "storage": {}
            },
            "0x4d2e21bbf9a40a8303787a066285648f8013129a": {
                "nonce": "0x01",
                "balance": "0xfffffffffffffffffffffffffffffffffffffffffffffff5ffffff",
                "code": "0x",
                "storage": {}
            }
        },
        "lastblockhash": "0x848c42db79dbd71129cdc5082a44e8beac54e35d5954e8a5b28f3d3da636987c",
        "config": {
            "network": "Cancun",
            "chainid": "0x01",
            "blobSchedule": {
                "Cancun": {
                    "target": "0x03",
                    "max": "0x06",
                    "baseFeeUpdateFraction": "0x32f0ed"
                }
            }
        },
        "genesisRLP": "0xf90240f9023aa00000000000000000000000000000000000000000000000000000000000000000a01dcc4de8dec75d7aab85b567b6ccd41ad312451b948a7413f0a142fd40d49347940000000000000000000000000000000000000000a08fde256b51c429e6475ec727176c9ac18e393c41f2a6c3739a28d21a9cf0a1b8a056e81f171bcc55a6ff8345e692c0f86e5b48e01b996cadc001622fb5e363b421a056e81f171bcc55a6ff8345e692c0f86e5b48e01b996cadc001622fb5e363b421b90100000000000000000000000000000000000000000000000000000000000000000000000000000000000000000000000000000000000000000000000000000000000000000000000000000000000000000000000000000000000000000000000000000000000000000000000000000000000000000000000000000000000000000000000000000000000000000000000000000000000000000000000000000000000000000000000000000000000000000000000000000000000000000000000000000000000000000000000000000000000000000000000000000000000000000000000000000000000000000000000000000000000000000000000000000000008080887fffffffffffffff808000a000000000000000000000000000000000000000000000000000000000000000008800000000000000000ba056e81f171bcc55a6ff8345e692c0f86e5b48e01b996cadc001622fb5e363b4218080a00000000000000000000000000000000000000000000000000000000000000000c0c0c0",
        "blocks": [
            {
                "blockHeader": {
                    "parentHash": "0x3f98d454485d1a4bba933b7502c602ffe1502a683d97e31b8a2d1131b6b25c31",
                    "uncleHash": "0x1dcc4de8dec75d7aab85b567b6ccd41ad312451b948a7413f0a142fd40d49347",
                    "coinbase": "0x2adc25665018aa1fe0e6bc666dac8fc2697ff9ba",
                    "stateRoot": "0x2bbb9ae46e10a17438ecf45cbcc3c00d34ef611b771e7f11a688670f30bd7bfc",
                    "transactionsTrie": "0x333626687b299fe453fc4044981d52ffbdc52911b94f604200252148c66c3cb8",
                    "receiptTrie": "0x6109c57d8983f520f4b510024a1760aff8d920bb293bbc00c30abdac956b3b2f",
                    "bloom": "0x00000000000000000000000000000000000000000000000000000000000000000000000000000000000000000000000000000000000000000000000000000000000000000000000000000000000000000000000000000000000000000000000000000000000000000000000000000000000000000000000000000000000000000000000000000000000000000000000000000000000000000000000000000000000000000000000000000000000000000000000000000000000000000000000000000000000000000000000000000000000000000000000000000000000000000000000000000000000000000000000000000000000000000000000000000000",
                    "difficulty": "0x00",
                    "number": "0x01",
                    "gasLimit": "0x7fffffffffffffff",
                    "gasUsed": "0x01000000",
                    "timestamp": "0x03e8",
                    "extraData": "0x00",
                    "mixHash": "0x0000000000000000000000000000000000000000000000000000000000020000",
                    "nonce": "0x0000000000000000",
                    "baseFeePerGas": "0x0a",
                    "withdrawalsRoot": "0x56e81f171bcc55a6ff8345e692c0f86e5b48e01b996cadc001622fb5e363b421",
                    "blobGasUsed": "0x00",
                    "excessBlobGas": "0x00",
                    "parentBeaconBlockRoot": "0x0000000000000000000000000000000000000000000000000000000000000000",
                    "hash": "0x848c42db79dbd71129cdc5082a44e8beac54e35d5954e8a5b28f3d3da636987c"
                },
                "transactions": [
                    {
                        "type": "0x00",
                        "chainId": "0x01",
                        "nonce": "0x00",
                        "gasPrice": "0x0a",
                        "gasLimit": "0x01000000",
                        "to": "0x7f91c742985ac295da40f3771a1be98f99f6a357",
                        "value": "0x01",
                        "data": "0x",
                        "v": "0x26",
                        "r": "0x42c1fc4341f76a560fa9e4d78d2d517efe7bebb4df47a7efc72449232be7e58c",
                        "s": "0x6aa844fa7d1cf1cf004c04bffbf48d0016e94cb7167238f11a6dc8b1e2d85b1d",
                        "sender": "0x4d2e21bbf9a40a8303787a066285648f8013129a"
                    }
                ],
                "uncleHeaders": [],
                "withdrawals": [],
                "receipts": [
                    {
                        "transactionHash": "0xca96deea18e045611e1f3440119bce42d9f2b89770e144043266d64a6784f5bf",
                        "type": "0x00",
                        "cumulativeGasUsed": "0x01000000",
                        "bloom": "0x00000000000000000000000000000000000000000000000000000000000000000000000000000000000000000000000000000000000000000000000000000000000000000000000000000000000000000000000000000000000000000000000000000000000000000000000000000000000000000000000000000000000000000000000000000000000000000000000000000000000000000000000000000000000000000000000000000000000000000000000000000000000000000000000000000000000000000000000000000000000000000000000000000000000000000000000000000000000000000000000000000000000000000000000000000000",
                        "logs": [],
                        "status": false,
                        "rlp": "0xf9010a808401000000b9010000000000000000000000000000000000000000000000000000000000000000000000000000000000000000000000000000000000000000000000000000000000000000000000000000000000000000000000000000000000000000000000000000000000000000000000000000000000000000000000000000000000000000000000000000000000000000000000000000000000000000000000000000000000000000000000000000000000000000000000000000000000000000000000000000000000000000000000000000000000000000000000000000000000000000000000000000000000000000000000000000000000000000000000000000000000c0"
                    }
                ],
                "rlp": "0xf902aaf90240a03f98d454485d1a4bba933b7502c602ffe1502a683d97e31b8a2d1131b6b25c31a01dcc4de8dec75d7aab85b567b6ccd41ad312451b948a7413f0a142fd40d49347942adc25665018aa1fe0e6bc666dac8fc2697ff9baa02bbb9ae46e10a17438ecf45cbcc3c00d34ef611b771e7f11a688670f30bd7bfca0333626687b299fe453fc4044981d52ffbdc52911b94f604200252148c66c3cb8a06109c57d8983f520f4b510024a1760aff8d920bb293bbc00c30abdac956b3b2fb90100000000000000000000000000000000000000000000000000000000000000000000000000000000000000000000000000000000000000000000000000000000000000000000000000000000000000000000000000000000000000000000000000000000000000000000000000000000000000000000000000000000000000000000000000000000000000000000000000000000000000000000000000000000000000000000000000000000000000000000000000000000000000000000000000000000000000000000000000000000000000000000000000000000000000000000000000000000000000000000000000000000000000000000000000000000008001887fffffffffffffff84010000008203e800a000000000000000000000000000000000000000000000000000000000000200008800000000000000000aa056e81f171bcc55a6ff8345e692c0f86e5b48e01b996cadc001622fb5e363b4218080a00000000000000000000000000000000000000000000000000000000000000000f863f861800a8401000000947f91c742985ac295da40f3771a1be98f99f6a357018026a042c1fc4341f76a560fa9e4d78d2d517efe7bebb4df47a7efc72449232be7e58ca06aa844fa7d1cf1cf004c04bffbf48d0016e94cb7167238f11a6dc8b1e2d85b1dc0c0",
                "blocknumber": "1"
            }
        ],
        "sealEngine": "NoProof",
        "_info": {
            "hash": "0x130b17770f139bd6de05ad674956002dfc0eff157be0ad16a65301d4fbf703d4",
            "fixture-format": "blockchain_test",
            "comment": "`execution-specs` generated test",
            "filling-transition-tool": "2.19.0",
            "description": "Test_static_call_bounds.",
            "url": "https://github.com/ethereum/execution-specs/blob/tests-bal@v5.6.1/tests/ported_static/stMemoryStressTest/test_static_call_bounds.py#L26",
            "metadata": {
                "opcode_count": {}
            }
        }
    }
}