{
    "tests/frontier/validation/test_transaction.py::test_tx_nonce[fork_Homestead-blockchain_test-nonce_diff_-1-expected_exception_TransactionException.NONCE_MISMATCH_TOO_LOW]": {
        "network": "Homestead",
        "genesisBlockHeader": {
            "parentHash": "0x0000000000000000000000000000000000000000000000000000000000000000",
            "uncleHash": "0x1dcc4de8dec75d7aab85b567b6ccd41ad312451b948a7413f0a142fd40d49347",
            "coinbase": "0x0000000000000000000000000000000000000000",
            "stateRoot": "0x1ccd8b04ab4a530236b8293964fe6c6aaa5e8a252c3751d285476c52cdc8f1e7",
            "transactionsTrie": "0x56e81f171bcc55a6ff8345e692c0f86e5b48e01b996cadc001622fb5e363b421",
            "receiptTrie": "0x56e81f171bcc55a6ff8345e692c0f86e5b48e01b996cadc001622fb5e363b421",
            "bloom": "0x00000000000000000000000000000000000000000000000000000000000000000000000000000000000000000000000000000000000000000000000000000000000000000000000000000000000000000000000000000000000000000000000000000000000000000000000000000000000000000000000000000000000000000000000000000000000000000000000000000000000000000000000000000000000000000000000000000000000000000000000000000000000000000000000000000000000000000000000000000000000000000000000000000000000000000000000000000000000000000000000000000000000000000000000000000000",
            "difficulty": "0x020000",
            "number": "0x00",
            "gasLimit": "0x07270e00",
            "gasUsed": "0x00",
            "timestamp": "0x00",
            "extraData": "0x00",
            "mixHash": "0x0000000000000000000000000000000000000000000000000000000000000000",
            "nonce": "0x0000000000000000",
            "hash": "0xb62d0f1f749de62c8e25edee92ebf570ac2ed95bb88ba7cc748aab0b7b6b859b"
        },
        "pre": {
            "0xa1618c03e24d5278a6ae7222b1a99d4f46ab0bad": {
                "nonce": "0x05",
                "balance": "0x3635c9adc5dea00000",
                "code": "0x",
                "storage": {}
            },
            "0x1ad9bc24818784172ff393bb6f89f094d4d2ca29": {
                "nonce": "0x00",
                "balance": "0x3635c9adc5dea00000",
                "code": "0x",
                "storage": {}
            }
        },
        "postState": {
            "0xa1618c03e24d5278a6ae7222b1a99d4f46ab0bad": {
                "nonce": "0x05",
                "balance": "0x3635c9adc5dea00000",
                "code": "0x",
                "storage": {}
            },
            "0x1ad9bc24818784172ff393bb6f89f094d4d2ca29": {
                "nonce": "0x00",
                "balance": "0x3635c9adc5dea00000",
                "code": "0x",
                "storage": {}
            }
        },
        "lastblockhash": "0xb62d0f1f749de62c8e25edee92ebf570ac2ed95bb88ba7cc748aab0b7b6b859b",
        "config": {
            "network": "Homestead",
            "chainid": "0x01"
        },
        "genesisRLP": "0xf901f9f901f4a00000000000000000000000000000000000000000000000000000000000000000a01dcc4de8dec75d7aab85b567b6ccd41ad312451b948a7413f0a142fd40d49347940000000000000000000000000000000000000000a01ccd8b04ab4a530236b8293964fe6c6aaa5e8a252c3751d285476c52cdc8f1e7a056e81f171bcc55a6ff8345e692c0f86e5b48e01b996cadc001622fb5e363b421a056e81f171bcc55a6ff8345e692c0f86e5b48e01b996cadc001622fb5e363b421b901000000000000000000000000000000000000000000000000000000000000000000000000000000000000000000000000000000000000000000000000000000000000000000000000000000000000000000000000000000000000000000000000000000000000000000000000000000000000000000000000000000000000000000000000000000000000000000000000000000000000000000000000000000000000000000000000000000000000000000000000000000000000000000000000000000000000000000000000000000000000000000000000000000000000000000000000000000000000000000000000000000000000000000000000000000000083020000808407270e00808000a00000000000000000000000000000000000000000000000000000000000000000880000000000000000c0c0",
        "blocks": [
            {
                "rlp": "0xf9025bf901f4a0b62d0f1f749de62c8e25edee92ebf570ac2ed95bb88ba7cc748aab0b7b6b859ba01dcc4de8dec75d7aab85b567b6ccd41ad312451b948a7413f0a142fd40d49347942adc25665018aa1fe0e6bc666dac8fc2697ff9baa08d18950b8333d5d9bb38fe91fb3f9b1fea1b30e819cee98a5582e8168cb0a8e7a08da9d3ae3e8c093b8a568034402314078f35f22b4e2f666813403d9fb3b2c4eba056e81f171bcc55a6ff8345e692c0f86e5b48e01b996cadc001622fb5e363b421b901000000000000000000000000000000000000000000000000000000000000000000000000000000000000000000000000000000000000000000000000000000000000000000000000000000000000000000000000000000000000000000000000000000000000000000000000000000000000000000000000000000000000000000000000000000000000000000000000000000000000000000000000000000000000000000000000000000000000000000000000000000000000000000000000000000000000000000000000000000000000000000000000000000000000000000000000000000000000000000000000000000000000000000000000000000000083020000018407270e00800c80a00000000000000000000000000000000000000000000000000000000000000000880000000000000000f861f85f040a825208941ad9bc24818784172ff393bb6f89f094d4d2ca2980801ca085c60729814d622e82bc60b2877a245cd16a01d70a8eb080496789970e2d563aa049c5acaab299992b5cde9539ed5af379f5d893bbaacb2c0eb27b127c3487d364c0",
                "expectException": "TransactionException.NONCE_MISMATCH_TOO_LOW",
                "rlp_decoded": {
                    "blockHeader": {
                        "parentHash": "0xb62d0f1f749de62c8e25edee92ebf570ac2ed95bb88ba7cc748aab0b7b6b859b",
                        "uncleHash": "0x1dcc4de8dec75d7aab85b567b6ccd41ad312451b948a7413f0a142fd40d49347",
                        "coinbase": "0x2adc25665018aa1fe0e6bc666dac8fc2697ff9ba",
                        "stateRoot": "0x8d18950b8333d5d9bb38fe91fb3f9b1fea1b30e819cee98a5582e8168cb0a8e7",
                        "transactionsTrie": "0x8da9d3ae3e8c093b8a568034402314078f35f22b4e2f666813403d9fb3b2c4eb",
                        "receiptTrie": "0x56e81f171bcc55a6ff8345e692c0f86e5b48e01b996cadc001622fb5e363b421",
                        "bloom": "0x00000000000000000000000000000000000000000000000000000000000000000000000000000000000000000000000000000000000000000000000000000000000000000000000000000000000000000000000000000000000000000000000000000000000000000000000000000000000000000000000000000000000000000000000000000000000000000000000000000000000000000000000000000000000000000000000000000000000000000000000000000000000000000000000000000000000000000000000000000000000000000000000000000000000000000000000000000000000000000000000000000000000000000000000000000000",
                        "difficulty": "0x020000",
                        "number": "0x01",
                        "gasLimit": "0x07270e00",
                        "gasUsed": "0x00",
                        "timestamp": "0x0c",
                        "extraData": "0x",
                        "mixHash": "0x0000000000000000000000000000000000000000000000000000000000000000",
                        "nonce": "0x0000000000000000",
                        "hash": "0xd9e46692ec49e783e3b94e249f2dda38a2c166ae23e1d3da3d25094e689467a1"
                    },
                    "transactions": [
                        {
                            "type": "0x00",
                            "chainId": "0x01",
                            "nonce": "0x04",
                            "gasPrice": "0x0a",
                            "gasLimit": "0x5208",
                            "to": "0x1ad9bc24818784172ff393bb6f89f094d4d2ca29",
                            "value": "0x00",
                            "data": "0x",
                            "v": "0x1c",
                            "r": "0x85c60729814d622e82bc60b2877a245cd16a01d70a8eb080496789970e2d563a",
                            "s": "0x49c5acaab299992b5cde9539ed5af379f5d893bbaacb2c0eb27b127c3487d364",
                            "sender": "0xa1618c03e24d5278a6ae7222b1a99d4f46ab0bad"
                        }
                    ],
                    "uncleHeaders": [],
                    "blocknumber": "1"
                }
            }
        ],
        "sealEngine": "NoProof",
        "_info": {
            "hash": "0x2c120516b627166165cd7fc09949c50b02a3b153349297f6cfe6d78c2db834e0",
            "fixture-format": "blockchain_test",
            "comment": "`execution-specs` generated test",
            "filling-transition-tool": "2.19.0",
            "description": "Tests that the tx nonce matches the account nonce.",
            "url": "https://github.com/ethereum/execution-specs/blob/tests-bal@v5.6.0/tests/frontier/validation/test_transaction.py#L52",
            "metadata": {
                "opcode_count": {}
            }
        }
    },
    "tests/frontier/validation/test_transaction.py::test_tx_nonce[fork_Homestead-blockchain_test-nonce_diff_0-expected_exception_None]": {
        "network": "Homestead",
        "genesisBlockHeader": {
            "parentHash": "0x0000000000000000000000000000000000000000000000000000000000000000",
            "uncleHash": "0x1dcc4de8dec75d7aab85b567b6ccd41ad312451b948a7413f0a142fd40d49347",
            "coinbase": "0x0000000000000000000000000000000000000000",
            "stateRoot": "0x1ccd8b04ab4a530236b8293964fe6c6aaa5e8a252c3751d285476c52cdc8f1e7",
            "transactionsTrie": "0x56e81f171bcc55a6ff8345e692c0f86e5b48e01b996cadc001622fb5e363b421",
            "receiptTrie": "0x56e81f171bcc55a6ff8345e692c0f86e5b48e01b996cadc001622fb5e363b421",
            "bloom": "0x00000000000000000000000000000000000000000000000000000000000000000000000000000000000000000000000000000000000000000000000000000000000000000000000000000000000000000000000000000000000000000000000000000000000000000000000000000000000000000000000000000000000000000000000000000000000000000000000000000000000000000000000000000000000000000000000000000000000000000000000000000000000000000000000000000000000000000000000000000000000000000000000000000000000000000000000000000000000000000000000000000000000000000000000000000000",
            "difficulty": "0x020000",
            "number": "0x00",
            "gasLimit": "0x07270e00",
            "gasUsed": "0x00",
            "timestamp": "0x00",
            "extraData": "0x00",
            "mixHash": "0x0000000000000000000000000000000000000000000000000000000000000000",
            "nonce": "0x0000000000000000",
            "hash": "0xb62d0f1f749de62c8e25edee92ebf570ac2ed95bb88ba7cc748aab0b7b6b859b"
        },
        "pre": {
            "0xa1618c03e24d5278a6ae7222b1a99d4f46ab0bad": {
                "nonce": "0x05",
                "balance": "0x3635c9adc5dea00000",
                "code": "0x",
                "storage": {}
            },
            "0x1ad9bc24818784172ff393bb6f89f094d4d2ca29": {
                "nonce": "0x00",
                "balance": "0x3635c9adc5dea00000",
                "code": "0x",
                "storage": {}
            }
        },
        "postState": {
            "0xa1618c03e24d5278a6ae7222b1a99d4f46ab0bad": {
                "nonce": "0x06",
                "balance": "0x3635c9adc5de9ccbb0",
                "code": "0x",
                "storage": {}
            },
            "0x1ad9bc24818784172ff393bb6f89f094d4d2ca29": {
                "nonce": "0x00",
                "balance": "0x3635c9adc5dea00000",
                "code": "0x",
                "storage": {}
            },
            "0x2adc25665018aa1fe0e6bc666dac8fc2697ff9ba": {
                "nonce": "0x00",
                "balance": "0x4563918244f73450",
                "code": "0x",
                "storage": {}
            }
        },
        "lastblockhash": "0x0297226a3b2220f851fd566599c258b91aa951a1bf996f8fd3ec9e014317b916",
        "config": {
            "network": "Homestead",
            "chainid": "0x01"
        },
        "genesisRLP": "0xf901f9f901f4a00000000000000000000000000000000000000000000000000000000000000000a01dcc4de8dec75d7aab85b567b6ccd41ad312451b948a7413f0a142fd40d49347940000000000000000000000000000000000000000a01ccd8b04ab4a530236b8293964fe6c6aaa5e8a252c3751d285476c52cdc8f1e7a056e81f171bcc55a6ff8345e692c0f86e5b48e01b996cadc001622fb5e363b421a056e81f171bcc55a6ff8345e692c0f86e5b48e01b996cadc001622fb5e363b421b901000000000000000000000000000000000000000000000000000000000000000000000000000000000000000000000000000000000000000000000000000000000000000000000000000000000000000000000000000000000000000000000000000000000000000000000000000000000000000000000000000000000000000000000000000000000000000000000000000000000000000000000000000000000000000000000000000000000000000000000000000000000000000000000000000000000000000000000000000000000000000000000000000000000000000000000000000000000000000000000000000000000000000000000000000000000083020000808407270e00808000a00000000000000000000000000000000000000000000000000000000000000000880000000000000000c0c0",
        "blocks": [
            {
                "blockHeader": {
                    "parentHash": "0xb62d0f1f749de62c8e25edee92ebf570ac2ed95bb88ba7cc748aab0b7b6b859b",
                    "uncleHash": "0x1dcc4de8dec75d7aab85b567b6ccd41ad312451b948a7413f0a142fd40d49347",
                    "coinbase": "0x2adc25665018aa1fe0e6bc666dac8fc2697ff9ba",
                    "stateRoot": "0x6ce545f72b78fc008633ef33a1c84947b06835a49deddb7ec5bfb6746121ac31",
                    "transactionsTrie": "0xe23c914d88c67398392a5190e476e1823f8da2e0a78949ee5db5069096179138",
                    "receiptTrie": "0x1c8aae6eff2f21ec8826c644a7304fc1ab883fab42381031bf17b86ef1c8a671",
                    "bloom": "0x00000000000000000000000000000000000000000000000000000000000000000000000000000000000000000000000000000000000000000000000000000000000000000000000000000000000000000000000000000000000000000000000000000000000000000000000000000000000000000000000000000000000000000000000000000000000000000000000000000000000000000000000000000000000000000000000000000000000000000000000000000000000000000000000000000000000000000000000000000000000000000000000000000000000000000000000000000000000000000000000000000000000000000000000000000000",
                    "difficulty": "0x020000",
                    "number": "0x01",
                    "gasLimit": "0x07270e00",
                    "gasUsed": "0x5208",
                    "timestamp": "0x0c",
                    "extraData": "0x",
                    "mixHash": "0x0000000000000000000000000000000000000000000000000000000000000000",
                    "nonce": "0x0000000000000000",
                    "hash": "0x0297226a3b2220f851fd566599c258b91aa951a1bf996f8fd3ec9e014317b916"
                },
                "transactions": [
                    {
                        "type": "0x00",
                        "chainId": "0x01",
                        "nonce": "0x05",
                        "gasPrice": "0x0a",
                        "gasLimit": "0x5208",
                        "to": "0x1ad9bc24818784172ff393bb6f89f094d4d2ca29",
                        "value": "0x00",
                        "data": "0x",
                        "v": "0x1c",
                        "r": "0xcfbce4fe407bac901885809cb2a9ed3b502213528910d9efb77d404513248ba8",
                        "s": "0x6feed17175577f826b767312320486268c61a10e185ef562e9431970973b3bed",
                        "sender": "0xa1618c03e24d5278a6ae7222b1a99d4f46ab0bad"
                    }
                ],
                "uncleHeaders": [],
                "receipts": [
                    {
                        "transactionHash": "0x6874487a1be6bb9e98c1880ee84e112f5ad90e671618afcbcf800aad7f87b935",
                        "type": "0x00",
                        "cumulativeGasUsed": "0x5208",
                        "bloom": "0x00000000000000000000000000000000000000000000000000000000000000000000000000000000000000000000000000000000000000000000000000000000000000000000000000000000000000000000000000000000000000000000000000000000000000000000000000000000000000000000000000000000000000000000000000000000000000000000000000000000000000000000000000000000000000000000000000000000000000000000000000000000000000000000000000000000000000000000000000000000000000000000000000000000000000000000000000000000000000000000000000000000000000000000000000000000",
                        "logs": [],
                        "postState": "0x2be0138488652cd25c7ca5b2a6dde0c8490d6164c8ec7d10194cade252c39b58",
                        "rlp": "0xf90128a02be0138488652cd25c7ca5b2a6dde0c8490d6164c8ec7d10194cade252c39b58825208b9010000000000000000000000000000000000000000000000000000000000000000000000000000000000000000000000000000000000000000000000000000000000000000000000000000000000000000000000000000000000000000000000000000000000000000000000000000000000000000000000000000000000000000000000000000000000000000000000000000000000000000000000000000000000000000000000000000000000000000000000000000000000000000000000000000000000000000000000000000000000000000000000000000000000000000000000000000000000000000000000000000000000000000000000000000000000c0"
                    }
                ],
                "rlp": "0xf9025df901f6a0b62d0f1f749de62c8e25edee92ebf570ac2ed95bb88ba7cc748aab0b7b6b859ba01dcc4de8dec75d7aab85b567b6ccd41ad312451b948a7413f0a142fd40d49347942adc25665018aa1fe0e6bc666dac8fc2697ff9baa06ce545f72b78fc008633ef33a1c84947b06835a49deddb7ec5bfb6746121ac31a0e23c914d88c67398392a5190e476e1823f8da2e0a78949ee5db5069096179138a01c8aae6eff2f21ec8826c644a7304fc1ab883fab42381031bf17b86ef1c8a671b901000000000000000000000000000000000000000000000000000000000000000000000000000000000000000000000000000000000000000000000000000000000000000000000000000000000000000000000000000000000000000000000000000000000000000000000000000000000000000000000000000000000000000000000000000000000000000000000000000000000000000000000000000000000000000000000000000000000000000000000000000000000000000000000000000000000000000000000000000000000000000000000000000000000000000000000000000000000000000000000000000000000000000000000000000000000083020000018407270e008252080c80a00000000000000000000000000000000000000000000000000000000000000000880000000000000000f861f85f050a825208941ad9bc24818784172ff393bb6f89f094d4d2ca2980801ca0cfbce4fe407bac901885809cb2a9ed3b502213528910d9efb77d404513248ba8a06feed17175577f826b767312320486268c61a10e185ef562e9431970973b3bedc0",
                "blocknumber": "1"
            }
        ],
        "sealEngine": "NoProof",
        "_info": {
            "hash": "0x32f6017e51650076cca18bb6e881c3b8895238c18de06cea52f9a4da1e70a86d",
            "fixture-format": "blockchain_test",
            "comment": "`execution-specs` generated test",
            "filling-transition-tool": "2.19.0",
            "description": "Tests that the tx nonce matches the account nonce.",
            "url": "https://github.com/ethereum/execution-specs/blob/tests-bal@v5.6.0/tests/frontier/validation/test_transaction.py#L52",
            "metadata": {
                "opcode_count": {}
            }
        }
    },
    "tests/frontier/validation/test_transaction.py::test_tx_nonce[fork_Homestead-blockchain_test-nonce_diff_1-expected_exception_TransactionException.NONCE_MISMATCH_TOO_HIGH]": {
        "network": "Homestead",
        "genesisBlockHeader": {
            "parentHash": "0x0000000000000000000000000000000000000000000000000000000000000000",
            "uncleHash": "0x1dcc4de8dec75d7aab85b567b6ccd41ad312451b948a7413f0a142fd40d49347",
            "coinbase": "0x0000000000000000000000000000000000000000",
            "stateRoot": "0x1ccd8b04ab4a530236b8293964fe6c6aaa5e8a252c3751d285476c52cdc8f1e7",
            "transactionsTrie": "0x56e81f171bcc55a6ff8345e692c0f86e5b48e01b996cadc001622fb5e363b421",
            "receiptTrie": "0x56e81f171bcc55a6ff8345e692c0f86e5b48e01b996cadc001622fb5e363b421",
            "bloom": "0x00000000000000000000000000000000000000000000000000000000000000000000000000000000000000000000000000000000000000000000000000000000000000000000000000000000000000000000000000000000000000000000000000000000000000000000000000000000000000000000000000000000000000000000000000000000000000000000000000000000000000000000000000000000000000000000000000000000000000000000000000000000000000000000000000000000000000000000000000000000000000000000000000000000000000000000000000000000000000000000000000000000000000000000000000000000",
            "difficulty": "0x020000",
            "number": "0x00",
            "gasLimit": "0x07270e00",
            "gasUsed": "0x00",
            "timestamp": "0x00",
            "extraData": "0x00",
            "mixHash": "0x0000000000000000000000000000000000000000000000000000000000000000",
            "nonce": "0x0000000000000000",
            "hash": "0xb62d0f1f749de62c8e25edee92ebf570ac2ed95bb88ba7cc748aab0b7b6b859b"
        },
        "pre": {
            "0xa1618c03e24d5278a6ae7222b1a99d4f46ab0bad": {
                "nonce": "0x05",
                "balance": "0x3635c9adc5dea00000",
                "code": "0x",
                "storage": {}
            },
            "0x1ad9bc24818784172ff393bb6f89f094d4d2ca29": {
                "nonce": "0x00",
                "balance": "0x3635c9adc5dea00000",
                "code": "0x",
                "storage": {}
            }
        },
        "postState": {
            "0xa1618c03e24d5278a6ae7222b1a99d4f46ab0bad": {
                "nonce": "0x05",
                "balance": "0x3635c9adc5dea00000",
                "code": "0x",
                "storage": {}
            },
            "0x1ad9bc24818784172ff393bb6f89f094d4d2ca29": {
                "nonce": "0x00",
                "balance": "0x3635c9adc5dea00000",
                "code": "0x",
                "storage": {}
            }
        },
        "lastblockhash": "0xb62d0f1f749de62c8e25edee92ebf570ac2ed95bb88ba7cc748aab0b7b6b859b",
        "config": {
            "network": "Homestead",
            "chainid": "0x01"
        },
        "genesisRLP": "0xf901f9f901f4a00000000000000000000000000000000000000000000000000000000000000000a01dcc4de8dec75d7aab85b567b6ccd41ad312451b948a7413f0a142fd40d49347940000000000000000000000000000000000000000a01ccd8b04ab4a530236b8293964fe6c6aaa5e8a252c3751d285476c52cdc8f1e7a056e81f171bcc55a6ff8345e692c0f86e5b48e01b996cadc001622fb5e363b421a056e81f171bcc55a6ff8345e692c0f86e5b48e01b996cadc001622fb5e363b421b901000000000000000000000000000000000000000000000000000000000000000000000000000000000000000000000000000000000000000000000000000000000000000000000000000000000000000000000000000000000000000000000000000000000000000000000000000000000000000000000000000000000000000000000000000000000000000000000000000000000000000000000000000000000000000000000000000000000000000000000000000000000000000000000000000000000000000000000000000000000000000000000000000000000000000000000000000000000000000000000000000000000000000000000000000000000083020000808407270e00808000a00000000000000000000000000000000000000000000000000000000000000000880000000000000000c0c0",
        "blocks": [
            {
                "rlp": "0xf9025bf901f4a0b62d0f1f749de62c8e25edee92ebf570ac2ed95bb88ba7cc748aab0b7b6b859ba01dcc4de8dec75d7aab85b567b6ccd41ad312451b948a7413f0a142fd40d49347942adc25665018aa1fe0e6bc666dac8fc2697ff9baa08d18950b8333d5d9bb38fe91fb3f9b1fea1b30e819cee98a5582e8168cb0a8e7a09cd00c7ad5c06f92cd96d5423f6253cb6d938a6969b7c9610169d007cb65d504a056e81f171bcc55a6ff8345e692c0f86e5b48e01b996cadc001622fb5e363b421b901000000000000000000000000000000000000000000000000000000000000000000000000000000000000000000000000000000000000000000000000000000000000000000000000000000000000000000000000000000000000000000000000000000000000000000000000000000000000000000000000000000000000000000000000000000000000000000000000000000000000000000000000000000000000000000000000000000000000000000000000000000000000000000000000000000000000000000000000000000000000000000000000000000000000000000000000000000000000000000000000000000000000000000000000000000000083020000018407270e00800c80a00000000000000000000000000000000000000000000000000000000000000000880000000000000000f861f85f060a825208941ad9bc24818784172ff393bb6f89f094d4d2ca2980801ba0c1e70f1630bd79821ae6153bacb5eefdb7a3d81d57a684ae4578a82312270287a012379da592c7da8dcb730c0ff6b55c18b3b12f1364a406a41e052e4054abdef7c0",
                "expectException": "TransactionException.NONCE_MISMATCH_TOO_HIGH",
                "rlp_decoded": {
                    "blockHeader": {
                        "parentHash": "0xb62d0f1f749de62c8e25edee92ebf570ac2ed95bb88ba7cc748aab0b7b6b859b",
                        "uncleHash": "0x1dcc4de8dec75d7aab85b567b6ccd41ad312451b948a7413f0a142fd40d49347",
                        "coinbase": "0x2adc25665018aa1fe0e6bc666dac8fc2697ff9ba",
                        "stateRoot": "0x8d18950b8333d5d9bb38fe91fb3f9b1fea1b30e819cee98a5582e8168cb0a8e7",
                        "transactionsTrie": "0x9cd00c7ad5c06f92cd96d5423f6253cb6d938a6969b7c9610169d007cb65d504",
                        "receiptTrie": "0x56e81f171bcc55a6ff8345e692c0f86e5b48e01b996cadc001622fb5e363b421",
                        "bloom": "0x00000000000000000000000000000000000000000000000000000000000000000000000000000000000000000000000000000000000000000000000000000000000000000000000000000000000000000000000000000000000000000000000000000000000000000000000000000000000000000000000000000000000000000000000000000000000000000000000000000000000000000000000000000000000000000000000000000000000000000000000000000000000000000000000000000000000000000000000000000000000000000000000000000000000000000000000000000000000000000000000000000000000000000000000000000000",
                        "difficulty": "0x020000",
                        "number": "0x01",
                        "gasLimit": "0x07270e00",
                        "gasUsed": "0x00",
                        "timestamp": "0x0c",
                        "extraData": "0x",
                        "mixHash": "0x0000000000000000000000000000000000000000000000000000000000000000",
                        "nonce": "0x0000000000000000",
                        "hash": "0xf2fbc5775048bebc812b5ca0f28b62f126072d1ab268b80e4b4c97c5358ff350"
                    },
                    "transactions": [
                        {
                            "type": "0x00",
                            "chainId": "0x01",
                            "nonce": "0x06",
                            "gasPrice": "0x0a",
                            "gasLimit": "0x5208",
                            "to": "0x1ad9bc24818784172ff393bb6f89f094d4d2ca29",
                            "value": "0x00",
                            "data": "0x",
                            "v": "0x1b",
                            "r": "0xc1e70f1630bd79821ae6153bacb5eefdb7a3d81d57a684ae4578a82312270287",
                            "s": "0x12379da592c7da8dcb730c0ff6b55c18b3b12f1364a406a41e052e4054abdef7",
                            "sender": "0xa1618c03e24d5278a6ae7222b1a99d4f46ab0bad"
                        }
                    ],
                    "uncleHeaders": [],
                    "blocknumber": "1"
                }
            }
        ],
        "sealEngine": "NoProof",
        "_info": {
            "hash": "0x5f570df326c1977f066ecdcfb1e9feef5439068109f5b7f1e6ba8f880aaaa362",
            "fixture-format": "blockchain_test",
            "comment": "`execution-specs` generated test",
            "filling-transition-tool": "2.19.0",
            "description": "Tests that the tx nonce matches the account nonce.",
            "url": "https://github.com/ethereum/execution-specs/blob/tests-bal@v5.6.0/tests/frontier/validation/test_transaction.py#L52",
            "metadata": {
                "opcode_count": {}
            }
        }
    }
}