{
    "tests/static/state_tests/stEIP1559/typeTwoBerlinFiller.yml::typeTwoBerlin[fork_Cancun-state_test-declaredKeyWrite]": {
        "env": {
            "currentCoinbase": "0x2adc25665018aa1fe0e6bc666dac8fc2697ff9ba",
            "currentGasLimit": "0xff112233445566",
            "currentNumber": "0x01",
            "currentTimestamp": "0x03e8",
            "currentRandom": "0x0000000000000000000000000000000000000000000000000000000000020000",
            "currentDifficulty": "0x00",
            "currentBaseFee": "0x03e8",
            "currentExcessBlobGas": "0x00"
        },
        "pre": {
            "0xa5bd67828c83d3de2f177eab20e27df6ac66f8e2": {
                "nonce": "0x01",
                "balance": "0x0de0b6b3a7640000",
                "code": "0x",
                "storage": {}
            },
            "0xe1575730c7741ab0da4df3552e1d0f77329a3c99": {
                "nonce": "0x00",
                "balance": "0x0de0b6b3a7640000",
                "code": "0x600260005500",
                "storage": {}
            }
        },
        "transaction": {
            "nonce": "0x01",
            "maxPriorityFeePerGas": "0x03e8",
            "maxFeePerGas": "0x03e8",
            "gasLimit": [
                "0x061a80"
            ],
            "to": "0xe1575730c7741ab0da4df3552e1d0f77329a3c99",
            "value": [
                "0x0186a0"
            ],
            "data": [
                "0x00"
            ],
            "accessLists": [
                []
            ],
            "sender": "0xa5bd67828c83d3de2f177eab20e27df6ac66f8e2",
            "secretKey": "0x3cc744ad0d785a77cd2be3d0e1575730c7741ab0da4df3552e1d0f77329a3c99"
        },
        "post": {
            "Cancun": [
                {
                    "hash": "0x08df33dc8bae5ea1f16f50dc5b0692dba1df4962f3e97c62265c683607250f5c",
                    "logs": "0x1dcc4de8dec75d7aab85b567b6ccd41ad312451b948a7413f0a142fd40d49347",
                    "txbytes": "0x02f86a01018203e88203e883061a8094e1575730c7741ab0da4df3552e1d0f77329a3c99830186a000c001a01806f9355569f90f7fe734b338efc9277a3133cbf47ee2b5f05c491e03fea600a02a2700bd365ad246b466b0ef592b6ae55c2f46b78c5c4c090c9f042834774967",
                    "indexes": {
                        "data": 0,
                        "gas": 0,
                        "value": 0
                    },
                    "state": {
                        "0xa5bd67828c83d3de2f177eab20e27df6ac66f8e2": {
                            "nonce": "0x02",
                            "balance": "0x0de0b6b3a4d0aaf0",
                            "code": "0x",
                            "storage": {}
                        },
                        "0xe1575730c7741ab0da4df3552e1d0f77329a3c99": {
                            "nonce": "0x00",
                            "balance": "0x0de0b6b3a76586a0",
                            "code": "0x600260005500",
                            "storage": {
                                "0x00": "0x02"
                            }
                        }
                    }
                }
            ]
        },
        "config": {
            "blobSchedule": {
                "Cancun": {
                    "target": "0x03",
                    "max": "0x06",
                    "baseFeeUpdateFraction": "0x32f0ed"
                }
            },
            "chainid": "0x01"
        },
        "_info": {
            "hash": "0xb8349baf1199d51aa89382000efffd95a283718a8410e9c03a459fdbbff8bb77",
            "comment": "`execution-spec-tests` generated test",
            "filling-transition-tool": "ethereum-spec-evm-resolver 0.0.5",
            "description": "No description available - add a docstring to the python test class or function.",
            "url": "",
            "fixture-format": "state_test",
            "reference-spec": "https://github.com/ethereum/EIPs/blob/master/",
            "reference-spec-version": "",
            "eels-resolution": {
                "git-url": "https://github.com/marioevz/execution-specs.git",
                "branch": "forks/bpo1",
                "commit": "3387e5f4aedfe99becfdc39b444d6371e25e0924"
            }
        }
    },
    "tests/static/state_tests/stEIP1559/typeTwoBerlinFiller.yml::typeTwoBerlin[fork_Osaka-state_test-declaredKeyWrite]": {
        "env": {
            "currentCoinbase": "0x2adc25665018aa1fe0e6bc666dac8fc2697ff9ba",
            "currentGasLimit": "0xff112233445566",
            "currentNumber": "0x01",
            "currentTimestamp": "0x03e8",
            "currentRandom": "0x0000000000000000000000000000000000000000000000000000000000020000",
            "currentDifficulty": "0x00",
            "currentBaseFee": "0x03e8",
            "currentExcessBlobGas": "0x00"
        },
        "pre": {
            "0xa5bd67828c83d3de2f177eab20e27df6ac66f8e2": {
                "nonce": "0x01",
                "balance": "0x0de0b6b3a7640000",
                "code": "0x",
                "storage": {}
            },
            "0xe1575730c7741ab0da4df3552e1d0f77329a3c99": {
                "nonce": "0x00",
                "balance": "0x0de0b6b3a7640000",
                "code": "0x600260005500",
                "storage": {}
            }
        },
        "transaction": {
            "nonce": "0x01",
            "maxPriorityFeePerGas": "0x03e8",
            "maxFeePerGas": "0x03e8",
            "gasLimit": [
                "0x061a80"
            ],
            "to": "0xe1575730c7741ab0da4df3552e1d0f77329a3c99",
            "value": [
                "0x0186a0"
            ],
            "data": [
                "0x00"
            ],
            "accessLists": [
                []
            ],
            "sender": "0xa5bd67828c83d3de2f177eab20e27df6ac66f8e2",
            "secretKey": "0x3cc744ad0d785a77cd2be3d0e1575730c7741ab0da4df3552e1d0f77329a3c99"
        },
        "post": {
            "Osaka": [
                {
                    "hash": "0x08df33dc8bae5ea1f16f50dc5b0692dba1df4962f3e97c62265c683607250f5c",
                    "logs": "0x1dcc4de8dec75d7aab85b567b6ccd41ad312451b948a7413f0a142fd40d49347",
                    "txbytes": "0x02f86a01018203e88203e883061a8094e1575730c7741ab0da4df3552e1d0f77329a3c99830186a000c001a01806f9355569f90f7fe734b338efc9277a3133cbf47ee2b5f05c491e03fea600a02a2700bd365ad246b466b0ef592b6ae55c2f46b78c5c4c090c9f042834774967",
                    "indexes": {
                        "data": 0,
                        "gas": 0,
                        "value": 0
                    },
                    "state": {
                        "0xa5bd67828c83d3de2f177eab20e27df6ac66f8e2": {
                            "nonce": "0x02",
                            "balance": "0x0de0b6b3a4d0aaf0",
                            "code": "0x",
                            "storage": {}
                        },
                        "0xe1575730c7741ab0da4df3552e1d0f77329a3c99": {
                            "nonce": "0x00",
                            "balance": "0x0de0b6b3a76586a0",
                            "code": "0x600260005500",
                            "storage": {
                                "0x00": "0x02"
                            }
                        }
                    }
                }
            ]
        },
        "config": {
            "blobSchedule": {
                "Cancun": {
                    "target": "0x03",
                    "max": "0x06",
                    "baseFeeUpdateFraction": "0x32f0ed"
                },
                "Prague": {
                    "target": "0x06",
                    "max": "0x09",
                    "baseFeeUpdateFraction": "0x4c6964"
                },
                "Osaka": {
                    "target": "0x06",
                    "max": "0x09",
                    "baseFeeUpdateFraction": "0x4c6964"
                }
            },
            "chainid": "0x01"
        },
        "_info": {
            "hash": "0xee718eb08ea44d7bb9436887869ebf6613f5412b2ab29a72e73d69766a12923a",
            "comment": "`execution-spec-tests` generated test",
            "filling-transition-tool": "ethereum-spec-evm-resolver 0.0.5",
            "description": "No description available - add a docstring to the python test class or function.",
            "url": "",
            "fixture-format": "state_test",
            "reference-spec": "https://github.com/ethereum/EIPs/blob/master/",
            "reference-spec-version": "",
            "eels-resolution": {
                "git-url": "https://github.com/marioevz/execution-specs.git",
                "branch": "forks/bpo1",
                "commit": "3387e5f4aedfe99becfdc39b444d6371e25e0924"
            }
        }
    },
    "tests/static/state_tests/stEIP1559/typeTwoBerlinFiller.yml::typeTwoBerlin[fork_Prague-state_test-declaredKeyWrite]": {
        "env": {
            "currentCoinbase": "0x2adc25665018aa1fe0e6bc666dac8fc2697ff9ba",
            "currentGasLimit": "0xff112233445566",
            "currentNumber": "0x01",
            "currentTimestamp": "0x03e8",
            "currentRandom": "0x0000000000000000000000000000000000000000000000000000000000020000",
            "currentDifficulty": "0x00",
            "currentBaseFee": "0x03e8",
            "currentExcessBlobGas": "0x00"
        },
        "pre": {
            "0xa5bd67828c83d3de2f177eab20e27df6ac66f8e2": {
                "nonce": "0x01",
                "balance": "0x0de0b6b3a7640000",
                "code": "0x",
                "storage": {}
            },
            "0xe1575730c7741ab0da4df3552e1d0f77329a3c99": {
                "nonce": "0x00",
                "balance": "0x0de0b6b3a7640000",
                "code": "0x600260005500",
                "storage": {}
            }
        },
        "transaction": {
            "nonce": "0x01",
            "maxPriorityFeePerGas": "0x03e8",
            "maxFeePerGas": "0x03e8",
            "gasLimit": [
                "0x061a80"
            ],
            "to": "0xe1575730c7741ab0da4df3552e1d0f77329a3c99",
            "value": [
                "0x0186a0"
            ],
            "data": [
                "0x00"
            ],
            "accessLists": [
                []
            ],
            "sender": "0xa5bd67828c83d3de2f177eab20e27df6ac66f8e2",
            "secretKey": "0x3cc744ad0d785a77cd2be3d0e1575730c7741ab0da4df3552e1d0f77329a3c99"
        },
        "post": {
            "Prague": [
                {
                    "hash": "0x08df33dc8bae5ea1f16f50dc5b0692dba1df4962f3e97c62265c683607250f5c",
                    "logs": "0x1dcc4de8dec75d7aab85b567b6ccd41ad312451b948a7413f0a142fd40d49347",
                    "txbytes": "0x02f86a01018203e88203e883061a8094e1575730c7741ab0da4df3552e1d0f77329a3c99830186a000c001a01806f9355569f90f7fe734b338efc9277a3133cbf47ee2b5f05c491e03fea600a02a2700bd365ad246b466b0ef592b6ae55c2f46b78c5c4c090c9f042834774967",
                    "indexes": {
                        "data": 0,
                        "gas": 0,
                        "value": 0
                    },
                    "state": {
                        "0xa5bd67828c83d3de2f177eab20e27df6ac66f8e2": {
                            "nonce": "0x02",
                            "balance": "0x0de0b6b3a4d0aaf0",
                            "code": "0x",
                            "storage": {}
                        },
                        "0xe1575730c7741ab0da4df3552e1d0f77329a3c99": {
                            "nonce": "0x00",
                            "balance": "0x0de0b6b3a76586a0",
                            "code": "0x600260005500",
                            "storage": {
                                "0x00": "0x02"
                            }
                        }
                    }
                }
            ]
        },
        "config": {
            "blobSchedule": {
                "Cancun": {
                    "target": "0x03",
                    "max": "0x06",
                    "baseFeeUpdateFraction": "0x32f0ed"
                },
                "Prague": {
                    "target": "0x06",
                    "max": "0x09",
                    "baseFeeUpdateFraction": "0x4c6964"
                }
            },
            "chainid": "0x01"
        },
        "_info": {
            "hash": "0xfef785e4d92402a914502c5097a744f5d764e17b52fc3ba5f9e9564d8840f69c",
            "comment": "`execution-spec-tests` generated test",
            "filling-transition-tool": "ethereum-spec-evm-resolver 0.0.5",
            "description": "No description available - add a docstring to the python test class or function.",
            "url": "",
            "fixture-format": "state_test",
            "reference-spec": "https://github.com/ethereum/EIPs/blob/master/",
            "reference-spec-version": "",
            "eels-resolution": {
                "git-url": "https://github.com/marioevz/execution-specs.git",
                "branch": "forks/bpo1",
                "commit": "3387e5f4aedfe99becfdc39b444d6371e25e0924"
            }
        }
    }
}