{
    "tests/byzantium/eip196_ec_add_mul/test_gas.py::test_gas_costs[fork_Berlin-blockchain_test_from_state_test-enough_gas_False-ecadd]": {
        "network": "Berlin",
        "genesisBlockHeader": {
            "parentHash": "0x0000000000000000000000000000000000000000000000000000000000000000",
            "uncleHash": "0x1dcc4de8dec75d7aab85b567b6ccd41ad312451b948a7413f0a142fd40d49347",
            "coinbase": "0x0000000000000000000000000000000000000000",
            "stateRoot": "0xb66ecd42ddfd2f0c3c35081181947c9affb0a70d34bc02035412af2a2044f604",
            "transactionsTrie": "0x56e81f171bcc55a6ff8345e692c0f86e5b48e01b996cadc001622fb5e363b421",
            "receiptTrie": "0x56e81f171bcc55a6ff8345e692c0f86e5b48e01b996cadc001622fb5e363b421",
            "bloom": "0x00000000000000000000000000000000000000000000000000000000000000000000000000000000000000000000000000000000000000000000000000000000000000000000000000000000000000000000000000000000000000000000000000000000000000000000000000000000000000000000000000000000000000000000000000000000000000000000000000000000000000000000000000000000000000000000000000000000000000000000000000000000000000000000000000000000000000000000000000000000000000000000000000000000000000000000000000000000000000000000000000000000000000000000000000000000",
            "difficulty": "0x020000",
            "number": "0x00",
            "gasLimit": "0x07270e00",
            "gasUsed": "0x00",
            "timestamp": "0x00",
            "extraData": "0x00",
            "mixHash": "0x0000000000000000000000000000000000000000000000000000000000000000",
            "nonce": "0x0000000000000000",
            "hash": "0xb2169c5bb5edac20447a64d51fc200ee13e241fa6a2ba55c19d918b8d3c4eb2e"
        },
        "pre": {
            "0x8f86b28914f646b7d54b4830bb40103f0d3f6e56": {
                "nonce": "0x01",
                "balance": "0x00",
                "code": "0x6000600060006000600060066095f1600055",
                "storage": {
                    "0x00": "0xdeadbeef"
                }
            },
            "0x1ad9bc24818784172ff393bb6f89f094d4d2ca29": {
                "nonce": "0x00",
                "balance": "0x3635c9adc5dea00000",
                "code": "0x",
                "storage": {}
            }
        },
        "postState": {
            "0x8f86b28914f646b7d54b4830bb40103f0d3f6e56": {
                "nonce": "0x01",
                "balance": "0x00",
                "code": "0x6000600060006000600060066095f1600055",
                "storage": {}
            },
            "0x1ad9bc24818784172ff393bb6f89f094d4d2ca29": {
                "nonce": "0x01",
                "balance": "0x3635c9adc5de9dfed6",
                "code": "0x",
                "storage": {}
            },
            "0x2adc25665018aa1fe0e6bc666dac8fc2697ff9ba": {
                "nonce": "0x00",
                "balance": "0x1bc16d674eca012a",
                "code": "0x",
                "storage": {}
            }
        },
        "lastblockhash": "0x4100599cadd03520a8479d9d8054071db2c7032da1a48790e683203eb59620dc",
        "config": {
            "network": "Berlin",
            "chainid": "0x01"
        },
        "genesisRLP": "0xf901f9f901f4a00000000000000000000000000000000000000000000000000000000000000000a01dcc4de8dec75d7aab85b567b6ccd41ad312451b948a7413f0a142fd40d49347940000000000000000000000000000000000000000a0b66ecd42ddfd2f0c3c35081181947c9affb0a70d34bc02035412af2a2044f604a056e81f171bcc55a6ff8345e692c0f86e5b48e01b996cadc001622fb5e363b421a056e81f171bcc55a6ff8345e692c0f86e5b48e01b996cadc001622fb5e363b421b901000000000000000000000000000000000000000000000000000000000000000000000000000000000000000000000000000000000000000000000000000000000000000000000000000000000000000000000000000000000000000000000000000000000000000000000000000000000000000000000000000000000000000000000000000000000000000000000000000000000000000000000000000000000000000000000000000000000000000000000000000000000000000000000000000000000000000000000000000000000000000000000000000000000000000000000000000000000000000000000000000000000000000000000000000000000083020000808407270e00808000a00000000000000000000000000000000000000000000000000000000000000000880000000000000000c0c0",
        "blocks": [
            {
                "blockHeader": {
                    "parentHash": "0xb2169c5bb5edac20447a64d51fc200ee13e241fa6a2ba55c19d918b8d3c4eb2e",
                    "uncleHash": "0x1dcc4de8dec75d7aab85b567b6ccd41ad312451b948a7413f0a142fd40d49347",
                    "coinbase": "0x2adc25665018aa1fe0e6bc666dac8fc2697ff9ba",
                    "stateRoot": "0xa6b85bf01aeb982031ca0798b8c4f2a77f6459ef5a4a019ea792d949374b48d8",
                    "transactionsTrie": "0x52a6e2cb4c8daa64ec41627095cecdf800d28c7ffa2728683a1e30acd7aa99b0",
                    "receiptTrie": "0xe08cbe92607abb90e56fb3158b7049e2a9ddfc8a4de439fe719ace516781ad56",
                    "bloom": "0x00000000000000000000000000000000000000000000000000000000000000000000000000000000000000000000000000000000000000000000000000000000000000000000000000000000000000000000000000000000000000000000000000000000000000000000000000000000000000000000000000000000000000000000000000000000000000000000000000000000000000000000000000000000000000000000000000000000000000000000000000000000000000000000000000000000000000000000000000000000000000000000000000000000000000000000000000000000000000000000000000000000000000000000000000000000",
                    "difficulty": "0x020000",
                    "number": "0x01",
                    "gasLimit": "0x07270e00",
                    "gasUsed": "0x3351",
                    "timestamp": "0x03e8",
                    "extraData": "0x00",
                    "mixHash": "0x0000000000000000000000000000000000000000000000000000000000000000",
                    "nonce": "0x0000000000000000",
                    "hash": "0x4100599cadd03520a8479d9d8054071db2c7032da1a48790e683203eb59620dc"
                },
                "transactions": [
                    {
                        "type": "0x00",
                        "chainId": "0x01",
                        "nonce": "0x00",
                        "gasPrice": "0x0a",
                        "gasLimit": "0x0f4240",
                        "to": "0x8f86b28914f646b7d54b4830bb40103f0d3f6e56",
                        "value": "0x00",
                        "data": "0x",
                        "v": "0x26",
                        "r": "0xa3bb73e56e5e85ed34ac303621f0d80fb18de13878db377bb1cb86e41b215aed",
                        "s": "0x349301b358509cf8754e4b877235d24ee8cca8ad229d152f3c889aaf08a25984",
                        "sender": "0x1ad9bc24818784172ff393bb6f89f094d4d2ca29"
                    }
                ],
                "uncleHeaders": [],
                "receipts": [
                    {
                        "transactionHash": "0x007811239680413f6d1c52589581ce636485795d2691bfc6c0715db979a9c79b",
                        "type": "0x00",
                        "cumulativeGasUsed": "0x3351",
                        "bloom": "0x00000000000000000000000000000000000000000000000000000000000000000000000000000000000000000000000000000000000000000000000000000000000000000000000000000000000000000000000000000000000000000000000000000000000000000000000000000000000000000000000000000000000000000000000000000000000000000000000000000000000000000000000000000000000000000000000000000000000000000000000000000000000000000000000000000000000000000000000000000000000000000000000000000000000000000000000000000000000000000000000000000000000000000000000000000000",
                        "logs": [],
                        "status": true,
                        "rlp": "0xf9010801823351b9010000000000000000000000000000000000000000000000000000000000000000000000000000000000000000000000000000000000000000000000000000000000000000000000000000000000000000000000000000000000000000000000000000000000000000000000000000000000000000000000000000000000000000000000000000000000000000000000000000000000000000000000000000000000000000000000000000000000000000000000000000000000000000000000000000000000000000000000000000000000000000000000000000000000000000000000000000000000000000000000000000000000000000000000000000000000c0"
                    }
                ],
                "rlp": "0xf90260f901f8a0b2169c5bb5edac20447a64d51fc200ee13e241fa6a2ba55c19d918b8d3c4eb2ea01dcc4de8dec75d7aab85b567b6ccd41ad312451b948a7413f0a142fd40d49347942adc25665018aa1fe0e6bc666dac8fc2697ff9baa0a6b85bf01aeb982031ca0798b8c4f2a77f6459ef5a4a019ea792d949374b48d8a052a6e2cb4c8daa64ec41627095cecdf800d28c7ffa2728683a1e30acd7aa99b0a0e08cbe92607abb90e56fb3158b7049e2a9ddfc8a4de439fe719ace516781ad56b901000000000000000000000000000000000000000000000000000000000000000000000000000000000000000000000000000000000000000000000000000000000000000000000000000000000000000000000000000000000000000000000000000000000000000000000000000000000000000000000000000000000000000000000000000000000000000000000000000000000000000000000000000000000000000000000000000000000000000000000000000000000000000000000000000000000000000000000000000000000000000000000000000000000000000000000000000000000000000000000000000000000000000000000000000000000083020000018407270e008233518203e800a00000000000000000000000000000000000000000000000000000000000000000880000000000000000f862f860800a830f4240948f86b28914f646b7d54b4830bb40103f0d3f6e56808026a0a3bb73e56e5e85ed34ac303621f0d80fb18de13878db377bb1cb86e41b215aeda0349301b358509cf8754e4b877235d24ee8cca8ad229d152f3c889aaf08a25984c0",
                "blocknumber": "1"
            }
        ],
        "sealEngine": "NoProof",
        "_info": {
            "hash": "0xf7950678d4531c3965e2e453c2af570ae3d115e027e57a373da644e09e165ba4",
            "fixture-format": "blockchain_test",
            "comment": "`execution-specs` generated test",
            "filling-transition-tool": "2.19.0",
            "description": "Tests the constant gas behavior of `ecadd/ecmul` precompiled contracts.",
            "url": "https://github.com/ethereum/execution-specs/blob/tests-bal@v5.3.0/tests/byzantium/eip196_ec_add_mul/test_gas.py#L20",
            "opcode_count": {},
            "reference-spec": "https://github.com/ethereum/EIPs/blob/master/EIPS/eip-196.md",
            "reference-spec-version": "6538d198b1db10784ddccd6931888d7ae718de75"
        }
    },
    "tests/byzantium/eip196_ec_add_mul/test_gas.py::test_gas_costs[fork_Berlin-blockchain_test_from_state_test-enough_gas_False-ecmul]": {
        "network": "Berlin",
        "genesisBlockHeader": {
            "parentHash": "0x0000000000000000000000000000000000000000000000000000000000000000",
            "uncleHash": "0x1dcc4de8dec75d7aab85b567b6ccd41ad312451b948a7413f0a142fd40d49347",
            "coinbase": "0x0000000000000000000000000000000000000000",
            "stateRoot": "0x6271d7ebd8cc8d050a0086ef8cabfa76310ca572a60216f2eb2313dbe54c6194",
            "transactionsTrie": "0x56e81f171bcc55a6ff8345e692c0f86e5b48e01b996cadc001622fb5e363b421",
            "receiptTrie": "0x56e81f171bcc55a6ff8345e692c0f86e5b48e01b996cadc001622fb5e363b421",
            "bloom": "0x00000000000000000000000000000000000000000000000000000000000000000000000000000000000000000000000000000000000000000000000000000000000000000000000000000000000000000000000000000000000000000000000000000000000000000000000000000000000000000000000000000000000000000000000000000000000000000000000000000000000000000000000000000000000000000000000000000000000000000000000000000000000000000000000000000000000000000000000000000000000000000000000000000000000000000000000000000000000000000000000000000000000000000000000000000000",
            "difficulty": "0x020000",
            "number": "0x00",
            "gasLimit": "0x07270e00",
            "gasUsed": "0x00",
            "timestamp": "0x00",
            "extraData": "0x00",
            "mixHash": "0x0000000000000000000000000000000000000000000000000000000000000000",
            "nonce": "0x0000000000000000",
            "hash": "0xc59e99fbd18d8966c08840e5c835842e0b8e661f7965d04aa54d985832b1247d"
        },
        "pre": {
            "0x17ea8eed650ee494e37c740538809397211a9ac9": {
                "nonce": "0x01",
                "balance": "0x00",
                "code": "0x60006000600060006000600761176ff1600055",
                "storage": {
                    "0x00": "0xdeadbeef"
                }
            },
            "0x1ad9bc24818784172ff393bb6f89f094d4d2ca29": {
                "nonce": "0x00",
                "balance": "0x3635c9adc5dea00000",
                "code": "0x",
                "storage": {}
            }
        },
        "postState": {
            "0x17ea8eed650ee494e37c740538809397211a9ac9": {
                "nonce": "0x01",
                "balance": "0x00",
                "code": "0x60006000600060006000600761176ff1600055",
                "storage": {}
            },
            "0x1ad9bc24818784172ff393bb6f89f094d4d2ca29": {
                "nonce": "0x01",
                "balance": "0x3635c9adc5de9d6322",
                "code": "0x",
                "storage": {}
            },
            "0x2adc25665018aa1fe0e6bc666dac8fc2697ff9ba": {
                "nonce": "0x00",
                "balance": "0x1bc16d674eca9cde",
                "code": "0x",
                "storage": {}
            }
        },
        "lastblockhash": "0xca940587c85022b916d0913f7ee62f6adf7bd1b9fab5c3f4bb811fe993260829",
        "config": {
            "network": "Berlin",
            "chainid": "0x01"
        },
        "genesisRLP": "0xf901f9f901f4a00000000000000000000000000000000000000000000000000000000000000000a01dcc4de8dec75d7aab85b567b6ccd41ad312451b948a7413f0a142fd40d49347940000000000000000000000000000000000000000a06271d7ebd8cc8d050a0086ef8cabfa76310ca572a60216f2eb2313dbe54c6194a056e81f171bcc55a6ff8345e692c0f86e5b48e01b996cadc001622fb5e363b421a056e81f171bcc55a6ff8345e692c0f86e5b48e01b996cadc001622fb5e363b421b901000000000000000000000000000000000000000000000000000000000000000000000000000000000000000000000000000000000000000000000000000000000000000000000000000000000000000000000000000000000000000000000000000000000000000000000000000000000000000000000000000000000000000000000000000000000000000000000000000000000000000000000000000000000000000000000000000000000000000000000000000000000000000000000000000000000000000000000000000000000000000000000000000000000000000000000000000000000000000000000000000000000000000000000000000000000083020000808407270e00808000a00000000000000000000000000000000000000000000000000000000000000000880000000000000000c0c0",
        "blocks": [
            {
                "blockHeader": {
                    "parentHash": "0xc59e99fbd18d8966c08840e5c835842e0b8e661f7965d04aa54d985832b1247d",
                    "uncleHash": "0x1dcc4de8dec75d7aab85b567b6ccd41ad312451b948a7413f0a142fd40d49347",
                    "coinbase": "0x2adc25665018aa1fe0e6bc666dac8fc2697ff9ba",
                    "stateRoot": "0x11ddbc933802bc873782692e1650e958d030c46d67b10d4bc9764602ac15e84d",
                    "transactionsTrie": "0x9833d4853f7e8308e89c62346039280b0ccb6f5b2fef4f84cf6fda4534fd9ce9",
                    "receiptTrie": "0x1b65918d94c97ecaafe33c3ad9a5e2c51dc38a8e98a3b5e006c89cf94f7eae81",
                    "bloom": "0x00000000000000000000000000000000000000000000000000000000000000000000000000000000000000000000000000000000000000000000000000000000000000000000000000000000000000000000000000000000000000000000000000000000000000000000000000000000000000000000000000000000000000000000000000000000000000000000000000000000000000000000000000000000000000000000000000000000000000000000000000000000000000000000000000000000000000000000000000000000000000000000000000000000000000000000000000000000000000000000000000000000000000000000000000000000",
                    "difficulty": "0x020000",
                    "number": "0x01",
                    "gasLimit": "0x07270e00",
                    "gasUsed": "0x42e3",
                    "timestamp": "0x03e8",
                    "extraData": "0x00",
                    "mixHash": "0x0000000000000000000000000000000000000000000000000000000000000000",
                    "nonce": "0x0000000000000000",
                    "hash": "0xca940587c85022b916d0913f7ee62f6adf7bd1b9fab5c3f4bb811fe993260829"
                },
                "transactions": [
                    {
                        "type": "0x00",
                        "chainId": "0x01",
                        "nonce": "0x00",
                        "gasPrice": "0x0a",
                        "gasLimit": "0x0f4240",
                        "to": "0x17ea8eed650ee494e37c740538809397211a9ac9",
                        "value": "0x00",
                        "data": "0x",
                        "v": "0x25",
                        "r": "0xdd9172c0c74a51552b5bb9b4237098f554ebafea91dc64b891619716a1727e14",
                        "s": "0x514425d47ec99f3c9156b4e213c053954c0fa452851880fb59a1479a554fc87a",
                        "sender": "0x1ad9bc24818784172ff393bb6f89f094d4d2ca29"
                    }
                ],
                "uncleHeaders": [],
                "receipts": [
                    {
                        "transactionHash": "0xdb5362628e9a226d7453be4077c676745dcfe25ae1cc4ff11f0c7fd4931603c0",
                        "type": "0x00",
                        "cumulativeGasUsed": "0x42e3",
                        "bloom": "0x00000000000000000000000000000000000000000000000000000000000000000000000000000000000000000000000000000000000000000000000000000000000000000000000000000000000000000000000000000000000000000000000000000000000000000000000000000000000000000000000000000000000000000000000000000000000000000000000000000000000000000000000000000000000000000000000000000000000000000000000000000000000000000000000000000000000000000000000000000000000000000000000000000000000000000000000000000000000000000000000000000000000000000000000000000000",
                        "logs": [],
                        "status": true,
                        "rlp": "0xf90108018242e3b9010000000000000000000000000000000000000000000000000000000000000000000000000000000000000000000000000000000000000000000000000000000000000000000000000000000000000000000000000000000000000000000000000000000000000000000000000000000000000000000000000000000000000000000000000000000000000000000000000000000000000000000000000000000000000000000000000000000000000000000000000000000000000000000000000000000000000000000000000000000000000000000000000000000000000000000000000000000000000000000000000000000000000000000000000000000000c0"
                    }
                ],
                "rlp": "0xf90260f901f8a0c59e99fbd18d8966c08840e5c835842e0b8e661f7965d04aa54d985832b1247da01dcc4de8dec75d7aab85b567b6ccd41ad312451b948a7413f0a142fd40d49347942adc25665018aa1fe0e6bc666dac8fc2697ff9baa011ddbc933802bc873782692e1650e958d030c46d67b10d4bc9764602ac15e84da09833d4853f7e8308e89c62346039280b0ccb6f5b2fef4f84cf6fda4534fd9ce9a01b65918d94c97ecaafe33c3ad9a5e2c51dc38a8e98a3b5e006c89cf94f7eae81b901000000000000000000000000000000000000000000000000000000000000000000000000000000000000000000000000000000000000000000000000000000000000000000000000000000000000000000000000000000000000000000000000000000000000000000000000000000000000000000000000000000000000000000000000000000000000000000000000000000000000000000000000000000000000000000000000000000000000000000000000000000000000000000000000000000000000000000000000000000000000000000000000000000000000000000000000000000000000000000000000000000000000000000000000000000000083020000018407270e008242e38203e800a00000000000000000000000000000000000000000000000000000000000000000880000000000000000f862f860800a830f42409417ea8eed650ee494e37c740538809397211a9ac9808025a0dd9172c0c74a51552b5bb9b4237098f554ebafea91dc64b891619716a1727e14a0514425d47ec99f3c9156b4e213c053954c0fa452851880fb59a1479a554fc87ac0",
                "blocknumber": "1"
            }
        ],
        "sealEngine": "NoProof",
        "_info": {
            "hash": "0x835de5fada967c49320da15fb7b5f5a4fa45fe50e3ee9b48f7aa6eff0d366b8c",
            "fixture-format": "blockchain_test",
            "comment": "`execution-specs` generated test",
            "filling-transition-tool": "2.19.0",
            "description": "Tests the constant gas behavior of `ecadd/ecmul` precompiled contracts.",
            "url": "https://github.com/ethereum/execution-specs/blob/tests-bal@v5.3.0/tests/byzantium/eip196_ec_add_mul/test_gas.py#L20",
            "opcode_count": {},
            "reference-spec": "https://github.com/ethereum/EIPs/blob/master/EIPS/eip-196.md",
            "reference-spec-version": "6538d198b1db10784ddccd6931888d7ae718de75"
        }
    },
    "tests/byzantium/eip196_ec_add_mul/test_gas.py::test_gas_costs[fork_Berlin-blockchain_test_from_state_test-enough_gas_True-ecadd]": {
        "network": "Berlin",
        "genesisBlockHeader": {
            "parentHash": "0x0000000000000000000000000000000000000000000000000000000000000000",
            "uncleHash": "0x1dcc4de8dec75d7aab85b567b6ccd41ad312451b948a7413f0a142fd40d49347",
            "coinbase": "0x0000000000000000000000000000000000000000",
            "stateRoot": "0xd12050e236693b57288b1df629caac2798d37239203a841970b8fc8612927b71",
            "transactionsTrie": "0x56e81f171bcc55a6ff8345e692c0f86e5b48e01b996cadc001622fb5e363b421",
            "receiptTrie": "0x56e81f171bcc55a6ff8345e692c0f86e5b48e01b996cadc001622fb5e363b421",
            "bloom": "0x00000000000000000000000000000000000000000000000000000000000000000000000000000000000000000000000000000000000000000000000000000000000000000000000000000000000000000000000000000000000000000000000000000000000000000000000000000000000000000000000000000000000000000000000000000000000000000000000000000000000000000000000000000000000000000000000000000000000000000000000000000000000000000000000000000000000000000000000000000000000000000000000000000000000000000000000000000000000000000000000000000000000000000000000000000000",
            "difficulty": "0x020000",
            "number": "0x00",
            "gasLimit": "0x07270e00",
            "gasUsed": "0x00",
            "timestamp": "0x00",
            "extraData": "0x00",
            "mixHash": "0x0000000000000000000000000000000000000000000000000000000000000000",
            "nonce": "0x0000000000000000",
            "hash": "0x142d4bc84efe2c0f8fda8bf0f18a83af0a65b548958edc2bc043e7e31b144507"
        },
        "pre": {
            "0x711f4544f8b039f79397c0ffc86e3443dac35be5": {
                "nonce": "0x01",
                "balance": "0x00",
                "code": "0x6000600060006000600060066096f1600055",
                "storage": {
                    "0x00": "0xdeadbeef"
                }
            },
            "0x1ad9bc24818784172ff393bb6f89f094d4d2ca29": {
                "nonce": "0x00",
                "balance": "0x3635c9adc5dea00000",
                "code": "0x",
                "storage": {}
            }
        },
        "postState": {
            "0x711f4544f8b039f79397c0ffc86e3443dac35be5": {
                "nonce": "0x01",
                "balance": "0x00",
                "code": "0x6000600060006000600060066096f1600055",
                "storage": {
                    "0x00": "0x01"
                }
            },
            "0x1ad9bc24818784172ff393bb6f89f094d4d2ca29": {
                "nonce": "0x01",
                "balance": "0x3635c9adc5de9bfdac",
                "code": "0x",
                "storage": {}
            },
            "0x2adc25665018aa1fe0e6bc666dac8fc2697ff9ba": {
                "nonce": "0x00",
                "balance": "0x1bc16d674ecc0254",
                "code": "0x",
                "storage": {}
            }
        },
        "lastblockhash": "0xea624c4e7a609b890952afeb633813734ba5c03409154ec5c2d3078a522e012b",
        "config": {
            "network": "Berlin",
            "chainid": "0x01"
        },
        "genesisRLP": "0xf901f9f901f4a00000000000000000000000000000000000000000000000000000000000000000a01dcc4de8dec75d7aab85b567b6ccd41ad312451b948a7413f0a142fd40d49347940000000000000000000000000000000000000000a0d12050e236693b57288b1df629caac2798d37239203a841970b8fc8612927b71a056e81f171bcc55a6ff8345e692c0f86e5b48e01b996cadc001622fb5e363b421a056e81f171bcc55a6ff8345e692c0f86e5b48e01b996cadc001622fb5e363b421b901000000000000000000000000000000000000000000000000000000000000000000000000000000000000000000000000000000000000000000000000000000000000000000000000000000000000000000000000000000000000000000000000000000000000000000000000000000000000000000000000000000000000000000000000000000000000000000000000000000000000000000000000000000000000000000000000000000000000000000000000000000000000000000000000000000000000000000000000000000000000000000000000000000000000000000000000000000000000000000000000000000000000000000000000000000000083020000808407270e00808000a00000000000000000000000000000000000000000000000000000000000000000880000000000000000c0c0",
        "blocks": [
            {
                "blockHeader": {
                    "parentHash": "0x142d4bc84efe2c0f8fda8bf0f18a83af0a65b548958edc2bc043e7e31b144507",
                    "uncleHash": "0x1dcc4de8dec75d7aab85b567b6ccd41ad312451b948a7413f0a142fd40d49347",
                    "coinbase": "0x2adc25665018aa1fe0e6bc666dac8fc2697ff9ba",
                    "stateRoot": "0xb20e246b90026cd22e1200781f7c49cee7177dc8ccaa64e829fa5a6b39cea64b",
                    "transactionsTrie": "0x4b0ed787354291c8c70bcd9cdf251bcd08e0d701a3df151e7f79f5462f348108",
                    "receiptTrie": "0xd699782c57f202ff9274c42f4e75d04b03ad705ae369b227c0a7d2e327b6d3e2",
                    "bloom": "0x00000000000000000000000000000000000000000000000000000000000000000000000000000000000000000000000000000000000000000000000000000000000000000000000000000000000000000000000000000000000000000000000000000000000000000000000000000000000000000000000000000000000000000000000000000000000000000000000000000000000000000000000000000000000000000000000000000000000000000000000000000000000000000000000000000000000000000000000000000000000000000000000000000000000000000000000000000000000000000000000000000000000000000000000000000000",
                    "difficulty": "0x020000",
                    "number": "0x01",
                    "gasLimit": "0x07270e00",
                    "gasUsed": "0x66a2",
                    "timestamp": "0x03e8",
                    "extraData": "0x00",
                    "mixHash": "0x0000000000000000000000000000000000000000000000000000000000000000",
                    "nonce": "0x0000000000000000",
                    "hash": "0xea624c4e7a609b890952afeb633813734ba5c03409154ec5c2d3078a522e012b"
                },
                "transactions": [
                    {
                        "type": "0x00",
                        "chainId": "0x01",
                        "nonce": "0x00",
                        "gasPrice": "0x0a",
                        "gasLimit": "0x0f4240",
                        "to": "0x711f4544f8b039f79397c0ffc86e3443dac35be5",
                        "value": "0x00",
                        "data": "0x",
                        "v": "0x26",
                        "r": "0x9fb10c7e724f9687776d24aba62bf4c957882fff5267d211c1ae414817974bad",
                        "s": "0x01099bcbff7fffe562426c563179f8394e8aff817cfc6cb82ef9a16b7b6c229a",
                        "sender": "0x1ad9bc24818784172ff393bb6f89f094d4d2ca29"
                    }
                ],
                "uncleHeaders": [],
                "receipts": [
                    {
                        "transactionHash": "0xbb6b1896ae015425504dc3e90ab7f11c78792a62d9bf44798405e6e02d8d6f61",
                        "type": "0x00",
                        "cumulativeGasUsed": "0x66a2",
                        "bloom": "0x00000000000000000000000000000000000000000000000000000000000000000000000000000000000000000000000000000000000000000000000000000000000000000000000000000000000000000000000000000000000000000000000000000000000000000000000000000000000000000000000000000000000000000000000000000000000000000000000000000000000000000000000000000000000000000000000000000000000000000000000000000000000000000000000000000000000000000000000000000000000000000000000000000000000000000000000000000000000000000000000000000000000000000000000000000000",
                        "logs": [],
                        "status": true,
                        "rlp": "0xf90108018266a2b9010000000000000000000000000000000000000000000000000000000000000000000000000000000000000000000000000000000000000000000000000000000000000000000000000000000000000000000000000000000000000000000000000000000000000000000000000000000000000000000000000000000000000000000000000000000000000000000000000000000000000000000000000000000000000000000000000000000000000000000000000000000000000000000000000000000000000000000000000000000000000000000000000000000000000000000000000000000000000000000000000000000000000000000000000000000000c0"
                    }
                ],
                "rlp": "0xf90260f901f8a0142d4bc84efe2c0f8fda8bf0f18a83af0a65b548958edc2bc043e7e31b144507a01dcc4de8dec75d7aab85b567b6ccd41ad312451b948a7413f0a142fd40d49347942adc25665018aa1fe0e6bc666dac8fc2697ff9baa0b20e246b90026cd22e1200781f7c49cee7177dc8ccaa64e829fa5a6b39cea64ba04b0ed787354291c8c70bcd9cdf251bcd08e0d701a3df151e7f79f5462f348108a0d699782c57f202ff9274c42f4e75d04b03ad705ae369b227c0a7d2e327b6d3e2b901000000000000000000000000000000000000000000000000000000000000000000000000000000000000000000000000000000000000000000000000000000000000000000000000000000000000000000000000000000000000000000000000000000000000000000000000000000000000000000000000000000000000000000000000000000000000000000000000000000000000000000000000000000000000000000000000000000000000000000000000000000000000000000000000000000000000000000000000000000000000000000000000000000000000000000000000000000000000000000000000000000000000000000000000000000000083020000018407270e008266a28203e800a00000000000000000000000000000000000000000000000000000000000000000880000000000000000f862f860800a830f424094711f4544f8b039f79397c0ffc86e3443dac35be5808026a09fb10c7e724f9687776d24aba62bf4c957882fff5267d211c1ae414817974bada001099bcbff7fffe562426c563179f8394e8aff817cfc6cb82ef9a16b7b6c229ac0",
                "blocknumber": "1"
            }
        ],
        "sealEngine": "NoProof",
        "_info": {
            "hash": "0x3e8dde97acc95c8d4eef72e1863894c63b29c34d674bb08565e961e1d0562384",
            "fixture-format": "blockchain_test",
            "comment": "`execution-specs` generated test",
            "filling-transition-tool": "2.19.0",
            "description": "Tests the constant gas behavior of `ecadd/ecmul` precompiled contracts.",
            "url": "https://github.com/ethereum/execution-specs/blob/tests-bal@v5.3.0/tests/byzantium/eip196_ec_add_mul/test_gas.py#L20",
            "opcode_count": {},
            "reference-spec": "https://github.com/ethereum/EIPs/blob/master/EIPS/eip-196.md",
            "reference-spec-version": "6538d198b1db10784ddccd6931888d7ae718de75"
        }
    },
    "tests/byzantium/eip196_ec_add_mul/test_gas.py::test_gas_costs[fork_Berlin-blockchain_test_from_state_test-enough_gas_True-ecmul]": {
        "network": "Berlin",
        "genesisBlockHeader": {
            "parentHash": "0x0000000000000000000000000000000000000000000000000000000000000000",
            "uncleHash": "0x1dcc4de8dec75d7aab85b567b6ccd41ad312451b948a7413f0a142fd40d49347",
            "coinbase": "0x0000000000000000000000000000000000000000",
            "stateRoot": "0xba450465285fa655db2ffedc63c1a186d2325157e57e8fcbcd5351afe10b829a",
            "transactionsTrie": "0x56e81f171bcc55a6ff8345e692c0f86e5b48e01b996cadc001622fb5e363b421",
            "receiptTrie": "0x56e81f171bcc55a6ff8345e692c0f86e5b48e01b996cadc001622fb5e363b421",
            "bloom": "0x00000000000000000000000000000000000000000000000000000000000000000000000000000000000000000000000000000000000000000000000000000000000000000000000000000000000000000000000000000000000000000000000000000000000000000000000000000000000000000000000000000000000000000000000000000000000000000000000000000000000000000000000000000000000000000000000000000000000000000000000000000000000000000000000000000000000000000000000000000000000000000000000000000000000000000000000000000000000000000000000000000000000000000000000000000000",
            "difficulty": "0x020000",
            "number": "0x00",
            "gasLimit": "0x07270e00",
            "gasUsed": "0x00",
            "timestamp": "0x00",
            "extraData": "0x00",
            "mixHash": "0x0000000000000000000000000000000000000000000000000000000000000000",
            "nonce": "0x0000000000000000",
            "hash": "0x5e0afa0739079238c1381440b5cf949149f1addc301a2d6398c4389fd0652d68"
        },
        "pre": {
            "0x3f06880ea84fea6fb26530df61efbbdc5595b2eb": {
                "nonce": "0x01",
                "balance": "0x00",
                "code": "0x600060006000600060006007611770f1600055",
                "storage": {
                    "0x00": "0xdeadbeef"
                }
            },
            "0x1ad9bc24818784172ff393bb6f89f094d4d2ca29": {
                "nonce": "0x00",
                "balance": "0x3635c9adc5dea00000",
                "code": "0x",
                "storage": {}
            }
        },
        "postState": {
            "0x3f06880ea84fea6fb26530df61efbbdc5595b2eb": {
                "nonce": "0x01",
                "balance": "0x00",
                "code": "0x600060006000600060006007611770f1600055",
                "storage": {
                    "0x00": "0x01"
                }
            },
            "0x1ad9bc24818784172ff393bb6f89f094d4d2ca29": {
                "nonce": "0x01",
                "balance": "0x3635c9adc5de9b1928",
                "code": "0x",
                "storage": {}
            },
            "0x2adc25665018aa1fe0e6bc666dac8fc2697ff9ba": {
                "nonce": "0x00",
                "balance": "0x1bc16d674ecce6d8",
                "code": "0x",
                "storage": {}
            }
        },
        "lastblockhash": "0x7f328e0cdb66491f5b94bdeb48ea6c2826c07786dc234ad0586387eb73897647",
        "config": {
            "network": "Berlin",
            "chainid": "0x01"
        },
        "genesisRLP": "0xf901f9f901f4a00000000000000000000000000000000000000000000000000000000000000000a01dcc4de8dec75d7aab85b567b6ccd41ad312451b948a7413f0a142fd40d49347940000000000000000000000000000000000000000a0ba450465285fa655db2ffedc63c1a186d2325157e57e8fcbcd5351afe10b829aa056e81f171bcc55a6ff8345e692c0f86e5b48e01b996cadc001622fb5e363b421a056e81f171bcc55a6ff8345e692c0f86e5b48e01b996cadc001622fb5e363b421b901000000000000000000000000000000000000000000000000000000000000000000000000000000000000000000000000000000000000000000000000000000000000000000000000000000000000000000000000000000000000000000000000000000000000000000000000000000000000000000000000000000000000000000000000000000000000000000000000000000000000000000000000000000000000000000000000000000000000000000000000000000000000000000000000000000000000000000000000000000000000000000000000000000000000000000000000000000000000000000000000000000000000000000000000000000000083020000808407270e00808000a00000000000000000000000000000000000000000000000000000000000000000880000000000000000c0c0",
        "blocks": [
            {
                "blockHeader": {
                    "parentHash": "0x5e0afa0739079238c1381440b5cf949149f1addc301a2d6398c4389fd0652d68",
                    "uncleHash": "0x1dcc4de8dec75d7aab85b567b6ccd41ad312451b948a7413f0a142fd40d49347",
                    "coinbase": "0x2adc25665018aa1fe0e6bc666dac8fc2697ff9ba",
                    "stateRoot": "0x3e96a2c849aa3f8c0234ac06b6e12efdec1acdc04191c84f3463c2dc71e54f3b",
                    "transactionsTrie": "0x60ce8821c2544506ebf7fed21729ba8d21e9cd435e3175f7215da00e75ac1036",
                    "receiptTrie": "0x0ae9f5dfbc89ff25c49c4ff22523f4ae04be4cee1b870cbe98c32143de929eac",
                    "bloom": "0x00000000000000000000000000000000000000000000000000000000000000000000000000000000000000000000000000000000000000000000000000000000000000000000000000000000000000000000000000000000000000000000000000000000000000000000000000000000000000000000000000000000000000000000000000000000000000000000000000000000000000000000000000000000000000000000000000000000000000000000000000000000000000000000000000000000000000000000000000000000000000000000000000000000000000000000000000000000000000000000000000000000000000000000000000000000",
                    "difficulty": "0x020000",
                    "number": "0x01",
                    "gasLimit": "0x07270e00",
                    "gasUsed": "0x7d7c",
                    "timestamp": "0x03e8",
                    "extraData": "0x00",
                    "mixHash": "0x0000000000000000000000000000000000000000000000000000000000000000",
                    "nonce": "0x0000000000000000",
                    "hash": "0x7f328e0cdb66491f5b94bdeb48ea6c2826c07786dc234ad0586387eb73897647"
                },
                "transactions": [
                    {
                        "type": "0x00",
                        "chainId": "0x01",
                        "nonce": "0x00",
                        "gasPrice": "0x0a",
                        "gasLimit": "0x0f4240",
                        "to": "0x3f06880ea84fea6fb26530df61efbbdc5595b2eb",
                        "value": "0x00",
                        "data": "0x",
                        "v": "0x26",
                        "r": "0x5d83d23187b0ea6141c352615f86fbc630b23a766101f2a00ce3d6bd1f145fff",
                        "s": "0x1695ce263919e1228c58d61b44a779b4e0f3141bb2cae0b8b6ab8acd15bd5b84",
                        "sender": "0x1ad9bc24818784172ff393bb6f89f094d4d2ca29"
                    }
                ],
                "uncleHeaders": [],
                "receipts": [
                    {
                        "transactionHash": "0x621469435f7707c848a4658af505dea1c1dc00cfdd92bfbc2994858dd9c7de66",
                        "type": "0x00",
                        "cumulativeGasUsed": "0x7d7c",
                        "bloom": "0x00000000000000000000000000000000000000000000000000000000000000000000000000000000000000000000000000000000000000000000000000000000000000000000000000000000000000000000000000000000000000000000000000000000000000000000000000000000000000000000000000000000000000000000000000000000000000000000000000000000000000000000000000000000000000000000000000000000000000000000000000000000000000000000000000000000000000000000000000000000000000000000000000000000000000000000000000000000000000000000000000000000000000000000000000000000",
                        "logs": [],
                        "status": true,
                        "rlp": "0xf9010801827d7cb9010000000000000000000000000000000000000000000000000000000000000000000000000000000000000000000000000000000000000000000000000000000000000000000000000000000000000000000000000000000000000000000000000000000000000000000000000000000000000000000000000000000000000000000000000000000000000000000000000000000000000000000000000000000000000000000000000000000000000000000000000000000000000000000000000000000000000000000000000000000000000000000000000000000000000000000000000000000000000000000000000000000000000000000000000000000000c0"
                    }
                ],
                "rlp": "0xf90260f901f8a05e0afa0739079238c1381440b5cf949149f1addc301a2d6398c4389fd0652d68a01dcc4de8dec75d7aab85b567b6ccd41ad312451b948a7413f0a142fd40d49347942adc25665018aa1fe0e6bc666dac8fc2697ff9baa03e96a2c849aa3f8c0234ac06b6e12efdec1acdc04191c84f3463c2dc71e54f3ba060ce8821c2544506ebf7fed21729ba8d21e9cd435e3175f7215da00e75ac1036a00ae9f5dfbc89ff25c49c4ff22523f4ae04be4cee1b870cbe98c32143de929eacb901000000000000000000000000000000000000000000000000000000000000000000000000000000000000000000000000000000000000000000000000000000000000000000000000000000000000000000000000000000000000000000000000000000000000000000000000000000000000000000000000000000000000000000000000000000000000000000000000000000000000000000000000000000000000000000000000000000000000000000000000000000000000000000000000000000000000000000000000000000000000000000000000000000000000000000000000000000000000000000000000000000000000000000000000000000000083020000018407270e00827d7c8203e800a00000000000000000000000000000000000000000000000000000000000000000880000000000000000f862f860800a830f4240943f06880ea84fea6fb26530df61efbbdc5595b2eb808026a05d83d23187b0ea6141c352615f86fbc630b23a766101f2a00ce3d6bd1f145fffa01695ce263919e1228c58d61b44a779b4e0f3141bb2cae0b8b6ab8acd15bd5b84c0",
                "blocknumber": "1"
            }
        ],
        "sealEngine": "NoProof",
        "_info": {
            "hash": "0xf354132bdca7f8df4805e249ef6ea2eb67ddf8e02930583ca8b045f9b2eac4c4",
            "fixture-format": "blockchain_test",
            "comment": "`execution-specs` generated test",
            "filling-transition-tool": "2.19.0",
            "description": "Tests the constant gas behavior of `ecadd/ecmul` precompiled contracts.",
            "url": "https://github.com/ethereum/execution-specs/blob/tests-bal@v5.3.0/tests/byzantium/eip196_ec_add_mul/test_gas.py#L20",
            "opcode_count": {},
            "reference-spec": "https://github.com/ethereum/EIPs/blob/master/EIPS/eip-196.md",
            "reference-spec-version": "6538d198b1db10784ddccd6931888d7ae718de75"
        }
    }
}