{
    "tests/byzantium/eip196_ec_add_mul/test_gas.py::test_invalid_gas_consumption[fork_Berlin-blockchain_test_from_state_test-exact-ecadd]": {
        "network": "Berlin",
        "genesisBlockHeader": {
            "parentHash": "0x0000000000000000000000000000000000000000000000000000000000000000",
            "uncleHash": "0x1dcc4de8dec75d7aab85b567b6ccd41ad312451b948a7413f0a142fd40d49347",
            "coinbase": "0x0000000000000000000000000000000000000000",
            "stateRoot": "0x63574516a1e7d182ea1ab7e9c624a5654eb4b348af74e8061530d69adf37e90d",
            "transactionsTrie": "0x56e81f171bcc55a6ff8345e692c0f86e5b48e01b996cadc001622fb5e363b421",
            "receiptTrie": "0x56e81f171bcc55a6ff8345e692c0f86e5b48e01b996cadc001622fb5e363b421",
            "bloom": "0x00000000000000000000000000000000000000000000000000000000000000000000000000000000000000000000000000000000000000000000000000000000000000000000000000000000000000000000000000000000000000000000000000000000000000000000000000000000000000000000000000000000000000000000000000000000000000000000000000000000000000000000000000000000000000000000000000000000000000000000000000000000000000000000000000000000000000000000000000000000000000000000000000000000000000000000000000000000000000000000000000000000000000000000000000000000",
            "difficulty": "0x020000",
            "number": "0x00",
            "gasLimit": "0x07270e00",
            "gasUsed": "0x00",
            "timestamp": "0x00",
            "extraData": "0x00",
            "mixHash": "0x0000000000000000000000000000000000000000000000000000000000000000",
            "nonce": "0x0000000000000000",
            "hash": "0x609e553b978ce935729731dc565a2b1d9160115a6a6ceec3a3e8504c45926529"
        },
        "pre": {
            "0x82e8a3a970ed90a9226db1ba3317f92a463b32f6": {
                "nonce": "0x01",
                "balance": "0x00",
                "code": "0x6001600052600360205260006040526000606052600060006000600060066000fa505a600060006080600060066096fa5a9050900360125a5a900301900360005500",
                "storage": {}
            },
            "0x1ad9bc24818784172ff393bb6f89f094d4d2ca29": {
                "nonce": "0x00",
                "balance": "0x3635c9adc5dea00000",
                "code": "0x",
                "storage": {}
            }
        },
        "postState": {
            "0x82e8a3a970ed90a9226db1ba3317f92a463b32f6": {
                "nonce": "0x01",
                "balance": "0x00",
                "code": "0x6001600052600360205260006040526000606052600060006000600060066000fa505a600060006080600060066096fa5a9050900360125a5a900301900360005500",
                "storage": {
                    "0x00": "0xfa"
                }
            },
            "0x1ad9bc24818784172ff393bb6f89f094d4d2ca29": {
                "nonce": "0x01",
                "balance": "0x3635c9adc5de9959d0",
                "code": "0x",
                "storage": {}
            },
            "0x2adc25665018aa1fe0e6bc666dac8fc2697ff9ba": {
                "nonce": "0x00",
                "balance": "0x1bc16d674ecea630",
                "code": "0x",
                "storage": {}
            }
        },
        "lastblockhash": "0x3b06f3dd09db04f81472f91d0055704d355ccd9aa7d0f2e36ed49e86507dafaf",
        "config": {
            "network": "Berlin",
            "chainid": "0x01"
        },
        "genesisRLP": "0xf901f9f901f4a00000000000000000000000000000000000000000000000000000000000000000a01dcc4de8dec75d7aab85b567b6ccd41ad312451b948a7413f0a142fd40d49347940000000000000000000000000000000000000000a063574516a1e7d182ea1ab7e9c624a5654eb4b348af74e8061530d69adf37e90da056e81f171bcc55a6ff8345e692c0f86e5b48e01b996cadc001622fb5e363b421a056e81f171bcc55a6ff8345e692c0f86e5b48e01b996cadc001622fb5e363b421b901000000000000000000000000000000000000000000000000000000000000000000000000000000000000000000000000000000000000000000000000000000000000000000000000000000000000000000000000000000000000000000000000000000000000000000000000000000000000000000000000000000000000000000000000000000000000000000000000000000000000000000000000000000000000000000000000000000000000000000000000000000000000000000000000000000000000000000000000000000000000000000000000000000000000000000000000000000000000000000000000000000000000000000000000000000000083020000808407270e00808000a00000000000000000000000000000000000000000000000000000000000000000880000000000000000c0c0",
        "blocks": [
            {
                "blockHeader": {
                    "parentHash": "0x609e553b978ce935729731dc565a2b1d9160115a6a6ceec3a3e8504c45926529",
                    "uncleHash": "0x1dcc4de8dec75d7aab85b567b6ccd41ad312451b948a7413f0a142fd40d49347",
                    "coinbase": "0x2adc25665018aa1fe0e6bc666dac8fc2697ff9ba",
                    "stateRoot": "0xc2e1dd455c60e9e834cca5c6a352e456a221f6766f9fbcfc8b02c97c4ea4487c",
                    "transactionsTrie": "0x1e871cfc251aa70365cbb0094191314494e5b7b1bc9800c8010237ad22b296af",
                    "receiptTrie": "0x639d7e69c855eabbdecad47c6d8f886251c2a7973a0e8968d68ee09b00014897",
                    "bloom": "0x00000000000000000000000000000000000000000000000000000000000000000000000000000000000000000000000000000000000000000000000000000000000000000000000000000000000000000000000000000000000000000000000000000000000000000000000000000000000000000000000000000000000000000000000000000000000000000000000000000000000000000000000000000000000000000000000000000000000000000000000000000000000000000000000000000000000000000000000000000000000000000000000000000000000000000000000000000000000000000000000000000000000000000000000000000000",
                    "difficulty": "0x020000",
                    "number": "0x01",
                    "gasLimit": "0x07270e00",
                    "gasUsed": "0xaa38",
                    "timestamp": "0x03e8",
                    "extraData": "0x00",
                    "mixHash": "0x0000000000000000000000000000000000000000000000000000000000000000",
                    "nonce": "0x0000000000000000",
                    "hash": "0x3b06f3dd09db04f81472f91d0055704d355ccd9aa7d0f2e36ed49e86507dafaf"
                },
                "transactions": [
                    {
                        "type": "0x00",
                        "chainId": "0x01",
                        "nonce": "0x00",
                        "gasPrice": "0x0a",
                        "gasLimit": "0x0f4240",
                        "to": "0x82e8a3a970ed90a9226db1ba3317f92a463b32f6",
                        "value": "0x00",
                        "data": "0x",
                        "v": "0x25",
                        "r": "0x9f07859f133be536d82b9f35662d4236b04e6a87051ff57ad4bc3c44c344d64b",
                        "s": "0x719b33137b2b9115c44e6cc37c4e21114fcab174badf9ee33511010c4e5dfd14",
                        "sender": "0x1ad9bc24818784172ff393bb6f89f094d4d2ca29"
                    }
                ],
                "uncleHeaders": [],
                "receipts": [
                    {
                        "transactionHash": "0xbfc2ad6da26c3c9be4194b3199dbc990fce1dba53319d18e251fa7dfeb671a21",
                        "type": "0x00",
                        "cumulativeGasUsed": "0xaa38",
                        "bloom": "0x00000000000000000000000000000000000000000000000000000000000000000000000000000000000000000000000000000000000000000000000000000000000000000000000000000000000000000000000000000000000000000000000000000000000000000000000000000000000000000000000000000000000000000000000000000000000000000000000000000000000000000000000000000000000000000000000000000000000000000000000000000000000000000000000000000000000000000000000000000000000000000000000000000000000000000000000000000000000000000000000000000000000000000000000000000000",
                        "logs": [],
                        "status": true,
                        "rlp": "0xf901080182aa38b9010000000000000000000000000000000000000000000000000000000000000000000000000000000000000000000000000000000000000000000000000000000000000000000000000000000000000000000000000000000000000000000000000000000000000000000000000000000000000000000000000000000000000000000000000000000000000000000000000000000000000000000000000000000000000000000000000000000000000000000000000000000000000000000000000000000000000000000000000000000000000000000000000000000000000000000000000000000000000000000000000000000000000000000000000000000000c0"
                    }
                ],
                "rlp": "0xf90260f901f8a0609e553b978ce935729731dc565a2b1d9160115a6a6ceec3a3e8504c45926529a01dcc4de8dec75d7aab85b567b6ccd41ad312451b948a7413f0a142fd40d49347942adc25665018aa1fe0e6bc666dac8fc2697ff9baa0c2e1dd455c60e9e834cca5c6a352e456a221f6766f9fbcfc8b02c97c4ea4487ca01e871cfc251aa70365cbb0094191314494e5b7b1bc9800c8010237ad22b296afa0639d7e69c855eabbdecad47c6d8f886251c2a7973a0e8968d68ee09b00014897b901000000000000000000000000000000000000000000000000000000000000000000000000000000000000000000000000000000000000000000000000000000000000000000000000000000000000000000000000000000000000000000000000000000000000000000000000000000000000000000000000000000000000000000000000000000000000000000000000000000000000000000000000000000000000000000000000000000000000000000000000000000000000000000000000000000000000000000000000000000000000000000000000000000000000000000000000000000000000000000000000000000000000000000000000000000000083020000018407270e0082aa388203e800a00000000000000000000000000000000000000000000000000000000000000000880000000000000000f862f860800a830f42409482e8a3a970ed90a9226db1ba3317f92a463b32f6808025a09f07859f133be536d82b9f35662d4236b04e6a87051ff57ad4bc3c44c344d64ba0719b33137b2b9115c44e6cc37c4e21114fcab174badf9ee33511010c4e5dfd14c0",
                "blocknumber": "1"
            }
        ],
        "sealEngine": "NoProof",
        "_info": {
            "hash": "0xa6df10a6c19be1d4ad65a79f3308e550e4cd793e9636bcfed628c5f5a588c0b1",
            "fixture-format": "blockchain_test",
            "comment": "`execution-specs` generated test",
            "filling-transition-tool": "2.19.0",
            "description": "Test that invalid inputs to ecadd/ecmul consume all forwarded gas.\n\nUse CodeGasMeasure to verify the STATICCALL with invalid input\nconsumes exactly the warm call cost plus all forwarded gas.",
            "url": "https://github.com/ethereum/execution-specs/blob/tests-bal@v5.5.1/tests/byzantium/eip196_ec_add_mul/test_gas.py#L68",
            "opcode_count": {},
            "reference-spec": "https://github.com/ethereum/EIPs/blob/master/EIPS/eip-196.md",
            "reference-spec-version": "6538d198b1db10784ddccd6931888d7ae718de75"
        }
    },
    "tests/byzantium/eip196_ec_add_mul/test_gas.py::test_invalid_gas_consumption[fork_Berlin-blockchain_test_from_state_test-exact-ecmul]": {
        "network": "Berlin",
        "genesisBlockHeader": {
            "parentHash": "0x0000000000000000000000000000000000000000000000000000000000000000",
            "uncleHash": "0x1dcc4de8dec75d7aab85b567b6ccd41ad312451b948a7413f0a142fd40d49347",
            "coinbase": "0x0000000000000000000000000000000000000000",
            "stateRoot": "0xc33a16790b685f93ff528b3a1b3ac0ee323bba9623f76dcc23bdb379ef89ce96",
            "transactionsTrie": "0x56e81f171bcc55a6ff8345e692c0f86e5b48e01b996cadc001622fb5e363b421",
            "receiptTrie": "0x56e81f171bcc55a6ff8345e692c0f86e5b48e01b996cadc001622fb5e363b421",
            "bloom": "0x00000000000000000000000000000000000000000000000000000000000000000000000000000000000000000000000000000000000000000000000000000000000000000000000000000000000000000000000000000000000000000000000000000000000000000000000000000000000000000000000000000000000000000000000000000000000000000000000000000000000000000000000000000000000000000000000000000000000000000000000000000000000000000000000000000000000000000000000000000000000000000000000000000000000000000000000000000000000000000000000000000000000000000000000000000000",
            "difficulty": "0x020000",
            "number": "0x00",
            "gasLimit": "0x07270e00",
            "gasUsed": "0x00",
            "timestamp": "0x00",
            "extraData": "0x00",
            "mixHash": "0x0000000000000000000000000000000000000000000000000000000000000000",
            "nonce": "0x0000000000000000",
            "hash": "0x2537924b85cba408907cde499673e3b04424cbc4db35e7d403cf764ff908de57"
        },
        "pre": {
            "0xcfee3924e0f1f7f0a2853f5ee08c6eb64af7fea7": {
                "nonce": "0x01",
                "balance": "0x00",
                "code": "0x600160005260036020526001604052600060006000600060076000fa505a60006000606060006007611770fa5a9050900360125a5a900301900360005500",
                "storage": {}
            },
            "0x1ad9bc24818784172ff393bb6f89f094d4d2ca29": {
                "nonce": "0x00",
                "balance": "0x3635c9adc5dea00000",
                "code": "0x",
                "storage": {}
            }
        },
        "postState": {
            "0xcfee3924e0f1f7f0a2853f5ee08c6eb64af7fea7": {
                "nonce": "0x01",
                "balance": "0x00",
                "code": "0x600160005260036020526001604052600060006000600060076000fa505a60006000606060006007611770fa5a9050900360125a5a900301900360005500",
                "storage": {
                    "0x00": "0x17d4"
                }
            },
            "0x1ad9bc24818784172ff393bb6f89f094d4d2ca29": {
                "nonce": "0x01",
                "balance": "0x3635c9adc5de9875c4",
                "code": "0x",
                "storage": {}
            },
            "0x2adc25665018aa1fe0e6bc666dac8fc2697ff9ba": {
                "nonce": "0x00",
                "balance": "0x1bc16d674ecf8a3c",
                "code": "0x",
                "storage": {}
            }
        },
        "lastblockhash": "0x1cd1fb7e46341332ca0fe9d39af7447b8b3fa5f8ccc760b808237c7c97b5d196",
        "config": {
            "network": "Berlin",
            "chainid": "0x01"
        },
        "genesisRLP": "0xf901f9f901f4a00000000000000000000000000000000000000000000000000000000000000000a01dcc4de8dec75d7aab85b567b6ccd41ad312451b948a7413f0a142fd40d49347940000000000000000000000000000000000000000a0c33a16790b685f93ff528b3a1b3ac0ee323bba9623f76dcc23bdb379ef89ce96a056e81f171bcc55a6ff8345e692c0f86e5b48e01b996cadc001622fb5e363b421a056e81f171bcc55a6ff8345e692c0f86e5b48e01b996cadc001622fb5e363b421b901000000000000000000000000000000000000000000000000000000000000000000000000000000000000000000000000000000000000000000000000000000000000000000000000000000000000000000000000000000000000000000000000000000000000000000000000000000000000000000000000000000000000000000000000000000000000000000000000000000000000000000000000000000000000000000000000000000000000000000000000000000000000000000000000000000000000000000000000000000000000000000000000000000000000000000000000000000000000000000000000000000000000000000000000000000000083020000808407270e00808000a00000000000000000000000000000000000000000000000000000000000000000880000000000000000c0c0",
        "blocks": [
            {
                "blockHeader": {
                    "parentHash": "0x2537924b85cba408907cde499673e3b04424cbc4db35e7d403cf764ff908de57",
                    "uncleHash": "0x1dcc4de8dec75d7aab85b567b6ccd41ad312451b948a7413f0a142fd40d49347",
                    "coinbase": "0x2adc25665018aa1fe0e6bc666dac8fc2697ff9ba",
                    "stateRoot": "0x605809e7a7a09e2d9e55f14c41adab0eacf671971f1d8dae08a6bf4e33825bd6",
                    "transactionsTrie": "0xb283c291bcfb8fa827f4f40dd43363909cd6c9ed260880e9adf9face6c948587",
                    "receiptTrie": "0x609d925877cb841226b868a9d499a1aeb073e55587b7822734d1fca6ec1d13d0",
                    "bloom": "0x00000000000000000000000000000000000000000000000000000000000000000000000000000000000000000000000000000000000000000000000000000000000000000000000000000000000000000000000000000000000000000000000000000000000000000000000000000000000000000000000000000000000000000000000000000000000000000000000000000000000000000000000000000000000000000000000000000000000000000000000000000000000000000000000000000000000000000000000000000000000000000000000000000000000000000000000000000000000000000000000000000000000000000000000000000000",
                    "difficulty": "0x020000",
                    "number": "0x01",
                    "gasLimit": "0x07270e00",
                    "gasUsed": "0xc106",
                    "timestamp": "0x03e8",
                    "extraData": "0x00",
                    "mixHash": "0x0000000000000000000000000000000000000000000000000000000000000000",
                    "nonce": "0x0000000000000000",
                    "hash": "0x1cd1fb7e46341332ca0fe9d39af7447b8b3fa5f8ccc760b808237c7c97b5d196"
                },
                "transactions": [
                    {
                        "type": "0x00",
                        "chainId": "0x01",
                        "nonce": "0x00",
                        "gasPrice": "0x0a",
                        "gasLimit": "0x0f4240",
                        "to": "0xcfee3924e0f1f7f0a2853f5ee08c6eb64af7fea7",
                        "value": "0x00",
                        "data": "0x",
                        "v": "0x25",
                        "r": "0x066b8766255e35b9d95ac6f037d034929e2deba4deeb6bdaef79456bcab5e4cf",
                        "s": "0x4ecce2f542558b6c06483264c56a3a9ee9db48c6d6859b8c78f4896ca82c80ac",
                        "sender": "0x1ad9bc24818784172ff393bb6f89f094d4d2ca29"
                    }
                ],
                "uncleHeaders": [],
                "receipts": [
                    {
                        "transactionHash": "0x2013fd1ea491e47592d5c068eaddc7b31c0e7e57fe5f1d37a972ef007ec1d2cd",
                        "type": "0x00",
                        "cumulativeGasUsed": "0xc106",
                        "bloom": "0x00000000000000000000000000000000000000000000000000000000000000000000000000000000000000000000000000000000000000000000000000000000000000000000000000000000000000000000000000000000000000000000000000000000000000000000000000000000000000000000000000000000000000000000000000000000000000000000000000000000000000000000000000000000000000000000000000000000000000000000000000000000000000000000000000000000000000000000000000000000000000000000000000000000000000000000000000000000000000000000000000000000000000000000000000000000",
                        "logs": [],
                        "status": true,
                        "rlp": "0xf901080182c106b9010000000000000000000000000000000000000000000000000000000000000000000000000000000000000000000000000000000000000000000000000000000000000000000000000000000000000000000000000000000000000000000000000000000000000000000000000000000000000000000000000000000000000000000000000000000000000000000000000000000000000000000000000000000000000000000000000000000000000000000000000000000000000000000000000000000000000000000000000000000000000000000000000000000000000000000000000000000000000000000000000000000000000000000000000000000000c0"
                    }
                ],
                "rlp": "0xf90260f901f8a02537924b85cba408907cde499673e3b04424cbc4db35e7d403cf764ff908de57a01dcc4de8dec75d7aab85b567b6ccd41ad312451b948a7413f0a142fd40d49347942adc25665018aa1fe0e6bc666dac8fc2697ff9baa0605809e7a7a09e2d9e55f14c41adab0eacf671971f1d8dae08a6bf4e33825bd6a0b283c291bcfb8fa827f4f40dd43363909cd6c9ed260880e9adf9face6c948587a0609d925877cb841226b868a9d499a1aeb073e55587b7822734d1fca6ec1d13d0b901000000000000000000000000000000000000000000000000000000000000000000000000000000000000000000000000000000000000000000000000000000000000000000000000000000000000000000000000000000000000000000000000000000000000000000000000000000000000000000000000000000000000000000000000000000000000000000000000000000000000000000000000000000000000000000000000000000000000000000000000000000000000000000000000000000000000000000000000000000000000000000000000000000000000000000000000000000000000000000000000000000000000000000000000000000000083020000018407270e0082c1068203e800a00000000000000000000000000000000000000000000000000000000000000000880000000000000000f862f860800a830f424094cfee3924e0f1f7f0a2853f5ee08c6eb64af7fea7808025a0066b8766255e35b9d95ac6f037d034929e2deba4deeb6bdaef79456bcab5e4cfa04ecce2f542558b6c06483264c56a3a9ee9db48c6d6859b8c78f4896ca82c80acc0",
                "blocknumber": "1"
            }
        ],
        "sealEngine": "NoProof",
        "_info": {
            "hash": "0x5434be9fada815cc352030ebdcb6d37c838797e6fd0c47f8440d764492b6dbd6",
            "fixture-format": "blockchain_test",
            "comment": "`execution-specs` generated test",
            "filling-transition-tool": "2.19.0",
            "description": "Test that invalid inputs to ecadd/ecmul consume all forwarded gas.\n\nUse CodeGasMeasure to verify the STATICCALL with invalid input\nconsumes exactly the warm call cost plus all forwarded gas.",
            "url": "https://github.com/ethereum/execution-specs/blob/tests-bal@v5.5.1/tests/byzantium/eip196_ec_add_mul/test_gas.py#L68",
            "opcode_count": {},
            "reference-spec": "https://github.com/ethereum/EIPs/blob/master/EIPS/eip-196.md",
            "reference-spec-version": "6538d198b1db10784ddccd6931888d7ae718de75"
        }
    },
    "tests/byzantium/eip196_ec_add_mul/test_gas.py::test_invalid_gas_consumption[fork_Berlin-blockchain_test_from_state_test-extra_100k-ecadd]": {
        "network": "Berlin",
        "genesisBlockHeader": {
            "parentHash": "0x0000000000000000000000000000000000000000000000000000000000000000",
            "uncleHash": "0x1dcc4de8dec75d7aab85b567b6ccd41ad312451b948a7413f0a142fd40d49347",
            "coinbase": "0x0000000000000000000000000000000000000000",
            "stateRoot": "0xdef8b59ccd99b658d6b9f21aba5b79474c0433b5bbb35ed8a3e265bf0f9f4390",
            "transactionsTrie": "0x56e81f171bcc55a6ff8345e692c0f86e5b48e01b996cadc001622fb5e363b421",
            "receiptTrie": "0x56e81f171bcc55a6ff8345e692c0f86e5b48e01b996cadc001622fb5e363b421",
            "bloom": "0x00000000000000000000000000000000000000000000000000000000000000000000000000000000000000000000000000000000000000000000000000000000000000000000000000000000000000000000000000000000000000000000000000000000000000000000000000000000000000000000000000000000000000000000000000000000000000000000000000000000000000000000000000000000000000000000000000000000000000000000000000000000000000000000000000000000000000000000000000000000000000000000000000000000000000000000000000000000000000000000000000000000000000000000000000000000",
            "difficulty": "0x020000",
            "number": "0x00",
            "gasLimit": "0x07270e00",
            "gasUsed": "0x00",
            "timestamp": "0x00",
            "extraData": "0x00",
            "mixHash": "0x0000000000000000000000000000000000000000000000000000000000000000",
            "nonce": "0x0000000000000000",
            "hash": "0xedd7d702dc23347bd272408976c8417b293be554713b9f15ce3bd8ce2086d6ab"
        },
        "pre": {
            "0xf248cc4c7d12cfda4c8f4f2ac2deddb24f02be82": {
                "nonce": "0x01",
                "balance": "0x00",
                "code": "0x6001600052600360205260006040526000606052600060006000600060066000fa505a6000600060806000600662018736fa5a9050900360125a5a900301900360005500",
                "storage": {}
            },
            "0x1ad9bc24818784172ff393bb6f89f094d4d2ca29": {
                "nonce": "0x00",
                "balance": "0x3635c9adc5dea00000",
                "code": "0x",
                "storage": {}
            }
        },
        "postState": {
            "0xf248cc4c7d12cfda4c8f4f2ac2deddb24f02be82": {
                "nonce": "0x01",
                "balance": "0x00",
                "code": "0x6001600052600360205260006040526000606052600060006000600060066000fa505a6000600060806000600662018736fa5a9050900360125a5a900301900360005500",
                "storage": {
                    "0x00": "0x01879a"
                }
            },
            "0x1ad9bc24818784172ff393bb6f89f094d4d2ca29": {
                "nonce": "0x01",
                "balance": "0x3635c9adc5de8a1790",
                "code": "0x",
                "storage": {}
            },
            "0x2adc25665018aa1fe0e6bc666dac8fc2697ff9ba": {
                "nonce": "0x00",
                "balance": "0x1bc16d674edde870",
                "code": "0x",
                "storage": {}
            }
        },
        "lastblockhash": "0x02d01b198a97d6666e52db980cff46a6c9d7e51d698b2130081815f6c657f15d",
        "config": {
            "network": "Berlin",
            "chainid": "0x01"
        },
        "genesisRLP": "0xf901f9f901f4a00000000000000000000000000000000000000000000000000000000000000000a01dcc4de8dec75d7aab85b567b6ccd41ad312451b948a7413f0a142fd40d49347940000000000000000000000000000000000000000a0def8b59ccd99b658d6b9f21aba5b79474c0433b5bbb35ed8a3e265bf0f9f4390a056e81f171bcc55a6ff8345e692c0f86e5b48e01b996cadc001622fb5e363b421a056e81f171bcc55a6ff8345e692c0f86e5b48e01b996cadc001622fb5e363b421b901000000000000000000000000000000000000000000000000000000000000000000000000000000000000000000000000000000000000000000000000000000000000000000000000000000000000000000000000000000000000000000000000000000000000000000000000000000000000000000000000000000000000000000000000000000000000000000000000000000000000000000000000000000000000000000000000000000000000000000000000000000000000000000000000000000000000000000000000000000000000000000000000000000000000000000000000000000000000000000000000000000000000000000000000000000000083020000808407270e00808000a00000000000000000000000000000000000000000000000000000000000000000880000000000000000c0c0",
        "blocks": [
            {
                "blockHeader": {
                    "parentHash": "0xedd7d702dc23347bd272408976c8417b293be554713b9f15ce3bd8ce2086d6ab",
                    "uncleHash": "0x1dcc4de8dec75d7aab85b567b6ccd41ad312451b948a7413f0a142fd40d49347",
                    "coinbase": "0x2adc25665018aa1fe0e6bc666dac8fc2697ff9ba",
                    "stateRoot": "0x3eb661e8adde303790969ef74d43435dca63d992f165359478c9bb688971e9e1",
                    "transactionsTrie": "0x991972259e5a7402346d0cf0b8a871b1369fa927b4a01304fd904c05fc3e15a7",
                    "receiptTrie": "0xf11c665eb1b003ff29fdc312b7d3f9842bc4c02b399c805420ad19915139504b",
                    "bloom": "0x00000000000000000000000000000000000000000000000000000000000000000000000000000000000000000000000000000000000000000000000000000000000000000000000000000000000000000000000000000000000000000000000000000000000000000000000000000000000000000000000000000000000000000000000000000000000000000000000000000000000000000000000000000000000000000000000000000000000000000000000000000000000000000000000000000000000000000000000000000000000000000000000000000000000000000000000000000000000000000000000000000000000000000000000000000000",
                    "difficulty": "0x020000",
                    "number": "0x01",
                    "gasLimit": "0x07270e00",
                    "gasUsed": "0x0230d8",
                    "timestamp": "0x03e8",
                    "extraData": "0x00",
                    "mixHash": "0x0000000000000000000000000000000000000000000000000000000000000000",
                    "nonce": "0x0000000000000000",
                    "hash": "0x02d01b198a97d6666e52db980cff46a6c9d7e51d698b2130081815f6c657f15d"
                },
                "transactions": [
                    {
                        "type": "0x00",
                        "chainId": "0x01",
                        "nonce": "0x00",
                        "gasPrice": "0x0a",
                        "gasLimit": "0x0f4240",
                        "to": "0xf248cc4c7d12cfda4c8f4f2ac2deddb24f02be82",
                        "value": "0x00",
                        "data": "0x",
                        "v": "0x26",
                        "r": "0x1a3e60aa9d05e1c5c10a74147b391910316d74c98d61f9ee5bb5f487098d6662",
                        "s": "0x25dec1d9a13224775a97f14da603676ced8591f61abeef7fc284b8b1d1fa6a1a",
                        "sender": "0x1ad9bc24818784172ff393bb6f89f094d4d2ca29"
                    }
                ],
                "uncleHeaders": [],
                "receipts": [
                    {
                        "transactionHash": "0x4d8dc7c90660525393f86f163f91882f81e452a774f93300d1cc30e6ac2e8095",
                        "type": "0x00",
                        "cumulativeGasUsed": "0x0230d8",
                        "bloom": "0x00000000000000000000000000000000000000000000000000000000000000000000000000000000000000000000000000000000000000000000000000000000000000000000000000000000000000000000000000000000000000000000000000000000000000000000000000000000000000000000000000000000000000000000000000000000000000000000000000000000000000000000000000000000000000000000000000000000000000000000000000000000000000000000000000000000000000000000000000000000000000000000000000000000000000000000000000000000000000000000000000000000000000000000000000000000",
                        "logs": [],
                        "status": true,
                        "rlp": "0xf9010901830230d8b9010000000000000000000000000000000000000000000000000000000000000000000000000000000000000000000000000000000000000000000000000000000000000000000000000000000000000000000000000000000000000000000000000000000000000000000000000000000000000000000000000000000000000000000000000000000000000000000000000000000000000000000000000000000000000000000000000000000000000000000000000000000000000000000000000000000000000000000000000000000000000000000000000000000000000000000000000000000000000000000000000000000000000000000000000000000000c0"
                    }
                ],
                "rlp": "0xf90261f901f9a0edd7d702dc23347bd272408976c8417b293be554713b9f15ce3bd8ce2086d6aba01dcc4de8dec75d7aab85b567b6ccd41ad312451b948a7413f0a142fd40d49347942adc25665018aa1fe0e6bc666dac8fc2697ff9baa03eb661e8adde303790969ef74d43435dca63d992f165359478c9bb688971e9e1a0991972259e5a7402346d0cf0b8a871b1369fa927b4a01304fd904c05fc3e15a7a0f11c665eb1b003ff29fdc312b7d3f9842bc4c02b399c805420ad19915139504bb901000000000000000000000000000000000000000000000000000000000000000000000000000000000000000000000000000000000000000000000000000000000000000000000000000000000000000000000000000000000000000000000000000000000000000000000000000000000000000000000000000000000000000000000000000000000000000000000000000000000000000000000000000000000000000000000000000000000000000000000000000000000000000000000000000000000000000000000000000000000000000000000000000000000000000000000000000000000000000000000000000000000000000000000000000000000083020000018407270e00830230d88203e800a00000000000000000000000000000000000000000000000000000000000000000880000000000000000f862f860800a830f424094f248cc4c7d12cfda4c8f4f2ac2deddb24f02be82808026a01a3e60aa9d05e1c5c10a74147b391910316d74c98d61f9ee5bb5f487098d6662a025dec1d9a13224775a97f14da603676ced8591f61abeef7fc284b8b1d1fa6a1ac0",
                "blocknumber": "1"
            }
        ],
        "sealEngine": "NoProof",
        "_info": {
            "hash": "0x63c5f2d073f53b0155637d5fdce3e648537eacbb448e47103f1bf3b9c8dcd407",
            "fixture-format": "blockchain_test",
            "comment": "`execution-specs` generated test",
            "filling-transition-tool": "2.19.0",
            "description": "Test that invalid inputs to ecadd/ecmul consume all forwarded gas.\n\nUse CodeGasMeasure to verify the STATICCALL with invalid input\nconsumes exactly the warm call cost plus all forwarded gas.",
            "url": "https://github.com/ethereum/execution-specs/blob/tests-bal@v5.5.1/tests/byzantium/eip196_ec_add_mul/test_gas.py#L68",
            "opcode_count": {},
            "reference-spec": "https://github.com/ethereum/EIPs/blob/master/EIPS/eip-196.md",
            "reference-spec-version": "6538d198b1db10784ddccd6931888d7ae718de75"
        }
    },
    "tests/byzantium/eip196_ec_add_mul/test_gas.py::test_invalid_gas_consumption[fork_Berlin-blockchain_test_from_state_test-extra_100k-ecmul]": {
        "network": "Berlin",
        "genesisBlockHeader": {
            "parentHash": "0x0000000000000000000000000000000000000000000000000000000000000000",
            "uncleHash": "0x1dcc4de8dec75d7aab85b567b6ccd41ad312451b948a7413f0a142fd40d49347",
            "coinbase": "0x0000000000000000000000000000000000000000",
            "stateRoot": "0x2b0742d17b9532e414050485918b0698c2489dfa2a082a15014577562bb03451",
            "transactionsTrie": "0x56e81f171bcc55a6ff8345e692c0f86e5b48e01b996cadc001622fb5e363b421",
            "receiptTrie": "0x56e81f171bcc55a6ff8345e692c0f86e5b48e01b996cadc001622fb5e363b421",
            "bloom": "0x00000000000000000000000000000000000000000000000000000000000000000000000000000000000000000000000000000000000000000000000000000000000000000000000000000000000000000000000000000000000000000000000000000000000000000000000000000000000000000000000000000000000000000000000000000000000000000000000000000000000000000000000000000000000000000000000000000000000000000000000000000000000000000000000000000000000000000000000000000000000000000000000000000000000000000000000000000000000000000000000000000000000000000000000000000000",
            "difficulty": "0x020000",
            "number": "0x00",
            "gasLimit": "0x07270e00",
            "gasUsed": "0x00",
            "timestamp": "0x00",
            "extraData": "0x00",
            "mixHash": "0x0000000000000000000000000000000000000000000000000000000000000000",
            "nonce": "0x0000000000000000",
            "hash": "0xd0acad20ae5a1815d847f8c0a259a2f7fd2bcaea8ac261b070ec103c6e529b5a"
        },
        "pre": {
            "0xf74d56b9d883da3df180d398e61559ce8b4a72c8": {
                "nonce": "0x01",
                "balance": "0x00",
                "code": "0x600160005260036020526001604052600060006000600060076000fa505a6000600060606000600762019e10fa5a9050900360125a5a900301900360005500",
                "storage": {}
            },
            "0x1ad9bc24818784172ff393bb6f89f094d4d2ca29": {
                "nonce": "0x00",
                "balance": "0x3635c9adc5dea00000",
                "code": "0x",
                "storage": {}
            }
        },
        "postState": {
            "0xf74d56b9d883da3df180d398e61559ce8b4a72c8": {
                "nonce": "0x01",
                "balance": "0x00",
                "code": "0x600160005260036020526001604052600060006000600060076000fa505a6000600060606000600762019e10fa5a9050900360125a5a900301900360005500",
                "storage": {
                    "0x00": "0x019e74"
                }
            },
            "0x1ad9bc24818784172ff393bb6f89f094d4d2ca29": {
                "nonce": "0x01",
                "balance": "0x3635c9adc5de893384",
                "code": "0x",
                "storage": {}
            },
            "0x2adc25665018aa1fe0e6bc666dac8fc2697ff9ba": {
                "nonce": "0x00",
                "balance": "0x1bc16d674edecc7c",
                "code": "0x",
                "storage": {}
            }
        },
        "lastblockhash": "0x4e1e0075d4830421ed40972d6447891f738ecbabdc089ee0c6941ad91211a4a0",
        "config": {
            "network": "Berlin",
            "chainid": "0x01"
        },
        "genesisRLP": "0xf901f9f901f4a00000000000000000000000000000000000000000000000000000000000000000a01dcc4de8dec75d7aab85b567b6ccd41ad312451b948a7413f0a142fd40d49347940000000000000000000000000000000000000000a02b0742d17b9532e414050485918b0698c2489dfa2a082a15014577562bb03451a056e81f171bcc55a6ff8345e692c0f86e5b48e01b996cadc001622fb5e363b421a056e81f171bcc55a6ff8345e692c0f86e5b48e01b996cadc001622fb5e363b421b901000000000000000000000000000000000000000000000000000000000000000000000000000000000000000000000000000000000000000000000000000000000000000000000000000000000000000000000000000000000000000000000000000000000000000000000000000000000000000000000000000000000000000000000000000000000000000000000000000000000000000000000000000000000000000000000000000000000000000000000000000000000000000000000000000000000000000000000000000000000000000000000000000000000000000000000000000000000000000000000000000000000000000000000000000000000083020000808407270e00808000a00000000000000000000000000000000000000000000000000000000000000000880000000000000000c0c0",
        "blocks": [
            {
                "blockHeader": {
                    "parentHash": "0xd0acad20ae5a1815d847f8c0a259a2f7fd2bcaea8ac261b070ec103c6e529b5a",
                    "uncleHash": "0x1dcc4de8dec75d7aab85b567b6ccd41ad312451b948a7413f0a142fd40d49347",
                    "coinbase": "0x2adc25665018aa1fe0e6bc666dac8fc2697ff9ba",
                    "stateRoot": "0xd2df177ef9dfa50e11d75830476fb396ae14234908e053ceccff5669c5f573af",
                    "transactionsTrie": "0x2acbddc8c14928709a0ded8264444590486ce5e6e0a76e986be7b8b6fce8309b",
                    "receiptTrie": "0x29efcb412b9f7a1b53e04da7d1aa0541c75810efc8d9ce1eb6fcdaada0ca7d37",
                    "bloom": "0x00000000000000000000000000000000000000000000000000000000000000000000000000000000000000000000000000000000000000000000000000000000000000000000000000000000000000000000000000000000000000000000000000000000000000000000000000000000000000000000000000000000000000000000000000000000000000000000000000000000000000000000000000000000000000000000000000000000000000000000000000000000000000000000000000000000000000000000000000000000000000000000000000000000000000000000000000000000000000000000000000000000000000000000000000000000",
                    "difficulty": "0x020000",
                    "number": "0x01",
                    "gasLimit": "0x07270e00",
                    "gasUsed": "0x0247a6",
                    "timestamp": "0x03e8",
                    "extraData": "0x00",
                    "mixHash": "0x0000000000000000000000000000000000000000000000000000000000000000",
                    "nonce": "0x0000000000000000",
                    "hash": "0x4e1e0075d4830421ed40972d6447891f738ecbabdc089ee0c6941ad91211a4a0"
                },
                "transactions": [
                    {
                        "type": "0x00",
                        "chainId": "0x01",
                        "nonce": "0x00",
                        "gasPrice": "0x0a",
                        "gasLimit": "0x0f4240",
                        "to": "0xf74d56b9d883da3df180d398e61559ce8b4a72c8",
                        "value": "0x00",
                        "data": "0x",
                        "v": "0x26",
                        "r": "0xdcb116e2b1d7deea078e6efaefcae002858560eaf27b50abb950bed9e18ff6e8",
                        "s": "0x42bb1d9c5f73987203065713dfb5bac900f6680b987ed02d0bcfa46d25ca8d87",
                        "sender": "0x1ad9bc24818784172ff393bb6f89f094d4d2ca29"
                    }
                ],
                "uncleHeaders": [],
                "receipts": [
                    {
                        "transactionHash": "0x589ac0cb3aeb10d9e2c4c39322e52ae846933ea241c4b705ce1d9d7848ef7308",
                        "type": "0x00",
                        "cumulativeGasUsed": "0x0247a6",
                        "bloom": "0x00000000000000000000000000000000000000000000000000000000000000000000000000000000000000000000000000000000000000000000000000000000000000000000000000000000000000000000000000000000000000000000000000000000000000000000000000000000000000000000000000000000000000000000000000000000000000000000000000000000000000000000000000000000000000000000000000000000000000000000000000000000000000000000000000000000000000000000000000000000000000000000000000000000000000000000000000000000000000000000000000000000000000000000000000000000",
                        "logs": [],
                        "status": true,
                        "rlp": "0xf9010901830247a6b9010000000000000000000000000000000000000000000000000000000000000000000000000000000000000000000000000000000000000000000000000000000000000000000000000000000000000000000000000000000000000000000000000000000000000000000000000000000000000000000000000000000000000000000000000000000000000000000000000000000000000000000000000000000000000000000000000000000000000000000000000000000000000000000000000000000000000000000000000000000000000000000000000000000000000000000000000000000000000000000000000000000000000000000000000000000000c0"
                    }
                ],
                "rlp": "0xf90261f901f9a0d0acad20ae5a1815d847f8c0a259a2f7fd2bcaea8ac261b070ec103c6e529b5aa01dcc4de8dec75d7aab85b567b6ccd41ad312451b948a7413f0a142fd40d49347942adc25665018aa1fe0e6bc666dac8fc2697ff9baa0d2df177ef9dfa50e11d75830476fb396ae14234908e053ceccff5669c5f573afa02acbddc8c14928709a0ded8264444590486ce5e6e0a76e986be7b8b6fce8309ba029efcb412b9f7a1b53e04da7d1aa0541c75810efc8d9ce1eb6fcdaada0ca7d37b901000000000000000000000000000000000000000000000000000000000000000000000000000000000000000000000000000000000000000000000000000000000000000000000000000000000000000000000000000000000000000000000000000000000000000000000000000000000000000000000000000000000000000000000000000000000000000000000000000000000000000000000000000000000000000000000000000000000000000000000000000000000000000000000000000000000000000000000000000000000000000000000000000000000000000000000000000000000000000000000000000000000000000000000000000000000083020000018407270e00830247a68203e800a00000000000000000000000000000000000000000000000000000000000000000880000000000000000f862f860800a830f424094f74d56b9d883da3df180d398e61559ce8b4a72c8808026a0dcb116e2b1d7deea078e6efaefcae002858560eaf27b50abb950bed9e18ff6e8a042bb1d9c5f73987203065713dfb5bac900f6680b987ed02d0bcfa46d25ca8d87c0",
                "blocknumber": "1"
            }
        ],
        "sealEngine": "NoProof",
        "_info": {
            "hash": "0xa77a6a3d688e6934c711b4d5a31a24bc1158321489a7476c44844cd3f5e3492d",
            "fixture-format": "blockchain_test",
            "comment": "`execution-specs` generated test",
            "filling-transition-tool": "2.19.0",
            "description": "Test that invalid inputs to ecadd/ecmul consume all forwarded gas.\n\nUse CodeGasMeasure to verify the STATICCALL with invalid input\nconsumes exactly the warm call cost plus all forwarded gas.",
            "url": "https://github.com/ethereum/execution-specs/blob/tests-bal@v5.5.1/tests/byzantium/eip196_ec_add_mul/test_gas.py#L68",
            "opcode_count": {},
            "reference-spec": "https://github.com/ethereum/EIPs/blob/master/EIPS/eip-196.md",
            "reference-spec-version": "6538d198b1db10784ddccd6931888d7ae718de75"
        }
    }
}