{
    "tests/osaka/eip7883_modexp_gas_increase/test_modexp_thresholds.py::test_modexp_gas_usage_contract_wrapper[fork_Paris-blockchain_test_from_state_test-exact_gas]": {
        "network": "Paris",
        "genesisBlockHeader": {
            "parentHash": "0x0000000000000000000000000000000000000000000000000000000000000000",
            "uncleHash": "0x1dcc4de8dec75d7aab85b567b6ccd41ad312451b948a7413f0a142fd40d49347",
            "coinbase": "0x0000000000000000000000000000000000000000",
            "stateRoot": "0x0457e30b1c7884af6805461626c57360d94c0a19e38908a8deb3fea85cf9e5b3",
            "transactionsTrie": "0x56e81f171bcc55a6ff8345e692c0f86e5b48e01b996cadc001622fb5e363b421",
            "receiptTrie": "0x56e81f171bcc55a6ff8345e692c0f86e5b48e01b996cadc001622fb5e363b421",
            "bloom": "0x00000000000000000000000000000000000000000000000000000000000000000000000000000000000000000000000000000000000000000000000000000000000000000000000000000000000000000000000000000000000000000000000000000000000000000000000000000000000000000000000000000000000000000000000000000000000000000000000000000000000000000000000000000000000000000000000000000000000000000000000000000000000000000000000000000000000000000000000000000000000000000000000000000000000000000000000000000000000000000000000000000000000000000000000000000000",
            "difficulty": "0x00",
            "number": "0x00",
            "gasLimit": "0x07270e00",
            "gasUsed": "0x00",
            "timestamp": "0x00",
            "extraData": "0x00",
            "mixHash": "0x0000000000000000000000000000000000000000000000000000000000000000",
            "nonce": "0x0000000000000000",
            "baseFeePerGas": "0x07",
            "hash": "0x4eeecee93526e379dea3f443208a5c26fd0df21aa26ac2ec124b6aeffaab7eda"
        },
        "pre": {
            "0xdec6233551179d0ae1449879f4f6de9e6cabeb29": {
                "nonce": "0x01",
                "balance": "0x00",
                "code": "0x3660006000375a600060003660006000600560c8f15a906000553d60015561007a0190036002553d600060003e3d600020600355",
                "storage": {}
            },
            "0x1ad9bc24818784172ff393bb6f89f094d4d2ca29": {
                "nonce": "0x00",
                "balance": "0x3635c9adc5dea00000",
                "code": "0x",
                "storage": {}
            }
        },
        "postState": {
            "0xdec6233551179d0ae1449879f4f6de9e6cabeb29": {
                "nonce": "0x01",
                "balance": "0x00",
                "code": "0x3660006000375a600060003660006000600560c8f15a906000553d60015561007a0190036002553d600060003e3d600020600355",
                "storage": {
                    "0x00": "0x01",
                    "0x01": "0x28",
                    "0x02": "0xc8",
                    "0x03": "0x7f8a6c56dfa7eb36c5813257a65db0d4503a9c3b69afc9247d97efb4af16ac18"
                }
            },
            "0x1ad9bc24818784172ff393bb6f89f094d4d2ca29": {
                "nonce": "0x01",
                "balance": "0x3635c9adc5de941454",
                "code": "0x",
                "storage": {}
            }
        },
        "lastblockhash": "0xf1805ba387d7a530e364b4ca1b256da72d056b28b6c3e0c2e35c4ae4def87dd9",
        "config": {
            "network": "Paris",
            "chainid": "0x01"
        },
        "genesisRLP": "0xf901f7f901f2a00000000000000000000000000000000000000000000000000000000000000000a01dcc4de8dec75d7aab85b567b6ccd41ad312451b948a7413f0a142fd40d49347940000000000000000000000000000000000000000a00457e30b1c7884af6805461626c57360d94c0a19e38908a8deb3fea85cf9e5b3a056e81f171bcc55a6ff8345e692c0f86e5b48e01b996cadc001622fb5e363b421a056e81f171bcc55a6ff8345e692c0f86e5b48e01b996cadc001622fb5e363b421b901000000000000000000000000000000000000000000000000000000000000000000000000000000000000000000000000000000000000000000000000000000000000000000000000000000000000000000000000000000000000000000000000000000000000000000000000000000000000000000000000000000000000000000000000000000000000000000000000000000000000000000000000000000000000000000000000000000000000000000000000000000000000000000000000000000000000000000000000000000000000000000000000000000000000000000000000000000000000000000000000000000000000000000000000000000000080808407270e00808000a0000000000000000000000000000000000000000000000000000000000000000088000000000000000007c0c0",
        "blocks": [
            {
                "blockHeader": {
                    "parentHash": "0x4eeecee93526e379dea3f443208a5c26fd0df21aa26ac2ec124b6aeffaab7eda",
                    "uncleHash": "0x1dcc4de8dec75d7aab85b567b6ccd41ad312451b948a7413f0a142fd40d49347",
                    "coinbase": "0x2adc25665018aa1fe0e6bc666dac8fc2697ff9ba",
                    "stateRoot": "0xd1457b87c66f465638700e4758d98a2df752cc390971758486cb39e703219b16",
                    "transactionsTrie": "0x91de1c84c5d87fa4b66110a0ec2fe5590914e66b9881b1b0497344db9a6655ab",
                    "receiptTrie": "0x15144d30c9924a0b9b5c95db79a51ce2cba0977842e212318c5a0fc3c47779a0",
                    "bloom": "0x00000000000000000000000000000000000000000000000000000000000000000000000000000000000000000000000000000000000000000000000000000000000000000000000000000000000000000000000000000000000000000000000000000000000000000000000000000000000000000000000000000000000000000000000000000000000000000000000000000000000000000000000000000000000000000000000000000000000000000000000000000000000000000000000000000000000000000000000000000000000000000000000000000000000000000000000000000000000000000000000000000000000000000000000000000000",
                    "difficulty": "0x00",
                    "number": "0x01",
                    "gasLimit": "0x07270e00",
                    "gasUsed": "0x01b3f4",
                    "timestamp": "0x03e8",
                    "extraData": "0x00",
                    "mixHash": "0x0000000000000000000000000000000000000000000000000000000000000000",
                    "nonce": "0x0000000000000000",
                    "baseFeePerGas": "0x07",
                    "hash": "0xf1805ba387d7a530e364b4ca1b256da72d056b28b6c3e0c2e35c4ae4def87dd9"
                },
                "transactions": [
                    {
                        "type": "0x02",
                        "chainId": "0x01",
                        "nonce": "0x00",
                        "maxPriorityFeePerGas": "0x00",
                        "maxFeePerGas": "0x07",
                        "gasLimit": "0x022e6e",
                        "to": "0xdec6233551179d0ae1449879f4f6de9e6cabeb29",
                        "value": "0x00",
                        "data": "0x000000000000000000000000000000000000000000000000000000000000002800000000000000000000000000000000000000000000000000000000000000040000000000000000000000000000000000000000000000000000000000000028e8e77626586f73b955364c7b4bbf0bb7f7685ebd40e852b164633a4acbd3244c000102030405060701fffffff01681d2220bfea4bb888a5543db8c0916274ddb1ea93b144c042c01d8164c950001020304050607",
                        "accessList": [],
                        "v": "0x00",
                        "r": "0xb8ee957e8d13e5b1139b5f713cc53a8cbf36db4c23cfa0aadf408f803e53f108",
                        "s": "0x29c065f5cd5e4faed8f5a5808eee85f55eb5a25b059a11ea53ebf8ca5def168c",
                        "sender": "0x1ad9bc24818784172ff393bb6f89f094d4d2ca29"
                    }
                ],
                "uncleHeaders": [],
                "receipts": [
                    {
                        "transactionHash": "0x79a2c0b32a50433b0716b980526e987b102ddbdb5860c3a2166f714a3a2907c7",
                        "type": "0x02",
                        "cumulativeGasUsed": "0x01b3f4",
                        "bloom": "0x00000000000000000000000000000000000000000000000000000000000000000000000000000000000000000000000000000000000000000000000000000000000000000000000000000000000000000000000000000000000000000000000000000000000000000000000000000000000000000000000000000000000000000000000000000000000000000000000000000000000000000000000000000000000000000000000000000000000000000000000000000000000000000000000000000000000000000000000000000000000000000000000000000000000000000000000000000000000000000000000000000000000000000000000000000000",
                        "logs": [],
                        "status": true,
                        "rlp": "0x02f90109018301b3f4b9010000000000000000000000000000000000000000000000000000000000000000000000000000000000000000000000000000000000000000000000000000000000000000000000000000000000000000000000000000000000000000000000000000000000000000000000000000000000000000000000000000000000000000000000000000000000000000000000000000000000000000000000000000000000000000000000000000000000000000000000000000000000000000000000000000000000000000000000000000000000000000000000000000000000000000000000000000000000000000000000000000000000000000000000000000000000c0"
                    }
                ],
                "rlp": "0xf9031df901f7a04eeecee93526e379dea3f443208a5c26fd0df21aa26ac2ec124b6aeffaab7edaa01dcc4de8dec75d7aab85b567b6ccd41ad312451b948a7413f0a142fd40d49347942adc25665018aa1fe0e6bc666dac8fc2697ff9baa0d1457b87c66f465638700e4758d98a2df752cc390971758486cb39e703219b16a091de1c84c5d87fa4b66110a0ec2fe5590914e66b9881b1b0497344db9a6655aba015144d30c9924a0b9b5c95db79a51ce2cba0977842e212318c5a0fc3c47779a0b901000000000000000000000000000000000000000000000000000000000000000000000000000000000000000000000000000000000000000000000000000000000000000000000000000000000000000000000000000000000000000000000000000000000000000000000000000000000000000000000000000000000000000000000000000000000000000000000000000000000000000000000000000000000000000000000000000000000000000000000000000000000000000000000000000000000000000000000000000000000000000000000000000000000000000000000000000000000000000000000000000000000000000000000000000000000080018407270e008301b3f48203e800a0000000000000000000000000000000000000000000000000000000000000000088000000000000000007f9011fb9011c02f901180180800783022e6e94dec6233551179d0ae1449879f4f6de9e6cabeb2980b8b4000000000000000000000000000000000000000000000000000000000000002800000000000000000000000000000000000000000000000000000000000000040000000000000000000000000000000000000000000000000000000000000028e8e77626586f73b955364c7b4bbf0bb7f7685ebd40e852b164633a4acbd3244c000102030405060701fffffff01681d2220bfea4bb888a5543db8c0916274ddb1ea93b144c042c01d8164c950001020304050607c080a0b8ee957e8d13e5b1139b5f713cc53a8cbf36db4c23cfa0aadf408f803e53f108a029c065f5cd5e4faed8f5a5808eee85f55eb5a25b059a11ea53ebf8ca5def168cc0",
                "blocknumber": "1"
            }
        ],
        "sealEngine": "NoProof",
        "_info": {
            "hash": "0xe545fda14253e2b8a93623777b23c7fb32fe36fb752014987c35585816c5a780",
            "fixture-format": "blockchain_test",
            "comment": "`execution-specs` generated test",
            "filling-transition-tool": "2.19.0",
            "description": "Test ModExp gas cost with different gas modifiers using contract wrapper\ncalls.",
            "url": "https://github.com/ethereum/execution-specs/blob/tests-snobal-devnet-5@v8037.0.0/tests/osaka/eip7883_modexp_gas_increase/test_modexp_thresholds.py#L306",
            "metadata": {
                "opcode_count": {}
            },
            "reference-spec": "https://github.com/ethereum/EIPs/blob/master/EIPS/eip-7883.md",
            "reference-spec-version": "13aa65810336d4f243d4563a828d5afe36035d23"
        }
    },
    "tests/osaka/eip7883_modexp_gas_increase/test_modexp_thresholds.py::test_modexp_gas_usage_contract_wrapper[fork_Paris-blockchain_test_from_state_test-excessive_gas]": {
        "network": "Paris",
        "genesisBlockHeader": {
            "parentHash": "0x0000000000000000000000000000000000000000000000000000000000000000",
            "uncleHash": "0x1dcc4de8dec75d7aab85b567b6ccd41ad312451b948a7413f0a142fd40d49347",
            "coinbase": "0x0000000000000000000000000000000000000000",
            "stateRoot": "0xdbb1575aabdb3e1c39cafed958d888261b5f859806a2c14225cf6b7ed15960a9",
            "transactionsTrie": "0x56e81f171bcc55a6ff8345e692c0f86e5b48e01b996cadc001622fb5e363b421",
            "receiptTrie": "0x56e81f171bcc55a6ff8345e692c0f86e5b48e01b996cadc001622fb5e363b421",
            "bloom": "0x00000000000000000000000000000000000000000000000000000000000000000000000000000000000000000000000000000000000000000000000000000000000000000000000000000000000000000000000000000000000000000000000000000000000000000000000000000000000000000000000000000000000000000000000000000000000000000000000000000000000000000000000000000000000000000000000000000000000000000000000000000000000000000000000000000000000000000000000000000000000000000000000000000000000000000000000000000000000000000000000000000000000000000000000000000000",
            "difficulty": "0x00",
            "number": "0x00",
            "gasLimit": "0x07270e00",
            "gasUsed": "0x00",
            "timestamp": "0x00",
            "extraData": "0x00",
            "mixHash": "0x0000000000000000000000000000000000000000000000000000000000000000",
            "nonce": "0x0000000000000000",
            "baseFeePerGas": "0x07",
            "hash": "0xef6f714a0d1bd4e1bc067cbaed7defa2b2d4bdc990478eae7bbc20664a17293d"
        },
        "pre": {
            "0x7fb77641dca1d7ffcac7eb2d6598f2dc3e58c53c": {
                "nonce": "0x01",
                "balance": "0x00",
                "code": "0x3660006000375a60006000366000600060056307270e00f15a906000553d60015561007a0190036002553d600060003e3d600020600355",
                "storage": {}
            },
            "0x1ad9bc24818784172ff393bb6f89f094d4d2ca29": {
                "nonce": "0x00",
                "balance": "0x3635c9adc5dea00000",
                "code": "0x",
                "storage": {}
            }
        },
        "postState": {
            "0x7fb77641dca1d7ffcac7eb2d6598f2dc3e58c53c": {
                "nonce": "0x01",
                "balance": "0x00",
                "code": "0x3660006000375a60006000366000600060056307270e00f15a906000553d60015561007a0190036002553d600060003e3d600020600355",
                "storage": {
                    "0x00": "0x01",
                    "0x01": "0x28",
                    "0x02": "0xc8",
                    "0x03": "0x7f8a6c56dfa7eb36c5813257a65db0d4503a9c3b69afc9247d97efb4af16ac18"
                }
            },
            "0x1ad9bc24818784172ff393bb6f89f094d4d2ca29": {
                "nonce": "0x01",
                "balance": "0x3635c9adc5de941454",
                "code": "0x",
                "storage": {}
            }
        },
        "lastblockhash": "0x66fc4cb8ac8b640d801eb77c65ab3122ceaa7472ffc8c9b27ecaed0e8886a8bb",
        "config": {
            "network": "Paris",
            "chainid": "0x01"
        },
        "genesisRLP": "0xf901f7f901f2a00000000000000000000000000000000000000000000000000000000000000000a01dcc4de8dec75d7aab85b567b6ccd41ad312451b948a7413f0a142fd40d49347940000000000000000000000000000000000000000a0dbb1575aabdb3e1c39cafed958d888261b5f859806a2c14225cf6b7ed15960a9a056e81f171bcc55a6ff8345e692c0f86e5b48e01b996cadc001622fb5e363b421a056e81f171bcc55a6ff8345e692c0f86e5b48e01b996cadc001622fb5e363b421b901000000000000000000000000000000000000000000000000000000000000000000000000000000000000000000000000000000000000000000000000000000000000000000000000000000000000000000000000000000000000000000000000000000000000000000000000000000000000000000000000000000000000000000000000000000000000000000000000000000000000000000000000000000000000000000000000000000000000000000000000000000000000000000000000000000000000000000000000000000000000000000000000000000000000000000000000000000000000000000000000000000000000000000000000000000000080808407270e00808000a0000000000000000000000000000000000000000000000000000000000000000088000000000000000007c0c0",
        "blocks": [
            {
                "blockHeader": {
                    "parentHash": "0xef6f714a0d1bd4e1bc067cbaed7defa2b2d4bdc990478eae7bbc20664a17293d",
                    "uncleHash": "0x1dcc4de8dec75d7aab85b567b6ccd41ad312451b948a7413f0a142fd40d49347",
                    "coinbase": "0x2adc25665018aa1fe0e6bc666dac8fc2697ff9ba",
                    "stateRoot": "0xf2ee20b10f841dedaa433c23741f81af216340fee27e278d2ef31f873c58a460",
                    "transactionsTrie": "0xe3ebc8528c5f9b17cdcd0ff5a1c504296f4bb13cb564a5aec4bf3d901444dc65",
                    "receiptTrie": "0x15144d30c9924a0b9b5c95db79a51ce2cba0977842e212318c5a0fc3c47779a0",
                    "bloom": "0x00000000000000000000000000000000000000000000000000000000000000000000000000000000000000000000000000000000000000000000000000000000000000000000000000000000000000000000000000000000000000000000000000000000000000000000000000000000000000000000000000000000000000000000000000000000000000000000000000000000000000000000000000000000000000000000000000000000000000000000000000000000000000000000000000000000000000000000000000000000000000000000000000000000000000000000000000000000000000000000000000000000000000000000000000000000",
                    "difficulty": "0x00",
                    "number": "0x01",
                    "gasLimit": "0x07270e00",
                    "gasUsed": "0x01b3f4",
                    "timestamp": "0x03e8",
                    "extraData": "0x00",
                    "mixHash": "0x0000000000000000000000000000000000000000000000000000000000000000",
                    "nonce": "0x0000000000000000",
                    "baseFeePerGas": "0x07",
                    "hash": "0x66fc4cb8ac8b640d801eb77c65ab3122ceaa7472ffc8c9b27ecaed0e8886a8bb"
                },
                "transactions": [
                    {
                        "type": "0x02",
                        "chainId": "0x01",
                        "nonce": "0x00",
                        "maxPriorityFeePerGas": "0x00",
                        "maxFeePerGas": "0x07",
                        "gasLimit": "0x022e6e",
                        "to": "0x7fb77641dca1d7ffcac7eb2d6598f2dc3e58c53c",
                        "value": "0x00",
                        "data": "0x000000000000000000000000000000000000000000000000000000000000002800000000000000000000000000000000000000000000000000000000000000040000000000000000000000000000000000000000000000000000000000000028e8e77626586f73b955364c7b4bbf0bb7f7685ebd40e852b164633a4acbd3244c000102030405060701fffffff01681d2220bfea4bb888a5543db8c0916274ddb1ea93b144c042c01d8164c950001020304050607",
                        "accessList": [],
                        "v": "0x00",
                        "r": "0x661edc704959035ebceb45cfaa229c2656236aaf345b0999d363e2f9f3ffbfbb",
                        "s": "0x1dc8e7cadd3fd592f9017635dbce0e509d62095a75e1ee6c95b64a9a6603dd7f",
                        "sender": "0x1ad9bc24818784172ff393bb6f89f094d4d2ca29"
                    }
                ],
                "uncleHeaders": [],
                "receipts": [
                    {
                        "transactionHash": "0x9a8e82f316ba8c2a240492c84d4883262e67e69139f7ac1a24f3fe3bcf7872fe",
                        "type": "0x02",
                        "cumulativeGasUsed": "0x01b3f4",
                        "bloom": "0x00000000000000000000000000000000000000000000000000000000000000000000000000000000000000000000000000000000000000000000000000000000000000000000000000000000000000000000000000000000000000000000000000000000000000000000000000000000000000000000000000000000000000000000000000000000000000000000000000000000000000000000000000000000000000000000000000000000000000000000000000000000000000000000000000000000000000000000000000000000000000000000000000000000000000000000000000000000000000000000000000000000000000000000000000000000",
                        "logs": [],
                        "status": true,
                        "rlp": "0x02f90109018301b3f4b9010000000000000000000000000000000000000000000000000000000000000000000000000000000000000000000000000000000000000000000000000000000000000000000000000000000000000000000000000000000000000000000000000000000000000000000000000000000000000000000000000000000000000000000000000000000000000000000000000000000000000000000000000000000000000000000000000000000000000000000000000000000000000000000000000000000000000000000000000000000000000000000000000000000000000000000000000000000000000000000000000000000000000000000000000000000000c0"
                    }
                ],
                "rlp": "0xf9031df901f7a0ef6f714a0d1bd4e1bc067cbaed7defa2b2d4bdc990478eae7bbc20664a17293da01dcc4de8dec75d7aab85b567b6ccd41ad312451b948a7413f0a142fd40d49347942adc25665018aa1fe0e6bc666dac8fc2697ff9baa0f2ee20b10f841dedaa433c23741f81af216340fee27e278d2ef31f873c58a460a0e3ebc8528c5f9b17cdcd0ff5a1c504296f4bb13cb564a5aec4bf3d901444dc65a015144d30c9924a0b9b5c95db79a51ce2cba0977842e212318c5a0fc3c47779a0b901000000000000000000000000000000000000000000000000000000000000000000000000000000000000000000000000000000000000000000000000000000000000000000000000000000000000000000000000000000000000000000000000000000000000000000000000000000000000000000000000000000000000000000000000000000000000000000000000000000000000000000000000000000000000000000000000000000000000000000000000000000000000000000000000000000000000000000000000000000000000000000000000000000000000000000000000000000000000000000000000000000000000000000000000000000000080018407270e008301b3f48203e800a0000000000000000000000000000000000000000000000000000000000000000088000000000000000007f9011fb9011c02f901180180800783022e6e947fb77641dca1d7ffcac7eb2d6598f2dc3e58c53c80b8b4000000000000000000000000000000000000000000000000000000000000002800000000000000000000000000000000000000000000000000000000000000040000000000000000000000000000000000000000000000000000000000000028e8e77626586f73b955364c7b4bbf0bb7f7685ebd40e852b164633a4acbd3244c000102030405060701fffffff01681d2220bfea4bb888a5543db8c0916274ddb1ea93b144c042c01d8164c950001020304050607c080a0661edc704959035ebceb45cfaa229c2656236aaf345b0999d363e2f9f3ffbfbba01dc8e7cadd3fd592f9017635dbce0e509d62095a75e1ee6c95b64a9a6603dd7fc0",
                "blocknumber": "1"
            }
        ],
        "sealEngine": "NoProof",
        "_info": {
            "hash": "0x47ab2af389483b75686ddcc56ee79e51d26193b1da1b5e03db1e413f3b85f25a",
            "fixture-format": "blockchain_test",
            "comment": "`execution-specs` generated test",
            "filling-transition-tool": "2.19.0",
            "description": "Test ModExp gas cost with different gas modifiers using contract wrapper\ncalls.",
            "url": "https://github.com/ethereum/execution-specs/blob/tests-snobal-devnet-5@v8037.0.0/tests/osaka/eip7883_modexp_gas_increase/test_modexp_thresholds.py#L306",
            "metadata": {
                "opcode_count": {}
            },
            "reference-spec": "https://github.com/ethereum/EIPs/blob/master/EIPS/eip-7883.md",
            "reference-spec-version": "13aa65810336d4f243d4563a828d5afe36035d23"
        }
    },
    "tests/osaka/eip7883_modexp_gas_increase/test_modexp_thresholds.py::test_modexp_gas_usage_contract_wrapper[fork_Paris-blockchain_test_from_state_test-extra_gas]": {
        "network": "Paris",
        "genesisBlockHeader": {
            "parentHash": "0x0000000000000000000000000000000000000000000000000000000000000000",
            "uncleHash": "0x1dcc4de8dec75d7aab85b567b6ccd41ad312451b948a7413f0a142fd40d49347",
            "coinbase": "0x0000000000000000000000000000000000000000",
            "stateRoot": "0xc51a8e6e4a4ad5ce47c7a2f208ab1805b67ee466029a470154c317e33b8e1eab",
            "transactionsTrie": "0x56e81f171bcc55a6ff8345e692c0f86e5b48e01b996cadc001622fb5e363b421",
            "receiptTrie": "0x56e81f171bcc55a6ff8345e692c0f86e5b48e01b996cadc001622fb5e363b421",
            "bloom": "0x00000000000000000000000000000000000000000000000000000000000000000000000000000000000000000000000000000000000000000000000000000000000000000000000000000000000000000000000000000000000000000000000000000000000000000000000000000000000000000000000000000000000000000000000000000000000000000000000000000000000000000000000000000000000000000000000000000000000000000000000000000000000000000000000000000000000000000000000000000000000000000000000000000000000000000000000000000000000000000000000000000000000000000000000000000000",
            "difficulty": "0x00",
            "number": "0x00",
            "gasLimit": "0x07270e00",
            "gasUsed": "0x00",
            "timestamp": "0x00",
            "extraData": "0x00",
            "mixHash": "0x0000000000000000000000000000000000000000000000000000000000000000",
            "nonce": "0x0000000000000000",
            "baseFeePerGas": "0x07",
            "hash": "0xb5f831af655ae8a63982a8ee7f0a70429c0e1305219a1450e03f07bb7ec3a16d"
        },
        "pre": {
            "0x8a3fc10a145927781ab2ce7657a456b942a10081": {
                "nonce": "0x01",
                "balance": "0x00",
                "code": "0x3660006000375a600060003660006000600560c9f15a906000553d60015561007a0190036002553d600060003e3d600020600355",
                "storage": {}
            },
            "0x1ad9bc24818784172ff393bb6f89f094d4d2ca29": {
                "nonce": "0x00",
                "balance": "0x3635c9adc5dea00000",
                "code": "0x",
                "storage": {}
            }
        },
        "postState": {
            "0x8a3fc10a145927781ab2ce7657a456b942a10081": {
                "nonce": "0x01",
                "balance": "0x00",
                "code": "0x3660006000375a600060003660006000600560c9f15a906000553d60015561007a0190036002553d600060003e3d600020600355",
                "storage": {
                    "0x00": "0x01",
                    "0x01": "0x28",
                    "0x02": "0xc8",
                    "0x03": "0x7f8a6c56dfa7eb36c5813257a65db0d4503a9c3b69afc9247d97efb4af16ac18"
                }
            },
            "0x1ad9bc24818784172ff393bb6f89f094d4d2ca29": {
                "nonce": "0x01",
                "balance": "0x3635c9adc5de941454",
                "code": "0x",
                "storage": {}
            }
        },
        "lastblockhash": "0xa2fdf2b74e4f930b7d5c55eda43388d2d629693d0a9e761b7fee478c707bfdec",
        "config": {
            "network": "Paris",
            "chainid": "0x01"
        },
        "genesisRLP": "0xf901f7f901f2a00000000000000000000000000000000000000000000000000000000000000000a01dcc4de8dec75d7aab85b567b6ccd41ad312451b948a7413f0a142fd40d49347940000000000000000000000000000000000000000a0c51a8e6e4a4ad5ce47c7a2f208ab1805b67ee466029a470154c317e33b8e1eaba056e81f171bcc55a6ff8345e692c0f86e5b48e01b996cadc001622fb5e363b421a056e81f171bcc55a6ff8345e692c0f86e5b48e01b996cadc001622fb5e363b421b901000000000000000000000000000000000000000000000000000000000000000000000000000000000000000000000000000000000000000000000000000000000000000000000000000000000000000000000000000000000000000000000000000000000000000000000000000000000000000000000000000000000000000000000000000000000000000000000000000000000000000000000000000000000000000000000000000000000000000000000000000000000000000000000000000000000000000000000000000000000000000000000000000000000000000000000000000000000000000000000000000000000000000000000000000000000080808407270e00808000a0000000000000000000000000000000000000000000000000000000000000000088000000000000000007c0c0",
        "blocks": [
            {
                "blockHeader": {
                    "parentHash": "0xb5f831af655ae8a63982a8ee7f0a70429c0e1305219a1450e03f07bb7ec3a16d",
                    "uncleHash": "0x1dcc4de8dec75d7aab85b567b6ccd41ad312451b948a7413f0a142fd40d49347",
                    "coinbase": "0x2adc25665018aa1fe0e6bc666dac8fc2697ff9ba",
                    "stateRoot": "0xceb5b11cdba69a84dd1af44e4ee4493dd481a2bf8e81cb99500b57bd60f76938",
                    "transactionsTrie": "0x7bd7680d0ec8fc37b3d9c975b96730ad0234f9fa10f90259e7dc922452fc19e2",
                    "receiptTrie": "0x15144d30c9924a0b9b5c95db79a51ce2cba0977842e212318c5a0fc3c47779a0",
                    "bloom": "0x00000000000000000000000000000000000000000000000000000000000000000000000000000000000000000000000000000000000000000000000000000000000000000000000000000000000000000000000000000000000000000000000000000000000000000000000000000000000000000000000000000000000000000000000000000000000000000000000000000000000000000000000000000000000000000000000000000000000000000000000000000000000000000000000000000000000000000000000000000000000000000000000000000000000000000000000000000000000000000000000000000000000000000000000000000000",
                    "difficulty": "0x00",
                    "number": "0x01",
                    "gasLimit": "0x07270e00",
                    "gasUsed": "0x01b3f4",
                    "timestamp": "0x03e8",
                    "extraData": "0x00",
                    "mixHash": "0x0000000000000000000000000000000000000000000000000000000000000000",
                    "nonce": "0x0000000000000000",
                    "baseFeePerGas": "0x07",
                    "hash": "0xa2fdf2b74e4f930b7d5c55eda43388d2d629693d0a9e761b7fee478c707bfdec"
                },
                "transactions": [
                    {
                        "type": "0x02",
                        "chainId": "0x01",
                        "nonce": "0x00",
                        "maxPriorityFeePerGas": "0x00",
                        "maxFeePerGas": "0x07",
                        "gasLimit": "0x022e6e",
                        "to": "0x8a3fc10a145927781ab2ce7657a456b942a10081",
                        "value": "0x00",
                        "data": "0x000000000000000000000000000000000000000000000000000000000000002800000000000000000000000000000000000000000000000000000000000000040000000000000000000000000000000000000000000000000000000000000028e8e77626586f73b955364c7b4bbf0bb7f7685ebd40e852b164633a4acbd3244c000102030405060701fffffff01681d2220bfea4bb888a5543db8c0916274ddb1ea93b144c042c01d8164c950001020304050607",
                        "accessList": [],
                        "v": "0x01",
                        "r": "0x9abc4a3162b1761cfca0fd07d2d7c432b35b28625467e78c537ef783eb8d922f",
                        "s": "0x2b92dcc645b1b97531fb0b4ee98f08334746dd559d5f771ceb82a18d22c60af4",
                        "sender": "0x1ad9bc24818784172ff393bb6f89f094d4d2ca29"
                    }
                ],
                "uncleHeaders": [],
                "receipts": [
                    {
                        "transactionHash": "0x3060a794358b28b14d277aa9309bef1e9ee3affc44745650eb197c19cd754fef",
                        "type": "0x02",
                        "cumulativeGasUsed": "0x01b3f4",
                        "bloom": "0x00000000000000000000000000000000000000000000000000000000000000000000000000000000000000000000000000000000000000000000000000000000000000000000000000000000000000000000000000000000000000000000000000000000000000000000000000000000000000000000000000000000000000000000000000000000000000000000000000000000000000000000000000000000000000000000000000000000000000000000000000000000000000000000000000000000000000000000000000000000000000000000000000000000000000000000000000000000000000000000000000000000000000000000000000000000",
                        "logs": [],
                        "status": true,
                        "rlp": "0x02f90109018301b3f4b9010000000000000000000000000000000000000000000000000000000000000000000000000000000000000000000000000000000000000000000000000000000000000000000000000000000000000000000000000000000000000000000000000000000000000000000000000000000000000000000000000000000000000000000000000000000000000000000000000000000000000000000000000000000000000000000000000000000000000000000000000000000000000000000000000000000000000000000000000000000000000000000000000000000000000000000000000000000000000000000000000000000000000000000000000000000000c0"
                    }
                ],
                "rlp": "0xf9031df901f7a0b5f831af655ae8a63982a8ee7f0a70429c0e1305219a1450e03f07bb7ec3a16da01dcc4de8dec75d7aab85b567b6ccd41ad312451b948a7413f0a142fd40d49347942adc25665018aa1fe0e6bc666dac8fc2697ff9baa0ceb5b11cdba69a84dd1af44e4ee4493dd481a2bf8e81cb99500b57bd60f76938a07bd7680d0ec8fc37b3d9c975b96730ad0234f9fa10f90259e7dc922452fc19e2a015144d30c9924a0b9b5c95db79a51ce2cba0977842e212318c5a0fc3c47779a0b901000000000000000000000000000000000000000000000000000000000000000000000000000000000000000000000000000000000000000000000000000000000000000000000000000000000000000000000000000000000000000000000000000000000000000000000000000000000000000000000000000000000000000000000000000000000000000000000000000000000000000000000000000000000000000000000000000000000000000000000000000000000000000000000000000000000000000000000000000000000000000000000000000000000000000000000000000000000000000000000000000000000000000000000000000000000080018407270e008301b3f48203e800a0000000000000000000000000000000000000000000000000000000000000000088000000000000000007f9011fb9011c02f901180180800783022e6e948a3fc10a145927781ab2ce7657a456b942a1008180b8b4000000000000000000000000000000000000000000000000000000000000002800000000000000000000000000000000000000000000000000000000000000040000000000000000000000000000000000000000000000000000000000000028e8e77626586f73b955364c7b4bbf0bb7f7685ebd40e852b164633a4acbd3244c000102030405060701fffffff01681d2220bfea4bb888a5543db8c0916274ddb1ea93b144c042c01d8164c950001020304050607c001a09abc4a3162b1761cfca0fd07d2d7c432b35b28625467e78c537ef783eb8d922fa02b92dcc645b1b97531fb0b4ee98f08334746dd559d5f771ceb82a18d22c60af4c0",
                "blocknumber": "1"
            }
        ],
        "sealEngine": "NoProof",
        "_info": {
            "hash": "0x9d98d34c4a4a3c50bd0fe852bc96d86505ee120d2a8e8cd3f3ddca408b25d581",
            "fixture-format": "blockchain_test",
            "comment": "`execution-specs` generated test",
            "filling-transition-tool": "2.19.0",
            "description": "Test ModExp gas cost with different gas modifiers using contract wrapper\ncalls.",
            "url": "https://github.com/ethereum/execution-specs/blob/tests-snobal-devnet-5@v8037.0.0/tests/osaka/eip7883_modexp_gas_increase/test_modexp_thresholds.py#L306",
            "metadata": {
                "opcode_count": {}
            },
            "reference-spec": "https://github.com/ethereum/EIPs/blob/master/EIPS/eip-7883.md",
            "reference-spec-version": "13aa65810336d4f243d4563a828d5afe36035d23"
        }
    },
    "tests/osaka/eip7883_modexp_gas_increase/test_modexp_thresholds.py::test_modexp_gas_usage_contract_wrapper[fork_Paris-blockchain_test_from_state_test-insufficient_gas]": {
        "network": "Paris",
        "genesisBlockHeader": {
            "parentHash": "0x0000000000000000000000000000000000000000000000000000000000000000",
            "uncleHash": "0x1dcc4de8dec75d7aab85b567b6ccd41ad312451b948a7413f0a142fd40d49347",
            "coinbase": "0x0000000000000000000000000000000000000000",
            "stateRoot": "0xc6c57dccfe32e7638dd5a7d9ba9f27c3fd0d5cbab23902314263a13099077c17",
            "transactionsTrie": "0x56e81f171bcc55a6ff8345e692c0f86e5b48e01b996cadc001622fb5e363b421",
            "receiptTrie": "0x56e81f171bcc55a6ff8345e692c0f86e5b48e01b996cadc001622fb5e363b421",
            "bloom": "0x00000000000000000000000000000000000000000000000000000000000000000000000000000000000000000000000000000000000000000000000000000000000000000000000000000000000000000000000000000000000000000000000000000000000000000000000000000000000000000000000000000000000000000000000000000000000000000000000000000000000000000000000000000000000000000000000000000000000000000000000000000000000000000000000000000000000000000000000000000000000000000000000000000000000000000000000000000000000000000000000000000000000000000000000000000000",
            "difficulty": "0x00",
            "number": "0x00",
            "gasLimit": "0x07270e00",
            "gasUsed": "0x00",
            "timestamp": "0x00",
            "extraData": "0x00",
            "mixHash": "0x0000000000000000000000000000000000000000000000000000000000000000",
            "nonce": "0x0000000000000000",
            "baseFeePerGas": "0x07",
            "hash": "0xd4e9697a7e01c8560b2a53573680ec11f11b6f9f587a64599006713a08564042"
        },
        "pre": {
            "0x25e26329c327fcd4e3dbf0a2fb0eecdd668e79a8": {
                "nonce": "0x01",
                "balance": "0x00",
                "code": "0x3660006000375a600060003660006000600560c7f15a906000553d600155",
                "storage": {}
            },
            "0x1ad9bc24818784172ff393bb6f89f094d4d2ca29": {
                "nonce": "0x00",
                "balance": "0x3635c9adc5dea00000",
                "code": "0x",
                "storage": {}
            }
        },
        "postState": {
            "0x25e26329c327fcd4e3dbf0a2fb0eecdd668e79a8": {
                "nonce": "0x01",
                "balance": "0x00",
                "code": "0x3660006000375a600060003660006000600560c7f15a906000553d600155",
                "storage": {}
            },
            "0x1ad9bc24818784172ff393bb6f89f094d4d2ca29": {
                "nonce": "0x01",
                "balance": "0x3635c9adc5de9d0f79",
                "code": "0x",
                "storage": {}
            }
        },
        "lastblockhash": "0xc6e945ced031ae94335363209dc49a7a6642c4ea45d286fc30a7c61796821106",
        "config": {
            "network": "Paris",
            "chainid": "0x01"
        },
        "genesisRLP": "0xf901f7f901f2a00000000000000000000000000000000000000000000000000000000000000000a01dcc4de8dec75d7aab85b567b6ccd41ad312451b948a7413f0a142fd40d49347940000000000000000000000000000000000000000a0c6c57dccfe32e7638dd5a7d9ba9f27c3fd0d5cbab23902314263a13099077c17a056e81f171bcc55a6ff8345e692c0f86e5b48e01b996cadc001622fb5e363b421a056e81f171bcc55a6ff8345e692c0f86e5b48e01b996cadc001622fb5e363b421b901000000000000000000000000000000000000000000000000000000000000000000000000000000000000000000000000000000000000000000000000000000000000000000000000000000000000000000000000000000000000000000000000000000000000000000000000000000000000000000000000000000000000000000000000000000000000000000000000000000000000000000000000000000000000000000000000000000000000000000000000000000000000000000000000000000000000000000000000000000000000000000000000000000000000000000000000000000000000000000000000000000000000000000000000000000000080808407270e00808000a0000000000000000000000000000000000000000000000000000000000000000088000000000000000007c0c0",
        "blocks": [
            {
                "blockHeader": {
                    "parentHash": "0xd4e9697a7e01c8560b2a53573680ec11f11b6f9f587a64599006713a08564042",
                    "uncleHash": "0x1dcc4de8dec75d7aab85b567b6ccd41ad312451b948a7413f0a142fd40d49347",
                    "coinbase": "0x2adc25665018aa1fe0e6bc666dac8fc2697ff9ba",
                    "stateRoot": "0xf08c9fc94cb3436c7d8ee9b5e05a8325402301ec8358fe9ce4d86a36b8801b66",
                    "transactionsTrie": "0x1fb03f10a1798d6c21815bd81fe81f3ba3ae88b336f86abaf0495d5914918d9f",
                    "receiptTrie": "0x5640bcf46a8b1f8144abfb0500232b9ba75ec306832583ccee2c2355d9cf83e1",
                    "bloom": "0x00000000000000000000000000000000000000000000000000000000000000000000000000000000000000000000000000000000000000000000000000000000000000000000000000000000000000000000000000000000000000000000000000000000000000000000000000000000000000000000000000000000000000000000000000000000000000000000000000000000000000000000000000000000000000000000000000000000000000000000000000000000000000000000000000000000000000000000000000000000000000000000000000000000000000000000000000000000000000000000000000000000000000000000000000000000",
                    "difficulty": "0x00",
                    "number": "0x01",
                    "gasLimit": "0x07270e00",
                    "gasUsed": "0x6b81",
                    "timestamp": "0x03e8",
                    "extraData": "0x00",
                    "mixHash": "0x0000000000000000000000000000000000000000000000000000000000000000",
                    "nonce": "0x0000000000000000",
                    "baseFeePerGas": "0x07",
                    "hash": "0xc6e945ced031ae94335363209dc49a7a6642c4ea45d286fc30a7c61796821106"
                },
                "transactions": [
                    {
                        "type": "0x02",
                        "chainId": "0x01",
                        "nonce": "0x00",
                        "maxPriorityFeePerGas": "0x00",
                        "maxFeePerGas": "0x07",
                        "gasLimit": "0x01e04e",
                        "to": "0x25e26329c327fcd4e3dbf0a2fb0eecdd668e79a8",
                        "value": "0x00",
                        "data": "0x000000000000000000000000000000000000000000000000000000000000002800000000000000000000000000000000000000000000000000000000000000040000000000000000000000000000000000000000000000000000000000000028e8e77626586f73b955364c7b4bbf0bb7f7685ebd40e852b164633a4acbd3244c000102030405060701fffffff01681d2220bfea4bb888a5543db8c0916274ddb1ea93b144c042c01d8164c950001020304050607",
                        "accessList": [],
                        "v": "0x01",
                        "r": "0x8b7a4a16634c50e54fd072a97a1dae71e8dd5472a87dbb31ad1ba2c47fc93cfc",
                        "s": "0x2fafea0bbd19ac2ef877c7b43d1f7b0345c16d0247a32ac52c882f8346108e6f",
                        "sender": "0x1ad9bc24818784172ff393bb6f89f094d4d2ca29"
                    }
                ],
                "uncleHeaders": [],
                "receipts": [
                    {
                        "transactionHash": "0x73dee2799743e5b33361dc05fc1a5d2e0f69e6748dce97f107888423912716a3",
                        "type": "0x02",
                        "cumulativeGasUsed": "0x6b81",
                        "bloom": "0x00000000000000000000000000000000000000000000000000000000000000000000000000000000000000000000000000000000000000000000000000000000000000000000000000000000000000000000000000000000000000000000000000000000000000000000000000000000000000000000000000000000000000000000000000000000000000000000000000000000000000000000000000000000000000000000000000000000000000000000000000000000000000000000000000000000000000000000000000000000000000000000000000000000000000000000000000000000000000000000000000000000000000000000000000000000",
                        "logs": [],
                        "status": true,
                        "rlp": "0x02f9010801826b81b9010000000000000000000000000000000000000000000000000000000000000000000000000000000000000000000000000000000000000000000000000000000000000000000000000000000000000000000000000000000000000000000000000000000000000000000000000000000000000000000000000000000000000000000000000000000000000000000000000000000000000000000000000000000000000000000000000000000000000000000000000000000000000000000000000000000000000000000000000000000000000000000000000000000000000000000000000000000000000000000000000000000000000000000000000000000000c0"
                    }
                ],
                "rlp": "0xf9031cf901f6a0d4e9697a7e01c8560b2a53573680ec11f11b6f9f587a64599006713a08564042a01dcc4de8dec75d7aab85b567b6ccd41ad312451b948a7413f0a142fd40d49347942adc25665018aa1fe0e6bc666dac8fc2697ff9baa0f08c9fc94cb3436c7d8ee9b5e05a8325402301ec8358fe9ce4d86a36b8801b66a01fb03f10a1798d6c21815bd81fe81f3ba3ae88b336f86abaf0495d5914918d9fa05640bcf46a8b1f8144abfb0500232b9ba75ec306832583ccee2c2355d9cf83e1b901000000000000000000000000000000000000000000000000000000000000000000000000000000000000000000000000000000000000000000000000000000000000000000000000000000000000000000000000000000000000000000000000000000000000000000000000000000000000000000000000000000000000000000000000000000000000000000000000000000000000000000000000000000000000000000000000000000000000000000000000000000000000000000000000000000000000000000000000000000000000000000000000000000000000000000000000000000000000000000000000000000000000000000000000000000000080018407270e00826b818203e800a0000000000000000000000000000000000000000000000000000000000000000088000000000000000007f9011fb9011c02f90118018080078301e04e9425e26329c327fcd4e3dbf0a2fb0eecdd668e79a880b8b4000000000000000000000000000000000000000000000000000000000000002800000000000000000000000000000000000000000000000000000000000000040000000000000000000000000000000000000000000000000000000000000028e8e77626586f73b955364c7b4bbf0bb7f7685ebd40e852b164633a4acbd3244c000102030405060701fffffff01681d2220bfea4bb888a5543db8c0916274ddb1ea93b144c042c01d8164c950001020304050607c001a08b7a4a16634c50e54fd072a97a1dae71e8dd5472a87dbb31ad1ba2c47fc93cfca02fafea0bbd19ac2ef877c7b43d1f7b0345c16d0247a32ac52c882f8346108e6fc0",
                "blocknumber": "1"
            }
        ],
        "sealEngine": "NoProof",
        "_info": {
            "hash": "0xef64d5fb762af775a7adfe90c2f86736f967da56fd47ad3e76d319e96c6ba13b",
            "fixture-format": "blockchain_test",
            "comment": "`execution-specs` generated test",
            "filling-transition-tool": "2.19.0",
            "description": "Test ModExp gas cost with different gas modifiers using contract wrapper\ncalls.",
            "url": "https://github.com/ethereum/execution-specs/blob/tests-snobal-devnet-5@v8037.0.0/tests/osaka/eip7883_modexp_gas_increase/test_modexp_thresholds.py#L306",
            "metadata": {
                "opcode_count": {}
            },
            "reference-spec": "https://github.com/ethereum/EIPs/blob/master/EIPS/eip-7883.md",
            "reference-spec-version": "13aa65810336d4f243d4563a828d5afe36035d23"
        }
    }
}