{
    "tests/ported_static/stSStoreTest/test_sstore_call_to_self_sub_refund_below_zero.py::test_sstore_call_to_self_sub_refund_below_zero[fork_Cancun-blockchain_test_from_state_test]": {
        "network": "Cancun",
        "genesisBlockHeader": {
            "parentHash": "0x0000000000000000000000000000000000000000000000000000000000000000",
            "uncleHash": "0x1dcc4de8dec75d7aab85b567b6ccd41ad312451b948a7413f0a142fd40d49347",
            "coinbase": "0x0000000000000000000000000000000000000000",
            "stateRoot": "0xbcd3f6749d4e43f6b62835bb9efa7ffc95e86341a5bcc4fb9805aeb15e335e2a",
            "transactionsTrie": "0x56e81f171bcc55a6ff8345e692c0f86e5b48e01b996cadc001622fb5e363b421",
            "receiptTrie": "0x56e81f171bcc55a6ff8345e692c0f86e5b48e01b996cadc001622fb5e363b421",
            "bloom": "0x00000000000000000000000000000000000000000000000000000000000000000000000000000000000000000000000000000000000000000000000000000000000000000000000000000000000000000000000000000000000000000000000000000000000000000000000000000000000000000000000000000000000000000000000000000000000000000000000000000000000000000000000000000000000000000000000000000000000000000000000000000000000000000000000000000000000000000000000000000000000000000000000000000000000000000000000000000000000000000000000000000000000000000000000000000000",
            "difficulty": "0x00",
            "number": "0x00",
            "gasLimit": "0x1000000000",
            "gasUsed": "0x00",
            "timestamp": "0x00",
            "extraData": "0x00",
            "mixHash": "0x0000000000000000000000000000000000000000000000000000000000000000",
            "nonce": "0x0000000000000000",
            "baseFeePerGas": "0x0b",
            "withdrawalsRoot": "0x56e81f171bcc55a6ff8345e692c0f86e5b48e01b996cadc001622fb5e363b421",
            "blobGasUsed": "0x00",
            "excessBlobGas": "0x00",
            "parentBeaconBlockRoot": "0x0000000000000000000000000000000000000000000000000000000000000000",
            "hash": "0x636a33faeab35a4e0e967b9a7890b689d7a31577da42229dadef72d15a17afb5"
        },
        "pre": {
            "0x000f3df6d732807ef1319fb7b8bb8522d0beac02": {
                "nonce": "0x01",
                "balance": "0x00",
                "code": "0x3373fffffffffffffffffffffffffffffffffffffffe14604d57602036146024575f5ffd5b5f35801560495762001fff810690815414603c575f5ffd5b62001fff01545f5260205ff35b5f5ffd5b62001fff42064281555f359062001fff015500",
                "storage": {}
            },
            "0x440413aa7276815188a9ae173613c1ab5adeaeb0": {
                "nonce": "0x00",
                "balance": "0xffffffffffffffff",
                "code": "0x",
                "storage": {}
            },
            "0x5e41f6cf633776371b8651bfd4e78f2431ebc2a7": {
                "nonce": "0x00",
                "balance": "0x00",
                "code": "0x3330146015576000600155600080808080305af1005b600360015500",
                "storage": {
                    "0x01": "0x02"
                }
            }
        },
        "postState": {
            "0x000f3df6d732807ef1319fb7b8bb8522d0beac02": {
                "nonce": "0x01",
                "balance": "0x00",
                "code": "0x3373fffffffffffffffffffffffffffffffffffffffe14604d57602036146024575f5ffd5b5f35801560495762001fff810690815414603c575f5ffd5b62001fff01545f5260205ff35b5f5ffd5b62001fff42064281555f359062001fff015500",
                "storage": {
                    "0x03e8": "0x03e8"
                }
            },
            "0x440413aa7276815188a9ae173613c1ab5adeaeb0": {
                "nonce": "0x01",
                "balance": "0xfffffffffffbfdbf",
                "code": "0x",
                "storage": {}
            },
            "0x5e41f6cf633776371b8651bfd4e78f2431ebc2a7": {
                "nonce": "0x00",
                "balance": "0x00",
                "code": "0x3330146015576000600155600080808080305af1005b600360015500",
                "storage": {
                    "0x01": "0x03"
                }
            }
        },
        "lastblockhash": "0x8abc38a1a3d17f3d6673848693f5264018fb38f60b3d5cd57390e6f513f068fd",
        "config": {
            "network": "Cancun",
            "chainid": "0x01",
            "blobSchedule": {
                "Cancun": {
                    "target": "0x03",
                    "max": "0x06",
                    "baseFeeUpdateFraction": "0x32f0ed"
                }
            }
        },
        "genesisRLP": "0xf9023df90237a00000000000000000000000000000000000000000000000000000000000000000a01dcc4de8dec75d7aab85b567b6ccd41ad312451b948a7413f0a142fd40d49347940000000000000000000000000000000000000000a0bcd3f6749d4e43f6b62835bb9efa7ffc95e86341a5bcc4fb9805aeb15e335e2aa056e81f171bcc55a6ff8345e692c0f86e5b48e01b996cadc001622fb5e363b421a056e81f171bcc55a6ff8345e692c0f86e5b48e01b996cadc001622fb5e363b421b90100000000000000000000000000000000000000000000000000000000000000000000000000000000000000000000000000000000000000000000000000000000000000000000000000000000000000000000000000000000000000000000000000000000000000000000000000000000000000000000000000000000000000000000000000000000000000000000000000000000000000000000000000000000000000000000000000000000000000000000000000000000000000000000000000000000000000000000000000000000000000000000000000000000000000000000000000000000000000000000000000000000000000000000000000000000008080851000000000808000a000000000000000000000000000000000000000000000000000000000000000008800000000000000000ba056e81f171bcc55a6ff8345e692c0f86e5b48e01b996cadc001622fb5e363b4218080a00000000000000000000000000000000000000000000000000000000000000000c0c0c0",
        "blocks": [
            {
                "blockHeader": {
                    "parentHash": "0x636a33faeab35a4e0e967b9a7890b689d7a31577da42229dadef72d15a17afb5",
                    "uncleHash": "0x1dcc4de8dec75d7aab85b567b6ccd41ad312451b948a7413f0a142fd40d49347",
                    "coinbase": "0x2adc25665018aa1fe0e6bc666dac8fc2697ff9ba",
                    "stateRoot": "0x3b5a13290454222e7fe5a69d875ec4249285c574e0a5cbbdf769250f2717b584",
                    "transactionsTrie": "0x7777d57b8a3272af72b53fc27fce3ad9c3922035661ead6cc2ff981f0e476ebf",
                    "receiptTrie": "0x97b2d63c140dbec3f69631e5001af31ba6541603b5513eb4e9b5e59215abd618",
                    "bloom": "0x00000000000000000000000000000000000000000000000000000000000000000000000000000000000000000000000000000000000000000000000000000000000000000000000000000000000000000000000000000000000000000000000000000000000000000000000000000000000000000000000000000000000000000000000000000000000000000000000000000000000000000000000000000000000000000000000000000000000000000000000000000000000000000000000000000000000000000000000000000000000000000000000000000000000000000000000000000000000000000000000000000000000000000000000000000000",
                    "difficulty": "0x00",
                    "number": "0x01",
                    "gasLimit": "0x1000000000",
                    "gasUsed": "0x66a0",
                    "timestamp": "0x03e8",
                    "extraData": "0x00",
                    "mixHash": "0x0000000000000000000000000000000000000000000000000000000000020000",
                    "nonce": "0x0000000000000000",
                    "baseFeePerGas": "0x0a",
                    "withdrawalsRoot": "0x56e81f171bcc55a6ff8345e692c0f86e5b48e01b996cadc001622fb5e363b421",
                    "blobGasUsed": "0x00",
                    "excessBlobGas": "0x00",
                    "parentBeaconBlockRoot": "0x0000000000000000000000000000000000000000000000000000000000000000",
                    "hash": "0x8abc38a1a3d17f3d6673848693f5264018fb38f60b3d5cd57390e6f513f068fd"
                },
                "transactions": [
                    {
                        "type": "0x00",
                        "chainId": "0x01",
                        "nonce": "0x00",
                        "gasPrice": "0x0a",
                        "gasLimit": "0x241eb2",
                        "to": "0x5e41f6cf633776371b8651bfd4e78f2431ebc2a7",
                        "value": "0x00",
                        "data": "0x",
                        "v": "0x26",
                        "r": "0x93f88715f2a64bed8b01dfa668bb70d64e9ac81b31654800a6e52147fe166454",
                        "s": "0x798276ae218899a007431f8c32899656421561e8f95dbf5a5decc5c793280749",
                        "sender": "0x440413aa7276815188a9ae173613c1ab5adeaeb0"
                    }
                ],
                "uncleHeaders": [],
                "withdrawals": [],
                "receipts": [
                    {
                        "transactionHash": "0x539dbe8bfc731b6ccbc584aa3929a7c6d9bfe2cb14a336ca3ce1bc4e9bb2e959",
                        "type": "0x00",
                        "cumulativeGasUsed": "0x66a0",
                        "bloom": "0x00000000000000000000000000000000000000000000000000000000000000000000000000000000000000000000000000000000000000000000000000000000000000000000000000000000000000000000000000000000000000000000000000000000000000000000000000000000000000000000000000000000000000000000000000000000000000000000000000000000000000000000000000000000000000000000000000000000000000000000000000000000000000000000000000000000000000000000000000000000000000000000000000000000000000000000000000000000000000000000000000000000000000000000000000000000",
                        "logs": [],
                        "status": true,
                        "rlp": "0xf90108018266a0b9010000000000000000000000000000000000000000000000000000000000000000000000000000000000000000000000000000000000000000000000000000000000000000000000000000000000000000000000000000000000000000000000000000000000000000000000000000000000000000000000000000000000000000000000000000000000000000000000000000000000000000000000000000000000000000000000000000000000000000000000000000000000000000000000000000000000000000000000000000000000000000000000000000000000000000000000000000000000000000000000000000000000000000000000000000000000c0"
                    }
                ],
                "rlp": "0xf902a4f9023ba0636a33faeab35a4e0e967b9a7890b689d7a31577da42229dadef72d15a17afb5a01dcc4de8dec75d7aab85b567b6ccd41ad312451b948a7413f0a142fd40d49347942adc25665018aa1fe0e6bc666dac8fc2697ff9baa03b5a13290454222e7fe5a69d875ec4249285c574e0a5cbbdf769250f2717b584a07777d57b8a3272af72b53fc27fce3ad9c3922035661ead6cc2ff981f0e476ebfa097b2d63c140dbec3f69631e5001af31ba6541603b5513eb4e9b5e59215abd618b901000000000000000000000000000000000000000000000000000000000000000000000000000000000000000000000000000000000000000000000000000000000000000000000000000000000000000000000000000000000000000000000000000000000000000000000000000000000000000000000000000000000000000000000000000000000000000000000000000000000000000000000000000000000000000000000000000000000000000000000000000000000000000000000000000000000000000000000000000000000000000000000000000000000000000000000000000000000000000000000000000000000000000000000000000000000080018510000000008266a08203e800a000000000000000000000000000000000000000000000000000000000000200008800000000000000000aa056e81f171bcc55a6ff8345e692c0f86e5b48e01b996cadc001622fb5e363b4218080a00000000000000000000000000000000000000000000000000000000000000000f862f860800a83241eb2945e41f6cf633776371b8651bfd4e78f2431ebc2a7808026a093f88715f2a64bed8b01dfa668bb70d64e9ac81b31654800a6e52147fe166454a0798276ae218899a007431f8c32899656421561e8f95dbf5a5decc5c793280749c0c0",
                "blocknumber": "1"
            }
        ],
        "sealEngine": "NoProof",
        "_info": {
            "hash": "0x8cd9d176b1323295db1b4aa7a25a2ee59a94c9f3409824928beb41d6350c486f",
            "fixture-format": "blockchain_test",
            "comment": "`execution-specs` generated test",
            "filling-transition-tool": "2.19.0",
            "description": "Test where accnt has slot 1 value of '2', is cleared, then calls...",
            "url": "https://github.com/ethereum/execution-specs/blob/tests-snobal-devnet-5@v8037.0.0/tests/ported_static/stSStoreTest/test_sstore_call_to_self_sub_refund_below_zero.py#L24",
            "metadata": {
                "opcode_count": {}
            }
        }
    }
}