{
    "tests/ported_static/stSStoreTest/test_sstore_call_to_self_sub_refund_below_zero.py::test_sstore_call_to_self_sub_refund_below_zero[fork_Cancun-blockchain_test_from_state_test]": {
        "network": "Cancun",
        "genesisBlockHeader": {
            "parentHash": "0x0000000000000000000000000000000000000000000000000000000000000000",
            "uncleHash": "0x1dcc4de8dec75d7aab85b567b6ccd41ad312451b948a7413f0a142fd40d49347",
            "coinbase": "0x0000000000000000000000000000000000000000",
            "stateRoot": "0xf066ae67f76659262c65bd7954d974d8a9846a08d986fcf1a2d53e09341b09c7",
            "transactionsTrie": "0x56e81f171bcc55a6ff8345e692c0f86e5b48e01b996cadc001622fb5e363b421",
            "receiptTrie": "0x56e81f171bcc55a6ff8345e692c0f86e5b48e01b996cadc001622fb5e363b421",
            "bloom": "0x00000000000000000000000000000000000000000000000000000000000000000000000000000000000000000000000000000000000000000000000000000000000000000000000000000000000000000000000000000000000000000000000000000000000000000000000000000000000000000000000000000000000000000000000000000000000000000000000000000000000000000000000000000000000000000000000000000000000000000000000000000000000000000000000000000000000000000000000000000000000000000000000000000000000000000000000000000000000000000000000000000000000000000000000000000000",
            "difficulty": "0x00",
            "number": "0x00",
            "gasLimit": "0x1000000000",
            "gasUsed": "0x00",
            "timestamp": "0x00",
            "extraData": "0x00",
            "mixHash": "0x0000000000000000000000000000000000000000000000000000000000000000",
            "nonce": "0x0000000000000000",
            "baseFeePerGas": "0x0b",
            "withdrawalsRoot": "0x56e81f171bcc55a6ff8345e692c0f86e5b48e01b996cadc001622fb5e363b421",
            "blobGasUsed": "0x00",
            "excessBlobGas": "0x00",
            "parentBeaconBlockRoot": "0x0000000000000000000000000000000000000000000000000000000000000000",
            "hash": "0x9c5f4648945b90bed439dfdca2d09e4d8f08eabb83299b4b103868de7d3b96ef"
        },
        "pre": {
            "0x000f3df6d732807ef1319fb7b8bb8522d0beac02": {
                "nonce": "0x01",
                "balance": "0x00",
                "code": "0x3373fffffffffffffffffffffffffffffffffffffffe14604d57602036146024575f5ffd5b5f35801560495762001fff810690815414603c575f5ffd5b62001fff01545f5260205ff35b5f5ffd5b62001fff42064281555f359062001fff015500",
                "storage": {}
            },
            "0xb48023055b6c3d565a6f5488459d64efab79b6c7": {
                "nonce": "0x00",
                "balance": "0x00",
                "code": "0x3330146015576000600155600080808080305af1005b600360015500",
                "storage": {
                    "0x01": "0x02"
                }
            },
            "0x2c4b3807d1cb27f33e74c7cd5be5b0d6b176414e": {
                "nonce": "0x00",
                "balance": "0xffffffffffffffff",
                "code": "0x",
                "storage": {}
            }
        },
        "postState": {
            "0x000f3df6d732807ef1319fb7b8bb8522d0beac02": {
                "nonce": "0x01",
                "balance": "0x00",
                "code": "0x3373fffffffffffffffffffffffffffffffffffffffe14604d57602036146024575f5ffd5b5f35801560495762001fff810690815414603c575f5ffd5b62001fff01545f5260205ff35b5f5ffd5b62001fff42064281555f359062001fff015500",
                "storage": {
                    "0x03e8": "0x03e8"
                }
            },
            "0xb48023055b6c3d565a6f5488459d64efab79b6c7": {
                "nonce": "0x00",
                "balance": "0x00",
                "code": "0x3330146015576000600155600080808080305af1005b600360015500",
                "storage": {
                    "0x01": "0x03"
                }
            },
            "0x2c4b3807d1cb27f33e74c7cd5be5b0d6b176414e": {
                "nonce": "0x01",
                "balance": "0xfffffffffffbfdbf",
                "code": "0x",
                "storage": {}
            }
        },
        "lastblockhash": "0xe9cc007f5fb31b7f1db554ecf9aae33cb933d5e588275bc4b63ed21d8b2b2673",
        "config": {
            "network": "Cancun",
            "chainid": "0x01",
            "blobSchedule": {
                "Cancun": {
                    "target": "0x03",
                    "max": "0x06",
                    "baseFeeUpdateFraction": "0x32f0ed"
                }
            }
        },
        "genesisRLP": "0xf9023df90237a00000000000000000000000000000000000000000000000000000000000000000a01dcc4de8dec75d7aab85b567b6ccd41ad312451b948a7413f0a142fd40d49347940000000000000000000000000000000000000000a0f066ae67f76659262c65bd7954d974d8a9846a08d986fcf1a2d53e09341b09c7a056e81f171bcc55a6ff8345e692c0f86e5b48e01b996cadc001622fb5e363b421a056e81f171bcc55a6ff8345e692c0f86e5b48e01b996cadc001622fb5e363b421b90100000000000000000000000000000000000000000000000000000000000000000000000000000000000000000000000000000000000000000000000000000000000000000000000000000000000000000000000000000000000000000000000000000000000000000000000000000000000000000000000000000000000000000000000000000000000000000000000000000000000000000000000000000000000000000000000000000000000000000000000000000000000000000000000000000000000000000000000000000000000000000000000000000000000000000000000000000000000000000000000000000000000000000000000000000000008080851000000000808000a000000000000000000000000000000000000000000000000000000000000000008800000000000000000ba056e81f171bcc55a6ff8345e692c0f86e5b48e01b996cadc001622fb5e363b4218080a00000000000000000000000000000000000000000000000000000000000000000c0c0c0",
        "blocks": [
            {
                "blockHeader": {
                    "parentHash": "0x9c5f4648945b90bed439dfdca2d09e4d8f08eabb83299b4b103868de7d3b96ef",
                    "uncleHash": "0x1dcc4de8dec75d7aab85b567b6ccd41ad312451b948a7413f0a142fd40d49347",
                    "coinbase": "0x2adc25665018aa1fe0e6bc666dac8fc2697ff9ba",
                    "stateRoot": "0xe6c904f8ddfc888737dfdfa85ccb2b848447b91782a2d638bf066d15f1da920b",
                    "transactionsTrie": "0x3b02c72d320d7e0f7753af8ba33154ccafda05f2e244b8b44402fe2cc3dca759",
                    "receiptTrie": "0x97b2d63c140dbec3f69631e5001af31ba6541603b5513eb4e9b5e59215abd618",
                    "bloom": "0x00000000000000000000000000000000000000000000000000000000000000000000000000000000000000000000000000000000000000000000000000000000000000000000000000000000000000000000000000000000000000000000000000000000000000000000000000000000000000000000000000000000000000000000000000000000000000000000000000000000000000000000000000000000000000000000000000000000000000000000000000000000000000000000000000000000000000000000000000000000000000000000000000000000000000000000000000000000000000000000000000000000000000000000000000000000",
                    "difficulty": "0x00",
                    "number": "0x01",
                    "gasLimit": "0x1000000000",
                    "gasUsed": "0x66a0",
                    "timestamp": "0x03e8",
                    "extraData": "0x00",
                    "mixHash": "0x0000000000000000000000000000000000000000000000000000000000020000",
                    "nonce": "0x0000000000000000",
                    "baseFeePerGas": "0x0a",
                    "withdrawalsRoot": "0x56e81f171bcc55a6ff8345e692c0f86e5b48e01b996cadc001622fb5e363b421",
                    "blobGasUsed": "0x00",
                    "excessBlobGas": "0x00",
                    "parentBeaconBlockRoot": "0x0000000000000000000000000000000000000000000000000000000000000000",
                    "hash": "0xe9cc007f5fb31b7f1db554ecf9aae33cb933d5e588275bc4b63ed21d8b2b2673"
                },
                "transactions": [
                    {
                        "type": "0x00",
                        "chainId": "0x01",
                        "nonce": "0x00",
                        "gasPrice": "0x0a",
                        "gasLimit": "0x241eb2",
                        "to": "0xb48023055b6c3d565a6f5488459d64efab79b6c7",
                        "value": "0x00",
                        "data": "0x",
                        "v": "0x25",
                        "r": "0x13a4418df88b75d9aaa723f739d8293d770bb83afbe40269b864e1066c31002e",
                        "s": "0x7adad0c39b13738ebe812fe08671a4defb38f90d3763526526a56c2ba356e393",
                        "sender": "0x2c4b3807d1cb27f33e74c7cd5be5b0d6b176414e"
                    }
                ],
                "uncleHeaders": [],
                "withdrawals": [],
                "receipts": [
                    {
                        "transactionHash": "0xad53496d0fed895873a91f77e44bc1765252f8799153abd05c3a7b932cc171d4",
                        "type": "0x00",
                        "cumulativeGasUsed": "0x66a0",
                        "bloom": "0x00000000000000000000000000000000000000000000000000000000000000000000000000000000000000000000000000000000000000000000000000000000000000000000000000000000000000000000000000000000000000000000000000000000000000000000000000000000000000000000000000000000000000000000000000000000000000000000000000000000000000000000000000000000000000000000000000000000000000000000000000000000000000000000000000000000000000000000000000000000000000000000000000000000000000000000000000000000000000000000000000000000000000000000000000000000",
                        "logs": [],
                        "status": true,
                        "rlp": "0xf90108018266a0b9010000000000000000000000000000000000000000000000000000000000000000000000000000000000000000000000000000000000000000000000000000000000000000000000000000000000000000000000000000000000000000000000000000000000000000000000000000000000000000000000000000000000000000000000000000000000000000000000000000000000000000000000000000000000000000000000000000000000000000000000000000000000000000000000000000000000000000000000000000000000000000000000000000000000000000000000000000000000000000000000000000000000000000000000000000000000c0"
                    }
                ],
                "rlp": "0xf902a4f9023ba09c5f4648945b90bed439dfdca2d09e4d8f08eabb83299b4b103868de7d3b96efa01dcc4de8dec75d7aab85b567b6ccd41ad312451b948a7413f0a142fd40d49347942adc25665018aa1fe0e6bc666dac8fc2697ff9baa0e6c904f8ddfc888737dfdfa85ccb2b848447b91782a2d638bf066d15f1da920ba03b02c72d320d7e0f7753af8ba33154ccafda05f2e244b8b44402fe2cc3dca759a097b2d63c140dbec3f69631e5001af31ba6541603b5513eb4e9b5e59215abd618b901000000000000000000000000000000000000000000000000000000000000000000000000000000000000000000000000000000000000000000000000000000000000000000000000000000000000000000000000000000000000000000000000000000000000000000000000000000000000000000000000000000000000000000000000000000000000000000000000000000000000000000000000000000000000000000000000000000000000000000000000000000000000000000000000000000000000000000000000000000000000000000000000000000000000000000000000000000000000000000000000000000000000000000000000000000000080018510000000008266a08203e800a000000000000000000000000000000000000000000000000000000000000200008800000000000000000aa056e81f171bcc55a6ff8345e692c0f86e5b48e01b996cadc001622fb5e363b4218080a00000000000000000000000000000000000000000000000000000000000000000f862f860800a83241eb294b48023055b6c3d565a6f5488459d64efab79b6c7808025a013a4418df88b75d9aaa723f739d8293d770bb83afbe40269b864e1066c31002ea07adad0c39b13738ebe812fe08671a4defb38f90d3763526526a56c2ba356e393c0c0",
                "blocknumber": "1"
            }
        ],
        "sealEngine": "NoProof",
        "_info": {
            "hash": "0x818ef821a654703a8872a4d7815bae225c463d76c0ab6dbb92addbff31887b36",
            "fixture-format": "blockchain_test",
            "comment": "`execution-specs` generated test",
            "filling-transition-tool": "2.19.0",
            "description": "Test where accnt has slot 1 value of '2', is cleared, then calls...",
            "url": "https://github.com/ethereum/execution-specs/blob/tests-bal@v5.7.0/tests/ported_static/stSStoreTest/test_sstore_call_to_self_sub_refund_below_zero.py#L25",
            "metadata": {
                "opcode_count": {}
            }
        }
    }
}