{
    "tests/static/state_tests/stSystemOperationsTest/ABAcallsSuicide0Filler.json::ABAcallsSuicide0[fork_Cancun-state_test-]": {
        "env": {
            "currentCoinbase": "0x2adc25665018aa1fe0e6bc666dac8fc2697ff9ba",
            "currentGasLimit": "0x05f5e100",
            "currentNumber": "0x01",
            "currentTimestamp": "0x03e8",
            "currentRandom": "0x0000000000000000000000000000000000000000000000000000000000020000",
            "currentDifficulty": "0x00",
            "currentBaseFee": "0x0a",
            "currentExcessBlobGas": "0x00"
        },
        "pre": {
            "0xf11ad33e62fe2c277576a300b98336106e94ba27": {
                "nonce": "0x00",
                "balance": "0x0de0b6b3a7640000",
                "code": "0x",
                "storage": {}
            },
            "0xad79c531d5601d16a4c07220a3aa44844a4ab729": {
                "nonce": "0x00",
                "balance": "0x0de0b6b3a7640000",
                "code": "0x6000600060006000601873ad79c531d5601d16a4c07220a3aa44844a4ab829620186a0f1585573ad79c531d5601d16a4c07220a3aa44844a4ab829ff00",
                "storage": {}
            },
            "0xad79c531d5601d16a4c07220a3aa44844a4ab829": {
                "nonce": "0x00",
                "balance": "0x17",
                "code": "0x6000600060006000601773ad79c531d5601d16a4c07220a3aa44844a4ab72961c350f1600101585500",
                "storage": {}
            }
        },
        "transaction": {
            "nonce": "0x00",
            "gasPrice": "0x0a",
            "gasLimit": [
                "0x989680"
            ],
            "to": "0xad79c531d5601d16a4c07220a3aa44844a4ab729",
            "value": [
                "0x0186a0"
            ],
            "data": [
                "0x"
            ],
            "sender": "0xf11ad33e62fe2c277576a300b98336106e94ba27",
            "secretKey": "0xaecaf59d39b27f37c00caa52ad79c531d5601d16a4c07220a3aa44844a4ab729"
        },
        "post": {
            "Cancun": [
                {
                    "hash": "0x0a3d0c9ec1de53909d17143788363a27676f1afa4419ac71f49116dbd9495469",
                    "logs": "0x1dcc4de8dec75d7aab85b567b6ccd41ad312451b948a7413f0a142fd40d49347",
                    "txbytes": "0xf863800a8398968094ad79c531d5601d16a4c07220a3aa44844a4ab729830186a08025a06ff016c4f4f300c7e0859b3bb2d5eab34bc9dcecca870272fc51084bacb1bb9ca02712bcaf043b0c5769b6fbe52bc192eaf0508e79bbb9bd9f0c03ddb40193a06f",
                    "indexes": {
                        "data": 0,
                        "gas": 0,
                        "value": 0
                    },
                    "state": {
                        "0xf11ad33e62fe2c277576a300b98336106e94ba27": {
                            "nonce": "0x01",
                            "balance": "0x0de0b6b3a74d512a",
                            "code": "0x",
                            "storage": {}
                        },
                        "0xad79c531d5601d16a4c07220a3aa44844a4ab729": {
                            "nonce": "0x00",
                            "balance": "0x00",
                            "code": "0x6000600060006000601873ad79c531d5601d16a4c07220a3aa44844a4ab829620186a0f1585573ad79c531d5601d16a4c07220a3aa44844a4ab829ff00",
                            "storage": {
                                "0x24": "0x01"
                            }
                        },
                        "0xad79c531d5601d16a4c07220a3aa44844a4ab829": {
                            "nonce": "0x00",
                            "balance": "0x0de0b6b3a76586b7",
                            "code": "0x6000600060006000601773ad79c531d5601d16a4c07220a3aa44844a4ab72961c350f1600101585500",
                            "storage": {
                                "0x26": "0x01"
                            }
                        }
                    }
                }
            ]
        },
        "config": {
            "blobSchedule": {
                "Cancun": {
                    "target": "0x03",
                    "max": "0x06",
                    "baseFeeUpdateFraction": "0x32f0ed"
                }
            },
            "chainid": "0x01"
        },
        "_info": {
            "hash": "0x1a8d0d6ff0a863d43d949fac8e3414b32de3e5cbdd4be91bd072284e96ca9b9a",
            "comment": "`execution-spec-tests` generated test",
            "filling-transition-tool": "ethereum-spec-evm-resolver 0.0.5",
            "description": "No description available - add a docstring to the python test class or function.",
            "url": "",
            "fixture-format": "state_test",
            "eels-resolution": {
                "git-url": "https://github.com/marioevz/execution-specs.git",
                "branch": "forks/bpo1",
                "commit": "3387e5f4aedfe99becfdc39b444d6371e25e0924"
            }
        }
    },
    "tests/static/state_tests/stSystemOperationsTest/ABAcallsSuicide0Filler.json::ABAcallsSuicide0[fork_Osaka-state_test-]": {
        "env": {
            "currentCoinbase": "0x2adc25665018aa1fe0e6bc666dac8fc2697ff9ba",
            "currentGasLimit": "0x05f5e100",
            "currentNumber": "0x01",
            "currentTimestamp": "0x03e8",
            "currentRandom": "0x0000000000000000000000000000000000000000000000000000000000020000",
            "currentDifficulty": "0x00",
            "currentBaseFee": "0x0a",
            "currentExcessBlobGas": "0x00"
        },
        "pre": {
            "0xf11ad33e62fe2c277576a300b98336106e94ba27": {
                "nonce": "0x00",
                "balance": "0x0de0b6b3a7640000",
                "code": "0x",
                "storage": {}
            },
            "0xad79c531d5601d16a4c07220a3aa44844a4ab729": {
                "nonce": "0x00",
                "balance": "0x0de0b6b3a7640000",
                "code": "0x6000600060006000601873ad79c531d5601d16a4c07220a3aa44844a4ab829620186a0f1585573ad79c531d5601d16a4c07220a3aa44844a4ab829ff00",
                "storage": {}
            },
            "0xad79c531d5601d16a4c07220a3aa44844a4ab829": {
                "nonce": "0x00",
                "balance": "0x17",
                "code": "0x6000600060006000601773ad79c531d5601d16a4c07220a3aa44844a4ab72961c350f1600101585500",
                "storage": {}
            }
        },
        "transaction": {
            "nonce": "0x00",
            "gasPrice": "0x0a",
            "gasLimit": [
                "0x989680"
            ],
            "to": "0xad79c531d5601d16a4c07220a3aa44844a4ab729",
            "value": [
                "0x0186a0"
            ],
            "data": [
                "0x"
            ],
            "sender": "0xf11ad33e62fe2c277576a300b98336106e94ba27",
            "secretKey": "0xaecaf59d39b27f37c00caa52ad79c531d5601d16a4c07220a3aa44844a4ab729"
        },
        "post": {
            "Osaka": [
                {
                    "hash": "0x0a3d0c9ec1de53909d17143788363a27676f1afa4419ac71f49116dbd9495469",
                    "logs": "0x1dcc4de8dec75d7aab85b567b6ccd41ad312451b948a7413f0a142fd40d49347",
                    "txbytes": "0xf863800a8398968094ad79c531d5601d16a4c07220a3aa44844a4ab729830186a08025a06ff016c4f4f300c7e0859b3bb2d5eab34bc9dcecca870272fc51084bacb1bb9ca02712bcaf043b0c5769b6fbe52bc192eaf0508e79bbb9bd9f0c03ddb40193a06f",
                    "indexes": {
                        "data": 0,
                        "gas": 0,
                        "value": 0
                    },
                    "state": {
                        "0xf11ad33e62fe2c277576a300b98336106e94ba27": {
                            "nonce": "0x01",
                            "balance": "0x0de0b6b3a74d512a",
                            "code": "0x",
                            "storage": {}
                        },
                        "0xad79c531d5601d16a4c07220a3aa44844a4ab729": {
                            "nonce": "0x00",
                            "balance": "0x00",
                            "code": "0x6000600060006000601873ad79c531d5601d16a4c07220a3aa44844a4ab829620186a0f1585573ad79c531d5601d16a4c07220a3aa44844a4ab829ff00",
                            "storage": {
                                "0x24": "0x01"
                            }
                        },
                        "0xad79c531d5601d16a4c07220a3aa44844a4ab829": {
                            "nonce": "0x00",
                            "balance": "0x0de0b6b3a76586b7",
                            "code": "0x6000600060006000601773ad79c531d5601d16a4c07220a3aa44844a4ab72961c350f1600101585500",
                            "storage": {
                                "0x26": "0x01"
                            }
                        }
                    }
                }
            ]
        },
        "config": {
            "blobSchedule": {
                "Cancun": {
                    "target": "0x03",
                    "max": "0x06",
                    "baseFeeUpdateFraction": "0x32f0ed"
                },
                "Prague": {
                    "target": "0x06",
                    "max": "0x09",
                    "baseFeeUpdateFraction": "0x4c6964"
                },
                "Osaka": {
                    "target": "0x06",
                    "max": "0x09",
                    "baseFeeUpdateFraction": "0x4c6964"
                }
            },
            "chainid": "0x01"
        },
        "_info": {
            "hash": "0xd95ac9641a488fa03fc25dd08a12cd5d7d1658af4cc84b325feea3a5cf1ca8b8",
            "comment": "`execution-spec-tests` generated test",
            "filling-transition-tool": "ethereum-spec-evm-resolver 0.0.5",
            "description": "No description available - add a docstring to the python test class or function.",
            "url": "",
            "fixture-format": "state_test",
            "eels-resolution": {
                "git-url": "https://github.com/marioevz/execution-specs.git",
                "branch": "forks/bpo1",
                "commit": "3387e5f4aedfe99becfdc39b444d6371e25e0924"
            }
        }
    },
    "tests/static/state_tests/stSystemOperationsTest/ABAcallsSuicide0Filler.json::ABAcallsSuicide0[fork_Prague-state_test-]": {
        "env": {
            "currentCoinbase": "0x2adc25665018aa1fe0e6bc666dac8fc2697ff9ba",
            "currentGasLimit": "0x05f5e100",
            "currentNumber": "0x01",
            "currentTimestamp": "0x03e8",
            "currentRandom": "0x0000000000000000000000000000000000000000000000000000000000020000",
            "currentDifficulty": "0x00",
            "currentBaseFee": "0x0a",
            "currentExcessBlobGas": "0x00"
        },
        "pre": {
            "0xf11ad33e62fe2c277576a300b98336106e94ba27": {
                "nonce": "0x00",
                "balance": "0x0de0b6b3a7640000",
                "code": "0x",
                "storage": {}
            },
            "0xad79c531d5601d16a4c07220a3aa44844a4ab729": {
                "nonce": "0x00",
                "balance": "0x0de0b6b3a7640000",
                "code": "0x6000600060006000601873ad79c531d5601d16a4c07220a3aa44844a4ab829620186a0f1585573ad79c531d5601d16a4c07220a3aa44844a4ab829ff00",
                "storage": {}
            },
            "0xad79c531d5601d16a4c07220a3aa44844a4ab829": {
                "nonce": "0x00",
                "balance": "0x17",
                "code": "0x6000600060006000601773ad79c531d5601d16a4c07220a3aa44844a4ab72961c350f1600101585500",
                "storage": {}
            }
        },
        "transaction": {
            "nonce": "0x00",
            "gasPrice": "0x0a",
            "gasLimit": [
                "0x989680"
            ],
            "to": "0xad79c531d5601d16a4c07220a3aa44844a4ab729",
            "value": [
                "0x0186a0"
            ],
            "data": [
                "0x"
            ],
            "sender": "0xf11ad33e62fe2c277576a300b98336106e94ba27",
            "secretKey": "0xaecaf59d39b27f37c00caa52ad79c531d5601d16a4c07220a3aa44844a4ab729"
        },
        "post": {
            "Prague": [
                {
                    "hash": "0x0a3d0c9ec1de53909d17143788363a27676f1afa4419ac71f49116dbd9495469",
                    "logs": "0x1dcc4de8dec75d7aab85b567b6ccd41ad312451b948a7413f0a142fd40d49347",
                    "txbytes": "0xf863800a8398968094ad79c531d5601d16a4c07220a3aa44844a4ab729830186a08025a06ff016c4f4f300c7e0859b3bb2d5eab34bc9dcecca870272fc51084bacb1bb9ca02712bcaf043b0c5769b6fbe52bc192eaf0508e79bbb9bd9f0c03ddb40193a06f",
                    "indexes": {
                        "data": 0,
                        "gas": 0,
                        "value": 0
                    },
                    "state": {
                        "0xf11ad33e62fe2c277576a300b98336106e94ba27": {
                            "nonce": "0x01",
                            "balance": "0x0de0b6b3a74d512a",
                            "code": "0x",
                            "storage": {}
                        },
                        "0xad79c531d5601d16a4c07220a3aa44844a4ab729": {
                            "nonce": "0x00",
                            "balance": "0x00",
                            "code": "0x6000600060006000601873ad79c531d5601d16a4c07220a3aa44844a4ab829620186a0f1585573ad79c531d5601d16a4c07220a3aa44844a4ab829ff00",
                            "storage": {
                                "0x24": "0x01"
                            }
                        },
                        "0xad79c531d5601d16a4c07220a3aa44844a4ab829": {
                            "nonce": "0x00",
                            "balance": "0x0de0b6b3a76586b7",
                            "code": "0x6000600060006000601773ad79c531d5601d16a4c07220a3aa44844a4ab72961c350f1600101585500",
                            "storage": {
                                "0x26": "0x01"
                            }
                        }
                    }
                }
            ]
        },
        "config": {
            "blobSchedule": {
                "Cancun": {
                    "target": "0x03",
                    "max": "0x06",
                    "baseFeeUpdateFraction": "0x32f0ed"
                },
                "Prague": {
                    "target": "0x06",
                    "max": "0x09",
                    "baseFeeUpdateFraction": "0x4c6964"
                }
            },
            "chainid": "0x01"
        },
        "_info": {
            "hash": "0xbeeb97549cc8d20c57a8c32365c86088c9b3fbb895ebe2a6093fcd2b39a64d9f",
            "comment": "`execution-spec-tests` generated test",
            "filling-transition-tool": "ethereum-spec-evm-resolver 0.0.5",
            "description": "No description available - add a docstring to the python test class or function.",
            "url": "",
            "fixture-format": "state_test",
            "eels-resolution": {
                "git-url": "https://github.com/marioevz/execution-specs.git",
                "branch": "forks/bpo1",
                "commit": "3387e5f4aedfe99becfdc39b444d6371e25e0924"
            }
        }
    }
}