{
    "tests/static/state_tests/stSystemOperationsTest/ABAcallsSuicide1Filler.json::ABAcallsSuicide1[fork_Cancun-state_test-d0]": {
        "env": {
            "currentCoinbase": "0x2adc25665018aa1fe0e6bc666dac8fc2697ff9ba",
            "currentGasLimit": "0x05f5e100",
            "currentNumber": "0x01",
            "currentTimestamp": "0x03e8",
            "currentRandom": "0x0000000000000000000000000000000000000000000000000000000000020000",
            "currentDifficulty": "0x00",
            "currentBaseFee": "0x0a",
            "currentExcessBlobGas": "0x00"
        },
        "pre": {
            "0x095e7baea6a6c7c4c2dfeb977efac326af552d87": {
                "nonce": "0x00",
                "balance": "0x0de0b6b3a7640000",
                "code": "0x6000356000526000600060206000601873945304eb96065b2a98b57a48a06ae28d285a71b5600035f1585500",
                "storage": {}
            },
            "0x945304eb96065b2a98b57a48a06ae28d285a71b5": {
                "nonce": "0x00",
                "balance": "0x17",
                "code": "0x6000356000526000600060206000601773095e7baea6a6c7c4c2dfeb977efac326af552d8761c35060003503f16001015855730f572e5295c57f15886f9b263e2f6d2d6c7b5ec6ff00",
                "storage": {}
            },
            "0xa94f5374fce5edbc8e2a8697c15331677e6ebf0b": {
                "nonce": "0x00",
                "balance": "0x0de0b6b3a7640000",
                "code": "0x",
                "storage": {}
            }
        },
        "transaction": {
            "nonce": "0x00",
            "gasPrice": "0x0a",
            "gasLimit": [
                "0x989680"
            ],
            "to": "0x095e7baea6a6c7c4c2dfeb977efac326af552d87",
            "value": [
                "0x0186a0"
            ],
            "data": [
                "0x00000000000000000000000000000000000000000000000000000000000186a0"
            ],
            "sender": "0xa94f5374fce5edbc8e2a8697c15331677e6ebf0b",
            "secretKey": "0x45a915e4d060149eb4365960e6a7a45f334393093061116b197e3240065ff2d8"
        },
        "post": {
            "Cancun": [
                {
                    "hash": "0x253bea812f8f87f73fb4517352e376f48ab568648878d64c117894070a4f081d",
                    "logs": "0x1dcc4de8dec75d7aab85b567b6ccd41ad312451b948a7413f0a142fd40d49347",
                    "txbytes": "0xf883800a8398968094095e7baea6a6c7c4c2dfeb977efac326af552d87830186a0a000000000000000000000000000000000000000000000000000000000000186a025a0c1b538b3602d831fb1477001180cb19375c210948ed41040201cea07aed203dea007c535f12bed512a273374a84336b2f2b24a4105b2fca58f1513959b32db2db0",
                    "indexes": {
                        "data": 0,
                        "gas": 0,
                        "value": 0
                    },
                    "state": {
                        "0x095e7baea6a6c7c4c2dfeb977efac326af552d87": {
                            "nonce": "0x00",
                            "balance": "0x0de0b6b3a76586a0",
                            "code": "0x6000356000526000600060206000601873945304eb96065b2a98b57a48a06ae28d285a71b5600035f1585500",
                            "storage": {}
                        },
                        "0x945304eb96065b2a98b57a48a06ae28d285a71b5": {
                            "nonce": "0x00",
                            "balance": "0x17",
                            "code": "0x6000356000526000600060206000601773095e7baea6a6c7c4c2dfeb977efac326af552d8761c35060003503f16001015855730f572e5295c57f15886f9b263e2f6d2d6c7b5ec6ff00",
                            "storage": {}
                        },
                        "0xa94f5374fce5edbc8e2a8697c15331677e6ebf0b": {
                            "nonce": "0x01",
                            "balance": "0x0de0b6b3a74ddfbe",
                            "code": "0x",
                            "storage": {}
                        }
                    }
                }
            ]
        },
        "config": {
            "blobSchedule": {
                "Cancun": {
                    "target": "0x03",
                    "max": "0x06",
                    "baseFeeUpdateFraction": "0x32f0ed"
                }
            },
            "chainid": "0x01"
        },
        "_info": {
            "hash": "0x5a8288e496f08d9cf5c93432e52fd0475c762d0a0e85e4d63a3caad02725272f",
            "comment": "`execution-specs` generated test",
            "filling-transition-tool": "2.18.0rc6",
            "description": "No description available - add a docstring to the python test class or function.",
            "url": "",
            "fixture-format": "state_test"
        }
    },
    "tests/static/state_tests/stSystemOperationsTest/ABAcallsSuicide1Filler.json::ABAcallsSuicide1[fork_Cancun-state_test-d1]": {
        "env": {
            "currentCoinbase": "0x2adc25665018aa1fe0e6bc666dac8fc2697ff9ba",
            "currentGasLimit": "0x05f5e100",
            "currentNumber": "0x01",
            "currentTimestamp": "0x03e8",
            "currentRandom": "0x0000000000000000000000000000000000000000000000000000000000020000",
            "currentDifficulty": "0x00",
            "currentBaseFee": "0x0a",
            "currentExcessBlobGas": "0x00"
        },
        "pre": {
            "0x095e7baea6a6c7c4c2dfeb977efac326af552d87": {
                "nonce": "0x00",
                "balance": "0x0de0b6b3a7640000",
                "code": "0x6000356000526000600060206000601873945304eb96065b2a98b57a48a06ae28d285a71b5600035f1585500",
                "storage": {}
            },
            "0x945304eb96065b2a98b57a48a06ae28d285a71b5": {
                "nonce": "0x00",
                "balance": "0x17",
                "code": "0x6000356000526000600060206000601773095e7baea6a6c7c4c2dfeb977efac326af552d8761c35060003503f16001015855730f572e5295c57f15886f9b263e2f6d2d6c7b5ec6ff00",
                "storage": {}
            },
            "0xa94f5374fce5edbc8e2a8697c15331677e6ebf0b": {
                "nonce": "0x00",
                "balance": "0x0de0b6b3a7640000",
                "code": "0x",
                "storage": {}
            }
        },
        "transaction": {
            "nonce": "0x00",
            "gasPrice": "0x0a",
            "gasLimit": [
                "0x989680"
            ],
            "to": "0x095e7baea6a6c7c4c2dfeb977efac326af552d87",
            "value": [
                "0x0186a0"
            ],
            "data": [
                "0x00000000000000000000000000000000000000000000000000000000000486a0"
            ],
            "sender": "0xa94f5374fce5edbc8e2a8697c15331677e6ebf0b",
            "secretKey": "0x45a915e4d060149eb4365960e6a7a45f334393093061116b197e3240065ff2d8"
        },
        "post": {
            "Cancun": [
                {
                    "hash": "0xa342612b2924620f680672af5203b9c32effac6150dc8608ae42f26235823ef7",
                    "logs": "0x1dcc4de8dec75d7aab85b567b6ccd41ad312451b948a7413f0a142fd40d49347",
                    "txbytes": "0xf883800a8398968094095e7baea6a6c7c4c2dfeb977efac326af552d87830186a0a000000000000000000000000000000000000000000000000000000000000486a025a05b95845b7474e9545611fbb4147155b8b16fe09607bf88801449cbe11b6d4785a001bade5495c5d55fcbd19560b5d40da710568fe262b44a37b4f6b5c0c893d000",
                    "indexes": {
                        "data": 0,
                        "gas": 0,
                        "value": 0
                    },
                    "state": {
                        "0x095e7baea6a6c7c4c2dfeb977efac326af552d87": {
                            "nonce": "0x00",
                            "balance": "0x0de0b6b3a76586a0",
                            "code": "0x6000356000526000600060206000601873945304eb96065b2a98b57a48a06ae28d285a71b5600035f1585500",
                            "storage": {}
                        },
                        "0x945304eb96065b2a98b57a48a06ae28d285a71b5": {
                            "nonce": "0x00",
                            "balance": "0x17",
                            "code": "0x6000356000526000600060206000601773095e7baea6a6c7c4c2dfeb977efac326af552d8761c35060003503f16001015855730f572e5295c57f15886f9b263e2f6d2d6c7b5ec6ff00",
                            "storage": {}
                        },
                        "0xa94f5374fce5edbc8e2a8697c15331677e6ebf0b": {
                            "nonce": "0x01",
                            "balance": "0x0de0b6b3a72fdfbe",
                            "code": "0x",
                            "storage": {}
                        }
                    }
                }
            ]
        },
        "config": {
            "blobSchedule": {
                "Cancun": {
                    "target": "0x03",
                    "max": "0x06",
                    "baseFeeUpdateFraction": "0x32f0ed"
                }
            },
            "chainid": "0x01"
        },
        "_info": {
            "hash": "0x7d50513086cbe6e537a82acca97b0dba935f2993bf60d7948afecf8ffb4967c8",
            "comment": "`execution-specs` generated test",
            "filling-transition-tool": "2.18.0rc6",
            "description": "No description available - add a docstring to the python test class or function.",
            "url": "",
            "fixture-format": "state_test"
        }
    },
    "tests/static/state_tests/stSystemOperationsTest/ABAcallsSuicide1Filler.json::ABAcallsSuicide1[fork_Osaka-state_test-d0]": {
        "env": {
            "currentCoinbase": "0x2adc25665018aa1fe0e6bc666dac8fc2697ff9ba",
            "currentGasLimit": "0x05f5e100",
            "currentNumber": "0x01",
            "currentTimestamp": "0x03e8",
            "currentRandom": "0x0000000000000000000000000000000000000000000000000000000000020000",
            "currentDifficulty": "0x00",
            "currentBaseFee": "0x0a",
            "currentExcessBlobGas": "0x00"
        },
        "pre": {
            "0x095e7baea6a6c7c4c2dfeb977efac326af552d87": {
                "nonce": "0x00",
                "balance": "0x0de0b6b3a7640000",
                "code": "0x6000356000526000600060206000601873945304eb96065b2a98b57a48a06ae28d285a71b5600035f1585500",
                "storage": {}
            },
            "0x945304eb96065b2a98b57a48a06ae28d285a71b5": {
                "nonce": "0x00",
                "balance": "0x17",
                "code": "0x6000356000526000600060206000601773095e7baea6a6c7c4c2dfeb977efac326af552d8761c35060003503f16001015855730f572e5295c57f15886f9b263e2f6d2d6c7b5ec6ff00",
                "storage": {}
            },
            "0xa94f5374fce5edbc8e2a8697c15331677e6ebf0b": {
                "nonce": "0x00",
                "balance": "0x0de0b6b3a7640000",
                "code": "0x",
                "storage": {}
            }
        },
        "transaction": {
            "nonce": "0x00",
            "gasPrice": "0x0a",
            "gasLimit": [
                "0x989680"
            ],
            "to": "0x095e7baea6a6c7c4c2dfeb977efac326af552d87",
            "value": [
                "0x0186a0"
            ],
            "data": [
                "0x00000000000000000000000000000000000000000000000000000000000186a0"
            ],
            "sender": "0xa94f5374fce5edbc8e2a8697c15331677e6ebf0b",
            "secretKey": "0x45a915e4d060149eb4365960e6a7a45f334393093061116b197e3240065ff2d8"
        },
        "post": {
            "Osaka": [
                {
                    "hash": "0x253bea812f8f87f73fb4517352e376f48ab568648878d64c117894070a4f081d",
                    "logs": "0x1dcc4de8dec75d7aab85b567b6ccd41ad312451b948a7413f0a142fd40d49347",
                    "txbytes": "0xf883800a8398968094095e7baea6a6c7c4c2dfeb977efac326af552d87830186a0a000000000000000000000000000000000000000000000000000000000000186a025a0c1b538b3602d831fb1477001180cb19375c210948ed41040201cea07aed203dea007c535f12bed512a273374a84336b2f2b24a4105b2fca58f1513959b32db2db0",
                    "indexes": {
                        "data": 0,
                        "gas": 0,
                        "value": 0
                    },
                    "state": {
                        "0x095e7baea6a6c7c4c2dfeb977efac326af552d87": {
                            "nonce": "0x00",
                            "balance": "0x0de0b6b3a76586a0",
                            "code": "0x6000356000526000600060206000601873945304eb96065b2a98b57a48a06ae28d285a71b5600035f1585500",
                            "storage": {}
                        },
                        "0x945304eb96065b2a98b57a48a06ae28d285a71b5": {
                            "nonce": "0x00",
                            "balance": "0x17",
                            "code": "0x6000356000526000600060206000601773095e7baea6a6c7c4c2dfeb977efac326af552d8761c35060003503f16001015855730f572e5295c57f15886f9b263e2f6d2d6c7b5ec6ff00",
                            "storage": {}
                        },
                        "0xa94f5374fce5edbc8e2a8697c15331677e6ebf0b": {
                            "nonce": "0x01",
                            "balance": "0x0de0b6b3a74ddfbe",
                            "code": "0x",
                            "storage": {}
                        }
                    }
                }
            ]
        },
        "config": {
            "blobSchedule": {
                "Cancun": {
                    "target": "0x03",
                    "max": "0x06",
                    "baseFeeUpdateFraction": "0x32f0ed"
                },
                "Prague": {
                    "target": "0x06",
                    "max": "0x09",
                    "baseFeeUpdateFraction": "0x4c6964"
                },
                "Osaka": {
                    "target": "0x06",
                    "max": "0x09",
                    "baseFeeUpdateFraction": "0x4c6964"
                }
            },
            "chainid": "0x01"
        },
        "_info": {
            "hash": "0x6c63bb79c825f1ae3c084a911a25b8ff7ba553a1ce8eaa65ca07c5d2b6a7f161",
            "comment": "`execution-specs` generated test",
            "filling-transition-tool": "2.18.0rc6",
            "description": "No description available - add a docstring to the python test class or function.",
            "url": "",
            "fixture-format": "state_test"
        }
    },
    "tests/static/state_tests/stSystemOperationsTest/ABAcallsSuicide1Filler.json::ABAcallsSuicide1[fork_Osaka-state_test-d1]": {
        "env": {
            "currentCoinbase": "0x2adc25665018aa1fe0e6bc666dac8fc2697ff9ba",
            "currentGasLimit": "0x05f5e100",
            "currentNumber": "0x01",
            "currentTimestamp": "0x03e8",
            "currentRandom": "0x0000000000000000000000000000000000000000000000000000000000020000",
            "currentDifficulty": "0x00",
            "currentBaseFee": "0x0a",
            "currentExcessBlobGas": "0x00"
        },
        "pre": {
            "0x095e7baea6a6c7c4c2dfeb977efac326af552d87": {
                "nonce": "0x00",
                "balance": "0x0de0b6b3a7640000",
                "code": "0x6000356000526000600060206000601873945304eb96065b2a98b57a48a06ae28d285a71b5600035f1585500",
                "storage": {}
            },
            "0x945304eb96065b2a98b57a48a06ae28d285a71b5": {
                "nonce": "0x00",
                "balance": "0x17",
                "code": "0x6000356000526000600060206000601773095e7baea6a6c7c4c2dfeb977efac326af552d8761c35060003503f16001015855730f572e5295c57f15886f9b263e2f6d2d6c7b5ec6ff00",
                "storage": {}
            },
            "0xa94f5374fce5edbc8e2a8697c15331677e6ebf0b": {
                "nonce": "0x00",
                "balance": "0x0de0b6b3a7640000",
                "code": "0x",
                "storage": {}
            }
        },
        "transaction": {
            "nonce": "0x00",
            "gasPrice": "0x0a",
            "gasLimit": [
                "0x989680"
            ],
            "to": "0x095e7baea6a6c7c4c2dfeb977efac326af552d87",
            "value": [
                "0x0186a0"
            ],
            "data": [
                "0x00000000000000000000000000000000000000000000000000000000000486a0"
            ],
            "sender": "0xa94f5374fce5edbc8e2a8697c15331677e6ebf0b",
            "secretKey": "0x45a915e4d060149eb4365960e6a7a45f334393093061116b197e3240065ff2d8"
        },
        "post": {
            "Osaka": [
                {
                    "hash": "0xa342612b2924620f680672af5203b9c32effac6150dc8608ae42f26235823ef7",
                    "logs": "0x1dcc4de8dec75d7aab85b567b6ccd41ad312451b948a7413f0a142fd40d49347",
                    "txbytes": "0xf883800a8398968094095e7baea6a6c7c4c2dfeb977efac326af552d87830186a0a000000000000000000000000000000000000000000000000000000000000486a025a05b95845b7474e9545611fbb4147155b8b16fe09607bf88801449cbe11b6d4785a001bade5495c5d55fcbd19560b5d40da710568fe262b44a37b4f6b5c0c893d000",
                    "indexes": {
                        "data": 0,
                        "gas": 0,
                        "value": 0
                    },
                    "state": {
                        "0x095e7baea6a6c7c4c2dfeb977efac326af552d87": {
                            "nonce": "0x00",
                            "balance": "0x0de0b6b3a76586a0",
                            "code": "0x6000356000526000600060206000601873945304eb96065b2a98b57a48a06ae28d285a71b5600035f1585500",
                            "storage": {}
                        },
                        "0x945304eb96065b2a98b57a48a06ae28d285a71b5": {
                            "nonce": "0x00",
                            "balance": "0x17",
                            "code": "0x6000356000526000600060206000601773095e7baea6a6c7c4c2dfeb977efac326af552d8761c35060003503f16001015855730f572e5295c57f15886f9b263e2f6d2d6c7b5ec6ff00",
                            "storage": {}
                        },
                        "0xa94f5374fce5edbc8e2a8697c15331677e6ebf0b": {
                            "nonce": "0x01",
                            "balance": "0x0de0b6b3a72fdfbe",
                            "code": "0x",
                            "storage": {}
                        }
                    }
                }
            ]
        },
        "config": {
            "blobSchedule": {
                "Cancun": {
                    "target": "0x03",
                    "max": "0x06",
                    "baseFeeUpdateFraction": "0x32f0ed"
                },
                "Prague": {
                    "target": "0x06",
                    "max": "0x09",
                    "baseFeeUpdateFraction": "0x4c6964"
                },
                "Osaka": {
                    "target": "0x06",
                    "max": "0x09",
                    "baseFeeUpdateFraction": "0x4c6964"
                }
            },
            "chainid": "0x01"
        },
        "_info": {
            "hash": "0x6e82e4cddfd621a0ba94ad98cec6fad5f165e3d5951a8a5c69825d10d6c34733",
            "comment": "`execution-specs` generated test",
            "filling-transition-tool": "2.18.0rc6",
            "description": "No description available - add a docstring to the python test class or function.",
            "url": "",
            "fixture-format": "state_test"
        }
    },
    "tests/static/state_tests/stSystemOperationsTest/ABAcallsSuicide1Filler.json::ABAcallsSuicide1[fork_Prague-state_test-d0]": {
        "env": {
            "currentCoinbase": "0x2adc25665018aa1fe0e6bc666dac8fc2697ff9ba",
            "currentGasLimit": "0x05f5e100",
            "currentNumber": "0x01",
            "currentTimestamp": "0x03e8",
            "currentRandom": "0x0000000000000000000000000000000000000000000000000000000000020000",
            "currentDifficulty": "0x00",
            "currentBaseFee": "0x0a",
            "currentExcessBlobGas": "0x00"
        },
        "pre": {
            "0x095e7baea6a6c7c4c2dfeb977efac326af552d87": {
                "nonce": "0x00",
                "balance": "0x0de0b6b3a7640000",
                "code": "0x6000356000526000600060206000601873945304eb96065b2a98b57a48a06ae28d285a71b5600035f1585500",
                "storage": {}
            },
            "0x945304eb96065b2a98b57a48a06ae28d285a71b5": {
                "nonce": "0x00",
                "balance": "0x17",
                "code": "0x6000356000526000600060206000601773095e7baea6a6c7c4c2dfeb977efac326af552d8761c35060003503f16001015855730f572e5295c57f15886f9b263e2f6d2d6c7b5ec6ff00",
                "storage": {}
            },
            "0xa94f5374fce5edbc8e2a8697c15331677e6ebf0b": {
                "nonce": "0x00",
                "balance": "0x0de0b6b3a7640000",
                "code": "0x",
                "storage": {}
            }
        },
        "transaction": {
            "nonce": "0x00",
            "gasPrice": "0x0a",
            "gasLimit": [
                "0x989680"
            ],
            "to": "0x095e7baea6a6c7c4c2dfeb977efac326af552d87",
            "value": [
                "0x0186a0"
            ],
            "data": [
                "0x00000000000000000000000000000000000000000000000000000000000186a0"
            ],
            "sender": "0xa94f5374fce5edbc8e2a8697c15331677e6ebf0b",
            "secretKey": "0x45a915e4d060149eb4365960e6a7a45f334393093061116b197e3240065ff2d8"
        },
        "post": {
            "Prague": [
                {
                    "hash": "0x253bea812f8f87f73fb4517352e376f48ab568648878d64c117894070a4f081d",
                    "logs": "0x1dcc4de8dec75d7aab85b567b6ccd41ad312451b948a7413f0a142fd40d49347",
                    "txbytes": "0xf883800a8398968094095e7baea6a6c7c4c2dfeb977efac326af552d87830186a0a000000000000000000000000000000000000000000000000000000000000186a025a0c1b538b3602d831fb1477001180cb19375c210948ed41040201cea07aed203dea007c535f12bed512a273374a84336b2f2b24a4105b2fca58f1513959b32db2db0",
                    "indexes": {
                        "data": 0,
                        "gas": 0,
                        "value": 0
                    },
                    "state": {
                        "0x095e7baea6a6c7c4c2dfeb977efac326af552d87": {
                            "nonce": "0x00",
                            "balance": "0x0de0b6b3a76586a0",
                            "code": "0x6000356000526000600060206000601873945304eb96065b2a98b57a48a06ae28d285a71b5600035f1585500",
                            "storage": {}
                        },
                        "0x945304eb96065b2a98b57a48a06ae28d285a71b5": {
                            "nonce": "0x00",
                            "balance": "0x17",
                            "code": "0x6000356000526000600060206000601773095e7baea6a6c7c4c2dfeb977efac326af552d8761c35060003503f16001015855730f572e5295c57f15886f9b263e2f6d2d6c7b5ec6ff00",
                            "storage": {}
                        },
                        "0xa94f5374fce5edbc8e2a8697c15331677e6ebf0b": {
                            "nonce": "0x01",
                            "balance": "0x0de0b6b3a74ddfbe",
                            "code": "0x",
                            "storage": {}
                        }
                    }
                }
            ]
        },
        "config": {
            "blobSchedule": {
                "Cancun": {
                    "target": "0x03",
                    "max": "0x06",
                    "baseFeeUpdateFraction": "0x32f0ed"
                },
                "Prague": {
                    "target": "0x06",
                    "max": "0x09",
                    "baseFeeUpdateFraction": "0x4c6964"
                }
            },
            "chainid": "0x01"
        },
        "_info": {
            "hash": "0x4446728163310a6c7902575e2058df2d7c20b8ca544d2207e84c99e41ba5eb55",
            "comment": "`execution-specs` generated test",
            "filling-transition-tool": "2.18.0rc6",
            "description": "No description available - add a docstring to the python test class or function.",
            "url": "",
            "fixture-format": "state_test"
        }
    },
    "tests/static/state_tests/stSystemOperationsTest/ABAcallsSuicide1Filler.json::ABAcallsSuicide1[fork_Prague-state_test-d1]": {
        "env": {
            "currentCoinbase": "0x2adc25665018aa1fe0e6bc666dac8fc2697ff9ba",
            "currentGasLimit": "0x05f5e100",
            "currentNumber": "0x01",
            "currentTimestamp": "0x03e8",
            "currentRandom": "0x0000000000000000000000000000000000000000000000000000000000020000",
            "currentDifficulty": "0x00",
            "currentBaseFee": "0x0a",
            "currentExcessBlobGas": "0x00"
        },
        "pre": {
            "0x095e7baea6a6c7c4c2dfeb977efac326af552d87": {
                "nonce": "0x00",
                "balance": "0x0de0b6b3a7640000",
                "code": "0x6000356000526000600060206000601873945304eb96065b2a98b57a48a06ae28d285a71b5600035f1585500",
                "storage": {}
            },
            "0x945304eb96065b2a98b57a48a06ae28d285a71b5": {
                "nonce": "0x00",
                "balance": "0x17",
                "code": "0x6000356000526000600060206000601773095e7baea6a6c7c4c2dfeb977efac326af552d8761c35060003503f16001015855730f572e5295c57f15886f9b263e2f6d2d6c7b5ec6ff00",
                "storage": {}
            },
            "0xa94f5374fce5edbc8e2a8697c15331677e6ebf0b": {
                "nonce": "0x00",
                "balance": "0x0de0b6b3a7640000",
                "code": "0x",
                "storage": {}
            }
        },
        "transaction": {
            "nonce": "0x00",
            "gasPrice": "0x0a",
            "gasLimit": [
                "0x989680"
            ],
            "to": "0x095e7baea6a6c7c4c2dfeb977efac326af552d87",
            "value": [
                "0x0186a0"
            ],
            "data": [
                "0x00000000000000000000000000000000000000000000000000000000000486a0"
            ],
            "sender": "0xa94f5374fce5edbc8e2a8697c15331677e6ebf0b",
            "secretKey": "0x45a915e4d060149eb4365960e6a7a45f334393093061116b197e3240065ff2d8"
        },
        "post": {
            "Prague": [
                {
                    "hash": "0xa342612b2924620f680672af5203b9c32effac6150dc8608ae42f26235823ef7",
                    "logs": "0x1dcc4de8dec75d7aab85b567b6ccd41ad312451b948a7413f0a142fd40d49347",
                    "txbytes": "0xf883800a8398968094095e7baea6a6c7c4c2dfeb977efac326af552d87830186a0a000000000000000000000000000000000000000000000000000000000000486a025a05b95845b7474e9545611fbb4147155b8b16fe09607bf88801449cbe11b6d4785a001bade5495c5d55fcbd19560b5d40da710568fe262b44a37b4f6b5c0c893d000",
                    "indexes": {
                        "data": 0,
                        "gas": 0,
                        "value": 0
                    },
                    "state": {
                        "0x095e7baea6a6c7c4c2dfeb977efac326af552d87": {
                            "nonce": "0x00",
                            "balance": "0x0de0b6b3a76586a0",
                            "code": "0x6000356000526000600060206000601873945304eb96065b2a98b57a48a06ae28d285a71b5600035f1585500",
                            "storage": {}
                        },
                        "0x945304eb96065b2a98b57a48a06ae28d285a71b5": {
                            "nonce": "0x00",
                            "balance": "0x17",
                            "code": "0x6000356000526000600060206000601773095e7baea6a6c7c4c2dfeb977efac326af552d8761c35060003503f16001015855730f572e5295c57f15886f9b263e2f6d2d6c7b5ec6ff00",
                            "storage": {}
                        },
                        "0xa94f5374fce5edbc8e2a8697c15331677e6ebf0b": {
                            "nonce": "0x01",
                            "balance": "0x0de0b6b3a72fdfbe",
                            "code": "0x",
                            "storage": {}
                        }
                    }
                }
            ]
        },
        "config": {
            "blobSchedule": {
                "Cancun": {
                    "target": "0x03",
                    "max": "0x06",
                    "baseFeeUpdateFraction": "0x32f0ed"
                },
                "Prague": {
                    "target": "0x06",
                    "max": "0x09",
                    "baseFeeUpdateFraction": "0x4c6964"
                }
            },
            "chainid": "0x01"
        },
        "_info": {
            "hash": "0xedbf86e9f20d532585f51bcec279d8f542f97611c95fb140d61a25ccc6437737",
            "comment": "`execution-specs` generated test",
            "filling-transition-tool": "2.18.0rc6",
            "description": "No description available - add a docstring to the python test class or function.",
            "url": "",
            "fixture-format": "state_test"
        }
    }
}