{
    "tests/static/state_tests/stSystemOperationsTest/balanceInputAddressTooBigFiller.json::balanceInputAddressTooBig[fork_Cancun-state_test-]": {
        "env": {
            "currentCoinbase": "0x2adc25665018aa1fe0e6bc666dac8fc2697ff9ba",
            "currentGasLimit": "0x0f4240",
            "currentNumber": "0x01",
            "currentTimestamp": "0x03e8",
            "currentRandom": "0x0000000000000000000000000000000000000000000000000000000000020000",
            "currentDifficulty": "0x00",
            "currentBaseFee": "0x0a",
            "currentExcessBlobGas": "0x00"
        },
        "pre": {
            "0x7e9e9bbbac894de31c70dd33142a960e83054330": {
                "nonce": "0x00",
                "balance": "0x0de0b6b3a7640000",
                "code": "0x",
                "storage": {}
            },
            "0xdbf380098940493bab0021606aac92c5831ecdac": {
                "nonce": "0x00",
                "balance": "0x0de0b6b3a7640000",
                "code": "0x747e9e9bbbac894de31c70dd33142a960e83054330aa3160005500",
                "storage": {}
            }
        },
        "transaction": {
            "nonce": "0x00",
            "gasPrice": "0x0a",
            "gasLimit": [
                "0x0493e0"
            ],
            "to": "0xdbf380098940493bab0021606aac92c5831ecdac",
            "value": [
                "0x0186a0"
            ],
            "data": [
                "0x"
            ],
            "sender": "0x7e9e9bbbac894de31c70dd33142a960e83054330",
            "secretKey": "0xf2e816921ac9535f54ec7cb9dbf380098940493bab0021606aac92c5831ecdac"
        },
        "post": {
            "Cancun": [
                {
                    "hash": "0xe27c668ef8be87c8ab7cded43853695d6a120792cc4aa2b66cf823e9f32e11bb",
                    "logs": "0x1dcc4de8dec75d7aab85b567b6ccd41ad312451b948a7413f0a142fd40d49347",
                    "txbytes": "0xf863800a830493e094dbf380098940493bab0021606aac92c5831ecdac830186a08025a00c715e5262ffe978eaec8cddd4b983fe6278b36d2fec6505d5874819f3c5977ea02874829458692797e5110d12ac6724f35bfd7c1443cc9009b93f067115d979ce",
                    "indexes": {
                        "data": 0,
                        "gas": 0,
                        "value": 0
                    },
                    "state": {
                        "0x7e9e9bbbac894de31c70dd33142a960e83054330": {
                            "nonce": "0x01",
                            "balance": "0x0de0b6b3a75e8954",
                            "code": "0x",
                            "storage": {}
                        },
                        "0xdbf380098940493bab0021606aac92c5831ecdac": {
                            "nonce": "0x00",
                            "balance": "0x0de0b6b3a76586a0",
                            "code": "0x747e9e9bbbac894de31c70dd33142a960e83054330aa3160005500",
                            "storage": {}
                        }
                    }
                }
            ]
        },
        "config": {
            "blobSchedule": {
                "Cancun": {
                    "target": "0x03",
                    "max": "0x06",
                    "baseFeeUpdateFraction": "0x32f0ed"
                }
            },
            "chainid": "0x01"
        },
        "_info": {
            "hash": "0xfd8db18036ad170217d47269a9c0b9ae2ad8fb06e4ed54e47db67b62357d19d2",
            "comment": "`execution-spec-tests` generated test",
            "filling-transition-tool": "ethereum-spec-evm-resolver 0.0.5",
            "description": "No description available - add a docstring to the python test class or function.",
            "url": "",
            "fixture-format": "state_test",
            "eels-resolution": {
                "git-url": "https://github.com/ethereum/execution-specs.git",
                "branch": "forks/bpos",
                "commit": "7aacb2c54111391af5e98c505d5010b5698a770f"
            }
        }
    },
    "tests/static/state_tests/stSystemOperationsTest/balanceInputAddressTooBigFiller.json::balanceInputAddressTooBig[fork_Osaka-state_test-]": {
        "env": {
            "currentCoinbase": "0x2adc25665018aa1fe0e6bc666dac8fc2697ff9ba",
            "currentGasLimit": "0x0f4240",
            "currentNumber": "0x01",
            "currentTimestamp": "0x03e8",
            "currentRandom": "0x0000000000000000000000000000000000000000000000000000000000020000",
            "currentDifficulty": "0x00",
            "currentBaseFee": "0x0a",
            "currentExcessBlobGas": "0x00"
        },
        "pre": {
            "0x7e9e9bbbac894de31c70dd33142a960e83054330": {
                "nonce": "0x00",
                "balance": "0x0de0b6b3a7640000",
                "code": "0x",
                "storage": {}
            },
            "0xdbf380098940493bab0021606aac92c5831ecdac": {
                "nonce": "0x00",
                "balance": "0x0de0b6b3a7640000",
                "code": "0x747e9e9bbbac894de31c70dd33142a960e83054330aa3160005500",
                "storage": {}
            }
        },
        "transaction": {
            "nonce": "0x00",
            "gasPrice": "0x0a",
            "gasLimit": [
                "0x0493e0"
            ],
            "to": "0xdbf380098940493bab0021606aac92c5831ecdac",
            "value": [
                "0x0186a0"
            ],
            "data": [
                "0x"
            ],
            "sender": "0x7e9e9bbbac894de31c70dd33142a960e83054330",
            "secretKey": "0xf2e816921ac9535f54ec7cb9dbf380098940493bab0021606aac92c5831ecdac"
        },
        "post": {
            "Osaka": [
                {
                    "hash": "0xe27c668ef8be87c8ab7cded43853695d6a120792cc4aa2b66cf823e9f32e11bb",
                    "logs": "0x1dcc4de8dec75d7aab85b567b6ccd41ad312451b948a7413f0a142fd40d49347",
                    "txbytes": "0xf863800a830493e094dbf380098940493bab0021606aac92c5831ecdac830186a08025a00c715e5262ffe978eaec8cddd4b983fe6278b36d2fec6505d5874819f3c5977ea02874829458692797e5110d12ac6724f35bfd7c1443cc9009b93f067115d979ce",
                    "indexes": {
                        "data": 0,
                        "gas": 0,
                        "value": 0
                    },
                    "state": {
                        "0x7e9e9bbbac894de31c70dd33142a960e83054330": {
                            "nonce": "0x01",
                            "balance": "0x0de0b6b3a75e8954",
                            "code": "0x",
                            "storage": {}
                        },
                        "0xdbf380098940493bab0021606aac92c5831ecdac": {
                            "nonce": "0x00",
                            "balance": "0x0de0b6b3a76586a0",
                            "code": "0x747e9e9bbbac894de31c70dd33142a960e83054330aa3160005500",
                            "storage": {}
                        }
                    }
                }
            ]
        },
        "config": {
            "blobSchedule": {
                "Cancun": {
                    "target": "0x03",
                    "max": "0x06",
                    "baseFeeUpdateFraction": "0x32f0ed"
                },
                "Prague": {
                    "target": "0x06",
                    "max": "0x09",
                    "baseFeeUpdateFraction": "0x4c6964"
                },
                "Osaka": {
                    "target": "0x06",
                    "max": "0x09",
                    "baseFeeUpdateFraction": "0x4c6964"
                }
            },
            "chainid": "0x01"
        },
        "_info": {
            "hash": "0xa3c119d6539f498eede1bdbc1a35381bbe093f1b1875e1ac3e3a70f02b3fc579",
            "comment": "`execution-spec-tests` generated test",
            "filling-transition-tool": "ethereum-spec-evm-resolver 0.0.5",
            "description": "No description available - add a docstring to the python test class or function.",
            "url": "",
            "fixture-format": "state_test",
            "eels-resolution": {
                "git-url": "https://github.com/ethereum/execution-specs.git",
                "branch": "forks/bpos",
                "commit": "7aacb2c54111391af5e98c505d5010b5698a770f"
            }
        }
    },
    "tests/static/state_tests/stSystemOperationsTest/balanceInputAddressTooBigFiller.json::balanceInputAddressTooBig[fork_Prague-state_test-]": {
        "env": {
            "currentCoinbase": "0x2adc25665018aa1fe0e6bc666dac8fc2697ff9ba",
            "currentGasLimit": "0x0f4240",
            "currentNumber": "0x01",
            "currentTimestamp": "0x03e8",
            "currentRandom": "0x0000000000000000000000000000000000000000000000000000000000020000",
            "currentDifficulty": "0x00",
            "currentBaseFee": "0x0a",
            "currentExcessBlobGas": "0x00"
        },
        "pre": {
            "0x7e9e9bbbac894de31c70dd33142a960e83054330": {
                "nonce": "0x00",
                "balance": "0x0de0b6b3a7640000",
                "code": "0x",
                "storage": {}
            },
            "0xdbf380098940493bab0021606aac92c5831ecdac": {
                "nonce": "0x00",
                "balance": "0x0de0b6b3a7640000",
                "code": "0x747e9e9bbbac894de31c70dd33142a960e83054330aa3160005500",
                "storage": {}
            }
        },
        "transaction": {
            "nonce": "0x00",
            "gasPrice": "0x0a",
            "gasLimit": [
                "0x0493e0"
            ],
            "to": "0xdbf380098940493bab0021606aac92c5831ecdac",
            "value": [
                "0x0186a0"
            ],
            "data": [
                "0x"
            ],
            "sender": "0x7e9e9bbbac894de31c70dd33142a960e83054330",
            "secretKey": "0xf2e816921ac9535f54ec7cb9dbf380098940493bab0021606aac92c5831ecdac"
        },
        "post": {
            "Prague": [
                {
                    "hash": "0xe27c668ef8be87c8ab7cded43853695d6a120792cc4aa2b66cf823e9f32e11bb",
                    "logs": "0x1dcc4de8dec75d7aab85b567b6ccd41ad312451b948a7413f0a142fd40d49347",
                    "txbytes": "0xf863800a830493e094dbf380098940493bab0021606aac92c5831ecdac830186a08025a00c715e5262ffe978eaec8cddd4b983fe6278b36d2fec6505d5874819f3c5977ea02874829458692797e5110d12ac6724f35bfd7c1443cc9009b93f067115d979ce",
                    "indexes": {
                        "data": 0,
                        "gas": 0,
                        "value": 0
                    },
                    "state": {
                        "0x7e9e9bbbac894de31c70dd33142a960e83054330": {
                            "nonce": "0x01",
                            "balance": "0x0de0b6b3a75e8954",
                            "code": "0x",
                            "storage": {}
                        },
                        "0xdbf380098940493bab0021606aac92c5831ecdac": {
                            "nonce": "0x00",
                            "balance": "0x0de0b6b3a76586a0",
                            "code": "0x747e9e9bbbac894de31c70dd33142a960e83054330aa3160005500",
                            "storage": {}
                        }
                    }
                }
            ]
        },
        "config": {
            "blobSchedule": {
                "Cancun": {
                    "target": "0x03",
                    "max": "0x06",
                    "baseFeeUpdateFraction": "0x32f0ed"
                },
                "Prague": {
                    "target": "0x06",
                    "max": "0x09",
                    "baseFeeUpdateFraction": "0x4c6964"
                }
            },
            "chainid": "0x01"
        },
        "_info": {
            "hash": "0x24ef7608fc123b1373fdb4ac4a81ed800f4b1f4fa2a66d85e2c6ba18588b02db",
            "comment": "`execution-spec-tests` generated test",
            "filling-transition-tool": "ethereum-spec-evm-resolver 0.0.5",
            "description": "No description available - add a docstring to the python test class or function.",
            "url": "",
            "fixture-format": "state_test",
            "eels-resolution": {
                "git-url": "https://github.com/ethereum/execution-specs.git",
                "branch": "forks/bpos",
                "commit": "7aacb2c54111391af5e98c505d5010b5698a770f"
            }
        }
    }
}