{
    "tests/static/state_tests/stSystemOperationsTest/callcodeTo0Filler.json::callcodeTo0[fork_Cancun-state_test-]": {
        "env": {
            "currentCoinbase": "0x2adc25665018aa1fe0e6bc666dac8fc2697ff9ba",
            "currentGasLimit": "0x01c9c380",
            "currentNumber": "0x01",
            "currentTimestamp": "0x03e8",
            "currentRandom": "0x0000000000000000000000000000000000000000000000000000000000020000",
            "currentDifficulty": "0x00",
            "currentBaseFee": "0x0a",
            "currentExcessBlobGas": "0x00"
        },
        "pre": {
            "0xfa79be3dd3cfc3a6c57db9f28eb53a3c87a62d70": {
                "nonce": "0x00",
                "balance": "0x0de0b6b3a7640000",
                "code": "0x",
                "storage": {}
            },
            "0x1ec08c6834d1679b7c71c9d4517bffcc730af6e8": {
                "nonce": "0x00",
                "balance": "0x0de0b6b3a7640000",
                "code": "0x60006000600060006001600061c350f260005500",
                "storage": {}
            }
        },
        "transaction": {
            "nonce": "0x00",
            "gasPrice": "0x0a",
            "gasLimit": [
                "0x2dc6c0"
            ],
            "to": "0x1ec08c6834d1679b7c71c9d4517bffcc730af6e8",
            "value": [
                "0x0186a0"
            ],
            "data": [
                "0x"
            ],
            "sender": "0xfa79be3dd3cfc3a6c57db9f28eb53a3c87a62d70",
            "secretKey": "0x109c88cd34dff822851634c01ec08c6834d1679b7c71c9d4517bffcc730af6e8"
        },
        "post": {
            "Cancun": [
                {
                    "hash": "0xcaaaeff6946bf33b8fe640812b86a21a6a0f052a500f95a2e8fa758b3200e17d",
                    "logs": "0x1dcc4de8dec75d7aab85b567b6ccd41ad312451b948a7413f0a142fd40d49347",
                    "txbytes": "0xf863800a832dc6c0941ec08c6834d1679b7c71c9d4517bffcc730af6e8830186a08025a09ae18f980dca4336cf9af48ea0aefbabc28e28d514b0460d0c7c96b3ef26acbaa03fc30302bc10bfbbcc65f4dda25a5b2cce4934eac55a6a1f931b11bf55c01e23",
                    "indexes": {
                        "data": 0,
                        "gas": 0,
                        "value": 0
                    },
                    "state": {
                        "0xfa79be3dd3cfc3a6c57db9f28eb53a3c87a62d70": {
                            "nonce": "0x01",
                            "balance": "0x0de0b6b3a75a7990",
                            "code": "0x",
                            "storage": {}
                        },
                        "0x1ec08c6834d1679b7c71c9d4517bffcc730af6e8": {
                            "nonce": "0x00",
                            "balance": "0x0de0b6b3a76586a0",
                            "code": "0x60006000600060006001600061c350f260005500",
                            "storage": {
                                "0x00": "0x01"
                            }
                        }
                    }
                }
            ]
        },
        "config": {
            "blobSchedule": {
                "Cancun": {
                    "target": "0x03",
                    "max": "0x06",
                    "baseFeeUpdateFraction": "0x32f0ed"
                }
            },
            "chainid": "0x01"
        },
        "_info": {
            "hash": "0x7ebe26ca74e366a9b3bb19d54524b471995066b707ce33ca45413a8c42ee624d",
            "comment": "`execution-spec-tests` generated test",
            "filling-transition-tool": "ethereum-spec-evm-resolver 0.0.5",
            "description": "No description available - add a docstring to the python test class or function.",
            "url": "",
            "fixture-format": "state_test",
            "eels-resolution": {
                "git-url": "https://github.com/marioevz/execution-specs.git",
                "branch": "forks/bpo1",
                "commit": "3387e5f4aedfe99becfdc39b444d6371e25e0924"
            }
        }
    },
    "tests/static/state_tests/stSystemOperationsTest/callcodeTo0Filler.json::callcodeTo0[fork_Osaka-state_test-]": {
        "env": {
            "currentCoinbase": "0x2adc25665018aa1fe0e6bc666dac8fc2697ff9ba",
            "currentGasLimit": "0x01c9c380",
            "currentNumber": "0x01",
            "currentTimestamp": "0x03e8",
            "currentRandom": "0x0000000000000000000000000000000000000000000000000000000000020000",
            "currentDifficulty": "0x00",
            "currentBaseFee": "0x0a",
            "currentExcessBlobGas": "0x00"
        },
        "pre": {
            "0xfa79be3dd3cfc3a6c57db9f28eb53a3c87a62d70": {
                "nonce": "0x00",
                "balance": "0x0de0b6b3a7640000",
                "code": "0x",
                "storage": {}
            },
            "0x1ec08c6834d1679b7c71c9d4517bffcc730af6e8": {
                "nonce": "0x00",
                "balance": "0x0de0b6b3a7640000",
                "code": "0x60006000600060006001600061c350f260005500",
                "storage": {}
            }
        },
        "transaction": {
            "nonce": "0x00",
            "gasPrice": "0x0a",
            "gasLimit": [
                "0x2dc6c0"
            ],
            "to": "0x1ec08c6834d1679b7c71c9d4517bffcc730af6e8",
            "value": [
                "0x0186a0"
            ],
            "data": [
                "0x"
            ],
            "sender": "0xfa79be3dd3cfc3a6c57db9f28eb53a3c87a62d70",
            "secretKey": "0x109c88cd34dff822851634c01ec08c6834d1679b7c71c9d4517bffcc730af6e8"
        },
        "post": {
            "Osaka": [
                {
                    "hash": "0xcaaaeff6946bf33b8fe640812b86a21a6a0f052a500f95a2e8fa758b3200e17d",
                    "logs": "0x1dcc4de8dec75d7aab85b567b6ccd41ad312451b948a7413f0a142fd40d49347",
                    "txbytes": "0xf863800a832dc6c0941ec08c6834d1679b7c71c9d4517bffcc730af6e8830186a08025a09ae18f980dca4336cf9af48ea0aefbabc28e28d514b0460d0c7c96b3ef26acbaa03fc30302bc10bfbbcc65f4dda25a5b2cce4934eac55a6a1f931b11bf55c01e23",
                    "indexes": {
                        "data": 0,
                        "gas": 0,
                        "value": 0
                    },
                    "state": {
                        "0xfa79be3dd3cfc3a6c57db9f28eb53a3c87a62d70": {
                            "nonce": "0x01",
                            "balance": "0x0de0b6b3a75a7990",
                            "code": "0x",
                            "storage": {}
                        },
                        "0x1ec08c6834d1679b7c71c9d4517bffcc730af6e8": {
                            "nonce": "0x00",
                            "balance": "0x0de0b6b3a76586a0",
                            "code": "0x60006000600060006001600061c350f260005500",
                            "storage": {
                                "0x00": "0x01"
                            }
                        }
                    }
                }
            ]
        },
        "config": {
            "blobSchedule": {
                "Cancun": {
                    "target": "0x03",
                    "max": "0x06",
                    "baseFeeUpdateFraction": "0x32f0ed"
                },
                "Prague": {
                    "target": "0x06",
                    "max": "0x09",
                    "baseFeeUpdateFraction": "0x4c6964"
                },
                "Osaka": {
                    "target": "0x06",
                    "max": "0x09",
                    "baseFeeUpdateFraction": "0x4c6964"
                }
            },
            "chainid": "0x01"
        },
        "_info": {
            "hash": "0x267d969f74bca5e359f2f44cc921ef287d385f47ea2cf8d669a90f168e775b6e",
            "comment": "`execution-spec-tests` generated test",
            "filling-transition-tool": "ethereum-spec-evm-resolver 0.0.5",
            "description": "No description available - add a docstring to the python test class or function.",
            "url": "",
            "fixture-format": "state_test",
            "eels-resolution": {
                "git-url": "https://github.com/marioevz/execution-specs.git",
                "branch": "forks/bpo1",
                "commit": "3387e5f4aedfe99becfdc39b444d6371e25e0924"
            }
        }
    },
    "tests/static/state_tests/stSystemOperationsTest/callcodeTo0Filler.json::callcodeTo0[fork_Prague-state_test-]": {
        "env": {
            "currentCoinbase": "0x2adc25665018aa1fe0e6bc666dac8fc2697ff9ba",
            "currentGasLimit": "0x01c9c380",
            "currentNumber": "0x01",
            "currentTimestamp": "0x03e8",
            "currentRandom": "0x0000000000000000000000000000000000000000000000000000000000020000",
            "currentDifficulty": "0x00",
            "currentBaseFee": "0x0a",
            "currentExcessBlobGas": "0x00"
        },
        "pre": {
            "0xfa79be3dd3cfc3a6c57db9f28eb53a3c87a62d70": {
                "nonce": "0x00",
                "balance": "0x0de0b6b3a7640000",
                "code": "0x",
                "storage": {}
            },
            "0x1ec08c6834d1679b7c71c9d4517bffcc730af6e8": {
                "nonce": "0x00",
                "balance": "0x0de0b6b3a7640000",
                "code": "0x60006000600060006001600061c350f260005500",
                "storage": {}
            }
        },
        "transaction": {
            "nonce": "0x00",
            "gasPrice": "0x0a",
            "gasLimit": [
                "0x2dc6c0"
            ],
            "to": "0x1ec08c6834d1679b7c71c9d4517bffcc730af6e8",
            "value": [
                "0x0186a0"
            ],
            "data": [
                "0x"
            ],
            "sender": "0xfa79be3dd3cfc3a6c57db9f28eb53a3c87a62d70",
            "secretKey": "0x109c88cd34dff822851634c01ec08c6834d1679b7c71c9d4517bffcc730af6e8"
        },
        "post": {
            "Prague": [
                {
                    "hash": "0xcaaaeff6946bf33b8fe640812b86a21a6a0f052a500f95a2e8fa758b3200e17d",
                    "logs": "0x1dcc4de8dec75d7aab85b567b6ccd41ad312451b948a7413f0a142fd40d49347",
                    "txbytes": "0xf863800a832dc6c0941ec08c6834d1679b7c71c9d4517bffcc730af6e8830186a08025a09ae18f980dca4336cf9af48ea0aefbabc28e28d514b0460d0c7c96b3ef26acbaa03fc30302bc10bfbbcc65f4dda25a5b2cce4934eac55a6a1f931b11bf55c01e23",
                    "indexes": {
                        "data": 0,
                        "gas": 0,
                        "value": 0
                    },
                    "state": {
                        "0xfa79be3dd3cfc3a6c57db9f28eb53a3c87a62d70": {
                            "nonce": "0x01",
                            "balance": "0x0de0b6b3a75a7990",
                            "code": "0x",
                            "storage": {}
                        },
                        "0x1ec08c6834d1679b7c71c9d4517bffcc730af6e8": {
                            "nonce": "0x00",
                            "balance": "0x0de0b6b3a76586a0",
                            "code": "0x60006000600060006001600061c350f260005500",
                            "storage": {
                                "0x00": "0x01"
                            }
                        }
                    }
                }
            ]
        },
        "config": {
            "blobSchedule": {
                "Cancun": {
                    "target": "0x03",
                    "max": "0x06",
                    "baseFeeUpdateFraction": "0x32f0ed"
                },
                "Prague": {
                    "target": "0x06",
                    "max": "0x09",
                    "baseFeeUpdateFraction": "0x4c6964"
                }
            },
            "chainid": "0x01"
        },
        "_info": {
            "hash": "0xe4c3e187e23e58f8658e970487c6ffbfc19f1899cb2a53bd805aa329ee62c6db",
            "comment": "`execution-spec-tests` generated test",
            "filling-transition-tool": "ethereum-spec-evm-resolver 0.0.5",
            "description": "No description available - add a docstring to the python test class or function.",
            "url": "",
            "fixture-format": "state_test",
            "eels-resolution": {
                "git-url": "https://github.com/marioevz/execution-specs.git",
                "branch": "forks/bpo1",
                "commit": "3387e5f4aedfe99becfdc39b444d6371e25e0924"
            }
        }
    }
}