{
    "tests/static/state_tests/stSystemOperationsTest/CallToNameRegistratorMemOOGAndInsufficientBalanceFiller.json::CallToNameRegistratorMemOOGAndInsufficientBalance[fork_Cancun-state_test-]": {
        "env": {
            "currentCoinbase": "0x2adc25665018aa1fe0e6bc666dac8fc2697ff9ba",
            "currentGasLimit": "0x989680",
            "currentNumber": "0x01",
            "currentTimestamp": "0x03e8",
            "currentRandom": "0x0000000000000000000000000000000000000000000000000000000000020000",
            "currentDifficulty": "0x00",
            "currentBaseFee": "0x0a",
            "currentExcessBlobGas": "0x00"
        },
        "pre": {
            "0x8b98a528a7fb53b022147bf07b03696e29d5f7f4": {
                "nonce": "0x00",
                "balance": "0x0de0b6b3a7640000",
                "code": "0x",
                "storage": {}
            },
            "0xa628678ea7dc2af7a46e97a1279bdbd8b3706556": {
                "nonce": "0x00",
                "balance": "0x17",
                "code": "0x6000355415600957005b60203560003555",
                "storage": {}
            },
            "0xa628678ea7dc2af7a46e97a1279bdbd8b3706656": {
                "nonce": "0x00",
                "balance": "0x0de0b6b3a7640000",
                "code": "0x7fffffffffffffffffffffffffffffffffffffffffffffffffffffffffffffffff6000527faaffffffffffffffffffffffffffffffffffffffffffffffffffffffffffffaa6020526000604065ffffffffffff6000601773a628678ea7dc2af7a46e97a1279bdbd8b370655664fffffffffff160005500",
                "storage": {}
            }
        },
        "transaction": {
            "nonce": "0x00",
            "gasPrice": "0x0a",
            "gasLimit": [
                "0x0493e0"
            ],
            "to": "0xa628678ea7dc2af7a46e97a1279bdbd8b3706656",
            "value": [
                "0x0186a0"
            ],
            "data": [
                "0x"
            ],
            "sender": "0x8b98a528a7fb53b022147bf07b03696e29d5f7f4",
            "secretKey": "0x483121dd629d9add10fddd8aa628678ea7dc2af7a46e97a1279bdbd8b3706556"
        },
        "post": {
            "Cancun": [
                {
                    "hash": "0x314eef082722d14f00ca19a2751a6b148f9edd0be792c219f9f4843c3ed4f8f8",
                    "logs": "0x1dcc4de8dec75d7aab85b567b6ccd41ad312451b948a7413f0a142fd40d49347",
                    "txbytes": "0xf863800a830493e094a628678ea7dc2af7a46e97a1279bdbd8b3706656830186a08025a03ada4cdb4d356556cd853de4d367ff9c88ccad3a8b617b9d1ebae757ec6d6b2ea035fd544f92797c4d61b273a5e08c68727b23a7c2cc00c563d0cd8825a4dd6093",
                    "indexes": {
                        "data": 0,
                        "gas": 0,
                        "value": 0
                    },
                    "state": {
                        "0x8b98a528a7fb53b022147bf07b03696e29d5f7f4": {
                            "nonce": "0x01",
                            "balance": "0x0de0b6b3a7363940",
                            "code": "0x",
                            "storage": {}
                        },
                        "0xa628678ea7dc2af7a46e97a1279bdbd8b3706556": {
                            "nonce": "0x00",
                            "balance": "0x17",
                            "code": "0x6000355415600957005b60203560003555",
                            "storage": {}
                        },
                        "0xa628678ea7dc2af7a46e97a1279bdbd8b3706656": {
                            "nonce": "0x00",
                            "balance": "0x0de0b6b3a7640000",
                            "code": "0x7fffffffffffffffffffffffffffffffffffffffffffffffffffffffffffffffff6000527faaffffffffffffffffffffffffffffffffffffffffffffffffffffffffffffaa6020526000604065ffffffffffff6000601773a628678ea7dc2af7a46e97a1279bdbd8b370655664fffffffffff160005500",
                            "storage": {}
                        }
                    }
                }
            ]
        },
        "config": {
            "blobSchedule": {
                "Cancun": {
                    "target": "0x03",
                    "max": "0x06",
                    "baseFeeUpdateFraction": "0x32f0ed"
                }
            },
            "chainid": "0x01"
        },
        "_info": {
            "hash": "0x91ed214861686c7bf575aa0f6e918b156ba97a332d89e2b0491f51c01b3be0f3",
            "comment": "`execution-spec-tests` generated test",
            "filling-transition-tool": "ethereum-spec-evm-resolver 0.0.5",
            "description": "No description available - add a docstring to the python test class or function.",
            "url": "",
            "fixture-format": "state_test",
            "eels-resolution": {
                "git-url": "https://github.com/marioevz/execution-specs.git",
                "branch": "forks/bpo1",
                "commit": "3387e5f4aedfe99becfdc39b444d6371e25e0924"
            }
        }
    },
    "tests/static/state_tests/stSystemOperationsTest/CallToNameRegistratorMemOOGAndInsufficientBalanceFiller.json::CallToNameRegistratorMemOOGAndInsufficientBalance[fork_Osaka-state_test-]": {
        "env": {
            "currentCoinbase": "0x2adc25665018aa1fe0e6bc666dac8fc2697ff9ba",
            "currentGasLimit": "0x989680",
            "currentNumber": "0x01",
            "currentTimestamp": "0x03e8",
            "currentRandom": "0x0000000000000000000000000000000000000000000000000000000000020000",
            "currentDifficulty": "0x00",
            "currentBaseFee": "0x0a",
            "currentExcessBlobGas": "0x00"
        },
        "pre": {
            "0x8b98a528a7fb53b022147bf07b03696e29d5f7f4": {
                "nonce": "0x00",
                "balance": "0x0de0b6b3a7640000",
                "code": "0x",
                "storage": {}
            },
            "0xa628678ea7dc2af7a46e97a1279bdbd8b3706556": {
                "nonce": "0x00",
                "balance": "0x17",
                "code": "0x6000355415600957005b60203560003555",
                "storage": {}
            },
            "0xa628678ea7dc2af7a46e97a1279bdbd8b3706656": {
                "nonce": "0x00",
                "balance": "0x0de0b6b3a7640000",
                "code": "0x7fffffffffffffffffffffffffffffffffffffffffffffffffffffffffffffffff6000527faaffffffffffffffffffffffffffffffffffffffffffffffffffffffffffffaa6020526000604065ffffffffffff6000601773a628678ea7dc2af7a46e97a1279bdbd8b370655664fffffffffff160005500",
                "storage": {}
            }
        },
        "transaction": {
            "nonce": "0x00",
            "gasPrice": "0x0a",
            "gasLimit": [
                "0x0493e0"
            ],
            "to": "0xa628678ea7dc2af7a46e97a1279bdbd8b3706656",
            "value": [
                "0x0186a0"
            ],
            "data": [
                "0x"
            ],
            "sender": "0x8b98a528a7fb53b022147bf07b03696e29d5f7f4",
            "secretKey": "0x483121dd629d9add10fddd8aa628678ea7dc2af7a46e97a1279bdbd8b3706556"
        },
        "post": {
            "Osaka": [
                {
                    "hash": "0x314eef082722d14f00ca19a2751a6b148f9edd0be792c219f9f4843c3ed4f8f8",
                    "logs": "0x1dcc4de8dec75d7aab85b567b6ccd41ad312451b948a7413f0a142fd40d49347",
                    "txbytes": "0xf863800a830493e094a628678ea7dc2af7a46e97a1279bdbd8b3706656830186a08025a03ada4cdb4d356556cd853de4d367ff9c88ccad3a8b617b9d1ebae757ec6d6b2ea035fd544f92797c4d61b273a5e08c68727b23a7c2cc00c563d0cd8825a4dd6093",
                    "indexes": {
                        "data": 0,
                        "gas": 0,
                        "value": 0
                    },
                    "state": {
                        "0x8b98a528a7fb53b022147bf07b03696e29d5f7f4": {
                            "nonce": "0x01",
                            "balance": "0x0de0b6b3a7363940",
                            "code": "0x",
                            "storage": {}
                        },
                        "0xa628678ea7dc2af7a46e97a1279bdbd8b3706556": {
                            "nonce": "0x00",
                            "balance": "0x17",
                            "code": "0x6000355415600957005b60203560003555",
                            "storage": {}
                        },
                        "0xa628678ea7dc2af7a46e97a1279bdbd8b3706656": {
                            "nonce": "0x00",
                            "balance": "0x0de0b6b3a7640000",
                            "code": "0x7fffffffffffffffffffffffffffffffffffffffffffffffffffffffffffffffff6000527faaffffffffffffffffffffffffffffffffffffffffffffffffffffffffffffaa6020526000604065ffffffffffff6000601773a628678ea7dc2af7a46e97a1279bdbd8b370655664fffffffffff160005500",
                            "storage": {}
                        }
                    }
                }
            ]
        },
        "config": {
            "blobSchedule": {
                "Cancun": {
                    "target": "0x03",
                    "max": "0x06",
                    "baseFeeUpdateFraction": "0x32f0ed"
                },
                "Prague": {
                    "target": "0x06",
                    "max": "0x09",
                    "baseFeeUpdateFraction": "0x4c6964"
                },
                "Osaka": {
                    "target": "0x06",
                    "max": "0x09",
                    "baseFeeUpdateFraction": "0x4c6964"
                }
            },
            "chainid": "0x01"
        },
        "_info": {
            "hash": "0x2d6c796cd652e707281e51feee6650bd271cec4d1913d814c4fe7dda2f78ce97",
            "comment": "`execution-spec-tests` generated test",
            "filling-transition-tool": "ethereum-spec-evm-resolver 0.0.5",
            "description": "No description available - add a docstring to the python test class or function.",
            "url": "",
            "fixture-format": "state_test",
            "eels-resolution": {
                "git-url": "https://github.com/marioevz/execution-specs.git",
                "branch": "forks/bpo1",
                "commit": "3387e5f4aedfe99becfdc39b444d6371e25e0924"
            }
        }
    },
    "tests/static/state_tests/stSystemOperationsTest/CallToNameRegistratorMemOOGAndInsufficientBalanceFiller.json::CallToNameRegistratorMemOOGAndInsufficientBalance[fork_Prague-state_test-]": {
        "env": {
            "currentCoinbase": "0x2adc25665018aa1fe0e6bc666dac8fc2697ff9ba",
            "currentGasLimit": "0x989680",
            "currentNumber": "0x01",
            "currentTimestamp": "0x03e8",
            "currentRandom": "0x0000000000000000000000000000000000000000000000000000000000020000",
            "currentDifficulty": "0x00",
            "currentBaseFee": "0x0a",
            "currentExcessBlobGas": "0x00"
        },
        "pre": {
            "0x8b98a528a7fb53b022147bf07b03696e29d5f7f4": {
                "nonce": "0x00",
                "balance": "0x0de0b6b3a7640000",
                "code": "0x",
                "storage": {}
            },
            "0xa628678ea7dc2af7a46e97a1279bdbd8b3706556": {
                "nonce": "0x00",
                "balance": "0x17",
                "code": "0x6000355415600957005b60203560003555",
                "storage": {}
            },
            "0xa628678ea7dc2af7a46e97a1279bdbd8b3706656": {
                "nonce": "0x00",
                "balance": "0x0de0b6b3a7640000",
                "code": "0x7fffffffffffffffffffffffffffffffffffffffffffffffffffffffffffffffff6000527faaffffffffffffffffffffffffffffffffffffffffffffffffffffffffffffaa6020526000604065ffffffffffff6000601773a628678ea7dc2af7a46e97a1279bdbd8b370655664fffffffffff160005500",
                "storage": {}
            }
        },
        "transaction": {
            "nonce": "0x00",
            "gasPrice": "0x0a",
            "gasLimit": [
                "0x0493e0"
            ],
            "to": "0xa628678ea7dc2af7a46e97a1279bdbd8b3706656",
            "value": [
                "0x0186a0"
            ],
            "data": [
                "0x"
            ],
            "sender": "0x8b98a528a7fb53b022147bf07b03696e29d5f7f4",
            "secretKey": "0x483121dd629d9add10fddd8aa628678ea7dc2af7a46e97a1279bdbd8b3706556"
        },
        "post": {
            "Prague": [
                {
                    "hash": "0x314eef082722d14f00ca19a2751a6b148f9edd0be792c219f9f4843c3ed4f8f8",
                    "logs": "0x1dcc4de8dec75d7aab85b567b6ccd41ad312451b948a7413f0a142fd40d49347",
                    "txbytes": "0xf863800a830493e094a628678ea7dc2af7a46e97a1279bdbd8b3706656830186a08025a03ada4cdb4d356556cd853de4d367ff9c88ccad3a8b617b9d1ebae757ec6d6b2ea035fd544f92797c4d61b273a5e08c68727b23a7c2cc00c563d0cd8825a4dd6093",
                    "indexes": {
                        "data": 0,
                        "gas": 0,
                        "value": 0
                    },
                    "state": {
                        "0x8b98a528a7fb53b022147bf07b03696e29d5f7f4": {
                            "nonce": "0x01",
                            "balance": "0x0de0b6b3a7363940",
                            "code": "0x",
                            "storage": {}
                        },
                        "0xa628678ea7dc2af7a46e97a1279bdbd8b3706556": {
                            "nonce": "0x00",
                            "balance": "0x17",
                            "code": "0x6000355415600957005b60203560003555",
                            "storage": {}
                        },
                        "0xa628678ea7dc2af7a46e97a1279bdbd8b3706656": {
                            "nonce": "0x00",
                            "balance": "0x0de0b6b3a7640000",
                            "code": "0x7fffffffffffffffffffffffffffffffffffffffffffffffffffffffffffffffff6000527faaffffffffffffffffffffffffffffffffffffffffffffffffffffffffffffaa6020526000604065ffffffffffff6000601773a628678ea7dc2af7a46e97a1279bdbd8b370655664fffffffffff160005500",
                            "storage": {}
                        }
                    }
                }
            ]
        },
        "config": {
            "blobSchedule": {
                "Cancun": {
                    "target": "0x03",
                    "max": "0x06",
                    "baseFeeUpdateFraction": "0x32f0ed"
                },
                "Prague": {
                    "target": "0x06",
                    "max": "0x09",
                    "baseFeeUpdateFraction": "0x4c6964"
                }
            },
            "chainid": "0x01"
        },
        "_info": {
            "hash": "0x722467812473a7637a8da2eb2c2d03d3826d7463f83702514ccf8a726d96256d",
            "comment": "`execution-spec-tests` generated test",
            "filling-transition-tool": "ethereum-spec-evm-resolver 0.0.5",
            "description": "No description available - add a docstring to the python test class or function.",
            "url": "",
            "fixture-format": "state_test",
            "eels-resolution": {
                "git-url": "https://github.com/marioevz/execution-specs.git",
                "branch": "forks/bpo1",
                "commit": "3387e5f4aedfe99becfdc39b444d6371e25e0924"
            }
        }
    }
}