{
    "tests/static/state_tests/stSystemOperationsTest/CallRecursiveBomb2Filler.json::CallRecursiveBomb2[fork_Cancun-state_test-]": {
        "env": {
            "currentCoinbase": "0x2adc25665018aa1fe0e6bc666dac8fc2697ff9ba",
            "currentGasLimit": "0x05f5e100",
            "currentNumber": "0x01",
            "currentTimestamp": "0x03e8",
            "currentRandom": "0x0000000000000000000000000000000000000000000000000000000000020000",
            "currentDifficulty": "0x00",
            "currentBaseFee": "0x0a",
            "currentExcessBlobGas": "0x00"
        },
        "pre": {
            "0xd969cb9cce09062222d798fecaef19078a53f3b1": {
                "nonce": "0x00",
                "balance": "0x0de0b6b3a7640000",
                "code": "0x",
                "storage": {}
            },
            "0xf2fa0c1400f86e3aa38178c883f7fb2328a68b11": {
                "nonce": "0x00",
                "balance": "0x01312d00",
                "code": "0x6001600054016000556000600060006000600030613a985a03f160015500",
                "storage": {}
            }
        },
        "transaction": {
            "nonce": "0x00",
            "gasPrice": "0x0a",
            "gasLimit": [
                "0x013aab13"
            ],
            "to": "0xf2fa0c1400f86e3aa38178c883f7fb2328a68b11",
            "value": [
                "0x0186a0"
            ],
            "data": [
                "0x"
            ],
            "sender": "0xd969cb9cce09062222d798fecaef19078a53f3b1",
            "secretKey": "0x7325001d5650b5a782e5881ff2fa0c1400f86e3aa38178c883f7fb2328a68b11"
        },
        "post": {
            "Cancun": [
                {
                    "hash": "0x3c40cb3369f35bbd0242d65945587a7018359714ba1dc9b539e97720ad37e2a5",
                    "logs": "0x1dcc4de8dec75d7aab85b567b6ccd41ad312451b948a7413f0a142fd40d49347",
                    "txbytes": "0xf864800a84013aab1394f2fa0c1400f86e3aa38178c883f7fb2328a68b11830186a08025a0322fee5a4865cf5b1cd845f8a2fba5b3d4bc4827b9e583773d7e0a509906d1e0a07bc229e551742842cdb6ab2cae20474d0af7ea6aa887c67acf0514adf4cd86dc",
                    "indexes": {
                        "data": 0,
                        "gas": 0,
                        "value": 0
                    },
                    "state": {
                        "0xd969cb9cce09062222d798fecaef19078a53f3b1": {
                            "nonce": "0x01",
                            "balance": "0x0de0b6b3a746a456",
                            "code": "0x",
                            "storage": {}
                        },
                        "0xf2fa0c1400f86e3aa38178c883f7fb2328a68b11": {
                            "nonce": "0x00",
                            "balance": "0x0132b3a0",
                            "code": "0x6001600054016000556000600060006000600030613a985a03f160015500",
                            "storage": {
                                "0x00": "0x0100",
                                "0x01": "0x01"
                            }
                        }
                    }
                }
            ]
        },
        "config": {
            "blobSchedule": {
                "Cancun": {
                    "target": "0x03",
                    "max": "0x06",
                    "baseFeeUpdateFraction": "0x32f0ed"
                }
            },
            "chainid": "0x01"
        },
        "_info": {
            "hash": "0x5b5667bdc43327654b5b1e957ab76fe9e404f30f41274d645a8e7c7069873eef",
            "comment": "`execution-spec-tests` generated test",
            "filling-transition-tool": "ethereum-spec-evm-resolver 0.0.5",
            "description": "No description available - add a docstring to the python test class or function.",
            "url": "",
            "fixture-format": "state_test",
            "eels-resolution": {
                "git-url": "https://github.com/ethereum/execution-specs.git",
                "branch": "forks/bpos",
                "commit": "7aacb2c54111391af5e98c505d5010b5698a770f"
            }
        }
    },
    "tests/static/state_tests/stSystemOperationsTest/CallRecursiveBomb2Filler.json::CallRecursiveBomb2[fork_Prague-state_test-]": {
        "env": {
            "currentCoinbase": "0x2adc25665018aa1fe0e6bc666dac8fc2697ff9ba",
            "currentGasLimit": "0x05f5e100",
            "currentNumber": "0x01",
            "currentTimestamp": "0x03e8",
            "currentRandom": "0x0000000000000000000000000000000000000000000000000000000000020000",
            "currentDifficulty": "0x00",
            "currentBaseFee": "0x0a",
            "currentExcessBlobGas": "0x00"
        },
        "pre": {
            "0xd969cb9cce09062222d798fecaef19078a53f3b1": {
                "nonce": "0x00",
                "balance": "0x0de0b6b3a7640000",
                "code": "0x",
                "storage": {}
            },
            "0xf2fa0c1400f86e3aa38178c883f7fb2328a68b11": {
                "nonce": "0x00",
                "balance": "0x01312d00",
                "code": "0x6001600054016000556000600060006000600030613a985a03f160015500",
                "storage": {}
            }
        },
        "transaction": {
            "nonce": "0x00",
            "gasPrice": "0x0a",
            "gasLimit": [
                "0x013aab13"
            ],
            "to": "0xf2fa0c1400f86e3aa38178c883f7fb2328a68b11",
            "value": [
                "0x0186a0"
            ],
            "data": [
                "0x"
            ],
            "sender": "0xd969cb9cce09062222d798fecaef19078a53f3b1",
            "secretKey": "0x7325001d5650b5a782e5881ff2fa0c1400f86e3aa38178c883f7fb2328a68b11"
        },
        "post": {
            "Prague": [
                {
                    "hash": "0x3c40cb3369f35bbd0242d65945587a7018359714ba1dc9b539e97720ad37e2a5",
                    "logs": "0x1dcc4de8dec75d7aab85b567b6ccd41ad312451b948a7413f0a142fd40d49347",
                    "txbytes": "0xf864800a84013aab1394f2fa0c1400f86e3aa38178c883f7fb2328a68b11830186a08025a0322fee5a4865cf5b1cd845f8a2fba5b3d4bc4827b9e583773d7e0a509906d1e0a07bc229e551742842cdb6ab2cae20474d0af7ea6aa887c67acf0514adf4cd86dc",
                    "indexes": {
                        "data": 0,
                        "gas": 0,
                        "value": 0
                    },
                    "state": {
                        "0xd969cb9cce09062222d798fecaef19078a53f3b1": {
                            "nonce": "0x01",
                            "balance": "0x0de0b6b3a746a456",
                            "code": "0x",
                            "storage": {}
                        },
                        "0xf2fa0c1400f86e3aa38178c883f7fb2328a68b11": {
                            "nonce": "0x00",
                            "balance": "0x0132b3a0",
                            "code": "0x6001600054016000556000600060006000600030613a985a03f160015500",
                            "storage": {
                                "0x00": "0x0100",
                                "0x01": "0x01"
                            }
                        }
                    }
                }
            ]
        },
        "config": {
            "blobSchedule": {
                "Cancun": {
                    "target": "0x03",
                    "max": "0x06",
                    "baseFeeUpdateFraction": "0x32f0ed"
                },
                "Prague": {
                    "target": "0x06",
                    "max": "0x09",
                    "baseFeeUpdateFraction": "0x4c6964"
                }
            },
            "chainid": "0x01"
        },
        "_info": {
            "hash": "0x6013cfeddc96e02f35b5b218632d23732781e3b785124be57c1e860886f0481e",
            "comment": "`execution-spec-tests` generated test",
            "filling-transition-tool": "ethereum-spec-evm-resolver 0.0.5",
            "description": "No description available - add a docstring to the python test class or function.",
            "url": "",
            "fixture-format": "state_test",
            "eels-resolution": {
                "git-url": "https://github.com/ethereum/execution-specs.git",
                "branch": "forks/bpos",
                "commit": "7aacb2c54111391af5e98c505d5010b5698a770f"
            }
        }
    }
}