{
    "tests/static/state_tests/stSystemOperationsTest/CallToNameRegistratorNotMuchMemory1Filler.json::CallToNameRegistratorNotMuchMemory1[fork_Cancun-state_test-]": {
        "env": {
            "currentCoinbase": "0x2adc25665018aa1fe0e6bc666dac8fc2697ff9ba",
            "currentGasLimit": "0x989680",
            "currentNumber": "0x01",
            "currentTimestamp": "0x03e8",
            "currentRandom": "0x0000000000000000000000000000000000000000000000000000000000020000",
            "currentDifficulty": "0x00",
            "currentBaseFee": "0x0a",
            "currentExcessBlobGas": "0x00"
        },
        "pre": {
            "0x18977047465e2baae4df157462f944a550673e11": {
                "nonce": "0x00",
                "balance": "0x0de0b6b3a7640000",
                "code": "0x",
                "storage": {}
            },
            "0xcec6b9e2f92ac60c4e393221b1d337be33a9c13b": {
                "nonce": "0x00",
                "balance": "0x17",
                "code": "0x6000355415600957005b60203560003555",
                "storage": {}
            },
            "0xcec6b9e2f92ac60c4e393221b1d337be33a9c23b": {
                "nonce": "0x00",
                "balance": "0x0de0b6b3a7640000",
                "code": "0x7feeffffffffffffffffffffffffffffffffffffffffffffffffffffffffffff006000527faaffffffffffffffffffffffffffffffffffffffffffffffffffffffffffffaa602052600060406000620f1206601773cec6b9e2f92ac60c4e393221b1d337be33a9c13b6101f4f160005500",
                "storage": {}
            }
        },
        "transaction": {
            "nonce": "0x00",
            "gasPrice": "0x0a",
            "gasLimit": [
                "0x046cd0"
            ],
            "to": "0xcec6b9e2f92ac60c4e393221b1d337be33a9c23b",
            "value": [
                "0x0186a0"
            ],
            "data": [
                "0x"
            ],
            "sender": "0x18977047465e2baae4df157462f944a550673e11",
            "secretKey": "0xafd6e754418fb0581876a1f6cec6b9e2f92ac60c4e393221b1d337be33a9c13b"
        },
        "post": {
            "Cancun": [
                {
                    "hash": "0x5889c584d07663edbb9ed124770c02d6cae299a7bdeb1ce2828c5bcc2a63cd25",
                    "logs": "0x1dcc4de8dec75d7aab85b567b6ccd41ad312451b948a7413f0a142fd40d49347",
                    "txbytes": "0xf863800a83046cd094cec6b9e2f92ac60c4e393221b1d337be33a9c23b830186a08026a02852dbb8ddde2bf43cf1701021b72a9cb276ef6e5e8999a8dd8c162b706556cda00c27fa0333760ec4e4e9a8b9b012e4276de26e5aa79262769fcea93737d47dae",
                    "indexes": {
                        "data": 0,
                        "gas": 0,
                        "value": 0
                    },
                    "state": {
                        "0x18977047465e2baae4df157462f944a550673e11": {
                            "nonce": "0x01",
                            "balance": "0x0de0b6b3a75d1498",
                            "code": "0x",
                            "storage": {}
                        },
                        "0xcec6b9e2f92ac60c4e393221b1d337be33a9c13b": {
                            "nonce": "0x00",
                            "balance": "0x17",
                            "code": "0x6000355415600957005b60203560003555",
                            "storage": {}
                        },
                        "0xcec6b9e2f92ac60c4e393221b1d337be33a9c23b": {
                            "nonce": "0x00",
                            "balance": "0x0de0b6b3a76586a0",
                            "code": "0x7feeffffffffffffffffffffffffffffffffffffffffffffffffffffffffffff006000527faaffffffffffffffffffffffffffffffffffffffffffffffffffffffffffffaa602052600060406000620f1206601773cec6b9e2f92ac60c4e393221b1d337be33a9c13b6101f4f160005500",
                            "storage": {}
                        }
                    }
                }
            ]
        },
        "config": {
            "blobSchedule": {
                "Cancun": {
                    "target": "0x03",
                    "max": "0x06",
                    "baseFeeUpdateFraction": "0x32f0ed"
                }
            },
            "chainid": "0x01"
        },
        "_info": {
            "hash": "0x363710ccc0e31d6c2dd511aa6ff112a1138dbabfa67659547626adcd37ee624c",
            "comment": "`execution-specs` generated test",
            "filling-transition-tool": "2.18.0rc6",
            "description": "No description available - add a docstring to the python test class or function.",
            "url": "",
            "fixture-format": "state_test"
        }
    },
    "tests/static/state_tests/stSystemOperationsTest/CallToNameRegistratorNotMuchMemory1Filler.json::CallToNameRegistratorNotMuchMemory1[fork_Osaka-state_test-]": {
        "env": {
            "currentCoinbase": "0x2adc25665018aa1fe0e6bc666dac8fc2697ff9ba",
            "currentGasLimit": "0x989680",
            "currentNumber": "0x01",
            "currentTimestamp": "0x03e8",
            "currentRandom": "0x0000000000000000000000000000000000000000000000000000000000020000",
            "currentDifficulty": "0x00",
            "currentBaseFee": "0x0a",
            "currentExcessBlobGas": "0x00"
        },
        "pre": {
            "0x18977047465e2baae4df157462f944a550673e11": {
                "nonce": "0x00",
                "balance": "0x0de0b6b3a7640000",
                "code": "0x",
                "storage": {}
            },
            "0xcec6b9e2f92ac60c4e393221b1d337be33a9c13b": {
                "nonce": "0x00",
                "balance": "0x17",
                "code": "0x6000355415600957005b60203560003555",
                "storage": {}
            },
            "0xcec6b9e2f92ac60c4e393221b1d337be33a9c23b": {
                "nonce": "0x00",
                "balance": "0x0de0b6b3a7640000",
                "code": "0x7feeffffffffffffffffffffffffffffffffffffffffffffffffffffffffffff006000527faaffffffffffffffffffffffffffffffffffffffffffffffffffffffffffffaa602052600060406000620f1206601773cec6b9e2f92ac60c4e393221b1d337be33a9c13b6101f4f160005500",
                "storage": {}
            }
        },
        "transaction": {
            "nonce": "0x00",
            "gasPrice": "0x0a",
            "gasLimit": [
                "0x046cd0"
            ],
            "to": "0xcec6b9e2f92ac60c4e393221b1d337be33a9c23b",
            "value": [
                "0x0186a0"
            ],
            "data": [
                "0x"
            ],
            "sender": "0x18977047465e2baae4df157462f944a550673e11",
            "secretKey": "0xafd6e754418fb0581876a1f6cec6b9e2f92ac60c4e393221b1d337be33a9c13b"
        },
        "post": {
            "Osaka": [
                {
                    "hash": "0x5889c584d07663edbb9ed124770c02d6cae299a7bdeb1ce2828c5bcc2a63cd25",
                    "logs": "0x1dcc4de8dec75d7aab85b567b6ccd41ad312451b948a7413f0a142fd40d49347",
                    "txbytes": "0xf863800a83046cd094cec6b9e2f92ac60c4e393221b1d337be33a9c23b830186a08026a02852dbb8ddde2bf43cf1701021b72a9cb276ef6e5e8999a8dd8c162b706556cda00c27fa0333760ec4e4e9a8b9b012e4276de26e5aa79262769fcea93737d47dae",
                    "indexes": {
                        "data": 0,
                        "gas": 0,
                        "value": 0
                    },
                    "state": {
                        "0x18977047465e2baae4df157462f944a550673e11": {
                            "nonce": "0x01",
                            "balance": "0x0de0b6b3a75d1498",
                            "code": "0x",
                            "storage": {}
                        },
                        "0xcec6b9e2f92ac60c4e393221b1d337be33a9c13b": {
                            "nonce": "0x00",
                            "balance": "0x17",
                            "code": "0x6000355415600957005b60203560003555",
                            "storage": {}
                        },
                        "0xcec6b9e2f92ac60c4e393221b1d337be33a9c23b": {
                            "nonce": "0x00",
                            "balance": "0x0de0b6b3a76586a0",
                            "code": "0x7feeffffffffffffffffffffffffffffffffffffffffffffffffffffffffffff006000527faaffffffffffffffffffffffffffffffffffffffffffffffffffffffffffffaa602052600060406000620f1206601773cec6b9e2f92ac60c4e393221b1d337be33a9c13b6101f4f160005500",
                            "storage": {}
                        }
                    }
                }
            ]
        },
        "config": {
            "blobSchedule": {
                "Cancun": {
                    "target": "0x03",
                    "max": "0x06",
                    "baseFeeUpdateFraction": "0x32f0ed"
                },
                "Prague": {
                    "target": "0x06",
                    "max": "0x09",
                    "baseFeeUpdateFraction": "0x4c6964"
                },
                "Osaka": {
                    "target": "0x06",
                    "max": "0x09",
                    "baseFeeUpdateFraction": "0x4c6964"
                }
            },
            "chainid": "0x01"
        },
        "_info": {
            "hash": "0x3f10091972a53aa6420db290a6ee678fcc00e9dcb8fd2aa63158e55ce4b547fb",
            "comment": "`execution-specs` generated test",
            "filling-transition-tool": "2.18.0rc6",
            "description": "No description available - add a docstring to the python test class or function.",
            "url": "",
            "fixture-format": "state_test"
        }
    },
    "tests/static/state_tests/stSystemOperationsTest/CallToNameRegistratorNotMuchMemory1Filler.json::CallToNameRegistratorNotMuchMemory1[fork_Prague-state_test-]": {
        "env": {
            "currentCoinbase": "0x2adc25665018aa1fe0e6bc666dac8fc2697ff9ba",
            "currentGasLimit": "0x989680",
            "currentNumber": "0x01",
            "currentTimestamp": "0x03e8",
            "currentRandom": "0x0000000000000000000000000000000000000000000000000000000000020000",
            "currentDifficulty": "0x00",
            "currentBaseFee": "0x0a",
            "currentExcessBlobGas": "0x00"
        },
        "pre": {
            "0x18977047465e2baae4df157462f944a550673e11": {
                "nonce": "0x00",
                "balance": "0x0de0b6b3a7640000",
                "code": "0x",
                "storage": {}
            },
            "0xcec6b9e2f92ac60c4e393221b1d337be33a9c13b": {
                "nonce": "0x00",
                "balance": "0x17",
                "code": "0x6000355415600957005b60203560003555",
                "storage": {}
            },
            "0xcec6b9e2f92ac60c4e393221b1d337be33a9c23b": {
                "nonce": "0x00",
                "balance": "0x0de0b6b3a7640000",
                "code": "0x7feeffffffffffffffffffffffffffffffffffffffffffffffffffffffffffff006000527faaffffffffffffffffffffffffffffffffffffffffffffffffffffffffffffaa602052600060406000620f1206601773cec6b9e2f92ac60c4e393221b1d337be33a9c13b6101f4f160005500",
                "storage": {}
            }
        },
        "transaction": {
            "nonce": "0x00",
            "gasPrice": "0x0a",
            "gasLimit": [
                "0x046cd0"
            ],
            "to": "0xcec6b9e2f92ac60c4e393221b1d337be33a9c23b",
            "value": [
                "0x0186a0"
            ],
            "data": [
                "0x"
            ],
            "sender": "0x18977047465e2baae4df157462f944a550673e11",
            "secretKey": "0xafd6e754418fb0581876a1f6cec6b9e2f92ac60c4e393221b1d337be33a9c13b"
        },
        "post": {
            "Prague": [
                {
                    "hash": "0x5889c584d07663edbb9ed124770c02d6cae299a7bdeb1ce2828c5bcc2a63cd25",
                    "logs": "0x1dcc4de8dec75d7aab85b567b6ccd41ad312451b948a7413f0a142fd40d49347",
                    "txbytes": "0xf863800a83046cd094cec6b9e2f92ac60c4e393221b1d337be33a9c23b830186a08026a02852dbb8ddde2bf43cf1701021b72a9cb276ef6e5e8999a8dd8c162b706556cda00c27fa0333760ec4e4e9a8b9b012e4276de26e5aa79262769fcea93737d47dae",
                    "indexes": {
                        "data": 0,
                        "gas": 0,
                        "value": 0
                    },
                    "state": {
                        "0x18977047465e2baae4df157462f944a550673e11": {
                            "nonce": "0x01",
                            "balance": "0x0de0b6b3a75d1498",
                            "code": "0x",
                            "storage": {}
                        },
                        "0xcec6b9e2f92ac60c4e393221b1d337be33a9c13b": {
                            "nonce": "0x00",
                            "balance": "0x17",
                            "code": "0x6000355415600957005b60203560003555",
                            "storage": {}
                        },
                        "0xcec6b9e2f92ac60c4e393221b1d337be33a9c23b": {
                            "nonce": "0x00",
                            "balance": "0x0de0b6b3a76586a0",
                            "code": "0x7feeffffffffffffffffffffffffffffffffffffffffffffffffffffffffffff006000527faaffffffffffffffffffffffffffffffffffffffffffffffffffffffffffffaa602052600060406000620f1206601773cec6b9e2f92ac60c4e393221b1d337be33a9c13b6101f4f160005500",
                            "storage": {}
                        }
                    }
                }
            ]
        },
        "config": {
            "blobSchedule": {
                "Cancun": {
                    "target": "0x03",
                    "max": "0x06",
                    "baseFeeUpdateFraction": "0x32f0ed"
                },
                "Prague": {
                    "target": "0x06",
                    "max": "0x09",
                    "baseFeeUpdateFraction": "0x4c6964"
                }
            },
            "chainid": "0x01"
        },
        "_info": {
            "hash": "0x1131405a69767a695c307c3773df4c6d23e25ce7d888655976755ae4b6ac7fc1",
            "comment": "`execution-specs` generated test",
            "filling-transition-tool": "2.18.0rc6",
            "description": "No description available - add a docstring to the python test class or function.",
            "url": "",
            "fixture-format": "state_test"
        }
    }
}