{
    "tests/static/state_tests/stSystemOperationsTest/CallRecursiveBomb1Filler.json::CallRecursiveBomb1[fork_Cancun-state_test-]": {
        "env": {
            "currentCoinbase": "0x2adc25665018aa1fe0e6bc666dac8fc2697ff9ba",
            "currentGasLimit": "0x05f5e100",
            "currentNumber": "0x01",
            "currentTimestamp": "0x03e8",
            "currentRandom": "0x0000000000000000000000000000000000000000000000000000000000020000",
            "currentDifficulty": "0x00",
            "currentBaseFee": "0x0a",
            "currentExcessBlobGas": "0x00"
        },
        "pre": {
            "0xd42b70e014f02aad2a47107522e7233b12e747a1": {
                "nonce": "0x00",
                "balance": "0x0de0b6b3a7640000",
                "code": "0x",
                "storage": {}
            },
            "0xb18b44863b0631ce3e685a8e5a4c2c181b172f02": {
                "nonce": "0x00",
                "balance": "0x01312d00",
                "code": "0x6001600054016000556000600060006000600030613a985a03f160015500",
                "storage": {}
            }
        },
        "transaction": {
            "nonce": "0x00",
            "gasPrice": "0x0a",
            "gasLimit": [
                "0x013aab14"
            ],
            "to": "0xb18b44863b0631ce3e685a8e5a4c2c181b172f02",
            "value": [
                "0x0186a0"
            ],
            "data": [
                "0x"
            ],
            "sender": "0xd42b70e014f02aad2a47107522e7233b12e747a1",
            "secretKey": "0xa66aca62896b77eb99dea596b18b44863b0631ce3e685a8e5a4c2c181b172f02"
        },
        "post": {
            "Cancun": [
                {
                    "hash": "0x1af6233dbe9ffb9ad455cc8f3d3516d8483190752db9ba686ed57c0d1d36e056",
                    "logs": "0x1dcc4de8dec75d7aab85b567b6ccd41ad312451b948a7413f0a142fd40d49347",
                    "txbytes": "0xf864800a84013aab1494b18b44863b0631ce3e685a8e5a4c2c181b172f02830186a08025a0f0f8b69a4bf76548690abb22aecc7c9f63a778225221e274ef06376b5c1d2093a07aa80a8920be86029921ef972f1c84362ad211793c45add7d99a5b6e8ee563a3",
                    "indexes": {
                        "data": 0,
                        "gas": 0,
                        "value": 0
                    },
                    "state": {
                        "0xd42b70e014f02aad2a47107522e7233b12e747a1": {
                            "nonce": "0x01",
                            "balance": "0x0de0b6b3a746a456",
                            "code": "0x",
                            "storage": {}
                        },
                        "0xb18b44863b0631ce3e685a8e5a4c2c181b172f02": {
                            "nonce": "0x00",
                            "balance": "0x0132b3a0",
                            "code": "0x6001600054016000556000600060006000600030613a985a03f160015500",
                            "storage": {
                                "0x00": "0x0100",
                                "0x01": "0x01"
                            }
                        }
                    }
                }
            ]
        },
        "config": {
            "blobSchedule": {
                "Cancun": {
                    "target": "0x03",
                    "max": "0x06",
                    "baseFeeUpdateFraction": "0x32f0ed"
                }
            },
            "chainid": "0x01"
        },
        "_info": {
            "hash": "0x655367f35ea6cb51f04e06c3a8798a9f5a7ac8cf5e0f4a875481e1aec3909d7b",
            "comment": "`execution-spec-tests` generated test",
            "filling-transition-tool": "ethereum-spec-evm-resolver 0.0.5",
            "description": "No description available - add a docstring to the python test class or function.",
            "url": "",
            "fixture-format": "state_test",
            "eels-resolution": {
                "git-url": "https://github.com/marioevz/execution-specs.git",
                "branch": "forks/bpo1",
                "commit": "3387e5f4aedfe99becfdc39b444d6371e25e0924"
            }
        }
    },
    "tests/static/state_tests/stSystemOperationsTest/CallRecursiveBomb1Filler.json::CallRecursiveBomb1[fork_Prague-state_test-]": {
        "env": {
            "currentCoinbase": "0x2adc25665018aa1fe0e6bc666dac8fc2697ff9ba",
            "currentGasLimit": "0x05f5e100",
            "currentNumber": "0x01",
            "currentTimestamp": "0x03e8",
            "currentRandom": "0x0000000000000000000000000000000000000000000000000000000000020000",
            "currentDifficulty": "0x00",
            "currentBaseFee": "0x0a",
            "currentExcessBlobGas": "0x00"
        },
        "pre": {
            "0xd42b70e014f02aad2a47107522e7233b12e747a1": {
                "nonce": "0x00",
                "balance": "0x0de0b6b3a7640000",
                "code": "0x",
                "storage": {}
            },
            "0xb18b44863b0631ce3e685a8e5a4c2c181b172f02": {
                "nonce": "0x00",
                "balance": "0x01312d00",
                "code": "0x6001600054016000556000600060006000600030613a985a03f160015500",
                "storage": {}
            }
        },
        "transaction": {
            "nonce": "0x00",
            "gasPrice": "0x0a",
            "gasLimit": [
                "0x013aab14"
            ],
            "to": "0xb18b44863b0631ce3e685a8e5a4c2c181b172f02",
            "value": [
                "0x0186a0"
            ],
            "data": [
                "0x"
            ],
            "sender": "0xd42b70e014f02aad2a47107522e7233b12e747a1",
            "secretKey": "0xa66aca62896b77eb99dea596b18b44863b0631ce3e685a8e5a4c2c181b172f02"
        },
        "post": {
            "Prague": [
                {
                    "hash": "0x1af6233dbe9ffb9ad455cc8f3d3516d8483190752db9ba686ed57c0d1d36e056",
                    "logs": "0x1dcc4de8dec75d7aab85b567b6ccd41ad312451b948a7413f0a142fd40d49347",
                    "txbytes": "0xf864800a84013aab1494b18b44863b0631ce3e685a8e5a4c2c181b172f02830186a08025a0f0f8b69a4bf76548690abb22aecc7c9f63a778225221e274ef06376b5c1d2093a07aa80a8920be86029921ef972f1c84362ad211793c45add7d99a5b6e8ee563a3",
                    "indexes": {
                        "data": 0,
                        "gas": 0,
                        "value": 0
                    },
                    "state": {
                        "0xd42b70e014f02aad2a47107522e7233b12e747a1": {
                            "nonce": "0x01",
                            "balance": "0x0de0b6b3a746a456",
                            "code": "0x",
                            "storage": {}
                        },
                        "0xb18b44863b0631ce3e685a8e5a4c2c181b172f02": {
                            "nonce": "0x00",
                            "balance": "0x0132b3a0",
                            "code": "0x6001600054016000556000600060006000600030613a985a03f160015500",
                            "storage": {
                                "0x00": "0x0100",
                                "0x01": "0x01"
                            }
                        }
                    }
                }
            ]
        },
        "config": {
            "blobSchedule": {
                "Cancun": {
                    "target": "0x03",
                    "max": "0x06",
                    "baseFeeUpdateFraction": "0x32f0ed"
                },
                "Prague": {
                    "target": "0x06",
                    "max": "0x09",
                    "baseFeeUpdateFraction": "0x4c6964"
                }
            },
            "chainid": "0x01"
        },
        "_info": {
            "hash": "0x8264cbcfa9b736321dab846e1d32a6be431e405a749b109f73649a5ef2a42aa1",
            "comment": "`execution-spec-tests` generated test",
            "filling-transition-tool": "ethereum-spec-evm-resolver 0.0.5",
            "description": "No description available - add a docstring to the python test class or function.",
            "url": "",
            "fixture-format": "state_test",
            "eels-resolution": {
                "git-url": "https://github.com/marioevz/execution-specs.git",
                "branch": "forks/bpo1",
                "commit": "3387e5f4aedfe99becfdc39b444d6371e25e0924"
            }
        }
    }
}