{
    "tests/static/state_tests/stSystemOperationsTest/CallToNameRegistratorAddressTooBigLeftFiller.json::CallToNameRegistratorAddressTooBigLeft[fork_Cancun-state_test-]": {
        "env": {
            "currentCoinbase": "0x2adc25665018aa1fe0e6bc666dac8fc2697ff9ba",
            "currentGasLimit": "0x989680",
            "currentNumber": "0x01",
            "currentTimestamp": "0x03e8",
            "currentRandom": "0x0000000000000000000000000000000000000000000000000000000000020000",
            "currentDifficulty": "0x00",
            "currentBaseFee": "0x0a",
            "currentExcessBlobGas": "0x00"
        },
        "pre": {
            "0x7f32a808c5d6248fb9080aa82a359f82f7ca8328": {
                "nonce": "0x00",
                "balance": "0x0de0b6b3a7640000",
                "code": "0x",
                "storage": {}
            },
            "0x4e50f3f382297131183e77b64d1e351587e10122": {
                "nonce": "0x00",
                "balance": "0x17",
                "code": "0x6000355415600957005b60203560003555",
                "storage": {}
            },
            "0x4e50f3f382297131183e77b64d1e351587e10222": {
                "nonce": "0x00",
                "balance": "0x0de0b6b3a7640000",
                "code": "0x",
                "storage": {}
            }
        },
        "transaction": {
            "nonce": "0x00",
            "gasPrice": "0x0a",
            "gasLimit": [
                "0x0493e0"
            ],
            "to": "0x4e50f3f382297131183e77b64d1e351587e10222",
            "value": [
                "0x0186a0"
            ],
            "data": [
                "0x"
            ],
            "sender": "0x7f32a808c5d6248fb9080aa82a359f82f7ca8328",
            "secretKey": "0x2241f4ae2155531687d63a334e50f3f382297131183e77b64d1e351587e10122"
        },
        "post": {
            "Cancun": [
                {
                    "hash": "0xeeaed21690fc26e00b3bd46ab5e43f8c903ba4b445b14c4119cece8fdb0f10bb",
                    "logs": "0x1dcc4de8dec75d7aab85b567b6ccd41ad312451b948a7413f0a142fd40d49347",
                    "txbytes": "0xf863800a830493e0944e50f3f382297131183e77b64d1e351587e10222830186a08025a03179983d8f41b24da8e8d4b239cff31437488373b35201fc3c906b65e5366171a0076b56bc5d113a66f732661fca0b28c8d5c6d8d0ac2e97f69412e2ca91033b68",
                    "indexes": {
                        "data": 0,
                        "gas": 0,
                        "value": 0
                    },
                    "state": {
                        "0x7f32a808c5d6248fb9080aa82a359f82f7ca8328": {
                            "nonce": "0x01",
                            "balance": "0x0de0b6b3a75f4510",
                            "code": "0x",
                            "storage": {}
                        },
                        "0x4e50f3f382297131183e77b64d1e351587e10122": {
                            "nonce": "0x00",
                            "balance": "0x17",
                            "code": "0x6000355415600957005b60203560003555",
                            "storage": {}
                        },
                        "0x4e50f3f382297131183e77b64d1e351587e10222": {
                            "nonce": "0x00",
                            "balance": "0x0de0b6b3a76586a0",
                            "code": "0x",
                            "storage": {}
                        }
                    }
                }
            ]
        },
        "config": {
            "blobSchedule": {
                "Cancun": {
                    "target": "0x03",
                    "max": "0x06",
                    "baseFeeUpdateFraction": "0x32f0ed"
                }
            },
            "chainid": "0x01"
        },
        "_info": {
            "hash": "0x7b67f9c8b7683a9728a3ee75df3a483e6bab52d0413a548248dafc7f728b5c78",
            "comment": "`execution-spec-tests` generated test",
            "filling-transition-tool": "ethereum-spec-evm-resolver 0.0.5",
            "description": "No description available - add a docstring to the python test class or function.",
            "url": "",
            "fixture-format": "state_test",
            "eels-resolution": {
                "git-url": "https://github.com/marioevz/execution-specs.git",
                "branch": "forks/bpo1",
                "commit": "3387e5f4aedfe99becfdc39b444d6371e25e0924"
            }
        }
    },
    "tests/static/state_tests/stSystemOperationsTest/CallToNameRegistratorAddressTooBigLeftFiller.json::CallToNameRegistratorAddressTooBigLeft[fork_Osaka-state_test-]": {
        "env": {
            "currentCoinbase": "0x2adc25665018aa1fe0e6bc666dac8fc2697ff9ba",
            "currentGasLimit": "0x989680",
            "currentNumber": "0x01",
            "currentTimestamp": "0x03e8",
            "currentRandom": "0x0000000000000000000000000000000000000000000000000000000000020000",
            "currentDifficulty": "0x00",
            "currentBaseFee": "0x0a",
            "currentExcessBlobGas": "0x00"
        },
        "pre": {
            "0x7f32a808c5d6248fb9080aa82a359f82f7ca8328": {
                "nonce": "0x00",
                "balance": "0x0de0b6b3a7640000",
                "code": "0x",
                "storage": {}
            },
            "0x4e50f3f382297131183e77b64d1e351587e10122": {
                "nonce": "0x00",
                "balance": "0x17",
                "code": "0x6000355415600957005b60203560003555",
                "storage": {}
            },
            "0x4e50f3f382297131183e77b64d1e351587e10222": {
                "nonce": "0x00",
                "balance": "0x0de0b6b3a7640000",
                "code": "0x",
                "storage": {}
            }
        },
        "transaction": {
            "nonce": "0x00",
            "gasPrice": "0x0a",
            "gasLimit": [
                "0x0493e0"
            ],
            "to": "0x4e50f3f382297131183e77b64d1e351587e10222",
            "value": [
                "0x0186a0"
            ],
            "data": [
                "0x"
            ],
            "sender": "0x7f32a808c5d6248fb9080aa82a359f82f7ca8328",
            "secretKey": "0x2241f4ae2155531687d63a334e50f3f382297131183e77b64d1e351587e10122"
        },
        "post": {
            "Osaka": [
                {
                    "hash": "0xeeaed21690fc26e00b3bd46ab5e43f8c903ba4b445b14c4119cece8fdb0f10bb",
                    "logs": "0x1dcc4de8dec75d7aab85b567b6ccd41ad312451b948a7413f0a142fd40d49347",
                    "txbytes": "0xf863800a830493e0944e50f3f382297131183e77b64d1e351587e10222830186a08025a03179983d8f41b24da8e8d4b239cff31437488373b35201fc3c906b65e5366171a0076b56bc5d113a66f732661fca0b28c8d5c6d8d0ac2e97f69412e2ca91033b68",
                    "indexes": {
                        "data": 0,
                        "gas": 0,
                        "value": 0
                    },
                    "state": {
                        "0x7f32a808c5d6248fb9080aa82a359f82f7ca8328": {
                            "nonce": "0x01",
                            "balance": "0x0de0b6b3a75f4510",
                            "code": "0x",
                            "storage": {}
                        },
                        "0x4e50f3f382297131183e77b64d1e351587e10122": {
                            "nonce": "0x00",
                            "balance": "0x17",
                            "code": "0x6000355415600957005b60203560003555",
                            "storage": {}
                        },
                        "0x4e50f3f382297131183e77b64d1e351587e10222": {
                            "nonce": "0x00",
                            "balance": "0x0de0b6b3a76586a0",
                            "code": "0x",
                            "storage": {}
                        }
                    }
                }
            ]
        },
        "config": {
            "blobSchedule": {
                "Cancun": {
                    "target": "0x03",
                    "max": "0x06",
                    "baseFeeUpdateFraction": "0x32f0ed"
                },
                "Prague": {
                    "target": "0x06",
                    "max": "0x09",
                    "baseFeeUpdateFraction": "0x4c6964"
                },
                "Osaka": {
                    "target": "0x06",
                    "max": "0x09",
                    "baseFeeUpdateFraction": "0x4c6964"
                }
            },
            "chainid": "0x01"
        },
        "_info": {
            "hash": "0x950e47c95cc857ad035e802fad97c5cdb459e71d9d47bbd3cce09a82d193004b",
            "comment": "`execution-spec-tests` generated test",
            "filling-transition-tool": "ethereum-spec-evm-resolver 0.0.5",
            "description": "No description available - add a docstring to the python test class or function.",
            "url": "",
            "fixture-format": "state_test",
            "eels-resolution": {
                "git-url": "https://github.com/marioevz/execution-specs.git",
                "branch": "forks/bpo1",
                "commit": "3387e5f4aedfe99becfdc39b444d6371e25e0924"
            }
        }
    },
    "tests/static/state_tests/stSystemOperationsTest/CallToNameRegistratorAddressTooBigLeftFiller.json::CallToNameRegistratorAddressTooBigLeft[fork_Prague-state_test-]": {
        "env": {
            "currentCoinbase": "0x2adc25665018aa1fe0e6bc666dac8fc2697ff9ba",
            "currentGasLimit": "0x989680",
            "currentNumber": "0x01",
            "currentTimestamp": "0x03e8",
            "currentRandom": "0x0000000000000000000000000000000000000000000000000000000000020000",
            "currentDifficulty": "0x00",
            "currentBaseFee": "0x0a",
            "currentExcessBlobGas": "0x00"
        },
        "pre": {
            "0x7f32a808c5d6248fb9080aa82a359f82f7ca8328": {
                "nonce": "0x00",
                "balance": "0x0de0b6b3a7640000",
                "code": "0x",
                "storage": {}
            },
            "0x4e50f3f382297131183e77b64d1e351587e10122": {
                "nonce": "0x00",
                "balance": "0x17",
                "code": "0x6000355415600957005b60203560003555",
                "storage": {}
            },
            "0x4e50f3f382297131183e77b64d1e351587e10222": {
                "nonce": "0x00",
                "balance": "0x0de0b6b3a7640000",
                "code": "0x",
                "storage": {}
            }
        },
        "transaction": {
            "nonce": "0x00",
            "gasPrice": "0x0a",
            "gasLimit": [
                "0x0493e0"
            ],
            "to": "0x4e50f3f382297131183e77b64d1e351587e10222",
            "value": [
                "0x0186a0"
            ],
            "data": [
                "0x"
            ],
            "sender": "0x7f32a808c5d6248fb9080aa82a359f82f7ca8328",
            "secretKey": "0x2241f4ae2155531687d63a334e50f3f382297131183e77b64d1e351587e10122"
        },
        "post": {
            "Prague": [
                {
                    "hash": "0xeeaed21690fc26e00b3bd46ab5e43f8c903ba4b445b14c4119cece8fdb0f10bb",
                    "logs": "0x1dcc4de8dec75d7aab85b567b6ccd41ad312451b948a7413f0a142fd40d49347",
                    "txbytes": "0xf863800a830493e0944e50f3f382297131183e77b64d1e351587e10222830186a08025a03179983d8f41b24da8e8d4b239cff31437488373b35201fc3c906b65e5366171a0076b56bc5d113a66f732661fca0b28c8d5c6d8d0ac2e97f69412e2ca91033b68",
                    "indexes": {
                        "data": 0,
                        "gas": 0,
                        "value": 0
                    },
                    "state": {
                        "0x7f32a808c5d6248fb9080aa82a359f82f7ca8328": {
                            "nonce": "0x01",
                            "balance": "0x0de0b6b3a75f4510",
                            "code": "0x",
                            "storage": {}
                        },
                        "0x4e50f3f382297131183e77b64d1e351587e10122": {
                            "nonce": "0x00",
                            "balance": "0x17",
                            "code": "0x6000355415600957005b60203560003555",
                            "storage": {}
                        },
                        "0x4e50f3f382297131183e77b64d1e351587e10222": {
                            "nonce": "0x00",
                            "balance": "0x0de0b6b3a76586a0",
                            "code": "0x",
                            "storage": {}
                        }
                    }
                }
            ]
        },
        "config": {
            "blobSchedule": {
                "Cancun": {
                    "target": "0x03",
                    "max": "0x06",
                    "baseFeeUpdateFraction": "0x32f0ed"
                },
                "Prague": {
                    "target": "0x06",
                    "max": "0x09",
                    "baseFeeUpdateFraction": "0x4c6964"
                }
            },
            "chainid": "0x01"
        },
        "_info": {
            "hash": "0x4f25a512556f59ce27bfd42c8ed7bc72c3ed29b2173c9fdcae3130be994183ba",
            "comment": "`execution-spec-tests` generated test",
            "filling-transition-tool": "ethereum-spec-evm-resolver 0.0.5",
            "description": "No description available - add a docstring to the python test class or function.",
            "url": "",
            "fixture-format": "state_test",
            "eels-resolution": {
                "git-url": "https://github.com/marioevz/execution-specs.git",
                "branch": "forks/bpo1",
                "commit": "3387e5f4aedfe99becfdc39b444d6371e25e0924"
            }
        }
    }
}