{
    "tests/static/state_tests/stSystemOperationsTest/CallToReturn1Filler.json::CallToReturn1[fork_Cancun-state_test-]": {
        "env": {
            "currentCoinbase": "0x2adc25665018aa1fe0e6bc666dac8fc2697ff9ba",
            "currentGasLimit": "0x989680",
            "currentNumber": "0x01",
            "currentTimestamp": "0x03e8",
            "currentRandom": "0x0000000000000000000000000000000000000000000000000000000000020000",
            "currentDifficulty": "0x00",
            "currentBaseFee": "0x0a",
            "currentExcessBlobGas": "0x00"
        },
        "pre": {
            "0x20c5dae98e1b8e9ff0943762dbe43ee653b8b4b4": {
                "nonce": "0x00",
                "balance": "0x0de0b6b3a7640000",
                "code": "0x",
                "storage": {}
            },
            "0x4667e04076146f239af1f6be982d4dfbac2c2bf0": {
                "nonce": "0x00",
                "balance": "0x17",
                "code": "0x6001600155602a601f536001601ff3",
                "storage": {}
            },
            "0x4667e04076146f239af1f6be982d4dfbac2c2cf0": {
                "nonce": "0x00",
                "balance": "0x0de0b6b3a7640000",
                "code": "0x6001601f600060006017734667e04076146f239af1f6be982d4dfbac2c2bf06103e8f160005560005160015500",
                "storage": {}
            }
        },
        "transaction": {
            "nonce": "0x00",
            "gasPrice": "0x0a",
            "gasLimit": [
                "0x0493e0"
            ],
            "to": "0x4667e04076146f239af1f6be982d4dfbac2c2cf0",
            "value": [
                "0x0186a0"
            ],
            "data": [
                "0x"
            ],
            "sender": "0x20c5dae98e1b8e9ff0943762dbe43ee653b8b4b4",
            "secretKey": "0x0e05ac4d0950a7a50e72b06d4667e04076146f239af1f6be982d4dfbac2c2bf0"
        },
        "post": {
            "Cancun": [
                {
                    "hash": "0xa8a4884b5ef2b0afb5a9107dfb3ac58a82e0071203bceadb9cc1133ff2cb4266",
                    "logs": "0x1dcc4de8dec75d7aab85b567b6ccd41ad312451b948a7413f0a142fd40d49347",
                    "txbytes": "0xf863800a830493e0944667e04076146f239af1f6be982d4dfbac2c2cf0830186a08026a0bc867628cb9f5ee28a98e5084c0cbc047499d18f540aa63029877d6657587163a063820fda7d103b9d657875d92dee04ab1fb4abe796afb577fe59f3f2ce45b018",
                    "indexes": {
                        "data": 0,
                        "gas": 0,
                        "value": 0
                    },
                    "state": {
                        "0x20c5dae98e1b8e9ff0943762dbe43ee653b8b4b4": {
                            "nonce": "0x01",
                            "balance": "0x0de0b6b3a75cab98",
                            "code": "0x",
                            "storage": {}
                        },
                        "0x4667e04076146f239af1f6be982d4dfbac2c2bf0": {
                            "nonce": "0x00",
                            "balance": "0x17",
                            "code": "0x6001600155602a601f536001601ff3",
                            "storage": {}
                        },
                        "0x4667e04076146f239af1f6be982d4dfbac2c2cf0": {
                            "nonce": "0x00",
                            "balance": "0x0de0b6b3a76586a0",
                            "code": "0x6001601f600060006017734667e04076146f239af1f6be982d4dfbac2c2bf06103e8f160005560005160015500",
                            "storage": {}
                        }
                    }
                }
            ]
        },
        "config": {
            "blobSchedule": {
                "Cancun": {
                    "target": "0x03",
                    "max": "0x06",
                    "baseFeeUpdateFraction": "0x32f0ed"
                }
            },
            "chainid": "0x01"
        },
        "_info": {
            "hash": "0x675d80b963b13b138501b6276f5318b2a3f8f434e7badc4e6e3743c0db884b15",
            "comment": "`execution-spec-tests` generated test",
            "filling-transition-tool": "ethereum-spec-evm-resolver 0.0.5",
            "description": "No description available - add a docstring to the python test class or function.",
            "url": "",
            "fixture-format": "state_test",
            "eels-resolution": {
                "git-url": "https://github.com/marioevz/execution-specs.git",
                "branch": "forks/bpo1",
                "commit": "3387e5f4aedfe99becfdc39b444d6371e25e0924"
            }
        }
    },
    "tests/static/state_tests/stSystemOperationsTest/CallToReturn1Filler.json::CallToReturn1[fork_Osaka-state_test-]": {
        "env": {
            "currentCoinbase": "0x2adc25665018aa1fe0e6bc666dac8fc2697ff9ba",
            "currentGasLimit": "0x989680",
            "currentNumber": "0x01",
            "currentTimestamp": "0x03e8",
            "currentRandom": "0x0000000000000000000000000000000000000000000000000000000000020000",
            "currentDifficulty": "0x00",
            "currentBaseFee": "0x0a",
            "currentExcessBlobGas": "0x00"
        },
        "pre": {
            "0x20c5dae98e1b8e9ff0943762dbe43ee653b8b4b4": {
                "nonce": "0x00",
                "balance": "0x0de0b6b3a7640000",
                "code": "0x",
                "storage": {}
            },
            "0x4667e04076146f239af1f6be982d4dfbac2c2bf0": {
                "nonce": "0x00",
                "balance": "0x17",
                "code": "0x6001600155602a601f536001601ff3",
                "storage": {}
            },
            "0x4667e04076146f239af1f6be982d4dfbac2c2cf0": {
                "nonce": "0x00",
                "balance": "0x0de0b6b3a7640000",
                "code": "0x6001601f600060006017734667e04076146f239af1f6be982d4dfbac2c2bf06103e8f160005560005160015500",
                "storage": {}
            }
        },
        "transaction": {
            "nonce": "0x00",
            "gasPrice": "0x0a",
            "gasLimit": [
                "0x0493e0"
            ],
            "to": "0x4667e04076146f239af1f6be982d4dfbac2c2cf0",
            "value": [
                "0x0186a0"
            ],
            "data": [
                "0x"
            ],
            "sender": "0x20c5dae98e1b8e9ff0943762dbe43ee653b8b4b4",
            "secretKey": "0x0e05ac4d0950a7a50e72b06d4667e04076146f239af1f6be982d4dfbac2c2bf0"
        },
        "post": {
            "Osaka": [
                {
                    "hash": "0xa8a4884b5ef2b0afb5a9107dfb3ac58a82e0071203bceadb9cc1133ff2cb4266",
                    "logs": "0x1dcc4de8dec75d7aab85b567b6ccd41ad312451b948a7413f0a142fd40d49347",
                    "txbytes": "0xf863800a830493e0944667e04076146f239af1f6be982d4dfbac2c2cf0830186a08026a0bc867628cb9f5ee28a98e5084c0cbc047499d18f540aa63029877d6657587163a063820fda7d103b9d657875d92dee04ab1fb4abe796afb577fe59f3f2ce45b018",
                    "indexes": {
                        "data": 0,
                        "gas": 0,
                        "value": 0
                    },
                    "state": {
                        "0x20c5dae98e1b8e9ff0943762dbe43ee653b8b4b4": {
                            "nonce": "0x01",
                            "balance": "0x0de0b6b3a75cab98",
                            "code": "0x",
                            "storage": {}
                        },
                        "0x4667e04076146f239af1f6be982d4dfbac2c2bf0": {
                            "nonce": "0x00",
                            "balance": "0x17",
                            "code": "0x6001600155602a601f536001601ff3",
                            "storage": {}
                        },
                        "0x4667e04076146f239af1f6be982d4dfbac2c2cf0": {
                            "nonce": "0x00",
                            "balance": "0x0de0b6b3a76586a0",
                            "code": "0x6001601f600060006017734667e04076146f239af1f6be982d4dfbac2c2bf06103e8f160005560005160015500",
                            "storage": {}
                        }
                    }
                }
            ]
        },
        "config": {
            "blobSchedule": {
                "Cancun": {
                    "target": "0x03",
                    "max": "0x06",
                    "baseFeeUpdateFraction": "0x32f0ed"
                },
                "Prague": {
                    "target": "0x06",
                    "max": "0x09",
                    "baseFeeUpdateFraction": "0x4c6964"
                },
                "Osaka": {
                    "target": "0x06",
                    "max": "0x09",
                    "baseFeeUpdateFraction": "0x4c6964"
                }
            },
            "chainid": "0x01"
        },
        "_info": {
            "hash": "0x34f1748041fe1f249d939981ed006b74d04281df6137ea31d050c12b3d624c48",
            "comment": "`execution-spec-tests` generated test",
            "filling-transition-tool": "ethereum-spec-evm-resolver 0.0.5",
            "description": "No description available - add a docstring to the python test class or function.",
            "url": "",
            "fixture-format": "state_test",
            "eels-resolution": {
                "git-url": "https://github.com/marioevz/execution-specs.git",
                "branch": "forks/bpo1",
                "commit": "3387e5f4aedfe99becfdc39b444d6371e25e0924"
            }
        }
    },
    "tests/static/state_tests/stSystemOperationsTest/CallToReturn1Filler.json::CallToReturn1[fork_Prague-state_test-]": {
        "env": {
            "currentCoinbase": "0x2adc25665018aa1fe0e6bc666dac8fc2697ff9ba",
            "currentGasLimit": "0x989680",
            "currentNumber": "0x01",
            "currentTimestamp": "0x03e8",
            "currentRandom": "0x0000000000000000000000000000000000000000000000000000000000020000",
            "currentDifficulty": "0x00",
            "currentBaseFee": "0x0a",
            "currentExcessBlobGas": "0x00"
        },
        "pre": {
            "0x20c5dae98e1b8e9ff0943762dbe43ee653b8b4b4": {
                "nonce": "0x00",
                "balance": "0x0de0b6b3a7640000",
                "code": "0x",
                "storage": {}
            },
            "0x4667e04076146f239af1f6be982d4dfbac2c2bf0": {
                "nonce": "0x00",
                "balance": "0x17",
                "code": "0x6001600155602a601f536001601ff3",
                "storage": {}
            },
            "0x4667e04076146f239af1f6be982d4dfbac2c2cf0": {
                "nonce": "0x00",
                "balance": "0x0de0b6b3a7640000",
                "code": "0x6001601f600060006017734667e04076146f239af1f6be982d4dfbac2c2bf06103e8f160005560005160015500",
                "storage": {}
            }
        },
        "transaction": {
            "nonce": "0x00",
            "gasPrice": "0x0a",
            "gasLimit": [
                "0x0493e0"
            ],
            "to": "0x4667e04076146f239af1f6be982d4dfbac2c2cf0",
            "value": [
                "0x0186a0"
            ],
            "data": [
                "0x"
            ],
            "sender": "0x20c5dae98e1b8e9ff0943762dbe43ee653b8b4b4",
            "secretKey": "0x0e05ac4d0950a7a50e72b06d4667e04076146f239af1f6be982d4dfbac2c2bf0"
        },
        "post": {
            "Prague": [
                {
                    "hash": "0xa8a4884b5ef2b0afb5a9107dfb3ac58a82e0071203bceadb9cc1133ff2cb4266",
                    "logs": "0x1dcc4de8dec75d7aab85b567b6ccd41ad312451b948a7413f0a142fd40d49347",
                    "txbytes": "0xf863800a830493e0944667e04076146f239af1f6be982d4dfbac2c2cf0830186a08026a0bc867628cb9f5ee28a98e5084c0cbc047499d18f540aa63029877d6657587163a063820fda7d103b9d657875d92dee04ab1fb4abe796afb577fe59f3f2ce45b018",
                    "indexes": {
                        "data": 0,
                        "gas": 0,
                        "value": 0
                    },
                    "state": {
                        "0x20c5dae98e1b8e9ff0943762dbe43ee653b8b4b4": {
                            "nonce": "0x01",
                            "balance": "0x0de0b6b3a75cab98",
                            "code": "0x",
                            "storage": {}
                        },
                        "0x4667e04076146f239af1f6be982d4dfbac2c2bf0": {
                            "nonce": "0x00",
                            "balance": "0x17",
                            "code": "0x6001600155602a601f536001601ff3",
                            "storage": {}
                        },
                        "0x4667e04076146f239af1f6be982d4dfbac2c2cf0": {
                            "nonce": "0x00",
                            "balance": "0x0de0b6b3a76586a0",
                            "code": "0x6001601f600060006017734667e04076146f239af1f6be982d4dfbac2c2bf06103e8f160005560005160015500",
                            "storage": {}
                        }
                    }
                }
            ]
        },
        "config": {
            "blobSchedule": {
                "Cancun": {
                    "target": "0x03",
                    "max": "0x06",
                    "baseFeeUpdateFraction": "0x32f0ed"
                },
                "Prague": {
                    "target": "0x06",
                    "max": "0x09",
                    "baseFeeUpdateFraction": "0x4c6964"
                }
            },
            "chainid": "0x01"
        },
        "_info": {
            "hash": "0xe3a9f6cf14827cf33d5462fca9f1ca88f920d726e53de3d477ddbcd460439fd4",
            "comment": "`execution-spec-tests` generated test",
            "filling-transition-tool": "ethereum-spec-evm-resolver 0.0.5",
            "description": "No description available - add a docstring to the python test class or function.",
            "url": "",
            "fixture-format": "state_test",
            "eels-resolution": {
                "git-url": "https://github.com/marioevz/execution-specs.git",
                "branch": "forks/bpo1",
                "commit": "3387e5f4aedfe99becfdc39b444d6371e25e0924"
            }
        }
    }
}