{
    "tests/static/state_tests/stSystemOperationsTest/CalltoReturn2Filler.json::CalltoReturn2[fork_Cancun-state_test-]": {
        "env": {
            "currentCoinbase": "0x2adc25665018aa1fe0e6bc666dac8fc2697ff9ba",
            "currentGasLimit": "0x989680",
            "currentNumber": "0x01",
            "currentTimestamp": "0x03e8",
            "currentRandom": "0x0000000000000000000000000000000000000000000000000000000000020000",
            "currentDifficulty": "0x00",
            "currentBaseFee": "0x0a",
            "currentExcessBlobGas": "0x00"
        },
        "pre": {
            "0x046f2f5d6323362468f544a01c1ba4e70d4fa50b": {
                "nonce": "0x00",
                "balance": "0x0de0b6b3a7640000",
                "code": "0x",
                "storage": {}
            },
            "0xf10b243f40f6c8fed995aa2dda1d9ad53a75bd4c": {
                "nonce": "0x00",
                "balance": "0x17",
                "code": "0x6001600155603760005360026000f2",
                "storage": {}
            },
            "0xf10b243f40f6c8fed995aa2dda1d9ad53a75be4c": {
                "nonce": "0x00",
                "balance": "0x0de0b6b3a7640000",
                "code": "0x7fffffffffffffffffffffffffffffffffffffffffffffffffffffffffffffffff6000527faaffffffffffffffffffffffffffffffffffffffffffffffffffffffffffffaa6020526002600060406000601773f10b243f40f6c8fed995aa2dda1d9ad53a75bd4c611388f160005500",
                "storage": {}
            }
        },
        "transaction": {
            "nonce": "0x00",
            "gasPrice": "0x0a",
            "gasLimit": [
                "0x0493e0"
            ],
            "to": "0xf10b243f40f6c8fed995aa2dda1d9ad53a75be4c",
            "value": [
                "0x0186a0"
            ],
            "data": [
                "0x"
            ],
            "sender": "0x046f2f5d6323362468f544a01c1ba4e70d4fa50b",
            "secretKey": "0x972b04447e97268ff38008e3f10b243f40f6c8fed995aa2dda1d9ad53a75bd4c"
        },
        "post": {
            "Cancun": [
                {
                    "hash": "0x9ce059564a7a8855586b3cc15045767b36a715fa92d738714ab5df3678d73c95",
                    "logs": "0x1dcc4de8dec75d7aab85b567b6ccd41ad312451b948a7413f0a142fd40d49347",
                    "txbytes": "0xf863800a830493e094f10b243f40f6c8fed995aa2dda1d9ad53a75be4c830186a08026a037682924ef24cd553429dcf345085709934163f07593ce1f126709501438c120a03ab21d18d3dbb3210c4505d90e54291b5398e71f8c9c2d795efcba191f16e804",
                    "indexes": {
                        "data": 0,
                        "gas": 0,
                        "value": 0
                    },
                    "state": {
                        "0x046f2f5d6323362468f544a01c1ba4e70d4fa50b": {
                            "nonce": "0x01",
                            "balance": "0x0de0b6b3a75c64d0",
                            "code": "0x",
                            "storage": {}
                        },
                        "0xf10b243f40f6c8fed995aa2dda1d9ad53a75bd4c": {
                            "nonce": "0x00",
                            "balance": "0x17",
                            "code": "0x6001600155603760005360026000f2",
                            "storage": {}
                        },
                        "0xf10b243f40f6c8fed995aa2dda1d9ad53a75be4c": {
                            "nonce": "0x00",
                            "balance": "0x0de0b6b3a76586a0",
                            "code": "0x7fffffffffffffffffffffffffffffffffffffffffffffffffffffffffffffffff6000527faaffffffffffffffffffffffffffffffffffffffffffffffffffffffffffffaa6020526002600060406000601773f10b243f40f6c8fed995aa2dda1d9ad53a75bd4c611388f160005500",
                            "storage": {}
                        }
                    }
                }
            ]
        },
        "config": {
            "blobSchedule": {
                "Cancun": {
                    "target": "0x03",
                    "max": "0x06",
                    "baseFeeUpdateFraction": "0x32f0ed"
                }
            },
            "chainid": "0x01"
        },
        "_info": {
            "hash": "0x4badbda126f42dbc98965539388fa6006bbed2e06295c4a321118c3576afe5ca",
            "comment": "`execution-spec-tests` generated test",
            "filling-transition-tool": "ethereum-spec-evm-resolver 0.0.5",
            "description": "No description available - add a docstring to the python test class or function.",
            "url": "",
            "fixture-format": "state_test",
            "eels-resolution": {
                "git-url": "https://github.com/ethereum/execution-specs.git",
                "branch": "forks/bpos",
                "commit": "7aacb2c54111391af5e98c505d5010b5698a770f"
            }
        }
    },
    "tests/static/state_tests/stSystemOperationsTest/CalltoReturn2Filler.json::CalltoReturn2[fork_Osaka-state_test-]": {
        "env": {
            "currentCoinbase": "0x2adc25665018aa1fe0e6bc666dac8fc2697ff9ba",
            "currentGasLimit": "0x989680",
            "currentNumber": "0x01",
            "currentTimestamp": "0x03e8",
            "currentRandom": "0x0000000000000000000000000000000000000000000000000000000000020000",
            "currentDifficulty": "0x00",
            "currentBaseFee": "0x0a",
            "currentExcessBlobGas": "0x00"
        },
        "pre": {
            "0x046f2f5d6323362468f544a01c1ba4e70d4fa50b": {
                "nonce": "0x00",
                "balance": "0x0de0b6b3a7640000",
                "code": "0x",
                "storage": {}
            },
            "0xf10b243f40f6c8fed995aa2dda1d9ad53a75bd4c": {
                "nonce": "0x00",
                "balance": "0x17",
                "code": "0x6001600155603760005360026000f2",
                "storage": {}
            },
            "0xf10b243f40f6c8fed995aa2dda1d9ad53a75be4c": {
                "nonce": "0x00",
                "balance": "0x0de0b6b3a7640000",
                "code": "0x7fffffffffffffffffffffffffffffffffffffffffffffffffffffffffffffffff6000527faaffffffffffffffffffffffffffffffffffffffffffffffffffffffffffffaa6020526002600060406000601773f10b243f40f6c8fed995aa2dda1d9ad53a75bd4c611388f160005500",
                "storage": {}
            }
        },
        "transaction": {
            "nonce": "0x00",
            "gasPrice": "0x0a",
            "gasLimit": [
                "0x0493e0"
            ],
            "to": "0xf10b243f40f6c8fed995aa2dda1d9ad53a75be4c",
            "value": [
                "0x0186a0"
            ],
            "data": [
                "0x"
            ],
            "sender": "0x046f2f5d6323362468f544a01c1ba4e70d4fa50b",
            "secretKey": "0x972b04447e97268ff38008e3f10b243f40f6c8fed995aa2dda1d9ad53a75bd4c"
        },
        "post": {
            "Osaka": [
                {
                    "hash": "0x9ce059564a7a8855586b3cc15045767b36a715fa92d738714ab5df3678d73c95",
                    "logs": "0x1dcc4de8dec75d7aab85b567b6ccd41ad312451b948a7413f0a142fd40d49347",
                    "txbytes": "0xf863800a830493e094f10b243f40f6c8fed995aa2dda1d9ad53a75be4c830186a08026a037682924ef24cd553429dcf345085709934163f07593ce1f126709501438c120a03ab21d18d3dbb3210c4505d90e54291b5398e71f8c9c2d795efcba191f16e804",
                    "indexes": {
                        "data": 0,
                        "gas": 0,
                        "value": 0
                    },
                    "state": {
                        "0x046f2f5d6323362468f544a01c1ba4e70d4fa50b": {
                            "nonce": "0x01",
                            "balance": "0x0de0b6b3a75c64d0",
                            "code": "0x",
                            "storage": {}
                        },
                        "0xf10b243f40f6c8fed995aa2dda1d9ad53a75bd4c": {
                            "nonce": "0x00",
                            "balance": "0x17",
                            "code": "0x6001600155603760005360026000f2",
                            "storage": {}
                        },
                        "0xf10b243f40f6c8fed995aa2dda1d9ad53a75be4c": {
                            "nonce": "0x00",
                            "balance": "0x0de0b6b3a76586a0",
                            "code": "0x7fffffffffffffffffffffffffffffffffffffffffffffffffffffffffffffffff6000527faaffffffffffffffffffffffffffffffffffffffffffffffffffffffffffffaa6020526002600060406000601773f10b243f40f6c8fed995aa2dda1d9ad53a75bd4c611388f160005500",
                            "storage": {}
                        }
                    }
                }
            ]
        },
        "config": {
            "blobSchedule": {
                "Cancun": {
                    "target": "0x03",
                    "max": "0x06",
                    "baseFeeUpdateFraction": "0x32f0ed"
                },
                "Prague": {
                    "target": "0x06",
                    "max": "0x09",
                    "baseFeeUpdateFraction": "0x4c6964"
                },
                "Osaka": {
                    "target": "0x06",
                    "max": "0x09",
                    "baseFeeUpdateFraction": "0x4c6964"
                }
            },
            "chainid": "0x01"
        },
        "_info": {
            "hash": "0x11861dcde6500b403034bf1780f9d149129d3d28ea839f617d5912ec91b11d22",
            "comment": "`execution-spec-tests` generated test",
            "filling-transition-tool": "ethereum-spec-evm-resolver 0.0.5",
            "description": "No description available - add a docstring to the python test class or function.",
            "url": "",
            "fixture-format": "state_test",
            "eels-resolution": {
                "git-url": "https://github.com/ethereum/execution-specs.git",
                "branch": "forks/bpos",
                "commit": "7aacb2c54111391af5e98c505d5010b5698a770f"
            }
        }
    },
    "tests/static/state_tests/stSystemOperationsTest/CalltoReturn2Filler.json::CalltoReturn2[fork_Prague-state_test-]": {
        "env": {
            "currentCoinbase": "0x2adc25665018aa1fe0e6bc666dac8fc2697ff9ba",
            "currentGasLimit": "0x989680",
            "currentNumber": "0x01",
            "currentTimestamp": "0x03e8",
            "currentRandom": "0x0000000000000000000000000000000000000000000000000000000000020000",
            "currentDifficulty": "0x00",
            "currentBaseFee": "0x0a",
            "currentExcessBlobGas": "0x00"
        },
        "pre": {
            "0x046f2f5d6323362468f544a01c1ba4e70d4fa50b": {
                "nonce": "0x00",
                "balance": "0x0de0b6b3a7640000",
                "code": "0x",
                "storage": {}
            },
            "0xf10b243f40f6c8fed995aa2dda1d9ad53a75bd4c": {
                "nonce": "0x00",
                "balance": "0x17",
                "code": "0x6001600155603760005360026000f2",
                "storage": {}
            },
            "0xf10b243f40f6c8fed995aa2dda1d9ad53a75be4c": {
                "nonce": "0x00",
                "balance": "0x0de0b6b3a7640000",
                "code": "0x7fffffffffffffffffffffffffffffffffffffffffffffffffffffffffffffffff6000527faaffffffffffffffffffffffffffffffffffffffffffffffffffffffffffffaa6020526002600060406000601773f10b243f40f6c8fed995aa2dda1d9ad53a75bd4c611388f160005500",
                "storage": {}
            }
        },
        "transaction": {
            "nonce": "0x00",
            "gasPrice": "0x0a",
            "gasLimit": [
                "0x0493e0"
            ],
            "to": "0xf10b243f40f6c8fed995aa2dda1d9ad53a75be4c",
            "value": [
                "0x0186a0"
            ],
            "data": [
                "0x"
            ],
            "sender": "0x046f2f5d6323362468f544a01c1ba4e70d4fa50b",
            "secretKey": "0x972b04447e97268ff38008e3f10b243f40f6c8fed995aa2dda1d9ad53a75bd4c"
        },
        "post": {
            "Prague": [
                {
                    "hash": "0x9ce059564a7a8855586b3cc15045767b36a715fa92d738714ab5df3678d73c95",
                    "logs": "0x1dcc4de8dec75d7aab85b567b6ccd41ad312451b948a7413f0a142fd40d49347",
                    "txbytes": "0xf863800a830493e094f10b243f40f6c8fed995aa2dda1d9ad53a75be4c830186a08026a037682924ef24cd553429dcf345085709934163f07593ce1f126709501438c120a03ab21d18d3dbb3210c4505d90e54291b5398e71f8c9c2d795efcba191f16e804",
                    "indexes": {
                        "data": 0,
                        "gas": 0,
                        "value": 0
                    },
                    "state": {
                        "0x046f2f5d6323362468f544a01c1ba4e70d4fa50b": {
                            "nonce": "0x01",
                            "balance": "0x0de0b6b3a75c64d0",
                            "code": "0x",
                            "storage": {}
                        },
                        "0xf10b243f40f6c8fed995aa2dda1d9ad53a75bd4c": {
                            "nonce": "0x00",
                            "balance": "0x17",
                            "code": "0x6001600155603760005360026000f2",
                            "storage": {}
                        },
                        "0xf10b243f40f6c8fed995aa2dda1d9ad53a75be4c": {
                            "nonce": "0x00",
                            "balance": "0x0de0b6b3a76586a0",
                            "code": "0x7fffffffffffffffffffffffffffffffffffffffffffffffffffffffffffffffff6000527faaffffffffffffffffffffffffffffffffffffffffffffffffffffffffffffaa6020526002600060406000601773f10b243f40f6c8fed995aa2dda1d9ad53a75bd4c611388f160005500",
                            "storage": {}
                        }
                    }
                }
            ]
        },
        "config": {
            "blobSchedule": {
                "Cancun": {
                    "target": "0x03",
                    "max": "0x06",
                    "baseFeeUpdateFraction": "0x32f0ed"
                },
                "Prague": {
                    "target": "0x06",
                    "max": "0x09",
                    "baseFeeUpdateFraction": "0x4c6964"
                }
            },
            "chainid": "0x01"
        },
        "_info": {
            "hash": "0x35052d478d5d4c826e84b6131a769385e6bf44b03b303dc4215a1ea1982593ad",
            "comment": "`execution-spec-tests` generated test",
            "filling-transition-tool": "ethereum-spec-evm-resolver 0.0.5",
            "description": "No description available - add a docstring to the python test class or function.",
            "url": "",
            "fixture-format": "state_test",
            "eels-resolution": {
                "git-url": "https://github.com/ethereum/execution-specs.git",
                "branch": "forks/bpos",
                "commit": "7aacb2c54111391af5e98c505d5010b5698a770f"
            }
        }
    }
}