{
    "tests/static/state_tests/stSystemOperationsTest/PostToReturn1Filler.json::PostToReturn1[fork_Cancun-state_test-]": {
        "env": {
            "currentCoinbase": "0x2adc25665018aa1fe0e6bc666dac8fc2697ff9ba",
            "currentGasLimit": "0x989680",
            "currentNumber": "0x01",
            "currentTimestamp": "0x03e8",
            "currentRandom": "0x0000000000000000000000000000000000000000000000000000000000020000",
            "currentDifficulty": "0x00",
            "currentBaseFee": "0x0a",
            "currentExcessBlobGas": "0x00"
        },
        "pre": {
            "0xc690455fb7100020f6b2c6e2ecd983d49e652f5c": {
                "nonce": "0x00",
                "balance": "0x0de0b6b3a7640000",
                "code": "0x",
                "storage": {}
            },
            "0xc34a6c00d5519504b42f451cc5fea331491ee6c2": {
                "nonce": "0x00",
                "balance": "0x17",
                "code": "0x603760005360026000f2",
                "storage": {}
            },
            "0xc34a6c00d5519504b42f451cc5fea331491ee7c2": {
                "nonce": "0x00",
                "balance": "0x0de0b6b3a7640000",
                "code": "0x7fffffffffffffffffffffffffffffffffffffffffffffffffffffffffffffffff6000527faaffffffffffffffffffffffffffffffffffffffffffffffffffffffffffffaa6020526000600060406000601773c34a6c00d5519504b42f451cc5fea331491ee6c2617530f1600155600160025500",
                "storage": {}
            }
        },
        "transaction": {
            "nonce": "0x00",
            "gasPrice": "0x0a",
            "gasLimit": [
                "0x0493e0"
            ],
            "to": "0xc34a6c00d5519504b42f451cc5fea331491ee7c2",
            "value": [
                "0x0186a0"
            ],
            "data": [
                "0x"
            ],
            "sender": "0xc690455fb7100020f6b2c6e2ecd983d49e652f5c",
            "secretKey": "0x81f39d486bef37f9d59a248cc34a6c00d5519504b42f451cc5fea331491ee6c2"
        },
        "post": {
            "Cancun": [
                {
                    "hash": "0xceb67b6f40c4679c8d12932c5f94a0db269ff4c01645f36980e397f6fc67d0aa",
                    "logs": "0x1dcc4de8dec75d7aab85b567b6ccd41ad312451b948a7413f0a142fd40d49347",
                    "txbytes": "0xf863800a830493e094c34a6c00d5519504b42f451cc5fea331491ee7c2830186a08025a0181853c5346bbdd879e92170fb80e05b004db3aace4a59a35ea52fcbd253df80a0780153eb05cefa38fe2955e4e6c2a7faf2464a212ee4e3d2eb944b41e963425b",
                    "indexes": {
                        "data": 0,
                        "gas": 0,
                        "value": 0
                    },
                    "state": {
                        "0xc690455fb7100020f6b2c6e2ecd983d49e652f5c": {
                            "nonce": "0x01",
                            "balance": "0x0de0b6b3a75534bc",
                            "code": "0x",
                            "storage": {}
                        },
                        "0xc34a6c00d5519504b42f451cc5fea331491ee6c2": {
                            "nonce": "0x00",
                            "balance": "0x17",
                            "code": "0x603760005360026000f2",
                            "storage": {}
                        },
                        "0xc34a6c00d5519504b42f451cc5fea331491ee7c2": {
                            "nonce": "0x00",
                            "balance": "0x0de0b6b3a76586a0",
                            "code": "0x7fffffffffffffffffffffffffffffffffffffffffffffffffffffffffffffffff6000527faaffffffffffffffffffffffffffffffffffffffffffffffffffffffffffffaa6020526000600060406000601773c34a6c00d5519504b42f451cc5fea331491ee6c2617530f1600155600160025500",
                            "storage": {
                                "0x02": "0x01"
                            }
                        }
                    }
                }
            ]
        },
        "config": {
            "blobSchedule": {
                "Cancun": {
                    "target": "0x03",
                    "max": "0x06",
                    "baseFeeUpdateFraction": "0x32f0ed"
                }
            },
            "chainid": "0x01"
        },
        "_info": {
            "hash": "0x80f02424e042de367df75712663ccb47a8b07db94c46a90527ea3f128ec9e787",
            "comment": "`execution-specs` generated test",
            "filling-transition-tool": "2.18.0rc6",
            "description": "No description available - add a docstring to the python test class or function.",
            "url": "",
            "fixture-format": "state_test"
        }
    },
    "tests/static/state_tests/stSystemOperationsTest/PostToReturn1Filler.json::PostToReturn1[fork_Osaka-state_test-]": {
        "env": {
            "currentCoinbase": "0x2adc25665018aa1fe0e6bc666dac8fc2697ff9ba",
            "currentGasLimit": "0x989680",
            "currentNumber": "0x01",
            "currentTimestamp": "0x03e8",
            "currentRandom": "0x0000000000000000000000000000000000000000000000000000000000020000",
            "currentDifficulty": "0x00",
            "currentBaseFee": "0x0a",
            "currentExcessBlobGas": "0x00"
        },
        "pre": {
            "0xc690455fb7100020f6b2c6e2ecd983d49e652f5c": {
                "nonce": "0x00",
                "balance": "0x0de0b6b3a7640000",
                "code": "0x",
                "storage": {}
            },
            "0xc34a6c00d5519504b42f451cc5fea331491ee6c2": {
                "nonce": "0x00",
                "balance": "0x17",
                "code": "0x603760005360026000f2",
                "storage": {}
            },
            "0xc34a6c00d5519504b42f451cc5fea331491ee7c2": {
                "nonce": "0x00",
                "balance": "0x0de0b6b3a7640000",
                "code": "0x7fffffffffffffffffffffffffffffffffffffffffffffffffffffffffffffffff6000527faaffffffffffffffffffffffffffffffffffffffffffffffffffffffffffffaa6020526000600060406000601773c34a6c00d5519504b42f451cc5fea331491ee6c2617530f1600155600160025500",
                "storage": {}
            }
        },
        "transaction": {
            "nonce": "0x00",
            "gasPrice": "0x0a",
            "gasLimit": [
                "0x0493e0"
            ],
            "to": "0xc34a6c00d5519504b42f451cc5fea331491ee7c2",
            "value": [
                "0x0186a0"
            ],
            "data": [
                "0x"
            ],
            "sender": "0xc690455fb7100020f6b2c6e2ecd983d49e652f5c",
            "secretKey": "0x81f39d486bef37f9d59a248cc34a6c00d5519504b42f451cc5fea331491ee6c2"
        },
        "post": {
            "Osaka": [
                {
                    "hash": "0xceb67b6f40c4679c8d12932c5f94a0db269ff4c01645f36980e397f6fc67d0aa",
                    "logs": "0x1dcc4de8dec75d7aab85b567b6ccd41ad312451b948a7413f0a142fd40d49347",
                    "txbytes": "0xf863800a830493e094c34a6c00d5519504b42f451cc5fea331491ee7c2830186a08025a0181853c5346bbdd879e92170fb80e05b004db3aace4a59a35ea52fcbd253df80a0780153eb05cefa38fe2955e4e6c2a7faf2464a212ee4e3d2eb944b41e963425b",
                    "indexes": {
                        "data": 0,
                        "gas": 0,
                        "value": 0
                    },
                    "state": {
                        "0xc690455fb7100020f6b2c6e2ecd983d49e652f5c": {
                            "nonce": "0x01",
                            "balance": "0x0de0b6b3a75534bc",
                            "code": "0x",
                            "storage": {}
                        },
                        "0xc34a6c00d5519504b42f451cc5fea331491ee6c2": {
                            "nonce": "0x00",
                            "balance": "0x17",
                            "code": "0x603760005360026000f2",
                            "storage": {}
                        },
                        "0xc34a6c00d5519504b42f451cc5fea331491ee7c2": {
                            "nonce": "0x00",
                            "balance": "0x0de0b6b3a76586a0",
                            "code": "0x7fffffffffffffffffffffffffffffffffffffffffffffffffffffffffffffffff6000527faaffffffffffffffffffffffffffffffffffffffffffffffffffffffffffffaa6020526000600060406000601773c34a6c00d5519504b42f451cc5fea331491ee6c2617530f1600155600160025500",
                            "storage": {
                                "0x02": "0x01"
                            }
                        }
                    }
                }
            ]
        },
        "config": {
            "blobSchedule": {
                "Cancun": {
                    "target": "0x03",
                    "max": "0x06",
                    "baseFeeUpdateFraction": "0x32f0ed"
                },
                "Prague": {
                    "target": "0x06",
                    "max": "0x09",
                    "baseFeeUpdateFraction": "0x4c6964"
                },
                "Osaka": {
                    "target": "0x06",
                    "max": "0x09",
                    "baseFeeUpdateFraction": "0x4c6964"
                }
            },
            "chainid": "0x01"
        },
        "_info": {
            "hash": "0xec7e28a9a77dc5c4291ee8a7faf1c003d3e6162f717a7027fc32042ed697e3fd",
            "comment": "`execution-specs` generated test",
            "filling-transition-tool": "2.18.0rc6",
            "description": "No description available - add a docstring to the python test class or function.",
            "url": "",
            "fixture-format": "state_test"
        }
    },
    "tests/static/state_tests/stSystemOperationsTest/PostToReturn1Filler.json::PostToReturn1[fork_Prague-state_test-]": {
        "env": {
            "currentCoinbase": "0x2adc25665018aa1fe0e6bc666dac8fc2697ff9ba",
            "currentGasLimit": "0x989680",
            "currentNumber": "0x01",
            "currentTimestamp": "0x03e8",
            "currentRandom": "0x0000000000000000000000000000000000000000000000000000000000020000",
            "currentDifficulty": "0x00",
            "currentBaseFee": "0x0a",
            "currentExcessBlobGas": "0x00"
        },
        "pre": {
            "0xc690455fb7100020f6b2c6e2ecd983d49e652f5c": {
                "nonce": "0x00",
                "balance": "0x0de0b6b3a7640000",
                "code": "0x",
                "storage": {}
            },
            "0xc34a6c00d5519504b42f451cc5fea331491ee6c2": {
                "nonce": "0x00",
                "balance": "0x17",
                "code": "0x603760005360026000f2",
                "storage": {}
            },
            "0xc34a6c00d5519504b42f451cc5fea331491ee7c2": {
                "nonce": "0x00",
                "balance": "0x0de0b6b3a7640000",
                "code": "0x7fffffffffffffffffffffffffffffffffffffffffffffffffffffffffffffffff6000527faaffffffffffffffffffffffffffffffffffffffffffffffffffffffffffffaa6020526000600060406000601773c34a6c00d5519504b42f451cc5fea331491ee6c2617530f1600155600160025500",
                "storage": {}
            }
        },
        "transaction": {
            "nonce": "0x00",
            "gasPrice": "0x0a",
            "gasLimit": [
                "0x0493e0"
            ],
            "to": "0xc34a6c00d5519504b42f451cc5fea331491ee7c2",
            "value": [
                "0x0186a0"
            ],
            "data": [
                "0x"
            ],
            "sender": "0xc690455fb7100020f6b2c6e2ecd983d49e652f5c",
            "secretKey": "0x81f39d486bef37f9d59a248cc34a6c00d5519504b42f451cc5fea331491ee6c2"
        },
        "post": {
            "Prague": [
                {
                    "hash": "0xceb67b6f40c4679c8d12932c5f94a0db269ff4c01645f36980e397f6fc67d0aa",
                    "logs": "0x1dcc4de8dec75d7aab85b567b6ccd41ad312451b948a7413f0a142fd40d49347",
                    "txbytes": "0xf863800a830493e094c34a6c00d5519504b42f451cc5fea331491ee7c2830186a08025a0181853c5346bbdd879e92170fb80e05b004db3aace4a59a35ea52fcbd253df80a0780153eb05cefa38fe2955e4e6c2a7faf2464a212ee4e3d2eb944b41e963425b",
                    "indexes": {
                        "data": 0,
                        "gas": 0,
                        "value": 0
                    },
                    "state": {
                        "0xc690455fb7100020f6b2c6e2ecd983d49e652f5c": {
                            "nonce": "0x01",
                            "balance": "0x0de0b6b3a75534bc",
                            "code": "0x",
                            "storage": {}
                        },
                        "0xc34a6c00d5519504b42f451cc5fea331491ee6c2": {
                            "nonce": "0x00",
                            "balance": "0x17",
                            "code": "0x603760005360026000f2",
                            "storage": {}
                        },
                        "0xc34a6c00d5519504b42f451cc5fea331491ee7c2": {
                            "nonce": "0x00",
                            "balance": "0x0de0b6b3a76586a0",
                            "code": "0x7fffffffffffffffffffffffffffffffffffffffffffffffffffffffffffffffff6000527faaffffffffffffffffffffffffffffffffffffffffffffffffffffffffffffaa6020526000600060406000601773c34a6c00d5519504b42f451cc5fea331491ee6c2617530f1600155600160025500",
                            "storage": {
                                "0x02": "0x01"
                            }
                        }
                    }
                }
            ]
        },
        "config": {
            "blobSchedule": {
                "Cancun": {
                    "target": "0x03",
                    "max": "0x06",
                    "baseFeeUpdateFraction": "0x32f0ed"
                },
                "Prague": {
                    "target": "0x06",
                    "max": "0x09",
                    "baseFeeUpdateFraction": "0x4c6964"
                }
            },
            "chainid": "0x01"
        },
        "_info": {
            "hash": "0xff574e6f6a843ac3dc251f218c65532b781ad9ffb4d7edbcae491d4c7037c655",
            "comment": "`execution-specs` generated test",
            "filling-transition-tool": "2.18.0rc6",
            "description": "No description available - add a docstring to the python test class or function.",
            "url": "",
            "fixture-format": "state_test"
        }
    }
}