{
    "tests/static/state_tests/stSystemOperationsTest/TestNameRegistratorFiller.json::TestNameRegistrator[fork_Cancun-state_test-]": {
        "env": {
            "currentCoinbase": "0x2adc25665018aa1fe0e6bc666dac8fc2697ff9ba",
            "currentGasLimit": "0x0f4240",
            "currentNumber": "0x01",
            "currentTimestamp": "0x03e8",
            "currentRandom": "0x0000000000000000000000000000000000000000000000000000000000020000",
            "currentDifficulty": "0x00",
            "currentBaseFee": "0x0a",
            "currentExcessBlobGas": "0x00"
        },
        "pre": {
            "0x1cc414458902aa8fdee57cc9f1b4ba7be98c866e": {
                "nonce": "0x00",
                "balance": "0x0de0b6b3a7640000",
                "code": "0x",
                "storage": {}
            },
            "0x3a0c64d0050c2bbabd6c44fb4b906ee6c6bbc7be": {
                "nonce": "0x00",
                "balance": "0x0de0b6b3a7640000",
                "code": "0x6000355415600957005b60203560003555",
                "storage": {}
            }
        },
        "transaction": {
            "nonce": "0x00",
            "gasPrice": "0x0a",
            "gasLimit": [
                "0x0f4240"
            ],
            "to": "0x3a0c64d0050c2bbabd6c44fb4b906ee6c6bbc7be",
            "value": [
                "0x0186a0"
            ],
            "data": [
                "0xfffffffffffffffffffffffffffffffffffffffffffffffffffffffffffffffafffffffffffffffffffffffffffffffffffffffffffffffffffffffffffffffa"
            ],
            "sender": "0x1cc414458902aa8fdee57cc9f1b4ba7be98c866e",
            "secretKey": "0x36201204012d5e8ea791d2de3a0c64d0050c2bbabd6c44fb4b906ee6c6bbc7be"
        },
        "post": {
            "Cancun": [
                {
                    "hash": "0xa4898388494b8d0a6291848f60965fd2fd97f0a19ea1da9096b01379da4a2781",
                    "logs": "0x1dcc4de8dec75d7aab85b567b6ccd41ad312451b948a7413f0a142fd40d49347",
                    "txbytes": "0xf8a4800a830f4240943a0c64d0050c2bbabd6c44fb4b906ee6c6bbc7be830186a0b840fffffffffffffffffffffffffffffffffffffffffffffffffffffffffffffffafffffffffffffffffffffffffffffffffffffffffffffffffffffffffffffffa26a05c2bcdd569667afe26593cf63842103cab3ed38f0568f868b05b9520d8d14c76a03fc52b434c8ff184a077fbc29ed4a4a92239219362d12896814a74515c9562c3",
                    "indexes": {
                        "data": 0,
                        "gas": 0,
                        "value": 0
                    },
                    "state": {
                        "0x1cc414458902aa8fdee57cc9f1b4ba7be98c866e": {
                            "nonce": "0x01",
                            "balance": "0x0de0b6b3a75bbc6a",
                            "code": "0x",
                            "storage": {}
                        },
                        "0x3a0c64d0050c2bbabd6c44fb4b906ee6c6bbc7be": {
                            "nonce": "0x00",
                            "balance": "0x0de0b6b3a76586a0",
                            "code": "0x6000355415600957005b60203560003555",
                            "storage": {
                                "0xfffffffffffffffffffffffffffffffffffffffffffffffffffffffffffffffa": "0xfffffffffffffffffffffffffffffffffffffffffffffffffffffffffffffffa"
                            }
                        }
                    }
                }
            ]
        },
        "config": {
            "blobSchedule": {
                "Cancun": {
                    "target": "0x03",
                    "max": "0x06",
                    "baseFeeUpdateFraction": "0x32f0ed"
                }
            },
            "chainid": "0x01"
        },
        "_info": {
            "hash": "0x5fb4840aff6eec7aa0167c8f06088fe55f9a5a2869ece668c0121b81d6a41bb6",
            "comment": "`execution-spec-tests` generated test",
            "filling-transition-tool": "ethereum-spec-evm-resolver 0.0.5",
            "description": "No description available - add a docstring to the python test class or function.",
            "url": "",
            "fixture-format": "state_test",
            "eels-resolution": {
                "git-url": "https://github.com/marioevz/execution-specs.git",
                "branch": "forks/bpo1",
                "commit": "3387e5f4aedfe99becfdc39b444d6371e25e0924"
            }
        }
    },
    "tests/static/state_tests/stSystemOperationsTest/TestNameRegistratorFiller.json::TestNameRegistrator[fork_Osaka-state_test-]": {
        "env": {
            "currentCoinbase": "0x2adc25665018aa1fe0e6bc666dac8fc2697ff9ba",
            "currentGasLimit": "0x0f4240",
            "currentNumber": "0x01",
            "currentTimestamp": "0x03e8",
            "currentRandom": "0x0000000000000000000000000000000000000000000000000000000000020000",
            "currentDifficulty": "0x00",
            "currentBaseFee": "0x0a",
            "currentExcessBlobGas": "0x00"
        },
        "pre": {
            "0x1cc414458902aa8fdee57cc9f1b4ba7be98c866e": {
                "nonce": "0x00",
                "balance": "0x0de0b6b3a7640000",
                "code": "0x",
                "storage": {}
            },
            "0x3a0c64d0050c2bbabd6c44fb4b906ee6c6bbc7be": {
                "nonce": "0x00",
                "balance": "0x0de0b6b3a7640000",
                "code": "0x6000355415600957005b60203560003555",
                "storage": {}
            }
        },
        "transaction": {
            "nonce": "0x00",
            "gasPrice": "0x0a",
            "gasLimit": [
                "0x0f4240"
            ],
            "to": "0x3a0c64d0050c2bbabd6c44fb4b906ee6c6bbc7be",
            "value": [
                "0x0186a0"
            ],
            "data": [
                "0xfffffffffffffffffffffffffffffffffffffffffffffffffffffffffffffffafffffffffffffffffffffffffffffffffffffffffffffffffffffffffffffffa"
            ],
            "sender": "0x1cc414458902aa8fdee57cc9f1b4ba7be98c866e",
            "secretKey": "0x36201204012d5e8ea791d2de3a0c64d0050c2bbabd6c44fb4b906ee6c6bbc7be"
        },
        "post": {
            "Osaka": [
                {
                    "hash": "0xa4898388494b8d0a6291848f60965fd2fd97f0a19ea1da9096b01379da4a2781",
                    "logs": "0x1dcc4de8dec75d7aab85b567b6ccd41ad312451b948a7413f0a142fd40d49347",
                    "txbytes": "0xf8a4800a830f4240943a0c64d0050c2bbabd6c44fb4b906ee6c6bbc7be830186a0b840fffffffffffffffffffffffffffffffffffffffffffffffffffffffffffffffafffffffffffffffffffffffffffffffffffffffffffffffffffffffffffffffa26a05c2bcdd569667afe26593cf63842103cab3ed38f0568f868b05b9520d8d14c76a03fc52b434c8ff184a077fbc29ed4a4a92239219362d12896814a74515c9562c3",
                    "indexes": {
                        "data": 0,
                        "gas": 0,
                        "value": 0
                    },
                    "state": {
                        "0x1cc414458902aa8fdee57cc9f1b4ba7be98c866e": {
                            "nonce": "0x01",
                            "balance": "0x0de0b6b3a75bbc6a",
                            "code": "0x",
                            "storage": {}
                        },
                        "0x3a0c64d0050c2bbabd6c44fb4b906ee6c6bbc7be": {
                            "nonce": "0x00",
                            "balance": "0x0de0b6b3a76586a0",
                            "code": "0x6000355415600957005b60203560003555",
                            "storage": {
                                "0xfffffffffffffffffffffffffffffffffffffffffffffffffffffffffffffffa": "0xfffffffffffffffffffffffffffffffffffffffffffffffffffffffffffffffa"
                            }
                        }
                    }
                }
            ]
        },
        "config": {
            "blobSchedule": {
                "Cancun": {
                    "target": "0x03",
                    "max": "0x06",
                    "baseFeeUpdateFraction": "0x32f0ed"
                },
                "Prague": {
                    "target": "0x06",
                    "max": "0x09",
                    "baseFeeUpdateFraction": "0x4c6964"
                },
                "Osaka": {
                    "target": "0x06",
                    "max": "0x09",
                    "baseFeeUpdateFraction": "0x4c6964"
                }
            },
            "chainid": "0x01"
        },
        "_info": {
            "hash": "0xb1515a6c92890a82d53756e46ac16d044e34d17e80c3deb5d4fd2b9ebe7f3623",
            "comment": "`execution-spec-tests` generated test",
            "filling-transition-tool": "ethereum-spec-evm-resolver 0.0.5",
            "description": "No description available - add a docstring to the python test class or function.",
            "url": "",
            "fixture-format": "state_test",
            "eels-resolution": {
                "git-url": "https://github.com/marioevz/execution-specs.git",
                "branch": "forks/bpo1",
                "commit": "3387e5f4aedfe99becfdc39b444d6371e25e0924"
            }
        }
    },
    "tests/static/state_tests/stSystemOperationsTest/TestNameRegistratorFiller.json::TestNameRegistrator[fork_Prague-state_test-]": {
        "env": {
            "currentCoinbase": "0x2adc25665018aa1fe0e6bc666dac8fc2697ff9ba",
            "currentGasLimit": "0x0f4240",
            "currentNumber": "0x01",
            "currentTimestamp": "0x03e8",
            "currentRandom": "0x0000000000000000000000000000000000000000000000000000000000020000",
            "currentDifficulty": "0x00",
            "currentBaseFee": "0x0a",
            "currentExcessBlobGas": "0x00"
        },
        "pre": {
            "0x1cc414458902aa8fdee57cc9f1b4ba7be98c866e": {
                "nonce": "0x00",
                "balance": "0x0de0b6b3a7640000",
                "code": "0x",
                "storage": {}
            },
            "0x3a0c64d0050c2bbabd6c44fb4b906ee6c6bbc7be": {
                "nonce": "0x00",
                "balance": "0x0de0b6b3a7640000",
                "code": "0x6000355415600957005b60203560003555",
                "storage": {}
            }
        },
        "transaction": {
            "nonce": "0x00",
            "gasPrice": "0x0a",
            "gasLimit": [
                "0x0f4240"
            ],
            "to": "0x3a0c64d0050c2bbabd6c44fb4b906ee6c6bbc7be",
            "value": [
                "0x0186a0"
            ],
            "data": [
                "0xfffffffffffffffffffffffffffffffffffffffffffffffffffffffffffffffafffffffffffffffffffffffffffffffffffffffffffffffffffffffffffffffa"
            ],
            "sender": "0x1cc414458902aa8fdee57cc9f1b4ba7be98c866e",
            "secretKey": "0x36201204012d5e8ea791d2de3a0c64d0050c2bbabd6c44fb4b906ee6c6bbc7be"
        },
        "post": {
            "Prague": [
                {
                    "hash": "0xa4898388494b8d0a6291848f60965fd2fd97f0a19ea1da9096b01379da4a2781",
                    "logs": "0x1dcc4de8dec75d7aab85b567b6ccd41ad312451b948a7413f0a142fd40d49347",
                    "txbytes": "0xf8a4800a830f4240943a0c64d0050c2bbabd6c44fb4b906ee6c6bbc7be830186a0b840fffffffffffffffffffffffffffffffffffffffffffffffffffffffffffffffafffffffffffffffffffffffffffffffffffffffffffffffffffffffffffffffa26a05c2bcdd569667afe26593cf63842103cab3ed38f0568f868b05b9520d8d14c76a03fc52b434c8ff184a077fbc29ed4a4a92239219362d12896814a74515c9562c3",
                    "indexes": {
                        "data": 0,
                        "gas": 0,
                        "value": 0
                    },
                    "state": {
                        "0x1cc414458902aa8fdee57cc9f1b4ba7be98c866e": {
                            "nonce": "0x01",
                            "balance": "0x0de0b6b3a75bbc6a",
                            "code": "0x",
                            "storage": {}
                        },
                        "0x3a0c64d0050c2bbabd6c44fb4b906ee6c6bbc7be": {
                            "nonce": "0x00",
                            "balance": "0x0de0b6b3a76586a0",
                            "code": "0x6000355415600957005b60203560003555",
                            "storage": {
                                "0xfffffffffffffffffffffffffffffffffffffffffffffffffffffffffffffffa": "0xfffffffffffffffffffffffffffffffffffffffffffffffffffffffffffffffa"
                            }
                        }
                    }
                }
            ]
        },
        "config": {
            "blobSchedule": {
                "Cancun": {
                    "target": "0x03",
                    "max": "0x06",
                    "baseFeeUpdateFraction": "0x32f0ed"
                },
                "Prague": {
                    "target": "0x06",
                    "max": "0x09",
                    "baseFeeUpdateFraction": "0x4c6964"
                }
            },
            "chainid": "0x01"
        },
        "_info": {
            "hash": "0x23b974f95667b0493abdac34edfb395d92a51d2513c1c067f7877591e053b1ee",
            "comment": "`execution-spec-tests` generated test",
            "filling-transition-tool": "ethereum-spec-evm-resolver 0.0.5",
            "description": "No description available - add a docstring to the python test class or function.",
            "url": "",
            "fixture-format": "state_test",
            "eels-resolution": {
                "git-url": "https://github.com/marioevz/execution-specs.git",
                "branch": "forks/bpo1",
                "commit": "3387e5f4aedfe99becfdc39b444d6371e25e0924"
            }
        }
    }
}