{
    "tests/ported_static/stLogTests/test_log2_non_empty_mem_log_mem_size1_log_mem_start31.py::test_log2_non_empty_mem_log_mem_size1_log_mem_start31[fork_Cancun-blockchain_test_from_state_test]": {
        "network": "Cancun",
        "genesisBlockHeader": {
            "parentHash": "0x0000000000000000000000000000000000000000000000000000000000000000",
            "uncleHash": "0x1dcc4de8dec75d7aab85b567b6ccd41ad312451b948a7413f0a142fd40d49347",
            "coinbase": "0x0000000000000000000000000000000000000000",
            "stateRoot": "0x09ea8cde2954deb11fc18cf5520d864fe75e940d910e01a4352691c7c096111e",
            "transactionsTrie": "0x56e81f171bcc55a6ff8345e692c0f86e5b48e01b996cadc001622fb5e363b421",
            "receiptTrie": "0x56e81f171bcc55a6ff8345e692c0f86e5b48e01b996cadc001622fb5e363b421",
            "bloom": "0x00000000000000000000000000000000000000000000000000000000000000000000000000000000000000000000000000000000000000000000000000000000000000000000000000000000000000000000000000000000000000000000000000000000000000000000000000000000000000000000000000000000000000000000000000000000000000000000000000000000000000000000000000000000000000000000000000000000000000000000000000000000000000000000000000000000000000000000000000000000000000000000000000000000000000000000000000000000000000000000000000000000000000000000000000000000",
            "difficulty": "0x00",
            "number": "0x00",
            "gasLimit": "0x0f4240",
            "gasUsed": "0x00",
            "timestamp": "0x00",
            "extraData": "0x00",
            "mixHash": "0x0000000000000000000000000000000000000000000000000000000000000000",
            "nonce": "0x0000000000000000",
            "baseFeePerGas": "0x0b",
            "withdrawalsRoot": "0x56e81f171bcc55a6ff8345e692c0f86e5b48e01b996cadc001622fb5e363b421",
            "blobGasUsed": "0x00",
            "excessBlobGas": "0x00",
            "parentBeaconBlockRoot": "0x0000000000000000000000000000000000000000000000000000000000000000",
            "hash": "0xf3510b11adfc8accff8e55d31c79fbfa49de11802ea9dd81d2ff768a1b919e31"
        },
        "pre": {
            "0x000f3df6d732807ef1319fb7b8bb8522d0beac02": {
                "nonce": "0x01",
                "balance": "0x00",
                "code": "0x3373fffffffffffffffffffffffffffffffffffffffe14604d57602036146024575f5ffd5b5f35801560495762001fff810690815414603c575f5ffd5b62001fff01545f5260205ff35b5f5ffd5b62001fff42064281555f359062001fff015500",
                "storage": {}
            },
            "0x1e5597b6168fe79952cb2de7af91c3449bc95bd4": {
                "nonce": "0x00",
                "balance": "0x0de0b6b3a7640000",
                "code": "0x600060006000600060177354972c7257a6c4cdc7c3c144e8ccb3d8eb7afe196103e8f160005500",
                "storage": {}
            },
            "0x54972c7257a6c4cdc7c3c144e8ccb3d8eb7afe19": {
                "nonce": "0x00",
                "balance": "0x0de0b6b3a7640000",
                "code": "0x7faabbffffffffffffffffffffffffffffffffffffffffffffffffffffffffccdd600052600060006001601fa200",
                "storage": {}
            },
            "0xebaf50debf10e08302fe4280c32df010463ca297": {
                "nonce": "0x00",
                "balance": "0x0de0b6b3a7640000",
                "code": "0x",
                "storage": {}
            }
        },
        "postState": {
            "0x000f3df6d732807ef1319fb7b8bb8522d0beac02": {
                "nonce": "0x01",
                "balance": "0x00",
                "code": "0x3373fffffffffffffffffffffffffffffffffffffffe14604d57602036146024575f5ffd5b5f35801560495762001fff810690815414603c575f5ffd5b62001fff01545f5260205ff35b5f5ffd5b62001fff42064281555f359062001fff015500",
                "storage": {
                    "0x03e8": "0x03e8"
                }
            },
            "0x1e5597b6168fe79952cb2de7af91c3449bc95bd4": {
                "nonce": "0x00",
                "balance": "0x0de0b6b3a7658689",
                "code": "0x600060006000600060177354972c7257a6c4cdc7c3c144e8ccb3d8eb7afe196103e8f160005500",
                "storage": {
                    "0x00": "0x01"
                }
            },
            "0x54972c7257a6c4cdc7c3c144e8ccb3d8eb7afe19": {
                "nonce": "0x00",
                "balance": "0x0de0b6b3a7640017",
                "code": "0x7faabbffffffffffffffffffffffffffffffffffffffffffffffffffffffffccdd600052600060006001601fa200",
                "storage": {}
            },
            "0xebaf50debf10e08302fe4280c32df010463ca297": {
                "nonce": "0x01",
                "balance": "0x0de0b6b3a75a4c5e",
                "code": "0x",
                "storage": {}
            }
        },
        "lastblockhash": "0x01d2ae150a2fa3bda8be3ab9293fdc1822d3db80da8c8c21d142d95ae6e50b1a",
        "config": {
            "network": "Cancun",
            "chainid": "0x01",
            "blobSchedule": {
                "Cancun": {
                    "target": "0x03",
                    "max": "0x06",
                    "baseFeeUpdateFraction": "0x32f0ed"
                }
            }
        },
        "genesisRLP": "0xf9023bf90235a00000000000000000000000000000000000000000000000000000000000000000a01dcc4de8dec75d7aab85b567b6ccd41ad312451b948a7413f0a142fd40d49347940000000000000000000000000000000000000000a009ea8cde2954deb11fc18cf5520d864fe75e940d910e01a4352691c7c096111ea056e81f171bcc55a6ff8345e692c0f86e5b48e01b996cadc001622fb5e363b421a056e81f171bcc55a6ff8345e692c0f86e5b48e01b996cadc001622fb5e363b421b90100000000000000000000000000000000000000000000000000000000000000000000000000000000000000000000000000000000000000000000000000000000000000000000000000000000000000000000000000000000000000000000000000000000000000000000000000000000000000000000000000000000000000000000000000000000000000000000000000000000000000000000000000000000000000000000000000000000000000000000000000000000000000000000000000000000000000000000000000000000000000000000000000000000000000000000000000000000000000000000000000000000000000000000000000000000008080830f4240808000a000000000000000000000000000000000000000000000000000000000000000008800000000000000000ba056e81f171bcc55a6ff8345e692c0f86e5b48e01b996cadc001622fb5e363b4218080a00000000000000000000000000000000000000000000000000000000000000000c0c0c0",
        "blocks": [
            {
                "blockHeader": {
                    "parentHash": "0xf3510b11adfc8accff8e55d31c79fbfa49de11802ea9dd81d2ff768a1b919e31",
                    "uncleHash": "0x1dcc4de8dec75d7aab85b567b6ccd41ad312451b948a7413f0a142fd40d49347",
                    "coinbase": "0x2adc25665018aa1fe0e6bc666dac8fc2697ff9ba",
                    "stateRoot": "0x47bf0d818e6e0a3da9195b14ddca2a432170ad49c0503bea9b3c12a986aa28a4",
                    "transactionsTrie": "0x98b5d0b9f245f3f05178b228c487299e1645befd1248d28886f36279372c2f07",
                    "receiptTrie": "0xcd98cf20a30dd2854ca472fa68ef36a9a47cb038451ba49284007071465ccc00",
                    "bloom": "0x00000000000000000000000000000000000000000000000000000000000000000000000000000000000000800000000000000000000000400000000000000000000000000000000000000000000000000000000000000000000000000000000000000000020000000000000000000800000000000000000000000000000000000000000000000000000000000000000000000000000000000000000000000000000000002000000000000000000000000000000000000000000000000000000000000000000000000000000000000000000000000000000000000000000020000000000000000000000000000000000000000000000000000000000000000000",
                    "difficulty": "0x00",
                    "number": "0x01",
                    "gasLimit": "0x0f4240",
                    "gasUsed": "0xd14d",
                    "timestamp": "0x03e8",
                    "extraData": "0x00",
                    "mixHash": "0x0000000000000000000000000000000000000000000000000000000000020000",
                    "nonce": "0x0000000000000000",
                    "baseFeePerGas": "0x0a",
                    "withdrawalsRoot": "0x56e81f171bcc55a6ff8345e692c0f86e5b48e01b996cadc001622fb5e363b421",
                    "blobGasUsed": "0x00",
                    "excessBlobGas": "0x00",
                    "parentBeaconBlockRoot": "0x0000000000000000000000000000000000000000000000000000000000000000",
                    "hash": "0x01d2ae150a2fa3bda8be3ab9293fdc1822d3db80da8c8c21d142d95ae6e50b1a"
                },
                "transactions": [
                    {
                        "type": "0x00",
                        "chainId": "0x01",
                        "nonce": "0x00",
                        "gasPrice": "0x0a",
                        "gasLimit": "0x033450",
                        "to": "0x1e5597b6168fe79952cb2de7af91c3449bc95bd4",
                        "value": "0x0186a0",
                        "data": "0x",
                        "v": "0x26",
                        "r": "0x9b6dd879cc59a9db0fba100de9983f22060bfc7a371084280f4f23394c73a709",
                        "s": "0x3bd127c365fae0e030c528c21e254030afbf19bf7ef7ff511b97d7504b5fc8b2",
                        "sender": "0xebaf50debf10e08302fe4280c32df010463ca297"
                    }
                ],
                "uncleHeaders": [],
                "withdrawals": [],
                "receipts": [
                    {
                        "transactionHash": "0x8c5e70ac6644d1f826fb417f8575a1b1433eb1bbb34ff17fd09bb0e047133423",
                        "type": "0x00",
                        "cumulativeGasUsed": "0xd14d",
                        "bloom": "0x00000000000000000000000000000000000000000000000000000000000000000000000000000000000000800000000000000000000000400000000000000000000000000000000000000000000000000000000000000000000000000000000000000000020000000000000000000800000000000000000000000000000000000000000000000000000000000000000000000000000000000000000000000000000000002000000000000000000000000000000000000000000000000000000000000000000000000000000000000000000000000000000000000000000020000000000000000000000000000000000000000000000000000000000000000000",
                        "logs": [
                            {
                                "address": "0x54972c7257a6c4cdc7c3c144e8ccb3d8eb7afe19",
                                "topics": [
                                    "0x0000000000000000000000000000000000000000000000000000000000000000",
                                    "0x0000000000000000000000000000000000000000000000000000000000000000"
                                ],
                                "data": "0xdd"
                            }
                        ],
                        "status": true,
                        "rlp": "0xf901660182d14db9010000000000000000000000000000000000000000000000000000000000000000000000000000000000000000800000000000000000000000400000000000000000000000000000000000000000000000000000000000000000000000000000000000000000020000000000000000000800000000000000000000000000000000000000000000000000000000000000000000000000000000000000000000000000000000002000000000000000000000000000000000000000000000000000000000000000000000000000000000000000000000000000000000000000000020000000000000000000000000000000000000000000000000000000000000000000f85df85b9454972c7257a6c4cdc7c3c144e8ccb3d8eb7afe19f842a00000000000000000000000000000000000000000000000000000000000000000a0000000000000000000000000000000000000000000000000000000000000000081dd"
                    }
                ],
                "rlp": "0xf902a5f90239a0f3510b11adfc8accff8e55d31c79fbfa49de11802ea9dd81d2ff768a1b919e31a01dcc4de8dec75d7aab85b567b6ccd41ad312451b948a7413f0a142fd40d49347942adc25665018aa1fe0e6bc666dac8fc2697ff9baa047bf0d818e6e0a3da9195b14ddca2a432170ad49c0503bea9b3c12a986aa28a4a098b5d0b9f245f3f05178b228c487299e1645befd1248d28886f36279372c2f07a0cd98cf20a30dd2854ca472fa68ef36a9a47cb038451ba49284007071465ccc00b90100000000000000000000000000000000000000000000000000000000000000000000000000000000000000008000000000000000000000004000000000000000000000000000000000000000000000000000000000000000000000000000000000000000000200000000000000000008000000000000000000000000000000000000000000000000000000000000000000000000000000000000000000000000000000000020000000000000000000000000000000000000000000000000000000000000000000000000000000000000000000000000000000000000000000200000000000000000000000000000000000000000000000000000000000000000008001830f424082d14d8203e800a000000000000000000000000000000000000000000000000000000000000200008800000000000000000aa056e81f171bcc55a6ff8345e692c0f86e5b48e01b996cadc001622fb5e363b4218080a00000000000000000000000000000000000000000000000000000000000000000f865f863800a83033450941e5597b6168fe79952cb2de7af91c3449bc95bd4830186a08026a09b6dd879cc59a9db0fba100de9983f22060bfc7a371084280f4f23394c73a709a03bd127c365fae0e030c528c21e254030afbf19bf7ef7ff511b97d7504b5fc8b2c0c0",
                "blocknumber": "1"
            }
        ],
        "sealEngine": "NoProof",
        "_info": {
            "hash": "0xf6fecf163d992e04e3871e47119ce76dc8eab22752f1eb020bb6459a623cecb4",
            "fixture-format": "blockchain_test",
            "comment": "`execution-specs` generated test",
            "filling-transition-tool": "2.19.0",
            "description": "Test_log2_non_empty_mem_log_mem_size1_log_mem_start31.",
            "url": "https://github.com/ethereum/execution-specs/blob/tests-bal@v5.6.0/tests/ported_static/stLogTests/test_log2_non_empty_mem_log_mem_size1_log_mem_start31.py#L25",
            "metadata": {
                "opcode_count": {}
            }
        }
    }
}