{
    "tests/ported_static/stLogTests/test_log2_non_empty_mem_log_mem_size1_log_mem_start31.py::test_log2_non_empty_mem_log_mem_size1_log_mem_start31[fork_Cancun-blockchain_test_from_state_test]": {
        "network": "Cancun",
        "genesisBlockHeader": {
            "parentHash": "0x0000000000000000000000000000000000000000000000000000000000000000",
            "uncleHash": "0x1dcc4de8dec75d7aab85b567b6ccd41ad312451b948a7413f0a142fd40d49347",
            "coinbase": "0x0000000000000000000000000000000000000000",
            "stateRoot": "0x4167a3b15286ed286b21e3e31b3fef59ce5e0bae1eb6cec1c649e51611cb5436",
            "transactionsTrie": "0x56e81f171bcc55a6ff8345e692c0f86e5b48e01b996cadc001622fb5e363b421",
            "receiptTrie": "0x56e81f171bcc55a6ff8345e692c0f86e5b48e01b996cadc001622fb5e363b421",
            "bloom": "0x00000000000000000000000000000000000000000000000000000000000000000000000000000000000000000000000000000000000000000000000000000000000000000000000000000000000000000000000000000000000000000000000000000000000000000000000000000000000000000000000000000000000000000000000000000000000000000000000000000000000000000000000000000000000000000000000000000000000000000000000000000000000000000000000000000000000000000000000000000000000000000000000000000000000000000000000000000000000000000000000000000000000000000000000000000000",
            "difficulty": "0x00",
            "number": "0x00",
            "gasLimit": "0x0f4240",
            "gasUsed": "0x00",
            "timestamp": "0x00",
            "extraData": "0x00",
            "mixHash": "0x0000000000000000000000000000000000000000000000000000000000000000",
            "nonce": "0x0000000000000000",
            "baseFeePerGas": "0x0b",
            "withdrawalsRoot": "0x56e81f171bcc55a6ff8345e692c0f86e5b48e01b996cadc001622fb5e363b421",
            "blobGasUsed": "0x00",
            "excessBlobGas": "0x00",
            "parentBeaconBlockRoot": "0x0000000000000000000000000000000000000000000000000000000000000000",
            "hash": "0x87db273a0eba1fe2a64aaca7570be6d03199f579516a46a4139af443789e4b30"
        },
        "pre": {
            "0x000f3df6d732807ef1319fb7b8bb8522d0beac02": {
                "nonce": "0x01",
                "balance": "0x00",
                "code": "0x3373fffffffffffffffffffffffffffffffffffffffe14604d57602036146024575f5ffd5b5f35801560495762001fff810690815414603c575f5ffd5b62001fff01545f5260205ff35b5f5ffd5b62001fff42064281555f359062001fff015500",
                "storage": {}
            },
            "0xd66f224cbd2fabb21b17bb53c56118f32f62ebd6": {
                "nonce": "0x00",
                "balance": "0x0de0b6b3a7640000",
                "code": "0x",
                "storage": {}
            },
            "0x931d278637a9ddbe64fd613bc2ab1a65bda4ebcc": {
                "nonce": "0x00",
                "balance": "0x0de0b6b3a7640000",
                "code": "0x7faabbffffffffffffffffffffffffffffffffffffffffffffffffffffffffccdd600052600060006001601fa200",
                "storage": {}
            },
            "0x0794937d15679bf0ce2f4d525436555d023a3e4b": {
                "nonce": "0x00",
                "balance": "0x0de0b6b3a7640000",
                "code": "0x6000600060006000601773931d278637a9ddbe64fd613bc2ab1a65bda4ebcc6103e8f160005500",
                "storage": {}
            }
        },
        "postState": {
            "0x000f3df6d732807ef1319fb7b8bb8522d0beac02": {
                "nonce": "0x01",
                "balance": "0x00",
                "code": "0x3373fffffffffffffffffffffffffffffffffffffffe14604d57602036146024575f5ffd5b5f35801560495762001fff810690815414603c575f5ffd5b62001fff01545f5260205ff35b5f5ffd5b62001fff42064281555f359062001fff015500",
                "storage": {
                    "0x03e8": "0x03e8"
                }
            },
            "0xd66f224cbd2fabb21b17bb53c56118f32f62ebd6": {
                "nonce": "0x01",
                "balance": "0x0de0b6b3a75a4c5e",
                "code": "0x",
                "storage": {}
            },
            "0x931d278637a9ddbe64fd613bc2ab1a65bda4ebcc": {
                "nonce": "0x00",
                "balance": "0x0de0b6b3a7640017",
                "code": "0x7faabbffffffffffffffffffffffffffffffffffffffffffffffffffffffffccdd600052600060006001601fa200",
                "storage": {}
            },
            "0x0794937d15679bf0ce2f4d525436555d023a3e4b": {
                "nonce": "0x00",
                "balance": "0x0de0b6b3a7658689",
                "code": "0x6000600060006000601773931d278637a9ddbe64fd613bc2ab1a65bda4ebcc6103e8f160005500",
                "storage": {
                    "0x00": "0x01"
                }
            }
        },
        "lastblockhash": "0x8f9a3af4c9dc8deb41f673bde851853f9878c3410a495082f9c3dd07a2f81d12",
        "config": {
            "network": "Cancun",
            "chainid": "0x01",
            "blobSchedule": {
                "Cancun": {
                    "target": "0x03",
                    "max": "0x06",
                    "baseFeeUpdateFraction": "0x32f0ed"
                }
            }
        },
        "genesisRLP": "0xf9023bf90235a00000000000000000000000000000000000000000000000000000000000000000a01dcc4de8dec75d7aab85b567b6ccd41ad312451b948a7413f0a142fd40d49347940000000000000000000000000000000000000000a04167a3b15286ed286b21e3e31b3fef59ce5e0bae1eb6cec1c649e51611cb5436a056e81f171bcc55a6ff8345e692c0f86e5b48e01b996cadc001622fb5e363b421a056e81f171bcc55a6ff8345e692c0f86e5b48e01b996cadc001622fb5e363b421b90100000000000000000000000000000000000000000000000000000000000000000000000000000000000000000000000000000000000000000000000000000000000000000000000000000000000000000000000000000000000000000000000000000000000000000000000000000000000000000000000000000000000000000000000000000000000000000000000000000000000000000000000000000000000000000000000000000000000000000000000000000000000000000000000000000000000000000000000000000000000000000000000000000000000000000000000000000000000000000000000000000000000000000000000000000000008080830f4240808000a000000000000000000000000000000000000000000000000000000000000000008800000000000000000ba056e81f171bcc55a6ff8345e692c0f86e5b48e01b996cadc001622fb5e363b4218080a00000000000000000000000000000000000000000000000000000000000000000c0c0c0",
        "blocks": [
            {
                "blockHeader": {
                    "parentHash": "0x87db273a0eba1fe2a64aaca7570be6d03199f579516a46a4139af443789e4b30",
                    "uncleHash": "0x1dcc4de8dec75d7aab85b567b6ccd41ad312451b948a7413f0a142fd40d49347",
                    "coinbase": "0x2adc25665018aa1fe0e6bc666dac8fc2697ff9ba",
                    "stateRoot": "0x402ae54e5d823030befacb6a7b4fd673bc3bd1da299c8d0b4fb79440f9b964fe",
                    "transactionsTrie": "0x9e2eaccd9f74f85db77cf54249c7e4e1f61791cbd20c6206a25bb4aa2c3fc8be",
                    "receiptTrie": "0x1ba3f2d7b54ecce9a0449e00cb6961ae4987b5d441d1ad4d452dbd52f2f5c9be",
                    "bloom": "0x00000000000000000000000000000000000000000010000000000000000000000000000000000000000000000000000000000000000000000000000000000000000000000000000000000000000000000000000000000000000000000000000000000000020000000000000000000800000000000000000000000000000000000000000000000000000000000000000000000000000000000000000000000000000000000000000000000000000000000000000000000080000000000000000000000000000000000000000000000000000000000000000000000010000020000000000000000000000000000000000000000000000000000000000000000000",
                    "difficulty": "0x00",
                    "number": "0x01",
                    "gasLimit": "0x0f4240",
                    "gasUsed": "0xd14d",
                    "timestamp": "0x03e8",
                    "extraData": "0x00",
                    "mixHash": "0x0000000000000000000000000000000000000000000000000000000000020000",
                    "nonce": "0x0000000000000000",
                    "baseFeePerGas": "0x0a",
                    "withdrawalsRoot": "0x56e81f171bcc55a6ff8345e692c0f86e5b48e01b996cadc001622fb5e363b421",
                    "blobGasUsed": "0x00",
                    "excessBlobGas": "0x00",
                    "parentBeaconBlockRoot": "0x0000000000000000000000000000000000000000000000000000000000000000",
                    "hash": "0x8f9a3af4c9dc8deb41f673bde851853f9878c3410a495082f9c3dd07a2f81d12"
                },
                "transactions": [
                    {
                        "type": "0x00",
                        "chainId": "0x01",
                        "nonce": "0x00",
                        "gasPrice": "0x0a",
                        "gasLimit": "0x033450",
                        "to": "0x0794937d15679bf0ce2f4d525436555d023a3e4b",
                        "value": "0x0186a0",
                        "data": "0x",
                        "v": "0x25",
                        "r": "0xce59a4d9c0628f29b4e79961842b638d7171be1f14f80581e26544eebd33f618",
                        "s": "0x5bea799e038c621c20496b5122a39dc2762d0cfacb5595d538688f102a65fee8",
                        "sender": "0xd66f224cbd2fabb21b17bb53c56118f32f62ebd6"
                    }
                ],
                "uncleHeaders": [],
                "withdrawals": [],
                "receipts": [
                    {
                        "transactionHash": "0x611db1777b2a104988d480f3316b6e343993d1fba9017364688db65d8ef60955",
                        "type": "0x00",
                        "cumulativeGasUsed": "0xd14d",
                        "bloom": "0x00000000000000000000000000000000000000000010000000000000000000000000000000000000000000000000000000000000000000000000000000000000000000000000000000000000000000000000000000000000000000000000000000000000020000000000000000000800000000000000000000000000000000000000000000000000000000000000000000000000000000000000000000000000000000000000000000000000000000000000000000000080000000000000000000000000000000000000000000000000000000000000000000000010000020000000000000000000000000000000000000000000000000000000000000000000",
                        "logs": [
                            {
                                "address": "0x931d278637a9ddbe64fd613bc2ab1a65bda4ebcc",
                                "topics": [
                                    "0x0000000000000000000000000000000000000000000000000000000000000000",
                                    "0x0000000000000000000000000000000000000000000000000000000000000000"
                                ],
                                "data": "0xdd"
                            }
                        ],
                        "status": true,
                        "rlp": "0xf901660182d14db9010000000000000000000000000000000000000000000010000000000000000000000000000000000000000000000000000000000000000000000000000000000000000000000000000000000000000000000000000000000000000000000000000000000000020000000000000000000800000000000000000000000000000000000000000000000000000000000000000000000000000000000000000000000000000000000000000000000000000000000000000000000080000000000000000000000000000000000000000000000000000000000000000000000010000020000000000000000000000000000000000000000000000000000000000000000000f85df85b94931d278637a9ddbe64fd613bc2ab1a65bda4ebccf842a00000000000000000000000000000000000000000000000000000000000000000a0000000000000000000000000000000000000000000000000000000000000000081dd"
                    }
                ],
                "rlp": "0xf902a5f90239a087db273a0eba1fe2a64aaca7570be6d03199f579516a46a4139af443789e4b30a01dcc4de8dec75d7aab85b567b6ccd41ad312451b948a7413f0a142fd40d49347942adc25665018aa1fe0e6bc666dac8fc2697ff9baa0402ae54e5d823030befacb6a7b4fd673bc3bd1da299c8d0b4fb79440f9b964fea09e2eaccd9f74f85db77cf54249c7e4e1f61791cbd20c6206a25bb4aa2c3fc8bea01ba3f2d7b54ecce9a0449e00cb6961ae4987b5d441d1ad4d452dbd52f2f5c9beb90100000000000000000000000000000000000000000000100000000000000000000000000000000000000000000000000000000000000000000000000000000000000000000000000000000000000000000000000000000000000000000000000000000000000200000000000000000008000000000000000000000000000000000000000000000000000000000000000000000000000000000000000000000000000000000000000000000000000000000000000000000000800000000000000000000000000000000000000000000000000000000000000000000000100000200000000000000000000000000000000000000000000000000000000000000000008001830f424082d14d8203e800a000000000000000000000000000000000000000000000000000000000000200008800000000000000000aa056e81f171bcc55a6ff8345e692c0f86e5b48e01b996cadc001622fb5e363b4218080a00000000000000000000000000000000000000000000000000000000000000000f865f863800a83033450940794937d15679bf0ce2f4d525436555d023a3e4b830186a08025a0ce59a4d9c0628f29b4e79961842b638d7171be1f14f80581e26544eebd33f618a05bea799e038c621c20496b5122a39dc2762d0cfacb5595d538688f102a65fee8c0c0",
                "blocknumber": "1"
            }
        ],
        "sealEngine": "NoProof",
        "_info": {
            "hash": "0x7ef59bda6edc6280be9a1e93009104b22886b4065adb1c3d28bbfbcba5446fc9",
            "fixture-format": "blockchain_test",
            "comment": "`execution-specs` generated test",
            "filling-transition-tool": "2.19.0",
            "description": "Test_log2_non_empty_mem_log_mem_size1_log_mem_start31.",
            "url": "https://github.com/ethereum/execution-specs/blob/tests-snobal-devnet-5@v8037.0.0/tests/ported_static/stLogTests/test_log2_non_empty_mem_log_mem_size1_log_mem_start31.py#L24",
            "metadata": {
                "opcode_count": {}
            }
        }
    }
}