{
    "tests/constantinople/eip1052_extcodehash/test_extcodehash.py::test_codecopy_zero_in_create2[fork_Paris-blockchain_test_from_state_test]": {
        "network": "Paris",
        "genesisBlockHeader": {
            "parentHash": "0x0000000000000000000000000000000000000000000000000000000000000000",
            "uncleHash": "0x1dcc4de8dec75d7aab85b567b6ccd41ad312451b948a7413f0a142fd40d49347",
            "coinbase": "0x0000000000000000000000000000000000000000",
            "stateRoot": "0x64b8f779a6a39f621c7a65ab71f1cbe87ab581993110488b193ce39c1f8de3e4",
            "transactionsTrie": "0x56e81f171bcc55a6ff8345e692c0f86e5b48e01b996cadc001622fb5e363b421",
            "receiptTrie": "0x56e81f171bcc55a6ff8345e692c0f86e5b48e01b996cadc001622fb5e363b421",
            "bloom": "0x00000000000000000000000000000000000000000000000000000000000000000000000000000000000000000000000000000000000000000000000000000000000000000000000000000000000000000000000000000000000000000000000000000000000000000000000000000000000000000000000000000000000000000000000000000000000000000000000000000000000000000000000000000000000000000000000000000000000000000000000000000000000000000000000000000000000000000000000000000000000000000000000000000000000000000000000000000000000000000000000000000000000000000000000000000000",
            "difficulty": "0x00",
            "number": "0x00",
            "gasLimit": "0x07270e00",
            "gasUsed": "0x00",
            "timestamp": "0x00",
            "extraData": "0x00",
            "mixHash": "0x0000000000000000000000000000000000000000000000000000000000000000",
            "nonce": "0x0000000000000000",
            "baseFeePerGas": "0x07",
            "hash": "0xcf7e795e90e2e0b99197c7147de3cb05cc8fb12393a6e471e74b82d35a6184ac"
        },
        "pre": {
            "0x9cf3238346203f6b7fc82bc23d258afbe057980a": {
                "nonce": "0x01",
                "balance": "0x0de0b6b3a7640000",
                "code": "0x7f60206000600039600051605055303b605155303f60525560006000600060006060005260205162ffffff167f003061c350f23b605355602060006000303c60005160545560006000f3000000176020526000603d60006000f560005260206000f3",
                "storage": {}
            },
            "0xa028a67cf93b1fd3bbde947895e66bd05107abef": {
                "nonce": "0x01",
                "balance": "0x00",
                "code": "0x60206000600060006000739cf3238346203f6b7fc82bc23d258afbe057980a62086470f1600051600055",
                "storage": {
                    "0x00": "0xba5e"
                }
            },
            "0x1ad9bc24818784172ff393bb6f89f094d4d2ca29": {
                "nonce": "0x00",
                "balance": "0x3635c9adc5dea00000",
                "code": "0x",
                "storage": {}
            }
        },
        "postState": {
            "0x9cf3238346203f6b7fc82bc23d258afbe057980a": {
                "nonce": "0x02",
                "balance": "0x0de0b6b3a7640000",
                "code": "0x7f60206000600039600051605055303b605155303f60525560006000600060006060005260205162ffffff167f003061c350f23b605355602060006000303c60005160545560006000f3000000176020526000603d60006000f560005260206000f3",
                "storage": {}
            },
            "0xa028a67cf93b1fd3bbde947895e66bd05107abef": {
                "nonce": "0x01",
                "balance": "0x00",
                "code": "0x60206000600060006000739cf3238346203f6b7fc82bc23d258afbe057980a62086470f1600051600055",
                "storage": {
                    "0x00": "0x3c1c33408c35e7f932480912451c3e473a5ed9e5"
                }
            },
            "0x1ad9bc24818784172ff393bb6f89f094d4d2ca29": {
                "nonce": "0x01",
                "balance": "0x3635c9adc5de8ee536",
                "code": "0x",
                "storage": {}
            },
            "0x3c1c33408c35e7f932480912451c3e473a5ed9e5": {
                "nonce": "0x01",
                "balance": "0x00",
                "code": "0x",
                "storage": {
                    "0x50": "0x60206000600039600051605055303b605155303f605255600060006000600060",
                    "0x52": "0xc5d2460186f7233c927e7db2dcc703c0e500b653ca82273b7bfad8045d85a470"
                }
            },
            "0x2adc25665018aa1fe0e6bc666dac8fc2697ff9ba": {
                "nonce": "0x00",
                "balance": "0x0521a3",
                "code": "0x",
                "storage": {}
            }
        },
        "lastblockhash": "0x76736f158f76fe6c3cfe657060d92da8d6988a3c2c31ec81565f04e2afe26352",
        "config": {
            "network": "Paris",
            "chainid": "0x01"
        },
        "genesisRLP": "0xf901f7f901f2a00000000000000000000000000000000000000000000000000000000000000000a01dcc4de8dec75d7aab85b567b6ccd41ad312451b948a7413f0a142fd40d49347940000000000000000000000000000000000000000a064b8f779a6a39f621c7a65ab71f1cbe87ab581993110488b193ce39c1f8de3e4a056e81f171bcc55a6ff8345e692c0f86e5b48e01b996cadc001622fb5e363b421a056e81f171bcc55a6ff8345e692c0f86e5b48e01b996cadc001622fb5e363b421b901000000000000000000000000000000000000000000000000000000000000000000000000000000000000000000000000000000000000000000000000000000000000000000000000000000000000000000000000000000000000000000000000000000000000000000000000000000000000000000000000000000000000000000000000000000000000000000000000000000000000000000000000000000000000000000000000000000000000000000000000000000000000000000000000000000000000000000000000000000000000000000000000000000000000000000000000000000000000000000000000000000000000000000000000000000000080808407270e00808000a0000000000000000000000000000000000000000000000000000000000000000088000000000000000007c0c0",
        "blocks": [
            {
                "blockHeader": {
                    "parentHash": "0xcf7e795e90e2e0b99197c7147de3cb05cc8fb12393a6e471e74b82d35a6184ac",
                    "uncleHash": "0x1dcc4de8dec75d7aab85b567b6ccd41ad312451b948a7413f0a142fd40d49347",
                    "coinbase": "0x2adc25665018aa1fe0e6bc666dac8fc2697ff9ba",
                    "stateRoot": "0x6fb57355eccb07e3cd01eb0ad80c8d4e9b2a45e65af4d1f86a6cfdf50e9c5fa9",
                    "transactionsTrie": "0xaba4459af55530b2d8edc1cd97c2f5b838bdb35a13fa0c0f62cbca3fb0dddb56",
                    "receiptTrie": "0xd369746822db054430ffe87ec7162c122d9dcd9fd58f90519b70c0d9dae9b2f8",
                    "bloom": "0x00000000000000000000000000000000000000000000000000000000000000000000000000000000000000000000000000000000000000000000000000000000000000000000000000000000000000000000000000000000000000000000000000000000000000000000000000000000000000000000000000000000000000000000000000000000000000000000000000000000000000000000000000000000000000000000000000000000000000000000000000000000000000000000000000000000000000000000000000000000000000000000000000000000000000000000000000000000000000000000000000000000000000000000000000000000",
                    "difficulty": "0x00",
                    "number": "0x01",
                    "gasLimit": "0x07270e00",
                    "gasUsed": "0x01b5e1",
                    "timestamp": "0x03e8",
                    "extraData": "0x00",
                    "mixHash": "0x0000000000000000000000000000000000000000000000000000000000000000",
                    "nonce": "0x0000000000000000",
                    "baseFeePerGas": "0x07",
                    "hash": "0x76736f158f76fe6c3cfe657060d92da8d6988a3c2c31ec81565f04e2afe26352"
                },
                "transactions": [
                    {
                        "type": "0x00",
                        "chainId": "0x01",
                        "nonce": "0x00",
                        "gasPrice": "0x0a",
                        "gasLimit": "0x155cc0",
                        "to": "0xa028a67cf93b1fd3bbde947895e66bd05107abef",
                        "value": "0x00",
                        "data": "0x",
                        "v": "0x26",
                        "r": "0xac239189f64f90c05e30e1fea029c8f01d219e5378f2f5798e89ac8dfc8a7d7d",
                        "s": "0x6bdc99c6028da9eb19f32090b5fd5eadb09b87ace1ca1e140acc956ef6f9a2c0",
                        "sender": "0x1ad9bc24818784172ff393bb6f89f094d4d2ca29"
                    }
                ],
                "uncleHeaders": [],
                "receipts": [
                    {
                        "transactionHash": "0x9cc824afaa3b06830a295b203f98cccc0381c047fc2066bd1adbc84db813b5be",
                        "type": "0x00",
                        "cumulativeGasUsed": "0x01b5e1",
                        "bloom": "0x00000000000000000000000000000000000000000000000000000000000000000000000000000000000000000000000000000000000000000000000000000000000000000000000000000000000000000000000000000000000000000000000000000000000000000000000000000000000000000000000000000000000000000000000000000000000000000000000000000000000000000000000000000000000000000000000000000000000000000000000000000000000000000000000000000000000000000000000000000000000000000000000000000000000000000000000000000000000000000000000000000000000000000000000000000000",
                        "logs": [],
                        "status": true,
                        "rlp": "0xf90109018301b5e1b9010000000000000000000000000000000000000000000000000000000000000000000000000000000000000000000000000000000000000000000000000000000000000000000000000000000000000000000000000000000000000000000000000000000000000000000000000000000000000000000000000000000000000000000000000000000000000000000000000000000000000000000000000000000000000000000000000000000000000000000000000000000000000000000000000000000000000000000000000000000000000000000000000000000000000000000000000000000000000000000000000000000000000000000000000000000000c0"
                    }
                ],
                "rlp": "0xf9025ff901f7a0cf7e795e90e2e0b99197c7147de3cb05cc8fb12393a6e471e74b82d35a6184aca01dcc4de8dec75d7aab85b567b6ccd41ad312451b948a7413f0a142fd40d49347942adc25665018aa1fe0e6bc666dac8fc2697ff9baa06fb57355eccb07e3cd01eb0ad80c8d4e9b2a45e65af4d1f86a6cfdf50e9c5fa9a0aba4459af55530b2d8edc1cd97c2f5b838bdb35a13fa0c0f62cbca3fb0dddb56a0d369746822db054430ffe87ec7162c122d9dcd9fd58f90519b70c0d9dae9b2f8b901000000000000000000000000000000000000000000000000000000000000000000000000000000000000000000000000000000000000000000000000000000000000000000000000000000000000000000000000000000000000000000000000000000000000000000000000000000000000000000000000000000000000000000000000000000000000000000000000000000000000000000000000000000000000000000000000000000000000000000000000000000000000000000000000000000000000000000000000000000000000000000000000000000000000000000000000000000000000000000000000000000000000000000000000000000000080018407270e008301b5e18203e800a0000000000000000000000000000000000000000000000000000000000000000088000000000000000007f862f860800a83155cc094a028a67cf93b1fd3bbde947895e66bd05107abef808026a0ac239189f64f90c05e30e1fea029c8f01d219e5378f2f5798e89ac8dfc8a7d7da06bdc99c6028da9eb19f32090b5fd5eadb09b87ace1ca1e140acc956ef6f9a2c0c0",
                "blocknumber": "1"
            }
        ],
        "sealEngine": "NoProof",
        "_info": {
            "hash": "0xd417668476c464a271ed32e99543a1eddcc99e2bec2eaf308363911e1f3d9b76",
            "fixture-format": "blockchain_test",
            "comment": "`execution-specs` generated test",
            "filling-transition-tool": "2.19.0",
            "description": "Test CODECOPY inside CREATE2 initcode that deploys empty code.\n\nThe initcode does CODECOPY(0,0,32) which copies the first 32 bytes\nof the initcode itself (not the deployed code). It then checks\nEXTCODESIZE(ADDRESS) and EXTCODEHASH(ADDRESS) of self during init,\nwhich see the account as having empty code. The deployed contract\nretains the storage set during init.",
            "url": "https://github.com/ethereum/execution-specs/blob/tests-bal@v5.6.0/tests/constantinople/eip1052_extcodehash/test_extcodehash.py#L1810",
            "metadata": {
                "opcode_count": {}
            },
            "reference-spec": "https://github.com/ethereum/EIPs/blob/master/EIPS/eip-1052.md",
            "reference-spec-version": "2dcbc7ce1563e9624e137e9d447374600af876fa"
        }
    }
}