{
    "tests/constantinople/eip1052_extcodehash/test_extcodehash.py::test_extcodehash_empty_contract_creation[fork_Paris-blockchain_test_from_state_test-opcode_CREATE2]": {
        "network": "Paris",
        "genesisBlockHeader": {
            "parentHash": "0x0000000000000000000000000000000000000000000000000000000000000000",
            "uncleHash": "0x1dcc4de8dec75d7aab85b567b6ccd41ad312451b948a7413f0a142fd40d49347",
            "coinbase": "0x0000000000000000000000000000000000000000",
            "stateRoot": "0x9a66b0fbf393a637699d3a138998ea9295fce1147aa9aaf2ec1b79a184129c34",
            "transactionsTrie": "0x56e81f171bcc55a6ff8345e692c0f86e5b48e01b996cadc001622fb5e363b421",
            "receiptTrie": "0x56e81f171bcc55a6ff8345e692c0f86e5b48e01b996cadc001622fb5e363b421",
            "bloom": "0x00000000000000000000000000000000000000000000000000000000000000000000000000000000000000000000000000000000000000000000000000000000000000000000000000000000000000000000000000000000000000000000000000000000000000000000000000000000000000000000000000000000000000000000000000000000000000000000000000000000000000000000000000000000000000000000000000000000000000000000000000000000000000000000000000000000000000000000000000000000000000000000000000000000000000000000000000000000000000000000000000000000000000000000000000000000",
            "difficulty": "0x00",
            "number": "0x00",
            "gasLimit": "0x07270e00",
            "gasUsed": "0x00",
            "timestamp": "0x00",
            "extraData": "0x00",
            "mixHash": "0x0000000000000000000000000000000000000000000000000000000000000000",
            "nonce": "0x0000000000000000",
            "baseFeePerGas": "0x07",
            "hash": "0x33ebd0d6733dd445b9e74af037891333c0fe61b623253ad8a3f32434ba4874c6"
        },
        "pre": {
            "0xe2226b47f7b968da2f0d37a6ca5a35009620e9c8": {
                "nonce": "0x01",
                "balance": "0x00",
                "code": "0x7f60006000f30000000000000000000000000000000000000000000000000000006000526000600560006000f56000556000543f6001556000543b6002556020600060006000543c60005160035500",
                "storage": {
                    "0x00": "0xba5e",
                    "0x02": "0xba5e",
                    "0x03": "0xba5e"
                }
            },
            "0x1ad9bc24818784172ff393bb6f89f094d4d2ca29": {
                "nonce": "0x00",
                "balance": "0x3635c9adc5dea00000",
                "code": "0x",
                "storage": {}
            }
        },
        "postState": {
            "0xe2226b47f7b968da2f0d37a6ca5a35009620e9c8": {
                "nonce": "0x02",
                "balance": "0x00",
                "code": "0x7f60006000f30000000000000000000000000000000000000000000000000000006000526000600560006000f56000556000543f6001556000543b6002556020600060006000543c60005160035500",
                "storage": {
                    "0x00": "0x457fe62665285089d01b675f3dcc09dae7188692",
                    "0x01": "0xc5d2460186f7233c927e7db2dcc703c0e500b653ca82273b7bfad8045d85a470"
                }
            },
            "0x1ad9bc24818784172ff393bb6f89f094d4d2ca29": {
                "nonce": "0x01",
                "balance": "0x3635c9adc5de939d1a",
                "code": "0x",
                "storage": {}
            },
            "0x457fe62665285089d01b675f3dcc09dae7188692": {
                "nonce": "0x01",
                "balance": "0x00",
                "code": "0x",
                "storage": {}
            },
            "0x2adc25665018aa1fe0e6bc666dac8fc2697ff9ba": {
                "nonce": "0x00",
                "balance": "0x03b745",
                "code": "0x",
                "storage": {}
            }
        },
        "lastblockhash": "0xdb5ee2cd1b582c124931b47a214d1ed32995451d26e11dee44ddfbe471d40472",
        "config": {
            "network": "Paris",
            "chainid": "0x01"
        },
        "genesisRLP": "0xf901f7f901f2a00000000000000000000000000000000000000000000000000000000000000000a01dcc4de8dec75d7aab85b567b6ccd41ad312451b948a7413f0a142fd40d49347940000000000000000000000000000000000000000a09a66b0fbf393a637699d3a138998ea9295fce1147aa9aaf2ec1b79a184129c34a056e81f171bcc55a6ff8345e692c0f86e5b48e01b996cadc001622fb5e363b421a056e81f171bcc55a6ff8345e692c0f86e5b48e01b996cadc001622fb5e363b421b901000000000000000000000000000000000000000000000000000000000000000000000000000000000000000000000000000000000000000000000000000000000000000000000000000000000000000000000000000000000000000000000000000000000000000000000000000000000000000000000000000000000000000000000000000000000000000000000000000000000000000000000000000000000000000000000000000000000000000000000000000000000000000000000000000000000000000000000000000000000000000000000000000000000000000000000000000000000000000000000000000000000000000000000000000000000080808407270e00808000a0000000000000000000000000000000000000000000000000000000000000000088000000000000000007c0c0",
        "blocks": [
            {
                "blockHeader": {
                    "parentHash": "0x33ebd0d6733dd445b9e74af037891333c0fe61b623253ad8a3f32434ba4874c6",
                    "uncleHash": "0x1dcc4de8dec75d7aab85b567b6ccd41ad312451b948a7413f0a142fd40d49347",
                    "coinbase": "0x2adc25665018aa1fe0e6bc666dac8fc2697ff9ba",
                    "stateRoot": "0xe0e8366dbd192f10aa88a730080e1f9ee4edfe7fd4fbaeeccc5628b840b8b56a",
                    "transactionsTrie": "0x828b69ae053dfb0d89c16b56ebd584ceb78b0a0729bc8f969f70bc2527e21063",
                    "receiptTrie": "0xece63d3f81f5c9ee5f64aa67a38883cfb89f728bb44857c5fc2b1760dd76626d",
                    "bloom": "0x00000000000000000000000000000000000000000000000000000000000000000000000000000000000000000000000000000000000000000000000000000000000000000000000000000000000000000000000000000000000000000000000000000000000000000000000000000000000000000000000000000000000000000000000000000000000000000000000000000000000000000000000000000000000000000000000000000000000000000000000000000000000000000000000000000000000000000000000000000000000000000000000000000000000000000000000000000000000000000000000000000000000000000000000000000000",
                    "difficulty": "0x00",
                    "number": "0x01",
                    "gasLimit": "0x07270e00",
                    "gasUsed": "0x013d17",
                    "timestamp": "0x03e8",
                    "extraData": "0x00",
                    "mixHash": "0x0000000000000000000000000000000000000000000000000000000000000000",
                    "nonce": "0x0000000000000000",
                    "baseFeePerGas": "0x07",
                    "hash": "0xdb5ee2cd1b582c124931b47a214d1ed32995451d26e11dee44ddfbe471d40472"
                },
                "transactions": [
                    {
                        "type": "0x00",
                        "chainId": "0x01",
                        "nonce": "0x00",
                        "gasPrice": "0x0a",
                        "gasLimit": "0x061a80",
                        "to": "0xe2226b47f7b968da2f0d37a6ca5a35009620e9c8",
                        "value": "0x00",
                        "data": "0x",
                        "v": "0x25",
                        "r": "0x09c26017e3d7d9c0eb8020cd921991a78440d078a5c7b2e0bbd826a94af02891",
                        "s": "0x0ac116a53688d4192e403ed2490102063318c5acc641497cfaaee67635c4dade",
                        "sender": "0x1ad9bc24818784172ff393bb6f89f094d4d2ca29"
                    }
                ],
                "uncleHeaders": [],
                "receipts": [
                    {
                        "transactionHash": "0x0e9962e160da4df54593982f4c5bfc1551956af16edb75c572e9f553f2a495f2",
                        "type": "0x00",
                        "cumulativeGasUsed": "0x013d17",
                        "bloom": "0x00000000000000000000000000000000000000000000000000000000000000000000000000000000000000000000000000000000000000000000000000000000000000000000000000000000000000000000000000000000000000000000000000000000000000000000000000000000000000000000000000000000000000000000000000000000000000000000000000000000000000000000000000000000000000000000000000000000000000000000000000000000000000000000000000000000000000000000000000000000000000000000000000000000000000000000000000000000000000000000000000000000000000000000000000000000",
                        "logs": [],
                        "status": true,
                        "rlp": "0xf901090183013d17b9010000000000000000000000000000000000000000000000000000000000000000000000000000000000000000000000000000000000000000000000000000000000000000000000000000000000000000000000000000000000000000000000000000000000000000000000000000000000000000000000000000000000000000000000000000000000000000000000000000000000000000000000000000000000000000000000000000000000000000000000000000000000000000000000000000000000000000000000000000000000000000000000000000000000000000000000000000000000000000000000000000000000000000000000000000000000c0"
                    }
                ],
                "rlp": "0xf9025ff901f7a033ebd0d6733dd445b9e74af037891333c0fe61b623253ad8a3f32434ba4874c6a01dcc4de8dec75d7aab85b567b6ccd41ad312451b948a7413f0a142fd40d49347942adc25665018aa1fe0e6bc666dac8fc2697ff9baa0e0e8366dbd192f10aa88a730080e1f9ee4edfe7fd4fbaeeccc5628b840b8b56aa0828b69ae053dfb0d89c16b56ebd584ceb78b0a0729bc8f969f70bc2527e21063a0ece63d3f81f5c9ee5f64aa67a38883cfb89f728bb44857c5fc2b1760dd76626db901000000000000000000000000000000000000000000000000000000000000000000000000000000000000000000000000000000000000000000000000000000000000000000000000000000000000000000000000000000000000000000000000000000000000000000000000000000000000000000000000000000000000000000000000000000000000000000000000000000000000000000000000000000000000000000000000000000000000000000000000000000000000000000000000000000000000000000000000000000000000000000000000000000000000000000000000000000000000000000000000000000000000000000000000000000000080018407270e0083013d178203e800a0000000000000000000000000000000000000000000000000000000000000000088000000000000000007f862f860800a83061a8094e2226b47f7b968da2f0d37a6ca5a35009620e9c8808025a009c26017e3d7d9c0eb8020cd921991a78440d078a5c7b2e0bbd826a94af02891a00ac116a53688d4192e403ed2490102063318c5acc641497cfaaee67635c4dadec0",
                "blocknumber": "1"
            }
        ],
        "sealEngine": "NoProof",
        "_info": {
            "hash": "0x37d9ea3ecd65bb345dae98742c2e92f6ffc73285a98f89ab3edf065ec902b2a3",
            "fixture-format": "blockchain_test",
            "comment": "`execution-specs` generated test",
            "filling-transition-tool": "2.19.0",
            "description": "Test EXTCODEHASH/EXTCODESIZE for empty contracts created with\nCREATE/CREATE2.",
            "url": "https://github.com/ethereum/execution-specs/blob/tests-snobal-devnet-5@v8037.0.0/tests/constantinople/eip1052_extcodehash/test_extcodehash.py#L307",
            "metadata": {
                "opcode_count": {}
            },
            "reference-spec": "https://github.com/ethereum/EIPs/blob/master/EIPS/eip-1052.md",
            "reference-spec-version": "2dcbc7ce1563e9624e137e9d447374600af876fa"
        }
    },
    "tests/constantinople/eip1052_extcodehash/test_extcodehash.py::test_extcodehash_empty_contract_creation[fork_Paris-blockchain_test_from_state_test-opcode_CREATE]": {
        "network": "Paris",
        "genesisBlockHeader": {
            "parentHash": "0x0000000000000000000000000000000000000000000000000000000000000000",
            "uncleHash": "0x1dcc4de8dec75d7aab85b567b6ccd41ad312451b948a7413f0a142fd40d49347",
            "coinbase": "0x0000000000000000000000000000000000000000",
            "stateRoot": "0x4c986e03266e8e4dedcd85faf60dba30721c39ade3446eb871c390b517b20383",
            "transactionsTrie": "0x56e81f171bcc55a6ff8345e692c0f86e5b48e01b996cadc001622fb5e363b421",
            "receiptTrie": "0x56e81f171bcc55a6ff8345e692c0f86e5b48e01b996cadc001622fb5e363b421",
            "bloom": "0x00000000000000000000000000000000000000000000000000000000000000000000000000000000000000000000000000000000000000000000000000000000000000000000000000000000000000000000000000000000000000000000000000000000000000000000000000000000000000000000000000000000000000000000000000000000000000000000000000000000000000000000000000000000000000000000000000000000000000000000000000000000000000000000000000000000000000000000000000000000000000000000000000000000000000000000000000000000000000000000000000000000000000000000000000000000",
            "difficulty": "0x00",
            "number": "0x00",
            "gasLimit": "0x07270e00",
            "gasUsed": "0x00",
            "timestamp": "0x00",
            "extraData": "0x00",
            "mixHash": "0x0000000000000000000000000000000000000000000000000000000000000000",
            "nonce": "0x0000000000000000",
            "baseFeePerGas": "0x07",
            "hash": "0x4966a1dfcc2b1f16f3d4d22b6d3cc715c660d93cfb9cfe6047d0a08c5b9515ea"
        },
        "pre": {
            "0x0143f2db9db6ab9bb3d2629c13996a491f2c8867": {
                "nonce": "0x01",
                "balance": "0x00",
                "code": "0x7f60006000f3000000000000000000000000000000000000000000000000000000600052600560006000f06000556000543f6001556000543b6002556020600060006000543c60005160035500",
                "storage": {
                    "0x00": "0xba5e",
                    "0x02": "0xba5e",
                    "0x03": "0xba5e"
                }
            },
            "0x1ad9bc24818784172ff393bb6f89f094d4d2ca29": {
                "nonce": "0x00",
                "balance": "0x3635c9adc5dea00000",
                "code": "0x",
                "storage": {}
            }
        },
        "postState": {
            "0x0143f2db9db6ab9bb3d2629c13996a491f2c8867": {
                "nonce": "0x02",
                "balance": "0x00",
                "code": "0x7f60006000f3000000000000000000000000000000000000000000000000000000600052600560006000f06000556000543f6001556000543b6002556020600060006000543c60005160035500",
                "storage": {
                    "0x00": "0x3385fb91b73fbdf2ef74bd49db9ec8b5190e7672",
                    "0x01": "0xc5d2460186f7233c927e7db2dcc703c0e500b653ca82273b7bfad8045d85a470"
                }
            },
            "0x1ad9bc24818784172ff393bb6f89f094d4d2ca29": {
                "nonce": "0x01",
                "balance": "0x3635c9adc5de939d74",
                "code": "0x",
                "storage": {}
            },
            "0x3385fb91b73fbdf2ef74bd49db9ec8b5190e7672": {
                "nonce": "0x01",
                "balance": "0x00",
                "code": "0x",
                "storage": {}
            },
            "0x2adc25665018aa1fe0e6bc666dac8fc2697ff9ba": {
                "nonce": "0x00",
                "balance": "0x03b72a",
                "code": "0x",
                "storage": {}
            }
        },
        "lastblockhash": "0x4c4839ce616ba9c5170dd2f4d3d407b8da232ec08a3ffe81fd012ce14317648d",
        "config": {
            "network": "Paris",
            "chainid": "0x01"
        },
        "genesisRLP": "0xf901f7f901f2a00000000000000000000000000000000000000000000000000000000000000000a01dcc4de8dec75d7aab85b567b6ccd41ad312451b948a7413f0a142fd40d49347940000000000000000000000000000000000000000a04c986e03266e8e4dedcd85faf60dba30721c39ade3446eb871c390b517b20383a056e81f171bcc55a6ff8345e692c0f86e5b48e01b996cadc001622fb5e363b421a056e81f171bcc55a6ff8345e692c0f86e5b48e01b996cadc001622fb5e363b421b901000000000000000000000000000000000000000000000000000000000000000000000000000000000000000000000000000000000000000000000000000000000000000000000000000000000000000000000000000000000000000000000000000000000000000000000000000000000000000000000000000000000000000000000000000000000000000000000000000000000000000000000000000000000000000000000000000000000000000000000000000000000000000000000000000000000000000000000000000000000000000000000000000000000000000000000000000000000000000000000000000000000000000000000000000000000080808407270e00808000a0000000000000000000000000000000000000000000000000000000000000000088000000000000000007c0c0",
        "blocks": [
            {
                "blockHeader": {
                    "parentHash": "0x4966a1dfcc2b1f16f3d4d22b6d3cc715c660d93cfb9cfe6047d0a08c5b9515ea",
                    "uncleHash": "0x1dcc4de8dec75d7aab85b567b6ccd41ad312451b948a7413f0a142fd40d49347",
                    "coinbase": "0x2adc25665018aa1fe0e6bc666dac8fc2697ff9ba",
                    "stateRoot": "0x87544739ab6d38f3b302677a33d5f9b0c0425cecfea9a2925db5e2688a0e68fa",
                    "transactionsTrie": "0x9f6b91da20a25226a1d914ee4d8bc2d91e3a1e91d61f5087df68c1d70a647c92",
                    "receiptTrie": "0x9ee025d5e954cde4b35b92ae89d25e9d1f7157beea5fb70ae31ea9951797716e",
                    "bloom": "0x00000000000000000000000000000000000000000000000000000000000000000000000000000000000000000000000000000000000000000000000000000000000000000000000000000000000000000000000000000000000000000000000000000000000000000000000000000000000000000000000000000000000000000000000000000000000000000000000000000000000000000000000000000000000000000000000000000000000000000000000000000000000000000000000000000000000000000000000000000000000000000000000000000000000000000000000000000000000000000000000000000000000000000000000000000000",
                    "difficulty": "0x00",
                    "number": "0x01",
                    "gasLimit": "0x07270e00",
                    "gasUsed": "0x013d0e",
                    "timestamp": "0x03e8",
                    "extraData": "0x00",
                    "mixHash": "0x0000000000000000000000000000000000000000000000000000000000000000",
                    "nonce": "0x0000000000000000",
                    "baseFeePerGas": "0x07",
                    "hash": "0x4c4839ce616ba9c5170dd2f4d3d407b8da232ec08a3ffe81fd012ce14317648d"
                },
                "transactions": [
                    {
                        "type": "0x00",
                        "chainId": "0x01",
                        "nonce": "0x00",
                        "gasPrice": "0x0a",
                        "gasLimit": "0x061a80",
                        "to": "0x0143f2db9db6ab9bb3d2629c13996a491f2c8867",
                        "value": "0x00",
                        "data": "0x",
                        "v": "0x26",
                        "r": "0xf37754891afcc051d26cc672f85320b3f8d5dc3892e7f689b094064ce472023a",
                        "s": "0x169df9a056e9420440fa90ec0e664133fa332e84530c43a0b46f83546a2dc1e6",
                        "sender": "0x1ad9bc24818784172ff393bb6f89f094d4d2ca29"
                    }
                ],
                "uncleHeaders": [],
                "receipts": [
                    {
                        "transactionHash": "0x6bb3115c1a2b5ab700ac71447b2d560ac7838ee3dd4670424a8302f79ea57162",
                        "type": "0x00",
                        "cumulativeGasUsed": "0x013d0e",
                        "bloom": "0x00000000000000000000000000000000000000000000000000000000000000000000000000000000000000000000000000000000000000000000000000000000000000000000000000000000000000000000000000000000000000000000000000000000000000000000000000000000000000000000000000000000000000000000000000000000000000000000000000000000000000000000000000000000000000000000000000000000000000000000000000000000000000000000000000000000000000000000000000000000000000000000000000000000000000000000000000000000000000000000000000000000000000000000000000000000",
                        "logs": [],
                        "status": true,
                        "rlp": "0xf901090183013d0eb9010000000000000000000000000000000000000000000000000000000000000000000000000000000000000000000000000000000000000000000000000000000000000000000000000000000000000000000000000000000000000000000000000000000000000000000000000000000000000000000000000000000000000000000000000000000000000000000000000000000000000000000000000000000000000000000000000000000000000000000000000000000000000000000000000000000000000000000000000000000000000000000000000000000000000000000000000000000000000000000000000000000000000000000000000000000000c0"
                    }
                ],
                "rlp": "0xf9025ff901f7a04966a1dfcc2b1f16f3d4d22b6d3cc715c660d93cfb9cfe6047d0a08c5b9515eaa01dcc4de8dec75d7aab85b567b6ccd41ad312451b948a7413f0a142fd40d49347942adc25665018aa1fe0e6bc666dac8fc2697ff9baa087544739ab6d38f3b302677a33d5f9b0c0425cecfea9a2925db5e2688a0e68faa09f6b91da20a25226a1d914ee4d8bc2d91e3a1e91d61f5087df68c1d70a647c92a09ee025d5e954cde4b35b92ae89d25e9d1f7157beea5fb70ae31ea9951797716eb901000000000000000000000000000000000000000000000000000000000000000000000000000000000000000000000000000000000000000000000000000000000000000000000000000000000000000000000000000000000000000000000000000000000000000000000000000000000000000000000000000000000000000000000000000000000000000000000000000000000000000000000000000000000000000000000000000000000000000000000000000000000000000000000000000000000000000000000000000000000000000000000000000000000000000000000000000000000000000000000000000000000000000000000000000000000080018407270e0083013d0e8203e800a0000000000000000000000000000000000000000000000000000000000000000088000000000000000007f862f860800a83061a80940143f2db9db6ab9bb3d2629c13996a491f2c8867808026a0f37754891afcc051d26cc672f85320b3f8d5dc3892e7f689b094064ce472023aa0169df9a056e9420440fa90ec0e664133fa332e84530c43a0b46f83546a2dc1e6c0",
                "blocknumber": "1"
            }
        ],
        "sealEngine": "NoProof",
        "_info": {
            "hash": "0xdff52eaf32f279bb03ffb69dfd7bbb11712afa1dfe3eecc405a2ff543366ea68",
            "fixture-format": "blockchain_test",
            "comment": "`execution-specs` generated test",
            "filling-transition-tool": "2.19.0",
            "description": "Test EXTCODEHASH/EXTCODESIZE for empty contracts created with\nCREATE/CREATE2.",
            "url": "https://github.com/ethereum/execution-specs/blob/tests-snobal-devnet-5@v8037.0.0/tests/constantinople/eip1052_extcodehash/test_extcodehash.py#L307",
            "metadata": {
                "opcode_count": {}
            },
            "reference-spec": "https://github.com/ethereum/EIPs/blob/master/EIPS/eip-1052.md",
            "reference-spec-version": "2dcbc7ce1563e9624e137e9d447374600af876fa"
        }
    }
}