{
    "tests/constantinople/eip1052_extcodehash/test_extcodehash.py::test_extcodehash_created_and_deleted_recheck_outer[fork_Paris-blockchain_test_from_state_test]": {
        "network": "Paris",
        "genesisBlockHeader": {
            "parentHash": "0x0000000000000000000000000000000000000000000000000000000000000000",
            "uncleHash": "0x1dcc4de8dec75d7aab85b567b6ccd41ad312451b948a7413f0a142fd40d49347",
            "coinbase": "0x0000000000000000000000000000000000000000",
            "stateRoot": "0x0b127dea7456082619b276a963d2a1ee0044f54fc711a990b433265c667e727c",
            "transactionsTrie": "0x56e81f171bcc55a6ff8345e692c0f86e5b48e01b996cadc001622fb5e363b421",
            "receiptTrie": "0x56e81f171bcc55a6ff8345e692c0f86e5b48e01b996cadc001622fb5e363b421",
            "bloom": "0x00000000000000000000000000000000000000000000000000000000000000000000000000000000000000000000000000000000000000000000000000000000000000000000000000000000000000000000000000000000000000000000000000000000000000000000000000000000000000000000000000000000000000000000000000000000000000000000000000000000000000000000000000000000000000000000000000000000000000000000000000000000000000000000000000000000000000000000000000000000000000000000000000000000000000000000000000000000000000000000000000000000000000000000000000000000",
            "difficulty": "0x00",
            "number": "0x00",
            "gasLimit": "0x07270e00",
            "gasUsed": "0x00",
            "timestamp": "0x00",
            "extraData": "0x00",
            "mixHash": "0x0000000000000000000000000000000000000000000000000000000000000000",
            "nonce": "0x0000000000000000",
            "baseFeePerGas": "0x07",
            "hash": "0x56310afd8877a258aa2b248062e391025b491f8e16a89b7f4c9d3ebb5348daf8"
        },
        "pre": {
            "0x852814b6e9bdf4c2b9cec1618c86c021ce91ab36": {
                "nonce": "0x01",
                "balance": "0x00",
                "code": "0x60005171ffffffffffffffffffffffffffffffffffff167f610003600081600b8239f36000ff000000000000000000000000000000000000176000526010600e60006000f56000556000543f6001556000543b6002556020600060006000543c600051600355600060006000600060006000545af1506000543f6004556000543b6005556020600060006000543c600051600655",
                "storage": {
                    "0x00": "0xba5e"
                }
            },
            "0x56ce700347f64f76fef7fdbb8c6dc0814e9d7188": {
                "nonce": "0x01",
                "balance": "0x00",
                "code": "0x6000600060006000600073852814b6e9bdf4c2b9cec1618c86c021ce91ab365af15073ec9f4083805782c90886f2e17d3f54dc38bca5b83f60005573ec9f4083805782c90886f2e17d3f54dc38bca5b83b60015560206000600073ec9f4083805782c90886f2e17d3f54dc38bca5b83c600051600255",
                "storage": {}
            },
            "0x1ad9bc24818784172ff393bb6f89f094d4d2ca29": {
                "nonce": "0x00",
                "balance": "0x3635c9adc5dea00000",
                "code": "0x",
                "storage": {}
            }
        },
        "postState": {
            "0x852814b6e9bdf4c2b9cec1618c86c021ce91ab36": {
                "nonce": "0x02",
                "balance": "0x00",
                "code": "0x60005171ffffffffffffffffffffffffffffffffffff167f610003600081600b8239f36000ff000000000000000000000000000000000000176000526010600e60006000f56000556000543f6001556000543b6002556020600060006000543c600051600355600060006000600060006000545af1506000543f6004556000543b6005556020600060006000543c600051600655",
                "storage": {
                    "0x00": "0xec9f4083805782c90886f2e17d3f54dc38bca5b8",
                    "0x01": "0x396daaf3a7871f857cc9b5878c6bb66c394a6d109706095617db9f4e4c22edcd",
                    "0x02": "0x03",
                    "0x03": "0x6000ff0000000000000000000000000000000000000000000000000000000000",
                    "0x04": "0x396daaf3a7871f857cc9b5878c6bb66c394a6d109706095617db9f4e4c22edcd",
                    "0x05": "0x03",
                    "0x06": "0x6000ff0000000000000000000000000000000000000000000000000000000000"
                }
            },
            "0x56ce700347f64f76fef7fdbb8c6dc0814e9d7188": {
                "nonce": "0x01",
                "balance": "0x00",
                "code": "0x6000600060006000600073852814b6e9bdf4c2b9cec1618c86c021ce91ab365af15073ec9f4083805782c90886f2e17d3f54dc38bca5b83f60005573ec9f4083805782c90886f2e17d3f54dc38bca5b83b60015560206000600073ec9f4083805782c90886f2e17d3f54dc38bca5b83c600051600255",
                "storage": {
                    "0x00": "0x396daaf3a7871f857cc9b5878c6bb66c394a6d109706095617db9f4e4c22edcd",
                    "0x01": "0x03",
                    "0x02": "0x6000ff0000000000000000000000000000000000000000000000000000000000"
                }
            },
            "0x1ad9bc24818784172ff393bb6f89f094d4d2ca29": {
                "nonce": "0x01",
                "balance": "0x3635c9adc5de76db94",
                "code": "0x",
                "storage": {}
            },
            "0x2adc25665018aa1fe0e6bc666dac8fc2697ff9ba": {
                "nonce": "0x00",
                "balance": "0x0c57ba",
                "code": "0x",
                "storage": {}
            }
        },
        "lastblockhash": "0x5ca7752fb282fca06b82997d14cb0f167b190cbb146412d4cf38996f9628b5f9",
        "config": {
            "network": "Paris",
            "chainid": "0x01"
        },
        "genesisRLP": "0xf901f7f901f2a00000000000000000000000000000000000000000000000000000000000000000a01dcc4de8dec75d7aab85b567b6ccd41ad312451b948a7413f0a142fd40d49347940000000000000000000000000000000000000000a00b127dea7456082619b276a963d2a1ee0044f54fc711a990b433265c667e727ca056e81f171bcc55a6ff8345e692c0f86e5b48e01b996cadc001622fb5e363b421a056e81f171bcc55a6ff8345e692c0f86e5b48e01b996cadc001622fb5e363b421b901000000000000000000000000000000000000000000000000000000000000000000000000000000000000000000000000000000000000000000000000000000000000000000000000000000000000000000000000000000000000000000000000000000000000000000000000000000000000000000000000000000000000000000000000000000000000000000000000000000000000000000000000000000000000000000000000000000000000000000000000000000000000000000000000000000000000000000000000000000000000000000000000000000000000000000000000000000000000000000000000000000000000000000000000000000000080808407270e00808000a0000000000000000000000000000000000000000000000000000000000000000088000000000000000007c0c0",
        "blocks": [
            {
                "blockHeader": {
                    "parentHash": "0x56310afd8877a258aa2b248062e391025b491f8e16a89b7f4c9d3ebb5348daf8",
                    "uncleHash": "0x1dcc4de8dec75d7aab85b567b6ccd41ad312451b948a7413f0a142fd40d49347",
                    "coinbase": "0x2adc25665018aa1fe0e6bc666dac8fc2697ff9ba",
                    "stateRoot": "0x4a43d05c4386dd7fcaddf9860572964360d5eddc5c5e1fd8e52ea909bd69b151",
                    "transactionsTrie": "0x9e731c591198c04581c1a434d5be393066d3390cc00e3411040a015c31997cf2",
                    "receiptTrie": "0x393125b1afebe4f1c326060a2560e08006fca016c44191ede9f435b80d690ae2",
                    "bloom": "0x00000000000000000000000000000000000000000000000000000000000000000000000000000000000000000000000000000000000000000000000000000000000000000000000000000000000000000000000000000000000000000000000000000000000000000000000000000000000000000000000000000000000000000000000000000000000000000000000000000000000000000000000000000000000000000000000000000000000000000000000000000000000000000000000000000000000000000000000000000000000000000000000000000000000000000000000000000000000000000000000000000000000000000000000000000000",
                    "difficulty": "0x00",
                    "number": "0x01",
                    "gasLimit": "0x07270e00",
                    "gasUsed": "0x041d3e",
                    "timestamp": "0x03e8",
                    "extraData": "0x00",
                    "mixHash": "0x0000000000000000000000000000000000000000000000000000000000000000",
                    "nonce": "0x0000000000000000",
                    "baseFeePerGas": "0x07",
                    "hash": "0x5ca7752fb282fca06b82997d14cb0f167b190cbb146412d4cf38996f9628b5f9"
                },
                "transactions": [
                    {
                        "type": "0x00",
                        "chainId": "0x01",
                        "nonce": "0x00",
                        "gasPrice": "0x0a",
                        "gasLimit": "0x061a80",
                        "to": "0x56ce700347f64f76fef7fdbb8c6dc0814e9d7188",
                        "value": "0x00",
                        "data": "0x",
                        "v": "0x25",
                        "r": "0x6cff641862c0f7f407b6ad002a32e8feeb5877383c6be45e6accb165c580662d",
                        "s": "0x1f40827b83909e795d1b1edee506e725bfe0bc9b8128a0e586692fb57eec5094",
                        "sender": "0x1ad9bc24818784172ff393bb6f89f094d4d2ca29"
                    }
                ],
                "uncleHeaders": [],
                "receipts": [
                    {
                        "transactionHash": "0xb99690cfb75f9ca6f505dd1c23e03d0b0c6b7ebd9f000fb956d0deb4c186aa0e",
                        "type": "0x00",
                        "cumulativeGasUsed": "0x041d3e",
                        "bloom": "0x00000000000000000000000000000000000000000000000000000000000000000000000000000000000000000000000000000000000000000000000000000000000000000000000000000000000000000000000000000000000000000000000000000000000000000000000000000000000000000000000000000000000000000000000000000000000000000000000000000000000000000000000000000000000000000000000000000000000000000000000000000000000000000000000000000000000000000000000000000000000000000000000000000000000000000000000000000000000000000000000000000000000000000000000000000000",
                        "logs": [],
                        "status": true,
                        "rlp": "0xf901090183041d3eb9010000000000000000000000000000000000000000000000000000000000000000000000000000000000000000000000000000000000000000000000000000000000000000000000000000000000000000000000000000000000000000000000000000000000000000000000000000000000000000000000000000000000000000000000000000000000000000000000000000000000000000000000000000000000000000000000000000000000000000000000000000000000000000000000000000000000000000000000000000000000000000000000000000000000000000000000000000000000000000000000000000000000000000000000000000000000c0"
                    }
                ],
                "rlp": "0xf9025ff901f7a056310afd8877a258aa2b248062e391025b491f8e16a89b7f4c9d3ebb5348daf8a01dcc4de8dec75d7aab85b567b6ccd41ad312451b948a7413f0a142fd40d49347942adc25665018aa1fe0e6bc666dac8fc2697ff9baa04a43d05c4386dd7fcaddf9860572964360d5eddc5c5e1fd8e52ea909bd69b151a09e731c591198c04581c1a434d5be393066d3390cc00e3411040a015c31997cf2a0393125b1afebe4f1c326060a2560e08006fca016c44191ede9f435b80d690ae2b901000000000000000000000000000000000000000000000000000000000000000000000000000000000000000000000000000000000000000000000000000000000000000000000000000000000000000000000000000000000000000000000000000000000000000000000000000000000000000000000000000000000000000000000000000000000000000000000000000000000000000000000000000000000000000000000000000000000000000000000000000000000000000000000000000000000000000000000000000000000000000000000000000000000000000000000000000000000000000000000000000000000000000000000000000000000080018407270e0083041d3e8203e800a0000000000000000000000000000000000000000000000000000000000000000088000000000000000007f862f860800a83061a809456ce700347f64f76fef7fdbb8c6dc0814e9d7188808025a06cff641862c0f7f407b6ad002a32e8feeb5877383c6be45e6accb165c580662da01f40827b83909e795d1b1edee506e725bfe0bc9b8128a0e586692fb57eec5094c0",
                "blocknumber": "1"
            }
        ],
        "sealEngine": "NoProof",
        "_info": {
            "hash": "0xc1f2b3e6028511bfb1ba8f48824705753dfa61a4f970ebdb6ecc8ef10d8d6045",
            "fixture-format": "blockchain_test",
            "comment": "`execution-specs` generated test",
            "filling-transition-tool": "2.19.0",
            "description": "Test EXTCODEHASH of a created-and-selfdestructed account rechecked\nfrom an outer call frame.\n\nOuter contract CALLs inner, which CREATE2s a contract with\nSELFDESTRUCT code then triggers it. After inner returns, outer\nre-checks EXTCODEHASH and EXTCODESIZE of the created address.\nWithin the transaction all checks return the original code hash\nand size. The created contract is deleted at end of transaction.",
            "url": "https://github.com/ethereum/execution-specs/blob/tests-bal@v5.7.0/tests/constantinople/eip1052_extcodehash/test_extcodehash.py#L1485",
            "metadata": {
                "opcode_count": {}
            },
            "reference-spec": "https://github.com/ethereum/EIPs/blob/master/EIPS/eip-1052.md",
            "reference-spec-version": "2dcbc7ce1563e9624e137e9d447374600af876fa"
        }
    }
}