{
    "tests/ported_static/stMemoryTest/test_mem32kb_single_byte_minus_33.py::test_mem32kb_single_byte_minus_33[fork_Cancun-blockchain_test_from_state_test]": {
        "network": "Cancun",
        "genesisBlockHeader": {
            "parentHash": "0x0000000000000000000000000000000000000000000000000000000000000000",
            "uncleHash": "0x1dcc4de8dec75d7aab85b567b6ccd41ad312451b948a7413f0a142fd40d49347",
            "coinbase": "0x0000000000000000000000000000000000000000",
            "stateRoot": "0xf5e0714345e05fb148fbc86d601c82c2bd26ddad96855f596ba5552ae6543baa",
            "transactionsTrie": "0x56e81f171bcc55a6ff8345e692c0f86e5b48e01b996cadc001622fb5e363b421",
            "receiptTrie": "0x56e81f171bcc55a6ff8345e692c0f86e5b48e01b996cadc001622fb5e363b421",
            "bloom": "0x00000000000000000000000000000000000000000000000000000000000000000000000000000000000000000000000000000000000000000000000000000000000000000000000000000000000000000000000000000000000000000000000000000000000000000000000000000000000000000000000000000000000000000000000000000000000000000000000000000000000000000000000000000000000000000000000000000000000000000000000000000000000000000000000000000000000000000000000000000000000000000000000000000000000000000000000000000000000000000000000000000000000000000000000000000000",
            "difficulty": "0x00",
            "number": "0x00",
            "gasLimit": "0x07270e00",
            "gasUsed": "0x00",
            "timestamp": "0x00",
            "extraData": "0x00",
            "mixHash": "0x0000000000000000000000000000000000000000000000000000000000000000",
            "nonce": "0x0000000000000000",
            "baseFeePerGas": "0x0b",
            "withdrawalsRoot": "0x56e81f171bcc55a6ff8345e692c0f86e5b48e01b996cadc001622fb5e363b421",
            "blobGasUsed": "0x00",
            "excessBlobGas": "0x00",
            "parentBeaconBlockRoot": "0x0000000000000000000000000000000000000000000000000000000000000000",
            "hash": "0xdc9b8ee81af5004fbe4c5bbe76a0a24cdaeaf6839b5807d5b5cdc749b6faa1ec"
        },
        "pre": {
            "0x000f3df6d732807ef1319fb7b8bb8522d0beac02": {
                "nonce": "0x01",
                "balance": "0x00",
                "code": "0x3373fffffffffffffffffffffffffffffffffffffffe14604d57602036146024575f5ffd5b5f35801560495762001fff810690815414603c575f5ffd5b62001fff01545f5260205ff35b5f5ffd5b62001fff42064281555f359062001fff015500",
                "storage": {}
            },
            "0x6d7e35221d9d5f6e4a2b09ed59e10f64ca3c2257": {
                "nonce": "0x00",
                "balance": "0x0de0b6b3a7640000",
                "code": "0x602a617cde535960005500",
                "storage": {}
            },
            "0xc102734f6a1e4747310179c0a0fc16e674aa901d": {
                "nonce": "0x00",
                "balance": "0x6400000000",
                "code": "0x",
                "storage": {}
            }
        },
        "postState": {
            "0x000f3df6d732807ef1319fb7b8bb8522d0beac02": {
                "nonce": "0x01",
                "balance": "0x00",
                "code": "0x3373fffffffffffffffffffffffffffffffffffffffe14604d57602036146024575f5ffd5b5f35801560495762001fff810690815414603c575f5ffd5b62001fff01545f5260205ff35b5f5ffd5b62001fff42064281555f359062001fff015500",
                "storage": {
                    "0x03e8": "0x03e8"
                }
            },
            "0x6d7e35221d9d5f6e4a2b09ed59e10f64ca3c2257": {
                "nonce": "0x00",
                "balance": "0x0de0b6b3a764000a",
                "code": "0x602a617cde535960005500",
                "storage": {
                    "0x00": "0x7ce0"
                }
            },
            "0xc102734f6a1e4747310179c0a0fc16e674aa901d": {
                "nonce": "0x01",
                "balance": "0x63fff8aa9e",
                "code": "0x",
                "storage": {}
            }
        },
        "lastblockhash": "0xec4460cbcd432ea8fd5233fe236f02408aa4ee7dc7a4aca022a3ba32d99f4cc7",
        "config": {
            "network": "Cancun",
            "chainid": "0x01",
            "blobSchedule": {
                "Cancun": {
                    "target": "0x03",
                    "max": "0x06",
                    "baseFeeUpdateFraction": "0x32f0ed"
                }
            }
        },
        "genesisRLP": "0xf9023cf90236a00000000000000000000000000000000000000000000000000000000000000000a01dcc4de8dec75d7aab85b567b6ccd41ad312451b948a7413f0a142fd40d49347940000000000000000000000000000000000000000a0f5e0714345e05fb148fbc86d601c82c2bd26ddad96855f596ba5552ae6543baaa056e81f171bcc55a6ff8345e692c0f86e5b48e01b996cadc001622fb5e363b421a056e81f171bcc55a6ff8345e692c0f86e5b48e01b996cadc001622fb5e363b421b901000000000000000000000000000000000000000000000000000000000000000000000000000000000000000000000000000000000000000000000000000000000000000000000000000000000000000000000000000000000000000000000000000000000000000000000000000000000000000000000000000000000000000000000000000000000000000000000000000000000000000000000000000000000000000000000000000000000000000000000000000000000000000000000000000000000000000000000000000000000000000000000000000000000000000000000000000000000000000000000000000000000000000000000000000000000080808407270e00808000a000000000000000000000000000000000000000000000000000000000000000008800000000000000000ba056e81f171bcc55a6ff8345e692c0f86e5b48e01b996cadc001622fb5e363b4218080a00000000000000000000000000000000000000000000000000000000000000000c0c0c0",
        "blocks": [
            {
                "blockHeader": {
                    "parentHash": "0xdc9b8ee81af5004fbe4c5bbe76a0a24cdaeaf6839b5807d5b5cdc749b6faa1ec",
                    "uncleHash": "0x1dcc4de8dec75d7aab85b567b6ccd41ad312451b948a7413f0a142fd40d49347",
                    "coinbase": "0x2adc25665018aa1fe0e6bc666dac8fc2697ff9ba",
                    "stateRoot": "0xb2120cacf80ef11099a4171d8e1c05f037abddbfadd2d9c6c8324d21ae9af4c8",
                    "transactionsTrie": "0x2ff3f1d58a8068bd0911e5233869be430348c767d03b5649aed491bfb40ee763",
                    "receiptTrie": "0xe11cb5f4546dfe0878cd620823822b5c416c23d3d7848448f20b902d6e42c334",
                    "bloom": "0x00000000000000000000000000000000000000000000000000000000000000000000000000000000000000000000000000000000000000000000000000000000000000000000000000000000000000000000000000000000000000000000000000000000000000000000000000000000000000000000000000000000000000000000000000000000000000000000000000000000000000000000000000000000000000000000000000000000000000000000000000000000000000000000000000000000000000000000000000000000000000000000000000000000000000000000000000000000000000000000000000000000000000000000000000000000",
                    "difficulty": "0x00",
                    "number": "0x01",
                    "gasLimit": "0x07270e00",
                    "gasUsed": "0xbbbc",
                    "timestamp": "0x03e8",
                    "extraData": "0x00",
                    "mixHash": "0x0000000000000000000000000000000000000000000000000000000000020000",
                    "nonce": "0x0000000000000000",
                    "baseFeePerGas": "0x0a",
                    "withdrawalsRoot": "0x56e81f171bcc55a6ff8345e692c0f86e5b48e01b996cadc001622fb5e363b421",
                    "blobGasUsed": "0x00",
                    "excessBlobGas": "0x00",
                    "parentBeaconBlockRoot": "0x0000000000000000000000000000000000000000000000000000000000000000",
                    "hash": "0xec4460cbcd432ea8fd5233fe236f02408aa4ee7dc7a4aca022a3ba32d99f4cc7"
                },
                "transactions": [
                    {
                        "type": "0x00",
                        "chainId": "0x01",
                        "nonce": "0x00",
                        "gasPrice": "0x0a",
                        "gasLimit": "0x0186a0",
                        "to": "0x6d7e35221d9d5f6e4a2b09ed59e10f64ca3c2257",
                        "value": "0x0a",
                        "data": "0x",
                        "v": "0x25",
                        "r": "0x03cf3d20b0a401ecb9d327b5f9a1c504cfdc4093288cc27155d88a19d9e3d19d",
                        "s": "0x420ad2c6c9113c09144f9ab426733772a32ce59e74796932a4ec90e28c006186",
                        "sender": "0xc102734f6a1e4747310179c0a0fc16e674aa901d"
                    }
                ],
                "uncleHeaders": [],
                "withdrawals": [],
                "receipts": [
                    {
                        "transactionHash": "0x019cf68f188c2cbfa1140321834ae3438fe2fe94e3dfc289071bc2f624173770",
                        "type": "0x00",
                        "cumulativeGasUsed": "0xbbbc",
                        "bloom": "0x00000000000000000000000000000000000000000000000000000000000000000000000000000000000000000000000000000000000000000000000000000000000000000000000000000000000000000000000000000000000000000000000000000000000000000000000000000000000000000000000000000000000000000000000000000000000000000000000000000000000000000000000000000000000000000000000000000000000000000000000000000000000000000000000000000000000000000000000000000000000000000000000000000000000000000000000000000000000000000000000000000000000000000000000000000000",
                        "logs": [],
                        "status": true,
                        "rlp": "0xf901080182bbbcb9010000000000000000000000000000000000000000000000000000000000000000000000000000000000000000000000000000000000000000000000000000000000000000000000000000000000000000000000000000000000000000000000000000000000000000000000000000000000000000000000000000000000000000000000000000000000000000000000000000000000000000000000000000000000000000000000000000000000000000000000000000000000000000000000000000000000000000000000000000000000000000000000000000000000000000000000000000000000000000000000000000000000000000000000000000000000c0"
                    }
                ],
                "rlp": "0xf902a3f9023aa0dc9b8ee81af5004fbe4c5bbe76a0a24cdaeaf6839b5807d5b5cdc749b6faa1eca01dcc4de8dec75d7aab85b567b6ccd41ad312451b948a7413f0a142fd40d49347942adc25665018aa1fe0e6bc666dac8fc2697ff9baa0b2120cacf80ef11099a4171d8e1c05f037abddbfadd2d9c6c8324d21ae9af4c8a02ff3f1d58a8068bd0911e5233869be430348c767d03b5649aed491bfb40ee763a0e11cb5f4546dfe0878cd620823822b5c416c23d3d7848448f20b902d6e42c334b901000000000000000000000000000000000000000000000000000000000000000000000000000000000000000000000000000000000000000000000000000000000000000000000000000000000000000000000000000000000000000000000000000000000000000000000000000000000000000000000000000000000000000000000000000000000000000000000000000000000000000000000000000000000000000000000000000000000000000000000000000000000000000000000000000000000000000000000000000000000000000000000000000000000000000000000000000000000000000000000000000000000000000000000000000000000080018407270e0082bbbc8203e800a000000000000000000000000000000000000000000000000000000000000200008800000000000000000aa056e81f171bcc55a6ff8345e692c0f86e5b48e01b996cadc001622fb5e363b4218080a00000000000000000000000000000000000000000000000000000000000000000f862f860800a830186a0946d7e35221d9d5f6e4a2b09ed59e10f64ca3c22570a8025a003cf3d20b0a401ecb9d327b5f9a1c504cfdc4093288cc27155d88a19d9e3d19da0420ad2c6c9113c09144f9ab426733772a32ce59e74796932a4ec90e28c006186c0c0",
                "blocknumber": "1"
            }
        ],
        "sealEngine": "NoProof",
        "_info": {
            "hash": "0xa6df247deec3731ef919b2d9b61f516b5c68339d959f313631bfa5079318f076",
            "fixture-format": "blockchain_test",
            "comment": "`execution-specs` generated test",
            "filling-transition-tool": "2.19.0",
            "description": "Test_mem32kb_single_byte_minus_33.",
            "url": "https://github.com/ethereum/execution-specs/blob/tests-bal@v5.7.0/tests/ported_static/stMemoryTest/test_mem32kb_single_byte_minus_33.py#L25",
            "metadata": {
                "opcode_count": {}
            }
        }
    }
}