{
    "tests/ported_static/stStaticCall/test_static_callcallcall_abcb_recursive.py::test_static_callcallcall_abcb_recursive[fork_Cancun-blockchain_test_from_state_test]": {
        "network": "Cancun",
        "genesisBlockHeader": {
            "parentHash": "0x0000000000000000000000000000000000000000000000000000000000000000",
            "uncleHash": "0x1dcc4de8dec75d7aab85b567b6ccd41ad312451b948a7413f0a142fd40d49347",
            "coinbase": "0x0000000000000000000000000000000000000000",
            "stateRoot": "0xa070877749f252efbf73e0badcb5dbf0f4e6187e35274c0c61e2ee888c25dbc8",
            "transactionsTrie": "0x56e81f171bcc55a6ff8345e692c0f86e5b48e01b996cadc001622fb5e363b421",
            "receiptTrie": "0x56e81f171bcc55a6ff8345e692c0f86e5b48e01b996cadc001622fb5e363b421",
            "bloom": "0x00000000000000000000000000000000000000000000000000000000000000000000000000000000000000000000000000000000000000000000000000000000000000000000000000000000000000000000000000000000000000000000000000000000000000000000000000000000000000000000000000000000000000000000000000000000000000000000000000000000000000000000000000000000000000000000000000000000000000000000000000000000000000000000000000000000000000000000000000000000000000000000000000000000000000000000000000000000000000000000000000000000000000000000000000000000",
            "difficulty": "0x00",
            "number": "0x00",
            "gasLimit": "0xb2d05e00",
            "gasUsed": "0x00",
            "timestamp": "0x00",
            "extraData": "0x00",
            "mixHash": "0x0000000000000000000000000000000000000000000000000000000000000000",
            "nonce": "0x0000000000000000",
            "baseFeePerGas": "0x0b",
            "withdrawalsRoot": "0x56e81f171bcc55a6ff8345e692c0f86e5b48e01b996cadc001622fb5e363b421",
            "blobGasUsed": "0x00",
            "excessBlobGas": "0x00",
            "parentBeaconBlockRoot": "0x0000000000000000000000000000000000000000000000000000000000000000",
            "hash": "0xcc3b010be34a391dede7388c2cff6e644d46a572d20a5461fc1e6112c9533b1e"
        },
        "pre": {
            "0x000f3df6d732807ef1319fb7b8bb8522d0beac02": {
                "nonce": "0x01",
                "balance": "0x00",
                "code": "0x3373fffffffffffffffffffffffffffffffffffffffe14604d57602036146024575f5ffd5b5f35801560495762001fff810690815414603c575f5ffd5b62001fff01545f5260205ff35b5f5ffd5b62001fff42064281555f359062001fff015500",
                "storage": {}
            },
            "0xa1d5b67585a05602670674bdb13ff8fedebe05bc": {
                "nonce": "0x00",
                "balance": "0x0de0b6b3a7640000",
                "code": "0x6001600152604060006040600073f687bddcd749d085fd830b4e865cb76bb4f981ab63017d7840fa50600160025200",
                "storage": {}
            },
            "0xf687bddcd749d085fd830b4e865cb76bb4f981ab": {
                "nonce": "0x00",
                "balance": "0x02540be400",
                "code": "0x6001600352604060006040600073e6f4b463900f4c325a940dca2c0c6b1c075631c9620f4240fa50600160045200",
                "storage": {}
            },
            "0xe6f4b463900f4c325a940dca2c0c6b1c075631c9": {
                "nonce": "0x00",
                "balance": "0x02540be400",
                "code": "0x6001600552604060006040600073f687bddcd749d085fd830b4e865cb76bb4f981ab6207a120fa50600160065200",
                "storage": {}
            },
            "0xebaf50debf10e08302fe4280c32df010463ca297": {
                "nonce": "0x00",
                "balance": "0x0de0b6b3a7640000",
                "code": "0x",
                "storage": {}
            }
        },
        "postState": {
            "0x000f3df6d732807ef1319fb7b8bb8522d0beac02": {
                "nonce": "0x01",
                "balance": "0x00",
                "code": "0x3373fffffffffffffffffffffffffffffffffffffffe14604d57602036146024575f5ffd5b5f35801560495762001fff810690815414603c575f5ffd5b62001fff01545f5260205ff35b5f5ffd5b62001fff42064281555f359062001fff015500",
                "storage": {
                    "0x03e8": "0x03e8"
                }
            },
            "0xa1d5b67585a05602670674bdb13ff8fedebe05bc": {
                "nonce": "0x00",
                "balance": "0x0de0b6b3a7640000",
                "code": "0x6001600152604060006040600073f687bddcd749d085fd830b4e865cb76bb4f981ab63017d7840fa50600160025200",
                "storage": {}
            },
            "0xf687bddcd749d085fd830b4e865cb76bb4f981ab": {
                "nonce": "0x00",
                "balance": "0x02540be400",
                "code": "0x6001600352604060006040600073e6f4b463900f4c325a940dca2c0c6b1c075631c9620f4240fa50600160045200",
                "storage": {}
            },
            "0xe6f4b463900f4c325a940dca2c0c6b1c075631c9": {
                "nonce": "0x00",
                "balance": "0x02540be400",
                "code": "0x6001600552604060006040600073f687bddcd749d085fd830b4e865cb76bb4f981ab6207a120fa50600160065200",
                "storage": {}
            },
            "0xebaf50debf10e08302fe4280c32df010463ca297": {
                "nonce": "0x01",
                "balance": "0x0de0b6b3a75a3d2c",
                "code": "0x",
                "storage": {}
            }
        },
        "lastblockhash": "0x1302c6822a7d5c16598718f22f9912070470cf0b6afdbc0554eaea84c734ee6c",
        "config": {
            "network": "Cancun",
            "chainid": "0x01",
            "blobSchedule": {
                "Cancun": {
                    "target": "0x03",
                    "max": "0x06",
                    "baseFeeUpdateFraction": "0x32f0ed"
                }
            }
        },
        "genesisRLP": "0xf9023cf90236a00000000000000000000000000000000000000000000000000000000000000000a01dcc4de8dec75d7aab85b567b6ccd41ad312451b948a7413f0a142fd40d49347940000000000000000000000000000000000000000a0a070877749f252efbf73e0badcb5dbf0f4e6187e35274c0c61e2ee888c25dbc8a056e81f171bcc55a6ff8345e692c0f86e5b48e01b996cadc001622fb5e363b421a056e81f171bcc55a6ff8345e692c0f86e5b48e01b996cadc001622fb5e363b421b9010000000000000000000000000000000000000000000000000000000000000000000000000000000000000000000000000000000000000000000000000000000000000000000000000000000000000000000000000000000000000000000000000000000000000000000000000000000000000000000000000000000000000000000000000000000000000000000000000000000000000000000000000000000000000000000000000000000000000000000000000000000000000000000000000000000000000000000000000000000000000000000000000000000000000000000000000000000000000000000000000000000000000000000000000000000000808084b2d05e00808000a000000000000000000000000000000000000000000000000000000000000000008800000000000000000ba056e81f171bcc55a6ff8345e692c0f86e5b48e01b996cadc001622fb5e363b4218080a00000000000000000000000000000000000000000000000000000000000000000c0c0c0",
        "blocks": [
            {
                "blockHeader": {
                    "parentHash": "0xcc3b010be34a391dede7388c2cff6e644d46a572d20a5461fc1e6112c9533b1e",
                    "uncleHash": "0x1dcc4de8dec75d7aab85b567b6ccd41ad312451b948a7413f0a142fd40d49347",
                    "coinbase": "0x2adc25665018aa1fe0e6bc666dac8fc2697ff9ba",
                    "stateRoot": "0xecc903d1f09345b709bac85e3ef8cd623ae49ffd18ef2d5bc8411a36862a52bc",
                    "transactionsTrie": "0xc2fe8f168914728cfe96630c315a3a2869a5eb7a6eeea82c6e503b0e15bf58e6",
                    "receiptTrie": "0x50f7ae72fb43e517c91003a2ec6a3efe495dfd6bd329de08105d7c934b0bbe50",
                    "bloom": "0x00000000000000000000000000000000000000000000000000000000000000000000000000000000000000000000000000000000000000000000000000000000000000000000000000000000000000000000000000000000000000000000000000000000000000000000000000000000000000000000000000000000000000000000000000000000000000000000000000000000000000000000000000000000000000000000000000000000000000000000000000000000000000000000000000000000000000000000000000000000000000000000000000000000000000000000000000000000000000000000000000000000000000000000000000000000",
                    "difficulty": "0x00",
                    "number": "0x01",
                    "gasLimit": "0xb2d05e00",
                    "gasUsed": "0xf9e2",
                    "timestamp": "0x03e8",
                    "extraData": "0x00",
                    "mixHash": "0x0000000000000000000000000000000000000000000000000000000000020000",
                    "nonce": "0x0000000000000000",
                    "baseFeePerGas": "0x0a",
                    "withdrawalsRoot": "0x56e81f171bcc55a6ff8345e692c0f86e5b48e01b996cadc001622fb5e363b421",
                    "blobGasUsed": "0x00",
                    "excessBlobGas": "0x00",
                    "parentBeaconBlockRoot": "0x0000000000000000000000000000000000000000000000000000000000000000",
                    "hash": "0x1302c6822a7d5c16598718f22f9912070470cf0b6afdbc0554eaea84c734ee6c"
                },
                "transactions": [
                    {
                        "type": "0x00",
                        "chainId": "0x01",
                        "nonce": "0x00",
                        "gasPrice": "0x0a",
                        "gasLimit": "0x0927c0",
                        "to": "0xa1d5b67585a05602670674bdb13ff8fedebe05bc",
                        "value": "0x00",
                        "data": "0x",
                        "v": "0x25",
                        "r": "0xbe36f5263dbf4455d1eeb0f3443062871f346221f2c7331ad3c439720f591526",
                        "s": "0x51afb81297de505018222c26345a018607a0cbc7686428515968d59c52674b10",
                        "sender": "0xebaf50debf10e08302fe4280c32df010463ca297"
                    }
                ],
                "uncleHeaders": [],
                "withdrawals": [],
                "receipts": [
                    {
                        "transactionHash": "0x232eaa83960eecaadabc16c6320fede4b305db36b4c64833861a591155f08552",
                        "type": "0x00",
                        "cumulativeGasUsed": "0xf9e2",
                        "bloom": "0x00000000000000000000000000000000000000000000000000000000000000000000000000000000000000000000000000000000000000000000000000000000000000000000000000000000000000000000000000000000000000000000000000000000000000000000000000000000000000000000000000000000000000000000000000000000000000000000000000000000000000000000000000000000000000000000000000000000000000000000000000000000000000000000000000000000000000000000000000000000000000000000000000000000000000000000000000000000000000000000000000000000000000000000000000000000",
                        "logs": [],
                        "status": true,
                        "rlp": "0xf901080182f9e2b9010000000000000000000000000000000000000000000000000000000000000000000000000000000000000000000000000000000000000000000000000000000000000000000000000000000000000000000000000000000000000000000000000000000000000000000000000000000000000000000000000000000000000000000000000000000000000000000000000000000000000000000000000000000000000000000000000000000000000000000000000000000000000000000000000000000000000000000000000000000000000000000000000000000000000000000000000000000000000000000000000000000000000000000000000000000000c0"
                    }
                ],
                "rlp": "0xf902a3f9023aa0cc3b010be34a391dede7388c2cff6e644d46a572d20a5461fc1e6112c9533b1ea01dcc4de8dec75d7aab85b567b6ccd41ad312451b948a7413f0a142fd40d49347942adc25665018aa1fe0e6bc666dac8fc2697ff9baa0ecc903d1f09345b709bac85e3ef8cd623ae49ffd18ef2d5bc8411a36862a52bca0c2fe8f168914728cfe96630c315a3a2869a5eb7a6eeea82c6e503b0e15bf58e6a050f7ae72fb43e517c91003a2ec6a3efe495dfd6bd329de08105d7c934b0bbe50b9010000000000000000000000000000000000000000000000000000000000000000000000000000000000000000000000000000000000000000000000000000000000000000000000000000000000000000000000000000000000000000000000000000000000000000000000000000000000000000000000000000000000000000000000000000000000000000000000000000000000000000000000000000000000000000000000000000000000000000000000000000000000000000000000000000000000000000000000000000000000000000000000000000000000000000000000000000000000000000000000000000000000000000000000000000000000800184b2d05e0082f9e28203e800a000000000000000000000000000000000000000000000000000000000000200008800000000000000000aa056e81f171bcc55a6ff8345e692c0f86e5b48e01b996cadc001622fb5e363b4218080a00000000000000000000000000000000000000000000000000000000000000000f862f860800a830927c094a1d5b67585a05602670674bdb13ff8fedebe05bc808025a0be36f5263dbf4455d1eeb0f3443062871f346221f2c7331ad3c439720f591526a051afb81297de505018222c26345a018607a0cbc7686428515968d59c52674b10c0c0",
                "blocknumber": "1"
            }
        ],
        "sealEngine": "NoProof",
        "_info": {
            "hash": "0x97530addc393a8347832eeb85d804f98f2f249a2f523efd80bb97ef550ced4eb",
            "fixture-format": "blockchain_test",
            "comment": "`execution-specs` generated test",
            "filling-transition-tool": "2.19.0",
            "description": "Test_static_callcallcall_abcb_recursive.",
            "url": "https://github.com/ethereum/execution-specs/blob/tests-bal@v5.7.0/tests/ported_static/stStaticCall/test_static_callcallcall_abcb_recursive.py#L25",
            "metadata": {
                "opcode_count": {}
            }
        }
    }
}