{
    "tests/frontier/opcodes/test_selfdestruct.py::test_double_kill[fork_Frontier-blockchain_test]": {
        "network": "Frontier",
        "genesisBlockHeader": {
            "parentHash": "0x0000000000000000000000000000000000000000000000000000000000000000",
            "uncleHash": "0x1dcc4de8dec75d7aab85b567b6ccd41ad312451b948a7413f0a142fd40d49347",
            "coinbase": "0x0000000000000000000000000000000000000000",
            "stateRoot": "0xe486b4f1aef8482a4a8f04f8a36c3d55add67d4ff729c9706a1b7ba58e94a7a1",
            "transactionsTrie": "0x56e81f171bcc55a6ff8345e692c0f86e5b48e01b996cadc001622fb5e363b421",
            "receiptTrie": "0x56e81f171bcc55a6ff8345e692c0f86e5b48e01b996cadc001622fb5e363b421",
            "bloom": "0x00000000000000000000000000000000000000000000000000000000000000000000000000000000000000000000000000000000000000000000000000000000000000000000000000000000000000000000000000000000000000000000000000000000000000000000000000000000000000000000000000000000000000000000000000000000000000000000000000000000000000000000000000000000000000000000000000000000000000000000000000000000000000000000000000000000000000000000000000000000000000000000000000000000000000000000000000000000000000000000000000000000000000000000000000000000",
            "difficulty": "0x020000",
            "number": "0x00",
            "gasLimit": "0x055d4a80",
            "gasUsed": "0x00",
            "timestamp": "0x00",
            "extraData": "0x00",
            "mixHash": "0x0000000000000000000000000000000000000000000000000000000000000000",
            "nonce": "0x0000000000000000",
            "hash": "0x7fac6a75a1374086532b94be0ae9b651689b14042b4c29f52fd507d1f298715f"
        },
        "pre": {
            "0x7ca39f391b88b588d392b89bee0ad30552467002": {
                "nonce": "0x00",
                "balance": "0x3635c9adc5dea00000",
                "code": "0x",
                "storage": {}
            }
        },
        "postState": {
            "0x7ca39f391b88b588d392b89bee0ad30552467002": {
                "nonce": "0x03",
                "balance": "0x3635c9adc5de97cf16",
                "code": "0x",
                "storage": {}
            },
            "0x2adc25665018aa1fe0e6bc666dac8fc2697ff9ba": {
                "nonce": "0x00",
                "balance": "0x8ac7230489f030ea",
                "code": "0x",
                "storage": {}
            },
            "0xca728f188aff48461fac0669f88c3eedf93c8180": {
                "nonce": "0x00",
                "balance": "0x00",
                "code": "0x",
                "storage": {}
            }
        },
        "lastblockhash": "0xbed2715fcdc93f47bfd29762666664da581478f648ec15bb8b361e6c4e27a264",
        "config": {
            "network": "Frontier",
            "chainid": "0x01"
        },
        "genesisRLP": "0xf901f9f901f4a00000000000000000000000000000000000000000000000000000000000000000a01dcc4de8dec75d7aab85b567b6ccd41ad312451b948a7413f0a142fd40d49347940000000000000000000000000000000000000000a0e486b4f1aef8482a4a8f04f8a36c3d55add67d4ff729c9706a1b7ba58e94a7a1a056e81f171bcc55a6ff8345e692c0f86e5b48e01b996cadc001622fb5e363b421a056e81f171bcc55a6ff8345e692c0f86e5b48e01b996cadc001622fb5e363b421b9010000000000000000000000000000000000000000000000000000000000000000000000000000000000000000000000000000000000000000000000000000000000000000000000000000000000000000000000000000000000000000000000000000000000000000000000000000000000000000000000000000000000000000000000000000000000000000000000000000000000000000000000000000000000000000000000000000000000000000000000000000000000000000000000000000000000000000000000000000000000000000000000000000000000000000000000000000000000000000000000000000000000000000000000000000000000830200008084055d4a80808000a00000000000000000000000000000000000000000000000000000000000000000880000000000000000c0c0",
        "blocks": [
            {
                "blockHeader": {
                    "parentHash": "0x7fac6a75a1374086532b94be0ae9b651689b14042b4c29f52fd507d1f298715f",
                    "uncleHash": "0x1dcc4de8dec75d7aab85b567b6ccd41ad312451b948a7413f0a142fd40d49347",
                    "coinbase": "0x2adc25665018aa1fe0e6bc666dac8fc2697ff9ba",
                    "stateRoot": "0xccc22d4101b275cdb4e9913e442f1443aa952c68493658f6833ce2e882c8cf02",
                    "transactionsTrie": "0xeb378d6bcbe50849277956f4c660384615683ac9be6f4ef9b4114c916536ccd7",
                    "receiptTrie": "0x6e258ff56480377626c2c91305d4c2db9ed721c298594c591c2c157953bde7e2",
                    "bloom": "0x00000000000000000000000000000000000000000000000000000000000000000000000000000000000000000000000000000000000000000000000000000000000000000000000000000000000000000000000000000000000000000000000000000000000000000000000000000000000000000000000000000000000000000000000000000000000000000000000000000000000000000000000000000000000000000000000000000000000000000000000000000000000000000000000000000000000000000000000000000000000000000000000000000000000000000000000000000000000000000000000000000000000000000000000000000000",
                    "difficulty": "0x020040",
                    "number": "0x01",
                    "gasLimit": "0x055d4a80",
                    "gasUsed": "0x56a4",
                    "timestamp": "0x0c",
                    "extraData": "0x",
                    "mixHash": "0x0000000000000000000000000000000000000000000000000000000000000000",
                    "nonce": "0x0000000000000000",
                    "hash": "0x87ba22c70cea5ddb3f722621acfd60a1484c5fbea06b6189d0d2cb901809d7e2"
                },
                "transactions": [
                    {
                        "type": "0x00",
                        "chainId": "0x01",
                        "nonce": "0x00",
                        "gasPrice": "0x0a",
                        "gasLimit": "0x0186a0",
                        "value": "0x00",
                        "data": "0x610002600081600b8239f330ff",
                        "v": "0x1b",
                        "r": "0xa096330cea1913f8d77dcd0720209fc3f40d1c7297138ae453f5d6f436272373",
                        "s": "0x2fb6c79217298fa5c0cd5b42caed73ece6aa548eb411921c73304b1625ae2dca",
                        "sender": "0x7ca39f391b88b588d392b89bee0ad30552467002",
                        "to": ""
                    }
                ],
                "uncleHeaders": [],
                "rlp": "0xf90257f901f6a07fac6a75a1374086532b94be0ae9b651689b14042b4c29f52fd507d1f298715fa01dcc4de8dec75d7aab85b567b6ccd41ad312451b948a7413f0a142fd40d49347942adc25665018aa1fe0e6bc666dac8fc2697ff9baa0ccc22d4101b275cdb4e9913e442f1443aa952c68493658f6833ce2e882c8cf02a0eb378d6bcbe50849277956f4c660384615683ac9be6f4ef9b4114c916536ccd7a06e258ff56480377626c2c91305d4c2db9ed721c298594c591c2c157953bde7e2b9010000000000000000000000000000000000000000000000000000000000000000000000000000000000000000000000000000000000000000000000000000000000000000000000000000000000000000000000000000000000000000000000000000000000000000000000000000000000000000000000000000000000000000000000000000000000000000000000000000000000000000000000000000000000000000000000000000000000000000000000000000000000000000000000000000000000000000000000000000000000000000000000000000000000000000000000000000000000000000000000000000000000000000000000000000000000830200400184055d4a808256a40c80a00000000000000000000000000000000000000000000000000000000000000000880000000000000000f85bf859800a830186a080808d610002600081600b8239f330ff1ba0a096330cea1913f8d77dcd0720209fc3f40d1c7297138ae453f5d6f436272373a02fb6c79217298fa5c0cd5b42caed73ece6aa548eb411921c73304b1625ae2dcac0",
                "blocknumber": "1"
            },
            {
                "blockHeader": {
                    "parentHash": "0x87ba22c70cea5ddb3f722621acfd60a1484c5fbea06b6189d0d2cb901809d7e2",
                    "uncleHash": "0x1dcc4de8dec75d7aab85b567b6ccd41ad312451b948a7413f0a142fd40d49347",
                    "coinbase": "0x2adc25665018aa1fe0e6bc666dac8fc2697ff9ba",
                    "stateRoot": "0x9f633dd7aed4ee9e9036eeeb85b593061c271712de5f29a21eab03b97128a347",
                    "transactionsTrie": "0x69fe504e0cf8a6caf0ecb73631301629f7f1e0ed89a74dfa9a294b48e386d533",
                    "receiptTrie": "0x2414154302424e622eab587bd0462be4438c3e7e9daef9d6b2416362dff44423",
                    "bloom": "0x00000000000000000000000000000000000000000000000000000000000000000000000000000000000000000000000000000000000000000000000000000000000000000000000000000000000000000000000000000000000000000000000000000000000000000000000000000000000000000000000000000000000000000000000000000000000000000000000000000000000000000000000000000000000000000000000000000000000000000000000000000000000000000000000000000000000000000000000000000000000000000000000000000000000000000000000000000000000000000000000000000000000000000000000000000000",
                    "difficulty": "0x020080",
                    "number": "0x02",
                    "gasLimit": "0x055d4a80",
                    "gasUsed": "0x7b0d",
                    "timestamp": "0x18",
                    "extraData": "0x",
                    "mixHash": "0x0000000000000000000000000000000000000000000000000000000000000000",
                    "nonce": "0x0000000000000000",
                    "hash": "0xbed2715fcdc93f47bfd29762666664da581478f648ec15bb8b361e6c4e27a264"
                },
                "transactions": [
                    {
                        "type": "0x00",
                        "chainId": "0x01",
                        "nonce": "0x01",
                        "gasPrice": "0x0a",
                        "gasLimit": "0x0186a0",
                        "to": "0xca728f188aff48461fac0669f88c3eedf93c8180",
                        "value": "0x00",
                        "data": "0x",
                        "v": "0x1b",
                        "r": "0xfd0363ffeac31a1b50bbad7eacda202b6114696deab46b4c9b827bb487fdce94",
                        "s": "0x52d1dcf1d4ad1a0b6e1286a57fb17dc8fd3b284938189ee44a52063f289b532d",
                        "sender": "0x7ca39f391b88b588d392b89bee0ad30552467002"
                    },
                    {
                        "type": "0x00",
                        "chainId": "0x01",
                        "nonce": "0x02",
                        "gasPrice": "0x0a",
                        "gasLimit": "0x0186a0",
                        "to": "0xca728f188aff48461fac0669f88c3eedf93c8180",
                        "value": "0x00",
                        "data": "0x",
                        "v": "0x1c",
                        "r": "0x0d8eebd61b1703fae6099f2a04e2de9e28ccdc0c1598a3a6b5db2b128caae029",
                        "s": "0x42fb0a4b0e90aeddba29cdcfaceece7cd63c29b5fbb4fbdd9a3f6db104791935",
                        "sender": "0x7ca39f391b88b588d392b89bee0ad30552467002"
                    }
                ],
                "uncleHeaders": [],
                "rlp": "0xf902c0f901f6a087ba22c70cea5ddb3f722621acfd60a1484c5fbea06b6189d0d2cb901809d7e2a01dcc4de8dec75d7aab85b567b6ccd41ad312451b948a7413f0a142fd40d49347942adc25665018aa1fe0e6bc666dac8fc2697ff9baa09f633dd7aed4ee9e9036eeeb85b593061c271712de5f29a21eab03b97128a347a069fe504e0cf8a6caf0ecb73631301629f7f1e0ed89a74dfa9a294b48e386d533a02414154302424e622eab587bd0462be4438c3e7e9daef9d6b2416362dff44423b9010000000000000000000000000000000000000000000000000000000000000000000000000000000000000000000000000000000000000000000000000000000000000000000000000000000000000000000000000000000000000000000000000000000000000000000000000000000000000000000000000000000000000000000000000000000000000000000000000000000000000000000000000000000000000000000000000000000000000000000000000000000000000000000000000000000000000000000000000000000000000000000000000000000000000000000000000000000000000000000000000000000000000000000000000000000000830200800284055d4a80827b0d1880a00000000000000000000000000000000000000000000000000000000000000000880000000000000000f8c4f860010a830186a094ca728f188aff48461fac0669f88c3eedf93c818080801ba0fd0363ffeac31a1b50bbad7eacda202b6114696deab46b4c9b827bb487fdce94a052d1dcf1d4ad1a0b6e1286a57fb17dc8fd3b284938189ee44a52063f289b532df860020a830186a094ca728f188aff48461fac0669f88c3eedf93c818080801ca00d8eebd61b1703fae6099f2a04e2de9e28ccdc0c1598a3a6b5db2b128caae029a042fb0a4b0e90aeddba29cdcfaceece7cd63c29b5fbb4fbdd9a3f6db104791935c0",
                "blocknumber": "2"
            }
        ],
        "sealEngine": "NoProof",
        "_info": {
            "hash": "0x7bcdef57a22b61f40599017969c8513ee38cfe01d96243617f53f28bf2b4643c",
            "comment": "`execution-spec-tests` generated test",
            "filling-transition-tool": "ethereum-spec-evm-resolver 0.0.5",
            "description": "Test that when two transactions attempt to destruct a contract, the second\n    transaction actually resurrects the contract as an empty account (prior to\n    Spurious Dragon).",
            "url": "https://github.com/ethereum/execution-spec-tests/tree/v5.3.0/tests/frontier/opcodes/test_selfdestruct.py#L9",
            "fixture-format": "blockchain_test",
            "eels-resolution": {
                "git-url": "https://github.com/ethereum/execution-specs.git",
                "branch": "forks/bpos",
                "commit": "7aacb2c54111391af5e98c505d5010b5698a770f"
            }
        }
    },
    "tests/frontier/opcodes/test_selfdestruct.py::test_double_kill[fork_Homestead-blockchain_test]": {
        "network": "Homestead",
        "genesisBlockHeader": {
            "parentHash": "0x0000000000000000000000000000000000000000000000000000000000000000",
            "uncleHash": "0x1dcc4de8dec75d7aab85b567b6ccd41ad312451b948a7413f0a142fd40d49347",
            "coinbase": "0x0000000000000000000000000000000000000000",
            "stateRoot": "0xe486b4f1aef8482a4a8f04f8a36c3d55add67d4ff729c9706a1b7ba58e94a7a1",
            "transactionsTrie": "0x56e81f171bcc55a6ff8345e692c0f86e5b48e01b996cadc001622fb5e363b421",
            "receiptTrie": "0x56e81f171bcc55a6ff8345e692c0f86e5b48e01b996cadc001622fb5e363b421",
            "bloom": "0x00000000000000000000000000000000000000000000000000000000000000000000000000000000000000000000000000000000000000000000000000000000000000000000000000000000000000000000000000000000000000000000000000000000000000000000000000000000000000000000000000000000000000000000000000000000000000000000000000000000000000000000000000000000000000000000000000000000000000000000000000000000000000000000000000000000000000000000000000000000000000000000000000000000000000000000000000000000000000000000000000000000000000000000000000000000",
            "difficulty": "0x020000",
            "number": "0x00",
            "gasLimit": "0x055d4a80",
            "gasUsed": "0x00",
            "timestamp": "0x00",
            "extraData": "0x00",
            "mixHash": "0x0000000000000000000000000000000000000000000000000000000000000000",
            "nonce": "0x0000000000000000",
            "hash": "0x7fac6a75a1374086532b94be0ae9b651689b14042b4c29f52fd507d1f298715f"
        },
        "pre": {
            "0x7ca39f391b88b588d392b89bee0ad30552467002": {
                "nonce": "0x00",
                "balance": "0x3635c9adc5dea00000",
                "code": "0x",
                "storage": {}
            }
        },
        "postState": {
            "0x7ca39f391b88b588d392b89bee0ad30552467002": {
                "nonce": "0x03",
                "balance": "0x3635c9adc5de92ed16",
                "code": "0x",
                "storage": {}
            },
            "0x2adc25665018aa1fe0e6bc666dac8fc2697ff9ba": {
                "nonce": "0x00",
                "balance": "0x8ac7230489f512ea",
                "code": "0x",
                "storage": {}
            },
            "0xca728f188aff48461fac0669f88c3eedf93c8180": {
                "nonce": "0x00",
                "balance": "0x00",
                "code": "0x",
                "storage": {}
            }
        },
        "lastblockhash": "0xa1ef6c15e38d37c36c6f60191a1be6cb637894462d6078dc8deb27fbca0a6fe7",
        "config": {
            "network": "Homestead",
            "chainid": "0x01"
        },
        "genesisRLP": "0xf901f9f901f4a00000000000000000000000000000000000000000000000000000000000000000a01dcc4de8dec75d7aab85b567b6ccd41ad312451b948a7413f0a142fd40d49347940000000000000000000000000000000000000000a0e486b4f1aef8482a4a8f04f8a36c3d55add67d4ff729c9706a1b7ba58e94a7a1a056e81f171bcc55a6ff8345e692c0f86e5b48e01b996cadc001622fb5e363b421a056e81f171bcc55a6ff8345e692c0f86e5b48e01b996cadc001622fb5e363b421b9010000000000000000000000000000000000000000000000000000000000000000000000000000000000000000000000000000000000000000000000000000000000000000000000000000000000000000000000000000000000000000000000000000000000000000000000000000000000000000000000000000000000000000000000000000000000000000000000000000000000000000000000000000000000000000000000000000000000000000000000000000000000000000000000000000000000000000000000000000000000000000000000000000000000000000000000000000000000000000000000000000000000000000000000000000000000830200008084055d4a80808000a00000000000000000000000000000000000000000000000000000000000000000880000000000000000c0c0",
        "blocks": [
            {
                "blockHeader": {
                    "parentHash": "0x7fac6a75a1374086532b94be0ae9b651689b14042b4c29f52fd507d1f298715f",
                    "uncleHash": "0x1dcc4de8dec75d7aab85b567b6ccd41ad312451b948a7413f0a142fd40d49347",
                    "coinbase": "0x2adc25665018aa1fe0e6bc666dac8fc2697ff9ba",
                    "stateRoot": "0xe9939500cce2b4ea675932c21c3b046b32fa1ed3cabd94bd53d12c61ad76c6fe",
                    "transactionsTrie": "0xeb378d6bcbe50849277956f4c660384615683ac9be6f4ef9b4114c916536ccd7",
                    "receiptTrie": "0xc6c454b9fdd72bb597d64c9e76f58f0d239fa64be0da3554297c9dc38bd0fe88",
                    "bloom": "0x00000000000000000000000000000000000000000000000000000000000000000000000000000000000000000000000000000000000000000000000000000000000000000000000000000000000000000000000000000000000000000000000000000000000000000000000000000000000000000000000000000000000000000000000000000000000000000000000000000000000000000000000000000000000000000000000000000000000000000000000000000000000000000000000000000000000000000000000000000000000000000000000000000000000000000000000000000000000000000000000000000000000000000000000000000000",
                    "difficulty": "0x020000",
                    "number": "0x01",
                    "gasLimit": "0x055d4a80",
                    "gasUsed": "0xd3a4",
                    "timestamp": "0x0c",
                    "extraData": "0x",
                    "mixHash": "0x0000000000000000000000000000000000000000000000000000000000000000",
                    "nonce": "0x0000000000000000",
                    "hash": "0x34248745f84a407660b6df27a0c324a0a476fae3645a4a5904b35fa7b8d01fde"
                },
                "transactions": [
                    {
                        "type": "0x00",
                        "chainId": "0x01",
                        "nonce": "0x00",
                        "gasPrice": "0x0a",
                        "gasLimit": "0x0186a0",
                        "value": "0x00",
                        "data": "0x610002600081600b8239f330ff",
                        "v": "0x1b",
                        "r": "0xa096330cea1913f8d77dcd0720209fc3f40d1c7297138ae453f5d6f436272373",
                        "s": "0x2fb6c79217298fa5c0cd5b42caed73ece6aa548eb411921c73304b1625ae2dca",
                        "sender": "0x7ca39f391b88b588d392b89bee0ad30552467002",
                        "to": ""
                    }
                ],
                "uncleHeaders": [],
                "rlp": "0xf90257f901f6a07fac6a75a1374086532b94be0ae9b651689b14042b4c29f52fd507d1f298715fa01dcc4de8dec75d7aab85b567b6ccd41ad312451b948a7413f0a142fd40d49347942adc25665018aa1fe0e6bc666dac8fc2697ff9baa0e9939500cce2b4ea675932c21c3b046b32fa1ed3cabd94bd53d12c61ad76c6fea0eb378d6bcbe50849277956f4c660384615683ac9be6f4ef9b4114c916536ccd7a0c6c454b9fdd72bb597d64c9e76f58f0d239fa64be0da3554297c9dc38bd0fe88b9010000000000000000000000000000000000000000000000000000000000000000000000000000000000000000000000000000000000000000000000000000000000000000000000000000000000000000000000000000000000000000000000000000000000000000000000000000000000000000000000000000000000000000000000000000000000000000000000000000000000000000000000000000000000000000000000000000000000000000000000000000000000000000000000000000000000000000000000000000000000000000000000000000000000000000000000000000000000000000000000000000000000000000000000000000000000830200000184055d4a8082d3a40c80a00000000000000000000000000000000000000000000000000000000000000000880000000000000000f85bf859800a830186a080808d610002600081600b8239f330ff1ba0a096330cea1913f8d77dcd0720209fc3f40d1c7297138ae453f5d6f436272373a02fb6c79217298fa5c0cd5b42caed73ece6aa548eb411921c73304b1625ae2dcac0",
                "blocknumber": "1"
            },
            {
                "blockHeader": {
                    "parentHash": "0x34248745f84a407660b6df27a0c324a0a476fae3645a4a5904b35fa7b8d01fde",
                    "uncleHash": "0x1dcc4de8dec75d7aab85b567b6ccd41ad312451b948a7413f0a142fd40d49347",
                    "coinbase": "0x2adc25665018aa1fe0e6bc666dac8fc2697ff9ba",
                    "stateRoot": "0x4dd7f1b9e2255dd041d3ba8c706f695c54a86daf8b9da6fd274012dc114375db",
                    "transactionsTrie": "0x69fe504e0cf8a6caf0ecb73631301629f7f1e0ed89a74dfa9a294b48e386d533",
                    "receiptTrie": "0xad9ebb967d74cef133f6800dcd842c6226388c5bdd74a5582f3633fc31608017",
                    "bloom": "0x00000000000000000000000000000000000000000000000000000000000000000000000000000000000000000000000000000000000000000000000000000000000000000000000000000000000000000000000000000000000000000000000000000000000000000000000000000000000000000000000000000000000000000000000000000000000000000000000000000000000000000000000000000000000000000000000000000000000000000000000000000000000000000000000000000000000000000000000000000000000000000000000000000000000000000000000000000000000000000000000000000000000000000000000000000000",
                    "difficulty": "0x020000",
                    "number": "0x02",
                    "gasLimit": "0x055d4a80",
                    "gasUsed": "0x7b0d",
                    "timestamp": "0x18",
                    "extraData": "0x",
                    "mixHash": "0x0000000000000000000000000000000000000000000000000000000000000000",
                    "nonce": "0x0000000000000000",
                    "hash": "0xa1ef6c15e38d37c36c6f60191a1be6cb637894462d6078dc8deb27fbca0a6fe7"
                },
                "transactions": [
                    {
                        "type": "0x00",
                        "chainId": "0x01",
                        "nonce": "0x01",
                        "gasPrice": "0x0a",
                        "gasLimit": "0x0186a0",
                        "to": "0xca728f188aff48461fac0669f88c3eedf93c8180",
                        "value": "0x00",
                        "data": "0x",
                        "v": "0x1b",
                        "r": "0xfd0363ffeac31a1b50bbad7eacda202b6114696deab46b4c9b827bb487fdce94",
                        "s": "0x52d1dcf1d4ad1a0b6e1286a57fb17dc8fd3b284938189ee44a52063f289b532d",
                        "sender": "0x7ca39f391b88b588d392b89bee0ad30552467002"
                    },
                    {
                        "type": "0x00",
                        "chainId": "0x01",
                        "nonce": "0x02",
                        "gasPrice": "0x0a",
                        "gasLimit": "0x0186a0",
                        "to": "0xca728f188aff48461fac0669f88c3eedf93c8180",
                        "value": "0x00",
                        "data": "0x",
                        "v": "0x1c",
                        "r": "0x0d8eebd61b1703fae6099f2a04e2de9e28ccdc0c1598a3a6b5db2b128caae029",
                        "s": "0x42fb0a4b0e90aeddba29cdcfaceece7cd63c29b5fbb4fbdd9a3f6db104791935",
                        "sender": "0x7ca39f391b88b588d392b89bee0ad30552467002"
                    }
                ],
                "uncleHeaders": [],
                "rlp": "0xf902c0f901f6a034248745f84a407660b6df27a0c324a0a476fae3645a4a5904b35fa7b8d01fdea01dcc4de8dec75d7aab85b567b6ccd41ad312451b948a7413f0a142fd40d49347942adc25665018aa1fe0e6bc666dac8fc2697ff9baa04dd7f1b9e2255dd041d3ba8c706f695c54a86daf8b9da6fd274012dc114375dba069fe504e0cf8a6caf0ecb73631301629f7f1e0ed89a74dfa9a294b48e386d533a0ad9ebb967d74cef133f6800dcd842c6226388c5bdd74a5582f3633fc31608017b9010000000000000000000000000000000000000000000000000000000000000000000000000000000000000000000000000000000000000000000000000000000000000000000000000000000000000000000000000000000000000000000000000000000000000000000000000000000000000000000000000000000000000000000000000000000000000000000000000000000000000000000000000000000000000000000000000000000000000000000000000000000000000000000000000000000000000000000000000000000000000000000000000000000000000000000000000000000000000000000000000000000000000000000000000000000000830200000284055d4a80827b0d1880a00000000000000000000000000000000000000000000000000000000000000000880000000000000000f8c4f860010a830186a094ca728f188aff48461fac0669f88c3eedf93c818080801ba0fd0363ffeac31a1b50bbad7eacda202b6114696deab46b4c9b827bb487fdce94a052d1dcf1d4ad1a0b6e1286a57fb17dc8fd3b284938189ee44a52063f289b532df860020a830186a094ca728f188aff48461fac0669f88c3eedf93c818080801ca00d8eebd61b1703fae6099f2a04e2de9e28ccdc0c1598a3a6b5db2b128caae029a042fb0a4b0e90aeddba29cdcfaceece7cd63c29b5fbb4fbdd9a3f6db104791935c0",
                "blocknumber": "2"
            }
        ],
        "sealEngine": "NoProof",
        "_info": {
            "hash": "0x8e921c4c3307dc85708a3e9f28d4cefe982ba6e5caed1974441a115b5310ecad",
            "comment": "`execution-spec-tests` generated test",
            "filling-transition-tool": "ethereum-spec-evm-resolver 0.0.5",
            "description": "Test that when two transactions attempt to destruct a contract, the second\n    transaction actually resurrects the contract as an empty account (prior to\n    Spurious Dragon).",
            "url": "https://github.com/ethereum/execution-spec-tests/tree/v5.3.0/tests/frontier/opcodes/test_selfdestruct.py#L9",
            "fixture-format": "blockchain_test",
            "eels-resolution": {
                "git-url": "https://github.com/ethereum/execution-specs.git",
                "branch": "forks/bpos",
                "commit": "7aacb2c54111391af5e98c505d5010b5698a770f"
            }
        }
    }
}