{
    "tests/ported_static/stCallCodes/test_callcallcode_01_ooge.py::test_callcallcode_01_ooge[fork_Cancun-blockchain_test_from_state_test]": {
        "network": "Cancun",
        "genesisBlockHeader": {
            "parentHash": "0x0000000000000000000000000000000000000000000000000000000000000000",
            "uncleHash": "0x1dcc4de8dec75d7aab85b567b6ccd41ad312451b948a7413f0a142fd40d49347",
            "coinbase": "0x0000000000000000000000000000000000000000",
            "stateRoot": "0xf816fefc756ebcd32139eb7c7d10f344277a26398f1fdf35fc10c277b376f1ad",
            "transactionsTrie": "0x56e81f171bcc55a6ff8345e692c0f86e5b48e01b996cadc001622fb5e363b421",
            "receiptTrie": "0x56e81f171bcc55a6ff8345e692c0f86e5b48e01b996cadc001622fb5e363b421",
            "bloom": "0x00000000000000000000000000000000000000000000000000000000000000000000000000000000000000000000000000000000000000000000000000000000000000000000000000000000000000000000000000000000000000000000000000000000000000000000000000000000000000000000000000000000000000000000000000000000000000000000000000000000000000000000000000000000000000000000000000000000000000000000000000000000000000000000000000000000000000000000000000000000000000000000000000000000000000000000000000000000000000000000000000000000000000000000000000000000",
            "difficulty": "0x00",
            "number": "0x00",
            "gasLimit": "0x01c9c380",
            "gasUsed": "0x00",
            "timestamp": "0x00",
            "extraData": "0x00",
            "mixHash": "0x0000000000000000000000000000000000000000000000000000000000000000",
            "nonce": "0x0000000000000000",
            "baseFeePerGas": "0x0b",
            "withdrawalsRoot": "0x56e81f171bcc55a6ff8345e692c0f86e5b48e01b996cadc001622fb5e363b421",
            "blobGasUsed": "0x00",
            "excessBlobGas": "0x00",
            "parentBeaconBlockRoot": "0x0000000000000000000000000000000000000000000000000000000000000000",
            "hash": "0xb06f4c459003a3deb7b228c33269c6d38b5bd1c94ae620b3aabaad7acc44f1f9"
        },
        "pre": {
            "0x000f3df6d732807ef1319fb7b8bb8522d0beac02": {
                "nonce": "0x01",
                "balance": "0x00",
                "code": "0x3373fffffffffffffffffffffffffffffffffffffffe14604d57602036146024575f5ffd5b5f35801560495762001fff810690815414603c575f5ffd5b62001fff01545f5260205ff35b5f5ffd5b62001fff42064281555f359062001fff015500",
                "storage": {}
            },
            "0x335b558774699d81f685543cfbcde5c4e5407686": {
                "nonce": "0x00",
                "balance": "0x0de0b6b3a7640000",
                "code": "0x60406000604060006000738e6e134402f2eeca8e910e8ec62b45b36ee31f30620c3500f160005500",
                "storage": {}
            },
            "0x8e6e134402f2eeca8e910e8ec62b45b36ee31f30": {
                "nonce": "0x00",
                "balance": "0x00",
                "code": "0x6040600060406000600073766b2cf0691f51029181fc511395b7ab71353a88620927c0f26001556001600b5500",
                "storage": {}
            },
            "0x766b2cf0691f51029181fc511395b7ab71353a88": {
                "nonce": "0x00",
                "balance": "0x00",
                "code": "0x6001600255622fffff60002000",
                "storage": {}
            },
            "0xebaf50debf10e08302fe4280c32df010463ca297": {
                "nonce": "0x00",
                "balance": "0x0de0b6b3a7640000",
                "code": "0x",
                "storage": {}
            }
        },
        "postState": {
            "0x000f3df6d732807ef1319fb7b8bb8522d0beac02": {
                "nonce": "0x01",
                "balance": "0x00",
                "code": "0x3373fffffffffffffffffffffffffffffffffffffffe14604d57602036146024575f5ffd5b5f35801560495762001fff810690815414603c575f5ffd5b62001fff01545f5260205ff35b5f5ffd5b62001fff42064281555f359062001fff015500",
                "storage": {
                    "0x03e8": "0x03e8"
                }
            },
            "0x335b558774699d81f685543cfbcde5c4e5407686": {
                "nonce": "0x00",
                "balance": "0x0de0b6b3a7640000",
                "code": "0x60406000604060006000738e6e134402f2eeca8e910e8ec62b45b36ee31f30620c3500f160005500",
                "storage": {
                    "0x00": "0x01"
                }
            },
            "0x8e6e134402f2eeca8e910e8ec62b45b36ee31f30": {
                "nonce": "0x00",
                "balance": "0x00",
                "code": "0x6040600060406000600073766b2cf0691f51029181fc511395b7ab71353a88620927c0f26001556001600b5500",
                "storage": {
                    "0x0b": "0x01"
                }
            },
            "0x766b2cf0691f51029181fc511395b7ab71353a88": {
                "nonce": "0x00",
                "balance": "0x00",
                "code": "0x6001600255622fffff60002000",
                "storage": {}
            },
            "0xebaf50debf10e08302fe4280c32df010463ca297": {
                "nonce": "0x01",
                "balance": "0x0de0b6b3a6fd5bfc",
                "code": "0x",
                "storage": {}
            }
        },
        "lastblockhash": "0x1481a46b07ed33ee30215eb043b946cd72435c6dea541a4a3663fa64c59b82ee",
        "config": {
            "network": "Cancun",
            "chainid": "0x01",
            "blobSchedule": {
                "Cancun": {
                    "target": "0x03",
                    "max": "0x06",
                    "baseFeeUpdateFraction": "0x32f0ed"
                }
            }
        },
        "genesisRLP": "0xf9023cf90236a00000000000000000000000000000000000000000000000000000000000000000a01dcc4de8dec75d7aab85b567b6ccd41ad312451b948a7413f0a142fd40d49347940000000000000000000000000000000000000000a0f816fefc756ebcd32139eb7c7d10f344277a26398f1fdf35fc10c277b376f1ada056e81f171bcc55a6ff8345e692c0f86e5b48e01b996cadc001622fb5e363b421a056e81f171bcc55a6ff8345e692c0f86e5b48e01b996cadc001622fb5e363b421b901000000000000000000000000000000000000000000000000000000000000000000000000000000000000000000000000000000000000000000000000000000000000000000000000000000000000000000000000000000000000000000000000000000000000000000000000000000000000000000000000000000000000000000000000000000000000000000000000000000000000000000000000000000000000000000000000000000000000000000000000000000000000000000000000000000000000000000000000000000000000000000000000000000000000000000000000000000000000000000000000000000000000000000000000000000000080808401c9c380808000a000000000000000000000000000000000000000000000000000000000000000008800000000000000000ba056e81f171bcc55a6ff8345e692c0f86e5b48e01b996cadc001622fb5e363b4218080a00000000000000000000000000000000000000000000000000000000000000000c0c0c0",
        "blocks": [
            {
                "blockHeader": {
                    "parentHash": "0xb06f4c459003a3deb7b228c33269c6d38b5bd1c94ae620b3aabaad7acc44f1f9",
                    "uncleHash": "0x1dcc4de8dec75d7aab85b567b6ccd41ad312451b948a7413f0a142fd40d49347",
                    "coinbase": "0x2adc25665018aa1fe0e6bc666dac8fc2697ff9ba",
                    "stateRoot": "0xe722b8a341184c334d583484bb4f8269ed98ab6e367f38e979342db2f1c79600",
                    "transactionsTrie": "0x6204cf83bbc7c739e64cb36681c71629f911be79bf46d058f271d7a3c8a17120",
                    "receiptTrie": "0xec9f6a1878d88cdf986955b72798456bbf3a45aa4f1aec745f7983918ff28aa0",
                    "bloom": "0x00000000000000000000000000000000000000000000000000000000000000000000000000000000000000000000000000000000000000000000000000000000000000000000000000000000000000000000000000000000000000000000000000000000000000000000000000000000000000000000000000000000000000000000000000000000000000000000000000000000000000000000000000000000000000000000000000000000000000000000000000000000000000000000000000000000000000000000000000000000000000000000000000000000000000000000000000000000000000000000000000000000000000000000000000000000",
                    "difficulty": "0x00",
                    "number": "0x01",
                    "gasLimit": "0x01c9c380",
                    "gasUsed": "0x0a439a",
                    "timestamp": "0x03e8",
                    "extraData": "0x00",
                    "mixHash": "0x0000000000000000000000000000000000000000000000000000000000020000",
                    "nonce": "0x0000000000000000",
                    "baseFeePerGas": "0x0a",
                    "withdrawalsRoot": "0x56e81f171bcc55a6ff8345e692c0f86e5b48e01b996cadc001622fb5e363b421",
                    "blobGasUsed": "0x00",
                    "excessBlobGas": "0x00",
                    "parentBeaconBlockRoot": "0x0000000000000000000000000000000000000000000000000000000000000000",
                    "hash": "0x1481a46b07ed33ee30215eb043b946cd72435c6dea541a4a3663fa64c59b82ee"
                },
                "transactions": [
                    {
                        "type": "0x00",
                        "chainId": "0x01",
                        "nonce": "0x00",
                        "gasPrice": "0x0a",
                        "gasLimit": "0x0f4240",
                        "to": "0x335b558774699d81f685543cfbcde5c4e5407686",
                        "value": "0x00",
                        "data": "0x",
                        "v": "0x25",
                        "r": "0x85405ac770063912efd829402f02a1cf9a4db8f013853ba7cc8b0098b0ddde0f",
                        "s": "0x2f9f2decccdcc20b0a7201f8410c13e0a61ccdc5b4c074a7508b939e92a4f3b4",
                        "sender": "0xebaf50debf10e08302fe4280c32df010463ca297"
                    }
                ],
                "uncleHeaders": [],
                "withdrawals": [],
                "receipts": [
                    {
                        "transactionHash": "0xda8a45feae52d315e745bd25b3f38ba0707d362c217931978f61f381c18703ef",
                        "type": "0x00",
                        "cumulativeGasUsed": "0x0a439a",
                        "bloom": "0x00000000000000000000000000000000000000000000000000000000000000000000000000000000000000000000000000000000000000000000000000000000000000000000000000000000000000000000000000000000000000000000000000000000000000000000000000000000000000000000000000000000000000000000000000000000000000000000000000000000000000000000000000000000000000000000000000000000000000000000000000000000000000000000000000000000000000000000000000000000000000000000000000000000000000000000000000000000000000000000000000000000000000000000000000000000",
                        "logs": [],
                        "status": true,
                        "rlp": "0xf9010901830a439ab9010000000000000000000000000000000000000000000000000000000000000000000000000000000000000000000000000000000000000000000000000000000000000000000000000000000000000000000000000000000000000000000000000000000000000000000000000000000000000000000000000000000000000000000000000000000000000000000000000000000000000000000000000000000000000000000000000000000000000000000000000000000000000000000000000000000000000000000000000000000000000000000000000000000000000000000000000000000000000000000000000000000000000000000000000000000000c0"
                    }
                ],
                "rlp": "0xf902a4f9023ba0b06f4c459003a3deb7b228c33269c6d38b5bd1c94ae620b3aabaad7acc44f1f9a01dcc4de8dec75d7aab85b567b6ccd41ad312451b948a7413f0a142fd40d49347942adc25665018aa1fe0e6bc666dac8fc2697ff9baa0e722b8a341184c334d583484bb4f8269ed98ab6e367f38e979342db2f1c79600a06204cf83bbc7c739e64cb36681c71629f911be79bf46d058f271d7a3c8a17120a0ec9f6a1878d88cdf986955b72798456bbf3a45aa4f1aec745f7983918ff28aa0b901000000000000000000000000000000000000000000000000000000000000000000000000000000000000000000000000000000000000000000000000000000000000000000000000000000000000000000000000000000000000000000000000000000000000000000000000000000000000000000000000000000000000000000000000000000000000000000000000000000000000000000000000000000000000000000000000000000000000000000000000000000000000000000000000000000000000000000000000000000000000000000000000000000000000000000000000000000000000000000000000000000000000000000000000000000000080018401c9c380830a439a8203e800a000000000000000000000000000000000000000000000000000000000000200008800000000000000000aa056e81f171bcc55a6ff8345e692c0f86e5b48e01b996cadc001622fb5e363b4218080a00000000000000000000000000000000000000000000000000000000000000000f862f860800a830f424094335b558774699d81f685543cfbcde5c4e5407686808025a085405ac770063912efd829402f02a1cf9a4db8f013853ba7cc8b0098b0ddde0fa02f9f2decccdcc20b0a7201f8410c13e0a61ccdc5b4c074a7508b939e92a4f3b4c0c0",
                "blocknumber": "1"
            }
        ],
        "sealEngine": "NoProof",
        "_info": {
            "hash": "0x261b026869193e8b84f3c23028e6924304df52221e939abf8106f89cfa85e0c8",
            "fixture-format": "blockchain_test",
            "comment": "`execution-specs` generated test",
            "filling-transition-tool": "2.19.0",
            "description": "Call -> callcode -> code oog .",
            "url": "https://github.com/ethereum/execution-specs/blob/tests-sn\u00f8bal-devnet-4@v1.0.0/tests/ported_static/stCallCodes/test_callcallcode_01_ooge.py#L25",
            "metadata": {
                "opcode_count": {}
            }
        }
    }
}