{
    "tests/shanghai/eip3860_initcode/test_initcode.py::test_create2_oversized_initcode_with_insufficient_balance[fork_Shanghai-blockchain_test_from_state_test-initcode_oversize]": {
        "network": "Shanghai",
        "genesisBlockHeader": {
            "parentHash": "0x0000000000000000000000000000000000000000000000000000000000000000",
            "uncleHash": "0x1dcc4de8dec75d7aab85b567b6ccd41ad312451b948a7413f0a142fd40d49347",
            "coinbase": "0x0000000000000000000000000000000000000000",
            "stateRoot": "0x1ba43086fb1cee4295f377e54077b7d65ed13ddae92b46b4c00d60a1723fe798",
            "transactionsTrie": "0x56e81f171bcc55a6ff8345e692c0f86e5b48e01b996cadc001622fb5e363b421",
            "receiptTrie": "0x56e81f171bcc55a6ff8345e692c0f86e5b48e01b996cadc001622fb5e363b421",
            "bloom": "0x00000000000000000000000000000000000000000000000000000000000000000000000000000000000000000000000000000000000000000000000000000000000000000000000000000000000000000000000000000000000000000000000000000000000000000000000000000000000000000000000000000000000000000000000000000000000000000000000000000000000000000000000000000000000000000000000000000000000000000000000000000000000000000000000000000000000000000000000000000000000000000000000000000000000000000000000000000000000000000000000000000000000000000000000000000000",
            "difficulty": "0x00",
            "number": "0x00",
            "gasLimit": "0x07270e00",
            "gasUsed": "0x00",
            "timestamp": "0x00",
            "extraData": "0x00",
            "mixHash": "0x0000000000000000000000000000000000000000000000000000000000000000",
            "nonce": "0x0000000000000000",
            "baseFeePerGas": "0x07",
            "withdrawalsRoot": "0x56e81f171bcc55a6ff8345e692c0f86e5b48e01b996cadc001622fb5e363b421",
            "hash": "0x3d5474a64dd8c4671e1e58875e70e4a55ef9b8a4bb56fc5c6088b2a66b5eb732"
        },
        "pre": {
            "0xeedf37e7b55628c20d7e2173fbdfd2483842323c": {
                "nonce": "0x01",
                "balance": "0x00",
                "code": "0x60006202000060006342f17fb3f5506001600155",
                "storage": {}
            },
            "0x1ad9bc24818784172ff393bb6f89f094d4d2ca29": {
                "nonce": "0x00",
                "balance": "0x3635c9adc5dea00000",
                "code": "0x",
                "storage": {}
            }
        },
        "postState": {
            "0xeedf37e7b55628c20d7e2173fbdfd2483842323c": {
                "nonce": "0x01",
                "balance": "0x00",
                "code": "0x60006202000060006342f17fb3f5506001600155",
                "storage": {}
            },
            "0x1ad9bc24818784172ff393bb6f89f094d4d2ca29": {
                "nonce": "0x01",
                "balance": "0x3635c9adc5d8aa1f00",
                "code": "0x",
                "storage": {}
            },
            "0x2adc25665018aa1fe0e6bc666dac8fc2697ff9ba": {
                "nonce": "0x00",
                "balance": "0x01c9c380",
                "code": "0x",
                "storage": {}
            }
        },
        "lastblockhash": "0x7889588a9504744199c5d3aee04a6ecb1f9e5bb0141b4baf0ae294e9685d82a7",
        "config": {
            "network": "Shanghai",
            "chainid": "0x01"
        },
        "genesisRLP": "0xf90219f90213a00000000000000000000000000000000000000000000000000000000000000000a01dcc4de8dec75d7aab85b567b6ccd41ad312451b948a7413f0a142fd40d49347940000000000000000000000000000000000000000a01ba43086fb1cee4295f377e54077b7d65ed13ddae92b46b4c00d60a1723fe798a056e81f171bcc55a6ff8345e692c0f86e5b48e01b996cadc001622fb5e363b421a056e81f171bcc55a6ff8345e692c0f86e5b48e01b996cadc001622fb5e363b421b901000000000000000000000000000000000000000000000000000000000000000000000000000000000000000000000000000000000000000000000000000000000000000000000000000000000000000000000000000000000000000000000000000000000000000000000000000000000000000000000000000000000000000000000000000000000000000000000000000000000000000000000000000000000000000000000000000000000000000000000000000000000000000000000000000000000000000000000000000000000000000000000000000000000000000000000000000000000000000000000000000000000000000000000000000000000080808407270e00808000a0000000000000000000000000000000000000000000000000000000000000000088000000000000000007a056e81f171bcc55a6ff8345e692c0f86e5b48e01b996cadc001622fb5e363b421c0c0c0",
        "blocks": [
            {
                "blockHeader": {
                    "parentHash": "0x3d5474a64dd8c4671e1e58875e70e4a55ef9b8a4bb56fc5c6088b2a66b5eb732",
                    "uncleHash": "0x1dcc4de8dec75d7aab85b567b6ccd41ad312451b948a7413f0a142fd40d49347",
                    "coinbase": "0x2adc25665018aa1fe0e6bc666dac8fc2697ff9ba",
                    "stateRoot": "0xa4b82f94f7b42ebfed6f2dad281663bf62c6a39cd88acaa8c0d7cde4bdcea384",
                    "transactionsTrie": "0x862d34524884c03649482b2f69dbb84ed3091a3c4acc7943f5e1fb4c1fa934ec",
                    "receiptTrie": "0xf5ec96c7e72e405c1f576103b23b6711441a16630cbb5048067830194bf8f49e",
                    "bloom": "0x00000000000000000000000000000000000000000000000000000000000000000000000000000000000000000000000000000000000000000000000000000000000000000000000000000000000000000000000000000000000000000000000000000000000000000000000000000000000000000000000000000000000000000000000000000000000000000000000000000000000000000000000000000000000000000000000000000000000000000000000000000000000000000000000000000000000000000000000000000000000000000000000000000000000000000000000000000000000000000000000000000000000000000000000000000000",
                    "difficulty": "0x00",
                    "number": "0x01",
                    "gasLimit": "0x07270e00",
                    "gasUsed": "0x989680",
                    "timestamp": "0x03e8",
                    "extraData": "0x00",
                    "mixHash": "0x0000000000000000000000000000000000000000000000000000000000000000",
                    "nonce": "0x0000000000000000",
                    "baseFeePerGas": "0x07",
                    "withdrawalsRoot": "0x56e81f171bcc55a6ff8345e692c0f86e5b48e01b996cadc001622fb5e363b421",
                    "hash": "0x7889588a9504744199c5d3aee04a6ecb1f9e5bb0141b4baf0ae294e9685d82a7"
                },
                "transactions": [
                    {
                        "type": "0x00",
                        "chainId": "0x01",
                        "nonce": "0x00",
                        "gasPrice": "0x0a",
                        "gasLimit": "0x989680",
                        "to": "0xeedf37e7b55628c20d7e2173fbdfd2483842323c",
                        "value": "0x00",
                        "data": "0x",
                        "v": "0x25",
                        "r": "0x2f4b3b0993b984377d091c3c381dbdac0bde63c3b5a54920244f68dc83db18b7",
                        "s": "0x30a444256dc149b24cf6ed0c691ade39bd92ae19dea70f5dada57b8b7fc8585a",
                        "sender": "0x1ad9bc24818784172ff393bb6f89f094d4d2ca29"
                    }
                ],
                "uncleHeaders": [],
                "withdrawals": [],
                "receipts": [
                    {
                        "transactionHash": "0xd6cc9461192c25a0ca48c7c122bf4f7c35a1d42c976663bf3e14bef5d19e4c73",
                        "type": "0x00",
                        "cumulativeGasUsed": "0x989680",
                        "bloom": "0x00000000000000000000000000000000000000000000000000000000000000000000000000000000000000000000000000000000000000000000000000000000000000000000000000000000000000000000000000000000000000000000000000000000000000000000000000000000000000000000000000000000000000000000000000000000000000000000000000000000000000000000000000000000000000000000000000000000000000000000000000000000000000000000000000000000000000000000000000000000000000000000000000000000000000000000000000000000000000000000000000000000000000000000000000000000",
                        "logs": [],
                        "status": false,
                        "rlp": "0xf901098083989680b9010000000000000000000000000000000000000000000000000000000000000000000000000000000000000000000000000000000000000000000000000000000000000000000000000000000000000000000000000000000000000000000000000000000000000000000000000000000000000000000000000000000000000000000000000000000000000000000000000000000000000000000000000000000000000000000000000000000000000000000000000000000000000000000000000000000000000000000000000000000000000000000000000000000000000000000000000000000000000000000000000000000000000000000000000000000000c0"
                    }
                ],
                "rlp": "0xf90281f90218a03d5474a64dd8c4671e1e58875e70e4a55ef9b8a4bb56fc5c6088b2a66b5eb732a01dcc4de8dec75d7aab85b567b6ccd41ad312451b948a7413f0a142fd40d49347942adc25665018aa1fe0e6bc666dac8fc2697ff9baa0a4b82f94f7b42ebfed6f2dad281663bf62c6a39cd88acaa8c0d7cde4bdcea384a0862d34524884c03649482b2f69dbb84ed3091a3c4acc7943f5e1fb4c1fa934eca0f5ec96c7e72e405c1f576103b23b6711441a16630cbb5048067830194bf8f49eb901000000000000000000000000000000000000000000000000000000000000000000000000000000000000000000000000000000000000000000000000000000000000000000000000000000000000000000000000000000000000000000000000000000000000000000000000000000000000000000000000000000000000000000000000000000000000000000000000000000000000000000000000000000000000000000000000000000000000000000000000000000000000000000000000000000000000000000000000000000000000000000000000000000000000000000000000000000000000000000000000000000000000000000000000000000000080018407270e00839896808203e800a0000000000000000000000000000000000000000000000000000000000000000088000000000000000007a056e81f171bcc55a6ff8345e692c0f86e5b48e01b996cadc001622fb5e363b421f862f860800a8398968094eedf37e7b55628c20d7e2173fbdfd2483842323c808025a02f4b3b0993b984377d091c3c381dbdac0bde63c3b5a54920244f68dc83db18b7a030a444256dc149b24cf6ed0c691ade39bd92ae19dea70f5dada57b8b7fc8585ac0c0",
                "blocknumber": "1"
            }
        ],
        "sealEngine": "NoProof",
        "_info": {
            "hash": "0xde97f56ff21b4493344934b7f129aec7af3b2d6e451f4737948f6680e3dd7bd1",
            "fixture-format": "blockchain_test",
            "comment": "`execution-specs` generated test",
            "filling-transition-tool": "2.19.0",
            "description": "Test CREATE2 with oversized initcode and insufficient balance.\n\nRegression test for\nhttps://github.com/ethereum/execution-specs/issues/914\n\nCREATE2 is called with an endowment of 1123123123 (exceeds the\ncontract's zero balance). The initcode size check must take\npriority over the balance check:\n\n- Initcode too large: consumes all gas, exits scope, SSTORE(1, 1)\n  is never reached, so storage slot 1 remains 0.\n- Initcode within limit: insufficient balance pushes 0, execution\n  continues, SSTORE(1, 1) executes, so storage slot 1 becomes 1.",
            "url": "https://github.com/ethereum/execution-specs/blob/tests-bal@v5.6.1/tests/shanghai/eip3860_initcode/test_initcode.py#L701",
            "metadata": {
                "opcode_count": {}
            },
            "reference-spec": "https://github.com/ethereum/EIPs/blob/master/EIPS/eip-3860.md",
            "reference-spec-version": "9ee005834d488e381455cf86a56c741a2e854a17"
        }
    },
    "tests/shanghai/eip3860_initcode/test_initcode.py::test_create2_oversized_initcode_with_insufficient_balance[fork_Shanghai-blockchain_test_from_state_test-initcode_within_limit]": {
        "network": "Shanghai",
        "genesisBlockHeader": {
            "parentHash": "0x0000000000000000000000000000000000000000000000000000000000000000",
            "uncleHash": "0x1dcc4de8dec75d7aab85b567b6ccd41ad312451b948a7413f0a142fd40d49347",
            "coinbase": "0x0000000000000000000000000000000000000000",
            "stateRoot": "0x832b2fafce35a496d26e6d0fe17a67429cf1afb2236d989ffadd8b7a1929be8f",
            "transactionsTrie": "0x56e81f171bcc55a6ff8345e692c0f86e5b48e01b996cadc001622fb5e363b421",
            "receiptTrie": "0x56e81f171bcc55a6ff8345e692c0f86e5b48e01b996cadc001622fb5e363b421",
            "bloom": "0x00000000000000000000000000000000000000000000000000000000000000000000000000000000000000000000000000000000000000000000000000000000000000000000000000000000000000000000000000000000000000000000000000000000000000000000000000000000000000000000000000000000000000000000000000000000000000000000000000000000000000000000000000000000000000000000000000000000000000000000000000000000000000000000000000000000000000000000000000000000000000000000000000000000000000000000000000000000000000000000000000000000000000000000000000000000",
            "difficulty": "0x00",
            "number": "0x00",
            "gasLimit": "0x07270e00",
            "gasUsed": "0x00",
            "timestamp": "0x00",
            "extraData": "0x00",
            "mixHash": "0x0000000000000000000000000000000000000000000000000000000000000000",
            "nonce": "0x0000000000000000",
            "baseFeePerGas": "0x07",
            "withdrawalsRoot": "0x56e81f171bcc55a6ff8345e692c0f86e5b48e01b996cadc001622fb5e363b421",
            "hash": "0x177245fca28418b3d6b381d76c696d4b85679b7174c0f7a6a34ee018b0fc48fa"
        },
        "pre": {
            "0x49da25c24b6023fb00f5ea6118c1ffced61cb1ec": {
                "nonce": "0x01",
                "balance": "0x00",
                "code": "0x600061010060006342f17fb3f5506001600155",
                "storage": {}
            },
            "0x1ad9bc24818784172ff393bb6f89f094d4d2ca29": {
                "nonce": "0x00",
                "balance": "0x3635c9adc5dea00000",
                "code": "0x",
                "storage": {}
            }
        },
        "postState": {
            "0x49da25c24b6023fb00f5ea6118c1ffced61cb1ec": {
                "nonce": "0x01",
                "balance": "0x00",
                "code": "0x600061010060006342f17fb3f5506001600155",
                "storage": {
                    "0x01": "0x01"
                }
            },
            "0x1ad9bc24818784172ff393bb6f89f094d4d2ca29": {
                "nonce": "0x01",
                "balance": "0x3635c9adc5de948630",
                "code": "0x",
                "storage": {}
            },
            "0x2adc25665018aa1fe0e6bc666dac8fc2697ff9ba": {
                "nonce": "0x00",
                "balance": "0x037158",
                "code": "0x",
                "storage": {}
            }
        },
        "lastblockhash": "0xc1d96a07b2a1b9ef539bdb44e8a3fb6266d6b872ba3a813ef495d75d25b1c9c5",
        "config": {
            "network": "Shanghai",
            "chainid": "0x01"
        },
        "genesisRLP": "0xf90219f90213a00000000000000000000000000000000000000000000000000000000000000000a01dcc4de8dec75d7aab85b567b6ccd41ad312451b948a7413f0a142fd40d49347940000000000000000000000000000000000000000a0832b2fafce35a496d26e6d0fe17a67429cf1afb2236d989ffadd8b7a1929be8fa056e81f171bcc55a6ff8345e692c0f86e5b48e01b996cadc001622fb5e363b421a056e81f171bcc55a6ff8345e692c0f86e5b48e01b996cadc001622fb5e363b421b901000000000000000000000000000000000000000000000000000000000000000000000000000000000000000000000000000000000000000000000000000000000000000000000000000000000000000000000000000000000000000000000000000000000000000000000000000000000000000000000000000000000000000000000000000000000000000000000000000000000000000000000000000000000000000000000000000000000000000000000000000000000000000000000000000000000000000000000000000000000000000000000000000000000000000000000000000000000000000000000000000000000000000000000000000000000080808407270e00808000a0000000000000000000000000000000000000000000000000000000000000000088000000000000000007a056e81f171bcc55a6ff8345e692c0f86e5b48e01b996cadc001622fb5e363b421c0c0c0",
        "blocks": [
            {
                "blockHeader": {
                    "parentHash": "0x177245fca28418b3d6b381d76c696d4b85679b7174c0f7a6a34ee018b0fc48fa",
                    "uncleHash": "0x1dcc4de8dec75d7aab85b567b6ccd41ad312451b948a7413f0a142fd40d49347",
                    "coinbase": "0x2adc25665018aa1fe0e6bc666dac8fc2697ff9ba",
                    "stateRoot": "0x2c361a558571f33693f63e87f8d7ccc7d31f9b137ccc1d1d66c685d6c0aeff7e",
                    "transactionsTrie": "0xfd78636e04483a67e5b1bca3a688fd6209a185f4b44368a267bfc2a7f203f346",
                    "receiptTrie": "0xf46aa9889a5d7b8e766fbd13cb2e2bb69a47f3cc13492a08de0d261b953d659c",
                    "bloom": "0x00000000000000000000000000000000000000000000000000000000000000000000000000000000000000000000000000000000000000000000000000000000000000000000000000000000000000000000000000000000000000000000000000000000000000000000000000000000000000000000000000000000000000000000000000000000000000000000000000000000000000000000000000000000000000000000000000000000000000000000000000000000000000000000000000000000000000000000000000000000000000000000000000000000000000000000000000000000000000000000000000000000000000000000000000000000",
                    "difficulty": "0x00",
                    "number": "0x01",
                    "gasLimit": "0x07270e00",
                    "gasUsed": "0x0125c8",
                    "timestamp": "0x03e8",
                    "extraData": "0x00",
                    "mixHash": "0x0000000000000000000000000000000000000000000000000000000000000000",
                    "nonce": "0x0000000000000000",
                    "baseFeePerGas": "0x07",
                    "withdrawalsRoot": "0x56e81f171bcc55a6ff8345e692c0f86e5b48e01b996cadc001622fb5e363b421",
                    "hash": "0xc1d96a07b2a1b9ef539bdb44e8a3fb6266d6b872ba3a813ef495d75d25b1c9c5"
                },
                "transactions": [
                    {
                        "type": "0x00",
                        "chainId": "0x01",
                        "nonce": "0x00",
                        "gasPrice": "0x0a",
                        "gasLimit": "0x989680",
                        "to": "0x49da25c24b6023fb00f5ea6118c1ffced61cb1ec",
                        "value": "0x00",
                        "data": "0x",
                        "v": "0x26",
                        "r": "0x9b72dd7c1d7a0cc5820dba9e72e3998ff91160a21ad72bb621b30acf7fd61ee7",
                        "s": "0x2d138bef0f408cf21f9df38f202c5ba0ce6150edd0ce8676177c51683a09470d",
                        "sender": "0x1ad9bc24818784172ff393bb6f89f094d4d2ca29"
                    }
                ],
                "uncleHeaders": [],
                "withdrawals": [],
                "receipts": [
                    {
                        "transactionHash": "0xad14c95d798baa70d79a045a599c634d415797558c6987489201e3d65a059c96",
                        "type": "0x00",
                        "cumulativeGasUsed": "0x0125c8",
                        "bloom": "0x00000000000000000000000000000000000000000000000000000000000000000000000000000000000000000000000000000000000000000000000000000000000000000000000000000000000000000000000000000000000000000000000000000000000000000000000000000000000000000000000000000000000000000000000000000000000000000000000000000000000000000000000000000000000000000000000000000000000000000000000000000000000000000000000000000000000000000000000000000000000000000000000000000000000000000000000000000000000000000000000000000000000000000000000000000000",
                        "logs": [],
                        "status": true,
                        "rlp": "0xf9010901830125c8b9010000000000000000000000000000000000000000000000000000000000000000000000000000000000000000000000000000000000000000000000000000000000000000000000000000000000000000000000000000000000000000000000000000000000000000000000000000000000000000000000000000000000000000000000000000000000000000000000000000000000000000000000000000000000000000000000000000000000000000000000000000000000000000000000000000000000000000000000000000000000000000000000000000000000000000000000000000000000000000000000000000000000000000000000000000000000c0"
                    }
                ],
                "rlp": "0xf90281f90218a0177245fca28418b3d6b381d76c696d4b85679b7174c0f7a6a34ee018b0fc48faa01dcc4de8dec75d7aab85b567b6ccd41ad312451b948a7413f0a142fd40d49347942adc25665018aa1fe0e6bc666dac8fc2697ff9baa02c361a558571f33693f63e87f8d7ccc7d31f9b137ccc1d1d66c685d6c0aeff7ea0fd78636e04483a67e5b1bca3a688fd6209a185f4b44368a267bfc2a7f203f346a0f46aa9889a5d7b8e766fbd13cb2e2bb69a47f3cc13492a08de0d261b953d659cb901000000000000000000000000000000000000000000000000000000000000000000000000000000000000000000000000000000000000000000000000000000000000000000000000000000000000000000000000000000000000000000000000000000000000000000000000000000000000000000000000000000000000000000000000000000000000000000000000000000000000000000000000000000000000000000000000000000000000000000000000000000000000000000000000000000000000000000000000000000000000000000000000000000000000000000000000000000000000000000000000000000000000000000000000000000000080018407270e00830125c88203e800a0000000000000000000000000000000000000000000000000000000000000000088000000000000000007a056e81f171bcc55a6ff8345e692c0f86e5b48e01b996cadc001622fb5e363b421f862f860800a839896809449da25c24b6023fb00f5ea6118c1ffced61cb1ec808026a09b72dd7c1d7a0cc5820dba9e72e3998ff91160a21ad72bb621b30acf7fd61ee7a02d138bef0f408cf21f9df38f202c5ba0ce6150edd0ce8676177c51683a09470dc0c0",
                "blocknumber": "1"
            }
        ],
        "sealEngine": "NoProof",
        "_info": {
            "hash": "0x9c5db5a9f03b0028dec9b5606cc16befb17871d3d3296b6d4c3933db9b52e10b",
            "fixture-format": "blockchain_test",
            "comment": "`execution-specs` generated test",
            "filling-transition-tool": "2.19.0",
            "description": "Test CREATE2 with oversized initcode and insufficient balance.\n\nRegression test for\nhttps://github.com/ethereum/execution-specs/issues/914\n\nCREATE2 is called with an endowment of 1123123123 (exceeds the\ncontract's zero balance). The initcode size check must take\npriority over the balance check:\n\n- Initcode too large: consumes all gas, exits scope, SSTORE(1, 1)\n  is never reached, so storage slot 1 remains 0.\n- Initcode within limit: insufficient balance pushes 0, execution\n  continues, SSTORE(1, 1) executes, so storage slot 1 becomes 1.",
            "url": "https://github.com/ethereum/execution-specs/blob/tests-bal@v5.6.1/tests/shanghai/eip3860_initcode/test_initcode.py#L701",
            "metadata": {
                "opcode_count": {}
            },
            "reference-spec": "https://github.com/ethereum/EIPs/blob/master/EIPS/eip-3860.md",
            "reference-spec-version": "9ee005834d488e381455cf86a56c741a2e854a17"
        }
    }
}