{
    "tests/ported_static/stCallDelegateCodesCallCodeHomestead/test_callcallcodecallcode_011.py::test_callcallcodecallcode_011[fork_Cancun-blockchain_test_from_state_test]": {
        "network": "Cancun",
        "genesisBlockHeader": {
            "parentHash": "0x0000000000000000000000000000000000000000000000000000000000000000",
            "uncleHash": "0x1dcc4de8dec75d7aab85b567b6ccd41ad312451b948a7413f0a142fd40d49347",
            "coinbase": "0x0000000000000000000000000000000000000000",
            "stateRoot": "0xa0695c435885d536b27a2441e1c60099d75c6375e2547c26ffe16eff14a14b40",
            "transactionsTrie": "0x56e81f171bcc55a6ff8345e692c0f86e5b48e01b996cadc001622fb5e363b421",
            "receiptTrie": "0x56e81f171bcc55a6ff8345e692c0f86e5b48e01b996cadc001622fb5e363b421",
            "bloom": "0x00000000000000000000000000000000000000000000000000000000000000000000000000000000000000000000000000000000000000000000000000000000000000000000000000000000000000000000000000000000000000000000000000000000000000000000000000000000000000000000000000000000000000000000000000000000000000000000000000000000000000000000000000000000000000000000000000000000000000000000000000000000000000000000000000000000000000000000000000000000000000000000000000000000000000000000000000000000000000000000000000000000000000000000000000000000",
            "difficulty": "0x00",
            "number": "0x00",
            "gasLimit": "0x01c9c380",
            "gasUsed": "0x00",
            "timestamp": "0x00",
            "extraData": "0x00",
            "mixHash": "0x0000000000000000000000000000000000000000000000000000000000000000",
            "nonce": "0x0000000000000000",
            "baseFeePerGas": "0x0b",
            "withdrawalsRoot": "0x56e81f171bcc55a6ff8345e692c0f86e5b48e01b996cadc001622fb5e363b421",
            "blobGasUsed": "0x00",
            "excessBlobGas": "0x00",
            "parentBeaconBlockRoot": "0x0000000000000000000000000000000000000000000000000000000000000000",
            "hash": "0x0e9bf31f8012e87fcb4507e9b427d58f9930516bb72988e77e710031f4d8c81d"
        },
        "pre": {
            "0x000f3df6d732807ef1319fb7b8bb8522d0beac02": {
                "nonce": "0x01",
                "balance": "0x00",
                "code": "0x3373fffffffffffffffffffffffffffffffffffffffe14604d57602036146024575f5ffd5b5f35801560495762001fff810690815414603c575f5ffd5b62001fff01545f5260205ff35b5f5ffd5b62001fff42064281555f359062001fff015500",
                "storage": {}
            },
            "0xd66f224cbd2fabb21b17bb53c56118f32f62ebd6": {
                "nonce": "0x00",
                "balance": "0x0de0b6b3a7640000",
                "code": "0x",
                "storage": {}
            },
            "0xad29eb8067966dc55697f1235481e0908eaf88b5": {
                "nonce": "0x00",
                "balance": "0x00",
                "code": "0x600160035533600455346006553061014a553261014c55366101505538610152553a6101545500",
                "storage": {}
            },
            "0x49c9d4a5a817854ee4c8eb0937fd1327d4b03a43": {
                "nonce": "0x00",
                "balance": "0x00",
                "code": "0x604060006040600073ad29eb8067966dc55697f1235481e0908eaf88b562030d40f460025500",
                "storage": {}
            },
            "0x4561c5071ef98beab48457590093b7738872f3e4": {
                "nonce": "0x00",
                "balance": "0x00",
                "code": "0x60406000604060007349c9d4a5a817854ee4c8eb0937fd1327d4b03a43620493e0f460015500",
                "storage": {}
            },
            "0xe3779dd9acc13e0e847bbdf9a7dcaedb8f6ea86a": {
                "nonce": "0x00",
                "balance": "0x0de0b6b3a7640000",
                "code": "0x60406000604060006001734561c5071ef98beab48457590093b7738872f3e462055730f260005500",
                "storage": {}
            }
        },
        "postState": {
            "0x000f3df6d732807ef1319fb7b8bb8522d0beac02": {
                "nonce": "0x01",
                "balance": "0x00",
                "code": "0x3373fffffffffffffffffffffffffffffffffffffffe14604d57602036146024575f5ffd5b5f35801560495762001fff810690815414603c575f5ffd5b62001fff01545f5260205ff35b5f5ffd5b62001fff42064281555f359062001fff015500",
                "storage": {
                    "0x03e8": "0x03e8"
                }
            },
            "0xd66f224cbd2fabb21b17bb53c56118f32f62ebd6": {
                "nonce": "0x01",
                "balance": "0x0de0b6b3a739784e",
                "code": "0x",
                "storage": {}
            },
            "0xad29eb8067966dc55697f1235481e0908eaf88b5": {
                "nonce": "0x00",
                "balance": "0x00",
                "code": "0x600160035533600455346006553061014a553261014c55366101505538610152553a6101545500",
                "storage": {}
            },
            "0x49c9d4a5a817854ee4c8eb0937fd1327d4b03a43": {
                "nonce": "0x00",
                "balance": "0x00",
                "code": "0x604060006040600073ad29eb8067966dc55697f1235481e0908eaf88b562030d40f460025500",
                "storage": {}
            },
            "0x4561c5071ef98beab48457590093b7738872f3e4": {
                "nonce": "0x00",
                "balance": "0x00",
                "code": "0x60406000604060007349c9d4a5a817854ee4c8eb0937fd1327d4b03a43620493e0f460015500",
                "storage": {}
            },
            "0xe3779dd9acc13e0e847bbdf9a7dcaedb8f6ea86a": {
                "nonce": "0x00",
                "balance": "0x0de0b6b3a7640000",
                "code": "0x60406000604060006001734561c5071ef98beab48457590093b7738872f3e462055730f260005500",
                "storage": {
                    "0x03": "0x01",
                    "0x04": "0xe3779dd9acc13e0e847bbdf9a7dcaedb8f6ea86a",
                    "0x06": "0x01",
                    "0x014a": "0xe3779dd9acc13e0e847bbdf9a7dcaedb8f6ea86a",
                    "0x014c": "0xd66f224cbd2fabb21b17bb53c56118f32f62ebd6",
                    "0x0150": "0x40",
                    "0x0152": "0x27",
                    "0x0154": "0x0a",
                    "0x02": "0x01",
                    "0x01": "0x01",
                    "0x00": "0x01"
                }
            }
        },
        "lastblockhash": "0x25f1ef8d3eb91c2ff97adcaccc6d198f6880f987f411c13253d89dffb3e31a24",
        "config": {
            "network": "Cancun",
            "chainid": "0x01",
            "blobSchedule": {
                "Cancun": {
                    "target": "0x03",
                    "max": "0x06",
                    "baseFeeUpdateFraction": "0x32f0ed"
                }
            }
        },
        "genesisRLP": "0xf9023cf90236a00000000000000000000000000000000000000000000000000000000000000000a01dcc4de8dec75d7aab85b567b6ccd41ad312451b948a7413f0a142fd40d49347940000000000000000000000000000000000000000a0a0695c435885d536b27a2441e1c60099d75c6375e2547c26ffe16eff14a14b40a056e81f171bcc55a6ff8345e692c0f86e5b48e01b996cadc001622fb5e363b421a056e81f171bcc55a6ff8345e692c0f86e5b48e01b996cadc001622fb5e363b421b901000000000000000000000000000000000000000000000000000000000000000000000000000000000000000000000000000000000000000000000000000000000000000000000000000000000000000000000000000000000000000000000000000000000000000000000000000000000000000000000000000000000000000000000000000000000000000000000000000000000000000000000000000000000000000000000000000000000000000000000000000000000000000000000000000000000000000000000000000000000000000000000000000000000000000000000000000000000000000000000000000000000000000000000000000000000080808401c9c380808000a000000000000000000000000000000000000000000000000000000000000000008800000000000000000ba056e81f171bcc55a6ff8345e692c0f86e5b48e01b996cadc001622fb5e363b4218080a00000000000000000000000000000000000000000000000000000000000000000c0c0c0",
        "blocks": [
            {
                "blockHeader": {
                    "parentHash": "0x0e9bf31f8012e87fcb4507e9b427d58f9930516bb72988e77e710031f4d8c81d",
                    "uncleHash": "0x1dcc4de8dec75d7aab85b567b6ccd41ad312451b948a7413f0a142fd40d49347",
                    "coinbase": "0x2adc25665018aa1fe0e6bc666dac8fc2697ff9ba",
                    "stateRoot": "0x000d4a9f6fc8c8223e09fe80db203f84734e735692123f8192190a33607cc609",
                    "transactionsTrie": "0xe2afc5d357181910c0a6d19edb09bf205b550e633c2a9369526daf155e7f9818",
                    "receiptTrie": "0x49f1ea549903fc6ba945866edb76590389c592ba1ca554ce0e14326f98bdc0ba",
                    "bloom": "0x00000000000000000000000000000000000000000000000000000000000000000000000000000000000000000000000000000000000000000000000000000000000000000000000000000000000000000000000000000000000000000000000000000000000000000000000000000000000000000000000000000000000000000000000000000000000000000000000000000000000000000000000000000000000000000000000000000000000000000000000000000000000000000000000000000000000000000000000000000000000000000000000000000000000000000000000000000000000000000000000000000000000000000000000000000000",
                    "difficulty": "0x00",
                    "number": "0x01",
                    "gasLimit": "0x01c9c380",
                    "gasUsed": "0x0440c5",
                    "timestamp": "0x03e8",
                    "extraData": "0x00",
                    "mixHash": "0x0000000000000000000000000000000000000000000000000000000000020000",
                    "nonce": "0x0000000000000000",
                    "baseFeePerGas": "0x0a",
                    "withdrawalsRoot": "0x56e81f171bcc55a6ff8345e692c0f86e5b48e01b996cadc001622fb5e363b421",
                    "blobGasUsed": "0x00",
                    "excessBlobGas": "0x00",
                    "parentBeaconBlockRoot": "0x0000000000000000000000000000000000000000000000000000000000000000",
                    "hash": "0x25f1ef8d3eb91c2ff97adcaccc6d198f6880f987f411c13253d89dffb3e31a24"
                },
                "transactions": [
                    {
                        "type": "0x00",
                        "chainId": "0x01",
                        "nonce": "0x00",
                        "gasPrice": "0x0a",
                        "gasLimit": "0x2dc6c0",
                        "to": "0xe3779dd9acc13e0e847bbdf9a7dcaedb8f6ea86a",
                        "value": "0x00",
                        "data": "0x",
                        "v": "0x26",
                        "r": "0x443380a01e451fe31ad11078629c38ca359ecc9a00d0dba34d4eb746b6795ad9",
                        "s": "0x16cc49ccc78e35118b8fa5cf07d4a352862a3331be3363c6d6ec30d8bb1e5c23",
                        "sender": "0xd66f224cbd2fabb21b17bb53c56118f32f62ebd6"
                    }
                ],
                "uncleHeaders": [],
                "withdrawals": [],
                "receipts": [
                    {
                        "transactionHash": "0x88c26746472407951a99cb5b7327b5be7790cfc5c18c1ce0f5927b0d64398cc7",
                        "type": "0x00",
                        "cumulativeGasUsed": "0x0440c5",
                        "bloom": "0x00000000000000000000000000000000000000000000000000000000000000000000000000000000000000000000000000000000000000000000000000000000000000000000000000000000000000000000000000000000000000000000000000000000000000000000000000000000000000000000000000000000000000000000000000000000000000000000000000000000000000000000000000000000000000000000000000000000000000000000000000000000000000000000000000000000000000000000000000000000000000000000000000000000000000000000000000000000000000000000000000000000000000000000000000000000",
                        "logs": [],
                        "status": true,
                        "rlp": "0xf9010901830440c5b9010000000000000000000000000000000000000000000000000000000000000000000000000000000000000000000000000000000000000000000000000000000000000000000000000000000000000000000000000000000000000000000000000000000000000000000000000000000000000000000000000000000000000000000000000000000000000000000000000000000000000000000000000000000000000000000000000000000000000000000000000000000000000000000000000000000000000000000000000000000000000000000000000000000000000000000000000000000000000000000000000000000000000000000000000000000000c0"
                    }
                ],
                "rlp": "0xf902a4f9023ba00e9bf31f8012e87fcb4507e9b427d58f9930516bb72988e77e710031f4d8c81da01dcc4de8dec75d7aab85b567b6ccd41ad312451b948a7413f0a142fd40d49347942adc25665018aa1fe0e6bc666dac8fc2697ff9baa0000d4a9f6fc8c8223e09fe80db203f84734e735692123f8192190a33607cc609a0e2afc5d357181910c0a6d19edb09bf205b550e633c2a9369526daf155e7f9818a049f1ea549903fc6ba945866edb76590389c592ba1ca554ce0e14326f98bdc0bab901000000000000000000000000000000000000000000000000000000000000000000000000000000000000000000000000000000000000000000000000000000000000000000000000000000000000000000000000000000000000000000000000000000000000000000000000000000000000000000000000000000000000000000000000000000000000000000000000000000000000000000000000000000000000000000000000000000000000000000000000000000000000000000000000000000000000000000000000000000000000000000000000000000000000000000000000000000000000000000000000000000000000000000000000000000000080018401c9c380830440c58203e800a000000000000000000000000000000000000000000000000000000000000200008800000000000000000aa056e81f171bcc55a6ff8345e692c0f86e5b48e01b996cadc001622fb5e363b4218080a00000000000000000000000000000000000000000000000000000000000000000f862f860800a832dc6c094e3779dd9acc13e0e847bbdf9a7dcaedb8f6ea86a808026a0443380a01e451fe31ad11078629c38ca359ecc9a00d0dba34d4eb746b6795ad9a016cc49ccc78e35118b8fa5cf07d4a352862a3331be3363c6d6ec30d8bb1e5c23c0c0",
                "blocknumber": "1"
            }
        ],
        "sealEngine": "NoProof",
        "_info": {
            "hash": "0x410ba3a4966984b4481db512048343301fa7cecc258f96ad545fad1e1f757350",
            "fixture-format": "blockchain_test",
            "comment": "`execution-specs` generated test",
            "filling-transition-tool": "2.19.0",
            "description": "Test_callcallcodecallcode_011.",
            "url": "https://github.com/ethereum/execution-specs/blob/tests-snobal-devnet-5@v8037.0.0/tests/ported_static/stCallDelegateCodesCallCodeHomestead/test_callcallcodecallcode_011.py#L24",
            "metadata": {
                "opcode_count": {}
            }
        }
    }
}