{
    "tests/osaka/eip7939_count_leading_zeros/test_count_leading_zeros.py::test_clz_stack_underflow[fork_Osaka-state_test]": {
        "env": {
            "currentCoinbase": "0x2adc25665018aa1fe0e6bc666dac8fc2697ff9ba",
            "currentGasLimit": "0x07270e00",
            "currentNumber": "0x01",
            "currentTimestamp": "0x03e8",
            "currentRandom": "0x0000000000000000000000000000000000000000000000000000000000000000",
            "currentDifficulty": "0x00",
            "currentBaseFee": "0x07",
            "currentExcessBlobGas": "0x00"
        },
        "pre": {
            "0x12648314b38618ff74f0cad830da378893bd3563": {
                "nonce": "0x00",
                "balance": "0x3635c9adc5dea00000",
                "code": "0x",
                "storage": {}
            },
            "0xb2fc04207359d5d8194918c1a5552ecdb0505fb3": {
                "nonce": "0x01",
                "balance": "0x00",
                "code": "0x1e00",
                "storage": {}
            },
            "0xb2fc04207359d5d8194918c1a5552ecdb05060b3": {
                "nonce": "0x01",
                "balance": "0x00",
                "code": "0x6000600060006000600073b2fc04207359d5d8194918c1a5552ecdb0505fb361fffff1600055",
                "storage": {
                    "0x00": "0xdeadbeef"
                }
            }
        },
        "transaction": {
            "nonce": "0x00",
            "gasPrice": "0x0a",
            "gasLimit": [
                "0x030d40"
            ],
            "to": "0xb2fc04207359d5d8194918c1a5552ecdb05060b3",
            "value": [
                "0x00"
            ],
            "data": [
                "0x"
            ],
            "sender": "0x12648314b38618ff74f0cad830da378893bd3563",
            "secretKey": "0xb78c3f48e120cd499fb44ad6b2fc04207359d5d8194918c1a5552ecdb0505fb3"
        },
        "post": {
            "Osaka": [
                {
                    "hash": "0xb56cface43c4ea6dc3daa9ddb9d57d7fb2fbed0cf395c7f213b6d8c4a519d815",
                    "logs": "0x1dcc4de8dec75d7aab85b567b6ccd41ad312451b948a7413f0a142fd40d49347",
                    "txbytes": "0xf860800a83030d4094b2fc04207359d5d8194918c1a5552ecdb05060b3808026a0188894aa247501d0df2cbf546d6705f60c765c354afef873957d3085f73a81bba066906860d80bc82251e731792e4fbe22e765b0f3589e9f4dc75d71b8b0dc1c7d",
                    "indexes": {
                        "data": 0,
                        "gas": 0,
                        "value": 0
                    },
                    "state": {
                        "0x12648314b38618ff74f0cad830da378893bd3563": {
                            "nonce": "0x01",
                            "balance": "0x3635c9adc5de925d6a",
                            "code": "0x",
                            "storage": {}
                        },
                        "0xb2fc04207359d5d8194918c1a5552ecdb0505fb3": {
                            "nonce": "0x01",
                            "balance": "0x00",
                            "code": "0x1e00",
                            "storage": {}
                        },
                        "0xb2fc04207359d5d8194918c1a5552ecdb05060b3": {
                            "nonce": "0x01",
                            "balance": "0x00",
                            "code": "0x6000600060006000600073b2fc04207359d5d8194918c1a5552ecdb0505fb361fffff1600055",
                            "storage": {}
                        },
                        "0x2adc25665018aa1fe0e6bc666dac8fc2697ff9ba": {
                            "nonce": "0x00",
                            "balance": "0x04172d",
                            "code": "0x",
                            "storage": {}
                        }
                    }
                }
            ]
        },
        "config": {
            "blobSchedule": {
                "Cancun": {
                    "target": "0x03",
                    "max": "0x06",
                    "baseFeeUpdateFraction": "0x32f0ed"
                },
                "Prague": {
                    "target": "0x06",
                    "max": "0x09",
                    "baseFeeUpdateFraction": "0x4c6964"
                },
                "Osaka": {
                    "target": "0x06",
                    "max": "0x09",
                    "baseFeeUpdateFraction": "0x4c6964"
                }
            },
            "chainid": "0x01"
        },
        "_info": {
            "hash": "0x84c3fb70969a52204c5f70cba45828a677bc584968c0e22220addb01e5ce9dda",
            "comment": "`execution-specs` generated test",
            "filling-transition-tool": "2.18.0rc6",
            "description": "Test CLZ opcode with empty stack (should revert due to stack underflow).",
            "url": "https://github.com/ethereum/execution-specs/blob/tests-v5.4.0/tests/osaka/eip7939_count_leading_zeros/test_count_leading_zeros.py#L195",
            "fixture-format": "state_test",
            "reference-spec": "https://github.com/ethereum/EIPs/blob/master/EIPS/eip-7939.md",
            "reference-spec-version": "c8321494fdfbfda52ad46c3515a7ca5dc86b857c"
        }
    }
}