{
    "tests/ported_static/stStaticCall/test_static_callcodecallcall_100_suicide_middle2.py::test_static_callcodecallcall_100_suicide_middle2[fork_Cancun-blockchain_test_from_state_test--v0]": {
        "network": "Cancun",
        "genesisBlockHeader": {
            "parentHash": "0x0000000000000000000000000000000000000000000000000000000000000000",
            "uncleHash": "0x1dcc4de8dec75d7aab85b567b6ccd41ad312451b948a7413f0a142fd40d49347",
            "coinbase": "0x0000000000000000000000000000000000000000",
            "stateRoot": "0x25ac1f41a3a1a733f49419d6ebae67aa9d8ede1610f14a654f5aa81732f91c66",
            "transactionsTrie": "0x56e81f171bcc55a6ff8345e692c0f86e5b48e01b996cadc001622fb5e363b421",
            "receiptTrie": "0x56e81f171bcc55a6ff8345e692c0f86e5b48e01b996cadc001622fb5e363b421",
            "bloom": "0x00000000000000000000000000000000000000000000000000000000000000000000000000000000000000000000000000000000000000000000000000000000000000000000000000000000000000000000000000000000000000000000000000000000000000000000000000000000000000000000000000000000000000000000000000000000000000000000000000000000000000000000000000000000000000000000000000000000000000000000000000000000000000000000000000000000000000000000000000000000000000000000000000000000000000000000000000000000000000000000000000000000000000000000000000000000",
            "difficulty": "0x00",
            "number": "0x00",
            "gasLimit": "0x01c9c380",
            "gasUsed": "0x00",
            "timestamp": "0x00",
            "extraData": "0x00",
            "mixHash": "0x0000000000000000000000000000000000000000000000000000000000000000",
            "nonce": "0x0000000000000000",
            "baseFeePerGas": "0x0b",
            "withdrawalsRoot": "0x56e81f171bcc55a6ff8345e692c0f86e5b48e01b996cadc001622fb5e363b421",
            "blobGasUsed": "0x00",
            "excessBlobGas": "0x00",
            "parentBeaconBlockRoot": "0x0000000000000000000000000000000000000000000000000000000000000000",
            "hash": "0x07ca2ee6d1dc0f0f9841d3e1f4f3dc7192d1197b16198c7b019e7b265d69bd8d"
        },
        "pre": {
            "0x000f3df6d732807ef1319fb7b8bb8522d0beac02": {
                "nonce": "0x01",
                "balance": "0x00",
                "code": "0x3373fffffffffffffffffffffffffffffffffffffffe14604d57602036146024575f5ffd5b5f35801560495762001fff810690815414603c575f5ffd5b62001fff01545f5260205ff35b5f5ffd5b62001fff42064281555f359062001fff015500",
                "storage": {}
            },
            "0xd66f224cbd2fabb21b17bb53c56118f32f62ebd6": {
                "nonce": "0x00",
                "balance": "0x0de0b6b3a7640000",
                "code": "0x",
                "storage": {}
            },
            "0x48e2d4c0b593bfebe5ddb4f13aa355b8bd83ddd3": {
                "nonce": "0x00",
                "balance": "0x02540be400",
                "code": "0x600160035200",
                "storage": {}
            },
            "0x07912b9147d3319b09cbab380f10819d0bf0066d": {
                "nonce": "0x00",
                "balance": "0x0de0b6b3a7640000",
                "code": "0x60406000604060003473d7997c3f1aacabdc66b4da9461b9558b1787e01c620249f0f2600055600160015500",
                "storage": {}
            },
            "0xd7997c3f1aacabdc66b4da9461b9558b1787e01c": {
                "nonce": "0x00",
                "balance": "0x02540be400",
                "code": "0x604060006040600073408f1aceffec7bdaa35d77006cdcaead563bb694620186a0fa00",
                "storage": {}
            },
            "0x408f1aceffec7bdaa35d77006cdcaead563bb694": {
                "nonce": "0x00",
                "balance": "0x02540be400",
                "code": "0x7307912b9147d3319b09cbab380f10819d0bf0066dff60406000604060007348e2d4c0b593bfebe5ddb4f13aa355b8bd83ddd361c350fa00",
                "storage": {}
            }
        },
        "postState": {
            "0x000f3df6d732807ef1319fb7b8bb8522d0beac02": {
                "nonce": "0x01",
                "balance": "0x00",
                "code": "0x3373fffffffffffffffffffffffffffffffffffffffe14604d57602036146024575f5ffd5b5f35801560495762001fff810690815414603c575f5ffd5b62001fff01545f5260205ff35b5f5ffd5b62001fff42064281555f359062001fff015500",
                "storage": {
                    "0x03e8": "0x03e8"
                }
            },
            "0xd66f224cbd2fabb21b17bb53c56118f32f62ebd6": {
                "nonce": "0x01",
                "balance": "0x0de0b6b3a749fd72",
                "code": "0x",
                "storage": {}
            },
            "0x48e2d4c0b593bfebe5ddb4f13aa355b8bd83ddd3": {
                "nonce": "0x00",
                "balance": "0x02540be400",
                "code": "0x600160035200",
                "storage": {}
            },
            "0x07912b9147d3319b09cbab380f10819d0bf0066d": {
                "nonce": "0x00",
                "balance": "0x0de0b6b3a7640000",
                "code": "0x60406000604060003473d7997c3f1aacabdc66b4da9461b9558b1787e01c620249f0f2600055600160015500",
                "storage": {
                    "0x00": "0x01",
                    "0x01": "0x01"
                }
            },
            "0xd7997c3f1aacabdc66b4da9461b9558b1787e01c": {
                "nonce": "0x00",
                "balance": "0x02540be400",
                "code": "0x604060006040600073408f1aceffec7bdaa35d77006cdcaead563bb694620186a0fa00",
                "storage": {}
            },
            "0x408f1aceffec7bdaa35d77006cdcaead563bb694": {
                "nonce": "0x00",
                "balance": "0x02540be400",
                "code": "0x7307912b9147d3319b09cbab380f10819d0bf0066dff60406000604060007348e2d4c0b593bfebe5ddb4f13aa355b8bd83ddd361c350fa00",
                "storage": {}
            }
        },
        "lastblockhash": "0x9e06471e36f3371049426dfa20fd5751d34f0c4931306c2b713031f5cda8fef7",
        "config": {
            "network": "Cancun",
            "chainid": "0x01",
            "blobSchedule": {
                "Cancun": {
                    "target": "0x03",
                    "max": "0x06",
                    "baseFeeUpdateFraction": "0x32f0ed"
                }
            }
        },
        "genesisRLP": "0xf9023cf90236a00000000000000000000000000000000000000000000000000000000000000000a01dcc4de8dec75d7aab85b567b6ccd41ad312451b948a7413f0a142fd40d49347940000000000000000000000000000000000000000a025ac1f41a3a1a733f49419d6ebae67aa9d8ede1610f14a654f5aa81732f91c66a056e81f171bcc55a6ff8345e692c0f86e5b48e01b996cadc001622fb5e363b421a056e81f171bcc55a6ff8345e692c0f86e5b48e01b996cadc001622fb5e363b421b901000000000000000000000000000000000000000000000000000000000000000000000000000000000000000000000000000000000000000000000000000000000000000000000000000000000000000000000000000000000000000000000000000000000000000000000000000000000000000000000000000000000000000000000000000000000000000000000000000000000000000000000000000000000000000000000000000000000000000000000000000000000000000000000000000000000000000000000000000000000000000000000000000000000000000000000000000000000000000000000000000000000000000000000000000000000080808401c9c380808000a000000000000000000000000000000000000000000000000000000000000000008800000000000000000ba056e81f171bcc55a6ff8345e692c0f86e5b48e01b996cadc001622fb5e363b4218080a00000000000000000000000000000000000000000000000000000000000000000c0c0c0",
        "blocks": [
            {
                "blockHeader": {
                    "parentHash": "0x07ca2ee6d1dc0f0f9841d3e1f4f3dc7192d1197b16198c7b019e7b265d69bd8d",
                    "uncleHash": "0x1dcc4de8dec75d7aab85b567b6ccd41ad312451b948a7413f0a142fd40d49347",
                    "coinbase": "0x2adc25665018aa1fe0e6bc666dac8fc2697ff9ba",
                    "stateRoot": "0x3d7a4f054ce2d2a9a57b4e35557ba11b58c5da6b9b702ea7b11996335900d922",
                    "transactionsTrie": "0xd0b3751c22a3ef401f9bcccb97619fd67cb7c6891442e05c73eee0460ece0b19",
                    "receiptTrie": "0xd7085bc10641046c75a58ddcb0afd569c744ab3da78d8e79430922b96bc596d7",
                    "bloom": "0x00000000000000000000000000000000000000000000000000000000000000000000000000000000000000000000000000000000000000000000000000000000000000000000000000000000000000000000000000000000000000000000000000000000000000000000000000000000000000000000000000000000000000000000000000000000000000000000000000000000000000000000000000000000000000000000000000000000000000000000000000000000000000000000000000000000000000000000000000000000000000000000000000000000000000000000000000000000000000000000000000000000000000000000000000000000",
                    "difficulty": "0x00",
                    "number": "0x01",
                    "gasLimit": "0x01c9c380",
                    "gasUsed": "0x0299db",
                    "timestamp": "0x03e8",
                    "extraData": "0x00",
                    "mixHash": "0x0000000000000000000000000000000000000000000000000000000000020000",
                    "nonce": "0x0000000000000000",
                    "baseFeePerGas": "0x0a",
                    "withdrawalsRoot": "0x56e81f171bcc55a6ff8345e692c0f86e5b48e01b996cadc001622fb5e363b421",
                    "blobGasUsed": "0x00",
                    "excessBlobGas": "0x00",
                    "parentBeaconBlockRoot": "0x0000000000000000000000000000000000000000000000000000000000000000",
                    "hash": "0x9e06471e36f3371049426dfa20fd5751d34f0c4931306c2b713031f5cda8fef7"
                },
                "transactions": [
                    {
                        "type": "0x00",
                        "chainId": "0x01",
                        "nonce": "0x00",
                        "gasPrice": "0x0a",
                        "gasLimit": "0x2dc6c0",
                        "to": "0x07912b9147d3319b09cbab380f10819d0bf0066d",
                        "value": "0x00",
                        "data": "0x",
                        "v": "0x26",
                        "r": "0x36c1518d51c04758e3168b5d4653e9e7943edb614c2d8ae56d782c38031ca138",
                        "s": "0x5b2663e3ca4b24884fa232d4207a7cc205b3f5f6213f6d119540bbbb5d790b57",
                        "sender": "0xd66f224cbd2fabb21b17bb53c56118f32f62ebd6"
                    }
                ],
                "uncleHeaders": [],
                "withdrawals": [],
                "receipts": [
                    {
                        "transactionHash": "0xd3e2d50ee3eff091130a926a94200e50336d21d21c1906716bad6c69b1008cc5",
                        "type": "0x00",
                        "cumulativeGasUsed": "0x0299db",
                        "bloom": "0x00000000000000000000000000000000000000000000000000000000000000000000000000000000000000000000000000000000000000000000000000000000000000000000000000000000000000000000000000000000000000000000000000000000000000000000000000000000000000000000000000000000000000000000000000000000000000000000000000000000000000000000000000000000000000000000000000000000000000000000000000000000000000000000000000000000000000000000000000000000000000000000000000000000000000000000000000000000000000000000000000000000000000000000000000000000",
                        "logs": [],
                        "status": true,
                        "rlp": "0xf9010901830299dbb9010000000000000000000000000000000000000000000000000000000000000000000000000000000000000000000000000000000000000000000000000000000000000000000000000000000000000000000000000000000000000000000000000000000000000000000000000000000000000000000000000000000000000000000000000000000000000000000000000000000000000000000000000000000000000000000000000000000000000000000000000000000000000000000000000000000000000000000000000000000000000000000000000000000000000000000000000000000000000000000000000000000000000000000000000000000000c0"
                    }
                ],
                "rlp": "0xf902a4f9023ba007ca2ee6d1dc0f0f9841d3e1f4f3dc7192d1197b16198c7b019e7b265d69bd8da01dcc4de8dec75d7aab85b567b6ccd41ad312451b948a7413f0a142fd40d49347942adc25665018aa1fe0e6bc666dac8fc2697ff9baa03d7a4f054ce2d2a9a57b4e35557ba11b58c5da6b9b702ea7b11996335900d922a0d0b3751c22a3ef401f9bcccb97619fd67cb7c6891442e05c73eee0460ece0b19a0d7085bc10641046c75a58ddcb0afd569c744ab3da78d8e79430922b96bc596d7b901000000000000000000000000000000000000000000000000000000000000000000000000000000000000000000000000000000000000000000000000000000000000000000000000000000000000000000000000000000000000000000000000000000000000000000000000000000000000000000000000000000000000000000000000000000000000000000000000000000000000000000000000000000000000000000000000000000000000000000000000000000000000000000000000000000000000000000000000000000000000000000000000000000000000000000000000000000000000000000000000000000000000000000000000000000000080018401c9c380830299db8203e800a000000000000000000000000000000000000000000000000000000000000200008800000000000000000aa056e81f171bcc55a6ff8345e692c0f86e5b48e01b996cadc001622fb5e363b4218080a00000000000000000000000000000000000000000000000000000000000000000f862f860800a832dc6c09407912b9147d3319b09cbab380f10819d0bf0066d808026a036c1518d51c04758e3168b5d4653e9e7943edb614c2d8ae56d782c38031ca138a05b2663e3ca4b24884fa232d4207a7cc205b3f5f6213f6d119540bbbb5d790b57c0c0",
                "blocknumber": "1"
            }
        ],
        "sealEngine": "NoProof",
        "_info": {
            "hash": "0x6057b6fbe15f11afe845a0d7eab74816286162e5865d2581d68e1d305c46fd88",
            "fixture-format": "blockchain_test",
            "comment": "`execution-specs` generated test",
            "filling-transition-tool": "2.19.0",
            "description": "Test_static_callcodecallcall_100_suicide_middle2.",
            "url": "https://github.com/ethereum/execution-specs/blob/tests-snobal-devnet-5@v8037.0.0/tests/ported_static/stStaticCall/test_static_callcodecallcall_100_suicide_middle2.py#L25",
            "metadata": {
                "opcode_count": {}
            }
        }
    },
    "tests/ported_static/stStaticCall/test_static_callcodecallcall_100_suicide_middle2.py::test_static_callcodecallcall_100_suicide_middle2[fork_Cancun-blockchain_test_from_state_test--v1]": {
        "network": "Cancun",
        "genesisBlockHeader": {
            "parentHash": "0x0000000000000000000000000000000000000000000000000000000000000000",
            "uncleHash": "0x1dcc4de8dec75d7aab85b567b6ccd41ad312451b948a7413f0a142fd40d49347",
            "coinbase": "0x0000000000000000000000000000000000000000",
            "stateRoot": "0x25ac1f41a3a1a733f49419d6ebae67aa9d8ede1610f14a654f5aa81732f91c66",
            "transactionsTrie": "0x56e81f171bcc55a6ff8345e692c0f86e5b48e01b996cadc001622fb5e363b421",
            "receiptTrie": "0x56e81f171bcc55a6ff8345e692c0f86e5b48e01b996cadc001622fb5e363b421",
            "bloom": "0x00000000000000000000000000000000000000000000000000000000000000000000000000000000000000000000000000000000000000000000000000000000000000000000000000000000000000000000000000000000000000000000000000000000000000000000000000000000000000000000000000000000000000000000000000000000000000000000000000000000000000000000000000000000000000000000000000000000000000000000000000000000000000000000000000000000000000000000000000000000000000000000000000000000000000000000000000000000000000000000000000000000000000000000000000000000",
            "difficulty": "0x00",
            "number": "0x00",
            "gasLimit": "0x01c9c380",
            "gasUsed": "0x00",
            "timestamp": "0x00",
            "extraData": "0x00",
            "mixHash": "0x0000000000000000000000000000000000000000000000000000000000000000",
            "nonce": "0x0000000000000000",
            "baseFeePerGas": "0x0b",
            "withdrawalsRoot": "0x56e81f171bcc55a6ff8345e692c0f86e5b48e01b996cadc001622fb5e363b421",
            "blobGasUsed": "0x00",
            "excessBlobGas": "0x00",
            "parentBeaconBlockRoot": "0x0000000000000000000000000000000000000000000000000000000000000000",
            "hash": "0x07ca2ee6d1dc0f0f9841d3e1f4f3dc7192d1197b16198c7b019e7b265d69bd8d"
        },
        "pre": {
            "0x000f3df6d732807ef1319fb7b8bb8522d0beac02": {
                "nonce": "0x01",
                "balance": "0x00",
                "code": "0x3373fffffffffffffffffffffffffffffffffffffffe14604d57602036146024575f5ffd5b5f35801560495762001fff810690815414603c575f5ffd5b62001fff01545f5260205ff35b5f5ffd5b62001fff42064281555f359062001fff015500",
                "storage": {}
            },
            "0xd66f224cbd2fabb21b17bb53c56118f32f62ebd6": {
                "nonce": "0x00",
                "balance": "0x0de0b6b3a7640000",
                "code": "0x",
                "storage": {}
            },
            "0x48e2d4c0b593bfebe5ddb4f13aa355b8bd83ddd3": {
                "nonce": "0x00",
                "balance": "0x02540be400",
                "code": "0x600160035200",
                "storage": {}
            },
            "0x07912b9147d3319b09cbab380f10819d0bf0066d": {
                "nonce": "0x00",
                "balance": "0x0de0b6b3a7640000",
                "code": "0x60406000604060003473d7997c3f1aacabdc66b4da9461b9558b1787e01c620249f0f2600055600160015500",
                "storage": {}
            },
            "0xd7997c3f1aacabdc66b4da9461b9558b1787e01c": {
                "nonce": "0x00",
                "balance": "0x02540be400",
                "code": "0x604060006040600073408f1aceffec7bdaa35d77006cdcaead563bb694620186a0fa00",
                "storage": {}
            },
            "0x408f1aceffec7bdaa35d77006cdcaead563bb694": {
                "nonce": "0x00",
                "balance": "0x02540be400",
                "code": "0x7307912b9147d3319b09cbab380f10819d0bf0066dff60406000604060007348e2d4c0b593bfebe5ddb4f13aa355b8bd83ddd361c350fa00",
                "storage": {}
            }
        },
        "postState": {
            "0x000f3df6d732807ef1319fb7b8bb8522d0beac02": {
                "nonce": "0x01",
                "balance": "0x00",
                "code": "0x3373fffffffffffffffffffffffffffffffffffffffe14604d57602036146024575f5ffd5b5f35801560495762001fff810690815414603c575f5ffd5b62001fff01545f5260205ff35b5f5ffd5b62001fff42064281555f359062001fff015500",
                "storage": {
                    "0x03e8": "0x03e8"
                }
            },
            "0xd66f224cbd2fabb21b17bb53c56118f32f62ebd6": {
                "nonce": "0x01",
                "balance": "0x0de0b6b3a748f7b9",
                "code": "0x",
                "storage": {}
            },
            "0x48e2d4c0b593bfebe5ddb4f13aa355b8bd83ddd3": {
                "nonce": "0x00",
                "balance": "0x02540be400",
                "code": "0x600160035200",
                "storage": {}
            },
            "0x07912b9147d3319b09cbab380f10819d0bf0066d": {
                "nonce": "0x00",
                "balance": "0x0de0b6b3a7640001",
                "code": "0x60406000604060003473d7997c3f1aacabdc66b4da9461b9558b1787e01c620249f0f2600055600160015500",
                "storage": {
                    "0x00": "0x01",
                    "0x01": "0x01"
                }
            },
            "0xd7997c3f1aacabdc66b4da9461b9558b1787e01c": {
                "nonce": "0x00",
                "balance": "0x02540be400",
                "code": "0x604060006040600073408f1aceffec7bdaa35d77006cdcaead563bb694620186a0fa00",
                "storage": {}
            },
            "0x408f1aceffec7bdaa35d77006cdcaead563bb694": {
                "nonce": "0x00",
                "balance": "0x02540be400",
                "code": "0x7307912b9147d3319b09cbab380f10819d0bf0066dff60406000604060007348e2d4c0b593bfebe5ddb4f13aa355b8bd83ddd361c350fa00",
                "storage": {}
            }
        },
        "lastblockhash": "0x0bc01c963ef07d9ab969258f6b55e6a8b300b9efdd5a1f95f564c24939fc226a",
        "config": {
            "network": "Cancun",
            "chainid": "0x01",
            "blobSchedule": {
                "Cancun": {
                    "target": "0x03",
                    "max": "0x06",
                    "baseFeeUpdateFraction": "0x32f0ed"
                }
            }
        },
        "genesisRLP": "0xf9023cf90236a00000000000000000000000000000000000000000000000000000000000000000a01dcc4de8dec75d7aab85b567b6ccd41ad312451b948a7413f0a142fd40d49347940000000000000000000000000000000000000000a025ac1f41a3a1a733f49419d6ebae67aa9d8ede1610f14a654f5aa81732f91c66a056e81f171bcc55a6ff8345e692c0f86e5b48e01b996cadc001622fb5e363b421a056e81f171bcc55a6ff8345e692c0f86e5b48e01b996cadc001622fb5e363b421b901000000000000000000000000000000000000000000000000000000000000000000000000000000000000000000000000000000000000000000000000000000000000000000000000000000000000000000000000000000000000000000000000000000000000000000000000000000000000000000000000000000000000000000000000000000000000000000000000000000000000000000000000000000000000000000000000000000000000000000000000000000000000000000000000000000000000000000000000000000000000000000000000000000000000000000000000000000000000000000000000000000000000000000000000000000000080808401c9c380808000a000000000000000000000000000000000000000000000000000000000000000008800000000000000000ba056e81f171bcc55a6ff8345e692c0f86e5b48e01b996cadc001622fb5e363b4218080a00000000000000000000000000000000000000000000000000000000000000000c0c0c0",
        "blocks": [
            {
                "blockHeader": {
                    "parentHash": "0x07ca2ee6d1dc0f0f9841d3e1f4f3dc7192d1197b16198c7b019e7b265d69bd8d",
                    "uncleHash": "0x1dcc4de8dec75d7aab85b567b6ccd41ad312451b948a7413f0a142fd40d49347",
                    "coinbase": "0x2adc25665018aa1fe0e6bc666dac8fc2697ff9ba",
                    "stateRoot": "0xd6c769011dcab4b027de4c764fb5bc49b4433c4165be2fcd1e96fa03a8089b1f",
                    "transactionsTrie": "0x0882c0b1ede9fd9151c6669b6a9add7f0546aafa2ffba050551f994b932352b9",
                    "receiptTrie": "0xcf022fc786e181c59f8e2f4c54ee26c3c4af4f70d27d44ad0dc6a0d3d52c1b93",
                    "bloom": "0x00000000000000000000000000000000000000000000000000000000000000000000000000000000000000000000000000000000000000000000000000000000000000000000000000000000000000000000000000000000000000000000000000000000000000000000000000000000000000000000000000000000000000000000000000000000000000000000000000000000000000000000000000000000000000000000000000000000000000000000000000000000000000000000000000000000000000000000000000000000000000000000000000000000000000000000000000000000000000000000000000000000000000000000000000000000",
                    "difficulty": "0x00",
                    "number": "0x01",
                    "gasLimit": "0x01c9c380",
                    "gasUsed": "0x02b407",
                    "timestamp": "0x03e8",
                    "extraData": "0x00",
                    "mixHash": "0x0000000000000000000000000000000000000000000000000000000000020000",
                    "nonce": "0x0000000000000000",
                    "baseFeePerGas": "0x0a",
                    "withdrawalsRoot": "0x56e81f171bcc55a6ff8345e692c0f86e5b48e01b996cadc001622fb5e363b421",
                    "blobGasUsed": "0x00",
                    "excessBlobGas": "0x00",
                    "parentBeaconBlockRoot": "0x0000000000000000000000000000000000000000000000000000000000000000",
                    "hash": "0x0bc01c963ef07d9ab969258f6b55e6a8b300b9efdd5a1f95f564c24939fc226a"
                },
                "transactions": [
                    {
                        "type": "0x00",
                        "chainId": "0x01",
                        "nonce": "0x00",
                        "gasPrice": "0x0a",
                        "gasLimit": "0x2dc6c0",
                        "to": "0x07912b9147d3319b09cbab380f10819d0bf0066d",
                        "value": "0x01",
                        "data": "0x",
                        "v": "0x25",
                        "r": "0x821bdb03768bfedb8c324b834f1b464ec233ebeb1b04149dc20d8b732d874925",
                        "s": "0x08134fec5191bda1f80e8b1b0d699a30fa077bc1e5f01ba2bda65aeba8e01f64",
                        "sender": "0xd66f224cbd2fabb21b17bb53c56118f32f62ebd6"
                    }
                ],
                "uncleHeaders": [],
                "withdrawals": [],
                "receipts": [
                    {
                        "transactionHash": "0x56553d4e3c0a1a2ad2bb1e70c5d7d58a4f575ae846ebbac52de21477df7c6c8d",
                        "type": "0x00",
                        "cumulativeGasUsed": "0x02b407",
                        "bloom": "0x00000000000000000000000000000000000000000000000000000000000000000000000000000000000000000000000000000000000000000000000000000000000000000000000000000000000000000000000000000000000000000000000000000000000000000000000000000000000000000000000000000000000000000000000000000000000000000000000000000000000000000000000000000000000000000000000000000000000000000000000000000000000000000000000000000000000000000000000000000000000000000000000000000000000000000000000000000000000000000000000000000000000000000000000000000000",
                        "logs": [],
                        "status": true,
                        "rlp": "0xf90109018302b407b9010000000000000000000000000000000000000000000000000000000000000000000000000000000000000000000000000000000000000000000000000000000000000000000000000000000000000000000000000000000000000000000000000000000000000000000000000000000000000000000000000000000000000000000000000000000000000000000000000000000000000000000000000000000000000000000000000000000000000000000000000000000000000000000000000000000000000000000000000000000000000000000000000000000000000000000000000000000000000000000000000000000000000000000000000000000000c0"
                    }
                ],
                "rlp": "0xf902a4f9023ba007ca2ee6d1dc0f0f9841d3e1f4f3dc7192d1197b16198c7b019e7b265d69bd8da01dcc4de8dec75d7aab85b567b6ccd41ad312451b948a7413f0a142fd40d49347942adc25665018aa1fe0e6bc666dac8fc2697ff9baa0d6c769011dcab4b027de4c764fb5bc49b4433c4165be2fcd1e96fa03a8089b1fa00882c0b1ede9fd9151c6669b6a9add7f0546aafa2ffba050551f994b932352b9a0cf022fc786e181c59f8e2f4c54ee26c3c4af4f70d27d44ad0dc6a0d3d52c1b93b901000000000000000000000000000000000000000000000000000000000000000000000000000000000000000000000000000000000000000000000000000000000000000000000000000000000000000000000000000000000000000000000000000000000000000000000000000000000000000000000000000000000000000000000000000000000000000000000000000000000000000000000000000000000000000000000000000000000000000000000000000000000000000000000000000000000000000000000000000000000000000000000000000000000000000000000000000000000000000000000000000000000000000000000000000000000080018401c9c3808302b4078203e800a000000000000000000000000000000000000000000000000000000000000200008800000000000000000aa056e81f171bcc55a6ff8345e692c0f86e5b48e01b996cadc001622fb5e363b4218080a00000000000000000000000000000000000000000000000000000000000000000f862f860800a832dc6c09407912b9147d3319b09cbab380f10819d0bf0066d018025a0821bdb03768bfedb8c324b834f1b464ec233ebeb1b04149dc20d8b732d874925a008134fec5191bda1f80e8b1b0d699a30fa077bc1e5f01ba2bda65aeba8e01f64c0c0",
                "blocknumber": "1"
            }
        ],
        "sealEngine": "NoProof",
        "_info": {
            "hash": "0x20edcd48b2ca61e8a5ce96d744663982d009853626eed3807b6083d120cc4354",
            "fixture-format": "blockchain_test",
            "comment": "`execution-specs` generated test",
            "filling-transition-tool": "2.19.0",
            "description": "Test_static_callcodecallcall_100_suicide_middle2.",
            "url": "https://github.com/ethereum/execution-specs/blob/tests-snobal-devnet-5@v8037.0.0/tests/ported_static/stStaticCall/test_static_callcodecallcall_100_suicide_middle2.py#L25",
            "metadata": {
                "opcode_count": {}
            }
        }
    }
}