{
    "tests/byzantium/eip197_ec_pairing/test_gas.py::test_gas_costs[fork_Shanghai-blockchain_test_from_state_test-enough_gas_False]": {
        "network": "Shanghai",
        "genesisBlockHeader": {
            "parentHash": "0x0000000000000000000000000000000000000000000000000000000000000000",
            "uncleHash": "0x1dcc4de8dec75d7aab85b567b6ccd41ad312451b948a7413f0a142fd40d49347",
            "coinbase": "0x0000000000000000000000000000000000000000",
            "stateRoot": "0x24405512c5b191dca4e538697595728745f9e0312eef1a08b53c8b00267cb50f",
            "transactionsTrie": "0x56e81f171bcc55a6ff8345e692c0f86e5b48e01b996cadc001622fb5e363b421",
            "receiptTrie": "0x56e81f171bcc55a6ff8345e692c0f86e5b48e01b996cadc001622fb5e363b421",
            "bloom": "0x00000000000000000000000000000000000000000000000000000000000000000000000000000000000000000000000000000000000000000000000000000000000000000000000000000000000000000000000000000000000000000000000000000000000000000000000000000000000000000000000000000000000000000000000000000000000000000000000000000000000000000000000000000000000000000000000000000000000000000000000000000000000000000000000000000000000000000000000000000000000000000000000000000000000000000000000000000000000000000000000000000000000000000000000000000000",
            "difficulty": "0x00",
            "number": "0x00",
            "gasLimit": "0x07270e00",
            "gasUsed": "0x00",
            "timestamp": "0x00",
            "extraData": "0x00",
            "mixHash": "0x0000000000000000000000000000000000000000000000000000000000000000",
            "nonce": "0x0000000000000000",
            "baseFeePerGas": "0x07",
            "withdrawalsRoot": "0x56e81f171bcc55a6ff8345e692c0f86e5b48e01b996cadc001622fb5e363b421",
            "hash": "0x9945d113e7b31137ff890206af130886177eaac41520d56cb64a8eea4c777506"
        },
        "pre": {
            "0xc18b3d3f100d2865f6aa0eda4026cfec6cef0300": {
                "nonce": "0x01",
                "balance": "0x00",
                "code": "0x6000600060006000600861afc7fa600055",
                "storage": {
                    "0x00": "0xba5e"
                }
            },
            "0x1ad9bc24818784172ff393bb6f89f094d4d2ca29": {
                "nonce": "0x00",
                "balance": "0x3635c9adc5dea00000",
                "code": "0x",
                "storage": {}
            }
        },
        "postState": {
            "0xc18b3d3f100d2865f6aa0eda4026cfec6cef0300": {
                "nonce": "0x01",
                "balance": "0x00",
                "code": "0x6000600060006000600861afc7fa600055",
                "storage": {}
            },
            "0x1ad9bc24818784172ff393bb6f89f094d4d2ca29": {
                "nonce": "0x01",
                "balance": "0x3635c9adc5de95e160",
                "code": "0x",
                "storage": {}
            },
            "0x2adc25665018aa1fe0e6bc666dac8fc2697ff9ba": {
                "nonce": "0x00",
                "balance": "0x030930",
                "code": "0x",
                "storage": {}
            }
        },
        "lastblockhash": "0x6dac19f03c71b135b438df358538ff05d76c98a9f7173e9a0ad484581f891b44",
        "config": {
            "network": "Shanghai",
            "chainid": "0x01"
        },
        "genesisRLP": "0xf90219f90213a00000000000000000000000000000000000000000000000000000000000000000a01dcc4de8dec75d7aab85b567b6ccd41ad312451b948a7413f0a142fd40d49347940000000000000000000000000000000000000000a024405512c5b191dca4e538697595728745f9e0312eef1a08b53c8b00267cb50fa056e81f171bcc55a6ff8345e692c0f86e5b48e01b996cadc001622fb5e363b421a056e81f171bcc55a6ff8345e692c0f86e5b48e01b996cadc001622fb5e363b421b901000000000000000000000000000000000000000000000000000000000000000000000000000000000000000000000000000000000000000000000000000000000000000000000000000000000000000000000000000000000000000000000000000000000000000000000000000000000000000000000000000000000000000000000000000000000000000000000000000000000000000000000000000000000000000000000000000000000000000000000000000000000000000000000000000000000000000000000000000000000000000000000000000000000000000000000000000000000000000000000000000000000000000000000000000000000080808407270e00808000a0000000000000000000000000000000000000000000000000000000000000000088000000000000000007a056e81f171bcc55a6ff8345e692c0f86e5b48e01b996cadc001622fb5e363b421c0c0c0",
        "blocks": [
            {
                "blockHeader": {
                    "parentHash": "0x9945d113e7b31137ff890206af130886177eaac41520d56cb64a8eea4c777506",
                    "uncleHash": "0x1dcc4de8dec75d7aab85b567b6ccd41ad312451b948a7413f0a142fd40d49347",
                    "coinbase": "0x2adc25665018aa1fe0e6bc666dac8fc2697ff9ba",
                    "stateRoot": "0xf7dcdb82798562bfdb77f8194abe7be83f6a288f8ec32254ade3c9b9e8079bc8",
                    "transactionsTrie": "0xea47a8be01d19603f286a2ad9191977d0d14691a845473c5d7b626c129706ca0",
                    "receiptTrie": "0xc475d6732e6b334ff2d25d3abea8b2a0c59347577c8ec8a95ee78590226cfe3c",
                    "bloom": "0x00000000000000000000000000000000000000000000000000000000000000000000000000000000000000000000000000000000000000000000000000000000000000000000000000000000000000000000000000000000000000000000000000000000000000000000000000000000000000000000000000000000000000000000000000000000000000000000000000000000000000000000000000000000000000000000000000000000000000000000000000000000000000000000000000000000000000000000000000000000000000000000000000000000000000000000000000000000000000000000000000000000000000000000000000000000",
                    "difficulty": "0x00",
                    "number": "0x01",
                    "gasLimit": "0x07270e00",
                    "gasUsed": "0x010310",
                    "timestamp": "0x03e8",
                    "extraData": "0x00",
                    "mixHash": "0x0000000000000000000000000000000000000000000000000000000000000000",
                    "nonce": "0x0000000000000000",
                    "baseFeePerGas": "0x07",
                    "withdrawalsRoot": "0x56e81f171bcc55a6ff8345e692c0f86e5b48e01b996cadc001622fb5e363b421",
                    "hash": "0x6dac19f03c71b135b438df358538ff05d76c98a9f7173e9a0ad484581f891b44"
                },
                "transactions": [
                    {
                        "type": "0x00",
                        "chainId": "0x01",
                        "nonce": "0x00",
                        "gasPrice": "0x0a",
                        "gasLimit": "0x0f4240",
                        "to": "0xc18b3d3f100d2865f6aa0eda4026cfec6cef0300",
                        "value": "0x00",
                        "data": "0x",
                        "v": "0x25",
                        "r": "0xae39d37f953da623c4ff6d5b5242699a39acd01f0d7b462b630d15741878c4e5",
                        "s": "0x28cf0e1bc159f979e3d3969f706651a5c0cc6bff4c2a3783f8ce7085d9a6666e",
                        "sender": "0x1ad9bc24818784172ff393bb6f89f094d4d2ca29"
                    }
                ],
                "uncleHeaders": [],
                "withdrawals": [],
                "receipts": [
                    {
                        "transactionHash": "0x2f5c3a4e0fd3a8cf82ac2b6233537a9d9b268ade684fb5d9367229ea7ce2e757",
                        "type": "0x00",
                        "cumulativeGasUsed": "0x010310",
                        "bloom": "0x00000000000000000000000000000000000000000000000000000000000000000000000000000000000000000000000000000000000000000000000000000000000000000000000000000000000000000000000000000000000000000000000000000000000000000000000000000000000000000000000000000000000000000000000000000000000000000000000000000000000000000000000000000000000000000000000000000000000000000000000000000000000000000000000000000000000000000000000000000000000000000000000000000000000000000000000000000000000000000000000000000000000000000000000000000000",
                        "logs": [],
                        "status": true,
                        "rlp": "0xf901090183010310b9010000000000000000000000000000000000000000000000000000000000000000000000000000000000000000000000000000000000000000000000000000000000000000000000000000000000000000000000000000000000000000000000000000000000000000000000000000000000000000000000000000000000000000000000000000000000000000000000000000000000000000000000000000000000000000000000000000000000000000000000000000000000000000000000000000000000000000000000000000000000000000000000000000000000000000000000000000000000000000000000000000000000000000000000000000000000c0"
                    }
                ],
                "rlp": "0xf90281f90218a09945d113e7b31137ff890206af130886177eaac41520d56cb64a8eea4c777506a01dcc4de8dec75d7aab85b567b6ccd41ad312451b948a7413f0a142fd40d49347942adc25665018aa1fe0e6bc666dac8fc2697ff9baa0f7dcdb82798562bfdb77f8194abe7be83f6a288f8ec32254ade3c9b9e8079bc8a0ea47a8be01d19603f286a2ad9191977d0d14691a845473c5d7b626c129706ca0a0c475d6732e6b334ff2d25d3abea8b2a0c59347577c8ec8a95ee78590226cfe3cb901000000000000000000000000000000000000000000000000000000000000000000000000000000000000000000000000000000000000000000000000000000000000000000000000000000000000000000000000000000000000000000000000000000000000000000000000000000000000000000000000000000000000000000000000000000000000000000000000000000000000000000000000000000000000000000000000000000000000000000000000000000000000000000000000000000000000000000000000000000000000000000000000000000000000000000000000000000000000000000000000000000000000000000000000000000000080018407270e00830103108203e800a0000000000000000000000000000000000000000000000000000000000000000088000000000000000007a056e81f171bcc55a6ff8345e692c0f86e5b48e01b996cadc001622fb5e363b421f862f860800a830f424094c18b3d3f100d2865f6aa0eda4026cfec6cef0300808025a0ae39d37f953da623c4ff6d5b5242699a39acd01f0d7b462b630d15741878c4e5a028cf0e1bc159f979e3d3969f706651a5c0cc6bff4c2a3783f8ce7085d9a6666ec0c0",
                "blocknumber": "1"
            }
        ],
        "sealEngine": "NoProof",
        "_info": {
            "hash": "0xfbdd587a000805d4562daf97741838897891a49ec68660d0e661437597c07962",
            "fixture-format": "blockchain_test",
            "comment": "`execution-specs` generated test",
            "filling-transition-tool": "2.19.0",
            "description": "Test the base gas cost of the ecpairing precompile with zero pairs.",
            "url": "https://github.com/ethereum/execution-specs/blob/tests-snobal-devnet-5@v8037.0.0/tests/byzantium/eip197_ec_pairing/test_gas.py#L31",
            "metadata": {
                "opcode_count": {}
            },
            "reference-spec": "https://github.com/ethereum/EIPs/blob/master/EIPS/eip-197.md",
            "reference-spec-version": "9f9b3d33440e7c122b6c9192facfc380bc009422"
        }
    },
    "tests/byzantium/eip197_ec_pairing/test_gas.py::test_gas_costs[fork_Shanghai-blockchain_test_from_state_test-enough_gas_True]": {
        "network": "Shanghai",
        "genesisBlockHeader": {
            "parentHash": "0x0000000000000000000000000000000000000000000000000000000000000000",
            "uncleHash": "0x1dcc4de8dec75d7aab85b567b6ccd41ad312451b948a7413f0a142fd40d49347",
            "coinbase": "0x0000000000000000000000000000000000000000",
            "stateRoot": "0xd768fdf7a4bfc570debaf848d88e6c5eff7ade9eb85dd8f542ad06c1797a8a1c",
            "transactionsTrie": "0x56e81f171bcc55a6ff8345e692c0f86e5b48e01b996cadc001622fb5e363b421",
            "receiptTrie": "0x56e81f171bcc55a6ff8345e692c0f86e5b48e01b996cadc001622fb5e363b421",
            "bloom": "0x00000000000000000000000000000000000000000000000000000000000000000000000000000000000000000000000000000000000000000000000000000000000000000000000000000000000000000000000000000000000000000000000000000000000000000000000000000000000000000000000000000000000000000000000000000000000000000000000000000000000000000000000000000000000000000000000000000000000000000000000000000000000000000000000000000000000000000000000000000000000000000000000000000000000000000000000000000000000000000000000000000000000000000000000000000000",
            "difficulty": "0x00",
            "number": "0x00",
            "gasLimit": "0x07270e00",
            "gasUsed": "0x00",
            "timestamp": "0x00",
            "extraData": "0x00",
            "mixHash": "0x0000000000000000000000000000000000000000000000000000000000000000",
            "nonce": "0x0000000000000000",
            "baseFeePerGas": "0x07",
            "withdrawalsRoot": "0x56e81f171bcc55a6ff8345e692c0f86e5b48e01b996cadc001622fb5e363b421",
            "hash": "0x6b254f93a65f39a436cbf4059c2bd27db458e753ea3c4310c812f7b890469ca6"
        },
        "pre": {
            "0xa6f6b89915b5c0528222eb8a588a1a5a0ff7b18a": {
                "nonce": "0x01",
                "balance": "0x00",
                "code": "0x6000600060006000600861afc8fa600055",
                "storage": {}
            },
            "0x1ad9bc24818784172ff393bb6f89f094d4d2ca29": {
                "nonce": "0x00",
                "balance": "0x3635c9adc5dea00000",
                "code": "0x",
                "storage": {}
            }
        },
        "postState": {
            "0xa6f6b89915b5c0528222eb8a588a1a5a0ff7b18a": {
                "nonce": "0x01",
                "balance": "0x00",
                "code": "0x6000600060006000600861afc8fa600055",
                "storage": {
                    "0x00": "0x01"
                }
            },
            "0x1ad9bc24818784172ff393bb6f89f094d4d2ca29": {
                "nonce": "0x01",
                "balance": "0x3635c9adc5de9289de",
                "code": "0x",
                "storage": {}
            },
            "0x2adc25665018aa1fe0e6bc666dac8fc2697ff9ba": {
                "nonce": "0x00",
                "balance": "0x0409d7",
                "code": "0x",
                "storage": {}
            }
        },
        "lastblockhash": "0x7e1081de6122ef08559dea61c9acd752a0ce7d461062158aa7b57667da1f7fbc",
        "config": {
            "network": "Shanghai",
            "chainid": "0x01"
        },
        "genesisRLP": "0xf90219f90213a00000000000000000000000000000000000000000000000000000000000000000a01dcc4de8dec75d7aab85b567b6ccd41ad312451b948a7413f0a142fd40d49347940000000000000000000000000000000000000000a0d768fdf7a4bfc570debaf848d88e6c5eff7ade9eb85dd8f542ad06c1797a8a1ca056e81f171bcc55a6ff8345e692c0f86e5b48e01b996cadc001622fb5e363b421a056e81f171bcc55a6ff8345e692c0f86e5b48e01b996cadc001622fb5e363b421b901000000000000000000000000000000000000000000000000000000000000000000000000000000000000000000000000000000000000000000000000000000000000000000000000000000000000000000000000000000000000000000000000000000000000000000000000000000000000000000000000000000000000000000000000000000000000000000000000000000000000000000000000000000000000000000000000000000000000000000000000000000000000000000000000000000000000000000000000000000000000000000000000000000000000000000000000000000000000000000000000000000000000000000000000000000000080808407270e00808000a0000000000000000000000000000000000000000000000000000000000000000088000000000000000007a056e81f171bcc55a6ff8345e692c0f86e5b48e01b996cadc001622fb5e363b421c0c0c0",
        "blocks": [
            {
                "blockHeader": {
                    "parentHash": "0x6b254f93a65f39a436cbf4059c2bd27db458e753ea3c4310c812f7b890469ca6",
                    "uncleHash": "0x1dcc4de8dec75d7aab85b567b6ccd41ad312451b948a7413f0a142fd40d49347",
                    "coinbase": "0x2adc25665018aa1fe0e6bc666dac8fc2697ff9ba",
                    "stateRoot": "0xf37890a5b78effe848be9ee01c61ffc3cd509daa026dd895e666a1d2bef76afc",
                    "transactionsTrie": "0x37673be10dc66f0970057054f3bc8acc19bd607d35bc36f1000c1c04d9af950b",
                    "receiptTrie": "0x371fb27f5edc76d68206c1b33fe6ae1b4d2b45de130086747fe44e8553b143b8",
                    "bloom": "0x00000000000000000000000000000000000000000000000000000000000000000000000000000000000000000000000000000000000000000000000000000000000000000000000000000000000000000000000000000000000000000000000000000000000000000000000000000000000000000000000000000000000000000000000000000000000000000000000000000000000000000000000000000000000000000000000000000000000000000000000000000000000000000000000000000000000000000000000000000000000000000000000000000000000000000000000000000000000000000000000000000000000000000000000000000000",
                    "difficulty": "0x00",
                    "number": "0x01",
                    "gasLimit": "0x07270e00",
                    "gasUsed": "0x01589d",
                    "timestamp": "0x03e8",
                    "extraData": "0x00",
                    "mixHash": "0x0000000000000000000000000000000000000000000000000000000000000000",
                    "nonce": "0x0000000000000000",
                    "baseFeePerGas": "0x07",
                    "withdrawalsRoot": "0x56e81f171bcc55a6ff8345e692c0f86e5b48e01b996cadc001622fb5e363b421",
                    "hash": "0x7e1081de6122ef08559dea61c9acd752a0ce7d461062158aa7b57667da1f7fbc"
                },
                "transactions": [
                    {
                        "type": "0x00",
                        "chainId": "0x01",
                        "nonce": "0x00",
                        "gasPrice": "0x0a",
                        "gasLimit": "0x0f4240",
                        "to": "0xa6f6b89915b5c0528222eb8a588a1a5a0ff7b18a",
                        "value": "0x00",
                        "data": "0x",
                        "v": "0x26",
                        "r": "0xcb4334e16c26ef41780994a5349e0b36894f51ca320e570e1eaafa20eed1b342",
                        "s": "0x417daa1237cc9460617667267e362958c229703433b4c64715f255c3e9a17ca1",
                        "sender": "0x1ad9bc24818784172ff393bb6f89f094d4d2ca29"
                    }
                ],
                "uncleHeaders": [],
                "withdrawals": [],
                "receipts": [
                    {
                        "transactionHash": "0xa3dc77924400afc5b746595d9ea136352801ca28df603bc9778d34f90b861ad1",
                        "type": "0x00",
                        "cumulativeGasUsed": "0x01589d",
                        "bloom": "0x00000000000000000000000000000000000000000000000000000000000000000000000000000000000000000000000000000000000000000000000000000000000000000000000000000000000000000000000000000000000000000000000000000000000000000000000000000000000000000000000000000000000000000000000000000000000000000000000000000000000000000000000000000000000000000000000000000000000000000000000000000000000000000000000000000000000000000000000000000000000000000000000000000000000000000000000000000000000000000000000000000000000000000000000000000000",
                        "logs": [],
                        "status": true,
                        "rlp": "0xf90109018301589db9010000000000000000000000000000000000000000000000000000000000000000000000000000000000000000000000000000000000000000000000000000000000000000000000000000000000000000000000000000000000000000000000000000000000000000000000000000000000000000000000000000000000000000000000000000000000000000000000000000000000000000000000000000000000000000000000000000000000000000000000000000000000000000000000000000000000000000000000000000000000000000000000000000000000000000000000000000000000000000000000000000000000000000000000000000000000c0"
                    }
                ],
                "rlp": "0xf90281f90218a06b254f93a65f39a436cbf4059c2bd27db458e753ea3c4310c812f7b890469ca6a01dcc4de8dec75d7aab85b567b6ccd41ad312451b948a7413f0a142fd40d49347942adc25665018aa1fe0e6bc666dac8fc2697ff9baa0f37890a5b78effe848be9ee01c61ffc3cd509daa026dd895e666a1d2bef76afca037673be10dc66f0970057054f3bc8acc19bd607d35bc36f1000c1c04d9af950ba0371fb27f5edc76d68206c1b33fe6ae1b4d2b45de130086747fe44e8553b143b8b901000000000000000000000000000000000000000000000000000000000000000000000000000000000000000000000000000000000000000000000000000000000000000000000000000000000000000000000000000000000000000000000000000000000000000000000000000000000000000000000000000000000000000000000000000000000000000000000000000000000000000000000000000000000000000000000000000000000000000000000000000000000000000000000000000000000000000000000000000000000000000000000000000000000000000000000000000000000000000000000000000000000000000000000000000000000080018407270e008301589d8203e800a0000000000000000000000000000000000000000000000000000000000000000088000000000000000007a056e81f171bcc55a6ff8345e692c0f86e5b48e01b996cadc001622fb5e363b421f862f860800a830f424094a6f6b89915b5c0528222eb8a588a1a5a0ff7b18a808026a0cb4334e16c26ef41780994a5349e0b36894f51ca320e570e1eaafa20eed1b342a0417daa1237cc9460617667267e362958c229703433b4c64715f255c3e9a17ca1c0c0",
                "blocknumber": "1"
            }
        ],
        "sealEngine": "NoProof",
        "_info": {
            "hash": "0x57f30795922b82e499adb1f3f31b853ba798a333c1ad1e79b6a4364b7ee06d72",
            "fixture-format": "blockchain_test",
            "comment": "`execution-specs` generated test",
            "filling-transition-tool": "2.19.0",
            "description": "Test the base gas cost of the ecpairing precompile with zero pairs.",
            "url": "https://github.com/ethereum/execution-specs/blob/tests-snobal-devnet-5@v8037.0.0/tests/byzantium/eip197_ec_pairing/test_gas.py#L31",
            "metadata": {
                "opcode_count": {}
            },
            "reference-spec": "https://github.com/ethereum/EIPs/blob/master/EIPS/eip-197.md",
            "reference-spec-version": "9f9b3d33440e7c122b6c9192facfc380bc009422"
        }
    }
}