{
    "tests/prague/eip2537_bls_12_381_precompiles/test_bls12_variable_length_input_contracts.py::test_invalid_gas_g1msm[fork_Osaka-discount_table_1_of_4-state_test-precompile_address_12--insufficient_gas]": {
        "env": {
            "currentCoinbase": "0x2adc25665018aa1fe0e6bc666dac8fc2697ff9ba",
            "currentGasLimit": "0x055d4a80",
            "currentNumber": "0x01",
            "currentTimestamp": "0x03e8",
            "currentRandom": "0x0000000000000000000000000000000000000000000000000000000000000000",
            "currentDifficulty": "0x00",
            "currentBaseFee": "0x07",
            "currentExcessBlobGas": "0x00"
        },
        "pre": {
            "0xd91cd6ebece6c3faa88575d7c270d992f876e9df": {
                "nonce": "0x01",
                "balance": "0x00",
                "code": "0x6000600060a060006000600c612edff16000556000600061014060006000600c6158f7f1600155600060006101e060006000600c61773ff16002556000600061028060006000600c61956ff16003556000600061032060006000600c61b30ff1600455600060006103c060006000600c61d2eff16005556000600061046060006000600c61f227f16006556000600061050060006000600c620110fff1600755600060006105a060006000600c62012f53f16008556000600061064060006000600c62014dbff1600955600060006106e060006000600c62016b83f1600a556000600061078060006000600c6201889ff1600b556000600061082060006000600c6201a5aff1600c55600060006108c060006000600c6201c2d7f1600d556000600061096060006000600c6201df87f1600e5560006000610a0060006000600c6201fbbff1600f5560006000610aa060006000600c6202184bf160105560006000610b4060006000600c62023477f160115560006000610be060006000600c62025043f160125560006000610c8060006000600c62026baff160135560006000610d2060006000600c620287b7f160145560006000610dc060006000600c6202a26ff160155560006000610e6060006000600c6202bddbf160165560006000610f0060006000600c6202d8fff160175560006000610fa060006000600c6202f3dbf16018556000600061104060006000600c62030e6ff1601955600060006110e060006000600c620329fff1601a556000600061118060006000600c6203440ff1601b556000600061122060006000600c62035f33f1601c55600060006112c060006000600c620378bff1601d556000600061136060006000600c62039377f1601e556000600061140060006000600c6203ac7ff1601f55600060006114a060006000600c6203c6cbf16020556000600061154060006000600c6203e0e7f1602155600060006115e060006000600c6203fad3f16022556000600061168060006000600c6204148ff16023556000600061172060006000600c62042e1bf1602455600060006117c060006000600c62044777f16025556000600061186060006000600c620460a3f16026556000600061190060006000600c6204799ff1602755600060006119a060006000600c6204926bf160285560006000611a4060006000600c6204acfff160295560006000611ae060006000600c6204c577f1602a5560006000611b8060006000600c6204ddbff1602b5560006000611c2060006000600c6204f7f3f1602c5560006000611cc060006000600c62050fe7f1602d5560006000611d6060006000600c620527abf1602e5560006000611e0060006000600c6205417ff1602f5560006000611ea060006000600c620558eff160305560006000611f4060006000600c62057287f160315560006000611fe060006000600c620589a3f16032556000600061208060006000600c6205a2fff16033556000600061212060006000600c6205bc43f1603455600060006121c060006000600c6205d2e7f16035556000600061226060006000600c6205ebeff16036556000600061230060006000600c6206023ff1603755600060006123a060006000600c62061b0bf16038556000600061244060006000600c620633bff1603955600060006124e060006000600c62064997f1603a556000600061258060006000600c6206620ff1603b556000600061262060006000600c62067a6ff1603c55600060006126c060006000600c620692b7f1603d556000600061276060006000600c6206a7f3f1603e556000600061280060006000600c6206bffff1603f55",
                "storage": {}
            },
            "0x34c3cce92530b69377625617684c22d30f01f8e1": {
                "nonce": "0x00",
                "balance": "0x0de0b6b3a7640000",
                "code": "0x",
                "storage": {}
            }
        },
        "transaction": {
            "nonce": "0x00",
            "gasPrice": "0x0a",
            "gasLimit": [
                "0xffb3f0"
            ],
            "to": "0xd91cd6ebece6c3faa88575d7c270d992f876e9df",
            "value": [
                "0x00"
            ],
            "data": [
                "0x"
            ],
            "sender": "0x34c3cce92530b69377625617684c22d30f01f8e1",
            "secretKey": "0xf3527c10dd67f871718be8e0d91cd6ebece6c3faa88575d7c270d992f876e9df"
        },
        "post": {
            "Osaka": [
                {
                    "hash": "0x594f333143b3f85af1a1ebed6f1351c300c8f74457f5a35d0cc046c05f7efb5d",
                    "logs": "0x1dcc4de8dec75d7aab85b567b6ccd41ad312451b948a7413f0a142fd40d49347",
                    "txbytes": "0xf860800a83ffb3f094d91cd6ebece6c3faa88575d7c270d992f876e9df808026a0b58e968615d6815b7c9356f2770502ce8957e98e98322cea027338a9197c4231a0487aa0a66de783896a4e106fe035d3090e897830ddcc2003c655b92b519c1d5d",
                    "indexes": {
                        "data": 0,
                        "gas": 0,
                        "value": 0
                    },
                    "state": {
                        "0xd91cd6ebece6c3faa88575d7c270d992f876e9df": {
                            "nonce": "0x01",
                            "balance": "0x00",
                            "code": "0x6000600060a060006000600c612edff16000556000600061014060006000600c6158f7f1600155600060006101e060006000600c61773ff16002556000600061028060006000600c61956ff16003556000600061032060006000600c61b30ff1600455600060006103c060006000600c61d2eff16005556000600061046060006000600c61f227f16006556000600061050060006000600c620110fff1600755600060006105a060006000600c62012f53f16008556000600061064060006000600c62014dbff1600955600060006106e060006000600c62016b83f1600a556000600061078060006000600c6201889ff1600b556000600061082060006000600c6201a5aff1600c55600060006108c060006000600c6201c2d7f1600d556000600061096060006000600c6201df87f1600e5560006000610a0060006000600c6201fbbff1600f5560006000610aa060006000600c6202184bf160105560006000610b4060006000600c62023477f160115560006000610be060006000600c62025043f160125560006000610c8060006000600c62026baff160135560006000610d2060006000600c620287b7f160145560006000610dc060006000600c6202a26ff160155560006000610e6060006000600c6202bddbf160165560006000610f0060006000600c6202d8fff160175560006000610fa060006000600c6202f3dbf16018556000600061104060006000600c62030e6ff1601955600060006110e060006000600c620329fff1601a556000600061118060006000600c6203440ff1601b556000600061122060006000600c62035f33f1601c55600060006112c060006000600c620378bff1601d556000600061136060006000600c62039377f1601e556000600061140060006000600c6203ac7ff1601f55600060006114a060006000600c6203c6cbf16020556000600061154060006000600c6203e0e7f1602155600060006115e060006000600c6203fad3f16022556000600061168060006000600c6204148ff16023556000600061172060006000600c62042e1bf1602455600060006117c060006000600c62044777f16025556000600061186060006000600c620460a3f16026556000600061190060006000600c6204799ff1602755600060006119a060006000600c6204926bf160285560006000611a4060006000600c6204acfff160295560006000611ae060006000600c6204c577f1602a5560006000611b8060006000600c6204ddbff1602b5560006000611c2060006000600c6204f7f3f1602c5560006000611cc060006000600c62050fe7f1602d5560006000611d6060006000600c620527abf1602e5560006000611e0060006000600c6205417ff1602f5560006000611ea060006000600c620558eff160305560006000611f4060006000600c62057287f160315560006000611fe060006000600c620589a3f16032556000600061208060006000600c6205a2fff16033556000600061212060006000600c6205bc43f1603455600060006121c060006000600c6205d2e7f16035556000600061226060006000600c6205ebeff16036556000600061230060006000600c6206023ff1603755600060006123a060006000600c62061b0bf16038556000600061244060006000600c620633bff1603955600060006124e060006000600c62064997f1603a556000600061258060006000600c6206620ff1603b556000600061262060006000600c62067a6ff1603c55600060006126c060006000600c620692b7f1603d556000600061276060006000600c6206a7f3f1603e556000600061280060006000600c6206bffff1603f55",
                            "storage": {}
                        },
                        "0x34c3cce92530b69377625617684c22d30f01f8e1": {
                            "nonce": "0x01",
                            "balance": "0x0de0b6b39e2c0320",
                            "code": "0x",
                            "storage": {}
                        },
                        "0x2adc25665018aa1fe0e6bc666dac8fc2697ff9ba": {
                            "nonce": "0x00",
                            "balance": "0x02c3ff10",
                            "code": "0x",
                            "storage": {}
                        }
                    }
                }
            ]
        },
        "config": {
            "blobSchedule": {
                "Cancun": {
                    "target": "0x03",
                    "max": "0x06",
                    "baseFeeUpdateFraction": "0x32f0ed"
                },
                "Prague": {
                    "target": "0x06",
                    "max": "0x09",
                    "baseFeeUpdateFraction": "0x4c6964"
                },
                "Osaka": {
                    "target": "0x06",
                    "max": "0x09",
                    "baseFeeUpdateFraction": "0x4c6964"
                }
            },
            "chainid": "0x01"
        },
        "_info": {
            "hash": "0xfaee5bb5d2cb4f6484ba6340b69b421d5e487f81272cc8f1bca49e79560a4032",
            "comment": "`execution-spec-tests` generated test",
            "filling-transition-tool": "ethereum-spec-evm-resolver 0.0.5",
            "description": "Test the BLS12_G1MSM discount gas table in full, by expecting the call to fail for\n    all possible input lengths because the appropriate amount of gas is not provided.\n\n    If any of the calls succeeds, the test will fail.",
            "url": "https://github.com/ethereum/execution-spec-tests/tree/v5.0.0/tests/prague/eip2537_bls_12_381_precompiles/test_bls12_variable_length_input_contracts.py#L293",
            "fixture-format": "state_test",
            "reference-spec": "https://github.com/ethereum/EIPs/blob/master/EIPS/eip-2537.md",
            "reference-spec-version": "c561ec1426fe5ec470eade499a0bd4174f270583",
            "eels-resolution": {
                "git-url": "https://github.com/marioevz/execution-specs.git",
                "branch": "forks/bpo1",
                "commit": "3387e5f4aedfe99becfdc39b444d6371e25e0924"
            }
        }
    },
    "tests/prague/eip2537_bls_12_381_precompiles/test_bls12_variable_length_input_contracts.py::test_invalid_gas_g1msm[fork_Osaka-discount_table_2_of_4-state_test-precompile_address_12--insufficient_gas]": {
        "env": {
            "currentCoinbase": "0x2adc25665018aa1fe0e6bc666dac8fc2697ff9ba",
            "currentGasLimit": "0x055d4a80",
            "currentNumber": "0x01",
            "currentTimestamp": "0x03e8",
            "currentRandom": "0x0000000000000000000000000000000000000000000000000000000000000000",
            "currentDifficulty": "0x00",
            "currentBaseFee": "0x07",
            "currentExcessBlobGas": "0x00"
        },
        "pre": {
            "0x0cba9d7ff4aa6350eec0baee2832e7369b92683d": {
                "nonce": "0x01",
                "balance": "0x00",
                "code": "0x600060006128a060006000600c6206d7f3f16000556000600061294060006000600c6206efcff1600155600060006129e060006000600c62070793f160025560006000612a8060006000600c62071f3ff160035560006000612b2060006000600c62073397f160045560006000612bc060006000600c62074b07f160055560006000612c6060006000600c6207625ff160065560006000612d0060006000600c6207799ff160075560006000612da060006000600c620790c7f160085560006000612e4060006000600c6207a7d7f160095560006000612ee060006000600c6207becff1600a5560006000612f8060006000600c6207d5aff1600b556000600061302060006000600c6207ec77f1600c55600060006130c060006000600c62080327f1600d556000600061316060006000600c620819bff1600e556000600061320060006000600c6208303ff1600f55600060006132a060006000600c620846a7f16010556000600061334060006000600c62085cf7f1601155600060006133e060006000600c6208732ff16012556000600061348060006000600c6208894ff16013556000600061352060006000600c62089f57f1601455600060006135c060006000600c6208b547f16015556000600061366060006000600c6208cb1ff16016556000600061370060006000600c6208e0dff1601755600060006137a060006000600c6208f687f16018556000600061384060006000600c62090c17f1601955600060006138e060006000600c6209218ff1601a556000600061398060006000600c620936eff1601b5560006000613a2060006000600c62095093f1601c5560006000613ac060006000600c620965cff1601d55",
                "storage": {}
            },
            "0x019f462ba351c721d01fc5735b83d20e0233ca69": {
                "nonce": "0x00",
                "balance": "0x0de0b6b3a7640000",
                "code": "0x",
                "storage": {}
            }
        },
        "transaction": {
            "nonce": "0x00",
            "gasPrice": "0x0a",
            "gasLimit": [
                "0xfea82d"
            ],
            "to": "0x0cba9d7ff4aa6350eec0baee2832e7369b92683d",
            "value": [
                "0x00"
            ],
            "data": [
                "0x"
            ],
            "sender": "0x019f462ba351c721d01fc5735b83d20e0233ca69",
            "secretKey": "0x6f3d6a6b4ae7f1615cb9b2f90cba9d7ff4aa6350eec0baee2832e7369b92683d"
        },
        "post": {
            "Osaka": [
                {
                    "hash": "0x1e8bc3db44658e1f5978a057c86e4c3b09f6b58d5a73230ef600983bc35071df",
                    "logs": "0x1dcc4de8dec75d7aab85b567b6ccd41ad312451b948a7413f0a142fd40d49347",
                    "txbytes": "0xf860800a83fea82d940cba9d7ff4aa6350eec0baee2832e7369b92683d808025a08459c09cd4e226c4411fa564b6e450f5d66dc1cdd3e0d56734e332c269946bbba0382438b74fdc287c07d5bb0c9b5dc708772b5f240027cbe51fe46049b3f29c95",
                    "indexes": {
                        "data": 0,
                        "gas": 0,
                        "value": 0
                    },
                    "state": {
                        "0x0cba9d7ff4aa6350eec0baee2832e7369b92683d": {
                            "nonce": "0x01",
                            "balance": "0x00",
                            "code": "0x600060006128a060006000600c6206d7f3f16000556000600061294060006000600c6206efcff1600155600060006129e060006000600c62070793f160025560006000612a8060006000600c62071f3ff160035560006000612b2060006000600c62073397f160045560006000612bc060006000600c62074b07f160055560006000612c6060006000600c6207625ff160065560006000612d0060006000600c6207799ff160075560006000612da060006000600c620790c7f160085560006000612e4060006000600c6207a7d7f160095560006000612ee060006000600c6207becff1600a5560006000612f8060006000600c6207d5aff1600b556000600061302060006000600c6207ec77f1600c55600060006130c060006000600c62080327f1600d556000600061316060006000600c620819bff1600e556000600061320060006000600c6208303ff1600f55600060006132a060006000600c620846a7f16010556000600061334060006000600c62085cf7f1601155600060006133e060006000600c6208732ff16012556000600061348060006000600c6208894ff16013556000600061352060006000600c62089f57f1601455600060006135c060006000600c6208b547f16015556000600061366060006000600c6208cb1ff16016556000600061370060006000600c6208e0dff1601755600060006137a060006000600c6208f687f16018556000600061384060006000600c62090c17f1601955600060006138e060006000600c6209218ff1601a556000600061398060006000600c620936eff1601b5560006000613a2060006000600c62095093f1601c5560006000613ac060006000600c620965cff1601d55",
                            "storage": {}
                        },
                        "0x019f462ba351c721d01fc5735b83d20e0233ca69": {
                            "nonce": "0x01",
                            "balance": "0x0de0b6b39dcdcb2a",
                            "code": "0x",
                            "storage": {}
                        },
                        "0x2adc25665018aa1fe0e6bc666dac8fc2697ff9ba": {
                            "nonce": "0x00",
                            "balance": "0x02e0430d",
                            "code": "0x",
                            "storage": {}
                        }
                    }
                }
            ]
        },
        "config": {
            "blobSchedule": {
                "Cancun": {
                    "target": "0x03",
                    "max": "0x06",
                    "baseFeeUpdateFraction": "0x32f0ed"
                },
                "Prague": {
                    "target": "0x06",
                    "max": "0x09",
                    "baseFeeUpdateFraction": "0x4c6964"
                },
                "Osaka": {
                    "target": "0x06",
                    "max": "0x09",
                    "baseFeeUpdateFraction": "0x4c6964"
                }
            },
            "chainid": "0x01"
        },
        "_info": {
            "hash": "0x245237c88bd28612cc49949d0b4343ee7c7c9c7ddec5dd4270b50913e23608d7",
            "comment": "`execution-spec-tests` generated test",
            "filling-transition-tool": "ethereum-spec-evm-resolver 0.0.5",
            "description": "Test the BLS12_G1MSM discount gas table in full, by expecting the call to fail for\n    all possible input lengths because the appropriate amount of gas is not provided.\n\n    If any of the calls succeeds, the test will fail.",
            "url": "https://github.com/ethereum/execution-spec-tests/tree/v5.0.0/tests/prague/eip2537_bls_12_381_precompiles/test_bls12_variable_length_input_contracts.py#L293",
            "fixture-format": "state_test",
            "reference-spec": "https://github.com/ethereum/EIPs/blob/master/EIPS/eip-2537.md",
            "reference-spec-version": "c561ec1426fe5ec470eade499a0bd4174f270583",
            "eels-resolution": {
                "git-url": "https://github.com/marioevz/execution-specs.git",
                "branch": "forks/bpo1",
                "commit": "3387e5f4aedfe99becfdc39b444d6371e25e0924"
            }
        }
    },
    "tests/prague/eip2537_bls_12_381_precompiles/test_bls12_variable_length_input_contracts.py::test_invalid_gas_g1msm[fork_Osaka-discount_table_3_of_4-state_test-precompile_address_12--insufficient_gas]": {
        "env": {
            "currentCoinbase": "0x2adc25665018aa1fe0e6bc666dac8fc2697ff9ba",
            "currentGasLimit": "0x055d4a80",
            "currentNumber": "0x01",
            "currentTimestamp": "0x03e8",
            "currentRandom": "0x0000000000000000000000000000000000000000000000000000000000000000",
            "currentDifficulty": "0x00",
            "currentBaseFee": "0x07",
            "currentExcessBlobGas": "0x00"
        },
        "pre": {
            "0xba905284a2e0296799eba1e47808590e154b4ff6": {
                "nonce": "0x01",
                "balance": "0x00",
                "code": "0x60006000613b6060006000600c62097af3f160005560006000613c0060006000600c62098ffff160015560006000613ca060006000600c6209a4f3f160025560006000613d4060006000600c6209b9cff160035560006000613de060006000600c6209ce93f160045560006000613e8060006000600c6209e33ff160055560006000613f2060006000600c6209fc8ff160065560006000613fc060006000600c620a1117f16007556000600061406060006000600c620a2587f16008556000600061410060006000600c620a39dff1600955600060006141a060006000600c620a4e1ff1600a556000600061424060006000600c620a673ff1600b55600060006142e060006000600c620a7b5bf1600c556000600061438060006000600c620a8f5ff1600d556000600061442060006000600c620aa34bf1600e55600060006144c060006000600c620ab71ff1600f556000600061456060006000600c620ad00ff16010556000600061460060006000600c620ae3bff1601155600060006146a060006000600c620af757f16012556000600061474060006000600c620b0ad7f1601355600060006147e060006000600c620b1e3ff16014556000600061488060006000600c620b36fff16015556000600061492060006000600c620b4a43f1601655",
                "storage": {}
            },
            "0x734932a26c8a83f6c60e63f9f390b434e3719a60": {
                "nonce": "0x00",
                "balance": "0x0de0b6b3a7640000",
                "code": "0x",
                "storage": {}
            }
        },
        "transaction": {
            "nonce": "0x00",
            "gasPrice": "0x0a",
            "gasLimit": [
                "0xf739a3"
            ],
            "to": "0xba905284a2e0296799eba1e47808590e154b4ff6",
            "value": [
                "0x00"
            ],
            "data": [
                "0x"
            ],
            "sender": "0x734932a26c8a83f6c60e63f9f390b434e3719a60",
            "secretKey": "0x631d5fa4417f1e04edf081e8ba905284a2e0296799eba1e47808590e154b4ff6"
        },
        "post": {
            "Osaka": [
                {
                    "hash": "0x12efdc39f39cb3a3744bfbe77079d11c06ccc06c18c549a58056f943ef0c54d2",
                    "logs": "0x1dcc4de8dec75d7aab85b567b6ccd41ad312451b948a7413f0a142fd40d49347",
                    "txbytes": "0xf860800a83f739a394ba905284a2e0296799eba1e47808590e154b4ff6808025a02e8f2944a5cbd958f1353f4253617464be3e4c845f74808d9537b752f92007c6a07cdbaaf104c8c452aa7387adfdfa0dd2eb220ac7b02e09fd1dad0d4f887388db",
                    "indexes": {
                        "data": 0,
                        "gas": 0,
                        "value": 0
                    },
                    "state": {
                        "0xba905284a2e0296799eba1e47808590e154b4ff6": {
                            "nonce": "0x01",
                            "balance": "0x00",
                            "code": "0x60006000613b6060006000600c62097af3f160005560006000613c0060006000600c62098ffff160015560006000613ca060006000600c6209a4f3f160025560006000613d4060006000600c6209b9cff160035560006000613de060006000600c6209ce93f160045560006000613e8060006000600c6209e33ff160055560006000613f2060006000600c6209fc8ff160065560006000613fc060006000600c620a1117f16007556000600061406060006000600c620a2587f16008556000600061410060006000600c620a39dff1600955600060006141a060006000600c620a4e1ff1600a556000600061424060006000600c620a673ff1600b55600060006142e060006000600c620a7b5bf1600c556000600061438060006000600c620a8f5ff1600d556000600061442060006000600c620aa34bf1600e55600060006144c060006000600c620ab71ff1600f556000600061456060006000600c620ad00ff16010556000600061460060006000600c620ae3bff1601155600060006146a060006000600c620af757f16012556000600061474060006000600c620b0ad7f1601355600060006147e060006000600c620b1e3ff16014556000600061488060006000600c620b36fff16015556000600061492060006000600c620b4a43f1601655",
                            "storage": {}
                        },
                        "0x734932a26c8a83f6c60e63f9f390b434e3719a60": {
                            "nonce": "0x01",
                            "balance": "0x0de0b6b39e028f68",
                            "code": "0x",
                            "storage": {}
                        },
                        "0x2adc25665018aa1fe0e6bc666dac8fc2697ff9ba": {
                            "nonce": "0x00",
                            "balance": "0x02d06e94",
                            "code": "0x",
                            "storage": {}
                        }
                    }
                }
            ]
        },
        "config": {
            "blobSchedule": {
                "Cancun": {
                    "target": "0x03",
                    "max": "0x06",
                    "baseFeeUpdateFraction": "0x32f0ed"
                },
                "Prague": {
                    "target": "0x06",
                    "max": "0x09",
                    "baseFeeUpdateFraction": "0x4c6964"
                },
                "Osaka": {
                    "target": "0x06",
                    "max": "0x09",
                    "baseFeeUpdateFraction": "0x4c6964"
                }
            },
            "chainid": "0x01"
        },
        "_info": {
            "hash": "0x722f116c6f4872b7f32c2814c7ea6515daf008d407f9a09685b05fd3896bc618",
            "comment": "`execution-spec-tests` generated test",
            "filling-transition-tool": "ethereum-spec-evm-resolver 0.0.5",
            "description": "Test the BLS12_G1MSM discount gas table in full, by expecting the call to fail for\n    all possible input lengths because the appropriate amount of gas is not provided.\n\n    If any of the calls succeeds, the test will fail.",
            "url": "https://github.com/ethereum/execution-spec-tests/tree/v5.0.0/tests/prague/eip2537_bls_12_381_precompiles/test_bls12_variable_length_input_contracts.py#L293",
            "fixture-format": "state_test",
            "reference-spec": "https://github.com/ethereum/EIPs/blob/master/EIPS/eip-2537.md",
            "reference-spec-version": "c561ec1426fe5ec470eade499a0bd4174f270583",
            "eels-resolution": {
                "git-url": "https://github.com/marioevz/execution-specs.git",
                "branch": "forks/bpo1",
                "commit": "3387e5f4aedfe99becfdc39b444d6371e25e0924"
            }
        }
    },
    "tests/prague/eip2537_bls_12_381_precompiles/test_bls12_variable_length_input_contracts.py::test_invalid_gas_g1msm[fork_Osaka-discount_table_4_of_4-state_test-precompile_address_12--insufficient_gas]": {
        "env": {
            "currentCoinbase": "0x2adc25665018aa1fe0e6bc666dac8fc2697ff9ba",
            "currentGasLimit": "0x055d4a80",
            "currentNumber": "0x01",
            "currentTimestamp": "0x03e8",
            "currentRandom": "0x0000000000000000000000000000000000000000000000000000000000000000",
            "currentDifficulty": "0x00",
            "currentBaseFee": "0x07",
            "currentExcessBlobGas": "0x00"
        },
        "pre": {
            "0xaf0d6ab916e8100fa426247de815364b58ae29d2": {
                "nonce": "0x01",
                "balance": "0x00",
                "code": "0x600060006149c060006000600c620b5d6ff160005560006000614a6060006000600c620b7083f160015560006000614b0060006000600c620b891ff160025560006000614ba060006000600c620b9c0ff160035560006000614c4060006000600c620baee7f160045560006000614ce060006000600c620bc1a7f160055560006000614d8060006000600c620bda1ff160065560006000614e2060006000600c620becbbf160075560006000614ec060006000600c620bff3ff160085560006000614f6060006000600c620c179ff16009556000600061500060006000600c620c29fff1600a55600060006150a060006000600c620c4253f1600b55",
                "storage": {}
            },
            "0x7774cf93194fa6cb0521b8664ef260924f004f85": {
                "nonce": "0x00",
                "balance": "0x0de0b6b3a7640000",
                "code": "0x",
                "storage": {}
            }
        },
        "transaction": {
            "nonce": "0x00",
            "gasPrice": "0x0a",
            "gasLimit": [
                "0x922937"
            ],
            "to": "0xaf0d6ab916e8100fa426247de815364b58ae29d2",
            "value": [
                "0x00"
            ],
            "data": [
                "0x"
            ],
            "sender": "0x7774cf93194fa6cb0521b8664ef260924f004f85",
            "secretKey": "0xf0a672d8d5f98f3f84286bbcaf0d6ab916e8100fa426247de815364b58ae29d2"
        },
        "post": {
            "Osaka": [
                {
                    "hash": "0xf48bae4986e8ee497dd5f94fadf9aaaef0f552815f9d9f74fe967cac94179d83",
                    "logs": "0x1dcc4de8dec75d7aab85b567b6ccd41ad312451b948a7413f0a142fd40d49347",
                    "txbytes": "0xf860800a8392293794af0d6ab916e8100fa426247de815364b58ae29d2808026a0b248e654f038c4881df3db8ff4ac637dfb45fda657629974f3f6ce3d0c51d3f9a0597efa5866300d2860621f1f5298f9d57b6e642519df5dbb05e9a8e40692c92c",
                    "indexes": {
                        "data": 0,
                        "gas": 0,
                        "value": 0
                    },
                    "state": {
                        "0xaf0d6ab916e8100fa426247de815364b58ae29d2": {
                            "nonce": "0x01",
                            "balance": "0x00",
                            "code": "0x600060006149c060006000600c620b5d6ff160005560006000614a6060006000600c620b7083f160015560006000614b0060006000600c620b891ff160025560006000614ba060006000600c620b9c0ff160035560006000614c4060006000600c620baee7f160045560006000614ce060006000600c620bc1a7f160055560006000614d8060006000600c620bda1ff160065560006000614e2060006000600c620becbbf160075560006000614ec060006000600c620bff3ff160085560006000614f6060006000600c620c179ff16009556000600061500060006000600c620c29fff1600a55600060006150a060006000600c620c4253f1600b55",
                            "storage": {}
                        },
                        "0x7774cf93194fa6cb0521b8664ef260924f004f85": {
                            "nonce": "0x01",
                            "balance": "0x0de0b6b3a1d355d2",
                            "code": "0x",
                            "storage": {}
                        },
                        "0x2adc25665018aa1fe0e6bc666dac8fc2697ff9ba": {
                            "nonce": "0x00",
                            "balance": "0x01ab6641",
                            "code": "0x",
                            "storage": {}
                        }
                    }
                }
            ]
        },
        "config": {
            "blobSchedule": {
                "Cancun": {
                    "target": "0x03",
                    "max": "0x06",
                    "baseFeeUpdateFraction": "0x32f0ed"
                },
                "Prague": {
                    "target": "0x06",
                    "max": "0x09",
                    "baseFeeUpdateFraction": "0x4c6964"
                },
                "Osaka": {
                    "target": "0x06",
                    "max": "0x09",
                    "baseFeeUpdateFraction": "0x4c6964"
                }
            },
            "chainid": "0x01"
        },
        "_info": {
            "hash": "0xdff430245f6dad1442794a17e7adacdf31f37a35efdb94c8a21cba98d1e2d632",
            "comment": "`execution-spec-tests` generated test",
            "filling-transition-tool": "ethereum-spec-evm-resolver 0.0.5",
            "description": "Test the BLS12_G1MSM discount gas table in full, by expecting the call to fail for\n    all possible input lengths because the appropriate amount of gas is not provided.\n\n    If any of the calls succeeds, the test will fail.",
            "url": "https://github.com/ethereum/execution-spec-tests/tree/v5.0.0/tests/prague/eip2537_bls_12_381_precompiles/test_bls12_variable_length_input_contracts.py#L293",
            "fixture-format": "state_test",
            "reference-spec": "https://github.com/ethereum/EIPs/blob/master/EIPS/eip-2537.md",
            "reference-spec-version": "c561ec1426fe5ec470eade499a0bd4174f270583",
            "eels-resolution": {
                "git-url": "https://github.com/marioevz/execution-specs.git",
                "branch": "forks/bpo1",
                "commit": "3387e5f4aedfe99becfdc39b444d6371e25e0924"
            }
        }
    },
    "tests/prague/eip2537_bls_12_381_precompiles/test_bls12_variable_length_input_contracts.py::test_invalid_gas_g1msm[fork_Prague-full_discount_table-state_test-precompile_address_12--insufficient_gas]": {
        "env": {
            "currentCoinbase": "0x2adc25665018aa1fe0e6bc666dac8fc2697ff9ba",
            "currentGasLimit": "0x055d4a80",
            "currentNumber": "0x01",
            "currentTimestamp": "0x03e8",
            "currentRandom": "0x0000000000000000000000000000000000000000000000000000000000000000",
            "currentDifficulty": "0x00",
            "currentBaseFee": "0x07",
            "currentExcessBlobGas": "0x00"
        },
        "pre": {
            "0xfe0ace2eb56f8c23d9af572de06b83d101ffc3ac": {
                "nonce": "0x01",
                "balance": "0x00",
                "code": "0x6000600060a060006000600c612edff16000556000600061014060006000600c6158f7f1600155600060006101e060006000600c61773ff16002556000600061028060006000600c61956ff16003556000600061032060006000600c61b30ff1600455600060006103c060006000600c61d2eff16005556000600061046060006000600c61f227f16006556000600061050060006000600c620110fff1600755600060006105a060006000600c62012f53f16008556000600061064060006000600c62014dbff1600955600060006106e060006000600c62016b83f1600a556000600061078060006000600c6201889ff1600b556000600061082060006000600c6201a5aff1600c55600060006108c060006000600c6201c2d7f1600d556000600061096060006000600c6201df87f1600e5560006000610a0060006000600c6201fbbff1600f5560006000610aa060006000600c6202184bf160105560006000610b4060006000600c62023477f160115560006000610be060006000600c62025043f160125560006000610c8060006000600c62026baff160135560006000610d2060006000600c620287b7f160145560006000610dc060006000600c6202a26ff160155560006000610e6060006000600c6202bddbf160165560006000610f0060006000600c6202d8fff160175560006000610fa060006000600c6202f3dbf16018556000600061104060006000600c62030e6ff1601955600060006110e060006000600c620329fff1601a556000600061118060006000600c6203440ff1601b556000600061122060006000600c62035f33f1601c55600060006112c060006000600c620378bff1601d556000600061136060006000600c62039377f1601e556000600061140060006000600c6203ac7ff1601f55600060006114a060006000600c6203c6cbf16020556000600061154060006000600c6203e0e7f1602155600060006115e060006000600c6203fad3f16022556000600061168060006000600c6204148ff16023556000600061172060006000600c62042e1bf1602455600060006117c060006000600c62044777f16025556000600061186060006000600c620460a3f16026556000600061190060006000600c6204799ff1602755600060006119a060006000600c6204926bf160285560006000611a4060006000600c6204acfff160295560006000611ae060006000600c6204c577f1602a5560006000611b8060006000600c6204ddbff1602b5560006000611c2060006000600c6204f7f3f1602c5560006000611cc060006000600c62050fe7f1602d5560006000611d6060006000600c620527abf1602e5560006000611e0060006000600c6205417ff1602f5560006000611ea060006000600c620558eff160305560006000611f4060006000600c62057287f160315560006000611fe060006000600c620589a3f16032556000600061208060006000600c6205a2fff16033556000600061212060006000600c6205bc43f1603455600060006121c060006000600c6205d2e7f16035556000600061226060006000600c6205ebeff16036556000600061230060006000600c6206023ff1603755600060006123a060006000600c62061b0bf16038556000600061244060006000600c620633bff1603955600060006124e060006000600c62064997f1603a556000600061258060006000600c6206620ff1603b556000600061262060006000600c62067a6ff1603c55600060006126c060006000600c620692b7f1603d556000600061276060006000600c6206a7f3f1603e556000600061280060006000600c6206bffff1603f55600060006128a060006000600c6206d7f3f16040556000600061294060006000600c6206efcff1604155600060006129e060006000600c62070793f160425560006000612a8060006000600c62071f3ff160435560006000612b2060006000600c62073397f160445560006000612bc060006000600c62074b07f160455560006000612c6060006000600c6207625ff160465560006000612d0060006000600c6207799ff160475560006000612da060006000600c620790c7f160485560006000612e4060006000600c6207a7d7f160495560006000612ee060006000600c6207becff1604a5560006000612f8060006000600c6207d5aff1604b556000600061302060006000600c6207ec77f1604c55600060006130c060006000600c62080327f1604d556000600061316060006000600c620819bff1604e556000600061320060006000600c6208303ff1604f55600060006132a060006000600c620846a7f16050556000600061334060006000600c62085cf7f1605155600060006133e060006000600c6208732ff16052556000600061348060006000600c6208894ff16053556000600061352060006000600c62089f57f1605455600060006135c060006000600c6208b547f16055556000600061366060006000600c6208cb1ff16056556000600061370060006000600c6208e0dff1605755600060006137a060006000600c6208f687f16058556000600061384060006000600c62090c17f1605955600060006138e060006000600c6209218ff1605a556000600061398060006000600c620936eff1605b5560006000613a2060006000600c62095093f1605c5560006000613ac060006000600c620965cff1605d5560006000613b6060006000600c62097af3f1605e5560006000613c0060006000600c62098ffff1605f5560006000613ca060006000600c6209a4f3f160605560006000613d4060006000600c6209b9cff160615560006000613de060006000600c6209ce93f160625560006000613e8060006000600c6209e33ff160635560006000613f2060006000600c6209fc8ff160645560006000613fc060006000600c620a1117f16065556000600061406060006000600c620a2587f16066556000600061410060006000600c620a39dff1606755600060006141a060006000600c620a4e1ff16068556000600061424060006000600c620a673ff1606955600060006142e060006000600c620a7b5bf1606a556000600061438060006000600c620a8f5ff1606b556000600061442060006000600c620aa34bf1606c55600060006144c060006000600c620ab71ff1606d556000600061456060006000600c620ad00ff1606e556000600061460060006000600c620ae3bff1606f55600060006146a060006000600c620af757f16070556000600061474060006000600c620b0ad7f1607155600060006147e060006000600c620b1e3ff16072556000600061488060006000600c620b36fff16073556000600061492060006000600c620b4a43f1607455600060006149c060006000600c620b5d6ff160755560006000614a6060006000600c620b7083f160765560006000614b0060006000600c620b891ff160775560006000614ba060006000600c620b9c0ff160785560006000614c4060006000600c620baee7f160795560006000614ce060006000600c620bc1a7f1607a5560006000614d8060006000600c620bda1ff1607b5560006000614e2060006000600c620becbbf1607c5560006000614ec060006000600c620bff3ff1607d5560006000614f6060006000600c620c179ff1607e556000600061500060006000600c620c29fff1607f55600060006150a060006000600c620c4253f1608055",
                "storage": {}
            },
            "0x83add0a91baa928f459d9e75c2e89fd58d8786ee": {
                "nonce": "0x00",
                "balance": "0x0de0b6b3a7640000",
                "code": "0x",
                "storage": {}
            }
        },
        "transaction": {
            "nonce": "0x00",
            "gasPrice": "0x0a",
            "gasLimit": [
                "0x0386b3af"
            ],
            "to": "0xfe0ace2eb56f8c23d9af572de06b83d101ffc3ac",
            "value": [
                "0x00"
            ],
            "data": [
                "0x"
            ],
            "sender": "0x83add0a91baa928f459d9e75c2e89fd58d8786ee",
            "secretKey": "0x06c3a3bb6af233122c830ee5fe0ace2eb56f8c23d9af572de06b83d101ffc3ac"
        },
        "post": {
            "Prague": [
                {
                    "hash": "0x943a55cd4732c5d3b6bb6c998e53784ba018dca737efaa843fc7d270303a6e42",
                    "logs": "0x1dcc4de8dec75d7aab85b567b6ccd41ad312451b948a7413f0a142fd40d49347",
                    "txbytes": "0xf861800a840386b3af94fe0ace2eb56f8c23d9af572de06b83d101ffc3ac808026a0406ec2b48672d46b99c6b634dc4d85a93647a60d70ebae4154fab30e7ffef31aa02b2dda20a4526871fb9f134642b7dcf9f7b4288634b241a460a7d1790a3810fe",
                    "indexes": {
                        "data": 0,
                        "gas": 0,
                        "value": 0
                    },
                    "state": {
                        "0xfe0ace2eb56f8c23d9af572de06b83d101ffc3ac": {
                            "nonce": "0x01",
                            "balance": "0x00",
                            "code": "0x6000600060a060006000600c612edff16000556000600061014060006000600c6158f7f1600155600060006101e060006000600c61773ff16002556000600061028060006000600c61956ff16003556000600061032060006000600c61b30ff1600455600060006103c060006000600c61d2eff16005556000600061046060006000600c61f227f16006556000600061050060006000600c620110fff1600755600060006105a060006000600c62012f53f16008556000600061064060006000600c62014dbff1600955600060006106e060006000600c62016b83f1600a556000600061078060006000600c6201889ff1600b556000600061082060006000600c6201a5aff1600c55600060006108c060006000600c6201c2d7f1600d556000600061096060006000600c6201df87f1600e5560006000610a0060006000600c6201fbbff1600f5560006000610aa060006000600c6202184bf160105560006000610b4060006000600c62023477f160115560006000610be060006000600c62025043f160125560006000610c8060006000600c62026baff160135560006000610d2060006000600c620287b7f160145560006000610dc060006000600c6202a26ff160155560006000610e6060006000600c6202bddbf160165560006000610f0060006000600c6202d8fff160175560006000610fa060006000600c6202f3dbf16018556000600061104060006000600c62030e6ff1601955600060006110e060006000600c620329fff1601a556000600061118060006000600c6203440ff1601b556000600061122060006000600c62035f33f1601c55600060006112c060006000600c620378bff1601d556000600061136060006000600c62039377f1601e556000600061140060006000600c6203ac7ff1601f55600060006114a060006000600c6203c6cbf16020556000600061154060006000600c6203e0e7f1602155600060006115e060006000600c6203fad3f16022556000600061168060006000600c6204148ff16023556000600061172060006000600c62042e1bf1602455600060006117c060006000600c62044777f16025556000600061186060006000600c620460a3f16026556000600061190060006000600c6204799ff1602755600060006119a060006000600c6204926bf160285560006000611a4060006000600c6204acfff160295560006000611ae060006000600c6204c577f1602a5560006000611b8060006000600c6204ddbff1602b5560006000611c2060006000600c6204f7f3f1602c5560006000611cc060006000600c62050fe7f1602d5560006000611d6060006000600c620527abf1602e5560006000611e0060006000600c6205417ff1602f5560006000611ea060006000600c620558eff160305560006000611f4060006000600c62057287f160315560006000611fe060006000600c620589a3f16032556000600061208060006000600c6205a2fff16033556000600061212060006000600c6205bc43f1603455600060006121c060006000600c6205d2e7f16035556000600061226060006000600c6205ebeff16036556000600061230060006000600c6206023ff1603755600060006123a060006000600c62061b0bf16038556000600061244060006000600c620633bff1603955600060006124e060006000600c62064997f1603a556000600061258060006000600c6206620ff1603b556000600061262060006000600c62067a6ff1603c55600060006126c060006000600c620692b7f1603d556000600061276060006000600c6206a7f3f1603e556000600061280060006000600c6206bffff1603f55600060006128a060006000600c6206d7f3f16040556000600061294060006000600c6206efcff1604155600060006129e060006000600c62070793f160425560006000612a8060006000600c62071f3ff160435560006000612b2060006000600c62073397f160445560006000612bc060006000600c62074b07f160455560006000612c6060006000600c6207625ff160465560006000612d0060006000600c6207799ff160475560006000612da060006000600c620790c7f160485560006000612e4060006000600c6207a7d7f160495560006000612ee060006000600c6207becff1604a5560006000612f8060006000600c6207d5aff1604b556000600061302060006000600c6207ec77f1604c55600060006130c060006000600c62080327f1604d556000600061316060006000600c620819bff1604e556000600061320060006000600c6208303ff1604f55600060006132a060006000600c620846a7f16050556000600061334060006000600c62085cf7f1605155600060006133e060006000600c6208732ff16052556000600061348060006000600c6208894ff16053556000600061352060006000600c62089f57f1605455600060006135c060006000600c6208b547f16055556000600061366060006000600c6208cb1ff16056556000600061370060006000600c6208e0dff1605755600060006137a060006000600c6208f687f16058556000600061384060006000600c62090c17f1605955600060006138e060006000600c6209218ff1605a556000600061398060006000600c620936eff1605b5560006000613a2060006000600c62095093f1605c5560006000613ac060006000600c620965cff1605d5560006000613b6060006000600c62097af3f1605e5560006000613c0060006000600c62098ffff1605f5560006000613ca060006000600c6209a4f3f160605560006000613d4060006000600c6209b9cff160615560006000613de060006000600c6209ce93f160625560006000613e8060006000600c6209e33ff160635560006000613f2060006000600c6209fc8ff160645560006000613fc060006000600c620a1117f16065556000600061406060006000600c620a2587f16066556000600061410060006000600c620a39dff1606755600060006141a060006000600c620a4e1ff16068556000600061424060006000600c620a673ff1606955600060006142e060006000600c620a7b5bf1606a556000600061438060006000600c620a8f5ff1606b556000600061442060006000600c620aa34bf1606c55600060006144c060006000600c620ab71ff1606d556000600061456060006000600c620ad00ff1606e556000600061460060006000600c620ae3bff1606f55600060006146a060006000600c620af757f16070556000600061474060006000600c620b0ad7f1607155600060006147e060006000600c620b1e3ff16072556000600061488060006000600c620b36fff16073556000600061492060006000600c620b4a43f1607455600060006149c060006000600c620b5d6ff160755560006000614a6060006000600c620b7083f160765560006000614b0060006000600c620b891ff160775560006000614ba060006000600c620b9c0ff160785560006000614c4060006000600c620baee7f160795560006000614ce060006000600c620bc1a7f1607a5560006000614d8060006000600c620bda1ff1607b5560006000614e2060006000600c620becbbf1607c5560006000614ec060006000600c620bff3ff1607d5560006000614f6060006000600c620c179ff1607e556000600061500060006000600c620c29fff1607f55600060006150a060006000600c620c4253f1608055",
                            "storage": {}
                        },
                        "0x83add0a91baa928f459d9e75c2e89fd58d8786ee": {
                            "nonce": "0x01",
                            "balance": "0x0de0b6b385ae2454",
                            "code": "0x",
                            "storage": {}
                        },
                        "0x2adc25665018aa1fe0e6bc666dac8fc2697ff9ba": {
                            "nonce": "0x00",
                            "balance": "0x0a1cf51a",
                            "code": "0x",
                            "storage": {}
                        }
                    }
                }
            ]
        },
        "config": {
            "blobSchedule": {
                "Cancun": {
                    "target": "0x03",
                    "max": "0x06",
                    "baseFeeUpdateFraction": "0x32f0ed"
                },
                "Prague": {
                    "target": "0x06",
                    "max": "0x09",
                    "baseFeeUpdateFraction": "0x4c6964"
                }
            },
            "chainid": "0x01"
        },
        "_info": {
            "hash": "0xda346f703301de59d7644e3399ad2c9ea41f44ad0362d2118a6797e7a912c2cf",
            "comment": "`execution-spec-tests` generated test",
            "filling-transition-tool": "ethereum-spec-evm-resolver 0.0.5",
            "description": "Test the BLS12_G1MSM discount gas table in full, by expecting the call to fail for\n    all possible input lengths because the appropriate amount of gas is not provided.\n\n    If any of the calls succeeds, the test will fail.",
            "url": "https://github.com/ethereum/execution-spec-tests/tree/v5.0.0/tests/prague/eip2537_bls_12_381_precompiles/test_bls12_variable_length_input_contracts.py#L293",
            "fixture-format": "state_test",
            "reference-spec": "https://github.com/ethereum/EIPs/blob/master/EIPS/eip-2537.md",
            "reference-spec-version": "c561ec1426fe5ec470eade499a0bd4174f270583",
            "eels-resolution": {
                "git-url": "https://github.com/marioevz/execution-specs.git",
                "branch": "forks/bpo1",
                "commit": "3387e5f4aedfe99becfdc39b444d6371e25e0924"
            }
        }
    }
}