{
    "tests/ported_static/stCallCodes/test_callcallcallcode_001_ooge.py::test_callcallcallcode_001_ooge[fork_Cancun-blockchain_test_from_state_test]": {
        "network": "Cancun",
        "genesisBlockHeader": {
            "parentHash": "0x0000000000000000000000000000000000000000000000000000000000000000",
            "uncleHash": "0x1dcc4de8dec75d7aab85b567b6ccd41ad312451b948a7413f0a142fd40d49347",
            "coinbase": "0x0000000000000000000000000000000000000000",
            "stateRoot": "0x024d9a15fcc655a46a827b2a4562f8e770d33f187167aa03418199a56d1a61b6",
            "transactionsTrie": "0x56e81f171bcc55a6ff8345e692c0f86e5b48e01b996cadc001622fb5e363b421",
            "receiptTrie": "0x56e81f171bcc55a6ff8345e692c0f86e5b48e01b996cadc001622fb5e363b421",
            "bloom": "0x00000000000000000000000000000000000000000000000000000000000000000000000000000000000000000000000000000000000000000000000000000000000000000000000000000000000000000000000000000000000000000000000000000000000000000000000000000000000000000000000000000000000000000000000000000000000000000000000000000000000000000000000000000000000000000000000000000000000000000000000000000000000000000000000000000000000000000000000000000000000000000000000000000000000000000000000000000000000000000000000000000000000000000000000000000000",
            "difficulty": "0x00",
            "number": "0x00",
            "gasLimit": "0x01c9c380",
            "gasUsed": "0x00",
            "timestamp": "0x00",
            "extraData": "0x00",
            "mixHash": "0x0000000000000000000000000000000000000000000000000000000000000000",
            "nonce": "0x0000000000000000",
            "baseFeePerGas": "0x0b",
            "withdrawalsRoot": "0x56e81f171bcc55a6ff8345e692c0f86e5b48e01b996cadc001622fb5e363b421",
            "blobGasUsed": "0x00",
            "excessBlobGas": "0x00",
            "parentBeaconBlockRoot": "0x0000000000000000000000000000000000000000000000000000000000000000",
            "hash": "0xe2cf9cfd3e0faa2969aeb4a99a5944096b06a2cd1bfee53a4ea1ccd814de0e16"
        },
        "pre": {
            "0x000f3df6d732807ef1319fb7b8bb8522d0beac02": {
                "nonce": "0x01",
                "balance": "0x00",
                "code": "0x3373fffffffffffffffffffffffffffffffffffffffe14604d57602036146024575f5ffd5b5f35801560495762001fff810690815414603c575f5ffd5b62001fff01545f5260205ff35b5f5ffd5b62001fff42064281555f359062001fff015500",
                "storage": {}
            },
            "0xd66f224cbd2fabb21b17bb53c56118f32f62ebd6": {
                "nonce": "0x00",
                "balance": "0x0de0b6b3a7640000",
                "code": "0x",
                "storage": {}
            },
            "0x0452a3c6b46e2274eb34f60ad44d6224284b527f": {
                "nonce": "0x00",
                "balance": "0x00",
                "code": "0x6001600355622fffff60002000",
                "storage": {}
            },
            "0xc60a1e5830b33f89db09299ba8aba80629d7df29": {
                "nonce": "0x00",
                "balance": "0x00",
                "code": "0x60406000604060006000730452a3c6b46e2274eb34f60ad44d6224284b527f62061a80f26002556001600b5500",
                "storage": {}
            },
            "0xf64e48078feb216b091ed94c85213ad5843e4684": {
                "nonce": "0x00",
                "balance": "0x00",
                "code": "0x6040600060406000600073c60a1e5830b33f89db09299ba8aba80629d7df29620927c0f160015500",
                "storage": {}
            },
            "0x0faa3880574b0b58b3e76a34b85fb272e77d5ae2": {
                "nonce": "0x00",
                "balance": "0x0de0b6b3a7640000",
                "code": "0x6040600060406000600073f64e48078feb216b091ed94c85213ad5843e4684620c3500f160005500",
                "storage": {}
            }
        },
        "postState": {
            "0x000f3df6d732807ef1319fb7b8bb8522d0beac02": {
                "nonce": "0x01",
                "balance": "0x00",
                "code": "0x3373fffffffffffffffffffffffffffffffffffffffe14604d57602036146024575f5ffd5b5f35801560495762001fff810690815414603c575f5ffd5b62001fff01545f5260205ff35b5f5ffd5b62001fff42064281555f359062001fff015500",
                "storage": {
                    "0x03e8": "0x03e8"
                }
            },
            "0xd66f224cbd2fabb21b17bb53c56118f32f62ebd6": {
                "nonce": "0x01",
                "balance": "0x0de0b6b3a7181a78",
                "code": "0x",
                "storage": {}
            },
            "0x0452a3c6b46e2274eb34f60ad44d6224284b527f": {
                "nonce": "0x00",
                "balance": "0x00",
                "code": "0x6001600355622fffff60002000",
                "storage": {}
            },
            "0xc60a1e5830b33f89db09299ba8aba80629d7df29": {
                "nonce": "0x00",
                "balance": "0x00",
                "code": "0x60406000604060006000730452a3c6b46e2274eb34f60ad44d6224284b527f62061a80f26002556001600b5500",
                "storage": {
                    "0x0b": "0x01"
                }
            },
            "0xf64e48078feb216b091ed94c85213ad5843e4684": {
                "nonce": "0x00",
                "balance": "0x00",
                "code": "0x6040600060406000600073c60a1e5830b33f89db09299ba8aba80629d7df29620927c0f160015500",
                "storage": {
                    "0x01": "0x01"
                }
            },
            "0x0faa3880574b0b58b3e76a34b85fb272e77d5ae2": {
                "nonce": "0x00",
                "balance": "0x0de0b6b3a7640000",
                "code": "0x6040600060406000600073f64e48078feb216b091ed94c85213ad5843e4684620c3500f160005500",
                "storage": {
                    "0x00": "0x01"
                }
            }
        },
        "lastblockhash": "0x818772505946b5e55d93e4f9543278abe203ae5c185393de6e56ab9d50347639",
        "config": {
            "network": "Cancun",
            "chainid": "0x01",
            "blobSchedule": {
                "Cancun": {
                    "target": "0x03",
                    "max": "0x06",
                    "baseFeeUpdateFraction": "0x32f0ed"
                }
            }
        },
        "genesisRLP": "0xf9023cf90236a00000000000000000000000000000000000000000000000000000000000000000a01dcc4de8dec75d7aab85b567b6ccd41ad312451b948a7413f0a142fd40d49347940000000000000000000000000000000000000000a0024d9a15fcc655a46a827b2a4562f8e770d33f187167aa03418199a56d1a61b6a056e81f171bcc55a6ff8345e692c0f86e5b48e01b996cadc001622fb5e363b421a056e81f171bcc55a6ff8345e692c0f86e5b48e01b996cadc001622fb5e363b421b901000000000000000000000000000000000000000000000000000000000000000000000000000000000000000000000000000000000000000000000000000000000000000000000000000000000000000000000000000000000000000000000000000000000000000000000000000000000000000000000000000000000000000000000000000000000000000000000000000000000000000000000000000000000000000000000000000000000000000000000000000000000000000000000000000000000000000000000000000000000000000000000000000000000000000000000000000000000000000000000000000000000000000000000000000000000080808401c9c380808000a000000000000000000000000000000000000000000000000000000000000000008800000000000000000ba056e81f171bcc55a6ff8345e692c0f86e5b48e01b996cadc001622fb5e363b4218080a00000000000000000000000000000000000000000000000000000000000000000c0c0c0",
        "blocks": [
            {
                "blockHeader": {
                    "parentHash": "0xe2cf9cfd3e0faa2969aeb4a99a5944096b06a2cd1bfee53a4ea1ccd814de0e16",
                    "uncleHash": "0x1dcc4de8dec75d7aab85b567b6ccd41ad312451b948a7413f0a142fd40d49347",
                    "coinbase": "0x2adc25665018aa1fe0e6bc666dac8fc2697ff9ba",
                    "stateRoot": "0x968213e708bd838b5f457b35b1e939a8df10c941d5f6a1d91e43a888bdc784ee",
                    "transactionsTrie": "0x683e548c576a90defdec4cf52ea342540200dc83c2749adc1d636e2a1ebacc53",
                    "receiptTrie": "0xe01a10423244b46fdba17ecca3f3ba83bf677720cfb6cac681b0f599b9d27a1c",
                    "bloom": "0x00000000000000000000000000000000000000000000000000000000000000000000000000000000000000000000000000000000000000000000000000000000000000000000000000000000000000000000000000000000000000000000000000000000000000000000000000000000000000000000000000000000000000000000000000000000000000000000000000000000000000000000000000000000000000000000000000000000000000000000000000000000000000000000000000000000000000000000000000000000000000000000000000000000000000000000000000000000000000000000000000000000000000000000000000000000",
                    "difficulty": "0x00",
                    "number": "0x01",
                    "gasLimit": "0x01c9c380",
                    "gasUsed": "0x0796f4",
                    "timestamp": "0x03e8",
                    "extraData": "0x00",
                    "mixHash": "0x0000000000000000000000000000000000000000000000000000000000020000",
                    "nonce": "0x0000000000000000",
                    "baseFeePerGas": "0x0a",
                    "withdrawalsRoot": "0x56e81f171bcc55a6ff8345e692c0f86e5b48e01b996cadc001622fb5e363b421",
                    "blobGasUsed": "0x00",
                    "excessBlobGas": "0x00",
                    "parentBeaconBlockRoot": "0x0000000000000000000000000000000000000000000000000000000000000000",
                    "hash": "0x818772505946b5e55d93e4f9543278abe203ae5c185393de6e56ab9d50347639"
                },
                "transactions": [
                    {
                        "type": "0x00",
                        "chainId": "0x01",
                        "nonce": "0x00",
                        "gasPrice": "0x0a",
                        "gasLimit": "0x0f4240",
                        "to": "0x0faa3880574b0b58b3e76a34b85fb272e77d5ae2",
                        "value": "0x00",
                        "data": "0x",
                        "v": "0x26",
                        "r": "0x61f6a77b08d369cd45a1a18426b45d2f08959798e303432d791310032c6ea467",
                        "s": "0x1e6f250a1a6c18bcbedce89a6ef66f0ac1f1fbfaa1f09c62582f4a55b42ffed4",
                        "sender": "0xd66f224cbd2fabb21b17bb53c56118f32f62ebd6"
                    }
                ],
                "uncleHeaders": [],
                "withdrawals": [],
                "receipts": [
                    {
                        "transactionHash": "0x3ac4fb5bb6966da4e0716dde4fd4eb79c83ab1337834f48b78c2719f0d69d1d1",
                        "type": "0x00",
                        "cumulativeGasUsed": "0x0796f4",
                        "bloom": "0x00000000000000000000000000000000000000000000000000000000000000000000000000000000000000000000000000000000000000000000000000000000000000000000000000000000000000000000000000000000000000000000000000000000000000000000000000000000000000000000000000000000000000000000000000000000000000000000000000000000000000000000000000000000000000000000000000000000000000000000000000000000000000000000000000000000000000000000000000000000000000000000000000000000000000000000000000000000000000000000000000000000000000000000000000000000",
                        "logs": [],
                        "status": true,
                        "rlp": "0xf9010901830796f4b9010000000000000000000000000000000000000000000000000000000000000000000000000000000000000000000000000000000000000000000000000000000000000000000000000000000000000000000000000000000000000000000000000000000000000000000000000000000000000000000000000000000000000000000000000000000000000000000000000000000000000000000000000000000000000000000000000000000000000000000000000000000000000000000000000000000000000000000000000000000000000000000000000000000000000000000000000000000000000000000000000000000000000000000000000000000000c0"
                    }
                ],
                "rlp": "0xf902a4f9023ba0e2cf9cfd3e0faa2969aeb4a99a5944096b06a2cd1bfee53a4ea1ccd814de0e16a01dcc4de8dec75d7aab85b567b6ccd41ad312451b948a7413f0a142fd40d49347942adc25665018aa1fe0e6bc666dac8fc2697ff9baa0968213e708bd838b5f457b35b1e939a8df10c941d5f6a1d91e43a888bdc784eea0683e548c576a90defdec4cf52ea342540200dc83c2749adc1d636e2a1ebacc53a0e01a10423244b46fdba17ecca3f3ba83bf677720cfb6cac681b0f599b9d27a1cb901000000000000000000000000000000000000000000000000000000000000000000000000000000000000000000000000000000000000000000000000000000000000000000000000000000000000000000000000000000000000000000000000000000000000000000000000000000000000000000000000000000000000000000000000000000000000000000000000000000000000000000000000000000000000000000000000000000000000000000000000000000000000000000000000000000000000000000000000000000000000000000000000000000000000000000000000000000000000000000000000000000000000000000000000000000000080018401c9c380830796f48203e800a000000000000000000000000000000000000000000000000000000000000200008800000000000000000aa056e81f171bcc55a6ff8345e692c0f86e5b48e01b996cadc001622fb5e363b4218080a00000000000000000000000000000000000000000000000000000000000000000f862f860800a830f4240940faa3880574b0b58b3e76a34b85fb272e77d5ae2808026a061f6a77b08d369cd45a1a18426b45d2f08959798e303432d791310032c6ea467a01e6f250a1a6c18bcbedce89a6ef66f0ac1f1fbfaa1f09c62582f4a55b42ffed4c0c0",
                "blocknumber": "1"
            }
        ],
        "sealEngine": "NoProof",
        "_info": {
            "hash": "0x74c128882f2fe1e5f7269e48834d265424aa52dd8fce178aed354754d542fd2d",
            "fixture-format": "blockchain_test",
            "comment": "`execution-specs` generated test",
            "filling-transition-tool": "2.19.0",
            "description": "Call -> call -> callcode -> code oog.",
            "url": "https://github.com/ethereum/execution-specs/blob/tests-snobal-devnet-5@v8037.0.0/tests/ported_static/stCallCodes/test_callcallcallcode_001_ooge.py#L24",
            "metadata": {
                "opcode_count": {}
            }
        }
    }
}