{
    "tests/ported_static/stCallDelegateCodesCallCodeHomestead/test_callcallcodecall_010_oogm_after.py::test_callcallcodecall_010_oogm_after[fork_Cancun-blockchain_test_from_state_test]": {
        "network": "Cancun",
        "genesisBlockHeader": {
            "parentHash": "0x0000000000000000000000000000000000000000000000000000000000000000",
            "uncleHash": "0x1dcc4de8dec75d7aab85b567b6ccd41ad312451b948a7413f0a142fd40d49347",
            "coinbase": "0x0000000000000000000000000000000000000000",
            "stateRoot": "0x13d66346366f0455b53ee7ed31668c42d7a37b215ae2029fb2c247d8d23dcd3d",
            "transactionsTrie": "0x56e81f171bcc55a6ff8345e692c0f86e5b48e01b996cadc001622fb5e363b421",
            "receiptTrie": "0x56e81f171bcc55a6ff8345e692c0f86e5b48e01b996cadc001622fb5e363b421",
            "bloom": "0x00000000000000000000000000000000000000000000000000000000000000000000000000000000000000000000000000000000000000000000000000000000000000000000000000000000000000000000000000000000000000000000000000000000000000000000000000000000000000000000000000000000000000000000000000000000000000000000000000000000000000000000000000000000000000000000000000000000000000000000000000000000000000000000000000000000000000000000000000000000000000000000000000000000000000000000000000000000000000000000000000000000000000000000000000000000",
            "difficulty": "0x00",
            "number": "0x00",
            "gasLimit": "0x01c9c380",
            "gasUsed": "0x00",
            "timestamp": "0x00",
            "extraData": "0x00",
            "mixHash": "0x0000000000000000000000000000000000000000000000000000000000000000",
            "nonce": "0x0000000000000000",
            "baseFeePerGas": "0x0b",
            "withdrawalsRoot": "0x56e81f171bcc55a6ff8345e692c0f86e5b48e01b996cadc001622fb5e363b421",
            "blobGasUsed": "0x00",
            "excessBlobGas": "0x00",
            "parentBeaconBlockRoot": "0x0000000000000000000000000000000000000000000000000000000000000000",
            "hash": "0xa8994ab4f4a1d0fc6727b661aa911fe2b0d94d0bcf286f0842342d4ad77343bb"
        },
        "pre": {
            "0x000f3df6d732807ef1319fb7b8bb8522d0beac02": {
                "nonce": "0x01",
                "balance": "0x00",
                "code": "0x3373fffffffffffffffffffffffffffffffffffffffe14604d57602036146024575f5ffd5b5f35801560495762001fff810690815414603c575f5ffd5b62001fff01545f5260205ff35b5f5ffd5b62001fff42064281555f359062001fff015500",
                "storage": {}
            },
            "0x400347dada8c51a2aac4b4c31ae726ba8551e2b9": {
                "nonce": "0x00",
                "balance": "0x0de0b6b3a7640000",
                "code": "0x60406000604060006000731adae71ad3aeec97978e38be04da2a1773dfc506620c3500f26000556001600b5500",
                "storage": {}
            },
            "0x1adae71ad3aeec97978e38be04da2a1773dfc506": {
                "nonce": "0x00",
                "balance": "0x00",
                "code": "0x604060006040600073926dfbcc20b2ab686fc85331883541d174ccc738620927c0f4600155622fffff60002000",
                "storage": {}
            },
            "0x926dfbcc20b2ab686fc85331883541d174ccc738": {
                "nonce": "0x00",
                "balance": "0x00",
                "code": "0x6040600060406000600073b126c622075b1189fb6c45e851641cfaddf65b3662061a80f260025500",
                "storage": {}
            },
            "0xb126c622075b1189fb6c45e851641cfaddf65b36": {
                "nonce": "0x00",
                "balance": "0x00",
                "code": "0x600160035500",
                "storage": {}
            },
            "0xebaf50debf10e08302fe4280c32df010463ca297": {
                "nonce": "0x00",
                "balance": "0x0de0b6b3a7640000",
                "code": "0x",
                "storage": {}
            }
        },
        "postState": {
            "0x000f3df6d732807ef1319fb7b8bb8522d0beac02": {
                "nonce": "0x01",
                "balance": "0x00",
                "code": "0x3373fffffffffffffffffffffffffffffffffffffffe14604d57602036146024575f5ffd5b5f35801560495762001fff810690815414603c575f5ffd5b62001fff01545f5260205ff35b5f5ffd5b62001fff42064281555f359062001fff015500",
                "storage": {
                    "0x03e8": "0x03e8"
                }
            },
            "0x400347dada8c51a2aac4b4c31ae726ba8551e2b9": {
                "nonce": "0x00",
                "balance": "0x0de0b6b3a7640000",
                "code": "0x60406000604060006000731adae71ad3aeec97978e38be04da2a1773dfc506620c3500f26000556001600b5500",
                "storage": {
                    "0x0b": "0x01"
                }
            },
            "0x1adae71ad3aeec97978e38be04da2a1773dfc506": {
                "nonce": "0x00",
                "balance": "0x00",
                "code": "0x604060006040600073926dfbcc20b2ab686fc85331883541d174ccc738620927c0f4600155622fffff60002000",
                "storage": {}
            },
            "0x926dfbcc20b2ab686fc85331883541d174ccc738": {
                "nonce": "0x00",
                "balance": "0x00",
                "code": "0x6040600060406000600073b126c622075b1189fb6c45e851641cfaddf65b3662061a80f260025500",
                "storage": {}
            },
            "0xb126c622075b1189fb6c45e851641cfaddf65b36": {
                "nonce": "0x00",
                "balance": "0x00",
                "code": "0x600160035500",
                "storage": {}
            },
            "0xebaf50debf10e08302fe4280c32df010463ca297": {
                "nonce": "0x01",
                "balance": "0x0de0b6b3a6e29d80",
                "code": "0x",
                "storage": {}
            }
        },
        "lastblockhash": "0x6b7d9e0985b68bec6ac458e06fa76476093d662a6c3a9ff76eb731aabb4f27fc",
        "config": {
            "network": "Cancun",
            "chainid": "0x01",
            "blobSchedule": {
                "Cancun": {
                    "target": "0x03",
                    "max": "0x06",
                    "baseFeeUpdateFraction": "0x32f0ed"
                }
            }
        },
        "genesisRLP": "0xf9023cf90236a00000000000000000000000000000000000000000000000000000000000000000a01dcc4de8dec75d7aab85b567b6ccd41ad312451b948a7413f0a142fd40d49347940000000000000000000000000000000000000000a013d66346366f0455b53ee7ed31668c42d7a37b215ae2029fb2c247d8d23dcd3da056e81f171bcc55a6ff8345e692c0f86e5b48e01b996cadc001622fb5e363b421a056e81f171bcc55a6ff8345e692c0f86e5b48e01b996cadc001622fb5e363b421b901000000000000000000000000000000000000000000000000000000000000000000000000000000000000000000000000000000000000000000000000000000000000000000000000000000000000000000000000000000000000000000000000000000000000000000000000000000000000000000000000000000000000000000000000000000000000000000000000000000000000000000000000000000000000000000000000000000000000000000000000000000000000000000000000000000000000000000000000000000000000000000000000000000000000000000000000000000000000000000000000000000000000000000000000000000000080808401c9c380808000a000000000000000000000000000000000000000000000000000000000000000008800000000000000000ba056e81f171bcc55a6ff8345e692c0f86e5b48e01b996cadc001622fb5e363b4218080a00000000000000000000000000000000000000000000000000000000000000000c0c0c0",
        "blocks": [
            {
                "blockHeader": {
                    "parentHash": "0xa8994ab4f4a1d0fc6727b661aa911fe2b0d94d0bcf286f0842342d4ad77343bb",
                    "uncleHash": "0x1dcc4de8dec75d7aab85b567b6ccd41ad312451b948a7413f0a142fd40d49347",
                    "coinbase": "0x2adc25665018aa1fe0e6bc666dac8fc2697ff9ba",
                    "stateRoot": "0x6131e344d2dfc1c04eaba3d5c643f91359cb2ec92188f471cc1c3aeabdcab45e",
                    "transactionsTrie": "0x5ce03124bc25ba13c32270fcd7f882f212d3a8d815ecd5cfbf2a0368e845ef2a",
                    "receiptTrie": "0xbf46d4ee9345a2cdd98065ff4c648060f294884bf381cd4bb5f993c6ff02f50e",
                    "bloom": "0x00000000000000000000000000000000000000000000000000000000000000000000000000000000000000000000000000000000000000000000000000000000000000000000000000000000000000000000000000000000000000000000000000000000000000000000000000000000000000000000000000000000000000000000000000000000000000000000000000000000000000000000000000000000000000000000000000000000000000000000000000000000000000000000000000000000000000000000000000000000000000000000000000000000000000000000000000000000000000000000000000000000000000000000000000000000",
                    "difficulty": "0x00",
                    "number": "0x01",
                    "gasLimit": "0x01c9c380",
                    "gasUsed": "0x0cf040",
                    "timestamp": "0x03e8",
                    "extraData": "0x00",
                    "mixHash": "0x0000000000000000000000000000000000000000000000000000000000020000",
                    "nonce": "0x0000000000000000",
                    "baseFeePerGas": "0x0a",
                    "withdrawalsRoot": "0x56e81f171bcc55a6ff8345e692c0f86e5b48e01b996cadc001622fb5e363b421",
                    "blobGasUsed": "0x00",
                    "excessBlobGas": "0x00",
                    "parentBeaconBlockRoot": "0x0000000000000000000000000000000000000000000000000000000000000000",
                    "hash": "0x6b7d9e0985b68bec6ac458e06fa76476093d662a6c3a9ff76eb731aabb4f27fc"
                },
                "transactions": [
                    {
                        "type": "0x00",
                        "chainId": "0x01",
                        "nonce": "0x00",
                        "gasPrice": "0x0a",
                        "gasLimit": "0x0f4240",
                        "to": "0x400347dada8c51a2aac4b4c31ae726ba8551e2b9",
                        "value": "0x00",
                        "data": "0x",
                        "v": "0x25",
                        "r": "0x81159cb52f56493dc3c062a8a5b4c17addee59bc800f81736d65d5b3f5ba1a85",
                        "s": "0x22c89866e28cb490f4612cf25113cd8a7c60992b906116854045e3ce75beadab",
                        "sender": "0xebaf50debf10e08302fe4280c32df010463ca297"
                    }
                ],
                "uncleHeaders": [],
                "withdrawals": [],
                "receipts": [
                    {
                        "transactionHash": "0xcd491ddfbb7dbad4a4ab69fec4a60924cb1a2a4f692237867cd7566d59502711",
                        "type": "0x00",
                        "cumulativeGasUsed": "0x0cf040",
                        "bloom": "0x00000000000000000000000000000000000000000000000000000000000000000000000000000000000000000000000000000000000000000000000000000000000000000000000000000000000000000000000000000000000000000000000000000000000000000000000000000000000000000000000000000000000000000000000000000000000000000000000000000000000000000000000000000000000000000000000000000000000000000000000000000000000000000000000000000000000000000000000000000000000000000000000000000000000000000000000000000000000000000000000000000000000000000000000000000000",
                        "logs": [],
                        "status": true,
                        "rlp": "0xf9010901830cf040b9010000000000000000000000000000000000000000000000000000000000000000000000000000000000000000000000000000000000000000000000000000000000000000000000000000000000000000000000000000000000000000000000000000000000000000000000000000000000000000000000000000000000000000000000000000000000000000000000000000000000000000000000000000000000000000000000000000000000000000000000000000000000000000000000000000000000000000000000000000000000000000000000000000000000000000000000000000000000000000000000000000000000000000000000000000000000c0"
                    }
                ],
                "rlp": "0xf902a4f9023ba0a8994ab4f4a1d0fc6727b661aa911fe2b0d94d0bcf286f0842342d4ad77343bba01dcc4de8dec75d7aab85b567b6ccd41ad312451b948a7413f0a142fd40d49347942adc25665018aa1fe0e6bc666dac8fc2697ff9baa06131e344d2dfc1c04eaba3d5c643f91359cb2ec92188f471cc1c3aeabdcab45ea05ce03124bc25ba13c32270fcd7f882f212d3a8d815ecd5cfbf2a0368e845ef2aa0bf46d4ee9345a2cdd98065ff4c648060f294884bf381cd4bb5f993c6ff02f50eb901000000000000000000000000000000000000000000000000000000000000000000000000000000000000000000000000000000000000000000000000000000000000000000000000000000000000000000000000000000000000000000000000000000000000000000000000000000000000000000000000000000000000000000000000000000000000000000000000000000000000000000000000000000000000000000000000000000000000000000000000000000000000000000000000000000000000000000000000000000000000000000000000000000000000000000000000000000000000000000000000000000000000000000000000000000000080018401c9c380830cf0408203e800a000000000000000000000000000000000000000000000000000000000000200008800000000000000000aa056e81f171bcc55a6ff8345e692c0f86e5b48e01b996cadc001622fb5e363b4218080a00000000000000000000000000000000000000000000000000000000000000000f862f860800a830f424094400347dada8c51a2aac4b4c31ae726ba8551e2b9808025a081159cb52f56493dc3c062a8a5b4c17addee59bc800f81736d65d5b3f5ba1a85a022c89866e28cb490f4612cf25113cd8a7c60992b906116854045e3ce75beadabc0c0",
                "blocknumber": "1"
            }
        ],
        "sealEngine": "NoProof",
        "_info": {
            "hash": "0x72cac00bf134199a1e809bb211817bbd96a80857d1e3e7d4a4728eeace5c7d37",
            "fixture-format": "blockchain_test",
            "comment": "`execution-specs` generated test",
            "filling-transition-tool": "2.19.0",
            "description": "CALLCODE -> (DELEGATE -> CALLCODE -> CODE) OOG.",
            "url": "https://github.com/ethereum/execution-specs/blob/tests-bal@v5.6.0/tests/ported_static/stCallDelegateCodesCallCodeHomestead/test_callcallcodecall_010_oogm_after.py#L25",
            "metadata": {
                "opcode_count": {}
            }
        }
    }
}