{
    "tests/ported_static/stStaticCall/test_static_callcall_00_ooge_2.py::test_static_callcall_00_ooge_2[fork_Cancun-blockchain_test_from_state_test-d0]": {
        "network": "Cancun",
        "genesisBlockHeader": {
            "parentHash": "0x0000000000000000000000000000000000000000000000000000000000000000",
            "uncleHash": "0x1dcc4de8dec75d7aab85b567b6ccd41ad312451b948a7413f0a142fd40d49347",
            "coinbase": "0x0000000000000000000000000000000000000000",
            "stateRoot": "0x411d855ecfb5c9831abf19a58d4a6e9d0f900ac3c0032859ebed00531a1cab93",
            "transactionsTrie": "0x56e81f171bcc55a6ff8345e692c0f86e5b48e01b996cadc001622fb5e363b421",
            "receiptTrie": "0x56e81f171bcc55a6ff8345e692c0f86e5b48e01b996cadc001622fb5e363b421",
            "bloom": "0x00000000000000000000000000000000000000000000000000000000000000000000000000000000000000000000000000000000000000000000000000000000000000000000000000000000000000000000000000000000000000000000000000000000000000000000000000000000000000000000000000000000000000000000000000000000000000000000000000000000000000000000000000000000000000000000000000000000000000000000000000000000000000000000000000000000000000000000000000000000000000000000000000000000000000000000000000000000000000000000000000000000000000000000000000000000",
            "difficulty": "0x00",
            "number": "0x00",
            "gasLimit": "0x01c9c380",
            "gasUsed": "0x00",
            "timestamp": "0x00",
            "extraData": "0x00",
            "mixHash": "0x0000000000000000000000000000000000000000000000000000000000000000",
            "nonce": "0x0000000000000000",
            "baseFeePerGas": "0x0b",
            "withdrawalsRoot": "0x56e81f171bcc55a6ff8345e692c0f86e5b48e01b996cadc001622fb5e363b421",
            "blobGasUsed": "0x00",
            "excessBlobGas": "0x00",
            "parentBeaconBlockRoot": "0x0000000000000000000000000000000000000000000000000000000000000000",
            "hash": "0xdac9ddfe4b19714568cc78df78e31b4636d0615dcacd85ad2f4a2912f284a806"
        },
        "pre": {
            "0x000f3df6d732807ef1319fb7b8bb8522d0beac02": {
                "nonce": "0x01",
                "balance": "0x00",
                "code": "0x3373fffffffffffffffffffffffffffffffffffffffe14604d57602036146024575f5ffd5b5f35801560495762001fff810690815414603c575f5ffd5b62001fff01545f5260205ff35b5f5ffd5b62001fff42064281555f359062001fff015500",
                "storage": {}
            },
            "0xd66f224cbd2fabb21b17bb53c56118f32f62ebd6": {
                "nonce": "0x00",
                "balance": "0x0de0b6b3a7640000",
                "code": "0x",
                "storage": {}
            },
            "0xc0e4183389eb57f779a986d8c878f89b9401dc8e": {
                "nonce": "0x00",
                "balance": "0x00",
                "code": "0x6000600060006000346000355af1600055600160015500",
                "storage": {}
            },
            "0xa65f4b36f21ef107a26ab282b736f93d47bf83de": {
                "nonce": "0x00",
                "balance": "0x00",
                "code": "0x60016002553460055500",
                "storage": {}
            },
            "0x609e4dfe6190235b9a0362084c741d9ec330fb1e": {
                "nonce": "0x00",
                "balance": "0x00",
                "code": "0x5b61c3506080511015601c5760013b506001608051016080526000565b00",
                "storage": {}
            },
            "0x2defc3fb57b42969b271935d982740948b92e86b": {
                "nonce": "0x00",
                "balance": "0x0de0b6b3a7640000",
                "code": "0x6001600252604060006040600073a65f4b36f21ef107a26ab282b736f93d47bf83de620186a0fa50600160205200",
                "storage": {}
            },
            "0xddc2b4bc1fb31ed3cd95025fb7c668ba01b2db6c": {
                "nonce": "0x00",
                "balance": "0x0de0b6b3a7640000",
                "code": "0x6001600252604060006040600073609e4dfe6190235b9a0362084c741d9ec330fb1e620186a0fa50600160205200",
                "storage": {}
            },
            "0xa2ca69f1cf9ffa7a761899e8dd2f941d40326fd6": {
                "nonce": "0x00",
                "balance": "0x0de0b6b3a7640000",
                "code": "0x6040600060406000732defc3fb57b42969b271935d982740948b92e86b620249f0fa60005500",
                "storage": {}
            },
            "0x998a75f1a4457fb7b5872c51f34aa7256f732b1e": {
                "nonce": "0x00",
                "balance": "0x0de0b6b3a7640000",
                "code": "0x604060006040600073ddc2b4bc1fb31ed3cd95025fb7c668ba01b2db6c620249f0fa60005500",
                "storage": {}
            }
        },
        "postState": {
            "0x000f3df6d732807ef1319fb7b8bb8522d0beac02": {
                "nonce": "0x01",
                "balance": "0x00",
                "code": "0x3373fffffffffffffffffffffffffffffffffffffffe14604d57602036146024575f5ffd5b5f35801560495762001fff810690815414603c575f5ffd5b62001fff01545f5260205ff35b5f5ffd5b62001fff42064281555f359062001fff015500",
                "storage": {
                    "0x03e8": "0x03e8"
                }
            },
            "0xd66f224cbd2fabb21b17bb53c56118f32f62ebd6": {
                "nonce": "0x01",
                "balance": "0x0de0b6b3a74d1a0c",
                "code": "0x",
                "storage": {}
            },
            "0xc0e4183389eb57f779a986d8c878f89b9401dc8e": {
                "nonce": "0x00",
                "balance": "0x00",
                "code": "0x6000600060006000346000355af1600055600160015500",
                "storage": {}
            },
            "0xa65f4b36f21ef107a26ab282b736f93d47bf83de": {
                "nonce": "0x00",
                "balance": "0x00",
                "code": "0x60016002553460055500",
                "storage": {}
            },
            "0x609e4dfe6190235b9a0362084c741d9ec330fb1e": {
                "nonce": "0x00",
                "balance": "0x00",
                "code": "0x5b61c3506080511015601c5760013b506001608051016080526000565b00",
                "storage": {}
            },
            "0x2defc3fb57b42969b271935d982740948b92e86b": {
                "nonce": "0x00",
                "balance": "0x0de0b6b3a7640000",
                "code": "0x6001600252604060006040600073a65f4b36f21ef107a26ab282b736f93d47bf83de620186a0fa50600160205200",
                "storage": {}
            },
            "0xddc2b4bc1fb31ed3cd95025fb7c668ba01b2db6c": {
                "nonce": "0x00",
                "balance": "0x0de0b6b3a7640000",
                "code": "0x6001600252604060006040600073609e4dfe6190235b9a0362084c741d9ec330fb1e620186a0fa50600160205200",
                "storage": {}
            },
            "0xa2ca69f1cf9ffa7a761899e8dd2f941d40326fd6": {
                "nonce": "0x00",
                "balance": "0x0de0b6b3a7640000",
                "code": "0x6040600060406000732defc3fb57b42969b271935d982740948b92e86b620249f0fa60005500",
                "storage": {}
            },
            "0x998a75f1a4457fb7b5872c51f34aa7256f732b1e": {
                "nonce": "0x00",
                "balance": "0x0de0b6b3a7640000",
                "code": "0x604060006040600073ddc2b4bc1fb31ed3cd95025fb7c668ba01b2db6c620249f0fa60005500",
                "storage": {}
            }
        },
        "lastblockhash": "0xa8f9da245a6031034e0bc5fd92859cfe6734bc586d0e0dd9a94ec78f56f32152",
        "config": {
            "network": "Cancun",
            "chainid": "0x01",
            "blobSchedule": {
                "Cancun": {
                    "target": "0x03",
                    "max": "0x06",
                    "baseFeeUpdateFraction": "0x32f0ed"
                }
            }
        },
        "genesisRLP": "0xf9023cf90236a00000000000000000000000000000000000000000000000000000000000000000a01dcc4de8dec75d7aab85b567b6ccd41ad312451b948a7413f0a142fd40d49347940000000000000000000000000000000000000000a0411d855ecfb5c9831abf19a58d4a6e9d0f900ac3c0032859ebed00531a1cab93a056e81f171bcc55a6ff8345e692c0f86e5b48e01b996cadc001622fb5e363b421a056e81f171bcc55a6ff8345e692c0f86e5b48e01b996cadc001622fb5e363b421b901000000000000000000000000000000000000000000000000000000000000000000000000000000000000000000000000000000000000000000000000000000000000000000000000000000000000000000000000000000000000000000000000000000000000000000000000000000000000000000000000000000000000000000000000000000000000000000000000000000000000000000000000000000000000000000000000000000000000000000000000000000000000000000000000000000000000000000000000000000000000000000000000000000000000000000000000000000000000000000000000000000000000000000000000000000000080808401c9c380808000a000000000000000000000000000000000000000000000000000000000000000008800000000000000000ba056e81f171bcc55a6ff8345e692c0f86e5b48e01b996cadc001622fb5e363b4218080a00000000000000000000000000000000000000000000000000000000000000000c0c0c0",
        "blocks": [
            {
                "blockHeader": {
                    "parentHash": "0xdac9ddfe4b19714568cc78df78e31b4636d0615dcacd85ad2f4a2912f284a806",
                    "uncleHash": "0x1dcc4de8dec75d7aab85b567b6ccd41ad312451b948a7413f0a142fd40d49347",
                    "coinbase": "0x2adc25665018aa1fe0e6bc666dac8fc2697ff9ba",
                    "stateRoot": "0xc24383afd0568b08cc98d47e1c18ab5d464f5f75ee53aae22012f4b641178dae",
                    "transactionsTrie": "0x741827ce233126135dac07c5132df9d7e4ce8d02da548280b6d02eb9808d7ff9",
                    "receiptTrie": "0x3faafc69aea2c8dc75b7a299998c7d7e6c19c1f7563bd814a8151670f73add72",
                    "bloom": "0x00000000000000000000000000000000000000000000000000000000000000000000000000000000000000000000000000000000000000000000000000000000000000000000000000000000000000000000000000000000000000000000000000000000000000000000000000000000000000000000000000000000000000000000000000000000000000000000000000000000000000000000000000000000000000000000000000000000000000000000000000000000000000000000000000000000000000000000000000000000000000000000000000000000000000000000000000000000000000000000000000000000000000000000000000000000",
                    "difficulty": "0x00",
                    "number": "0x01",
                    "gasLimit": "0x01c9c380",
                    "gasUsed": "0x024a32",
                    "timestamp": "0x03e8",
                    "extraData": "0x00",
                    "mixHash": "0x0000000000000000000000000000000000000000000000000000000000020000",
                    "nonce": "0x0000000000000000",
                    "baseFeePerGas": "0x0a",
                    "withdrawalsRoot": "0x56e81f171bcc55a6ff8345e692c0f86e5b48e01b996cadc001622fb5e363b421",
                    "blobGasUsed": "0x00",
                    "excessBlobGas": "0x00",
                    "parentBeaconBlockRoot": "0x0000000000000000000000000000000000000000000000000000000000000000",
                    "hash": "0xa8f9da245a6031034e0bc5fd92859cfe6734bc586d0e0dd9a94ec78f56f32152"
                },
                "transactions": [
                    {
                        "type": "0x00",
                        "chainId": "0x01",
                        "nonce": "0x00",
                        "gasPrice": "0x0a",
                        "gasLimit": "0x024a32",
                        "to": "0xc0e4183389eb57f779a986d8c878f89b9401dc8e",
                        "value": "0x00",
                        "data": "0x000000000000000000000000a2ca69f1cf9ffa7a761899e8dd2f941d40326fd6",
                        "v": "0x26",
                        "r": "0x0ddd690d11829d704849d768da8099934ada3d19c7620a011e0ef8896682b2f8",
                        "s": "0x4284ae5ac5ade9be2ca82313cf6378b04a755514f7bcc27cc64c814d59753f55",
                        "sender": "0xd66f224cbd2fabb21b17bb53c56118f32f62ebd6"
                    }
                ],
                "uncleHeaders": [],
                "withdrawals": [],
                "receipts": [
                    {
                        "transactionHash": "0x916acf50a407f4683a6efdb75529c3dd20d66376302209943c66217506d34448",
                        "type": "0x00",
                        "cumulativeGasUsed": "0x024a32",
                        "bloom": "0x00000000000000000000000000000000000000000000000000000000000000000000000000000000000000000000000000000000000000000000000000000000000000000000000000000000000000000000000000000000000000000000000000000000000000000000000000000000000000000000000000000000000000000000000000000000000000000000000000000000000000000000000000000000000000000000000000000000000000000000000000000000000000000000000000000000000000000000000000000000000000000000000000000000000000000000000000000000000000000000000000000000000000000000000000000000",
                        "logs": [],
                        "status": false,
                        "rlp": "0xf901098083024a32b9010000000000000000000000000000000000000000000000000000000000000000000000000000000000000000000000000000000000000000000000000000000000000000000000000000000000000000000000000000000000000000000000000000000000000000000000000000000000000000000000000000000000000000000000000000000000000000000000000000000000000000000000000000000000000000000000000000000000000000000000000000000000000000000000000000000000000000000000000000000000000000000000000000000000000000000000000000000000000000000000000000000000000000000000000000000000c0"
                    }
                ],
                "rlp": "0xf902c4f9023ba0dac9ddfe4b19714568cc78df78e31b4636d0615dcacd85ad2f4a2912f284a806a01dcc4de8dec75d7aab85b567b6ccd41ad312451b948a7413f0a142fd40d49347942adc25665018aa1fe0e6bc666dac8fc2697ff9baa0c24383afd0568b08cc98d47e1c18ab5d464f5f75ee53aae22012f4b641178daea0741827ce233126135dac07c5132df9d7e4ce8d02da548280b6d02eb9808d7ff9a03faafc69aea2c8dc75b7a299998c7d7e6c19c1f7563bd814a8151670f73add72b901000000000000000000000000000000000000000000000000000000000000000000000000000000000000000000000000000000000000000000000000000000000000000000000000000000000000000000000000000000000000000000000000000000000000000000000000000000000000000000000000000000000000000000000000000000000000000000000000000000000000000000000000000000000000000000000000000000000000000000000000000000000000000000000000000000000000000000000000000000000000000000000000000000000000000000000000000000000000000000000000000000000000000000000000000000000080018401c9c38083024a328203e800a000000000000000000000000000000000000000000000000000000000000200008800000000000000000aa056e81f171bcc55a6ff8345e692c0f86e5b48e01b996cadc001622fb5e363b4218080a00000000000000000000000000000000000000000000000000000000000000000f882f880800a83024a3294c0e4183389eb57f779a986d8c878f89b9401dc8e80a0000000000000000000000000a2ca69f1cf9ffa7a761899e8dd2f941d40326fd626a00ddd690d11829d704849d768da8099934ada3d19c7620a011e0ef8896682b2f8a04284ae5ac5ade9be2ca82313cf6378b04a755514f7bcc27cc64c814d59753f55c0c0",
                "blocknumber": "1"
            }
        ],
        "sealEngine": "NoProof",
        "_info": {
            "hash": "0x1a5fa2f0670c15c13c3fee65b143af78594c495410ed6a6079ca161788e452a5",
            "fixture-format": "blockchain_test",
            "comment": "`execution-specs` generated test",
            "filling-transition-tool": "2.19.0",
            "description": "Test_static_callcall_00_ooge_2.",
            "url": "https://github.com/ethereum/execution-specs/blob/tests-snobal-devnet-5@v8037.0.0/tests/ported_static/stStaticCall/test_static_callcall_00_ooge_2.py#L25",
            "metadata": {
                "opcode_count": {}
            }
        }
    },
    "tests/ported_static/stStaticCall/test_static_callcall_00_ooge_2.py::test_static_callcall_00_ooge_2[fork_Cancun-blockchain_test_from_state_test-d1]": {
        "network": "Cancun",
        "genesisBlockHeader": {
            "parentHash": "0x0000000000000000000000000000000000000000000000000000000000000000",
            "uncleHash": "0x1dcc4de8dec75d7aab85b567b6ccd41ad312451b948a7413f0a142fd40d49347",
            "coinbase": "0x0000000000000000000000000000000000000000",
            "stateRoot": "0x411d855ecfb5c9831abf19a58d4a6e9d0f900ac3c0032859ebed00531a1cab93",
            "transactionsTrie": "0x56e81f171bcc55a6ff8345e692c0f86e5b48e01b996cadc001622fb5e363b421",
            "receiptTrie": "0x56e81f171bcc55a6ff8345e692c0f86e5b48e01b996cadc001622fb5e363b421",
            "bloom": "0x00000000000000000000000000000000000000000000000000000000000000000000000000000000000000000000000000000000000000000000000000000000000000000000000000000000000000000000000000000000000000000000000000000000000000000000000000000000000000000000000000000000000000000000000000000000000000000000000000000000000000000000000000000000000000000000000000000000000000000000000000000000000000000000000000000000000000000000000000000000000000000000000000000000000000000000000000000000000000000000000000000000000000000000000000000000",
            "difficulty": "0x00",
            "number": "0x00",
            "gasLimit": "0x01c9c380",
            "gasUsed": "0x00",
            "timestamp": "0x00",
            "extraData": "0x00",
            "mixHash": "0x0000000000000000000000000000000000000000000000000000000000000000",
            "nonce": "0x0000000000000000",
            "baseFeePerGas": "0x0b",
            "withdrawalsRoot": "0x56e81f171bcc55a6ff8345e692c0f86e5b48e01b996cadc001622fb5e363b421",
            "blobGasUsed": "0x00",
            "excessBlobGas": "0x00",
            "parentBeaconBlockRoot": "0x0000000000000000000000000000000000000000000000000000000000000000",
            "hash": "0xdac9ddfe4b19714568cc78df78e31b4636d0615dcacd85ad2f4a2912f284a806"
        },
        "pre": {
            "0x000f3df6d732807ef1319fb7b8bb8522d0beac02": {
                "nonce": "0x01",
                "balance": "0x00",
                "code": "0x3373fffffffffffffffffffffffffffffffffffffffe14604d57602036146024575f5ffd5b5f35801560495762001fff810690815414603c575f5ffd5b62001fff01545f5260205ff35b5f5ffd5b62001fff42064281555f359062001fff015500",
                "storage": {}
            },
            "0xd66f224cbd2fabb21b17bb53c56118f32f62ebd6": {
                "nonce": "0x00",
                "balance": "0x0de0b6b3a7640000",
                "code": "0x",
                "storage": {}
            },
            "0xc0e4183389eb57f779a986d8c878f89b9401dc8e": {
                "nonce": "0x00",
                "balance": "0x00",
                "code": "0x6000600060006000346000355af1600055600160015500",
                "storage": {}
            },
            "0xa65f4b36f21ef107a26ab282b736f93d47bf83de": {
                "nonce": "0x00",
                "balance": "0x00",
                "code": "0x60016002553460055500",
                "storage": {}
            },
            "0x609e4dfe6190235b9a0362084c741d9ec330fb1e": {
                "nonce": "0x00",
                "balance": "0x00",
                "code": "0x5b61c3506080511015601c5760013b506001608051016080526000565b00",
                "storage": {}
            },
            "0x2defc3fb57b42969b271935d982740948b92e86b": {
                "nonce": "0x00",
                "balance": "0x0de0b6b3a7640000",
                "code": "0x6001600252604060006040600073a65f4b36f21ef107a26ab282b736f93d47bf83de620186a0fa50600160205200",
                "storage": {}
            },
            "0xddc2b4bc1fb31ed3cd95025fb7c668ba01b2db6c": {
                "nonce": "0x00",
                "balance": "0x0de0b6b3a7640000",
                "code": "0x6001600252604060006040600073609e4dfe6190235b9a0362084c741d9ec330fb1e620186a0fa50600160205200",
                "storage": {}
            },
            "0xa2ca69f1cf9ffa7a761899e8dd2f941d40326fd6": {
                "nonce": "0x00",
                "balance": "0x0de0b6b3a7640000",
                "code": "0x6040600060406000732defc3fb57b42969b271935d982740948b92e86b620249f0fa60005500",
                "storage": {}
            },
            "0x998a75f1a4457fb7b5872c51f34aa7256f732b1e": {
                "nonce": "0x00",
                "balance": "0x0de0b6b3a7640000",
                "code": "0x604060006040600073ddc2b4bc1fb31ed3cd95025fb7c668ba01b2db6c620249f0fa60005500",
                "storage": {}
            }
        },
        "postState": {
            "0x000f3df6d732807ef1319fb7b8bb8522d0beac02": {
                "nonce": "0x01",
                "balance": "0x00",
                "code": "0x3373fffffffffffffffffffffffffffffffffffffffe14604d57602036146024575f5ffd5b5f35801560495762001fff810690815414603c575f5ffd5b62001fff01545f5260205ff35b5f5ffd5b62001fff42064281555f359062001fff015500",
                "storage": {
                    "0x03e8": "0x03e8"
                }
            },
            "0xd66f224cbd2fabb21b17bb53c56118f32f62ebd6": {
                "nonce": "0x01",
                "balance": "0x0de0b6b3a74d1a0c",
                "code": "0x",
                "storage": {}
            },
            "0xc0e4183389eb57f779a986d8c878f89b9401dc8e": {
                "nonce": "0x00",
                "balance": "0x00",
                "code": "0x6000600060006000346000355af1600055600160015500",
                "storage": {}
            },
            "0xa65f4b36f21ef107a26ab282b736f93d47bf83de": {
                "nonce": "0x00",
                "balance": "0x00",
                "code": "0x60016002553460055500",
                "storage": {}
            },
            "0x609e4dfe6190235b9a0362084c741d9ec330fb1e": {
                "nonce": "0x00",
                "balance": "0x00",
                "code": "0x5b61c3506080511015601c5760013b506001608051016080526000565b00",
                "storage": {}
            },
            "0x2defc3fb57b42969b271935d982740948b92e86b": {
                "nonce": "0x00",
                "balance": "0x0de0b6b3a7640000",
                "code": "0x6001600252604060006040600073a65f4b36f21ef107a26ab282b736f93d47bf83de620186a0fa50600160205200",
                "storage": {}
            },
            "0xddc2b4bc1fb31ed3cd95025fb7c668ba01b2db6c": {
                "nonce": "0x00",
                "balance": "0x0de0b6b3a7640000",
                "code": "0x6001600252604060006040600073609e4dfe6190235b9a0362084c741d9ec330fb1e620186a0fa50600160205200",
                "storage": {}
            },
            "0xa2ca69f1cf9ffa7a761899e8dd2f941d40326fd6": {
                "nonce": "0x00",
                "balance": "0x0de0b6b3a7640000",
                "code": "0x6040600060406000732defc3fb57b42969b271935d982740948b92e86b620249f0fa60005500",
                "storage": {}
            },
            "0x998a75f1a4457fb7b5872c51f34aa7256f732b1e": {
                "nonce": "0x00",
                "balance": "0x0de0b6b3a7640000",
                "code": "0x604060006040600073ddc2b4bc1fb31ed3cd95025fb7c668ba01b2db6c620249f0fa60005500",
                "storage": {}
            }
        },
        "lastblockhash": "0x5a9fcdf784227991dce625de0cedc16bd63dd5eef127f2f5e6955574dc4bfcd6",
        "config": {
            "network": "Cancun",
            "chainid": "0x01",
            "blobSchedule": {
                "Cancun": {
                    "target": "0x03",
                    "max": "0x06",
                    "baseFeeUpdateFraction": "0x32f0ed"
                }
            }
        },
        "genesisRLP": "0xf9023cf90236a00000000000000000000000000000000000000000000000000000000000000000a01dcc4de8dec75d7aab85b567b6ccd41ad312451b948a7413f0a142fd40d49347940000000000000000000000000000000000000000a0411d855ecfb5c9831abf19a58d4a6e9d0f900ac3c0032859ebed00531a1cab93a056e81f171bcc55a6ff8345e692c0f86e5b48e01b996cadc001622fb5e363b421a056e81f171bcc55a6ff8345e692c0f86e5b48e01b996cadc001622fb5e363b421b901000000000000000000000000000000000000000000000000000000000000000000000000000000000000000000000000000000000000000000000000000000000000000000000000000000000000000000000000000000000000000000000000000000000000000000000000000000000000000000000000000000000000000000000000000000000000000000000000000000000000000000000000000000000000000000000000000000000000000000000000000000000000000000000000000000000000000000000000000000000000000000000000000000000000000000000000000000000000000000000000000000000000000000000000000000000080808401c9c380808000a000000000000000000000000000000000000000000000000000000000000000008800000000000000000ba056e81f171bcc55a6ff8345e692c0f86e5b48e01b996cadc001622fb5e363b4218080a00000000000000000000000000000000000000000000000000000000000000000c0c0c0",
        "blocks": [
            {
                "blockHeader": {
                    "parentHash": "0xdac9ddfe4b19714568cc78df78e31b4636d0615dcacd85ad2f4a2912f284a806",
                    "uncleHash": "0x1dcc4de8dec75d7aab85b567b6ccd41ad312451b948a7413f0a142fd40d49347",
                    "coinbase": "0x2adc25665018aa1fe0e6bc666dac8fc2697ff9ba",
                    "stateRoot": "0xc24383afd0568b08cc98d47e1c18ab5d464f5f75ee53aae22012f4b641178dae",
                    "transactionsTrie": "0x0f33156a1d87be41fa3017afce79a81358b460453fff9a20bb0f02ec84b02325",
                    "receiptTrie": "0x3faafc69aea2c8dc75b7a299998c7d7e6c19c1f7563bd814a8151670f73add72",
                    "bloom": "0x00000000000000000000000000000000000000000000000000000000000000000000000000000000000000000000000000000000000000000000000000000000000000000000000000000000000000000000000000000000000000000000000000000000000000000000000000000000000000000000000000000000000000000000000000000000000000000000000000000000000000000000000000000000000000000000000000000000000000000000000000000000000000000000000000000000000000000000000000000000000000000000000000000000000000000000000000000000000000000000000000000000000000000000000000000000",
                    "difficulty": "0x00",
                    "number": "0x01",
                    "gasLimit": "0x01c9c380",
                    "gasUsed": "0x024a32",
                    "timestamp": "0x03e8",
                    "extraData": "0x00",
                    "mixHash": "0x0000000000000000000000000000000000000000000000000000000000020000",
                    "nonce": "0x0000000000000000",
                    "baseFeePerGas": "0x0a",
                    "withdrawalsRoot": "0x56e81f171bcc55a6ff8345e692c0f86e5b48e01b996cadc001622fb5e363b421",
                    "blobGasUsed": "0x00",
                    "excessBlobGas": "0x00",
                    "parentBeaconBlockRoot": "0x0000000000000000000000000000000000000000000000000000000000000000",
                    "hash": "0x5a9fcdf784227991dce625de0cedc16bd63dd5eef127f2f5e6955574dc4bfcd6"
                },
                "transactions": [
                    {
                        "type": "0x00",
                        "chainId": "0x01",
                        "nonce": "0x00",
                        "gasPrice": "0x0a",
                        "gasLimit": "0x024a32",
                        "to": "0xc0e4183389eb57f779a986d8c878f89b9401dc8e",
                        "value": "0x00",
                        "data": "0x000000000000000000000000998a75f1a4457fb7b5872c51f34aa7256f732b1e",
                        "v": "0x26",
                        "r": "0xb9335335d81dfd0a4233022cb89121d3a02ded402bb4c664588cf05aca59a0ef",
                        "s": "0x05ade9f962e986ca634aefffd0f40baa6aa1fc15ef0deb7e68e51e3a6e697020",
                        "sender": "0xd66f224cbd2fabb21b17bb53c56118f32f62ebd6"
                    }
                ],
                "uncleHeaders": [],
                "withdrawals": [],
                "receipts": [
                    {
                        "transactionHash": "0x2c0cafb7f4a75405402d0ce8002795a7e7e42a0676076f1926f58fe563ebe935",
                        "type": "0x00",
                        "cumulativeGasUsed": "0x024a32",
                        "bloom": "0x00000000000000000000000000000000000000000000000000000000000000000000000000000000000000000000000000000000000000000000000000000000000000000000000000000000000000000000000000000000000000000000000000000000000000000000000000000000000000000000000000000000000000000000000000000000000000000000000000000000000000000000000000000000000000000000000000000000000000000000000000000000000000000000000000000000000000000000000000000000000000000000000000000000000000000000000000000000000000000000000000000000000000000000000000000000",
                        "logs": [],
                        "status": false,
                        "rlp": "0xf901098083024a32b9010000000000000000000000000000000000000000000000000000000000000000000000000000000000000000000000000000000000000000000000000000000000000000000000000000000000000000000000000000000000000000000000000000000000000000000000000000000000000000000000000000000000000000000000000000000000000000000000000000000000000000000000000000000000000000000000000000000000000000000000000000000000000000000000000000000000000000000000000000000000000000000000000000000000000000000000000000000000000000000000000000000000000000000000000000000000c0"
                    }
                ],
                "rlp": "0xf902c4f9023ba0dac9ddfe4b19714568cc78df78e31b4636d0615dcacd85ad2f4a2912f284a806a01dcc4de8dec75d7aab85b567b6ccd41ad312451b948a7413f0a142fd40d49347942adc25665018aa1fe0e6bc666dac8fc2697ff9baa0c24383afd0568b08cc98d47e1c18ab5d464f5f75ee53aae22012f4b641178daea00f33156a1d87be41fa3017afce79a81358b460453fff9a20bb0f02ec84b02325a03faafc69aea2c8dc75b7a299998c7d7e6c19c1f7563bd814a8151670f73add72b901000000000000000000000000000000000000000000000000000000000000000000000000000000000000000000000000000000000000000000000000000000000000000000000000000000000000000000000000000000000000000000000000000000000000000000000000000000000000000000000000000000000000000000000000000000000000000000000000000000000000000000000000000000000000000000000000000000000000000000000000000000000000000000000000000000000000000000000000000000000000000000000000000000000000000000000000000000000000000000000000000000000000000000000000000000000080018401c9c38083024a328203e800a000000000000000000000000000000000000000000000000000000000000200008800000000000000000aa056e81f171bcc55a6ff8345e692c0f86e5b48e01b996cadc001622fb5e363b4218080a00000000000000000000000000000000000000000000000000000000000000000f882f880800a83024a3294c0e4183389eb57f779a986d8c878f89b9401dc8e80a0000000000000000000000000998a75f1a4457fb7b5872c51f34aa7256f732b1e26a0b9335335d81dfd0a4233022cb89121d3a02ded402bb4c664588cf05aca59a0efa005ade9f962e986ca634aefffd0f40baa6aa1fc15ef0deb7e68e51e3a6e697020c0c0",
                "blocknumber": "1"
            }
        ],
        "sealEngine": "NoProof",
        "_info": {
            "hash": "0x6e67df75fabdb10d8fee75c05ac13cb3983cceac0d09f9f22a7372bbb78a12c8",
            "fixture-format": "blockchain_test",
            "comment": "`execution-specs` generated test",
            "filling-transition-tool": "2.19.0",
            "description": "Test_static_callcall_00_ooge_2.",
            "url": "https://github.com/ethereum/execution-specs/blob/tests-snobal-devnet-5@v8037.0.0/tests/ported_static/stStaticCall/test_static_callcall_00_ooge_2.py#L25",
            "metadata": {
                "opcode_count": {}
            }
        }
    }
}