{
    "tests/ported_static/stStaticCall/test_static_callcall_00_ooge_2.py::test_static_callcall_00_ooge_2[fork_Cancun-blockchain_test_from_state_test-d0]": {
        "network": "Cancun",
        "genesisBlockHeader": {
            "parentHash": "0x0000000000000000000000000000000000000000000000000000000000000000",
            "uncleHash": "0x1dcc4de8dec75d7aab85b567b6ccd41ad312451b948a7413f0a142fd40d49347",
            "coinbase": "0x0000000000000000000000000000000000000000",
            "stateRoot": "0x259831eba8a1a7faa1e9768238d5665f645ccaf8f7842e89cc7dcdada134266a",
            "transactionsTrie": "0x56e81f171bcc55a6ff8345e692c0f86e5b48e01b996cadc001622fb5e363b421",
            "receiptTrie": "0x56e81f171bcc55a6ff8345e692c0f86e5b48e01b996cadc001622fb5e363b421",
            "bloom": "0x00000000000000000000000000000000000000000000000000000000000000000000000000000000000000000000000000000000000000000000000000000000000000000000000000000000000000000000000000000000000000000000000000000000000000000000000000000000000000000000000000000000000000000000000000000000000000000000000000000000000000000000000000000000000000000000000000000000000000000000000000000000000000000000000000000000000000000000000000000000000000000000000000000000000000000000000000000000000000000000000000000000000000000000000000000000",
            "difficulty": "0x00",
            "number": "0x00",
            "gasLimit": "0x01c9c380",
            "gasUsed": "0x00",
            "timestamp": "0x00",
            "extraData": "0x00",
            "mixHash": "0x0000000000000000000000000000000000000000000000000000000000000000",
            "nonce": "0x0000000000000000",
            "baseFeePerGas": "0x0b",
            "withdrawalsRoot": "0x56e81f171bcc55a6ff8345e692c0f86e5b48e01b996cadc001622fb5e363b421",
            "blobGasUsed": "0x00",
            "excessBlobGas": "0x00",
            "parentBeaconBlockRoot": "0x0000000000000000000000000000000000000000000000000000000000000000",
            "hash": "0xb7f371572c8fff34a21e8393a5238a0d5b4c5d73e0f9064a4e484fd844b971bc"
        },
        "pre": {
            "0x000f3df6d732807ef1319fb7b8bb8522d0beac02": {
                "nonce": "0x01",
                "balance": "0x00",
                "code": "0x3373fffffffffffffffffffffffffffffffffffffffe14604d57602036146024575f5ffd5b5f35801560495762001fff810690815414603c575f5ffd5b62001fff01545f5260205ff35b5f5ffd5b62001fff42064281555f359062001fff015500",
                "storage": {}
            },
            "0xc0e4183389eb57f779a986d8c878f89b9401dc8e": {
                "nonce": "0x00",
                "balance": "0x00",
                "code": "0x6000600060006000346000355af1600055600160015500",
                "storage": {}
            },
            "0xa2ca69f1cf9ffa7a761899e8dd2f941d40326fd6": {
                "nonce": "0x00",
                "balance": "0x0de0b6b3a7640000",
                "code": "0x6040600060406000732defc3fb57b42969b271935d982740948b92e86b620249f0fa60005500",
                "storage": {}
            },
            "0x2defc3fb57b42969b271935d982740948b92e86b": {
                "nonce": "0x00",
                "balance": "0x0de0b6b3a7640000",
                "code": "0x6001600252604060006040600073a65f4b36f21ef107a26ab282b736f93d47bf83de620186a0fa50600160205200",
                "storage": {}
            },
            "0xa65f4b36f21ef107a26ab282b736f93d47bf83de": {
                "nonce": "0x00",
                "balance": "0x00",
                "code": "0x60016002553460055500",
                "storage": {}
            },
            "0x998a75f1a4457fb7b5872c51f34aa7256f732b1e": {
                "nonce": "0x00",
                "balance": "0x0de0b6b3a7640000",
                "code": "0x604060006040600073ddc2b4bc1fb31ed3cd95025fb7c668ba01b2db6c620249f0fa60005500",
                "storage": {}
            },
            "0xddc2b4bc1fb31ed3cd95025fb7c668ba01b2db6c": {
                "nonce": "0x00",
                "balance": "0x0de0b6b3a7640000",
                "code": "0x6001600252604060006040600073609e4dfe6190235b9a0362084c741d9ec330fb1e620186a0fa50600160205200",
                "storage": {}
            },
            "0x609e4dfe6190235b9a0362084c741d9ec330fb1e": {
                "nonce": "0x00",
                "balance": "0x00",
                "code": "0x5b61c3506080511015601c5760013b506001608051016080526000565b00",
                "storage": {}
            },
            "0xebaf50debf10e08302fe4280c32df010463ca297": {
                "nonce": "0x00",
                "balance": "0x0de0b6b3a7640000",
                "code": "0x",
                "storage": {}
            }
        },
        "postState": {
            "0x000f3df6d732807ef1319fb7b8bb8522d0beac02": {
                "nonce": "0x01",
                "balance": "0x00",
                "code": "0x3373fffffffffffffffffffffffffffffffffffffffe14604d57602036146024575f5ffd5b5f35801560495762001fff810690815414603c575f5ffd5b62001fff01545f5260205ff35b5f5ffd5b62001fff42064281555f359062001fff015500",
                "storage": {
                    "0x03e8": "0x03e8"
                }
            },
            "0xc0e4183389eb57f779a986d8c878f89b9401dc8e": {
                "nonce": "0x00",
                "balance": "0x00",
                "code": "0x6000600060006000346000355af1600055600160015500",
                "storage": {}
            },
            "0xa2ca69f1cf9ffa7a761899e8dd2f941d40326fd6": {
                "nonce": "0x00",
                "balance": "0x0de0b6b3a7640000",
                "code": "0x6040600060406000732defc3fb57b42969b271935d982740948b92e86b620249f0fa60005500",
                "storage": {}
            },
            "0x2defc3fb57b42969b271935d982740948b92e86b": {
                "nonce": "0x00",
                "balance": "0x0de0b6b3a7640000",
                "code": "0x6001600252604060006040600073a65f4b36f21ef107a26ab282b736f93d47bf83de620186a0fa50600160205200",
                "storage": {}
            },
            "0xa65f4b36f21ef107a26ab282b736f93d47bf83de": {
                "nonce": "0x00",
                "balance": "0x00",
                "code": "0x60016002553460055500",
                "storage": {}
            },
            "0x998a75f1a4457fb7b5872c51f34aa7256f732b1e": {
                "nonce": "0x00",
                "balance": "0x0de0b6b3a7640000",
                "code": "0x604060006040600073ddc2b4bc1fb31ed3cd95025fb7c668ba01b2db6c620249f0fa60005500",
                "storage": {}
            },
            "0xddc2b4bc1fb31ed3cd95025fb7c668ba01b2db6c": {
                "nonce": "0x00",
                "balance": "0x0de0b6b3a7640000",
                "code": "0x6001600252604060006040600073609e4dfe6190235b9a0362084c741d9ec330fb1e620186a0fa50600160205200",
                "storage": {}
            },
            "0x609e4dfe6190235b9a0362084c741d9ec330fb1e": {
                "nonce": "0x00",
                "balance": "0x00",
                "code": "0x5b61c3506080511015601c5760013b506001608051016080526000565b00",
                "storage": {}
            },
            "0xebaf50debf10e08302fe4280c32df010463ca297": {
                "nonce": "0x01",
                "balance": "0x0de0b6b3a74d1a0c",
                "code": "0x",
                "storage": {}
            }
        },
        "lastblockhash": "0x004000d40dfa4f69449bab12243abe0a1d184790b21275b8d7627c9a32cec3f5",
        "config": {
            "network": "Cancun",
            "chainid": "0x01",
            "blobSchedule": {
                "Cancun": {
                    "target": "0x03",
                    "max": "0x06",
                    "baseFeeUpdateFraction": "0x32f0ed"
                }
            }
        },
        "genesisRLP": "0xf9023cf90236a00000000000000000000000000000000000000000000000000000000000000000a01dcc4de8dec75d7aab85b567b6ccd41ad312451b948a7413f0a142fd40d49347940000000000000000000000000000000000000000a0259831eba8a1a7faa1e9768238d5665f645ccaf8f7842e89cc7dcdada134266aa056e81f171bcc55a6ff8345e692c0f86e5b48e01b996cadc001622fb5e363b421a056e81f171bcc55a6ff8345e692c0f86e5b48e01b996cadc001622fb5e363b421b901000000000000000000000000000000000000000000000000000000000000000000000000000000000000000000000000000000000000000000000000000000000000000000000000000000000000000000000000000000000000000000000000000000000000000000000000000000000000000000000000000000000000000000000000000000000000000000000000000000000000000000000000000000000000000000000000000000000000000000000000000000000000000000000000000000000000000000000000000000000000000000000000000000000000000000000000000000000000000000000000000000000000000000000000000000000080808401c9c380808000a000000000000000000000000000000000000000000000000000000000000000008800000000000000000ba056e81f171bcc55a6ff8345e692c0f86e5b48e01b996cadc001622fb5e363b4218080a00000000000000000000000000000000000000000000000000000000000000000c0c0c0",
        "blocks": [
            {
                "blockHeader": {
                    "parentHash": "0xb7f371572c8fff34a21e8393a5238a0d5b4c5d73e0f9064a4e484fd844b971bc",
                    "uncleHash": "0x1dcc4de8dec75d7aab85b567b6ccd41ad312451b948a7413f0a142fd40d49347",
                    "coinbase": "0x2adc25665018aa1fe0e6bc666dac8fc2697ff9ba",
                    "stateRoot": "0xe20b1371d3e843ebe42cc0da0c809fcb0b962395577f5f3b1dffe8f1f0f69c5c",
                    "transactionsTrie": "0xcf09d35e721f95d9f22bc8b326744f558c598fde23c5dad17c825ca145a8cee9",
                    "receiptTrie": "0x3faafc69aea2c8dc75b7a299998c7d7e6c19c1f7563bd814a8151670f73add72",
                    "bloom": "0x00000000000000000000000000000000000000000000000000000000000000000000000000000000000000000000000000000000000000000000000000000000000000000000000000000000000000000000000000000000000000000000000000000000000000000000000000000000000000000000000000000000000000000000000000000000000000000000000000000000000000000000000000000000000000000000000000000000000000000000000000000000000000000000000000000000000000000000000000000000000000000000000000000000000000000000000000000000000000000000000000000000000000000000000000000000",
                    "difficulty": "0x00",
                    "number": "0x01",
                    "gasLimit": "0x01c9c380",
                    "gasUsed": "0x024a32",
                    "timestamp": "0x03e8",
                    "extraData": "0x00",
                    "mixHash": "0x0000000000000000000000000000000000000000000000000000000000020000",
                    "nonce": "0x0000000000000000",
                    "baseFeePerGas": "0x0a",
                    "withdrawalsRoot": "0x56e81f171bcc55a6ff8345e692c0f86e5b48e01b996cadc001622fb5e363b421",
                    "blobGasUsed": "0x00",
                    "excessBlobGas": "0x00",
                    "parentBeaconBlockRoot": "0x0000000000000000000000000000000000000000000000000000000000000000",
                    "hash": "0x004000d40dfa4f69449bab12243abe0a1d184790b21275b8d7627c9a32cec3f5"
                },
                "transactions": [
                    {
                        "type": "0x00",
                        "chainId": "0x01",
                        "nonce": "0x00",
                        "gasPrice": "0x0a",
                        "gasLimit": "0x024a32",
                        "to": "0xc0e4183389eb57f779a986d8c878f89b9401dc8e",
                        "value": "0x00",
                        "data": "0x000000000000000000000000a2ca69f1cf9ffa7a761899e8dd2f941d40326fd6",
                        "v": "0x26",
                        "r": "0x14f7215def01a284db602eb55037a025d9611dbe7383825ae876620dc202d70a",
                        "s": "0x13d66b55d13f7980bd70a0b7be4c1c209d8a931ddb9044ad3c552741fdb8e92d",
                        "sender": "0xebaf50debf10e08302fe4280c32df010463ca297"
                    }
                ],
                "uncleHeaders": [],
                "withdrawals": [],
                "receipts": [
                    {
                        "transactionHash": "0x27907942d156105d69a018a8bb3b6a4ed97189ad047289a10e30e50bd91c1195",
                        "type": "0x00",
                        "cumulativeGasUsed": "0x024a32",
                        "bloom": "0x00000000000000000000000000000000000000000000000000000000000000000000000000000000000000000000000000000000000000000000000000000000000000000000000000000000000000000000000000000000000000000000000000000000000000000000000000000000000000000000000000000000000000000000000000000000000000000000000000000000000000000000000000000000000000000000000000000000000000000000000000000000000000000000000000000000000000000000000000000000000000000000000000000000000000000000000000000000000000000000000000000000000000000000000000000000",
                        "logs": [],
                        "status": false,
                        "rlp": "0xf901098083024a32b9010000000000000000000000000000000000000000000000000000000000000000000000000000000000000000000000000000000000000000000000000000000000000000000000000000000000000000000000000000000000000000000000000000000000000000000000000000000000000000000000000000000000000000000000000000000000000000000000000000000000000000000000000000000000000000000000000000000000000000000000000000000000000000000000000000000000000000000000000000000000000000000000000000000000000000000000000000000000000000000000000000000000000000000000000000000000c0"
                    }
                ],
                "rlp": "0xf902c4f9023ba0b7f371572c8fff34a21e8393a5238a0d5b4c5d73e0f9064a4e484fd844b971bca01dcc4de8dec75d7aab85b567b6ccd41ad312451b948a7413f0a142fd40d49347942adc25665018aa1fe0e6bc666dac8fc2697ff9baa0e20b1371d3e843ebe42cc0da0c809fcb0b962395577f5f3b1dffe8f1f0f69c5ca0cf09d35e721f95d9f22bc8b326744f558c598fde23c5dad17c825ca145a8cee9a03faafc69aea2c8dc75b7a299998c7d7e6c19c1f7563bd814a8151670f73add72b901000000000000000000000000000000000000000000000000000000000000000000000000000000000000000000000000000000000000000000000000000000000000000000000000000000000000000000000000000000000000000000000000000000000000000000000000000000000000000000000000000000000000000000000000000000000000000000000000000000000000000000000000000000000000000000000000000000000000000000000000000000000000000000000000000000000000000000000000000000000000000000000000000000000000000000000000000000000000000000000000000000000000000000000000000000000080018401c9c38083024a328203e800a000000000000000000000000000000000000000000000000000000000000200008800000000000000000aa056e81f171bcc55a6ff8345e692c0f86e5b48e01b996cadc001622fb5e363b4218080a00000000000000000000000000000000000000000000000000000000000000000f882f880800a83024a3294c0e4183389eb57f779a986d8c878f89b9401dc8e80a0000000000000000000000000a2ca69f1cf9ffa7a761899e8dd2f941d40326fd626a014f7215def01a284db602eb55037a025d9611dbe7383825ae876620dc202d70aa013d66b55d13f7980bd70a0b7be4c1c209d8a931ddb9044ad3c552741fdb8e92dc0c0",
                "blocknumber": "1"
            }
        ],
        "sealEngine": "NoProof",
        "_info": {
            "hash": "0x5dffe09c73ec61d544020f5b512d7b7220033aa47ed6796b2b7599735ef1316b",
            "fixture-format": "blockchain_test",
            "comment": "`execution-specs` generated test",
            "filling-transition-tool": "2.19.0",
            "description": "Test_static_callcall_00_ooge_2.",
            "url": "https://github.com/ethereum/execution-specs/blob/tests-bal@v5.6.1/tests/ported_static/stStaticCall/test_static_callcall_00_ooge_2.py#L26",
            "metadata": {
                "opcode_count": {}
            }
        }
    },
    "tests/ported_static/stStaticCall/test_static_callcall_00_ooge_2.py::test_static_callcall_00_ooge_2[fork_Cancun-blockchain_test_from_state_test-d1]": {
        "network": "Cancun",
        "genesisBlockHeader": {
            "parentHash": "0x0000000000000000000000000000000000000000000000000000000000000000",
            "uncleHash": "0x1dcc4de8dec75d7aab85b567b6ccd41ad312451b948a7413f0a142fd40d49347",
            "coinbase": "0x0000000000000000000000000000000000000000",
            "stateRoot": "0x259831eba8a1a7faa1e9768238d5665f645ccaf8f7842e89cc7dcdada134266a",
            "transactionsTrie": "0x56e81f171bcc55a6ff8345e692c0f86e5b48e01b996cadc001622fb5e363b421",
            "receiptTrie": "0x56e81f171bcc55a6ff8345e692c0f86e5b48e01b996cadc001622fb5e363b421",
            "bloom": "0x00000000000000000000000000000000000000000000000000000000000000000000000000000000000000000000000000000000000000000000000000000000000000000000000000000000000000000000000000000000000000000000000000000000000000000000000000000000000000000000000000000000000000000000000000000000000000000000000000000000000000000000000000000000000000000000000000000000000000000000000000000000000000000000000000000000000000000000000000000000000000000000000000000000000000000000000000000000000000000000000000000000000000000000000000000000",
            "difficulty": "0x00",
            "number": "0x00",
            "gasLimit": "0x01c9c380",
            "gasUsed": "0x00",
            "timestamp": "0x00",
            "extraData": "0x00",
            "mixHash": "0x0000000000000000000000000000000000000000000000000000000000000000",
            "nonce": "0x0000000000000000",
            "baseFeePerGas": "0x0b",
            "withdrawalsRoot": "0x56e81f171bcc55a6ff8345e692c0f86e5b48e01b996cadc001622fb5e363b421",
            "blobGasUsed": "0x00",
            "excessBlobGas": "0x00",
            "parentBeaconBlockRoot": "0x0000000000000000000000000000000000000000000000000000000000000000",
            "hash": "0xb7f371572c8fff34a21e8393a5238a0d5b4c5d73e0f9064a4e484fd844b971bc"
        },
        "pre": {
            "0x000f3df6d732807ef1319fb7b8bb8522d0beac02": {
                "nonce": "0x01",
                "balance": "0x00",
                "code": "0x3373fffffffffffffffffffffffffffffffffffffffe14604d57602036146024575f5ffd5b5f35801560495762001fff810690815414603c575f5ffd5b62001fff01545f5260205ff35b5f5ffd5b62001fff42064281555f359062001fff015500",
                "storage": {}
            },
            "0xc0e4183389eb57f779a986d8c878f89b9401dc8e": {
                "nonce": "0x00",
                "balance": "0x00",
                "code": "0x6000600060006000346000355af1600055600160015500",
                "storage": {}
            },
            "0xa2ca69f1cf9ffa7a761899e8dd2f941d40326fd6": {
                "nonce": "0x00",
                "balance": "0x0de0b6b3a7640000",
                "code": "0x6040600060406000732defc3fb57b42969b271935d982740948b92e86b620249f0fa60005500",
                "storage": {}
            },
            "0x2defc3fb57b42969b271935d982740948b92e86b": {
                "nonce": "0x00",
                "balance": "0x0de0b6b3a7640000",
                "code": "0x6001600252604060006040600073a65f4b36f21ef107a26ab282b736f93d47bf83de620186a0fa50600160205200",
                "storage": {}
            },
            "0xa65f4b36f21ef107a26ab282b736f93d47bf83de": {
                "nonce": "0x00",
                "balance": "0x00",
                "code": "0x60016002553460055500",
                "storage": {}
            },
            "0x998a75f1a4457fb7b5872c51f34aa7256f732b1e": {
                "nonce": "0x00",
                "balance": "0x0de0b6b3a7640000",
                "code": "0x604060006040600073ddc2b4bc1fb31ed3cd95025fb7c668ba01b2db6c620249f0fa60005500",
                "storage": {}
            },
            "0xddc2b4bc1fb31ed3cd95025fb7c668ba01b2db6c": {
                "nonce": "0x00",
                "balance": "0x0de0b6b3a7640000",
                "code": "0x6001600252604060006040600073609e4dfe6190235b9a0362084c741d9ec330fb1e620186a0fa50600160205200",
                "storage": {}
            },
            "0x609e4dfe6190235b9a0362084c741d9ec330fb1e": {
                "nonce": "0x00",
                "balance": "0x00",
                "code": "0x5b61c3506080511015601c5760013b506001608051016080526000565b00",
                "storage": {}
            },
            "0xebaf50debf10e08302fe4280c32df010463ca297": {
                "nonce": "0x00",
                "balance": "0x0de0b6b3a7640000",
                "code": "0x",
                "storage": {}
            }
        },
        "postState": {
            "0x000f3df6d732807ef1319fb7b8bb8522d0beac02": {
                "nonce": "0x01",
                "balance": "0x00",
                "code": "0x3373fffffffffffffffffffffffffffffffffffffffe14604d57602036146024575f5ffd5b5f35801560495762001fff810690815414603c575f5ffd5b62001fff01545f5260205ff35b5f5ffd5b62001fff42064281555f359062001fff015500",
                "storage": {
                    "0x03e8": "0x03e8"
                }
            },
            "0xc0e4183389eb57f779a986d8c878f89b9401dc8e": {
                "nonce": "0x00",
                "balance": "0x00",
                "code": "0x6000600060006000346000355af1600055600160015500",
                "storage": {}
            },
            "0xa2ca69f1cf9ffa7a761899e8dd2f941d40326fd6": {
                "nonce": "0x00",
                "balance": "0x0de0b6b3a7640000",
                "code": "0x6040600060406000732defc3fb57b42969b271935d982740948b92e86b620249f0fa60005500",
                "storage": {}
            },
            "0x2defc3fb57b42969b271935d982740948b92e86b": {
                "nonce": "0x00",
                "balance": "0x0de0b6b3a7640000",
                "code": "0x6001600252604060006040600073a65f4b36f21ef107a26ab282b736f93d47bf83de620186a0fa50600160205200",
                "storage": {}
            },
            "0xa65f4b36f21ef107a26ab282b736f93d47bf83de": {
                "nonce": "0x00",
                "balance": "0x00",
                "code": "0x60016002553460055500",
                "storage": {}
            },
            "0x998a75f1a4457fb7b5872c51f34aa7256f732b1e": {
                "nonce": "0x00",
                "balance": "0x0de0b6b3a7640000",
                "code": "0x604060006040600073ddc2b4bc1fb31ed3cd95025fb7c668ba01b2db6c620249f0fa60005500",
                "storage": {}
            },
            "0xddc2b4bc1fb31ed3cd95025fb7c668ba01b2db6c": {
                "nonce": "0x00",
                "balance": "0x0de0b6b3a7640000",
                "code": "0x6001600252604060006040600073609e4dfe6190235b9a0362084c741d9ec330fb1e620186a0fa50600160205200",
                "storage": {}
            },
            "0x609e4dfe6190235b9a0362084c741d9ec330fb1e": {
                "nonce": "0x00",
                "balance": "0x00",
                "code": "0x5b61c3506080511015601c5760013b506001608051016080526000565b00",
                "storage": {}
            },
            "0xebaf50debf10e08302fe4280c32df010463ca297": {
                "nonce": "0x01",
                "balance": "0x0de0b6b3a74d1a0c",
                "code": "0x",
                "storage": {}
            }
        },
        "lastblockhash": "0x756854ad5cd010850ba4dbe672291911aaca902294a5ed8b6d69eaa92db6d924",
        "config": {
            "network": "Cancun",
            "chainid": "0x01",
            "blobSchedule": {
                "Cancun": {
                    "target": "0x03",
                    "max": "0x06",
                    "baseFeeUpdateFraction": "0x32f0ed"
                }
            }
        },
        "genesisRLP": "0xf9023cf90236a00000000000000000000000000000000000000000000000000000000000000000a01dcc4de8dec75d7aab85b567b6ccd41ad312451b948a7413f0a142fd40d49347940000000000000000000000000000000000000000a0259831eba8a1a7faa1e9768238d5665f645ccaf8f7842e89cc7dcdada134266aa056e81f171bcc55a6ff8345e692c0f86e5b48e01b996cadc001622fb5e363b421a056e81f171bcc55a6ff8345e692c0f86e5b48e01b996cadc001622fb5e363b421b901000000000000000000000000000000000000000000000000000000000000000000000000000000000000000000000000000000000000000000000000000000000000000000000000000000000000000000000000000000000000000000000000000000000000000000000000000000000000000000000000000000000000000000000000000000000000000000000000000000000000000000000000000000000000000000000000000000000000000000000000000000000000000000000000000000000000000000000000000000000000000000000000000000000000000000000000000000000000000000000000000000000000000000000000000000000080808401c9c380808000a000000000000000000000000000000000000000000000000000000000000000008800000000000000000ba056e81f171bcc55a6ff8345e692c0f86e5b48e01b996cadc001622fb5e363b4218080a00000000000000000000000000000000000000000000000000000000000000000c0c0c0",
        "blocks": [
            {
                "blockHeader": {
                    "parentHash": "0xb7f371572c8fff34a21e8393a5238a0d5b4c5d73e0f9064a4e484fd844b971bc",
                    "uncleHash": "0x1dcc4de8dec75d7aab85b567b6ccd41ad312451b948a7413f0a142fd40d49347",
                    "coinbase": "0x2adc25665018aa1fe0e6bc666dac8fc2697ff9ba",
                    "stateRoot": "0xe20b1371d3e843ebe42cc0da0c809fcb0b962395577f5f3b1dffe8f1f0f69c5c",
                    "transactionsTrie": "0x569256b365b30948589cc50cab1f6aac49a36c0c6594b39da7bdc109b0aef16d",
                    "receiptTrie": "0x3faafc69aea2c8dc75b7a299998c7d7e6c19c1f7563bd814a8151670f73add72",
                    "bloom": "0x00000000000000000000000000000000000000000000000000000000000000000000000000000000000000000000000000000000000000000000000000000000000000000000000000000000000000000000000000000000000000000000000000000000000000000000000000000000000000000000000000000000000000000000000000000000000000000000000000000000000000000000000000000000000000000000000000000000000000000000000000000000000000000000000000000000000000000000000000000000000000000000000000000000000000000000000000000000000000000000000000000000000000000000000000000000",
                    "difficulty": "0x00",
                    "number": "0x01",
                    "gasLimit": "0x01c9c380",
                    "gasUsed": "0x024a32",
                    "timestamp": "0x03e8",
                    "extraData": "0x00",
                    "mixHash": "0x0000000000000000000000000000000000000000000000000000000000020000",
                    "nonce": "0x0000000000000000",
                    "baseFeePerGas": "0x0a",
                    "withdrawalsRoot": "0x56e81f171bcc55a6ff8345e692c0f86e5b48e01b996cadc001622fb5e363b421",
                    "blobGasUsed": "0x00",
                    "excessBlobGas": "0x00",
                    "parentBeaconBlockRoot": "0x0000000000000000000000000000000000000000000000000000000000000000",
                    "hash": "0x756854ad5cd010850ba4dbe672291911aaca902294a5ed8b6d69eaa92db6d924"
                },
                "transactions": [
                    {
                        "type": "0x00",
                        "chainId": "0x01",
                        "nonce": "0x00",
                        "gasPrice": "0x0a",
                        "gasLimit": "0x024a32",
                        "to": "0xc0e4183389eb57f779a986d8c878f89b9401dc8e",
                        "value": "0x00",
                        "data": "0x000000000000000000000000998a75f1a4457fb7b5872c51f34aa7256f732b1e",
                        "v": "0x26",
                        "r": "0x8aa41cf5c3eb46cf7dd5d1422615473bfc5fc3506934c41b4a4b424a93002e7e",
                        "s": "0x3ad4ee9c136f352b8701df7f171d0efdae6fcc17f8396d26c9957f59fefe1ade",
                        "sender": "0xebaf50debf10e08302fe4280c32df010463ca297"
                    }
                ],
                "uncleHeaders": [],
                "withdrawals": [],
                "receipts": [
                    {
                        "transactionHash": "0x0815d5cad0404d031fe9315a2904cf29bbbf480787cb61990d93b66bf9a84187",
                        "type": "0x00",
                        "cumulativeGasUsed": "0x024a32",
                        "bloom": "0x00000000000000000000000000000000000000000000000000000000000000000000000000000000000000000000000000000000000000000000000000000000000000000000000000000000000000000000000000000000000000000000000000000000000000000000000000000000000000000000000000000000000000000000000000000000000000000000000000000000000000000000000000000000000000000000000000000000000000000000000000000000000000000000000000000000000000000000000000000000000000000000000000000000000000000000000000000000000000000000000000000000000000000000000000000000",
                        "logs": [],
                        "status": false,
                        "rlp": "0xf901098083024a32b9010000000000000000000000000000000000000000000000000000000000000000000000000000000000000000000000000000000000000000000000000000000000000000000000000000000000000000000000000000000000000000000000000000000000000000000000000000000000000000000000000000000000000000000000000000000000000000000000000000000000000000000000000000000000000000000000000000000000000000000000000000000000000000000000000000000000000000000000000000000000000000000000000000000000000000000000000000000000000000000000000000000000000000000000000000000000c0"
                    }
                ],
                "rlp": "0xf902c4f9023ba0b7f371572c8fff34a21e8393a5238a0d5b4c5d73e0f9064a4e484fd844b971bca01dcc4de8dec75d7aab85b567b6ccd41ad312451b948a7413f0a142fd40d49347942adc25665018aa1fe0e6bc666dac8fc2697ff9baa0e20b1371d3e843ebe42cc0da0c809fcb0b962395577f5f3b1dffe8f1f0f69c5ca0569256b365b30948589cc50cab1f6aac49a36c0c6594b39da7bdc109b0aef16da03faafc69aea2c8dc75b7a299998c7d7e6c19c1f7563bd814a8151670f73add72b901000000000000000000000000000000000000000000000000000000000000000000000000000000000000000000000000000000000000000000000000000000000000000000000000000000000000000000000000000000000000000000000000000000000000000000000000000000000000000000000000000000000000000000000000000000000000000000000000000000000000000000000000000000000000000000000000000000000000000000000000000000000000000000000000000000000000000000000000000000000000000000000000000000000000000000000000000000000000000000000000000000000000000000000000000000000080018401c9c38083024a328203e800a000000000000000000000000000000000000000000000000000000000000200008800000000000000000aa056e81f171bcc55a6ff8345e692c0f86e5b48e01b996cadc001622fb5e363b4218080a00000000000000000000000000000000000000000000000000000000000000000f882f880800a83024a3294c0e4183389eb57f779a986d8c878f89b9401dc8e80a0000000000000000000000000998a75f1a4457fb7b5872c51f34aa7256f732b1e26a08aa41cf5c3eb46cf7dd5d1422615473bfc5fc3506934c41b4a4b424a93002e7ea03ad4ee9c136f352b8701df7f171d0efdae6fcc17f8396d26c9957f59fefe1adec0c0",
                "blocknumber": "1"
            }
        ],
        "sealEngine": "NoProof",
        "_info": {
            "hash": "0x1677888720a00f4d86be41f30c0bdebdfb5ad7294bc978ae95629ddd9f8ae113",
            "fixture-format": "blockchain_test",
            "comment": "`execution-specs` generated test",
            "filling-transition-tool": "2.19.0",
            "description": "Test_static_callcall_00_ooge_2.",
            "url": "https://github.com/ethereum/execution-specs/blob/tests-bal@v5.6.1/tests/ported_static/stStaticCall/test_static_callcall_00_ooge_2.py#L26",
            "metadata": {
                "opcode_count": {}
            }
        }
    }
}