{
    "tests/ported_static/stInitCodeTest/test_call_contract_to_create_contract_which_would_create_contract_if_called.py::test_call_contract_to_create_contract_which_would_create_contract_if_called[fork_Cancun-blockchain_test_from_state_test]": {
        "network": "Cancun",
        "genesisBlockHeader": {
            "parentHash": "0x0000000000000000000000000000000000000000000000000000000000000000",
            "uncleHash": "0x1dcc4de8dec75d7aab85b567b6ccd41ad312451b948a7413f0a142fd40d49347",
            "coinbase": "0x0000000000000000000000000000000000000000",
            "stateRoot": "0x21600e354731d89f4ae3f36fd9c46e37fc839cba2ee537f95dde86fc58096ab9",
            "transactionsTrie": "0x56e81f171bcc55a6ff8345e692c0f86e5b48e01b996cadc001622fb5e363b421",
            "receiptTrie": "0x56e81f171bcc55a6ff8345e692c0f86e5b48e01b996cadc001622fb5e363b421",
            "bloom": "0x00000000000000000000000000000000000000000000000000000000000000000000000000000000000000000000000000000000000000000000000000000000000000000000000000000000000000000000000000000000000000000000000000000000000000000000000000000000000000000000000000000000000000000000000000000000000000000000000000000000000000000000000000000000000000000000000000000000000000000000000000000000000000000000000000000000000000000000000000000000000000000000000000000000000000000000000000000000000000000000000000000000000000000000000000000000",
            "difficulty": "0x00",
            "number": "0x00",
            "gasLimit": "0x3b9aca00",
            "gasUsed": "0x00",
            "timestamp": "0x00",
            "extraData": "0x00",
            "mixHash": "0x0000000000000000000000000000000000000000000000000000000000000000",
            "nonce": "0x0000000000000000",
            "baseFeePerGas": "0x0b",
            "withdrawalsRoot": "0x56e81f171bcc55a6ff8345e692c0f86e5b48e01b996cadc001622fb5e363b421",
            "blobGasUsed": "0x00",
            "excessBlobGas": "0x00",
            "parentBeaconBlockRoot": "0x0000000000000000000000000000000000000000000000000000000000000000",
            "hash": "0x745dd26c0f7a7aa335b3dff88bafa823f5f8ec962fe8e6037892021f95c40950"
        },
        "pre": {
            "0x000f3df6d732807ef1319fb7b8bb8522d0beac02": {
                "nonce": "0x01",
                "balance": "0x00",
                "code": "0x3373fffffffffffffffffffffffffffffffffffffffe14604d57602036146024575f5ffd5b5f35801560495762001fff810690815414603c575f5ffd5b62001fff01545f5260205ff35b5f5ffd5b62001fff42064281555f359062001fff015500",
                "storage": {}
            },
            "0x095e7baea6a6c7c4c2dfeb977efac326af552d87": {
                "nonce": "0x00",
                "balance": "0x03e8",
                "code": "0x74600c60005566602060406000f060205260076039f36000526015600b6001f06000556000600060006000600160005461c350f100",
                "storage": {}
            },
            "0xa94f5374fce5edbc8e2a8697c15331677e6ebf0b": {
                "nonce": "0x00",
                "balance": "0x3b9aca00",
                "code": "0x",
                "storage": {}
            }
        },
        "postState": {
            "0x000f3df6d732807ef1319fb7b8bb8522d0beac02": {
                "nonce": "0x01",
                "balance": "0x00",
                "code": "0x3373fffffffffffffffffffffffffffffffffffffffe14604d57602036146024575f5ffd5b5f35801560495762001fff810690815414603c575f5ffd5b62001fff01545f5260205ff35b5f5ffd5b62001fff42064281555f359062001fff015500",
                "storage": {
                    "0x03e8": "0x03e8"
                }
            },
            "0x095e7baea6a6c7c4c2dfeb977efac326af552d87": {
                "nonce": "0x01",
                "balance": "0x03e6",
                "code": "0x74600c60005566602060406000f060205260076039f36000526015600b6001f06000556000600060006000600160005461c350f100",
                "storage": {
                    "0x00": "0xd2571607e241ecf590ed94b12d87c94babe36db6"
                }
            },
            "0xa94f5374fce5edbc8e2a8697c15331677e6ebf0b": {
                "nonce": "0x01",
                "balance": "0x3b85cb14",
                "code": "0x",
                "storage": {}
            },
            "0xd2571607e241ecf590ed94b12d87c94babe36db6": {
                "nonce": "0x02",
                "balance": "0x02",
                "code": "0x602060406000f0",
                "storage": {
                    "0x00": "0x0c"
                }
            },
            "0x91ed00a0a906270d466af043c4e111dadca970a3": {
                "nonce": "0x01",
                "balance": "0x00",
                "code": "0x",
                "storage": {}
            }
        },
        "lastblockhash": "0xdda60b2b6aa82d78965899f1bff1d1eaacf46a7ccb0164ca6ed0b58f39ea34cf",
        "config": {
            "network": "Cancun",
            "chainid": "0x01",
            "blobSchedule": {
                "Cancun": {
                    "target": "0x03",
                    "max": "0x06",
                    "baseFeeUpdateFraction": "0x32f0ed"
                }
            }
        },
        "genesisRLP": "0xf9023cf90236a00000000000000000000000000000000000000000000000000000000000000000a01dcc4de8dec75d7aab85b567b6ccd41ad312451b948a7413f0a142fd40d49347940000000000000000000000000000000000000000a021600e354731d89f4ae3f36fd9c46e37fc839cba2ee537f95dde86fc58096ab9a056e81f171bcc55a6ff8345e692c0f86e5b48e01b996cadc001622fb5e363b421a056e81f171bcc55a6ff8345e692c0f86e5b48e01b996cadc001622fb5e363b421b90100000000000000000000000000000000000000000000000000000000000000000000000000000000000000000000000000000000000000000000000000000000000000000000000000000000000000000000000000000000000000000000000000000000000000000000000000000000000000000000000000000000000000000000000000000000000000000000000000000000000000000000000000000000000000000000000000000000000000000000000000000000000000000000000000000000000000000000000000000000000000000000000000000000000000000000000000000000000000000000000000000000000000000000000000000000008080843b9aca00808000a000000000000000000000000000000000000000000000000000000000000000008800000000000000000ba056e81f171bcc55a6ff8345e692c0f86e5b48e01b996cadc001622fb5e363b4218080a00000000000000000000000000000000000000000000000000000000000000000c0c0c0",
        "blocks": [
            {
                "blockHeader": {
                    "parentHash": "0x745dd26c0f7a7aa335b3dff88bafa823f5f8ec962fe8e6037892021f95c40950",
                    "uncleHash": "0x1dcc4de8dec75d7aab85b567b6ccd41ad312451b948a7413f0a142fd40d49347",
                    "coinbase": "0x2adc25665018aa1fe0e6bc666dac8fc2697ff9ba",
                    "stateRoot": "0xe1b299dcc06920245e24251aa90dd3de2076c220a8e4b41cba0ed15200530010",
                    "transactionsTrie": "0xa6fa649dc3a08e9fd95561f06c8a8bdf82253fbba655c1ad1ac21fb4a98464ad",
                    "receiptTrie": "0x0655453007d878d17e970d96b6156126f079f828c73674cb7ed9354da5c684c2",
                    "bloom": "0x00000000000000000000000000000000000000000000000000000000000000000000000000000000000000000000000000000000000000000000000000000000000000000000000000000000000000000000000000000000000000000000000000000000000000000000000000000000000000000000000000000000000000000000000000000000000000000000000000000000000000000000000000000000000000000000000000000000000000000000000000000000000000000000000000000000000000000000000000000000000000000000000000000000000000000000000000000000000000000000000000000000000000000000000000000000",
                    "difficulty": "0x00",
                    "number": "0x01",
                    "gasLimit": "0x3b9aca00",
                    "gasUsed": "0x02197e",
                    "timestamp": "0x03e8",
                    "extraData": "0x00",
                    "mixHash": "0x0000000000000000000000000000000000000000000000000000000000020000",
                    "nonce": "0x0000000000000000",
                    "baseFeePerGas": "0x0a",
                    "withdrawalsRoot": "0x56e81f171bcc55a6ff8345e692c0f86e5b48e01b996cadc001622fb5e363b421",
                    "blobGasUsed": "0x00",
                    "excessBlobGas": "0x00",
                    "parentBeaconBlockRoot": "0x0000000000000000000000000000000000000000000000000000000000000000",
                    "hash": "0xdda60b2b6aa82d78965899f1bff1d1eaacf46a7ccb0164ca6ed0b58f39ea34cf"
                },
                "transactions": [
                    {
                        "type": "0x00",
                        "chainId": "0x01",
                        "nonce": "0x00",
                        "gasPrice": "0x0a",
                        "gasLimit": "0x030d40",
                        "to": "0x095e7baea6a6c7c4c2dfeb977efac326af552d87",
                        "value": "0x00",
                        "data": "0x00",
                        "v": "0x26",
                        "r": "0xb6d96ad5d5b024ed5fa03adf65549320273bfc8a2b03a05e473c63d64cc639b1",
                        "s": "0x56b1fc351fbc75ba5b06b7c9d546c00f220bfd5117494257cd2507337dab71f4",
                        "sender": "0xa94f5374fce5edbc8e2a8697c15331677e6ebf0b"
                    }
                ],
                "uncleHeaders": [],
                "withdrawals": [],
                "receipts": [
                    {
                        "transactionHash": "0x76aaa932faa7257bc51c25d4ab58eb5e819dc5a3c02f2be8463b08845aba3ead",
                        "type": "0x00",
                        "cumulativeGasUsed": "0x02197e",
                        "bloom": "0x00000000000000000000000000000000000000000000000000000000000000000000000000000000000000000000000000000000000000000000000000000000000000000000000000000000000000000000000000000000000000000000000000000000000000000000000000000000000000000000000000000000000000000000000000000000000000000000000000000000000000000000000000000000000000000000000000000000000000000000000000000000000000000000000000000000000000000000000000000000000000000000000000000000000000000000000000000000000000000000000000000000000000000000000000000000",
                        "logs": [],
                        "status": true,
                        "rlp": "0xf90109018302197eb9010000000000000000000000000000000000000000000000000000000000000000000000000000000000000000000000000000000000000000000000000000000000000000000000000000000000000000000000000000000000000000000000000000000000000000000000000000000000000000000000000000000000000000000000000000000000000000000000000000000000000000000000000000000000000000000000000000000000000000000000000000000000000000000000000000000000000000000000000000000000000000000000000000000000000000000000000000000000000000000000000000000000000000000000000000000000c0"
                    }
                ],
                "rlp": "0xf902a4f9023ba0745dd26c0f7a7aa335b3dff88bafa823f5f8ec962fe8e6037892021f95c40950a01dcc4de8dec75d7aab85b567b6ccd41ad312451b948a7413f0a142fd40d49347942adc25665018aa1fe0e6bc666dac8fc2697ff9baa0e1b299dcc06920245e24251aa90dd3de2076c220a8e4b41cba0ed15200530010a0a6fa649dc3a08e9fd95561f06c8a8bdf82253fbba655c1ad1ac21fb4a98464ada00655453007d878d17e970d96b6156126f079f828c73674cb7ed9354da5c684c2b90100000000000000000000000000000000000000000000000000000000000000000000000000000000000000000000000000000000000000000000000000000000000000000000000000000000000000000000000000000000000000000000000000000000000000000000000000000000000000000000000000000000000000000000000000000000000000000000000000000000000000000000000000000000000000000000000000000000000000000000000000000000000000000000000000000000000000000000000000000000000000000000000000000000000000000000000000000000000000000000000000000000000000000000000000000000008001843b9aca008302197e8203e800a000000000000000000000000000000000000000000000000000000000000200008800000000000000000aa056e81f171bcc55a6ff8345e692c0f86e5b48e01b996cadc001622fb5e363b4218080a00000000000000000000000000000000000000000000000000000000000000000f862f860800a83030d4094095e7baea6a6c7c4c2dfeb977efac326af552d87800026a0b6d96ad5d5b024ed5fa03adf65549320273bfc8a2b03a05e473c63d64cc639b1a056b1fc351fbc75ba5b06b7c9d546c00f220bfd5117494257cd2507337dab71f4c0c0",
                "blocknumber": "1"
            }
        ],
        "sealEngine": "NoProof",
        "_info": {
            "hash": "0x9c33b4d4fe4b9bcf30de109192203888af742dcce408336793c8994481ac8103",
            "fixture-format": "blockchain_test",
            "comment": "`execution-specs` generated test",
            "filling-transition-tool": "2.19.0",
            "description": "Test_call_contract_to_create_contract_which_would_create_contract_i...",
            "url": "https://github.com/ethereum/execution-specs/blob/tests-sn\u00f8bal-devnet-4@v1.0.0/tests/ported_static/stInitCodeTest/test_call_contract_to_create_contract_which_would_create_contract_if_called.py#L26",
            "metadata": {
                "opcode_count": {}
            }
        }
    }
}