{
    "tests/homestead/coverage/test_coverage.py::test_coverage[fork_Paris-blockchain_test_from_state_test]": {
        "network": "Paris",
        "genesisBlockHeader": {
            "parentHash": "0x0000000000000000000000000000000000000000000000000000000000000000",
            "uncleHash": "0x1dcc4de8dec75d7aab85b567b6ccd41ad312451b948a7413f0a142fd40d49347",
            "coinbase": "0x0000000000000000000000000000000000000000",
            "stateRoot": "0xed2a4d5a0ec665149a24b102ddb951239f7a0a105f95642d27b3321fdae90ed5",
            "transactionsTrie": "0x56e81f171bcc55a6ff8345e692c0f86e5b48e01b996cadc001622fb5e363b421",
            "receiptTrie": "0x56e81f171bcc55a6ff8345e692c0f86e5b48e01b996cadc001622fb5e363b421",
            "bloom": "0x00000000000000000000000000000000000000000000000000000000000000000000000000000000000000000000000000000000000000000000000000000000000000000000000000000000000000000000000000000000000000000000000000000000000000000000000000000000000000000000000000000000000000000000000000000000000000000000000000000000000000000000000000000000000000000000000000000000000000000000000000000000000000000000000000000000000000000000000000000000000000000000000000000000000000000000000000000000000000000000000000000000000000000000000000000000",
            "difficulty": "0x00",
            "number": "0x00",
            "gasLimit": "0x07270e00",
            "gasUsed": "0x00",
            "timestamp": "0x00",
            "extraData": "0x00",
            "mixHash": "0x0000000000000000000000000000000000000000000000000000000000000000",
            "nonce": "0x0000000000000000",
            "baseFeePerGas": "0x07",
            "hash": "0xb74981fa15b3be5cd5b53a37fb1fce68ffc84742ae335cff182545ac6cfecb9c"
        },
        "pre": {
            "0x96449bee65a3701bb2a39ef7ca1c91718ec65789": {
                "nonce": "0x01",
                "balance": "0x00",
                "code": "0x600060011b600060011c600a600b600c600d600e9080815f6101026201020363010203047f01010101010101010101010101010101010101010101010101010101010101016001600053600360020160015060046010600039",
                "storage": {}
            },
            "0xc9dcf4795cfce8d1ed829e290265d27fe80151ef": {
                "nonce": "0x01",
                "balance": "0x0de0b6b3a7640000",
                "code": "0x600060006000600060007396449bee65a3701bb2a39ef7ca1c91718ec657895af160005260206000f3",
                "storage": {}
            },
            "0x682525b71cd8f25d795f603b2125786f97b19816": {
                "nonce": "0x00",
                "balance": "0x6124fee993bc0000",
                "code": "0x",
                "storage": {}
            }
        },
        "postState": {
            "0x96449bee65a3701bb2a39ef7ca1c91718ec65789": {
                "nonce": "0x01",
                "balance": "0x00",
                "code": "0x600060011b600060011c600a600b600c600d600e9080815f6101026201020363010203047f01010101010101010101010101010101010101010101010101010101010101016001600053600360020160015060046010600039",
                "storage": {}
            },
            "0xc9dcf4795cfce8d1ed829e290265d27fe80151ef": {
                "nonce": "0x01",
                "balance": "0x0de0b6b3a7640000",
                "code": "0x600060006000600060007396449bee65a3701bb2a39ef7ca1c91718ec657895af160005260206000f3",
                "storage": {}
            },
            "0x682525b71cd8f25d795f603b2125786f97b19816": {
                "nonce": "0x01",
                "balance": "0x6124fee993acebc4",
                "code": "0x",
                "storage": {}
            },
            "0x2adc25665018aa1fe0e6bc666dac8fc2697ff9ba": {
                "nonce": "0x00",
                "balance": "0x048612",
                "code": "0x",
                "storage": {}
            }
        },
        "lastblockhash": "0x2d6a0be8137896654c6bbc993162b90bcc2fe755954199ec44a6d3ae1fa79e13",
        "config": {
            "network": "Paris",
            "chainid": "0x01"
        },
        "genesisRLP": "0xf901f7f901f2a00000000000000000000000000000000000000000000000000000000000000000a01dcc4de8dec75d7aab85b567b6ccd41ad312451b948a7413f0a142fd40d49347940000000000000000000000000000000000000000a0ed2a4d5a0ec665149a24b102ddb951239f7a0a105f95642d27b3321fdae90ed5a056e81f171bcc55a6ff8345e692c0f86e5b48e01b996cadc001622fb5e363b421a056e81f171bcc55a6ff8345e692c0f86e5b48e01b996cadc001622fb5e363b421b901000000000000000000000000000000000000000000000000000000000000000000000000000000000000000000000000000000000000000000000000000000000000000000000000000000000000000000000000000000000000000000000000000000000000000000000000000000000000000000000000000000000000000000000000000000000000000000000000000000000000000000000000000000000000000000000000000000000000000000000000000000000000000000000000000000000000000000000000000000000000000000000000000000000000000000000000000000000000000000000000000000000000000000000000000000000080808407270e00808000a0000000000000000000000000000000000000000000000000000000000000000088000000000000000007c0c0",
        "blocks": [
            {
                "blockHeader": {
                    "parentHash": "0xb74981fa15b3be5cd5b53a37fb1fce68ffc84742ae335cff182545ac6cfecb9c",
                    "uncleHash": "0x1dcc4de8dec75d7aab85b567b6ccd41ad312451b948a7413f0a142fd40d49347",
                    "coinbase": "0x2adc25665018aa1fe0e6bc666dac8fc2697ff9ba",
                    "stateRoot": "0xbfb09e30609c41a2bba405037ba787be04eaeafb739ffd0920e1060200ea19c3",
                    "transactionsTrie": "0x15158a6290e26358557d0b14dc461af8d3f63cac264b99d1c2538b18ee33bedf",
                    "receiptTrie": "0xbf36bd3a0ede6c8e88f8881defe72ef6599753116311edbe7e0c819eedd04440",
                    "bloom": "0x00000000000000000000000000000000000000000000000000000000000000000000000000000000000000000000000000000000000000000000000000000000000000000000000000000000000000000000000000000000000000000000000000000000000000000000000000000000000000000000000000000000000000000000000000000000000000000000000000000000000000000000000000000000000000000000000000000000000000000000000000000000000000000000000000000000000000000000000000000000000000000000000000000000000000000000000000000000000000000000000000000000000000000000000000000000",
                    "difficulty": "0x00",
                    "number": "0x01",
                    "gasLimit": "0x07270e00",
                    "gasUsed": "0x018206",
                    "timestamp": "0x03e8",
                    "extraData": "0x00",
                    "mixHash": "0x0000000000000000000000000000000000000000000000000000000000000000",
                    "nonce": "0x0000000000000000",
                    "baseFeePerGas": "0x07",
                    "hash": "0x2d6a0be8137896654c6bbc993162b90bcc2fe755954199ec44a6d3ae1fa79e13"
                },
                "transactions": [
                    {
                        "type": "0x00",
                        "chainId": "0x01",
                        "nonce": "0x00",
                        "gasPrice": "0x0a",
                        "gasLimit": "0x0186a0",
                        "to": "0xc9dcf4795cfce8d1ed829e290265d27fe80151ef",
                        "value": "0x00",
                        "data": "0x",
                        "v": "0x1c",
                        "r": "0xd2bdc66959056bd122e6cc449f02206fed53a027bd161ae8962c5b4ed11404a4",
                        "s": "0x5115c35183d55cc4452c741799e9b91e9bcc1083a961d824384334b9a6818c0d",
                        "sender": "0x682525b71cd8f25d795f603b2125786f97b19816"
                    }
                ],
                "uncleHeaders": [],
                "receipts": [
                    {
                        "transactionHash": "0x88b059e433307e395881ccadeb679b51c7f9d944cfbb3a7df2454aca82e13ed6",
                        "type": "0x00",
                        "cumulativeGasUsed": "0x018206",
                        "bloom": "0x00000000000000000000000000000000000000000000000000000000000000000000000000000000000000000000000000000000000000000000000000000000000000000000000000000000000000000000000000000000000000000000000000000000000000000000000000000000000000000000000000000000000000000000000000000000000000000000000000000000000000000000000000000000000000000000000000000000000000000000000000000000000000000000000000000000000000000000000000000000000000000000000000000000000000000000000000000000000000000000000000000000000000000000000000000000",
                        "logs": [],
                        "status": true,
                        "rlp": "0xf901090183018206b9010000000000000000000000000000000000000000000000000000000000000000000000000000000000000000000000000000000000000000000000000000000000000000000000000000000000000000000000000000000000000000000000000000000000000000000000000000000000000000000000000000000000000000000000000000000000000000000000000000000000000000000000000000000000000000000000000000000000000000000000000000000000000000000000000000000000000000000000000000000000000000000000000000000000000000000000000000000000000000000000000000000000000000000000000000000000c0"
                    }
                ],
                "rlp": "0xf9025ff901f7a0b74981fa15b3be5cd5b53a37fb1fce68ffc84742ae335cff182545ac6cfecb9ca01dcc4de8dec75d7aab85b567b6ccd41ad312451b948a7413f0a142fd40d49347942adc25665018aa1fe0e6bc666dac8fc2697ff9baa0bfb09e30609c41a2bba405037ba787be04eaeafb739ffd0920e1060200ea19c3a015158a6290e26358557d0b14dc461af8d3f63cac264b99d1c2538b18ee33bedfa0bf36bd3a0ede6c8e88f8881defe72ef6599753116311edbe7e0c819eedd04440b901000000000000000000000000000000000000000000000000000000000000000000000000000000000000000000000000000000000000000000000000000000000000000000000000000000000000000000000000000000000000000000000000000000000000000000000000000000000000000000000000000000000000000000000000000000000000000000000000000000000000000000000000000000000000000000000000000000000000000000000000000000000000000000000000000000000000000000000000000000000000000000000000000000000000000000000000000000000000000000000000000000000000000000000000000000000080018407270e00830182068203e800a0000000000000000000000000000000000000000000000000000000000000000088000000000000000007f862f860800a830186a094c9dcf4795cfce8d1ed829e290265d27fe80151ef80801ca0d2bdc66959056bd122e6cc449f02206fed53a027bd161ae8962c5b4ed11404a4a05115c35183d55cc4452c741799e9b91e9bcc1083a961d824384334b9a6818c0dc0",
                "blocknumber": "1"
            }
        ],
        "sealEngine": "NoProof",
        "_info": {
            "hash": "0x4f487f8f49875bf9cea89ced912dcfd9b48d42f4a9aa37fdc83041af30ea54e3",
            "fixture-format": "blockchain_test",
            "comment": "`execution-specs` generated test",
            "filling-transition-tool": "2.19.0",
            "description": "Cover gaps that result from transforming Yul code into our Python opcode\nwrapper bytecode.\n\nE.g. Yul tends to optimize stack items by using `SWAP1` and `DUP1` opcodes,\nwhich are not regularly used in python code.\n\nModify this test to cover more Yul code if required in the future.",
            "url": "https://github.com/ethereum/execution-specs/blob/tests-bal@v5.6.0/tests/homestead/coverage/test_coverage.py#L21",
            "metadata": {
                "opcode_count": {}
            }
        }
    }
}