{
    "tests/ported_static/stStaticCall/test_static_call_to_del_call_op_code_check.py::test_static_call_to_del_call_op_code_check[fork_Cancun-blockchain_test_from_state_test]": {
        "network": "Cancun",
        "genesisBlockHeader": {
            "parentHash": "0x0000000000000000000000000000000000000000000000000000000000000000",
            "uncleHash": "0x1dcc4de8dec75d7aab85b567b6ccd41ad312451b948a7413f0a142fd40d49347",
            "coinbase": "0x0000000000000000000000000000000000000000",
            "stateRoot": "0xc6b16eb93af9bf9c3a280baeba1d1a03e009344535ce7154870b85d7534f6630",
            "transactionsTrie": "0x56e81f171bcc55a6ff8345e692c0f86e5b48e01b996cadc001622fb5e363b421",
            "receiptTrie": "0x56e81f171bcc55a6ff8345e692c0f86e5b48e01b996cadc001622fb5e363b421",
            "bloom": "0x00000000000000000000000000000000000000000000000000000000000000000000000000000000000000000000000000000000000000000000000000000000000000000000000000000000000000000000000000000000000000000000000000000000000000000000000000000000000000000000000000000000000000000000000000000000000000000000000000000000000000000000000000000000000000000000000000000000000000000000000000000000000000000000000000000000000000000000000000000000000000000000000000000000000000000000000000000000000000000000000000000000000000000000000000000000",
            "difficulty": "0x00",
            "number": "0x00",
            "gasLimit": "0x989680",
            "gasUsed": "0x00",
            "timestamp": "0x00",
            "extraData": "0x00",
            "mixHash": "0x0000000000000000000000000000000000000000000000000000000000000000",
            "nonce": "0x0000000000000000",
            "baseFeePerGas": "0x0b",
            "withdrawalsRoot": "0x56e81f171bcc55a6ff8345e692c0f86e5b48e01b996cadc001622fb5e363b421",
            "blobGasUsed": "0x00",
            "excessBlobGas": "0x00",
            "parentBeaconBlockRoot": "0x0000000000000000000000000000000000000000000000000000000000000000",
            "hash": "0xcc3456607b5c92d86836092904e63e98f23ee2580054b239765088470de520b0"
        },
        "pre": {
            "0x000f3df6d732807ef1319fb7b8bb8522d0beac02": {
                "nonce": "0x01",
                "balance": "0x00",
                "code": "0x3373fffffffffffffffffffffffffffffffffffffffe14604d57602036146024575f5ffd5b5f35801560495762001fff810690815414603c575f5ffd5b62001fff01545f5260205ff35b5f5ffd5b62001fff42064281555f359062001fff015500",
                "storage": {}
            },
            "0x7ef8271e6cdb0a23220b73bf3e9697e173f9d015": {
                "nonce": "0x00",
                "balance": "0x0de0b6b3a7640000",
                "code": "0x6000600060006000600035620186a0fa60005500",
                "storage": {}
            },
            "0x692bdb71bf492107772d8fb07345faa13b37937b": {
                "nonce": "0x00",
                "balance": "0x0de0b6b3a7640000",
                "code": "0x600060006000600073114ca039127835ca3472ef43e00d15e2d8623286620186a0f46000526000516001146036576001600155603c565b60016001525b00",
                "storage": {}
            },
            "0x114ca039127835ca3472ef43e00d15e2d8623286": {
                "nonce": "0x00",
                "balance": "0x0de0b6b3a7640000",
                "code": "0x3273ebaf50debf10e08302fe4280c32df010463ca2971460225760026001556028565b60016001525b33737ef8271e6cdb0a23220b73bf3e9697e173f9d01514604b5760026001556051565b60016001525b3073692bdb71bf492107772d8fb07345faa13b37937b146074576002600155607a565b60016001525b34600014608a5760026001556090565b60016001525b00",
                "storage": {}
            },
            "0xebaf50debf10e08302fe4280c32df010463ca297": {
                "nonce": "0x00",
                "balance": "0x0de0b6b3a7640000",
                "code": "0x",
                "storage": {}
            }
        },
        "postState": {
            "0x000f3df6d732807ef1319fb7b8bb8522d0beac02": {
                "nonce": "0x01",
                "balance": "0x00",
                "code": "0x3373fffffffffffffffffffffffffffffffffffffffe14604d57602036146024575f5ffd5b5f35801560495762001fff810690815414603c575f5ffd5b62001fff01545f5260205ff35b5f5ffd5b62001fff42064281555f359062001fff015500",
                "storage": {
                    "0x03e8": "0x03e8"
                }
            },
            "0x7ef8271e6cdb0a23220b73bf3e9697e173f9d015": {
                "nonce": "0x00",
                "balance": "0x0de0b6b3a76586a0",
                "code": "0x6000600060006000600035620186a0fa60005500",
                "storage": {
                    "0x00": "0x01"
                }
            },
            "0x692bdb71bf492107772d8fb07345faa13b37937b": {
                "nonce": "0x00",
                "balance": "0x0de0b6b3a7640000",
                "code": "0x600060006000600073114ca039127835ca3472ef43e00d15e2d8623286620186a0f46000526000516001146036576001600155603c565b60016001525b00",
                "storage": {}
            },
            "0x114ca039127835ca3472ef43e00d15e2d8623286": {
                "nonce": "0x00",
                "balance": "0x0de0b6b3a7640000",
                "code": "0x3273ebaf50debf10e08302fe4280c32df010463ca2971460225760026001556028565b60016001525b33737ef8271e6cdb0a23220b73bf3e9697e173f9d01514604b5760026001556051565b60016001525b3073692bdb71bf492107772d8fb07345faa13b37937b146074576002600155607a565b60016001525b34600014608a5760026001556090565b60016001525b00",
                "storage": {}
            },
            "0xebaf50debf10e08302fe4280c32df010463ca297": {
                "nonce": "0x01",
                "balance": "0x0de0b6b3a75b0388",
                "code": "0x",
                "storage": {}
            }
        },
        "lastblockhash": "0xb965a2b86285b85e73bcc88b2866ef751825b89d34ed377cbea10d2468ffe520",
        "config": {
            "network": "Cancun",
            "chainid": "0x01",
            "blobSchedule": {
                "Cancun": {
                    "target": "0x03",
                    "max": "0x06",
                    "baseFeeUpdateFraction": "0x32f0ed"
                }
            }
        },
        "genesisRLP": "0xf9023bf90235a00000000000000000000000000000000000000000000000000000000000000000a01dcc4de8dec75d7aab85b567b6ccd41ad312451b948a7413f0a142fd40d49347940000000000000000000000000000000000000000a0c6b16eb93af9bf9c3a280baeba1d1a03e009344535ce7154870b85d7534f6630a056e81f171bcc55a6ff8345e692c0f86e5b48e01b996cadc001622fb5e363b421a056e81f171bcc55a6ff8345e692c0f86e5b48e01b996cadc001622fb5e363b421b9010000000000000000000000000000000000000000000000000000000000000000000000000000000000000000000000000000000000000000000000000000000000000000000000000000000000000000000000000000000000000000000000000000000000000000000000000000000000000000000000000000000000000000000000000000000000000000000000000000000000000000000000000000000000000000000000000000000000000000000000000000000000000000000000000000000000000000000000000000000000000000000000000000000000000000000000000000000000000000000000000000000000000000000000000000000000808083989680808000a000000000000000000000000000000000000000000000000000000000000000008800000000000000000ba056e81f171bcc55a6ff8345e692c0f86e5b48e01b996cadc001622fb5e363b4218080a00000000000000000000000000000000000000000000000000000000000000000c0c0c0",
        "blocks": [
            {
                "blockHeader": {
                    "parentHash": "0xcc3456607b5c92d86836092904e63e98f23ee2580054b239765088470de520b0",
                    "uncleHash": "0x1dcc4de8dec75d7aab85b567b6ccd41ad312451b948a7413f0a142fd40d49347",
                    "coinbase": "0x2adc25665018aa1fe0e6bc666dac8fc2697ff9ba",
                    "stateRoot": "0x9c29762f088928e61e7a16b631471065307b49fe0bc6571f2f3f27047d9d26e9",
                    "transactionsTrie": "0x1204a2721303b8fdfc14915571575db930f93595c4b1eef4267adbf44bc68b4c",
                    "receiptTrie": "0xc4b3c72c2a44d7e72cfbe1e42805017dd55c9a05a78954cc37c8e5a18b2573d9",
                    "bloom": "0x00000000000000000000000000000000000000000000000000000000000000000000000000000000000000000000000000000000000000000000000000000000000000000000000000000000000000000000000000000000000000000000000000000000000000000000000000000000000000000000000000000000000000000000000000000000000000000000000000000000000000000000000000000000000000000000000000000000000000000000000000000000000000000000000000000000000000000000000000000000000000000000000000000000000000000000000000000000000000000000000000000000000000000000000000000000",
                    "difficulty": "0x00",
                    "number": "0x01",
                    "gasLimit": "0x989680",
                    "gasUsed": "0xbefc",
                    "timestamp": "0x03e8",
                    "extraData": "0x00",
                    "mixHash": "0x0000000000000000000000000000000000000000000000000000000000020000",
                    "nonce": "0x0000000000000000",
                    "baseFeePerGas": "0x0a",
                    "withdrawalsRoot": "0x56e81f171bcc55a6ff8345e692c0f86e5b48e01b996cadc001622fb5e363b421",
                    "blobGasUsed": "0x00",
                    "excessBlobGas": "0x00",
                    "parentBeaconBlockRoot": "0x0000000000000000000000000000000000000000000000000000000000000000",
                    "hash": "0xb965a2b86285b85e73bcc88b2866ef751825b89d34ed377cbea10d2468ffe520"
                },
                "transactions": [
                    {
                        "type": "0x00",
                        "chainId": "0x01",
                        "nonce": "0x00",
                        "gasPrice": "0x0a",
                        "gasLimit": "0x0f4240",
                        "to": "0x7ef8271e6cdb0a23220b73bf3e9697e173f9d015",
                        "value": "0x0186a0",
                        "data": "0x000000000000000000000000692bdb71bf492107772d8fb07345faa13b37937b",
                        "v": "0x25",
                        "r": "0x566a6fa092446b3161cda648a3ff5e7cdc2d294f19a9a3ed3d6cbc6eb536333e",
                        "s": "0x62dacfd09a423c14fe64335127d94c0b7aa5c61472db0d194b55777af5203d8f",
                        "sender": "0xebaf50debf10e08302fe4280c32df010463ca297"
                    }
                ],
                "uncleHeaders": [],
                "withdrawals": [],
                "receipts": [
                    {
                        "transactionHash": "0x26af50ea058ccb7468386a61b5549e7a6e40e0a1013871570f86fb880f63c670",
                        "type": "0x00",
                        "cumulativeGasUsed": "0xbefc",
                        "bloom": "0x00000000000000000000000000000000000000000000000000000000000000000000000000000000000000000000000000000000000000000000000000000000000000000000000000000000000000000000000000000000000000000000000000000000000000000000000000000000000000000000000000000000000000000000000000000000000000000000000000000000000000000000000000000000000000000000000000000000000000000000000000000000000000000000000000000000000000000000000000000000000000000000000000000000000000000000000000000000000000000000000000000000000000000000000000000000",
                        "logs": [],
                        "status": true,
                        "rlp": "0xf901080182befcb9010000000000000000000000000000000000000000000000000000000000000000000000000000000000000000000000000000000000000000000000000000000000000000000000000000000000000000000000000000000000000000000000000000000000000000000000000000000000000000000000000000000000000000000000000000000000000000000000000000000000000000000000000000000000000000000000000000000000000000000000000000000000000000000000000000000000000000000000000000000000000000000000000000000000000000000000000000000000000000000000000000000000000000000000000000000000c0"
                    }
                ],
                "rlp": "0xf902c5f90239a0cc3456607b5c92d86836092904e63e98f23ee2580054b239765088470de520b0a01dcc4de8dec75d7aab85b567b6ccd41ad312451b948a7413f0a142fd40d49347942adc25665018aa1fe0e6bc666dac8fc2697ff9baa09c29762f088928e61e7a16b631471065307b49fe0bc6571f2f3f27047d9d26e9a01204a2721303b8fdfc14915571575db930f93595c4b1eef4267adbf44bc68b4ca0c4b3c72c2a44d7e72cfbe1e42805017dd55c9a05a78954cc37c8e5a18b2573d9b901000000000000000000000000000000000000000000000000000000000000000000000000000000000000000000000000000000000000000000000000000000000000000000000000000000000000000000000000000000000000000000000000000000000000000000000000000000000000000000000000000000000000000000000000000000000000000000000000000000000000000000000000000000000000000000000000000000000000000000000000000000000000000000000000000000000000000000000000000000000000000000000000000000000000000000000000000000000000000000000000000000000000000000000000000000000080018398968082befc8203e800a000000000000000000000000000000000000000000000000000000000000200008800000000000000000aa056e81f171bcc55a6ff8345e692c0f86e5b48e01b996cadc001622fb5e363b4218080a00000000000000000000000000000000000000000000000000000000000000000f885f883800a830f4240947ef8271e6cdb0a23220b73bf3e9697e173f9d015830186a0a0000000000000000000000000692bdb71bf492107772d8fb07345faa13b37937b25a0566a6fa092446b3161cda648a3ff5e7cdc2d294f19a9a3ed3d6cbc6eb536333ea062dacfd09a423c14fe64335127d94c0b7aa5c61472db0d194b55777af5203d8fc0c0",
                "blocknumber": "1"
            }
        ],
        "sealEngine": "NoProof",
        "_info": {
            "hash": "0x3bc270f495534035aca0b00e255f00359f0f7862421986df180fe8940fd1723c",
            "fixture-format": "blockchain_test",
            "comment": "`execution-specs` generated test",
            "filling-transition-tool": "2.19.0",
            "description": "Test_static_call_to_del_call_op_code_check.",
            "url": "https://github.com/ethereum/execution-specs/blob/tests-sn\u00f8bal-devnet-4@v1.0.0/tests/ported_static/stStaticCall/test_static_call_to_del_call_op_code_check.py#L25",
            "metadata": {
                "opcode_count": {}
            }
        }
    }
}