{
    "tests/osaka/eip7883_modexp_gas_increase/test_modexp_thresholds.py::test_contract_initcode[fork_Shanghai-blockchain_test_from_state_test-opcode_CREATE-valid_input]": {
        "network": "Shanghai",
        "genesisBlockHeader": {
            "parentHash": "0x0000000000000000000000000000000000000000000000000000000000000000",
            "uncleHash": "0x1dcc4de8dec75d7aab85b567b6ccd41ad312451b948a7413f0a142fd40d49347",
            "coinbase": "0x0000000000000000000000000000000000000000",
            "stateRoot": "0xdd13817d22dc275f5a7e76d12548ecd778799a33f9115c0fc9bf685b2f144aea",
            "transactionsTrie": "0x56e81f171bcc55a6ff8345e692c0f86e5b48e01b996cadc001622fb5e363b421",
            "receiptTrie": "0x56e81f171bcc55a6ff8345e692c0f86e5b48e01b996cadc001622fb5e363b421",
            "bloom": "0x00000000000000000000000000000000000000000000000000000000000000000000000000000000000000000000000000000000000000000000000000000000000000000000000000000000000000000000000000000000000000000000000000000000000000000000000000000000000000000000000000000000000000000000000000000000000000000000000000000000000000000000000000000000000000000000000000000000000000000000000000000000000000000000000000000000000000000000000000000000000000000000000000000000000000000000000000000000000000000000000000000000000000000000000000000000",
            "difficulty": "0x00",
            "number": "0x00",
            "gasLimit": "0x07270e00",
            "gasUsed": "0x00",
            "timestamp": "0x00",
            "extraData": "0x00",
            "mixHash": "0x0000000000000000000000000000000000000000000000000000000000000000",
            "nonce": "0x0000000000000000",
            "baseFeePerGas": "0x07",
            "withdrawalsRoot": "0x56e81f171bcc55a6ff8345e692c0f86e5b48e01b996cadc001622fb5e363b421",
            "hash": "0x8ebe12a37d61729fdf5325d791cdaf42265165bb3ee6c2a8dfeaeab2f0afd211"
        },
        "pre": {
            "0xdec6233551179d0ae1449879f4f6de9e6cabeb29": {
                "nonce": "0x01",
                "balance": "0x00",
                "code": "0x3660006000375a600060003660006000600560c8f15a906000553d60015561007a0190036002553d600060003e3d600020600355",
                "storage": {}
            },
            "0x1ad9bc24818784172ff393bb6f89f094d4d2ca29": {
                "nonce": "0x00",
                "balance": "0x3635c9adc5dea00000",
                "code": "0x",
                "storage": {}
            },
            "0xdd616a20f3b01fc95e6b1701d8a07331d06dd897": {
                "nonce": "0x00",
                "balance": "0x3635c9adc5dea00000",
                "code": "0x",
                "storage": {}
            },
            "0xc2cc0d84d84c8bac22aea551b44eb1df73eff88b": {
                "nonce": "0x01",
                "balance": "0x00",
                "code": "0x60de600060003760de60006000f000",
                "storage": {}
            }
        },
        "postState": {
            "0xdec6233551179d0ae1449879f4f6de9e6cabeb29": {
                "nonce": "0x01",
                "balance": "0x00",
                "code": "0x3660006000375a600060003660006000600560c8f15a906000553d60015561007a0190036002553d600060003e3d600020600355",
                "storage": {}
            },
            "0x1ad9bc24818784172ff393bb6f89f094d4d2ca29": {
                "nonce": "0x00",
                "balance": "0x3635c9adc5dea00000",
                "code": "0x",
                "storage": {}
            },
            "0xdd616a20f3b01fc95e6b1701d8a07331d06dd897": {
                "nonce": "0x01",
                "balance": "0x3635c9adc5de8d5ce8",
                "code": "0x",
                "storage": {}
            },
            "0xc2cc0d84d84c8bac22aea551b44eb1df73eff88b": {
                "nonce": "0x02",
                "balance": "0x00",
                "code": "0x60de600060003760de60006000f000",
                "storage": {}
            },
            "0x2499d387c0c484bf124c0758f376802bb8dbe365": {
                "nonce": "0x01",
                "balance": "0x00",
                "code": "0x",
                "storage": {
                    "0x00": "0x01",
                    "0x01": "0x7f8a6c56dfa7eb36c5813257a65db0d4503a9c3b69afc9247d97efb4af16ac18",
                    "0x02": "0x28"
                }
            },
            "0x2adc25665018aa1fe0e6bc666dac8fc2697ff9ba": {
                "nonce": "0x00",
                "balance": "0x059754",
                "code": "0x",
                "storage": {}
            }
        },
        "lastblockhash": "0x7ac021eb817ab030f7ee4bcccf6cfb203520c92f477d0f2a56b88582fd2094cf",
        "config": {
            "network": "Shanghai",
            "chainid": "0x01"
        },
        "genesisRLP": "0xf90219f90213a00000000000000000000000000000000000000000000000000000000000000000a01dcc4de8dec75d7aab85b567b6ccd41ad312451b948a7413f0a142fd40d49347940000000000000000000000000000000000000000a0dd13817d22dc275f5a7e76d12548ecd778799a33f9115c0fc9bf685b2f144aeaa056e81f171bcc55a6ff8345e692c0f86e5b48e01b996cadc001622fb5e363b421a056e81f171bcc55a6ff8345e692c0f86e5b48e01b996cadc001622fb5e363b421b901000000000000000000000000000000000000000000000000000000000000000000000000000000000000000000000000000000000000000000000000000000000000000000000000000000000000000000000000000000000000000000000000000000000000000000000000000000000000000000000000000000000000000000000000000000000000000000000000000000000000000000000000000000000000000000000000000000000000000000000000000000000000000000000000000000000000000000000000000000000000000000000000000000000000000000000000000000000000000000000000000000000000000000000000000000000080808407270e00808000a0000000000000000000000000000000000000000000000000000000000000000088000000000000000007a056e81f171bcc55a6ff8345e692c0f86e5b48e01b996cadc001622fb5e363b421c0c0c0",
        "blocks": [
            {
                "blockHeader": {
                    "parentHash": "0x8ebe12a37d61729fdf5325d791cdaf42265165bb3ee6c2a8dfeaeab2f0afd211",
                    "uncleHash": "0x1dcc4de8dec75d7aab85b567b6ccd41ad312451b948a7413f0a142fd40d49347",
                    "coinbase": "0x2adc25665018aa1fe0e6bc666dac8fc2697ff9ba",
                    "stateRoot": "0x6ec330ace9c3f224be7ae1bfb5501464cd28e6919878ae3ae1350baa5430a37d",
                    "transactionsTrie": "0xa42e6cfcc23b00144b1ada5baebcf8e3bc18e2267994eef51424f44db80d09f8",
                    "receiptTrie": "0x99a7041a7524f30849e8658d8faaebba78e707b390b6d29f1efc1fa3a1887301",
                    "bloom": "0x00000000000000000000000000000000000000000000000000000000000000000000000000000000000000000000000000000000000000000000000000000000000000000000000000000000000000000000000000000000000000000000000000000000000000000000000000000000000000000000000000000000000000000000000000000000000000000000000000000000000000000000000000000000000000000000000000000000000000000000000000000000000000000000000000000000000000000000000000000000000000000000000000000000000000000000000000000000000000000000000000000000000000000000000000000000",
                    "difficulty": "0x00",
                    "number": "0x01",
                    "gasLimit": "0x07270e00",
                    "gasUsed": "0x01dd1c",
                    "timestamp": "0x03e8",
                    "extraData": "0x00",
                    "mixHash": "0x0000000000000000000000000000000000000000000000000000000000000000",
                    "nonce": "0x0000000000000000",
                    "baseFeePerGas": "0x07",
                    "withdrawalsRoot": "0x56e81f171bcc55a6ff8345e692c0f86e5b48e01b996cadc001622fb5e363b421",
                    "hash": "0x7ac021eb817ab030f7ee4bcccf6cfb203520c92f477d0f2a56b88582fd2094cf"
                },
                "transactions": [
                    {
                        "type": "0x00",
                        "chainId": "0x01",
                        "nonce": "0x00",
                        "gasPrice": "0x0a",
                        "gasLimit": "0x0f4240",
                        "to": "0xc2cc0d84d84c8bac22aea551b44eb1df73eff88b",
                        "value": "0x00",
                        "data": "0x60b460b438036000396028600060b460006000600562030d40f1806000553d6000206001553d60025500000000000000000000000000000000000000000000000000000000000000002800000000000000000000000000000000000000000000000000000000000000040000000000000000000000000000000000000000000000000000000000000028e8e77626586f73b955364c7b4bbf0bb7f7685ebd40e852b164633a4acbd3244c000102030405060701fffffff01681d2220bfea4bb888a5543db8c0916274ddb1ea93b144c042c01d8164c950001020304050607",
                        "v": "0x26",
                        "r": "0xac91fc685440abdc9fc2df16c1a1715ce631f74cc82cab9013c9345337fd6334",
                        "s": "0x23f5b567f37ec911ccef03b0bdfd9525e28496ef081e5607d66657ef2fc996a6",
                        "sender": "0xdd616a20f3b01fc95e6b1701d8a07331d06dd897"
                    }
                ],
                "uncleHeaders": [],
                "withdrawals": [],
                "receipts": [
                    {
                        "transactionHash": "0x9751081b5fff665a029035c62c768dfa354f0af7b665aebaa71017263daabcf9",
                        "type": "0x00",
                        "cumulativeGasUsed": "0x01dd1c",
                        "bloom": "0x00000000000000000000000000000000000000000000000000000000000000000000000000000000000000000000000000000000000000000000000000000000000000000000000000000000000000000000000000000000000000000000000000000000000000000000000000000000000000000000000000000000000000000000000000000000000000000000000000000000000000000000000000000000000000000000000000000000000000000000000000000000000000000000000000000000000000000000000000000000000000000000000000000000000000000000000000000000000000000000000000000000000000000000000000000000",
                        "logs": [],
                        "status": true,
                        "rlp": "0xf90109018301dd1cb9010000000000000000000000000000000000000000000000000000000000000000000000000000000000000000000000000000000000000000000000000000000000000000000000000000000000000000000000000000000000000000000000000000000000000000000000000000000000000000000000000000000000000000000000000000000000000000000000000000000000000000000000000000000000000000000000000000000000000000000000000000000000000000000000000000000000000000000000000000000000000000000000000000000000000000000000000000000000000000000000000000000000000000000000000000000000c0"
                    }
                ],
                "rlp": "0xf90362f90218a08ebe12a37d61729fdf5325d791cdaf42265165bb3ee6c2a8dfeaeab2f0afd211a01dcc4de8dec75d7aab85b567b6ccd41ad312451b948a7413f0a142fd40d49347942adc25665018aa1fe0e6bc666dac8fc2697ff9baa06ec330ace9c3f224be7ae1bfb5501464cd28e6919878ae3ae1350baa5430a37da0a42e6cfcc23b00144b1ada5baebcf8e3bc18e2267994eef51424f44db80d09f8a099a7041a7524f30849e8658d8faaebba78e707b390b6d29f1efc1fa3a1887301b901000000000000000000000000000000000000000000000000000000000000000000000000000000000000000000000000000000000000000000000000000000000000000000000000000000000000000000000000000000000000000000000000000000000000000000000000000000000000000000000000000000000000000000000000000000000000000000000000000000000000000000000000000000000000000000000000000000000000000000000000000000000000000000000000000000000000000000000000000000000000000000000000000000000000000000000000000000000000000000000000000000000000000000000000000000000080018407270e008301dd1c8203e800a0000000000000000000000000000000000000000000000000000000000000000088000000000000000007a056e81f171bcc55a6ff8345e692c0f86e5b48e01b996cadc001622fb5e363b421f90142f9013f800a830f424094c2cc0d84d84c8bac22aea551b44eb1df73eff88b80b8de60b460b438036000396028600060b460006000600562030d40f1806000553d6000206001553d60025500000000000000000000000000000000000000000000000000000000000000002800000000000000000000000000000000000000000000000000000000000000040000000000000000000000000000000000000000000000000000000000000028e8e77626586f73b955364c7b4bbf0bb7f7685ebd40e852b164633a4acbd3244c000102030405060701fffffff01681d2220bfea4bb888a5543db8c0916274ddb1ea93b144c042c01d8164c95000102030405060726a0ac91fc685440abdc9fc2df16c1a1715ce631f74cc82cab9013c9345337fd6334a023f5b567f37ec911ccef03b0bdfd9525e28496ef081e5607d66657ef2fc996a6c0c0",
                "blocknumber": "1"
            }
        ],
        "sealEngine": "NoProof",
        "_info": {
            "hash": "0xccf6ffa0e56ca61ab6d85f42c025a58aff511eb75492c6f92e2ad039fa0efcda",
            "fixture-format": "blockchain_test",
            "comment": "`execution-specs` generated test",
            "filling-transition-tool": "2.19.0",
            "description": "Test ModExp behavior from contract creation.",
            "url": "https://github.com/ethereum/execution-specs/blob/tests-bal@v5.5.1/tests/osaka/eip7883_modexp_gas_increase/test_modexp_thresholds.py#L400",
            "opcode_count": {},
            "reference-spec": "https://github.com/ethereum/EIPs/blob/master/EIPS/eip-7883.md",
            "reference-spec-version": "13aa65810336d4f243d4563a828d5afe36035d23"
        }
    },
    "tests/osaka/eip7883_modexp_gas_increase/test_modexp_thresholds.py::test_contract_initcode[fork_Shanghai-blockchain_test_from_state_test-opcode_CREATE2-valid_input]": {
        "network": "Shanghai",
        "genesisBlockHeader": {
            "parentHash": "0x0000000000000000000000000000000000000000000000000000000000000000",
            "uncleHash": "0x1dcc4de8dec75d7aab85b567b6ccd41ad312451b948a7413f0a142fd40d49347",
            "coinbase": "0x0000000000000000000000000000000000000000",
            "stateRoot": "0x9863fb9c6868fb4a16b4a6e14906373342d38102e177a54e386b8bb0cb7add19",
            "transactionsTrie": "0x56e81f171bcc55a6ff8345e692c0f86e5b48e01b996cadc001622fb5e363b421",
            "receiptTrie": "0x56e81f171bcc55a6ff8345e692c0f86e5b48e01b996cadc001622fb5e363b421",
            "bloom": "0x00000000000000000000000000000000000000000000000000000000000000000000000000000000000000000000000000000000000000000000000000000000000000000000000000000000000000000000000000000000000000000000000000000000000000000000000000000000000000000000000000000000000000000000000000000000000000000000000000000000000000000000000000000000000000000000000000000000000000000000000000000000000000000000000000000000000000000000000000000000000000000000000000000000000000000000000000000000000000000000000000000000000000000000000000000000",
            "difficulty": "0x00",
            "number": "0x00",
            "gasLimit": "0x07270e00",
            "gasUsed": "0x00",
            "timestamp": "0x00",
            "extraData": "0x00",
            "mixHash": "0x0000000000000000000000000000000000000000000000000000000000000000",
            "nonce": "0x0000000000000000",
            "baseFeePerGas": "0x07",
            "withdrawalsRoot": "0x56e81f171bcc55a6ff8345e692c0f86e5b48e01b996cadc001622fb5e363b421",
            "hash": "0x17345a17c5b2efbf005f88c5aad3b75696e747a4513395aa96fc1cf633c1fc33"
        },
        "pre": {
            "0xdec6233551179d0ae1449879f4f6de9e6cabeb29": {
                "nonce": "0x01",
                "balance": "0x00",
                "code": "0x3660006000375a600060003660006000600560c8f15a906000553d60015561007a0190036002553d600060003e3d600020600355",
                "storage": {}
            },
            "0x1ad9bc24818784172ff393bb6f89f094d4d2ca29": {
                "nonce": "0x00",
                "balance": "0x3635c9adc5dea00000",
                "code": "0x",
                "storage": {}
            },
            "0xdd616a20f3b01fc95e6b1701d8a07331d06dd897": {
                "nonce": "0x00",
                "balance": "0x3635c9adc5dea00000",
                "code": "0x",
                "storage": {}
            },
            "0x3ed8cb4c6fc99d0ef69f7234956259080a320db3": {
                "nonce": "0x01",
                "balance": "0x00",
                "code": "0x60de6000600037600060de60006000f500",
                "storage": {}
            }
        },
        "postState": {
            "0xdec6233551179d0ae1449879f4f6de9e6cabeb29": {
                "nonce": "0x01",
                "balance": "0x00",
                "code": "0x3660006000375a600060003660006000600560c8f15a906000553d60015561007a0190036002553d600060003e3d600020600355",
                "storage": {}
            },
            "0x1ad9bc24818784172ff393bb6f89f094d4d2ca29": {
                "nonce": "0x00",
                "balance": "0x3635c9adc5dea00000",
                "code": "0x",
                "storage": {}
            },
            "0xdd616a20f3b01fc95e6b1701d8a07331d06dd897": {
                "nonce": "0x01",
                "balance": "0x3635c9adc5de8d5b26",
                "code": "0x",
                "storage": {}
            },
            "0x3ed8cb4c6fc99d0ef69f7234956259080a320db3": {
                "nonce": "0x02",
                "balance": "0x00",
                "code": "0x60de6000600037600060de60006000f500",
                "storage": {}
            },
            "0xc564620f51132ed4a361f4dd9be588f6ba329936": {
                "nonce": "0x01",
                "balance": "0x00",
                "code": "0x",
                "storage": {
                    "0x00": "0x01",
                    "0x01": "0x7f8a6c56dfa7eb36c5813257a65db0d4503a9c3b69afc9247d97efb4af16ac18",
                    "0x02": "0x28"
                }
            },
            "0x2adc25665018aa1fe0e6bc666dac8fc2697ff9ba": {
                "nonce": "0x00",
                "balance": "0x0597db",
                "code": "0x",
                "storage": {}
            }
        },
        "lastblockhash": "0x33459f6cf027cb0386fa7ddae2ac4892eb1782ec6b831c07fb28f4e4d7a55859",
        "config": {
            "network": "Shanghai",
            "chainid": "0x01"
        },
        "genesisRLP": "0xf90219f90213a00000000000000000000000000000000000000000000000000000000000000000a01dcc4de8dec75d7aab85b567b6ccd41ad312451b948a7413f0a142fd40d49347940000000000000000000000000000000000000000a09863fb9c6868fb4a16b4a6e14906373342d38102e177a54e386b8bb0cb7add19a056e81f171bcc55a6ff8345e692c0f86e5b48e01b996cadc001622fb5e363b421a056e81f171bcc55a6ff8345e692c0f86e5b48e01b996cadc001622fb5e363b421b901000000000000000000000000000000000000000000000000000000000000000000000000000000000000000000000000000000000000000000000000000000000000000000000000000000000000000000000000000000000000000000000000000000000000000000000000000000000000000000000000000000000000000000000000000000000000000000000000000000000000000000000000000000000000000000000000000000000000000000000000000000000000000000000000000000000000000000000000000000000000000000000000000000000000000000000000000000000000000000000000000000000000000000000000000000000080808407270e00808000a0000000000000000000000000000000000000000000000000000000000000000088000000000000000007a056e81f171bcc55a6ff8345e692c0f86e5b48e01b996cadc001622fb5e363b421c0c0c0",
        "blocks": [
            {
                "blockHeader": {
                    "parentHash": "0x17345a17c5b2efbf005f88c5aad3b75696e747a4513395aa96fc1cf633c1fc33",
                    "uncleHash": "0x1dcc4de8dec75d7aab85b567b6ccd41ad312451b948a7413f0a142fd40d49347",
                    "coinbase": "0x2adc25665018aa1fe0e6bc666dac8fc2697ff9ba",
                    "stateRoot": "0xaf0dba9414ba254a562abb14c7d717b60deffec87a2e39b9706f82702fda1d6d",
                    "transactionsTrie": "0xfe8b00e7e1d6cbb70c336bfe27265588afb7805eb426492c31307f001d60e70a",
                    "receiptTrie": "0xfb2a39c8cc716004daa0a15012a8eac01b5d47d1f119dbac99fcc31e691d8311",
                    "bloom": "0x00000000000000000000000000000000000000000000000000000000000000000000000000000000000000000000000000000000000000000000000000000000000000000000000000000000000000000000000000000000000000000000000000000000000000000000000000000000000000000000000000000000000000000000000000000000000000000000000000000000000000000000000000000000000000000000000000000000000000000000000000000000000000000000000000000000000000000000000000000000000000000000000000000000000000000000000000000000000000000000000000000000000000000000000000000000",
                    "difficulty": "0x00",
                    "number": "0x01",
                    "gasLimit": "0x07270e00",
                    "gasUsed": "0x01dd49",
                    "timestamp": "0x03e8",
                    "extraData": "0x00",
                    "mixHash": "0x0000000000000000000000000000000000000000000000000000000000000000",
                    "nonce": "0x0000000000000000",
                    "baseFeePerGas": "0x07",
                    "withdrawalsRoot": "0x56e81f171bcc55a6ff8345e692c0f86e5b48e01b996cadc001622fb5e363b421",
                    "hash": "0x33459f6cf027cb0386fa7ddae2ac4892eb1782ec6b831c07fb28f4e4d7a55859"
                },
                "transactions": [
                    {
                        "type": "0x00",
                        "chainId": "0x01",
                        "nonce": "0x00",
                        "gasPrice": "0x0a",
                        "gasLimit": "0x0f4240",
                        "to": "0x3ed8cb4c6fc99d0ef69f7234956259080a320db3",
                        "value": "0x00",
                        "data": "0x60b460b438036000396028600060b460006000600562030d40f1806000553d6000206001553d60025500000000000000000000000000000000000000000000000000000000000000002800000000000000000000000000000000000000000000000000000000000000040000000000000000000000000000000000000000000000000000000000000028e8e77626586f73b955364c7b4bbf0bb7f7685ebd40e852b164633a4acbd3244c000102030405060701fffffff01681d2220bfea4bb888a5543db8c0916274ddb1ea93b144c042c01d8164c950001020304050607",
                        "v": "0x25",
                        "r": "0xdb94e7d456f4036fb43d8206cf3bf952685556a86f24ce047a8965f26ee50e2f",
                        "s": "0x78fcdb1e2784e24e7f08c05457bc1c5087273b99d553acdd10d4ef115740f7d5",
                        "sender": "0xdd616a20f3b01fc95e6b1701d8a07331d06dd897"
                    }
                ],
                "uncleHeaders": [],
                "withdrawals": [],
                "receipts": [
                    {
                        "transactionHash": "0x7bed1f19955284c735830fb38b587c2a3ba2a404df43ed775944ad0621bcec8a",
                        "type": "0x00",
                        "cumulativeGasUsed": "0x01dd49",
                        "bloom": "0x00000000000000000000000000000000000000000000000000000000000000000000000000000000000000000000000000000000000000000000000000000000000000000000000000000000000000000000000000000000000000000000000000000000000000000000000000000000000000000000000000000000000000000000000000000000000000000000000000000000000000000000000000000000000000000000000000000000000000000000000000000000000000000000000000000000000000000000000000000000000000000000000000000000000000000000000000000000000000000000000000000000000000000000000000000000",
                        "logs": [],
                        "status": true,
                        "rlp": "0xf90109018301dd49b9010000000000000000000000000000000000000000000000000000000000000000000000000000000000000000000000000000000000000000000000000000000000000000000000000000000000000000000000000000000000000000000000000000000000000000000000000000000000000000000000000000000000000000000000000000000000000000000000000000000000000000000000000000000000000000000000000000000000000000000000000000000000000000000000000000000000000000000000000000000000000000000000000000000000000000000000000000000000000000000000000000000000000000000000000000000000c0"
                    }
                ],
                "rlp": "0xf90362f90218a017345a17c5b2efbf005f88c5aad3b75696e747a4513395aa96fc1cf633c1fc33a01dcc4de8dec75d7aab85b567b6ccd41ad312451b948a7413f0a142fd40d49347942adc25665018aa1fe0e6bc666dac8fc2697ff9baa0af0dba9414ba254a562abb14c7d717b60deffec87a2e39b9706f82702fda1d6da0fe8b00e7e1d6cbb70c336bfe27265588afb7805eb426492c31307f001d60e70aa0fb2a39c8cc716004daa0a15012a8eac01b5d47d1f119dbac99fcc31e691d8311b901000000000000000000000000000000000000000000000000000000000000000000000000000000000000000000000000000000000000000000000000000000000000000000000000000000000000000000000000000000000000000000000000000000000000000000000000000000000000000000000000000000000000000000000000000000000000000000000000000000000000000000000000000000000000000000000000000000000000000000000000000000000000000000000000000000000000000000000000000000000000000000000000000000000000000000000000000000000000000000000000000000000000000000000000000000000080018407270e008301dd498203e800a0000000000000000000000000000000000000000000000000000000000000000088000000000000000007a056e81f171bcc55a6ff8345e692c0f86e5b48e01b996cadc001622fb5e363b421f90142f9013f800a830f4240943ed8cb4c6fc99d0ef69f7234956259080a320db380b8de60b460b438036000396028600060b460006000600562030d40f1806000553d6000206001553d60025500000000000000000000000000000000000000000000000000000000000000002800000000000000000000000000000000000000000000000000000000000000040000000000000000000000000000000000000000000000000000000000000028e8e77626586f73b955364c7b4bbf0bb7f7685ebd40e852b164633a4acbd3244c000102030405060701fffffff01681d2220bfea4bb888a5543db8c0916274ddb1ea93b144c042c01d8164c95000102030405060725a0db94e7d456f4036fb43d8206cf3bf952685556a86f24ce047a8965f26ee50e2fa078fcdb1e2784e24e7f08c05457bc1c5087273b99d553acdd10d4ef115740f7d5c0c0",
                "blocknumber": "1"
            }
        ],
        "sealEngine": "NoProof",
        "_info": {
            "hash": "0x2e5cdbea748e8c94270c8f4aed66f6c85504ef9e0ffc2e79950b8e54ac47ca23",
            "fixture-format": "blockchain_test",
            "comment": "`execution-specs` generated test",
            "filling-transition-tool": "2.19.0",
            "description": "Test ModExp behavior from contract creation.",
            "url": "https://github.com/ethereum/execution-specs/blob/tests-bal@v5.5.1/tests/osaka/eip7883_modexp_gas_increase/test_modexp_thresholds.py#L400",
            "opcode_count": {},
            "reference-spec": "https://github.com/ethereum/EIPs/blob/master/EIPS/eip-7883.md",
            "reference-spec-version": "13aa65810336d4f243d4563a828d5afe36035d23"
        }
    }
}