{
    "tests/shanghai/eip4895_withdrawals/test_withdrawals.py::test_zero_amount[fork_Shanghai-blockchain_test-four_withdrawals_one_with_value_one_with_max]": {
        "network": "Shanghai",
        "genesisBlockHeader": {
            "parentHash": "0x0000000000000000000000000000000000000000000000000000000000000000",
            "uncleHash": "0x1dcc4de8dec75d7aab85b567b6ccd41ad312451b948a7413f0a142fd40d49347",
            "coinbase": "0x0000000000000000000000000000000000000000",
            "stateRoot": "0x40bd8792f43f5f18572cf42c4c66b16ec65dba371f72c37041e1dfe1e81a07af",
            "transactionsTrie": "0x56e81f171bcc55a6ff8345e692c0f86e5b48e01b996cadc001622fb5e363b421",
            "receiptTrie": "0x56e81f171bcc55a6ff8345e692c0f86e5b48e01b996cadc001622fb5e363b421",
            "bloom": "0x00000000000000000000000000000000000000000000000000000000000000000000000000000000000000000000000000000000000000000000000000000000000000000000000000000000000000000000000000000000000000000000000000000000000000000000000000000000000000000000000000000000000000000000000000000000000000000000000000000000000000000000000000000000000000000000000000000000000000000000000000000000000000000000000000000000000000000000000000000000000000000000000000000000000000000000000000000000000000000000000000000000000000000000000000000000",
            "difficulty": "0x00",
            "number": "0x00",
            "gasLimit": "0x07270e00",
            "gasUsed": "0x00",
            "timestamp": "0x00",
            "extraData": "0x00",
            "mixHash": "0x0000000000000000000000000000000000000000000000000000000000000000",
            "nonce": "0x0000000000000000",
            "baseFeePerGas": "0x07",
            "withdrawalsRoot": "0x56e81f171bcc55a6ff8345e692c0f86e5b48e01b996cadc001622fb5e363b421",
            "hash": "0x0ffd97a3a2a1994620f54333c86bca6aac35c3702146a6b274bb5599ce542b7d"
        },
        "pre": {
            "0x37f536464af59c8d7358cae965f92cbeadd58dcb": {
                "nonce": "0x01",
                "balance": "0x00",
                "code": "0x00",
                "storage": {}
            }
        },
        "postState": {
            "0x37f536464af59c8d7358cae965f92cbeadd58dcb": {
                "nonce": "0x01",
                "balance": "0x00",
                "code": "0x00",
                "storage": {}
            },
            "0x95d1be958d22adf294428c13cc71d89ff320bfd3": {
                "nonce": "0x00",
                "balance": "0x3b9aca00",
                "code": "0x",
                "storage": {}
            },
            "0x621bccc1be164ceafcc132dd24bd847f2cd8992c": {
                "nonce": "0x00",
                "balance": "0x3b9ac9ffffffffffc4653600",
                "code": "0x",
                "storage": {}
            }
        },
        "lastblockhash": "0x17830875bb5b7b651fad83b37b25c0d8ac449aa96a7d5429b74d83d80cce00ac",
        "config": {
            "network": "Shanghai",
            "chainid": "0x01"
        },
        "genesisRLP": "0xf90219f90213a00000000000000000000000000000000000000000000000000000000000000000a01dcc4de8dec75d7aab85b567b6ccd41ad312451b948a7413f0a142fd40d49347940000000000000000000000000000000000000000a040bd8792f43f5f18572cf42c4c66b16ec65dba371f72c37041e1dfe1e81a07afa056e81f171bcc55a6ff8345e692c0f86e5b48e01b996cadc001622fb5e363b421a056e81f171bcc55a6ff8345e692c0f86e5b48e01b996cadc001622fb5e363b421b901000000000000000000000000000000000000000000000000000000000000000000000000000000000000000000000000000000000000000000000000000000000000000000000000000000000000000000000000000000000000000000000000000000000000000000000000000000000000000000000000000000000000000000000000000000000000000000000000000000000000000000000000000000000000000000000000000000000000000000000000000000000000000000000000000000000000000000000000000000000000000000000000000000000000000000000000000000000000000000000000000000000000000000000000000000000080808407270e00808000a0000000000000000000000000000000000000000000000000000000000000000088000000000000000007a056e81f171bcc55a6ff8345e692c0f86e5b48e01b996cadc001622fb5e363b421c0c0c0",
        "blocks": [
            {
                "blockHeader": {
                    "parentHash": "0x0ffd97a3a2a1994620f54333c86bca6aac35c3702146a6b274bb5599ce542b7d",
                    "uncleHash": "0x1dcc4de8dec75d7aab85b567b6ccd41ad312451b948a7413f0a142fd40d49347",
                    "coinbase": "0x2adc25665018aa1fe0e6bc666dac8fc2697ff9ba",
                    "stateRoot": "0x074bda5be76561f55d8d9457286f9431e1618d64401f8a55418c836eb24a9c07",
                    "transactionsTrie": "0x56e81f171bcc55a6ff8345e692c0f86e5b48e01b996cadc001622fb5e363b421",
                    "receiptTrie": "0x56e81f171bcc55a6ff8345e692c0f86e5b48e01b996cadc001622fb5e363b421",
                    "bloom": "0x00000000000000000000000000000000000000000000000000000000000000000000000000000000000000000000000000000000000000000000000000000000000000000000000000000000000000000000000000000000000000000000000000000000000000000000000000000000000000000000000000000000000000000000000000000000000000000000000000000000000000000000000000000000000000000000000000000000000000000000000000000000000000000000000000000000000000000000000000000000000000000000000000000000000000000000000000000000000000000000000000000000000000000000000000000000",
                    "difficulty": "0x00",
                    "number": "0x01",
                    "gasLimit": "0x07270e00",
                    "gasUsed": "0x00",
                    "timestamp": "0x0c",
                    "extraData": "0x",
                    "mixHash": "0x0000000000000000000000000000000000000000000000000000000000000000",
                    "nonce": "0x0000000000000000",
                    "baseFeePerGas": "0x07",
                    "withdrawalsRoot": "0x022ff2c13ad1e20e1e8df006d4bb0f555184e2e7a3fec6be30bb38a8cf0d99a7",
                    "hash": "0x17830875bb5b7b651fad83b37b25c0d8ac449aa96a7d5429b74d83d80cce00ac"
                },
                "transactions": [],
                "uncleHeaders": [],
                "withdrawals": [
                    {
                        "index": "0x00",
                        "validatorIndex": "0x00",
                        "address": "0xc0f6dc9e5836f54caadbf59cc69346c508e1992b",
                        "amount": "0x00"
                    },
                    {
                        "index": "0x00",
                        "validatorIndex": "0x00",
                        "address": "0x37f536464af59c8d7358cae965f92cbeadd58dcb",
                        "amount": "0x00"
                    },
                    {
                        "index": "0x01",
                        "validatorIndex": "0x00",
                        "address": "0x95d1be958d22adf294428c13cc71d89ff320bfd3",
                        "amount": "0x01"
                    },
                    {
                        "index": "0x02",
                        "validatorIndex": "0x00",
                        "address": "0x621bccc1be164ceafcc132dd24bd847f2cd8992c",
                        "amount": "0xffffffffffffffff"
                    }
                ],
                "rlp": "0xf90286f90213a00ffd97a3a2a1994620f54333c86bca6aac35c3702146a6b274bb5599ce542b7da01dcc4de8dec75d7aab85b567b6ccd41ad312451b948a7413f0a142fd40d49347942adc25665018aa1fe0e6bc666dac8fc2697ff9baa0074bda5be76561f55d8d9457286f9431e1618d64401f8a55418c836eb24a9c07a056e81f171bcc55a6ff8345e692c0f86e5b48e01b996cadc001622fb5e363b421a056e81f171bcc55a6ff8345e692c0f86e5b48e01b996cadc001622fb5e363b421b901000000000000000000000000000000000000000000000000000000000000000000000000000000000000000000000000000000000000000000000000000000000000000000000000000000000000000000000000000000000000000000000000000000000000000000000000000000000000000000000000000000000000000000000000000000000000000000000000000000000000000000000000000000000000000000000000000000000000000000000000000000000000000000000000000000000000000000000000000000000000000000000000000000000000000000000000000000000000000000000000000000000000000000000000000000000080018407270e00800c80a0000000000000000000000000000000000000000000000000000000000000000088000000000000000007a0022ff2c13ad1e20e1e8df006d4bb0f555184e2e7a3fec6be30bb38a8cf0d99a7c0c0f86cd8808094c0f6dc9e5836f54caadbf59cc69346c508e1992b80d880809437f536464af59c8d7358cae965f92cbeadd58dcb80d801809495d1be958d22adf294428c13cc71d89ff320bfd301e0028094621bccc1be164ceafcc132dd24bd847f2cd8992c88ffffffffffffffff",
                "blocknumber": "1"
            }
        ],
        "sealEngine": "NoProof",
        "_info": {
            "hash": "0x9157a9cf112cc3016e67aaccc736310054eaa04deaac8213ca691bb39a3c7abf",
            "fixture-format": "blockchain_test",
            "comment": "`execution-specs` generated test",
            "filling-transition-tool": "2.19.0",
            "description": "Test withdrawal scenarios with a zero amount in a single block.\n\nAll the withdrawals in the following scenarios are included in one block.\n\n1. Two withdrawals of zero amount to two different addresses; one to an\n    untouched account, one to an account with a balance.\n\n2. As 1., but with an additional withdrawal with positive value.\n\n3. As 2., but with an additional withdrawal containing the maximum value\n   possible.\n\n4. As 3., but with order of withdrawals in the block reversed.",
            "url": "https://github.com/ethereum/execution-specs/blob/tests-bal@v5.5.1/tests/shanghai/eip4895_withdrawals/test_withdrawals.py#L605",
            "opcode_count": {},
            "reference-spec": "https://github.com/ethereum/EIPs/blob/master/EIPS/eip-4895.md",
            "reference-spec-version": "81af3b60b632bc9c03513d1d137f25410e3f4d34"
        }
    },
    "tests/shanghai/eip4895_withdrawals/test_withdrawals.py::test_zero_amount[fork_Shanghai-blockchain_test-four_withdrawals_one_with_value_one_with_max_reversed_order]": {
        "network": "Shanghai",
        "genesisBlockHeader": {
            "parentHash": "0x0000000000000000000000000000000000000000000000000000000000000000",
            "uncleHash": "0x1dcc4de8dec75d7aab85b567b6ccd41ad312451b948a7413f0a142fd40d49347",
            "coinbase": "0x0000000000000000000000000000000000000000",
            "stateRoot": "0x40bd8792f43f5f18572cf42c4c66b16ec65dba371f72c37041e1dfe1e81a07af",
            "transactionsTrie": "0x56e81f171bcc55a6ff8345e692c0f86e5b48e01b996cadc001622fb5e363b421",
            "receiptTrie": "0x56e81f171bcc55a6ff8345e692c0f86e5b48e01b996cadc001622fb5e363b421",
            "bloom": "0x00000000000000000000000000000000000000000000000000000000000000000000000000000000000000000000000000000000000000000000000000000000000000000000000000000000000000000000000000000000000000000000000000000000000000000000000000000000000000000000000000000000000000000000000000000000000000000000000000000000000000000000000000000000000000000000000000000000000000000000000000000000000000000000000000000000000000000000000000000000000000000000000000000000000000000000000000000000000000000000000000000000000000000000000000000000",
            "difficulty": "0x00",
            "number": "0x00",
            "gasLimit": "0x07270e00",
            "gasUsed": "0x00",
            "timestamp": "0x00",
            "extraData": "0x00",
            "mixHash": "0x0000000000000000000000000000000000000000000000000000000000000000",
            "nonce": "0x0000000000000000",
            "baseFeePerGas": "0x07",
            "withdrawalsRoot": "0x56e81f171bcc55a6ff8345e692c0f86e5b48e01b996cadc001622fb5e363b421",
            "hash": "0x0ffd97a3a2a1994620f54333c86bca6aac35c3702146a6b274bb5599ce542b7d"
        },
        "pre": {
            "0x37f536464af59c8d7358cae965f92cbeadd58dcb": {
                "nonce": "0x01",
                "balance": "0x00",
                "code": "0x00",
                "storage": {}
            }
        },
        "postState": {
            "0x37f536464af59c8d7358cae965f92cbeadd58dcb": {
                "nonce": "0x01",
                "balance": "0x00",
                "code": "0x00",
                "storage": {}
            },
            "0x621bccc1be164ceafcc132dd24bd847f2cd8992c": {
                "nonce": "0x00",
                "balance": "0x3b9ac9ffffffffffc4653600",
                "code": "0x",
                "storage": {}
            },
            "0x95d1be958d22adf294428c13cc71d89ff320bfd3": {
                "nonce": "0x00",
                "balance": "0x3b9aca00",
                "code": "0x",
                "storage": {}
            }
        },
        "lastblockhash": "0x70dbef8f5b1d2e672c7307024ebf4cbf230207d62c351cb1a0b85af5f797c1ac",
        "config": {
            "network": "Shanghai",
            "chainid": "0x01"
        },
        "genesisRLP": "0xf90219f90213a00000000000000000000000000000000000000000000000000000000000000000a01dcc4de8dec75d7aab85b567b6ccd41ad312451b948a7413f0a142fd40d49347940000000000000000000000000000000000000000a040bd8792f43f5f18572cf42c4c66b16ec65dba371f72c37041e1dfe1e81a07afa056e81f171bcc55a6ff8345e692c0f86e5b48e01b996cadc001622fb5e363b421a056e81f171bcc55a6ff8345e692c0f86e5b48e01b996cadc001622fb5e363b421b901000000000000000000000000000000000000000000000000000000000000000000000000000000000000000000000000000000000000000000000000000000000000000000000000000000000000000000000000000000000000000000000000000000000000000000000000000000000000000000000000000000000000000000000000000000000000000000000000000000000000000000000000000000000000000000000000000000000000000000000000000000000000000000000000000000000000000000000000000000000000000000000000000000000000000000000000000000000000000000000000000000000000000000000000000000000080808407270e00808000a0000000000000000000000000000000000000000000000000000000000000000088000000000000000007a056e81f171bcc55a6ff8345e692c0f86e5b48e01b996cadc001622fb5e363b421c0c0c0",
        "blocks": [
            {
                "blockHeader": {
                    "parentHash": "0x0ffd97a3a2a1994620f54333c86bca6aac35c3702146a6b274bb5599ce542b7d",
                    "uncleHash": "0x1dcc4de8dec75d7aab85b567b6ccd41ad312451b948a7413f0a142fd40d49347",
                    "coinbase": "0x2adc25665018aa1fe0e6bc666dac8fc2697ff9ba",
                    "stateRoot": "0x074bda5be76561f55d8d9457286f9431e1618d64401f8a55418c836eb24a9c07",
                    "transactionsTrie": "0x56e81f171bcc55a6ff8345e692c0f86e5b48e01b996cadc001622fb5e363b421",
                    "receiptTrie": "0x56e81f171bcc55a6ff8345e692c0f86e5b48e01b996cadc001622fb5e363b421",
                    "bloom": "0x00000000000000000000000000000000000000000000000000000000000000000000000000000000000000000000000000000000000000000000000000000000000000000000000000000000000000000000000000000000000000000000000000000000000000000000000000000000000000000000000000000000000000000000000000000000000000000000000000000000000000000000000000000000000000000000000000000000000000000000000000000000000000000000000000000000000000000000000000000000000000000000000000000000000000000000000000000000000000000000000000000000000000000000000000000000",
                    "difficulty": "0x00",
                    "number": "0x01",
                    "gasLimit": "0x07270e00",
                    "gasUsed": "0x00",
                    "timestamp": "0x0c",
                    "extraData": "0x",
                    "mixHash": "0x0000000000000000000000000000000000000000000000000000000000000000",
                    "nonce": "0x0000000000000000",
                    "baseFeePerGas": "0x07",
                    "withdrawalsRoot": "0x77e655e6541722e9dc3ef4107a1775f5a63ee1ce49103f50ac1509fdcf08c947",
                    "hash": "0x70dbef8f5b1d2e672c7307024ebf4cbf230207d62c351cb1a0b85af5f797c1ac"
                },
                "transactions": [],
                "uncleHeaders": [],
                "withdrawals": [
                    {
                        "index": "0x00",
                        "validatorIndex": "0x00",
                        "address": "0x621bccc1be164ceafcc132dd24bd847f2cd8992c",
                        "amount": "0xffffffffffffffff"
                    },
                    {
                        "index": "0x01",
                        "validatorIndex": "0x00",
                        "address": "0x95d1be958d22adf294428c13cc71d89ff320bfd3",
                        "amount": "0x01"
                    },
                    {
                        "index": "0x02",
                        "validatorIndex": "0x00",
                        "address": "0x37f536464af59c8d7358cae965f92cbeadd58dcb",
                        "amount": "0x00"
                    },
                    {
                        "index": "0x03",
                        "validatorIndex": "0x00",
                        "address": "0xc0f6dc9e5836f54caadbf59cc69346c508e1992b",
                        "amount": "0x00"
                    }
                ],
                "rlp": "0xf90286f90213a00ffd97a3a2a1994620f54333c86bca6aac35c3702146a6b274bb5599ce542b7da01dcc4de8dec75d7aab85b567b6ccd41ad312451b948a7413f0a142fd40d49347942adc25665018aa1fe0e6bc666dac8fc2697ff9baa0074bda5be76561f55d8d9457286f9431e1618d64401f8a55418c836eb24a9c07a056e81f171bcc55a6ff8345e692c0f86e5b48e01b996cadc001622fb5e363b421a056e81f171bcc55a6ff8345e692c0f86e5b48e01b996cadc001622fb5e363b421b901000000000000000000000000000000000000000000000000000000000000000000000000000000000000000000000000000000000000000000000000000000000000000000000000000000000000000000000000000000000000000000000000000000000000000000000000000000000000000000000000000000000000000000000000000000000000000000000000000000000000000000000000000000000000000000000000000000000000000000000000000000000000000000000000000000000000000000000000000000000000000000000000000000000000000000000000000000000000000000000000000000000000000000000000000000000080018407270e00800c80a0000000000000000000000000000000000000000000000000000000000000000088000000000000000007a077e655e6541722e9dc3ef4107a1775f5a63ee1ce49103f50ac1509fdcf08c947c0c0f86ce0808094621bccc1be164ceafcc132dd24bd847f2cd8992c88ffffffffffffffffd801809495d1be958d22adf294428c13cc71d89ff320bfd301d802809437f536464af59c8d7358cae965f92cbeadd58dcb80d8038094c0f6dc9e5836f54caadbf59cc69346c508e1992b80",
                "blocknumber": "1"
            }
        ],
        "sealEngine": "NoProof",
        "_info": {
            "hash": "0xb5294fb778777ee2b6e90a21eb6ab9ad2b940735bd5bad0ac99a678a01523c2d",
            "fixture-format": "blockchain_test",
            "comment": "`execution-specs` generated test",
            "filling-transition-tool": "2.19.0",
            "description": "Test withdrawal scenarios with a zero amount in a single block.\n\nAll the withdrawals in the following scenarios are included in one block.\n\n1. Two withdrawals of zero amount to two different addresses; one to an\n    untouched account, one to an account with a balance.\n\n2. As 1., but with an additional withdrawal with positive value.\n\n3. As 2., but with an additional withdrawal containing the maximum value\n   possible.\n\n4. As 3., but with order of withdrawals in the block reversed.",
            "url": "https://github.com/ethereum/execution-specs/blob/tests-bal@v5.5.1/tests/shanghai/eip4895_withdrawals/test_withdrawals.py#L605",
            "opcode_count": {},
            "reference-spec": "https://github.com/ethereum/EIPs/blob/master/EIPS/eip-4895.md",
            "reference-spec-version": "81af3b60b632bc9c03513d1d137f25410e3f4d34"
        }
    },
    "tests/shanghai/eip4895_withdrawals/test_withdrawals.py::test_zero_amount[fork_Shanghai-blockchain_test-three_withdrawals_one_with_value]": {
        "network": "Shanghai",
        "genesisBlockHeader": {
            "parentHash": "0x0000000000000000000000000000000000000000000000000000000000000000",
            "uncleHash": "0x1dcc4de8dec75d7aab85b567b6ccd41ad312451b948a7413f0a142fd40d49347",
            "coinbase": "0x0000000000000000000000000000000000000000",
            "stateRoot": "0x40bd8792f43f5f18572cf42c4c66b16ec65dba371f72c37041e1dfe1e81a07af",
            "transactionsTrie": "0x56e81f171bcc55a6ff8345e692c0f86e5b48e01b996cadc001622fb5e363b421",
            "receiptTrie": "0x56e81f171bcc55a6ff8345e692c0f86e5b48e01b996cadc001622fb5e363b421",
            "bloom": "0x00000000000000000000000000000000000000000000000000000000000000000000000000000000000000000000000000000000000000000000000000000000000000000000000000000000000000000000000000000000000000000000000000000000000000000000000000000000000000000000000000000000000000000000000000000000000000000000000000000000000000000000000000000000000000000000000000000000000000000000000000000000000000000000000000000000000000000000000000000000000000000000000000000000000000000000000000000000000000000000000000000000000000000000000000000000",
            "difficulty": "0x00",
            "number": "0x00",
            "gasLimit": "0x07270e00",
            "gasUsed": "0x00",
            "timestamp": "0x00",
            "extraData": "0x00",
            "mixHash": "0x0000000000000000000000000000000000000000000000000000000000000000",
            "nonce": "0x0000000000000000",
            "baseFeePerGas": "0x07",
            "withdrawalsRoot": "0x56e81f171bcc55a6ff8345e692c0f86e5b48e01b996cadc001622fb5e363b421",
            "hash": "0x0ffd97a3a2a1994620f54333c86bca6aac35c3702146a6b274bb5599ce542b7d"
        },
        "pre": {
            "0x37f536464af59c8d7358cae965f92cbeadd58dcb": {
                "nonce": "0x01",
                "balance": "0x00",
                "code": "0x00",
                "storage": {}
            }
        },
        "postState": {
            "0x37f536464af59c8d7358cae965f92cbeadd58dcb": {
                "nonce": "0x01",
                "balance": "0x00",
                "code": "0x00",
                "storage": {}
            },
            "0x95d1be958d22adf294428c13cc71d89ff320bfd3": {
                "nonce": "0x00",
                "balance": "0x3b9aca00",
                "code": "0x",
                "storage": {}
            }
        },
        "lastblockhash": "0x943d65350f0c7a6aedcc276db95b8c21f68710272578c9c3aae40ca7bc9dfd94",
        "config": {
            "network": "Shanghai",
            "chainid": "0x01"
        },
        "genesisRLP": "0xf90219f90213a00000000000000000000000000000000000000000000000000000000000000000a01dcc4de8dec75d7aab85b567b6ccd41ad312451b948a7413f0a142fd40d49347940000000000000000000000000000000000000000a040bd8792f43f5f18572cf42c4c66b16ec65dba371f72c37041e1dfe1e81a07afa056e81f171bcc55a6ff8345e692c0f86e5b48e01b996cadc001622fb5e363b421a056e81f171bcc55a6ff8345e692c0f86e5b48e01b996cadc001622fb5e363b421b901000000000000000000000000000000000000000000000000000000000000000000000000000000000000000000000000000000000000000000000000000000000000000000000000000000000000000000000000000000000000000000000000000000000000000000000000000000000000000000000000000000000000000000000000000000000000000000000000000000000000000000000000000000000000000000000000000000000000000000000000000000000000000000000000000000000000000000000000000000000000000000000000000000000000000000000000000000000000000000000000000000000000000000000000000000000080808407270e00808000a0000000000000000000000000000000000000000000000000000000000000000088000000000000000007a056e81f171bcc55a6ff8345e692c0f86e5b48e01b996cadc001622fb5e363b421c0c0c0",
        "blocks": [
            {
                "blockHeader": {
                    "parentHash": "0x0ffd97a3a2a1994620f54333c86bca6aac35c3702146a6b274bb5599ce542b7d",
                    "uncleHash": "0x1dcc4de8dec75d7aab85b567b6ccd41ad312451b948a7413f0a142fd40d49347",
                    "coinbase": "0x2adc25665018aa1fe0e6bc666dac8fc2697ff9ba",
                    "stateRoot": "0x16cfb93f764990f5e0384e5f7cc3d75445bfbc321ed643bafdb5f9e1981b3d15",
                    "transactionsTrie": "0x56e81f171bcc55a6ff8345e692c0f86e5b48e01b996cadc001622fb5e363b421",
                    "receiptTrie": "0x56e81f171bcc55a6ff8345e692c0f86e5b48e01b996cadc001622fb5e363b421",
                    "bloom": "0x00000000000000000000000000000000000000000000000000000000000000000000000000000000000000000000000000000000000000000000000000000000000000000000000000000000000000000000000000000000000000000000000000000000000000000000000000000000000000000000000000000000000000000000000000000000000000000000000000000000000000000000000000000000000000000000000000000000000000000000000000000000000000000000000000000000000000000000000000000000000000000000000000000000000000000000000000000000000000000000000000000000000000000000000000000000",
                    "difficulty": "0x00",
                    "number": "0x01",
                    "gasLimit": "0x07270e00",
                    "gasUsed": "0x00",
                    "timestamp": "0x0c",
                    "extraData": "0x",
                    "mixHash": "0x0000000000000000000000000000000000000000000000000000000000000000",
                    "nonce": "0x0000000000000000",
                    "baseFeePerGas": "0x07",
                    "withdrawalsRoot": "0x855e2dee5f626463b6721c63b884906f5dedcb2e3d901d0080d7ef3430b47d14",
                    "hash": "0x943d65350f0c7a6aedcc276db95b8c21f68710272578c9c3aae40ca7bc9dfd94"
                },
                "transactions": [],
                "uncleHeaders": [],
                "withdrawals": [
                    {
                        "index": "0x00",
                        "validatorIndex": "0x00",
                        "address": "0xc0f6dc9e5836f54caadbf59cc69346c508e1992b",
                        "amount": "0x00"
                    },
                    {
                        "index": "0x00",
                        "validatorIndex": "0x00",
                        "address": "0x37f536464af59c8d7358cae965f92cbeadd58dcb",
                        "amount": "0x00"
                    },
                    {
                        "index": "0x01",
                        "validatorIndex": "0x00",
                        "address": "0x95d1be958d22adf294428c13cc71d89ff320bfd3",
                        "amount": "0x01"
                    }
                ],
                "rlp": "0xf90265f90213a00ffd97a3a2a1994620f54333c86bca6aac35c3702146a6b274bb5599ce542b7da01dcc4de8dec75d7aab85b567b6ccd41ad312451b948a7413f0a142fd40d49347942adc25665018aa1fe0e6bc666dac8fc2697ff9baa016cfb93f764990f5e0384e5f7cc3d75445bfbc321ed643bafdb5f9e1981b3d15a056e81f171bcc55a6ff8345e692c0f86e5b48e01b996cadc001622fb5e363b421a056e81f171bcc55a6ff8345e692c0f86e5b48e01b996cadc001622fb5e363b421b901000000000000000000000000000000000000000000000000000000000000000000000000000000000000000000000000000000000000000000000000000000000000000000000000000000000000000000000000000000000000000000000000000000000000000000000000000000000000000000000000000000000000000000000000000000000000000000000000000000000000000000000000000000000000000000000000000000000000000000000000000000000000000000000000000000000000000000000000000000000000000000000000000000000000000000000000000000000000000000000000000000000000000000000000000000000080018407270e00800c80a0000000000000000000000000000000000000000000000000000000000000000088000000000000000007a0855e2dee5f626463b6721c63b884906f5dedcb2e3d901d0080d7ef3430b47d14c0c0f84bd8808094c0f6dc9e5836f54caadbf59cc69346c508e1992b80d880809437f536464af59c8d7358cae965f92cbeadd58dcb80d801809495d1be958d22adf294428c13cc71d89ff320bfd301",
                "blocknumber": "1"
            }
        ],
        "sealEngine": "NoProof",
        "_info": {
            "hash": "0x54b91a1e45c514801c3d4a156c222223609b19a42c5bd4abe36d07b785d18636",
            "fixture-format": "blockchain_test",
            "comment": "`execution-specs` generated test",
            "filling-transition-tool": "2.19.0",
            "description": "Test withdrawal scenarios with a zero amount in a single block.\n\nAll the withdrawals in the following scenarios are included in one block.\n\n1. Two withdrawals of zero amount to two different addresses; one to an\n    untouched account, one to an account with a balance.\n\n2. As 1., but with an additional withdrawal with positive value.\n\n3. As 2., but with an additional withdrawal containing the maximum value\n   possible.\n\n4. As 3., but with order of withdrawals in the block reversed.",
            "url": "https://github.com/ethereum/execution-specs/blob/tests-bal@v5.5.1/tests/shanghai/eip4895_withdrawals/test_withdrawals.py#L605",
            "opcode_count": {},
            "reference-spec": "https://github.com/ethereum/EIPs/blob/master/EIPS/eip-4895.md",
            "reference-spec-version": "81af3b60b632bc9c03513d1d137f25410e3f4d34"
        }
    },
    "tests/shanghai/eip4895_withdrawals/test_withdrawals.py::test_zero_amount[fork_Shanghai-blockchain_test-two_withdrawals_no_value]": {
        "network": "Shanghai",
        "genesisBlockHeader": {
            "parentHash": "0x0000000000000000000000000000000000000000000000000000000000000000",
            "uncleHash": "0x1dcc4de8dec75d7aab85b567b6ccd41ad312451b948a7413f0a142fd40d49347",
            "coinbase": "0x0000000000000000000000000000000000000000",
            "stateRoot": "0x40bd8792f43f5f18572cf42c4c66b16ec65dba371f72c37041e1dfe1e81a07af",
            "transactionsTrie": "0x56e81f171bcc55a6ff8345e692c0f86e5b48e01b996cadc001622fb5e363b421",
            "receiptTrie": "0x56e81f171bcc55a6ff8345e692c0f86e5b48e01b996cadc001622fb5e363b421",
            "bloom": "0x00000000000000000000000000000000000000000000000000000000000000000000000000000000000000000000000000000000000000000000000000000000000000000000000000000000000000000000000000000000000000000000000000000000000000000000000000000000000000000000000000000000000000000000000000000000000000000000000000000000000000000000000000000000000000000000000000000000000000000000000000000000000000000000000000000000000000000000000000000000000000000000000000000000000000000000000000000000000000000000000000000000000000000000000000000000",
            "difficulty": "0x00",
            "number": "0x00",
            "gasLimit": "0x07270e00",
            "gasUsed": "0x00",
            "timestamp": "0x00",
            "extraData": "0x00",
            "mixHash": "0x0000000000000000000000000000000000000000000000000000000000000000",
            "nonce": "0x0000000000000000",
            "baseFeePerGas": "0x07",
            "withdrawalsRoot": "0x56e81f171bcc55a6ff8345e692c0f86e5b48e01b996cadc001622fb5e363b421",
            "hash": "0x0ffd97a3a2a1994620f54333c86bca6aac35c3702146a6b274bb5599ce542b7d"
        },
        "pre": {
            "0x37f536464af59c8d7358cae965f92cbeadd58dcb": {
                "nonce": "0x01",
                "balance": "0x00",
                "code": "0x00",
                "storage": {}
            }
        },
        "postState": {
            "0x37f536464af59c8d7358cae965f92cbeadd58dcb": {
                "nonce": "0x01",
                "balance": "0x00",
                "code": "0x00",
                "storage": {}
            }
        },
        "lastblockhash": "0x93dd4fd3565a47102911ea764bfa8a9ade4ef3a6b69f9001b9d921a2249fae76",
        "config": {
            "network": "Shanghai",
            "chainid": "0x01"
        },
        "genesisRLP": "0xf90219f90213a00000000000000000000000000000000000000000000000000000000000000000a01dcc4de8dec75d7aab85b567b6ccd41ad312451b948a7413f0a142fd40d49347940000000000000000000000000000000000000000a040bd8792f43f5f18572cf42c4c66b16ec65dba371f72c37041e1dfe1e81a07afa056e81f171bcc55a6ff8345e692c0f86e5b48e01b996cadc001622fb5e363b421a056e81f171bcc55a6ff8345e692c0f86e5b48e01b996cadc001622fb5e363b421b901000000000000000000000000000000000000000000000000000000000000000000000000000000000000000000000000000000000000000000000000000000000000000000000000000000000000000000000000000000000000000000000000000000000000000000000000000000000000000000000000000000000000000000000000000000000000000000000000000000000000000000000000000000000000000000000000000000000000000000000000000000000000000000000000000000000000000000000000000000000000000000000000000000000000000000000000000000000000000000000000000000000000000000000000000000000080808407270e00808000a0000000000000000000000000000000000000000000000000000000000000000088000000000000000007a056e81f171bcc55a6ff8345e692c0f86e5b48e01b996cadc001622fb5e363b421c0c0c0",
        "blocks": [
            {
                "blockHeader": {
                    "parentHash": "0x0ffd97a3a2a1994620f54333c86bca6aac35c3702146a6b274bb5599ce542b7d",
                    "uncleHash": "0x1dcc4de8dec75d7aab85b567b6ccd41ad312451b948a7413f0a142fd40d49347",
                    "coinbase": "0x2adc25665018aa1fe0e6bc666dac8fc2697ff9ba",
                    "stateRoot": "0x40bd8792f43f5f18572cf42c4c66b16ec65dba371f72c37041e1dfe1e81a07af",
                    "transactionsTrie": "0x56e81f171bcc55a6ff8345e692c0f86e5b48e01b996cadc001622fb5e363b421",
                    "receiptTrie": "0x56e81f171bcc55a6ff8345e692c0f86e5b48e01b996cadc001622fb5e363b421",
                    "bloom": "0x00000000000000000000000000000000000000000000000000000000000000000000000000000000000000000000000000000000000000000000000000000000000000000000000000000000000000000000000000000000000000000000000000000000000000000000000000000000000000000000000000000000000000000000000000000000000000000000000000000000000000000000000000000000000000000000000000000000000000000000000000000000000000000000000000000000000000000000000000000000000000000000000000000000000000000000000000000000000000000000000000000000000000000000000000000000",
                    "difficulty": "0x00",
                    "number": "0x01",
                    "gasLimit": "0x07270e00",
                    "gasUsed": "0x00",
                    "timestamp": "0x0c",
                    "extraData": "0x",
                    "mixHash": "0x0000000000000000000000000000000000000000000000000000000000000000",
                    "nonce": "0x0000000000000000",
                    "baseFeePerGas": "0x07",
                    "withdrawalsRoot": "0x3120ed99200ee588dac5caedf41e5b8c865cf7024d5704ae4c85224318e1c361",
                    "hash": "0x93dd4fd3565a47102911ea764bfa8a9ade4ef3a6b69f9001b9d921a2249fae76"
                },
                "transactions": [],
                "uncleHeaders": [],
                "withdrawals": [
                    {
                        "index": "0x00",
                        "validatorIndex": "0x00",
                        "address": "0xc0f6dc9e5836f54caadbf59cc69346c508e1992b",
                        "amount": "0x00"
                    },
                    {
                        "index": "0x00",
                        "validatorIndex": "0x00",
                        "address": "0x37f536464af59c8d7358cae965f92cbeadd58dcb",
                        "amount": "0x00"
                    }
                ],
                "rlp": "0xf9024bf90213a00ffd97a3a2a1994620f54333c86bca6aac35c3702146a6b274bb5599ce542b7da01dcc4de8dec75d7aab85b567b6ccd41ad312451b948a7413f0a142fd40d49347942adc25665018aa1fe0e6bc666dac8fc2697ff9baa040bd8792f43f5f18572cf42c4c66b16ec65dba371f72c37041e1dfe1e81a07afa056e81f171bcc55a6ff8345e692c0f86e5b48e01b996cadc001622fb5e363b421a056e81f171bcc55a6ff8345e692c0f86e5b48e01b996cadc001622fb5e363b421b901000000000000000000000000000000000000000000000000000000000000000000000000000000000000000000000000000000000000000000000000000000000000000000000000000000000000000000000000000000000000000000000000000000000000000000000000000000000000000000000000000000000000000000000000000000000000000000000000000000000000000000000000000000000000000000000000000000000000000000000000000000000000000000000000000000000000000000000000000000000000000000000000000000000000000000000000000000000000000000000000000000000000000000000000000000000080018407270e00800c80a0000000000000000000000000000000000000000000000000000000000000000088000000000000000007a03120ed99200ee588dac5caedf41e5b8c865cf7024d5704ae4c85224318e1c361c0c0f2d8808094c0f6dc9e5836f54caadbf59cc69346c508e1992b80d880809437f536464af59c8d7358cae965f92cbeadd58dcb80",
                "blocknumber": "1"
            }
        ],
        "sealEngine": "NoProof",
        "_info": {
            "hash": "0xe2a042c7534ada0742645dca195520b3136a5e3a41ed03978760b3cee26cb705",
            "fixture-format": "blockchain_test",
            "comment": "`execution-specs` generated test",
            "filling-transition-tool": "2.19.0",
            "description": "Test withdrawal scenarios with a zero amount in a single block.\n\nAll the withdrawals in the following scenarios are included in one block.\n\n1. Two withdrawals of zero amount to two different addresses; one to an\n    untouched account, one to an account with a balance.\n\n2. As 1., but with an additional withdrawal with positive value.\n\n3. As 2., but with an additional withdrawal containing the maximum value\n   possible.\n\n4. As 3., but with order of withdrawals in the block reversed.",
            "url": "https://github.com/ethereum/execution-specs/blob/tests-bal@v5.5.1/tests/shanghai/eip4895_withdrawals/test_withdrawals.py#L605",
            "opcode_count": {},
            "reference-spec": "https://github.com/ethereum/EIPs/blob/master/EIPS/eip-4895.md",
            "reference-spec-version": "81af3b60b632bc9c03513d1d137f25410e3f4d34"
        }
    }
}