{
    "tests/shanghai/eip4895_withdrawals/test_withdrawals.py::TestUseValueInTx::test_use_value_in_tx[fork_Shanghai-blockchain_test-tx_after_withdrawals_block]": {
        "network": "Shanghai",
        "genesisBlockHeader": {
            "parentHash": "0x0000000000000000000000000000000000000000000000000000000000000000",
            "uncleHash": "0x1dcc4de8dec75d7aab85b567b6ccd41ad312451b948a7413f0a142fd40d49347",
            "coinbase": "0x0000000000000000000000000000000000000000",
            "stateRoot": "0x6108977fe05c469362f1f2fb86456f07a8d22fbc0edd9632b7566a086985dbd4",
            "transactionsTrie": "0x56e81f171bcc55a6ff8345e692c0f86e5b48e01b996cadc001622fb5e363b421",
            "receiptTrie": "0x56e81f171bcc55a6ff8345e692c0f86e5b48e01b996cadc001622fb5e363b421",
            "bloom": "0x00000000000000000000000000000000000000000000000000000000000000000000000000000000000000000000000000000000000000000000000000000000000000000000000000000000000000000000000000000000000000000000000000000000000000000000000000000000000000000000000000000000000000000000000000000000000000000000000000000000000000000000000000000000000000000000000000000000000000000000000000000000000000000000000000000000000000000000000000000000000000000000000000000000000000000000000000000000000000000000000000000000000000000000000000000000",
            "difficulty": "0x00",
            "number": "0x00",
            "gasLimit": "0x07270e00",
            "gasUsed": "0x00",
            "timestamp": "0x00",
            "extraData": "0x00",
            "mixHash": "0x0000000000000000000000000000000000000000000000000000000000000000",
            "nonce": "0x0000000000000000",
            "baseFeePerGas": "0x07",
            "withdrawalsRoot": "0x56e81f171bcc55a6ff8345e692c0f86e5b48e01b996cadc001622fb5e363b421",
            "hash": "0x21201117b5339e81bc9783faf1ac5d0213fb68eeca80a4fa73869714f9ed1f37"
        },
        "pre": {
            "0xf36afef4dcb45e52f80cb039335952f77cec8960": {
                "nonce": "0x00",
                "balance": "0x01",
                "code": "0x",
                "storage": {}
            }
        },
        "postState": {
            "0xf36afef4dcb45e52f80cb039335952f77cec8960": {
                "nonce": "0x01",
                "balance": "0x3b9aca01",
                "code": "0x",
                "storage": {}
            },
            "0x2adc25665018aa1fe0e6bc666dac8fc2697ff9ba": {
                "nonce": "0x00",
                "balance": "0x1319718811c8",
                "code": "0x",
                "storage": {}
            }
        },
        "lastblockhash": "0xf8ebc5b0281eae31e30b3bed730d711614a19518df94a8bae85d005611f53bc2",
        "config": {
            "network": "Shanghai",
            "chainid": "0x01"
        },
        "genesisRLP": "0xf90219f90213a00000000000000000000000000000000000000000000000000000000000000000a01dcc4de8dec75d7aab85b567b6ccd41ad312451b948a7413f0a142fd40d49347940000000000000000000000000000000000000000a06108977fe05c469362f1f2fb86456f07a8d22fbc0edd9632b7566a086985dbd4a056e81f171bcc55a6ff8345e692c0f86e5b48e01b996cadc001622fb5e363b421a056e81f171bcc55a6ff8345e692c0f86e5b48e01b996cadc001622fb5e363b421b901000000000000000000000000000000000000000000000000000000000000000000000000000000000000000000000000000000000000000000000000000000000000000000000000000000000000000000000000000000000000000000000000000000000000000000000000000000000000000000000000000000000000000000000000000000000000000000000000000000000000000000000000000000000000000000000000000000000000000000000000000000000000000000000000000000000000000000000000000000000000000000000000000000000000000000000000000000000000000000000000000000000000000000000000000000000080808407270e00808000a0000000000000000000000000000000000000000000000000000000000000000088000000000000000007a056e81f171bcc55a6ff8345e692c0f86e5b48e01b996cadc001622fb5e363b421c0c0c0",
        "blocks": [
            {
                "blockHeader": {
                    "parentHash": "0x21201117b5339e81bc9783faf1ac5d0213fb68eeca80a4fa73869714f9ed1f37",
                    "uncleHash": "0x1dcc4de8dec75d7aab85b567b6ccd41ad312451b948a7413f0a142fd40d49347",
                    "coinbase": "0x2adc25665018aa1fe0e6bc666dac8fc2697ff9ba",
                    "stateRoot": "0xd23daa3d10f50ef4f04b13836c877cbf043747fd49f3fec0578fd79a225e5237",
                    "transactionsTrie": "0x56e81f171bcc55a6ff8345e692c0f86e5b48e01b996cadc001622fb5e363b421",
                    "receiptTrie": "0x56e81f171bcc55a6ff8345e692c0f86e5b48e01b996cadc001622fb5e363b421",
                    "bloom": "0x00000000000000000000000000000000000000000000000000000000000000000000000000000000000000000000000000000000000000000000000000000000000000000000000000000000000000000000000000000000000000000000000000000000000000000000000000000000000000000000000000000000000000000000000000000000000000000000000000000000000000000000000000000000000000000000000000000000000000000000000000000000000000000000000000000000000000000000000000000000000000000000000000000000000000000000000000000000000000000000000000000000000000000000000000000000",
                    "difficulty": "0x00",
                    "number": "0x01",
                    "gasLimit": "0x07270e00",
                    "gasUsed": "0x00",
                    "timestamp": "0x0c",
                    "extraData": "0x",
                    "mixHash": "0x0000000000000000000000000000000000000000000000000000000000000000",
                    "nonce": "0x0000000000000000",
                    "baseFeePerGas": "0x07",
                    "withdrawalsRoot": "0xeea2e6999098a9c7c44b8d8f37c7235c436a6a5becbc46b22b9e79b240338d9f",
                    "hash": "0x96065cecfe415a3ec398f4618574cbb483244b08fc5ffc0c8b32ca322924c513"
                },
                "transactions": [],
                "uncleHeaders": [],
                "withdrawals": [
                    {
                        "index": "0x00",
                        "validatorIndex": "0x00",
                        "address": "0xf36afef4dcb45e52f80cb039335952f77cec8960",
                        "amount": "0x5209"
                    }
                ],
                "rlp": "0xf90234f90213a021201117b5339e81bc9783faf1ac5d0213fb68eeca80a4fa73869714f9ed1f37a01dcc4de8dec75d7aab85b567b6ccd41ad312451b948a7413f0a142fd40d49347942adc25665018aa1fe0e6bc666dac8fc2697ff9baa0d23daa3d10f50ef4f04b13836c877cbf043747fd49f3fec0578fd79a225e5237a056e81f171bcc55a6ff8345e692c0f86e5b48e01b996cadc001622fb5e363b421a056e81f171bcc55a6ff8345e692c0f86e5b48e01b996cadc001622fb5e363b421b901000000000000000000000000000000000000000000000000000000000000000000000000000000000000000000000000000000000000000000000000000000000000000000000000000000000000000000000000000000000000000000000000000000000000000000000000000000000000000000000000000000000000000000000000000000000000000000000000000000000000000000000000000000000000000000000000000000000000000000000000000000000000000000000000000000000000000000000000000000000000000000000000000000000000000000000000000000000000000000000000000000000000000000000000000000000080018407270e00800c80a0000000000000000000000000000000000000000000000000000000000000000088000000000000000007a0eea2e6999098a9c7c44b8d8f37c7235c436a6a5becbc46b22b9e79b240338d9fc0c0dbda808094f36afef4dcb45e52f80cb039335952f77cec8960825209",
                "blocknumber": "1"
            },
            {
                "blockHeader": {
                    "parentHash": "0x96065cecfe415a3ec398f4618574cbb483244b08fc5ffc0c8b32ca322924c513",
                    "uncleHash": "0x1dcc4de8dec75d7aab85b567b6ccd41ad312451b948a7413f0a142fd40d49347",
                    "coinbase": "0x2adc25665018aa1fe0e6bc666dac8fc2697ff9ba",
                    "stateRoot": "0x1b6bd152fa937070fe0bf2a500710360c5298791574add4ffd41295b9ccfb06e",
                    "transactionsTrie": "0x579b4c6f99c75cd2ae53be86bedecadbfbf2fd1974ac8fc25effd730fa86a276",
                    "receiptTrie": "0x056b23fbba480696b65fe5a59b8f2148a1299103c4f57df839233af2cf4ca2d2",
                    "bloom": "0x00000000000000000000000000000000000000000000000000000000000000000000000000000000000000000000000000000000000000000000000000000000000000000000000000000000000000000000000000000000000000000000000000000000000000000000000000000000000000000000000000000000000000000000000000000000000000000000000000000000000000000000000000000000000000000000000000000000000000000000000000000000000000000000000000000000000000000000000000000000000000000000000000000000000000000000000000000000000000000000000000000000000000000000000000000000",
                    "difficulty": "0x00",
                    "number": "0x02",
                    "gasLimit": "0x07270e00",
                    "gasUsed": "0x5208",
                    "timestamp": "0x18",
                    "extraData": "0x",
                    "mixHash": "0x0000000000000000000000000000000000000000000000000000000000000000",
                    "nonce": "0x0000000000000000",
                    "baseFeePerGas": "0x07",
                    "withdrawalsRoot": "0x56e81f171bcc55a6ff8345e692c0f86e5b48e01b996cadc001622fb5e363b421",
                    "hash": "0xf8ebc5b0281eae31e30b3bed730d711614a19518df94a8bae85d005611f53bc2"
                },
                "transactions": [
                    {
                        "type": "0x00",
                        "chainId": "0x01",
                        "nonce": "0x00",
                        "gasPrice": "0x3b9aca00",
                        "gasLimit": "0x5208",
                        "to": "0xc0f6dc9e5836f54caadbf59cc69346c508e1992b",
                        "value": "0x00",
                        "data": "0x",
                        "v": "0x26",
                        "r": "0x830fb54ce91ab011c2730defe3410be6a7a7f9f9db6049701d1657e50fafd061",
                        "s": "0x56af7696e6fbe433bf1949af2e1afc7496a34028453ab98c2950bd6a436301a9",
                        "sender": "0xf36afef4dcb45e52f80cb039335952f77cec8960"
                    }
                ],
                "uncleHeaders": [],
                "withdrawals": [],
                "receipts": [
                    {
                        "transactionHash": "0x01611a441ce5140113ce2a2ef303ce1bad2365d27b6b5159dd794eed3e83ddec",
                        "type": "0x00",
                        "cumulativeGasUsed": "0x5208",
                        "bloom": "0x00000000000000000000000000000000000000000000000000000000000000000000000000000000000000000000000000000000000000000000000000000000000000000000000000000000000000000000000000000000000000000000000000000000000000000000000000000000000000000000000000000000000000000000000000000000000000000000000000000000000000000000000000000000000000000000000000000000000000000000000000000000000000000000000000000000000000000000000000000000000000000000000000000000000000000000000000000000000000000000000000000000000000000000000000000000",
                        "logs": [],
                        "status": true,
                        "rlp": "0xf9010801825208b9010000000000000000000000000000000000000000000000000000000000000000000000000000000000000000000000000000000000000000000000000000000000000000000000000000000000000000000000000000000000000000000000000000000000000000000000000000000000000000000000000000000000000000000000000000000000000000000000000000000000000000000000000000000000000000000000000000000000000000000000000000000000000000000000000000000000000000000000000000000000000000000000000000000000000000000000000000000000000000000000000000000000000000000000000000000000c0"
                    }
                ],
                "rlp": "0xf90281f90215a096065cecfe415a3ec398f4618574cbb483244b08fc5ffc0c8b32ca322924c513a01dcc4de8dec75d7aab85b567b6ccd41ad312451b948a7413f0a142fd40d49347942adc25665018aa1fe0e6bc666dac8fc2697ff9baa01b6bd152fa937070fe0bf2a500710360c5298791574add4ffd41295b9ccfb06ea0579b4c6f99c75cd2ae53be86bedecadbfbf2fd1974ac8fc25effd730fa86a276a0056b23fbba480696b65fe5a59b8f2148a1299103c4f57df839233af2cf4ca2d2b901000000000000000000000000000000000000000000000000000000000000000000000000000000000000000000000000000000000000000000000000000000000000000000000000000000000000000000000000000000000000000000000000000000000000000000000000000000000000000000000000000000000000000000000000000000000000000000000000000000000000000000000000000000000000000000000000000000000000000000000000000000000000000000000000000000000000000000000000000000000000000000000000000000000000000000000000000000000000000000000000000000000000000000000000000000000080028407270e008252081880a0000000000000000000000000000000000000000000000000000000000000000088000000000000000007a056e81f171bcc55a6ff8345e692c0f86e5b48e01b996cadc001622fb5e363b421f865f86380843b9aca0082520894c0f6dc9e5836f54caadbf59cc69346c508e1992b808026a0830fb54ce91ab011c2730defe3410be6a7a7f9f9db6049701d1657e50fafd061a056af7696e6fbe433bf1949af2e1afc7496a34028453ab98c2950bd6a436301a9c0c0",
                "blocknumber": "2"
            }
        ],
        "sealEngine": "NoProof",
        "_info": {
            "hash": "0x5310785ecbbc563f55812d96e128bea2da37cb91f70c92d2af72c50ad0fba169",
            "fixture-format": "blockchain_test",
            "comment": "`execution-specs` generated test",
            "filling-transition-tool": "2.19.0",
            "description": "Test class documentation:\n\nTest that the value from a withdrawal can be used in a transaction.\n\n1. `tx_in_withdrawals_block`: Test that the withdrawal value can not be\nused by a transaction in the same block as the withdrawal.\n\n2. `tx_after_withdrawals_block`: Test that the withdrawal value can be used\nby a transaction in the subsequent block.\n\n\nTest sending withdrawal value in a transaction.",
            "url": "https://github.com/ethereum/execution-specs/blob/tests-bal@v5.4.0/tests/shanghai/eip4895_withdrawals/test_withdrawals.py#L131",
            "opcode_count": {},
            "reference-spec": "https://github.com/ethereum/EIPs/blob/master/EIPS/eip-4895.md",
            "reference-spec-version": "81af3b60b632bc9c03513d1d137f25410e3f4d34"
        }
    },
    "tests/shanghai/eip4895_withdrawals/test_withdrawals.py::TestUseValueInTx::test_use_value_in_tx[fork_Shanghai-blockchain_test-tx_in_withdrawals_block]": {
        "network": "Shanghai",
        "genesisBlockHeader": {
            "parentHash": "0x0000000000000000000000000000000000000000000000000000000000000000",
            "uncleHash": "0x1dcc4de8dec75d7aab85b567b6ccd41ad312451b948a7413f0a142fd40d49347",
            "coinbase": "0x0000000000000000000000000000000000000000",
            "stateRoot": "0x6108977fe05c469362f1f2fb86456f07a8d22fbc0edd9632b7566a086985dbd4",
            "transactionsTrie": "0x56e81f171bcc55a6ff8345e692c0f86e5b48e01b996cadc001622fb5e363b421",
            "receiptTrie": "0x56e81f171bcc55a6ff8345e692c0f86e5b48e01b996cadc001622fb5e363b421",
            "bloom": "0x00000000000000000000000000000000000000000000000000000000000000000000000000000000000000000000000000000000000000000000000000000000000000000000000000000000000000000000000000000000000000000000000000000000000000000000000000000000000000000000000000000000000000000000000000000000000000000000000000000000000000000000000000000000000000000000000000000000000000000000000000000000000000000000000000000000000000000000000000000000000000000000000000000000000000000000000000000000000000000000000000000000000000000000000000000000",
            "difficulty": "0x00",
            "number": "0x00",
            "gasLimit": "0x07270e00",
            "gasUsed": "0x00",
            "timestamp": "0x00",
            "extraData": "0x00",
            "mixHash": "0x0000000000000000000000000000000000000000000000000000000000000000",
            "nonce": "0x0000000000000000",
            "baseFeePerGas": "0x07",
            "withdrawalsRoot": "0x56e81f171bcc55a6ff8345e692c0f86e5b48e01b996cadc001622fb5e363b421",
            "hash": "0x21201117b5339e81bc9783faf1ac5d0213fb68eeca80a4fa73869714f9ed1f37"
        },
        "pre": {
            "0xf36afef4dcb45e52f80cb039335952f77cec8960": {
                "nonce": "0x00",
                "balance": "0x01",
                "code": "0x",
                "storage": {}
            }
        },
        "postState": {
            "0xf36afef4dcb45e52f80cb039335952f77cec8960": {
                "nonce": "0x00",
                "balance": "0x01",
                "code": "0x",
                "storage": {}
            }
        },
        "lastblockhash": "0x21201117b5339e81bc9783faf1ac5d0213fb68eeca80a4fa73869714f9ed1f37",
        "config": {
            "network": "Shanghai",
            "chainid": "0x01"
        },
        "genesisRLP": "0xf90219f90213a00000000000000000000000000000000000000000000000000000000000000000a01dcc4de8dec75d7aab85b567b6ccd41ad312451b948a7413f0a142fd40d49347940000000000000000000000000000000000000000a06108977fe05c469362f1f2fb86456f07a8d22fbc0edd9632b7566a086985dbd4a056e81f171bcc55a6ff8345e692c0f86e5b48e01b996cadc001622fb5e363b421a056e81f171bcc55a6ff8345e692c0f86e5b48e01b996cadc001622fb5e363b421b901000000000000000000000000000000000000000000000000000000000000000000000000000000000000000000000000000000000000000000000000000000000000000000000000000000000000000000000000000000000000000000000000000000000000000000000000000000000000000000000000000000000000000000000000000000000000000000000000000000000000000000000000000000000000000000000000000000000000000000000000000000000000000000000000000000000000000000000000000000000000000000000000000000000000000000000000000000000000000000000000000000000000000000000000000000000080808407270e00808000a0000000000000000000000000000000000000000000000000000000000000000088000000000000000007a056e81f171bcc55a6ff8345e692c0f86e5b48e01b996cadc001622fb5e363b421c0c0c0",
        "blocks": [
            {
                "rlp": "0xf9029af90213a021201117b5339e81bc9783faf1ac5d0213fb68eeca80a4fa73869714f9ed1f37a01dcc4de8dec75d7aab85b567b6ccd41ad312451b948a7413f0a142fd40d49347942adc25665018aa1fe0e6bc666dac8fc2697ff9baa0d23daa3d10f50ef4f04b13836c877cbf043747fd49f3fec0578fd79a225e5237a0579b4c6f99c75cd2ae53be86bedecadbfbf2fd1974ac8fc25effd730fa86a276a056e81f171bcc55a6ff8345e692c0f86e5b48e01b996cadc001622fb5e363b421b901000000000000000000000000000000000000000000000000000000000000000000000000000000000000000000000000000000000000000000000000000000000000000000000000000000000000000000000000000000000000000000000000000000000000000000000000000000000000000000000000000000000000000000000000000000000000000000000000000000000000000000000000000000000000000000000000000000000000000000000000000000000000000000000000000000000000000000000000000000000000000000000000000000000000000000000000000000000000000000000000000000000000000000000000000000000080018407270e00800c80a0000000000000000000000000000000000000000000000000000000000000000088000000000000000007a0eea2e6999098a9c7c44b8d8f37c7235c436a6a5becbc46b22b9e79b240338d9ff865f86380843b9aca0082520894c0f6dc9e5836f54caadbf59cc69346c508e1992b808026a0830fb54ce91ab011c2730defe3410be6a7a7f9f9db6049701d1657e50fafd061a056af7696e6fbe433bf1949af2e1afc7496a34028453ab98c2950bd6a436301a9c0dbda808094f36afef4dcb45e52f80cb039335952f77cec8960825209",
                "expectException": "TransactionException.INSUFFICIENT_ACCOUNT_FUNDS",
                "rlp_decoded": {
                    "blockHeader": {
                        "parentHash": "0x21201117b5339e81bc9783faf1ac5d0213fb68eeca80a4fa73869714f9ed1f37",
                        "uncleHash": "0x1dcc4de8dec75d7aab85b567b6ccd41ad312451b948a7413f0a142fd40d49347",
                        "coinbase": "0x2adc25665018aa1fe0e6bc666dac8fc2697ff9ba",
                        "stateRoot": "0xd23daa3d10f50ef4f04b13836c877cbf043747fd49f3fec0578fd79a225e5237",
                        "transactionsTrie": "0x579b4c6f99c75cd2ae53be86bedecadbfbf2fd1974ac8fc25effd730fa86a276",
                        "receiptTrie": "0x56e81f171bcc55a6ff8345e692c0f86e5b48e01b996cadc001622fb5e363b421",
                        "bloom": "0x00000000000000000000000000000000000000000000000000000000000000000000000000000000000000000000000000000000000000000000000000000000000000000000000000000000000000000000000000000000000000000000000000000000000000000000000000000000000000000000000000000000000000000000000000000000000000000000000000000000000000000000000000000000000000000000000000000000000000000000000000000000000000000000000000000000000000000000000000000000000000000000000000000000000000000000000000000000000000000000000000000000000000000000000000000000",
                        "difficulty": "0x00",
                        "number": "0x01",
                        "gasLimit": "0x07270e00",
                        "gasUsed": "0x00",
                        "timestamp": "0x0c",
                        "extraData": "0x",
                        "mixHash": "0x0000000000000000000000000000000000000000000000000000000000000000",
                        "nonce": "0x0000000000000000",
                        "baseFeePerGas": "0x07",
                        "withdrawalsRoot": "0xeea2e6999098a9c7c44b8d8f37c7235c436a6a5becbc46b22b9e79b240338d9f",
                        "hash": "0x7abfbdb6c797102f5c694d3dea87bdcd48f84766f4377b659d21d093a9221353"
                    },
                    "transactions": [
                        {
                            "type": "0x00",
                            "chainId": "0x01",
                            "nonce": "0x00",
                            "gasPrice": "0x3b9aca00",
                            "gasLimit": "0x5208",
                            "to": "0xc0f6dc9e5836f54caadbf59cc69346c508e1992b",
                            "value": "0x00",
                            "data": "0x",
                            "v": "0x26",
                            "r": "0x830fb54ce91ab011c2730defe3410be6a7a7f9f9db6049701d1657e50fafd061",
                            "s": "0x56af7696e6fbe433bf1949af2e1afc7496a34028453ab98c2950bd6a436301a9",
                            "sender": "0xf36afef4dcb45e52f80cb039335952f77cec8960"
                        }
                    ],
                    "uncleHeaders": [],
                    "withdrawals": [
                        {
                            "index": "0x00",
                            "validatorIndex": "0x00",
                            "address": "0xf36afef4dcb45e52f80cb039335952f77cec8960",
                            "amount": "0x5209"
                        }
                    ],
                    "blocknumber": "1"
                }
            }
        ],
        "sealEngine": "NoProof",
        "_info": {
            "hash": "0x32c21ced3f0b178b0c4a960061b1488538290dd8b75e3dd718a621b6040ef97f",
            "fixture-format": "blockchain_test",
            "comment": "`execution-specs` generated test",
            "filling-transition-tool": "2.19.0",
            "description": "Test class documentation:\n\nTest that the value from a withdrawal can be used in a transaction.\n\n1. `tx_in_withdrawals_block`: Test that the withdrawal value can not be\nused by a transaction in the same block as the withdrawal.\n\n2. `tx_after_withdrawals_block`: Test that the withdrawal value can be used\nby a transaction in the subsequent block.\n\n\nTest sending withdrawal value in a transaction.",
            "url": "https://github.com/ethereum/execution-specs/blob/tests-bal@v5.4.0/tests/shanghai/eip4895_withdrawals/test_withdrawals.py#L131",
            "opcode_count": {},
            "reference-spec": "https://github.com/ethereum/EIPs/blob/master/EIPS/eip-4895.md",
            "reference-spec-version": "81af3b60b632bc9c03513d1d137f25410e3f4d34"
        }
    }
}