{
    "tests/shanghai/eip4895_withdrawals/test_withdrawals.py::test_self_destructing_account[fork_Shanghai-blockchain_test]": {
        "network": "Shanghai",
        "genesisBlockHeader": {
            "parentHash": "0x0000000000000000000000000000000000000000000000000000000000000000",
            "uncleHash": "0x1dcc4de8dec75d7aab85b567b6ccd41ad312451b948a7413f0a142fd40d49347",
            "coinbase": "0x0000000000000000000000000000000000000000",
            "stateRoot": "0x5543f0c1d7992b4f265aa5b6db34c5c5d1491a0f08c46430bf17ff8811647671",
            "transactionsTrie": "0x56e81f171bcc55a6ff8345e692c0f86e5b48e01b996cadc001622fb5e363b421",
            "receiptTrie": "0x56e81f171bcc55a6ff8345e692c0f86e5b48e01b996cadc001622fb5e363b421",
            "bloom": "0x00000000000000000000000000000000000000000000000000000000000000000000000000000000000000000000000000000000000000000000000000000000000000000000000000000000000000000000000000000000000000000000000000000000000000000000000000000000000000000000000000000000000000000000000000000000000000000000000000000000000000000000000000000000000000000000000000000000000000000000000000000000000000000000000000000000000000000000000000000000000000000000000000000000000000000000000000000000000000000000000000000000000000000000000000000000",
            "difficulty": "0x00",
            "number": "0x00",
            "gasLimit": "0x07270e00",
            "gasUsed": "0x00",
            "timestamp": "0x00",
            "extraData": "0x00",
            "mixHash": "0x0000000000000000000000000000000000000000000000000000000000000000",
            "nonce": "0x0000000000000000",
            "baseFeePerGas": "0x07",
            "withdrawalsRoot": "0x56e81f171bcc55a6ff8345e692c0f86e5b48e01b996cadc001622fb5e363b421",
            "hash": "0x77c8d2ac1a1fed7271503756118e37ff69f8515872488c17387f686d3966af25"
        },
        "pre": {
            "0x1ad9bc24818784172ff393bb6f89f094d4d2ca29": {
                "nonce": "0x00",
                "balance": "0x3635c9adc5dea00000",
                "code": "0x",
                "storage": {}
            },
            "0xf36afef4dcb45e52f80cb039335952f77cec8960": {
                "nonce": "0x00",
                "balance": "0x01",
                "code": "0x",
                "storage": {}
            },
            "0x5ee2ccc64ff060827c543c8a37bd0a920905f520": {
                "nonce": "0x01",
                "balance": "0x174876e800",
                "code": "0x600035ff",
                "storage": {}
            }
        },
        "postState": {
            "0x1ad9bc24818784172ff393bb6f89f094d4d2ca29": {
                "nonce": "0x01",
                "balance": "0x3635c9adc5de9b9434",
                "code": "0x",
                "storage": {}
            },
            "0xf36afef4dcb45e52f80cb039335952f77cec8960": {
                "nonce": "0x00",
                "balance": "0x174876e801",
                "code": "0x",
                "storage": {}
            },
            "0x2adc25665018aa1fe0e6bc666dac8fc2697ff9ba": {
                "nonce": "0x00",
                "balance": "0x01538a",
                "code": "0x",
                "storage": {}
            },
            "0x5ee2ccc64ff060827c543c8a37bd0a920905f520": {
                "nonce": "0x00",
                "balance": "0x170cdc1e00",
                "code": "0x",
                "storage": {}
            }
        },
        "lastblockhash": "0xc75587c45c8e993398f2ff1281813a265e4f1d9d1e9c6ffb82d8a9f9e4063fe7",
        "config": {
            "network": "Shanghai",
            "chainid": "0x01"
        },
        "genesisRLP": "0xf90219f90213a00000000000000000000000000000000000000000000000000000000000000000a01dcc4de8dec75d7aab85b567b6ccd41ad312451b948a7413f0a142fd40d49347940000000000000000000000000000000000000000a05543f0c1d7992b4f265aa5b6db34c5c5d1491a0f08c46430bf17ff8811647671a056e81f171bcc55a6ff8345e692c0f86e5b48e01b996cadc001622fb5e363b421a056e81f171bcc55a6ff8345e692c0f86e5b48e01b996cadc001622fb5e363b421b901000000000000000000000000000000000000000000000000000000000000000000000000000000000000000000000000000000000000000000000000000000000000000000000000000000000000000000000000000000000000000000000000000000000000000000000000000000000000000000000000000000000000000000000000000000000000000000000000000000000000000000000000000000000000000000000000000000000000000000000000000000000000000000000000000000000000000000000000000000000000000000000000000000000000000000000000000000000000000000000000000000000000000000000000000000000080808407270e00808000a0000000000000000000000000000000000000000000000000000000000000000088000000000000000007a056e81f171bcc55a6ff8345e692c0f86e5b48e01b996cadc001622fb5e363b421c0c0c0",
        "blocks": [
            {
                "blockHeader": {
                    "parentHash": "0x77c8d2ac1a1fed7271503756118e37ff69f8515872488c17387f686d3966af25",
                    "uncleHash": "0x1dcc4de8dec75d7aab85b567b6ccd41ad312451b948a7413f0a142fd40d49347",
                    "coinbase": "0x2adc25665018aa1fe0e6bc666dac8fc2697ff9ba",
                    "stateRoot": "0xece0adc2579fe2decd196719d5a381deae97734f04e1323b5ed9d2aee7ebedf7",
                    "transactionsTrie": "0x7652ff921ffb9e396c7c674856e6457d6d4e4252a48303df66223df55f9bdb3c",
                    "receiptTrie": "0x1e4d70a492ae5b022afd3a50bf09c7915a4d7732c50aaab5e77a38ad10853e88",
                    "bloom": "0x00000000000000000000000000000000000000000000000000000000000000000000000000000000000000000000000000000000000000000000000000000000000000000000000000000000000000000000000000000000000000000000000000000000000000000000000000000000000000000000000000000000000000000000000000000000000000000000000000000000000000000000000000000000000000000000000000000000000000000000000000000000000000000000000000000000000000000000000000000000000000000000000000000000000000000000000000000000000000000000000000000000000000000000000000000000",
                    "difficulty": "0x00",
                    "number": "0x01",
                    "gasLimit": "0x07270e00",
                    "gasUsed": "0x712e",
                    "timestamp": "0x0c",
                    "extraData": "0x",
                    "mixHash": "0x0000000000000000000000000000000000000000000000000000000000000000",
                    "nonce": "0x0000000000000000",
                    "baseFeePerGas": "0x07",
                    "withdrawalsRoot": "0xf125260a29d8b8f572c7b44daa46ddad58ecd70efce1c4375933e2a5bdeeb9d6",
                    "hash": "0xc75587c45c8e993398f2ff1281813a265e4f1d9d1e9c6ffb82d8a9f9e4063fe7"
                },
                "transactions": [
                    {
                        "type": "0x00",
                        "chainId": "0x01",
                        "nonce": "0x00",
                        "gasPrice": "0x0a",
                        "gasLimit": "0x0186a0",
                        "to": "0x5ee2ccc64ff060827c543c8a37bd0a920905f520",
                        "value": "0x00",
                        "data": "0x000000000000000000000000f36afef4dcb45e52f80cb039335952f77cec8960",
                        "v": "0x26",
                        "r": "0x98fb677abcaef6bf3d3388e42e14b5ccee8133c38f25e07ffd6e4f5cea0fa044",
                        "s": "0x6e27540aeeace576b6cf44cc6928993a9006ea57b5e1aed080c8c0b9ed2bac2e",
                        "sender": "0x1ad9bc24818784172ff393bb6f89f094d4d2ca29"
                    }
                ],
                "uncleHeaders": [],
                "withdrawals": [
                    {
                        "index": "0x00",
                        "validatorIndex": "0x00",
                        "address": "0x5ee2ccc64ff060827c543c8a37bd0a920905f520",
                        "amount": "0x63"
                    }
                ],
                "receipts": [
                    {
                        "transactionHash": "0x30733d995b4cc66e67195b849d59b56c2de7a584a729f265cd824e04083e9d5e",
                        "type": "0x00",
                        "cumulativeGasUsed": "0x712e",
                        "bloom": "0x00000000000000000000000000000000000000000000000000000000000000000000000000000000000000000000000000000000000000000000000000000000000000000000000000000000000000000000000000000000000000000000000000000000000000000000000000000000000000000000000000000000000000000000000000000000000000000000000000000000000000000000000000000000000000000000000000000000000000000000000000000000000000000000000000000000000000000000000000000000000000000000000000000000000000000000000000000000000000000000000000000000000000000000000000000000",
                        "logs": [],
                        "status": true,
                        "rlp": "0xf901080182712eb9010000000000000000000000000000000000000000000000000000000000000000000000000000000000000000000000000000000000000000000000000000000000000000000000000000000000000000000000000000000000000000000000000000000000000000000000000000000000000000000000000000000000000000000000000000000000000000000000000000000000000000000000000000000000000000000000000000000000000000000000000000000000000000000000000000000000000000000000000000000000000000000000000000000000000000000000000000000000000000000000000000000000000000000000000000000000c0"
                    }
                ],
                "rlp": "0xf902b7f90215a077c8d2ac1a1fed7271503756118e37ff69f8515872488c17387f686d3966af25a01dcc4de8dec75d7aab85b567b6ccd41ad312451b948a7413f0a142fd40d49347942adc25665018aa1fe0e6bc666dac8fc2697ff9baa0ece0adc2579fe2decd196719d5a381deae97734f04e1323b5ed9d2aee7ebedf7a07652ff921ffb9e396c7c674856e6457d6d4e4252a48303df66223df55f9bdb3ca01e4d70a492ae5b022afd3a50bf09c7915a4d7732c50aaab5e77a38ad10853e88b901000000000000000000000000000000000000000000000000000000000000000000000000000000000000000000000000000000000000000000000000000000000000000000000000000000000000000000000000000000000000000000000000000000000000000000000000000000000000000000000000000000000000000000000000000000000000000000000000000000000000000000000000000000000000000000000000000000000000000000000000000000000000000000000000000000000000000000000000000000000000000000000000000000000000000000000000000000000000000000000000000000000000000000000000000000000080018407270e0082712e0c80a0000000000000000000000000000000000000000000000000000000000000000088000000000000000007a0f125260a29d8b8f572c7b44daa46ddad58ecd70efce1c4375933e2a5bdeeb9d6f882f880800a830186a0945ee2ccc64ff060827c543c8a37bd0a920905f52080a0000000000000000000000000f36afef4dcb45e52f80cb039335952f77cec896026a098fb677abcaef6bf3d3388e42e14b5ccee8133c38f25e07ffd6e4f5cea0fa044a06e27540aeeace576b6cf44cc6928993a9006ea57b5e1aed080c8c0b9ed2bac2ec0d9d88080945ee2ccc64ff060827c543c8a37bd0a920905f52063",
                "blocknumber": "1"
            }
        ],
        "sealEngine": "NoProof",
        "_info": {
            "hash": "0x31aad0d25c4b40003ab7edf4f7fa0efd26dbdbf2e800008d64a55af211e2dde7",
            "fixture-format": "blockchain_test",
            "comment": "`execution-specs` generated test",
            "filling-transition-tool": "2.19.0",
            "description": "Test withdrawals can be done to self-destructed accounts.\n\nAccount `0x100` self-destructs and sends all its balance to `0x200`. Then,\na withdrawal is received at `0x100` with 99 wei.",
            "url": "https://github.com/ethereum/execution-specs/blob/tests-bal@v5.5.1/tests/shanghai/eip4895_withdrawals/test_withdrawals.py#L413",
            "opcode_count": {},
            "reference-spec": "https://github.com/ethereum/EIPs/blob/master/EIPS/eip-4895.md",
            "reference-spec-version": "81af3b60b632bc9c03513d1d137f25410e3f4d34"
        }
    }
}