{
    "tests/static/state_tests/stDelegatecallTestHomestead/callOutput3partialFiller.json::callOutput3partial[fork_Cancun-state_test-]": {
        "env": {
            "currentCoinbase": "0x2adc25665018aa1fe0e6bc666dac8fc2697ff9ba",
            "currentGasLimit": "0x0f4240",
            "currentNumber": "0x01",
            "currentTimestamp": "0x03e8",
            "currentRandom": "0x0000000000000000000000000000000000000000000000000000000000020000",
            "currentDifficulty": "0x00",
            "currentBaseFee": "0x0a",
            "currentExcessBlobGas": "0x00"
        },
        "pre": {
            "0x6557ec23c6892e3972561596ad05d85915a910fe": {
                "nonce": "0x00",
                "balance": "0x0de0b6b3a7640000",
                "code": "0x6001600101600055",
                "storage": {}
            },
            "0x6557ec23c6892e3972561596ad05d85915a911fe": {
                "nonce": "0x00",
                "balance": "0x0de0b6b3a7640000",
                "code": "0x7f5e20a0453cecd065ea59c37ac63e079ee08998b6045136a8ce6635c7912ec0b6600052600a600060006000736557ec23c6892e3972561596ad05d85915a910fe61c350f45060005160005500",
                "storage": {}
            },
            "0x4ae6cfda0f75c556f884d1251fd302a78ea7a349": {
                "nonce": "0x00",
                "balance": "0x0de0b6b3a7640000",
                "code": "0x",
                "storage": {}
            }
        },
        "transaction": {
            "nonce": "0x00",
            "gasPrice": "0x0a",
            "gasLimit": [
                "0x0dbba0"
            ],
            "to": "0x6557ec23c6892e3972561596ad05d85915a911fe",
            "value": [
                "0x0186a0"
            ],
            "data": [
                "0x"
            ],
            "sender": "0x4ae6cfda0f75c556f884d1251fd302a78ea7a349",
            "secretKey": "0xfd33cbf75a8bc004741cbdee6557ec23c6892e3972561596ad05d85915a910fe"
        },
        "post": {
            "Cancun": [
                {
                    "hash": "0x41cc3ae059ad43a9628591e763bb920706e0f8505eafc8ea78e84d7b7b31e23b",
                    "logs": "0x1dcc4de8dec75d7aab85b567b6ccd41ad312451b948a7413f0a142fd40d49347",
                    "txbytes": "0xf863800a830dbba0946557ec23c6892e3972561596ad05d85915a911fe830186a08026a0ad0296977c21c6585cc7da84312ae1a1cef031a11f341ede1fb365f1b8b9e977a014b2474fbf433246c78d39e54aa5e3ed248ae8a736d7ca9a5c14023bd6cbe225",
                    "indexes": {
                        "data": 0,
                        "gas": 0,
                        "value": 0
                    },
                    "state": {
                        "0x6557ec23c6892e3972561596ad05d85915a910fe": {
                            "nonce": "0x00",
                            "balance": "0x0de0b6b3a7640000",
                            "code": "0x6001600101600055",
                            "storage": {}
                        },
                        "0x6557ec23c6892e3972561596ad05d85915a911fe": {
                            "nonce": "0x00",
                            "balance": "0x0de0b6b3a76586a0",
                            "code": "0x7f5e20a0453cecd065ea59c37ac63e079ee08998b6045136a8ce6635c7912ec0b6600052600a600060006000736557ec23c6892e3972561596ad05d85915a910fe61c350f45060005160005500",
                            "storage": {
                                "0x00": "0x5e20a0453cecd065ea59c37ac63e079ee08998b6045136a8ce6635c7912ec0b6"
                            }
                        },
                        "0x4ae6cfda0f75c556f884d1251fd302a78ea7a349": {
                            "nonce": "0x01",
                            "balance": "0x0de0b6b3a75b7a3e",
                            "code": "0x",
                            "storage": {}
                        }
                    }
                }
            ]
        },
        "config": {
            "blobSchedule": {
                "Cancun": {
                    "target": "0x03",
                    "max": "0x06",
                    "baseFeeUpdateFraction": "0x32f0ed"
                }
            },
            "chainid": "0x01"
        },
        "_info": {
            "hash": "0xf8cad46a332178582496241968181ac572501146019b683f8e0d3ba0583e86a2",
            "comment": "`execution-specs` generated test",
            "filling-transition-tool": "2.18.0rc6",
            "description": "No description available - add a docstring to the python test class or function.",
            "url": "",
            "fixture-format": "state_test"
        }
    },
    "tests/static/state_tests/stDelegatecallTestHomestead/callOutput3partialFiller.json::callOutput3partial[fork_Osaka-state_test-]": {
        "env": {
            "currentCoinbase": "0x2adc25665018aa1fe0e6bc666dac8fc2697ff9ba",
            "currentGasLimit": "0x0f4240",
            "currentNumber": "0x01",
            "currentTimestamp": "0x03e8",
            "currentRandom": "0x0000000000000000000000000000000000000000000000000000000000020000",
            "currentDifficulty": "0x00",
            "currentBaseFee": "0x0a",
            "currentExcessBlobGas": "0x00"
        },
        "pre": {
            "0x6557ec23c6892e3972561596ad05d85915a910fe": {
                "nonce": "0x00",
                "balance": "0x0de0b6b3a7640000",
                "code": "0x6001600101600055",
                "storage": {}
            },
            "0x6557ec23c6892e3972561596ad05d85915a911fe": {
                "nonce": "0x00",
                "balance": "0x0de0b6b3a7640000",
                "code": "0x7f5e20a0453cecd065ea59c37ac63e079ee08998b6045136a8ce6635c7912ec0b6600052600a600060006000736557ec23c6892e3972561596ad05d85915a910fe61c350f45060005160005500",
                "storage": {}
            },
            "0x4ae6cfda0f75c556f884d1251fd302a78ea7a349": {
                "nonce": "0x00",
                "balance": "0x0de0b6b3a7640000",
                "code": "0x",
                "storage": {}
            }
        },
        "transaction": {
            "nonce": "0x00",
            "gasPrice": "0x0a",
            "gasLimit": [
                "0x0dbba0"
            ],
            "to": "0x6557ec23c6892e3972561596ad05d85915a911fe",
            "value": [
                "0x0186a0"
            ],
            "data": [
                "0x"
            ],
            "sender": "0x4ae6cfda0f75c556f884d1251fd302a78ea7a349",
            "secretKey": "0xfd33cbf75a8bc004741cbdee6557ec23c6892e3972561596ad05d85915a910fe"
        },
        "post": {
            "Osaka": [
                {
                    "hash": "0x41cc3ae059ad43a9628591e763bb920706e0f8505eafc8ea78e84d7b7b31e23b",
                    "logs": "0x1dcc4de8dec75d7aab85b567b6ccd41ad312451b948a7413f0a142fd40d49347",
                    "txbytes": "0xf863800a830dbba0946557ec23c6892e3972561596ad05d85915a911fe830186a08026a0ad0296977c21c6585cc7da84312ae1a1cef031a11f341ede1fb365f1b8b9e977a014b2474fbf433246c78d39e54aa5e3ed248ae8a736d7ca9a5c14023bd6cbe225",
                    "indexes": {
                        "data": 0,
                        "gas": 0,
                        "value": 0
                    },
                    "state": {
                        "0x6557ec23c6892e3972561596ad05d85915a910fe": {
                            "nonce": "0x00",
                            "balance": "0x0de0b6b3a7640000",
                            "code": "0x6001600101600055",
                            "storage": {}
                        },
                        "0x6557ec23c6892e3972561596ad05d85915a911fe": {
                            "nonce": "0x00",
                            "balance": "0x0de0b6b3a76586a0",
                            "code": "0x7f5e20a0453cecd065ea59c37ac63e079ee08998b6045136a8ce6635c7912ec0b6600052600a600060006000736557ec23c6892e3972561596ad05d85915a910fe61c350f45060005160005500",
                            "storage": {
                                "0x00": "0x5e20a0453cecd065ea59c37ac63e079ee08998b6045136a8ce6635c7912ec0b6"
                            }
                        },
                        "0x4ae6cfda0f75c556f884d1251fd302a78ea7a349": {
                            "nonce": "0x01",
                            "balance": "0x0de0b6b3a75b7a3e",
                            "code": "0x",
                            "storage": {}
                        }
                    }
                }
            ]
        },
        "config": {
            "blobSchedule": {
                "Cancun": {
                    "target": "0x03",
                    "max": "0x06",
                    "baseFeeUpdateFraction": "0x32f0ed"
                },
                "Prague": {
                    "target": "0x06",
                    "max": "0x09",
                    "baseFeeUpdateFraction": "0x4c6964"
                },
                "Osaka": {
                    "target": "0x06",
                    "max": "0x09",
                    "baseFeeUpdateFraction": "0x4c6964"
                }
            },
            "chainid": "0x01"
        },
        "_info": {
            "hash": "0x25a18ff77cf3b9a22467eb7a7a3c92249ee4de89b732161faf1c6a135f08adc8",
            "comment": "`execution-specs` generated test",
            "filling-transition-tool": "2.18.0rc6",
            "description": "No description available - add a docstring to the python test class or function.",
            "url": "",
            "fixture-format": "state_test"
        }
    },
    "tests/static/state_tests/stDelegatecallTestHomestead/callOutput3partialFiller.json::callOutput3partial[fork_Prague-state_test-]": {
        "env": {
            "currentCoinbase": "0x2adc25665018aa1fe0e6bc666dac8fc2697ff9ba",
            "currentGasLimit": "0x0f4240",
            "currentNumber": "0x01",
            "currentTimestamp": "0x03e8",
            "currentRandom": "0x0000000000000000000000000000000000000000000000000000000000020000",
            "currentDifficulty": "0x00",
            "currentBaseFee": "0x0a",
            "currentExcessBlobGas": "0x00"
        },
        "pre": {
            "0x6557ec23c6892e3972561596ad05d85915a910fe": {
                "nonce": "0x00",
                "balance": "0x0de0b6b3a7640000",
                "code": "0x6001600101600055",
                "storage": {}
            },
            "0x6557ec23c6892e3972561596ad05d85915a911fe": {
                "nonce": "0x00",
                "balance": "0x0de0b6b3a7640000",
                "code": "0x7f5e20a0453cecd065ea59c37ac63e079ee08998b6045136a8ce6635c7912ec0b6600052600a600060006000736557ec23c6892e3972561596ad05d85915a910fe61c350f45060005160005500",
                "storage": {}
            },
            "0x4ae6cfda0f75c556f884d1251fd302a78ea7a349": {
                "nonce": "0x00",
                "balance": "0x0de0b6b3a7640000",
                "code": "0x",
                "storage": {}
            }
        },
        "transaction": {
            "nonce": "0x00",
            "gasPrice": "0x0a",
            "gasLimit": [
                "0x0dbba0"
            ],
            "to": "0x6557ec23c6892e3972561596ad05d85915a911fe",
            "value": [
                "0x0186a0"
            ],
            "data": [
                "0x"
            ],
            "sender": "0x4ae6cfda0f75c556f884d1251fd302a78ea7a349",
            "secretKey": "0xfd33cbf75a8bc004741cbdee6557ec23c6892e3972561596ad05d85915a910fe"
        },
        "post": {
            "Prague": [
                {
                    "hash": "0x41cc3ae059ad43a9628591e763bb920706e0f8505eafc8ea78e84d7b7b31e23b",
                    "logs": "0x1dcc4de8dec75d7aab85b567b6ccd41ad312451b948a7413f0a142fd40d49347",
                    "txbytes": "0xf863800a830dbba0946557ec23c6892e3972561596ad05d85915a911fe830186a08026a0ad0296977c21c6585cc7da84312ae1a1cef031a11f341ede1fb365f1b8b9e977a014b2474fbf433246c78d39e54aa5e3ed248ae8a736d7ca9a5c14023bd6cbe225",
                    "indexes": {
                        "data": 0,
                        "gas": 0,
                        "value": 0
                    },
                    "state": {
                        "0x6557ec23c6892e3972561596ad05d85915a910fe": {
                            "nonce": "0x00",
                            "balance": "0x0de0b6b3a7640000",
                            "code": "0x6001600101600055",
                            "storage": {}
                        },
                        "0x6557ec23c6892e3972561596ad05d85915a911fe": {
                            "nonce": "0x00",
                            "balance": "0x0de0b6b3a76586a0",
                            "code": "0x7f5e20a0453cecd065ea59c37ac63e079ee08998b6045136a8ce6635c7912ec0b6600052600a600060006000736557ec23c6892e3972561596ad05d85915a910fe61c350f45060005160005500",
                            "storage": {
                                "0x00": "0x5e20a0453cecd065ea59c37ac63e079ee08998b6045136a8ce6635c7912ec0b6"
                            }
                        },
                        "0x4ae6cfda0f75c556f884d1251fd302a78ea7a349": {
                            "nonce": "0x01",
                            "balance": "0x0de0b6b3a75b7a3e",
                            "code": "0x",
                            "storage": {}
                        }
                    }
                }
            ]
        },
        "config": {
            "blobSchedule": {
                "Cancun": {
                    "target": "0x03",
                    "max": "0x06",
                    "baseFeeUpdateFraction": "0x32f0ed"
                },
                "Prague": {
                    "target": "0x06",
                    "max": "0x09",
                    "baseFeeUpdateFraction": "0x4c6964"
                }
            },
            "chainid": "0x01"
        },
        "_info": {
            "hash": "0x1fa57aef9acd32cb81a0e5c836173ae850f08292845756d6199b9c4f8912b692",
            "comment": "`execution-specs` generated test",
            "filling-transition-tool": "2.18.0rc6",
            "description": "No description available - add a docstring to the python test class or function.",
            "url": "",
            "fixture-format": "state_test"
        }
    }
}