{
    "tests/static/state_tests/stDelegatecallTestHomestead/callWithHighValueAndGasOOGFiller.json::callWithHighValueAndGasOOG[fork_Cancun-state_test-]": {
        "env": {
            "currentCoinbase": "0x2adc25665018aa1fe0e6bc666dac8fc2697ff9ba",
            "currentGasLimit": "0x01c9c380",
            "currentNumber": "0x01",
            "currentTimestamp": "0x03e8",
            "currentRandom": "0x0000000000000000000000000000000000000000000000000000000000020000",
            "currentDifficulty": "0x00",
            "currentBaseFee": "0x0a",
            "currentExcessBlobGas": "0x00"
        },
        "pre": {
            "0xaf07c3e0ea6c8cb05587f78a8e62de7e02aa6e57": {
                "nonce": "0x00",
                "balance": "0x0de0b6b3a7640000",
                "code": "0x",
                "storage": {}
            },
            "0xde02b6cc7768ace5b25e5d81ce9d4bf1a0f0d417": {
                "nonce": "0x00",
                "balance": "0x17",
                "code": "0x6001600155603760005360026000f3",
                "storage": {}
            },
            "0xde02b6cc7768ace5b25e5d81ce9d4bf1a0f0d517": {
                "nonce": "0x00",
                "balance": "0x0de0b6b3a7640000",
                "code": "0x7fffffffffffffffffffffffffffffffffffffffffffffffffffffffffffffffff6000527faaffffffffffffffffffffffffffffffffffffffffffffffffffffffffffffaa602052600260006040600073de02b6cc7768ace5b25e5d81ce9d4bf1a0f0d4176bfffffffffffffffffffffffff460005500",
                "storage": {}
            }
        },
        "transaction": {
            "nonce": "0x00",
            "gasPrice": "0x0a",
            "gasLimit": [
                "0x2dc6c0"
            ],
            "to": "0xde02b6cc7768ace5b25e5d81ce9d4bf1a0f0d517",
            "value": [
                "0x0186a0"
            ],
            "data": [
                "0x"
            ],
            "sender": "0xaf07c3e0ea6c8cb05587f78a8e62de7e02aa6e57",
            "secretKey": "0xd221a7f95582f0b7480f7cc3de02b6cc7768ace5b25e5d81ce9d4bf1a0f0d417"
        },
        "post": {
            "Cancun": [
                {
                    "hash": "0x8a57d2a58aaad47c848cf1e66ed9c4b922b1f43962666870088a655786305df9",
                    "logs": "0x1dcc4de8dec75d7aab85b567b6ccd41ad312451b948a7413f0a142fd40d49347",
                    "txbytes": "0xf863800a832dc6c094de02b6cc7768ace5b25e5d81ce9d4bf1a0f0d517830186a08026a08c56d21a8de54289be2948be768dcbd750ffb3e4a09d18818c4fef361257cda4a014dedbc902ede89c55ab368df54c21d1c7a453560e30e9474d46a19c9edd058d",
                    "indexes": {
                        "data": 0,
                        "gas": 0,
                        "value": 0
                    },
                    "state": {
                        "0xaf07c3e0ea6c8cb05587f78a8e62de7e02aa6e57": {
                            "nonce": "0x01",
                            "balance": "0x0de0b6b3a7581e3e",
                            "code": "0x",
                            "storage": {}
                        },
                        "0xde02b6cc7768ace5b25e5d81ce9d4bf1a0f0d417": {
                            "nonce": "0x00",
                            "balance": "0x17",
                            "code": "0x6001600155603760005360026000f3",
                            "storage": {}
                        },
                        "0xde02b6cc7768ace5b25e5d81ce9d4bf1a0f0d517": {
                            "nonce": "0x00",
                            "balance": "0x0de0b6b3a76586a0",
                            "code": "0x7fffffffffffffffffffffffffffffffffffffffffffffffffffffffffffffffff6000527faaffffffffffffffffffffffffffffffffffffffffffffffffffffffffffffaa602052600260006040600073de02b6cc7768ace5b25e5d81ce9d4bf1a0f0d4176bfffffffffffffffffffffffff460005500",
                            "storage": {
                                "0x01": "0x01",
                                "0x00": "0x01"
                            }
                        }
                    }
                }
            ]
        },
        "config": {
            "blobSchedule": {
                "Cancun": {
                    "target": "0x03",
                    "max": "0x06",
                    "baseFeeUpdateFraction": "0x32f0ed"
                }
            },
            "chainid": "0x01"
        },
        "_info": {
            "hash": "0xa2f023a911a676c397431781f9fca34661f45a539a963f68cbee3423b1dfd0e3",
            "comment": "`execution-specs` generated test",
            "filling-transition-tool": "2.18.0rc6",
            "description": "No description available - add a docstring to the python test class or function.",
            "url": "",
            "fixture-format": "state_test"
        }
    },
    "tests/static/state_tests/stDelegatecallTestHomestead/callWithHighValueAndGasOOGFiller.json::callWithHighValueAndGasOOG[fork_Osaka-state_test-]": {
        "env": {
            "currentCoinbase": "0x2adc25665018aa1fe0e6bc666dac8fc2697ff9ba",
            "currentGasLimit": "0x01c9c380",
            "currentNumber": "0x01",
            "currentTimestamp": "0x03e8",
            "currentRandom": "0x0000000000000000000000000000000000000000000000000000000000020000",
            "currentDifficulty": "0x00",
            "currentBaseFee": "0x0a",
            "currentExcessBlobGas": "0x00"
        },
        "pre": {
            "0xaf07c3e0ea6c8cb05587f78a8e62de7e02aa6e57": {
                "nonce": "0x00",
                "balance": "0x0de0b6b3a7640000",
                "code": "0x",
                "storage": {}
            },
            "0xde02b6cc7768ace5b25e5d81ce9d4bf1a0f0d417": {
                "nonce": "0x00",
                "balance": "0x17",
                "code": "0x6001600155603760005360026000f3",
                "storage": {}
            },
            "0xde02b6cc7768ace5b25e5d81ce9d4bf1a0f0d517": {
                "nonce": "0x00",
                "balance": "0x0de0b6b3a7640000",
                "code": "0x7fffffffffffffffffffffffffffffffffffffffffffffffffffffffffffffffff6000527faaffffffffffffffffffffffffffffffffffffffffffffffffffffffffffffaa602052600260006040600073de02b6cc7768ace5b25e5d81ce9d4bf1a0f0d4176bfffffffffffffffffffffffff460005500",
                "storage": {}
            }
        },
        "transaction": {
            "nonce": "0x00",
            "gasPrice": "0x0a",
            "gasLimit": [
                "0x2dc6c0"
            ],
            "to": "0xde02b6cc7768ace5b25e5d81ce9d4bf1a0f0d517",
            "value": [
                "0x0186a0"
            ],
            "data": [
                "0x"
            ],
            "sender": "0xaf07c3e0ea6c8cb05587f78a8e62de7e02aa6e57",
            "secretKey": "0xd221a7f95582f0b7480f7cc3de02b6cc7768ace5b25e5d81ce9d4bf1a0f0d417"
        },
        "post": {
            "Osaka": [
                {
                    "hash": "0x8a57d2a58aaad47c848cf1e66ed9c4b922b1f43962666870088a655786305df9",
                    "logs": "0x1dcc4de8dec75d7aab85b567b6ccd41ad312451b948a7413f0a142fd40d49347",
                    "txbytes": "0xf863800a832dc6c094de02b6cc7768ace5b25e5d81ce9d4bf1a0f0d517830186a08026a08c56d21a8de54289be2948be768dcbd750ffb3e4a09d18818c4fef361257cda4a014dedbc902ede89c55ab368df54c21d1c7a453560e30e9474d46a19c9edd058d",
                    "indexes": {
                        "data": 0,
                        "gas": 0,
                        "value": 0
                    },
                    "state": {
                        "0xaf07c3e0ea6c8cb05587f78a8e62de7e02aa6e57": {
                            "nonce": "0x01",
                            "balance": "0x0de0b6b3a7581e3e",
                            "code": "0x",
                            "storage": {}
                        },
                        "0xde02b6cc7768ace5b25e5d81ce9d4bf1a0f0d417": {
                            "nonce": "0x00",
                            "balance": "0x17",
                            "code": "0x6001600155603760005360026000f3",
                            "storage": {}
                        },
                        "0xde02b6cc7768ace5b25e5d81ce9d4bf1a0f0d517": {
                            "nonce": "0x00",
                            "balance": "0x0de0b6b3a76586a0",
                            "code": "0x7fffffffffffffffffffffffffffffffffffffffffffffffffffffffffffffffff6000527faaffffffffffffffffffffffffffffffffffffffffffffffffffffffffffffaa602052600260006040600073de02b6cc7768ace5b25e5d81ce9d4bf1a0f0d4176bfffffffffffffffffffffffff460005500",
                            "storage": {
                                "0x01": "0x01",
                                "0x00": "0x01"
                            }
                        }
                    }
                }
            ]
        },
        "config": {
            "blobSchedule": {
                "Cancun": {
                    "target": "0x03",
                    "max": "0x06",
                    "baseFeeUpdateFraction": "0x32f0ed"
                },
                "Prague": {
                    "target": "0x06",
                    "max": "0x09",
                    "baseFeeUpdateFraction": "0x4c6964"
                },
                "Osaka": {
                    "target": "0x06",
                    "max": "0x09",
                    "baseFeeUpdateFraction": "0x4c6964"
                }
            },
            "chainid": "0x01"
        },
        "_info": {
            "hash": "0x102480b5f9344113fa5ee6bfe9fdae640de0822145da8a9f64189f9b4723e409",
            "comment": "`execution-specs` generated test",
            "filling-transition-tool": "2.18.0rc6",
            "description": "No description available - add a docstring to the python test class or function.",
            "url": "",
            "fixture-format": "state_test"
        }
    },
    "tests/static/state_tests/stDelegatecallTestHomestead/callWithHighValueAndGasOOGFiller.json::callWithHighValueAndGasOOG[fork_Prague-state_test-]": {
        "env": {
            "currentCoinbase": "0x2adc25665018aa1fe0e6bc666dac8fc2697ff9ba",
            "currentGasLimit": "0x01c9c380",
            "currentNumber": "0x01",
            "currentTimestamp": "0x03e8",
            "currentRandom": "0x0000000000000000000000000000000000000000000000000000000000020000",
            "currentDifficulty": "0x00",
            "currentBaseFee": "0x0a",
            "currentExcessBlobGas": "0x00"
        },
        "pre": {
            "0xaf07c3e0ea6c8cb05587f78a8e62de7e02aa6e57": {
                "nonce": "0x00",
                "balance": "0x0de0b6b3a7640000",
                "code": "0x",
                "storage": {}
            },
            "0xde02b6cc7768ace5b25e5d81ce9d4bf1a0f0d417": {
                "nonce": "0x00",
                "balance": "0x17",
                "code": "0x6001600155603760005360026000f3",
                "storage": {}
            },
            "0xde02b6cc7768ace5b25e5d81ce9d4bf1a0f0d517": {
                "nonce": "0x00",
                "balance": "0x0de0b6b3a7640000",
                "code": "0x7fffffffffffffffffffffffffffffffffffffffffffffffffffffffffffffffff6000527faaffffffffffffffffffffffffffffffffffffffffffffffffffffffffffffaa602052600260006040600073de02b6cc7768ace5b25e5d81ce9d4bf1a0f0d4176bfffffffffffffffffffffffff460005500",
                "storage": {}
            }
        },
        "transaction": {
            "nonce": "0x00",
            "gasPrice": "0x0a",
            "gasLimit": [
                "0x2dc6c0"
            ],
            "to": "0xde02b6cc7768ace5b25e5d81ce9d4bf1a0f0d517",
            "value": [
                "0x0186a0"
            ],
            "data": [
                "0x"
            ],
            "sender": "0xaf07c3e0ea6c8cb05587f78a8e62de7e02aa6e57",
            "secretKey": "0xd221a7f95582f0b7480f7cc3de02b6cc7768ace5b25e5d81ce9d4bf1a0f0d417"
        },
        "post": {
            "Prague": [
                {
                    "hash": "0x8a57d2a58aaad47c848cf1e66ed9c4b922b1f43962666870088a655786305df9",
                    "logs": "0x1dcc4de8dec75d7aab85b567b6ccd41ad312451b948a7413f0a142fd40d49347",
                    "txbytes": "0xf863800a832dc6c094de02b6cc7768ace5b25e5d81ce9d4bf1a0f0d517830186a08026a08c56d21a8de54289be2948be768dcbd750ffb3e4a09d18818c4fef361257cda4a014dedbc902ede89c55ab368df54c21d1c7a453560e30e9474d46a19c9edd058d",
                    "indexes": {
                        "data": 0,
                        "gas": 0,
                        "value": 0
                    },
                    "state": {
                        "0xaf07c3e0ea6c8cb05587f78a8e62de7e02aa6e57": {
                            "nonce": "0x01",
                            "balance": "0x0de0b6b3a7581e3e",
                            "code": "0x",
                            "storage": {}
                        },
                        "0xde02b6cc7768ace5b25e5d81ce9d4bf1a0f0d417": {
                            "nonce": "0x00",
                            "balance": "0x17",
                            "code": "0x6001600155603760005360026000f3",
                            "storage": {}
                        },
                        "0xde02b6cc7768ace5b25e5d81ce9d4bf1a0f0d517": {
                            "nonce": "0x00",
                            "balance": "0x0de0b6b3a76586a0",
                            "code": "0x7fffffffffffffffffffffffffffffffffffffffffffffffffffffffffffffffff6000527faaffffffffffffffffffffffffffffffffffffffffffffffffffffffffffffaa602052600260006040600073de02b6cc7768ace5b25e5d81ce9d4bf1a0f0d4176bfffffffffffffffffffffffff460005500",
                            "storage": {
                                "0x01": "0x01",
                                "0x00": "0x01"
                            }
                        }
                    }
                }
            ]
        },
        "config": {
            "blobSchedule": {
                "Cancun": {
                    "target": "0x03",
                    "max": "0x06",
                    "baseFeeUpdateFraction": "0x32f0ed"
                },
                "Prague": {
                    "target": "0x06",
                    "max": "0x09",
                    "baseFeeUpdateFraction": "0x4c6964"
                }
            },
            "chainid": "0x01"
        },
        "_info": {
            "hash": "0x9b28c26a23aae6d228670d0e96caa8cb11e1838f238f8c4e60caa6cb445a0638",
            "comment": "`execution-specs` generated test",
            "filling-transition-tool": "2.18.0rc6",
            "description": "No description available - add a docstring to the python test class or function.",
            "url": "",
            "fixture-format": "state_test"
        }
    }
}