{
    "tests/ported_static/stStaticCall/test_static_callcodecallcodecall_110_suicide_middle2.py::test_static_callcodecallcodecall_110_suicide_middle2[fork_Cancun-blockchain_test_from_state_test]": {
        "network": "Cancun",
        "genesisBlockHeader": {
            "parentHash": "0x0000000000000000000000000000000000000000000000000000000000000000",
            "uncleHash": "0x1dcc4de8dec75d7aab85b567b6ccd41ad312451b948a7413f0a142fd40d49347",
            "coinbase": "0x0000000000000000000000000000000000000000",
            "stateRoot": "0xc5783ade18e0c03ad2b49cc4bdd3e66a5103994a929bcb974524a5a87f839994",
            "transactionsTrie": "0x56e81f171bcc55a6ff8345e692c0f86e5b48e01b996cadc001622fb5e363b421",
            "receiptTrie": "0x56e81f171bcc55a6ff8345e692c0f86e5b48e01b996cadc001622fb5e363b421",
            "bloom": "0x00000000000000000000000000000000000000000000000000000000000000000000000000000000000000000000000000000000000000000000000000000000000000000000000000000000000000000000000000000000000000000000000000000000000000000000000000000000000000000000000000000000000000000000000000000000000000000000000000000000000000000000000000000000000000000000000000000000000000000000000000000000000000000000000000000000000000000000000000000000000000000000000000000000000000000000000000000000000000000000000000000000000000000000000000000000",
            "difficulty": "0x00",
            "number": "0x00",
            "gasLimit": "0x01c9c380",
            "gasUsed": "0x00",
            "timestamp": "0x00",
            "extraData": "0x00",
            "mixHash": "0x0000000000000000000000000000000000000000000000000000000000000000",
            "nonce": "0x0000000000000000",
            "baseFeePerGas": "0x0b",
            "withdrawalsRoot": "0x56e81f171bcc55a6ff8345e692c0f86e5b48e01b996cadc001622fb5e363b421",
            "blobGasUsed": "0x00",
            "excessBlobGas": "0x00",
            "parentBeaconBlockRoot": "0x0000000000000000000000000000000000000000000000000000000000000000",
            "hash": "0xeb59fee2703f5c7a92a5e0c6dd5933424c7cbcc147a73c3c33fad39533bf2510"
        },
        "pre": {
            "0x000f3df6d732807ef1319fb7b8bb8522d0beac02": {
                "nonce": "0x01",
                "balance": "0x00",
                "code": "0x3373fffffffffffffffffffffffffffffffffffffffe14604d57602036146024575f5ffd5b5f35801560495762001fff810690815414603c575f5ffd5b62001fff01545f5260205ff35b5f5ffd5b62001fff42064281555f359062001fff015500",
                "storage": {}
            },
            "0xd66f224cbd2fabb21b17bb53c56118f32f62ebd6": {
                "nonce": "0x00",
                "balance": "0x0de0b6b3a7640000",
                "code": "0x",
                "storage": {}
            },
            "0x48e2d4c0b593bfebe5ddb4f13aa355b8bd83ddd3": {
                "nonce": "0x00",
                "balance": "0x02540be400",
                "code": "0x600160035200",
                "storage": {}
            },
            "0x44d09ddf088dd88c0e91fa7ef74973ff94ad7414": {
                "nonce": "0x00",
                "balance": "0x0de0b6b3a7640000",
                "code": "0x604060006040600034731d36753cd1d8d4795799d3f4d0925c63f72b2685620249f0f26000555a60015500",
                "storage": {}
            },
            "0x1d36753cd1d8d4795799d3f4d0925c63f72b2685": {
                "nonce": "0x00",
                "balance": "0x02540be400",
                "code": "0x60406000604060003473408f1aceffec7bdaa35d77006cdcaead563bb694620186a0f200",
                "storage": {}
            },
            "0x408f1aceffec7bdaa35d77006cdcaead563bb694": {
                "nonce": "0x00",
                "balance": "0x02540be400",
                "code": "0x7344d09ddf088dd88c0e91fa7ef74973ff94ad7414ff60406000604060007348e2d4c0b593bfebe5ddb4f13aa355b8bd83ddd361c350fa00",
                "storage": {}
            }
        },
        "postState": {
            "0x000f3df6d732807ef1319fb7b8bb8522d0beac02": {
                "nonce": "0x01",
                "balance": "0x00",
                "code": "0x3373fffffffffffffffffffffffffffffffffffffffe14604d57602036146024575f5ffd5b5f35801560495762001fff810690815414603c575f5ffd5b62001fff01545f5260205ff35b5f5ffd5b62001fff42064281555f359062001fff015500",
                "storage": {
                    "0x03e8": "0x03e8"
                }
            },
            "0xd66f224cbd2fabb21b17bb53c56118f32f62ebd6": {
                "nonce": "0x01",
                "balance": "0x0de0b6b3a7587c3a",
                "code": "0x",
                "storage": {}
            },
            "0x48e2d4c0b593bfebe5ddb4f13aa355b8bd83ddd3": {
                "nonce": "0x00",
                "balance": "0x02540be400",
                "code": "0x600160035200",
                "storage": {}
            },
            "0x44d09ddf088dd88c0e91fa7ef74973ff94ad7414": {
                "nonce": "0x00",
                "balance": "0x0de0b6b3a7640000",
                "code": "0x604060006040600034731d36753cd1d8d4795799d3f4d0925c63f72b2685620249f0f26000555a60015500",
                "storage": {
                    "0x00": "0x01",
                    "0x01": "0x2cf650"
                }
            },
            "0x1d36753cd1d8d4795799d3f4d0925c63f72b2685": {
                "nonce": "0x00",
                "balance": "0x02540be400",
                "code": "0x60406000604060003473408f1aceffec7bdaa35d77006cdcaead563bb694620186a0f200",
                "storage": {}
            },
            "0x408f1aceffec7bdaa35d77006cdcaead563bb694": {
                "nonce": "0x00",
                "balance": "0x02540be400",
                "code": "0x7344d09ddf088dd88c0e91fa7ef74973ff94ad7414ff60406000604060007348e2d4c0b593bfebe5ddb4f13aa355b8bd83ddd361c350fa00",
                "storage": {}
            }
        },
        "lastblockhash": "0x5471dc1ba24c570b71b245fc6c885a2793a497d68d4de71b334b9c934118784f",
        "config": {
            "network": "Cancun",
            "chainid": "0x01",
            "blobSchedule": {
                "Cancun": {
                    "target": "0x03",
                    "max": "0x06",
                    "baseFeeUpdateFraction": "0x32f0ed"
                }
            }
        },
        "genesisRLP": "0xf9023cf90236a00000000000000000000000000000000000000000000000000000000000000000a01dcc4de8dec75d7aab85b567b6ccd41ad312451b948a7413f0a142fd40d49347940000000000000000000000000000000000000000a0c5783ade18e0c03ad2b49cc4bdd3e66a5103994a929bcb974524a5a87f839994a056e81f171bcc55a6ff8345e692c0f86e5b48e01b996cadc001622fb5e363b421a056e81f171bcc55a6ff8345e692c0f86e5b48e01b996cadc001622fb5e363b421b901000000000000000000000000000000000000000000000000000000000000000000000000000000000000000000000000000000000000000000000000000000000000000000000000000000000000000000000000000000000000000000000000000000000000000000000000000000000000000000000000000000000000000000000000000000000000000000000000000000000000000000000000000000000000000000000000000000000000000000000000000000000000000000000000000000000000000000000000000000000000000000000000000000000000000000000000000000000000000000000000000000000000000000000000000000000080808401c9c380808000a000000000000000000000000000000000000000000000000000000000000000008800000000000000000ba056e81f171bcc55a6ff8345e692c0f86e5b48e01b996cadc001622fb5e363b4218080a00000000000000000000000000000000000000000000000000000000000000000c0c0c0",
        "blocks": [
            {
                "blockHeader": {
                    "parentHash": "0xeb59fee2703f5c7a92a5e0c6dd5933424c7cbcc147a73c3c33fad39533bf2510",
                    "uncleHash": "0x1dcc4de8dec75d7aab85b567b6ccd41ad312451b948a7413f0a142fd40d49347",
                    "coinbase": "0x2adc25665018aa1fe0e6bc666dac8fc2697ff9ba",
                    "stateRoot": "0x3a9e84662618c02e8f9673eb3ae094e3568cfb12b8bbad580081d0d22e838d34",
                    "transactionsTrie": "0x50dfcf5bbe2896b87d60078b03a7e7130ceca573b3a66a6d12bb9b4a200c9793",
                    "receiptTrie": "0x883a729346217ffad6c0491d67d46d21bf7b246224086224fd8e11d20011e18c",
                    "bloom": "0x00000000000000000000000000000000000000000000000000000000000000000000000000000000000000000000000000000000000000000000000000000000000000000000000000000000000000000000000000000000000000000000000000000000000000000000000000000000000000000000000000000000000000000000000000000000000000000000000000000000000000000000000000000000000000000000000000000000000000000000000000000000000000000000000000000000000000000000000000000000000000000000000000000000000000000000000000000000000000000000000000000000000000000000000000000000",
                    "difficulty": "0x00",
                    "number": "0x01",
                    "gasLimit": "0x01c9c380",
                    "gasUsed": "0x0126c7",
                    "timestamp": "0x03e8",
                    "extraData": "0x00",
                    "mixHash": "0x0000000000000000000000000000000000000000000000000000000000020000",
                    "nonce": "0x0000000000000000",
                    "baseFeePerGas": "0x0a",
                    "withdrawalsRoot": "0x56e81f171bcc55a6ff8345e692c0f86e5b48e01b996cadc001622fb5e363b421",
                    "blobGasUsed": "0x00",
                    "excessBlobGas": "0x00",
                    "parentBeaconBlockRoot": "0x0000000000000000000000000000000000000000000000000000000000000000",
                    "hash": "0x5471dc1ba24c570b71b245fc6c885a2793a497d68d4de71b334b9c934118784f"
                },
                "transactions": [
                    {
                        "type": "0x00",
                        "chainId": "0x01",
                        "nonce": "0x00",
                        "gasPrice": "0x0a",
                        "gasLimit": "0x2dc6c0",
                        "to": "0x44d09ddf088dd88c0e91fa7ef74973ff94ad7414",
                        "value": "0x00",
                        "data": "0x",
                        "v": "0x26",
                        "r": "0x19ff8ed3812e1ec78918eda143708e9387600d7367fd8dbffb37c8dfacab5b09",
                        "s": "0x31fd7473ae05bc8acd4915aa22d08a2778c215fce8de40813d7d008353db57f2",
                        "sender": "0xd66f224cbd2fabb21b17bb53c56118f32f62ebd6"
                    }
                ],
                "uncleHeaders": [],
                "withdrawals": [],
                "receipts": [
                    {
                        "transactionHash": "0x52521a925fe8f322fed72767dca69672c4e6e1fac92b3efadfec2229c0124202",
                        "type": "0x00",
                        "cumulativeGasUsed": "0x0126c7",
                        "bloom": "0x00000000000000000000000000000000000000000000000000000000000000000000000000000000000000000000000000000000000000000000000000000000000000000000000000000000000000000000000000000000000000000000000000000000000000000000000000000000000000000000000000000000000000000000000000000000000000000000000000000000000000000000000000000000000000000000000000000000000000000000000000000000000000000000000000000000000000000000000000000000000000000000000000000000000000000000000000000000000000000000000000000000000000000000000000000000",
                        "logs": [],
                        "status": true,
                        "rlp": "0xf9010901830126c7b9010000000000000000000000000000000000000000000000000000000000000000000000000000000000000000000000000000000000000000000000000000000000000000000000000000000000000000000000000000000000000000000000000000000000000000000000000000000000000000000000000000000000000000000000000000000000000000000000000000000000000000000000000000000000000000000000000000000000000000000000000000000000000000000000000000000000000000000000000000000000000000000000000000000000000000000000000000000000000000000000000000000000000000000000000000000000c0"
                    }
                ],
                "rlp": "0xf902a4f9023ba0eb59fee2703f5c7a92a5e0c6dd5933424c7cbcc147a73c3c33fad39533bf2510a01dcc4de8dec75d7aab85b567b6ccd41ad312451b948a7413f0a142fd40d49347942adc25665018aa1fe0e6bc666dac8fc2697ff9baa03a9e84662618c02e8f9673eb3ae094e3568cfb12b8bbad580081d0d22e838d34a050dfcf5bbe2896b87d60078b03a7e7130ceca573b3a66a6d12bb9b4a200c9793a0883a729346217ffad6c0491d67d46d21bf7b246224086224fd8e11d20011e18cb901000000000000000000000000000000000000000000000000000000000000000000000000000000000000000000000000000000000000000000000000000000000000000000000000000000000000000000000000000000000000000000000000000000000000000000000000000000000000000000000000000000000000000000000000000000000000000000000000000000000000000000000000000000000000000000000000000000000000000000000000000000000000000000000000000000000000000000000000000000000000000000000000000000000000000000000000000000000000000000000000000000000000000000000000000000000080018401c9c380830126c78203e800a000000000000000000000000000000000000000000000000000000000000200008800000000000000000aa056e81f171bcc55a6ff8345e692c0f86e5b48e01b996cadc001622fb5e363b4218080a00000000000000000000000000000000000000000000000000000000000000000f862f860800a832dc6c09444d09ddf088dd88c0e91fa7ef74973ff94ad7414808026a019ff8ed3812e1ec78918eda143708e9387600d7367fd8dbffb37c8dfacab5b09a031fd7473ae05bc8acd4915aa22d08a2778c215fce8de40813d7d008353db57f2c0c0",
                "blocknumber": "1"
            }
        ],
        "sealEngine": "NoProof",
        "_info": {
            "hash": "0xe3c6d0bc77c09b29b1bf8e679e2bdae7569536a45b0545b48472125a40f4f4ab",
            "fixture-format": "blockchain_test",
            "comment": "`execution-specs` generated test",
            "filling-transition-tool": "2.19.0",
            "description": "Test_static_callcodecallcodecall_110_suicide_middle2.",
            "url": "https://github.com/ethereum/execution-specs/blob/tests-snobal-devnet-5@v8037.0.0/tests/ported_static/stStaticCall/test_static_callcodecallcodecall_110_suicide_middle2.py#L24",
            "metadata": {
                "opcode_count": {}
            }
        }
    }
}