{
    "tests/berlin/eip2929_gas_cost_increases/test_warm_status_revert.py::test_storage_warm_status_reverted_by_subcall[fork_Berlin-blockchain_test_from_state_test]": {
        "network": "Berlin",
        "genesisBlockHeader": {
            "parentHash": "0x0000000000000000000000000000000000000000000000000000000000000000",
            "uncleHash": "0x1dcc4de8dec75d7aab85b567b6ccd41ad312451b948a7413f0a142fd40d49347",
            "coinbase": "0x0000000000000000000000000000000000000000",
            "stateRoot": "0xf9c55e0259d74b41824e17a0944b6a4e8592ff72e55fd23ffc3a6be94f389ef3",
            "transactionsTrie": "0x56e81f171bcc55a6ff8345e692c0f86e5b48e01b996cadc001622fb5e363b421",
            "receiptTrie": "0x56e81f171bcc55a6ff8345e692c0f86e5b48e01b996cadc001622fb5e363b421",
            "bloom": "0x00000000000000000000000000000000000000000000000000000000000000000000000000000000000000000000000000000000000000000000000000000000000000000000000000000000000000000000000000000000000000000000000000000000000000000000000000000000000000000000000000000000000000000000000000000000000000000000000000000000000000000000000000000000000000000000000000000000000000000000000000000000000000000000000000000000000000000000000000000000000000000000000000000000000000000000000000000000000000000000000000000000000000000000000000000000",
            "difficulty": "0x020000",
            "number": "0x00",
            "gasLimit": "0x07270e00",
            "gasUsed": "0x00",
            "timestamp": "0x00",
            "extraData": "0x00",
            "mixHash": "0x0000000000000000000000000000000000000000000000000000000000000000",
            "nonce": "0x0000000000000000",
            "hash": "0x872833875af039c4198829e2df4fbfc64936ec3af6db3f0299acccce8eb75745"
        },
        "pre": {
            "0x71a60f2b2a4b707c934256dfc1ca9d7cc10e0e36": {
                "nonce": "0x01",
                "balance": "0x00",
                "code": "0x36601658015760005450600260005560006000fd60315801565b6000600060006000600030620186a0f1505a6000545a9050900360035a5a9003019003600155600054600255005b",
                "storage": {
                    "0x00": "0x01"
                }
            },
            "0x1ad9bc24818784172ff393bb6f89f094d4d2ca29": {
                "nonce": "0x00",
                "balance": "0x3635c9adc5dea00000",
                "code": "0x",
                "storage": {}
            }
        },
        "postState": {
            "0x71a60f2b2a4b707c934256dfc1ca9d7cc10e0e36": {
                "nonce": "0x01",
                "balance": "0x00",
                "code": "0x36601658015760005450600260005560006000fd60315801565b6000600060006000600030620186a0f1505a6000545a9050900360035a5a9003019003600155600054600255005b",
                "storage": {
                    "0x00": "0x01",
                    "0x01": "0x0834",
                    "0x02": "0x01"
                }
            },
            "0x1ad9bc24818784172ff393bb6f89f094d4d2ca29": {
                "nonce": "0x01",
                "balance": "0x3635c9adc5de94ea4e",
                "code": "0x",
                "storage": {}
            },
            "0x2adc25665018aa1fe0e6bc666dac8fc2697ff9ba": {
                "nonce": "0x00",
                "balance": "0x1bc16d674ed315b2",
                "code": "0x",
                "storage": {}
            }
        },
        "lastblockhash": "0x335e5bc8f85ed04b6fb873064bd2a76464120d2c1ad97db0707b55d2d6efb15b",
        "config": {
            "network": "Berlin",
            "chainid": "0x01"
        },
        "genesisRLP": "0xf901f9f901f4a00000000000000000000000000000000000000000000000000000000000000000a01dcc4de8dec75d7aab85b567b6ccd41ad312451b948a7413f0a142fd40d49347940000000000000000000000000000000000000000a0f9c55e0259d74b41824e17a0944b6a4e8592ff72e55fd23ffc3a6be94f389ef3a056e81f171bcc55a6ff8345e692c0f86e5b48e01b996cadc001622fb5e363b421a056e81f171bcc55a6ff8345e692c0f86e5b48e01b996cadc001622fb5e363b421b901000000000000000000000000000000000000000000000000000000000000000000000000000000000000000000000000000000000000000000000000000000000000000000000000000000000000000000000000000000000000000000000000000000000000000000000000000000000000000000000000000000000000000000000000000000000000000000000000000000000000000000000000000000000000000000000000000000000000000000000000000000000000000000000000000000000000000000000000000000000000000000000000000000000000000000000000000000000000000000000000000000000000000000000000000000000083020000808407270e00808000a00000000000000000000000000000000000000000000000000000000000000000880000000000000000c0c0",
        "blocks": [
            {
                "blockHeader": {
                    "parentHash": "0x872833875af039c4198829e2df4fbfc64936ec3af6db3f0299acccce8eb75745",
                    "uncleHash": "0x1dcc4de8dec75d7aab85b567b6ccd41ad312451b948a7413f0a142fd40d49347",
                    "coinbase": "0x2adc25665018aa1fe0e6bc666dac8fc2697ff9ba",
                    "stateRoot": "0x77ff17242b38d3e69b2ece82a3de8845a59a6cb54bf5fd611a1b90e32ec4dab3",
                    "transactionsTrie": "0x9a37c56b3dc73d72fb02f03cef36ec26b39865e988e447ce5252cf025f1b0f18",
                    "receiptTrie": "0x430cb8ba4d9a48063408c5f0879eaf7003e18e928423151ca6a47e7f5f4c7959",
                    "bloom": "0x00000000000000000000000000000000000000000000000000000000000000000000000000000000000000000000000000000000000000000000000000000000000000000000000000000000000000000000000000000000000000000000000000000000000000000000000000000000000000000000000000000000000000000000000000000000000000000000000000000000000000000000000000000000000000000000000000000000000000000000000000000000000000000000000000000000000000000000000000000000000000000000000000000000000000000000000000000000000000000000000000000000000000000000000000000000",
                    "difficulty": "0x020000",
                    "number": "0x01",
                    "gasLimit": "0x07270e00",
                    "gasUsed": "0x011bc5",
                    "timestamp": "0x03e8",
                    "extraData": "0x00",
                    "mixHash": "0x0000000000000000000000000000000000000000000000000000000000000000",
                    "nonce": "0x0000000000000000",
                    "hash": "0x335e5bc8f85ed04b6fb873064bd2a76464120d2c1ad97db0707b55d2d6efb15b"
                },
                "transactions": [
                    {
                        "type": "0x00",
                        "chainId": "0x01",
                        "nonce": "0x00",
                        "gasPrice": "0x0a",
                        "gasLimit": "0x0f4240",
                        "to": "0x71a60f2b2a4b707c934256dfc1ca9d7cc10e0e36",
                        "value": "0x00",
                        "data": "0x01",
                        "v": "0x25",
                        "r": "0xafdfa09fbe5b998a83a9d6dd2aff184aaefcd83126f3123b7dbc15209d43cc3a",
                        "s": "0x1472c85ba5f64ccde809cbf0c8b2b936eb97858c9965dbe28f9fbc54e6cd6b58",
                        "sender": "0x1ad9bc24818784172ff393bb6f89f094d4d2ca29"
                    }
                ],
                "uncleHeaders": [],
                "receipts": [
                    {
                        "transactionHash": "0xa6942678edfdb04679ce1121f830f7dd8f82a193691957cc421c51c7f18c88bd",
                        "type": "0x00",
                        "cumulativeGasUsed": "0x011bc5",
                        "bloom": "0x00000000000000000000000000000000000000000000000000000000000000000000000000000000000000000000000000000000000000000000000000000000000000000000000000000000000000000000000000000000000000000000000000000000000000000000000000000000000000000000000000000000000000000000000000000000000000000000000000000000000000000000000000000000000000000000000000000000000000000000000000000000000000000000000000000000000000000000000000000000000000000000000000000000000000000000000000000000000000000000000000000000000000000000000000000000",
                        "logs": [],
                        "status": true,
                        "rlp": "0xf901090183011bc5b9010000000000000000000000000000000000000000000000000000000000000000000000000000000000000000000000000000000000000000000000000000000000000000000000000000000000000000000000000000000000000000000000000000000000000000000000000000000000000000000000000000000000000000000000000000000000000000000000000000000000000000000000000000000000000000000000000000000000000000000000000000000000000000000000000000000000000000000000000000000000000000000000000000000000000000000000000000000000000000000000000000000000000000000000000000000000c0"
                    }
                ],
                "rlp": "0xf90261f901f9a0872833875af039c4198829e2df4fbfc64936ec3af6db3f0299acccce8eb75745a01dcc4de8dec75d7aab85b567b6ccd41ad312451b948a7413f0a142fd40d49347942adc25665018aa1fe0e6bc666dac8fc2697ff9baa077ff17242b38d3e69b2ece82a3de8845a59a6cb54bf5fd611a1b90e32ec4dab3a09a37c56b3dc73d72fb02f03cef36ec26b39865e988e447ce5252cf025f1b0f18a0430cb8ba4d9a48063408c5f0879eaf7003e18e928423151ca6a47e7f5f4c7959b901000000000000000000000000000000000000000000000000000000000000000000000000000000000000000000000000000000000000000000000000000000000000000000000000000000000000000000000000000000000000000000000000000000000000000000000000000000000000000000000000000000000000000000000000000000000000000000000000000000000000000000000000000000000000000000000000000000000000000000000000000000000000000000000000000000000000000000000000000000000000000000000000000000000000000000000000000000000000000000000000000000000000000000000000000000000083020000018407270e0083011bc58203e800a00000000000000000000000000000000000000000000000000000000000000000880000000000000000f862f860800a830f42409471a60f2b2a4b707c934256dfc1ca9d7cc10e0e36800125a0afdfa09fbe5b998a83a9d6dd2aff184aaefcd83126f3123b7dbc15209d43cc3aa01472c85ba5f64ccde809cbf0c8b2b936eb97858c9965dbe28f9fbc54e6cd6b58c0",
                "blocknumber": "1"
            }
        ],
        "sealEngine": "NoProof",
        "_info": {
            "hash": "0x0321c0f821b5d5b32347bc50328cd28040dcdceab4a861e760693ddb0d2b810d",
            "fixture-format": "blockchain_test",
            "comment": "`execution-specs` generated test",
            "filling-transition-tool": "2.19.0",
            "description": "Test that storage slot warm status is reverted when a sub-call reverts.\n\nInner self-call does SLOAD(0) and SSTORE(0, 2) then REVERTs. After\nrevert, SLOAD(0) must be a cold access and storage[0] must still\nhold its original value.",
            "url": "https://github.com/ethereum/execution-specs/blob/tests-bal@v5.7.0/tests/berlin/eip2929_gas_cost_increases/test_warm_status_revert.py#L22",
            "metadata": {
                "opcode_count": {}
            },
            "reference-spec": "https://github.com/ethereum/EIPs/blob/master/EIPS/eip-2929.md",
            "reference-spec-version": "0e11417265a623adb680c527b15d0cb6701b870b"
        }
    }
}