{
    "tests/static/state_tests/stCallCodes/callcodeDynamicCode2SelfCallFiller.json::callcodeDynamicCode2SelfCall[fork_Cancun-state_test-d0]": {
        "env": {
            "currentCoinbase": "0x2adc25665018aa1fe0e6bc666dac8fc2697ff9ba",
            "currentGasLimit": "0x989680",
            "currentNumber": "0x01",
            "currentTimestamp": "0x03e8",
            "currentRandom": "0x0000000000000000000000000000000000000000000000000000000000020000",
            "currentDifficulty": "0x00",
            "currentBaseFee": "0x0a",
            "currentExcessBlobGas": "0x00"
        },
        "pre": {
            "0x1100000000000000000000000000000000000000": {
                "nonce": "0x00",
                "balance": "0x00",
                "code": "0x60006000600060006000600035620c3500f100",
                "storage": {}
            },
            "0xa000000000000000000000000000000000000000": {
                "nonce": "0x00",
                "balance": "0x2710",
                "code": "0x7f604060006040600060007313136008b64ff592819b2fa6d43f2835c452020e626000527f0186a0f2600b5533600c55000000000000000000000000000000000000000000602052604060006001f000",
                "storage": {}
            },
            "0x1000000000000000000000000000000000000000": {
                "nonce": "0x00",
                "balance": "0x2710",
                "code": "0x604680602760003960006000f0600a5560406000604060006000600a54620186a0f2600b5500fe604060006040600060007313136008b64ff592819b2fa6d43f2835c452020e620186a0f2607a5560128060346000396000f300fe600160005530601455326015553360165500",
                "storage": {}
            },
            "0xa94f5374fce5edbc8e2a8697c15331677e6ebf0b": {
                "nonce": "0x00",
                "balance": "0x2386f26fc10000",
                "code": "0x",
                "storage": {}
            }
        },
        "transaction": {
            "nonce": "0x00",
            "gasPrice": "0x0a",
            "gasLimit": [
                "0x162c19"
            ],
            "to": "0x1100000000000000000000000000000000000000",
            "value": [
                "0x00"
            ],
            "data": [
                "0x000000000000000000000000a000000000000000000000000000000000000000"
            ],
            "sender": "0xa94f5374fce5edbc8e2a8697c15331677e6ebf0b",
            "secretKey": "0x45a915e4d060149eb4365960e6a7a45f334393093061116b197e3240065ff2d8"
        },
        "post": {
            "Cancun": [
                {
                    "hash": "0x0822c631d47eacc6625ef843a7b0f6b5d5592011d176a200a7418eb38a98e4fb",
                    "logs": "0x1dcc4de8dec75d7aab85b567b6ccd41ad312451b948a7413f0a142fd40d49347",
                    "txbytes": "0xf880800a83162c1994110000000000000000000000000000000000000080a0000000000000000000000000a00000000000000000000000000000000000000025a0a017167f12492c8fca8457a698aafdc87c954a6f738a37f01154ade5662fdb49a04718fe03a8d79adff967e9c4abb69ec64c9d9e741b0b99ef2f643b1dfc15b310",
                    "indexes": {
                        "data": 0,
                        "gas": 0,
                        "value": 0
                    },
                    "state": {
                        "0x1100000000000000000000000000000000000000": {
                            "nonce": "0x00",
                            "balance": "0x00",
                            "code": "0x60006000600060006000600035620c3500f100",
                            "storage": {}
                        },
                        "0xa000000000000000000000000000000000000000": {
                            "nonce": "0x01",
                            "balance": "0x270f",
                            "code": "0x7f604060006040600060007313136008b64ff592819b2fa6d43f2835c452020e626000527f0186a0f2600b5533600c55000000000000000000000000000000000000000000602052604060006001f000",
                            "storage": {}
                        },
                        "0x1000000000000000000000000000000000000000": {
                            "nonce": "0x00",
                            "balance": "0x2710",
                            "code": "0x604680602760003960006000f0600a5560406000604060006000600a54620186a0f2600b5500fe604060006040600060007313136008b64ff592819b2fa6d43f2835c452020e620186a0f2607a5560128060346000396000f300fe600160005530601455326015553360165500",
                            "storage": {}
                        },
                        "0xa94f5374fce5edbc8e2a8697c15331677e6ebf0b": {
                            "nonce": "0x01",
                            "balance": "0x2386f26fb156c8",
                            "code": "0x",
                            "storage": {}
                        },
                        "0x7db299e0885c85039f56fa504a13dd8ce8a56aa7": {
                            "nonce": "0x01",
                            "balance": "0x01",
                            "code": "0x",
                            "storage": {
                                "0x0b": "0x01",
                                "0x0c": "0xa000000000000000000000000000000000000000"
                            }
                        }
                    }
                }
            ]
        },
        "config": {
            "blobSchedule": {
                "Cancun": {
                    "target": "0x03",
                    "max": "0x06",
                    "baseFeeUpdateFraction": "0x32f0ed"
                }
            },
            "chainid": "0x01"
        },
        "_info": {
            "hash": "0xa735fcc82ae552d0f186c928cc80973d9a0fa835137ae8077bc3188fcf2bd99c",
            "comment": "`execution-specs` generated test",
            "filling-transition-tool": "2.18.0rc6",
            "description": "No description available - add a docstring to the python test class or function.",
            "url": "",
            "fixture-format": "state_test"
        }
    },
    "tests/static/state_tests/stCallCodes/callcodeDynamicCode2SelfCallFiller.json::callcodeDynamicCode2SelfCall[fork_Cancun-state_test-d1]": {
        "env": {
            "currentCoinbase": "0x2adc25665018aa1fe0e6bc666dac8fc2697ff9ba",
            "currentGasLimit": "0x989680",
            "currentNumber": "0x01",
            "currentTimestamp": "0x03e8",
            "currentRandom": "0x0000000000000000000000000000000000000000000000000000000000020000",
            "currentDifficulty": "0x00",
            "currentBaseFee": "0x0a",
            "currentExcessBlobGas": "0x00"
        },
        "pre": {
            "0x1100000000000000000000000000000000000000": {
                "nonce": "0x00",
                "balance": "0x00",
                "code": "0x60006000600060006000600035620c3500f100",
                "storage": {}
            },
            "0xa000000000000000000000000000000000000000": {
                "nonce": "0x00",
                "balance": "0x2710",
                "code": "0x7f604060006040600060007313136008b64ff592819b2fa6d43f2835c452020e626000527f0186a0f2600b5533600c55000000000000000000000000000000000000000000602052604060006001f000",
                "storage": {}
            },
            "0x1000000000000000000000000000000000000000": {
                "nonce": "0x00",
                "balance": "0x2710",
                "code": "0x604680602760003960006000f0600a5560406000604060006000600a54620186a0f2600b5500fe604060006040600060007313136008b64ff592819b2fa6d43f2835c452020e620186a0f2607a5560128060346000396000f300fe600160005530601455326015553360165500",
                "storage": {}
            },
            "0xa94f5374fce5edbc8e2a8697c15331677e6ebf0b": {
                "nonce": "0x00",
                "balance": "0x2386f26fc10000",
                "code": "0x",
                "storage": {}
            }
        },
        "transaction": {
            "nonce": "0x00",
            "gasPrice": "0x0a",
            "gasLimit": [
                "0x162c19"
            ],
            "to": "0x1100000000000000000000000000000000000000",
            "value": [
                "0x00"
            ],
            "data": [
                "0x0000000000000000000000001000000000000000000000000000000000000000"
            ],
            "sender": "0xa94f5374fce5edbc8e2a8697c15331677e6ebf0b",
            "secretKey": "0x45a915e4d060149eb4365960e6a7a45f334393093061116b197e3240065ff2d8"
        },
        "post": {
            "Cancun": [
                {
                    "hash": "0x3ce45d642009234ff54980acd4308b1230cab7e1d55766408fe6b7aeeab2fe22",
                    "logs": "0x1dcc4de8dec75d7aab85b567b6ccd41ad312451b948a7413f0a142fd40d49347",
                    "txbytes": "0xf880800a83162c1994110000000000000000000000000000000000000080a0000000000000000000000000100000000000000000000000000000000000000025a0e65635df90ff66b096f7aaf1ef6c255b0033768eb2e52d7a365bdee80b2061c1a050ceaa75e1335003783a17b11f36b4727b11840cfdafd74b2dd863b173472598",
                    "indexes": {
                        "data": 0,
                        "gas": 0,
                        "value": 0
                    },
                    "state": {
                        "0x1100000000000000000000000000000000000000": {
                            "nonce": "0x00",
                            "balance": "0x00",
                            "code": "0x60006000600060006000600035620c3500f100",
                            "storage": {}
                        },
                        "0xa000000000000000000000000000000000000000": {
                            "nonce": "0x00",
                            "balance": "0x2710",
                            "code": "0x7f604060006040600060007313136008b64ff592819b2fa6d43f2835c452020e626000527f0186a0f2600b5533600c55000000000000000000000000000000000000000000602052604060006001f000",
                            "storage": {}
                        },
                        "0x1000000000000000000000000000000000000000": {
                            "nonce": "0x01",
                            "balance": "0x2710",
                            "code": "0x604680602760003960006000f0600a5560406000604060006000600a54620186a0f2600b5500fe604060006040600060007313136008b64ff592819b2fa6d43f2835c452020e620186a0f2607a5560128060346000396000f300fe600160005530601455326015553360165500",
                            "storage": {
                                "0x0a": "0x13136008b64ff592819b2fa6d43f2835c452020e",
                                "0x00": "0x01",
                                "0x14": "0x1000000000000000000000000000000000000000",
                                "0x15": "0xa94f5374fce5edbc8e2a8697c15331677e6ebf0b",
                                "0x16": "0x1000000000000000000000000000000000000000",
                                "0x0b": "0x01"
                            }
                        },
                        "0xa94f5374fce5edbc8e2a8697c15331677e6ebf0b": {
                            "nonce": "0x01",
                            "balance": "0x2386f26fa044c8",
                            "code": "0x",
                            "storage": {}
                        },
                        "0x13136008b64ff592819b2fa6d43f2835c452020e": {
                            "nonce": "0x01",
                            "balance": "0x00",
                            "code": "0x600160005530601455326015553360165500",
                            "storage": {
                                "0x7a": "0x01"
                            }
                        }
                    }
                }
            ]
        },
        "config": {
            "blobSchedule": {
                "Cancun": {
                    "target": "0x03",
                    "max": "0x06",
                    "baseFeeUpdateFraction": "0x32f0ed"
                }
            },
            "chainid": "0x01"
        },
        "_info": {
            "hash": "0x82c15e89476cb3f4ed8064ed7859175ea9a01c6567e46466bf7f471036dbbf5c",
            "comment": "`execution-specs` generated test",
            "filling-transition-tool": "2.18.0rc6",
            "description": "No description available - add a docstring to the python test class or function.",
            "url": "",
            "fixture-format": "state_test"
        }
    },
    "tests/static/state_tests/stCallCodes/callcodeDynamicCode2SelfCallFiller.json::callcodeDynamicCode2SelfCall[fork_Osaka-state_test-d0]": {
        "env": {
            "currentCoinbase": "0x2adc25665018aa1fe0e6bc666dac8fc2697ff9ba",
            "currentGasLimit": "0x989680",
            "currentNumber": "0x01",
            "currentTimestamp": "0x03e8",
            "currentRandom": "0x0000000000000000000000000000000000000000000000000000000000020000",
            "currentDifficulty": "0x00",
            "currentBaseFee": "0x0a",
            "currentExcessBlobGas": "0x00"
        },
        "pre": {
            "0x1100000000000000000000000000000000000000": {
                "nonce": "0x00",
                "balance": "0x00",
                "code": "0x60006000600060006000600035620c3500f100",
                "storage": {}
            },
            "0xa000000000000000000000000000000000000000": {
                "nonce": "0x00",
                "balance": "0x2710",
                "code": "0x7f604060006040600060007313136008b64ff592819b2fa6d43f2835c452020e626000527f0186a0f2600b5533600c55000000000000000000000000000000000000000000602052604060006001f000",
                "storage": {}
            },
            "0x1000000000000000000000000000000000000000": {
                "nonce": "0x00",
                "balance": "0x2710",
                "code": "0x604680602760003960006000f0600a5560406000604060006000600a54620186a0f2600b5500fe604060006040600060007313136008b64ff592819b2fa6d43f2835c452020e620186a0f2607a5560128060346000396000f300fe600160005530601455326015553360165500",
                "storage": {}
            },
            "0xa94f5374fce5edbc8e2a8697c15331677e6ebf0b": {
                "nonce": "0x00",
                "balance": "0x2386f26fc10000",
                "code": "0x",
                "storage": {}
            }
        },
        "transaction": {
            "nonce": "0x00",
            "gasPrice": "0x0a",
            "gasLimit": [
                "0x162c19"
            ],
            "to": "0x1100000000000000000000000000000000000000",
            "value": [
                "0x00"
            ],
            "data": [
                "0x000000000000000000000000a000000000000000000000000000000000000000"
            ],
            "sender": "0xa94f5374fce5edbc8e2a8697c15331677e6ebf0b",
            "secretKey": "0x45a915e4d060149eb4365960e6a7a45f334393093061116b197e3240065ff2d8"
        },
        "post": {
            "Osaka": [
                {
                    "hash": "0x0822c631d47eacc6625ef843a7b0f6b5d5592011d176a200a7418eb38a98e4fb",
                    "logs": "0x1dcc4de8dec75d7aab85b567b6ccd41ad312451b948a7413f0a142fd40d49347",
                    "txbytes": "0xf880800a83162c1994110000000000000000000000000000000000000080a0000000000000000000000000a00000000000000000000000000000000000000025a0a017167f12492c8fca8457a698aafdc87c954a6f738a37f01154ade5662fdb49a04718fe03a8d79adff967e9c4abb69ec64c9d9e741b0b99ef2f643b1dfc15b310",
                    "indexes": {
                        "data": 0,
                        "gas": 0,
                        "value": 0
                    },
                    "state": {
                        "0x1100000000000000000000000000000000000000": {
                            "nonce": "0x00",
                            "balance": "0x00",
                            "code": "0x60006000600060006000600035620c3500f100",
                            "storage": {}
                        },
                        "0xa000000000000000000000000000000000000000": {
                            "nonce": "0x01",
                            "balance": "0x270f",
                            "code": "0x7f604060006040600060007313136008b64ff592819b2fa6d43f2835c452020e626000527f0186a0f2600b5533600c55000000000000000000000000000000000000000000602052604060006001f000",
                            "storage": {}
                        },
                        "0x1000000000000000000000000000000000000000": {
                            "nonce": "0x00",
                            "balance": "0x2710",
                            "code": "0x604680602760003960006000f0600a5560406000604060006000600a54620186a0f2600b5500fe604060006040600060007313136008b64ff592819b2fa6d43f2835c452020e620186a0f2607a5560128060346000396000f300fe600160005530601455326015553360165500",
                            "storage": {}
                        },
                        "0xa94f5374fce5edbc8e2a8697c15331677e6ebf0b": {
                            "nonce": "0x01",
                            "balance": "0x2386f26fb156c8",
                            "code": "0x",
                            "storage": {}
                        },
                        "0x7db299e0885c85039f56fa504a13dd8ce8a56aa7": {
                            "nonce": "0x01",
                            "balance": "0x01",
                            "code": "0x",
                            "storage": {
                                "0x0b": "0x01",
                                "0x0c": "0xa000000000000000000000000000000000000000"
                            }
                        }
                    }
                }
            ]
        },
        "config": {
            "blobSchedule": {
                "Cancun": {
                    "target": "0x03",
                    "max": "0x06",
                    "baseFeeUpdateFraction": "0x32f0ed"
                },
                "Prague": {
                    "target": "0x06",
                    "max": "0x09",
                    "baseFeeUpdateFraction": "0x4c6964"
                },
                "Osaka": {
                    "target": "0x06",
                    "max": "0x09",
                    "baseFeeUpdateFraction": "0x4c6964"
                }
            },
            "chainid": "0x01"
        },
        "_info": {
            "hash": "0x54df1774b29de5b1251d7dbcb55733671867fa28a96a76497b1ce16c97923320",
            "comment": "`execution-specs` generated test",
            "filling-transition-tool": "2.18.0rc6",
            "description": "No description available - add a docstring to the python test class or function.",
            "url": "",
            "fixture-format": "state_test"
        }
    },
    "tests/static/state_tests/stCallCodes/callcodeDynamicCode2SelfCallFiller.json::callcodeDynamicCode2SelfCall[fork_Osaka-state_test-d1]": {
        "env": {
            "currentCoinbase": "0x2adc25665018aa1fe0e6bc666dac8fc2697ff9ba",
            "currentGasLimit": "0x989680",
            "currentNumber": "0x01",
            "currentTimestamp": "0x03e8",
            "currentRandom": "0x0000000000000000000000000000000000000000000000000000000000020000",
            "currentDifficulty": "0x00",
            "currentBaseFee": "0x0a",
            "currentExcessBlobGas": "0x00"
        },
        "pre": {
            "0x1100000000000000000000000000000000000000": {
                "nonce": "0x00",
                "balance": "0x00",
                "code": "0x60006000600060006000600035620c3500f100",
                "storage": {}
            },
            "0xa000000000000000000000000000000000000000": {
                "nonce": "0x00",
                "balance": "0x2710",
                "code": "0x7f604060006040600060007313136008b64ff592819b2fa6d43f2835c452020e626000527f0186a0f2600b5533600c55000000000000000000000000000000000000000000602052604060006001f000",
                "storage": {}
            },
            "0x1000000000000000000000000000000000000000": {
                "nonce": "0x00",
                "balance": "0x2710",
                "code": "0x604680602760003960006000f0600a5560406000604060006000600a54620186a0f2600b5500fe604060006040600060007313136008b64ff592819b2fa6d43f2835c452020e620186a0f2607a5560128060346000396000f300fe600160005530601455326015553360165500",
                "storage": {}
            },
            "0xa94f5374fce5edbc8e2a8697c15331677e6ebf0b": {
                "nonce": "0x00",
                "balance": "0x2386f26fc10000",
                "code": "0x",
                "storage": {}
            }
        },
        "transaction": {
            "nonce": "0x00",
            "gasPrice": "0x0a",
            "gasLimit": [
                "0x162c19"
            ],
            "to": "0x1100000000000000000000000000000000000000",
            "value": [
                "0x00"
            ],
            "data": [
                "0x0000000000000000000000001000000000000000000000000000000000000000"
            ],
            "sender": "0xa94f5374fce5edbc8e2a8697c15331677e6ebf0b",
            "secretKey": "0x45a915e4d060149eb4365960e6a7a45f334393093061116b197e3240065ff2d8"
        },
        "post": {
            "Osaka": [
                {
                    "hash": "0x3ce45d642009234ff54980acd4308b1230cab7e1d55766408fe6b7aeeab2fe22",
                    "logs": "0x1dcc4de8dec75d7aab85b567b6ccd41ad312451b948a7413f0a142fd40d49347",
                    "txbytes": "0xf880800a83162c1994110000000000000000000000000000000000000080a0000000000000000000000000100000000000000000000000000000000000000025a0e65635df90ff66b096f7aaf1ef6c255b0033768eb2e52d7a365bdee80b2061c1a050ceaa75e1335003783a17b11f36b4727b11840cfdafd74b2dd863b173472598",
                    "indexes": {
                        "data": 0,
                        "gas": 0,
                        "value": 0
                    },
                    "state": {
                        "0x1100000000000000000000000000000000000000": {
                            "nonce": "0x00",
                            "balance": "0x00",
                            "code": "0x60006000600060006000600035620c3500f100",
                            "storage": {}
                        },
                        "0xa000000000000000000000000000000000000000": {
                            "nonce": "0x00",
                            "balance": "0x2710",
                            "code": "0x7f604060006040600060007313136008b64ff592819b2fa6d43f2835c452020e626000527f0186a0f2600b5533600c55000000000000000000000000000000000000000000602052604060006001f000",
                            "storage": {}
                        },
                        "0x1000000000000000000000000000000000000000": {
                            "nonce": "0x01",
                            "balance": "0x2710",
                            "code": "0x604680602760003960006000f0600a5560406000604060006000600a54620186a0f2600b5500fe604060006040600060007313136008b64ff592819b2fa6d43f2835c452020e620186a0f2607a5560128060346000396000f300fe600160005530601455326015553360165500",
                            "storage": {
                                "0x0a": "0x13136008b64ff592819b2fa6d43f2835c452020e",
                                "0x00": "0x01",
                                "0x14": "0x1000000000000000000000000000000000000000",
                                "0x15": "0xa94f5374fce5edbc8e2a8697c15331677e6ebf0b",
                                "0x16": "0x1000000000000000000000000000000000000000",
                                "0x0b": "0x01"
                            }
                        },
                        "0xa94f5374fce5edbc8e2a8697c15331677e6ebf0b": {
                            "nonce": "0x01",
                            "balance": "0x2386f26fa044c8",
                            "code": "0x",
                            "storage": {}
                        },
                        "0x13136008b64ff592819b2fa6d43f2835c452020e": {
                            "nonce": "0x01",
                            "balance": "0x00",
                            "code": "0x600160005530601455326015553360165500",
                            "storage": {
                                "0x7a": "0x01"
                            }
                        }
                    }
                }
            ]
        },
        "config": {
            "blobSchedule": {
                "Cancun": {
                    "target": "0x03",
                    "max": "0x06",
                    "baseFeeUpdateFraction": "0x32f0ed"
                },
                "Prague": {
                    "target": "0x06",
                    "max": "0x09",
                    "baseFeeUpdateFraction": "0x4c6964"
                },
                "Osaka": {
                    "target": "0x06",
                    "max": "0x09",
                    "baseFeeUpdateFraction": "0x4c6964"
                }
            },
            "chainid": "0x01"
        },
        "_info": {
            "hash": "0x2df63bfd458a7bbaece9be6f7f876a23e5cfed16fd8c85eb897387148e75bce8",
            "comment": "`execution-specs` generated test",
            "filling-transition-tool": "2.18.0rc6",
            "description": "No description available - add a docstring to the python test class or function.",
            "url": "",
            "fixture-format": "state_test"
        }
    },
    "tests/static/state_tests/stCallCodes/callcodeDynamicCode2SelfCallFiller.json::callcodeDynamicCode2SelfCall[fork_Prague-state_test-d0]": {
        "env": {
            "currentCoinbase": "0x2adc25665018aa1fe0e6bc666dac8fc2697ff9ba",
            "currentGasLimit": "0x989680",
            "currentNumber": "0x01",
            "currentTimestamp": "0x03e8",
            "currentRandom": "0x0000000000000000000000000000000000000000000000000000000000020000",
            "currentDifficulty": "0x00",
            "currentBaseFee": "0x0a",
            "currentExcessBlobGas": "0x00"
        },
        "pre": {
            "0x1100000000000000000000000000000000000000": {
                "nonce": "0x00",
                "balance": "0x00",
                "code": "0x60006000600060006000600035620c3500f100",
                "storage": {}
            },
            "0xa000000000000000000000000000000000000000": {
                "nonce": "0x00",
                "balance": "0x2710",
                "code": "0x7f604060006040600060007313136008b64ff592819b2fa6d43f2835c452020e626000527f0186a0f2600b5533600c55000000000000000000000000000000000000000000602052604060006001f000",
                "storage": {}
            },
            "0x1000000000000000000000000000000000000000": {
                "nonce": "0x00",
                "balance": "0x2710",
                "code": "0x604680602760003960006000f0600a5560406000604060006000600a54620186a0f2600b5500fe604060006040600060007313136008b64ff592819b2fa6d43f2835c452020e620186a0f2607a5560128060346000396000f300fe600160005530601455326015553360165500",
                "storage": {}
            },
            "0xa94f5374fce5edbc8e2a8697c15331677e6ebf0b": {
                "nonce": "0x00",
                "balance": "0x2386f26fc10000",
                "code": "0x",
                "storage": {}
            }
        },
        "transaction": {
            "nonce": "0x00",
            "gasPrice": "0x0a",
            "gasLimit": [
                "0x162c19"
            ],
            "to": "0x1100000000000000000000000000000000000000",
            "value": [
                "0x00"
            ],
            "data": [
                "0x000000000000000000000000a000000000000000000000000000000000000000"
            ],
            "sender": "0xa94f5374fce5edbc8e2a8697c15331677e6ebf0b",
            "secretKey": "0x45a915e4d060149eb4365960e6a7a45f334393093061116b197e3240065ff2d8"
        },
        "post": {
            "Prague": [
                {
                    "hash": "0x0822c631d47eacc6625ef843a7b0f6b5d5592011d176a200a7418eb38a98e4fb",
                    "logs": "0x1dcc4de8dec75d7aab85b567b6ccd41ad312451b948a7413f0a142fd40d49347",
                    "txbytes": "0xf880800a83162c1994110000000000000000000000000000000000000080a0000000000000000000000000a00000000000000000000000000000000000000025a0a017167f12492c8fca8457a698aafdc87c954a6f738a37f01154ade5662fdb49a04718fe03a8d79adff967e9c4abb69ec64c9d9e741b0b99ef2f643b1dfc15b310",
                    "indexes": {
                        "data": 0,
                        "gas": 0,
                        "value": 0
                    },
                    "state": {
                        "0x1100000000000000000000000000000000000000": {
                            "nonce": "0x00",
                            "balance": "0x00",
                            "code": "0x60006000600060006000600035620c3500f100",
                            "storage": {}
                        },
                        "0xa000000000000000000000000000000000000000": {
                            "nonce": "0x01",
                            "balance": "0x270f",
                            "code": "0x7f604060006040600060007313136008b64ff592819b2fa6d43f2835c452020e626000527f0186a0f2600b5533600c55000000000000000000000000000000000000000000602052604060006001f000",
                            "storage": {}
                        },
                        "0x1000000000000000000000000000000000000000": {
                            "nonce": "0x00",
                            "balance": "0x2710",
                            "code": "0x604680602760003960006000f0600a5560406000604060006000600a54620186a0f2600b5500fe604060006040600060007313136008b64ff592819b2fa6d43f2835c452020e620186a0f2607a5560128060346000396000f300fe600160005530601455326015553360165500",
                            "storage": {}
                        },
                        "0xa94f5374fce5edbc8e2a8697c15331677e6ebf0b": {
                            "nonce": "0x01",
                            "balance": "0x2386f26fb156c8",
                            "code": "0x",
                            "storage": {}
                        },
                        "0x7db299e0885c85039f56fa504a13dd8ce8a56aa7": {
                            "nonce": "0x01",
                            "balance": "0x01",
                            "code": "0x",
                            "storage": {
                                "0x0b": "0x01",
                                "0x0c": "0xa000000000000000000000000000000000000000"
                            }
                        }
                    }
                }
            ]
        },
        "config": {
            "blobSchedule": {
                "Cancun": {
                    "target": "0x03",
                    "max": "0x06",
                    "baseFeeUpdateFraction": "0x32f0ed"
                },
                "Prague": {
                    "target": "0x06",
                    "max": "0x09",
                    "baseFeeUpdateFraction": "0x4c6964"
                }
            },
            "chainid": "0x01"
        },
        "_info": {
            "hash": "0x1776318baf9d0d3ac8e34622be7f69c5edc186e8d3de6e9fe836acbaacdfba0e",
            "comment": "`execution-specs` generated test",
            "filling-transition-tool": "2.18.0rc6",
            "description": "No description available - add a docstring to the python test class or function.",
            "url": "",
            "fixture-format": "state_test"
        }
    },
    "tests/static/state_tests/stCallCodes/callcodeDynamicCode2SelfCallFiller.json::callcodeDynamicCode2SelfCall[fork_Prague-state_test-d1]": {
        "env": {
            "currentCoinbase": "0x2adc25665018aa1fe0e6bc666dac8fc2697ff9ba",
            "currentGasLimit": "0x989680",
            "currentNumber": "0x01",
            "currentTimestamp": "0x03e8",
            "currentRandom": "0x0000000000000000000000000000000000000000000000000000000000020000",
            "currentDifficulty": "0x00",
            "currentBaseFee": "0x0a",
            "currentExcessBlobGas": "0x00"
        },
        "pre": {
            "0x1100000000000000000000000000000000000000": {
                "nonce": "0x00",
                "balance": "0x00",
                "code": "0x60006000600060006000600035620c3500f100",
                "storage": {}
            },
            "0xa000000000000000000000000000000000000000": {
                "nonce": "0x00",
                "balance": "0x2710",
                "code": "0x7f604060006040600060007313136008b64ff592819b2fa6d43f2835c452020e626000527f0186a0f2600b5533600c55000000000000000000000000000000000000000000602052604060006001f000",
                "storage": {}
            },
            "0x1000000000000000000000000000000000000000": {
                "nonce": "0x00",
                "balance": "0x2710",
                "code": "0x604680602760003960006000f0600a5560406000604060006000600a54620186a0f2600b5500fe604060006040600060007313136008b64ff592819b2fa6d43f2835c452020e620186a0f2607a5560128060346000396000f300fe600160005530601455326015553360165500",
                "storage": {}
            },
            "0xa94f5374fce5edbc8e2a8697c15331677e6ebf0b": {
                "nonce": "0x00",
                "balance": "0x2386f26fc10000",
                "code": "0x",
                "storage": {}
            }
        },
        "transaction": {
            "nonce": "0x00",
            "gasPrice": "0x0a",
            "gasLimit": [
                "0x162c19"
            ],
            "to": "0x1100000000000000000000000000000000000000",
            "value": [
                "0x00"
            ],
            "data": [
                "0x0000000000000000000000001000000000000000000000000000000000000000"
            ],
            "sender": "0xa94f5374fce5edbc8e2a8697c15331677e6ebf0b",
            "secretKey": "0x45a915e4d060149eb4365960e6a7a45f334393093061116b197e3240065ff2d8"
        },
        "post": {
            "Prague": [
                {
                    "hash": "0x3ce45d642009234ff54980acd4308b1230cab7e1d55766408fe6b7aeeab2fe22",
                    "logs": "0x1dcc4de8dec75d7aab85b567b6ccd41ad312451b948a7413f0a142fd40d49347",
                    "txbytes": "0xf880800a83162c1994110000000000000000000000000000000000000080a0000000000000000000000000100000000000000000000000000000000000000025a0e65635df90ff66b096f7aaf1ef6c255b0033768eb2e52d7a365bdee80b2061c1a050ceaa75e1335003783a17b11f36b4727b11840cfdafd74b2dd863b173472598",
                    "indexes": {
                        "data": 0,
                        "gas": 0,
                        "value": 0
                    },
                    "state": {
                        "0x1100000000000000000000000000000000000000": {
                            "nonce": "0x00",
                            "balance": "0x00",
                            "code": "0x60006000600060006000600035620c3500f100",
                            "storage": {}
                        },
                        "0xa000000000000000000000000000000000000000": {
                            "nonce": "0x00",
                            "balance": "0x2710",
                            "code": "0x7f604060006040600060007313136008b64ff592819b2fa6d43f2835c452020e626000527f0186a0f2600b5533600c55000000000000000000000000000000000000000000602052604060006001f000",
                            "storage": {}
                        },
                        "0x1000000000000000000000000000000000000000": {
                            "nonce": "0x01",
                            "balance": "0x2710",
                            "code": "0x604680602760003960006000f0600a5560406000604060006000600a54620186a0f2600b5500fe604060006040600060007313136008b64ff592819b2fa6d43f2835c452020e620186a0f2607a5560128060346000396000f300fe600160005530601455326015553360165500",
                            "storage": {
                                "0x0a": "0x13136008b64ff592819b2fa6d43f2835c452020e",
                                "0x00": "0x01",
                                "0x14": "0x1000000000000000000000000000000000000000",
                                "0x15": "0xa94f5374fce5edbc8e2a8697c15331677e6ebf0b",
                                "0x16": "0x1000000000000000000000000000000000000000",
                                "0x0b": "0x01"
                            }
                        },
                        "0xa94f5374fce5edbc8e2a8697c15331677e6ebf0b": {
                            "nonce": "0x01",
                            "balance": "0x2386f26fa044c8",
                            "code": "0x",
                            "storage": {}
                        },
                        "0x13136008b64ff592819b2fa6d43f2835c452020e": {
                            "nonce": "0x01",
                            "balance": "0x00",
                            "code": "0x600160005530601455326015553360165500",
                            "storage": {
                                "0x7a": "0x01"
                            }
                        }
                    }
                }
            ]
        },
        "config": {
            "blobSchedule": {
                "Cancun": {
                    "target": "0x03",
                    "max": "0x06",
                    "baseFeeUpdateFraction": "0x32f0ed"
                },
                "Prague": {
                    "target": "0x06",
                    "max": "0x09",
                    "baseFeeUpdateFraction": "0x4c6964"
                }
            },
            "chainid": "0x01"
        },
        "_info": {
            "hash": "0x376a1ca0f34f7c19cf70a7ae0604558ea1104691f3a6b94629d7ad8f270abe64",
            "comment": "`execution-specs` generated test",
            "filling-transition-tool": "2.18.0rc6",
            "description": "No description available - add a docstring to the python test class or function.",
            "url": "",
            "fixture-format": "state_test"
        }
    }
}