{
    "tests/static/state_tests/stCallCodes/callcallcodecallcode_011_OOGMAfterFiller.json::callcallcodecallcode_011_OOGMAfter[fork_Cancun-state_test-]": {
        "env": {
            "currentCoinbase": "0x2adc25665018aa1fe0e6bc666dac8fc2697ff9ba",
            "currentGasLimit": "0x01c9c380",
            "currentNumber": "0x01",
            "currentTimestamp": "0x03e8",
            "currentRandom": "0x0000000000000000000000000000000000000000000000000000000000020000",
            "currentDifficulty": "0x00",
            "currentBaseFee": "0x0a",
            "currentExcessBlobGas": "0x00"
        },
        "pre": {
            "0x80298aa12fb917875b0118ebb8e00da081820e95": {
                "nonce": "0x00",
                "balance": "0x0de0b6b3a7640000",
                "code": "0x",
                "storage": {}
            },
            "0xa68fff7ffc695ebceb1d915480fcbe42b77bd940": {
                "nonce": "0x00",
                "balance": "0x00",
                "code": "0x600160035500",
                "storage": {}
            },
            "0xa68fff7ffc695ebceb1d915480fcbe42b77bda40": {
                "nonce": "0x00",
                "balance": "0x00",
                "code": "0x6040600060406000600073a68fff7ffc695ebceb1d915480fcbe42b77bd94062061a80f260025500",
                "storage": {}
            },
            "0xa68fff7ffc695ebceb1d915480fcbe42b77bdb40": {
                "nonce": "0x00",
                "balance": "0x00",
                "code": "0x6040600060406000600073a68fff7ffc695ebceb1d915480fcbe42b77bda40620927c0f2600155622fffff60002000",
                "storage": {}
            },
            "0xa68fff7ffc695ebceb1d915480fcbe42b77bdc40": {
                "nonce": "0x00",
                "balance": "0x0de0b6b3a7640000",
                "code": "0x6040600060406000600073a68fff7ffc695ebceb1d915480fcbe42b77bdb40620c3500f16000556001600b5500",
                "storage": {}
            }
        },
        "transaction": {
            "nonce": "0x00",
            "gasPrice": "0x0a",
            "gasLimit": [
                "0x0f4240"
            ],
            "to": "0xa68fff7ffc695ebceb1d915480fcbe42b77bdc40",
            "value": [
                "0x00"
            ],
            "data": [
                "0x"
            ],
            "sender": "0x80298aa12fb917875b0118ebb8e00da081820e95",
            "secretKey": "0xf7dcc682077844976171042ca68fff7ffc695ebceb1d915480fcbe42b77bd940"
        },
        "post": {
            "Cancun": [
                {
                    "hash": "0xe6d058afd973fa36a50debb50ff39aaf776aab8aaf94d005a3fb88f79f11b97b",
                    "logs": "0x1dcc4de8dec75d7aab85b567b6ccd41ad312451b948a7413f0a142fd40d49347",
                    "txbytes": "0xf860800a830f424094a68fff7ffc695ebceb1d915480fcbe42b77bdc40808026a00facdcee02513a5a95f21c768787915d7e24dd5ddfe5af7052096a641915a429a01c84de15bc5f0d0742709137098417783c528d6826cfb902b11dc5ff726bc710",
                    "indexes": {
                        "data": 0,
                        "gas": 0,
                        "value": 0
                    },
                    "state": {
                        "0x80298aa12fb917875b0118ebb8e00da081820e95": {
                            "nonce": "0x01",
                            "balance": "0x0de0b6b3a6e29d80",
                            "code": "0x",
                            "storage": {}
                        },
                        "0xa68fff7ffc695ebceb1d915480fcbe42b77bd940": {
                            "nonce": "0x00",
                            "balance": "0x00",
                            "code": "0x600160035500",
                            "storage": {}
                        },
                        "0xa68fff7ffc695ebceb1d915480fcbe42b77bda40": {
                            "nonce": "0x00",
                            "balance": "0x00",
                            "code": "0x6040600060406000600073a68fff7ffc695ebceb1d915480fcbe42b77bd94062061a80f260025500",
                            "storage": {}
                        },
                        "0xa68fff7ffc695ebceb1d915480fcbe42b77bdb40": {
                            "nonce": "0x00",
                            "balance": "0x00",
                            "code": "0x6040600060406000600073a68fff7ffc695ebceb1d915480fcbe42b77bda40620927c0f2600155622fffff60002000",
                            "storage": {}
                        },
                        "0xa68fff7ffc695ebceb1d915480fcbe42b77bdc40": {
                            "nonce": "0x00",
                            "balance": "0x0de0b6b3a7640000",
                            "code": "0x6040600060406000600073a68fff7ffc695ebceb1d915480fcbe42b77bdb40620c3500f16000556001600b5500",
                            "storage": {
                                "0x0b": "0x01"
                            }
                        }
                    }
                }
            ]
        },
        "config": {
            "blobSchedule": {
                "Cancun": {
                    "target": "0x03",
                    "max": "0x06",
                    "baseFeeUpdateFraction": "0x32f0ed"
                }
            },
            "chainid": "0x01"
        },
        "_info": {
            "hash": "0xeb8858f138fee5e299f532cbd8081d84b5716c646250e5c7e8fbc0b07ac2daf3",
            "comment": "`execution-specs` generated test",
            "filling-transition-tool": "2.18.0rc6",
            "description": "No description available - add a docstring to the python test class or function.",
            "url": "",
            "fixture-format": "state_test"
        }
    },
    "tests/static/state_tests/stCallCodes/callcallcodecallcode_011_OOGMAfterFiller.json::callcallcodecallcode_011_OOGMAfter[fork_Osaka-state_test-]": {
        "env": {
            "currentCoinbase": "0x2adc25665018aa1fe0e6bc666dac8fc2697ff9ba",
            "currentGasLimit": "0x01c9c380",
            "currentNumber": "0x01",
            "currentTimestamp": "0x03e8",
            "currentRandom": "0x0000000000000000000000000000000000000000000000000000000000020000",
            "currentDifficulty": "0x00",
            "currentBaseFee": "0x0a",
            "currentExcessBlobGas": "0x00"
        },
        "pre": {
            "0x80298aa12fb917875b0118ebb8e00da081820e95": {
                "nonce": "0x00",
                "balance": "0x0de0b6b3a7640000",
                "code": "0x",
                "storage": {}
            },
            "0xa68fff7ffc695ebceb1d915480fcbe42b77bd940": {
                "nonce": "0x00",
                "balance": "0x00",
                "code": "0x600160035500",
                "storage": {}
            },
            "0xa68fff7ffc695ebceb1d915480fcbe42b77bda40": {
                "nonce": "0x00",
                "balance": "0x00",
                "code": "0x6040600060406000600073a68fff7ffc695ebceb1d915480fcbe42b77bd94062061a80f260025500",
                "storage": {}
            },
            "0xa68fff7ffc695ebceb1d915480fcbe42b77bdb40": {
                "nonce": "0x00",
                "balance": "0x00",
                "code": "0x6040600060406000600073a68fff7ffc695ebceb1d915480fcbe42b77bda40620927c0f2600155622fffff60002000",
                "storage": {}
            },
            "0xa68fff7ffc695ebceb1d915480fcbe42b77bdc40": {
                "nonce": "0x00",
                "balance": "0x0de0b6b3a7640000",
                "code": "0x6040600060406000600073a68fff7ffc695ebceb1d915480fcbe42b77bdb40620c3500f16000556001600b5500",
                "storage": {}
            }
        },
        "transaction": {
            "nonce": "0x00",
            "gasPrice": "0x0a",
            "gasLimit": [
                "0x0f4240"
            ],
            "to": "0xa68fff7ffc695ebceb1d915480fcbe42b77bdc40",
            "value": [
                "0x00"
            ],
            "data": [
                "0x"
            ],
            "sender": "0x80298aa12fb917875b0118ebb8e00da081820e95",
            "secretKey": "0xf7dcc682077844976171042ca68fff7ffc695ebceb1d915480fcbe42b77bd940"
        },
        "post": {
            "Osaka": [
                {
                    "hash": "0xe6d058afd973fa36a50debb50ff39aaf776aab8aaf94d005a3fb88f79f11b97b",
                    "logs": "0x1dcc4de8dec75d7aab85b567b6ccd41ad312451b948a7413f0a142fd40d49347",
                    "txbytes": "0xf860800a830f424094a68fff7ffc695ebceb1d915480fcbe42b77bdc40808026a00facdcee02513a5a95f21c768787915d7e24dd5ddfe5af7052096a641915a429a01c84de15bc5f0d0742709137098417783c528d6826cfb902b11dc5ff726bc710",
                    "indexes": {
                        "data": 0,
                        "gas": 0,
                        "value": 0
                    },
                    "state": {
                        "0x80298aa12fb917875b0118ebb8e00da081820e95": {
                            "nonce": "0x01",
                            "balance": "0x0de0b6b3a6e29d80",
                            "code": "0x",
                            "storage": {}
                        },
                        "0xa68fff7ffc695ebceb1d915480fcbe42b77bd940": {
                            "nonce": "0x00",
                            "balance": "0x00",
                            "code": "0x600160035500",
                            "storage": {}
                        },
                        "0xa68fff7ffc695ebceb1d915480fcbe42b77bda40": {
                            "nonce": "0x00",
                            "balance": "0x00",
                            "code": "0x6040600060406000600073a68fff7ffc695ebceb1d915480fcbe42b77bd94062061a80f260025500",
                            "storage": {}
                        },
                        "0xa68fff7ffc695ebceb1d915480fcbe42b77bdb40": {
                            "nonce": "0x00",
                            "balance": "0x00",
                            "code": "0x6040600060406000600073a68fff7ffc695ebceb1d915480fcbe42b77bda40620927c0f2600155622fffff60002000",
                            "storage": {}
                        },
                        "0xa68fff7ffc695ebceb1d915480fcbe42b77bdc40": {
                            "nonce": "0x00",
                            "balance": "0x0de0b6b3a7640000",
                            "code": "0x6040600060406000600073a68fff7ffc695ebceb1d915480fcbe42b77bdb40620c3500f16000556001600b5500",
                            "storage": {
                                "0x0b": "0x01"
                            }
                        }
                    }
                }
            ]
        },
        "config": {
            "blobSchedule": {
                "Cancun": {
                    "target": "0x03",
                    "max": "0x06",
                    "baseFeeUpdateFraction": "0x32f0ed"
                },
                "Prague": {
                    "target": "0x06",
                    "max": "0x09",
                    "baseFeeUpdateFraction": "0x4c6964"
                },
                "Osaka": {
                    "target": "0x06",
                    "max": "0x09",
                    "baseFeeUpdateFraction": "0x4c6964"
                }
            },
            "chainid": "0x01"
        },
        "_info": {
            "hash": "0xe270f3bd29f61034c9043cca958ca2950af49ab3678500c240597457ac0d20e3",
            "comment": "`execution-specs` generated test",
            "filling-transition-tool": "2.18.0rc6",
            "description": "No description available - add a docstring to the python test class or function.",
            "url": "",
            "fixture-format": "state_test"
        }
    },
    "tests/static/state_tests/stCallCodes/callcallcodecallcode_011_OOGMAfterFiller.json::callcallcodecallcode_011_OOGMAfter[fork_Prague-state_test-]": {
        "env": {
            "currentCoinbase": "0x2adc25665018aa1fe0e6bc666dac8fc2697ff9ba",
            "currentGasLimit": "0x01c9c380",
            "currentNumber": "0x01",
            "currentTimestamp": "0x03e8",
            "currentRandom": "0x0000000000000000000000000000000000000000000000000000000000020000",
            "currentDifficulty": "0x00",
            "currentBaseFee": "0x0a",
            "currentExcessBlobGas": "0x00"
        },
        "pre": {
            "0x80298aa12fb917875b0118ebb8e00da081820e95": {
                "nonce": "0x00",
                "balance": "0x0de0b6b3a7640000",
                "code": "0x",
                "storage": {}
            },
            "0xa68fff7ffc695ebceb1d915480fcbe42b77bd940": {
                "nonce": "0x00",
                "balance": "0x00",
                "code": "0x600160035500",
                "storage": {}
            },
            "0xa68fff7ffc695ebceb1d915480fcbe42b77bda40": {
                "nonce": "0x00",
                "balance": "0x00",
                "code": "0x6040600060406000600073a68fff7ffc695ebceb1d915480fcbe42b77bd94062061a80f260025500",
                "storage": {}
            },
            "0xa68fff7ffc695ebceb1d915480fcbe42b77bdb40": {
                "nonce": "0x00",
                "balance": "0x00",
                "code": "0x6040600060406000600073a68fff7ffc695ebceb1d915480fcbe42b77bda40620927c0f2600155622fffff60002000",
                "storage": {}
            },
            "0xa68fff7ffc695ebceb1d915480fcbe42b77bdc40": {
                "nonce": "0x00",
                "balance": "0x0de0b6b3a7640000",
                "code": "0x6040600060406000600073a68fff7ffc695ebceb1d915480fcbe42b77bdb40620c3500f16000556001600b5500",
                "storage": {}
            }
        },
        "transaction": {
            "nonce": "0x00",
            "gasPrice": "0x0a",
            "gasLimit": [
                "0x0f4240"
            ],
            "to": "0xa68fff7ffc695ebceb1d915480fcbe42b77bdc40",
            "value": [
                "0x00"
            ],
            "data": [
                "0x"
            ],
            "sender": "0x80298aa12fb917875b0118ebb8e00da081820e95",
            "secretKey": "0xf7dcc682077844976171042ca68fff7ffc695ebceb1d915480fcbe42b77bd940"
        },
        "post": {
            "Prague": [
                {
                    "hash": "0xe6d058afd973fa36a50debb50ff39aaf776aab8aaf94d005a3fb88f79f11b97b",
                    "logs": "0x1dcc4de8dec75d7aab85b567b6ccd41ad312451b948a7413f0a142fd40d49347",
                    "txbytes": "0xf860800a830f424094a68fff7ffc695ebceb1d915480fcbe42b77bdc40808026a00facdcee02513a5a95f21c768787915d7e24dd5ddfe5af7052096a641915a429a01c84de15bc5f0d0742709137098417783c528d6826cfb902b11dc5ff726bc710",
                    "indexes": {
                        "data": 0,
                        "gas": 0,
                        "value": 0
                    },
                    "state": {
                        "0x80298aa12fb917875b0118ebb8e00da081820e95": {
                            "nonce": "0x01",
                            "balance": "0x0de0b6b3a6e29d80",
                            "code": "0x",
                            "storage": {}
                        },
                        "0xa68fff7ffc695ebceb1d915480fcbe42b77bd940": {
                            "nonce": "0x00",
                            "balance": "0x00",
                            "code": "0x600160035500",
                            "storage": {}
                        },
                        "0xa68fff7ffc695ebceb1d915480fcbe42b77bda40": {
                            "nonce": "0x00",
                            "balance": "0x00",
                            "code": "0x6040600060406000600073a68fff7ffc695ebceb1d915480fcbe42b77bd94062061a80f260025500",
                            "storage": {}
                        },
                        "0xa68fff7ffc695ebceb1d915480fcbe42b77bdb40": {
                            "nonce": "0x00",
                            "balance": "0x00",
                            "code": "0x6040600060406000600073a68fff7ffc695ebceb1d915480fcbe42b77bda40620927c0f2600155622fffff60002000",
                            "storage": {}
                        },
                        "0xa68fff7ffc695ebceb1d915480fcbe42b77bdc40": {
                            "nonce": "0x00",
                            "balance": "0x0de0b6b3a7640000",
                            "code": "0x6040600060406000600073a68fff7ffc695ebceb1d915480fcbe42b77bdb40620c3500f16000556001600b5500",
                            "storage": {
                                "0x0b": "0x01"
                            }
                        }
                    }
                }
            ]
        },
        "config": {
            "blobSchedule": {
                "Cancun": {
                    "target": "0x03",
                    "max": "0x06",
                    "baseFeeUpdateFraction": "0x32f0ed"
                },
                "Prague": {
                    "target": "0x06",
                    "max": "0x09",
                    "baseFeeUpdateFraction": "0x4c6964"
                }
            },
            "chainid": "0x01"
        },
        "_info": {
            "hash": "0x95cc958fd6db33a588acb55096d4de75145a9feb3400c6be832646abbc0ded51",
            "comment": "`execution-specs` generated test",
            "filling-transition-tool": "2.18.0rc6",
            "description": "No description available - add a docstring to the python test class or function.",
            "url": "",
            "fixture-format": "state_test"
        }
    }
}