{
    "tests/static/state_tests/stCallCodes/callcodeInInitcodeToEmptyContractFiller.json::callcodeInInitcodeToEmptyContract[fork_Cancun-state_test-d0]": {
        "env": {
            "currentCoinbase": "0x2adc25665018aa1fe0e6bc666dac8fc2697ff9ba",
            "currentGasLimit": "0x989680",
            "currentNumber": "0x01",
            "currentTimestamp": "0x03e8",
            "currentRandom": "0x0000000000000000000000000000000000000000000000000000000000020000",
            "currentDifficulty": "0x00",
            "currentBaseFee": "0x0a",
            "currentExcessBlobGas": "0x00"
        },
        "pre": {
            "0x1100000000000000000000000000000000000000": {
                "nonce": "0x00",
                "balance": "0x00",
                "code": "0x60006000600060006000600035620493e0f100",
                "storage": {}
            },
            "0x1000000000000000000000000000000000000000": {
                "nonce": "0x00",
                "balance": "0x2710",
                "code": "0x602d80600f60003960006000f000fe600060006000600060017310000000000000000000000000000000000000016207a120f2600155600160025500",
                "storage": {}
            },
            "0x2000000000000000000000000000000000000000": {
                "nonce": "0x00",
                "balance": "0x2710",
                "code": "0x6000602d80601160003960006000f500fe600060006000600060017310000000000000000000000000000000000000016207a120f2600155600160025500",
                "storage": {}
            },
            "0xa94f5374fce5edbc8e2a8697c15331677e6ebf0b": {
                "nonce": "0x00",
                "balance": "0x2386f26fc10000",
                "code": "0x",
                "storage": {}
            }
        },
        "transaction": {
            "nonce": "0x00",
            "gasPrice": "0x0a",
            "gasLimit": [
                "0x162c19"
            ],
            "to": "0x1100000000000000000000000000000000000000",
            "value": [
                "0x00"
            ],
            "data": [
                "0x0000000000000000000000001000000000000000000000000000000000000000"
            ],
            "sender": "0xa94f5374fce5edbc8e2a8697c15331677e6ebf0b",
            "secretKey": "0x45a915e4d060149eb4365960e6a7a45f334393093061116b197e3240065ff2d8"
        },
        "post": {
            "Cancun": [
                {
                    "hash": "0xf78b4cca764e41441b5c8209614d087ef515a60e38a06a8eeb8965eb8cce9de3",
                    "logs": "0x1dcc4de8dec75d7aab85b567b6ccd41ad312451b948a7413f0a142fd40d49347",
                    "txbytes": "0xf880800a83162c1994110000000000000000000000000000000000000080a0000000000000000000000000100000000000000000000000000000000000000025a0e65635df90ff66b096f7aaf1ef6c255b0033768eb2e52d7a365bdee80b2061c1a050ceaa75e1335003783a17b11f36b4727b11840cfdafd74b2dd863b173472598",
                    "indexes": {
                        "data": 0,
                        "gas": 0,
                        "value": 0
                    },
                    "state": {
                        "0x1100000000000000000000000000000000000000": {
                            "nonce": "0x00",
                            "balance": "0x00",
                            "code": "0x60006000600060006000600035620493e0f100",
                            "storage": {}
                        },
                        "0x1000000000000000000000000000000000000000": {
                            "nonce": "0x01",
                            "balance": "0x2710",
                            "code": "0x602d80600f60003960006000f000fe600060006000600060017310000000000000000000000000000000000000016207a120f2600155600160025500",
                            "storage": {}
                        },
                        "0x2000000000000000000000000000000000000000": {
                            "nonce": "0x00",
                            "balance": "0x2710",
                            "code": "0x6000602d80601160003960006000f500fe600060006000600060017310000000000000000000000000000000000000016207a120f2600155600160025500",
                            "storage": {}
                        },
                        "0xa94f5374fce5edbc8e2a8697c15331677e6ebf0b": {
                            "nonce": "0x01",
                            "balance": "0x2386f26fb35a9a",
                            "code": "0x",
                            "storage": {}
                        },
                        "0x13136008b64ff592819b2fa6d43f2835c452020e": {
                            "nonce": "0x01",
                            "balance": "0x00",
                            "code": "0x",
                            "storage": {
                                "0x02": "0x01"
                            }
                        }
                    }
                }
            ]
        },
        "config": {
            "blobSchedule": {
                "Cancun": {
                    "target": "0x03",
                    "max": "0x06",
                    "baseFeeUpdateFraction": "0x32f0ed"
                }
            },
            "chainid": "0x01"
        },
        "_info": {
            "hash": "0x12e56d9add2735f2e323e878a18e20605b92149b1ff086d72ba59f8ef40746fa",
            "comment": "`execution-spec-tests` generated test",
            "filling-transition-tool": "ethereum-spec-evm-resolver 0.0.5",
            "description": "No description available - add a docstring to the python test class or function.",
            "url": "",
            "fixture-format": "state_test",
            "eels-resolution": {
                "git-url": "https://github.com/marioevz/execution-specs.git",
                "branch": "forks/bpo1",
                "commit": "3387e5f4aedfe99becfdc39b444d6371e25e0924"
            }
        }
    },
    "tests/static/state_tests/stCallCodes/callcodeInInitcodeToEmptyContractFiller.json::callcodeInInitcodeToEmptyContract[fork_Cancun-state_test-d1]": {
        "env": {
            "currentCoinbase": "0x2adc25665018aa1fe0e6bc666dac8fc2697ff9ba",
            "currentGasLimit": "0x989680",
            "currentNumber": "0x01",
            "currentTimestamp": "0x03e8",
            "currentRandom": "0x0000000000000000000000000000000000000000000000000000000000020000",
            "currentDifficulty": "0x00",
            "currentBaseFee": "0x0a",
            "currentExcessBlobGas": "0x00"
        },
        "pre": {
            "0x1100000000000000000000000000000000000000": {
                "nonce": "0x00",
                "balance": "0x00",
                "code": "0x60006000600060006000600035620493e0f100",
                "storage": {}
            },
            "0x1000000000000000000000000000000000000000": {
                "nonce": "0x00",
                "balance": "0x2710",
                "code": "0x602d80600f60003960006000f000fe600060006000600060017310000000000000000000000000000000000000016207a120f2600155600160025500",
                "storage": {}
            },
            "0x2000000000000000000000000000000000000000": {
                "nonce": "0x00",
                "balance": "0x2710",
                "code": "0x6000602d80601160003960006000f500fe600060006000600060017310000000000000000000000000000000000000016207a120f2600155600160025500",
                "storage": {}
            },
            "0xa94f5374fce5edbc8e2a8697c15331677e6ebf0b": {
                "nonce": "0x00",
                "balance": "0x2386f26fc10000",
                "code": "0x",
                "storage": {}
            }
        },
        "transaction": {
            "nonce": "0x00",
            "gasPrice": "0x0a",
            "gasLimit": [
                "0x162c19"
            ],
            "to": "0x1100000000000000000000000000000000000000",
            "value": [
                "0x00"
            ],
            "data": [
                "0x0000000000000000000000002000000000000000000000000000000000000000"
            ],
            "sender": "0xa94f5374fce5edbc8e2a8697c15331677e6ebf0b",
            "secretKey": "0x45a915e4d060149eb4365960e6a7a45f334393093061116b197e3240065ff2d8"
        },
        "post": {
            "Cancun": [
                {
                    "hash": "0x03d0ed82d83e24f20368cc45eed6441ca333b846453279ed8f5032f96a337db6",
                    "logs": "0x1dcc4de8dec75d7aab85b567b6ccd41ad312451b948a7413f0a142fd40d49347",
                    "txbytes": "0xf880800a83162c1994110000000000000000000000000000000000000080a0000000000000000000000000200000000000000000000000000000000000000025a096f3b1247713e9bf4892f11e9c156991986f45064d2210448f7492058b817396a06f5a7777fcb00122fe0a7742cc26a03ad11a8a731d3d4757d0e4258d6ffe9c6a",
                    "indexes": {
                        "data": 0,
                        "gas": 0,
                        "value": 0
                    },
                    "state": {
                        "0x1100000000000000000000000000000000000000": {
                            "nonce": "0x00",
                            "balance": "0x00",
                            "code": "0x60006000600060006000600035620493e0f100",
                            "storage": {}
                        },
                        "0x1000000000000000000000000000000000000000": {
                            "nonce": "0x00",
                            "balance": "0x2710",
                            "code": "0x602d80600f60003960006000f000fe600060006000600060017310000000000000000000000000000000000000016207a120f2600155600160025500",
                            "storage": {}
                        },
                        "0x2000000000000000000000000000000000000000": {
                            "nonce": "0x01",
                            "balance": "0x2710",
                            "code": "0x6000602d80601160003960006000f500fe600060006000600060017310000000000000000000000000000000000000016207a120f2600155600160025500",
                            "storage": {}
                        },
                        "0xa94f5374fce5edbc8e2a8697c15331677e6ebf0b": {
                            "nonce": "0x01",
                            "balance": "0x2386f26fb35a04",
                            "code": "0x",
                            "storage": {}
                        },
                        "0x9f9f2f99f78bfedcd1f32d936203bd1c0cb00853": {
                            "nonce": "0x01",
                            "balance": "0x00",
                            "code": "0x",
                            "storage": {
                                "0x02": "0x01"
                            }
                        }
                    }
                }
            ]
        },
        "config": {
            "blobSchedule": {
                "Cancun": {
                    "target": "0x03",
                    "max": "0x06",
                    "baseFeeUpdateFraction": "0x32f0ed"
                }
            },
            "chainid": "0x01"
        },
        "_info": {
            "hash": "0xfafa9d39eacab7e3ba8f01476f915b3bafb18296cd98b08e7f2006883d87a23e",
            "comment": "`execution-spec-tests` generated test",
            "filling-transition-tool": "ethereum-spec-evm-resolver 0.0.5",
            "description": "No description available - add a docstring to the python test class or function.",
            "url": "",
            "fixture-format": "state_test",
            "eels-resolution": {
                "git-url": "https://github.com/marioevz/execution-specs.git",
                "branch": "forks/bpo1",
                "commit": "3387e5f4aedfe99becfdc39b444d6371e25e0924"
            }
        }
    },
    "tests/static/state_tests/stCallCodes/callcodeInInitcodeToEmptyContractFiller.json::callcodeInInitcodeToEmptyContract[fork_Osaka-state_test-d0]": {
        "env": {
            "currentCoinbase": "0x2adc25665018aa1fe0e6bc666dac8fc2697ff9ba",
            "currentGasLimit": "0x989680",
            "currentNumber": "0x01",
            "currentTimestamp": "0x03e8",
            "currentRandom": "0x0000000000000000000000000000000000000000000000000000000000020000",
            "currentDifficulty": "0x00",
            "currentBaseFee": "0x0a",
            "currentExcessBlobGas": "0x00"
        },
        "pre": {
            "0x1100000000000000000000000000000000000000": {
                "nonce": "0x00",
                "balance": "0x00",
                "code": "0x60006000600060006000600035620493e0f100",
                "storage": {}
            },
            "0x1000000000000000000000000000000000000000": {
                "nonce": "0x00",
                "balance": "0x2710",
                "code": "0x602d80600f60003960006000f000fe600060006000600060017310000000000000000000000000000000000000016207a120f2600155600160025500",
                "storage": {}
            },
            "0x2000000000000000000000000000000000000000": {
                "nonce": "0x00",
                "balance": "0x2710",
                "code": "0x6000602d80601160003960006000f500fe600060006000600060017310000000000000000000000000000000000000016207a120f2600155600160025500",
                "storage": {}
            },
            "0xa94f5374fce5edbc8e2a8697c15331677e6ebf0b": {
                "nonce": "0x00",
                "balance": "0x2386f26fc10000",
                "code": "0x",
                "storage": {}
            }
        },
        "transaction": {
            "nonce": "0x00",
            "gasPrice": "0x0a",
            "gasLimit": [
                "0x162c19"
            ],
            "to": "0x1100000000000000000000000000000000000000",
            "value": [
                "0x00"
            ],
            "data": [
                "0x0000000000000000000000001000000000000000000000000000000000000000"
            ],
            "sender": "0xa94f5374fce5edbc8e2a8697c15331677e6ebf0b",
            "secretKey": "0x45a915e4d060149eb4365960e6a7a45f334393093061116b197e3240065ff2d8"
        },
        "post": {
            "Osaka": [
                {
                    "hash": "0xf78b4cca764e41441b5c8209614d087ef515a60e38a06a8eeb8965eb8cce9de3",
                    "logs": "0x1dcc4de8dec75d7aab85b567b6ccd41ad312451b948a7413f0a142fd40d49347",
                    "txbytes": "0xf880800a83162c1994110000000000000000000000000000000000000080a0000000000000000000000000100000000000000000000000000000000000000025a0e65635df90ff66b096f7aaf1ef6c255b0033768eb2e52d7a365bdee80b2061c1a050ceaa75e1335003783a17b11f36b4727b11840cfdafd74b2dd863b173472598",
                    "indexes": {
                        "data": 0,
                        "gas": 0,
                        "value": 0
                    },
                    "state": {
                        "0x1100000000000000000000000000000000000000": {
                            "nonce": "0x00",
                            "balance": "0x00",
                            "code": "0x60006000600060006000600035620493e0f100",
                            "storage": {}
                        },
                        "0x1000000000000000000000000000000000000000": {
                            "nonce": "0x01",
                            "balance": "0x2710",
                            "code": "0x602d80600f60003960006000f000fe600060006000600060017310000000000000000000000000000000000000016207a120f2600155600160025500",
                            "storage": {}
                        },
                        "0x2000000000000000000000000000000000000000": {
                            "nonce": "0x00",
                            "balance": "0x2710",
                            "code": "0x6000602d80601160003960006000f500fe600060006000600060017310000000000000000000000000000000000000016207a120f2600155600160025500",
                            "storage": {}
                        },
                        "0xa94f5374fce5edbc8e2a8697c15331677e6ebf0b": {
                            "nonce": "0x01",
                            "balance": "0x2386f26fb35a9a",
                            "code": "0x",
                            "storage": {}
                        },
                        "0x13136008b64ff592819b2fa6d43f2835c452020e": {
                            "nonce": "0x01",
                            "balance": "0x00",
                            "code": "0x",
                            "storage": {
                                "0x02": "0x01"
                            }
                        }
                    }
                }
            ]
        },
        "config": {
            "blobSchedule": {
                "Cancun": {
                    "target": "0x03",
                    "max": "0x06",
                    "baseFeeUpdateFraction": "0x32f0ed"
                },
                "Prague": {
                    "target": "0x06",
                    "max": "0x09",
                    "baseFeeUpdateFraction": "0x4c6964"
                },
                "Osaka": {
                    "target": "0x06",
                    "max": "0x09",
                    "baseFeeUpdateFraction": "0x4c6964"
                }
            },
            "chainid": "0x01"
        },
        "_info": {
            "hash": "0x96f54957bdb83d255db65568a5dfe3c7442bc54e6386be9ae6a25a8c0d51fc08",
            "comment": "`execution-spec-tests` generated test",
            "filling-transition-tool": "ethereum-spec-evm-resolver 0.0.5",
            "description": "No description available - add a docstring to the python test class or function.",
            "url": "",
            "fixture-format": "state_test",
            "eels-resolution": {
                "git-url": "https://github.com/marioevz/execution-specs.git",
                "branch": "forks/bpo1",
                "commit": "3387e5f4aedfe99becfdc39b444d6371e25e0924"
            }
        }
    },
    "tests/static/state_tests/stCallCodes/callcodeInInitcodeToEmptyContractFiller.json::callcodeInInitcodeToEmptyContract[fork_Osaka-state_test-d1]": {
        "env": {
            "currentCoinbase": "0x2adc25665018aa1fe0e6bc666dac8fc2697ff9ba",
            "currentGasLimit": "0x989680",
            "currentNumber": "0x01",
            "currentTimestamp": "0x03e8",
            "currentRandom": "0x0000000000000000000000000000000000000000000000000000000000020000",
            "currentDifficulty": "0x00",
            "currentBaseFee": "0x0a",
            "currentExcessBlobGas": "0x00"
        },
        "pre": {
            "0x1100000000000000000000000000000000000000": {
                "nonce": "0x00",
                "balance": "0x00",
                "code": "0x60006000600060006000600035620493e0f100",
                "storage": {}
            },
            "0x1000000000000000000000000000000000000000": {
                "nonce": "0x00",
                "balance": "0x2710",
                "code": "0x602d80600f60003960006000f000fe600060006000600060017310000000000000000000000000000000000000016207a120f2600155600160025500",
                "storage": {}
            },
            "0x2000000000000000000000000000000000000000": {
                "nonce": "0x00",
                "balance": "0x2710",
                "code": "0x6000602d80601160003960006000f500fe600060006000600060017310000000000000000000000000000000000000016207a120f2600155600160025500",
                "storage": {}
            },
            "0xa94f5374fce5edbc8e2a8697c15331677e6ebf0b": {
                "nonce": "0x00",
                "balance": "0x2386f26fc10000",
                "code": "0x",
                "storage": {}
            }
        },
        "transaction": {
            "nonce": "0x00",
            "gasPrice": "0x0a",
            "gasLimit": [
                "0x162c19"
            ],
            "to": "0x1100000000000000000000000000000000000000",
            "value": [
                "0x00"
            ],
            "data": [
                "0x0000000000000000000000002000000000000000000000000000000000000000"
            ],
            "sender": "0xa94f5374fce5edbc8e2a8697c15331677e6ebf0b",
            "secretKey": "0x45a915e4d060149eb4365960e6a7a45f334393093061116b197e3240065ff2d8"
        },
        "post": {
            "Osaka": [
                {
                    "hash": "0x03d0ed82d83e24f20368cc45eed6441ca333b846453279ed8f5032f96a337db6",
                    "logs": "0x1dcc4de8dec75d7aab85b567b6ccd41ad312451b948a7413f0a142fd40d49347",
                    "txbytes": "0xf880800a83162c1994110000000000000000000000000000000000000080a0000000000000000000000000200000000000000000000000000000000000000025a096f3b1247713e9bf4892f11e9c156991986f45064d2210448f7492058b817396a06f5a7777fcb00122fe0a7742cc26a03ad11a8a731d3d4757d0e4258d6ffe9c6a",
                    "indexes": {
                        "data": 0,
                        "gas": 0,
                        "value": 0
                    },
                    "state": {
                        "0x1100000000000000000000000000000000000000": {
                            "nonce": "0x00",
                            "balance": "0x00",
                            "code": "0x60006000600060006000600035620493e0f100",
                            "storage": {}
                        },
                        "0x1000000000000000000000000000000000000000": {
                            "nonce": "0x00",
                            "balance": "0x2710",
                            "code": "0x602d80600f60003960006000f000fe600060006000600060017310000000000000000000000000000000000000016207a120f2600155600160025500",
                            "storage": {}
                        },
                        "0x2000000000000000000000000000000000000000": {
                            "nonce": "0x01",
                            "balance": "0x2710",
                            "code": "0x6000602d80601160003960006000f500fe600060006000600060017310000000000000000000000000000000000000016207a120f2600155600160025500",
                            "storage": {}
                        },
                        "0xa94f5374fce5edbc8e2a8697c15331677e6ebf0b": {
                            "nonce": "0x01",
                            "balance": "0x2386f26fb35a04",
                            "code": "0x",
                            "storage": {}
                        },
                        "0x9f9f2f99f78bfedcd1f32d936203bd1c0cb00853": {
                            "nonce": "0x01",
                            "balance": "0x00",
                            "code": "0x",
                            "storage": {
                                "0x02": "0x01"
                            }
                        }
                    }
                }
            ]
        },
        "config": {
            "blobSchedule": {
                "Cancun": {
                    "target": "0x03",
                    "max": "0x06",
                    "baseFeeUpdateFraction": "0x32f0ed"
                },
                "Prague": {
                    "target": "0x06",
                    "max": "0x09",
                    "baseFeeUpdateFraction": "0x4c6964"
                },
                "Osaka": {
                    "target": "0x06",
                    "max": "0x09",
                    "baseFeeUpdateFraction": "0x4c6964"
                }
            },
            "chainid": "0x01"
        },
        "_info": {
            "hash": "0x15f0e771e50655f7a04a7fd20d78ba96fd4a13d9261804c4a47dd47a529403ea",
            "comment": "`execution-spec-tests` generated test",
            "filling-transition-tool": "ethereum-spec-evm-resolver 0.0.5",
            "description": "No description available - add a docstring to the python test class or function.",
            "url": "",
            "fixture-format": "state_test",
            "eels-resolution": {
                "git-url": "https://github.com/marioevz/execution-specs.git",
                "branch": "forks/bpo1",
                "commit": "3387e5f4aedfe99becfdc39b444d6371e25e0924"
            }
        }
    },
    "tests/static/state_tests/stCallCodes/callcodeInInitcodeToEmptyContractFiller.json::callcodeInInitcodeToEmptyContract[fork_Prague-state_test-d0]": {
        "env": {
            "currentCoinbase": "0x2adc25665018aa1fe0e6bc666dac8fc2697ff9ba",
            "currentGasLimit": "0x989680",
            "currentNumber": "0x01",
            "currentTimestamp": "0x03e8",
            "currentRandom": "0x0000000000000000000000000000000000000000000000000000000000020000",
            "currentDifficulty": "0x00",
            "currentBaseFee": "0x0a",
            "currentExcessBlobGas": "0x00"
        },
        "pre": {
            "0x1100000000000000000000000000000000000000": {
                "nonce": "0x00",
                "balance": "0x00",
                "code": "0x60006000600060006000600035620493e0f100",
                "storage": {}
            },
            "0x1000000000000000000000000000000000000000": {
                "nonce": "0x00",
                "balance": "0x2710",
                "code": "0x602d80600f60003960006000f000fe600060006000600060017310000000000000000000000000000000000000016207a120f2600155600160025500",
                "storage": {}
            },
            "0x2000000000000000000000000000000000000000": {
                "nonce": "0x00",
                "balance": "0x2710",
                "code": "0x6000602d80601160003960006000f500fe600060006000600060017310000000000000000000000000000000000000016207a120f2600155600160025500",
                "storage": {}
            },
            "0xa94f5374fce5edbc8e2a8697c15331677e6ebf0b": {
                "nonce": "0x00",
                "balance": "0x2386f26fc10000",
                "code": "0x",
                "storage": {}
            }
        },
        "transaction": {
            "nonce": "0x00",
            "gasPrice": "0x0a",
            "gasLimit": [
                "0x162c19"
            ],
            "to": "0x1100000000000000000000000000000000000000",
            "value": [
                "0x00"
            ],
            "data": [
                "0x0000000000000000000000001000000000000000000000000000000000000000"
            ],
            "sender": "0xa94f5374fce5edbc8e2a8697c15331677e6ebf0b",
            "secretKey": "0x45a915e4d060149eb4365960e6a7a45f334393093061116b197e3240065ff2d8"
        },
        "post": {
            "Prague": [
                {
                    "hash": "0xf78b4cca764e41441b5c8209614d087ef515a60e38a06a8eeb8965eb8cce9de3",
                    "logs": "0x1dcc4de8dec75d7aab85b567b6ccd41ad312451b948a7413f0a142fd40d49347",
                    "txbytes": "0xf880800a83162c1994110000000000000000000000000000000000000080a0000000000000000000000000100000000000000000000000000000000000000025a0e65635df90ff66b096f7aaf1ef6c255b0033768eb2e52d7a365bdee80b2061c1a050ceaa75e1335003783a17b11f36b4727b11840cfdafd74b2dd863b173472598",
                    "indexes": {
                        "data": 0,
                        "gas": 0,
                        "value": 0
                    },
                    "state": {
                        "0x1100000000000000000000000000000000000000": {
                            "nonce": "0x00",
                            "balance": "0x00",
                            "code": "0x60006000600060006000600035620493e0f100",
                            "storage": {}
                        },
                        "0x1000000000000000000000000000000000000000": {
                            "nonce": "0x01",
                            "balance": "0x2710",
                            "code": "0x602d80600f60003960006000f000fe600060006000600060017310000000000000000000000000000000000000016207a120f2600155600160025500",
                            "storage": {}
                        },
                        "0x2000000000000000000000000000000000000000": {
                            "nonce": "0x00",
                            "balance": "0x2710",
                            "code": "0x6000602d80601160003960006000f500fe600060006000600060017310000000000000000000000000000000000000016207a120f2600155600160025500",
                            "storage": {}
                        },
                        "0xa94f5374fce5edbc8e2a8697c15331677e6ebf0b": {
                            "nonce": "0x01",
                            "balance": "0x2386f26fb35a9a",
                            "code": "0x",
                            "storage": {}
                        },
                        "0x13136008b64ff592819b2fa6d43f2835c452020e": {
                            "nonce": "0x01",
                            "balance": "0x00",
                            "code": "0x",
                            "storage": {
                                "0x02": "0x01"
                            }
                        }
                    }
                }
            ]
        },
        "config": {
            "blobSchedule": {
                "Cancun": {
                    "target": "0x03",
                    "max": "0x06",
                    "baseFeeUpdateFraction": "0x32f0ed"
                },
                "Prague": {
                    "target": "0x06",
                    "max": "0x09",
                    "baseFeeUpdateFraction": "0x4c6964"
                }
            },
            "chainid": "0x01"
        },
        "_info": {
            "hash": "0xf644539a9af9ed5196f8e949303264a450f358bc8d12816f87aa94e804998743",
            "comment": "`execution-spec-tests` generated test",
            "filling-transition-tool": "ethereum-spec-evm-resolver 0.0.5",
            "description": "No description available - add a docstring to the python test class or function.",
            "url": "",
            "fixture-format": "state_test",
            "eels-resolution": {
                "git-url": "https://github.com/marioevz/execution-specs.git",
                "branch": "forks/bpo1",
                "commit": "3387e5f4aedfe99becfdc39b444d6371e25e0924"
            }
        }
    },
    "tests/static/state_tests/stCallCodes/callcodeInInitcodeToEmptyContractFiller.json::callcodeInInitcodeToEmptyContract[fork_Prague-state_test-d1]": {
        "env": {
            "currentCoinbase": "0x2adc25665018aa1fe0e6bc666dac8fc2697ff9ba",
            "currentGasLimit": "0x989680",
            "currentNumber": "0x01",
            "currentTimestamp": "0x03e8",
            "currentRandom": "0x0000000000000000000000000000000000000000000000000000000000020000",
            "currentDifficulty": "0x00",
            "currentBaseFee": "0x0a",
            "currentExcessBlobGas": "0x00"
        },
        "pre": {
            "0x1100000000000000000000000000000000000000": {
                "nonce": "0x00",
                "balance": "0x00",
                "code": "0x60006000600060006000600035620493e0f100",
                "storage": {}
            },
            "0x1000000000000000000000000000000000000000": {
                "nonce": "0x00",
                "balance": "0x2710",
                "code": "0x602d80600f60003960006000f000fe600060006000600060017310000000000000000000000000000000000000016207a120f2600155600160025500",
                "storage": {}
            },
            "0x2000000000000000000000000000000000000000": {
                "nonce": "0x00",
                "balance": "0x2710",
                "code": "0x6000602d80601160003960006000f500fe600060006000600060017310000000000000000000000000000000000000016207a120f2600155600160025500",
                "storage": {}
            },
            "0xa94f5374fce5edbc8e2a8697c15331677e6ebf0b": {
                "nonce": "0x00",
                "balance": "0x2386f26fc10000",
                "code": "0x",
                "storage": {}
            }
        },
        "transaction": {
            "nonce": "0x00",
            "gasPrice": "0x0a",
            "gasLimit": [
                "0x162c19"
            ],
            "to": "0x1100000000000000000000000000000000000000",
            "value": [
                "0x00"
            ],
            "data": [
                "0x0000000000000000000000002000000000000000000000000000000000000000"
            ],
            "sender": "0xa94f5374fce5edbc8e2a8697c15331677e6ebf0b",
            "secretKey": "0x45a915e4d060149eb4365960e6a7a45f334393093061116b197e3240065ff2d8"
        },
        "post": {
            "Prague": [
                {
                    "hash": "0x03d0ed82d83e24f20368cc45eed6441ca333b846453279ed8f5032f96a337db6",
                    "logs": "0x1dcc4de8dec75d7aab85b567b6ccd41ad312451b948a7413f0a142fd40d49347",
                    "txbytes": "0xf880800a83162c1994110000000000000000000000000000000000000080a0000000000000000000000000200000000000000000000000000000000000000025a096f3b1247713e9bf4892f11e9c156991986f45064d2210448f7492058b817396a06f5a7777fcb00122fe0a7742cc26a03ad11a8a731d3d4757d0e4258d6ffe9c6a",
                    "indexes": {
                        "data": 0,
                        "gas": 0,
                        "value": 0
                    },
                    "state": {
                        "0x1100000000000000000000000000000000000000": {
                            "nonce": "0x00",
                            "balance": "0x00",
                            "code": "0x60006000600060006000600035620493e0f100",
                            "storage": {}
                        },
                        "0x1000000000000000000000000000000000000000": {
                            "nonce": "0x00",
                            "balance": "0x2710",
                            "code": "0x602d80600f60003960006000f000fe600060006000600060017310000000000000000000000000000000000000016207a120f2600155600160025500",
                            "storage": {}
                        },
                        "0x2000000000000000000000000000000000000000": {
                            "nonce": "0x01",
                            "balance": "0x2710",
                            "code": "0x6000602d80601160003960006000f500fe600060006000600060017310000000000000000000000000000000000000016207a120f2600155600160025500",
                            "storage": {}
                        },
                        "0xa94f5374fce5edbc8e2a8697c15331677e6ebf0b": {
                            "nonce": "0x01",
                            "balance": "0x2386f26fb35a04",
                            "code": "0x",
                            "storage": {}
                        },
                        "0x9f9f2f99f78bfedcd1f32d936203bd1c0cb00853": {
                            "nonce": "0x01",
                            "balance": "0x00",
                            "code": "0x",
                            "storage": {
                                "0x02": "0x01"
                            }
                        }
                    }
                }
            ]
        },
        "config": {
            "blobSchedule": {
                "Cancun": {
                    "target": "0x03",
                    "max": "0x06",
                    "baseFeeUpdateFraction": "0x32f0ed"
                },
                "Prague": {
                    "target": "0x06",
                    "max": "0x09",
                    "baseFeeUpdateFraction": "0x4c6964"
                }
            },
            "chainid": "0x01"
        },
        "_info": {
            "hash": "0xf546a19c7ee4672fd00e5a1b705d53f89a9df0143af7c0bf65e0e3c62d64cff2",
            "comment": "`execution-spec-tests` generated test",
            "filling-transition-tool": "ethereum-spec-evm-resolver 0.0.5",
            "description": "No description available - add a docstring to the python test class or function.",
            "url": "",
            "fixture-format": "state_test",
            "eels-resolution": {
                "git-url": "https://github.com/marioevz/execution-specs.git",
                "branch": "forks/bpo1",
                "commit": "3387e5f4aedfe99becfdc39b444d6371e25e0924"
            }
        }
    }
}