{
    "tests/static/state_tests/stCallCodes/call_OOG_additionalGasCosts1Filler.json::call_OOG_additionalGasCosts1[fork_Cancun-state_test-]": {
        "env": {
            "currentCoinbase": "0x94fae55a8b2434de1989901d8ea1249ac5e03550",
            "currentGasLimit": "0xb2d05e00",
            "currentNumber": "0x01",
            "currentTimestamp": "0x03e8",
            "currentRandom": "0x0000000000000000000000000000000000000000000000000000000000020000",
            "currentDifficulty": "0x00",
            "currentBaseFee": "0x0a",
            "currentExcessBlobGas": "0x00"
        },
        "pre": {
            "0xc2a24afb15c6e72e78bc1aae2a1264a808732931": {
                "nonce": "0x00",
                "balance": "0x0de0b6b3a7640000",
                "code": "0x",
                "storage": {}
            },
            "0xf1a07d6d07480a7d9aacacd89e884643cc768b58": {
                "nonce": "0x00",
                "balance": "0x0de0b6b3a7640000",
                "code": "0x6000",
                "storage": {}
            },
            "0xf1a07d6d07480a7d9aacacd89e884643cc768c58": {
                "nonce": "0x00",
                "balance": "0x0de0b6b3a7640000",
                "code": "0x6040600060406000600073f1a07d6d07480a7d9aacacd89e884643cc768b58611770f100",
                "storage": {}
            },
            "0x94fae55a8b2434de1989901d8ea1249ac5e03550": {
                "nonce": "0x01",
                "balance": "0x00",
                "code": "0x",
                "storage": {}
            }
        },
        "transaction": {
            "nonce": "0x00",
            "gasPrice": "0x0a",
            "gasLimit": [
                "0x7530"
            ],
            "to": "0xf1a07d6d07480a7d9aacacd89e884643cc768c58",
            "value": [
                "0x00"
            ],
            "data": [
                "0x"
            ],
            "sender": "0xc2a24afb15c6e72e78bc1aae2a1264a808732931",
            "secretKey": "0x42ae851281a1922705d8e80af1a07d6d07480a7d9aacacd89e884643cc768b58"
        },
        "post": {
            "Cancun": [
                {
                    "hash": "0xa45191f5a267b42b895ab8baac0773f8bdbe1b78fe04f3783b2469ddb77efb5d",
                    "logs": "0x1dcc4de8dec75d7aab85b567b6ccd41ad312451b948a7413f0a142fd40d49347",
                    "txbytes": "0xf85f800a82753094f1a07d6d07480a7d9aacacd89e884643cc768c58808026a0ea0e4f860f1f373119f11a52b42c93bd2c2ec6b7d1b3caa7dc79ab77c3769602a0755f3071366abaabea95d008338e38943786e35c1967d1c3e30e19898622d53a",
                    "indexes": {
                        "data": 0,
                        "gas": 0,
                        "value": 0
                    },
                    "state": {
                        "0xc2a24afb15c6e72e78bc1aae2a1264a808732931": {
                            "nonce": "0x01",
                            "balance": "0x0de0b6b3a76064f4",
                            "code": "0x",
                            "storage": {}
                        },
                        "0xf1a07d6d07480a7d9aacacd89e884643cc768b58": {
                            "nonce": "0x00",
                            "balance": "0x0de0b6b3a7640000",
                            "code": "0x6000",
                            "storage": {}
                        },
                        "0xf1a07d6d07480a7d9aacacd89e884643cc768c58": {
                            "nonce": "0x00",
                            "balance": "0x0de0b6b3a7640000",
                            "code": "0x6040600060406000600073f1a07d6d07480a7d9aacacd89e884643cc768b58611770f100",
                            "storage": {}
                        },
                        "0x94fae55a8b2434de1989901d8ea1249ac5e03550": {
                            "nonce": "0x01",
                            "balance": "0x00",
                            "code": "0x",
                            "storage": {}
                        }
                    }
                }
            ]
        },
        "config": {
            "blobSchedule": {
                "Cancun": {
                    "target": "0x03",
                    "max": "0x06",
                    "baseFeeUpdateFraction": "0x32f0ed"
                }
            },
            "chainid": "0x01"
        },
        "_info": {
            "hash": "0xf63aac0ead71654c76933a927fda59e7fa9b622b69cd960f27dbda513656874e",
            "comment": "`execution-spec-tests` generated test",
            "filling-transition-tool": "ethereum-spec-evm-resolver 0.0.5",
            "description": "No description available - add a docstring to the python test class or function.",
            "url": "",
            "fixture-format": "state_test",
            "eels-resolution": {
                "git-url": "https://github.com/ethereum/execution-specs.git",
                "branch": "forks/bpos",
                "commit": "7aacb2c54111391af5e98c505d5010b5698a770f"
            }
        }
    },
    "tests/static/state_tests/stCallCodes/call_OOG_additionalGasCosts1Filler.json::call_OOG_additionalGasCosts1[fork_Osaka-state_test-]": {
        "env": {
            "currentCoinbase": "0x94fae55a8b2434de1989901d8ea1249ac5e03550",
            "currentGasLimit": "0xb2d05e00",
            "currentNumber": "0x01",
            "currentTimestamp": "0x03e8",
            "currentRandom": "0x0000000000000000000000000000000000000000000000000000000000020000",
            "currentDifficulty": "0x00",
            "currentBaseFee": "0x0a",
            "currentExcessBlobGas": "0x00"
        },
        "pre": {
            "0xc2a24afb15c6e72e78bc1aae2a1264a808732931": {
                "nonce": "0x00",
                "balance": "0x0de0b6b3a7640000",
                "code": "0x",
                "storage": {}
            },
            "0xf1a07d6d07480a7d9aacacd89e884643cc768b58": {
                "nonce": "0x00",
                "balance": "0x0de0b6b3a7640000",
                "code": "0x6000",
                "storage": {}
            },
            "0xf1a07d6d07480a7d9aacacd89e884643cc768c58": {
                "nonce": "0x00",
                "balance": "0x0de0b6b3a7640000",
                "code": "0x6040600060406000600073f1a07d6d07480a7d9aacacd89e884643cc768b58611770f100",
                "storage": {}
            },
            "0x94fae55a8b2434de1989901d8ea1249ac5e03550": {
                "nonce": "0x01",
                "balance": "0x00",
                "code": "0x",
                "storage": {}
            }
        },
        "transaction": {
            "nonce": "0x00",
            "gasPrice": "0x0a",
            "gasLimit": [
                "0x7530"
            ],
            "to": "0xf1a07d6d07480a7d9aacacd89e884643cc768c58",
            "value": [
                "0x00"
            ],
            "data": [
                "0x"
            ],
            "sender": "0xc2a24afb15c6e72e78bc1aae2a1264a808732931",
            "secretKey": "0x42ae851281a1922705d8e80af1a07d6d07480a7d9aacacd89e884643cc768b58"
        },
        "post": {
            "Osaka": [
                {
                    "hash": "0xa45191f5a267b42b895ab8baac0773f8bdbe1b78fe04f3783b2469ddb77efb5d",
                    "logs": "0x1dcc4de8dec75d7aab85b567b6ccd41ad312451b948a7413f0a142fd40d49347",
                    "txbytes": "0xf85f800a82753094f1a07d6d07480a7d9aacacd89e884643cc768c58808026a0ea0e4f860f1f373119f11a52b42c93bd2c2ec6b7d1b3caa7dc79ab77c3769602a0755f3071366abaabea95d008338e38943786e35c1967d1c3e30e19898622d53a",
                    "indexes": {
                        "data": 0,
                        "gas": 0,
                        "value": 0
                    },
                    "state": {
                        "0xc2a24afb15c6e72e78bc1aae2a1264a808732931": {
                            "nonce": "0x01",
                            "balance": "0x0de0b6b3a76064f4",
                            "code": "0x",
                            "storage": {}
                        },
                        "0xf1a07d6d07480a7d9aacacd89e884643cc768b58": {
                            "nonce": "0x00",
                            "balance": "0x0de0b6b3a7640000",
                            "code": "0x6000",
                            "storage": {}
                        },
                        "0xf1a07d6d07480a7d9aacacd89e884643cc768c58": {
                            "nonce": "0x00",
                            "balance": "0x0de0b6b3a7640000",
                            "code": "0x6040600060406000600073f1a07d6d07480a7d9aacacd89e884643cc768b58611770f100",
                            "storage": {}
                        },
                        "0x94fae55a8b2434de1989901d8ea1249ac5e03550": {
                            "nonce": "0x01",
                            "balance": "0x00",
                            "code": "0x",
                            "storage": {}
                        }
                    }
                }
            ]
        },
        "config": {
            "blobSchedule": {
                "Cancun": {
                    "target": "0x03",
                    "max": "0x06",
                    "baseFeeUpdateFraction": "0x32f0ed"
                },
                "Prague": {
                    "target": "0x06",
                    "max": "0x09",
                    "baseFeeUpdateFraction": "0x4c6964"
                },
                "Osaka": {
                    "target": "0x06",
                    "max": "0x09",
                    "baseFeeUpdateFraction": "0x4c6964"
                }
            },
            "chainid": "0x01"
        },
        "_info": {
            "hash": "0x845171c421d2c02aff61437cb5b32ea8ec6ed966b3f9aa620a5d1e32ee7c55c8",
            "comment": "`execution-spec-tests` generated test",
            "filling-transition-tool": "ethereum-spec-evm-resolver 0.0.5",
            "description": "No description available - add a docstring to the python test class or function.",
            "url": "",
            "fixture-format": "state_test",
            "eels-resolution": {
                "git-url": "https://github.com/ethereum/execution-specs.git",
                "branch": "forks/bpos",
                "commit": "7aacb2c54111391af5e98c505d5010b5698a770f"
            }
        }
    },
    "tests/static/state_tests/stCallCodes/call_OOG_additionalGasCosts1Filler.json::call_OOG_additionalGasCosts1[fork_Prague-state_test-]": {
        "env": {
            "currentCoinbase": "0x94fae55a8b2434de1989901d8ea1249ac5e03550",
            "currentGasLimit": "0xb2d05e00",
            "currentNumber": "0x01",
            "currentTimestamp": "0x03e8",
            "currentRandom": "0x0000000000000000000000000000000000000000000000000000000000020000",
            "currentDifficulty": "0x00",
            "currentBaseFee": "0x0a",
            "currentExcessBlobGas": "0x00"
        },
        "pre": {
            "0xc2a24afb15c6e72e78bc1aae2a1264a808732931": {
                "nonce": "0x00",
                "balance": "0x0de0b6b3a7640000",
                "code": "0x",
                "storage": {}
            },
            "0xf1a07d6d07480a7d9aacacd89e884643cc768b58": {
                "nonce": "0x00",
                "balance": "0x0de0b6b3a7640000",
                "code": "0x6000",
                "storage": {}
            },
            "0xf1a07d6d07480a7d9aacacd89e884643cc768c58": {
                "nonce": "0x00",
                "balance": "0x0de0b6b3a7640000",
                "code": "0x6040600060406000600073f1a07d6d07480a7d9aacacd89e884643cc768b58611770f100",
                "storage": {}
            },
            "0x94fae55a8b2434de1989901d8ea1249ac5e03550": {
                "nonce": "0x01",
                "balance": "0x00",
                "code": "0x",
                "storage": {}
            }
        },
        "transaction": {
            "nonce": "0x00",
            "gasPrice": "0x0a",
            "gasLimit": [
                "0x7530"
            ],
            "to": "0xf1a07d6d07480a7d9aacacd89e884643cc768c58",
            "value": [
                "0x00"
            ],
            "data": [
                "0x"
            ],
            "sender": "0xc2a24afb15c6e72e78bc1aae2a1264a808732931",
            "secretKey": "0x42ae851281a1922705d8e80af1a07d6d07480a7d9aacacd89e884643cc768b58"
        },
        "post": {
            "Prague": [
                {
                    "hash": "0xa45191f5a267b42b895ab8baac0773f8bdbe1b78fe04f3783b2469ddb77efb5d",
                    "logs": "0x1dcc4de8dec75d7aab85b567b6ccd41ad312451b948a7413f0a142fd40d49347",
                    "txbytes": "0xf85f800a82753094f1a07d6d07480a7d9aacacd89e884643cc768c58808026a0ea0e4f860f1f373119f11a52b42c93bd2c2ec6b7d1b3caa7dc79ab77c3769602a0755f3071366abaabea95d008338e38943786e35c1967d1c3e30e19898622d53a",
                    "indexes": {
                        "data": 0,
                        "gas": 0,
                        "value": 0
                    },
                    "state": {
                        "0xc2a24afb15c6e72e78bc1aae2a1264a808732931": {
                            "nonce": "0x01",
                            "balance": "0x0de0b6b3a76064f4",
                            "code": "0x",
                            "storage": {}
                        },
                        "0xf1a07d6d07480a7d9aacacd89e884643cc768b58": {
                            "nonce": "0x00",
                            "balance": "0x0de0b6b3a7640000",
                            "code": "0x6000",
                            "storage": {}
                        },
                        "0xf1a07d6d07480a7d9aacacd89e884643cc768c58": {
                            "nonce": "0x00",
                            "balance": "0x0de0b6b3a7640000",
                            "code": "0x6040600060406000600073f1a07d6d07480a7d9aacacd89e884643cc768b58611770f100",
                            "storage": {}
                        },
                        "0x94fae55a8b2434de1989901d8ea1249ac5e03550": {
                            "nonce": "0x01",
                            "balance": "0x00",
                            "code": "0x",
                            "storage": {}
                        }
                    }
                }
            ]
        },
        "config": {
            "blobSchedule": {
                "Cancun": {
                    "target": "0x03",
                    "max": "0x06",
                    "baseFeeUpdateFraction": "0x32f0ed"
                },
                "Prague": {
                    "target": "0x06",
                    "max": "0x09",
                    "baseFeeUpdateFraction": "0x4c6964"
                }
            },
            "chainid": "0x01"
        },
        "_info": {
            "hash": "0x39018895d8874b60c511fbec1b98e9056267cb60e9b3a711e778b3a9de671f8e",
            "comment": "`execution-spec-tests` generated test",
            "filling-transition-tool": "ethereum-spec-evm-resolver 0.0.5",
            "description": "No description available - add a docstring to the python test class or function.",
            "url": "",
            "fixture-format": "state_test",
            "eels-resolution": {
                "git-url": "https://github.com/ethereum/execution-specs.git",
                "branch": "forks/bpos",
                "commit": "7aacb2c54111391af5e98c505d5010b5698a770f"
            }
        }
    }
}