{
    "tests/static/state_tests/stCallCodes/callcodecallcodecall_110_SuicideMiddleFiller.json::callcodecallcodecall_110_SuicideMiddle[fork_Cancun-state_test-]": {
        "env": {
            "currentCoinbase": "0x2adc25665018aa1fe0e6bc666dac8fc2697ff9ba",
            "currentGasLimit": "0x01c9c380",
            "currentNumber": "0x01",
            "currentTimestamp": "0x03e8",
            "currentRandom": "0x0000000000000000000000000000000000000000000000000000000000020000",
            "currentDifficulty": "0x00",
            "currentBaseFee": "0x0a",
            "currentExcessBlobGas": "0x00"
        },
        "pre": {
            "0x85345efacf07223b9f8906c8ccec226e330c59e9": {
                "nonce": "0x00",
                "balance": "0x0de0b6b3a7640000",
                "code": "0x",
                "storage": {}
            },
            "0xc175d52a0ad97779a54c1a17d4760cc2aa7fb4d5": {
                "nonce": "0x00",
                "balance": "0x02540be400",
                "code": "0x600160035500",
                "storage": {}
            },
            "0xc175d52a0ad97779a54c1a17d4760cc2aa7fb5d5": {
                "nonce": "0x00",
                "balance": "0x0de0b6b3a7640000",
                "code": "0x6040600060406000600073c175d52a0ad97779a54c1a17d4760cc2aa7fb6d5620249f0f260005500",
                "storage": {}
            },
            "0xc175d52a0ad97779a54c1a17d4760cc2aa7fb6d5": {
                "nonce": "0x00",
                "balance": "0x02540be400",
                "code": "0x6040600060406000600073c175d52a0ad97779a54c1a17d4760cc2aa7fb7d5620186a0f260015500",
                "storage": {}
            },
            "0xc175d52a0ad97779a54c1a17d4760cc2aa7fb7d5": {
                "nonce": "0x00",
                "balance": "0x02540be400",
                "code": "0x73c175d52a0ad97779a54c1a17d4760cc2aa7fb5d5ff6040600060406000600073c175d52a0ad97779a54c1a17d4760cc2aa7fb4d561c350f160025500",
                "storage": {}
            }
        },
        "transaction": {
            "nonce": "0x00",
            "gasPrice": "0x0a",
            "gasLimit": [
                "0x2dc6c0"
            ],
            "to": "0xc175d52a0ad97779a54c1a17d4760cc2aa7fb5d5",
            "value": [
                "0x00"
            ],
            "data": [
                "0x"
            ],
            "sender": "0x85345efacf07223b9f8906c8ccec226e330c59e9",
            "secretKey": "0x8a8f25fc1fc6c451227e4511c175d52a0ad97779a54c1a17d4760cc2aa7fb4d5"
        },
        "post": {
            "Cancun": [
                {
                    "hash": "0x433569278da07952fcd9791fa4c69a669f7bca80ef1ccf527fe4466a2fd1dd7b",
                    "logs": "0x1dcc4de8dec75d7aab85b567b6ccd41ad312451b948a7413f0a142fd40d49347",
                    "txbytes": "0xf860800a832dc6c094c175d52a0ad97779a54c1a17d4760cc2aa7fb5d5808026a0843810aa42d42868f310c563da3e8d4e3ff7d55d1ff86f120a8cff494702883ea03767a9e14b0d898fff920c17e063f20152d14726287546ed7c2f642b798e963d",
                    "indexes": {
                        "data": 0,
                        "gas": 0,
                        "value": 0
                    },
                    "state": {
                        "0x85345efacf07223b9f8906c8ccec226e330c59e9": {
                            "nonce": "0x01",
                            "balance": "0x0de0b6b3a7587c3a",
                            "code": "0x",
                            "storage": {}
                        },
                        "0xc175d52a0ad97779a54c1a17d4760cc2aa7fb4d5": {
                            "nonce": "0x00",
                            "balance": "0x02540be400",
                            "code": "0x600160035500",
                            "storage": {}
                        },
                        "0xc175d52a0ad97779a54c1a17d4760cc2aa7fb5d5": {
                            "nonce": "0x00",
                            "balance": "0x0de0b6b3a7640000",
                            "code": "0x6040600060406000600073c175d52a0ad97779a54c1a17d4760cc2aa7fb6d5620249f0f260005500",
                            "storage": {
                                "0x01": "0x01",
                                "0x00": "0x01"
                            }
                        },
                        "0xc175d52a0ad97779a54c1a17d4760cc2aa7fb6d5": {
                            "nonce": "0x00",
                            "balance": "0x02540be400",
                            "code": "0x6040600060406000600073c175d52a0ad97779a54c1a17d4760cc2aa7fb7d5620186a0f260015500",
                            "storage": {}
                        },
                        "0xc175d52a0ad97779a54c1a17d4760cc2aa7fb7d5": {
                            "nonce": "0x00",
                            "balance": "0x02540be400",
                            "code": "0x73c175d52a0ad97779a54c1a17d4760cc2aa7fb5d5ff6040600060406000600073c175d52a0ad97779a54c1a17d4760cc2aa7fb4d561c350f160025500",
                            "storage": {}
                        }
                    }
                }
            ]
        },
        "config": {
            "blobSchedule": {
                "Cancun": {
                    "target": "0x03",
                    "max": "0x06",
                    "baseFeeUpdateFraction": "0x32f0ed"
                }
            },
            "chainid": "0x01"
        },
        "_info": {
            "hash": "0xaa9d126daa56e420cd665b7d5e795a57fde440de6a098dcfea6fca299fd14110",
            "comment": "`execution-spec-tests` generated test",
            "filling-transition-tool": "ethereum-spec-evm-resolver 0.0.5",
            "description": "No description available - add a docstring to the python test class or function.",
            "url": "",
            "fixture-format": "state_test",
            "eels-resolution": {
                "git-url": "https://github.com/marioevz/execution-specs.git",
                "branch": "forks/bpo1",
                "commit": "3387e5f4aedfe99becfdc39b444d6371e25e0924"
            }
        }
    },
    "tests/static/state_tests/stCallCodes/callcodecallcodecall_110_SuicideMiddleFiller.json::callcodecallcodecall_110_SuicideMiddle[fork_Osaka-state_test-]": {
        "env": {
            "currentCoinbase": "0x2adc25665018aa1fe0e6bc666dac8fc2697ff9ba",
            "currentGasLimit": "0x01c9c380",
            "currentNumber": "0x01",
            "currentTimestamp": "0x03e8",
            "currentRandom": "0x0000000000000000000000000000000000000000000000000000000000020000",
            "currentDifficulty": "0x00",
            "currentBaseFee": "0x0a",
            "currentExcessBlobGas": "0x00"
        },
        "pre": {
            "0x85345efacf07223b9f8906c8ccec226e330c59e9": {
                "nonce": "0x00",
                "balance": "0x0de0b6b3a7640000",
                "code": "0x",
                "storage": {}
            },
            "0xc175d52a0ad97779a54c1a17d4760cc2aa7fb4d5": {
                "nonce": "0x00",
                "balance": "0x02540be400",
                "code": "0x600160035500",
                "storage": {}
            },
            "0xc175d52a0ad97779a54c1a17d4760cc2aa7fb5d5": {
                "nonce": "0x00",
                "balance": "0x0de0b6b3a7640000",
                "code": "0x6040600060406000600073c175d52a0ad97779a54c1a17d4760cc2aa7fb6d5620249f0f260005500",
                "storage": {}
            },
            "0xc175d52a0ad97779a54c1a17d4760cc2aa7fb6d5": {
                "nonce": "0x00",
                "balance": "0x02540be400",
                "code": "0x6040600060406000600073c175d52a0ad97779a54c1a17d4760cc2aa7fb7d5620186a0f260015500",
                "storage": {}
            },
            "0xc175d52a0ad97779a54c1a17d4760cc2aa7fb7d5": {
                "nonce": "0x00",
                "balance": "0x02540be400",
                "code": "0x73c175d52a0ad97779a54c1a17d4760cc2aa7fb5d5ff6040600060406000600073c175d52a0ad97779a54c1a17d4760cc2aa7fb4d561c350f160025500",
                "storage": {}
            }
        },
        "transaction": {
            "nonce": "0x00",
            "gasPrice": "0x0a",
            "gasLimit": [
                "0x2dc6c0"
            ],
            "to": "0xc175d52a0ad97779a54c1a17d4760cc2aa7fb5d5",
            "value": [
                "0x00"
            ],
            "data": [
                "0x"
            ],
            "sender": "0x85345efacf07223b9f8906c8ccec226e330c59e9",
            "secretKey": "0x8a8f25fc1fc6c451227e4511c175d52a0ad97779a54c1a17d4760cc2aa7fb4d5"
        },
        "post": {
            "Osaka": [
                {
                    "hash": "0x433569278da07952fcd9791fa4c69a669f7bca80ef1ccf527fe4466a2fd1dd7b",
                    "logs": "0x1dcc4de8dec75d7aab85b567b6ccd41ad312451b948a7413f0a142fd40d49347",
                    "txbytes": "0xf860800a832dc6c094c175d52a0ad97779a54c1a17d4760cc2aa7fb5d5808026a0843810aa42d42868f310c563da3e8d4e3ff7d55d1ff86f120a8cff494702883ea03767a9e14b0d898fff920c17e063f20152d14726287546ed7c2f642b798e963d",
                    "indexes": {
                        "data": 0,
                        "gas": 0,
                        "value": 0
                    },
                    "state": {
                        "0x85345efacf07223b9f8906c8ccec226e330c59e9": {
                            "nonce": "0x01",
                            "balance": "0x0de0b6b3a7587c3a",
                            "code": "0x",
                            "storage": {}
                        },
                        "0xc175d52a0ad97779a54c1a17d4760cc2aa7fb4d5": {
                            "nonce": "0x00",
                            "balance": "0x02540be400",
                            "code": "0x600160035500",
                            "storage": {}
                        },
                        "0xc175d52a0ad97779a54c1a17d4760cc2aa7fb5d5": {
                            "nonce": "0x00",
                            "balance": "0x0de0b6b3a7640000",
                            "code": "0x6040600060406000600073c175d52a0ad97779a54c1a17d4760cc2aa7fb6d5620249f0f260005500",
                            "storage": {
                                "0x01": "0x01",
                                "0x00": "0x01"
                            }
                        },
                        "0xc175d52a0ad97779a54c1a17d4760cc2aa7fb6d5": {
                            "nonce": "0x00",
                            "balance": "0x02540be400",
                            "code": "0x6040600060406000600073c175d52a0ad97779a54c1a17d4760cc2aa7fb7d5620186a0f260015500",
                            "storage": {}
                        },
                        "0xc175d52a0ad97779a54c1a17d4760cc2aa7fb7d5": {
                            "nonce": "0x00",
                            "balance": "0x02540be400",
                            "code": "0x73c175d52a0ad97779a54c1a17d4760cc2aa7fb5d5ff6040600060406000600073c175d52a0ad97779a54c1a17d4760cc2aa7fb4d561c350f160025500",
                            "storage": {}
                        }
                    }
                }
            ]
        },
        "config": {
            "blobSchedule": {
                "Cancun": {
                    "target": "0x03",
                    "max": "0x06",
                    "baseFeeUpdateFraction": "0x32f0ed"
                },
                "Prague": {
                    "target": "0x06",
                    "max": "0x09",
                    "baseFeeUpdateFraction": "0x4c6964"
                },
                "Osaka": {
                    "target": "0x06",
                    "max": "0x09",
                    "baseFeeUpdateFraction": "0x4c6964"
                }
            },
            "chainid": "0x01"
        },
        "_info": {
            "hash": "0xc76ffc51ecef2aacacf538a17c35c1d25a7391d297f3b463788ef61b23b38bd0",
            "comment": "`execution-spec-tests` generated test",
            "filling-transition-tool": "ethereum-spec-evm-resolver 0.0.5",
            "description": "No description available - add a docstring to the python test class or function.",
            "url": "",
            "fixture-format": "state_test",
            "eels-resolution": {
                "git-url": "https://github.com/marioevz/execution-specs.git",
                "branch": "forks/bpo1",
                "commit": "3387e5f4aedfe99becfdc39b444d6371e25e0924"
            }
        }
    },
    "tests/static/state_tests/stCallCodes/callcodecallcodecall_110_SuicideMiddleFiller.json::callcodecallcodecall_110_SuicideMiddle[fork_Prague-state_test-]": {
        "env": {
            "currentCoinbase": "0x2adc25665018aa1fe0e6bc666dac8fc2697ff9ba",
            "currentGasLimit": "0x01c9c380",
            "currentNumber": "0x01",
            "currentTimestamp": "0x03e8",
            "currentRandom": "0x0000000000000000000000000000000000000000000000000000000000020000",
            "currentDifficulty": "0x00",
            "currentBaseFee": "0x0a",
            "currentExcessBlobGas": "0x00"
        },
        "pre": {
            "0x85345efacf07223b9f8906c8ccec226e330c59e9": {
                "nonce": "0x00",
                "balance": "0x0de0b6b3a7640000",
                "code": "0x",
                "storage": {}
            },
            "0xc175d52a0ad97779a54c1a17d4760cc2aa7fb4d5": {
                "nonce": "0x00",
                "balance": "0x02540be400",
                "code": "0x600160035500",
                "storage": {}
            },
            "0xc175d52a0ad97779a54c1a17d4760cc2aa7fb5d5": {
                "nonce": "0x00",
                "balance": "0x0de0b6b3a7640000",
                "code": "0x6040600060406000600073c175d52a0ad97779a54c1a17d4760cc2aa7fb6d5620249f0f260005500",
                "storage": {}
            },
            "0xc175d52a0ad97779a54c1a17d4760cc2aa7fb6d5": {
                "nonce": "0x00",
                "balance": "0x02540be400",
                "code": "0x6040600060406000600073c175d52a0ad97779a54c1a17d4760cc2aa7fb7d5620186a0f260015500",
                "storage": {}
            },
            "0xc175d52a0ad97779a54c1a17d4760cc2aa7fb7d5": {
                "nonce": "0x00",
                "balance": "0x02540be400",
                "code": "0x73c175d52a0ad97779a54c1a17d4760cc2aa7fb5d5ff6040600060406000600073c175d52a0ad97779a54c1a17d4760cc2aa7fb4d561c350f160025500",
                "storage": {}
            }
        },
        "transaction": {
            "nonce": "0x00",
            "gasPrice": "0x0a",
            "gasLimit": [
                "0x2dc6c0"
            ],
            "to": "0xc175d52a0ad97779a54c1a17d4760cc2aa7fb5d5",
            "value": [
                "0x00"
            ],
            "data": [
                "0x"
            ],
            "sender": "0x85345efacf07223b9f8906c8ccec226e330c59e9",
            "secretKey": "0x8a8f25fc1fc6c451227e4511c175d52a0ad97779a54c1a17d4760cc2aa7fb4d5"
        },
        "post": {
            "Prague": [
                {
                    "hash": "0x433569278da07952fcd9791fa4c69a669f7bca80ef1ccf527fe4466a2fd1dd7b",
                    "logs": "0x1dcc4de8dec75d7aab85b567b6ccd41ad312451b948a7413f0a142fd40d49347",
                    "txbytes": "0xf860800a832dc6c094c175d52a0ad97779a54c1a17d4760cc2aa7fb5d5808026a0843810aa42d42868f310c563da3e8d4e3ff7d55d1ff86f120a8cff494702883ea03767a9e14b0d898fff920c17e063f20152d14726287546ed7c2f642b798e963d",
                    "indexes": {
                        "data": 0,
                        "gas": 0,
                        "value": 0
                    },
                    "state": {
                        "0x85345efacf07223b9f8906c8ccec226e330c59e9": {
                            "nonce": "0x01",
                            "balance": "0x0de0b6b3a7587c3a",
                            "code": "0x",
                            "storage": {}
                        },
                        "0xc175d52a0ad97779a54c1a17d4760cc2aa7fb4d5": {
                            "nonce": "0x00",
                            "balance": "0x02540be400",
                            "code": "0x600160035500",
                            "storage": {}
                        },
                        "0xc175d52a0ad97779a54c1a17d4760cc2aa7fb5d5": {
                            "nonce": "0x00",
                            "balance": "0x0de0b6b3a7640000",
                            "code": "0x6040600060406000600073c175d52a0ad97779a54c1a17d4760cc2aa7fb6d5620249f0f260005500",
                            "storage": {
                                "0x01": "0x01",
                                "0x00": "0x01"
                            }
                        },
                        "0xc175d52a0ad97779a54c1a17d4760cc2aa7fb6d5": {
                            "nonce": "0x00",
                            "balance": "0x02540be400",
                            "code": "0x6040600060406000600073c175d52a0ad97779a54c1a17d4760cc2aa7fb7d5620186a0f260015500",
                            "storage": {}
                        },
                        "0xc175d52a0ad97779a54c1a17d4760cc2aa7fb7d5": {
                            "nonce": "0x00",
                            "balance": "0x02540be400",
                            "code": "0x73c175d52a0ad97779a54c1a17d4760cc2aa7fb5d5ff6040600060406000600073c175d52a0ad97779a54c1a17d4760cc2aa7fb4d561c350f160025500",
                            "storage": {}
                        }
                    }
                }
            ]
        },
        "config": {
            "blobSchedule": {
                "Cancun": {
                    "target": "0x03",
                    "max": "0x06",
                    "baseFeeUpdateFraction": "0x32f0ed"
                },
                "Prague": {
                    "target": "0x06",
                    "max": "0x09",
                    "baseFeeUpdateFraction": "0x4c6964"
                }
            },
            "chainid": "0x01"
        },
        "_info": {
            "hash": "0x2fd778628def76561c00beb2cff9998f27ccb037a55f10863e639ebd9cd93f74",
            "comment": "`execution-spec-tests` generated test",
            "filling-transition-tool": "ethereum-spec-evm-resolver 0.0.5",
            "description": "No description available - add a docstring to the python test class or function.",
            "url": "",
            "fixture-format": "state_test",
            "eels-resolution": {
                "git-url": "https://github.com/marioevz/execution-specs.git",
                "branch": "forks/bpo1",
                "commit": "3387e5f4aedfe99becfdc39b444d6371e25e0924"
            }
        }
    }
}