{
    "tests/static/state_tests/stCallCodes/callcodecallcallcode_101Filler.json::callcodecallcallcode_101[fork_Cancun-state_test-]": {
        "env": {
            "currentCoinbase": "0x2adc25665018aa1fe0e6bc666dac8fc2697ff9ba",
            "currentGasLimit": "0x01c9c380",
            "currentNumber": "0x01",
            "currentTimestamp": "0x03e8",
            "currentRandom": "0x0000000000000000000000000000000000000000000000000000000000020000",
            "currentDifficulty": "0x00",
            "currentBaseFee": "0x0a",
            "currentExcessBlobGas": "0x00"
        },
        "pre": {
            "0x7d4e94f1410c146b369e600946d6a5ede59c49d5": {
                "nonce": "0x00",
                "balance": "0x0de0b6b3a7640000",
                "code": "0x",
                "storage": {}
            },
            "0xb40b2fba883b0ecfee141eae73cdf944349f8ec8": {
                "nonce": "0x00",
                "balance": "0x00",
                "code": "0x600160035533600455346007553061014a553261014c55366101505538610152553a6101545500",
                "storage": {}
            },
            "0xb40b2fba883b0ecfee141eae73cdf944349f8fc8": {
                "nonce": "0x00",
                "balance": "0x0de0b6b3a7640000",
                "code": "0x6040600060406000600373b40b2fba883b0ecfee141eae73cdf944349f8ec86203d090f260025500",
                "storage": {}
            },
            "0xb40b2fba883b0ecfee141eae73cdf944349f90c8": {
                "nonce": "0x00",
                "balance": "0x0de0b6b3a7640000",
                "code": "0x6040600060406000600273b40b2fba883b0ecfee141eae73cdf944349f8fc8620493e0f160015500",
                "storage": {}
            },
            "0xb40b2fba883b0ecfee141eae73cdf944349f91c8": {
                "nonce": "0x00",
                "balance": "0x0de0b6b3a7640000",
                "code": "0x6040600060406000600173b40b2fba883b0ecfee141eae73cdf944349f90c862055730f260005500",
                "storage": {}
            }
        },
        "transaction": {
            "nonce": "0x00",
            "gasPrice": "0x0a",
            "gasLimit": [
                "0x2dc6c0"
            ],
            "to": "0xb40b2fba883b0ecfee141eae73cdf944349f91c8",
            "value": [
                "0x00"
            ],
            "data": [
                "0x"
            ],
            "sender": "0x7d4e94f1410c146b369e600946d6a5ede59c49d5",
            "secretKey": "0xff1fb51465750ef8fda59e25b40b2fba883b0ecfee141eae73cdf944349f8ec8"
        },
        "post": {
            "Cancun": [
                {
                    "hash": "0x70163feabdbceba56b5cbe789d65d04c924439780a80f2052265013078a255f1",
                    "logs": "0x1dcc4de8dec75d7aab85b567b6ccd41ad312451b948a7413f0a142fd40d49347",
                    "txbytes": "0xf860800a832dc6c094b40b2fba883b0ecfee141eae73cdf944349f91c8808025a0782faccd36216c75b104055d94e3f7128e6333b135e79a03369bc97c694fc299a05f3512d36c6663d7c711c914c40e032232a85814666213757f10e1cd95ad8f2c",
                    "indexes": {
                        "data": 0,
                        "gas": 0,
                        "value": 0
                    },
                    "state": {
                        "0x7d4e94f1410c146b369e600946d6a5ede59c49d5": {
                            "nonce": "0x01",
                            "balance": "0x0de0b6b3a7376ca2",
                            "code": "0x",
                            "storage": {}
                        },
                        "0xb40b2fba883b0ecfee141eae73cdf944349f8ec8": {
                            "nonce": "0x00",
                            "balance": "0x00",
                            "code": "0x600160035533600455346007553061014a553261014c55366101505538610152553a6101545500",
                            "storage": {}
                        },
                        "0xb40b2fba883b0ecfee141eae73cdf944349f8fc8": {
                            "nonce": "0x00",
                            "balance": "0x0de0b6b3a7640002",
                            "code": "0x6040600060406000600373b40b2fba883b0ecfee141eae73cdf944349f8ec86203d090f260025500",
                            "storage": {
                                "0x03": "0x01",
                                "0x04": "0xb40b2fba883b0ecfee141eae73cdf944349f8fc8",
                                "0x07": "0x03",
                                "0x014a": "0xb40b2fba883b0ecfee141eae73cdf944349f8fc8",
                                "0x014c": "0x7d4e94f1410c146b369e600946d6a5ede59c49d5",
                                "0x0150": "0x40",
                                "0x0152": "0x27",
                                "0x0154": "0x0a",
                                "0x02": "0x01"
                            }
                        },
                        "0xb40b2fba883b0ecfee141eae73cdf944349f90c8": {
                            "nonce": "0x00",
                            "balance": "0x0de0b6b3a7640000",
                            "code": "0x6040600060406000600273b40b2fba883b0ecfee141eae73cdf944349f8fc8620493e0f160015500",
                            "storage": {}
                        },
                        "0xb40b2fba883b0ecfee141eae73cdf944349f91c8": {
                            "nonce": "0x00",
                            "balance": "0x0de0b6b3a763fffe",
                            "code": "0x6040600060406000600173b40b2fba883b0ecfee141eae73cdf944349f90c862055730f260005500",
                            "storage": {
                                "0x01": "0x01",
                                "0x00": "0x01"
                            }
                        }
                    }
                }
            ]
        },
        "config": {
            "blobSchedule": {
                "Cancun": {
                    "target": "0x03",
                    "max": "0x06",
                    "baseFeeUpdateFraction": "0x32f0ed"
                }
            },
            "chainid": "0x01"
        },
        "_info": {
            "hash": "0x13b9d2f3b4606b2e5dc349e8e1a8966e238898ea7715a9b15f653efb5dacfc7d",
            "comment": "`execution-specs` generated test",
            "filling-transition-tool": "2.18.0rc6",
            "description": "No description available - add a docstring to the python test class or function.",
            "url": "",
            "fixture-format": "state_test"
        }
    },
    "tests/static/state_tests/stCallCodes/callcodecallcallcode_101Filler.json::callcodecallcallcode_101[fork_Osaka-state_test-]": {
        "env": {
            "currentCoinbase": "0x2adc25665018aa1fe0e6bc666dac8fc2697ff9ba",
            "currentGasLimit": "0x01c9c380",
            "currentNumber": "0x01",
            "currentTimestamp": "0x03e8",
            "currentRandom": "0x0000000000000000000000000000000000000000000000000000000000020000",
            "currentDifficulty": "0x00",
            "currentBaseFee": "0x0a",
            "currentExcessBlobGas": "0x00"
        },
        "pre": {
            "0x7d4e94f1410c146b369e600946d6a5ede59c49d5": {
                "nonce": "0x00",
                "balance": "0x0de0b6b3a7640000",
                "code": "0x",
                "storage": {}
            },
            "0xb40b2fba883b0ecfee141eae73cdf944349f8ec8": {
                "nonce": "0x00",
                "balance": "0x00",
                "code": "0x600160035533600455346007553061014a553261014c55366101505538610152553a6101545500",
                "storage": {}
            },
            "0xb40b2fba883b0ecfee141eae73cdf944349f8fc8": {
                "nonce": "0x00",
                "balance": "0x0de0b6b3a7640000",
                "code": "0x6040600060406000600373b40b2fba883b0ecfee141eae73cdf944349f8ec86203d090f260025500",
                "storage": {}
            },
            "0xb40b2fba883b0ecfee141eae73cdf944349f90c8": {
                "nonce": "0x00",
                "balance": "0x0de0b6b3a7640000",
                "code": "0x6040600060406000600273b40b2fba883b0ecfee141eae73cdf944349f8fc8620493e0f160015500",
                "storage": {}
            },
            "0xb40b2fba883b0ecfee141eae73cdf944349f91c8": {
                "nonce": "0x00",
                "balance": "0x0de0b6b3a7640000",
                "code": "0x6040600060406000600173b40b2fba883b0ecfee141eae73cdf944349f90c862055730f260005500",
                "storage": {}
            }
        },
        "transaction": {
            "nonce": "0x00",
            "gasPrice": "0x0a",
            "gasLimit": [
                "0x2dc6c0"
            ],
            "to": "0xb40b2fba883b0ecfee141eae73cdf944349f91c8",
            "value": [
                "0x00"
            ],
            "data": [
                "0x"
            ],
            "sender": "0x7d4e94f1410c146b369e600946d6a5ede59c49d5",
            "secretKey": "0xff1fb51465750ef8fda59e25b40b2fba883b0ecfee141eae73cdf944349f8ec8"
        },
        "post": {
            "Osaka": [
                {
                    "hash": "0x70163feabdbceba56b5cbe789d65d04c924439780a80f2052265013078a255f1",
                    "logs": "0x1dcc4de8dec75d7aab85b567b6ccd41ad312451b948a7413f0a142fd40d49347",
                    "txbytes": "0xf860800a832dc6c094b40b2fba883b0ecfee141eae73cdf944349f91c8808025a0782faccd36216c75b104055d94e3f7128e6333b135e79a03369bc97c694fc299a05f3512d36c6663d7c711c914c40e032232a85814666213757f10e1cd95ad8f2c",
                    "indexes": {
                        "data": 0,
                        "gas": 0,
                        "value": 0
                    },
                    "state": {
                        "0x7d4e94f1410c146b369e600946d6a5ede59c49d5": {
                            "nonce": "0x01",
                            "balance": "0x0de0b6b3a7376ca2",
                            "code": "0x",
                            "storage": {}
                        },
                        "0xb40b2fba883b0ecfee141eae73cdf944349f8ec8": {
                            "nonce": "0x00",
                            "balance": "0x00",
                            "code": "0x600160035533600455346007553061014a553261014c55366101505538610152553a6101545500",
                            "storage": {}
                        },
                        "0xb40b2fba883b0ecfee141eae73cdf944349f8fc8": {
                            "nonce": "0x00",
                            "balance": "0x0de0b6b3a7640002",
                            "code": "0x6040600060406000600373b40b2fba883b0ecfee141eae73cdf944349f8ec86203d090f260025500",
                            "storage": {
                                "0x03": "0x01",
                                "0x04": "0xb40b2fba883b0ecfee141eae73cdf944349f8fc8",
                                "0x07": "0x03",
                                "0x014a": "0xb40b2fba883b0ecfee141eae73cdf944349f8fc8",
                                "0x014c": "0x7d4e94f1410c146b369e600946d6a5ede59c49d5",
                                "0x0150": "0x40",
                                "0x0152": "0x27",
                                "0x0154": "0x0a",
                                "0x02": "0x01"
                            }
                        },
                        "0xb40b2fba883b0ecfee141eae73cdf944349f90c8": {
                            "nonce": "0x00",
                            "balance": "0x0de0b6b3a7640000",
                            "code": "0x6040600060406000600273b40b2fba883b0ecfee141eae73cdf944349f8fc8620493e0f160015500",
                            "storage": {}
                        },
                        "0xb40b2fba883b0ecfee141eae73cdf944349f91c8": {
                            "nonce": "0x00",
                            "balance": "0x0de0b6b3a763fffe",
                            "code": "0x6040600060406000600173b40b2fba883b0ecfee141eae73cdf944349f90c862055730f260005500",
                            "storage": {
                                "0x01": "0x01",
                                "0x00": "0x01"
                            }
                        }
                    }
                }
            ]
        },
        "config": {
            "blobSchedule": {
                "Cancun": {
                    "target": "0x03",
                    "max": "0x06",
                    "baseFeeUpdateFraction": "0x32f0ed"
                },
                "Prague": {
                    "target": "0x06",
                    "max": "0x09",
                    "baseFeeUpdateFraction": "0x4c6964"
                },
                "Osaka": {
                    "target": "0x06",
                    "max": "0x09",
                    "baseFeeUpdateFraction": "0x4c6964"
                }
            },
            "chainid": "0x01"
        },
        "_info": {
            "hash": "0xc1ff04d9b9381c61c507523c392c3f8608befb47e91c609a813ae2377c02290d",
            "comment": "`execution-specs` generated test",
            "filling-transition-tool": "2.18.0rc6",
            "description": "No description available - add a docstring to the python test class or function.",
            "url": "",
            "fixture-format": "state_test"
        }
    },
    "tests/static/state_tests/stCallCodes/callcodecallcallcode_101Filler.json::callcodecallcallcode_101[fork_Prague-state_test-]": {
        "env": {
            "currentCoinbase": "0x2adc25665018aa1fe0e6bc666dac8fc2697ff9ba",
            "currentGasLimit": "0x01c9c380",
            "currentNumber": "0x01",
            "currentTimestamp": "0x03e8",
            "currentRandom": "0x0000000000000000000000000000000000000000000000000000000000020000",
            "currentDifficulty": "0x00",
            "currentBaseFee": "0x0a",
            "currentExcessBlobGas": "0x00"
        },
        "pre": {
            "0x7d4e94f1410c146b369e600946d6a5ede59c49d5": {
                "nonce": "0x00",
                "balance": "0x0de0b6b3a7640000",
                "code": "0x",
                "storage": {}
            },
            "0xb40b2fba883b0ecfee141eae73cdf944349f8ec8": {
                "nonce": "0x00",
                "balance": "0x00",
                "code": "0x600160035533600455346007553061014a553261014c55366101505538610152553a6101545500",
                "storage": {}
            },
            "0xb40b2fba883b0ecfee141eae73cdf944349f8fc8": {
                "nonce": "0x00",
                "balance": "0x0de0b6b3a7640000",
                "code": "0x6040600060406000600373b40b2fba883b0ecfee141eae73cdf944349f8ec86203d090f260025500",
                "storage": {}
            },
            "0xb40b2fba883b0ecfee141eae73cdf944349f90c8": {
                "nonce": "0x00",
                "balance": "0x0de0b6b3a7640000",
                "code": "0x6040600060406000600273b40b2fba883b0ecfee141eae73cdf944349f8fc8620493e0f160015500",
                "storage": {}
            },
            "0xb40b2fba883b0ecfee141eae73cdf944349f91c8": {
                "nonce": "0x00",
                "balance": "0x0de0b6b3a7640000",
                "code": "0x6040600060406000600173b40b2fba883b0ecfee141eae73cdf944349f90c862055730f260005500",
                "storage": {}
            }
        },
        "transaction": {
            "nonce": "0x00",
            "gasPrice": "0x0a",
            "gasLimit": [
                "0x2dc6c0"
            ],
            "to": "0xb40b2fba883b0ecfee141eae73cdf944349f91c8",
            "value": [
                "0x00"
            ],
            "data": [
                "0x"
            ],
            "sender": "0x7d4e94f1410c146b369e600946d6a5ede59c49d5",
            "secretKey": "0xff1fb51465750ef8fda59e25b40b2fba883b0ecfee141eae73cdf944349f8ec8"
        },
        "post": {
            "Prague": [
                {
                    "hash": "0x70163feabdbceba56b5cbe789d65d04c924439780a80f2052265013078a255f1",
                    "logs": "0x1dcc4de8dec75d7aab85b567b6ccd41ad312451b948a7413f0a142fd40d49347",
                    "txbytes": "0xf860800a832dc6c094b40b2fba883b0ecfee141eae73cdf944349f91c8808025a0782faccd36216c75b104055d94e3f7128e6333b135e79a03369bc97c694fc299a05f3512d36c6663d7c711c914c40e032232a85814666213757f10e1cd95ad8f2c",
                    "indexes": {
                        "data": 0,
                        "gas": 0,
                        "value": 0
                    },
                    "state": {
                        "0x7d4e94f1410c146b369e600946d6a5ede59c49d5": {
                            "nonce": "0x01",
                            "balance": "0x0de0b6b3a7376ca2",
                            "code": "0x",
                            "storage": {}
                        },
                        "0xb40b2fba883b0ecfee141eae73cdf944349f8ec8": {
                            "nonce": "0x00",
                            "balance": "0x00",
                            "code": "0x600160035533600455346007553061014a553261014c55366101505538610152553a6101545500",
                            "storage": {}
                        },
                        "0xb40b2fba883b0ecfee141eae73cdf944349f8fc8": {
                            "nonce": "0x00",
                            "balance": "0x0de0b6b3a7640002",
                            "code": "0x6040600060406000600373b40b2fba883b0ecfee141eae73cdf944349f8ec86203d090f260025500",
                            "storage": {
                                "0x03": "0x01",
                                "0x04": "0xb40b2fba883b0ecfee141eae73cdf944349f8fc8",
                                "0x07": "0x03",
                                "0x014a": "0xb40b2fba883b0ecfee141eae73cdf944349f8fc8",
                                "0x014c": "0x7d4e94f1410c146b369e600946d6a5ede59c49d5",
                                "0x0150": "0x40",
                                "0x0152": "0x27",
                                "0x0154": "0x0a",
                                "0x02": "0x01"
                            }
                        },
                        "0xb40b2fba883b0ecfee141eae73cdf944349f90c8": {
                            "nonce": "0x00",
                            "balance": "0x0de0b6b3a7640000",
                            "code": "0x6040600060406000600273b40b2fba883b0ecfee141eae73cdf944349f8fc8620493e0f160015500",
                            "storage": {}
                        },
                        "0xb40b2fba883b0ecfee141eae73cdf944349f91c8": {
                            "nonce": "0x00",
                            "balance": "0x0de0b6b3a763fffe",
                            "code": "0x6040600060406000600173b40b2fba883b0ecfee141eae73cdf944349f90c862055730f260005500",
                            "storage": {
                                "0x01": "0x01",
                                "0x00": "0x01"
                            }
                        }
                    }
                }
            ]
        },
        "config": {
            "blobSchedule": {
                "Cancun": {
                    "target": "0x03",
                    "max": "0x06",
                    "baseFeeUpdateFraction": "0x32f0ed"
                },
                "Prague": {
                    "target": "0x06",
                    "max": "0x09",
                    "baseFeeUpdateFraction": "0x4c6964"
                }
            },
            "chainid": "0x01"
        },
        "_info": {
            "hash": "0x6308c64ad847f4de113ddbab9dffff6d600e6a7e3727faa72ec6b419cb070dd8",
            "comment": "`execution-specs` generated test",
            "filling-transition-tool": "2.18.0rc6",
            "description": "No description available - add a docstring to the python test class or function.",
            "url": "",
            "fixture-format": "state_test"
        }
    }
}