{
    "tests/static/state_tests/stCallCodes/callcodecallcall_100Filler.json::callcodecallcall_100[fork_Cancun-state_test-]": {
        "env": {
            "currentCoinbase": "0x2adc25665018aa1fe0e6bc666dac8fc2697ff9ba",
            "currentGasLimit": "0x01c9c380",
            "currentNumber": "0x01",
            "currentTimestamp": "0x03e8",
            "currentRandom": "0x0000000000000000000000000000000000000000000000000000000000020000",
            "currentDifficulty": "0x00",
            "currentBaseFee": "0x0a",
            "currentExcessBlobGas": "0x00"
        },
        "pre": {
            "0xd634297255ffde0e1b3b44c02858ed222f4072e7": {
                "nonce": "0x00",
                "balance": "0x0de0b6b3a7640000",
                "code": "0x",
                "storage": {}
            },
            "0xd193465b0d6a2eb98d0b4bd7c97e32868e4335ed": {
                "nonce": "0x00",
                "balance": "0x00",
                "code": "0x600160035533600455346007553061014a553261014c55366101505538610152553a6101545500",
                "storage": {}
            },
            "0xd193465b0d6a2eb98d0b4bd7c97e32868e4336ed": {
                "nonce": "0x00",
                "balance": "0x0de0b6b3a7640000",
                "code": "0x6040600060406000600373d193465b0d6a2eb98d0b4bd7c97e32868e4335ed6203d090f160025500",
                "storage": {}
            },
            "0xd193465b0d6a2eb98d0b4bd7c97e32868e4337ed": {
                "nonce": "0x00",
                "balance": "0x0de0b6b3a7640000",
                "code": "0x6040600060406000600273d193465b0d6a2eb98d0b4bd7c97e32868e4336ed620493e0f160015500",
                "storage": {}
            },
            "0xd193465b0d6a2eb98d0b4bd7c97e32868e4338ed": {
                "nonce": "0x00",
                "balance": "0x0de0b6b3a7640000",
                "code": "0x6040600060406000600173d193465b0d6a2eb98d0b4bd7c97e32868e4337ed62055730f260005500",
                "storage": {}
            }
        },
        "transaction": {
            "nonce": "0x00",
            "gasPrice": "0x0a",
            "gasLimit": [
                "0x2dc6c0"
            ],
            "to": "0xd193465b0d6a2eb98d0b4bd7c97e32868e4338ed",
            "value": [
                "0x00"
            ],
            "data": [
                "0x"
            ],
            "sender": "0xd634297255ffde0e1b3b44c02858ed222f4072e7",
            "secretKey": "0x57424b8cde84794cbffc1816d193465b0d6a2eb98d0b4bd7c97e32868e4335ed"
        },
        "post": {
            "Cancun": [
                {
                    "hash": "0x20aaab6e64cfc87652497d36b8462facd5c98214383f15a0460f9185e9ecc15d",
                    "logs": "0x1dcc4de8dec75d7aab85b567b6ccd41ad312451b948a7413f0a142fd40d49347",
                    "txbytes": "0xf860800a832dc6c094d193465b0d6a2eb98d0b4bd7c97e32868e4338ed808025a01ad1f051f7d2873780161160af18a33eafc06d5a88f21a057a92d110a7e98e7aa01f96e9e3562963eef0af4cbf68ad5dae58b2b9b19b12ed8e158e67ae9c9cbaea",
                    "indexes": {
                        "data": 0,
                        "gas": 0,
                        "value": 0
                    },
                    "state": {
                        "0xd634297255ffde0e1b3b44c02858ed222f4072e7": {
                            "nonce": "0x01",
                            "balance": "0x0de0b6b3a7376ca2",
                            "code": "0x",
                            "storage": {}
                        },
                        "0xd193465b0d6a2eb98d0b4bd7c97e32868e4335ed": {
                            "nonce": "0x00",
                            "balance": "0x03",
                            "code": "0x600160035533600455346007553061014a553261014c55366101505538610152553a6101545500",
                            "storage": {
                                "0x03": "0x01",
                                "0x04": "0xd193465b0d6a2eb98d0b4bd7c97e32868e4336ed",
                                "0x07": "0x03",
                                "0x014a": "0xd193465b0d6a2eb98d0b4bd7c97e32868e4335ed",
                                "0x014c": "0xd634297255ffde0e1b3b44c02858ed222f4072e7",
                                "0x0150": "0x40",
                                "0x0152": "0x27",
                                "0x0154": "0x0a"
                            }
                        },
                        "0xd193465b0d6a2eb98d0b4bd7c97e32868e4336ed": {
                            "nonce": "0x00",
                            "balance": "0x0de0b6b3a763ffff",
                            "code": "0x6040600060406000600373d193465b0d6a2eb98d0b4bd7c97e32868e4335ed6203d090f160025500",
                            "storage": {
                                "0x02": "0x01"
                            }
                        },
                        "0xd193465b0d6a2eb98d0b4bd7c97e32868e4337ed": {
                            "nonce": "0x00",
                            "balance": "0x0de0b6b3a7640000",
                            "code": "0x6040600060406000600273d193465b0d6a2eb98d0b4bd7c97e32868e4336ed620493e0f160015500",
                            "storage": {}
                        },
                        "0xd193465b0d6a2eb98d0b4bd7c97e32868e4338ed": {
                            "nonce": "0x00",
                            "balance": "0x0de0b6b3a763fffe",
                            "code": "0x6040600060406000600173d193465b0d6a2eb98d0b4bd7c97e32868e4337ed62055730f260005500",
                            "storage": {
                                "0x01": "0x01",
                                "0x00": "0x01"
                            }
                        }
                    }
                }
            ]
        },
        "config": {
            "blobSchedule": {
                "Cancun": {
                    "target": "0x03",
                    "max": "0x06",
                    "baseFeeUpdateFraction": "0x32f0ed"
                }
            },
            "chainid": "0x01"
        },
        "_info": {
            "hash": "0x3ed9118395de6da414ceabb2a311202c64e51136c0de537fc634860922248684",
            "comment": "`execution-spec-tests` generated test",
            "filling-transition-tool": "ethereum-spec-evm-resolver 0.0.5",
            "description": "No description available - add a docstring to the python test class or function.",
            "url": "",
            "fixture-format": "state_test",
            "eels-resolution": {
                "git-url": "https://github.com/ethereum/execution-specs.git",
                "branch": "forks/bpos",
                "commit": "7aacb2c54111391af5e98c505d5010b5698a770f"
            }
        }
    },
    "tests/static/state_tests/stCallCodes/callcodecallcall_100Filler.json::callcodecallcall_100[fork_Osaka-state_test-]": {
        "env": {
            "currentCoinbase": "0x2adc25665018aa1fe0e6bc666dac8fc2697ff9ba",
            "currentGasLimit": "0x01c9c380",
            "currentNumber": "0x01",
            "currentTimestamp": "0x03e8",
            "currentRandom": "0x0000000000000000000000000000000000000000000000000000000000020000",
            "currentDifficulty": "0x00",
            "currentBaseFee": "0x0a",
            "currentExcessBlobGas": "0x00"
        },
        "pre": {
            "0xd634297255ffde0e1b3b44c02858ed222f4072e7": {
                "nonce": "0x00",
                "balance": "0x0de0b6b3a7640000",
                "code": "0x",
                "storage": {}
            },
            "0xd193465b0d6a2eb98d0b4bd7c97e32868e4335ed": {
                "nonce": "0x00",
                "balance": "0x00",
                "code": "0x600160035533600455346007553061014a553261014c55366101505538610152553a6101545500",
                "storage": {}
            },
            "0xd193465b0d6a2eb98d0b4bd7c97e32868e4336ed": {
                "nonce": "0x00",
                "balance": "0x0de0b6b3a7640000",
                "code": "0x6040600060406000600373d193465b0d6a2eb98d0b4bd7c97e32868e4335ed6203d090f160025500",
                "storage": {}
            },
            "0xd193465b0d6a2eb98d0b4bd7c97e32868e4337ed": {
                "nonce": "0x00",
                "balance": "0x0de0b6b3a7640000",
                "code": "0x6040600060406000600273d193465b0d6a2eb98d0b4bd7c97e32868e4336ed620493e0f160015500",
                "storage": {}
            },
            "0xd193465b0d6a2eb98d0b4bd7c97e32868e4338ed": {
                "nonce": "0x00",
                "balance": "0x0de0b6b3a7640000",
                "code": "0x6040600060406000600173d193465b0d6a2eb98d0b4bd7c97e32868e4337ed62055730f260005500",
                "storage": {}
            }
        },
        "transaction": {
            "nonce": "0x00",
            "gasPrice": "0x0a",
            "gasLimit": [
                "0x2dc6c0"
            ],
            "to": "0xd193465b0d6a2eb98d0b4bd7c97e32868e4338ed",
            "value": [
                "0x00"
            ],
            "data": [
                "0x"
            ],
            "sender": "0xd634297255ffde0e1b3b44c02858ed222f4072e7",
            "secretKey": "0x57424b8cde84794cbffc1816d193465b0d6a2eb98d0b4bd7c97e32868e4335ed"
        },
        "post": {
            "Osaka": [
                {
                    "hash": "0x20aaab6e64cfc87652497d36b8462facd5c98214383f15a0460f9185e9ecc15d",
                    "logs": "0x1dcc4de8dec75d7aab85b567b6ccd41ad312451b948a7413f0a142fd40d49347",
                    "txbytes": "0xf860800a832dc6c094d193465b0d6a2eb98d0b4bd7c97e32868e4338ed808025a01ad1f051f7d2873780161160af18a33eafc06d5a88f21a057a92d110a7e98e7aa01f96e9e3562963eef0af4cbf68ad5dae58b2b9b19b12ed8e158e67ae9c9cbaea",
                    "indexes": {
                        "data": 0,
                        "gas": 0,
                        "value": 0
                    },
                    "state": {
                        "0xd634297255ffde0e1b3b44c02858ed222f4072e7": {
                            "nonce": "0x01",
                            "balance": "0x0de0b6b3a7376ca2",
                            "code": "0x",
                            "storage": {}
                        },
                        "0xd193465b0d6a2eb98d0b4bd7c97e32868e4335ed": {
                            "nonce": "0x00",
                            "balance": "0x03",
                            "code": "0x600160035533600455346007553061014a553261014c55366101505538610152553a6101545500",
                            "storage": {
                                "0x03": "0x01",
                                "0x04": "0xd193465b0d6a2eb98d0b4bd7c97e32868e4336ed",
                                "0x07": "0x03",
                                "0x014a": "0xd193465b0d6a2eb98d0b4bd7c97e32868e4335ed",
                                "0x014c": "0xd634297255ffde0e1b3b44c02858ed222f4072e7",
                                "0x0150": "0x40",
                                "0x0152": "0x27",
                                "0x0154": "0x0a"
                            }
                        },
                        "0xd193465b0d6a2eb98d0b4bd7c97e32868e4336ed": {
                            "nonce": "0x00",
                            "balance": "0x0de0b6b3a763ffff",
                            "code": "0x6040600060406000600373d193465b0d6a2eb98d0b4bd7c97e32868e4335ed6203d090f160025500",
                            "storage": {
                                "0x02": "0x01"
                            }
                        },
                        "0xd193465b0d6a2eb98d0b4bd7c97e32868e4337ed": {
                            "nonce": "0x00",
                            "balance": "0x0de0b6b3a7640000",
                            "code": "0x6040600060406000600273d193465b0d6a2eb98d0b4bd7c97e32868e4336ed620493e0f160015500",
                            "storage": {}
                        },
                        "0xd193465b0d6a2eb98d0b4bd7c97e32868e4338ed": {
                            "nonce": "0x00",
                            "balance": "0x0de0b6b3a763fffe",
                            "code": "0x6040600060406000600173d193465b0d6a2eb98d0b4bd7c97e32868e4337ed62055730f260005500",
                            "storage": {
                                "0x01": "0x01",
                                "0x00": "0x01"
                            }
                        }
                    }
                }
            ]
        },
        "config": {
            "blobSchedule": {
                "Cancun": {
                    "target": "0x03",
                    "max": "0x06",
                    "baseFeeUpdateFraction": "0x32f0ed"
                },
                "Prague": {
                    "target": "0x06",
                    "max": "0x09",
                    "baseFeeUpdateFraction": "0x4c6964"
                },
                "Osaka": {
                    "target": "0x06",
                    "max": "0x09",
                    "baseFeeUpdateFraction": "0x4c6964"
                }
            },
            "chainid": "0x01"
        },
        "_info": {
            "hash": "0x35b68417bc318c3ba312bd5fe46f37083781d2f0f2d52f7e709b3d52443cf3f5",
            "comment": "`execution-spec-tests` generated test",
            "filling-transition-tool": "ethereum-spec-evm-resolver 0.0.5",
            "description": "No description available - add a docstring to the python test class or function.",
            "url": "",
            "fixture-format": "state_test",
            "eels-resolution": {
                "git-url": "https://github.com/ethereum/execution-specs.git",
                "branch": "forks/bpos",
                "commit": "7aacb2c54111391af5e98c505d5010b5698a770f"
            }
        }
    },
    "tests/static/state_tests/stCallCodes/callcodecallcall_100Filler.json::callcodecallcall_100[fork_Prague-state_test-]": {
        "env": {
            "currentCoinbase": "0x2adc25665018aa1fe0e6bc666dac8fc2697ff9ba",
            "currentGasLimit": "0x01c9c380",
            "currentNumber": "0x01",
            "currentTimestamp": "0x03e8",
            "currentRandom": "0x0000000000000000000000000000000000000000000000000000000000020000",
            "currentDifficulty": "0x00",
            "currentBaseFee": "0x0a",
            "currentExcessBlobGas": "0x00"
        },
        "pre": {
            "0xd634297255ffde0e1b3b44c02858ed222f4072e7": {
                "nonce": "0x00",
                "balance": "0x0de0b6b3a7640000",
                "code": "0x",
                "storage": {}
            },
            "0xd193465b0d6a2eb98d0b4bd7c97e32868e4335ed": {
                "nonce": "0x00",
                "balance": "0x00",
                "code": "0x600160035533600455346007553061014a553261014c55366101505538610152553a6101545500",
                "storage": {}
            },
            "0xd193465b0d6a2eb98d0b4bd7c97e32868e4336ed": {
                "nonce": "0x00",
                "balance": "0x0de0b6b3a7640000",
                "code": "0x6040600060406000600373d193465b0d6a2eb98d0b4bd7c97e32868e4335ed6203d090f160025500",
                "storage": {}
            },
            "0xd193465b0d6a2eb98d0b4bd7c97e32868e4337ed": {
                "nonce": "0x00",
                "balance": "0x0de0b6b3a7640000",
                "code": "0x6040600060406000600273d193465b0d6a2eb98d0b4bd7c97e32868e4336ed620493e0f160015500",
                "storage": {}
            },
            "0xd193465b0d6a2eb98d0b4bd7c97e32868e4338ed": {
                "nonce": "0x00",
                "balance": "0x0de0b6b3a7640000",
                "code": "0x6040600060406000600173d193465b0d6a2eb98d0b4bd7c97e32868e4337ed62055730f260005500",
                "storage": {}
            }
        },
        "transaction": {
            "nonce": "0x00",
            "gasPrice": "0x0a",
            "gasLimit": [
                "0x2dc6c0"
            ],
            "to": "0xd193465b0d6a2eb98d0b4bd7c97e32868e4338ed",
            "value": [
                "0x00"
            ],
            "data": [
                "0x"
            ],
            "sender": "0xd634297255ffde0e1b3b44c02858ed222f4072e7",
            "secretKey": "0x57424b8cde84794cbffc1816d193465b0d6a2eb98d0b4bd7c97e32868e4335ed"
        },
        "post": {
            "Prague": [
                {
                    "hash": "0x20aaab6e64cfc87652497d36b8462facd5c98214383f15a0460f9185e9ecc15d",
                    "logs": "0x1dcc4de8dec75d7aab85b567b6ccd41ad312451b948a7413f0a142fd40d49347",
                    "txbytes": "0xf860800a832dc6c094d193465b0d6a2eb98d0b4bd7c97e32868e4338ed808025a01ad1f051f7d2873780161160af18a33eafc06d5a88f21a057a92d110a7e98e7aa01f96e9e3562963eef0af4cbf68ad5dae58b2b9b19b12ed8e158e67ae9c9cbaea",
                    "indexes": {
                        "data": 0,
                        "gas": 0,
                        "value": 0
                    },
                    "state": {
                        "0xd634297255ffde0e1b3b44c02858ed222f4072e7": {
                            "nonce": "0x01",
                            "balance": "0x0de0b6b3a7376ca2",
                            "code": "0x",
                            "storage": {}
                        },
                        "0xd193465b0d6a2eb98d0b4bd7c97e32868e4335ed": {
                            "nonce": "0x00",
                            "balance": "0x03",
                            "code": "0x600160035533600455346007553061014a553261014c55366101505538610152553a6101545500",
                            "storage": {
                                "0x03": "0x01",
                                "0x04": "0xd193465b0d6a2eb98d0b4bd7c97e32868e4336ed",
                                "0x07": "0x03",
                                "0x014a": "0xd193465b0d6a2eb98d0b4bd7c97e32868e4335ed",
                                "0x014c": "0xd634297255ffde0e1b3b44c02858ed222f4072e7",
                                "0x0150": "0x40",
                                "0x0152": "0x27",
                                "0x0154": "0x0a"
                            }
                        },
                        "0xd193465b0d6a2eb98d0b4bd7c97e32868e4336ed": {
                            "nonce": "0x00",
                            "balance": "0x0de0b6b3a763ffff",
                            "code": "0x6040600060406000600373d193465b0d6a2eb98d0b4bd7c97e32868e4335ed6203d090f160025500",
                            "storage": {
                                "0x02": "0x01"
                            }
                        },
                        "0xd193465b0d6a2eb98d0b4bd7c97e32868e4337ed": {
                            "nonce": "0x00",
                            "balance": "0x0de0b6b3a7640000",
                            "code": "0x6040600060406000600273d193465b0d6a2eb98d0b4bd7c97e32868e4336ed620493e0f160015500",
                            "storage": {}
                        },
                        "0xd193465b0d6a2eb98d0b4bd7c97e32868e4338ed": {
                            "nonce": "0x00",
                            "balance": "0x0de0b6b3a763fffe",
                            "code": "0x6040600060406000600173d193465b0d6a2eb98d0b4bd7c97e32868e4337ed62055730f260005500",
                            "storage": {
                                "0x01": "0x01",
                                "0x00": "0x01"
                            }
                        }
                    }
                }
            ]
        },
        "config": {
            "blobSchedule": {
                "Cancun": {
                    "target": "0x03",
                    "max": "0x06",
                    "baseFeeUpdateFraction": "0x32f0ed"
                },
                "Prague": {
                    "target": "0x06",
                    "max": "0x09",
                    "baseFeeUpdateFraction": "0x4c6964"
                }
            },
            "chainid": "0x01"
        },
        "_info": {
            "hash": "0x3c5bb4a813f9e7df814874d4e8fd1960f7a194979add34be21080a6ecbb15d0d",
            "comment": "`execution-spec-tests` generated test",
            "filling-transition-tool": "ethereum-spec-evm-resolver 0.0.5",
            "description": "No description available - add a docstring to the python test class or function.",
            "url": "",
            "fixture-format": "state_test",
            "eels-resolution": {
                "git-url": "https://github.com/ethereum/execution-specs.git",
                "branch": "forks/bpos",
                "commit": "7aacb2c54111391af5e98c505d5010b5698a770f"
            }
        }
    }
}