{
    "tests/static/state_tests/stCallCodes/callcallcodecallcode_011_OOGEFiller.json::callcallcodecallcode_011_OOGE[fork_Cancun-state_test-]": {
        "env": {
            "currentCoinbase": "0x2adc25665018aa1fe0e6bc666dac8fc2697ff9ba",
            "currentGasLimit": "0x01c9c380",
            "currentNumber": "0x01",
            "currentTimestamp": "0x03e8",
            "currentRandom": "0x0000000000000000000000000000000000000000000000000000000000020000",
            "currentDifficulty": "0x00",
            "currentBaseFee": "0x0a",
            "currentExcessBlobGas": "0x00"
        },
        "pre": {
            "0x136734a58e6a971fdba6c974c81f93ccf149cef0": {
                "nonce": "0x00",
                "balance": "0x0de0b6b3a7640000",
                "code": "0x",
                "storage": {}
            },
            "0xd515c0e9affa66b6117ab0aeecd9bfc4148a77fc": {
                "nonce": "0x00",
                "balance": "0x00",
                "code": "0x6001600355622fffff60002000",
                "storage": {}
            },
            "0xd515c0e9affa66b6117ab0aeecd9bfc4148a78fc": {
                "nonce": "0x00",
                "balance": "0x00",
                "code": "0x6040600060406000600073d515c0e9affa66b6117ab0aeecd9bfc4148a77fc62061a80f26002556001600b5500",
                "storage": {}
            },
            "0xd515c0e9affa66b6117ab0aeecd9bfc4148a79fc": {
                "nonce": "0x00",
                "balance": "0x00",
                "code": "0x6040600060406000600073d515c0e9affa66b6117ab0aeecd9bfc4148a78fc620927c0f260015500",
                "storage": {}
            },
            "0xd515c0e9affa66b6117ab0aeecd9bfc4148a7afc": {
                "nonce": "0x00",
                "balance": "0x0de0b6b3a7640000",
                "code": "0x6040600060406000600073d515c0e9affa66b6117ab0aeecd9bfc4148a79fc620c3500f160005500",
                "storage": {}
            }
        },
        "transaction": {
            "nonce": "0x00",
            "gasPrice": "0x0a",
            "gasLimit": [
                "0x0f4240"
            ],
            "to": "0xd515c0e9affa66b6117ab0aeecd9bfc4148a7afc",
            "value": [
                "0x00"
            ],
            "data": [
                "0x"
            ],
            "sender": "0x136734a58e6a971fdba6c974c81f93ccf149cef0",
            "secretKey": "0x4202ae2bc29606f77e32af1ed515c0e9affa66b6117ab0aeecd9bfc4148a77fc"
        },
        "post": {
            "Cancun": [
                {
                    "hash": "0xe9ccc067feec42ae581228ffde21b2adb0236c63df741543b9c48c719ceac693",
                    "logs": "0x1dcc4de8dec75d7aab85b567b6ccd41ad312451b948a7413f0a142fd40d49347",
                    "txbytes": "0xf860800a830f424094d515c0e9affa66b6117ab0aeecd9bfc4148a7afc808025a08077eba4f81e7e93b3a60427dc11ba3cf51b0aedf30cd004824f8f82dcca953da00cb8032089e1aedf53f5ee2797532600cb8162dd386686e274c55ac1501c6181",
                    "indexes": {
                        "data": 0,
                        "gas": 0,
                        "value": 0
                    },
                    "state": {
                        "0x136734a58e6a971fdba6c974c81f93ccf149cef0": {
                            "nonce": "0x01",
                            "balance": "0x0de0b6b3a7181a78",
                            "code": "0x",
                            "storage": {}
                        },
                        "0xd515c0e9affa66b6117ab0aeecd9bfc4148a77fc": {
                            "nonce": "0x00",
                            "balance": "0x00",
                            "code": "0x6001600355622fffff60002000",
                            "storage": {}
                        },
                        "0xd515c0e9affa66b6117ab0aeecd9bfc4148a78fc": {
                            "nonce": "0x00",
                            "balance": "0x00",
                            "code": "0x6040600060406000600073d515c0e9affa66b6117ab0aeecd9bfc4148a77fc62061a80f26002556001600b5500",
                            "storage": {}
                        },
                        "0xd515c0e9affa66b6117ab0aeecd9bfc4148a79fc": {
                            "nonce": "0x00",
                            "balance": "0x00",
                            "code": "0x6040600060406000600073d515c0e9affa66b6117ab0aeecd9bfc4148a78fc620927c0f260015500",
                            "storage": {
                                "0x0b": "0x01",
                                "0x01": "0x01"
                            }
                        },
                        "0xd515c0e9affa66b6117ab0aeecd9bfc4148a7afc": {
                            "nonce": "0x00",
                            "balance": "0x0de0b6b3a7640000",
                            "code": "0x6040600060406000600073d515c0e9affa66b6117ab0aeecd9bfc4148a79fc620c3500f160005500",
                            "storage": {
                                "0x00": "0x01"
                            }
                        }
                    }
                }
            ]
        },
        "config": {
            "blobSchedule": {
                "Cancun": {
                    "target": "0x03",
                    "max": "0x06",
                    "baseFeeUpdateFraction": "0x32f0ed"
                }
            },
            "chainid": "0x01"
        },
        "_info": {
            "hash": "0x41d38ce72105cf68e535c05161c7b320fdd10c7f0910de51362802d3cfa4c60f",
            "comment": "`execution-spec-tests` generated test",
            "filling-transition-tool": "ethereum-spec-evm-resolver 0.0.5",
            "description": "No description available - add a docstring to the python test class or function.",
            "url": "",
            "fixture-format": "state_test",
            "eels-resolution": {
                "git-url": "https://github.com/marioevz/execution-specs.git",
                "branch": "forks/bpo1",
                "commit": "3387e5f4aedfe99becfdc39b444d6371e25e0924"
            }
        }
    },
    "tests/static/state_tests/stCallCodes/callcallcodecallcode_011_OOGEFiller.json::callcallcodecallcode_011_OOGE[fork_Osaka-state_test-]": {
        "env": {
            "currentCoinbase": "0x2adc25665018aa1fe0e6bc666dac8fc2697ff9ba",
            "currentGasLimit": "0x01c9c380",
            "currentNumber": "0x01",
            "currentTimestamp": "0x03e8",
            "currentRandom": "0x0000000000000000000000000000000000000000000000000000000000020000",
            "currentDifficulty": "0x00",
            "currentBaseFee": "0x0a",
            "currentExcessBlobGas": "0x00"
        },
        "pre": {
            "0x136734a58e6a971fdba6c974c81f93ccf149cef0": {
                "nonce": "0x00",
                "balance": "0x0de0b6b3a7640000",
                "code": "0x",
                "storage": {}
            },
            "0xd515c0e9affa66b6117ab0aeecd9bfc4148a77fc": {
                "nonce": "0x00",
                "balance": "0x00",
                "code": "0x6001600355622fffff60002000",
                "storage": {}
            },
            "0xd515c0e9affa66b6117ab0aeecd9bfc4148a78fc": {
                "nonce": "0x00",
                "balance": "0x00",
                "code": "0x6040600060406000600073d515c0e9affa66b6117ab0aeecd9bfc4148a77fc62061a80f26002556001600b5500",
                "storage": {}
            },
            "0xd515c0e9affa66b6117ab0aeecd9bfc4148a79fc": {
                "nonce": "0x00",
                "balance": "0x00",
                "code": "0x6040600060406000600073d515c0e9affa66b6117ab0aeecd9bfc4148a78fc620927c0f260015500",
                "storage": {}
            },
            "0xd515c0e9affa66b6117ab0aeecd9bfc4148a7afc": {
                "nonce": "0x00",
                "balance": "0x0de0b6b3a7640000",
                "code": "0x6040600060406000600073d515c0e9affa66b6117ab0aeecd9bfc4148a79fc620c3500f160005500",
                "storage": {}
            }
        },
        "transaction": {
            "nonce": "0x00",
            "gasPrice": "0x0a",
            "gasLimit": [
                "0x0f4240"
            ],
            "to": "0xd515c0e9affa66b6117ab0aeecd9bfc4148a7afc",
            "value": [
                "0x00"
            ],
            "data": [
                "0x"
            ],
            "sender": "0x136734a58e6a971fdba6c974c81f93ccf149cef0",
            "secretKey": "0x4202ae2bc29606f77e32af1ed515c0e9affa66b6117ab0aeecd9bfc4148a77fc"
        },
        "post": {
            "Osaka": [
                {
                    "hash": "0xe9ccc067feec42ae581228ffde21b2adb0236c63df741543b9c48c719ceac693",
                    "logs": "0x1dcc4de8dec75d7aab85b567b6ccd41ad312451b948a7413f0a142fd40d49347",
                    "txbytes": "0xf860800a830f424094d515c0e9affa66b6117ab0aeecd9bfc4148a7afc808025a08077eba4f81e7e93b3a60427dc11ba3cf51b0aedf30cd004824f8f82dcca953da00cb8032089e1aedf53f5ee2797532600cb8162dd386686e274c55ac1501c6181",
                    "indexes": {
                        "data": 0,
                        "gas": 0,
                        "value": 0
                    },
                    "state": {
                        "0x136734a58e6a971fdba6c974c81f93ccf149cef0": {
                            "nonce": "0x01",
                            "balance": "0x0de0b6b3a7181a78",
                            "code": "0x",
                            "storage": {}
                        },
                        "0xd515c0e9affa66b6117ab0aeecd9bfc4148a77fc": {
                            "nonce": "0x00",
                            "balance": "0x00",
                            "code": "0x6001600355622fffff60002000",
                            "storage": {}
                        },
                        "0xd515c0e9affa66b6117ab0aeecd9bfc4148a78fc": {
                            "nonce": "0x00",
                            "balance": "0x00",
                            "code": "0x6040600060406000600073d515c0e9affa66b6117ab0aeecd9bfc4148a77fc62061a80f26002556001600b5500",
                            "storage": {}
                        },
                        "0xd515c0e9affa66b6117ab0aeecd9bfc4148a79fc": {
                            "nonce": "0x00",
                            "balance": "0x00",
                            "code": "0x6040600060406000600073d515c0e9affa66b6117ab0aeecd9bfc4148a78fc620927c0f260015500",
                            "storage": {
                                "0x0b": "0x01",
                                "0x01": "0x01"
                            }
                        },
                        "0xd515c0e9affa66b6117ab0aeecd9bfc4148a7afc": {
                            "nonce": "0x00",
                            "balance": "0x0de0b6b3a7640000",
                            "code": "0x6040600060406000600073d515c0e9affa66b6117ab0aeecd9bfc4148a79fc620c3500f160005500",
                            "storage": {
                                "0x00": "0x01"
                            }
                        }
                    }
                }
            ]
        },
        "config": {
            "blobSchedule": {
                "Cancun": {
                    "target": "0x03",
                    "max": "0x06",
                    "baseFeeUpdateFraction": "0x32f0ed"
                },
                "Prague": {
                    "target": "0x06",
                    "max": "0x09",
                    "baseFeeUpdateFraction": "0x4c6964"
                },
                "Osaka": {
                    "target": "0x06",
                    "max": "0x09",
                    "baseFeeUpdateFraction": "0x4c6964"
                }
            },
            "chainid": "0x01"
        },
        "_info": {
            "hash": "0xfd1080cfae7139626433618008c44685fb611c32503b162ea19047412a64ea53",
            "comment": "`execution-spec-tests` generated test",
            "filling-transition-tool": "ethereum-spec-evm-resolver 0.0.5",
            "description": "No description available - add a docstring to the python test class or function.",
            "url": "",
            "fixture-format": "state_test",
            "eels-resolution": {
                "git-url": "https://github.com/marioevz/execution-specs.git",
                "branch": "forks/bpo1",
                "commit": "3387e5f4aedfe99becfdc39b444d6371e25e0924"
            }
        }
    },
    "tests/static/state_tests/stCallCodes/callcallcodecallcode_011_OOGEFiller.json::callcallcodecallcode_011_OOGE[fork_Prague-state_test-]": {
        "env": {
            "currentCoinbase": "0x2adc25665018aa1fe0e6bc666dac8fc2697ff9ba",
            "currentGasLimit": "0x01c9c380",
            "currentNumber": "0x01",
            "currentTimestamp": "0x03e8",
            "currentRandom": "0x0000000000000000000000000000000000000000000000000000000000020000",
            "currentDifficulty": "0x00",
            "currentBaseFee": "0x0a",
            "currentExcessBlobGas": "0x00"
        },
        "pre": {
            "0x136734a58e6a971fdba6c974c81f93ccf149cef0": {
                "nonce": "0x00",
                "balance": "0x0de0b6b3a7640000",
                "code": "0x",
                "storage": {}
            },
            "0xd515c0e9affa66b6117ab0aeecd9bfc4148a77fc": {
                "nonce": "0x00",
                "balance": "0x00",
                "code": "0x6001600355622fffff60002000",
                "storage": {}
            },
            "0xd515c0e9affa66b6117ab0aeecd9bfc4148a78fc": {
                "nonce": "0x00",
                "balance": "0x00",
                "code": "0x6040600060406000600073d515c0e9affa66b6117ab0aeecd9bfc4148a77fc62061a80f26002556001600b5500",
                "storage": {}
            },
            "0xd515c0e9affa66b6117ab0aeecd9bfc4148a79fc": {
                "nonce": "0x00",
                "balance": "0x00",
                "code": "0x6040600060406000600073d515c0e9affa66b6117ab0aeecd9bfc4148a78fc620927c0f260015500",
                "storage": {}
            },
            "0xd515c0e9affa66b6117ab0aeecd9bfc4148a7afc": {
                "nonce": "0x00",
                "balance": "0x0de0b6b3a7640000",
                "code": "0x6040600060406000600073d515c0e9affa66b6117ab0aeecd9bfc4148a79fc620c3500f160005500",
                "storage": {}
            }
        },
        "transaction": {
            "nonce": "0x00",
            "gasPrice": "0x0a",
            "gasLimit": [
                "0x0f4240"
            ],
            "to": "0xd515c0e9affa66b6117ab0aeecd9bfc4148a7afc",
            "value": [
                "0x00"
            ],
            "data": [
                "0x"
            ],
            "sender": "0x136734a58e6a971fdba6c974c81f93ccf149cef0",
            "secretKey": "0x4202ae2bc29606f77e32af1ed515c0e9affa66b6117ab0aeecd9bfc4148a77fc"
        },
        "post": {
            "Prague": [
                {
                    "hash": "0xe9ccc067feec42ae581228ffde21b2adb0236c63df741543b9c48c719ceac693",
                    "logs": "0x1dcc4de8dec75d7aab85b567b6ccd41ad312451b948a7413f0a142fd40d49347",
                    "txbytes": "0xf860800a830f424094d515c0e9affa66b6117ab0aeecd9bfc4148a7afc808025a08077eba4f81e7e93b3a60427dc11ba3cf51b0aedf30cd004824f8f82dcca953da00cb8032089e1aedf53f5ee2797532600cb8162dd386686e274c55ac1501c6181",
                    "indexes": {
                        "data": 0,
                        "gas": 0,
                        "value": 0
                    },
                    "state": {
                        "0x136734a58e6a971fdba6c974c81f93ccf149cef0": {
                            "nonce": "0x01",
                            "balance": "0x0de0b6b3a7181a78",
                            "code": "0x",
                            "storage": {}
                        },
                        "0xd515c0e9affa66b6117ab0aeecd9bfc4148a77fc": {
                            "nonce": "0x00",
                            "balance": "0x00",
                            "code": "0x6001600355622fffff60002000",
                            "storage": {}
                        },
                        "0xd515c0e9affa66b6117ab0aeecd9bfc4148a78fc": {
                            "nonce": "0x00",
                            "balance": "0x00",
                            "code": "0x6040600060406000600073d515c0e9affa66b6117ab0aeecd9bfc4148a77fc62061a80f26002556001600b5500",
                            "storage": {}
                        },
                        "0xd515c0e9affa66b6117ab0aeecd9bfc4148a79fc": {
                            "nonce": "0x00",
                            "balance": "0x00",
                            "code": "0x6040600060406000600073d515c0e9affa66b6117ab0aeecd9bfc4148a78fc620927c0f260015500",
                            "storage": {
                                "0x0b": "0x01",
                                "0x01": "0x01"
                            }
                        },
                        "0xd515c0e9affa66b6117ab0aeecd9bfc4148a7afc": {
                            "nonce": "0x00",
                            "balance": "0x0de0b6b3a7640000",
                            "code": "0x6040600060406000600073d515c0e9affa66b6117ab0aeecd9bfc4148a79fc620c3500f160005500",
                            "storage": {
                                "0x00": "0x01"
                            }
                        }
                    }
                }
            ]
        },
        "config": {
            "blobSchedule": {
                "Cancun": {
                    "target": "0x03",
                    "max": "0x06",
                    "baseFeeUpdateFraction": "0x32f0ed"
                },
                "Prague": {
                    "target": "0x06",
                    "max": "0x09",
                    "baseFeeUpdateFraction": "0x4c6964"
                }
            },
            "chainid": "0x01"
        },
        "_info": {
            "hash": "0x79d80adce529f944781a4b455ac513fa5b06eb85bdc8c2b419da3b6ccd08c7e2",
            "comment": "`execution-spec-tests` generated test",
            "filling-transition-tool": "ethereum-spec-evm-resolver 0.0.5",
            "description": "No description available - add a docstring to the python test class or function.",
            "url": "",
            "fixture-format": "state_test",
            "eels-resolution": {
                "git-url": "https://github.com/marioevz/execution-specs.git",
                "branch": "forks/bpo1",
                "commit": "3387e5f4aedfe99becfdc39b444d6371e25e0924"
            }
        }
    }
}