{
    "tests/static/state_tests/stCallCodes/callcodecallcall_100_OOGEFiller.json::callcodecallcall_100_OOGE[fork_Cancun-state_test-]": {
        "env": {
            "currentCoinbase": "0x2adc25665018aa1fe0e6bc666dac8fc2697ff9ba",
            "currentGasLimit": "0x01c9c380",
            "currentNumber": "0x01",
            "currentTimestamp": "0x03e8",
            "currentRandom": "0x0000000000000000000000000000000000000000000000000000000000020000",
            "currentDifficulty": "0x00",
            "currentBaseFee": "0x0a",
            "currentExcessBlobGas": "0x00"
        },
        "pre": {
            "0x3278f2478ecfe32402e2ff14aa701ba4c8fd57b0": {
                "nonce": "0x00",
                "balance": "0x0de0b6b3a7640000",
                "code": "0x",
                "storage": {}
            },
            "0x5eaf4dfa68643130ec12de5ebe9c057c897d8398": {
                "nonce": "0x00",
                "balance": "0x00",
                "code": "0x6001600355622fffff60002000",
                "storage": {}
            },
            "0x5eaf4dfa68643130ec12de5ebe9c057c897d8498": {
                "nonce": "0x00",
                "balance": "0x00",
                "code": "0x60406000604060006000735eaf4dfa68643130ec12de5ebe9c057c897d839862061a80f16002556001600b5500",
                "storage": {}
            },
            "0x5eaf4dfa68643130ec12de5ebe9c057c897d8598": {
                "nonce": "0x00",
                "balance": "0x00",
                "code": "0x60406000604060006000735eaf4dfa68643130ec12de5ebe9c057c897d8498620927c0f160015500",
                "storage": {}
            },
            "0x5eaf4dfa68643130ec12de5ebe9c057c897d8698": {
                "nonce": "0x00",
                "balance": "0x0de0b6b3a7640000",
                "code": "0x60406000604060006000735eaf4dfa68643130ec12de5ebe9c057c897d8598620c3500f260005500",
                "storage": {}
            }
        },
        "transaction": {
            "nonce": "0x00",
            "gasPrice": "0x0a",
            "gasLimit": [
                "0x0f4240"
            ],
            "to": "0x5eaf4dfa68643130ec12de5ebe9c057c897d8698",
            "value": [
                "0x00"
            ],
            "data": [
                "0x"
            ],
            "sender": "0x3278f2478ecfe32402e2ff14aa701ba4c8fd57b0",
            "secretKey": "0xcfb07a99b464e3da13d12d265eaf4dfa68643130ec12de5ebe9c057c897d8398"
        },
        "post": {
            "Cancun": [
                {
                    "hash": "0x86c1c445e8256edb887490056a4ce66d1fa0f9b4714290381660f486d8fc7683",
                    "logs": "0x1dcc4de8dec75d7aab85b567b6ccd41ad312451b948a7413f0a142fd40d49347",
                    "txbytes": "0xf860800a830f4240945eaf4dfa68643130ec12de5ebe9c057c897d8698808025a08e20ca380abd3c12c0ed345afeacdb08a6c3b362d731bc5012f031336fc3a626a00f11b26c14a20d23d11a648deb5732a15620eda52f2cf212409e19fe87d727f9",
                    "indexes": {
                        "data": 0,
                        "gas": 0,
                        "value": 0
                    },
                    "state": {
                        "0x3278f2478ecfe32402e2ff14aa701ba4c8fd57b0": {
                            "nonce": "0x01",
                            "balance": "0x0de0b6b3a7181a78",
                            "code": "0x",
                            "storage": {}
                        },
                        "0x5eaf4dfa68643130ec12de5ebe9c057c897d8398": {
                            "nonce": "0x00",
                            "balance": "0x00",
                            "code": "0x6001600355622fffff60002000",
                            "storage": {}
                        },
                        "0x5eaf4dfa68643130ec12de5ebe9c057c897d8498": {
                            "nonce": "0x00",
                            "balance": "0x00",
                            "code": "0x60406000604060006000735eaf4dfa68643130ec12de5ebe9c057c897d839862061a80f16002556001600b5500",
                            "storage": {
                                "0x0b": "0x01"
                            }
                        },
                        "0x5eaf4dfa68643130ec12de5ebe9c057c897d8598": {
                            "nonce": "0x00",
                            "balance": "0x00",
                            "code": "0x60406000604060006000735eaf4dfa68643130ec12de5ebe9c057c897d8498620927c0f160015500",
                            "storage": {}
                        },
                        "0x5eaf4dfa68643130ec12de5ebe9c057c897d8698": {
                            "nonce": "0x00",
                            "balance": "0x0de0b6b3a7640000",
                            "code": "0x60406000604060006000735eaf4dfa68643130ec12de5ebe9c057c897d8598620c3500f260005500",
                            "storage": {
                                "0x01": "0x01",
                                "0x00": "0x01"
                            }
                        }
                    }
                }
            ]
        },
        "config": {
            "blobSchedule": {
                "Cancun": {
                    "target": "0x03",
                    "max": "0x06",
                    "baseFeeUpdateFraction": "0x32f0ed"
                }
            },
            "chainid": "0x01"
        },
        "_info": {
            "hash": "0x3f52a44c7c8024797b488a8a465a86efe3dfd0097986d918d39e4fd8a19ae969",
            "comment": "`execution-specs` generated test",
            "filling-transition-tool": "2.18.0rc6",
            "description": "No description available - add a docstring to the python test class or function.",
            "url": "",
            "fixture-format": "state_test"
        }
    },
    "tests/static/state_tests/stCallCodes/callcodecallcall_100_OOGEFiller.json::callcodecallcall_100_OOGE[fork_Osaka-state_test-]": {
        "env": {
            "currentCoinbase": "0x2adc25665018aa1fe0e6bc666dac8fc2697ff9ba",
            "currentGasLimit": "0x01c9c380",
            "currentNumber": "0x01",
            "currentTimestamp": "0x03e8",
            "currentRandom": "0x0000000000000000000000000000000000000000000000000000000000020000",
            "currentDifficulty": "0x00",
            "currentBaseFee": "0x0a",
            "currentExcessBlobGas": "0x00"
        },
        "pre": {
            "0x3278f2478ecfe32402e2ff14aa701ba4c8fd57b0": {
                "nonce": "0x00",
                "balance": "0x0de0b6b3a7640000",
                "code": "0x",
                "storage": {}
            },
            "0x5eaf4dfa68643130ec12de5ebe9c057c897d8398": {
                "nonce": "0x00",
                "balance": "0x00",
                "code": "0x6001600355622fffff60002000",
                "storage": {}
            },
            "0x5eaf4dfa68643130ec12de5ebe9c057c897d8498": {
                "nonce": "0x00",
                "balance": "0x00",
                "code": "0x60406000604060006000735eaf4dfa68643130ec12de5ebe9c057c897d839862061a80f16002556001600b5500",
                "storage": {}
            },
            "0x5eaf4dfa68643130ec12de5ebe9c057c897d8598": {
                "nonce": "0x00",
                "balance": "0x00",
                "code": "0x60406000604060006000735eaf4dfa68643130ec12de5ebe9c057c897d8498620927c0f160015500",
                "storage": {}
            },
            "0x5eaf4dfa68643130ec12de5ebe9c057c897d8698": {
                "nonce": "0x00",
                "balance": "0x0de0b6b3a7640000",
                "code": "0x60406000604060006000735eaf4dfa68643130ec12de5ebe9c057c897d8598620c3500f260005500",
                "storage": {}
            }
        },
        "transaction": {
            "nonce": "0x00",
            "gasPrice": "0x0a",
            "gasLimit": [
                "0x0f4240"
            ],
            "to": "0x5eaf4dfa68643130ec12de5ebe9c057c897d8698",
            "value": [
                "0x00"
            ],
            "data": [
                "0x"
            ],
            "sender": "0x3278f2478ecfe32402e2ff14aa701ba4c8fd57b0",
            "secretKey": "0xcfb07a99b464e3da13d12d265eaf4dfa68643130ec12de5ebe9c057c897d8398"
        },
        "post": {
            "Osaka": [
                {
                    "hash": "0x86c1c445e8256edb887490056a4ce66d1fa0f9b4714290381660f486d8fc7683",
                    "logs": "0x1dcc4de8dec75d7aab85b567b6ccd41ad312451b948a7413f0a142fd40d49347",
                    "txbytes": "0xf860800a830f4240945eaf4dfa68643130ec12de5ebe9c057c897d8698808025a08e20ca380abd3c12c0ed345afeacdb08a6c3b362d731bc5012f031336fc3a626a00f11b26c14a20d23d11a648deb5732a15620eda52f2cf212409e19fe87d727f9",
                    "indexes": {
                        "data": 0,
                        "gas": 0,
                        "value": 0
                    },
                    "state": {
                        "0x3278f2478ecfe32402e2ff14aa701ba4c8fd57b0": {
                            "nonce": "0x01",
                            "balance": "0x0de0b6b3a7181a78",
                            "code": "0x",
                            "storage": {}
                        },
                        "0x5eaf4dfa68643130ec12de5ebe9c057c897d8398": {
                            "nonce": "0x00",
                            "balance": "0x00",
                            "code": "0x6001600355622fffff60002000",
                            "storage": {}
                        },
                        "0x5eaf4dfa68643130ec12de5ebe9c057c897d8498": {
                            "nonce": "0x00",
                            "balance": "0x00",
                            "code": "0x60406000604060006000735eaf4dfa68643130ec12de5ebe9c057c897d839862061a80f16002556001600b5500",
                            "storage": {
                                "0x0b": "0x01"
                            }
                        },
                        "0x5eaf4dfa68643130ec12de5ebe9c057c897d8598": {
                            "nonce": "0x00",
                            "balance": "0x00",
                            "code": "0x60406000604060006000735eaf4dfa68643130ec12de5ebe9c057c897d8498620927c0f160015500",
                            "storage": {}
                        },
                        "0x5eaf4dfa68643130ec12de5ebe9c057c897d8698": {
                            "nonce": "0x00",
                            "balance": "0x0de0b6b3a7640000",
                            "code": "0x60406000604060006000735eaf4dfa68643130ec12de5ebe9c057c897d8598620c3500f260005500",
                            "storage": {
                                "0x01": "0x01",
                                "0x00": "0x01"
                            }
                        }
                    }
                }
            ]
        },
        "config": {
            "blobSchedule": {
                "Cancun": {
                    "target": "0x03",
                    "max": "0x06",
                    "baseFeeUpdateFraction": "0x32f0ed"
                },
                "Prague": {
                    "target": "0x06",
                    "max": "0x09",
                    "baseFeeUpdateFraction": "0x4c6964"
                },
                "Osaka": {
                    "target": "0x06",
                    "max": "0x09",
                    "baseFeeUpdateFraction": "0x4c6964"
                }
            },
            "chainid": "0x01"
        },
        "_info": {
            "hash": "0x50896ba2ce969d5cab66f5d714f08da74e807b26532008b2644883757371d745",
            "comment": "`execution-specs` generated test",
            "filling-transition-tool": "2.18.0rc6",
            "description": "No description available - add a docstring to the python test class or function.",
            "url": "",
            "fixture-format": "state_test"
        }
    },
    "tests/static/state_tests/stCallCodes/callcodecallcall_100_OOGEFiller.json::callcodecallcall_100_OOGE[fork_Prague-state_test-]": {
        "env": {
            "currentCoinbase": "0x2adc25665018aa1fe0e6bc666dac8fc2697ff9ba",
            "currentGasLimit": "0x01c9c380",
            "currentNumber": "0x01",
            "currentTimestamp": "0x03e8",
            "currentRandom": "0x0000000000000000000000000000000000000000000000000000000000020000",
            "currentDifficulty": "0x00",
            "currentBaseFee": "0x0a",
            "currentExcessBlobGas": "0x00"
        },
        "pre": {
            "0x3278f2478ecfe32402e2ff14aa701ba4c8fd57b0": {
                "nonce": "0x00",
                "balance": "0x0de0b6b3a7640000",
                "code": "0x",
                "storage": {}
            },
            "0x5eaf4dfa68643130ec12de5ebe9c057c897d8398": {
                "nonce": "0x00",
                "balance": "0x00",
                "code": "0x6001600355622fffff60002000",
                "storage": {}
            },
            "0x5eaf4dfa68643130ec12de5ebe9c057c897d8498": {
                "nonce": "0x00",
                "balance": "0x00",
                "code": "0x60406000604060006000735eaf4dfa68643130ec12de5ebe9c057c897d839862061a80f16002556001600b5500",
                "storage": {}
            },
            "0x5eaf4dfa68643130ec12de5ebe9c057c897d8598": {
                "nonce": "0x00",
                "balance": "0x00",
                "code": "0x60406000604060006000735eaf4dfa68643130ec12de5ebe9c057c897d8498620927c0f160015500",
                "storage": {}
            },
            "0x5eaf4dfa68643130ec12de5ebe9c057c897d8698": {
                "nonce": "0x00",
                "balance": "0x0de0b6b3a7640000",
                "code": "0x60406000604060006000735eaf4dfa68643130ec12de5ebe9c057c897d8598620c3500f260005500",
                "storage": {}
            }
        },
        "transaction": {
            "nonce": "0x00",
            "gasPrice": "0x0a",
            "gasLimit": [
                "0x0f4240"
            ],
            "to": "0x5eaf4dfa68643130ec12de5ebe9c057c897d8698",
            "value": [
                "0x00"
            ],
            "data": [
                "0x"
            ],
            "sender": "0x3278f2478ecfe32402e2ff14aa701ba4c8fd57b0",
            "secretKey": "0xcfb07a99b464e3da13d12d265eaf4dfa68643130ec12de5ebe9c057c897d8398"
        },
        "post": {
            "Prague": [
                {
                    "hash": "0x86c1c445e8256edb887490056a4ce66d1fa0f9b4714290381660f486d8fc7683",
                    "logs": "0x1dcc4de8dec75d7aab85b567b6ccd41ad312451b948a7413f0a142fd40d49347",
                    "txbytes": "0xf860800a830f4240945eaf4dfa68643130ec12de5ebe9c057c897d8698808025a08e20ca380abd3c12c0ed345afeacdb08a6c3b362d731bc5012f031336fc3a626a00f11b26c14a20d23d11a648deb5732a15620eda52f2cf212409e19fe87d727f9",
                    "indexes": {
                        "data": 0,
                        "gas": 0,
                        "value": 0
                    },
                    "state": {
                        "0x3278f2478ecfe32402e2ff14aa701ba4c8fd57b0": {
                            "nonce": "0x01",
                            "balance": "0x0de0b6b3a7181a78",
                            "code": "0x",
                            "storage": {}
                        },
                        "0x5eaf4dfa68643130ec12de5ebe9c057c897d8398": {
                            "nonce": "0x00",
                            "balance": "0x00",
                            "code": "0x6001600355622fffff60002000",
                            "storage": {}
                        },
                        "0x5eaf4dfa68643130ec12de5ebe9c057c897d8498": {
                            "nonce": "0x00",
                            "balance": "0x00",
                            "code": "0x60406000604060006000735eaf4dfa68643130ec12de5ebe9c057c897d839862061a80f16002556001600b5500",
                            "storage": {
                                "0x0b": "0x01"
                            }
                        },
                        "0x5eaf4dfa68643130ec12de5ebe9c057c897d8598": {
                            "nonce": "0x00",
                            "balance": "0x00",
                            "code": "0x60406000604060006000735eaf4dfa68643130ec12de5ebe9c057c897d8498620927c0f160015500",
                            "storage": {}
                        },
                        "0x5eaf4dfa68643130ec12de5ebe9c057c897d8698": {
                            "nonce": "0x00",
                            "balance": "0x0de0b6b3a7640000",
                            "code": "0x60406000604060006000735eaf4dfa68643130ec12de5ebe9c057c897d8598620c3500f260005500",
                            "storage": {
                                "0x01": "0x01",
                                "0x00": "0x01"
                            }
                        }
                    }
                }
            ]
        },
        "config": {
            "blobSchedule": {
                "Cancun": {
                    "target": "0x03",
                    "max": "0x06",
                    "baseFeeUpdateFraction": "0x32f0ed"
                },
                "Prague": {
                    "target": "0x06",
                    "max": "0x09",
                    "baseFeeUpdateFraction": "0x4c6964"
                }
            },
            "chainid": "0x01"
        },
        "_info": {
            "hash": "0x3b061e0fa18b340bf918baa90fef60d4052b70c960493dc42ee82c98b88e7a51",
            "comment": "`execution-specs` generated test",
            "filling-transition-tool": "2.18.0rc6",
            "description": "No description available - add a docstring to the python test class or function.",
            "url": "",
            "fixture-format": "state_test"
        }
    }
}