{
    "tests/ported_static/stStaticCall/test_static_callcodecallcallcode_101_oogm_after_3.py::test_static_callcodecallcallcode_101_oogm_after_3[fork_Cancun-blockchain_test_from_state_test-d0]": {
        "network": "Cancun",
        "genesisBlockHeader": {
            "parentHash": "0x0000000000000000000000000000000000000000000000000000000000000000",
            "uncleHash": "0x1dcc4de8dec75d7aab85b567b6ccd41ad312451b948a7413f0a142fd40d49347",
            "coinbase": "0x0000000000000000000000000000000000000000",
            "stateRoot": "0xcb68594466cd2715c86401e4b598ce5039a3583c208098c1ae3373cf84453355",
            "transactionsTrie": "0x56e81f171bcc55a6ff8345e692c0f86e5b48e01b996cadc001622fb5e363b421",
            "receiptTrie": "0x56e81f171bcc55a6ff8345e692c0f86e5b48e01b996cadc001622fb5e363b421",
            "bloom": "0x00000000000000000000000000000000000000000000000000000000000000000000000000000000000000000000000000000000000000000000000000000000000000000000000000000000000000000000000000000000000000000000000000000000000000000000000000000000000000000000000000000000000000000000000000000000000000000000000000000000000000000000000000000000000000000000000000000000000000000000000000000000000000000000000000000000000000000000000000000000000000000000000000000000000000000000000000000000000000000000000000000000000000000000000000000000",
            "difficulty": "0x00",
            "number": "0x00",
            "gasLimit": "0x989680",
            "gasUsed": "0x00",
            "timestamp": "0x00",
            "extraData": "0x00",
            "mixHash": "0x0000000000000000000000000000000000000000000000000000000000000000",
            "nonce": "0x0000000000000000",
            "baseFeePerGas": "0x0b",
            "withdrawalsRoot": "0x56e81f171bcc55a6ff8345e692c0f86e5b48e01b996cadc001622fb5e363b421",
            "blobGasUsed": "0x00",
            "excessBlobGas": "0x00",
            "parentBeaconBlockRoot": "0x0000000000000000000000000000000000000000000000000000000000000000",
            "hash": "0x5531c4fc6ae1b5941e409d7ab3a074409df569832f45dabe5f069dac78e632d4"
        },
        "pre": {
            "0x000f3df6d732807ef1319fb7b8bb8522d0beac02": {
                "nonce": "0x01",
                "balance": "0x00",
                "code": "0x3373fffffffffffffffffffffffffffffffffffffffe14604d57602036146024575f5ffd5b5f35801560495762001fff810690815414603c575f5ffd5b62001fff01545f5260205ff35b5f5ffd5b62001fff42064281555f359062001fff015500",
                "storage": {}
            },
            "0xaab59f13d96113334fab5c68e4e62b61f6cbf647": {
                "nonce": "0x00",
                "balance": "0x0de0b6b3a7640000",
                "code": "0x600060006000600060006000355af2600055600160015500",
                "storage": {}
            },
            "0x77d2ecb3f4d887934c7c8f304831ea89e08cb30d": {
                "nonce": "0x00",
                "balance": "0x0de0b6b3a7640000",
                "code": "0x604060006040600073b867c4bf480d6dcd06716bcdb0f9bcf3bb5710bf61eaf6f46000555a60015500",
                "storage": {}
            },
            "0xb867c4bf480d6dcd06716bcdb0f9bcf3bb5710bf": {
                "nonce": "0x00",
                "balance": "0x00",
                "code": "0x60406000604060007396bba71c203b7339624a350fe004f71c3d669aee619c90fa505b61c3506080511015603e5760013b506001608051016080526022565b00",
                "storage": {}
            },
            "0x96bba71c203b7339624a350fe004f71c3d669aee": {
                "nonce": "0x00",
                "balance": "0x00",
                "code": "0x604060006040600073335c5531b84765a7626e6e76688f18b81be5259c614e34f450600160035200",
                "storage": {}
            },
            "0x335c5531b84765a7626e6e76688f18b81be5259c": {
                "nonce": "0x00",
                "balance": "0x00",
                "code": "0x600160035200",
                "storage": {}
            },
            "0xe2fa228586f5c62a6728d17728f4622d05d84e45": {
                "nonce": "0x00",
                "balance": "0x0de0b6b3a7640000",
                "code": "0x6040600060406000732aba60e14f876dac315953942316a9a2f80c3ad561eaf6f4600055600160015500",
                "storage": {}
            },
            "0x2aba60e14f876dac315953942316a9a2f80c3ad5": {
                "nonce": "0x00",
                "balance": "0x00",
                "code": "0x60406000604060007365be40505e6165809f16bfc5cdba14169bc97614619c90fa00",
                "storage": {}
            },
            "0x65be40505e6165809f16bfc5cdba14169bc97614": {
                "nonce": "0x00",
                "balance": "0x00",
                "code": "0x604060006040600073b126c622075b1189fb6c45e851641cfaddf65b36614e34f450600160035200",
                "storage": {}
            },
            "0xb126c622075b1189fb6c45e851641cfaddf65b36": {
                "nonce": "0x00",
                "balance": "0x00",
                "code": "0x600160035500",
                "storage": {}
            },
            "0xebaf50debf10e08302fe4280c32df010463ca297": {
                "nonce": "0x00",
                "balance": "0x0de0b6b3a7640000",
                "code": "0x",
                "storage": {}
            }
        },
        "postState": {
            "0x000f3df6d732807ef1319fb7b8bb8522d0beac02": {
                "nonce": "0x01",
                "balance": "0x00",
                "code": "0x3373fffffffffffffffffffffffffffffffffffffffe14604d57602036146024575f5ffd5b5f35801560495762001fff810690815414603c575f5ffd5b62001fff01545f5260205ff35b5f5ffd5b62001fff42064281555f359062001fff015500",
                "storage": {
                    "0x03e8": "0x03e8"
                }
            },
            "0xaab59f13d96113334fab5c68e4e62b61f6cbf647": {
                "nonce": "0x00",
                "balance": "0x0de0b6b3a7640000",
                "code": "0x600060006000600060006000355af2600055600160015500",
                "storage": {
                    "0x01": "0x01",
                    "0x00": "0x01"
                }
            },
            "0x77d2ecb3f4d887934c7c8f304831ea89e08cb30d": {
                "nonce": "0x00",
                "balance": "0x0de0b6b3a7640000",
                "code": "0x604060006040600073b867c4bf480d6dcd06716bcdb0f9bcf3bb5710bf61eaf6f46000555a60015500",
                "storage": {}
            },
            "0xb867c4bf480d6dcd06716bcdb0f9bcf3bb5710bf": {
                "nonce": "0x00",
                "balance": "0x00",
                "code": "0x60406000604060007396bba71c203b7339624a350fe004f71c3d669aee619c90fa505b61c3506080511015603e5760013b506001608051016080526022565b00",
                "storage": {}
            },
            "0x96bba71c203b7339624a350fe004f71c3d669aee": {
                "nonce": "0x00",
                "balance": "0x00",
                "code": "0x604060006040600073335c5531b84765a7626e6e76688f18b81be5259c614e34f450600160035200",
                "storage": {}
            },
            "0x335c5531b84765a7626e6e76688f18b81be5259c": {
                "nonce": "0x00",
                "balance": "0x00",
                "code": "0x600160035200",
                "storage": {}
            },
            "0xe2fa228586f5c62a6728d17728f4622d05d84e45": {
                "nonce": "0x00",
                "balance": "0x0de0b6b3a7640000",
                "code": "0x6040600060406000732aba60e14f876dac315953942316a9a2f80c3ad561eaf6f4600055600160015500",
                "storage": {}
            },
            "0x2aba60e14f876dac315953942316a9a2f80c3ad5": {
                "nonce": "0x00",
                "balance": "0x00",
                "code": "0x60406000604060007365be40505e6165809f16bfc5cdba14169bc97614619c90fa00",
                "storage": {}
            },
            "0x65be40505e6165809f16bfc5cdba14169bc97614": {
                "nonce": "0x00",
                "balance": "0x00",
                "code": "0x604060006040600073b126c622075b1189fb6c45e851641cfaddf65b36614e34f450600160035200",
                "storage": {}
            },
            "0xb126c622075b1189fb6c45e851641cfaddf65b36": {
                "nonce": "0x00",
                "balance": "0x00",
                "code": "0x600160035500",
                "storage": {}
            },
            "0xebaf50debf10e08302fe4280c32df010463ca297": {
                "nonce": "0x01",
                "balance": "0x0de0b6b3a74ffbb4",
                "code": "0x",
                "storage": {}
            }
        },
        "lastblockhash": "0x3b4d9557da5d21f150c063d0d2ccdfc734af3d8542753397dd643c782742158c",
        "config": {
            "network": "Cancun",
            "chainid": "0x01",
            "blobSchedule": {
                "Cancun": {
                    "target": "0x03",
                    "max": "0x06",
                    "baseFeeUpdateFraction": "0x32f0ed"
                }
            }
        },
        "genesisRLP": "0xf9023bf90235a00000000000000000000000000000000000000000000000000000000000000000a01dcc4de8dec75d7aab85b567b6ccd41ad312451b948a7413f0a142fd40d49347940000000000000000000000000000000000000000a0cb68594466cd2715c86401e4b598ce5039a3583c208098c1ae3373cf84453355a056e81f171bcc55a6ff8345e692c0f86e5b48e01b996cadc001622fb5e363b421a056e81f171bcc55a6ff8345e692c0f86e5b48e01b996cadc001622fb5e363b421b9010000000000000000000000000000000000000000000000000000000000000000000000000000000000000000000000000000000000000000000000000000000000000000000000000000000000000000000000000000000000000000000000000000000000000000000000000000000000000000000000000000000000000000000000000000000000000000000000000000000000000000000000000000000000000000000000000000000000000000000000000000000000000000000000000000000000000000000000000000000000000000000000000000000000000000000000000000000000000000000000000000000000000000000000000000000000808083989680808000a000000000000000000000000000000000000000000000000000000000000000008800000000000000000ba056e81f171bcc55a6ff8345e692c0f86e5b48e01b996cadc001622fb5e363b4218080a00000000000000000000000000000000000000000000000000000000000000000c0c0c0",
        "blocks": [
            {
                "blockHeader": {
                    "parentHash": "0x5531c4fc6ae1b5941e409d7ab3a074409df569832f45dabe5f069dac78e632d4",
                    "uncleHash": "0x1dcc4de8dec75d7aab85b567b6ccd41ad312451b948a7413f0a142fd40d49347",
                    "coinbase": "0x2adc25665018aa1fe0e6bc666dac8fc2697ff9ba",
                    "stateRoot": "0x4a4c7263c083a4a5e59013aa4b6bd6c7f973eade48850fac61e871b363f7cf1e",
                    "transactionsTrie": "0xf8e1691e84e31c1b115d21d0dfd54130be828c35888c6115e403cda0ce4c7fe2",
                    "receiptTrie": "0xae7fe2a49c344aabc2c944153ec661698a4edee3e533387404e6b0bfff6dbad8",
                    "bloom": "0x00000000000000000000000000000000000000000000000000000000000000000000000000000000000000000000000000000000000000000000000000000000000000000000000000000000000000000000000000000000000000000000000000000000000000000000000000000000000000000000000000000000000000000000000000000000000000000000000000000000000000000000000000000000000000000000000000000000000000000000000000000000000000000000000000000000000000000000000000000000000000000000000000000000000000000000000000000000000000000000000000000000000000000000000000000000",
                    "difficulty": "0x00",
                    "number": "0x01",
                    "gasLimit": "0x989680",
                    "gasUsed": "0x02006e",
                    "timestamp": "0x03e8",
                    "extraData": "0x00",
                    "mixHash": "0x0000000000000000000000000000000000000000000000000000000000020000",
                    "nonce": "0x0000000000000000",
                    "baseFeePerGas": "0x0a",
                    "withdrawalsRoot": "0x56e81f171bcc55a6ff8345e692c0f86e5b48e01b996cadc001622fb5e363b421",
                    "blobGasUsed": "0x00",
                    "excessBlobGas": "0x00",
                    "parentBeaconBlockRoot": "0x0000000000000000000000000000000000000000000000000000000000000000",
                    "hash": "0x3b4d9557da5d21f150c063d0d2ccdfc734af3d8542753397dd643c782742158c"
                },
                "transactions": [
                    {
                        "type": "0x00",
                        "chainId": "0x01",
                        "nonce": "0x00",
                        "gasPrice": "0x0a",
                        "gasLimit": "0x029fe0",
                        "to": "0xaab59f13d96113334fab5c68e4e62b61f6cbf647",
                        "value": "0x00",
                        "data": "0x00000000000000000000000077d2ecb3f4d887934c7c8f304831ea89e08cb30d",
                        "v": "0x25",
                        "r": "0xded19bcf864dca1894deba1ac845046ce4c9992e7663a03f5dbb8236488c0afa",
                        "s": "0x4b1ebf66d47cd1eeb44d7a1e6ac23def373c511d395e735e6cf058b259e738a0",
                        "sender": "0xebaf50debf10e08302fe4280c32df010463ca297"
                    }
                ],
                "uncleHeaders": [],
                "withdrawals": [],
                "receipts": [
                    {
                        "transactionHash": "0x16a753411368839c752fd2c5ad2a3f1f4a64adfe2bddb9b3fd1f7ba392ac3ff4",
                        "type": "0x00",
                        "cumulativeGasUsed": "0x02006e",
                        "bloom": "0x00000000000000000000000000000000000000000000000000000000000000000000000000000000000000000000000000000000000000000000000000000000000000000000000000000000000000000000000000000000000000000000000000000000000000000000000000000000000000000000000000000000000000000000000000000000000000000000000000000000000000000000000000000000000000000000000000000000000000000000000000000000000000000000000000000000000000000000000000000000000000000000000000000000000000000000000000000000000000000000000000000000000000000000000000000000",
                        "logs": [],
                        "status": true,
                        "rlp": "0xf90109018302006eb9010000000000000000000000000000000000000000000000000000000000000000000000000000000000000000000000000000000000000000000000000000000000000000000000000000000000000000000000000000000000000000000000000000000000000000000000000000000000000000000000000000000000000000000000000000000000000000000000000000000000000000000000000000000000000000000000000000000000000000000000000000000000000000000000000000000000000000000000000000000000000000000000000000000000000000000000000000000000000000000000000000000000000000000000000000000000c0"
                    }
                ],
                "rlp": "0xf902c3f9023aa05531c4fc6ae1b5941e409d7ab3a074409df569832f45dabe5f069dac78e632d4a01dcc4de8dec75d7aab85b567b6ccd41ad312451b948a7413f0a142fd40d49347942adc25665018aa1fe0e6bc666dac8fc2697ff9baa04a4c7263c083a4a5e59013aa4b6bd6c7f973eade48850fac61e871b363f7cf1ea0f8e1691e84e31c1b115d21d0dfd54130be828c35888c6115e403cda0ce4c7fe2a0ae7fe2a49c344aabc2c944153ec661698a4edee3e533387404e6b0bfff6dbad8b90100000000000000000000000000000000000000000000000000000000000000000000000000000000000000000000000000000000000000000000000000000000000000000000000000000000000000000000000000000000000000000000000000000000000000000000000000000000000000000000000000000000000000000000000000000000000000000000000000000000000000000000000000000000000000000000000000000000000000000000000000000000000000000000000000000000000000000000000000000000000000000000000000000000000000000000000000000000000000000000000000000000000000000000000000000000008001839896808302006e8203e800a000000000000000000000000000000000000000000000000000000000000200008800000000000000000aa056e81f171bcc55a6ff8345e692c0f86e5b48e01b996cadc001622fb5e363b4218080a00000000000000000000000000000000000000000000000000000000000000000f882f880800a83029fe094aab59f13d96113334fab5c68e4e62b61f6cbf64780a000000000000000000000000077d2ecb3f4d887934c7c8f304831ea89e08cb30d25a0ded19bcf864dca1894deba1ac845046ce4c9992e7663a03f5dbb8236488c0afaa04b1ebf66d47cd1eeb44d7a1e6ac23def373c511d395e735e6cf058b259e738a0c0c0",
                "blocknumber": "1"
            }
        ],
        "sealEngine": "NoProof",
        "_info": {
            "hash": "0xb1ad7ced42474d97d523f6a9193e83aea0cd4258d3aa6a7b27418207142b4d1a",
            "fixture-format": "blockchain_test",
            "comment": "`execution-specs` generated test",
            "filling-transition-tool": "2.19.0",
            "description": "Test_static_callcodecallcallcode_101_oogm_after_3.",
            "url": "https://github.com/ethereum/execution-specs/blob/tests-bal@v5.7.0/tests/ported_static/stStaticCall/test_static_callcodecallcallcode_101_oogm_after_3.py#L29",
            "metadata": {
                "opcode_count": {}
            }
        }
    },
    "tests/ported_static/stStaticCall/test_static_callcodecallcallcode_101_oogm_after_3.py::test_static_callcodecallcallcode_101_oogm_after_3[fork_Cancun-blockchain_test_from_state_test-d1]": {
        "network": "Cancun",
        "genesisBlockHeader": {
            "parentHash": "0x0000000000000000000000000000000000000000000000000000000000000000",
            "uncleHash": "0x1dcc4de8dec75d7aab85b567b6ccd41ad312451b948a7413f0a142fd40d49347",
            "coinbase": "0x0000000000000000000000000000000000000000",
            "stateRoot": "0xcb68594466cd2715c86401e4b598ce5039a3583c208098c1ae3373cf84453355",
            "transactionsTrie": "0x56e81f171bcc55a6ff8345e692c0f86e5b48e01b996cadc001622fb5e363b421",
            "receiptTrie": "0x56e81f171bcc55a6ff8345e692c0f86e5b48e01b996cadc001622fb5e363b421",
            "bloom": "0x00000000000000000000000000000000000000000000000000000000000000000000000000000000000000000000000000000000000000000000000000000000000000000000000000000000000000000000000000000000000000000000000000000000000000000000000000000000000000000000000000000000000000000000000000000000000000000000000000000000000000000000000000000000000000000000000000000000000000000000000000000000000000000000000000000000000000000000000000000000000000000000000000000000000000000000000000000000000000000000000000000000000000000000000000000000",
            "difficulty": "0x00",
            "number": "0x00",
            "gasLimit": "0x989680",
            "gasUsed": "0x00",
            "timestamp": "0x00",
            "extraData": "0x00",
            "mixHash": "0x0000000000000000000000000000000000000000000000000000000000000000",
            "nonce": "0x0000000000000000",
            "baseFeePerGas": "0x0b",
            "withdrawalsRoot": "0x56e81f171bcc55a6ff8345e692c0f86e5b48e01b996cadc001622fb5e363b421",
            "blobGasUsed": "0x00",
            "excessBlobGas": "0x00",
            "parentBeaconBlockRoot": "0x0000000000000000000000000000000000000000000000000000000000000000",
            "hash": "0x5531c4fc6ae1b5941e409d7ab3a074409df569832f45dabe5f069dac78e632d4"
        },
        "pre": {
            "0x000f3df6d732807ef1319fb7b8bb8522d0beac02": {
                "nonce": "0x01",
                "balance": "0x00",
                "code": "0x3373fffffffffffffffffffffffffffffffffffffffe14604d57602036146024575f5ffd5b5f35801560495762001fff810690815414603c575f5ffd5b62001fff01545f5260205ff35b5f5ffd5b62001fff42064281555f359062001fff015500",
                "storage": {}
            },
            "0xaab59f13d96113334fab5c68e4e62b61f6cbf647": {
                "nonce": "0x00",
                "balance": "0x0de0b6b3a7640000",
                "code": "0x600060006000600060006000355af2600055600160015500",
                "storage": {}
            },
            "0x77d2ecb3f4d887934c7c8f304831ea89e08cb30d": {
                "nonce": "0x00",
                "balance": "0x0de0b6b3a7640000",
                "code": "0x604060006040600073b867c4bf480d6dcd06716bcdb0f9bcf3bb5710bf61eaf6f46000555a60015500",
                "storage": {}
            },
            "0xb867c4bf480d6dcd06716bcdb0f9bcf3bb5710bf": {
                "nonce": "0x00",
                "balance": "0x00",
                "code": "0x60406000604060007396bba71c203b7339624a350fe004f71c3d669aee619c90fa505b61c3506080511015603e5760013b506001608051016080526022565b00",
                "storage": {}
            },
            "0x96bba71c203b7339624a350fe004f71c3d669aee": {
                "nonce": "0x00",
                "balance": "0x00",
                "code": "0x604060006040600073335c5531b84765a7626e6e76688f18b81be5259c614e34f450600160035200",
                "storage": {}
            },
            "0x335c5531b84765a7626e6e76688f18b81be5259c": {
                "nonce": "0x00",
                "balance": "0x00",
                "code": "0x600160035200",
                "storage": {}
            },
            "0xe2fa228586f5c62a6728d17728f4622d05d84e45": {
                "nonce": "0x00",
                "balance": "0x0de0b6b3a7640000",
                "code": "0x6040600060406000732aba60e14f876dac315953942316a9a2f80c3ad561eaf6f4600055600160015500",
                "storage": {}
            },
            "0x2aba60e14f876dac315953942316a9a2f80c3ad5": {
                "nonce": "0x00",
                "balance": "0x00",
                "code": "0x60406000604060007365be40505e6165809f16bfc5cdba14169bc97614619c90fa00",
                "storage": {}
            },
            "0x65be40505e6165809f16bfc5cdba14169bc97614": {
                "nonce": "0x00",
                "balance": "0x00",
                "code": "0x604060006040600073b126c622075b1189fb6c45e851641cfaddf65b36614e34f450600160035200",
                "storage": {}
            },
            "0xb126c622075b1189fb6c45e851641cfaddf65b36": {
                "nonce": "0x00",
                "balance": "0x00",
                "code": "0x600160035500",
                "storage": {}
            },
            "0xebaf50debf10e08302fe4280c32df010463ca297": {
                "nonce": "0x00",
                "balance": "0x0de0b6b3a7640000",
                "code": "0x",
                "storage": {}
            }
        },
        "postState": {
            "0x000f3df6d732807ef1319fb7b8bb8522d0beac02": {
                "nonce": "0x01",
                "balance": "0x00",
                "code": "0x3373fffffffffffffffffffffffffffffffffffffffe14604d57602036146024575f5ffd5b5f35801560495762001fff810690815414603c575f5ffd5b62001fff01545f5260205ff35b5f5ffd5b62001fff42064281555f359062001fff015500",
                "storage": {
                    "0x03e8": "0x03e8"
                }
            },
            "0xaab59f13d96113334fab5c68e4e62b61f6cbf647": {
                "nonce": "0x00",
                "balance": "0x0de0b6b3a7640000",
                "code": "0x600060006000600060006000355af2600055600160015500",
                "storage": {
                    "0x00": "0x01",
                    "0x01": "0x01"
                }
            },
            "0x77d2ecb3f4d887934c7c8f304831ea89e08cb30d": {
                "nonce": "0x00",
                "balance": "0x0de0b6b3a7640000",
                "code": "0x604060006040600073b867c4bf480d6dcd06716bcdb0f9bcf3bb5710bf61eaf6f46000555a60015500",
                "storage": {}
            },
            "0xb867c4bf480d6dcd06716bcdb0f9bcf3bb5710bf": {
                "nonce": "0x00",
                "balance": "0x00",
                "code": "0x60406000604060007396bba71c203b7339624a350fe004f71c3d669aee619c90fa505b61c3506080511015603e5760013b506001608051016080526022565b00",
                "storage": {}
            },
            "0x96bba71c203b7339624a350fe004f71c3d669aee": {
                "nonce": "0x00",
                "balance": "0x00",
                "code": "0x604060006040600073335c5531b84765a7626e6e76688f18b81be5259c614e34f450600160035200",
                "storage": {}
            },
            "0x335c5531b84765a7626e6e76688f18b81be5259c": {
                "nonce": "0x00",
                "balance": "0x00",
                "code": "0x600160035200",
                "storage": {}
            },
            "0xe2fa228586f5c62a6728d17728f4622d05d84e45": {
                "nonce": "0x00",
                "balance": "0x0de0b6b3a7640000",
                "code": "0x6040600060406000732aba60e14f876dac315953942316a9a2f80c3ad561eaf6f4600055600160015500",
                "storage": {}
            },
            "0x2aba60e14f876dac315953942316a9a2f80c3ad5": {
                "nonce": "0x00",
                "balance": "0x00",
                "code": "0x60406000604060007365be40505e6165809f16bfc5cdba14169bc97614619c90fa00",
                "storage": {}
            },
            "0x65be40505e6165809f16bfc5cdba14169bc97614": {
                "nonce": "0x00",
                "balance": "0x00",
                "code": "0x604060006040600073b126c622075b1189fb6c45e851641cfaddf65b36614e34f450600160035200",
                "storage": {}
            },
            "0xb126c622075b1189fb6c45e851641cfaddf65b36": {
                "nonce": "0x00",
                "balance": "0x00",
                "code": "0x600160035500",
                "storage": {}
            },
            "0xebaf50debf10e08302fe4280c32df010463ca297": {
                "nonce": "0x01",
                "balance": "0x0de0b6b3a7554dd0",
                "code": "0x",
                "storage": {}
            }
        },
        "lastblockhash": "0x48b7add711c212708b611ee19166750c1e5e9c59d658f7117ddf70fdbb668b3b",
        "config": {
            "network": "Cancun",
            "chainid": "0x01",
            "blobSchedule": {
                "Cancun": {
                    "target": "0x03",
                    "max": "0x06",
                    "baseFeeUpdateFraction": "0x32f0ed"
                }
            }
        },
        "genesisRLP": "0xf9023bf90235a00000000000000000000000000000000000000000000000000000000000000000a01dcc4de8dec75d7aab85b567b6ccd41ad312451b948a7413f0a142fd40d49347940000000000000000000000000000000000000000a0cb68594466cd2715c86401e4b598ce5039a3583c208098c1ae3373cf84453355a056e81f171bcc55a6ff8345e692c0f86e5b48e01b996cadc001622fb5e363b421a056e81f171bcc55a6ff8345e692c0f86e5b48e01b996cadc001622fb5e363b421b9010000000000000000000000000000000000000000000000000000000000000000000000000000000000000000000000000000000000000000000000000000000000000000000000000000000000000000000000000000000000000000000000000000000000000000000000000000000000000000000000000000000000000000000000000000000000000000000000000000000000000000000000000000000000000000000000000000000000000000000000000000000000000000000000000000000000000000000000000000000000000000000000000000000000000000000000000000000000000000000000000000000000000000000000000000000000808083989680808000a000000000000000000000000000000000000000000000000000000000000000008800000000000000000ba056e81f171bcc55a6ff8345e692c0f86e5b48e01b996cadc001622fb5e363b4218080a00000000000000000000000000000000000000000000000000000000000000000c0c0c0",
        "blocks": [
            {
                "blockHeader": {
                    "parentHash": "0x5531c4fc6ae1b5941e409d7ab3a074409df569832f45dabe5f069dac78e632d4",
                    "uncleHash": "0x1dcc4de8dec75d7aab85b567b6ccd41ad312451b948a7413f0a142fd40d49347",
                    "coinbase": "0x2adc25665018aa1fe0e6bc666dac8fc2697ff9ba",
                    "stateRoot": "0x1227fe06bdbf792f7c4809fbc2b32e1e44314c81c1bf63202c1b5833d3f55908",
                    "transactionsTrie": "0xccc58c2f69a30f44d404a794b320c50b495bcbb6b153113d309fbbc79bf0d8e3",
                    "receiptTrie": "0x76b73737031dcaa6f94a3c9177501aa0d1e07c0e2dee569915880dcd9b30af84",
                    "bloom": "0x00000000000000000000000000000000000000000000000000000000000000000000000000000000000000000000000000000000000000000000000000000000000000000000000000000000000000000000000000000000000000000000000000000000000000000000000000000000000000000000000000000000000000000000000000000000000000000000000000000000000000000000000000000000000000000000000000000000000000000000000000000000000000000000000000000000000000000000000000000000000000000000000000000000000000000000000000000000000000000000000000000000000000000000000000000000",
                    "difficulty": "0x00",
                    "number": "0x01",
                    "gasLimit": "0x989680",
                    "gasUsed": "0x017838",
                    "timestamp": "0x03e8",
                    "extraData": "0x00",
                    "mixHash": "0x0000000000000000000000000000000000000000000000000000000000020000",
                    "nonce": "0x0000000000000000",
                    "baseFeePerGas": "0x0a",
                    "withdrawalsRoot": "0x56e81f171bcc55a6ff8345e692c0f86e5b48e01b996cadc001622fb5e363b421",
                    "blobGasUsed": "0x00",
                    "excessBlobGas": "0x00",
                    "parentBeaconBlockRoot": "0x0000000000000000000000000000000000000000000000000000000000000000",
                    "hash": "0x48b7add711c212708b611ee19166750c1e5e9c59d658f7117ddf70fdbb668b3b"
                },
                "transactions": [
                    {
                        "type": "0x00",
                        "chainId": "0x01",
                        "nonce": "0x00",
                        "gasPrice": "0x0a",
                        "gasLimit": "0x029fe0",
                        "to": "0xaab59f13d96113334fab5c68e4e62b61f6cbf647",
                        "value": "0x00",
                        "data": "0x000000000000000000000000e2fa228586f5c62a6728d17728f4622d05d84e45",
                        "v": "0x25",
                        "r": "0x8b0f28ebbcb081bccea711198b5515c1baa326f144182e5798c73ef65d2fb070",
                        "s": "0x44ee991f836033930233d1b23a371d85bd07decd9ba733b5eca0cbe9c4e4748e",
                        "sender": "0xebaf50debf10e08302fe4280c32df010463ca297"
                    }
                ],
                "uncleHeaders": [],
                "withdrawals": [],
                "receipts": [
                    {
                        "transactionHash": "0x646153c02f907e98beed0e9436363be4b9685095c88dec295c0a315ab1c7eb9d",
                        "type": "0x00",
                        "cumulativeGasUsed": "0x017838",
                        "bloom": "0x00000000000000000000000000000000000000000000000000000000000000000000000000000000000000000000000000000000000000000000000000000000000000000000000000000000000000000000000000000000000000000000000000000000000000000000000000000000000000000000000000000000000000000000000000000000000000000000000000000000000000000000000000000000000000000000000000000000000000000000000000000000000000000000000000000000000000000000000000000000000000000000000000000000000000000000000000000000000000000000000000000000000000000000000000000000",
                        "logs": [],
                        "status": true,
                        "rlp": "0xf901090183017838b9010000000000000000000000000000000000000000000000000000000000000000000000000000000000000000000000000000000000000000000000000000000000000000000000000000000000000000000000000000000000000000000000000000000000000000000000000000000000000000000000000000000000000000000000000000000000000000000000000000000000000000000000000000000000000000000000000000000000000000000000000000000000000000000000000000000000000000000000000000000000000000000000000000000000000000000000000000000000000000000000000000000000000000000000000000000000c0"
                    }
                ],
                "rlp": "0xf902c3f9023aa05531c4fc6ae1b5941e409d7ab3a074409df569832f45dabe5f069dac78e632d4a01dcc4de8dec75d7aab85b567b6ccd41ad312451b948a7413f0a142fd40d49347942adc25665018aa1fe0e6bc666dac8fc2697ff9baa01227fe06bdbf792f7c4809fbc2b32e1e44314c81c1bf63202c1b5833d3f55908a0ccc58c2f69a30f44d404a794b320c50b495bcbb6b153113d309fbbc79bf0d8e3a076b73737031dcaa6f94a3c9177501aa0d1e07c0e2dee569915880dcd9b30af84b9010000000000000000000000000000000000000000000000000000000000000000000000000000000000000000000000000000000000000000000000000000000000000000000000000000000000000000000000000000000000000000000000000000000000000000000000000000000000000000000000000000000000000000000000000000000000000000000000000000000000000000000000000000000000000000000000000000000000000000000000000000000000000000000000000000000000000000000000000000000000000000000000000000000000000000000000000000000000000000000000000000000000000000000000000000000000800183989680830178388203e800a000000000000000000000000000000000000000000000000000000000000200008800000000000000000aa056e81f171bcc55a6ff8345e692c0f86e5b48e01b996cadc001622fb5e363b4218080a00000000000000000000000000000000000000000000000000000000000000000f882f880800a83029fe094aab59f13d96113334fab5c68e4e62b61f6cbf64780a0000000000000000000000000e2fa228586f5c62a6728d17728f4622d05d84e4525a08b0f28ebbcb081bccea711198b5515c1baa326f144182e5798c73ef65d2fb070a044ee991f836033930233d1b23a371d85bd07decd9ba733b5eca0cbe9c4e4748ec0c0",
                "blocknumber": "1"
            }
        ],
        "sealEngine": "NoProof",
        "_info": {
            "hash": "0x317f2c1a5c59ddf80c644bc9218e34e3828cbd4cde7296a2091e531af44da9e7",
            "fixture-format": "blockchain_test",
            "comment": "`execution-specs` generated test",
            "filling-transition-tool": "2.19.0",
            "description": "Test_static_callcodecallcallcode_101_oogm_after_3.",
            "url": "https://github.com/ethereum/execution-specs/blob/tests-bal@v5.7.0/tests/ported_static/stStaticCall/test_static_callcodecallcallcode_101_oogm_after_3.py#L29",
            "metadata": {
                "opcode_count": {}
            }
        }
    }
}