{
    "tests/ported_static/stCallDelegateCodesHomestead/test_callcallcodecallcode_011_oogm_after.py::test_callcallcodecallcode_011_oogm_after[fork_Cancun-blockchain_test_from_state_test]": {
        "network": "Cancun",
        "genesisBlockHeader": {
            "parentHash": "0x0000000000000000000000000000000000000000000000000000000000000000",
            "uncleHash": "0x1dcc4de8dec75d7aab85b567b6ccd41ad312451b948a7413f0a142fd40d49347",
            "coinbase": "0x0000000000000000000000000000000000000000",
            "stateRoot": "0x6b59e2821b6aedbc9494412c259d1b06d1256fe7a7e82ec8f2079434b9696928",
            "transactionsTrie": "0x56e81f171bcc55a6ff8345e692c0f86e5b48e01b996cadc001622fb5e363b421",
            "receiptTrie": "0x56e81f171bcc55a6ff8345e692c0f86e5b48e01b996cadc001622fb5e363b421",
            "bloom": "0x00000000000000000000000000000000000000000000000000000000000000000000000000000000000000000000000000000000000000000000000000000000000000000000000000000000000000000000000000000000000000000000000000000000000000000000000000000000000000000000000000000000000000000000000000000000000000000000000000000000000000000000000000000000000000000000000000000000000000000000000000000000000000000000000000000000000000000000000000000000000000000000000000000000000000000000000000000000000000000000000000000000000000000000000000000000",
            "difficulty": "0x00",
            "number": "0x00",
            "gasLimit": "0x01c9c380",
            "gasUsed": "0x00",
            "timestamp": "0x00",
            "extraData": "0x00",
            "mixHash": "0x0000000000000000000000000000000000000000000000000000000000000000",
            "nonce": "0x0000000000000000",
            "baseFeePerGas": "0x0b",
            "withdrawalsRoot": "0x56e81f171bcc55a6ff8345e692c0f86e5b48e01b996cadc001622fb5e363b421",
            "blobGasUsed": "0x00",
            "excessBlobGas": "0x00",
            "parentBeaconBlockRoot": "0x0000000000000000000000000000000000000000000000000000000000000000",
            "hash": "0x8e1cf75d7cae10d8cb71ceeed4c8b3d1a39f9a17468470a3aff86ee9f88df6d7"
        },
        "pre": {
            "0x000f3df6d732807ef1319fb7b8bb8522d0beac02": {
                "nonce": "0x01",
                "balance": "0x00",
                "code": "0x3373fffffffffffffffffffffffffffffffffffffffe14604d57602036146024575f5ffd5b5f35801560495762001fff810690815414603c575f5ffd5b62001fff01545f5260205ff35b5f5ffd5b62001fff42064281555f359062001fff015500",
                "storage": {}
            },
            "0xe54ccfa5e33a84943997885f0ab9c19c587d8c4f": {
                "nonce": "0x00",
                "balance": "0x0de0b6b3a7640000",
                "code": "0x60406000604060006000731adae71ad3aeec97978e38be04da2a1773dfc506620c3500f16000556001600b5500",
                "storage": {}
            },
            "0x1adae71ad3aeec97978e38be04da2a1773dfc506": {
                "nonce": "0x00",
                "balance": "0x00",
                "code": "0x604060006040600073da11fdf0ce02240c6b4711f56afcd9763b44d3dc620927c0f4600155622fffff60002000",
                "storage": {}
            },
            "0xda11fdf0ce02240c6b4711f56afcd9763b44d3dc": {
                "nonce": "0x00",
                "balance": "0x00",
                "code": "0x604060006040600073b126c622075b1189fb6c45e851641cfaddf65b3662061a80f460025500",
                "storage": {}
            },
            "0xb126c622075b1189fb6c45e851641cfaddf65b36": {
                "nonce": "0x00",
                "balance": "0x00",
                "code": "0x600160035500",
                "storage": {}
            },
            "0xebaf50debf10e08302fe4280c32df010463ca297": {
                "nonce": "0x00",
                "balance": "0x0de0b6b3a7640000",
                "code": "0x",
                "storage": {}
            }
        },
        "postState": {
            "0x000f3df6d732807ef1319fb7b8bb8522d0beac02": {
                "nonce": "0x01",
                "balance": "0x00",
                "code": "0x3373fffffffffffffffffffffffffffffffffffffffe14604d57602036146024575f5ffd5b5f35801560495762001fff810690815414603c575f5ffd5b62001fff01545f5260205ff35b5f5ffd5b62001fff42064281555f359062001fff015500",
                "storage": {
                    "0x03e8": "0x03e8"
                }
            },
            "0xe54ccfa5e33a84943997885f0ab9c19c587d8c4f": {
                "nonce": "0x00",
                "balance": "0x0de0b6b3a7640000",
                "code": "0x60406000604060006000731adae71ad3aeec97978e38be04da2a1773dfc506620c3500f16000556001600b5500",
                "storage": {
                    "0x0b": "0x01"
                }
            },
            "0x1adae71ad3aeec97978e38be04da2a1773dfc506": {
                "nonce": "0x00",
                "balance": "0x00",
                "code": "0x604060006040600073da11fdf0ce02240c6b4711f56afcd9763b44d3dc620927c0f4600155622fffff60002000",
                "storage": {}
            },
            "0xda11fdf0ce02240c6b4711f56afcd9763b44d3dc": {
                "nonce": "0x00",
                "balance": "0x00",
                "code": "0x604060006040600073b126c622075b1189fb6c45e851641cfaddf65b3662061a80f460025500",
                "storage": {}
            },
            "0xb126c622075b1189fb6c45e851641cfaddf65b36": {
                "nonce": "0x00",
                "balance": "0x00",
                "code": "0x600160035500",
                "storage": {}
            },
            "0xebaf50debf10e08302fe4280c32df010463ca297": {
                "nonce": "0x01",
                "balance": "0x0de0b6b3a6e29d80",
                "code": "0x",
                "storage": {}
            }
        },
        "lastblockhash": "0x20687a14ac1a515b986512ce86d6fa0adce0f369893f8879ee5383e04df5f7da",
        "config": {
            "network": "Cancun",
            "chainid": "0x01",
            "blobSchedule": {
                "Cancun": {
                    "target": "0x03",
                    "max": "0x06",
                    "baseFeeUpdateFraction": "0x32f0ed"
                }
            }
        },
        "genesisRLP": "0xf9023cf90236a00000000000000000000000000000000000000000000000000000000000000000a01dcc4de8dec75d7aab85b567b6ccd41ad312451b948a7413f0a142fd40d49347940000000000000000000000000000000000000000a06b59e2821b6aedbc9494412c259d1b06d1256fe7a7e82ec8f2079434b9696928a056e81f171bcc55a6ff8345e692c0f86e5b48e01b996cadc001622fb5e363b421a056e81f171bcc55a6ff8345e692c0f86e5b48e01b996cadc001622fb5e363b421b901000000000000000000000000000000000000000000000000000000000000000000000000000000000000000000000000000000000000000000000000000000000000000000000000000000000000000000000000000000000000000000000000000000000000000000000000000000000000000000000000000000000000000000000000000000000000000000000000000000000000000000000000000000000000000000000000000000000000000000000000000000000000000000000000000000000000000000000000000000000000000000000000000000000000000000000000000000000000000000000000000000000000000000000000000000000080808401c9c380808000a000000000000000000000000000000000000000000000000000000000000000008800000000000000000ba056e81f171bcc55a6ff8345e692c0f86e5b48e01b996cadc001622fb5e363b4218080a00000000000000000000000000000000000000000000000000000000000000000c0c0c0",
        "blocks": [
            {
                "blockHeader": {
                    "parentHash": "0x8e1cf75d7cae10d8cb71ceeed4c8b3d1a39f9a17468470a3aff86ee9f88df6d7",
                    "uncleHash": "0x1dcc4de8dec75d7aab85b567b6ccd41ad312451b948a7413f0a142fd40d49347",
                    "coinbase": "0x2adc25665018aa1fe0e6bc666dac8fc2697ff9ba",
                    "stateRoot": "0x2350ebee25dd3fe4358ed7f142d5c43a225d6b5b81a150174647c48663d54d12",
                    "transactionsTrie": "0xda2cb6f6622e4786d4dac2d36a73ae58d1c52f9ce39d623400825fdebc17533c",
                    "receiptTrie": "0xbf46d4ee9345a2cdd98065ff4c648060f294884bf381cd4bb5f993c6ff02f50e",
                    "bloom": "0x00000000000000000000000000000000000000000000000000000000000000000000000000000000000000000000000000000000000000000000000000000000000000000000000000000000000000000000000000000000000000000000000000000000000000000000000000000000000000000000000000000000000000000000000000000000000000000000000000000000000000000000000000000000000000000000000000000000000000000000000000000000000000000000000000000000000000000000000000000000000000000000000000000000000000000000000000000000000000000000000000000000000000000000000000000000",
                    "difficulty": "0x00",
                    "number": "0x01",
                    "gasLimit": "0x01c9c380",
                    "gasUsed": "0x0cf040",
                    "timestamp": "0x03e8",
                    "extraData": "0x00",
                    "mixHash": "0x0000000000000000000000000000000000000000000000000000000000020000",
                    "nonce": "0x0000000000000000",
                    "baseFeePerGas": "0x0a",
                    "withdrawalsRoot": "0x56e81f171bcc55a6ff8345e692c0f86e5b48e01b996cadc001622fb5e363b421",
                    "blobGasUsed": "0x00",
                    "excessBlobGas": "0x00",
                    "parentBeaconBlockRoot": "0x0000000000000000000000000000000000000000000000000000000000000000",
                    "hash": "0x20687a14ac1a515b986512ce86d6fa0adce0f369893f8879ee5383e04df5f7da"
                },
                "transactions": [
                    {
                        "type": "0x00",
                        "chainId": "0x01",
                        "nonce": "0x00",
                        "gasPrice": "0x0a",
                        "gasLimit": "0x0f4240",
                        "to": "0xe54ccfa5e33a84943997885f0ab9c19c587d8c4f",
                        "value": "0x00",
                        "data": "0x",
                        "v": "0x25",
                        "r": "0x44a2332b08be6a5d84d2e20676627cc3c6df3f20b740c4317aaf721ac5222c9b",
                        "s": "0x194b473b96d45db195ee8713e405f6295e9cc999cd313dfa9a50af8090545862",
                        "sender": "0xebaf50debf10e08302fe4280c32df010463ca297"
                    }
                ],
                "uncleHeaders": [],
                "withdrawals": [],
                "receipts": [
                    {
                        "transactionHash": "0x79a31705d5b04b35b4ec85832b38c161520227860308d94ee710c3e1fd71f1f0",
                        "type": "0x00",
                        "cumulativeGasUsed": "0x0cf040",
                        "bloom": "0x00000000000000000000000000000000000000000000000000000000000000000000000000000000000000000000000000000000000000000000000000000000000000000000000000000000000000000000000000000000000000000000000000000000000000000000000000000000000000000000000000000000000000000000000000000000000000000000000000000000000000000000000000000000000000000000000000000000000000000000000000000000000000000000000000000000000000000000000000000000000000000000000000000000000000000000000000000000000000000000000000000000000000000000000000000000",
                        "logs": [],
                        "status": true,
                        "rlp": "0xf9010901830cf040b9010000000000000000000000000000000000000000000000000000000000000000000000000000000000000000000000000000000000000000000000000000000000000000000000000000000000000000000000000000000000000000000000000000000000000000000000000000000000000000000000000000000000000000000000000000000000000000000000000000000000000000000000000000000000000000000000000000000000000000000000000000000000000000000000000000000000000000000000000000000000000000000000000000000000000000000000000000000000000000000000000000000000000000000000000000000000c0"
                    }
                ],
                "rlp": "0xf902a4f9023ba08e1cf75d7cae10d8cb71ceeed4c8b3d1a39f9a17468470a3aff86ee9f88df6d7a01dcc4de8dec75d7aab85b567b6ccd41ad312451b948a7413f0a142fd40d49347942adc25665018aa1fe0e6bc666dac8fc2697ff9baa02350ebee25dd3fe4358ed7f142d5c43a225d6b5b81a150174647c48663d54d12a0da2cb6f6622e4786d4dac2d36a73ae58d1c52f9ce39d623400825fdebc17533ca0bf46d4ee9345a2cdd98065ff4c648060f294884bf381cd4bb5f993c6ff02f50eb901000000000000000000000000000000000000000000000000000000000000000000000000000000000000000000000000000000000000000000000000000000000000000000000000000000000000000000000000000000000000000000000000000000000000000000000000000000000000000000000000000000000000000000000000000000000000000000000000000000000000000000000000000000000000000000000000000000000000000000000000000000000000000000000000000000000000000000000000000000000000000000000000000000000000000000000000000000000000000000000000000000000000000000000000000000000080018401c9c380830cf0408203e800a000000000000000000000000000000000000000000000000000000000000200008800000000000000000aa056e81f171bcc55a6ff8345e692c0f86e5b48e01b996cadc001622fb5e363b4218080a00000000000000000000000000000000000000000000000000000000000000000f862f860800a830f424094e54ccfa5e33a84943997885f0ab9c19c587d8c4f808025a044a2332b08be6a5d84d2e20676627cc3c6df3f20b740c4317aaf721ac5222c9ba0194b473b96d45db195ee8713e405f6295e9cc999cd313dfa9a50af8090545862c0c0",
                "blocknumber": "1"
            }
        ],
        "sealEngine": "NoProof",
        "_info": {
            "hash": "0xd88498996230db2045390e40d9f357364bdbc32cb02e832c72a4ca5e91c69c9c",
            "fixture-format": "blockchain_test",
            "comment": "`execution-specs` generated test",
            "filling-transition-tool": "2.19.0",
            "description": "CALL -> (DELEGATE -> DELEGATE -> CODE) OOG.",
            "url": "https://github.com/ethereum/execution-specs/blob/tests-bal@v5.6.0/tests/ported_static/stCallDelegateCodesHomestead/test_callcallcodecallcode_011_oogm_after.py#L25",
            "metadata": {
                "opcode_count": {}
            }
        }
    }
}