{
    "tests/frontier/create/test_create_deposit_oog.py::test_create_deposit_oog[fork_Istanbul-create_opcode_CREATE-blockchain_test_from_state_test-enough_gas_False]": {
        "network": "Istanbul",
        "genesisBlockHeader": {
            "parentHash": "0x0000000000000000000000000000000000000000000000000000000000000000",
            "uncleHash": "0x1dcc4de8dec75d7aab85b567b6ccd41ad312451b948a7413f0a142fd40d49347",
            "coinbase": "0x0000000000000000000000000000000000000000",
            "stateRoot": "0xab60efe9c94efe143c43911fb70bff7f70ccb7830a4ece2e265851839a4c866b",
            "transactionsTrie": "0x56e81f171bcc55a6ff8345e692c0f86e5b48e01b996cadc001622fb5e363b421",
            "receiptTrie": "0x56e81f171bcc55a6ff8345e692c0f86e5b48e01b996cadc001622fb5e363b421",
            "bloom": "0x00000000000000000000000000000000000000000000000000000000000000000000000000000000000000000000000000000000000000000000000000000000000000000000000000000000000000000000000000000000000000000000000000000000000000000000000000000000000000000000000000000000000000000000000000000000000000000000000000000000000000000000000000000000000000000000000000000000000000000000000000000000000000000000000000000000000000000000000000000000000000000000000000000000000000000000000000000000000000000000000000000000000000000000000000000000",
            "difficulty": "0x020000",
            "number": "0x00",
            "gasLimit": "0x07270e00",
            "gasUsed": "0x00",
            "timestamp": "0x00",
            "extraData": "0x00",
            "mixHash": "0x0000000000000000000000000000000000000000000000000000000000000000",
            "nonce": "0x0000000000000000",
            "hash": "0x1a6d6d749eaf6fc4ac9d5095be0016c6dc2655d3883bbf400e4afd2264d86ae4"
        },
        "pre": {
            "0x1ad9bc24818784172ff393bb6f89f094d4d2ca29": {
                "nonce": "0x00",
                "balance": "0x3635c9adc5dea00000",
                "code": "0x",
                "storage": {}
            },
            "0x3e3bb0fb25369d0ffa8fd3dd527ddcbf192720cb": {
                "nonce": "0x01",
                "balance": "0x00",
                "code": "0x7f000000000000000000000000000000000000000000006000601f5360206000f3600052600a60166000f000",
                "storage": {}
            },
            "0x50ebeab14b5fd8486db8d0c125e9dd899fb760cf": {
                "nonce": "0x01",
                "balance": "0x00",
                "code": "0x60206000600060006000733e3bb0fb25369d0ffa8fd3dd527ddcbf192720cb61968bf100",
                "storage": {}
            }
        },
        "postState": {
            "0x1ad9bc24818784172ff393bb6f89f094d4d2ca29": {
                "nonce": "0x01",
                "balance": "0x3635c9adc5de96d1ec",
                "code": "0x",
                "storage": {}
            },
            "0x3e3bb0fb25369d0ffa8fd3dd527ddcbf192720cb": {
                "nonce": "0x02",
                "balance": "0x00",
                "code": "0x7f000000000000000000000000000000000000000000006000601f5360206000f3600052600a60166000f000",
                "storage": {}
            },
            "0x50ebeab14b5fd8486db8d0c125e9dd899fb760cf": {
                "nonce": "0x01",
                "balance": "0x00",
                "code": "0x60206000600060006000733e3bb0fb25369d0ffa8fd3dd527ddcbf192720cb61968bf100",
                "storage": {}
            },
            "0x2adc25665018aa1fe0e6bc666dac8fc2697ff9ba": {
                "nonce": "0x00",
                "balance": "0x1bc16d674ed12e14",
                "code": "0x",
                "storage": {}
            }
        },
        "lastblockhash": "0xf6cca57a35adc3fb3c9354de32f9673d0aa600245ff13426b525c292ec7875c3",
        "config": {
            "network": "Istanbul",
            "chainid": "0x01"
        },
        "genesisRLP": "0xf901f9f901f4a00000000000000000000000000000000000000000000000000000000000000000a01dcc4de8dec75d7aab85b567b6ccd41ad312451b948a7413f0a142fd40d49347940000000000000000000000000000000000000000a0ab60efe9c94efe143c43911fb70bff7f70ccb7830a4ece2e265851839a4c866ba056e81f171bcc55a6ff8345e692c0f86e5b48e01b996cadc001622fb5e363b421a056e81f171bcc55a6ff8345e692c0f86e5b48e01b996cadc001622fb5e363b421b901000000000000000000000000000000000000000000000000000000000000000000000000000000000000000000000000000000000000000000000000000000000000000000000000000000000000000000000000000000000000000000000000000000000000000000000000000000000000000000000000000000000000000000000000000000000000000000000000000000000000000000000000000000000000000000000000000000000000000000000000000000000000000000000000000000000000000000000000000000000000000000000000000000000000000000000000000000000000000000000000000000000000000000000000000000000083020000808407270e00808000a00000000000000000000000000000000000000000000000000000000000000000880000000000000000c0c0",
        "blocks": [
            {
                "blockHeader": {
                    "parentHash": "0x1a6d6d749eaf6fc4ac9d5095be0016c6dc2655d3883bbf400e4afd2264d86ae4",
                    "uncleHash": "0x1dcc4de8dec75d7aab85b567b6ccd41ad312451b948a7413f0a142fd40d49347",
                    "coinbase": "0x2adc25665018aa1fe0e6bc666dac8fc2697ff9ba",
                    "stateRoot": "0x5c29bc72a869badef730f20d7489c72a0638d0a74b7177c86f89fba341fc7dfd",
                    "transactionsTrie": "0xc840b49a3e095ecd69d6d91384f6c87a094e3d3e70a7281340f4f80f4507c7cb",
                    "receiptTrie": "0x694b9d82faefc2452af835286adc40ff8459d6c2749fad815f5cb256b63563bd",
                    "bloom": "0x00000000000000000000000000000000000000000000000000000000000000000000000000000000000000000000000000000000000000000000000000000000000000000000000000000000000000000000000000000000000000000000000000000000000000000000000000000000000000000000000000000000000000000000000000000000000000000000000000000000000000000000000000000000000000000000000000000000000000000000000000000000000000000000000000000000000000000000000000000000000000000000000000000000000000000000000000000000000000000000000000000000000000000000000000000000",
                    "difficulty": "0x020000",
                    "number": "0x01",
                    "gasLimit": "0x07270e00",
                    "gasUsed": "0xeb02",
                    "timestamp": "0x03e8",
                    "extraData": "0x00",
                    "mixHash": "0x0000000000000000000000000000000000000000000000000000000000000000",
                    "nonce": "0x0000000000000000",
                    "hash": "0xf6cca57a35adc3fb3c9354de32f9673d0aa600245ff13426b525c292ec7875c3"
                },
                "transactions": [
                    {
                        "type": "0x00",
                        "chainId": "0x01",
                        "nonce": "0x00",
                        "gasPrice": "0x0a",
                        "gasLimit": "0x989680",
                        "to": "0x50ebeab14b5fd8486db8d0c125e9dd899fb760cf",
                        "value": "0x00",
                        "data": "0x",
                        "v": "0x25",
                        "r": "0x8fce409c6668aba47e4fc0b6733af786347a82d66821a3e995a9b84213a07d98",
                        "s": "0x587b53b3850f4581a7da7e1a3375986932c61b9cbbb1513bd654a63a7ea8e326",
                        "sender": "0x1ad9bc24818784172ff393bb6f89f094d4d2ca29"
                    }
                ],
                "uncleHeaders": [],
                "receipts": [
                    {
                        "transactionHash": "0xe6005e2946eccdaff9790cfc3f47c47552f7ea9b8de2aaf2d607f849ec38bd9e",
                        "type": "0x00",
                        "cumulativeGasUsed": "0xeb02",
                        "bloom": "0x00000000000000000000000000000000000000000000000000000000000000000000000000000000000000000000000000000000000000000000000000000000000000000000000000000000000000000000000000000000000000000000000000000000000000000000000000000000000000000000000000000000000000000000000000000000000000000000000000000000000000000000000000000000000000000000000000000000000000000000000000000000000000000000000000000000000000000000000000000000000000000000000000000000000000000000000000000000000000000000000000000000000000000000000000000000",
                        "logs": [],
                        "status": true,
                        "rlp": "0xf901080182eb02b9010000000000000000000000000000000000000000000000000000000000000000000000000000000000000000000000000000000000000000000000000000000000000000000000000000000000000000000000000000000000000000000000000000000000000000000000000000000000000000000000000000000000000000000000000000000000000000000000000000000000000000000000000000000000000000000000000000000000000000000000000000000000000000000000000000000000000000000000000000000000000000000000000000000000000000000000000000000000000000000000000000000000000000000000000000000000c0"
                    }
                ],
                "rlp": "0xf90260f901f8a01a6d6d749eaf6fc4ac9d5095be0016c6dc2655d3883bbf400e4afd2264d86ae4a01dcc4de8dec75d7aab85b567b6ccd41ad312451b948a7413f0a142fd40d49347942adc25665018aa1fe0e6bc666dac8fc2697ff9baa05c29bc72a869badef730f20d7489c72a0638d0a74b7177c86f89fba341fc7dfda0c840b49a3e095ecd69d6d91384f6c87a094e3d3e70a7281340f4f80f4507c7cba0694b9d82faefc2452af835286adc40ff8459d6c2749fad815f5cb256b63563bdb901000000000000000000000000000000000000000000000000000000000000000000000000000000000000000000000000000000000000000000000000000000000000000000000000000000000000000000000000000000000000000000000000000000000000000000000000000000000000000000000000000000000000000000000000000000000000000000000000000000000000000000000000000000000000000000000000000000000000000000000000000000000000000000000000000000000000000000000000000000000000000000000000000000000000000000000000000000000000000000000000000000000000000000000000000000000083020000018407270e0082eb028203e800a00000000000000000000000000000000000000000000000000000000000000000880000000000000000f862f860800a839896809450ebeab14b5fd8486db8d0c125e9dd899fb760cf808025a08fce409c6668aba47e4fc0b6733af786347a82d66821a3e995a9b84213a07d98a0587b53b3850f4581a7da7e1a3375986932c61b9cbbb1513bd654a63a7ea8e326c0",
                "blocknumber": "1"
            }
        ],
        "sealEngine": "NoProof",
        "_info": {
            "hash": "0xe24ecbf1bee392165466368abba0dfdcb21f4fd16fd965f7e2d56d80f482af25",
            "fixture-format": "blockchain_test",
            "comment": "`execution-specs` generated test",
            "filling-transition-tool": "2.19.0",
            "description": "Run create deploys with a lot of deposited code.",
            "url": "https://github.com/ethereum/execution-specs/blob/tests-snobal-devnet-5@v8037.0.0/tests/frontier/create/test_create_deposit_oog.py#L21",
            "metadata": {
                "opcode_count": {}
            }
        }
    },
    "tests/frontier/create/test_create_deposit_oog.py::test_create_deposit_oog[fork_Istanbul-create_opcode_CREATE-blockchain_test_from_state_test-enough_gas_True]": {
        "network": "Istanbul",
        "genesisBlockHeader": {
            "parentHash": "0x0000000000000000000000000000000000000000000000000000000000000000",
            "uncleHash": "0x1dcc4de8dec75d7aab85b567b6ccd41ad312451b948a7413f0a142fd40d49347",
            "coinbase": "0x0000000000000000000000000000000000000000",
            "stateRoot": "0xc9be57efd214c54d0217642fa4a008478b0dbac642ad45b05e7c60ac2c9f33ad",
            "transactionsTrie": "0x56e81f171bcc55a6ff8345e692c0f86e5b48e01b996cadc001622fb5e363b421",
            "receiptTrie": "0x56e81f171bcc55a6ff8345e692c0f86e5b48e01b996cadc001622fb5e363b421",
            "bloom": "0x00000000000000000000000000000000000000000000000000000000000000000000000000000000000000000000000000000000000000000000000000000000000000000000000000000000000000000000000000000000000000000000000000000000000000000000000000000000000000000000000000000000000000000000000000000000000000000000000000000000000000000000000000000000000000000000000000000000000000000000000000000000000000000000000000000000000000000000000000000000000000000000000000000000000000000000000000000000000000000000000000000000000000000000000000000000",
            "difficulty": "0x020000",
            "number": "0x00",
            "gasLimit": "0x07270e00",
            "gasUsed": "0x00",
            "timestamp": "0x00",
            "extraData": "0x00",
            "mixHash": "0x0000000000000000000000000000000000000000000000000000000000000000",
            "nonce": "0x0000000000000000",
            "hash": "0x44772cf8ed4b1603e4a1651ebb3849092b92bb8275749a45704f29d16fcd48fd"
        },
        "pre": {
            "0x1ad9bc24818784172ff393bb6f89f094d4d2ca29": {
                "nonce": "0x00",
                "balance": "0x3635c9adc5dea00000",
                "code": "0x",
                "storage": {}
            },
            "0x3e3bb0fb25369d0ffa8fd3dd527ddcbf192720cb": {
                "nonce": "0x01",
                "balance": "0x00",
                "code": "0x7f000000000000000000000000000000000000000000006000601f5360206000f3600052600a60166000f000",
                "storage": {}
            },
            "0x019e977fe1f80bb45139e81a183df2a2fd86129a": {
                "nonce": "0x01",
                "balance": "0x00",
                "code": "0x60206000600060006000733e3bb0fb25369d0ffa8fd3dd527ddcbf192720cb61968cf100",
                "storage": {}
            }
        },
        "postState": {
            "0x1ad9bc24818784172ff393bb6f89f094d4d2ca29": {
                "nonce": "0x01",
                "balance": "0x3635c9adc5de96d1e2",
                "code": "0x",
                "storage": {}
            },
            "0x3e3bb0fb25369d0ffa8fd3dd527ddcbf192720cb": {
                "nonce": "0x02",
                "balance": "0x00",
                "code": "0x7f000000000000000000000000000000000000000000006000601f5360206000f3600052600a60166000f000",
                "storage": {}
            },
            "0x019e977fe1f80bb45139e81a183df2a2fd86129a": {
                "nonce": "0x01",
                "balance": "0x00",
                "code": "0x60206000600060006000733e3bb0fb25369d0ffa8fd3dd527ddcbf192720cb61968cf100",
                "storage": {}
            },
            "0xe8e5ae0d7dbd099578363e66f5ec738f0808b98f": {
                "nonce": "0x01",
                "balance": "0x00",
                "code": "0x0000000000000000000000000000000000000000000000000000000000000000",
                "storage": {}
            },
            "0x2adc25665018aa1fe0e6bc666dac8fc2697ff9ba": {
                "nonce": "0x00",
                "balance": "0x1bc16d674ed12e1e",
                "code": "0x",
                "storage": {}
            }
        },
        "lastblockhash": "0x86c8f5375058e54d8a3a72a3d2b5271e61b8af400988355d62a2630d9c7603b5",
        "config": {
            "network": "Istanbul",
            "chainid": "0x01"
        },
        "genesisRLP": "0xf901f9f901f4a00000000000000000000000000000000000000000000000000000000000000000a01dcc4de8dec75d7aab85b567b6ccd41ad312451b948a7413f0a142fd40d49347940000000000000000000000000000000000000000a0c9be57efd214c54d0217642fa4a008478b0dbac642ad45b05e7c60ac2c9f33ada056e81f171bcc55a6ff8345e692c0f86e5b48e01b996cadc001622fb5e363b421a056e81f171bcc55a6ff8345e692c0f86e5b48e01b996cadc001622fb5e363b421b901000000000000000000000000000000000000000000000000000000000000000000000000000000000000000000000000000000000000000000000000000000000000000000000000000000000000000000000000000000000000000000000000000000000000000000000000000000000000000000000000000000000000000000000000000000000000000000000000000000000000000000000000000000000000000000000000000000000000000000000000000000000000000000000000000000000000000000000000000000000000000000000000000000000000000000000000000000000000000000000000000000000000000000000000000000000083020000808407270e00808000a00000000000000000000000000000000000000000000000000000000000000000880000000000000000c0c0",
        "blocks": [
            {
                "blockHeader": {
                    "parentHash": "0x44772cf8ed4b1603e4a1651ebb3849092b92bb8275749a45704f29d16fcd48fd",
                    "uncleHash": "0x1dcc4de8dec75d7aab85b567b6ccd41ad312451b948a7413f0a142fd40d49347",
                    "coinbase": "0x2adc25665018aa1fe0e6bc666dac8fc2697ff9ba",
                    "stateRoot": "0xf99d3850a78614fd40d85a9c89f542b9c62fc374982da62b4be67691c3de54e7",
                    "transactionsTrie": "0x63ed1a4e13fc10464fd44d816da6c63e8de8a03b9d03fcc5a751d39c24045eeb",
                    "receiptTrie": "0x2d1be7b8b9fbb79d009fd234bb4e3e400149c7c59c35dee2c7ee2fd4af460e1b",
                    "bloom": "0x00000000000000000000000000000000000000000000000000000000000000000000000000000000000000000000000000000000000000000000000000000000000000000000000000000000000000000000000000000000000000000000000000000000000000000000000000000000000000000000000000000000000000000000000000000000000000000000000000000000000000000000000000000000000000000000000000000000000000000000000000000000000000000000000000000000000000000000000000000000000000000000000000000000000000000000000000000000000000000000000000000000000000000000000000000000",
                    "difficulty": "0x020000",
                    "number": "0x01",
                    "gasLimit": "0x07270e00",
                    "gasUsed": "0xeb03",
                    "timestamp": "0x03e8",
                    "extraData": "0x00",
                    "mixHash": "0x0000000000000000000000000000000000000000000000000000000000000000",
                    "nonce": "0x0000000000000000",
                    "hash": "0x86c8f5375058e54d8a3a72a3d2b5271e61b8af400988355d62a2630d9c7603b5"
                },
                "transactions": [
                    {
                        "type": "0x00",
                        "chainId": "0x01",
                        "nonce": "0x00",
                        "gasPrice": "0x0a",
                        "gasLimit": "0x989680",
                        "to": "0x019e977fe1f80bb45139e81a183df2a2fd86129a",
                        "value": "0x00",
                        "data": "0x",
                        "v": "0x26",
                        "r": "0x29547dcb3e9d85877227f195bb1de07b2acae54f53d3e3e2540b23c3cdef4020",
                        "s": "0x21d6b33db8806c4d2abe9c135ec528b43b6e1964faa19ad1331be520c82bc79c",
                        "sender": "0x1ad9bc24818784172ff393bb6f89f094d4d2ca29"
                    }
                ],
                "uncleHeaders": [],
                "receipts": [
                    {
                        "transactionHash": "0x98d13bc020e9d51d74bf6ac0beb0a8e4978df7c35c7f30dd388a8315ff787ba1",
                        "type": "0x00",
                        "cumulativeGasUsed": "0xeb03",
                        "bloom": "0x00000000000000000000000000000000000000000000000000000000000000000000000000000000000000000000000000000000000000000000000000000000000000000000000000000000000000000000000000000000000000000000000000000000000000000000000000000000000000000000000000000000000000000000000000000000000000000000000000000000000000000000000000000000000000000000000000000000000000000000000000000000000000000000000000000000000000000000000000000000000000000000000000000000000000000000000000000000000000000000000000000000000000000000000000000000",
                        "logs": [],
                        "status": true,
                        "rlp": "0xf901080182eb03b9010000000000000000000000000000000000000000000000000000000000000000000000000000000000000000000000000000000000000000000000000000000000000000000000000000000000000000000000000000000000000000000000000000000000000000000000000000000000000000000000000000000000000000000000000000000000000000000000000000000000000000000000000000000000000000000000000000000000000000000000000000000000000000000000000000000000000000000000000000000000000000000000000000000000000000000000000000000000000000000000000000000000000000000000000000000000c0"
                    }
                ],
                "rlp": "0xf90260f901f8a044772cf8ed4b1603e4a1651ebb3849092b92bb8275749a45704f29d16fcd48fda01dcc4de8dec75d7aab85b567b6ccd41ad312451b948a7413f0a142fd40d49347942adc25665018aa1fe0e6bc666dac8fc2697ff9baa0f99d3850a78614fd40d85a9c89f542b9c62fc374982da62b4be67691c3de54e7a063ed1a4e13fc10464fd44d816da6c63e8de8a03b9d03fcc5a751d39c24045eeba02d1be7b8b9fbb79d009fd234bb4e3e400149c7c59c35dee2c7ee2fd4af460e1bb901000000000000000000000000000000000000000000000000000000000000000000000000000000000000000000000000000000000000000000000000000000000000000000000000000000000000000000000000000000000000000000000000000000000000000000000000000000000000000000000000000000000000000000000000000000000000000000000000000000000000000000000000000000000000000000000000000000000000000000000000000000000000000000000000000000000000000000000000000000000000000000000000000000000000000000000000000000000000000000000000000000000000000000000000000000000083020000018407270e0082eb038203e800a00000000000000000000000000000000000000000000000000000000000000000880000000000000000f862f860800a8398968094019e977fe1f80bb45139e81a183df2a2fd86129a808026a029547dcb3e9d85877227f195bb1de07b2acae54f53d3e3e2540b23c3cdef4020a021d6b33db8806c4d2abe9c135ec528b43b6e1964faa19ad1331be520c82bc79cc0",
                "blocknumber": "1"
            }
        ],
        "sealEngine": "NoProof",
        "_info": {
            "hash": "0x911d459bcfee5b9979dbed364e3a0c82642f3ff9898af6556d18af8fb89d942c",
            "fixture-format": "blockchain_test",
            "comment": "`execution-specs` generated test",
            "filling-transition-tool": "2.19.0",
            "description": "Run create deploys with a lot of deposited code.",
            "url": "https://github.com/ethereum/execution-specs/blob/tests-snobal-devnet-5@v8037.0.0/tests/frontier/create/test_create_deposit_oog.py#L21",
            "metadata": {
                "opcode_count": {}
            }
        }
    },
    "tests/frontier/create/test_create_deposit_oog.py::test_create_deposit_oog[fork_Istanbul-create_opcode_CREATE2-blockchain_test_from_state_test-enough_gas_False]": {
        "network": "Istanbul",
        "genesisBlockHeader": {
            "parentHash": "0x0000000000000000000000000000000000000000000000000000000000000000",
            "uncleHash": "0x1dcc4de8dec75d7aab85b567b6ccd41ad312451b948a7413f0a142fd40d49347",
            "coinbase": "0x0000000000000000000000000000000000000000",
            "stateRoot": "0x6b810db56eb01c6bd40f60fb9056fd032bc395e6d290860ef55a1ad0f31ef4bd",
            "transactionsTrie": "0x56e81f171bcc55a6ff8345e692c0f86e5b48e01b996cadc001622fb5e363b421",
            "receiptTrie": "0x56e81f171bcc55a6ff8345e692c0f86e5b48e01b996cadc001622fb5e363b421",
            "bloom": "0x00000000000000000000000000000000000000000000000000000000000000000000000000000000000000000000000000000000000000000000000000000000000000000000000000000000000000000000000000000000000000000000000000000000000000000000000000000000000000000000000000000000000000000000000000000000000000000000000000000000000000000000000000000000000000000000000000000000000000000000000000000000000000000000000000000000000000000000000000000000000000000000000000000000000000000000000000000000000000000000000000000000000000000000000000000000",
            "difficulty": "0x020000",
            "number": "0x00",
            "gasLimit": "0x07270e00",
            "gasUsed": "0x00",
            "timestamp": "0x00",
            "extraData": "0x00",
            "mixHash": "0x0000000000000000000000000000000000000000000000000000000000000000",
            "nonce": "0x0000000000000000",
            "hash": "0x4e834a8bf7899655601de03dfee33eee204dea35df164de5c6501192e5850b2c"
        },
        "pre": {
            "0x1ad9bc24818784172ff393bb6f89f094d4d2ca29": {
                "nonce": "0x00",
                "balance": "0x3635c9adc5dea00000",
                "code": "0x",
                "storage": {}
            },
            "0x1ec2cdaf3802ead0c0dd311d06da205bc0653749": {
                "nonce": "0x01",
                "balance": "0x00",
                "code": "0x7f000000000000000000000000000000000000000000006000601f5360206000f36000526000600a60166000f500",
                "storage": {}
            },
            "0x34f6cd4271258721a45c1de156d07c8265541fc9": {
                "nonce": "0x01",
                "balance": "0x00",
                "code": "0x60206000600060006000731ec2cdaf3802ead0c0dd311d06da205bc0653749619694f100",
                "storage": {}
            }
        },
        "postState": {
            "0x1ad9bc24818784172ff393bb6f89f094d4d2ca29": {
                "nonce": "0x01",
                "balance": "0x3635c9adc5de96d192",
                "code": "0x",
                "storage": {}
            },
            "0x1ec2cdaf3802ead0c0dd311d06da205bc0653749": {
                "nonce": "0x02",
                "balance": "0x00",
                "code": "0x7f000000000000000000000000000000000000000000006000601f5360206000f36000526000600a60166000f500",
                "storage": {}
            },
            "0x34f6cd4271258721a45c1de156d07c8265541fc9": {
                "nonce": "0x01",
                "balance": "0x00",
                "code": "0x60206000600060006000731ec2cdaf3802ead0c0dd311d06da205bc0653749619694f100",
                "storage": {}
            },
            "0x2adc25665018aa1fe0e6bc666dac8fc2697ff9ba": {
                "nonce": "0x00",
                "balance": "0x1bc16d674ed12e6e",
                "code": "0x",
                "storage": {}
            }
        },
        "lastblockhash": "0x28725efc931867c1269d07db2ffe02d7a364260fed856e69c997a142ae6e6269",
        "config": {
            "network": "Istanbul",
            "chainid": "0x01"
        },
        "genesisRLP": "0xf901f9f901f4a00000000000000000000000000000000000000000000000000000000000000000a01dcc4de8dec75d7aab85b567b6ccd41ad312451b948a7413f0a142fd40d49347940000000000000000000000000000000000000000a06b810db56eb01c6bd40f60fb9056fd032bc395e6d290860ef55a1ad0f31ef4bda056e81f171bcc55a6ff8345e692c0f86e5b48e01b996cadc001622fb5e363b421a056e81f171bcc55a6ff8345e692c0f86e5b48e01b996cadc001622fb5e363b421b901000000000000000000000000000000000000000000000000000000000000000000000000000000000000000000000000000000000000000000000000000000000000000000000000000000000000000000000000000000000000000000000000000000000000000000000000000000000000000000000000000000000000000000000000000000000000000000000000000000000000000000000000000000000000000000000000000000000000000000000000000000000000000000000000000000000000000000000000000000000000000000000000000000000000000000000000000000000000000000000000000000000000000000000000000000000083020000808407270e00808000a00000000000000000000000000000000000000000000000000000000000000000880000000000000000c0c0",
        "blocks": [
            {
                "blockHeader": {
                    "parentHash": "0x4e834a8bf7899655601de03dfee33eee204dea35df164de5c6501192e5850b2c",
                    "uncleHash": "0x1dcc4de8dec75d7aab85b567b6ccd41ad312451b948a7413f0a142fd40d49347",
                    "coinbase": "0x2adc25665018aa1fe0e6bc666dac8fc2697ff9ba",
                    "stateRoot": "0xfc75477de2d0b76f45d4fead34434673679d458f6aaa11866f72eebc9bca9e4c",
                    "transactionsTrie": "0x261aa63defb101ab488f7170a8718baf8a47aef1467b841599875fea81483347",
                    "receiptTrie": "0x92e7870e7d354d47af943713f4be90da729ab19b0210ac46167b84d2229a267b",
                    "bloom": "0x00000000000000000000000000000000000000000000000000000000000000000000000000000000000000000000000000000000000000000000000000000000000000000000000000000000000000000000000000000000000000000000000000000000000000000000000000000000000000000000000000000000000000000000000000000000000000000000000000000000000000000000000000000000000000000000000000000000000000000000000000000000000000000000000000000000000000000000000000000000000000000000000000000000000000000000000000000000000000000000000000000000000000000000000000000000",
                    "difficulty": "0x020000",
                    "number": "0x01",
                    "gasLimit": "0x07270e00",
                    "gasUsed": "0xeb0b",
                    "timestamp": "0x03e8",
                    "extraData": "0x00",
                    "mixHash": "0x0000000000000000000000000000000000000000000000000000000000000000",
                    "nonce": "0x0000000000000000",
                    "hash": "0x28725efc931867c1269d07db2ffe02d7a364260fed856e69c997a142ae6e6269"
                },
                "transactions": [
                    {
                        "type": "0x00",
                        "chainId": "0x01",
                        "nonce": "0x00",
                        "gasPrice": "0x0a",
                        "gasLimit": "0x989680",
                        "to": "0x34f6cd4271258721a45c1de156d07c8265541fc9",
                        "value": "0x00",
                        "data": "0x",
                        "v": "0x26",
                        "r": "0xa2005fc5f2dc96bb76429096872ee35a10191e709acf6963ac10229aea3bc161",
                        "s": "0x5d499b87df7c05ab47403f2e4d249c93589bc5ca26034904d18ca4e6a95ad01f",
                        "sender": "0x1ad9bc24818784172ff393bb6f89f094d4d2ca29"
                    }
                ],
                "uncleHeaders": [],
                "receipts": [
                    {
                        "transactionHash": "0xeab27b846996576b18a2d9fd72f4e8a2717ad8fde07ccbd97676af0f4fa18866",
                        "type": "0x00",
                        "cumulativeGasUsed": "0xeb0b",
                        "bloom": "0x00000000000000000000000000000000000000000000000000000000000000000000000000000000000000000000000000000000000000000000000000000000000000000000000000000000000000000000000000000000000000000000000000000000000000000000000000000000000000000000000000000000000000000000000000000000000000000000000000000000000000000000000000000000000000000000000000000000000000000000000000000000000000000000000000000000000000000000000000000000000000000000000000000000000000000000000000000000000000000000000000000000000000000000000000000000",
                        "logs": [],
                        "status": true,
                        "rlp": "0xf901080182eb0bb9010000000000000000000000000000000000000000000000000000000000000000000000000000000000000000000000000000000000000000000000000000000000000000000000000000000000000000000000000000000000000000000000000000000000000000000000000000000000000000000000000000000000000000000000000000000000000000000000000000000000000000000000000000000000000000000000000000000000000000000000000000000000000000000000000000000000000000000000000000000000000000000000000000000000000000000000000000000000000000000000000000000000000000000000000000000000c0"
                    }
                ],
                "rlp": "0xf90260f901f8a04e834a8bf7899655601de03dfee33eee204dea35df164de5c6501192e5850b2ca01dcc4de8dec75d7aab85b567b6ccd41ad312451b948a7413f0a142fd40d49347942adc25665018aa1fe0e6bc666dac8fc2697ff9baa0fc75477de2d0b76f45d4fead34434673679d458f6aaa11866f72eebc9bca9e4ca0261aa63defb101ab488f7170a8718baf8a47aef1467b841599875fea81483347a092e7870e7d354d47af943713f4be90da729ab19b0210ac46167b84d2229a267bb901000000000000000000000000000000000000000000000000000000000000000000000000000000000000000000000000000000000000000000000000000000000000000000000000000000000000000000000000000000000000000000000000000000000000000000000000000000000000000000000000000000000000000000000000000000000000000000000000000000000000000000000000000000000000000000000000000000000000000000000000000000000000000000000000000000000000000000000000000000000000000000000000000000000000000000000000000000000000000000000000000000000000000000000000000000000083020000018407270e0082eb0b8203e800a00000000000000000000000000000000000000000000000000000000000000000880000000000000000f862f860800a839896809434f6cd4271258721a45c1de156d07c8265541fc9808026a0a2005fc5f2dc96bb76429096872ee35a10191e709acf6963ac10229aea3bc161a05d499b87df7c05ab47403f2e4d249c93589bc5ca26034904d18ca4e6a95ad01fc0",
                "blocknumber": "1"
            }
        ],
        "sealEngine": "NoProof",
        "_info": {
            "hash": "0x0bba1e862c790e4bc166ac3b5023de72f555099a031235ab10e8554ca1d22a5c",
            "fixture-format": "blockchain_test",
            "comment": "`execution-specs` generated test",
            "filling-transition-tool": "2.19.0",
            "description": "Run create deploys with a lot of deposited code.",
            "url": "https://github.com/ethereum/execution-specs/blob/tests-snobal-devnet-5@v8037.0.0/tests/frontier/create/test_create_deposit_oog.py#L21",
            "metadata": {
                "opcode_count": {}
            }
        }
    },
    "tests/frontier/create/test_create_deposit_oog.py::test_create_deposit_oog[fork_Istanbul-create_opcode_CREATE2-blockchain_test_from_state_test-enough_gas_True]": {
        "network": "Istanbul",
        "genesisBlockHeader": {
            "parentHash": "0x0000000000000000000000000000000000000000000000000000000000000000",
            "uncleHash": "0x1dcc4de8dec75d7aab85b567b6ccd41ad312451b948a7413f0a142fd40d49347",
            "coinbase": "0x0000000000000000000000000000000000000000",
            "stateRoot": "0x8851004dfbd2eae29ab9386b9e2458f25c2d8a692bfb3792f5bbd0cd156f6d1d",
            "transactionsTrie": "0x56e81f171bcc55a6ff8345e692c0f86e5b48e01b996cadc001622fb5e363b421",
            "receiptTrie": "0x56e81f171bcc55a6ff8345e692c0f86e5b48e01b996cadc001622fb5e363b421",
            "bloom": "0x00000000000000000000000000000000000000000000000000000000000000000000000000000000000000000000000000000000000000000000000000000000000000000000000000000000000000000000000000000000000000000000000000000000000000000000000000000000000000000000000000000000000000000000000000000000000000000000000000000000000000000000000000000000000000000000000000000000000000000000000000000000000000000000000000000000000000000000000000000000000000000000000000000000000000000000000000000000000000000000000000000000000000000000000000000000",
            "difficulty": "0x020000",
            "number": "0x00",
            "gasLimit": "0x07270e00",
            "gasUsed": "0x00",
            "timestamp": "0x00",
            "extraData": "0x00",
            "mixHash": "0x0000000000000000000000000000000000000000000000000000000000000000",
            "nonce": "0x0000000000000000",
            "hash": "0xcdb2ace68fbefead482d86cef547acab1abae8a60fd0b1b3fd26747150c278ce"
        },
        "pre": {
            "0x1ad9bc24818784172ff393bb6f89f094d4d2ca29": {
                "nonce": "0x00",
                "balance": "0x3635c9adc5dea00000",
                "code": "0x",
                "storage": {}
            },
            "0x1ec2cdaf3802ead0c0dd311d06da205bc0653749": {
                "nonce": "0x01",
                "balance": "0x00",
                "code": "0x7f000000000000000000000000000000000000000000006000601f5360206000f36000526000600a60166000f500",
                "storage": {}
            },
            "0xbf11345334833a4072bcaf7b38e68c1105217ae7": {
                "nonce": "0x01",
                "balance": "0x00",
                "code": "0x60206000600060006000731ec2cdaf3802ead0c0dd311d06da205bc0653749619695f100",
                "storage": {}
            }
        },
        "postState": {
            "0x1ad9bc24818784172ff393bb6f89f094d4d2ca29": {
                "nonce": "0x01",
                "balance": "0x3635c9adc5de96d188",
                "code": "0x",
                "storage": {}
            },
            "0x1ec2cdaf3802ead0c0dd311d06da205bc0653749": {
                "nonce": "0x02",
                "balance": "0x00",
                "code": "0x7f000000000000000000000000000000000000000000006000601f5360206000f36000526000600a60166000f500",
                "storage": {}
            },
            "0xbf11345334833a4072bcaf7b38e68c1105217ae7": {
                "nonce": "0x01",
                "balance": "0x00",
                "code": "0x60206000600060006000731ec2cdaf3802ead0c0dd311d06da205bc0653749619695f100",
                "storage": {}
            },
            "0x82b8381f239c76aa1d99d1c751918aa4bf5650be": {
                "nonce": "0x01",
                "balance": "0x00",
                "code": "0x0000000000000000000000000000000000000000000000000000000000000000",
                "storage": {}
            },
            "0x2adc25665018aa1fe0e6bc666dac8fc2697ff9ba": {
                "nonce": "0x00",
                "balance": "0x1bc16d674ed12e78",
                "code": "0x",
                "storage": {}
            }
        },
        "lastblockhash": "0xb4b6b27c7115f2a5df4c9f268c401d0ab61a301bb96ceaf74e20fd07fd4c6e79",
        "config": {
            "network": "Istanbul",
            "chainid": "0x01"
        },
        "genesisRLP": "0xf901f9f901f4a00000000000000000000000000000000000000000000000000000000000000000a01dcc4de8dec75d7aab85b567b6ccd41ad312451b948a7413f0a142fd40d49347940000000000000000000000000000000000000000a08851004dfbd2eae29ab9386b9e2458f25c2d8a692bfb3792f5bbd0cd156f6d1da056e81f171bcc55a6ff8345e692c0f86e5b48e01b996cadc001622fb5e363b421a056e81f171bcc55a6ff8345e692c0f86e5b48e01b996cadc001622fb5e363b421b901000000000000000000000000000000000000000000000000000000000000000000000000000000000000000000000000000000000000000000000000000000000000000000000000000000000000000000000000000000000000000000000000000000000000000000000000000000000000000000000000000000000000000000000000000000000000000000000000000000000000000000000000000000000000000000000000000000000000000000000000000000000000000000000000000000000000000000000000000000000000000000000000000000000000000000000000000000000000000000000000000000000000000000000000000000000083020000808407270e00808000a00000000000000000000000000000000000000000000000000000000000000000880000000000000000c0c0",
        "blocks": [
            {
                "blockHeader": {
                    "parentHash": "0xcdb2ace68fbefead482d86cef547acab1abae8a60fd0b1b3fd26747150c278ce",
                    "uncleHash": "0x1dcc4de8dec75d7aab85b567b6ccd41ad312451b948a7413f0a142fd40d49347",
                    "coinbase": "0x2adc25665018aa1fe0e6bc666dac8fc2697ff9ba",
                    "stateRoot": "0xebaa5b0083779f8c379da3300d95488491501711a157e0fdb1549b7aef056dec",
                    "transactionsTrie": "0xd785c51529b73f0aef16e13fe4173d487407d9374368efbd8766d31068ebc8b4",
                    "receiptTrie": "0x1186e46f06243138d4ee9ac3ecd95096087d03ad43822dc7c0f0fb3da796b65d",
                    "bloom": "0x00000000000000000000000000000000000000000000000000000000000000000000000000000000000000000000000000000000000000000000000000000000000000000000000000000000000000000000000000000000000000000000000000000000000000000000000000000000000000000000000000000000000000000000000000000000000000000000000000000000000000000000000000000000000000000000000000000000000000000000000000000000000000000000000000000000000000000000000000000000000000000000000000000000000000000000000000000000000000000000000000000000000000000000000000000000",
                    "difficulty": "0x020000",
                    "number": "0x01",
                    "gasLimit": "0x07270e00",
                    "gasUsed": "0xeb0c",
                    "timestamp": "0x03e8",
                    "extraData": "0x00",
                    "mixHash": "0x0000000000000000000000000000000000000000000000000000000000000000",
                    "nonce": "0x0000000000000000",
                    "hash": "0xb4b6b27c7115f2a5df4c9f268c401d0ab61a301bb96ceaf74e20fd07fd4c6e79"
                },
                "transactions": [
                    {
                        "type": "0x00",
                        "chainId": "0x01",
                        "nonce": "0x00",
                        "gasPrice": "0x0a",
                        "gasLimit": "0x989680",
                        "to": "0xbf11345334833a4072bcaf7b38e68c1105217ae7",
                        "value": "0x00",
                        "data": "0x",
                        "v": "0x25",
                        "r": "0xe2d78ead5a46b033e6e9bd2d2fa61e168c757b4e7358a44cd7577af7bd5c7c43",
                        "s": "0x2e94e4840d7cd0d849e1a925ab0e53ffb9230ff4e7071c1b4259574eaaca2097",
                        "sender": "0x1ad9bc24818784172ff393bb6f89f094d4d2ca29"
                    }
                ],
                "uncleHeaders": [],
                "receipts": [
                    {
                        "transactionHash": "0x469db41c048e3aa1012b78851dec110fd7223d1adbf22b3ef891892ae2964110",
                        "type": "0x00",
                        "cumulativeGasUsed": "0xeb0c",
                        "bloom": "0x00000000000000000000000000000000000000000000000000000000000000000000000000000000000000000000000000000000000000000000000000000000000000000000000000000000000000000000000000000000000000000000000000000000000000000000000000000000000000000000000000000000000000000000000000000000000000000000000000000000000000000000000000000000000000000000000000000000000000000000000000000000000000000000000000000000000000000000000000000000000000000000000000000000000000000000000000000000000000000000000000000000000000000000000000000000",
                        "logs": [],
                        "status": true,
                        "rlp": "0xf901080182eb0cb9010000000000000000000000000000000000000000000000000000000000000000000000000000000000000000000000000000000000000000000000000000000000000000000000000000000000000000000000000000000000000000000000000000000000000000000000000000000000000000000000000000000000000000000000000000000000000000000000000000000000000000000000000000000000000000000000000000000000000000000000000000000000000000000000000000000000000000000000000000000000000000000000000000000000000000000000000000000000000000000000000000000000000000000000000000000000c0"
                    }
                ],
                "rlp": "0xf90260f901f8a0cdb2ace68fbefead482d86cef547acab1abae8a60fd0b1b3fd26747150c278cea01dcc4de8dec75d7aab85b567b6ccd41ad312451b948a7413f0a142fd40d49347942adc25665018aa1fe0e6bc666dac8fc2697ff9baa0ebaa5b0083779f8c379da3300d95488491501711a157e0fdb1549b7aef056deca0d785c51529b73f0aef16e13fe4173d487407d9374368efbd8766d31068ebc8b4a01186e46f06243138d4ee9ac3ecd95096087d03ad43822dc7c0f0fb3da796b65db901000000000000000000000000000000000000000000000000000000000000000000000000000000000000000000000000000000000000000000000000000000000000000000000000000000000000000000000000000000000000000000000000000000000000000000000000000000000000000000000000000000000000000000000000000000000000000000000000000000000000000000000000000000000000000000000000000000000000000000000000000000000000000000000000000000000000000000000000000000000000000000000000000000000000000000000000000000000000000000000000000000000000000000000000000000000083020000018407270e0082eb0c8203e800a00000000000000000000000000000000000000000000000000000000000000000880000000000000000f862f860800a8398968094bf11345334833a4072bcaf7b38e68c1105217ae7808025a0e2d78ead5a46b033e6e9bd2d2fa61e168c757b4e7358a44cd7577af7bd5c7c43a02e94e4840d7cd0d849e1a925ab0e53ffb9230ff4e7071c1b4259574eaaca2097c0",
                "blocknumber": "1"
            }
        ],
        "sealEngine": "NoProof",
        "_info": {
            "hash": "0xd61531a8c83f06a08f5cd774fc0641cc944941fc753dee281717615570e152e2",
            "fixture-format": "blockchain_test",
            "comment": "`execution-specs` generated test",
            "filling-transition-tool": "2.19.0",
            "description": "Run create deploys with a lot of deposited code.",
            "url": "https://github.com/ethereum/execution-specs/blob/tests-snobal-devnet-5@v8037.0.0/tests/frontier/create/test_create_deposit_oog.py#L21",
            "metadata": {
                "opcode_count": {}
            }
        }
    }
}