{
    "tests/ported_static/stStaticCall/test_static_callcallcallcode_abcb_recursive.py::test_static_callcallcallcode_abcb_recursive[fork_Cancun-blockchain_test_from_state_test]": {
        "network": "Cancun",
        "genesisBlockHeader": {
            "parentHash": "0x0000000000000000000000000000000000000000000000000000000000000000",
            "uncleHash": "0x1dcc4de8dec75d7aab85b567b6ccd41ad312451b948a7413f0a142fd40d49347",
            "coinbase": "0x0000000000000000000000000000000000000000",
            "stateRoot": "0x239359c820984208ec8dde05baab4bb81bc910679d3917b25929095f1897ae74",
            "transactionsTrie": "0x56e81f171bcc55a6ff8345e692c0f86e5b48e01b996cadc001622fb5e363b421",
            "receiptTrie": "0x56e81f171bcc55a6ff8345e692c0f86e5b48e01b996cadc001622fb5e363b421",
            "bloom": "0x00000000000000000000000000000000000000000000000000000000000000000000000000000000000000000000000000000000000000000000000000000000000000000000000000000000000000000000000000000000000000000000000000000000000000000000000000000000000000000000000000000000000000000000000000000000000000000000000000000000000000000000000000000000000000000000000000000000000000000000000000000000000000000000000000000000000000000000000000000000000000000000000000000000000000000000000000000000000000000000000000000000000000000000000000000000",
            "difficulty": "0x00",
            "number": "0x00",
            "gasLimit": "0xb2d05e00",
            "gasUsed": "0x00",
            "timestamp": "0x00",
            "extraData": "0x00",
            "mixHash": "0x0000000000000000000000000000000000000000000000000000000000000000",
            "nonce": "0x0000000000000000",
            "baseFeePerGas": "0x0b",
            "withdrawalsRoot": "0x56e81f171bcc55a6ff8345e692c0f86e5b48e01b996cadc001622fb5e363b421",
            "blobGasUsed": "0x00",
            "excessBlobGas": "0x00",
            "parentBeaconBlockRoot": "0x0000000000000000000000000000000000000000000000000000000000000000",
            "hash": "0x74b0c2a58b472f41636e1491851c47ab764d30bc4890845263673919566150a8"
        },
        "pre": {
            "0x000f3df6d732807ef1319fb7b8bb8522d0beac02": {
                "nonce": "0x01",
                "balance": "0x00",
                "code": "0x3373fffffffffffffffffffffffffffffffffffffffe14604d57602036146024575f5ffd5b5f35801560495762001fff810690815414603c575f5ffd5b62001fff01545f5260205ff35b5f5ffd5b62001fff42064281555f359062001fff015500",
                "storage": {}
            },
            "0x5ee4b6a55558049d98b92269841db0f86fd1a59a": {
                "nonce": "0x00",
                "balance": "0x0de0b6b3a7640000",
                "code": "0x600160015260406000604060007334baf5e282fcbde0d147efd6f95e606cc8c2748563017d7840fa506001601f5200",
                "storage": {}
            },
            "0x34baf5e282fcbde0d147efd6f95e606cc8c27485": {
                "nonce": "0x00",
                "balance": "0x02540be400",
                "code": "0x6001600152604060006040600073458e20b622ec33a82f2a43a90edc52a429639916620f4240fa506001601f5200",
                "storage": {}
            },
            "0x458e20b622ec33a82f2a43a90edc52a429639916": {
                "nonce": "0x00",
                "balance": "0x02540be400",
                "code": "0x600160015260406000604060007334baf5e282fcbde0d147efd6f95e606cc8c274856207a120f450600160155200",
                "storage": {}
            },
            "0xebaf50debf10e08302fe4280c32df010463ca297": {
                "nonce": "0x00",
                "balance": "0x0de0b6b3a7640000",
                "code": "0x",
                "storage": {}
            }
        },
        "postState": {
            "0x000f3df6d732807ef1319fb7b8bb8522d0beac02": {
                "nonce": "0x01",
                "balance": "0x00",
                "code": "0x3373fffffffffffffffffffffffffffffffffffffffe14604d57602036146024575f5ffd5b5f35801560495762001fff810690815414603c575f5ffd5b62001fff01545f5260205ff35b5f5ffd5b62001fff42064281555f359062001fff015500",
                "storage": {
                    "0x03e8": "0x03e8"
                }
            },
            "0x5ee4b6a55558049d98b92269841db0f86fd1a59a": {
                "nonce": "0x00",
                "balance": "0x0de0b6b3a7640000",
                "code": "0x600160015260406000604060007334baf5e282fcbde0d147efd6f95e606cc8c2748563017d7840fa506001601f5200",
                "storage": {}
            },
            "0x34baf5e282fcbde0d147efd6f95e606cc8c27485": {
                "nonce": "0x00",
                "balance": "0x02540be400",
                "code": "0x6001600152604060006040600073458e20b622ec33a82f2a43a90edc52a429639916620f4240fa506001601f5200",
                "storage": {}
            },
            "0x458e20b622ec33a82f2a43a90edc52a429639916": {
                "nonce": "0x00",
                "balance": "0x02540be400",
                "code": "0x600160015260406000604060007334baf5e282fcbde0d147efd6f95e606cc8c274856207a120f450600160155200",
                "storage": {}
            },
            "0xebaf50debf10e08302fe4280c32df010463ca297": {
                "nonce": "0x01",
                "balance": "0x0de0b6b3a75a3d2c",
                "code": "0x",
                "storage": {}
            }
        },
        "lastblockhash": "0x72182eaf66a01246f64dadc871800ca85a20b75a6c3ab9933923946512bd63fa",
        "config": {
            "network": "Cancun",
            "chainid": "0x01",
            "blobSchedule": {
                "Cancun": {
                    "target": "0x03",
                    "max": "0x06",
                    "baseFeeUpdateFraction": "0x32f0ed"
                }
            }
        },
        "genesisRLP": "0xf9023cf90236a00000000000000000000000000000000000000000000000000000000000000000a01dcc4de8dec75d7aab85b567b6ccd41ad312451b948a7413f0a142fd40d49347940000000000000000000000000000000000000000a0239359c820984208ec8dde05baab4bb81bc910679d3917b25929095f1897ae74a056e81f171bcc55a6ff8345e692c0f86e5b48e01b996cadc001622fb5e363b421a056e81f171bcc55a6ff8345e692c0f86e5b48e01b996cadc001622fb5e363b421b9010000000000000000000000000000000000000000000000000000000000000000000000000000000000000000000000000000000000000000000000000000000000000000000000000000000000000000000000000000000000000000000000000000000000000000000000000000000000000000000000000000000000000000000000000000000000000000000000000000000000000000000000000000000000000000000000000000000000000000000000000000000000000000000000000000000000000000000000000000000000000000000000000000000000000000000000000000000000000000000000000000000000000000000000000000000000808084b2d05e00808000a000000000000000000000000000000000000000000000000000000000000000008800000000000000000ba056e81f171bcc55a6ff8345e692c0f86e5b48e01b996cadc001622fb5e363b4218080a00000000000000000000000000000000000000000000000000000000000000000c0c0c0",
        "blocks": [
            {
                "blockHeader": {
                    "parentHash": "0x74b0c2a58b472f41636e1491851c47ab764d30bc4890845263673919566150a8",
                    "uncleHash": "0x1dcc4de8dec75d7aab85b567b6ccd41ad312451b948a7413f0a142fd40d49347",
                    "coinbase": "0x2adc25665018aa1fe0e6bc666dac8fc2697ff9ba",
                    "stateRoot": "0xb400269994347bd569c8dd6a0659c389fbf84e7f7e8f524ac5028b34f38b70ce",
                    "transactionsTrie": "0xf3135d021a17f1cf4b7802c7025ce8a77d444059048bdb68c3ee373aca5a8ca0",
                    "receiptTrie": "0x50f7ae72fb43e517c91003a2ec6a3efe495dfd6bd329de08105d7c934b0bbe50",
                    "bloom": "0x00000000000000000000000000000000000000000000000000000000000000000000000000000000000000000000000000000000000000000000000000000000000000000000000000000000000000000000000000000000000000000000000000000000000000000000000000000000000000000000000000000000000000000000000000000000000000000000000000000000000000000000000000000000000000000000000000000000000000000000000000000000000000000000000000000000000000000000000000000000000000000000000000000000000000000000000000000000000000000000000000000000000000000000000000000000",
                    "difficulty": "0x00",
                    "number": "0x01",
                    "gasLimit": "0xb2d05e00",
                    "gasUsed": "0xf9e2",
                    "timestamp": "0x03e8",
                    "extraData": "0x00",
                    "mixHash": "0x0000000000000000000000000000000000000000000000000000000000020000",
                    "nonce": "0x0000000000000000",
                    "baseFeePerGas": "0x0a",
                    "withdrawalsRoot": "0x56e81f171bcc55a6ff8345e692c0f86e5b48e01b996cadc001622fb5e363b421",
                    "blobGasUsed": "0x00",
                    "excessBlobGas": "0x00",
                    "parentBeaconBlockRoot": "0x0000000000000000000000000000000000000000000000000000000000000000",
                    "hash": "0x72182eaf66a01246f64dadc871800ca85a20b75a6c3ab9933923946512bd63fa"
                },
                "transactions": [
                    {
                        "type": "0x00",
                        "chainId": "0x01",
                        "nonce": "0x00",
                        "gasPrice": "0x0a",
                        "gasLimit": "0x0927c0",
                        "to": "0x5ee4b6a55558049d98b92269841db0f86fd1a59a",
                        "value": "0x00",
                        "data": "0x",
                        "v": "0x26",
                        "r": "0xd85d3773ea7c386970986672f5c82c9744a17bfca98f667e1a6fc90a7ee6643d",
                        "s": "0x20c275184d3e08839ed0779695a603de579b45c78dc75a9ff52f9c4f6a991dbe",
                        "sender": "0xebaf50debf10e08302fe4280c32df010463ca297"
                    }
                ],
                "uncleHeaders": [],
                "withdrawals": [],
                "receipts": [
                    {
                        "transactionHash": "0xf40029ecb1ec2ea157979c31ef92b4dd5f45360282ced39270d7779882bdd0c2",
                        "type": "0x00",
                        "cumulativeGasUsed": "0xf9e2",
                        "bloom": "0x00000000000000000000000000000000000000000000000000000000000000000000000000000000000000000000000000000000000000000000000000000000000000000000000000000000000000000000000000000000000000000000000000000000000000000000000000000000000000000000000000000000000000000000000000000000000000000000000000000000000000000000000000000000000000000000000000000000000000000000000000000000000000000000000000000000000000000000000000000000000000000000000000000000000000000000000000000000000000000000000000000000000000000000000000000000",
                        "logs": [],
                        "status": true,
                        "rlp": "0xf901080182f9e2b9010000000000000000000000000000000000000000000000000000000000000000000000000000000000000000000000000000000000000000000000000000000000000000000000000000000000000000000000000000000000000000000000000000000000000000000000000000000000000000000000000000000000000000000000000000000000000000000000000000000000000000000000000000000000000000000000000000000000000000000000000000000000000000000000000000000000000000000000000000000000000000000000000000000000000000000000000000000000000000000000000000000000000000000000000000000000c0"
                    }
                ],
                "rlp": "0xf902a3f9023aa074b0c2a58b472f41636e1491851c47ab764d30bc4890845263673919566150a8a01dcc4de8dec75d7aab85b567b6ccd41ad312451b948a7413f0a142fd40d49347942adc25665018aa1fe0e6bc666dac8fc2697ff9baa0b400269994347bd569c8dd6a0659c389fbf84e7f7e8f524ac5028b34f38b70cea0f3135d021a17f1cf4b7802c7025ce8a77d444059048bdb68c3ee373aca5a8ca0a050f7ae72fb43e517c91003a2ec6a3efe495dfd6bd329de08105d7c934b0bbe50b9010000000000000000000000000000000000000000000000000000000000000000000000000000000000000000000000000000000000000000000000000000000000000000000000000000000000000000000000000000000000000000000000000000000000000000000000000000000000000000000000000000000000000000000000000000000000000000000000000000000000000000000000000000000000000000000000000000000000000000000000000000000000000000000000000000000000000000000000000000000000000000000000000000000000000000000000000000000000000000000000000000000000000000000000000000000000800184b2d05e0082f9e28203e800a000000000000000000000000000000000000000000000000000000000000200008800000000000000000aa056e81f171bcc55a6ff8345e692c0f86e5b48e01b996cadc001622fb5e363b4218080a00000000000000000000000000000000000000000000000000000000000000000f862f860800a830927c0945ee4b6a55558049d98b92269841db0f86fd1a59a808026a0d85d3773ea7c386970986672f5c82c9744a17bfca98f667e1a6fc90a7ee6643da020c275184d3e08839ed0779695a603de579b45c78dc75a9ff52f9c4f6a991dbec0c0",
                "blocknumber": "1"
            }
        ],
        "sealEngine": "NoProof",
        "_info": {
            "hash": "0x253f5dc7ea5e0d991f0642928e8d635549276b3ec93b9bbb0928864ab4a01d7a",
            "fixture-format": "blockchain_test",
            "comment": "`execution-specs` generated test",
            "filling-transition-tool": "2.19.0",
            "description": "Test_static_callcallcallcode_abcb_recursive.",
            "url": "https://github.com/ethereum/execution-specs/blob/tests-bal@v5.7.0/tests/ported_static/stStaticCall/test_static_callcallcallcode_abcb_recursive.py#L25",
            "metadata": {
                "opcode_count": {}
            }
        }
    }
}