{
    "tests/ported_static/stStaticCall/test_static_callcallcallcode_abcb_recursive.py::test_static_callcallcallcode_abcb_recursive[fork_Cancun-blockchain_test_from_state_test]": {
        "network": "Cancun",
        "genesisBlockHeader": {
            "parentHash": "0x0000000000000000000000000000000000000000000000000000000000000000",
            "uncleHash": "0x1dcc4de8dec75d7aab85b567b6ccd41ad312451b948a7413f0a142fd40d49347",
            "coinbase": "0x0000000000000000000000000000000000000000",
            "stateRoot": "0x5ef290349d4fb7b8c8471bfb92eba222dc583e0634bf1553373a013f8e35e817",
            "transactionsTrie": "0x56e81f171bcc55a6ff8345e692c0f86e5b48e01b996cadc001622fb5e363b421",
            "receiptTrie": "0x56e81f171bcc55a6ff8345e692c0f86e5b48e01b996cadc001622fb5e363b421",
            "bloom": "0x00000000000000000000000000000000000000000000000000000000000000000000000000000000000000000000000000000000000000000000000000000000000000000000000000000000000000000000000000000000000000000000000000000000000000000000000000000000000000000000000000000000000000000000000000000000000000000000000000000000000000000000000000000000000000000000000000000000000000000000000000000000000000000000000000000000000000000000000000000000000000000000000000000000000000000000000000000000000000000000000000000000000000000000000000000000",
            "difficulty": "0x00",
            "number": "0x00",
            "gasLimit": "0xb2d05e00",
            "gasUsed": "0x00",
            "timestamp": "0x00",
            "extraData": "0x00",
            "mixHash": "0x0000000000000000000000000000000000000000000000000000000000000000",
            "nonce": "0x0000000000000000",
            "baseFeePerGas": "0x0b",
            "withdrawalsRoot": "0x56e81f171bcc55a6ff8345e692c0f86e5b48e01b996cadc001622fb5e363b421",
            "blobGasUsed": "0x00",
            "excessBlobGas": "0x00",
            "parentBeaconBlockRoot": "0x0000000000000000000000000000000000000000000000000000000000000000",
            "hash": "0x43f6c4269673910960ea34abb0f2b8c92a74c061af7f782954ac989594844d43"
        },
        "pre": {
            "0x000f3df6d732807ef1319fb7b8bb8522d0beac02": {
                "nonce": "0x01",
                "balance": "0x00",
                "code": "0x3373fffffffffffffffffffffffffffffffffffffffe14604d57602036146024575f5ffd5b5f35801560495762001fff810690815414603c575f5ffd5b62001fff01545f5260205ff35b5f5ffd5b62001fff42064281555f359062001fff015500",
                "storage": {}
            },
            "0xd66f224cbd2fabb21b17bb53c56118f32f62ebd6": {
                "nonce": "0x00",
                "balance": "0x0de0b6b3a7640000",
                "code": "0x",
                "storage": {}
            },
            "0x5ee4b6a55558049d98b92269841db0f86fd1a59a": {
                "nonce": "0x00",
                "balance": "0x0de0b6b3a7640000",
                "code": "0x600160015260406000604060007334baf5e282fcbde0d147efd6f95e606cc8c2748563017d7840fa506001601f5200",
                "storage": {}
            },
            "0x34baf5e282fcbde0d147efd6f95e606cc8c27485": {
                "nonce": "0x00",
                "balance": "0x02540be400",
                "code": "0x6001600152604060006040600073458e20b622ec33a82f2a43a90edc52a429639916620f4240fa506001601f5200",
                "storage": {}
            },
            "0x458e20b622ec33a82f2a43a90edc52a429639916": {
                "nonce": "0x00",
                "balance": "0x02540be400",
                "code": "0x600160015260406000604060007334baf5e282fcbde0d147efd6f95e606cc8c274856207a120f450600160155200",
                "storage": {}
            }
        },
        "postState": {
            "0x000f3df6d732807ef1319fb7b8bb8522d0beac02": {
                "nonce": "0x01",
                "balance": "0x00",
                "code": "0x3373fffffffffffffffffffffffffffffffffffffffe14604d57602036146024575f5ffd5b5f35801560495762001fff810690815414603c575f5ffd5b62001fff01545f5260205ff35b5f5ffd5b62001fff42064281555f359062001fff015500",
                "storage": {
                    "0x03e8": "0x03e8"
                }
            },
            "0xd66f224cbd2fabb21b17bb53c56118f32f62ebd6": {
                "nonce": "0x01",
                "balance": "0x0de0b6b3a75a3d2c",
                "code": "0x",
                "storage": {}
            },
            "0x5ee4b6a55558049d98b92269841db0f86fd1a59a": {
                "nonce": "0x00",
                "balance": "0x0de0b6b3a7640000",
                "code": "0x600160015260406000604060007334baf5e282fcbde0d147efd6f95e606cc8c2748563017d7840fa506001601f5200",
                "storage": {}
            },
            "0x34baf5e282fcbde0d147efd6f95e606cc8c27485": {
                "nonce": "0x00",
                "balance": "0x02540be400",
                "code": "0x6001600152604060006040600073458e20b622ec33a82f2a43a90edc52a429639916620f4240fa506001601f5200",
                "storage": {}
            },
            "0x458e20b622ec33a82f2a43a90edc52a429639916": {
                "nonce": "0x00",
                "balance": "0x02540be400",
                "code": "0x600160015260406000604060007334baf5e282fcbde0d147efd6f95e606cc8c274856207a120f450600160155200",
                "storage": {}
            }
        },
        "lastblockhash": "0x4678925370133e5eec82917d7adde9fa4576815e88a06c96cff74be42485f2b1",
        "config": {
            "network": "Cancun",
            "chainid": "0x01",
            "blobSchedule": {
                "Cancun": {
                    "target": "0x03",
                    "max": "0x06",
                    "baseFeeUpdateFraction": "0x32f0ed"
                }
            }
        },
        "genesisRLP": "0xf9023cf90236a00000000000000000000000000000000000000000000000000000000000000000a01dcc4de8dec75d7aab85b567b6ccd41ad312451b948a7413f0a142fd40d49347940000000000000000000000000000000000000000a05ef290349d4fb7b8c8471bfb92eba222dc583e0634bf1553373a013f8e35e817a056e81f171bcc55a6ff8345e692c0f86e5b48e01b996cadc001622fb5e363b421a056e81f171bcc55a6ff8345e692c0f86e5b48e01b996cadc001622fb5e363b421b9010000000000000000000000000000000000000000000000000000000000000000000000000000000000000000000000000000000000000000000000000000000000000000000000000000000000000000000000000000000000000000000000000000000000000000000000000000000000000000000000000000000000000000000000000000000000000000000000000000000000000000000000000000000000000000000000000000000000000000000000000000000000000000000000000000000000000000000000000000000000000000000000000000000000000000000000000000000000000000000000000000000000000000000000000000000000808084b2d05e00808000a000000000000000000000000000000000000000000000000000000000000000008800000000000000000ba056e81f171bcc55a6ff8345e692c0f86e5b48e01b996cadc001622fb5e363b4218080a00000000000000000000000000000000000000000000000000000000000000000c0c0c0",
        "blocks": [
            {
                "blockHeader": {
                    "parentHash": "0x43f6c4269673910960ea34abb0f2b8c92a74c061af7f782954ac989594844d43",
                    "uncleHash": "0x1dcc4de8dec75d7aab85b567b6ccd41ad312451b948a7413f0a142fd40d49347",
                    "coinbase": "0x2adc25665018aa1fe0e6bc666dac8fc2697ff9ba",
                    "stateRoot": "0x983321fed2220a3fedaaff7ce3c781d335e843cf3df80e2c17d2b0e8d14a3540",
                    "transactionsTrie": "0x8316edc14e73eb8021c42ef74fe4275bd41aafadcdd46d0eb89945cae0ebbac2",
                    "receiptTrie": "0x50f7ae72fb43e517c91003a2ec6a3efe495dfd6bd329de08105d7c934b0bbe50",
                    "bloom": "0x00000000000000000000000000000000000000000000000000000000000000000000000000000000000000000000000000000000000000000000000000000000000000000000000000000000000000000000000000000000000000000000000000000000000000000000000000000000000000000000000000000000000000000000000000000000000000000000000000000000000000000000000000000000000000000000000000000000000000000000000000000000000000000000000000000000000000000000000000000000000000000000000000000000000000000000000000000000000000000000000000000000000000000000000000000000",
                    "difficulty": "0x00",
                    "number": "0x01",
                    "gasLimit": "0xb2d05e00",
                    "gasUsed": "0xf9e2",
                    "timestamp": "0x03e8",
                    "extraData": "0x00",
                    "mixHash": "0x0000000000000000000000000000000000000000000000000000000000020000",
                    "nonce": "0x0000000000000000",
                    "baseFeePerGas": "0x0a",
                    "withdrawalsRoot": "0x56e81f171bcc55a6ff8345e692c0f86e5b48e01b996cadc001622fb5e363b421",
                    "blobGasUsed": "0x00",
                    "excessBlobGas": "0x00",
                    "parentBeaconBlockRoot": "0x0000000000000000000000000000000000000000000000000000000000000000",
                    "hash": "0x4678925370133e5eec82917d7adde9fa4576815e88a06c96cff74be42485f2b1"
                },
                "transactions": [
                    {
                        "type": "0x00",
                        "chainId": "0x01",
                        "nonce": "0x00",
                        "gasPrice": "0x0a",
                        "gasLimit": "0x0927c0",
                        "to": "0x5ee4b6a55558049d98b92269841db0f86fd1a59a",
                        "value": "0x00",
                        "data": "0x",
                        "v": "0x25",
                        "r": "0x68209880ff76008a14435c0abf47d2c8768d61fbe293f14f7ef2b4200f16dbaa",
                        "s": "0x4b1e87a95c805712d4bff972ddbb34069522b831dada1125e68d445f84ae2de2",
                        "sender": "0xd66f224cbd2fabb21b17bb53c56118f32f62ebd6"
                    }
                ],
                "uncleHeaders": [],
                "withdrawals": [],
                "receipts": [
                    {
                        "transactionHash": "0x4b2abd224c40d6224720b3d21957c947e2335bab9cf0c552dfe13f522a925123",
                        "type": "0x00",
                        "cumulativeGasUsed": "0xf9e2",
                        "bloom": "0x00000000000000000000000000000000000000000000000000000000000000000000000000000000000000000000000000000000000000000000000000000000000000000000000000000000000000000000000000000000000000000000000000000000000000000000000000000000000000000000000000000000000000000000000000000000000000000000000000000000000000000000000000000000000000000000000000000000000000000000000000000000000000000000000000000000000000000000000000000000000000000000000000000000000000000000000000000000000000000000000000000000000000000000000000000000",
                        "logs": [],
                        "status": true,
                        "rlp": "0xf901080182f9e2b9010000000000000000000000000000000000000000000000000000000000000000000000000000000000000000000000000000000000000000000000000000000000000000000000000000000000000000000000000000000000000000000000000000000000000000000000000000000000000000000000000000000000000000000000000000000000000000000000000000000000000000000000000000000000000000000000000000000000000000000000000000000000000000000000000000000000000000000000000000000000000000000000000000000000000000000000000000000000000000000000000000000000000000000000000000000000c0"
                    }
                ],
                "rlp": "0xf902a3f9023aa043f6c4269673910960ea34abb0f2b8c92a74c061af7f782954ac989594844d43a01dcc4de8dec75d7aab85b567b6ccd41ad312451b948a7413f0a142fd40d49347942adc25665018aa1fe0e6bc666dac8fc2697ff9baa0983321fed2220a3fedaaff7ce3c781d335e843cf3df80e2c17d2b0e8d14a3540a08316edc14e73eb8021c42ef74fe4275bd41aafadcdd46d0eb89945cae0ebbac2a050f7ae72fb43e517c91003a2ec6a3efe495dfd6bd329de08105d7c934b0bbe50b9010000000000000000000000000000000000000000000000000000000000000000000000000000000000000000000000000000000000000000000000000000000000000000000000000000000000000000000000000000000000000000000000000000000000000000000000000000000000000000000000000000000000000000000000000000000000000000000000000000000000000000000000000000000000000000000000000000000000000000000000000000000000000000000000000000000000000000000000000000000000000000000000000000000000000000000000000000000000000000000000000000000000000000000000000000000000800184b2d05e0082f9e28203e800a000000000000000000000000000000000000000000000000000000000000200008800000000000000000aa056e81f171bcc55a6ff8345e692c0f86e5b48e01b996cadc001622fb5e363b4218080a00000000000000000000000000000000000000000000000000000000000000000f862f860800a830927c0945ee4b6a55558049d98b92269841db0f86fd1a59a808025a068209880ff76008a14435c0abf47d2c8768d61fbe293f14f7ef2b4200f16dbaaa04b1e87a95c805712d4bff972ddbb34069522b831dada1125e68d445f84ae2de2c0c0",
                "blocknumber": "1"
            }
        ],
        "sealEngine": "NoProof",
        "_info": {
            "hash": "0x0084926f3aa1957243d0b0ffb41c46d5af8a5ebdc931e39303d10bbf0c0baa1e",
            "fixture-format": "blockchain_test",
            "comment": "`execution-specs` generated test",
            "filling-transition-tool": "2.19.0",
            "description": "Test_static_callcallcallcode_abcb_recursive.",
            "url": "https://github.com/ethereum/execution-specs/blob/tests-snobal-devnet-5@v8037.0.0/tests/ported_static/stStaticCall/test_static_callcallcallcode_abcb_recursive.py#L24",
            "metadata": {
                "opcode_count": {}
            }
        }
    }
}