{
    "tests/ported_static/stEIP150singleCodeGasPrices/test_raw_call_gas.py::test_raw_call_gas[fork_Cancun-blockchain_test_from_state_test]": {
        "network": "Cancun",
        "genesisBlockHeader": {
            "parentHash": "0x0000000000000000000000000000000000000000000000000000000000000000",
            "uncleHash": "0x1dcc4de8dec75d7aab85b567b6ccd41ad312451b948a7413f0a142fd40d49347",
            "coinbase": "0x0000000000000000000000000000000000000000",
            "stateRoot": "0x30338abf0640e1309ecf8b43ba79d2505c521f50164d2f78a84ba85a4c9e9acc",
            "transactionsTrie": "0x56e81f171bcc55a6ff8345e692c0f86e5b48e01b996cadc001622fb5e363b421",
            "receiptTrie": "0x56e81f171bcc55a6ff8345e692c0f86e5b48e01b996cadc001622fb5e363b421",
            "bloom": "0x00000000000000000000000000000000000000000000000000000000000000000000000000000000000000000000000000000000000000000000000000000000000000000000000000000000000000000000000000000000000000000000000000000000000000000000000000000000000000000000000000000000000000000000000000000000000000000000000000000000000000000000000000000000000000000000000000000000000000000000000000000000000000000000000000000000000000000000000000000000000000000000000000000000000000000000000000000000000000000000000000000000000000000000000000000000",
            "difficulty": "0x00",
            "number": "0x00",
            "gasLimit": "0x989680",
            "gasUsed": "0x00",
            "timestamp": "0x00",
            "extraData": "0x00",
            "mixHash": "0x0000000000000000000000000000000000000000000000000000000000000000",
            "nonce": "0x0000000000000000",
            "baseFeePerGas": "0x0b",
            "withdrawalsRoot": "0x56e81f171bcc55a6ff8345e692c0f86e5b48e01b996cadc001622fb5e363b421",
            "blobGasUsed": "0x00",
            "excessBlobGas": "0x00",
            "parentBeaconBlockRoot": "0x0000000000000000000000000000000000000000000000000000000000000000",
            "hash": "0x1a68e5009d070c9a2313a1afe5464e3b5f8c48e3e8fa3541f999bced30544dd5"
        },
        "pre": {
            "0x000f3df6d732807ef1319fb7b8bb8522d0beac02": {
                "nonce": "0x01",
                "balance": "0x00",
                "code": "0x3373fffffffffffffffffffffffffffffffffffffffe14604d57602036146024575f5ffd5b5f35801560495762001fff810690815414603c575f5ffd5b62001fff01545f5260205ff35b5f5ffd5b62001fff42064281555f359062001fff015500",
                "storage": {}
            },
            "0xe497cd0909c3691e0b6d2a42e26f36696fc27ba5": {
                "nonce": "0x00",
                "balance": "0x00",
                "code": "0x5a60025500",
                "storage": {}
            },
            "0xfaa10b404ab607779993c016cd5da73ae1f29d7e": {
                "nonce": "0x00",
                "balance": "0xe8d4a51000",
                "code": "0x",
                "storage": {}
            },
            "0x7541fd15b3cbf59ffe4c9fa7303c5a98c7c2aefd": {
                "nonce": "0x00",
                "balance": "0x00",
                "code": "0x5a6000526000600060006000600073e497cd0909c3691e0b6d2a42e26f36696fc27ba5617530f1505a6000510360015500",
                "storage": {}
            }
        },
        "postState": {
            "0x000f3df6d732807ef1319fb7b8bb8522d0beac02": {
                "nonce": "0x01",
                "balance": "0x00",
                "code": "0x3373fffffffffffffffffffffffffffffffffffffffe14604d57602036146024575f5ffd5b5f35801560495762001fff810690815414603c575f5ffd5b62001fff01545f5260205ff35b5f5ffd5b62001fff42064281555f359062001fff015500",
                "storage": {
                    "0x03e8": "0x03e8"
                }
            },
            "0xe497cd0909c3691e0b6d2a42e26f36696fc27ba5": {
                "nonce": "0x00",
                "balance": "0x00",
                "code": "0x5a60025500",
                "storage": {
                    "0x02": "0x752e"
                }
            },
            "0xfaa10b404ab607779993c016cd5da73ae1f29d7e": {
                "nonce": "0x01",
                "balance": "0xe8d49ab57e",
                "code": "0x",
                "storage": {}
            },
            "0x7541fd15b3cbf59ffe4c9fa7303c5a98c7c2aefd": {
                "nonce": "0x00",
                "balance": "0x00",
                "code": "0x5a6000526000600060006000600073e497cd0909c3691e0b6d2a42e26f36696fc27ba5617530f1505a6000510360015500",
                "storage": {
                    "0x01": "0x60a3"
                }
            }
        },
        "lastblockhash": "0xdb6c4f5df8fe590b40a7be2f1f845944d468721ea0e43a9147f2f6e943de3a23",
        "config": {
            "network": "Cancun",
            "chainid": "0x01",
            "blobSchedule": {
                "Cancun": {
                    "target": "0x03",
                    "max": "0x06",
                    "baseFeeUpdateFraction": "0x32f0ed"
                }
            }
        },
        "genesisRLP": "0xf9023bf90235a00000000000000000000000000000000000000000000000000000000000000000a01dcc4de8dec75d7aab85b567b6ccd41ad312451b948a7413f0a142fd40d49347940000000000000000000000000000000000000000a030338abf0640e1309ecf8b43ba79d2505c521f50164d2f78a84ba85a4c9e9acca056e81f171bcc55a6ff8345e692c0f86e5b48e01b996cadc001622fb5e363b421a056e81f171bcc55a6ff8345e692c0f86e5b48e01b996cadc001622fb5e363b421b9010000000000000000000000000000000000000000000000000000000000000000000000000000000000000000000000000000000000000000000000000000000000000000000000000000000000000000000000000000000000000000000000000000000000000000000000000000000000000000000000000000000000000000000000000000000000000000000000000000000000000000000000000000000000000000000000000000000000000000000000000000000000000000000000000000000000000000000000000000000000000000000000000000000000000000000000000000000000000000000000000000000000000000000000000000000000808083989680808000a000000000000000000000000000000000000000000000000000000000000000008800000000000000000ba056e81f171bcc55a6ff8345e692c0f86e5b48e01b996cadc001622fb5e363b4218080a00000000000000000000000000000000000000000000000000000000000000000c0c0c0",
        "blocks": [
            {
                "blockHeader": {
                    "parentHash": "0x1a68e5009d070c9a2313a1afe5464e3b5f8c48e3e8fa3541f999bced30544dd5",
                    "uncleHash": "0x1dcc4de8dec75d7aab85b567b6ccd41ad312451b948a7413f0a142fd40d49347",
                    "coinbase": "0x2adc25665018aa1fe0e6bc666dac8fc2697ff9ba",
                    "stateRoot": "0x0ec832a608c205e6092f34abeab0f53f430dd70fbbcf87e6e4a427ec30c8d2ec",
                    "transactionsTrie": "0x834ff0716a7bfcee086641f4d7a1c220efe3851a3eb0071601edfd134c4717af",
                    "receiptTrie": "0x79c381f43cbc5bf41e882025bc24dc587fff9c12c5a9dac807b9bd1a9d131ef5",
                    "bloom": "0x00000000000000000000000000000000000000000000000000000000000000000000000000000000000000000000000000000000000000000000000000000000000000000000000000000000000000000000000000000000000000000000000000000000000000000000000000000000000000000000000000000000000000000000000000000000000000000000000000000000000000000000000000000000000000000000000000000000000000000000000000000000000000000000000000000000000000000000000000000000000000000000000000000000000000000000000000000000000000000000000000000000000000000000000000000000",
                    "difficulty": "0x00",
                    "number": "0x01",
                    "gasLimit": "0x989680",
                    "gasUsed": "0x01090d",
                    "timestamp": "0x03e8",
                    "extraData": "0x00",
                    "mixHash": "0x0000000000000000000000000000000000000000000000000000000000020000",
                    "nonce": "0x0000000000000000",
                    "baseFeePerGas": "0x0a",
                    "withdrawalsRoot": "0x56e81f171bcc55a6ff8345e692c0f86e5b48e01b996cadc001622fb5e363b421",
                    "blobGasUsed": "0x00",
                    "excessBlobGas": "0x00",
                    "parentBeaconBlockRoot": "0x0000000000000000000000000000000000000000000000000000000000000000",
                    "hash": "0xdb6c4f5df8fe590b40a7be2f1f845944d468721ea0e43a9147f2f6e943de3a23"
                },
                "transactions": [
                    {
                        "type": "0x00",
                        "chainId": "0x01",
                        "nonce": "0x00",
                        "gasPrice": "0x0a",
                        "gasLimit": "0x07a120",
                        "to": "0x7541fd15b3cbf59ffe4c9fa7303c5a98c7c2aefd",
                        "value": "0x00",
                        "data": "0x",
                        "v": "0x25",
                        "r": "0x13325c0502bb0422cd3e33aed0451f01cbfdc33370f6d5a547fcb4b607faf8fc",
                        "s": "0x3040b2dd5d9832ff2504f1c0f392c770d2aed5031c194f6d1d6665d0c5e8197b",
                        "sender": "0xfaa10b404ab607779993c016cd5da73ae1f29d7e"
                    }
                ],
                "uncleHeaders": [],
                "withdrawals": [],
                "receipts": [
                    {
                        "transactionHash": "0x65592f6242595973ac96649ffd69059ea76775d258e9d9b5f9e03512c4b1f66a",
                        "type": "0x00",
                        "cumulativeGasUsed": "0x01090d",
                        "bloom": "0x00000000000000000000000000000000000000000000000000000000000000000000000000000000000000000000000000000000000000000000000000000000000000000000000000000000000000000000000000000000000000000000000000000000000000000000000000000000000000000000000000000000000000000000000000000000000000000000000000000000000000000000000000000000000000000000000000000000000000000000000000000000000000000000000000000000000000000000000000000000000000000000000000000000000000000000000000000000000000000000000000000000000000000000000000000000",
                        "logs": [],
                        "status": true,
                        "rlp": "0xf90109018301090db9010000000000000000000000000000000000000000000000000000000000000000000000000000000000000000000000000000000000000000000000000000000000000000000000000000000000000000000000000000000000000000000000000000000000000000000000000000000000000000000000000000000000000000000000000000000000000000000000000000000000000000000000000000000000000000000000000000000000000000000000000000000000000000000000000000000000000000000000000000000000000000000000000000000000000000000000000000000000000000000000000000000000000000000000000000000000c0"
                    }
                ],
                "rlp": "0xf902a3f9023aa01a68e5009d070c9a2313a1afe5464e3b5f8c48e3e8fa3541f999bced30544dd5a01dcc4de8dec75d7aab85b567b6ccd41ad312451b948a7413f0a142fd40d49347942adc25665018aa1fe0e6bc666dac8fc2697ff9baa00ec832a608c205e6092f34abeab0f53f430dd70fbbcf87e6e4a427ec30c8d2eca0834ff0716a7bfcee086641f4d7a1c220efe3851a3eb0071601edfd134c4717afa079c381f43cbc5bf41e882025bc24dc587fff9c12c5a9dac807b9bd1a9d131ef5b90100000000000000000000000000000000000000000000000000000000000000000000000000000000000000000000000000000000000000000000000000000000000000000000000000000000000000000000000000000000000000000000000000000000000000000000000000000000000000000000000000000000000000000000000000000000000000000000000000000000000000000000000000000000000000000000000000000000000000000000000000000000000000000000000000000000000000000000000000000000000000000000000000000000000000000000000000000000000000000000000000000000000000000000000000000000008001839896808301090d8203e800a000000000000000000000000000000000000000000000000000000000000200008800000000000000000aa056e81f171bcc55a6ff8345e692c0f86e5b48e01b996cadc001622fb5e363b4218080a00000000000000000000000000000000000000000000000000000000000000000f862f860800a8307a120947541fd15b3cbf59ffe4c9fa7303c5a98c7c2aefd808025a013325c0502bb0422cd3e33aed0451f01cbfdc33370f6d5a547fcb4b607faf8fca03040b2dd5d9832ff2504f1c0f392c770d2aed5031c194f6d1d6665d0c5e8197bc0c0",
                "blocknumber": "1"
            }
        ],
        "sealEngine": "NoProof",
        "_info": {
            "hash": "0xe9634bd0d4fd49ff0964437b717ae78894180b5faf60b49a197c4d785c491a2a",
            "fixture-format": "blockchain_test",
            "comment": "`execution-specs` generated test",
            "filling-transition-tool": "2.19.0",
            "description": "Test_raw_call_gas.",
            "url": "https://github.com/ethereum/execution-specs/blob/tests-bal@v5.6.0/tests/ported_static/stEIP150singleCodeGasPrices/test_raw_call_gas.py#L25",
            "metadata": {
                "opcode_count": {}
            },
            "reference-spec": "https://github.com/ethereum/EIPs/blob/master/N/A",
            "reference-spec-version": "N/A"
        }
    }
}