{
    "tests/static/state_tests/stEIP158Specific/CALL_OneVCallSuicide2Filler.json::CALL_OneVCallSuicide2[fork_Cancun-blockchain_test_from_state_test-]": {
        "network": "Cancun",
        "genesisBlockHeader": {
            "parentHash": "0x0000000000000000000000000000000000000000000000000000000000000000",
            "uncleHash": "0x1dcc4de8dec75d7aab85b567b6ccd41ad312451b948a7413f0a142fd40d49347",
            "coinbase": "0x0000000000000000000000000000000000000000",
            "stateRoot": "0xf63da73beee3924fabcd337558abfddb7e713f1bfccb33a1665e9976d2492808",
            "transactionsTrie": "0x56e81f171bcc55a6ff8345e692c0f86e5b48e01b996cadc001622fb5e363b421",
            "receiptTrie": "0x56e81f171bcc55a6ff8345e692c0f86e5b48e01b996cadc001622fb5e363b421",
            "bloom": "0x00000000000000000000000000000000000000000000000000000000000000000000000000000000000000000000000000000000000000000000000000000000000000000000000000000000000000000000000000000000000000000000000000000000000000000000000000000000000000000000000000000000000000000000000000000000000000000000000000000000000000000000000000000000000000000000000000000000000000000000000000000000000000000000000000000000000000000000000000000000000000000000000000000000000000000000000000000000000000000000000000000000000000000000000000000000",
            "difficulty": "0x00",
            "number": "0x00",
            "gasLimit": "0x989680",
            "gasUsed": "0x00",
            "timestamp": "0x00",
            "extraData": "0x00",
            "mixHash": "0x0000000000000000000000000000000000000000000000000000000000000000",
            "nonce": "0x0000000000000000",
            "baseFeePerGas": "0x0b",
            "withdrawalsRoot": "0x56e81f171bcc55a6ff8345e692c0f86e5b48e01b996cadc001622fb5e363b421",
            "blobGasUsed": "0x00",
            "excessBlobGas": "0x00",
            "parentBeaconBlockRoot": "0x0000000000000000000000000000000000000000000000000000000000000000",
            "hash": "0x6abc5e2d81885288c4b2d9b5bd214f76dfbb8d5caa7dab7d4d475bd2ad68caab"
        },
        "pre": {
            "0x000f3df6d732807ef1319fb7b8bb8522d0beac02": {
                "nonce": "0x01",
                "balance": "0x00",
                "code": "0x3373fffffffffffffffffffffffffffffffffffffffe14604d57602036146024575f5ffd5b5f35801560495762001fff810690815414603c575f5ffd5b62001fff01545f5260205ff35b5f5ffd5b62001fff42064281555f359062001fff015500",
                "storage": {}
            },
            "0xeb201d2887816e041f6e807e804f64f3a7a226fe": {
                "nonce": "0x01",
                "balance": "0x00",
                "code": "0x",
                "storage": {}
            },
            "0x99378e0db04e57ae174ad69770e1b7a0aa805930": {
                "nonce": "0x00",
                "balance": "0x00",
                "code": "0x73eb201d2887816e041f6e807e804f64f3a7a226feff00",
                "storage": {}
            },
            "0xea04224539257fbe043981aa6058fbc1d5e21b1a": {
                "nonce": "0x00",
                "balance": "0x64",
                "code": "0x5a600052600060006000600060017399378e0db04e57ae174ad69770e1b7a0aa80593061ea60f1505a6000510360645500",
                "storage": {}
            },
            "0xfaa10b404ab607779993c016cd5da73ae1f29d7e": {
                "nonce": "0x00",
                "balance": "0xe8d4a51000",
                "code": "0x",
                "storage": {}
            }
        },
        "postState": {
            "0x000f3df6d732807ef1319fb7b8bb8522d0beac02": {
                "nonce": "0x01",
                "balance": "0x00",
                "code": "0x3373fffffffffffffffffffffffffffffffffffffffe14604d57602036146024575f5ffd5b5f35801560495762001fff810690815414603c575f5ffd5b62001fff01545f5260205ff35b5f5ffd5b62001fff42064281555f359062001fff015500",
                "storage": {
                    "0x03e8": "0x03e8"
                }
            },
            "0xeb201d2887816e041f6e807e804f64f3a7a226fe": {
                "nonce": "0x01",
                "balance": "0x01",
                "code": "0x",
                "storage": {}
            },
            "0x99378e0db04e57ae174ad69770e1b7a0aa805930": {
                "nonce": "0x00",
                "balance": "0x00",
                "code": "0x73eb201d2887816e041f6e807e804f64f3a7a226feff00",
                "storage": {}
            },
            "0xea04224539257fbe043981aa6058fbc1d5e21b1a": {
                "nonce": "0x00",
                "balance": "0x63",
                "code": "0x5a600052600060006000600060017399378e0db04e57ae174ad69770e1b7a0aa80593061ea60f1505a6000510360645500",
                "storage": {
                    "0x64": "0x4229"
                }
            },
            "0xfaa10b404ab607779993c016cd5da73ae1f29d7e": {
                "nonce": "0x01",
                "balance": "0xe8d49be642",
                "code": "0x",
                "storage": {}
            }
        },
        "lastblockhash": "0xd17183391e2c7830f3d536f8a305a681a8d5ffcef9c09881d32e0e5a722baa91",
        "config": {
            "network": "Cancun",
            "chainid": "0x01",
            "blobSchedule": {
                "Cancun": {
                    "target": "0x03",
                    "max": "0x06",
                    "baseFeeUpdateFraction": "0x32f0ed"
                }
            }
        },
        "genesisRLP": "0xf9023bf90235a00000000000000000000000000000000000000000000000000000000000000000a01dcc4de8dec75d7aab85b567b6ccd41ad312451b948a7413f0a142fd40d49347940000000000000000000000000000000000000000a0f63da73beee3924fabcd337558abfddb7e713f1bfccb33a1665e9976d2492808a056e81f171bcc55a6ff8345e692c0f86e5b48e01b996cadc001622fb5e363b421a056e81f171bcc55a6ff8345e692c0f86e5b48e01b996cadc001622fb5e363b421b9010000000000000000000000000000000000000000000000000000000000000000000000000000000000000000000000000000000000000000000000000000000000000000000000000000000000000000000000000000000000000000000000000000000000000000000000000000000000000000000000000000000000000000000000000000000000000000000000000000000000000000000000000000000000000000000000000000000000000000000000000000000000000000000000000000000000000000000000000000000000000000000000000000000000000000000000000000000000000000000000000000000000000000000000000000000000808083989680808000a000000000000000000000000000000000000000000000000000000000000000008800000000000000000ba056e81f171bcc55a6ff8345e692c0f86e5b48e01b996cadc001622fb5e363b4218080a00000000000000000000000000000000000000000000000000000000000000000c0c0c0",
        "blocks": [
            {
                "blockHeader": {
                    "parentHash": "0x6abc5e2d81885288c4b2d9b5bd214f76dfbb8d5caa7dab7d4d475bd2ad68caab",
                    "uncleHash": "0x1dcc4de8dec75d7aab85b567b6ccd41ad312451b948a7413f0a142fd40d49347",
                    "coinbase": "0x2adc25665018aa1fe0e6bc666dac8fc2697ff9ba",
                    "stateRoot": "0x529281bf4b80872825ed22d162a780687a971ffb053a7ef02bc97285d3e5b087",
                    "transactionsTrie": "0x17ae865b0cf2e81c50ddf8e00d7ba4450bd25860d19cf2736df0878b61443664",
                    "receiptTrie": "0x5abaa8ece130f30ab9d7472cb0be4813c5c68683241abb04ae2fe2dc5e24b283",
                    "bloom": "0x00000000000000000000000000000000000000000000000000000000000000000000000000000000000000000000000000000000000000000000000000000000000000000000000000000000000000000000000000000000000000000000000000000000000000000000000000000000000000000000000000000000000000000000000000000000000000000000000000000000000000000000000000000000000000000000000000000000000000000000000000000000000000000000000000000000000000000000000000000000000000000000000000000000000000000000000000000000000000000000000000000000000000000000000000000000",
                    "difficulty": "0x00",
                    "number": "0x01",
                    "gasLimit": "0x989680",
                    "gasUsed": "0xea93",
                    "timestamp": "0x03e8",
                    "extraData": "0x00",
                    "mixHash": "0x0000000000000000000000000000000000000000000000000000000000020000",
                    "nonce": "0x0000000000000000",
                    "baseFeePerGas": "0x0a",
                    "withdrawalsRoot": "0x56e81f171bcc55a6ff8345e692c0f86e5b48e01b996cadc001622fb5e363b421",
                    "blobGasUsed": "0x00",
                    "excessBlobGas": "0x00",
                    "parentBeaconBlockRoot": "0x0000000000000000000000000000000000000000000000000000000000000000",
                    "hash": "0xd17183391e2c7830f3d536f8a305a681a8d5ffcef9c09881d32e0e5a722baa91"
                },
                "transactions": [
                    {
                        "type": "0x00",
                        "chainId": "0x01",
                        "nonce": "0x00",
                        "gasPrice": "0x0a",
                        "gasLimit": "0x0927c0",
                        "to": "0xea04224539257fbe043981aa6058fbc1d5e21b1a",
                        "value": "0x00",
                        "data": "0x",
                        "v": "0x25",
                        "r": "0xe3555eadcab8ae2c5565788796ca9b0f6a8e3c595190e922964a7d7a3d9584c5",
                        "s": "0x0535771bd001ff4743c4471ebdf5157ce76606456dc098aa456e4b42f40c7a59",
                        "sender": "0xfaa10b404ab607779993c016cd5da73ae1f29d7e"
                    }
                ],
                "uncleHeaders": [],
                "withdrawals": [],
                "receipts": [
                    {
                        "transactionHash": "0xf985d72ac5a38cb16c2496ffae1e80bfb13c3561d50c24f2d18df78221df7688",
                        "type": "0x00",
                        "cumulativeGasUsed": "0xea93",
                        "bloom": "0x00000000000000000000000000000000000000000000000000000000000000000000000000000000000000000000000000000000000000000000000000000000000000000000000000000000000000000000000000000000000000000000000000000000000000000000000000000000000000000000000000000000000000000000000000000000000000000000000000000000000000000000000000000000000000000000000000000000000000000000000000000000000000000000000000000000000000000000000000000000000000000000000000000000000000000000000000000000000000000000000000000000000000000000000000000000",
                        "logs": [],
                        "status": true,
                        "rlp": "0xf901080182ea93b9010000000000000000000000000000000000000000000000000000000000000000000000000000000000000000000000000000000000000000000000000000000000000000000000000000000000000000000000000000000000000000000000000000000000000000000000000000000000000000000000000000000000000000000000000000000000000000000000000000000000000000000000000000000000000000000000000000000000000000000000000000000000000000000000000000000000000000000000000000000000000000000000000000000000000000000000000000000000000000000000000000000000000000000000000000000000c0"
                    }
                ],
                "rlp": "0xf902a2f90239a06abc5e2d81885288c4b2d9b5bd214f76dfbb8d5caa7dab7d4d475bd2ad68caaba01dcc4de8dec75d7aab85b567b6ccd41ad312451b948a7413f0a142fd40d49347942adc25665018aa1fe0e6bc666dac8fc2697ff9baa0529281bf4b80872825ed22d162a780687a971ffb053a7ef02bc97285d3e5b087a017ae865b0cf2e81c50ddf8e00d7ba4450bd25860d19cf2736df0878b61443664a05abaa8ece130f30ab9d7472cb0be4813c5c68683241abb04ae2fe2dc5e24b283b901000000000000000000000000000000000000000000000000000000000000000000000000000000000000000000000000000000000000000000000000000000000000000000000000000000000000000000000000000000000000000000000000000000000000000000000000000000000000000000000000000000000000000000000000000000000000000000000000000000000000000000000000000000000000000000000000000000000000000000000000000000000000000000000000000000000000000000000000000000000000000000000000000000000000000000000000000000000000000000000000000000000000000000000000000000000080018398968082ea938203e800a000000000000000000000000000000000000000000000000000000000000200008800000000000000000aa056e81f171bcc55a6ff8345e692c0f86e5b48e01b996cadc001622fb5e363b4218080a00000000000000000000000000000000000000000000000000000000000000000f862f860800a830927c094ea04224539257fbe043981aa6058fbc1d5e21b1a808025a0e3555eadcab8ae2c5565788796ca9b0f6a8e3c595190e922964a7d7a3d9584c5a00535771bd001ff4743c4471ebdf5157ce76606456dc098aa456e4b42f40c7a59c0c0",
                "blocknumber": "1"
            }
        ],
        "sealEngine": "NoProof",
        "_info": {
            "hash": "0x3a0424f7629bfdb8df8e8a5106b6809dd091d87919f98d8b4bd81829cb663292",
            "fixture-format": "blockchain_test",
            "comment": "`execution-specs` generated test",
            "filling-transition-tool": "2.19.0",
            "description": "No description available - add a docstring to the python test class or function.",
            "url": "",
            "opcode_count": {},
            "reference-spec": "https://github.com/ethereum/EIPs/blob/master/",
            "reference-spec-version": ""
        }
    }
}