{
    "tests/ported_static/stSystemOperationsTest/test_ab_acalls2.py::test_ab_acalls2[fork_Cancun-blockchain_test_from_state_test]": {
        "network": "Cancun",
        "genesisBlockHeader": {
            "parentHash": "0x0000000000000000000000000000000000000000000000000000000000000000",
            "uncleHash": "0x1dcc4de8dec75d7aab85b567b6ccd41ad312451b948a7413f0a142fd40d49347",
            "coinbase": "0x0000000000000000000000000000000000000000",
            "stateRoot": "0x5d368030fc7cf3915a6b9235937ab280ce7b9f1e9cf963bace659a06ff2fbc7b",
            "transactionsTrie": "0x56e81f171bcc55a6ff8345e692c0f86e5b48e01b996cadc001622fb5e363b421",
            "receiptTrie": "0x56e81f171bcc55a6ff8345e692c0f86e5b48e01b996cadc001622fb5e363b421",
            "bloom": "0x00000000000000000000000000000000000000000000000000000000000000000000000000000000000000000000000000000000000000000000000000000000000000000000000000000000000000000000000000000000000000000000000000000000000000000000000000000000000000000000000000000000000000000000000000000000000000000000000000000000000000000000000000000000000000000000000000000000000000000000000000000000000000000000000000000000000000000000000000000000000000000000000000000000000000000000000000000000000000000000000000000000000000000000000000000000",
            "difficulty": "0x00",
            "number": "0x00",
            "gasLimit": "0x02540be400",
            "gasUsed": "0x00",
            "timestamp": "0x00",
            "extraData": "0x00",
            "mixHash": "0x0000000000000000000000000000000000000000000000000000000000000000",
            "nonce": "0x0000000000000000",
            "baseFeePerGas": "0x0b",
            "withdrawalsRoot": "0x56e81f171bcc55a6ff8345e692c0f86e5b48e01b996cadc001622fb5e363b421",
            "blobGasUsed": "0x00",
            "excessBlobGas": "0x00",
            "parentBeaconBlockRoot": "0x0000000000000000000000000000000000000000000000000000000000000000",
            "hash": "0xc578827a016a55c78f0e051d7feafc2d582b0fea2f6aced517598e7c3cdb9629"
        },
        "pre": {
            "0x000f3df6d732807ef1319fb7b8bb8522d0beac02": {
                "nonce": "0x01",
                "balance": "0x00",
                "code": "0x3373fffffffffffffffffffffffffffffffffffffffe14604d57602036146024575f5ffd5b5f35801560495762001fff810690815414603c575f5ffd5b62001fff01545f5260205ff35b5f5ffd5b62001fff42064281555f359062001fff015500",
                "storage": {}
            },
            "0xc58b2120d2ad0cbfccd6ebaae6c11258aceac41b": {
                "nonce": "0x00",
                "balance": "0x0de0b6b3a7640000",
                "code": "0x6001600054016000556000600060006000600173a890ceb693666313e0a5a1be4f59f06c1e33f5c9620186a05a03f100",
                "storage": {}
            },
            "0xa890ceb693666313e0a5a1be4f59f06c1e33f5c9": {
                "nonce": "0x00",
                "balance": "0x00",
                "code": "0x6001600054016000556000600060006000600073c58b2120d2ad0cbfccd6ebaae6c11258aceac41b620186a05a03f100",
                "storage": {}
            },
            "0xebaf50debf10e08302fe4280c32df010463ca297": {
                "nonce": "0x00",
                "balance": "0x0de0b6b3a7640000",
                "code": "0x",
                "storage": {}
            }
        },
        "postState": {
            "0x000f3df6d732807ef1319fb7b8bb8522d0beac02": {
                "nonce": "0x01",
                "balance": "0x00",
                "code": "0x3373fffffffffffffffffffffffffffffffffffffffe14604d57602036146024575f5ffd5b5f35801560495762001fff810690815414603c575f5ffd5b62001fff01545f5260205ff35b5f5ffd5b62001fff42064281555f359062001fff015500",
                "storage": {
                    "0x03e8": "0x03e8"
                }
            },
            "0xc58b2120d2ad0cbfccd6ebaae6c11258aceac41b": {
                "nonce": "0x00",
                "balance": "0x0de0b6b3a76585d7",
                "code": "0x6001600054016000556000600060006000600173a890ceb693666313e0a5a1be4f59f06c1e33f5c9620186a05a03f100",
                "storage": {
                    "0x00": "0xc9"
                }
            },
            "0xa890ceb693666313e0a5a1be4f59f06c1e33f5c9": {
                "nonce": "0x00",
                "balance": "0xc9",
                "code": "0x6001600054016000556000600060006000600073c58b2120d2ad0cbfccd6ebaae6c11258aceac41b620186a05a03f100",
                "storage": {
                    "0x00": "0xc9"
                }
            },
            "0xebaf50debf10e08302fe4280c32df010463ca297": {
                "nonce": "0x01",
                "balance": "0x0de0b6b3a674eb0a",
                "code": "0x",
                "storage": {}
            }
        },
        "lastblockhash": "0x9552f451c28b3e752f3f4a153637bcd15a031738442e032383be3bf3e5a922de",
        "config": {
            "network": "Cancun",
            "chainid": "0x01",
            "blobSchedule": {
                "Cancun": {
                    "target": "0x03",
                    "max": "0x06",
                    "baseFeeUpdateFraction": "0x32f0ed"
                }
            }
        },
        "genesisRLP": "0xf9023df90237a00000000000000000000000000000000000000000000000000000000000000000a01dcc4de8dec75d7aab85b567b6ccd41ad312451b948a7413f0a142fd40d49347940000000000000000000000000000000000000000a05d368030fc7cf3915a6b9235937ab280ce7b9f1e9cf963bace659a06ff2fbc7ba056e81f171bcc55a6ff8345e692c0f86e5b48e01b996cadc001622fb5e363b421a056e81f171bcc55a6ff8345e692c0f86e5b48e01b996cadc001622fb5e363b421b901000000000000000000000000000000000000000000000000000000000000000000000000000000000000000000000000000000000000000000000000000000000000000000000000000000000000000000000000000000000000000000000000000000000000000000000000000000000000000000000000000000000000000000000000000000000000000000000000000000000000000000000000000000000000000000000000000000000000000000000000000000000000000000000000000000000000000000000000000000000000000000000000000000000000000000000000000000000000000000000000000000000000000000000000000000000080808502540be400808000a000000000000000000000000000000000000000000000000000000000000000008800000000000000000ba056e81f171bcc55a6ff8345e692c0f86e5b48e01b996cadc001622fb5e363b4218080a00000000000000000000000000000000000000000000000000000000000000000c0c0c0",
        "blocks": [
            {
                "blockHeader": {
                    "parentHash": "0xc578827a016a55c78f0e051d7feafc2d582b0fea2f6aced517598e7c3cdb9629",
                    "uncleHash": "0x1dcc4de8dec75d7aab85b567b6ccd41ad312451b948a7413f0a142fd40d49347",
                    "coinbase": "0x2adc25665018aa1fe0e6bc666dac8fc2697ff9ba",
                    "stateRoot": "0x3b766a0f867faca46858288729c245926dd3720989cc63413b0761f4ae444755",
                    "transactionsTrie": "0xabe562c758204a1080b60c81cfd5a15fb99924b7c84e8ce1122aa4fac698eb1e",
                    "receiptTrie": "0x02c7b284fa4db5f1e7ed54e01fd27eafb52b3310e9f7a8f7a7818ffc4d23a5f6",
                    "bloom": "0x00000000000000000000000000000000000000000000000000000000000000000000000000000000000000000000000000000000000000000000000000000000000000000000000000000000000000000000000000000000000000000000000000000000000000000000000000000000000000000000000000000000000000000000000000000000000000000000000000000000000000000000000000000000000000000000000000000000000000000000000000000000000000000000000000000000000000000000000000000000000000000000000000000000000000000000000000000000000000000000000000000000000000000000000000000000",
                    "difficulty": "0x00",
                    "number": "0x01",
                    "gasLimit": "0x02540be400",
                    "gasUsed": "0x17c16f",
                    "timestamp": "0x03e8",
                    "extraData": "0x00",
                    "mixHash": "0x0000000000000000000000000000000000000000000000000000000000020000",
                    "nonce": "0x0000000000000000",
                    "baseFeePerGas": "0x0a",
                    "withdrawalsRoot": "0x56e81f171bcc55a6ff8345e692c0f86e5b48e01b996cadc001622fb5e363b421",
                    "blobGasUsed": "0x00",
                    "excessBlobGas": "0x00",
                    "parentBeaconBlockRoot": "0x0000000000000000000000000000000000000000000000000000000000000000",
                    "hash": "0x9552f451c28b3e752f3f4a153637bcd15a031738442e032383be3bf3e5a922de"
                },
                "transactions": [
                    {
                        "type": "0x00",
                        "chainId": "0x01",
                        "nonce": "0x00",
                        "gasPrice": "0x0a",
                        "gasLimit": "0x3b9aca00",
                        "to": "0xc58b2120d2ad0cbfccd6ebaae6c11258aceac41b",
                        "value": "0x0186a0",
                        "data": "0x",
                        "v": "0x26",
                        "r": "0x49c2ff03e7c18402b1291752b51b008e0fa257b94c67a5c2b236386bea27ee8b",
                        "s": "0x5a003ce8f3f9f1ee5ec06644ec75ef1c4204aef53f5e432b37b517eff950c106",
                        "sender": "0xebaf50debf10e08302fe4280c32df010463ca297"
                    }
                ],
                "uncleHeaders": [],
                "withdrawals": [],
                "receipts": [
                    {
                        "transactionHash": "0x0a9b4ec629a0e36187a0c3986393aa153b72eb11338bffc8a90eb77245eecb7a",
                        "type": "0x00",
                        "cumulativeGasUsed": "0x17c16f",
                        "bloom": "0x00000000000000000000000000000000000000000000000000000000000000000000000000000000000000000000000000000000000000000000000000000000000000000000000000000000000000000000000000000000000000000000000000000000000000000000000000000000000000000000000000000000000000000000000000000000000000000000000000000000000000000000000000000000000000000000000000000000000000000000000000000000000000000000000000000000000000000000000000000000000000000000000000000000000000000000000000000000000000000000000000000000000000000000000000000000",
                        "logs": [],
                        "status": true,
                        "rlp": "0xf90109018317c16fb9010000000000000000000000000000000000000000000000000000000000000000000000000000000000000000000000000000000000000000000000000000000000000000000000000000000000000000000000000000000000000000000000000000000000000000000000000000000000000000000000000000000000000000000000000000000000000000000000000000000000000000000000000000000000000000000000000000000000000000000000000000000000000000000000000000000000000000000000000000000000000000000000000000000000000000000000000000000000000000000000000000000000000000000000000000000000c0"
                    }
                ],
                "rlp": "0xf902a9f9023ca0c578827a016a55c78f0e051d7feafc2d582b0fea2f6aced517598e7c3cdb9629a01dcc4de8dec75d7aab85b567b6ccd41ad312451b948a7413f0a142fd40d49347942adc25665018aa1fe0e6bc666dac8fc2697ff9baa03b766a0f867faca46858288729c245926dd3720989cc63413b0761f4ae444755a0abe562c758204a1080b60c81cfd5a15fb99924b7c84e8ce1122aa4fac698eb1ea002c7b284fa4db5f1e7ed54e01fd27eafb52b3310e9f7a8f7a7818ffc4d23a5f6b901000000000000000000000000000000000000000000000000000000000000000000000000000000000000000000000000000000000000000000000000000000000000000000000000000000000000000000000000000000000000000000000000000000000000000000000000000000000000000000000000000000000000000000000000000000000000000000000000000000000000000000000000000000000000000000000000000000000000000000000000000000000000000000000000000000000000000000000000000000000000000000000000000000000000000000000000000000000000000000000000000000000000000000000000000000000080018502540be4008317c16f8203e800a000000000000000000000000000000000000000000000000000000000000200008800000000000000000aa056e81f171bcc55a6ff8345e692c0f86e5b48e01b996cadc001622fb5e363b4218080a00000000000000000000000000000000000000000000000000000000000000000f866f864800a843b9aca0094c58b2120d2ad0cbfccd6ebaae6c11258aceac41b830186a08026a049c2ff03e7c18402b1291752b51b008e0fa257b94c67a5c2b236386bea27ee8ba05a003ce8f3f9f1ee5ec06644ec75ef1c4204aef53f5e432b37b517eff950c106c0c0",
                "blocknumber": "1"
            }
        ],
        "sealEngine": "NoProof",
        "_info": {
            "hash": "0xd360981c9e31ff06113302cb2191ad6b2ef0dd01b2decad773f38e6cc80a9039",
            "fixture-format": "blockchain_test",
            "comment": "`execution-specs` generated test",
            "filling-transition-tool": "2.19.0",
            "description": "Test_ab_acalls2.",
            "url": "https://github.com/ethereum/execution-specs/blob/tests-bal@v5.6.0/tests/ported_static/stSystemOperationsTest/test_ab_acalls2.py#L25",
            "metadata": {
                "opcode_count": {}
            }
        }
    }
}