{
    "tests/shanghai/eip4895_withdrawals/test_withdrawals.py::test_no_evm_execution[fork_Shanghai-blockchain_test]": {
        "network": "Shanghai",
        "genesisBlockHeader": {
            "parentHash": "0x0000000000000000000000000000000000000000000000000000000000000000",
            "uncleHash": "0x1dcc4de8dec75d7aab85b567b6ccd41ad312451b948a7413f0a142fd40d49347",
            "coinbase": "0x0000000000000000000000000000000000000000",
            "stateRoot": "0xf333664609c93c26d76311e1ca0abefb91311e41237c68bb0702cbb67e43b2bd",
            "transactionsTrie": "0x56e81f171bcc55a6ff8345e692c0f86e5b48e01b996cadc001622fb5e363b421",
            "receiptTrie": "0x56e81f171bcc55a6ff8345e692c0f86e5b48e01b996cadc001622fb5e363b421",
            "bloom": "0x00000000000000000000000000000000000000000000000000000000000000000000000000000000000000000000000000000000000000000000000000000000000000000000000000000000000000000000000000000000000000000000000000000000000000000000000000000000000000000000000000000000000000000000000000000000000000000000000000000000000000000000000000000000000000000000000000000000000000000000000000000000000000000000000000000000000000000000000000000000000000000000000000000000000000000000000000000000000000000000000000000000000000000000000000000000",
            "difficulty": "0x00",
            "number": "0x00",
            "gasLimit": "0x07270e00",
            "gasUsed": "0x00",
            "timestamp": "0x00",
            "extraData": "0x00",
            "mixHash": "0x0000000000000000000000000000000000000000000000000000000000000000",
            "nonce": "0x0000000000000000",
            "baseFeePerGas": "0x07",
            "withdrawalsRoot": "0x56e81f171bcc55a6ff8345e692c0f86e5b48e01b996cadc001622fb5e363b421",
            "hash": "0xfbd86a6d046efc2d4781136c6b1da37f41623a073457ee79bdf2c80947fc032e"
        },
        "pre": {
            "0x1ad9bc24818784172ff393bb6f89f094d4d2ca29": {
                "nonce": "0x00",
                "balance": "0x3635c9adc5dea00000",
                "code": "0x",
                "storage": {}
            },
            "0x184d2b2b043d739e2e91ce76c37e2fb13efd1279": {
                "nonce": "0x01",
                "balance": "0x00",
                "code": "0x60014355",
                "storage": {}
            },
            "0x8c97affab8bbb879265e49c1b6e306a02fda6e95": {
                "nonce": "0x01",
                "balance": "0x00",
                "code": "0x60014355",
                "storage": {}
            },
            "0x5edfa9041082339ab8cb630aa22c70992f04ba9d": {
                "nonce": "0x01",
                "balance": "0x00",
                "code": "0x60014355",
                "storage": {}
            },
            "0xe3fcdf72ad630f8d79d0565944556ffdb45b4fca": {
                "nonce": "0x01",
                "balance": "0x00",
                "code": "0x60014355",
                "storage": {}
            }
        },
        "postState": {
            "0x1ad9bc24818784172ff393bb6f89f094d4d2ca29": {
                "nonce": "0x04",
                "balance": "0x3635c9adc5de85b0d8",
                "code": "0x",
                "storage": {}
            },
            "0x184d2b2b043d739e2e91ce76c37e2fb13efd1279": {
                "nonce": "0x01",
                "balance": "0x3b9aca00",
                "code": "0x60014355",
                "storage": {
                    "0x02": "0x01"
                }
            },
            "0x8c97affab8bbb879265e49c1b6e306a02fda6e95": {
                "nonce": "0x01",
                "balance": "0x3b9aca00",
                "code": "0x60014355",
                "storage": {
                    "0x02": "0x01"
                }
            },
            "0x5edfa9041082339ab8cb630aa22c70992f04ba9d": {
                "nonce": "0x01",
                "balance": "0x3b9aca00",
                "code": "0x60014355",
                "storage": {
                    "0x01": "0x01"
                }
            },
            "0xe3fcdf72ad630f8d79d0565944556ffdb45b4fca": {
                "nonce": "0x01",
                "balance": "0x3b9aca00",
                "code": "0x60014355",
                "storage": {
                    "0x01": "0x01"
                }
            },
            "0x2adc25665018aa1fe0e6bc666dac8fc2697ff9ba": {
                "nonce": "0x00",
                "balance": "0x07e48c",
                "code": "0x",
                "storage": {}
            }
        },
        "lastblockhash": "0xfbc56b005c9dce7a71b7b69330bacaf1a9cd2c946002e00216846125cf90f7c4",
        "config": {
            "network": "Shanghai",
            "chainid": "0x01"
        },
        "genesisRLP": "0xf90219f90213a00000000000000000000000000000000000000000000000000000000000000000a01dcc4de8dec75d7aab85b567b6ccd41ad312451b948a7413f0a142fd40d49347940000000000000000000000000000000000000000a0f333664609c93c26d76311e1ca0abefb91311e41237c68bb0702cbb67e43b2bda056e81f171bcc55a6ff8345e692c0f86e5b48e01b996cadc001622fb5e363b421a056e81f171bcc55a6ff8345e692c0f86e5b48e01b996cadc001622fb5e363b421b901000000000000000000000000000000000000000000000000000000000000000000000000000000000000000000000000000000000000000000000000000000000000000000000000000000000000000000000000000000000000000000000000000000000000000000000000000000000000000000000000000000000000000000000000000000000000000000000000000000000000000000000000000000000000000000000000000000000000000000000000000000000000000000000000000000000000000000000000000000000000000000000000000000000000000000000000000000000000000000000000000000000000000000000000000000000080808407270e00808000a0000000000000000000000000000000000000000000000000000000000000000088000000000000000007a056e81f171bcc55a6ff8345e692c0f86e5b48e01b996cadc001622fb5e363b421c0c0c0",
        "blocks": [
            {
                "blockHeader": {
                    "parentHash": "0xfbd86a6d046efc2d4781136c6b1da37f41623a073457ee79bdf2c80947fc032e",
                    "uncleHash": "0x1dcc4de8dec75d7aab85b567b6ccd41ad312451b948a7413f0a142fd40d49347",
                    "coinbase": "0x2adc25665018aa1fe0e6bc666dac8fc2697ff9ba",
                    "stateRoot": "0xe917c233eacffabd13bfbb4892abd93b6aa91dcee906bc3575cc40f510f95acb",
                    "transactionsTrie": "0x8eef3a2c7258ccbf90f822f6d38ae9910d1538d34123aa66147fbf8e30038f21",
                    "receiptTrie": "0x565dbae32920fdc51f307a7eae972eed4f68bf2fa895f24169f0623ef1b6d66c",
                    "bloom": "0x00000000000000000000000000000000000000000000000000000000000000000000000000000000000000000000000000000000000000000000000000000000000000000000000000000000000000000000000000000000000000000000000000000000000000000000000000000000000000000000000000000000000000000000000000000000000000000000000000000000000000000000000000000000000000000000000000000000000000000000000000000000000000000000000000000000000000000000000000000000000000000000000000000000000000000000000000000000000000000000000000000000000000000000000000000000",
                    "difficulty": "0x00",
                    "number": "0x01",
                    "gasLimit": "0x07270e00",
                    "gasUsed": "0x0150c2",
                    "timestamp": "0x0c",
                    "extraData": "0x",
                    "mixHash": "0x0000000000000000000000000000000000000000000000000000000000000000",
                    "nonce": "0x0000000000000000",
                    "baseFeePerGas": "0x07",
                    "withdrawalsRoot": "0xb5e20a3db706e11bd893ac6a10beebbf2cdebad3afe4d1fbe0dccecf485080b9",
                    "hash": "0x1c6d74bd703849f4830cb3bf6dc8d50df003d4c2f10b8d036e69844cb47f5ebe"
                },
                "transactions": [
                    {
                        "type": "0x00",
                        "chainId": "0x01",
                        "nonce": "0x00",
                        "gasPrice": "0x0a",
                        "gasLimit": "0x0186a0",
                        "to": "0x5edfa9041082339ab8cb630aa22c70992f04ba9d",
                        "value": "0x00",
                        "data": "0x",
                        "v": "0x25",
                        "r": "0xbf1bbfab4a7d78ff3abf50b2676dd713e6270b7ea55a22ff39bc086be18e8e50",
                        "s": "0x2a19c333ca6b98205bf96ee7e44f1de9053f203b14e4ed2c2f10016621309f6d",
                        "sender": "0x1ad9bc24818784172ff393bb6f89f094d4d2ca29"
                    },
                    {
                        "type": "0x00",
                        "chainId": "0x01",
                        "nonce": "0x01",
                        "gasPrice": "0x0a",
                        "gasLimit": "0x0186a0",
                        "to": "0xe3fcdf72ad630f8d79d0565944556ffdb45b4fca",
                        "value": "0x00",
                        "data": "0x",
                        "v": "0x25",
                        "r": "0xa7972c25e71757bf88d1e8a69d51138f7113c024364c72a2ac97b087dfba1d64",
                        "s": "0x611d84b6d742cce03fae1af40238487e2196f38c5a1e971d189c4d7c3ae38675",
                        "sender": "0x1ad9bc24818784172ff393bb6f89f094d4d2ca29"
                    }
                ],
                "uncleHeaders": [],
                "withdrawals": [
                    {
                        "index": "0x00",
                        "validatorIndex": "0x00",
                        "address": "0x184d2b2b043d739e2e91ce76c37e2fb13efd1279",
                        "amount": "0x01"
                    },
                    {
                        "index": "0x01",
                        "validatorIndex": "0x01",
                        "address": "0x8c97affab8bbb879265e49c1b6e306a02fda6e95",
                        "amount": "0x01"
                    }
                ],
                "receipts": [
                    {
                        "transactionHash": "0x190ed673f860bb88d30dc6731a1b03f6785e8a3df1c6658c9e1f4e4b880da998",
                        "type": "0x00",
                        "cumulativeGasUsed": "0xa861",
                        "bloom": "0x00000000000000000000000000000000000000000000000000000000000000000000000000000000000000000000000000000000000000000000000000000000000000000000000000000000000000000000000000000000000000000000000000000000000000000000000000000000000000000000000000000000000000000000000000000000000000000000000000000000000000000000000000000000000000000000000000000000000000000000000000000000000000000000000000000000000000000000000000000000000000000000000000000000000000000000000000000000000000000000000000000000000000000000000000000000",
                        "logs": [],
                        "status": true,
                        "rlp": "0xf901080182a861b9010000000000000000000000000000000000000000000000000000000000000000000000000000000000000000000000000000000000000000000000000000000000000000000000000000000000000000000000000000000000000000000000000000000000000000000000000000000000000000000000000000000000000000000000000000000000000000000000000000000000000000000000000000000000000000000000000000000000000000000000000000000000000000000000000000000000000000000000000000000000000000000000000000000000000000000000000000000000000000000000000000000000000000000000000000000000c0"
                    },
                    {
                        "transactionHash": "0x9b77766b1d40d27242712a39ab633cf88afa24107e3e97a43161672526a3551f",
                        "type": "0x00",
                        "cumulativeGasUsed": "0x0150c2",
                        "bloom": "0x00000000000000000000000000000000000000000000000000000000000000000000000000000000000000000000000000000000000000000000000000000000000000000000000000000000000000000000000000000000000000000000000000000000000000000000000000000000000000000000000000000000000000000000000000000000000000000000000000000000000000000000000000000000000000000000000000000000000000000000000000000000000000000000000000000000000000000000000000000000000000000000000000000000000000000000000000000000000000000000000000000000000000000000000000000000",
                        "logs": [],
                        "status": true,
                        "rlp": "0xf9010901830150c2b9010000000000000000000000000000000000000000000000000000000000000000000000000000000000000000000000000000000000000000000000000000000000000000000000000000000000000000000000000000000000000000000000000000000000000000000000000000000000000000000000000000000000000000000000000000000000000000000000000000000000000000000000000000000000000000000000000000000000000000000000000000000000000000000000000000000000000000000000000000000000000000000000000000000000000000000000000000000000000000000000000000000000000000000000000000000000c0"
                    }
                ],
                "rlp": "0xf90313f90216a0fbd86a6d046efc2d4781136c6b1da37f41623a073457ee79bdf2c80947fc032ea01dcc4de8dec75d7aab85b567b6ccd41ad312451b948a7413f0a142fd40d49347942adc25665018aa1fe0e6bc666dac8fc2697ff9baa0e917c233eacffabd13bfbb4892abd93b6aa91dcee906bc3575cc40f510f95acba08eef3a2c7258ccbf90f822f6d38ae9910d1538d34123aa66147fbf8e30038f21a0565dbae32920fdc51f307a7eae972eed4f68bf2fa895f24169f0623ef1b6d66cb901000000000000000000000000000000000000000000000000000000000000000000000000000000000000000000000000000000000000000000000000000000000000000000000000000000000000000000000000000000000000000000000000000000000000000000000000000000000000000000000000000000000000000000000000000000000000000000000000000000000000000000000000000000000000000000000000000000000000000000000000000000000000000000000000000000000000000000000000000000000000000000000000000000000000000000000000000000000000000000000000000000000000000000000000000000000080018407270e00830150c20c80a0000000000000000000000000000000000000000000000000000000000000000088000000000000000007a0b5e20a3db706e11bd893ac6a10beebbf2cdebad3afe4d1fbe0dccecf485080b9f8c4f860800a830186a0945edfa9041082339ab8cb630aa22c70992f04ba9d808025a0bf1bbfab4a7d78ff3abf50b2676dd713e6270b7ea55a22ff39bc086be18e8e50a02a19c333ca6b98205bf96ee7e44f1de9053f203b14e4ed2c2f10016621309f6df860010a830186a094e3fcdf72ad630f8d79d0565944556ffdb45b4fca808025a0a7972c25e71757bf88d1e8a69d51138f7113c024364c72a2ac97b087dfba1d64a0611d84b6d742cce03fae1af40238487e2196f38c5a1e971d189c4d7c3ae38675c0f2d8808094184d2b2b043d739e2e91ce76c37e2fb13efd127901d80101948c97affab8bbb879265e49c1b6e306a02fda6e9501",
                "blocknumber": "1"
            },
            {
                "blockHeader": {
                    "parentHash": "0x1c6d74bd703849f4830cb3bf6dc8d50df003d4c2f10b8d036e69844cb47f5ebe",
                    "uncleHash": "0x1dcc4de8dec75d7aab85b567b6ccd41ad312451b948a7413f0a142fd40d49347",
                    "coinbase": "0x2adc25665018aa1fe0e6bc666dac8fc2697ff9ba",
                    "stateRoot": "0x7d7874aa1c5348f0bc1e0ec816763c27cc2717fc74ed41bf2b096c98569c1c35",
                    "transactionsTrie": "0x54811002cf1cf763d898ba7123360eef066a6f07c0b0adf987723b5f7e3abdc1",
                    "receiptTrie": "0x565dbae32920fdc51f307a7eae972eed4f68bf2fa895f24169f0623ef1b6d66c",
                    "bloom": "0x00000000000000000000000000000000000000000000000000000000000000000000000000000000000000000000000000000000000000000000000000000000000000000000000000000000000000000000000000000000000000000000000000000000000000000000000000000000000000000000000000000000000000000000000000000000000000000000000000000000000000000000000000000000000000000000000000000000000000000000000000000000000000000000000000000000000000000000000000000000000000000000000000000000000000000000000000000000000000000000000000000000000000000000000000000000",
                    "difficulty": "0x00",
                    "number": "0x02",
                    "gasLimit": "0x07270e00",
                    "gasUsed": "0x0150c2",
                    "timestamp": "0x18",
                    "extraData": "0x",
                    "mixHash": "0x0000000000000000000000000000000000000000000000000000000000000000",
                    "nonce": "0x0000000000000000",
                    "baseFeePerGas": "0x07",
                    "withdrawalsRoot": "0xe9501362ee69ac7ec2a105a57721b2eba388c3556f31404ed1a860cc92683de6",
                    "hash": "0xfbc56b005c9dce7a71b7b69330bacaf1a9cd2c946002e00216846125cf90f7c4"
                },
                "transactions": [
                    {
                        "type": "0x00",
                        "chainId": "0x01",
                        "nonce": "0x02",
                        "gasPrice": "0x0a",
                        "gasLimit": "0x0186a0",
                        "to": "0x184d2b2b043d739e2e91ce76c37e2fb13efd1279",
                        "value": "0x00",
                        "data": "0x",
                        "v": "0x25",
                        "r": "0xc9bb20b0e2ca1c62e957d3f293e33a22ecbfabec2f4c061a33a169ff84c7372f",
                        "s": "0x6536b5be6a09b51e8550c5631529ab7872535f5c0a8d8320b9394cb2a68769bd",
                        "sender": "0x1ad9bc24818784172ff393bb6f89f094d4d2ca29"
                    },
                    {
                        "type": "0x00",
                        "chainId": "0x01",
                        "nonce": "0x03",
                        "gasPrice": "0x0a",
                        "gasLimit": "0x0186a0",
                        "to": "0x8c97affab8bbb879265e49c1b6e306a02fda6e95",
                        "value": "0x00",
                        "data": "0x",
                        "v": "0x26",
                        "r": "0x0ee22e02ca3a6783327329d0fa99e1ba3dc915c9f1047068bbeb4bea57bde206",
                        "s": "0x0d5ae10199c465f21e3d4fc0787bf919fb1699fb8bb53c4d5b1bd35847aac215",
                        "sender": "0x1ad9bc24818784172ff393bb6f89f094d4d2ca29"
                    }
                ],
                "uncleHeaders": [],
                "withdrawals": [
                    {
                        "index": "0x00",
                        "validatorIndex": "0x00",
                        "address": "0x5edfa9041082339ab8cb630aa22c70992f04ba9d",
                        "amount": "0x01"
                    },
                    {
                        "index": "0x01",
                        "validatorIndex": "0x01",
                        "address": "0xe3fcdf72ad630f8d79d0565944556ffdb45b4fca",
                        "amount": "0x01"
                    }
                ],
                "receipts": [
                    {
                        "transactionHash": "0x0e805cb5dcdbc89929cc0c1d708e78599921c50e4efa2e80d6f9c3cb1ed643a6",
                        "type": "0x00",
                        "cumulativeGasUsed": "0xa861",
                        "bloom": "0x00000000000000000000000000000000000000000000000000000000000000000000000000000000000000000000000000000000000000000000000000000000000000000000000000000000000000000000000000000000000000000000000000000000000000000000000000000000000000000000000000000000000000000000000000000000000000000000000000000000000000000000000000000000000000000000000000000000000000000000000000000000000000000000000000000000000000000000000000000000000000000000000000000000000000000000000000000000000000000000000000000000000000000000000000000000",
                        "logs": [],
                        "status": true,
                        "rlp": "0xf901080182a861b9010000000000000000000000000000000000000000000000000000000000000000000000000000000000000000000000000000000000000000000000000000000000000000000000000000000000000000000000000000000000000000000000000000000000000000000000000000000000000000000000000000000000000000000000000000000000000000000000000000000000000000000000000000000000000000000000000000000000000000000000000000000000000000000000000000000000000000000000000000000000000000000000000000000000000000000000000000000000000000000000000000000000000000000000000000000000c0"
                    },
                    {
                        "transactionHash": "0xa5e8d8cfe11282152bddbebf2e95ea4e1558a816445289e06ee53377c262ef82",
                        "type": "0x00",
                        "cumulativeGasUsed": "0x0150c2",
                        "bloom": "0x00000000000000000000000000000000000000000000000000000000000000000000000000000000000000000000000000000000000000000000000000000000000000000000000000000000000000000000000000000000000000000000000000000000000000000000000000000000000000000000000000000000000000000000000000000000000000000000000000000000000000000000000000000000000000000000000000000000000000000000000000000000000000000000000000000000000000000000000000000000000000000000000000000000000000000000000000000000000000000000000000000000000000000000000000000000",
                        "logs": [],
                        "status": true,
                        "rlp": "0xf9010901830150c2b9010000000000000000000000000000000000000000000000000000000000000000000000000000000000000000000000000000000000000000000000000000000000000000000000000000000000000000000000000000000000000000000000000000000000000000000000000000000000000000000000000000000000000000000000000000000000000000000000000000000000000000000000000000000000000000000000000000000000000000000000000000000000000000000000000000000000000000000000000000000000000000000000000000000000000000000000000000000000000000000000000000000000000000000000000000000000c0"
                    }
                ],
                "rlp": "0xf90313f90216a01c6d74bd703849f4830cb3bf6dc8d50df003d4c2f10b8d036e69844cb47f5ebea01dcc4de8dec75d7aab85b567b6ccd41ad312451b948a7413f0a142fd40d49347942adc25665018aa1fe0e6bc666dac8fc2697ff9baa07d7874aa1c5348f0bc1e0ec816763c27cc2717fc74ed41bf2b096c98569c1c35a054811002cf1cf763d898ba7123360eef066a6f07c0b0adf987723b5f7e3abdc1a0565dbae32920fdc51f307a7eae972eed4f68bf2fa895f24169f0623ef1b6d66cb901000000000000000000000000000000000000000000000000000000000000000000000000000000000000000000000000000000000000000000000000000000000000000000000000000000000000000000000000000000000000000000000000000000000000000000000000000000000000000000000000000000000000000000000000000000000000000000000000000000000000000000000000000000000000000000000000000000000000000000000000000000000000000000000000000000000000000000000000000000000000000000000000000000000000000000000000000000000000000000000000000000000000000000000000000000000080028407270e00830150c21880a0000000000000000000000000000000000000000000000000000000000000000088000000000000000007a0e9501362ee69ac7ec2a105a57721b2eba388c3556f31404ed1a860cc92683de6f8c4f860020a830186a094184d2b2b043d739e2e91ce76c37e2fb13efd1279808025a0c9bb20b0e2ca1c62e957d3f293e33a22ecbfabec2f4c061a33a169ff84c7372fa06536b5be6a09b51e8550c5631529ab7872535f5c0a8d8320b9394cb2a68769bdf860030a830186a0948c97affab8bbb879265e49c1b6e306a02fda6e95808026a00ee22e02ca3a6783327329d0fa99e1ba3dc915c9f1047068bbeb4bea57bde206a00d5ae10199c465f21e3d4fc0787bf919fb1699fb8bb53c4d5b1bd35847aac215c0f2d88080945edfa9041082339ab8cb630aa22c70992f04ba9d01d8010194e3fcdf72ad630f8d79d0565944556ffdb45b4fca01",
                "blocknumber": "2"
            }
        ],
        "sealEngine": "NoProof",
        "_info": {
            "hash": "0xa630375d6e57e1cbbef3be263b317fb8246efac613c5bd619a04887f33906e90",
            "fixture-format": "blockchain_test",
            "comment": "`execution-specs` generated test",
            "filling-transition-tool": "2.19.0",
            "description": "Test withdrawals don't trigger EVM execution.",
            "url": "https://github.com/ethereum/execution-specs/blob/tests-bal@v5.6.1/tests/shanghai/eip4895_withdrawals/test_withdrawals.py#L515",
            "metadata": {
                "opcode_count": {}
            },
            "reference-spec": "https://github.com/ethereum/EIPs/blob/master/EIPS/eip-4895.md",
            "reference-spec-version": "81af3b60b632bc9c03513d1d137f25410e3f4d34"
        }
    }
}