{
    "tests/ported_static/stRevertTest/test_nashatyrev_suicide_revert.py::test_nashatyrev_suicide_revert[fork_Cancun-blockchain_test_from_state_test]": {
        "network": "Cancun",
        "genesisBlockHeader": {
            "parentHash": "0x0000000000000000000000000000000000000000000000000000000000000000",
            "uncleHash": "0x1dcc4de8dec75d7aab85b567b6ccd41ad312451b948a7413f0a142fd40d49347",
            "coinbase": "0x0000000000000000000000000000000000000000",
            "stateRoot": "0x954904425b876d18493294baa55948e5160c8a8a7c8075eecfa632bdf25c3669",
            "transactionsTrie": "0x56e81f171bcc55a6ff8345e692c0f86e5b48e01b996cadc001622fb5e363b421",
            "receiptTrie": "0x56e81f171bcc55a6ff8345e692c0f86e5b48e01b996cadc001622fb5e363b421",
            "bloom": "0x00000000000000000000000000000000000000000000000000000000000000000000000000000000000000000000000000000000000000000000000000000000000000000000000000000000000000000000000000000000000000000000000000000000000000000000000000000000000000000000000000000000000000000000000000000000000000000000000000000000000000000000000000000000000000000000000000000000000000000000000000000000000000000000000000000000000000000000000000000000000000000000000000000000000000000000000000000000000000000000000000000000000000000000000000000000",
            "difficulty": "0x00",
            "number": "0x00",
            "gasLimit": "0x989680",
            "gasUsed": "0x00",
            "timestamp": "0x00",
            "extraData": "0x00",
            "mixHash": "0x0000000000000000000000000000000000000000000000000000000000000000",
            "nonce": "0x0000000000000000",
            "baseFeePerGas": "0x0b",
            "withdrawalsRoot": "0x56e81f171bcc55a6ff8345e692c0f86e5b48e01b996cadc001622fb5e363b421",
            "blobGasUsed": "0x00",
            "excessBlobGas": "0x00",
            "parentBeaconBlockRoot": "0x0000000000000000000000000000000000000000000000000000000000000000",
            "hash": "0x1690dd7dce680ba03280b059be1fa4f3a1a3e45ee19eb8c3dae1a27c2ecfa671"
        },
        "pre": {
            "0x000f3df6d732807ef1319fb7b8bb8522d0beac02": {
                "nonce": "0x01",
                "balance": "0x00",
                "code": "0x3373fffffffffffffffffffffffffffffffffffffffe14604d57602036146024575f5ffd5b5f35801560495762001fff810690815414603c575f5ffd5b62001fff01545f5260205ff35b5f5ffd5b62001fff42064281555f359062001fff015500",
                "storage": {}
            },
            "0xd719ccdb2301950b0a0bdf09a2bb1d5f8b225f6f": {
                "nonce": "0x00",
                "balance": "0xe8d4a51000",
                "code": "0x",
                "storage": {}
            },
            "0x3f0add40d03b658a3b6f7c8557eb596fbad0881f": {
                "nonce": "0x00",
                "balance": "0x00",
                "code": "0x60606040526000357c0100000000000000000000000000000000000000000000000000000000900463ffffffff1680639c3674fc14610049578063c040622614610058575b610000565b3461000057610056610067565b005b3461000057610065610147565b005b600060405160a680610200833901809050604051809103906000f080156100005790508073ffffffffffffffffffffffffffffffffffffffff1660405180807f6628290000000000000000000000000000000000000000000000000000000000815250600301905060405180910390207c010000000000000000000000000000000000000000000000000000000090046040518163ffffffff167c01000000000000000000000000000000000000000000000000000000000281526004018090506000604051808303816000876161da5a03f19250505050610000565b50565b3073ffffffffffffffffffffffffffffffffffffffff1660405180807f6261642829000000000000000000000000000000000000000000000000000000815250600501905060405180910390207c010000000000000000000000000000000000000000000000000000000090046040518163ffffffff167c01000000000000000000000000000000000000000000000000000000000281526004018090506000604051808303816000876161da5a03f192505050505b56006060604052346000575b608f806100176000396000f30060606040526000357c0100000000000000000000000000000000000000000000000000000000900463ffffffff16806326121ff014603c575b6000565b3460005760466048565b005b3373ffffffffffffffffffffffffffffffffffffffff16ff5b5600a165627a7a723058203d1a897befde21eff26abc325fb3da2f526bbc99de1c5c857d1835f673744ebd0029a165627a7a72305820850a52b31ec4745b7af15ba3bffdb1ba17f5d9a00a5f263ee287a92b568f534c0029",
                "storage": {}
            }
        },
        "postState": {
            "0x000f3df6d732807ef1319fb7b8bb8522d0beac02": {
                "nonce": "0x01",
                "balance": "0x00",
                "code": "0x3373fffffffffffffffffffffffffffffffffffffffe14604d57602036146024575f5ffd5b5f35801560495762001fff810690815414603c575f5ffd5b62001fff01545f5260205ff35b5f5ffd5b62001fff42064281555f359062001fff015500",
                "storage": {
                    "0x03e8": "0x03e8"
                }
            },
            "0xd719ccdb2301950b0a0bdf09a2bb1d5f8b225f6f": {
                "nonce": "0x01",
                "balance": "0xe8d45c926c",
                "code": "0x",
                "storage": {}
            },
            "0x3f0add40d03b658a3b6f7c8557eb596fbad0881f": {
                "nonce": "0x00",
                "balance": "0x00",
                "code": "0x60606040526000357c0100000000000000000000000000000000000000000000000000000000900463ffffffff1680639c3674fc14610049578063c040622614610058575b610000565b3461000057610056610067565b005b3461000057610065610147565b005b600060405160a680610200833901809050604051809103906000f080156100005790508073ffffffffffffffffffffffffffffffffffffffff1660405180807f6628290000000000000000000000000000000000000000000000000000000000815250600301905060405180910390207c010000000000000000000000000000000000000000000000000000000090046040518163ffffffff167c01000000000000000000000000000000000000000000000000000000000281526004018090506000604051808303816000876161da5a03f19250505050610000565b50565b3073ffffffffffffffffffffffffffffffffffffffff1660405180807f6261642829000000000000000000000000000000000000000000000000000000815250600501905060405180910390207c010000000000000000000000000000000000000000000000000000000090046040518163ffffffff167c01000000000000000000000000000000000000000000000000000000000281526004018090506000604051808303816000876161da5a03f192505050505b56006060604052346000575b608f806100176000396000f30060606040526000357c0100000000000000000000000000000000000000000000000000000000900463ffffffff16806326121ff014603c575b6000565b3460005760466048565b005b3373ffffffffffffffffffffffffffffffffffffffff16ff5b5600a165627a7a723058203d1a897befde21eff26abc325fb3da2f526bbc99de1c5c857d1835f673744ebd0029a165627a7a72305820850a52b31ec4745b7af15ba3bffdb1ba17f5d9a00a5f263ee287a92b568f534c0029",
                "storage": {}
            }
        },
        "lastblockhash": "0x2b68d0c8d9e47e1c9bc73224cdc33f922099cee2099ecc8f86492bd72a28dd17",
        "config": {
            "network": "Cancun",
            "chainid": "0x01",
            "blobSchedule": {
                "Cancun": {
                    "target": "0x03",
                    "max": "0x06",
                    "baseFeeUpdateFraction": "0x32f0ed"
                }
            }
        },
        "genesisRLP": "0xf9023bf90235a00000000000000000000000000000000000000000000000000000000000000000a01dcc4de8dec75d7aab85b567b6ccd41ad312451b948a7413f0a142fd40d49347940000000000000000000000000000000000000000a0954904425b876d18493294baa55948e5160c8a8a7c8075eecfa632bdf25c3669a056e81f171bcc55a6ff8345e692c0f86e5b48e01b996cadc001622fb5e363b421a056e81f171bcc55a6ff8345e692c0f86e5b48e01b996cadc001622fb5e363b421b9010000000000000000000000000000000000000000000000000000000000000000000000000000000000000000000000000000000000000000000000000000000000000000000000000000000000000000000000000000000000000000000000000000000000000000000000000000000000000000000000000000000000000000000000000000000000000000000000000000000000000000000000000000000000000000000000000000000000000000000000000000000000000000000000000000000000000000000000000000000000000000000000000000000000000000000000000000000000000000000000000000000000000000000000000000000000808083989680808000a000000000000000000000000000000000000000000000000000000000000000008800000000000000000ba056e81f171bcc55a6ff8345e692c0f86e5b48e01b996cadc001622fb5e363b4218080a00000000000000000000000000000000000000000000000000000000000000000c0c0c0",
        "blocks": [
            {
                "blockHeader": {
                    "parentHash": "0x1690dd7dce680ba03280b059be1fa4f3a1a3e45ee19eb8c3dae1a27c2ecfa671",
                    "uncleHash": "0x1dcc4de8dec75d7aab85b567b6ccd41ad312451b948a7413f0a142fd40d49347",
                    "coinbase": "0x2adc25665018aa1fe0e6bc666dac8fc2697ff9ba",
                    "stateRoot": "0x53501a1e7b2b0bec7dff2e62bf88fe71ba7b35a63a6bd76b079f321504e13c5c",
                    "transactionsTrie": "0x311b30f9909a42970a004e87bf1d381426b1f3740ed7154985a0b2dbbed21cd8",
                    "receiptTrie": "0x66a553084ca7c000685e7384591213b5ddca6f7b143659c243429bce109e1730",
                    "bloom": "0x00000000000000000000000000000000000000000000000000000000000000000000000000000000000000000000000000000000000000000000000000000000000000000000000000000000000000000000000000000000000000000000000000000000000000000000000000000000000000000000000000000000000000000000000000000000000000000000000000000000000000000000000000000000000000000000000000000000000000000000000000000000000000000000000000000000000000000000000000000000000000000000000000000000000000000000000000000000000000000000000000000000000000000000000000000000",
                    "difficulty": "0x00",
                    "number": "0x01",
                    "gasLimit": "0x989680",
                    "gasUsed": "0x073fc2",
                    "timestamp": "0x03e8",
                    "extraData": "0x00",
                    "mixHash": "0x0000000000000000000000000000000000000000000000000000000000020000",
                    "nonce": "0x0000000000000000",
                    "baseFeePerGas": "0x0a",
                    "withdrawalsRoot": "0x56e81f171bcc55a6ff8345e692c0f86e5b48e01b996cadc001622fb5e363b421",
                    "blobGasUsed": "0x00",
                    "excessBlobGas": "0x00",
                    "parentBeaconBlockRoot": "0x0000000000000000000000000000000000000000000000000000000000000000",
                    "hash": "0x2b68d0c8d9e47e1c9bc73224cdc33f922099cee2099ecc8f86492bd72a28dd17"
                },
                "transactions": [
                    {
                        "type": "0x00",
                        "chainId": "0x01",
                        "nonce": "0x00",
                        "gasPrice": "0x0a",
                        "gasLimit": "0x07a120",
                        "to": "0x3f0add40d03b658a3b6f7c8557eb596fbad0881f",
                        "value": "0x00",
                        "data": "0xc0406226",
                        "v": "0x26",
                        "r": "0xcdd2e58527e365e2cb0058dde3d502829ce0c45cce8b3b8666c32684156a289c",
                        "s": "0x5384f9441243feebf093789af16c3356edc354043497bbdf3de0e1eaf759995a",
                        "sender": "0xd719ccdb2301950b0a0bdf09a2bb1d5f8b225f6f"
                    }
                ],
                "uncleHeaders": [],
                "withdrawals": [],
                "receipts": [
                    {
                        "transactionHash": "0x4369054a163ecefd4add75e862195f9af5f90953bc2f919394affc3253e61793",
                        "type": "0x00",
                        "cumulativeGasUsed": "0x073fc2",
                        "bloom": "0x00000000000000000000000000000000000000000000000000000000000000000000000000000000000000000000000000000000000000000000000000000000000000000000000000000000000000000000000000000000000000000000000000000000000000000000000000000000000000000000000000000000000000000000000000000000000000000000000000000000000000000000000000000000000000000000000000000000000000000000000000000000000000000000000000000000000000000000000000000000000000000000000000000000000000000000000000000000000000000000000000000000000000000000000000000000",
                        "logs": [],
                        "status": true,
                        "rlp": "0xf901090183073fc2b9010000000000000000000000000000000000000000000000000000000000000000000000000000000000000000000000000000000000000000000000000000000000000000000000000000000000000000000000000000000000000000000000000000000000000000000000000000000000000000000000000000000000000000000000000000000000000000000000000000000000000000000000000000000000000000000000000000000000000000000000000000000000000000000000000000000000000000000000000000000000000000000000000000000000000000000000000000000000000000000000000000000000000000000000000000000000c0"
                    }
                ],
                "rlp": "0xf902a7f9023aa01690dd7dce680ba03280b059be1fa4f3a1a3e45ee19eb8c3dae1a27c2ecfa671a01dcc4de8dec75d7aab85b567b6ccd41ad312451b948a7413f0a142fd40d49347942adc25665018aa1fe0e6bc666dac8fc2697ff9baa053501a1e7b2b0bec7dff2e62bf88fe71ba7b35a63a6bd76b079f321504e13c5ca0311b30f9909a42970a004e87bf1d381426b1f3740ed7154985a0b2dbbed21cd8a066a553084ca7c000685e7384591213b5ddca6f7b143659c243429bce109e1730b901000000000000000000000000000000000000000000000000000000000000000000000000000000000000000000000000000000000000000000000000000000000000000000000000000000000000000000000000000000000000000000000000000000000000000000000000000000000000000000000000000000000000000000000000000000000000000000000000000000000000000000000000000000000000000000000000000000000000000000000000000000000000000000000000000000000000000000000000000000000000000000000000000000000000000000000000000000000000000000000000000000000000000000000000000000000080018398968083073fc28203e800a000000000000000000000000000000000000000000000000000000000000200008800000000000000000aa056e81f171bcc55a6ff8345e692c0f86e5b48e01b996cadc001622fb5e363b4218080a00000000000000000000000000000000000000000000000000000000000000000f866f864800a8307a120943f0add40d03b658a3b6f7c8557eb596fbad0881f8084c040622626a0cdd2e58527e365e2cb0058dde3d502829ce0c45cce8b3b8666c32684156a289ca05384f9441243feebf093789af16c3356edc354043497bbdf3de0e1eaf759995ac0c0",
                "blocknumber": "1"
            }
        ],
        "sealEngine": "NoProof",
        "_info": {
            "hash": "0xc1caa9d99eb4b9ad25e7329a3181b266aea3014230ace24230073d824b01a3b2",
            "fixture-format": "blockchain_test",
            "comment": "`execution-specs` generated test",
            "filling-transition-tool": "2.19.0",
            "description": "Test_nashatyrev_suicide_revert.",
            "url": "https://github.com/ethereum/execution-specs/blob/tests-snobal-devnet-5@v8037.0.0/tests/ported_static/stRevertTest/test_nashatyrev_suicide_revert.py#L23",
            "metadata": {
                "opcode_count": {}
            }
        }
    }
}