{
    "tests/ported_static/stRevertTest/test_touch_to_empty_account_revert_paris.py::test_touch_to_empty_account_revert_paris[fork_Cancun-blockchain_test_from_state_test]": {
        "network": "Cancun",
        "genesisBlockHeader": {
            "parentHash": "0x0000000000000000000000000000000000000000000000000000000000000000",
            "uncleHash": "0x1dcc4de8dec75d7aab85b567b6ccd41ad312451b948a7413f0a142fd40d49347",
            "coinbase": "0x0000000000000000000000000000000000000000",
            "stateRoot": "0x96b2026abda4f596e45206da475c51bba86deac4aa76633cbb4f7bf6c3bbe385",
            "transactionsTrie": "0x56e81f171bcc55a6ff8345e692c0f86e5b48e01b996cadc001622fb5e363b421",
            "receiptTrie": "0x56e81f171bcc55a6ff8345e692c0f86e5b48e01b996cadc001622fb5e363b421",
            "bloom": "0x00000000000000000000000000000000000000000000000000000000000000000000000000000000000000000000000000000000000000000000000000000000000000000000000000000000000000000000000000000000000000000000000000000000000000000000000000000000000000000000000000000000000000000000000000000000000000000000000000000000000000000000000000000000000000000000000000000000000000000000000000000000000000000000000000000000000000000000000000000000000000000000000000000000000000000000000000000000000000000000000000000000000000000000000000000000",
            "difficulty": "0x00",
            "number": "0x00",
            "gasLimit": "0x989680",
            "gasUsed": "0x00",
            "timestamp": "0x00",
            "extraData": "0x00",
            "mixHash": "0x0000000000000000000000000000000000000000000000000000000000000000",
            "nonce": "0x0000000000000000",
            "baseFeePerGas": "0x0b",
            "withdrawalsRoot": "0x56e81f171bcc55a6ff8345e692c0f86e5b48e01b996cadc001622fb5e363b421",
            "blobGasUsed": "0x00",
            "excessBlobGas": "0x00",
            "parentBeaconBlockRoot": "0x0000000000000000000000000000000000000000000000000000000000000000",
            "hash": "0xc8192665d113a3c6aade185d14904405e596f21d51918f7ced13eda028ee4ae9"
        },
        "pre": {
            "0x000f3df6d732807ef1319fb7b8bb8522d0beac02": {
                "nonce": "0x01",
                "balance": "0x00",
                "code": "0x3373fffffffffffffffffffffffffffffffffffffffe14604d57602036146024575f5ffd5b5f35801560495762001fff810690815414603c575f5ffd5b62001fff01545f5260205ff35b5f5ffd5b62001fff42064281555f359062001fff015500",
                "storage": {}
            },
            "0xfaa10b404ab607779993c016cd5da73ae1f29d7e": {
                "nonce": "0x00",
                "balance": "0xe8d4a51000",
                "code": "0x",
                "storage": {}
            },
            "0x76fae819612a29489a1a43208613d8f8557b8898": {
                "nonce": "0x00",
                "balance": "0x0a",
                "code": "0x",
                "storage": {}
            },
            "0x68b5e303da0ad3dfba8b2134bab64274de666f37": {
                "nonce": "0x00",
                "balance": "0x00",
                "code": "0x6000600060006000600073ba4d09eb64fddcec11d7587e1f51ac0b07c5069c617530f1600055600160025500",
                "storage": {}
            },
            "0xba4d09eb64fddcec11d7587e1f51ac0b07c5069c": {
                "nonce": "0x00",
                "balance": "0x00",
                "code": "0x600060006000600060007376fae819612a29489a1a43208613d8f8557b8898617530f160015500",
                "storage": {}
            }
        },
        "postState": {
            "0x000f3df6d732807ef1319fb7b8bb8522d0beac02": {
                "nonce": "0x01",
                "balance": "0x00",
                "code": "0x3373fffffffffffffffffffffffffffffffffffffffe14604d57602036146024575f5ffd5b5f35801560495762001fff810690815414603c575f5ffd5b62001fff01545f5260205ff35b5f5ffd5b62001fff42064281555f359062001fff015500",
                "storage": {
                    "0x03e8": "0x03e8"
                }
            },
            "0xfaa10b404ab607779993c016cd5da73ae1f29d7e": {
                "nonce": "0x01",
                "balance": "0xe8d49a61a0",
                "code": "0x",
                "storage": {}
            },
            "0x76fae819612a29489a1a43208613d8f8557b8898": {
                "nonce": "0x00",
                "balance": "0x0a",
                "code": "0x",
                "storage": {}
            },
            "0x68b5e303da0ad3dfba8b2134bab64274de666f37": {
                "nonce": "0x00",
                "balance": "0x00",
                "code": "0x6000600060006000600073ba4d09eb64fddcec11d7587e1f51ac0b07c5069c617530f1600055600160025500",
                "storage": {}
            },
            "0xba4d09eb64fddcec11d7587e1f51ac0b07c5069c": {
                "nonce": "0x00",
                "balance": "0x00",
                "code": "0x600060006000600060007376fae819612a29489a1a43208613d8f8557b8898617530f160015500",
                "storage": {}
            }
        },
        "lastblockhash": "0x1f1706388362739661a4355eff7c1f0dbd6aef17a4f436a8eca285a64fd4b900",
        "config": {
            "network": "Cancun",
            "chainid": "0x01",
            "blobSchedule": {
                "Cancun": {
                    "target": "0x03",
                    "max": "0x06",
                    "baseFeeUpdateFraction": "0x32f0ed"
                }
            }
        },
        "genesisRLP": "0xf9023bf90235a00000000000000000000000000000000000000000000000000000000000000000a01dcc4de8dec75d7aab85b567b6ccd41ad312451b948a7413f0a142fd40d49347940000000000000000000000000000000000000000a096b2026abda4f596e45206da475c51bba86deac4aa76633cbb4f7bf6c3bbe385a056e81f171bcc55a6ff8345e692c0f86e5b48e01b996cadc001622fb5e363b421a056e81f171bcc55a6ff8345e692c0f86e5b48e01b996cadc001622fb5e363b421b9010000000000000000000000000000000000000000000000000000000000000000000000000000000000000000000000000000000000000000000000000000000000000000000000000000000000000000000000000000000000000000000000000000000000000000000000000000000000000000000000000000000000000000000000000000000000000000000000000000000000000000000000000000000000000000000000000000000000000000000000000000000000000000000000000000000000000000000000000000000000000000000000000000000000000000000000000000000000000000000000000000000000000000000000000000000000808083989680808000a000000000000000000000000000000000000000000000000000000000000000008800000000000000000ba056e81f171bcc55a6ff8345e692c0f86e5b48e01b996cadc001622fb5e363b4218080a00000000000000000000000000000000000000000000000000000000000000000c0c0c0",
        "blocks": [
            {
                "blockHeader": {
                    "parentHash": "0xc8192665d113a3c6aade185d14904405e596f21d51918f7ced13eda028ee4ae9",
                    "uncleHash": "0x1dcc4de8dec75d7aab85b567b6ccd41ad312451b948a7413f0a142fd40d49347",
                    "coinbase": "0x2adc25665018aa1fe0e6bc666dac8fc2697ff9ba",
                    "stateRoot": "0xfc71d8c23d5377b4437b41bec9ecd7dc6ba6a2b1f6dcbfa1e31ad183848ee1ea",
                    "transactionsTrie": "0xcf53b65777524fe3ef1eade2e188cb2a980d0f68dae47c608811e27dea04b5d7",
                    "receiptTrie": "0x33206fdb0b04af73aed5fcc49c377894a2ad7acc74a06782884999e9c75de4ba",
                    "bloom": "0x00000000000000000000000000000000000000000000000000000000000000000000000000000000000000000000000000000000000000000000000000000000000000000000000000000000000000000000000000000000000000000000000000000000000000000000000000000000000000000000000000000000000000000000000000000000000000000000000000000000000000000000000000000000000000000000000000000000000000000000000000000000000000000000000000000000000000000000000000000000000000000000000000000000000000000000000000000000000000000000000000000000000000000000000000000000",
                    "difficulty": "0x00",
                    "number": "0x01",
                    "gasLimit": "0x989680",
                    "gasUsed": "0x011170",
                    "timestamp": "0x03e8",
                    "extraData": "0x00",
                    "mixHash": "0x0000000000000000000000000000000000000000000000000000000000020000",
                    "nonce": "0x0000000000000000",
                    "baseFeePerGas": "0x0a",
                    "withdrawalsRoot": "0x56e81f171bcc55a6ff8345e692c0f86e5b48e01b996cadc001622fb5e363b421",
                    "blobGasUsed": "0x00",
                    "excessBlobGas": "0x00",
                    "parentBeaconBlockRoot": "0x0000000000000000000000000000000000000000000000000000000000000000",
                    "hash": "0x1f1706388362739661a4355eff7c1f0dbd6aef17a4f436a8eca285a64fd4b900"
                },
                "transactions": [
                    {
                        "type": "0x00",
                        "chainId": "0x01",
                        "nonce": "0x00",
                        "gasPrice": "0x0a",
                        "gasLimit": "0x011170",
                        "to": "0x68b5e303da0ad3dfba8b2134bab64274de666f37",
                        "value": "0x00",
                        "data": "0x",
                        "v": "0x26",
                        "r": "0x02c024dcd1aee9e13da544966e298a5800d13475f1652ffbd9428b6bbf21ced2",
                        "s": "0x751c6de7f62914e3752debf07d0afb3ca6315aa742875d6a19cad0b9e867f0a3",
                        "sender": "0xfaa10b404ab607779993c016cd5da73ae1f29d7e"
                    }
                ],
                "uncleHeaders": [],
                "withdrawals": [],
                "receipts": [
                    {
                        "transactionHash": "0x94ee981024f1a0325d441cede74de6ed61422f1bdb7597d5fbbaf8903270bbb8",
                        "type": "0x00",
                        "cumulativeGasUsed": "0x011170",
                        "bloom": "0x00000000000000000000000000000000000000000000000000000000000000000000000000000000000000000000000000000000000000000000000000000000000000000000000000000000000000000000000000000000000000000000000000000000000000000000000000000000000000000000000000000000000000000000000000000000000000000000000000000000000000000000000000000000000000000000000000000000000000000000000000000000000000000000000000000000000000000000000000000000000000000000000000000000000000000000000000000000000000000000000000000000000000000000000000000000",
                        "logs": [],
                        "status": false,
                        "rlp": "0xf901098083011170b9010000000000000000000000000000000000000000000000000000000000000000000000000000000000000000000000000000000000000000000000000000000000000000000000000000000000000000000000000000000000000000000000000000000000000000000000000000000000000000000000000000000000000000000000000000000000000000000000000000000000000000000000000000000000000000000000000000000000000000000000000000000000000000000000000000000000000000000000000000000000000000000000000000000000000000000000000000000000000000000000000000000000000000000000000000000000c0"
                    }
                ],
                "rlp": "0xf902a3f9023aa0c8192665d113a3c6aade185d14904405e596f21d51918f7ced13eda028ee4ae9a01dcc4de8dec75d7aab85b567b6ccd41ad312451b948a7413f0a142fd40d49347942adc25665018aa1fe0e6bc666dac8fc2697ff9baa0fc71d8c23d5377b4437b41bec9ecd7dc6ba6a2b1f6dcbfa1e31ad183848ee1eaa0cf53b65777524fe3ef1eade2e188cb2a980d0f68dae47c608811e27dea04b5d7a033206fdb0b04af73aed5fcc49c377894a2ad7acc74a06782884999e9c75de4bab9010000000000000000000000000000000000000000000000000000000000000000000000000000000000000000000000000000000000000000000000000000000000000000000000000000000000000000000000000000000000000000000000000000000000000000000000000000000000000000000000000000000000000000000000000000000000000000000000000000000000000000000000000000000000000000000000000000000000000000000000000000000000000000000000000000000000000000000000000000000000000000000000000000000000000000000000000000000000000000000000000000000000000000000000000000000000800183989680830111708203e800a000000000000000000000000000000000000000000000000000000000000200008800000000000000000aa056e81f171bcc55a6ff8345e692c0f86e5b48e01b996cadc001622fb5e363b4218080a00000000000000000000000000000000000000000000000000000000000000000f862f860800a830111709468b5e303da0ad3dfba8b2134bab64274de666f37808026a002c024dcd1aee9e13da544966e298a5800d13475f1652ffbd9428b6bbf21ced2a0751c6de7f62914e3752debf07d0afb3ca6315aa742875d6a19cad0b9e867f0a3c0c0",
                "blocknumber": "1"
            }
        ],
        "sealEngine": "NoProof",
        "_info": {
            "hash": "0x2b3c2bb87b59962606dd2b7faf71061416fe7281886f0334c2241149f41408ac",
            "fixture-format": "blockchain_test",
            "comment": "`execution-specs` generated test",
            "filling-transition-tool": "2.19.0",
            "description": "Test_touch_to_empty_account_revert_paris.",
            "url": "https://github.com/ethereum/execution-specs/blob/tests-bal@v5.7.0/tests/ported_static/stRevertTest/test_touch_to_empty_account_revert_paris.py#L25",
            "metadata": {
                "opcode_count": {}
            }
        }
    }
}