{
    "tests/ported_static/stStaticCall/test_static_callcallcallcode_001_2.py::test_static_callcallcallcode_001_2[fork_Cancun-blockchain_test_from_state_test-d0]": {
        "network": "Cancun",
        "genesisBlockHeader": {
            "parentHash": "0x0000000000000000000000000000000000000000000000000000000000000000",
            "uncleHash": "0x1dcc4de8dec75d7aab85b567b6ccd41ad312451b948a7413f0a142fd40d49347",
            "coinbase": "0x0000000000000000000000000000000000000000",
            "stateRoot": "0x5963666ca00e2f6d53d486ad3ad65fba1cf2158f741f875a4a9c607ff5b3bd5e",
            "transactionsTrie": "0x56e81f171bcc55a6ff8345e692c0f86e5b48e01b996cadc001622fb5e363b421",
            "receiptTrie": "0x56e81f171bcc55a6ff8345e692c0f86e5b48e01b996cadc001622fb5e363b421",
            "bloom": "0x00000000000000000000000000000000000000000000000000000000000000000000000000000000000000000000000000000000000000000000000000000000000000000000000000000000000000000000000000000000000000000000000000000000000000000000000000000000000000000000000000000000000000000000000000000000000000000000000000000000000000000000000000000000000000000000000000000000000000000000000000000000000000000000000000000000000000000000000000000000000000000000000000000000000000000000000000000000000000000000000000000000000000000000000000000000",
            "difficulty": "0x00",
            "number": "0x00",
            "gasLimit": "0x01c9c380",
            "gasUsed": "0x00",
            "timestamp": "0x00",
            "extraData": "0x00",
            "mixHash": "0x0000000000000000000000000000000000000000000000000000000000000000",
            "nonce": "0x0000000000000000",
            "baseFeePerGas": "0x0b",
            "withdrawalsRoot": "0x56e81f171bcc55a6ff8345e692c0f86e5b48e01b996cadc001622fb5e363b421",
            "blobGasUsed": "0x00",
            "excessBlobGas": "0x00",
            "parentBeaconBlockRoot": "0x0000000000000000000000000000000000000000000000000000000000000000",
            "hash": "0xbfa18b47a58512f91c722c5e8a9f53b7e3d8d5f74402c5f3ed785fb064f7b212"
        },
        "pre": {
            "0x000f3df6d732807ef1319fb7b8bb8522d0beac02": {
                "nonce": "0x01",
                "balance": "0x00",
                "code": "0x3373fffffffffffffffffffffffffffffffffffffffe14604d57602036146024575f5ffd5b5f35801560495762001fff810690815414603c575f5ffd5b62001fff01545f5260205ff35b5f5ffd5b62001fff42064281555f359062001fff015500",
                "storage": {}
            },
            "0xe4552fdc3736d39144e64ad1a1e8253017b0c974": {
                "nonce": "0x00",
                "balance": "0x00",
                "code": "0x6000600060006000346000355af1600055600160015500",
                "storage": {}
            },
            "0x2f9ec0afcb4edcd7d38c6a48f5e36038263ca3cd": {
                "nonce": "0x00",
                "balance": "0x0de0b6b3a7640000",
                "code": "0x60406000604060007352bc8086d7f6ac48937cf1b98dfc6f4be0f7511262055730fa60005500",
                "storage": {}
            },
            "0x52bc8086d7f6ac48937cf1b98dfc6f4be0f75112": {
                "nonce": "0x00",
                "balance": "0x0de0b6b3a7640000",
                "code": "0x6040600060406000730ffffaeb931552e5f094ca96a70be612da56b887620493e0fa50600160035200",
                "storage": {}
            },
            "0x0ffffaeb931552e5f094ca96a70be612da56b887": {
                "nonce": "0x00",
                "balance": "0x0de0b6b3a7640000",
                "code": "0x60406000604060006003732881a083ea775f78057a93f73110241fdb7398a96203d090f260025500",
                "storage": {}
            },
            "0x2881a083ea775f78057a93f73110241fdb7398a9": {
                "nonce": "0x00",
                "balance": "0x00",
                "code": "0x631122334460015200",
                "storage": {}
            },
            "0xbf23f3306533431b2ee5e4ca95e0a0834c090105": {
                "nonce": "0x00",
                "balance": "0x0de0b6b3a7640000",
                "code": "0x604060006040600073b4631a307a08abc5d5a582549b23cb98a7c5beb262055730fa60005500",
                "storage": {}
            },
            "0xb4631a307a08abc5d5a582549b23cb98a7c5beb2": {
                "nonce": "0x00",
                "balance": "0x0de0b6b3a7640000",
                "code": "0x6040600060406000735517c40699ceb16c4eb71f2b0d841078c198560e620493e0fa50600160035200",
                "storage": {}
            },
            "0x5517c40699ceb16c4eb71f2b0d841078c198560e": {
                "nonce": "0x00",
                "balance": "0x0de0b6b3a7640000",
                "code": "0x60016004526040600060406000600073335c5531b84765a7626e6e76688f18b81be5259c6203d090f250600160065200",
                "storage": {}
            },
            "0x335c5531b84765a7626e6e76688f18b81be5259c": {
                "nonce": "0x00",
                "balance": "0x00",
                "code": "0x600160035200",
                "storage": {}
            },
            "0xebaf50debf10e08302fe4280c32df010463ca297": {
                "nonce": "0x00",
                "balance": "0x0de0b6b3a7640000",
                "code": "0x",
                "storage": {}
            }
        },
        "postState": {
            "0x000f3df6d732807ef1319fb7b8bb8522d0beac02": {
                "nonce": "0x01",
                "balance": "0x00",
                "code": "0x3373fffffffffffffffffffffffffffffffffffffffe14604d57602036146024575f5ffd5b5f35801560495762001fff810690815414603c575f5ffd5b62001fff01545f5260205ff35b5f5ffd5b62001fff42064281555f359062001fff015500",
                "storage": {
                    "0x03e8": "0x03e8"
                }
            },
            "0xe4552fdc3736d39144e64ad1a1e8253017b0c974": {
                "nonce": "0x00",
                "balance": "0x00",
                "code": "0x6000600060006000346000355af1600055600160015500",
                "storage": {
                    "0x00": "0x01",
                    "0x01": "0x01"
                }
            },
            "0x2f9ec0afcb4edcd7d38c6a48f5e36038263ca3cd": {
                "nonce": "0x00",
                "balance": "0x0de0b6b3a7640000",
                "code": "0x60406000604060007352bc8086d7f6ac48937cf1b98dfc6f4be0f7511262055730fa60005500",
                "storage": {
                    "0x00": "0x01"
                }
            },
            "0x52bc8086d7f6ac48937cf1b98dfc6f4be0f75112": {
                "nonce": "0x00",
                "balance": "0x0de0b6b3a7640000",
                "code": "0x6040600060406000730ffffaeb931552e5f094ca96a70be612da56b887620493e0fa50600160035200",
                "storage": {}
            },
            "0x0ffffaeb931552e5f094ca96a70be612da56b887": {
                "nonce": "0x00",
                "balance": "0x0de0b6b3a7640000",
                "code": "0x60406000604060006003732881a083ea775f78057a93f73110241fdb7398a96203d090f260025500",
                "storage": {}
            },
            "0x2881a083ea775f78057a93f73110241fdb7398a9": {
                "nonce": "0x00",
                "balance": "0x00",
                "code": "0x631122334460015200",
                "storage": {}
            },
            "0xbf23f3306533431b2ee5e4ca95e0a0834c090105": {
                "nonce": "0x00",
                "balance": "0x0de0b6b3a7640000",
                "code": "0x604060006040600073b4631a307a08abc5d5a582549b23cb98a7c5beb262055730fa60005500",
                "storage": {}
            },
            "0xb4631a307a08abc5d5a582549b23cb98a7c5beb2": {
                "nonce": "0x00",
                "balance": "0x0de0b6b3a7640000",
                "code": "0x6040600060406000735517c40699ceb16c4eb71f2b0d841078c198560e620493e0fa50600160035200",
                "storage": {}
            },
            "0x5517c40699ceb16c4eb71f2b0d841078c198560e": {
                "nonce": "0x00",
                "balance": "0x0de0b6b3a7640000",
                "code": "0x60016004526040600060406000600073335c5531b84765a7626e6e76688f18b81be5259c6203d090f250600160065200",
                "storage": {}
            },
            "0x335c5531b84765a7626e6e76688f18b81be5259c": {
                "nonce": "0x00",
                "balance": "0x00",
                "code": "0x600160035200",
                "storage": {}
            },
            "0xebaf50debf10e08302fe4280c32df010463ca297": {
                "nonce": "0x01",
                "balance": "0x0de0b6b3a727a466",
                "code": "0x",
                "storage": {}
            }
        },
        "lastblockhash": "0xbd2c08d98bd8be8a8b049c0024d394bc5722c364d7b8973c0357fbef89cc8365",
        "config": {
            "network": "Cancun",
            "chainid": "0x01",
            "blobSchedule": {
                "Cancun": {
                    "target": "0x03",
                    "max": "0x06",
                    "baseFeeUpdateFraction": "0x32f0ed"
                }
            }
        },
        "genesisRLP": "0xf9023cf90236a00000000000000000000000000000000000000000000000000000000000000000a01dcc4de8dec75d7aab85b567b6ccd41ad312451b948a7413f0a142fd40d49347940000000000000000000000000000000000000000a05963666ca00e2f6d53d486ad3ad65fba1cf2158f741f875a4a9c607ff5b3bd5ea056e81f171bcc55a6ff8345e692c0f86e5b48e01b996cadc001622fb5e363b421a056e81f171bcc55a6ff8345e692c0f86e5b48e01b996cadc001622fb5e363b421b901000000000000000000000000000000000000000000000000000000000000000000000000000000000000000000000000000000000000000000000000000000000000000000000000000000000000000000000000000000000000000000000000000000000000000000000000000000000000000000000000000000000000000000000000000000000000000000000000000000000000000000000000000000000000000000000000000000000000000000000000000000000000000000000000000000000000000000000000000000000000000000000000000000000000000000000000000000000000000000000000000000000000000000000000000000000080808401c9c380808000a000000000000000000000000000000000000000000000000000000000000000008800000000000000000ba056e81f171bcc55a6ff8345e692c0f86e5b48e01b996cadc001622fb5e363b4218080a00000000000000000000000000000000000000000000000000000000000000000c0c0c0",
        "blocks": [
            {
                "blockHeader": {
                    "parentHash": "0xbfa18b47a58512f91c722c5e8a9f53b7e3d8d5f74402c5f3ed785fb064f7b212",
                    "uncleHash": "0x1dcc4de8dec75d7aab85b567b6ccd41ad312451b948a7413f0a142fd40d49347",
                    "coinbase": "0x2adc25665018aa1fe0e6bc666dac8fc2697ff9ba",
                    "stateRoot": "0x320e5cc5dd008dd6e07b5d58adf097e36674f60907d6ac1db92b8f0c907faae5",
                    "transactionsTrie": "0x8259b847cc33a8368852b9ed86cd1829dcaad6fd557db2a8395489a929027244",
                    "receiptTrie": "0x48d8ece4f7a594b4dd5a5c153217f316fb36eee43a01c48591b02ccec16c61d8",
                    "bloom": "0x00000000000000000000000000000000000000000000000000000000000000000000000000000000000000000000000000000000000000000000000000000000000000000000000000000000000000000000000000000000000000000000000000000000000000000000000000000000000000000000000000000000000000000000000000000000000000000000000000000000000000000000000000000000000000000000000000000000000000000000000000000000000000000000000000000000000000000000000000000000000000000000000000000000000000000000000000000000000000000000000000000000000000000000000000000000",
                    "difficulty": "0x00",
                    "number": "0x01",
                    "gasLimit": "0x01c9c380",
                    "gasUsed": "0x060929",
                    "timestamp": "0x03e8",
                    "extraData": "0x00",
                    "mixHash": "0x0000000000000000000000000000000000000000000000000000000000020000",
                    "nonce": "0x0000000000000000",
                    "baseFeePerGas": "0x0a",
                    "withdrawalsRoot": "0x56e81f171bcc55a6ff8345e692c0f86e5b48e01b996cadc001622fb5e363b421",
                    "blobGasUsed": "0x00",
                    "excessBlobGas": "0x00",
                    "parentBeaconBlockRoot": "0x0000000000000000000000000000000000000000000000000000000000000000",
                    "hash": "0xbd2c08d98bd8be8a8b049c0024d394bc5722c364d7b8973c0357fbef89cc8365"
                },
                "transactions": [
                    {
                        "type": "0x00",
                        "chainId": "0x01",
                        "nonce": "0x00",
                        "gasPrice": "0x0a",
                        "gasLimit": "0x2dc6c0",
                        "to": "0xe4552fdc3736d39144e64ad1a1e8253017b0c974",
                        "value": "0x00",
                        "data": "0x0000000000000000000000002f9ec0afcb4edcd7d38c6a48f5e36038263ca3cd",
                        "v": "0x25",
                        "r": "0xab4ef18d6f512487cbdc4cdc5892797eeab41f1334ff23beab7142b6dc54f749",
                        "s": "0x5ecb0ec2837a1dadf8415718a2a38d5ecdc743e539783b7c09cc1b68b7856038",
                        "sender": "0xebaf50debf10e08302fe4280c32df010463ca297"
                    }
                ],
                "uncleHeaders": [],
                "withdrawals": [],
                "receipts": [
                    {
                        "transactionHash": "0xcbbd53dce32eaf760bf74f77e024941e3b7953563fcd93600c6651935dd18176",
                        "type": "0x00",
                        "cumulativeGasUsed": "0x060929",
                        "bloom": "0x00000000000000000000000000000000000000000000000000000000000000000000000000000000000000000000000000000000000000000000000000000000000000000000000000000000000000000000000000000000000000000000000000000000000000000000000000000000000000000000000000000000000000000000000000000000000000000000000000000000000000000000000000000000000000000000000000000000000000000000000000000000000000000000000000000000000000000000000000000000000000000000000000000000000000000000000000000000000000000000000000000000000000000000000000000000",
                        "logs": [],
                        "status": true,
                        "rlp": "0xf901090183060929b9010000000000000000000000000000000000000000000000000000000000000000000000000000000000000000000000000000000000000000000000000000000000000000000000000000000000000000000000000000000000000000000000000000000000000000000000000000000000000000000000000000000000000000000000000000000000000000000000000000000000000000000000000000000000000000000000000000000000000000000000000000000000000000000000000000000000000000000000000000000000000000000000000000000000000000000000000000000000000000000000000000000000000000000000000000000000c0"
                    }
                ],
                "rlp": "0xf902c4f9023ba0bfa18b47a58512f91c722c5e8a9f53b7e3d8d5f74402c5f3ed785fb064f7b212a01dcc4de8dec75d7aab85b567b6ccd41ad312451b948a7413f0a142fd40d49347942adc25665018aa1fe0e6bc666dac8fc2697ff9baa0320e5cc5dd008dd6e07b5d58adf097e36674f60907d6ac1db92b8f0c907faae5a08259b847cc33a8368852b9ed86cd1829dcaad6fd557db2a8395489a929027244a048d8ece4f7a594b4dd5a5c153217f316fb36eee43a01c48591b02ccec16c61d8b901000000000000000000000000000000000000000000000000000000000000000000000000000000000000000000000000000000000000000000000000000000000000000000000000000000000000000000000000000000000000000000000000000000000000000000000000000000000000000000000000000000000000000000000000000000000000000000000000000000000000000000000000000000000000000000000000000000000000000000000000000000000000000000000000000000000000000000000000000000000000000000000000000000000000000000000000000000000000000000000000000000000000000000000000000000000080018401c9c380830609298203e800a000000000000000000000000000000000000000000000000000000000000200008800000000000000000aa056e81f171bcc55a6ff8345e692c0f86e5b48e01b996cadc001622fb5e363b4218080a00000000000000000000000000000000000000000000000000000000000000000f882f880800a832dc6c094e4552fdc3736d39144e64ad1a1e8253017b0c97480a00000000000000000000000002f9ec0afcb4edcd7d38c6a48f5e36038263ca3cd25a0ab4ef18d6f512487cbdc4cdc5892797eeab41f1334ff23beab7142b6dc54f749a05ecb0ec2837a1dadf8415718a2a38d5ecdc743e539783b7c09cc1b68b7856038c0c0",
                "blocknumber": "1"
            }
        ],
        "sealEngine": "NoProof",
        "_info": {
            "hash": "0xaf251ea6f2c2e05065571ac87651674d8d3776e880e51c6a353005794a36b7ed",
            "fixture-format": "blockchain_test",
            "comment": "`execution-specs` generated test",
            "filling-transition-tool": "2.19.0",
            "description": "Test_static_callcallcallcode_001_2.",
            "url": "https://github.com/ethereum/execution-specs/blob/tests-sn\u00f8bal-devnet-4@v1.0.0/tests/ported_static/stStaticCall/test_static_callcallcallcode_001_2.py#L29",
            "metadata": {
                "opcode_count": {}
            }
        }
    },
    "tests/ported_static/stStaticCall/test_static_callcallcallcode_001_2.py::test_static_callcallcallcode_001_2[fork_Cancun-blockchain_test_from_state_test-d1]": {
        "network": "Cancun",
        "genesisBlockHeader": {
            "parentHash": "0x0000000000000000000000000000000000000000000000000000000000000000",
            "uncleHash": "0x1dcc4de8dec75d7aab85b567b6ccd41ad312451b948a7413f0a142fd40d49347",
            "coinbase": "0x0000000000000000000000000000000000000000",
            "stateRoot": "0x5963666ca00e2f6d53d486ad3ad65fba1cf2158f741f875a4a9c607ff5b3bd5e",
            "transactionsTrie": "0x56e81f171bcc55a6ff8345e692c0f86e5b48e01b996cadc001622fb5e363b421",
            "receiptTrie": "0x56e81f171bcc55a6ff8345e692c0f86e5b48e01b996cadc001622fb5e363b421",
            "bloom": "0x00000000000000000000000000000000000000000000000000000000000000000000000000000000000000000000000000000000000000000000000000000000000000000000000000000000000000000000000000000000000000000000000000000000000000000000000000000000000000000000000000000000000000000000000000000000000000000000000000000000000000000000000000000000000000000000000000000000000000000000000000000000000000000000000000000000000000000000000000000000000000000000000000000000000000000000000000000000000000000000000000000000000000000000000000000000",
            "difficulty": "0x00",
            "number": "0x00",
            "gasLimit": "0x01c9c380",
            "gasUsed": "0x00",
            "timestamp": "0x00",
            "extraData": "0x00",
            "mixHash": "0x0000000000000000000000000000000000000000000000000000000000000000",
            "nonce": "0x0000000000000000",
            "baseFeePerGas": "0x0b",
            "withdrawalsRoot": "0x56e81f171bcc55a6ff8345e692c0f86e5b48e01b996cadc001622fb5e363b421",
            "blobGasUsed": "0x00",
            "excessBlobGas": "0x00",
            "parentBeaconBlockRoot": "0x0000000000000000000000000000000000000000000000000000000000000000",
            "hash": "0xbfa18b47a58512f91c722c5e8a9f53b7e3d8d5f74402c5f3ed785fb064f7b212"
        },
        "pre": {
            "0x000f3df6d732807ef1319fb7b8bb8522d0beac02": {
                "nonce": "0x01",
                "balance": "0x00",
                "code": "0x3373fffffffffffffffffffffffffffffffffffffffe14604d57602036146024575f5ffd5b5f35801560495762001fff810690815414603c575f5ffd5b62001fff01545f5260205ff35b5f5ffd5b62001fff42064281555f359062001fff015500",
                "storage": {}
            },
            "0xe4552fdc3736d39144e64ad1a1e8253017b0c974": {
                "nonce": "0x00",
                "balance": "0x00",
                "code": "0x6000600060006000346000355af1600055600160015500",
                "storage": {}
            },
            "0x2f9ec0afcb4edcd7d38c6a48f5e36038263ca3cd": {
                "nonce": "0x00",
                "balance": "0x0de0b6b3a7640000",
                "code": "0x60406000604060007352bc8086d7f6ac48937cf1b98dfc6f4be0f7511262055730fa60005500",
                "storage": {}
            },
            "0x52bc8086d7f6ac48937cf1b98dfc6f4be0f75112": {
                "nonce": "0x00",
                "balance": "0x0de0b6b3a7640000",
                "code": "0x6040600060406000730ffffaeb931552e5f094ca96a70be612da56b887620493e0fa50600160035200",
                "storage": {}
            },
            "0x0ffffaeb931552e5f094ca96a70be612da56b887": {
                "nonce": "0x00",
                "balance": "0x0de0b6b3a7640000",
                "code": "0x60406000604060006003732881a083ea775f78057a93f73110241fdb7398a96203d090f260025500",
                "storage": {}
            },
            "0x2881a083ea775f78057a93f73110241fdb7398a9": {
                "nonce": "0x00",
                "balance": "0x00",
                "code": "0x631122334460015200",
                "storage": {}
            },
            "0xbf23f3306533431b2ee5e4ca95e0a0834c090105": {
                "nonce": "0x00",
                "balance": "0x0de0b6b3a7640000",
                "code": "0x604060006040600073b4631a307a08abc5d5a582549b23cb98a7c5beb262055730fa60005500",
                "storage": {}
            },
            "0xb4631a307a08abc5d5a582549b23cb98a7c5beb2": {
                "nonce": "0x00",
                "balance": "0x0de0b6b3a7640000",
                "code": "0x6040600060406000735517c40699ceb16c4eb71f2b0d841078c198560e620493e0fa50600160035200",
                "storage": {}
            },
            "0x5517c40699ceb16c4eb71f2b0d841078c198560e": {
                "nonce": "0x00",
                "balance": "0x0de0b6b3a7640000",
                "code": "0x60016004526040600060406000600073335c5531b84765a7626e6e76688f18b81be5259c6203d090f250600160065200",
                "storage": {}
            },
            "0x335c5531b84765a7626e6e76688f18b81be5259c": {
                "nonce": "0x00",
                "balance": "0x00",
                "code": "0x600160035200",
                "storage": {}
            },
            "0xebaf50debf10e08302fe4280c32df010463ca297": {
                "nonce": "0x00",
                "balance": "0x0de0b6b3a7640000",
                "code": "0x",
                "storage": {}
            }
        },
        "postState": {
            "0x000f3df6d732807ef1319fb7b8bb8522d0beac02": {
                "nonce": "0x01",
                "balance": "0x00",
                "code": "0x3373fffffffffffffffffffffffffffffffffffffffe14604d57602036146024575f5ffd5b5f35801560495762001fff810690815414603c575f5ffd5b62001fff01545f5260205ff35b5f5ffd5b62001fff42064281555f359062001fff015500",
                "storage": {
                    "0x03e8": "0x03e8"
                }
            },
            "0xe4552fdc3736d39144e64ad1a1e8253017b0c974": {
                "nonce": "0x00",
                "balance": "0x00",
                "code": "0x6000600060006000346000355af1600055600160015500",
                "storage": {
                    "0x00": "0x01",
                    "0x01": "0x01"
                }
            },
            "0x2f9ec0afcb4edcd7d38c6a48f5e36038263ca3cd": {
                "nonce": "0x00",
                "balance": "0x0de0b6b3a7640000",
                "code": "0x60406000604060007352bc8086d7f6ac48937cf1b98dfc6f4be0f7511262055730fa60005500",
                "storage": {}
            },
            "0x52bc8086d7f6ac48937cf1b98dfc6f4be0f75112": {
                "nonce": "0x00",
                "balance": "0x0de0b6b3a7640000",
                "code": "0x6040600060406000730ffffaeb931552e5f094ca96a70be612da56b887620493e0fa50600160035200",
                "storage": {}
            },
            "0x0ffffaeb931552e5f094ca96a70be612da56b887": {
                "nonce": "0x00",
                "balance": "0x0de0b6b3a7640000",
                "code": "0x60406000604060006003732881a083ea775f78057a93f73110241fdb7398a96203d090f260025500",
                "storage": {}
            },
            "0x2881a083ea775f78057a93f73110241fdb7398a9": {
                "nonce": "0x00",
                "balance": "0x00",
                "code": "0x631122334460015200",
                "storage": {}
            },
            "0xbf23f3306533431b2ee5e4ca95e0a0834c090105": {
                "nonce": "0x00",
                "balance": "0x0de0b6b3a7640000",
                "code": "0x604060006040600073b4631a307a08abc5d5a582549b23cb98a7c5beb262055730fa60005500",
                "storage": {
                    "0x00": "0x01"
                }
            },
            "0xb4631a307a08abc5d5a582549b23cb98a7c5beb2": {
                "nonce": "0x00",
                "balance": "0x0de0b6b3a7640000",
                "code": "0x6040600060406000735517c40699ceb16c4eb71f2b0d841078c198560e620493e0fa50600160035200",
                "storage": {}
            },
            "0x5517c40699ceb16c4eb71f2b0d841078c198560e": {
                "nonce": "0x00",
                "balance": "0x0de0b6b3a7640000",
                "code": "0x60016004526040600060406000600073335c5531b84765a7626e6e76688f18b81be5259c6203d090f250600160065200",
                "storage": {}
            },
            "0x335c5531b84765a7626e6e76688f18b81be5259c": {
                "nonce": "0x00",
                "balance": "0x00",
                "code": "0x600160035200",
                "storage": {}
            },
            "0xebaf50debf10e08302fe4280c32df010463ca297": {
                "nonce": "0x01",
                "balance": "0x0de0b6b3a755032a",
                "code": "0x",
                "storage": {}
            }
        },
        "lastblockhash": "0x5c306f226218fa3da1f658d4665dbe444685fe5db57ed5d3d425d0e17daf54a3",
        "config": {
            "network": "Cancun",
            "chainid": "0x01",
            "blobSchedule": {
                "Cancun": {
                    "target": "0x03",
                    "max": "0x06",
                    "baseFeeUpdateFraction": "0x32f0ed"
                }
            }
        },
        "genesisRLP": "0xf9023cf90236a00000000000000000000000000000000000000000000000000000000000000000a01dcc4de8dec75d7aab85b567b6ccd41ad312451b948a7413f0a142fd40d49347940000000000000000000000000000000000000000a05963666ca00e2f6d53d486ad3ad65fba1cf2158f741f875a4a9c607ff5b3bd5ea056e81f171bcc55a6ff8345e692c0f86e5b48e01b996cadc001622fb5e363b421a056e81f171bcc55a6ff8345e692c0f86e5b48e01b996cadc001622fb5e363b421b901000000000000000000000000000000000000000000000000000000000000000000000000000000000000000000000000000000000000000000000000000000000000000000000000000000000000000000000000000000000000000000000000000000000000000000000000000000000000000000000000000000000000000000000000000000000000000000000000000000000000000000000000000000000000000000000000000000000000000000000000000000000000000000000000000000000000000000000000000000000000000000000000000000000000000000000000000000000000000000000000000000000000000000000000000000000080808401c9c380808000a000000000000000000000000000000000000000000000000000000000000000008800000000000000000ba056e81f171bcc55a6ff8345e692c0f86e5b48e01b996cadc001622fb5e363b4218080a00000000000000000000000000000000000000000000000000000000000000000c0c0c0",
        "blocks": [
            {
                "blockHeader": {
                    "parentHash": "0xbfa18b47a58512f91c722c5e8a9f53b7e3d8d5f74402c5f3ed785fb064f7b212",
                    "uncleHash": "0x1dcc4de8dec75d7aab85b567b6ccd41ad312451b948a7413f0a142fd40d49347",
                    "coinbase": "0x2adc25665018aa1fe0e6bc666dac8fc2697ff9ba",
                    "stateRoot": "0xac5ca77a615954a7bb2a1619814c0921fad8fbadcdf914c9b64b1a46aa3500a0",
                    "transactionsTrie": "0x36da64b30fdd44b61aa731151c1664c7acaab6fc3fe8658780029677b66b3d84",
                    "receiptTrie": "0x5adbed0c18d65b89f0b3bb58170af8eb7ec187809f22fd38fe5b176f8f88a4ce",
                    "bloom": "0x00000000000000000000000000000000000000000000000000000000000000000000000000000000000000000000000000000000000000000000000000000000000000000000000000000000000000000000000000000000000000000000000000000000000000000000000000000000000000000000000000000000000000000000000000000000000000000000000000000000000000000000000000000000000000000000000000000000000000000000000000000000000000000000000000000000000000000000000000000000000000000000000000000000000000000000000000000000000000000000000000000000000000000000000000000000",
                    "difficulty": "0x00",
                    "number": "0x01",
                    "gasLimit": "0x01c9c380",
                    "gasUsed": "0x017faf",
                    "timestamp": "0x03e8",
                    "extraData": "0x00",
                    "mixHash": "0x0000000000000000000000000000000000000000000000000000000000020000",
                    "nonce": "0x0000000000000000",
                    "baseFeePerGas": "0x0a",
                    "withdrawalsRoot": "0x56e81f171bcc55a6ff8345e692c0f86e5b48e01b996cadc001622fb5e363b421",
                    "blobGasUsed": "0x00",
                    "excessBlobGas": "0x00",
                    "parentBeaconBlockRoot": "0x0000000000000000000000000000000000000000000000000000000000000000",
                    "hash": "0x5c306f226218fa3da1f658d4665dbe444685fe5db57ed5d3d425d0e17daf54a3"
                },
                "transactions": [
                    {
                        "type": "0x00",
                        "chainId": "0x01",
                        "nonce": "0x00",
                        "gasPrice": "0x0a",
                        "gasLimit": "0x2dc6c0",
                        "to": "0xe4552fdc3736d39144e64ad1a1e8253017b0c974",
                        "value": "0x00",
                        "data": "0x000000000000000000000000bf23f3306533431b2ee5e4ca95e0a0834c090105",
                        "v": "0x26",
                        "r": "0xbe4b536b3e27d776348ff11724f922039f85df1a52845fb6627603b239e777c6",
                        "s": "0x44605762a298e8d9c24f8d284515bf1fdeb9c1b190df39608d151444acf87664",
                        "sender": "0xebaf50debf10e08302fe4280c32df010463ca297"
                    }
                ],
                "uncleHeaders": [],
                "withdrawals": [],
                "receipts": [
                    {
                        "transactionHash": "0x90efd8f594d60a388bd3465985b78af22c0a6b65e0217b2d8451ad56363b2b02",
                        "type": "0x00",
                        "cumulativeGasUsed": "0x017faf",
                        "bloom": "0x00000000000000000000000000000000000000000000000000000000000000000000000000000000000000000000000000000000000000000000000000000000000000000000000000000000000000000000000000000000000000000000000000000000000000000000000000000000000000000000000000000000000000000000000000000000000000000000000000000000000000000000000000000000000000000000000000000000000000000000000000000000000000000000000000000000000000000000000000000000000000000000000000000000000000000000000000000000000000000000000000000000000000000000000000000000",
                        "logs": [],
                        "status": true,
                        "rlp": "0xf901090183017fafb9010000000000000000000000000000000000000000000000000000000000000000000000000000000000000000000000000000000000000000000000000000000000000000000000000000000000000000000000000000000000000000000000000000000000000000000000000000000000000000000000000000000000000000000000000000000000000000000000000000000000000000000000000000000000000000000000000000000000000000000000000000000000000000000000000000000000000000000000000000000000000000000000000000000000000000000000000000000000000000000000000000000000000000000000000000000000c0"
                    }
                ],
                "rlp": "0xf902c4f9023ba0bfa18b47a58512f91c722c5e8a9f53b7e3d8d5f74402c5f3ed785fb064f7b212a01dcc4de8dec75d7aab85b567b6ccd41ad312451b948a7413f0a142fd40d49347942adc25665018aa1fe0e6bc666dac8fc2697ff9baa0ac5ca77a615954a7bb2a1619814c0921fad8fbadcdf914c9b64b1a46aa3500a0a036da64b30fdd44b61aa731151c1664c7acaab6fc3fe8658780029677b66b3d84a05adbed0c18d65b89f0b3bb58170af8eb7ec187809f22fd38fe5b176f8f88a4ceb901000000000000000000000000000000000000000000000000000000000000000000000000000000000000000000000000000000000000000000000000000000000000000000000000000000000000000000000000000000000000000000000000000000000000000000000000000000000000000000000000000000000000000000000000000000000000000000000000000000000000000000000000000000000000000000000000000000000000000000000000000000000000000000000000000000000000000000000000000000000000000000000000000000000000000000000000000000000000000000000000000000000000000000000000000000000080018401c9c38083017faf8203e800a000000000000000000000000000000000000000000000000000000000000200008800000000000000000aa056e81f171bcc55a6ff8345e692c0f86e5b48e01b996cadc001622fb5e363b4218080a00000000000000000000000000000000000000000000000000000000000000000f882f880800a832dc6c094e4552fdc3736d39144e64ad1a1e8253017b0c97480a0000000000000000000000000bf23f3306533431b2ee5e4ca95e0a0834c09010526a0be4b536b3e27d776348ff11724f922039f85df1a52845fb6627603b239e777c6a044605762a298e8d9c24f8d284515bf1fdeb9c1b190df39608d151444acf87664c0c0",
                "blocknumber": "1"
            }
        ],
        "sealEngine": "NoProof",
        "_info": {
            "hash": "0x934a6d21ff6cea60e99d22ab8bc7be4f201ee3cdd8d88209e2b9fbefd439392d",
            "fixture-format": "blockchain_test",
            "comment": "`execution-specs` generated test",
            "filling-transition-tool": "2.19.0",
            "description": "Test_static_callcallcallcode_001_2.",
            "url": "https://github.com/ethereum/execution-specs/blob/tests-sn\u00f8bal-devnet-4@v1.0.0/tests/ported_static/stStaticCall/test_static_callcallcallcode_001_2.py#L29",
            "metadata": {
                "opcode_count": {}
            }
        }
    }
}