{
    "tests/ported_static/stSolidityTest/test_recursive_create_contracts_create4_contracts.py::test_recursive_create_contracts_create4_contracts[fork_Cancun-blockchain_test_from_state_test]": {
        "network": "Cancun",
        "genesisBlockHeader": {
            "parentHash": "0x0000000000000000000000000000000000000000000000000000000000000000",
            "uncleHash": "0x1dcc4de8dec75d7aab85b567b6ccd41ad312451b948a7413f0a142fd40d49347",
            "coinbase": "0x0000000000000000000000000000000000000000",
            "stateRoot": "0x026fcdb2099b094795ec3ec40f86c20827172683137be8d31fc2fd533d666c67",
            "transactionsTrie": "0x56e81f171bcc55a6ff8345e692c0f86e5b48e01b996cadc001622fb5e363b421",
            "receiptTrie": "0x56e81f171bcc55a6ff8345e692c0f86e5b48e01b996cadc001622fb5e363b421",
            "bloom": "0x00000000000000000000000000000000000000000000000000000000000000000000000000000000000000000000000000000000000000000000000000000000000000000000000000000000000000000000000000000000000000000000000000000000000000000000000000000000000000000000000000000000000000000000000000000000000000000000000000000000000000000000000000000000000000000000000000000000000000000000000000000000000000000000000000000000000000000000000000000000000000000000000000000000000000000000000000000000000000000000000000000000000000000000000000000000",
            "difficulty": "0x00",
            "number": "0x00",
            "gasLimit": "0x05f5e100",
            "gasUsed": "0x00",
            "timestamp": "0x00",
            "extraData": "0x00",
            "mixHash": "0x0000000000000000000000000000000000000000000000000000000000000000",
            "nonce": "0x0000000000000000",
            "baseFeePerGas": "0x0b",
            "withdrawalsRoot": "0x56e81f171bcc55a6ff8345e692c0f86e5b48e01b996cadc001622fb5e363b421",
            "blobGasUsed": "0x00",
            "excessBlobGas": "0x00",
            "parentBeaconBlockRoot": "0x0000000000000000000000000000000000000000000000000000000000000000",
            "hash": "0x934011bbbd80b6a40d32ceb3aa5ca7b8a15c5c47bd86585d3eab0e26571f008e"
        },
        "pre": {
            "0x000f3df6d732807ef1319fb7b8bb8522d0beac02": {
                "nonce": "0x01",
                "balance": "0x00",
                "code": "0x3373fffffffffffffffffffffffffffffffffffffffe14604d57602036146024575f5ffd5b5f35801560495762001fff810690815414603c575f5ffd5b62001fff01545f5260205ff35b5f5ffd5b62001fff42064281555f359062001fff015500",
                "storage": {}
            },
            "0x095e7baea6a6c7c4c2dfeb977efac326af552d87": {
                "nonce": "0x00",
                "balance": "0x314dc6448d9338c15b0a00000000",
                "code": "0x60003560e060020a90048063820b13f614610021578063a444f5e91461003257005b61002c600435610093565b60006000f35b61003d600435610043565b60006000f35b600073095e7baea6a6c7c4c2dfeb977efac326af552d8760008190555081600181905550606b6101ad600039606b600054600160a060020a0316815260200182815260200160006000f090505050565b600060c86100e560003960c8600054600160a060020a0316815260200182815260200160006000f0905080600160a060020a0316600060026000600060006000848787f16100dd57005b50505050505600604060c860043960045160245160006001820391508160008190555060008211602657604c565b606b605d600039606b83600160a060020a0316815260200182815260200160006000f090505b505050600180605c6000396000f300006040606b6004396004516024516001810390508060008190555060008111602457605b565b81600160a060020a031663820b13f6600060008260e060020a026000526004858152602001600060008660325a03f1605857005b50505b5050600180606a6000396000f300006040606b6004396004516024516001810390508060008190555060008111602457605b565b81600160a060020a031663820b13f6600060008260e060020a026000526004858152602001600060008660325a03f1605857005b50505b5050600180606a6000396000f30000",
                "storage": {}
            },
            "0xa94f5374fce5edbc8e2a8697c15331677e6ebf0b": {
                "nonce": "0x00",
                "balance": "0x1dcd6500",
                "code": "0x",
                "storage": {}
            }
        },
        "postState": {
            "0x000f3df6d732807ef1319fb7b8bb8522d0beac02": {
                "nonce": "0x01",
                "balance": "0x00",
                "code": "0x3373fffffffffffffffffffffffffffffffffffffffe14604d57602036146024575f5ffd5b5f35801560495762001fff810690815414603c575f5ffd5b62001fff01545f5260205ff35b5f5ffd5b62001fff42064281555f359062001fff015500",
                "storage": {
                    "0x03e8": "0x03e8"
                }
            },
            "0x095e7baea6a6c7c4c2dfeb977efac326af552d87": {
                "nonce": "0x03",
                "balance": "0x314dc6448d9338c15b09fffffffd",
                "code": "0x60003560e060020a90048063820b13f614610021578063a444f5e91461003257005b61002c600435610093565b60006000f35b61003d600435610043565b60006000f35b600073095e7baea6a6c7c4c2dfeb977efac326af552d8760008190555081600181905550606b6101ad600039606b600054600160a060020a0316815260200182815260200160006000f090505050565b600060c86100e560003960c8600054600160a060020a0316815260200182815260200160006000f0905080600160a060020a0316600060026000600060006000848787f16100dd57005b50505050505600604060c860043960045160245160006001820391508160008190555060008211602657604c565b606b605d600039606b83600160a060020a0316815260200182815260200160006000f090505b505050600180605c6000396000f300006040606b6004396004516024516001810390508060008190555060008111602457605b565b81600160a060020a031663820b13f6600060008260e060020a026000526004858152602001600060008660325a03f1605857005b50505b5050600180606a6000396000f300006040606b6004396004516024516001810390508060008190555060008111602457605b565b81600160a060020a031663820b13f6600060008260e060020a026000526004858152602001600060008660325a03f1605857005b50505b5050600180606a6000396000f30000",
                "storage": {
                    "0x00": "0x095e7baea6a6c7c4c2dfeb977efac326af552d87",
                    "0x01": "0x04"
                }
            },
            "0xa94f5374fce5edbc8e2a8697c15331677e6ebf0b": {
                "nonce": "0x01",
                "balance": "0x1da2cadd",
                "code": "0x",
                "storage": {}
            },
            "0xd2571607e241ecf590ed94b12d87c94babe36db6": {
                "nonce": "0x01",
                "balance": "0x00",
                "code": "0x00",
                "storage": {
                    "0x00": "0x03"
                }
            },
            "0xb88de88b35ecbf3c141e3caae2baf35834d18f63": {
                "nonce": "0x02",
                "balance": "0x02",
                "code": "0x00",
                "storage": {
                    "0x00": "0x02"
                }
            },
            "0x2b25ae4b13cb6e06869f694d29de45e7614ebd97": {
                "nonce": "0x01",
                "balance": "0x00",
                "code": "0x00",
                "storage": {
                    "0x00": "0x01"
                }
            },
            "0x5d35480c6e7f8952363fa280a0a96906da981f63": {
                "nonce": "0x01",
                "balance": "0x02",
                "code": "0x00",
                "storage": {}
            }
        },
        "lastblockhash": "0x86eba0b76828640411b406bc25306cf193c2dc53ce86d562719d75c7a3786d7d",
        "config": {
            "network": "Cancun",
            "chainid": "0x01",
            "blobSchedule": {
                "Cancun": {
                    "target": "0x03",
                    "max": "0x06",
                    "baseFeeUpdateFraction": "0x32f0ed"
                }
            }
        },
        "genesisRLP": "0xf9023cf90236a00000000000000000000000000000000000000000000000000000000000000000a01dcc4de8dec75d7aab85b567b6ccd41ad312451b948a7413f0a142fd40d49347940000000000000000000000000000000000000000a0026fcdb2099b094795ec3ec40f86c20827172683137be8d31fc2fd533d666c67a056e81f171bcc55a6ff8345e692c0f86e5b48e01b996cadc001622fb5e363b421a056e81f171bcc55a6ff8345e692c0f86e5b48e01b996cadc001622fb5e363b421b901000000000000000000000000000000000000000000000000000000000000000000000000000000000000000000000000000000000000000000000000000000000000000000000000000000000000000000000000000000000000000000000000000000000000000000000000000000000000000000000000000000000000000000000000000000000000000000000000000000000000000000000000000000000000000000000000000000000000000000000000000000000000000000000000000000000000000000000000000000000000000000000000000000000000000000000000000000000000000000000000000000000000000000000000000000000080808405f5e100808000a000000000000000000000000000000000000000000000000000000000000000008800000000000000000ba056e81f171bcc55a6ff8345e692c0f86e5b48e01b996cadc001622fb5e363b4218080a00000000000000000000000000000000000000000000000000000000000000000c0c0c0",
        "blocks": [
            {
                "blockHeader": {
                    "parentHash": "0x934011bbbd80b6a40d32ceb3aa5ca7b8a15c5c47bd86585d3eab0e26571f008e",
                    "uncleHash": "0x1dcc4de8dec75d7aab85b567b6ccd41ad312451b948a7413f0a142fd40d49347",
                    "coinbase": "0x2adc25665018aa1fe0e6bc666dac8fc2697ff9ba",
                    "stateRoot": "0xc3283145453fde5c8feaa864a88c5d251b101dfb03d437412095c3592469cdb7",
                    "transactionsTrie": "0x3a2cc3d4c2baf8950d142b9a12df8ae2d13fd5a527d91192095a3f335f09d378",
                    "receiptTrie": "0x22f4d81653dfe9d403ce41ef4398791fdc8be9cc6f295c97d34fee2f5e821287",
                    "bloom": "0x00000000000000000000000000000000000000000000000000000000000000000000000000000000000000000000000000000000000000000000000000000000000000000000000000000000000000000000000000000000000000000000000000000000000000000000000000000000000000000000000000000000000000000000000000000000000000000000000000000000000000000000000000000000000000000000000000000000000000000000000000000000000000000000000000000000000000000000000000000000000000000000000000000000000000000000000000000000000000000000000000000000000000000000000000000000",
                    "difficulty": "0x00",
                    "number": "0x01",
                    "gasLimit": "0x05f5e100",
                    "gasUsed": "0x04429d",
                    "timestamp": "0x03e8",
                    "extraData": "0x00",
                    "mixHash": "0x0000000000000000000000000000000000000000000000000000000000020000",
                    "nonce": "0x0000000000000000",
                    "baseFeePerGas": "0x0a",
                    "withdrawalsRoot": "0x56e81f171bcc55a6ff8345e692c0f86e5b48e01b996cadc001622fb5e363b421",
                    "blobGasUsed": "0x00",
                    "excessBlobGas": "0x00",
                    "parentBeaconBlockRoot": "0x0000000000000000000000000000000000000000000000000000000000000000",
                    "hash": "0x86eba0b76828640411b406bc25306cf193c2dc53ce86d562719d75c7a3786d7d"
                },
                "transactions": [
                    {
                        "type": "0x00",
                        "chainId": "0x01",
                        "nonce": "0x00",
                        "gasPrice": "0x0a",
                        "gasLimit": "0x0493e0",
                        "to": "0x095e7baea6a6c7c4c2dfeb977efac326af552d87",
                        "value": "0x01",
                        "data": "0xa444f5e90000000000000000000000000000000000000000000000000000000000000004",
                        "v": "0x25",
                        "r": "0xebab4e8a79cebf8b358f3838b122e71748bacae7d2ae2f80c69f9dfaed51310d",
                        "s": "0x5252c93d0997bbd66639a4917fadecaee30f49574dc8215959b7db69ecf952b9",
                        "sender": "0xa94f5374fce5edbc8e2a8697c15331677e6ebf0b"
                    }
                ],
                "uncleHeaders": [],
                "withdrawals": [],
                "receipts": [
                    {
                        "transactionHash": "0x7c424616d4d9a54b206d294d60564d1b24e49c5035af0633bdf3b153d2531626",
                        "type": "0x00",
                        "cumulativeGasUsed": "0x04429d",
                        "bloom": "0x00000000000000000000000000000000000000000000000000000000000000000000000000000000000000000000000000000000000000000000000000000000000000000000000000000000000000000000000000000000000000000000000000000000000000000000000000000000000000000000000000000000000000000000000000000000000000000000000000000000000000000000000000000000000000000000000000000000000000000000000000000000000000000000000000000000000000000000000000000000000000000000000000000000000000000000000000000000000000000000000000000000000000000000000000000000",
                        "logs": [],
                        "status": true,
                        "rlp": "0xf90109018304429db9010000000000000000000000000000000000000000000000000000000000000000000000000000000000000000000000000000000000000000000000000000000000000000000000000000000000000000000000000000000000000000000000000000000000000000000000000000000000000000000000000000000000000000000000000000000000000000000000000000000000000000000000000000000000000000000000000000000000000000000000000000000000000000000000000000000000000000000000000000000000000000000000000000000000000000000000000000000000000000000000000000000000000000000000000000000000c0"
                    }
                ],
                "rlp": "0xf902c8f9023ba0934011bbbd80b6a40d32ceb3aa5ca7b8a15c5c47bd86585d3eab0e26571f008ea01dcc4de8dec75d7aab85b567b6ccd41ad312451b948a7413f0a142fd40d49347942adc25665018aa1fe0e6bc666dac8fc2697ff9baa0c3283145453fde5c8feaa864a88c5d251b101dfb03d437412095c3592469cdb7a03a2cc3d4c2baf8950d142b9a12df8ae2d13fd5a527d91192095a3f335f09d378a022f4d81653dfe9d403ce41ef4398791fdc8be9cc6f295c97d34fee2f5e821287b901000000000000000000000000000000000000000000000000000000000000000000000000000000000000000000000000000000000000000000000000000000000000000000000000000000000000000000000000000000000000000000000000000000000000000000000000000000000000000000000000000000000000000000000000000000000000000000000000000000000000000000000000000000000000000000000000000000000000000000000000000000000000000000000000000000000000000000000000000000000000000000000000000000000000000000000000000000000000000000000000000000000000000000000000000000000080018405f5e1008304429d8203e800a000000000000000000000000000000000000000000000000000000000000200008800000000000000000aa056e81f171bcc55a6ff8345e692c0f86e5b48e01b996cadc001622fb5e363b4218080a00000000000000000000000000000000000000000000000000000000000000000f886f884800a830493e094095e7baea6a6c7c4c2dfeb977efac326af552d8701a4a444f5e9000000000000000000000000000000000000000000000000000000000000000425a0ebab4e8a79cebf8b358f3838b122e71748bacae7d2ae2f80c69f9dfaed51310da05252c93d0997bbd66639a4917fadecaee30f49574dc8215959b7db69ecf952b9c0c0",
                "blocknumber": "1"
            }
        ],
        "sealEngine": "NoProof",
        "_info": {
            "hash": "0x0f86bc9d55daf703e1770433380dcc11637e35b2525337cc4cda83c79645ea15",
            "fixture-format": "blockchain_test",
            "comment": "`execution-specs` generated test",
            "filling-transition-tool": "2.19.0",
            "description": "Test_recursive_create_contracts_create4_contracts.",
            "url": "https://github.com/ethereum/execution-specs/blob/tests-bal@v5.6.0/tests/ported_static/stSolidityTest/test_recursive_create_contracts_create4_contracts.py#L29",
            "metadata": {
                "opcode_count": {}
            }
        }
    }
}