{
    "tests/static/state_tests/stRevertTest/RevertPrefoundEmptyCall_ParisFiller.json::RevertPrefoundEmptyCall_Paris[fork_Cancun-blockchain_test_from_state_test-]": {
        "network": "Cancun",
        "genesisBlockHeader": {
            "parentHash": "0x0000000000000000000000000000000000000000000000000000000000000000",
            "uncleHash": "0x1dcc4de8dec75d7aab85b567b6ccd41ad312451b948a7413f0a142fd40d49347",
            "coinbase": "0x0000000000000000000000000000000000000000",
            "stateRoot": "0x411538eecc45462dfe6493e23ef92ab4716c9dcb24abd3ce1cf11904b5dea6a5",
            "transactionsTrie": "0x56e81f171bcc55a6ff8345e692c0f86e5b48e01b996cadc001622fb5e363b421",
            "receiptTrie": "0x56e81f171bcc55a6ff8345e692c0f86e5b48e01b996cadc001622fb5e363b421",
            "bloom": "0x00000000000000000000000000000000000000000000000000000000000000000000000000000000000000000000000000000000000000000000000000000000000000000000000000000000000000000000000000000000000000000000000000000000000000000000000000000000000000000000000000000000000000000000000000000000000000000000000000000000000000000000000000000000000000000000000000000000000000000000000000000000000000000000000000000000000000000000000000000000000000000000000000000000000000000000000000000000000000000000000000000000000000000000000000000000",
            "difficulty": "0x00",
            "number": "0x00",
            "gasLimit": "0x989680",
            "gasUsed": "0x00",
            "timestamp": "0x00",
            "extraData": "0x00",
            "mixHash": "0x0000000000000000000000000000000000000000000000000000000000000000",
            "nonce": "0x0000000000000000",
            "baseFeePerGas": "0x0b",
            "withdrawalsRoot": "0x56e81f171bcc55a6ff8345e692c0f86e5b48e01b996cadc001622fb5e363b421",
            "blobGasUsed": "0x00",
            "excessBlobGas": "0x00",
            "parentBeaconBlockRoot": "0x0000000000000000000000000000000000000000000000000000000000000000",
            "hash": "0xc9e063f18c71a5eefd8d3db10f522f6efe8cafe87b0904e11d67e7f2bd7c6ab1"
        },
        "pre": {
            "0x000f3df6d732807ef1319fb7b8bb8522d0beac02": {
                "nonce": "0x01",
                "balance": "0x00",
                "code": "0x3373fffffffffffffffffffffffffffffffffffffffe14604d57602036146024575f5ffd5b5f35801560495762001fff810690815414603c575f5ffd5b62001fff01545f5260205ff35b5f5ffd5b62001fff42064281555f359062001fff015500",
                "storage": {}
            },
            "0x76fae819612a29489a1a43208613d8f8557b8898": {
                "nonce": "0x00",
                "balance": "0x0a",
                "code": "0x",
                "storage": {}
            },
            "0x10e193907aa28773cc8f835c3b27bb02d064ce8c": {
                "nonce": "0x00",
                "balance": "0x01",
                "code": "0x602060006020600060007376fae819612a29489a1a43208613d8f8557b889861c350f1600055600c60015500",
                "storage": {}
            },
            "0xfaa10b404ab607779993c016cd5da73ae1f29d7e": {
                "nonce": "0x00",
                "balance": "0xe8d4a51000",
                "code": "0x",
                "storage": {}
            }
        },
        "postState": {
            "0x000f3df6d732807ef1319fb7b8bb8522d0beac02": {
                "nonce": "0x01",
                "balance": "0x00",
                "code": "0x3373fffffffffffffffffffffffffffffffffffffffe14604d57602036146024575f5ffd5b5f35801560495762001fff810690815414603c575f5ffd5b62001fff01545f5260205ff35b5f5ffd5b62001fff42064281555f359062001fff015500",
                "storage": {
                    "0x03e8": "0x03e8"
                }
            },
            "0x76fae819612a29489a1a43208613d8f8557b8898": {
                "nonce": "0x00",
                "balance": "0x0a",
                "code": "0x",
                "storage": {}
            },
            "0x10e193907aa28773cc8f835c3b27bb02d064ce8c": {
                "nonce": "0x00",
                "balance": "0x01",
                "code": "0x602060006020600060007376fae819612a29489a1a43208613d8f8557b889861c350f1600055600c60015500",
                "storage": {
                    "0x00": "0x01",
                    "0x01": "0x0c"
                }
            },
            "0xfaa10b404ab607779993c016cd5da73ae1f29d7e": {
                "nonce": "0x01",
                "balance": "0xe8d49ab646",
                "code": "0x",
                "storage": {}
            }
        },
        "lastblockhash": "0x7153b47cca4036fd78d72f74b19d5f4dac199daab09bd39cd478bd4b12113970",
        "config": {
            "network": "Cancun",
            "chainid": "0x01",
            "blobSchedule": {
                "Cancun": {
                    "target": "0x03",
                    "max": "0x06",
                    "baseFeeUpdateFraction": "0x32f0ed"
                }
            }
        },
        "genesisRLP": "0xf9023bf90235a00000000000000000000000000000000000000000000000000000000000000000a01dcc4de8dec75d7aab85b567b6ccd41ad312451b948a7413f0a142fd40d49347940000000000000000000000000000000000000000a0411538eecc45462dfe6493e23ef92ab4716c9dcb24abd3ce1cf11904b5dea6a5a056e81f171bcc55a6ff8345e692c0f86e5b48e01b996cadc001622fb5e363b421a056e81f171bcc55a6ff8345e692c0f86e5b48e01b996cadc001622fb5e363b421b9010000000000000000000000000000000000000000000000000000000000000000000000000000000000000000000000000000000000000000000000000000000000000000000000000000000000000000000000000000000000000000000000000000000000000000000000000000000000000000000000000000000000000000000000000000000000000000000000000000000000000000000000000000000000000000000000000000000000000000000000000000000000000000000000000000000000000000000000000000000000000000000000000000000000000000000000000000000000000000000000000000000000000000000000000000000000808083989680808000a000000000000000000000000000000000000000000000000000000000000000008800000000000000000ba056e81f171bcc55a6ff8345e692c0f86e5b48e01b996cadc001622fb5e363b4218080a00000000000000000000000000000000000000000000000000000000000000000c0c0c0",
        "blocks": [
            {
                "blockHeader": {
                    "parentHash": "0xc9e063f18c71a5eefd8d3db10f522f6efe8cafe87b0904e11d67e7f2bd7c6ab1",
                    "uncleHash": "0x1dcc4de8dec75d7aab85b567b6ccd41ad312451b948a7413f0a142fd40d49347",
                    "coinbase": "0x2adc25665018aa1fe0e6bc666dac8fc2697ff9ba",
                    "stateRoot": "0xb4db63b5dfdf53179368cb13aa226b90901b62d31894333a2afc1f53b232d209",
                    "transactionsTrie": "0x3b9bcb53cae7e75ac06b024c9762f538b01f83d98c506b0376b8c87c4c2ae930",
                    "receiptTrie": "0x7e1a7dd46f89603cf3c9ac7de1c48704bdda9d1951acd0f07da0dbb6a359043f",
                    "bloom": "0x00000000000000000000000000000000000000000000000000000000000000000000000000000000000000000000000000000000000000000000000000000000000000000000000000000000000000000000000000000000000000000000000000000000000000000000000000000000000000000000000000000000000000000000000000000000000000000000000000000000000000000000000000000000000000000000000000000000000000000000000000000000000000000000000000000000000000000000000000000000000000000000000000000000000000000000000000000000000000000000000000000000000000000000000000000000",
                    "difficulty": "0x00",
                    "number": "0x01",
                    "gasLimit": "0x989680",
                    "gasUsed": "0x0108f9",
                    "timestamp": "0x03e8",
                    "extraData": "0x00",
                    "mixHash": "0x0000000000000000000000000000000000000000000000000000000000020000",
                    "nonce": "0x0000000000000000",
                    "baseFeePerGas": "0x0a",
                    "withdrawalsRoot": "0x56e81f171bcc55a6ff8345e692c0f86e5b48e01b996cadc001622fb5e363b421",
                    "blobGasUsed": "0x00",
                    "excessBlobGas": "0x00",
                    "parentBeaconBlockRoot": "0x0000000000000000000000000000000000000000000000000000000000000000",
                    "hash": "0x7153b47cca4036fd78d72f74b19d5f4dac199daab09bd39cd478bd4b12113970"
                },
                "transactions": [
                    {
                        "type": "0x00",
                        "chainId": "0x01",
                        "nonce": "0x00",
                        "gasPrice": "0x0a",
                        "gasLimit": "0x016f30",
                        "to": "0x10e193907aa28773cc8f835c3b27bb02d064ce8c",
                        "value": "0x00",
                        "data": "0x",
                        "v": "0x26",
                        "r": "0x0e40e89db659d73a21538642f7d75afb149f071d30b2f674ad03582aa672724d",
                        "s": "0x7d2fb40dd9b5774f4269fd506fb9ce969d7e661de76cdbe30371929ef3c1967d",
                        "sender": "0xfaa10b404ab607779993c016cd5da73ae1f29d7e"
                    }
                ],
                "uncleHeaders": [],
                "withdrawals": [],
                "receipts": [
                    {
                        "transactionHash": "0xff3cecc6c9053a68b8c3025c23e9fa92b3ca8941a4f82f47cba1f4a28f5aa1b4",
                        "type": "0x00",
                        "cumulativeGasUsed": "0x0108f9",
                        "bloom": "0x00000000000000000000000000000000000000000000000000000000000000000000000000000000000000000000000000000000000000000000000000000000000000000000000000000000000000000000000000000000000000000000000000000000000000000000000000000000000000000000000000000000000000000000000000000000000000000000000000000000000000000000000000000000000000000000000000000000000000000000000000000000000000000000000000000000000000000000000000000000000000000000000000000000000000000000000000000000000000000000000000000000000000000000000000000000",
                        "logs": [],
                        "status": true,
                        "rlp": "0xf9010901830108f9b9010000000000000000000000000000000000000000000000000000000000000000000000000000000000000000000000000000000000000000000000000000000000000000000000000000000000000000000000000000000000000000000000000000000000000000000000000000000000000000000000000000000000000000000000000000000000000000000000000000000000000000000000000000000000000000000000000000000000000000000000000000000000000000000000000000000000000000000000000000000000000000000000000000000000000000000000000000000000000000000000000000000000000000000000000000000000c0"
                    }
                ],
                "rlp": "0xf902a3f9023aa0c9e063f18c71a5eefd8d3db10f522f6efe8cafe87b0904e11d67e7f2bd7c6ab1a01dcc4de8dec75d7aab85b567b6ccd41ad312451b948a7413f0a142fd40d49347942adc25665018aa1fe0e6bc666dac8fc2697ff9baa0b4db63b5dfdf53179368cb13aa226b90901b62d31894333a2afc1f53b232d209a03b9bcb53cae7e75ac06b024c9762f538b01f83d98c506b0376b8c87c4c2ae930a07e1a7dd46f89603cf3c9ac7de1c48704bdda9d1951acd0f07da0dbb6a359043fb9010000000000000000000000000000000000000000000000000000000000000000000000000000000000000000000000000000000000000000000000000000000000000000000000000000000000000000000000000000000000000000000000000000000000000000000000000000000000000000000000000000000000000000000000000000000000000000000000000000000000000000000000000000000000000000000000000000000000000000000000000000000000000000000000000000000000000000000000000000000000000000000000000000000000000000000000000000000000000000000000000000000000000000000000000000000000800183989680830108f98203e800a000000000000000000000000000000000000000000000000000000000000200008800000000000000000aa056e81f171bcc55a6ff8345e692c0f86e5b48e01b996cadc001622fb5e363b4218080a00000000000000000000000000000000000000000000000000000000000000000f862f860800a83016f309410e193907aa28773cc8f835c3b27bb02d064ce8c808026a00e40e89db659d73a21538642f7d75afb149f071d30b2f674ad03582aa672724da07d2fb40dd9b5774f4269fd506fb9ce969d7e661de76cdbe30371929ef3c1967dc0c0",
                "blocknumber": "1"
            }
        ],
        "sealEngine": "NoProof",
        "_info": {
            "hash": "0x2f1344acb78f582a974b01eb94d0a82a99be2dbe7dd26bd617398253902dd49c",
            "fixture-format": "blockchain_test",
            "comment": "`execution-specs` generated test",
            "filling-transition-tool": "2.19.0",
            "description": "No description available - add a docstring to the python test class or function.",
            "url": "",
            "opcode_count": {}
        }
    }
}