{
    "tests/homestead/identity_precompile/test_identity.py::test_identity_return_buffer_modify[fork_London-call_opcode_CALL-blockchain_test_from_state_test]": {
        "network": "London",
        "genesisBlockHeader": {
            "parentHash": "0x0000000000000000000000000000000000000000000000000000000000000000",
            "uncleHash": "0x1dcc4de8dec75d7aab85b567b6ccd41ad312451b948a7413f0a142fd40d49347",
            "coinbase": "0x0000000000000000000000000000000000000000",
            "stateRoot": "0x5f5bdf7f47c6e753321fe121a54723686863f8c38bc3c3883b02d652be3fb078",
            "transactionsTrie": "0x56e81f171bcc55a6ff8345e692c0f86e5b48e01b996cadc001622fb5e363b421",
            "receiptTrie": "0x56e81f171bcc55a6ff8345e692c0f86e5b48e01b996cadc001622fb5e363b421",
            "bloom": "0x00000000000000000000000000000000000000000000000000000000000000000000000000000000000000000000000000000000000000000000000000000000000000000000000000000000000000000000000000000000000000000000000000000000000000000000000000000000000000000000000000000000000000000000000000000000000000000000000000000000000000000000000000000000000000000000000000000000000000000000000000000000000000000000000000000000000000000000000000000000000000000000000000000000000000000000000000000000000000000000000000000000000000000000000000000000",
            "difficulty": "0x020000",
            "number": "0x00",
            "gasLimit": "0x07270e00",
            "gasUsed": "0x00",
            "timestamp": "0x00",
            "extraData": "0x00",
            "mixHash": "0x0000000000000000000000000000000000000000000000000000000000000000",
            "nonce": "0x0000000000000000",
            "baseFeePerGas": "0x07",
            "hash": "0x0e7c8b31ad084d636c1892fd327b1007a7e4bf74c634e464576c5796ace73a25"
        },
        "pre": {
            "0xc42289b53b751e60c7eab06e690e4a08aee847da": {
                "nonce": "0x01",
                "balance": "0x00",
                "code": "0x60016000536002600153600360025360046003536000600060046000600060045af1600560005360056004533d600060003e59600020600155",
                "storage": {}
            },
            "0x1ad9bc24818784172ff393bb6f89f094d4d2ca29": {
                "nonce": "0x00",
                "balance": "0x3635c9adc5dea00000",
                "code": "0x",
                "storage": {}
            }
        },
        "postState": {
            "0xc42289b53b751e60c7eab06e690e4a08aee847da": {
                "nonce": "0x01",
                "balance": "0x00",
                "code": "0x60016000536002600153600360025360046003536000600060046000600060045af1600560005360056004533d600060003e59600020600155",
                "storage": {
                    "0x01": "0x812150976c7d947d306ebebd5335d380f3706d62cb64ade7639ef5fc32d3039f"
                }
            },
            "0x1ad9bc24818784172ff393bb6f89f094d4d2ca29": {
                "nonce": "0x01",
                "balance": "0x3635c9adc5de996286",
                "code": "0x",
                "storage": {}
            },
            "0x2adc25665018aa1fe0e6bc666dac8fc2697ff9ba": {
                "nonce": "0x00",
                "balance": "0x1bc16d674ec9fc0b",
                "code": "0x",
                "storage": {}
            }
        },
        "lastblockhash": "0x46657177edebb5cca9be2a764e4ec9d2aa28160f516f439480e835cbc6e668eb",
        "config": {
            "network": "London",
            "chainid": "0x01"
        },
        "genesisRLP": "0xf901faf901f5a00000000000000000000000000000000000000000000000000000000000000000a01dcc4de8dec75d7aab85b567b6ccd41ad312451b948a7413f0a142fd40d49347940000000000000000000000000000000000000000a05f5bdf7f47c6e753321fe121a54723686863f8c38bc3c3883b02d652be3fb078a056e81f171bcc55a6ff8345e692c0f86e5b48e01b996cadc001622fb5e363b421a056e81f171bcc55a6ff8345e692c0f86e5b48e01b996cadc001622fb5e363b421b901000000000000000000000000000000000000000000000000000000000000000000000000000000000000000000000000000000000000000000000000000000000000000000000000000000000000000000000000000000000000000000000000000000000000000000000000000000000000000000000000000000000000000000000000000000000000000000000000000000000000000000000000000000000000000000000000000000000000000000000000000000000000000000000000000000000000000000000000000000000000000000000000000000000000000000000000000000000000000000000000000000000000000000000000000000000083020000808407270e00808000a0000000000000000000000000000000000000000000000000000000000000000088000000000000000007c0c0",
        "blocks": [
            {
                "blockHeader": {
                    "parentHash": "0x0e7c8b31ad084d636c1892fd327b1007a7e4bf74c634e464576c5796ace73a25",
                    "uncleHash": "0x1dcc4de8dec75d7aab85b567b6ccd41ad312451b948a7413f0a142fd40d49347",
                    "coinbase": "0x2adc25665018aa1fe0e6bc666dac8fc2697ff9ba",
                    "stateRoot": "0x479a685864e8b5060334341edf755acef6aeb8540a6ab33a96089480e22b3305",
                    "transactionsTrie": "0xb29338d7d142561776863ba72483efb40516da73e9ad6f10e7bf57f301ac67b5",
                    "receiptTrie": "0xb892401353497f717527316de77176b07e521bfde0107614a762635afd57d42d",
                    "bloom": "0x00000000000000000000000000000000000000000000000000000000000000000000000000000000000000000000000000000000000000000000000000000000000000000000000000000000000000000000000000000000000000000000000000000000000000000000000000000000000000000000000000000000000000000000000000000000000000000000000000000000000000000000000000000000000000000000000000000000000000000000000000000000000000000000000000000000000000000000000000000000000000000000000000000000000000000000000000000000000000000000000000000000000000000000000000000000",
                    "difficulty": "0x020000",
                    "number": "0x01",
                    "gasLimit": "0x07270e00",
                    "gasUsed": "0xa959",
                    "timestamp": "0x03e8",
                    "extraData": "0x00",
                    "mixHash": "0x0000000000000000000000000000000000000000000000000000000000000000",
                    "nonce": "0x0000000000000000",
                    "baseFeePerGas": "0x07",
                    "hash": "0x46657177edebb5cca9be2a764e4ec9d2aa28160f516f439480e835cbc6e668eb"
                },
                "transactions": [
                    {
                        "type": "0x00",
                        "chainId": "0x01",
                        "nonce": "0x00",
                        "gasPrice": "0x0a",
                        "gasLimit": "0x0186a0",
                        "to": "0xc42289b53b751e60c7eab06e690e4a08aee847da",
                        "value": "0x00",
                        "data": "0x",
                        "v": "0x25",
                        "r": "0x81d5eb32730df76bb32880463aeefc0cd272fcf930d6eba15e4e8f6b6bf3949d",
                        "s": "0x07ed9d23aa9a4ac36a9af669ced772c9a5a9d50272d1f1cbb44f333f2d08c91b",
                        "sender": "0x1ad9bc24818784172ff393bb6f89f094d4d2ca29"
                    }
                ],
                "uncleHeaders": [],
                "receipts": [
                    {
                        "transactionHash": "0x5295175171df495191eeb9572bf9339786576b4f6eb23cfca0ae05d87b4ec113",
                        "type": "0x00",
                        "cumulativeGasUsed": "0xa959",
                        "bloom": "0x00000000000000000000000000000000000000000000000000000000000000000000000000000000000000000000000000000000000000000000000000000000000000000000000000000000000000000000000000000000000000000000000000000000000000000000000000000000000000000000000000000000000000000000000000000000000000000000000000000000000000000000000000000000000000000000000000000000000000000000000000000000000000000000000000000000000000000000000000000000000000000000000000000000000000000000000000000000000000000000000000000000000000000000000000000000",
                        "logs": [],
                        "status": true,
                        "rlp": "0xf901080182a959b9010000000000000000000000000000000000000000000000000000000000000000000000000000000000000000000000000000000000000000000000000000000000000000000000000000000000000000000000000000000000000000000000000000000000000000000000000000000000000000000000000000000000000000000000000000000000000000000000000000000000000000000000000000000000000000000000000000000000000000000000000000000000000000000000000000000000000000000000000000000000000000000000000000000000000000000000000000000000000000000000000000000000000000000000000000000000c0"
                    }
                ],
                "rlp": "0xf90261f901f9a00e7c8b31ad084d636c1892fd327b1007a7e4bf74c634e464576c5796ace73a25a01dcc4de8dec75d7aab85b567b6ccd41ad312451b948a7413f0a142fd40d49347942adc25665018aa1fe0e6bc666dac8fc2697ff9baa0479a685864e8b5060334341edf755acef6aeb8540a6ab33a96089480e22b3305a0b29338d7d142561776863ba72483efb40516da73e9ad6f10e7bf57f301ac67b5a0b892401353497f717527316de77176b07e521bfde0107614a762635afd57d42db901000000000000000000000000000000000000000000000000000000000000000000000000000000000000000000000000000000000000000000000000000000000000000000000000000000000000000000000000000000000000000000000000000000000000000000000000000000000000000000000000000000000000000000000000000000000000000000000000000000000000000000000000000000000000000000000000000000000000000000000000000000000000000000000000000000000000000000000000000000000000000000000000000000000000000000000000000000000000000000000000000000000000000000000000000000000083020000018407270e0082a9598203e800a0000000000000000000000000000000000000000000000000000000000000000088000000000000000007f862f860800a830186a094c42289b53b751e60c7eab06e690e4a08aee847da808025a081d5eb32730df76bb32880463aeefc0cd272fcf930d6eba15e4e8f6b6bf3949da007ed9d23aa9a4ac36a9af669ced772c9a5a9d50272d1f1cbb44f333f2d08c91bc0",
                "blocknumber": "1"
            }
        ],
        "sealEngine": "NoProof",
        "_info": {
            "hash": "0xe250ed685410daaa4a668e82a9aaeb0c98ac9881621132d83818a9a5e299d9db",
            "fixture-format": "blockchain_test",
            "comment": "`execution-specs` generated test",
            "filling-transition-tool": "2.19.0",
            "description": "Test the modification of the input range to attempt to modify the return\nbuffer.",
            "url": "https://github.com/ethereum/execution-specs/blob/tests-bal@v5.7.0/tests/homestead/identity_precompile/test_identity.py#L61",
            "metadata": {
                "opcode_count": {}
            }
        }
    },
    "tests/homestead/identity_precompile/test_identity.py::test_identity_return_buffer_modify[fork_London-call_opcode_CALLCODE-blockchain_test_from_state_test]": {
        "network": "London",
        "genesisBlockHeader": {
            "parentHash": "0x0000000000000000000000000000000000000000000000000000000000000000",
            "uncleHash": "0x1dcc4de8dec75d7aab85b567b6ccd41ad312451b948a7413f0a142fd40d49347",
            "coinbase": "0x0000000000000000000000000000000000000000",
            "stateRoot": "0xf438785bfa5b015ce11c87db712ccdcbce49c24e2f2b9e48d91151cf00990aba",
            "transactionsTrie": "0x56e81f171bcc55a6ff8345e692c0f86e5b48e01b996cadc001622fb5e363b421",
            "receiptTrie": "0x56e81f171bcc55a6ff8345e692c0f86e5b48e01b996cadc001622fb5e363b421",
            "bloom": "0x00000000000000000000000000000000000000000000000000000000000000000000000000000000000000000000000000000000000000000000000000000000000000000000000000000000000000000000000000000000000000000000000000000000000000000000000000000000000000000000000000000000000000000000000000000000000000000000000000000000000000000000000000000000000000000000000000000000000000000000000000000000000000000000000000000000000000000000000000000000000000000000000000000000000000000000000000000000000000000000000000000000000000000000000000000000",
            "difficulty": "0x020000",
            "number": "0x00",
            "gasLimit": "0x07270e00",
            "gasUsed": "0x00",
            "timestamp": "0x00",
            "extraData": "0x00",
            "mixHash": "0x0000000000000000000000000000000000000000000000000000000000000000",
            "nonce": "0x0000000000000000",
            "baseFeePerGas": "0x07",
            "hash": "0x9719087d5b61ab4b2d154e28d47b87024b19757d21d2eacfee14736361eb8cc9"
        },
        "pre": {
            "0x8008876cac7f34fa311d9b7d98bb44c3b2fb726f": {
                "nonce": "0x01",
                "balance": "0x00",
                "code": "0x60016000536002600153600360025360046003536000600060046000600060045af2600560005360056004533d600060003e59600020600155",
                "storage": {}
            },
            "0x1ad9bc24818784172ff393bb6f89f094d4d2ca29": {
                "nonce": "0x00",
                "balance": "0x3635c9adc5dea00000",
                "code": "0x",
                "storage": {}
            }
        },
        "postState": {
            "0x8008876cac7f34fa311d9b7d98bb44c3b2fb726f": {
                "nonce": "0x01",
                "balance": "0x00",
                "code": "0x60016000536002600153600360025360046003536000600060046000600060045af2600560005360056004533d600060003e59600020600155",
                "storage": {
                    "0x01": "0x812150976c7d947d306ebebd5335d380f3706d62cb64ade7639ef5fc32d3039f"
                }
            },
            "0x1ad9bc24818784172ff393bb6f89f094d4d2ca29": {
                "nonce": "0x01",
                "balance": "0x3635c9adc5de996286",
                "code": "0x",
                "storage": {}
            },
            "0x2adc25665018aa1fe0e6bc666dac8fc2697ff9ba": {
                "nonce": "0x00",
                "balance": "0x1bc16d674ec9fc0b",
                "code": "0x",
                "storage": {}
            }
        },
        "lastblockhash": "0x6ef6882b400625a65e3998449ccf57457315516248db0134922bf33816101635",
        "config": {
            "network": "London",
            "chainid": "0x01"
        },
        "genesisRLP": "0xf901faf901f5a00000000000000000000000000000000000000000000000000000000000000000a01dcc4de8dec75d7aab85b567b6ccd41ad312451b948a7413f0a142fd40d49347940000000000000000000000000000000000000000a0f438785bfa5b015ce11c87db712ccdcbce49c24e2f2b9e48d91151cf00990abaa056e81f171bcc55a6ff8345e692c0f86e5b48e01b996cadc001622fb5e363b421a056e81f171bcc55a6ff8345e692c0f86e5b48e01b996cadc001622fb5e363b421b901000000000000000000000000000000000000000000000000000000000000000000000000000000000000000000000000000000000000000000000000000000000000000000000000000000000000000000000000000000000000000000000000000000000000000000000000000000000000000000000000000000000000000000000000000000000000000000000000000000000000000000000000000000000000000000000000000000000000000000000000000000000000000000000000000000000000000000000000000000000000000000000000000000000000000000000000000000000000000000000000000000000000000000000000000000000083020000808407270e00808000a0000000000000000000000000000000000000000000000000000000000000000088000000000000000007c0c0",
        "blocks": [
            {
                "blockHeader": {
                    "parentHash": "0x9719087d5b61ab4b2d154e28d47b87024b19757d21d2eacfee14736361eb8cc9",
                    "uncleHash": "0x1dcc4de8dec75d7aab85b567b6ccd41ad312451b948a7413f0a142fd40d49347",
                    "coinbase": "0x2adc25665018aa1fe0e6bc666dac8fc2697ff9ba",
                    "stateRoot": "0x204ad698c242e966a5931afe65e2b96b1c120977b0e8ee61ee6804fd8ca0a34e",
                    "transactionsTrie": "0xf71b279c1549f3e5bc4e528d51d21622e4d7eb44f012e6ccf3be46efd6cd0da1",
                    "receiptTrie": "0xb892401353497f717527316de77176b07e521bfde0107614a762635afd57d42d",
                    "bloom": "0x00000000000000000000000000000000000000000000000000000000000000000000000000000000000000000000000000000000000000000000000000000000000000000000000000000000000000000000000000000000000000000000000000000000000000000000000000000000000000000000000000000000000000000000000000000000000000000000000000000000000000000000000000000000000000000000000000000000000000000000000000000000000000000000000000000000000000000000000000000000000000000000000000000000000000000000000000000000000000000000000000000000000000000000000000000000",
                    "difficulty": "0x020000",
                    "number": "0x01",
                    "gasLimit": "0x07270e00",
                    "gasUsed": "0xa959",
                    "timestamp": "0x03e8",
                    "extraData": "0x00",
                    "mixHash": "0x0000000000000000000000000000000000000000000000000000000000000000",
                    "nonce": "0x0000000000000000",
                    "baseFeePerGas": "0x07",
                    "hash": "0x6ef6882b400625a65e3998449ccf57457315516248db0134922bf33816101635"
                },
                "transactions": [
                    {
                        "type": "0x00",
                        "chainId": "0x01",
                        "nonce": "0x00",
                        "gasPrice": "0x0a",
                        "gasLimit": "0x0186a0",
                        "to": "0x8008876cac7f34fa311d9b7d98bb44c3b2fb726f",
                        "value": "0x00",
                        "data": "0x",
                        "v": "0x25",
                        "r": "0x4b5d16f1e031af9f47ef0faf4dc68bfd715b59188f69d73fb300bb08c32332ba",
                        "s": "0x0360b988d38d62f62d1370c87a52055cb7c2ce26622def8dff4c6f35cf2c343e",
                        "sender": "0x1ad9bc24818784172ff393bb6f89f094d4d2ca29"
                    }
                ],
                "uncleHeaders": [],
                "receipts": [
                    {
                        "transactionHash": "0x3dac9114795af6062df539f7477426d241f2fa9fdf2274f012d26982e88d2821",
                        "type": "0x00",
                        "cumulativeGasUsed": "0xa959",
                        "bloom": "0x00000000000000000000000000000000000000000000000000000000000000000000000000000000000000000000000000000000000000000000000000000000000000000000000000000000000000000000000000000000000000000000000000000000000000000000000000000000000000000000000000000000000000000000000000000000000000000000000000000000000000000000000000000000000000000000000000000000000000000000000000000000000000000000000000000000000000000000000000000000000000000000000000000000000000000000000000000000000000000000000000000000000000000000000000000000",
                        "logs": [],
                        "status": true,
                        "rlp": "0xf901080182a959b9010000000000000000000000000000000000000000000000000000000000000000000000000000000000000000000000000000000000000000000000000000000000000000000000000000000000000000000000000000000000000000000000000000000000000000000000000000000000000000000000000000000000000000000000000000000000000000000000000000000000000000000000000000000000000000000000000000000000000000000000000000000000000000000000000000000000000000000000000000000000000000000000000000000000000000000000000000000000000000000000000000000000000000000000000000000000c0"
                    }
                ],
                "rlp": "0xf90261f901f9a09719087d5b61ab4b2d154e28d47b87024b19757d21d2eacfee14736361eb8cc9a01dcc4de8dec75d7aab85b567b6ccd41ad312451b948a7413f0a142fd40d49347942adc25665018aa1fe0e6bc666dac8fc2697ff9baa0204ad698c242e966a5931afe65e2b96b1c120977b0e8ee61ee6804fd8ca0a34ea0f71b279c1549f3e5bc4e528d51d21622e4d7eb44f012e6ccf3be46efd6cd0da1a0b892401353497f717527316de77176b07e521bfde0107614a762635afd57d42db901000000000000000000000000000000000000000000000000000000000000000000000000000000000000000000000000000000000000000000000000000000000000000000000000000000000000000000000000000000000000000000000000000000000000000000000000000000000000000000000000000000000000000000000000000000000000000000000000000000000000000000000000000000000000000000000000000000000000000000000000000000000000000000000000000000000000000000000000000000000000000000000000000000000000000000000000000000000000000000000000000000000000000000000000000000000083020000018407270e0082a9598203e800a0000000000000000000000000000000000000000000000000000000000000000088000000000000000007f862f860800a830186a0948008876cac7f34fa311d9b7d98bb44c3b2fb726f808025a04b5d16f1e031af9f47ef0faf4dc68bfd715b59188f69d73fb300bb08c32332baa00360b988d38d62f62d1370c87a52055cb7c2ce26622def8dff4c6f35cf2c343ec0",
                "blocknumber": "1"
            }
        ],
        "sealEngine": "NoProof",
        "_info": {
            "hash": "0xb09d4d2eee9579e397afb11199b031bfabf29b2cf65185fa26ba8e0dd37d3e14",
            "fixture-format": "blockchain_test",
            "comment": "`execution-specs` generated test",
            "filling-transition-tool": "2.19.0",
            "description": "Test the modification of the input range to attempt to modify the return\nbuffer.",
            "url": "https://github.com/ethereum/execution-specs/blob/tests-bal@v5.7.0/tests/homestead/identity_precompile/test_identity.py#L61",
            "metadata": {
                "opcode_count": {}
            }
        }
    },
    "tests/homestead/identity_precompile/test_identity.py::test_identity_return_buffer_modify[fork_London-call_opcode_DELEGATECALL-blockchain_test_from_state_test]": {
        "network": "London",
        "genesisBlockHeader": {
            "parentHash": "0x0000000000000000000000000000000000000000000000000000000000000000",
            "uncleHash": "0x1dcc4de8dec75d7aab85b567b6ccd41ad312451b948a7413f0a142fd40d49347",
            "coinbase": "0x0000000000000000000000000000000000000000",
            "stateRoot": "0xbe4a70351e1e2b0a4955930a4f28c5fce7cd6dd23546778a02c17fc3045c6c87",
            "transactionsTrie": "0x56e81f171bcc55a6ff8345e692c0f86e5b48e01b996cadc001622fb5e363b421",
            "receiptTrie": "0x56e81f171bcc55a6ff8345e692c0f86e5b48e01b996cadc001622fb5e363b421",
            "bloom": "0x00000000000000000000000000000000000000000000000000000000000000000000000000000000000000000000000000000000000000000000000000000000000000000000000000000000000000000000000000000000000000000000000000000000000000000000000000000000000000000000000000000000000000000000000000000000000000000000000000000000000000000000000000000000000000000000000000000000000000000000000000000000000000000000000000000000000000000000000000000000000000000000000000000000000000000000000000000000000000000000000000000000000000000000000000000000",
            "difficulty": "0x020000",
            "number": "0x00",
            "gasLimit": "0x07270e00",
            "gasUsed": "0x00",
            "timestamp": "0x00",
            "extraData": "0x00",
            "mixHash": "0x0000000000000000000000000000000000000000000000000000000000000000",
            "nonce": "0x0000000000000000",
            "baseFeePerGas": "0x07",
            "hash": "0x214ca37de5cce8bcf6c37fdcb88c148042ea1d9eac3a088140e97b6d6bab3fc9"
        },
        "pre": {
            "0xb889f3789020f56dab5f3407b59e5aeba7075423": {
                "nonce": "0x01",
                "balance": "0x00",
                "code": "0x6001600053600260015360036002536004600353600060006004600060045af4600560005360056004533d600060003e59600020600155",
                "storage": {}
            },
            "0x1ad9bc24818784172ff393bb6f89f094d4d2ca29": {
                "nonce": "0x00",
                "balance": "0x3635c9adc5dea00000",
                "code": "0x",
                "storage": {}
            }
        },
        "postState": {
            "0xb889f3789020f56dab5f3407b59e5aeba7075423": {
                "nonce": "0x01",
                "balance": "0x00",
                "code": "0x6001600053600260015360036002536004600353600060006004600060045af4600560005360056004533d600060003e59600020600155",
                "storage": {
                    "0x01": "0x812150976c7d947d306ebebd5335d380f3706d62cb64ade7639ef5fc32d3039f"
                }
            },
            "0x1ad9bc24818784172ff393bb6f89f094d4d2ca29": {
                "nonce": "0x01",
                "balance": "0x3635c9adc5de9962a4",
                "code": "0x",
                "storage": {}
            },
            "0x2adc25665018aa1fe0e6bc666dac8fc2697ff9ba": {
                "nonce": "0x00",
                "balance": "0x1bc16d674ec9fc02",
                "code": "0x",
                "storage": {}
            }
        },
        "lastblockhash": "0x6e3f68ccbeec7fe0a4be1fe13ba1e330428e0f55999a32b14fe28aa875fd3e4e",
        "config": {
            "network": "London",
            "chainid": "0x01"
        },
        "genesisRLP": "0xf901faf901f5a00000000000000000000000000000000000000000000000000000000000000000a01dcc4de8dec75d7aab85b567b6ccd41ad312451b948a7413f0a142fd40d49347940000000000000000000000000000000000000000a0be4a70351e1e2b0a4955930a4f28c5fce7cd6dd23546778a02c17fc3045c6c87a056e81f171bcc55a6ff8345e692c0f86e5b48e01b996cadc001622fb5e363b421a056e81f171bcc55a6ff8345e692c0f86e5b48e01b996cadc001622fb5e363b421b901000000000000000000000000000000000000000000000000000000000000000000000000000000000000000000000000000000000000000000000000000000000000000000000000000000000000000000000000000000000000000000000000000000000000000000000000000000000000000000000000000000000000000000000000000000000000000000000000000000000000000000000000000000000000000000000000000000000000000000000000000000000000000000000000000000000000000000000000000000000000000000000000000000000000000000000000000000000000000000000000000000000000000000000000000000000083020000808407270e00808000a0000000000000000000000000000000000000000000000000000000000000000088000000000000000007c0c0",
        "blocks": [
            {
                "blockHeader": {
                    "parentHash": "0x214ca37de5cce8bcf6c37fdcb88c148042ea1d9eac3a088140e97b6d6bab3fc9",
                    "uncleHash": "0x1dcc4de8dec75d7aab85b567b6ccd41ad312451b948a7413f0a142fd40d49347",
                    "coinbase": "0x2adc25665018aa1fe0e6bc666dac8fc2697ff9ba",
                    "stateRoot": "0x01ff754c8e27453158465a981b0f8ab55ddbf2548c1112012f627a713d4daa91",
                    "transactionsTrie": "0x665e60dac5cb8a6b60ee670a05b1225a3b441c97007e342847e70c18717ae3dd",
                    "receiptTrie": "0x5951add083509772bf4e74a5400fdd2db0b83ec1ccee2bbe3bc59ecad974556d",
                    "bloom": "0x00000000000000000000000000000000000000000000000000000000000000000000000000000000000000000000000000000000000000000000000000000000000000000000000000000000000000000000000000000000000000000000000000000000000000000000000000000000000000000000000000000000000000000000000000000000000000000000000000000000000000000000000000000000000000000000000000000000000000000000000000000000000000000000000000000000000000000000000000000000000000000000000000000000000000000000000000000000000000000000000000000000000000000000000000000000",
                    "difficulty": "0x020000",
                    "number": "0x01",
                    "gasLimit": "0x07270e00",
                    "gasUsed": "0xa956",
                    "timestamp": "0x03e8",
                    "extraData": "0x00",
                    "mixHash": "0x0000000000000000000000000000000000000000000000000000000000000000",
                    "nonce": "0x0000000000000000",
                    "baseFeePerGas": "0x07",
                    "hash": "0x6e3f68ccbeec7fe0a4be1fe13ba1e330428e0f55999a32b14fe28aa875fd3e4e"
                },
                "transactions": [
                    {
                        "type": "0x00",
                        "chainId": "0x01",
                        "nonce": "0x00",
                        "gasPrice": "0x0a",
                        "gasLimit": "0x0186a0",
                        "to": "0xb889f3789020f56dab5f3407b59e5aeba7075423",
                        "value": "0x00",
                        "data": "0x",
                        "v": "0x26",
                        "r": "0x7fb9498b38dd0394f0e07daa6121d7e187f0ebdb75789b0d38fc3ff5466ecb57",
                        "s": "0x15a45ba34024ba2ad114dca20703799257e1751968f0f360fcd055c84762bedb",
                        "sender": "0x1ad9bc24818784172ff393bb6f89f094d4d2ca29"
                    }
                ],
                "uncleHeaders": [],
                "receipts": [
                    {
                        "transactionHash": "0xecd1b7e1e22ef07bcb53f11e13bf24be73ee12b7cdb838f38a0b0091744ce0a3",
                        "type": "0x00",
                        "cumulativeGasUsed": "0xa956",
                        "bloom": "0x00000000000000000000000000000000000000000000000000000000000000000000000000000000000000000000000000000000000000000000000000000000000000000000000000000000000000000000000000000000000000000000000000000000000000000000000000000000000000000000000000000000000000000000000000000000000000000000000000000000000000000000000000000000000000000000000000000000000000000000000000000000000000000000000000000000000000000000000000000000000000000000000000000000000000000000000000000000000000000000000000000000000000000000000000000000",
                        "logs": [],
                        "status": true,
                        "rlp": "0xf901080182a956b9010000000000000000000000000000000000000000000000000000000000000000000000000000000000000000000000000000000000000000000000000000000000000000000000000000000000000000000000000000000000000000000000000000000000000000000000000000000000000000000000000000000000000000000000000000000000000000000000000000000000000000000000000000000000000000000000000000000000000000000000000000000000000000000000000000000000000000000000000000000000000000000000000000000000000000000000000000000000000000000000000000000000000000000000000000000000c0"
                    }
                ],
                "rlp": "0xf90261f901f9a0214ca37de5cce8bcf6c37fdcb88c148042ea1d9eac3a088140e97b6d6bab3fc9a01dcc4de8dec75d7aab85b567b6ccd41ad312451b948a7413f0a142fd40d49347942adc25665018aa1fe0e6bc666dac8fc2697ff9baa001ff754c8e27453158465a981b0f8ab55ddbf2548c1112012f627a713d4daa91a0665e60dac5cb8a6b60ee670a05b1225a3b441c97007e342847e70c18717ae3dda05951add083509772bf4e74a5400fdd2db0b83ec1ccee2bbe3bc59ecad974556db901000000000000000000000000000000000000000000000000000000000000000000000000000000000000000000000000000000000000000000000000000000000000000000000000000000000000000000000000000000000000000000000000000000000000000000000000000000000000000000000000000000000000000000000000000000000000000000000000000000000000000000000000000000000000000000000000000000000000000000000000000000000000000000000000000000000000000000000000000000000000000000000000000000000000000000000000000000000000000000000000000000000000000000000000000000000083020000018407270e0082a9568203e800a0000000000000000000000000000000000000000000000000000000000000000088000000000000000007f862f860800a830186a094b889f3789020f56dab5f3407b59e5aeba7075423808026a07fb9498b38dd0394f0e07daa6121d7e187f0ebdb75789b0d38fc3ff5466ecb57a015a45ba34024ba2ad114dca20703799257e1751968f0f360fcd055c84762bedbc0",
                "blocknumber": "1"
            }
        ],
        "sealEngine": "NoProof",
        "_info": {
            "hash": "0x5a826b5e1b26d2c3e870c6c2dfe20e1cbf7f3fb805535304dbfacb8eaedd40d0",
            "fixture-format": "blockchain_test",
            "comment": "`execution-specs` generated test",
            "filling-transition-tool": "2.19.0",
            "description": "Test the modification of the input range to attempt to modify the return\nbuffer.",
            "url": "https://github.com/ethereum/execution-specs/blob/tests-bal@v5.7.0/tests/homestead/identity_precompile/test_identity.py#L61",
            "metadata": {
                "opcode_count": {}
            }
        }
    },
    "tests/homestead/identity_precompile/test_identity.py::test_identity_return_buffer_modify[fork_London-call_opcode_STATICCALL-blockchain_test_from_state_test]": {
        "network": "London",
        "genesisBlockHeader": {
            "parentHash": "0x0000000000000000000000000000000000000000000000000000000000000000",
            "uncleHash": "0x1dcc4de8dec75d7aab85b567b6ccd41ad312451b948a7413f0a142fd40d49347",
            "coinbase": "0x0000000000000000000000000000000000000000",
            "stateRoot": "0xe22e6e813e9f8cefe08349a994b7b26a19b34dd3bded8c36d597ab452da1b90c",
            "transactionsTrie": "0x56e81f171bcc55a6ff8345e692c0f86e5b48e01b996cadc001622fb5e363b421",
            "receiptTrie": "0x56e81f171bcc55a6ff8345e692c0f86e5b48e01b996cadc001622fb5e363b421",
            "bloom": "0x00000000000000000000000000000000000000000000000000000000000000000000000000000000000000000000000000000000000000000000000000000000000000000000000000000000000000000000000000000000000000000000000000000000000000000000000000000000000000000000000000000000000000000000000000000000000000000000000000000000000000000000000000000000000000000000000000000000000000000000000000000000000000000000000000000000000000000000000000000000000000000000000000000000000000000000000000000000000000000000000000000000000000000000000000000000",
            "difficulty": "0x020000",
            "number": "0x00",
            "gasLimit": "0x07270e00",
            "gasUsed": "0x00",
            "timestamp": "0x00",
            "extraData": "0x00",
            "mixHash": "0x0000000000000000000000000000000000000000000000000000000000000000",
            "nonce": "0x0000000000000000",
            "baseFeePerGas": "0x07",
            "hash": "0xb601f0a1665ad08923403d92f2b424f47a1fbcb178fe5a61dff2d5b49bab2f95"
        },
        "pre": {
            "0xd505b90fcf331763c9787ca7b2a3a76bb44f6e7e": {
                "nonce": "0x01",
                "balance": "0x00",
                "code": "0x6001600053600260015360036002536004600353600060006004600060045afa600560005360056004533d600060003e59600020600155",
                "storage": {}
            },
            "0x1ad9bc24818784172ff393bb6f89f094d4d2ca29": {
                "nonce": "0x00",
                "balance": "0x3635c9adc5dea00000",
                "code": "0x",
                "storage": {}
            }
        },
        "postState": {
            "0xd505b90fcf331763c9787ca7b2a3a76bb44f6e7e": {
                "nonce": "0x01",
                "balance": "0x00",
                "code": "0x6001600053600260015360036002536004600353600060006004600060045afa600560005360056004533d600060003e59600020600155",
                "storage": {
                    "0x01": "0x812150976c7d947d306ebebd5335d380f3706d62cb64ade7639ef5fc32d3039f"
                }
            },
            "0x1ad9bc24818784172ff393bb6f89f094d4d2ca29": {
                "nonce": "0x01",
                "balance": "0x3635c9adc5de9962a4",
                "code": "0x",
                "storage": {}
            },
            "0x2adc25665018aa1fe0e6bc666dac8fc2697ff9ba": {
                "nonce": "0x00",
                "balance": "0x1bc16d674ec9fc02",
                "code": "0x",
                "storage": {}
            }
        },
        "lastblockhash": "0xf22861f9cd597e38da4dd39aebfbdb26b6ea55c7a21b3f9f3d86ae7bf6955002",
        "config": {
            "network": "London",
            "chainid": "0x01"
        },
        "genesisRLP": "0xf901faf901f5a00000000000000000000000000000000000000000000000000000000000000000a01dcc4de8dec75d7aab85b567b6ccd41ad312451b948a7413f0a142fd40d49347940000000000000000000000000000000000000000a0e22e6e813e9f8cefe08349a994b7b26a19b34dd3bded8c36d597ab452da1b90ca056e81f171bcc55a6ff8345e692c0f86e5b48e01b996cadc001622fb5e363b421a056e81f171bcc55a6ff8345e692c0f86e5b48e01b996cadc001622fb5e363b421b901000000000000000000000000000000000000000000000000000000000000000000000000000000000000000000000000000000000000000000000000000000000000000000000000000000000000000000000000000000000000000000000000000000000000000000000000000000000000000000000000000000000000000000000000000000000000000000000000000000000000000000000000000000000000000000000000000000000000000000000000000000000000000000000000000000000000000000000000000000000000000000000000000000000000000000000000000000000000000000000000000000000000000000000000000000000083020000808407270e00808000a0000000000000000000000000000000000000000000000000000000000000000088000000000000000007c0c0",
        "blocks": [
            {
                "blockHeader": {
                    "parentHash": "0xb601f0a1665ad08923403d92f2b424f47a1fbcb178fe5a61dff2d5b49bab2f95",
                    "uncleHash": "0x1dcc4de8dec75d7aab85b567b6ccd41ad312451b948a7413f0a142fd40d49347",
                    "coinbase": "0x2adc25665018aa1fe0e6bc666dac8fc2697ff9ba",
                    "stateRoot": "0x6706a8e8ea2a1c0061c98ca1f7d991a49d12b8dc05b91c5afb2b20610cfe9c5e",
                    "transactionsTrie": "0x93b288b868ba48554c635bea7df77a89529a743c68ddeaa74f936d8dfcc4ed93",
                    "receiptTrie": "0x5951add083509772bf4e74a5400fdd2db0b83ec1ccee2bbe3bc59ecad974556d",
                    "bloom": "0x00000000000000000000000000000000000000000000000000000000000000000000000000000000000000000000000000000000000000000000000000000000000000000000000000000000000000000000000000000000000000000000000000000000000000000000000000000000000000000000000000000000000000000000000000000000000000000000000000000000000000000000000000000000000000000000000000000000000000000000000000000000000000000000000000000000000000000000000000000000000000000000000000000000000000000000000000000000000000000000000000000000000000000000000000000000",
                    "difficulty": "0x020000",
                    "number": "0x01",
                    "gasLimit": "0x07270e00",
                    "gasUsed": "0xa956",
                    "timestamp": "0x03e8",
                    "extraData": "0x00",
                    "mixHash": "0x0000000000000000000000000000000000000000000000000000000000000000",
                    "nonce": "0x0000000000000000",
                    "baseFeePerGas": "0x07",
                    "hash": "0xf22861f9cd597e38da4dd39aebfbdb26b6ea55c7a21b3f9f3d86ae7bf6955002"
                },
                "transactions": [
                    {
                        "type": "0x00",
                        "chainId": "0x01",
                        "nonce": "0x00",
                        "gasPrice": "0x0a",
                        "gasLimit": "0x0186a0",
                        "to": "0xd505b90fcf331763c9787ca7b2a3a76bb44f6e7e",
                        "value": "0x00",
                        "data": "0x",
                        "v": "0x25",
                        "r": "0x2ca3968bba30c0a80a37dfa6ac7f8605f549c9665ecf63c2d36ca62276d3504b",
                        "s": "0x5b0528cace1f8f491e82a616cee94b04ba10944d041d2f5b8a506d8a3c925dcf",
                        "sender": "0x1ad9bc24818784172ff393bb6f89f094d4d2ca29"
                    }
                ],
                "uncleHeaders": [],
                "receipts": [
                    {
                        "transactionHash": "0x1bb353380c58294ebb66ea855cebae5d2e9d3617240e598faedc5351a8e80d99",
                        "type": "0x00",
                        "cumulativeGasUsed": "0xa956",
                        "bloom": "0x00000000000000000000000000000000000000000000000000000000000000000000000000000000000000000000000000000000000000000000000000000000000000000000000000000000000000000000000000000000000000000000000000000000000000000000000000000000000000000000000000000000000000000000000000000000000000000000000000000000000000000000000000000000000000000000000000000000000000000000000000000000000000000000000000000000000000000000000000000000000000000000000000000000000000000000000000000000000000000000000000000000000000000000000000000000",
                        "logs": [],
                        "status": true,
                        "rlp": "0xf901080182a956b9010000000000000000000000000000000000000000000000000000000000000000000000000000000000000000000000000000000000000000000000000000000000000000000000000000000000000000000000000000000000000000000000000000000000000000000000000000000000000000000000000000000000000000000000000000000000000000000000000000000000000000000000000000000000000000000000000000000000000000000000000000000000000000000000000000000000000000000000000000000000000000000000000000000000000000000000000000000000000000000000000000000000000000000000000000000000c0"
                    }
                ],
                "rlp": "0xf90261f901f9a0b601f0a1665ad08923403d92f2b424f47a1fbcb178fe5a61dff2d5b49bab2f95a01dcc4de8dec75d7aab85b567b6ccd41ad312451b948a7413f0a142fd40d49347942adc25665018aa1fe0e6bc666dac8fc2697ff9baa06706a8e8ea2a1c0061c98ca1f7d991a49d12b8dc05b91c5afb2b20610cfe9c5ea093b288b868ba48554c635bea7df77a89529a743c68ddeaa74f936d8dfcc4ed93a05951add083509772bf4e74a5400fdd2db0b83ec1ccee2bbe3bc59ecad974556db901000000000000000000000000000000000000000000000000000000000000000000000000000000000000000000000000000000000000000000000000000000000000000000000000000000000000000000000000000000000000000000000000000000000000000000000000000000000000000000000000000000000000000000000000000000000000000000000000000000000000000000000000000000000000000000000000000000000000000000000000000000000000000000000000000000000000000000000000000000000000000000000000000000000000000000000000000000000000000000000000000000000000000000000000000000000083020000018407270e0082a9568203e800a0000000000000000000000000000000000000000000000000000000000000000088000000000000000007f862f860800a830186a094d505b90fcf331763c9787ca7b2a3a76bb44f6e7e808025a02ca3968bba30c0a80a37dfa6ac7f8605f549c9665ecf63c2d36ca62276d3504ba05b0528cace1f8f491e82a616cee94b04ba10944d041d2f5b8a506d8a3c925dcfc0",
                "blocknumber": "1"
            }
        ],
        "sealEngine": "NoProof",
        "_info": {
            "hash": "0x03eac2e42d35fa98fa6eba3f73e27fa0d2d0b41f4fecaa5c83121634740e4282",
            "fixture-format": "blockchain_test",
            "comment": "`execution-specs` generated test",
            "filling-transition-tool": "2.19.0",
            "description": "Test the modification of the input range to attempt to modify the return\nbuffer.",
            "url": "https://github.com/ethereum/execution-specs/blob/tests-bal@v5.7.0/tests/homestead/identity_precompile/test_identity.py#L61",
            "metadata": {
                "opcode_count": {}
            }
        }
    }
}