{
    "tests/frontier/create/test_create_deposit_oog.py::test_create_deposit_oog[fork_Shanghai-create_opcode_CREATE-blockchain_test_from_state_test-enough_gas_False]": {
        "network": "Shanghai",
        "genesisBlockHeader": {
            "parentHash": "0x0000000000000000000000000000000000000000000000000000000000000000",
            "uncleHash": "0x1dcc4de8dec75d7aab85b567b6ccd41ad312451b948a7413f0a142fd40d49347",
            "coinbase": "0x0000000000000000000000000000000000000000",
            "stateRoot": "0xbb0c8b5dea50cfd70c551d780578448acb48ff3fdb3e269107d00ad4a6e2a278",
            "transactionsTrie": "0x56e81f171bcc55a6ff8345e692c0f86e5b48e01b996cadc001622fb5e363b421",
            "receiptTrie": "0x56e81f171bcc55a6ff8345e692c0f86e5b48e01b996cadc001622fb5e363b421",
            "bloom": "0x00000000000000000000000000000000000000000000000000000000000000000000000000000000000000000000000000000000000000000000000000000000000000000000000000000000000000000000000000000000000000000000000000000000000000000000000000000000000000000000000000000000000000000000000000000000000000000000000000000000000000000000000000000000000000000000000000000000000000000000000000000000000000000000000000000000000000000000000000000000000000000000000000000000000000000000000000000000000000000000000000000000000000000000000000000000",
            "difficulty": "0x00",
            "number": "0x00",
            "gasLimit": "0x07270e00",
            "gasUsed": "0x00",
            "timestamp": "0x00",
            "extraData": "0x00",
            "mixHash": "0x0000000000000000000000000000000000000000000000000000000000000000",
            "nonce": "0x0000000000000000",
            "baseFeePerGas": "0x07",
            "withdrawalsRoot": "0x56e81f171bcc55a6ff8345e692c0f86e5b48e01b996cadc001622fb5e363b421",
            "hash": "0x1b5cf11a30accd6af6e054d354fc6442b9d7b6db1653a6abf3c7383f50ac13b7"
        },
        "pre": {
            "0x1ad9bc24818784172ff393bb6f89f094d4d2ca29": {
                "nonce": "0x00",
                "balance": "0x3635c9adc5dea00000",
                "code": "0x",
                "storage": {}
            },
            "0x3e3bb0fb25369d0ffa8fd3dd527ddcbf192720cb": {
                "nonce": "0x01",
                "balance": "0x00",
                "code": "0x7f000000000000000000000000000000000000000000006000601f5360206000f3600052600a60166000f000",
                "storage": {}
            },
            "0x1e018e7b96c78a99a9191012854333a1f3511fa2": {
                "nonce": "0x01",
                "balance": "0x00",
                "code": "0x60206000600060006000733e3bb0fb25369d0ffa8fd3dd527ddcbf192720cb61968df100",
                "storage": {}
            }
        },
        "postState": {
            "0x1ad9bc24818784172ff393bb6f89f094d4d2ca29": {
                "nonce": "0x01",
                "balance": "0x3635c9adc5de9687a0",
                "code": "0x",
                "storage": {}
            },
            "0x3e3bb0fb25369d0ffa8fd3dd527ddcbf192720cb": {
                "nonce": "0x02",
                "balance": "0x00",
                "code": "0x7f000000000000000000000000000000000000000000006000601f5360206000f3600052600a60166000f000",
                "storage": {}
            },
            "0x1e018e7b96c78a99a9191012854333a1f3511fa2": {
                "nonce": "0x01",
                "balance": "0x00",
                "code": "0x60206000600060006000733e3bb0fb25369d0ffa8fd3dd527ddcbf192720cb61968df100",
                "storage": {}
            },
            "0x2adc25665018aa1fe0e6bc666dac8fc2697ff9ba": {
                "nonce": "0x00",
                "balance": "0x02d750",
                "code": "0x",
                "storage": {}
            }
        },
        "lastblockhash": "0xd6d97948a6086aa0a671c02c9926917e46bcbeb5eac20c9f26b46fad9a1b9c83",
        "config": {
            "network": "Shanghai",
            "chainid": "0x01"
        },
        "genesisRLP": "0xf90219f90213a00000000000000000000000000000000000000000000000000000000000000000a01dcc4de8dec75d7aab85b567b6ccd41ad312451b948a7413f0a142fd40d49347940000000000000000000000000000000000000000a0bb0c8b5dea50cfd70c551d780578448acb48ff3fdb3e269107d00ad4a6e2a278a056e81f171bcc55a6ff8345e692c0f86e5b48e01b996cadc001622fb5e363b421a056e81f171bcc55a6ff8345e692c0f86e5b48e01b996cadc001622fb5e363b421b901000000000000000000000000000000000000000000000000000000000000000000000000000000000000000000000000000000000000000000000000000000000000000000000000000000000000000000000000000000000000000000000000000000000000000000000000000000000000000000000000000000000000000000000000000000000000000000000000000000000000000000000000000000000000000000000000000000000000000000000000000000000000000000000000000000000000000000000000000000000000000000000000000000000000000000000000000000000000000000000000000000000000000000000000000000000080808407270e00808000a0000000000000000000000000000000000000000000000000000000000000000088000000000000000007a056e81f171bcc55a6ff8345e692c0f86e5b48e01b996cadc001622fb5e363b421c0c0c0",
        "blocks": [
            {
                "blockHeader": {
                    "parentHash": "0x1b5cf11a30accd6af6e054d354fc6442b9d7b6db1653a6abf3c7383f50ac13b7",
                    "uncleHash": "0x1dcc4de8dec75d7aab85b567b6ccd41ad312451b948a7413f0a142fd40d49347",
                    "coinbase": "0x2adc25665018aa1fe0e6bc666dac8fc2697ff9ba",
                    "stateRoot": "0xad5c06185f8e96bd14566716c86857f1330ddc5bfcf48fac758f3d5ab2451c50",
                    "transactionsTrie": "0x2fc19bf06428721ad41dade9f60f8acf16886233f2d35bb57b96838b9048da10",
                    "receiptTrie": "0xd794e8658b1d1e56784f73270da449f4fd22f7ad53ef60ffeb244af033a2b3d3",
                    "bloom": "0x00000000000000000000000000000000000000000000000000000000000000000000000000000000000000000000000000000000000000000000000000000000000000000000000000000000000000000000000000000000000000000000000000000000000000000000000000000000000000000000000000000000000000000000000000000000000000000000000000000000000000000000000000000000000000000000000000000000000000000000000000000000000000000000000000000000000000000000000000000000000000000000000000000000000000000000000000000000000000000000000000000000000000000000000000000000",
                    "difficulty": "0x00",
                    "number": "0x01",
                    "gasLimit": "0x07270e00",
                    "gasUsed": "0xf270",
                    "timestamp": "0x03e8",
                    "extraData": "0x00",
                    "mixHash": "0x0000000000000000000000000000000000000000000000000000000000000000",
                    "nonce": "0x0000000000000000",
                    "baseFeePerGas": "0x07",
                    "withdrawalsRoot": "0x56e81f171bcc55a6ff8345e692c0f86e5b48e01b996cadc001622fb5e363b421",
                    "hash": "0xd6d97948a6086aa0a671c02c9926917e46bcbeb5eac20c9f26b46fad9a1b9c83"
                },
                "transactions": [
                    {
                        "type": "0x00",
                        "chainId": "0x01",
                        "nonce": "0x00",
                        "gasPrice": "0x0a",
                        "gasLimit": "0x989680",
                        "to": "0x1e018e7b96c78a99a9191012854333a1f3511fa2",
                        "value": "0x00",
                        "data": "0x",
                        "v": "0x26",
                        "r": "0x36b76c7831781530dd8e1f9027bb0f1baaea4144ade446b5313263f8ef1dcb0d",
                        "s": "0x4c9d4472c45093b460ca17529e45c78392ebc756e279fdaddfa85894e5f5d2f5",
                        "sender": "0x1ad9bc24818784172ff393bb6f89f094d4d2ca29"
                    }
                ],
                "uncleHeaders": [],
                "withdrawals": [],
                "receipts": [
                    {
                        "transactionHash": "0xecaec0d87e8258894df2556946d29674387add304e66aac2c282d19ebe90474e",
                        "type": "0x00",
                        "cumulativeGasUsed": "0xf270",
                        "bloom": "0x00000000000000000000000000000000000000000000000000000000000000000000000000000000000000000000000000000000000000000000000000000000000000000000000000000000000000000000000000000000000000000000000000000000000000000000000000000000000000000000000000000000000000000000000000000000000000000000000000000000000000000000000000000000000000000000000000000000000000000000000000000000000000000000000000000000000000000000000000000000000000000000000000000000000000000000000000000000000000000000000000000000000000000000000000000000",
                        "logs": [],
                        "status": true,
                        "rlp": "0xf901080182f270b9010000000000000000000000000000000000000000000000000000000000000000000000000000000000000000000000000000000000000000000000000000000000000000000000000000000000000000000000000000000000000000000000000000000000000000000000000000000000000000000000000000000000000000000000000000000000000000000000000000000000000000000000000000000000000000000000000000000000000000000000000000000000000000000000000000000000000000000000000000000000000000000000000000000000000000000000000000000000000000000000000000000000000000000000000000000000c0"
                    }
                ],
                "rlp": "0xf90280f90217a01b5cf11a30accd6af6e054d354fc6442b9d7b6db1653a6abf3c7383f50ac13b7a01dcc4de8dec75d7aab85b567b6ccd41ad312451b948a7413f0a142fd40d49347942adc25665018aa1fe0e6bc666dac8fc2697ff9baa0ad5c06185f8e96bd14566716c86857f1330ddc5bfcf48fac758f3d5ab2451c50a02fc19bf06428721ad41dade9f60f8acf16886233f2d35bb57b96838b9048da10a0d794e8658b1d1e56784f73270da449f4fd22f7ad53ef60ffeb244af033a2b3d3b901000000000000000000000000000000000000000000000000000000000000000000000000000000000000000000000000000000000000000000000000000000000000000000000000000000000000000000000000000000000000000000000000000000000000000000000000000000000000000000000000000000000000000000000000000000000000000000000000000000000000000000000000000000000000000000000000000000000000000000000000000000000000000000000000000000000000000000000000000000000000000000000000000000000000000000000000000000000000000000000000000000000000000000000000000000000080018407270e0082f2708203e800a0000000000000000000000000000000000000000000000000000000000000000088000000000000000007a056e81f171bcc55a6ff8345e692c0f86e5b48e01b996cadc001622fb5e363b421f862f860800a83989680941e018e7b96c78a99a9191012854333a1f3511fa2808026a036b76c7831781530dd8e1f9027bb0f1baaea4144ade446b5313263f8ef1dcb0da04c9d4472c45093b460ca17529e45c78392ebc756e279fdaddfa85894e5f5d2f5c0c0",
                "blocknumber": "1"
            }
        ],
        "sealEngine": "NoProof",
        "_info": {
            "hash": "0xad0364a9d9bf4aff9c8b7c799bc901e7aebe6ad2ed93d6eb70bd2e7b241d625a",
            "fixture-format": "blockchain_test",
            "comment": "`execution-specs` generated test",
            "filling-transition-tool": "2.19.0",
            "description": "Run create deploys with a lot of deposited code.",
            "url": "https://github.com/ethereum/execution-specs/blob/tests-bal@v5.6.1/tests/frontier/create/test_create_deposit_oog.py#L21",
            "metadata": {
                "opcode_count": {}
            }
        }
    },
    "tests/frontier/create/test_create_deposit_oog.py::test_create_deposit_oog[fork_Shanghai-create_opcode_CREATE-blockchain_test_from_state_test-enough_gas_True]": {
        "network": "Shanghai",
        "genesisBlockHeader": {
            "parentHash": "0x0000000000000000000000000000000000000000000000000000000000000000",
            "uncleHash": "0x1dcc4de8dec75d7aab85b567b6ccd41ad312451b948a7413f0a142fd40d49347",
            "coinbase": "0x0000000000000000000000000000000000000000",
            "stateRoot": "0xec3b3debf1487ae0b446a620de023e3a9290b69bf30529cb8b2a76211071cd88",
            "transactionsTrie": "0x56e81f171bcc55a6ff8345e692c0f86e5b48e01b996cadc001622fb5e363b421",
            "receiptTrie": "0x56e81f171bcc55a6ff8345e692c0f86e5b48e01b996cadc001622fb5e363b421",
            "bloom": "0x00000000000000000000000000000000000000000000000000000000000000000000000000000000000000000000000000000000000000000000000000000000000000000000000000000000000000000000000000000000000000000000000000000000000000000000000000000000000000000000000000000000000000000000000000000000000000000000000000000000000000000000000000000000000000000000000000000000000000000000000000000000000000000000000000000000000000000000000000000000000000000000000000000000000000000000000000000000000000000000000000000000000000000000000000000000",
            "difficulty": "0x00",
            "number": "0x00",
            "gasLimit": "0x07270e00",
            "gasUsed": "0x00",
            "timestamp": "0x00",
            "extraData": "0x00",
            "mixHash": "0x0000000000000000000000000000000000000000000000000000000000000000",
            "nonce": "0x0000000000000000",
            "baseFeePerGas": "0x07",
            "withdrawalsRoot": "0x56e81f171bcc55a6ff8345e692c0f86e5b48e01b996cadc001622fb5e363b421",
            "hash": "0xc74a8648163b1599da60a19222d80fc9237484b02e6db59df559d763872d0ffc"
        },
        "pre": {
            "0x1ad9bc24818784172ff393bb6f89f094d4d2ca29": {
                "nonce": "0x00",
                "balance": "0x3635c9adc5dea00000",
                "code": "0x",
                "storage": {}
            },
            "0x3e3bb0fb25369d0ffa8fd3dd527ddcbf192720cb": {
                "nonce": "0x01",
                "balance": "0x00",
                "code": "0x7f000000000000000000000000000000000000000000006000601f5360206000f3600052600a60166000f000",
                "storage": {}
            },
            "0x3d4c80515e9ed78e9da1921619b2fa44aba33784": {
                "nonce": "0x01",
                "balance": "0x00",
                "code": "0x60206000600060006000733e3bb0fb25369d0ffa8fd3dd527ddcbf192720cb61968ef100",
                "storage": {}
            }
        },
        "postState": {
            "0x1ad9bc24818784172ff393bb6f89f094d4d2ca29": {
                "nonce": "0x01",
                "balance": "0x3635c9adc5de968796",
                "code": "0x",
                "storage": {}
            },
            "0x3e3bb0fb25369d0ffa8fd3dd527ddcbf192720cb": {
                "nonce": "0x02",
                "balance": "0x00",
                "code": "0x7f000000000000000000000000000000000000000000006000601f5360206000f3600052600a60166000f000",
                "storage": {}
            },
            "0x3d4c80515e9ed78e9da1921619b2fa44aba33784": {
                "nonce": "0x01",
                "balance": "0x00",
                "code": "0x60206000600060006000733e3bb0fb25369d0ffa8fd3dd527ddcbf192720cb61968ef100",
                "storage": {}
            },
            "0xe8e5ae0d7dbd099578363e66f5ec738f0808b98f": {
                "nonce": "0x01",
                "balance": "0x00",
                "code": "0x0000000000000000000000000000000000000000000000000000000000000000",
                "storage": {}
            },
            "0x2adc25665018aa1fe0e6bc666dac8fc2697ff9ba": {
                "nonce": "0x00",
                "balance": "0x02d753",
                "code": "0x",
                "storage": {}
            }
        },
        "lastblockhash": "0x54ead4fb62d580e106305d92703f350c461daea7a2b6adfb7c43a3134f7ca99e",
        "config": {
            "network": "Shanghai",
            "chainid": "0x01"
        },
        "genesisRLP": "0xf90219f90213a00000000000000000000000000000000000000000000000000000000000000000a01dcc4de8dec75d7aab85b567b6ccd41ad312451b948a7413f0a142fd40d49347940000000000000000000000000000000000000000a0ec3b3debf1487ae0b446a620de023e3a9290b69bf30529cb8b2a76211071cd88a056e81f171bcc55a6ff8345e692c0f86e5b48e01b996cadc001622fb5e363b421a056e81f171bcc55a6ff8345e692c0f86e5b48e01b996cadc001622fb5e363b421b901000000000000000000000000000000000000000000000000000000000000000000000000000000000000000000000000000000000000000000000000000000000000000000000000000000000000000000000000000000000000000000000000000000000000000000000000000000000000000000000000000000000000000000000000000000000000000000000000000000000000000000000000000000000000000000000000000000000000000000000000000000000000000000000000000000000000000000000000000000000000000000000000000000000000000000000000000000000000000000000000000000000000000000000000000000000080808407270e00808000a0000000000000000000000000000000000000000000000000000000000000000088000000000000000007a056e81f171bcc55a6ff8345e692c0f86e5b48e01b996cadc001622fb5e363b421c0c0c0",
        "blocks": [
            {
                "blockHeader": {
                    "parentHash": "0xc74a8648163b1599da60a19222d80fc9237484b02e6db59df559d763872d0ffc",
                    "uncleHash": "0x1dcc4de8dec75d7aab85b567b6ccd41ad312451b948a7413f0a142fd40d49347",
                    "coinbase": "0x2adc25665018aa1fe0e6bc666dac8fc2697ff9ba",
                    "stateRoot": "0xed7b908d9c544bcdcf275454d14d5d8a798176960bcdb44d2be0e7ff7e2879ee",
                    "transactionsTrie": "0xd672e40abc5cead39773cacc6af889fadb65802422b184ae3c91f01d9148533e",
                    "receiptTrie": "0x19e756129771b0b78d9e9c4890b3a1040622e9f854fa8fa9d0219fbc859e5220",
                    "bloom": "0x00000000000000000000000000000000000000000000000000000000000000000000000000000000000000000000000000000000000000000000000000000000000000000000000000000000000000000000000000000000000000000000000000000000000000000000000000000000000000000000000000000000000000000000000000000000000000000000000000000000000000000000000000000000000000000000000000000000000000000000000000000000000000000000000000000000000000000000000000000000000000000000000000000000000000000000000000000000000000000000000000000000000000000000000000000000",
                    "difficulty": "0x00",
                    "number": "0x01",
                    "gasLimit": "0x07270e00",
                    "gasUsed": "0xf271",
                    "timestamp": "0x03e8",
                    "extraData": "0x00",
                    "mixHash": "0x0000000000000000000000000000000000000000000000000000000000000000",
                    "nonce": "0x0000000000000000",
                    "baseFeePerGas": "0x07",
                    "withdrawalsRoot": "0x56e81f171bcc55a6ff8345e692c0f86e5b48e01b996cadc001622fb5e363b421",
                    "hash": "0x54ead4fb62d580e106305d92703f350c461daea7a2b6adfb7c43a3134f7ca99e"
                },
                "transactions": [
                    {
                        "type": "0x00",
                        "chainId": "0x01",
                        "nonce": "0x00",
                        "gasPrice": "0x0a",
                        "gasLimit": "0x989680",
                        "to": "0x3d4c80515e9ed78e9da1921619b2fa44aba33784",
                        "value": "0x00",
                        "data": "0x",
                        "v": "0x26",
                        "r": "0x9d958fbd8795d98ca27eaa82ad91e2190f149387b45a36a0ba6c6399d42cedc3",
                        "s": "0x1c662ece51de82e28b3e535187beb548ec7cd21310bb19b01629a561f13816cd",
                        "sender": "0x1ad9bc24818784172ff393bb6f89f094d4d2ca29"
                    }
                ],
                "uncleHeaders": [],
                "withdrawals": [],
                "receipts": [
                    {
                        "transactionHash": "0x9b3cc4e4ce2cd7d4f4f2a10f65b9e8853ec5914db793d636b5b1e4fecd74ce53",
                        "type": "0x00",
                        "cumulativeGasUsed": "0xf271",
                        "bloom": "0x00000000000000000000000000000000000000000000000000000000000000000000000000000000000000000000000000000000000000000000000000000000000000000000000000000000000000000000000000000000000000000000000000000000000000000000000000000000000000000000000000000000000000000000000000000000000000000000000000000000000000000000000000000000000000000000000000000000000000000000000000000000000000000000000000000000000000000000000000000000000000000000000000000000000000000000000000000000000000000000000000000000000000000000000000000000",
                        "logs": [],
                        "status": true,
                        "rlp": "0xf901080182f271b9010000000000000000000000000000000000000000000000000000000000000000000000000000000000000000000000000000000000000000000000000000000000000000000000000000000000000000000000000000000000000000000000000000000000000000000000000000000000000000000000000000000000000000000000000000000000000000000000000000000000000000000000000000000000000000000000000000000000000000000000000000000000000000000000000000000000000000000000000000000000000000000000000000000000000000000000000000000000000000000000000000000000000000000000000000000000c0"
                    }
                ],
                "rlp": "0xf90280f90217a0c74a8648163b1599da60a19222d80fc9237484b02e6db59df559d763872d0ffca01dcc4de8dec75d7aab85b567b6ccd41ad312451b948a7413f0a142fd40d49347942adc25665018aa1fe0e6bc666dac8fc2697ff9baa0ed7b908d9c544bcdcf275454d14d5d8a798176960bcdb44d2be0e7ff7e2879eea0d672e40abc5cead39773cacc6af889fadb65802422b184ae3c91f01d9148533ea019e756129771b0b78d9e9c4890b3a1040622e9f854fa8fa9d0219fbc859e5220b901000000000000000000000000000000000000000000000000000000000000000000000000000000000000000000000000000000000000000000000000000000000000000000000000000000000000000000000000000000000000000000000000000000000000000000000000000000000000000000000000000000000000000000000000000000000000000000000000000000000000000000000000000000000000000000000000000000000000000000000000000000000000000000000000000000000000000000000000000000000000000000000000000000000000000000000000000000000000000000000000000000000000000000000000000000000080018407270e0082f2718203e800a0000000000000000000000000000000000000000000000000000000000000000088000000000000000007a056e81f171bcc55a6ff8345e692c0f86e5b48e01b996cadc001622fb5e363b421f862f860800a83989680943d4c80515e9ed78e9da1921619b2fa44aba33784808026a09d958fbd8795d98ca27eaa82ad91e2190f149387b45a36a0ba6c6399d42cedc3a01c662ece51de82e28b3e535187beb548ec7cd21310bb19b01629a561f13816cdc0c0",
                "blocknumber": "1"
            }
        ],
        "sealEngine": "NoProof",
        "_info": {
            "hash": "0xd8f62f0d0cbdf0e350442070304ff20549d0e087954177d25d6798e629c09778",
            "fixture-format": "blockchain_test",
            "comment": "`execution-specs` generated test",
            "filling-transition-tool": "2.19.0",
            "description": "Run create deploys with a lot of deposited code.",
            "url": "https://github.com/ethereum/execution-specs/blob/tests-bal@v5.6.1/tests/frontier/create/test_create_deposit_oog.py#L21",
            "metadata": {
                "opcode_count": {}
            }
        }
    },
    "tests/frontier/create/test_create_deposit_oog.py::test_create_deposit_oog[fork_Shanghai-create_opcode_CREATE2-blockchain_test_from_state_test-enough_gas_False]": {
        "network": "Shanghai",
        "genesisBlockHeader": {
            "parentHash": "0x0000000000000000000000000000000000000000000000000000000000000000",
            "uncleHash": "0x1dcc4de8dec75d7aab85b567b6ccd41ad312451b948a7413f0a142fd40d49347",
            "coinbase": "0x0000000000000000000000000000000000000000",
            "stateRoot": "0x4dbca816b60c80924e66057c73ec5af4ea6066a039ca528b57b4abbd52b543c2",
            "transactionsTrie": "0x56e81f171bcc55a6ff8345e692c0f86e5b48e01b996cadc001622fb5e363b421",
            "receiptTrie": "0x56e81f171bcc55a6ff8345e692c0f86e5b48e01b996cadc001622fb5e363b421",
            "bloom": "0x00000000000000000000000000000000000000000000000000000000000000000000000000000000000000000000000000000000000000000000000000000000000000000000000000000000000000000000000000000000000000000000000000000000000000000000000000000000000000000000000000000000000000000000000000000000000000000000000000000000000000000000000000000000000000000000000000000000000000000000000000000000000000000000000000000000000000000000000000000000000000000000000000000000000000000000000000000000000000000000000000000000000000000000000000000000",
            "difficulty": "0x00",
            "number": "0x00",
            "gasLimit": "0x07270e00",
            "gasUsed": "0x00",
            "timestamp": "0x00",
            "extraData": "0x00",
            "mixHash": "0x0000000000000000000000000000000000000000000000000000000000000000",
            "nonce": "0x0000000000000000",
            "baseFeePerGas": "0x07",
            "withdrawalsRoot": "0x56e81f171bcc55a6ff8345e692c0f86e5b48e01b996cadc001622fb5e363b421",
            "hash": "0x8db35d726234127f6934b1e14183bdc5a33d2bcdc53d48a78dc740041a68ab9e"
        },
        "pre": {
            "0x1ad9bc24818784172ff393bb6f89f094d4d2ca29": {
                "nonce": "0x00",
                "balance": "0x3635c9adc5dea00000",
                "code": "0x",
                "storage": {}
            },
            "0x1ec2cdaf3802ead0c0dd311d06da205bc0653749": {
                "nonce": "0x01",
                "balance": "0x00",
                "code": "0x7f000000000000000000000000000000000000000000006000601f5360206000f36000526000600a60166000f500",
                "storage": {}
            },
            "0x6c64d796d2a92a064486a087a925ddd235a75a9e": {
                "nonce": "0x01",
                "balance": "0x00",
                "code": "0x60206000600060006000731ec2cdaf3802ead0c0dd311d06da205bc0653749619696f100",
                "storage": {}
            }
        },
        "postState": {
            "0x1ad9bc24818784172ff393bb6f89f094d4d2ca29": {
                "nonce": "0x01",
                "balance": "0x3635c9adc5de968746",
                "code": "0x",
                "storage": {}
            },
            "0x1ec2cdaf3802ead0c0dd311d06da205bc0653749": {
                "nonce": "0x02",
                "balance": "0x00",
                "code": "0x7f000000000000000000000000000000000000000000006000601f5360206000f36000526000600a60166000f500",
                "storage": {}
            },
            "0x6c64d796d2a92a064486a087a925ddd235a75a9e": {
                "nonce": "0x01",
                "balance": "0x00",
                "code": "0x60206000600060006000731ec2cdaf3802ead0c0dd311d06da205bc0653749619696f100",
                "storage": {}
            },
            "0x2adc25665018aa1fe0e6bc666dac8fc2697ff9ba": {
                "nonce": "0x00",
                "balance": "0x02d76b",
                "code": "0x",
                "storage": {}
            }
        },
        "lastblockhash": "0x0489185200e2b1dab1c910db44e943c92859301188f448911f4e62c37639b846",
        "config": {
            "network": "Shanghai",
            "chainid": "0x01"
        },
        "genesisRLP": "0xf90219f90213a00000000000000000000000000000000000000000000000000000000000000000a01dcc4de8dec75d7aab85b567b6ccd41ad312451b948a7413f0a142fd40d49347940000000000000000000000000000000000000000a04dbca816b60c80924e66057c73ec5af4ea6066a039ca528b57b4abbd52b543c2a056e81f171bcc55a6ff8345e692c0f86e5b48e01b996cadc001622fb5e363b421a056e81f171bcc55a6ff8345e692c0f86e5b48e01b996cadc001622fb5e363b421b901000000000000000000000000000000000000000000000000000000000000000000000000000000000000000000000000000000000000000000000000000000000000000000000000000000000000000000000000000000000000000000000000000000000000000000000000000000000000000000000000000000000000000000000000000000000000000000000000000000000000000000000000000000000000000000000000000000000000000000000000000000000000000000000000000000000000000000000000000000000000000000000000000000000000000000000000000000000000000000000000000000000000000000000000000000000080808407270e00808000a0000000000000000000000000000000000000000000000000000000000000000088000000000000000007a056e81f171bcc55a6ff8345e692c0f86e5b48e01b996cadc001622fb5e363b421c0c0c0",
        "blocks": [
            {
                "blockHeader": {
                    "parentHash": "0x8db35d726234127f6934b1e14183bdc5a33d2bcdc53d48a78dc740041a68ab9e",
                    "uncleHash": "0x1dcc4de8dec75d7aab85b567b6ccd41ad312451b948a7413f0a142fd40d49347",
                    "coinbase": "0x2adc25665018aa1fe0e6bc666dac8fc2697ff9ba",
                    "stateRoot": "0x50786541edf0da4561c2e64245fb34820da8806c140c75ee8f353bc30a5b8100",
                    "transactionsTrie": "0xf4abed4023b69ba88e1abb9488362fc2f29530779c77176b22376a9103681c75",
                    "receiptTrie": "0x6bbe68bab59d11105b8f15d65c3f9fc29a610299dce9a7d120ca1c7f9b9e5e94",
                    "bloom": "0x00000000000000000000000000000000000000000000000000000000000000000000000000000000000000000000000000000000000000000000000000000000000000000000000000000000000000000000000000000000000000000000000000000000000000000000000000000000000000000000000000000000000000000000000000000000000000000000000000000000000000000000000000000000000000000000000000000000000000000000000000000000000000000000000000000000000000000000000000000000000000000000000000000000000000000000000000000000000000000000000000000000000000000000000000000000",
                    "difficulty": "0x00",
                    "number": "0x01",
                    "gasLimit": "0x07270e00",
                    "gasUsed": "0xf279",
                    "timestamp": "0x03e8",
                    "extraData": "0x00",
                    "mixHash": "0x0000000000000000000000000000000000000000000000000000000000000000",
                    "nonce": "0x0000000000000000",
                    "baseFeePerGas": "0x07",
                    "withdrawalsRoot": "0x56e81f171bcc55a6ff8345e692c0f86e5b48e01b996cadc001622fb5e363b421",
                    "hash": "0x0489185200e2b1dab1c910db44e943c92859301188f448911f4e62c37639b846"
                },
                "transactions": [
                    {
                        "type": "0x00",
                        "chainId": "0x01",
                        "nonce": "0x00",
                        "gasPrice": "0x0a",
                        "gasLimit": "0x989680",
                        "to": "0x6c64d796d2a92a064486a087a925ddd235a75a9e",
                        "value": "0x00",
                        "data": "0x",
                        "v": "0x26",
                        "r": "0x584ed4b43d68b8eca56f392d9c9637d000dc2553fb0875686c1753c87cb2101e",
                        "s": "0x3e01c2196a13e5468195f549daad0470b97e16ee0b7f2644f79de3e38b2d28c2",
                        "sender": "0x1ad9bc24818784172ff393bb6f89f094d4d2ca29"
                    }
                ],
                "uncleHeaders": [],
                "withdrawals": [],
                "receipts": [
                    {
                        "transactionHash": "0x678c6cf303b6f16582a6ae031ed98732c7eefa882354abb7344b07c427674fdd",
                        "type": "0x00",
                        "cumulativeGasUsed": "0xf279",
                        "bloom": "0x00000000000000000000000000000000000000000000000000000000000000000000000000000000000000000000000000000000000000000000000000000000000000000000000000000000000000000000000000000000000000000000000000000000000000000000000000000000000000000000000000000000000000000000000000000000000000000000000000000000000000000000000000000000000000000000000000000000000000000000000000000000000000000000000000000000000000000000000000000000000000000000000000000000000000000000000000000000000000000000000000000000000000000000000000000000",
                        "logs": [],
                        "status": true,
                        "rlp": "0xf901080182f279b9010000000000000000000000000000000000000000000000000000000000000000000000000000000000000000000000000000000000000000000000000000000000000000000000000000000000000000000000000000000000000000000000000000000000000000000000000000000000000000000000000000000000000000000000000000000000000000000000000000000000000000000000000000000000000000000000000000000000000000000000000000000000000000000000000000000000000000000000000000000000000000000000000000000000000000000000000000000000000000000000000000000000000000000000000000000000c0"
                    }
                ],
                "rlp": "0xf90280f90217a08db35d726234127f6934b1e14183bdc5a33d2bcdc53d48a78dc740041a68ab9ea01dcc4de8dec75d7aab85b567b6ccd41ad312451b948a7413f0a142fd40d49347942adc25665018aa1fe0e6bc666dac8fc2697ff9baa050786541edf0da4561c2e64245fb34820da8806c140c75ee8f353bc30a5b8100a0f4abed4023b69ba88e1abb9488362fc2f29530779c77176b22376a9103681c75a06bbe68bab59d11105b8f15d65c3f9fc29a610299dce9a7d120ca1c7f9b9e5e94b901000000000000000000000000000000000000000000000000000000000000000000000000000000000000000000000000000000000000000000000000000000000000000000000000000000000000000000000000000000000000000000000000000000000000000000000000000000000000000000000000000000000000000000000000000000000000000000000000000000000000000000000000000000000000000000000000000000000000000000000000000000000000000000000000000000000000000000000000000000000000000000000000000000000000000000000000000000000000000000000000000000000000000000000000000000000080018407270e0082f2798203e800a0000000000000000000000000000000000000000000000000000000000000000088000000000000000007a056e81f171bcc55a6ff8345e692c0f86e5b48e01b996cadc001622fb5e363b421f862f860800a83989680946c64d796d2a92a064486a087a925ddd235a75a9e808026a0584ed4b43d68b8eca56f392d9c9637d000dc2553fb0875686c1753c87cb2101ea03e01c2196a13e5468195f549daad0470b97e16ee0b7f2644f79de3e38b2d28c2c0c0",
                "blocknumber": "1"
            }
        ],
        "sealEngine": "NoProof",
        "_info": {
            "hash": "0x7de0b9afd83b6e8d9617a3e431dc7564c78bf2ee9a67dcae810b2c842d38c1b9",
            "fixture-format": "blockchain_test",
            "comment": "`execution-specs` generated test",
            "filling-transition-tool": "2.19.0",
            "description": "Run create deploys with a lot of deposited code.",
            "url": "https://github.com/ethereum/execution-specs/blob/tests-bal@v5.6.1/tests/frontier/create/test_create_deposit_oog.py#L21",
            "metadata": {
                "opcode_count": {}
            }
        }
    },
    "tests/frontier/create/test_create_deposit_oog.py::test_create_deposit_oog[fork_Shanghai-create_opcode_CREATE2-blockchain_test_from_state_test-enough_gas_True]": {
        "network": "Shanghai",
        "genesisBlockHeader": {
            "parentHash": "0x0000000000000000000000000000000000000000000000000000000000000000",
            "uncleHash": "0x1dcc4de8dec75d7aab85b567b6ccd41ad312451b948a7413f0a142fd40d49347",
            "coinbase": "0x0000000000000000000000000000000000000000",
            "stateRoot": "0xc69200452335f3091498bc94e65a61f7102613cba6b27728638b4e776d816fbb",
            "transactionsTrie": "0x56e81f171bcc55a6ff8345e692c0f86e5b48e01b996cadc001622fb5e363b421",
            "receiptTrie": "0x56e81f171bcc55a6ff8345e692c0f86e5b48e01b996cadc001622fb5e363b421",
            "bloom": "0x00000000000000000000000000000000000000000000000000000000000000000000000000000000000000000000000000000000000000000000000000000000000000000000000000000000000000000000000000000000000000000000000000000000000000000000000000000000000000000000000000000000000000000000000000000000000000000000000000000000000000000000000000000000000000000000000000000000000000000000000000000000000000000000000000000000000000000000000000000000000000000000000000000000000000000000000000000000000000000000000000000000000000000000000000000000",
            "difficulty": "0x00",
            "number": "0x00",
            "gasLimit": "0x07270e00",
            "gasUsed": "0x00",
            "timestamp": "0x00",
            "extraData": "0x00",
            "mixHash": "0x0000000000000000000000000000000000000000000000000000000000000000",
            "nonce": "0x0000000000000000",
            "baseFeePerGas": "0x07",
            "withdrawalsRoot": "0x56e81f171bcc55a6ff8345e692c0f86e5b48e01b996cadc001622fb5e363b421",
            "hash": "0xde0b0816f2abcd6f48ee0558215ffc25d682038832b63f09ff02e5b991978334"
        },
        "pre": {
            "0x1ad9bc24818784172ff393bb6f89f094d4d2ca29": {
                "nonce": "0x00",
                "balance": "0x3635c9adc5dea00000",
                "code": "0x",
                "storage": {}
            },
            "0x1ec2cdaf3802ead0c0dd311d06da205bc0653749": {
                "nonce": "0x01",
                "balance": "0x00",
                "code": "0x7f000000000000000000000000000000000000000000006000601f5360206000f36000526000600a60166000f500",
                "storage": {}
            },
            "0x9569a709960162f05057a00798000c09b9a8cf16": {
                "nonce": "0x01",
                "balance": "0x00",
                "code": "0x60206000600060006000731ec2cdaf3802ead0c0dd311d06da205bc0653749619697f100",
                "storage": {}
            }
        },
        "postState": {
            "0x1ad9bc24818784172ff393bb6f89f094d4d2ca29": {
                "nonce": "0x01",
                "balance": "0x3635c9adc5de96873c",
                "code": "0x",
                "storage": {}
            },
            "0x1ec2cdaf3802ead0c0dd311d06da205bc0653749": {
                "nonce": "0x02",
                "balance": "0x00",
                "code": "0x7f000000000000000000000000000000000000000000006000601f5360206000f36000526000600a60166000f500",
                "storage": {}
            },
            "0x9569a709960162f05057a00798000c09b9a8cf16": {
                "nonce": "0x01",
                "balance": "0x00",
                "code": "0x60206000600060006000731ec2cdaf3802ead0c0dd311d06da205bc0653749619697f100",
                "storage": {}
            },
            "0x82b8381f239c76aa1d99d1c751918aa4bf5650be": {
                "nonce": "0x01",
                "balance": "0x00",
                "code": "0x0000000000000000000000000000000000000000000000000000000000000000",
                "storage": {}
            },
            "0x2adc25665018aa1fe0e6bc666dac8fc2697ff9ba": {
                "nonce": "0x00",
                "balance": "0x02d76e",
                "code": "0x",
                "storage": {}
            }
        },
        "lastblockhash": "0xe4d50422f3c07a87296c266a53b35ac4fc855985d4de52477c5e5c5ce382a4c2",
        "config": {
            "network": "Shanghai",
            "chainid": "0x01"
        },
        "genesisRLP": "0xf90219f90213a00000000000000000000000000000000000000000000000000000000000000000a01dcc4de8dec75d7aab85b567b6ccd41ad312451b948a7413f0a142fd40d49347940000000000000000000000000000000000000000a0c69200452335f3091498bc94e65a61f7102613cba6b27728638b4e776d816fbba056e81f171bcc55a6ff8345e692c0f86e5b48e01b996cadc001622fb5e363b421a056e81f171bcc55a6ff8345e692c0f86e5b48e01b996cadc001622fb5e363b421b901000000000000000000000000000000000000000000000000000000000000000000000000000000000000000000000000000000000000000000000000000000000000000000000000000000000000000000000000000000000000000000000000000000000000000000000000000000000000000000000000000000000000000000000000000000000000000000000000000000000000000000000000000000000000000000000000000000000000000000000000000000000000000000000000000000000000000000000000000000000000000000000000000000000000000000000000000000000000000000000000000000000000000000000000000000000080808407270e00808000a0000000000000000000000000000000000000000000000000000000000000000088000000000000000007a056e81f171bcc55a6ff8345e692c0f86e5b48e01b996cadc001622fb5e363b421c0c0c0",
        "blocks": [
            {
                "blockHeader": {
                    "parentHash": "0xde0b0816f2abcd6f48ee0558215ffc25d682038832b63f09ff02e5b991978334",
                    "uncleHash": "0x1dcc4de8dec75d7aab85b567b6ccd41ad312451b948a7413f0a142fd40d49347",
                    "coinbase": "0x2adc25665018aa1fe0e6bc666dac8fc2697ff9ba",
                    "stateRoot": "0xff3b95beea5c5817e089bc2cec8113ca89b6edf29a2ec7aa0361eb64b1b22732",
                    "transactionsTrie": "0x04c5bdcf7a0ee9c556ccfd7abd350dc60c47ad1add297d3483cff411742ca077",
                    "receiptTrie": "0x6082314f37a177f43f7b1b0085fcb11a6b896b03462500a0b24251ad2fb85583",
                    "bloom": "0x00000000000000000000000000000000000000000000000000000000000000000000000000000000000000000000000000000000000000000000000000000000000000000000000000000000000000000000000000000000000000000000000000000000000000000000000000000000000000000000000000000000000000000000000000000000000000000000000000000000000000000000000000000000000000000000000000000000000000000000000000000000000000000000000000000000000000000000000000000000000000000000000000000000000000000000000000000000000000000000000000000000000000000000000000000000",
                    "difficulty": "0x00",
                    "number": "0x01",
                    "gasLimit": "0x07270e00",
                    "gasUsed": "0xf27a",
                    "timestamp": "0x03e8",
                    "extraData": "0x00",
                    "mixHash": "0x0000000000000000000000000000000000000000000000000000000000000000",
                    "nonce": "0x0000000000000000",
                    "baseFeePerGas": "0x07",
                    "withdrawalsRoot": "0x56e81f171bcc55a6ff8345e692c0f86e5b48e01b996cadc001622fb5e363b421",
                    "hash": "0xe4d50422f3c07a87296c266a53b35ac4fc855985d4de52477c5e5c5ce382a4c2"
                },
                "transactions": [
                    {
                        "type": "0x00",
                        "chainId": "0x01",
                        "nonce": "0x00",
                        "gasPrice": "0x0a",
                        "gasLimit": "0x989680",
                        "to": "0x9569a709960162f05057a00798000c09b9a8cf16",
                        "value": "0x00",
                        "data": "0x",
                        "v": "0x25",
                        "r": "0x1057d036d2e759dd3534c03aecd320fd36702e301a2832b40ab210329caa9e73",
                        "s": "0x2e4633163cea7ad689d572f4f96727f028a9f2d55abb78ebc0f989a03aff9978",
                        "sender": "0x1ad9bc24818784172ff393bb6f89f094d4d2ca29"
                    }
                ],
                "uncleHeaders": [],
                "withdrawals": [],
                "receipts": [
                    {
                        "transactionHash": "0xba469a102067dc3b4d0feee4733e85d0f823a5601e9e9d60cfc6f6df613bae7e",
                        "type": "0x00",
                        "cumulativeGasUsed": "0xf27a",
                        "bloom": "0x00000000000000000000000000000000000000000000000000000000000000000000000000000000000000000000000000000000000000000000000000000000000000000000000000000000000000000000000000000000000000000000000000000000000000000000000000000000000000000000000000000000000000000000000000000000000000000000000000000000000000000000000000000000000000000000000000000000000000000000000000000000000000000000000000000000000000000000000000000000000000000000000000000000000000000000000000000000000000000000000000000000000000000000000000000000",
                        "logs": [],
                        "status": true,
                        "rlp": "0xf901080182f27ab9010000000000000000000000000000000000000000000000000000000000000000000000000000000000000000000000000000000000000000000000000000000000000000000000000000000000000000000000000000000000000000000000000000000000000000000000000000000000000000000000000000000000000000000000000000000000000000000000000000000000000000000000000000000000000000000000000000000000000000000000000000000000000000000000000000000000000000000000000000000000000000000000000000000000000000000000000000000000000000000000000000000000000000000000000000000000c0"
                    }
                ],
                "rlp": "0xf90280f90217a0de0b0816f2abcd6f48ee0558215ffc25d682038832b63f09ff02e5b991978334a01dcc4de8dec75d7aab85b567b6ccd41ad312451b948a7413f0a142fd40d49347942adc25665018aa1fe0e6bc666dac8fc2697ff9baa0ff3b95beea5c5817e089bc2cec8113ca89b6edf29a2ec7aa0361eb64b1b22732a004c5bdcf7a0ee9c556ccfd7abd350dc60c47ad1add297d3483cff411742ca077a06082314f37a177f43f7b1b0085fcb11a6b896b03462500a0b24251ad2fb85583b901000000000000000000000000000000000000000000000000000000000000000000000000000000000000000000000000000000000000000000000000000000000000000000000000000000000000000000000000000000000000000000000000000000000000000000000000000000000000000000000000000000000000000000000000000000000000000000000000000000000000000000000000000000000000000000000000000000000000000000000000000000000000000000000000000000000000000000000000000000000000000000000000000000000000000000000000000000000000000000000000000000000000000000000000000000000080018407270e0082f27a8203e800a0000000000000000000000000000000000000000000000000000000000000000088000000000000000007a056e81f171bcc55a6ff8345e692c0f86e5b48e01b996cadc001622fb5e363b421f862f860800a83989680949569a709960162f05057a00798000c09b9a8cf16808025a01057d036d2e759dd3534c03aecd320fd36702e301a2832b40ab210329caa9e73a02e4633163cea7ad689d572f4f96727f028a9f2d55abb78ebc0f989a03aff9978c0c0",
                "blocknumber": "1"
            }
        ],
        "sealEngine": "NoProof",
        "_info": {
            "hash": "0xb73197a7d25c30f111f12c9c428733eefd7fbb000bd3af84566a546fab803e81",
            "fixture-format": "blockchain_test",
            "comment": "`execution-specs` generated test",
            "filling-transition-tool": "2.19.0",
            "description": "Run create deploys with a lot of deposited code.",
            "url": "https://github.com/ethereum/execution-specs/blob/tests-bal@v5.6.1/tests/frontier/create/test_create_deposit_oog.py#L21",
            "metadata": {
                "opcode_count": {}
            }
        }
    }
}