{
    "tests/ported_static/stCodeCopyTest/test_ext_code_copy_target_range_longer_than_code_tests.py::test_ext_code_copy_target_range_longer_than_code_tests[fork_Cancun-blockchain_test_from_state_test]": {
        "network": "Cancun",
        "genesisBlockHeader": {
            "parentHash": "0x0000000000000000000000000000000000000000000000000000000000000000",
            "uncleHash": "0x1dcc4de8dec75d7aab85b567b6ccd41ad312451b948a7413f0a142fd40d49347",
            "coinbase": "0x0000000000000000000000000000000000000000",
            "stateRoot": "0x7c5930b53395c3a55b8e1690065d70def10988cfab8c0302b78c3a73f83e8065",
            "transactionsTrie": "0x56e81f171bcc55a6ff8345e692c0f86e5b48e01b996cadc001622fb5e363b421",
            "receiptTrie": "0x56e81f171bcc55a6ff8345e692c0f86e5b48e01b996cadc001622fb5e363b421",
            "bloom": "0x00000000000000000000000000000000000000000000000000000000000000000000000000000000000000000000000000000000000000000000000000000000000000000000000000000000000000000000000000000000000000000000000000000000000000000000000000000000000000000000000000000000000000000000000000000000000000000000000000000000000000000000000000000000000000000000000000000000000000000000000000000000000000000000000000000000000000000000000000000000000000000000000000000000000000000000000000000000000000000000000000000000000000000000000000000000",
            "difficulty": "0x00",
            "number": "0x00",
            "gasLimit": "0x7fffffffffffffff",
            "gasUsed": "0x00",
            "timestamp": "0x00",
            "extraData": "0x00",
            "mixHash": "0x0000000000000000000000000000000000000000000000000000000000000000",
            "nonce": "0x0000000000000000",
            "baseFeePerGas": "0x0b",
            "withdrawalsRoot": "0x56e81f171bcc55a6ff8345e692c0f86e5b48e01b996cadc001622fb5e363b421",
            "blobGasUsed": "0x00",
            "excessBlobGas": "0x00",
            "parentBeaconBlockRoot": "0x0000000000000000000000000000000000000000000000000000000000000000",
            "hash": "0x373aae769bf2d93a0fa28227e7b5f005bdc09a72657c8ffcac81e115d6aad4c8"
        },
        "pre": {
            "0x000f3df6d732807ef1319fb7b8bb8522d0beac02": {
                "nonce": "0x01",
                "balance": "0x00",
                "code": "0x3373fffffffffffffffffffffffffffffffffffffffe14604d57602036146024575f5ffd5b5f35801560495762001fff810690815414603c575f5ffd5b62001fff01545f5260205ff35b5f5ffd5b62001fff42064281555f359062001fff015500",
                "storage": {}
            },
            "0x4768b5e50b0ebe91ae38d84a47e3179e615f9c40": {
                "nonce": "0x00",
                "balance": "0xffffffffffffffffffffffffffffffff",
                "code": "0x",
                "storage": {}
            },
            "0x48d8f710ab8cb48f77b602d24696926e31787a17": {
                "nonce": "0x00",
                "balance": "0x1b58",
                "code": "0x611234602052604060006000737ac02e797f450c7ea62753383f618e1903cd6bba3c600051600055602051600155615678606052604060006040734768b5e50b0ebe91ae38d84a47e3179e615f9c403c60405160025560605160035500",
                "storage": {}
            },
            "0x7ac02e797f450c7ea62753383f618e1903cd6bba": {
                "nonce": "0x01",
                "balance": "0x00",
                "code": "0x1122334455667788991011121314151617181920212223242526272829303132",
                "storage": {}
            }
        },
        "postState": {
            "0x000f3df6d732807ef1319fb7b8bb8522d0beac02": {
                "nonce": "0x01",
                "balance": "0x00",
                "code": "0x3373fffffffffffffffffffffffffffffffffffffffe14604d57602036146024575f5ffd5b5f35801560495762001fff810690815414603c575f5ffd5b62001fff01545f5260205ff35b5f5ffd5b62001fff42064281555f359062001fff015500",
                "storage": {
                    "0x03e8": "0x03e8"
                }
            },
            "0x4768b5e50b0ebe91ae38d84a47e3179e615f9c40": {
                "nonce": "0x01",
                "balance": "0xfffffffffffffffffffffffffff7fd23",
                "code": "0x",
                "storage": {}
            },
            "0x48d8f710ab8cb48f77b602d24696926e31787a17": {
                "nonce": "0x00",
                "balance": "0x1b58",
                "code": "0x611234602052604060006000737ac02e797f450c7ea62753383f618e1903cd6bba3c600051600055602051600155615678606052604060006040734768b5e50b0ebe91ae38d84a47e3179e615f9c403c60405160025560605160035500",
                "storage": {
                    "0x00": "0x1122334455667788991011121314151617181920212223242526272829303132"
                }
            },
            "0x7ac02e797f450c7ea62753383f618e1903cd6bba": {
                "nonce": "0x01",
                "balance": "0x00",
                "code": "0x1122334455667788991011121314151617181920212223242526272829303132",
                "storage": {}
            }
        },
        "lastblockhash": "0x6e4a319a716a0c8900f57df7755d76ba6f87b9e6213ec4fab8aeb2a100070657",
        "config": {
            "network": "Cancun",
            "chainid": "0x01",
            "blobSchedule": {
                "Cancun": {
                    "target": "0x03",
                    "max": "0x06",
                    "baseFeeUpdateFraction": "0x32f0ed"
                }
            }
        },
        "genesisRLP": "0xf90240f9023aa00000000000000000000000000000000000000000000000000000000000000000a01dcc4de8dec75d7aab85b567b6ccd41ad312451b948a7413f0a142fd40d49347940000000000000000000000000000000000000000a07c5930b53395c3a55b8e1690065d70def10988cfab8c0302b78c3a73f83e8065a056e81f171bcc55a6ff8345e692c0f86e5b48e01b996cadc001622fb5e363b421a056e81f171bcc55a6ff8345e692c0f86e5b48e01b996cadc001622fb5e363b421b90100000000000000000000000000000000000000000000000000000000000000000000000000000000000000000000000000000000000000000000000000000000000000000000000000000000000000000000000000000000000000000000000000000000000000000000000000000000000000000000000000000000000000000000000000000000000000000000000000000000000000000000000000000000000000000000000000000000000000000000000000000000000000000000000000000000000000000000000000000000000000000000000000000000000000000000000000000000000000000000000000000000000000000000000000000000008080887fffffffffffffff808000a000000000000000000000000000000000000000000000000000000000000000008800000000000000000ba056e81f171bcc55a6ff8345e692c0f86e5b48e01b996cadc001622fb5e363b4218080a00000000000000000000000000000000000000000000000000000000000000000c0c0c0",
        "blocks": [
            {
                "blockHeader": {
                    "parentHash": "0x373aae769bf2d93a0fa28227e7b5f005bdc09a72657c8ffcac81e115d6aad4c8",
                    "uncleHash": "0x1dcc4de8dec75d7aab85b567b6ccd41ad312451b948a7413f0a142fd40d49347",
                    "coinbase": "0x2adc25665018aa1fe0e6bc666dac8fc2697ff9ba",
                    "stateRoot": "0x0f26a3f6e2e6acd42c7e3240572d83b71a9de7d4418d92177dec736f7ea4aad9",
                    "transactionsTrie": "0x29e009518c5db3e4816d196647d82b2e92d6f64c96b982a046b9742328ed2fa0",
                    "receiptTrie": "0x52e600110ab2864778bea6ff558b7974b7a8ca5fbd6d8a17a2d60a1686b95ee2",
                    "bloom": "0x00000000000000000000000000000000000000000000000000000000000000000000000000000000000000000000000000000000000000000000000000000000000000000000000000000000000000000000000000000000000000000000000000000000000000000000000000000000000000000000000000000000000000000000000000000000000000000000000000000000000000000000000000000000000000000000000000000000000000000000000000000000000000000000000000000000000000000000000000000000000000000000000000000000000000000000000000000000000000000000000000000000000000000000000000000000",
                    "difficulty": "0x00",
                    "number": "0x01",
                    "gasLimit": "0x7fffffffffffffff",
                    "gasUsed": "0xcd16",
                    "timestamp": "0x03e8",
                    "extraData": "0x00",
                    "mixHash": "0x0000000000000000000000000000000000000000000000000000000000020000",
                    "nonce": "0x0000000000000000",
                    "baseFeePerGas": "0x0a",
                    "withdrawalsRoot": "0x56e81f171bcc55a6ff8345e692c0f86e5b48e01b996cadc001622fb5e363b421",
                    "blobGasUsed": "0x00",
                    "excessBlobGas": "0x00",
                    "parentBeaconBlockRoot": "0x0000000000000000000000000000000000000000000000000000000000000000",
                    "hash": "0x6e4a319a716a0c8900f57df7755d76ba6f87b9e6213ec4fab8aeb2a100070657"
                },
                "transactions": [
                    {
                        "type": "0x00",
                        "chainId": "0x01",
                        "nonce": "0x00",
                        "gasPrice": "0x0a",
                        "gasLimit": "0x061a80",
                        "to": "0x48d8f710ab8cb48f77b602d24696926e31787a17",
                        "value": "0x00",
                        "data": "0x",
                        "v": "0x26",
                        "r": "0xcfe3cb6bb829002419dea277955ae7f4f5717a5d1b10b81033a06b03f9fac922",
                        "s": "0x6a1df4370fd447be5f202fa253e0cfd417df109d3a7ee95e558b7c2e0faf96af",
                        "sender": "0x4768b5e50b0ebe91ae38d84a47e3179e615f9c40"
                    }
                ],
                "uncleHeaders": [],
                "withdrawals": [],
                "receipts": [
                    {
                        "transactionHash": "0x8753805f99702bff2d6d9b42f9e327d29bb90ceb6fcc1b4f6a99a28192dac797",
                        "type": "0x00",
                        "cumulativeGasUsed": "0xcd16",
                        "bloom": "0x00000000000000000000000000000000000000000000000000000000000000000000000000000000000000000000000000000000000000000000000000000000000000000000000000000000000000000000000000000000000000000000000000000000000000000000000000000000000000000000000000000000000000000000000000000000000000000000000000000000000000000000000000000000000000000000000000000000000000000000000000000000000000000000000000000000000000000000000000000000000000000000000000000000000000000000000000000000000000000000000000000000000000000000000000000000",
                        "logs": [],
                        "status": true,
                        "rlp": "0xf901080182cd16b9010000000000000000000000000000000000000000000000000000000000000000000000000000000000000000000000000000000000000000000000000000000000000000000000000000000000000000000000000000000000000000000000000000000000000000000000000000000000000000000000000000000000000000000000000000000000000000000000000000000000000000000000000000000000000000000000000000000000000000000000000000000000000000000000000000000000000000000000000000000000000000000000000000000000000000000000000000000000000000000000000000000000000000000000000000000000c0"
                    }
                ],
                "rlp": "0xf902a7f9023ea0373aae769bf2d93a0fa28227e7b5f005bdc09a72657c8ffcac81e115d6aad4c8a01dcc4de8dec75d7aab85b567b6ccd41ad312451b948a7413f0a142fd40d49347942adc25665018aa1fe0e6bc666dac8fc2697ff9baa00f26a3f6e2e6acd42c7e3240572d83b71a9de7d4418d92177dec736f7ea4aad9a029e009518c5db3e4816d196647d82b2e92d6f64c96b982a046b9742328ed2fa0a052e600110ab2864778bea6ff558b7974b7a8ca5fbd6d8a17a2d60a1686b95ee2b90100000000000000000000000000000000000000000000000000000000000000000000000000000000000000000000000000000000000000000000000000000000000000000000000000000000000000000000000000000000000000000000000000000000000000000000000000000000000000000000000000000000000000000000000000000000000000000000000000000000000000000000000000000000000000000000000000000000000000000000000000000000000000000000000000000000000000000000000000000000000000000000000000000000000000000000000000000000000000000000000000000000000000000000000000000000008001887fffffffffffffff82cd168203e800a000000000000000000000000000000000000000000000000000000000000200008800000000000000000aa056e81f171bcc55a6ff8345e692c0f86e5b48e01b996cadc001622fb5e363b4218080a00000000000000000000000000000000000000000000000000000000000000000f862f860800a83061a809448d8f710ab8cb48f77b602d24696926e31787a17808026a0cfe3cb6bb829002419dea277955ae7f4f5717a5d1b10b81033a06b03f9fac922a06a1df4370fd447be5f202fa253e0cfd417df109d3a7ee95e558b7c2e0faf96afc0c0",
                "blocknumber": "1"
            }
        ],
        "sealEngine": "NoProof",
        "_info": {
            "hash": "0x0cda23370fb7bf95fbcf3cbd915cedb4bb98bb1843c663dd9af26a46461d13b9",
            "fixture-format": "blockchain_test",
            "comment": "`execution-specs` generated test",
            "filling-transition-tool": "2.19.0",
            "description": "Uses EXTCODECOPY to copy 32 bytes of code into a 64 byte range of...",
            "url": "https://github.com/ethereum/execution-specs/blob/tests-bal@v5.6.1/tests/ported_static/stCodeCopyTest/test_ext_code_copy_target_range_longer_than_code_tests.py#L25",
            "metadata": {
                "opcode_count": {}
            }
        }
    }
}