{
    "tests/paris/eip7610_create_collision/test_revert_in_create.py::test_create2_collision_storage[fork_Paris-blockchain_test_from_state_test-empty-initcode]": {
        "network": "Paris",
        "genesisBlockHeader": {
            "parentHash": "0x0000000000000000000000000000000000000000000000000000000000000000",
            "uncleHash": "0x1dcc4de8dec75d7aab85b567b6ccd41ad312451b948a7413f0a142fd40d49347",
            "coinbase": "0x0000000000000000000000000000000000000000",
            "stateRoot": "0xd55e6f21f19b920070cabee7e2e40484d2a7d89cbfa5966e1758978d6840c54a",
            "transactionsTrie": "0x56e81f171bcc55a6ff8345e692c0f86e5b48e01b996cadc001622fb5e363b421",
            "receiptTrie": "0x56e81f171bcc55a6ff8345e692c0f86e5b48e01b996cadc001622fb5e363b421",
            "bloom": "0x00000000000000000000000000000000000000000000000000000000000000000000000000000000000000000000000000000000000000000000000000000000000000000000000000000000000000000000000000000000000000000000000000000000000000000000000000000000000000000000000000000000000000000000000000000000000000000000000000000000000000000000000000000000000000000000000000000000000000000000000000000000000000000000000000000000000000000000000000000000000000000000000000000000000000000000000000000000000000000000000000000000000000000000000000000000",
            "difficulty": "0x00",
            "number": "0x00",
            "gasLimit": "0x07270e00",
            "gasUsed": "0x00",
            "timestamp": "0x00",
            "extraData": "0x00",
            "mixHash": "0x0000000000000000000000000000000000000000000000000000000000000000",
            "nonce": "0x0000000000000000",
            "baseFeePerGas": "0x07",
            "hash": "0x347742657796fe532b09ec73a5dc64af7db6f6cc6a8a8b9f2765ec4e53fd8d32"
        },
        "pre": {
            "0x1ad9bc24818784172ff393bb6f89f094d4d2ca29": {
                "nonce": "0x00",
                "balance": "0x3635c9adc5dea00000",
                "code": "0x",
                "storage": {}
            },
            "0x73e9b98655c9e54b05d4985f274975c3e1a73d2c": {
                "nonce": "0x00",
                "balance": "0x0a",
                "code": "0x",
                "storage": {
                    "0x00": "0x01"
                }
            }
        },
        "postState": {
            "0x1ad9bc24818784172ff393bb6f89f094d4d2ca29": {
                "nonce": "0x01",
                "balance": "0x3635c9adc5de0941af",
                "code": "0x",
                "storage": {}
            },
            "0x73e9b98655c9e54b05d4985f274975c3e1a73d2c": {
                "nonce": "0x00",
                "balance": "0x0a",
                "code": "0x",
                "storage": {
                    "0x00": "0x01"
                }
            },
            "0x36bdd8886852759e2046e3bf4c290d5c29c81d82": {
                "nonce": "0x02",
                "balance": "0x01",
                "code": "0x",
                "storage": {}
            },
            "0x2adc25665018aa1fe0e6bc666dac8fc2697ff9ba": {
                "nonce": "0x00",
                "balance": "0x2d3918",
                "code": "0x",
                "storage": {}
            }
        },
        "lastblockhash": "0x62469f8cf040c71f60adabe7ea5f168abecb7458b8734c2c65f3b8303edf7314",
        "config": {
            "network": "Paris",
            "chainid": "0x01"
        },
        "genesisRLP": "0xf901f7f901f2a00000000000000000000000000000000000000000000000000000000000000000a01dcc4de8dec75d7aab85b567b6ccd41ad312451b948a7413f0a142fd40d49347940000000000000000000000000000000000000000a0d55e6f21f19b920070cabee7e2e40484d2a7d89cbfa5966e1758978d6840c54aa056e81f171bcc55a6ff8345e692c0f86e5b48e01b996cadc001622fb5e363b421a056e81f171bcc55a6ff8345e692c0f86e5b48e01b996cadc001622fb5e363b421b901000000000000000000000000000000000000000000000000000000000000000000000000000000000000000000000000000000000000000000000000000000000000000000000000000000000000000000000000000000000000000000000000000000000000000000000000000000000000000000000000000000000000000000000000000000000000000000000000000000000000000000000000000000000000000000000000000000000000000000000000000000000000000000000000000000000000000000000000000000000000000000000000000000000000000000000000000000000000000000000000000000000000000000000000000000000080808407270e00808000a0000000000000000000000000000000000000000000000000000000000000000088000000000000000007c0c0",
        "blocks": [
            {
                "blockHeader": {
                    "parentHash": "0x347742657796fe532b09ec73a5dc64af7db6f6cc6a8a8b9f2765ec4e53fd8d32",
                    "uncleHash": "0x1dcc4de8dec75d7aab85b567b6ccd41ad312451b948a7413f0a142fd40d49347",
                    "coinbase": "0x2adc25665018aa1fe0e6bc666dac8fc2697ff9ba",
                    "stateRoot": "0x74485cd469d9dd38d85253b575fa7f1f74e2d41c1d2e9c7c536d8bca133a6046",
                    "transactionsTrie": "0x16dd5a5d777020c589420b5422a0b843816335a2dd1ef43451940509c6a1d85b",
                    "receiptTrie": "0x13fe4cf2fba04e4bba34f5a0345ff95c87cbc62d4f347d7a81f524504ee6b032",
                    "bloom": "0x00000000000000000000000000000000000000000000000000000000000000000000000000000000000000000000000000000000000000000000000000000000000000000000000000000000000000000000000000000000000000000000000000000000000000000000000000000000000000000000000000000000000000000000000000000000000000000000000000000000000000000000000000000000000000000000000000000000000000000000000000000000000000000000000000000000000000000000000000000000000000000000000000000000000000000000000000000000000000000000000000000000000000000000000000000000",
                    "difficulty": "0x00",
                    "number": "0x01",
                    "gasLimit": "0x07270e00",
                    "gasUsed": "0x0f1308",
                    "timestamp": "0x03e8",
                    "extraData": "0x00",
                    "mixHash": "0x0000000000000000000000000000000000000000000000000000000000000000",
                    "nonce": "0x0000000000000000",
                    "baseFeePerGas": "0x07",
                    "hash": "0x62469f8cf040c71f60adabe7ea5f168abecb7458b8734c2c65f3b8303edf7314"
                },
                "transactions": [
                    {
                        "type": "0x00",
                        "chainId": "0x01",
                        "nonce": "0x00",
                        "gasPrice": "0x0a",
                        "gasLimit": "0x0f4240",
                        "value": "0x01",
                        "data": "0x7f00000000000000000000000000000000000000000000000000000000000000006000526000600060006000f560005500",
                        "v": "0x25",
                        "r": "0xab96f00d8969b3d51cbc40f110885e9a9e13b7d4b837dd85e17249871e4a5908",
                        "s": "0x6b165f03e7b46a5824777bb621e5f1931f073680292dcdc565a5ba20a92886d1",
                        "sender": "0x1ad9bc24818784172ff393bb6f89f094d4d2ca29",
                        "to": ""
                    }
                ],
                "uncleHeaders": [],
                "receipts": [
                    {
                        "transactionHash": "0xd6f6063c0c9e15851161548daace14b7c1e629b258c3ef55049559c754100b67",
                        "type": "0x00",
                        "cumulativeGasUsed": "0x0f1308",
                        "bloom": "0x00000000000000000000000000000000000000000000000000000000000000000000000000000000000000000000000000000000000000000000000000000000000000000000000000000000000000000000000000000000000000000000000000000000000000000000000000000000000000000000000000000000000000000000000000000000000000000000000000000000000000000000000000000000000000000000000000000000000000000000000000000000000000000000000000000000000000000000000000000000000000000000000000000000000000000000000000000000000000000000000000000000000000000000000000000000",
                        "logs": [],
                        "status": true,
                        "rlp": "0xf9010901830f1308b9010000000000000000000000000000000000000000000000000000000000000000000000000000000000000000000000000000000000000000000000000000000000000000000000000000000000000000000000000000000000000000000000000000000000000000000000000000000000000000000000000000000000000000000000000000000000000000000000000000000000000000000000000000000000000000000000000000000000000000000000000000000000000000000000000000000000000000000000000000000000000000000000000000000000000000000000000000000000000000000000000000000000000000000000000000000000c0"
                    }
                ],
                "rlp": "0xf9027cf901f7a0347742657796fe532b09ec73a5dc64af7db6f6cc6a8a8b9f2765ec4e53fd8d32a01dcc4de8dec75d7aab85b567b6ccd41ad312451b948a7413f0a142fd40d49347942adc25665018aa1fe0e6bc666dac8fc2697ff9baa074485cd469d9dd38d85253b575fa7f1f74e2d41c1d2e9c7c536d8bca133a6046a016dd5a5d777020c589420b5422a0b843816335a2dd1ef43451940509c6a1d85ba013fe4cf2fba04e4bba34f5a0345ff95c87cbc62d4f347d7a81f524504ee6b032b901000000000000000000000000000000000000000000000000000000000000000000000000000000000000000000000000000000000000000000000000000000000000000000000000000000000000000000000000000000000000000000000000000000000000000000000000000000000000000000000000000000000000000000000000000000000000000000000000000000000000000000000000000000000000000000000000000000000000000000000000000000000000000000000000000000000000000000000000000000000000000000000000000000000000000000000000000000000000000000000000000000000000000000000000000000000080018407270e00830f13088203e800a0000000000000000000000000000000000000000000000000000000000000000088000000000000000007f87ff87d800a830f42408001b17f00000000000000000000000000000000000000000000000000000000000000006000526000600060006000f56000550025a0ab96f00d8969b3d51cbc40f110885e9a9e13b7d4b837dd85e17249871e4a5908a06b165f03e7b46a5824777bb621e5f1931f073680292dcdc565a5ba20a92886d1c0",
                "blocknumber": "1"
            }
        ],
        "sealEngine": "NoProof",
        "_info": {
            "hash": "0x6e1a1eb2b80fa0f893f24bce45991347a8ccc7211a8b56ec9bedd06217c450fd",
            "fixture-format": "blockchain_test",
            "comment": "`execution-specs` generated test",
            "filling-transition-tool": "2.19.0",
            "description": "Test that CREATE2 fails when targeting an address with pre-existing\nstorage.\n\nA CREATE transaction deploys a contract that executes CREATE2. The CREATE2\ntarget address has pre-existing storage, which should cause the CREATE2 to\nfail per EIP-7610. The deployer stores the CREATE2 result to slot 0 (0 on\nfailure).",
            "url": "https://github.com/ethereum/execution-specs/blob/tests-bal@v5.6.0/tests/paris/eip7610_create_collision/test_revert_in_create.py#L88",
            "metadata": {
                "opcode_count": {}
            },
            "reference-spec": "https://github.com/ethereum/EIPs/blob/master/EIPS/eip-7610.md",
            "reference-spec-version": "80ef48d0bbb5a4939ade51caaaac57b5df6acd4e"
        }
    },
    "tests/paris/eip7610_create_collision/test_revert_in_create.py::test_create2_collision_storage[fork_Paris-blockchain_test_from_state_test-initcode-with-deploy]": {
        "network": "Paris",
        "genesisBlockHeader": {
            "parentHash": "0x0000000000000000000000000000000000000000000000000000000000000000",
            "uncleHash": "0x1dcc4de8dec75d7aab85b567b6ccd41ad312451b948a7413f0a142fd40d49347",
            "coinbase": "0x0000000000000000000000000000000000000000",
            "stateRoot": "0x34d4ba9abaceab85da4742f771df8ef35977298ec376c1df08e0cfff3c5ecc15",
            "transactionsTrie": "0x56e81f171bcc55a6ff8345e692c0f86e5b48e01b996cadc001622fb5e363b421",
            "receiptTrie": "0x56e81f171bcc55a6ff8345e692c0f86e5b48e01b996cadc001622fb5e363b421",
            "bloom": "0x00000000000000000000000000000000000000000000000000000000000000000000000000000000000000000000000000000000000000000000000000000000000000000000000000000000000000000000000000000000000000000000000000000000000000000000000000000000000000000000000000000000000000000000000000000000000000000000000000000000000000000000000000000000000000000000000000000000000000000000000000000000000000000000000000000000000000000000000000000000000000000000000000000000000000000000000000000000000000000000000000000000000000000000000000000000",
            "difficulty": "0x00",
            "number": "0x00",
            "gasLimit": "0x07270e00",
            "gasUsed": "0x00",
            "timestamp": "0x00",
            "extraData": "0x00",
            "mixHash": "0x0000000000000000000000000000000000000000000000000000000000000000",
            "nonce": "0x0000000000000000",
            "baseFeePerGas": "0x07",
            "hash": "0x5ef325316676a533d235a7cebb85943c85b388f1d2238a04eb66b2ef39d028ac"
        },
        "pre": {
            "0x1ad9bc24818784172ff393bb6f89f094d4d2ca29": {
                "nonce": "0x00",
                "balance": "0x3635c9adc5dea00000",
                "code": "0x",
                "storage": {}
            },
            "0x2e981f27abbb5020ebadd9349a550e255361d13f": {
                "nonce": "0x00",
                "balance": "0x0a",
                "code": "0x",
                "storage": {
                    "0x00": "0x01"
                }
            }
        },
        "postState": {
            "0x1ad9bc24818784172ff393bb6f89f094d4d2ca29": {
                "nonce": "0x01",
                "balance": "0x3635c9adc5de094191",
                "code": "0x",
                "storage": {}
            },
            "0x2e981f27abbb5020ebadd9349a550e255361d13f": {
                "nonce": "0x00",
                "balance": "0x0a",
                "code": "0x",
                "storage": {
                    "0x00": "0x01"
                }
            },
            "0x36bdd8886852759e2046e3bf4c290d5c29c81d82": {
                "nonce": "0x02",
                "balance": "0x01",
                "code": "0x",
                "storage": {}
            },
            "0x2adc25665018aa1fe0e6bc666dac8fc2697ff9ba": {
                "nonce": "0x00",
                "balance": "0x2d3921",
                "code": "0x",
                "storage": {}
            }
        },
        "lastblockhash": "0xc30083957edbbd275a96cf4b25bbb1741cda16fdae19e2e5bea5fbe32ff3481d",
        "config": {
            "network": "Paris",
            "chainid": "0x01"
        },
        "genesisRLP": "0xf901f7f901f2a00000000000000000000000000000000000000000000000000000000000000000a01dcc4de8dec75d7aab85b567b6ccd41ad312451b948a7413f0a142fd40d49347940000000000000000000000000000000000000000a034d4ba9abaceab85da4742f771df8ef35977298ec376c1df08e0cfff3c5ecc15a056e81f171bcc55a6ff8345e692c0f86e5b48e01b996cadc001622fb5e363b421a056e81f171bcc55a6ff8345e692c0f86e5b48e01b996cadc001622fb5e363b421b901000000000000000000000000000000000000000000000000000000000000000000000000000000000000000000000000000000000000000000000000000000000000000000000000000000000000000000000000000000000000000000000000000000000000000000000000000000000000000000000000000000000000000000000000000000000000000000000000000000000000000000000000000000000000000000000000000000000000000000000000000000000000000000000000000000000000000000000000000000000000000000000000000000000000000000000000000000000000000000000000000000000000000000000000000000000080808407270e00808000a0000000000000000000000000000000000000000000000000000000000000000088000000000000000007c0c0",
        "blocks": [
            {
                "blockHeader": {
                    "parentHash": "0x5ef325316676a533d235a7cebb85943c85b388f1d2238a04eb66b2ef39d028ac",
                    "uncleHash": "0x1dcc4de8dec75d7aab85b567b6ccd41ad312451b948a7413f0a142fd40d49347",
                    "coinbase": "0x2adc25665018aa1fe0e6bc666dac8fc2697ff9ba",
                    "stateRoot": "0x32d68871f18de00e4fe7e716dd1573f67d0f681a794eeac3d9550e36b6860340",
                    "transactionsTrie": "0x9690176de06daeb19bfddc5326170fb293674501075df149d55ba89359f692a4",
                    "receiptTrie": "0x6031d3bb45848d9d31437275c6ee3a8214b097fc35b4e2026e006aa0fb03d4f4",
                    "bloom": "0x00000000000000000000000000000000000000000000000000000000000000000000000000000000000000000000000000000000000000000000000000000000000000000000000000000000000000000000000000000000000000000000000000000000000000000000000000000000000000000000000000000000000000000000000000000000000000000000000000000000000000000000000000000000000000000000000000000000000000000000000000000000000000000000000000000000000000000000000000000000000000000000000000000000000000000000000000000000000000000000000000000000000000000000000000000000",
                    "difficulty": "0x00",
                    "number": "0x01",
                    "gasLimit": "0x07270e00",
                    "gasUsed": "0x0f130b",
                    "timestamp": "0x03e8",
                    "extraData": "0x00",
                    "mixHash": "0x0000000000000000000000000000000000000000000000000000000000000000",
                    "nonce": "0x0000000000000000",
                    "baseFeePerGas": "0x07",
                    "hash": "0xc30083957edbbd275a96cf4b25bbb1741cda16fdae19e2e5bea5fbe32ff3481d"
                },
                "transactions": [
                    {
                        "type": "0x00",
                        "chainId": "0x01",
                        "nonce": "0x00",
                        "gasPrice": "0x0a",
                        "gasLimit": "0x0f4240",
                        "value": "0x01",
                        "data": "0x7f610005600081600b8239f36001600155000000000000000000000000000000006000526000601060006000f560005500",
                        "v": "0x25",
                        "r": "0x0513e38ef80a61677836983508a821bfec55b55dc4ca9c7646e11c087bce008a",
                        "s": "0x6d19f4b9f6c659512e98144996d328b686061dee50ad0c52ed0b8dfd4712ec85",
                        "sender": "0x1ad9bc24818784172ff393bb6f89f094d4d2ca29",
                        "to": ""
                    }
                ],
                "uncleHeaders": [],
                "receipts": [
                    {
                        "transactionHash": "0xc6ee5913f73d7f22797df0166322ec1da64fd773a23ee63b70de9868a5f787b9",
                        "type": "0x00",
                        "cumulativeGasUsed": "0x0f130b",
                        "bloom": "0x00000000000000000000000000000000000000000000000000000000000000000000000000000000000000000000000000000000000000000000000000000000000000000000000000000000000000000000000000000000000000000000000000000000000000000000000000000000000000000000000000000000000000000000000000000000000000000000000000000000000000000000000000000000000000000000000000000000000000000000000000000000000000000000000000000000000000000000000000000000000000000000000000000000000000000000000000000000000000000000000000000000000000000000000000000000",
                        "logs": [],
                        "status": true,
                        "rlp": "0xf9010901830f130bb9010000000000000000000000000000000000000000000000000000000000000000000000000000000000000000000000000000000000000000000000000000000000000000000000000000000000000000000000000000000000000000000000000000000000000000000000000000000000000000000000000000000000000000000000000000000000000000000000000000000000000000000000000000000000000000000000000000000000000000000000000000000000000000000000000000000000000000000000000000000000000000000000000000000000000000000000000000000000000000000000000000000000000000000000000000000000c0"
                    }
                ],
                "rlp": "0xf9027cf901f7a05ef325316676a533d235a7cebb85943c85b388f1d2238a04eb66b2ef39d028aca01dcc4de8dec75d7aab85b567b6ccd41ad312451b948a7413f0a142fd40d49347942adc25665018aa1fe0e6bc666dac8fc2697ff9baa032d68871f18de00e4fe7e716dd1573f67d0f681a794eeac3d9550e36b6860340a09690176de06daeb19bfddc5326170fb293674501075df149d55ba89359f692a4a06031d3bb45848d9d31437275c6ee3a8214b097fc35b4e2026e006aa0fb03d4f4b901000000000000000000000000000000000000000000000000000000000000000000000000000000000000000000000000000000000000000000000000000000000000000000000000000000000000000000000000000000000000000000000000000000000000000000000000000000000000000000000000000000000000000000000000000000000000000000000000000000000000000000000000000000000000000000000000000000000000000000000000000000000000000000000000000000000000000000000000000000000000000000000000000000000000000000000000000000000000000000000000000000000000000000000000000000000080018407270e00830f130b8203e800a0000000000000000000000000000000000000000000000000000000000000000088000000000000000007f87ff87d800a830f42408001b17f610005600081600b8239f36001600155000000000000000000000000000000006000526000601060006000f56000550025a00513e38ef80a61677836983508a821bfec55b55dc4ca9c7646e11c087bce008aa06d19f4b9f6c659512e98144996d328b686061dee50ad0c52ed0b8dfd4712ec85c0",
                "blocknumber": "1"
            }
        ],
        "sealEngine": "NoProof",
        "_info": {
            "hash": "0x1be7517886d71cd0dd9d516f2d8395ba12bfd2f6ebe7f9694cbbfd1d201d2df2",
            "fixture-format": "blockchain_test",
            "comment": "`execution-specs` generated test",
            "filling-transition-tool": "2.19.0",
            "description": "Test that CREATE2 fails when targeting an address with pre-existing\nstorage.\n\nA CREATE transaction deploys a contract that executes CREATE2. The CREATE2\ntarget address has pre-existing storage, which should cause the CREATE2 to\nfail per EIP-7610. The deployer stores the CREATE2 result to slot 0 (0 on\nfailure).",
            "url": "https://github.com/ethereum/execution-specs/blob/tests-bal@v5.6.0/tests/paris/eip7610_create_collision/test_revert_in_create.py#L88",
            "metadata": {
                "opcode_count": {}
            },
            "reference-spec": "https://github.com/ethereum/EIPs/blob/master/EIPS/eip-7610.md",
            "reference-spec-version": "80ef48d0bbb5a4939ade51caaaac57b5df6acd4e"
        }
    },
    "tests/paris/eip7610_create_collision/test_revert_in_create.py::test_create2_collision_storage[fork_Paris-blockchain_test_from_state_test-sstore-initcode]": {
        "network": "Paris",
        "genesisBlockHeader": {
            "parentHash": "0x0000000000000000000000000000000000000000000000000000000000000000",
            "uncleHash": "0x1dcc4de8dec75d7aab85b567b6ccd41ad312451b948a7413f0a142fd40d49347",
            "coinbase": "0x0000000000000000000000000000000000000000",
            "stateRoot": "0x72175a123dd3574ea581119fe780199886b756522c83541d8ea9b092c66cc947",
            "transactionsTrie": "0x56e81f171bcc55a6ff8345e692c0f86e5b48e01b996cadc001622fb5e363b421",
            "receiptTrie": "0x56e81f171bcc55a6ff8345e692c0f86e5b48e01b996cadc001622fb5e363b421",
            "bloom": "0x00000000000000000000000000000000000000000000000000000000000000000000000000000000000000000000000000000000000000000000000000000000000000000000000000000000000000000000000000000000000000000000000000000000000000000000000000000000000000000000000000000000000000000000000000000000000000000000000000000000000000000000000000000000000000000000000000000000000000000000000000000000000000000000000000000000000000000000000000000000000000000000000000000000000000000000000000000000000000000000000000000000000000000000000000000000",
            "difficulty": "0x00",
            "number": "0x00",
            "gasLimit": "0x07270e00",
            "gasUsed": "0x00",
            "timestamp": "0x00",
            "extraData": "0x00",
            "mixHash": "0x0000000000000000000000000000000000000000000000000000000000000000",
            "nonce": "0x0000000000000000",
            "baseFeePerGas": "0x07",
            "hash": "0xdd1d7e69b2c6d2ff7e635c7485db745fc0d7b77420312e79d36a18b1a1396503"
        },
        "pre": {
            "0x1ad9bc24818784172ff393bb6f89f094d4d2ca29": {
                "nonce": "0x00",
                "balance": "0x3635c9adc5dea00000",
                "code": "0x",
                "storage": {}
            },
            "0x57a77219d6f3666ad872539336e63d4458d7a9fa": {
                "nonce": "0x00",
                "balance": "0x0a",
                "code": "0x",
                "storage": {
                    "0x00": "0x01"
                }
            }
        },
        "postState": {
            "0x1ad9bc24818784172ff393bb6f89f094d4d2ca29": {
                "nonce": "0x01",
                "balance": "0x3635c9adc5de0941a5",
                "code": "0x",
                "storage": {}
            },
            "0x57a77219d6f3666ad872539336e63d4458d7a9fa": {
                "nonce": "0x00",
                "balance": "0x0a",
                "code": "0x",
                "storage": {
                    "0x00": "0x01"
                }
            },
            "0x36bdd8886852759e2046e3bf4c290d5c29c81d82": {
                "nonce": "0x02",
                "balance": "0x01",
                "code": "0x",
                "storage": {}
            },
            "0x2adc25665018aa1fe0e6bc666dac8fc2697ff9ba": {
                "nonce": "0x00",
                "balance": "0x2d391b",
                "code": "0x",
                "storage": {}
            }
        },
        "lastblockhash": "0xdc0baf3e0c5375c377e4a99f5bd4f5a18f98f9ae0227dd71ff877aeb78f52460",
        "config": {
            "network": "Paris",
            "chainid": "0x01"
        },
        "genesisRLP": "0xf901f7f901f2a00000000000000000000000000000000000000000000000000000000000000000a01dcc4de8dec75d7aab85b567b6ccd41ad312451b948a7413f0a142fd40d49347940000000000000000000000000000000000000000a072175a123dd3574ea581119fe780199886b756522c83541d8ea9b092c66cc947a056e81f171bcc55a6ff8345e692c0f86e5b48e01b996cadc001622fb5e363b421a056e81f171bcc55a6ff8345e692c0f86e5b48e01b996cadc001622fb5e363b421b901000000000000000000000000000000000000000000000000000000000000000000000000000000000000000000000000000000000000000000000000000000000000000000000000000000000000000000000000000000000000000000000000000000000000000000000000000000000000000000000000000000000000000000000000000000000000000000000000000000000000000000000000000000000000000000000000000000000000000000000000000000000000000000000000000000000000000000000000000000000000000000000000000000000000000000000000000000000000000000000000000000000000000000000000000000000080808407270e00808000a0000000000000000000000000000000000000000000000000000000000000000088000000000000000007c0c0",
        "blocks": [
            {
                "blockHeader": {
                    "parentHash": "0xdd1d7e69b2c6d2ff7e635c7485db745fc0d7b77420312e79d36a18b1a1396503",
                    "uncleHash": "0x1dcc4de8dec75d7aab85b567b6ccd41ad312451b948a7413f0a142fd40d49347",
                    "coinbase": "0x2adc25665018aa1fe0e6bc666dac8fc2697ff9ba",
                    "stateRoot": "0x212475f261a66a1b6427ac4eb99b495ff44c7b925282e466636484ea7cbcfa46",
                    "transactionsTrie": "0x08e4d072e582b21589bc9db870e3bdf8f2945be8752908650b34014bf74e684b",
                    "receiptTrie": "0x49242880162b81bb07f90bd8f2844af54a4b97ed26d112e648dbbb1de9bb5bc3",
                    "bloom": "0x00000000000000000000000000000000000000000000000000000000000000000000000000000000000000000000000000000000000000000000000000000000000000000000000000000000000000000000000000000000000000000000000000000000000000000000000000000000000000000000000000000000000000000000000000000000000000000000000000000000000000000000000000000000000000000000000000000000000000000000000000000000000000000000000000000000000000000000000000000000000000000000000000000000000000000000000000000000000000000000000000000000000000000000000000000000",
                    "difficulty": "0x00",
                    "number": "0x01",
                    "gasLimit": "0x07270e00",
                    "gasUsed": "0x0f1309",
                    "timestamp": "0x03e8",
                    "extraData": "0x00",
                    "mixHash": "0x0000000000000000000000000000000000000000000000000000000000000000",
                    "nonce": "0x0000000000000000",
                    "baseFeePerGas": "0x07",
                    "hash": "0xdc0baf3e0c5375c377e4a99f5bd4f5a18f98f9ae0227dd71ff877aeb78f52460"
                },
                "transactions": [
                    {
                        "type": "0x00",
                        "chainId": "0x01",
                        "nonce": "0x00",
                        "gasPrice": "0x0a",
                        "gasLimit": "0x0f4240",
                        "value": "0x01",
                        "data": "0x7f60016001550000000000000000000000000000000000000000000000000000006000526000600560006000f560005500",
                        "v": "0x26",
                        "r": "0x74efcf5e67af78f42c22a762b28243f32ba127c30f37d470d033500558f51dfe",
                        "s": "0x45a09003d12182f40abd03a09337296775edc6ea30f0012e0eaa281ba014c144",
                        "sender": "0x1ad9bc24818784172ff393bb6f89f094d4d2ca29",
                        "to": ""
                    }
                ],
                "uncleHeaders": [],
                "receipts": [
                    {
                        "transactionHash": "0xc6ddfcadcdcf23c6e4c8a0011a39bd3c79a63143e3cf91a044d2bb055b43e44b",
                        "type": "0x00",
                        "cumulativeGasUsed": "0x0f1309",
                        "bloom": "0x00000000000000000000000000000000000000000000000000000000000000000000000000000000000000000000000000000000000000000000000000000000000000000000000000000000000000000000000000000000000000000000000000000000000000000000000000000000000000000000000000000000000000000000000000000000000000000000000000000000000000000000000000000000000000000000000000000000000000000000000000000000000000000000000000000000000000000000000000000000000000000000000000000000000000000000000000000000000000000000000000000000000000000000000000000000",
                        "logs": [],
                        "status": true,
                        "rlp": "0xf9010901830f1309b9010000000000000000000000000000000000000000000000000000000000000000000000000000000000000000000000000000000000000000000000000000000000000000000000000000000000000000000000000000000000000000000000000000000000000000000000000000000000000000000000000000000000000000000000000000000000000000000000000000000000000000000000000000000000000000000000000000000000000000000000000000000000000000000000000000000000000000000000000000000000000000000000000000000000000000000000000000000000000000000000000000000000000000000000000000000000c0"
                    }
                ],
                "rlp": "0xf9027cf901f7a0dd1d7e69b2c6d2ff7e635c7485db745fc0d7b77420312e79d36a18b1a1396503a01dcc4de8dec75d7aab85b567b6ccd41ad312451b948a7413f0a142fd40d49347942adc25665018aa1fe0e6bc666dac8fc2697ff9baa0212475f261a66a1b6427ac4eb99b495ff44c7b925282e466636484ea7cbcfa46a008e4d072e582b21589bc9db870e3bdf8f2945be8752908650b34014bf74e684ba049242880162b81bb07f90bd8f2844af54a4b97ed26d112e648dbbb1de9bb5bc3b901000000000000000000000000000000000000000000000000000000000000000000000000000000000000000000000000000000000000000000000000000000000000000000000000000000000000000000000000000000000000000000000000000000000000000000000000000000000000000000000000000000000000000000000000000000000000000000000000000000000000000000000000000000000000000000000000000000000000000000000000000000000000000000000000000000000000000000000000000000000000000000000000000000000000000000000000000000000000000000000000000000000000000000000000000000000080018407270e00830f13098203e800a0000000000000000000000000000000000000000000000000000000000000000088000000000000000007f87ff87d800a830f42408001b17f60016001550000000000000000000000000000000000000000000000000000006000526000600560006000f56000550026a074efcf5e67af78f42c22a762b28243f32ba127c30f37d470d033500558f51dfea045a09003d12182f40abd03a09337296775edc6ea30f0012e0eaa281ba014c144c0",
                "blocknumber": "1"
            }
        ],
        "sealEngine": "NoProof",
        "_info": {
            "hash": "0x013ef4fd6b299def76dc434c2e46fb705599aaeec564412a9ccedc52a02e6f28",
            "fixture-format": "blockchain_test",
            "comment": "`execution-specs` generated test",
            "filling-transition-tool": "2.19.0",
            "description": "Test that CREATE2 fails when targeting an address with pre-existing\nstorage.\n\nA CREATE transaction deploys a contract that executes CREATE2. The CREATE2\ntarget address has pre-existing storage, which should cause the CREATE2 to\nfail per EIP-7610. The deployer stores the CREATE2 result to slot 0 (0 on\nfailure).",
            "url": "https://github.com/ethereum/execution-specs/blob/tests-bal@v5.6.0/tests/paris/eip7610_create_collision/test_revert_in_create.py#L88",
            "metadata": {
                "opcode_count": {}
            },
            "reference-spec": "https://github.com/ethereum/EIPs/blob/master/EIPS/eip-7610.md",
            "reference-spec-version": "80ef48d0bbb5a4939ade51caaaac57b5df6acd4e"
        }
    }
}