{
    "tests/ported_static/stRevertTest/test_revert_prefound_empty_call_oog_paris.py::test_revert_prefound_empty_call_oog_paris[fork_Cancun-blockchain_test_from_state_test]": {
        "network": "Cancun",
        "genesisBlockHeader": {
            "parentHash": "0x0000000000000000000000000000000000000000000000000000000000000000",
            "uncleHash": "0x1dcc4de8dec75d7aab85b567b6ccd41ad312451b948a7413f0a142fd40d49347",
            "coinbase": "0x0000000000000000000000000000000000000000",
            "stateRoot": "0xfa469fed51623a328f8923eff2d29f04abf0349c13567da0ad2c63c41bcd1a9f",
            "transactionsTrie": "0x56e81f171bcc55a6ff8345e692c0f86e5b48e01b996cadc001622fb5e363b421",
            "receiptTrie": "0x56e81f171bcc55a6ff8345e692c0f86e5b48e01b996cadc001622fb5e363b421",
            "bloom": "0x00000000000000000000000000000000000000000000000000000000000000000000000000000000000000000000000000000000000000000000000000000000000000000000000000000000000000000000000000000000000000000000000000000000000000000000000000000000000000000000000000000000000000000000000000000000000000000000000000000000000000000000000000000000000000000000000000000000000000000000000000000000000000000000000000000000000000000000000000000000000000000000000000000000000000000000000000000000000000000000000000000000000000000000000000000000",
            "difficulty": "0x00",
            "number": "0x00",
            "gasLimit": "0x989680",
            "gasUsed": "0x00",
            "timestamp": "0x00",
            "extraData": "0x00",
            "mixHash": "0x0000000000000000000000000000000000000000000000000000000000000000",
            "nonce": "0x0000000000000000",
            "baseFeePerGas": "0x0b",
            "withdrawalsRoot": "0x56e81f171bcc55a6ff8345e692c0f86e5b48e01b996cadc001622fb5e363b421",
            "blobGasUsed": "0x00",
            "excessBlobGas": "0x00",
            "parentBeaconBlockRoot": "0x0000000000000000000000000000000000000000000000000000000000000000",
            "hash": "0x71cfa53f710329e18ab74e7541b5566003c0901b76cb498f547b0a1992398ff1"
        },
        "pre": {
            "0x000f3df6d732807ef1319fb7b8bb8522d0beac02": {
                "nonce": "0x01",
                "balance": "0x00",
                "code": "0x3373fffffffffffffffffffffffffffffffffffffffe14604d57602036146024575f5ffd5b5f35801560495762001fff810690815414603c575f5ffd5b62001fff01545f5260205ff35b5f5ffd5b62001fff42064281555f359062001fff015500",
                "storage": {}
            },
            "0xd719ccdb2301950b0a0bdf09a2bb1d5f8b225f6f": {
                "nonce": "0x00",
                "balance": "0xe8d4a51000",
                "code": "0x",
                "storage": {}
            },
            "0xd17feeb0d691f6df47893bc7b92ea5dbfece9856": {
                "nonce": "0x00",
                "balance": "0x0a",
                "code": "0x",
                "storage": {}
            },
            "0x8e312ed66416b0af90829107e564ba4a2d1a88bf": {
                "nonce": "0x00",
                "balance": "0x01",
                "code": "0x6020600060206000600073d17feeb0d691f6df47893bc7b92ea5dbfece985661c350f1600055600c600155600c60025500",
                "storage": {}
            }
        },
        "postState": {
            "0x000f3df6d732807ef1319fb7b8bb8522d0beac02": {
                "nonce": "0x01",
                "balance": "0x00",
                "code": "0x3373fffffffffffffffffffffffffffffffffffffffe14604d57602036146024575f5ffd5b5f35801560495762001fff810690815414603c575f5ffd5b62001fff01545f5260205ff35b5f5ffd5b62001fff42064281555f359062001fff015500",
                "storage": {
                    "0x03e8": "0x03e8"
                }
            },
            "0xd719ccdb2301950b0a0bdf09a2bb1d5f8b225f6f": {
                "nonce": "0x01",
                "balance": "0xe8d49b7310",
                "code": "0x",
                "storage": {}
            },
            "0xd17feeb0d691f6df47893bc7b92ea5dbfece9856": {
                "nonce": "0x00",
                "balance": "0x0a",
                "code": "0x",
                "storage": {}
            },
            "0x8e312ed66416b0af90829107e564ba4a2d1a88bf": {
                "nonce": "0x00",
                "balance": "0x01",
                "code": "0x6020600060206000600073d17feeb0d691f6df47893bc7b92ea5dbfece985661c350f1600055600c600155600c60025500",
                "storage": {}
            }
        },
        "lastblockhash": "0x5d765c881cbb3b9eddbc595a447d3169e96eb843cd85526f957df297d52dce25",
        "config": {
            "network": "Cancun",
            "chainid": "0x01",
            "blobSchedule": {
                "Cancun": {
                    "target": "0x03",
                    "max": "0x06",
                    "baseFeeUpdateFraction": "0x32f0ed"
                }
            }
        },
        "genesisRLP": "0xf9023bf90235a00000000000000000000000000000000000000000000000000000000000000000a01dcc4de8dec75d7aab85b567b6ccd41ad312451b948a7413f0a142fd40d49347940000000000000000000000000000000000000000a0fa469fed51623a328f8923eff2d29f04abf0349c13567da0ad2c63c41bcd1a9fa056e81f171bcc55a6ff8345e692c0f86e5b48e01b996cadc001622fb5e363b421a056e81f171bcc55a6ff8345e692c0f86e5b48e01b996cadc001622fb5e363b421b9010000000000000000000000000000000000000000000000000000000000000000000000000000000000000000000000000000000000000000000000000000000000000000000000000000000000000000000000000000000000000000000000000000000000000000000000000000000000000000000000000000000000000000000000000000000000000000000000000000000000000000000000000000000000000000000000000000000000000000000000000000000000000000000000000000000000000000000000000000000000000000000000000000000000000000000000000000000000000000000000000000000000000000000000000000000000808083989680808000a000000000000000000000000000000000000000000000000000000000000000008800000000000000000ba056e81f171bcc55a6ff8345e692c0f86e5b48e01b996cadc001622fb5e363b4218080a00000000000000000000000000000000000000000000000000000000000000000c0c0c0",
        "blocks": [
            {
                "blockHeader": {
                    "parentHash": "0x71cfa53f710329e18ab74e7541b5566003c0901b76cb498f547b0a1992398ff1",
                    "uncleHash": "0x1dcc4de8dec75d7aab85b567b6ccd41ad312451b948a7413f0a142fd40d49347",
                    "coinbase": "0x2adc25665018aa1fe0e6bc666dac8fc2697ff9ba",
                    "stateRoot": "0x776cdbeafa69d77b4bb96c6f320bd13d74ba43c39b529e144cf81321c6f2a44d",
                    "transactionsTrie": "0xb4737cc06a48fcd7b383df47b33837385628201b8545e180a5e912494d1bb5a6",
                    "receiptTrie": "0xea5612179b7b4a1f92bf7fc46c363bfe9555bf38b5b90fcb10d6815123883474",
                    "bloom": "0x00000000000000000000000000000000000000000000000000000000000000000000000000000000000000000000000000000000000000000000000000000000000000000000000000000000000000000000000000000000000000000000000000000000000000000000000000000000000000000000000000000000000000000000000000000000000000000000000000000000000000000000000000000000000000000000000000000000000000000000000000000000000000000000000000000000000000000000000000000000000000000000000000000000000000000000000000000000000000000000000000000000000000000000000000000000",
                    "difficulty": "0x00",
                    "number": "0x01",
                    "gasLimit": "0x989680",
                    "gasUsed": "0xf618",
                    "timestamp": "0x03e8",
                    "extraData": "0x00",
                    "mixHash": "0x0000000000000000000000000000000000000000000000000000000000020000",
                    "nonce": "0x0000000000000000",
                    "baseFeePerGas": "0x0a",
                    "withdrawalsRoot": "0x56e81f171bcc55a6ff8345e692c0f86e5b48e01b996cadc001622fb5e363b421",
                    "blobGasUsed": "0x00",
                    "excessBlobGas": "0x00",
                    "parentBeaconBlockRoot": "0x0000000000000000000000000000000000000000000000000000000000000000",
                    "hash": "0x5d765c881cbb3b9eddbc595a447d3169e96eb843cd85526f957df297d52dce25"
                },
                "transactions": [
                    {
                        "type": "0x00",
                        "chainId": "0x01",
                        "nonce": "0x00",
                        "gasPrice": "0x0a",
                        "gasLimit": "0xf618",
                        "to": "0x8e312ed66416b0af90829107e564ba4a2d1a88bf",
                        "value": "0x00",
                        "data": "0x",
                        "v": "0x25",
                        "r": "0x879ebf41e1749d8ae8fb70e256854f6296c2f1aae9d6ac462eb2ea91585ea96b",
                        "s": "0x7ccba4d0be4cc0351a10eb98b379652bce12da02e5dfcce8230ce81d15b77f77",
                        "sender": "0xd719ccdb2301950b0a0bdf09a2bb1d5f8b225f6f"
                    }
                ],
                "uncleHeaders": [],
                "withdrawals": [],
                "receipts": [
                    {
                        "transactionHash": "0xee5399edb4e2b3521bbbb28ed6ec2c57d442f14502215a031344ac92221482ea",
                        "type": "0x00",
                        "cumulativeGasUsed": "0xf618",
                        "bloom": "0x00000000000000000000000000000000000000000000000000000000000000000000000000000000000000000000000000000000000000000000000000000000000000000000000000000000000000000000000000000000000000000000000000000000000000000000000000000000000000000000000000000000000000000000000000000000000000000000000000000000000000000000000000000000000000000000000000000000000000000000000000000000000000000000000000000000000000000000000000000000000000000000000000000000000000000000000000000000000000000000000000000000000000000000000000000000",
                        "logs": [],
                        "status": false,
                        "rlp": "0xf901088082f618b9010000000000000000000000000000000000000000000000000000000000000000000000000000000000000000000000000000000000000000000000000000000000000000000000000000000000000000000000000000000000000000000000000000000000000000000000000000000000000000000000000000000000000000000000000000000000000000000000000000000000000000000000000000000000000000000000000000000000000000000000000000000000000000000000000000000000000000000000000000000000000000000000000000000000000000000000000000000000000000000000000000000000000000000000000000000000c0"
                    }
                ],
                "rlp": "0xf902a1f90239a071cfa53f710329e18ab74e7541b5566003c0901b76cb498f547b0a1992398ff1a01dcc4de8dec75d7aab85b567b6ccd41ad312451b948a7413f0a142fd40d49347942adc25665018aa1fe0e6bc666dac8fc2697ff9baa0776cdbeafa69d77b4bb96c6f320bd13d74ba43c39b529e144cf81321c6f2a44da0b4737cc06a48fcd7b383df47b33837385628201b8545e180a5e912494d1bb5a6a0ea5612179b7b4a1f92bf7fc46c363bfe9555bf38b5b90fcb10d6815123883474b901000000000000000000000000000000000000000000000000000000000000000000000000000000000000000000000000000000000000000000000000000000000000000000000000000000000000000000000000000000000000000000000000000000000000000000000000000000000000000000000000000000000000000000000000000000000000000000000000000000000000000000000000000000000000000000000000000000000000000000000000000000000000000000000000000000000000000000000000000000000000000000000000000000000000000000000000000000000000000000000000000000000000000000000000000000000080018398968082f6188203e800a000000000000000000000000000000000000000000000000000000000000200008800000000000000000aa056e81f171bcc55a6ff8345e692c0f86e5b48e01b996cadc001622fb5e363b4218080a00000000000000000000000000000000000000000000000000000000000000000f861f85f800a82f618948e312ed66416b0af90829107e564ba4a2d1a88bf808025a0879ebf41e1749d8ae8fb70e256854f6296c2f1aae9d6ac462eb2ea91585ea96ba07ccba4d0be4cc0351a10eb98b379652bce12da02e5dfcce8230ce81d15b77f77c0c0",
                "blocknumber": "1"
            }
        ],
        "sealEngine": "NoProof",
        "_info": {
            "hash": "0x7773366f218e835f982d3c6568c4bb678331773a7896c26b3faf29072dfb7a84",
            "fixture-format": "blockchain_test",
            "comment": "`execution-specs` generated test",
            "filling-transition-tool": "2.19.0",
            "description": "Test_revert_prefound_empty_call_oog_paris.",
            "url": "https://github.com/ethereum/execution-specs/blob/tests-snobal-devnet-5@v8037.0.0/tests/ported_static/stRevertTest/test_revert_prefound_empty_call_oog_paris.py#L24",
            "metadata": {
                "opcode_count": {}
            }
        }
    }
}