{
    "tests/ported_static/stRandom/test_random_statetest248.py::test_random_statetest248[fork_Cancun-blockchain_test_from_state_test]": {
        "network": "Cancun",
        "genesisBlockHeader": {
            "parentHash": "0x0000000000000000000000000000000000000000000000000000000000000000",
            "uncleHash": "0x1dcc4de8dec75d7aab85b567b6ccd41ad312451b948a7413f0a142fd40d49347",
            "coinbase": "0x0000000000000000000000000000000000000000",
            "stateRoot": "0x52b446b2e6ab4ce19c4116baa703e7bd22401ed12e3a83be8d3d9e8fc59dd71e",
            "transactionsTrie": "0x56e81f171bcc55a6ff8345e692c0f86e5b48e01b996cadc001622fb5e363b421",
            "receiptTrie": "0x56e81f171bcc55a6ff8345e692c0f86e5b48e01b996cadc001622fb5e363b421",
            "bloom": "0x00000000000000000000000000000000000000000000000000000000000000000000000000000000000000000000000000000000000000000000000000000000000000000000000000000000000000000000000000000000000000000000000000000000000000000000000000000000000000000000000000000000000000000000000000000000000000000000000000000000000000000000000000000000000000000000000000000000000000000000000000000000000000000000000000000000000000000000000000000000000000000000000000000000000000000000000000000000000000000000000000000000000000000000000000000000",
            "difficulty": "0x00",
            "number": "0x00",
            "gasLimit": "0x07270e00",
            "gasUsed": "0x00",
            "timestamp": "0x00",
            "extraData": "0x00",
            "mixHash": "0x0000000000000000000000000000000000000000000000000000000000000000",
            "nonce": "0x0000000000000000",
            "baseFeePerGas": "0x0b",
            "withdrawalsRoot": "0x56e81f171bcc55a6ff8345e692c0f86e5b48e01b996cadc001622fb5e363b421",
            "blobGasUsed": "0x00",
            "excessBlobGas": "0x00",
            "parentBeaconBlockRoot": "0x0000000000000000000000000000000000000000000000000000000000000000",
            "hash": "0x602d25cf31e6883b10b14f40fdb6dd5b0ac51da1a6132eb397bce6be6c60612a"
        },
        "pre": {
            "0x000f3df6d732807ef1319fb7b8bb8522d0beac02": {
                "nonce": "0x01",
                "balance": "0x00",
                "code": "0x3373fffffffffffffffffffffffffffffffffffffffe14604d57602036146024575f5ffd5b5f35801560495762001fff810690815414603c575f5ffd5b62001fff01545f5260205ff35b5f5ffd5b62001fff42064281555f359062001fff015500",
                "storage": {}
            },
            "0xd66f224cbd2fabb21b17bb53c56118f32f62ebd6": {
                "nonce": "0x00",
                "balance": "0x0de0b6b3a7640000",
                "code": "0x",
                "storage": {}
            },
            "0x58412264c0ae89996aebb81816b21ba102bcb388": {
                "nonce": "0x00",
                "balance": "0x00",
                "code": "0x7f00000000000000000000000000000000000000000000000000000000000000017fffffffffffffffffffffffffffffffffffffffffffffffffffffffffffffffff7ffffffffffffffffffffffffffffffffffffffffffffffffffffffffffffffffe7f0000000000000000000000000000000000000000000000000000000000000001427f000000000000000000000000000000000000000000000000000000000000c3507f00000000000000000000000000000000000000000000000000000000000000007fffffffffffffffffffffffffffffffffffffffffffffffffffffffffffffffff8636f2599055",
                "storage": {}
            },
            "0x4f3f701464972e74606d6ea82d4d3080599a0e79": {
                "nonce": "0x00",
                "balance": "0x2e",
                "code": "0x6000355415600957005b60203560003555",
                "storage": {}
            }
        },
        "postState": {
            "0x000f3df6d732807ef1319fb7b8bb8522d0beac02": {
                "nonce": "0x01",
                "balance": "0x00",
                "code": "0x3373fffffffffffffffffffffffffffffffffffffffe14604d57602036146024575f5ffd5b5f35801560495762001fff810690815414603c575f5ffd5b62001fff01545f5260205ff35b5f5ffd5b62001fff42064281555f359062001fff015500",
                "storage": {
                    "0x03e8": "0x03e8"
                }
            },
            "0xd66f224cbd2fabb21b17bb53c56118f32f62ebd6": {
                "nonce": "0x01",
                "balance": "0x0de0b6b3869562a8",
                "code": "0x",
                "storage": {}
            },
            "0x58412264c0ae89996aebb81816b21ba102bcb388": {
                "nonce": "0x00",
                "balance": "0x20c4d1a6",
                "code": "0x7f00000000000000000000000000000000000000000000000000000000000000017fffffffffffffffffffffffffffffffffffffffffffffffffffffffffffffffff7ffffffffffffffffffffffffffffffffffffffffffffffffffffffffffffffffe7f0000000000000000000000000000000000000000000000000000000000000001427f000000000000000000000000000000000000000000000000000000000000c3507f00000000000000000000000000000000000000000000000000000000000000007fffffffffffffffffffffffffffffffffffffffffffffffffffffffffffffffff8636f2599055",
                "storage": {
                    "0x00": "0xc360"
                }
            },
            "0x4f3f701464972e74606d6ea82d4d3080599a0e79": {
                "nonce": "0x00",
                "balance": "0x2e",
                "code": "0x6000355415600957005b60203560003555",
                "storage": {}
            }
        },
        "lastblockhash": "0x5f1f2f582597ff94febca648244ab26fd50625b24d26c087a589ad292bc848a8",
        "config": {
            "network": "Cancun",
            "chainid": "0x01",
            "blobSchedule": {
                "Cancun": {
                    "target": "0x03",
                    "max": "0x06",
                    "baseFeeUpdateFraction": "0x32f0ed"
                }
            }
        },
        "genesisRLP": "0xf9023cf90236a00000000000000000000000000000000000000000000000000000000000000000a01dcc4de8dec75d7aab85b567b6ccd41ad312451b948a7413f0a142fd40d49347940000000000000000000000000000000000000000a052b446b2e6ab4ce19c4116baa703e7bd22401ed12e3a83be8d3d9e8fc59dd71ea056e81f171bcc55a6ff8345e692c0f86e5b48e01b996cadc001622fb5e363b421a056e81f171bcc55a6ff8345e692c0f86e5b48e01b996cadc001622fb5e363b421b901000000000000000000000000000000000000000000000000000000000000000000000000000000000000000000000000000000000000000000000000000000000000000000000000000000000000000000000000000000000000000000000000000000000000000000000000000000000000000000000000000000000000000000000000000000000000000000000000000000000000000000000000000000000000000000000000000000000000000000000000000000000000000000000000000000000000000000000000000000000000000000000000000000000000000000000000000000000000000000000000000000000000000000000000000000000080808407270e00808000a000000000000000000000000000000000000000000000000000000000000000008800000000000000000ba056e81f171bcc55a6ff8345e692c0f86e5b48e01b996cadc001622fb5e363b4218080a00000000000000000000000000000000000000000000000000000000000000000c0c0c0",
        "blocks": [
            {
                "blockHeader": {
                    "parentHash": "0x602d25cf31e6883b10b14f40fdb6dd5b0ac51da1a6132eb397bce6be6c60612a",
                    "uncleHash": "0x1dcc4de8dec75d7aab85b567b6ccd41ad312451b948a7413f0a142fd40d49347",
                    "coinbase": "0x4f3f701464972e74606d6ea82d4d3080599a0e79",
                    "stateRoot": "0xd2d31d2819e71aab88505722bbb272ba5c3f63ee49e0aa09b1607542de20e102",
                    "transactionsTrie": "0x581e097cee005abfeb60948f4f67926f33cb1b157b616b1b987ee2451f5f6fc4",
                    "receiptTrie": "0x17166e9174deb77f2b219b7aac9cd862532eebb0e6b3c4653ffb18fa94e845fc",
                    "bloom": "0x00000000000000000000000000000000000000000000000000000000000000000000000000000000000000000000000000000000000000000000000000000000000000000000000000000000000000000000000000000000000000000000000000000000000000000000000000000000000000000000000000000000000000000000000000000000000000000000000000000000000000000000000000000000000000000000000000000000000000000000000000000000000000000000000000000000000000000000000000000000000000000000000000000000000000000000000000000000000000000000000000000000000000000000000000000000",
                    "difficulty": "0x00",
                    "number": "0x01",
                    "gasLimit": "0x07270e00",
                    "gasUsed": "0xfac5",
                    "timestamp": "0x03e8",
                    "extraData": "0x00",
                    "mixHash": "0x0000000000000000000000000000000000000000000000000000000000020000",
                    "nonce": "0x0000000000000000",
                    "baseFeePerGas": "0x0a",
                    "withdrawalsRoot": "0x56e81f171bcc55a6ff8345e692c0f86e5b48e01b996cadc001622fb5e363b421",
                    "blobGasUsed": "0x00",
                    "excessBlobGas": "0x00",
                    "parentBeaconBlockRoot": "0x0000000000000000000000000000000000000000000000000000000000000000",
                    "hash": "0x5f1f2f582597ff94febca648244ab26fd50625b24d26c087a589ad292bc848a8"
                },
                "transactions": [
                    {
                        "type": "0x00",
                        "chainId": "0x01",
                        "nonce": "0x00",
                        "gasPrice": "0x0a",
                        "gasLimit": "0x0186a0",
                        "to": "0x58412264c0ae89996aebb81816b21ba102bcb388",
                        "value": "0x20c4d1a6",
                        "data": "0x7f00000000000000000000000000000000000000000000000000000000000000017fffffffffffffffffffffffffffffffffffffffffffffffffffffffffffffffff7ffffffffffffffffffffffffffffffffffffffffffffffffffffffffffffffffe7f0000000000000000000000000000000000000000000000000000000000000001427f000000000000000000000000000000000000000000000000000000000000c3507f00000000000000000000000000000000000000000000000000000000000000007fffffffffffffffffffffffffffffffffffffffffffffffffffffffffffffffff8636f25990",
                        "v": "0x26",
                        "r": "0x0a291c51e52d5f669463b5b5a9141e52f51afb15f2d86b4b88a53f2a9230aecb",
                        "s": "0x79ba51da605c5cde89e03cdf016e6aa241b08f72863d444d163c918e4ac659e9",
                        "sender": "0xd66f224cbd2fabb21b17bb53c56118f32f62ebd6"
                    }
                ],
                "uncleHeaders": [],
                "withdrawals": [],
                "receipts": [
                    {
                        "transactionHash": "0x7e46daafea478b7f61ace871fdbf51b4208da95d0baa02616b24f4113f317079",
                        "type": "0x00",
                        "cumulativeGasUsed": "0xfac5",
                        "bloom": "0x00000000000000000000000000000000000000000000000000000000000000000000000000000000000000000000000000000000000000000000000000000000000000000000000000000000000000000000000000000000000000000000000000000000000000000000000000000000000000000000000000000000000000000000000000000000000000000000000000000000000000000000000000000000000000000000000000000000000000000000000000000000000000000000000000000000000000000000000000000000000000000000000000000000000000000000000000000000000000000000000000000000000000000000000000000000",
                        "logs": [],
                        "status": true,
                        "rlp": "0xf901080182fac5b9010000000000000000000000000000000000000000000000000000000000000000000000000000000000000000000000000000000000000000000000000000000000000000000000000000000000000000000000000000000000000000000000000000000000000000000000000000000000000000000000000000000000000000000000000000000000000000000000000000000000000000000000000000000000000000000000000000000000000000000000000000000000000000000000000000000000000000000000000000000000000000000000000000000000000000000000000000000000000000000000000000000000000000000000000000000000c0"
                    }
                ],
                "rlp": "0xf90397f9023aa0602d25cf31e6883b10b14f40fdb6dd5b0ac51da1a6132eb397bce6be6c60612aa01dcc4de8dec75d7aab85b567b6ccd41ad312451b948a7413f0a142fd40d49347944f3f701464972e74606d6ea82d4d3080599a0e79a0d2d31d2819e71aab88505722bbb272ba5c3f63ee49e0aa09b1607542de20e102a0581e097cee005abfeb60948f4f67926f33cb1b157b616b1b987ee2451f5f6fc4a017166e9174deb77f2b219b7aac9cd862532eebb0e6b3c4653ffb18fa94e845fcb901000000000000000000000000000000000000000000000000000000000000000000000000000000000000000000000000000000000000000000000000000000000000000000000000000000000000000000000000000000000000000000000000000000000000000000000000000000000000000000000000000000000000000000000000000000000000000000000000000000000000000000000000000000000000000000000000000000000000000000000000000000000000000000000000000000000000000000000000000000000000000000000000000000000000000000000000000000000000000000000000000000000000000000000000000000000080018407270e0082fac58203e800a000000000000000000000000000000000000000000000000000000000000200008800000000000000000aa056e81f171bcc55a6ff8345e692c0f86e5b48e01b996cadc001622fb5e363b4218080a00000000000000000000000000000000000000000000000000000000000000000f90155f90152800a830186a09458412264c0ae89996aebb81816b21ba102bcb3888420c4d1a6b8ed7f00000000000000000000000000000000000000000000000000000000000000017fffffffffffffffffffffffffffffffffffffffffffffffffffffffffffffffff7ffffffffffffffffffffffffffffffffffffffffffffffffffffffffffffffffe7f0000000000000000000000000000000000000000000000000000000000000001427f000000000000000000000000000000000000000000000000000000000000c3507f00000000000000000000000000000000000000000000000000000000000000007fffffffffffffffffffffffffffffffffffffffffffffffffffffffffffffffff8636f2599026a00a291c51e52d5f669463b5b5a9141e52f51afb15f2d86b4b88a53f2a9230aecba079ba51da605c5cde89e03cdf016e6aa241b08f72863d444d163c918e4ac659e9c0c0",
                "blocknumber": "1"
            }
        ],
        "sealEngine": "NoProof",
        "_info": {
            "hash": "0xc77be7176ed356f3f54f07964360e0fb66196180d94dd9c6b59e95b341068eca",
            "fixture-format": "blockchain_test",
            "comment": "`execution-specs` generated test",
            "filling-transition-tool": "2.19.0",
            "description": "Test_random_statetest248.",
            "url": "https://github.com/ethereum/execution-specs/blob/tests-snobal-devnet-5@v8037.0.0/tests/ported_static/stRandom/test_random_statetest248.py#L24",
            "metadata": {
                "opcode_count": {}
            }
        }
    }
}