{
    "tests/ported_static/stStaticCall/test_static_call1024_pre_calls3.py::test_static_call1024_pre_calls3[fork_Cancun-blockchain_test_from_state_test-d0]": {
        "network": "Cancun",
        "genesisBlockHeader": {
            "parentHash": "0x0000000000000000000000000000000000000000000000000000000000000000",
            "uncleHash": "0x1dcc4de8dec75d7aab85b567b6ccd41ad312451b948a7413f0a142fd40d49347",
            "coinbase": "0x0000000000000000000000000000000000000000",
            "stateRoot": "0x490ac43d0c8e614a98b75191958aa6a686931fb665186ab22f30338c9881179e",
            "transactionsTrie": "0x56e81f171bcc55a6ff8345e692c0f86e5b48e01b996cadc001622fb5e363b421",
            "receiptTrie": "0x56e81f171bcc55a6ff8345e692c0f86e5b48e01b996cadc001622fb5e363b421",
            "bloom": "0x00000000000000000000000000000000000000000000000000000000000000000000000000000000000000000000000000000000000000000000000000000000000000000000000000000000000000000000000000000000000000000000000000000000000000000000000000000000000000000000000000000000000000000000000000000000000000000000000000000000000000000000000000000000000000000000000000000000000000000000000000000000000000000000000000000000000000000000000000000000000000000000000000000000000000000000000000000000000000000000000000000000000000000000000000000000",
            "difficulty": "0x00",
            "number": "0x00",
            "gasLimit": "0x7fffffffffffffff",
            "gasUsed": "0x00",
            "timestamp": "0x00",
            "extraData": "0x00",
            "mixHash": "0x0000000000000000000000000000000000000000000000000000000000000000",
            "nonce": "0x0000000000000000",
            "baseFeePerGas": "0x0b",
            "withdrawalsRoot": "0x56e81f171bcc55a6ff8345e692c0f86e5b48e01b996cadc001622fb5e363b421",
            "blobGasUsed": "0x00",
            "excessBlobGas": "0x00",
            "parentBeaconBlockRoot": "0x0000000000000000000000000000000000000000000000000000000000000000",
            "hash": "0x794ed9f88716b0ccc92bf39a044431df28584e7abf875651e2de93e5aacbfd90"
        },
        "pre": {
            "0x000f3df6d732807ef1319fb7b8bb8522d0beac02": {
                "nonce": "0x01",
                "balance": "0x00",
                "code": "0x3373fffffffffffffffffffffffffffffffffffffffe14604d57602036146024575f5ffd5b5f35801560495762001fff810690815414603c575f5ffd5b62001fff01545f5260205ff35b5f5ffd5b62001fff42064281555f359062001fff015500",
                "storage": {}
            },
            "0x3f13d7fc49b91cdc388f79f861c0f1a0e708dfbf": {
                "nonce": "0x00",
                "balance": "0x0fffffffffffffffffffffffffffffffff",
                "code": "0x",
                "storage": {}
            },
            "0xc0e4183389eb57f779a986d8c878f89b9401dc8e": {
                "nonce": "0x00",
                "balance": "0x00",
                "code": "0x6000600060006000346000355af1600055600160015500",
                "storage": {}
            },
            "0xd9b97c712ebce43f3c19179bbef44b550f9e8bc0": {
                "nonce": "0x00",
                "balance": "0x1b58",
                "code": "0x",
                "storage": {}
            },
            "0x2806e7553f3585d821f91d679a254abbf002f6f2": {
                "nonce": "0x00",
                "balance": "0x07e8",
                "code": "0x600060006000600073d9b97c712ebce43f3c19179bbef44b550f9e8bc061fffffa600255600060006000600073d9b97c712ebce43f3c19179bbef44b550f9e8bc061fffffa6003556001600054016000556000600060006000732806e7553f3585d821f91d679a254abbf002f6f2650ffffffffffffa60015500",
                "storage": {}
            },
            "0x7c546b69d5bda111c03c8d7b51b41a8d55b843ca": {
                "nonce": "0x00",
                "balance": "0x07e8",
                "code": "0x600060006000600073d9b97c712ebce43f3c19179bbef44b550f9e8bc061fffffa50600060006000600073d9b97c712ebce43f3c19179bbef44b550f9e8bc061fffffa506001600051016000526000600060006000737c546b69d5bda111c03c8d7b51b41a8d55b843ca650ffffffffffffa00",
                "storage": {}
            }
        },
        "postState": {
            "0x000f3df6d732807ef1319fb7b8bb8522d0beac02": {
                "nonce": "0x01",
                "balance": "0x00",
                "code": "0x3373fffffffffffffffffffffffffffffffffffffffe14604d57602036146024575f5ffd5b5f35801560495762001fff810690815414603c575f5ffd5b62001fff01545f5260205ff35b5f5ffd5b62001fff42064281555f359062001fff015500",
                "storage": {
                    "0x03e8": "0x03e8"
                }
            },
            "0x3f13d7fc49b91cdc388f79f861c0f1a0e708dfbf": {
                "nonce": "0x01",
                "balance": "0x0fffffffffffffffffffff5fffffe9ae2b",
                "code": "0x",
                "storage": {}
            },
            "0xc0e4183389eb57f779a986d8c878f89b9401dc8e": {
                "nonce": "0x00",
                "balance": "0x00",
                "code": "0x6000600060006000346000355af1600055600160015500",
                "storage": {
                    "0x00": "0x01",
                    "0x01": "0x01"
                }
            },
            "0xd9b97c712ebce43f3c19179bbef44b550f9e8bc0": {
                "nonce": "0x00",
                "balance": "0x1b58",
                "code": "0x",
                "storage": {}
            },
            "0x2806e7553f3585d821f91d679a254abbf002f6f2": {
                "nonce": "0x00",
                "balance": "0x07f2",
                "code": "0x600060006000600073d9b97c712ebce43f3c19179bbef44b550f9e8bc061fffffa600255600060006000600073d9b97c712ebce43f3c19179bbef44b550f9e8bc061fffffa6003556001600054016000556000600060006000732806e7553f3585d821f91d679a254abbf002f6f2650ffffffffffffa60015500",
                "storage": {
                    "0x02": "0x01",
                    "0x03": "0x01",
                    "0x00": "0x01"
                }
            },
            "0x7c546b69d5bda111c03c8d7b51b41a8d55b843ca": {
                "nonce": "0x00",
                "balance": "0x07e8",
                "code": "0x600060006000600073d9b97c712ebce43f3c19179bbef44b550f9e8bc061fffffa50600060006000600073d9b97c712ebce43f3c19179bbef44b550f9e8bc061fffffa506001600051016000526000600060006000737c546b69d5bda111c03c8d7b51b41a8d55b843ca650ffffffffffffa00",
                "storage": {}
            }
        },
        "lastblockhash": "0xa444e7a88b890dbbc3e4563782fc41ac836dee29bf28d54c2e517eb37a9aad01",
        "config": {
            "network": "Cancun",
            "chainid": "0x01",
            "blobSchedule": {
                "Cancun": {
                    "target": "0x03",
                    "max": "0x06",
                    "baseFeeUpdateFraction": "0x32f0ed"
                }
            }
        },
        "genesisRLP": "0xf90240f9023aa00000000000000000000000000000000000000000000000000000000000000000a01dcc4de8dec75d7aab85b567b6ccd41ad312451b948a7413f0a142fd40d49347940000000000000000000000000000000000000000a0490ac43d0c8e614a98b75191958aa6a686931fb665186ab22f30338c9881179ea056e81f171bcc55a6ff8345e692c0f86e5b48e01b996cadc001622fb5e363b421a056e81f171bcc55a6ff8345e692c0f86e5b48e01b996cadc001622fb5e363b421b90100000000000000000000000000000000000000000000000000000000000000000000000000000000000000000000000000000000000000000000000000000000000000000000000000000000000000000000000000000000000000000000000000000000000000000000000000000000000000000000000000000000000000000000000000000000000000000000000000000000000000000000000000000000000000000000000000000000000000000000000000000000000000000000000000000000000000000000000000000000000000000000000000000000000000000000000000000000000000000000000000000000000000000000000000000000008080887fffffffffffffff808000a000000000000000000000000000000000000000000000000000000000000000008800000000000000000ba056e81f171bcc55a6ff8345e692c0f86e5b48e01b996cadc001622fb5e363b4218080a00000000000000000000000000000000000000000000000000000000000000000c0c0c0",
        "blocks": [
            {
                "blockHeader": {
                    "parentHash": "0x794ed9f88716b0ccc92bf39a044431df28584e7abf875651e2de93e5aacbfd90",
                    "uncleHash": "0x1dcc4de8dec75d7aab85b567b6ccd41ad312451b948a7413f0a142fd40d49347",
                    "coinbase": "0xb94f5374fce5edbc8e2a8697c15331677e6ebf0b",
                    "stateRoot": "0x3165ec6741154f0a8362005007001ec3a9ac1a61f3761b6b99852e10e3dbcd5f",
                    "transactionsTrie": "0x8a04109d0a137c589b1075ab3695fdc019e3e48ee231536dc83468c3b2265e95",
                    "receiptTrie": "0x34aa778d31e4b29e4ad0e5ae5b1674216b629274e3e02d39c3633c7d05c5caf6",
                    "bloom": "0x00000000000000000000000000000000000000000000000000000000000000000000000000000000000000000000000000000000000000000000000000000000000000000000000000000000000000000000000000000000000000000000000000000000000000000000000000000000000000000000000000000000000000000000000000000000000000000000000000000000000000000000000000000000000000000000000000000000000000000000000000000000000000000000000000000000000000000000000000000000000000000000000000000000000000000000000000000000000000000000000000000000000000000000000000000000",
                    "difficulty": "0x00",
                    "number": "0x01",
                    "gasLimit": "0x7fffffffffffffff",
                    "gasUsed": "0x100000023b61",
                    "timestamp": "0x03e8",
                    "extraData": "0x00",
                    "mixHash": "0x0000000000000000000000000000000000000000000000000000000000020000",
                    "nonce": "0x0000000000000000",
                    "baseFeePerGas": "0x0a",
                    "withdrawalsRoot": "0x56e81f171bcc55a6ff8345e692c0f86e5b48e01b996cadc001622fb5e363b421",
                    "blobGasUsed": "0x00",
                    "excessBlobGas": "0x00",
                    "parentBeaconBlockRoot": "0x0000000000000000000000000000000000000000000000000000000000000000",
                    "hash": "0xa444e7a88b890dbbc3e4563782fc41ac836dee29bf28d54c2e517eb37a9aad01"
                },
                "transactions": [
                    {
                        "type": "0x00",
                        "chainId": "0x01",
                        "nonce": "0x00",
                        "gasPrice": "0x0a",
                        "gasLimit": "0x7fe0000000000001",
                        "to": "0xc0e4183389eb57f779a986d8c878f89b9401dc8e",
                        "value": "0x0a",
                        "data": "0x0000000000000000000000002806e7553f3585d821f91d679a254abbf002f6f2",
                        "v": "0x25",
                        "r": "0x6465aad6b19ae0212e66e6e61e3bdd85c88f07c56eccdc1bd60d9b8b14d040f3",
                        "s": "0x614419125ac2b8eaea2569c17601c1af62d5c76819bd5485b95d0f8d946657c7",
                        "sender": "0x3f13d7fc49b91cdc388f79f861c0f1a0e708dfbf"
                    }
                ],
                "uncleHeaders": [],
                "withdrawals": [],
                "receipts": [
                    {
                        "transactionHash": "0x75f41f988a7e9decc34ae757d959e205f8d93419fb2ddf3bd0fd24a6a47df4bc",
                        "type": "0x00",
                        "cumulativeGasUsed": "0x100000023b61",
                        "bloom": "0x00000000000000000000000000000000000000000000000000000000000000000000000000000000000000000000000000000000000000000000000000000000000000000000000000000000000000000000000000000000000000000000000000000000000000000000000000000000000000000000000000000000000000000000000000000000000000000000000000000000000000000000000000000000000000000000000000000000000000000000000000000000000000000000000000000000000000000000000000000000000000000000000000000000000000000000000000000000000000000000000000000000000000000000000000000000",
                        "logs": [],
                        "status": true,
                        "rlp": "0xf9010c0186100000023b61b9010000000000000000000000000000000000000000000000000000000000000000000000000000000000000000000000000000000000000000000000000000000000000000000000000000000000000000000000000000000000000000000000000000000000000000000000000000000000000000000000000000000000000000000000000000000000000000000000000000000000000000000000000000000000000000000000000000000000000000000000000000000000000000000000000000000000000000000000000000000000000000000000000000000000000000000000000000000000000000000000000000000000000000000000000000000000c0"
                    }
                ],
                "rlp": "0xf902d0f90242a0794ed9f88716b0ccc92bf39a044431df28584e7abf875651e2de93e5aacbfd90a01dcc4de8dec75d7aab85b567b6ccd41ad312451b948a7413f0a142fd40d4934794b94f5374fce5edbc8e2a8697c15331677e6ebf0ba03165ec6741154f0a8362005007001ec3a9ac1a61f3761b6b99852e10e3dbcd5fa08a04109d0a137c589b1075ab3695fdc019e3e48ee231536dc83468c3b2265e95a034aa778d31e4b29e4ad0e5ae5b1674216b629274e3e02d39c3633c7d05c5caf6b90100000000000000000000000000000000000000000000000000000000000000000000000000000000000000000000000000000000000000000000000000000000000000000000000000000000000000000000000000000000000000000000000000000000000000000000000000000000000000000000000000000000000000000000000000000000000000000000000000000000000000000000000000000000000000000000000000000000000000000000000000000000000000000000000000000000000000000000000000000000000000000000000000000000000000000000000000000000000000000000000000000000000000000000000000000000008001887fffffffffffffff86100000023b618203e800a000000000000000000000000000000000000000000000000000000000000200008800000000000000000aa056e81f171bcc55a6ff8345e692c0f86e5b48e01b996cadc001622fb5e363b4218080a00000000000000000000000000000000000000000000000000000000000000000f887f885800a887fe000000000000194c0e4183389eb57f779a986d8c878f89b9401dc8e0aa00000000000000000000000002806e7553f3585d821f91d679a254abbf002f6f225a06465aad6b19ae0212e66e6e61e3bdd85c88f07c56eccdc1bd60d9b8b14d040f3a0614419125ac2b8eaea2569c17601c1af62d5c76819bd5485b95d0f8d946657c7c0c0",
                "blocknumber": "1"
            }
        ],
        "sealEngine": "NoProof",
        "_info": {
            "hash": "0xfd7ec62b8a7b4ef2b63eeeb694e7c0ad57b7042b9d6a09f1f15d10625e2a2a01",
            "fixture-format": "blockchain_test",
            "comment": "`execution-specs` generated test",
            "filling-transition-tool": "2.19.0",
            "description": "Test_static_call1024_pre_calls3.",
            "url": "https://github.com/ethereum/execution-specs/blob/tests-sn\u00f8bal-devnet-4@v1.0.0/tests/ported_static/stStaticCall/test_static_call1024_pre_calls3.py#L29",
            "metadata": {
                "opcode_count": {}
            }
        }
    },
    "tests/ported_static/stStaticCall/test_static_call1024_pre_calls3.py::test_static_call1024_pre_calls3[fork_Cancun-blockchain_test_from_state_test-d1]": {
        "network": "Cancun",
        "genesisBlockHeader": {
            "parentHash": "0x0000000000000000000000000000000000000000000000000000000000000000",
            "uncleHash": "0x1dcc4de8dec75d7aab85b567b6ccd41ad312451b948a7413f0a142fd40d49347",
            "coinbase": "0x0000000000000000000000000000000000000000",
            "stateRoot": "0x490ac43d0c8e614a98b75191958aa6a686931fb665186ab22f30338c9881179e",
            "transactionsTrie": "0x56e81f171bcc55a6ff8345e692c0f86e5b48e01b996cadc001622fb5e363b421",
            "receiptTrie": "0x56e81f171bcc55a6ff8345e692c0f86e5b48e01b996cadc001622fb5e363b421",
            "bloom": "0x00000000000000000000000000000000000000000000000000000000000000000000000000000000000000000000000000000000000000000000000000000000000000000000000000000000000000000000000000000000000000000000000000000000000000000000000000000000000000000000000000000000000000000000000000000000000000000000000000000000000000000000000000000000000000000000000000000000000000000000000000000000000000000000000000000000000000000000000000000000000000000000000000000000000000000000000000000000000000000000000000000000000000000000000000000000",
            "difficulty": "0x00",
            "number": "0x00",
            "gasLimit": "0x7fffffffffffffff",
            "gasUsed": "0x00",
            "timestamp": "0x00",
            "extraData": "0x00",
            "mixHash": "0x0000000000000000000000000000000000000000000000000000000000000000",
            "nonce": "0x0000000000000000",
            "baseFeePerGas": "0x0b",
            "withdrawalsRoot": "0x56e81f171bcc55a6ff8345e692c0f86e5b48e01b996cadc001622fb5e363b421",
            "blobGasUsed": "0x00",
            "excessBlobGas": "0x00",
            "parentBeaconBlockRoot": "0x0000000000000000000000000000000000000000000000000000000000000000",
            "hash": "0x794ed9f88716b0ccc92bf39a044431df28584e7abf875651e2de93e5aacbfd90"
        },
        "pre": {
            "0x000f3df6d732807ef1319fb7b8bb8522d0beac02": {
                "nonce": "0x01",
                "balance": "0x00",
                "code": "0x3373fffffffffffffffffffffffffffffffffffffffe14604d57602036146024575f5ffd5b5f35801560495762001fff810690815414603c575f5ffd5b62001fff01545f5260205ff35b5f5ffd5b62001fff42064281555f359062001fff015500",
                "storage": {}
            },
            "0x3f13d7fc49b91cdc388f79f861c0f1a0e708dfbf": {
                "nonce": "0x00",
                "balance": "0x0fffffffffffffffffffffffffffffffff",
                "code": "0x",
                "storage": {}
            },
            "0xc0e4183389eb57f779a986d8c878f89b9401dc8e": {
                "nonce": "0x00",
                "balance": "0x00",
                "code": "0x6000600060006000346000355af1600055600160015500",
                "storage": {}
            },
            "0xd9b97c712ebce43f3c19179bbef44b550f9e8bc0": {
                "nonce": "0x00",
                "balance": "0x1b58",
                "code": "0x",
                "storage": {}
            },
            "0x2806e7553f3585d821f91d679a254abbf002f6f2": {
                "nonce": "0x00",
                "balance": "0x07e8",
                "code": "0x600060006000600073d9b97c712ebce43f3c19179bbef44b550f9e8bc061fffffa600255600060006000600073d9b97c712ebce43f3c19179bbef44b550f9e8bc061fffffa6003556001600054016000556000600060006000732806e7553f3585d821f91d679a254abbf002f6f2650ffffffffffffa60015500",
                "storage": {}
            },
            "0x7c546b69d5bda111c03c8d7b51b41a8d55b843ca": {
                "nonce": "0x00",
                "balance": "0x07e8",
                "code": "0x600060006000600073d9b97c712ebce43f3c19179bbef44b550f9e8bc061fffffa50600060006000600073d9b97c712ebce43f3c19179bbef44b550f9e8bc061fffffa506001600051016000526000600060006000737c546b69d5bda111c03c8d7b51b41a8d55b843ca650ffffffffffffa00",
                "storage": {}
            }
        },
        "postState": {
            "0x000f3df6d732807ef1319fb7b8bb8522d0beac02": {
                "nonce": "0x01",
                "balance": "0x00",
                "code": "0x3373fffffffffffffffffffffffffffffffffffffffe14604d57602036146024575f5ffd5b5f35801560495762001fff810690815414603c575f5ffd5b62001fff01545f5260205ff35b5f5ffd5b62001fff42064281555f359062001fff015500",
                "storage": {
                    "0x03e8": "0x03e8"
                }
            },
            "0x3f13d7fc49b91cdc388f79f861c0f1a0e708dfbf": {
                "nonce": "0x01",
                "balance": "0x0fffffffffffffffffffffffffffb8f88f",
                "code": "0x",
                "storage": {}
            },
            "0xc0e4183389eb57f779a986d8c878f89b9401dc8e": {
                "nonce": "0x00",
                "balance": "0x00",
                "code": "0x6000600060006000346000355af1600055600160015500",
                "storage": {
                    "0x00": "0x01",
                    "0x01": "0x01"
                }
            },
            "0xd9b97c712ebce43f3c19179bbef44b550f9e8bc0": {
                "nonce": "0x00",
                "balance": "0x1b58",
                "code": "0x",
                "storage": {}
            },
            "0x2806e7553f3585d821f91d679a254abbf002f6f2": {
                "nonce": "0x00",
                "balance": "0x07e8",
                "code": "0x600060006000600073d9b97c712ebce43f3c19179bbef44b550f9e8bc061fffffa600255600060006000600073d9b97c712ebce43f3c19179bbef44b550f9e8bc061fffffa6003556001600054016000556000600060006000732806e7553f3585d821f91d679a254abbf002f6f2650ffffffffffffa60015500",
                "storage": {}
            },
            "0x7c546b69d5bda111c03c8d7b51b41a8d55b843ca": {
                "nonce": "0x00",
                "balance": "0x07f2",
                "code": "0x600060006000600073d9b97c712ebce43f3c19179bbef44b550f9e8bc061fffffa50600060006000600073d9b97c712ebce43f3c19179bbef44b550f9e8bc061fffffa506001600051016000526000600060006000737c546b69d5bda111c03c8d7b51b41a8d55b843ca650ffffffffffffa00",
                "storage": {}
            }
        },
        "lastblockhash": "0x3a0bb603caa86d565c0c4a2dd84b0f0d5baf7a5da8c4c51f901bec7da6cb1917",
        "config": {
            "network": "Cancun",
            "chainid": "0x01",
            "blobSchedule": {
                "Cancun": {
                    "target": "0x03",
                    "max": "0x06",
                    "baseFeeUpdateFraction": "0x32f0ed"
                }
            }
        },
        "genesisRLP": "0xf90240f9023aa00000000000000000000000000000000000000000000000000000000000000000a01dcc4de8dec75d7aab85b567b6ccd41ad312451b948a7413f0a142fd40d49347940000000000000000000000000000000000000000a0490ac43d0c8e614a98b75191958aa6a686931fb665186ab22f30338c9881179ea056e81f171bcc55a6ff8345e692c0f86e5b48e01b996cadc001622fb5e363b421a056e81f171bcc55a6ff8345e692c0f86e5b48e01b996cadc001622fb5e363b421b90100000000000000000000000000000000000000000000000000000000000000000000000000000000000000000000000000000000000000000000000000000000000000000000000000000000000000000000000000000000000000000000000000000000000000000000000000000000000000000000000000000000000000000000000000000000000000000000000000000000000000000000000000000000000000000000000000000000000000000000000000000000000000000000000000000000000000000000000000000000000000000000000000000000000000000000000000000000000000000000000000000000000000000000000000000000008080887fffffffffffffff808000a000000000000000000000000000000000000000000000000000000000000000008800000000000000000ba056e81f171bcc55a6ff8345e692c0f86e5b48e01b996cadc001622fb5e363b4218080a00000000000000000000000000000000000000000000000000000000000000000c0c0c0",
        "blocks": [
            {
                "blockHeader": {
                    "parentHash": "0x794ed9f88716b0ccc92bf39a044431df28584e7abf875651e2de93e5aacbfd90",
                    "uncleHash": "0x1dcc4de8dec75d7aab85b567b6ccd41ad312451b948a7413f0a142fd40d49347",
                    "coinbase": "0xb94f5374fce5edbc8e2a8697c15331677e6ebf0b",
                    "stateRoot": "0xfcc4b7d9800218bbf4fb765c8923a4ade878b7e8dba904b1284920e085c0172b",
                    "transactionsTrie": "0xaf8ca587c6e4cc86f45ad24f2bb6fd3066e1ead7f62c7d300177b5d913853c6b",
                    "receiptTrie": "0x0332bf82090526630ddb325ef29a46fda55a3a043df9ec681dbaf8754f87dd88",
                    "bloom": "0x00000000000000000000000000000000000000000000000000000000000000000000000000000000000000000000000000000000000000000000000000000000000000000000000000000000000000000000000000000000000000000000000000000000000000000000000000000000000000000000000000000000000000000000000000000000000000000000000000000000000000000000000000000000000000000000000000000000000000000000000000000000000000000000000000000000000000000000000000000000000000000000000000000000000000000000000000000000000000000000000000000000000000000000000000000000",
                    "difficulty": "0x00",
                    "number": "0x01",
                    "gasLimit": "0x7fffffffffffffff",
                    "gasUsed": "0x071a57",
                    "timestamp": "0x03e8",
                    "extraData": "0x00",
                    "mixHash": "0x0000000000000000000000000000000000000000000000000000000000020000",
                    "nonce": "0x0000000000000000",
                    "baseFeePerGas": "0x0a",
                    "withdrawalsRoot": "0x56e81f171bcc55a6ff8345e692c0f86e5b48e01b996cadc001622fb5e363b421",
                    "blobGasUsed": "0x00",
                    "excessBlobGas": "0x00",
                    "parentBeaconBlockRoot": "0x0000000000000000000000000000000000000000000000000000000000000000",
                    "hash": "0x3a0bb603caa86d565c0c4a2dd84b0f0d5baf7a5da8c4c51f901bec7da6cb1917"
                },
                "transactions": [
                    {
                        "type": "0x00",
                        "chainId": "0x01",
                        "nonce": "0x00",
                        "gasPrice": "0x0a",
                        "gasLimit": "0x7fe0000000000001",
                        "to": "0xc0e4183389eb57f779a986d8c878f89b9401dc8e",
                        "value": "0x0a",
                        "data": "0x0000000000000000000000007c546b69d5bda111c03c8d7b51b41a8d55b843ca",
                        "v": "0x25",
                        "r": "0xd68ba595c890503eb0283504d0849f6aac7cbcc9eb8dc0b1ea7d79ef411b0e1a",
                        "s": "0x6489734f3dbd966490f4f5fa478fa651d19f6a1211709e1431e01649b331e420",
                        "sender": "0x3f13d7fc49b91cdc388f79f861c0f1a0e708dfbf"
                    }
                ],
                "uncleHeaders": [],
                "withdrawals": [],
                "receipts": [
                    {
                        "transactionHash": "0xc865fdb120361bf549035543be22cf9ec62786eda97ba2931833dcb37ce81347",
                        "type": "0x00",
                        "cumulativeGasUsed": "0x071a57",
                        "bloom": "0x00000000000000000000000000000000000000000000000000000000000000000000000000000000000000000000000000000000000000000000000000000000000000000000000000000000000000000000000000000000000000000000000000000000000000000000000000000000000000000000000000000000000000000000000000000000000000000000000000000000000000000000000000000000000000000000000000000000000000000000000000000000000000000000000000000000000000000000000000000000000000000000000000000000000000000000000000000000000000000000000000000000000000000000000000000000",
                        "logs": [],
                        "status": true,
                        "rlp": "0xf901090183071a57b9010000000000000000000000000000000000000000000000000000000000000000000000000000000000000000000000000000000000000000000000000000000000000000000000000000000000000000000000000000000000000000000000000000000000000000000000000000000000000000000000000000000000000000000000000000000000000000000000000000000000000000000000000000000000000000000000000000000000000000000000000000000000000000000000000000000000000000000000000000000000000000000000000000000000000000000000000000000000000000000000000000000000000000000000000000000000c0"
                    }
                ],
                "rlp": "0xf902cdf9023fa0794ed9f88716b0ccc92bf39a044431df28584e7abf875651e2de93e5aacbfd90a01dcc4de8dec75d7aab85b567b6ccd41ad312451b948a7413f0a142fd40d4934794b94f5374fce5edbc8e2a8697c15331677e6ebf0ba0fcc4b7d9800218bbf4fb765c8923a4ade878b7e8dba904b1284920e085c0172ba0af8ca587c6e4cc86f45ad24f2bb6fd3066e1ead7f62c7d300177b5d913853c6ba00332bf82090526630ddb325ef29a46fda55a3a043df9ec681dbaf8754f87dd88b90100000000000000000000000000000000000000000000000000000000000000000000000000000000000000000000000000000000000000000000000000000000000000000000000000000000000000000000000000000000000000000000000000000000000000000000000000000000000000000000000000000000000000000000000000000000000000000000000000000000000000000000000000000000000000000000000000000000000000000000000000000000000000000000000000000000000000000000000000000000000000000000000000000000000000000000000000000000000000000000000000000000000000000000000000000000008001887fffffffffffffff83071a578203e800a000000000000000000000000000000000000000000000000000000000000200008800000000000000000aa056e81f171bcc55a6ff8345e692c0f86e5b48e01b996cadc001622fb5e363b4218080a00000000000000000000000000000000000000000000000000000000000000000f887f885800a887fe000000000000194c0e4183389eb57f779a986d8c878f89b9401dc8e0aa00000000000000000000000007c546b69d5bda111c03c8d7b51b41a8d55b843ca25a0d68ba595c890503eb0283504d0849f6aac7cbcc9eb8dc0b1ea7d79ef411b0e1aa06489734f3dbd966490f4f5fa478fa651d19f6a1211709e1431e01649b331e420c0c0",
                "blocknumber": "1"
            }
        ],
        "sealEngine": "NoProof",
        "_info": {
            "hash": "0x50d045ff4af348d00a75696b3cd56a568eb4f18338e82458ee745b6e2000aede",
            "fixture-format": "blockchain_test",
            "comment": "`execution-specs` generated test",
            "filling-transition-tool": "2.19.0",
            "description": "Test_static_call1024_pre_calls3.",
            "url": "https://github.com/ethereum/execution-specs/blob/tests-sn\u00f8bal-devnet-4@v1.0.0/tests/ported_static/stStaticCall/test_static_call1024_pre_calls3.py#L29",
            "metadata": {
                "opcode_count": {}
            }
        }
    }
}