{
    "tests/ported_static/vmIOandFlowOperations/test_pop.py::test_pop[fork_Cancun-blockchain_test_from_state_test-pop1]": {
        "network": "Cancun",
        "genesisBlockHeader": {
            "parentHash": "0x0000000000000000000000000000000000000000000000000000000000000000",
            "uncleHash": "0x1dcc4de8dec75d7aab85b567b6ccd41ad312451b948a7413f0a142fd40d49347",
            "coinbase": "0x0000000000000000000000000000000000000000",
            "stateRoot": "0x09977b15a776268fa73dc0e5389be82c09806904ed4f432f34e6e122879841cd",
            "transactionsTrie": "0x56e81f171bcc55a6ff8345e692c0f86e5b48e01b996cadc001622fb5e363b421",
            "receiptTrie": "0x56e81f171bcc55a6ff8345e692c0f86e5b48e01b996cadc001622fb5e363b421",
            "bloom": "0x00000000000000000000000000000000000000000000000000000000000000000000000000000000000000000000000000000000000000000000000000000000000000000000000000000000000000000000000000000000000000000000000000000000000000000000000000000000000000000000000000000000000000000000000000000000000000000000000000000000000000000000000000000000000000000000000000000000000000000000000000000000000000000000000000000000000000000000000000000000000000000000000000000000000000000000000000000000000000000000000000000000000000000000000000000000",
            "difficulty": "0x00",
            "number": "0x00",
            "gasLimit": "0x05f5e100",
            "gasUsed": "0x00",
            "timestamp": "0x00",
            "extraData": "0x00",
            "mixHash": "0x0000000000000000000000000000000000000000000000000000000000000000",
            "nonce": "0x0000000000000000",
            "baseFeePerGas": "0x0b",
            "withdrawalsRoot": "0x56e81f171bcc55a6ff8345e692c0f86e5b48e01b996cadc001622fb5e363b421",
            "blobGasUsed": "0x00",
            "excessBlobGas": "0x00",
            "parentBeaconBlockRoot": "0x0000000000000000000000000000000000000000000000000000000000000000",
            "hash": "0x4f089a88152ef2a92b802bc1d4856b4979c12983b8507061320cfa7e1fbc1554"
        },
        "pre": {
            "0x000f3df6d732807ef1319fb7b8bb8522d0beac02": {
                "nonce": "0x01",
                "balance": "0x00",
                "code": "0x3373fffffffffffffffffffffffffffffffffffffffe14604d57602036146024575f5ffd5b5f35801560495762001fff810690815414603c575f5ffd5b62001fff01545f5260205ff35b5f5ffd5b62001fff42064281555f359062001fff015500",
                "storage": {}
            },
            "0x0000000000000000000000000000000000001000": {
                "nonce": "0x00",
                "balance": "0x0ba1a9ce0ba1a9ce",
                "code": "0x6002600360045055",
                "storage": {}
            },
            "0x0000000000000000000000000000000000001001": {
                "nonce": "0x00",
                "balance": "0x0ba1a9ce0ba1a9ce",
                "code": "0x5060026003600455",
                "storage": {}
            },
            "0xcccccccccccccccccccccccccccccccccccccccc": {
                "nonce": "0x00",
                "balance": "0x0ba1a9ce0ba1a9ce",
                "code": "0x6000600060006000600435611000015af400",
                "storage": {}
            },
            "0xa94f5374fce5edbc8e2a8697c15331677e6ebf0b": {
                "nonce": "0x00",
                "balance": "0x100000000000",
                "code": "0x",
                "storage": {}
            }
        },
        "postState": {
            "0x000f3df6d732807ef1319fb7b8bb8522d0beac02": {
                "nonce": "0x01",
                "balance": "0x00",
                "code": "0x3373fffffffffffffffffffffffffffffffffffffffe14604d57602036146024575f5ffd5b5f35801560495762001fff810690815414603c575f5ffd5b62001fff01545f5260205ff35b5f5ffd5b62001fff42064281555f359062001fff015500",
                "storage": {
                    "0x03e8": "0x03e8"
                }
            },
            "0x0000000000000000000000000000000000001000": {
                "nonce": "0x00",
                "balance": "0x0ba1a9ce0ba1a9ce",
                "code": "0x6002600360045055",
                "storage": {}
            },
            "0x0000000000000000000000000000000000001001": {
                "nonce": "0x00",
                "balance": "0x0ba1a9ce0ba1a9ce",
                "code": "0x5060026003600455",
                "storage": {}
            },
            "0xcccccccccccccccccccccccccccccccccccccccc": {
                "nonce": "0x00",
                "balance": "0x0ba1a9ce0ba1a9cf",
                "code": "0x6000600060006000600435611000015af400",
                "storage": {
                    "0x03": "0x02"
                }
            },
            "0xa94f5374fce5edbc8e2a8697c15331677e6ebf0b": {
                "nonce": "0x01",
                "balance": "0x0ffffff8fde5",
                "code": "0x",
                "storage": {}
            }
        },
        "lastblockhash": "0x9a457c49c82994499c5616b885ebe9962ebefd663092610c3344c926f2b04e6c",
        "config": {
            "network": "Cancun",
            "chainid": "0x01",
            "blobSchedule": {
                "Cancun": {
                    "target": "0x03",
                    "max": "0x06",
                    "baseFeeUpdateFraction": "0x32f0ed"
                }
            }
        },
        "genesisRLP": "0xf9023cf90236a00000000000000000000000000000000000000000000000000000000000000000a01dcc4de8dec75d7aab85b567b6ccd41ad312451b948a7413f0a142fd40d49347940000000000000000000000000000000000000000a009977b15a776268fa73dc0e5389be82c09806904ed4f432f34e6e122879841cda056e81f171bcc55a6ff8345e692c0f86e5b48e01b996cadc001622fb5e363b421a056e81f171bcc55a6ff8345e692c0f86e5b48e01b996cadc001622fb5e363b421b901000000000000000000000000000000000000000000000000000000000000000000000000000000000000000000000000000000000000000000000000000000000000000000000000000000000000000000000000000000000000000000000000000000000000000000000000000000000000000000000000000000000000000000000000000000000000000000000000000000000000000000000000000000000000000000000000000000000000000000000000000000000000000000000000000000000000000000000000000000000000000000000000000000000000000000000000000000000000000000000000000000000000000000000000000000000080808405f5e100808000a000000000000000000000000000000000000000000000000000000000000000008800000000000000000ba056e81f171bcc55a6ff8345e692c0f86e5b48e01b996cadc001622fb5e363b4218080a00000000000000000000000000000000000000000000000000000000000000000c0c0c0",
        "blocks": [
            {
                "blockHeader": {
                    "parentHash": "0x4f089a88152ef2a92b802bc1d4856b4979c12983b8507061320cfa7e1fbc1554",
                    "uncleHash": "0x1dcc4de8dec75d7aab85b567b6ccd41ad312451b948a7413f0a142fd40d49347",
                    "coinbase": "0x2adc25665018aa1fe0e6bc666dac8fc2697ff9ba",
                    "stateRoot": "0x8e341f43c58bf4648dc4b47d5271d86e32910f98f1930f42db17a8d469965e8f",
                    "transactionsTrie": "0x41343460bd366a58dfedd1bfe283b043c85d581fe9a9139cfa06f7c29ff74cde",
                    "receiptTrie": "0xaf4b625a881061d4084af5ef6e2bc22153bd0eefaac51e66099e201b7452aa42",
                    "bloom": "0x00000000000000000000000000000000000000000000000000000000000000000000000000000000000000000000000000000000000000000000000000000000000000000000000000000000000000000000000000000000000000000000000000000000000000000000000000000000000000000000000000000000000000000000000000000000000000000000000000000000000000000000000000000000000000000000000000000000000000000000000000000000000000000000000000000000000000000000000000000000000000000000000000000000000000000000000000000000000000000000000000000000000000000000000000000000",
                    "difficulty": "0x00",
                    "number": "0x01",
                    "gasLimit": "0x05f5e100",
                    "gasUsed": "0xb369",
                    "timestamp": "0x03e8",
                    "extraData": "0x00",
                    "mixHash": "0x0000000000000000000000000000000000000000000000000000000000020000",
                    "nonce": "0x0000000000000000",
                    "baseFeePerGas": "0x0a",
                    "withdrawalsRoot": "0x56e81f171bcc55a6ff8345e692c0f86e5b48e01b996cadc001622fb5e363b421",
                    "blobGasUsed": "0x00",
                    "excessBlobGas": "0x00",
                    "parentBeaconBlockRoot": "0x0000000000000000000000000000000000000000000000000000000000000000",
                    "hash": "0x9a457c49c82994499c5616b885ebe9962ebefd663092610c3344c926f2b04e6c"
                },
                "transactions": [
                    {
                        "type": "0x00",
                        "chainId": "0x01",
                        "nonce": "0x00",
                        "gasPrice": "0x0a",
                        "gasLimit": "0x01000000",
                        "to": "0xcccccccccccccccccccccccccccccccccccccccc",
                        "value": "0x01",
                        "data": "0x693c61390000000000000000000000000000000000000000000000000000000000000000",
                        "v": "0x25",
                        "r": "0x2d818af6f2e5097c408511e8222fc5bc937ba1845a96089d6f4abc18c2808daa",
                        "s": "0x5d0cd912bcbe07026df7c05dfbb7373e8d742b24c09b7a1bdf067c388f68d190",
                        "sender": "0xa94f5374fce5edbc8e2a8697c15331677e6ebf0b"
                    }
                ],
                "uncleHeaders": [],
                "withdrawals": [],
                "receipts": [
                    {
                        "transactionHash": "0x6c2aff035c5f0a3c6a73284514e4d0a1ac88844e43ad20cc8ff487a7319ec171",
                        "type": "0x00",
                        "cumulativeGasUsed": "0xb369",
                        "bloom": "0x00000000000000000000000000000000000000000000000000000000000000000000000000000000000000000000000000000000000000000000000000000000000000000000000000000000000000000000000000000000000000000000000000000000000000000000000000000000000000000000000000000000000000000000000000000000000000000000000000000000000000000000000000000000000000000000000000000000000000000000000000000000000000000000000000000000000000000000000000000000000000000000000000000000000000000000000000000000000000000000000000000000000000000000000000000000",
                        "logs": [],
                        "status": true,
                        "rlp": "0xf901080182b369b9010000000000000000000000000000000000000000000000000000000000000000000000000000000000000000000000000000000000000000000000000000000000000000000000000000000000000000000000000000000000000000000000000000000000000000000000000000000000000000000000000000000000000000000000000000000000000000000000000000000000000000000000000000000000000000000000000000000000000000000000000000000000000000000000000000000000000000000000000000000000000000000000000000000000000000000000000000000000000000000000000000000000000000000000000000000000c0"
                    }
                ],
                "rlp": "0xf902c8f9023aa04f089a88152ef2a92b802bc1d4856b4979c12983b8507061320cfa7e1fbc1554a01dcc4de8dec75d7aab85b567b6ccd41ad312451b948a7413f0a142fd40d49347942adc25665018aa1fe0e6bc666dac8fc2697ff9baa08e341f43c58bf4648dc4b47d5271d86e32910f98f1930f42db17a8d469965e8fa041343460bd366a58dfedd1bfe283b043c85d581fe9a9139cfa06f7c29ff74cdea0af4b625a881061d4084af5ef6e2bc22153bd0eefaac51e66099e201b7452aa42b901000000000000000000000000000000000000000000000000000000000000000000000000000000000000000000000000000000000000000000000000000000000000000000000000000000000000000000000000000000000000000000000000000000000000000000000000000000000000000000000000000000000000000000000000000000000000000000000000000000000000000000000000000000000000000000000000000000000000000000000000000000000000000000000000000000000000000000000000000000000000000000000000000000000000000000000000000000000000000000000000000000000000000000000000000000000080018405f5e10082b3698203e800a000000000000000000000000000000000000000000000000000000000000200008800000000000000000aa056e81f171bcc55a6ff8345e692c0f86e5b48e01b996cadc001622fb5e363b4218080a00000000000000000000000000000000000000000000000000000000000000000f887f885800a840100000094cccccccccccccccccccccccccccccccccccccccc01a4693c6139000000000000000000000000000000000000000000000000000000000000000025a02d818af6f2e5097c408511e8222fc5bc937ba1845a96089d6f4abc18c2808daaa05d0cd912bcbe07026df7c05dfbb7373e8d742b24c09b7a1bdf067c388f68d190c0c0",
                "blocknumber": "1"
            }
        ],
        "sealEngine": "NoProof",
        "_info": {
            "hash": "0xbc68ff542d0856e36f17060092105f6a771f134511b0dd50943583fd0b2b2b6d",
            "fixture-format": "blockchain_test",
            "comment": "`execution-specs` generated test",
            "filling-transition-tool": "2.19.0",
            "description": "Ori Pomerantz qbzzt1@gmail.",
            "url": "https://github.com/ethereum/execution-specs/blob/tests-bal@v5.6.1/tests/ported_static/vmIOandFlowOperations/test_pop.py#L30",
            "metadata": {
                "opcode_count": {}
            }
        }
    },
    "tests/ported_static/vmIOandFlowOperations/test_pop.py::test_pop[fork_Cancun-blockchain_test_from_state_test-pop2]": {
        "network": "Cancun",
        "genesisBlockHeader": {
            "parentHash": "0x0000000000000000000000000000000000000000000000000000000000000000",
            "uncleHash": "0x1dcc4de8dec75d7aab85b567b6ccd41ad312451b948a7413f0a142fd40d49347",
            "coinbase": "0x0000000000000000000000000000000000000000",
            "stateRoot": "0x09977b15a776268fa73dc0e5389be82c09806904ed4f432f34e6e122879841cd",
            "transactionsTrie": "0x56e81f171bcc55a6ff8345e692c0f86e5b48e01b996cadc001622fb5e363b421",
            "receiptTrie": "0x56e81f171bcc55a6ff8345e692c0f86e5b48e01b996cadc001622fb5e363b421",
            "bloom": "0x00000000000000000000000000000000000000000000000000000000000000000000000000000000000000000000000000000000000000000000000000000000000000000000000000000000000000000000000000000000000000000000000000000000000000000000000000000000000000000000000000000000000000000000000000000000000000000000000000000000000000000000000000000000000000000000000000000000000000000000000000000000000000000000000000000000000000000000000000000000000000000000000000000000000000000000000000000000000000000000000000000000000000000000000000000000",
            "difficulty": "0x00",
            "number": "0x00",
            "gasLimit": "0x05f5e100",
            "gasUsed": "0x00",
            "timestamp": "0x00",
            "extraData": "0x00",
            "mixHash": "0x0000000000000000000000000000000000000000000000000000000000000000",
            "nonce": "0x0000000000000000",
            "baseFeePerGas": "0x0b",
            "withdrawalsRoot": "0x56e81f171bcc55a6ff8345e692c0f86e5b48e01b996cadc001622fb5e363b421",
            "blobGasUsed": "0x00",
            "excessBlobGas": "0x00",
            "parentBeaconBlockRoot": "0x0000000000000000000000000000000000000000000000000000000000000000",
            "hash": "0x4f089a88152ef2a92b802bc1d4856b4979c12983b8507061320cfa7e1fbc1554"
        },
        "pre": {
            "0x000f3df6d732807ef1319fb7b8bb8522d0beac02": {
                "nonce": "0x01",
                "balance": "0x00",
                "code": "0x3373fffffffffffffffffffffffffffffffffffffffe14604d57602036146024575f5ffd5b5f35801560495762001fff810690815414603c575f5ffd5b62001fff01545f5260205ff35b5f5ffd5b62001fff42064281555f359062001fff015500",
                "storage": {}
            },
            "0x0000000000000000000000000000000000001000": {
                "nonce": "0x00",
                "balance": "0x0ba1a9ce0ba1a9ce",
                "code": "0x6002600360045055",
                "storage": {}
            },
            "0x0000000000000000000000000000000000001001": {
                "nonce": "0x00",
                "balance": "0x0ba1a9ce0ba1a9ce",
                "code": "0x5060026003600455",
                "storage": {}
            },
            "0xcccccccccccccccccccccccccccccccccccccccc": {
                "nonce": "0x00",
                "balance": "0x0ba1a9ce0ba1a9ce",
                "code": "0x6000600060006000600435611000015af400",
                "storage": {}
            },
            "0xa94f5374fce5edbc8e2a8697c15331677e6ebf0b": {
                "nonce": "0x00",
                "balance": "0x100000000000",
                "code": "0x",
                "storage": {}
            }
        },
        "postState": {
            "0x000f3df6d732807ef1319fb7b8bb8522d0beac02": {
                "nonce": "0x01",
                "balance": "0x00",
                "code": "0x3373fffffffffffffffffffffffffffffffffffffffe14604d57602036146024575f5ffd5b5f35801560495762001fff810690815414603c575f5ffd5b62001fff01545f5260205ff35b5f5ffd5b62001fff42064281555f359062001fff015500",
                "storage": {
                    "0x03e8": "0x03e8"
                }
            },
            "0x0000000000000000000000000000000000001000": {
                "nonce": "0x00",
                "balance": "0x0ba1a9ce0ba1a9ce",
                "code": "0x6002600360045055",
                "storage": {}
            },
            "0x0000000000000000000000000000000000001001": {
                "nonce": "0x00",
                "balance": "0x0ba1a9ce0ba1a9ce",
                "code": "0x5060026003600455",
                "storage": {}
            },
            "0xcccccccccccccccccccccccccccccccccccccccc": {
                "nonce": "0x00",
                "balance": "0x0ba1a9ce0ba1a9cf",
                "code": "0x6000600060006000600435611000015af400",
                "storage": {}
            },
            "0xa94f5374fce5edbc8e2a8697c15331677e6ebf0b": {
                "nonce": "0x01",
                "balance": "0x0ffff627f16d",
                "code": "0x",
                "storage": {}
            }
        },
        "lastblockhash": "0x47417cf077dff29a88886f1c3e811429cc1e3faa918d188bb09a355136bdd0b5",
        "config": {
            "network": "Cancun",
            "chainid": "0x01",
            "blobSchedule": {
                "Cancun": {
                    "target": "0x03",
                    "max": "0x06",
                    "baseFeeUpdateFraction": "0x32f0ed"
                }
            }
        },
        "genesisRLP": "0xf9023cf90236a00000000000000000000000000000000000000000000000000000000000000000a01dcc4de8dec75d7aab85b567b6ccd41ad312451b948a7413f0a142fd40d49347940000000000000000000000000000000000000000a009977b15a776268fa73dc0e5389be82c09806904ed4f432f34e6e122879841cda056e81f171bcc55a6ff8345e692c0f86e5b48e01b996cadc001622fb5e363b421a056e81f171bcc55a6ff8345e692c0f86e5b48e01b996cadc001622fb5e363b421b901000000000000000000000000000000000000000000000000000000000000000000000000000000000000000000000000000000000000000000000000000000000000000000000000000000000000000000000000000000000000000000000000000000000000000000000000000000000000000000000000000000000000000000000000000000000000000000000000000000000000000000000000000000000000000000000000000000000000000000000000000000000000000000000000000000000000000000000000000000000000000000000000000000000000000000000000000000000000000000000000000000000000000000000000000000000080808405f5e100808000a000000000000000000000000000000000000000000000000000000000000000008800000000000000000ba056e81f171bcc55a6ff8345e692c0f86e5b48e01b996cadc001622fb5e363b4218080a00000000000000000000000000000000000000000000000000000000000000000c0c0c0",
        "blocks": [
            {
                "blockHeader": {
                    "parentHash": "0x4f089a88152ef2a92b802bc1d4856b4979c12983b8507061320cfa7e1fbc1554",
                    "uncleHash": "0x1dcc4de8dec75d7aab85b567b6ccd41ad312451b948a7413f0a142fd40d49347",
                    "coinbase": "0x2adc25665018aa1fe0e6bc666dac8fc2697ff9ba",
                    "stateRoot": "0x7cf8748ee645aea907767c77158b8711f4da9bd360682f79ff34a9d61f7e3956",
                    "transactionsTrie": "0x89a13db55f04e1b33393bd598f17809fecc5c54dfb3d2b1c05adce9d39da653f",
                    "receiptTrie": "0xa0334f511cbf68f2c1b48d1d596e27085b301db25ae061412f0b4c18a2478de2",
                    "bloom": "0x00000000000000000000000000000000000000000000000000000000000000000000000000000000000000000000000000000000000000000000000000000000000000000000000000000000000000000000000000000000000000000000000000000000000000000000000000000000000000000000000000000000000000000000000000000000000000000000000000000000000000000000000000000000000000000000000000000000000000000000000000000000000000000000000000000000000000000000000000000000000000000000000000000000000000000000000000000000000000000000000000000000000000000000000000000000",
                    "difficulty": "0x00",
                    "number": "0x01",
                    "gasLimit": "0x05f5e100",
                    "gasUsed": "0xfc0175",
                    "timestamp": "0x03e8",
                    "extraData": "0x00",
                    "mixHash": "0x0000000000000000000000000000000000000000000000000000000000020000",
                    "nonce": "0x0000000000000000",
                    "baseFeePerGas": "0x0a",
                    "withdrawalsRoot": "0x56e81f171bcc55a6ff8345e692c0f86e5b48e01b996cadc001622fb5e363b421",
                    "blobGasUsed": "0x00",
                    "excessBlobGas": "0x00",
                    "parentBeaconBlockRoot": "0x0000000000000000000000000000000000000000000000000000000000000000",
                    "hash": "0x47417cf077dff29a88886f1c3e811429cc1e3faa918d188bb09a355136bdd0b5"
                },
                "transactions": [
                    {
                        "type": "0x00",
                        "chainId": "0x01",
                        "nonce": "0x00",
                        "gasPrice": "0x0a",
                        "gasLimit": "0x01000000",
                        "to": "0xcccccccccccccccccccccccccccccccccccccccc",
                        "value": "0x01",
                        "data": "0x693c61390000000000000000000000000000000000000000000000000000000000000001",
                        "v": "0x25",
                        "r": "0x2ed1ccae13c0938bb94a6a13c2572c86707f7ed2e231639ab377d8a5d39a2de0",
                        "s": "0x30c5c128a2d97e8196999c525e09d3915f7648cfb30d6c43411042bcf306a159",
                        "sender": "0xa94f5374fce5edbc8e2a8697c15331677e6ebf0b"
                    }
                ],
                "uncleHeaders": [],
                "withdrawals": [],
                "receipts": [
                    {
                        "transactionHash": "0x636208ffa481f3923656eeecbae3fe5eac395ae812969ec55c11edc016e39186",
                        "type": "0x00",
                        "cumulativeGasUsed": "0xfc0175",
                        "bloom": "0x00000000000000000000000000000000000000000000000000000000000000000000000000000000000000000000000000000000000000000000000000000000000000000000000000000000000000000000000000000000000000000000000000000000000000000000000000000000000000000000000000000000000000000000000000000000000000000000000000000000000000000000000000000000000000000000000000000000000000000000000000000000000000000000000000000000000000000000000000000000000000000000000000000000000000000000000000000000000000000000000000000000000000000000000000000000",
                        "logs": [],
                        "status": true,
                        "rlp": "0xf901090183fc0175b9010000000000000000000000000000000000000000000000000000000000000000000000000000000000000000000000000000000000000000000000000000000000000000000000000000000000000000000000000000000000000000000000000000000000000000000000000000000000000000000000000000000000000000000000000000000000000000000000000000000000000000000000000000000000000000000000000000000000000000000000000000000000000000000000000000000000000000000000000000000000000000000000000000000000000000000000000000000000000000000000000000000000000000000000000000000000c0"
                    }
                ],
                "rlp": "0xf902c9f9023ba04f089a88152ef2a92b802bc1d4856b4979c12983b8507061320cfa7e1fbc1554a01dcc4de8dec75d7aab85b567b6ccd41ad312451b948a7413f0a142fd40d49347942adc25665018aa1fe0e6bc666dac8fc2697ff9baa07cf8748ee645aea907767c77158b8711f4da9bd360682f79ff34a9d61f7e3956a089a13db55f04e1b33393bd598f17809fecc5c54dfb3d2b1c05adce9d39da653fa0a0334f511cbf68f2c1b48d1d596e27085b301db25ae061412f0b4c18a2478de2b901000000000000000000000000000000000000000000000000000000000000000000000000000000000000000000000000000000000000000000000000000000000000000000000000000000000000000000000000000000000000000000000000000000000000000000000000000000000000000000000000000000000000000000000000000000000000000000000000000000000000000000000000000000000000000000000000000000000000000000000000000000000000000000000000000000000000000000000000000000000000000000000000000000000000000000000000000000000000000000000000000000000000000000000000000000000080018405f5e10083fc01758203e800a000000000000000000000000000000000000000000000000000000000000200008800000000000000000aa056e81f171bcc55a6ff8345e692c0f86e5b48e01b996cadc001622fb5e363b4218080a00000000000000000000000000000000000000000000000000000000000000000f887f885800a840100000094cccccccccccccccccccccccccccccccccccccccc01a4693c6139000000000000000000000000000000000000000000000000000000000000000125a02ed1ccae13c0938bb94a6a13c2572c86707f7ed2e231639ab377d8a5d39a2de0a030c5c128a2d97e8196999c525e09d3915f7648cfb30d6c43411042bcf306a159c0c0",
                "blocknumber": "1"
            }
        ],
        "sealEngine": "NoProof",
        "_info": {
            "hash": "0xecd6f2be84c3b9393b12c2adbaf6b9c8e98acf842db7632725d816adc225b1cb",
            "fixture-format": "blockchain_test",
            "comment": "`execution-specs` generated test",
            "filling-transition-tool": "2.19.0",
            "description": "Ori Pomerantz qbzzt1@gmail.",
            "url": "https://github.com/ethereum/execution-specs/blob/tests-bal@v5.6.1/tests/ported_static/vmIOandFlowOperations/test_pop.py#L30",
            "metadata": {
                "opcode_count": {}
            }
        }
    }
}