{
    "tests/ported_static/stStaticCall/test_static_callcallcodecallcode_011_suicide_middle.py::test_static_callcallcodecallcode_011_suicide_middle[fork_Cancun-blockchain_test_from_state_test]": {
        "network": "Cancun",
        "genesisBlockHeader": {
            "parentHash": "0x0000000000000000000000000000000000000000000000000000000000000000",
            "uncleHash": "0x1dcc4de8dec75d7aab85b567b6ccd41ad312451b948a7413f0a142fd40d49347",
            "coinbase": "0x0000000000000000000000000000000000000000",
            "stateRoot": "0xd95b3c7119b72c29359c0f10fe4c0b908fbdb7b47675dc66d2ac55208cdbb543",
            "transactionsTrie": "0x56e81f171bcc55a6ff8345e692c0f86e5b48e01b996cadc001622fb5e363b421",
            "receiptTrie": "0x56e81f171bcc55a6ff8345e692c0f86e5b48e01b996cadc001622fb5e363b421",
            "bloom": "0x00000000000000000000000000000000000000000000000000000000000000000000000000000000000000000000000000000000000000000000000000000000000000000000000000000000000000000000000000000000000000000000000000000000000000000000000000000000000000000000000000000000000000000000000000000000000000000000000000000000000000000000000000000000000000000000000000000000000000000000000000000000000000000000000000000000000000000000000000000000000000000000000000000000000000000000000000000000000000000000000000000000000000000000000000000000",
            "difficulty": "0x00",
            "number": "0x00",
            "gasLimit": "0x01c9c380",
            "gasUsed": "0x00",
            "timestamp": "0x00",
            "extraData": "0x00",
            "mixHash": "0x0000000000000000000000000000000000000000000000000000000000000000",
            "nonce": "0x0000000000000000",
            "baseFeePerGas": "0x0b",
            "withdrawalsRoot": "0x56e81f171bcc55a6ff8345e692c0f86e5b48e01b996cadc001622fb5e363b421",
            "blobGasUsed": "0x00",
            "excessBlobGas": "0x00",
            "parentBeaconBlockRoot": "0x0000000000000000000000000000000000000000000000000000000000000000",
            "hash": "0x9d54e28d9d560240d57fe1af7a78d2f4b36dd8fd33bc2598afbde4fdaf58be7f"
        },
        "pre": {
            "0x000f3df6d732807ef1319fb7b8bb8522d0beac02": {
                "nonce": "0x01",
                "balance": "0x00",
                "code": "0x3373fffffffffffffffffffffffffffffffffffffffe14604d57602036146024575f5ffd5b5f35801560495762001fff810690815414603c575f5ffd5b62001fff01545f5260205ff35b5f5ffd5b62001fff42064281555f359062001fff015500",
                "storage": {}
            },
            "0x569cdc3b32cc3f9747bbde39fd70fead591d2f0d": {
                "nonce": "0x00",
                "balance": "0x0de0b6b3a7640000",
                "code": "0x60406000604060007392d7028788caa240253b7b2a92386464690cdc72620249f0fa600055600160015500",
                "storage": {}
            },
            "0x92d7028788caa240253b7b2a92386464690cdc72": {
                "nonce": "0x00",
                "balance": "0x02540be400",
                "code": "0x604060006040600073eca01d36dbe4f4ab283a49016efa370bac7e7346620186a0f400",
                "storage": {}
            },
            "0xeca01d36dbe4f4ab283a49016efa370bac7e7346": {
                "nonce": "0x00",
                "balance": "0x02540be400",
                "code": "0x73569cdc3b32cc3f9747bbde39fd70fead591d2f0dff60406000604060007348e2d4c0b593bfebe5ddb4f13aa355b8bd83ddd361c350f400",
                "storage": {}
            },
            "0x48e2d4c0b593bfebe5ddb4f13aa355b8bd83ddd3": {
                "nonce": "0x00",
                "balance": "0x02540be400",
                "code": "0x600160035200",
                "storage": {}
            },
            "0xebaf50debf10e08302fe4280c32df010463ca297": {
                "nonce": "0x00",
                "balance": "0x0de0b6b3a7640000",
                "code": "0x",
                "storage": {}
            }
        },
        "postState": {
            "0x000f3df6d732807ef1319fb7b8bb8522d0beac02": {
                "nonce": "0x01",
                "balance": "0x00",
                "code": "0x3373fffffffffffffffffffffffffffffffffffffffe14604d57602036146024575f5ffd5b5f35801560495762001fff810690815414603c575f5ffd5b62001fff01545f5260205ff35b5f5ffd5b62001fff42064281555f359062001fff015500",
                "storage": {
                    "0x03e8": "0x03e8"
                }
            },
            "0x569cdc3b32cc3f9747bbde39fd70fead591d2f0d": {
                "nonce": "0x00",
                "balance": "0x0de0b6b3a7640000",
                "code": "0x60406000604060007392d7028788caa240253b7b2a92386464690cdc72620249f0fa600055600160015500",
                "storage": {
                    "0x00": "0x01",
                    "0x01": "0x01"
                }
            },
            "0x92d7028788caa240253b7b2a92386464690cdc72": {
                "nonce": "0x00",
                "balance": "0x02540be400",
                "code": "0x604060006040600073eca01d36dbe4f4ab283a49016efa370bac7e7346620186a0f400",
                "storage": {}
            },
            "0xeca01d36dbe4f4ab283a49016efa370bac7e7346": {
                "nonce": "0x00",
                "balance": "0x02540be400",
                "code": "0x73569cdc3b32cc3f9747bbde39fd70fead591d2f0dff60406000604060007348e2d4c0b593bfebe5ddb4f13aa355b8bd83ddd361c350f400",
                "storage": {}
            },
            "0x48e2d4c0b593bfebe5ddb4f13aa355b8bd83ddd3": {
                "nonce": "0x00",
                "balance": "0x02540be400",
                "code": "0x600160035200",
                "storage": {}
            },
            "0xebaf50debf10e08302fe4280c32df010463ca297": {
                "nonce": "0x01",
                "balance": "0x0de0b6b3a749fd86",
                "code": "0x",
                "storage": {}
            }
        },
        "lastblockhash": "0xd460b04545d182ad5b48bb3f3a6bbaa4d8f38ae538664b06501a75998204d9a1",
        "config": {
            "network": "Cancun",
            "chainid": "0x01",
            "blobSchedule": {
                "Cancun": {
                    "target": "0x03",
                    "max": "0x06",
                    "baseFeeUpdateFraction": "0x32f0ed"
                }
            }
        },
        "genesisRLP": "0xf9023cf90236a00000000000000000000000000000000000000000000000000000000000000000a01dcc4de8dec75d7aab85b567b6ccd41ad312451b948a7413f0a142fd40d49347940000000000000000000000000000000000000000a0d95b3c7119b72c29359c0f10fe4c0b908fbdb7b47675dc66d2ac55208cdbb543a056e81f171bcc55a6ff8345e692c0f86e5b48e01b996cadc001622fb5e363b421a056e81f171bcc55a6ff8345e692c0f86e5b48e01b996cadc001622fb5e363b421b901000000000000000000000000000000000000000000000000000000000000000000000000000000000000000000000000000000000000000000000000000000000000000000000000000000000000000000000000000000000000000000000000000000000000000000000000000000000000000000000000000000000000000000000000000000000000000000000000000000000000000000000000000000000000000000000000000000000000000000000000000000000000000000000000000000000000000000000000000000000000000000000000000000000000000000000000000000000000000000000000000000000000000000000000000000000080808401c9c380808000a000000000000000000000000000000000000000000000000000000000000000008800000000000000000ba056e81f171bcc55a6ff8345e692c0f86e5b48e01b996cadc001622fb5e363b4218080a00000000000000000000000000000000000000000000000000000000000000000c0c0c0",
        "blocks": [
            {
                "blockHeader": {
                    "parentHash": "0x9d54e28d9d560240d57fe1af7a78d2f4b36dd8fd33bc2598afbde4fdaf58be7f",
                    "uncleHash": "0x1dcc4de8dec75d7aab85b567b6ccd41ad312451b948a7413f0a142fd40d49347",
                    "coinbase": "0x2adc25665018aa1fe0e6bc666dac8fc2697ff9ba",
                    "stateRoot": "0x43b4e7065db65057f6d65619ce269740e4e7e7c37141e0fc55e578ea414ca8ca",
                    "transactionsTrie": "0x7e8c3e557f704b30c2f9ea721054388a80902c390bcf472fb7a6ffe6459fdcfe",
                    "receiptTrie": "0xf08389a215d44aeebb08de2295b094f49421a18f5d3cae7b912a3da90d60298e",
                    "bloom": "0x00000000000000000000000000000000000000000000000000000000000000000000000000000000000000000000000000000000000000000000000000000000000000000000000000000000000000000000000000000000000000000000000000000000000000000000000000000000000000000000000000000000000000000000000000000000000000000000000000000000000000000000000000000000000000000000000000000000000000000000000000000000000000000000000000000000000000000000000000000000000000000000000000000000000000000000000000000000000000000000000000000000000000000000000000000000",
                    "difficulty": "0x00",
                    "number": "0x01",
                    "gasLimit": "0x01c9c380",
                    "gasUsed": "0x0299d9",
                    "timestamp": "0x03e8",
                    "extraData": "0x00",
                    "mixHash": "0x0000000000000000000000000000000000000000000000000000000000020000",
                    "nonce": "0x0000000000000000",
                    "baseFeePerGas": "0x0a",
                    "withdrawalsRoot": "0x56e81f171bcc55a6ff8345e692c0f86e5b48e01b996cadc001622fb5e363b421",
                    "blobGasUsed": "0x00",
                    "excessBlobGas": "0x00",
                    "parentBeaconBlockRoot": "0x0000000000000000000000000000000000000000000000000000000000000000",
                    "hash": "0xd460b04545d182ad5b48bb3f3a6bbaa4d8f38ae538664b06501a75998204d9a1"
                },
                "transactions": [
                    {
                        "type": "0x00",
                        "chainId": "0x01",
                        "nonce": "0x00",
                        "gasPrice": "0x0a",
                        "gasLimit": "0x2dc6c0",
                        "to": "0x569cdc3b32cc3f9747bbde39fd70fead591d2f0d",
                        "value": "0x00",
                        "data": "0x",
                        "v": "0x25",
                        "r": "0xb1e4ad232050ee009bd74b49bca5eff2e781ba6f08d035530d12afb275f429ab",
                        "s": "0x04e2704356b438fad3eb20b4804517adb0dd07a9e31b16c2daad5310879f1b34",
                        "sender": "0xebaf50debf10e08302fe4280c32df010463ca297"
                    }
                ],
                "uncleHeaders": [],
                "withdrawals": [],
                "receipts": [
                    {
                        "transactionHash": "0x972933980167606bfb0de17bb1cebfcca04540d600438388fad1d943b2286083",
                        "type": "0x00",
                        "cumulativeGasUsed": "0x0299d9",
                        "bloom": "0x00000000000000000000000000000000000000000000000000000000000000000000000000000000000000000000000000000000000000000000000000000000000000000000000000000000000000000000000000000000000000000000000000000000000000000000000000000000000000000000000000000000000000000000000000000000000000000000000000000000000000000000000000000000000000000000000000000000000000000000000000000000000000000000000000000000000000000000000000000000000000000000000000000000000000000000000000000000000000000000000000000000000000000000000000000000",
                        "logs": [],
                        "status": true,
                        "rlp": "0xf9010901830299d9b9010000000000000000000000000000000000000000000000000000000000000000000000000000000000000000000000000000000000000000000000000000000000000000000000000000000000000000000000000000000000000000000000000000000000000000000000000000000000000000000000000000000000000000000000000000000000000000000000000000000000000000000000000000000000000000000000000000000000000000000000000000000000000000000000000000000000000000000000000000000000000000000000000000000000000000000000000000000000000000000000000000000000000000000000000000000000c0"
                    }
                ],
                "rlp": "0xf902a4f9023ba09d54e28d9d560240d57fe1af7a78d2f4b36dd8fd33bc2598afbde4fdaf58be7fa01dcc4de8dec75d7aab85b567b6ccd41ad312451b948a7413f0a142fd40d49347942adc25665018aa1fe0e6bc666dac8fc2697ff9baa043b4e7065db65057f6d65619ce269740e4e7e7c37141e0fc55e578ea414ca8caa07e8c3e557f704b30c2f9ea721054388a80902c390bcf472fb7a6ffe6459fdcfea0f08389a215d44aeebb08de2295b094f49421a18f5d3cae7b912a3da90d60298eb901000000000000000000000000000000000000000000000000000000000000000000000000000000000000000000000000000000000000000000000000000000000000000000000000000000000000000000000000000000000000000000000000000000000000000000000000000000000000000000000000000000000000000000000000000000000000000000000000000000000000000000000000000000000000000000000000000000000000000000000000000000000000000000000000000000000000000000000000000000000000000000000000000000000000000000000000000000000000000000000000000000000000000000000000000000000080018401c9c380830299d98203e800a000000000000000000000000000000000000000000000000000000000000200008800000000000000000aa056e81f171bcc55a6ff8345e692c0f86e5b48e01b996cadc001622fb5e363b4218080a00000000000000000000000000000000000000000000000000000000000000000f862f860800a832dc6c094569cdc3b32cc3f9747bbde39fd70fead591d2f0d808025a0b1e4ad232050ee009bd74b49bca5eff2e781ba6f08d035530d12afb275f429aba004e2704356b438fad3eb20b4804517adb0dd07a9e31b16c2daad5310879f1b34c0c0",
                "blocknumber": "1"
            }
        ],
        "sealEngine": "NoProof",
        "_info": {
            "hash": "0x6d01106e72c105cf15c2971e07242a0530662101a83f78bd5c817bef4e88ab63",
            "fixture-format": "blockchain_test",
            "comment": "`execution-specs` generated test",
            "filling-transition-tool": "2.19.0",
            "description": "Test_static_callcallcodecallcode_011_suicide_middle.",
            "url": "https://github.com/ethereum/execution-specs/blob/tests-sn\u00f8bal-devnet-4@v1.0.0/tests/ported_static/stStaticCall/test_static_callcallcodecallcode_011_suicide_middle.py#L25",
            "metadata": {
                "opcode_count": {}
            }
        }
    }
}