{
    "tests/berlin/eip2929_gas_cost_increases/test_create.py::test_create_insufficient_balance[fork_Cancun-blockchain_test_from_state_test-CREATE2]": {
        "network": "Cancun",
        "genesisBlockHeader": {
            "parentHash": "0x0000000000000000000000000000000000000000000000000000000000000000",
            "uncleHash": "0x1dcc4de8dec75d7aab85b567b6ccd41ad312451b948a7413f0a142fd40d49347",
            "coinbase": "0x0000000000000000000000000000000000000000",
            "stateRoot": "0xd2ed6b6938f2bf4e19d8777d92fc66079970e76e2f3576917d8c4cb69e7d2898",
            "transactionsTrie": "0x56e81f171bcc55a6ff8345e692c0f86e5b48e01b996cadc001622fb5e363b421",
            "receiptTrie": "0x56e81f171bcc55a6ff8345e692c0f86e5b48e01b996cadc001622fb5e363b421",
            "bloom": "0x00000000000000000000000000000000000000000000000000000000000000000000000000000000000000000000000000000000000000000000000000000000000000000000000000000000000000000000000000000000000000000000000000000000000000000000000000000000000000000000000000000000000000000000000000000000000000000000000000000000000000000000000000000000000000000000000000000000000000000000000000000000000000000000000000000000000000000000000000000000000000000000000000000000000000000000000000000000000000000000000000000000000000000000000000000000",
            "difficulty": "0x00",
            "number": "0x00",
            "gasLimit": "0x07270e00",
            "gasUsed": "0x00",
            "timestamp": "0x00",
            "extraData": "0x00",
            "mixHash": "0x0000000000000000000000000000000000000000000000000000000000000000",
            "nonce": "0x0000000000000000",
            "baseFeePerGas": "0x07",
            "withdrawalsRoot": "0x56e81f171bcc55a6ff8345e692c0f86e5b48e01b996cadc001622fb5e363b421",
            "blobGasUsed": "0x00",
            "excessBlobGas": "0x00",
            "parentBeaconBlockRoot": "0x0000000000000000000000000000000000000000000000000000000000000000",
            "hash": "0x57cc668528f42100805fe294f6915c8122d15b2f9a401ee1879cf0fea2456fd4"
        },
        "pre": {
            "0x000f3df6d732807ef1319fb7b8bb8522d0beac02": {
                "nonce": "0x01",
                "balance": "0x00",
                "code": "0x3373fffffffffffffffffffffffffffffffffffffffe14604d57602036146024575f5ffd5b5f35801560495762001fff810690815414603c575f5ffd5b62001fff01545f5260205ff35b5f5ffd5b62001fff42064281555f359062001fff015500",
                "storage": {}
            },
            "0x1cd139edc4a3f7538ace6ee7bc9d34099b9842bb": {
                "nonce": "0x01",
                "balance": "0x00",
                "code": "0x7f00000000000000000000000000000000000000000000000000000000000000006000526000600160006001f5600055",
                "storage": {
                    "0x00": "0x01"
                }
            },
            "0x336c3f27e9265c676fcd3a35c43f3581ad290165": {
                "nonce": "0x01",
                "balance": "0x00",
                "code": "0x5a739b0bf31a942d60d4e77366142971b5e556f0839c315a9050900360005a5a900301900360015500",
                "storage": {}
            },
            "0x52967ce59bfce75864464b215886435b6f44195b": {
                "nonce": "0x01",
                "balance": "0x00",
                "code": "0x60006000600060006000731cd139edc4a3f7538ace6ee7bc9d34099b9842bb5af16000600060006000600073336c3f27e9265c676fcd3a35c43f3581ad2901655af100",
                "storage": {}
            },
            "0x1ad9bc24818784172ff393bb6f89f094d4d2ca29": {
                "nonce": "0x00",
                "balance": "0x3635c9adc5dea00000",
                "code": "0x",
                "storage": {}
            }
        },
        "postState": {
            "0x000f3df6d732807ef1319fb7b8bb8522d0beac02": {
                "nonce": "0x01",
                "balance": "0x00",
                "code": "0x3373fffffffffffffffffffffffffffffffffffffffe14604d57602036146024575f5ffd5b5f35801560495762001fff810690815414603c575f5ffd5b62001fff01545f5260205ff35b5f5ffd5b62001fff42064281555f359062001fff015500",
                "storage": {
                    "0x03e8": "0x03e8"
                }
            },
            "0x1cd139edc4a3f7538ace6ee7bc9d34099b9842bb": {
                "nonce": "0x01",
                "balance": "0x00",
                "code": "0x7f00000000000000000000000000000000000000000000000000000000000000006000526000600160006001f5600055",
                "storage": {}
            },
            "0x336c3f27e9265c676fcd3a35c43f3581ad290165": {
                "nonce": "0x01",
                "balance": "0x00",
                "code": "0x5a739b0bf31a942d60d4e77366142971b5e556f0839c315a9050900360005a5a900301900360015500",
                "storage": {
                    "0x01": "0x0a2b"
                }
            },
            "0x52967ce59bfce75864464b215886435b6f44195b": {
                "nonce": "0x01",
                "balance": "0x00",
                "code": "0x60006000600060006000731cd139edc4a3f7538ace6ee7bc9d34099b9842bb5af16000600060006000600073336c3f27e9265c676fcd3a35c43f3581ad2901655af100",
                "storage": {}
            },
            "0x1ad9bc24818784172ff393bb6f89f094d4d2ca29": {
                "nonce": "0x01",
                "balance": "0x3635c9adc5de934d4c",
                "code": "0x",
                "storage": {}
            },
            "0x2adc25665018aa1fe0e6bc666dac8fc2697ff9ba": {
                "nonce": "0x00",
                "balance": "0x03cf36",
                "code": "0x",
                "storage": {}
            }
        },
        "lastblockhash": "0xc0af17492ce8ee2da8e0002d3ae475c629979d10301de85cb77cfc5e9f4dcc2e",
        "config": {
            "network": "Cancun",
            "chainid": "0x01",
            "blobSchedule": {
                "Cancun": {
                    "target": "0x03",
                    "max": "0x06",
                    "baseFeeUpdateFraction": "0x32f0ed"
                }
            }
        },
        "genesisRLP": "0xf9023cf90236a00000000000000000000000000000000000000000000000000000000000000000a01dcc4de8dec75d7aab85b567b6ccd41ad312451b948a7413f0a142fd40d49347940000000000000000000000000000000000000000a0d2ed6b6938f2bf4e19d8777d92fc66079970e76e2f3576917d8c4cb69e7d2898a056e81f171bcc55a6ff8345e692c0f86e5b48e01b996cadc001622fb5e363b421a056e81f171bcc55a6ff8345e692c0f86e5b48e01b996cadc001622fb5e363b421b901000000000000000000000000000000000000000000000000000000000000000000000000000000000000000000000000000000000000000000000000000000000000000000000000000000000000000000000000000000000000000000000000000000000000000000000000000000000000000000000000000000000000000000000000000000000000000000000000000000000000000000000000000000000000000000000000000000000000000000000000000000000000000000000000000000000000000000000000000000000000000000000000000000000000000000000000000000000000000000000000000000000000000000000000000000000080808407270e00808000a0000000000000000000000000000000000000000000000000000000000000000088000000000000000007a056e81f171bcc55a6ff8345e692c0f86e5b48e01b996cadc001622fb5e363b4218080a00000000000000000000000000000000000000000000000000000000000000000c0c0c0",
        "blocks": [
            {
                "blockHeader": {
                    "parentHash": "0x57cc668528f42100805fe294f6915c8122d15b2f9a401ee1879cf0fea2456fd4",
                    "uncleHash": "0x1dcc4de8dec75d7aab85b567b6ccd41ad312451b948a7413f0a142fd40d49347",
                    "coinbase": "0x2adc25665018aa1fe0e6bc666dac8fc2697ff9ba",
                    "stateRoot": "0xba20e7a85221d8161f72a43ce33b9af549f64e5de4e1c7f2f01a3f731132382a",
                    "transactionsTrie": "0xb470f855c1f00a4b6e90d37b945583d71c50f931714b394c92d182c99299eb1d",
                    "receiptTrie": "0x6b177babb748e702076f2361a77f83892a1c1b6fd8e89332d9c8875a11116d50",
                    "bloom": "0x00000000000000000000000000000000000000000000000000000000000000000000000000000000000000000000000000000000000000000000000000000000000000000000000000000000000000000000000000000000000000000000000000000000000000000000000000000000000000000000000000000000000000000000000000000000000000000000000000000000000000000000000000000000000000000000000000000000000000000000000000000000000000000000000000000000000000000000000000000000000000000000000000000000000000000000000000000000000000000000000000000000000000000000000000000000",
                    "difficulty": "0x00",
                    "number": "0x01",
                    "gasLimit": "0x07270e00",
                    "gasUsed": "0x014512",
                    "timestamp": "0x03e8",
                    "extraData": "0x00",
                    "mixHash": "0x0000000000000000000000000000000000000000000000000000000000000000",
                    "nonce": "0x0000000000000000",
                    "baseFeePerGas": "0x07",
                    "withdrawalsRoot": "0x56e81f171bcc55a6ff8345e692c0f86e5b48e01b996cadc001622fb5e363b421",
                    "blobGasUsed": "0x00",
                    "excessBlobGas": "0x00",
                    "parentBeaconBlockRoot": "0x0000000000000000000000000000000000000000000000000000000000000000",
                    "hash": "0xc0af17492ce8ee2da8e0002d3ae475c629979d10301de85cb77cfc5e9f4dcc2e"
                },
                "transactions": [
                    {
                        "type": "0x00",
                        "chainId": "0x01",
                        "nonce": "0x00",
                        "gasPrice": "0x0a",
                        "gasLimit": "0x0f4240",
                        "to": "0x52967ce59bfce75864464b215886435b6f44195b",
                        "value": "0x00",
                        "data": "0x",
                        "v": "0x25",
                        "r": "0x38088086ceb4046493195b8ef50e2f4ea66e836ff2d3f9dcec55243680af11c9",
                        "s": "0x5926d8b908712a68b69229a1466cd4ff00906d332ad615e9cb886fc9af618eb0",
                        "sender": "0x1ad9bc24818784172ff393bb6f89f094d4d2ca29"
                    }
                ],
                "uncleHeaders": [],
                "withdrawals": [],
                "receipts": [
                    {
                        "transactionHash": "0xb3bfce02af0c21262a764deb5dfae801cb5434f86d844349c523ef3f7f2fa9fd",
                        "type": "0x00",
                        "cumulativeGasUsed": "0x014512",
                        "bloom": "0x00000000000000000000000000000000000000000000000000000000000000000000000000000000000000000000000000000000000000000000000000000000000000000000000000000000000000000000000000000000000000000000000000000000000000000000000000000000000000000000000000000000000000000000000000000000000000000000000000000000000000000000000000000000000000000000000000000000000000000000000000000000000000000000000000000000000000000000000000000000000000000000000000000000000000000000000000000000000000000000000000000000000000000000000000000000",
                        "logs": [],
                        "status": true,
                        "rlp": "0xf901090183014512b9010000000000000000000000000000000000000000000000000000000000000000000000000000000000000000000000000000000000000000000000000000000000000000000000000000000000000000000000000000000000000000000000000000000000000000000000000000000000000000000000000000000000000000000000000000000000000000000000000000000000000000000000000000000000000000000000000000000000000000000000000000000000000000000000000000000000000000000000000000000000000000000000000000000000000000000000000000000000000000000000000000000000000000000000000000000000c0"
                    }
                ],
                "rlp": "0xf902a4f9023ba057cc668528f42100805fe294f6915c8122d15b2f9a401ee1879cf0fea2456fd4a01dcc4de8dec75d7aab85b567b6ccd41ad312451b948a7413f0a142fd40d49347942adc25665018aa1fe0e6bc666dac8fc2697ff9baa0ba20e7a85221d8161f72a43ce33b9af549f64e5de4e1c7f2f01a3f731132382aa0b470f855c1f00a4b6e90d37b945583d71c50f931714b394c92d182c99299eb1da06b177babb748e702076f2361a77f83892a1c1b6fd8e89332d9c8875a11116d50b901000000000000000000000000000000000000000000000000000000000000000000000000000000000000000000000000000000000000000000000000000000000000000000000000000000000000000000000000000000000000000000000000000000000000000000000000000000000000000000000000000000000000000000000000000000000000000000000000000000000000000000000000000000000000000000000000000000000000000000000000000000000000000000000000000000000000000000000000000000000000000000000000000000000000000000000000000000000000000000000000000000000000000000000000000000000080018407270e00830145128203e800a0000000000000000000000000000000000000000000000000000000000000000088000000000000000007a056e81f171bcc55a6ff8345e692c0f86e5b48e01b996cadc001622fb5e363b4218080a00000000000000000000000000000000000000000000000000000000000000000f862f860800a830f42409452967ce59bfce75864464b215886435b6f44195b808025a038088086ceb4046493195b8ef50e2f4ea66e836ff2d3f9dcec55243680af11c9a05926d8b908712a68b69229a1466cd4ff00906d332ad615e9cb886fc9af618eb0c0c0",
                "blocknumber": "1"
            }
        ],
        "sealEngine": "NoProof",
        "_info": {
            "hash": "0x0d4aa0e79e9c410ef5f99dac969c8b496614dc68296bf8c795af94838fc48d66",
            "fixture-format": "blockchain_test",
            "comment": "`execution-specs` generated test",
            "filling-transition-tool": "2.19.0",
            "description": "Test that a failed CREATE/CREATE2 due to insufficient balance does not\nwarm the contract address.\n\nA creator contract with zero balance attempts to create with value=1.\nThe create aborts, and a subsequent BALANCE check on the would-be\ncontract address verifies it remains cold (costs COLD_ACCOUNT_ACCESS\ninstead of WARM_STORAGE_READ).",
            "url": "https://github.com/ethereum/execution-specs/blob/tests-bal@v5.7.0/tests/berlin/eip2929_gas_cost_increases/test_create.py#L39",
            "metadata": {
                "opcode_count": {}
            },
            "reference-spec": "https://github.com/ethereum/EIPs/blob/master/EIPS/eip-2929.md",
            "reference-spec-version": "0e11417265a623adb680c527b15d0cb6701b870b"
        }
    },
    "tests/berlin/eip2929_gas_cost_increases/test_create.py::test_create_insufficient_balance[fork_Cancun-blockchain_test_from_state_test-CREATE]": {
        "network": "Cancun",
        "genesisBlockHeader": {
            "parentHash": "0x0000000000000000000000000000000000000000000000000000000000000000",
            "uncleHash": "0x1dcc4de8dec75d7aab85b567b6ccd41ad312451b948a7413f0a142fd40d49347",
            "coinbase": "0x0000000000000000000000000000000000000000",
            "stateRoot": "0x04747f447b5ca74a956ebfff012d71b7a6b9c09254c657bab3178c65b923c9c6",
            "transactionsTrie": "0x56e81f171bcc55a6ff8345e692c0f86e5b48e01b996cadc001622fb5e363b421",
            "receiptTrie": "0x56e81f171bcc55a6ff8345e692c0f86e5b48e01b996cadc001622fb5e363b421",
            "bloom": "0x00000000000000000000000000000000000000000000000000000000000000000000000000000000000000000000000000000000000000000000000000000000000000000000000000000000000000000000000000000000000000000000000000000000000000000000000000000000000000000000000000000000000000000000000000000000000000000000000000000000000000000000000000000000000000000000000000000000000000000000000000000000000000000000000000000000000000000000000000000000000000000000000000000000000000000000000000000000000000000000000000000000000000000000000000000000",
            "difficulty": "0x00",
            "number": "0x00",
            "gasLimit": "0x07270e00",
            "gasUsed": "0x00",
            "timestamp": "0x00",
            "extraData": "0x00",
            "mixHash": "0x0000000000000000000000000000000000000000000000000000000000000000",
            "nonce": "0x0000000000000000",
            "baseFeePerGas": "0x07",
            "withdrawalsRoot": "0x56e81f171bcc55a6ff8345e692c0f86e5b48e01b996cadc001622fb5e363b421",
            "blobGasUsed": "0x00",
            "excessBlobGas": "0x00",
            "parentBeaconBlockRoot": "0x0000000000000000000000000000000000000000000000000000000000000000",
            "hash": "0x8fa1d95c6a6a1f0a5963ae55042f35c3a14e551f9ca629c55eb0762d09dbde10"
        },
        "pre": {
            "0x000f3df6d732807ef1319fb7b8bb8522d0beac02": {
                "nonce": "0x01",
                "balance": "0x00",
                "code": "0x3373fffffffffffffffffffffffffffffffffffffffe14604d57602036146024575f5ffd5b5f35801560495762001fff810690815414603c575f5ffd5b62001fff01545f5260205ff35b5f5ffd5b62001fff42064281555f359062001fff015500",
                "storage": {}
            },
            "0x685f571ba93286ef13f768516e0e28e20033d0fd": {
                "nonce": "0x01",
                "balance": "0x00",
                "code": "0x7f0000000000000000000000000000000000000000000000000000000000000000600052600160006001f0600055",
                "storage": {
                    "0x00": "0x01"
                }
            },
            "0x4ef86a14c85c3870e31f2bd92e858601aaa085b8": {
                "nonce": "0x01",
                "balance": "0x00",
                "code": "0x5a73b8ceefe48745bfbe5cfdd39560a7bbbcfcddc533315a9050900360005a5a900301900360015500",
                "storage": {}
            },
            "0x5752275934e4e55991f394545f240bc9fbc5291a": {
                "nonce": "0x01",
                "balance": "0x00",
                "code": "0x6000600060006000600073685f571ba93286ef13f768516e0e28e20033d0fd5af160006000600060006000734ef86a14c85c3870e31f2bd92e858601aaa085b85af100",
                "storage": {}
            },
            "0x1ad9bc24818784172ff393bb6f89f094d4d2ca29": {
                "nonce": "0x00",
                "balance": "0x3635c9adc5dea00000",
                "code": "0x",
                "storage": {}
            }
        },
        "postState": {
            "0x000f3df6d732807ef1319fb7b8bb8522d0beac02": {
                "nonce": "0x01",
                "balance": "0x00",
                "code": "0x3373fffffffffffffffffffffffffffffffffffffffe14604d57602036146024575f5ffd5b5f35801560495762001fff810690815414603c575f5ffd5b62001fff01545f5260205ff35b5f5ffd5b62001fff42064281555f359062001fff015500",
                "storage": {
                    "0x03e8": "0x03e8"
                }
            },
            "0x685f571ba93286ef13f768516e0e28e20033d0fd": {
                "nonce": "0x01",
                "balance": "0x00",
                "code": "0x7f0000000000000000000000000000000000000000000000000000000000000000600052600160006001f0600055",
                "storage": {}
            },
            "0x4ef86a14c85c3870e31f2bd92e858601aaa085b8": {
                "nonce": "0x01",
                "balance": "0x00",
                "code": "0x5a73b8ceefe48745bfbe5cfdd39560a7bbbcfcddc533315a9050900360005a5a900301900360015500",
                "storage": {
                    "0x01": "0x0a2b"
                }
            },
            "0x5752275934e4e55991f394545f240bc9fbc5291a": {
                "nonce": "0x01",
                "balance": "0x00",
                "code": "0x6000600060006000600073685f571ba93286ef13f768516e0e28e20033d0fd5af160006000600060006000734ef86a14c85c3870e31f2bd92e858601aaa085b85af100",
                "storage": {}
            },
            "0x1ad9bc24818784172ff393bb6f89f094d4d2ca29": {
                "nonce": "0x01",
                "balance": "0x3635c9adc5de934da6",
                "code": "0x",
                "storage": {}
            },
            "0x2adc25665018aa1fe0e6bc666dac8fc2697ff9ba": {
                "nonce": "0x00",
                "balance": "0x03cf1b",
                "code": "0x",
                "storage": {}
            }
        },
        "lastblockhash": "0x71340c97dabdeb5b077222a3de7aa00f705ead60f305dc54f10308ddcd9c5718",
        "config": {
            "network": "Cancun",
            "chainid": "0x01",
            "blobSchedule": {
                "Cancun": {
                    "target": "0x03",
                    "max": "0x06",
                    "baseFeeUpdateFraction": "0x32f0ed"
                }
            }
        },
        "genesisRLP": "0xf9023cf90236a00000000000000000000000000000000000000000000000000000000000000000a01dcc4de8dec75d7aab85b567b6ccd41ad312451b948a7413f0a142fd40d49347940000000000000000000000000000000000000000a004747f447b5ca74a956ebfff012d71b7a6b9c09254c657bab3178c65b923c9c6a056e81f171bcc55a6ff8345e692c0f86e5b48e01b996cadc001622fb5e363b421a056e81f171bcc55a6ff8345e692c0f86e5b48e01b996cadc001622fb5e363b421b901000000000000000000000000000000000000000000000000000000000000000000000000000000000000000000000000000000000000000000000000000000000000000000000000000000000000000000000000000000000000000000000000000000000000000000000000000000000000000000000000000000000000000000000000000000000000000000000000000000000000000000000000000000000000000000000000000000000000000000000000000000000000000000000000000000000000000000000000000000000000000000000000000000000000000000000000000000000000000000000000000000000000000000000000000000000080808407270e00808000a0000000000000000000000000000000000000000000000000000000000000000088000000000000000007a056e81f171bcc55a6ff8345e692c0f86e5b48e01b996cadc001622fb5e363b4218080a00000000000000000000000000000000000000000000000000000000000000000c0c0c0",
        "blocks": [
            {
                "blockHeader": {
                    "parentHash": "0x8fa1d95c6a6a1f0a5963ae55042f35c3a14e551f9ca629c55eb0762d09dbde10",
                    "uncleHash": "0x1dcc4de8dec75d7aab85b567b6ccd41ad312451b948a7413f0a142fd40d49347",
                    "coinbase": "0x2adc25665018aa1fe0e6bc666dac8fc2697ff9ba",
                    "stateRoot": "0xa55c224ec4762a44221abf82b7335d9d0e584c7e9c4912796c5097ee6424aa17",
                    "transactionsTrie": "0xe5e21b7ffecdf0318947b3bcc2a66103df6ab85cad3e99cf0fcb29fa8b28b779",
                    "receiptTrie": "0xf5595b80ae33900999a068d5e14d191ffb23186b02281f2e97e0b05e42dfd780",
                    "bloom": "0x00000000000000000000000000000000000000000000000000000000000000000000000000000000000000000000000000000000000000000000000000000000000000000000000000000000000000000000000000000000000000000000000000000000000000000000000000000000000000000000000000000000000000000000000000000000000000000000000000000000000000000000000000000000000000000000000000000000000000000000000000000000000000000000000000000000000000000000000000000000000000000000000000000000000000000000000000000000000000000000000000000000000000000000000000000000",
                    "difficulty": "0x00",
                    "number": "0x01",
                    "gasLimit": "0x07270e00",
                    "gasUsed": "0x014509",
                    "timestamp": "0x03e8",
                    "extraData": "0x00",
                    "mixHash": "0x0000000000000000000000000000000000000000000000000000000000000000",
                    "nonce": "0x0000000000000000",
                    "baseFeePerGas": "0x07",
                    "withdrawalsRoot": "0x56e81f171bcc55a6ff8345e692c0f86e5b48e01b996cadc001622fb5e363b421",
                    "blobGasUsed": "0x00",
                    "excessBlobGas": "0x00",
                    "parentBeaconBlockRoot": "0x0000000000000000000000000000000000000000000000000000000000000000",
                    "hash": "0x71340c97dabdeb5b077222a3de7aa00f705ead60f305dc54f10308ddcd9c5718"
                },
                "transactions": [
                    {
                        "type": "0x00",
                        "chainId": "0x01",
                        "nonce": "0x00",
                        "gasPrice": "0x0a",
                        "gasLimit": "0x0f4240",
                        "to": "0x5752275934e4e55991f394545f240bc9fbc5291a",
                        "value": "0x00",
                        "data": "0x",
                        "v": "0x26",
                        "r": "0x2057ce71654817b1cec3bb577e781d1ba9eaabdfd738d314d9f7b64faf348a6d",
                        "s": "0x5de084346012798c9084bd693132d823528dd72c7a681b0539c470e503512545",
                        "sender": "0x1ad9bc24818784172ff393bb6f89f094d4d2ca29"
                    }
                ],
                "uncleHeaders": [],
                "withdrawals": [],
                "receipts": [
                    {
                        "transactionHash": "0x0664b519d93b865002622f3f23c3965e62744bf25a51071078ec338ba423d5ca",
                        "type": "0x00",
                        "cumulativeGasUsed": "0x014509",
                        "bloom": "0x00000000000000000000000000000000000000000000000000000000000000000000000000000000000000000000000000000000000000000000000000000000000000000000000000000000000000000000000000000000000000000000000000000000000000000000000000000000000000000000000000000000000000000000000000000000000000000000000000000000000000000000000000000000000000000000000000000000000000000000000000000000000000000000000000000000000000000000000000000000000000000000000000000000000000000000000000000000000000000000000000000000000000000000000000000000",
                        "logs": [],
                        "status": true,
                        "rlp": "0xf901090183014509b9010000000000000000000000000000000000000000000000000000000000000000000000000000000000000000000000000000000000000000000000000000000000000000000000000000000000000000000000000000000000000000000000000000000000000000000000000000000000000000000000000000000000000000000000000000000000000000000000000000000000000000000000000000000000000000000000000000000000000000000000000000000000000000000000000000000000000000000000000000000000000000000000000000000000000000000000000000000000000000000000000000000000000000000000000000000000c0"
                    }
                ],
                "rlp": "0xf902a4f9023ba08fa1d95c6a6a1f0a5963ae55042f35c3a14e551f9ca629c55eb0762d09dbde10a01dcc4de8dec75d7aab85b567b6ccd41ad312451b948a7413f0a142fd40d49347942adc25665018aa1fe0e6bc666dac8fc2697ff9baa0a55c224ec4762a44221abf82b7335d9d0e584c7e9c4912796c5097ee6424aa17a0e5e21b7ffecdf0318947b3bcc2a66103df6ab85cad3e99cf0fcb29fa8b28b779a0f5595b80ae33900999a068d5e14d191ffb23186b02281f2e97e0b05e42dfd780b901000000000000000000000000000000000000000000000000000000000000000000000000000000000000000000000000000000000000000000000000000000000000000000000000000000000000000000000000000000000000000000000000000000000000000000000000000000000000000000000000000000000000000000000000000000000000000000000000000000000000000000000000000000000000000000000000000000000000000000000000000000000000000000000000000000000000000000000000000000000000000000000000000000000000000000000000000000000000000000000000000000000000000000000000000000000080018407270e00830145098203e800a0000000000000000000000000000000000000000000000000000000000000000088000000000000000007a056e81f171bcc55a6ff8345e692c0f86e5b48e01b996cadc001622fb5e363b4218080a00000000000000000000000000000000000000000000000000000000000000000f862f860800a830f4240945752275934e4e55991f394545f240bc9fbc5291a808026a02057ce71654817b1cec3bb577e781d1ba9eaabdfd738d314d9f7b64faf348a6da05de084346012798c9084bd693132d823528dd72c7a681b0539c470e503512545c0c0",
                "blocknumber": "1"
            }
        ],
        "sealEngine": "NoProof",
        "_info": {
            "hash": "0xbd3975aea7d4de80b2777189ec3b78746a3f83985863556676c60fba72b3de72",
            "fixture-format": "blockchain_test",
            "comment": "`execution-specs` generated test",
            "filling-transition-tool": "2.19.0",
            "description": "Test that a failed CREATE/CREATE2 due to insufficient balance does not\nwarm the contract address.\n\nA creator contract with zero balance attempts to create with value=1.\nThe create aborts, and a subsequent BALANCE check on the would-be\ncontract address verifies it remains cold (costs COLD_ACCOUNT_ACCESS\ninstead of WARM_STORAGE_READ).",
            "url": "https://github.com/ethereum/execution-specs/blob/tests-bal@v5.7.0/tests/berlin/eip2929_gas_cost_increases/test_create.py#L39",
            "metadata": {
                "opcode_count": {}
            },
            "reference-spec": "https://github.com/ethereum/EIPs/blob/master/EIPS/eip-2929.md",
            "reference-spec-version": "0e11417265a623adb680c527b15d0cb6701b870b"
        }
    }
}