{
    "tests/ported_static/stStaticCall/test_static_call_recursive_bomb0_oog_at_max_call_depth.py::test_static_call_recursive_bomb0_oog_at_max_call_depth[fork_Cancun-blockchain_test_from_state_test]": {
        "network": "Cancun",
        "genesisBlockHeader": {
            "parentHash": "0x0000000000000000000000000000000000000000000000000000000000000000",
            "uncleHash": "0x1dcc4de8dec75d7aab85b567b6ccd41ad312451b948a7413f0a142fd40d49347",
            "coinbase": "0x0000000000000000000000000000000000000000",
            "stateRoot": "0x8110ff27f428fd63074c11116fe381c80660073ea3b0e99e941e08180ae89758",
            "transactionsTrie": "0x56e81f171bcc55a6ff8345e692c0f86e5b48e01b996cadc001622fb5e363b421",
            "receiptTrie": "0x56e81f171bcc55a6ff8345e692c0f86e5b48e01b996cadc001622fb5e363b421",
            "bloom": "0x00000000000000000000000000000000000000000000000000000000000000000000000000000000000000000000000000000000000000000000000000000000000000000000000000000000000000000000000000000000000000000000000000000000000000000000000000000000000000000000000000000000000000000000000000000000000000000000000000000000000000000000000000000000000000000000000000000000000000000000000000000000000000000000000000000000000000000000000000000000000000000000000000000000000000000000000000000000000000000000000000000000000000000000000000000000",
            "difficulty": "0x00",
            "number": "0x00",
            "gasLimit": "0x199c82cc00",
            "gasUsed": "0x00",
            "timestamp": "0x00",
            "extraData": "0x00",
            "mixHash": "0x0000000000000000000000000000000000000000000000000000000000000000",
            "nonce": "0x0000000000000000",
            "baseFeePerGas": "0x0b",
            "withdrawalsRoot": "0x56e81f171bcc55a6ff8345e692c0f86e5b48e01b996cadc001622fb5e363b421",
            "blobGasUsed": "0x00",
            "excessBlobGas": "0x00",
            "parentBeaconBlockRoot": "0x0000000000000000000000000000000000000000000000000000000000000000",
            "hash": "0x5ce16263c436a3c3862481c7dec760d6fac5c912993917602dd291c03d2f19ea"
        },
        "pre": {
            "0x000f3df6d732807ef1319fb7b8bb8522d0beac02": {
                "nonce": "0x01",
                "balance": "0x00",
                "code": "0x3373fffffffffffffffffffffffffffffffffffffffe14604d57602036146024575f5ffd5b5f35801560495762001fff810690815414603c575f5ffd5b62001fff01545f5260205ff35b5f5ffd5b62001fff42064281555f359062001fff015500",
                "storage": {}
            },
            "0x4a20a569d7008020c8cd630cff560f3e627522d3": {
                "nonce": "0x00",
                "balance": "0x01312d00",
                "code": "0x6000600060006000600073bb09bb747bb11897420c59cacb65853142c67bb75af250600160015500",
                "storage": {}
            },
            "0xbb09bb747bb11897420c59cacb65853142c67bb7": {
                "nonce": "0x00",
                "balance": "0x01312d00",
                "code": "0x600160005401600052690fffffffffffffffffff610402600051040260025260006000690fffffffffffffffffff61040260005104026000306104005a03fa00",
                "storage": {}
            },
            "0xebaf50debf10e08302fe4280c32df010463ca297": {
                "nonce": "0x00",
                "balance": "0x0de0b6b3a7640000",
                "code": "0x",
                "storage": {}
            }
        },
        "postState": {
            "0x000f3df6d732807ef1319fb7b8bb8522d0beac02": {
                "nonce": "0x01",
                "balance": "0x00",
                "code": "0x3373fffffffffffffffffffffffffffffffffffffffe14604d57602036146024575f5ffd5b5f35801560495762001fff810690815414603c575f5ffd5b62001fff01545f5260205ff35b5f5ffd5b62001fff42064281555f359062001fff015500",
                "storage": {
                    "0x03e8": "0x03e8"
                }
            },
            "0x4a20a569d7008020c8cd630cff560f3e627522d3": {
                "nonce": "0x00",
                "balance": "0x0132b3a0",
                "code": "0x6000600060006000600073bb09bb747bb11897420c59cacb65853142c67bb75af250600160015500",
                "storage": {
                    "0x01": "0x01"
                }
            },
            "0xbb09bb747bb11897420c59cacb65853142c67bb7": {
                "nonce": "0x00",
                "balance": "0x01312d00",
                "code": "0x600160005401600052690fffffffffffffffffff610402600051040260025260006000690fffffffffffffffffff61040260005104026000306104005a03fa00",
                "storage": {}
            },
            "0xebaf50debf10e08302fe4280c32df010463ca297": {
                "nonce": "0x01",
                "balance": "0x0de0b5d20ad1c9e8",
                "code": "0x",
                "storage": {}
            }
        },
        "lastblockhash": "0x2ca7cfc4416c572c51734b5b3d0dedfc12778d3747d163e1391a0dc16f398711",
        "config": {
            "network": "Cancun",
            "chainid": "0x01",
            "blobSchedule": {
                "Cancun": {
                    "target": "0x03",
                    "max": "0x06",
                    "baseFeeUpdateFraction": "0x32f0ed"
                }
            }
        },
        "genesisRLP": "0xf9023df90237a00000000000000000000000000000000000000000000000000000000000000000a01dcc4de8dec75d7aab85b567b6ccd41ad312451b948a7413f0a142fd40d49347940000000000000000000000000000000000000000a08110ff27f428fd63074c11116fe381c80660073ea3b0e99e941e08180ae89758a056e81f171bcc55a6ff8345e692c0f86e5b48e01b996cadc001622fb5e363b421a056e81f171bcc55a6ff8345e692c0f86e5b48e01b996cadc001622fb5e363b421b9010000000000000000000000000000000000000000000000000000000000000000000000000000000000000000000000000000000000000000000000000000000000000000000000000000000000000000000000000000000000000000000000000000000000000000000000000000000000000000000000000000000000000000000000000000000000000000000000000000000000000000000000000000000000000000000000000000000000000000000000000000000000000000000000000000000000000000000000000000000000000000000000000000000000000000000000000000000000000000000000000000000000000000000000000000000000808085199c82cc00808000a000000000000000000000000000000000000000000000000000000000000000008800000000000000000ba056e81f171bcc55a6ff8345e692c0f86e5b48e01b996cadc001622fb5e363b4218080a00000000000000000000000000000000000000000000000000000000000000000c0c0c0",
        "blocks": [
            {
                "blockHeader": {
                    "parentHash": "0x5ce16263c436a3c3862481c7dec760d6fac5c912993917602dd291c03d2f19ea",
                    "uncleHash": "0x1dcc4de8dec75d7aab85b567b6ccd41ad312451b948a7413f0a142fd40d49347",
                    "coinbase": "0x2adc25665018aa1fe0e6bc666dac8fc2697ff9ba",
                    "stateRoot": "0xcb72c166b725b95031c2c6210916920c1070cb1fe6047caf1a7727c442a76a25",
                    "transactionsTrie": "0xdc7d0fece0ad777544e1b779a42b6501ea58db1cb6a0b984186994d04b17a667",
                    "receiptTrie": "0xf2b2e4d074becfd24e284fa0176bb0f2ef1ee4daa5aebd24d2d96e701872baa7",
                    "bloom": "0x00000000000000000000000000000000000000000000000000000000000000000000000000000000000000000000000000000000000000000000000000000000000000000000000000000000000000000000000000000000000000000000000000000000000000000000000000000000000000000000000000000000000000000000000000000000000000000000000000000000000000000000000000000000000000000000000000000000000000000000000000000000000000000000000000000000000000000000000000000000000000000000000000000000000000000000000000000000000000000000000000000000000000000000000000000000",
                    "difficulty": "0x00",
                    "number": "0x01",
                    "gasLimit": "0x199c82cc00",
                    "gasUsed": "0x168fa8118c",
                    "timestamp": "0x03e8",
                    "extraData": "0x00",
                    "mixHash": "0x0000000000000000000000000000000000000000000000000000000000020000",
                    "nonce": "0x0000000000000000",
                    "baseFeePerGas": "0x0a",
                    "withdrawalsRoot": "0x56e81f171bcc55a6ff8345e692c0f86e5b48e01b996cadc001622fb5e363b421",
                    "blobGasUsed": "0x00",
                    "excessBlobGas": "0x00",
                    "parentBeaconBlockRoot": "0x0000000000000000000000000000000000000000000000000000000000000000",
                    "hash": "0x2ca7cfc4416c572c51734b5b3d0dedfc12778d3747d163e1391a0dc16f398711"
                },
                "transactions": [
                    {
                        "type": "0x00",
                        "chainId": "0x01",
                        "nonce": "0x00",
                        "gasPrice": "0x0a",
                        "gasLimit": "0x174876e800",
                        "to": "0x4a20a569d7008020c8cd630cff560f3e627522d3",
                        "value": "0x0186a0",
                        "data": "0x",
                        "v": "0x25",
                        "r": "0x484a36d746011b78f946a51459d8313b502db4eef9dec31a499662f99fcd367b",
                        "s": "0x5bfdaa5797b7276873fe1d9175b3a8d2f1beb2b29f444ed0e22e3acb352f1654",
                        "sender": "0xebaf50debf10e08302fe4280c32df010463ca297"
                    }
                ],
                "uncleHeaders": [],
                "withdrawals": [],
                "receipts": [
                    {
                        "transactionHash": "0xb752026c540b149caf98c7d42a1c772785c24115b7158e49a7aae97563c03761",
                        "type": "0x00",
                        "cumulativeGasUsed": "0x168fa8118c",
                        "bloom": "0x00000000000000000000000000000000000000000000000000000000000000000000000000000000000000000000000000000000000000000000000000000000000000000000000000000000000000000000000000000000000000000000000000000000000000000000000000000000000000000000000000000000000000000000000000000000000000000000000000000000000000000000000000000000000000000000000000000000000000000000000000000000000000000000000000000000000000000000000000000000000000000000000000000000000000000000000000000000000000000000000000000000000000000000000000000000",
                        "logs": [],
                        "status": true,
                        "rlp": "0xf9010b0185168fa8118cb9010000000000000000000000000000000000000000000000000000000000000000000000000000000000000000000000000000000000000000000000000000000000000000000000000000000000000000000000000000000000000000000000000000000000000000000000000000000000000000000000000000000000000000000000000000000000000000000000000000000000000000000000000000000000000000000000000000000000000000000000000000000000000000000000000000000000000000000000000000000000000000000000000000000000000000000000000000000000000000000000000000000000000000000000000000000000c0"
                    }
                ],
                "rlp": "0xf902acf9023ea05ce16263c436a3c3862481c7dec760d6fac5c912993917602dd291c03d2f19eaa01dcc4de8dec75d7aab85b567b6ccd41ad312451b948a7413f0a142fd40d49347942adc25665018aa1fe0e6bc666dac8fc2697ff9baa0cb72c166b725b95031c2c6210916920c1070cb1fe6047caf1a7727c442a76a25a0dc7d0fece0ad777544e1b779a42b6501ea58db1cb6a0b984186994d04b17a667a0f2b2e4d074becfd24e284fa0176bb0f2ef1ee4daa5aebd24d2d96e701872baa7b9010000000000000000000000000000000000000000000000000000000000000000000000000000000000000000000000000000000000000000000000000000000000000000000000000000000000000000000000000000000000000000000000000000000000000000000000000000000000000000000000000000000000000000000000000000000000000000000000000000000000000000000000000000000000000000000000000000000000000000000000000000000000000000000000000000000000000000000000000000000000000000000000000000000000000000000000000000000000000000000000000000000000000000000000000000000000800185199c82cc0085168fa8118c8203e800a000000000000000000000000000000000000000000000000000000000000200008800000000000000000aa056e81f171bcc55a6ff8345e692c0f86e5b48e01b996cadc001622fb5e363b4218080a00000000000000000000000000000000000000000000000000000000000000000f867f865800a85174876e800944a20a569d7008020c8cd630cff560f3e627522d3830186a08025a0484a36d746011b78f946a51459d8313b502db4eef9dec31a499662f99fcd367ba05bfdaa5797b7276873fe1d9175b3a8d2f1beb2b29f444ed0e22e3acb352f1654c0c0",
                "blocknumber": "1"
            }
        ],
        "sealEngine": "NoProof",
        "_info": {
            "hash": "0x162591d7b27d7932a1ba9f65d039249a3ec3284d23754a5b1ba1082a51eb05ba",
            "fixture-format": "blockchain_test",
            "comment": "`execution-specs` generated test",
            "filling-transition-tool": "2.19.0",
            "description": "Test_static_call_recursive_bomb0_oog_at_max_call_depth.",
            "url": "https://github.com/ethereum/execution-specs/blob/tests-sn\u00f8bal-devnet-4@v1.0.0/tests/ported_static/stStaticCall/test_static_call_recursive_bomb0_oog_at_max_call_depth.py#L25",
            "metadata": {
                "opcode_count": {}
            }
        }
    }
}