{
    "tests/ported_static/stCallDelegateCodesHomestead/test_callcodecallcodecall_110.py::test_callcodecallcodecall_110[fork_Cancun-blockchain_test_from_state_test]": {
        "network": "Cancun",
        "genesisBlockHeader": {
            "parentHash": "0x0000000000000000000000000000000000000000000000000000000000000000",
            "uncleHash": "0x1dcc4de8dec75d7aab85b567b6ccd41ad312451b948a7413f0a142fd40d49347",
            "coinbase": "0x0000000000000000000000000000000000000000",
            "stateRoot": "0xd0258ecac5dfb05e5de019e1801e8bc6927b8fef1e9f1c3337be9a684f197829",
            "transactionsTrie": "0x56e81f171bcc55a6ff8345e692c0f86e5b48e01b996cadc001622fb5e363b421",
            "receiptTrie": "0x56e81f171bcc55a6ff8345e692c0f86e5b48e01b996cadc001622fb5e363b421",
            "bloom": "0x00000000000000000000000000000000000000000000000000000000000000000000000000000000000000000000000000000000000000000000000000000000000000000000000000000000000000000000000000000000000000000000000000000000000000000000000000000000000000000000000000000000000000000000000000000000000000000000000000000000000000000000000000000000000000000000000000000000000000000000000000000000000000000000000000000000000000000000000000000000000000000000000000000000000000000000000000000000000000000000000000000000000000000000000000000000",
            "difficulty": "0x00",
            "number": "0x00",
            "gasLimit": "0x01c9c380",
            "gasUsed": "0x00",
            "timestamp": "0x00",
            "extraData": "0x00",
            "mixHash": "0x0000000000000000000000000000000000000000000000000000000000000000",
            "nonce": "0x0000000000000000",
            "baseFeePerGas": "0x0b",
            "withdrawalsRoot": "0x56e81f171bcc55a6ff8345e692c0f86e5b48e01b996cadc001622fb5e363b421",
            "blobGasUsed": "0x00",
            "excessBlobGas": "0x00",
            "parentBeaconBlockRoot": "0x0000000000000000000000000000000000000000000000000000000000000000",
            "hash": "0xcf374521a9f058accf14c1b351f596b185f70830de6a9d1a018975ab1aa7cffb"
        },
        "pre": {
            "0x000f3df6d732807ef1319fb7b8bb8522d0beac02": {
                "nonce": "0x01",
                "balance": "0x00",
                "code": "0x3373fffffffffffffffffffffffffffffffffffffffe14604d57602036146024575f5ffd5b5f35801560495762001fff810690815414603c575f5ffd5b62001fff01545f5260205ff35b5f5ffd5b62001fff42064281555f359062001fff015500",
                "storage": {}
            },
            "0xd26e26d5a4796d450bfa296d70c05f02dbc1a4b9": {
                "nonce": "0x00",
                "balance": "0x0de0b6b3a7640000",
                "code": "0x604060006040600073669e33b1aa30351139b73c3942acde1b09e75bcd62055730f460005500",
                "storage": {}
            },
            "0x669e33b1aa30351139b73c3942acde1b09e75bcd": {
                "nonce": "0x00",
                "balance": "0x0de0b6b3a7640000",
                "code": "0x60406000604060007378b5bd809b0b6fe0b8e371f286d7aa6a3b930718620493e0f46001553360055500",
                "storage": {}
            },
            "0x78b5bd809b0b6fe0b8e371f286d7aa6a3b930718": {
                "nonce": "0x00",
                "balance": "0x0de0b6b3a7640000",
                "code": "0x60406000604060006001737e63847aad8ca50fb7c04777dce6871a6bf8de0c6203d090f16002553360065500",
                "storage": {}
            },
            "0x7e63847aad8ca50fb7c04777dce6871a6bf8de0c": {
                "nonce": "0x00",
                "balance": "0x00",
                "code": "0x600160035533600455346007553061014a553261014c55366101505538610152553a6101545500",
                "storage": {}
            },
            "0xebaf50debf10e08302fe4280c32df010463ca297": {
                "nonce": "0x00",
                "balance": "0x0de0b6b3a7640000",
                "code": "0x",
                "storage": {}
            }
        },
        "postState": {
            "0x000f3df6d732807ef1319fb7b8bb8522d0beac02": {
                "nonce": "0x01",
                "balance": "0x00",
                "code": "0x3373fffffffffffffffffffffffffffffffffffffffe14604d57602036146024575f5ffd5b5f35801560495762001fff810690815414603c575f5ffd5b62001fff01545f5260205ff35b5f5ffd5b62001fff42064281555f359062001fff015500",
                "storage": {
                    "0x03e8": "0x03e8"
                }
            },
            "0xd26e26d5a4796d450bfa296d70c05f02dbc1a4b9": {
                "nonce": "0x00",
                "balance": "0x0de0b6b3a763ffff",
                "code": "0x604060006040600073669e33b1aa30351139b73c3942acde1b09e75bcd62055730f460005500",
                "storage": {
                    "0x02": "0x01",
                    "0x06": "0xebaf50debf10e08302fe4280c32df010463ca297",
                    "0x01": "0x01",
                    "0x05": "0xebaf50debf10e08302fe4280c32df010463ca297",
                    "0x00": "0x01"
                }
            },
            "0x669e33b1aa30351139b73c3942acde1b09e75bcd": {
                "nonce": "0x00",
                "balance": "0x0de0b6b3a7640000",
                "code": "0x60406000604060007378b5bd809b0b6fe0b8e371f286d7aa6a3b930718620493e0f46001553360055500",
                "storage": {}
            },
            "0x78b5bd809b0b6fe0b8e371f286d7aa6a3b930718": {
                "nonce": "0x00",
                "balance": "0x0de0b6b3a7640000",
                "code": "0x60406000604060006001737e63847aad8ca50fb7c04777dce6871a6bf8de0c6203d090f16002553360065500",
                "storage": {}
            },
            "0x7e63847aad8ca50fb7c04777dce6871a6bf8de0c": {
                "nonce": "0x00",
                "balance": "0x01",
                "code": "0x600160035533600455346007553061014a553261014c55366101505538610152553a6101545500",
                "storage": {
                    "0x03": "0x01",
                    "0x04": "0xd26e26d5a4796d450bfa296d70c05f02dbc1a4b9",
                    "0x07": "0x01",
                    "0x014a": "0x7e63847aad8ca50fb7c04777dce6871a6bf8de0c",
                    "0x014c": "0xebaf50debf10e08302fe4280c32df010463ca297",
                    "0x0150": "0x40",
                    "0x0152": "0x27",
                    "0x0154": "0x0a"
                }
            },
            "0xebaf50debf10e08302fe4280c32df010463ca297": {
                "nonce": "0x01",
                "balance": "0x0de0b6b3a732b95a",
                "code": "0x",
                "storage": {}
            }
        },
        "lastblockhash": "0xc7b9683ff7de3ee1edf1f65709b6d14f71d00104e21697766d4d58b0b2fc2ed3",
        "config": {
            "network": "Cancun",
            "chainid": "0x01",
            "blobSchedule": {
                "Cancun": {
                    "target": "0x03",
                    "max": "0x06",
                    "baseFeeUpdateFraction": "0x32f0ed"
                }
            }
        },
        "genesisRLP": "0xf9023cf90236a00000000000000000000000000000000000000000000000000000000000000000a01dcc4de8dec75d7aab85b567b6ccd41ad312451b948a7413f0a142fd40d49347940000000000000000000000000000000000000000a0d0258ecac5dfb05e5de019e1801e8bc6927b8fef1e9f1c3337be9a684f197829a056e81f171bcc55a6ff8345e692c0f86e5b48e01b996cadc001622fb5e363b421a056e81f171bcc55a6ff8345e692c0f86e5b48e01b996cadc001622fb5e363b421b901000000000000000000000000000000000000000000000000000000000000000000000000000000000000000000000000000000000000000000000000000000000000000000000000000000000000000000000000000000000000000000000000000000000000000000000000000000000000000000000000000000000000000000000000000000000000000000000000000000000000000000000000000000000000000000000000000000000000000000000000000000000000000000000000000000000000000000000000000000000000000000000000000000000000000000000000000000000000000000000000000000000000000000000000000000000080808401c9c380808000a000000000000000000000000000000000000000000000000000000000000000008800000000000000000ba056e81f171bcc55a6ff8345e692c0f86e5b48e01b996cadc001622fb5e363b4218080a00000000000000000000000000000000000000000000000000000000000000000c0c0c0",
        "blocks": [
            {
                "blockHeader": {
                    "parentHash": "0xcf374521a9f058accf14c1b351f596b185f70830de6a9d1a018975ab1aa7cffb",
                    "uncleHash": "0x1dcc4de8dec75d7aab85b567b6ccd41ad312451b948a7413f0a142fd40d49347",
                    "coinbase": "0x2adc25665018aa1fe0e6bc666dac8fc2697ff9ba",
                    "stateRoot": "0x9e9382257802968c9d5949ceef82c68a0445fc5cd1bd20c9499473a281848f32",
                    "transactionsTrie": "0x5d651468ceb846ffa0e6312f101c84e76bf3b33aabebf053b91d78f1f3c22ed8",
                    "receiptTrie": "0xc7e5134004e1a60e963d51b332a9ea8e8dea062afb066b117038c8b5454bf748",
                    "bloom": "0x00000000000000000000000000000000000000000000000000000000000000000000000000000000000000000000000000000000000000000000000000000000000000000000000000000000000000000000000000000000000000000000000000000000000000000000000000000000000000000000000000000000000000000000000000000000000000000000000000000000000000000000000000000000000000000000000000000000000000000000000000000000000000000000000000000000000000000000000000000000000000000000000000000000000000000000000000000000000000000000000000000000000000000000000000000000",
                    "difficulty": "0x00",
                    "number": "0x01",
                    "gasLimit": "0x01c9c380",
                    "gasUsed": "0x04ed77",
                    "timestamp": "0x03e8",
                    "extraData": "0x00",
                    "mixHash": "0x0000000000000000000000000000000000000000000000000000000000020000",
                    "nonce": "0x0000000000000000",
                    "baseFeePerGas": "0x0a",
                    "withdrawalsRoot": "0x56e81f171bcc55a6ff8345e692c0f86e5b48e01b996cadc001622fb5e363b421",
                    "blobGasUsed": "0x00",
                    "excessBlobGas": "0x00",
                    "parentBeaconBlockRoot": "0x0000000000000000000000000000000000000000000000000000000000000000",
                    "hash": "0xc7b9683ff7de3ee1edf1f65709b6d14f71d00104e21697766d4d58b0b2fc2ed3"
                },
                "transactions": [
                    {
                        "type": "0x00",
                        "chainId": "0x01",
                        "nonce": "0x00",
                        "gasPrice": "0x0a",
                        "gasLimit": "0x2dc6c0",
                        "to": "0xd26e26d5a4796d450bfa296d70c05f02dbc1a4b9",
                        "value": "0x00",
                        "data": "0x",
                        "v": "0x26",
                        "r": "0x5dd31450d322124c6ccab3d350ca899338a7a0a34063420d8b4f8d08570baeca",
                        "s": "0x7d4a95a110df469b37e56e4ebe2ac1921333369fdb827ef590e4047aeded5fd7",
                        "sender": "0xebaf50debf10e08302fe4280c32df010463ca297"
                    }
                ],
                "uncleHeaders": [],
                "withdrawals": [],
                "receipts": [
                    {
                        "transactionHash": "0x371777bc9a489dda318dfb6e6d730b9c5d0ded6ea12e77ed3fb061e963bf0286",
                        "type": "0x00",
                        "cumulativeGasUsed": "0x04ed77",
                        "bloom": "0x00000000000000000000000000000000000000000000000000000000000000000000000000000000000000000000000000000000000000000000000000000000000000000000000000000000000000000000000000000000000000000000000000000000000000000000000000000000000000000000000000000000000000000000000000000000000000000000000000000000000000000000000000000000000000000000000000000000000000000000000000000000000000000000000000000000000000000000000000000000000000000000000000000000000000000000000000000000000000000000000000000000000000000000000000000000",
                        "logs": [],
                        "status": true,
                        "rlp": "0xf90109018304ed77b9010000000000000000000000000000000000000000000000000000000000000000000000000000000000000000000000000000000000000000000000000000000000000000000000000000000000000000000000000000000000000000000000000000000000000000000000000000000000000000000000000000000000000000000000000000000000000000000000000000000000000000000000000000000000000000000000000000000000000000000000000000000000000000000000000000000000000000000000000000000000000000000000000000000000000000000000000000000000000000000000000000000000000000000000000000000000c0"
                    }
                ],
                "rlp": "0xf902a4f9023ba0cf374521a9f058accf14c1b351f596b185f70830de6a9d1a018975ab1aa7cffba01dcc4de8dec75d7aab85b567b6ccd41ad312451b948a7413f0a142fd40d49347942adc25665018aa1fe0e6bc666dac8fc2697ff9baa09e9382257802968c9d5949ceef82c68a0445fc5cd1bd20c9499473a281848f32a05d651468ceb846ffa0e6312f101c84e76bf3b33aabebf053b91d78f1f3c22ed8a0c7e5134004e1a60e963d51b332a9ea8e8dea062afb066b117038c8b5454bf748b901000000000000000000000000000000000000000000000000000000000000000000000000000000000000000000000000000000000000000000000000000000000000000000000000000000000000000000000000000000000000000000000000000000000000000000000000000000000000000000000000000000000000000000000000000000000000000000000000000000000000000000000000000000000000000000000000000000000000000000000000000000000000000000000000000000000000000000000000000000000000000000000000000000000000000000000000000000000000000000000000000000000000000000000000000000000080018401c9c3808304ed778203e800a000000000000000000000000000000000000000000000000000000000000200008800000000000000000aa056e81f171bcc55a6ff8345e692c0f86e5b48e01b996cadc001622fb5e363b4218080a00000000000000000000000000000000000000000000000000000000000000000f862f860800a832dc6c094d26e26d5a4796d450bfa296d70c05f02dbc1a4b9808026a05dd31450d322124c6ccab3d350ca899338a7a0a34063420d8b4f8d08570baecaa07d4a95a110df469b37e56e4ebe2ac1921333369fdb827ef590e4047aeded5fd7c0c0",
                "blocknumber": "1"
            }
        ],
        "sealEngine": "NoProof",
        "_info": {
            "hash": "0x467a2cd60d146db4686f343b15d320bc582c5a30a9831210b898e475fbd5448d",
            "fixture-format": "blockchain_test",
            "comment": "`execution-specs` generated test",
            "filling-transition-tool": "2.19.0",
            "description": "Test_callcodecallcodecall_110.",
            "url": "https://github.com/ethereum/execution-specs/blob/tests-bal@v5.7.0/tests/ported_static/stCallDelegateCodesHomestead/test_callcodecallcodecall_110.py#L25",
            "metadata": {
                "opcode_count": {}
            }
        }
    }
}