{
    "tests/homestead/identity_precompile/test_identity.py::test_identity_return_overwrite[fork_Shanghai-call_opcode_CALL-blockchain_test_from_state_test]": {
        "network": "Shanghai",
        "genesisBlockHeader": {
            "parentHash": "0x0000000000000000000000000000000000000000000000000000000000000000",
            "uncleHash": "0x1dcc4de8dec75d7aab85b567b6ccd41ad312451b948a7413f0a142fd40d49347",
            "coinbase": "0x0000000000000000000000000000000000000000",
            "stateRoot": "0xa55ba51d9647e5ab3340c91d348529c9f3821a7aaad27a265512e63a8f610337",
            "transactionsTrie": "0x56e81f171bcc55a6ff8345e692c0f86e5b48e01b996cadc001622fb5e363b421",
            "receiptTrie": "0x56e81f171bcc55a6ff8345e692c0f86e5b48e01b996cadc001622fb5e363b421",
            "bloom": "0x00000000000000000000000000000000000000000000000000000000000000000000000000000000000000000000000000000000000000000000000000000000000000000000000000000000000000000000000000000000000000000000000000000000000000000000000000000000000000000000000000000000000000000000000000000000000000000000000000000000000000000000000000000000000000000000000000000000000000000000000000000000000000000000000000000000000000000000000000000000000000000000000000000000000000000000000000000000000000000000000000000000000000000000000000000000",
            "difficulty": "0x00",
            "number": "0x00",
            "gasLimit": "0x07270e00",
            "gasUsed": "0x00",
            "timestamp": "0x00",
            "extraData": "0x00",
            "mixHash": "0x0000000000000000000000000000000000000000000000000000000000000000",
            "nonce": "0x0000000000000000",
            "baseFeePerGas": "0x07",
            "withdrawalsRoot": "0x56e81f171bcc55a6ff8345e692c0f86e5b48e01b996cadc001622fb5e363b421",
            "hash": "0x3c301fba87d1a1b5b4a28f14ec0c329dc9fb1d525a0dba892179d7444a91e972"
        },
        "pre": {
            "0x8f38ce870d0e867a05d1bc903da57c12038de136": {
                "nonce": "0x01",
                "balance": "0x00",
                "code": "0x60016000536002600153600360025360046003536004600160046000600060045af13d600060003e59600020600155",
                "storage": {}
            },
            "0x1ad9bc24818784172ff393bb6f89f094d4d2ca29": {
                "nonce": "0x00",
                "balance": "0x3635c9adc5dea00000",
                "code": "0x",
                "storage": {}
            }
        },
        "postState": {
            "0x8f38ce870d0e867a05d1bc903da57c12038de136": {
                "nonce": "0x01",
                "balance": "0x00",
                "code": "0x60016000536002600153600360025360046003536004600160046000600060045af13d600060003e59600020600155",
                "storage": {
                    "0x01": "0x52d7963d9a152455cd39d5b7efa696eb4d4fac938d51cf5d779e3792944aff7b"
                }
            },
            "0x1ad9bc24818784172ff393bb6f89f094d4d2ca29": {
                "nonce": "0x01",
                "balance": "0x3635c9adc5de99633a",
                "code": "0x",
                "storage": {}
            },
            "0x2adc25665018aa1fe0e6bc666dac8fc2697ff9ba": {
                "nonce": "0x00",
                "balance": "0x01fbd5",
                "code": "0x",
                "storage": {}
            }
        },
        "lastblockhash": "0xc271cfb57365a0c4547840f6137ecf9be85c83877d6c16e71b1e10b8001c2af7",
        "config": {
            "network": "Shanghai",
            "chainid": "0x01"
        },
        "genesisRLP": "0xf90219f90213a00000000000000000000000000000000000000000000000000000000000000000a01dcc4de8dec75d7aab85b567b6ccd41ad312451b948a7413f0a142fd40d49347940000000000000000000000000000000000000000a0a55ba51d9647e5ab3340c91d348529c9f3821a7aaad27a265512e63a8f610337a056e81f171bcc55a6ff8345e692c0f86e5b48e01b996cadc001622fb5e363b421a056e81f171bcc55a6ff8345e692c0f86e5b48e01b996cadc001622fb5e363b421b901000000000000000000000000000000000000000000000000000000000000000000000000000000000000000000000000000000000000000000000000000000000000000000000000000000000000000000000000000000000000000000000000000000000000000000000000000000000000000000000000000000000000000000000000000000000000000000000000000000000000000000000000000000000000000000000000000000000000000000000000000000000000000000000000000000000000000000000000000000000000000000000000000000000000000000000000000000000000000000000000000000000000000000000000000000000080808407270e00808000a0000000000000000000000000000000000000000000000000000000000000000088000000000000000007a056e81f171bcc55a6ff8345e692c0f86e5b48e01b996cadc001622fb5e363b421c0c0c0",
        "blocks": [
            {
                "blockHeader": {
                    "parentHash": "0x3c301fba87d1a1b5b4a28f14ec0c329dc9fb1d525a0dba892179d7444a91e972",
                    "uncleHash": "0x1dcc4de8dec75d7aab85b567b6ccd41ad312451b948a7413f0a142fd40d49347",
                    "coinbase": "0x2adc25665018aa1fe0e6bc666dac8fc2697ff9ba",
                    "stateRoot": "0xd6753d611087be39c8a5c5dd228997329ae091db1bddc28da17282d3660fb1c3",
                    "transactionsTrie": "0xbad8ac489bceb7ff7f6ad429e4a112acff2c2d45b3e06ba1d874c20d3721b900",
                    "receiptTrie": "0xd38af1b981fc250c57a8c5eec1c015d3dd7300d1cc3f45002f2d981da3c8ffde",
                    "bloom": "0x00000000000000000000000000000000000000000000000000000000000000000000000000000000000000000000000000000000000000000000000000000000000000000000000000000000000000000000000000000000000000000000000000000000000000000000000000000000000000000000000000000000000000000000000000000000000000000000000000000000000000000000000000000000000000000000000000000000000000000000000000000000000000000000000000000000000000000000000000000000000000000000000000000000000000000000000000000000000000000000000000000000000000000000000000000000",
                    "difficulty": "0x00",
                    "number": "0x01",
                    "gasLimit": "0x07270e00",
                    "gasUsed": "0xa947",
                    "timestamp": "0x03e8",
                    "extraData": "0x00",
                    "mixHash": "0x0000000000000000000000000000000000000000000000000000000000000000",
                    "nonce": "0x0000000000000000",
                    "baseFeePerGas": "0x07",
                    "withdrawalsRoot": "0x56e81f171bcc55a6ff8345e692c0f86e5b48e01b996cadc001622fb5e363b421",
                    "hash": "0xc271cfb57365a0c4547840f6137ecf9be85c83877d6c16e71b1e10b8001c2af7"
                },
                "transactions": [
                    {
                        "type": "0x00",
                        "chainId": "0x01",
                        "nonce": "0x00",
                        "gasPrice": "0x0a",
                        "gasLimit": "0x0186a0",
                        "to": "0x8f38ce870d0e867a05d1bc903da57c12038de136",
                        "value": "0x00",
                        "data": "0x",
                        "v": "0x26",
                        "r": "0x7d7ebd56616af083c8be70615d33cf23be1e71b357154d364786fbdf20136a30",
                        "s": "0x509adb96bf0fd4e3de3e2f5ded07569ea7e053d799963953cc18f9593e4016c6",
                        "sender": "0x1ad9bc24818784172ff393bb6f89f094d4d2ca29"
                    }
                ],
                "uncleHeaders": [],
                "withdrawals": [],
                "receipts": [
                    {
                        "transactionHash": "0x979323c08baf656a3236672072d8dda0a7b38f4f249b9534f2d81dacc0fce780",
                        "type": "0x00",
                        "cumulativeGasUsed": "0xa947",
                        "bloom": "0x00000000000000000000000000000000000000000000000000000000000000000000000000000000000000000000000000000000000000000000000000000000000000000000000000000000000000000000000000000000000000000000000000000000000000000000000000000000000000000000000000000000000000000000000000000000000000000000000000000000000000000000000000000000000000000000000000000000000000000000000000000000000000000000000000000000000000000000000000000000000000000000000000000000000000000000000000000000000000000000000000000000000000000000000000000000",
                        "logs": [],
                        "status": true,
                        "rlp": "0xf901080182a947b9010000000000000000000000000000000000000000000000000000000000000000000000000000000000000000000000000000000000000000000000000000000000000000000000000000000000000000000000000000000000000000000000000000000000000000000000000000000000000000000000000000000000000000000000000000000000000000000000000000000000000000000000000000000000000000000000000000000000000000000000000000000000000000000000000000000000000000000000000000000000000000000000000000000000000000000000000000000000000000000000000000000000000000000000000000000000c0"
                    }
                ],
                "rlp": "0xf90280f90217a03c301fba87d1a1b5b4a28f14ec0c329dc9fb1d525a0dba892179d7444a91e972a01dcc4de8dec75d7aab85b567b6ccd41ad312451b948a7413f0a142fd40d49347942adc25665018aa1fe0e6bc666dac8fc2697ff9baa0d6753d611087be39c8a5c5dd228997329ae091db1bddc28da17282d3660fb1c3a0bad8ac489bceb7ff7f6ad429e4a112acff2c2d45b3e06ba1d874c20d3721b900a0d38af1b981fc250c57a8c5eec1c015d3dd7300d1cc3f45002f2d981da3c8ffdeb901000000000000000000000000000000000000000000000000000000000000000000000000000000000000000000000000000000000000000000000000000000000000000000000000000000000000000000000000000000000000000000000000000000000000000000000000000000000000000000000000000000000000000000000000000000000000000000000000000000000000000000000000000000000000000000000000000000000000000000000000000000000000000000000000000000000000000000000000000000000000000000000000000000000000000000000000000000000000000000000000000000000000000000000000000000000080018407270e0082a9478203e800a0000000000000000000000000000000000000000000000000000000000000000088000000000000000007a056e81f171bcc55a6ff8345e692c0f86e5b48e01b996cadc001622fb5e363b421f862f860800a830186a0948f38ce870d0e867a05d1bc903da57c12038de136808026a07d7ebd56616af083c8be70615d33cf23be1e71b357154d364786fbdf20136a30a0509adb96bf0fd4e3de3e2f5ded07569ea7e053d799963953cc18f9593e4016c6c0c0",
                "blocknumber": "1"
            }
        ],
        "sealEngine": "NoProof",
        "_info": {
            "hash": "0x52e3d2b1e76fb70ba6b7dbd951c792ff6d24f94a82d86ef7e7eadb8d59a56aa9",
            "fixture-format": "blockchain_test",
            "comment": "`execution-specs` generated test",
            "filling-transition-tool": "2.19.0",
            "description": "Test the return data of the identity precompile overwriting its input.",
            "url": "https://github.com/ethereum/execution-specs/blob/tests-bal@v5.6.0/tests/homestead/identity_precompile/test_identity.py#L15",
            "metadata": {
                "opcode_count": {}
            }
        }
    },
    "tests/homestead/identity_precompile/test_identity.py::test_identity_return_overwrite[fork_Shanghai-call_opcode_CALLCODE-blockchain_test_from_state_test]": {
        "network": "Shanghai",
        "genesisBlockHeader": {
            "parentHash": "0x0000000000000000000000000000000000000000000000000000000000000000",
            "uncleHash": "0x1dcc4de8dec75d7aab85b567b6ccd41ad312451b948a7413f0a142fd40d49347",
            "coinbase": "0x0000000000000000000000000000000000000000",
            "stateRoot": "0xd00797cdcaf4d5e59630f57f6b275cc9b6a85a1631163a8555a230f119bfbabc",
            "transactionsTrie": "0x56e81f171bcc55a6ff8345e692c0f86e5b48e01b996cadc001622fb5e363b421",
            "receiptTrie": "0x56e81f171bcc55a6ff8345e692c0f86e5b48e01b996cadc001622fb5e363b421",
            "bloom": "0x00000000000000000000000000000000000000000000000000000000000000000000000000000000000000000000000000000000000000000000000000000000000000000000000000000000000000000000000000000000000000000000000000000000000000000000000000000000000000000000000000000000000000000000000000000000000000000000000000000000000000000000000000000000000000000000000000000000000000000000000000000000000000000000000000000000000000000000000000000000000000000000000000000000000000000000000000000000000000000000000000000000000000000000000000000000",
            "difficulty": "0x00",
            "number": "0x00",
            "gasLimit": "0x07270e00",
            "gasUsed": "0x00",
            "timestamp": "0x00",
            "extraData": "0x00",
            "mixHash": "0x0000000000000000000000000000000000000000000000000000000000000000",
            "nonce": "0x0000000000000000",
            "baseFeePerGas": "0x07",
            "withdrawalsRoot": "0x56e81f171bcc55a6ff8345e692c0f86e5b48e01b996cadc001622fb5e363b421",
            "hash": "0xc65b1573b8c025a26ec4f439010fc6dcc13c1a55f289fd4207f305baae6037aa"
        },
        "pre": {
            "0x15294bddb3e2b8af5fe463e98b934420ef76c27e": {
                "nonce": "0x01",
                "balance": "0x00",
                "code": "0x60016000536002600153600360025360046003536004600160046000600060045af23d600060003e59600020600155",
                "storage": {}
            },
            "0x1ad9bc24818784172ff393bb6f89f094d4d2ca29": {
                "nonce": "0x00",
                "balance": "0x3635c9adc5dea00000",
                "code": "0x",
                "storage": {}
            }
        },
        "postState": {
            "0x15294bddb3e2b8af5fe463e98b934420ef76c27e": {
                "nonce": "0x01",
                "balance": "0x00",
                "code": "0x60016000536002600153600360025360046003536004600160046000600060045af23d600060003e59600020600155",
                "storage": {
                    "0x01": "0x52d7963d9a152455cd39d5b7efa696eb4d4fac938d51cf5d779e3792944aff7b"
                }
            },
            "0x1ad9bc24818784172ff393bb6f89f094d4d2ca29": {
                "nonce": "0x01",
                "balance": "0x3635c9adc5de99633a",
                "code": "0x",
                "storage": {}
            },
            "0x2adc25665018aa1fe0e6bc666dac8fc2697ff9ba": {
                "nonce": "0x00",
                "balance": "0x01fbd5",
                "code": "0x",
                "storage": {}
            }
        },
        "lastblockhash": "0x472453affe7b436ffa3dbfbcfd5db99a2ba12d47735bf005a1b4b7314caf943f",
        "config": {
            "network": "Shanghai",
            "chainid": "0x01"
        },
        "genesisRLP": "0xf90219f90213a00000000000000000000000000000000000000000000000000000000000000000a01dcc4de8dec75d7aab85b567b6ccd41ad312451b948a7413f0a142fd40d49347940000000000000000000000000000000000000000a0d00797cdcaf4d5e59630f57f6b275cc9b6a85a1631163a8555a230f119bfbabca056e81f171bcc55a6ff8345e692c0f86e5b48e01b996cadc001622fb5e363b421a056e81f171bcc55a6ff8345e692c0f86e5b48e01b996cadc001622fb5e363b421b901000000000000000000000000000000000000000000000000000000000000000000000000000000000000000000000000000000000000000000000000000000000000000000000000000000000000000000000000000000000000000000000000000000000000000000000000000000000000000000000000000000000000000000000000000000000000000000000000000000000000000000000000000000000000000000000000000000000000000000000000000000000000000000000000000000000000000000000000000000000000000000000000000000000000000000000000000000000000000000000000000000000000000000000000000000000080808407270e00808000a0000000000000000000000000000000000000000000000000000000000000000088000000000000000007a056e81f171bcc55a6ff8345e692c0f86e5b48e01b996cadc001622fb5e363b421c0c0c0",
        "blocks": [
            {
                "blockHeader": {
                    "parentHash": "0xc65b1573b8c025a26ec4f439010fc6dcc13c1a55f289fd4207f305baae6037aa",
                    "uncleHash": "0x1dcc4de8dec75d7aab85b567b6ccd41ad312451b948a7413f0a142fd40d49347",
                    "coinbase": "0x2adc25665018aa1fe0e6bc666dac8fc2697ff9ba",
                    "stateRoot": "0x2c7786a13ccdafc793806409c2dcd0958986db7d568d27d6a2071d089c003208",
                    "transactionsTrie": "0x857520ce814044670549e796a3260432c418ea75e766014c87a565e8f568d0e3",
                    "receiptTrie": "0xd38af1b981fc250c57a8c5eec1c015d3dd7300d1cc3f45002f2d981da3c8ffde",
                    "bloom": "0x00000000000000000000000000000000000000000000000000000000000000000000000000000000000000000000000000000000000000000000000000000000000000000000000000000000000000000000000000000000000000000000000000000000000000000000000000000000000000000000000000000000000000000000000000000000000000000000000000000000000000000000000000000000000000000000000000000000000000000000000000000000000000000000000000000000000000000000000000000000000000000000000000000000000000000000000000000000000000000000000000000000000000000000000000000000",
                    "difficulty": "0x00",
                    "number": "0x01",
                    "gasLimit": "0x07270e00",
                    "gasUsed": "0xa947",
                    "timestamp": "0x03e8",
                    "extraData": "0x00",
                    "mixHash": "0x0000000000000000000000000000000000000000000000000000000000000000",
                    "nonce": "0x0000000000000000",
                    "baseFeePerGas": "0x07",
                    "withdrawalsRoot": "0x56e81f171bcc55a6ff8345e692c0f86e5b48e01b996cadc001622fb5e363b421",
                    "hash": "0x472453affe7b436ffa3dbfbcfd5db99a2ba12d47735bf005a1b4b7314caf943f"
                },
                "transactions": [
                    {
                        "type": "0x00",
                        "chainId": "0x01",
                        "nonce": "0x00",
                        "gasPrice": "0x0a",
                        "gasLimit": "0x0186a0",
                        "to": "0x15294bddb3e2b8af5fe463e98b934420ef76c27e",
                        "value": "0x00",
                        "data": "0x",
                        "v": "0x25",
                        "r": "0x925417dcab4ee58a4787244ad3b7f89bcd7310a07cd261ed7e998dfa511bd429",
                        "s": "0x360cd1a1eef3edefdfe3187f407b58f5fa480a448f0b790a871e4a0f87b86572",
                        "sender": "0x1ad9bc24818784172ff393bb6f89f094d4d2ca29"
                    }
                ],
                "uncleHeaders": [],
                "withdrawals": [],
                "receipts": [
                    {
                        "transactionHash": "0xede6930ba961c5efd6c785ac5b12c432ac259a297b01d2436f4219bae0aae96f",
                        "type": "0x00",
                        "cumulativeGasUsed": "0xa947",
                        "bloom": "0x00000000000000000000000000000000000000000000000000000000000000000000000000000000000000000000000000000000000000000000000000000000000000000000000000000000000000000000000000000000000000000000000000000000000000000000000000000000000000000000000000000000000000000000000000000000000000000000000000000000000000000000000000000000000000000000000000000000000000000000000000000000000000000000000000000000000000000000000000000000000000000000000000000000000000000000000000000000000000000000000000000000000000000000000000000000",
                        "logs": [],
                        "status": true,
                        "rlp": "0xf901080182a947b9010000000000000000000000000000000000000000000000000000000000000000000000000000000000000000000000000000000000000000000000000000000000000000000000000000000000000000000000000000000000000000000000000000000000000000000000000000000000000000000000000000000000000000000000000000000000000000000000000000000000000000000000000000000000000000000000000000000000000000000000000000000000000000000000000000000000000000000000000000000000000000000000000000000000000000000000000000000000000000000000000000000000000000000000000000000000c0"
                    }
                ],
                "rlp": "0xf90280f90217a0c65b1573b8c025a26ec4f439010fc6dcc13c1a55f289fd4207f305baae6037aaa01dcc4de8dec75d7aab85b567b6ccd41ad312451b948a7413f0a142fd40d49347942adc25665018aa1fe0e6bc666dac8fc2697ff9baa02c7786a13ccdafc793806409c2dcd0958986db7d568d27d6a2071d089c003208a0857520ce814044670549e796a3260432c418ea75e766014c87a565e8f568d0e3a0d38af1b981fc250c57a8c5eec1c015d3dd7300d1cc3f45002f2d981da3c8ffdeb901000000000000000000000000000000000000000000000000000000000000000000000000000000000000000000000000000000000000000000000000000000000000000000000000000000000000000000000000000000000000000000000000000000000000000000000000000000000000000000000000000000000000000000000000000000000000000000000000000000000000000000000000000000000000000000000000000000000000000000000000000000000000000000000000000000000000000000000000000000000000000000000000000000000000000000000000000000000000000000000000000000000000000000000000000000000080018407270e0082a9478203e800a0000000000000000000000000000000000000000000000000000000000000000088000000000000000007a056e81f171bcc55a6ff8345e692c0f86e5b48e01b996cadc001622fb5e363b421f862f860800a830186a09415294bddb3e2b8af5fe463e98b934420ef76c27e808025a0925417dcab4ee58a4787244ad3b7f89bcd7310a07cd261ed7e998dfa511bd429a0360cd1a1eef3edefdfe3187f407b58f5fa480a448f0b790a871e4a0f87b86572c0c0",
                "blocknumber": "1"
            }
        ],
        "sealEngine": "NoProof",
        "_info": {
            "hash": "0xa8b517f1617317590f22cf11aa8ba3bc4df68e6739f93b29a8bddeb17315e249",
            "fixture-format": "blockchain_test",
            "comment": "`execution-specs` generated test",
            "filling-transition-tool": "2.19.0",
            "description": "Test the return data of the identity precompile overwriting its input.",
            "url": "https://github.com/ethereum/execution-specs/blob/tests-bal@v5.6.0/tests/homestead/identity_precompile/test_identity.py#L15",
            "metadata": {
                "opcode_count": {}
            }
        }
    },
    "tests/homestead/identity_precompile/test_identity.py::test_identity_return_overwrite[fork_Shanghai-call_opcode_DELEGATECALL-blockchain_test_from_state_test]": {
        "network": "Shanghai",
        "genesisBlockHeader": {
            "parentHash": "0x0000000000000000000000000000000000000000000000000000000000000000",
            "uncleHash": "0x1dcc4de8dec75d7aab85b567b6ccd41ad312451b948a7413f0a142fd40d49347",
            "coinbase": "0x0000000000000000000000000000000000000000",
            "stateRoot": "0xeb0bd33780c449d651dcd65cf9ecc51dab8d509968cf171b01030d06f21d6162",
            "transactionsTrie": "0x56e81f171bcc55a6ff8345e692c0f86e5b48e01b996cadc001622fb5e363b421",
            "receiptTrie": "0x56e81f171bcc55a6ff8345e692c0f86e5b48e01b996cadc001622fb5e363b421",
            "bloom": "0x00000000000000000000000000000000000000000000000000000000000000000000000000000000000000000000000000000000000000000000000000000000000000000000000000000000000000000000000000000000000000000000000000000000000000000000000000000000000000000000000000000000000000000000000000000000000000000000000000000000000000000000000000000000000000000000000000000000000000000000000000000000000000000000000000000000000000000000000000000000000000000000000000000000000000000000000000000000000000000000000000000000000000000000000000000000",
            "difficulty": "0x00",
            "number": "0x00",
            "gasLimit": "0x07270e00",
            "gasUsed": "0x00",
            "timestamp": "0x00",
            "extraData": "0x00",
            "mixHash": "0x0000000000000000000000000000000000000000000000000000000000000000",
            "nonce": "0x0000000000000000",
            "baseFeePerGas": "0x07",
            "withdrawalsRoot": "0x56e81f171bcc55a6ff8345e692c0f86e5b48e01b996cadc001622fb5e363b421",
            "hash": "0x4e26c688ff6f56266a7b8ec07842161392e55a0ad78d40714cca047b8b6010d7"
        },
        "pre": {
            "0x638810d6c4f925b12ca82ee79e6acaeb2ef6d5e5": {
                "nonce": "0x01",
                "balance": "0x00",
                "code": "0x6001600053600260015360036002536004600353600460016004600060045af43d600060003e59600020600155",
                "storage": {}
            },
            "0x1ad9bc24818784172ff393bb6f89f094d4d2ca29": {
                "nonce": "0x00",
                "balance": "0x3635c9adc5dea00000",
                "code": "0x",
                "storage": {}
            }
        },
        "postState": {
            "0x638810d6c4f925b12ca82ee79e6acaeb2ef6d5e5": {
                "nonce": "0x01",
                "balance": "0x00",
                "code": "0x6001600053600260015360036002536004600353600460016004600060045af43d600060003e59600020600155",
                "storage": {
                    "0x01": "0x52d7963d9a152455cd39d5b7efa696eb4d4fac938d51cf5d779e3792944aff7b"
                }
            },
            "0x1ad9bc24818784172ff393bb6f89f094d4d2ca29": {
                "nonce": "0x01",
                "balance": "0x3635c9adc5de996358",
                "code": "0x",
                "storage": {}
            },
            "0x2adc25665018aa1fe0e6bc666dac8fc2697ff9ba": {
                "nonce": "0x00",
                "balance": "0x01fbcc",
                "code": "0x",
                "storage": {}
            }
        },
        "lastblockhash": "0xb56eb350d96b8d439844dcf636e888f6120e308a962acf7783c15ade357aeba2",
        "config": {
            "network": "Shanghai",
            "chainid": "0x01"
        },
        "genesisRLP": "0xf90219f90213a00000000000000000000000000000000000000000000000000000000000000000a01dcc4de8dec75d7aab85b567b6ccd41ad312451b948a7413f0a142fd40d49347940000000000000000000000000000000000000000a0eb0bd33780c449d651dcd65cf9ecc51dab8d509968cf171b01030d06f21d6162a056e81f171bcc55a6ff8345e692c0f86e5b48e01b996cadc001622fb5e363b421a056e81f171bcc55a6ff8345e692c0f86e5b48e01b996cadc001622fb5e363b421b901000000000000000000000000000000000000000000000000000000000000000000000000000000000000000000000000000000000000000000000000000000000000000000000000000000000000000000000000000000000000000000000000000000000000000000000000000000000000000000000000000000000000000000000000000000000000000000000000000000000000000000000000000000000000000000000000000000000000000000000000000000000000000000000000000000000000000000000000000000000000000000000000000000000000000000000000000000000000000000000000000000000000000000000000000000000080808407270e00808000a0000000000000000000000000000000000000000000000000000000000000000088000000000000000007a056e81f171bcc55a6ff8345e692c0f86e5b48e01b996cadc001622fb5e363b421c0c0c0",
        "blocks": [
            {
                "blockHeader": {
                    "parentHash": "0x4e26c688ff6f56266a7b8ec07842161392e55a0ad78d40714cca047b8b6010d7",
                    "uncleHash": "0x1dcc4de8dec75d7aab85b567b6ccd41ad312451b948a7413f0a142fd40d49347",
                    "coinbase": "0x2adc25665018aa1fe0e6bc666dac8fc2697ff9ba",
                    "stateRoot": "0xeba238ee23e50d40665cf275cee26dcd009eb72484d5aefebf24d6cba51e5103",
                    "transactionsTrie": "0xb210251d90fb772719dbf185586441161ffb836fb7af7c1f328551b7612567f8",
                    "receiptTrie": "0xc67e2cf23bf5004ea21d2fdfdecb0044f7bba6cf0506430d03ecdb72cafbd78e",
                    "bloom": "0x00000000000000000000000000000000000000000000000000000000000000000000000000000000000000000000000000000000000000000000000000000000000000000000000000000000000000000000000000000000000000000000000000000000000000000000000000000000000000000000000000000000000000000000000000000000000000000000000000000000000000000000000000000000000000000000000000000000000000000000000000000000000000000000000000000000000000000000000000000000000000000000000000000000000000000000000000000000000000000000000000000000000000000000000000000000",
                    "difficulty": "0x00",
                    "number": "0x01",
                    "gasLimit": "0x07270e00",
                    "gasUsed": "0xa944",
                    "timestamp": "0x03e8",
                    "extraData": "0x00",
                    "mixHash": "0x0000000000000000000000000000000000000000000000000000000000000000",
                    "nonce": "0x0000000000000000",
                    "baseFeePerGas": "0x07",
                    "withdrawalsRoot": "0x56e81f171bcc55a6ff8345e692c0f86e5b48e01b996cadc001622fb5e363b421",
                    "hash": "0xb56eb350d96b8d439844dcf636e888f6120e308a962acf7783c15ade357aeba2"
                },
                "transactions": [
                    {
                        "type": "0x00",
                        "chainId": "0x01",
                        "nonce": "0x00",
                        "gasPrice": "0x0a",
                        "gasLimit": "0x0186a0",
                        "to": "0x638810d6c4f925b12ca82ee79e6acaeb2ef6d5e5",
                        "value": "0x00",
                        "data": "0x",
                        "v": "0x26",
                        "r": "0xec3dbc3a662db1a5137ed3e75ac03a5e2ec6cb839c52e63179cd097ad30d1800",
                        "s": "0x1e4d274c91056daa5d8e3e906358eef5adaca7d0519ff5d97787b45fceb928f1",
                        "sender": "0x1ad9bc24818784172ff393bb6f89f094d4d2ca29"
                    }
                ],
                "uncleHeaders": [],
                "withdrawals": [],
                "receipts": [
                    {
                        "transactionHash": "0x85089d736175738018a4c50e6e149c98a5d65534a0447805623b1150246e2787",
                        "type": "0x00",
                        "cumulativeGasUsed": "0xa944",
                        "bloom": "0x00000000000000000000000000000000000000000000000000000000000000000000000000000000000000000000000000000000000000000000000000000000000000000000000000000000000000000000000000000000000000000000000000000000000000000000000000000000000000000000000000000000000000000000000000000000000000000000000000000000000000000000000000000000000000000000000000000000000000000000000000000000000000000000000000000000000000000000000000000000000000000000000000000000000000000000000000000000000000000000000000000000000000000000000000000000",
                        "logs": [],
                        "status": true,
                        "rlp": "0xf901080182a944b9010000000000000000000000000000000000000000000000000000000000000000000000000000000000000000000000000000000000000000000000000000000000000000000000000000000000000000000000000000000000000000000000000000000000000000000000000000000000000000000000000000000000000000000000000000000000000000000000000000000000000000000000000000000000000000000000000000000000000000000000000000000000000000000000000000000000000000000000000000000000000000000000000000000000000000000000000000000000000000000000000000000000000000000000000000000000c0"
                    }
                ],
                "rlp": "0xf90280f90217a04e26c688ff6f56266a7b8ec07842161392e55a0ad78d40714cca047b8b6010d7a01dcc4de8dec75d7aab85b567b6ccd41ad312451b948a7413f0a142fd40d49347942adc25665018aa1fe0e6bc666dac8fc2697ff9baa0eba238ee23e50d40665cf275cee26dcd009eb72484d5aefebf24d6cba51e5103a0b210251d90fb772719dbf185586441161ffb836fb7af7c1f328551b7612567f8a0c67e2cf23bf5004ea21d2fdfdecb0044f7bba6cf0506430d03ecdb72cafbd78eb901000000000000000000000000000000000000000000000000000000000000000000000000000000000000000000000000000000000000000000000000000000000000000000000000000000000000000000000000000000000000000000000000000000000000000000000000000000000000000000000000000000000000000000000000000000000000000000000000000000000000000000000000000000000000000000000000000000000000000000000000000000000000000000000000000000000000000000000000000000000000000000000000000000000000000000000000000000000000000000000000000000000000000000000000000000000080018407270e0082a9448203e800a0000000000000000000000000000000000000000000000000000000000000000088000000000000000007a056e81f171bcc55a6ff8345e692c0f86e5b48e01b996cadc001622fb5e363b421f862f860800a830186a094638810d6c4f925b12ca82ee79e6acaeb2ef6d5e5808026a0ec3dbc3a662db1a5137ed3e75ac03a5e2ec6cb839c52e63179cd097ad30d1800a01e4d274c91056daa5d8e3e906358eef5adaca7d0519ff5d97787b45fceb928f1c0c0",
                "blocknumber": "1"
            }
        ],
        "sealEngine": "NoProof",
        "_info": {
            "hash": "0x410a4a3aa61d0fd310f6d6b337b2c3b0c174f65c1d38b80570992304e5e79549",
            "fixture-format": "blockchain_test",
            "comment": "`execution-specs` generated test",
            "filling-transition-tool": "2.19.0",
            "description": "Test the return data of the identity precompile overwriting its input.",
            "url": "https://github.com/ethereum/execution-specs/blob/tests-bal@v5.6.0/tests/homestead/identity_precompile/test_identity.py#L15",
            "metadata": {
                "opcode_count": {}
            }
        }
    },
    "tests/homestead/identity_precompile/test_identity.py::test_identity_return_overwrite[fork_Shanghai-call_opcode_STATICCALL-blockchain_test_from_state_test]": {
        "network": "Shanghai",
        "genesisBlockHeader": {
            "parentHash": "0x0000000000000000000000000000000000000000000000000000000000000000",
            "uncleHash": "0x1dcc4de8dec75d7aab85b567b6ccd41ad312451b948a7413f0a142fd40d49347",
            "coinbase": "0x0000000000000000000000000000000000000000",
            "stateRoot": "0x61892b64a73fb92d7edf99f5fc78a97890f1accdecba884022cca30c1720ac2b",
            "transactionsTrie": "0x56e81f171bcc55a6ff8345e692c0f86e5b48e01b996cadc001622fb5e363b421",
            "receiptTrie": "0x56e81f171bcc55a6ff8345e692c0f86e5b48e01b996cadc001622fb5e363b421",
            "bloom": "0x00000000000000000000000000000000000000000000000000000000000000000000000000000000000000000000000000000000000000000000000000000000000000000000000000000000000000000000000000000000000000000000000000000000000000000000000000000000000000000000000000000000000000000000000000000000000000000000000000000000000000000000000000000000000000000000000000000000000000000000000000000000000000000000000000000000000000000000000000000000000000000000000000000000000000000000000000000000000000000000000000000000000000000000000000000000",
            "difficulty": "0x00",
            "number": "0x00",
            "gasLimit": "0x07270e00",
            "gasUsed": "0x00",
            "timestamp": "0x00",
            "extraData": "0x00",
            "mixHash": "0x0000000000000000000000000000000000000000000000000000000000000000",
            "nonce": "0x0000000000000000",
            "baseFeePerGas": "0x07",
            "withdrawalsRoot": "0x56e81f171bcc55a6ff8345e692c0f86e5b48e01b996cadc001622fb5e363b421",
            "hash": "0x6593f94c4a5f8fe12ee35ccacd67b171cb4603372117af6c3f31701737a52c38"
        },
        "pre": {
            "0x3dc5c69c1e5e8d204f26e394b6a1a182b770e8a6": {
                "nonce": "0x01",
                "balance": "0x00",
                "code": "0x6001600053600260015360036002536004600353600460016004600060045afa3d600060003e59600020600155",
                "storage": {}
            },
            "0x1ad9bc24818784172ff393bb6f89f094d4d2ca29": {
                "nonce": "0x00",
                "balance": "0x3635c9adc5dea00000",
                "code": "0x",
                "storage": {}
            }
        },
        "postState": {
            "0x3dc5c69c1e5e8d204f26e394b6a1a182b770e8a6": {
                "nonce": "0x01",
                "balance": "0x00",
                "code": "0x6001600053600260015360036002536004600353600460016004600060045afa3d600060003e59600020600155",
                "storage": {
                    "0x01": "0x52d7963d9a152455cd39d5b7efa696eb4d4fac938d51cf5d779e3792944aff7b"
                }
            },
            "0x1ad9bc24818784172ff393bb6f89f094d4d2ca29": {
                "nonce": "0x01",
                "balance": "0x3635c9adc5de996358",
                "code": "0x",
                "storage": {}
            },
            "0x2adc25665018aa1fe0e6bc666dac8fc2697ff9ba": {
                "nonce": "0x00",
                "balance": "0x01fbcc",
                "code": "0x",
                "storage": {}
            }
        },
        "lastblockhash": "0xeef7954ea94cd979324d9e5d305a6ca6f1d5993be3681d0cb5bbaf583e3bc43d",
        "config": {
            "network": "Shanghai",
            "chainid": "0x01"
        },
        "genesisRLP": "0xf90219f90213a00000000000000000000000000000000000000000000000000000000000000000a01dcc4de8dec75d7aab85b567b6ccd41ad312451b948a7413f0a142fd40d49347940000000000000000000000000000000000000000a061892b64a73fb92d7edf99f5fc78a97890f1accdecba884022cca30c1720ac2ba056e81f171bcc55a6ff8345e692c0f86e5b48e01b996cadc001622fb5e363b421a056e81f171bcc55a6ff8345e692c0f86e5b48e01b996cadc001622fb5e363b421b901000000000000000000000000000000000000000000000000000000000000000000000000000000000000000000000000000000000000000000000000000000000000000000000000000000000000000000000000000000000000000000000000000000000000000000000000000000000000000000000000000000000000000000000000000000000000000000000000000000000000000000000000000000000000000000000000000000000000000000000000000000000000000000000000000000000000000000000000000000000000000000000000000000000000000000000000000000000000000000000000000000000000000000000000000000000080808407270e00808000a0000000000000000000000000000000000000000000000000000000000000000088000000000000000007a056e81f171bcc55a6ff8345e692c0f86e5b48e01b996cadc001622fb5e363b421c0c0c0",
        "blocks": [
            {
                "blockHeader": {
                    "parentHash": "0x6593f94c4a5f8fe12ee35ccacd67b171cb4603372117af6c3f31701737a52c38",
                    "uncleHash": "0x1dcc4de8dec75d7aab85b567b6ccd41ad312451b948a7413f0a142fd40d49347",
                    "coinbase": "0x2adc25665018aa1fe0e6bc666dac8fc2697ff9ba",
                    "stateRoot": "0xd28bef4da193dcefdbe1cd655ab9ffb2a29539845008aa8e8bccfda0fef08349",
                    "transactionsTrie": "0x5cbd7acd57f0e4766bb953ca43f3b71e5897e8fbc8cf36e146e6332a2d0b0a53",
                    "receiptTrie": "0xc67e2cf23bf5004ea21d2fdfdecb0044f7bba6cf0506430d03ecdb72cafbd78e",
                    "bloom": "0x00000000000000000000000000000000000000000000000000000000000000000000000000000000000000000000000000000000000000000000000000000000000000000000000000000000000000000000000000000000000000000000000000000000000000000000000000000000000000000000000000000000000000000000000000000000000000000000000000000000000000000000000000000000000000000000000000000000000000000000000000000000000000000000000000000000000000000000000000000000000000000000000000000000000000000000000000000000000000000000000000000000000000000000000000000000",
                    "difficulty": "0x00",
                    "number": "0x01",
                    "gasLimit": "0x07270e00",
                    "gasUsed": "0xa944",
                    "timestamp": "0x03e8",
                    "extraData": "0x00",
                    "mixHash": "0x0000000000000000000000000000000000000000000000000000000000000000",
                    "nonce": "0x0000000000000000",
                    "baseFeePerGas": "0x07",
                    "withdrawalsRoot": "0x56e81f171bcc55a6ff8345e692c0f86e5b48e01b996cadc001622fb5e363b421",
                    "hash": "0xeef7954ea94cd979324d9e5d305a6ca6f1d5993be3681d0cb5bbaf583e3bc43d"
                },
                "transactions": [
                    {
                        "type": "0x00",
                        "chainId": "0x01",
                        "nonce": "0x00",
                        "gasPrice": "0x0a",
                        "gasLimit": "0x0186a0",
                        "to": "0x3dc5c69c1e5e8d204f26e394b6a1a182b770e8a6",
                        "value": "0x00",
                        "data": "0x",
                        "v": "0x26",
                        "r": "0x5f33485d0b82b081fb5f2c4454b952a24409f8451b5f43bbfc23b186f332ff1d",
                        "s": "0x54e8544dfe44a9ebefa92b9918fd6d7f68b732a7ec27c6a452cf9730707e9822",
                        "sender": "0x1ad9bc24818784172ff393bb6f89f094d4d2ca29"
                    }
                ],
                "uncleHeaders": [],
                "withdrawals": [],
                "receipts": [
                    {
                        "transactionHash": "0xb863368dc76ceef11e8185aeb2a56a5775732c708d9a9cf1b73e04e2024b28cc",
                        "type": "0x00",
                        "cumulativeGasUsed": "0xa944",
                        "bloom": "0x00000000000000000000000000000000000000000000000000000000000000000000000000000000000000000000000000000000000000000000000000000000000000000000000000000000000000000000000000000000000000000000000000000000000000000000000000000000000000000000000000000000000000000000000000000000000000000000000000000000000000000000000000000000000000000000000000000000000000000000000000000000000000000000000000000000000000000000000000000000000000000000000000000000000000000000000000000000000000000000000000000000000000000000000000000000",
                        "logs": [],
                        "status": true,
                        "rlp": "0xf901080182a944b9010000000000000000000000000000000000000000000000000000000000000000000000000000000000000000000000000000000000000000000000000000000000000000000000000000000000000000000000000000000000000000000000000000000000000000000000000000000000000000000000000000000000000000000000000000000000000000000000000000000000000000000000000000000000000000000000000000000000000000000000000000000000000000000000000000000000000000000000000000000000000000000000000000000000000000000000000000000000000000000000000000000000000000000000000000000000c0"
                    }
                ],
                "rlp": "0xf90280f90217a06593f94c4a5f8fe12ee35ccacd67b171cb4603372117af6c3f31701737a52c38a01dcc4de8dec75d7aab85b567b6ccd41ad312451b948a7413f0a142fd40d49347942adc25665018aa1fe0e6bc666dac8fc2697ff9baa0d28bef4da193dcefdbe1cd655ab9ffb2a29539845008aa8e8bccfda0fef08349a05cbd7acd57f0e4766bb953ca43f3b71e5897e8fbc8cf36e146e6332a2d0b0a53a0c67e2cf23bf5004ea21d2fdfdecb0044f7bba6cf0506430d03ecdb72cafbd78eb901000000000000000000000000000000000000000000000000000000000000000000000000000000000000000000000000000000000000000000000000000000000000000000000000000000000000000000000000000000000000000000000000000000000000000000000000000000000000000000000000000000000000000000000000000000000000000000000000000000000000000000000000000000000000000000000000000000000000000000000000000000000000000000000000000000000000000000000000000000000000000000000000000000000000000000000000000000000000000000000000000000000000000000000000000000000080018407270e0082a9448203e800a0000000000000000000000000000000000000000000000000000000000000000088000000000000000007a056e81f171bcc55a6ff8345e692c0f86e5b48e01b996cadc001622fb5e363b421f862f860800a830186a0943dc5c69c1e5e8d204f26e394b6a1a182b770e8a6808026a05f33485d0b82b081fb5f2c4454b952a24409f8451b5f43bbfc23b186f332ff1da054e8544dfe44a9ebefa92b9918fd6d7f68b732a7ec27c6a452cf9730707e9822c0c0",
                "blocknumber": "1"
            }
        ],
        "sealEngine": "NoProof",
        "_info": {
            "hash": "0xcdd94d8b731d2660f00736d8a830caafc18e56b3fa47311239cad252f4e13579",
            "fixture-format": "blockchain_test",
            "comment": "`execution-specs` generated test",
            "filling-transition-tool": "2.19.0",
            "description": "Test the return data of the identity precompile overwriting its input.",
            "url": "https://github.com/ethereum/execution-specs/blob/tests-bal@v5.6.0/tests/homestead/identity_precompile/test_identity.py#L15",
            "metadata": {
                "opcode_count": {}
            }
        }
    }
}