{
    "tests/static/state_tests/stArgsZeroOneBalance/log3NonConstFiller.yml::log3NonConst[fork_Cancun-blockchain_test_from_state_test--v0]": {
        "network": "Cancun",
        "genesisBlockHeader": {
            "parentHash": "0x0000000000000000000000000000000000000000000000000000000000000000",
            "uncleHash": "0x1dcc4de8dec75d7aab85b567b6ccd41ad312451b948a7413f0a142fd40d49347",
            "coinbase": "0x0000000000000000000000000000000000000000",
            "stateRoot": "0xa1a4f5db02d3afbf26b8476c3d72e55809386d37cb50a8a48ed6587b71e7422d",
            "transactionsTrie": "0x56e81f171bcc55a6ff8345e692c0f86e5b48e01b996cadc001622fb5e363b421",
            "receiptTrie": "0x56e81f171bcc55a6ff8345e692c0f86e5b48e01b996cadc001622fb5e363b421",
            "bloom": "0x00000000000000000000000000000000000000000000000000000000000000000000000000000000000000000000000000000000000000000000000000000000000000000000000000000000000000000000000000000000000000000000000000000000000000000000000000000000000000000000000000000000000000000000000000000000000000000000000000000000000000000000000000000000000000000000000000000000000000000000000000000000000000000000000000000000000000000000000000000000000000000000000000000000000000000000000000000000000000000000000000000000000000000000000000000000",
            "difficulty": "0x00",
            "number": "0x00",
            "gasLimit": "0x0f4240",
            "gasUsed": "0x00",
            "timestamp": "0x00",
            "extraData": "0x00",
            "mixHash": "0x0000000000000000000000000000000000000000000000000000000000000000",
            "nonce": "0x0000000000000000",
            "baseFeePerGas": "0x0b",
            "withdrawalsRoot": "0x56e81f171bcc55a6ff8345e692c0f86e5b48e01b996cadc001622fb5e363b421",
            "blobGasUsed": "0x00",
            "excessBlobGas": "0x00",
            "parentBeaconBlockRoot": "0x0000000000000000000000000000000000000000000000000000000000000000",
            "hash": "0x4f098f8b262beee57d23520b18c6e1f39e4808d93fae5f14fcc072c50707edbe"
        },
        "pre": {
            "0x000f3df6d732807ef1319fb7b8bb8522d0beac02": {
                "nonce": "0x01",
                "balance": "0x00",
                "code": "0x3373fffffffffffffffffffffffffffffffffffffffe14604d57602036146024575f5ffd5b5f35801560495762001fff810690815414603c575f5ffd5b62001fff01545f5260205ff35b5f5ffd5b62001fff42064281555f359062001fff015500",
                "storage": {}
            },
            "0x2e3d0156d2b99a6eacba540c55f423c8f5a33143": {
                "nonce": "0x00",
                "balance": "0x0de0b6b3a7640000",
                "code": "0x",
                "storage": {}
            },
            "0x02724f6cb897bbc3e063a03633d2ce4e83da8678": {
                "nonce": "0x00",
                "balance": "0x00",
                "code": "0x7302724f6cb897bbc3e063a03633d2ce4e83da8678317302724f6cb897bbc3e063a03633d2ce4e83da8678317302724f6cb897bbc3e063a03633d2ce4e83da8678317302724f6cb897bbc3e063a03633d2ce4e83da8678317302724f6cb897bbc3e063a03633d2ce4e83da867831a300",
                "storage": {}
            }
        },
        "postState": {
            "0x000f3df6d732807ef1319fb7b8bb8522d0beac02": {
                "nonce": "0x01",
                "balance": "0x00",
                "code": "0x3373fffffffffffffffffffffffffffffffffffffffe14604d57602036146024575f5ffd5b5f35801560495762001fff810690815414603c575f5ffd5b62001fff01545f5260205ff35b5f5ffd5b62001fff42064281555f359062001fff015500",
                "storage": {
                    "0x03e8": "0x03e8"
                }
            },
            "0x2e3d0156d2b99a6eacba540c55f423c8f5a33143": {
                "nonce": "0x01",
                "balance": "0x0de0b6b3a7607cfa",
                "code": "0x",
                "storage": {}
            },
            "0x02724f6cb897bbc3e063a03633d2ce4e83da8678": {
                "nonce": "0x00",
                "balance": "0x00",
                "code": "0x7302724f6cb897bbc3e063a03633d2ce4e83da8678317302724f6cb897bbc3e063a03633d2ce4e83da8678317302724f6cb897bbc3e063a03633d2ce4e83da8678317302724f6cb897bbc3e063a03633d2ce4e83da8678317302724f6cb897bbc3e063a03633d2ce4e83da867831a300",
                "storage": {}
            }
        },
        "lastblockhash": "0xc44250c5e75d85739c0da6c739ccbfcabcb30af0018a82c4f8bfff28108ac8ea",
        "config": {
            "network": "Cancun",
            "chainid": "0x01",
            "blobSchedule": {
                "Cancun": {
                    "target": "0x03",
                    "max": "0x06",
                    "baseFeeUpdateFraction": "0x32f0ed"
                }
            }
        },
        "genesisRLP": "0xf9023bf90235a00000000000000000000000000000000000000000000000000000000000000000a01dcc4de8dec75d7aab85b567b6ccd41ad312451b948a7413f0a142fd40d49347940000000000000000000000000000000000000000a0a1a4f5db02d3afbf26b8476c3d72e55809386d37cb50a8a48ed6587b71e7422da056e81f171bcc55a6ff8345e692c0f86e5b48e01b996cadc001622fb5e363b421a056e81f171bcc55a6ff8345e692c0f86e5b48e01b996cadc001622fb5e363b421b90100000000000000000000000000000000000000000000000000000000000000000000000000000000000000000000000000000000000000000000000000000000000000000000000000000000000000000000000000000000000000000000000000000000000000000000000000000000000000000000000000000000000000000000000000000000000000000000000000000000000000000000000000000000000000000000000000000000000000000000000000000000000000000000000000000000000000000000000000000000000000000000000000000000000000000000000000000000000000000000000000000000000000000000000000000000008080830f4240808000a000000000000000000000000000000000000000000000000000000000000000008800000000000000000ba056e81f171bcc55a6ff8345e692c0f86e5b48e01b996cadc001622fb5e363b4218080a00000000000000000000000000000000000000000000000000000000000000000c0c0c0",
        "blocks": [
            {
                "blockHeader": {
                    "parentHash": "0x4f098f8b262beee57d23520b18c6e1f39e4808d93fae5f14fcc072c50707edbe",
                    "uncleHash": "0x1dcc4de8dec75d7aab85b567b6ccd41ad312451b948a7413f0a142fd40d49347",
                    "coinbase": "0x2adc25665018aa1fe0e6bc666dac8fc2697ff9ba",
                    "stateRoot": "0x41804a5fcdbcf5b5daa568474e26bbdde69fadeae315955443ed434460a88c2d",
                    "transactionsTrie": "0x69dd8ba5ec745317d52f0142467537ffc12bae2adac9e48cb71ff812cae8228d",
                    "receiptTrie": "0x8c9bc9f5b5eb1e7075bf778b77a7c82e75de422c3f4223b6cb79322b62b70c4b",
                    "bloom": "0x00000000000000000000000000000000000000000000000000000000000000000000000000000000000000000000000000000000000000000000000000000000000000000000000000000000000000000000000000100000000000000000000000000000020000000000000000000800000000000000000000000000000000000000000000000000000000000000000000000000000000000000000000000000000000000000000000000000000000000000000000000000000000000000000000000000000000000000000000000000000000000000000000000000000020000000000000020000000000008000000000000000000000000000000000000000",
                    "difficulty": "0x00",
                    "number": "0x01",
                    "gasLimit": "0x0f4240",
                    "gasUsed": "0x59e7",
                    "timestamp": "0x03e8",
                    "extraData": "0x00",
                    "mixHash": "0x0000000000000000000000000000000000000000000000000000000000020000",
                    "nonce": "0x0000000000000000",
                    "baseFeePerGas": "0x0a",
                    "withdrawalsRoot": "0x56e81f171bcc55a6ff8345e692c0f86e5b48e01b996cadc001622fb5e363b421",
                    "blobGasUsed": "0x00",
                    "excessBlobGas": "0x00",
                    "parentBeaconBlockRoot": "0x0000000000000000000000000000000000000000000000000000000000000000",
                    "hash": "0xc44250c5e75d85739c0da6c739ccbfcabcb30af0018a82c4f8bfff28108ac8ea"
                },
                "transactions": [
                    {
                        "type": "0x00",
                        "chainId": "0x01",
                        "nonce": "0x00",
                        "gasPrice": "0x0a",
                        "gasLimit": "0x061a80",
                        "to": "0x02724f6cb897bbc3e063a03633d2ce4e83da8678",
                        "value": "0x00",
                        "data": "0x",
                        "v": "0x25",
                        "r": "0x751374b68edf3f62ff4449ec6ae5ae976c27f4e05dafe4d48f561b6ade9f907a",
                        "s": "0x616e7ae615747bafba9c6861f6a01a8fae495e931161308544ace2d4127520d8",
                        "sender": "0x2e3d0156d2b99a6eacba540c55f423c8f5a33143"
                    }
                ],
                "uncleHeaders": [],
                "withdrawals": [],
                "receipts": [
                    {
                        "transactionHash": "0x7e6092ccbd583b674e9345492c5e7fafda933107878872ff459836aae4da6a29",
                        "type": "0x00",
                        "cumulativeGasUsed": "0x59e7",
                        "bloom": "0x00000000000000000000000000000000000000000000000000000000000000000000000000000000000000000000000000000000000000000000000000000000000000000000000000000000000000000000000000100000000000000000000000000000020000000000000000000800000000000000000000000000000000000000000000000000000000000000000000000000000000000000000000000000000000000000000000000000000000000000000000000000000000000000000000000000000000000000000000000000000000000000000000000000000020000000000000020000000000008000000000000000000000000000000000000000",
                        "logs": [
                            {
                                "address": "0x02724f6cb897bbc3e063a03633d2ce4e83da8678",
                                "topics": [
                                    "0x0000000000000000000000000000000000000000000000000000000000000000",
                                    "0x0000000000000000000000000000000000000000000000000000000000000000",
                                    "0x0000000000000000000000000000000000000000000000000000000000000000"
                                ],
                                "data": "0x"
                            }
                        ],
                        "status": true,
                        "rlp": "0xf90186018259e7b9010000000000000000000000000000000000000000000000000000000000000000000000000000000000000000000000000000000000000000000000000000000000000000000000000000000000000000000000000000100000000000000000000000000000020000000000000000000800000000000000000000000000000000000000000000000000000000000000000000000000000000000000000000000000000000000000000000000000000000000000000000000000000000000000000000000000000000000000000000000000000000000000000000000000000020000000000000020000000000008000000000000000000000000000000000000000f87df87b9402724f6cb897bbc3e063a03633d2ce4e83da8678f863a00000000000000000000000000000000000000000000000000000000000000000a00000000000000000000000000000000000000000000000000000000000000000a0000000000000000000000000000000000000000000000000000000000000000080"
                    }
                ],
                "rlp": "0xf902a2f90239a04f098f8b262beee57d23520b18c6e1f39e4808d93fae5f14fcc072c50707edbea01dcc4de8dec75d7aab85b567b6ccd41ad312451b948a7413f0a142fd40d49347942adc25665018aa1fe0e6bc666dac8fc2697ff9baa041804a5fcdbcf5b5daa568474e26bbdde69fadeae315955443ed434460a88c2da069dd8ba5ec745317d52f0142467537ffc12bae2adac9e48cb71ff812cae8228da08c9bc9f5b5eb1e7075bf778b77a7c82e75de422c3f4223b6cb79322b62b70c4bb90100000000000000000000000000000000000000000000000000000000000000000000000000000000000000000000000000000000000000000000000000000000000000000000000000000000000000000000000000001000000000000000000000000000000200000000000000000008000000000000000000000000000000000000000000000000000000000000000000000000000000000000000000000000000000000000000000000000000000000000000000000000000000000000000000000000000000000000000000000000000000000000000000000000000000200000000000000200000000000080000000000000000000000000000000000000008001830f42408259e78203e800a000000000000000000000000000000000000000000000000000000000000200008800000000000000000aa056e81f171bcc55a6ff8345e692c0f86e5b48e01b996cadc001622fb5e363b4218080a00000000000000000000000000000000000000000000000000000000000000000f862f860800a83061a809402724f6cb897bbc3e063a03633d2ce4e83da8678808025a0751374b68edf3f62ff4449ec6ae5ae976c27f4e05dafe4d48f561b6ade9f907aa0616e7ae615747bafba9c6861f6a01a8fae495e931161308544ace2d4127520d8c0c0",
                "blocknumber": "1"
            }
        ],
        "sealEngine": "NoProof",
        "_info": {
            "hash": "0x83e338099138bdbc46d944db06855fd257edd99f841cdba074216a53dac09e45",
            "fixture-format": "blockchain_test",
            "comment": "`execution-specs` generated test",
            "filling-transition-tool": "2.19.0",
            "description": "No description available - add a docstring to the python test class or function.",
            "url": "",
            "opcode_count": {}
        }
    },
    "tests/static/state_tests/stArgsZeroOneBalance/log3NonConstFiller.yml::log3NonConst[fork_Cancun-blockchain_test_from_state_test--v1]": {
        "network": "Cancun",
        "genesisBlockHeader": {
            "parentHash": "0x0000000000000000000000000000000000000000000000000000000000000000",
            "uncleHash": "0x1dcc4de8dec75d7aab85b567b6ccd41ad312451b948a7413f0a142fd40d49347",
            "coinbase": "0x0000000000000000000000000000000000000000",
            "stateRoot": "0xa1a4f5db02d3afbf26b8476c3d72e55809386d37cb50a8a48ed6587b71e7422d",
            "transactionsTrie": "0x56e81f171bcc55a6ff8345e692c0f86e5b48e01b996cadc001622fb5e363b421",
            "receiptTrie": "0x56e81f171bcc55a6ff8345e692c0f86e5b48e01b996cadc001622fb5e363b421",
            "bloom": "0x00000000000000000000000000000000000000000000000000000000000000000000000000000000000000000000000000000000000000000000000000000000000000000000000000000000000000000000000000000000000000000000000000000000000000000000000000000000000000000000000000000000000000000000000000000000000000000000000000000000000000000000000000000000000000000000000000000000000000000000000000000000000000000000000000000000000000000000000000000000000000000000000000000000000000000000000000000000000000000000000000000000000000000000000000000000",
            "difficulty": "0x00",
            "number": "0x00",
            "gasLimit": "0x0f4240",
            "gasUsed": "0x00",
            "timestamp": "0x00",
            "extraData": "0x00",
            "mixHash": "0x0000000000000000000000000000000000000000000000000000000000000000",
            "nonce": "0x0000000000000000",
            "baseFeePerGas": "0x0b",
            "withdrawalsRoot": "0x56e81f171bcc55a6ff8345e692c0f86e5b48e01b996cadc001622fb5e363b421",
            "blobGasUsed": "0x00",
            "excessBlobGas": "0x00",
            "parentBeaconBlockRoot": "0x0000000000000000000000000000000000000000000000000000000000000000",
            "hash": "0x4f098f8b262beee57d23520b18c6e1f39e4808d93fae5f14fcc072c50707edbe"
        },
        "pre": {
            "0x000f3df6d732807ef1319fb7b8bb8522d0beac02": {
                "nonce": "0x01",
                "balance": "0x00",
                "code": "0x3373fffffffffffffffffffffffffffffffffffffffe14604d57602036146024575f5ffd5b5f35801560495762001fff810690815414603c575f5ffd5b62001fff01545f5260205ff35b5f5ffd5b62001fff42064281555f359062001fff015500",
                "storage": {}
            },
            "0x2e3d0156d2b99a6eacba540c55f423c8f5a33143": {
                "nonce": "0x00",
                "balance": "0x0de0b6b3a7640000",
                "code": "0x",
                "storage": {}
            },
            "0x02724f6cb897bbc3e063a03633d2ce4e83da8678": {
                "nonce": "0x00",
                "balance": "0x00",
                "code": "0x7302724f6cb897bbc3e063a03633d2ce4e83da8678317302724f6cb897bbc3e063a03633d2ce4e83da8678317302724f6cb897bbc3e063a03633d2ce4e83da8678317302724f6cb897bbc3e063a03633d2ce4e83da8678317302724f6cb897bbc3e063a03633d2ce4e83da867831a300",
                "storage": {}
            }
        },
        "postState": {
            "0x000f3df6d732807ef1319fb7b8bb8522d0beac02": {
                "nonce": "0x01",
                "balance": "0x00",
                "code": "0x3373fffffffffffffffffffffffffffffffffffffffe14604d57602036146024575f5ffd5b5f35801560495762001fff810690815414603c575f5ffd5b62001fff01545f5260205ff35b5f5ffd5b62001fff42064281555f359062001fff015500",
                "storage": {
                    "0x03e8": "0x03e8"
                }
            },
            "0x2e3d0156d2b99a6eacba540c55f423c8f5a33143": {
                "nonce": "0x01",
                "balance": "0x0de0b6b3a7607c8b",
                "code": "0x",
                "storage": {}
            },
            "0x02724f6cb897bbc3e063a03633d2ce4e83da8678": {
                "nonce": "0x00",
                "balance": "0x01",
                "code": "0x7302724f6cb897bbc3e063a03633d2ce4e83da8678317302724f6cb897bbc3e063a03633d2ce4e83da8678317302724f6cb897bbc3e063a03633d2ce4e83da8678317302724f6cb897bbc3e063a03633d2ce4e83da8678317302724f6cb897bbc3e063a03633d2ce4e83da867831a300",
                "storage": {}
            }
        },
        "lastblockhash": "0x66359c0cd778968979adc1e17563f43747733e1508846162162482dec8950797",
        "config": {
            "network": "Cancun",
            "chainid": "0x01",
            "blobSchedule": {
                "Cancun": {
                    "target": "0x03",
                    "max": "0x06",
                    "baseFeeUpdateFraction": "0x32f0ed"
                }
            }
        },
        "genesisRLP": "0xf9023bf90235a00000000000000000000000000000000000000000000000000000000000000000a01dcc4de8dec75d7aab85b567b6ccd41ad312451b948a7413f0a142fd40d49347940000000000000000000000000000000000000000a0a1a4f5db02d3afbf26b8476c3d72e55809386d37cb50a8a48ed6587b71e7422da056e81f171bcc55a6ff8345e692c0f86e5b48e01b996cadc001622fb5e363b421a056e81f171bcc55a6ff8345e692c0f86e5b48e01b996cadc001622fb5e363b421b90100000000000000000000000000000000000000000000000000000000000000000000000000000000000000000000000000000000000000000000000000000000000000000000000000000000000000000000000000000000000000000000000000000000000000000000000000000000000000000000000000000000000000000000000000000000000000000000000000000000000000000000000000000000000000000000000000000000000000000000000000000000000000000000000000000000000000000000000000000000000000000000000000000000000000000000000000000000000000000000000000000000000000000000000000000000008080830f4240808000a000000000000000000000000000000000000000000000000000000000000000008800000000000000000ba056e81f171bcc55a6ff8345e692c0f86e5b48e01b996cadc001622fb5e363b4218080a00000000000000000000000000000000000000000000000000000000000000000c0c0c0",
        "blocks": [
            {
                "blockHeader": {
                    "parentHash": "0x4f098f8b262beee57d23520b18c6e1f39e4808d93fae5f14fcc072c50707edbe",
                    "uncleHash": "0x1dcc4de8dec75d7aab85b567b6ccd41ad312451b948a7413f0a142fd40d49347",
                    "coinbase": "0x2adc25665018aa1fe0e6bc666dac8fc2697ff9ba",
                    "stateRoot": "0x129a15abfbc0d1317cb3f89748411e4e79fb4141b31f10fe375f2083feaae3af",
                    "transactionsTrie": "0x61261edc26c6b1d9a8fd28c2ee5420149777fd9b8419e704afedf9a527ce0efc",
                    "receiptTrie": "0x5e275b0dcdae1379abc9490e24c6d568bde0379365f6d67e92d13eb2c6426d50",
                    "bloom": "0x00000000000000000000000000000000000000000000000000000000000000000000000000000000000000000000000000000000000000000000000000040000000000000000000000000000000000000000000000140000000000000000000000000000000000000000000000000000000000000000000000000000000000000000000000000000000000000000000000000000000000000000000000000000000000000000000000000000000000000000000000000000000000000000000000000000000000000000000000000000000000000000000000000000000040000000000000020000000000008000000000000000000000000000000000000000",
                    "difficulty": "0x00",
                    "number": "0x01",
                    "gasLimit": "0x0f4240",
                    "gasUsed": "0x59f2",
                    "timestamp": "0x03e8",
                    "extraData": "0x00",
                    "mixHash": "0x0000000000000000000000000000000000000000000000000000000000020000",
                    "nonce": "0x0000000000000000",
                    "baseFeePerGas": "0x0a",
                    "withdrawalsRoot": "0x56e81f171bcc55a6ff8345e692c0f86e5b48e01b996cadc001622fb5e363b421",
                    "blobGasUsed": "0x00",
                    "excessBlobGas": "0x00",
                    "parentBeaconBlockRoot": "0x0000000000000000000000000000000000000000000000000000000000000000",
                    "hash": "0x66359c0cd778968979adc1e17563f43747733e1508846162162482dec8950797"
                },
                "transactions": [
                    {
                        "type": "0x00",
                        "chainId": "0x01",
                        "nonce": "0x00",
                        "gasPrice": "0x0a",
                        "gasLimit": "0x061a80",
                        "to": "0x02724f6cb897bbc3e063a03633d2ce4e83da8678",
                        "value": "0x01",
                        "data": "0x",
                        "v": "0x26",
                        "r": "0xbcab232a570506d1f65c9da55ff8ba0f1d3f746364823c5477104bf0af0ffa84",
                        "s": "0x2b62f53e0aa16f74afa4a3bae3866c4682a1c6338e888d59d6ff854f97764cc6",
                        "sender": "0x2e3d0156d2b99a6eacba540c55f423c8f5a33143"
                    }
                ],
                "uncleHeaders": [],
                "withdrawals": [],
                "receipts": [
                    {
                        "transactionHash": "0x4f9c98533bced4dcc37c50cc51f3f62dc3718d3649aeaa7409f053f14bc552e3",
                        "type": "0x00",
                        "cumulativeGasUsed": "0x59f2",
                        "bloom": "0x00000000000000000000000000000000000000000000000000000000000000000000000000000000000000000000000000000000000000000000000000040000000000000000000000000000000000000000000000140000000000000000000000000000000000000000000000000000000000000000000000000000000000000000000000000000000000000000000000000000000000000000000000000000000000000000000000000000000000000000000000000000000000000000000000000000000000000000000000000000000000000000000000000000000040000000000000020000000000008000000000000000000000000000000000000000",
                        "logs": [
                            {
                                "address": "0x02724f6cb897bbc3e063a03633d2ce4e83da8678",
                                "topics": [
                                    "0x0000000000000000000000000000000000000000000000000000000000000001",
                                    "0x0000000000000000000000000000000000000000000000000000000000000001",
                                    "0x0000000000000000000000000000000000000000000000000000000000000001"
                                ],
                                "data": "0x00"
                            }
                        ],
                        "status": true,
                        "rlp": "0xf90186018259f2b9010000000000000000000000000000000000000000000000000000000000000000000000000000000000000000000000000000000000000000000000000000040000000000000000000000000000000000000000000000140000000000000000000000000000000000000000000000000000000000000000000000000000000000000000000000000000000000000000000000000000000000000000000000000000000000000000000000000000000000000000000000000000000000000000000000000000000000000000000000000000000000000000000000000000000040000000000000020000000000008000000000000000000000000000000000000000f87df87b9402724f6cb897bbc3e063a03633d2ce4e83da8678f863a00000000000000000000000000000000000000000000000000000000000000001a00000000000000000000000000000000000000000000000000000000000000001a0000000000000000000000000000000000000000000000000000000000000000100"
                    }
                ],
                "rlp": "0xf902a2f90239a04f098f8b262beee57d23520b18c6e1f39e4808d93fae5f14fcc072c50707edbea01dcc4de8dec75d7aab85b567b6ccd41ad312451b948a7413f0a142fd40d49347942adc25665018aa1fe0e6bc666dac8fc2697ff9baa0129a15abfbc0d1317cb3f89748411e4e79fb4141b31f10fe375f2083feaae3afa061261edc26c6b1d9a8fd28c2ee5420149777fd9b8419e704afedf9a527ce0efca05e275b0dcdae1379abc9490e24c6d568bde0379365f6d67e92d13eb2c6426d50b90100000000000000000000000000000000000000000000000000000000000000000000000000000000000000000000000000000000000000000000000000000400000000000000000000000000000000000000000000001400000000000000000000000000000000000000000000000000000000000000000000000000000000000000000000000000000000000000000000000000000000000000000000000000000000000000000000000000000000000000000000000000000000000000000000000000000000000000000000000000000000000000000000000000000000400000000000000200000000000080000000000000000000000000000000000000008001830f42408259f28203e800a000000000000000000000000000000000000000000000000000000000000200008800000000000000000aa056e81f171bcc55a6ff8345e692c0f86e5b48e01b996cadc001622fb5e363b4218080a00000000000000000000000000000000000000000000000000000000000000000f862f860800a83061a809402724f6cb897bbc3e063a03633d2ce4e83da8678018026a0bcab232a570506d1f65c9da55ff8ba0f1d3f746364823c5477104bf0af0ffa84a02b62f53e0aa16f74afa4a3bae3866c4682a1c6338e888d59d6ff854f97764cc6c0c0",
                "blocknumber": "1"
            }
        ],
        "sealEngine": "NoProof",
        "_info": {
            "hash": "0xf4d9849132eacd7273f05880dcf33d552a7479037acea2105eee1c1bebdb3c30",
            "fixture-format": "blockchain_test",
            "comment": "`execution-specs` generated test",
            "filling-transition-tool": "2.19.0",
            "description": "No description available - add a docstring to the python test class or function.",
            "url": "",
            "opcode_count": {}
        }
    }
}