{
    "tests/ported_static/stArgsZeroOneBalance/test_log1_non_const.py::test_log1_non_const[fork_Cancun-blockchain_test_from_state_test--v0]": {
        "network": "Cancun",
        "genesisBlockHeader": {
            "parentHash": "0x0000000000000000000000000000000000000000000000000000000000000000",
            "uncleHash": "0x1dcc4de8dec75d7aab85b567b6ccd41ad312451b948a7413f0a142fd40d49347",
            "coinbase": "0x0000000000000000000000000000000000000000",
            "stateRoot": "0x51d7a238384dffce15d8bc8cabd9ae1866cef41c9a4be27f2e06e6cac19c9cec",
            "transactionsTrie": "0x56e81f171bcc55a6ff8345e692c0f86e5b48e01b996cadc001622fb5e363b421",
            "receiptTrie": "0x56e81f171bcc55a6ff8345e692c0f86e5b48e01b996cadc001622fb5e363b421",
            "bloom": "0x00000000000000000000000000000000000000000000000000000000000000000000000000000000000000000000000000000000000000000000000000000000000000000000000000000000000000000000000000000000000000000000000000000000000000000000000000000000000000000000000000000000000000000000000000000000000000000000000000000000000000000000000000000000000000000000000000000000000000000000000000000000000000000000000000000000000000000000000000000000000000000000000000000000000000000000000000000000000000000000000000000000000000000000000000000000",
            "difficulty": "0x00",
            "number": "0x00",
            "gasLimit": "0x0f4240",
            "gasUsed": "0x00",
            "timestamp": "0x00",
            "extraData": "0x00",
            "mixHash": "0x0000000000000000000000000000000000000000000000000000000000000000",
            "nonce": "0x0000000000000000",
            "baseFeePerGas": "0x0b",
            "withdrawalsRoot": "0x56e81f171bcc55a6ff8345e692c0f86e5b48e01b996cadc001622fb5e363b421",
            "blobGasUsed": "0x00",
            "excessBlobGas": "0x00",
            "parentBeaconBlockRoot": "0x0000000000000000000000000000000000000000000000000000000000000000",
            "hash": "0x7b466deebe21c45d2da4f1d6c024ff279a6c58db39026cdb605d5eee189f8248"
        },
        "pre": {
            "0x000f3df6d732807ef1319fb7b8bb8522d0beac02": {
                "nonce": "0x01",
                "balance": "0x00",
                "code": "0x3373fffffffffffffffffffffffffffffffffffffffe14604d57602036146024575f5ffd5b5f35801560495762001fff810690815414603c575f5ffd5b62001fff01545f5260205ff35b5f5ffd5b62001fff42064281555f359062001fff015500",
                "storage": {}
            },
            "0xd66f224cbd2fabb21b17bb53c56118f32f62ebd6": {
                "nonce": "0x00",
                "balance": "0x0de0b6b3a7640000",
                "code": "0x",
                "storage": {}
            },
            "0x99914055ed765ea48582acc6c8196d07835da7d7": {
                "nonce": "0x00",
                "balance": "0x00",
                "code": "0x7399914055ed765ea48582acc6c8196d07835da7d7317399914055ed765ea48582acc6c8196d07835da7d7317399914055ed765ea48582acc6c8196d07835da7d731a100",
                "storage": {}
            }
        },
        "postState": {
            "0x000f3df6d732807ef1319fb7b8bb8522d0beac02": {
                "nonce": "0x01",
                "balance": "0x00",
                "code": "0x3373fffffffffffffffffffffffffffffffffffffffe14604d57602036146024575f5ffd5b5f35801560495762001fff810690815414603c575f5ffd5b62001fff01545f5260205ff35b5f5ffd5b62001fff42064281555f359062001fff015500",
                "storage": {
                    "0x03e8": "0x03e8"
                }
            },
            "0xd66f224cbd2fabb21b17bb53c56118f32f62ebd6": {
                "nonce": "0x01",
                "balance": "0x0de0b6b3a760a252",
                "code": "0x",
                "storage": {}
            },
            "0x99914055ed765ea48582acc6c8196d07835da7d7": {
                "nonce": "0x00",
                "balance": "0x00",
                "code": "0x7399914055ed765ea48582acc6c8196d07835da7d7317399914055ed765ea48582acc6c8196d07835da7d7317399914055ed765ea48582acc6c8196d07835da7d731a100",
                "storage": {}
            }
        },
        "lastblockhash": "0x785e5891a1f686a481a9745536f3087432cd02cb3f0322fda1a7d705cebd7847",
        "config": {
            "network": "Cancun",
            "chainid": "0x01",
            "blobSchedule": {
                "Cancun": {
                    "target": "0x03",
                    "max": "0x06",
                    "baseFeeUpdateFraction": "0x32f0ed"
                }
            }
        },
        "genesisRLP": "0xf9023bf90235a00000000000000000000000000000000000000000000000000000000000000000a01dcc4de8dec75d7aab85b567b6ccd41ad312451b948a7413f0a142fd40d49347940000000000000000000000000000000000000000a051d7a238384dffce15d8bc8cabd9ae1866cef41c9a4be27f2e06e6cac19c9ceca056e81f171bcc55a6ff8345e692c0f86e5b48e01b996cadc001622fb5e363b421a056e81f171bcc55a6ff8345e692c0f86e5b48e01b996cadc001622fb5e363b421b90100000000000000000000000000000000000000000000000000000000000000000000000000000000000000000000000000000000000000000000000000000000000000000000000000000000000000000000000000000000000000000000000000000000000000000000000000000000000000000000000000000000000000000000000000000000000000000000000000000000000000000000000000000000000000000000000000000000000000000000000000000000000000000000000000000000000000000000000000000000000000000000000000000000000000000000000000000000000000000000000000000000000000000000000000000000008080830f4240808000a000000000000000000000000000000000000000000000000000000000000000008800000000000000000ba056e81f171bcc55a6ff8345e692c0f86e5b48e01b996cadc001622fb5e363b4218080a00000000000000000000000000000000000000000000000000000000000000000c0c0c0",
        "blocks": [
            {
                "blockHeader": {
                    "parentHash": "0x7b466deebe21c45d2da4f1d6c024ff279a6c58db39026cdb605d5eee189f8248",
                    "uncleHash": "0x1dcc4de8dec75d7aab85b567b6ccd41ad312451b948a7413f0a142fd40d49347",
                    "coinbase": "0x2adc25665018aa1fe0e6bc666dac8fc2697ff9ba",
                    "stateRoot": "0xad9ec832b59a1fe67596dcf0323c926b8cd79b80e410ca0a5f8ff5b34930b461",
                    "transactionsTrie": "0x9251ae7db9736a50d218c9889d257c0df2883024d02ca643b6668a5a342ef538",
                    "receiptTrie": "0x272fea3f8db4da7b1b77aa55987c0c83ff372e0b55ba99c1bdba1952e7318e25",
                    "bloom": "0x00000000000000000200000000000000000000000000000000000000000000000000000000000000000000000000000000000000000000000000000000000000000000000000000000000000000000000000000000000000000000000000000000000000020000000000000000000800001000000000000000000000000000000000000000000000000002000000000000000000000000000000000000000000000000000000000000000000000000000000000000000000000000000000000000000000000000000000000000000000000000000000000000000000000020000000000000000000000000000000000000000000000000000000000000000000",
                    "difficulty": "0x00",
                    "number": "0x01",
                    "gasLimit": "0x0f4240",
                    "gasUsed": "0x562b",
                    "timestamp": "0x03e8",
                    "extraData": "0x00",
                    "mixHash": "0x0000000000000000000000000000000000000000000000000000000000020000",
                    "nonce": "0x0000000000000000",
                    "baseFeePerGas": "0x0a",
                    "withdrawalsRoot": "0x56e81f171bcc55a6ff8345e692c0f86e5b48e01b996cadc001622fb5e363b421",
                    "blobGasUsed": "0x00",
                    "excessBlobGas": "0x00",
                    "parentBeaconBlockRoot": "0x0000000000000000000000000000000000000000000000000000000000000000",
                    "hash": "0x785e5891a1f686a481a9745536f3087432cd02cb3f0322fda1a7d705cebd7847"
                },
                "transactions": [
                    {
                        "type": "0x00",
                        "chainId": "0x01",
                        "nonce": "0x00",
                        "gasPrice": "0x0a",
                        "gasLimit": "0x061a80",
                        "to": "0x99914055ed765ea48582acc6c8196d07835da7d7",
                        "value": "0x00",
                        "data": "0x",
                        "v": "0x25",
                        "r": "0xc6f9319a6429fdaf9491c55ccb73f3ca0af521da4ec17697f646d6c819ad5b1f",
                        "s": "0x66f64924fee4e4136e68ae4fd7f579fbca492e292ea34d603f77d40f9b6d761e",
                        "sender": "0xd66f224cbd2fabb21b17bb53c56118f32f62ebd6"
                    }
                ],
                "uncleHeaders": [],
                "withdrawals": [],
                "receipts": [
                    {
                        "transactionHash": "0x4e4f51acd08585b7177e1fec6be06ba571196381717341a8800fdfe434345141",
                        "type": "0x00",
                        "cumulativeGasUsed": "0x562b",
                        "bloom": "0x00000000000000000200000000000000000000000000000000000000000000000000000000000000000000000000000000000000000000000000000000000000000000000000000000000000000000000000000000000000000000000000000000000000020000000000000000000800001000000000000000000000000000000000000000000000000002000000000000000000000000000000000000000000000000000000000000000000000000000000000000000000000000000000000000000000000000000000000000000000000000000000000000000000000020000000000000000000000000000000000000000000000000000000000000000000",
                        "logs": [
                            {
                                "address": "0x99914055ed765ea48582acc6c8196d07835da7d7",
                                "topics": [
                                    "0x0000000000000000000000000000000000000000000000000000000000000000"
                                ],
                                "data": "0x"
                            }
                        ],
                        "status": true,
                        "rlp": "0xf901430182562bb9010000000000000000000200000000000000000000000000000000000000000000000000000000000000000000000000000000000000000000000000000000000000000000000000000000000000000000000000000000000000000000000000000000000000020000000000000000000800001000000000000000000000000000000000000000000000000002000000000000000000000000000000000000000000000000000000000000000000000000000000000000000000000000000000000000000000000000000000000000000000000000000000000000000000000020000000000000000000000000000000000000000000000000000000000000000000f83af8389499914055ed765ea48582acc6c8196d07835da7d7e1a0000000000000000000000000000000000000000000000000000000000000000080"
                    }
                ],
                "rlp": "0xf902a2f90239a07b466deebe21c45d2da4f1d6c024ff279a6c58db39026cdb605d5eee189f8248a01dcc4de8dec75d7aab85b567b6ccd41ad312451b948a7413f0a142fd40d49347942adc25665018aa1fe0e6bc666dac8fc2697ff9baa0ad9ec832b59a1fe67596dcf0323c926b8cd79b80e410ca0a5f8ff5b34930b461a09251ae7db9736a50d218c9889d257c0df2883024d02ca643b6668a5a342ef538a0272fea3f8db4da7b1b77aa55987c0c83ff372e0b55ba99c1bdba1952e7318e25b90100000000000000000002000000000000000000000000000000000000000000000000000000000000000000000000000000000000000000000000000000000000000000000000000000000000000000000000000000000000000000000000000000000000000200000000000000000008000010000000000000000000000000000000000000000000000000020000000000000000000000000000000000000000000000000000000000000000000000000000000000000000000000000000000000000000000000000000000000000000000000000000000000000000000000200000000000000000000000000000000000000000000000000000000000000000008001830f424082562b8203e800a000000000000000000000000000000000000000000000000000000000000200008800000000000000000aa056e81f171bcc55a6ff8345e692c0f86e5b48e01b996cadc001622fb5e363b4218080a00000000000000000000000000000000000000000000000000000000000000000f862f860800a83061a809499914055ed765ea48582acc6c8196d07835da7d7808025a0c6f9319a6429fdaf9491c55ccb73f3ca0af521da4ec17697f646d6c819ad5b1fa066f64924fee4e4136e68ae4fd7f579fbca492e292ea34d603f77d40f9b6d761ec0c0",
                "blocknumber": "1"
            }
        ],
        "sealEngine": "NoProof",
        "_info": {
            "hash": "0x56df989298b03bdbeb4c443a46934c4f4d6a3719af2e3943307445cb1744ce93",
            "fixture-format": "blockchain_test",
            "comment": "`execution-specs` generated test",
            "filling-transition-tool": "2.19.0",
            "description": "Test_log1_non_const.",
            "url": "https://github.com/ethereum/execution-specs/blob/tests-snobal-devnet-5@v8037.0.0/tests/ported_static/stArgsZeroOneBalance/test_log1_non_const.py#L28",
            "metadata": {
                "opcode_count": {}
            }
        }
    },
    "tests/ported_static/stArgsZeroOneBalance/test_log1_non_const.py::test_log1_non_const[fork_Cancun-blockchain_test_from_state_test--v1]": {
        "network": "Cancun",
        "genesisBlockHeader": {
            "parentHash": "0x0000000000000000000000000000000000000000000000000000000000000000",
            "uncleHash": "0x1dcc4de8dec75d7aab85b567b6ccd41ad312451b948a7413f0a142fd40d49347",
            "coinbase": "0x0000000000000000000000000000000000000000",
            "stateRoot": "0x51d7a238384dffce15d8bc8cabd9ae1866cef41c9a4be27f2e06e6cac19c9cec",
            "transactionsTrie": "0x56e81f171bcc55a6ff8345e692c0f86e5b48e01b996cadc001622fb5e363b421",
            "receiptTrie": "0x56e81f171bcc55a6ff8345e692c0f86e5b48e01b996cadc001622fb5e363b421",
            "bloom": "0x00000000000000000000000000000000000000000000000000000000000000000000000000000000000000000000000000000000000000000000000000000000000000000000000000000000000000000000000000000000000000000000000000000000000000000000000000000000000000000000000000000000000000000000000000000000000000000000000000000000000000000000000000000000000000000000000000000000000000000000000000000000000000000000000000000000000000000000000000000000000000000000000000000000000000000000000000000000000000000000000000000000000000000000000000000000",
            "difficulty": "0x00",
            "number": "0x00",
            "gasLimit": "0x0f4240",
            "gasUsed": "0x00",
            "timestamp": "0x00",
            "extraData": "0x00",
            "mixHash": "0x0000000000000000000000000000000000000000000000000000000000000000",
            "nonce": "0x0000000000000000",
            "baseFeePerGas": "0x0b",
            "withdrawalsRoot": "0x56e81f171bcc55a6ff8345e692c0f86e5b48e01b996cadc001622fb5e363b421",
            "blobGasUsed": "0x00",
            "excessBlobGas": "0x00",
            "parentBeaconBlockRoot": "0x0000000000000000000000000000000000000000000000000000000000000000",
            "hash": "0x7b466deebe21c45d2da4f1d6c024ff279a6c58db39026cdb605d5eee189f8248"
        },
        "pre": {
            "0x000f3df6d732807ef1319fb7b8bb8522d0beac02": {
                "nonce": "0x01",
                "balance": "0x00",
                "code": "0x3373fffffffffffffffffffffffffffffffffffffffe14604d57602036146024575f5ffd5b5f35801560495762001fff810690815414603c575f5ffd5b62001fff01545f5260205ff35b5f5ffd5b62001fff42064281555f359062001fff015500",
                "storage": {}
            },
            "0xd66f224cbd2fabb21b17bb53c56118f32f62ebd6": {
                "nonce": "0x00",
                "balance": "0x0de0b6b3a7640000",
                "code": "0x",
                "storage": {}
            },
            "0x99914055ed765ea48582acc6c8196d07835da7d7": {
                "nonce": "0x00",
                "balance": "0x00",
                "code": "0x7399914055ed765ea48582acc6c8196d07835da7d7317399914055ed765ea48582acc6c8196d07835da7d7317399914055ed765ea48582acc6c8196d07835da7d731a100",
                "storage": {}
            }
        },
        "postState": {
            "0x000f3df6d732807ef1319fb7b8bb8522d0beac02": {
                "nonce": "0x01",
                "balance": "0x00",
                "code": "0x3373fffffffffffffffffffffffffffffffffffffffe14604d57602036146024575f5ffd5b5f35801560495762001fff810690815414603c575f5ffd5b62001fff01545f5260205ff35b5f5ffd5b62001fff42064281555f359062001fff015500",
                "storage": {
                    "0x03e8": "0x03e8"
                }
            },
            "0xd66f224cbd2fabb21b17bb53c56118f32f62ebd6": {
                "nonce": "0x01",
                "balance": "0x0de0b6b3a760a1e3",
                "code": "0x",
                "storage": {}
            },
            "0x99914055ed765ea48582acc6c8196d07835da7d7": {
                "nonce": "0x00",
                "balance": "0x01",
                "code": "0x7399914055ed765ea48582acc6c8196d07835da7d7317399914055ed765ea48582acc6c8196d07835da7d7317399914055ed765ea48582acc6c8196d07835da7d731a100",
                "storage": {}
            }
        },
        "lastblockhash": "0x4ba4c1143628a99cc558895f58ad1b766aad871812b19fa67bad4d344702074b",
        "config": {
            "network": "Cancun",
            "chainid": "0x01",
            "blobSchedule": {
                "Cancun": {
                    "target": "0x03",
                    "max": "0x06",
                    "baseFeeUpdateFraction": "0x32f0ed"
                }
            }
        },
        "genesisRLP": "0xf9023bf90235a00000000000000000000000000000000000000000000000000000000000000000a01dcc4de8dec75d7aab85b567b6ccd41ad312451b948a7413f0a142fd40d49347940000000000000000000000000000000000000000a051d7a238384dffce15d8bc8cabd9ae1866cef41c9a4be27f2e06e6cac19c9ceca056e81f171bcc55a6ff8345e692c0f86e5b48e01b996cadc001622fb5e363b421a056e81f171bcc55a6ff8345e692c0f86e5b48e01b996cadc001622fb5e363b421b90100000000000000000000000000000000000000000000000000000000000000000000000000000000000000000000000000000000000000000000000000000000000000000000000000000000000000000000000000000000000000000000000000000000000000000000000000000000000000000000000000000000000000000000000000000000000000000000000000000000000000000000000000000000000000000000000000000000000000000000000000000000000000000000000000000000000000000000000000000000000000000000000000000000000000000000000000000000000000000000000000000000000000000000000000000000008080830f4240808000a000000000000000000000000000000000000000000000000000000000000000008800000000000000000ba056e81f171bcc55a6ff8345e692c0f86e5b48e01b996cadc001622fb5e363b4218080a00000000000000000000000000000000000000000000000000000000000000000c0c0c0",
        "blocks": [
            {
                "blockHeader": {
                    "parentHash": "0x7b466deebe21c45d2da4f1d6c024ff279a6c58db39026cdb605d5eee189f8248",
                    "uncleHash": "0x1dcc4de8dec75d7aab85b567b6ccd41ad312451b948a7413f0a142fd40d49347",
                    "coinbase": "0x2adc25665018aa1fe0e6bc666dac8fc2697ff9ba",
                    "stateRoot": "0x4cb6125cdbcb77e2cfe3658cdafd32ac159bf07ba2822d5c2d8e94cf00dd70da",
                    "transactionsTrie": "0x794e8fde8464636387d84df8c044c7cc684eeb129b47d1ae97df47b3eb88571b",
                    "receiptTrie": "0x0d915d129998e646de8b0e0f9ffec8f1f8e0f9c82b59fc0e2a0a3102a5889a97",
                    "bloom": "0x00000000000000000200000000000000000000000000000000000000000000000000000000000000000000000000000000000000000000000000000000040000000000000000000000000000000000000000000000040000000000000000000000000000000000000000000000000000001000000000000000000000000000000000000000000000000002000000000000000000000000000000000000000000000000000000000000000000000000000000000000000000000000000000000000000000000000000000000000000000000000000000000000000000000040000000000000000000000000000000000000000000000000000000000000000000",
                    "difficulty": "0x00",
                    "number": "0x01",
                    "gasLimit": "0x0f4240",
                    "gasUsed": "0x5636",
                    "timestamp": "0x03e8",
                    "extraData": "0x00",
                    "mixHash": "0x0000000000000000000000000000000000000000000000000000000000020000",
                    "nonce": "0x0000000000000000",
                    "baseFeePerGas": "0x0a",
                    "withdrawalsRoot": "0x56e81f171bcc55a6ff8345e692c0f86e5b48e01b996cadc001622fb5e363b421",
                    "blobGasUsed": "0x00",
                    "excessBlobGas": "0x00",
                    "parentBeaconBlockRoot": "0x0000000000000000000000000000000000000000000000000000000000000000",
                    "hash": "0x4ba4c1143628a99cc558895f58ad1b766aad871812b19fa67bad4d344702074b"
                },
                "transactions": [
                    {
                        "type": "0x00",
                        "chainId": "0x01",
                        "nonce": "0x00",
                        "gasPrice": "0x0a",
                        "gasLimit": "0x061a80",
                        "to": "0x99914055ed765ea48582acc6c8196d07835da7d7",
                        "value": "0x01",
                        "data": "0x",
                        "v": "0x25",
                        "r": "0xbad4ff8edd979b03e6d705bf65d7b84fa7ea7a30a662369ede6b10c6385bb4ef",
                        "s": "0x4c46da338742830e00c70d3ba73dff3027cef9caa1c6417baed1ab784d1ed81d",
                        "sender": "0xd66f224cbd2fabb21b17bb53c56118f32f62ebd6"
                    }
                ],
                "uncleHeaders": [],
                "withdrawals": [],
                "receipts": [
                    {
                        "transactionHash": "0xd9ee971aabffda01387b301f3bf93263c26d5935dd8425f257a0b40a264e3091",
                        "type": "0x00",
                        "cumulativeGasUsed": "0x5636",
                        "bloom": "0x00000000000000000200000000000000000000000000000000000000000000000000000000000000000000000000000000000000000000000000000000040000000000000000000000000000000000000000000000040000000000000000000000000000000000000000000000000000001000000000000000000000000000000000000000000000000002000000000000000000000000000000000000000000000000000000000000000000000000000000000000000000000000000000000000000000000000000000000000000000000000000000000000000000000040000000000000000000000000000000000000000000000000000000000000000000",
                        "logs": [
                            {
                                "address": "0x99914055ed765ea48582acc6c8196d07835da7d7",
                                "topics": [
                                    "0x0000000000000000000000000000000000000000000000000000000000000001"
                                ],
                                "data": "0x00"
                            }
                        ],
                        "status": true,
                        "rlp": "0xf9014301825636b9010000000000000000000200000000000000000000000000000000000000000000000000000000000000000000000000000000000000000000000000000000040000000000000000000000000000000000000000000000040000000000000000000000000000000000000000000000000000001000000000000000000000000000000000000000000000000002000000000000000000000000000000000000000000000000000000000000000000000000000000000000000000000000000000000000000000000000000000000000000000000000000000000000000000000040000000000000000000000000000000000000000000000000000000000000000000f83af8389499914055ed765ea48582acc6c8196d07835da7d7e1a0000000000000000000000000000000000000000000000000000000000000000100"
                    }
                ],
                "rlp": "0xf902a2f90239a07b466deebe21c45d2da4f1d6c024ff279a6c58db39026cdb605d5eee189f8248a01dcc4de8dec75d7aab85b567b6ccd41ad312451b948a7413f0a142fd40d49347942adc25665018aa1fe0e6bc666dac8fc2697ff9baa04cb6125cdbcb77e2cfe3658cdafd32ac159bf07ba2822d5c2d8e94cf00dd70daa0794e8fde8464636387d84df8c044c7cc684eeb129b47d1ae97df47b3eb88571ba00d915d129998e646de8b0e0f9ffec8f1f8e0f9c82b59fc0e2a0a3102a5889a97b90100000000000000000002000000000000000000000000000000000000000000000000000000000000000000000000000000000000000000000000000000000400000000000000000000000000000000000000000000000400000000000000000000000000000000000000000000000000000010000000000000000000000000000000000000000000000000020000000000000000000000000000000000000000000000000000000000000000000000000000000000000000000000000000000000000000000000000000000000000000000000000000000000000000000000400000000000000000000000000000000000000000000000000000000000000000008001830f42408256368203e800a000000000000000000000000000000000000000000000000000000000000200008800000000000000000aa056e81f171bcc55a6ff8345e692c0f86e5b48e01b996cadc001622fb5e363b4218080a00000000000000000000000000000000000000000000000000000000000000000f862f860800a83061a809499914055ed765ea48582acc6c8196d07835da7d7018025a0bad4ff8edd979b03e6d705bf65d7b84fa7ea7a30a662369ede6b10c6385bb4efa04c46da338742830e00c70d3ba73dff3027cef9caa1c6417baed1ab784d1ed81dc0c0",
                "blocknumber": "1"
            }
        ],
        "sealEngine": "NoProof",
        "_info": {
            "hash": "0x15f86f3cc074cf346c28988535e0b70ea9ec8978be8f2fa24a7e51359b1ffefd",
            "fixture-format": "blockchain_test",
            "comment": "`execution-specs` generated test",
            "filling-transition-tool": "2.19.0",
            "description": "Test_log1_non_const.",
            "url": "https://github.com/ethereum/execution-specs/blob/tests-snobal-devnet-5@v8037.0.0/tests/ported_static/stArgsZeroOneBalance/test_log1_non_const.py#L28",
            "metadata": {
                "opcode_count": {}
            }
        }
    }
}