{
    "tests/ported_static/stCallCodes/test_callcall_00_ooge_value_transfer.py::test_callcall_00_ooge_value_transfer[fork_Cancun-blockchain_test_from_state_test]": {
        "network": "Cancun",
        "genesisBlockHeader": {
            "parentHash": "0x0000000000000000000000000000000000000000000000000000000000000000",
            "uncleHash": "0x1dcc4de8dec75d7aab85b567b6ccd41ad312451b948a7413f0a142fd40d49347",
            "coinbase": "0x0000000000000000000000000000000000000000",
            "stateRoot": "0x68adfe124e3f8d4a83f2d2aeda0c9807f9f83cbe26f73465c589823c9012403f",
            "transactionsTrie": "0x56e81f171bcc55a6ff8345e692c0f86e5b48e01b996cadc001622fb5e363b421",
            "receiptTrie": "0x56e81f171bcc55a6ff8345e692c0f86e5b48e01b996cadc001622fb5e363b421",
            "bloom": "0x00000000000000000000000000000000000000000000000000000000000000000000000000000000000000000000000000000000000000000000000000000000000000000000000000000000000000000000000000000000000000000000000000000000000000000000000000000000000000000000000000000000000000000000000000000000000000000000000000000000000000000000000000000000000000000000000000000000000000000000000000000000000000000000000000000000000000000000000000000000000000000000000000000000000000000000000000000000000000000000000000000000000000000000000000000000",
            "difficulty": "0x00",
            "number": "0x00",
            "gasLimit": "0x01c9c380",
            "gasUsed": "0x00",
            "timestamp": "0x00",
            "extraData": "0x00",
            "mixHash": "0x0000000000000000000000000000000000000000000000000000000000000000",
            "nonce": "0x0000000000000000",
            "baseFeePerGas": "0x0b",
            "withdrawalsRoot": "0x56e81f171bcc55a6ff8345e692c0f86e5b48e01b996cadc001622fb5e363b421",
            "blobGasUsed": "0x00",
            "excessBlobGas": "0x00",
            "parentBeaconBlockRoot": "0x0000000000000000000000000000000000000000000000000000000000000000",
            "hash": "0xcf97b8e83eeee1dfd52b24067619da969a82270d5a26f3d01533c850f12a7896"
        },
        "pre": {
            "0x000f3df6d732807ef1319fb7b8bb8522d0beac02": {
                "nonce": "0x01",
                "balance": "0x00",
                "code": "0x3373fffffffffffffffffffffffffffffffffffffffe14604d57602036146024575f5ffd5b5f35801560495762001fff810690815414603c575f5ffd5b62001fff01545f5260205ff35b5f5ffd5b62001fff42064281555f359062001fff015500",
                "storage": {}
            },
            "0xb06c4ff2e2503bb892cc3c9237a1ae465a759616": {
                "nonce": "0x00",
                "balance": "0x0de0b6b3a7640000",
                "code": "0x6040600060406000601473a781ad010268e97d590d07e5b442975243b2f05b620c3500f160005500",
                "storage": {}
            },
            "0xa781ad010268e97d590d07e5b442975243b2f05b": {
                "nonce": "0x00",
                "balance": "0x00",
                "code": "0x6040600060406000600a73766b2cf0691f51029181fc511395b7ab71353a88620927c0f16001556001600b5500",
                "storage": {}
            },
            "0x766b2cf0691f51029181fc511395b7ab71353a88": {
                "nonce": "0x00",
                "balance": "0x00",
                "code": "0x6001600255622fffff60002000",
                "storage": {}
            },
            "0xebaf50debf10e08302fe4280c32df010463ca297": {
                "nonce": "0x00",
                "balance": "0x0de0b6b3a7640000",
                "code": "0x",
                "storage": {}
            }
        },
        "postState": {
            "0x000f3df6d732807ef1319fb7b8bb8522d0beac02": {
                "nonce": "0x01",
                "balance": "0x00",
                "code": "0x3373fffffffffffffffffffffffffffffffffffffffe14604d57602036146024575f5ffd5b5f35801560495762001fff810690815414603c575f5ffd5b62001fff01545f5260205ff35b5f5ffd5b62001fff42064281555f359062001fff015500",
                "storage": {
                    "0x03e8": "0x03e8"
                }
            },
            "0xb06c4ff2e2503bb892cc3c9237a1ae465a759616": {
                "nonce": "0x00",
                "balance": "0x0de0b6b3a763ffec",
                "code": "0x6040600060406000601473a781ad010268e97d590d07e5b442975243b2f05b620c3500f160005500",
                "storage": {
                    "0x00": "0x01"
                }
            },
            "0xa781ad010268e97d590d07e5b442975243b2f05b": {
                "nonce": "0x00",
                "balance": "0x14",
                "code": "0x6040600060406000600a73766b2cf0691f51029181fc511395b7ab71353a88620927c0f16001556001600b5500",
                "storage": {
                    "0x0b": "0x01"
                }
            },
            "0x766b2cf0691f51029181fc511395b7ab71353a88": {
                "nonce": "0x00",
                "balance": "0x00",
                "code": "0x6001600255622fffff60002000",
                "storage": {}
            },
            "0xebaf50debf10e08302fe4280c32df010463ca297": {
                "nonce": "0x01",
                "balance": "0x0de0b6b3a6faf6b4",
                "code": "0x",
                "storage": {}
            }
        },
        "lastblockhash": "0x6562bce390b3cd0c48ce11bdbb39a6379986cf828eaa5aebbb5db19df9809c45",
        "config": {
            "network": "Cancun",
            "chainid": "0x01",
            "blobSchedule": {
                "Cancun": {
                    "target": "0x03",
                    "max": "0x06",
                    "baseFeeUpdateFraction": "0x32f0ed"
                }
            }
        },
        "genesisRLP": "0xf9023cf90236a00000000000000000000000000000000000000000000000000000000000000000a01dcc4de8dec75d7aab85b567b6ccd41ad312451b948a7413f0a142fd40d49347940000000000000000000000000000000000000000a068adfe124e3f8d4a83f2d2aeda0c9807f9f83cbe26f73465c589823c9012403fa056e81f171bcc55a6ff8345e692c0f86e5b48e01b996cadc001622fb5e363b421a056e81f171bcc55a6ff8345e692c0f86e5b48e01b996cadc001622fb5e363b421b901000000000000000000000000000000000000000000000000000000000000000000000000000000000000000000000000000000000000000000000000000000000000000000000000000000000000000000000000000000000000000000000000000000000000000000000000000000000000000000000000000000000000000000000000000000000000000000000000000000000000000000000000000000000000000000000000000000000000000000000000000000000000000000000000000000000000000000000000000000000000000000000000000000000000000000000000000000000000000000000000000000000000000000000000000000000080808401c9c380808000a000000000000000000000000000000000000000000000000000000000000000008800000000000000000ba056e81f171bcc55a6ff8345e692c0f86e5b48e01b996cadc001622fb5e363b4218080a00000000000000000000000000000000000000000000000000000000000000000c0c0c0",
        "blocks": [
            {
                "blockHeader": {
                    "parentHash": "0xcf97b8e83eeee1dfd52b24067619da969a82270d5a26f3d01533c850f12a7896",
                    "uncleHash": "0x1dcc4de8dec75d7aab85b567b6ccd41ad312451b948a7413f0a142fd40d49347",
                    "coinbase": "0x2adc25665018aa1fe0e6bc666dac8fc2697ff9ba",
                    "stateRoot": "0x7f6972f4206c533fa37c7be9224e562bf95c750ad2883faf3740102bacf754b1",
                    "transactionsTrie": "0x3dc3a1396e179ba6dd98f54aa5bb78ab89271e1d328e327f4731fe39df35599e",
                    "receiptTrie": "0xfc19a8826cbe223183e039b5c967b998ff19a7ec8cfe8626e02af18aea275d73",
                    "bloom": "0x00000000000000000000000000000000000000000000000000000000000000000000000000000000000000000000000000000000000000000000000000000000000000000000000000000000000000000000000000000000000000000000000000000000000000000000000000000000000000000000000000000000000000000000000000000000000000000000000000000000000000000000000000000000000000000000000000000000000000000000000000000000000000000000000000000000000000000000000000000000000000000000000000000000000000000000000000000000000000000000000000000000000000000000000000000000",
                    "difficulty": "0x00",
                    "number": "0x01",
                    "gasLimit": "0x01c9c380",
                    "gasUsed": "0x0a80ee",
                    "timestamp": "0x03e8",
                    "extraData": "0x00",
                    "mixHash": "0x0000000000000000000000000000000000000000000000000000000000020000",
                    "nonce": "0x0000000000000000",
                    "baseFeePerGas": "0x0a",
                    "withdrawalsRoot": "0x56e81f171bcc55a6ff8345e692c0f86e5b48e01b996cadc001622fb5e363b421",
                    "blobGasUsed": "0x00",
                    "excessBlobGas": "0x00",
                    "parentBeaconBlockRoot": "0x0000000000000000000000000000000000000000000000000000000000000000",
                    "hash": "0x6562bce390b3cd0c48ce11bdbb39a6379986cf828eaa5aebbb5db19df9809c45"
                },
                "transactions": [
                    {
                        "type": "0x00",
                        "chainId": "0x01",
                        "nonce": "0x00",
                        "gasPrice": "0x0a",
                        "gasLimit": "0x0f4240",
                        "to": "0xb06c4ff2e2503bb892cc3c9237a1ae465a759616",
                        "value": "0x00",
                        "data": "0x",
                        "v": "0x26",
                        "r": "0x83bc2392be00db420cee2c222ffb34af76afab4602629cec8ca6463258fca3b1",
                        "s": "0x6d5c97812130206dd4f47197c2856dd9b81b2d425756f2526761963a5dd7cf89",
                        "sender": "0xebaf50debf10e08302fe4280c32df010463ca297"
                    }
                ],
                "uncleHeaders": [],
                "withdrawals": [],
                "receipts": [
                    {
                        "transactionHash": "0xf9703c73c6b51a9695f58562f91e7ee5b1a964870b5ecbfe86f6ad2f4d1da641",
                        "type": "0x00",
                        "cumulativeGasUsed": "0x0a80ee",
                        "bloom": "0x00000000000000000000000000000000000000000000000000000000000000000000000000000000000000000000000000000000000000000000000000000000000000000000000000000000000000000000000000000000000000000000000000000000000000000000000000000000000000000000000000000000000000000000000000000000000000000000000000000000000000000000000000000000000000000000000000000000000000000000000000000000000000000000000000000000000000000000000000000000000000000000000000000000000000000000000000000000000000000000000000000000000000000000000000000000",
                        "logs": [],
                        "status": true,
                        "rlp": "0xf9010901830a80eeb9010000000000000000000000000000000000000000000000000000000000000000000000000000000000000000000000000000000000000000000000000000000000000000000000000000000000000000000000000000000000000000000000000000000000000000000000000000000000000000000000000000000000000000000000000000000000000000000000000000000000000000000000000000000000000000000000000000000000000000000000000000000000000000000000000000000000000000000000000000000000000000000000000000000000000000000000000000000000000000000000000000000000000000000000000000000000c0"
                    }
                ],
                "rlp": "0xf902a4f9023ba0cf97b8e83eeee1dfd52b24067619da969a82270d5a26f3d01533c850f12a7896a01dcc4de8dec75d7aab85b567b6ccd41ad312451b948a7413f0a142fd40d49347942adc25665018aa1fe0e6bc666dac8fc2697ff9baa07f6972f4206c533fa37c7be9224e562bf95c750ad2883faf3740102bacf754b1a03dc3a1396e179ba6dd98f54aa5bb78ab89271e1d328e327f4731fe39df35599ea0fc19a8826cbe223183e039b5c967b998ff19a7ec8cfe8626e02af18aea275d73b901000000000000000000000000000000000000000000000000000000000000000000000000000000000000000000000000000000000000000000000000000000000000000000000000000000000000000000000000000000000000000000000000000000000000000000000000000000000000000000000000000000000000000000000000000000000000000000000000000000000000000000000000000000000000000000000000000000000000000000000000000000000000000000000000000000000000000000000000000000000000000000000000000000000000000000000000000000000000000000000000000000000000000000000000000000000080018401c9c380830a80ee8203e800a000000000000000000000000000000000000000000000000000000000000200008800000000000000000aa056e81f171bcc55a6ff8345e692c0f86e5b48e01b996cadc001622fb5e363b4218080a00000000000000000000000000000000000000000000000000000000000000000f862f860800a830f424094b06c4ff2e2503bb892cc3c9237a1ae465a759616808026a083bc2392be00db420cee2c222ffb34af76afab4602629cec8ca6463258fca3b1a06d5c97812130206dd4f47197c2856dd9b81b2d425756f2526761963a5dd7cf89c0c0",
                "blocknumber": "1"
            }
        ],
        "sealEngine": "NoProof",
        "_info": {
            "hash": "0x747883a242e19604b281642d3a395aaa45263b89a41593c999b0b6a11190949e",
            "fixture-format": "blockchain_test",
            "comment": "`execution-specs` generated test",
            "filling-transition-tool": "2.19.0",
            "description": "Call -> call -> code oog .",
            "url": "https://github.com/ethereum/execution-specs/blob/tests-sn\u00f8bal-devnet-4@v1.0.0/tests/ported_static/stCallCodes/test_callcall_00_ooge_value_transfer.py#L25",
            "metadata": {
                "opcode_count": {}
            }
        }
    }
}