{
    "tests/ported_static/stCallCodes/test_callcall_00_ooge_value_transfer.py::test_callcall_00_ooge_value_transfer[fork_Cancun-blockchain_test_from_state_test]": {
        "network": "Cancun",
        "genesisBlockHeader": {
            "parentHash": "0x0000000000000000000000000000000000000000000000000000000000000000",
            "uncleHash": "0x1dcc4de8dec75d7aab85b567b6ccd41ad312451b948a7413f0a142fd40d49347",
            "coinbase": "0x0000000000000000000000000000000000000000",
            "stateRoot": "0x0987da7c0516974819db715cf1ad0d448d17bd4ec3098902bd70bb6a24b863b0",
            "transactionsTrie": "0x56e81f171bcc55a6ff8345e692c0f86e5b48e01b996cadc001622fb5e363b421",
            "receiptTrie": "0x56e81f171bcc55a6ff8345e692c0f86e5b48e01b996cadc001622fb5e363b421",
            "bloom": "0x00000000000000000000000000000000000000000000000000000000000000000000000000000000000000000000000000000000000000000000000000000000000000000000000000000000000000000000000000000000000000000000000000000000000000000000000000000000000000000000000000000000000000000000000000000000000000000000000000000000000000000000000000000000000000000000000000000000000000000000000000000000000000000000000000000000000000000000000000000000000000000000000000000000000000000000000000000000000000000000000000000000000000000000000000000000",
            "difficulty": "0x00",
            "number": "0x00",
            "gasLimit": "0x01c9c380",
            "gasUsed": "0x00",
            "timestamp": "0x00",
            "extraData": "0x00",
            "mixHash": "0x0000000000000000000000000000000000000000000000000000000000000000",
            "nonce": "0x0000000000000000",
            "baseFeePerGas": "0x0b",
            "withdrawalsRoot": "0x56e81f171bcc55a6ff8345e692c0f86e5b48e01b996cadc001622fb5e363b421",
            "blobGasUsed": "0x00",
            "excessBlobGas": "0x00",
            "parentBeaconBlockRoot": "0x0000000000000000000000000000000000000000000000000000000000000000",
            "hash": "0x4acc9248ae1a5c4b0a84316fccd28c3fbfaedfacc560891545cf1caff54ff640"
        },
        "pre": {
            "0x000f3df6d732807ef1319fb7b8bb8522d0beac02": {
                "nonce": "0x01",
                "balance": "0x00",
                "code": "0x3373fffffffffffffffffffffffffffffffffffffffe14604d57602036146024575f5ffd5b5f35801560495762001fff810690815414603c575f5ffd5b62001fff01545f5260205ff35b5f5ffd5b62001fff42064281555f359062001fff015500",
                "storage": {}
            },
            "0xd66f224cbd2fabb21b17bb53c56118f32f62ebd6": {
                "nonce": "0x00",
                "balance": "0x0de0b6b3a7640000",
                "code": "0x",
                "storage": {}
            },
            "0x1154a71cbccc162947eb8988db8ab2cbfd164c80": {
                "nonce": "0x00",
                "balance": "0x00",
                "code": "0x6001600255622fffff60002000",
                "storage": {}
            },
            "0x3a82a766afdcb39f56cc6e17fd319fa99cf3d0d7": {
                "nonce": "0x00",
                "balance": "0x00",
                "code": "0x6040600060406000600a731154a71cbccc162947eb8988db8ab2cbfd164c80620927c0f16001556001600b5500",
                "storage": {}
            },
            "0x410dbb2d7941e3282bc19edcc3434e477bf95ce3": {
                "nonce": "0x00",
                "balance": "0x0de0b6b3a7640000",
                "code": "0x60406000604060006014733a82a766afdcb39f56cc6e17fd319fa99cf3d0d7620c3500f160005500",
                "storage": {}
            }
        },
        "postState": {
            "0x000f3df6d732807ef1319fb7b8bb8522d0beac02": {
                "nonce": "0x01",
                "balance": "0x00",
                "code": "0x3373fffffffffffffffffffffffffffffffffffffffe14604d57602036146024575f5ffd5b5f35801560495762001fff810690815414603c575f5ffd5b62001fff01545f5260205ff35b5f5ffd5b62001fff42064281555f359062001fff015500",
                "storage": {
                    "0x03e8": "0x03e8"
                }
            },
            "0xd66f224cbd2fabb21b17bb53c56118f32f62ebd6": {
                "nonce": "0x01",
                "balance": "0x0de0b6b3a6faf6b4",
                "code": "0x",
                "storage": {}
            },
            "0x1154a71cbccc162947eb8988db8ab2cbfd164c80": {
                "nonce": "0x00",
                "balance": "0x00",
                "code": "0x6001600255622fffff60002000",
                "storage": {}
            },
            "0x3a82a766afdcb39f56cc6e17fd319fa99cf3d0d7": {
                "nonce": "0x00",
                "balance": "0x14",
                "code": "0x6040600060406000600a731154a71cbccc162947eb8988db8ab2cbfd164c80620927c0f16001556001600b5500",
                "storage": {
                    "0x0b": "0x01"
                }
            },
            "0x410dbb2d7941e3282bc19edcc3434e477bf95ce3": {
                "nonce": "0x00",
                "balance": "0x0de0b6b3a763ffec",
                "code": "0x60406000604060006014733a82a766afdcb39f56cc6e17fd319fa99cf3d0d7620c3500f160005500",
                "storage": {
                    "0x00": "0x01"
                }
            }
        },
        "lastblockhash": "0xa5ba6d3defbc0b0f211d2f7bb1fa8b704fb19ba622774cefa4d62ee503f1d41d",
        "config": {
            "network": "Cancun",
            "chainid": "0x01",
            "blobSchedule": {
                "Cancun": {
                    "target": "0x03",
                    "max": "0x06",
                    "baseFeeUpdateFraction": "0x32f0ed"
                }
            }
        },
        "genesisRLP": "0xf9023cf90236a00000000000000000000000000000000000000000000000000000000000000000a01dcc4de8dec75d7aab85b567b6ccd41ad312451b948a7413f0a142fd40d49347940000000000000000000000000000000000000000a00987da7c0516974819db715cf1ad0d448d17bd4ec3098902bd70bb6a24b863b0a056e81f171bcc55a6ff8345e692c0f86e5b48e01b996cadc001622fb5e363b421a056e81f171bcc55a6ff8345e692c0f86e5b48e01b996cadc001622fb5e363b421b901000000000000000000000000000000000000000000000000000000000000000000000000000000000000000000000000000000000000000000000000000000000000000000000000000000000000000000000000000000000000000000000000000000000000000000000000000000000000000000000000000000000000000000000000000000000000000000000000000000000000000000000000000000000000000000000000000000000000000000000000000000000000000000000000000000000000000000000000000000000000000000000000000000000000000000000000000000000000000000000000000000000000000000000000000000000080808401c9c380808000a000000000000000000000000000000000000000000000000000000000000000008800000000000000000ba056e81f171bcc55a6ff8345e692c0f86e5b48e01b996cadc001622fb5e363b4218080a00000000000000000000000000000000000000000000000000000000000000000c0c0c0",
        "blocks": [
            {
                "blockHeader": {
                    "parentHash": "0x4acc9248ae1a5c4b0a84316fccd28c3fbfaedfacc560891545cf1caff54ff640",
                    "uncleHash": "0x1dcc4de8dec75d7aab85b567b6ccd41ad312451b948a7413f0a142fd40d49347",
                    "coinbase": "0x2adc25665018aa1fe0e6bc666dac8fc2697ff9ba",
                    "stateRoot": "0xefedac3e716ce5a49575b60cb0f1b85ad6c5287c6c9ae6e9a3c2cef3cabdba67",
                    "transactionsTrie": "0x85016506883a362407637103c3fe06684c31de3a82fdae5fcf02b003866a05e0",
                    "receiptTrie": "0xfc19a8826cbe223183e039b5c967b998ff19a7ec8cfe8626e02af18aea275d73",
                    "bloom": "0x00000000000000000000000000000000000000000000000000000000000000000000000000000000000000000000000000000000000000000000000000000000000000000000000000000000000000000000000000000000000000000000000000000000000000000000000000000000000000000000000000000000000000000000000000000000000000000000000000000000000000000000000000000000000000000000000000000000000000000000000000000000000000000000000000000000000000000000000000000000000000000000000000000000000000000000000000000000000000000000000000000000000000000000000000000000",
                    "difficulty": "0x00",
                    "number": "0x01",
                    "gasLimit": "0x01c9c380",
                    "gasUsed": "0x0a80ee",
                    "timestamp": "0x03e8",
                    "extraData": "0x00",
                    "mixHash": "0x0000000000000000000000000000000000000000000000000000000000020000",
                    "nonce": "0x0000000000000000",
                    "baseFeePerGas": "0x0a",
                    "withdrawalsRoot": "0x56e81f171bcc55a6ff8345e692c0f86e5b48e01b996cadc001622fb5e363b421",
                    "blobGasUsed": "0x00",
                    "excessBlobGas": "0x00",
                    "parentBeaconBlockRoot": "0x0000000000000000000000000000000000000000000000000000000000000000",
                    "hash": "0xa5ba6d3defbc0b0f211d2f7bb1fa8b704fb19ba622774cefa4d62ee503f1d41d"
                },
                "transactions": [
                    {
                        "type": "0x00",
                        "chainId": "0x01",
                        "nonce": "0x00",
                        "gasPrice": "0x0a",
                        "gasLimit": "0x0f4240",
                        "to": "0x410dbb2d7941e3282bc19edcc3434e477bf95ce3",
                        "value": "0x00",
                        "data": "0x",
                        "v": "0x25",
                        "r": "0xc2d68c258c7ba8ce76dddf3a7cb936b9da93a9325f699dcd89b75af073bfa1f8",
                        "s": "0x635a767dcd81fca4496363b84e641a4f3c8cab330e7ced579e3863ff8be6fbd8",
                        "sender": "0xd66f224cbd2fabb21b17bb53c56118f32f62ebd6"
                    }
                ],
                "uncleHeaders": [],
                "withdrawals": [],
                "receipts": [
                    {
                        "transactionHash": "0x24003babc462a1eea9aa74f3aa5c92493aa396d7528a5e5883c1ed5d976eaa19",
                        "type": "0x00",
                        "cumulativeGasUsed": "0x0a80ee",
                        "bloom": "0x00000000000000000000000000000000000000000000000000000000000000000000000000000000000000000000000000000000000000000000000000000000000000000000000000000000000000000000000000000000000000000000000000000000000000000000000000000000000000000000000000000000000000000000000000000000000000000000000000000000000000000000000000000000000000000000000000000000000000000000000000000000000000000000000000000000000000000000000000000000000000000000000000000000000000000000000000000000000000000000000000000000000000000000000000000000",
                        "logs": [],
                        "status": true,
                        "rlp": "0xf9010901830a80eeb9010000000000000000000000000000000000000000000000000000000000000000000000000000000000000000000000000000000000000000000000000000000000000000000000000000000000000000000000000000000000000000000000000000000000000000000000000000000000000000000000000000000000000000000000000000000000000000000000000000000000000000000000000000000000000000000000000000000000000000000000000000000000000000000000000000000000000000000000000000000000000000000000000000000000000000000000000000000000000000000000000000000000000000000000000000000000c0"
                    }
                ],
                "rlp": "0xf902a4f9023ba04acc9248ae1a5c4b0a84316fccd28c3fbfaedfacc560891545cf1caff54ff640a01dcc4de8dec75d7aab85b567b6ccd41ad312451b948a7413f0a142fd40d49347942adc25665018aa1fe0e6bc666dac8fc2697ff9baa0efedac3e716ce5a49575b60cb0f1b85ad6c5287c6c9ae6e9a3c2cef3cabdba67a085016506883a362407637103c3fe06684c31de3a82fdae5fcf02b003866a05e0a0fc19a8826cbe223183e039b5c967b998ff19a7ec8cfe8626e02af18aea275d73b901000000000000000000000000000000000000000000000000000000000000000000000000000000000000000000000000000000000000000000000000000000000000000000000000000000000000000000000000000000000000000000000000000000000000000000000000000000000000000000000000000000000000000000000000000000000000000000000000000000000000000000000000000000000000000000000000000000000000000000000000000000000000000000000000000000000000000000000000000000000000000000000000000000000000000000000000000000000000000000000000000000000000000000000000000000000080018401c9c380830a80ee8203e800a000000000000000000000000000000000000000000000000000000000000200008800000000000000000aa056e81f171bcc55a6ff8345e692c0f86e5b48e01b996cadc001622fb5e363b4218080a00000000000000000000000000000000000000000000000000000000000000000f862f860800a830f424094410dbb2d7941e3282bc19edcc3434e477bf95ce3808025a0c2d68c258c7ba8ce76dddf3a7cb936b9da93a9325f699dcd89b75af073bfa1f8a0635a767dcd81fca4496363b84e641a4f3c8cab330e7ced579e3863ff8be6fbd8c0c0",
                "blocknumber": "1"
            }
        ],
        "sealEngine": "NoProof",
        "_info": {
            "hash": "0xc33f4c3e0326491c67809c03ba6cae81496ae83a9d9a1d8a59aee85289a96967",
            "fixture-format": "blockchain_test",
            "comment": "`execution-specs` generated test",
            "filling-transition-tool": "2.19.0",
            "description": "Call -> call -> code oog .",
            "url": "https://github.com/ethereum/execution-specs/blob/tests-snobal-devnet-5@v8037.0.0/tests/ported_static/stCallCodes/test_callcall_00_ooge_value_transfer.py#L24",
            "metadata": {
                "opcode_count": {}
            }
        }
    }
}