{
    "tests/london/eip1559_fee_market_change/test_tx_type.py::test_eip1559_tx_validity[fork_Shanghai-valid-blockchain_test_from_state_test]": {
        "network": "Shanghai",
        "genesisBlockHeader": {
            "parentHash": "0x0000000000000000000000000000000000000000000000000000000000000000",
            "uncleHash": "0x1dcc4de8dec75d7aab85b567b6ccd41ad312451b948a7413f0a142fd40d49347",
            "coinbase": "0x0000000000000000000000000000000000000000",
            "stateRoot": "0x43c19943b2c4a638fe07dbc954c1422032ea7c5e17d0d659f25a5324ed75f0be",
            "transactionsTrie": "0x56e81f171bcc55a6ff8345e692c0f86e5b48e01b996cadc001622fb5e363b421",
            "receiptTrie": "0x56e81f171bcc55a6ff8345e692c0f86e5b48e01b996cadc001622fb5e363b421",
            "bloom": "0x00000000000000000000000000000000000000000000000000000000000000000000000000000000000000000000000000000000000000000000000000000000000000000000000000000000000000000000000000000000000000000000000000000000000000000000000000000000000000000000000000000000000000000000000000000000000000000000000000000000000000000000000000000000000000000000000000000000000000000000000000000000000000000000000000000000000000000000000000000000000000000000000000000000000000000000000000000000000000000000000000000000000000000000000000000000",
            "difficulty": "0x00",
            "number": "0x00",
            "gasLimit": "0x07270e00",
            "gasUsed": "0x00",
            "timestamp": "0x00",
            "extraData": "0x00",
            "mixHash": "0x0000000000000000000000000000000000000000000000000000000000000000",
            "nonce": "0x0000000000000000",
            "baseFeePerGas": "0x07",
            "withdrawalsRoot": "0x56e81f171bcc55a6ff8345e692c0f86e5b48e01b996cadc001622fb5e363b421",
            "hash": "0xa68e9a4a8617ab3e9d2207a78e98728dff22cec06df72250bc8df6b1a0e0a637"
        },
        "pre": {
            "0x67eb8fcbef83a0662b030f8bc89a10070c167a66": {
                "nonce": "0x01",
                "balance": "0x00",
                "code": "0x6001600055",
                "storage": {
                    "0x00": "0xdeadbeef"
                }
            },
            "0x1ad9bc24818784172ff393bb6f89f094d4d2ca29": {
                "nonce": "0x00",
                "balance": "0x3635c9adc5dea00000",
                "code": "0x",
                "storage": {}
            }
        },
        "postState": {
            "0x67eb8fcbef83a0662b030f8bc89a10070c167a66": {
                "nonce": "0x01",
                "balance": "0x00",
                "code": "0x6001600055",
                "storage": {
                    "0x00": "0x01"
                }
            },
            "0x1ad9bc24818784172ff393bb6f89f094d4d2ca29": {
                "nonce": "0x01",
                "balance": "0x3635c9adc5de9d38e6",
                "code": "0x",
                "storage": {}
            }
        },
        "lastblockhash": "0x8b41404be3d24e184c932d775f5d66b5cb9c1b52fdb153ecb0ccf540fb521e66",
        "config": {
            "network": "Shanghai",
            "chainid": "0x01"
        },
        "genesisRLP": "0xf90219f90213a00000000000000000000000000000000000000000000000000000000000000000a01dcc4de8dec75d7aab85b567b6ccd41ad312451b948a7413f0a142fd40d49347940000000000000000000000000000000000000000a043c19943b2c4a638fe07dbc954c1422032ea7c5e17d0d659f25a5324ed75f0bea056e81f171bcc55a6ff8345e692c0f86e5b48e01b996cadc001622fb5e363b421a056e81f171bcc55a6ff8345e692c0f86e5b48e01b996cadc001622fb5e363b421b901000000000000000000000000000000000000000000000000000000000000000000000000000000000000000000000000000000000000000000000000000000000000000000000000000000000000000000000000000000000000000000000000000000000000000000000000000000000000000000000000000000000000000000000000000000000000000000000000000000000000000000000000000000000000000000000000000000000000000000000000000000000000000000000000000000000000000000000000000000000000000000000000000000000000000000000000000000000000000000000000000000000000000000000000000000000080808407270e00808000a0000000000000000000000000000000000000000000000000000000000000000088000000000000000007a056e81f171bcc55a6ff8345e692c0f86e5b48e01b996cadc001622fb5e363b421c0c0c0",
        "blocks": [
            {
                "blockHeader": {
                    "parentHash": "0xa68e9a4a8617ab3e9d2207a78e98728dff22cec06df72250bc8df6b1a0e0a637",
                    "uncleHash": "0x1dcc4de8dec75d7aab85b567b6ccd41ad312451b948a7413f0a142fd40d49347",
                    "coinbase": "0x2adc25665018aa1fe0e6bc666dac8fc2697ff9ba",
                    "stateRoot": "0xa0b74841130f260bfe70b52a5919127cebd5b85dd5f42db82c0287d502118ed4",
                    "transactionsTrie": "0x543deaa0e1af5f13fc4e9bbcc859e625eab0b413f73a28e82c5f888359ed01bf",
                    "receiptTrie": "0x79a41645be99b35d7f469ce5736a1b6cf7b50ddc782d22af059e5d28110cc909",
                    "bloom": "0x00000000000000000000000000000000000000000000000000000000000000000000000000000000000000000000000000000000000000000000000000000000000000000000000000000000000000000000000000000000000000000000000000000000000000000000000000000000000000000000000000000000000000000000000000000000000000000000000000000000000000000000000000000000000000000000000000000000000000000000000000000000000000000000000000000000000000000000000000000000000000000000000000000000000000000000000000000000000000000000000000000000000000000000000000000000",
                    "difficulty": "0x00",
                    "number": "0x01",
                    "gasLimit": "0x07270e00",
                    "gasUsed": "0x6596",
                    "timestamp": "0x03e8",
                    "extraData": "0x00",
                    "mixHash": "0x0000000000000000000000000000000000000000000000000000000000000000",
                    "nonce": "0x0000000000000000",
                    "baseFeePerGas": "0x07",
                    "withdrawalsRoot": "0x56e81f171bcc55a6ff8345e692c0f86e5b48e01b996cadc001622fb5e363b421",
                    "hash": "0x8b41404be3d24e184c932d775f5d66b5cb9c1b52fdb153ecb0ccf540fb521e66"
                },
                "transactions": [
                    {
                        "type": "0x02",
                        "chainId": "0x01",
                        "nonce": "0x00",
                        "maxPriorityFeePerGas": "0x01",
                        "maxFeePerGas": "0x07",
                        "gasLimit": "0x0186a0",
                        "to": "0x67eb8fcbef83a0662b030f8bc89a10070c167a66",
                        "value": "0x00",
                        "data": "0x",
                        "accessList": [],
                        "v": "0x01",
                        "r": "0x41db2b0c0ffbf08d4996a5f49c2d2ec2902302834732363138232b01c719e9d8",
                        "s": "0x4f3b8b593b7b3ad541f86c5005a0737d89c6d61577dfbba55cec6b9c183c4c8a",
                        "sender": "0x1ad9bc24818784172ff393bb6f89f094d4d2ca29"
                    }
                ],
                "uncleHeaders": [],
                "withdrawals": [],
                "receipts": [
                    {
                        "transactionHash": "0x08e5b9e59a244424af75efd99d6ddcca14678c63f59dd711c4e17e814be6c1a1",
                        "type": "0x02",
                        "cumulativeGasUsed": "0x6596",
                        "bloom": "0x00000000000000000000000000000000000000000000000000000000000000000000000000000000000000000000000000000000000000000000000000000000000000000000000000000000000000000000000000000000000000000000000000000000000000000000000000000000000000000000000000000000000000000000000000000000000000000000000000000000000000000000000000000000000000000000000000000000000000000000000000000000000000000000000000000000000000000000000000000000000000000000000000000000000000000000000000000000000000000000000000000000000000000000000000000000",
                        "logs": [],
                        "status": true,
                        "rlp": "0x02f9010801826596b9010000000000000000000000000000000000000000000000000000000000000000000000000000000000000000000000000000000000000000000000000000000000000000000000000000000000000000000000000000000000000000000000000000000000000000000000000000000000000000000000000000000000000000000000000000000000000000000000000000000000000000000000000000000000000000000000000000000000000000000000000000000000000000000000000000000000000000000000000000000000000000000000000000000000000000000000000000000000000000000000000000000000000000000000000000000000c0"
                    }
                ],
                "rlp": "0xf90286f90217a0a68e9a4a8617ab3e9d2207a78e98728dff22cec06df72250bc8df6b1a0e0a637a01dcc4de8dec75d7aab85b567b6ccd41ad312451b948a7413f0a142fd40d49347942adc25665018aa1fe0e6bc666dac8fc2697ff9baa0a0b74841130f260bfe70b52a5919127cebd5b85dd5f42db82c0287d502118ed4a0543deaa0e1af5f13fc4e9bbcc859e625eab0b413f73a28e82c5f888359ed01bfa079a41645be99b35d7f469ce5736a1b6cf7b50ddc782d22af059e5d28110cc909b901000000000000000000000000000000000000000000000000000000000000000000000000000000000000000000000000000000000000000000000000000000000000000000000000000000000000000000000000000000000000000000000000000000000000000000000000000000000000000000000000000000000000000000000000000000000000000000000000000000000000000000000000000000000000000000000000000000000000000000000000000000000000000000000000000000000000000000000000000000000000000000000000000000000000000000000000000000000000000000000000000000000000000000000000000000000080018407270e008265968203e800a0000000000000000000000000000000000000000000000000000000000000000088000000000000000007a056e81f171bcc55a6ff8345e692c0f86e5b48e01b996cadc001622fb5e363b421f868b86602f86301800107830186a09467eb8fcbef83a0662b030f8bc89a10070c167a668080c001a041db2b0c0ffbf08d4996a5f49c2d2ec2902302834732363138232b01c719e9d8a04f3b8b593b7b3ad541f86c5005a0737d89c6d61577dfbba55cec6b9c183c4c8ac0c0",
                "blocknumber": "1"
            }
        ],
        "sealEngine": "NoProof",
        "_info": {
            "hash": "0x327b5d552c3951660e69d338b0162cc0e7e39993f617c4652cad131135dff843",
            "fixture-format": "blockchain_test",
            "comment": "`execution-specs` generated test",
            "filling-transition-tool": "2.19.0",
            "description": "Tests that an EIP-1559 tx has no effect before London.",
            "url": "https://github.com/ethereum/execution-specs/blob/tests-bal@v5.7.0/tests/london/eip1559_fee_market_change/test_tx_type.py#L37",
            "metadata": {
                "opcode_count": {}
            },
            "reference-spec": "https://github.com/ethereum/EIPs/blob/master/EIPS/eip-1559.md",
            "reference-spec-version": "ba6c342c23164072adb500c3136e3ae6eabff306"
        }
    }
}