{
    "tests/constantinople/eip1052_extcodehash/test_extcodehash.py::test_extcodehash_in_init_code[fork_Paris-blockchain_test_from_state_test-create_opcode_CREATE2]": {
        "network": "Paris",
        "genesisBlockHeader": {
            "parentHash": "0x0000000000000000000000000000000000000000000000000000000000000000",
            "uncleHash": "0x1dcc4de8dec75d7aab85b567b6ccd41ad312451b948a7413f0a142fd40d49347",
            "coinbase": "0x0000000000000000000000000000000000000000",
            "stateRoot": "0xa77a55f75445515a9947fd7539298e711c9cbd1a8df45eee91a5fc44ce7a4746",
            "transactionsTrie": "0x56e81f171bcc55a6ff8345e692c0f86e5b48e01b996cadc001622fb5e363b421",
            "receiptTrie": "0x56e81f171bcc55a6ff8345e692c0f86e5b48e01b996cadc001622fb5e363b421",
            "bloom": "0x00000000000000000000000000000000000000000000000000000000000000000000000000000000000000000000000000000000000000000000000000000000000000000000000000000000000000000000000000000000000000000000000000000000000000000000000000000000000000000000000000000000000000000000000000000000000000000000000000000000000000000000000000000000000000000000000000000000000000000000000000000000000000000000000000000000000000000000000000000000000000000000000000000000000000000000000000000000000000000000000000000000000000000000000000000000",
            "difficulty": "0x00",
            "number": "0x00",
            "gasLimit": "0x07270e00",
            "gasUsed": "0x00",
            "timestamp": "0x00",
            "extraData": "0x00",
            "mixHash": "0x0000000000000000000000000000000000000000000000000000000000000000",
            "nonce": "0x0000000000000000",
            "baseFeePerGas": "0x07",
            "hash": "0xee5e8d7847f35e5c8757449561a440cf44106396059ec89033b1f36c1f910729"
        },
        "pre": {
            "0x46e4a6a4695b41c4b337c35223562e46a3029892": {
                "nonce": "0x01",
                "balance": "0x00",
                "code": "0x11223344",
                "storage": {}
            },
            "0xe7e37c39a88e5712fab3ebb273c4c2f90cc64a61": {
                "nonce": "0x01",
                "balance": "0x00",
                "code": "0x36600060003760003660006000f500",
                "storage": {}
            },
            "0x1ad9bc24818784172ff393bb6f89f094d4d2ca29": {
                "nonce": "0x00",
                "balance": "0x3635c9adc5dea00000",
                "code": "0x",
                "storage": {}
            }
        },
        "postState": {
            "0x46e4a6a4695b41c4b337c35223562e46a3029892": {
                "nonce": "0x01",
                "balance": "0x00",
                "code": "0x11223344",
                "storage": {}
            },
            "0xe7e37c39a88e5712fab3ebb273c4c2f90cc64a61": {
                "nonce": "0x02",
                "balance": "0x00",
                "code": "0x36600060003760003660006000f500",
                "storage": {}
            },
            "0x1ad9bc24818784172ff393bb6f89f094d4d2ca29": {
                "nonce": "0x01",
                "balance": "0x3635c9adc5de909e30",
                "code": "0x",
                "storage": {}
            },
            "0xf2e34372bee0a04da62a021c1cdb2b82a99fb7c7": {
                "nonce": "0x01",
                "balance": "0x00",
                "code": "0x",
                "storage": {
                    "0x00": "0x36712aa4d0dd2f64a9ae6ac09555133a157c74ddf7c079a70c33e8b4bf70dd73",
                    "0x01": "0x04"
                }
            },
            "0x2adc25665018aa1fe0e6bc666dac8fc2697ff9ba": {
                "nonce": "0x00",
                "balance": "0x049d58",
                "code": "0x",
                "storage": {}
            }
        },
        "lastblockhash": "0xc6d1ff1f57d27c4a79bf7cfbe3ddfa4145b5eb90e40604a6d0b7868cdac156b5",
        "config": {
            "network": "Paris",
            "chainid": "0x01"
        },
        "genesisRLP": "0xf901f7f901f2a00000000000000000000000000000000000000000000000000000000000000000a01dcc4de8dec75d7aab85b567b6ccd41ad312451b948a7413f0a142fd40d49347940000000000000000000000000000000000000000a0a77a55f75445515a9947fd7539298e711c9cbd1a8df45eee91a5fc44ce7a4746a056e81f171bcc55a6ff8345e692c0f86e5b48e01b996cadc001622fb5e363b421a056e81f171bcc55a6ff8345e692c0f86e5b48e01b996cadc001622fb5e363b421b901000000000000000000000000000000000000000000000000000000000000000000000000000000000000000000000000000000000000000000000000000000000000000000000000000000000000000000000000000000000000000000000000000000000000000000000000000000000000000000000000000000000000000000000000000000000000000000000000000000000000000000000000000000000000000000000000000000000000000000000000000000000000000000000000000000000000000000000000000000000000000000000000000000000000000000000000000000000000000000000000000000000000000000000000000000000080808407270e00808000a0000000000000000000000000000000000000000000000000000000000000000088000000000000000007c0c0",
        "blocks": [
            {
                "blockHeader": {
                    "parentHash": "0xee5e8d7847f35e5c8757449561a440cf44106396059ec89033b1f36c1f910729",
                    "uncleHash": "0x1dcc4de8dec75d7aab85b567b6ccd41ad312451b948a7413f0a142fd40d49347",
                    "coinbase": "0x2adc25665018aa1fe0e6bc666dac8fc2697ff9ba",
                    "stateRoot": "0x44fa6adb7878dcbfa75008d949fe45e4ecd8777487ac529276f5a39f893932e2",
                    "transactionsTrie": "0x3304853dfee93cd011f70d12fea7cd48a7338b4e61d22c677bd97ad57bf2227d",
                    "receiptTrie": "0x4c0f571b03c36e5df5f26c97fb5314d824bd2532c7dd685a4eac04401c5f8e54",
                    "bloom": "0x00000000000000000000000000000000000000000000000000000000000000000000000000000000000000000000000000000000000000000000000000000000000000000000000000000000000000000000000000000000000000000000000000000000000000000000000000000000000000000000000000000000000000000000000000000000000000000000000000000000000000000000000000000000000000000000000000000000000000000000000000000000000000000000000000000000000000000000000000000000000000000000000000000000000000000000000000000000000000000000000000000000000000000000000000000000",
                    "difficulty": "0x00",
                    "number": "0x01",
                    "gasLimit": "0x07270e00",
                    "gasUsed": "0x0189c8",
                    "timestamp": "0x03e8",
                    "extraData": "0x00",
                    "mixHash": "0x0000000000000000000000000000000000000000000000000000000000000000",
                    "nonce": "0x0000000000000000",
                    "baseFeePerGas": "0x07",
                    "hash": "0xc6d1ff1f57d27c4a79bf7cfbe3ddfa4145b5eb90e40604a6d0b7868cdac156b5"
                },
                "transactions": [
                    {
                        "type": "0x00",
                        "chainId": "0x01",
                        "nonce": "0x00",
                        "gasPrice": "0x0a",
                        "gasLimit": "0x061a80",
                        "to": "0xe7e37c39a88e5712fab3ebb273c4c2f90cc64a61",
                        "value": "0x00",
                        "data": "0x7346e4a6a4695b41c4b337c35223562e46a30298923f6000557346e4a6a4695b41c4b337c35223562e46a30298923b60015560006000f3",
                        "v": "0x26",
                        "r": "0xf8bc5b340d8295d61ade7af0c98a42796430c2309b9d8c58a19173aeeac5f36d",
                        "s": "0x1f95b7d44c132b037e82e47edd59ab9bd9834249e13cbb54667459783af5b292",
                        "sender": "0x1ad9bc24818784172ff393bb6f89f094d4d2ca29"
                    }
                ],
                "uncleHeaders": [],
                "receipts": [
                    {
                        "transactionHash": "0x73e9817424d14b5973f35d645c553f42c98af12deee1bd53af557b1337258a91",
                        "type": "0x00",
                        "cumulativeGasUsed": "0x0189c8",
                        "bloom": "0x00000000000000000000000000000000000000000000000000000000000000000000000000000000000000000000000000000000000000000000000000000000000000000000000000000000000000000000000000000000000000000000000000000000000000000000000000000000000000000000000000000000000000000000000000000000000000000000000000000000000000000000000000000000000000000000000000000000000000000000000000000000000000000000000000000000000000000000000000000000000000000000000000000000000000000000000000000000000000000000000000000000000000000000000000000000",
                        "logs": [],
                        "status": true,
                        "rlp": "0xf9010901830189c8b9010000000000000000000000000000000000000000000000000000000000000000000000000000000000000000000000000000000000000000000000000000000000000000000000000000000000000000000000000000000000000000000000000000000000000000000000000000000000000000000000000000000000000000000000000000000000000000000000000000000000000000000000000000000000000000000000000000000000000000000000000000000000000000000000000000000000000000000000000000000000000000000000000000000000000000000000000000000000000000000000000000000000000000000000000000000000c0"
                    }
                ],
                "rlp": "0xf90296f901f7a0ee5e8d7847f35e5c8757449561a440cf44106396059ec89033b1f36c1f910729a01dcc4de8dec75d7aab85b567b6ccd41ad312451b948a7413f0a142fd40d49347942adc25665018aa1fe0e6bc666dac8fc2697ff9baa044fa6adb7878dcbfa75008d949fe45e4ecd8777487ac529276f5a39f893932e2a03304853dfee93cd011f70d12fea7cd48a7338b4e61d22c677bd97ad57bf2227da04c0f571b03c36e5df5f26c97fb5314d824bd2532c7dd685a4eac04401c5f8e54b901000000000000000000000000000000000000000000000000000000000000000000000000000000000000000000000000000000000000000000000000000000000000000000000000000000000000000000000000000000000000000000000000000000000000000000000000000000000000000000000000000000000000000000000000000000000000000000000000000000000000000000000000000000000000000000000000000000000000000000000000000000000000000000000000000000000000000000000000000000000000000000000000000000000000000000000000000000000000000000000000000000000000000000000000000000000080018407270e00830189c88203e800a0000000000000000000000000000000000000000000000000000000000000000088000000000000000007f899f897800a83061a8094e7e37c39a88e5712fab3ebb273c4c2f90cc64a6180b77346e4a6a4695b41c4b337c35223562e46a30298923f6000557346e4a6a4695b41c4b337c35223562e46a30298923b60015560006000f326a0f8bc5b340d8295d61ade7af0c98a42796430c2309b9d8c58a19173aeeac5f36da01f95b7d44c132b037e82e47edd59ab9bd9834249e13cbb54667459783af5b292c0",
                "blocknumber": "1"
            }
        ],
        "sealEngine": "NoProof",
        "_info": {
            "hash": "0x16a780e26e60335d92980ccc900c0e763e2e6ee6eac788c4d5b991fbb43a9a02",
            "fixture-format": "blockchain_test",
            "comment": "`execution-specs` generated test",
            "filling-transition-tool": "2.19.0",
            "description": "Test EXTCODEHASH/EXTCODESIZE of an external account during init code.\n\nThe init code queries EXTCODEHASH and EXTCODESIZE of a pre-existing\ncontract and stores the results. With a create transaction the checks\nrun in the top-level init code; with CREATE/CREATE2 they run in a\ncontract-initiated creation.",
            "url": "https://github.com/ethereum/execution-specs/blob/tests-bal@v5.3.0/tests/constantinople/eip1052_extcodehash/test_extcodehash.py#L967",
            "opcode_count": {},
            "reference-spec": "https://github.com/ethereum/EIPs/blob/master/EIPS/eip-1052.md",
            "reference-spec-version": "2dcbc7ce1563e9624e137e9d447374600af876fa"
        }
    },
    "tests/constantinople/eip1052_extcodehash/test_extcodehash.py::test_extcodehash_in_init_code[fork_Paris-blockchain_test_from_state_test-create_opcode_CREATE]": {
        "network": "Paris",
        "genesisBlockHeader": {
            "parentHash": "0x0000000000000000000000000000000000000000000000000000000000000000",
            "uncleHash": "0x1dcc4de8dec75d7aab85b567b6ccd41ad312451b948a7413f0a142fd40d49347",
            "coinbase": "0x0000000000000000000000000000000000000000",
            "stateRoot": "0x162cd8de5876d321add945065e26977b0d1dc87fcdf078d821f5a1cba4aa08de",
            "transactionsTrie": "0x56e81f171bcc55a6ff8345e692c0f86e5b48e01b996cadc001622fb5e363b421",
            "receiptTrie": "0x56e81f171bcc55a6ff8345e692c0f86e5b48e01b996cadc001622fb5e363b421",
            "bloom": "0x00000000000000000000000000000000000000000000000000000000000000000000000000000000000000000000000000000000000000000000000000000000000000000000000000000000000000000000000000000000000000000000000000000000000000000000000000000000000000000000000000000000000000000000000000000000000000000000000000000000000000000000000000000000000000000000000000000000000000000000000000000000000000000000000000000000000000000000000000000000000000000000000000000000000000000000000000000000000000000000000000000000000000000000000000000000",
            "difficulty": "0x00",
            "number": "0x00",
            "gasLimit": "0x07270e00",
            "gasUsed": "0x00",
            "timestamp": "0x00",
            "extraData": "0x00",
            "mixHash": "0x0000000000000000000000000000000000000000000000000000000000000000",
            "nonce": "0x0000000000000000",
            "baseFeePerGas": "0x07",
            "hash": "0xf0898451ab7160dab90b92dbe2803e22ca044fd6de4c4b4ba12240b4a4c9fcab"
        },
        "pre": {
            "0x46e4a6a4695b41c4b337c35223562e46a3029892": {
                "nonce": "0x01",
                "balance": "0x00",
                "code": "0x11223344",
                "storage": {}
            },
            "0x920b80d1e41446e87a14a2fe0f6b503cd91afe93": {
                "nonce": "0x01",
                "balance": "0x00",
                "code": "0x3660006000373660006000f000",
                "storage": {}
            },
            "0x1ad9bc24818784172ff393bb6f89f094d4d2ca29": {
                "nonce": "0x00",
                "balance": "0x3635c9adc5dea00000",
                "code": "0x",
                "storage": {}
            }
        },
        "postState": {
            "0x46e4a6a4695b41c4b337c35223562e46a3029892": {
                "nonce": "0x01",
                "balance": "0x00",
                "code": "0x11223344",
                "storage": {}
            },
            "0x920b80d1e41446e87a14a2fe0f6b503cd91afe93": {
                "nonce": "0x02",
                "balance": "0x00",
                "code": "0x3660006000373660006000f000",
                "storage": {}
            },
            "0x1ad9bc24818784172ff393bb6f89f094d4d2ca29": {
                "nonce": "0x01",
                "balance": "0x3635c9adc5de909ec6",
                "code": "0x",
                "storage": {}
            },
            "0xe62af3f0b87739c4995bbcbac9c7f769a084ae92": {
                "nonce": "0x01",
                "balance": "0x00",
                "code": "0x",
                "storage": {
                    "0x00": "0x36712aa4d0dd2f64a9ae6ac09555133a157c74ddf7c079a70c33e8b4bf70dd73",
                    "0x01": "0x04"
                }
            },
            "0x2adc25665018aa1fe0e6bc666dac8fc2697ff9ba": {
                "nonce": "0x00",
                "balance": "0x049d2b",
                "code": "0x",
                "storage": {}
            }
        },
        "lastblockhash": "0x63ae1331d1db2bb4aeb134263d556dc249249d53db26f59d18a3254c4f7011e0",
        "config": {
            "network": "Paris",
            "chainid": "0x01"
        },
        "genesisRLP": "0xf901f7f901f2a00000000000000000000000000000000000000000000000000000000000000000a01dcc4de8dec75d7aab85b567b6ccd41ad312451b948a7413f0a142fd40d49347940000000000000000000000000000000000000000a0162cd8de5876d321add945065e26977b0d1dc87fcdf078d821f5a1cba4aa08dea056e81f171bcc55a6ff8345e692c0f86e5b48e01b996cadc001622fb5e363b421a056e81f171bcc55a6ff8345e692c0f86e5b48e01b996cadc001622fb5e363b421b901000000000000000000000000000000000000000000000000000000000000000000000000000000000000000000000000000000000000000000000000000000000000000000000000000000000000000000000000000000000000000000000000000000000000000000000000000000000000000000000000000000000000000000000000000000000000000000000000000000000000000000000000000000000000000000000000000000000000000000000000000000000000000000000000000000000000000000000000000000000000000000000000000000000000000000000000000000000000000000000000000000000000000000000000000000000080808407270e00808000a0000000000000000000000000000000000000000000000000000000000000000088000000000000000007c0c0",
        "blocks": [
            {
                "blockHeader": {
                    "parentHash": "0xf0898451ab7160dab90b92dbe2803e22ca044fd6de4c4b4ba12240b4a4c9fcab",
                    "uncleHash": "0x1dcc4de8dec75d7aab85b567b6ccd41ad312451b948a7413f0a142fd40d49347",
                    "coinbase": "0x2adc25665018aa1fe0e6bc666dac8fc2697ff9ba",
                    "stateRoot": "0x98242ca03e831556e982025147b0ed576c776fe48e9904ebfdf3521cca4756ce",
                    "transactionsTrie": "0x01a13d7c4246aa6f5e5943ea8271f5c61795fca6b54b10ae5c2d41c3289e185e",
                    "receiptTrie": "0x08e384e204f6b2d72054493694926bdee4103180d806eb91ce4ac9ed99b74941",
                    "bloom": "0x00000000000000000000000000000000000000000000000000000000000000000000000000000000000000000000000000000000000000000000000000000000000000000000000000000000000000000000000000000000000000000000000000000000000000000000000000000000000000000000000000000000000000000000000000000000000000000000000000000000000000000000000000000000000000000000000000000000000000000000000000000000000000000000000000000000000000000000000000000000000000000000000000000000000000000000000000000000000000000000000000000000000000000000000000000000",
                    "difficulty": "0x00",
                    "number": "0x01",
                    "gasLimit": "0x07270e00",
                    "gasUsed": "0x0189b9",
                    "timestamp": "0x03e8",
                    "extraData": "0x00",
                    "mixHash": "0x0000000000000000000000000000000000000000000000000000000000000000",
                    "nonce": "0x0000000000000000",
                    "baseFeePerGas": "0x07",
                    "hash": "0x63ae1331d1db2bb4aeb134263d556dc249249d53db26f59d18a3254c4f7011e0"
                },
                "transactions": [
                    {
                        "type": "0x00",
                        "chainId": "0x01",
                        "nonce": "0x00",
                        "gasPrice": "0x0a",
                        "gasLimit": "0x061a80",
                        "to": "0x920b80d1e41446e87a14a2fe0f6b503cd91afe93",
                        "value": "0x00",
                        "data": "0x7346e4a6a4695b41c4b337c35223562e46a30298923f6000557346e4a6a4695b41c4b337c35223562e46a30298923b60015560006000f3",
                        "v": "0x26",
                        "r": "0xd115a4344f2c340e99c3d276d60be2207322e6f437e7f3e1b8a8387730a83ee1",
                        "s": "0x2d048a44e75470141bdef27162c14bfca5af86bc747ba8f0a8f19767cf315caa",
                        "sender": "0x1ad9bc24818784172ff393bb6f89f094d4d2ca29"
                    }
                ],
                "uncleHeaders": [],
                "receipts": [
                    {
                        "transactionHash": "0xe6dcae84b2343784b903edeab5a3992e78367521165e2a92249d66b04508ba86",
                        "type": "0x00",
                        "cumulativeGasUsed": "0x0189b9",
                        "bloom": "0x00000000000000000000000000000000000000000000000000000000000000000000000000000000000000000000000000000000000000000000000000000000000000000000000000000000000000000000000000000000000000000000000000000000000000000000000000000000000000000000000000000000000000000000000000000000000000000000000000000000000000000000000000000000000000000000000000000000000000000000000000000000000000000000000000000000000000000000000000000000000000000000000000000000000000000000000000000000000000000000000000000000000000000000000000000000",
                        "logs": [],
                        "status": true,
                        "rlp": "0xf9010901830189b9b9010000000000000000000000000000000000000000000000000000000000000000000000000000000000000000000000000000000000000000000000000000000000000000000000000000000000000000000000000000000000000000000000000000000000000000000000000000000000000000000000000000000000000000000000000000000000000000000000000000000000000000000000000000000000000000000000000000000000000000000000000000000000000000000000000000000000000000000000000000000000000000000000000000000000000000000000000000000000000000000000000000000000000000000000000000000000c0"
                    }
                ],
                "rlp": "0xf90296f901f7a0f0898451ab7160dab90b92dbe2803e22ca044fd6de4c4b4ba12240b4a4c9fcaba01dcc4de8dec75d7aab85b567b6ccd41ad312451b948a7413f0a142fd40d49347942adc25665018aa1fe0e6bc666dac8fc2697ff9baa098242ca03e831556e982025147b0ed576c776fe48e9904ebfdf3521cca4756cea001a13d7c4246aa6f5e5943ea8271f5c61795fca6b54b10ae5c2d41c3289e185ea008e384e204f6b2d72054493694926bdee4103180d806eb91ce4ac9ed99b74941b901000000000000000000000000000000000000000000000000000000000000000000000000000000000000000000000000000000000000000000000000000000000000000000000000000000000000000000000000000000000000000000000000000000000000000000000000000000000000000000000000000000000000000000000000000000000000000000000000000000000000000000000000000000000000000000000000000000000000000000000000000000000000000000000000000000000000000000000000000000000000000000000000000000000000000000000000000000000000000000000000000000000000000000000000000000000080018407270e00830189b98203e800a0000000000000000000000000000000000000000000000000000000000000000088000000000000000007f899f897800a83061a8094920b80d1e41446e87a14a2fe0f6b503cd91afe9380b77346e4a6a4695b41c4b337c35223562e46a30298923f6000557346e4a6a4695b41c4b337c35223562e46a30298923b60015560006000f326a0d115a4344f2c340e99c3d276d60be2207322e6f437e7f3e1b8a8387730a83ee1a02d048a44e75470141bdef27162c14bfca5af86bc747ba8f0a8f19767cf315caac0",
                "blocknumber": "1"
            }
        ],
        "sealEngine": "NoProof",
        "_info": {
            "hash": "0xfe8e1f6745d97804863afd22fa14e57d349c012f5793b072e542aa79a102a1ac",
            "fixture-format": "blockchain_test",
            "comment": "`execution-specs` generated test",
            "filling-transition-tool": "2.19.0",
            "description": "Test EXTCODEHASH/EXTCODESIZE of an external account during init code.\n\nThe init code queries EXTCODEHASH and EXTCODESIZE of a pre-existing\ncontract and stores the results. With a create transaction the checks\nrun in the top-level init code; with CREATE/CREATE2 they run in a\ncontract-initiated creation.",
            "url": "https://github.com/ethereum/execution-specs/blob/tests-bal@v5.3.0/tests/constantinople/eip1052_extcodehash/test_extcodehash.py#L967",
            "opcode_count": {},
            "reference-spec": "https://github.com/ethereum/EIPs/blob/master/EIPS/eip-1052.md",
            "reference-spec-version": "2dcbc7ce1563e9624e137e9d447374600af876fa"
        }
    },
    "tests/constantinople/eip1052_extcodehash/test_extcodehash.py::test_extcodehash_in_init_code[fork_Paris-blockchain_test_from_state_test-create_tx]": {
        "network": "Paris",
        "genesisBlockHeader": {
            "parentHash": "0x0000000000000000000000000000000000000000000000000000000000000000",
            "uncleHash": "0x1dcc4de8dec75d7aab85b567b6ccd41ad312451b948a7413f0a142fd40d49347",
            "coinbase": "0x0000000000000000000000000000000000000000",
            "stateRoot": "0x3067fca27a35a6e460a89ca559ab39a219a8adda826254aa5b0724ff39004518",
            "transactionsTrie": "0x56e81f171bcc55a6ff8345e692c0f86e5b48e01b996cadc001622fb5e363b421",
            "receiptTrie": "0x56e81f171bcc55a6ff8345e692c0f86e5b48e01b996cadc001622fb5e363b421",
            "bloom": "0x00000000000000000000000000000000000000000000000000000000000000000000000000000000000000000000000000000000000000000000000000000000000000000000000000000000000000000000000000000000000000000000000000000000000000000000000000000000000000000000000000000000000000000000000000000000000000000000000000000000000000000000000000000000000000000000000000000000000000000000000000000000000000000000000000000000000000000000000000000000000000000000000000000000000000000000000000000000000000000000000000000000000000000000000000000000",
            "difficulty": "0x00",
            "number": "0x00",
            "gasLimit": "0x07270e00",
            "gasUsed": "0x00",
            "timestamp": "0x00",
            "extraData": "0x00",
            "mixHash": "0x0000000000000000000000000000000000000000000000000000000000000000",
            "nonce": "0x0000000000000000",
            "baseFeePerGas": "0x07",
            "hash": "0xbee70c1d0a1df56137faedcea1af109d3434cd9f61d1661a5370cd344537f9a0"
        },
        "pre": {
            "0x46e4a6a4695b41c4b337c35223562e46a3029892": {
                "nonce": "0x01",
                "balance": "0x00",
                "code": "0x11223344",
                "storage": {}
            },
            "0x1ad9bc24818784172ff393bb6f89f094d4d2ca29": {
                "nonce": "0x00",
                "balance": "0x3635c9adc5dea00000",
                "code": "0x",
                "storage": {}
            }
        },
        "postState": {
            "0x46e4a6a4695b41c4b337c35223562e46a3029892": {
                "nonce": "0x01",
                "balance": "0x00",
                "code": "0x11223344",
                "storage": {}
            },
            "0x1ad9bc24818784172ff393bb6f89f094d4d2ca29": {
                "nonce": "0x01",
                "balance": "0x3635c9adc5de909ffc",
                "code": "0x",
                "storage": {}
            },
            "0x36bdd8886852759e2046e3bf4c290d5c29c81d82": {
                "nonce": "0x01",
                "balance": "0x00",
                "code": "0x",
                "storage": {
                    "0x00": "0x36712aa4d0dd2f64a9ae6ac09555133a157c74ddf7c079a70c33e8b4bf70dd73",
                    "0x01": "0x04"
                }
            },
            "0x2adc25665018aa1fe0e6bc666dac8fc2697ff9ba": {
                "nonce": "0x00",
                "balance": "0x049cce",
                "code": "0x",
                "storage": {}
            }
        },
        "lastblockhash": "0x71c8fd751ac2d752876c3bcc3a956fe25513342250e68b09ad7b400f77451ff2",
        "config": {
            "network": "Paris",
            "chainid": "0x01"
        },
        "genesisRLP": "0xf901f7f901f2a00000000000000000000000000000000000000000000000000000000000000000a01dcc4de8dec75d7aab85b567b6ccd41ad312451b948a7413f0a142fd40d49347940000000000000000000000000000000000000000a03067fca27a35a6e460a89ca559ab39a219a8adda826254aa5b0724ff39004518a056e81f171bcc55a6ff8345e692c0f86e5b48e01b996cadc001622fb5e363b421a056e81f171bcc55a6ff8345e692c0f86e5b48e01b996cadc001622fb5e363b421b901000000000000000000000000000000000000000000000000000000000000000000000000000000000000000000000000000000000000000000000000000000000000000000000000000000000000000000000000000000000000000000000000000000000000000000000000000000000000000000000000000000000000000000000000000000000000000000000000000000000000000000000000000000000000000000000000000000000000000000000000000000000000000000000000000000000000000000000000000000000000000000000000000000000000000000000000000000000000000000000000000000000000000000000000000000000080808407270e00808000a0000000000000000000000000000000000000000000000000000000000000000088000000000000000007c0c0",
        "blocks": [
            {
                "blockHeader": {
                    "parentHash": "0xbee70c1d0a1df56137faedcea1af109d3434cd9f61d1661a5370cd344537f9a0",
                    "uncleHash": "0x1dcc4de8dec75d7aab85b567b6ccd41ad312451b948a7413f0a142fd40d49347",
                    "coinbase": "0x2adc25665018aa1fe0e6bc666dac8fc2697ff9ba",
                    "stateRoot": "0x6a23899cfbbcad8b9cb6c044d639095b0fab489a9ed11eec0d69747935507772",
                    "transactionsTrie": "0x6671d35d4edfbaae0e28f28d5b3444b9de49ae1686cc8a6577190c3f81c20bcc",
                    "receiptTrie": "0x089bbd78b7fd1da8eb932c8f59c3e1d0f2eefadd8d1f00801b0a0432fe30b5f1",
                    "bloom": "0x00000000000000000000000000000000000000000000000000000000000000000000000000000000000000000000000000000000000000000000000000000000000000000000000000000000000000000000000000000000000000000000000000000000000000000000000000000000000000000000000000000000000000000000000000000000000000000000000000000000000000000000000000000000000000000000000000000000000000000000000000000000000000000000000000000000000000000000000000000000000000000000000000000000000000000000000000000000000000000000000000000000000000000000000000000000",
                    "difficulty": "0x00",
                    "number": "0x01",
                    "gasLimit": "0x07270e00",
                    "gasUsed": "0x01899a",
                    "timestamp": "0x03e8",
                    "extraData": "0x00",
                    "mixHash": "0x0000000000000000000000000000000000000000000000000000000000000000",
                    "nonce": "0x0000000000000000",
                    "baseFeePerGas": "0x07",
                    "hash": "0x71c8fd751ac2d752876c3bcc3a956fe25513342250e68b09ad7b400f77451ff2"
                },
                "transactions": [
                    {
                        "type": "0x00",
                        "chainId": "0x01",
                        "nonce": "0x00",
                        "gasPrice": "0x0a",
                        "gasLimit": "0x061a80",
                        "value": "0x00",
                        "data": "0x7346e4a6a4695b41c4b337c35223562e46a30298923f6000557346e4a6a4695b41c4b337c35223562e46a30298923b60015560006000f3",
                        "v": "0x25",
                        "r": "0x83413cd499510c795d9203751e3d6e54187e2e710155c91f9a94ebca753ee3fc",
                        "s": "0x7d8ff02490422a156b12ab8ba1e4b1bb8201599e7772ca6f45f1b57ba7111c76",
                        "sender": "0x1ad9bc24818784172ff393bb6f89f094d4d2ca29",
                        "to": ""
                    }
                ],
                "uncleHeaders": [],
                "receipts": [
                    {
                        "transactionHash": "0x18492291bf4880bcf31ea2fba32bfdb9b8420feb998597dabb5f0b2ad3db4d7d",
                        "type": "0x00",
                        "cumulativeGasUsed": "0x01899a",
                        "bloom": "0x00000000000000000000000000000000000000000000000000000000000000000000000000000000000000000000000000000000000000000000000000000000000000000000000000000000000000000000000000000000000000000000000000000000000000000000000000000000000000000000000000000000000000000000000000000000000000000000000000000000000000000000000000000000000000000000000000000000000000000000000000000000000000000000000000000000000000000000000000000000000000000000000000000000000000000000000000000000000000000000000000000000000000000000000000000000",
                        "logs": [],
                        "status": true,
                        "rlp": "0xf90109018301899ab9010000000000000000000000000000000000000000000000000000000000000000000000000000000000000000000000000000000000000000000000000000000000000000000000000000000000000000000000000000000000000000000000000000000000000000000000000000000000000000000000000000000000000000000000000000000000000000000000000000000000000000000000000000000000000000000000000000000000000000000000000000000000000000000000000000000000000000000000000000000000000000000000000000000000000000000000000000000000000000000000000000000000000000000000000000000000c0"
                    }
                ],
                "rlp": "0xf90282f901f7a0bee70c1d0a1df56137faedcea1af109d3434cd9f61d1661a5370cd344537f9a0a01dcc4de8dec75d7aab85b567b6ccd41ad312451b948a7413f0a142fd40d49347942adc25665018aa1fe0e6bc666dac8fc2697ff9baa06a23899cfbbcad8b9cb6c044d639095b0fab489a9ed11eec0d69747935507772a06671d35d4edfbaae0e28f28d5b3444b9de49ae1686cc8a6577190c3f81c20bcca0089bbd78b7fd1da8eb932c8f59c3e1d0f2eefadd8d1f00801b0a0432fe30b5f1b901000000000000000000000000000000000000000000000000000000000000000000000000000000000000000000000000000000000000000000000000000000000000000000000000000000000000000000000000000000000000000000000000000000000000000000000000000000000000000000000000000000000000000000000000000000000000000000000000000000000000000000000000000000000000000000000000000000000000000000000000000000000000000000000000000000000000000000000000000000000000000000000000000000000000000000000000000000000000000000000000000000000000000000000000000000000080018407270e008301899a8203e800a0000000000000000000000000000000000000000000000000000000000000000088000000000000000007f885f883800a83061a808080b77346e4a6a4695b41c4b337c35223562e46a30298923f6000557346e4a6a4695b41c4b337c35223562e46a30298923b60015560006000f325a083413cd499510c795d9203751e3d6e54187e2e710155c91f9a94ebca753ee3fca07d8ff02490422a156b12ab8ba1e4b1bb8201599e7772ca6f45f1b57ba7111c76c0",
                "blocknumber": "1"
            }
        ],
        "sealEngine": "NoProof",
        "_info": {
            "hash": "0xe0c7e58d5c783dc0f9bc548c6fcfacc89ab74f98696094c076b29546ccfd0a2d",
            "fixture-format": "blockchain_test",
            "comment": "`execution-specs` generated test",
            "filling-transition-tool": "2.19.0",
            "description": "Test EXTCODEHASH/EXTCODESIZE of an external account during init code.\n\nThe init code queries EXTCODEHASH and EXTCODESIZE of a pre-existing\ncontract and stores the results. With a create transaction the checks\nrun in the top-level init code; with CREATE/CREATE2 they run in a\ncontract-initiated creation.",
            "url": "https://github.com/ethereum/execution-specs/blob/tests-bal@v5.3.0/tests/constantinople/eip1052_extcodehash/test_extcodehash.py#L967",
            "opcode_count": {},
            "reference-spec": "https://github.com/ethereum/EIPs/blob/master/EIPS/eip-1052.md",
            "reference-spec-version": "2dcbc7ce1563e9624e137e9d447374600af876fa"
        }
    }
}