{
    "tests/constantinople/eip1052_extcodehash/test_extcodehash.py::test_extcodehash_new_account[fork_Paris-blockchain_test_from_state_test-empty-opcode_CREATE2]": {
        "network": "Paris",
        "genesisBlockHeader": {
            "parentHash": "0x0000000000000000000000000000000000000000000000000000000000000000",
            "uncleHash": "0x1dcc4de8dec75d7aab85b567b6ccd41ad312451b948a7413f0a142fd40d49347",
            "coinbase": "0x0000000000000000000000000000000000000000",
            "stateRoot": "0x247dbe36302333727fce8e3e0664314fb31a9d78c3dae49eac7d65dd28b4c304",
            "transactionsTrie": "0x56e81f171bcc55a6ff8345e692c0f86e5b48e01b996cadc001622fb5e363b421",
            "receiptTrie": "0x56e81f171bcc55a6ff8345e692c0f86e5b48e01b996cadc001622fb5e363b421",
            "bloom": "0x00000000000000000000000000000000000000000000000000000000000000000000000000000000000000000000000000000000000000000000000000000000000000000000000000000000000000000000000000000000000000000000000000000000000000000000000000000000000000000000000000000000000000000000000000000000000000000000000000000000000000000000000000000000000000000000000000000000000000000000000000000000000000000000000000000000000000000000000000000000000000000000000000000000000000000000000000000000000000000000000000000000000000000000000000000000",
            "difficulty": "0x00",
            "number": "0x00",
            "gasLimit": "0x07270e00",
            "gasUsed": "0x00",
            "timestamp": "0x00",
            "extraData": "0x00",
            "mixHash": "0x0000000000000000000000000000000000000000000000000000000000000000",
            "nonce": "0x0000000000000000",
            "baseFeePerGas": "0x07",
            "hash": "0xb7f1117301108348749479e38c13a98ecb13c32bbced249aa8353d3ab2b92774"
        },
        "pre": {
            "0x2b8d39d6f0bbeff14b87e8910f8b981f05ad0bf6": {
                "nonce": "0x01",
                "balance": "0x00",
                "code": "0x7f600060005260006000f3000000000000000000000000000000000000000000006000526000600a60006000f56000556000543f6001556000543b60025500",
                "storage": {
                    "0x00": "0xba5e",
                    "0x02": "0xba5e"
                }
            },
            "0x1ad9bc24818784172ff393bb6f89f094d4d2ca29": {
                "nonce": "0x00",
                "balance": "0x3635c9adc5dea00000",
                "code": "0x",
                "storage": {}
            }
        },
        "postState": {
            "0x2b8d39d6f0bbeff14b87e8910f8b981f05ad0bf6": {
                "nonce": "0x02",
                "balance": "0x00",
                "code": "0x7f600060005260006000f3000000000000000000000000000000000000000000006000526000600a60006000f56000556000543f6001556000543b60025500",
                "storage": {
                    "0x00": "0xf5affedc0ac22dd00e2971086e0733073dca60d9",
                    "0x01": "0xc5d2460186f7233c927e7db2dcc703c0e500b653ca82273b7bfad8045d85a470"
                }
            },
            "0x1ad9bc24818784172ff393bb6f89f094d4d2ca29": {
                "nonce": "0x01",
                "balance": "0x3635c9adc5de93ad32",
                "code": "0x",
                "storage": {}
            },
            "0xf5affedc0ac22dd00e2971086e0733073dca60d9": {
                "nonce": "0x01",
                "balance": "0x00",
                "code": "0x",
                "storage": {}
            },
            "0x2adc25665018aa1fe0e6bc666dac8fc2697ff9ba": {
                "nonce": "0x00",
                "balance": "0x03b271",
                "code": "0x",
                "storage": {}
            }
        },
        "lastblockhash": "0xbdb4516a8b28c96a0a80cb095da31cef2b82213d5e827535a7950a432cce8466",
        "config": {
            "network": "Paris",
            "chainid": "0x01"
        },
        "genesisRLP": "0xf901f7f901f2a00000000000000000000000000000000000000000000000000000000000000000a01dcc4de8dec75d7aab85b567b6ccd41ad312451b948a7413f0a142fd40d49347940000000000000000000000000000000000000000a0247dbe36302333727fce8e3e0664314fb31a9d78c3dae49eac7d65dd28b4c304a056e81f171bcc55a6ff8345e692c0f86e5b48e01b996cadc001622fb5e363b421a056e81f171bcc55a6ff8345e692c0f86e5b48e01b996cadc001622fb5e363b421b901000000000000000000000000000000000000000000000000000000000000000000000000000000000000000000000000000000000000000000000000000000000000000000000000000000000000000000000000000000000000000000000000000000000000000000000000000000000000000000000000000000000000000000000000000000000000000000000000000000000000000000000000000000000000000000000000000000000000000000000000000000000000000000000000000000000000000000000000000000000000000000000000000000000000000000000000000000000000000000000000000000000000000000000000000000000080808407270e00808000a0000000000000000000000000000000000000000000000000000000000000000088000000000000000007c0c0",
        "blocks": [
            {
                "blockHeader": {
                    "parentHash": "0xb7f1117301108348749479e38c13a98ecb13c32bbced249aa8353d3ab2b92774",
                    "uncleHash": "0x1dcc4de8dec75d7aab85b567b6ccd41ad312451b948a7413f0a142fd40d49347",
                    "coinbase": "0x2adc25665018aa1fe0e6bc666dac8fc2697ff9ba",
                    "stateRoot": "0xd405046b3af4454292194b9c6fd8e6a7d7dc857664d60a6ed01bebf26055cbad",
                    "transactionsTrie": "0x6b59a557635a69f25b4a9f2887198117c5120998c32af492a4330266433f7aa5",
                    "receiptTrie": "0xe1485b86066a2ac988be57921f09c4d2173e4a7ae4639a52187220d100938930",
                    "bloom": "0x00000000000000000000000000000000000000000000000000000000000000000000000000000000000000000000000000000000000000000000000000000000000000000000000000000000000000000000000000000000000000000000000000000000000000000000000000000000000000000000000000000000000000000000000000000000000000000000000000000000000000000000000000000000000000000000000000000000000000000000000000000000000000000000000000000000000000000000000000000000000000000000000000000000000000000000000000000000000000000000000000000000000000000000000000000000",
                    "difficulty": "0x00",
                    "number": "0x01",
                    "gasLimit": "0x07270e00",
                    "gasUsed": "0x013b7b",
                    "timestamp": "0x03e8",
                    "extraData": "0x00",
                    "mixHash": "0x0000000000000000000000000000000000000000000000000000000000000000",
                    "nonce": "0x0000000000000000",
                    "baseFeePerGas": "0x07",
                    "hash": "0xbdb4516a8b28c96a0a80cb095da31cef2b82213d5e827535a7950a432cce8466"
                },
                "transactions": [
                    {
                        "type": "0x00",
                        "chainId": "0x01",
                        "nonce": "0x00",
                        "gasPrice": "0x0a",
                        "gasLimit": "0x061a80",
                        "to": "0x2b8d39d6f0bbeff14b87e8910f8b981f05ad0bf6",
                        "value": "0x00",
                        "data": "0x",
                        "v": "0x25",
                        "r": "0xd20792894aa2ee1d2bf4f99ce8f8ca78e985b3c5fdd79808e38c612bf5027acd",
                        "s": "0x26dcf76e4b4621ea97eb2d9cf3c60ea3a1878f03ad6342ffef71899e5aecef63",
                        "sender": "0x1ad9bc24818784172ff393bb6f89f094d4d2ca29"
                    }
                ],
                "uncleHeaders": [],
                "receipts": [
                    {
                        "transactionHash": "0x7f648567876364c065b447910297603270b416704b58727e9ed13f33ffc38651",
                        "type": "0x00",
                        "cumulativeGasUsed": "0x013b7b",
                        "bloom": "0x00000000000000000000000000000000000000000000000000000000000000000000000000000000000000000000000000000000000000000000000000000000000000000000000000000000000000000000000000000000000000000000000000000000000000000000000000000000000000000000000000000000000000000000000000000000000000000000000000000000000000000000000000000000000000000000000000000000000000000000000000000000000000000000000000000000000000000000000000000000000000000000000000000000000000000000000000000000000000000000000000000000000000000000000000000000",
                        "logs": [],
                        "status": true,
                        "rlp": "0xf901090183013b7bb9010000000000000000000000000000000000000000000000000000000000000000000000000000000000000000000000000000000000000000000000000000000000000000000000000000000000000000000000000000000000000000000000000000000000000000000000000000000000000000000000000000000000000000000000000000000000000000000000000000000000000000000000000000000000000000000000000000000000000000000000000000000000000000000000000000000000000000000000000000000000000000000000000000000000000000000000000000000000000000000000000000000000000000000000000000000000c0"
                    }
                ],
                "rlp": "0xf9025ff901f7a0b7f1117301108348749479e38c13a98ecb13c32bbced249aa8353d3ab2b92774a01dcc4de8dec75d7aab85b567b6ccd41ad312451b948a7413f0a142fd40d49347942adc25665018aa1fe0e6bc666dac8fc2697ff9baa0d405046b3af4454292194b9c6fd8e6a7d7dc857664d60a6ed01bebf26055cbada06b59a557635a69f25b4a9f2887198117c5120998c32af492a4330266433f7aa5a0e1485b86066a2ac988be57921f09c4d2173e4a7ae4639a52187220d100938930b901000000000000000000000000000000000000000000000000000000000000000000000000000000000000000000000000000000000000000000000000000000000000000000000000000000000000000000000000000000000000000000000000000000000000000000000000000000000000000000000000000000000000000000000000000000000000000000000000000000000000000000000000000000000000000000000000000000000000000000000000000000000000000000000000000000000000000000000000000000000000000000000000000000000000000000000000000000000000000000000000000000000000000000000000000000000080018407270e0083013b7b8203e800a0000000000000000000000000000000000000000000000000000000000000000088000000000000000007f862f860800a83061a80942b8d39d6f0bbeff14b87e8910f8b981f05ad0bf6808025a0d20792894aa2ee1d2bf4f99ce8f8ca78e985b3c5fdd79808e38c612bf5027acda026dcf76e4b4621ea97eb2d9cf3c60ea3a1878f03ad6342ffef71899e5aecef63c0",
                "blocknumber": "1"
            }
        ],
        "sealEngine": "NoProof",
        "_info": {
            "hash": "0x75d92c41f067945580eabc57faf06f6d562a354d63d8b7ea5ef659b8c5680572",
            "fixture-format": "blockchain_test",
            "comment": "`execution-specs` generated test",
            "filling-transition-tool": "2.19.0",
            "description": "Test EXTCODEHASH/EXTCODESIZE of a contract created within the same tx.\n\nUses CREATE/CREATE2 to deploy a contract, then verifies that EXTCODEHASH\nand EXTCODESIZE reflect the newly deployed code.",
            "url": "https://github.com/ethereum/execution-specs/blob/tests-bal@v5.4.0/tests/constantinople/eip1052_extcodehash/test_extcodehash.py#L602",
            "opcode_count": {},
            "reference-spec": "https://github.com/ethereum/EIPs/blob/master/EIPS/eip-1052.md",
            "reference-spec-version": "2dcbc7ce1563e9624e137e9d447374600af876fa"
        }
    },
    "tests/constantinople/eip1052_extcodehash/test_extcodehash.py::test_extcodehash_new_account[fork_Paris-blockchain_test_from_state_test-empty-opcode_CREATE]": {
        "network": "Paris",
        "genesisBlockHeader": {
            "parentHash": "0x0000000000000000000000000000000000000000000000000000000000000000",
            "uncleHash": "0x1dcc4de8dec75d7aab85b567b6ccd41ad312451b948a7413f0a142fd40d49347",
            "coinbase": "0x0000000000000000000000000000000000000000",
            "stateRoot": "0x9c5ab8fa66d393cfab2d348231ed2cbe0aaa7f53b2c1faf0c0438b93e09a9364",
            "transactionsTrie": "0x56e81f171bcc55a6ff8345e692c0f86e5b48e01b996cadc001622fb5e363b421",
            "receiptTrie": "0x56e81f171bcc55a6ff8345e692c0f86e5b48e01b996cadc001622fb5e363b421",
            "bloom": "0x00000000000000000000000000000000000000000000000000000000000000000000000000000000000000000000000000000000000000000000000000000000000000000000000000000000000000000000000000000000000000000000000000000000000000000000000000000000000000000000000000000000000000000000000000000000000000000000000000000000000000000000000000000000000000000000000000000000000000000000000000000000000000000000000000000000000000000000000000000000000000000000000000000000000000000000000000000000000000000000000000000000000000000000000000000000",
            "difficulty": "0x00",
            "number": "0x00",
            "gasLimit": "0x07270e00",
            "gasUsed": "0x00",
            "timestamp": "0x00",
            "extraData": "0x00",
            "mixHash": "0x0000000000000000000000000000000000000000000000000000000000000000",
            "nonce": "0x0000000000000000",
            "baseFeePerGas": "0x07",
            "hash": "0x3c499ad736d5a9827e5279db6ab354707b68c449bc40e92a354c722aa6d0023f"
        },
        "pre": {
            "0xb633a571127efbd2214e12bf51329c39e4484df0": {
                "nonce": "0x01",
                "balance": "0x00",
                "code": "0x7f600060005260006000f300000000000000000000000000000000000000000000600052600a60006000f06000556000543f6001556000543b60025500",
                "storage": {
                    "0x00": "0xba5e",
                    "0x02": "0xba5e"
                }
            },
            "0x1ad9bc24818784172ff393bb6f89f094d4d2ca29": {
                "nonce": "0x00",
                "balance": "0x3635c9adc5dea00000",
                "code": "0x",
                "storage": {}
            }
        },
        "postState": {
            "0xb633a571127efbd2214e12bf51329c39e4484df0": {
                "nonce": "0x02",
                "balance": "0x00",
                "code": "0x7f600060005260006000f300000000000000000000000000000000000000000000600052600a60006000f06000556000543f6001556000543b60025500",
                "storage": {
                    "0x00": "0x0d8a12397cd6687221e2c351a2a904d20ad807e5",
                    "0x01": "0xc5d2460186f7233c927e7db2dcc703c0e500b653ca82273b7bfad8045d85a470"
                }
            },
            "0x1ad9bc24818784172ff393bb6f89f094d4d2ca29": {
                "nonce": "0x01",
                "balance": "0x3635c9adc5de93ad8c",
                "code": "0x",
                "storage": {}
            },
            "0x0d8a12397cd6687221e2c351a2a904d20ad807e5": {
                "nonce": "0x01",
                "balance": "0x00",
                "code": "0x",
                "storage": {}
            },
            "0x2adc25665018aa1fe0e6bc666dac8fc2697ff9ba": {
                "nonce": "0x00",
                "balance": "0x03b256",
                "code": "0x",
                "storage": {}
            }
        },
        "lastblockhash": "0xfdbf76ae87aa5c5244116a4596d264a228b7a4eb79aaf3dd183cb56fa47555d7",
        "config": {
            "network": "Paris",
            "chainid": "0x01"
        },
        "genesisRLP": "0xf901f7f901f2a00000000000000000000000000000000000000000000000000000000000000000a01dcc4de8dec75d7aab85b567b6ccd41ad312451b948a7413f0a142fd40d49347940000000000000000000000000000000000000000a09c5ab8fa66d393cfab2d348231ed2cbe0aaa7f53b2c1faf0c0438b93e09a9364a056e81f171bcc55a6ff8345e692c0f86e5b48e01b996cadc001622fb5e363b421a056e81f171bcc55a6ff8345e692c0f86e5b48e01b996cadc001622fb5e363b421b901000000000000000000000000000000000000000000000000000000000000000000000000000000000000000000000000000000000000000000000000000000000000000000000000000000000000000000000000000000000000000000000000000000000000000000000000000000000000000000000000000000000000000000000000000000000000000000000000000000000000000000000000000000000000000000000000000000000000000000000000000000000000000000000000000000000000000000000000000000000000000000000000000000000000000000000000000000000000000000000000000000000000000000000000000000000080808407270e00808000a0000000000000000000000000000000000000000000000000000000000000000088000000000000000007c0c0",
        "blocks": [
            {
                "blockHeader": {
                    "parentHash": "0x3c499ad736d5a9827e5279db6ab354707b68c449bc40e92a354c722aa6d0023f",
                    "uncleHash": "0x1dcc4de8dec75d7aab85b567b6ccd41ad312451b948a7413f0a142fd40d49347",
                    "coinbase": "0x2adc25665018aa1fe0e6bc666dac8fc2697ff9ba",
                    "stateRoot": "0x703d2f1a2597bb3d33a002ea2122d41f6f1e014b1593490bfc982fdad444b0c6",
                    "transactionsTrie": "0x85cb84757ed41d56895e7e02f8d1fb640d8c726641a4e152fac6d50e997d63df",
                    "receiptTrie": "0x1e3797b5ce3ac5d8198ade89c13fe66bdeee1359b6d96e8a33745ab8170d7e4c",
                    "bloom": "0x00000000000000000000000000000000000000000000000000000000000000000000000000000000000000000000000000000000000000000000000000000000000000000000000000000000000000000000000000000000000000000000000000000000000000000000000000000000000000000000000000000000000000000000000000000000000000000000000000000000000000000000000000000000000000000000000000000000000000000000000000000000000000000000000000000000000000000000000000000000000000000000000000000000000000000000000000000000000000000000000000000000000000000000000000000000",
                    "difficulty": "0x00",
                    "number": "0x01",
                    "gasLimit": "0x07270e00",
                    "gasUsed": "0x013b72",
                    "timestamp": "0x03e8",
                    "extraData": "0x00",
                    "mixHash": "0x0000000000000000000000000000000000000000000000000000000000000000",
                    "nonce": "0x0000000000000000",
                    "baseFeePerGas": "0x07",
                    "hash": "0xfdbf76ae87aa5c5244116a4596d264a228b7a4eb79aaf3dd183cb56fa47555d7"
                },
                "transactions": [
                    {
                        "type": "0x00",
                        "chainId": "0x01",
                        "nonce": "0x00",
                        "gasPrice": "0x0a",
                        "gasLimit": "0x061a80",
                        "to": "0xb633a571127efbd2214e12bf51329c39e4484df0",
                        "value": "0x00",
                        "data": "0x",
                        "v": "0x25",
                        "r": "0xb071586639d4bd0e1817458961d6404b31d39fdbb2298e2dae9add96f7d6201b",
                        "s": "0x620d4aaeddcc8a54c5e30045489115bd55edc81d515e2a389083453d6c9ae9f9",
                        "sender": "0x1ad9bc24818784172ff393bb6f89f094d4d2ca29"
                    }
                ],
                "uncleHeaders": [],
                "receipts": [
                    {
                        "transactionHash": "0x7d22df4ec9503beb692af57d40129d09698c37e29eb486dfb64e0ecdd70001ac",
                        "type": "0x00",
                        "cumulativeGasUsed": "0x013b72",
                        "bloom": "0x00000000000000000000000000000000000000000000000000000000000000000000000000000000000000000000000000000000000000000000000000000000000000000000000000000000000000000000000000000000000000000000000000000000000000000000000000000000000000000000000000000000000000000000000000000000000000000000000000000000000000000000000000000000000000000000000000000000000000000000000000000000000000000000000000000000000000000000000000000000000000000000000000000000000000000000000000000000000000000000000000000000000000000000000000000000",
                        "logs": [],
                        "status": true,
                        "rlp": "0xf901090183013b72b9010000000000000000000000000000000000000000000000000000000000000000000000000000000000000000000000000000000000000000000000000000000000000000000000000000000000000000000000000000000000000000000000000000000000000000000000000000000000000000000000000000000000000000000000000000000000000000000000000000000000000000000000000000000000000000000000000000000000000000000000000000000000000000000000000000000000000000000000000000000000000000000000000000000000000000000000000000000000000000000000000000000000000000000000000000000000c0"
                    }
                ],
                "rlp": "0xf9025ff901f7a03c499ad736d5a9827e5279db6ab354707b68c449bc40e92a354c722aa6d0023fa01dcc4de8dec75d7aab85b567b6ccd41ad312451b948a7413f0a142fd40d49347942adc25665018aa1fe0e6bc666dac8fc2697ff9baa0703d2f1a2597bb3d33a002ea2122d41f6f1e014b1593490bfc982fdad444b0c6a085cb84757ed41d56895e7e02f8d1fb640d8c726641a4e152fac6d50e997d63dfa01e3797b5ce3ac5d8198ade89c13fe66bdeee1359b6d96e8a33745ab8170d7e4cb901000000000000000000000000000000000000000000000000000000000000000000000000000000000000000000000000000000000000000000000000000000000000000000000000000000000000000000000000000000000000000000000000000000000000000000000000000000000000000000000000000000000000000000000000000000000000000000000000000000000000000000000000000000000000000000000000000000000000000000000000000000000000000000000000000000000000000000000000000000000000000000000000000000000000000000000000000000000000000000000000000000000000000000000000000000000080018407270e0083013b728203e800a0000000000000000000000000000000000000000000000000000000000000000088000000000000000007f862f860800a83061a8094b633a571127efbd2214e12bf51329c39e4484df0808025a0b071586639d4bd0e1817458961d6404b31d39fdbb2298e2dae9add96f7d6201ba0620d4aaeddcc8a54c5e30045489115bd55edc81d515e2a389083453d6c9ae9f9c0",
                "blocknumber": "1"
            }
        ],
        "sealEngine": "NoProof",
        "_info": {
            "hash": "0x6a35e69b1027d046386d94ac9c9e0a0a9cb2ecb197bedb35fecf1a0153ae5d2a",
            "fixture-format": "blockchain_test",
            "comment": "`execution-specs` generated test",
            "filling-transition-tool": "2.19.0",
            "description": "Test EXTCODEHASH/EXTCODESIZE of a contract created within the same tx.\n\nUses CREATE/CREATE2 to deploy a contract, then verifies that EXTCODEHASH\nand EXTCODESIZE reflect the newly deployed code.",
            "url": "https://github.com/ethereum/execution-specs/blob/tests-bal@v5.4.0/tests/constantinople/eip1052_extcodehash/test_extcodehash.py#L602",
            "opcode_count": {},
            "reference-spec": "https://github.com/ethereum/EIPs/blob/master/EIPS/eip-1052.md",
            "reference-spec-version": "2dcbc7ce1563e9624e137e9d447374600af876fa"
        }
    },
    "tests/constantinople/eip1052_extcodehash/test_extcodehash.py::test_extcodehash_new_account[fork_Paris-blockchain_test_from_state_test-non-empty-opcode_CREATE2]": {
        "network": "Paris",
        "genesisBlockHeader": {
            "parentHash": "0x0000000000000000000000000000000000000000000000000000000000000000",
            "uncleHash": "0x1dcc4de8dec75d7aab85b567b6ccd41ad312451b948a7413f0a142fd40d49347",
            "coinbase": "0x0000000000000000000000000000000000000000",
            "stateRoot": "0xf4a62be73139bfce74d0e84e7ffe4cd64382fae40a99d400c04fd10e272bfa44",
            "transactionsTrie": "0x56e81f171bcc55a6ff8345e692c0f86e5b48e01b996cadc001622fb5e363b421",
            "receiptTrie": "0x56e81f171bcc55a6ff8345e692c0f86e5b48e01b996cadc001622fb5e363b421",
            "bloom": "0x00000000000000000000000000000000000000000000000000000000000000000000000000000000000000000000000000000000000000000000000000000000000000000000000000000000000000000000000000000000000000000000000000000000000000000000000000000000000000000000000000000000000000000000000000000000000000000000000000000000000000000000000000000000000000000000000000000000000000000000000000000000000000000000000000000000000000000000000000000000000000000000000000000000000000000000000000000000000000000000000000000000000000000000000000000000",
            "difficulty": "0x00",
            "number": "0x00",
            "gasLimit": "0x07270e00",
            "gasUsed": "0x00",
            "timestamp": "0x00",
            "extraData": "0x00",
            "mixHash": "0x0000000000000000000000000000000000000000000000000000000000000000",
            "nonce": "0x0000000000000000",
            "baseFeePerGas": "0x07",
            "hash": "0xfdb485f1c893b8607d6b2dd5ed8ced18167208ebe7007882866d935d5ec68690"
        },
        "pre": {
            "0xcf46a2fe08f88c57962fcb8bef4795941b41d240": {
                "nonce": "0x01",
                "balance": "0x00",
                "code": "0x7f61123460005260206000f30000000000000000000000000000000000000000006000526000600b60006000f56000556000543f6001556000543b60025500",
                "storage": {
                    "0x00": "0xba5e"
                }
            },
            "0x1ad9bc24818784172ff393bb6f89f094d4d2ca29": {
                "nonce": "0x00",
                "balance": "0x3635c9adc5dea00000",
                "code": "0x",
                "storage": {}
            }
        },
        "postState": {
            "0xcf46a2fe08f88c57962fcb8bef4795941b41d240": {
                "nonce": "0x02",
                "balance": "0x00",
                "code": "0x7f61123460005260206000f30000000000000000000000000000000000000000006000526000600b60006000f56000556000543f6001556000543b60025500",
                "storage": {
                    "0x00": "0x972404d674049ff120593a7ebc22a723f41677dd",
                    "0x01": "0xe321d900f3fd366734e2d071e30949ded20c27fd638f1a059390091c643b62c5",
                    "0x02": "0x20"
                }
            },
            "0x1ad9bc24818784172ff393bb6f89f094d4d2ca29": {
                "nonce": "0x01",
                "balance": "0x3635c9adc5de8f5bba",
                "code": "0x",
                "storage": {}
            },
            "0x972404d674049ff120593a7ebc22a723f41677dd": {
                "nonce": "0x01",
                "balance": "0x00",
                "code": "0x0000000000000000000000000000000000000000000000000000000000001234",
                "storage": {}
            },
            "0x2adc25665018aa1fe0e6bc666dac8fc2697ff9ba": {
                "nonce": "0x00",
                "balance": "0x04fe15",
                "code": "0x",
                "storage": {}
            }
        },
        "lastblockhash": "0x36c26e9541938cddccf6495e8ff6f487a9ecb68b8c7419c4fdcf970b3cf0ef5b",
        "config": {
            "network": "Paris",
            "chainid": "0x01"
        },
        "genesisRLP": "0xf901f7f901f2a00000000000000000000000000000000000000000000000000000000000000000a01dcc4de8dec75d7aab85b567b6ccd41ad312451b948a7413f0a142fd40d49347940000000000000000000000000000000000000000a0f4a62be73139bfce74d0e84e7ffe4cd64382fae40a99d400c04fd10e272bfa44a056e81f171bcc55a6ff8345e692c0f86e5b48e01b996cadc001622fb5e363b421a056e81f171bcc55a6ff8345e692c0f86e5b48e01b996cadc001622fb5e363b421b901000000000000000000000000000000000000000000000000000000000000000000000000000000000000000000000000000000000000000000000000000000000000000000000000000000000000000000000000000000000000000000000000000000000000000000000000000000000000000000000000000000000000000000000000000000000000000000000000000000000000000000000000000000000000000000000000000000000000000000000000000000000000000000000000000000000000000000000000000000000000000000000000000000000000000000000000000000000000000000000000000000000000000000000000000000000080808407270e00808000a0000000000000000000000000000000000000000000000000000000000000000088000000000000000007c0c0",
        "blocks": [
            {
                "blockHeader": {
                    "parentHash": "0xfdb485f1c893b8607d6b2dd5ed8ced18167208ebe7007882866d935d5ec68690",
                    "uncleHash": "0x1dcc4de8dec75d7aab85b567b6ccd41ad312451b948a7413f0a142fd40d49347",
                    "coinbase": "0x2adc25665018aa1fe0e6bc666dac8fc2697ff9ba",
                    "stateRoot": "0x5866fec4b104de9bba5e9531c7ee9c2f5c500d0267c79374719879291024d36d",
                    "transactionsTrie": "0x090cf923e9b11f3516fbf2e5df45461e8b619cf9e30de56b3d4c1525ad02c301",
                    "receiptTrie": "0xf99bb4f15698df6134024bc5b0db14ca94806305dbbf895a09a79cc7763dce48",
                    "bloom": "0x00000000000000000000000000000000000000000000000000000000000000000000000000000000000000000000000000000000000000000000000000000000000000000000000000000000000000000000000000000000000000000000000000000000000000000000000000000000000000000000000000000000000000000000000000000000000000000000000000000000000000000000000000000000000000000000000000000000000000000000000000000000000000000000000000000000000000000000000000000000000000000000000000000000000000000000000000000000000000000000000000000000000000000000000000000000",
                    "difficulty": "0x00",
                    "number": "0x01",
                    "gasLimit": "0x07270e00",
                    "gasUsed": "0x01aa07",
                    "timestamp": "0x03e8",
                    "extraData": "0x00",
                    "mixHash": "0x0000000000000000000000000000000000000000000000000000000000000000",
                    "nonce": "0x0000000000000000",
                    "baseFeePerGas": "0x07",
                    "hash": "0x36c26e9541938cddccf6495e8ff6f487a9ecb68b8c7419c4fdcf970b3cf0ef5b"
                },
                "transactions": [
                    {
                        "type": "0x00",
                        "chainId": "0x01",
                        "nonce": "0x00",
                        "gasPrice": "0x0a",
                        "gasLimit": "0x061a80",
                        "to": "0xcf46a2fe08f88c57962fcb8bef4795941b41d240",
                        "value": "0x00",
                        "data": "0x",
                        "v": "0x25",
                        "r": "0xf1b25562184baa7e1730722b9c43017aad58368e75d5a0e22e3b7625f6b0476d",
                        "s": "0x1a778aaf9c404445caa05443b41c9fd1fb30cf462a84af6c616b37944c4a18e3",
                        "sender": "0x1ad9bc24818784172ff393bb6f89f094d4d2ca29"
                    }
                ],
                "uncleHeaders": [],
                "receipts": [
                    {
                        "transactionHash": "0x84644cc834c7ef62e5332e3718a99cae7522888409ba65f62b18d0b3fef2e2ee",
                        "type": "0x00",
                        "cumulativeGasUsed": "0x01aa07",
                        "bloom": "0x00000000000000000000000000000000000000000000000000000000000000000000000000000000000000000000000000000000000000000000000000000000000000000000000000000000000000000000000000000000000000000000000000000000000000000000000000000000000000000000000000000000000000000000000000000000000000000000000000000000000000000000000000000000000000000000000000000000000000000000000000000000000000000000000000000000000000000000000000000000000000000000000000000000000000000000000000000000000000000000000000000000000000000000000000000000",
                        "logs": [],
                        "status": true,
                        "rlp": "0xf90109018301aa07b9010000000000000000000000000000000000000000000000000000000000000000000000000000000000000000000000000000000000000000000000000000000000000000000000000000000000000000000000000000000000000000000000000000000000000000000000000000000000000000000000000000000000000000000000000000000000000000000000000000000000000000000000000000000000000000000000000000000000000000000000000000000000000000000000000000000000000000000000000000000000000000000000000000000000000000000000000000000000000000000000000000000000000000000000000000000000c0"
                    }
                ],
                "rlp": "0xf9025ff901f7a0fdb485f1c893b8607d6b2dd5ed8ced18167208ebe7007882866d935d5ec68690a01dcc4de8dec75d7aab85b567b6ccd41ad312451b948a7413f0a142fd40d49347942adc25665018aa1fe0e6bc666dac8fc2697ff9baa05866fec4b104de9bba5e9531c7ee9c2f5c500d0267c79374719879291024d36da0090cf923e9b11f3516fbf2e5df45461e8b619cf9e30de56b3d4c1525ad02c301a0f99bb4f15698df6134024bc5b0db14ca94806305dbbf895a09a79cc7763dce48b901000000000000000000000000000000000000000000000000000000000000000000000000000000000000000000000000000000000000000000000000000000000000000000000000000000000000000000000000000000000000000000000000000000000000000000000000000000000000000000000000000000000000000000000000000000000000000000000000000000000000000000000000000000000000000000000000000000000000000000000000000000000000000000000000000000000000000000000000000000000000000000000000000000000000000000000000000000000000000000000000000000000000000000000000000000000080018407270e008301aa078203e800a0000000000000000000000000000000000000000000000000000000000000000088000000000000000007f862f860800a83061a8094cf46a2fe08f88c57962fcb8bef4795941b41d240808025a0f1b25562184baa7e1730722b9c43017aad58368e75d5a0e22e3b7625f6b0476da01a778aaf9c404445caa05443b41c9fd1fb30cf462a84af6c616b37944c4a18e3c0",
                "blocknumber": "1"
            }
        ],
        "sealEngine": "NoProof",
        "_info": {
            "hash": "0xfcaffa8bee5295204939a4fc1808f1c3556f54bd536c81a488148629587b4f98",
            "fixture-format": "blockchain_test",
            "comment": "`execution-specs` generated test",
            "filling-transition-tool": "2.19.0",
            "description": "Test EXTCODEHASH/EXTCODESIZE of a contract created within the same tx.\n\nUses CREATE/CREATE2 to deploy a contract, then verifies that EXTCODEHASH\nand EXTCODESIZE reflect the newly deployed code.",
            "url": "https://github.com/ethereum/execution-specs/blob/tests-bal@v5.4.0/tests/constantinople/eip1052_extcodehash/test_extcodehash.py#L602",
            "opcode_count": {},
            "reference-spec": "https://github.com/ethereum/EIPs/blob/master/EIPS/eip-1052.md",
            "reference-spec-version": "2dcbc7ce1563e9624e137e9d447374600af876fa"
        }
    },
    "tests/constantinople/eip1052_extcodehash/test_extcodehash.py::test_extcodehash_new_account[fork_Paris-blockchain_test_from_state_test-non-empty-opcode_CREATE]": {
        "network": "Paris",
        "genesisBlockHeader": {
            "parentHash": "0x0000000000000000000000000000000000000000000000000000000000000000",
            "uncleHash": "0x1dcc4de8dec75d7aab85b567b6ccd41ad312451b948a7413f0a142fd40d49347",
            "coinbase": "0x0000000000000000000000000000000000000000",
            "stateRoot": "0xedfd1ee7c1fc4ce7fb9b1943cde40b600ad5db5bee4eb3051db8599526dae0e2",
            "transactionsTrie": "0x56e81f171bcc55a6ff8345e692c0f86e5b48e01b996cadc001622fb5e363b421",
            "receiptTrie": "0x56e81f171bcc55a6ff8345e692c0f86e5b48e01b996cadc001622fb5e363b421",
            "bloom": "0x00000000000000000000000000000000000000000000000000000000000000000000000000000000000000000000000000000000000000000000000000000000000000000000000000000000000000000000000000000000000000000000000000000000000000000000000000000000000000000000000000000000000000000000000000000000000000000000000000000000000000000000000000000000000000000000000000000000000000000000000000000000000000000000000000000000000000000000000000000000000000000000000000000000000000000000000000000000000000000000000000000000000000000000000000000000",
            "difficulty": "0x00",
            "number": "0x00",
            "gasLimit": "0x07270e00",
            "gasUsed": "0x00",
            "timestamp": "0x00",
            "extraData": "0x00",
            "mixHash": "0x0000000000000000000000000000000000000000000000000000000000000000",
            "nonce": "0x0000000000000000",
            "baseFeePerGas": "0x07",
            "hash": "0x70f3702984cd7f86e619910cc78bb3e3b06ba4a7c157870b51d2de8e581b5c49"
        },
        "pre": {
            "0xef26ca47554323133a7d1ec280ae691161b97fe1": {
                "nonce": "0x01",
                "balance": "0x00",
                "code": "0x7f61123460005260206000f3000000000000000000000000000000000000000000600052600b60006000f06000556000543f6001556000543b60025500",
                "storage": {
                    "0x00": "0xba5e"
                }
            },
            "0x1ad9bc24818784172ff393bb6f89f094d4d2ca29": {
                "nonce": "0x00",
                "balance": "0x3635c9adc5dea00000",
                "code": "0x",
                "storage": {}
            }
        },
        "postState": {
            "0xef26ca47554323133a7d1ec280ae691161b97fe1": {
                "nonce": "0x02",
                "balance": "0x00",
                "code": "0x7f61123460005260206000f3000000000000000000000000000000000000000000600052600b60006000f06000556000543f6001556000543b60025500",
                "storage": {
                    "0x00": "0xc132f3efec6aee0cdeb2d5b2eb1bb232385220ba",
                    "0x01": "0xe321d900f3fd366734e2d071e30949ded20c27fd638f1a059390091c643b62c5",
                    "0x02": "0x20"
                }
            },
            "0x1ad9bc24818784172ff393bb6f89f094d4d2ca29": {
                "nonce": "0x01",
                "balance": "0x3635c9adc5de8f5c14",
                "code": "0x",
                "storage": {}
            },
            "0xc132f3efec6aee0cdeb2d5b2eb1bb232385220ba": {
                "nonce": "0x01",
                "balance": "0x00",
                "code": "0x0000000000000000000000000000000000000000000000000000000000001234",
                "storage": {}
            },
            "0x2adc25665018aa1fe0e6bc666dac8fc2697ff9ba": {
                "nonce": "0x00",
                "balance": "0x04fdfa",
                "code": "0x",
                "storage": {}
            }
        },
        "lastblockhash": "0x87e0151509d6861e08e966e0537fd8376908def8fd21bc28f73dbb23da114f90",
        "config": {
            "network": "Paris",
            "chainid": "0x01"
        },
        "genesisRLP": "0xf901f7f901f2a00000000000000000000000000000000000000000000000000000000000000000a01dcc4de8dec75d7aab85b567b6ccd41ad312451b948a7413f0a142fd40d49347940000000000000000000000000000000000000000a0edfd1ee7c1fc4ce7fb9b1943cde40b600ad5db5bee4eb3051db8599526dae0e2a056e81f171bcc55a6ff8345e692c0f86e5b48e01b996cadc001622fb5e363b421a056e81f171bcc55a6ff8345e692c0f86e5b48e01b996cadc001622fb5e363b421b901000000000000000000000000000000000000000000000000000000000000000000000000000000000000000000000000000000000000000000000000000000000000000000000000000000000000000000000000000000000000000000000000000000000000000000000000000000000000000000000000000000000000000000000000000000000000000000000000000000000000000000000000000000000000000000000000000000000000000000000000000000000000000000000000000000000000000000000000000000000000000000000000000000000000000000000000000000000000000000000000000000000000000000000000000000000080808407270e00808000a0000000000000000000000000000000000000000000000000000000000000000088000000000000000007c0c0",
        "blocks": [
            {
                "blockHeader": {
                    "parentHash": "0x70f3702984cd7f86e619910cc78bb3e3b06ba4a7c157870b51d2de8e581b5c49",
                    "uncleHash": "0x1dcc4de8dec75d7aab85b567b6ccd41ad312451b948a7413f0a142fd40d49347",
                    "coinbase": "0x2adc25665018aa1fe0e6bc666dac8fc2697ff9ba",
                    "stateRoot": "0x049250cc90c0215393f1b658038c74a5f4da0f2b4e164f461a616f9b9e1c8393",
                    "transactionsTrie": "0xfdb442394997a8a1f068eebc00f162b1637203db9730679c4c76b9642a9653db",
                    "receiptTrie": "0x1c5e61c7a7172f53de95615c2746e164bd4eb836744e59a0bc7435e773efb51b",
                    "bloom": "0x00000000000000000000000000000000000000000000000000000000000000000000000000000000000000000000000000000000000000000000000000000000000000000000000000000000000000000000000000000000000000000000000000000000000000000000000000000000000000000000000000000000000000000000000000000000000000000000000000000000000000000000000000000000000000000000000000000000000000000000000000000000000000000000000000000000000000000000000000000000000000000000000000000000000000000000000000000000000000000000000000000000000000000000000000000000",
                    "difficulty": "0x00",
                    "number": "0x01",
                    "gasLimit": "0x07270e00",
                    "gasUsed": "0x01a9fe",
                    "timestamp": "0x03e8",
                    "extraData": "0x00",
                    "mixHash": "0x0000000000000000000000000000000000000000000000000000000000000000",
                    "nonce": "0x0000000000000000",
                    "baseFeePerGas": "0x07",
                    "hash": "0x87e0151509d6861e08e966e0537fd8376908def8fd21bc28f73dbb23da114f90"
                },
                "transactions": [
                    {
                        "type": "0x00",
                        "chainId": "0x01",
                        "nonce": "0x00",
                        "gasPrice": "0x0a",
                        "gasLimit": "0x061a80",
                        "to": "0xef26ca47554323133a7d1ec280ae691161b97fe1",
                        "value": "0x00",
                        "data": "0x",
                        "v": "0x26",
                        "r": "0x1d5cc0b17da43f51de6f24f8a7d7d992ef4233d650d36b10b6b8194e04b6fdf4",
                        "s": "0x7036b55ea92f7b3c524ef78b8e560980d8fb6d5c89d4cf2ad1ce6c4743dc5ba1",
                        "sender": "0x1ad9bc24818784172ff393bb6f89f094d4d2ca29"
                    }
                ],
                "uncleHeaders": [],
                "receipts": [
                    {
                        "transactionHash": "0xb8a7905589ea02d05743dc5934c79ff9072b5aaff375d457b630651732ce8684",
                        "type": "0x00",
                        "cumulativeGasUsed": "0x01a9fe",
                        "bloom": "0x00000000000000000000000000000000000000000000000000000000000000000000000000000000000000000000000000000000000000000000000000000000000000000000000000000000000000000000000000000000000000000000000000000000000000000000000000000000000000000000000000000000000000000000000000000000000000000000000000000000000000000000000000000000000000000000000000000000000000000000000000000000000000000000000000000000000000000000000000000000000000000000000000000000000000000000000000000000000000000000000000000000000000000000000000000000",
                        "logs": [],
                        "status": true,
                        "rlp": "0xf90109018301a9feb9010000000000000000000000000000000000000000000000000000000000000000000000000000000000000000000000000000000000000000000000000000000000000000000000000000000000000000000000000000000000000000000000000000000000000000000000000000000000000000000000000000000000000000000000000000000000000000000000000000000000000000000000000000000000000000000000000000000000000000000000000000000000000000000000000000000000000000000000000000000000000000000000000000000000000000000000000000000000000000000000000000000000000000000000000000000000c0"
                    }
                ],
                "rlp": "0xf9025ff901f7a070f3702984cd7f86e619910cc78bb3e3b06ba4a7c157870b51d2de8e581b5c49a01dcc4de8dec75d7aab85b567b6ccd41ad312451b948a7413f0a142fd40d49347942adc25665018aa1fe0e6bc666dac8fc2697ff9baa0049250cc90c0215393f1b658038c74a5f4da0f2b4e164f461a616f9b9e1c8393a0fdb442394997a8a1f068eebc00f162b1637203db9730679c4c76b9642a9653dba01c5e61c7a7172f53de95615c2746e164bd4eb836744e59a0bc7435e773efb51bb901000000000000000000000000000000000000000000000000000000000000000000000000000000000000000000000000000000000000000000000000000000000000000000000000000000000000000000000000000000000000000000000000000000000000000000000000000000000000000000000000000000000000000000000000000000000000000000000000000000000000000000000000000000000000000000000000000000000000000000000000000000000000000000000000000000000000000000000000000000000000000000000000000000000000000000000000000000000000000000000000000000000000000000000000000000000080018407270e008301a9fe8203e800a0000000000000000000000000000000000000000000000000000000000000000088000000000000000007f862f860800a83061a8094ef26ca47554323133a7d1ec280ae691161b97fe1808026a01d5cc0b17da43f51de6f24f8a7d7d992ef4233d650d36b10b6b8194e04b6fdf4a07036b55ea92f7b3c524ef78b8e560980d8fb6d5c89d4cf2ad1ce6c4743dc5ba1c0",
                "blocknumber": "1"
            }
        ],
        "sealEngine": "NoProof",
        "_info": {
            "hash": "0x5e4062d062090e6a7f4f1e2842d0c959102475b7517a77edaa682248f8051267",
            "fixture-format": "blockchain_test",
            "comment": "`execution-specs` generated test",
            "filling-transition-tool": "2.19.0",
            "description": "Test EXTCODEHASH/EXTCODESIZE of a contract created within the same tx.\n\nUses CREATE/CREATE2 to deploy a contract, then verifies that EXTCODEHASH\nand EXTCODESIZE reflect the newly deployed code.",
            "url": "https://github.com/ethereum/execution-specs/blob/tests-bal@v5.4.0/tests/constantinople/eip1052_extcodehash/test_extcodehash.py#L602",
            "opcode_count": {},
            "reference-spec": "https://github.com/ethereum/EIPs/blob/master/EIPS/eip-1052.md",
            "reference-spec-version": "2dcbc7ce1563e9624e137e9d447374600af876fa"
        }
    }
}