{
    "tests/ported_static/stStaticCall/test_static_log0_log_memsize_too_high.py::test_static_log0_log_memsize_too_high[fork_Cancun-blockchain_test_from_state_test]": {
        "network": "Cancun",
        "genesisBlockHeader": {
            "parentHash": "0x0000000000000000000000000000000000000000000000000000000000000000",
            "uncleHash": "0x1dcc4de8dec75d7aab85b567b6ccd41ad312451b948a7413f0a142fd40d49347",
            "coinbase": "0x0000000000000000000000000000000000000000",
            "stateRoot": "0xa025b8a20b268ad9b774e3b3f9a4db4de4043d96e61e1a0aa9a374db372fe214",
            "transactionsTrie": "0x56e81f171bcc55a6ff8345e692c0f86e5b48e01b996cadc001622fb5e363b421",
            "receiptTrie": "0x56e81f171bcc55a6ff8345e692c0f86e5b48e01b996cadc001622fb5e363b421",
            "bloom": "0x00000000000000000000000000000000000000000000000000000000000000000000000000000000000000000000000000000000000000000000000000000000000000000000000000000000000000000000000000000000000000000000000000000000000000000000000000000000000000000000000000000000000000000000000000000000000000000000000000000000000000000000000000000000000000000000000000000000000000000000000000000000000000000000000000000000000000000000000000000000000000000000000000000000000000000000000000000000000000000000000000000000000000000000000000000000",
            "difficulty": "0x00",
            "number": "0x00",
            "gasLimit": "0x0f4240",
            "gasUsed": "0x00",
            "timestamp": "0x00",
            "extraData": "0x00",
            "mixHash": "0x0000000000000000000000000000000000000000000000000000000000000000",
            "nonce": "0x0000000000000000",
            "baseFeePerGas": "0x0b",
            "withdrawalsRoot": "0x56e81f171bcc55a6ff8345e692c0f86e5b48e01b996cadc001622fb5e363b421",
            "blobGasUsed": "0x00",
            "excessBlobGas": "0x00",
            "parentBeaconBlockRoot": "0x0000000000000000000000000000000000000000000000000000000000000000",
            "hash": "0xa138ac2c04a238da72afbc568f2ef7f830b8d1797050fd0435b4931457639bae"
        },
        "pre": {
            "0x000f3df6d732807ef1319fb7b8bb8522d0beac02": {
                "nonce": "0x01",
                "balance": "0x00",
                "code": "0x3373fffffffffffffffffffffffffffffffffffffffe14604d57602036146024575f5ffd5b5f35801560495762001fff810690815414603c575f5ffd5b62001fff01545f5260205ff35b5f5ffd5b62001fff42064281555f359062001fff015500",
                "storage": {}
            },
            "0xd66f224cbd2fabb21b17bb53c56118f32f62ebd6": {
                "nonce": "0x00",
                "balance": "0x0de0b6b3a7640000",
                "code": "0x",
                "storage": {}
            },
            "0xeaef86a1a5aa9bffc22fbeff18dd47b71d0b3013": {
                "nonce": "0x00",
                "balance": "0x0de0b6b3a7640000",
                "code": "0x7faabbffffffffffffffffffffffffffffffffffffffffffffffffffffffffccdd6000527fffffffffffffffffffffffffffffffffffffffffffffffffffffffffffffffff6001a000",
                "storage": {}
            },
            "0x83dbb26305cc3a8188dc2e42676fb6822ba8f378": {
                "nonce": "0x00",
                "balance": "0x0de0b6b3a7640000",
                "code": "0x600060006000600073eaef86a1a5aa9bffc22fbeff18dd47b71d0b30136103e8fa60005500",
                "storage": {}
            }
        },
        "postState": {
            "0x000f3df6d732807ef1319fb7b8bb8522d0beac02": {
                "nonce": "0x01",
                "balance": "0x00",
                "code": "0x3373fffffffffffffffffffffffffffffffffffffffe14604d57602036146024575f5ffd5b5f35801560495762001fff810690815414603c575f5ffd5b62001fff01545f5260205ff35b5f5ffd5b62001fff42064281555f359062001fff015500",
                "storage": {
                    "0x03e8": "0x03e8"
                }
            },
            "0xd66f224cbd2fabb21b17bb53c56118f32f62ebd6": {
                "nonce": "0x01",
                "balance": "0x0de0b6b3a75e61ae",
                "code": "0x",
                "storage": {}
            },
            "0xeaef86a1a5aa9bffc22fbeff18dd47b71d0b3013": {
                "nonce": "0x00",
                "balance": "0x0de0b6b3a7640000",
                "code": "0x7faabbffffffffffffffffffffffffffffffffffffffffffffffffffffffffccdd6000527fffffffffffffffffffffffffffffffffffffffffffffffffffffffffffffffff6001a000",
                "storage": {}
            },
            "0x83dbb26305cc3a8188dc2e42676fb6822ba8f378": {
                "nonce": "0x00",
                "balance": "0x0de0b6b3a76586a0",
                "code": "0x600060006000600073eaef86a1a5aa9bffc22fbeff18dd47b71d0b30136103e8fa60005500",
                "storage": {}
            }
        },
        "lastblockhash": "0x0451eb5dfcfe5735b1e33621125a893c3cb5330604a64980be7af018ff99ff0e",
        "config": {
            "network": "Cancun",
            "chainid": "0x01",
            "blobSchedule": {
                "Cancun": {
                    "target": "0x03",
                    "max": "0x06",
                    "baseFeeUpdateFraction": "0x32f0ed"
                }
            }
        },
        "genesisRLP": "0xf9023bf90235a00000000000000000000000000000000000000000000000000000000000000000a01dcc4de8dec75d7aab85b567b6ccd41ad312451b948a7413f0a142fd40d49347940000000000000000000000000000000000000000a0a025b8a20b268ad9b774e3b3f9a4db4de4043d96e61e1a0aa9a374db372fe214a056e81f171bcc55a6ff8345e692c0f86e5b48e01b996cadc001622fb5e363b421a056e81f171bcc55a6ff8345e692c0f86e5b48e01b996cadc001622fb5e363b421b90100000000000000000000000000000000000000000000000000000000000000000000000000000000000000000000000000000000000000000000000000000000000000000000000000000000000000000000000000000000000000000000000000000000000000000000000000000000000000000000000000000000000000000000000000000000000000000000000000000000000000000000000000000000000000000000000000000000000000000000000000000000000000000000000000000000000000000000000000000000000000000000000000000000000000000000000000000000000000000000000000000000000000000000000000000000008080830f4240808000a000000000000000000000000000000000000000000000000000000000000000008800000000000000000ba056e81f171bcc55a6ff8345e692c0f86e5b48e01b996cadc001622fb5e363b4218080a00000000000000000000000000000000000000000000000000000000000000000c0c0c0",
        "blocks": [
            {
                "blockHeader": {
                    "parentHash": "0xa138ac2c04a238da72afbc568f2ef7f830b8d1797050fd0435b4931457639bae",
                    "uncleHash": "0x1dcc4de8dec75d7aab85b567b6ccd41ad312451b948a7413f0a142fd40d49347",
                    "coinbase": "0x2adc25665018aa1fe0e6bc666dac8fc2697ff9ba",
                    "stateRoot": "0xa73bd2befa2edc605eb52c52ac29082eb43b3d5dd020d81688f228c5672a7eca",
                    "transactionsTrie": "0xe85efafada9e74964bce42d9f428732cf42082f8b1c3d23fc89e42cbfa5715d4",
                    "receiptTrie": "0x63f99d622e2a4cdefff99379a53d8100b2ac6519180a9e1b4ccc0c1c505c28fd",
                    "bloom": "0x00000000000000000000000000000000000000000000000000000000000000000000000000000000000000000000000000000000000000000000000000000000000000000000000000000000000000000000000000000000000000000000000000000000000000000000000000000000000000000000000000000000000000000000000000000000000000000000000000000000000000000000000000000000000000000000000000000000000000000000000000000000000000000000000000000000000000000000000000000000000000000000000000000000000000000000000000000000000000000000000000000000000000000000000000000000",
                    "difficulty": "0x00",
                    "number": "0x01",
                    "gasLimit": "0x0f4240",
                    "gasUsed": "0x68c5",
                    "timestamp": "0x03e8",
                    "extraData": "0x00",
                    "mixHash": "0x0000000000000000000000000000000000000000000000000000000000020000",
                    "nonce": "0x0000000000000000",
                    "baseFeePerGas": "0x0a",
                    "withdrawalsRoot": "0x56e81f171bcc55a6ff8345e692c0f86e5b48e01b996cadc001622fb5e363b421",
                    "blobGasUsed": "0x00",
                    "excessBlobGas": "0x00",
                    "parentBeaconBlockRoot": "0x0000000000000000000000000000000000000000000000000000000000000000",
                    "hash": "0x0451eb5dfcfe5735b1e33621125a893c3cb5330604a64980be7af018ff99ff0e"
                },
                "transactions": [
                    {
                        "type": "0x00",
                        "chainId": "0x01",
                        "nonce": "0x00",
                        "gasPrice": "0x0a",
                        "gasLimit": "0x033450",
                        "to": "0x83dbb26305cc3a8188dc2e42676fb6822ba8f378",
                        "value": "0x0186a0",
                        "data": "0x",
                        "v": "0x25",
                        "r": "0xa141966aaa04f01f839c089bbb4f5297f343380a830bf061528aafa63e8a300c",
                        "s": "0x7516d363830231fd79a64a4e3c44b0ab7625ddb36bfc3f06ab4a32ff11825024",
                        "sender": "0xd66f224cbd2fabb21b17bb53c56118f32f62ebd6"
                    }
                ],
                "uncleHeaders": [],
                "withdrawals": [],
                "receipts": [
                    {
                        "transactionHash": "0x625fae8ce4b5372dfdc6e9305921b9541ef572850d7929bc90aa0b99f537cd91",
                        "type": "0x00",
                        "cumulativeGasUsed": "0x68c5",
                        "bloom": "0x00000000000000000000000000000000000000000000000000000000000000000000000000000000000000000000000000000000000000000000000000000000000000000000000000000000000000000000000000000000000000000000000000000000000000000000000000000000000000000000000000000000000000000000000000000000000000000000000000000000000000000000000000000000000000000000000000000000000000000000000000000000000000000000000000000000000000000000000000000000000000000000000000000000000000000000000000000000000000000000000000000000000000000000000000000000",
                        "logs": [],
                        "status": true,
                        "rlp": "0xf90108018268c5b9010000000000000000000000000000000000000000000000000000000000000000000000000000000000000000000000000000000000000000000000000000000000000000000000000000000000000000000000000000000000000000000000000000000000000000000000000000000000000000000000000000000000000000000000000000000000000000000000000000000000000000000000000000000000000000000000000000000000000000000000000000000000000000000000000000000000000000000000000000000000000000000000000000000000000000000000000000000000000000000000000000000000000000000000000000000000c0"
                    }
                ],
                "rlp": "0xf902a5f90239a0a138ac2c04a238da72afbc568f2ef7f830b8d1797050fd0435b4931457639baea01dcc4de8dec75d7aab85b567b6ccd41ad312451b948a7413f0a142fd40d49347942adc25665018aa1fe0e6bc666dac8fc2697ff9baa0a73bd2befa2edc605eb52c52ac29082eb43b3d5dd020d81688f228c5672a7ecaa0e85efafada9e74964bce42d9f428732cf42082f8b1c3d23fc89e42cbfa5715d4a063f99d622e2a4cdefff99379a53d8100b2ac6519180a9e1b4ccc0c1c505c28fdb90100000000000000000000000000000000000000000000000000000000000000000000000000000000000000000000000000000000000000000000000000000000000000000000000000000000000000000000000000000000000000000000000000000000000000000000000000000000000000000000000000000000000000000000000000000000000000000000000000000000000000000000000000000000000000000000000000000000000000000000000000000000000000000000000000000000000000000000000000000000000000000000000000000000000000000000000000000000000000000000000000000000000000000000000000000000008001830f42408268c58203e800a000000000000000000000000000000000000000000000000000000000000200008800000000000000000aa056e81f171bcc55a6ff8345e692c0f86e5b48e01b996cadc001622fb5e363b4218080a00000000000000000000000000000000000000000000000000000000000000000f865f863800a830334509483dbb26305cc3a8188dc2e42676fb6822ba8f378830186a08025a0a141966aaa04f01f839c089bbb4f5297f343380a830bf061528aafa63e8a300ca07516d363830231fd79a64a4e3c44b0ab7625ddb36bfc3f06ab4a32ff11825024c0c0",
                "blocknumber": "1"
            }
        ],
        "sealEngine": "NoProof",
        "_info": {
            "hash": "0x7e556c74fef14f7456ae1f9d078b74164f4564b8aa5d5740d2fa1b062da39982",
            "fixture-format": "blockchain_test",
            "comment": "`execution-specs` generated test",
            "filling-transition-tool": "2.19.0",
            "description": "Test_static_log0_log_memsize_too_high.",
            "url": "https://github.com/ethereum/execution-specs/blob/tests-snobal-devnet-5@v8037.0.0/tests/ported_static/stStaticCall/test_static_log0_log_memsize_too_high.py#L24",
            "metadata": {
                "opcode_count": {}
            }
        }
    }
}