{
    "tests/static/state_tests/stPreCompiledContracts2/CallEcrecoverInvalidSignatureFiller.json::CallEcrecoverInvalidSignature[fork_Cancun-state_test-]": {
        "env": {
            "currentCoinbase": "0x2adc25665018aa1fe0e6bc666dac8fc2697ff9ba",
            "currentGasLimit": "0x989680",
            "currentNumber": "0x01",
            "currentTimestamp": "0x03e8",
            "currentRandom": "0x0000000000000000000000000000000000000000000000000000000000020000",
            "currentDifficulty": "0x00",
            "currentBaseFee": "0x0a",
            "currentExcessBlobGas": "0x00"
        },
        "pre": {
            "0xaac47e2dd50ddb5b649714bd87488cebae85dc8f": {
                "nonce": "0x00",
                "balance": "0x0de0b6b3a7640000",
                "code": "0x",
                "storage": {}
            },
            "0x58a8c9424023be2240222e398b3ccdb4d9990101": {
                "nonce": "0x00",
                "balance": "0x01312d00",
                "code": "0x7f1122334455667788991011121314151617181920212223242526272829303132608052602060806080600060006001620493e0f15060805160005500",
                "storage": {}
            }
        },
        "transaction": {
            "nonce": "0x00",
            "gasPrice": "0x0a",
            "gasLimit": [
                "0x37ba90"
            ],
            "to": "0x58a8c9424023be2240222e398b3ccdb4d9990101",
            "value": [
                "0x0186a0"
            ],
            "data": [
                "0x"
            ],
            "sender": "0xaac47e2dd50ddb5b649714bd87488cebae85dc8f",
            "secretKey": "0xf5c6ea262f6756dc513693e458a8c9424023be2240222e398b3ccdb4d9990101"
        },
        "post": {
            "Cancun": [
                {
                    "hash": "0x1e4df171877538f6a5fce47e1d63c4872cb77d27e8524340925936dc84108ddb",
                    "logs": "0x1dcc4de8dec75d7aab85b567b6ccd41ad312451b948a7413f0a142fd40d49347",
                    "txbytes": "0xf863800a8337ba909458a8c9424023be2240222e398b3ccdb4d9990101830186a08025a0564d4cfc89ff656b6993f1be41ceaa238bb8bcb166e0cdeb0d7d19e26b92dc69a05156ff8476004a020db7f4ebad30d9b29677e6bcb1edaff30eb0b6bc0347c431",
                    "indexes": {
                        "data": 0,
                        "gas": 0,
                        "value": 0
                    },
                    "state": {
                        "0xaac47e2dd50ddb5b649714bd87488cebae85dc8f": {
                            "nonce": "0x01",
                            "balance": "0x0de0b6b3a75b6a80",
                            "code": "0x",
                            "storage": {}
                        },
                        "0x58a8c9424023be2240222e398b3ccdb4d9990101": {
                            "nonce": "0x00",
                            "balance": "0x0132b3a0",
                            "code": "0x7f1122334455667788991011121314151617181920212223242526272829303132608052602060806080600060006001620493e0f15060805160005500",
                            "storage": {
                                "0x00": "0x1122334455667788991011121314151617181920212223242526272829303132"
                            }
                        }
                    }
                }
            ]
        },
        "config": {
            "blobSchedule": {
                "Cancun": {
                    "target": "0x03",
                    "max": "0x06",
                    "baseFeeUpdateFraction": "0x32f0ed"
                }
            },
            "chainid": "0x01"
        },
        "_info": {
            "hash": "0x051d99e3910cd4366664ff584dbbfc04937049e858de06fd9da918573387e707",
            "comment": "`execution-specs` generated test",
            "filling-transition-tool": "2.18.0rc6",
            "description": "No description available - add a docstring to the python test class or function.",
            "url": "",
            "fixture-format": "state_test"
        }
    },
    "tests/static/state_tests/stPreCompiledContracts2/CallEcrecoverInvalidSignatureFiller.json::CallEcrecoverInvalidSignature[fork_Osaka-state_test-]": {
        "env": {
            "currentCoinbase": "0x2adc25665018aa1fe0e6bc666dac8fc2697ff9ba",
            "currentGasLimit": "0x989680",
            "currentNumber": "0x01",
            "currentTimestamp": "0x03e8",
            "currentRandom": "0x0000000000000000000000000000000000000000000000000000000000020000",
            "currentDifficulty": "0x00",
            "currentBaseFee": "0x0a",
            "currentExcessBlobGas": "0x00"
        },
        "pre": {
            "0xaac47e2dd50ddb5b649714bd87488cebae85dc8f": {
                "nonce": "0x00",
                "balance": "0x0de0b6b3a7640000",
                "code": "0x",
                "storage": {}
            },
            "0x58a8c9424023be2240222e398b3ccdb4d9990101": {
                "nonce": "0x00",
                "balance": "0x01312d00",
                "code": "0x7f1122334455667788991011121314151617181920212223242526272829303132608052602060806080600060006001620493e0f15060805160005500",
                "storage": {}
            }
        },
        "transaction": {
            "nonce": "0x00",
            "gasPrice": "0x0a",
            "gasLimit": [
                "0x37ba90"
            ],
            "to": "0x58a8c9424023be2240222e398b3ccdb4d9990101",
            "value": [
                "0x0186a0"
            ],
            "data": [
                "0x"
            ],
            "sender": "0xaac47e2dd50ddb5b649714bd87488cebae85dc8f",
            "secretKey": "0xf5c6ea262f6756dc513693e458a8c9424023be2240222e398b3ccdb4d9990101"
        },
        "post": {
            "Osaka": [
                {
                    "hash": "0x1e4df171877538f6a5fce47e1d63c4872cb77d27e8524340925936dc84108ddb",
                    "logs": "0x1dcc4de8dec75d7aab85b567b6ccd41ad312451b948a7413f0a142fd40d49347",
                    "txbytes": "0xf863800a8337ba909458a8c9424023be2240222e398b3ccdb4d9990101830186a08025a0564d4cfc89ff656b6993f1be41ceaa238bb8bcb166e0cdeb0d7d19e26b92dc69a05156ff8476004a020db7f4ebad30d9b29677e6bcb1edaff30eb0b6bc0347c431",
                    "indexes": {
                        "data": 0,
                        "gas": 0,
                        "value": 0
                    },
                    "state": {
                        "0xaac47e2dd50ddb5b649714bd87488cebae85dc8f": {
                            "nonce": "0x01",
                            "balance": "0x0de0b6b3a75b6a80",
                            "code": "0x",
                            "storage": {}
                        },
                        "0x58a8c9424023be2240222e398b3ccdb4d9990101": {
                            "nonce": "0x00",
                            "balance": "0x0132b3a0",
                            "code": "0x7f1122334455667788991011121314151617181920212223242526272829303132608052602060806080600060006001620493e0f15060805160005500",
                            "storage": {
                                "0x00": "0x1122334455667788991011121314151617181920212223242526272829303132"
                            }
                        }
                    }
                }
            ]
        },
        "config": {
            "blobSchedule": {
                "Cancun": {
                    "target": "0x03",
                    "max": "0x06",
                    "baseFeeUpdateFraction": "0x32f0ed"
                },
                "Prague": {
                    "target": "0x06",
                    "max": "0x09",
                    "baseFeeUpdateFraction": "0x4c6964"
                },
                "Osaka": {
                    "target": "0x06",
                    "max": "0x09",
                    "baseFeeUpdateFraction": "0x4c6964"
                }
            },
            "chainid": "0x01"
        },
        "_info": {
            "hash": "0x538c527671a58a922468702b985df946f442ddb583e22abd89996032d1b6cf98",
            "comment": "`execution-specs` generated test",
            "filling-transition-tool": "2.18.0rc6",
            "description": "No description available - add a docstring to the python test class or function.",
            "url": "",
            "fixture-format": "state_test"
        }
    },
    "tests/static/state_tests/stPreCompiledContracts2/CallEcrecoverInvalidSignatureFiller.json::CallEcrecoverInvalidSignature[fork_Prague-state_test-]": {
        "env": {
            "currentCoinbase": "0x2adc25665018aa1fe0e6bc666dac8fc2697ff9ba",
            "currentGasLimit": "0x989680",
            "currentNumber": "0x01",
            "currentTimestamp": "0x03e8",
            "currentRandom": "0x0000000000000000000000000000000000000000000000000000000000020000",
            "currentDifficulty": "0x00",
            "currentBaseFee": "0x0a",
            "currentExcessBlobGas": "0x00"
        },
        "pre": {
            "0xaac47e2dd50ddb5b649714bd87488cebae85dc8f": {
                "nonce": "0x00",
                "balance": "0x0de0b6b3a7640000",
                "code": "0x",
                "storage": {}
            },
            "0x58a8c9424023be2240222e398b3ccdb4d9990101": {
                "nonce": "0x00",
                "balance": "0x01312d00",
                "code": "0x7f1122334455667788991011121314151617181920212223242526272829303132608052602060806080600060006001620493e0f15060805160005500",
                "storage": {}
            }
        },
        "transaction": {
            "nonce": "0x00",
            "gasPrice": "0x0a",
            "gasLimit": [
                "0x37ba90"
            ],
            "to": "0x58a8c9424023be2240222e398b3ccdb4d9990101",
            "value": [
                "0x0186a0"
            ],
            "data": [
                "0x"
            ],
            "sender": "0xaac47e2dd50ddb5b649714bd87488cebae85dc8f",
            "secretKey": "0xf5c6ea262f6756dc513693e458a8c9424023be2240222e398b3ccdb4d9990101"
        },
        "post": {
            "Prague": [
                {
                    "hash": "0x1e4df171877538f6a5fce47e1d63c4872cb77d27e8524340925936dc84108ddb",
                    "logs": "0x1dcc4de8dec75d7aab85b567b6ccd41ad312451b948a7413f0a142fd40d49347",
                    "txbytes": "0xf863800a8337ba909458a8c9424023be2240222e398b3ccdb4d9990101830186a08025a0564d4cfc89ff656b6993f1be41ceaa238bb8bcb166e0cdeb0d7d19e26b92dc69a05156ff8476004a020db7f4ebad30d9b29677e6bcb1edaff30eb0b6bc0347c431",
                    "indexes": {
                        "data": 0,
                        "gas": 0,
                        "value": 0
                    },
                    "state": {
                        "0xaac47e2dd50ddb5b649714bd87488cebae85dc8f": {
                            "nonce": "0x01",
                            "balance": "0x0de0b6b3a75b6a80",
                            "code": "0x",
                            "storage": {}
                        },
                        "0x58a8c9424023be2240222e398b3ccdb4d9990101": {
                            "nonce": "0x00",
                            "balance": "0x0132b3a0",
                            "code": "0x7f1122334455667788991011121314151617181920212223242526272829303132608052602060806080600060006001620493e0f15060805160005500",
                            "storage": {
                                "0x00": "0x1122334455667788991011121314151617181920212223242526272829303132"
                            }
                        }
                    }
                }
            ]
        },
        "config": {
            "blobSchedule": {
                "Cancun": {
                    "target": "0x03",
                    "max": "0x06",
                    "baseFeeUpdateFraction": "0x32f0ed"
                },
                "Prague": {
                    "target": "0x06",
                    "max": "0x09",
                    "baseFeeUpdateFraction": "0x4c6964"
                }
            },
            "chainid": "0x01"
        },
        "_info": {
            "hash": "0xa87c8b8c8c7bb092a25d6019d0a4a3b7e5d922787853ca642b837ca69c1092df",
            "comment": "`execution-specs` generated test",
            "filling-transition-tool": "2.18.0rc6",
            "description": "No description available - add a docstring to the python test class or function.",
            "url": "",
            "fixture-format": "state_test"
        }
    }
}