{
    "tests/static/state_tests/stPreCompiledContracts2/CALLCODERipemd160_3Filler.json::CALLCODERipemd160_3[fork_Cancun-state_test-]": {
        "env": {
            "currentCoinbase": "0x2adc25665018aa1fe0e6bc666dac8fc2697ff9ba",
            "currentGasLimit": "0x989680",
            "currentNumber": "0x01",
            "currentTimestamp": "0x03e8",
            "currentRandom": "0x0000000000000000000000000000000000000000000000000000000000020000",
            "currentDifficulty": "0x00",
            "currentBaseFee": "0x0a",
            "currentExcessBlobGas": "0x00"
        },
        "pre": {
            "0x213a1d1109ab6e1c7418efa5000b821d73376e5b": {
                "nonce": "0x00",
                "balance": "0x0de0b6b3a7640000",
                "code": "0x",
                "storage": {}
            },
            "0x1c789ad4553a10b8b2ee5c7e9b5ffd47a5422e07": {
                "nonce": "0x00",
                "balance": "0x01312d00",
                "code": "0x64f34578907f600052602060006025600060006003611770f260025560005160005500",
                "storage": {}
            }
        },
        "transaction": {
            "nonce": "0x00",
            "gasPrice": "0x0a",
            "gasLimit": [
                "0x0592a8"
            ],
            "to": "0x1c789ad4553a10b8b2ee5c7e9b5ffd47a5422e07",
            "value": [
                "0x0186a0"
            ],
            "data": [
                "0x"
            ],
            "sender": "0x213a1d1109ab6e1c7418efa5000b821d73376e5b",
            "secretKey": "0x7a85b1461cfe0724b00bf1841c789ad4553a10b8b2ee5c7e9b5ffd47a5422e07"
        },
        "post": {
            "Cancun": [
                {
                    "hash": "0x27a5f92c11a6b0b3cc66fc018033504fda057bb5e1b1435561f3d89e750e4046",
                    "logs": "0x1dcc4de8dec75d7aab85b567b6ccd41ad312451b948a7413f0a142fd40d49347",
                    "txbytes": "0xf863800a830592a8941c789ad4553a10b8b2ee5c7e9b5ffd47a5422e07830186a08025a00d43c8acd5526bdf1b665b4b9b047e8b21c98e2f72853350877892be47e9ae95a079de3570ef1fde8ca45552d377a44b78a29f3ea45f171bfb45e8a84fb72e766e",
                    "indexes": {
                        "data": 0,
                        "gas": 0,
                        "value": 0
                    },
                    "state": {
                        "0x213a1d1109ab6e1c7418efa5000b821d73376e5b": {
                            "nonce": "0x01",
                            "balance": "0x0de0b6b3a7585fe8",
                            "code": "0x",
                            "storage": {}
                        },
                        "0x1c789ad4553a10b8b2ee5c7e9b5ffd47a5422e07": {
                            "nonce": "0x00",
                            "balance": "0x0132b3a0",
                            "code": "0x64f34578907f600052602060006025600060006003611770f260025560005160005500",
                            "storage": {
                                "0x02": "0x01",
                                "0x00": "0x316750573f9be26bc17727b47cacedbd0ab3e6ca"
                            }
                        }
                    }
                }
            ]
        },
        "config": {
            "blobSchedule": {
                "Cancun": {
                    "target": "0x03",
                    "max": "0x06",
                    "baseFeeUpdateFraction": "0x32f0ed"
                }
            },
            "chainid": "0x01"
        },
        "_info": {
            "hash": "0xe79b5bb1ca3b0a15b8e34a67dce5b824183333d86269a349d8194a04de9c38ad",
            "comment": "`execution-spec-tests` generated test",
            "filling-transition-tool": "ethereum-spec-evm-resolver 0.0.5",
            "description": "No description available - add a docstring to the python test class or function.",
            "url": "",
            "fixture-format": "state_test",
            "eels-resolution": {
                "git-url": "https://github.com/marioevz/execution-specs.git",
                "branch": "forks/bpo1",
                "commit": "3387e5f4aedfe99becfdc39b444d6371e25e0924"
            }
        }
    },
    "tests/static/state_tests/stPreCompiledContracts2/CALLCODERipemd160_3Filler.json::CALLCODERipemd160_3[fork_Osaka-state_test-]": {
        "env": {
            "currentCoinbase": "0x2adc25665018aa1fe0e6bc666dac8fc2697ff9ba",
            "currentGasLimit": "0x989680",
            "currentNumber": "0x01",
            "currentTimestamp": "0x03e8",
            "currentRandom": "0x0000000000000000000000000000000000000000000000000000000000020000",
            "currentDifficulty": "0x00",
            "currentBaseFee": "0x0a",
            "currentExcessBlobGas": "0x00"
        },
        "pre": {
            "0x213a1d1109ab6e1c7418efa5000b821d73376e5b": {
                "nonce": "0x00",
                "balance": "0x0de0b6b3a7640000",
                "code": "0x",
                "storage": {}
            },
            "0x1c789ad4553a10b8b2ee5c7e9b5ffd47a5422e07": {
                "nonce": "0x00",
                "balance": "0x01312d00",
                "code": "0x64f34578907f600052602060006025600060006003611770f260025560005160005500",
                "storage": {}
            }
        },
        "transaction": {
            "nonce": "0x00",
            "gasPrice": "0x0a",
            "gasLimit": [
                "0x0592a8"
            ],
            "to": "0x1c789ad4553a10b8b2ee5c7e9b5ffd47a5422e07",
            "value": [
                "0x0186a0"
            ],
            "data": [
                "0x"
            ],
            "sender": "0x213a1d1109ab6e1c7418efa5000b821d73376e5b",
            "secretKey": "0x7a85b1461cfe0724b00bf1841c789ad4553a10b8b2ee5c7e9b5ffd47a5422e07"
        },
        "post": {
            "Osaka": [
                {
                    "hash": "0x27a5f92c11a6b0b3cc66fc018033504fda057bb5e1b1435561f3d89e750e4046",
                    "logs": "0x1dcc4de8dec75d7aab85b567b6ccd41ad312451b948a7413f0a142fd40d49347",
                    "txbytes": "0xf863800a830592a8941c789ad4553a10b8b2ee5c7e9b5ffd47a5422e07830186a08025a00d43c8acd5526bdf1b665b4b9b047e8b21c98e2f72853350877892be47e9ae95a079de3570ef1fde8ca45552d377a44b78a29f3ea45f171bfb45e8a84fb72e766e",
                    "indexes": {
                        "data": 0,
                        "gas": 0,
                        "value": 0
                    },
                    "state": {
                        "0x213a1d1109ab6e1c7418efa5000b821d73376e5b": {
                            "nonce": "0x01",
                            "balance": "0x0de0b6b3a7585fe8",
                            "code": "0x",
                            "storage": {}
                        },
                        "0x1c789ad4553a10b8b2ee5c7e9b5ffd47a5422e07": {
                            "nonce": "0x00",
                            "balance": "0x0132b3a0",
                            "code": "0x64f34578907f600052602060006025600060006003611770f260025560005160005500",
                            "storage": {
                                "0x02": "0x01",
                                "0x00": "0x316750573f9be26bc17727b47cacedbd0ab3e6ca"
                            }
                        }
                    }
                }
            ]
        },
        "config": {
            "blobSchedule": {
                "Cancun": {
                    "target": "0x03",
                    "max": "0x06",
                    "baseFeeUpdateFraction": "0x32f0ed"
                },
                "Prague": {
                    "target": "0x06",
                    "max": "0x09",
                    "baseFeeUpdateFraction": "0x4c6964"
                },
                "Osaka": {
                    "target": "0x06",
                    "max": "0x09",
                    "baseFeeUpdateFraction": "0x4c6964"
                }
            },
            "chainid": "0x01"
        },
        "_info": {
            "hash": "0x158c725923daf0084aed9b99ce1f3bad1b953888ab075ed61f0b26fa9e257315",
            "comment": "`execution-spec-tests` generated test",
            "filling-transition-tool": "ethereum-spec-evm-resolver 0.0.5",
            "description": "No description available - add a docstring to the python test class or function.",
            "url": "",
            "fixture-format": "state_test",
            "eels-resolution": {
                "git-url": "https://github.com/marioevz/execution-specs.git",
                "branch": "forks/bpo1",
                "commit": "3387e5f4aedfe99becfdc39b444d6371e25e0924"
            }
        }
    },
    "tests/static/state_tests/stPreCompiledContracts2/CALLCODERipemd160_3Filler.json::CALLCODERipemd160_3[fork_Prague-state_test-]": {
        "env": {
            "currentCoinbase": "0x2adc25665018aa1fe0e6bc666dac8fc2697ff9ba",
            "currentGasLimit": "0x989680",
            "currentNumber": "0x01",
            "currentTimestamp": "0x03e8",
            "currentRandom": "0x0000000000000000000000000000000000000000000000000000000000020000",
            "currentDifficulty": "0x00",
            "currentBaseFee": "0x0a",
            "currentExcessBlobGas": "0x00"
        },
        "pre": {
            "0x213a1d1109ab6e1c7418efa5000b821d73376e5b": {
                "nonce": "0x00",
                "balance": "0x0de0b6b3a7640000",
                "code": "0x",
                "storage": {}
            },
            "0x1c789ad4553a10b8b2ee5c7e9b5ffd47a5422e07": {
                "nonce": "0x00",
                "balance": "0x01312d00",
                "code": "0x64f34578907f600052602060006025600060006003611770f260025560005160005500",
                "storage": {}
            }
        },
        "transaction": {
            "nonce": "0x00",
            "gasPrice": "0x0a",
            "gasLimit": [
                "0x0592a8"
            ],
            "to": "0x1c789ad4553a10b8b2ee5c7e9b5ffd47a5422e07",
            "value": [
                "0x0186a0"
            ],
            "data": [
                "0x"
            ],
            "sender": "0x213a1d1109ab6e1c7418efa5000b821d73376e5b",
            "secretKey": "0x7a85b1461cfe0724b00bf1841c789ad4553a10b8b2ee5c7e9b5ffd47a5422e07"
        },
        "post": {
            "Prague": [
                {
                    "hash": "0x27a5f92c11a6b0b3cc66fc018033504fda057bb5e1b1435561f3d89e750e4046",
                    "logs": "0x1dcc4de8dec75d7aab85b567b6ccd41ad312451b948a7413f0a142fd40d49347",
                    "txbytes": "0xf863800a830592a8941c789ad4553a10b8b2ee5c7e9b5ffd47a5422e07830186a08025a00d43c8acd5526bdf1b665b4b9b047e8b21c98e2f72853350877892be47e9ae95a079de3570ef1fde8ca45552d377a44b78a29f3ea45f171bfb45e8a84fb72e766e",
                    "indexes": {
                        "data": 0,
                        "gas": 0,
                        "value": 0
                    },
                    "state": {
                        "0x213a1d1109ab6e1c7418efa5000b821d73376e5b": {
                            "nonce": "0x01",
                            "balance": "0x0de0b6b3a7585fe8",
                            "code": "0x",
                            "storage": {}
                        },
                        "0x1c789ad4553a10b8b2ee5c7e9b5ffd47a5422e07": {
                            "nonce": "0x00",
                            "balance": "0x0132b3a0",
                            "code": "0x64f34578907f600052602060006025600060006003611770f260025560005160005500",
                            "storage": {
                                "0x02": "0x01",
                                "0x00": "0x316750573f9be26bc17727b47cacedbd0ab3e6ca"
                            }
                        }
                    }
                }
            ]
        },
        "config": {
            "blobSchedule": {
                "Cancun": {
                    "target": "0x03",
                    "max": "0x06",
                    "baseFeeUpdateFraction": "0x32f0ed"
                },
                "Prague": {
                    "target": "0x06",
                    "max": "0x09",
                    "baseFeeUpdateFraction": "0x4c6964"
                }
            },
            "chainid": "0x01"
        },
        "_info": {
            "hash": "0xc43a8005d58be2efc7c922d761cf86d84445a4ba5d3c7860e9c3087400cc693e",
            "comment": "`execution-spec-tests` generated test",
            "filling-transition-tool": "ethereum-spec-evm-resolver 0.0.5",
            "description": "No description available - add a docstring to the python test class or function.",
            "url": "",
            "fixture-format": "state_test",
            "eels-resolution": {
                "git-url": "https://github.com/marioevz/execution-specs.git",
                "branch": "forks/bpo1",
                "commit": "3387e5f4aedfe99becfdc39b444d6371e25e0924"
            }
        }
    }
}