{
    "tests/static/state_tests/stPreCompiledContracts2/CallSha256_2Filler.json::CallSha256_2[fork_Cancun-state_test-]": {
        "env": {
            "currentCoinbase": "0x2adc25665018aa1fe0e6bc666dac8fc2697ff9ba",
            "currentGasLimit": "0x989680",
            "currentNumber": "0x01",
            "currentTimestamp": "0x03e8",
            "currentRandom": "0x0000000000000000000000000000000000000000000000000000000000020000",
            "currentDifficulty": "0x00",
            "currentBaseFee": "0x0a",
            "currentExcessBlobGas": "0x00"
        },
        "pre": {
            "0x074e7f072f50fc63ee2aef1f122497d9845412c0": {
                "nonce": "0x00",
                "balance": "0x0de0b6b3a7640000",
                "code": "0x",
                "storage": {}
            },
            "0xe7fd35216d9f077552a4990674982ac0fbf1bccc": {
                "nonce": "0x00",
                "balance": "0x01312d00",
                "code": "0x64f34578907f6005526020600060256000600060026101f4f160025560005160005500",
                "storage": {}
            }
        },
        "transaction": {
            "nonce": "0x00",
            "gasPrice": "0x0a",
            "gasLimit": [
                "0x0592a8"
            ],
            "to": "0xe7fd35216d9f077552a4990674982ac0fbf1bccc",
            "value": [
                "0x0186a0"
            ],
            "data": [
                "0x"
            ],
            "sender": "0x074e7f072f50fc63ee2aef1f122497d9845412c0",
            "secretKey": "0xcf0d81fb0d8f52a00691ff98e7fd35216d9f077552a4990674982ac0fbf1bccc"
        },
        "post": {
            "Cancun": [
                {
                    "hash": "0xe771f20099bfda437c37c52d2a41eed736dc8b22cbdb529f15b279085f6be618",
                    "logs": "0x1dcc4de8dec75d7aab85b567b6ccd41ad312451b948a7413f0a142fd40d49347",
                    "txbytes": "0xf863800a830592a894e7fd35216d9f077552a4990674982ac0fbf1bccc830186a08025a05aafecd97b28e2f82b86aa8a812f20a33b8942428a6d8a83f96275572aee865ba0066935b85c75a0c8d633eb6d4719e933df5f9483ae681e2740ca12cea81c3378",
                    "indexes": {
                        "data": 0,
                        "gas": 0,
                        "value": 0
                    },
                    "state": {
                        "0x074e7f072f50fc63ee2aef1f122497d9845412c0": {
                            "nonce": "0x01",
                            "balance": "0x0de0b6b3a7587d70",
                            "code": "0x",
                            "storage": {}
                        },
                        "0xe7fd35216d9f077552a4990674982ac0fbf1bccc": {
                            "nonce": "0x00",
                            "balance": "0x0132b3a0",
                            "code": "0x64f34578907f6005526020600060256000600060026101f4f160025560005160005500",
                            "storage": {
                                "0x02": "0x01",
                                "0x00": "0xcb39b3bde22925b2f931111130c774761d8895e0e08437c9b396c1e97d10f34d"
                            }
                        }
                    }
                }
            ]
        },
        "config": {
            "blobSchedule": {
                "Cancun": {
                    "target": "0x03",
                    "max": "0x06",
                    "baseFeeUpdateFraction": "0x32f0ed"
                }
            },
            "chainid": "0x01"
        },
        "_info": {
            "hash": "0xfda9565aa993e870941b4a53cd72f10e07abdc36da003f434c3b9bf4ecff0dbc",
            "comment": "`execution-specs` generated test",
            "filling-transition-tool": "2.18.0rc6",
            "description": "No description available - add a docstring to the python test class or function.",
            "url": "",
            "fixture-format": "state_test"
        }
    },
    "tests/static/state_tests/stPreCompiledContracts2/CallSha256_2Filler.json::CallSha256_2[fork_Osaka-state_test-]": {
        "env": {
            "currentCoinbase": "0x2adc25665018aa1fe0e6bc666dac8fc2697ff9ba",
            "currentGasLimit": "0x989680",
            "currentNumber": "0x01",
            "currentTimestamp": "0x03e8",
            "currentRandom": "0x0000000000000000000000000000000000000000000000000000000000020000",
            "currentDifficulty": "0x00",
            "currentBaseFee": "0x0a",
            "currentExcessBlobGas": "0x00"
        },
        "pre": {
            "0x074e7f072f50fc63ee2aef1f122497d9845412c0": {
                "nonce": "0x00",
                "balance": "0x0de0b6b3a7640000",
                "code": "0x",
                "storage": {}
            },
            "0xe7fd35216d9f077552a4990674982ac0fbf1bccc": {
                "nonce": "0x00",
                "balance": "0x01312d00",
                "code": "0x64f34578907f6005526020600060256000600060026101f4f160025560005160005500",
                "storage": {}
            }
        },
        "transaction": {
            "nonce": "0x00",
            "gasPrice": "0x0a",
            "gasLimit": [
                "0x0592a8"
            ],
            "to": "0xe7fd35216d9f077552a4990674982ac0fbf1bccc",
            "value": [
                "0x0186a0"
            ],
            "data": [
                "0x"
            ],
            "sender": "0x074e7f072f50fc63ee2aef1f122497d9845412c0",
            "secretKey": "0xcf0d81fb0d8f52a00691ff98e7fd35216d9f077552a4990674982ac0fbf1bccc"
        },
        "post": {
            "Osaka": [
                {
                    "hash": "0xe771f20099bfda437c37c52d2a41eed736dc8b22cbdb529f15b279085f6be618",
                    "logs": "0x1dcc4de8dec75d7aab85b567b6ccd41ad312451b948a7413f0a142fd40d49347",
                    "txbytes": "0xf863800a830592a894e7fd35216d9f077552a4990674982ac0fbf1bccc830186a08025a05aafecd97b28e2f82b86aa8a812f20a33b8942428a6d8a83f96275572aee865ba0066935b85c75a0c8d633eb6d4719e933df5f9483ae681e2740ca12cea81c3378",
                    "indexes": {
                        "data": 0,
                        "gas": 0,
                        "value": 0
                    },
                    "state": {
                        "0x074e7f072f50fc63ee2aef1f122497d9845412c0": {
                            "nonce": "0x01",
                            "balance": "0x0de0b6b3a7587d70",
                            "code": "0x",
                            "storage": {}
                        },
                        "0xe7fd35216d9f077552a4990674982ac0fbf1bccc": {
                            "nonce": "0x00",
                            "balance": "0x0132b3a0",
                            "code": "0x64f34578907f6005526020600060256000600060026101f4f160025560005160005500",
                            "storage": {
                                "0x02": "0x01",
                                "0x00": "0xcb39b3bde22925b2f931111130c774761d8895e0e08437c9b396c1e97d10f34d"
                            }
                        }
                    }
                }
            ]
        },
        "config": {
            "blobSchedule": {
                "Cancun": {
                    "target": "0x03",
                    "max": "0x06",
                    "baseFeeUpdateFraction": "0x32f0ed"
                },
                "Prague": {
                    "target": "0x06",
                    "max": "0x09",
                    "baseFeeUpdateFraction": "0x4c6964"
                },
                "Osaka": {
                    "target": "0x06",
                    "max": "0x09",
                    "baseFeeUpdateFraction": "0x4c6964"
                }
            },
            "chainid": "0x01"
        },
        "_info": {
            "hash": "0x248123294bbc6c3a06c002d5a0e686475973d0320da708976774ae577bf2c607",
            "comment": "`execution-specs` generated test",
            "filling-transition-tool": "2.18.0rc6",
            "description": "No description available - add a docstring to the python test class or function.",
            "url": "",
            "fixture-format": "state_test"
        }
    },
    "tests/static/state_tests/stPreCompiledContracts2/CallSha256_2Filler.json::CallSha256_2[fork_Prague-state_test-]": {
        "env": {
            "currentCoinbase": "0x2adc25665018aa1fe0e6bc666dac8fc2697ff9ba",
            "currentGasLimit": "0x989680",
            "currentNumber": "0x01",
            "currentTimestamp": "0x03e8",
            "currentRandom": "0x0000000000000000000000000000000000000000000000000000000000020000",
            "currentDifficulty": "0x00",
            "currentBaseFee": "0x0a",
            "currentExcessBlobGas": "0x00"
        },
        "pre": {
            "0x074e7f072f50fc63ee2aef1f122497d9845412c0": {
                "nonce": "0x00",
                "balance": "0x0de0b6b3a7640000",
                "code": "0x",
                "storage": {}
            },
            "0xe7fd35216d9f077552a4990674982ac0fbf1bccc": {
                "nonce": "0x00",
                "balance": "0x01312d00",
                "code": "0x64f34578907f6005526020600060256000600060026101f4f160025560005160005500",
                "storage": {}
            }
        },
        "transaction": {
            "nonce": "0x00",
            "gasPrice": "0x0a",
            "gasLimit": [
                "0x0592a8"
            ],
            "to": "0xe7fd35216d9f077552a4990674982ac0fbf1bccc",
            "value": [
                "0x0186a0"
            ],
            "data": [
                "0x"
            ],
            "sender": "0x074e7f072f50fc63ee2aef1f122497d9845412c0",
            "secretKey": "0xcf0d81fb0d8f52a00691ff98e7fd35216d9f077552a4990674982ac0fbf1bccc"
        },
        "post": {
            "Prague": [
                {
                    "hash": "0xe771f20099bfda437c37c52d2a41eed736dc8b22cbdb529f15b279085f6be618",
                    "logs": "0x1dcc4de8dec75d7aab85b567b6ccd41ad312451b948a7413f0a142fd40d49347",
                    "txbytes": "0xf863800a830592a894e7fd35216d9f077552a4990674982ac0fbf1bccc830186a08025a05aafecd97b28e2f82b86aa8a812f20a33b8942428a6d8a83f96275572aee865ba0066935b85c75a0c8d633eb6d4719e933df5f9483ae681e2740ca12cea81c3378",
                    "indexes": {
                        "data": 0,
                        "gas": 0,
                        "value": 0
                    },
                    "state": {
                        "0x074e7f072f50fc63ee2aef1f122497d9845412c0": {
                            "nonce": "0x01",
                            "balance": "0x0de0b6b3a7587d70",
                            "code": "0x",
                            "storage": {}
                        },
                        "0xe7fd35216d9f077552a4990674982ac0fbf1bccc": {
                            "nonce": "0x00",
                            "balance": "0x0132b3a0",
                            "code": "0x64f34578907f6005526020600060256000600060026101f4f160025560005160005500",
                            "storage": {
                                "0x02": "0x01",
                                "0x00": "0xcb39b3bde22925b2f931111130c774761d8895e0e08437c9b396c1e97d10f34d"
                            }
                        }
                    }
                }
            ]
        },
        "config": {
            "blobSchedule": {
                "Cancun": {
                    "target": "0x03",
                    "max": "0x06",
                    "baseFeeUpdateFraction": "0x32f0ed"
                },
                "Prague": {
                    "target": "0x06",
                    "max": "0x09",
                    "baseFeeUpdateFraction": "0x4c6964"
                }
            },
            "chainid": "0x01"
        },
        "_info": {
            "hash": "0x733860ab1681e2ea09e125faa17a21186630eeea2be9d180abeba5f0d7729449",
            "comment": "`execution-specs` generated test",
            "filling-transition-tool": "2.18.0rc6",
            "description": "No description available - add a docstring to the python test class or function.",
            "url": "",
            "fixture-format": "state_test"
        }
    }
}