{
    "tests/static/state_tests/stPreCompiledContracts2/CALLCODEEcrecover3Filler.json::CALLCODEEcrecover3[fork_Cancun-state_test-]": {
        "env": {
            "currentCoinbase": "0x2adc25665018aa1fe0e6bc666dac8fc2697ff9ba",
            "currentGasLimit": "0x989680",
            "currentNumber": "0x01",
            "currentTimestamp": "0x03e8",
            "currentRandom": "0x0000000000000000000000000000000000000000000000000000000000020000",
            "currentDifficulty": "0x00",
            "currentBaseFee": "0x0a",
            "currentExcessBlobGas": "0x00"
        },
        "pre": {
            "0x18a8039a1bd6e2764bd47d308c58f1fa5d6b2f47": {
                "nonce": "0x00",
                "balance": "0x0de0b6b3a7640000",
                "code": "0x",
                "storage": {}
            },
            "0x147a3caefbf0a03d8f65892d6db71dcb899a9c28": {
                "nonce": "0x00",
                "balance": "0x01312d00",
                "code": "0x7f2f380a2dea7e778d81affc2443403b8fe4644db442ae4862ff5bb3732829cdb9600052601b6020527f6b65ccb0558806e9b097f27a396d08f964e37b8b7af6ceeb516ff86739fbea0a6040527f37cbc8d883e129a4b1ef9d5f1df53c4f21a3ef147cf2a50a4ede0eb06ce092d4606052602060806080600060006001620186a0f260025560a060020a60805106600055600054321460015500",
                "storage": {}
            }
        },
        "transaction": {
            "nonce": "0x00",
            "gasPrice": "0x0a",
            "gasLimit": [
                "0x0592a8"
            ],
            "to": "0x147a3caefbf0a03d8f65892d6db71dcb899a9c28",
            "value": [
                "0x0186a0"
            ],
            "data": [
                "0x"
            ],
            "sender": "0x18a8039a1bd6e2764bd47d308c58f1fa5d6b2f47",
            "secretKey": "0xedc5f8a50639ed15c3642a66147a3caefbf0a03d8f65892d6db71dcb899a9c28"
        },
        "post": {
            "Cancun": [
                {
                    "hash": "0x433596610582ad2d6203d6a77fe58c1c913d4d5b16c9d6403465e407902c65a5",
                    "logs": "0x1dcc4de8dec75d7aab85b567b6ccd41ad312451b948a7413f0a142fd40d49347",
                    "txbytes": "0xf863800a830592a894147a3caefbf0a03d8f65892d6db71dcb899a9c28830186a08025a089011e66aadfa696445b909a9c9494ee4338ae4c3f4db476c4d711479787b766a0701d8ac75710808827c60a605596891e4fbaa6e5fed113bbc0958b94a4c118e2",
                    "indexes": {
                        "data": 0,
                        "gas": 0,
                        "value": 0
                    },
                    "state": {
                        "0x18a8039a1bd6e2764bd47d308c58f1fa5d6b2f47": {
                            "nonce": "0x01",
                            "balance": "0x0de0b6b3a757ad14",
                            "code": "0x",
                            "storage": {}
                        },
                        "0x147a3caefbf0a03d8f65892d6db71dcb899a9c28": {
                            "nonce": "0x00",
                            "balance": "0x0132b3a0",
                            "code": "0x7f2f380a2dea7e778d81affc2443403b8fe4644db442ae4862ff5bb3732829cdb9600052601b6020527f6b65ccb0558806e9b097f27a396d08f964e37b8b7af6ceeb516ff86739fbea0a6040527f37cbc8d883e129a4b1ef9d5f1df53c4f21a3ef147cf2a50a4ede0eb06ce092d4606052602060806080600060006001620186a0f260025560a060020a60805106600055600054321460015500",
                            "storage": {
                                "0x02": "0x01",
                                "0x00": "0xe4319f4b631c6d0fcfc84045dbcb676865fe5e13"
                            }
                        }
                    }
                }
            ]
        },
        "config": {
            "blobSchedule": {
                "Cancun": {
                    "target": "0x03",
                    "max": "0x06",
                    "baseFeeUpdateFraction": "0x32f0ed"
                }
            },
            "chainid": "0x01"
        },
        "_info": {
            "hash": "0x2ac82dcf7fcda99364ce96e7bd161790de474d20938c04986a630aac6e8c7151",
            "comment": "`execution-spec-tests` generated test",
            "filling-transition-tool": "ethereum-spec-evm-resolver 0.0.5",
            "description": "No description available - add a docstring to the python test class or function.",
            "url": "",
            "fixture-format": "state_test",
            "eels-resolution": {
                "git-url": "https://github.com/marioevz/execution-specs.git",
                "branch": "forks/bpo1",
                "commit": "3387e5f4aedfe99becfdc39b444d6371e25e0924"
            }
        }
    },
    "tests/static/state_tests/stPreCompiledContracts2/CALLCODEEcrecover3Filler.json::CALLCODEEcrecover3[fork_Osaka-state_test-]": {
        "env": {
            "currentCoinbase": "0x2adc25665018aa1fe0e6bc666dac8fc2697ff9ba",
            "currentGasLimit": "0x989680",
            "currentNumber": "0x01",
            "currentTimestamp": "0x03e8",
            "currentRandom": "0x0000000000000000000000000000000000000000000000000000000000020000",
            "currentDifficulty": "0x00",
            "currentBaseFee": "0x0a",
            "currentExcessBlobGas": "0x00"
        },
        "pre": {
            "0x18a8039a1bd6e2764bd47d308c58f1fa5d6b2f47": {
                "nonce": "0x00",
                "balance": "0x0de0b6b3a7640000",
                "code": "0x",
                "storage": {}
            },
            "0x147a3caefbf0a03d8f65892d6db71dcb899a9c28": {
                "nonce": "0x00",
                "balance": "0x01312d00",
                "code": "0x7f2f380a2dea7e778d81affc2443403b8fe4644db442ae4862ff5bb3732829cdb9600052601b6020527f6b65ccb0558806e9b097f27a396d08f964e37b8b7af6ceeb516ff86739fbea0a6040527f37cbc8d883e129a4b1ef9d5f1df53c4f21a3ef147cf2a50a4ede0eb06ce092d4606052602060806080600060006001620186a0f260025560a060020a60805106600055600054321460015500",
                "storage": {}
            }
        },
        "transaction": {
            "nonce": "0x00",
            "gasPrice": "0x0a",
            "gasLimit": [
                "0x0592a8"
            ],
            "to": "0x147a3caefbf0a03d8f65892d6db71dcb899a9c28",
            "value": [
                "0x0186a0"
            ],
            "data": [
                "0x"
            ],
            "sender": "0x18a8039a1bd6e2764bd47d308c58f1fa5d6b2f47",
            "secretKey": "0xedc5f8a50639ed15c3642a66147a3caefbf0a03d8f65892d6db71dcb899a9c28"
        },
        "post": {
            "Osaka": [
                {
                    "hash": "0x433596610582ad2d6203d6a77fe58c1c913d4d5b16c9d6403465e407902c65a5",
                    "logs": "0x1dcc4de8dec75d7aab85b567b6ccd41ad312451b948a7413f0a142fd40d49347",
                    "txbytes": "0xf863800a830592a894147a3caefbf0a03d8f65892d6db71dcb899a9c28830186a08025a089011e66aadfa696445b909a9c9494ee4338ae4c3f4db476c4d711479787b766a0701d8ac75710808827c60a605596891e4fbaa6e5fed113bbc0958b94a4c118e2",
                    "indexes": {
                        "data": 0,
                        "gas": 0,
                        "value": 0
                    },
                    "state": {
                        "0x18a8039a1bd6e2764bd47d308c58f1fa5d6b2f47": {
                            "nonce": "0x01",
                            "balance": "0x0de0b6b3a757ad14",
                            "code": "0x",
                            "storage": {}
                        },
                        "0x147a3caefbf0a03d8f65892d6db71dcb899a9c28": {
                            "nonce": "0x00",
                            "balance": "0x0132b3a0",
                            "code": "0x7f2f380a2dea7e778d81affc2443403b8fe4644db442ae4862ff5bb3732829cdb9600052601b6020527f6b65ccb0558806e9b097f27a396d08f964e37b8b7af6ceeb516ff86739fbea0a6040527f37cbc8d883e129a4b1ef9d5f1df53c4f21a3ef147cf2a50a4ede0eb06ce092d4606052602060806080600060006001620186a0f260025560a060020a60805106600055600054321460015500",
                            "storage": {
                                "0x02": "0x01",
                                "0x00": "0xe4319f4b631c6d0fcfc84045dbcb676865fe5e13"
                            }
                        }
                    }
                }
            ]
        },
        "config": {
            "blobSchedule": {
                "Cancun": {
                    "target": "0x03",
                    "max": "0x06",
                    "baseFeeUpdateFraction": "0x32f0ed"
                },
                "Prague": {
                    "target": "0x06",
                    "max": "0x09",
                    "baseFeeUpdateFraction": "0x4c6964"
                },
                "Osaka": {
                    "target": "0x06",
                    "max": "0x09",
                    "baseFeeUpdateFraction": "0x4c6964"
                }
            },
            "chainid": "0x01"
        },
        "_info": {
            "hash": "0x6aee20b63c3d1c9224eab53b9c54721ea52ba862168b32b306f37bf48133394b",
            "comment": "`execution-spec-tests` generated test",
            "filling-transition-tool": "ethereum-spec-evm-resolver 0.0.5",
            "description": "No description available - add a docstring to the python test class or function.",
            "url": "",
            "fixture-format": "state_test",
            "eels-resolution": {
                "git-url": "https://github.com/marioevz/execution-specs.git",
                "branch": "forks/bpo1",
                "commit": "3387e5f4aedfe99becfdc39b444d6371e25e0924"
            }
        }
    },
    "tests/static/state_tests/stPreCompiledContracts2/CALLCODEEcrecover3Filler.json::CALLCODEEcrecover3[fork_Prague-state_test-]": {
        "env": {
            "currentCoinbase": "0x2adc25665018aa1fe0e6bc666dac8fc2697ff9ba",
            "currentGasLimit": "0x989680",
            "currentNumber": "0x01",
            "currentTimestamp": "0x03e8",
            "currentRandom": "0x0000000000000000000000000000000000000000000000000000000000020000",
            "currentDifficulty": "0x00",
            "currentBaseFee": "0x0a",
            "currentExcessBlobGas": "0x00"
        },
        "pre": {
            "0x18a8039a1bd6e2764bd47d308c58f1fa5d6b2f47": {
                "nonce": "0x00",
                "balance": "0x0de0b6b3a7640000",
                "code": "0x",
                "storage": {}
            },
            "0x147a3caefbf0a03d8f65892d6db71dcb899a9c28": {
                "nonce": "0x00",
                "balance": "0x01312d00",
                "code": "0x7f2f380a2dea7e778d81affc2443403b8fe4644db442ae4862ff5bb3732829cdb9600052601b6020527f6b65ccb0558806e9b097f27a396d08f964e37b8b7af6ceeb516ff86739fbea0a6040527f37cbc8d883e129a4b1ef9d5f1df53c4f21a3ef147cf2a50a4ede0eb06ce092d4606052602060806080600060006001620186a0f260025560a060020a60805106600055600054321460015500",
                "storage": {}
            }
        },
        "transaction": {
            "nonce": "0x00",
            "gasPrice": "0x0a",
            "gasLimit": [
                "0x0592a8"
            ],
            "to": "0x147a3caefbf0a03d8f65892d6db71dcb899a9c28",
            "value": [
                "0x0186a0"
            ],
            "data": [
                "0x"
            ],
            "sender": "0x18a8039a1bd6e2764bd47d308c58f1fa5d6b2f47",
            "secretKey": "0xedc5f8a50639ed15c3642a66147a3caefbf0a03d8f65892d6db71dcb899a9c28"
        },
        "post": {
            "Prague": [
                {
                    "hash": "0x433596610582ad2d6203d6a77fe58c1c913d4d5b16c9d6403465e407902c65a5",
                    "logs": "0x1dcc4de8dec75d7aab85b567b6ccd41ad312451b948a7413f0a142fd40d49347",
                    "txbytes": "0xf863800a830592a894147a3caefbf0a03d8f65892d6db71dcb899a9c28830186a08025a089011e66aadfa696445b909a9c9494ee4338ae4c3f4db476c4d711479787b766a0701d8ac75710808827c60a605596891e4fbaa6e5fed113bbc0958b94a4c118e2",
                    "indexes": {
                        "data": 0,
                        "gas": 0,
                        "value": 0
                    },
                    "state": {
                        "0x18a8039a1bd6e2764bd47d308c58f1fa5d6b2f47": {
                            "nonce": "0x01",
                            "balance": "0x0de0b6b3a757ad14",
                            "code": "0x",
                            "storage": {}
                        },
                        "0x147a3caefbf0a03d8f65892d6db71dcb899a9c28": {
                            "nonce": "0x00",
                            "balance": "0x0132b3a0",
                            "code": "0x7f2f380a2dea7e778d81affc2443403b8fe4644db442ae4862ff5bb3732829cdb9600052601b6020527f6b65ccb0558806e9b097f27a396d08f964e37b8b7af6ceeb516ff86739fbea0a6040527f37cbc8d883e129a4b1ef9d5f1df53c4f21a3ef147cf2a50a4ede0eb06ce092d4606052602060806080600060006001620186a0f260025560a060020a60805106600055600054321460015500",
                            "storage": {
                                "0x02": "0x01",
                                "0x00": "0xe4319f4b631c6d0fcfc84045dbcb676865fe5e13"
                            }
                        }
                    }
                }
            ]
        },
        "config": {
            "blobSchedule": {
                "Cancun": {
                    "target": "0x03",
                    "max": "0x06",
                    "baseFeeUpdateFraction": "0x32f0ed"
                },
                "Prague": {
                    "target": "0x06",
                    "max": "0x09",
                    "baseFeeUpdateFraction": "0x4c6964"
                }
            },
            "chainid": "0x01"
        },
        "_info": {
            "hash": "0xa968c8b96c3c5dd3dd58d39b137328761423839275cea3b5cfef0985a62e9e8f",
            "comment": "`execution-spec-tests` generated test",
            "filling-transition-tool": "ethereum-spec-evm-resolver 0.0.5",
            "description": "No description available - add a docstring to the python test class or function.",
            "url": "",
            "fixture-format": "state_test",
            "eels-resolution": {
                "git-url": "https://github.com/marioevz/execution-specs.git",
                "branch": "forks/bpo1",
                "commit": "3387e5f4aedfe99becfdc39b444d6371e25e0924"
            }
        }
    }
}