{
    "tests/static/state_tests/stPreCompiledContracts2/CallEcrecoverCheckLengthWrongVFiller.json::CallEcrecoverCheckLengthWrongV[fork_Cancun-state_test-]": {
        "env": {
            "currentCoinbase": "0x2adc25665018aa1fe0e6bc666dac8fc2697ff9ba",
            "currentGasLimit": "0x989680",
            "currentNumber": "0x01",
            "currentTimestamp": "0x03e8",
            "currentRandom": "0x0000000000000000000000000000000000000000000000000000000000020000",
            "currentDifficulty": "0x00",
            "currentBaseFee": "0x0a",
            "currentExcessBlobGas": "0x00"
        },
        "pre": {
            "0x353ec68c9272b1fe09dfa3ee3d2ebe411c56b47a": {
                "nonce": "0x00",
                "balance": "0x0de0b6b3a7640000",
                "code": "0x",
                "storage": {}
            },
            "0xd9f593025781186979340284acb16f9fedb6dad8": {
                "nonce": "0x00",
                "balance": "0x01312d00",
                "code": "0x7f11223344556677889900112233445566778899001122334455667788990011226080527f18c547e4f7b0f325ad1e56f57e26c745b09a3e503d86e00e5255ff7f715d3d1c600052601d6020527f73b1693892219d736caba55bdb67216e485557ea6b6af75f37096c9aa6a5a75f6040527feeb940b1d03b21e36b0e47e79769f095fe2ab855bd91e3a38756b7d75a9c4549606052602060806080600060006001620493e0f16002556080516000555960015500",
                "storage": {}
            }
        },
        "transaction": {
            "nonce": "0x00",
            "gasPrice": "0x0a",
            "gasLimit": [
                "0x37ba90"
            ],
            "to": "0xd9f593025781186979340284acb16f9fedb6dad8",
            "value": [
                "0x0186a0"
            ],
            "data": [
                "0x"
            ],
            "sender": "0x353ec68c9272b1fe09dfa3ee3d2ebe411c56b47a",
            "secretKey": "0xd6a709c7663e985ad8409693d9f593025781186979340284acb16f9fedb6dad8"
        },
        "post": {
            "Cancun": [
                {
                    "hash": "0xa69a058069966a9a36c0cfd8c9bbe44727a4a1ff73e45148fed846c08b8cfcb9",
                    "logs": "0x1dcc4de8dec75d7aab85b567b6ccd41ad312451b948a7413f0a142fd40d49347",
                    "txbytes": "0xf863800a8337ba9094d9f593025781186979340284acb16f9fedb6dad8830186a08025a0a878231fc8cefa845313fa0eb0c0dc6d3eb3a58fbbb5d1d7caff91e95fdb9123a04c1b77dff895e39aa708842ad1759eac601fffeb7a1abc9c378311fb49188492",
                    "indexes": {
                        "data": 0,
                        "gas": 0,
                        "value": 0
                    },
                    "state": {
                        "0x353ec68c9272b1fe09dfa3ee3d2ebe411c56b47a": {
                            "nonce": "0x01",
                            "balance": "0x0de0b6b3a754aa4c",
                            "code": "0x",
                            "storage": {}
                        },
                        "0xd9f593025781186979340284acb16f9fedb6dad8": {
                            "nonce": "0x00",
                            "balance": "0x0132b3a0",
                            "code": "0x7f11223344556677889900112233445566778899001122334455667788990011226080527f18c547e4f7b0f325ad1e56f57e26c745b09a3e503d86e00e5255ff7f715d3d1c600052601d6020527f73b1693892219d736caba55bdb67216e485557ea6b6af75f37096c9aa6a5a75f6040527feeb940b1d03b21e36b0e47e79769f095fe2ab855bd91e3a38756b7d75a9c4549606052602060806080600060006001620493e0f16002556080516000555960015500",
                            "storage": {
                                "0x02": "0x01",
                                "0x00": "0x1122334455667788990011223344556677889900112233445566778899001122",
                                "0x01": "0xa0"
                            }
                        }
                    }
                }
            ]
        },
        "config": {
            "blobSchedule": {
                "Cancun": {
                    "target": "0x03",
                    "max": "0x06",
                    "baseFeeUpdateFraction": "0x32f0ed"
                }
            },
            "chainid": "0x01"
        },
        "_info": {
            "hash": "0xd221df9ad8e4849d1d767e216660ed3f14c4562fb6c13d429fe6bf08f7447996",
            "comment": "`execution-spec-tests` generated test",
            "filling-transition-tool": "ethereum-spec-evm-resolver 0.0.5",
            "description": "No description available - add a docstring to the python test class or function.",
            "url": "",
            "fixture-format": "state_test",
            "eels-resolution": {
                "git-url": "https://github.com/ethereum/execution-specs.git",
                "branch": "forks/bpos",
                "commit": "7aacb2c54111391af5e98c505d5010b5698a770f"
            }
        }
    },
    "tests/static/state_tests/stPreCompiledContracts2/CallEcrecoverCheckLengthWrongVFiller.json::CallEcrecoverCheckLengthWrongV[fork_Osaka-state_test-]": {
        "env": {
            "currentCoinbase": "0x2adc25665018aa1fe0e6bc666dac8fc2697ff9ba",
            "currentGasLimit": "0x989680",
            "currentNumber": "0x01",
            "currentTimestamp": "0x03e8",
            "currentRandom": "0x0000000000000000000000000000000000000000000000000000000000020000",
            "currentDifficulty": "0x00",
            "currentBaseFee": "0x0a",
            "currentExcessBlobGas": "0x00"
        },
        "pre": {
            "0x353ec68c9272b1fe09dfa3ee3d2ebe411c56b47a": {
                "nonce": "0x00",
                "balance": "0x0de0b6b3a7640000",
                "code": "0x",
                "storage": {}
            },
            "0xd9f593025781186979340284acb16f9fedb6dad8": {
                "nonce": "0x00",
                "balance": "0x01312d00",
                "code": "0x7f11223344556677889900112233445566778899001122334455667788990011226080527f18c547e4f7b0f325ad1e56f57e26c745b09a3e503d86e00e5255ff7f715d3d1c600052601d6020527f73b1693892219d736caba55bdb67216e485557ea6b6af75f37096c9aa6a5a75f6040527feeb940b1d03b21e36b0e47e79769f095fe2ab855bd91e3a38756b7d75a9c4549606052602060806080600060006001620493e0f16002556080516000555960015500",
                "storage": {}
            }
        },
        "transaction": {
            "nonce": "0x00",
            "gasPrice": "0x0a",
            "gasLimit": [
                "0x37ba90"
            ],
            "to": "0xd9f593025781186979340284acb16f9fedb6dad8",
            "value": [
                "0x0186a0"
            ],
            "data": [
                "0x"
            ],
            "sender": "0x353ec68c9272b1fe09dfa3ee3d2ebe411c56b47a",
            "secretKey": "0xd6a709c7663e985ad8409693d9f593025781186979340284acb16f9fedb6dad8"
        },
        "post": {
            "Osaka": [
                {
                    "hash": "0xa69a058069966a9a36c0cfd8c9bbe44727a4a1ff73e45148fed846c08b8cfcb9",
                    "logs": "0x1dcc4de8dec75d7aab85b567b6ccd41ad312451b948a7413f0a142fd40d49347",
                    "txbytes": "0xf863800a8337ba9094d9f593025781186979340284acb16f9fedb6dad8830186a08025a0a878231fc8cefa845313fa0eb0c0dc6d3eb3a58fbbb5d1d7caff91e95fdb9123a04c1b77dff895e39aa708842ad1759eac601fffeb7a1abc9c378311fb49188492",
                    "indexes": {
                        "data": 0,
                        "gas": 0,
                        "value": 0
                    },
                    "state": {
                        "0x353ec68c9272b1fe09dfa3ee3d2ebe411c56b47a": {
                            "nonce": "0x01",
                            "balance": "0x0de0b6b3a754aa4c",
                            "code": "0x",
                            "storage": {}
                        },
                        "0xd9f593025781186979340284acb16f9fedb6dad8": {
                            "nonce": "0x00",
                            "balance": "0x0132b3a0",
                            "code": "0x7f11223344556677889900112233445566778899001122334455667788990011226080527f18c547e4f7b0f325ad1e56f57e26c745b09a3e503d86e00e5255ff7f715d3d1c600052601d6020527f73b1693892219d736caba55bdb67216e485557ea6b6af75f37096c9aa6a5a75f6040527feeb940b1d03b21e36b0e47e79769f095fe2ab855bd91e3a38756b7d75a9c4549606052602060806080600060006001620493e0f16002556080516000555960015500",
                            "storage": {
                                "0x02": "0x01",
                                "0x00": "0x1122334455667788990011223344556677889900112233445566778899001122",
                                "0x01": "0xa0"
                            }
                        }
                    }
                }
            ]
        },
        "config": {
            "blobSchedule": {
                "Cancun": {
                    "target": "0x03",
                    "max": "0x06",
                    "baseFeeUpdateFraction": "0x32f0ed"
                },
                "Prague": {
                    "target": "0x06",
                    "max": "0x09",
                    "baseFeeUpdateFraction": "0x4c6964"
                },
                "Osaka": {
                    "target": "0x06",
                    "max": "0x09",
                    "baseFeeUpdateFraction": "0x4c6964"
                }
            },
            "chainid": "0x01"
        },
        "_info": {
            "hash": "0x6e6ac01103926623bd2896052f4c5f1256349cebe87cf27539448534cd69b2c1",
            "comment": "`execution-spec-tests` generated test",
            "filling-transition-tool": "ethereum-spec-evm-resolver 0.0.5",
            "description": "No description available - add a docstring to the python test class or function.",
            "url": "",
            "fixture-format": "state_test",
            "eels-resolution": {
                "git-url": "https://github.com/ethereum/execution-specs.git",
                "branch": "forks/bpos",
                "commit": "7aacb2c54111391af5e98c505d5010b5698a770f"
            }
        }
    },
    "tests/static/state_tests/stPreCompiledContracts2/CallEcrecoverCheckLengthWrongVFiller.json::CallEcrecoverCheckLengthWrongV[fork_Prague-state_test-]": {
        "env": {
            "currentCoinbase": "0x2adc25665018aa1fe0e6bc666dac8fc2697ff9ba",
            "currentGasLimit": "0x989680",
            "currentNumber": "0x01",
            "currentTimestamp": "0x03e8",
            "currentRandom": "0x0000000000000000000000000000000000000000000000000000000000020000",
            "currentDifficulty": "0x00",
            "currentBaseFee": "0x0a",
            "currentExcessBlobGas": "0x00"
        },
        "pre": {
            "0x353ec68c9272b1fe09dfa3ee3d2ebe411c56b47a": {
                "nonce": "0x00",
                "balance": "0x0de0b6b3a7640000",
                "code": "0x",
                "storage": {}
            },
            "0xd9f593025781186979340284acb16f9fedb6dad8": {
                "nonce": "0x00",
                "balance": "0x01312d00",
                "code": "0x7f11223344556677889900112233445566778899001122334455667788990011226080527f18c547e4f7b0f325ad1e56f57e26c745b09a3e503d86e00e5255ff7f715d3d1c600052601d6020527f73b1693892219d736caba55bdb67216e485557ea6b6af75f37096c9aa6a5a75f6040527feeb940b1d03b21e36b0e47e79769f095fe2ab855bd91e3a38756b7d75a9c4549606052602060806080600060006001620493e0f16002556080516000555960015500",
                "storage": {}
            }
        },
        "transaction": {
            "nonce": "0x00",
            "gasPrice": "0x0a",
            "gasLimit": [
                "0x37ba90"
            ],
            "to": "0xd9f593025781186979340284acb16f9fedb6dad8",
            "value": [
                "0x0186a0"
            ],
            "data": [
                "0x"
            ],
            "sender": "0x353ec68c9272b1fe09dfa3ee3d2ebe411c56b47a",
            "secretKey": "0xd6a709c7663e985ad8409693d9f593025781186979340284acb16f9fedb6dad8"
        },
        "post": {
            "Prague": [
                {
                    "hash": "0xa69a058069966a9a36c0cfd8c9bbe44727a4a1ff73e45148fed846c08b8cfcb9",
                    "logs": "0x1dcc4de8dec75d7aab85b567b6ccd41ad312451b948a7413f0a142fd40d49347",
                    "txbytes": "0xf863800a8337ba9094d9f593025781186979340284acb16f9fedb6dad8830186a08025a0a878231fc8cefa845313fa0eb0c0dc6d3eb3a58fbbb5d1d7caff91e95fdb9123a04c1b77dff895e39aa708842ad1759eac601fffeb7a1abc9c378311fb49188492",
                    "indexes": {
                        "data": 0,
                        "gas": 0,
                        "value": 0
                    },
                    "state": {
                        "0x353ec68c9272b1fe09dfa3ee3d2ebe411c56b47a": {
                            "nonce": "0x01",
                            "balance": "0x0de0b6b3a754aa4c",
                            "code": "0x",
                            "storage": {}
                        },
                        "0xd9f593025781186979340284acb16f9fedb6dad8": {
                            "nonce": "0x00",
                            "balance": "0x0132b3a0",
                            "code": "0x7f11223344556677889900112233445566778899001122334455667788990011226080527f18c547e4f7b0f325ad1e56f57e26c745b09a3e503d86e00e5255ff7f715d3d1c600052601d6020527f73b1693892219d736caba55bdb67216e485557ea6b6af75f37096c9aa6a5a75f6040527feeb940b1d03b21e36b0e47e79769f095fe2ab855bd91e3a38756b7d75a9c4549606052602060806080600060006001620493e0f16002556080516000555960015500",
                            "storage": {
                                "0x02": "0x01",
                                "0x00": "0x1122334455667788990011223344556677889900112233445566778899001122",
                                "0x01": "0xa0"
                            }
                        }
                    }
                }
            ]
        },
        "config": {
            "blobSchedule": {
                "Cancun": {
                    "target": "0x03",
                    "max": "0x06",
                    "baseFeeUpdateFraction": "0x32f0ed"
                },
                "Prague": {
                    "target": "0x06",
                    "max": "0x09",
                    "baseFeeUpdateFraction": "0x4c6964"
                }
            },
            "chainid": "0x01"
        },
        "_info": {
            "hash": "0xabda69aff071f6b1edcd8141812889ce4238252645f0ff3016e731c9a41cc2b5",
            "comment": "`execution-spec-tests` generated test",
            "filling-transition-tool": "ethereum-spec-evm-resolver 0.0.5",
            "description": "No description available - add a docstring to the python test class or function.",
            "url": "",
            "fixture-format": "state_test",
            "eels-resolution": {
                "git-url": "https://github.com/ethereum/execution-specs.git",
                "branch": "forks/bpos",
                "commit": "7aacb2c54111391af5e98c505d5010b5698a770f"
            }
        }
    }
}