{
    "tests/static/state_tests/stPreCompiledContracts2/CallEcrecover0_overlappingInputOutputFiller.json::CallEcrecover0_overlappingInputOutput[fork_Cancun-state_test-]": {
        "env": {
            "currentCoinbase": "0x2adc25665018aa1fe0e6bc666dac8fc2697ff9ba",
            "currentGasLimit": "0x989680",
            "currentNumber": "0x01",
            "currentTimestamp": "0x03e8",
            "currentRandom": "0x0000000000000000000000000000000000000000000000000000000000020000",
            "currentDifficulty": "0x00",
            "currentBaseFee": "0x0a",
            "currentExcessBlobGas": "0x00"
        },
        "pre": {
            "0x095e7baea6a6c7c4c2dfeb977efac326af552d87": {
                "nonce": "0x00",
                "balance": "0x01312d00",
                "code": "0x7f18c547e4f7b0f325ad1e56f57e26c745b09a3e503d86e00e5255ff7f715d3d1c600052601c6020527f73b1693892219d736caba55bdb67216e485557ea6b6af75f37096c9aa6a5a75f6040527feeb940b1d03b21e36b0e47e79769f095fe2ab855bd91e3a38756b7d75a9c4549606052602060406080600060006001620493e0f160025560a060020a60405106600055600054321460015500",
                "storage": {}
            },
            "0xa94f5374fce5edbc8e2a8697c15331677e6ebf0b": {
                "nonce": "0x00",
                "balance": "0x0de0b6b3a7640000",
                "code": "0x",
                "storage": {}
            }
        },
        "transaction": {
            "nonce": "0x00",
            "gasPrice": "0x0a",
            "gasLimit": [
                "0x0592a8"
            ],
            "to": "0x095e7baea6a6c7c4c2dfeb977efac326af552d87",
            "value": [
                "0x0186a0"
            ],
            "data": [
                "0x"
            ],
            "sender": "0xa94f5374fce5edbc8e2a8697c15331677e6ebf0b",
            "secretKey": "0x45a915e4d060149eb4365960e6a7a45f334393093061116b197e3240065ff2d8"
        },
        "post": {
            "Cancun": [
                {
                    "hash": "0xb071ced941b8a0b965f62941c75960863df1c13817e1125f7efbbd4611dbc783",
                    "logs": "0x1dcc4de8dec75d7aab85b567b6ccd41ad312451b948a7413f0a142fd40d49347",
                    "txbytes": "0xf863800a830592a894095e7baea6a6c7c4c2dfeb977efac326af552d87830186a08025a05a284d0ddff535c9abacc5f590bc2e5b9c5e333b8186ab46fd766a170d4b749ea0435c8b5dcac2cb9d91f6d74861c504935ef345a18238d4ff231a92add87f71ae",
                    "indexes": {
                        "data": 0,
                        "gas": 0,
                        "value": 0
                    },
                    "state": {
                        "0x095e7baea6a6c7c4c2dfeb977efac326af552d87": {
                            "nonce": "0x00",
                            "balance": "0x0132b3a0",
                            "code": "0x7f18c547e4f7b0f325ad1e56f57e26c745b09a3e503d86e00e5255ff7f715d3d1c600052601c6020527f73b1693892219d736caba55bdb67216e485557ea6b6af75f37096c9aa6a5a75f6040527feeb940b1d03b21e36b0e47e79769f095fe2ab855bd91e3a38756b7d75a9c4549606052602060406080600060006001620493e0f160025560a060020a60405106600055600054321460015500",
                            "storage": {
                                "0x02": "0x01",
                                "0x00": "0xa94f5374fce5edbc8e2a8697c15331677e6ebf0b",
                                "0x01": "0x01"
                            }
                        },
                        "0xa94f5374fce5edbc8e2a8697c15331677e6ebf0b": {
                            "nonce": "0x01",
                            "balance": "0x0de0b6b3a754a3da",
                            "code": "0x",
                            "storage": {}
                        }
                    }
                }
            ]
        },
        "config": {
            "blobSchedule": {
                "Cancun": {
                    "target": "0x03",
                    "max": "0x06",
                    "baseFeeUpdateFraction": "0x32f0ed"
                }
            },
            "chainid": "0x01"
        },
        "_info": {
            "hash": "0x736c491420ec13bea428493fbbd46e6c9e15739bd69d1094e7b9f4c1a7258801",
            "comment": "`execution-specs` generated test",
            "filling-transition-tool": "2.18.0rc6",
            "description": "No description available - add a docstring to the python test class or function.",
            "url": "",
            "fixture-format": "state_test"
        }
    },
    "tests/static/state_tests/stPreCompiledContracts2/CallEcrecover0_overlappingInputOutputFiller.json::CallEcrecover0_overlappingInputOutput[fork_Osaka-state_test-]": {
        "env": {
            "currentCoinbase": "0x2adc25665018aa1fe0e6bc666dac8fc2697ff9ba",
            "currentGasLimit": "0x989680",
            "currentNumber": "0x01",
            "currentTimestamp": "0x03e8",
            "currentRandom": "0x0000000000000000000000000000000000000000000000000000000000020000",
            "currentDifficulty": "0x00",
            "currentBaseFee": "0x0a",
            "currentExcessBlobGas": "0x00"
        },
        "pre": {
            "0x095e7baea6a6c7c4c2dfeb977efac326af552d87": {
                "nonce": "0x00",
                "balance": "0x01312d00",
                "code": "0x7f18c547e4f7b0f325ad1e56f57e26c745b09a3e503d86e00e5255ff7f715d3d1c600052601c6020527f73b1693892219d736caba55bdb67216e485557ea6b6af75f37096c9aa6a5a75f6040527feeb940b1d03b21e36b0e47e79769f095fe2ab855bd91e3a38756b7d75a9c4549606052602060406080600060006001620493e0f160025560a060020a60405106600055600054321460015500",
                "storage": {}
            },
            "0xa94f5374fce5edbc8e2a8697c15331677e6ebf0b": {
                "nonce": "0x00",
                "balance": "0x0de0b6b3a7640000",
                "code": "0x",
                "storage": {}
            }
        },
        "transaction": {
            "nonce": "0x00",
            "gasPrice": "0x0a",
            "gasLimit": [
                "0x0592a8"
            ],
            "to": "0x095e7baea6a6c7c4c2dfeb977efac326af552d87",
            "value": [
                "0x0186a0"
            ],
            "data": [
                "0x"
            ],
            "sender": "0xa94f5374fce5edbc8e2a8697c15331677e6ebf0b",
            "secretKey": "0x45a915e4d060149eb4365960e6a7a45f334393093061116b197e3240065ff2d8"
        },
        "post": {
            "Osaka": [
                {
                    "hash": "0xb071ced941b8a0b965f62941c75960863df1c13817e1125f7efbbd4611dbc783",
                    "logs": "0x1dcc4de8dec75d7aab85b567b6ccd41ad312451b948a7413f0a142fd40d49347",
                    "txbytes": "0xf863800a830592a894095e7baea6a6c7c4c2dfeb977efac326af552d87830186a08025a05a284d0ddff535c9abacc5f590bc2e5b9c5e333b8186ab46fd766a170d4b749ea0435c8b5dcac2cb9d91f6d74861c504935ef345a18238d4ff231a92add87f71ae",
                    "indexes": {
                        "data": 0,
                        "gas": 0,
                        "value": 0
                    },
                    "state": {
                        "0x095e7baea6a6c7c4c2dfeb977efac326af552d87": {
                            "nonce": "0x00",
                            "balance": "0x0132b3a0",
                            "code": "0x7f18c547e4f7b0f325ad1e56f57e26c745b09a3e503d86e00e5255ff7f715d3d1c600052601c6020527f73b1693892219d736caba55bdb67216e485557ea6b6af75f37096c9aa6a5a75f6040527feeb940b1d03b21e36b0e47e79769f095fe2ab855bd91e3a38756b7d75a9c4549606052602060406080600060006001620493e0f160025560a060020a60405106600055600054321460015500",
                            "storage": {
                                "0x02": "0x01",
                                "0x00": "0xa94f5374fce5edbc8e2a8697c15331677e6ebf0b",
                                "0x01": "0x01"
                            }
                        },
                        "0xa94f5374fce5edbc8e2a8697c15331677e6ebf0b": {
                            "nonce": "0x01",
                            "balance": "0x0de0b6b3a754a3da",
                            "code": "0x",
                            "storage": {}
                        }
                    }
                }
            ]
        },
        "config": {
            "blobSchedule": {
                "Cancun": {
                    "target": "0x03",
                    "max": "0x06",
                    "baseFeeUpdateFraction": "0x32f0ed"
                },
                "Prague": {
                    "target": "0x06",
                    "max": "0x09",
                    "baseFeeUpdateFraction": "0x4c6964"
                },
                "Osaka": {
                    "target": "0x06",
                    "max": "0x09",
                    "baseFeeUpdateFraction": "0x4c6964"
                }
            },
            "chainid": "0x01"
        },
        "_info": {
            "hash": "0x73b33e965f850f66cba09de919d7123d1c95fef0dae6fad56a0c9caa7dc8cc2a",
            "comment": "`execution-specs` generated test",
            "filling-transition-tool": "2.18.0rc6",
            "description": "No description available - add a docstring to the python test class or function.",
            "url": "",
            "fixture-format": "state_test"
        }
    },
    "tests/static/state_tests/stPreCompiledContracts2/CallEcrecover0_overlappingInputOutputFiller.json::CallEcrecover0_overlappingInputOutput[fork_Prague-state_test-]": {
        "env": {
            "currentCoinbase": "0x2adc25665018aa1fe0e6bc666dac8fc2697ff9ba",
            "currentGasLimit": "0x989680",
            "currentNumber": "0x01",
            "currentTimestamp": "0x03e8",
            "currentRandom": "0x0000000000000000000000000000000000000000000000000000000000020000",
            "currentDifficulty": "0x00",
            "currentBaseFee": "0x0a",
            "currentExcessBlobGas": "0x00"
        },
        "pre": {
            "0x095e7baea6a6c7c4c2dfeb977efac326af552d87": {
                "nonce": "0x00",
                "balance": "0x01312d00",
                "code": "0x7f18c547e4f7b0f325ad1e56f57e26c745b09a3e503d86e00e5255ff7f715d3d1c600052601c6020527f73b1693892219d736caba55bdb67216e485557ea6b6af75f37096c9aa6a5a75f6040527feeb940b1d03b21e36b0e47e79769f095fe2ab855bd91e3a38756b7d75a9c4549606052602060406080600060006001620493e0f160025560a060020a60405106600055600054321460015500",
                "storage": {}
            },
            "0xa94f5374fce5edbc8e2a8697c15331677e6ebf0b": {
                "nonce": "0x00",
                "balance": "0x0de0b6b3a7640000",
                "code": "0x",
                "storage": {}
            }
        },
        "transaction": {
            "nonce": "0x00",
            "gasPrice": "0x0a",
            "gasLimit": [
                "0x0592a8"
            ],
            "to": "0x095e7baea6a6c7c4c2dfeb977efac326af552d87",
            "value": [
                "0x0186a0"
            ],
            "data": [
                "0x"
            ],
            "sender": "0xa94f5374fce5edbc8e2a8697c15331677e6ebf0b",
            "secretKey": "0x45a915e4d060149eb4365960e6a7a45f334393093061116b197e3240065ff2d8"
        },
        "post": {
            "Prague": [
                {
                    "hash": "0xb071ced941b8a0b965f62941c75960863df1c13817e1125f7efbbd4611dbc783",
                    "logs": "0x1dcc4de8dec75d7aab85b567b6ccd41ad312451b948a7413f0a142fd40d49347",
                    "txbytes": "0xf863800a830592a894095e7baea6a6c7c4c2dfeb977efac326af552d87830186a08025a05a284d0ddff535c9abacc5f590bc2e5b9c5e333b8186ab46fd766a170d4b749ea0435c8b5dcac2cb9d91f6d74861c504935ef345a18238d4ff231a92add87f71ae",
                    "indexes": {
                        "data": 0,
                        "gas": 0,
                        "value": 0
                    },
                    "state": {
                        "0x095e7baea6a6c7c4c2dfeb977efac326af552d87": {
                            "nonce": "0x00",
                            "balance": "0x0132b3a0",
                            "code": "0x7f18c547e4f7b0f325ad1e56f57e26c745b09a3e503d86e00e5255ff7f715d3d1c600052601c6020527f73b1693892219d736caba55bdb67216e485557ea6b6af75f37096c9aa6a5a75f6040527feeb940b1d03b21e36b0e47e79769f095fe2ab855bd91e3a38756b7d75a9c4549606052602060406080600060006001620493e0f160025560a060020a60405106600055600054321460015500",
                            "storage": {
                                "0x02": "0x01",
                                "0x00": "0xa94f5374fce5edbc8e2a8697c15331677e6ebf0b",
                                "0x01": "0x01"
                            }
                        },
                        "0xa94f5374fce5edbc8e2a8697c15331677e6ebf0b": {
                            "nonce": "0x01",
                            "balance": "0x0de0b6b3a754a3da",
                            "code": "0x",
                            "storage": {}
                        }
                    }
                }
            ]
        },
        "config": {
            "blobSchedule": {
                "Cancun": {
                    "target": "0x03",
                    "max": "0x06",
                    "baseFeeUpdateFraction": "0x32f0ed"
                },
                "Prague": {
                    "target": "0x06",
                    "max": "0x09",
                    "baseFeeUpdateFraction": "0x4c6964"
                }
            },
            "chainid": "0x01"
        },
        "_info": {
            "hash": "0x368ddd881ccfa6d5ef563e9ae252a596968ec82b3640cd55c9f6a7c72a2e5a24",
            "comment": "`execution-specs` generated test",
            "filling-transition-tool": "2.18.0rc6",
            "description": "No description available - add a docstring to the python test class or function.",
            "url": "",
            "fixture-format": "state_test"
        }
    }
}