{
    "tests/static/state_tests/stPreCompiledContracts2/CallEcrecover0_NoGasFiller.json::CallEcrecover0_NoGas[fork_Cancun-state_test-]": {
        "env": {
            "currentCoinbase": "0x2adc25665018aa1fe0e6bc666dac8fc2697ff9ba",
            "currentGasLimit": "0x989680",
            "currentNumber": "0x01",
            "currentTimestamp": "0x03e8",
            "currentRandom": "0x0000000000000000000000000000000000000000000000000000000000020000",
            "currentDifficulty": "0x00",
            "currentBaseFee": "0x0a",
            "currentExcessBlobGas": "0x00"
        },
        "pre": {
            "0x03766c4f90d7def35b48b7407e87e8c169812046": {
                "nonce": "0x00",
                "balance": "0x0de0b6b3a7640000",
                "code": "0x",
                "storage": {}
            },
            "0x5f896b92ac89aaebd21752c58c84581c66ad1511": {
                "nonce": "0x00",
                "balance": "0x01312d00",
                "code": "0x7f18c547e4f7b0f325ad1e56f57e26c745b09a3e503d86e00e5255ff7f715d3d1c600052601c6020527f73b1693892219d736caba55bdb67216e485557ea6b6af75f37096c9aa6a5a75f6040527feeb940b1d03b21e36b0e47e79769f095fe2ab855bd91e3a38756b7d75a9c45496060526020608060806000600160016000f160025560a060020a60805106600055600054321460015500",
                "storage": {
                    "0x00": "0x0c",
                    "0x01": "0x0c",
                    "0x02": "0x0c"
                }
            }
        },
        "transaction": {
            "nonce": "0x00",
            "gasPrice": "0x0a",
            "gasLimit": [
                "0x0592a8"
            ],
            "to": "0x5f896b92ac89aaebd21752c58c84581c66ad1511",
            "value": [
                "0x0186a0"
            ],
            "data": [
                "0x"
            ],
            "sender": "0x03766c4f90d7def35b48b7407e87e8c169812046",
            "secretKey": "0xe039763e96f0004005778bf15f896b92ac89aaebd21752c58c84581c66ad1511"
        },
        "post": {
            "Cancun": [
                {
                    "hash": "0xe2347718b668ee9388c20eee4c2e9ad5a62c77cb5390b6252a51c21f7d059189",
                    "logs": "0x1dcc4de8dec75d7aab85b567b6ccd41ad312451b948a7413f0a142fd40d49347",
                    "txbytes": "0xf863800a830592a8945f896b92ac89aaebd21752c58c84581c66ad1511830186a08025a0f50e07bf3c5ae039df3fbd0696bb21854b613f0e7a84c74bf017b5167ee1bd3aa05a8f37445f479bdd32324ad75583a06e98dced34dc6d59acdcfd70a990c4e5cb",
                    "indexes": {
                        "data": 0,
                        "gas": 0,
                        "value": 0
                    },
                    "state": {
                        "0x03766c4f90d7def35b48b7407e87e8c169812046": {
                            "nonce": "0x01",
                            "balance": "0x0de0b6b3a759e26e",
                            "code": "0x",
                            "storage": {}
                        },
                        "0x5f896b92ac89aaebd21752c58c84581c66ad1511": {
                            "nonce": "0x00",
                            "balance": "0x0132b3a0",
                            "code": "0x7f18c547e4f7b0f325ad1e56f57e26c745b09a3e503d86e00e5255ff7f715d3d1c600052601c6020527f73b1693892219d736caba55bdb67216e485557ea6b6af75f37096c9aa6a5a75f6040527feeb940b1d03b21e36b0e47e79769f095fe2ab855bd91e3a38756b7d75a9c45496060526020608060806000600160016000f160025560a060020a60805106600055600054321460015500",
                            "storage": {}
                        }
                    }
                }
            ]
        },
        "config": {
            "blobSchedule": {
                "Cancun": {
                    "target": "0x03",
                    "max": "0x06",
                    "baseFeeUpdateFraction": "0x32f0ed"
                }
            },
            "chainid": "0x01"
        },
        "_info": {
            "hash": "0x4c30c285f93281478f81626d94bc51df72c5d22f5d07a020bd5b5d158cb9babd",
            "comment": "`execution-spec-tests` generated test",
            "filling-transition-tool": "ethereum-spec-evm-resolver 0.0.5",
            "description": "No description available - add a docstring to the python test class or function.",
            "url": "",
            "fixture-format": "state_test",
            "eels-resolution": {
                "git-url": "https://github.com/marioevz/execution-specs.git",
                "branch": "forks/bpo1",
                "commit": "3387e5f4aedfe99becfdc39b444d6371e25e0924"
            }
        }
    },
    "tests/static/state_tests/stPreCompiledContracts2/CallEcrecover0_NoGasFiller.json::CallEcrecover0_NoGas[fork_Osaka-state_test-]": {
        "env": {
            "currentCoinbase": "0x2adc25665018aa1fe0e6bc666dac8fc2697ff9ba",
            "currentGasLimit": "0x989680",
            "currentNumber": "0x01",
            "currentTimestamp": "0x03e8",
            "currentRandom": "0x0000000000000000000000000000000000000000000000000000000000020000",
            "currentDifficulty": "0x00",
            "currentBaseFee": "0x0a",
            "currentExcessBlobGas": "0x00"
        },
        "pre": {
            "0x03766c4f90d7def35b48b7407e87e8c169812046": {
                "nonce": "0x00",
                "balance": "0x0de0b6b3a7640000",
                "code": "0x",
                "storage": {}
            },
            "0x5f896b92ac89aaebd21752c58c84581c66ad1511": {
                "nonce": "0x00",
                "balance": "0x01312d00",
                "code": "0x7f18c547e4f7b0f325ad1e56f57e26c745b09a3e503d86e00e5255ff7f715d3d1c600052601c6020527f73b1693892219d736caba55bdb67216e485557ea6b6af75f37096c9aa6a5a75f6040527feeb940b1d03b21e36b0e47e79769f095fe2ab855bd91e3a38756b7d75a9c45496060526020608060806000600160016000f160025560a060020a60805106600055600054321460015500",
                "storage": {
                    "0x00": "0x0c",
                    "0x01": "0x0c",
                    "0x02": "0x0c"
                }
            }
        },
        "transaction": {
            "nonce": "0x00",
            "gasPrice": "0x0a",
            "gasLimit": [
                "0x0592a8"
            ],
            "to": "0x5f896b92ac89aaebd21752c58c84581c66ad1511",
            "value": [
                "0x0186a0"
            ],
            "data": [
                "0x"
            ],
            "sender": "0x03766c4f90d7def35b48b7407e87e8c169812046",
            "secretKey": "0xe039763e96f0004005778bf15f896b92ac89aaebd21752c58c84581c66ad1511"
        },
        "post": {
            "Osaka": [
                {
                    "hash": "0xe2347718b668ee9388c20eee4c2e9ad5a62c77cb5390b6252a51c21f7d059189",
                    "logs": "0x1dcc4de8dec75d7aab85b567b6ccd41ad312451b948a7413f0a142fd40d49347",
                    "txbytes": "0xf863800a830592a8945f896b92ac89aaebd21752c58c84581c66ad1511830186a08025a0f50e07bf3c5ae039df3fbd0696bb21854b613f0e7a84c74bf017b5167ee1bd3aa05a8f37445f479bdd32324ad75583a06e98dced34dc6d59acdcfd70a990c4e5cb",
                    "indexes": {
                        "data": 0,
                        "gas": 0,
                        "value": 0
                    },
                    "state": {
                        "0x03766c4f90d7def35b48b7407e87e8c169812046": {
                            "nonce": "0x01",
                            "balance": "0x0de0b6b3a759e26e",
                            "code": "0x",
                            "storage": {}
                        },
                        "0x5f896b92ac89aaebd21752c58c84581c66ad1511": {
                            "nonce": "0x00",
                            "balance": "0x0132b3a0",
                            "code": "0x7f18c547e4f7b0f325ad1e56f57e26c745b09a3e503d86e00e5255ff7f715d3d1c600052601c6020527f73b1693892219d736caba55bdb67216e485557ea6b6af75f37096c9aa6a5a75f6040527feeb940b1d03b21e36b0e47e79769f095fe2ab855bd91e3a38756b7d75a9c45496060526020608060806000600160016000f160025560a060020a60805106600055600054321460015500",
                            "storage": {}
                        }
                    }
                }
            ]
        },
        "config": {
            "blobSchedule": {
                "Cancun": {
                    "target": "0x03",
                    "max": "0x06",
                    "baseFeeUpdateFraction": "0x32f0ed"
                },
                "Prague": {
                    "target": "0x06",
                    "max": "0x09",
                    "baseFeeUpdateFraction": "0x4c6964"
                },
                "Osaka": {
                    "target": "0x06",
                    "max": "0x09",
                    "baseFeeUpdateFraction": "0x4c6964"
                }
            },
            "chainid": "0x01"
        },
        "_info": {
            "hash": "0x767850f02772405d2d310dcc8bc533d94f4d65cf7928bf359f3ffd25934fb892",
            "comment": "`execution-spec-tests` generated test",
            "filling-transition-tool": "ethereum-spec-evm-resolver 0.0.5",
            "description": "No description available - add a docstring to the python test class or function.",
            "url": "",
            "fixture-format": "state_test",
            "eels-resolution": {
                "git-url": "https://github.com/marioevz/execution-specs.git",
                "branch": "forks/bpo1",
                "commit": "3387e5f4aedfe99becfdc39b444d6371e25e0924"
            }
        }
    },
    "tests/static/state_tests/stPreCompiledContracts2/CallEcrecover0_NoGasFiller.json::CallEcrecover0_NoGas[fork_Prague-state_test-]": {
        "env": {
            "currentCoinbase": "0x2adc25665018aa1fe0e6bc666dac8fc2697ff9ba",
            "currentGasLimit": "0x989680",
            "currentNumber": "0x01",
            "currentTimestamp": "0x03e8",
            "currentRandom": "0x0000000000000000000000000000000000000000000000000000000000020000",
            "currentDifficulty": "0x00",
            "currentBaseFee": "0x0a",
            "currentExcessBlobGas": "0x00"
        },
        "pre": {
            "0x03766c4f90d7def35b48b7407e87e8c169812046": {
                "nonce": "0x00",
                "balance": "0x0de0b6b3a7640000",
                "code": "0x",
                "storage": {}
            },
            "0x5f896b92ac89aaebd21752c58c84581c66ad1511": {
                "nonce": "0x00",
                "balance": "0x01312d00",
                "code": "0x7f18c547e4f7b0f325ad1e56f57e26c745b09a3e503d86e00e5255ff7f715d3d1c600052601c6020527f73b1693892219d736caba55bdb67216e485557ea6b6af75f37096c9aa6a5a75f6040527feeb940b1d03b21e36b0e47e79769f095fe2ab855bd91e3a38756b7d75a9c45496060526020608060806000600160016000f160025560a060020a60805106600055600054321460015500",
                "storage": {
                    "0x00": "0x0c",
                    "0x01": "0x0c",
                    "0x02": "0x0c"
                }
            }
        },
        "transaction": {
            "nonce": "0x00",
            "gasPrice": "0x0a",
            "gasLimit": [
                "0x0592a8"
            ],
            "to": "0x5f896b92ac89aaebd21752c58c84581c66ad1511",
            "value": [
                "0x0186a0"
            ],
            "data": [
                "0x"
            ],
            "sender": "0x03766c4f90d7def35b48b7407e87e8c169812046",
            "secretKey": "0xe039763e96f0004005778bf15f896b92ac89aaebd21752c58c84581c66ad1511"
        },
        "post": {
            "Prague": [
                {
                    "hash": "0xe2347718b668ee9388c20eee4c2e9ad5a62c77cb5390b6252a51c21f7d059189",
                    "logs": "0x1dcc4de8dec75d7aab85b567b6ccd41ad312451b948a7413f0a142fd40d49347",
                    "txbytes": "0xf863800a830592a8945f896b92ac89aaebd21752c58c84581c66ad1511830186a08025a0f50e07bf3c5ae039df3fbd0696bb21854b613f0e7a84c74bf017b5167ee1bd3aa05a8f37445f479bdd32324ad75583a06e98dced34dc6d59acdcfd70a990c4e5cb",
                    "indexes": {
                        "data": 0,
                        "gas": 0,
                        "value": 0
                    },
                    "state": {
                        "0x03766c4f90d7def35b48b7407e87e8c169812046": {
                            "nonce": "0x01",
                            "balance": "0x0de0b6b3a759e26e",
                            "code": "0x",
                            "storage": {}
                        },
                        "0x5f896b92ac89aaebd21752c58c84581c66ad1511": {
                            "nonce": "0x00",
                            "balance": "0x0132b3a0",
                            "code": "0x7f18c547e4f7b0f325ad1e56f57e26c745b09a3e503d86e00e5255ff7f715d3d1c600052601c6020527f73b1693892219d736caba55bdb67216e485557ea6b6af75f37096c9aa6a5a75f6040527feeb940b1d03b21e36b0e47e79769f095fe2ab855bd91e3a38756b7d75a9c45496060526020608060806000600160016000f160025560a060020a60805106600055600054321460015500",
                            "storage": {}
                        }
                    }
                }
            ]
        },
        "config": {
            "blobSchedule": {
                "Cancun": {
                    "target": "0x03",
                    "max": "0x06",
                    "baseFeeUpdateFraction": "0x32f0ed"
                },
                "Prague": {
                    "target": "0x06",
                    "max": "0x09",
                    "baseFeeUpdateFraction": "0x4c6964"
                }
            },
            "chainid": "0x01"
        },
        "_info": {
            "hash": "0x55d81311bcffc7d9547315d9c3a7958e53e2bffb798738cbc807de349d72f66a",
            "comment": "`execution-spec-tests` generated test",
            "filling-transition-tool": "ethereum-spec-evm-resolver 0.0.5",
            "description": "No description available - add a docstring to the python test class or function.",
            "url": "",
            "fixture-format": "state_test",
            "eels-resolution": {
                "git-url": "https://github.com/marioevz/execution-specs.git",
                "branch": "forks/bpo1",
                "commit": "3387e5f4aedfe99becfdc39b444d6371e25e0924"
            }
        }
    }
}