{
    "tests/static/state_tests/stPreCompiledContracts2/CallSha256_3_postfix0Filler.json::CallSha256_3_postfix0[fork_Cancun-state_test-]": {
        "env": {
            "currentCoinbase": "0x2adc25665018aa1fe0e6bc666dac8fc2697ff9ba",
            "currentGasLimit": "0x989680",
            "currentNumber": "0x01",
            "currentTimestamp": "0x03e8",
            "currentRandom": "0x0000000000000000000000000000000000000000000000000000000000020000",
            "currentDifficulty": "0x00",
            "currentBaseFee": "0x0a",
            "currentExcessBlobGas": "0x00"
        },
        "pre": {
            "0xd5d2d031a3a66b2a8cdd8f378c765eee7dae45f6": {
                "nonce": "0x00",
                "balance": "0x0de0b6b3a7640000",
                "code": "0x",
                "storage": {}
            },
            "0x551a00d341dd833ebe74501fb4aa97caa010f5c5": {
                "nonce": "0x00",
                "balance": "0x01312d00",
                "code": "0x65f34578907f006000526020600060256000600060026101f4f160025560005160005500",
                "storage": {}
            }
        },
        "transaction": {
            "nonce": "0x00",
            "gasPrice": "0x0a",
            "gasLimit": [
                "0x0592a8"
            ],
            "to": "0x551a00d341dd833ebe74501fb4aa97caa010f5c5",
            "value": [
                "0x0186a0"
            ],
            "data": [
                "0x"
            ],
            "sender": "0xd5d2d031a3a66b2a8cdd8f378c765eee7dae45f6",
            "secretKey": "0xb97e36f6e52b62d3c7ed1885551a00d341dd833ebe74501fb4aa97caa010f5c5"
        },
        "post": {
            "Cancun": [
                {
                    "hash": "0x805ff97636ee4ab0beab0433a36a2a9007b3103d8f205770f8b6367052bd72eb",
                    "logs": "0x1dcc4de8dec75d7aab85b567b6ccd41ad312451b948a7413f0a142fd40d49347",
                    "txbytes": "0xf863800a830592a894551a00d341dd833ebe74501fb4aa97caa010f5c5830186a08025a00cf1245efe3fa8fef8b37a01dbea047b54f0db9ff0e02bf4595a4c9416d43fd1a0624ef588075e8a1e25989fbc054decf2c7659a65ad3509b251cf3b0452c3789b",
                    "indexes": {
                        "data": 0,
                        "gas": 0,
                        "value": 0
                    },
                    "state": {
                        "0xd5d2d031a3a66b2a8cdd8f378c765eee7dae45f6": {
                            "nonce": "0x01",
                            "balance": "0x0de0b6b3a7587d70",
                            "code": "0x",
                            "storage": {}
                        },
                        "0x551a00d341dd833ebe74501fb4aa97caa010f5c5": {
                            "nonce": "0x00",
                            "balance": "0x0132b3a0",
                            "code": "0x65f34578907f006000526020600060256000600060026101f4f160025560005160005500",
                            "storage": {
                                "0x02": "0x01",
                                "0x00": "0x3b745a1c00d035c334f358d007a430e4cf0ae63aa0556fb05529706de546464d"
                            }
                        }
                    }
                }
            ]
        },
        "config": {
            "blobSchedule": {
                "Cancun": {
                    "target": "0x03",
                    "max": "0x06",
                    "baseFeeUpdateFraction": "0x32f0ed"
                }
            },
            "chainid": "0x01"
        },
        "_info": {
            "hash": "0x06c0810b8d174b5a9f20bb6289fb38cfcf49b4aa8a838b70292f93193d52ef21",
            "comment": "`execution-spec-tests` generated test",
            "filling-transition-tool": "ethereum-spec-evm-resolver 0.0.5",
            "description": "No description available - add a docstring to the python test class or function.",
            "url": "",
            "fixture-format": "state_test",
            "eels-resolution": {
                "git-url": "https://github.com/ethereum/execution-specs.git",
                "branch": "forks/bpos",
                "commit": "7aacb2c54111391af5e98c505d5010b5698a770f"
            }
        }
    },
    "tests/static/state_tests/stPreCompiledContracts2/CallSha256_3_postfix0Filler.json::CallSha256_3_postfix0[fork_Osaka-state_test-]": {
        "env": {
            "currentCoinbase": "0x2adc25665018aa1fe0e6bc666dac8fc2697ff9ba",
            "currentGasLimit": "0x989680",
            "currentNumber": "0x01",
            "currentTimestamp": "0x03e8",
            "currentRandom": "0x0000000000000000000000000000000000000000000000000000000000020000",
            "currentDifficulty": "0x00",
            "currentBaseFee": "0x0a",
            "currentExcessBlobGas": "0x00"
        },
        "pre": {
            "0xd5d2d031a3a66b2a8cdd8f378c765eee7dae45f6": {
                "nonce": "0x00",
                "balance": "0x0de0b6b3a7640000",
                "code": "0x",
                "storage": {}
            },
            "0x551a00d341dd833ebe74501fb4aa97caa010f5c5": {
                "nonce": "0x00",
                "balance": "0x01312d00",
                "code": "0x65f34578907f006000526020600060256000600060026101f4f160025560005160005500",
                "storage": {}
            }
        },
        "transaction": {
            "nonce": "0x00",
            "gasPrice": "0x0a",
            "gasLimit": [
                "0x0592a8"
            ],
            "to": "0x551a00d341dd833ebe74501fb4aa97caa010f5c5",
            "value": [
                "0x0186a0"
            ],
            "data": [
                "0x"
            ],
            "sender": "0xd5d2d031a3a66b2a8cdd8f378c765eee7dae45f6",
            "secretKey": "0xb97e36f6e52b62d3c7ed1885551a00d341dd833ebe74501fb4aa97caa010f5c5"
        },
        "post": {
            "Osaka": [
                {
                    "hash": "0x805ff97636ee4ab0beab0433a36a2a9007b3103d8f205770f8b6367052bd72eb",
                    "logs": "0x1dcc4de8dec75d7aab85b567b6ccd41ad312451b948a7413f0a142fd40d49347",
                    "txbytes": "0xf863800a830592a894551a00d341dd833ebe74501fb4aa97caa010f5c5830186a08025a00cf1245efe3fa8fef8b37a01dbea047b54f0db9ff0e02bf4595a4c9416d43fd1a0624ef588075e8a1e25989fbc054decf2c7659a65ad3509b251cf3b0452c3789b",
                    "indexes": {
                        "data": 0,
                        "gas": 0,
                        "value": 0
                    },
                    "state": {
                        "0xd5d2d031a3a66b2a8cdd8f378c765eee7dae45f6": {
                            "nonce": "0x01",
                            "balance": "0x0de0b6b3a7587d70",
                            "code": "0x",
                            "storage": {}
                        },
                        "0x551a00d341dd833ebe74501fb4aa97caa010f5c5": {
                            "nonce": "0x00",
                            "balance": "0x0132b3a0",
                            "code": "0x65f34578907f006000526020600060256000600060026101f4f160025560005160005500",
                            "storage": {
                                "0x02": "0x01",
                                "0x00": "0x3b745a1c00d035c334f358d007a430e4cf0ae63aa0556fb05529706de546464d"
                            }
                        }
                    }
                }
            ]
        },
        "config": {
            "blobSchedule": {
                "Cancun": {
                    "target": "0x03",
                    "max": "0x06",
                    "baseFeeUpdateFraction": "0x32f0ed"
                },
                "Prague": {
                    "target": "0x06",
                    "max": "0x09",
                    "baseFeeUpdateFraction": "0x4c6964"
                },
                "Osaka": {
                    "target": "0x06",
                    "max": "0x09",
                    "baseFeeUpdateFraction": "0x4c6964"
                }
            },
            "chainid": "0x01"
        },
        "_info": {
            "hash": "0x9abd0c3ac4394724399e45b66cb49efbd1dbe473fe8c7605d4a701e0e4b35942",
            "comment": "`execution-spec-tests` generated test",
            "filling-transition-tool": "ethereum-spec-evm-resolver 0.0.5",
            "description": "No description available - add a docstring to the python test class or function.",
            "url": "",
            "fixture-format": "state_test",
            "eels-resolution": {
                "git-url": "https://github.com/ethereum/execution-specs.git",
                "branch": "forks/bpos",
                "commit": "7aacb2c54111391af5e98c505d5010b5698a770f"
            }
        }
    },
    "tests/static/state_tests/stPreCompiledContracts2/CallSha256_3_postfix0Filler.json::CallSha256_3_postfix0[fork_Prague-state_test-]": {
        "env": {
            "currentCoinbase": "0x2adc25665018aa1fe0e6bc666dac8fc2697ff9ba",
            "currentGasLimit": "0x989680",
            "currentNumber": "0x01",
            "currentTimestamp": "0x03e8",
            "currentRandom": "0x0000000000000000000000000000000000000000000000000000000000020000",
            "currentDifficulty": "0x00",
            "currentBaseFee": "0x0a",
            "currentExcessBlobGas": "0x00"
        },
        "pre": {
            "0xd5d2d031a3a66b2a8cdd8f378c765eee7dae45f6": {
                "nonce": "0x00",
                "balance": "0x0de0b6b3a7640000",
                "code": "0x",
                "storage": {}
            },
            "0x551a00d341dd833ebe74501fb4aa97caa010f5c5": {
                "nonce": "0x00",
                "balance": "0x01312d00",
                "code": "0x65f34578907f006000526020600060256000600060026101f4f160025560005160005500",
                "storage": {}
            }
        },
        "transaction": {
            "nonce": "0x00",
            "gasPrice": "0x0a",
            "gasLimit": [
                "0x0592a8"
            ],
            "to": "0x551a00d341dd833ebe74501fb4aa97caa010f5c5",
            "value": [
                "0x0186a0"
            ],
            "data": [
                "0x"
            ],
            "sender": "0xd5d2d031a3a66b2a8cdd8f378c765eee7dae45f6",
            "secretKey": "0xb97e36f6e52b62d3c7ed1885551a00d341dd833ebe74501fb4aa97caa010f5c5"
        },
        "post": {
            "Prague": [
                {
                    "hash": "0x805ff97636ee4ab0beab0433a36a2a9007b3103d8f205770f8b6367052bd72eb",
                    "logs": "0x1dcc4de8dec75d7aab85b567b6ccd41ad312451b948a7413f0a142fd40d49347",
                    "txbytes": "0xf863800a830592a894551a00d341dd833ebe74501fb4aa97caa010f5c5830186a08025a00cf1245efe3fa8fef8b37a01dbea047b54f0db9ff0e02bf4595a4c9416d43fd1a0624ef588075e8a1e25989fbc054decf2c7659a65ad3509b251cf3b0452c3789b",
                    "indexes": {
                        "data": 0,
                        "gas": 0,
                        "value": 0
                    },
                    "state": {
                        "0xd5d2d031a3a66b2a8cdd8f378c765eee7dae45f6": {
                            "nonce": "0x01",
                            "balance": "0x0de0b6b3a7587d70",
                            "code": "0x",
                            "storage": {}
                        },
                        "0x551a00d341dd833ebe74501fb4aa97caa010f5c5": {
                            "nonce": "0x00",
                            "balance": "0x0132b3a0",
                            "code": "0x65f34578907f006000526020600060256000600060026101f4f160025560005160005500",
                            "storage": {
                                "0x02": "0x01",
                                "0x00": "0x3b745a1c00d035c334f358d007a430e4cf0ae63aa0556fb05529706de546464d"
                            }
                        }
                    }
                }
            ]
        },
        "config": {
            "blobSchedule": {
                "Cancun": {
                    "target": "0x03",
                    "max": "0x06",
                    "baseFeeUpdateFraction": "0x32f0ed"
                },
                "Prague": {
                    "target": "0x06",
                    "max": "0x09",
                    "baseFeeUpdateFraction": "0x4c6964"
                }
            },
            "chainid": "0x01"
        },
        "_info": {
            "hash": "0xe87aa62d2040970f89112a5e3c35a83cf8ccad29dd04b02fd853473304f2b2b7",
            "comment": "`execution-spec-tests` generated test",
            "filling-transition-tool": "ethereum-spec-evm-resolver 0.0.5",
            "description": "No description available - add a docstring to the python test class or function.",
            "url": "",
            "fixture-format": "state_test",
            "eels-resolution": {
                "git-url": "https://github.com/ethereum/execution-specs.git",
                "branch": "forks/bpos",
                "commit": "7aacb2c54111391af5e98c505d5010b5698a770f"
            }
        }
    }
}