{
    "tests/static/state_tests/stPreCompiledContracts2/CallEcrecover0_Gas2999Filler.json::CallEcrecover0_Gas2999[fork_Cancun-state_test-]": {
        "env": {
            "currentCoinbase": "0x2adc25665018aa1fe0e6bc666dac8fc2697ff9ba",
            "currentGasLimit": "0x989680",
            "currentNumber": "0x01",
            "currentTimestamp": "0x03e8",
            "currentRandom": "0x0000000000000000000000000000000000000000000000000000000000020000",
            "currentDifficulty": "0x00",
            "currentBaseFee": "0x0a",
            "currentExcessBlobGas": "0x00"
        },
        "pre": {
            "0x284745153a424b939bb0e9942aa0a4274380df97": {
                "nonce": "0x00",
                "balance": "0x0de0b6b3a7640000",
                "code": "0x",
                "storage": {}
            },
            "0xa804fdacd5ac2f49c9337bb7ade739ec5b2f992f": {
                "nonce": "0x00",
                "balance": "0x01312d00",
                "code": "0x7f18c547e4f7b0f325ad1e56f57e26c745b09a3e503d86e00e5255ff7f715d3d1c600052601c6020527f73b1693892219d736caba55bdb67216e485557ea6b6af75f37096c9aa6a5a75f6040527feeb940b1d03b21e36b0e47e79769f095fe2ab855bd91e3a38756b7d75a9c4549606052602060806080600060006001610bb7f160025560a060020a60805106600055600054321460015500",
                "storage": {}
            }
        },
        "transaction": {
            "nonce": "0x00",
            "gasPrice": "0x0a",
            "gasLimit": [
                "0x0592a8"
            ],
            "to": "0xa804fdacd5ac2f49c9337bb7ade739ec5b2f992f",
            "value": [
                "0x0186a0"
            ],
            "data": [
                "0x"
            ],
            "sender": "0x284745153a424b939bb0e9942aa0a4274380df97",
            "secretKey": "0x915dceaff4259b7a762aa7cca804fdacd5ac2f49c9337bb7ade739ec5b2f992f"
        },
        "post": {
            "Cancun": [
                {
                    "hash": "0x2c6394cf2f4e7931b36e0e211a416f4ecdb32dffd36dae176e2eae831ecab542",
                    "logs": "0x1dcc4de8dec75d7aab85b567b6ccd41ad312451b948a7413f0a142fd40d49347",
                    "txbytes": "0xf863800a830592a894a804fdacd5ac2f49c9337bb7ade739ec5b2f992f830186a08026a09e6f031302fc8a233078aef9035a659d84cf1d445d4be7a266fb821aa8878f41a062d76f2ed5d37fb57528a8d1e52d07259b200addeb96cca9547162c49846840a",
                    "indexes": {
                        "data": 0,
                        "gas": 0,
                        "value": 0
                    },
                    "state": {
                        "0x284745153a424b939bb0e9942aa0a4274380df97": {
                            "nonce": "0x01",
                            "balance": "0x0de0b6b3a75dbfce",
                            "code": "0x",
                            "storage": {}
                        },
                        "0xa804fdacd5ac2f49c9337bb7ade739ec5b2f992f": {
                            "nonce": "0x00",
                            "balance": "0x0132b3a0",
                            "code": "0x7f18c547e4f7b0f325ad1e56f57e26c745b09a3e503d86e00e5255ff7f715d3d1c600052601c6020527f73b1693892219d736caba55bdb67216e485557ea6b6af75f37096c9aa6a5a75f6040527feeb940b1d03b21e36b0e47e79769f095fe2ab855bd91e3a38756b7d75a9c4549606052602060806080600060006001610bb7f160025560a060020a60805106600055600054321460015500",
                            "storage": {}
                        }
                    }
                }
            ]
        },
        "config": {
            "blobSchedule": {
                "Cancun": {
                    "target": "0x03",
                    "max": "0x06",
                    "baseFeeUpdateFraction": "0x32f0ed"
                }
            },
            "chainid": "0x01"
        },
        "_info": {
            "hash": "0x1fed9257493149c9cfc890e0b6b5f36db81bcac6b3df9accb0897cd850bc3375",
            "comment": "`execution-specs` generated test",
            "filling-transition-tool": "2.18.0rc6",
            "description": "No description available - add a docstring to the python test class or function.",
            "url": "",
            "fixture-format": "state_test"
        }
    },
    "tests/static/state_tests/stPreCompiledContracts2/CallEcrecover0_Gas2999Filler.json::CallEcrecover0_Gas2999[fork_Osaka-state_test-]": {
        "env": {
            "currentCoinbase": "0x2adc25665018aa1fe0e6bc666dac8fc2697ff9ba",
            "currentGasLimit": "0x989680",
            "currentNumber": "0x01",
            "currentTimestamp": "0x03e8",
            "currentRandom": "0x0000000000000000000000000000000000000000000000000000000000020000",
            "currentDifficulty": "0x00",
            "currentBaseFee": "0x0a",
            "currentExcessBlobGas": "0x00"
        },
        "pre": {
            "0x284745153a424b939bb0e9942aa0a4274380df97": {
                "nonce": "0x00",
                "balance": "0x0de0b6b3a7640000",
                "code": "0x",
                "storage": {}
            },
            "0xa804fdacd5ac2f49c9337bb7ade739ec5b2f992f": {
                "nonce": "0x00",
                "balance": "0x01312d00",
                "code": "0x7f18c547e4f7b0f325ad1e56f57e26c745b09a3e503d86e00e5255ff7f715d3d1c600052601c6020527f73b1693892219d736caba55bdb67216e485557ea6b6af75f37096c9aa6a5a75f6040527feeb940b1d03b21e36b0e47e79769f095fe2ab855bd91e3a38756b7d75a9c4549606052602060806080600060006001610bb7f160025560a060020a60805106600055600054321460015500",
                "storage": {}
            }
        },
        "transaction": {
            "nonce": "0x00",
            "gasPrice": "0x0a",
            "gasLimit": [
                "0x0592a8"
            ],
            "to": "0xa804fdacd5ac2f49c9337bb7ade739ec5b2f992f",
            "value": [
                "0x0186a0"
            ],
            "data": [
                "0x"
            ],
            "sender": "0x284745153a424b939bb0e9942aa0a4274380df97",
            "secretKey": "0x915dceaff4259b7a762aa7cca804fdacd5ac2f49c9337bb7ade739ec5b2f992f"
        },
        "post": {
            "Osaka": [
                {
                    "hash": "0x2c6394cf2f4e7931b36e0e211a416f4ecdb32dffd36dae176e2eae831ecab542",
                    "logs": "0x1dcc4de8dec75d7aab85b567b6ccd41ad312451b948a7413f0a142fd40d49347",
                    "txbytes": "0xf863800a830592a894a804fdacd5ac2f49c9337bb7ade739ec5b2f992f830186a08026a09e6f031302fc8a233078aef9035a659d84cf1d445d4be7a266fb821aa8878f41a062d76f2ed5d37fb57528a8d1e52d07259b200addeb96cca9547162c49846840a",
                    "indexes": {
                        "data": 0,
                        "gas": 0,
                        "value": 0
                    },
                    "state": {
                        "0x284745153a424b939bb0e9942aa0a4274380df97": {
                            "nonce": "0x01",
                            "balance": "0x0de0b6b3a75dbfce",
                            "code": "0x",
                            "storage": {}
                        },
                        "0xa804fdacd5ac2f49c9337bb7ade739ec5b2f992f": {
                            "nonce": "0x00",
                            "balance": "0x0132b3a0",
                            "code": "0x7f18c547e4f7b0f325ad1e56f57e26c745b09a3e503d86e00e5255ff7f715d3d1c600052601c6020527f73b1693892219d736caba55bdb67216e485557ea6b6af75f37096c9aa6a5a75f6040527feeb940b1d03b21e36b0e47e79769f095fe2ab855bd91e3a38756b7d75a9c4549606052602060806080600060006001610bb7f160025560a060020a60805106600055600054321460015500",
                            "storage": {}
                        }
                    }
                }
            ]
        },
        "config": {
            "blobSchedule": {
                "Cancun": {
                    "target": "0x03",
                    "max": "0x06",
                    "baseFeeUpdateFraction": "0x32f0ed"
                },
                "Prague": {
                    "target": "0x06",
                    "max": "0x09",
                    "baseFeeUpdateFraction": "0x4c6964"
                },
                "Osaka": {
                    "target": "0x06",
                    "max": "0x09",
                    "baseFeeUpdateFraction": "0x4c6964"
                }
            },
            "chainid": "0x01"
        },
        "_info": {
            "hash": "0x835b94894c792294b817c443aa33cdc2d7580d914a75d0d5462e41910f023ae6",
            "comment": "`execution-specs` generated test",
            "filling-transition-tool": "2.18.0rc6",
            "description": "No description available - add a docstring to the python test class or function.",
            "url": "",
            "fixture-format": "state_test"
        }
    },
    "tests/static/state_tests/stPreCompiledContracts2/CallEcrecover0_Gas2999Filler.json::CallEcrecover0_Gas2999[fork_Prague-state_test-]": {
        "env": {
            "currentCoinbase": "0x2adc25665018aa1fe0e6bc666dac8fc2697ff9ba",
            "currentGasLimit": "0x989680",
            "currentNumber": "0x01",
            "currentTimestamp": "0x03e8",
            "currentRandom": "0x0000000000000000000000000000000000000000000000000000000000020000",
            "currentDifficulty": "0x00",
            "currentBaseFee": "0x0a",
            "currentExcessBlobGas": "0x00"
        },
        "pre": {
            "0x284745153a424b939bb0e9942aa0a4274380df97": {
                "nonce": "0x00",
                "balance": "0x0de0b6b3a7640000",
                "code": "0x",
                "storage": {}
            },
            "0xa804fdacd5ac2f49c9337bb7ade739ec5b2f992f": {
                "nonce": "0x00",
                "balance": "0x01312d00",
                "code": "0x7f18c547e4f7b0f325ad1e56f57e26c745b09a3e503d86e00e5255ff7f715d3d1c600052601c6020527f73b1693892219d736caba55bdb67216e485557ea6b6af75f37096c9aa6a5a75f6040527feeb940b1d03b21e36b0e47e79769f095fe2ab855bd91e3a38756b7d75a9c4549606052602060806080600060006001610bb7f160025560a060020a60805106600055600054321460015500",
                "storage": {}
            }
        },
        "transaction": {
            "nonce": "0x00",
            "gasPrice": "0x0a",
            "gasLimit": [
                "0x0592a8"
            ],
            "to": "0xa804fdacd5ac2f49c9337bb7ade739ec5b2f992f",
            "value": [
                "0x0186a0"
            ],
            "data": [
                "0x"
            ],
            "sender": "0x284745153a424b939bb0e9942aa0a4274380df97",
            "secretKey": "0x915dceaff4259b7a762aa7cca804fdacd5ac2f49c9337bb7ade739ec5b2f992f"
        },
        "post": {
            "Prague": [
                {
                    "hash": "0x2c6394cf2f4e7931b36e0e211a416f4ecdb32dffd36dae176e2eae831ecab542",
                    "logs": "0x1dcc4de8dec75d7aab85b567b6ccd41ad312451b948a7413f0a142fd40d49347",
                    "txbytes": "0xf863800a830592a894a804fdacd5ac2f49c9337bb7ade739ec5b2f992f830186a08026a09e6f031302fc8a233078aef9035a659d84cf1d445d4be7a266fb821aa8878f41a062d76f2ed5d37fb57528a8d1e52d07259b200addeb96cca9547162c49846840a",
                    "indexes": {
                        "data": 0,
                        "gas": 0,
                        "value": 0
                    },
                    "state": {
                        "0x284745153a424b939bb0e9942aa0a4274380df97": {
                            "nonce": "0x01",
                            "balance": "0x0de0b6b3a75dbfce",
                            "code": "0x",
                            "storage": {}
                        },
                        "0xa804fdacd5ac2f49c9337bb7ade739ec5b2f992f": {
                            "nonce": "0x00",
                            "balance": "0x0132b3a0",
                            "code": "0x7f18c547e4f7b0f325ad1e56f57e26c745b09a3e503d86e00e5255ff7f715d3d1c600052601c6020527f73b1693892219d736caba55bdb67216e485557ea6b6af75f37096c9aa6a5a75f6040527feeb940b1d03b21e36b0e47e79769f095fe2ab855bd91e3a38756b7d75a9c4549606052602060806080600060006001610bb7f160025560a060020a60805106600055600054321460015500",
                            "storage": {}
                        }
                    }
                }
            ]
        },
        "config": {
            "blobSchedule": {
                "Cancun": {
                    "target": "0x03",
                    "max": "0x06",
                    "baseFeeUpdateFraction": "0x32f0ed"
                },
                "Prague": {
                    "target": "0x06",
                    "max": "0x09",
                    "baseFeeUpdateFraction": "0x4c6964"
                }
            },
            "chainid": "0x01"
        },
        "_info": {
            "hash": "0x6b5c524917c00b455ce22dcd518e0ef7f7b0fdc094fe0639853fde4e0cdce248",
            "comment": "`execution-specs` generated test",
            "filling-transition-tool": "2.18.0rc6",
            "description": "No description available - add a docstring to the python test class or function.",
            "url": "",
            "fixture-format": "state_test"
        }
    }
}