{
    "tests/static/state_tests/stPreCompiledContracts2/CallEcrecoverH_prefixed0Filler.json::CallEcrecoverH_prefixed0[fork_Cancun-state_test-]": {
        "env": {
            "currentCoinbase": "0x2adc25665018aa1fe0e6bc666dac8fc2697ff9ba",
            "currentGasLimit": "0x989680",
            "currentNumber": "0x01",
            "currentTimestamp": "0x03e8",
            "currentRandom": "0x0000000000000000000000000000000000000000000000000000000000020000",
            "currentDifficulty": "0x00",
            "currentBaseFee": "0x0a",
            "currentExcessBlobGas": "0x00"
        },
        "pre": {
            "0x43826273492f011bd5fa26647b6137c784bff8c2": {
                "nonce": "0x00",
                "balance": "0x0de0b6b3a7640000",
                "code": "0x",
                "storage": {}
            },
            "0xc26eed81bf54dba6d858ee79b87d2a429eb152b4": {
                "nonce": "0x00",
                "balance": "0x01312d00",
                "code": "0x7ec547e4f7b0f325ad1e56f57e26c745b09a3e503d86e00e5255ff7f715d3d1c600052601c6020527f73b1693892219d736caba55bdb67216e485557ea6b6af75f37096c9aa6a5a75f6040527feeb940b1d03b21e36b0e47e79769f095fe2ab855bd91e3a38756b7d75a9c4549606052602060806080600060006001620493e0f160025560a060020a60805106600055600054321460015500",
                "storage": {}
            }
        },
        "transaction": {
            "nonce": "0x00",
            "gasPrice": "0x0a",
            "gasLimit": [
                "0x37ba90"
            ],
            "to": "0xc26eed81bf54dba6d858ee79b87d2a429eb152b4",
            "value": [
                "0x0186a0"
            ],
            "data": [
                "0x"
            ],
            "sender": "0x43826273492f011bd5fa26647b6137c784bff8c2",
            "secretKey": "0xe652f2dabe04b62c09d7f065c26eed81bf54dba6d858ee79b87d2a429eb152b4"
        },
        "post": {
            "Cancun": [
                {
                    "hash": "0x483f22dc4d22c0ecedae593ff17f947e4e69ddd1b4205257e61c34d414189b8f",
                    "logs": "0x1dcc4de8dec75d7aab85b567b6ccd41ad312451b948a7413f0a142fd40d49347",
                    "txbytes": "0xf863800a8337ba9094c26eed81bf54dba6d858ee79b87d2a429eb152b4830186a08025a0e6b551533cdbf1677b8c727607abc5f2420fe243f582cce8bba47a42092c9776a061d6ce9c5aec431dd3a892a2bd29c3be6e152a4905237da3b7b4c03fa0d41805",
                    "indexes": {
                        "data": 0,
                        "gas": 0,
                        "value": 0
                    },
                    "state": {
                        "0x43826273492f011bd5fa26647b6137c784bff8c2": {
                            "nonce": "0x01",
                            "balance": "0x0de0b6b3a757ad14",
                            "code": "0x",
                            "storage": {}
                        },
                        "0xc26eed81bf54dba6d858ee79b87d2a429eb152b4": {
                            "nonce": "0x00",
                            "balance": "0x0132b3a0",
                            "code": "0x7ec547e4f7b0f325ad1e56f57e26c745b09a3e503d86e00e5255ff7f715d3d1c600052601c6020527f73b1693892219d736caba55bdb67216e485557ea6b6af75f37096c9aa6a5a75f6040527feeb940b1d03b21e36b0e47e79769f095fe2ab855bd91e3a38756b7d75a9c4549606052602060806080600060006001620493e0f160025560a060020a60805106600055600054321460015500",
                            "storage": {
                                "0x02": "0x01",
                                "0x00": "0xa0b29af6a56d6cfef6415cb195ccbe540e006d0a"
                            }
                        }
                    }
                }
            ]
        },
        "config": {
            "blobSchedule": {
                "Cancun": {
                    "target": "0x03",
                    "max": "0x06",
                    "baseFeeUpdateFraction": "0x32f0ed"
                }
            },
            "chainid": "0x01"
        },
        "_info": {
            "hash": "0x7b3bd03ebc736dbf43a11fed12b2fdd81ee0c9e75757d6cb3e1be73687ae44fb",
            "comment": "`execution-spec-tests` generated test",
            "filling-transition-tool": "ethereum-spec-evm-resolver 0.0.5",
            "description": "No description available - add a docstring to the python test class or function.",
            "url": "",
            "fixture-format": "state_test",
            "eels-resolution": {
                "git-url": "https://github.com/ethereum/execution-specs.git",
                "branch": "forks/bpos",
                "commit": "7aacb2c54111391af5e98c505d5010b5698a770f"
            }
        }
    },
    "tests/static/state_tests/stPreCompiledContracts2/CallEcrecoverH_prefixed0Filler.json::CallEcrecoverH_prefixed0[fork_Osaka-state_test-]": {
        "env": {
            "currentCoinbase": "0x2adc25665018aa1fe0e6bc666dac8fc2697ff9ba",
            "currentGasLimit": "0x989680",
            "currentNumber": "0x01",
            "currentTimestamp": "0x03e8",
            "currentRandom": "0x0000000000000000000000000000000000000000000000000000000000020000",
            "currentDifficulty": "0x00",
            "currentBaseFee": "0x0a",
            "currentExcessBlobGas": "0x00"
        },
        "pre": {
            "0x43826273492f011bd5fa26647b6137c784bff8c2": {
                "nonce": "0x00",
                "balance": "0x0de0b6b3a7640000",
                "code": "0x",
                "storage": {}
            },
            "0xc26eed81bf54dba6d858ee79b87d2a429eb152b4": {
                "nonce": "0x00",
                "balance": "0x01312d00",
                "code": "0x7ec547e4f7b0f325ad1e56f57e26c745b09a3e503d86e00e5255ff7f715d3d1c600052601c6020527f73b1693892219d736caba55bdb67216e485557ea6b6af75f37096c9aa6a5a75f6040527feeb940b1d03b21e36b0e47e79769f095fe2ab855bd91e3a38756b7d75a9c4549606052602060806080600060006001620493e0f160025560a060020a60805106600055600054321460015500",
                "storage": {}
            }
        },
        "transaction": {
            "nonce": "0x00",
            "gasPrice": "0x0a",
            "gasLimit": [
                "0x37ba90"
            ],
            "to": "0xc26eed81bf54dba6d858ee79b87d2a429eb152b4",
            "value": [
                "0x0186a0"
            ],
            "data": [
                "0x"
            ],
            "sender": "0x43826273492f011bd5fa26647b6137c784bff8c2",
            "secretKey": "0xe652f2dabe04b62c09d7f065c26eed81bf54dba6d858ee79b87d2a429eb152b4"
        },
        "post": {
            "Osaka": [
                {
                    "hash": "0x483f22dc4d22c0ecedae593ff17f947e4e69ddd1b4205257e61c34d414189b8f",
                    "logs": "0x1dcc4de8dec75d7aab85b567b6ccd41ad312451b948a7413f0a142fd40d49347",
                    "txbytes": "0xf863800a8337ba9094c26eed81bf54dba6d858ee79b87d2a429eb152b4830186a08025a0e6b551533cdbf1677b8c727607abc5f2420fe243f582cce8bba47a42092c9776a061d6ce9c5aec431dd3a892a2bd29c3be6e152a4905237da3b7b4c03fa0d41805",
                    "indexes": {
                        "data": 0,
                        "gas": 0,
                        "value": 0
                    },
                    "state": {
                        "0x43826273492f011bd5fa26647b6137c784bff8c2": {
                            "nonce": "0x01",
                            "balance": "0x0de0b6b3a757ad14",
                            "code": "0x",
                            "storage": {}
                        },
                        "0xc26eed81bf54dba6d858ee79b87d2a429eb152b4": {
                            "nonce": "0x00",
                            "balance": "0x0132b3a0",
                            "code": "0x7ec547e4f7b0f325ad1e56f57e26c745b09a3e503d86e00e5255ff7f715d3d1c600052601c6020527f73b1693892219d736caba55bdb67216e485557ea6b6af75f37096c9aa6a5a75f6040527feeb940b1d03b21e36b0e47e79769f095fe2ab855bd91e3a38756b7d75a9c4549606052602060806080600060006001620493e0f160025560a060020a60805106600055600054321460015500",
                            "storage": {
                                "0x02": "0x01",
                                "0x00": "0xa0b29af6a56d6cfef6415cb195ccbe540e006d0a"
                            }
                        }
                    }
                }
            ]
        },
        "config": {
            "blobSchedule": {
                "Cancun": {
                    "target": "0x03",
                    "max": "0x06",
                    "baseFeeUpdateFraction": "0x32f0ed"
                },
                "Prague": {
                    "target": "0x06",
                    "max": "0x09",
                    "baseFeeUpdateFraction": "0x4c6964"
                },
                "Osaka": {
                    "target": "0x06",
                    "max": "0x09",
                    "baseFeeUpdateFraction": "0x4c6964"
                }
            },
            "chainid": "0x01"
        },
        "_info": {
            "hash": "0x335ea1ee40b22951dff4f7510409c8090ed7b8d7de8bd86675df7026f2292340",
            "comment": "`execution-spec-tests` generated test",
            "filling-transition-tool": "ethereum-spec-evm-resolver 0.0.5",
            "description": "No description available - add a docstring to the python test class or function.",
            "url": "",
            "fixture-format": "state_test",
            "eels-resolution": {
                "git-url": "https://github.com/ethereum/execution-specs.git",
                "branch": "forks/bpos",
                "commit": "7aacb2c54111391af5e98c505d5010b5698a770f"
            }
        }
    },
    "tests/static/state_tests/stPreCompiledContracts2/CallEcrecoverH_prefixed0Filler.json::CallEcrecoverH_prefixed0[fork_Prague-state_test-]": {
        "env": {
            "currentCoinbase": "0x2adc25665018aa1fe0e6bc666dac8fc2697ff9ba",
            "currentGasLimit": "0x989680",
            "currentNumber": "0x01",
            "currentTimestamp": "0x03e8",
            "currentRandom": "0x0000000000000000000000000000000000000000000000000000000000020000",
            "currentDifficulty": "0x00",
            "currentBaseFee": "0x0a",
            "currentExcessBlobGas": "0x00"
        },
        "pre": {
            "0x43826273492f011bd5fa26647b6137c784bff8c2": {
                "nonce": "0x00",
                "balance": "0x0de0b6b3a7640000",
                "code": "0x",
                "storage": {}
            },
            "0xc26eed81bf54dba6d858ee79b87d2a429eb152b4": {
                "nonce": "0x00",
                "balance": "0x01312d00",
                "code": "0x7ec547e4f7b0f325ad1e56f57e26c745b09a3e503d86e00e5255ff7f715d3d1c600052601c6020527f73b1693892219d736caba55bdb67216e485557ea6b6af75f37096c9aa6a5a75f6040527feeb940b1d03b21e36b0e47e79769f095fe2ab855bd91e3a38756b7d75a9c4549606052602060806080600060006001620493e0f160025560a060020a60805106600055600054321460015500",
                "storage": {}
            }
        },
        "transaction": {
            "nonce": "0x00",
            "gasPrice": "0x0a",
            "gasLimit": [
                "0x37ba90"
            ],
            "to": "0xc26eed81bf54dba6d858ee79b87d2a429eb152b4",
            "value": [
                "0x0186a0"
            ],
            "data": [
                "0x"
            ],
            "sender": "0x43826273492f011bd5fa26647b6137c784bff8c2",
            "secretKey": "0xe652f2dabe04b62c09d7f065c26eed81bf54dba6d858ee79b87d2a429eb152b4"
        },
        "post": {
            "Prague": [
                {
                    "hash": "0x483f22dc4d22c0ecedae593ff17f947e4e69ddd1b4205257e61c34d414189b8f",
                    "logs": "0x1dcc4de8dec75d7aab85b567b6ccd41ad312451b948a7413f0a142fd40d49347",
                    "txbytes": "0xf863800a8337ba9094c26eed81bf54dba6d858ee79b87d2a429eb152b4830186a08025a0e6b551533cdbf1677b8c727607abc5f2420fe243f582cce8bba47a42092c9776a061d6ce9c5aec431dd3a892a2bd29c3be6e152a4905237da3b7b4c03fa0d41805",
                    "indexes": {
                        "data": 0,
                        "gas": 0,
                        "value": 0
                    },
                    "state": {
                        "0x43826273492f011bd5fa26647b6137c784bff8c2": {
                            "nonce": "0x01",
                            "balance": "0x0de0b6b3a757ad14",
                            "code": "0x",
                            "storage": {}
                        },
                        "0xc26eed81bf54dba6d858ee79b87d2a429eb152b4": {
                            "nonce": "0x00",
                            "balance": "0x0132b3a0",
                            "code": "0x7ec547e4f7b0f325ad1e56f57e26c745b09a3e503d86e00e5255ff7f715d3d1c600052601c6020527f73b1693892219d736caba55bdb67216e485557ea6b6af75f37096c9aa6a5a75f6040527feeb940b1d03b21e36b0e47e79769f095fe2ab855bd91e3a38756b7d75a9c4549606052602060806080600060006001620493e0f160025560a060020a60805106600055600054321460015500",
                            "storage": {
                                "0x02": "0x01",
                                "0x00": "0xa0b29af6a56d6cfef6415cb195ccbe540e006d0a"
                            }
                        }
                    }
                }
            ]
        },
        "config": {
            "blobSchedule": {
                "Cancun": {
                    "target": "0x03",
                    "max": "0x06",
                    "baseFeeUpdateFraction": "0x32f0ed"
                },
                "Prague": {
                    "target": "0x06",
                    "max": "0x09",
                    "baseFeeUpdateFraction": "0x4c6964"
                }
            },
            "chainid": "0x01"
        },
        "_info": {
            "hash": "0x5c387acc5bc2cce4402ca8e851a9008e9970e20fc1695b23c05bd04e39ebfeb4",
            "comment": "`execution-spec-tests` generated test",
            "filling-transition-tool": "ethereum-spec-evm-resolver 0.0.5",
            "description": "No description available - add a docstring to the python test class or function.",
            "url": "",
            "fixture-format": "state_test",
            "eels-resolution": {
                "git-url": "https://github.com/ethereum/execution-specs.git",
                "branch": "forks/bpos",
                "commit": "7aacb2c54111391af5e98c505d5010b5698a770f"
            }
        }
    }
}