{
    "tests/static/state_tests/stPreCompiledContracts2/CallSha256_0Filler.json::CallSha256_0[fork_Cancun-state_test-]": {
        "env": {
            "currentCoinbase": "0x2adc25665018aa1fe0e6bc666dac8fc2697ff9ba",
            "currentGasLimit": "0x989680",
            "currentNumber": "0x01",
            "currentTimestamp": "0x03e8",
            "currentRandom": "0x0000000000000000000000000000000000000000000000000000000000020000",
            "currentDifficulty": "0x00",
            "currentBaseFee": "0x0a",
            "currentExcessBlobGas": "0x00"
        },
        "pre": {
            "0xf6cfadff233324047727ab6e7f89f64534c27a5e": {
                "nonce": "0x00",
                "balance": "0x0de0b6b3a7640000",
                "code": "0x",
                "storage": {}
            },
            "0x740f4a8aee8ead6b2160b51e6dffe52abe8bd032": {
                "nonce": "0x00",
                "balance": "0x01312d00",
                "code": "0x600160005260206000602060006000600260fff1600051600055",
                "storage": {}
            }
        },
        "transaction": {
            "nonce": "0x00",
            "gasPrice": "0x0a",
            "gasLimit": [
                "0x0592a8"
            ],
            "to": "0x740f4a8aee8ead6b2160b51e6dffe52abe8bd032",
            "value": [
                "0x0186a0"
            ],
            "data": [
                "0x"
            ],
            "sender": "0xf6cfadff233324047727ab6e7f89f64534c27a5e",
            "secretKey": "0xf032c07369e6c5a5da288dc4740f4a8aee8ead6b2160b51e6dffe52abe8bd032"
        },
        "post": {
            "Cancun": [
                {
                    "hash": "0xc07c0c7bd343657667cfc06c98e15be5b9769b8f79abc0742ac741e8a79a0c1b",
                    "logs": "0x1dcc4de8dec75d7aab85b567b6ccd41ad312451b948a7413f0a142fd40d49347",
                    "txbytes": "0xf863800a830592a894740f4a8aee8ead6b2160b51e6dffe52abe8bd032830186a08025a0d8be961b78c37755661d9067238d20a07e97f2bbdd06fa56532cfdffbb415964a041707b5097a6a7e56a99cd5a983630921185c9cf78f6979472d454783f54ddfd",
                    "indexes": {
                        "data": 0,
                        "gas": 0,
                        "value": 0
                    },
                    "state": {
                        "0xf6cfadff233324047727ab6e7f89f64534c27a5e": {
                            "nonce": "0x01",
                            "balance": "0x0de0b6b3a75bdd6c",
                            "code": "0x",
                            "storage": {}
                        },
                        "0x740f4a8aee8ead6b2160b51e6dffe52abe8bd032": {
                            "nonce": "0x00",
                            "balance": "0x0132b3a0",
                            "code": "0x600160005260206000602060006000600260fff1600051600055",
                            "storage": {
                                "0x00": "0xec4916dd28fc4c10d78e287ca5d9cc51ee1ae73cbfde08c6b37324cbfaac8bc5"
                            }
                        }
                    }
                }
            ]
        },
        "config": {
            "blobSchedule": {
                "Cancun": {
                    "target": "0x03",
                    "max": "0x06",
                    "baseFeeUpdateFraction": "0x32f0ed"
                }
            },
            "chainid": "0x01"
        },
        "_info": {
            "hash": "0xef00dd18651ee311514b22db058494ec46e3e92ece4b3e893b7dc272677fedf2",
            "comment": "`execution-specs` generated test",
            "filling-transition-tool": "2.18.0rc6",
            "description": "No description available - add a docstring to the python test class or function.",
            "url": "",
            "fixture-format": "state_test"
        }
    },
    "tests/static/state_tests/stPreCompiledContracts2/CallSha256_0Filler.json::CallSha256_0[fork_Osaka-state_test-]": {
        "env": {
            "currentCoinbase": "0x2adc25665018aa1fe0e6bc666dac8fc2697ff9ba",
            "currentGasLimit": "0x989680",
            "currentNumber": "0x01",
            "currentTimestamp": "0x03e8",
            "currentRandom": "0x0000000000000000000000000000000000000000000000000000000000020000",
            "currentDifficulty": "0x00",
            "currentBaseFee": "0x0a",
            "currentExcessBlobGas": "0x00"
        },
        "pre": {
            "0xf6cfadff233324047727ab6e7f89f64534c27a5e": {
                "nonce": "0x00",
                "balance": "0x0de0b6b3a7640000",
                "code": "0x",
                "storage": {}
            },
            "0x740f4a8aee8ead6b2160b51e6dffe52abe8bd032": {
                "nonce": "0x00",
                "balance": "0x01312d00",
                "code": "0x600160005260206000602060006000600260fff1600051600055",
                "storage": {}
            }
        },
        "transaction": {
            "nonce": "0x00",
            "gasPrice": "0x0a",
            "gasLimit": [
                "0x0592a8"
            ],
            "to": "0x740f4a8aee8ead6b2160b51e6dffe52abe8bd032",
            "value": [
                "0x0186a0"
            ],
            "data": [
                "0x"
            ],
            "sender": "0xf6cfadff233324047727ab6e7f89f64534c27a5e",
            "secretKey": "0xf032c07369e6c5a5da288dc4740f4a8aee8ead6b2160b51e6dffe52abe8bd032"
        },
        "post": {
            "Osaka": [
                {
                    "hash": "0xc07c0c7bd343657667cfc06c98e15be5b9769b8f79abc0742ac741e8a79a0c1b",
                    "logs": "0x1dcc4de8dec75d7aab85b567b6ccd41ad312451b948a7413f0a142fd40d49347",
                    "txbytes": "0xf863800a830592a894740f4a8aee8ead6b2160b51e6dffe52abe8bd032830186a08025a0d8be961b78c37755661d9067238d20a07e97f2bbdd06fa56532cfdffbb415964a041707b5097a6a7e56a99cd5a983630921185c9cf78f6979472d454783f54ddfd",
                    "indexes": {
                        "data": 0,
                        "gas": 0,
                        "value": 0
                    },
                    "state": {
                        "0xf6cfadff233324047727ab6e7f89f64534c27a5e": {
                            "nonce": "0x01",
                            "balance": "0x0de0b6b3a75bdd6c",
                            "code": "0x",
                            "storage": {}
                        },
                        "0x740f4a8aee8ead6b2160b51e6dffe52abe8bd032": {
                            "nonce": "0x00",
                            "balance": "0x0132b3a0",
                            "code": "0x600160005260206000602060006000600260fff1600051600055",
                            "storage": {
                                "0x00": "0xec4916dd28fc4c10d78e287ca5d9cc51ee1ae73cbfde08c6b37324cbfaac8bc5"
                            }
                        }
                    }
                }
            ]
        },
        "config": {
            "blobSchedule": {
                "Cancun": {
                    "target": "0x03",
                    "max": "0x06",
                    "baseFeeUpdateFraction": "0x32f0ed"
                },
                "Prague": {
                    "target": "0x06",
                    "max": "0x09",
                    "baseFeeUpdateFraction": "0x4c6964"
                },
                "Osaka": {
                    "target": "0x06",
                    "max": "0x09",
                    "baseFeeUpdateFraction": "0x4c6964"
                }
            },
            "chainid": "0x01"
        },
        "_info": {
            "hash": "0x90e9dc79cc8ce7b474efb38991a36ec2b151fd1ef019bad98a4ef84d809988f7",
            "comment": "`execution-specs` generated test",
            "filling-transition-tool": "2.18.0rc6",
            "description": "No description available - add a docstring to the python test class or function.",
            "url": "",
            "fixture-format": "state_test"
        }
    },
    "tests/static/state_tests/stPreCompiledContracts2/CallSha256_0Filler.json::CallSha256_0[fork_Prague-state_test-]": {
        "env": {
            "currentCoinbase": "0x2adc25665018aa1fe0e6bc666dac8fc2697ff9ba",
            "currentGasLimit": "0x989680",
            "currentNumber": "0x01",
            "currentTimestamp": "0x03e8",
            "currentRandom": "0x0000000000000000000000000000000000000000000000000000000000020000",
            "currentDifficulty": "0x00",
            "currentBaseFee": "0x0a",
            "currentExcessBlobGas": "0x00"
        },
        "pre": {
            "0xf6cfadff233324047727ab6e7f89f64534c27a5e": {
                "nonce": "0x00",
                "balance": "0x0de0b6b3a7640000",
                "code": "0x",
                "storage": {}
            },
            "0x740f4a8aee8ead6b2160b51e6dffe52abe8bd032": {
                "nonce": "0x00",
                "balance": "0x01312d00",
                "code": "0x600160005260206000602060006000600260fff1600051600055",
                "storage": {}
            }
        },
        "transaction": {
            "nonce": "0x00",
            "gasPrice": "0x0a",
            "gasLimit": [
                "0x0592a8"
            ],
            "to": "0x740f4a8aee8ead6b2160b51e6dffe52abe8bd032",
            "value": [
                "0x0186a0"
            ],
            "data": [
                "0x"
            ],
            "sender": "0xf6cfadff233324047727ab6e7f89f64534c27a5e",
            "secretKey": "0xf032c07369e6c5a5da288dc4740f4a8aee8ead6b2160b51e6dffe52abe8bd032"
        },
        "post": {
            "Prague": [
                {
                    "hash": "0xc07c0c7bd343657667cfc06c98e15be5b9769b8f79abc0742ac741e8a79a0c1b",
                    "logs": "0x1dcc4de8dec75d7aab85b567b6ccd41ad312451b948a7413f0a142fd40d49347",
                    "txbytes": "0xf863800a830592a894740f4a8aee8ead6b2160b51e6dffe52abe8bd032830186a08025a0d8be961b78c37755661d9067238d20a07e97f2bbdd06fa56532cfdffbb415964a041707b5097a6a7e56a99cd5a983630921185c9cf78f6979472d454783f54ddfd",
                    "indexes": {
                        "data": 0,
                        "gas": 0,
                        "value": 0
                    },
                    "state": {
                        "0xf6cfadff233324047727ab6e7f89f64534c27a5e": {
                            "nonce": "0x01",
                            "balance": "0x0de0b6b3a75bdd6c",
                            "code": "0x",
                            "storage": {}
                        },
                        "0x740f4a8aee8ead6b2160b51e6dffe52abe8bd032": {
                            "nonce": "0x00",
                            "balance": "0x0132b3a0",
                            "code": "0x600160005260206000602060006000600260fff1600051600055",
                            "storage": {
                                "0x00": "0xec4916dd28fc4c10d78e287ca5d9cc51ee1ae73cbfde08c6b37324cbfaac8bc5"
                            }
                        }
                    }
                }
            ]
        },
        "config": {
            "blobSchedule": {
                "Cancun": {
                    "target": "0x03",
                    "max": "0x06",
                    "baseFeeUpdateFraction": "0x32f0ed"
                },
                "Prague": {
                    "target": "0x06",
                    "max": "0x09",
                    "baseFeeUpdateFraction": "0x4c6964"
                }
            },
            "chainid": "0x01"
        },
        "_info": {
            "hash": "0x299cc8be7a33e32a03b83f7ae176c4c46655a3df257d15dc870e49e6bdaf2e9e",
            "comment": "`execution-specs` generated test",
            "filling-transition-tool": "2.18.0rc6",
            "description": "No description available - add a docstring to the python test class or function.",
            "url": "",
            "fixture-format": "state_test"
        }
    }
}