{
    "tests/static/state_tests/stPreCompiledContracts2/CALLCODERipemd160_5Filler.json::CALLCODERipemd160_5[fork_Cancun-state_test-]": {
        "env": {
            "currentCoinbase": "0x2adc25665018aa1fe0e6bc666dac8fc2697ff9ba",
            "currentGasLimit": "0x05f5e100",
            "currentNumber": "0x01",
            "currentTimestamp": "0x03e8",
            "currentRandom": "0x0000000000000000000000000000000000000000000000000000000000020000",
            "currentDifficulty": "0x00",
            "currentBaseFee": "0x0a",
            "currentExcessBlobGas": "0x00"
        },
        "pre": {
            "0x79d08e7ee35ea512c771cd7d0bfd733b4ad37a10": {
                "nonce": "0x00",
                "balance": "0x0de0b6b3a7640000",
                "code": "0x",
                "storage": {}
            },
            "0xfe81fd07a1f0c0d8569dc8a919a675ec75ad0033": {
                "nonce": "0x00",
                "balance": "0x01312d00",
                "code": "0x7fffffffffffffffffffffffffffffffffffffffffffffffffffffffffffffffff60005260206000620f4240600060006003611770f260025560005160005500",
                "storage": {}
            }
        },
        "transaction": {
            "nonce": "0x00",
            "gasPrice": "0x0a",
            "gasLimit": [
                "0x989680"
            ],
            "to": "0xfe81fd07a1f0c0d8569dc8a919a675ec75ad0033",
            "value": [
                "0x0186a0"
            ],
            "data": [
                "0x"
            ],
            "sender": "0x79d08e7ee35ea512c771cd7d0bfd733b4ad37a10",
            "secretKey": "0x80105c74104865315ec181fafe81fd07a1f0c0d8569dc8a919a675ec75ad0033"
        },
        "post": {
            "Cancun": [
                {
                    "hash": "0x42342ee89927e0b992d2077c2d03d2723ceedb69902ee1e29fbebc5d73205fcb",
                    "logs": "0x1dcc4de8dec75d7aab85b567b6ccd41ad312451b948a7413f0a142fd40d49347",
                    "txbytes": "0xf863800a8398968094fe81fd07a1f0c0d8569dc8a919a675ec75ad0033830186a08026a0c8b577d003dbd3e413788b4bbdf78ab3adad90e51322e9b528ff737e2ad51d58a010fca0fe963fff01d345d287fe1166a721e1baa8a309bfe1a2d7f15d049d0288",
                    "indexes": {
                        "data": 0,
                        "gas": 0,
                        "value": 0
                    },
                    "state": {
                        "0x79d08e7ee35ea512c771cd7d0bfd733b4ad37a10": {
                            "nonce": "0x01",
                            "balance": "0x0de0b6b3a6294808",
                            "code": "0x",
                            "storage": {}
                        },
                        "0xfe81fd07a1f0c0d8569dc8a919a675ec75ad0033": {
                            "nonce": "0x00",
                            "balance": "0x0132b3a0",
                            "code": "0x7fffffffffffffffffffffffffffffffffffffffffffffffffffffffffffffffff60005260206000620f4240600060006003611770f260025560005160005500",
                            "storage": {
                                "0x00": "0xffffffffffffffffffffffffffffffffffffffffffffffffffffffffffffffff"
                            }
                        }
                    }
                }
            ]
        },
        "config": {
            "blobSchedule": {
                "Cancun": {
                    "target": "0x03",
                    "max": "0x06",
                    "baseFeeUpdateFraction": "0x32f0ed"
                }
            },
            "chainid": "0x01"
        },
        "_info": {
            "hash": "0xff1aa05562d3014a5f3f4e9788617e005629e40b46b452fd06d067a5f2228858",
            "comment": "`execution-spec-tests` generated test",
            "filling-transition-tool": "ethereum-spec-evm-resolver 0.0.5",
            "description": "No description available - add a docstring to the python test class or function.",
            "url": "",
            "fixture-format": "state_test",
            "eels-resolution": {
                "git-url": "https://github.com/marioevz/execution-specs.git",
                "branch": "forks/bpo1",
                "commit": "3387e5f4aedfe99becfdc39b444d6371e25e0924"
            }
        }
    },
    "tests/static/state_tests/stPreCompiledContracts2/CALLCODERipemd160_5Filler.json::CALLCODERipemd160_5[fork_Osaka-state_test-]": {
        "env": {
            "currentCoinbase": "0x2adc25665018aa1fe0e6bc666dac8fc2697ff9ba",
            "currentGasLimit": "0x05f5e100",
            "currentNumber": "0x01",
            "currentTimestamp": "0x03e8",
            "currentRandom": "0x0000000000000000000000000000000000000000000000000000000000020000",
            "currentDifficulty": "0x00",
            "currentBaseFee": "0x0a",
            "currentExcessBlobGas": "0x00"
        },
        "pre": {
            "0x79d08e7ee35ea512c771cd7d0bfd733b4ad37a10": {
                "nonce": "0x00",
                "balance": "0x0de0b6b3a7640000",
                "code": "0x",
                "storage": {}
            },
            "0xfe81fd07a1f0c0d8569dc8a919a675ec75ad0033": {
                "nonce": "0x00",
                "balance": "0x01312d00",
                "code": "0x7fffffffffffffffffffffffffffffffffffffffffffffffffffffffffffffffff60005260206000620f4240600060006003611770f260025560005160005500",
                "storage": {}
            }
        },
        "transaction": {
            "nonce": "0x00",
            "gasPrice": "0x0a",
            "gasLimit": [
                "0x989680"
            ],
            "to": "0xfe81fd07a1f0c0d8569dc8a919a675ec75ad0033",
            "value": [
                "0x0186a0"
            ],
            "data": [
                "0x"
            ],
            "sender": "0x79d08e7ee35ea512c771cd7d0bfd733b4ad37a10",
            "secretKey": "0x80105c74104865315ec181fafe81fd07a1f0c0d8569dc8a919a675ec75ad0033"
        },
        "post": {
            "Osaka": [
                {
                    "hash": "0x42342ee89927e0b992d2077c2d03d2723ceedb69902ee1e29fbebc5d73205fcb",
                    "logs": "0x1dcc4de8dec75d7aab85b567b6ccd41ad312451b948a7413f0a142fd40d49347",
                    "txbytes": "0xf863800a8398968094fe81fd07a1f0c0d8569dc8a919a675ec75ad0033830186a08026a0c8b577d003dbd3e413788b4bbdf78ab3adad90e51322e9b528ff737e2ad51d58a010fca0fe963fff01d345d287fe1166a721e1baa8a309bfe1a2d7f15d049d0288",
                    "indexes": {
                        "data": 0,
                        "gas": 0,
                        "value": 0
                    },
                    "state": {
                        "0x79d08e7ee35ea512c771cd7d0bfd733b4ad37a10": {
                            "nonce": "0x01",
                            "balance": "0x0de0b6b3a6294808",
                            "code": "0x",
                            "storage": {}
                        },
                        "0xfe81fd07a1f0c0d8569dc8a919a675ec75ad0033": {
                            "nonce": "0x00",
                            "balance": "0x0132b3a0",
                            "code": "0x7fffffffffffffffffffffffffffffffffffffffffffffffffffffffffffffffff60005260206000620f4240600060006003611770f260025560005160005500",
                            "storage": {
                                "0x00": "0xffffffffffffffffffffffffffffffffffffffffffffffffffffffffffffffff"
                            }
                        }
                    }
                }
            ]
        },
        "config": {
            "blobSchedule": {
                "Cancun": {
                    "target": "0x03",
                    "max": "0x06",
                    "baseFeeUpdateFraction": "0x32f0ed"
                },
                "Prague": {
                    "target": "0x06",
                    "max": "0x09",
                    "baseFeeUpdateFraction": "0x4c6964"
                },
                "Osaka": {
                    "target": "0x06",
                    "max": "0x09",
                    "baseFeeUpdateFraction": "0x4c6964"
                }
            },
            "chainid": "0x01"
        },
        "_info": {
            "hash": "0x130c7f6132da0e0916f1a52d08d40997367668fbb32f8e22bf1ed965d834ddde",
            "comment": "`execution-spec-tests` generated test",
            "filling-transition-tool": "ethereum-spec-evm-resolver 0.0.5",
            "description": "No description available - add a docstring to the python test class or function.",
            "url": "",
            "fixture-format": "state_test",
            "eels-resolution": {
                "git-url": "https://github.com/marioevz/execution-specs.git",
                "branch": "forks/bpo1",
                "commit": "3387e5f4aedfe99becfdc39b444d6371e25e0924"
            }
        }
    },
    "tests/static/state_tests/stPreCompiledContracts2/CALLCODERipemd160_5Filler.json::CALLCODERipemd160_5[fork_Prague-state_test-]": {
        "env": {
            "currentCoinbase": "0x2adc25665018aa1fe0e6bc666dac8fc2697ff9ba",
            "currentGasLimit": "0x05f5e100",
            "currentNumber": "0x01",
            "currentTimestamp": "0x03e8",
            "currentRandom": "0x0000000000000000000000000000000000000000000000000000000000020000",
            "currentDifficulty": "0x00",
            "currentBaseFee": "0x0a",
            "currentExcessBlobGas": "0x00"
        },
        "pre": {
            "0x79d08e7ee35ea512c771cd7d0bfd733b4ad37a10": {
                "nonce": "0x00",
                "balance": "0x0de0b6b3a7640000",
                "code": "0x",
                "storage": {}
            },
            "0xfe81fd07a1f0c0d8569dc8a919a675ec75ad0033": {
                "nonce": "0x00",
                "balance": "0x01312d00",
                "code": "0x7fffffffffffffffffffffffffffffffffffffffffffffffffffffffffffffffff60005260206000620f4240600060006003611770f260025560005160005500",
                "storage": {}
            }
        },
        "transaction": {
            "nonce": "0x00",
            "gasPrice": "0x0a",
            "gasLimit": [
                "0x989680"
            ],
            "to": "0xfe81fd07a1f0c0d8569dc8a919a675ec75ad0033",
            "value": [
                "0x0186a0"
            ],
            "data": [
                "0x"
            ],
            "sender": "0x79d08e7ee35ea512c771cd7d0bfd733b4ad37a10",
            "secretKey": "0x80105c74104865315ec181fafe81fd07a1f0c0d8569dc8a919a675ec75ad0033"
        },
        "post": {
            "Prague": [
                {
                    "hash": "0x42342ee89927e0b992d2077c2d03d2723ceedb69902ee1e29fbebc5d73205fcb",
                    "logs": "0x1dcc4de8dec75d7aab85b567b6ccd41ad312451b948a7413f0a142fd40d49347",
                    "txbytes": "0xf863800a8398968094fe81fd07a1f0c0d8569dc8a919a675ec75ad0033830186a08026a0c8b577d003dbd3e413788b4bbdf78ab3adad90e51322e9b528ff737e2ad51d58a010fca0fe963fff01d345d287fe1166a721e1baa8a309bfe1a2d7f15d049d0288",
                    "indexes": {
                        "data": 0,
                        "gas": 0,
                        "value": 0
                    },
                    "state": {
                        "0x79d08e7ee35ea512c771cd7d0bfd733b4ad37a10": {
                            "nonce": "0x01",
                            "balance": "0x0de0b6b3a6294808",
                            "code": "0x",
                            "storage": {}
                        },
                        "0xfe81fd07a1f0c0d8569dc8a919a675ec75ad0033": {
                            "nonce": "0x00",
                            "balance": "0x0132b3a0",
                            "code": "0x7fffffffffffffffffffffffffffffffffffffffffffffffffffffffffffffffff60005260206000620f4240600060006003611770f260025560005160005500",
                            "storage": {
                                "0x00": "0xffffffffffffffffffffffffffffffffffffffffffffffffffffffffffffffff"
                            }
                        }
                    }
                }
            ]
        },
        "config": {
            "blobSchedule": {
                "Cancun": {
                    "target": "0x03",
                    "max": "0x06",
                    "baseFeeUpdateFraction": "0x32f0ed"
                },
                "Prague": {
                    "target": "0x06",
                    "max": "0x09",
                    "baseFeeUpdateFraction": "0x4c6964"
                }
            },
            "chainid": "0x01"
        },
        "_info": {
            "hash": "0x0cbab0bee7627543a1ee8703b2d35e2c3df760e7e7996457d61a10204166090c",
            "comment": "`execution-spec-tests` generated test",
            "filling-transition-tool": "ethereum-spec-evm-resolver 0.0.5",
            "description": "No description available - add a docstring to the python test class or function.",
            "url": "",
            "fixture-format": "state_test",
            "eels-resolution": {
                "git-url": "https://github.com/marioevz/execution-specs.git",
                "branch": "forks/bpo1",
                "commit": "3387e5f4aedfe99becfdc39b444d6371e25e0924"
            }
        }
    }
}