{
    "tests/static/state_tests/stPreCompiledContracts2/CallRipemd160_0Filler.json::CallRipemd160_0[fork_Cancun-state_test-]": {
        "env": {
            "currentCoinbase": "0x2adc25665018aa1fe0e6bc666dac8fc2697ff9ba",
            "currentGasLimit": "0x989680",
            "currentNumber": "0x01",
            "currentTimestamp": "0x03e8",
            "currentRandom": "0x0000000000000000000000000000000000000000000000000000000000020000",
            "currentDifficulty": "0x00",
            "currentBaseFee": "0x0a",
            "currentExcessBlobGas": "0x00"
        },
        "pre": {
            "0xeab03e216a594b35a4c4ebf1d6ab6a883c1a72ab": {
                "nonce": "0x00",
                "balance": "0x0de0b6b3a7640000",
                "code": "0x",
                "storage": {}
            },
            "0x5ce3faa39b95a7bcec854a4d93446515d2210e3e": {
                "nonce": "0x00",
                "balance": "0x01312d00",
                "code": "0x600160005260206000602060006000600360fff1600051600055",
                "storage": {}
            }
        },
        "transaction": {
            "nonce": "0x00",
            "gasPrice": "0x0a",
            "gasLimit": [
                "0x0592a8"
            ],
            "to": "0x5ce3faa39b95a7bcec854a4d93446515d2210e3e",
            "value": [
                "0x0186a0"
            ],
            "data": [
                "0x"
            ],
            "sender": "0xeab03e216a594b35a4c4ebf1d6ab6a883c1a72ab",
            "secretKey": "0x2d77d07bc999320683d7c7475ce3faa39b95a7bcec854a4d93446515d2210e3e"
        },
        "post": {
            "Cancun": [
                {
                    "hash": "0x782658950e59201ba1e645e8751a76ba8b034f1c0da817669acecc31c84444cc",
                    "logs": "0x1dcc4de8dec75d7aab85b567b6ccd41ad312451b948a7413f0a142fd40d49347",
                    "txbytes": "0xf863800a830592a8945ce3faa39b95a7bcec854a4d93446515d2210e3e830186a08025a0515a56c1a7cdfb1e23f0ce7501ca30008254027a5f8ca715d2ed8b223629fbcfa041640542cde71e9c4c862d1d0a873e111e8dc6b9203590539e1fd89dba5fabd8",
                    "indexes": {
                        "data": 0,
                        "gas": 0,
                        "value": 0
                    },
                    "state": {
                        "0xeab03e216a594b35a4c4ebf1d6ab6a883c1a72ab": {
                            "nonce": "0x01",
                            "balance": "0x0de0b6b3a75bd646",
                            "code": "0x",
                            "storage": {}
                        },
                        "0x5ce3faa39b95a7bcec854a4d93446515d2210e3e": {
                            "nonce": "0x00",
                            "balance": "0x0132b3a0",
                            "code": "0x600160005260206000602060006000600360fff1600051600055",
                            "storage": {
                                "0x00": "0x01"
                            }
                        }
                    }
                }
            ]
        },
        "config": {
            "blobSchedule": {
                "Cancun": {
                    "target": "0x03",
                    "max": "0x06",
                    "baseFeeUpdateFraction": "0x32f0ed"
                }
            },
            "chainid": "0x01"
        },
        "_info": {
            "hash": "0xb2efc8d696eaf5619fcb8260b7a66f8aa08ce3c7706ada7b4c8f38ecbf88ec0c",
            "comment": "`execution-spec-tests` generated test",
            "filling-transition-tool": "ethereum-spec-evm-resolver 0.0.5",
            "description": "No description available - add a docstring to the python test class or function.",
            "url": "",
            "fixture-format": "state_test",
            "eels-resolution": {
                "git-url": "https://github.com/marioevz/execution-specs.git",
                "branch": "forks/bpo1",
                "commit": "3387e5f4aedfe99becfdc39b444d6371e25e0924"
            }
        }
    },
    "tests/static/state_tests/stPreCompiledContracts2/CallRipemd160_0Filler.json::CallRipemd160_0[fork_Osaka-state_test-]": {
        "env": {
            "currentCoinbase": "0x2adc25665018aa1fe0e6bc666dac8fc2697ff9ba",
            "currentGasLimit": "0x989680",
            "currentNumber": "0x01",
            "currentTimestamp": "0x03e8",
            "currentRandom": "0x0000000000000000000000000000000000000000000000000000000000020000",
            "currentDifficulty": "0x00",
            "currentBaseFee": "0x0a",
            "currentExcessBlobGas": "0x00"
        },
        "pre": {
            "0xeab03e216a594b35a4c4ebf1d6ab6a883c1a72ab": {
                "nonce": "0x00",
                "balance": "0x0de0b6b3a7640000",
                "code": "0x",
                "storage": {}
            },
            "0x5ce3faa39b95a7bcec854a4d93446515d2210e3e": {
                "nonce": "0x00",
                "balance": "0x01312d00",
                "code": "0x600160005260206000602060006000600360fff1600051600055",
                "storage": {}
            }
        },
        "transaction": {
            "nonce": "0x00",
            "gasPrice": "0x0a",
            "gasLimit": [
                "0x0592a8"
            ],
            "to": "0x5ce3faa39b95a7bcec854a4d93446515d2210e3e",
            "value": [
                "0x0186a0"
            ],
            "data": [
                "0x"
            ],
            "sender": "0xeab03e216a594b35a4c4ebf1d6ab6a883c1a72ab",
            "secretKey": "0x2d77d07bc999320683d7c7475ce3faa39b95a7bcec854a4d93446515d2210e3e"
        },
        "post": {
            "Osaka": [
                {
                    "hash": "0x782658950e59201ba1e645e8751a76ba8b034f1c0da817669acecc31c84444cc",
                    "logs": "0x1dcc4de8dec75d7aab85b567b6ccd41ad312451b948a7413f0a142fd40d49347",
                    "txbytes": "0xf863800a830592a8945ce3faa39b95a7bcec854a4d93446515d2210e3e830186a08025a0515a56c1a7cdfb1e23f0ce7501ca30008254027a5f8ca715d2ed8b223629fbcfa041640542cde71e9c4c862d1d0a873e111e8dc6b9203590539e1fd89dba5fabd8",
                    "indexes": {
                        "data": 0,
                        "gas": 0,
                        "value": 0
                    },
                    "state": {
                        "0xeab03e216a594b35a4c4ebf1d6ab6a883c1a72ab": {
                            "nonce": "0x01",
                            "balance": "0x0de0b6b3a75bd646",
                            "code": "0x",
                            "storage": {}
                        },
                        "0x5ce3faa39b95a7bcec854a4d93446515d2210e3e": {
                            "nonce": "0x00",
                            "balance": "0x0132b3a0",
                            "code": "0x600160005260206000602060006000600360fff1600051600055",
                            "storage": {
                                "0x00": "0x01"
                            }
                        }
                    }
                }
            ]
        },
        "config": {
            "blobSchedule": {
                "Cancun": {
                    "target": "0x03",
                    "max": "0x06",
                    "baseFeeUpdateFraction": "0x32f0ed"
                },
                "Prague": {
                    "target": "0x06",
                    "max": "0x09",
                    "baseFeeUpdateFraction": "0x4c6964"
                },
                "Osaka": {
                    "target": "0x06",
                    "max": "0x09",
                    "baseFeeUpdateFraction": "0x4c6964"
                }
            },
            "chainid": "0x01"
        },
        "_info": {
            "hash": "0x5c593c1170d6ed311d970e41986c1960bee67d94874914001ce3238f5da29842",
            "comment": "`execution-spec-tests` generated test",
            "filling-transition-tool": "ethereum-spec-evm-resolver 0.0.5",
            "description": "No description available - add a docstring to the python test class or function.",
            "url": "",
            "fixture-format": "state_test",
            "eels-resolution": {
                "git-url": "https://github.com/marioevz/execution-specs.git",
                "branch": "forks/bpo1",
                "commit": "3387e5f4aedfe99becfdc39b444d6371e25e0924"
            }
        }
    },
    "tests/static/state_tests/stPreCompiledContracts2/CallRipemd160_0Filler.json::CallRipemd160_0[fork_Prague-state_test-]": {
        "env": {
            "currentCoinbase": "0x2adc25665018aa1fe0e6bc666dac8fc2697ff9ba",
            "currentGasLimit": "0x989680",
            "currentNumber": "0x01",
            "currentTimestamp": "0x03e8",
            "currentRandom": "0x0000000000000000000000000000000000000000000000000000000000020000",
            "currentDifficulty": "0x00",
            "currentBaseFee": "0x0a",
            "currentExcessBlobGas": "0x00"
        },
        "pre": {
            "0xeab03e216a594b35a4c4ebf1d6ab6a883c1a72ab": {
                "nonce": "0x00",
                "balance": "0x0de0b6b3a7640000",
                "code": "0x",
                "storage": {}
            },
            "0x5ce3faa39b95a7bcec854a4d93446515d2210e3e": {
                "nonce": "0x00",
                "balance": "0x01312d00",
                "code": "0x600160005260206000602060006000600360fff1600051600055",
                "storage": {}
            }
        },
        "transaction": {
            "nonce": "0x00",
            "gasPrice": "0x0a",
            "gasLimit": [
                "0x0592a8"
            ],
            "to": "0x5ce3faa39b95a7bcec854a4d93446515d2210e3e",
            "value": [
                "0x0186a0"
            ],
            "data": [
                "0x"
            ],
            "sender": "0xeab03e216a594b35a4c4ebf1d6ab6a883c1a72ab",
            "secretKey": "0x2d77d07bc999320683d7c7475ce3faa39b95a7bcec854a4d93446515d2210e3e"
        },
        "post": {
            "Prague": [
                {
                    "hash": "0x782658950e59201ba1e645e8751a76ba8b034f1c0da817669acecc31c84444cc",
                    "logs": "0x1dcc4de8dec75d7aab85b567b6ccd41ad312451b948a7413f0a142fd40d49347",
                    "txbytes": "0xf863800a830592a8945ce3faa39b95a7bcec854a4d93446515d2210e3e830186a08025a0515a56c1a7cdfb1e23f0ce7501ca30008254027a5f8ca715d2ed8b223629fbcfa041640542cde71e9c4c862d1d0a873e111e8dc6b9203590539e1fd89dba5fabd8",
                    "indexes": {
                        "data": 0,
                        "gas": 0,
                        "value": 0
                    },
                    "state": {
                        "0xeab03e216a594b35a4c4ebf1d6ab6a883c1a72ab": {
                            "nonce": "0x01",
                            "balance": "0x0de0b6b3a75bd646",
                            "code": "0x",
                            "storage": {}
                        },
                        "0x5ce3faa39b95a7bcec854a4d93446515d2210e3e": {
                            "nonce": "0x00",
                            "balance": "0x0132b3a0",
                            "code": "0x600160005260206000602060006000600360fff1600051600055",
                            "storage": {
                                "0x00": "0x01"
                            }
                        }
                    }
                }
            ]
        },
        "config": {
            "blobSchedule": {
                "Cancun": {
                    "target": "0x03",
                    "max": "0x06",
                    "baseFeeUpdateFraction": "0x32f0ed"
                },
                "Prague": {
                    "target": "0x06",
                    "max": "0x09",
                    "baseFeeUpdateFraction": "0x4c6964"
                }
            },
            "chainid": "0x01"
        },
        "_info": {
            "hash": "0xe1b22d23bf12f860ff98bf1dae4c58156f3ef23259e4bd9259e4eabe55577602",
            "comment": "`execution-spec-tests` generated test",
            "filling-transition-tool": "ethereum-spec-evm-resolver 0.0.5",
            "description": "No description available - add a docstring to the python test class or function.",
            "url": "",
            "fixture-format": "state_test",
            "eels-resolution": {
                "git-url": "https://github.com/marioevz/execution-specs.git",
                "branch": "forks/bpo1",
                "commit": "3387e5f4aedfe99becfdc39b444d6371e25e0924"
            }
        }
    }
}