{
    "tests/static/state_tests/stPreCompiledContracts2/CALLCODESha256_4_gas99Filler.json::CALLCODESha256_4_gas99[fork_Cancun-state_test-]": {
        "env": {
            "currentCoinbase": "0x2adc25665018aa1fe0e6bc666dac8fc2697ff9ba",
            "currentGasLimit": "0x989680",
            "currentNumber": "0x01",
            "currentTimestamp": "0x03e8",
            "currentRandom": "0x0000000000000000000000000000000000000000000000000000000000020000",
            "currentDifficulty": "0x00",
            "currentBaseFee": "0x0a",
            "currentExcessBlobGas": "0x00"
        },
        "pre": {
            "0x817fc8927873e5ec456df98327ce39c2549202f3": {
                "nonce": "0x00",
                "balance": "0x0de0b6b3a7640000",
                "code": "0x",
                "storage": {}
            },
            "0x36809f27e55fddebca57285f84f3fa3d29711118": {
                "nonce": "0x00",
                "balance": "0x01312d00",
                "code": "0x7fffffffffffffffffffffffffffffffffffffffffffffffffffffffffffffffff6000526020600060206000600060026063f260025560005160005500",
                "storage": {}
            }
        },
        "transaction": {
            "nonce": "0x00",
            "gasPrice": "0x0a",
            "gasLimit": [
                "0x0592a8"
            ],
            "to": "0x36809f27e55fddebca57285f84f3fa3d29711118",
            "value": [
                "0x0186a0"
            ],
            "data": [
                "0x"
            ],
            "sender": "0x817fc8927873e5ec456df98327ce39c2549202f3",
            "secretKey": "0xc54627d30c5b68fbf2e6b82136809f27e55fddebca57285f84f3fa3d29711118"
        },
        "post": {
            "Cancun": [
                {
                    "hash": "0x85ecdbeac178f93b7a610d5e32f9ca4ec7c4386f0d07cff716d71e86c1eec8d4",
                    "logs": "0x1dcc4de8dec75d7aab85b567b6ccd41ad312451b948a7413f0a142fd40d49347",
                    "txbytes": "0xf863800a830592a89436809f27e55fddebca57285f84f3fa3d29711118830186a08025a05c5eec7ce48dc3c5d5f94d4917d8b88db936e33538c3c471b6b59cb05f2566a3a065a737d247dbaa0e8c60b647930ad76327f9f3aecc04c44b5050d401a2ff967d",
                    "indexes": {
                        "data": 0,
                        "gas": 0,
                        "value": 0
                    },
                    "state": {
                        "0x817fc8927873e5ec456df98327ce39c2549202f3": {
                            "nonce": "0x01",
                            "balance": "0x0de0b6b3a7587e06",
                            "code": "0x",
                            "storage": {}
                        },
                        "0x36809f27e55fddebca57285f84f3fa3d29711118": {
                            "nonce": "0x00",
                            "balance": "0x0132b3a0",
                            "code": "0x7fffffffffffffffffffffffffffffffffffffffffffffffffffffffffffffffff6000526020600060206000600060026063f260025560005160005500",
                            "storage": {
                                "0x02": "0x01",
                                "0x00": "0xaf9613760f72635fbdb44a5a0a63c39f12af30f950a6ee5c971be188e89c4051"
                            }
                        }
                    }
                }
            ]
        },
        "config": {
            "blobSchedule": {
                "Cancun": {
                    "target": "0x03",
                    "max": "0x06",
                    "baseFeeUpdateFraction": "0x32f0ed"
                }
            },
            "chainid": "0x01"
        },
        "_info": {
            "hash": "0x20aa4b7ffef09f8ed0d662c7d543b547bae6ec922ba127db7ce99aad30234772",
            "comment": "`execution-spec-tests` generated test",
            "filling-transition-tool": "ethereum-spec-evm-resolver 0.0.5",
            "description": "No description available - add a docstring to the python test class or function.",
            "url": "",
            "fixture-format": "state_test",
            "eels-resolution": {
                "git-url": "https://github.com/ethereum/execution-specs.git",
                "branch": "forks/bpos",
                "commit": "7aacb2c54111391af5e98c505d5010b5698a770f"
            }
        }
    },
    "tests/static/state_tests/stPreCompiledContracts2/CALLCODESha256_4_gas99Filler.json::CALLCODESha256_4_gas99[fork_Osaka-state_test-]": {
        "env": {
            "currentCoinbase": "0x2adc25665018aa1fe0e6bc666dac8fc2697ff9ba",
            "currentGasLimit": "0x989680",
            "currentNumber": "0x01",
            "currentTimestamp": "0x03e8",
            "currentRandom": "0x0000000000000000000000000000000000000000000000000000000000020000",
            "currentDifficulty": "0x00",
            "currentBaseFee": "0x0a",
            "currentExcessBlobGas": "0x00"
        },
        "pre": {
            "0x817fc8927873e5ec456df98327ce39c2549202f3": {
                "nonce": "0x00",
                "balance": "0x0de0b6b3a7640000",
                "code": "0x",
                "storage": {}
            },
            "0x36809f27e55fddebca57285f84f3fa3d29711118": {
                "nonce": "0x00",
                "balance": "0x01312d00",
                "code": "0x7fffffffffffffffffffffffffffffffffffffffffffffffffffffffffffffffff6000526020600060206000600060026063f260025560005160005500",
                "storage": {}
            }
        },
        "transaction": {
            "nonce": "0x00",
            "gasPrice": "0x0a",
            "gasLimit": [
                "0x0592a8"
            ],
            "to": "0x36809f27e55fddebca57285f84f3fa3d29711118",
            "value": [
                "0x0186a0"
            ],
            "data": [
                "0x"
            ],
            "sender": "0x817fc8927873e5ec456df98327ce39c2549202f3",
            "secretKey": "0xc54627d30c5b68fbf2e6b82136809f27e55fddebca57285f84f3fa3d29711118"
        },
        "post": {
            "Osaka": [
                {
                    "hash": "0x85ecdbeac178f93b7a610d5e32f9ca4ec7c4386f0d07cff716d71e86c1eec8d4",
                    "logs": "0x1dcc4de8dec75d7aab85b567b6ccd41ad312451b948a7413f0a142fd40d49347",
                    "txbytes": "0xf863800a830592a89436809f27e55fddebca57285f84f3fa3d29711118830186a08025a05c5eec7ce48dc3c5d5f94d4917d8b88db936e33538c3c471b6b59cb05f2566a3a065a737d247dbaa0e8c60b647930ad76327f9f3aecc04c44b5050d401a2ff967d",
                    "indexes": {
                        "data": 0,
                        "gas": 0,
                        "value": 0
                    },
                    "state": {
                        "0x817fc8927873e5ec456df98327ce39c2549202f3": {
                            "nonce": "0x01",
                            "balance": "0x0de0b6b3a7587e06",
                            "code": "0x",
                            "storage": {}
                        },
                        "0x36809f27e55fddebca57285f84f3fa3d29711118": {
                            "nonce": "0x00",
                            "balance": "0x0132b3a0",
                            "code": "0x7fffffffffffffffffffffffffffffffffffffffffffffffffffffffffffffffff6000526020600060206000600060026063f260025560005160005500",
                            "storage": {
                                "0x02": "0x01",
                                "0x00": "0xaf9613760f72635fbdb44a5a0a63c39f12af30f950a6ee5c971be188e89c4051"
                            }
                        }
                    }
                }
            ]
        },
        "config": {
            "blobSchedule": {
                "Cancun": {
                    "target": "0x03",
                    "max": "0x06",
                    "baseFeeUpdateFraction": "0x32f0ed"
                },
                "Prague": {
                    "target": "0x06",
                    "max": "0x09",
                    "baseFeeUpdateFraction": "0x4c6964"
                },
                "Osaka": {
                    "target": "0x06",
                    "max": "0x09",
                    "baseFeeUpdateFraction": "0x4c6964"
                }
            },
            "chainid": "0x01"
        },
        "_info": {
            "hash": "0xcea553510694bd3547242d9f92a747d7bd692236bb3ce5168d83e4ce392ea825",
            "comment": "`execution-spec-tests` generated test",
            "filling-transition-tool": "ethereum-spec-evm-resolver 0.0.5",
            "description": "No description available - add a docstring to the python test class or function.",
            "url": "",
            "fixture-format": "state_test",
            "eels-resolution": {
                "git-url": "https://github.com/ethereum/execution-specs.git",
                "branch": "forks/bpos",
                "commit": "7aacb2c54111391af5e98c505d5010b5698a770f"
            }
        }
    },
    "tests/static/state_tests/stPreCompiledContracts2/CALLCODESha256_4_gas99Filler.json::CALLCODESha256_4_gas99[fork_Prague-state_test-]": {
        "env": {
            "currentCoinbase": "0x2adc25665018aa1fe0e6bc666dac8fc2697ff9ba",
            "currentGasLimit": "0x989680",
            "currentNumber": "0x01",
            "currentTimestamp": "0x03e8",
            "currentRandom": "0x0000000000000000000000000000000000000000000000000000000000020000",
            "currentDifficulty": "0x00",
            "currentBaseFee": "0x0a",
            "currentExcessBlobGas": "0x00"
        },
        "pre": {
            "0x817fc8927873e5ec456df98327ce39c2549202f3": {
                "nonce": "0x00",
                "balance": "0x0de0b6b3a7640000",
                "code": "0x",
                "storage": {}
            },
            "0x36809f27e55fddebca57285f84f3fa3d29711118": {
                "nonce": "0x00",
                "balance": "0x01312d00",
                "code": "0x7fffffffffffffffffffffffffffffffffffffffffffffffffffffffffffffffff6000526020600060206000600060026063f260025560005160005500",
                "storage": {}
            }
        },
        "transaction": {
            "nonce": "0x00",
            "gasPrice": "0x0a",
            "gasLimit": [
                "0x0592a8"
            ],
            "to": "0x36809f27e55fddebca57285f84f3fa3d29711118",
            "value": [
                "0x0186a0"
            ],
            "data": [
                "0x"
            ],
            "sender": "0x817fc8927873e5ec456df98327ce39c2549202f3",
            "secretKey": "0xc54627d30c5b68fbf2e6b82136809f27e55fddebca57285f84f3fa3d29711118"
        },
        "post": {
            "Prague": [
                {
                    "hash": "0x85ecdbeac178f93b7a610d5e32f9ca4ec7c4386f0d07cff716d71e86c1eec8d4",
                    "logs": "0x1dcc4de8dec75d7aab85b567b6ccd41ad312451b948a7413f0a142fd40d49347",
                    "txbytes": "0xf863800a830592a89436809f27e55fddebca57285f84f3fa3d29711118830186a08025a05c5eec7ce48dc3c5d5f94d4917d8b88db936e33538c3c471b6b59cb05f2566a3a065a737d247dbaa0e8c60b647930ad76327f9f3aecc04c44b5050d401a2ff967d",
                    "indexes": {
                        "data": 0,
                        "gas": 0,
                        "value": 0
                    },
                    "state": {
                        "0x817fc8927873e5ec456df98327ce39c2549202f3": {
                            "nonce": "0x01",
                            "balance": "0x0de0b6b3a7587e06",
                            "code": "0x",
                            "storage": {}
                        },
                        "0x36809f27e55fddebca57285f84f3fa3d29711118": {
                            "nonce": "0x00",
                            "balance": "0x0132b3a0",
                            "code": "0x7fffffffffffffffffffffffffffffffffffffffffffffffffffffffffffffffff6000526020600060206000600060026063f260025560005160005500",
                            "storage": {
                                "0x02": "0x01",
                                "0x00": "0xaf9613760f72635fbdb44a5a0a63c39f12af30f950a6ee5c971be188e89c4051"
                            }
                        }
                    }
                }
            ]
        },
        "config": {
            "blobSchedule": {
                "Cancun": {
                    "target": "0x03",
                    "max": "0x06",
                    "baseFeeUpdateFraction": "0x32f0ed"
                },
                "Prague": {
                    "target": "0x06",
                    "max": "0x09",
                    "baseFeeUpdateFraction": "0x4c6964"
                }
            },
            "chainid": "0x01"
        },
        "_info": {
            "hash": "0x8f51629070b29a98ed2cb3393518d86bab013115dd322554166d8960a4a6a83e",
            "comment": "`execution-spec-tests` generated test",
            "filling-transition-tool": "ethereum-spec-evm-resolver 0.0.5",
            "description": "No description available - add a docstring to the python test class or function.",
            "url": "",
            "fixture-format": "state_test",
            "eels-resolution": {
                "git-url": "https://github.com/ethereum/execution-specs.git",
                "branch": "forks/bpos",
                "commit": "7aacb2c54111391af5e98c505d5010b5698a770f"
            }
        }
    }
}