{
    "tests/static/state_tests/stPreCompiledContracts2/CallSha256_1Filler.json::CallSha256_1[fork_Cancun-state_test-]": {
        "env": {
            "currentCoinbase": "0x2adc25665018aa1fe0e6bc666dac8fc2697ff9ba",
            "currentGasLimit": "0x989680",
            "currentNumber": "0x01",
            "currentTimestamp": "0x03e8",
            "currentRandom": "0x0000000000000000000000000000000000000000000000000000000000020000",
            "currentDifficulty": "0x00",
            "currentBaseFee": "0x0a",
            "currentExcessBlobGas": "0x00"
        },
        "pre": {
            "0xff95db4ed6bdc36ea0348fe05e1035addc1848a2": {
                "nonce": "0x00",
                "balance": "0x0de0b6b3a7640000",
                "code": "0x",
                "storage": {}
            },
            "0xc22986f38129d6f0eed3d77e9fc3c167bab03087": {
                "nonce": "0x00",
                "balance": "0x01312d00",
                "code": "0x6020600060006000600060026101f4f160025560005160005500",
                "storage": {}
            }
        },
        "transaction": {
            "nonce": "0x00",
            "gasPrice": "0x0a",
            "gasLimit": [
                "0x0592a8"
            ],
            "to": "0xc22986f38129d6f0eed3d77e9fc3c167bab03087",
            "value": [
                "0x0186a0"
            ],
            "data": [
                "0x"
            ],
            "sender": "0xff95db4ed6bdc36ea0348fe05e1035addc1848a2",
            "secretKey": "0xf424f3adb69fdab2d2326073c22986f38129d6f0eed3d77e9fc3c167bab03087"
        },
        "post": {
            "Cancun": [
                {
                    "hash": "0x5a4ea0b4448b3c83c96f1662125c17a1f072ad8b143da26b18da07dc0fe08d4b",
                    "logs": "0x1dcc4de8dec75d7aab85b567b6ccd41ad312451b948a7413f0a142fd40d49347",
                    "txbytes": "0xf863800a830592a894c22986f38129d6f0eed3d77e9fc3c167bab03087830186a08026a0750cefcd6681becbace891233f318548d987efcb5dc0bbb63b19e27676456ee4a038b82de278423c099cc5efa6c7b030e2d8e8b50a501a3860a52b361df1f1e03e",
                    "indexes": {
                        "data": 0,
                        "gas": 0,
                        "value": 0
                    },
                    "state": {
                        "0xff95db4ed6bdc36ea0348fe05e1035addc1848a2": {
                            "nonce": "0x01",
                            "balance": "0x0de0b6b3a7587ed8",
                            "code": "0x",
                            "storage": {}
                        },
                        "0xc22986f38129d6f0eed3d77e9fc3c167bab03087": {
                            "nonce": "0x00",
                            "balance": "0x0132b3a0",
                            "code": "0x6020600060006000600060026101f4f160025560005160005500",
                            "storage": {
                                "0x02": "0x01",
                                "0x00": "0xe3b0c44298fc1c149afbf4c8996fb92427ae41e4649b934ca495991b7852b855"
                            }
                        }
                    }
                }
            ]
        },
        "config": {
            "blobSchedule": {
                "Cancun": {
                    "target": "0x03",
                    "max": "0x06",
                    "baseFeeUpdateFraction": "0x32f0ed"
                }
            },
            "chainid": "0x01"
        },
        "_info": {
            "hash": "0x5a3bb30f38797f57b8ad3a418338aa9fdb70a9f5690999e6404a189f004f189f",
            "comment": "`execution-spec-tests` generated test",
            "filling-transition-tool": "ethereum-spec-evm-resolver 0.0.5",
            "description": "No description available - add a docstring to the python test class or function.",
            "url": "",
            "fixture-format": "state_test",
            "eels-resolution": {
                "git-url": "https://github.com/ethereum/execution-specs.git",
                "branch": "forks/bpos",
                "commit": "7aacb2c54111391af5e98c505d5010b5698a770f"
            }
        }
    },
    "tests/static/state_tests/stPreCompiledContracts2/CallSha256_1Filler.json::CallSha256_1[fork_Osaka-state_test-]": {
        "env": {
            "currentCoinbase": "0x2adc25665018aa1fe0e6bc666dac8fc2697ff9ba",
            "currentGasLimit": "0x989680",
            "currentNumber": "0x01",
            "currentTimestamp": "0x03e8",
            "currentRandom": "0x0000000000000000000000000000000000000000000000000000000000020000",
            "currentDifficulty": "0x00",
            "currentBaseFee": "0x0a",
            "currentExcessBlobGas": "0x00"
        },
        "pre": {
            "0xff95db4ed6bdc36ea0348fe05e1035addc1848a2": {
                "nonce": "0x00",
                "balance": "0x0de0b6b3a7640000",
                "code": "0x",
                "storage": {}
            },
            "0xc22986f38129d6f0eed3d77e9fc3c167bab03087": {
                "nonce": "0x00",
                "balance": "0x01312d00",
                "code": "0x6020600060006000600060026101f4f160025560005160005500",
                "storage": {}
            }
        },
        "transaction": {
            "nonce": "0x00",
            "gasPrice": "0x0a",
            "gasLimit": [
                "0x0592a8"
            ],
            "to": "0xc22986f38129d6f0eed3d77e9fc3c167bab03087",
            "value": [
                "0x0186a0"
            ],
            "data": [
                "0x"
            ],
            "sender": "0xff95db4ed6bdc36ea0348fe05e1035addc1848a2",
            "secretKey": "0xf424f3adb69fdab2d2326073c22986f38129d6f0eed3d77e9fc3c167bab03087"
        },
        "post": {
            "Osaka": [
                {
                    "hash": "0x5a4ea0b4448b3c83c96f1662125c17a1f072ad8b143da26b18da07dc0fe08d4b",
                    "logs": "0x1dcc4de8dec75d7aab85b567b6ccd41ad312451b948a7413f0a142fd40d49347",
                    "txbytes": "0xf863800a830592a894c22986f38129d6f0eed3d77e9fc3c167bab03087830186a08026a0750cefcd6681becbace891233f318548d987efcb5dc0bbb63b19e27676456ee4a038b82de278423c099cc5efa6c7b030e2d8e8b50a501a3860a52b361df1f1e03e",
                    "indexes": {
                        "data": 0,
                        "gas": 0,
                        "value": 0
                    },
                    "state": {
                        "0xff95db4ed6bdc36ea0348fe05e1035addc1848a2": {
                            "nonce": "0x01",
                            "balance": "0x0de0b6b3a7587ed8",
                            "code": "0x",
                            "storage": {}
                        },
                        "0xc22986f38129d6f0eed3d77e9fc3c167bab03087": {
                            "nonce": "0x00",
                            "balance": "0x0132b3a0",
                            "code": "0x6020600060006000600060026101f4f160025560005160005500",
                            "storage": {
                                "0x02": "0x01",
                                "0x00": "0xe3b0c44298fc1c149afbf4c8996fb92427ae41e4649b934ca495991b7852b855"
                            }
                        }
                    }
                }
            ]
        },
        "config": {
            "blobSchedule": {
                "Cancun": {
                    "target": "0x03",
                    "max": "0x06",
                    "baseFeeUpdateFraction": "0x32f0ed"
                },
                "Prague": {
                    "target": "0x06",
                    "max": "0x09",
                    "baseFeeUpdateFraction": "0x4c6964"
                },
                "Osaka": {
                    "target": "0x06",
                    "max": "0x09",
                    "baseFeeUpdateFraction": "0x4c6964"
                }
            },
            "chainid": "0x01"
        },
        "_info": {
            "hash": "0xf2621037647847423a4893cd7cf879a6d49fb7398dea1e2979cdb5dbac4d1ab5",
            "comment": "`execution-spec-tests` generated test",
            "filling-transition-tool": "ethereum-spec-evm-resolver 0.0.5",
            "description": "No description available - add a docstring to the python test class or function.",
            "url": "",
            "fixture-format": "state_test",
            "eels-resolution": {
                "git-url": "https://github.com/ethereum/execution-specs.git",
                "branch": "forks/bpos",
                "commit": "7aacb2c54111391af5e98c505d5010b5698a770f"
            }
        }
    },
    "tests/static/state_tests/stPreCompiledContracts2/CallSha256_1Filler.json::CallSha256_1[fork_Prague-state_test-]": {
        "env": {
            "currentCoinbase": "0x2adc25665018aa1fe0e6bc666dac8fc2697ff9ba",
            "currentGasLimit": "0x989680",
            "currentNumber": "0x01",
            "currentTimestamp": "0x03e8",
            "currentRandom": "0x0000000000000000000000000000000000000000000000000000000000020000",
            "currentDifficulty": "0x00",
            "currentBaseFee": "0x0a",
            "currentExcessBlobGas": "0x00"
        },
        "pre": {
            "0xff95db4ed6bdc36ea0348fe05e1035addc1848a2": {
                "nonce": "0x00",
                "balance": "0x0de0b6b3a7640000",
                "code": "0x",
                "storage": {}
            },
            "0xc22986f38129d6f0eed3d77e9fc3c167bab03087": {
                "nonce": "0x00",
                "balance": "0x01312d00",
                "code": "0x6020600060006000600060026101f4f160025560005160005500",
                "storage": {}
            }
        },
        "transaction": {
            "nonce": "0x00",
            "gasPrice": "0x0a",
            "gasLimit": [
                "0x0592a8"
            ],
            "to": "0xc22986f38129d6f0eed3d77e9fc3c167bab03087",
            "value": [
                "0x0186a0"
            ],
            "data": [
                "0x"
            ],
            "sender": "0xff95db4ed6bdc36ea0348fe05e1035addc1848a2",
            "secretKey": "0xf424f3adb69fdab2d2326073c22986f38129d6f0eed3d77e9fc3c167bab03087"
        },
        "post": {
            "Prague": [
                {
                    "hash": "0x5a4ea0b4448b3c83c96f1662125c17a1f072ad8b143da26b18da07dc0fe08d4b",
                    "logs": "0x1dcc4de8dec75d7aab85b567b6ccd41ad312451b948a7413f0a142fd40d49347",
                    "txbytes": "0xf863800a830592a894c22986f38129d6f0eed3d77e9fc3c167bab03087830186a08026a0750cefcd6681becbace891233f318548d987efcb5dc0bbb63b19e27676456ee4a038b82de278423c099cc5efa6c7b030e2d8e8b50a501a3860a52b361df1f1e03e",
                    "indexes": {
                        "data": 0,
                        "gas": 0,
                        "value": 0
                    },
                    "state": {
                        "0xff95db4ed6bdc36ea0348fe05e1035addc1848a2": {
                            "nonce": "0x01",
                            "balance": "0x0de0b6b3a7587ed8",
                            "code": "0x",
                            "storage": {}
                        },
                        "0xc22986f38129d6f0eed3d77e9fc3c167bab03087": {
                            "nonce": "0x00",
                            "balance": "0x0132b3a0",
                            "code": "0x6020600060006000600060026101f4f160025560005160005500",
                            "storage": {
                                "0x02": "0x01",
                                "0x00": "0xe3b0c44298fc1c149afbf4c8996fb92427ae41e4649b934ca495991b7852b855"
                            }
                        }
                    }
                }
            ]
        },
        "config": {
            "blobSchedule": {
                "Cancun": {
                    "target": "0x03",
                    "max": "0x06",
                    "baseFeeUpdateFraction": "0x32f0ed"
                },
                "Prague": {
                    "target": "0x06",
                    "max": "0x09",
                    "baseFeeUpdateFraction": "0x4c6964"
                }
            },
            "chainid": "0x01"
        },
        "_info": {
            "hash": "0x8e713e2c0ec228071c605fa72baec75a1f87c9f225a64718db329382a242800b",
            "comment": "`execution-spec-tests` generated test",
            "filling-transition-tool": "ethereum-spec-evm-resolver 0.0.5",
            "description": "No description available - add a docstring to the python test class or function.",
            "url": "",
            "fixture-format": "state_test",
            "eels-resolution": {
                "git-url": "https://github.com/ethereum/execution-specs.git",
                "branch": "forks/bpos",
                "commit": "7aacb2c54111391af5e98c505d5010b5698a770f"
            }
        }
    }
}