{
    "tests/static/state_tests/stPreCompiledContracts2/CallSha256_4Filler.json::CallSha256_4[fork_Cancun-state_test-]": {
        "env": {
            "currentCoinbase": "0x2adc25665018aa1fe0e6bc666dac8fc2697ff9ba",
            "currentGasLimit": "0x989680",
            "currentNumber": "0x01",
            "currentTimestamp": "0x03e8",
            "currentRandom": "0x0000000000000000000000000000000000000000000000000000000000020000",
            "currentDifficulty": "0x00",
            "currentBaseFee": "0x0a",
            "currentExcessBlobGas": "0x00"
        },
        "pre": {
            "0xc56034029a4bd7bcd257839da004a6adcbfd21d6": {
                "nonce": "0x00",
                "balance": "0x0de0b6b3a7640000",
                "code": "0x",
                "storage": {}
            },
            "0xf9f288d0d109f1d30c16262c666c6f9f0167638e": {
                "nonce": "0x00",
                "balance": "0x01312d00",
                "code": "0x7fffffffffffffffffffffffffffffffffffffffffffffffffffffffffffffffff6000526020600060206000600060026064f160025560005160005500",
                "storage": {}
            }
        },
        "transaction": {
            "nonce": "0x00",
            "gasPrice": "0x0a",
            "gasLimit": [
                "0x0592a8"
            ],
            "to": "0xf9f288d0d109f1d30c16262c666c6f9f0167638e",
            "value": [
                "0x0186a0"
            ],
            "data": [
                "0x"
            ],
            "sender": "0xc56034029a4bd7bcd257839da004a6adcbfd21d6",
            "secretKey": "0xcf2eaf02fe99ebe4b4581a22f9f288d0d109f1d30c16262c666c6f9f0167638e"
        },
        "post": {
            "Cancun": [
                {
                    "hash": "0xe86dba3e123268b151dbe1cdef5786bff0e14b68c8b65b5e06dd2c41ac1dba2c",
                    "logs": "0x1dcc4de8dec75d7aab85b567b6ccd41ad312451b948a7413f0a142fd40d49347",
                    "txbytes": "0xf863800a830592a894f9f288d0d109f1d30c16262c666c6f9f0167638e830186a08025a02e6699d83a9291988cd9faba7473c9233a2f19449ba56bbc79ba332952ce490ea028eb71edd30104979d0c4c2804b57d2fc9ecd9e785f53e6bc53e0aaaea5bf99b",
                    "indexes": {
                        "data": 0,
                        "gas": 0,
                        "value": 0
                    },
                    "state": {
                        "0xc56034029a4bd7bcd257839da004a6adcbfd21d6": {
                            "nonce": "0x01",
                            "balance": "0x0de0b6b3a7587e06",
                            "code": "0x",
                            "storage": {}
                        },
                        "0xf9f288d0d109f1d30c16262c666c6f9f0167638e": {
                            "nonce": "0x00",
                            "balance": "0x0132b3a0",
                            "code": "0x7fffffffffffffffffffffffffffffffffffffffffffffffffffffffffffffffff6000526020600060206000600060026064f160025560005160005500",
                            "storage": {
                                "0x02": "0x01",
                                "0x00": "0xaf9613760f72635fbdb44a5a0a63c39f12af30f950a6ee5c971be188e89c4051"
                            }
                        }
                    }
                }
            ]
        },
        "config": {
            "blobSchedule": {
                "Cancun": {
                    "target": "0x03",
                    "max": "0x06",
                    "baseFeeUpdateFraction": "0x32f0ed"
                }
            },
            "chainid": "0x01"
        },
        "_info": {
            "hash": "0x5b4576410451b8d48392d648d57516b988c3bbf22a4e2371e8a78456e2807092",
            "comment": "`execution-spec-tests` generated test",
            "filling-transition-tool": "ethereum-spec-evm-resolver 0.0.5",
            "description": "No description available - add a docstring to the python test class or function.",
            "url": "",
            "fixture-format": "state_test",
            "eels-resolution": {
                "git-url": "https://github.com/ethereum/execution-specs.git",
                "branch": "forks/bpos",
                "commit": "7aacb2c54111391af5e98c505d5010b5698a770f"
            }
        }
    },
    "tests/static/state_tests/stPreCompiledContracts2/CallSha256_4Filler.json::CallSha256_4[fork_Osaka-state_test-]": {
        "env": {
            "currentCoinbase": "0x2adc25665018aa1fe0e6bc666dac8fc2697ff9ba",
            "currentGasLimit": "0x989680",
            "currentNumber": "0x01",
            "currentTimestamp": "0x03e8",
            "currentRandom": "0x0000000000000000000000000000000000000000000000000000000000020000",
            "currentDifficulty": "0x00",
            "currentBaseFee": "0x0a",
            "currentExcessBlobGas": "0x00"
        },
        "pre": {
            "0xc56034029a4bd7bcd257839da004a6adcbfd21d6": {
                "nonce": "0x00",
                "balance": "0x0de0b6b3a7640000",
                "code": "0x",
                "storage": {}
            },
            "0xf9f288d0d109f1d30c16262c666c6f9f0167638e": {
                "nonce": "0x00",
                "balance": "0x01312d00",
                "code": "0x7fffffffffffffffffffffffffffffffffffffffffffffffffffffffffffffffff6000526020600060206000600060026064f160025560005160005500",
                "storage": {}
            }
        },
        "transaction": {
            "nonce": "0x00",
            "gasPrice": "0x0a",
            "gasLimit": [
                "0x0592a8"
            ],
            "to": "0xf9f288d0d109f1d30c16262c666c6f9f0167638e",
            "value": [
                "0x0186a0"
            ],
            "data": [
                "0x"
            ],
            "sender": "0xc56034029a4bd7bcd257839da004a6adcbfd21d6",
            "secretKey": "0xcf2eaf02fe99ebe4b4581a22f9f288d0d109f1d30c16262c666c6f9f0167638e"
        },
        "post": {
            "Osaka": [
                {
                    "hash": "0xe86dba3e123268b151dbe1cdef5786bff0e14b68c8b65b5e06dd2c41ac1dba2c",
                    "logs": "0x1dcc4de8dec75d7aab85b567b6ccd41ad312451b948a7413f0a142fd40d49347",
                    "txbytes": "0xf863800a830592a894f9f288d0d109f1d30c16262c666c6f9f0167638e830186a08025a02e6699d83a9291988cd9faba7473c9233a2f19449ba56bbc79ba332952ce490ea028eb71edd30104979d0c4c2804b57d2fc9ecd9e785f53e6bc53e0aaaea5bf99b",
                    "indexes": {
                        "data": 0,
                        "gas": 0,
                        "value": 0
                    },
                    "state": {
                        "0xc56034029a4bd7bcd257839da004a6adcbfd21d6": {
                            "nonce": "0x01",
                            "balance": "0x0de0b6b3a7587e06",
                            "code": "0x",
                            "storage": {}
                        },
                        "0xf9f288d0d109f1d30c16262c666c6f9f0167638e": {
                            "nonce": "0x00",
                            "balance": "0x0132b3a0",
                            "code": "0x7fffffffffffffffffffffffffffffffffffffffffffffffffffffffffffffffff6000526020600060206000600060026064f160025560005160005500",
                            "storage": {
                                "0x02": "0x01",
                                "0x00": "0xaf9613760f72635fbdb44a5a0a63c39f12af30f950a6ee5c971be188e89c4051"
                            }
                        }
                    }
                }
            ]
        },
        "config": {
            "blobSchedule": {
                "Cancun": {
                    "target": "0x03",
                    "max": "0x06",
                    "baseFeeUpdateFraction": "0x32f0ed"
                },
                "Prague": {
                    "target": "0x06",
                    "max": "0x09",
                    "baseFeeUpdateFraction": "0x4c6964"
                },
                "Osaka": {
                    "target": "0x06",
                    "max": "0x09",
                    "baseFeeUpdateFraction": "0x4c6964"
                }
            },
            "chainid": "0x01"
        },
        "_info": {
            "hash": "0xb0be0e09e10a6c8a512dbdad78b80f6a8de77a0e2577880a8187e9cba7b9999b",
            "comment": "`execution-spec-tests` generated test",
            "filling-transition-tool": "ethereum-spec-evm-resolver 0.0.5",
            "description": "No description available - add a docstring to the python test class or function.",
            "url": "",
            "fixture-format": "state_test",
            "eels-resolution": {
                "git-url": "https://github.com/ethereum/execution-specs.git",
                "branch": "forks/bpos",
                "commit": "7aacb2c54111391af5e98c505d5010b5698a770f"
            }
        }
    },
    "tests/static/state_tests/stPreCompiledContracts2/CallSha256_4Filler.json::CallSha256_4[fork_Prague-state_test-]": {
        "env": {
            "currentCoinbase": "0x2adc25665018aa1fe0e6bc666dac8fc2697ff9ba",
            "currentGasLimit": "0x989680",
            "currentNumber": "0x01",
            "currentTimestamp": "0x03e8",
            "currentRandom": "0x0000000000000000000000000000000000000000000000000000000000020000",
            "currentDifficulty": "0x00",
            "currentBaseFee": "0x0a",
            "currentExcessBlobGas": "0x00"
        },
        "pre": {
            "0xc56034029a4bd7bcd257839da004a6adcbfd21d6": {
                "nonce": "0x00",
                "balance": "0x0de0b6b3a7640000",
                "code": "0x",
                "storage": {}
            },
            "0xf9f288d0d109f1d30c16262c666c6f9f0167638e": {
                "nonce": "0x00",
                "balance": "0x01312d00",
                "code": "0x7fffffffffffffffffffffffffffffffffffffffffffffffffffffffffffffffff6000526020600060206000600060026064f160025560005160005500",
                "storage": {}
            }
        },
        "transaction": {
            "nonce": "0x00",
            "gasPrice": "0x0a",
            "gasLimit": [
                "0x0592a8"
            ],
            "to": "0xf9f288d0d109f1d30c16262c666c6f9f0167638e",
            "value": [
                "0x0186a0"
            ],
            "data": [
                "0x"
            ],
            "sender": "0xc56034029a4bd7bcd257839da004a6adcbfd21d6",
            "secretKey": "0xcf2eaf02fe99ebe4b4581a22f9f288d0d109f1d30c16262c666c6f9f0167638e"
        },
        "post": {
            "Prague": [
                {
                    "hash": "0xe86dba3e123268b151dbe1cdef5786bff0e14b68c8b65b5e06dd2c41ac1dba2c",
                    "logs": "0x1dcc4de8dec75d7aab85b567b6ccd41ad312451b948a7413f0a142fd40d49347",
                    "txbytes": "0xf863800a830592a894f9f288d0d109f1d30c16262c666c6f9f0167638e830186a08025a02e6699d83a9291988cd9faba7473c9233a2f19449ba56bbc79ba332952ce490ea028eb71edd30104979d0c4c2804b57d2fc9ecd9e785f53e6bc53e0aaaea5bf99b",
                    "indexes": {
                        "data": 0,
                        "gas": 0,
                        "value": 0
                    },
                    "state": {
                        "0xc56034029a4bd7bcd257839da004a6adcbfd21d6": {
                            "nonce": "0x01",
                            "balance": "0x0de0b6b3a7587e06",
                            "code": "0x",
                            "storage": {}
                        },
                        "0xf9f288d0d109f1d30c16262c666c6f9f0167638e": {
                            "nonce": "0x00",
                            "balance": "0x0132b3a0",
                            "code": "0x7fffffffffffffffffffffffffffffffffffffffffffffffffffffffffffffffff6000526020600060206000600060026064f160025560005160005500",
                            "storage": {
                                "0x02": "0x01",
                                "0x00": "0xaf9613760f72635fbdb44a5a0a63c39f12af30f950a6ee5c971be188e89c4051"
                            }
                        }
                    }
                }
            ]
        },
        "config": {
            "blobSchedule": {
                "Cancun": {
                    "target": "0x03",
                    "max": "0x06",
                    "baseFeeUpdateFraction": "0x32f0ed"
                },
                "Prague": {
                    "target": "0x06",
                    "max": "0x09",
                    "baseFeeUpdateFraction": "0x4c6964"
                }
            },
            "chainid": "0x01"
        },
        "_info": {
            "hash": "0x3983d9d814b7b2d418954595f749ff30c509e6fcad8119a7f9367969285cb005",
            "comment": "`execution-spec-tests` generated test",
            "filling-transition-tool": "ethereum-spec-evm-resolver 0.0.5",
            "description": "No description available - add a docstring to the python test class or function.",
            "url": "",
            "fixture-format": "state_test",
            "eels-resolution": {
                "git-url": "https://github.com/ethereum/execution-specs.git",
                "branch": "forks/bpos",
                "commit": "7aacb2c54111391af5e98c505d5010b5698a770f"
            }
        }
    }
}