{
    "tests/static/state_tests/stPreCompiledContracts2/CallRipemd160_3Filler.json::CallRipemd160_3[fork_Cancun-state_test-]": {
        "env": {
            "currentCoinbase": "0x2adc25665018aa1fe0e6bc666dac8fc2697ff9ba",
            "currentGasLimit": "0x989680",
            "currentNumber": "0x01",
            "currentTimestamp": "0x03e8",
            "currentRandom": "0x0000000000000000000000000000000000000000000000000000000000020000",
            "currentDifficulty": "0x00",
            "currentBaseFee": "0x0a",
            "currentExcessBlobGas": "0x00"
        },
        "pre": {
            "0x038c4f6e2ee60477d963cfbf463c68ad077978d0": {
                "nonce": "0x00",
                "balance": "0x0de0b6b3a7640000",
                "code": "0x",
                "storage": {}
            },
            "0x0b53a58483816801937bca74e4bb0255af4fd051": {
                "nonce": "0x00",
                "balance": "0x01312d00",
                "code": "0x64f34578907f600052602060006025600060006003611770f160025560005160005500",
                "storage": {}
            }
        },
        "transaction": {
            "nonce": "0x00",
            "gasPrice": "0x0a",
            "gasLimit": [
                "0x0592a8"
            ],
            "to": "0x0b53a58483816801937bca74e4bb0255af4fd051",
            "value": [
                "0x0186a0"
            ],
            "data": [
                "0x"
            ],
            "sender": "0x038c4f6e2ee60477d963cfbf463c68ad077978d0",
            "secretKey": "0xe1c004fcfe80b2c123d96a410b53a58483816801937bca74e4bb0255af4fd051"
        },
        "post": {
            "Cancun": [
                {
                    "hash": "0xc4934d4d3be7fb3fa91a29b1c40fa9bbe47839aca096d423671aac3b1af2442f",
                    "logs": "0x1dcc4de8dec75d7aab85b567b6ccd41ad312451b948a7413f0a142fd40d49347",
                    "txbytes": "0xf863800a830592a8940b53a58483816801937bca74e4bb0255af4fd051830186a08026a06c5f36ae21093b0df4e5ba1418a6e2e4bcb4621712330ff605b71170970ba342a015e56c4341e212177c80559eac129a31f5b7a52b7bdb30594f6cd30e31fd7565",
                    "indexes": {
                        "data": 0,
                        "gas": 0,
                        "value": 0
                    },
                    "state": {
                        "0x038c4f6e2ee60477d963cfbf463c68ad077978d0": {
                            "nonce": "0x01",
                            "balance": "0x0de0b6b3a7585fe8",
                            "code": "0x",
                            "storage": {}
                        },
                        "0x0b53a58483816801937bca74e4bb0255af4fd051": {
                            "nonce": "0x00",
                            "balance": "0x0132b3a0",
                            "code": "0x64f34578907f600052602060006025600060006003611770f160025560005160005500",
                            "storage": {
                                "0x02": "0x01",
                                "0x00": "0x316750573f9be26bc17727b47cacedbd0ab3e6ca"
                            }
                        }
                    }
                }
            ]
        },
        "config": {
            "blobSchedule": {
                "Cancun": {
                    "target": "0x03",
                    "max": "0x06",
                    "baseFeeUpdateFraction": "0x32f0ed"
                }
            },
            "chainid": "0x01"
        },
        "_info": {
            "hash": "0x0ca723900df933d2ff9f7c94b2183d2bbd8dfc23d10543e0084fb1d1e9042543",
            "comment": "`execution-spec-tests` generated test",
            "filling-transition-tool": "ethereum-spec-evm-resolver 0.0.5",
            "description": "No description available - add a docstring to the python test class or function.",
            "url": "",
            "fixture-format": "state_test",
            "eels-resolution": {
                "git-url": "https://github.com/marioevz/execution-specs.git",
                "branch": "forks/bpo1",
                "commit": "3387e5f4aedfe99becfdc39b444d6371e25e0924"
            }
        }
    },
    "tests/static/state_tests/stPreCompiledContracts2/CallRipemd160_3Filler.json::CallRipemd160_3[fork_Osaka-state_test-]": {
        "env": {
            "currentCoinbase": "0x2adc25665018aa1fe0e6bc666dac8fc2697ff9ba",
            "currentGasLimit": "0x989680",
            "currentNumber": "0x01",
            "currentTimestamp": "0x03e8",
            "currentRandom": "0x0000000000000000000000000000000000000000000000000000000000020000",
            "currentDifficulty": "0x00",
            "currentBaseFee": "0x0a",
            "currentExcessBlobGas": "0x00"
        },
        "pre": {
            "0x038c4f6e2ee60477d963cfbf463c68ad077978d0": {
                "nonce": "0x00",
                "balance": "0x0de0b6b3a7640000",
                "code": "0x",
                "storage": {}
            },
            "0x0b53a58483816801937bca74e4bb0255af4fd051": {
                "nonce": "0x00",
                "balance": "0x01312d00",
                "code": "0x64f34578907f600052602060006025600060006003611770f160025560005160005500",
                "storage": {}
            }
        },
        "transaction": {
            "nonce": "0x00",
            "gasPrice": "0x0a",
            "gasLimit": [
                "0x0592a8"
            ],
            "to": "0x0b53a58483816801937bca74e4bb0255af4fd051",
            "value": [
                "0x0186a0"
            ],
            "data": [
                "0x"
            ],
            "sender": "0x038c4f6e2ee60477d963cfbf463c68ad077978d0",
            "secretKey": "0xe1c004fcfe80b2c123d96a410b53a58483816801937bca74e4bb0255af4fd051"
        },
        "post": {
            "Osaka": [
                {
                    "hash": "0xc4934d4d3be7fb3fa91a29b1c40fa9bbe47839aca096d423671aac3b1af2442f",
                    "logs": "0x1dcc4de8dec75d7aab85b567b6ccd41ad312451b948a7413f0a142fd40d49347",
                    "txbytes": "0xf863800a830592a8940b53a58483816801937bca74e4bb0255af4fd051830186a08026a06c5f36ae21093b0df4e5ba1418a6e2e4bcb4621712330ff605b71170970ba342a015e56c4341e212177c80559eac129a31f5b7a52b7bdb30594f6cd30e31fd7565",
                    "indexes": {
                        "data": 0,
                        "gas": 0,
                        "value": 0
                    },
                    "state": {
                        "0x038c4f6e2ee60477d963cfbf463c68ad077978d0": {
                            "nonce": "0x01",
                            "balance": "0x0de0b6b3a7585fe8",
                            "code": "0x",
                            "storage": {}
                        },
                        "0x0b53a58483816801937bca74e4bb0255af4fd051": {
                            "nonce": "0x00",
                            "balance": "0x0132b3a0",
                            "code": "0x64f34578907f600052602060006025600060006003611770f160025560005160005500",
                            "storage": {
                                "0x02": "0x01",
                                "0x00": "0x316750573f9be26bc17727b47cacedbd0ab3e6ca"
                            }
                        }
                    }
                }
            ]
        },
        "config": {
            "blobSchedule": {
                "Cancun": {
                    "target": "0x03",
                    "max": "0x06",
                    "baseFeeUpdateFraction": "0x32f0ed"
                },
                "Prague": {
                    "target": "0x06",
                    "max": "0x09",
                    "baseFeeUpdateFraction": "0x4c6964"
                },
                "Osaka": {
                    "target": "0x06",
                    "max": "0x09",
                    "baseFeeUpdateFraction": "0x4c6964"
                }
            },
            "chainid": "0x01"
        },
        "_info": {
            "hash": "0x859f3f3d94ea833e89365fd4f16aaf0cb112b1a2b34cdc17c969c1c9b4b8681e",
            "comment": "`execution-spec-tests` generated test",
            "filling-transition-tool": "ethereum-spec-evm-resolver 0.0.5",
            "description": "No description available - add a docstring to the python test class or function.",
            "url": "",
            "fixture-format": "state_test",
            "eels-resolution": {
                "git-url": "https://github.com/marioevz/execution-specs.git",
                "branch": "forks/bpo1",
                "commit": "3387e5f4aedfe99becfdc39b444d6371e25e0924"
            }
        }
    },
    "tests/static/state_tests/stPreCompiledContracts2/CallRipemd160_3Filler.json::CallRipemd160_3[fork_Prague-state_test-]": {
        "env": {
            "currentCoinbase": "0x2adc25665018aa1fe0e6bc666dac8fc2697ff9ba",
            "currentGasLimit": "0x989680",
            "currentNumber": "0x01",
            "currentTimestamp": "0x03e8",
            "currentRandom": "0x0000000000000000000000000000000000000000000000000000000000020000",
            "currentDifficulty": "0x00",
            "currentBaseFee": "0x0a",
            "currentExcessBlobGas": "0x00"
        },
        "pre": {
            "0x038c4f6e2ee60477d963cfbf463c68ad077978d0": {
                "nonce": "0x00",
                "balance": "0x0de0b6b3a7640000",
                "code": "0x",
                "storage": {}
            },
            "0x0b53a58483816801937bca74e4bb0255af4fd051": {
                "nonce": "0x00",
                "balance": "0x01312d00",
                "code": "0x64f34578907f600052602060006025600060006003611770f160025560005160005500",
                "storage": {}
            }
        },
        "transaction": {
            "nonce": "0x00",
            "gasPrice": "0x0a",
            "gasLimit": [
                "0x0592a8"
            ],
            "to": "0x0b53a58483816801937bca74e4bb0255af4fd051",
            "value": [
                "0x0186a0"
            ],
            "data": [
                "0x"
            ],
            "sender": "0x038c4f6e2ee60477d963cfbf463c68ad077978d0",
            "secretKey": "0xe1c004fcfe80b2c123d96a410b53a58483816801937bca74e4bb0255af4fd051"
        },
        "post": {
            "Prague": [
                {
                    "hash": "0xc4934d4d3be7fb3fa91a29b1c40fa9bbe47839aca096d423671aac3b1af2442f",
                    "logs": "0x1dcc4de8dec75d7aab85b567b6ccd41ad312451b948a7413f0a142fd40d49347",
                    "txbytes": "0xf863800a830592a8940b53a58483816801937bca74e4bb0255af4fd051830186a08026a06c5f36ae21093b0df4e5ba1418a6e2e4bcb4621712330ff605b71170970ba342a015e56c4341e212177c80559eac129a31f5b7a52b7bdb30594f6cd30e31fd7565",
                    "indexes": {
                        "data": 0,
                        "gas": 0,
                        "value": 0
                    },
                    "state": {
                        "0x038c4f6e2ee60477d963cfbf463c68ad077978d0": {
                            "nonce": "0x01",
                            "balance": "0x0de0b6b3a7585fe8",
                            "code": "0x",
                            "storage": {}
                        },
                        "0x0b53a58483816801937bca74e4bb0255af4fd051": {
                            "nonce": "0x00",
                            "balance": "0x0132b3a0",
                            "code": "0x64f34578907f600052602060006025600060006003611770f160025560005160005500",
                            "storage": {
                                "0x02": "0x01",
                                "0x00": "0x316750573f9be26bc17727b47cacedbd0ab3e6ca"
                            }
                        }
                    }
                }
            ]
        },
        "config": {
            "blobSchedule": {
                "Cancun": {
                    "target": "0x03",
                    "max": "0x06",
                    "baseFeeUpdateFraction": "0x32f0ed"
                },
                "Prague": {
                    "target": "0x06",
                    "max": "0x09",
                    "baseFeeUpdateFraction": "0x4c6964"
                }
            },
            "chainid": "0x01"
        },
        "_info": {
            "hash": "0x5740ff8e9729e22b2d44dbcf52d5b82fe013403a95c76accd6cd866e66464360",
            "comment": "`execution-spec-tests` generated test",
            "filling-transition-tool": "ethereum-spec-evm-resolver 0.0.5",
            "description": "No description available - add a docstring to the python test class or function.",
            "url": "",
            "fixture-format": "state_test",
            "eels-resolution": {
                "git-url": "https://github.com/marioevz/execution-specs.git",
                "branch": "forks/bpo1",
                "commit": "3387e5f4aedfe99becfdc39b444d6371e25e0924"
            }
        }
    }
}