{
    "tests/static/state_tests/stPreCompiledContracts2/CALLCODESha256_3_prefix0Filler.json::CALLCODESha256_3_prefix0[fork_Cancun-state_test-]": {
        "env": {
            "currentCoinbase": "0x2adc25665018aa1fe0e6bc666dac8fc2697ff9ba",
            "currentGasLimit": "0x989680",
            "currentNumber": "0x01",
            "currentTimestamp": "0x03e8",
            "currentRandom": "0x0000000000000000000000000000000000000000000000000000000000020000",
            "currentDifficulty": "0x00",
            "currentBaseFee": "0x0a",
            "currentExcessBlobGas": "0x00"
        },
        "pre": {
            "0x981bf64a38d9a422c084814cd8514858131d2c1a": {
                "nonce": "0x00",
                "balance": "0x0de0b6b3a7640000",
                "code": "0x",
                "storage": {}
            },
            "0x83bbbfd04e12b7b14b4040149492153ad9165b86": {
                "nonce": "0x00",
                "balance": "0x01312d00",
                "code": "0x64f34578907f6000526020600060256000600060026101f4f260025560005160005500",
                "storage": {}
            }
        },
        "transaction": {
            "nonce": "0x00",
            "gasPrice": "0x0a",
            "gasLimit": [
                "0x0592a8"
            ],
            "to": "0x83bbbfd04e12b7b14b4040149492153ad9165b86",
            "value": [
                "0x0186a0"
            ],
            "data": [
                "0x"
            ],
            "sender": "0x981bf64a38d9a422c084814cd8514858131d2c1a",
            "secretKey": "0xd58629af7d5d891aeb78d11683bbbfd04e12b7b14b4040149492153ad9165b86"
        },
        "post": {
            "Cancun": [
                {
                    "hash": "0x9b915b9b455e836d811ed929e628e69b378f75b9c5e22b51ef8fba19634a444b",
                    "logs": "0x1dcc4de8dec75d7aab85b567b6ccd41ad312451b948a7413f0a142fd40d49347",
                    "txbytes": "0xf863800a830592a89483bbbfd04e12b7b14b4040149492153ad9165b86830186a08026a032dfef37e8b0c0d0bd955e90c25cb820ab9ec7b524c7a38fa3bde6634f488610a07589d197fe9240babe0db1ec0fe5b997565b9861660b5c8cd2f2a7ace8aa008b",
                    "indexes": {
                        "data": 0,
                        "gas": 0,
                        "value": 0
                    },
                    "state": {
                        "0x981bf64a38d9a422c084814cd8514858131d2c1a": {
                            "nonce": "0x01",
                            "balance": "0x0de0b6b3a7587d70",
                            "code": "0x",
                            "storage": {}
                        },
                        "0x83bbbfd04e12b7b14b4040149492153ad9165b86": {
                            "nonce": "0x00",
                            "balance": "0x0132b3a0",
                            "code": "0x64f34578907f6000526020600060256000600060026101f4f260025560005160005500",
                            "storage": {
                                "0x02": "0x01",
                                "0x00": "0x7392925565d67be8e9620aacbcfaecd8cb6ec58d709d25da9eccf1d08a41ce35"
                            }
                        }
                    }
                }
            ]
        },
        "config": {
            "blobSchedule": {
                "Cancun": {
                    "target": "0x03",
                    "max": "0x06",
                    "baseFeeUpdateFraction": "0x32f0ed"
                }
            },
            "chainid": "0x01"
        },
        "_info": {
            "hash": "0xecc724967bd4d7244acd81f46c70f13987dc7cd4fc34db77eea00ccc9b013840",
            "comment": "`execution-specs` generated test",
            "filling-transition-tool": "2.18.0rc6",
            "description": "No description available - add a docstring to the python test class or function.",
            "url": "",
            "fixture-format": "state_test"
        }
    },
    "tests/static/state_tests/stPreCompiledContracts2/CALLCODESha256_3_prefix0Filler.json::CALLCODESha256_3_prefix0[fork_Osaka-state_test-]": {
        "env": {
            "currentCoinbase": "0x2adc25665018aa1fe0e6bc666dac8fc2697ff9ba",
            "currentGasLimit": "0x989680",
            "currentNumber": "0x01",
            "currentTimestamp": "0x03e8",
            "currentRandom": "0x0000000000000000000000000000000000000000000000000000000000020000",
            "currentDifficulty": "0x00",
            "currentBaseFee": "0x0a",
            "currentExcessBlobGas": "0x00"
        },
        "pre": {
            "0x981bf64a38d9a422c084814cd8514858131d2c1a": {
                "nonce": "0x00",
                "balance": "0x0de0b6b3a7640000",
                "code": "0x",
                "storage": {}
            },
            "0x83bbbfd04e12b7b14b4040149492153ad9165b86": {
                "nonce": "0x00",
                "balance": "0x01312d00",
                "code": "0x64f34578907f6000526020600060256000600060026101f4f260025560005160005500",
                "storage": {}
            }
        },
        "transaction": {
            "nonce": "0x00",
            "gasPrice": "0x0a",
            "gasLimit": [
                "0x0592a8"
            ],
            "to": "0x83bbbfd04e12b7b14b4040149492153ad9165b86",
            "value": [
                "0x0186a0"
            ],
            "data": [
                "0x"
            ],
            "sender": "0x981bf64a38d9a422c084814cd8514858131d2c1a",
            "secretKey": "0xd58629af7d5d891aeb78d11683bbbfd04e12b7b14b4040149492153ad9165b86"
        },
        "post": {
            "Osaka": [
                {
                    "hash": "0x9b915b9b455e836d811ed929e628e69b378f75b9c5e22b51ef8fba19634a444b",
                    "logs": "0x1dcc4de8dec75d7aab85b567b6ccd41ad312451b948a7413f0a142fd40d49347",
                    "txbytes": "0xf863800a830592a89483bbbfd04e12b7b14b4040149492153ad9165b86830186a08026a032dfef37e8b0c0d0bd955e90c25cb820ab9ec7b524c7a38fa3bde6634f488610a07589d197fe9240babe0db1ec0fe5b997565b9861660b5c8cd2f2a7ace8aa008b",
                    "indexes": {
                        "data": 0,
                        "gas": 0,
                        "value": 0
                    },
                    "state": {
                        "0x981bf64a38d9a422c084814cd8514858131d2c1a": {
                            "nonce": "0x01",
                            "balance": "0x0de0b6b3a7587d70",
                            "code": "0x",
                            "storage": {}
                        },
                        "0x83bbbfd04e12b7b14b4040149492153ad9165b86": {
                            "nonce": "0x00",
                            "balance": "0x0132b3a0",
                            "code": "0x64f34578907f6000526020600060256000600060026101f4f260025560005160005500",
                            "storage": {
                                "0x02": "0x01",
                                "0x00": "0x7392925565d67be8e9620aacbcfaecd8cb6ec58d709d25da9eccf1d08a41ce35"
                            }
                        }
                    }
                }
            ]
        },
        "config": {
            "blobSchedule": {
                "Cancun": {
                    "target": "0x03",
                    "max": "0x06",
                    "baseFeeUpdateFraction": "0x32f0ed"
                },
                "Prague": {
                    "target": "0x06",
                    "max": "0x09",
                    "baseFeeUpdateFraction": "0x4c6964"
                },
                "Osaka": {
                    "target": "0x06",
                    "max": "0x09",
                    "baseFeeUpdateFraction": "0x4c6964"
                }
            },
            "chainid": "0x01"
        },
        "_info": {
            "hash": "0x2da59150963844a6c1edd91f8579560485367475d5c204787cf18cfeb351eb9a",
            "comment": "`execution-specs` generated test",
            "filling-transition-tool": "2.18.0rc6",
            "description": "No description available - add a docstring to the python test class or function.",
            "url": "",
            "fixture-format": "state_test"
        }
    },
    "tests/static/state_tests/stPreCompiledContracts2/CALLCODESha256_3_prefix0Filler.json::CALLCODESha256_3_prefix0[fork_Prague-state_test-]": {
        "env": {
            "currentCoinbase": "0x2adc25665018aa1fe0e6bc666dac8fc2697ff9ba",
            "currentGasLimit": "0x989680",
            "currentNumber": "0x01",
            "currentTimestamp": "0x03e8",
            "currentRandom": "0x0000000000000000000000000000000000000000000000000000000000020000",
            "currentDifficulty": "0x00",
            "currentBaseFee": "0x0a",
            "currentExcessBlobGas": "0x00"
        },
        "pre": {
            "0x981bf64a38d9a422c084814cd8514858131d2c1a": {
                "nonce": "0x00",
                "balance": "0x0de0b6b3a7640000",
                "code": "0x",
                "storage": {}
            },
            "0x83bbbfd04e12b7b14b4040149492153ad9165b86": {
                "nonce": "0x00",
                "balance": "0x01312d00",
                "code": "0x64f34578907f6000526020600060256000600060026101f4f260025560005160005500",
                "storage": {}
            }
        },
        "transaction": {
            "nonce": "0x00",
            "gasPrice": "0x0a",
            "gasLimit": [
                "0x0592a8"
            ],
            "to": "0x83bbbfd04e12b7b14b4040149492153ad9165b86",
            "value": [
                "0x0186a0"
            ],
            "data": [
                "0x"
            ],
            "sender": "0x981bf64a38d9a422c084814cd8514858131d2c1a",
            "secretKey": "0xd58629af7d5d891aeb78d11683bbbfd04e12b7b14b4040149492153ad9165b86"
        },
        "post": {
            "Prague": [
                {
                    "hash": "0x9b915b9b455e836d811ed929e628e69b378f75b9c5e22b51ef8fba19634a444b",
                    "logs": "0x1dcc4de8dec75d7aab85b567b6ccd41ad312451b948a7413f0a142fd40d49347",
                    "txbytes": "0xf863800a830592a89483bbbfd04e12b7b14b4040149492153ad9165b86830186a08026a032dfef37e8b0c0d0bd955e90c25cb820ab9ec7b524c7a38fa3bde6634f488610a07589d197fe9240babe0db1ec0fe5b997565b9861660b5c8cd2f2a7ace8aa008b",
                    "indexes": {
                        "data": 0,
                        "gas": 0,
                        "value": 0
                    },
                    "state": {
                        "0x981bf64a38d9a422c084814cd8514858131d2c1a": {
                            "nonce": "0x01",
                            "balance": "0x0de0b6b3a7587d70",
                            "code": "0x",
                            "storage": {}
                        },
                        "0x83bbbfd04e12b7b14b4040149492153ad9165b86": {
                            "nonce": "0x00",
                            "balance": "0x0132b3a0",
                            "code": "0x64f34578907f6000526020600060256000600060026101f4f260025560005160005500",
                            "storage": {
                                "0x02": "0x01",
                                "0x00": "0x7392925565d67be8e9620aacbcfaecd8cb6ec58d709d25da9eccf1d08a41ce35"
                            }
                        }
                    }
                }
            ]
        },
        "config": {
            "blobSchedule": {
                "Cancun": {
                    "target": "0x03",
                    "max": "0x06",
                    "baseFeeUpdateFraction": "0x32f0ed"
                },
                "Prague": {
                    "target": "0x06",
                    "max": "0x09",
                    "baseFeeUpdateFraction": "0x4c6964"
                }
            },
            "chainid": "0x01"
        },
        "_info": {
            "hash": "0x463aa67acb580b530b2d164e2aded2f1ba14bb86d2408cd42f056c9b9ef361d9",
            "comment": "`execution-specs` generated test",
            "filling-transition-tool": "2.18.0rc6",
            "description": "No description available - add a docstring to the python test class or function.",
            "url": "",
            "fixture-format": "state_test"
        }
    }
}