{
    "tests/ported_static/stStaticCall/test_static_return_bounds.py::test_static_return_bounds[fork_Cancun-blockchain_test_from_state_test]": {
        "network": "Cancun",
        "genesisBlockHeader": {
            "parentHash": "0x0000000000000000000000000000000000000000000000000000000000000000",
            "uncleHash": "0x1dcc4de8dec75d7aab85b567b6ccd41ad312451b948a7413f0a142fd40d49347",
            "coinbase": "0x0000000000000000000000000000000000000000",
            "stateRoot": "0xf3ff42a241a9935fff721d68974e52fb07f980eecbf94ef89852dde20a3b71ab",
            "transactionsTrie": "0x56e81f171bcc55a6ff8345e692c0f86e5b48e01b996cadc001622fb5e363b421",
            "receiptTrie": "0x56e81f171bcc55a6ff8345e692c0f86e5b48e01b996cadc001622fb5e363b421",
            "bloom": "0x00000000000000000000000000000000000000000000000000000000000000000000000000000000000000000000000000000000000000000000000000000000000000000000000000000000000000000000000000000000000000000000000000000000000000000000000000000000000000000000000000000000000000000000000000000000000000000000000000000000000000000000000000000000000000000000000000000000000000000000000000000000000000000000000000000000000000000000000000000000000000000000000000000000000000000000000000000000000000000000000000000000000000000000000000000000",
            "difficulty": "0x00",
            "number": "0x00",
            "gasLimit": "0x07270e00",
            "gasUsed": "0x00",
            "timestamp": "0x00",
            "extraData": "0x00",
            "mixHash": "0x0000000000000000000000000000000000000000000000000000000000000000",
            "nonce": "0x0000000000000000",
            "baseFeePerGas": "0x0b",
            "withdrawalsRoot": "0x56e81f171bcc55a6ff8345e692c0f86e5b48e01b996cadc001622fb5e363b421",
            "blobGasUsed": "0x00",
            "excessBlobGas": "0x00",
            "parentBeaconBlockRoot": "0x0000000000000000000000000000000000000000000000000000000000000000",
            "hash": "0xaed079a3991b03f9302cc5b6872101b979170c0ddf6491ba6916854f23797c89"
        },
        "pre": {
            "0x000f3df6d732807ef1319fb7b8bb8522d0beac02": {
                "nonce": "0x01",
                "balance": "0x00",
                "code": "0x3373fffffffffffffffffffffffffffffffffffffffe14604d57602036146024575f5ffd5b5f35801560495762001fff810690815414603c575f5ffd5b62001fff01545f5260205ff35b5f5ffd5b62001fff42064281555f359062001fff015500",
                "storage": {}
            },
            "0x92b42f831826417cc556c023e4d1d9cf2e833101": {
                "nonce": "0x00",
                "balance": "0xffffffffffffffffffffffffffffffffffffffffffffffffffffffffffffffff",
                "code": "0x",
                "storage": {}
            },
            "0xa5de7cc139666c7a937b0bfeff5e2e0fb50b5318": {
                "nonce": "0x00",
                "balance": "0x00",
                "code": "0x60006000f300",
                "storage": {}
            },
            "0x7c99e378983fac27b65cc14372373aae0f372505": {
                "nonce": "0x00",
                "balance": "0x00",
                "code": "0x6000630ffffffff300",
                "storage": {}
            },
            "0x13493999bb901caa03affd3b35f65265bb511906": {
                "nonce": "0x00",
                "balance": "0x00",
                "code": "0x600063fffffffff300",
                "storage": {}
            },
            "0x778a82475a7e40a9c0501681da01d35b8dc6185a": {
                "nonce": "0x00",
                "balance": "0x00",
                "code": "0x600067fffffffffffffffff300",
                "storage": {}
            },
            "0xb490da569c10d863f59ae4b14d5113bcfe808fe3": {
                "nonce": "0x00",
                "balance": "0x00",
                "code": "0x60006d0ffffffffffffffffffffffffffff300",
                "storage": {}
            },
            "0xbbbf2c8cd874344aeebe7295e3454ce60cae2efc": {
                "nonce": "0x00",
                "balance": "0x00",
                "code": "0x60007ffffffffffffffffffffffffffffffffffffffffffffffffffffffffffffffffff300",
                "storage": {}
            },
            "0xe3a7c1070a07cfb5e80666efb78486446b8a348a": {
                "nonce": "0x00",
                "balance": "0x00",
                "code": "0x630fffffff6000f300",
                "storage": {}
            },
            "0xbef1d755997dc33f2f18332dcf28fd9a82df5458": {
                "nonce": "0x00",
                "balance": "0x00",
                "code": "0x63ffffffff6000f300",
                "storage": {}
            },
            "0x31619469db8c3937ff015cd2fdd8490f8d218d12": {
                "nonce": "0x00",
                "balance": "0x00",
                "code": "0x67ffffffffffffffff6000f300",
                "storage": {}
            },
            "0x0168d86e2dac9cedc3f430013bc3583560818a19": {
                "nonce": "0x00",
                "balance": "0x00",
                "code": "0x6d0fffffffffffffffffffffffffff6000f300",
                "storage": {}
            },
            "0x911437f91e3c50277e9923a112605ee8326dea9f": {
                "nonce": "0x00",
                "balance": "0x00",
                "code": "0x7fffffffffffffffffffffffffffffffffffffffffffffffffffffffffffffffff6000f300",
                "storage": {}
            },
            "0x9f0f73e9f207fbc1063cd2cb6fe9f6eff835a943": {
                "nonce": "0x00",
                "balance": "0x00",
                "code": "0x630fffffff630ffffffff300",
                "storage": {}
            },
            "0x66d998f9a7f82c58d81c50488d66cbb68bc52e49": {
                "nonce": "0x00",
                "balance": "0x00",
                "code": "0x63ffffffff63fffffffff300",
                "storage": {}
            },
            "0x82567b2ba4c0e8ae87738848f3990ef5ce4e9a6b": {
                "nonce": "0x00",
                "balance": "0x00",
                "code": "0x67ffffffffffffffff67fffffffffffffffff300",
                "storage": {}
            },
            "0x07f17ef4424fbf443b6b820542190d75a92633c2": {
                "nonce": "0x00",
                "balance": "0x00",
                "code": "0x6d0fffffffffffffffffffffffffff6d0ffffffffffffffffffffffffffff300",
                "storage": {}
            },
            "0x5a2a234579b292fc2ae033810ef985b2d00a7f1e": {
                "nonce": "0x00",
                "balance": "0x00",
                "code": "0x7fffffffffffffffffffffffffffffffffffffffffffffffffffffffffffffffff7ffffffffffffffffffffffffffffffffffffffffffffffffffffffffffffffffff300",
                "storage": {}
            },
            "0xb49e2e3de5ba84f1da68f4bef1d13ca74f6127a2": {
                "nonce": "0x00",
                "balance": "0x00",
                "code": "0x600060006000600073a5de7cc139666c7a937b0bfeff5e2e0fb50b53186707fffffffffffffffa6001556000600060006000737c99e378983fac27b65cc14372373aae0f3725056707fffffffffffffffa60025560006000600060007313493999bb901caa03affd3b35f65265bb5119066707fffffffffffffffa600355600060006000600073778a82475a7e40a9c0501681da01d35b8dc6185a6707fffffffffffffffa600455600060006000600073b490da569c10d863f59ae4b14d5113bcfe808fe36707fffffffffffffffa600555600060006000600073bbbf2c8cd874344aeebe7295e3454ce60cae2efc6707fffffffffffffffa600655600060006000600073bbbf2c8cd874344aeebe7295e3454ce60cae2efc6707fffffffffffffffa600755600060006000600073bbbf2c8cd874344aeebe7295e3454ce60cae2efc6707fffffffffffffffa600855600060006000600073bbbf2c8cd874344aeebe7295e3454ce60cae2efc6707fffffffffffffffa600955600060006000600073bbbf2c8cd874344aeebe7295e3454ce60cae2efc6707fffffffffffffffa600a55600060006000600073bbbf2c8cd874344aeebe7295e3454ce60cae2efc6707fffffffffffffffa600b55600060006000600073bbbf2c8cd874344aeebe7295e3454ce60cae2efc6707fffffffffffffffa600c55600060006000600073bbbf2c8cd874344aeebe7295e3454ce60cae2efc6707fffffffffffffffa600d55600060006000600073bbbf2c8cd874344aeebe7295e3454ce60cae2efc6707fffffffffffffffa600e55600060006000600073bbbf2c8cd874344aeebe7295e3454ce60cae2efc6707fffffffffffffffa600f55600060006000600073bbbf2c8cd874344aeebe7295e3454ce60cae2efc6707fffffffffffffffa60105500",
                "storage": {}
            }
        },
        "postState": {
            "0x000f3df6d732807ef1319fb7b8bb8522d0beac02": {
                "nonce": "0x01",
                "balance": "0x00",
                "code": "0x3373fffffffffffffffffffffffffffffffffffffffe14604d57602036146024575f5ffd5b5f35801560495762001fff810690815414603c575f5ffd5b62001fff01545f5260205ff35b5f5ffd5b62001fff42064281555f359062001fff015500",
                "storage": {
                    "0x03e8": "0x03e8"
                }
            },
            "0x92b42f831826417cc556c023e4d1d9cf2e833101": {
                "nonce": "0x01",
                "balance": "0xffffffffffffffffffffffffffffffffffffffffffffffffffffffffffc43dde",
                "code": "0x",
                "storage": {}
            },
            "0xa5de7cc139666c7a937b0bfeff5e2e0fb50b5318": {
                "nonce": "0x00",
                "balance": "0x00",
                "code": "0x60006000f300",
                "storage": {}
            },
            "0x7c99e378983fac27b65cc14372373aae0f372505": {
                "nonce": "0x00",
                "balance": "0x00",
                "code": "0x6000630ffffffff300",
                "storage": {}
            },
            "0x13493999bb901caa03affd3b35f65265bb511906": {
                "nonce": "0x00",
                "balance": "0x00",
                "code": "0x600063fffffffff300",
                "storage": {}
            },
            "0x778a82475a7e40a9c0501681da01d35b8dc6185a": {
                "nonce": "0x00",
                "balance": "0x00",
                "code": "0x600067fffffffffffffffff300",
                "storage": {}
            },
            "0xb490da569c10d863f59ae4b14d5113bcfe808fe3": {
                "nonce": "0x00",
                "balance": "0x00",
                "code": "0x60006d0ffffffffffffffffffffffffffff300",
                "storage": {}
            },
            "0xbbbf2c8cd874344aeebe7295e3454ce60cae2efc": {
                "nonce": "0x00",
                "balance": "0x00",
                "code": "0x60007ffffffffffffffffffffffffffffffffffffffffffffffffffffffffffffffffff300",
                "storage": {}
            },
            "0xe3a7c1070a07cfb5e80666efb78486446b8a348a": {
                "nonce": "0x00",
                "balance": "0x00",
                "code": "0x630fffffff6000f300",
                "storage": {}
            },
            "0xbef1d755997dc33f2f18332dcf28fd9a82df5458": {
                "nonce": "0x00",
                "balance": "0x00",
                "code": "0x63ffffffff6000f300",
                "storage": {}
            },
            "0x31619469db8c3937ff015cd2fdd8490f8d218d12": {
                "nonce": "0x00",
                "balance": "0x00",
                "code": "0x67ffffffffffffffff6000f300",
                "storage": {}
            },
            "0x0168d86e2dac9cedc3f430013bc3583560818a19": {
                "nonce": "0x00",
                "balance": "0x00",
                "code": "0x6d0fffffffffffffffffffffffffff6000f300",
                "storage": {}
            },
            "0x911437f91e3c50277e9923a112605ee8326dea9f": {
                "nonce": "0x00",
                "balance": "0x00",
                "code": "0x7fffffffffffffffffffffffffffffffffffffffffffffffffffffffffffffffff6000f300",
                "storage": {}
            },
            "0x9f0f73e9f207fbc1063cd2cb6fe9f6eff835a943": {
                "nonce": "0x00",
                "balance": "0x00",
                "code": "0x630fffffff630ffffffff300",
                "storage": {}
            },
            "0x66d998f9a7f82c58d81c50488d66cbb68bc52e49": {
                "nonce": "0x00",
                "balance": "0x00",
                "code": "0x63ffffffff63fffffffff300",
                "storage": {}
            },
            "0x82567b2ba4c0e8ae87738848f3990ef5ce4e9a6b": {
                "nonce": "0x00",
                "balance": "0x00",
                "code": "0x67ffffffffffffffff67fffffffffffffffff300",
                "storage": {}
            },
            "0x07f17ef4424fbf443b6b820542190d75a92633c2": {
                "nonce": "0x00",
                "balance": "0x00",
                "code": "0x6d0fffffffffffffffffffffffffff6d0ffffffffffffffffffffffffffff300",
                "storage": {}
            },
            "0x5a2a234579b292fc2ae033810ef985b2d00a7f1e": {
                "nonce": "0x00",
                "balance": "0x00",
                "code": "0x7fffffffffffffffffffffffffffffffffffffffffffffffffffffffffffffffff7ffffffffffffffffffffffffffffffffffffffffffffffffffffffffffffffffff300",
                "storage": {}
            },
            "0xb49e2e3de5ba84f1da68f4bef1d13ca74f6127a2": {
                "nonce": "0x00",
                "balance": "0x01",
                "code": "0x600060006000600073a5de7cc139666c7a937b0bfeff5e2e0fb50b53186707fffffffffffffffa6001556000600060006000737c99e378983fac27b65cc14372373aae0f3725056707fffffffffffffffa60025560006000600060007313493999bb901caa03affd3b35f65265bb5119066707fffffffffffffffa600355600060006000600073778a82475a7e40a9c0501681da01d35b8dc6185a6707fffffffffffffffa600455600060006000600073b490da569c10d863f59ae4b14d5113bcfe808fe36707fffffffffffffffa600555600060006000600073bbbf2c8cd874344aeebe7295e3454ce60cae2efc6707fffffffffffffffa600655600060006000600073bbbf2c8cd874344aeebe7295e3454ce60cae2efc6707fffffffffffffffa600755600060006000600073bbbf2c8cd874344aeebe7295e3454ce60cae2efc6707fffffffffffffffa600855600060006000600073bbbf2c8cd874344aeebe7295e3454ce60cae2efc6707fffffffffffffffa600955600060006000600073bbbf2c8cd874344aeebe7295e3454ce60cae2efc6707fffffffffffffffa600a55600060006000600073bbbf2c8cd874344aeebe7295e3454ce60cae2efc6707fffffffffffffffa600b55600060006000600073bbbf2c8cd874344aeebe7295e3454ce60cae2efc6707fffffffffffffffa600c55600060006000600073bbbf2c8cd874344aeebe7295e3454ce60cae2efc6707fffffffffffffffa600d55600060006000600073bbbf2c8cd874344aeebe7295e3454ce60cae2efc6707fffffffffffffffa600e55600060006000600073bbbf2c8cd874344aeebe7295e3454ce60cae2efc6707fffffffffffffffa600f55600060006000600073bbbf2c8cd874344aeebe7295e3454ce60cae2efc6707fffffffffffffffa60105500",
                "storage": {
                    "0x01": "0x01",
                    "0x02": "0x01",
                    "0x03": "0x01",
                    "0x04": "0x01",
                    "0x05": "0x01",
                    "0x06": "0x01",
                    "0x07": "0x01",
                    "0x08": "0x01",
                    "0x09": "0x01",
                    "0x0a": "0x01",
                    "0x0b": "0x01",
                    "0x0c": "0x01",
                    "0x0d": "0x01",
                    "0x0e": "0x01",
                    "0x0f": "0x01",
                    "0x10": "0x01"
                }
            }
        },
        "lastblockhash": "0x1fc115cb188f98b8918803f6c100e338ceb713136c099ba078ac6bda93918a25",
        "config": {
            "network": "Cancun",
            "chainid": "0x01",
            "blobSchedule": {
                "Cancun": {
                    "target": "0x03",
                    "max": "0x06",
                    "baseFeeUpdateFraction": "0x32f0ed"
                }
            }
        },
        "genesisRLP": "0xf9023cf90236a00000000000000000000000000000000000000000000000000000000000000000a01dcc4de8dec75d7aab85b567b6ccd41ad312451b948a7413f0a142fd40d49347940000000000000000000000000000000000000000a0f3ff42a241a9935fff721d68974e52fb07f980eecbf94ef89852dde20a3b71aba056e81f171bcc55a6ff8345e692c0f86e5b48e01b996cadc001622fb5e363b421a056e81f171bcc55a6ff8345e692c0f86e5b48e01b996cadc001622fb5e363b421b901000000000000000000000000000000000000000000000000000000000000000000000000000000000000000000000000000000000000000000000000000000000000000000000000000000000000000000000000000000000000000000000000000000000000000000000000000000000000000000000000000000000000000000000000000000000000000000000000000000000000000000000000000000000000000000000000000000000000000000000000000000000000000000000000000000000000000000000000000000000000000000000000000000000000000000000000000000000000000000000000000000000000000000000000000000000080808407270e00808000a000000000000000000000000000000000000000000000000000000000000000008800000000000000000ba056e81f171bcc55a6ff8345e692c0f86e5b48e01b996cadc001622fb5e363b4218080a00000000000000000000000000000000000000000000000000000000000000000c0c0c0",
        "blocks": [
            {
                "blockHeader": {
                    "parentHash": "0xaed079a3991b03f9302cc5b6872101b979170c0ddf6491ba6916854f23797c89",
                    "uncleHash": "0x1dcc4de8dec75d7aab85b567b6ccd41ad312451b948a7413f0a142fd40d49347",
                    "coinbase": "0x2adc25665018aa1fe0e6bc666dac8fc2697ff9ba",
                    "stateRoot": "0x81963da3ba84c7652a0241808aafd4a14a1f130b9ad636f583c1d887d845735e",
                    "transactionsTrie": "0xa11d5cf3bca4250d1380afdd2fe7ee9fa5fc3dd7c09a414f81590c73aa89220e",
                    "receiptTrie": "0x2afc92207afd66233c97a3947a40f65bdb20e748d499159bfd1e725613c48512",
                    "bloom": "0x00000000000000000000000000000000000000000000000000000000000000000000000000000000000000000000000000000000000000000000000000000000000000000000000000000000000000000000000000000000000000000000000000000000000000000000000000000000000000000000000000000000000000000000000000000000000000000000000000000000000000000000000000000000000000000000000000000000000000000000000000000000000000000000000000000000000000000000000000000000000000000000000000000000000000000000000000000000000000000000000000000000000000000000000000000000",
                    "difficulty": "0x00",
                    "number": "0x01",
                    "gasLimit": "0x07270e00",
                    "gasUsed": "0x05f9d0",
                    "timestamp": "0x03e8",
                    "extraData": "0x00",
                    "mixHash": "0x0000000000000000000000000000000000000000000000000000000000020000",
                    "nonce": "0x0000000000000000",
                    "baseFeePerGas": "0x0a",
                    "withdrawalsRoot": "0x56e81f171bcc55a6ff8345e692c0f86e5b48e01b996cadc001622fb5e363b421",
                    "blobGasUsed": "0x00",
                    "excessBlobGas": "0x00",
                    "parentBeaconBlockRoot": "0x0000000000000000000000000000000000000000000000000000000000000000",
                    "hash": "0x1fc115cb188f98b8918803f6c100e338ceb713136c099ba078ac6bda93918a25"
                },
                "transactions": [
                    {
                        "type": "0x00",
                        "chainId": "0x01",
                        "nonce": "0x00",
                        "gasPrice": "0x0a",
                        "gasLimit": "0xe4e1c0",
                        "to": "0xb49e2e3de5ba84f1da68f4bef1d13ca74f6127a2",
                        "value": "0x01",
                        "data": "0x",
                        "v": "0x25",
                        "r": "0xf803366f36dee2a2a6fb3206b2f7258ecf82d8cce268e56a362a6c890c8bbe10",
                        "s": "0x46514da6673391b3b55202a7f7e0c83e7e8501361008089ab64605e4fc4526bc",
                        "sender": "0x92b42f831826417cc556c023e4d1d9cf2e833101"
                    }
                ],
                "uncleHeaders": [],
                "withdrawals": [],
                "receipts": [
                    {
                        "transactionHash": "0xba9c672cc02b52d5b27880822cb9d347c34879faa1a10d10e505ded1b0f0bd56",
                        "type": "0x00",
                        "cumulativeGasUsed": "0x05f9d0",
                        "bloom": "0x00000000000000000000000000000000000000000000000000000000000000000000000000000000000000000000000000000000000000000000000000000000000000000000000000000000000000000000000000000000000000000000000000000000000000000000000000000000000000000000000000000000000000000000000000000000000000000000000000000000000000000000000000000000000000000000000000000000000000000000000000000000000000000000000000000000000000000000000000000000000000000000000000000000000000000000000000000000000000000000000000000000000000000000000000000000",
                        "logs": [],
                        "status": true,
                        "rlp": "0xf90109018305f9d0b9010000000000000000000000000000000000000000000000000000000000000000000000000000000000000000000000000000000000000000000000000000000000000000000000000000000000000000000000000000000000000000000000000000000000000000000000000000000000000000000000000000000000000000000000000000000000000000000000000000000000000000000000000000000000000000000000000000000000000000000000000000000000000000000000000000000000000000000000000000000000000000000000000000000000000000000000000000000000000000000000000000000000000000000000000000000000c0"
                    }
                ],
                "rlp": "0xf902a4f9023ba0aed079a3991b03f9302cc5b6872101b979170c0ddf6491ba6916854f23797c89a01dcc4de8dec75d7aab85b567b6ccd41ad312451b948a7413f0a142fd40d49347942adc25665018aa1fe0e6bc666dac8fc2697ff9baa081963da3ba84c7652a0241808aafd4a14a1f130b9ad636f583c1d887d845735ea0a11d5cf3bca4250d1380afdd2fe7ee9fa5fc3dd7c09a414f81590c73aa89220ea02afc92207afd66233c97a3947a40f65bdb20e748d499159bfd1e725613c48512b901000000000000000000000000000000000000000000000000000000000000000000000000000000000000000000000000000000000000000000000000000000000000000000000000000000000000000000000000000000000000000000000000000000000000000000000000000000000000000000000000000000000000000000000000000000000000000000000000000000000000000000000000000000000000000000000000000000000000000000000000000000000000000000000000000000000000000000000000000000000000000000000000000000000000000000000000000000000000000000000000000000000000000000000000000000000080018407270e008305f9d08203e800a000000000000000000000000000000000000000000000000000000000000200008800000000000000000aa056e81f171bcc55a6ff8345e692c0f86e5b48e01b996cadc001622fb5e363b4218080a00000000000000000000000000000000000000000000000000000000000000000f862f860800a83e4e1c094b49e2e3de5ba84f1da68f4bef1d13ca74f6127a2018025a0f803366f36dee2a2a6fb3206b2f7258ecf82d8cce268e56a362a6c890c8bbe10a046514da6673391b3b55202a7f7e0c83e7e8501361008089ab64605e4fc4526bcc0c0",
                "blocknumber": "1"
            }
        ],
        "sealEngine": "NoProof",
        "_info": {
            "hash": "0x71cd0d5edb75476cba3ca171a315524f7f6dc27560fbbf5babaca17df431538e",
            "fixture-format": "blockchain_test",
            "comment": "`execution-specs` generated test",
            "filling-transition-tool": "2.19.0",
            "description": "Test_static_return_bounds.",
            "url": "https://github.com/ethereum/execution-specs/blob/tests-snobal-devnet-5@v8037.0.0/tests/ported_static/stStaticCall/test_static_return_bounds.py#L24",
            "metadata": {
                "opcode_count": {}
            }
        }
    }
}