{
    "tests/ported_static/stMemoryStressTest/test_delegatecall_bounds.py::test_delegatecall_bounds[fork_Cancun-blockchain_test_from_state_test--g0]": {
        "network": "Cancun",
        "genesisBlockHeader": {
            "parentHash": "0x0000000000000000000000000000000000000000000000000000000000000000",
            "uncleHash": "0x1dcc4de8dec75d7aab85b567b6ccd41ad312451b948a7413f0a142fd40d49347",
            "coinbase": "0x0000000000000000000000000000000000000000",
            "stateRoot": "0x969c430cf9176d095adabd9f7de871f5832128cd25d023fe7850ffe6074ffcd0",
            "transactionsTrie": "0x56e81f171bcc55a6ff8345e692c0f86e5b48e01b996cadc001622fb5e363b421",
            "receiptTrie": "0x56e81f171bcc55a6ff8345e692c0f86e5b48e01b996cadc001622fb5e363b421",
            "bloom": "0x00000000000000000000000000000000000000000000000000000000000000000000000000000000000000000000000000000000000000000000000000000000000000000000000000000000000000000000000000000000000000000000000000000000000000000000000000000000000000000000000000000000000000000000000000000000000000000000000000000000000000000000000000000000000000000000000000000000000000000000000000000000000000000000000000000000000000000000000000000000000000000000000000000000000000000000000000000000000000000000000000000000000000000000000000000000",
            "difficulty": "0x00",
            "number": "0x00",
            "gasLimit": "0x7fffffffffffffff",
            "gasUsed": "0x00",
            "timestamp": "0x00",
            "extraData": "0x00",
            "mixHash": "0x0000000000000000000000000000000000000000000000000000000000000000",
            "nonce": "0x0000000000000000",
            "baseFeePerGas": "0x0b",
            "withdrawalsRoot": "0x56e81f171bcc55a6ff8345e692c0f86e5b48e01b996cadc001622fb5e363b421",
            "blobGasUsed": "0x00",
            "excessBlobGas": "0x00",
            "parentBeaconBlockRoot": "0x0000000000000000000000000000000000000000000000000000000000000000",
            "hash": "0xc43ae347d8471e0a689eb6d7641c5b2bb3d8823e8dd741d85d04ff7f564ebad3"
        },
        "pre": {
            "0x000f3df6d732807ef1319fb7b8bb8522d0beac02": {
                "nonce": "0x01",
                "balance": "0x00",
                "code": "0x3373fffffffffffffffffffffffffffffffffffffffe14604d57602036146024575f5ffd5b5f35801560495762001fff810690815414603c575f5ffd5b62001fff01545f5260205ff35b5f5ffd5b62001fff42064281555f359062001fff015500",
                "storage": {}
            },
            "0x92b42f831826417cc556c023e4d1d9cf2e833101": {
                "nonce": "0x00",
                "balance": "0xffffffffffffffffffffffffffffffffffffffffffffffffffffffffffffffff",
                "code": "0x",
                "storage": {}
            },
            "0x3a9ad637d171156f66735584233a5125750f04f2": {
                "nonce": "0x00",
                "balance": "0x00",
                "code": "0x60005460010160005500",
                "storage": {}
            },
            "0xf0ccc5869852969df5c80df199d2c0c76ba09165": {
                "nonce": "0x00",
                "balance": "0x00",
                "code": "0x6000600060006000733a9ad637d171156f66735584233a5125750f04f26707fffffffffffffff450630fffffff6000630fffffff6000733a9ad637d171156f66735584233a5125750f04f26707fffffffffffffff45063ffffffff600063ffffffff6000733a9ad637d171156f66735584233a5125750f04f26707fffffffffffffff4506000630fffffff6000630fffffff733a9ad637d171156f66735584233a5125750f04f26707fffffffffffffff450600063ffffffff600063ffffffff733a9ad637d171156f66735584233a5125750f04f26707fffffffffffffff450600067ffffffffffffffff600067ffffffffffffffff733a9ad637d171156f66735584233a5125750f04f26707fffffffffffffff45060006fffffffffffffffffffffffffffffffff60006fffffffffffffffffffffffffffffffff733a9ad637d171156f66735584233a5125750f04f26707fffffffffffffff45060007fffffffffffffffffffffffffffffffffffffffffffffffffffffffffffffffff60007fffffffffffffffffffffffffffffffffffffffffffffffffffffffffffffffff733a9ad637d171156f66735584233a5125750f04f26707fffffffffffffff450630fffffff630fffffff630fffffff630fffffff733a9ad637d171156f66735584233a5125750f04f26707fffffffffffffff400",
                "storage": {}
            }
        },
        "postState": {
            "0x000f3df6d732807ef1319fb7b8bb8522d0beac02": {
                "nonce": "0x01",
                "balance": "0x00",
                "code": "0x3373fffffffffffffffffffffffffffffffffffffffe14604d57602036146024575f5ffd5b5f35801560495762001fff810690815414603c575f5ffd5b62001fff01545f5260205ff35b5f5ffd5b62001fff42064281555f359062001fff015500",
                "storage": {
                    "0x03e8": "0x03e8"
                }
            },
            "0x92b42f831826417cc556c023e4d1d9cf2e833101": {
                "nonce": "0x01",
                "balance": "0xffffffffffffffffffffffffffffffffffffffffffffffffffffffffffe91c9f",
                "code": "0x",
                "storage": {}
            },
            "0x3a9ad637d171156f66735584233a5125750f04f2": {
                "nonce": "0x00",
                "balance": "0x00",
                "code": "0x60005460010160005500",
                "storage": {}
            },
            "0xf0ccc5869852969df5c80df199d2c0c76ba09165": {
                "nonce": "0x00",
                "balance": "0x00",
                "code": "0x6000600060006000733a9ad637d171156f66735584233a5125750f04f26707fffffffffffffff450630fffffff6000630fffffff6000733a9ad637d171156f66735584233a5125750f04f26707fffffffffffffff45063ffffffff600063ffffffff6000733a9ad637d171156f66735584233a5125750f04f26707fffffffffffffff4506000630fffffff6000630fffffff733a9ad637d171156f66735584233a5125750f04f26707fffffffffffffff450600063ffffffff600063ffffffff733a9ad637d171156f66735584233a5125750f04f26707fffffffffffffff450600067ffffffffffffffff600067ffffffffffffffff733a9ad637d171156f66735584233a5125750f04f26707fffffffffffffff45060006fffffffffffffffffffffffffffffffff60006fffffffffffffffffffffffffffffffff733a9ad637d171156f66735584233a5125750f04f26707fffffffffffffff45060007fffffffffffffffffffffffffffffffffffffffffffffffffffffffffffffffff60007fffffffffffffffffffffffffffffffffffffffffffffffffffffffffffffffff733a9ad637d171156f66735584233a5125750f04f26707fffffffffffffff450630fffffff630fffffff630fffffff630fffffff733a9ad637d171156f66735584233a5125750f04f26707fffffffffffffff400",
                "storage": {}
            }
        },
        "lastblockhash": "0xee7dd6cd85ee41648a6557f94eb9968ad1647aed0e745b65a13a143293d4d414",
        "config": {
            "network": "Cancun",
            "chainid": "0x01",
            "blobSchedule": {
                "Cancun": {
                    "target": "0x03",
                    "max": "0x06",
                    "baseFeeUpdateFraction": "0x32f0ed"
                }
            }
        },
        "genesisRLP": "0xf90240f9023aa00000000000000000000000000000000000000000000000000000000000000000a01dcc4de8dec75d7aab85b567b6ccd41ad312451b948a7413f0a142fd40d49347940000000000000000000000000000000000000000a0969c430cf9176d095adabd9f7de871f5832128cd25d023fe7850ffe6074ffcd0a056e81f171bcc55a6ff8345e692c0f86e5b48e01b996cadc001622fb5e363b421a056e81f171bcc55a6ff8345e692c0f86e5b48e01b996cadc001622fb5e363b421b90100000000000000000000000000000000000000000000000000000000000000000000000000000000000000000000000000000000000000000000000000000000000000000000000000000000000000000000000000000000000000000000000000000000000000000000000000000000000000000000000000000000000000000000000000000000000000000000000000000000000000000000000000000000000000000000000000000000000000000000000000000000000000000000000000000000000000000000000000000000000000000000000000000000000000000000000000000000000000000000000000000000000000000000000000000000008080887fffffffffffffff808000a000000000000000000000000000000000000000000000000000000000000000008800000000000000000ba056e81f171bcc55a6ff8345e692c0f86e5b48e01b996cadc001622fb5e363b4218080a00000000000000000000000000000000000000000000000000000000000000000c0c0c0",
        "blocks": [
            {
                "blockHeader": {
                    "parentHash": "0xc43ae347d8471e0a689eb6d7641c5b2bb3d8823e8dd741d85d04ff7f564ebad3",
                    "uncleHash": "0x1dcc4de8dec75d7aab85b567b6ccd41ad312451b948a7413f0a142fd40d49347",
                    "coinbase": "0x2adc25665018aa1fe0e6bc666dac8fc2697ff9ba",
                    "stateRoot": "0x0a7d40cf2906538c763c9b5f78fc01ab1e0344f7e305b19fbd834c505c45d353",
                    "transactionsTrie": "0xe29369a9bca75d381f1af26a0815ced122c771358e212f39df80dff206ce2b61",
                    "receiptTrie": "0xa0e10907f175886de9bd8cd4ac2c21d1db4109a3a9fecf60f54015ee102803fd",
                    "bloom": "0x00000000000000000000000000000000000000000000000000000000000000000000000000000000000000000000000000000000000000000000000000000000000000000000000000000000000000000000000000000000000000000000000000000000000000000000000000000000000000000000000000000000000000000000000000000000000000000000000000000000000000000000000000000000000000000000000000000000000000000000000000000000000000000000000000000000000000000000000000000000000000000000000000000000000000000000000000000000000000000000000000000000000000000000000000000000",
                    "difficulty": "0x00",
                    "number": "0x01",
                    "gasLimit": "0x7fffffffffffffff",
                    "gasUsed": "0x0249f0",
                    "timestamp": "0x03e8",
                    "extraData": "0x00",
                    "mixHash": "0x0000000000000000000000000000000000000000000000000000000000020000",
                    "nonce": "0x0000000000000000",
                    "baseFeePerGas": "0x0a",
                    "withdrawalsRoot": "0x56e81f171bcc55a6ff8345e692c0f86e5b48e01b996cadc001622fb5e363b421",
                    "blobGasUsed": "0x00",
                    "excessBlobGas": "0x00",
                    "parentBeaconBlockRoot": "0x0000000000000000000000000000000000000000000000000000000000000000",
                    "hash": "0xee7dd6cd85ee41648a6557f94eb9968ad1647aed0e745b65a13a143293d4d414"
                },
                "transactions": [
                    {
                        "type": "0x00",
                        "chainId": "0x01",
                        "nonce": "0x00",
                        "gasPrice": "0x0a",
                        "gasLimit": "0x0249f0",
                        "to": "0xf0ccc5869852969df5c80df199d2c0c76ba09165",
                        "value": "0x01",
                        "data": "0x",
                        "v": "0x26",
                        "r": "0x46d3de289ef66bc2297e044b3eb29342e2d9b7084e0c4de1d7962ca449608854",
                        "s": "0x2f51c195780e33098c1338acd27387873571168443c899528dbc814afdff3cbb",
                        "sender": "0x92b42f831826417cc556c023e4d1d9cf2e833101"
                    }
                ],
                "uncleHeaders": [],
                "withdrawals": [],
                "receipts": [
                    {
                        "transactionHash": "0xe7653ba41ab425a4081b170160df19d56c5d960bc8473ae20ca0283e68bf7e20",
                        "type": "0x00",
                        "cumulativeGasUsed": "0x0249f0",
                        "bloom": "0x00000000000000000000000000000000000000000000000000000000000000000000000000000000000000000000000000000000000000000000000000000000000000000000000000000000000000000000000000000000000000000000000000000000000000000000000000000000000000000000000000000000000000000000000000000000000000000000000000000000000000000000000000000000000000000000000000000000000000000000000000000000000000000000000000000000000000000000000000000000000000000000000000000000000000000000000000000000000000000000000000000000000000000000000000000000",
                        "logs": [],
                        "status": false,
                        "rlp": "0xf9010980830249f0b9010000000000000000000000000000000000000000000000000000000000000000000000000000000000000000000000000000000000000000000000000000000000000000000000000000000000000000000000000000000000000000000000000000000000000000000000000000000000000000000000000000000000000000000000000000000000000000000000000000000000000000000000000000000000000000000000000000000000000000000000000000000000000000000000000000000000000000000000000000000000000000000000000000000000000000000000000000000000000000000000000000000000000000000000000000000000c0"
                    }
                ],
                "rlp": "0xf902a8f9023fa0c43ae347d8471e0a689eb6d7641c5b2bb3d8823e8dd741d85d04ff7f564ebad3a01dcc4de8dec75d7aab85b567b6ccd41ad312451b948a7413f0a142fd40d49347942adc25665018aa1fe0e6bc666dac8fc2697ff9baa00a7d40cf2906538c763c9b5f78fc01ab1e0344f7e305b19fbd834c505c45d353a0e29369a9bca75d381f1af26a0815ced122c771358e212f39df80dff206ce2b61a0a0e10907f175886de9bd8cd4ac2c21d1db4109a3a9fecf60f54015ee102803fdb90100000000000000000000000000000000000000000000000000000000000000000000000000000000000000000000000000000000000000000000000000000000000000000000000000000000000000000000000000000000000000000000000000000000000000000000000000000000000000000000000000000000000000000000000000000000000000000000000000000000000000000000000000000000000000000000000000000000000000000000000000000000000000000000000000000000000000000000000000000000000000000000000000000000000000000000000000000000000000000000000000000000000000000000000000000000008001887fffffffffffffff830249f08203e800a000000000000000000000000000000000000000000000000000000000000200008800000000000000000aa056e81f171bcc55a6ff8345e692c0f86e5b48e01b996cadc001622fb5e363b4218080a00000000000000000000000000000000000000000000000000000000000000000f862f860800a830249f094f0ccc5869852969df5c80df199d2c0c76ba09165018026a046d3de289ef66bc2297e044b3eb29342e2d9b7084e0c4de1d7962ca449608854a02f51c195780e33098c1338acd27387873571168443c899528dbc814afdff3cbbc0c0",
                "blocknumber": "1"
            }
        ],
        "sealEngine": "NoProof",
        "_info": {
            "hash": "0xf96c219d7d009cd57a1f5fed3ff943b54289bb2889281e8dd168d8c23a6afff2",
            "fixture-format": "blockchain_test",
            "comment": "`execution-specs` generated test",
            "filling-transition-tool": "2.19.0",
            "description": "Test_delegatecall_bounds.",
            "url": "https://github.com/ethereum/execution-specs/blob/tests-snobal-devnet-5@v8037.0.0/tests/ported_static/stMemoryStressTest/test_delegatecall_bounds.py#L25",
            "metadata": {
                "opcode_count": {}
            }
        }
    },
    "tests/ported_static/stMemoryStressTest/test_delegatecall_bounds.py::test_delegatecall_bounds[fork_Cancun-blockchain_test_from_state_test--g1]": {
        "network": "Cancun",
        "genesisBlockHeader": {
            "parentHash": "0x0000000000000000000000000000000000000000000000000000000000000000",
            "uncleHash": "0x1dcc4de8dec75d7aab85b567b6ccd41ad312451b948a7413f0a142fd40d49347",
            "coinbase": "0x0000000000000000000000000000000000000000",
            "stateRoot": "0x969c430cf9176d095adabd9f7de871f5832128cd25d023fe7850ffe6074ffcd0",
            "transactionsTrie": "0x56e81f171bcc55a6ff8345e692c0f86e5b48e01b996cadc001622fb5e363b421",
            "receiptTrie": "0x56e81f171bcc55a6ff8345e692c0f86e5b48e01b996cadc001622fb5e363b421",
            "bloom": "0x00000000000000000000000000000000000000000000000000000000000000000000000000000000000000000000000000000000000000000000000000000000000000000000000000000000000000000000000000000000000000000000000000000000000000000000000000000000000000000000000000000000000000000000000000000000000000000000000000000000000000000000000000000000000000000000000000000000000000000000000000000000000000000000000000000000000000000000000000000000000000000000000000000000000000000000000000000000000000000000000000000000000000000000000000000000",
            "difficulty": "0x00",
            "number": "0x00",
            "gasLimit": "0x7fffffffffffffff",
            "gasUsed": "0x00",
            "timestamp": "0x00",
            "extraData": "0x00",
            "mixHash": "0x0000000000000000000000000000000000000000000000000000000000000000",
            "nonce": "0x0000000000000000",
            "baseFeePerGas": "0x0b",
            "withdrawalsRoot": "0x56e81f171bcc55a6ff8345e692c0f86e5b48e01b996cadc001622fb5e363b421",
            "blobGasUsed": "0x00",
            "excessBlobGas": "0x00",
            "parentBeaconBlockRoot": "0x0000000000000000000000000000000000000000000000000000000000000000",
            "hash": "0xc43ae347d8471e0a689eb6d7641c5b2bb3d8823e8dd741d85d04ff7f564ebad3"
        },
        "pre": {
            "0x000f3df6d732807ef1319fb7b8bb8522d0beac02": {
                "nonce": "0x01",
                "balance": "0x00",
                "code": "0x3373fffffffffffffffffffffffffffffffffffffffe14604d57602036146024575f5ffd5b5f35801560495762001fff810690815414603c575f5ffd5b62001fff01545f5260205ff35b5f5ffd5b62001fff42064281555f359062001fff015500",
                "storage": {}
            },
            "0x92b42f831826417cc556c023e4d1d9cf2e833101": {
                "nonce": "0x00",
                "balance": "0xffffffffffffffffffffffffffffffffffffffffffffffffffffffffffffffff",
                "code": "0x",
                "storage": {}
            },
            "0x3a9ad637d171156f66735584233a5125750f04f2": {
                "nonce": "0x00",
                "balance": "0x00",
                "code": "0x60005460010160005500",
                "storage": {}
            },
            "0xf0ccc5869852969df5c80df199d2c0c76ba09165": {
                "nonce": "0x00",
                "balance": "0x00",
                "code": "0x6000600060006000733a9ad637d171156f66735584233a5125750f04f26707fffffffffffffff450630fffffff6000630fffffff6000733a9ad637d171156f66735584233a5125750f04f26707fffffffffffffff45063ffffffff600063ffffffff6000733a9ad637d171156f66735584233a5125750f04f26707fffffffffffffff4506000630fffffff6000630fffffff733a9ad637d171156f66735584233a5125750f04f26707fffffffffffffff450600063ffffffff600063ffffffff733a9ad637d171156f66735584233a5125750f04f26707fffffffffffffff450600067ffffffffffffffff600067ffffffffffffffff733a9ad637d171156f66735584233a5125750f04f26707fffffffffffffff45060006fffffffffffffffffffffffffffffffff60006fffffffffffffffffffffffffffffffff733a9ad637d171156f66735584233a5125750f04f26707fffffffffffffff45060007fffffffffffffffffffffffffffffffffffffffffffffffffffffffffffffffff60007fffffffffffffffffffffffffffffffffffffffffffffffffffffffffffffffff733a9ad637d171156f66735584233a5125750f04f26707fffffffffffffff450630fffffff630fffffff630fffffff630fffffff733a9ad637d171156f66735584233a5125750f04f26707fffffffffffffff400",
                "storage": {}
            }
        },
        "postState": {
            "0x000f3df6d732807ef1319fb7b8bb8522d0beac02": {
                "nonce": "0x01",
                "balance": "0x00",
                "code": "0x3373fffffffffffffffffffffffffffffffffffffffe14604d57602036146024575f5ffd5b5f35801560495762001fff810690815414603c575f5ffd5b62001fff01545f5260205ff35b5f5ffd5b62001fff42064281555f359062001fff015500",
                "storage": {
                    "0x03e8": "0x03e8"
                }
            },
            "0x92b42f831826417cc556c023e4d1d9cf2e833101": {
                "nonce": "0x01",
                "balance": "0xfffffffffffffffffffffffffffffffffffffffffffffffffffffffff5ffffff",
                "code": "0x",
                "storage": {}
            },
            "0x3a9ad637d171156f66735584233a5125750f04f2": {
                "nonce": "0x00",
                "balance": "0x00",
                "code": "0x60005460010160005500",
                "storage": {}
            },
            "0xf0ccc5869852969df5c80df199d2c0c76ba09165": {
                "nonce": "0x00",
                "balance": "0x00",
                "code": "0x6000600060006000733a9ad637d171156f66735584233a5125750f04f26707fffffffffffffff450630fffffff6000630fffffff6000733a9ad637d171156f66735584233a5125750f04f26707fffffffffffffff45063ffffffff600063ffffffff6000733a9ad637d171156f66735584233a5125750f04f26707fffffffffffffff4506000630fffffff6000630fffffff733a9ad637d171156f66735584233a5125750f04f26707fffffffffffffff450600063ffffffff600063ffffffff733a9ad637d171156f66735584233a5125750f04f26707fffffffffffffff450600067ffffffffffffffff600067ffffffffffffffff733a9ad637d171156f66735584233a5125750f04f26707fffffffffffffff45060006fffffffffffffffffffffffffffffffff60006fffffffffffffffffffffffffffffffff733a9ad637d171156f66735584233a5125750f04f26707fffffffffffffff45060007fffffffffffffffffffffffffffffffffffffffffffffffffffffffffffffffff60007fffffffffffffffffffffffffffffffffffffffffffffffffffffffffffffffff733a9ad637d171156f66735584233a5125750f04f26707fffffffffffffff450630fffffff630fffffff630fffffff630fffffff733a9ad637d171156f66735584233a5125750f04f26707fffffffffffffff400",
                "storage": {}
            }
        },
        "lastblockhash": "0x727ca718f3c7eaa1768b2e4bf9c9ded6582dd926839394198bae2791938a9133",
        "config": {
            "network": "Cancun",
            "chainid": "0x01",
            "blobSchedule": {
                "Cancun": {
                    "target": "0x03",
                    "max": "0x06",
                    "baseFeeUpdateFraction": "0x32f0ed"
                }
            }
        },
        "genesisRLP": "0xf90240f9023aa00000000000000000000000000000000000000000000000000000000000000000a01dcc4de8dec75d7aab85b567b6ccd41ad312451b948a7413f0a142fd40d49347940000000000000000000000000000000000000000a0969c430cf9176d095adabd9f7de871f5832128cd25d023fe7850ffe6074ffcd0a056e81f171bcc55a6ff8345e692c0f86e5b48e01b996cadc001622fb5e363b421a056e81f171bcc55a6ff8345e692c0f86e5b48e01b996cadc001622fb5e363b421b90100000000000000000000000000000000000000000000000000000000000000000000000000000000000000000000000000000000000000000000000000000000000000000000000000000000000000000000000000000000000000000000000000000000000000000000000000000000000000000000000000000000000000000000000000000000000000000000000000000000000000000000000000000000000000000000000000000000000000000000000000000000000000000000000000000000000000000000000000000000000000000000000000000000000000000000000000000000000000000000000000000000000000000000000000000000008080887fffffffffffffff808000a000000000000000000000000000000000000000000000000000000000000000008800000000000000000ba056e81f171bcc55a6ff8345e692c0f86e5b48e01b996cadc001622fb5e363b4218080a00000000000000000000000000000000000000000000000000000000000000000c0c0c0",
        "blocks": [
            {
                "blockHeader": {
                    "parentHash": "0xc43ae347d8471e0a689eb6d7641c5b2bb3d8823e8dd741d85d04ff7f564ebad3",
                    "uncleHash": "0x1dcc4de8dec75d7aab85b567b6ccd41ad312451b948a7413f0a142fd40d49347",
                    "coinbase": "0x2adc25665018aa1fe0e6bc666dac8fc2697ff9ba",
                    "stateRoot": "0xc8da3e3b296667c07105dcca5f22758f55ce491c521a1dd6d146379d2ca9c5b5",
                    "transactionsTrie": "0xce320c3c34a256a207933cacf3145af8037c3e791d29e431dddeb34f04212218",
                    "receiptTrie": "0x6109c57d8983f520f4b510024a1760aff8d920bb293bbc00c30abdac956b3b2f",
                    "bloom": "0x00000000000000000000000000000000000000000000000000000000000000000000000000000000000000000000000000000000000000000000000000000000000000000000000000000000000000000000000000000000000000000000000000000000000000000000000000000000000000000000000000000000000000000000000000000000000000000000000000000000000000000000000000000000000000000000000000000000000000000000000000000000000000000000000000000000000000000000000000000000000000000000000000000000000000000000000000000000000000000000000000000000000000000000000000000000",
                    "difficulty": "0x00",
                    "number": "0x01",
                    "gasLimit": "0x7fffffffffffffff",
                    "gasUsed": "0x01000000",
                    "timestamp": "0x03e8",
                    "extraData": "0x00",
                    "mixHash": "0x0000000000000000000000000000000000000000000000000000000000020000",
                    "nonce": "0x0000000000000000",
                    "baseFeePerGas": "0x0a",
                    "withdrawalsRoot": "0x56e81f171bcc55a6ff8345e692c0f86e5b48e01b996cadc001622fb5e363b421",
                    "blobGasUsed": "0x00",
                    "excessBlobGas": "0x00",
                    "parentBeaconBlockRoot": "0x0000000000000000000000000000000000000000000000000000000000000000",
                    "hash": "0x727ca718f3c7eaa1768b2e4bf9c9ded6582dd926839394198bae2791938a9133"
                },
                "transactions": [
                    {
                        "type": "0x00",
                        "chainId": "0x01",
                        "nonce": "0x00",
                        "gasPrice": "0x0a",
                        "gasLimit": "0x01000000",
                        "to": "0xf0ccc5869852969df5c80df199d2c0c76ba09165",
                        "value": "0x01",
                        "data": "0x",
                        "v": "0x26",
                        "r": "0x67e4dc324fc174dbb382ea331014377e178dff8c26b3f06a6b6af6c110fa2ec5",
                        "s": "0x3ebe58425a7d70869f06bd79f0070cab23d115ef7b88d8a36b7c2aaa4ca957b2",
                        "sender": "0x92b42f831826417cc556c023e4d1d9cf2e833101"
                    }
                ],
                "uncleHeaders": [],
                "withdrawals": [],
                "receipts": [
                    {
                        "transactionHash": "0x022d1437abd8c19e803b11d14f76cdd1a6bd1fb51372edebd993780fac06ba00",
                        "type": "0x00",
                        "cumulativeGasUsed": "0x01000000",
                        "bloom": "0x00000000000000000000000000000000000000000000000000000000000000000000000000000000000000000000000000000000000000000000000000000000000000000000000000000000000000000000000000000000000000000000000000000000000000000000000000000000000000000000000000000000000000000000000000000000000000000000000000000000000000000000000000000000000000000000000000000000000000000000000000000000000000000000000000000000000000000000000000000000000000000000000000000000000000000000000000000000000000000000000000000000000000000000000000000000",
                        "logs": [],
                        "status": false,
                        "rlp": "0xf9010a808401000000b9010000000000000000000000000000000000000000000000000000000000000000000000000000000000000000000000000000000000000000000000000000000000000000000000000000000000000000000000000000000000000000000000000000000000000000000000000000000000000000000000000000000000000000000000000000000000000000000000000000000000000000000000000000000000000000000000000000000000000000000000000000000000000000000000000000000000000000000000000000000000000000000000000000000000000000000000000000000000000000000000000000000000000000000000000000000000c0"
                    }
                ],
                "rlp": "0xf902aaf90240a0c43ae347d8471e0a689eb6d7641c5b2bb3d8823e8dd741d85d04ff7f564ebad3a01dcc4de8dec75d7aab85b567b6ccd41ad312451b948a7413f0a142fd40d49347942adc25665018aa1fe0e6bc666dac8fc2697ff9baa0c8da3e3b296667c07105dcca5f22758f55ce491c521a1dd6d146379d2ca9c5b5a0ce320c3c34a256a207933cacf3145af8037c3e791d29e431dddeb34f04212218a06109c57d8983f520f4b510024a1760aff8d920bb293bbc00c30abdac956b3b2fb90100000000000000000000000000000000000000000000000000000000000000000000000000000000000000000000000000000000000000000000000000000000000000000000000000000000000000000000000000000000000000000000000000000000000000000000000000000000000000000000000000000000000000000000000000000000000000000000000000000000000000000000000000000000000000000000000000000000000000000000000000000000000000000000000000000000000000000000000000000000000000000000000000000000000000000000000000000000000000000000000000000000000000000000000000000000008001887fffffffffffffff84010000008203e800a000000000000000000000000000000000000000000000000000000000000200008800000000000000000aa056e81f171bcc55a6ff8345e692c0f86e5b48e01b996cadc001622fb5e363b4218080a00000000000000000000000000000000000000000000000000000000000000000f863f861800a840100000094f0ccc5869852969df5c80df199d2c0c76ba09165018026a067e4dc324fc174dbb382ea331014377e178dff8c26b3f06a6b6af6c110fa2ec5a03ebe58425a7d70869f06bd79f0070cab23d115ef7b88d8a36b7c2aaa4ca957b2c0c0",
                "blocknumber": "1"
            }
        ],
        "sealEngine": "NoProof",
        "_info": {
            "hash": "0x7d78835edf44d3689e5dea78d9fb8ecad9842ed61ee964da3aed09ebf78c671a",
            "fixture-format": "blockchain_test",
            "comment": "`execution-specs` generated test",
            "filling-transition-tool": "2.19.0",
            "description": "Test_delegatecall_bounds.",
            "url": "https://github.com/ethereum/execution-specs/blob/tests-snobal-devnet-5@v8037.0.0/tests/ported_static/stMemoryStressTest/test_delegatecall_bounds.py#L25",
            "metadata": {
                "opcode_count": {}
            }
        }
    }
}