{
    "tests/ported_static/stDelegatecallTestHomestead/test_call_lose_gas_oog.py::test_call_lose_gas_oog[fork_Cancun-blockchain_test_from_state_test]": {
        "network": "Cancun",
        "genesisBlockHeader": {
            "parentHash": "0x0000000000000000000000000000000000000000000000000000000000000000",
            "uncleHash": "0x1dcc4de8dec75d7aab85b567b6ccd41ad312451b948a7413f0a142fd40d49347",
            "coinbase": "0x0000000000000000000000000000000000000000",
            "stateRoot": "0xc76a66490204b2dc0f3e86b2e91b495f5ffff21a745690421888fb4ecb9aac96",
            "transactionsTrie": "0x56e81f171bcc55a6ff8345e692c0f86e5b48e01b996cadc001622fb5e363b421",
            "receiptTrie": "0x56e81f171bcc55a6ff8345e692c0f86e5b48e01b996cadc001622fb5e363b421",
            "bloom": "0x00000000000000000000000000000000000000000000000000000000000000000000000000000000000000000000000000000000000000000000000000000000000000000000000000000000000000000000000000000000000000000000000000000000000000000000000000000000000000000000000000000000000000000000000000000000000000000000000000000000000000000000000000000000000000000000000000000000000000000000000000000000000000000000000000000000000000000000000000000000000000000000000000000000000000000000000000000000000000000000000000000000000000000000000000000000",
            "difficulty": "0x00",
            "number": "0x00",
            "gasLimit": "0x07270e00",
            "gasUsed": "0x00",
            "timestamp": "0x00",
            "extraData": "0x00",
            "mixHash": "0x0000000000000000000000000000000000000000000000000000000000000000",
            "nonce": "0x0000000000000000",
            "baseFeePerGas": "0x0b",
            "withdrawalsRoot": "0x56e81f171bcc55a6ff8345e692c0f86e5b48e01b996cadc001622fb5e363b421",
            "blobGasUsed": "0x00",
            "excessBlobGas": "0x00",
            "parentBeaconBlockRoot": "0x0000000000000000000000000000000000000000000000000000000000000000",
            "hash": "0x2a5f4ef6862d8b76fb45debe37f8328abea7c2b0da285ca7ac6eea81f1ec0d91"
        },
        "pre": {
            "0x000f3df6d732807ef1319fb7b8bb8522d0beac02": {
                "nonce": "0x01",
                "balance": "0x00",
                "code": "0x3373fffffffffffffffffffffffffffffffffffffffe14604d57602036146024575f5ffd5b5f35801560495762001fff810690815414603c575f5ffd5b62001fff01545f5260205ff35b5f5ffd5b62001fff42064281555f359062001fff015500",
                "storage": {}
            },
            "0x4768b5e50b0ebe91ae38d84a47e3179e615f9c40": {
                "nonce": "0x00",
                "balance": "0xffffffffffffffffffffffffffffffff",
                "code": "0x",
                "storage": {}
            },
            "0xd9b97c712ebce43f3c19179bbef44b550f9e8bc0": {
                "nonce": "0x00",
                "balance": "0x1b58",
                "code": "0x",
                "storage": {}
            },
            "0xbe855315b63d137b74d5eed6be5cd9dde6e2478d": {
                "nonce": "0x00",
                "balance": "0x0400",
                "code": "0x600160005401600055600060006000600073be855315b63d137b74d5eed6be5cd9dde6e2478d620186a060005402600101f46001556103e86000540260010160025500",
                "storage": {}
            }
        },
        "postState": {
            "0x000f3df6d732807ef1319fb7b8bb8522d0beac02": {
                "nonce": "0x01",
                "balance": "0x00",
                "code": "0x3373fffffffffffffffffffffffffffffffffffffffe14604d57602036146024575f5ffd5b5f35801560495762001fff810690815414603c575f5ffd5b62001fff01545f5260205ff35b5f5ffd5b62001fff42064281555f359062001fff015500",
                "storage": {
                    "0x03e8": "0x03e8"
                }
            },
            "0x4768b5e50b0ebe91ae38d84a47e3179e615f9c40": {
                "nonce": "0x01",
                "balance": "0xffffffffffffffffffffffffffe66685",
                "code": "0x",
                "storage": {}
            },
            "0xd9b97c712ebce43f3c19179bbef44b550f9e8bc0": {
                "nonce": "0x00",
                "balance": "0x1b58",
                "code": "0x",
                "storage": {}
            },
            "0xbe855315b63d137b74d5eed6be5cd9dde6e2478d": {
                "nonce": "0x00",
                "balance": "0x040a",
                "code": "0x600160005401600055600060006000600073be855315b63d137b74d5eed6be5cd9dde6e2478d620186a060005402600101f46001556103e86000540260010160025500",
                "storage": {
                    "0x00": "0x01",
                    "0x02": "0x03e9"
                }
            }
        },
        "lastblockhash": "0x6ae08cd181d263d8de48b8b926e8efaa751ff02e79d087a9937e2fe6c0ceccd1",
        "config": {
            "network": "Cancun",
            "chainid": "0x01",
            "blobSchedule": {
                "Cancun": {
                    "target": "0x03",
                    "max": "0x06",
                    "baseFeeUpdateFraction": "0x32f0ed"
                }
            }
        },
        "genesisRLP": "0xf9023cf90236a00000000000000000000000000000000000000000000000000000000000000000a01dcc4de8dec75d7aab85b567b6ccd41ad312451b948a7413f0a142fd40d49347940000000000000000000000000000000000000000a0c76a66490204b2dc0f3e86b2e91b495f5ffff21a745690421888fb4ecb9aac96a056e81f171bcc55a6ff8345e692c0f86e5b48e01b996cadc001622fb5e363b421a056e81f171bcc55a6ff8345e692c0f86e5b48e01b996cadc001622fb5e363b421b901000000000000000000000000000000000000000000000000000000000000000000000000000000000000000000000000000000000000000000000000000000000000000000000000000000000000000000000000000000000000000000000000000000000000000000000000000000000000000000000000000000000000000000000000000000000000000000000000000000000000000000000000000000000000000000000000000000000000000000000000000000000000000000000000000000000000000000000000000000000000000000000000000000000000000000000000000000000000000000000000000000000000000000000000000000000080808407270e00808000a000000000000000000000000000000000000000000000000000000000000000008800000000000000000ba056e81f171bcc55a6ff8345e692c0f86e5b48e01b996cadc001622fb5e363b4218080a00000000000000000000000000000000000000000000000000000000000000000c0c0c0",
        "blocks": [
            {
                "blockHeader": {
                    "parentHash": "0x2a5f4ef6862d8b76fb45debe37f8328abea7c2b0da285ca7ac6eea81f1ec0d91",
                    "uncleHash": "0x1dcc4de8dec75d7aab85b567b6ccd41ad312451b948a7413f0a142fd40d49347",
                    "coinbase": "0xb94f5374fce5edbc8e2a8697c15331677e6ebf0b",
                    "stateRoot": "0x4a51824bba50dc4bac72218c9e0bca071bbea161270d33189aa6f2dd092003a3",
                    "transactionsTrie": "0xea23f91ac9ba19c02854f5b7f811031a08c420e998074fcd4aeb58acd375b2f8",
                    "receiptTrie": "0xbcbfc121439870b72f3ff0f77cff21947a7b680b33eaffdc19e799cc99ea8961",
                    "bloom": "0x00000000000000000000000000000000000000000000000000000000000000000000000000000000000000000000000000000000000000000000000000000000000000000000000000000000000000000000000000000000000000000000000000000000000000000000000000000000000000000000000000000000000000000000000000000000000000000000000000000000000000000000000000000000000000000000000000000000000000000000000000000000000000000000000000000000000000000000000000000000000000000000000000000000000000000000000000000000000000000000000000000000000000000000000000000000",
                    "difficulty": "0x00",
                    "number": "0x01",
                    "gasLimit": "0x07270e00",
                    "gasUsed": "0x028f58",
                    "timestamp": "0x03e8",
                    "extraData": "0x00",
                    "mixHash": "0x0000000000000000000000000000000000000000000000000000000000020000",
                    "nonce": "0x0000000000000000",
                    "baseFeePerGas": "0x0a",
                    "withdrawalsRoot": "0x56e81f171bcc55a6ff8345e692c0f86e5b48e01b996cadc001622fb5e363b421",
                    "blobGasUsed": "0x00",
                    "excessBlobGas": "0x00",
                    "parentBeaconBlockRoot": "0x0000000000000000000000000000000000000000000000000000000000000000",
                    "hash": "0x6ae08cd181d263d8de48b8b926e8efaa751ff02e79d087a9937e2fe6c0ceccd1"
                },
                "transactions": [
                    {
                        "type": "0x00",
                        "chainId": "0x01",
                        "nonce": "0x00",
                        "gasPrice": "0x0a",
                        "gasLimit": "0x030d40",
                        "to": "0xbe855315b63d137b74d5eed6be5cd9dde6e2478d",
                        "value": "0x0a",
                        "data": "0x",
                        "v": "0x25",
                        "r": "0xff6b979420b112e3b6f08e75c15574c0d5e40d65a42005d5166caa92348b8c46",
                        "s": "0x4d19333cc6341f23fce23102e69bccd92bde21290c9ef050a3ccdafab3e5c748",
                        "sender": "0x4768b5e50b0ebe91ae38d84a47e3179e615f9c40"
                    }
                ],
                "uncleHeaders": [],
                "withdrawals": [],
                "receipts": [
                    {
                        "transactionHash": "0x77d7bbbd29da8f4a90b1be4e3cb06bd89e3b0b3ab2aae8d022438c894dcd4733",
                        "type": "0x00",
                        "cumulativeGasUsed": "0x028f58",
                        "bloom": "0x00000000000000000000000000000000000000000000000000000000000000000000000000000000000000000000000000000000000000000000000000000000000000000000000000000000000000000000000000000000000000000000000000000000000000000000000000000000000000000000000000000000000000000000000000000000000000000000000000000000000000000000000000000000000000000000000000000000000000000000000000000000000000000000000000000000000000000000000000000000000000000000000000000000000000000000000000000000000000000000000000000000000000000000000000000000",
                        "logs": [],
                        "status": true,
                        "rlp": "0xf901090183028f58b9010000000000000000000000000000000000000000000000000000000000000000000000000000000000000000000000000000000000000000000000000000000000000000000000000000000000000000000000000000000000000000000000000000000000000000000000000000000000000000000000000000000000000000000000000000000000000000000000000000000000000000000000000000000000000000000000000000000000000000000000000000000000000000000000000000000000000000000000000000000000000000000000000000000000000000000000000000000000000000000000000000000000000000000000000000000000c0"
                    }
                ],
                "rlp": "0xf902a4f9023ba02a5f4ef6862d8b76fb45debe37f8328abea7c2b0da285ca7ac6eea81f1ec0d91a01dcc4de8dec75d7aab85b567b6ccd41ad312451b948a7413f0a142fd40d4934794b94f5374fce5edbc8e2a8697c15331677e6ebf0ba04a51824bba50dc4bac72218c9e0bca071bbea161270d33189aa6f2dd092003a3a0ea23f91ac9ba19c02854f5b7f811031a08c420e998074fcd4aeb58acd375b2f8a0bcbfc121439870b72f3ff0f77cff21947a7b680b33eaffdc19e799cc99ea8961b901000000000000000000000000000000000000000000000000000000000000000000000000000000000000000000000000000000000000000000000000000000000000000000000000000000000000000000000000000000000000000000000000000000000000000000000000000000000000000000000000000000000000000000000000000000000000000000000000000000000000000000000000000000000000000000000000000000000000000000000000000000000000000000000000000000000000000000000000000000000000000000000000000000000000000000000000000000000000000000000000000000000000000000000000000000000080018407270e0083028f588203e800a000000000000000000000000000000000000000000000000000000000000200008800000000000000000aa056e81f171bcc55a6ff8345e692c0f86e5b48e01b996cadc001622fb5e363b4218080a00000000000000000000000000000000000000000000000000000000000000000f862f860800a83030d4094be855315b63d137b74d5eed6be5cd9dde6e2478d0a8025a0ff6b979420b112e3b6f08e75c15574c0d5e40d65a42005d5166caa92348b8c46a04d19333cc6341f23fce23102e69bccd92bde21290c9ef050a3ccdafab3e5c748c0c0",
                "blocknumber": "1"
            }
        ],
        "sealEngine": "NoProof",
        "_info": {
            "hash": "0xb21af57636cc21b24a140791fd1c3b059c5af6db5aa4c35a2029fc3f0d19b535",
            "fixture-format": "blockchain_test",
            "comment": "`execution-specs` generated test",
            "filling-transition-tool": "2.19.0",
            "description": "Test_call_lose_gas_oog.",
            "url": "https://github.com/ethereum/execution-specs/blob/tests-sn\u00f8bal-devnet-4@v1.0.0/tests/ported_static/stDelegatecallTestHomestead/test_call_lose_gas_oog.py#L27",
            "metadata": {
                "opcode_count": {}
            }
        }
    }
}