{
    "tests/ported_static/stDelegatecallTestHomestead/test_call_lose_gas_oog.py::test_call_lose_gas_oog[fork_Cancun-blockchain_test_from_state_test]": {
        "network": "Cancun",
        "genesisBlockHeader": {
            "parentHash": "0x0000000000000000000000000000000000000000000000000000000000000000",
            "uncleHash": "0x1dcc4de8dec75d7aab85b567b6ccd41ad312451b948a7413f0a142fd40d49347",
            "coinbase": "0x0000000000000000000000000000000000000000",
            "stateRoot": "0x3784e9b1a571ecc3b539197b1c5cf8bde7eaaeb457f63ca16745ab7bdd44bb91",
            "transactionsTrie": "0x56e81f171bcc55a6ff8345e692c0f86e5b48e01b996cadc001622fb5e363b421",
            "receiptTrie": "0x56e81f171bcc55a6ff8345e692c0f86e5b48e01b996cadc001622fb5e363b421",
            "bloom": "0x00000000000000000000000000000000000000000000000000000000000000000000000000000000000000000000000000000000000000000000000000000000000000000000000000000000000000000000000000000000000000000000000000000000000000000000000000000000000000000000000000000000000000000000000000000000000000000000000000000000000000000000000000000000000000000000000000000000000000000000000000000000000000000000000000000000000000000000000000000000000000000000000000000000000000000000000000000000000000000000000000000000000000000000000000000000",
            "difficulty": "0x00",
            "number": "0x00",
            "gasLimit": "0x07270e00",
            "gasUsed": "0x00",
            "timestamp": "0x00",
            "extraData": "0x00",
            "mixHash": "0x0000000000000000000000000000000000000000000000000000000000000000",
            "nonce": "0x0000000000000000",
            "baseFeePerGas": "0x0b",
            "withdrawalsRoot": "0x56e81f171bcc55a6ff8345e692c0f86e5b48e01b996cadc001622fb5e363b421",
            "blobGasUsed": "0x00",
            "excessBlobGas": "0x00",
            "parentBeaconBlockRoot": "0x0000000000000000000000000000000000000000000000000000000000000000",
            "hash": "0x00addadb5023a5a9c91f623e8d181f7bf07c84cc773175326e8d57b352453b5e"
        },
        "pre": {
            "0x000f3df6d732807ef1319fb7b8bb8522d0beac02": {
                "nonce": "0x01",
                "balance": "0x00",
                "code": "0x3373fffffffffffffffffffffffffffffffffffffffe14604d57602036146024575f5ffd5b5f35801560495762001fff810690815414603c575f5ffd5b62001fff01545f5260205ff35b5f5ffd5b62001fff42064281555f359062001fff015500",
                "storage": {}
            },
            "0x2c854741c819493b3a940ebc70c2ced66e29473d": {
                "nonce": "0x00",
                "balance": "0xffffffffffffffffffffffffffffffff",
                "code": "0x",
                "storage": {}
            },
            "0x8b9fd541d0178978dd230ad3e047ecc019d60d03": {
                "nonce": "0x00",
                "balance": "0x1b58",
                "code": "0x",
                "storage": {}
            },
            "0xbe855315b63d137b74d5eed6be5cd9dde6e2478d": {
                "nonce": "0x00",
                "balance": "0x0400",
                "code": "0x600160005401600055600060006000600073be855315b63d137b74d5eed6be5cd9dde6e2478d620186a060005402600101f46001556103e86000540260010160025500",
                "storage": {}
            }
        },
        "postState": {
            "0x000f3df6d732807ef1319fb7b8bb8522d0beac02": {
                "nonce": "0x01",
                "balance": "0x00",
                "code": "0x3373fffffffffffffffffffffffffffffffffffffffe14604d57602036146024575f5ffd5b5f35801560495762001fff810690815414603c575f5ffd5b62001fff01545f5260205ff35b5f5ffd5b62001fff42064281555f359062001fff015500",
                "storage": {
                    "0x03e8": "0x03e8"
                }
            },
            "0x2c854741c819493b3a940ebc70c2ced66e29473d": {
                "nonce": "0x01",
                "balance": "0xffffffffffffffffffffffffffe66685",
                "code": "0x",
                "storage": {}
            },
            "0x8b9fd541d0178978dd230ad3e047ecc019d60d03": {
                "nonce": "0x00",
                "balance": "0x1b58",
                "code": "0x",
                "storage": {}
            },
            "0xbe855315b63d137b74d5eed6be5cd9dde6e2478d": {
                "nonce": "0x00",
                "balance": "0x040a",
                "code": "0x600160005401600055600060006000600073be855315b63d137b74d5eed6be5cd9dde6e2478d620186a060005402600101f46001556103e86000540260010160025500",
                "storage": {
                    "0x00": "0x01",
                    "0x02": "0x03e9"
                }
            }
        },
        "lastblockhash": "0x472b7c622584846d06c34f1479b08fcc2df5b0b7c90b6fa0b84c5926f6bc9d15",
        "config": {
            "network": "Cancun",
            "chainid": "0x01",
            "blobSchedule": {
                "Cancun": {
                    "target": "0x03",
                    "max": "0x06",
                    "baseFeeUpdateFraction": "0x32f0ed"
                }
            }
        },
        "genesisRLP": "0xf9023cf90236a00000000000000000000000000000000000000000000000000000000000000000a01dcc4de8dec75d7aab85b567b6ccd41ad312451b948a7413f0a142fd40d49347940000000000000000000000000000000000000000a03784e9b1a571ecc3b539197b1c5cf8bde7eaaeb457f63ca16745ab7bdd44bb91a056e81f171bcc55a6ff8345e692c0f86e5b48e01b996cadc001622fb5e363b421a056e81f171bcc55a6ff8345e692c0f86e5b48e01b996cadc001622fb5e363b421b901000000000000000000000000000000000000000000000000000000000000000000000000000000000000000000000000000000000000000000000000000000000000000000000000000000000000000000000000000000000000000000000000000000000000000000000000000000000000000000000000000000000000000000000000000000000000000000000000000000000000000000000000000000000000000000000000000000000000000000000000000000000000000000000000000000000000000000000000000000000000000000000000000000000000000000000000000000000000000000000000000000000000000000000000000000000080808407270e00808000a000000000000000000000000000000000000000000000000000000000000000008800000000000000000ba056e81f171bcc55a6ff8345e692c0f86e5b48e01b996cadc001622fb5e363b4218080a00000000000000000000000000000000000000000000000000000000000000000c0c0c0",
        "blocks": [
            {
                "blockHeader": {
                    "parentHash": "0x00addadb5023a5a9c91f623e8d181f7bf07c84cc773175326e8d57b352453b5e",
                    "uncleHash": "0x1dcc4de8dec75d7aab85b567b6ccd41ad312451b948a7413f0a142fd40d49347",
                    "coinbase": "0xb94f5374fce5edbc8e2a8697c15331677e6ebf0b",
                    "stateRoot": "0x29cefd87de7a5aaacad36b791f09acb6bf10deb5141c562e63845f6eae5e6f11",
                    "transactionsTrie": "0x254646fc7ef09127c999741ebdbd7abd904f9a1ad44e2c1f824ba4a2775db080",
                    "receiptTrie": "0xbcbfc121439870b72f3ff0f77cff21947a7b680b33eaffdc19e799cc99ea8961",
                    "bloom": "0x00000000000000000000000000000000000000000000000000000000000000000000000000000000000000000000000000000000000000000000000000000000000000000000000000000000000000000000000000000000000000000000000000000000000000000000000000000000000000000000000000000000000000000000000000000000000000000000000000000000000000000000000000000000000000000000000000000000000000000000000000000000000000000000000000000000000000000000000000000000000000000000000000000000000000000000000000000000000000000000000000000000000000000000000000000000",
                    "difficulty": "0x00",
                    "number": "0x01",
                    "gasLimit": "0x07270e00",
                    "gasUsed": "0x028f58",
                    "timestamp": "0x03e8",
                    "extraData": "0x00",
                    "mixHash": "0x0000000000000000000000000000000000000000000000000000000000020000",
                    "nonce": "0x0000000000000000",
                    "baseFeePerGas": "0x0a",
                    "withdrawalsRoot": "0x56e81f171bcc55a6ff8345e692c0f86e5b48e01b996cadc001622fb5e363b421",
                    "blobGasUsed": "0x00",
                    "excessBlobGas": "0x00",
                    "parentBeaconBlockRoot": "0x0000000000000000000000000000000000000000000000000000000000000000",
                    "hash": "0x472b7c622584846d06c34f1479b08fcc2df5b0b7c90b6fa0b84c5926f6bc9d15"
                },
                "transactions": [
                    {
                        "type": "0x00",
                        "chainId": "0x01",
                        "nonce": "0x00",
                        "gasPrice": "0x0a",
                        "gasLimit": "0x030d40",
                        "to": "0xbe855315b63d137b74d5eed6be5cd9dde6e2478d",
                        "value": "0x0a",
                        "data": "0x",
                        "v": "0x25",
                        "r": "0x44461849c4c898fefd215966d2d4a4176a2b0be9579113d7f3fbd5c4fd504d63",
                        "s": "0x2c6e8a9564b035a61910ad8d5397ed9dafb8e61d48fd1289822f5783043fa66b",
                        "sender": "0x2c854741c819493b3a940ebc70c2ced66e29473d"
                    }
                ],
                "uncleHeaders": [],
                "withdrawals": [],
                "receipts": [
                    {
                        "transactionHash": "0x11134bcb40622ae580a5bf6287489ebaf36263b2c946ade44a11c2121c148dfd",
                        "type": "0x00",
                        "cumulativeGasUsed": "0x028f58",
                        "bloom": "0x00000000000000000000000000000000000000000000000000000000000000000000000000000000000000000000000000000000000000000000000000000000000000000000000000000000000000000000000000000000000000000000000000000000000000000000000000000000000000000000000000000000000000000000000000000000000000000000000000000000000000000000000000000000000000000000000000000000000000000000000000000000000000000000000000000000000000000000000000000000000000000000000000000000000000000000000000000000000000000000000000000000000000000000000000000000",
                        "logs": [],
                        "status": true,
                        "rlp": "0xf901090183028f58b9010000000000000000000000000000000000000000000000000000000000000000000000000000000000000000000000000000000000000000000000000000000000000000000000000000000000000000000000000000000000000000000000000000000000000000000000000000000000000000000000000000000000000000000000000000000000000000000000000000000000000000000000000000000000000000000000000000000000000000000000000000000000000000000000000000000000000000000000000000000000000000000000000000000000000000000000000000000000000000000000000000000000000000000000000000000000c0"
                    }
                ],
                "rlp": "0xf902a4f9023ba000addadb5023a5a9c91f623e8d181f7bf07c84cc773175326e8d57b352453b5ea01dcc4de8dec75d7aab85b567b6ccd41ad312451b948a7413f0a142fd40d4934794b94f5374fce5edbc8e2a8697c15331677e6ebf0ba029cefd87de7a5aaacad36b791f09acb6bf10deb5141c562e63845f6eae5e6f11a0254646fc7ef09127c999741ebdbd7abd904f9a1ad44e2c1f824ba4a2775db080a0bcbfc121439870b72f3ff0f77cff21947a7b680b33eaffdc19e799cc99ea8961b901000000000000000000000000000000000000000000000000000000000000000000000000000000000000000000000000000000000000000000000000000000000000000000000000000000000000000000000000000000000000000000000000000000000000000000000000000000000000000000000000000000000000000000000000000000000000000000000000000000000000000000000000000000000000000000000000000000000000000000000000000000000000000000000000000000000000000000000000000000000000000000000000000000000000000000000000000000000000000000000000000000000000000000000000000000000080018407270e0083028f588203e800a000000000000000000000000000000000000000000000000000000000000200008800000000000000000aa056e81f171bcc55a6ff8345e692c0f86e5b48e01b996cadc001622fb5e363b4218080a00000000000000000000000000000000000000000000000000000000000000000f862f860800a83030d4094be855315b63d137b74d5eed6be5cd9dde6e2478d0a8025a044461849c4c898fefd215966d2d4a4176a2b0be9579113d7f3fbd5c4fd504d63a02c6e8a9564b035a61910ad8d5397ed9dafb8e61d48fd1289822f5783043fa66bc0c0",
                "blocknumber": "1"
            }
        ],
        "sealEngine": "NoProof",
        "_info": {
            "hash": "0xfaa43e8965b3b81095ce76a786f429167485a5f4a96806926423da51007fed8e",
            "fixture-format": "blockchain_test",
            "comment": "`execution-specs` generated test",
            "filling-transition-tool": "2.19.0",
            "description": "Test_call_lose_gas_oog.",
            "url": "https://github.com/ethereum/execution-specs/blob/tests-snobal-devnet-5@v8037.0.0/tests/ported_static/stDelegatecallTestHomestead/test_call_lose_gas_oog.py#L26",
            "metadata": {
                "opcode_count": {}
            }
        }
    }
}