{
    "tests/ported_static/stSpecialTest/test_make_money.py::test_make_money[fork_Cancun-blockchain_test_from_state_test]": {
        "network": "Cancun",
        "genesisBlockHeader": {
            "parentHash": "0x0000000000000000000000000000000000000000000000000000000000000000",
            "uncleHash": "0x1dcc4de8dec75d7aab85b567b6ccd41ad312451b948a7413f0a142fd40d49347",
            "coinbase": "0x0000000000000000000000000000000000000000",
            "stateRoot": "0xcf44d613cd386e4b1daedb491642d3837c0b59fe75fa573ba034e767ec21415b",
            "transactionsTrie": "0x56e81f171bcc55a6ff8345e692c0f86e5b48e01b996cadc001622fb5e363b421",
            "receiptTrie": "0x56e81f171bcc55a6ff8345e692c0f86e5b48e01b996cadc001622fb5e363b421",
            "bloom": "0x00000000000000000000000000000000000000000000000000000000000000000000000000000000000000000000000000000000000000000000000000000000000000000000000000000000000000000000000000000000000000000000000000000000000000000000000000000000000000000000000000000000000000000000000000000000000000000000000000000000000000000000000000000000000000000000000000000000000000000000000000000000000000000000000000000000000000000000000000000000000000000000000000000000000000000000000000000000000000000000000000000000000000000000000000000000",
            "difficulty": "0x00",
            "number": "0x00",
            "gasLimit": "0x0f4240",
            "gasUsed": "0x00",
            "timestamp": "0x00",
            "extraData": "0x00",
            "mixHash": "0x0000000000000000000000000000000000000000000000000000000000000000",
            "nonce": "0x0000000000000000",
            "baseFeePerGas": "0x0b",
            "withdrawalsRoot": "0x56e81f171bcc55a6ff8345e692c0f86e5b48e01b996cadc001622fb5e363b421",
            "blobGasUsed": "0x00",
            "excessBlobGas": "0x00",
            "parentBeaconBlockRoot": "0x0000000000000000000000000000000000000000000000000000000000000000",
            "hash": "0x8a7a51ea3a00532694940330b0a9cdca3f4164dda0c6cadb2a6c716e0ab0141e"
        },
        "pre": {
            "0x000f3df6d732807ef1319fb7b8bb8522d0beac02": {
                "nonce": "0x01",
                "balance": "0x00",
                "code": "0x3373fffffffffffffffffffffffffffffffffffffffe14604d57602036146024575f5ffd5b5f35801560495762001fff810690815414603c575f5ffd5b62001fff01545f5260205ff35b5f5ffd5b62001fff42064281555f359062001fff015500",
                "storage": {}
            },
            "0x56f6da36928bffd1fdb9eade8a5b8baffde0dea4": {
                "nonce": "0x00",
                "balance": "0x0de0b6b3a7640000",
                "code": "0x7b601080600c6000396000f200600035541560095700602035600035556000526000600060006000601773802edccf6cde9162a05fd89cdfcd8dc4a230b9787fffffffffffffffffffffffffffffffffffffffffffffffffffffffffffffffecf100",
                "storage": {}
            },
            "0xc4a2ca1058df329e5da4755f9921ddaf05cbaa06": {
                "nonce": "0x00",
                "balance": "0x3b9aca00",
                "code": "0x",
                "storage": {}
            },
            "0x802edccf6cde9162a05fd89cdfcd8dc4a230b978": {
                "nonce": "0x00",
                "balance": "0x0de0b6b3a7640000",
                "code": "0x600160015532600255",
                "storage": {}
            }
        },
        "postState": {
            "0x000f3df6d732807ef1319fb7b8bb8522d0beac02": {
                "nonce": "0x01",
                "balance": "0x00",
                "code": "0x3373fffffffffffffffffffffffffffffffffffffffe14604d57602036146024575f5ffd5b5f35801560495762001fff810690815414603c575f5ffd5b62001fff01545f5260205ff35b5f5ffd5b62001fff42064281555f359062001fff015500",
                "storage": {
                    "0x03e8": "0x03e8"
                }
            },
            "0x56f6da36928bffd1fdb9eade8a5b8baffde0dea4": {
                "nonce": "0x00",
                "balance": "0x0de0b6b3a763fff3",
                "code": "0x7b601080600c6000396000f200600035541560095700602035600035556000526000600060006000601773802edccf6cde9162a05fd89cdfcd8dc4a230b9787fffffffffffffffffffffffffffffffffffffffffffffffffffffffffffffffecf100",
                "storage": {}
            },
            "0xc4a2ca1058df329e5da4755f9921ddaf05cbaa06": {
                "nonce": "0x01",
                "balance": "0x3b8f6a16",
                "code": "0x",
                "storage": {}
            },
            "0x802edccf6cde9162a05fd89cdfcd8dc4a230b978": {
                "nonce": "0x00",
                "balance": "0x0de0b6b3a7640017",
                "code": "0x600160015532600255",
                "storage": {
                    "0x01": "0x01",
                    "0x02": "0xc4a2ca1058df329e5da4755f9921ddaf05cbaa06"
                }
            }
        },
        "lastblockhash": "0x1a47eb93db659b98213c93bccac1b5e515a08e5034c7d491758f0f505f12f373",
        "config": {
            "network": "Cancun",
            "chainid": "0x01",
            "blobSchedule": {
                "Cancun": {
                    "target": "0x03",
                    "max": "0x06",
                    "baseFeeUpdateFraction": "0x32f0ed"
                }
            }
        },
        "genesisRLP": "0xf9023bf90235a00000000000000000000000000000000000000000000000000000000000000000a01dcc4de8dec75d7aab85b567b6ccd41ad312451b948a7413f0a142fd40d49347940000000000000000000000000000000000000000a0cf44d613cd386e4b1daedb491642d3837c0b59fe75fa573ba034e767ec21415ba056e81f171bcc55a6ff8345e692c0f86e5b48e01b996cadc001622fb5e363b421a056e81f171bcc55a6ff8345e692c0f86e5b48e01b996cadc001622fb5e363b421b90100000000000000000000000000000000000000000000000000000000000000000000000000000000000000000000000000000000000000000000000000000000000000000000000000000000000000000000000000000000000000000000000000000000000000000000000000000000000000000000000000000000000000000000000000000000000000000000000000000000000000000000000000000000000000000000000000000000000000000000000000000000000000000000000000000000000000000000000000000000000000000000000000000000000000000000000000000000000000000000000000000000000000000000000000000000008080830f4240808000a000000000000000000000000000000000000000000000000000000000000000008800000000000000000ba056e81f171bcc55a6ff8345e692c0f86e5b48e01b996cadc001622fb5e363b4218080a00000000000000000000000000000000000000000000000000000000000000000c0c0c0",
        "blocks": [
            {
                "blockHeader": {
                    "parentHash": "0x8a7a51ea3a00532694940330b0a9cdca3f4164dda0c6cadb2a6c716e0ab0141e",
                    "uncleHash": "0x1dcc4de8dec75d7aab85b567b6ccd41ad312451b948a7413f0a142fd40d49347",
                    "coinbase": "0x2adc25665018aa1fe0e6bc666dac8fc2697ff9ba",
                    "stateRoot": "0xd8126d5d97c5ee14d3f1f5d97e015e4018ebf2363e759a1912bd3dc6ddb1a357",
                    "transactionsTrie": "0x2d64da4004599b366c047784c59f7cf9d4fc8885f57581d8764fe023f82dddae",
                    "receiptTrie": "0x0b2135dacbbf697023b0e0b61cd9756e85c232a57b67a4db49960a55c6df20ed",
                    "bloom": "0x00000000000000000000000000000000000000000000000000000000000000000000000000000000000000000000000000000000000000000000000000000000000000000000000000000000000000000000000000000000000000000000000000000000000000000000000000000000000000000000000000000000000000000000000000000000000000000000000000000000000000000000000000000000000000000000000000000000000000000000000000000000000000000000000000000000000000000000000000000000000000000000000000000000000000000000000000000000000000000000000000000000000000000000000000000000",
                    "difficulty": "0x00",
                    "number": "0x01",
                    "gasLimit": "0x0f4240",
                    "gasUsed": "0x012330",
                    "timestamp": "0x03e8",
                    "extraData": "0x00",
                    "mixHash": "0x0000000000000000000000000000000000000000000000000000000000020000",
                    "nonce": "0x0000000000000000",
                    "baseFeePerGas": "0x0a",
                    "withdrawalsRoot": "0x56e81f171bcc55a6ff8345e692c0f86e5b48e01b996cadc001622fb5e363b421",
                    "blobGasUsed": "0x00",
                    "excessBlobGas": "0x00",
                    "parentBeaconBlockRoot": "0x0000000000000000000000000000000000000000000000000000000000000000",
                    "hash": "0x1a47eb93db659b98213c93bccac1b5e515a08e5034c7d491758f0f505f12f373"
                },
                "transactions": [
                    {
                        "type": "0x00",
                        "chainId": "0x01",
                        "nonce": "0x00",
                        "gasPrice": "0x0a",
                        "gasLimit": "0x037c94",
                        "to": "0x56f6da36928bffd1fdb9eade8a5b8baffde0dea4",
                        "value": "0x0a",
                        "data": "0x",
                        "v": "0x25",
                        "r": "0x5dacf45eacc4493cc9969dade6954e34eba066eae058fc41384a353b0170df14",
                        "s": "0x33199b7a7bd4e27b428c983a891bee0cf854633d9fca2221426d859797d35c9b",
                        "sender": "0xc4a2ca1058df329e5da4755f9921ddaf05cbaa06"
                    }
                ],
                "uncleHeaders": [],
                "withdrawals": [],
                "receipts": [
                    {
                        "transactionHash": "0x33bff430885d1fe89c89db276ee8170a18521eb2af3aa8967fff8217d479b629",
                        "type": "0x00",
                        "cumulativeGasUsed": "0x012330",
                        "bloom": "0x00000000000000000000000000000000000000000000000000000000000000000000000000000000000000000000000000000000000000000000000000000000000000000000000000000000000000000000000000000000000000000000000000000000000000000000000000000000000000000000000000000000000000000000000000000000000000000000000000000000000000000000000000000000000000000000000000000000000000000000000000000000000000000000000000000000000000000000000000000000000000000000000000000000000000000000000000000000000000000000000000000000000000000000000000000000",
                        "logs": [],
                        "status": true,
                        "rlp": "0xf901090183012330b9010000000000000000000000000000000000000000000000000000000000000000000000000000000000000000000000000000000000000000000000000000000000000000000000000000000000000000000000000000000000000000000000000000000000000000000000000000000000000000000000000000000000000000000000000000000000000000000000000000000000000000000000000000000000000000000000000000000000000000000000000000000000000000000000000000000000000000000000000000000000000000000000000000000000000000000000000000000000000000000000000000000000000000000000000000000000c0"
                    }
                ],
                "rlp": "0xf902a3f9023aa08a7a51ea3a00532694940330b0a9cdca3f4164dda0c6cadb2a6c716e0ab0141ea01dcc4de8dec75d7aab85b567b6ccd41ad312451b948a7413f0a142fd40d49347942adc25665018aa1fe0e6bc666dac8fc2697ff9baa0d8126d5d97c5ee14d3f1f5d97e015e4018ebf2363e759a1912bd3dc6ddb1a357a02d64da4004599b366c047784c59f7cf9d4fc8885f57581d8764fe023f82dddaea00b2135dacbbf697023b0e0b61cd9756e85c232a57b67a4db49960a55c6df20edb90100000000000000000000000000000000000000000000000000000000000000000000000000000000000000000000000000000000000000000000000000000000000000000000000000000000000000000000000000000000000000000000000000000000000000000000000000000000000000000000000000000000000000000000000000000000000000000000000000000000000000000000000000000000000000000000000000000000000000000000000000000000000000000000000000000000000000000000000000000000000000000000000000000000000000000000000000000000000000000000000000000000000000000000000000000000008001830f4240830123308203e800a000000000000000000000000000000000000000000000000000000000000200008800000000000000000aa056e81f171bcc55a6ff8345e692c0f86e5b48e01b996cadc001622fb5e363b4218080a00000000000000000000000000000000000000000000000000000000000000000f862f860800a83037c949456f6da36928bffd1fdb9eade8a5b8baffde0dea40a8025a05dacf45eacc4493cc9969dade6954e34eba066eae058fc41384a353b0170df14a033199b7a7bd4e27b428c983a891bee0cf854633d9fca2221426d859797d35c9bc0c0",
                "blocknumber": "1"
            }
        ],
        "sealEngine": "NoProof",
        "_info": {
            "hash": "0x07791f7952bec9002ccb92e69cfdd917da78d85001d3244c9a789a9b09fe4bca",
            "fixture-format": "blockchain_test",
            "comment": "`execution-specs` generated test",
            "filling-transition-tool": "2.19.0",
            "description": "Test_make_money.",
            "url": "https://github.com/ethereum/execution-specs/blob/tests-bal@v5.6.1/tests/ported_static/stSpecialTest/test_make_money.py#L25",
            "metadata": {
                "opcode_count": {}
            }
        }
    }
}