{
    "tests/ported_static/stSpecialTest/test_make_money.py::test_make_money[fork_Cancun-blockchain_test_from_state_test]": {
        "network": "Cancun",
        "genesisBlockHeader": {
            "parentHash": "0x0000000000000000000000000000000000000000000000000000000000000000",
            "uncleHash": "0x1dcc4de8dec75d7aab85b567b6ccd41ad312451b948a7413f0a142fd40d49347",
            "coinbase": "0x0000000000000000000000000000000000000000",
            "stateRoot": "0xbad549d39dd1686fb3182832231309900166b67787076db5cf16de72ac5224e3",
            "transactionsTrie": "0x56e81f171bcc55a6ff8345e692c0f86e5b48e01b996cadc001622fb5e363b421",
            "receiptTrie": "0x56e81f171bcc55a6ff8345e692c0f86e5b48e01b996cadc001622fb5e363b421",
            "bloom": "0x00000000000000000000000000000000000000000000000000000000000000000000000000000000000000000000000000000000000000000000000000000000000000000000000000000000000000000000000000000000000000000000000000000000000000000000000000000000000000000000000000000000000000000000000000000000000000000000000000000000000000000000000000000000000000000000000000000000000000000000000000000000000000000000000000000000000000000000000000000000000000000000000000000000000000000000000000000000000000000000000000000000000000000000000000000000",
            "difficulty": "0x00",
            "number": "0x00",
            "gasLimit": "0x0f4240",
            "gasUsed": "0x00",
            "timestamp": "0x00",
            "extraData": "0x00",
            "mixHash": "0x0000000000000000000000000000000000000000000000000000000000000000",
            "nonce": "0x0000000000000000",
            "baseFeePerGas": "0x0b",
            "withdrawalsRoot": "0x56e81f171bcc55a6ff8345e692c0f86e5b48e01b996cadc001622fb5e363b421",
            "blobGasUsed": "0x00",
            "excessBlobGas": "0x00",
            "parentBeaconBlockRoot": "0x0000000000000000000000000000000000000000000000000000000000000000",
            "hash": "0x2dbe22cecc9ed98239a5a7faed62fabaa69499c68ae11af2d6a5f1680fcf907a"
        },
        "pre": {
            "0x000f3df6d732807ef1319fb7b8bb8522d0beac02": {
                "nonce": "0x01",
                "balance": "0x00",
                "code": "0x3373fffffffffffffffffffffffffffffffffffffffe14604d57602036146024575f5ffd5b5f35801560495762001fff810690815414603c575f5ffd5b62001fff01545f5260205ff35b5f5ffd5b62001fff42064281555f359062001fff015500",
                "storage": {}
            },
            "0x60478971839c84963db1986c096a4f416ff31f42": {
                "nonce": "0x00",
                "balance": "0x3b9aca00",
                "code": "0x",
                "storage": {}
            },
            "0x7ed37b1cc43ac66fa155e39879b4658600679809": {
                "nonce": "0x00",
                "balance": "0x0de0b6b3a7640000",
                "code": "0x600160015532600255",
                "storage": {}
            },
            "0x0d9361774ed0358f08fc5714c8cdaf1828613761": {
                "nonce": "0x00",
                "balance": "0x0de0b6b3a7640000",
                "code": "0x7b601080600c6000396000f2006000355415600957006020356000355560005260006000600060006017737ed37b1cc43ac66fa155e39879b46586006798097fffffffffffffffffffffffffffffffffffffffffffffffffffffffffffffffecf100",
                "storage": {}
            }
        },
        "postState": {
            "0x000f3df6d732807ef1319fb7b8bb8522d0beac02": {
                "nonce": "0x01",
                "balance": "0x00",
                "code": "0x3373fffffffffffffffffffffffffffffffffffffffe14604d57602036146024575f5ffd5b5f35801560495762001fff810690815414603c575f5ffd5b62001fff01545f5260205ff35b5f5ffd5b62001fff42064281555f359062001fff015500",
                "storage": {
                    "0x03e8": "0x03e8"
                }
            },
            "0x60478971839c84963db1986c096a4f416ff31f42": {
                "nonce": "0x01",
                "balance": "0x3b8f6a16",
                "code": "0x",
                "storage": {}
            },
            "0x7ed37b1cc43ac66fa155e39879b4658600679809": {
                "nonce": "0x00",
                "balance": "0x0de0b6b3a7640017",
                "code": "0x600160015532600255",
                "storage": {
                    "0x01": "0x01",
                    "0x02": "0x60478971839c84963db1986c096a4f416ff31f42"
                }
            },
            "0x0d9361774ed0358f08fc5714c8cdaf1828613761": {
                "nonce": "0x00",
                "balance": "0x0de0b6b3a763fff3",
                "code": "0x7b601080600c6000396000f2006000355415600957006020356000355560005260006000600060006017737ed37b1cc43ac66fa155e39879b46586006798097fffffffffffffffffffffffffffffffffffffffffffffffffffffffffffffffecf100",
                "storage": {}
            }
        },
        "lastblockhash": "0x887373b9fb3f5085e3011dddec5d34d88ce7708170042a40fa85798adbfd6040",
        "config": {
            "network": "Cancun",
            "chainid": "0x01",
            "blobSchedule": {
                "Cancun": {
                    "target": "0x03",
                    "max": "0x06",
                    "baseFeeUpdateFraction": "0x32f0ed"
                }
            }
        },
        "genesisRLP": "0xf9023bf90235a00000000000000000000000000000000000000000000000000000000000000000a01dcc4de8dec75d7aab85b567b6ccd41ad312451b948a7413f0a142fd40d49347940000000000000000000000000000000000000000a0bad549d39dd1686fb3182832231309900166b67787076db5cf16de72ac5224e3a056e81f171bcc55a6ff8345e692c0f86e5b48e01b996cadc001622fb5e363b421a056e81f171bcc55a6ff8345e692c0f86e5b48e01b996cadc001622fb5e363b421b90100000000000000000000000000000000000000000000000000000000000000000000000000000000000000000000000000000000000000000000000000000000000000000000000000000000000000000000000000000000000000000000000000000000000000000000000000000000000000000000000000000000000000000000000000000000000000000000000000000000000000000000000000000000000000000000000000000000000000000000000000000000000000000000000000000000000000000000000000000000000000000000000000000000000000000000000000000000000000000000000000000000000000000000000000000000008080830f4240808000a000000000000000000000000000000000000000000000000000000000000000008800000000000000000ba056e81f171bcc55a6ff8345e692c0f86e5b48e01b996cadc001622fb5e363b4218080a00000000000000000000000000000000000000000000000000000000000000000c0c0c0",
        "blocks": [
            {
                "blockHeader": {
                    "parentHash": "0x2dbe22cecc9ed98239a5a7faed62fabaa69499c68ae11af2d6a5f1680fcf907a",
                    "uncleHash": "0x1dcc4de8dec75d7aab85b567b6ccd41ad312451b948a7413f0a142fd40d49347",
                    "coinbase": "0x2adc25665018aa1fe0e6bc666dac8fc2697ff9ba",
                    "stateRoot": "0x54b026dbcc7acc891fe79eabcdd7b6c779800cd59a63fea8f2433c469b345141",
                    "transactionsTrie": "0x699a488cc52409c062354aa05c13c3c7152df8f142f9f4bbd9c32a9679e92b25",
                    "receiptTrie": "0x0b2135dacbbf697023b0e0b61cd9756e85c232a57b67a4db49960a55c6df20ed",
                    "bloom": "0x00000000000000000000000000000000000000000000000000000000000000000000000000000000000000000000000000000000000000000000000000000000000000000000000000000000000000000000000000000000000000000000000000000000000000000000000000000000000000000000000000000000000000000000000000000000000000000000000000000000000000000000000000000000000000000000000000000000000000000000000000000000000000000000000000000000000000000000000000000000000000000000000000000000000000000000000000000000000000000000000000000000000000000000000000000000",
                    "difficulty": "0x00",
                    "number": "0x01",
                    "gasLimit": "0x0f4240",
                    "gasUsed": "0x012330",
                    "timestamp": "0x03e8",
                    "extraData": "0x00",
                    "mixHash": "0x0000000000000000000000000000000000000000000000000000000000020000",
                    "nonce": "0x0000000000000000",
                    "baseFeePerGas": "0x0a",
                    "withdrawalsRoot": "0x56e81f171bcc55a6ff8345e692c0f86e5b48e01b996cadc001622fb5e363b421",
                    "blobGasUsed": "0x00",
                    "excessBlobGas": "0x00",
                    "parentBeaconBlockRoot": "0x0000000000000000000000000000000000000000000000000000000000000000",
                    "hash": "0x887373b9fb3f5085e3011dddec5d34d88ce7708170042a40fa85798adbfd6040"
                },
                "transactions": [
                    {
                        "type": "0x00",
                        "chainId": "0x01",
                        "nonce": "0x00",
                        "gasPrice": "0x0a",
                        "gasLimit": "0x037c94",
                        "to": "0x0d9361774ed0358f08fc5714c8cdaf1828613761",
                        "value": "0x0a",
                        "data": "0x",
                        "v": "0x26",
                        "r": "0xae3f07e40d8f6dd59ade7d19def9429ea271d49566a99f261f4408a978e27097",
                        "s": "0x3e719982fabf00e7bd43959081aa2e8f6953d933ae6ece3558fa3737da8d5e80",
                        "sender": "0x60478971839c84963db1986c096a4f416ff31f42"
                    }
                ],
                "uncleHeaders": [],
                "withdrawals": [],
                "receipts": [
                    {
                        "transactionHash": "0x4efc6be70a0d4049b7321ab2cd57a896556e0eb83804b6d2a5b6a5de8cb2f54a",
                        "type": "0x00",
                        "cumulativeGasUsed": "0x012330",
                        "bloom": "0x00000000000000000000000000000000000000000000000000000000000000000000000000000000000000000000000000000000000000000000000000000000000000000000000000000000000000000000000000000000000000000000000000000000000000000000000000000000000000000000000000000000000000000000000000000000000000000000000000000000000000000000000000000000000000000000000000000000000000000000000000000000000000000000000000000000000000000000000000000000000000000000000000000000000000000000000000000000000000000000000000000000000000000000000000000000",
                        "logs": [],
                        "status": true,
                        "rlp": "0xf901090183012330b9010000000000000000000000000000000000000000000000000000000000000000000000000000000000000000000000000000000000000000000000000000000000000000000000000000000000000000000000000000000000000000000000000000000000000000000000000000000000000000000000000000000000000000000000000000000000000000000000000000000000000000000000000000000000000000000000000000000000000000000000000000000000000000000000000000000000000000000000000000000000000000000000000000000000000000000000000000000000000000000000000000000000000000000000000000000000c0"
                    }
                ],
                "rlp": "0xf902a3f9023aa02dbe22cecc9ed98239a5a7faed62fabaa69499c68ae11af2d6a5f1680fcf907aa01dcc4de8dec75d7aab85b567b6ccd41ad312451b948a7413f0a142fd40d49347942adc25665018aa1fe0e6bc666dac8fc2697ff9baa054b026dbcc7acc891fe79eabcdd7b6c779800cd59a63fea8f2433c469b345141a0699a488cc52409c062354aa05c13c3c7152df8f142f9f4bbd9c32a9679e92b25a00b2135dacbbf697023b0e0b61cd9756e85c232a57b67a4db49960a55c6df20edb90100000000000000000000000000000000000000000000000000000000000000000000000000000000000000000000000000000000000000000000000000000000000000000000000000000000000000000000000000000000000000000000000000000000000000000000000000000000000000000000000000000000000000000000000000000000000000000000000000000000000000000000000000000000000000000000000000000000000000000000000000000000000000000000000000000000000000000000000000000000000000000000000000000000000000000000000000000000000000000000000000000000000000000000000000000000008001830f4240830123308203e800a000000000000000000000000000000000000000000000000000000000000200008800000000000000000aa056e81f171bcc55a6ff8345e692c0f86e5b48e01b996cadc001622fb5e363b4218080a00000000000000000000000000000000000000000000000000000000000000000f862f860800a83037c94940d9361774ed0358f08fc5714c8cdaf18286137610a8026a0ae3f07e40d8f6dd59ade7d19def9429ea271d49566a99f261f4408a978e27097a03e719982fabf00e7bd43959081aa2e8f6953d933ae6ece3558fa3737da8d5e80c0c0",
                "blocknumber": "1"
            }
        ],
        "sealEngine": "NoProof",
        "_info": {
            "hash": "0xd4f5782ca11898f2b95a1c03346431fa856db1612b45e13e81b47a700e91ff68",
            "fixture-format": "blockchain_test",
            "comment": "`execution-specs` generated test",
            "filling-transition-tool": "2.19.0",
            "description": "Test_make_money.",
            "url": "https://github.com/ethereum/execution-specs/blob/tests-snobal-devnet-5@v8037.0.0/tests/ported_static/stSpecialTest/test_make_money.py#L24",
            "metadata": {
                "opcode_count": {}
            }
        }
    }
}