{
    "tests/ported_static/stStaticCall/test_static_call1_mb1024_calldepth.py::test_static_call1_mb1024_calldepth[fork_Cancun-blockchain_test_from_state_test-d0]": {
        "network": "Cancun",
        "genesisBlockHeader": {
            "parentHash": "0x0000000000000000000000000000000000000000000000000000000000000000",
            "uncleHash": "0x1dcc4de8dec75d7aab85b567b6ccd41ad312451b948a7413f0a142fd40d49347",
            "coinbase": "0x0000000000000000000000000000000000000000",
            "stateRoot": "0xd35fef0cfe790b0b86661207c47ba3732ec45d81a869c97c2fd9ec0d4b6a68b7",
            "transactionsTrie": "0x56e81f171bcc55a6ff8345e692c0f86e5b48e01b996cadc001622fb5e363b421",
            "receiptTrie": "0x56e81f171bcc55a6ff8345e692c0f86e5b48e01b996cadc001622fb5e363b421",
            "bloom": "0x00000000000000000000000000000000000000000000000000000000000000000000000000000000000000000000000000000000000000000000000000000000000000000000000000000000000000000000000000000000000000000000000000000000000000000000000000000000000000000000000000000000000000000000000000000000000000000000000000000000000000000000000000000000000000000000000000000000000000000000000000000000000000000000000000000000000000000000000000000000000000000000000000000000000000000000000000000000000000000000000000000000000000000000000000000000",
            "difficulty": "0x00",
            "number": "0x00",
            "gasLimit": "0xcfcd253d00",
            "gasUsed": "0x00",
            "timestamp": "0x00",
            "extraData": "0x00",
            "mixHash": "0x0000000000000000000000000000000000000000000000000000000000000000",
            "nonce": "0x0000000000000000",
            "baseFeePerGas": "0x0b",
            "withdrawalsRoot": "0x56e81f171bcc55a6ff8345e692c0f86e5b48e01b996cadc001622fb5e363b421",
            "blobGasUsed": "0x00",
            "excessBlobGas": "0x00",
            "parentBeaconBlockRoot": "0x0000000000000000000000000000000000000000000000000000000000000000",
            "hash": "0xef1016f657493f0998c6e866814aaefd7832162c4e5463f89ddfff5dcd2ece66"
        },
        "pre": {
            "0x000f3df6d732807ef1319fb7b8bb8522d0beac02": {
                "nonce": "0x01",
                "balance": "0x00",
                "code": "0x3373fffffffffffffffffffffffffffffffffffffffe14604d57602036146024575f5ffd5b5f35801560495762001fff810690815414603c575f5ffd5b62001fff01545f5260205ff35b5f5ffd5b62001fff42064281555f359062001fff015500",
                "storage": {}
            },
            "0x2c854741c819493b3a940ebc70c2ced66e29473d": {
                "nonce": "0x00",
                "balance": "0xffffffffffffffffffffffffffffffff",
                "code": "0x",
                "storage": {}
            },
            "0x0429dc02eaa931a0b4f3b27c7ab9406223d582bf": {
                "nonce": "0x00",
                "balance": "0x0fffffffffffff",
                "code": "0x",
                "storage": {}
            },
            "0xb16dbbe237612935e6611c3f5fb7d80eb0046801": {
                "nonce": "0x00",
                "balance": "0x0fffffffffffff",
                "code": "0x600060006000600060006000355af160005500",
                "storage": {}
            },
            "0xa79ae640e38871970f579f62237dfe2705068825": {
                "nonce": "0x00",
                "balance": "0x0fffffffffffff",
                "code": "0x60016000540160005561040060005410601b5760016002556045565b60006000620f4240600073a79ae640e38871970f579f62237dfe2705068825620f55c85a03fa6001555b00",
                "storage": {}
            },
            "0x583aa587d7d852a5b8448cc4160537d9bd12c889": {
                "nonce": "0x00",
                "balance": "0x0fffffffffffff",
                "code": "0x60016000510160005261040060005110601b5760016040526045565b60006000620f4240600073583aa587d7d852a5b8448cc4160537d9bd12c889620f55c85a03fa6020525b00",
                "storage": {}
            }
        },
        "postState": {
            "0x000f3df6d732807ef1319fb7b8bb8522d0beac02": {
                "nonce": "0x01",
                "balance": "0x00",
                "code": "0x3373fffffffffffffffffffffffffffffffffffffffe14604d57602036146024575f5ffd5b5f35801560495762001fff810690815414603c575f5ffd5b62001fff01545f5260205ff35b5f5ffd5b62001fff42064281555f359062001fff015500",
                "storage": {
                    "0x03e8": "0x03e8"
                }
            },
            "0x2c854741c819493b3a940ebc70c2ced66e29473d": {
                "nonce": "0x01",
                "balance": "0xfffffffffffffffffffff838fa661c51",
                "code": "0x",
                "storage": {}
            },
            "0x0429dc02eaa931a0b4f3b27c7ab9406223d582bf": {
                "nonce": "0x00",
                "balance": "0x0fffffffffffff",
                "code": "0x",
                "storage": {}
            },
            "0xb16dbbe237612935e6611c3f5fb7d80eb0046801": {
                "nonce": "0x00",
                "balance": "0x10000000000009",
                "code": "0x600060006000600060006000355af160005500",
                "storage": {
                    "0x00": "0x01"
                }
            },
            "0xa79ae640e38871970f579f62237dfe2705068825": {
                "nonce": "0x00",
                "balance": "0x0fffffffffffff",
                "code": "0x60016000540160005561040060005410601b5760016002556045565b60006000620f4240600073a79ae640e38871970f579f62237dfe2705068825620f55c85a03fa6001555b00",
                "storage": {
                    "0x00": "0x01"
                }
            },
            "0x583aa587d7d852a5b8448cc4160537d9bd12c889": {
                "nonce": "0x00",
                "balance": "0x0fffffffffffff",
                "code": "0x60016000510160005261040060005110601b5760016040526045565b60006000620f4240600073583aa587d7d852a5b8448cc4160537d9bd12c889620f55c85a03fa6020525b00",
                "storage": {}
            }
        },
        "lastblockhash": "0xb2d41bf8fd5503b12e3c2bdef30087aeccf1b32461d6a5fd1afec5de88b4eba2",
        "config": {
            "network": "Cancun",
            "chainid": "0x01",
            "blobSchedule": {
                "Cancun": {
                    "target": "0x03",
                    "max": "0x06",
                    "baseFeeUpdateFraction": "0x32f0ed"
                }
            }
        },
        "genesisRLP": "0xf9023df90237a00000000000000000000000000000000000000000000000000000000000000000a01dcc4de8dec75d7aab85b567b6ccd41ad312451b948a7413f0a142fd40d49347940000000000000000000000000000000000000000a0d35fef0cfe790b0b86661207c47ba3732ec45d81a869c97c2fd9ec0d4b6a68b7a056e81f171bcc55a6ff8345e692c0f86e5b48e01b996cadc001622fb5e363b421a056e81f171bcc55a6ff8345e692c0f86e5b48e01b996cadc001622fb5e363b421b9010000000000000000000000000000000000000000000000000000000000000000000000000000000000000000000000000000000000000000000000000000000000000000000000000000000000000000000000000000000000000000000000000000000000000000000000000000000000000000000000000000000000000000000000000000000000000000000000000000000000000000000000000000000000000000000000000000000000000000000000000000000000000000000000000000000000000000000000000000000000000000000000000000000000000000000000000000000000000000000000000000000000000000000000000000000000808085cfcd253d00808000a000000000000000000000000000000000000000000000000000000000000000008800000000000000000ba056e81f171bcc55a6ff8345e692c0f86e5b48e01b996cadc001622fb5e363b4218080a00000000000000000000000000000000000000000000000000000000000000000c0c0c0",
        "blocks": [
            {
                "blockHeader": {
                    "parentHash": "0xef1016f657493f0998c6e866814aaefd7832162c4e5463f89ddfff5dcd2ece66",
                    "uncleHash": "0x1dcc4de8dec75d7aab85b567b6ccd41ad312451b948a7413f0a142fd40d49347",
                    "coinbase": "0xb94f5374fce5edbc8e2a8697c15331677e6ebf0b",
                    "stateRoot": "0x0b465aa1f398d2264913a3d8ef908f52f646f736960d9a5dc477bfdd991aac79",
                    "transactionsTrie": "0x464e18a88a684d78c31bda24e5f6822c70ddf1caf995cc02009086f239bd29a8",
                    "receiptTrie": "0x862d48ef28bbffe6ee9536aa127a94c72fe68b97f12fd7ea224226343910b701",
                    "bloom": "0x00000000000000000000000000000000000000000000000000000000000000000000000000000000000000000000000000000000000000000000000000000000000000000000000000000000000000000000000000000000000000000000000000000000000000000000000000000000000000000000000000000000000000000000000000000000000000000000000000000000000000000000000000000000000000000000000000000000000000000000000000000000000000000000000000000000000000000000000000000000000000000000000000000000000000000000000000000000000000000000000000000000000000000000000000000000",
                    "difficulty": "0x00",
                    "number": "0x01",
                    "gasLimit": "0xcfcd253d00",
                    "gasUsed": "0xc71a28fd2a",
                    "timestamp": "0x03e8",
                    "extraData": "0x00",
                    "mixHash": "0x0000000000000000000000000000000000000000000000000000000000020000",
                    "nonce": "0x0000000000000000",
                    "baseFeePerGas": "0x0a",
                    "withdrawalsRoot": "0x56e81f171bcc55a6ff8345e692c0f86e5b48e01b996cadc001622fb5e363b421",
                    "blobGasUsed": "0x00",
                    "excessBlobGas": "0x00",
                    "parentBeaconBlockRoot": "0x0000000000000000000000000000000000000000000000000000000000000000",
                    "hash": "0xb2d41bf8fd5503b12e3c2bdef30087aeccf1b32461d6a5fd1afec5de88b4eba2"
                },
                "transactions": [
                    {
                        "type": "0x00",
                        "chainId": "0x01",
                        "nonce": "0x00",
                        "gasPrice": "0x0a",
                        "gasLimit": "0xcd79195900",
                        "to": "0xb16dbbe237612935e6611c3f5fb7d80eb0046801",
                        "value": "0x0a",
                        "data": "0x000000000000000000000000a79ae640e38871970f579f62237dfe2705068825",
                        "v": "0x25",
                        "r": "0xde4e8f7cc87fcaf3ca0f506f4bbb27758b3d8be31d396e8c3d9a8b34ce5aadb7",
                        "s": "0x2ee0fda15f87dcee86f87cddba7eb46178e797079c6e4421c3b38072ff798292",
                        "sender": "0x2c854741c819493b3a940ebc70c2ced66e29473d"
                    }
                ],
                "uncleHeaders": [],
                "withdrawals": [],
                "receipts": [
                    {
                        "transactionHash": "0xa6a63da2f3669d43f50ec780b2a5c636c1d3f3c4896c08aebd3ffaefd3affe64",
                        "type": "0x00",
                        "cumulativeGasUsed": "0xc71a28fd2a",
                        "bloom": "0x00000000000000000000000000000000000000000000000000000000000000000000000000000000000000000000000000000000000000000000000000000000000000000000000000000000000000000000000000000000000000000000000000000000000000000000000000000000000000000000000000000000000000000000000000000000000000000000000000000000000000000000000000000000000000000000000000000000000000000000000000000000000000000000000000000000000000000000000000000000000000000000000000000000000000000000000000000000000000000000000000000000000000000000000000000000",
                        "logs": [],
                        "status": true,
                        "rlp": "0xf9010b0185c71a28fd2ab9010000000000000000000000000000000000000000000000000000000000000000000000000000000000000000000000000000000000000000000000000000000000000000000000000000000000000000000000000000000000000000000000000000000000000000000000000000000000000000000000000000000000000000000000000000000000000000000000000000000000000000000000000000000000000000000000000000000000000000000000000000000000000000000000000000000000000000000000000000000000000000000000000000000000000000000000000000000000000000000000000000000000000000000000000000000000c0"
                    }
                ],
                "rlp": "0xf902c9f9023ea0ef1016f657493f0998c6e866814aaefd7832162c4e5463f89ddfff5dcd2ece66a01dcc4de8dec75d7aab85b567b6ccd41ad312451b948a7413f0a142fd40d4934794b94f5374fce5edbc8e2a8697c15331677e6ebf0ba00b465aa1f398d2264913a3d8ef908f52f646f736960d9a5dc477bfdd991aac79a0464e18a88a684d78c31bda24e5f6822c70ddf1caf995cc02009086f239bd29a8a0862d48ef28bbffe6ee9536aa127a94c72fe68b97f12fd7ea224226343910b701b9010000000000000000000000000000000000000000000000000000000000000000000000000000000000000000000000000000000000000000000000000000000000000000000000000000000000000000000000000000000000000000000000000000000000000000000000000000000000000000000000000000000000000000000000000000000000000000000000000000000000000000000000000000000000000000000000000000000000000000000000000000000000000000000000000000000000000000000000000000000000000000000000000000000000000000000000000000000000000000000000000000000000000000000000000000000000800185cfcd253d0085c71a28fd2a8203e800a000000000000000000000000000000000000000000000000000000000000200008800000000000000000aa056e81f171bcc55a6ff8345e692c0f86e5b48e01b996cadc001622fb5e363b4218080a00000000000000000000000000000000000000000000000000000000000000000f884f882800a85cd7919590094b16dbbe237612935e6611c3f5fb7d80eb00468010aa0000000000000000000000000a79ae640e38871970f579f62237dfe270506882525a0de4e8f7cc87fcaf3ca0f506f4bbb27758b3d8be31d396e8c3d9a8b34ce5aadb7a02ee0fda15f87dcee86f87cddba7eb46178e797079c6e4421c3b38072ff798292c0c0",
                "blocknumber": "1"
            }
        ],
        "sealEngine": "NoProof",
        "_info": {
            "hash": "0x87d6349fb54d85f166b6fe7d69914f14a0432aaa6700043dcb1bf87fd3fb4c2b",
            "fixture-format": "blockchain_test",
            "comment": "`execution-specs` generated test",
            "filling-transition-tool": "2.19.0",
            "description": "Test_static_call1_mb1024_calldepth.",
            "url": "https://github.com/ethereum/execution-specs/blob/tests-snobal-devnet-5@v8037.0.0/tests/ported_static/stStaticCall/test_static_call1_mb1024_calldepth.py#L28",
            "metadata": {
                "opcode_count": {}
            }
        }
    },
    "tests/ported_static/stStaticCall/test_static_call1_mb1024_calldepth.py::test_static_call1_mb1024_calldepth[fork_Cancun-blockchain_test_from_state_test-d1]": {
        "network": "Cancun",
        "genesisBlockHeader": {
            "parentHash": "0x0000000000000000000000000000000000000000000000000000000000000000",
            "uncleHash": "0x1dcc4de8dec75d7aab85b567b6ccd41ad312451b948a7413f0a142fd40d49347",
            "coinbase": "0x0000000000000000000000000000000000000000",
            "stateRoot": "0xd35fef0cfe790b0b86661207c47ba3732ec45d81a869c97c2fd9ec0d4b6a68b7",
            "transactionsTrie": "0x56e81f171bcc55a6ff8345e692c0f86e5b48e01b996cadc001622fb5e363b421",
            "receiptTrie": "0x56e81f171bcc55a6ff8345e692c0f86e5b48e01b996cadc001622fb5e363b421",
            "bloom": "0x00000000000000000000000000000000000000000000000000000000000000000000000000000000000000000000000000000000000000000000000000000000000000000000000000000000000000000000000000000000000000000000000000000000000000000000000000000000000000000000000000000000000000000000000000000000000000000000000000000000000000000000000000000000000000000000000000000000000000000000000000000000000000000000000000000000000000000000000000000000000000000000000000000000000000000000000000000000000000000000000000000000000000000000000000000000",
            "difficulty": "0x00",
            "number": "0x00",
            "gasLimit": "0xcfcd253d00",
            "gasUsed": "0x00",
            "timestamp": "0x00",
            "extraData": "0x00",
            "mixHash": "0x0000000000000000000000000000000000000000000000000000000000000000",
            "nonce": "0x0000000000000000",
            "baseFeePerGas": "0x0b",
            "withdrawalsRoot": "0x56e81f171bcc55a6ff8345e692c0f86e5b48e01b996cadc001622fb5e363b421",
            "blobGasUsed": "0x00",
            "excessBlobGas": "0x00",
            "parentBeaconBlockRoot": "0x0000000000000000000000000000000000000000000000000000000000000000",
            "hash": "0xef1016f657493f0998c6e866814aaefd7832162c4e5463f89ddfff5dcd2ece66"
        },
        "pre": {
            "0x000f3df6d732807ef1319fb7b8bb8522d0beac02": {
                "nonce": "0x01",
                "balance": "0x00",
                "code": "0x3373fffffffffffffffffffffffffffffffffffffffe14604d57602036146024575f5ffd5b5f35801560495762001fff810690815414603c575f5ffd5b62001fff01545f5260205ff35b5f5ffd5b62001fff42064281555f359062001fff015500",
                "storage": {}
            },
            "0x2c854741c819493b3a940ebc70c2ced66e29473d": {
                "nonce": "0x00",
                "balance": "0xffffffffffffffffffffffffffffffff",
                "code": "0x",
                "storage": {}
            },
            "0x0429dc02eaa931a0b4f3b27c7ab9406223d582bf": {
                "nonce": "0x00",
                "balance": "0x0fffffffffffff",
                "code": "0x",
                "storage": {}
            },
            "0xb16dbbe237612935e6611c3f5fb7d80eb0046801": {
                "nonce": "0x00",
                "balance": "0x0fffffffffffff",
                "code": "0x600060006000600060006000355af160005500",
                "storage": {}
            },
            "0xa79ae640e38871970f579f62237dfe2705068825": {
                "nonce": "0x00",
                "balance": "0x0fffffffffffff",
                "code": "0x60016000540160005561040060005410601b5760016002556045565b60006000620f4240600073a79ae640e38871970f579f62237dfe2705068825620f55c85a03fa6001555b00",
                "storage": {}
            },
            "0x583aa587d7d852a5b8448cc4160537d9bd12c889": {
                "nonce": "0x00",
                "balance": "0x0fffffffffffff",
                "code": "0x60016000510160005261040060005110601b5760016040526045565b60006000620f4240600073583aa587d7d852a5b8448cc4160537d9bd12c889620f55c85a03fa6020525b00",
                "storage": {}
            }
        },
        "postState": {
            "0x000f3df6d732807ef1319fb7b8bb8522d0beac02": {
                "nonce": "0x01",
                "balance": "0x00",
                "code": "0x3373fffffffffffffffffffffffffffffffffffffffe14604d57602036146024575f5ffd5b5f35801560495762001fff810690815414603c575f5ffd5b62001fff01545f5260205ff35b5f5ffd5b62001fff42064281555f359062001fff015500",
                "storage": {
                    "0x03e8": "0x03e8"
                }
            },
            "0x2c854741c819493b3a940ebc70c2ced66e29473d": {
                "nonce": "0x01",
                "balance": "0xfffffffffffffffffffffffd628b69c3",
                "code": "0x",
                "storage": {}
            },
            "0x0429dc02eaa931a0b4f3b27c7ab9406223d582bf": {
                "nonce": "0x00",
                "balance": "0x0fffffffffffff",
                "code": "0x",
                "storage": {}
            },
            "0xb16dbbe237612935e6611c3f5fb7d80eb0046801": {
                "nonce": "0x00",
                "balance": "0x10000000000009",
                "code": "0x600060006000600060006000355af160005500",
                "storage": {
                    "0x00": "0x01"
                }
            },
            "0xa79ae640e38871970f579f62237dfe2705068825": {
                "nonce": "0x00",
                "balance": "0x0fffffffffffff",
                "code": "0x60016000540160005561040060005410601b5760016002556045565b60006000620f4240600073a79ae640e38871970f579f62237dfe2705068825620f55c85a03fa6001555b00",
                "storage": {}
            },
            "0x583aa587d7d852a5b8448cc4160537d9bd12c889": {
                "nonce": "0x00",
                "balance": "0x0fffffffffffff",
                "code": "0x60016000510160005261040060005110601b5760016040526045565b60006000620f4240600073583aa587d7d852a5b8448cc4160537d9bd12c889620f55c85a03fa6020525b00",
                "storage": {}
            }
        },
        "lastblockhash": "0x92b9961c90436350b906e48f2bf6fdb564ebc8e07ab06b66aad3307a4186731a",
        "config": {
            "network": "Cancun",
            "chainid": "0x01",
            "blobSchedule": {
                "Cancun": {
                    "target": "0x03",
                    "max": "0x06",
                    "baseFeeUpdateFraction": "0x32f0ed"
                }
            }
        },
        "genesisRLP": "0xf9023df90237a00000000000000000000000000000000000000000000000000000000000000000a01dcc4de8dec75d7aab85b567b6ccd41ad312451b948a7413f0a142fd40d49347940000000000000000000000000000000000000000a0d35fef0cfe790b0b86661207c47ba3732ec45d81a869c97c2fd9ec0d4b6a68b7a056e81f171bcc55a6ff8345e692c0f86e5b48e01b996cadc001622fb5e363b421a056e81f171bcc55a6ff8345e692c0f86e5b48e01b996cadc001622fb5e363b421b9010000000000000000000000000000000000000000000000000000000000000000000000000000000000000000000000000000000000000000000000000000000000000000000000000000000000000000000000000000000000000000000000000000000000000000000000000000000000000000000000000000000000000000000000000000000000000000000000000000000000000000000000000000000000000000000000000000000000000000000000000000000000000000000000000000000000000000000000000000000000000000000000000000000000000000000000000000000000000000000000000000000000000000000000000000000000808085cfcd253d00808000a000000000000000000000000000000000000000000000000000000000000000008800000000000000000ba056e81f171bcc55a6ff8345e692c0f86e5b48e01b996cadc001622fb5e363b4218080a00000000000000000000000000000000000000000000000000000000000000000c0c0c0",
        "blocks": [
            {
                "blockHeader": {
                    "parentHash": "0xef1016f657493f0998c6e866814aaefd7832162c4e5463f89ddfff5dcd2ece66",
                    "uncleHash": "0x1dcc4de8dec75d7aab85b567b6ccd41ad312451b948a7413f0a142fd40d49347",
                    "coinbase": "0xb94f5374fce5edbc8e2a8697c15331677e6ebf0b",
                    "stateRoot": "0x993bcfac2b0526c763cdbe55e3050251f690510ce3970e6106e16549253408bf",
                    "transactionsTrie": "0x50031af1f4563c3f888677e0e5959664f90f8fc56f3d478be361aea19ad343a8",
                    "receiptTrie": "0x7ff7ef66997c8e1b895657765693ff032c2c3ecae70cb74cc8e6a58e7b87f9ec",
                    "bloom": "0x00000000000000000000000000000000000000000000000000000000000000000000000000000000000000000000000000000000000000000000000000000000000000000000000000000000000000000000000000000000000000000000000000000000000000000000000000000000000000000000000000000000000000000000000000000000000000000000000000000000000000000000000000000000000000000000000000000000000000000000000000000000000000000000000000000000000000000000000000000000000000000000000000000000000000000000000000000000000000000000000000000000000000000000000000000000",
                    "difficulty": "0x00",
                    "number": "0x01",
                    "gasLimit": "0xcfcd253d00",
                    "gasUsed": "0x42f20f05",
                    "timestamp": "0x03e8",
                    "extraData": "0x00",
                    "mixHash": "0x0000000000000000000000000000000000000000000000000000000000020000",
                    "nonce": "0x0000000000000000",
                    "baseFeePerGas": "0x0a",
                    "withdrawalsRoot": "0x56e81f171bcc55a6ff8345e692c0f86e5b48e01b996cadc001622fb5e363b421",
                    "blobGasUsed": "0x00",
                    "excessBlobGas": "0x00",
                    "parentBeaconBlockRoot": "0x0000000000000000000000000000000000000000000000000000000000000000",
                    "hash": "0x92b9961c90436350b906e48f2bf6fdb564ebc8e07ab06b66aad3307a4186731a"
                },
                "transactions": [
                    {
                        "type": "0x00",
                        "chainId": "0x01",
                        "nonce": "0x00",
                        "gasPrice": "0x0a",
                        "gasLimit": "0xcd79195900",
                        "to": "0xb16dbbe237612935e6611c3f5fb7d80eb0046801",
                        "value": "0x0a",
                        "data": "0x000000000000000000000000583aa587d7d852a5b8448cc4160537d9bd12c889",
                        "v": "0x25",
                        "r": "0x8297a7e9be3369efc80af2ead3009716c903f29c03abe6a6470c3d437d7ec0c5",
                        "s": "0x1f5b866f5a5beb2253d90109fec1d2ae9083cf7bce0621bd084edc0db442703a",
                        "sender": "0x2c854741c819493b3a940ebc70c2ced66e29473d"
                    }
                ],
                "uncleHeaders": [],
                "withdrawals": [],
                "receipts": [
                    {
                        "transactionHash": "0x069950eae8d6b22e206063bb29ba0856a490a31e9ce4770eaff83520c60aab9b",
                        "type": "0x00",
                        "cumulativeGasUsed": "0x42f20f05",
                        "bloom": "0x00000000000000000000000000000000000000000000000000000000000000000000000000000000000000000000000000000000000000000000000000000000000000000000000000000000000000000000000000000000000000000000000000000000000000000000000000000000000000000000000000000000000000000000000000000000000000000000000000000000000000000000000000000000000000000000000000000000000000000000000000000000000000000000000000000000000000000000000000000000000000000000000000000000000000000000000000000000000000000000000000000000000000000000000000000000",
                        "logs": [],
                        "status": true,
                        "rlp": "0xf9010a018442f20f05b9010000000000000000000000000000000000000000000000000000000000000000000000000000000000000000000000000000000000000000000000000000000000000000000000000000000000000000000000000000000000000000000000000000000000000000000000000000000000000000000000000000000000000000000000000000000000000000000000000000000000000000000000000000000000000000000000000000000000000000000000000000000000000000000000000000000000000000000000000000000000000000000000000000000000000000000000000000000000000000000000000000000000000000000000000000000000c0"
                    }
                ],
                "rlp": "0xf902c8f9023da0ef1016f657493f0998c6e866814aaefd7832162c4e5463f89ddfff5dcd2ece66a01dcc4de8dec75d7aab85b567b6ccd41ad312451b948a7413f0a142fd40d4934794b94f5374fce5edbc8e2a8697c15331677e6ebf0ba0993bcfac2b0526c763cdbe55e3050251f690510ce3970e6106e16549253408bfa050031af1f4563c3f888677e0e5959664f90f8fc56f3d478be361aea19ad343a8a07ff7ef66997c8e1b895657765693ff032c2c3ecae70cb74cc8e6a58e7b87f9ecb9010000000000000000000000000000000000000000000000000000000000000000000000000000000000000000000000000000000000000000000000000000000000000000000000000000000000000000000000000000000000000000000000000000000000000000000000000000000000000000000000000000000000000000000000000000000000000000000000000000000000000000000000000000000000000000000000000000000000000000000000000000000000000000000000000000000000000000000000000000000000000000000000000000000000000000000000000000000000000000000000000000000000000000000000000000000000800185cfcd253d008442f20f058203e800a000000000000000000000000000000000000000000000000000000000000200008800000000000000000aa056e81f171bcc55a6ff8345e692c0f86e5b48e01b996cadc001622fb5e363b4218080a00000000000000000000000000000000000000000000000000000000000000000f884f882800a85cd7919590094b16dbbe237612935e6611c3f5fb7d80eb00468010aa0000000000000000000000000583aa587d7d852a5b8448cc4160537d9bd12c88925a08297a7e9be3369efc80af2ead3009716c903f29c03abe6a6470c3d437d7ec0c5a01f5b866f5a5beb2253d90109fec1d2ae9083cf7bce0621bd084edc0db442703ac0c0",
                "blocknumber": "1"
            }
        ],
        "sealEngine": "NoProof",
        "_info": {
            "hash": "0xfca9017a9c458e9cd029a7505ffd003e520f01ef3cfc274f714d6baca0b92215",
            "fixture-format": "blockchain_test",
            "comment": "`execution-specs` generated test",
            "filling-transition-tool": "2.19.0",
            "description": "Test_static_call1_mb1024_calldepth.",
            "url": "https://github.com/ethereum/execution-specs/blob/tests-snobal-devnet-5@v8037.0.0/tests/ported_static/stStaticCall/test_static_call1_mb1024_calldepth.py#L28",
            "metadata": {
                "opcode_count": {}
            }
        }
    }
}