{
    "tests/ported_static/stMemoryTest/test_mem64kb_single_byte_minus_33.py::test_mem64kb_single_byte_minus_33[fork_Cancun-blockchain_test_from_state_test]": {
        "network": "Cancun",
        "genesisBlockHeader": {
            "parentHash": "0x0000000000000000000000000000000000000000000000000000000000000000",
            "uncleHash": "0x1dcc4de8dec75d7aab85b567b6ccd41ad312451b948a7413f0a142fd40d49347",
            "coinbase": "0x0000000000000000000000000000000000000000",
            "stateRoot": "0xb51b3018f3a6fe6874ab405c8909827cbbc112d1f951f561b38380cd96b74234",
            "transactionsTrie": "0x56e81f171bcc55a6ff8345e692c0f86e5b48e01b996cadc001622fb5e363b421",
            "receiptTrie": "0x56e81f171bcc55a6ff8345e692c0f86e5b48e01b996cadc001622fb5e363b421",
            "bloom": "0x00000000000000000000000000000000000000000000000000000000000000000000000000000000000000000000000000000000000000000000000000000000000000000000000000000000000000000000000000000000000000000000000000000000000000000000000000000000000000000000000000000000000000000000000000000000000000000000000000000000000000000000000000000000000000000000000000000000000000000000000000000000000000000000000000000000000000000000000000000000000000000000000000000000000000000000000000000000000000000000000000000000000000000000000000000000",
            "difficulty": "0x00",
            "number": "0x00",
            "gasLimit": "0x0a00000000",
            "gasUsed": "0x00",
            "timestamp": "0x00",
            "extraData": "0x00",
            "mixHash": "0x0000000000000000000000000000000000000000000000000000000000000000",
            "nonce": "0x0000000000000000",
            "baseFeePerGas": "0x0b",
            "withdrawalsRoot": "0x56e81f171bcc55a6ff8345e692c0f86e5b48e01b996cadc001622fb5e363b421",
            "blobGasUsed": "0x00",
            "excessBlobGas": "0x00",
            "parentBeaconBlockRoot": "0x0000000000000000000000000000000000000000000000000000000000000000",
            "hash": "0x4629fd369b996275c80e1aa4ccbbf01829883df3dafad77d96f6b533e0b71670"
        },
        "pre": {
            "0x000f3df6d732807ef1319fb7b8bb8522d0beac02": {
                "nonce": "0x01",
                "balance": "0x00",
                "code": "0x3373fffffffffffffffffffffffffffffffffffffffe14604d57602036146024575f5ffd5b5f35801560495762001fff810690815414603c575f5ffd5b62001fff01545f5260205ff35b5f5ffd5b62001fff42064281555f359062001fff015500",
                "storage": {}
            },
            "0xfb3508c998cc4f73516f89af816422663ee3c87a": {
                "nonce": "0x00",
                "balance": "0x0de0b6b3a7640000",
                "code": "0x602a61f9de535960005500",
                "storage": {}
            },
            "0xc102734f6a1e4747310179c0a0fc16e674aa901d": {
                "nonce": "0x00",
                "balance": "0x6400000000",
                "code": "0x",
                "storage": {}
            }
        },
        "postState": {
            "0x000f3df6d732807ef1319fb7b8bb8522d0beac02": {
                "nonce": "0x01",
                "balance": "0x00",
                "code": "0x3373fffffffffffffffffffffffffffffffffffffffe14604d57602036146024575f5ffd5b5f35801560495762001fff810690815414603c575f5ffd5b62001fff01545f5260205ff35b5f5ffd5b62001fff42064281555f359062001fff015500",
                "storage": {
                    "0x03e8": "0x03e8"
                }
            },
            "0xfb3508c998cc4f73516f89af816422663ee3c87a": {
                "nonce": "0x00",
                "balance": "0x0de0b6b3a764000a",
                "code": "0x602a61f9de535960005500",
                "storage": {
                    "0x00": "0xf9e0"
                }
            },
            "0xc102734f6a1e4747310179c0a0fc16e674aa901d": {
                "nonce": "0x01",
                "balance": "0x63fff750b8",
                "code": "0x",
                "storage": {}
            }
        },
        "lastblockhash": "0x642b7491f990150a013437ba231cc8cb12ef909e32166c577fa04b0cb4e1f906",
        "config": {
            "network": "Cancun",
            "chainid": "0x01",
            "blobSchedule": {
                "Cancun": {
                    "target": "0x03",
                    "max": "0x06",
                    "baseFeeUpdateFraction": "0x32f0ed"
                }
            }
        },
        "genesisRLP": "0xf9023df90237a00000000000000000000000000000000000000000000000000000000000000000a01dcc4de8dec75d7aab85b567b6ccd41ad312451b948a7413f0a142fd40d49347940000000000000000000000000000000000000000a0b51b3018f3a6fe6874ab405c8909827cbbc112d1f951f561b38380cd96b74234a056e81f171bcc55a6ff8345e692c0f86e5b48e01b996cadc001622fb5e363b421a056e81f171bcc55a6ff8345e692c0f86e5b48e01b996cadc001622fb5e363b421b90100000000000000000000000000000000000000000000000000000000000000000000000000000000000000000000000000000000000000000000000000000000000000000000000000000000000000000000000000000000000000000000000000000000000000000000000000000000000000000000000000000000000000000000000000000000000000000000000000000000000000000000000000000000000000000000000000000000000000000000000000000000000000000000000000000000000000000000000000000000000000000000000000000000000000000000000000000000000000000000000000000000000000000000000000000000008080850a00000000808000a000000000000000000000000000000000000000000000000000000000000000008800000000000000000ba056e81f171bcc55a6ff8345e692c0f86e5b48e01b996cadc001622fb5e363b4218080a00000000000000000000000000000000000000000000000000000000000000000c0c0c0",
        "blocks": [
            {
                "blockHeader": {
                    "parentHash": "0x4629fd369b996275c80e1aa4ccbbf01829883df3dafad77d96f6b533e0b71670",
                    "uncleHash": "0x1dcc4de8dec75d7aab85b567b6ccd41ad312451b948a7413f0a142fd40d49347",
                    "coinbase": "0x2adc25665018aa1fe0e6bc666dac8fc2697ff9ba",
                    "stateRoot": "0xb705d4bf0166bf50db4d7e646d827561d415d394ba720316a5093fbea4b576a7",
                    "transactionsTrie": "0x46dd122eb784d5a88d806caa471b2b39c912fc67b4ca46c1105c856eaba721ec",
                    "receiptTrie": "0x8b4f7f2532069155b5fa2449184680ef59ebad0f96b8cd23614810aa3394e592",
                    "bloom": "0x00000000000000000000000000000000000000000000000000000000000000000000000000000000000000000000000000000000000000000000000000000000000000000000000000000000000000000000000000000000000000000000000000000000000000000000000000000000000000000000000000000000000000000000000000000000000000000000000000000000000000000000000000000000000000000000000000000000000000000000000000000000000000000000000000000000000000000000000000000000000000000000000000000000000000000000000000000000000000000000000000000000000000000000000000000000",
                    "difficulty": "0x00",
                    "number": "0x01",
                    "gasLimit": "0x0a00000000",
                    "gasUsed": "0xde53",
                    "timestamp": "0x03e8",
                    "extraData": "0x00",
                    "mixHash": "0x0000000000000000000000000000000000000000000000000000000000020000",
                    "nonce": "0x0000000000000000",
                    "baseFeePerGas": "0x0a",
                    "withdrawalsRoot": "0x56e81f171bcc55a6ff8345e692c0f86e5b48e01b996cadc001622fb5e363b421",
                    "blobGasUsed": "0x00",
                    "excessBlobGas": "0x00",
                    "parentBeaconBlockRoot": "0x0000000000000000000000000000000000000000000000000000000000000000",
                    "hash": "0x642b7491f990150a013437ba231cc8cb12ef909e32166c577fa04b0cb4e1f906"
                },
                "transactions": [
                    {
                        "type": "0x00",
                        "chainId": "0x01",
                        "nonce": "0x00",
                        "gasPrice": "0x0a",
                        "gasLimit": "0x0186a0",
                        "to": "0xfb3508c998cc4f73516f89af816422663ee3c87a",
                        "value": "0x0a",
                        "data": "0x",
                        "v": "0x26",
                        "r": "0x21df3e9ee8745f9b1e905c8a41632e616d6668801fad12777be412fc9257104a",
                        "s": "0x26f7c619c232d7e55029aef13eab538d6c2f2fb207a38d19fc8ae9090f83006e",
                        "sender": "0xc102734f6a1e4747310179c0a0fc16e674aa901d"
                    }
                ],
                "uncleHeaders": [],
                "withdrawals": [],
                "receipts": [
                    {
                        "transactionHash": "0x43aec44b7e4838705fbebc02c8cf43c93d0429d45d2733e0589cb7060bfa87d5",
                        "type": "0x00",
                        "cumulativeGasUsed": "0xde53",
                        "bloom": "0x00000000000000000000000000000000000000000000000000000000000000000000000000000000000000000000000000000000000000000000000000000000000000000000000000000000000000000000000000000000000000000000000000000000000000000000000000000000000000000000000000000000000000000000000000000000000000000000000000000000000000000000000000000000000000000000000000000000000000000000000000000000000000000000000000000000000000000000000000000000000000000000000000000000000000000000000000000000000000000000000000000000000000000000000000000000",
                        "logs": [],
                        "status": true,
                        "rlp": "0xf901080182de53b9010000000000000000000000000000000000000000000000000000000000000000000000000000000000000000000000000000000000000000000000000000000000000000000000000000000000000000000000000000000000000000000000000000000000000000000000000000000000000000000000000000000000000000000000000000000000000000000000000000000000000000000000000000000000000000000000000000000000000000000000000000000000000000000000000000000000000000000000000000000000000000000000000000000000000000000000000000000000000000000000000000000000000000000000000000000000c0"
                    }
                ],
                "rlp": "0xf902a4f9023ba04629fd369b996275c80e1aa4ccbbf01829883df3dafad77d96f6b533e0b71670a01dcc4de8dec75d7aab85b567b6ccd41ad312451b948a7413f0a142fd40d49347942adc25665018aa1fe0e6bc666dac8fc2697ff9baa0b705d4bf0166bf50db4d7e646d827561d415d394ba720316a5093fbea4b576a7a046dd122eb784d5a88d806caa471b2b39c912fc67b4ca46c1105c856eaba721eca08b4f7f2532069155b5fa2449184680ef59ebad0f96b8cd23614810aa3394e592b90100000000000000000000000000000000000000000000000000000000000000000000000000000000000000000000000000000000000000000000000000000000000000000000000000000000000000000000000000000000000000000000000000000000000000000000000000000000000000000000000000000000000000000000000000000000000000000000000000000000000000000000000000000000000000000000000000000000000000000000000000000000000000000000000000000000000000000000000000000000000000000000000000000000000000000000000000000000000000000000000000000000000000000000000000000000008001850a0000000082de538203e800a000000000000000000000000000000000000000000000000000000000000200008800000000000000000aa056e81f171bcc55a6ff8345e692c0f86e5b48e01b996cadc001622fb5e363b4218080a00000000000000000000000000000000000000000000000000000000000000000f862f860800a830186a094fb3508c998cc4f73516f89af816422663ee3c87a0a8026a021df3e9ee8745f9b1e905c8a41632e616d6668801fad12777be412fc9257104aa026f7c619c232d7e55029aef13eab538d6c2f2fb207a38d19fc8ae9090f83006ec0c0",
                "blocknumber": "1"
            }
        ],
        "sealEngine": "NoProof",
        "_info": {
            "hash": "0xad613e61625904778085758bb8a988e7cf600ca20afd20d830b9dea9c7a5d00f",
            "fixture-format": "blockchain_test",
            "comment": "`execution-specs` generated test",
            "filling-transition-tool": "2.19.0",
            "description": "Test_mem64kb_single_byte_minus_33.",
            "url": "https://github.com/ethereum/execution-specs/blob/tests-bal@v5.6.1/tests/ported_static/stMemoryTest/test_mem64kb_single_byte_minus_33.py#L25",
            "metadata": {
                "opcode_count": {}
            }
        }
    }
}