{
    "tests/constantinople/eip1052_extcodehash/test_extcodehash.py::test_extcodehash_dynamic_account_overwrite[fork_Cancun-blockchain_test_from_state_test-target_exists_False]": {
        "network": "Cancun",
        "genesisBlockHeader": {
            "parentHash": "0x0000000000000000000000000000000000000000000000000000000000000000",
            "uncleHash": "0x1dcc4de8dec75d7aab85b567b6ccd41ad312451b948a7413f0a142fd40d49347",
            "coinbase": "0x0000000000000000000000000000000000000000",
            "stateRoot": "0x9e65f75770b4ad2e8d4bcba759c33f491d0d854d1ac3dfc2a80ac748ee6c61a3",
            "transactionsTrie": "0x56e81f171bcc55a6ff8345e692c0f86e5b48e01b996cadc001622fb5e363b421",
            "receiptTrie": "0x56e81f171bcc55a6ff8345e692c0f86e5b48e01b996cadc001622fb5e363b421",
            "bloom": "0x00000000000000000000000000000000000000000000000000000000000000000000000000000000000000000000000000000000000000000000000000000000000000000000000000000000000000000000000000000000000000000000000000000000000000000000000000000000000000000000000000000000000000000000000000000000000000000000000000000000000000000000000000000000000000000000000000000000000000000000000000000000000000000000000000000000000000000000000000000000000000000000000000000000000000000000000000000000000000000000000000000000000000000000000000000000",
            "difficulty": "0x00",
            "number": "0x00",
            "gasLimit": "0x07270e00",
            "gasUsed": "0x00",
            "timestamp": "0x00",
            "extraData": "0x00",
            "mixHash": "0x0000000000000000000000000000000000000000000000000000000000000000",
            "nonce": "0x0000000000000000",
            "baseFeePerGas": "0x07",
            "withdrawalsRoot": "0x56e81f171bcc55a6ff8345e692c0f86e5b48e01b996cadc001622fb5e363b421",
            "blobGasUsed": "0x00",
            "excessBlobGas": "0x00",
            "parentBeaconBlockRoot": "0x0000000000000000000000000000000000000000000000000000000000000000",
            "hash": "0x7a0ac171b1c15a488ae35c7e056e569611ec5f5ab567fa19fd45b4d6e6dabf4e"
        },
        "pre": {
            "0x000f3df6d732807ef1319fb7b8bb8522d0beac02": {
                "nonce": "0x01",
                "balance": "0x00",
                "code": "0x3373fffffffffffffffffffffffffffffffffffffffe14604d57602036146024575f5ffd5b5f35801560495762001fff810690815414603c575f5ffd5b62001fff01545f5260205ff35b5f5ffd5b62001fff42064281555f359062001fff015500",
                "storage": {}
            },
            "0x303d284c44fff5f262f6d7a0f21fbdb7face17cf": {
                "nonce": "0x01",
                "balance": "0x01",
                "code": "0x6000353f6000556000353b6001556020600060006000353c60005160025560006000600060006000356000f46003557f610005600081600b8239f36001604a55000000000000000000000000000000006000526000601060006000f56004556000353f6005556000353b6006556020600060006000353c60005160075560006000600060006000355af4600855600060006000600060006000355af1600955",
                "storage": {
                    "0x00": "0xba5e",
                    "0x01": "0xba5e",
                    "0x02": "0xba5e",
                    "0x04": "0xba5e"
                }
            },
            "0x1ad9bc24818784172ff393bb6f89f094d4d2ca29": {
                "nonce": "0x00",
                "balance": "0x3635c9adc5dea00000",
                "code": "0x",
                "storage": {}
            }
        },
        "postState": {
            "0x000f3df6d732807ef1319fb7b8bb8522d0beac02": {
                "nonce": "0x01",
                "balance": "0x00",
                "code": "0x3373fffffffffffffffffffffffffffffffffffffffe14604d57602036146024575f5ffd5b5f35801560495762001fff810690815414603c575f5ffd5b62001fff01545f5260205ff35b5f5ffd5b62001fff42064281555f359062001fff015500",
                "storage": {
                    "0x03e8": "0x03e8"
                }
            },
            "0x303d284c44fff5f262f6d7a0f21fbdb7face17cf": {
                "nonce": "0x02",
                "balance": "0x01",
                "code": "0x6000353f6000556000353b6001556020600060006000353c60005160025560006000600060006000356000f46003557f610005600081600b8239f36001604a55000000000000000000000000000000006000526000601060006000f56004556000353f6005556000353b6006556020600060006000353c60005160075560006000600060006000355af4600855600060006000600060006000355af1600955",
                "storage": {
                    "0x04": "0x3178dbc701586eff6e6d35d4f147e956209ed2af",
                    "0x03": "0x01",
                    "0x05": "0x9d45013a17a644bbb764766c97a899b278a408219894f979e9924226f4569c21",
                    "0x06": "0x05",
                    "0x07": "0x6001604a55000000000000000000000000000000000000000000000000000000",
                    "0x4a": "0x01",
                    "0x08": "0x01",
                    "0x09": "0x01"
                }
            },
            "0x1ad9bc24818784172ff393bb6f89f094d4d2ca29": {
                "nonce": "0x01",
                "balance": "0x3635c9adc5de7b514c",
                "code": "0x",
                "storage": {}
            },
            "0x3178dbc701586eff6e6d35d4f147e956209ed2af": {
                "nonce": "0x01",
                "balance": "0x00",
                "code": "0x6001604a55",
                "storage": {
                    "0x4a": "0x01"
                }
            },
            "0x2adc25665018aa1fe0e6bc666dac8fc2697ff9ba": {
                "nonce": "0x00",
                "balance": "0x0b0136",
                "code": "0x",
                "storage": {}
            }
        },
        "lastblockhash": "0x7ab464db3e08df1b793dcf7ee9194588f40efb742e62d0f35234c9c9dfa4aabb",
        "config": {
            "network": "Cancun",
            "chainid": "0x01",
            "blobSchedule": {
                "Cancun": {
                    "target": "0x03",
                    "max": "0x06",
                    "baseFeeUpdateFraction": "0x32f0ed"
                }
            }
        },
        "genesisRLP": "0xf9023cf90236a00000000000000000000000000000000000000000000000000000000000000000a01dcc4de8dec75d7aab85b567b6ccd41ad312451b948a7413f0a142fd40d49347940000000000000000000000000000000000000000a09e65f75770b4ad2e8d4bcba759c33f491d0d854d1ac3dfc2a80ac748ee6c61a3a056e81f171bcc55a6ff8345e692c0f86e5b48e01b996cadc001622fb5e363b421a056e81f171bcc55a6ff8345e692c0f86e5b48e01b996cadc001622fb5e363b421b901000000000000000000000000000000000000000000000000000000000000000000000000000000000000000000000000000000000000000000000000000000000000000000000000000000000000000000000000000000000000000000000000000000000000000000000000000000000000000000000000000000000000000000000000000000000000000000000000000000000000000000000000000000000000000000000000000000000000000000000000000000000000000000000000000000000000000000000000000000000000000000000000000000000000000000000000000000000000000000000000000000000000000000000000000000000080808407270e00808000a0000000000000000000000000000000000000000000000000000000000000000088000000000000000007a056e81f171bcc55a6ff8345e692c0f86e5b48e01b996cadc001622fb5e363b4218080a00000000000000000000000000000000000000000000000000000000000000000c0c0c0",
        "blocks": [
            {
                "blockHeader": {
                    "parentHash": "0x7a0ac171b1c15a488ae35c7e056e569611ec5f5ab567fa19fd45b4d6e6dabf4e",
                    "uncleHash": "0x1dcc4de8dec75d7aab85b567b6ccd41ad312451b948a7413f0a142fd40d49347",
                    "coinbase": "0x2adc25665018aa1fe0e6bc666dac8fc2697ff9ba",
                    "stateRoot": "0xcbec1ee93e17631b3deb11fd3e651946c8a7bb9bc7a8a65144f4325e2990564b",
                    "transactionsTrie": "0x05593c1377b7d80652b6ba6c308d168a1d1235a71e0acbd8215c6c397d71e30b",
                    "receiptTrie": "0x8998d31c189616df65c6725c77df65d220dfa3c66fd0d0c0c00b888f5600fc9c",
                    "bloom": "0x00000000000000000000000000000000000000000000000000000000000000000000000000000000000000000000000000000000000000000000000000000000000000000000000000000000000000000000000000000000000000000000000000000000000000000000000000000000000000000000000000000000000000000000000000000000000000000000000000000000000000000000000000000000000000000000000000000000000000000000000000000000000000000000000000000000000000000000000000000000000000000000000000000000000000000000000000000000000000000000000000000000000000000000000000000000",
                    "difficulty": "0x00",
                    "number": "0x01",
                    "gasLimit": "0x07270e00",
                    "gasUsed": "0x03ab12",
                    "timestamp": "0x03e8",
                    "extraData": "0x00",
                    "mixHash": "0x0000000000000000000000000000000000000000000000000000000000000000",
                    "nonce": "0x0000000000000000",
                    "baseFeePerGas": "0x07",
                    "withdrawalsRoot": "0x56e81f171bcc55a6ff8345e692c0f86e5b48e01b996cadc001622fb5e363b421",
                    "blobGasUsed": "0x00",
                    "excessBlobGas": "0x00",
                    "parentBeaconBlockRoot": "0x0000000000000000000000000000000000000000000000000000000000000000",
                    "hash": "0x7ab464db3e08df1b793dcf7ee9194588f40efb742e62d0f35234c9c9dfa4aabb"
                },
                "transactions": [
                    {
                        "type": "0x00",
                        "chainId": "0x01",
                        "nonce": "0x00",
                        "gasPrice": "0x0a",
                        "gasLimit": "0x0f4240",
                        "to": "0x303d284c44fff5f262f6d7a0f21fbdb7face17cf",
                        "value": "0x00",
                        "data": "0x0000000000000000000000003178dbc701586eff6e6d35d4f147e956209ed2af",
                        "v": "0x26",
                        "r": "0xd675c50f9d06a63adc1d26044e17971612073a29eed021879df36c337df62f84",
                        "s": "0x02c2713f12f76312fdea50b234c665f8d92c92b9a5d6c62d8984f1413e9073a4",
                        "sender": "0x1ad9bc24818784172ff393bb6f89f094d4d2ca29"
                    }
                ],
                "uncleHeaders": [],
                "withdrawals": [],
                "receipts": [
                    {
                        "transactionHash": "0x255531ce2b792e11d0ecb720e03287d1710a4d3b80945e905e0356157a28e187",
                        "type": "0x00",
                        "cumulativeGasUsed": "0x03ab12",
                        "bloom": "0x00000000000000000000000000000000000000000000000000000000000000000000000000000000000000000000000000000000000000000000000000000000000000000000000000000000000000000000000000000000000000000000000000000000000000000000000000000000000000000000000000000000000000000000000000000000000000000000000000000000000000000000000000000000000000000000000000000000000000000000000000000000000000000000000000000000000000000000000000000000000000000000000000000000000000000000000000000000000000000000000000000000000000000000000000000000",
                        "logs": [],
                        "status": true,
                        "rlp": "0xf90109018303ab12b9010000000000000000000000000000000000000000000000000000000000000000000000000000000000000000000000000000000000000000000000000000000000000000000000000000000000000000000000000000000000000000000000000000000000000000000000000000000000000000000000000000000000000000000000000000000000000000000000000000000000000000000000000000000000000000000000000000000000000000000000000000000000000000000000000000000000000000000000000000000000000000000000000000000000000000000000000000000000000000000000000000000000000000000000000000000000c0"
                    }
                ],
                "rlp": "0xf902c4f9023ba07a0ac171b1c15a488ae35c7e056e569611ec5f5ab567fa19fd45b4d6e6dabf4ea01dcc4de8dec75d7aab85b567b6ccd41ad312451b948a7413f0a142fd40d49347942adc25665018aa1fe0e6bc666dac8fc2697ff9baa0cbec1ee93e17631b3deb11fd3e651946c8a7bb9bc7a8a65144f4325e2990564ba005593c1377b7d80652b6ba6c308d168a1d1235a71e0acbd8215c6c397d71e30ba08998d31c189616df65c6725c77df65d220dfa3c66fd0d0c0c00b888f5600fc9cb901000000000000000000000000000000000000000000000000000000000000000000000000000000000000000000000000000000000000000000000000000000000000000000000000000000000000000000000000000000000000000000000000000000000000000000000000000000000000000000000000000000000000000000000000000000000000000000000000000000000000000000000000000000000000000000000000000000000000000000000000000000000000000000000000000000000000000000000000000000000000000000000000000000000000000000000000000000000000000000000000000000000000000000000000000000000080018407270e008303ab128203e800a0000000000000000000000000000000000000000000000000000000000000000088000000000000000007a056e81f171bcc55a6ff8345e692c0f86e5b48e01b996cadc001622fb5e363b4218080a00000000000000000000000000000000000000000000000000000000000000000f882f880800a830f424094303d284c44fff5f262f6d7a0f21fbdb7face17cf80a00000000000000000000000003178dbc701586eff6e6d35d4f147e956209ed2af26a0d675c50f9d06a63adc1d26044e17971612073a29eed021879df36c337df62f84a002c2713f12f76312fdea50b234c665f8d92c92b9a5d6c62d8984f1413e9073a4c0c0",
                "blocknumber": "1"
            }
        ],
        "sealEngine": "NoProof",
        "_info": {
            "hash": "0x33017dd9bfa9cbaa3ed5bb6df9377072c8d55789b0e89aaadab357cdea79c72c",
            "fixture-format": "blockchain_test",
            "comment": "`execution-specs` generated test",
            "filling-transition-tool": "2.19.0",
            "description": "Test EXTCODEHASH of non-existent/no-code account,\nthen with code deployed at the address via CREATE2.\n\nThis verifies that the code hash cache is correctly updated during the\ntransaction when an account is overwritten by CREATE2.\n\nThe target address is computed after the caller contract code is deployed,\nand passed as calldata to the caller contract.\n\nThe target account code sets a fixed storage slot. This code is executed\nat the caller account via DELEGATECALL and at the target account via CALL.\n\nModified from original test: target account has no storage to avoid\nEIP-7610 collision behavior.",
            "url": "https://github.com/ethereum/execution-specs/blob/tests-bal@v5.6.0/tests/constantinople/eip1052_extcodehash/test_extcodehash.py#L421",
            "metadata": {
                "opcode_count": {}
            },
            "reference-spec": "https://github.com/ethereum/EIPs/blob/master/EIPS/eip-1052.md",
            "reference-spec-version": "2dcbc7ce1563e9624e137e9d447374600af876fa"
        }
    },
    "tests/constantinople/eip1052_extcodehash/test_extcodehash.py::test_extcodehash_dynamic_account_overwrite[fork_Cancun-blockchain_test_from_state_test-target_exists_True]": {
        "network": "Cancun",
        "genesisBlockHeader": {
            "parentHash": "0x0000000000000000000000000000000000000000000000000000000000000000",
            "uncleHash": "0x1dcc4de8dec75d7aab85b567b6ccd41ad312451b948a7413f0a142fd40d49347",
            "coinbase": "0x0000000000000000000000000000000000000000",
            "stateRoot": "0x1af1088dc2d4f42a7c53e78fc3ac68768574f03497b36ee8806c1ee32118e77e",
            "transactionsTrie": "0x56e81f171bcc55a6ff8345e692c0f86e5b48e01b996cadc001622fb5e363b421",
            "receiptTrie": "0x56e81f171bcc55a6ff8345e692c0f86e5b48e01b996cadc001622fb5e363b421",
            "bloom": "0x00000000000000000000000000000000000000000000000000000000000000000000000000000000000000000000000000000000000000000000000000000000000000000000000000000000000000000000000000000000000000000000000000000000000000000000000000000000000000000000000000000000000000000000000000000000000000000000000000000000000000000000000000000000000000000000000000000000000000000000000000000000000000000000000000000000000000000000000000000000000000000000000000000000000000000000000000000000000000000000000000000000000000000000000000000000",
            "difficulty": "0x00",
            "number": "0x00",
            "gasLimit": "0x07270e00",
            "gasUsed": "0x00",
            "timestamp": "0x00",
            "extraData": "0x00",
            "mixHash": "0x0000000000000000000000000000000000000000000000000000000000000000",
            "nonce": "0x0000000000000000",
            "baseFeePerGas": "0x07",
            "withdrawalsRoot": "0x56e81f171bcc55a6ff8345e692c0f86e5b48e01b996cadc001622fb5e363b421",
            "blobGasUsed": "0x00",
            "excessBlobGas": "0x00",
            "parentBeaconBlockRoot": "0x0000000000000000000000000000000000000000000000000000000000000000",
            "hash": "0x2619eca03252bd9b6175d4cefd7fb8f59c87af2b5db9221fc656c51fed51be1a"
        },
        "pre": {
            "0x000f3df6d732807ef1319fb7b8bb8522d0beac02": {
                "nonce": "0x01",
                "balance": "0x00",
                "code": "0x3373fffffffffffffffffffffffffffffffffffffffe14604d57602036146024575f5ffd5b5f35801560495762001fff810690815414603c575f5ffd5b62001fff01545f5260205ff35b5f5ffd5b62001fff42064281555f359062001fff015500",
                "storage": {}
            },
            "0x8cb013ee6d08358cbe95e556d019a38ec6fc8c11": {
                "nonce": "0x01",
                "balance": "0x01",
                "code": "0x6000353f6000556000353b6001556020600060006000353c60005160025560006000600060006000356000f46003557f610005600081600b8239f36001604a55000000000000000000000000000000006000526000601060006000f56004556000353f6005556000353b6006556020600060006000353c60005160075560006000600060006000355af4600855600060006000600060006000355af1600955",
                "storage": {
                    "0x01": "0xba5e",
                    "0x02": "0xba5e",
                    "0x04": "0xba5e"
                }
            },
            "0xcc64a5dd62624460f91069dae0b31e54de68dab9": {
                "nonce": "0x00",
                "balance": "0x01",
                "code": "0x",
                "storage": {}
            },
            "0x1ad9bc24818784172ff393bb6f89f094d4d2ca29": {
                "nonce": "0x00",
                "balance": "0x3635c9adc5dea00000",
                "code": "0x",
                "storage": {}
            }
        },
        "postState": {
            "0x000f3df6d732807ef1319fb7b8bb8522d0beac02": {
                "nonce": "0x01",
                "balance": "0x00",
                "code": "0x3373fffffffffffffffffffffffffffffffffffffffe14604d57602036146024575f5ffd5b5f35801560495762001fff810690815414603c575f5ffd5b62001fff01545f5260205ff35b5f5ffd5b62001fff42064281555f359062001fff015500",
                "storage": {
                    "0x03e8": "0x03e8"
                }
            },
            "0x8cb013ee6d08358cbe95e556d019a38ec6fc8c11": {
                "nonce": "0x02",
                "balance": "0x01",
                "code": "0x6000353f6000556000353b6001556020600060006000353c60005160025560006000600060006000356000f46003557f610005600081600b8239f36001604a55000000000000000000000000000000006000526000601060006000f56004556000353f6005556000353b6006556020600060006000353c60005160075560006000600060006000355af4600855600060006000600060006000355af1600955",
                "storage": {
                    "0x04": "0xcc64a5dd62624460f91069dae0b31e54de68dab9",
                    "0x00": "0xc5d2460186f7233c927e7db2dcc703c0e500b653ca82273b7bfad8045d85a470",
                    "0x03": "0x01",
                    "0x05": "0x9d45013a17a644bbb764766c97a899b278a408219894f979e9924226f4569c21",
                    "0x06": "0x05",
                    "0x07": "0x6001604a55000000000000000000000000000000000000000000000000000000",
                    "0x4a": "0x01",
                    "0x08": "0x01",
                    "0x09": "0x01"
                }
            },
            "0xcc64a5dd62624460f91069dae0b31e54de68dab9": {
                "nonce": "0x01",
                "balance": "0x01",
                "code": "0x6001604a55",
                "storage": {
                    "0x4a": "0x01"
                }
            },
            "0x1ad9bc24818784172ff393bb6f89f094d4d2ca29": {
                "nonce": "0x01",
                "balance": "0x3635c9adc5de77f9d4",
                "code": "0x",
                "storage": {}
            },
            "0x2adc25665018aa1fe0e6bc666dac8fc2697ff9ba": {
                "nonce": "0x00",
                "balance": "0x0c01da",
                "code": "0x",
                "storage": {}
            }
        },
        "lastblockhash": "0x0e7a08bcf83be825d70635acd0655767b4d3b1dd62bcf08ea25b823ef70ed758",
        "config": {
            "network": "Cancun",
            "chainid": "0x01",
            "blobSchedule": {
                "Cancun": {
                    "target": "0x03",
                    "max": "0x06",
                    "baseFeeUpdateFraction": "0x32f0ed"
                }
            }
        },
        "genesisRLP": "0xf9023cf90236a00000000000000000000000000000000000000000000000000000000000000000a01dcc4de8dec75d7aab85b567b6ccd41ad312451b948a7413f0a142fd40d49347940000000000000000000000000000000000000000a01af1088dc2d4f42a7c53e78fc3ac68768574f03497b36ee8806c1ee32118e77ea056e81f171bcc55a6ff8345e692c0f86e5b48e01b996cadc001622fb5e363b421a056e81f171bcc55a6ff8345e692c0f86e5b48e01b996cadc001622fb5e363b421b901000000000000000000000000000000000000000000000000000000000000000000000000000000000000000000000000000000000000000000000000000000000000000000000000000000000000000000000000000000000000000000000000000000000000000000000000000000000000000000000000000000000000000000000000000000000000000000000000000000000000000000000000000000000000000000000000000000000000000000000000000000000000000000000000000000000000000000000000000000000000000000000000000000000000000000000000000000000000000000000000000000000000000000000000000000000080808407270e00808000a0000000000000000000000000000000000000000000000000000000000000000088000000000000000007a056e81f171bcc55a6ff8345e692c0f86e5b48e01b996cadc001622fb5e363b4218080a00000000000000000000000000000000000000000000000000000000000000000c0c0c0",
        "blocks": [
            {
                "blockHeader": {
                    "parentHash": "0x2619eca03252bd9b6175d4cefd7fb8f59c87af2b5db9221fc656c51fed51be1a",
                    "uncleHash": "0x1dcc4de8dec75d7aab85b567b6ccd41ad312451b948a7413f0a142fd40d49347",
                    "coinbase": "0x2adc25665018aa1fe0e6bc666dac8fc2697ff9ba",
                    "stateRoot": "0xb3cc72373375de264e9fb9bd87ff5031b6e86bd591849592c28c243bce7e50fb",
                    "transactionsTrie": "0x27f11b538b05a537633a3e55aba32afbaf1d21ba82940409364111a128275f49",
                    "receiptTrie": "0x09864afcdbf7fbd80390f1ac4bbc5daaa2f1293e877d280c73a495ffd01d2420",
                    "bloom": "0x00000000000000000000000000000000000000000000000000000000000000000000000000000000000000000000000000000000000000000000000000000000000000000000000000000000000000000000000000000000000000000000000000000000000000000000000000000000000000000000000000000000000000000000000000000000000000000000000000000000000000000000000000000000000000000000000000000000000000000000000000000000000000000000000000000000000000000000000000000000000000000000000000000000000000000000000000000000000000000000000000000000000000000000000000000000",
                    "difficulty": "0x00",
                    "number": "0x01",
                    "gasLimit": "0x07270e00",
                    "gasUsed": "0x04009e",
                    "timestamp": "0x03e8",
                    "extraData": "0x00",
                    "mixHash": "0x0000000000000000000000000000000000000000000000000000000000000000",
                    "nonce": "0x0000000000000000",
                    "baseFeePerGas": "0x07",
                    "withdrawalsRoot": "0x56e81f171bcc55a6ff8345e692c0f86e5b48e01b996cadc001622fb5e363b421",
                    "blobGasUsed": "0x00",
                    "excessBlobGas": "0x00",
                    "parentBeaconBlockRoot": "0x0000000000000000000000000000000000000000000000000000000000000000",
                    "hash": "0x0e7a08bcf83be825d70635acd0655767b4d3b1dd62bcf08ea25b823ef70ed758"
                },
                "transactions": [
                    {
                        "type": "0x00",
                        "chainId": "0x01",
                        "nonce": "0x00",
                        "gasPrice": "0x0a",
                        "gasLimit": "0x0f4240",
                        "to": "0x8cb013ee6d08358cbe95e556d019a38ec6fc8c11",
                        "value": "0x00",
                        "data": "0x000000000000000000000000cc64a5dd62624460f91069dae0b31e54de68dab9",
                        "v": "0x26",
                        "r": "0x1cf2c7576afa7da55097a599919eed87700a8d041138e6495c150648804de370",
                        "s": "0x15d5ee453f6e9423ccf3f879ef168fc780e9a95638967c731044c8640853ca46",
                        "sender": "0x1ad9bc24818784172ff393bb6f89f094d4d2ca29"
                    }
                ],
                "uncleHeaders": [],
                "withdrawals": [],
                "receipts": [
                    {
                        "transactionHash": "0xafd1839ae08652c3cf7daa8a3ccb97abdb29ee3530c590b75b39307a14b07ebd",
                        "type": "0x00",
                        "cumulativeGasUsed": "0x04009e",
                        "bloom": "0x00000000000000000000000000000000000000000000000000000000000000000000000000000000000000000000000000000000000000000000000000000000000000000000000000000000000000000000000000000000000000000000000000000000000000000000000000000000000000000000000000000000000000000000000000000000000000000000000000000000000000000000000000000000000000000000000000000000000000000000000000000000000000000000000000000000000000000000000000000000000000000000000000000000000000000000000000000000000000000000000000000000000000000000000000000000",
                        "logs": [],
                        "status": true,
                        "rlp": "0xf90109018304009eb9010000000000000000000000000000000000000000000000000000000000000000000000000000000000000000000000000000000000000000000000000000000000000000000000000000000000000000000000000000000000000000000000000000000000000000000000000000000000000000000000000000000000000000000000000000000000000000000000000000000000000000000000000000000000000000000000000000000000000000000000000000000000000000000000000000000000000000000000000000000000000000000000000000000000000000000000000000000000000000000000000000000000000000000000000000000000c0"
                    }
                ],
                "rlp": "0xf902c4f9023ba02619eca03252bd9b6175d4cefd7fb8f59c87af2b5db9221fc656c51fed51be1aa01dcc4de8dec75d7aab85b567b6ccd41ad312451b948a7413f0a142fd40d49347942adc25665018aa1fe0e6bc666dac8fc2697ff9baa0b3cc72373375de264e9fb9bd87ff5031b6e86bd591849592c28c243bce7e50fba027f11b538b05a537633a3e55aba32afbaf1d21ba82940409364111a128275f49a009864afcdbf7fbd80390f1ac4bbc5daaa2f1293e877d280c73a495ffd01d2420b901000000000000000000000000000000000000000000000000000000000000000000000000000000000000000000000000000000000000000000000000000000000000000000000000000000000000000000000000000000000000000000000000000000000000000000000000000000000000000000000000000000000000000000000000000000000000000000000000000000000000000000000000000000000000000000000000000000000000000000000000000000000000000000000000000000000000000000000000000000000000000000000000000000000000000000000000000000000000000000000000000000000000000000000000000000000080018407270e008304009e8203e800a0000000000000000000000000000000000000000000000000000000000000000088000000000000000007a056e81f171bcc55a6ff8345e692c0f86e5b48e01b996cadc001622fb5e363b4218080a00000000000000000000000000000000000000000000000000000000000000000f882f880800a830f4240948cb013ee6d08358cbe95e556d019a38ec6fc8c1180a0000000000000000000000000cc64a5dd62624460f91069dae0b31e54de68dab926a01cf2c7576afa7da55097a599919eed87700a8d041138e6495c150648804de370a015d5ee453f6e9423ccf3f879ef168fc780e9a95638967c731044c8640853ca46c0c0",
                "blocknumber": "1"
            }
        ],
        "sealEngine": "NoProof",
        "_info": {
            "hash": "0xd8e6b2ed88ecc766a9d6b68af8b3e39f36644cf8ca283aaf61d60fe511fe4e8d",
            "fixture-format": "blockchain_test",
            "comment": "`execution-specs` generated test",
            "filling-transition-tool": "2.19.0",
            "description": "Test EXTCODEHASH of non-existent/no-code account,\nthen with code deployed at the address via CREATE2.\n\nThis verifies that the code hash cache is correctly updated during the\ntransaction when an account is overwritten by CREATE2.\n\nThe target address is computed after the caller contract code is deployed,\nand passed as calldata to the caller contract.\n\nThe target account code sets a fixed storage slot. This code is executed\nat the caller account via DELEGATECALL and at the target account via CALL.\n\nModified from original test: target account has no storage to avoid\nEIP-7610 collision behavior.",
            "url": "https://github.com/ethereum/execution-specs/blob/tests-bal@v5.6.0/tests/constantinople/eip1052_extcodehash/test_extcodehash.py#L421",
            "metadata": {
                "opcode_count": {}
            },
            "reference-spec": "https://github.com/ethereum/EIPs/blob/master/EIPS/eip-1052.md",
            "reference-spec-version": "2dcbc7ce1563e9624e137e9d447374600af876fa"
        }
    }
}