{
    "tests/constantinople/eip1052_extcodehash/test_extcodehash.py::test_extcodehash_after_selfdestruct[fork_Cancun-blockchain_test_from_state_test-create2]": {
        "network": "Cancun",
        "genesisBlockHeader": {
            "parentHash": "0x0000000000000000000000000000000000000000000000000000000000000000",
            "uncleHash": "0x1dcc4de8dec75d7aab85b567b6ccd41ad312451b948a7413f0a142fd40d49347",
            "coinbase": "0x0000000000000000000000000000000000000000",
            "stateRoot": "0x801f16f25fe7272a47d770488eb06f411331e3a8ba1b07fe50d0c3a300a58723",
            "transactionsTrie": "0x56e81f171bcc55a6ff8345e692c0f86e5b48e01b996cadc001622fb5e363b421",
            "receiptTrie": "0x56e81f171bcc55a6ff8345e692c0f86e5b48e01b996cadc001622fb5e363b421",
            "bloom": "0x00000000000000000000000000000000000000000000000000000000000000000000000000000000000000000000000000000000000000000000000000000000000000000000000000000000000000000000000000000000000000000000000000000000000000000000000000000000000000000000000000000000000000000000000000000000000000000000000000000000000000000000000000000000000000000000000000000000000000000000000000000000000000000000000000000000000000000000000000000000000000000000000000000000000000000000000000000000000000000000000000000000000000000000000000000000",
            "difficulty": "0x00",
            "number": "0x00",
            "gasLimit": "0x07270e00",
            "gasUsed": "0x00",
            "timestamp": "0x00",
            "extraData": "0x00",
            "mixHash": "0x0000000000000000000000000000000000000000000000000000000000000000",
            "nonce": "0x0000000000000000",
            "baseFeePerGas": "0x07",
            "withdrawalsRoot": "0x56e81f171bcc55a6ff8345e692c0f86e5b48e01b996cadc001622fb5e363b421",
            "blobGasUsed": "0x00",
            "excessBlobGas": "0x00",
            "parentBeaconBlockRoot": "0x0000000000000000000000000000000000000000000000000000000000000000",
            "hash": "0x99c1f3a5b0e7c60bf196bee883441355716542e5c1387a9b5bd09da25a34cf58"
        },
        "pre": {
            "0x000f3df6d732807ef1319fb7b8bb8522d0beac02": {
                "nonce": "0x01",
                "balance": "0x00",
                "code": "0x3373fffffffffffffffffffffffffffffffffffffffe14604d57602036146024575f5ffd5b5f35801560495762001fff810690815414603c575f5ffd5b62001fff01545f5260205ff35b5f5ffd5b62001fff42064281555f359062001fff015500",
                "storage": {}
            },
            "0x41a518d831226e823f596a55c095b9d7bc73f8ff": {
                "nonce": "0x01",
                "balance": "0x00",
                "code": "0x7f610002600081600b8239f332ff000000000000000000000000000000000000006000526000600d60006000f56000556000543f6001556000543b60025560006000526002600060006000543c60005160035560006000600060006000600054620186a0f1506000543f6004556000543b60055560006000526002600060006000543c600051600655",
                "storage": {
                    "0x00": "0xba5e"
                }
            },
            "0x1ad9bc24818784172ff393bb6f89f094d4d2ca29": {
                "nonce": "0x00",
                "balance": "0x3635c9adc5dea00000",
                "code": "0x",
                "storage": {}
            }
        },
        "postState": {
            "0x000f3df6d732807ef1319fb7b8bb8522d0beac02": {
                "nonce": "0x01",
                "balance": "0x00",
                "code": "0x3373fffffffffffffffffffffffffffffffffffffffe14604d57602036146024575f5ffd5b5f35801560495762001fff810690815414603c575f5ffd5b62001fff01545f5260205ff35b5f5ffd5b62001fff42064281555f359062001fff015500",
                "storage": {
                    "0x03e8": "0x03e8"
                }
            },
            "0x41a518d831226e823f596a55c095b9d7bc73f8ff": {
                "nonce": "0x02",
                "balance": "0x00",
                "code": "0x7f610002600081600b8239f332ff000000000000000000000000000000000000006000526000600d60006000f56000556000543f6001556000543b60025560006000526002600060006000543c60005160035560006000600060006000600054620186a0f1506000543f6004556000543b60055560006000526002600060006000543c600051600655",
                "storage": {
                    "0x00": "0x7575a1682d901310b571843daa185b1823a2d31d",
                    "0x01": "0x3a6ca0f2fdba9798ec7350fb5106f9dd4102ec04a5cbd39ec60cd921c3d7af06",
                    "0x02": "0x02",
                    "0x03": "0x32ff000000000000000000000000000000000000000000000000000000000000",
                    "0x04": "0x3a6ca0f2fdba9798ec7350fb5106f9dd4102ec04a5cbd39ec60cd921c3d7af06",
                    "0x05": "0x02",
                    "0x06": "0x32ff000000000000000000000000000000000000000000000000000000000000"
                }
            },
            "0x1ad9bc24818784172ff393bb6f89f094d4d2ca29": {
                "nonce": "0x01",
                "balance": "0x3635c9adc5de81da44",
                "code": "0x",
                "storage": {}
            },
            "0x2adc25665018aa1fe0e6bc666dac8fc2697ff9ba": {
                "nonce": "0x00",
                "balance": "0x090b52",
                "code": "0x",
                "storage": {}
            }
        },
        "lastblockhash": "0x9ad3e7be8202d185e83d7af773a502371f36831683fb38b435ae741ad9e79769",
        "config": {
            "network": "Cancun",
            "chainid": "0x01",
            "blobSchedule": {
                "Cancun": {
                    "target": "0x03",
                    "max": "0x06",
                    "baseFeeUpdateFraction": "0x32f0ed"
                }
            }
        },
        "genesisRLP": "0xf9023cf90236a00000000000000000000000000000000000000000000000000000000000000000a01dcc4de8dec75d7aab85b567b6ccd41ad312451b948a7413f0a142fd40d49347940000000000000000000000000000000000000000a0801f16f25fe7272a47d770488eb06f411331e3a8ba1b07fe50d0c3a300a58723a056e81f171bcc55a6ff8345e692c0f86e5b48e01b996cadc001622fb5e363b421a056e81f171bcc55a6ff8345e692c0f86e5b48e01b996cadc001622fb5e363b421b901000000000000000000000000000000000000000000000000000000000000000000000000000000000000000000000000000000000000000000000000000000000000000000000000000000000000000000000000000000000000000000000000000000000000000000000000000000000000000000000000000000000000000000000000000000000000000000000000000000000000000000000000000000000000000000000000000000000000000000000000000000000000000000000000000000000000000000000000000000000000000000000000000000000000000000000000000000000000000000000000000000000000000000000000000000000080808407270e00808000a0000000000000000000000000000000000000000000000000000000000000000088000000000000000007a056e81f171bcc55a6ff8345e692c0f86e5b48e01b996cadc001622fb5e363b4218080a00000000000000000000000000000000000000000000000000000000000000000c0c0c0",
        "blocks": [
            {
                "blockHeader": {
                    "parentHash": "0x99c1f3a5b0e7c60bf196bee883441355716542e5c1387a9b5bd09da25a34cf58",
                    "uncleHash": "0x1dcc4de8dec75d7aab85b567b6ccd41ad312451b948a7413f0a142fd40d49347",
                    "coinbase": "0x2adc25665018aa1fe0e6bc666dac8fc2697ff9ba",
                    "stateRoot": "0xd50b5e82b5b5c7677fbe16dee6d7938e6862a807e99dd88a53e0dffb04581abd",
                    "transactionsTrie": "0xdd7d1199043d3430a534b9ba35c57d265c082f5e60510ac795850d058ff27dee",
                    "receiptTrie": "0xf5288eb35864a19d0f8cc012002a038931609e2c3e285e7f86e7c1dc341a6f05",
                    "bloom": "0x00000000000000000000000000000000000000000000000000000000000000000000000000000000000000000000000000000000000000000000000000000000000000000000000000000000000000000000000000000000000000000000000000000000000000000000000000000000000000000000000000000000000000000000000000000000000000000000000000000000000000000000000000000000000000000000000000000000000000000000000000000000000000000000000000000000000000000000000000000000000000000000000000000000000000000000000000000000000000000000000000000000000000000000000000000000",
                    "difficulty": "0x00",
                    "number": "0x01",
                    "gasLimit": "0x07270e00",
                    "gasUsed": "0x0303c6",
                    "timestamp": "0x03e8",
                    "extraData": "0x00",
                    "mixHash": "0x0000000000000000000000000000000000000000000000000000000000000000",
                    "nonce": "0x0000000000000000",
                    "baseFeePerGas": "0x07",
                    "withdrawalsRoot": "0x56e81f171bcc55a6ff8345e692c0f86e5b48e01b996cadc001622fb5e363b421",
                    "blobGasUsed": "0x00",
                    "excessBlobGas": "0x00",
                    "parentBeaconBlockRoot": "0x0000000000000000000000000000000000000000000000000000000000000000",
                    "hash": "0x9ad3e7be8202d185e83d7af773a502371f36831683fb38b435ae741ad9e79769"
                },
                "transactions": [
                    {
                        "type": "0x00",
                        "chainId": "0x01",
                        "nonce": "0x00",
                        "gasPrice": "0x0a",
                        "gasLimit": "0x061a80",
                        "to": "0x41a518d831226e823f596a55c095b9d7bc73f8ff",
                        "value": "0x00",
                        "data": "0x",
                        "v": "0x25",
                        "r": "0x096f47ad3a4e2b1a188c4810bb95214fb1bf56ee5fd2214b92a63955074e94b1",
                        "s": "0x03c4be38a3b46974e995642003c894b1514b06efb0651b1bf95216fdf4a75ef2",
                        "sender": "0x1ad9bc24818784172ff393bb6f89f094d4d2ca29"
                    }
                ],
                "uncleHeaders": [],
                "withdrawals": [],
                "receipts": [
                    {
                        "transactionHash": "0xa8aa3e0f2c1799d1d10c98254f06b5515aee2190309f113cf2a9da10186dca52",
                        "type": "0x00",
                        "cumulativeGasUsed": "0x0303c6",
                        "bloom": "0x00000000000000000000000000000000000000000000000000000000000000000000000000000000000000000000000000000000000000000000000000000000000000000000000000000000000000000000000000000000000000000000000000000000000000000000000000000000000000000000000000000000000000000000000000000000000000000000000000000000000000000000000000000000000000000000000000000000000000000000000000000000000000000000000000000000000000000000000000000000000000000000000000000000000000000000000000000000000000000000000000000000000000000000000000000000",
                        "logs": [],
                        "status": true,
                        "rlp": "0xf9010901830303c6b9010000000000000000000000000000000000000000000000000000000000000000000000000000000000000000000000000000000000000000000000000000000000000000000000000000000000000000000000000000000000000000000000000000000000000000000000000000000000000000000000000000000000000000000000000000000000000000000000000000000000000000000000000000000000000000000000000000000000000000000000000000000000000000000000000000000000000000000000000000000000000000000000000000000000000000000000000000000000000000000000000000000000000000000000000000000000c0"
                    }
                ],
                "rlp": "0xf902a4f9023ba099c1f3a5b0e7c60bf196bee883441355716542e5c1387a9b5bd09da25a34cf58a01dcc4de8dec75d7aab85b567b6ccd41ad312451b948a7413f0a142fd40d49347942adc25665018aa1fe0e6bc666dac8fc2697ff9baa0d50b5e82b5b5c7677fbe16dee6d7938e6862a807e99dd88a53e0dffb04581abda0dd7d1199043d3430a534b9ba35c57d265c082f5e60510ac795850d058ff27deea0f5288eb35864a19d0f8cc012002a038931609e2c3e285e7f86e7c1dc341a6f05b901000000000000000000000000000000000000000000000000000000000000000000000000000000000000000000000000000000000000000000000000000000000000000000000000000000000000000000000000000000000000000000000000000000000000000000000000000000000000000000000000000000000000000000000000000000000000000000000000000000000000000000000000000000000000000000000000000000000000000000000000000000000000000000000000000000000000000000000000000000000000000000000000000000000000000000000000000000000000000000000000000000000000000000000000000000000080018407270e00830303c68203e800a0000000000000000000000000000000000000000000000000000000000000000088000000000000000007a056e81f171bcc55a6ff8345e692c0f86e5b48e01b996cadc001622fb5e363b4218080a00000000000000000000000000000000000000000000000000000000000000000f862f860800a83061a809441a518d831226e823f596a55c095b9d7bc73f8ff808025a0096f47ad3a4e2b1a188c4810bb95214fb1bf56ee5fd2214b92a63955074e94b1a003c4be38a3b46974e995642003c894b1514b06efb0651b1bf95216fdf4a75ef2c0c0",
                "blocknumber": "1"
            }
        ],
        "sealEngine": "NoProof",
        "_info": {
            "hash": "0x68ef7697134226ad59cf0fc3f12f3cd6cecb15f1f60a91c77ef696a0b930b542",
            "fixture-format": "blockchain_test",
            "comment": "`execution-specs` generated test",
            "filling-transition-tool": "2.19.0",
            "description": "Test EXTCODEHASH/EXTCODESIZE/EXTCODECOPY before and after SELFDESTRUCT.\n\nVerifies that code hash, size, and copied code remain unchanged\nwithin the transaction after SELFDESTRUCT is triggered.\nPre-Cancun, all selfdestructed accounts are deleted. From Cancun\n(EIP-6780), only accounts created in the same transaction are\ndeleted; pre-existing accounts persist with balance drained.",
            "url": "https://github.com/ethereum/execution-specs/blob/tests-bal@v5.7.0/tests/constantinople/eip1052_extcodehash/test_extcodehash.py#L777",
            "metadata": {
                "opcode_count": {}
            },
            "reference-spec": "https://github.com/ethereum/EIPs/blob/master/EIPS/eip-1052.md",
            "reference-spec-version": "2dcbc7ce1563e9624e137e9d447374600af876fa"
        }
    },
    "tests/constantinople/eip1052_extcodehash/test_extcodehash.py::test_extcodehash_after_selfdestruct[fork_Cancun-blockchain_test_from_state_test-create]": {
        "network": "Cancun",
        "genesisBlockHeader": {
            "parentHash": "0x0000000000000000000000000000000000000000000000000000000000000000",
            "uncleHash": "0x1dcc4de8dec75d7aab85b567b6ccd41ad312451b948a7413f0a142fd40d49347",
            "coinbase": "0x0000000000000000000000000000000000000000",
            "stateRoot": "0x4f0e88f23f78c4514394d289f4d916155d7154b08aff9bfb1e2ebd1c63079356",
            "transactionsTrie": "0x56e81f171bcc55a6ff8345e692c0f86e5b48e01b996cadc001622fb5e363b421",
            "receiptTrie": "0x56e81f171bcc55a6ff8345e692c0f86e5b48e01b996cadc001622fb5e363b421",
            "bloom": "0x00000000000000000000000000000000000000000000000000000000000000000000000000000000000000000000000000000000000000000000000000000000000000000000000000000000000000000000000000000000000000000000000000000000000000000000000000000000000000000000000000000000000000000000000000000000000000000000000000000000000000000000000000000000000000000000000000000000000000000000000000000000000000000000000000000000000000000000000000000000000000000000000000000000000000000000000000000000000000000000000000000000000000000000000000000000",
            "difficulty": "0x00",
            "number": "0x00",
            "gasLimit": "0x07270e00",
            "gasUsed": "0x00",
            "timestamp": "0x00",
            "extraData": "0x00",
            "mixHash": "0x0000000000000000000000000000000000000000000000000000000000000000",
            "nonce": "0x0000000000000000",
            "baseFeePerGas": "0x07",
            "withdrawalsRoot": "0x56e81f171bcc55a6ff8345e692c0f86e5b48e01b996cadc001622fb5e363b421",
            "blobGasUsed": "0x00",
            "excessBlobGas": "0x00",
            "parentBeaconBlockRoot": "0x0000000000000000000000000000000000000000000000000000000000000000",
            "hash": "0x665111fa93c62e3474dcedf2cc39365b1c52af2e4bbb210b0aa6b49766a334fe"
        },
        "pre": {
            "0x000f3df6d732807ef1319fb7b8bb8522d0beac02": {
                "nonce": "0x01",
                "balance": "0x00",
                "code": "0x3373fffffffffffffffffffffffffffffffffffffffe14604d57602036146024575f5ffd5b5f35801560495762001fff810690815414603c575f5ffd5b62001fff01545f5260205ff35b5f5ffd5b62001fff42064281555f359062001fff015500",
                "storage": {}
            },
            "0xe7186ea0c9fd562f61de9fc9a27b47cabad7894a": {
                "nonce": "0x01",
                "balance": "0x00",
                "code": "0x7f610002600081600b8239f332ff00000000000000000000000000000000000000600052600d60006000f06000556000543f6001556000543b60025560006000526002600060006000543c60005160035560006000600060006000600054620186a0f1506000543f6004556000543b60055560006000526002600060006000543c600051600655",
                "storage": {
                    "0x00": "0xba5e"
                }
            },
            "0x1ad9bc24818784172ff393bb6f89f094d4d2ca29": {
                "nonce": "0x00",
                "balance": "0x3635c9adc5dea00000",
                "code": "0x",
                "storage": {}
            }
        },
        "postState": {
            "0x000f3df6d732807ef1319fb7b8bb8522d0beac02": {
                "nonce": "0x01",
                "balance": "0x00",
                "code": "0x3373fffffffffffffffffffffffffffffffffffffffe14604d57602036146024575f5ffd5b5f35801560495762001fff810690815414603c575f5ffd5b62001fff01545f5260205ff35b5f5ffd5b62001fff42064281555f359062001fff015500",
                "storage": {
                    "0x03e8": "0x03e8"
                }
            },
            "0xe7186ea0c9fd562f61de9fc9a27b47cabad7894a": {
                "nonce": "0x02",
                "balance": "0x00",
                "code": "0x7f610002600081600b8239f332ff00000000000000000000000000000000000000600052600d60006000f06000556000543f6001556000543b60025560006000526002600060006000543c60005160035560006000600060006000600054620186a0f1506000543f6004556000543b60055560006000526002600060006000543c600051600655",
                "storage": {
                    "0x00": "0xdbfe21295c375d2a148ba776410ff63e09ac78b5",
                    "0x01": "0x3a6ca0f2fdba9798ec7350fb5106f9dd4102ec04a5cbd39ec60cd921c3d7af06",
                    "0x02": "0x02",
                    "0x03": "0x32ff000000000000000000000000000000000000000000000000000000000000",
                    "0x04": "0x3a6ca0f2fdba9798ec7350fb5106f9dd4102ec04a5cbd39ec60cd921c3d7af06",
                    "0x05": "0x02",
                    "0x06": "0x32ff000000000000000000000000000000000000000000000000000000000000"
                }
            },
            "0x1ad9bc24818784172ff393bb6f89f094d4d2ca29": {
                "nonce": "0x01",
                "balance": "0x3635c9adc5de81da9e",
                "code": "0x",
                "storage": {}
            },
            "0x2adc25665018aa1fe0e6bc666dac8fc2697ff9ba": {
                "nonce": "0x00",
                "balance": "0x090b37",
                "code": "0x",
                "storage": {}
            }
        },
        "lastblockhash": "0xff3d9fccbcd2386ccc95a7e6e4eb44167ccde6d082c6b0e835d1dd5487ff1a76",
        "config": {
            "network": "Cancun",
            "chainid": "0x01",
            "blobSchedule": {
                "Cancun": {
                    "target": "0x03",
                    "max": "0x06",
                    "baseFeeUpdateFraction": "0x32f0ed"
                }
            }
        },
        "genesisRLP": "0xf9023cf90236a00000000000000000000000000000000000000000000000000000000000000000a01dcc4de8dec75d7aab85b567b6ccd41ad312451b948a7413f0a142fd40d49347940000000000000000000000000000000000000000a04f0e88f23f78c4514394d289f4d916155d7154b08aff9bfb1e2ebd1c63079356a056e81f171bcc55a6ff8345e692c0f86e5b48e01b996cadc001622fb5e363b421a056e81f171bcc55a6ff8345e692c0f86e5b48e01b996cadc001622fb5e363b421b901000000000000000000000000000000000000000000000000000000000000000000000000000000000000000000000000000000000000000000000000000000000000000000000000000000000000000000000000000000000000000000000000000000000000000000000000000000000000000000000000000000000000000000000000000000000000000000000000000000000000000000000000000000000000000000000000000000000000000000000000000000000000000000000000000000000000000000000000000000000000000000000000000000000000000000000000000000000000000000000000000000000000000000000000000000000080808407270e00808000a0000000000000000000000000000000000000000000000000000000000000000088000000000000000007a056e81f171bcc55a6ff8345e692c0f86e5b48e01b996cadc001622fb5e363b4218080a00000000000000000000000000000000000000000000000000000000000000000c0c0c0",
        "blocks": [
            {
                "blockHeader": {
                    "parentHash": "0x665111fa93c62e3474dcedf2cc39365b1c52af2e4bbb210b0aa6b49766a334fe",
                    "uncleHash": "0x1dcc4de8dec75d7aab85b567b6ccd41ad312451b948a7413f0a142fd40d49347",
                    "coinbase": "0x2adc25665018aa1fe0e6bc666dac8fc2697ff9ba",
                    "stateRoot": "0x844c3b752a97c9a1aea5d2c909bb84183fd1a9a1ec9e2e6fa353cb6e2d61ca6f",
                    "transactionsTrie": "0xd47f2c0141e002b28928c1b1612677550470d981b5a989fa01d159b6ba28813f",
                    "receiptTrie": "0x6c897a52e3f0f7b576def2a001ecb723055969dff356cd38fb7bdf4f2497c313",
                    "bloom": "0x00000000000000000000000000000000000000000000000000000000000000000000000000000000000000000000000000000000000000000000000000000000000000000000000000000000000000000000000000000000000000000000000000000000000000000000000000000000000000000000000000000000000000000000000000000000000000000000000000000000000000000000000000000000000000000000000000000000000000000000000000000000000000000000000000000000000000000000000000000000000000000000000000000000000000000000000000000000000000000000000000000000000000000000000000000000",
                    "difficulty": "0x00",
                    "number": "0x01",
                    "gasLimit": "0x07270e00",
                    "gasUsed": "0x0303bd",
                    "timestamp": "0x03e8",
                    "extraData": "0x00",
                    "mixHash": "0x0000000000000000000000000000000000000000000000000000000000000000",
                    "nonce": "0x0000000000000000",
                    "baseFeePerGas": "0x07",
                    "withdrawalsRoot": "0x56e81f171bcc55a6ff8345e692c0f86e5b48e01b996cadc001622fb5e363b421",
                    "blobGasUsed": "0x00",
                    "excessBlobGas": "0x00",
                    "parentBeaconBlockRoot": "0x0000000000000000000000000000000000000000000000000000000000000000",
                    "hash": "0xff3d9fccbcd2386ccc95a7e6e4eb44167ccde6d082c6b0e835d1dd5487ff1a76"
                },
                "transactions": [
                    {
                        "type": "0x00",
                        "chainId": "0x01",
                        "nonce": "0x00",
                        "gasPrice": "0x0a",
                        "gasLimit": "0x061a80",
                        "to": "0xe7186ea0c9fd562f61de9fc9a27b47cabad7894a",
                        "value": "0x00",
                        "data": "0x",
                        "v": "0x25",
                        "r": "0xcabf69f9cd212782574b1d47ce1836c50cb6f0ee4b3586835f35633ef3a040c6",
                        "s": "0x7382480f797cbae79015b8d88af35eab1cd67136e57ea2dd6f88ced1acb43f31",
                        "sender": "0x1ad9bc24818784172ff393bb6f89f094d4d2ca29"
                    }
                ],
                "uncleHeaders": [],
                "withdrawals": [],
                "receipts": [
                    {
                        "transactionHash": "0xbb14652bf022028d1542d4fb477db0e33daa092558d08404309ca6f0210d9439",
                        "type": "0x00",
                        "cumulativeGasUsed": "0x0303bd",
                        "bloom": "0x00000000000000000000000000000000000000000000000000000000000000000000000000000000000000000000000000000000000000000000000000000000000000000000000000000000000000000000000000000000000000000000000000000000000000000000000000000000000000000000000000000000000000000000000000000000000000000000000000000000000000000000000000000000000000000000000000000000000000000000000000000000000000000000000000000000000000000000000000000000000000000000000000000000000000000000000000000000000000000000000000000000000000000000000000000000",
                        "logs": [],
                        "status": true,
                        "rlp": "0xf9010901830303bdb9010000000000000000000000000000000000000000000000000000000000000000000000000000000000000000000000000000000000000000000000000000000000000000000000000000000000000000000000000000000000000000000000000000000000000000000000000000000000000000000000000000000000000000000000000000000000000000000000000000000000000000000000000000000000000000000000000000000000000000000000000000000000000000000000000000000000000000000000000000000000000000000000000000000000000000000000000000000000000000000000000000000000000000000000000000000000c0"
                    }
                ],
                "rlp": "0xf902a4f9023ba0665111fa93c62e3474dcedf2cc39365b1c52af2e4bbb210b0aa6b49766a334fea01dcc4de8dec75d7aab85b567b6ccd41ad312451b948a7413f0a142fd40d49347942adc25665018aa1fe0e6bc666dac8fc2697ff9baa0844c3b752a97c9a1aea5d2c909bb84183fd1a9a1ec9e2e6fa353cb6e2d61ca6fa0d47f2c0141e002b28928c1b1612677550470d981b5a989fa01d159b6ba28813fa06c897a52e3f0f7b576def2a001ecb723055969dff356cd38fb7bdf4f2497c313b901000000000000000000000000000000000000000000000000000000000000000000000000000000000000000000000000000000000000000000000000000000000000000000000000000000000000000000000000000000000000000000000000000000000000000000000000000000000000000000000000000000000000000000000000000000000000000000000000000000000000000000000000000000000000000000000000000000000000000000000000000000000000000000000000000000000000000000000000000000000000000000000000000000000000000000000000000000000000000000000000000000000000000000000000000000000080018407270e00830303bd8203e800a0000000000000000000000000000000000000000000000000000000000000000088000000000000000007a056e81f171bcc55a6ff8345e692c0f86e5b48e01b996cadc001622fb5e363b4218080a00000000000000000000000000000000000000000000000000000000000000000f862f860800a83061a8094e7186ea0c9fd562f61de9fc9a27b47cabad7894a808025a0cabf69f9cd212782574b1d47ce1836c50cb6f0ee4b3586835f35633ef3a040c6a07382480f797cbae79015b8d88af35eab1cd67136e57ea2dd6f88ced1acb43f31c0c0",
                "blocknumber": "1"
            }
        ],
        "sealEngine": "NoProof",
        "_info": {
            "hash": "0x0d2756db0d6ebd24dd2b45ec722c36ac1b3e0bb76590358d5566427b0084e749",
            "fixture-format": "blockchain_test",
            "comment": "`execution-specs` generated test",
            "filling-transition-tool": "2.19.0",
            "description": "Test EXTCODEHASH/EXTCODESIZE/EXTCODECOPY before and after SELFDESTRUCT.\n\nVerifies that code hash, size, and copied code remain unchanged\nwithin the transaction after SELFDESTRUCT is triggered.\nPre-Cancun, all selfdestructed accounts are deleted. From Cancun\n(EIP-6780), only accounts created in the same transaction are\ndeleted; pre-existing accounts persist with balance drained.",
            "url": "https://github.com/ethereum/execution-specs/blob/tests-bal@v5.7.0/tests/constantinople/eip1052_extcodehash/test_extcodehash.py#L777",
            "metadata": {
                "opcode_count": {}
            },
            "reference-spec": "https://github.com/ethereum/EIPs/blob/master/EIPS/eip-1052.md",
            "reference-spec-version": "2dcbc7ce1563e9624e137e9d447374600af876fa"
        }
    },
    "tests/constantinople/eip1052_extcodehash/test_extcodehash.py::test_extcodehash_after_selfdestruct[fork_Cancun-blockchain_test_from_state_test-pre_existing]": {
        "network": "Cancun",
        "genesisBlockHeader": {
            "parentHash": "0x0000000000000000000000000000000000000000000000000000000000000000",
            "uncleHash": "0x1dcc4de8dec75d7aab85b567b6ccd41ad312451b948a7413f0a142fd40d49347",
            "coinbase": "0x0000000000000000000000000000000000000000",
            "stateRoot": "0x7ed5289eff496cb8e8b64fb5866f63cc53bf56b66825976a6c95c8f057badd03",
            "transactionsTrie": "0x56e81f171bcc55a6ff8345e692c0f86e5b48e01b996cadc001622fb5e363b421",
            "receiptTrie": "0x56e81f171bcc55a6ff8345e692c0f86e5b48e01b996cadc001622fb5e363b421",
            "bloom": "0x00000000000000000000000000000000000000000000000000000000000000000000000000000000000000000000000000000000000000000000000000000000000000000000000000000000000000000000000000000000000000000000000000000000000000000000000000000000000000000000000000000000000000000000000000000000000000000000000000000000000000000000000000000000000000000000000000000000000000000000000000000000000000000000000000000000000000000000000000000000000000000000000000000000000000000000000000000000000000000000000000000000000000000000000000000000",
            "difficulty": "0x00",
            "number": "0x00",
            "gasLimit": "0x07270e00",
            "gasUsed": "0x00",
            "timestamp": "0x00",
            "extraData": "0x00",
            "mixHash": "0x0000000000000000000000000000000000000000000000000000000000000000",
            "nonce": "0x0000000000000000",
            "baseFeePerGas": "0x07",
            "withdrawalsRoot": "0x56e81f171bcc55a6ff8345e692c0f86e5b48e01b996cadc001622fb5e363b421",
            "blobGasUsed": "0x00",
            "excessBlobGas": "0x00",
            "parentBeaconBlockRoot": "0x0000000000000000000000000000000000000000000000000000000000000000",
            "hash": "0x87a622f6c513ebe23672af4e2e70190247eff3de2db2525d99fc06407183bcb7"
        },
        "pre": {
            "0x000f3df6d732807ef1319fb7b8bb8522d0beac02": {
                "nonce": "0x01",
                "balance": "0x00",
                "code": "0x3373fffffffffffffffffffffffffffffffffffffffe14604d57602036146024575f5ffd5b5f35801560495762001fff810690815414603c575f5ffd5b62001fff01545f5260205ff35b5f5ffd5b62001fff42064281555f359062001fff015500",
                "storage": {}
            },
            "0x4e79bc2cd8a7eb5b08159b6d1c42d2b768d9fefd": {
                "nonce": "0x01",
                "balance": "0x01",
                "code": "0x32ff",
                "storage": {}
            },
            "0x8efc5703232bdedd935b8c5723760398fbae28a6": {
                "nonce": "0x01",
                "balance": "0x00",
                "code": "0x734e79bc2cd8a7eb5b08159b6d1c42d2b768d9fefd3f600055734e79bc2cd8a7eb5b08159b6d1c42d2b768d9fefd3b6001556000600052600260006000734e79bc2cd8a7eb5b08159b6d1c42d2b768d9fefd3c60005160025560006000600060006000734e79bc2cd8a7eb5b08159b6d1c42d2b768d9fefd620186a0f150734e79bc2cd8a7eb5b08159b6d1c42d2b768d9fefd3f600355734e79bc2cd8a7eb5b08159b6d1c42d2b768d9fefd3b6004556000600052600260006000734e79bc2cd8a7eb5b08159b6d1c42d2b768d9fefd3c600051600555",
                "storage": {}
            },
            "0x1ad9bc24818784172ff393bb6f89f094d4d2ca29": {
                "nonce": "0x00",
                "balance": "0x3635c9adc5dea00000",
                "code": "0x",
                "storage": {}
            }
        },
        "postState": {
            "0x000f3df6d732807ef1319fb7b8bb8522d0beac02": {
                "nonce": "0x01",
                "balance": "0x00",
                "code": "0x3373fffffffffffffffffffffffffffffffffffffffe14604d57602036146024575f5ffd5b5f35801560495762001fff810690815414603c575f5ffd5b62001fff01545f5260205ff35b5f5ffd5b62001fff42064281555f359062001fff015500",
                "storage": {
                    "0x03e8": "0x03e8"
                }
            },
            "0x4e79bc2cd8a7eb5b08159b6d1c42d2b768d9fefd": {
                "nonce": "0x01",
                "balance": "0x00",
                "code": "0x32ff",
                "storage": {}
            },
            "0x8efc5703232bdedd935b8c5723760398fbae28a6": {
                "nonce": "0x01",
                "balance": "0x00",
                "code": "0x734e79bc2cd8a7eb5b08159b6d1c42d2b768d9fefd3f600055734e79bc2cd8a7eb5b08159b6d1c42d2b768d9fefd3b6001556000600052600260006000734e79bc2cd8a7eb5b08159b6d1c42d2b768d9fefd3c60005160025560006000600060006000734e79bc2cd8a7eb5b08159b6d1c42d2b768d9fefd620186a0f150734e79bc2cd8a7eb5b08159b6d1c42d2b768d9fefd3f600355734e79bc2cd8a7eb5b08159b6d1c42d2b768d9fefd3b6004556000600052600260006000734e79bc2cd8a7eb5b08159b6d1c42d2b768d9fefd3c600051600555",
                "storage": {
                    "0x00": "0x3a6ca0f2fdba9798ec7350fb5106f9dd4102ec04a5cbd39ec60cd921c3d7af06",
                    "0x01": "0x02",
                    "0x02": "0x32ff000000000000000000000000000000000000000000000000000000000000",
                    "0x03": "0x3a6ca0f2fdba9798ec7350fb5106f9dd4102ec04a5cbd39ec60cd921c3d7af06",
                    "0x04": "0x02",
                    "0x05": "0x32ff000000000000000000000000000000000000000000000000000000000000"
                }
            },
            "0x1ad9bc24818784172ff393bb6f89f094d4d2ca29": {
                "nonce": "0x01",
                "balance": "0x3635c9adc5de874b15",
                "code": "0x",
                "storage": {}
            },
            "0x2adc25665018aa1fe0e6bc666dac8fc2697ff9ba": {
                "nonce": "0x00",
                "balance": "0x07697a",
                "code": "0x",
                "storage": {}
            }
        },
        "lastblockhash": "0xac2887c592737c5c8047171a97730848ded6e128e9e3a71e14158ab6d241c72b",
        "config": {
            "network": "Cancun",
            "chainid": "0x01",
            "blobSchedule": {
                "Cancun": {
                    "target": "0x03",
                    "max": "0x06",
                    "baseFeeUpdateFraction": "0x32f0ed"
                }
            }
        },
        "genesisRLP": "0xf9023cf90236a00000000000000000000000000000000000000000000000000000000000000000a01dcc4de8dec75d7aab85b567b6ccd41ad312451b948a7413f0a142fd40d49347940000000000000000000000000000000000000000a07ed5289eff496cb8e8b64fb5866f63cc53bf56b66825976a6c95c8f057badd03a056e81f171bcc55a6ff8345e692c0f86e5b48e01b996cadc001622fb5e363b421a056e81f171bcc55a6ff8345e692c0f86e5b48e01b996cadc001622fb5e363b421b901000000000000000000000000000000000000000000000000000000000000000000000000000000000000000000000000000000000000000000000000000000000000000000000000000000000000000000000000000000000000000000000000000000000000000000000000000000000000000000000000000000000000000000000000000000000000000000000000000000000000000000000000000000000000000000000000000000000000000000000000000000000000000000000000000000000000000000000000000000000000000000000000000000000000000000000000000000000000000000000000000000000000000000000000000000000080808407270e00808000a0000000000000000000000000000000000000000000000000000000000000000088000000000000000007a056e81f171bcc55a6ff8345e692c0f86e5b48e01b996cadc001622fb5e363b4218080a00000000000000000000000000000000000000000000000000000000000000000c0c0c0",
        "blocks": [
            {
                "blockHeader": {
                    "parentHash": "0x87a622f6c513ebe23672af4e2e70190247eff3de2db2525d99fc06407183bcb7",
                    "uncleHash": "0x1dcc4de8dec75d7aab85b567b6ccd41ad312451b948a7413f0a142fd40d49347",
                    "coinbase": "0x2adc25665018aa1fe0e6bc666dac8fc2697ff9ba",
                    "stateRoot": "0xf6fbbe055099b973a80bae97707ba3a9a088b57c733a69b342322fea7e1c0547",
                    "transactionsTrie": "0x6583104a9b7e3be81efdb2d54e2fe43197debe56a2484b8078995806f080a4b9",
                    "receiptTrie": "0xf7b4655654e0eba5845521e20660f78f2f2339001fe5ae55f4faf412daf37b67",
                    "bloom": "0x00000000000000000000000000000000000000000000000000000000000000000000000000000000000000000000000000000000000000000000000000000000000000000000000000000000000000000000000000000000000000000000000000000000000000000000000000000000000000000000000000000000000000000000000000000000000000000000000000000000000000000000000000000000000000000000000000000000000000000000000000000000000000000000000000000000000000000000000000000000000000000000000000000000000000000000000000000000000000000000000000000000000000000000000000000000",
                    "difficulty": "0x00",
                    "number": "0x01",
                    "gasLimit": "0x07270e00",
                    "gasUsed": "0x02787e",
                    "timestamp": "0x03e8",
                    "extraData": "0x00",
                    "mixHash": "0x0000000000000000000000000000000000000000000000000000000000000000",
                    "nonce": "0x0000000000000000",
                    "baseFeePerGas": "0x07",
                    "withdrawalsRoot": "0x56e81f171bcc55a6ff8345e692c0f86e5b48e01b996cadc001622fb5e363b421",
                    "blobGasUsed": "0x00",
                    "excessBlobGas": "0x00",
                    "parentBeaconBlockRoot": "0x0000000000000000000000000000000000000000000000000000000000000000",
                    "hash": "0xac2887c592737c5c8047171a97730848ded6e128e9e3a71e14158ab6d241c72b"
                },
                "transactions": [
                    {
                        "type": "0x00",
                        "chainId": "0x01",
                        "nonce": "0x00",
                        "gasPrice": "0x0a",
                        "gasLimit": "0x061a80",
                        "to": "0x8efc5703232bdedd935b8c5723760398fbae28a6",
                        "value": "0x00",
                        "data": "0x",
                        "v": "0x25",
                        "r": "0x03789eaaa85adefd28f08c9b7767cc7d4a654db0d6eba18751b9606ad60b5de3",
                        "s": "0x04318cee105bdfe55ad94e4f59793281581af374cd0f4a15fbbf77f951bb85da",
                        "sender": "0x1ad9bc24818784172ff393bb6f89f094d4d2ca29"
                    }
                ],
                "uncleHeaders": [],
                "withdrawals": [],
                "receipts": [
                    {
                        "transactionHash": "0xec98bfc5b531bf7c7466ac95f1a545c1165f9384ceb2ff27ea01fdb787a0fe5f",
                        "type": "0x00",
                        "cumulativeGasUsed": "0x02787e",
                        "bloom": "0x00000000000000000000000000000000000000000000000000000000000000000000000000000000000000000000000000000000000000000000000000000000000000000000000000000000000000000000000000000000000000000000000000000000000000000000000000000000000000000000000000000000000000000000000000000000000000000000000000000000000000000000000000000000000000000000000000000000000000000000000000000000000000000000000000000000000000000000000000000000000000000000000000000000000000000000000000000000000000000000000000000000000000000000000000000000",
                        "logs": [],
                        "status": true,
                        "rlp": "0xf90109018302787eb9010000000000000000000000000000000000000000000000000000000000000000000000000000000000000000000000000000000000000000000000000000000000000000000000000000000000000000000000000000000000000000000000000000000000000000000000000000000000000000000000000000000000000000000000000000000000000000000000000000000000000000000000000000000000000000000000000000000000000000000000000000000000000000000000000000000000000000000000000000000000000000000000000000000000000000000000000000000000000000000000000000000000000000000000000000000000c0"
                    }
                ],
                "rlp": "0xf902a4f9023ba087a622f6c513ebe23672af4e2e70190247eff3de2db2525d99fc06407183bcb7a01dcc4de8dec75d7aab85b567b6ccd41ad312451b948a7413f0a142fd40d49347942adc25665018aa1fe0e6bc666dac8fc2697ff9baa0f6fbbe055099b973a80bae97707ba3a9a088b57c733a69b342322fea7e1c0547a06583104a9b7e3be81efdb2d54e2fe43197debe56a2484b8078995806f080a4b9a0f7b4655654e0eba5845521e20660f78f2f2339001fe5ae55f4faf412daf37b67b901000000000000000000000000000000000000000000000000000000000000000000000000000000000000000000000000000000000000000000000000000000000000000000000000000000000000000000000000000000000000000000000000000000000000000000000000000000000000000000000000000000000000000000000000000000000000000000000000000000000000000000000000000000000000000000000000000000000000000000000000000000000000000000000000000000000000000000000000000000000000000000000000000000000000000000000000000000000000000000000000000000000000000000000000000000000080018407270e008302787e8203e800a0000000000000000000000000000000000000000000000000000000000000000088000000000000000007a056e81f171bcc55a6ff8345e692c0f86e5b48e01b996cadc001622fb5e363b4218080a00000000000000000000000000000000000000000000000000000000000000000f862f860800a83061a80948efc5703232bdedd935b8c5723760398fbae28a6808025a003789eaaa85adefd28f08c9b7767cc7d4a654db0d6eba18751b9606ad60b5de3a004318cee105bdfe55ad94e4f59793281581af374cd0f4a15fbbf77f951bb85dac0c0",
                "blocknumber": "1"
            }
        ],
        "sealEngine": "NoProof",
        "_info": {
            "hash": "0xbdf7690c3b9235f4454361a6e6cc3b8bbff4ca54930633a3e370eb651a7d9b18",
            "fixture-format": "blockchain_test",
            "comment": "`execution-specs` generated test",
            "filling-transition-tool": "2.19.0",
            "description": "Test EXTCODEHASH/EXTCODESIZE/EXTCODECOPY before and after SELFDESTRUCT.\n\nVerifies that code hash, size, and copied code remain unchanged\nwithin the transaction after SELFDESTRUCT is triggered.\nPre-Cancun, all selfdestructed accounts are deleted. From Cancun\n(EIP-6780), only accounts created in the same transaction are\ndeleted; pre-existing accounts persist with balance drained.",
            "url": "https://github.com/ethereum/execution-specs/blob/tests-bal@v5.7.0/tests/constantinople/eip1052_extcodehash/test_extcodehash.py#L777",
            "metadata": {
                "opcode_count": {}
            },
            "reference-spec": "https://github.com/ethereum/EIPs/blob/master/EIPS/eip-1052.md",
            "reference-spec-version": "2dcbc7ce1563e9624e137e9d447374600af876fa"
        }
    }
}