{
    "tests/constantinople/eip1052_extcodehash/test_extcodehash.py::test_extcodecopy_zero_code[fork_Cancun-blockchain_test_from_state_test-target_type_existing]": {
        "network": "Cancun",
        "genesisBlockHeader": {
            "parentHash": "0x0000000000000000000000000000000000000000000000000000000000000000",
            "uncleHash": "0x1dcc4de8dec75d7aab85b567b6ccd41ad312451b948a7413f0a142fd40d49347",
            "coinbase": "0x0000000000000000000000000000000000000000",
            "stateRoot": "0x20fce600b1d35ec5eaf0946b73732e2b38ec7659807d64ec7e9c4a8dfd59d505",
            "transactionsTrie": "0x56e81f171bcc55a6ff8345e692c0f86e5b48e01b996cadc001622fb5e363b421",
            "receiptTrie": "0x56e81f171bcc55a6ff8345e692c0f86e5b48e01b996cadc001622fb5e363b421",
            "bloom": "0x00000000000000000000000000000000000000000000000000000000000000000000000000000000000000000000000000000000000000000000000000000000000000000000000000000000000000000000000000000000000000000000000000000000000000000000000000000000000000000000000000000000000000000000000000000000000000000000000000000000000000000000000000000000000000000000000000000000000000000000000000000000000000000000000000000000000000000000000000000000000000000000000000000000000000000000000000000000000000000000000000000000000000000000000000000000",
            "difficulty": "0x00",
            "number": "0x00",
            "gasLimit": "0x07270e00",
            "gasUsed": "0x00",
            "timestamp": "0x00",
            "extraData": "0x00",
            "mixHash": "0x0000000000000000000000000000000000000000000000000000000000000000",
            "nonce": "0x0000000000000000",
            "baseFeePerGas": "0x07",
            "withdrawalsRoot": "0x56e81f171bcc55a6ff8345e692c0f86e5b48e01b996cadc001622fb5e363b421",
            "blobGasUsed": "0x00",
            "excessBlobGas": "0x00",
            "parentBeaconBlockRoot": "0x0000000000000000000000000000000000000000000000000000000000000000",
            "hash": "0xab631fbd3e7af8c3ff36a9398b0a5411e968af4e46786c73f0f8ec1021c73307"
        },
        "pre": {
            "0x000f3df6d732807ef1319fb7b8bb8522d0beac02": {
                "nonce": "0x01",
                "balance": "0x00",
                "code": "0x3373fffffffffffffffffffffffffffffffffffffffe14604d57602036146024575f5ffd5b5f35801560495762001fff810690815414603c575f5ffd5b62001fff01545f5260205ff35b5f5ffd5b62001fff42064281555f359062001fff015500",
                "storage": {}
            },
            "0xf36afef4dcb45e52f80cb039335952f77cec8960": {
                "nonce": "0x00",
                "balance": "0x01",
                "code": "0x",
                "storage": {}
            },
            "0x0f85f074ffd8a4b805c280b98054f0ee4e21cf0d": {
                "nonce": "0x01",
                "balance": "0x00",
                "code": "0x60206000600073f36afef4dcb45e52f80cb039335952f77cec89603c60005160005573f36afef4dcb45e52f80cb039335952f77cec89603b60015573f36afef4dcb45e52f80cb039335952f77cec89603f6002556000600060006000600073f36afef4dcb45e52f80cb039335952f77cec896061c350f2600355",
                "storage": {
                    "0x00": "0xba5e",
                    "0x01": "0xba5e"
                }
            },
            "0x1ad9bc24818784172ff393bb6f89f094d4d2ca29": {
                "nonce": "0x00",
                "balance": "0x3635c9adc5dea00000",
                "code": "0x",
                "storage": {}
            }
        },
        "postState": {
            "0x000f3df6d732807ef1319fb7b8bb8522d0beac02": {
                "nonce": "0x01",
                "balance": "0x00",
                "code": "0x3373fffffffffffffffffffffffffffffffffffffffe14604d57602036146024575f5ffd5b5f35801560495762001fff810690815414603c575f5ffd5b62001fff01545f5260205ff35b5f5ffd5b62001fff42064281555f359062001fff015500",
                "storage": {
                    "0x03e8": "0x03e8"
                }
            },
            "0xf36afef4dcb45e52f80cb039335952f77cec8960": {
                "nonce": "0x00",
                "balance": "0x01",
                "code": "0x",
                "storage": {}
            },
            "0x0f85f074ffd8a4b805c280b98054f0ee4e21cf0d": {
                "nonce": "0x01",
                "balance": "0x00",
                "code": "0x60206000600073f36afef4dcb45e52f80cb039335952f77cec89603c60005160005573f36afef4dcb45e52f80cb039335952f77cec89603b60015573f36afef4dcb45e52f80cb039335952f77cec89603f6002556000600060006000600073f36afef4dcb45e52f80cb039335952f77cec896061c350f2600355",
                "storage": {
                    "0x02": "0xc5d2460186f7233c927e7db2dcc703c0e500b653ca82273b7bfad8045d85a470",
                    "0x03": "0x01"
                }
            },
            "0x1ad9bc24818784172ff393bb6f89f094d4d2ca29": {
                "nonce": "0x01",
                "balance": "0x3635c9adc5de9589c2",
                "code": "0x",
                "storage": {}
            },
            "0x2adc25665018aa1fe0e6bc666dac8fc2697ff9ba": {
                "nonce": "0x00",
                "balance": "0x032379",
                "code": "0x",
                "storage": {}
            }
        },
        "lastblockhash": "0x2c3fc82695155fa8c511d5f460404236751d73c827243f311c2a88c46d1c9a22",
        "config": {
            "network": "Cancun",
            "chainid": "0x01",
            "blobSchedule": {
                "Cancun": {
                    "target": "0x03",
                    "max": "0x06",
                    "baseFeeUpdateFraction": "0x32f0ed"
                }
            }
        },
        "genesisRLP": "0xf9023cf90236a00000000000000000000000000000000000000000000000000000000000000000a01dcc4de8dec75d7aab85b567b6ccd41ad312451b948a7413f0a142fd40d49347940000000000000000000000000000000000000000a020fce600b1d35ec5eaf0946b73732e2b38ec7659807d64ec7e9c4a8dfd59d505a056e81f171bcc55a6ff8345e692c0f86e5b48e01b996cadc001622fb5e363b421a056e81f171bcc55a6ff8345e692c0f86e5b48e01b996cadc001622fb5e363b421b901000000000000000000000000000000000000000000000000000000000000000000000000000000000000000000000000000000000000000000000000000000000000000000000000000000000000000000000000000000000000000000000000000000000000000000000000000000000000000000000000000000000000000000000000000000000000000000000000000000000000000000000000000000000000000000000000000000000000000000000000000000000000000000000000000000000000000000000000000000000000000000000000000000000000000000000000000000000000000000000000000000000000000000000000000000000080808407270e00808000a0000000000000000000000000000000000000000000000000000000000000000088000000000000000007a056e81f171bcc55a6ff8345e692c0f86e5b48e01b996cadc001622fb5e363b4218080a00000000000000000000000000000000000000000000000000000000000000000c0c0c0",
        "blocks": [
            {
                "blockHeader": {
                    "parentHash": "0xab631fbd3e7af8c3ff36a9398b0a5411e968af4e46786c73f0f8ec1021c73307",
                    "uncleHash": "0x1dcc4de8dec75d7aab85b567b6ccd41ad312451b948a7413f0a142fd40d49347",
                    "coinbase": "0x2adc25665018aa1fe0e6bc666dac8fc2697ff9ba",
                    "stateRoot": "0x0f44d13baca70d639ded99fc662ef6eccaae9028727eb91184679453e55f8d76",
                    "transactionsTrie": "0x7e04ec86069bbeb6c095ebeef02034bd583c8e289b1f05de7a875deaec50a58f",
                    "receiptTrie": "0x2a57464d06fb584abc0cb7c6bb3cb0a6ac6a9a019ecea796fd0e935cf0d74d8b",
                    "bloom": "0x00000000000000000000000000000000000000000000000000000000000000000000000000000000000000000000000000000000000000000000000000000000000000000000000000000000000000000000000000000000000000000000000000000000000000000000000000000000000000000000000000000000000000000000000000000000000000000000000000000000000000000000000000000000000000000000000000000000000000000000000000000000000000000000000000000000000000000000000000000000000000000000000000000000000000000000000000000000000000000000000000000000000000000000000000000000",
                    "difficulty": "0x00",
                    "number": "0x01",
                    "gasLimit": "0x07270e00",
                    "gasUsed": "0x010bd3",
                    "timestamp": "0x03e8",
                    "extraData": "0x00",
                    "mixHash": "0x0000000000000000000000000000000000000000000000000000000000000000",
                    "nonce": "0x0000000000000000",
                    "baseFeePerGas": "0x07",
                    "withdrawalsRoot": "0x56e81f171bcc55a6ff8345e692c0f86e5b48e01b996cadc001622fb5e363b421",
                    "blobGasUsed": "0x00",
                    "excessBlobGas": "0x00",
                    "parentBeaconBlockRoot": "0x0000000000000000000000000000000000000000000000000000000000000000",
                    "hash": "0x2c3fc82695155fa8c511d5f460404236751d73c827243f311c2a88c46d1c9a22"
                },
                "transactions": [
                    {
                        "type": "0x00",
                        "chainId": "0x01",
                        "nonce": "0x00",
                        "gasPrice": "0x0a",
                        "gasLimit": "0x0f4240",
                        "to": "0x0f85f074ffd8a4b805c280b98054f0ee4e21cf0d",
                        "value": "0x00",
                        "data": "0x",
                        "v": "0x26",
                        "r": "0x521d84b5fe1eef4df1e26e5d9faa09b37f5d302705e4a26a3bbe4b4e7799b936",
                        "s": "0x39ece41f8f5c99d12dd3d6902c5d4a8631477397c064e8f0ce5f1408b42523",
                        "sender": "0x1ad9bc24818784172ff393bb6f89f094d4d2ca29"
                    }
                ],
                "uncleHeaders": [],
                "withdrawals": [],
                "receipts": [
                    {
                        "transactionHash": "0x7e068bb7f682a483c3e812fb60d90ad5eeefc51e915fb0bd02d7592799e4315e",
                        "type": "0x00",
                        "cumulativeGasUsed": "0x010bd3",
                        "bloom": "0x00000000000000000000000000000000000000000000000000000000000000000000000000000000000000000000000000000000000000000000000000000000000000000000000000000000000000000000000000000000000000000000000000000000000000000000000000000000000000000000000000000000000000000000000000000000000000000000000000000000000000000000000000000000000000000000000000000000000000000000000000000000000000000000000000000000000000000000000000000000000000000000000000000000000000000000000000000000000000000000000000000000000000000000000000000000",
                        "logs": [],
                        "status": true,
                        "rlp": "0xf901090183010bd3b9010000000000000000000000000000000000000000000000000000000000000000000000000000000000000000000000000000000000000000000000000000000000000000000000000000000000000000000000000000000000000000000000000000000000000000000000000000000000000000000000000000000000000000000000000000000000000000000000000000000000000000000000000000000000000000000000000000000000000000000000000000000000000000000000000000000000000000000000000000000000000000000000000000000000000000000000000000000000000000000000000000000000000000000000000000000000c0"
                    }
                ],
                "rlp": "0xf902a3f9023ba0ab631fbd3e7af8c3ff36a9398b0a5411e968af4e46786c73f0f8ec1021c73307a01dcc4de8dec75d7aab85b567b6ccd41ad312451b948a7413f0a142fd40d49347942adc25665018aa1fe0e6bc666dac8fc2697ff9baa00f44d13baca70d639ded99fc662ef6eccaae9028727eb91184679453e55f8d76a07e04ec86069bbeb6c095ebeef02034bd583c8e289b1f05de7a875deaec50a58fa02a57464d06fb584abc0cb7c6bb3cb0a6ac6a9a019ecea796fd0e935cf0d74d8bb901000000000000000000000000000000000000000000000000000000000000000000000000000000000000000000000000000000000000000000000000000000000000000000000000000000000000000000000000000000000000000000000000000000000000000000000000000000000000000000000000000000000000000000000000000000000000000000000000000000000000000000000000000000000000000000000000000000000000000000000000000000000000000000000000000000000000000000000000000000000000000000000000000000000000000000000000000000000000000000000000000000000000000000000000000000000080018407270e0083010bd38203e800a0000000000000000000000000000000000000000000000000000000000000000088000000000000000007a056e81f171bcc55a6ff8345e692c0f86e5b48e01b996cadc001622fb5e363b4218080a00000000000000000000000000000000000000000000000000000000000000000f861f85f800a830f4240940f85f074ffd8a4b805c280b98054f0ee4e21cf0d808026a0521d84b5fe1eef4df1e26e5d9faa09b37f5d302705e4a26a3bbe4b4e7799b9369f39ece41f8f5c99d12dd3d6902c5d4a8631477397c064e8f0ce5f1408b42523c0c0",
                "blocknumber": "1"
            }
        ],
        "sealEngine": "NoProof",
        "_info": {
            "hash": "0x48ed09e736586fb4fb5a6d30e9b9388f73d09686094c31d7f3b112c45665fb9b",
            "fixture-format": "blockchain_test",
            "comment": "`execution-specs` generated test",
            "filling-transition-tool": "2.19.0",
            "description": "Test EXTCODECOPY/EXTCODESIZE/EXTCODEHASH of accounts with no code.\n\nTwo account types: nonexistent (no state at all) and existing\n(EOA with balance, no code). EXTCODECOPY writes nothing to memory\n(stays zero). EXTCODEHASH is zero for nonexistent, keccak256(\"\")\nfor existing accounts.\n\nTODO: The original test also intended to cover empty accounts\n(zero nonce, zero balance, no code), but such accounts cannot\nexist in post-Paris forks due to EIP-161 cleanup.",
            "url": "https://github.com/ethereum/execution-specs/blob/tests-bal@v5.6.0/tests/constantinople/eip1052_extcodehash/test_extcodehash.py#L1740",
            "metadata": {
                "opcode_count": {}
            },
            "reference-spec": "https://github.com/ethereum/EIPs/blob/master/EIPS/eip-1052.md",
            "reference-spec-version": "2dcbc7ce1563e9624e137e9d447374600af876fa"
        }
    },
    "tests/constantinople/eip1052_extcodehash/test_extcodehash.py::test_extcodecopy_zero_code[fork_Cancun-blockchain_test_from_state_test-target_type_nonexistent]": {
        "network": "Cancun",
        "genesisBlockHeader": {
            "parentHash": "0x0000000000000000000000000000000000000000000000000000000000000000",
            "uncleHash": "0x1dcc4de8dec75d7aab85b567b6ccd41ad312451b948a7413f0a142fd40d49347",
            "coinbase": "0x0000000000000000000000000000000000000000",
            "stateRoot": "0xf4e0b64389319159f8f7d61cfa201280c58c689e726b3dce253e0ad9926733d4",
            "transactionsTrie": "0x56e81f171bcc55a6ff8345e692c0f86e5b48e01b996cadc001622fb5e363b421",
            "receiptTrie": "0x56e81f171bcc55a6ff8345e692c0f86e5b48e01b996cadc001622fb5e363b421",
            "bloom": "0x00000000000000000000000000000000000000000000000000000000000000000000000000000000000000000000000000000000000000000000000000000000000000000000000000000000000000000000000000000000000000000000000000000000000000000000000000000000000000000000000000000000000000000000000000000000000000000000000000000000000000000000000000000000000000000000000000000000000000000000000000000000000000000000000000000000000000000000000000000000000000000000000000000000000000000000000000000000000000000000000000000000000000000000000000000000",
            "difficulty": "0x00",
            "number": "0x00",
            "gasLimit": "0x07270e00",
            "gasUsed": "0x00",
            "timestamp": "0x00",
            "extraData": "0x00",
            "mixHash": "0x0000000000000000000000000000000000000000000000000000000000000000",
            "nonce": "0x0000000000000000",
            "baseFeePerGas": "0x07",
            "withdrawalsRoot": "0x56e81f171bcc55a6ff8345e692c0f86e5b48e01b996cadc001622fb5e363b421",
            "blobGasUsed": "0x00",
            "excessBlobGas": "0x00",
            "parentBeaconBlockRoot": "0x0000000000000000000000000000000000000000000000000000000000000000",
            "hash": "0x5dcab00d7c1812c983a19532bff462cfe6b485dcb6bcabeee1f03adcff6caed6"
        },
        "pre": {
            "0x000f3df6d732807ef1319fb7b8bb8522d0beac02": {
                "nonce": "0x01",
                "balance": "0x00",
                "code": "0x3373fffffffffffffffffffffffffffffffffffffffe14604d57602036146024575f5ffd5b5f35801560495762001fff810690815414603c575f5ffd5b62001fff01545f5260205ff35b5f5ffd5b62001fff42064281555f359062001fff015500",
                "storage": {}
            },
            "0xbfc367fdab43ded29e94839cf7e829f83ab78ca5": {
                "nonce": "0x01",
                "balance": "0x00",
                "code": "0x60206000600073c0f6dc9e5836f54caadbf59cc69346c508e1992b3c60005160005573c0f6dc9e5836f54caadbf59cc69346c508e1992b3b60015573c0f6dc9e5836f54caadbf59cc69346c508e1992b3f6002556000600060006000600073c0f6dc9e5836f54caadbf59cc69346c508e1992b61c350f2600355",
                "storage": {
                    "0x00": "0xba5e",
                    "0x01": "0xba5e",
                    "0x02": "0xba5e"
                }
            },
            "0x1ad9bc24818784172ff393bb6f89f094d4d2ca29": {
                "nonce": "0x00",
                "balance": "0x3635c9adc5dea00000",
                "code": "0x",
                "storage": {}
            }
        },
        "postState": {
            "0x000f3df6d732807ef1319fb7b8bb8522d0beac02": {
                "nonce": "0x01",
                "balance": "0x00",
                "code": "0x3373fffffffffffffffffffffffffffffffffffffffe14604d57602036146024575f5ffd5b5f35801560495762001fff810690815414603c575f5ffd5b62001fff01545f5260205ff35b5f5ffd5b62001fff42064281555f359062001fff015500",
                "storage": {
                    "0x03e8": "0x03e8"
                }
            },
            "0xbfc367fdab43ded29e94839cf7e829f83ab78ca5": {
                "nonce": "0x01",
                "balance": "0x00",
                "code": "0x60206000600073c0f6dc9e5836f54caadbf59cc69346c508e1992b3c60005160005573c0f6dc9e5836f54caadbf59cc69346c508e1992b3b60015573c0f6dc9e5836f54caadbf59cc69346c508e1992b3f6002556000600060006000600073c0f6dc9e5836f54caadbf59cc69346c508e1992b61c350f2600355",
                "storage": {
                    "0x03": "0x01"
                }
            },
            "0x1ad9bc24818784172ff393bb6f89f094d4d2ca29": {
                "nonce": "0x01",
                "balance": "0x3635c9adc5de988bc2",
                "code": "0x",
                "storage": {}
            },
            "0x2adc25665018aa1fe0e6bc666dac8fc2697ff9ba": {
                "nonce": "0x00",
                "balance": "0x023c79",
                "code": "0x",
                "storage": {}
            }
        },
        "lastblockhash": "0x3321d2196e57d4cc376d234a618487ab189fe365f62851ded158f188df54ae09",
        "config": {
            "network": "Cancun",
            "chainid": "0x01",
            "blobSchedule": {
                "Cancun": {
                    "target": "0x03",
                    "max": "0x06",
                    "baseFeeUpdateFraction": "0x32f0ed"
                }
            }
        },
        "genesisRLP": "0xf9023cf90236a00000000000000000000000000000000000000000000000000000000000000000a01dcc4de8dec75d7aab85b567b6ccd41ad312451b948a7413f0a142fd40d49347940000000000000000000000000000000000000000a0f4e0b64389319159f8f7d61cfa201280c58c689e726b3dce253e0ad9926733d4a056e81f171bcc55a6ff8345e692c0f86e5b48e01b996cadc001622fb5e363b421a056e81f171bcc55a6ff8345e692c0f86e5b48e01b996cadc001622fb5e363b421b901000000000000000000000000000000000000000000000000000000000000000000000000000000000000000000000000000000000000000000000000000000000000000000000000000000000000000000000000000000000000000000000000000000000000000000000000000000000000000000000000000000000000000000000000000000000000000000000000000000000000000000000000000000000000000000000000000000000000000000000000000000000000000000000000000000000000000000000000000000000000000000000000000000000000000000000000000000000000000000000000000000000000000000000000000000000080808407270e00808000a0000000000000000000000000000000000000000000000000000000000000000088000000000000000007a056e81f171bcc55a6ff8345e692c0f86e5b48e01b996cadc001622fb5e363b4218080a00000000000000000000000000000000000000000000000000000000000000000c0c0c0",
        "blocks": [
            {
                "blockHeader": {
                    "parentHash": "0x5dcab00d7c1812c983a19532bff462cfe6b485dcb6bcabeee1f03adcff6caed6",
                    "uncleHash": "0x1dcc4de8dec75d7aab85b567b6ccd41ad312451b948a7413f0a142fd40d49347",
                    "coinbase": "0x2adc25665018aa1fe0e6bc666dac8fc2697ff9ba",
                    "stateRoot": "0x138985bbafdc79bdfb0b19f513ad4e3bb6ea60ea08474fcb2f6a7be2e66a38a7",
                    "transactionsTrie": "0x11b238e4127307f87998be3c328633baa02bef2adeec8ec49d46000dc054b313",
                    "receiptTrie": "0x0dc31f2d259c726227660d14c0b3f35be434013371b612a6ebeec9f5e337732f",
                    "bloom": "0x00000000000000000000000000000000000000000000000000000000000000000000000000000000000000000000000000000000000000000000000000000000000000000000000000000000000000000000000000000000000000000000000000000000000000000000000000000000000000000000000000000000000000000000000000000000000000000000000000000000000000000000000000000000000000000000000000000000000000000000000000000000000000000000000000000000000000000000000000000000000000000000000000000000000000000000000000000000000000000000000000000000000000000000000000000000",
                    "difficulty": "0x00",
                    "number": "0x01",
                    "gasLimit": "0x07270e00",
                    "gasUsed": "0xbed3",
                    "timestamp": "0x03e8",
                    "extraData": "0x00",
                    "mixHash": "0x0000000000000000000000000000000000000000000000000000000000000000",
                    "nonce": "0x0000000000000000",
                    "baseFeePerGas": "0x07",
                    "withdrawalsRoot": "0x56e81f171bcc55a6ff8345e692c0f86e5b48e01b996cadc001622fb5e363b421",
                    "blobGasUsed": "0x00",
                    "excessBlobGas": "0x00",
                    "parentBeaconBlockRoot": "0x0000000000000000000000000000000000000000000000000000000000000000",
                    "hash": "0x3321d2196e57d4cc376d234a618487ab189fe365f62851ded158f188df54ae09"
                },
                "transactions": [
                    {
                        "type": "0x00",
                        "chainId": "0x01",
                        "nonce": "0x00",
                        "gasPrice": "0x0a",
                        "gasLimit": "0x0f4240",
                        "to": "0xbfc367fdab43ded29e94839cf7e829f83ab78ca5",
                        "value": "0x00",
                        "data": "0x",
                        "v": "0x26",
                        "r": "0xd90a868336eff58f4f32d3731bde87e8cf0afb0e51a2fc9603e9218135d63cda",
                        "s": "0x7e6805a3288dba22410b72cf3341dc608fed9595414c858b09258f840345596f",
                        "sender": "0x1ad9bc24818784172ff393bb6f89f094d4d2ca29"
                    }
                ],
                "uncleHeaders": [],
                "withdrawals": [],
                "receipts": [
                    {
                        "transactionHash": "0x448691a6d7d2f200ee28c07f8eb8445ce8a7d0e39f449bffeff48eab79e5e195",
                        "type": "0x00",
                        "cumulativeGasUsed": "0xbed3",
                        "bloom": "0x00000000000000000000000000000000000000000000000000000000000000000000000000000000000000000000000000000000000000000000000000000000000000000000000000000000000000000000000000000000000000000000000000000000000000000000000000000000000000000000000000000000000000000000000000000000000000000000000000000000000000000000000000000000000000000000000000000000000000000000000000000000000000000000000000000000000000000000000000000000000000000000000000000000000000000000000000000000000000000000000000000000000000000000000000000000",
                        "logs": [],
                        "status": true,
                        "rlp": "0xf901080182bed3b9010000000000000000000000000000000000000000000000000000000000000000000000000000000000000000000000000000000000000000000000000000000000000000000000000000000000000000000000000000000000000000000000000000000000000000000000000000000000000000000000000000000000000000000000000000000000000000000000000000000000000000000000000000000000000000000000000000000000000000000000000000000000000000000000000000000000000000000000000000000000000000000000000000000000000000000000000000000000000000000000000000000000000000000000000000000000c0"
                    }
                ],
                "rlp": "0xf902a3f9023aa05dcab00d7c1812c983a19532bff462cfe6b485dcb6bcabeee1f03adcff6caed6a01dcc4de8dec75d7aab85b567b6ccd41ad312451b948a7413f0a142fd40d49347942adc25665018aa1fe0e6bc666dac8fc2697ff9baa0138985bbafdc79bdfb0b19f513ad4e3bb6ea60ea08474fcb2f6a7be2e66a38a7a011b238e4127307f87998be3c328633baa02bef2adeec8ec49d46000dc054b313a00dc31f2d259c726227660d14c0b3f35be434013371b612a6ebeec9f5e337732fb901000000000000000000000000000000000000000000000000000000000000000000000000000000000000000000000000000000000000000000000000000000000000000000000000000000000000000000000000000000000000000000000000000000000000000000000000000000000000000000000000000000000000000000000000000000000000000000000000000000000000000000000000000000000000000000000000000000000000000000000000000000000000000000000000000000000000000000000000000000000000000000000000000000000000000000000000000000000000000000000000000000000000000000000000000000000080018407270e0082bed38203e800a0000000000000000000000000000000000000000000000000000000000000000088000000000000000007a056e81f171bcc55a6ff8345e692c0f86e5b48e01b996cadc001622fb5e363b4218080a00000000000000000000000000000000000000000000000000000000000000000f862f860800a830f424094bfc367fdab43ded29e94839cf7e829f83ab78ca5808026a0d90a868336eff58f4f32d3731bde87e8cf0afb0e51a2fc9603e9218135d63cdaa07e6805a3288dba22410b72cf3341dc608fed9595414c858b09258f840345596fc0c0",
                "blocknumber": "1"
            }
        ],
        "sealEngine": "NoProof",
        "_info": {
            "hash": "0x3a9d26243a4bdf253f0c8dff560eeb46b3f17e78004811dfa767f3c77bad46fa",
            "fixture-format": "blockchain_test",
            "comment": "`execution-specs` generated test",
            "filling-transition-tool": "2.19.0",
            "description": "Test EXTCODECOPY/EXTCODESIZE/EXTCODEHASH of accounts with no code.\n\nTwo account types: nonexistent (no state at all) and existing\n(EOA with balance, no code). EXTCODECOPY writes nothing to memory\n(stays zero). EXTCODEHASH is zero for nonexistent, keccak256(\"\")\nfor existing accounts.\n\nTODO: The original test also intended to cover empty accounts\n(zero nonce, zero balance, no code), but such accounts cannot\nexist in post-Paris forks due to EIP-161 cleanup.",
            "url": "https://github.com/ethereum/execution-specs/blob/tests-bal@v5.6.0/tests/constantinople/eip1052_extcodehash/test_extcodehash.py#L1740",
            "metadata": {
                "opcode_count": {}
            },
            "reference-spec": "https://github.com/ethereum/EIPs/blob/master/EIPS/eip-1052.md",
            "reference-spec-version": "2dcbc7ce1563e9624e137e9d447374600af876fa"
        }
    }
}