{
    "tests/constantinople/eip1052_extcodehash/test_extcodehash.py::test_extcodehash_created_and_deleted_recheck_outer[fork_Cancun-blockchain_test_from_state_test]": {
        "network": "Cancun",
        "genesisBlockHeader": {
            "parentHash": "0x0000000000000000000000000000000000000000000000000000000000000000",
            "uncleHash": "0x1dcc4de8dec75d7aab85b567b6ccd41ad312451b948a7413f0a142fd40d49347",
            "coinbase": "0x0000000000000000000000000000000000000000",
            "stateRoot": "0xe37c1b183a8033eabfc121a02296e011658dfe746b6ac7a39b5e6b4032f49103",
            "transactionsTrie": "0x56e81f171bcc55a6ff8345e692c0f86e5b48e01b996cadc001622fb5e363b421",
            "receiptTrie": "0x56e81f171bcc55a6ff8345e692c0f86e5b48e01b996cadc001622fb5e363b421",
            "bloom": "0x00000000000000000000000000000000000000000000000000000000000000000000000000000000000000000000000000000000000000000000000000000000000000000000000000000000000000000000000000000000000000000000000000000000000000000000000000000000000000000000000000000000000000000000000000000000000000000000000000000000000000000000000000000000000000000000000000000000000000000000000000000000000000000000000000000000000000000000000000000000000000000000000000000000000000000000000000000000000000000000000000000000000000000000000000000000",
            "difficulty": "0x00",
            "number": "0x00",
            "gasLimit": "0x07270e00",
            "gasUsed": "0x00",
            "timestamp": "0x00",
            "extraData": "0x00",
            "mixHash": "0x0000000000000000000000000000000000000000000000000000000000000000",
            "nonce": "0x0000000000000000",
            "baseFeePerGas": "0x07",
            "withdrawalsRoot": "0x56e81f171bcc55a6ff8345e692c0f86e5b48e01b996cadc001622fb5e363b421",
            "blobGasUsed": "0x00",
            "excessBlobGas": "0x00",
            "parentBeaconBlockRoot": "0x0000000000000000000000000000000000000000000000000000000000000000",
            "hash": "0x5c409819a24fc686471ab70d56c5325cb7cf1c2367464ae99099f4f76f5c193c"
        },
        "pre": {
            "0x000f3df6d732807ef1319fb7b8bb8522d0beac02": {
                "nonce": "0x01",
                "balance": "0x00",
                "code": "0x3373fffffffffffffffffffffffffffffffffffffffe14604d57602036146024575f5ffd5b5f35801560495762001fff810690815414603c575f5ffd5b62001fff01545f5260205ff35b5f5ffd5b62001fff42064281555f359062001fff015500",
                "storage": {}
            },
            "0x852814b6e9bdf4c2b9cec1618c86c021ce91ab36": {
                "nonce": "0x01",
                "balance": "0x00",
                "code": "0x60005171ffffffffffffffffffffffffffffffffffff167f610003600081600b8239f36000ff000000000000000000000000000000000000176000526010600e60006000f56000556000543f6001556000543b6002556020600060006000543c600051600355600060006000600060006000545af1506000543f6004556000543b6005556020600060006000543c600051600655",
                "storage": {
                    "0x00": "0xba5e"
                }
            },
            "0x56ce700347f64f76fef7fdbb8c6dc0814e9d7188": {
                "nonce": "0x01",
                "balance": "0x00",
                "code": "0x6000600060006000600073852814b6e9bdf4c2b9cec1618c86c021ce91ab365af15073ec9f4083805782c90886f2e17d3f54dc38bca5b83f60005573ec9f4083805782c90886f2e17d3f54dc38bca5b83b60015560206000600073ec9f4083805782c90886f2e17d3f54dc38bca5b83c600051600255",
                "storage": {}
            },
            "0x1ad9bc24818784172ff393bb6f89f094d4d2ca29": {
                "nonce": "0x00",
                "balance": "0x3635c9adc5dea00000",
                "code": "0x",
                "storage": {}
            }
        },
        "postState": {
            "0x000f3df6d732807ef1319fb7b8bb8522d0beac02": {
                "nonce": "0x01",
                "balance": "0x00",
                "code": "0x3373fffffffffffffffffffffffffffffffffffffffe14604d57602036146024575f5ffd5b5f35801560495762001fff810690815414603c575f5ffd5b62001fff01545f5260205ff35b5f5ffd5b62001fff42064281555f359062001fff015500",
                "storage": {
                    "0x03e8": "0x03e8"
                }
            },
            "0x852814b6e9bdf4c2b9cec1618c86c021ce91ab36": {
                "nonce": "0x02",
                "balance": "0x00",
                "code": "0x60005171ffffffffffffffffffffffffffffffffffff167f610003600081600b8239f36000ff000000000000000000000000000000000000176000526010600e60006000f56000556000543f6001556000543b6002556020600060006000543c600051600355600060006000600060006000545af1506000543f6004556000543b6005556020600060006000543c600051600655",
                "storage": {
                    "0x00": "0xec9f4083805782c90886f2e17d3f54dc38bca5b8",
                    "0x01": "0x396daaf3a7871f857cc9b5878c6bb66c394a6d109706095617db9f4e4c22edcd",
                    "0x02": "0x03",
                    "0x03": "0x6000ff0000000000000000000000000000000000000000000000000000000000",
                    "0x04": "0x396daaf3a7871f857cc9b5878c6bb66c394a6d109706095617db9f4e4c22edcd",
                    "0x05": "0x03",
                    "0x06": "0x6000ff0000000000000000000000000000000000000000000000000000000000"
                }
            },
            "0x56ce700347f64f76fef7fdbb8c6dc0814e9d7188": {
                "nonce": "0x01",
                "balance": "0x00",
                "code": "0x6000600060006000600073852814b6e9bdf4c2b9cec1618c86c021ce91ab365af15073ec9f4083805782c90886f2e17d3f54dc38bca5b83f60005573ec9f4083805782c90886f2e17d3f54dc38bca5b83b60015560206000600073ec9f4083805782c90886f2e17d3f54dc38bca5b83c600051600255",
                "storage": {
                    "0x00": "0x396daaf3a7871f857cc9b5878c6bb66c394a6d109706095617db9f4e4c22edcd",
                    "0x01": "0x03",
                    "0x02": "0x6000ff0000000000000000000000000000000000000000000000000000000000"
                }
            },
            "0x1ad9bc24818784172ff393bb6f89f094d4d2ca29": {
                "nonce": "0x01",
                "balance": "0x3635c9adc5de76db80",
                "code": "0x",
                "storage": {}
            },
            "0x2adc25665018aa1fe0e6bc666dac8fc2697ff9ba": {
                "nonce": "0x00",
                "balance": "0x0c57c0",
                "code": "0x",
                "storage": {}
            }
        },
        "lastblockhash": "0xa4e93ad5cf85a1cd37427fed25f61a56dc2f31c817e5fa274a09439a9426cb78",
        "config": {
            "network": "Cancun",
            "chainid": "0x01",
            "blobSchedule": {
                "Cancun": {
                    "target": "0x03",
                    "max": "0x06",
                    "baseFeeUpdateFraction": "0x32f0ed"
                }
            }
        },
        "genesisRLP": "0xf9023cf90236a00000000000000000000000000000000000000000000000000000000000000000a01dcc4de8dec75d7aab85b567b6ccd41ad312451b948a7413f0a142fd40d49347940000000000000000000000000000000000000000a0e37c1b183a8033eabfc121a02296e011658dfe746b6ac7a39b5e6b4032f49103a056e81f171bcc55a6ff8345e692c0f86e5b48e01b996cadc001622fb5e363b421a056e81f171bcc55a6ff8345e692c0f86e5b48e01b996cadc001622fb5e363b421b901000000000000000000000000000000000000000000000000000000000000000000000000000000000000000000000000000000000000000000000000000000000000000000000000000000000000000000000000000000000000000000000000000000000000000000000000000000000000000000000000000000000000000000000000000000000000000000000000000000000000000000000000000000000000000000000000000000000000000000000000000000000000000000000000000000000000000000000000000000000000000000000000000000000000000000000000000000000000000000000000000000000000000000000000000000000080808407270e00808000a0000000000000000000000000000000000000000000000000000000000000000088000000000000000007a056e81f171bcc55a6ff8345e692c0f86e5b48e01b996cadc001622fb5e363b4218080a00000000000000000000000000000000000000000000000000000000000000000c0c0c0",
        "blocks": [
            {
                "blockHeader": {
                    "parentHash": "0x5c409819a24fc686471ab70d56c5325cb7cf1c2367464ae99099f4f76f5c193c",
                    "uncleHash": "0x1dcc4de8dec75d7aab85b567b6ccd41ad312451b948a7413f0a142fd40d49347",
                    "coinbase": "0x2adc25665018aa1fe0e6bc666dac8fc2697ff9ba",
                    "stateRoot": "0x4735ec1f8162603619970eace112da2c0bab01bff1ee44e6e8a4bd4475ca3017",
                    "transactionsTrie": "0x9e731c591198c04581c1a434d5be393066d3390cc00e3411040a015c31997cf2",
                    "receiptTrie": "0x8552a6e1f541f6cd63150aeeffed55d736ca099dbad49ee42f10fb04b902efd2",
                    "bloom": "0x00000000000000000000000000000000000000000000000000000000000000000000000000000000000000000000000000000000000000000000000000000000000000000000000000000000000000000000000000000000000000000000000000000000000000000000000000000000000000000000000000000000000000000000000000000000000000000000000000000000000000000000000000000000000000000000000000000000000000000000000000000000000000000000000000000000000000000000000000000000000000000000000000000000000000000000000000000000000000000000000000000000000000000000000000000000",
                    "difficulty": "0x00",
                    "number": "0x01",
                    "gasLimit": "0x07270e00",
                    "gasUsed": "0x041d40",
                    "timestamp": "0x03e8",
                    "extraData": "0x00",
                    "mixHash": "0x0000000000000000000000000000000000000000000000000000000000000000",
                    "nonce": "0x0000000000000000",
                    "baseFeePerGas": "0x07",
                    "withdrawalsRoot": "0x56e81f171bcc55a6ff8345e692c0f86e5b48e01b996cadc001622fb5e363b421",
                    "blobGasUsed": "0x00",
                    "excessBlobGas": "0x00",
                    "parentBeaconBlockRoot": "0x0000000000000000000000000000000000000000000000000000000000000000",
                    "hash": "0xa4e93ad5cf85a1cd37427fed25f61a56dc2f31c817e5fa274a09439a9426cb78"
                },
                "transactions": [
                    {
                        "type": "0x00",
                        "chainId": "0x01",
                        "nonce": "0x00",
                        "gasPrice": "0x0a",
                        "gasLimit": "0x061a80",
                        "to": "0x56ce700347f64f76fef7fdbb8c6dc0814e9d7188",
                        "value": "0x00",
                        "data": "0x",
                        "v": "0x25",
                        "r": "0x6cff641862c0f7f407b6ad002a32e8feeb5877383c6be45e6accb165c580662d",
                        "s": "0x1f40827b83909e795d1b1edee506e725bfe0bc9b8128a0e586692fb57eec5094",
                        "sender": "0x1ad9bc24818784172ff393bb6f89f094d4d2ca29"
                    }
                ],
                "uncleHeaders": [],
                "withdrawals": [],
                "receipts": [
                    {
                        "transactionHash": "0xb99690cfb75f9ca6f505dd1c23e03d0b0c6b7ebd9f000fb956d0deb4c186aa0e",
                        "type": "0x00",
                        "cumulativeGasUsed": "0x041d40",
                        "bloom": "0x00000000000000000000000000000000000000000000000000000000000000000000000000000000000000000000000000000000000000000000000000000000000000000000000000000000000000000000000000000000000000000000000000000000000000000000000000000000000000000000000000000000000000000000000000000000000000000000000000000000000000000000000000000000000000000000000000000000000000000000000000000000000000000000000000000000000000000000000000000000000000000000000000000000000000000000000000000000000000000000000000000000000000000000000000000000",
                        "logs": [],
                        "status": true,
                        "rlp": "0xf901090183041d40b9010000000000000000000000000000000000000000000000000000000000000000000000000000000000000000000000000000000000000000000000000000000000000000000000000000000000000000000000000000000000000000000000000000000000000000000000000000000000000000000000000000000000000000000000000000000000000000000000000000000000000000000000000000000000000000000000000000000000000000000000000000000000000000000000000000000000000000000000000000000000000000000000000000000000000000000000000000000000000000000000000000000000000000000000000000000000c0"
                    }
                ],
                "rlp": "0xf902a4f9023ba05c409819a24fc686471ab70d56c5325cb7cf1c2367464ae99099f4f76f5c193ca01dcc4de8dec75d7aab85b567b6ccd41ad312451b948a7413f0a142fd40d49347942adc25665018aa1fe0e6bc666dac8fc2697ff9baa04735ec1f8162603619970eace112da2c0bab01bff1ee44e6e8a4bd4475ca3017a09e731c591198c04581c1a434d5be393066d3390cc00e3411040a015c31997cf2a08552a6e1f541f6cd63150aeeffed55d736ca099dbad49ee42f10fb04b902efd2b901000000000000000000000000000000000000000000000000000000000000000000000000000000000000000000000000000000000000000000000000000000000000000000000000000000000000000000000000000000000000000000000000000000000000000000000000000000000000000000000000000000000000000000000000000000000000000000000000000000000000000000000000000000000000000000000000000000000000000000000000000000000000000000000000000000000000000000000000000000000000000000000000000000000000000000000000000000000000000000000000000000000000000000000000000000000080018407270e0083041d408203e800a0000000000000000000000000000000000000000000000000000000000000000088000000000000000007a056e81f171bcc55a6ff8345e692c0f86e5b48e01b996cadc001622fb5e363b4218080a00000000000000000000000000000000000000000000000000000000000000000f862f860800a83061a809456ce700347f64f76fef7fdbb8c6dc0814e9d7188808025a06cff641862c0f7f407b6ad002a32e8feeb5877383c6be45e6accb165c580662da01f40827b83909e795d1b1edee506e725bfe0bc9b8128a0e586692fb57eec5094c0c0",
                "blocknumber": "1"
            }
        ],
        "sealEngine": "NoProof",
        "_info": {
            "hash": "0x518cbb653568dd877533a196968efb790184aebbc62bd1b7f04958a0a0f151ee",
            "fixture-format": "blockchain_test",
            "comment": "`execution-specs` generated test",
            "filling-transition-tool": "2.19.0",
            "description": "Test EXTCODEHASH of a created-and-selfdestructed account rechecked\nfrom an outer call frame.\n\nOuter contract CALLs inner, which CREATE2s a contract with\nSELFDESTRUCT code then triggers it. After inner returns, outer\nre-checks EXTCODEHASH and EXTCODESIZE of the created address.\nWithin the transaction all checks return the original code hash\nand size. The created contract is deleted at end of transaction.",
            "url": "https://github.com/ethereum/execution-specs/blob/tests-sn\u00f8bal-devnet-4@v1.0.0/tests/constantinople/eip1052_extcodehash/test_extcodehash.py#L1485",
            "metadata": {
                "opcode_count": {}
            },
            "reference-spec": "https://github.com/ethereum/EIPs/blob/master/EIPS/eip-1052.md",
            "reference-spec-version": "2dcbc7ce1563e9624e137e9d447374600af876fa"
        }
    }
}