{
    "tests/istanbul/eip1344_chainid/test_chainid.py::test_chainid[fork_Berlin-typed_transaction_0-blockchain_test_from_state_test]": {
        "network": "Berlin",
        "genesisBlockHeader": {
            "parentHash": "0x0000000000000000000000000000000000000000000000000000000000000000",
            "uncleHash": "0x1dcc4de8dec75d7aab85b567b6ccd41ad312451b948a7413f0a142fd40d49347",
            "coinbase": "0x0000000000000000000000000000000000000000",
            "stateRoot": "0x04cf105f86c00ad2bcf12f8ccf4bade6ab0309b3baa8208c770ce50711ab93dc",
            "transactionsTrie": "0x56e81f171bcc55a6ff8345e692c0f86e5b48e01b996cadc001622fb5e363b421",
            "receiptTrie": "0x56e81f171bcc55a6ff8345e692c0f86e5b48e01b996cadc001622fb5e363b421",
            "bloom": "0x00000000000000000000000000000000000000000000000000000000000000000000000000000000000000000000000000000000000000000000000000000000000000000000000000000000000000000000000000000000000000000000000000000000000000000000000000000000000000000000000000000000000000000000000000000000000000000000000000000000000000000000000000000000000000000000000000000000000000000000000000000000000000000000000000000000000000000000000000000000000000000000000000000000000000000000000000000000000000000000000000000000000000000000000000000000",
            "difficulty": "0x020000",
            "number": "0x00",
            "gasLimit": "0x07270e00",
            "gasUsed": "0x00",
            "timestamp": "0x00",
            "extraData": "0x00",
            "mixHash": "0x0000000000000000000000000000000000000000000000000000000000000000",
            "nonce": "0x0000000000000000",
            "hash": "0x0ce3d54feffac2c371ee0f66dd16188086b44713b3b109e7113730e520e90863"
        },
        "pre": {
            "0x1ad9bc24818784172ff393bb6f89f094d4d2ca29": {
                "nonce": "0x00",
                "balance": "0x3635c9adc5dea00000",
                "code": "0x",
                "storage": {}
            },
            "0xe6597702901512e099b34854c9b8bc7463a39fde": {
                "nonce": "0x01",
                "balance": "0x00",
                "code": "0x4660015500",
                "storage": {}
            }
        },
        "postState": {
            "0x1ad9bc24818784172ff393bb6f89f094d4d2ca29": {
                "nonce": "0x01",
                "balance": "0x3635c98634928dd600",
                "code": "0x",
                "storage": {}
            },
            "0xe6597702901512e099b34854c9b8bc7463a39fde": {
                "nonce": "0x01",
                "balance": "0x00",
                "code": "0x4660015500",
                "storage": {
                    "0x01": "0x01"
                }
            },
            "0x2adc25665018aa1fe0e6bc666dac8fc2697ff9ba": {
                "nonce": "0x00",
                "balance": "0x1bc194f89ada2a00",
                "code": "0x",
                "storage": {}
            }
        },
        "lastblockhash": "0x6cf8b67c9115610a9c1cefc6c0279e5b26f55d6c7682c7b0c2926480213d2f01",
        "config": {
            "network": "Berlin",
            "chainid": "0x01"
        },
        "genesisRLP": "0xf901f9f901f4a00000000000000000000000000000000000000000000000000000000000000000a01dcc4de8dec75d7aab85b567b6ccd41ad312451b948a7413f0a142fd40d49347940000000000000000000000000000000000000000a004cf105f86c00ad2bcf12f8ccf4bade6ab0309b3baa8208c770ce50711ab93dca056e81f171bcc55a6ff8345e692c0f86e5b48e01b996cadc001622fb5e363b421a056e81f171bcc55a6ff8345e692c0f86e5b48e01b996cadc001622fb5e363b421b901000000000000000000000000000000000000000000000000000000000000000000000000000000000000000000000000000000000000000000000000000000000000000000000000000000000000000000000000000000000000000000000000000000000000000000000000000000000000000000000000000000000000000000000000000000000000000000000000000000000000000000000000000000000000000000000000000000000000000000000000000000000000000000000000000000000000000000000000000000000000000000000000000000000000000000000000000000000000000000000000000000000000000000000000000000000083020000808407270e00808000a00000000000000000000000000000000000000000000000000000000000000000880000000000000000c0c0",
        "blocks": [
            {
                "blockHeader": {
                    "parentHash": "0x0ce3d54feffac2c371ee0f66dd16188086b44713b3b109e7113730e520e90863",
                    "uncleHash": "0x1dcc4de8dec75d7aab85b567b6ccd41ad312451b948a7413f0a142fd40d49347",
                    "coinbase": "0x2adc25665018aa1fe0e6bc666dac8fc2697ff9ba",
                    "stateRoot": "0x1533e703ccfb16cc9f0888e3c0733131bf42e086acfca01fa9a6a74d7e4b28e0",
                    "transactionsTrie": "0x62a79069d7392c9b8ce22e6346e06690fe270aa36981eeadb15d1f02caf0bcf5",
                    "receiptTrie": "0xd239ca17d4bb6abe2efb878f56cfa1ab277d118f9c640a7a6eb0e055705c8c27",
                    "bloom": "0x00000000000000000000000000000000000000000000000000000000000000000000000000000000000000000000000000000000000000000000000000000000000000000000000000000000000000000000000000000000000000000000000000000000000000000000000000000000000000000000000000000000000000000000000000000000000000000000000000000000000000000000000000000000000000000000000000000000000000000000000000000000000000000000000000000000000000000000000000000000000000000000000000000000000000000000000000000000000000000000000000000000000000000000000000000000",
                    "difficulty": "0x020000",
                    "number": "0x01",
                    "gasLimit": "0x07270e00",
                    "gasUsed": "0xa9f1",
                    "timestamp": "0x03e8",
                    "extraData": "0x00",
                    "mixHash": "0x0000000000000000000000000000000000000000000000000000000000000000",
                    "nonce": "0x0000000000000000",
                    "hash": "0x6cf8b67c9115610a9c1cefc6c0279e5b26f55d6c7682c7b0c2926480213d2f01"
                },
                "transactions": [
                    {
                        "type": "0x00",
                        "chainId": "0x01",
                        "nonce": "0x00",
                        "gasPrice": "0x3b9aca00",
                        "gasLimit": "0x0186a0",
                        "to": "0xe6597702901512e099b34854c9b8bc7463a39fde",
                        "value": "0x00",
                        "data": "0x00000000000000000000000000000000000000000000000000000000000000000000000000000000000000000000000000000000000000000000000000000000000000000000000000000000000000000000000000000000000000000000000000000000",
                        "v": "0x26",
                        "r": "0x6213d1f8cfbf79288bbbbf772f0a75b47764cdca323ba19ebaf4dfe0775e0536",
                        "s": "0x6db956f38cd2c71127f8821719891561797ffabfc0904a87f7171611ff35ecd9",
                        "sender": "0x1ad9bc24818784172ff393bb6f89f094d4d2ca29"
                    }
                ],
                "uncleHeaders": [],
                "receipts": [
                    {
                        "transactionHash": "0x43138bd69d4cac70a2bf6e86daf25bdf694534f287786e5470df4adf7ecf75c4",
                        "type": "0x00",
                        "cumulativeGasUsed": "0xa9f1",
                        "bloom": "0x00000000000000000000000000000000000000000000000000000000000000000000000000000000000000000000000000000000000000000000000000000000000000000000000000000000000000000000000000000000000000000000000000000000000000000000000000000000000000000000000000000000000000000000000000000000000000000000000000000000000000000000000000000000000000000000000000000000000000000000000000000000000000000000000000000000000000000000000000000000000000000000000000000000000000000000000000000000000000000000000000000000000000000000000000000000",
                        "logs": [],
                        "status": true,
                        "rlp": "0xf901080182a9f1b9010000000000000000000000000000000000000000000000000000000000000000000000000000000000000000000000000000000000000000000000000000000000000000000000000000000000000000000000000000000000000000000000000000000000000000000000000000000000000000000000000000000000000000000000000000000000000000000000000000000000000000000000000000000000000000000000000000000000000000000000000000000000000000000000000000000000000000000000000000000000000000000000000000000000000000000000000000000000000000000000000000000000000000000000000000000000c0"
                    }
                ],
                "rlp": "0xf902c9f901f8a00ce3d54feffac2c371ee0f66dd16188086b44713b3b109e7113730e520e90863a01dcc4de8dec75d7aab85b567b6ccd41ad312451b948a7413f0a142fd40d49347942adc25665018aa1fe0e6bc666dac8fc2697ff9baa01533e703ccfb16cc9f0888e3c0733131bf42e086acfca01fa9a6a74d7e4b28e0a062a79069d7392c9b8ce22e6346e06690fe270aa36981eeadb15d1f02caf0bcf5a0d239ca17d4bb6abe2efb878f56cfa1ab277d118f9c640a7a6eb0e055705c8c27b901000000000000000000000000000000000000000000000000000000000000000000000000000000000000000000000000000000000000000000000000000000000000000000000000000000000000000000000000000000000000000000000000000000000000000000000000000000000000000000000000000000000000000000000000000000000000000000000000000000000000000000000000000000000000000000000000000000000000000000000000000000000000000000000000000000000000000000000000000000000000000000000000000000000000000000000000000000000000000000000000000000000000000000000000000000000083020000018407270e0082a9f18203e800a00000000000000000000000000000000000000000000000000000000000000000880000000000000000f8cbf8c980843b9aca00830186a094e6597702901512e099b34854c9b8bc7463a39fde80b8640000000000000000000000000000000000000000000000000000000000000000000000000000000000000000000000000000000000000000000000000000000000000000000000000000000000000000000000000000000000000000000000000000000026a06213d1f8cfbf79288bbbbf772f0a75b47764cdca323ba19ebaf4dfe0775e0536a06db956f38cd2c71127f8821719891561797ffabfc0904a87f7171611ff35ecd9c0",
                "blocknumber": "1"
            }
        ],
        "sealEngine": "NoProof",
        "_info": {
            "hash": "0xcec02f6e398790b0735e640be492540798b3994a031293ae83c7f53b2d42fa42",
            "fixture-format": "blockchain_test",
            "comment": "`execution-specs` generated test",
            "filling-transition-tool": "2.19.0",
            "description": "Test CHAINID opcode.",
            "url": "https://github.com/ethereum/execution-specs/blob/tests-bal@v5.6.0/tests/istanbul/eip1344_chainid/test_chainid.py#L19",
            "metadata": {
                "opcode_count": {}
            },
            "reference-spec": "https://github.com/ethereum/EIPs/blob/master/EIPS/eip-1344.md",
            "reference-spec-version": "02e46aebc80e6e5006ab4d2daa41876139f9a9e2"
        }
    },
    "tests/istanbul/eip1344_chainid/test_chainid.py::test_chainid[fork_Berlin-typed_transaction_1-blockchain_test_from_state_test]": {
        "network": "Berlin",
        "genesisBlockHeader": {
            "parentHash": "0x0000000000000000000000000000000000000000000000000000000000000000",
            "uncleHash": "0x1dcc4de8dec75d7aab85b567b6ccd41ad312451b948a7413f0a142fd40d49347",
            "coinbase": "0x0000000000000000000000000000000000000000",
            "stateRoot": "0x04cf105f86c00ad2bcf12f8ccf4bade6ab0309b3baa8208c770ce50711ab93dc",
            "transactionsTrie": "0x56e81f171bcc55a6ff8345e692c0f86e5b48e01b996cadc001622fb5e363b421",
            "receiptTrie": "0x56e81f171bcc55a6ff8345e692c0f86e5b48e01b996cadc001622fb5e363b421",
            "bloom": "0x00000000000000000000000000000000000000000000000000000000000000000000000000000000000000000000000000000000000000000000000000000000000000000000000000000000000000000000000000000000000000000000000000000000000000000000000000000000000000000000000000000000000000000000000000000000000000000000000000000000000000000000000000000000000000000000000000000000000000000000000000000000000000000000000000000000000000000000000000000000000000000000000000000000000000000000000000000000000000000000000000000000000000000000000000000000",
            "difficulty": "0x020000",
            "number": "0x00",
            "gasLimit": "0x07270e00",
            "gasUsed": "0x00",
            "timestamp": "0x00",
            "extraData": "0x00",
            "mixHash": "0x0000000000000000000000000000000000000000000000000000000000000000",
            "nonce": "0x0000000000000000",
            "hash": "0x0ce3d54feffac2c371ee0f66dd16188086b44713b3b109e7113730e520e90863"
        },
        "pre": {
            "0x1ad9bc24818784172ff393bb6f89f094d4d2ca29": {
                "nonce": "0x00",
                "balance": "0x3635c9adc5dea00000",
                "code": "0x",
                "storage": {}
            },
            "0xe6597702901512e099b34854c9b8bc7463a39fde": {
                "nonce": "0x01",
                "balance": "0x00",
                "code": "0x4660015500",
                "storage": {}
            }
        },
        "postState": {
            "0x1ad9bc24818784172ff393bb6f89f094d4d2ca29": {
                "nonce": "0x01",
                "balance": "0x3635c97549ec294600",
                "code": "0x",
                "storage": {}
            },
            "0xe6597702901512e099b34854c9b8bc7463a39fde": {
                "nonce": "0x01",
                "balance": "0x00",
                "code": "0x4660015500",
                "storage": {
                    "0x01": "0x01"
                }
            },
            "0x2adc25665018aa1fe0e6bc666dac8fc2697ff9ba": {
                "nonce": "0x00",
                "balance": "0x1bc1a5e3413eba00",
                "code": "0x",
                "storage": {}
            }
        },
        "lastblockhash": "0x5dbc6b38f9203cbf7d245223735c8dabb1ecdbd42789279316effda2e46a52da",
        "config": {
            "network": "Berlin",
            "chainid": "0x01"
        },
        "genesisRLP": "0xf901f9f901f4a00000000000000000000000000000000000000000000000000000000000000000a01dcc4de8dec75d7aab85b567b6ccd41ad312451b948a7413f0a142fd40d49347940000000000000000000000000000000000000000a004cf105f86c00ad2bcf12f8ccf4bade6ab0309b3baa8208c770ce50711ab93dca056e81f171bcc55a6ff8345e692c0f86e5b48e01b996cadc001622fb5e363b421a056e81f171bcc55a6ff8345e692c0f86e5b48e01b996cadc001622fb5e363b421b901000000000000000000000000000000000000000000000000000000000000000000000000000000000000000000000000000000000000000000000000000000000000000000000000000000000000000000000000000000000000000000000000000000000000000000000000000000000000000000000000000000000000000000000000000000000000000000000000000000000000000000000000000000000000000000000000000000000000000000000000000000000000000000000000000000000000000000000000000000000000000000000000000000000000000000000000000000000000000000000000000000000000000000000000000000000083020000808407270e00808000a00000000000000000000000000000000000000000000000000000000000000000880000000000000000c0c0",
        "blocks": [
            {
                "blockHeader": {
                    "parentHash": "0x0ce3d54feffac2c371ee0f66dd16188086b44713b3b109e7113730e520e90863",
                    "uncleHash": "0x1dcc4de8dec75d7aab85b567b6ccd41ad312451b948a7413f0a142fd40d49347",
                    "coinbase": "0x2adc25665018aa1fe0e6bc666dac8fc2697ff9ba",
                    "stateRoot": "0x39bfe963293520421271bda8e6c0d39a44fa1f0de773696cdb586751f845b68f",
                    "transactionsTrie": "0x14943ae7d445716ac80881025a818fc20ebb5cec57596720ac23dc456564aa65",
                    "receiptTrie": "0x5efb54362edd457143e3db47ead32ab94f8f0ed0c16327d56f4da9bf68a793bd",
                    "bloom": "0x00000000000000000000000000000000000000000000000000000000000000000000000000000000000000000000000000000000000000000000000000000000000000000000000000000000000000000000000000000000000000000000000000000000000000000000000000000000000000000000000000000000000000000000000000000000000000000000000000000000000000000000000000000000000000000000000000000000000000000000000000000000000000000000000000000000000000000000000000000000000000000000000000000000000000000000000000000000000000000000000000000000000000000000000000000000",
                    "difficulty": "0x020000",
                    "number": "0x01",
                    "gasLimit": "0x07270e00",
                    "gasUsed": "0xf299",
                    "timestamp": "0x03e8",
                    "extraData": "0x00",
                    "mixHash": "0x0000000000000000000000000000000000000000000000000000000000000000",
                    "nonce": "0x0000000000000000",
                    "hash": "0x5dbc6b38f9203cbf7d245223735c8dabb1ecdbd42789279316effda2e46a52da"
                },
                "transactions": [
                    {
                        "type": "0x01",
                        "chainId": "0x01",
                        "nonce": "0x00",
                        "gasPrice": "0x3b9aca00",
                        "gasLimit": "0x0186a0",
                        "to": "0xe6597702901512e099b34854c9b8bc7463a39fde",
                        "value": "0x00",
                        "data": "0x00000000000000000000000000000000000000000000000000000000000000000000000000000000000000000000000000000000000000000000000000000000000000000000000000000000000000000000000000000000000000000000000000000000",
                        "accessList": [
                            {
                                "address": "0x0000000000000000000000000000000000001234",
                                "storageKeys": [
                                    "0x0000000000000000000000000000000000000000000000000000000000000000",
                                    "0x0000000000000000000000000000000000000000000000000000000000000001",
                                    "0x0000000000000000000000000000000000000000000000000000000000000002"
                                ]
                            },
                            {
                                "address": "0x0000000000000000000000000000000000005678",
                                "storageKeys": [
                                    "0x0000000000000000000000000000000000000000000000000000000000000003",
                                    "0x0000000000000000000000000000000000000000000000000000000000000004",
                                    "0x0000000000000000000000000000000000000000000000000000000000000005"
                                ]
                            },
                            {
                                "address": "0x0000000000000000000000000000000000009abc",
                                "storageKeys": []
                            }
                        ],
                        "v": "0x00",
                        "r": "0x93ae138420e1793213602f9edc917235eac8bfe35bde1d3529937d3380889f99",
                        "s": "0x149f819a8515b3fdf524c2b9926a249a7ef29703b91bac509b96671d1949820e",
                        "sender": "0x1ad9bc24818784172ff393bb6f89f094d4d2ca29"
                    }
                ],
                "uncleHeaders": [],
                "receipts": [
                    {
                        "transactionHash": "0xefd4ba946df136c6da230d0bdc8bc3bd142d5dc680ab91a4eec5b751bb83c93e",
                        "type": "0x01",
                        "cumulativeGasUsed": "0xf299",
                        "bloom": "0x00000000000000000000000000000000000000000000000000000000000000000000000000000000000000000000000000000000000000000000000000000000000000000000000000000000000000000000000000000000000000000000000000000000000000000000000000000000000000000000000000000000000000000000000000000000000000000000000000000000000000000000000000000000000000000000000000000000000000000000000000000000000000000000000000000000000000000000000000000000000000000000000000000000000000000000000000000000000000000000000000000000000000000000000000000000",
                        "logs": [],
                        "status": true,
                        "rlp": "0x01f901080182f299b9010000000000000000000000000000000000000000000000000000000000000000000000000000000000000000000000000000000000000000000000000000000000000000000000000000000000000000000000000000000000000000000000000000000000000000000000000000000000000000000000000000000000000000000000000000000000000000000000000000000000000000000000000000000000000000000000000000000000000000000000000000000000000000000000000000000000000000000000000000000000000000000000000000000000000000000000000000000000000000000000000000000000000000000000000000000000c0"
                    }
                ],
                "rlp": "0xf903e2f901f8a00ce3d54feffac2c371ee0f66dd16188086b44713b3b109e7113730e520e90863a01dcc4de8dec75d7aab85b567b6ccd41ad312451b948a7413f0a142fd40d49347942adc25665018aa1fe0e6bc666dac8fc2697ff9baa039bfe963293520421271bda8e6c0d39a44fa1f0de773696cdb586751f845b68fa014943ae7d445716ac80881025a818fc20ebb5cec57596720ac23dc456564aa65a05efb54362edd457143e3db47ead32ab94f8f0ed0c16327d56f4da9bf68a793bdb901000000000000000000000000000000000000000000000000000000000000000000000000000000000000000000000000000000000000000000000000000000000000000000000000000000000000000000000000000000000000000000000000000000000000000000000000000000000000000000000000000000000000000000000000000000000000000000000000000000000000000000000000000000000000000000000000000000000000000000000000000000000000000000000000000000000000000000000000000000000000000000000000000000000000000000000000000000000000000000000000000000000000000000000000000000000083020000018407270e0082f2998203e800a00000000000000000000000000000000000000000000000000000000000000000880000000000000000f901e3b901e001f901dc0180843b9aca00830186a094e6597702901512e099b34854c9b8bc7463a39fde80b86400000000000000000000000000000000000000000000000000000000000000000000000000000000000000000000000000000000000000000000000000000000000000000000000000000000000000000000000000000000000000000000000000000000f9010ff87a940000000000000000000000000000000000001234f863a00000000000000000000000000000000000000000000000000000000000000000a00000000000000000000000000000000000000000000000000000000000000001a00000000000000000000000000000000000000000000000000000000000000002f87a940000000000000000000000000000000000005678f863a00000000000000000000000000000000000000000000000000000000000000003a00000000000000000000000000000000000000000000000000000000000000004a00000000000000000000000000000000000000000000000000000000000000005d6940000000000000000000000000000000000009abcc080a093ae138420e1793213602f9edc917235eac8bfe35bde1d3529937d3380889f99a0149f819a8515b3fdf524c2b9926a249a7ef29703b91bac509b96671d1949820ec0",
                "blocknumber": "1"
            }
        ],
        "sealEngine": "NoProof",
        "_info": {
            "hash": "0x3066e3850cfa1a15a1500ed2dc328deb7c1ae1aab59ad0c094f200863d60e2e4",
            "fixture-format": "blockchain_test",
            "comment": "`execution-specs` generated test",
            "filling-transition-tool": "2.19.0",
            "description": "Test CHAINID opcode.",
            "url": "https://github.com/ethereum/execution-specs/blob/tests-bal@v5.6.0/tests/istanbul/eip1344_chainid/test_chainid.py#L19",
            "metadata": {
                "opcode_count": {}
            },
            "reference-spec": "https://github.com/ethereum/EIPs/blob/master/EIPS/eip-1344.md",
            "reference-spec-version": "02e46aebc80e6e5006ab4d2daa41876139f9a9e2"
        }
    }
}