{
    "tests/static/state_tests/stRandom/randomStatetest264Filler.json::randomStatetest264[fork_Cancun-state_test-]": {
        "env": {
            "currentCoinbase": "0xfb570296df5e82069e3ac56ac76b30013cf6608a",
            "currentGasLimit": "0x7fffffffffffffff",
            "currentNumber": "0x01",
            "currentTimestamp": "0x03e8",
            "currentRandom": "0x0000000000000000000000000000000000000000000000000000000000020000",
            "currentDifficulty": "0x00",
            "currentBaseFee": "0x0a",
            "currentExcessBlobGas": "0x00"
        },
        "pre": {
            "0x1735abc359016e786f90d43441d54707f5c8091a": {
                "nonce": "0x00",
                "balance": "0x0de0b6b3a7640000",
                "code": "0x",
                "storage": {}
            },
            "0xfb570296df5e82069e3ac56ac76b30013cf6608a": {
                "nonce": "0x00",
                "balance": "0x2e",
                "code": "0x6000355415600957005b60203560003555",
                "storage": {}
            },
            "0xfb570296df5e82069e3ac56ac76b30013cf6618a": {
                "nonce": "0x00",
                "balance": "0x00",
                "code": "0x7f000000000000000000000000ffffffffffffffffffffffffffffffffffffffff7ffffffffffffffffffffffffffffffffffffffffffffffffffffffffffffffffe427f000000000000000000000000fb570296df5e82069e3ac56ac76b30013cf6608a7f00000000000000000000000000000000000000000000000000000000000000017f000000000000000000000000ffffffffffffffffffffffffffffffffffffffff7fffffffffffffffffffffffffffffffffffffffffffffffffffffffffffffffff7f000000000000000000000000ffffffffffffffffffffffffffffffffffffffff0955",
                "storage": {}
            }
        },
        "transaction": {
            "nonce": "0x00",
            "gasPrice": "0x0a",
            "gasLimit": [
                "0x0186a0"
            ],
            "to": "0xfb570296df5e82069e3ac56ac76b30013cf6618a",
            "value": [
                "0x457c78f7"
            ],
            "data": [
                "0x7f000000000000000000000000ffffffffffffffffffffffffffffffffffffffff7ffffffffffffffffffffffffffffffffffffffffffffffffffffffffffffffffe427f000000000000000000000000fb570296df5e82069e3ac56ac76b30013cf6608a7f00000000000000000000000000000000000000000000000000000000000000017f000000000000000000000000ffffffffffffffffffffffffffffffffffffffff7fffffffffffffffffffffffffffffffffffffffffffffffffffffffffffffffff7f000000000000000000000000ffffffffffffffffffffffffffffffffffffffff09"
            ],
            "sender": "0x1735abc359016e786f90d43441d54707f5c8091a",
            "secretKey": "0x0932291605adab1b52871131fb570296df5e82069e3ac56ac76b30013cf6608a"
        },
        "post": {
            "Cancun": [
                {
                    "hash": "0x6b38c5b9428a4ce804274f2c9b140a916af2ab89aa3b5aa78e01448148dbf85b",
                    "logs": "0x1dcc4de8dec75d7aab85b567b6ccd41ad312451b948a7413f0a142fd40d49347",
                    "txbytes": "0xf9014e800a830186a094fb570296df5e82069e3ac56ac76b30013cf6618a84457c78f7b8e97f000000000000000000000000ffffffffffffffffffffffffffffffffffffffff7ffffffffffffffffffffffffffffffffffffffffffffffffffffffffffffffffe427f000000000000000000000000fb570296df5e82069e3ac56ac76b30013cf6608a7f00000000000000000000000000000000000000000000000000000000000000017f000000000000000000000000ffffffffffffffffffffffffffffffffffffffff7fffffffffffffffffffffffffffffffffffffffffffffffffffffffffffffffff7f000000000000000000000000ffffffffffffffffffffffffffffffffffffffff0926a0d9d70c444016a56a7983f6f7167597f0e6718f88524f4fe86cfbc0efe3e47e0fa058d2abb30737015f44656dbcfb6aa9cccf578d8bfb7bcc35a16f2821e4c59924",
                    "indexes": {
                        "data": 0,
                        "gas": 0,
                        "value": 0
                    },
                    "state": {
                        "0x1735abc359016e786f90d43441d54707f5c8091a": {
                            "nonce": "0x01",
                            "balance": "0x0de0b6b361e085a3",
                            "code": "0x",
                            "storage": {}
                        },
                        "0xfb570296df5e82069e3ac56ac76b30013cf6608a": {
                            "nonce": "0x00",
                            "balance": "0x2e",
                            "code": "0x6000355415600957005b60203560003555",
                            "storage": {}
                        },
                        "0xfb570296df5e82069e3ac56ac76b30013cf6618a": {
                            "nonce": "0x00",
                            "balance": "0x457c78f7",
                            "code": "0x7f000000000000000000000000ffffffffffffffffffffffffffffffffffffffff7ffffffffffffffffffffffffffffffffffffffffffffffffffffffffffffffffe427f000000000000000000000000fb570296df5e82069e3ac56ac76b30013cf6608a7f00000000000000000000000000000000000000000000000000000000000000017f000000000000000000000000ffffffffffffffffffffffffffffffffffffffff7fffffffffffffffffffffffffffffffffffffffffffffffffffffffffffffffff7f000000000000000000000000ffffffffffffffffffffffffffffffffffffffff0955",
                            "storage": {
                                "0x00": "0x01"
                            }
                        }
                    }
                }
            ]
        },
        "config": {
            "blobSchedule": {
                "Cancun": {
                    "target": "0x03",
                    "max": "0x06",
                    "baseFeeUpdateFraction": "0x32f0ed"
                }
            },
            "chainid": "0x01"
        },
        "_info": {
            "hash": "0x6ddb41a5f86922c9f6a7760d50585424293c7392ef023bd5e50bea47c40da90a",
            "comment": "`execution-spec-tests` generated test",
            "filling-transition-tool": "ethereum-spec-evm-resolver 0.0.5",
            "description": "No description available - add a docstring to the python test class or function.",
            "url": "",
            "fixture-format": "state_test",
            "eels-resolution": {
                "git-url": "https://github.com/marioevz/execution-specs.git",
                "branch": "forks/bpo1",
                "commit": "3387e5f4aedfe99becfdc39b444d6371e25e0924"
            }
        }
    },
    "tests/static/state_tests/stRandom/randomStatetest264Filler.json::randomStatetest264[fork_Osaka-state_test-]": {
        "env": {
            "currentCoinbase": "0xfb570296df5e82069e3ac56ac76b30013cf6608a",
            "currentGasLimit": "0x7fffffffffffffff",
            "currentNumber": "0x01",
            "currentTimestamp": "0x03e8",
            "currentRandom": "0x0000000000000000000000000000000000000000000000000000000000020000",
            "currentDifficulty": "0x00",
            "currentBaseFee": "0x0a",
            "currentExcessBlobGas": "0x00"
        },
        "pre": {
            "0x1735abc359016e786f90d43441d54707f5c8091a": {
                "nonce": "0x00",
                "balance": "0x0de0b6b3a7640000",
                "code": "0x",
                "storage": {}
            },
            "0xfb570296df5e82069e3ac56ac76b30013cf6608a": {
                "nonce": "0x00",
                "balance": "0x2e",
                "code": "0x6000355415600957005b60203560003555",
                "storage": {}
            },
            "0xfb570296df5e82069e3ac56ac76b30013cf6618a": {
                "nonce": "0x00",
                "balance": "0x00",
                "code": "0x7f000000000000000000000000ffffffffffffffffffffffffffffffffffffffff7ffffffffffffffffffffffffffffffffffffffffffffffffffffffffffffffffe427f000000000000000000000000fb570296df5e82069e3ac56ac76b30013cf6608a7f00000000000000000000000000000000000000000000000000000000000000017f000000000000000000000000ffffffffffffffffffffffffffffffffffffffff7fffffffffffffffffffffffffffffffffffffffffffffffffffffffffffffffff7f000000000000000000000000ffffffffffffffffffffffffffffffffffffffff0955",
                "storage": {}
            }
        },
        "transaction": {
            "nonce": "0x00",
            "gasPrice": "0x0a",
            "gasLimit": [
                "0x0186a0"
            ],
            "to": "0xfb570296df5e82069e3ac56ac76b30013cf6618a",
            "value": [
                "0x457c78f7"
            ],
            "data": [
                "0x7f000000000000000000000000ffffffffffffffffffffffffffffffffffffffff7ffffffffffffffffffffffffffffffffffffffffffffffffffffffffffffffffe427f000000000000000000000000fb570296df5e82069e3ac56ac76b30013cf6608a7f00000000000000000000000000000000000000000000000000000000000000017f000000000000000000000000ffffffffffffffffffffffffffffffffffffffff7fffffffffffffffffffffffffffffffffffffffffffffffffffffffffffffffff7f000000000000000000000000ffffffffffffffffffffffffffffffffffffffff09"
            ],
            "sender": "0x1735abc359016e786f90d43441d54707f5c8091a",
            "secretKey": "0x0932291605adab1b52871131fb570296df5e82069e3ac56ac76b30013cf6608a"
        },
        "post": {
            "Osaka": [
                {
                    "hash": "0x6b38c5b9428a4ce804274f2c9b140a916af2ab89aa3b5aa78e01448148dbf85b",
                    "logs": "0x1dcc4de8dec75d7aab85b567b6ccd41ad312451b948a7413f0a142fd40d49347",
                    "txbytes": "0xf9014e800a830186a094fb570296df5e82069e3ac56ac76b30013cf6618a84457c78f7b8e97f000000000000000000000000ffffffffffffffffffffffffffffffffffffffff7ffffffffffffffffffffffffffffffffffffffffffffffffffffffffffffffffe427f000000000000000000000000fb570296df5e82069e3ac56ac76b30013cf6608a7f00000000000000000000000000000000000000000000000000000000000000017f000000000000000000000000ffffffffffffffffffffffffffffffffffffffff7fffffffffffffffffffffffffffffffffffffffffffffffffffffffffffffffff7f000000000000000000000000ffffffffffffffffffffffffffffffffffffffff0926a0d9d70c444016a56a7983f6f7167597f0e6718f88524f4fe86cfbc0efe3e47e0fa058d2abb30737015f44656dbcfb6aa9cccf578d8bfb7bcc35a16f2821e4c59924",
                    "indexes": {
                        "data": 0,
                        "gas": 0,
                        "value": 0
                    },
                    "state": {
                        "0x1735abc359016e786f90d43441d54707f5c8091a": {
                            "nonce": "0x01",
                            "balance": "0x0de0b6b361e085a3",
                            "code": "0x",
                            "storage": {}
                        },
                        "0xfb570296df5e82069e3ac56ac76b30013cf6608a": {
                            "nonce": "0x00",
                            "balance": "0x2e",
                            "code": "0x6000355415600957005b60203560003555",
                            "storage": {}
                        },
                        "0xfb570296df5e82069e3ac56ac76b30013cf6618a": {
                            "nonce": "0x00",
                            "balance": "0x457c78f7",
                            "code": "0x7f000000000000000000000000ffffffffffffffffffffffffffffffffffffffff7ffffffffffffffffffffffffffffffffffffffffffffffffffffffffffffffffe427f000000000000000000000000fb570296df5e82069e3ac56ac76b30013cf6608a7f00000000000000000000000000000000000000000000000000000000000000017f000000000000000000000000ffffffffffffffffffffffffffffffffffffffff7fffffffffffffffffffffffffffffffffffffffffffffffffffffffffffffffff7f000000000000000000000000ffffffffffffffffffffffffffffffffffffffff0955",
                            "storage": {
                                "0x00": "0x01"
                            }
                        }
                    }
                }
            ]
        },
        "config": {
            "blobSchedule": {
                "Cancun": {
                    "target": "0x03",
                    "max": "0x06",
                    "baseFeeUpdateFraction": "0x32f0ed"
                },
                "Prague": {
                    "target": "0x06",
                    "max": "0x09",
                    "baseFeeUpdateFraction": "0x4c6964"
                },
                "Osaka": {
                    "target": "0x06",
                    "max": "0x09",
                    "baseFeeUpdateFraction": "0x4c6964"
                }
            },
            "chainid": "0x01"
        },
        "_info": {
            "hash": "0x08a94ad3b3d5e0476b63bf01dfcc30a8f29444585b46cb1d9a51861f99ce4750",
            "comment": "`execution-spec-tests` generated test",
            "filling-transition-tool": "ethereum-spec-evm-resolver 0.0.5",
            "description": "No description available - add a docstring to the python test class or function.",
            "url": "",
            "fixture-format": "state_test",
            "eels-resolution": {
                "git-url": "https://github.com/marioevz/execution-specs.git",
                "branch": "forks/bpo1",
                "commit": "3387e5f4aedfe99becfdc39b444d6371e25e0924"
            }
        }
    },
    "tests/static/state_tests/stRandom/randomStatetest264Filler.json::randomStatetest264[fork_Prague-state_test-]": {
        "env": {
            "currentCoinbase": "0xfb570296df5e82069e3ac56ac76b30013cf6608a",
            "currentGasLimit": "0x7fffffffffffffff",
            "currentNumber": "0x01",
            "currentTimestamp": "0x03e8",
            "currentRandom": "0x0000000000000000000000000000000000000000000000000000000000020000",
            "currentDifficulty": "0x00",
            "currentBaseFee": "0x0a",
            "currentExcessBlobGas": "0x00"
        },
        "pre": {
            "0x1735abc359016e786f90d43441d54707f5c8091a": {
                "nonce": "0x00",
                "balance": "0x0de0b6b3a7640000",
                "code": "0x",
                "storage": {}
            },
            "0xfb570296df5e82069e3ac56ac76b30013cf6608a": {
                "nonce": "0x00",
                "balance": "0x2e",
                "code": "0x6000355415600957005b60203560003555",
                "storage": {}
            },
            "0xfb570296df5e82069e3ac56ac76b30013cf6618a": {
                "nonce": "0x00",
                "balance": "0x00",
                "code": "0x7f000000000000000000000000ffffffffffffffffffffffffffffffffffffffff7ffffffffffffffffffffffffffffffffffffffffffffffffffffffffffffffffe427f000000000000000000000000fb570296df5e82069e3ac56ac76b30013cf6608a7f00000000000000000000000000000000000000000000000000000000000000017f000000000000000000000000ffffffffffffffffffffffffffffffffffffffff7fffffffffffffffffffffffffffffffffffffffffffffffffffffffffffffffff7f000000000000000000000000ffffffffffffffffffffffffffffffffffffffff0955",
                "storage": {}
            }
        },
        "transaction": {
            "nonce": "0x00",
            "gasPrice": "0x0a",
            "gasLimit": [
                "0x0186a0"
            ],
            "to": "0xfb570296df5e82069e3ac56ac76b30013cf6618a",
            "value": [
                "0x457c78f7"
            ],
            "data": [
                "0x7f000000000000000000000000ffffffffffffffffffffffffffffffffffffffff7ffffffffffffffffffffffffffffffffffffffffffffffffffffffffffffffffe427f000000000000000000000000fb570296df5e82069e3ac56ac76b30013cf6608a7f00000000000000000000000000000000000000000000000000000000000000017f000000000000000000000000ffffffffffffffffffffffffffffffffffffffff7fffffffffffffffffffffffffffffffffffffffffffffffffffffffffffffffff7f000000000000000000000000ffffffffffffffffffffffffffffffffffffffff09"
            ],
            "sender": "0x1735abc359016e786f90d43441d54707f5c8091a",
            "secretKey": "0x0932291605adab1b52871131fb570296df5e82069e3ac56ac76b30013cf6608a"
        },
        "post": {
            "Prague": [
                {
                    "hash": "0x6b38c5b9428a4ce804274f2c9b140a916af2ab89aa3b5aa78e01448148dbf85b",
                    "logs": "0x1dcc4de8dec75d7aab85b567b6ccd41ad312451b948a7413f0a142fd40d49347",
                    "txbytes": "0xf9014e800a830186a094fb570296df5e82069e3ac56ac76b30013cf6618a84457c78f7b8e97f000000000000000000000000ffffffffffffffffffffffffffffffffffffffff7ffffffffffffffffffffffffffffffffffffffffffffffffffffffffffffffffe427f000000000000000000000000fb570296df5e82069e3ac56ac76b30013cf6608a7f00000000000000000000000000000000000000000000000000000000000000017f000000000000000000000000ffffffffffffffffffffffffffffffffffffffff7fffffffffffffffffffffffffffffffffffffffffffffffffffffffffffffffff7f000000000000000000000000ffffffffffffffffffffffffffffffffffffffff0926a0d9d70c444016a56a7983f6f7167597f0e6718f88524f4fe86cfbc0efe3e47e0fa058d2abb30737015f44656dbcfb6aa9cccf578d8bfb7bcc35a16f2821e4c59924",
                    "indexes": {
                        "data": 0,
                        "gas": 0,
                        "value": 0
                    },
                    "state": {
                        "0x1735abc359016e786f90d43441d54707f5c8091a": {
                            "nonce": "0x01",
                            "balance": "0x0de0b6b361e085a3",
                            "code": "0x",
                            "storage": {}
                        },
                        "0xfb570296df5e82069e3ac56ac76b30013cf6608a": {
                            "nonce": "0x00",
                            "balance": "0x2e",
                            "code": "0x6000355415600957005b60203560003555",
                            "storage": {}
                        },
                        "0xfb570296df5e82069e3ac56ac76b30013cf6618a": {
                            "nonce": "0x00",
                            "balance": "0x457c78f7",
                            "code": "0x7f000000000000000000000000ffffffffffffffffffffffffffffffffffffffff7ffffffffffffffffffffffffffffffffffffffffffffffffffffffffffffffffe427f000000000000000000000000fb570296df5e82069e3ac56ac76b30013cf6608a7f00000000000000000000000000000000000000000000000000000000000000017f000000000000000000000000ffffffffffffffffffffffffffffffffffffffff7fffffffffffffffffffffffffffffffffffffffffffffffffffffffffffffffff7f000000000000000000000000ffffffffffffffffffffffffffffffffffffffff0955",
                            "storage": {
                                "0x00": "0x01"
                            }
                        }
                    }
                }
            ]
        },
        "config": {
            "blobSchedule": {
                "Cancun": {
                    "target": "0x03",
                    "max": "0x06",
                    "baseFeeUpdateFraction": "0x32f0ed"
                },
                "Prague": {
                    "target": "0x06",
                    "max": "0x09",
                    "baseFeeUpdateFraction": "0x4c6964"
                }
            },
            "chainid": "0x01"
        },
        "_info": {
            "hash": "0xb2eb3d0c3cba5cc6baef21a31a615ba91bd5ff4e211056c3d7a57ff7edc5bd6f",
            "comment": "`execution-spec-tests` generated test",
            "filling-transition-tool": "ethereum-spec-evm-resolver 0.0.5",
            "description": "No description available - add a docstring to the python test class or function.",
            "url": "",
            "fixture-format": "state_test",
            "eels-resolution": {
                "git-url": "https://github.com/marioevz/execution-specs.git",
                "branch": "forks/bpo1",
                "commit": "3387e5f4aedfe99becfdc39b444d6371e25e0924"
            }
        }
    }
}