{
    "tests/static/state_tests/stRandom/randomStatetest384Filler.yml::randomStatetest384[fork_Cancun-state_test-]": {
        "env": {
            "currentCoinbase": "0x2adc25665018aa1fe0e6bc666dac8fc2697ff9ba",
            "currentGasLimit": "0xff112233445566",
            "currentNumber": "0x01",
            "currentTimestamp": "0x03e8",
            "currentRandom": "0x0000000000000000000000000000000000000000000000000000000000020000",
            "currentDifficulty": "0x00",
            "currentBaseFee": "0x0a",
            "currentExcessBlobGas": "0x00"
        },
        "pre": {
            "0x8a0a30ae1014c226093a9dcefaec7fa430ef43f9": {
                "nonce": "0x01",
                "balance": "0x3635c9adc5dea00000",
                "code": "0x",
                "storage": {}
            },
            "0x24f9ee3b12bb144b30546d19a2e6c4dc64bf47c5": {
                "nonce": "0x01",
                "balance": "0x0de0b6b3a7640000",
                "code": "0x786675a4758d443dbff535f034a4eda729a6ffc1e59f674e0c553b655d7974272ac76e18ce2014249172572ed5eac0b9d2e461ffff169061ffff16a033114861c0cd619fe161a9bb61ad137f4d84673d975d1811374a239ef14ee26532d643cc4dd6e9115e28815562c2eb945af46c513376bc288aa1fdb973c149cd143b7889cc6512f8d604e5d0656c17f2d45b916df6816a1999719f2b71d521394f07100138b341f1debc06c3fb3cbc600116586008015760cb505b7227e1dc4c54400e52ab133f162c6df107151d1145939445807e5153417e8ff00d138f0dffc0cd79ced2ececd6f0dce826302e4129cb6c37ab43415b6145c16173ce6152a9610c307fa5d352916626fe6be4aa6ef0e7634db7909fd79752e5bcb504b358d36af708495af461ffff169061ffff16a26ce900f727806828f5ee6088ebf861ffff165170015c1269fa9f5387ab7387a81f5190564098601f9471b46eb2f2d66ee0b4c6845455e9c5eeff021875bae1d66f6cb6213c6ce69859f1046ae4cb5e5b743ab76d66120b1a7a97c93a6a04bd493f4a07963d0b69471b70dec306fa6142ce9c60ff164303406aa04ea7e0bd9d9cda29962b05067246ce83ab26762d5e2cfb614aa2394ad1d70ea938856b938d5c3ff280bf7efda95e668a70149afa7a18bf9c2d796de03773e0d35c9a7e8e0e968ba16f3ad59d6442ddbdb9e537908db1f791bb3f17b33a14333401071961a1689c7b413ed4a9b16e7d66a17b07730188a08fa9e6148100f0311ea269ecc588607d7fcbfff9f42e22612e938809af2674b0cedc8548f47ee642097c0c4abc9bf7c76b9678996410d0bf28e5e3e1b35b37ffce70e346e013d5345494d47690334261771761abae6174fd61f1957f1396b439a0049676213fd1ff8b75232dbd2117c0c5dcc184d76e2534ea9628ac5af4863a9761ffff169061ffff16a07e486085a7047bd1acab7c048c2ae5a07a9e25934021cfaf0651efbd393b72141461ffff165361ffff169061ffff16a16a84ed962562151d0b903fb2863004140473380357280d5dbc434298ac45559fc2855c0d2a045a66af59655ed483a0583160ff16430340795f1536b1893659fbb9ffa023722beb2f24b5693be6b572737fed1b9d0a646f7a2658b58b5b417220e684f471111724a4f72553b4fdc9593ae22c96959961a631615ad461199161f3f6618fe07f39dbe091b64b8be6a557a93bf2c25dd042e8c8fea4db3bd8ee5be3eabde2835e5af105600055600155600255600355600455600555600655600755600855600955600a55600b55600c55600d55600e55600f55601055601155601255601355601455601555601655601755601855601955601a55601b55601c55601d55601e5561273961c065f3",
                "storage": {}
            }
        },
        "transaction": {
            "nonce": "0x01",
            "gasPrice": "0x64",
            "gasLimit": [
                "0x01000000"
            ],
            "to": "0x24f9ee3b12bb144b30546d19a2e6c4dc64bf47c5",
            "value": [
                "0x00"
            ],
            "data": [
                "0x"
            ],
            "sender": "0x8a0a30ae1014c226093a9dcefaec7fa430ef43f9",
            "secretKey": "0xb3062a5905664a16e5f4c1bf24f9ee3b12bb144b30546d19a2e6c4dc64bf47c5"
        },
        "post": {
            "Cancun": [
                {
                    "hash": "0x60499e489e266ad4b29f5cebb012a599daeff56361514264b3624b26716395d3",
                    "logs": "0x6a546109da3a74c1857e767f46b055c1624c55df2cf4647a3e300fac10033774",
                    "txbytes": "0xf861016484010000009424f9ee3b12bb144b30546d19a2e6c4dc64bf47c5808026a0057179a9a72c76b28886fd1c21d6fcce2e7ca144f31f75339bd57d49a8144934a02bc8760558a7a70d04963dcbb99de61155c4ad2164cba8f8c200c9a5ad2903ed",
                    "indexes": {
                        "data": 0,
                        "gas": 0,
                        "value": 0
                    },
                    "state": {
                        "0x8a0a30ae1014c226093a9dcefaec7fa430ef43f9": {
                            "nonce": "0x02",
                            "balance": "0x3635c9adc5d7143e50",
                            "code": "0x",
                            "storage": {}
                        },
                        "0x24f9ee3b12bb144b30546d19a2e6c4dc64bf47c5": {
                            "nonce": "0x01",
                            "balance": "0x0de0b6b3a7637020",
                            "code": "0x786675a4758d443dbff535f034a4eda729a6ffc1e59f674e0c553b655d7974272ac76e18ce2014249172572ed5eac0b9d2e461ffff169061ffff16a033114861c0cd619fe161a9bb61ad137f4d84673d975d1811374a239ef14ee26532d643cc4dd6e9115e28815562c2eb945af46c513376bc288aa1fdb973c149cd143b7889cc6512f8d604e5d0656c17f2d45b916df6816a1999719f2b71d521394f07100138b341f1debc06c3fb3cbc600116586008015760cb505b7227e1dc4c54400e52ab133f162c6df107151d1145939445807e5153417e8ff00d138f0dffc0cd79ced2ececd6f0dce826302e4129cb6c37ab43415b6145c16173ce6152a9610c307fa5d352916626fe6be4aa6ef0e7634db7909fd79752e5bcb504b358d36af708495af461ffff169061ffff16a26ce900f727806828f5ee6088ebf861ffff165170015c1269fa9f5387ab7387a81f5190564098601f9471b46eb2f2d66ee0b4c6845455e9c5eeff021875bae1d66f6cb6213c6ce69859f1046ae4cb5e5b743ab76d66120b1a7a97c93a6a04bd493f4a07963d0b69471b70dec306fa6142ce9c60ff164303406aa04ea7e0bd9d9cda29962b05067246ce83ab26762d5e2cfb614aa2394ad1d70ea938856b938d5c3ff280bf7efda95e668a70149afa7a18bf9c2d796de03773e0d35c9a7e8e0e968ba16f3ad59d6442ddbdb9e537908db1f791bb3f17b33a14333401071961a1689c7b413ed4a9b16e7d66a17b07730188a08fa9e6148100f0311ea269ecc588607d7fcbfff9f42e22612e938809af2674b0cedc8548f47ee642097c0c4abc9bf7c76b9678996410d0bf28e5e3e1b35b37ffce70e346e013d5345494d47690334261771761abae6174fd61f1957f1396b439a0049676213fd1ff8b75232dbd2117c0c5dcc184d76e2534ea9628ac5af4863a9761ffff169061ffff16a07e486085a7047bd1acab7c048c2ae5a07a9e25934021cfaf0651efbd393b72141461ffff165361ffff169061ffff16a16a84ed962562151d0b903fb2863004140473380357280d5dbc434298ac45559fc2855c0d2a045a66af59655ed483a0583160ff16430340795f1536b1893659fbb9ffa023722beb2f24b5693be6b572737fed1b9d0a646f7a2658b58b5b417220e684f471111724a4f72553b4fdc9593ae22c96959961a631615ad461199161f3f6618fe07f39dbe091b64b8be6a557a93bf2c25dd042e8c8fea4db3bd8ee5be3eabde2835e5af105600055600155600255600355600455600555600655600755600855600955600a55600b55600c55600d55600e55600f55601055601155601255601355601455601555601655601755601855601955601a55601b55601c55601d55601e5561273961c065f3",
                            "storage": {
                                "0x01": "0x2adc25665018aa1fe0e6bc666dac8fc2697ff9ba",
                                "0x02": "0x938d5c3ff280bf7efda95e66",
                                "0x03": "0x6f7a2658b5",
                                "0x04": "0x9582ced6097ae8d75cb9cac205753dd88202d5d36541f1b1bb9c1446739e0d01",
                                "0x05": "0xf5e2c2",
                                "0x07": "0x20e684f471111724a4f72553b4fdc9593ae22c",
                                "0x08": "0x64",
                                "0x09": "0x413ed4a9b16e7d66a17b07730188a08fa9e6148100f0311ea269ecc5",
                                "0x0a": "0x380357280d5dbc434298ac45559fc2855c0d2a04",
                                "0x0b": "0xff71f169745e90c52a629bbd2242461ac86f724e086e44c0e84cc5ebcccbfef8",
                                "0x0c": "0x149afa7a18bf9c2d796de03773e0d35c9a",
                                "0x0d": "0xcbfff9f42e22612e938809af2674b0cedc8548f47ee642097c0c4abc9bf7c76b",
                                "0x0e": "0x938d5c3ff280bf7efda95e66",
                                "0x0f": "0x0a",
                                "0x10": "0x03e4",
                                "0x13": "0xb46eb2f2d66ee0b4c6845455e9c5eeff0218",
                                "0x14": "0x01",
                                "0x15": "0x0a",
                                "0x17": "0xa168",
                                "0x18": "0xff112233445566",
                                "0x19": "0x66120b1a7a97c93a6a04bd493f4a",
                                "0x1a": "0x27e1dc4c54400e52ab133f162c6df107151d11",
                                "0x1b": "0x89cc6512f8d604e5d0656c17f2d45b916df6816a1999719f2b",
                                "0x1d": "0xff112233445566",
                                "0x1e": "0x471b70dec306fa6142ce"
                            }
                        },
                        "0xf2c25dd042e8c8fea4db3bd8ee5be3eabde2835e": {
                            "nonce": "0x00",
                            "balance": "0x8fe0",
                            "code": "0x",
                            "storage": {}
                        },
                        "0x2adc25665018aa1fe0e6bc666dac8fc2697ff9ba": {
                            "nonce": "0x00",
                            "balance": "0x06ca94b8",
                            "code": "0x",
                            "storage": {}
                        }
                    }
                }
            ]
        },
        "config": {
            "blobSchedule": {
                "Cancun": {
                    "target": "0x03",
                    "max": "0x06",
                    "baseFeeUpdateFraction": "0x32f0ed"
                }
            },
            "chainid": "0x01"
        },
        "_info": {
            "hash": "0x954806fd966d25bd4b673044b7db56fc2f73d6146005347f39d33f679fc7bac2",
            "comment": "`execution-spec-tests` generated test",
            "filling-transition-tool": "ethereum-spec-evm-resolver 0.0.5",
            "description": "No description available - add a docstring to the python test class or function.",
            "url": "",
            "fixture-format": "state_test",
            "eels-resolution": {
                "git-url": "https://github.com/ethereum/execution-specs.git",
                "branch": "forks/bpos",
                "commit": "7aacb2c54111391af5e98c505d5010b5698a770f"
            }
        }
    },
    "tests/static/state_tests/stRandom/randomStatetest384Filler.yml::randomStatetest384[fork_Osaka-state_test-]": {
        "env": {
            "currentCoinbase": "0x2adc25665018aa1fe0e6bc666dac8fc2697ff9ba",
            "currentGasLimit": "0xff112233445566",
            "currentNumber": "0x01",
            "currentTimestamp": "0x03e8",
            "currentRandom": "0x0000000000000000000000000000000000000000000000000000000000020000",
            "currentDifficulty": "0x00",
            "currentBaseFee": "0x0a",
            "currentExcessBlobGas": "0x00"
        },
        "pre": {
            "0x8a0a30ae1014c226093a9dcefaec7fa430ef43f9": {
                "nonce": "0x01",
                "balance": "0x3635c9adc5dea00000",
                "code": "0x",
                "storage": {}
            },
            "0x24f9ee3b12bb144b30546d19a2e6c4dc64bf47c5": {
                "nonce": "0x01",
                "balance": "0x0de0b6b3a7640000",
                "code": "0x786675a4758d443dbff535f034a4eda729a6ffc1e59f674e0c553b655d7974272ac76e18ce2014249172572ed5eac0b9d2e461ffff169061ffff16a033114861c0cd619fe161a9bb61ad137f4d84673d975d1811374a239ef14ee26532d643cc4dd6e9115e28815562c2eb945af46c513376bc288aa1fdb973c149cd143b7889cc6512f8d604e5d0656c17f2d45b916df6816a1999719f2b71d521394f07100138b341f1debc06c3fb3cbc600116586008015760cb505b7227e1dc4c54400e52ab133f162c6df107151d1145939445807e5153417e8ff00d138f0dffc0cd79ced2ececd6f0dce826302e4129cb6c37ab43415b6145c16173ce6152a9610c307fa5d352916626fe6be4aa6ef0e7634db7909fd79752e5bcb504b358d36af708495af461ffff169061ffff16a26ce900f727806828f5ee6088ebf861ffff165170015c1269fa9f5387ab7387a81f5190564098601f9471b46eb2f2d66ee0b4c6845455e9c5eeff021875bae1d66f6cb6213c6ce69859f1046ae4cb5e5b743ab76d66120b1a7a97c93a6a04bd493f4a07963d0b69471b70dec306fa6142ce9c60ff164303406aa04ea7e0bd9d9cda29962b05067246ce83ab26762d5e2cfb614aa2394ad1d70ea938856b938d5c3ff280bf7efda95e668a70149afa7a18bf9c2d796de03773e0d35c9a7e8e0e968ba16f3ad59d6442ddbdb9e537908db1f791bb3f17b33a14333401071961a1689c7b413ed4a9b16e7d66a17b07730188a08fa9e6148100f0311ea269ecc588607d7fcbfff9f42e22612e938809af2674b0cedc8548f47ee642097c0c4abc9bf7c76b9678996410d0bf28e5e3e1b35b37ffce70e346e013d5345494d47690334261771761abae6174fd61f1957f1396b439a0049676213fd1ff8b75232dbd2117c0c5dcc184d76e2534ea9628ac5af4863a9761ffff169061ffff16a07e486085a7047bd1acab7c048c2ae5a07a9e25934021cfaf0651efbd393b72141461ffff165361ffff169061ffff16a16a84ed962562151d0b903fb2863004140473380357280d5dbc434298ac45559fc2855c0d2a045a66af59655ed483a0583160ff16430340795f1536b1893659fbb9ffa023722beb2f24b5693be6b572737fed1b9d0a646f7a2658b58b5b417220e684f471111724a4f72553b4fdc9593ae22c96959961a631615ad461199161f3f6618fe07f39dbe091b64b8be6a557a93bf2c25dd042e8c8fea4db3bd8ee5be3eabde2835e5af105600055600155600255600355600455600555600655600755600855600955600a55600b55600c55600d55600e55600f55601055601155601255601355601455601555601655601755601855601955601a55601b55601c55601d55601e5561273961c065f3",
                "storage": {}
            }
        },
        "transaction": {
            "nonce": "0x01",
            "gasPrice": "0x64",
            "gasLimit": [
                "0x01000000"
            ],
            "to": "0x24f9ee3b12bb144b30546d19a2e6c4dc64bf47c5",
            "value": [
                "0x00"
            ],
            "data": [
                "0x"
            ],
            "sender": "0x8a0a30ae1014c226093a9dcefaec7fa430ef43f9",
            "secretKey": "0xb3062a5905664a16e5f4c1bf24f9ee3b12bb144b30546d19a2e6c4dc64bf47c5"
        },
        "post": {
            "Osaka": [
                {
                    "hash": "0x60499e489e266ad4b29f5cebb012a599daeff56361514264b3624b26716395d3",
                    "logs": "0x6a546109da3a74c1857e767f46b055c1624c55df2cf4647a3e300fac10033774",
                    "txbytes": "0xf861016484010000009424f9ee3b12bb144b30546d19a2e6c4dc64bf47c5808026a0057179a9a72c76b28886fd1c21d6fcce2e7ca144f31f75339bd57d49a8144934a02bc8760558a7a70d04963dcbb99de61155c4ad2164cba8f8c200c9a5ad2903ed",
                    "indexes": {
                        "data": 0,
                        "gas": 0,
                        "value": 0
                    },
                    "state": {
                        "0x8a0a30ae1014c226093a9dcefaec7fa430ef43f9": {
                            "nonce": "0x02",
                            "balance": "0x3635c9adc5d7143e50",
                            "code": "0x",
                            "storage": {}
                        },
                        "0x24f9ee3b12bb144b30546d19a2e6c4dc64bf47c5": {
                            "nonce": "0x01",
                            "balance": "0x0de0b6b3a7637020",
                            "code": "0x786675a4758d443dbff535f034a4eda729a6ffc1e59f674e0c553b655d7974272ac76e18ce2014249172572ed5eac0b9d2e461ffff169061ffff16a033114861c0cd619fe161a9bb61ad137f4d84673d975d1811374a239ef14ee26532d643cc4dd6e9115e28815562c2eb945af46c513376bc288aa1fdb973c149cd143b7889cc6512f8d604e5d0656c17f2d45b916df6816a1999719f2b71d521394f07100138b341f1debc06c3fb3cbc600116586008015760cb505b7227e1dc4c54400e52ab133f162c6df107151d1145939445807e5153417e8ff00d138f0dffc0cd79ced2ececd6f0dce826302e4129cb6c37ab43415b6145c16173ce6152a9610c307fa5d352916626fe6be4aa6ef0e7634db7909fd79752e5bcb504b358d36af708495af461ffff169061ffff16a26ce900f727806828f5ee6088ebf861ffff165170015c1269fa9f5387ab7387a81f5190564098601f9471b46eb2f2d66ee0b4c6845455e9c5eeff021875bae1d66f6cb6213c6ce69859f1046ae4cb5e5b743ab76d66120b1a7a97c93a6a04bd493f4a07963d0b69471b70dec306fa6142ce9c60ff164303406aa04ea7e0bd9d9cda29962b05067246ce83ab26762d5e2cfb614aa2394ad1d70ea938856b938d5c3ff280bf7efda95e668a70149afa7a18bf9c2d796de03773e0d35c9a7e8e0e968ba16f3ad59d6442ddbdb9e537908db1f791bb3f17b33a14333401071961a1689c7b413ed4a9b16e7d66a17b07730188a08fa9e6148100f0311ea269ecc588607d7fcbfff9f42e22612e938809af2674b0cedc8548f47ee642097c0c4abc9bf7c76b9678996410d0bf28e5e3e1b35b37ffce70e346e013d5345494d47690334261771761abae6174fd61f1957f1396b439a0049676213fd1ff8b75232dbd2117c0c5dcc184d76e2534ea9628ac5af4863a9761ffff169061ffff16a07e486085a7047bd1acab7c048c2ae5a07a9e25934021cfaf0651efbd393b72141461ffff165361ffff169061ffff16a16a84ed962562151d0b903fb2863004140473380357280d5dbc434298ac45559fc2855c0d2a045a66af59655ed483a0583160ff16430340795f1536b1893659fbb9ffa023722beb2f24b5693be6b572737fed1b9d0a646f7a2658b58b5b417220e684f471111724a4f72553b4fdc9593ae22c96959961a631615ad461199161f3f6618fe07f39dbe091b64b8be6a557a93bf2c25dd042e8c8fea4db3bd8ee5be3eabde2835e5af105600055600155600255600355600455600555600655600755600855600955600a55600b55600c55600d55600e55600f55601055601155601255601355601455601555601655601755601855601955601a55601b55601c55601d55601e5561273961c065f3",
                            "storage": {
                                "0x01": "0x2adc25665018aa1fe0e6bc666dac8fc2697ff9ba",
                                "0x02": "0x938d5c3ff280bf7efda95e66",
                                "0x03": "0x6f7a2658b5",
                                "0x04": "0x9582ced6097ae8d75cb9cac205753dd88202d5d36541f1b1bb9c1446739e0d01",
                                "0x05": "0xf5e2c2",
                                "0x07": "0x20e684f471111724a4f72553b4fdc9593ae22c",
                                "0x08": "0x64",
                                "0x09": "0x413ed4a9b16e7d66a17b07730188a08fa9e6148100f0311ea269ecc5",
                                "0x0a": "0x380357280d5dbc434298ac45559fc2855c0d2a04",
                                "0x0b": "0xff71f169745e90c52a629bbd2242461ac86f724e086e44c0e84cc5ebcccbfef8",
                                "0x0c": "0x149afa7a18bf9c2d796de03773e0d35c9a",
                                "0x0d": "0xcbfff9f42e22612e938809af2674b0cedc8548f47ee642097c0c4abc9bf7c76b",
                                "0x0e": "0x938d5c3ff280bf7efda95e66",
                                "0x0f": "0x0a",
                                "0x10": "0x03e4",
                                "0x13": "0xb46eb2f2d66ee0b4c6845455e9c5eeff0218",
                                "0x14": "0x01",
                                "0x15": "0x0a",
                                "0x17": "0xa168",
                                "0x18": "0xff112233445566",
                                "0x19": "0x66120b1a7a97c93a6a04bd493f4a",
                                "0x1a": "0x27e1dc4c54400e52ab133f162c6df107151d11",
                                "0x1b": "0x89cc6512f8d604e5d0656c17f2d45b916df6816a1999719f2b",
                                "0x1d": "0xff112233445566",
                                "0x1e": "0x471b70dec306fa6142ce"
                            }
                        },
                        "0xf2c25dd042e8c8fea4db3bd8ee5be3eabde2835e": {
                            "nonce": "0x00",
                            "balance": "0x8fe0",
                            "code": "0x",
                            "storage": {}
                        },
                        "0x2adc25665018aa1fe0e6bc666dac8fc2697ff9ba": {
                            "nonce": "0x00",
                            "balance": "0x06ca94b8",
                            "code": "0x",
                            "storage": {}
                        }
                    }
                }
            ]
        },
        "config": {
            "blobSchedule": {
                "Cancun": {
                    "target": "0x03",
                    "max": "0x06",
                    "baseFeeUpdateFraction": "0x32f0ed"
                },
                "Prague": {
                    "target": "0x06",
                    "max": "0x09",
                    "baseFeeUpdateFraction": "0x4c6964"
                },
                "Osaka": {
                    "target": "0x06",
                    "max": "0x09",
                    "baseFeeUpdateFraction": "0x4c6964"
                }
            },
            "chainid": "0x01"
        },
        "_info": {
            "hash": "0xac7c67558662fac73230555e65f842a9d07d5b85f773f47373e836895495b949",
            "comment": "`execution-spec-tests` generated test",
            "filling-transition-tool": "ethereum-spec-evm-resolver 0.0.5",
            "description": "No description available - add a docstring to the python test class or function.",
            "url": "",
            "fixture-format": "state_test",
            "eels-resolution": {
                "git-url": "https://github.com/ethereum/execution-specs.git",
                "branch": "forks/bpos",
                "commit": "7aacb2c54111391af5e98c505d5010b5698a770f"
            }
        }
    },
    "tests/static/state_tests/stRandom/randomStatetest384Filler.yml::randomStatetest384[fork_Prague-state_test-]": {
        "env": {
            "currentCoinbase": "0x2adc25665018aa1fe0e6bc666dac8fc2697ff9ba",
            "currentGasLimit": "0xff112233445566",
            "currentNumber": "0x01",
            "currentTimestamp": "0x03e8",
            "currentRandom": "0x0000000000000000000000000000000000000000000000000000000000020000",
            "currentDifficulty": "0x00",
            "currentBaseFee": "0x0a",
            "currentExcessBlobGas": "0x00"
        },
        "pre": {
            "0x8a0a30ae1014c226093a9dcefaec7fa430ef43f9": {
                "nonce": "0x01",
                "balance": "0x3635c9adc5dea00000",
                "code": "0x",
                "storage": {}
            },
            "0x24f9ee3b12bb144b30546d19a2e6c4dc64bf47c5": {
                "nonce": "0x01",
                "balance": "0x0de0b6b3a7640000",
                "code": "0x786675a4758d443dbff535f034a4eda729a6ffc1e59f674e0c553b655d7974272ac76e18ce2014249172572ed5eac0b9d2e461ffff169061ffff16a033114861c0cd619fe161a9bb61ad137f4d84673d975d1811374a239ef14ee26532d643cc4dd6e9115e28815562c2eb945af46c513376bc288aa1fdb973c149cd143b7889cc6512f8d604e5d0656c17f2d45b916df6816a1999719f2b71d521394f07100138b341f1debc06c3fb3cbc600116586008015760cb505b7227e1dc4c54400e52ab133f162c6df107151d1145939445807e5153417e8ff00d138f0dffc0cd79ced2ececd6f0dce826302e4129cb6c37ab43415b6145c16173ce6152a9610c307fa5d352916626fe6be4aa6ef0e7634db7909fd79752e5bcb504b358d36af708495af461ffff169061ffff16a26ce900f727806828f5ee6088ebf861ffff165170015c1269fa9f5387ab7387a81f5190564098601f9471b46eb2f2d66ee0b4c6845455e9c5eeff021875bae1d66f6cb6213c6ce69859f1046ae4cb5e5b743ab76d66120b1a7a97c93a6a04bd493f4a07963d0b69471b70dec306fa6142ce9c60ff164303406aa04ea7e0bd9d9cda29962b05067246ce83ab26762d5e2cfb614aa2394ad1d70ea938856b938d5c3ff280bf7efda95e668a70149afa7a18bf9c2d796de03773e0d35c9a7e8e0e968ba16f3ad59d6442ddbdb9e537908db1f791bb3f17b33a14333401071961a1689c7b413ed4a9b16e7d66a17b07730188a08fa9e6148100f0311ea269ecc588607d7fcbfff9f42e22612e938809af2674b0cedc8548f47ee642097c0c4abc9bf7c76b9678996410d0bf28e5e3e1b35b37ffce70e346e013d5345494d47690334261771761abae6174fd61f1957f1396b439a0049676213fd1ff8b75232dbd2117c0c5dcc184d76e2534ea9628ac5af4863a9761ffff169061ffff16a07e486085a7047bd1acab7c048c2ae5a07a9e25934021cfaf0651efbd393b72141461ffff165361ffff169061ffff16a16a84ed962562151d0b903fb2863004140473380357280d5dbc434298ac45559fc2855c0d2a045a66af59655ed483a0583160ff16430340795f1536b1893659fbb9ffa023722beb2f24b5693be6b572737fed1b9d0a646f7a2658b58b5b417220e684f471111724a4f72553b4fdc9593ae22c96959961a631615ad461199161f3f6618fe07f39dbe091b64b8be6a557a93bf2c25dd042e8c8fea4db3bd8ee5be3eabde2835e5af105600055600155600255600355600455600555600655600755600855600955600a55600b55600c55600d55600e55600f55601055601155601255601355601455601555601655601755601855601955601a55601b55601c55601d55601e5561273961c065f3",
                "storage": {}
            }
        },
        "transaction": {
            "nonce": "0x01",
            "gasPrice": "0x64",
            "gasLimit": [
                "0x01000000"
            ],
            "to": "0x24f9ee3b12bb144b30546d19a2e6c4dc64bf47c5",
            "value": [
                "0x00"
            ],
            "data": [
                "0x"
            ],
            "sender": "0x8a0a30ae1014c226093a9dcefaec7fa430ef43f9",
            "secretKey": "0xb3062a5905664a16e5f4c1bf24f9ee3b12bb144b30546d19a2e6c4dc64bf47c5"
        },
        "post": {
            "Prague": [
                {
                    "hash": "0x60499e489e266ad4b29f5cebb012a599daeff56361514264b3624b26716395d3",
                    "logs": "0x6a546109da3a74c1857e767f46b055c1624c55df2cf4647a3e300fac10033774",
                    "txbytes": "0xf861016484010000009424f9ee3b12bb144b30546d19a2e6c4dc64bf47c5808026a0057179a9a72c76b28886fd1c21d6fcce2e7ca144f31f75339bd57d49a8144934a02bc8760558a7a70d04963dcbb99de61155c4ad2164cba8f8c200c9a5ad2903ed",
                    "indexes": {
                        "data": 0,
                        "gas": 0,
                        "value": 0
                    },
                    "state": {
                        "0x8a0a30ae1014c226093a9dcefaec7fa430ef43f9": {
                            "nonce": "0x02",
                            "balance": "0x3635c9adc5d7143e50",
                            "code": "0x",
                            "storage": {}
                        },
                        "0x24f9ee3b12bb144b30546d19a2e6c4dc64bf47c5": {
                            "nonce": "0x01",
                            "balance": "0x0de0b6b3a7637020",
                            "code": "0x786675a4758d443dbff535f034a4eda729a6ffc1e59f674e0c553b655d7974272ac76e18ce2014249172572ed5eac0b9d2e461ffff169061ffff16a033114861c0cd619fe161a9bb61ad137f4d84673d975d1811374a239ef14ee26532d643cc4dd6e9115e28815562c2eb945af46c513376bc288aa1fdb973c149cd143b7889cc6512f8d604e5d0656c17f2d45b916df6816a1999719f2b71d521394f07100138b341f1debc06c3fb3cbc600116586008015760cb505b7227e1dc4c54400e52ab133f162c6df107151d1145939445807e5153417e8ff00d138f0dffc0cd79ced2ececd6f0dce826302e4129cb6c37ab43415b6145c16173ce6152a9610c307fa5d352916626fe6be4aa6ef0e7634db7909fd79752e5bcb504b358d36af708495af461ffff169061ffff16a26ce900f727806828f5ee6088ebf861ffff165170015c1269fa9f5387ab7387a81f5190564098601f9471b46eb2f2d66ee0b4c6845455e9c5eeff021875bae1d66f6cb6213c6ce69859f1046ae4cb5e5b743ab76d66120b1a7a97c93a6a04bd493f4a07963d0b69471b70dec306fa6142ce9c60ff164303406aa04ea7e0bd9d9cda29962b05067246ce83ab26762d5e2cfb614aa2394ad1d70ea938856b938d5c3ff280bf7efda95e668a70149afa7a18bf9c2d796de03773e0d35c9a7e8e0e968ba16f3ad59d6442ddbdb9e537908db1f791bb3f17b33a14333401071961a1689c7b413ed4a9b16e7d66a17b07730188a08fa9e6148100f0311ea269ecc588607d7fcbfff9f42e22612e938809af2674b0cedc8548f47ee642097c0c4abc9bf7c76b9678996410d0bf28e5e3e1b35b37ffce70e346e013d5345494d47690334261771761abae6174fd61f1957f1396b439a0049676213fd1ff8b75232dbd2117c0c5dcc184d76e2534ea9628ac5af4863a9761ffff169061ffff16a07e486085a7047bd1acab7c048c2ae5a07a9e25934021cfaf0651efbd393b72141461ffff165361ffff169061ffff16a16a84ed962562151d0b903fb2863004140473380357280d5dbc434298ac45559fc2855c0d2a045a66af59655ed483a0583160ff16430340795f1536b1893659fbb9ffa023722beb2f24b5693be6b572737fed1b9d0a646f7a2658b58b5b417220e684f471111724a4f72553b4fdc9593ae22c96959961a631615ad461199161f3f6618fe07f39dbe091b64b8be6a557a93bf2c25dd042e8c8fea4db3bd8ee5be3eabde2835e5af105600055600155600255600355600455600555600655600755600855600955600a55600b55600c55600d55600e55600f55601055601155601255601355601455601555601655601755601855601955601a55601b55601c55601d55601e5561273961c065f3",
                            "storage": {
                                "0x01": "0x2adc25665018aa1fe0e6bc666dac8fc2697ff9ba",
                                "0x02": "0x938d5c3ff280bf7efda95e66",
                                "0x03": "0x6f7a2658b5",
                                "0x04": "0x9582ced6097ae8d75cb9cac205753dd88202d5d36541f1b1bb9c1446739e0d01",
                                "0x05": "0xf5e2c2",
                                "0x07": "0x20e684f471111724a4f72553b4fdc9593ae22c",
                                "0x08": "0x64",
                                "0x09": "0x413ed4a9b16e7d66a17b07730188a08fa9e6148100f0311ea269ecc5",
                                "0x0a": "0x380357280d5dbc434298ac45559fc2855c0d2a04",
                                "0x0b": "0xff71f169745e90c52a629bbd2242461ac86f724e086e44c0e84cc5ebcccbfef8",
                                "0x0c": "0x149afa7a18bf9c2d796de03773e0d35c9a",
                                "0x0d": "0xcbfff9f42e22612e938809af2674b0cedc8548f47ee642097c0c4abc9bf7c76b",
                                "0x0e": "0x938d5c3ff280bf7efda95e66",
                                "0x0f": "0x0a",
                                "0x10": "0x03e4",
                                "0x13": "0xb46eb2f2d66ee0b4c6845455e9c5eeff0218",
                                "0x14": "0x01",
                                "0x15": "0x0a",
                                "0x17": "0xa168",
                                "0x18": "0xff112233445566",
                                "0x19": "0x66120b1a7a97c93a6a04bd493f4a",
                                "0x1a": "0x27e1dc4c54400e52ab133f162c6df107151d11",
                                "0x1b": "0x89cc6512f8d604e5d0656c17f2d45b916df6816a1999719f2b",
                                "0x1d": "0xff112233445566",
                                "0x1e": "0x471b70dec306fa6142ce"
                            }
                        },
                        "0xf2c25dd042e8c8fea4db3bd8ee5be3eabde2835e": {
                            "nonce": "0x00",
                            "balance": "0x8fe0",
                            "code": "0x",
                            "storage": {}
                        },
                        "0x2adc25665018aa1fe0e6bc666dac8fc2697ff9ba": {
                            "nonce": "0x00",
                            "balance": "0x06ca94b8",
                            "code": "0x",
                            "storage": {}
                        }
                    }
                }
            ]
        },
        "config": {
            "blobSchedule": {
                "Cancun": {
                    "target": "0x03",
                    "max": "0x06",
                    "baseFeeUpdateFraction": "0x32f0ed"
                },
                "Prague": {
                    "target": "0x06",
                    "max": "0x09",
                    "baseFeeUpdateFraction": "0x4c6964"
                }
            },
            "chainid": "0x01"
        },
        "_info": {
            "hash": "0xc640acc45845078ab81e2f42cfbce4827807463fd726a12cd5d611ed35e75932",
            "comment": "`execution-spec-tests` generated test",
            "filling-transition-tool": "ethereum-spec-evm-resolver 0.0.5",
            "description": "No description available - add a docstring to the python test class or function.",
            "url": "",
            "fixture-format": "state_test",
            "eels-resolution": {
                "git-url": "https://github.com/ethereum/execution-specs.git",
                "branch": "forks/bpos",
                "commit": "7aacb2c54111391af5e98c505d5010b5698a770f"
            }
        }
    }
}