{
    "tests/static/state_tests/stRandom/randomStatetest175Filler.json::randomStatetest175[fork_Cancun-state_test-]": {
        "env": {
            "currentCoinbase": "0x776e1fc214f60ef8f7a7f441fe299eb97d3aea59",
            "currentGasLimit": "0x7fffffffffffffff",
            "currentNumber": "0x01",
            "currentTimestamp": "0x03e8",
            "currentRandom": "0x0000000000000000000000000000000000000000000000000000000000020000",
            "currentDifficulty": "0x00",
            "currentBaseFee": "0x0a",
            "currentExcessBlobGas": "0x00"
        },
        "pre": {
            "0xa37fe4189496aea9b3ba2e3278774ce9a02317ba": {
                "nonce": "0x00",
                "balance": "0x0de0b6b3a7640000",
                "code": "0x",
                "storage": {}
            },
            "0x776e1fc214f60ef8f7a7f441fe299eb97d3aea59": {
                "nonce": "0x00",
                "balance": "0x2e",
                "code": "0x6000355415600957005b60203560003555",
                "storage": {}
            },
            "0x776e1fc214f60ef8f7a7f441fe299eb97d3aeb59": {
                "nonce": "0x00",
                "balance": "0x00",
                "code": "0x7f000000000000000000000000ffffffffffffffffffffffffffffffffffffffff7f000000000000000000000000ffffffffffffffffffffffffffffffffffffffff7fffffffffffffffffffffffffffffffffffffffffffffffffffffffffffffffff7f000000000000000000000000000000000000000000000000000000000000c3507f00000000000000000000000100000000000000000000000000000000000000007f000000000000000000000000ffffffffffffffffffffffffffffffffffffffff7f000000000000000000000000ffffffffffffffffffffffffffffffffffffffff7f000000000000000000000000000000000000000000000000000000000000c3506f6985f2837e09689844171a0235833c5560005155",
                "storage": {}
            }
        },
        "transaction": {
            "nonce": "0x00",
            "gasPrice": "0x0a",
            "gasLimit": [
                "0x0186a0"
            ],
            "to": "0x776e1fc214f60ef8f7a7f441fe299eb97d3aeb59",
            "value": [
                "0x7f8a09b6"
            ],
            "data": [
                "0x7f000000000000000000000000ffffffffffffffffffffffffffffffffffffffff7f000000000000000000000000ffffffffffffffffffffffffffffffffffffffff7fffffffffffffffffffffffffffffffffffffffffffffffffffffffffffffffff7f000000000000000000000000000000000000000000000000000000000000c3507f00000000000000000000000100000000000000000000000000000000000000007f000000000000000000000000ffffffffffffffffffffffffffffffffffffffff7f000000000000000000000000ffffffffffffffffffffffffffffffffffffffff7f000000000000000000000000000000000000000000000000000000000000c3506f6985f2837e09689844171a0235833c"
            ],
            "sender": "0xa37fe4189496aea9b3ba2e3278774ce9a02317ba",
            "secretKey": "0x15b8173cd6cd4df46c6770ba776e1fc214f60ef8f7a7f441fe299eb97d3aea59"
        },
        "post": {
            "Cancun": [
                {
                    "hash": "0x858563a7b321a413f6e94ade984dd62341462a41cab0873300a4f6fa73c835f2",
                    "logs": "0x1dcc4de8dec75d7aab85b567b6ccd41ad312451b948a7413f0a142fd40d49347",
                    "txbytes": "0xf9017e800a830186a094776e1fc214f60ef8f7a7f441fe299eb97d3aeb59847f8a09b6b901187f000000000000000000000000ffffffffffffffffffffffffffffffffffffffff7f000000000000000000000000ffffffffffffffffffffffffffffffffffffffff7fffffffffffffffffffffffffffffffffffffffffffffffffffffffffffffffff7f000000000000000000000000000000000000000000000000000000000000c3507f00000000000000000000000100000000000000000000000000000000000000007f000000000000000000000000ffffffffffffffffffffffffffffffffffffffff7f000000000000000000000000ffffffffffffffffffffffffffffffffffffffff7f000000000000000000000000000000000000000000000000000000000000c3506f6985f2837e09689844171a0235833c26a0a1cb7a5d943df49bdfa6213db3c68c6fa2beb856b2caf9dbdcd1cbab1577fe08a01d75c5614607c1095667e7bb3d561084fbd7eda7aba3c3546d73b48c6aabd78b",
                    "indexes": {
                        "data": 0,
                        "gas": 0,
                        "value": 0
                    },
                    "state": {
                        "0xa37fe4189496aea9b3ba2e3278774ce9a02317ba": {
                            "nonce": "0x01",
                            "balance": "0x0de0b6b327d2f372",
                            "code": "0x",
                            "storage": {}
                        },
                        "0x776e1fc214f60ef8f7a7f441fe299eb97d3aea59": {
                            "nonce": "0x00",
                            "balance": "0x2e",
                            "code": "0x6000355415600957005b60203560003555",
                            "storage": {}
                        },
                        "0x776e1fc214f60ef8f7a7f441fe299eb97d3aeb59": {
                            "nonce": "0x00",
                            "balance": "0x7f8a09b6",
                            "code": "0x7f000000000000000000000000ffffffffffffffffffffffffffffffffffffffff7f000000000000000000000000ffffffffffffffffffffffffffffffffffffffff7fffffffffffffffffffffffffffffffffffffffffffffffffffffffffffffffff7f000000000000000000000000000000000000000000000000000000000000c3507f00000000000000000000000100000000000000000000000000000000000000007f000000000000000000000000ffffffffffffffffffffffffffffffffffffffff7f000000000000000000000000ffffffffffffffffffffffffffffffffffffffff7f000000000000000000000000000000000000000000000000000000000000c3506f6985f2837e09689844171a0235833c5560005155",
                            "storage": {
                                "0x00": "0x6985f2837e09689844171a0235833c55"
                            }
                        }
                    }
                }
            ]
        },
        "config": {
            "blobSchedule": {
                "Cancun": {
                    "target": "0x03",
                    "max": "0x06",
                    "baseFeeUpdateFraction": "0x32f0ed"
                }
            },
            "chainid": "0x01"
        },
        "_info": {
            "hash": "0xa1a29143ff0b504120167058476824fc0eece4b23228746beea285dc7aad9181",
            "comment": "`execution-specs` generated test",
            "filling-transition-tool": "2.18.0rc6",
            "description": "No description available - add a docstring to the python test class or function.",
            "url": "",
            "fixture-format": "state_test"
        }
    },
    "tests/static/state_tests/stRandom/randomStatetest175Filler.json::randomStatetest175[fork_Osaka-state_test-]": {
        "env": {
            "currentCoinbase": "0x776e1fc214f60ef8f7a7f441fe299eb97d3aea59",
            "currentGasLimit": "0x7fffffffffffffff",
            "currentNumber": "0x01",
            "currentTimestamp": "0x03e8",
            "currentRandom": "0x0000000000000000000000000000000000000000000000000000000000020000",
            "currentDifficulty": "0x00",
            "currentBaseFee": "0x0a",
            "currentExcessBlobGas": "0x00"
        },
        "pre": {
            "0xa37fe4189496aea9b3ba2e3278774ce9a02317ba": {
                "nonce": "0x00",
                "balance": "0x0de0b6b3a7640000",
                "code": "0x",
                "storage": {}
            },
            "0x776e1fc214f60ef8f7a7f441fe299eb97d3aea59": {
                "nonce": "0x00",
                "balance": "0x2e",
                "code": "0x6000355415600957005b60203560003555",
                "storage": {}
            },
            "0x776e1fc214f60ef8f7a7f441fe299eb97d3aeb59": {
                "nonce": "0x00",
                "balance": "0x00",
                "code": "0x7f000000000000000000000000ffffffffffffffffffffffffffffffffffffffff7f000000000000000000000000ffffffffffffffffffffffffffffffffffffffff7fffffffffffffffffffffffffffffffffffffffffffffffffffffffffffffffff7f000000000000000000000000000000000000000000000000000000000000c3507f00000000000000000000000100000000000000000000000000000000000000007f000000000000000000000000ffffffffffffffffffffffffffffffffffffffff7f000000000000000000000000ffffffffffffffffffffffffffffffffffffffff7f000000000000000000000000000000000000000000000000000000000000c3506f6985f2837e09689844171a0235833c5560005155",
                "storage": {}
            }
        },
        "transaction": {
            "nonce": "0x00",
            "gasPrice": "0x0a",
            "gasLimit": [
                "0x0186a0"
            ],
            "to": "0x776e1fc214f60ef8f7a7f441fe299eb97d3aeb59",
            "value": [
                "0x7f8a09b6"
            ],
            "data": [
                "0x7f000000000000000000000000ffffffffffffffffffffffffffffffffffffffff7f000000000000000000000000ffffffffffffffffffffffffffffffffffffffff7fffffffffffffffffffffffffffffffffffffffffffffffffffffffffffffffff7f000000000000000000000000000000000000000000000000000000000000c3507f00000000000000000000000100000000000000000000000000000000000000007f000000000000000000000000ffffffffffffffffffffffffffffffffffffffff7f000000000000000000000000ffffffffffffffffffffffffffffffffffffffff7f000000000000000000000000000000000000000000000000000000000000c3506f6985f2837e09689844171a0235833c"
            ],
            "sender": "0xa37fe4189496aea9b3ba2e3278774ce9a02317ba",
            "secretKey": "0x15b8173cd6cd4df46c6770ba776e1fc214f60ef8f7a7f441fe299eb97d3aea59"
        },
        "post": {
            "Osaka": [
                {
                    "hash": "0x858563a7b321a413f6e94ade984dd62341462a41cab0873300a4f6fa73c835f2",
                    "logs": "0x1dcc4de8dec75d7aab85b567b6ccd41ad312451b948a7413f0a142fd40d49347",
                    "txbytes": "0xf9017e800a830186a094776e1fc214f60ef8f7a7f441fe299eb97d3aeb59847f8a09b6b901187f000000000000000000000000ffffffffffffffffffffffffffffffffffffffff7f000000000000000000000000ffffffffffffffffffffffffffffffffffffffff7fffffffffffffffffffffffffffffffffffffffffffffffffffffffffffffffff7f000000000000000000000000000000000000000000000000000000000000c3507f00000000000000000000000100000000000000000000000000000000000000007f000000000000000000000000ffffffffffffffffffffffffffffffffffffffff7f000000000000000000000000ffffffffffffffffffffffffffffffffffffffff7f000000000000000000000000000000000000000000000000000000000000c3506f6985f2837e09689844171a0235833c26a0a1cb7a5d943df49bdfa6213db3c68c6fa2beb856b2caf9dbdcd1cbab1577fe08a01d75c5614607c1095667e7bb3d561084fbd7eda7aba3c3546d73b48c6aabd78b",
                    "indexes": {
                        "data": 0,
                        "gas": 0,
                        "value": 0
                    },
                    "state": {
                        "0xa37fe4189496aea9b3ba2e3278774ce9a02317ba": {
                            "nonce": "0x01",
                            "balance": "0x0de0b6b327d2f372",
                            "code": "0x",
                            "storage": {}
                        },
                        "0x776e1fc214f60ef8f7a7f441fe299eb97d3aea59": {
                            "nonce": "0x00",
                            "balance": "0x2e",
                            "code": "0x6000355415600957005b60203560003555",
                            "storage": {}
                        },
                        "0x776e1fc214f60ef8f7a7f441fe299eb97d3aeb59": {
                            "nonce": "0x00",
                            "balance": "0x7f8a09b6",
                            "code": "0x7f000000000000000000000000ffffffffffffffffffffffffffffffffffffffff7f000000000000000000000000ffffffffffffffffffffffffffffffffffffffff7fffffffffffffffffffffffffffffffffffffffffffffffffffffffffffffffff7f000000000000000000000000000000000000000000000000000000000000c3507f00000000000000000000000100000000000000000000000000000000000000007f000000000000000000000000ffffffffffffffffffffffffffffffffffffffff7f000000000000000000000000ffffffffffffffffffffffffffffffffffffffff7f000000000000000000000000000000000000000000000000000000000000c3506f6985f2837e09689844171a0235833c5560005155",
                            "storage": {
                                "0x00": "0x6985f2837e09689844171a0235833c55"
                            }
                        }
                    }
                }
            ]
        },
        "config": {
            "blobSchedule": {
                "Cancun": {
                    "target": "0x03",
                    "max": "0x06",
                    "baseFeeUpdateFraction": "0x32f0ed"
                },
                "Prague": {
                    "target": "0x06",
                    "max": "0x09",
                    "baseFeeUpdateFraction": "0x4c6964"
                },
                "Osaka": {
                    "target": "0x06",
                    "max": "0x09",
                    "baseFeeUpdateFraction": "0x4c6964"
                }
            },
            "chainid": "0x01"
        },
        "_info": {
            "hash": "0x4851d6950a1f5d78ea2e949a8ea5b896f9f5070fbff06c7ea181b40c870f5448",
            "comment": "`execution-specs` generated test",
            "filling-transition-tool": "2.18.0rc6",
            "description": "No description available - add a docstring to the python test class or function.",
            "url": "",
            "fixture-format": "state_test"
        }
    },
    "tests/static/state_tests/stRandom/randomStatetest175Filler.json::randomStatetest175[fork_Prague-state_test-]": {
        "env": {
            "currentCoinbase": "0x776e1fc214f60ef8f7a7f441fe299eb97d3aea59",
            "currentGasLimit": "0x7fffffffffffffff",
            "currentNumber": "0x01",
            "currentTimestamp": "0x03e8",
            "currentRandom": "0x0000000000000000000000000000000000000000000000000000000000020000",
            "currentDifficulty": "0x00",
            "currentBaseFee": "0x0a",
            "currentExcessBlobGas": "0x00"
        },
        "pre": {
            "0xa37fe4189496aea9b3ba2e3278774ce9a02317ba": {
                "nonce": "0x00",
                "balance": "0x0de0b6b3a7640000",
                "code": "0x",
                "storage": {}
            },
            "0x776e1fc214f60ef8f7a7f441fe299eb97d3aea59": {
                "nonce": "0x00",
                "balance": "0x2e",
                "code": "0x6000355415600957005b60203560003555",
                "storage": {}
            },
            "0x776e1fc214f60ef8f7a7f441fe299eb97d3aeb59": {
                "nonce": "0x00",
                "balance": "0x00",
                "code": "0x7f000000000000000000000000ffffffffffffffffffffffffffffffffffffffff7f000000000000000000000000ffffffffffffffffffffffffffffffffffffffff7fffffffffffffffffffffffffffffffffffffffffffffffffffffffffffffffff7f000000000000000000000000000000000000000000000000000000000000c3507f00000000000000000000000100000000000000000000000000000000000000007f000000000000000000000000ffffffffffffffffffffffffffffffffffffffff7f000000000000000000000000ffffffffffffffffffffffffffffffffffffffff7f000000000000000000000000000000000000000000000000000000000000c3506f6985f2837e09689844171a0235833c5560005155",
                "storage": {}
            }
        },
        "transaction": {
            "nonce": "0x00",
            "gasPrice": "0x0a",
            "gasLimit": [
                "0x0186a0"
            ],
            "to": "0x776e1fc214f60ef8f7a7f441fe299eb97d3aeb59",
            "value": [
                "0x7f8a09b6"
            ],
            "data": [
                "0x7f000000000000000000000000ffffffffffffffffffffffffffffffffffffffff7f000000000000000000000000ffffffffffffffffffffffffffffffffffffffff7fffffffffffffffffffffffffffffffffffffffffffffffffffffffffffffffff7f000000000000000000000000000000000000000000000000000000000000c3507f00000000000000000000000100000000000000000000000000000000000000007f000000000000000000000000ffffffffffffffffffffffffffffffffffffffff7f000000000000000000000000ffffffffffffffffffffffffffffffffffffffff7f000000000000000000000000000000000000000000000000000000000000c3506f6985f2837e09689844171a0235833c"
            ],
            "sender": "0xa37fe4189496aea9b3ba2e3278774ce9a02317ba",
            "secretKey": "0x15b8173cd6cd4df46c6770ba776e1fc214f60ef8f7a7f441fe299eb97d3aea59"
        },
        "post": {
            "Prague": [
                {
                    "hash": "0x858563a7b321a413f6e94ade984dd62341462a41cab0873300a4f6fa73c835f2",
                    "logs": "0x1dcc4de8dec75d7aab85b567b6ccd41ad312451b948a7413f0a142fd40d49347",
                    "txbytes": "0xf9017e800a830186a094776e1fc214f60ef8f7a7f441fe299eb97d3aeb59847f8a09b6b901187f000000000000000000000000ffffffffffffffffffffffffffffffffffffffff7f000000000000000000000000ffffffffffffffffffffffffffffffffffffffff7fffffffffffffffffffffffffffffffffffffffffffffffffffffffffffffffff7f000000000000000000000000000000000000000000000000000000000000c3507f00000000000000000000000100000000000000000000000000000000000000007f000000000000000000000000ffffffffffffffffffffffffffffffffffffffff7f000000000000000000000000ffffffffffffffffffffffffffffffffffffffff7f000000000000000000000000000000000000000000000000000000000000c3506f6985f2837e09689844171a0235833c26a0a1cb7a5d943df49bdfa6213db3c68c6fa2beb856b2caf9dbdcd1cbab1577fe08a01d75c5614607c1095667e7bb3d561084fbd7eda7aba3c3546d73b48c6aabd78b",
                    "indexes": {
                        "data": 0,
                        "gas": 0,
                        "value": 0
                    },
                    "state": {
                        "0xa37fe4189496aea9b3ba2e3278774ce9a02317ba": {
                            "nonce": "0x01",
                            "balance": "0x0de0b6b327d2f372",
                            "code": "0x",
                            "storage": {}
                        },
                        "0x776e1fc214f60ef8f7a7f441fe299eb97d3aea59": {
                            "nonce": "0x00",
                            "balance": "0x2e",
                            "code": "0x6000355415600957005b60203560003555",
                            "storage": {}
                        },
                        "0x776e1fc214f60ef8f7a7f441fe299eb97d3aeb59": {
                            "nonce": "0x00",
                            "balance": "0x7f8a09b6",
                            "code": "0x7f000000000000000000000000ffffffffffffffffffffffffffffffffffffffff7f000000000000000000000000ffffffffffffffffffffffffffffffffffffffff7fffffffffffffffffffffffffffffffffffffffffffffffffffffffffffffffff7f000000000000000000000000000000000000000000000000000000000000c3507f00000000000000000000000100000000000000000000000000000000000000007f000000000000000000000000ffffffffffffffffffffffffffffffffffffffff7f000000000000000000000000ffffffffffffffffffffffffffffffffffffffff7f000000000000000000000000000000000000000000000000000000000000c3506f6985f2837e09689844171a0235833c5560005155",
                            "storage": {
                                "0x00": "0x6985f2837e09689844171a0235833c55"
                            }
                        }
                    }
                }
            ]
        },
        "config": {
            "blobSchedule": {
                "Cancun": {
                    "target": "0x03",
                    "max": "0x06",
                    "baseFeeUpdateFraction": "0x32f0ed"
                },
                "Prague": {
                    "target": "0x06",
                    "max": "0x09",
                    "baseFeeUpdateFraction": "0x4c6964"
                }
            },
            "chainid": "0x01"
        },
        "_info": {
            "hash": "0xbd906af73e0d22d191cf4fa6698ea23819ec1d063310cb4e16f606484a7740cb",
            "comment": "`execution-specs` generated test",
            "filling-transition-tool": "2.18.0rc6",
            "description": "No description available - add a docstring to the python test class or function.",
            "url": "",
            "fixture-format": "state_test"
        }
    }
}