{
    "tests/static/state_tests/stRandom/randomStatetest210Filler.json::randomStatetest210[fork_Cancun-state_test-]": {
        "env": {
            "currentCoinbase": "0x9dcc499798dcea235188ab8cc9ca42279605bcab",
            "currentGasLimit": "0x7fffffffffffffff",
            "currentNumber": "0x01",
            "currentTimestamp": "0x03e8",
            "currentRandom": "0x0000000000000000000000000000000000000000000000000000000000020000",
            "currentDifficulty": "0x00",
            "currentBaseFee": "0x0a",
            "currentExcessBlobGas": "0x00"
        },
        "pre": {
            "0xeea753520fd92565d94479a4c4073d71308bd0f9": {
                "nonce": "0x00",
                "balance": "0x0de0b6b3a7640000",
                "code": "0x",
                "storage": {}
            },
            "0x9dcc499798dcea235188ab8cc9ca42279605bcab": {
                "nonce": "0x00",
                "balance": "0x2e",
                "code": "0x6000355415600957005b60203560003555",
                "storage": {}
            },
            "0x9dcc499798dcea235188ab8cc9ca42279605bdab": {
                "nonce": "0x00",
                "balance": "0x00",
                "code": "0x457f000000000000000000000000ffffffffffffffffffffffffffffffffffffffff7f00000000000000000000000000000000000000000000000000000000000000007f000000000000000000000000ffffffffffffffffffffffffffffffffffffffff427ffffffffffffffffffffffffffffffffffffffffffffffffffffffffffffffffe7f00000000000000000000000100000000000000000000000000000000000000007f000000000000000000000000ffffffffffffffffffffffffffffffffffffffff0960005155",
                "storage": {}
            }
        },
        "transaction": {
            "nonce": "0x00",
            "gasPrice": "0x0a",
            "gasLimit": [
                "0x0186a0"
            ],
            "to": "0x9dcc499798dcea235188ab8cc9ca42279605bdab",
            "value": [
                "0x6a1b0d6a"
            ],
            "data": [
                "0x457f000000000000000000000000ffffffffffffffffffffffffffffffffffffffff7f00000000000000000000000000000000000000000000000000000000000000007f000000000000000000000000ffffffffffffffffffffffffffffffffffffffff427ffffffffffffffffffffffffffffffffffffffffffffffffffffffffffffffffe7f00000000000000000000000100000000000000000000000000000000000000007f000000000000000000000000ffffffffffffffffffffffffffffffffffffffff09"
            ],
            "sender": "0xeea753520fd92565d94479a4c4073d71308bd0f9",
            "secretKey": "0x3f991cd99254a8277f1a22e99dcc499798dcea235188ab8cc9ca42279605bcab"
        },
        "post": {
            "Cancun": [
                {
                    "hash": "0x4239be483e592bb75d0db4b2853592bd86add478cfc7d95f652f3d49646a2588",
                    "logs": "0x1dcc4de8dec75d7aab85b567b6ccd41ad312451b948a7413f0a142fd40d49347",
                    "txbytes": "0xf9012e800a830186a0949dcc499798dcea235188ab8cc9ca42279605bdab846a1b0d6ab8c9457f000000000000000000000000ffffffffffffffffffffffffffffffffffffffff7f00000000000000000000000000000000000000000000000000000000000000007f000000000000000000000000ffffffffffffffffffffffffffffffffffffffff427ffffffffffffffffffffffffffffffffffffffffffffffffffffffffffffffffe7f00000000000000000000000100000000000000000000000000000000000000007f000000000000000000000000ffffffffffffffffffffffffffffffffffffffff0925a02cdde6d6ac689f8514efa866463ca806d749d1c011678d5dfb8deadfb483fc43a033f0f0566848001b4abff042ecdeeee9775c5d99f28279b20c212d8febda8832",
                    "indexes": {
                        "data": 0,
                        "gas": 0,
                        "value": 0
                    },
                    "state": {
                        "0xeea753520fd92565d94479a4c4073d71308bd0f9": {
                            "nonce": "0x01",
                            "balance": "0x0de0b6b33d420e40",
                            "code": "0x",
                            "storage": {}
                        },
                        "0x9dcc499798dcea235188ab8cc9ca42279605bcab": {
                            "nonce": "0x00",
                            "balance": "0x2e",
                            "code": "0x6000355415600957005b60203560003555",
                            "storage": {}
                        },
                        "0x9dcc499798dcea235188ab8cc9ca42279605bdab": {
                            "nonce": "0x00",
                            "balance": "0x6a1b0d6a",
                            "code": "0x457f000000000000000000000000ffffffffffffffffffffffffffffffffffffffff7f00000000000000000000000000000000000000000000000000000000000000007f000000000000000000000000ffffffffffffffffffffffffffffffffffffffff427ffffffffffffffffffffffffffffffffffffffffffffffffffffffffffffffffe7f00000000000000000000000100000000000000000000000000000000000000007f000000000000000000000000ffffffffffffffffffffffffffffffffffffffff0960005155",
                            "storage": {
                                "0x00": "0xffffffffffffffffffffffff000000000000000000000001fffffffffffffffe"
                            }
                        }
                    }
                }
            ]
        },
        "config": {
            "blobSchedule": {
                "Cancun": {
                    "target": "0x03",
                    "max": "0x06",
                    "baseFeeUpdateFraction": "0x32f0ed"
                }
            },
            "chainid": "0x01"
        },
        "_info": {
            "hash": "0xf521519b3432ef6e42fba6fb2443bb77305208adfcacde614bbb54c30c8ba96c",
            "comment": "`execution-specs` generated test",
            "filling-transition-tool": "2.18.0rc6",
            "description": "No description available - add a docstring to the python test class or function.",
            "url": "",
            "fixture-format": "state_test"
        }
    },
    "tests/static/state_tests/stRandom/randomStatetest210Filler.json::randomStatetest210[fork_Osaka-state_test-]": {
        "env": {
            "currentCoinbase": "0x9dcc499798dcea235188ab8cc9ca42279605bcab",
            "currentGasLimit": "0x7fffffffffffffff",
            "currentNumber": "0x01",
            "currentTimestamp": "0x03e8",
            "currentRandom": "0x0000000000000000000000000000000000000000000000000000000000020000",
            "currentDifficulty": "0x00",
            "currentBaseFee": "0x0a",
            "currentExcessBlobGas": "0x00"
        },
        "pre": {
            "0xeea753520fd92565d94479a4c4073d71308bd0f9": {
                "nonce": "0x00",
                "balance": "0x0de0b6b3a7640000",
                "code": "0x",
                "storage": {}
            },
            "0x9dcc499798dcea235188ab8cc9ca42279605bcab": {
                "nonce": "0x00",
                "balance": "0x2e",
                "code": "0x6000355415600957005b60203560003555",
                "storage": {}
            },
            "0x9dcc499798dcea235188ab8cc9ca42279605bdab": {
                "nonce": "0x00",
                "balance": "0x00",
                "code": "0x457f000000000000000000000000ffffffffffffffffffffffffffffffffffffffff7f00000000000000000000000000000000000000000000000000000000000000007f000000000000000000000000ffffffffffffffffffffffffffffffffffffffff427ffffffffffffffffffffffffffffffffffffffffffffffffffffffffffffffffe7f00000000000000000000000100000000000000000000000000000000000000007f000000000000000000000000ffffffffffffffffffffffffffffffffffffffff0960005155",
                "storage": {}
            }
        },
        "transaction": {
            "nonce": "0x00",
            "gasPrice": "0x0a",
            "gasLimit": [
                "0x0186a0"
            ],
            "to": "0x9dcc499798dcea235188ab8cc9ca42279605bdab",
            "value": [
                "0x6a1b0d6a"
            ],
            "data": [
                "0x457f000000000000000000000000ffffffffffffffffffffffffffffffffffffffff7f00000000000000000000000000000000000000000000000000000000000000007f000000000000000000000000ffffffffffffffffffffffffffffffffffffffff427ffffffffffffffffffffffffffffffffffffffffffffffffffffffffffffffffe7f00000000000000000000000100000000000000000000000000000000000000007f000000000000000000000000ffffffffffffffffffffffffffffffffffffffff09"
            ],
            "sender": "0xeea753520fd92565d94479a4c4073d71308bd0f9",
            "secretKey": "0x3f991cd99254a8277f1a22e99dcc499798dcea235188ab8cc9ca42279605bcab"
        },
        "post": {
            "Osaka": [
                {
                    "hash": "0x4239be483e592bb75d0db4b2853592bd86add478cfc7d95f652f3d49646a2588",
                    "logs": "0x1dcc4de8dec75d7aab85b567b6ccd41ad312451b948a7413f0a142fd40d49347",
                    "txbytes": "0xf9012e800a830186a0949dcc499798dcea235188ab8cc9ca42279605bdab846a1b0d6ab8c9457f000000000000000000000000ffffffffffffffffffffffffffffffffffffffff7f00000000000000000000000000000000000000000000000000000000000000007f000000000000000000000000ffffffffffffffffffffffffffffffffffffffff427ffffffffffffffffffffffffffffffffffffffffffffffffffffffffffffffffe7f00000000000000000000000100000000000000000000000000000000000000007f000000000000000000000000ffffffffffffffffffffffffffffffffffffffff0925a02cdde6d6ac689f8514efa866463ca806d749d1c011678d5dfb8deadfb483fc43a033f0f0566848001b4abff042ecdeeee9775c5d99f28279b20c212d8febda8832",
                    "indexes": {
                        "data": 0,
                        "gas": 0,
                        "value": 0
                    },
                    "state": {
                        "0xeea753520fd92565d94479a4c4073d71308bd0f9": {
                            "nonce": "0x01",
                            "balance": "0x0de0b6b33d420e40",
                            "code": "0x",
                            "storage": {}
                        },
                        "0x9dcc499798dcea235188ab8cc9ca42279605bcab": {
                            "nonce": "0x00",
                            "balance": "0x2e",
                            "code": "0x6000355415600957005b60203560003555",
                            "storage": {}
                        },
                        "0x9dcc499798dcea235188ab8cc9ca42279605bdab": {
                            "nonce": "0x00",
                            "balance": "0x6a1b0d6a",
                            "code": "0x457f000000000000000000000000ffffffffffffffffffffffffffffffffffffffff7f00000000000000000000000000000000000000000000000000000000000000007f000000000000000000000000ffffffffffffffffffffffffffffffffffffffff427ffffffffffffffffffffffffffffffffffffffffffffffffffffffffffffffffe7f00000000000000000000000100000000000000000000000000000000000000007f000000000000000000000000ffffffffffffffffffffffffffffffffffffffff0960005155",
                            "storage": {
                                "0x00": "0xffffffffffffffffffffffff000000000000000000000001fffffffffffffffe"
                            }
                        }
                    }
                }
            ]
        },
        "config": {
            "blobSchedule": {
                "Cancun": {
                    "target": "0x03",
                    "max": "0x06",
                    "baseFeeUpdateFraction": "0x32f0ed"
                },
                "Prague": {
                    "target": "0x06",
                    "max": "0x09",
                    "baseFeeUpdateFraction": "0x4c6964"
                },
                "Osaka": {
                    "target": "0x06",
                    "max": "0x09",
                    "baseFeeUpdateFraction": "0x4c6964"
                }
            },
            "chainid": "0x01"
        },
        "_info": {
            "hash": "0xf387e893cd1421864ccb9f51811a802cc5f5d35552f4632c4c0b3e0522766349",
            "comment": "`execution-specs` generated test",
            "filling-transition-tool": "2.18.0rc6",
            "description": "No description available - add a docstring to the python test class or function.",
            "url": "",
            "fixture-format": "state_test"
        }
    },
    "tests/static/state_tests/stRandom/randomStatetest210Filler.json::randomStatetest210[fork_Prague-state_test-]": {
        "env": {
            "currentCoinbase": "0x9dcc499798dcea235188ab8cc9ca42279605bcab",
            "currentGasLimit": "0x7fffffffffffffff",
            "currentNumber": "0x01",
            "currentTimestamp": "0x03e8",
            "currentRandom": "0x0000000000000000000000000000000000000000000000000000000000020000",
            "currentDifficulty": "0x00",
            "currentBaseFee": "0x0a",
            "currentExcessBlobGas": "0x00"
        },
        "pre": {
            "0xeea753520fd92565d94479a4c4073d71308bd0f9": {
                "nonce": "0x00",
                "balance": "0x0de0b6b3a7640000",
                "code": "0x",
                "storage": {}
            },
            "0x9dcc499798dcea235188ab8cc9ca42279605bcab": {
                "nonce": "0x00",
                "balance": "0x2e",
                "code": "0x6000355415600957005b60203560003555",
                "storage": {}
            },
            "0x9dcc499798dcea235188ab8cc9ca42279605bdab": {
                "nonce": "0x00",
                "balance": "0x00",
                "code": "0x457f000000000000000000000000ffffffffffffffffffffffffffffffffffffffff7f00000000000000000000000000000000000000000000000000000000000000007f000000000000000000000000ffffffffffffffffffffffffffffffffffffffff427ffffffffffffffffffffffffffffffffffffffffffffffffffffffffffffffffe7f00000000000000000000000100000000000000000000000000000000000000007f000000000000000000000000ffffffffffffffffffffffffffffffffffffffff0960005155",
                "storage": {}
            }
        },
        "transaction": {
            "nonce": "0x00",
            "gasPrice": "0x0a",
            "gasLimit": [
                "0x0186a0"
            ],
            "to": "0x9dcc499798dcea235188ab8cc9ca42279605bdab",
            "value": [
                "0x6a1b0d6a"
            ],
            "data": [
                "0x457f000000000000000000000000ffffffffffffffffffffffffffffffffffffffff7f00000000000000000000000000000000000000000000000000000000000000007f000000000000000000000000ffffffffffffffffffffffffffffffffffffffff427ffffffffffffffffffffffffffffffffffffffffffffffffffffffffffffffffe7f00000000000000000000000100000000000000000000000000000000000000007f000000000000000000000000ffffffffffffffffffffffffffffffffffffffff09"
            ],
            "sender": "0xeea753520fd92565d94479a4c4073d71308bd0f9",
            "secretKey": "0x3f991cd99254a8277f1a22e99dcc499798dcea235188ab8cc9ca42279605bcab"
        },
        "post": {
            "Prague": [
                {
                    "hash": "0x4239be483e592bb75d0db4b2853592bd86add478cfc7d95f652f3d49646a2588",
                    "logs": "0x1dcc4de8dec75d7aab85b567b6ccd41ad312451b948a7413f0a142fd40d49347",
                    "txbytes": "0xf9012e800a830186a0949dcc499798dcea235188ab8cc9ca42279605bdab846a1b0d6ab8c9457f000000000000000000000000ffffffffffffffffffffffffffffffffffffffff7f00000000000000000000000000000000000000000000000000000000000000007f000000000000000000000000ffffffffffffffffffffffffffffffffffffffff427ffffffffffffffffffffffffffffffffffffffffffffffffffffffffffffffffe7f00000000000000000000000100000000000000000000000000000000000000007f000000000000000000000000ffffffffffffffffffffffffffffffffffffffff0925a02cdde6d6ac689f8514efa866463ca806d749d1c011678d5dfb8deadfb483fc43a033f0f0566848001b4abff042ecdeeee9775c5d99f28279b20c212d8febda8832",
                    "indexes": {
                        "data": 0,
                        "gas": 0,
                        "value": 0
                    },
                    "state": {
                        "0xeea753520fd92565d94479a4c4073d71308bd0f9": {
                            "nonce": "0x01",
                            "balance": "0x0de0b6b33d420e40",
                            "code": "0x",
                            "storage": {}
                        },
                        "0x9dcc499798dcea235188ab8cc9ca42279605bcab": {
                            "nonce": "0x00",
                            "balance": "0x2e",
                            "code": "0x6000355415600957005b60203560003555",
                            "storage": {}
                        },
                        "0x9dcc499798dcea235188ab8cc9ca42279605bdab": {
                            "nonce": "0x00",
                            "balance": "0x6a1b0d6a",
                            "code": "0x457f000000000000000000000000ffffffffffffffffffffffffffffffffffffffff7f00000000000000000000000000000000000000000000000000000000000000007f000000000000000000000000ffffffffffffffffffffffffffffffffffffffff427ffffffffffffffffffffffffffffffffffffffffffffffffffffffffffffffffe7f00000000000000000000000100000000000000000000000000000000000000007f000000000000000000000000ffffffffffffffffffffffffffffffffffffffff0960005155",
                            "storage": {
                                "0x00": "0xffffffffffffffffffffffff000000000000000000000001fffffffffffffffe"
                            }
                        }
                    }
                }
            ]
        },
        "config": {
            "blobSchedule": {
                "Cancun": {
                    "target": "0x03",
                    "max": "0x06",
                    "baseFeeUpdateFraction": "0x32f0ed"
                },
                "Prague": {
                    "target": "0x06",
                    "max": "0x09",
                    "baseFeeUpdateFraction": "0x4c6964"
                }
            },
            "chainid": "0x01"
        },
        "_info": {
            "hash": "0xee004fc513649af4c30be21b6cdff3ac8928fec00ad762b758f1728b3b07a719",
            "comment": "`execution-specs` generated test",
            "filling-transition-tool": "2.18.0rc6",
            "description": "No description available - add a docstring to the python test class or function.",
            "url": "",
            "fixture-format": "state_test"
        }
    }
}