{
    "tests/static/state_tests/stRandom/randomStatetest231Filler.json::randomStatetest231[fork_Cancun-state_test-]": {
        "env": {
            "currentCoinbase": "0x4986db85d29db4c507a24ed333a767d45d4ce65e",
            "currentGasLimit": "0x7fffffffffffffff",
            "currentNumber": "0x01",
            "currentTimestamp": "0x03e8",
            "currentRandom": "0x0000000000000000000000000000000000000000000000000000000000020000",
            "currentDifficulty": "0x00",
            "currentBaseFee": "0x0a",
            "currentExcessBlobGas": "0x00"
        },
        "pre": {
            "0xdc5bed49d2222684bbef8af21cc9baaf4699cb38": {
                "nonce": "0x00",
                "balance": "0x0de0b6b3a7640000",
                "code": "0x",
                "storage": {}
            },
            "0x4986db85d29db4c507a24ed333a767d45d4ce65e": {
                "nonce": "0x00",
                "balance": "0x2e",
                "code": "0x6000355415600957005b60203560003555",
                "storage": {}
            },
            "0x4986db85d29db4c507a24ed333a767d45d4ce75e": {
                "nonce": "0x00",
                "balance": "0x00",
                "code": "0x7f0000000000000000000000004986db85d29db4c507a24ed333a767d45d4ce65e7f00000000000000000000000000000000000000000000000000000000000000007f00000000000000000000000100000000000000000000000000000000000000007f00000000000000000000000100000000000000000000000000000000000000007fffffffffffffffffffffffffffffffffffffffffffffffffffffffffffffffff7f000000000000000000000000000000000000000000000000000000000000c3507f000000000000000000000000000000000000000000000000000000000000c3507f0000000000000000000000004986db85d29db4c507a24ed333a767d45d4ce65e6f7b98a491727a089df3365353329e805560005155",
                "storage": {}
            }
        },
        "transaction": {
            "nonce": "0x00",
            "gasPrice": "0x0a",
            "gasLimit": [
                "0x0186a0"
            ],
            "to": "0x4986db85d29db4c507a24ed333a767d45d4ce75e",
            "value": [
                "0x4bca4c7e"
            ],
            "data": [
                "0x7f0000000000000000000000004986db85d29db4c507a24ed333a767d45d4ce65e7f00000000000000000000000000000000000000000000000000000000000000007f00000000000000000000000100000000000000000000000000000000000000007f00000000000000000000000100000000000000000000000000000000000000007fffffffffffffffffffffffffffffffffffffffffffffffffffffffffffffffff7f000000000000000000000000000000000000000000000000000000000000c3507f000000000000000000000000000000000000000000000000000000000000c3507f0000000000000000000000004986db85d29db4c507a24ed333a767d45d4ce65e6f7b98a491727a089df3365353329e80"
            ],
            "sender": "0xdc5bed49d2222684bbef8af21cc9baaf4699cb38",
            "secretKey": "0x7cc7761d9a00ca3fb58a19a64986db85d29db4c507a24ed333a767d45d4ce65e"
        },
        "post": {
            "Cancun": [
                {
                    "hash": "0x2d251b67a3ce594a487bb2bebba15755856f47167790edbea5a10240b2363f47",
                    "logs": "0x1dcc4de8dec75d7aab85b567b6ccd41ad312451b948a7413f0a142fd40d49347",
                    "txbytes": "0xf9017e800a830186a0944986db85d29db4c507a24ed333a767d45d4ce75e844bca4c7eb901187f0000000000000000000000004986db85d29db4c507a24ed333a767d45d4ce65e7f00000000000000000000000000000000000000000000000000000000000000007f00000000000000000000000100000000000000000000000000000000000000007f00000000000000000000000100000000000000000000000000000000000000007fffffffffffffffffffffffffffffffffffffffffffffffffffffffffffffffff7f000000000000000000000000000000000000000000000000000000000000c3507f000000000000000000000000000000000000000000000000000000000000c3507f0000000000000000000000004986db85d29db4c507a24ed333a767d45d4ce65e6f7b98a491727a089df3365353329e8026a07ac2f9b3676dfaa21389f5907b0acbb4fa24e1c8c9076a57ec1dbaeceb337605a041d9912fb0ba3b17d8ce9018a3dd1df51e4c0e48ebba37259327c40b39cf6b2a",
                    "indexes": {
                        "data": 0,
                        "gas": 0,
                        "value": 0
                    },
                    "state": {
                        "0xdc5bed49d2222684bbef8af21cc9baaf4699cb38": {
                            "nonce": "0x01",
                            "balance": "0x0de0b6b35b92c2f2",
                            "code": "0x",
                            "storage": {}
                        },
                        "0x4986db85d29db4c507a24ed333a767d45d4ce65e": {
                            "nonce": "0x00",
                            "balance": "0x2e",
                            "code": "0x6000355415600957005b60203560003555",
                            "storage": {}
                        },
                        "0x4986db85d29db4c507a24ed333a767d45d4ce75e": {
                            "nonce": "0x00",
                            "balance": "0x4bca4c7e",
                            "code": "0x7f0000000000000000000000004986db85d29db4c507a24ed333a767d45d4ce65e7f00000000000000000000000000000000000000000000000000000000000000007f00000000000000000000000100000000000000000000000000000000000000007f00000000000000000000000100000000000000000000000000000000000000007fffffffffffffffffffffffffffffffffffffffffffffffffffffffffffffffff7f000000000000000000000000000000000000000000000000000000000000c3507f000000000000000000000000000000000000000000000000000000000000c3507f0000000000000000000000004986db85d29db4c507a24ed333a767d45d4ce65e6f7b98a491727a089df3365353329e805560005155",
                            "storage": {
                                "0x00": "0x7b98a491727a089df3365353329e8055"
                            }
                        }
                    }
                }
            ]
        },
        "config": {
            "blobSchedule": {
                "Cancun": {
                    "target": "0x03",
                    "max": "0x06",
                    "baseFeeUpdateFraction": "0x32f0ed"
                }
            },
            "chainid": "0x01"
        },
        "_info": {
            "hash": "0x4353ab49452b2c3a534133da537996a0b2ca80286872a9ee40901aaf46775e30",
            "comment": "`execution-spec-tests` generated test",
            "filling-transition-tool": "ethereum-spec-evm-resolver 0.0.5",
            "description": "No description available - add a docstring to the python test class or function.",
            "url": "",
            "fixture-format": "state_test",
            "eels-resolution": {
                "git-url": "https://github.com/ethereum/execution-specs.git",
                "branch": "forks/bpos",
                "commit": "7aacb2c54111391af5e98c505d5010b5698a770f"
            }
        }
    },
    "tests/static/state_tests/stRandom/randomStatetest231Filler.json::randomStatetest231[fork_Osaka-state_test-]": {
        "env": {
            "currentCoinbase": "0x4986db85d29db4c507a24ed333a767d45d4ce65e",
            "currentGasLimit": "0x7fffffffffffffff",
            "currentNumber": "0x01",
            "currentTimestamp": "0x03e8",
            "currentRandom": "0x0000000000000000000000000000000000000000000000000000000000020000",
            "currentDifficulty": "0x00",
            "currentBaseFee": "0x0a",
            "currentExcessBlobGas": "0x00"
        },
        "pre": {
            "0xdc5bed49d2222684bbef8af21cc9baaf4699cb38": {
                "nonce": "0x00",
                "balance": "0x0de0b6b3a7640000",
                "code": "0x",
                "storage": {}
            },
            "0x4986db85d29db4c507a24ed333a767d45d4ce65e": {
                "nonce": "0x00",
                "balance": "0x2e",
                "code": "0x6000355415600957005b60203560003555",
                "storage": {}
            },
            "0x4986db85d29db4c507a24ed333a767d45d4ce75e": {
                "nonce": "0x00",
                "balance": "0x00",
                "code": "0x7f0000000000000000000000004986db85d29db4c507a24ed333a767d45d4ce65e7f00000000000000000000000000000000000000000000000000000000000000007f00000000000000000000000100000000000000000000000000000000000000007f00000000000000000000000100000000000000000000000000000000000000007fffffffffffffffffffffffffffffffffffffffffffffffffffffffffffffffff7f000000000000000000000000000000000000000000000000000000000000c3507f000000000000000000000000000000000000000000000000000000000000c3507f0000000000000000000000004986db85d29db4c507a24ed333a767d45d4ce65e6f7b98a491727a089df3365353329e805560005155",
                "storage": {}
            }
        },
        "transaction": {
            "nonce": "0x00",
            "gasPrice": "0x0a",
            "gasLimit": [
                "0x0186a0"
            ],
            "to": "0x4986db85d29db4c507a24ed333a767d45d4ce75e",
            "value": [
                "0x4bca4c7e"
            ],
            "data": [
                "0x7f0000000000000000000000004986db85d29db4c507a24ed333a767d45d4ce65e7f00000000000000000000000000000000000000000000000000000000000000007f00000000000000000000000100000000000000000000000000000000000000007f00000000000000000000000100000000000000000000000000000000000000007fffffffffffffffffffffffffffffffffffffffffffffffffffffffffffffffff7f000000000000000000000000000000000000000000000000000000000000c3507f000000000000000000000000000000000000000000000000000000000000c3507f0000000000000000000000004986db85d29db4c507a24ed333a767d45d4ce65e6f7b98a491727a089df3365353329e80"
            ],
            "sender": "0xdc5bed49d2222684bbef8af21cc9baaf4699cb38",
            "secretKey": "0x7cc7761d9a00ca3fb58a19a64986db85d29db4c507a24ed333a767d45d4ce65e"
        },
        "post": {
            "Osaka": [
                {
                    "hash": "0x2d251b67a3ce594a487bb2bebba15755856f47167790edbea5a10240b2363f47",
                    "logs": "0x1dcc4de8dec75d7aab85b567b6ccd41ad312451b948a7413f0a142fd40d49347",
                    "txbytes": "0xf9017e800a830186a0944986db85d29db4c507a24ed333a767d45d4ce75e844bca4c7eb901187f0000000000000000000000004986db85d29db4c507a24ed333a767d45d4ce65e7f00000000000000000000000000000000000000000000000000000000000000007f00000000000000000000000100000000000000000000000000000000000000007f00000000000000000000000100000000000000000000000000000000000000007fffffffffffffffffffffffffffffffffffffffffffffffffffffffffffffffff7f000000000000000000000000000000000000000000000000000000000000c3507f000000000000000000000000000000000000000000000000000000000000c3507f0000000000000000000000004986db85d29db4c507a24ed333a767d45d4ce65e6f7b98a491727a089df3365353329e8026a07ac2f9b3676dfaa21389f5907b0acbb4fa24e1c8c9076a57ec1dbaeceb337605a041d9912fb0ba3b17d8ce9018a3dd1df51e4c0e48ebba37259327c40b39cf6b2a",
                    "indexes": {
                        "data": 0,
                        "gas": 0,
                        "value": 0
                    },
                    "state": {
                        "0xdc5bed49d2222684bbef8af21cc9baaf4699cb38": {
                            "nonce": "0x01",
                            "balance": "0x0de0b6b35b92c2f2",
                            "code": "0x",
                            "storage": {}
                        },
                        "0x4986db85d29db4c507a24ed333a767d45d4ce65e": {
                            "nonce": "0x00",
                            "balance": "0x2e",
                            "code": "0x6000355415600957005b60203560003555",
                            "storage": {}
                        },
                        "0x4986db85d29db4c507a24ed333a767d45d4ce75e": {
                            "nonce": "0x00",
                            "balance": "0x4bca4c7e",
                            "code": "0x7f0000000000000000000000004986db85d29db4c507a24ed333a767d45d4ce65e7f00000000000000000000000000000000000000000000000000000000000000007f00000000000000000000000100000000000000000000000000000000000000007f00000000000000000000000100000000000000000000000000000000000000007fffffffffffffffffffffffffffffffffffffffffffffffffffffffffffffffff7f000000000000000000000000000000000000000000000000000000000000c3507f000000000000000000000000000000000000000000000000000000000000c3507f0000000000000000000000004986db85d29db4c507a24ed333a767d45d4ce65e6f7b98a491727a089df3365353329e805560005155",
                            "storage": {
                                "0x00": "0x7b98a491727a089df3365353329e8055"
                            }
                        }
                    }
                }
            ]
        },
        "config": {
            "blobSchedule": {
                "Cancun": {
                    "target": "0x03",
                    "max": "0x06",
                    "baseFeeUpdateFraction": "0x32f0ed"
                },
                "Prague": {
                    "target": "0x06",
                    "max": "0x09",
                    "baseFeeUpdateFraction": "0x4c6964"
                },
                "Osaka": {
                    "target": "0x06",
                    "max": "0x09",
                    "baseFeeUpdateFraction": "0x4c6964"
                }
            },
            "chainid": "0x01"
        },
        "_info": {
            "hash": "0x4401af642f85f46feffa3cca1e7c3f9ab63622f0d81f3a3e2c942be6b891026c",
            "comment": "`execution-spec-tests` generated test",
            "filling-transition-tool": "ethereum-spec-evm-resolver 0.0.5",
            "description": "No description available - add a docstring to the python test class or function.",
            "url": "",
            "fixture-format": "state_test",
            "eels-resolution": {
                "git-url": "https://github.com/ethereum/execution-specs.git",
                "branch": "forks/bpos",
                "commit": "7aacb2c54111391af5e98c505d5010b5698a770f"
            }
        }
    },
    "tests/static/state_tests/stRandom/randomStatetest231Filler.json::randomStatetest231[fork_Prague-state_test-]": {
        "env": {
            "currentCoinbase": "0x4986db85d29db4c507a24ed333a767d45d4ce65e",
            "currentGasLimit": "0x7fffffffffffffff",
            "currentNumber": "0x01",
            "currentTimestamp": "0x03e8",
            "currentRandom": "0x0000000000000000000000000000000000000000000000000000000000020000",
            "currentDifficulty": "0x00",
            "currentBaseFee": "0x0a",
            "currentExcessBlobGas": "0x00"
        },
        "pre": {
            "0xdc5bed49d2222684bbef8af21cc9baaf4699cb38": {
                "nonce": "0x00",
                "balance": "0x0de0b6b3a7640000",
                "code": "0x",
                "storage": {}
            },
            "0x4986db85d29db4c507a24ed333a767d45d4ce65e": {
                "nonce": "0x00",
                "balance": "0x2e",
                "code": "0x6000355415600957005b60203560003555",
                "storage": {}
            },
            "0x4986db85d29db4c507a24ed333a767d45d4ce75e": {
                "nonce": "0x00",
                "balance": "0x00",
                "code": "0x7f0000000000000000000000004986db85d29db4c507a24ed333a767d45d4ce65e7f00000000000000000000000000000000000000000000000000000000000000007f00000000000000000000000100000000000000000000000000000000000000007f00000000000000000000000100000000000000000000000000000000000000007fffffffffffffffffffffffffffffffffffffffffffffffffffffffffffffffff7f000000000000000000000000000000000000000000000000000000000000c3507f000000000000000000000000000000000000000000000000000000000000c3507f0000000000000000000000004986db85d29db4c507a24ed333a767d45d4ce65e6f7b98a491727a089df3365353329e805560005155",
                "storage": {}
            }
        },
        "transaction": {
            "nonce": "0x00",
            "gasPrice": "0x0a",
            "gasLimit": [
                "0x0186a0"
            ],
            "to": "0x4986db85d29db4c507a24ed333a767d45d4ce75e",
            "value": [
                "0x4bca4c7e"
            ],
            "data": [
                "0x7f0000000000000000000000004986db85d29db4c507a24ed333a767d45d4ce65e7f00000000000000000000000000000000000000000000000000000000000000007f00000000000000000000000100000000000000000000000000000000000000007f00000000000000000000000100000000000000000000000000000000000000007fffffffffffffffffffffffffffffffffffffffffffffffffffffffffffffffff7f000000000000000000000000000000000000000000000000000000000000c3507f000000000000000000000000000000000000000000000000000000000000c3507f0000000000000000000000004986db85d29db4c507a24ed333a767d45d4ce65e6f7b98a491727a089df3365353329e80"
            ],
            "sender": "0xdc5bed49d2222684bbef8af21cc9baaf4699cb38",
            "secretKey": "0x7cc7761d9a00ca3fb58a19a64986db85d29db4c507a24ed333a767d45d4ce65e"
        },
        "post": {
            "Prague": [
                {
                    "hash": "0x2d251b67a3ce594a487bb2bebba15755856f47167790edbea5a10240b2363f47",
                    "logs": "0x1dcc4de8dec75d7aab85b567b6ccd41ad312451b948a7413f0a142fd40d49347",
                    "txbytes": "0xf9017e800a830186a0944986db85d29db4c507a24ed333a767d45d4ce75e844bca4c7eb901187f0000000000000000000000004986db85d29db4c507a24ed333a767d45d4ce65e7f00000000000000000000000000000000000000000000000000000000000000007f00000000000000000000000100000000000000000000000000000000000000007f00000000000000000000000100000000000000000000000000000000000000007fffffffffffffffffffffffffffffffffffffffffffffffffffffffffffffffff7f000000000000000000000000000000000000000000000000000000000000c3507f000000000000000000000000000000000000000000000000000000000000c3507f0000000000000000000000004986db85d29db4c507a24ed333a767d45d4ce65e6f7b98a491727a089df3365353329e8026a07ac2f9b3676dfaa21389f5907b0acbb4fa24e1c8c9076a57ec1dbaeceb337605a041d9912fb0ba3b17d8ce9018a3dd1df51e4c0e48ebba37259327c40b39cf6b2a",
                    "indexes": {
                        "data": 0,
                        "gas": 0,
                        "value": 0
                    },
                    "state": {
                        "0xdc5bed49d2222684bbef8af21cc9baaf4699cb38": {
                            "nonce": "0x01",
                            "balance": "0x0de0b6b35b92c2f2",
                            "code": "0x",
                            "storage": {}
                        },
                        "0x4986db85d29db4c507a24ed333a767d45d4ce65e": {
                            "nonce": "0x00",
                            "balance": "0x2e",
                            "code": "0x6000355415600957005b60203560003555",
                            "storage": {}
                        },
                        "0x4986db85d29db4c507a24ed333a767d45d4ce75e": {
                            "nonce": "0x00",
                            "balance": "0x4bca4c7e",
                            "code": "0x7f0000000000000000000000004986db85d29db4c507a24ed333a767d45d4ce65e7f00000000000000000000000000000000000000000000000000000000000000007f00000000000000000000000100000000000000000000000000000000000000007f00000000000000000000000100000000000000000000000000000000000000007fffffffffffffffffffffffffffffffffffffffffffffffffffffffffffffffff7f000000000000000000000000000000000000000000000000000000000000c3507f000000000000000000000000000000000000000000000000000000000000c3507f0000000000000000000000004986db85d29db4c507a24ed333a767d45d4ce65e6f7b98a491727a089df3365353329e805560005155",
                            "storage": {
                                "0x00": "0x7b98a491727a089df3365353329e8055"
                            }
                        }
                    }
                }
            ]
        },
        "config": {
            "blobSchedule": {
                "Cancun": {
                    "target": "0x03",
                    "max": "0x06",
                    "baseFeeUpdateFraction": "0x32f0ed"
                },
                "Prague": {
                    "target": "0x06",
                    "max": "0x09",
                    "baseFeeUpdateFraction": "0x4c6964"
                }
            },
            "chainid": "0x01"
        },
        "_info": {
            "hash": "0x5646b1e7faf968b20afef194921507d46ec9e2f1a0d256fbefa59577ce60fc9e",
            "comment": "`execution-spec-tests` generated test",
            "filling-transition-tool": "ethereum-spec-evm-resolver 0.0.5",
            "description": "No description available - add a docstring to the python test class or function.",
            "url": "",
            "fixture-format": "state_test",
            "eels-resolution": {
                "git-url": "https://github.com/ethereum/execution-specs.git",
                "branch": "forks/bpos",
                "commit": "7aacb2c54111391af5e98c505d5010b5698a770f"
            }
        }
    }
}