{
    "tests/static/state_tests/stRandom/randomStatetest322Filler.json::randomStatetest322[fork_Cancun-state_test-]": {
        "env": {
            "currentCoinbase": "0xdab6b9ae65b0983a2c70f2f9b45091b85beab2df",
            "currentGasLimit": "0x7fffffffffffffff",
            "currentNumber": "0x01",
            "currentTimestamp": "0x03e8",
            "currentRandom": "0x0000000000000000000000000000000000000000000000000000000000020000",
            "currentDifficulty": "0x00",
            "currentBaseFee": "0x0a",
            "currentExcessBlobGas": "0x00"
        },
        "pre": {
            "0x4eea2dfc0bef6263e59a5d008e75770b7a0e4795": {
                "nonce": "0x00",
                "balance": "0x0de0b6b3a7640000",
                "code": "0x",
                "storage": {}
            },
            "0xdab6b9ae65b0983a2c70f2f9b45091b85beab2df": {
                "nonce": "0x00",
                "balance": "0x2e",
                "code": "0x6000355415600957005b60203560003555",
                "storage": {}
            },
            "0xdab6b9ae65b0983a2c70f2f9b45091b85beab3df": {
                "nonce": "0x00",
                "balance": "0x00",
                "code": "0x7f00000000000000000000000100000000000000000000000000000000000000007f00000000000000000000000100000000000000000000000000000000000000007fffffffffffffffffffffffffffffffffffffffffffffffffffffffffffffffff7f00000000000000000000000000000000000000000000000000000000000000007f00000000000000000000000100000000000000000000000000000000000000007f0000000000000000000000000000000000000000000000000000000000000000427f000000000000000000000000000000000000000000000000000000000000c3506f1206060508840294304101a3128f345560005155",
                "storage": {}
            }
        },
        "transaction": {
            "nonce": "0x00",
            "gasPrice": "0x0a",
            "gasLimit": [
                "0x0186a0"
            ],
            "to": "0xdab6b9ae65b0983a2c70f2f9b45091b85beab3df",
            "value": [
                "0x312238e4"
            ],
            "data": [
                "0x7f00000000000000000000000100000000000000000000000000000000000000007f00000000000000000000000100000000000000000000000000000000000000007fffffffffffffffffffffffffffffffffffffffffffffffffffffffffffffffff7f00000000000000000000000000000000000000000000000000000000000000007f00000000000000000000000100000000000000000000000000000000000000007f0000000000000000000000000000000000000000000000000000000000000000427f000000000000000000000000000000000000000000000000000000000000c3506f1206060508840294304101a3128f34"
            ],
            "sender": "0x4eea2dfc0bef6263e59a5d008e75770b7a0e4795",
            "secretKey": "0xa8a0d37d7e709c685460b0b9dab6b9ae65b0983a2c70f2f9b45091b85beab2df"
        },
        "post": {
            "Cancun": [
                {
                    "hash": "0xfdbd8d4ebc0aaad07f826045eef42cb9bc8d291d9d97baa7329651cc437ae1ef",
                    "logs": "0x1dcc4de8dec75d7aab85b567b6ccd41ad312451b948a7413f0a142fd40d49347",
                    "txbytes": "0xf9015d800a830186a094dab6b9ae65b0983a2c70f2f9b45091b85beab3df84312238e4b8f87f00000000000000000000000100000000000000000000000000000000000000007f00000000000000000000000100000000000000000000000000000000000000007fffffffffffffffffffffffffffffffffffffffffffffffffffffffffffffffff7f00000000000000000000000000000000000000000000000000000000000000007f00000000000000000000000100000000000000000000000000000000000000007f0000000000000000000000000000000000000000000000000000000000000000427f000000000000000000000000000000000000000000000000000000000000c3506f1206060508840294304101a3128f3425a0a24f66966641cdabcc815397423460f2b6d1666f1233b531bee5c58387a7cb32a0447d17562d55438c7273d582543ddb9b2195da280e6191de4243a2f1c312b5ad",
                    "indexes": {
                        "data": 0,
                        "gas": 0,
                        "value": 0
                    },
                    "state": {
                        "0x4eea2dfc0bef6263e59a5d008e75770b7a0e4795": {
                            "nonce": "0x01",
                            "balance": "0x0de0b6b3763aeece",
                            "code": "0x",
                            "storage": {}
                        },
                        "0xdab6b9ae65b0983a2c70f2f9b45091b85beab2df": {
                            "nonce": "0x00",
                            "balance": "0x2e",
                            "code": "0x6000355415600957005b60203560003555",
                            "storage": {}
                        },
                        "0xdab6b9ae65b0983a2c70f2f9b45091b85beab3df": {
                            "nonce": "0x00",
                            "balance": "0x312238e4",
                            "code": "0x7f00000000000000000000000100000000000000000000000000000000000000007f00000000000000000000000100000000000000000000000000000000000000007fffffffffffffffffffffffffffffffffffffffffffffffffffffffffffffffff7f00000000000000000000000000000000000000000000000000000000000000007f00000000000000000000000100000000000000000000000000000000000000007f0000000000000000000000000000000000000000000000000000000000000000427f000000000000000000000000000000000000000000000000000000000000c3506f1206060508840294304101a3128f345560005155",
                            "storage": {
                                "0x00": "0x1206060508840294304101a3128f3455"
                            }
                        }
                    }
                }
            ]
        },
        "config": {
            "blobSchedule": {
                "Cancun": {
                    "target": "0x03",
                    "max": "0x06",
                    "baseFeeUpdateFraction": "0x32f0ed"
                }
            },
            "chainid": "0x01"
        },
        "_info": {
            "hash": "0x61258fab965f8295be60479a7b68ff1500c1359ef79eb2de9c79ceb8efc9df62",
            "comment": "`execution-spec-tests` generated test",
            "filling-transition-tool": "ethereum-spec-evm-resolver 0.0.5",
            "description": "No description available - add a docstring to the python test class or function.",
            "url": "",
            "fixture-format": "state_test",
            "eels-resolution": {
                "git-url": "https://github.com/marioevz/execution-specs.git",
                "branch": "forks/bpo1",
                "commit": "3387e5f4aedfe99becfdc39b444d6371e25e0924"
            }
        }
    },
    "tests/static/state_tests/stRandom/randomStatetest322Filler.json::randomStatetest322[fork_Osaka-state_test-]": {
        "env": {
            "currentCoinbase": "0xdab6b9ae65b0983a2c70f2f9b45091b85beab2df",
            "currentGasLimit": "0x7fffffffffffffff",
            "currentNumber": "0x01",
            "currentTimestamp": "0x03e8",
            "currentRandom": "0x0000000000000000000000000000000000000000000000000000000000020000",
            "currentDifficulty": "0x00",
            "currentBaseFee": "0x0a",
            "currentExcessBlobGas": "0x00"
        },
        "pre": {
            "0x4eea2dfc0bef6263e59a5d008e75770b7a0e4795": {
                "nonce": "0x00",
                "balance": "0x0de0b6b3a7640000",
                "code": "0x",
                "storage": {}
            },
            "0xdab6b9ae65b0983a2c70f2f9b45091b85beab2df": {
                "nonce": "0x00",
                "balance": "0x2e",
                "code": "0x6000355415600957005b60203560003555",
                "storage": {}
            },
            "0xdab6b9ae65b0983a2c70f2f9b45091b85beab3df": {
                "nonce": "0x00",
                "balance": "0x00",
                "code": "0x7f00000000000000000000000100000000000000000000000000000000000000007f00000000000000000000000100000000000000000000000000000000000000007fffffffffffffffffffffffffffffffffffffffffffffffffffffffffffffffff7f00000000000000000000000000000000000000000000000000000000000000007f00000000000000000000000100000000000000000000000000000000000000007f0000000000000000000000000000000000000000000000000000000000000000427f000000000000000000000000000000000000000000000000000000000000c3506f1206060508840294304101a3128f345560005155",
                "storage": {}
            }
        },
        "transaction": {
            "nonce": "0x00",
            "gasPrice": "0x0a",
            "gasLimit": [
                "0x0186a0"
            ],
            "to": "0xdab6b9ae65b0983a2c70f2f9b45091b85beab3df",
            "value": [
                "0x312238e4"
            ],
            "data": [
                "0x7f00000000000000000000000100000000000000000000000000000000000000007f00000000000000000000000100000000000000000000000000000000000000007fffffffffffffffffffffffffffffffffffffffffffffffffffffffffffffffff7f00000000000000000000000000000000000000000000000000000000000000007f00000000000000000000000100000000000000000000000000000000000000007f0000000000000000000000000000000000000000000000000000000000000000427f000000000000000000000000000000000000000000000000000000000000c3506f1206060508840294304101a3128f34"
            ],
            "sender": "0x4eea2dfc0bef6263e59a5d008e75770b7a0e4795",
            "secretKey": "0xa8a0d37d7e709c685460b0b9dab6b9ae65b0983a2c70f2f9b45091b85beab2df"
        },
        "post": {
            "Osaka": [
                {
                    "hash": "0xfdbd8d4ebc0aaad07f826045eef42cb9bc8d291d9d97baa7329651cc437ae1ef",
                    "logs": "0x1dcc4de8dec75d7aab85b567b6ccd41ad312451b948a7413f0a142fd40d49347",
                    "txbytes": "0xf9015d800a830186a094dab6b9ae65b0983a2c70f2f9b45091b85beab3df84312238e4b8f87f00000000000000000000000100000000000000000000000000000000000000007f00000000000000000000000100000000000000000000000000000000000000007fffffffffffffffffffffffffffffffffffffffffffffffffffffffffffffffff7f00000000000000000000000000000000000000000000000000000000000000007f00000000000000000000000100000000000000000000000000000000000000007f0000000000000000000000000000000000000000000000000000000000000000427f000000000000000000000000000000000000000000000000000000000000c3506f1206060508840294304101a3128f3425a0a24f66966641cdabcc815397423460f2b6d1666f1233b531bee5c58387a7cb32a0447d17562d55438c7273d582543ddb9b2195da280e6191de4243a2f1c312b5ad",
                    "indexes": {
                        "data": 0,
                        "gas": 0,
                        "value": 0
                    },
                    "state": {
                        "0x4eea2dfc0bef6263e59a5d008e75770b7a0e4795": {
                            "nonce": "0x01",
                            "balance": "0x0de0b6b3763aeece",
                            "code": "0x",
                            "storage": {}
                        },
                        "0xdab6b9ae65b0983a2c70f2f9b45091b85beab2df": {
                            "nonce": "0x00",
                            "balance": "0x2e",
                            "code": "0x6000355415600957005b60203560003555",
                            "storage": {}
                        },
                        "0xdab6b9ae65b0983a2c70f2f9b45091b85beab3df": {
                            "nonce": "0x00",
                            "balance": "0x312238e4",
                            "code": "0x7f00000000000000000000000100000000000000000000000000000000000000007f00000000000000000000000100000000000000000000000000000000000000007fffffffffffffffffffffffffffffffffffffffffffffffffffffffffffffffff7f00000000000000000000000000000000000000000000000000000000000000007f00000000000000000000000100000000000000000000000000000000000000007f0000000000000000000000000000000000000000000000000000000000000000427f000000000000000000000000000000000000000000000000000000000000c3506f1206060508840294304101a3128f345560005155",
                            "storage": {
                                "0x00": "0x1206060508840294304101a3128f3455"
                            }
                        }
                    }
                }
            ]
        },
        "config": {
            "blobSchedule": {
                "Cancun": {
                    "target": "0x03",
                    "max": "0x06",
                    "baseFeeUpdateFraction": "0x32f0ed"
                },
                "Prague": {
                    "target": "0x06",
                    "max": "0x09",
                    "baseFeeUpdateFraction": "0x4c6964"
                },
                "Osaka": {
                    "target": "0x06",
                    "max": "0x09",
                    "baseFeeUpdateFraction": "0x4c6964"
                }
            },
            "chainid": "0x01"
        },
        "_info": {
            "hash": "0xeb8ee793d5912b27c2b58eee326c279833ee0dceb881cb852850b37d5cb28701",
            "comment": "`execution-spec-tests` generated test",
            "filling-transition-tool": "ethereum-spec-evm-resolver 0.0.5",
            "description": "No description available - add a docstring to the python test class or function.",
            "url": "",
            "fixture-format": "state_test",
            "eels-resolution": {
                "git-url": "https://github.com/marioevz/execution-specs.git",
                "branch": "forks/bpo1",
                "commit": "3387e5f4aedfe99becfdc39b444d6371e25e0924"
            }
        }
    },
    "tests/static/state_tests/stRandom/randomStatetest322Filler.json::randomStatetest322[fork_Prague-state_test-]": {
        "env": {
            "currentCoinbase": "0xdab6b9ae65b0983a2c70f2f9b45091b85beab2df",
            "currentGasLimit": "0x7fffffffffffffff",
            "currentNumber": "0x01",
            "currentTimestamp": "0x03e8",
            "currentRandom": "0x0000000000000000000000000000000000000000000000000000000000020000",
            "currentDifficulty": "0x00",
            "currentBaseFee": "0x0a",
            "currentExcessBlobGas": "0x00"
        },
        "pre": {
            "0x4eea2dfc0bef6263e59a5d008e75770b7a0e4795": {
                "nonce": "0x00",
                "balance": "0x0de0b6b3a7640000",
                "code": "0x",
                "storage": {}
            },
            "0xdab6b9ae65b0983a2c70f2f9b45091b85beab2df": {
                "nonce": "0x00",
                "balance": "0x2e",
                "code": "0x6000355415600957005b60203560003555",
                "storage": {}
            },
            "0xdab6b9ae65b0983a2c70f2f9b45091b85beab3df": {
                "nonce": "0x00",
                "balance": "0x00",
                "code": "0x7f00000000000000000000000100000000000000000000000000000000000000007f00000000000000000000000100000000000000000000000000000000000000007fffffffffffffffffffffffffffffffffffffffffffffffffffffffffffffffff7f00000000000000000000000000000000000000000000000000000000000000007f00000000000000000000000100000000000000000000000000000000000000007f0000000000000000000000000000000000000000000000000000000000000000427f000000000000000000000000000000000000000000000000000000000000c3506f1206060508840294304101a3128f345560005155",
                "storage": {}
            }
        },
        "transaction": {
            "nonce": "0x00",
            "gasPrice": "0x0a",
            "gasLimit": [
                "0x0186a0"
            ],
            "to": "0xdab6b9ae65b0983a2c70f2f9b45091b85beab3df",
            "value": [
                "0x312238e4"
            ],
            "data": [
                "0x7f00000000000000000000000100000000000000000000000000000000000000007f00000000000000000000000100000000000000000000000000000000000000007fffffffffffffffffffffffffffffffffffffffffffffffffffffffffffffffff7f00000000000000000000000000000000000000000000000000000000000000007f00000000000000000000000100000000000000000000000000000000000000007f0000000000000000000000000000000000000000000000000000000000000000427f000000000000000000000000000000000000000000000000000000000000c3506f1206060508840294304101a3128f34"
            ],
            "sender": "0x4eea2dfc0bef6263e59a5d008e75770b7a0e4795",
            "secretKey": "0xa8a0d37d7e709c685460b0b9dab6b9ae65b0983a2c70f2f9b45091b85beab2df"
        },
        "post": {
            "Prague": [
                {
                    "hash": "0xfdbd8d4ebc0aaad07f826045eef42cb9bc8d291d9d97baa7329651cc437ae1ef",
                    "logs": "0x1dcc4de8dec75d7aab85b567b6ccd41ad312451b948a7413f0a142fd40d49347",
                    "txbytes": "0xf9015d800a830186a094dab6b9ae65b0983a2c70f2f9b45091b85beab3df84312238e4b8f87f00000000000000000000000100000000000000000000000000000000000000007f00000000000000000000000100000000000000000000000000000000000000007fffffffffffffffffffffffffffffffffffffffffffffffffffffffffffffffff7f00000000000000000000000000000000000000000000000000000000000000007f00000000000000000000000100000000000000000000000000000000000000007f0000000000000000000000000000000000000000000000000000000000000000427f000000000000000000000000000000000000000000000000000000000000c3506f1206060508840294304101a3128f3425a0a24f66966641cdabcc815397423460f2b6d1666f1233b531bee5c58387a7cb32a0447d17562d55438c7273d582543ddb9b2195da280e6191de4243a2f1c312b5ad",
                    "indexes": {
                        "data": 0,
                        "gas": 0,
                        "value": 0
                    },
                    "state": {
                        "0x4eea2dfc0bef6263e59a5d008e75770b7a0e4795": {
                            "nonce": "0x01",
                            "balance": "0x0de0b6b3763aeece",
                            "code": "0x",
                            "storage": {}
                        },
                        "0xdab6b9ae65b0983a2c70f2f9b45091b85beab2df": {
                            "nonce": "0x00",
                            "balance": "0x2e",
                            "code": "0x6000355415600957005b60203560003555",
                            "storage": {}
                        },
                        "0xdab6b9ae65b0983a2c70f2f9b45091b85beab3df": {
                            "nonce": "0x00",
                            "balance": "0x312238e4",
                            "code": "0x7f00000000000000000000000100000000000000000000000000000000000000007f00000000000000000000000100000000000000000000000000000000000000007fffffffffffffffffffffffffffffffffffffffffffffffffffffffffffffffff7f00000000000000000000000000000000000000000000000000000000000000007f00000000000000000000000100000000000000000000000000000000000000007f0000000000000000000000000000000000000000000000000000000000000000427f000000000000000000000000000000000000000000000000000000000000c3506f1206060508840294304101a3128f345560005155",
                            "storage": {
                                "0x00": "0x1206060508840294304101a3128f3455"
                            }
                        }
                    }
                }
            ]
        },
        "config": {
            "blobSchedule": {
                "Cancun": {
                    "target": "0x03",
                    "max": "0x06",
                    "baseFeeUpdateFraction": "0x32f0ed"
                },
                "Prague": {
                    "target": "0x06",
                    "max": "0x09",
                    "baseFeeUpdateFraction": "0x4c6964"
                }
            },
            "chainid": "0x01"
        },
        "_info": {
            "hash": "0xe78ffc6173598e919bf2f8f15bf59cecebb6474c7a1adaca9677c15ce3a0a911",
            "comment": "`execution-spec-tests` generated test",
            "filling-transition-tool": "ethereum-spec-evm-resolver 0.0.5",
            "description": "No description available - add a docstring to the python test class or function.",
            "url": "",
            "fixture-format": "state_test",
            "eels-resolution": {
                "git-url": "https://github.com/marioevz/execution-specs.git",
                "branch": "forks/bpo1",
                "commit": "3387e5f4aedfe99becfdc39b444d6371e25e0924"
            }
        }
    }
}