{
    "tests/static/state_tests/stRandom/randomStatetest305Filler.json::randomStatetest305[fork_Cancun-state_test-]": {
        "env": {
            "currentCoinbase": "0xf913a38f2fe6f7ca05e21e6806bb84eb3429ca6e",
            "currentGasLimit": "0x7fffffffffffffff",
            "currentNumber": "0x01",
            "currentTimestamp": "0x03e8",
            "currentRandom": "0x0000000000000000000000000000000000000000000000000000000000020000",
            "currentDifficulty": "0x00",
            "currentBaseFee": "0x0a",
            "currentExcessBlobGas": "0x00"
        },
        "pre": {
            "0xbe02459be05d26b74baa677ad54dd93e9915a11c": {
                "nonce": "0x00",
                "balance": "0x0de0b6b3a7640000",
                "code": "0x",
                "storage": {}
            },
            "0xf913a38f2fe6f7ca05e21e6806bb84eb3429ca6e": {
                "nonce": "0x00",
                "balance": "0x2e",
                "code": "0x6000355415600957005b60203560003555",
                "storage": {}
            },
            "0xf913a38f2fe6f7ca05e21e6806bb84eb3429cb6e": {
                "nonce": "0x00",
                "balance": "0x00",
                "code": "0x7f000000000000000000000000f913a38f2fe6f7ca05e21e6806bb84eb3429ca6e7f00000000000000000000000100000000000000000000000000000000000000007f000000000000000000000000f913a38f2fe6f7ca05e21e6806bb84eb3429ca6e7fffffffffffffffffffffffffffffffffffffffffffffffffffffffffffffffff7fffffffffffffffffffffffffffffffffffffffffffffffffffffffffffffffff7f000000000000000000000000ffffffffffffffffffffffffffffffffffffffff7f000000000000000000000000f913a38f2fe6f7ca05e21e6806bb84eb3429ca6e7f00000000000000000000000000000000000000000000000000000000000000006f606e048240069c409313318736200b5560005155",
                "storage": {}
            }
        },
        "transaction": {
            "nonce": "0x00",
            "gasPrice": "0x0a",
            "gasLimit": [
                "0x0186a0"
            ],
            "to": "0xf913a38f2fe6f7ca05e21e6806bb84eb3429cb6e",
            "value": [
                "0x0d00d79e"
            ],
            "data": [
                "0x7f000000000000000000000000f913a38f2fe6f7ca05e21e6806bb84eb3429ca6e7f00000000000000000000000100000000000000000000000000000000000000007f000000000000000000000000f913a38f2fe6f7ca05e21e6806bb84eb3429ca6e7fffffffffffffffffffffffffffffffffffffffffffffffffffffffffffffffff7fffffffffffffffffffffffffffffffffffffffffffffffffffffffffffffffff7f000000000000000000000000ffffffffffffffffffffffffffffffffffffffff7f000000000000000000000000f913a38f2fe6f7ca05e21e6806bb84eb3429ca6e7f00000000000000000000000000000000000000000000000000000000000000006f606e048240069c409313318736200b"
            ],
            "sender": "0xbe02459be05d26b74baa677ad54dd93e9915a11c",
            "secretKey": "0x9f706c712f03874544184dacf913a38f2fe6f7ca05e21e6806bb84eb3429ca6e"
        },
        "post": {
            "Cancun": [
                {
                    "hash": "0x096d76bd11676dd23843a4f8ad13895ff31e6431a7959b69264e06f53f259776",
                    "logs": "0x1dcc4de8dec75d7aab85b567b6ccd41ad312451b948a7413f0a142fd40d49347",
                    "txbytes": "0xf9017e800a830186a094f913a38f2fe6f7ca05e21e6806bb84eb3429cb6e840d00d79eb901187f000000000000000000000000f913a38f2fe6f7ca05e21e6806bb84eb3429ca6e7f00000000000000000000000100000000000000000000000000000000000000007f000000000000000000000000f913a38f2fe6f7ca05e21e6806bb84eb3429ca6e7fffffffffffffffffffffffffffffffffffffffffffffffffffffffffffffffff7fffffffffffffffffffffffffffffffffffffffffffffffffffffffffffffffff7f000000000000000000000000ffffffffffffffffffffffffffffffffffffffff7f000000000000000000000000f913a38f2fe6f7ca05e21e6806bb84eb3429ca6e7f00000000000000000000000000000000000000000000000000000000000000006f606e048240069c409313318736200b26a0f6d47f8cac015923123267efb828d183dfb236296c4f41291e23e84024dabdd0a0066c8270870a56864b897cee6d4c622f1c3f8b5819e92452af442f42d6799c83",
                    "indexes": {
                        "data": 0,
                        "gas": 0,
                        "value": 0
                    },
                    "state": {
                        "0xbe02459be05d26b74baa677ad54dd93e9915a11c": {
                            "nonce": "0x01",
                            "balance": "0x0de0b6b39a5c186a",
                            "code": "0x",
                            "storage": {}
                        },
                        "0xf913a38f2fe6f7ca05e21e6806bb84eb3429ca6e": {
                            "nonce": "0x00",
                            "balance": "0x2e",
                            "code": "0x6000355415600957005b60203560003555",
                            "storage": {}
                        },
                        "0xf913a38f2fe6f7ca05e21e6806bb84eb3429cb6e": {
                            "nonce": "0x00",
                            "balance": "0x0d00d79e",
                            "code": "0x7f000000000000000000000000f913a38f2fe6f7ca05e21e6806bb84eb3429ca6e7f00000000000000000000000100000000000000000000000000000000000000007f000000000000000000000000f913a38f2fe6f7ca05e21e6806bb84eb3429ca6e7fffffffffffffffffffffffffffffffffffffffffffffffffffffffffffffffff7fffffffffffffffffffffffffffffffffffffffffffffffffffffffffffffffff7f000000000000000000000000ffffffffffffffffffffffffffffffffffffffff7f000000000000000000000000f913a38f2fe6f7ca05e21e6806bb84eb3429ca6e7f00000000000000000000000000000000000000000000000000000000000000006f606e048240069c409313318736200b5560005155",
                            "storage": {
                                "0x00": "0x606e048240069c409313318736200b55"
                            }
                        }
                    }
                }
            ]
        },
        "config": {
            "blobSchedule": {
                "Cancun": {
                    "target": "0x03",
                    "max": "0x06",
                    "baseFeeUpdateFraction": "0x32f0ed"
                }
            },
            "chainid": "0x01"
        },
        "_info": {
            "hash": "0xffe8d3a57709ff24886cd99f8001d3e12114e79216bc6c339615f4c0c71c7074",
            "comment": "`execution-specs` generated test",
            "filling-transition-tool": "2.18.0rc6",
            "description": "No description available - add a docstring to the python test class or function.",
            "url": "",
            "fixture-format": "state_test"
        }
    },
    "tests/static/state_tests/stRandom/randomStatetest305Filler.json::randomStatetest305[fork_Osaka-state_test-]": {
        "env": {
            "currentCoinbase": "0xf913a38f2fe6f7ca05e21e6806bb84eb3429ca6e",
            "currentGasLimit": "0x7fffffffffffffff",
            "currentNumber": "0x01",
            "currentTimestamp": "0x03e8",
            "currentRandom": "0x0000000000000000000000000000000000000000000000000000000000020000",
            "currentDifficulty": "0x00",
            "currentBaseFee": "0x0a",
            "currentExcessBlobGas": "0x00"
        },
        "pre": {
            "0xbe02459be05d26b74baa677ad54dd93e9915a11c": {
                "nonce": "0x00",
                "balance": "0x0de0b6b3a7640000",
                "code": "0x",
                "storage": {}
            },
            "0xf913a38f2fe6f7ca05e21e6806bb84eb3429ca6e": {
                "nonce": "0x00",
                "balance": "0x2e",
                "code": "0x6000355415600957005b60203560003555",
                "storage": {}
            },
            "0xf913a38f2fe6f7ca05e21e6806bb84eb3429cb6e": {
                "nonce": "0x00",
                "balance": "0x00",
                "code": "0x7f000000000000000000000000f913a38f2fe6f7ca05e21e6806bb84eb3429ca6e7f00000000000000000000000100000000000000000000000000000000000000007f000000000000000000000000f913a38f2fe6f7ca05e21e6806bb84eb3429ca6e7fffffffffffffffffffffffffffffffffffffffffffffffffffffffffffffffff7fffffffffffffffffffffffffffffffffffffffffffffffffffffffffffffffff7f000000000000000000000000ffffffffffffffffffffffffffffffffffffffff7f000000000000000000000000f913a38f2fe6f7ca05e21e6806bb84eb3429ca6e7f00000000000000000000000000000000000000000000000000000000000000006f606e048240069c409313318736200b5560005155",
                "storage": {}
            }
        },
        "transaction": {
            "nonce": "0x00",
            "gasPrice": "0x0a",
            "gasLimit": [
                "0x0186a0"
            ],
            "to": "0xf913a38f2fe6f7ca05e21e6806bb84eb3429cb6e",
            "value": [
                "0x0d00d79e"
            ],
            "data": [
                "0x7f000000000000000000000000f913a38f2fe6f7ca05e21e6806bb84eb3429ca6e7f00000000000000000000000100000000000000000000000000000000000000007f000000000000000000000000f913a38f2fe6f7ca05e21e6806bb84eb3429ca6e7fffffffffffffffffffffffffffffffffffffffffffffffffffffffffffffffff7fffffffffffffffffffffffffffffffffffffffffffffffffffffffffffffffff7f000000000000000000000000ffffffffffffffffffffffffffffffffffffffff7f000000000000000000000000f913a38f2fe6f7ca05e21e6806bb84eb3429ca6e7f00000000000000000000000000000000000000000000000000000000000000006f606e048240069c409313318736200b"
            ],
            "sender": "0xbe02459be05d26b74baa677ad54dd93e9915a11c",
            "secretKey": "0x9f706c712f03874544184dacf913a38f2fe6f7ca05e21e6806bb84eb3429ca6e"
        },
        "post": {
            "Osaka": [
                {
                    "hash": "0x096d76bd11676dd23843a4f8ad13895ff31e6431a7959b69264e06f53f259776",
                    "logs": "0x1dcc4de8dec75d7aab85b567b6ccd41ad312451b948a7413f0a142fd40d49347",
                    "txbytes": "0xf9017e800a830186a094f913a38f2fe6f7ca05e21e6806bb84eb3429cb6e840d00d79eb901187f000000000000000000000000f913a38f2fe6f7ca05e21e6806bb84eb3429ca6e7f00000000000000000000000100000000000000000000000000000000000000007f000000000000000000000000f913a38f2fe6f7ca05e21e6806bb84eb3429ca6e7fffffffffffffffffffffffffffffffffffffffffffffffffffffffffffffffff7fffffffffffffffffffffffffffffffffffffffffffffffffffffffffffffffff7f000000000000000000000000ffffffffffffffffffffffffffffffffffffffff7f000000000000000000000000f913a38f2fe6f7ca05e21e6806bb84eb3429ca6e7f00000000000000000000000000000000000000000000000000000000000000006f606e048240069c409313318736200b26a0f6d47f8cac015923123267efb828d183dfb236296c4f41291e23e84024dabdd0a0066c8270870a56864b897cee6d4c622f1c3f8b5819e92452af442f42d6799c83",
                    "indexes": {
                        "data": 0,
                        "gas": 0,
                        "value": 0
                    },
                    "state": {
                        "0xbe02459be05d26b74baa677ad54dd93e9915a11c": {
                            "nonce": "0x01",
                            "balance": "0x0de0b6b39a5c186a",
                            "code": "0x",
                            "storage": {}
                        },
                        "0xf913a38f2fe6f7ca05e21e6806bb84eb3429ca6e": {
                            "nonce": "0x00",
                            "balance": "0x2e",
                            "code": "0x6000355415600957005b60203560003555",
                            "storage": {}
                        },
                        "0xf913a38f2fe6f7ca05e21e6806bb84eb3429cb6e": {
                            "nonce": "0x00",
                            "balance": "0x0d00d79e",
                            "code": "0x7f000000000000000000000000f913a38f2fe6f7ca05e21e6806bb84eb3429ca6e7f00000000000000000000000100000000000000000000000000000000000000007f000000000000000000000000f913a38f2fe6f7ca05e21e6806bb84eb3429ca6e7fffffffffffffffffffffffffffffffffffffffffffffffffffffffffffffffff7fffffffffffffffffffffffffffffffffffffffffffffffffffffffffffffffff7f000000000000000000000000ffffffffffffffffffffffffffffffffffffffff7f000000000000000000000000f913a38f2fe6f7ca05e21e6806bb84eb3429ca6e7f00000000000000000000000000000000000000000000000000000000000000006f606e048240069c409313318736200b5560005155",
                            "storage": {
                                "0x00": "0x606e048240069c409313318736200b55"
                            }
                        }
                    }
                }
            ]
        },
        "config": {
            "blobSchedule": {
                "Cancun": {
                    "target": "0x03",
                    "max": "0x06",
                    "baseFeeUpdateFraction": "0x32f0ed"
                },
                "Prague": {
                    "target": "0x06",
                    "max": "0x09",
                    "baseFeeUpdateFraction": "0x4c6964"
                },
                "Osaka": {
                    "target": "0x06",
                    "max": "0x09",
                    "baseFeeUpdateFraction": "0x4c6964"
                }
            },
            "chainid": "0x01"
        },
        "_info": {
            "hash": "0x26a5e7aa306673390f27c05430c7cc151aaaded22a73a71451f94dfea2169a1e",
            "comment": "`execution-specs` generated test",
            "filling-transition-tool": "2.18.0rc6",
            "description": "No description available - add a docstring to the python test class or function.",
            "url": "",
            "fixture-format": "state_test"
        }
    },
    "tests/static/state_tests/stRandom/randomStatetest305Filler.json::randomStatetest305[fork_Prague-state_test-]": {
        "env": {
            "currentCoinbase": "0xf913a38f2fe6f7ca05e21e6806bb84eb3429ca6e",
            "currentGasLimit": "0x7fffffffffffffff",
            "currentNumber": "0x01",
            "currentTimestamp": "0x03e8",
            "currentRandom": "0x0000000000000000000000000000000000000000000000000000000000020000",
            "currentDifficulty": "0x00",
            "currentBaseFee": "0x0a",
            "currentExcessBlobGas": "0x00"
        },
        "pre": {
            "0xbe02459be05d26b74baa677ad54dd93e9915a11c": {
                "nonce": "0x00",
                "balance": "0x0de0b6b3a7640000",
                "code": "0x",
                "storage": {}
            },
            "0xf913a38f2fe6f7ca05e21e6806bb84eb3429ca6e": {
                "nonce": "0x00",
                "balance": "0x2e",
                "code": "0x6000355415600957005b60203560003555",
                "storage": {}
            },
            "0xf913a38f2fe6f7ca05e21e6806bb84eb3429cb6e": {
                "nonce": "0x00",
                "balance": "0x00",
                "code": "0x7f000000000000000000000000f913a38f2fe6f7ca05e21e6806bb84eb3429ca6e7f00000000000000000000000100000000000000000000000000000000000000007f000000000000000000000000f913a38f2fe6f7ca05e21e6806bb84eb3429ca6e7fffffffffffffffffffffffffffffffffffffffffffffffffffffffffffffffff7fffffffffffffffffffffffffffffffffffffffffffffffffffffffffffffffff7f000000000000000000000000ffffffffffffffffffffffffffffffffffffffff7f000000000000000000000000f913a38f2fe6f7ca05e21e6806bb84eb3429ca6e7f00000000000000000000000000000000000000000000000000000000000000006f606e048240069c409313318736200b5560005155",
                "storage": {}
            }
        },
        "transaction": {
            "nonce": "0x00",
            "gasPrice": "0x0a",
            "gasLimit": [
                "0x0186a0"
            ],
            "to": "0xf913a38f2fe6f7ca05e21e6806bb84eb3429cb6e",
            "value": [
                "0x0d00d79e"
            ],
            "data": [
                "0x7f000000000000000000000000f913a38f2fe6f7ca05e21e6806bb84eb3429ca6e7f00000000000000000000000100000000000000000000000000000000000000007f000000000000000000000000f913a38f2fe6f7ca05e21e6806bb84eb3429ca6e7fffffffffffffffffffffffffffffffffffffffffffffffffffffffffffffffff7fffffffffffffffffffffffffffffffffffffffffffffffffffffffffffffffff7f000000000000000000000000ffffffffffffffffffffffffffffffffffffffff7f000000000000000000000000f913a38f2fe6f7ca05e21e6806bb84eb3429ca6e7f00000000000000000000000000000000000000000000000000000000000000006f606e048240069c409313318736200b"
            ],
            "sender": "0xbe02459be05d26b74baa677ad54dd93e9915a11c",
            "secretKey": "0x9f706c712f03874544184dacf913a38f2fe6f7ca05e21e6806bb84eb3429ca6e"
        },
        "post": {
            "Prague": [
                {
                    "hash": "0x096d76bd11676dd23843a4f8ad13895ff31e6431a7959b69264e06f53f259776",
                    "logs": "0x1dcc4de8dec75d7aab85b567b6ccd41ad312451b948a7413f0a142fd40d49347",
                    "txbytes": "0xf9017e800a830186a094f913a38f2fe6f7ca05e21e6806bb84eb3429cb6e840d00d79eb901187f000000000000000000000000f913a38f2fe6f7ca05e21e6806bb84eb3429ca6e7f00000000000000000000000100000000000000000000000000000000000000007f000000000000000000000000f913a38f2fe6f7ca05e21e6806bb84eb3429ca6e7fffffffffffffffffffffffffffffffffffffffffffffffffffffffffffffffff7fffffffffffffffffffffffffffffffffffffffffffffffffffffffffffffffff7f000000000000000000000000ffffffffffffffffffffffffffffffffffffffff7f000000000000000000000000f913a38f2fe6f7ca05e21e6806bb84eb3429ca6e7f00000000000000000000000000000000000000000000000000000000000000006f606e048240069c409313318736200b26a0f6d47f8cac015923123267efb828d183dfb236296c4f41291e23e84024dabdd0a0066c8270870a56864b897cee6d4c622f1c3f8b5819e92452af442f42d6799c83",
                    "indexes": {
                        "data": 0,
                        "gas": 0,
                        "value": 0
                    },
                    "state": {
                        "0xbe02459be05d26b74baa677ad54dd93e9915a11c": {
                            "nonce": "0x01",
                            "balance": "0x0de0b6b39a5c186a",
                            "code": "0x",
                            "storage": {}
                        },
                        "0xf913a38f2fe6f7ca05e21e6806bb84eb3429ca6e": {
                            "nonce": "0x00",
                            "balance": "0x2e",
                            "code": "0x6000355415600957005b60203560003555",
                            "storage": {}
                        },
                        "0xf913a38f2fe6f7ca05e21e6806bb84eb3429cb6e": {
                            "nonce": "0x00",
                            "balance": "0x0d00d79e",
                            "code": "0x7f000000000000000000000000f913a38f2fe6f7ca05e21e6806bb84eb3429ca6e7f00000000000000000000000100000000000000000000000000000000000000007f000000000000000000000000f913a38f2fe6f7ca05e21e6806bb84eb3429ca6e7fffffffffffffffffffffffffffffffffffffffffffffffffffffffffffffffff7fffffffffffffffffffffffffffffffffffffffffffffffffffffffffffffffff7f000000000000000000000000ffffffffffffffffffffffffffffffffffffffff7f000000000000000000000000f913a38f2fe6f7ca05e21e6806bb84eb3429ca6e7f00000000000000000000000000000000000000000000000000000000000000006f606e048240069c409313318736200b5560005155",
                            "storage": {
                                "0x00": "0x606e048240069c409313318736200b55"
                            }
                        }
                    }
                }
            ]
        },
        "config": {
            "blobSchedule": {
                "Cancun": {
                    "target": "0x03",
                    "max": "0x06",
                    "baseFeeUpdateFraction": "0x32f0ed"
                },
                "Prague": {
                    "target": "0x06",
                    "max": "0x09",
                    "baseFeeUpdateFraction": "0x4c6964"
                }
            },
            "chainid": "0x01"
        },
        "_info": {
            "hash": "0x634da8184a1eedbcf50c88de2730e929e099f21f38d9fd5e68196af7a5d1e291",
            "comment": "`execution-specs` generated test",
            "filling-transition-tool": "2.18.0rc6",
            "description": "No description available - add a docstring to the python test class or function.",
            "url": "",
            "fixture-format": "state_test"
        }
    }
}