{
    "tests/static/state_tests/stRandom/randomStatetest190Filler.json::randomStatetest190[fork_Cancun-state_test-]": {
        "env": {
            "currentCoinbase": "0xa6e826bb7746365de7825474a99dc57ef8f794b2",
            "currentGasLimit": "0x7fffffffffffffff",
            "currentNumber": "0x01",
            "currentTimestamp": "0x03e8",
            "currentRandom": "0x0000000000000000000000000000000000000000000000000000000000020000",
            "currentDifficulty": "0x00",
            "currentBaseFee": "0x0a",
            "currentExcessBlobGas": "0x00"
        },
        "pre": {
            "0x838a0dfb515748c0a27a1e535b745370ce9bddc2": {
                "nonce": "0x00",
                "balance": "0x0de0b6b3a7640000",
                "code": "0x",
                "storage": {}
            },
            "0xa6e826bb7746365de7825474a99dc57ef8f794b2": {
                "nonce": "0x00",
                "balance": "0x2e",
                "code": "0x6000355415600957005b60203560003555",
                "storage": {}
            },
            "0xa6e826bb7746365de7825474a99dc57ef8f795b2": {
                "nonce": "0x00",
                "balance": "0x00",
                "code": "0x7f000000000000000000000000a6e826bb7746365de7825474a99dc57ef8f794b27ffffffffffffffffffffffffffffffffffffffffffffffffffffffffffffffffe7f00000000000000000000000000000000000000000000000000000000000000007f00000000000000000000000100000000000000000000000000000000000000007f000000000000000000000000a6e826bb7746365de7825474a99dc57ef8f794b27f000000000000000000000000ffffffffffffffffffffffffffffffffffffffff7f000000000000000000000000ffffffffffffffffffffffffffffffffffffffff7fffffffffffffffffffffffffffffffffffffffffffffffffffffffffffffffff0960005155",
                "storage": {}
            }
        },
        "transaction": {
            "nonce": "0x00",
            "gasPrice": "0x0a",
            "gasLimit": [
                "0x0186a0"
            ],
            "to": "0xa6e826bb7746365de7825474a99dc57ef8f795b2",
            "value": [
                "0x05a84170"
            ],
            "data": [
                "0x7f000000000000000000000000a6e826bb7746365de7825474a99dc57ef8f794b27ffffffffffffffffffffffffffffffffffffffffffffffffffffffffffffffffe7f00000000000000000000000000000000000000000000000000000000000000007f00000000000000000000000100000000000000000000000000000000000000007f000000000000000000000000a6e826bb7746365de7825474a99dc57ef8f794b27f000000000000000000000000ffffffffffffffffffffffffffffffffffffffff7f000000000000000000000000ffffffffffffffffffffffffffffffffffffffff7fffffffffffffffffffffffffffffffffffffffffffffffffffffffffffffffff09"
            ],
            "sender": "0x838a0dfb515748c0a27a1e535b745370ce9bddc2",
            "secretKey": "0x586205162bddd30955c4d1bca6e826bb7746365de7825474a99dc57ef8f794b2"
        },
        "post": {
            "Cancun": [
                {
                    "hash": "0xd443db5bf6562d9060787c2ac8a5e1ada43fd3bfaab2c3994f94b33ad90bc1d6",
                    "logs": "0x1dcc4de8dec75d7aab85b567b6ccd41ad312451b948a7413f0a142fd40d49347",
                    "txbytes": "0xf9016f800a830186a094a6e826bb7746365de7825474a99dc57ef8f795b28405a84170b901097f000000000000000000000000a6e826bb7746365de7825474a99dc57ef8f794b27ffffffffffffffffffffffffffffffffffffffffffffffffffffffffffffffffe7f00000000000000000000000000000000000000000000000000000000000000007f00000000000000000000000100000000000000000000000000000000000000007f000000000000000000000000a6e826bb7746365de7825474a99dc57ef8f794b27f000000000000000000000000ffffffffffffffffffffffffffffffffffffffff7f000000000000000000000000ffffffffffffffffffffffffffffffffffffffff7fffffffffffffffffffffffffffffffffffffffffffffffffffffffffffffffff0926a03f018c5c55258c1b4e7e2f47a20cd7c09a0cf117920db9d03b81521da98e4dfba04e13a9b2e02c8324867e74a10e279988b6c705c46d8d4fdc1751fc437ff88200",
                    "indexes": {
                        "data": 0,
                        "gas": 0,
                        "value": 0
                    },
                    "state": {
                        "0x838a0dfb515748c0a27a1e535b745370ce9bddc2": {
                            "nonce": "0x01",
                            "balance": "0x0de0b6b3a1b7c11e",
                            "code": "0x",
                            "storage": {}
                        },
                        "0xa6e826bb7746365de7825474a99dc57ef8f794b2": {
                            "nonce": "0x00",
                            "balance": "0x2e",
                            "code": "0x6000355415600957005b60203560003555",
                            "storage": {}
                        },
                        "0xa6e826bb7746365de7825474a99dc57ef8f795b2": {
                            "nonce": "0x00",
                            "balance": "0x05a84170",
                            "code": "0x7f000000000000000000000000a6e826bb7746365de7825474a99dc57ef8f794b27ffffffffffffffffffffffffffffffffffffffffffffffffffffffffffffffffe7f00000000000000000000000000000000000000000000000000000000000000007f00000000000000000000000100000000000000000000000000000000000000007f000000000000000000000000a6e826bb7746365de7825474a99dc57ef8f794b27f000000000000000000000000ffffffffffffffffffffffffffffffffffffffff7f000000000000000000000000ffffffffffffffffffffffffffffffffffffffff7fffffffffffffffffffffffffffffffffffffffffffffffffffffffffffffffff0960005155",
                            "storage": {}
                        }
                    }
                }
            ]
        },
        "config": {
            "blobSchedule": {
                "Cancun": {
                    "target": "0x03",
                    "max": "0x06",
                    "baseFeeUpdateFraction": "0x32f0ed"
                }
            },
            "chainid": "0x01"
        },
        "_info": {
            "hash": "0x26ae81f8f08f4657730541fed1b6ca188419f26431627fe9e4c98790ede7e835",
            "comment": "`execution-spec-tests` generated test",
            "filling-transition-tool": "ethereum-spec-evm-resolver 0.0.5",
            "description": "No description available - add a docstring to the python test class or function.",
            "url": "",
            "fixture-format": "state_test",
            "eels-resolution": {
                "git-url": "https://github.com/marioevz/execution-specs.git",
                "branch": "forks/bpo1",
                "commit": "3387e5f4aedfe99becfdc39b444d6371e25e0924"
            }
        }
    },
    "tests/static/state_tests/stRandom/randomStatetest190Filler.json::randomStatetest190[fork_Osaka-state_test-]": {
        "env": {
            "currentCoinbase": "0xa6e826bb7746365de7825474a99dc57ef8f794b2",
            "currentGasLimit": "0x7fffffffffffffff",
            "currentNumber": "0x01",
            "currentTimestamp": "0x03e8",
            "currentRandom": "0x0000000000000000000000000000000000000000000000000000000000020000",
            "currentDifficulty": "0x00",
            "currentBaseFee": "0x0a",
            "currentExcessBlobGas": "0x00"
        },
        "pre": {
            "0x838a0dfb515748c0a27a1e535b745370ce9bddc2": {
                "nonce": "0x00",
                "balance": "0x0de0b6b3a7640000",
                "code": "0x",
                "storage": {}
            },
            "0xa6e826bb7746365de7825474a99dc57ef8f794b2": {
                "nonce": "0x00",
                "balance": "0x2e",
                "code": "0x6000355415600957005b60203560003555",
                "storage": {}
            },
            "0xa6e826bb7746365de7825474a99dc57ef8f795b2": {
                "nonce": "0x00",
                "balance": "0x00",
                "code": "0x7f000000000000000000000000a6e826bb7746365de7825474a99dc57ef8f794b27ffffffffffffffffffffffffffffffffffffffffffffffffffffffffffffffffe7f00000000000000000000000000000000000000000000000000000000000000007f00000000000000000000000100000000000000000000000000000000000000007f000000000000000000000000a6e826bb7746365de7825474a99dc57ef8f794b27f000000000000000000000000ffffffffffffffffffffffffffffffffffffffff7f000000000000000000000000ffffffffffffffffffffffffffffffffffffffff7fffffffffffffffffffffffffffffffffffffffffffffffffffffffffffffffff0960005155",
                "storage": {}
            }
        },
        "transaction": {
            "nonce": "0x00",
            "gasPrice": "0x0a",
            "gasLimit": [
                "0x0186a0"
            ],
            "to": "0xa6e826bb7746365de7825474a99dc57ef8f795b2",
            "value": [
                "0x05a84170"
            ],
            "data": [
                "0x7f000000000000000000000000a6e826bb7746365de7825474a99dc57ef8f794b27ffffffffffffffffffffffffffffffffffffffffffffffffffffffffffffffffe7f00000000000000000000000000000000000000000000000000000000000000007f00000000000000000000000100000000000000000000000000000000000000007f000000000000000000000000a6e826bb7746365de7825474a99dc57ef8f794b27f000000000000000000000000ffffffffffffffffffffffffffffffffffffffff7f000000000000000000000000ffffffffffffffffffffffffffffffffffffffff7fffffffffffffffffffffffffffffffffffffffffffffffffffffffffffffffff09"
            ],
            "sender": "0x838a0dfb515748c0a27a1e535b745370ce9bddc2",
            "secretKey": "0x586205162bddd30955c4d1bca6e826bb7746365de7825474a99dc57ef8f794b2"
        },
        "post": {
            "Osaka": [
                {
                    "hash": "0xe50c1ed6d15c20ada31ae5f4dea91435031880c570ad4ae028ef9b546d27c0a8",
                    "logs": "0x1dcc4de8dec75d7aab85b567b6ccd41ad312451b948a7413f0a142fd40d49347",
                    "txbytes": "0xf9016f800a830186a094a6e826bb7746365de7825474a99dc57ef8f795b28405a84170b901097f000000000000000000000000a6e826bb7746365de7825474a99dc57ef8f794b27ffffffffffffffffffffffffffffffffffffffffffffffffffffffffffffffffe7f00000000000000000000000000000000000000000000000000000000000000007f00000000000000000000000100000000000000000000000000000000000000007f000000000000000000000000a6e826bb7746365de7825474a99dc57ef8f794b27f000000000000000000000000ffffffffffffffffffffffffffffffffffffffff7f000000000000000000000000ffffffffffffffffffffffffffffffffffffffff7fffffffffffffffffffffffffffffffffffffffffffffffffffffffffffffffff0926a03f018c5c55258c1b4e7e2f47a20cd7c09a0cf117920db9d03b81521da98e4dfba04e13a9b2e02c8324867e74a10e279988b6c705c46d8d4fdc1751fc437ff88200",
                    "indexes": {
                        "data": 0,
                        "gas": 0,
                        "value": 0
                    },
                    "state": {
                        "0x838a0dfb515748c0a27a1e535b745370ce9bddc2": {
                            "nonce": "0x01",
                            "balance": "0x0de0b6b3a1b76e44",
                            "code": "0x",
                            "storage": {}
                        },
                        "0xa6e826bb7746365de7825474a99dc57ef8f794b2": {
                            "nonce": "0x00",
                            "balance": "0x2e",
                            "code": "0x6000355415600957005b60203560003555",
                            "storage": {}
                        },
                        "0xa6e826bb7746365de7825474a99dc57ef8f795b2": {
                            "nonce": "0x00",
                            "balance": "0x05a84170",
                            "code": "0x7f000000000000000000000000a6e826bb7746365de7825474a99dc57ef8f794b27ffffffffffffffffffffffffffffffffffffffffffffffffffffffffffffffffe7f00000000000000000000000000000000000000000000000000000000000000007f00000000000000000000000100000000000000000000000000000000000000007f000000000000000000000000a6e826bb7746365de7825474a99dc57ef8f794b27f000000000000000000000000ffffffffffffffffffffffffffffffffffffffff7f000000000000000000000000ffffffffffffffffffffffffffffffffffffffff7fffffffffffffffffffffffffffffffffffffffffffffffffffffffffffffffff0960005155",
                            "storage": {}
                        }
                    }
                }
            ]
        },
        "config": {
            "blobSchedule": {
                "Cancun": {
                    "target": "0x03",
                    "max": "0x06",
                    "baseFeeUpdateFraction": "0x32f0ed"
                },
                "Prague": {
                    "target": "0x06",
                    "max": "0x09",
                    "baseFeeUpdateFraction": "0x4c6964"
                },
                "Osaka": {
                    "target": "0x06",
                    "max": "0x09",
                    "baseFeeUpdateFraction": "0x4c6964"
                }
            },
            "chainid": "0x01"
        },
        "_info": {
            "hash": "0x3277cd8733a2a5fb709677e7b3ee1a662c636012cc0db3918d271d8351bf348f",
            "comment": "`execution-spec-tests` generated test",
            "filling-transition-tool": "ethereum-spec-evm-resolver 0.0.5",
            "description": "No description available - add a docstring to the python test class or function.",
            "url": "",
            "fixture-format": "state_test",
            "eels-resolution": {
                "git-url": "https://github.com/marioevz/execution-specs.git",
                "branch": "forks/bpo1",
                "commit": "3387e5f4aedfe99becfdc39b444d6371e25e0924"
            }
        }
    },
    "tests/static/state_tests/stRandom/randomStatetest190Filler.json::randomStatetest190[fork_Prague-state_test-]": {
        "env": {
            "currentCoinbase": "0xa6e826bb7746365de7825474a99dc57ef8f794b2",
            "currentGasLimit": "0x7fffffffffffffff",
            "currentNumber": "0x01",
            "currentTimestamp": "0x03e8",
            "currentRandom": "0x0000000000000000000000000000000000000000000000000000000000020000",
            "currentDifficulty": "0x00",
            "currentBaseFee": "0x0a",
            "currentExcessBlobGas": "0x00"
        },
        "pre": {
            "0x838a0dfb515748c0a27a1e535b745370ce9bddc2": {
                "nonce": "0x00",
                "balance": "0x0de0b6b3a7640000",
                "code": "0x",
                "storage": {}
            },
            "0xa6e826bb7746365de7825474a99dc57ef8f794b2": {
                "nonce": "0x00",
                "balance": "0x2e",
                "code": "0x6000355415600957005b60203560003555",
                "storage": {}
            },
            "0xa6e826bb7746365de7825474a99dc57ef8f795b2": {
                "nonce": "0x00",
                "balance": "0x00",
                "code": "0x7f000000000000000000000000a6e826bb7746365de7825474a99dc57ef8f794b27ffffffffffffffffffffffffffffffffffffffffffffffffffffffffffffffffe7f00000000000000000000000000000000000000000000000000000000000000007f00000000000000000000000100000000000000000000000000000000000000007f000000000000000000000000a6e826bb7746365de7825474a99dc57ef8f794b27f000000000000000000000000ffffffffffffffffffffffffffffffffffffffff7f000000000000000000000000ffffffffffffffffffffffffffffffffffffffff7fffffffffffffffffffffffffffffffffffffffffffffffffffffffffffffffff0960005155",
                "storage": {}
            }
        },
        "transaction": {
            "nonce": "0x00",
            "gasPrice": "0x0a",
            "gasLimit": [
                "0x0186a0"
            ],
            "to": "0xa6e826bb7746365de7825474a99dc57ef8f795b2",
            "value": [
                "0x05a84170"
            ],
            "data": [
                "0x7f000000000000000000000000a6e826bb7746365de7825474a99dc57ef8f794b27ffffffffffffffffffffffffffffffffffffffffffffffffffffffffffffffffe7f00000000000000000000000000000000000000000000000000000000000000007f00000000000000000000000100000000000000000000000000000000000000007f000000000000000000000000a6e826bb7746365de7825474a99dc57ef8f794b27f000000000000000000000000ffffffffffffffffffffffffffffffffffffffff7f000000000000000000000000ffffffffffffffffffffffffffffffffffffffff7fffffffffffffffffffffffffffffffffffffffffffffffffffffffffffffffff09"
            ],
            "sender": "0x838a0dfb515748c0a27a1e535b745370ce9bddc2",
            "secretKey": "0x586205162bddd30955c4d1bca6e826bb7746365de7825474a99dc57ef8f794b2"
        },
        "post": {
            "Prague": [
                {
                    "hash": "0xe50c1ed6d15c20ada31ae5f4dea91435031880c570ad4ae028ef9b546d27c0a8",
                    "logs": "0x1dcc4de8dec75d7aab85b567b6ccd41ad312451b948a7413f0a142fd40d49347",
                    "txbytes": "0xf9016f800a830186a094a6e826bb7746365de7825474a99dc57ef8f795b28405a84170b901097f000000000000000000000000a6e826bb7746365de7825474a99dc57ef8f794b27ffffffffffffffffffffffffffffffffffffffffffffffffffffffffffffffffe7f00000000000000000000000000000000000000000000000000000000000000007f00000000000000000000000100000000000000000000000000000000000000007f000000000000000000000000a6e826bb7746365de7825474a99dc57ef8f794b27f000000000000000000000000ffffffffffffffffffffffffffffffffffffffff7f000000000000000000000000ffffffffffffffffffffffffffffffffffffffff7fffffffffffffffffffffffffffffffffffffffffffffffffffffffffffffffff0926a03f018c5c55258c1b4e7e2f47a20cd7c09a0cf117920db9d03b81521da98e4dfba04e13a9b2e02c8324867e74a10e279988b6c705c46d8d4fdc1751fc437ff88200",
                    "indexes": {
                        "data": 0,
                        "gas": 0,
                        "value": 0
                    },
                    "state": {
                        "0x838a0dfb515748c0a27a1e535b745370ce9bddc2": {
                            "nonce": "0x01",
                            "balance": "0x0de0b6b3a1b76e44",
                            "code": "0x",
                            "storage": {}
                        },
                        "0xa6e826bb7746365de7825474a99dc57ef8f794b2": {
                            "nonce": "0x00",
                            "balance": "0x2e",
                            "code": "0x6000355415600957005b60203560003555",
                            "storage": {}
                        },
                        "0xa6e826bb7746365de7825474a99dc57ef8f795b2": {
                            "nonce": "0x00",
                            "balance": "0x05a84170",
                            "code": "0x7f000000000000000000000000a6e826bb7746365de7825474a99dc57ef8f794b27ffffffffffffffffffffffffffffffffffffffffffffffffffffffffffffffffe7f00000000000000000000000000000000000000000000000000000000000000007f00000000000000000000000100000000000000000000000000000000000000007f000000000000000000000000a6e826bb7746365de7825474a99dc57ef8f794b27f000000000000000000000000ffffffffffffffffffffffffffffffffffffffff7f000000000000000000000000ffffffffffffffffffffffffffffffffffffffff7fffffffffffffffffffffffffffffffffffffffffffffffffffffffffffffffff0960005155",
                            "storage": {}
                        }
                    }
                }
            ]
        },
        "config": {
            "blobSchedule": {
                "Cancun": {
                    "target": "0x03",
                    "max": "0x06",
                    "baseFeeUpdateFraction": "0x32f0ed"
                },
                "Prague": {
                    "target": "0x06",
                    "max": "0x09",
                    "baseFeeUpdateFraction": "0x4c6964"
                }
            },
            "chainid": "0x01"
        },
        "_info": {
            "hash": "0xda5d58fcd1034edd457f7a99adafc88817271a81b0e0789cea198e54b2541912",
            "comment": "`execution-spec-tests` generated test",
            "filling-transition-tool": "ethereum-spec-evm-resolver 0.0.5",
            "description": "No description available - add a docstring to the python test class or function.",
            "url": "",
            "fixture-format": "state_test",
            "eels-resolution": {
                "git-url": "https://github.com/marioevz/execution-specs.git",
                "branch": "forks/bpo1",
                "commit": "3387e5f4aedfe99becfdc39b444d6371e25e0924"
            }
        }
    }
}