{
    "tests/static/state_tests/stRandom/randomStatetest156Filler.json::randomStatetest156[fork_Cancun-state_test-]": {
        "env": {
            "currentCoinbase": "0xbbff4cf9e6c6bc483834e1b9bfca9b2a5dad9b02",
            "currentGasLimit": "0x7fffffffffffffff",
            "currentNumber": "0x01",
            "currentTimestamp": "0x03e8",
            "currentRandom": "0x0000000000000000000000000000000000000000000000000000000000020000",
            "currentDifficulty": "0x00",
            "currentBaseFee": "0x0a",
            "currentExcessBlobGas": "0x00"
        },
        "pre": {
            "0x37beb5efca8b4bbd3001904e372671add28cc736": {
                "nonce": "0x00",
                "balance": "0x0de0b6b3a7640000",
                "code": "0x",
                "storage": {}
            },
            "0xbbff4cf9e6c6bc483834e1b9bfca9b2a5dad9b02": {
                "nonce": "0x00",
                "balance": "0x2e",
                "code": "0x6000355415600957005b60203560003555",
                "storage": {}
            },
            "0xbbff4cf9e6c6bc483834e1b9bfca9b2a5dad9c02": {
                "nonce": "0x00",
                "balance": "0x00",
                "code": "0x7f00000000000000000000000000000000000000000000000000000000000000007f000000000000000000000000ffffffffffffffffffffffffffffffffffffffff7f000000000000000000000000ffffffffffffffffffffffffffffffffffffffff7f000000000000000000000000000000000000000000000000000000000000c3507f00000000000000000000000100000000000000000000000000000000000000007f000000000000000000000000000000000000000000000000000000000000c3506f813982583141966b389c159aa48b3a8860005155",
                "storage": {}
            }
        },
        "transaction": {
            "nonce": "0x00",
            "gasPrice": "0x0a",
            "gasLimit": [
                "0x0186a0"
            ],
            "to": "0xbbff4cf9e6c6bc483834e1b9bfca9b2a5dad9c02",
            "value": [
                "0x7ffe6411"
            ],
            "data": [
                "0x7f00000000000000000000000000000000000000000000000000000000000000007f000000000000000000000000ffffffffffffffffffffffffffffffffffffffff7f000000000000000000000000ffffffffffffffffffffffffffffffffffffffff7f000000000000000000000000000000000000000000000000000000000000c3507f00000000000000000000000100000000000000000000000000000000000000007f000000000000000000000000000000000000000000000000000000000000c3506f813982583141966b389c159aa48b3a88"
            ],
            "sender": "0x37beb5efca8b4bbd3001904e372671add28cc736",
            "secretKey": "0x764fae717ea716f7e7a14969bbff4cf9e6c6bc483834e1b9bfca9b2a5dad9b02"
        },
        "post": {
            "Cancun": [
                {
                    "hash": "0xa51f238c99e2275b286f79e4ad4882cd758334325f5eed249b75f19e275542a7",
                    "logs": "0x1dcc4de8dec75d7aab85b567b6ccd41ad312451b948a7413f0a142fd40d49347",
                    "txbytes": "0xf9013c800a830186a094bbff4cf9e6c6bc483834e1b9bfca9b2a5dad9c02847ffe6411b8d77f00000000000000000000000000000000000000000000000000000000000000007f000000000000000000000000ffffffffffffffffffffffffffffffffffffffff7f000000000000000000000000ffffffffffffffffffffffffffffffffffffffff7f000000000000000000000000000000000000000000000000000000000000c3507f00000000000000000000000100000000000000000000000000000000000000007f000000000000000000000000000000000000000000000000000000000000c3506f813982583141966b389c159aa48b3a8825a085d1f633715a5b546a13cb4fa6639a6dda8c711c0022bcc44a8582b98d50e236a0337d1b23e089ad2c348d1c1b06adedae6f5da8051c59269d3a218ec05cb9d7ec",
                    "indexes": {
                        "data": 0,
                        "gas": 0,
                        "value": 0
                    },
                    "state": {
                        "0x37beb5efca8b4bbd3001904e372671add28cc736": {
                            "nonce": "0x01",
                            "balance": "0x0de0b6b3275ec5b3",
                            "code": "0x",
                            "storage": {}
                        },
                        "0xbbff4cf9e6c6bc483834e1b9bfca9b2a5dad9b02": {
                            "nonce": "0x00",
                            "balance": "0x2e",
                            "code": "0x6000355415600957005b60203560003555",
                            "storage": {}
                        },
                        "0xbbff4cf9e6c6bc483834e1b9bfca9b2a5dad9c02": {
                            "nonce": "0x00",
                            "balance": "0x7ffe6411",
                            "code": "0x7f00000000000000000000000000000000000000000000000000000000000000007f000000000000000000000000ffffffffffffffffffffffffffffffffffffffff7f000000000000000000000000ffffffffffffffffffffffffffffffffffffffff7f000000000000000000000000000000000000000000000000000000000000c3507f00000000000000000000000100000000000000000000000000000000000000007f000000000000000000000000000000000000000000000000000000000000c3506f813982583141966b389c159aa48b3a8860005155",
                            "storage": {
                                "0x00": "0x813982583141966b389c159aa48b3a88"
                            }
                        }
                    }
                }
            ]
        },
        "config": {
            "blobSchedule": {
                "Cancun": {
                    "target": "0x03",
                    "max": "0x06",
                    "baseFeeUpdateFraction": "0x32f0ed"
                }
            },
            "chainid": "0x01"
        },
        "_info": {
            "hash": "0xb42451565a4ed63e1b0a372e97e9c9024aac8f90bae67ec986527ecb9be21a30",
            "comment": "`execution-spec-tests` generated test",
            "filling-transition-tool": "ethereum-spec-evm-resolver 0.0.5",
            "description": "No description available - add a docstring to the python test class or function.",
            "url": "",
            "fixture-format": "state_test",
            "eels-resolution": {
                "git-url": "https://github.com/marioevz/execution-specs.git",
                "branch": "forks/bpo1",
                "commit": "3387e5f4aedfe99becfdc39b444d6371e25e0924"
            }
        }
    },
    "tests/static/state_tests/stRandom/randomStatetest156Filler.json::randomStatetest156[fork_Osaka-state_test-]": {
        "env": {
            "currentCoinbase": "0xbbff4cf9e6c6bc483834e1b9bfca9b2a5dad9b02",
            "currentGasLimit": "0x7fffffffffffffff",
            "currentNumber": "0x01",
            "currentTimestamp": "0x03e8",
            "currentRandom": "0x0000000000000000000000000000000000000000000000000000000000020000",
            "currentDifficulty": "0x00",
            "currentBaseFee": "0x0a",
            "currentExcessBlobGas": "0x00"
        },
        "pre": {
            "0x37beb5efca8b4bbd3001904e372671add28cc736": {
                "nonce": "0x00",
                "balance": "0x0de0b6b3a7640000",
                "code": "0x",
                "storage": {}
            },
            "0xbbff4cf9e6c6bc483834e1b9bfca9b2a5dad9b02": {
                "nonce": "0x00",
                "balance": "0x2e",
                "code": "0x6000355415600957005b60203560003555",
                "storage": {}
            },
            "0xbbff4cf9e6c6bc483834e1b9bfca9b2a5dad9c02": {
                "nonce": "0x00",
                "balance": "0x00",
                "code": "0x7f00000000000000000000000000000000000000000000000000000000000000007f000000000000000000000000ffffffffffffffffffffffffffffffffffffffff7f000000000000000000000000ffffffffffffffffffffffffffffffffffffffff7f000000000000000000000000000000000000000000000000000000000000c3507f00000000000000000000000100000000000000000000000000000000000000007f000000000000000000000000000000000000000000000000000000000000c3506f813982583141966b389c159aa48b3a8860005155",
                "storage": {}
            }
        },
        "transaction": {
            "nonce": "0x00",
            "gasPrice": "0x0a",
            "gasLimit": [
                "0x0186a0"
            ],
            "to": "0xbbff4cf9e6c6bc483834e1b9bfca9b2a5dad9c02",
            "value": [
                "0x7ffe6411"
            ],
            "data": [
                "0x7f00000000000000000000000000000000000000000000000000000000000000007f000000000000000000000000ffffffffffffffffffffffffffffffffffffffff7f000000000000000000000000ffffffffffffffffffffffffffffffffffffffff7f000000000000000000000000000000000000000000000000000000000000c3507f00000000000000000000000100000000000000000000000000000000000000007f000000000000000000000000000000000000000000000000000000000000c3506f813982583141966b389c159aa48b3a88"
            ],
            "sender": "0x37beb5efca8b4bbd3001904e372671add28cc736",
            "secretKey": "0x764fae717ea716f7e7a14969bbff4cf9e6c6bc483834e1b9bfca9b2a5dad9b02"
        },
        "post": {
            "Osaka": [
                {
                    "hash": "0xa51f238c99e2275b286f79e4ad4882cd758334325f5eed249b75f19e275542a7",
                    "logs": "0x1dcc4de8dec75d7aab85b567b6ccd41ad312451b948a7413f0a142fd40d49347",
                    "txbytes": "0xf9013c800a830186a094bbff4cf9e6c6bc483834e1b9bfca9b2a5dad9c02847ffe6411b8d77f00000000000000000000000000000000000000000000000000000000000000007f000000000000000000000000ffffffffffffffffffffffffffffffffffffffff7f000000000000000000000000ffffffffffffffffffffffffffffffffffffffff7f000000000000000000000000000000000000000000000000000000000000c3507f00000000000000000000000100000000000000000000000000000000000000007f000000000000000000000000000000000000000000000000000000000000c3506f813982583141966b389c159aa48b3a8825a085d1f633715a5b546a13cb4fa6639a6dda8c711c0022bcc44a8582b98d50e236a0337d1b23e089ad2c348d1c1b06adedae6f5da8051c59269d3a218ec05cb9d7ec",
                    "indexes": {
                        "data": 0,
                        "gas": 0,
                        "value": 0
                    },
                    "state": {
                        "0x37beb5efca8b4bbd3001904e372671add28cc736": {
                            "nonce": "0x01",
                            "balance": "0x0de0b6b3275ec5b3",
                            "code": "0x",
                            "storage": {}
                        },
                        "0xbbff4cf9e6c6bc483834e1b9bfca9b2a5dad9b02": {
                            "nonce": "0x00",
                            "balance": "0x2e",
                            "code": "0x6000355415600957005b60203560003555",
                            "storage": {}
                        },
                        "0xbbff4cf9e6c6bc483834e1b9bfca9b2a5dad9c02": {
                            "nonce": "0x00",
                            "balance": "0x7ffe6411",
                            "code": "0x7f00000000000000000000000000000000000000000000000000000000000000007f000000000000000000000000ffffffffffffffffffffffffffffffffffffffff7f000000000000000000000000ffffffffffffffffffffffffffffffffffffffff7f000000000000000000000000000000000000000000000000000000000000c3507f00000000000000000000000100000000000000000000000000000000000000007f000000000000000000000000000000000000000000000000000000000000c3506f813982583141966b389c159aa48b3a8860005155",
                            "storage": {
                                "0x00": "0x813982583141966b389c159aa48b3a88"
                            }
                        }
                    }
                }
            ]
        },
        "config": {
            "blobSchedule": {
                "Cancun": {
                    "target": "0x03",
                    "max": "0x06",
                    "baseFeeUpdateFraction": "0x32f0ed"
                },
                "Prague": {
                    "target": "0x06",
                    "max": "0x09",
                    "baseFeeUpdateFraction": "0x4c6964"
                },
                "Osaka": {
                    "target": "0x06",
                    "max": "0x09",
                    "baseFeeUpdateFraction": "0x4c6964"
                }
            },
            "chainid": "0x01"
        },
        "_info": {
            "hash": "0x00a8e728c2ff54020070cb2ba0d220593a8c96a16908556fc008195106c9a066",
            "comment": "`execution-spec-tests` generated test",
            "filling-transition-tool": "ethereum-spec-evm-resolver 0.0.5",
            "description": "No description available - add a docstring to the python test class or function.",
            "url": "",
            "fixture-format": "state_test",
            "eels-resolution": {
                "git-url": "https://github.com/marioevz/execution-specs.git",
                "branch": "forks/bpo1",
                "commit": "3387e5f4aedfe99becfdc39b444d6371e25e0924"
            }
        }
    },
    "tests/static/state_tests/stRandom/randomStatetest156Filler.json::randomStatetest156[fork_Prague-state_test-]": {
        "env": {
            "currentCoinbase": "0xbbff4cf9e6c6bc483834e1b9bfca9b2a5dad9b02",
            "currentGasLimit": "0x7fffffffffffffff",
            "currentNumber": "0x01",
            "currentTimestamp": "0x03e8",
            "currentRandom": "0x0000000000000000000000000000000000000000000000000000000000020000",
            "currentDifficulty": "0x00",
            "currentBaseFee": "0x0a",
            "currentExcessBlobGas": "0x00"
        },
        "pre": {
            "0x37beb5efca8b4bbd3001904e372671add28cc736": {
                "nonce": "0x00",
                "balance": "0x0de0b6b3a7640000",
                "code": "0x",
                "storage": {}
            },
            "0xbbff4cf9e6c6bc483834e1b9bfca9b2a5dad9b02": {
                "nonce": "0x00",
                "balance": "0x2e",
                "code": "0x6000355415600957005b60203560003555",
                "storage": {}
            },
            "0xbbff4cf9e6c6bc483834e1b9bfca9b2a5dad9c02": {
                "nonce": "0x00",
                "balance": "0x00",
                "code": "0x7f00000000000000000000000000000000000000000000000000000000000000007f000000000000000000000000ffffffffffffffffffffffffffffffffffffffff7f000000000000000000000000ffffffffffffffffffffffffffffffffffffffff7f000000000000000000000000000000000000000000000000000000000000c3507f00000000000000000000000100000000000000000000000000000000000000007f000000000000000000000000000000000000000000000000000000000000c3506f813982583141966b389c159aa48b3a8860005155",
                "storage": {}
            }
        },
        "transaction": {
            "nonce": "0x00",
            "gasPrice": "0x0a",
            "gasLimit": [
                "0x0186a0"
            ],
            "to": "0xbbff4cf9e6c6bc483834e1b9bfca9b2a5dad9c02",
            "value": [
                "0x7ffe6411"
            ],
            "data": [
                "0x7f00000000000000000000000000000000000000000000000000000000000000007f000000000000000000000000ffffffffffffffffffffffffffffffffffffffff7f000000000000000000000000ffffffffffffffffffffffffffffffffffffffff7f000000000000000000000000000000000000000000000000000000000000c3507f00000000000000000000000100000000000000000000000000000000000000007f000000000000000000000000000000000000000000000000000000000000c3506f813982583141966b389c159aa48b3a88"
            ],
            "sender": "0x37beb5efca8b4bbd3001904e372671add28cc736",
            "secretKey": "0x764fae717ea716f7e7a14969bbff4cf9e6c6bc483834e1b9bfca9b2a5dad9b02"
        },
        "post": {
            "Prague": [
                {
                    "hash": "0xa51f238c99e2275b286f79e4ad4882cd758334325f5eed249b75f19e275542a7",
                    "logs": "0x1dcc4de8dec75d7aab85b567b6ccd41ad312451b948a7413f0a142fd40d49347",
                    "txbytes": "0xf9013c800a830186a094bbff4cf9e6c6bc483834e1b9bfca9b2a5dad9c02847ffe6411b8d77f00000000000000000000000000000000000000000000000000000000000000007f000000000000000000000000ffffffffffffffffffffffffffffffffffffffff7f000000000000000000000000ffffffffffffffffffffffffffffffffffffffff7f000000000000000000000000000000000000000000000000000000000000c3507f00000000000000000000000100000000000000000000000000000000000000007f000000000000000000000000000000000000000000000000000000000000c3506f813982583141966b389c159aa48b3a8825a085d1f633715a5b546a13cb4fa6639a6dda8c711c0022bcc44a8582b98d50e236a0337d1b23e089ad2c348d1c1b06adedae6f5da8051c59269d3a218ec05cb9d7ec",
                    "indexes": {
                        "data": 0,
                        "gas": 0,
                        "value": 0
                    },
                    "state": {
                        "0x37beb5efca8b4bbd3001904e372671add28cc736": {
                            "nonce": "0x01",
                            "balance": "0x0de0b6b3275ec5b3",
                            "code": "0x",
                            "storage": {}
                        },
                        "0xbbff4cf9e6c6bc483834e1b9bfca9b2a5dad9b02": {
                            "nonce": "0x00",
                            "balance": "0x2e",
                            "code": "0x6000355415600957005b60203560003555",
                            "storage": {}
                        },
                        "0xbbff4cf9e6c6bc483834e1b9bfca9b2a5dad9c02": {
                            "nonce": "0x00",
                            "balance": "0x7ffe6411",
                            "code": "0x7f00000000000000000000000000000000000000000000000000000000000000007f000000000000000000000000ffffffffffffffffffffffffffffffffffffffff7f000000000000000000000000ffffffffffffffffffffffffffffffffffffffff7f000000000000000000000000000000000000000000000000000000000000c3507f00000000000000000000000100000000000000000000000000000000000000007f000000000000000000000000000000000000000000000000000000000000c3506f813982583141966b389c159aa48b3a8860005155",
                            "storage": {
                                "0x00": "0x813982583141966b389c159aa48b3a88"
                            }
                        }
                    }
                }
            ]
        },
        "config": {
            "blobSchedule": {
                "Cancun": {
                    "target": "0x03",
                    "max": "0x06",
                    "baseFeeUpdateFraction": "0x32f0ed"
                },
                "Prague": {
                    "target": "0x06",
                    "max": "0x09",
                    "baseFeeUpdateFraction": "0x4c6964"
                }
            },
            "chainid": "0x01"
        },
        "_info": {
            "hash": "0x07534e265bfa71a33afad0b2b3c50e8a3ce7d945040ca52c2443e0f3f79ddc27",
            "comment": "`execution-spec-tests` generated test",
            "filling-transition-tool": "ethereum-spec-evm-resolver 0.0.5",
            "description": "No description available - add a docstring to the python test class or function.",
            "url": "",
            "fixture-format": "state_test",
            "eels-resolution": {
                "git-url": "https://github.com/marioevz/execution-specs.git",
                "branch": "forks/bpo1",
                "commit": "3387e5f4aedfe99becfdc39b444d6371e25e0924"
            }
        }
    }
}