{
    "tests/static/state_tests/stRandom/randomStatetest329Filler.json::randomStatetest329[fork_Cancun-state_test-]": {
        "env": {
            "currentCoinbase": "0xc1e033746405eac1bcdf4606e0b45fe04364b93e",
            "currentGasLimit": "0x7fffffffffffffff",
            "currentNumber": "0x01",
            "currentTimestamp": "0x03e8",
            "currentRandom": "0x0000000000000000000000000000000000000000000000000000000000020000",
            "currentDifficulty": "0x00",
            "currentBaseFee": "0x0a",
            "currentExcessBlobGas": "0x00"
        },
        "pre": {
            "0x3c290279386d09f905704f38d08370e0e628827c": {
                "nonce": "0x00",
                "balance": "0x0de0b6b3a7640000",
                "code": "0x",
                "storage": {}
            },
            "0xc1e033746405eac1bcdf4606e0b45fe04364b93e": {
                "nonce": "0x00",
                "balance": "0x2e",
                "code": "0x6000355415600957005b60203560003555",
                "storage": {}
            },
            "0xc1e033746405eac1bcdf4606e0b45fe04364ba3e": {
                "nonce": "0x00",
                "balance": "0x00",
                "code": "0x7f000000000000000000000000ffffffffffffffffffffffffffffffffffffffff7f00000000000000000000000000000000000000000000000000000000000000007f000000000000000000000000000000000000000000000000000000000000c3507ffffffffffffffffffffffffffffffffffffffffffffffffffffffffffffffffe7f000000000000000000000000c1e033746405eac1bcdf4606e0b45fe04364b93e7f00000000000000000000000000000000000000000000000000000000000000007f000000000000000000000000ffffffffffffffffffffffffffffffffffffffff426fa48d775458574133769c8b750207ff5560005155",
                "storage": {}
            }
        },
        "transaction": {
            "nonce": "0x00",
            "gasPrice": "0x0a",
            "gasLimit": [
                "0x0186a0"
            ],
            "to": "0xc1e033746405eac1bcdf4606e0b45fe04364ba3e",
            "value": [
                "0x5b5a0b6c"
            ],
            "data": [
                "0x7f000000000000000000000000ffffffffffffffffffffffffffffffffffffffff7f00000000000000000000000000000000000000000000000000000000000000007f000000000000000000000000000000000000000000000000000000000000c3507ffffffffffffffffffffffffffffffffffffffffffffffffffffffffffffffffe7f000000000000000000000000c1e033746405eac1bcdf4606e0b45fe04364b93e7f00000000000000000000000000000000000000000000000000000000000000007f000000000000000000000000ffffffffffffffffffffffffffffffffffffffff426fa48d775458574133769c8b750207ff"
            ],
            "sender": "0x3c290279386d09f905704f38d08370e0e628827c",
            "secretKey": "0xe6e783847f1489418f741d54c1e033746405eac1bcdf4606e0b45fe04364b93e"
        },
        "post": {
            "Cancun": [
                {
                    "hash": "0x6b5722edef4a751622a003ce824d195f398d2816a17d622b6933b13e44ab0c69",
                    "logs": "0x1dcc4de8dec75d7aab85b567b6ccd41ad312451b948a7413f0a142fd40d49347",
                    "txbytes": "0xf9015d800a830186a094c1e033746405eac1bcdf4606e0b45fe04364ba3e845b5a0b6cb8f87f000000000000000000000000ffffffffffffffffffffffffffffffffffffffff7f00000000000000000000000000000000000000000000000000000000000000007f000000000000000000000000000000000000000000000000000000000000c3507ffffffffffffffffffffffffffffffffffffffffffffffffffffffffffffffffe7f000000000000000000000000c1e033746405eac1bcdf4606e0b45fe04364b93e7f00000000000000000000000000000000000000000000000000000000000000007f000000000000000000000000ffffffffffffffffffffffffffffffffffffffff426fa48d775458574133769c8b750207ff25a04e488a6489b124b89b511338f246a8c5639539297e53c93a44d2194a09c2d5c4a071786aa9e4983e2e8db40b69868adb4df8fa9344405481da2c2538a532e0f20a",
                    "indexes": {
                        "data": 0,
                        "gas": 0,
                        "value": 0
                    },
                    "state": {
                        "0x3c290279386d09f905704f38d08370e0e628827c": {
                            "nonce": "0x01",
                            "balance": "0x0de0b6b34c03018e",
                            "code": "0x",
                            "storage": {}
                        },
                        "0xc1e033746405eac1bcdf4606e0b45fe04364b93e": {
                            "nonce": "0x00",
                            "balance": "0x2e",
                            "code": "0x6000355415600957005b60203560003555",
                            "storage": {}
                        },
                        "0xc1e033746405eac1bcdf4606e0b45fe04364ba3e": {
                            "nonce": "0x00",
                            "balance": "0x5b5a0b6c",
                            "code": "0x7f000000000000000000000000ffffffffffffffffffffffffffffffffffffffff7f00000000000000000000000000000000000000000000000000000000000000007f000000000000000000000000000000000000000000000000000000000000c3507ffffffffffffffffffffffffffffffffffffffffffffffffffffffffffffffffe7f000000000000000000000000c1e033746405eac1bcdf4606e0b45fe04364b93e7f00000000000000000000000000000000000000000000000000000000000000007f000000000000000000000000ffffffffffffffffffffffffffffffffffffffff426fa48d775458574133769c8b750207ff5560005155",
                            "storage": {
                                "0x00": "0xa48d775458574133769c8b750207ff55"
                            }
                        }
                    }
                }
            ]
        },
        "config": {
            "blobSchedule": {
                "Cancun": {
                    "target": "0x03",
                    "max": "0x06",
                    "baseFeeUpdateFraction": "0x32f0ed"
                }
            },
            "chainid": "0x01"
        },
        "_info": {
            "hash": "0x34be0e8f6104dcc93472ef83b7f9d6be09ac895af7fe75f89a2f4489d5967f30",
            "comment": "`execution-spec-tests` generated test",
            "filling-transition-tool": "ethereum-spec-evm-resolver 0.0.5",
            "description": "No description available - add a docstring to the python test class or function.",
            "url": "",
            "fixture-format": "state_test",
            "eels-resolution": {
                "git-url": "https://github.com/ethereum/execution-specs.git",
                "branch": "forks/bpos",
                "commit": "7aacb2c54111391af5e98c505d5010b5698a770f"
            }
        }
    },
    "tests/static/state_tests/stRandom/randomStatetest329Filler.json::randomStatetest329[fork_Osaka-state_test-]": {
        "env": {
            "currentCoinbase": "0xc1e033746405eac1bcdf4606e0b45fe04364b93e",
            "currentGasLimit": "0x7fffffffffffffff",
            "currentNumber": "0x01",
            "currentTimestamp": "0x03e8",
            "currentRandom": "0x0000000000000000000000000000000000000000000000000000000000020000",
            "currentDifficulty": "0x00",
            "currentBaseFee": "0x0a",
            "currentExcessBlobGas": "0x00"
        },
        "pre": {
            "0x3c290279386d09f905704f38d08370e0e628827c": {
                "nonce": "0x00",
                "balance": "0x0de0b6b3a7640000",
                "code": "0x",
                "storage": {}
            },
            "0xc1e033746405eac1bcdf4606e0b45fe04364b93e": {
                "nonce": "0x00",
                "balance": "0x2e",
                "code": "0x6000355415600957005b60203560003555",
                "storage": {}
            },
            "0xc1e033746405eac1bcdf4606e0b45fe04364ba3e": {
                "nonce": "0x00",
                "balance": "0x00",
                "code": "0x7f000000000000000000000000ffffffffffffffffffffffffffffffffffffffff7f00000000000000000000000000000000000000000000000000000000000000007f000000000000000000000000000000000000000000000000000000000000c3507ffffffffffffffffffffffffffffffffffffffffffffffffffffffffffffffffe7f000000000000000000000000c1e033746405eac1bcdf4606e0b45fe04364b93e7f00000000000000000000000000000000000000000000000000000000000000007f000000000000000000000000ffffffffffffffffffffffffffffffffffffffff426fa48d775458574133769c8b750207ff5560005155",
                "storage": {}
            }
        },
        "transaction": {
            "nonce": "0x00",
            "gasPrice": "0x0a",
            "gasLimit": [
                "0x0186a0"
            ],
            "to": "0xc1e033746405eac1bcdf4606e0b45fe04364ba3e",
            "value": [
                "0x5b5a0b6c"
            ],
            "data": [
                "0x7f000000000000000000000000ffffffffffffffffffffffffffffffffffffffff7f00000000000000000000000000000000000000000000000000000000000000007f000000000000000000000000000000000000000000000000000000000000c3507ffffffffffffffffffffffffffffffffffffffffffffffffffffffffffffffffe7f000000000000000000000000c1e033746405eac1bcdf4606e0b45fe04364b93e7f00000000000000000000000000000000000000000000000000000000000000007f000000000000000000000000ffffffffffffffffffffffffffffffffffffffff426fa48d775458574133769c8b750207ff"
            ],
            "sender": "0x3c290279386d09f905704f38d08370e0e628827c",
            "secretKey": "0xe6e783847f1489418f741d54c1e033746405eac1bcdf4606e0b45fe04364b93e"
        },
        "post": {
            "Osaka": [
                {
                    "hash": "0x6b5722edef4a751622a003ce824d195f398d2816a17d622b6933b13e44ab0c69",
                    "logs": "0x1dcc4de8dec75d7aab85b567b6ccd41ad312451b948a7413f0a142fd40d49347",
                    "txbytes": "0xf9015d800a830186a094c1e033746405eac1bcdf4606e0b45fe04364ba3e845b5a0b6cb8f87f000000000000000000000000ffffffffffffffffffffffffffffffffffffffff7f00000000000000000000000000000000000000000000000000000000000000007f000000000000000000000000000000000000000000000000000000000000c3507ffffffffffffffffffffffffffffffffffffffffffffffffffffffffffffffffe7f000000000000000000000000c1e033746405eac1bcdf4606e0b45fe04364b93e7f00000000000000000000000000000000000000000000000000000000000000007f000000000000000000000000ffffffffffffffffffffffffffffffffffffffff426fa48d775458574133769c8b750207ff25a04e488a6489b124b89b511338f246a8c5639539297e53c93a44d2194a09c2d5c4a071786aa9e4983e2e8db40b69868adb4df8fa9344405481da2c2538a532e0f20a",
                    "indexes": {
                        "data": 0,
                        "gas": 0,
                        "value": 0
                    },
                    "state": {
                        "0x3c290279386d09f905704f38d08370e0e628827c": {
                            "nonce": "0x01",
                            "balance": "0x0de0b6b34c03018e",
                            "code": "0x",
                            "storage": {}
                        },
                        "0xc1e033746405eac1bcdf4606e0b45fe04364b93e": {
                            "nonce": "0x00",
                            "balance": "0x2e",
                            "code": "0x6000355415600957005b60203560003555",
                            "storage": {}
                        },
                        "0xc1e033746405eac1bcdf4606e0b45fe04364ba3e": {
                            "nonce": "0x00",
                            "balance": "0x5b5a0b6c",
                            "code": "0x7f000000000000000000000000ffffffffffffffffffffffffffffffffffffffff7f00000000000000000000000000000000000000000000000000000000000000007f000000000000000000000000000000000000000000000000000000000000c3507ffffffffffffffffffffffffffffffffffffffffffffffffffffffffffffffffe7f000000000000000000000000c1e033746405eac1bcdf4606e0b45fe04364b93e7f00000000000000000000000000000000000000000000000000000000000000007f000000000000000000000000ffffffffffffffffffffffffffffffffffffffff426fa48d775458574133769c8b750207ff5560005155",
                            "storage": {
                                "0x00": "0xa48d775458574133769c8b750207ff55"
                            }
                        }
                    }
                }
            ]
        },
        "config": {
            "blobSchedule": {
                "Cancun": {
                    "target": "0x03",
                    "max": "0x06",
                    "baseFeeUpdateFraction": "0x32f0ed"
                },
                "Prague": {
                    "target": "0x06",
                    "max": "0x09",
                    "baseFeeUpdateFraction": "0x4c6964"
                },
                "Osaka": {
                    "target": "0x06",
                    "max": "0x09",
                    "baseFeeUpdateFraction": "0x4c6964"
                }
            },
            "chainid": "0x01"
        },
        "_info": {
            "hash": "0x95be55219f8b01f5b351c66481906741f0f162f14e57056e5eddbf2843c72937",
            "comment": "`execution-spec-tests` generated test",
            "filling-transition-tool": "ethereum-spec-evm-resolver 0.0.5",
            "description": "No description available - add a docstring to the python test class or function.",
            "url": "",
            "fixture-format": "state_test",
            "eels-resolution": {
                "git-url": "https://github.com/ethereum/execution-specs.git",
                "branch": "forks/bpos",
                "commit": "7aacb2c54111391af5e98c505d5010b5698a770f"
            }
        }
    },
    "tests/static/state_tests/stRandom/randomStatetest329Filler.json::randomStatetest329[fork_Prague-state_test-]": {
        "env": {
            "currentCoinbase": "0xc1e033746405eac1bcdf4606e0b45fe04364b93e",
            "currentGasLimit": "0x7fffffffffffffff",
            "currentNumber": "0x01",
            "currentTimestamp": "0x03e8",
            "currentRandom": "0x0000000000000000000000000000000000000000000000000000000000020000",
            "currentDifficulty": "0x00",
            "currentBaseFee": "0x0a",
            "currentExcessBlobGas": "0x00"
        },
        "pre": {
            "0x3c290279386d09f905704f38d08370e0e628827c": {
                "nonce": "0x00",
                "balance": "0x0de0b6b3a7640000",
                "code": "0x",
                "storage": {}
            },
            "0xc1e033746405eac1bcdf4606e0b45fe04364b93e": {
                "nonce": "0x00",
                "balance": "0x2e",
                "code": "0x6000355415600957005b60203560003555",
                "storage": {}
            },
            "0xc1e033746405eac1bcdf4606e0b45fe04364ba3e": {
                "nonce": "0x00",
                "balance": "0x00",
                "code": "0x7f000000000000000000000000ffffffffffffffffffffffffffffffffffffffff7f00000000000000000000000000000000000000000000000000000000000000007f000000000000000000000000000000000000000000000000000000000000c3507ffffffffffffffffffffffffffffffffffffffffffffffffffffffffffffffffe7f000000000000000000000000c1e033746405eac1bcdf4606e0b45fe04364b93e7f00000000000000000000000000000000000000000000000000000000000000007f000000000000000000000000ffffffffffffffffffffffffffffffffffffffff426fa48d775458574133769c8b750207ff5560005155",
                "storage": {}
            }
        },
        "transaction": {
            "nonce": "0x00",
            "gasPrice": "0x0a",
            "gasLimit": [
                "0x0186a0"
            ],
            "to": "0xc1e033746405eac1bcdf4606e0b45fe04364ba3e",
            "value": [
                "0x5b5a0b6c"
            ],
            "data": [
                "0x7f000000000000000000000000ffffffffffffffffffffffffffffffffffffffff7f00000000000000000000000000000000000000000000000000000000000000007f000000000000000000000000000000000000000000000000000000000000c3507ffffffffffffffffffffffffffffffffffffffffffffffffffffffffffffffffe7f000000000000000000000000c1e033746405eac1bcdf4606e0b45fe04364b93e7f00000000000000000000000000000000000000000000000000000000000000007f000000000000000000000000ffffffffffffffffffffffffffffffffffffffff426fa48d775458574133769c8b750207ff"
            ],
            "sender": "0x3c290279386d09f905704f38d08370e0e628827c",
            "secretKey": "0xe6e783847f1489418f741d54c1e033746405eac1bcdf4606e0b45fe04364b93e"
        },
        "post": {
            "Prague": [
                {
                    "hash": "0x6b5722edef4a751622a003ce824d195f398d2816a17d622b6933b13e44ab0c69",
                    "logs": "0x1dcc4de8dec75d7aab85b567b6ccd41ad312451b948a7413f0a142fd40d49347",
                    "txbytes": "0xf9015d800a830186a094c1e033746405eac1bcdf4606e0b45fe04364ba3e845b5a0b6cb8f87f000000000000000000000000ffffffffffffffffffffffffffffffffffffffff7f00000000000000000000000000000000000000000000000000000000000000007f000000000000000000000000000000000000000000000000000000000000c3507ffffffffffffffffffffffffffffffffffffffffffffffffffffffffffffffffe7f000000000000000000000000c1e033746405eac1bcdf4606e0b45fe04364b93e7f00000000000000000000000000000000000000000000000000000000000000007f000000000000000000000000ffffffffffffffffffffffffffffffffffffffff426fa48d775458574133769c8b750207ff25a04e488a6489b124b89b511338f246a8c5639539297e53c93a44d2194a09c2d5c4a071786aa9e4983e2e8db40b69868adb4df8fa9344405481da2c2538a532e0f20a",
                    "indexes": {
                        "data": 0,
                        "gas": 0,
                        "value": 0
                    },
                    "state": {
                        "0x3c290279386d09f905704f38d08370e0e628827c": {
                            "nonce": "0x01",
                            "balance": "0x0de0b6b34c03018e",
                            "code": "0x",
                            "storage": {}
                        },
                        "0xc1e033746405eac1bcdf4606e0b45fe04364b93e": {
                            "nonce": "0x00",
                            "balance": "0x2e",
                            "code": "0x6000355415600957005b60203560003555",
                            "storage": {}
                        },
                        "0xc1e033746405eac1bcdf4606e0b45fe04364ba3e": {
                            "nonce": "0x00",
                            "balance": "0x5b5a0b6c",
                            "code": "0x7f000000000000000000000000ffffffffffffffffffffffffffffffffffffffff7f00000000000000000000000000000000000000000000000000000000000000007f000000000000000000000000000000000000000000000000000000000000c3507ffffffffffffffffffffffffffffffffffffffffffffffffffffffffffffffffe7f000000000000000000000000c1e033746405eac1bcdf4606e0b45fe04364b93e7f00000000000000000000000000000000000000000000000000000000000000007f000000000000000000000000ffffffffffffffffffffffffffffffffffffffff426fa48d775458574133769c8b750207ff5560005155",
                            "storage": {
                                "0x00": "0xa48d775458574133769c8b750207ff55"
                            }
                        }
                    }
                }
            ]
        },
        "config": {
            "blobSchedule": {
                "Cancun": {
                    "target": "0x03",
                    "max": "0x06",
                    "baseFeeUpdateFraction": "0x32f0ed"
                },
                "Prague": {
                    "target": "0x06",
                    "max": "0x09",
                    "baseFeeUpdateFraction": "0x4c6964"
                }
            },
            "chainid": "0x01"
        },
        "_info": {
            "hash": "0xedae56b217739c5ebcd267c2b2657be0b033f37a8b76a4b8e48edb8deee69d8b",
            "comment": "`execution-spec-tests` generated test",
            "filling-transition-tool": "ethereum-spec-evm-resolver 0.0.5",
            "description": "No description available - add a docstring to the python test class or function.",
            "url": "",
            "fixture-format": "state_test",
            "eels-resolution": {
                "git-url": "https://github.com/ethereum/execution-specs.git",
                "branch": "forks/bpos",
                "commit": "7aacb2c54111391af5e98c505d5010b5698a770f"
            }
        }
    }
}