{
    "tests/static/state_tests/stRandom/randomStatetest116Filler.json::randomStatetest116[fork_Cancun-state_test-]": {
        "env": {
            "currentCoinbase": "0x05ccd5d124ed73f2c87f136af500b69c7dbbb4d2",
            "currentGasLimit": "0x7fffffffffffffff",
            "currentNumber": "0x01",
            "currentTimestamp": "0x03e8",
            "currentRandom": "0x0000000000000000000000000000000000000000000000000000000000020000",
            "currentDifficulty": "0x00",
            "currentBaseFee": "0x0a",
            "currentExcessBlobGas": "0x00"
        },
        "pre": {
            "0x737997793e2689676ce47ae23650de19fca268a3": {
                "nonce": "0x00",
                "balance": "0x0de0b6b3a7640000",
                "code": "0x",
                "storage": {}
            },
            "0x05ccd5d124ed73f2c87f136af500b69c7dbbb4d2": {
                "nonce": "0x00",
                "balance": "0x2e",
                "code": "0x6000355415600957005b60203560003555",
                "storage": {}
            },
            "0x05ccd5d124ed73f2c87f136af500b69c7dbbb5d2": {
                "nonce": "0x00",
                "balance": "0x00",
                "code": "0x7f00000000000000000000000000000000000000000000000000000000000000007f00000000000000000000000100000000000000000000000000000000000000007f000000000000000000000000000000000000000000000000000000000000c3507f000000000000000000000000ffffffffffffffffffffffffffffffffffffffff7ffffffffffffffffffffffffffffffffffffffffffffffffffffffffffffffffe457fffffffffffffffffffffffffffffffffffffffffffffffffffffffffffffffff7f00000000000000000000000005ccd5d124ed73f2c87f136af500b69c7dbbb4d20753933760005155",
                "storage": {}
            }
        },
        "transaction": {
            "nonce": "0x00",
            "gasPrice": "0x0a",
            "gasLimit": [
                "0x0186a0"
            ],
            "to": "0x05ccd5d124ed73f2c87f136af500b69c7dbbb5d2",
            "value": [
                "0x162d4e87"
            ],
            "data": [
                "0x7f00000000000000000000000000000000000000000000000000000000000000007f00000000000000000000000100000000000000000000000000000000000000007f000000000000000000000000000000000000000000000000000000000000c3507f000000000000000000000000ffffffffffffffffffffffffffffffffffffffff7ffffffffffffffffffffffffffffffffffffffffffffffffffffffffffffffffe457fffffffffffffffffffffffffffffffffffffffffffffffffffffffffffffffff7f00000000000000000000000005ccd5d124ed73f2c87f136af500b69c7dbbb4d207539337"
            ],
            "sender": "0x737997793e2689676ce47ae23650de19fca268a3",
            "secretKey": "0xb88fbb205c67649128c3e04505ccd5d124ed73f2c87f136af500b69c7dbbb4d2"
        },
        "post": {
            "Cancun": [
                {
                    "hash": "0xd427f55c88f94c51319ff8710ec41e8ff4d4d6649cd62741848065f94683832c",
                    "logs": "0x1dcc4de8dec75d7aab85b567b6ccd41ad312451b948a7413f0a142fd40d49347",
                    "txbytes": "0xf90151800a830186a09405ccd5d124ed73f2c87f136af500b69c7dbbb5d284162d4e87b8ec7f00000000000000000000000000000000000000000000000000000000000000007f00000000000000000000000100000000000000000000000000000000000000007f000000000000000000000000000000000000000000000000000000000000c3507f000000000000000000000000ffffffffffffffffffffffffffffffffffffffff7ffffffffffffffffffffffffffffffffffffffffffffffffffffffffffffffffe457fffffffffffffffffffffffffffffffffffffffffffffffffffffffffffffffff7f00000000000000000000000005ccd5d124ed73f2c87f136af500b69c7dbbb4d20753933726a02f98d7b32982e19b85dbe2f2abd595b4b4aafa7a65d312801579426a6438b245a0220161ffcd1d0b906dbafb23023d2bdfbb9422b6cf59a816ddeedfe0ae4e84c5",
                    "indexes": {
                        "data": 0,
                        "gas": 0,
                        "value": 0
                    },
                    "state": {
                        "0x737997793e2689676ce47ae23650de19fca268a3": {
                            "nonce": "0x01",
                            "balance": "0x0de0b6b3912d9751",
                            "code": "0x",
                            "storage": {}
                        },
                        "0x05ccd5d124ed73f2c87f136af500b69c7dbbb4d2": {
                            "nonce": "0x00",
                            "balance": "0x2e",
                            "code": "0x6000355415600957005b60203560003555",
                            "storage": {}
                        },
                        "0x05ccd5d124ed73f2c87f136af500b69c7dbbb5d2": {
                            "nonce": "0x00",
                            "balance": "0x162d4e87",
                            "code": "0x7f00000000000000000000000000000000000000000000000000000000000000007f00000000000000000000000100000000000000000000000000000000000000007f000000000000000000000000000000000000000000000000000000000000c3507f000000000000000000000000ffffffffffffffffffffffffffffffffffffffff7ffffffffffffffffffffffffffffffffffffffffffffffffffffffffffffffffe457fffffffffffffffffffffffffffffffffffffffffffffffffffffffffffffffff7f00000000000000000000000005ccd5d124ed73f2c87f136af500b69c7dbbb4d20753933760005155",
                            "storage": {
                                "0x00": "0x010000000000000000000000000000000000000000"
                            }
                        }
                    }
                }
            ]
        },
        "config": {
            "blobSchedule": {
                "Cancun": {
                    "target": "0x03",
                    "max": "0x06",
                    "baseFeeUpdateFraction": "0x32f0ed"
                }
            },
            "chainid": "0x01"
        },
        "_info": {
            "hash": "0xe89007c6239bfa0e4bdab1981717a00f0b1b83a08c86a257a646fd0a9675f264",
            "comment": "`execution-spec-tests` generated test",
            "filling-transition-tool": "ethereum-spec-evm-resolver 0.0.5",
            "description": "No description available - add a docstring to the python test class or function.",
            "url": "",
            "fixture-format": "state_test",
            "eels-resolution": {
                "git-url": "https://github.com/ethereum/execution-specs.git",
                "branch": "forks/bpos",
                "commit": "7aacb2c54111391af5e98c505d5010b5698a770f"
            }
        }
    },
    "tests/static/state_tests/stRandom/randomStatetest116Filler.json::randomStatetest116[fork_Osaka-state_test-]": {
        "env": {
            "currentCoinbase": "0x05ccd5d124ed73f2c87f136af500b69c7dbbb4d2",
            "currentGasLimit": "0x7fffffffffffffff",
            "currentNumber": "0x01",
            "currentTimestamp": "0x03e8",
            "currentRandom": "0x0000000000000000000000000000000000000000000000000000000000020000",
            "currentDifficulty": "0x00",
            "currentBaseFee": "0x0a",
            "currentExcessBlobGas": "0x00"
        },
        "pre": {
            "0x737997793e2689676ce47ae23650de19fca268a3": {
                "nonce": "0x00",
                "balance": "0x0de0b6b3a7640000",
                "code": "0x",
                "storage": {}
            },
            "0x05ccd5d124ed73f2c87f136af500b69c7dbbb4d2": {
                "nonce": "0x00",
                "balance": "0x2e",
                "code": "0x6000355415600957005b60203560003555",
                "storage": {}
            },
            "0x05ccd5d124ed73f2c87f136af500b69c7dbbb5d2": {
                "nonce": "0x00",
                "balance": "0x00",
                "code": "0x7f00000000000000000000000000000000000000000000000000000000000000007f00000000000000000000000100000000000000000000000000000000000000007f000000000000000000000000000000000000000000000000000000000000c3507f000000000000000000000000ffffffffffffffffffffffffffffffffffffffff7ffffffffffffffffffffffffffffffffffffffffffffffffffffffffffffffffe457fffffffffffffffffffffffffffffffffffffffffffffffffffffffffffffffff7f00000000000000000000000005ccd5d124ed73f2c87f136af500b69c7dbbb4d20753933760005155",
                "storage": {}
            }
        },
        "transaction": {
            "nonce": "0x00",
            "gasPrice": "0x0a",
            "gasLimit": [
                "0x0186a0"
            ],
            "to": "0x05ccd5d124ed73f2c87f136af500b69c7dbbb5d2",
            "value": [
                "0x162d4e87"
            ],
            "data": [
                "0x7f00000000000000000000000000000000000000000000000000000000000000007f00000000000000000000000100000000000000000000000000000000000000007f000000000000000000000000000000000000000000000000000000000000c3507f000000000000000000000000ffffffffffffffffffffffffffffffffffffffff7ffffffffffffffffffffffffffffffffffffffffffffffffffffffffffffffffe457fffffffffffffffffffffffffffffffffffffffffffffffffffffffffffffffff7f00000000000000000000000005ccd5d124ed73f2c87f136af500b69c7dbbb4d207539337"
            ],
            "sender": "0x737997793e2689676ce47ae23650de19fca268a3",
            "secretKey": "0xb88fbb205c67649128c3e04505ccd5d124ed73f2c87f136af500b69c7dbbb4d2"
        },
        "post": {
            "Osaka": [
                {
                    "hash": "0xd427f55c88f94c51319ff8710ec41e8ff4d4d6649cd62741848065f94683832c",
                    "logs": "0x1dcc4de8dec75d7aab85b567b6ccd41ad312451b948a7413f0a142fd40d49347",
                    "txbytes": "0xf90151800a830186a09405ccd5d124ed73f2c87f136af500b69c7dbbb5d284162d4e87b8ec7f00000000000000000000000000000000000000000000000000000000000000007f00000000000000000000000100000000000000000000000000000000000000007f000000000000000000000000000000000000000000000000000000000000c3507f000000000000000000000000ffffffffffffffffffffffffffffffffffffffff7ffffffffffffffffffffffffffffffffffffffffffffffffffffffffffffffffe457fffffffffffffffffffffffffffffffffffffffffffffffffffffffffffffffff7f00000000000000000000000005ccd5d124ed73f2c87f136af500b69c7dbbb4d20753933726a02f98d7b32982e19b85dbe2f2abd595b4b4aafa7a65d312801579426a6438b245a0220161ffcd1d0b906dbafb23023d2bdfbb9422b6cf59a816ddeedfe0ae4e84c5",
                    "indexes": {
                        "data": 0,
                        "gas": 0,
                        "value": 0
                    },
                    "state": {
                        "0x737997793e2689676ce47ae23650de19fca268a3": {
                            "nonce": "0x01",
                            "balance": "0x0de0b6b3912d9751",
                            "code": "0x",
                            "storage": {}
                        },
                        "0x05ccd5d124ed73f2c87f136af500b69c7dbbb4d2": {
                            "nonce": "0x00",
                            "balance": "0x2e",
                            "code": "0x6000355415600957005b60203560003555",
                            "storage": {}
                        },
                        "0x05ccd5d124ed73f2c87f136af500b69c7dbbb5d2": {
                            "nonce": "0x00",
                            "balance": "0x162d4e87",
                            "code": "0x7f00000000000000000000000000000000000000000000000000000000000000007f00000000000000000000000100000000000000000000000000000000000000007f000000000000000000000000000000000000000000000000000000000000c3507f000000000000000000000000ffffffffffffffffffffffffffffffffffffffff7ffffffffffffffffffffffffffffffffffffffffffffffffffffffffffffffffe457fffffffffffffffffffffffffffffffffffffffffffffffffffffffffffffffff7f00000000000000000000000005ccd5d124ed73f2c87f136af500b69c7dbbb4d20753933760005155",
                            "storage": {
                                "0x00": "0x010000000000000000000000000000000000000000"
                            }
                        }
                    }
                }
            ]
        },
        "config": {
            "blobSchedule": {
                "Cancun": {
                    "target": "0x03",
                    "max": "0x06",
                    "baseFeeUpdateFraction": "0x32f0ed"
                },
                "Prague": {
                    "target": "0x06",
                    "max": "0x09",
                    "baseFeeUpdateFraction": "0x4c6964"
                },
                "Osaka": {
                    "target": "0x06",
                    "max": "0x09",
                    "baseFeeUpdateFraction": "0x4c6964"
                }
            },
            "chainid": "0x01"
        },
        "_info": {
            "hash": "0x30460f822840bc148471bd4e9bfe367aa43e6ce84a97675992fa2c05c02241b1",
            "comment": "`execution-spec-tests` generated test",
            "filling-transition-tool": "ethereum-spec-evm-resolver 0.0.5",
            "description": "No description available - add a docstring to the python test class or function.",
            "url": "",
            "fixture-format": "state_test",
            "eels-resolution": {
                "git-url": "https://github.com/ethereum/execution-specs.git",
                "branch": "forks/bpos",
                "commit": "7aacb2c54111391af5e98c505d5010b5698a770f"
            }
        }
    },
    "tests/static/state_tests/stRandom/randomStatetest116Filler.json::randomStatetest116[fork_Prague-state_test-]": {
        "env": {
            "currentCoinbase": "0x05ccd5d124ed73f2c87f136af500b69c7dbbb4d2",
            "currentGasLimit": "0x7fffffffffffffff",
            "currentNumber": "0x01",
            "currentTimestamp": "0x03e8",
            "currentRandom": "0x0000000000000000000000000000000000000000000000000000000000020000",
            "currentDifficulty": "0x00",
            "currentBaseFee": "0x0a",
            "currentExcessBlobGas": "0x00"
        },
        "pre": {
            "0x737997793e2689676ce47ae23650de19fca268a3": {
                "nonce": "0x00",
                "balance": "0x0de0b6b3a7640000",
                "code": "0x",
                "storage": {}
            },
            "0x05ccd5d124ed73f2c87f136af500b69c7dbbb4d2": {
                "nonce": "0x00",
                "balance": "0x2e",
                "code": "0x6000355415600957005b60203560003555",
                "storage": {}
            },
            "0x05ccd5d124ed73f2c87f136af500b69c7dbbb5d2": {
                "nonce": "0x00",
                "balance": "0x00",
                "code": "0x7f00000000000000000000000000000000000000000000000000000000000000007f00000000000000000000000100000000000000000000000000000000000000007f000000000000000000000000000000000000000000000000000000000000c3507f000000000000000000000000ffffffffffffffffffffffffffffffffffffffff7ffffffffffffffffffffffffffffffffffffffffffffffffffffffffffffffffe457fffffffffffffffffffffffffffffffffffffffffffffffffffffffffffffffff7f00000000000000000000000005ccd5d124ed73f2c87f136af500b69c7dbbb4d20753933760005155",
                "storage": {}
            }
        },
        "transaction": {
            "nonce": "0x00",
            "gasPrice": "0x0a",
            "gasLimit": [
                "0x0186a0"
            ],
            "to": "0x05ccd5d124ed73f2c87f136af500b69c7dbbb5d2",
            "value": [
                "0x162d4e87"
            ],
            "data": [
                "0x7f00000000000000000000000000000000000000000000000000000000000000007f00000000000000000000000100000000000000000000000000000000000000007f000000000000000000000000000000000000000000000000000000000000c3507f000000000000000000000000ffffffffffffffffffffffffffffffffffffffff7ffffffffffffffffffffffffffffffffffffffffffffffffffffffffffffffffe457fffffffffffffffffffffffffffffffffffffffffffffffffffffffffffffffff7f00000000000000000000000005ccd5d124ed73f2c87f136af500b69c7dbbb4d207539337"
            ],
            "sender": "0x737997793e2689676ce47ae23650de19fca268a3",
            "secretKey": "0xb88fbb205c67649128c3e04505ccd5d124ed73f2c87f136af500b69c7dbbb4d2"
        },
        "post": {
            "Prague": [
                {
                    "hash": "0xd427f55c88f94c51319ff8710ec41e8ff4d4d6649cd62741848065f94683832c",
                    "logs": "0x1dcc4de8dec75d7aab85b567b6ccd41ad312451b948a7413f0a142fd40d49347",
                    "txbytes": "0xf90151800a830186a09405ccd5d124ed73f2c87f136af500b69c7dbbb5d284162d4e87b8ec7f00000000000000000000000000000000000000000000000000000000000000007f00000000000000000000000100000000000000000000000000000000000000007f000000000000000000000000000000000000000000000000000000000000c3507f000000000000000000000000ffffffffffffffffffffffffffffffffffffffff7ffffffffffffffffffffffffffffffffffffffffffffffffffffffffffffffffe457fffffffffffffffffffffffffffffffffffffffffffffffffffffffffffffffff7f00000000000000000000000005ccd5d124ed73f2c87f136af500b69c7dbbb4d20753933726a02f98d7b32982e19b85dbe2f2abd595b4b4aafa7a65d312801579426a6438b245a0220161ffcd1d0b906dbafb23023d2bdfbb9422b6cf59a816ddeedfe0ae4e84c5",
                    "indexes": {
                        "data": 0,
                        "gas": 0,
                        "value": 0
                    },
                    "state": {
                        "0x737997793e2689676ce47ae23650de19fca268a3": {
                            "nonce": "0x01",
                            "balance": "0x0de0b6b3912d9751",
                            "code": "0x",
                            "storage": {}
                        },
                        "0x05ccd5d124ed73f2c87f136af500b69c7dbbb4d2": {
                            "nonce": "0x00",
                            "balance": "0x2e",
                            "code": "0x6000355415600957005b60203560003555",
                            "storage": {}
                        },
                        "0x05ccd5d124ed73f2c87f136af500b69c7dbbb5d2": {
                            "nonce": "0x00",
                            "balance": "0x162d4e87",
                            "code": "0x7f00000000000000000000000000000000000000000000000000000000000000007f00000000000000000000000100000000000000000000000000000000000000007f000000000000000000000000000000000000000000000000000000000000c3507f000000000000000000000000ffffffffffffffffffffffffffffffffffffffff7ffffffffffffffffffffffffffffffffffffffffffffffffffffffffffffffffe457fffffffffffffffffffffffffffffffffffffffffffffffffffffffffffffffff7f00000000000000000000000005ccd5d124ed73f2c87f136af500b69c7dbbb4d20753933760005155",
                            "storage": {
                                "0x00": "0x010000000000000000000000000000000000000000"
                            }
                        }
                    }
                }
            ]
        },
        "config": {
            "blobSchedule": {
                "Cancun": {
                    "target": "0x03",
                    "max": "0x06",
                    "baseFeeUpdateFraction": "0x32f0ed"
                },
                "Prague": {
                    "target": "0x06",
                    "max": "0x09",
                    "baseFeeUpdateFraction": "0x4c6964"
                }
            },
            "chainid": "0x01"
        },
        "_info": {
            "hash": "0x77264c9aa86dba496f8771a04d9cc56f36780dc19e6a1f0012fc3fc2be98fadb",
            "comment": "`execution-spec-tests` generated test",
            "filling-transition-tool": "ethereum-spec-evm-resolver 0.0.5",
            "description": "No description available - add a docstring to the python test class or function.",
            "url": "",
            "fixture-format": "state_test",
            "eels-resolution": {
                "git-url": "https://github.com/ethereum/execution-specs.git",
                "branch": "forks/bpos",
                "commit": "7aacb2c54111391af5e98c505d5010b5698a770f"
            }
        }
    }
}