{
    "tests/static/state_tests/stRandom/randomStatetest25Filler.json::randomStatetest25[fork_Cancun-state_test-]": {
        "env": {
            "currentCoinbase": "0xd804a3c5f5a98e02d823489a6b0ccbed5e04039a",
            "currentGasLimit": "0x7fffffffffffffff",
            "currentNumber": "0x01",
            "currentTimestamp": "0x03e8",
            "currentRandom": "0x0000000000000000000000000000000000000000000000000000000000020000",
            "currentDifficulty": "0x00",
            "currentBaseFee": "0x0a",
            "currentExcessBlobGas": "0x00"
        },
        "pre": {
            "0xb8931eccce42c2afaf4d471202eef9104be7c18c": {
                "nonce": "0x00",
                "balance": "0x0de0b6b3a7640000",
                "code": "0x",
                "storage": {}
            },
            "0xd804a3c5f5a98e02d823489a6b0ccbed5e04039a": {
                "nonce": "0x00",
                "balance": "0x2e",
                "code": "0x6000355415600957005b60203560003555",
                "storage": {}
            },
            "0xd804a3c5f5a98e02d823489a6b0ccbed5e04049a": {
                "nonce": "0x00",
                "balance": "0x00",
                "code": "0x427f00000000000000000000000000000000000000000000000000000000000000007f0000000000000000000000010000000000000000000000000000000000000000437f000000000000000000000000ffffffffffffffffffffffffffffffffffffffff807f00000000000000000000000100000000000000000000000000000000000000007ffffffffffffffffffffffffffffffffffffffffffffffffffffffffffffffffe6844f1389163a444405b123678749c55",
                "storage": {}
            }
        },
        "transaction": {
            "nonce": "0x00",
            "gasPrice": "0x0a",
            "gasLimit": [
                "0x0186a0"
            ],
            "to": "0xd804a3c5f5a98e02d823489a6b0ccbed5e04049a",
            "value": [
                "0x731ee4d0"
            ],
            "data": [
                "0x427f00000000000000000000000000000000000000000000000000000000000000007f0000000000000000000000010000000000000000000000000000000000000000437f000000000000000000000000ffffffffffffffffffffffffffffffffffffffff807f00000000000000000000000100000000000000000000000000000000000000007ffffffffffffffffffffffffffffffffffffffffffffffffffffffffffffffffe6844f1389163a444405b123678749c"
            ],
            "sender": "0xb8931eccce42c2afaf4d471202eef9104be7c18c",
            "secretKey": "0xd4663820fd3a0a437cc200e6d804a3c5f5a98e02d823489a6b0ccbed5e04039a"
        },
        "post": {
            "Cancun": [
                {
                    "hash": "0xff6fb4eb674a494412677620c04e176a199e4adcafc251fe7cde1902c4ac3b46",
                    "logs": "0x1dcc4de8dec75d7aab85b567b6ccd41ad312451b948a7413f0a142fd40d49347",
                    "txbytes": "0xf9011c800a830186a094d804a3c5f5a98e02d823489a6b0ccbed5e04049a84731ee4d0b8b7427f00000000000000000000000000000000000000000000000000000000000000007f0000000000000000000000010000000000000000000000000000000000000000437f000000000000000000000000ffffffffffffffffffffffffffffffffffffffff807f00000000000000000000000100000000000000000000000000000000000000007ffffffffffffffffffffffffffffffffffffffffffffffffffffffffffffffffe6844f1389163a444405b123678749c26a0576588a447c9496878c4e7eb3513a38f6e1b65a2ae32b4257c96e8cfeb4a9a7ba0036d4342daa77f4b9f9ce97fe3de38551f7e39126c5dcfa4965d9c2ee3389408",
                    "indexes": {
                        "data": 0,
                        "gas": 0,
                        "value": 0
                    },
                    "state": {
                        "0xb8931eccce42c2afaf4d471202eef9104be7c18c": {
                            "nonce": "0x01",
                            "balance": "0x0de0b6b33441a4e6",
                            "code": "0x",
                            "storage": {}
                        },
                        "0xd804a3c5f5a98e02d823489a6b0ccbed5e04039a": {
                            "nonce": "0x00",
                            "balance": "0x2e",
                            "code": "0x6000355415600957005b60203560003555",
                            "storage": {}
                        },
                        "0xd804a3c5f5a98e02d823489a6b0ccbed5e04049a": {
                            "nonce": "0x00",
                            "balance": "0x731ee4d0",
                            "code": "0x427f00000000000000000000000000000000000000000000000000000000000000007f0000000000000000000000010000000000000000000000000000000000000000437f000000000000000000000000ffffffffffffffffffffffffffffffffffffffff807f00000000000000000000000100000000000000000000000000000000000000007ffffffffffffffffffffffffffffffffffffffffffffffffffffffffffffffffe6844f1389163a444405b123678749c55",
                            "storage": {}
                        }
                    }
                }
            ]
        },
        "config": {
            "blobSchedule": {
                "Cancun": {
                    "target": "0x03",
                    "max": "0x06",
                    "baseFeeUpdateFraction": "0x32f0ed"
                }
            },
            "chainid": "0x01"
        },
        "_info": {
            "hash": "0xc14775a5da817590f21ce2490a2685674915675ef7bbf7c128d41dd3d77a4ce2",
            "comment": "`execution-spec-tests` generated test",
            "filling-transition-tool": "ethereum-spec-evm-resolver 0.0.5",
            "description": "No description available - add a docstring to the python test class or function.",
            "url": "",
            "fixture-format": "state_test",
            "eels-resolution": {
                "git-url": "https://github.com/ethereum/execution-specs.git",
                "branch": "forks/bpos",
                "commit": "7aacb2c54111391af5e98c505d5010b5698a770f"
            }
        }
    },
    "tests/static/state_tests/stRandom/randomStatetest25Filler.json::randomStatetest25[fork_Osaka-state_test-]": {
        "env": {
            "currentCoinbase": "0xd804a3c5f5a98e02d823489a6b0ccbed5e04039a",
            "currentGasLimit": "0x7fffffffffffffff",
            "currentNumber": "0x01",
            "currentTimestamp": "0x03e8",
            "currentRandom": "0x0000000000000000000000000000000000000000000000000000000000020000",
            "currentDifficulty": "0x00",
            "currentBaseFee": "0x0a",
            "currentExcessBlobGas": "0x00"
        },
        "pre": {
            "0xb8931eccce42c2afaf4d471202eef9104be7c18c": {
                "nonce": "0x00",
                "balance": "0x0de0b6b3a7640000",
                "code": "0x",
                "storage": {}
            },
            "0xd804a3c5f5a98e02d823489a6b0ccbed5e04039a": {
                "nonce": "0x00",
                "balance": "0x2e",
                "code": "0x6000355415600957005b60203560003555",
                "storage": {}
            },
            "0xd804a3c5f5a98e02d823489a6b0ccbed5e04049a": {
                "nonce": "0x00",
                "balance": "0x00",
                "code": "0x427f00000000000000000000000000000000000000000000000000000000000000007f0000000000000000000000010000000000000000000000000000000000000000437f000000000000000000000000ffffffffffffffffffffffffffffffffffffffff807f00000000000000000000000100000000000000000000000000000000000000007ffffffffffffffffffffffffffffffffffffffffffffffffffffffffffffffffe6844f1389163a444405b123678749c55",
                "storage": {}
            }
        },
        "transaction": {
            "nonce": "0x00",
            "gasPrice": "0x0a",
            "gasLimit": [
                "0x0186a0"
            ],
            "to": "0xd804a3c5f5a98e02d823489a6b0ccbed5e04049a",
            "value": [
                "0x731ee4d0"
            ],
            "data": [
                "0x427f00000000000000000000000000000000000000000000000000000000000000007f0000000000000000000000010000000000000000000000000000000000000000437f000000000000000000000000ffffffffffffffffffffffffffffffffffffffff807f00000000000000000000000100000000000000000000000000000000000000007ffffffffffffffffffffffffffffffffffffffffffffffffffffffffffffffffe6844f1389163a444405b123678749c"
            ],
            "sender": "0xb8931eccce42c2afaf4d471202eef9104be7c18c",
            "secretKey": "0xd4663820fd3a0a437cc200e6d804a3c5f5a98e02d823489a6b0ccbed5e04039a"
        },
        "post": {
            "Osaka": [
                {
                    "hash": "0xb702640210ef3cac524352765ff5b26009dd233b6d414ac8cc0c063ff93fa589",
                    "logs": "0x1dcc4de8dec75d7aab85b567b6ccd41ad312451b948a7413f0a142fd40d49347",
                    "txbytes": "0xf9011c800a830186a094d804a3c5f5a98e02d823489a6b0ccbed5e04049a84731ee4d0b8b7427f00000000000000000000000000000000000000000000000000000000000000007f0000000000000000000000010000000000000000000000000000000000000000437f000000000000000000000000ffffffffffffffffffffffffffffffffffffffff807f00000000000000000000000100000000000000000000000000000000000000007ffffffffffffffffffffffffffffffffffffffffffffffffffffffffffffffffe6844f1389163a444405b123678749c26a0576588a447c9496878c4e7eb3513a38f6e1b65a2ae32b4257c96e8cfeb4a9a7ba0036d4342daa77f4b9f9ce97fe3de38551f7e39126c5dcfa4965d9c2ee3389408",
                    "indexes": {
                        "data": 0,
                        "gas": 0,
                        "value": 0
                    },
                    "state": {
                        "0xb8931eccce42c2afaf4d471202eef9104be7c18c": {
                            "nonce": "0x01",
                            "balance": "0x0de0b6b334414528",
                            "code": "0x",
                            "storage": {}
                        },
                        "0xd804a3c5f5a98e02d823489a6b0ccbed5e04039a": {
                            "nonce": "0x00",
                            "balance": "0x2e",
                            "code": "0x6000355415600957005b60203560003555",
                            "storage": {}
                        },
                        "0xd804a3c5f5a98e02d823489a6b0ccbed5e04049a": {
                            "nonce": "0x00",
                            "balance": "0x731ee4d0",
                            "code": "0x427f00000000000000000000000000000000000000000000000000000000000000007f0000000000000000000000010000000000000000000000000000000000000000437f000000000000000000000000ffffffffffffffffffffffffffffffffffffffff807f00000000000000000000000100000000000000000000000000000000000000007ffffffffffffffffffffffffffffffffffffffffffffffffffffffffffffffffe6844f1389163a444405b123678749c55",
                            "storage": {}
                        }
                    }
                }
            ]
        },
        "config": {
            "blobSchedule": {
                "Cancun": {
                    "target": "0x03",
                    "max": "0x06",
                    "baseFeeUpdateFraction": "0x32f0ed"
                },
                "Prague": {
                    "target": "0x06",
                    "max": "0x09",
                    "baseFeeUpdateFraction": "0x4c6964"
                },
                "Osaka": {
                    "target": "0x06",
                    "max": "0x09",
                    "baseFeeUpdateFraction": "0x4c6964"
                }
            },
            "chainid": "0x01"
        },
        "_info": {
            "hash": "0x0078314aa1145fb02b5c1642ed129c6aead4d36b5b7dd552daca08bd65ae8eb1",
            "comment": "`execution-spec-tests` generated test",
            "filling-transition-tool": "ethereum-spec-evm-resolver 0.0.5",
            "description": "No description available - add a docstring to the python test class or function.",
            "url": "",
            "fixture-format": "state_test",
            "eels-resolution": {
                "git-url": "https://github.com/ethereum/execution-specs.git",
                "branch": "forks/bpos",
                "commit": "7aacb2c54111391af5e98c505d5010b5698a770f"
            }
        }
    },
    "tests/static/state_tests/stRandom/randomStatetest25Filler.json::randomStatetest25[fork_Prague-state_test-]": {
        "env": {
            "currentCoinbase": "0xd804a3c5f5a98e02d823489a6b0ccbed5e04039a",
            "currentGasLimit": "0x7fffffffffffffff",
            "currentNumber": "0x01",
            "currentTimestamp": "0x03e8",
            "currentRandom": "0x0000000000000000000000000000000000000000000000000000000000020000",
            "currentDifficulty": "0x00",
            "currentBaseFee": "0x0a",
            "currentExcessBlobGas": "0x00"
        },
        "pre": {
            "0xb8931eccce42c2afaf4d471202eef9104be7c18c": {
                "nonce": "0x00",
                "balance": "0x0de0b6b3a7640000",
                "code": "0x",
                "storage": {}
            },
            "0xd804a3c5f5a98e02d823489a6b0ccbed5e04039a": {
                "nonce": "0x00",
                "balance": "0x2e",
                "code": "0x6000355415600957005b60203560003555",
                "storage": {}
            },
            "0xd804a3c5f5a98e02d823489a6b0ccbed5e04049a": {
                "nonce": "0x00",
                "balance": "0x00",
                "code": "0x427f00000000000000000000000000000000000000000000000000000000000000007f0000000000000000000000010000000000000000000000000000000000000000437f000000000000000000000000ffffffffffffffffffffffffffffffffffffffff807f00000000000000000000000100000000000000000000000000000000000000007ffffffffffffffffffffffffffffffffffffffffffffffffffffffffffffffffe6844f1389163a444405b123678749c55",
                "storage": {}
            }
        },
        "transaction": {
            "nonce": "0x00",
            "gasPrice": "0x0a",
            "gasLimit": [
                "0x0186a0"
            ],
            "to": "0xd804a3c5f5a98e02d823489a6b0ccbed5e04049a",
            "value": [
                "0x731ee4d0"
            ],
            "data": [
                "0x427f00000000000000000000000000000000000000000000000000000000000000007f0000000000000000000000010000000000000000000000000000000000000000437f000000000000000000000000ffffffffffffffffffffffffffffffffffffffff807f00000000000000000000000100000000000000000000000000000000000000007ffffffffffffffffffffffffffffffffffffffffffffffffffffffffffffffffe6844f1389163a444405b123678749c"
            ],
            "sender": "0xb8931eccce42c2afaf4d471202eef9104be7c18c",
            "secretKey": "0xd4663820fd3a0a437cc200e6d804a3c5f5a98e02d823489a6b0ccbed5e04039a"
        },
        "post": {
            "Prague": [
                {
                    "hash": "0xb702640210ef3cac524352765ff5b26009dd233b6d414ac8cc0c063ff93fa589",
                    "logs": "0x1dcc4de8dec75d7aab85b567b6ccd41ad312451b948a7413f0a142fd40d49347",
                    "txbytes": "0xf9011c800a830186a094d804a3c5f5a98e02d823489a6b0ccbed5e04049a84731ee4d0b8b7427f00000000000000000000000000000000000000000000000000000000000000007f0000000000000000000000010000000000000000000000000000000000000000437f000000000000000000000000ffffffffffffffffffffffffffffffffffffffff807f00000000000000000000000100000000000000000000000000000000000000007ffffffffffffffffffffffffffffffffffffffffffffffffffffffffffffffffe6844f1389163a444405b123678749c26a0576588a447c9496878c4e7eb3513a38f6e1b65a2ae32b4257c96e8cfeb4a9a7ba0036d4342daa77f4b9f9ce97fe3de38551f7e39126c5dcfa4965d9c2ee3389408",
                    "indexes": {
                        "data": 0,
                        "gas": 0,
                        "value": 0
                    },
                    "state": {
                        "0xb8931eccce42c2afaf4d471202eef9104be7c18c": {
                            "nonce": "0x01",
                            "balance": "0x0de0b6b334414528",
                            "code": "0x",
                            "storage": {}
                        },
                        "0xd804a3c5f5a98e02d823489a6b0ccbed5e04039a": {
                            "nonce": "0x00",
                            "balance": "0x2e",
                            "code": "0x6000355415600957005b60203560003555",
                            "storage": {}
                        },
                        "0xd804a3c5f5a98e02d823489a6b0ccbed5e04049a": {
                            "nonce": "0x00",
                            "balance": "0x731ee4d0",
                            "code": "0x427f00000000000000000000000000000000000000000000000000000000000000007f0000000000000000000000010000000000000000000000000000000000000000437f000000000000000000000000ffffffffffffffffffffffffffffffffffffffff807f00000000000000000000000100000000000000000000000000000000000000007ffffffffffffffffffffffffffffffffffffffffffffffffffffffffffffffffe6844f1389163a444405b123678749c55",
                            "storage": {}
                        }
                    }
                }
            ]
        },
        "config": {
            "blobSchedule": {
                "Cancun": {
                    "target": "0x03",
                    "max": "0x06",
                    "baseFeeUpdateFraction": "0x32f0ed"
                },
                "Prague": {
                    "target": "0x06",
                    "max": "0x09",
                    "baseFeeUpdateFraction": "0x4c6964"
                }
            },
            "chainid": "0x01"
        },
        "_info": {
            "hash": "0x3edaac228fa04e5ca2c32bd21d1df803afa411aea2dff4584ba4b1d8be0096ea",
            "comment": "`execution-spec-tests` generated test",
            "filling-transition-tool": "ethereum-spec-evm-resolver 0.0.5",
            "description": "No description available - add a docstring to the python test class or function.",
            "url": "",
            "fixture-format": "state_test",
            "eels-resolution": {
                "git-url": "https://github.com/ethereum/execution-specs.git",
                "branch": "forks/bpos",
                "commit": "7aacb2c54111391af5e98c505d5010b5698a770f"
            }
        }
    }
}