{
    "tests/static/state_tests/stRandom/randomStatetest117Filler.json::randomStatetest117[fork_Cancun-state_test-]": {
        "env": {
            "currentCoinbase": "0x1abb944bb9314c78f5df515a63411fec40e65259",
            "currentGasLimit": "0x7fffffffffffffff",
            "currentNumber": "0x01",
            "currentTimestamp": "0x03e8",
            "currentRandom": "0x0000000000000000000000000000000000000000000000000000000000020000",
            "currentDifficulty": "0x00",
            "currentBaseFee": "0x0a",
            "currentExcessBlobGas": "0x00"
        },
        "pre": {
            "0x3f8b6838486c0252baebb46be335e9135e5273dd": {
                "nonce": "0x00",
                "balance": "0x0de0b6b3a7640000",
                "code": "0x",
                "storage": {}
            },
            "0x1abb944bb9314c78f5df515a63411fec40e65259": {
                "nonce": "0x00",
                "balance": "0x2e",
                "code": "0x6000355415600957005b60203560003555",
                "storage": {}
            },
            "0x1abb944bb9314c78f5df515a63411fec40e65359": {
                "nonce": "0x00",
                "balance": "0x00",
                "code": "0x447f00000000000000000000000000000000000000000000000000000000000000017f0000000000000000000000001abb944bb9314c78f5df515a63411fec40e65259427f000000000000000000000000ffffffffffffffffffffffffffffffffffffffff7f00000000000000000000000100000000000000000000000000000000000000006f8aa4a4980274f18c6158368d4157145560005155",
                "storage": {}
            }
        },
        "transaction": {
            "nonce": "0x00",
            "gasPrice": "0x0a",
            "gasLimit": [
                "0x0186a0"
            ],
            "to": "0x1abb944bb9314c78f5df515a63411fec40e65359",
            "value": [
                "0x691ac7a4"
            ],
            "data": [
                "0x447f00000000000000000000000000000000000000000000000000000000000000017f0000000000000000000000001abb944bb9314c78f5df515a63411fec40e65259427f000000000000000000000000ffffffffffffffffffffffffffffffffffffffff7f00000000000000000000000100000000000000000000000000000000000000006f8aa4a4980274f18c6158368d415714"
            ],
            "sender": "0x3f8b6838486c0252baebb46be335e9135e5273dd",
            "secretKey": "0xf2fefa6338cd954f095592a71abb944bb9314c78f5df515a63411fec40e65259"
        },
        "post": {
            "Cancun": [
                {
                    "hash": "0x5c99b1d8de54f6560f2597d15efc4b07967e23ffeda62b5e80cb506c7a24e7d6",
                    "logs": "0x1dcc4de8dec75d7aab85b567b6ccd41ad312451b948a7413f0a142fd40d49347",
                    "txbytes": "0xf8fb800a830186a0941abb944bb9314c78f5df515a63411fec40e6535984691ac7a4b896447f00000000000000000000000000000000000000000000000000000000000000017f0000000000000000000000001abb944bb9314c78f5df515a63411fec40e65259427f000000000000000000000000ffffffffffffffffffffffffffffffffffffffff7f00000000000000000000000100000000000000000000000000000000000000006f8aa4a4980274f18c6158368d41571426a064824bd43cdd9ffd8a1ecadb7221e477a48882d1f1c25ed1c230b3a42ac983eca0786ef7a997ea6de8318bb4321af832b39896b2705fd7ea1ad7d022b1ee7060c9",
                    "indexes": {
                        "data": 0,
                        "gas": 0,
                        "value": 0
                    },
                    "state": {
                        "0x3f8b6838486c0252baebb46be335e9135e5273dd": {
                            "nonce": "0x01",
                            "balance": "0x0de0b6b33e426e3c",
                            "code": "0x",
                            "storage": {}
                        },
                        "0x1abb944bb9314c78f5df515a63411fec40e65259": {
                            "nonce": "0x00",
                            "balance": "0x2e",
                            "code": "0x6000355415600957005b60203560003555",
                            "storage": {}
                        },
                        "0x1abb944bb9314c78f5df515a63411fec40e65359": {
                            "nonce": "0x00",
                            "balance": "0x691ac7a4",
                            "code": "0x447f00000000000000000000000000000000000000000000000000000000000000017f0000000000000000000000001abb944bb9314c78f5df515a63411fec40e65259427f000000000000000000000000ffffffffffffffffffffffffffffffffffffffff7f00000000000000000000000100000000000000000000000000000000000000006f8aa4a4980274f18c6158368d4157145560005155",
                            "storage": {
                                "0x00": "0x8aa4a4980274f18c6158368d41571455"
                            }
                        }
                    }
                }
            ]
        },
        "config": {
            "blobSchedule": {
                "Cancun": {
                    "target": "0x03",
                    "max": "0x06",
                    "baseFeeUpdateFraction": "0x32f0ed"
                }
            },
            "chainid": "0x01"
        },
        "_info": {
            "hash": "0xe7819dc49e3cf31d2815691ddb1e43ea58173e546d163ccf266202f3e6aea360",
            "comment": "`execution-spec-tests` generated test",
            "filling-transition-tool": "ethereum-spec-evm-resolver 0.0.5",
            "description": "No description available - add a docstring to the python test class or function.",
            "url": "",
            "fixture-format": "state_test",
            "eels-resolution": {
                "git-url": "https://github.com/ethereum/execution-specs.git",
                "branch": "forks/bpos",
                "commit": "7aacb2c54111391af5e98c505d5010b5698a770f"
            }
        }
    },
    "tests/static/state_tests/stRandom/randomStatetest117Filler.json::randomStatetest117[fork_Osaka-state_test-]": {
        "env": {
            "currentCoinbase": "0x1abb944bb9314c78f5df515a63411fec40e65259",
            "currentGasLimit": "0x7fffffffffffffff",
            "currentNumber": "0x01",
            "currentTimestamp": "0x03e8",
            "currentRandom": "0x0000000000000000000000000000000000000000000000000000000000020000",
            "currentDifficulty": "0x00",
            "currentBaseFee": "0x0a",
            "currentExcessBlobGas": "0x00"
        },
        "pre": {
            "0x3f8b6838486c0252baebb46be335e9135e5273dd": {
                "nonce": "0x00",
                "balance": "0x0de0b6b3a7640000",
                "code": "0x",
                "storage": {}
            },
            "0x1abb944bb9314c78f5df515a63411fec40e65259": {
                "nonce": "0x00",
                "balance": "0x2e",
                "code": "0x6000355415600957005b60203560003555",
                "storage": {}
            },
            "0x1abb944bb9314c78f5df515a63411fec40e65359": {
                "nonce": "0x00",
                "balance": "0x00",
                "code": "0x447f00000000000000000000000000000000000000000000000000000000000000017f0000000000000000000000001abb944bb9314c78f5df515a63411fec40e65259427f000000000000000000000000ffffffffffffffffffffffffffffffffffffffff7f00000000000000000000000100000000000000000000000000000000000000006f8aa4a4980274f18c6158368d4157145560005155",
                "storage": {}
            }
        },
        "transaction": {
            "nonce": "0x00",
            "gasPrice": "0x0a",
            "gasLimit": [
                "0x0186a0"
            ],
            "to": "0x1abb944bb9314c78f5df515a63411fec40e65359",
            "value": [
                "0x691ac7a4"
            ],
            "data": [
                "0x447f00000000000000000000000000000000000000000000000000000000000000017f0000000000000000000000001abb944bb9314c78f5df515a63411fec40e65259427f000000000000000000000000ffffffffffffffffffffffffffffffffffffffff7f00000000000000000000000100000000000000000000000000000000000000006f8aa4a4980274f18c6158368d415714"
            ],
            "sender": "0x3f8b6838486c0252baebb46be335e9135e5273dd",
            "secretKey": "0xf2fefa6338cd954f095592a71abb944bb9314c78f5df515a63411fec40e65259"
        },
        "post": {
            "Osaka": [
                {
                    "hash": "0x5c99b1d8de54f6560f2597d15efc4b07967e23ffeda62b5e80cb506c7a24e7d6",
                    "logs": "0x1dcc4de8dec75d7aab85b567b6ccd41ad312451b948a7413f0a142fd40d49347",
                    "txbytes": "0xf8fb800a830186a0941abb944bb9314c78f5df515a63411fec40e6535984691ac7a4b896447f00000000000000000000000000000000000000000000000000000000000000017f0000000000000000000000001abb944bb9314c78f5df515a63411fec40e65259427f000000000000000000000000ffffffffffffffffffffffffffffffffffffffff7f00000000000000000000000100000000000000000000000000000000000000006f8aa4a4980274f18c6158368d41571426a064824bd43cdd9ffd8a1ecadb7221e477a48882d1f1c25ed1c230b3a42ac983eca0786ef7a997ea6de8318bb4321af832b39896b2705fd7ea1ad7d022b1ee7060c9",
                    "indexes": {
                        "data": 0,
                        "gas": 0,
                        "value": 0
                    },
                    "state": {
                        "0x3f8b6838486c0252baebb46be335e9135e5273dd": {
                            "nonce": "0x01",
                            "balance": "0x0de0b6b33e426e3c",
                            "code": "0x",
                            "storage": {}
                        },
                        "0x1abb944bb9314c78f5df515a63411fec40e65259": {
                            "nonce": "0x00",
                            "balance": "0x2e",
                            "code": "0x6000355415600957005b60203560003555",
                            "storage": {}
                        },
                        "0x1abb944bb9314c78f5df515a63411fec40e65359": {
                            "nonce": "0x00",
                            "balance": "0x691ac7a4",
                            "code": "0x447f00000000000000000000000000000000000000000000000000000000000000017f0000000000000000000000001abb944bb9314c78f5df515a63411fec40e65259427f000000000000000000000000ffffffffffffffffffffffffffffffffffffffff7f00000000000000000000000100000000000000000000000000000000000000006f8aa4a4980274f18c6158368d4157145560005155",
                            "storage": {
                                "0x00": "0x8aa4a4980274f18c6158368d41571455"
                            }
                        }
                    }
                }
            ]
        },
        "config": {
            "blobSchedule": {
                "Cancun": {
                    "target": "0x03",
                    "max": "0x06",
                    "baseFeeUpdateFraction": "0x32f0ed"
                },
                "Prague": {
                    "target": "0x06",
                    "max": "0x09",
                    "baseFeeUpdateFraction": "0x4c6964"
                },
                "Osaka": {
                    "target": "0x06",
                    "max": "0x09",
                    "baseFeeUpdateFraction": "0x4c6964"
                }
            },
            "chainid": "0x01"
        },
        "_info": {
            "hash": "0x0921f0c41176a6f388776177861fbdc0c89ac56fac65b1ec37583c3010ad174a",
            "comment": "`execution-spec-tests` generated test",
            "filling-transition-tool": "ethereum-spec-evm-resolver 0.0.5",
            "description": "No description available - add a docstring to the python test class or function.",
            "url": "",
            "fixture-format": "state_test",
            "eels-resolution": {
                "git-url": "https://github.com/ethereum/execution-specs.git",
                "branch": "forks/bpos",
                "commit": "7aacb2c54111391af5e98c505d5010b5698a770f"
            }
        }
    },
    "tests/static/state_tests/stRandom/randomStatetest117Filler.json::randomStatetest117[fork_Prague-state_test-]": {
        "env": {
            "currentCoinbase": "0x1abb944bb9314c78f5df515a63411fec40e65259",
            "currentGasLimit": "0x7fffffffffffffff",
            "currentNumber": "0x01",
            "currentTimestamp": "0x03e8",
            "currentRandom": "0x0000000000000000000000000000000000000000000000000000000000020000",
            "currentDifficulty": "0x00",
            "currentBaseFee": "0x0a",
            "currentExcessBlobGas": "0x00"
        },
        "pre": {
            "0x3f8b6838486c0252baebb46be335e9135e5273dd": {
                "nonce": "0x00",
                "balance": "0x0de0b6b3a7640000",
                "code": "0x",
                "storage": {}
            },
            "0x1abb944bb9314c78f5df515a63411fec40e65259": {
                "nonce": "0x00",
                "balance": "0x2e",
                "code": "0x6000355415600957005b60203560003555",
                "storage": {}
            },
            "0x1abb944bb9314c78f5df515a63411fec40e65359": {
                "nonce": "0x00",
                "balance": "0x00",
                "code": "0x447f00000000000000000000000000000000000000000000000000000000000000017f0000000000000000000000001abb944bb9314c78f5df515a63411fec40e65259427f000000000000000000000000ffffffffffffffffffffffffffffffffffffffff7f00000000000000000000000100000000000000000000000000000000000000006f8aa4a4980274f18c6158368d4157145560005155",
                "storage": {}
            }
        },
        "transaction": {
            "nonce": "0x00",
            "gasPrice": "0x0a",
            "gasLimit": [
                "0x0186a0"
            ],
            "to": "0x1abb944bb9314c78f5df515a63411fec40e65359",
            "value": [
                "0x691ac7a4"
            ],
            "data": [
                "0x447f00000000000000000000000000000000000000000000000000000000000000017f0000000000000000000000001abb944bb9314c78f5df515a63411fec40e65259427f000000000000000000000000ffffffffffffffffffffffffffffffffffffffff7f00000000000000000000000100000000000000000000000000000000000000006f8aa4a4980274f18c6158368d415714"
            ],
            "sender": "0x3f8b6838486c0252baebb46be335e9135e5273dd",
            "secretKey": "0xf2fefa6338cd954f095592a71abb944bb9314c78f5df515a63411fec40e65259"
        },
        "post": {
            "Prague": [
                {
                    "hash": "0x5c99b1d8de54f6560f2597d15efc4b07967e23ffeda62b5e80cb506c7a24e7d6",
                    "logs": "0x1dcc4de8dec75d7aab85b567b6ccd41ad312451b948a7413f0a142fd40d49347",
                    "txbytes": "0xf8fb800a830186a0941abb944bb9314c78f5df515a63411fec40e6535984691ac7a4b896447f00000000000000000000000000000000000000000000000000000000000000017f0000000000000000000000001abb944bb9314c78f5df515a63411fec40e65259427f000000000000000000000000ffffffffffffffffffffffffffffffffffffffff7f00000000000000000000000100000000000000000000000000000000000000006f8aa4a4980274f18c6158368d41571426a064824bd43cdd9ffd8a1ecadb7221e477a48882d1f1c25ed1c230b3a42ac983eca0786ef7a997ea6de8318bb4321af832b39896b2705fd7ea1ad7d022b1ee7060c9",
                    "indexes": {
                        "data": 0,
                        "gas": 0,
                        "value": 0
                    },
                    "state": {
                        "0x3f8b6838486c0252baebb46be335e9135e5273dd": {
                            "nonce": "0x01",
                            "balance": "0x0de0b6b33e426e3c",
                            "code": "0x",
                            "storage": {}
                        },
                        "0x1abb944bb9314c78f5df515a63411fec40e65259": {
                            "nonce": "0x00",
                            "balance": "0x2e",
                            "code": "0x6000355415600957005b60203560003555",
                            "storage": {}
                        },
                        "0x1abb944bb9314c78f5df515a63411fec40e65359": {
                            "nonce": "0x00",
                            "balance": "0x691ac7a4",
                            "code": "0x447f00000000000000000000000000000000000000000000000000000000000000017f0000000000000000000000001abb944bb9314c78f5df515a63411fec40e65259427f000000000000000000000000ffffffffffffffffffffffffffffffffffffffff7f00000000000000000000000100000000000000000000000000000000000000006f8aa4a4980274f18c6158368d4157145560005155",
                            "storage": {
                                "0x00": "0x8aa4a4980274f18c6158368d41571455"
                            }
                        }
                    }
                }
            ]
        },
        "config": {
            "blobSchedule": {
                "Cancun": {
                    "target": "0x03",
                    "max": "0x06",
                    "baseFeeUpdateFraction": "0x32f0ed"
                },
                "Prague": {
                    "target": "0x06",
                    "max": "0x09",
                    "baseFeeUpdateFraction": "0x4c6964"
                }
            },
            "chainid": "0x01"
        },
        "_info": {
            "hash": "0xd79f2c6aeef796a8fd21b17dc96a362d54049208fff7322b83da76596df201d7",
            "comment": "`execution-spec-tests` generated test",
            "filling-transition-tool": "ethereum-spec-evm-resolver 0.0.5",
            "description": "No description available - add a docstring to the python test class or function.",
            "url": "",
            "fixture-format": "state_test",
            "eels-resolution": {
                "git-url": "https://github.com/ethereum/execution-specs.git",
                "branch": "forks/bpos",
                "commit": "7aacb2c54111391af5e98c505d5010b5698a770f"
            }
        }
    }
}