{
    "tests/static/state_tests/stRandom/randomStatetest237Filler.json::randomStatetest237[fork_Cancun-state_test-]": {
        "env": {
            "currentCoinbase": "0xd9062ad132a8b84ee8acf20e4f95b8569301cb43",
            "currentGasLimit": "0x7fffffffffffffff",
            "currentNumber": "0x01",
            "currentTimestamp": "0x03e8",
            "currentRandom": "0x0000000000000000000000000000000000000000000000000000000000020000",
            "currentDifficulty": "0x00",
            "currentBaseFee": "0x0a",
            "currentExcessBlobGas": "0x00"
        },
        "pre": {
            "0x20a97b4af3714d6837fe85fb687720ba798063c2": {
                "nonce": "0x00",
                "balance": "0x0de0b6b3a7640000",
                "code": "0x",
                "storage": {}
            },
            "0xd9062ad132a8b84ee8acf20e4f95b8569301cb43": {
                "nonce": "0x00",
                "balance": "0x2e",
                "code": "0x6000355415600957005b60203560003555",
                "storage": {}
            },
            "0xd9062ad132a8b84ee8acf20e4f95b8569301cc43": {
                "nonce": "0x00",
                "balance": "0x00",
                "code": "0x7ffffffffffffffffffffffffffffffffffffffffffffffffffffffffffffffffe7f0000000000000000000000000000000000000000000000000000000000000001537f000000000000000000000000d9062ad132a8b84ee8acf20e4f95b8569301cb437f00000000000000000000000100000000000000000000000000000000000000007f000000000000000000000000000000000000000000000000000000000000c3507f000000000000000000000000000000000000000000000000000000000000c3507f000000000000000000000000000000000000000000000000000000000000000039385560005155",
                "storage": {}
            }
        },
        "transaction": {
            "nonce": "0x00",
            "gasPrice": "0x0a",
            "gasLimit": [
                "0x0186a0"
            ],
            "to": "0xd9062ad132a8b84ee8acf20e4f95b8569301cc43",
            "value": [
                "0x3a535db4"
            ],
            "data": [
                "0x7ffffffffffffffffffffffffffffffffffffffffffffffffffffffffffffffffe7f0000000000000000000000000000000000000000000000000000000000000001537f000000000000000000000000d9062ad132a8b84ee8acf20e4f95b8569301cb437f00000000000000000000000100000000000000000000000000000000000000007f000000000000000000000000000000000000000000000000000000000000c3507f000000000000000000000000000000000000000000000000000000000000c3507f00000000000000000000000000000000000000000000000000000000000000003938"
            ],
            "sender": "0x20a97b4af3714d6837fe85fb687720ba798063c2",
            "secretKey": "0x901c7ea5dcac7f7a64e08fe7d9062ad132a8b84ee8acf20e4f95b8569301cb43"
        },
        "post": {
            "Cancun": [
                {
                    "hash": "0xe802f3f5e9c4bb8341b8b9fb76659746fbadd1894cf5dafc298946556581874a",
                    "logs": "0x1dcc4de8dec75d7aab85b567b6ccd41ad312451b948a7413f0a142fd40d49347",
                    "txbytes": "0xf9014f800a830186a094d9062ad132a8b84ee8acf20e4f95b8569301cc43843a535db4b8ea7ffffffffffffffffffffffffffffffffffffffffffffffffffffffffffffffffe7f0000000000000000000000000000000000000000000000000000000000000001537f000000000000000000000000d9062ad132a8b84ee8acf20e4f95b8569301cb437f00000000000000000000000100000000000000000000000000000000000000007f000000000000000000000000000000000000000000000000000000000000c3507f000000000000000000000000000000000000000000000000000000000000c3507f0000000000000000000000000000000000000000000000000000000000000000393826a010680e6f1c4aad661da5a513807dd424915acd0c4741301c93d6317e954483e3a03c2f94a2f59e9957c3d63e2d25b187cce2ce3450b5edac33df8e4b59699ca6a5",
                    "indexes": {
                        "data": 0,
                        "gas": 0,
                        "value": 0
                    },
                    "state": {
                        "0x20a97b4af3714d6837fe85fb687720ba798063c2": {
                            "nonce": "0x01",
                            "balance": "0x0de0b6b36d0440ec",
                            "code": "0x",
                            "storage": {}
                        },
                        "0xd9062ad132a8b84ee8acf20e4f95b8569301cb43": {
                            "nonce": "0x00",
                            "balance": "0x2e",
                            "code": "0x6000355415600957005b60203560003555",
                            "storage": {}
                        },
                        "0xd9062ad132a8b84ee8acf20e4f95b8569301cc43": {
                            "nonce": "0x00",
                            "balance": "0x3a535db4",
                            "code": "0x7ffffffffffffffffffffffffffffffffffffffffffffffffffffffffffffffffe7f0000000000000000000000000000000000000000000000000000000000000001537f000000000000000000000000d9062ad132a8b84ee8acf20e4f95b8569301cb437f00000000000000000000000100000000000000000000000000000000000000007f000000000000000000000000000000000000000000000000000000000000c3507f000000000000000000000000000000000000000000000000000000000000c3507f000000000000000000000000000000000000000000000000000000000000000039385560005155",
                            "storage": {
                                "0xef": "0x010000000000000000000000000000000000000000",
                                "0x00": "0xd9062ad132a8b84ee8acf20e4f95b8569301cb43"
                            }
                        }
                    }
                }
            ]
        },
        "config": {
            "blobSchedule": {
                "Cancun": {
                    "target": "0x03",
                    "max": "0x06",
                    "baseFeeUpdateFraction": "0x32f0ed"
                }
            },
            "chainid": "0x01"
        },
        "_info": {
            "hash": "0xe0b7b1977e152bcae4125471f89ba6a49a2a24abe7688e09d49430a0a41daaf8",
            "comment": "`execution-spec-tests` generated test",
            "filling-transition-tool": "ethereum-spec-evm-resolver 0.0.5",
            "description": "No description available - add a docstring to the python test class or function.",
            "url": "",
            "fixture-format": "state_test",
            "eels-resolution": {
                "git-url": "https://github.com/ethereum/execution-specs.git",
                "branch": "forks/bpos",
                "commit": "7aacb2c54111391af5e98c505d5010b5698a770f"
            }
        }
    },
    "tests/static/state_tests/stRandom/randomStatetest237Filler.json::randomStatetest237[fork_Osaka-state_test-]": {
        "env": {
            "currentCoinbase": "0xd9062ad132a8b84ee8acf20e4f95b8569301cb43",
            "currentGasLimit": "0x7fffffffffffffff",
            "currentNumber": "0x01",
            "currentTimestamp": "0x03e8",
            "currentRandom": "0x0000000000000000000000000000000000000000000000000000000000020000",
            "currentDifficulty": "0x00",
            "currentBaseFee": "0x0a",
            "currentExcessBlobGas": "0x00"
        },
        "pre": {
            "0x20a97b4af3714d6837fe85fb687720ba798063c2": {
                "nonce": "0x00",
                "balance": "0x0de0b6b3a7640000",
                "code": "0x",
                "storage": {}
            },
            "0xd9062ad132a8b84ee8acf20e4f95b8569301cb43": {
                "nonce": "0x00",
                "balance": "0x2e",
                "code": "0x6000355415600957005b60203560003555",
                "storage": {}
            },
            "0xd9062ad132a8b84ee8acf20e4f95b8569301cc43": {
                "nonce": "0x00",
                "balance": "0x00",
                "code": "0x7ffffffffffffffffffffffffffffffffffffffffffffffffffffffffffffffffe7f0000000000000000000000000000000000000000000000000000000000000001537f000000000000000000000000d9062ad132a8b84ee8acf20e4f95b8569301cb437f00000000000000000000000100000000000000000000000000000000000000007f000000000000000000000000000000000000000000000000000000000000c3507f000000000000000000000000000000000000000000000000000000000000c3507f000000000000000000000000000000000000000000000000000000000000000039385560005155",
                "storage": {}
            }
        },
        "transaction": {
            "nonce": "0x00",
            "gasPrice": "0x0a",
            "gasLimit": [
                "0x0186a0"
            ],
            "to": "0xd9062ad132a8b84ee8acf20e4f95b8569301cc43",
            "value": [
                "0x3a535db4"
            ],
            "data": [
                "0x7ffffffffffffffffffffffffffffffffffffffffffffffffffffffffffffffffe7f0000000000000000000000000000000000000000000000000000000000000001537f000000000000000000000000d9062ad132a8b84ee8acf20e4f95b8569301cb437f00000000000000000000000100000000000000000000000000000000000000007f000000000000000000000000000000000000000000000000000000000000c3507f000000000000000000000000000000000000000000000000000000000000c3507f00000000000000000000000000000000000000000000000000000000000000003938"
            ],
            "sender": "0x20a97b4af3714d6837fe85fb687720ba798063c2",
            "secretKey": "0x901c7ea5dcac7f7a64e08fe7d9062ad132a8b84ee8acf20e4f95b8569301cb43"
        },
        "post": {
            "Osaka": [
                {
                    "hash": "0xe802f3f5e9c4bb8341b8b9fb76659746fbadd1894cf5dafc298946556581874a",
                    "logs": "0x1dcc4de8dec75d7aab85b567b6ccd41ad312451b948a7413f0a142fd40d49347",
                    "txbytes": "0xf9014f800a830186a094d9062ad132a8b84ee8acf20e4f95b8569301cc43843a535db4b8ea7ffffffffffffffffffffffffffffffffffffffffffffffffffffffffffffffffe7f0000000000000000000000000000000000000000000000000000000000000001537f000000000000000000000000d9062ad132a8b84ee8acf20e4f95b8569301cb437f00000000000000000000000100000000000000000000000000000000000000007f000000000000000000000000000000000000000000000000000000000000c3507f000000000000000000000000000000000000000000000000000000000000c3507f0000000000000000000000000000000000000000000000000000000000000000393826a010680e6f1c4aad661da5a513807dd424915acd0c4741301c93d6317e954483e3a03c2f94a2f59e9957c3d63e2d25b187cce2ce3450b5edac33df8e4b59699ca6a5",
                    "indexes": {
                        "data": 0,
                        "gas": 0,
                        "value": 0
                    },
                    "state": {
                        "0x20a97b4af3714d6837fe85fb687720ba798063c2": {
                            "nonce": "0x01",
                            "balance": "0x0de0b6b36d0440ec",
                            "code": "0x",
                            "storage": {}
                        },
                        "0xd9062ad132a8b84ee8acf20e4f95b8569301cb43": {
                            "nonce": "0x00",
                            "balance": "0x2e",
                            "code": "0x6000355415600957005b60203560003555",
                            "storage": {}
                        },
                        "0xd9062ad132a8b84ee8acf20e4f95b8569301cc43": {
                            "nonce": "0x00",
                            "balance": "0x3a535db4",
                            "code": "0x7ffffffffffffffffffffffffffffffffffffffffffffffffffffffffffffffffe7f0000000000000000000000000000000000000000000000000000000000000001537f000000000000000000000000d9062ad132a8b84ee8acf20e4f95b8569301cb437f00000000000000000000000100000000000000000000000000000000000000007f000000000000000000000000000000000000000000000000000000000000c3507f000000000000000000000000000000000000000000000000000000000000c3507f000000000000000000000000000000000000000000000000000000000000000039385560005155",
                            "storage": {
                                "0xef": "0x010000000000000000000000000000000000000000",
                                "0x00": "0xd9062ad132a8b84ee8acf20e4f95b8569301cb43"
                            }
                        }
                    }
                }
            ]
        },
        "config": {
            "blobSchedule": {
                "Cancun": {
                    "target": "0x03",
                    "max": "0x06",
                    "baseFeeUpdateFraction": "0x32f0ed"
                },
                "Prague": {
                    "target": "0x06",
                    "max": "0x09",
                    "baseFeeUpdateFraction": "0x4c6964"
                },
                "Osaka": {
                    "target": "0x06",
                    "max": "0x09",
                    "baseFeeUpdateFraction": "0x4c6964"
                }
            },
            "chainid": "0x01"
        },
        "_info": {
            "hash": "0xccb8e649b4e235067f8be0521e3a66911b658a45ee31f7da03548e90d144e4f6",
            "comment": "`execution-spec-tests` generated test",
            "filling-transition-tool": "ethereum-spec-evm-resolver 0.0.5",
            "description": "No description available - add a docstring to the python test class or function.",
            "url": "",
            "fixture-format": "state_test",
            "eels-resolution": {
                "git-url": "https://github.com/ethereum/execution-specs.git",
                "branch": "forks/bpos",
                "commit": "7aacb2c54111391af5e98c505d5010b5698a770f"
            }
        }
    },
    "tests/static/state_tests/stRandom/randomStatetest237Filler.json::randomStatetest237[fork_Prague-state_test-]": {
        "env": {
            "currentCoinbase": "0xd9062ad132a8b84ee8acf20e4f95b8569301cb43",
            "currentGasLimit": "0x7fffffffffffffff",
            "currentNumber": "0x01",
            "currentTimestamp": "0x03e8",
            "currentRandom": "0x0000000000000000000000000000000000000000000000000000000000020000",
            "currentDifficulty": "0x00",
            "currentBaseFee": "0x0a",
            "currentExcessBlobGas": "0x00"
        },
        "pre": {
            "0x20a97b4af3714d6837fe85fb687720ba798063c2": {
                "nonce": "0x00",
                "balance": "0x0de0b6b3a7640000",
                "code": "0x",
                "storage": {}
            },
            "0xd9062ad132a8b84ee8acf20e4f95b8569301cb43": {
                "nonce": "0x00",
                "balance": "0x2e",
                "code": "0x6000355415600957005b60203560003555",
                "storage": {}
            },
            "0xd9062ad132a8b84ee8acf20e4f95b8569301cc43": {
                "nonce": "0x00",
                "balance": "0x00",
                "code": "0x7ffffffffffffffffffffffffffffffffffffffffffffffffffffffffffffffffe7f0000000000000000000000000000000000000000000000000000000000000001537f000000000000000000000000d9062ad132a8b84ee8acf20e4f95b8569301cb437f00000000000000000000000100000000000000000000000000000000000000007f000000000000000000000000000000000000000000000000000000000000c3507f000000000000000000000000000000000000000000000000000000000000c3507f000000000000000000000000000000000000000000000000000000000000000039385560005155",
                "storage": {}
            }
        },
        "transaction": {
            "nonce": "0x00",
            "gasPrice": "0x0a",
            "gasLimit": [
                "0x0186a0"
            ],
            "to": "0xd9062ad132a8b84ee8acf20e4f95b8569301cc43",
            "value": [
                "0x3a535db4"
            ],
            "data": [
                "0x7ffffffffffffffffffffffffffffffffffffffffffffffffffffffffffffffffe7f0000000000000000000000000000000000000000000000000000000000000001537f000000000000000000000000d9062ad132a8b84ee8acf20e4f95b8569301cb437f00000000000000000000000100000000000000000000000000000000000000007f000000000000000000000000000000000000000000000000000000000000c3507f000000000000000000000000000000000000000000000000000000000000c3507f00000000000000000000000000000000000000000000000000000000000000003938"
            ],
            "sender": "0x20a97b4af3714d6837fe85fb687720ba798063c2",
            "secretKey": "0x901c7ea5dcac7f7a64e08fe7d9062ad132a8b84ee8acf20e4f95b8569301cb43"
        },
        "post": {
            "Prague": [
                {
                    "hash": "0xe802f3f5e9c4bb8341b8b9fb76659746fbadd1894cf5dafc298946556581874a",
                    "logs": "0x1dcc4de8dec75d7aab85b567b6ccd41ad312451b948a7413f0a142fd40d49347",
                    "txbytes": "0xf9014f800a830186a094d9062ad132a8b84ee8acf20e4f95b8569301cc43843a535db4b8ea7ffffffffffffffffffffffffffffffffffffffffffffffffffffffffffffffffe7f0000000000000000000000000000000000000000000000000000000000000001537f000000000000000000000000d9062ad132a8b84ee8acf20e4f95b8569301cb437f00000000000000000000000100000000000000000000000000000000000000007f000000000000000000000000000000000000000000000000000000000000c3507f000000000000000000000000000000000000000000000000000000000000c3507f0000000000000000000000000000000000000000000000000000000000000000393826a010680e6f1c4aad661da5a513807dd424915acd0c4741301c93d6317e954483e3a03c2f94a2f59e9957c3d63e2d25b187cce2ce3450b5edac33df8e4b59699ca6a5",
                    "indexes": {
                        "data": 0,
                        "gas": 0,
                        "value": 0
                    },
                    "state": {
                        "0x20a97b4af3714d6837fe85fb687720ba798063c2": {
                            "nonce": "0x01",
                            "balance": "0x0de0b6b36d0440ec",
                            "code": "0x",
                            "storage": {}
                        },
                        "0xd9062ad132a8b84ee8acf20e4f95b8569301cb43": {
                            "nonce": "0x00",
                            "balance": "0x2e",
                            "code": "0x6000355415600957005b60203560003555",
                            "storage": {}
                        },
                        "0xd9062ad132a8b84ee8acf20e4f95b8569301cc43": {
                            "nonce": "0x00",
                            "balance": "0x3a535db4",
                            "code": "0x7ffffffffffffffffffffffffffffffffffffffffffffffffffffffffffffffffe7f0000000000000000000000000000000000000000000000000000000000000001537f000000000000000000000000d9062ad132a8b84ee8acf20e4f95b8569301cb437f00000000000000000000000100000000000000000000000000000000000000007f000000000000000000000000000000000000000000000000000000000000c3507f000000000000000000000000000000000000000000000000000000000000c3507f000000000000000000000000000000000000000000000000000000000000000039385560005155",
                            "storage": {
                                "0xef": "0x010000000000000000000000000000000000000000",
                                "0x00": "0xd9062ad132a8b84ee8acf20e4f95b8569301cb43"
                            }
                        }
                    }
                }
            ]
        },
        "config": {
            "blobSchedule": {
                "Cancun": {
                    "target": "0x03",
                    "max": "0x06",
                    "baseFeeUpdateFraction": "0x32f0ed"
                },
                "Prague": {
                    "target": "0x06",
                    "max": "0x09",
                    "baseFeeUpdateFraction": "0x4c6964"
                }
            },
            "chainid": "0x01"
        },
        "_info": {
            "hash": "0xe91aff05250ca188675aa806a475ca7a2f13a20a079565ae8588e9ffb2694888",
            "comment": "`execution-spec-tests` generated test",
            "filling-transition-tool": "ethereum-spec-evm-resolver 0.0.5",
            "description": "No description available - add a docstring to the python test class or function.",
            "url": "",
            "fixture-format": "state_test",
            "eels-resolution": {
                "git-url": "https://github.com/ethereum/execution-specs.git",
                "branch": "forks/bpos",
                "commit": "7aacb2c54111391af5e98c505d5010b5698a770f"
            }
        }
    }
}