{
    "tests/static/state_tests/stRandom/randomStatetest10Filler.json::randomStatetest10[fork_Cancun-state_test-]": {
        "env": {
            "currentCoinbase": "0x8523c7a229bf802b05e61be447c3dc005753bacf",
            "currentGasLimit": "0x7fffffffffffffff",
            "currentNumber": "0x01",
            "currentTimestamp": "0x03e8",
            "currentRandom": "0x0000000000000000000000000000000000000000000000000000000000020000",
            "currentDifficulty": "0x00",
            "currentBaseFee": "0x0a",
            "currentExcessBlobGas": "0x00"
        },
        "pre": {
            "0xd937b2869477b7d4e4ac52e6ea9128c3e61cddf5": {
                "nonce": "0x00",
                "balance": "0x0de0b6b3a7640000",
                "code": "0x",
                "storage": {}
            },
            "0x8523c7a229bf802b05e61be447c3dc005753bacf": {
                "nonce": "0x00",
                "balance": "0x2e",
                "code": "0x6000355415600957005b60203560003555",
                "storage": {}
            },
            "0x8523c7a229bf802b05e61be447c3dc005753bbcf": {
                "nonce": "0x00",
                "balance": "0x00",
                "code": "0x7f00000000000000000000000000000000000000000000000000000000000000007f000000000000000000000000000000000000000000000000000000000000c3507f000000000000000000000000000000000000000000000000000000000000000120417f000000000000000000000000000000000000000000000000000000000000c3507f000000000000000000000000000000000000000000000000000000000000c3508859a1740a0528f26a635216cd980a9a9255",
                "storage": {}
            }
        },
        "transaction": {
            "nonce": "0x00",
            "gasPrice": "0x0a",
            "gasLimit": [
                "0x0186a0"
            ],
            "to": "0x8523c7a229bf802b05e61be447c3dc005753bbcf",
            "value": [
                "0x15b50694"
            ],
            "data": [
                "0x7f00000000000000000000000000000000000000000000000000000000000000007f000000000000000000000000000000000000000000000000000000000000c3507f000000000000000000000000000000000000000000000000000000000000000120417f000000000000000000000000000000000000000000000000000000000000c3507f000000000000000000000000000000000000000000000000000000000000c3508859a1740a0528f26a635216cd980a9a92"
            ],
            "sender": "0xd937b2869477b7d4e4ac52e6ea9128c3e61cddf5",
            "secretKey": "0x613d6513db1dc02ff037f26f8523c7a229bf802b05e61be447c3dc005753bacf"
        },
        "post": {
            "Cancun": [
                {
                    "hash": "0x4620f651798fc9611578050f41293025745a02dadd9a99e10e19ae7f9d3051ad",
                    "logs": "0x1dcc4de8dec75d7aab85b567b6ccd41ad312451b948a7413f0a142fd40d49347",
                    "txbytes": "0xf9011d800a830186a0948523c7a229bf802b05e61be447c3dc005753bbcf8415b50694b8b87f00000000000000000000000000000000000000000000000000000000000000007f000000000000000000000000000000000000000000000000000000000000c3507f000000000000000000000000000000000000000000000000000000000000000120417f000000000000000000000000000000000000000000000000000000000000c3507f000000000000000000000000000000000000000000000000000000000000c3508859a1740a0528f26a635216cd980a9a9226a06254e8f72bd54ad6b97297eafe74609340d1adc3fab09cd3289ddd41ac47f4a1a03d0eaf8106062c66ed13f9192b17ff9df4a8b24757963a287de5b802e7b8686d",
                    "indexes": {
                        "data": 0,
                        "gas": 0,
                        "value": 0
                    },
                    "state": {
                        "0xd937b2869477b7d4e4ac52e6ea9128c3e61cddf5": {
                            "nonce": "0x01",
                            "balance": "0x0de0b6b3a754bdc0",
                            "code": "0x",
                            "storage": {}
                        },
                        "0x8523c7a229bf802b05e61be447c3dc005753bacf": {
                            "nonce": "0x00",
                            "balance": "0x2e",
                            "code": "0x6000355415600957005b60203560003555",
                            "storage": {}
                        },
                        "0x8523c7a229bf802b05e61be447c3dc005753bbcf": {
                            "nonce": "0x00",
                            "balance": "0x00",
                            "code": "0x7f00000000000000000000000000000000000000000000000000000000000000007f000000000000000000000000000000000000000000000000000000000000c3507f000000000000000000000000000000000000000000000000000000000000000120417f000000000000000000000000000000000000000000000000000000000000c3507f000000000000000000000000000000000000000000000000000000000000c3508859a1740a0528f26a635216cd980a9a9255",
                            "storage": {}
                        }
                    }
                }
            ]
        },
        "config": {
            "blobSchedule": {
                "Cancun": {
                    "target": "0x03",
                    "max": "0x06",
                    "baseFeeUpdateFraction": "0x32f0ed"
                }
            },
            "chainid": "0x01"
        },
        "_info": {
            "hash": "0x2d3cd437aa62370ff17a2ec318855cb69eb9fb362a9361afaa5e59335587b28c",
            "comment": "`execution-specs` generated test",
            "filling-transition-tool": "2.18.0rc6",
            "description": "No description available - add a docstring to the python test class or function.",
            "url": "",
            "fixture-format": "state_test"
        }
    },
    "tests/static/state_tests/stRandom/randomStatetest10Filler.json::randomStatetest10[fork_Osaka-state_test-]": {
        "env": {
            "currentCoinbase": "0x8523c7a229bf802b05e61be447c3dc005753bacf",
            "currentGasLimit": "0x7fffffffffffffff",
            "currentNumber": "0x01",
            "currentTimestamp": "0x03e8",
            "currentRandom": "0x0000000000000000000000000000000000000000000000000000000000020000",
            "currentDifficulty": "0x00",
            "currentBaseFee": "0x0a",
            "currentExcessBlobGas": "0x00"
        },
        "pre": {
            "0xd937b2869477b7d4e4ac52e6ea9128c3e61cddf5": {
                "nonce": "0x00",
                "balance": "0x0de0b6b3a7640000",
                "code": "0x",
                "storage": {}
            },
            "0x8523c7a229bf802b05e61be447c3dc005753bacf": {
                "nonce": "0x00",
                "balance": "0x2e",
                "code": "0x6000355415600957005b60203560003555",
                "storage": {}
            },
            "0x8523c7a229bf802b05e61be447c3dc005753bbcf": {
                "nonce": "0x00",
                "balance": "0x00",
                "code": "0x7f00000000000000000000000000000000000000000000000000000000000000007f000000000000000000000000000000000000000000000000000000000000c3507f000000000000000000000000000000000000000000000000000000000000000120417f000000000000000000000000000000000000000000000000000000000000c3507f000000000000000000000000000000000000000000000000000000000000c3508859a1740a0528f26a635216cd980a9a9255",
                "storage": {}
            }
        },
        "transaction": {
            "nonce": "0x00",
            "gasPrice": "0x0a",
            "gasLimit": [
                "0x0186a0"
            ],
            "to": "0x8523c7a229bf802b05e61be447c3dc005753bbcf",
            "value": [
                "0x15b50694"
            ],
            "data": [
                "0x7f00000000000000000000000000000000000000000000000000000000000000007f000000000000000000000000000000000000000000000000000000000000c3507f000000000000000000000000000000000000000000000000000000000000000120417f000000000000000000000000000000000000000000000000000000000000c3507f000000000000000000000000000000000000000000000000000000000000c3508859a1740a0528f26a635216cd980a9a92"
            ],
            "sender": "0xd937b2869477b7d4e4ac52e6ea9128c3e61cddf5",
            "secretKey": "0x613d6513db1dc02ff037f26f8523c7a229bf802b05e61be447c3dc005753bacf"
        },
        "post": {
            "Osaka": [
                {
                    "hash": "0x4620f651798fc9611578050f41293025745a02dadd9a99e10e19ae7f9d3051ad",
                    "logs": "0x1dcc4de8dec75d7aab85b567b6ccd41ad312451b948a7413f0a142fd40d49347",
                    "txbytes": "0xf9011d800a830186a0948523c7a229bf802b05e61be447c3dc005753bbcf8415b50694b8b87f00000000000000000000000000000000000000000000000000000000000000007f000000000000000000000000000000000000000000000000000000000000c3507f000000000000000000000000000000000000000000000000000000000000000120417f000000000000000000000000000000000000000000000000000000000000c3507f000000000000000000000000000000000000000000000000000000000000c3508859a1740a0528f26a635216cd980a9a9226a06254e8f72bd54ad6b97297eafe74609340d1adc3fab09cd3289ddd41ac47f4a1a03d0eaf8106062c66ed13f9192b17ff9df4a8b24757963a287de5b802e7b8686d",
                    "indexes": {
                        "data": 0,
                        "gas": 0,
                        "value": 0
                    },
                    "state": {
                        "0xd937b2869477b7d4e4ac52e6ea9128c3e61cddf5": {
                            "nonce": "0x01",
                            "balance": "0x0de0b6b3a754bdc0",
                            "code": "0x",
                            "storage": {}
                        },
                        "0x8523c7a229bf802b05e61be447c3dc005753bacf": {
                            "nonce": "0x00",
                            "balance": "0x2e",
                            "code": "0x6000355415600957005b60203560003555",
                            "storage": {}
                        },
                        "0x8523c7a229bf802b05e61be447c3dc005753bbcf": {
                            "nonce": "0x00",
                            "balance": "0x00",
                            "code": "0x7f00000000000000000000000000000000000000000000000000000000000000007f000000000000000000000000000000000000000000000000000000000000c3507f000000000000000000000000000000000000000000000000000000000000000120417f000000000000000000000000000000000000000000000000000000000000c3507f000000000000000000000000000000000000000000000000000000000000c3508859a1740a0528f26a635216cd980a9a9255",
                            "storage": {}
                        }
                    }
                }
            ]
        },
        "config": {
            "blobSchedule": {
                "Cancun": {
                    "target": "0x03",
                    "max": "0x06",
                    "baseFeeUpdateFraction": "0x32f0ed"
                },
                "Prague": {
                    "target": "0x06",
                    "max": "0x09",
                    "baseFeeUpdateFraction": "0x4c6964"
                },
                "Osaka": {
                    "target": "0x06",
                    "max": "0x09",
                    "baseFeeUpdateFraction": "0x4c6964"
                }
            },
            "chainid": "0x01"
        },
        "_info": {
            "hash": "0xff96348c2022af3171680c9214609c5ab69cd81ff96d8b98a3bfef10a4a8c054",
            "comment": "`execution-specs` generated test",
            "filling-transition-tool": "2.18.0rc6",
            "description": "No description available - add a docstring to the python test class or function.",
            "url": "",
            "fixture-format": "state_test"
        }
    },
    "tests/static/state_tests/stRandom/randomStatetest10Filler.json::randomStatetest10[fork_Prague-state_test-]": {
        "env": {
            "currentCoinbase": "0x8523c7a229bf802b05e61be447c3dc005753bacf",
            "currentGasLimit": "0x7fffffffffffffff",
            "currentNumber": "0x01",
            "currentTimestamp": "0x03e8",
            "currentRandom": "0x0000000000000000000000000000000000000000000000000000000000020000",
            "currentDifficulty": "0x00",
            "currentBaseFee": "0x0a",
            "currentExcessBlobGas": "0x00"
        },
        "pre": {
            "0xd937b2869477b7d4e4ac52e6ea9128c3e61cddf5": {
                "nonce": "0x00",
                "balance": "0x0de0b6b3a7640000",
                "code": "0x",
                "storage": {}
            },
            "0x8523c7a229bf802b05e61be447c3dc005753bacf": {
                "nonce": "0x00",
                "balance": "0x2e",
                "code": "0x6000355415600957005b60203560003555",
                "storage": {}
            },
            "0x8523c7a229bf802b05e61be447c3dc005753bbcf": {
                "nonce": "0x00",
                "balance": "0x00",
                "code": "0x7f00000000000000000000000000000000000000000000000000000000000000007f000000000000000000000000000000000000000000000000000000000000c3507f000000000000000000000000000000000000000000000000000000000000000120417f000000000000000000000000000000000000000000000000000000000000c3507f000000000000000000000000000000000000000000000000000000000000c3508859a1740a0528f26a635216cd980a9a9255",
                "storage": {}
            }
        },
        "transaction": {
            "nonce": "0x00",
            "gasPrice": "0x0a",
            "gasLimit": [
                "0x0186a0"
            ],
            "to": "0x8523c7a229bf802b05e61be447c3dc005753bbcf",
            "value": [
                "0x15b50694"
            ],
            "data": [
                "0x7f00000000000000000000000000000000000000000000000000000000000000007f000000000000000000000000000000000000000000000000000000000000c3507f000000000000000000000000000000000000000000000000000000000000000120417f000000000000000000000000000000000000000000000000000000000000c3507f000000000000000000000000000000000000000000000000000000000000c3508859a1740a0528f26a635216cd980a9a92"
            ],
            "sender": "0xd937b2869477b7d4e4ac52e6ea9128c3e61cddf5",
            "secretKey": "0x613d6513db1dc02ff037f26f8523c7a229bf802b05e61be447c3dc005753bacf"
        },
        "post": {
            "Prague": [
                {
                    "hash": "0x4620f651798fc9611578050f41293025745a02dadd9a99e10e19ae7f9d3051ad",
                    "logs": "0x1dcc4de8dec75d7aab85b567b6ccd41ad312451b948a7413f0a142fd40d49347",
                    "txbytes": "0xf9011d800a830186a0948523c7a229bf802b05e61be447c3dc005753bbcf8415b50694b8b87f00000000000000000000000000000000000000000000000000000000000000007f000000000000000000000000000000000000000000000000000000000000c3507f000000000000000000000000000000000000000000000000000000000000000120417f000000000000000000000000000000000000000000000000000000000000c3507f000000000000000000000000000000000000000000000000000000000000c3508859a1740a0528f26a635216cd980a9a9226a06254e8f72bd54ad6b97297eafe74609340d1adc3fab09cd3289ddd41ac47f4a1a03d0eaf8106062c66ed13f9192b17ff9df4a8b24757963a287de5b802e7b8686d",
                    "indexes": {
                        "data": 0,
                        "gas": 0,
                        "value": 0
                    },
                    "state": {
                        "0xd937b2869477b7d4e4ac52e6ea9128c3e61cddf5": {
                            "nonce": "0x01",
                            "balance": "0x0de0b6b3a754bdc0",
                            "code": "0x",
                            "storage": {}
                        },
                        "0x8523c7a229bf802b05e61be447c3dc005753bacf": {
                            "nonce": "0x00",
                            "balance": "0x2e",
                            "code": "0x6000355415600957005b60203560003555",
                            "storage": {}
                        },
                        "0x8523c7a229bf802b05e61be447c3dc005753bbcf": {
                            "nonce": "0x00",
                            "balance": "0x00",
                            "code": "0x7f00000000000000000000000000000000000000000000000000000000000000007f000000000000000000000000000000000000000000000000000000000000c3507f000000000000000000000000000000000000000000000000000000000000000120417f000000000000000000000000000000000000000000000000000000000000c3507f000000000000000000000000000000000000000000000000000000000000c3508859a1740a0528f26a635216cd980a9a9255",
                            "storage": {}
                        }
                    }
                }
            ]
        },
        "config": {
            "blobSchedule": {
                "Cancun": {
                    "target": "0x03",
                    "max": "0x06",
                    "baseFeeUpdateFraction": "0x32f0ed"
                },
                "Prague": {
                    "target": "0x06",
                    "max": "0x09",
                    "baseFeeUpdateFraction": "0x4c6964"
                }
            },
            "chainid": "0x01"
        },
        "_info": {
            "hash": "0xd1b0389fd6549e89edcd8f157e64502a772658c204c1229159916196ba04b0ff",
            "comment": "`execution-specs` generated test",
            "filling-transition-tool": "2.18.0rc6",
            "description": "No description available - add a docstring to the python test class or function.",
            "url": "",
            "fixture-format": "state_test"
        }
    }
}