{
    "tests/static/state_tests/stRandom/randomStatetest102Filler.json::randomStatetest102[fork_Cancun-state_test-]": {
        "env": {
            "currentCoinbase": "0x26e60737ee33bb6aeee1c68f5470fc959e677f38",
            "currentGasLimit": "0x7fffffffffffffff",
            "currentNumber": "0x01",
            "currentTimestamp": "0x03e8",
            "currentRandom": "0x0000000000000000000000000000000000000000000000000000000000020000",
            "currentDifficulty": "0x00",
            "currentBaseFee": "0x0a",
            "currentExcessBlobGas": "0x00"
        },
        "pre": {
            "0x191f8402992f17a7289ade2c82d6414c138def7c": {
                "nonce": "0x00",
                "balance": "0x0de0b6b3a7640000",
                "code": "0x",
                "storage": {}
            },
            "0x26e60737ee33bb6aeee1c68f5470fc959e677f38": {
                "nonce": "0x00",
                "balance": "0x2e",
                "code": "0x6000355415600957005b60203560003555",
                "storage": {}
            },
            "0x26e60737ee33bb6aeee1c68f5470fc959e678038": {
                "nonce": "0x00",
                "balance": "0x00",
                "code": "0x457f00000000000000000000000026e60737ee33bb6aeee1c68f5470fc959e677f3844447f00000000000000000000000000000000000000000000000000000000000000007f00000000000000000000000000000000000000000000000000000000000000007f00000000000000000000000000000000000000000000000000000000000000017ffffffffffffffffffffffffffffffffffffffffffffffffffffffffffffffffe6f157094ffff1a04893a9cf3858b85765560005155",
                "storage": {}
            }
        },
        "transaction": {
            "nonce": "0x00",
            "gasPrice": "0x0a",
            "gasLimit": [
                "0x0186a0"
            ],
            "to": "0x26e60737ee33bb6aeee1c68f5470fc959e678038",
            "value": [
                "0x25d01ae2"
            ],
            "data": [
                "0x457f00000000000000000000000026e60737ee33bb6aeee1c68f5470fc959e677f3844447f00000000000000000000000000000000000000000000000000000000000000007f00000000000000000000000000000000000000000000000000000000000000007f00000000000000000000000000000000000000000000000000000000000000017ffffffffffffffffffffffffffffffffffffffffffffffffffffffffffffffffe6f157094ffff1a04893a9cf3858b8576"
            ],
            "sender": "0x191f8402992f17a7289ade2c82d6414c138def7c",
            "secretKey": "0xfc2cdb81d21d48615dcc17b126e60737ee33bb6aeee1c68f5470fc959e677f38"
        },
        "post": {
            "Cancun": [
                {
                    "hash": "0xcd54e533f1e87619be93bd3002c01f43dd1a632aacdf059b697b931ba6d3c6ab",
                    "logs": "0x1dcc4de8dec75d7aab85b567b6ccd41ad312451b948a7413f0a142fd40d49347",
                    "txbytes": "0xf9011d800a830186a09426e60737ee33bb6aeee1c68f5470fc959e6780388425d01ae2b8b8457f00000000000000000000000026e60737ee33bb6aeee1c68f5470fc959e677f3844447f00000000000000000000000000000000000000000000000000000000000000007f00000000000000000000000000000000000000000000000000000000000000007f00000000000000000000000000000000000000000000000000000000000000017ffffffffffffffffffffffffffffffffffffffffffffffffffffffffffffffffe6f157094ffff1a04893a9cf3858b857625a084899d1b9950073841603c01fab2e61409e0b58d76884319481728063943fc0ba069f838682f541b40a08bb003fb478b8f2226619e84af78fe877e77acc1c07c47",
                    "indexes": {
                        "data": 0,
                        "gas": 0,
                        "value": 0
                    },
                    "state": {
                        "0x191f8402992f17a7289ade2c82d6414c138def7c": {
                            "nonce": "0x01",
                            "balance": "0x0de0b6b3818d0f64",
                            "code": "0x",
                            "storage": {}
                        },
                        "0x26e60737ee33bb6aeee1c68f5470fc959e677f38": {
                            "nonce": "0x00",
                            "balance": "0x2e",
                            "code": "0x6000355415600957005b60203560003555",
                            "storage": {}
                        },
                        "0x26e60737ee33bb6aeee1c68f5470fc959e678038": {
                            "nonce": "0x00",
                            "balance": "0x25d01ae2",
                            "code": "0x457f00000000000000000000000026e60737ee33bb6aeee1c68f5470fc959e677f3844447f00000000000000000000000000000000000000000000000000000000000000007f00000000000000000000000000000000000000000000000000000000000000007f00000000000000000000000000000000000000000000000000000000000000017ffffffffffffffffffffffffffffffffffffffffffffffffffffffffffffffffe6f157094ffff1a04893a9cf3858b85765560005155",
                            "storage": {
                                "0x00": "0x157094ffff1a04893a9cf3858b857655"
                            }
                        }
                    }
                }
            ]
        },
        "config": {
            "blobSchedule": {
                "Cancun": {
                    "target": "0x03",
                    "max": "0x06",
                    "baseFeeUpdateFraction": "0x32f0ed"
                }
            },
            "chainid": "0x01"
        },
        "_info": {
            "hash": "0xeb224d46328a0acc85706fd0121873acf908054742bd0d316820e08f2b2dd587",
            "comment": "`execution-spec-tests` generated test",
            "filling-transition-tool": "ethereum-spec-evm-resolver 0.0.5",
            "description": "No description available - add a docstring to the python test class or function.",
            "url": "",
            "fixture-format": "state_test",
            "eels-resolution": {
                "git-url": "https://github.com/marioevz/execution-specs.git",
                "branch": "forks/bpo1",
                "commit": "3387e5f4aedfe99becfdc39b444d6371e25e0924"
            }
        }
    },
    "tests/static/state_tests/stRandom/randomStatetest102Filler.json::randomStatetest102[fork_Osaka-state_test-]": {
        "env": {
            "currentCoinbase": "0x26e60737ee33bb6aeee1c68f5470fc959e677f38",
            "currentGasLimit": "0x7fffffffffffffff",
            "currentNumber": "0x01",
            "currentTimestamp": "0x03e8",
            "currentRandom": "0x0000000000000000000000000000000000000000000000000000000000020000",
            "currentDifficulty": "0x00",
            "currentBaseFee": "0x0a",
            "currentExcessBlobGas": "0x00"
        },
        "pre": {
            "0x191f8402992f17a7289ade2c82d6414c138def7c": {
                "nonce": "0x00",
                "balance": "0x0de0b6b3a7640000",
                "code": "0x",
                "storage": {}
            },
            "0x26e60737ee33bb6aeee1c68f5470fc959e677f38": {
                "nonce": "0x00",
                "balance": "0x2e",
                "code": "0x6000355415600957005b60203560003555",
                "storage": {}
            },
            "0x26e60737ee33bb6aeee1c68f5470fc959e678038": {
                "nonce": "0x00",
                "balance": "0x00",
                "code": "0x457f00000000000000000000000026e60737ee33bb6aeee1c68f5470fc959e677f3844447f00000000000000000000000000000000000000000000000000000000000000007f00000000000000000000000000000000000000000000000000000000000000007f00000000000000000000000000000000000000000000000000000000000000017ffffffffffffffffffffffffffffffffffffffffffffffffffffffffffffffffe6f157094ffff1a04893a9cf3858b85765560005155",
                "storage": {}
            }
        },
        "transaction": {
            "nonce": "0x00",
            "gasPrice": "0x0a",
            "gasLimit": [
                "0x0186a0"
            ],
            "to": "0x26e60737ee33bb6aeee1c68f5470fc959e678038",
            "value": [
                "0x25d01ae2"
            ],
            "data": [
                "0x457f00000000000000000000000026e60737ee33bb6aeee1c68f5470fc959e677f3844447f00000000000000000000000000000000000000000000000000000000000000007f00000000000000000000000000000000000000000000000000000000000000007f00000000000000000000000000000000000000000000000000000000000000017ffffffffffffffffffffffffffffffffffffffffffffffffffffffffffffffffe6f157094ffff1a04893a9cf3858b8576"
            ],
            "sender": "0x191f8402992f17a7289ade2c82d6414c138def7c",
            "secretKey": "0xfc2cdb81d21d48615dcc17b126e60737ee33bb6aeee1c68f5470fc959e677f38"
        },
        "post": {
            "Osaka": [
                {
                    "hash": "0xcd54e533f1e87619be93bd3002c01f43dd1a632aacdf059b697b931ba6d3c6ab",
                    "logs": "0x1dcc4de8dec75d7aab85b567b6ccd41ad312451b948a7413f0a142fd40d49347",
                    "txbytes": "0xf9011d800a830186a09426e60737ee33bb6aeee1c68f5470fc959e6780388425d01ae2b8b8457f00000000000000000000000026e60737ee33bb6aeee1c68f5470fc959e677f3844447f00000000000000000000000000000000000000000000000000000000000000007f00000000000000000000000000000000000000000000000000000000000000007f00000000000000000000000000000000000000000000000000000000000000017ffffffffffffffffffffffffffffffffffffffffffffffffffffffffffffffffe6f157094ffff1a04893a9cf3858b857625a084899d1b9950073841603c01fab2e61409e0b58d76884319481728063943fc0ba069f838682f541b40a08bb003fb478b8f2226619e84af78fe877e77acc1c07c47",
                    "indexes": {
                        "data": 0,
                        "gas": 0,
                        "value": 0
                    },
                    "state": {
                        "0x191f8402992f17a7289ade2c82d6414c138def7c": {
                            "nonce": "0x01",
                            "balance": "0x0de0b6b3818d0f64",
                            "code": "0x",
                            "storage": {}
                        },
                        "0x26e60737ee33bb6aeee1c68f5470fc959e677f38": {
                            "nonce": "0x00",
                            "balance": "0x2e",
                            "code": "0x6000355415600957005b60203560003555",
                            "storage": {}
                        },
                        "0x26e60737ee33bb6aeee1c68f5470fc959e678038": {
                            "nonce": "0x00",
                            "balance": "0x25d01ae2",
                            "code": "0x457f00000000000000000000000026e60737ee33bb6aeee1c68f5470fc959e677f3844447f00000000000000000000000000000000000000000000000000000000000000007f00000000000000000000000000000000000000000000000000000000000000007f00000000000000000000000000000000000000000000000000000000000000017ffffffffffffffffffffffffffffffffffffffffffffffffffffffffffffffffe6f157094ffff1a04893a9cf3858b85765560005155",
                            "storage": {
                                "0x00": "0x157094ffff1a04893a9cf3858b857655"
                            }
                        }
                    }
                }
            ]
        },
        "config": {
            "blobSchedule": {
                "Cancun": {
                    "target": "0x03",
                    "max": "0x06",
                    "baseFeeUpdateFraction": "0x32f0ed"
                },
                "Prague": {
                    "target": "0x06",
                    "max": "0x09",
                    "baseFeeUpdateFraction": "0x4c6964"
                },
                "Osaka": {
                    "target": "0x06",
                    "max": "0x09",
                    "baseFeeUpdateFraction": "0x4c6964"
                }
            },
            "chainid": "0x01"
        },
        "_info": {
            "hash": "0x7983a39fc390638d583d2f113eecccc06f8f8c6ea57a74bb0208c51db18f56b1",
            "comment": "`execution-spec-tests` generated test",
            "filling-transition-tool": "ethereum-spec-evm-resolver 0.0.5",
            "description": "No description available - add a docstring to the python test class or function.",
            "url": "",
            "fixture-format": "state_test",
            "eels-resolution": {
                "git-url": "https://github.com/marioevz/execution-specs.git",
                "branch": "forks/bpo1",
                "commit": "3387e5f4aedfe99becfdc39b444d6371e25e0924"
            }
        }
    },
    "tests/static/state_tests/stRandom/randomStatetest102Filler.json::randomStatetest102[fork_Prague-state_test-]": {
        "env": {
            "currentCoinbase": "0x26e60737ee33bb6aeee1c68f5470fc959e677f38",
            "currentGasLimit": "0x7fffffffffffffff",
            "currentNumber": "0x01",
            "currentTimestamp": "0x03e8",
            "currentRandom": "0x0000000000000000000000000000000000000000000000000000000000020000",
            "currentDifficulty": "0x00",
            "currentBaseFee": "0x0a",
            "currentExcessBlobGas": "0x00"
        },
        "pre": {
            "0x191f8402992f17a7289ade2c82d6414c138def7c": {
                "nonce": "0x00",
                "balance": "0x0de0b6b3a7640000",
                "code": "0x",
                "storage": {}
            },
            "0x26e60737ee33bb6aeee1c68f5470fc959e677f38": {
                "nonce": "0x00",
                "balance": "0x2e",
                "code": "0x6000355415600957005b60203560003555",
                "storage": {}
            },
            "0x26e60737ee33bb6aeee1c68f5470fc959e678038": {
                "nonce": "0x00",
                "balance": "0x00",
                "code": "0x457f00000000000000000000000026e60737ee33bb6aeee1c68f5470fc959e677f3844447f00000000000000000000000000000000000000000000000000000000000000007f00000000000000000000000000000000000000000000000000000000000000007f00000000000000000000000000000000000000000000000000000000000000017ffffffffffffffffffffffffffffffffffffffffffffffffffffffffffffffffe6f157094ffff1a04893a9cf3858b85765560005155",
                "storage": {}
            }
        },
        "transaction": {
            "nonce": "0x00",
            "gasPrice": "0x0a",
            "gasLimit": [
                "0x0186a0"
            ],
            "to": "0x26e60737ee33bb6aeee1c68f5470fc959e678038",
            "value": [
                "0x25d01ae2"
            ],
            "data": [
                "0x457f00000000000000000000000026e60737ee33bb6aeee1c68f5470fc959e677f3844447f00000000000000000000000000000000000000000000000000000000000000007f00000000000000000000000000000000000000000000000000000000000000007f00000000000000000000000000000000000000000000000000000000000000017ffffffffffffffffffffffffffffffffffffffffffffffffffffffffffffffffe6f157094ffff1a04893a9cf3858b8576"
            ],
            "sender": "0x191f8402992f17a7289ade2c82d6414c138def7c",
            "secretKey": "0xfc2cdb81d21d48615dcc17b126e60737ee33bb6aeee1c68f5470fc959e677f38"
        },
        "post": {
            "Prague": [
                {
                    "hash": "0xcd54e533f1e87619be93bd3002c01f43dd1a632aacdf059b697b931ba6d3c6ab",
                    "logs": "0x1dcc4de8dec75d7aab85b567b6ccd41ad312451b948a7413f0a142fd40d49347",
                    "txbytes": "0xf9011d800a830186a09426e60737ee33bb6aeee1c68f5470fc959e6780388425d01ae2b8b8457f00000000000000000000000026e60737ee33bb6aeee1c68f5470fc959e677f3844447f00000000000000000000000000000000000000000000000000000000000000007f00000000000000000000000000000000000000000000000000000000000000007f00000000000000000000000000000000000000000000000000000000000000017ffffffffffffffffffffffffffffffffffffffffffffffffffffffffffffffffe6f157094ffff1a04893a9cf3858b857625a084899d1b9950073841603c01fab2e61409e0b58d76884319481728063943fc0ba069f838682f541b40a08bb003fb478b8f2226619e84af78fe877e77acc1c07c47",
                    "indexes": {
                        "data": 0,
                        "gas": 0,
                        "value": 0
                    },
                    "state": {
                        "0x191f8402992f17a7289ade2c82d6414c138def7c": {
                            "nonce": "0x01",
                            "balance": "0x0de0b6b3818d0f64",
                            "code": "0x",
                            "storage": {}
                        },
                        "0x26e60737ee33bb6aeee1c68f5470fc959e677f38": {
                            "nonce": "0x00",
                            "balance": "0x2e",
                            "code": "0x6000355415600957005b60203560003555",
                            "storage": {}
                        },
                        "0x26e60737ee33bb6aeee1c68f5470fc959e678038": {
                            "nonce": "0x00",
                            "balance": "0x25d01ae2",
                            "code": "0x457f00000000000000000000000026e60737ee33bb6aeee1c68f5470fc959e677f3844447f00000000000000000000000000000000000000000000000000000000000000007f00000000000000000000000000000000000000000000000000000000000000007f00000000000000000000000000000000000000000000000000000000000000017ffffffffffffffffffffffffffffffffffffffffffffffffffffffffffffffffe6f157094ffff1a04893a9cf3858b85765560005155",
                            "storage": {
                                "0x00": "0x157094ffff1a04893a9cf3858b857655"
                            }
                        }
                    }
                }
            ]
        },
        "config": {
            "blobSchedule": {
                "Cancun": {
                    "target": "0x03",
                    "max": "0x06",
                    "baseFeeUpdateFraction": "0x32f0ed"
                },
                "Prague": {
                    "target": "0x06",
                    "max": "0x09",
                    "baseFeeUpdateFraction": "0x4c6964"
                }
            },
            "chainid": "0x01"
        },
        "_info": {
            "hash": "0x68d699ca35b7cfcf1fe5327f39c058b7c55d8ac9964c015b5a5bde40f5a8f01f",
            "comment": "`execution-spec-tests` generated test",
            "filling-transition-tool": "ethereum-spec-evm-resolver 0.0.5",
            "description": "No description available - add a docstring to the python test class or function.",
            "url": "",
            "fixture-format": "state_test",
            "eels-resolution": {
                "git-url": "https://github.com/marioevz/execution-specs.git",
                "branch": "forks/bpo1",
                "commit": "3387e5f4aedfe99becfdc39b444d6371e25e0924"
            }
        }
    }
}