{
    "tests/static/state_tests/stRandom/randomStatetest336Filler.json::randomStatetest336[fork_Cancun-state_test-]": {
        "env": {
            "currentCoinbase": "0x0966ea26457d3e3595b7769e0ae4a039e8195593",
            "currentGasLimit": "0x7fffffffffffffff",
            "currentNumber": "0x01",
            "currentTimestamp": "0x03e8",
            "currentRandom": "0x0000000000000000000000000000000000000000000000000000000000020000",
            "currentDifficulty": "0x00",
            "currentBaseFee": "0x0a",
            "currentExcessBlobGas": "0x00"
        },
        "pre": {
            "0xe8f06837336d8448e1a84cb429983afaa5119a85": {
                "nonce": "0x00",
                "balance": "0x0de0b6b3a7640000",
                "code": "0x",
                "storage": {}
            },
            "0x0966ea26457d3e3595b7769e0ae4a039e8195593": {
                "nonce": "0x00",
                "balance": "0x2e",
                "code": "0x6000355415600957005b60203560003555",
                "storage": {}
            },
            "0x0966ea26457d3e3595b7769e0ae4a039e8195693": {
                "nonce": "0x00",
                "balance": "0x0de0b6b3a7640000",
                "code": "0x41443442f34241",
                "storage": {}
            }
        },
        "transaction": {
            "nonce": "0x00",
            "gasPrice": "0x0a",
            "gasLimit": [
                "0x061a80"
            ],
            "to": "0x0966ea26457d3e3595b7769e0ae4a039e8195693",
            "value": [
                "0x0186a0"
            ],
            "data": [
                "0x42"
            ],
            "sender": "0xe8f06837336d8448e1a84cb429983afaa5119a85",
            "secretKey": "0x28a9dc3896d4b0650914b5e70966ea26457d3e3595b7769e0ae4a039e8195593"
        },
        "post": {
            "Cancun": [
                {
                    "hash": "0xa5e1aa6499ef455289601e262e92269cf84aa1cf3818b28e919ed87044c7eca3",
                    "logs": "0x1dcc4de8dec75d7aab85b567b6ccd41ad312451b948a7413f0a142fd40d49347",
                    "txbytes": "0xf863800a83061a80940966ea26457d3e3595b7769e0ae4a039e8195693830186a04226a0f4a16ba08140795e6f113c453bbfb5fb537a72cb40b331b4c40dec5762686f5da02e8770a41ef56dba6aa0c78f3e4acc3dd556b0300c9f5fa78d3443702ae77592",
                    "indexes": {
                        "data": 0,
                        "gas": 0,
                        "value": 0
                    },
                    "state": {
                        "0xe8f06837336d8448e1a84cb429983afaa5119a85": {
                            "nonce": "0x01",
                            "balance": "0x0de0b6b3a75ad9c6",
                            "code": "0x",
                            "storage": {}
                        },
                        "0x0966ea26457d3e3595b7769e0ae4a039e8195593": {
                            "nonce": "0x00",
                            "balance": "0x2e",
                            "code": "0x6000355415600957005b60203560003555",
                            "storage": {}
                        },
                        "0x0966ea26457d3e3595b7769e0ae4a039e8195693": {
                            "nonce": "0x00",
                            "balance": "0x0de0b6b3a76586a0",
                            "code": "0x41443442f34241",
                            "storage": {}
                        }
                    }
                }
            ]
        },
        "config": {
            "blobSchedule": {
                "Cancun": {
                    "target": "0x03",
                    "max": "0x06",
                    "baseFeeUpdateFraction": "0x32f0ed"
                }
            },
            "chainid": "0x01"
        },
        "_info": {
            "hash": "0x69efa0841794178f8e68062e561ee28ea08c22cc6e58040cf1747c1d40b2d3cc",
            "comment": "`execution-spec-tests` generated test",
            "filling-transition-tool": "ethereum-spec-evm-resolver 0.0.5",
            "description": "No description available - add a docstring to the python test class or function.",
            "url": "",
            "fixture-format": "state_test",
            "eels-resolution": {
                "git-url": "https://github.com/marioevz/execution-specs.git",
                "branch": "forks/bpo1",
                "commit": "3387e5f4aedfe99becfdc39b444d6371e25e0924"
            }
        }
    },
    "tests/static/state_tests/stRandom/randomStatetest336Filler.json::randomStatetest336[fork_Osaka-state_test-]": {
        "env": {
            "currentCoinbase": "0x0966ea26457d3e3595b7769e0ae4a039e8195593",
            "currentGasLimit": "0x7fffffffffffffff",
            "currentNumber": "0x01",
            "currentTimestamp": "0x03e8",
            "currentRandom": "0x0000000000000000000000000000000000000000000000000000000000020000",
            "currentDifficulty": "0x00",
            "currentBaseFee": "0x0a",
            "currentExcessBlobGas": "0x00"
        },
        "pre": {
            "0xe8f06837336d8448e1a84cb429983afaa5119a85": {
                "nonce": "0x00",
                "balance": "0x0de0b6b3a7640000",
                "code": "0x",
                "storage": {}
            },
            "0x0966ea26457d3e3595b7769e0ae4a039e8195593": {
                "nonce": "0x00",
                "balance": "0x2e",
                "code": "0x6000355415600957005b60203560003555",
                "storage": {}
            },
            "0x0966ea26457d3e3595b7769e0ae4a039e8195693": {
                "nonce": "0x00",
                "balance": "0x0de0b6b3a7640000",
                "code": "0x41443442f34241",
                "storage": {}
            }
        },
        "transaction": {
            "nonce": "0x00",
            "gasPrice": "0x0a",
            "gasLimit": [
                "0x061a80"
            ],
            "to": "0x0966ea26457d3e3595b7769e0ae4a039e8195693",
            "value": [
                "0x0186a0"
            ],
            "data": [
                "0x42"
            ],
            "sender": "0xe8f06837336d8448e1a84cb429983afaa5119a85",
            "secretKey": "0x28a9dc3896d4b0650914b5e70966ea26457d3e3595b7769e0ae4a039e8195593"
        },
        "post": {
            "Osaka": [
                {
                    "hash": "0xa5e1aa6499ef455289601e262e92269cf84aa1cf3818b28e919ed87044c7eca3",
                    "logs": "0x1dcc4de8dec75d7aab85b567b6ccd41ad312451b948a7413f0a142fd40d49347",
                    "txbytes": "0xf863800a83061a80940966ea26457d3e3595b7769e0ae4a039e8195693830186a04226a0f4a16ba08140795e6f113c453bbfb5fb537a72cb40b331b4c40dec5762686f5da02e8770a41ef56dba6aa0c78f3e4acc3dd556b0300c9f5fa78d3443702ae77592",
                    "indexes": {
                        "data": 0,
                        "gas": 0,
                        "value": 0
                    },
                    "state": {
                        "0xe8f06837336d8448e1a84cb429983afaa5119a85": {
                            "nonce": "0x01",
                            "balance": "0x0de0b6b3a75ad9c6",
                            "code": "0x",
                            "storage": {}
                        },
                        "0x0966ea26457d3e3595b7769e0ae4a039e8195593": {
                            "nonce": "0x00",
                            "balance": "0x2e",
                            "code": "0x6000355415600957005b60203560003555",
                            "storage": {}
                        },
                        "0x0966ea26457d3e3595b7769e0ae4a039e8195693": {
                            "nonce": "0x00",
                            "balance": "0x0de0b6b3a76586a0",
                            "code": "0x41443442f34241",
                            "storage": {}
                        }
                    }
                }
            ]
        },
        "config": {
            "blobSchedule": {
                "Cancun": {
                    "target": "0x03",
                    "max": "0x06",
                    "baseFeeUpdateFraction": "0x32f0ed"
                },
                "Prague": {
                    "target": "0x06",
                    "max": "0x09",
                    "baseFeeUpdateFraction": "0x4c6964"
                },
                "Osaka": {
                    "target": "0x06",
                    "max": "0x09",
                    "baseFeeUpdateFraction": "0x4c6964"
                }
            },
            "chainid": "0x01"
        },
        "_info": {
            "hash": "0x5e5050282414da08e0a6d561089666b88285943135ec59037e390ff5d48721e8",
            "comment": "`execution-spec-tests` generated test",
            "filling-transition-tool": "ethereum-spec-evm-resolver 0.0.5",
            "description": "No description available - add a docstring to the python test class or function.",
            "url": "",
            "fixture-format": "state_test",
            "eels-resolution": {
                "git-url": "https://github.com/marioevz/execution-specs.git",
                "branch": "forks/bpo1",
                "commit": "3387e5f4aedfe99becfdc39b444d6371e25e0924"
            }
        }
    },
    "tests/static/state_tests/stRandom/randomStatetest336Filler.json::randomStatetest336[fork_Prague-state_test-]": {
        "env": {
            "currentCoinbase": "0x0966ea26457d3e3595b7769e0ae4a039e8195593",
            "currentGasLimit": "0x7fffffffffffffff",
            "currentNumber": "0x01",
            "currentTimestamp": "0x03e8",
            "currentRandom": "0x0000000000000000000000000000000000000000000000000000000000020000",
            "currentDifficulty": "0x00",
            "currentBaseFee": "0x0a",
            "currentExcessBlobGas": "0x00"
        },
        "pre": {
            "0xe8f06837336d8448e1a84cb429983afaa5119a85": {
                "nonce": "0x00",
                "balance": "0x0de0b6b3a7640000",
                "code": "0x",
                "storage": {}
            },
            "0x0966ea26457d3e3595b7769e0ae4a039e8195593": {
                "nonce": "0x00",
                "balance": "0x2e",
                "code": "0x6000355415600957005b60203560003555",
                "storage": {}
            },
            "0x0966ea26457d3e3595b7769e0ae4a039e8195693": {
                "nonce": "0x00",
                "balance": "0x0de0b6b3a7640000",
                "code": "0x41443442f34241",
                "storage": {}
            }
        },
        "transaction": {
            "nonce": "0x00",
            "gasPrice": "0x0a",
            "gasLimit": [
                "0x061a80"
            ],
            "to": "0x0966ea26457d3e3595b7769e0ae4a039e8195693",
            "value": [
                "0x0186a0"
            ],
            "data": [
                "0x42"
            ],
            "sender": "0xe8f06837336d8448e1a84cb429983afaa5119a85",
            "secretKey": "0x28a9dc3896d4b0650914b5e70966ea26457d3e3595b7769e0ae4a039e8195593"
        },
        "post": {
            "Prague": [
                {
                    "hash": "0xa5e1aa6499ef455289601e262e92269cf84aa1cf3818b28e919ed87044c7eca3",
                    "logs": "0x1dcc4de8dec75d7aab85b567b6ccd41ad312451b948a7413f0a142fd40d49347",
                    "txbytes": "0xf863800a83061a80940966ea26457d3e3595b7769e0ae4a039e8195693830186a04226a0f4a16ba08140795e6f113c453bbfb5fb537a72cb40b331b4c40dec5762686f5da02e8770a41ef56dba6aa0c78f3e4acc3dd556b0300c9f5fa78d3443702ae77592",
                    "indexes": {
                        "data": 0,
                        "gas": 0,
                        "value": 0
                    },
                    "state": {
                        "0xe8f06837336d8448e1a84cb429983afaa5119a85": {
                            "nonce": "0x01",
                            "balance": "0x0de0b6b3a75ad9c6",
                            "code": "0x",
                            "storage": {}
                        },
                        "0x0966ea26457d3e3595b7769e0ae4a039e8195593": {
                            "nonce": "0x00",
                            "balance": "0x2e",
                            "code": "0x6000355415600957005b60203560003555",
                            "storage": {}
                        },
                        "0x0966ea26457d3e3595b7769e0ae4a039e8195693": {
                            "nonce": "0x00",
                            "balance": "0x0de0b6b3a76586a0",
                            "code": "0x41443442f34241",
                            "storage": {}
                        }
                    }
                }
            ]
        },
        "config": {
            "blobSchedule": {
                "Cancun": {
                    "target": "0x03",
                    "max": "0x06",
                    "baseFeeUpdateFraction": "0x32f0ed"
                },
                "Prague": {
                    "target": "0x06",
                    "max": "0x09",
                    "baseFeeUpdateFraction": "0x4c6964"
                }
            },
            "chainid": "0x01"
        },
        "_info": {
            "hash": "0xe6715f47bf89a848c281c5ac11520d42bd1b33badfbce0f837d801d616cac0f7",
            "comment": "`execution-spec-tests` generated test",
            "filling-transition-tool": "ethereum-spec-evm-resolver 0.0.5",
            "description": "No description available - add a docstring to the python test class or function.",
            "url": "",
            "fixture-format": "state_test",
            "eels-resolution": {
                "git-url": "https://github.com/marioevz/execution-specs.git",
                "branch": "forks/bpo1",
                "commit": "3387e5f4aedfe99becfdc39b444d6371e25e0924"
            }
        }
    }
}