{
    "tests/static/state_tests/stRandom/randomStatetest31Filler.json::randomStatetest31[fork_Cancun-state_test-]": {
        "env": {
            "currentCoinbase": "0xff18b085f7afb8e349912ba11176e757fbbbfa11",
            "currentGasLimit": "0x7fffffffffffffff",
            "currentNumber": "0x01",
            "currentTimestamp": "0x03e8",
            "currentRandom": "0x0000000000000000000000000000000000000000000000000000000000020000",
            "currentDifficulty": "0x00",
            "currentBaseFee": "0x0a",
            "currentExcessBlobGas": "0x00"
        },
        "pre": {
            "0xb42244f842f412455698aa7867cf86071b0ae279": {
                "nonce": "0x00",
                "balance": "0x0de0b6b3a7640000",
                "code": "0x",
                "storage": {}
            },
            "0xff18b085f7afb8e349912ba11176e757fbbbfa11": {
                "nonce": "0x00",
                "balance": "0x2e",
                "code": "0x6000355415600957005b60203560003555",
                "storage": {}
            },
            "0xff18b085f7afb8e349912ba11176e757fbbbfb11": {
                "nonce": "0x00",
                "balance": "0x00",
                "code": "0x387f00000000000000000000000100000000000000000000000000000000000000007f000000000000000000000000000000000000000000000000000000000000c3507f000000000000000000000000000000000000000000000000000000000000c3507f00000000000000000000000100000000000000000000000000000000000000007f000000000000000000000000000000000000000000000000000000000000c3507f00000000000000000000000000000000000000000000000000000000000000007f000000000000000000000000000000000000000000000000000000000000000090375560005155",
                "storage": {}
            }
        },
        "transaction": {
            "nonce": "0x00",
            "gasPrice": "0x0a",
            "gasLimit": [
                "0x0186a0"
            ],
            "to": "0xff18b085f7afb8e349912ba11176e757fbbbfb11",
            "value": [
                "0x50282fa0"
            ],
            "data": [
                "0x387f00000000000000000000000100000000000000000000000000000000000000007f000000000000000000000000000000000000000000000000000000000000c3507f000000000000000000000000000000000000000000000000000000000000c3507f00000000000000000000000100000000000000000000000000000000000000007f000000000000000000000000000000000000000000000000000000000000c3507f00000000000000000000000000000000000000000000000000000000000000007f00000000000000000000000000000000000000000000000000000000000000009037"
            ],
            "sender": "0xb42244f842f412455698aa7867cf86071b0ae279",
            "secretKey": "0x2f112d7f0a2a2557167271a7ff18b085f7afb8e349912ba11176e757fbbbfa11"
        },
        "post": {
            "Cancun": [
                {
                    "hash": "0xe28618b96064b0218ee5ed1b0ac8a837fb138a7b7381788da189da2354e7541c",
                    "logs": "0x1dcc4de8dec75d7aab85b567b6ccd41ad312451b948a7413f0a142fd40d49347",
                    "txbytes": "0xf9014f800a830186a094ff18b085f7afb8e349912ba11176e757fbbbfb118450282fa0b8ea387f00000000000000000000000100000000000000000000000000000000000000007f000000000000000000000000000000000000000000000000000000000000c3507f000000000000000000000000000000000000000000000000000000000000c3507f00000000000000000000000100000000000000000000000000000000000000007f000000000000000000000000000000000000000000000000000000000000c3507f00000000000000000000000000000000000000000000000000000000000000007f0000000000000000000000000000000000000000000000000000000000000000903725a0d8919a6757df4737563e44cd7ab4c756d34f555e93072a711046e11167343961a02905ed21b5b8ea00e9eb42b4e0273a472e9a0868cc5aff1ba344fb295f3547ab",
                    "indexes": {
                        "data": 0,
                        "gas": 0,
                        "value": 0
                    },
                    "state": {
                        "0xb42244f842f412455698aa7867cf86071b0ae279": {
                            "nonce": "0x01",
                            "balance": "0x0de0b6b3572f8670",
                            "code": "0x",
                            "storage": {}
                        },
                        "0xff18b085f7afb8e349912ba11176e757fbbbfa11": {
                            "nonce": "0x00",
                            "balance": "0x2e",
                            "code": "0x6000355415600957005b60203560003555",
                            "storage": {}
                        },
                        "0xff18b085f7afb8e349912ba11176e757fbbbfb11": {
                            "nonce": "0x00",
                            "balance": "0x50282fa0",
                            "code": "0x387f00000000000000000000000100000000000000000000000000000000000000007f000000000000000000000000000000000000000000000000000000000000c3507f000000000000000000000000000000000000000000000000000000000000c3507f00000000000000000000000100000000000000000000000000000000000000007f000000000000000000000000000000000000000000000000000000000000c3507f00000000000000000000000000000000000000000000000000000000000000007f000000000000000000000000000000000000000000000000000000000000000090375560005155",
                            "storage": {
                                "0x010000000000000000000000000000000000000000": "0xc350",
                                "0x387f000000000000000000000001000000000000000000000000000000000000": "0xc350"
                            }
                        }
                    }
                }
            ]
        },
        "config": {
            "blobSchedule": {
                "Cancun": {
                    "target": "0x03",
                    "max": "0x06",
                    "baseFeeUpdateFraction": "0x32f0ed"
                }
            },
            "chainid": "0x01"
        },
        "_info": {
            "hash": "0x57ad7ea4217bb2e551e34b4ad7a26c6e2cc5f03c1940c0cc74840db67ffe267c",
            "comment": "`execution-specs` generated test",
            "filling-transition-tool": "2.18.0rc6",
            "description": "No description available - add a docstring to the python test class or function.",
            "url": "",
            "fixture-format": "state_test"
        }
    },
    "tests/static/state_tests/stRandom/randomStatetest31Filler.json::randomStatetest31[fork_Osaka-state_test-]": {
        "env": {
            "currentCoinbase": "0xff18b085f7afb8e349912ba11176e757fbbbfa11",
            "currentGasLimit": "0x7fffffffffffffff",
            "currentNumber": "0x01",
            "currentTimestamp": "0x03e8",
            "currentRandom": "0x0000000000000000000000000000000000000000000000000000000000020000",
            "currentDifficulty": "0x00",
            "currentBaseFee": "0x0a",
            "currentExcessBlobGas": "0x00"
        },
        "pre": {
            "0xb42244f842f412455698aa7867cf86071b0ae279": {
                "nonce": "0x00",
                "balance": "0x0de0b6b3a7640000",
                "code": "0x",
                "storage": {}
            },
            "0xff18b085f7afb8e349912ba11176e757fbbbfa11": {
                "nonce": "0x00",
                "balance": "0x2e",
                "code": "0x6000355415600957005b60203560003555",
                "storage": {}
            },
            "0xff18b085f7afb8e349912ba11176e757fbbbfb11": {
                "nonce": "0x00",
                "balance": "0x00",
                "code": "0x387f00000000000000000000000100000000000000000000000000000000000000007f000000000000000000000000000000000000000000000000000000000000c3507f000000000000000000000000000000000000000000000000000000000000c3507f00000000000000000000000100000000000000000000000000000000000000007f000000000000000000000000000000000000000000000000000000000000c3507f00000000000000000000000000000000000000000000000000000000000000007f000000000000000000000000000000000000000000000000000000000000000090375560005155",
                "storage": {}
            }
        },
        "transaction": {
            "nonce": "0x00",
            "gasPrice": "0x0a",
            "gasLimit": [
                "0x0186a0"
            ],
            "to": "0xff18b085f7afb8e349912ba11176e757fbbbfb11",
            "value": [
                "0x50282fa0"
            ],
            "data": [
                "0x387f00000000000000000000000100000000000000000000000000000000000000007f000000000000000000000000000000000000000000000000000000000000c3507f000000000000000000000000000000000000000000000000000000000000c3507f00000000000000000000000100000000000000000000000000000000000000007f000000000000000000000000000000000000000000000000000000000000c3507f00000000000000000000000000000000000000000000000000000000000000007f00000000000000000000000000000000000000000000000000000000000000009037"
            ],
            "sender": "0xb42244f842f412455698aa7867cf86071b0ae279",
            "secretKey": "0x2f112d7f0a2a2557167271a7ff18b085f7afb8e349912ba11176e757fbbbfa11"
        },
        "post": {
            "Osaka": [
                {
                    "hash": "0xe28618b96064b0218ee5ed1b0ac8a837fb138a7b7381788da189da2354e7541c",
                    "logs": "0x1dcc4de8dec75d7aab85b567b6ccd41ad312451b948a7413f0a142fd40d49347",
                    "txbytes": "0xf9014f800a830186a094ff18b085f7afb8e349912ba11176e757fbbbfb118450282fa0b8ea387f00000000000000000000000100000000000000000000000000000000000000007f000000000000000000000000000000000000000000000000000000000000c3507f000000000000000000000000000000000000000000000000000000000000c3507f00000000000000000000000100000000000000000000000000000000000000007f000000000000000000000000000000000000000000000000000000000000c3507f00000000000000000000000000000000000000000000000000000000000000007f0000000000000000000000000000000000000000000000000000000000000000903725a0d8919a6757df4737563e44cd7ab4c756d34f555e93072a711046e11167343961a02905ed21b5b8ea00e9eb42b4e0273a472e9a0868cc5aff1ba344fb295f3547ab",
                    "indexes": {
                        "data": 0,
                        "gas": 0,
                        "value": 0
                    },
                    "state": {
                        "0xb42244f842f412455698aa7867cf86071b0ae279": {
                            "nonce": "0x01",
                            "balance": "0x0de0b6b3572f8670",
                            "code": "0x",
                            "storage": {}
                        },
                        "0xff18b085f7afb8e349912ba11176e757fbbbfa11": {
                            "nonce": "0x00",
                            "balance": "0x2e",
                            "code": "0x6000355415600957005b60203560003555",
                            "storage": {}
                        },
                        "0xff18b085f7afb8e349912ba11176e757fbbbfb11": {
                            "nonce": "0x00",
                            "balance": "0x50282fa0",
                            "code": "0x387f00000000000000000000000100000000000000000000000000000000000000007f000000000000000000000000000000000000000000000000000000000000c3507f000000000000000000000000000000000000000000000000000000000000c3507f00000000000000000000000100000000000000000000000000000000000000007f000000000000000000000000000000000000000000000000000000000000c3507f00000000000000000000000000000000000000000000000000000000000000007f000000000000000000000000000000000000000000000000000000000000000090375560005155",
                            "storage": {
                                "0x010000000000000000000000000000000000000000": "0xc350",
                                "0x387f000000000000000000000001000000000000000000000000000000000000": "0xc350"
                            }
                        }
                    }
                }
            ]
        },
        "config": {
            "blobSchedule": {
                "Cancun": {
                    "target": "0x03",
                    "max": "0x06",
                    "baseFeeUpdateFraction": "0x32f0ed"
                },
                "Prague": {
                    "target": "0x06",
                    "max": "0x09",
                    "baseFeeUpdateFraction": "0x4c6964"
                },
                "Osaka": {
                    "target": "0x06",
                    "max": "0x09",
                    "baseFeeUpdateFraction": "0x4c6964"
                }
            },
            "chainid": "0x01"
        },
        "_info": {
            "hash": "0xb435907b7841b92120e1a2ba627796a7e0a42bd687bc3228151913fc53a7b0a2",
            "comment": "`execution-specs` generated test",
            "filling-transition-tool": "2.18.0rc6",
            "description": "No description available - add a docstring to the python test class or function.",
            "url": "",
            "fixture-format": "state_test"
        }
    },
    "tests/static/state_tests/stRandom/randomStatetest31Filler.json::randomStatetest31[fork_Prague-state_test-]": {
        "env": {
            "currentCoinbase": "0xff18b085f7afb8e349912ba11176e757fbbbfa11",
            "currentGasLimit": "0x7fffffffffffffff",
            "currentNumber": "0x01",
            "currentTimestamp": "0x03e8",
            "currentRandom": "0x0000000000000000000000000000000000000000000000000000000000020000",
            "currentDifficulty": "0x00",
            "currentBaseFee": "0x0a",
            "currentExcessBlobGas": "0x00"
        },
        "pre": {
            "0xb42244f842f412455698aa7867cf86071b0ae279": {
                "nonce": "0x00",
                "balance": "0x0de0b6b3a7640000",
                "code": "0x",
                "storage": {}
            },
            "0xff18b085f7afb8e349912ba11176e757fbbbfa11": {
                "nonce": "0x00",
                "balance": "0x2e",
                "code": "0x6000355415600957005b60203560003555",
                "storage": {}
            },
            "0xff18b085f7afb8e349912ba11176e757fbbbfb11": {
                "nonce": "0x00",
                "balance": "0x00",
                "code": "0x387f00000000000000000000000100000000000000000000000000000000000000007f000000000000000000000000000000000000000000000000000000000000c3507f000000000000000000000000000000000000000000000000000000000000c3507f00000000000000000000000100000000000000000000000000000000000000007f000000000000000000000000000000000000000000000000000000000000c3507f00000000000000000000000000000000000000000000000000000000000000007f000000000000000000000000000000000000000000000000000000000000000090375560005155",
                "storage": {}
            }
        },
        "transaction": {
            "nonce": "0x00",
            "gasPrice": "0x0a",
            "gasLimit": [
                "0x0186a0"
            ],
            "to": "0xff18b085f7afb8e349912ba11176e757fbbbfb11",
            "value": [
                "0x50282fa0"
            ],
            "data": [
                "0x387f00000000000000000000000100000000000000000000000000000000000000007f000000000000000000000000000000000000000000000000000000000000c3507f000000000000000000000000000000000000000000000000000000000000c3507f00000000000000000000000100000000000000000000000000000000000000007f000000000000000000000000000000000000000000000000000000000000c3507f00000000000000000000000000000000000000000000000000000000000000007f00000000000000000000000000000000000000000000000000000000000000009037"
            ],
            "sender": "0xb42244f842f412455698aa7867cf86071b0ae279",
            "secretKey": "0x2f112d7f0a2a2557167271a7ff18b085f7afb8e349912ba11176e757fbbbfa11"
        },
        "post": {
            "Prague": [
                {
                    "hash": "0xe28618b96064b0218ee5ed1b0ac8a837fb138a7b7381788da189da2354e7541c",
                    "logs": "0x1dcc4de8dec75d7aab85b567b6ccd41ad312451b948a7413f0a142fd40d49347",
                    "txbytes": "0xf9014f800a830186a094ff18b085f7afb8e349912ba11176e757fbbbfb118450282fa0b8ea387f00000000000000000000000100000000000000000000000000000000000000007f000000000000000000000000000000000000000000000000000000000000c3507f000000000000000000000000000000000000000000000000000000000000c3507f00000000000000000000000100000000000000000000000000000000000000007f000000000000000000000000000000000000000000000000000000000000c3507f00000000000000000000000000000000000000000000000000000000000000007f0000000000000000000000000000000000000000000000000000000000000000903725a0d8919a6757df4737563e44cd7ab4c756d34f555e93072a711046e11167343961a02905ed21b5b8ea00e9eb42b4e0273a472e9a0868cc5aff1ba344fb295f3547ab",
                    "indexes": {
                        "data": 0,
                        "gas": 0,
                        "value": 0
                    },
                    "state": {
                        "0xb42244f842f412455698aa7867cf86071b0ae279": {
                            "nonce": "0x01",
                            "balance": "0x0de0b6b3572f8670",
                            "code": "0x",
                            "storage": {}
                        },
                        "0xff18b085f7afb8e349912ba11176e757fbbbfa11": {
                            "nonce": "0x00",
                            "balance": "0x2e",
                            "code": "0x6000355415600957005b60203560003555",
                            "storage": {}
                        },
                        "0xff18b085f7afb8e349912ba11176e757fbbbfb11": {
                            "nonce": "0x00",
                            "balance": "0x50282fa0",
                            "code": "0x387f00000000000000000000000100000000000000000000000000000000000000007f000000000000000000000000000000000000000000000000000000000000c3507f000000000000000000000000000000000000000000000000000000000000c3507f00000000000000000000000100000000000000000000000000000000000000007f000000000000000000000000000000000000000000000000000000000000c3507f00000000000000000000000000000000000000000000000000000000000000007f000000000000000000000000000000000000000000000000000000000000000090375560005155",
                            "storage": {
                                "0x010000000000000000000000000000000000000000": "0xc350",
                                "0x387f000000000000000000000001000000000000000000000000000000000000": "0xc350"
                            }
                        }
                    }
                }
            ]
        },
        "config": {
            "blobSchedule": {
                "Cancun": {
                    "target": "0x03",
                    "max": "0x06",
                    "baseFeeUpdateFraction": "0x32f0ed"
                },
                "Prague": {
                    "target": "0x06",
                    "max": "0x09",
                    "baseFeeUpdateFraction": "0x4c6964"
                }
            },
            "chainid": "0x01"
        },
        "_info": {
            "hash": "0xf811853e9734268aadccc8d2fe35660f287da046c7370b88b42719522bc0d85e",
            "comment": "`execution-specs` generated test",
            "filling-transition-tool": "2.18.0rc6",
            "description": "No description available - add a docstring to the python test class or function.",
            "url": "",
            "fixture-format": "state_test"
        }
    }
}