{
    "tests/static/state_tests/stRandom/randomStatetest340Filler.json::randomStatetest340[fork_Cancun-state_test-]": {
        "env": {
            "currentCoinbase": "0x8ed8779b25419702988f3eacdceb892ea2f1f09d",
            "currentGasLimit": "0x7fffffffffffffff",
            "currentNumber": "0x01",
            "currentTimestamp": "0x03e8",
            "currentRandom": "0x0000000000000000000000000000000000000000000000000000000000020000",
            "currentDifficulty": "0x00",
            "currentBaseFee": "0x0a",
            "currentExcessBlobGas": "0x00"
        },
        "pre": {
            "0x8894b58563a7ab8d63017ed7883ac05e5bef7751": {
                "nonce": "0x00",
                "balance": "0x0de0b6b3a7640000",
                "code": "0x",
                "storage": {}
            },
            "0x8ed8779b25419702988f3eacdceb892ea2f1f09d": {
                "nonce": "0x00",
                "balance": "0x2e",
                "code": "0x6000355415600957005b60203560003555",
                "storage": {}
            },
            "0x8ed8779b25419702988f3eacdceb892ea2f1f19d": {
                "nonce": "0x00",
                "balance": "0x00",
                "code": "0x7fffffffffffffffffffffffffffffffffffffffffffffffffffffffffffffffff7f000000000000000000000000000000000000000000000000000000000000c3507f0000000000000000000000008ed8779b25419702988f3eacdceb892ea2f1f09d547fffffffffffffffffffffffffffffffffffffffffffffffffffffffffffffffff7f000000000000000000000000ffffffffffffffffffffffffffffffffffffffff7f000000000000000000000000ffffffffffffffffffffffffffffffffffffffff7f000000000000000000000000ffffffffffffffffffffffffffffffffffffffff095560005155",
                "storage": {}
            }
        },
        "transaction": {
            "nonce": "0x00",
            "gasPrice": "0x0a",
            "gasLimit": [
                "0x0186a0"
            ],
            "to": "0x8ed8779b25419702988f3eacdceb892ea2f1f19d",
            "value": [
                "0x0253b4a7"
            ],
            "data": [
                "0x7fffffffffffffffffffffffffffffffffffffffffffffffffffffffffffffffff7f000000000000000000000000000000000000000000000000000000000000c3507f0000000000000000000000008ed8779b25419702988f3eacdceb892ea2f1f09d547fffffffffffffffffffffffffffffffffffffffffffffffffffffffffffffffff7f000000000000000000000000ffffffffffffffffffffffffffffffffffffffff7f000000000000000000000000ffffffffffffffffffffffffffffffffffffffff7f000000000000000000000000ffffffffffffffffffffffffffffffffffffffff09"
            ],
            "sender": "0x8894b58563a7ab8d63017ed7883ac05e5bef7751",
            "secretKey": "0xba0a3c8d80361a66cac5e0bf8ed8779b25419702988f3eacdceb892ea2f1f09d"
        },
        "post": {
            "Cancun": [
                {
                    "hash": "0x98e6a6d9c28b14a904e738bca5c6000afe6d37ecbcf657359fd75d826d83bc86",
                    "logs": "0x1dcc4de8dec75d7aab85b567b6ccd41ad312451b948a7413f0a142fd40d49347",
                    "txbytes": "0xf9014e800a830186a0948ed8779b25419702988f3eacdceb892ea2f1f19d840253b4a7b8e97fffffffffffffffffffffffffffffffffffffffffffffffffffffffffffffffff7f000000000000000000000000000000000000000000000000000000000000c3507f0000000000000000000000008ed8779b25419702988f3eacdceb892ea2f1f09d547fffffffffffffffffffffffffffffffffffffffffffffffffffffffffffffffff7f000000000000000000000000ffffffffffffffffffffffffffffffffffffffff7f000000000000000000000000ffffffffffffffffffffffffffffffffffffffff7f000000000000000000000000ffffffffffffffffffffffffffffffffffffffff0926a08f55702b6a73a30139f47975dc569366424807123662e79311d5925d841f9fa0a01b5eed27b80eb015db07b49dce578c048bb7df5998e14238a17e79c826935bec",
                    "indexes": {
                        "data": 0,
                        "gas": 0,
                        "value": 0
                    },
                    "state": {
                        "0x8894b58563a7ab8d63017ed7883ac05e5bef7751": {
                            "nonce": "0x01",
                            "balance": "0x0de0b6b3a50a6b49",
                            "code": "0x",
                            "storage": {}
                        },
                        "0x8ed8779b25419702988f3eacdceb892ea2f1f09d": {
                            "nonce": "0x00",
                            "balance": "0x2e",
                            "code": "0x6000355415600957005b60203560003555",
                            "storage": {}
                        },
                        "0x8ed8779b25419702988f3eacdceb892ea2f1f19d": {
                            "nonce": "0x00",
                            "balance": "0x0253b4a7",
                            "code": "0x7fffffffffffffffffffffffffffffffffffffffffffffffffffffffffffffffff7f000000000000000000000000000000000000000000000000000000000000c3507f0000000000000000000000008ed8779b25419702988f3eacdceb892ea2f1f09d547fffffffffffffffffffffffffffffffffffffffffffffffffffffffffffffffff7f000000000000000000000000ffffffffffffffffffffffffffffffffffffffff7f000000000000000000000000ffffffffffffffffffffffffffffffffffffffff7f000000000000000000000000ffffffffffffffffffffffffffffffffffffffff095560005155",
                            "storage": {}
                        }
                    }
                }
            ]
        },
        "config": {
            "blobSchedule": {
                "Cancun": {
                    "target": "0x03",
                    "max": "0x06",
                    "baseFeeUpdateFraction": "0x32f0ed"
                }
            },
            "chainid": "0x01"
        },
        "_info": {
            "hash": "0x3e42857a733694c552ae0b9a4b5b4ec513d682fa4410c9c87e5a5b01697a9cd1",
            "comment": "`execution-spec-tests` generated test",
            "filling-transition-tool": "ethereum-spec-evm-resolver 0.0.5",
            "description": "No description available - add a docstring to the python test class or function.",
            "url": "",
            "fixture-format": "state_test",
            "eels-resolution": {
                "git-url": "https://github.com/marioevz/execution-specs.git",
                "branch": "forks/bpo1",
                "commit": "3387e5f4aedfe99becfdc39b444d6371e25e0924"
            }
        }
    },
    "tests/static/state_tests/stRandom/randomStatetest340Filler.json::randomStatetest340[fork_Osaka-state_test-]": {
        "env": {
            "currentCoinbase": "0x8ed8779b25419702988f3eacdceb892ea2f1f09d",
            "currentGasLimit": "0x7fffffffffffffff",
            "currentNumber": "0x01",
            "currentTimestamp": "0x03e8",
            "currentRandom": "0x0000000000000000000000000000000000000000000000000000000000020000",
            "currentDifficulty": "0x00",
            "currentBaseFee": "0x0a",
            "currentExcessBlobGas": "0x00"
        },
        "pre": {
            "0x8894b58563a7ab8d63017ed7883ac05e5bef7751": {
                "nonce": "0x00",
                "balance": "0x0de0b6b3a7640000",
                "code": "0x",
                "storage": {}
            },
            "0x8ed8779b25419702988f3eacdceb892ea2f1f09d": {
                "nonce": "0x00",
                "balance": "0x2e",
                "code": "0x6000355415600957005b60203560003555",
                "storage": {}
            },
            "0x8ed8779b25419702988f3eacdceb892ea2f1f19d": {
                "nonce": "0x00",
                "balance": "0x00",
                "code": "0x7fffffffffffffffffffffffffffffffffffffffffffffffffffffffffffffffff7f000000000000000000000000000000000000000000000000000000000000c3507f0000000000000000000000008ed8779b25419702988f3eacdceb892ea2f1f09d547fffffffffffffffffffffffffffffffffffffffffffffffffffffffffffffffff7f000000000000000000000000ffffffffffffffffffffffffffffffffffffffff7f000000000000000000000000ffffffffffffffffffffffffffffffffffffffff7f000000000000000000000000ffffffffffffffffffffffffffffffffffffffff095560005155",
                "storage": {}
            }
        },
        "transaction": {
            "nonce": "0x00",
            "gasPrice": "0x0a",
            "gasLimit": [
                "0x0186a0"
            ],
            "to": "0x8ed8779b25419702988f3eacdceb892ea2f1f19d",
            "value": [
                "0x0253b4a7"
            ],
            "data": [
                "0x7fffffffffffffffffffffffffffffffffffffffffffffffffffffffffffffffff7f000000000000000000000000000000000000000000000000000000000000c3507f0000000000000000000000008ed8779b25419702988f3eacdceb892ea2f1f09d547fffffffffffffffffffffffffffffffffffffffffffffffffffffffffffffffff7f000000000000000000000000ffffffffffffffffffffffffffffffffffffffff7f000000000000000000000000ffffffffffffffffffffffffffffffffffffffff7f000000000000000000000000ffffffffffffffffffffffffffffffffffffffff09"
            ],
            "sender": "0x8894b58563a7ab8d63017ed7883ac05e5bef7751",
            "secretKey": "0xba0a3c8d80361a66cac5e0bf8ed8779b25419702988f3eacdceb892ea2f1f09d"
        },
        "post": {
            "Osaka": [
                {
                    "hash": "0x98e6a6d9c28b14a904e738bca5c6000afe6d37ecbcf657359fd75d826d83bc86",
                    "logs": "0x1dcc4de8dec75d7aab85b567b6ccd41ad312451b948a7413f0a142fd40d49347",
                    "txbytes": "0xf9014e800a830186a0948ed8779b25419702988f3eacdceb892ea2f1f19d840253b4a7b8e97fffffffffffffffffffffffffffffffffffffffffffffffffffffffffffffffff7f000000000000000000000000000000000000000000000000000000000000c3507f0000000000000000000000008ed8779b25419702988f3eacdceb892ea2f1f09d547fffffffffffffffffffffffffffffffffffffffffffffffffffffffffffffffff7f000000000000000000000000ffffffffffffffffffffffffffffffffffffffff7f000000000000000000000000ffffffffffffffffffffffffffffffffffffffff7f000000000000000000000000ffffffffffffffffffffffffffffffffffffffff0926a08f55702b6a73a30139f47975dc569366424807123662e79311d5925d841f9fa0a01b5eed27b80eb015db07b49dce578c048bb7df5998e14238a17e79c826935bec",
                    "indexes": {
                        "data": 0,
                        "gas": 0,
                        "value": 0
                    },
                    "state": {
                        "0x8894b58563a7ab8d63017ed7883ac05e5bef7751": {
                            "nonce": "0x01",
                            "balance": "0x0de0b6b3a50a6b49",
                            "code": "0x",
                            "storage": {}
                        },
                        "0x8ed8779b25419702988f3eacdceb892ea2f1f09d": {
                            "nonce": "0x00",
                            "balance": "0x2e",
                            "code": "0x6000355415600957005b60203560003555",
                            "storage": {}
                        },
                        "0x8ed8779b25419702988f3eacdceb892ea2f1f19d": {
                            "nonce": "0x00",
                            "balance": "0x0253b4a7",
                            "code": "0x7fffffffffffffffffffffffffffffffffffffffffffffffffffffffffffffffff7f000000000000000000000000000000000000000000000000000000000000c3507f0000000000000000000000008ed8779b25419702988f3eacdceb892ea2f1f09d547fffffffffffffffffffffffffffffffffffffffffffffffffffffffffffffffff7f000000000000000000000000ffffffffffffffffffffffffffffffffffffffff7f000000000000000000000000ffffffffffffffffffffffffffffffffffffffff7f000000000000000000000000ffffffffffffffffffffffffffffffffffffffff095560005155",
                            "storage": {}
                        }
                    }
                }
            ]
        },
        "config": {
            "blobSchedule": {
                "Cancun": {
                    "target": "0x03",
                    "max": "0x06",
                    "baseFeeUpdateFraction": "0x32f0ed"
                },
                "Prague": {
                    "target": "0x06",
                    "max": "0x09",
                    "baseFeeUpdateFraction": "0x4c6964"
                },
                "Osaka": {
                    "target": "0x06",
                    "max": "0x09",
                    "baseFeeUpdateFraction": "0x4c6964"
                }
            },
            "chainid": "0x01"
        },
        "_info": {
            "hash": "0xa04b91e6428db5bee89fed82ebb8b0edf0f37a65bb3ab6058ecc78deaab3a7d0",
            "comment": "`execution-spec-tests` generated test",
            "filling-transition-tool": "ethereum-spec-evm-resolver 0.0.5",
            "description": "No description available - add a docstring to the python test class or function.",
            "url": "",
            "fixture-format": "state_test",
            "eels-resolution": {
                "git-url": "https://github.com/marioevz/execution-specs.git",
                "branch": "forks/bpo1",
                "commit": "3387e5f4aedfe99becfdc39b444d6371e25e0924"
            }
        }
    },
    "tests/static/state_tests/stRandom/randomStatetest340Filler.json::randomStatetest340[fork_Prague-state_test-]": {
        "env": {
            "currentCoinbase": "0x8ed8779b25419702988f3eacdceb892ea2f1f09d",
            "currentGasLimit": "0x7fffffffffffffff",
            "currentNumber": "0x01",
            "currentTimestamp": "0x03e8",
            "currentRandom": "0x0000000000000000000000000000000000000000000000000000000000020000",
            "currentDifficulty": "0x00",
            "currentBaseFee": "0x0a",
            "currentExcessBlobGas": "0x00"
        },
        "pre": {
            "0x8894b58563a7ab8d63017ed7883ac05e5bef7751": {
                "nonce": "0x00",
                "balance": "0x0de0b6b3a7640000",
                "code": "0x",
                "storage": {}
            },
            "0x8ed8779b25419702988f3eacdceb892ea2f1f09d": {
                "nonce": "0x00",
                "balance": "0x2e",
                "code": "0x6000355415600957005b60203560003555",
                "storage": {}
            },
            "0x8ed8779b25419702988f3eacdceb892ea2f1f19d": {
                "nonce": "0x00",
                "balance": "0x00",
                "code": "0x7fffffffffffffffffffffffffffffffffffffffffffffffffffffffffffffffff7f000000000000000000000000000000000000000000000000000000000000c3507f0000000000000000000000008ed8779b25419702988f3eacdceb892ea2f1f09d547fffffffffffffffffffffffffffffffffffffffffffffffffffffffffffffffff7f000000000000000000000000ffffffffffffffffffffffffffffffffffffffff7f000000000000000000000000ffffffffffffffffffffffffffffffffffffffff7f000000000000000000000000ffffffffffffffffffffffffffffffffffffffff095560005155",
                "storage": {}
            }
        },
        "transaction": {
            "nonce": "0x00",
            "gasPrice": "0x0a",
            "gasLimit": [
                "0x0186a0"
            ],
            "to": "0x8ed8779b25419702988f3eacdceb892ea2f1f19d",
            "value": [
                "0x0253b4a7"
            ],
            "data": [
                "0x7fffffffffffffffffffffffffffffffffffffffffffffffffffffffffffffffff7f000000000000000000000000000000000000000000000000000000000000c3507f0000000000000000000000008ed8779b25419702988f3eacdceb892ea2f1f09d547fffffffffffffffffffffffffffffffffffffffffffffffffffffffffffffffff7f000000000000000000000000ffffffffffffffffffffffffffffffffffffffff7f000000000000000000000000ffffffffffffffffffffffffffffffffffffffff7f000000000000000000000000ffffffffffffffffffffffffffffffffffffffff09"
            ],
            "sender": "0x8894b58563a7ab8d63017ed7883ac05e5bef7751",
            "secretKey": "0xba0a3c8d80361a66cac5e0bf8ed8779b25419702988f3eacdceb892ea2f1f09d"
        },
        "post": {
            "Prague": [
                {
                    "hash": "0x98e6a6d9c28b14a904e738bca5c6000afe6d37ecbcf657359fd75d826d83bc86",
                    "logs": "0x1dcc4de8dec75d7aab85b567b6ccd41ad312451b948a7413f0a142fd40d49347",
                    "txbytes": "0xf9014e800a830186a0948ed8779b25419702988f3eacdceb892ea2f1f19d840253b4a7b8e97fffffffffffffffffffffffffffffffffffffffffffffffffffffffffffffffff7f000000000000000000000000000000000000000000000000000000000000c3507f0000000000000000000000008ed8779b25419702988f3eacdceb892ea2f1f09d547fffffffffffffffffffffffffffffffffffffffffffffffffffffffffffffffff7f000000000000000000000000ffffffffffffffffffffffffffffffffffffffff7f000000000000000000000000ffffffffffffffffffffffffffffffffffffffff7f000000000000000000000000ffffffffffffffffffffffffffffffffffffffff0926a08f55702b6a73a30139f47975dc569366424807123662e79311d5925d841f9fa0a01b5eed27b80eb015db07b49dce578c048bb7df5998e14238a17e79c826935bec",
                    "indexes": {
                        "data": 0,
                        "gas": 0,
                        "value": 0
                    },
                    "state": {
                        "0x8894b58563a7ab8d63017ed7883ac05e5bef7751": {
                            "nonce": "0x01",
                            "balance": "0x0de0b6b3a50a6b49",
                            "code": "0x",
                            "storage": {}
                        },
                        "0x8ed8779b25419702988f3eacdceb892ea2f1f09d": {
                            "nonce": "0x00",
                            "balance": "0x2e",
                            "code": "0x6000355415600957005b60203560003555",
                            "storage": {}
                        },
                        "0x8ed8779b25419702988f3eacdceb892ea2f1f19d": {
                            "nonce": "0x00",
                            "balance": "0x0253b4a7",
                            "code": "0x7fffffffffffffffffffffffffffffffffffffffffffffffffffffffffffffffff7f000000000000000000000000000000000000000000000000000000000000c3507f0000000000000000000000008ed8779b25419702988f3eacdceb892ea2f1f09d547fffffffffffffffffffffffffffffffffffffffffffffffffffffffffffffffff7f000000000000000000000000ffffffffffffffffffffffffffffffffffffffff7f000000000000000000000000ffffffffffffffffffffffffffffffffffffffff7f000000000000000000000000ffffffffffffffffffffffffffffffffffffffff095560005155",
                            "storage": {}
                        }
                    }
                }
            ]
        },
        "config": {
            "blobSchedule": {
                "Cancun": {
                    "target": "0x03",
                    "max": "0x06",
                    "baseFeeUpdateFraction": "0x32f0ed"
                },
                "Prague": {
                    "target": "0x06",
                    "max": "0x09",
                    "baseFeeUpdateFraction": "0x4c6964"
                }
            },
            "chainid": "0x01"
        },
        "_info": {
            "hash": "0x0a40b1091149c456c79e60db2658548daab0b9ff89e3021e1190ae79f9a3b9db",
            "comment": "`execution-spec-tests` generated test",
            "filling-transition-tool": "ethereum-spec-evm-resolver 0.0.5",
            "description": "No description available - add a docstring to the python test class or function.",
            "url": "",
            "fixture-format": "state_test",
            "eels-resolution": {
                "git-url": "https://github.com/marioevz/execution-specs.git",
                "branch": "forks/bpo1",
                "commit": "3387e5f4aedfe99becfdc39b444d6371e25e0924"
            }
        }
    }
}