{
    "tests/static/state_tests/stRandom/randomStatetest124Filler.json::randomStatetest124[fork_Cancun-state_test-]": {
        "env": {
            "currentCoinbase": "0xf5c5491f9e66176acc0ca5e3de75d4f013f556b9",
            "currentGasLimit": "0x7fffffffffffffff",
            "currentNumber": "0x01",
            "currentTimestamp": "0x03e8",
            "currentRandom": "0x0000000000000000000000000000000000000000000000000000000000020000",
            "currentDifficulty": "0x00",
            "currentBaseFee": "0x0a",
            "currentExcessBlobGas": "0x00"
        },
        "pre": {
            "0x64cda6b23f13cb2da6aadf130ad0c95c0cd6aaa0": {
                "nonce": "0x00",
                "balance": "0x0de0b6b3a7640000",
                "code": "0x",
                "storage": {}
            },
            "0xf5c5491f9e66176acc0ca5e3de75d4f013f556b9": {
                "nonce": "0x00",
                "balance": "0x2e",
                "code": "0x6000355415600957005b60203560003555",
                "storage": {}
            },
            "0xf5c5491f9e66176acc0ca5e3de75d4f013f557b9": {
                "nonce": "0x00",
                "balance": "0x00",
                "code": "0x7fffffffffffffffffffffffffffffffffffffffffffffffffffffffffffffffff7f000000000000000000000000ffffffffffffffffffffffffffffffffffffffff7ffffffffffffffffffffffffffffffffffffffffffffffffffffffffffffffffe7fffffffffffffffffffffffffffffffffffffffffffffffffffffffffffffffff7fffffffffffffffffffffffffffffffffffffffffffffffffffffffffffffffff7fffffffffffffffffffffffffffffffffffffffffffffffffffffffffffffffff7ffffffffffffffffffffffffffffffffffffffffffffffffffffffffffffffffe08125580355b17457f7463587b9a7a435560005155",
                "storage": {}
            }
        },
        "transaction": {
            "nonce": "0x00",
            "gasPrice": "0x0a",
            "gasLimit": [
                "0x0186a0"
            ],
            "to": "0xf5c5491f9e66176acc0ca5e3de75d4f013f557b9",
            "value": [
                "0x6863f683"
            ],
            "data": [
                "0x7fffffffffffffffffffffffffffffffffffffffffffffffffffffffffffffffff7f000000000000000000000000ffffffffffffffffffffffffffffffffffffffff7ffffffffffffffffffffffffffffffffffffffffffffffffffffffffffffffffe7fffffffffffffffffffffffffffffffffffffffffffffffffffffffffffffffff7fffffffffffffffffffffffffffffffffffffffffffffffffffffffffffffffff7fffffffffffffffffffffffffffffffffffffffffffffffffffffffffffffffff7ffffffffffffffffffffffffffffffffffffffffffffffffffffffffffffffffe08125580355b17457f7463587b9a7a43"
            ],
            "sender": "0x64cda6b23f13cb2da6aadf130ad0c95c0cd6aaa0",
            "secretKey": "0x9b0a43004b7482d0298d80ccf5c5491f9e66176acc0ca5e3de75d4f013f556b9"
        },
        "post": {
            "Cancun": [
                {
                    "hash": "0x268ee10fb95a8b48416166798c31cdc0bf22638e82b909c2264ba743abb12c5c",
                    "logs": "0x1dcc4de8dec75d7aab85b567b6ccd41ad312451b948a7413f0a142fd40d49347",
                    "txbytes": "0xf9015c800a830186a094f5c5491f9e66176acc0ca5e3de75d4f013f557b9846863f683b8f77fffffffffffffffffffffffffffffffffffffffffffffffffffffffffffffffff7f000000000000000000000000ffffffffffffffffffffffffffffffffffffffff7ffffffffffffffffffffffffffffffffffffffffffffffffffffffffffffffffe7fffffffffffffffffffffffffffffffffffffffffffffffffffffffffffffffff7fffffffffffffffffffffffffffffffffffffffffffffffffffffffffffffffff7fffffffffffffffffffffffffffffffffffffffffffffffffffffffffffffffff7ffffffffffffffffffffffffffffffffffffffffffffffffffffffffffffffffe08125580355b17457f7463587b9a7a4326a02609fd82b1504fc1dd8b48c13e9f51fbfc7a064af601dade089883a18234c831a07aa749ea62dda122f88a3ce6a267afdf089bee89b67a84fb6ed4c2e2d682b89e",
                    "indexes": {
                        "data": 0,
                        "gas": 0,
                        "value": 0
                    },
                    "state": {
                        "0x64cda6b23f13cb2da6aadf130ad0c95c0cd6aaa0": {
                            "nonce": "0x01",
                            "balance": "0x0de0b6b33ef8df4f",
                            "code": "0x",
                            "storage": {}
                        },
                        "0xf5c5491f9e66176acc0ca5e3de75d4f013f556b9": {
                            "nonce": "0x00",
                            "balance": "0x2e",
                            "code": "0x6000355415600957005b60203560003555",
                            "storage": {}
                        },
                        "0xf5c5491f9e66176acc0ca5e3de75d4f013f557b9": {
                            "nonce": "0x00",
                            "balance": "0x6863f683",
                            "code": "0x7fffffffffffffffffffffffffffffffffffffffffffffffffffffffffffffffff7f000000000000000000000000ffffffffffffffffffffffffffffffffffffffff7ffffffffffffffffffffffffffffffffffffffffffffffffffffffffffffffffe7fffffffffffffffffffffffffffffffffffffffffffffffffffffffffffffffff7fffffffffffffffffffffffffffffffffffffffffffffffffffffffffffffffff7fffffffffffffffffffffffffffffffffffffffffffffffffffffffffffffffff7ffffffffffffffffffffffffffffffffffffffffffffffffffffffffffffffffe08125580355b17457f7463587b9a7a435560005155",
                            "storage": {
                                "0x01": "0xfffffffffffffffffffffffffffffffffffffffffffffffffffffffffffffffe"
                            }
                        }
                    }
                }
            ]
        },
        "config": {
            "blobSchedule": {
                "Cancun": {
                    "target": "0x03",
                    "max": "0x06",
                    "baseFeeUpdateFraction": "0x32f0ed"
                }
            },
            "chainid": "0x01"
        },
        "_info": {
            "hash": "0xc9631c8eac89eac5fa42eeb5ab6dfaefdddd50a1cc48ff29cf4d699e8814ac99",
            "comment": "`execution-spec-tests` generated test",
            "filling-transition-tool": "ethereum-spec-evm-resolver 0.0.5",
            "description": "No description available - add a docstring to the python test class or function.",
            "url": "",
            "fixture-format": "state_test",
            "eels-resolution": {
                "git-url": "https://github.com/marioevz/execution-specs.git",
                "branch": "forks/bpo1",
                "commit": "3387e5f4aedfe99becfdc39b444d6371e25e0924"
            }
        }
    },
    "tests/static/state_tests/stRandom/randomStatetest124Filler.json::randomStatetest124[fork_Osaka-state_test-]": {
        "env": {
            "currentCoinbase": "0xf5c5491f9e66176acc0ca5e3de75d4f013f556b9",
            "currentGasLimit": "0x7fffffffffffffff",
            "currentNumber": "0x01",
            "currentTimestamp": "0x03e8",
            "currentRandom": "0x0000000000000000000000000000000000000000000000000000000000020000",
            "currentDifficulty": "0x00",
            "currentBaseFee": "0x0a",
            "currentExcessBlobGas": "0x00"
        },
        "pre": {
            "0x64cda6b23f13cb2da6aadf130ad0c95c0cd6aaa0": {
                "nonce": "0x00",
                "balance": "0x0de0b6b3a7640000",
                "code": "0x",
                "storage": {}
            },
            "0xf5c5491f9e66176acc0ca5e3de75d4f013f556b9": {
                "nonce": "0x00",
                "balance": "0x2e",
                "code": "0x6000355415600957005b60203560003555",
                "storage": {}
            },
            "0xf5c5491f9e66176acc0ca5e3de75d4f013f557b9": {
                "nonce": "0x00",
                "balance": "0x00",
                "code": "0x7fffffffffffffffffffffffffffffffffffffffffffffffffffffffffffffffff7f000000000000000000000000ffffffffffffffffffffffffffffffffffffffff7ffffffffffffffffffffffffffffffffffffffffffffffffffffffffffffffffe7fffffffffffffffffffffffffffffffffffffffffffffffffffffffffffffffff7fffffffffffffffffffffffffffffffffffffffffffffffffffffffffffffffff7fffffffffffffffffffffffffffffffffffffffffffffffffffffffffffffffff7ffffffffffffffffffffffffffffffffffffffffffffffffffffffffffffffffe08125580355b17457f7463587b9a7a435560005155",
                "storage": {}
            }
        },
        "transaction": {
            "nonce": "0x00",
            "gasPrice": "0x0a",
            "gasLimit": [
                "0x0186a0"
            ],
            "to": "0xf5c5491f9e66176acc0ca5e3de75d4f013f557b9",
            "value": [
                "0x6863f683"
            ],
            "data": [
                "0x7fffffffffffffffffffffffffffffffffffffffffffffffffffffffffffffffff7f000000000000000000000000ffffffffffffffffffffffffffffffffffffffff7ffffffffffffffffffffffffffffffffffffffffffffffffffffffffffffffffe7fffffffffffffffffffffffffffffffffffffffffffffffffffffffffffffffff7fffffffffffffffffffffffffffffffffffffffffffffffffffffffffffffffff7fffffffffffffffffffffffffffffffffffffffffffffffffffffffffffffffff7ffffffffffffffffffffffffffffffffffffffffffffffffffffffffffffffffe08125580355b17457f7463587b9a7a43"
            ],
            "sender": "0x64cda6b23f13cb2da6aadf130ad0c95c0cd6aaa0",
            "secretKey": "0x9b0a43004b7482d0298d80ccf5c5491f9e66176acc0ca5e3de75d4f013f556b9"
        },
        "post": {
            "Osaka": [
                {
                    "hash": "0x268ee10fb95a8b48416166798c31cdc0bf22638e82b909c2264ba743abb12c5c",
                    "logs": "0x1dcc4de8dec75d7aab85b567b6ccd41ad312451b948a7413f0a142fd40d49347",
                    "txbytes": "0xf9015c800a830186a094f5c5491f9e66176acc0ca5e3de75d4f013f557b9846863f683b8f77fffffffffffffffffffffffffffffffffffffffffffffffffffffffffffffffff7f000000000000000000000000ffffffffffffffffffffffffffffffffffffffff7ffffffffffffffffffffffffffffffffffffffffffffffffffffffffffffffffe7fffffffffffffffffffffffffffffffffffffffffffffffffffffffffffffffff7fffffffffffffffffffffffffffffffffffffffffffffffffffffffffffffffff7fffffffffffffffffffffffffffffffffffffffffffffffffffffffffffffffff7ffffffffffffffffffffffffffffffffffffffffffffffffffffffffffffffffe08125580355b17457f7463587b9a7a4326a02609fd82b1504fc1dd8b48c13e9f51fbfc7a064af601dade089883a18234c831a07aa749ea62dda122f88a3ce6a267afdf089bee89b67a84fb6ed4c2e2d682b89e",
                    "indexes": {
                        "data": 0,
                        "gas": 0,
                        "value": 0
                    },
                    "state": {
                        "0x64cda6b23f13cb2da6aadf130ad0c95c0cd6aaa0": {
                            "nonce": "0x01",
                            "balance": "0x0de0b6b33ef8df4f",
                            "code": "0x",
                            "storage": {}
                        },
                        "0xf5c5491f9e66176acc0ca5e3de75d4f013f556b9": {
                            "nonce": "0x00",
                            "balance": "0x2e",
                            "code": "0x6000355415600957005b60203560003555",
                            "storage": {}
                        },
                        "0xf5c5491f9e66176acc0ca5e3de75d4f013f557b9": {
                            "nonce": "0x00",
                            "balance": "0x6863f683",
                            "code": "0x7fffffffffffffffffffffffffffffffffffffffffffffffffffffffffffffffff7f000000000000000000000000ffffffffffffffffffffffffffffffffffffffff7ffffffffffffffffffffffffffffffffffffffffffffffffffffffffffffffffe7fffffffffffffffffffffffffffffffffffffffffffffffffffffffffffffffff7fffffffffffffffffffffffffffffffffffffffffffffffffffffffffffffffff7fffffffffffffffffffffffffffffffffffffffffffffffffffffffffffffffff7ffffffffffffffffffffffffffffffffffffffffffffffffffffffffffffffffe08125580355b17457f7463587b9a7a435560005155",
                            "storage": {
                                "0x01": "0xfffffffffffffffffffffffffffffffffffffffffffffffffffffffffffffffe"
                            }
                        }
                    }
                }
            ]
        },
        "config": {
            "blobSchedule": {
                "Cancun": {
                    "target": "0x03",
                    "max": "0x06",
                    "baseFeeUpdateFraction": "0x32f0ed"
                },
                "Prague": {
                    "target": "0x06",
                    "max": "0x09",
                    "baseFeeUpdateFraction": "0x4c6964"
                },
                "Osaka": {
                    "target": "0x06",
                    "max": "0x09",
                    "baseFeeUpdateFraction": "0x4c6964"
                }
            },
            "chainid": "0x01"
        },
        "_info": {
            "hash": "0x3569edde4e080e0a472d87d7b38da54e487a8ca06c3a67c0a41e7ec3dc1140f4",
            "comment": "`execution-spec-tests` generated test",
            "filling-transition-tool": "ethereum-spec-evm-resolver 0.0.5",
            "description": "No description available - add a docstring to the python test class or function.",
            "url": "",
            "fixture-format": "state_test",
            "eels-resolution": {
                "git-url": "https://github.com/marioevz/execution-specs.git",
                "branch": "forks/bpo1",
                "commit": "3387e5f4aedfe99becfdc39b444d6371e25e0924"
            }
        }
    },
    "tests/static/state_tests/stRandom/randomStatetest124Filler.json::randomStatetest124[fork_Prague-state_test-]": {
        "env": {
            "currentCoinbase": "0xf5c5491f9e66176acc0ca5e3de75d4f013f556b9",
            "currentGasLimit": "0x7fffffffffffffff",
            "currentNumber": "0x01",
            "currentTimestamp": "0x03e8",
            "currentRandom": "0x0000000000000000000000000000000000000000000000000000000000020000",
            "currentDifficulty": "0x00",
            "currentBaseFee": "0x0a",
            "currentExcessBlobGas": "0x00"
        },
        "pre": {
            "0x64cda6b23f13cb2da6aadf130ad0c95c0cd6aaa0": {
                "nonce": "0x00",
                "balance": "0x0de0b6b3a7640000",
                "code": "0x",
                "storage": {}
            },
            "0xf5c5491f9e66176acc0ca5e3de75d4f013f556b9": {
                "nonce": "0x00",
                "balance": "0x2e",
                "code": "0x6000355415600957005b60203560003555",
                "storage": {}
            },
            "0xf5c5491f9e66176acc0ca5e3de75d4f013f557b9": {
                "nonce": "0x00",
                "balance": "0x00",
                "code": "0x7fffffffffffffffffffffffffffffffffffffffffffffffffffffffffffffffff7f000000000000000000000000ffffffffffffffffffffffffffffffffffffffff7ffffffffffffffffffffffffffffffffffffffffffffffffffffffffffffffffe7fffffffffffffffffffffffffffffffffffffffffffffffffffffffffffffffff7fffffffffffffffffffffffffffffffffffffffffffffffffffffffffffffffff7fffffffffffffffffffffffffffffffffffffffffffffffffffffffffffffffff7ffffffffffffffffffffffffffffffffffffffffffffffffffffffffffffffffe08125580355b17457f7463587b9a7a435560005155",
                "storage": {}
            }
        },
        "transaction": {
            "nonce": "0x00",
            "gasPrice": "0x0a",
            "gasLimit": [
                "0x0186a0"
            ],
            "to": "0xf5c5491f9e66176acc0ca5e3de75d4f013f557b9",
            "value": [
                "0x6863f683"
            ],
            "data": [
                "0x7fffffffffffffffffffffffffffffffffffffffffffffffffffffffffffffffff7f000000000000000000000000ffffffffffffffffffffffffffffffffffffffff7ffffffffffffffffffffffffffffffffffffffffffffffffffffffffffffffffe7fffffffffffffffffffffffffffffffffffffffffffffffffffffffffffffffff7fffffffffffffffffffffffffffffffffffffffffffffffffffffffffffffffff7fffffffffffffffffffffffffffffffffffffffffffffffffffffffffffffffff7ffffffffffffffffffffffffffffffffffffffffffffffffffffffffffffffffe08125580355b17457f7463587b9a7a43"
            ],
            "sender": "0x64cda6b23f13cb2da6aadf130ad0c95c0cd6aaa0",
            "secretKey": "0x9b0a43004b7482d0298d80ccf5c5491f9e66176acc0ca5e3de75d4f013f556b9"
        },
        "post": {
            "Prague": [
                {
                    "hash": "0x268ee10fb95a8b48416166798c31cdc0bf22638e82b909c2264ba743abb12c5c",
                    "logs": "0x1dcc4de8dec75d7aab85b567b6ccd41ad312451b948a7413f0a142fd40d49347",
                    "txbytes": "0xf9015c800a830186a094f5c5491f9e66176acc0ca5e3de75d4f013f557b9846863f683b8f77fffffffffffffffffffffffffffffffffffffffffffffffffffffffffffffffff7f000000000000000000000000ffffffffffffffffffffffffffffffffffffffff7ffffffffffffffffffffffffffffffffffffffffffffffffffffffffffffffffe7fffffffffffffffffffffffffffffffffffffffffffffffffffffffffffffffff7fffffffffffffffffffffffffffffffffffffffffffffffffffffffffffffffff7fffffffffffffffffffffffffffffffffffffffffffffffffffffffffffffffff7ffffffffffffffffffffffffffffffffffffffffffffffffffffffffffffffffe08125580355b17457f7463587b9a7a4326a02609fd82b1504fc1dd8b48c13e9f51fbfc7a064af601dade089883a18234c831a07aa749ea62dda122f88a3ce6a267afdf089bee89b67a84fb6ed4c2e2d682b89e",
                    "indexes": {
                        "data": 0,
                        "gas": 0,
                        "value": 0
                    },
                    "state": {
                        "0x64cda6b23f13cb2da6aadf130ad0c95c0cd6aaa0": {
                            "nonce": "0x01",
                            "balance": "0x0de0b6b33ef8df4f",
                            "code": "0x",
                            "storage": {}
                        },
                        "0xf5c5491f9e66176acc0ca5e3de75d4f013f556b9": {
                            "nonce": "0x00",
                            "balance": "0x2e",
                            "code": "0x6000355415600957005b60203560003555",
                            "storage": {}
                        },
                        "0xf5c5491f9e66176acc0ca5e3de75d4f013f557b9": {
                            "nonce": "0x00",
                            "balance": "0x6863f683",
                            "code": "0x7fffffffffffffffffffffffffffffffffffffffffffffffffffffffffffffffff7f000000000000000000000000ffffffffffffffffffffffffffffffffffffffff7ffffffffffffffffffffffffffffffffffffffffffffffffffffffffffffffffe7fffffffffffffffffffffffffffffffffffffffffffffffffffffffffffffffff7fffffffffffffffffffffffffffffffffffffffffffffffffffffffffffffffff7fffffffffffffffffffffffffffffffffffffffffffffffffffffffffffffffff7ffffffffffffffffffffffffffffffffffffffffffffffffffffffffffffffffe08125580355b17457f7463587b9a7a435560005155",
                            "storage": {
                                "0x01": "0xfffffffffffffffffffffffffffffffffffffffffffffffffffffffffffffffe"
                            }
                        }
                    }
                }
            ]
        },
        "config": {
            "blobSchedule": {
                "Cancun": {
                    "target": "0x03",
                    "max": "0x06",
                    "baseFeeUpdateFraction": "0x32f0ed"
                },
                "Prague": {
                    "target": "0x06",
                    "max": "0x09",
                    "baseFeeUpdateFraction": "0x4c6964"
                }
            },
            "chainid": "0x01"
        },
        "_info": {
            "hash": "0x8f3a58defe19bd7eb697edc5b4e7b962c963b92bbc9a3d47a8327a8bc62afbbd",
            "comment": "`execution-spec-tests` generated test",
            "filling-transition-tool": "ethereum-spec-evm-resolver 0.0.5",
            "description": "No description available - add a docstring to the python test class or function.",
            "url": "",
            "fixture-format": "state_test",
            "eels-resolution": {
                "git-url": "https://github.com/marioevz/execution-specs.git",
                "branch": "forks/bpo1",
                "commit": "3387e5f4aedfe99becfdc39b444d6371e25e0924"
            }
        }
    }
}