{
    "tests/static/state_tests/stRandom/randomStatetest164Filler.json::randomStatetest164[fork_Cancun-state_test-]": {
        "env": {
            "currentCoinbase": "0x0273ea9d20e9f23e5ca1f05f55af6b017a0f7599",
            "currentGasLimit": "0x7fffffffffffffff",
            "currentNumber": "0x01",
            "currentTimestamp": "0x03e8",
            "currentRandom": "0x0000000000000000000000000000000000000000000000000000000000020000",
            "currentDifficulty": "0x00",
            "currentBaseFee": "0x0a",
            "currentExcessBlobGas": "0x00"
        },
        "pre": {
            "0xd850d09bb0a7c458d4b813c2c152c762be8acb5e": {
                "nonce": "0x00",
                "balance": "0x0de0b6b3a7640000",
                "code": "0x",
                "storage": {}
            },
            "0x0273ea9d20e9f23e5ca1f05f55af6b017a0f7599": {
                "nonce": "0x00",
                "balance": "0x2e",
                "code": "0x6000355415600957005b60203560003555",
                "storage": {}
            },
            "0x0273ea9d20e9f23e5ca1f05f55af6b017a0f7699": {
                "nonce": "0x00",
                "balance": "0x00",
                "code": "0x7f00000000000000000000000100000000000000000000000000000000000000007f0000000000000000000000000273ea9d20e9f23e5ca1f05f55af6b017a0f75997ffffffffffffffffffffffffffffffffffffffffffffffffffffffffffffffffe417f00000000000000000000000000000000000000000000000000000000000000017f00000000000000000000000100000000000000000000000000000000000000007fffffffffffffffffffffffffffffffffffffffffffffffffffffffffffffffff7f0000000000000000000000010000000000000000000000000000000000000000831305395560005155",
                "storage": {}
            }
        },
        "transaction": {
            "nonce": "0x00",
            "gasPrice": "0x0a",
            "gasLimit": [
                "0x0186a0"
            ],
            "to": "0x0273ea9d20e9f23e5ca1f05f55af6b017a0f7699",
            "value": [
                "0x6d7148ee"
            ],
            "data": [
                "0x7f00000000000000000000000100000000000000000000000000000000000000007f0000000000000000000000000273ea9d20e9f23e5ca1f05f55af6b017a0f75997ffffffffffffffffffffffffffffffffffffffffffffffffffffffffffffffffe417f00000000000000000000000000000000000000000000000000000000000000017f00000000000000000000000100000000000000000000000000000000000000007fffffffffffffffffffffffffffffffffffffffffffffffffffffffffffffffff7f000000000000000000000001000000000000000000000000000000000000000083130539"
            ],
            "sender": "0xd850d09bb0a7c458d4b813c2c152c762be8acb5e",
            "secretKey": "0x23bf47ef708c5b14b58367e00273ea9d20e9f23e5ca1f05f55af6b017a0f7599"
        },
        "post": {
            "Cancun": [
                {
                    "hash": "0x699f331b560757a0f73daed2ef3ba20dc9fb3db3ca75b649f707ec1d71191fbe",
                    "logs": "0x1dcc4de8dec75d7aab85b567b6ccd41ad312451b948a7413f0a142fd40d49347",
                    "txbytes": "0xf90151800a830186a0940273ea9d20e9f23e5ca1f05f55af6b017a0f7699846d7148eeb8ec7f00000000000000000000000100000000000000000000000000000000000000007f0000000000000000000000000273ea9d20e9f23e5ca1f05f55af6b017a0f75997ffffffffffffffffffffffffffffffffffffffffffffffffffffffffffffffffe417f00000000000000000000000000000000000000000000000000000000000000017f00000000000000000000000100000000000000000000000000000000000000007fffffffffffffffffffffffffffffffffffffffffffffffffffffffffffffffff7f00000000000000000000000100000000000000000000000000000000000000008313053925a072127f0597ed09bcc898ca7085a079ff349d4ce9c28e1881f59e42399327688ea03b1ffffaaacf9dc928ee663486518578ed10f40667c954003e8e213379b0431c",
                    "indexes": {
                        "data": 0,
                        "gas": 0,
                        "value": 0
                    },
                    "state": {
                        "0xd850d09bb0a7c458d4b813c2c152c762be8acb5e": {
                            "nonce": "0x01",
                            "balance": "0x0de0b6b339e86e88",
                            "code": "0x",
                            "storage": {}
                        },
                        "0x0273ea9d20e9f23e5ca1f05f55af6b017a0f7599": {
                            "nonce": "0x00",
                            "balance": "0x2e",
                            "code": "0x6000355415600957005b60203560003555",
                            "storage": {}
                        },
                        "0x0273ea9d20e9f23e5ca1f05f55af6b017a0f7699": {
                            "nonce": "0x00",
                            "balance": "0x6d7148ee",
                            "code": "0x7f00000000000000000000000100000000000000000000000000000000000000007f0000000000000000000000000273ea9d20e9f23e5ca1f05f55af6b017a0f75997ffffffffffffffffffffffffffffffffffffffffffffffffffffffffffffffffe417f00000000000000000000000000000000000000000000000000000000000000017f00000000000000000000000100000000000000000000000000000000000000007fffffffffffffffffffffffffffffffffffffffffffffffffffffffffffffffff7f0000000000000000000000010000000000000000000000000000000000000000831305395560005155",
                            "storage": {
                                "0x0273ea9d20e9f23e5ca1f05f55af6b017a0f7599": "0xfffffffffffffffffffffffffffffffffffffffffffffffffffffffffffffffe",
                                "0x00": "0x0273ea9d20e9f23e5ca1f05f55af6b017a0f7599"
                            }
                        }
                    }
                }
            ]
        },
        "config": {
            "blobSchedule": {
                "Cancun": {
                    "target": "0x03",
                    "max": "0x06",
                    "baseFeeUpdateFraction": "0x32f0ed"
                }
            },
            "chainid": "0x01"
        },
        "_info": {
            "hash": "0xa29b25b6a2d291b38905b16f4910b075b39152f6313027350f4089509393c6f2",
            "comment": "`execution-specs` generated test",
            "filling-transition-tool": "2.18.0rc6",
            "description": "No description available - add a docstring to the python test class or function.",
            "url": "",
            "fixture-format": "state_test"
        }
    },
    "tests/static/state_tests/stRandom/randomStatetest164Filler.json::randomStatetest164[fork_Osaka-state_test-]": {
        "env": {
            "currentCoinbase": "0x0273ea9d20e9f23e5ca1f05f55af6b017a0f7599",
            "currentGasLimit": "0x7fffffffffffffff",
            "currentNumber": "0x01",
            "currentTimestamp": "0x03e8",
            "currentRandom": "0x0000000000000000000000000000000000000000000000000000000000020000",
            "currentDifficulty": "0x00",
            "currentBaseFee": "0x0a",
            "currentExcessBlobGas": "0x00"
        },
        "pre": {
            "0xd850d09bb0a7c458d4b813c2c152c762be8acb5e": {
                "nonce": "0x00",
                "balance": "0x0de0b6b3a7640000",
                "code": "0x",
                "storage": {}
            },
            "0x0273ea9d20e9f23e5ca1f05f55af6b017a0f7599": {
                "nonce": "0x00",
                "balance": "0x2e",
                "code": "0x6000355415600957005b60203560003555",
                "storage": {}
            },
            "0x0273ea9d20e9f23e5ca1f05f55af6b017a0f7699": {
                "nonce": "0x00",
                "balance": "0x00",
                "code": "0x7f00000000000000000000000100000000000000000000000000000000000000007f0000000000000000000000000273ea9d20e9f23e5ca1f05f55af6b017a0f75997ffffffffffffffffffffffffffffffffffffffffffffffffffffffffffffffffe417f00000000000000000000000000000000000000000000000000000000000000017f00000000000000000000000100000000000000000000000000000000000000007fffffffffffffffffffffffffffffffffffffffffffffffffffffffffffffffff7f0000000000000000000000010000000000000000000000000000000000000000831305395560005155",
                "storage": {}
            }
        },
        "transaction": {
            "nonce": "0x00",
            "gasPrice": "0x0a",
            "gasLimit": [
                "0x0186a0"
            ],
            "to": "0x0273ea9d20e9f23e5ca1f05f55af6b017a0f7699",
            "value": [
                "0x6d7148ee"
            ],
            "data": [
                "0x7f00000000000000000000000100000000000000000000000000000000000000007f0000000000000000000000000273ea9d20e9f23e5ca1f05f55af6b017a0f75997ffffffffffffffffffffffffffffffffffffffffffffffffffffffffffffffffe417f00000000000000000000000000000000000000000000000000000000000000017f00000000000000000000000100000000000000000000000000000000000000007fffffffffffffffffffffffffffffffffffffffffffffffffffffffffffffffff7f000000000000000000000001000000000000000000000000000000000000000083130539"
            ],
            "sender": "0xd850d09bb0a7c458d4b813c2c152c762be8acb5e",
            "secretKey": "0x23bf47ef708c5b14b58367e00273ea9d20e9f23e5ca1f05f55af6b017a0f7599"
        },
        "post": {
            "Osaka": [
                {
                    "hash": "0x699f331b560757a0f73daed2ef3ba20dc9fb3db3ca75b649f707ec1d71191fbe",
                    "logs": "0x1dcc4de8dec75d7aab85b567b6ccd41ad312451b948a7413f0a142fd40d49347",
                    "txbytes": "0xf90151800a830186a0940273ea9d20e9f23e5ca1f05f55af6b017a0f7699846d7148eeb8ec7f00000000000000000000000100000000000000000000000000000000000000007f0000000000000000000000000273ea9d20e9f23e5ca1f05f55af6b017a0f75997ffffffffffffffffffffffffffffffffffffffffffffffffffffffffffffffffe417f00000000000000000000000000000000000000000000000000000000000000017f00000000000000000000000100000000000000000000000000000000000000007fffffffffffffffffffffffffffffffffffffffffffffffffffffffffffffffff7f00000000000000000000000100000000000000000000000000000000000000008313053925a072127f0597ed09bcc898ca7085a079ff349d4ce9c28e1881f59e42399327688ea03b1ffffaaacf9dc928ee663486518578ed10f40667c954003e8e213379b0431c",
                    "indexes": {
                        "data": 0,
                        "gas": 0,
                        "value": 0
                    },
                    "state": {
                        "0xd850d09bb0a7c458d4b813c2c152c762be8acb5e": {
                            "nonce": "0x01",
                            "balance": "0x0de0b6b339e86e88",
                            "code": "0x",
                            "storage": {}
                        },
                        "0x0273ea9d20e9f23e5ca1f05f55af6b017a0f7599": {
                            "nonce": "0x00",
                            "balance": "0x2e",
                            "code": "0x6000355415600957005b60203560003555",
                            "storage": {}
                        },
                        "0x0273ea9d20e9f23e5ca1f05f55af6b017a0f7699": {
                            "nonce": "0x00",
                            "balance": "0x6d7148ee",
                            "code": "0x7f00000000000000000000000100000000000000000000000000000000000000007f0000000000000000000000000273ea9d20e9f23e5ca1f05f55af6b017a0f75997ffffffffffffffffffffffffffffffffffffffffffffffffffffffffffffffffe417f00000000000000000000000000000000000000000000000000000000000000017f00000000000000000000000100000000000000000000000000000000000000007fffffffffffffffffffffffffffffffffffffffffffffffffffffffffffffffff7f0000000000000000000000010000000000000000000000000000000000000000831305395560005155",
                            "storage": {
                                "0x0273ea9d20e9f23e5ca1f05f55af6b017a0f7599": "0xfffffffffffffffffffffffffffffffffffffffffffffffffffffffffffffffe",
                                "0x00": "0x0273ea9d20e9f23e5ca1f05f55af6b017a0f7599"
                            }
                        }
                    }
                }
            ]
        },
        "config": {
            "blobSchedule": {
                "Cancun": {
                    "target": "0x03",
                    "max": "0x06",
                    "baseFeeUpdateFraction": "0x32f0ed"
                },
                "Prague": {
                    "target": "0x06",
                    "max": "0x09",
                    "baseFeeUpdateFraction": "0x4c6964"
                },
                "Osaka": {
                    "target": "0x06",
                    "max": "0x09",
                    "baseFeeUpdateFraction": "0x4c6964"
                }
            },
            "chainid": "0x01"
        },
        "_info": {
            "hash": "0xfe6e907392d336b9f3a22b50c790fed388603ffc797f46ea826104df3c6fe5d9",
            "comment": "`execution-specs` generated test",
            "filling-transition-tool": "2.18.0rc6",
            "description": "No description available - add a docstring to the python test class or function.",
            "url": "",
            "fixture-format": "state_test"
        }
    },
    "tests/static/state_tests/stRandom/randomStatetest164Filler.json::randomStatetest164[fork_Prague-state_test-]": {
        "env": {
            "currentCoinbase": "0x0273ea9d20e9f23e5ca1f05f55af6b017a0f7599",
            "currentGasLimit": "0x7fffffffffffffff",
            "currentNumber": "0x01",
            "currentTimestamp": "0x03e8",
            "currentRandom": "0x0000000000000000000000000000000000000000000000000000000000020000",
            "currentDifficulty": "0x00",
            "currentBaseFee": "0x0a",
            "currentExcessBlobGas": "0x00"
        },
        "pre": {
            "0xd850d09bb0a7c458d4b813c2c152c762be8acb5e": {
                "nonce": "0x00",
                "balance": "0x0de0b6b3a7640000",
                "code": "0x",
                "storage": {}
            },
            "0x0273ea9d20e9f23e5ca1f05f55af6b017a0f7599": {
                "nonce": "0x00",
                "balance": "0x2e",
                "code": "0x6000355415600957005b60203560003555",
                "storage": {}
            },
            "0x0273ea9d20e9f23e5ca1f05f55af6b017a0f7699": {
                "nonce": "0x00",
                "balance": "0x00",
                "code": "0x7f00000000000000000000000100000000000000000000000000000000000000007f0000000000000000000000000273ea9d20e9f23e5ca1f05f55af6b017a0f75997ffffffffffffffffffffffffffffffffffffffffffffffffffffffffffffffffe417f00000000000000000000000000000000000000000000000000000000000000017f00000000000000000000000100000000000000000000000000000000000000007fffffffffffffffffffffffffffffffffffffffffffffffffffffffffffffffff7f0000000000000000000000010000000000000000000000000000000000000000831305395560005155",
                "storage": {}
            }
        },
        "transaction": {
            "nonce": "0x00",
            "gasPrice": "0x0a",
            "gasLimit": [
                "0x0186a0"
            ],
            "to": "0x0273ea9d20e9f23e5ca1f05f55af6b017a0f7699",
            "value": [
                "0x6d7148ee"
            ],
            "data": [
                "0x7f00000000000000000000000100000000000000000000000000000000000000007f0000000000000000000000000273ea9d20e9f23e5ca1f05f55af6b017a0f75997ffffffffffffffffffffffffffffffffffffffffffffffffffffffffffffffffe417f00000000000000000000000000000000000000000000000000000000000000017f00000000000000000000000100000000000000000000000000000000000000007fffffffffffffffffffffffffffffffffffffffffffffffffffffffffffffffff7f000000000000000000000001000000000000000000000000000000000000000083130539"
            ],
            "sender": "0xd850d09bb0a7c458d4b813c2c152c762be8acb5e",
            "secretKey": "0x23bf47ef708c5b14b58367e00273ea9d20e9f23e5ca1f05f55af6b017a0f7599"
        },
        "post": {
            "Prague": [
                {
                    "hash": "0x699f331b560757a0f73daed2ef3ba20dc9fb3db3ca75b649f707ec1d71191fbe",
                    "logs": "0x1dcc4de8dec75d7aab85b567b6ccd41ad312451b948a7413f0a142fd40d49347",
                    "txbytes": "0xf90151800a830186a0940273ea9d20e9f23e5ca1f05f55af6b017a0f7699846d7148eeb8ec7f00000000000000000000000100000000000000000000000000000000000000007f0000000000000000000000000273ea9d20e9f23e5ca1f05f55af6b017a0f75997ffffffffffffffffffffffffffffffffffffffffffffffffffffffffffffffffe417f00000000000000000000000000000000000000000000000000000000000000017f00000000000000000000000100000000000000000000000000000000000000007fffffffffffffffffffffffffffffffffffffffffffffffffffffffffffffffff7f00000000000000000000000100000000000000000000000000000000000000008313053925a072127f0597ed09bcc898ca7085a079ff349d4ce9c28e1881f59e42399327688ea03b1ffffaaacf9dc928ee663486518578ed10f40667c954003e8e213379b0431c",
                    "indexes": {
                        "data": 0,
                        "gas": 0,
                        "value": 0
                    },
                    "state": {
                        "0xd850d09bb0a7c458d4b813c2c152c762be8acb5e": {
                            "nonce": "0x01",
                            "balance": "0x0de0b6b339e86e88",
                            "code": "0x",
                            "storage": {}
                        },
                        "0x0273ea9d20e9f23e5ca1f05f55af6b017a0f7599": {
                            "nonce": "0x00",
                            "balance": "0x2e",
                            "code": "0x6000355415600957005b60203560003555",
                            "storage": {}
                        },
                        "0x0273ea9d20e9f23e5ca1f05f55af6b017a0f7699": {
                            "nonce": "0x00",
                            "balance": "0x6d7148ee",
                            "code": "0x7f00000000000000000000000100000000000000000000000000000000000000007f0000000000000000000000000273ea9d20e9f23e5ca1f05f55af6b017a0f75997ffffffffffffffffffffffffffffffffffffffffffffffffffffffffffffffffe417f00000000000000000000000000000000000000000000000000000000000000017f00000000000000000000000100000000000000000000000000000000000000007fffffffffffffffffffffffffffffffffffffffffffffffffffffffffffffffff7f0000000000000000000000010000000000000000000000000000000000000000831305395560005155",
                            "storage": {
                                "0x0273ea9d20e9f23e5ca1f05f55af6b017a0f7599": "0xfffffffffffffffffffffffffffffffffffffffffffffffffffffffffffffffe",
                                "0x00": "0x0273ea9d20e9f23e5ca1f05f55af6b017a0f7599"
                            }
                        }
                    }
                }
            ]
        },
        "config": {
            "blobSchedule": {
                "Cancun": {
                    "target": "0x03",
                    "max": "0x06",
                    "baseFeeUpdateFraction": "0x32f0ed"
                },
                "Prague": {
                    "target": "0x06",
                    "max": "0x09",
                    "baseFeeUpdateFraction": "0x4c6964"
                }
            },
            "chainid": "0x01"
        },
        "_info": {
            "hash": "0xc64541b94c619ac8197ef01ef0b62c1e1c567ef9494059295a418ec103a77adb",
            "comment": "`execution-specs` generated test",
            "filling-transition-tool": "2.18.0rc6",
            "description": "No description available - add a docstring to the python test class or function.",
            "url": "",
            "fixture-format": "state_test"
        }
    }
}