{
    "tests/static/state_tests/stRandom/randomStatetest207Filler.json::randomStatetest207[fork_Cancun-state_test-]": {
        "env": {
            "currentCoinbase": "0x59d4688f30ab1c77bcd7f923b2a6abaaf847fc27",
            "currentGasLimit": "0x7fffffffffffffff",
            "currentNumber": "0x01",
            "currentTimestamp": "0x03e8",
            "currentRandom": "0x0000000000000000000000000000000000000000000000000000000000020000",
            "currentDifficulty": "0x00",
            "currentBaseFee": "0x0a",
            "currentExcessBlobGas": "0x00"
        },
        "pre": {
            "0x9d0bf9aefcc44251d4714fb5aef9cb02710896e3": {
                "nonce": "0x00",
                "balance": "0x0de0b6b3a7640000",
                "code": "0x",
                "storage": {}
            },
            "0x59d4688f30ab1c77bcd7f923b2a6abaaf847fc27": {
                "nonce": "0x00",
                "balance": "0x2e",
                "code": "0x6000355415600957005b60203560003555",
                "storage": {}
            },
            "0x59d4688f30ab1c77bcd7f923b2a6abaaf847fd27": {
                "nonce": "0x00",
                "balance": "0x0de0b6b3a7640000",
                "code": "0x43413160439155",
                "storage": {}
            }
        },
        "transaction": {
            "nonce": "0x00",
            "gasPrice": "0x0a",
            "gasLimit": [
                "0x061a80"
            ],
            "to": "0x59d4688f30ab1c77bcd7f923b2a6abaaf847fd27",
            "value": [
                "0x0186a0"
            ],
            "data": [
                "0x42"
            ],
            "sender": "0x9d0bf9aefcc44251d4714fb5aef9cb02710896e3",
            "secretKey": "0x8f23bfff76693d5088a2940959d4688f30ab1c77bcd7f923b2a6abaaf847fc27"
        },
        "post": {
            "Cancun": [
                {
                    "hash": "0xd03d9bd83b54a3d55e265725391d03cc86417ea5ec7561abeb2a549fdcec6f38",
                    "logs": "0x1dcc4de8dec75d7aab85b567b6ccd41ad312451b948a7413f0a142fd40d49347",
                    "txbytes": "0xf863800a83061a809459d4688f30ab1c77bcd7f923b2a6abaaf847fd27830186a04225a08842eb42643026c855a3ab362c58d45d538c0d6a07c0fffd49f9e87df1c020ada00135f6f5b54d89bbfb49469891aeadeb2b103b60af0570b680dc08fa15bb89fb",
                    "indexes": {
                        "data": 0,
                        "gas": 0,
                        "value": 0
                    },
                    "state": {
                        "0x9d0bf9aefcc44251d4714fb5aef9cb02710896e3": {
                            "nonce": "0x01",
                            "balance": "0x0de0b6b3a75be0dc",
                            "code": "0x",
                            "storage": {}
                        },
                        "0x59d4688f30ab1c77bcd7f923b2a6abaaf847fc27": {
                            "nonce": "0x00",
                            "balance": "0x2e",
                            "code": "0x6000355415600957005b60203560003555",
                            "storage": {}
                        },
                        "0x59d4688f30ab1c77bcd7f923b2a6abaaf847fd27": {
                            "nonce": "0x00",
                            "balance": "0x0de0b6b3a76586a0",
                            "code": "0x43413160439155",
                            "storage": {
                                "0x01": "0x2e"
                            }
                        }
                    }
                }
            ]
        },
        "config": {
            "blobSchedule": {
                "Cancun": {
                    "target": "0x03",
                    "max": "0x06",
                    "baseFeeUpdateFraction": "0x32f0ed"
                }
            },
            "chainid": "0x01"
        },
        "_info": {
            "hash": "0x2c5877bdd64a096d186b37ad460be511b284c679923958a4bbce2769be36082b",
            "comment": "`execution-specs` generated test",
            "filling-transition-tool": "2.18.0rc6",
            "description": "No description available - add a docstring to the python test class or function.",
            "url": "",
            "fixture-format": "state_test"
        }
    },
    "tests/static/state_tests/stRandom/randomStatetest207Filler.json::randomStatetest207[fork_Osaka-state_test-]": {
        "env": {
            "currentCoinbase": "0x59d4688f30ab1c77bcd7f923b2a6abaaf847fc27",
            "currentGasLimit": "0x7fffffffffffffff",
            "currentNumber": "0x01",
            "currentTimestamp": "0x03e8",
            "currentRandom": "0x0000000000000000000000000000000000000000000000000000000000020000",
            "currentDifficulty": "0x00",
            "currentBaseFee": "0x0a",
            "currentExcessBlobGas": "0x00"
        },
        "pre": {
            "0x9d0bf9aefcc44251d4714fb5aef9cb02710896e3": {
                "nonce": "0x00",
                "balance": "0x0de0b6b3a7640000",
                "code": "0x",
                "storage": {}
            },
            "0x59d4688f30ab1c77bcd7f923b2a6abaaf847fc27": {
                "nonce": "0x00",
                "balance": "0x2e",
                "code": "0x6000355415600957005b60203560003555",
                "storage": {}
            },
            "0x59d4688f30ab1c77bcd7f923b2a6abaaf847fd27": {
                "nonce": "0x00",
                "balance": "0x0de0b6b3a7640000",
                "code": "0x43413160439155",
                "storage": {}
            }
        },
        "transaction": {
            "nonce": "0x00",
            "gasPrice": "0x0a",
            "gasLimit": [
                "0x061a80"
            ],
            "to": "0x59d4688f30ab1c77bcd7f923b2a6abaaf847fd27",
            "value": [
                "0x0186a0"
            ],
            "data": [
                "0x42"
            ],
            "sender": "0x9d0bf9aefcc44251d4714fb5aef9cb02710896e3",
            "secretKey": "0x8f23bfff76693d5088a2940959d4688f30ab1c77bcd7f923b2a6abaaf847fc27"
        },
        "post": {
            "Osaka": [
                {
                    "hash": "0xd03d9bd83b54a3d55e265725391d03cc86417ea5ec7561abeb2a549fdcec6f38",
                    "logs": "0x1dcc4de8dec75d7aab85b567b6ccd41ad312451b948a7413f0a142fd40d49347",
                    "txbytes": "0xf863800a83061a809459d4688f30ab1c77bcd7f923b2a6abaaf847fd27830186a04225a08842eb42643026c855a3ab362c58d45d538c0d6a07c0fffd49f9e87df1c020ada00135f6f5b54d89bbfb49469891aeadeb2b103b60af0570b680dc08fa15bb89fb",
                    "indexes": {
                        "data": 0,
                        "gas": 0,
                        "value": 0
                    },
                    "state": {
                        "0x9d0bf9aefcc44251d4714fb5aef9cb02710896e3": {
                            "nonce": "0x01",
                            "balance": "0x0de0b6b3a75be0dc",
                            "code": "0x",
                            "storage": {}
                        },
                        "0x59d4688f30ab1c77bcd7f923b2a6abaaf847fc27": {
                            "nonce": "0x00",
                            "balance": "0x2e",
                            "code": "0x6000355415600957005b60203560003555",
                            "storage": {}
                        },
                        "0x59d4688f30ab1c77bcd7f923b2a6abaaf847fd27": {
                            "nonce": "0x00",
                            "balance": "0x0de0b6b3a76586a0",
                            "code": "0x43413160439155",
                            "storage": {
                                "0x01": "0x2e"
                            }
                        }
                    }
                }
            ]
        },
        "config": {
            "blobSchedule": {
                "Cancun": {
                    "target": "0x03",
                    "max": "0x06",
                    "baseFeeUpdateFraction": "0x32f0ed"
                },
                "Prague": {
                    "target": "0x06",
                    "max": "0x09",
                    "baseFeeUpdateFraction": "0x4c6964"
                },
                "Osaka": {
                    "target": "0x06",
                    "max": "0x09",
                    "baseFeeUpdateFraction": "0x4c6964"
                }
            },
            "chainid": "0x01"
        },
        "_info": {
            "hash": "0xc662b9e0299824f880bda61a809e4e4047153055ecaf0f39eb5bddb1cc712f8d",
            "comment": "`execution-specs` generated test",
            "filling-transition-tool": "2.18.0rc6",
            "description": "No description available - add a docstring to the python test class or function.",
            "url": "",
            "fixture-format": "state_test"
        }
    },
    "tests/static/state_tests/stRandom/randomStatetest207Filler.json::randomStatetest207[fork_Prague-state_test-]": {
        "env": {
            "currentCoinbase": "0x59d4688f30ab1c77bcd7f923b2a6abaaf847fc27",
            "currentGasLimit": "0x7fffffffffffffff",
            "currentNumber": "0x01",
            "currentTimestamp": "0x03e8",
            "currentRandom": "0x0000000000000000000000000000000000000000000000000000000000020000",
            "currentDifficulty": "0x00",
            "currentBaseFee": "0x0a",
            "currentExcessBlobGas": "0x00"
        },
        "pre": {
            "0x9d0bf9aefcc44251d4714fb5aef9cb02710896e3": {
                "nonce": "0x00",
                "balance": "0x0de0b6b3a7640000",
                "code": "0x",
                "storage": {}
            },
            "0x59d4688f30ab1c77bcd7f923b2a6abaaf847fc27": {
                "nonce": "0x00",
                "balance": "0x2e",
                "code": "0x6000355415600957005b60203560003555",
                "storage": {}
            },
            "0x59d4688f30ab1c77bcd7f923b2a6abaaf847fd27": {
                "nonce": "0x00",
                "balance": "0x0de0b6b3a7640000",
                "code": "0x43413160439155",
                "storage": {}
            }
        },
        "transaction": {
            "nonce": "0x00",
            "gasPrice": "0x0a",
            "gasLimit": [
                "0x061a80"
            ],
            "to": "0x59d4688f30ab1c77bcd7f923b2a6abaaf847fd27",
            "value": [
                "0x0186a0"
            ],
            "data": [
                "0x42"
            ],
            "sender": "0x9d0bf9aefcc44251d4714fb5aef9cb02710896e3",
            "secretKey": "0x8f23bfff76693d5088a2940959d4688f30ab1c77bcd7f923b2a6abaaf847fc27"
        },
        "post": {
            "Prague": [
                {
                    "hash": "0xd03d9bd83b54a3d55e265725391d03cc86417ea5ec7561abeb2a549fdcec6f38",
                    "logs": "0x1dcc4de8dec75d7aab85b567b6ccd41ad312451b948a7413f0a142fd40d49347",
                    "txbytes": "0xf863800a83061a809459d4688f30ab1c77bcd7f923b2a6abaaf847fd27830186a04225a08842eb42643026c855a3ab362c58d45d538c0d6a07c0fffd49f9e87df1c020ada00135f6f5b54d89bbfb49469891aeadeb2b103b60af0570b680dc08fa15bb89fb",
                    "indexes": {
                        "data": 0,
                        "gas": 0,
                        "value": 0
                    },
                    "state": {
                        "0x9d0bf9aefcc44251d4714fb5aef9cb02710896e3": {
                            "nonce": "0x01",
                            "balance": "0x0de0b6b3a75be0dc",
                            "code": "0x",
                            "storage": {}
                        },
                        "0x59d4688f30ab1c77bcd7f923b2a6abaaf847fc27": {
                            "nonce": "0x00",
                            "balance": "0x2e",
                            "code": "0x6000355415600957005b60203560003555",
                            "storage": {}
                        },
                        "0x59d4688f30ab1c77bcd7f923b2a6abaaf847fd27": {
                            "nonce": "0x00",
                            "balance": "0x0de0b6b3a76586a0",
                            "code": "0x43413160439155",
                            "storage": {
                                "0x01": "0x2e"
                            }
                        }
                    }
                }
            ]
        },
        "config": {
            "blobSchedule": {
                "Cancun": {
                    "target": "0x03",
                    "max": "0x06",
                    "baseFeeUpdateFraction": "0x32f0ed"
                },
                "Prague": {
                    "target": "0x06",
                    "max": "0x09",
                    "baseFeeUpdateFraction": "0x4c6964"
                }
            },
            "chainid": "0x01"
        },
        "_info": {
            "hash": "0xea5cd32cf750b619082b0e43534b25a404c23b385aeaf2b198c74c6a799bf2bb",
            "comment": "`execution-specs` generated test",
            "filling-transition-tool": "2.18.0rc6",
            "description": "No description available - add a docstring to the python test class or function.",
            "url": "",
            "fixture-format": "state_test"
        }
    }
}