{
    "tests/static/state_tests/stRandom/randomStatetest155Filler.json::randomStatetest155[fork_Cancun-state_test-]": {
        "env": {
            "currentCoinbase": "0x71c9f286363ca0558e2d8f538fa377be4b0f023f",
            "currentGasLimit": "0x7fffffffffffffff",
            "currentNumber": "0x01",
            "currentTimestamp": "0x03e8",
            "currentRandom": "0x0000000000000000000000000000000000000000000000000000000000020000",
            "currentDifficulty": "0x00",
            "currentBaseFee": "0x0a",
            "currentExcessBlobGas": "0x00"
        },
        "pre": {
            "0x9ed4d16fd7fcf496e8f28478c7fded26ab133383": {
                "nonce": "0x00",
                "balance": "0x0de0b6b3a7640000",
                "code": "0x",
                "storage": {}
            },
            "0x71c9f286363ca0558e2d8f538fa377be4b0f023f": {
                "nonce": "0x00",
                "balance": "0x2e",
                "code": "0x6000355415600957005b60203560003555",
                "storage": {}
            },
            "0x71c9f286363ca0558e2d8f538fa377be4b0f033f": {
                "nonce": "0x00",
                "balance": "0x00",
                "code": "0x457f00000000000000000000000000000000000000000000000000000000000000007fffffffffffffffffffffffffffffffffffffffffffffffffffffffffffffffff7f000000000000000000000000ffffffffffffffffffffffffffffffffffffffff7f000000000000000000000000ffffffffffffffffffffffffffffffffffffffff7ffffffffffffffffffffffffffffffffffffffffffffffffffffffffffffffffe7f00000000000000000000000071c9f286363ca0558e2d8f538fa377be4b0f023f7f00000000000000000000000000000000000000000000000000000000000000006f3494f39b6ca29473a19958030891015560005155",
                "storage": {}
            }
        },
        "transaction": {
            "nonce": "0x00",
            "gasPrice": "0x0a",
            "gasLimit": [
                "0x0186a0"
            ],
            "to": "0x71c9f286363ca0558e2d8f538fa377be4b0f033f",
            "value": [
                "0x228b052c"
            ],
            "data": [
                "0x457f00000000000000000000000000000000000000000000000000000000000000007fffffffffffffffffffffffffffffffffffffffffffffffffffffffffffffffff7f000000000000000000000000ffffffffffffffffffffffffffffffffffffffff7f000000000000000000000000ffffffffffffffffffffffffffffffffffffffff7ffffffffffffffffffffffffffffffffffffffffffffffffffffffffffffffffe7f00000000000000000000000071c9f286363ca0558e2d8f538fa377be4b0f023f7f00000000000000000000000000000000000000000000000000000000000000006f3494f39b6ca29473a1995803089101"
            ],
            "sender": "0x9ed4d16fd7fcf496e8f28478c7fded26ab133383",
            "secretKey": "0xfc565c9e842a4b891323fb9271c9f286363ca0558e2d8f538fa377be4b0f023f"
        },
        "post": {
            "Cancun": [
                {
                    "hash": "0x5bba4e564b1ff95077a5c48c5d952994cf4b63c0d902ffd053b41a77e23b6cc0",
                    "logs": "0x1dcc4de8dec75d7aab85b567b6ccd41ad312451b948a7413f0a142fd40d49347",
                    "txbytes": "0xf9015d800a830186a09471c9f286363ca0558e2d8f538fa377be4b0f033f84228b052cb8f8457f00000000000000000000000000000000000000000000000000000000000000007fffffffffffffffffffffffffffffffffffffffffffffffffffffffffffffffff7f000000000000000000000000ffffffffffffffffffffffffffffffffffffffff7f000000000000000000000000ffffffffffffffffffffffffffffffffffffffff7ffffffffffffffffffffffffffffffffffffffffffffffffffffffffffffffffe7f00000000000000000000000071c9f286363ca0558e2d8f538fa377be4b0f023f7f00000000000000000000000000000000000000000000000000000000000000006f3494f39b6ca29473a199580308910125a06ab12bc121e6873ecf1f242d15ae4f96fc9330b6e6ca95f773b4ff236e4fd8c7a007b6420712b445e88bd2cc07a380cbf5a2ac1d46b417b7d770e48804b64bbf7c",
                    "indexes": {
                        "data": 0,
                        "gas": 0,
                        "value": 0
                    },
                    "state": {
                        "0x9ed4d16fd7fcf496e8f28478c7fded26ab133383": {
                            "nonce": "0x01",
                            "balance": "0x0de0b6b384d1f9be",
                            "code": "0x",
                            "storage": {}
                        },
                        "0x71c9f286363ca0558e2d8f538fa377be4b0f023f": {
                            "nonce": "0x00",
                            "balance": "0x2e",
                            "code": "0x6000355415600957005b60203560003555",
                            "storage": {}
                        },
                        "0x71c9f286363ca0558e2d8f538fa377be4b0f033f": {
                            "nonce": "0x00",
                            "balance": "0x228b052c",
                            "code": "0x457f00000000000000000000000000000000000000000000000000000000000000007fffffffffffffffffffffffffffffffffffffffffffffffffffffffffffffffff7f000000000000000000000000ffffffffffffffffffffffffffffffffffffffff7f000000000000000000000000ffffffffffffffffffffffffffffffffffffffff7ffffffffffffffffffffffffffffffffffffffffffffffffffffffffffffffffe7f00000000000000000000000071c9f286363ca0558e2d8f538fa377be4b0f023f7f00000000000000000000000000000000000000000000000000000000000000006f3494f39b6ca29473a19958030891015560005155",
                            "storage": {
                                "0x00": "0x3494f39b6ca29473a199580308910155"
                            }
                        }
                    }
                }
            ]
        },
        "config": {
            "blobSchedule": {
                "Cancun": {
                    "target": "0x03",
                    "max": "0x06",
                    "baseFeeUpdateFraction": "0x32f0ed"
                }
            },
            "chainid": "0x01"
        },
        "_info": {
            "hash": "0x84b19f30d0141aa5471df805128dba6bf1c2876fe3390c079ade0bff745014e8",
            "comment": "`execution-specs` generated test",
            "filling-transition-tool": "2.18.0rc6",
            "description": "No description available - add a docstring to the python test class or function.",
            "url": "",
            "fixture-format": "state_test"
        }
    },
    "tests/static/state_tests/stRandom/randomStatetest155Filler.json::randomStatetest155[fork_Osaka-state_test-]": {
        "env": {
            "currentCoinbase": "0x71c9f286363ca0558e2d8f538fa377be4b0f023f",
            "currentGasLimit": "0x7fffffffffffffff",
            "currentNumber": "0x01",
            "currentTimestamp": "0x03e8",
            "currentRandom": "0x0000000000000000000000000000000000000000000000000000000000020000",
            "currentDifficulty": "0x00",
            "currentBaseFee": "0x0a",
            "currentExcessBlobGas": "0x00"
        },
        "pre": {
            "0x9ed4d16fd7fcf496e8f28478c7fded26ab133383": {
                "nonce": "0x00",
                "balance": "0x0de0b6b3a7640000",
                "code": "0x",
                "storage": {}
            },
            "0x71c9f286363ca0558e2d8f538fa377be4b0f023f": {
                "nonce": "0x00",
                "balance": "0x2e",
                "code": "0x6000355415600957005b60203560003555",
                "storage": {}
            },
            "0x71c9f286363ca0558e2d8f538fa377be4b0f033f": {
                "nonce": "0x00",
                "balance": "0x00",
                "code": "0x457f00000000000000000000000000000000000000000000000000000000000000007fffffffffffffffffffffffffffffffffffffffffffffffffffffffffffffffff7f000000000000000000000000ffffffffffffffffffffffffffffffffffffffff7f000000000000000000000000ffffffffffffffffffffffffffffffffffffffff7ffffffffffffffffffffffffffffffffffffffffffffffffffffffffffffffffe7f00000000000000000000000071c9f286363ca0558e2d8f538fa377be4b0f023f7f00000000000000000000000000000000000000000000000000000000000000006f3494f39b6ca29473a19958030891015560005155",
                "storage": {}
            }
        },
        "transaction": {
            "nonce": "0x00",
            "gasPrice": "0x0a",
            "gasLimit": [
                "0x0186a0"
            ],
            "to": "0x71c9f286363ca0558e2d8f538fa377be4b0f033f",
            "value": [
                "0x228b052c"
            ],
            "data": [
                "0x457f00000000000000000000000000000000000000000000000000000000000000007fffffffffffffffffffffffffffffffffffffffffffffffffffffffffffffffff7f000000000000000000000000ffffffffffffffffffffffffffffffffffffffff7f000000000000000000000000ffffffffffffffffffffffffffffffffffffffff7ffffffffffffffffffffffffffffffffffffffffffffffffffffffffffffffffe7f00000000000000000000000071c9f286363ca0558e2d8f538fa377be4b0f023f7f00000000000000000000000000000000000000000000000000000000000000006f3494f39b6ca29473a1995803089101"
            ],
            "sender": "0x9ed4d16fd7fcf496e8f28478c7fded26ab133383",
            "secretKey": "0xfc565c9e842a4b891323fb9271c9f286363ca0558e2d8f538fa377be4b0f023f"
        },
        "post": {
            "Osaka": [
                {
                    "hash": "0x5bba4e564b1ff95077a5c48c5d952994cf4b63c0d902ffd053b41a77e23b6cc0",
                    "logs": "0x1dcc4de8dec75d7aab85b567b6ccd41ad312451b948a7413f0a142fd40d49347",
                    "txbytes": "0xf9015d800a830186a09471c9f286363ca0558e2d8f538fa377be4b0f033f84228b052cb8f8457f00000000000000000000000000000000000000000000000000000000000000007fffffffffffffffffffffffffffffffffffffffffffffffffffffffffffffffff7f000000000000000000000000ffffffffffffffffffffffffffffffffffffffff7f000000000000000000000000ffffffffffffffffffffffffffffffffffffffff7ffffffffffffffffffffffffffffffffffffffffffffffffffffffffffffffffe7f00000000000000000000000071c9f286363ca0558e2d8f538fa377be4b0f023f7f00000000000000000000000000000000000000000000000000000000000000006f3494f39b6ca29473a199580308910125a06ab12bc121e6873ecf1f242d15ae4f96fc9330b6e6ca95f773b4ff236e4fd8c7a007b6420712b445e88bd2cc07a380cbf5a2ac1d46b417b7d770e48804b64bbf7c",
                    "indexes": {
                        "data": 0,
                        "gas": 0,
                        "value": 0
                    },
                    "state": {
                        "0x9ed4d16fd7fcf496e8f28478c7fded26ab133383": {
                            "nonce": "0x01",
                            "balance": "0x0de0b6b384d1f9be",
                            "code": "0x",
                            "storage": {}
                        },
                        "0x71c9f286363ca0558e2d8f538fa377be4b0f023f": {
                            "nonce": "0x00",
                            "balance": "0x2e",
                            "code": "0x6000355415600957005b60203560003555",
                            "storage": {}
                        },
                        "0x71c9f286363ca0558e2d8f538fa377be4b0f033f": {
                            "nonce": "0x00",
                            "balance": "0x228b052c",
                            "code": "0x457f00000000000000000000000000000000000000000000000000000000000000007fffffffffffffffffffffffffffffffffffffffffffffffffffffffffffffffff7f000000000000000000000000ffffffffffffffffffffffffffffffffffffffff7f000000000000000000000000ffffffffffffffffffffffffffffffffffffffff7ffffffffffffffffffffffffffffffffffffffffffffffffffffffffffffffffe7f00000000000000000000000071c9f286363ca0558e2d8f538fa377be4b0f023f7f00000000000000000000000000000000000000000000000000000000000000006f3494f39b6ca29473a19958030891015560005155",
                            "storage": {
                                "0x00": "0x3494f39b6ca29473a199580308910155"
                            }
                        }
                    }
                }
            ]
        },
        "config": {
            "blobSchedule": {
                "Cancun": {
                    "target": "0x03",
                    "max": "0x06",
                    "baseFeeUpdateFraction": "0x32f0ed"
                },
                "Prague": {
                    "target": "0x06",
                    "max": "0x09",
                    "baseFeeUpdateFraction": "0x4c6964"
                },
                "Osaka": {
                    "target": "0x06",
                    "max": "0x09",
                    "baseFeeUpdateFraction": "0x4c6964"
                }
            },
            "chainid": "0x01"
        },
        "_info": {
            "hash": "0x7bcc7dfddb969d5719aed989049d03bf7b9b44532f8dd0b8b9f81fbf1be28406",
            "comment": "`execution-specs` generated test",
            "filling-transition-tool": "2.18.0rc6",
            "description": "No description available - add a docstring to the python test class or function.",
            "url": "",
            "fixture-format": "state_test"
        }
    },
    "tests/static/state_tests/stRandom/randomStatetest155Filler.json::randomStatetest155[fork_Prague-state_test-]": {
        "env": {
            "currentCoinbase": "0x71c9f286363ca0558e2d8f538fa377be4b0f023f",
            "currentGasLimit": "0x7fffffffffffffff",
            "currentNumber": "0x01",
            "currentTimestamp": "0x03e8",
            "currentRandom": "0x0000000000000000000000000000000000000000000000000000000000020000",
            "currentDifficulty": "0x00",
            "currentBaseFee": "0x0a",
            "currentExcessBlobGas": "0x00"
        },
        "pre": {
            "0x9ed4d16fd7fcf496e8f28478c7fded26ab133383": {
                "nonce": "0x00",
                "balance": "0x0de0b6b3a7640000",
                "code": "0x",
                "storage": {}
            },
            "0x71c9f286363ca0558e2d8f538fa377be4b0f023f": {
                "nonce": "0x00",
                "balance": "0x2e",
                "code": "0x6000355415600957005b60203560003555",
                "storage": {}
            },
            "0x71c9f286363ca0558e2d8f538fa377be4b0f033f": {
                "nonce": "0x00",
                "balance": "0x00",
                "code": "0x457f00000000000000000000000000000000000000000000000000000000000000007fffffffffffffffffffffffffffffffffffffffffffffffffffffffffffffffff7f000000000000000000000000ffffffffffffffffffffffffffffffffffffffff7f000000000000000000000000ffffffffffffffffffffffffffffffffffffffff7ffffffffffffffffffffffffffffffffffffffffffffffffffffffffffffffffe7f00000000000000000000000071c9f286363ca0558e2d8f538fa377be4b0f023f7f00000000000000000000000000000000000000000000000000000000000000006f3494f39b6ca29473a19958030891015560005155",
                "storage": {}
            }
        },
        "transaction": {
            "nonce": "0x00",
            "gasPrice": "0x0a",
            "gasLimit": [
                "0x0186a0"
            ],
            "to": "0x71c9f286363ca0558e2d8f538fa377be4b0f033f",
            "value": [
                "0x228b052c"
            ],
            "data": [
                "0x457f00000000000000000000000000000000000000000000000000000000000000007fffffffffffffffffffffffffffffffffffffffffffffffffffffffffffffffff7f000000000000000000000000ffffffffffffffffffffffffffffffffffffffff7f000000000000000000000000ffffffffffffffffffffffffffffffffffffffff7ffffffffffffffffffffffffffffffffffffffffffffffffffffffffffffffffe7f00000000000000000000000071c9f286363ca0558e2d8f538fa377be4b0f023f7f00000000000000000000000000000000000000000000000000000000000000006f3494f39b6ca29473a1995803089101"
            ],
            "sender": "0x9ed4d16fd7fcf496e8f28478c7fded26ab133383",
            "secretKey": "0xfc565c9e842a4b891323fb9271c9f286363ca0558e2d8f538fa377be4b0f023f"
        },
        "post": {
            "Prague": [
                {
                    "hash": "0x5bba4e564b1ff95077a5c48c5d952994cf4b63c0d902ffd053b41a77e23b6cc0",
                    "logs": "0x1dcc4de8dec75d7aab85b567b6ccd41ad312451b948a7413f0a142fd40d49347",
                    "txbytes": "0xf9015d800a830186a09471c9f286363ca0558e2d8f538fa377be4b0f033f84228b052cb8f8457f00000000000000000000000000000000000000000000000000000000000000007fffffffffffffffffffffffffffffffffffffffffffffffffffffffffffffffff7f000000000000000000000000ffffffffffffffffffffffffffffffffffffffff7f000000000000000000000000ffffffffffffffffffffffffffffffffffffffff7ffffffffffffffffffffffffffffffffffffffffffffffffffffffffffffffffe7f00000000000000000000000071c9f286363ca0558e2d8f538fa377be4b0f023f7f00000000000000000000000000000000000000000000000000000000000000006f3494f39b6ca29473a199580308910125a06ab12bc121e6873ecf1f242d15ae4f96fc9330b6e6ca95f773b4ff236e4fd8c7a007b6420712b445e88bd2cc07a380cbf5a2ac1d46b417b7d770e48804b64bbf7c",
                    "indexes": {
                        "data": 0,
                        "gas": 0,
                        "value": 0
                    },
                    "state": {
                        "0x9ed4d16fd7fcf496e8f28478c7fded26ab133383": {
                            "nonce": "0x01",
                            "balance": "0x0de0b6b384d1f9be",
                            "code": "0x",
                            "storage": {}
                        },
                        "0x71c9f286363ca0558e2d8f538fa377be4b0f023f": {
                            "nonce": "0x00",
                            "balance": "0x2e",
                            "code": "0x6000355415600957005b60203560003555",
                            "storage": {}
                        },
                        "0x71c9f286363ca0558e2d8f538fa377be4b0f033f": {
                            "nonce": "0x00",
                            "balance": "0x228b052c",
                            "code": "0x457f00000000000000000000000000000000000000000000000000000000000000007fffffffffffffffffffffffffffffffffffffffffffffffffffffffffffffffff7f000000000000000000000000ffffffffffffffffffffffffffffffffffffffff7f000000000000000000000000ffffffffffffffffffffffffffffffffffffffff7ffffffffffffffffffffffffffffffffffffffffffffffffffffffffffffffffe7f00000000000000000000000071c9f286363ca0558e2d8f538fa377be4b0f023f7f00000000000000000000000000000000000000000000000000000000000000006f3494f39b6ca29473a19958030891015560005155",
                            "storage": {
                                "0x00": "0x3494f39b6ca29473a199580308910155"
                            }
                        }
                    }
                }
            ]
        },
        "config": {
            "blobSchedule": {
                "Cancun": {
                    "target": "0x03",
                    "max": "0x06",
                    "baseFeeUpdateFraction": "0x32f0ed"
                },
                "Prague": {
                    "target": "0x06",
                    "max": "0x09",
                    "baseFeeUpdateFraction": "0x4c6964"
                }
            },
            "chainid": "0x01"
        },
        "_info": {
            "hash": "0xe7798daaa940986edfaa7b179357da2516b4e7aa05e23b99d0fc227b06e64372",
            "comment": "`execution-specs` generated test",
            "filling-transition-tool": "2.18.0rc6",
            "description": "No description available - add a docstring to the python test class or function.",
            "url": "",
            "fixture-format": "state_test"
        }
    }
}