{
    "tests/static/state_tests/stRandom/randomStatetest151Filler.json::randomStatetest151[fork_Cancun-state_test-]": {
        "env": {
            "currentCoinbase": "0x5f2e55118b593a3a333e66574734e2abb49cff88",
            "currentGasLimit": "0x7fffffffffffffff",
            "currentNumber": "0x01",
            "currentTimestamp": "0x03e8",
            "currentRandom": "0x0000000000000000000000000000000000000000000000000000000000020000",
            "currentDifficulty": "0x00",
            "currentBaseFee": "0x0a",
            "currentExcessBlobGas": "0x00"
        },
        "pre": {
            "0x9c8b793bb05d025f63ad23d20d677d38f5dbc8fd": {
                "nonce": "0x00",
                "balance": "0x0de0b6b3a7640000",
                "code": "0x",
                "storage": {}
            },
            "0x5f2e55118b593a3a333e66574734e2abb49cff88": {
                "nonce": "0x00",
                "balance": "0x2e",
                "code": "0x6000355415600957005b60203560003555",
                "storage": {}
            },
            "0x5f2e55118b593a3a333e66574734e2abb49d0088": {
                "nonce": "0x00",
                "balance": "0x0de0b6b3a7640000",
                "code": "0x41424143445a42f35b10773574016c9f",
                "storage": {}
            }
        },
        "transaction": {
            "nonce": "0x00",
            "gasPrice": "0x0a",
            "gasLimit": [
                "0x061a80"
            ],
            "to": "0x5f2e55118b593a3a333e66574734e2abb49d0088",
            "value": [
                "0x0186a0"
            ],
            "data": [
                "0x42"
            ],
            "sender": "0x9c8b793bb05d025f63ad23d20d677d38f5dbc8fd",
            "secretKey": "0x55ea935215acfd07a54b27d85f2e55118b593a3a333e66574734e2abb49cff88"
        },
        "post": {
            "Cancun": [
                {
                    "hash": "0x0106f33d4b216883609b4f8cf3f595236cd0ac50fc28e350c536898e1cd63eb3",
                    "logs": "0x1dcc4de8dec75d7aab85b567b6ccd41ad312451b948a7413f0a142fd40d49347",
                    "txbytes": "0xf863800a83061a80945f2e55118b593a3a333e66574734e2abb49d0088830186a04226a0d94b75d599988906471fe9e0c262f5263ab6f0ece1c8b2c3bbd8264d0dd258c5a002a95056199b0aac05cb8176e645636ce6d5d4aa5e523175f17efb91536a839f",
                    "indexes": {
                        "data": 0,
                        "gas": 0,
                        "value": 0
                    },
                    "state": {
                        "0x9c8b793bb05d025f63ad23d20d677d38f5dbc8fd": {
                            "nonce": "0x01",
                            "balance": "0x0de0b6b3a72fcda8",
                            "code": "0x",
                            "storage": {}
                        },
                        "0x5f2e55118b593a3a333e66574734e2abb49cff88": {
                            "nonce": "0x00",
                            "balance": "0x2e",
                            "code": "0x6000355415600957005b60203560003555",
                            "storage": {}
                        },
                        "0x5f2e55118b593a3a333e66574734e2abb49d0088": {
                            "nonce": "0x00",
                            "balance": "0x0de0b6b3a76586a0",
                            "code": "0x41424143445a42f35b10773574016c9f",
                            "storage": {}
                        }
                    }
                }
            ]
        },
        "config": {
            "blobSchedule": {
                "Cancun": {
                    "target": "0x03",
                    "max": "0x06",
                    "baseFeeUpdateFraction": "0x32f0ed"
                }
            },
            "chainid": "0x01"
        },
        "_info": {
            "hash": "0x44b801273da99956c06e264f1484e5644cff79c647db85be2116291e196d03a4",
            "comment": "`execution-spec-tests` generated test",
            "filling-transition-tool": "ethereum-spec-evm-resolver 0.0.5",
            "description": "No description available - add a docstring to the python test class or function.",
            "url": "",
            "fixture-format": "state_test",
            "eels-resolution": {
                "git-url": "https://github.com/marioevz/execution-specs.git",
                "branch": "forks/bpo1",
                "commit": "3387e5f4aedfe99becfdc39b444d6371e25e0924"
            }
        }
    },
    "tests/static/state_tests/stRandom/randomStatetest151Filler.json::randomStatetest151[fork_Osaka-state_test-]": {
        "env": {
            "currentCoinbase": "0x5f2e55118b593a3a333e66574734e2abb49cff88",
            "currentGasLimit": "0x7fffffffffffffff",
            "currentNumber": "0x01",
            "currentTimestamp": "0x03e8",
            "currentRandom": "0x0000000000000000000000000000000000000000000000000000000000020000",
            "currentDifficulty": "0x00",
            "currentBaseFee": "0x0a",
            "currentExcessBlobGas": "0x00"
        },
        "pre": {
            "0x9c8b793bb05d025f63ad23d20d677d38f5dbc8fd": {
                "nonce": "0x00",
                "balance": "0x0de0b6b3a7640000",
                "code": "0x",
                "storage": {}
            },
            "0x5f2e55118b593a3a333e66574734e2abb49cff88": {
                "nonce": "0x00",
                "balance": "0x2e",
                "code": "0x6000355415600957005b60203560003555",
                "storage": {}
            },
            "0x5f2e55118b593a3a333e66574734e2abb49d0088": {
                "nonce": "0x00",
                "balance": "0x0de0b6b3a7640000",
                "code": "0x41424143445a42f35b10773574016c9f",
                "storage": {}
            }
        },
        "transaction": {
            "nonce": "0x00",
            "gasPrice": "0x0a",
            "gasLimit": [
                "0x061a80"
            ],
            "to": "0x5f2e55118b593a3a333e66574734e2abb49d0088",
            "value": [
                "0x0186a0"
            ],
            "data": [
                "0x42"
            ],
            "sender": "0x9c8b793bb05d025f63ad23d20d677d38f5dbc8fd",
            "secretKey": "0x55ea935215acfd07a54b27d85f2e55118b593a3a333e66574734e2abb49cff88"
        },
        "post": {
            "Osaka": [
                {
                    "hash": "0x0106f33d4b216883609b4f8cf3f595236cd0ac50fc28e350c536898e1cd63eb3",
                    "logs": "0x1dcc4de8dec75d7aab85b567b6ccd41ad312451b948a7413f0a142fd40d49347",
                    "txbytes": "0xf863800a83061a80945f2e55118b593a3a333e66574734e2abb49d0088830186a04226a0d94b75d599988906471fe9e0c262f5263ab6f0ece1c8b2c3bbd8264d0dd258c5a002a95056199b0aac05cb8176e645636ce6d5d4aa5e523175f17efb91536a839f",
                    "indexes": {
                        "data": 0,
                        "gas": 0,
                        "value": 0
                    },
                    "state": {
                        "0x9c8b793bb05d025f63ad23d20d677d38f5dbc8fd": {
                            "nonce": "0x01",
                            "balance": "0x0de0b6b3a72fcda8",
                            "code": "0x",
                            "storage": {}
                        },
                        "0x5f2e55118b593a3a333e66574734e2abb49cff88": {
                            "nonce": "0x00",
                            "balance": "0x2e",
                            "code": "0x6000355415600957005b60203560003555",
                            "storage": {}
                        },
                        "0x5f2e55118b593a3a333e66574734e2abb49d0088": {
                            "nonce": "0x00",
                            "balance": "0x0de0b6b3a76586a0",
                            "code": "0x41424143445a42f35b10773574016c9f",
                            "storage": {}
                        }
                    }
                }
            ]
        },
        "config": {
            "blobSchedule": {
                "Cancun": {
                    "target": "0x03",
                    "max": "0x06",
                    "baseFeeUpdateFraction": "0x32f0ed"
                },
                "Prague": {
                    "target": "0x06",
                    "max": "0x09",
                    "baseFeeUpdateFraction": "0x4c6964"
                },
                "Osaka": {
                    "target": "0x06",
                    "max": "0x09",
                    "baseFeeUpdateFraction": "0x4c6964"
                }
            },
            "chainid": "0x01"
        },
        "_info": {
            "hash": "0xc05356050956cefc8af624b4c7326954c6e2c5465dde541dbe2ee12e68908e61",
            "comment": "`execution-spec-tests` generated test",
            "filling-transition-tool": "ethereum-spec-evm-resolver 0.0.5",
            "description": "No description available - add a docstring to the python test class or function.",
            "url": "",
            "fixture-format": "state_test",
            "eels-resolution": {
                "git-url": "https://github.com/marioevz/execution-specs.git",
                "branch": "forks/bpo1",
                "commit": "3387e5f4aedfe99becfdc39b444d6371e25e0924"
            }
        }
    },
    "tests/static/state_tests/stRandom/randomStatetest151Filler.json::randomStatetest151[fork_Prague-state_test-]": {
        "env": {
            "currentCoinbase": "0x5f2e55118b593a3a333e66574734e2abb49cff88",
            "currentGasLimit": "0x7fffffffffffffff",
            "currentNumber": "0x01",
            "currentTimestamp": "0x03e8",
            "currentRandom": "0x0000000000000000000000000000000000000000000000000000000000020000",
            "currentDifficulty": "0x00",
            "currentBaseFee": "0x0a",
            "currentExcessBlobGas": "0x00"
        },
        "pre": {
            "0x9c8b793bb05d025f63ad23d20d677d38f5dbc8fd": {
                "nonce": "0x00",
                "balance": "0x0de0b6b3a7640000",
                "code": "0x",
                "storage": {}
            },
            "0x5f2e55118b593a3a333e66574734e2abb49cff88": {
                "nonce": "0x00",
                "balance": "0x2e",
                "code": "0x6000355415600957005b60203560003555",
                "storage": {}
            },
            "0x5f2e55118b593a3a333e66574734e2abb49d0088": {
                "nonce": "0x00",
                "balance": "0x0de0b6b3a7640000",
                "code": "0x41424143445a42f35b10773574016c9f",
                "storage": {}
            }
        },
        "transaction": {
            "nonce": "0x00",
            "gasPrice": "0x0a",
            "gasLimit": [
                "0x061a80"
            ],
            "to": "0x5f2e55118b593a3a333e66574734e2abb49d0088",
            "value": [
                "0x0186a0"
            ],
            "data": [
                "0x42"
            ],
            "sender": "0x9c8b793bb05d025f63ad23d20d677d38f5dbc8fd",
            "secretKey": "0x55ea935215acfd07a54b27d85f2e55118b593a3a333e66574734e2abb49cff88"
        },
        "post": {
            "Prague": [
                {
                    "hash": "0x0106f33d4b216883609b4f8cf3f595236cd0ac50fc28e350c536898e1cd63eb3",
                    "logs": "0x1dcc4de8dec75d7aab85b567b6ccd41ad312451b948a7413f0a142fd40d49347",
                    "txbytes": "0xf863800a83061a80945f2e55118b593a3a333e66574734e2abb49d0088830186a04226a0d94b75d599988906471fe9e0c262f5263ab6f0ece1c8b2c3bbd8264d0dd258c5a002a95056199b0aac05cb8176e645636ce6d5d4aa5e523175f17efb91536a839f",
                    "indexes": {
                        "data": 0,
                        "gas": 0,
                        "value": 0
                    },
                    "state": {
                        "0x9c8b793bb05d025f63ad23d20d677d38f5dbc8fd": {
                            "nonce": "0x01",
                            "balance": "0x0de0b6b3a72fcda8",
                            "code": "0x",
                            "storage": {}
                        },
                        "0x5f2e55118b593a3a333e66574734e2abb49cff88": {
                            "nonce": "0x00",
                            "balance": "0x2e",
                            "code": "0x6000355415600957005b60203560003555",
                            "storage": {}
                        },
                        "0x5f2e55118b593a3a333e66574734e2abb49d0088": {
                            "nonce": "0x00",
                            "balance": "0x0de0b6b3a76586a0",
                            "code": "0x41424143445a42f35b10773574016c9f",
                            "storage": {}
                        }
                    }
                }
            ]
        },
        "config": {
            "blobSchedule": {
                "Cancun": {
                    "target": "0x03",
                    "max": "0x06",
                    "baseFeeUpdateFraction": "0x32f0ed"
                },
                "Prague": {
                    "target": "0x06",
                    "max": "0x09",
                    "baseFeeUpdateFraction": "0x4c6964"
                }
            },
            "chainid": "0x01"
        },
        "_info": {
            "hash": "0xebf9c0391fa5f51370e8ced0b281a8b03b7571eb2178f16e7b43c92ccd81f67d",
            "comment": "`execution-spec-tests` generated test",
            "filling-transition-tool": "ethereum-spec-evm-resolver 0.0.5",
            "description": "No description available - add a docstring to the python test class or function.",
            "url": "",
            "fixture-format": "state_test",
            "eels-resolution": {
                "git-url": "https://github.com/marioevz/execution-specs.git",
                "branch": "forks/bpo1",
                "commit": "3387e5f4aedfe99becfdc39b444d6371e25e0924"
            }
        }
    }
}