{
    "tests/static/state_tests/stRandom/randomStatetest77Filler.json::randomStatetest77[fork_Cancun-state_test-]": {
        "env": {
            "currentCoinbase": "0x1ccc4ab020e4e864db459d4f7e94d3b43c851fc0",
            "currentGasLimit": "0x7fffffffffffffff",
            "currentNumber": "0x01",
            "currentTimestamp": "0x03e8",
            "currentRandom": "0x0000000000000000000000000000000000000000000000000000000000020000",
            "currentDifficulty": "0x00",
            "currentBaseFee": "0x0a",
            "currentExcessBlobGas": "0x00"
        },
        "pre": {
            "0x21a9c47ee79fc4c8986c36a614e0ec5042045e52": {
                "nonce": "0x00",
                "balance": "0x0de0b6b3a7640000",
                "code": "0x",
                "storage": {}
            },
            "0x1ccc4ab020e4e864db459d4f7e94d3b43c851fc0": {
                "nonce": "0x00",
                "balance": "0x2e",
                "code": "0x6000355415600957005b60203560003555",
                "storage": {}
            },
            "0x1ccc4ab020e4e864db459d4f7e94d3b43c8520c0": {
                "nonce": "0x00",
                "balance": "0x00",
                "code": "0x7f00000000000000000000000000000000000000000000000000000000000000017f00000000000000000000000000000000000000000000000000000000000000017f00000000000000000000000000000000000000000000000000000000000000007f000000000000000000000000000000000000000000000000000000000000000141937f00000000000000000000000000000000000000000000000000000000000000007f00000000000000000000000100000000000000000000000000000000000000006f79a06df1a08d05373216d3721903415560005155",
                "storage": {}
            }
        },
        "transaction": {
            "nonce": "0x00",
            "gasPrice": "0x0a",
            "gasLimit": [
                "0x0186a0"
            ],
            "to": "0x1ccc4ab020e4e864db459d4f7e94d3b43c8520c0",
            "value": [
                "0x4a760cdb"
            ],
            "data": [
                "0x7f00000000000000000000000000000000000000000000000000000000000000017f00000000000000000000000000000000000000000000000000000000000000017f00000000000000000000000000000000000000000000000000000000000000007f000000000000000000000000000000000000000000000000000000000000000141937f00000000000000000000000000000000000000000000000000000000000000007f00000000000000000000000100000000000000000000000000000000000000006f79a06df1a08d05373216d372190341"
            ],
            "sender": "0x21a9c47ee79fc4c8986c36a614e0ec5042045e52",
            "secretKey": "0xe9a6e0c2c4d72020c9ec33c21ccc4ab020e4e864db459d4f7e94d3b43c851fc0"
        },
        "post": {
            "Cancun": [
                {
                    "hash": "0xc15038e7b66c6f08d0dca0f9024c985de34be7d9d5efca9a4518c71630ef08a1",
                    "logs": "0x1dcc4de8dec75d7aab85b567b6ccd41ad312451b948a7413f0a142fd40d49347",
                    "txbytes": "0xf9013d800a830186a0941ccc4ab020e4e864db459d4f7e94d3b43c8520c0844a760cdbb8d87f00000000000000000000000000000000000000000000000000000000000000017f00000000000000000000000000000000000000000000000000000000000000017f00000000000000000000000000000000000000000000000000000000000000007f000000000000000000000000000000000000000000000000000000000000000141937f00000000000000000000000000000000000000000000000000000000000000007f00000000000000000000000100000000000000000000000000000000000000006f79a06df1a08d05373216d37219034126a01fc2c1a0a4cd2b4d26dac4a82b3cb0c12b5f8e4e452ec48899027c988d2c674aa051e415669abc81834896d2fd5e63d4ddd90b85ad08556a778c00c442f84a3aa3",
                    "indexes": {
                        "data": 0,
                        "gas": 0,
                        "value": 0
                    },
                    "state": {
                        "0x21a9c47ee79fc4c8986c36a614e0ec5042045e52": {
                            "nonce": "0x01",
                            "balance": "0x0de0b6b35ce72f4f",
                            "code": "0x",
                            "storage": {}
                        },
                        "0x1ccc4ab020e4e864db459d4f7e94d3b43c851fc0": {
                            "nonce": "0x00",
                            "balance": "0x2e",
                            "code": "0x6000355415600957005b60203560003555",
                            "storage": {}
                        },
                        "0x1ccc4ab020e4e864db459d4f7e94d3b43c8520c0": {
                            "nonce": "0x00",
                            "balance": "0x4a760cdb",
                            "code": "0x7f00000000000000000000000000000000000000000000000000000000000000017f00000000000000000000000000000000000000000000000000000000000000017f00000000000000000000000000000000000000000000000000000000000000007f000000000000000000000000000000000000000000000000000000000000000141937f00000000000000000000000000000000000000000000000000000000000000007f00000000000000000000000100000000000000000000000000000000000000006f79a06df1a08d05373216d3721903415560005155",
                            "storage": {
                                "0x00": "0x79a06df1a08d05373216d37219034155"
                            }
                        }
                    }
                }
            ]
        },
        "config": {
            "blobSchedule": {
                "Cancun": {
                    "target": "0x03",
                    "max": "0x06",
                    "baseFeeUpdateFraction": "0x32f0ed"
                }
            },
            "chainid": "0x01"
        },
        "_info": {
            "hash": "0x1c72c4413c6634ac9c634e924846ba2c090553462a18fa983383f2d1559e02c5",
            "comment": "`execution-spec-tests` generated test",
            "filling-transition-tool": "ethereum-spec-evm-resolver 0.0.5",
            "description": "No description available - add a docstring to the python test class or function.",
            "url": "",
            "fixture-format": "state_test",
            "eels-resolution": {
                "git-url": "https://github.com/ethereum/execution-specs.git",
                "branch": "forks/bpos",
                "commit": "7aacb2c54111391af5e98c505d5010b5698a770f"
            }
        }
    },
    "tests/static/state_tests/stRandom/randomStatetest77Filler.json::randomStatetest77[fork_Osaka-state_test-]": {
        "env": {
            "currentCoinbase": "0x1ccc4ab020e4e864db459d4f7e94d3b43c851fc0",
            "currentGasLimit": "0x7fffffffffffffff",
            "currentNumber": "0x01",
            "currentTimestamp": "0x03e8",
            "currentRandom": "0x0000000000000000000000000000000000000000000000000000000000020000",
            "currentDifficulty": "0x00",
            "currentBaseFee": "0x0a",
            "currentExcessBlobGas": "0x00"
        },
        "pre": {
            "0x21a9c47ee79fc4c8986c36a614e0ec5042045e52": {
                "nonce": "0x00",
                "balance": "0x0de0b6b3a7640000",
                "code": "0x",
                "storage": {}
            },
            "0x1ccc4ab020e4e864db459d4f7e94d3b43c851fc0": {
                "nonce": "0x00",
                "balance": "0x2e",
                "code": "0x6000355415600957005b60203560003555",
                "storage": {}
            },
            "0x1ccc4ab020e4e864db459d4f7e94d3b43c8520c0": {
                "nonce": "0x00",
                "balance": "0x00",
                "code": "0x7f00000000000000000000000000000000000000000000000000000000000000017f00000000000000000000000000000000000000000000000000000000000000017f00000000000000000000000000000000000000000000000000000000000000007f000000000000000000000000000000000000000000000000000000000000000141937f00000000000000000000000000000000000000000000000000000000000000007f00000000000000000000000100000000000000000000000000000000000000006f79a06df1a08d05373216d3721903415560005155",
                "storage": {}
            }
        },
        "transaction": {
            "nonce": "0x00",
            "gasPrice": "0x0a",
            "gasLimit": [
                "0x0186a0"
            ],
            "to": "0x1ccc4ab020e4e864db459d4f7e94d3b43c8520c0",
            "value": [
                "0x4a760cdb"
            ],
            "data": [
                "0x7f00000000000000000000000000000000000000000000000000000000000000017f00000000000000000000000000000000000000000000000000000000000000017f00000000000000000000000000000000000000000000000000000000000000007f000000000000000000000000000000000000000000000000000000000000000141937f00000000000000000000000000000000000000000000000000000000000000007f00000000000000000000000100000000000000000000000000000000000000006f79a06df1a08d05373216d372190341"
            ],
            "sender": "0x21a9c47ee79fc4c8986c36a614e0ec5042045e52",
            "secretKey": "0xe9a6e0c2c4d72020c9ec33c21ccc4ab020e4e864db459d4f7e94d3b43c851fc0"
        },
        "post": {
            "Osaka": [
                {
                    "hash": "0xc15038e7b66c6f08d0dca0f9024c985de34be7d9d5efca9a4518c71630ef08a1",
                    "logs": "0x1dcc4de8dec75d7aab85b567b6ccd41ad312451b948a7413f0a142fd40d49347",
                    "txbytes": "0xf9013d800a830186a0941ccc4ab020e4e864db459d4f7e94d3b43c8520c0844a760cdbb8d87f00000000000000000000000000000000000000000000000000000000000000017f00000000000000000000000000000000000000000000000000000000000000017f00000000000000000000000000000000000000000000000000000000000000007f000000000000000000000000000000000000000000000000000000000000000141937f00000000000000000000000000000000000000000000000000000000000000007f00000000000000000000000100000000000000000000000000000000000000006f79a06df1a08d05373216d37219034126a01fc2c1a0a4cd2b4d26dac4a82b3cb0c12b5f8e4e452ec48899027c988d2c674aa051e415669abc81834896d2fd5e63d4ddd90b85ad08556a778c00c442f84a3aa3",
                    "indexes": {
                        "data": 0,
                        "gas": 0,
                        "value": 0
                    },
                    "state": {
                        "0x21a9c47ee79fc4c8986c36a614e0ec5042045e52": {
                            "nonce": "0x01",
                            "balance": "0x0de0b6b35ce72f4f",
                            "code": "0x",
                            "storage": {}
                        },
                        "0x1ccc4ab020e4e864db459d4f7e94d3b43c851fc0": {
                            "nonce": "0x00",
                            "balance": "0x2e",
                            "code": "0x6000355415600957005b60203560003555",
                            "storage": {}
                        },
                        "0x1ccc4ab020e4e864db459d4f7e94d3b43c8520c0": {
                            "nonce": "0x00",
                            "balance": "0x4a760cdb",
                            "code": "0x7f00000000000000000000000000000000000000000000000000000000000000017f00000000000000000000000000000000000000000000000000000000000000017f00000000000000000000000000000000000000000000000000000000000000007f000000000000000000000000000000000000000000000000000000000000000141937f00000000000000000000000000000000000000000000000000000000000000007f00000000000000000000000100000000000000000000000000000000000000006f79a06df1a08d05373216d3721903415560005155",
                            "storage": {
                                "0x00": "0x79a06df1a08d05373216d37219034155"
                            }
                        }
                    }
                }
            ]
        },
        "config": {
            "blobSchedule": {
                "Cancun": {
                    "target": "0x03",
                    "max": "0x06",
                    "baseFeeUpdateFraction": "0x32f0ed"
                },
                "Prague": {
                    "target": "0x06",
                    "max": "0x09",
                    "baseFeeUpdateFraction": "0x4c6964"
                },
                "Osaka": {
                    "target": "0x06",
                    "max": "0x09",
                    "baseFeeUpdateFraction": "0x4c6964"
                }
            },
            "chainid": "0x01"
        },
        "_info": {
            "hash": "0x4f63069a140606326cb33884c817d9eaabb57136880962884363576ebbaef2b0",
            "comment": "`execution-spec-tests` generated test",
            "filling-transition-tool": "ethereum-spec-evm-resolver 0.0.5",
            "description": "No description available - add a docstring to the python test class or function.",
            "url": "",
            "fixture-format": "state_test",
            "eels-resolution": {
                "git-url": "https://github.com/ethereum/execution-specs.git",
                "branch": "forks/bpos",
                "commit": "7aacb2c54111391af5e98c505d5010b5698a770f"
            }
        }
    },
    "tests/static/state_tests/stRandom/randomStatetest77Filler.json::randomStatetest77[fork_Prague-state_test-]": {
        "env": {
            "currentCoinbase": "0x1ccc4ab020e4e864db459d4f7e94d3b43c851fc0",
            "currentGasLimit": "0x7fffffffffffffff",
            "currentNumber": "0x01",
            "currentTimestamp": "0x03e8",
            "currentRandom": "0x0000000000000000000000000000000000000000000000000000000000020000",
            "currentDifficulty": "0x00",
            "currentBaseFee": "0x0a",
            "currentExcessBlobGas": "0x00"
        },
        "pre": {
            "0x21a9c47ee79fc4c8986c36a614e0ec5042045e52": {
                "nonce": "0x00",
                "balance": "0x0de0b6b3a7640000",
                "code": "0x",
                "storage": {}
            },
            "0x1ccc4ab020e4e864db459d4f7e94d3b43c851fc0": {
                "nonce": "0x00",
                "balance": "0x2e",
                "code": "0x6000355415600957005b60203560003555",
                "storage": {}
            },
            "0x1ccc4ab020e4e864db459d4f7e94d3b43c8520c0": {
                "nonce": "0x00",
                "balance": "0x00",
                "code": "0x7f00000000000000000000000000000000000000000000000000000000000000017f00000000000000000000000000000000000000000000000000000000000000017f00000000000000000000000000000000000000000000000000000000000000007f000000000000000000000000000000000000000000000000000000000000000141937f00000000000000000000000000000000000000000000000000000000000000007f00000000000000000000000100000000000000000000000000000000000000006f79a06df1a08d05373216d3721903415560005155",
                "storage": {}
            }
        },
        "transaction": {
            "nonce": "0x00",
            "gasPrice": "0x0a",
            "gasLimit": [
                "0x0186a0"
            ],
            "to": "0x1ccc4ab020e4e864db459d4f7e94d3b43c8520c0",
            "value": [
                "0x4a760cdb"
            ],
            "data": [
                "0x7f00000000000000000000000000000000000000000000000000000000000000017f00000000000000000000000000000000000000000000000000000000000000017f00000000000000000000000000000000000000000000000000000000000000007f000000000000000000000000000000000000000000000000000000000000000141937f00000000000000000000000000000000000000000000000000000000000000007f00000000000000000000000100000000000000000000000000000000000000006f79a06df1a08d05373216d372190341"
            ],
            "sender": "0x21a9c47ee79fc4c8986c36a614e0ec5042045e52",
            "secretKey": "0xe9a6e0c2c4d72020c9ec33c21ccc4ab020e4e864db459d4f7e94d3b43c851fc0"
        },
        "post": {
            "Prague": [
                {
                    "hash": "0xc15038e7b66c6f08d0dca0f9024c985de34be7d9d5efca9a4518c71630ef08a1",
                    "logs": "0x1dcc4de8dec75d7aab85b567b6ccd41ad312451b948a7413f0a142fd40d49347",
                    "txbytes": "0xf9013d800a830186a0941ccc4ab020e4e864db459d4f7e94d3b43c8520c0844a760cdbb8d87f00000000000000000000000000000000000000000000000000000000000000017f00000000000000000000000000000000000000000000000000000000000000017f00000000000000000000000000000000000000000000000000000000000000007f000000000000000000000000000000000000000000000000000000000000000141937f00000000000000000000000000000000000000000000000000000000000000007f00000000000000000000000100000000000000000000000000000000000000006f79a06df1a08d05373216d37219034126a01fc2c1a0a4cd2b4d26dac4a82b3cb0c12b5f8e4e452ec48899027c988d2c674aa051e415669abc81834896d2fd5e63d4ddd90b85ad08556a778c00c442f84a3aa3",
                    "indexes": {
                        "data": 0,
                        "gas": 0,
                        "value": 0
                    },
                    "state": {
                        "0x21a9c47ee79fc4c8986c36a614e0ec5042045e52": {
                            "nonce": "0x01",
                            "balance": "0x0de0b6b35ce72f4f",
                            "code": "0x",
                            "storage": {}
                        },
                        "0x1ccc4ab020e4e864db459d4f7e94d3b43c851fc0": {
                            "nonce": "0x00",
                            "balance": "0x2e",
                            "code": "0x6000355415600957005b60203560003555",
                            "storage": {}
                        },
                        "0x1ccc4ab020e4e864db459d4f7e94d3b43c8520c0": {
                            "nonce": "0x00",
                            "balance": "0x4a760cdb",
                            "code": "0x7f00000000000000000000000000000000000000000000000000000000000000017f00000000000000000000000000000000000000000000000000000000000000017f00000000000000000000000000000000000000000000000000000000000000007f000000000000000000000000000000000000000000000000000000000000000141937f00000000000000000000000000000000000000000000000000000000000000007f00000000000000000000000100000000000000000000000000000000000000006f79a06df1a08d05373216d3721903415560005155",
                            "storage": {
                                "0x00": "0x79a06df1a08d05373216d37219034155"
                            }
                        }
                    }
                }
            ]
        },
        "config": {
            "blobSchedule": {
                "Cancun": {
                    "target": "0x03",
                    "max": "0x06",
                    "baseFeeUpdateFraction": "0x32f0ed"
                },
                "Prague": {
                    "target": "0x06",
                    "max": "0x09",
                    "baseFeeUpdateFraction": "0x4c6964"
                }
            },
            "chainid": "0x01"
        },
        "_info": {
            "hash": "0x574facf17a8acb5280f26479825603277063435cefe60c624f2057b08ae51aea",
            "comment": "`execution-spec-tests` generated test",
            "filling-transition-tool": "ethereum-spec-evm-resolver 0.0.5",
            "description": "No description available - add a docstring to the python test class or function.",
            "url": "",
            "fixture-format": "state_test",
            "eels-resolution": {
                "git-url": "https://github.com/ethereum/execution-specs.git",
                "branch": "forks/bpos",
                "commit": "7aacb2c54111391af5e98c505d5010b5698a770f"
            }
        }
    }
}