{
    "tests/static/state_tests/stRandom/randomStatetest110Filler.json::randomStatetest110[fork_Cancun-state_test-]": {
        "env": {
            "currentCoinbase": "0x288d777f7c9009f9177b5255d6eaf11587b5825d",
            "currentGasLimit": "0x7fffffffffffffff",
            "currentNumber": "0x01",
            "currentTimestamp": "0x03e8",
            "currentRandom": "0x0000000000000000000000000000000000000000000000000000000000020000",
            "currentDifficulty": "0x00",
            "currentBaseFee": "0x0a",
            "currentExcessBlobGas": "0x00"
        },
        "pre": {
            "0x35c740e7bf229628b71f56b9832a771c617ad072": {
                "nonce": "0x00",
                "balance": "0x0de0b6b3a7640000",
                "code": "0x",
                "storage": {}
            },
            "0x288d777f7c9009f9177b5255d6eaf11587b5825d": {
                "nonce": "0x00",
                "balance": "0x2e",
                "code": "0x6000355415600957005b60203560003555",
                "storage": {}
            },
            "0x288d777f7c9009f9177b5255d6eaf11587b5835d": {
                "nonce": "0x00",
                "balance": "0x00",
                "code": "0x7f00000000000000000000000000000000000000000000000000000000000000017f00000000000000000000000000000000000000000000000000000000000000007f00000000000000000000000000000000000000000000000000000000000000007f00000000000000000000000000000000000000000000000000000000000000007ffffffffffffffffffffffffffffffffffffffffffffffffffffffffffffffffe7ffffffffffffffffffffffffffffffffffffffffffffffffffffffffffffffffe417f00000000000000000000000000000000000000000000000000000000000000016f97543c343476cb7c8c84066217f1025560005155",
                "storage": {}
            }
        },
        "transaction": {
            "nonce": "0x00",
            "gasPrice": "0x0a",
            "gasLimit": [
                "0x0186a0"
            ],
            "to": "0x288d777f7c9009f9177b5255d6eaf11587b5835d",
            "value": [
                "0x2beb343b"
            ],
            "data": [
                "0x7f00000000000000000000000000000000000000000000000000000000000000017f00000000000000000000000000000000000000000000000000000000000000007f00000000000000000000000000000000000000000000000000000000000000007f00000000000000000000000000000000000000000000000000000000000000007ffffffffffffffffffffffffffffffffffffffffffffffffffffffffffffffffe7ffffffffffffffffffffffffffffffffffffffffffffffffffffffffffffffffe417f00000000000000000000000000000000000000000000000000000000000000016f97543c343476cb7c8c84066217f102"
            ],
            "sender": "0x35c740e7bf229628b71f56b9832a771c617ad072",
            "secretKey": "0xad3bce2c450559cdc1c237b3288d777f7c9009f9177b5255d6eaf11587b5825d"
        },
        "post": {
            "Cancun": [
                {
                    "hash": "0x106189474299d90d493a281bdd1f05aa54a866b3694a65975ac6e3e19d4f078c",
                    "logs": "0x1dcc4de8dec75d7aab85b567b6ccd41ad312451b948a7413f0a142fd40d49347",
                    "txbytes": "0xf9015d800a830186a094288d777f7c9009f9177b5255d6eaf11587b5835d842beb343bb8f87f00000000000000000000000000000000000000000000000000000000000000017f00000000000000000000000000000000000000000000000000000000000000007f00000000000000000000000000000000000000000000000000000000000000007f00000000000000000000000000000000000000000000000000000000000000007ffffffffffffffffffffffffffffffffffffffffffffffffffffffffffffffffe7ffffffffffffffffffffffffffffffffffffffffffffffffffffffffffffffffe417f00000000000000000000000000000000000000000000000000000000000000016f97543c343476cb7c8c84066217f10225a031c4c60c15ed532a539c1bcd035472db0d910e289fcf98280909cd0c85a57d27a012b12f9768fb075d81d322d9f2c605c51bd212a633a839347970adf3f9c59f59",
                    "indexes": {
                        "data": 0,
                        "gas": 0,
                        "value": 0
                    },
                    "state": {
                        "0x35c740e7bf229628b71f56b9832a771c617ad072": {
                            "nonce": "0x01",
                            "balance": "0x0de0b6b37b71e5df",
                            "code": "0x",
                            "storage": {}
                        },
                        "0x288d777f7c9009f9177b5255d6eaf11587b5825d": {
                            "nonce": "0x00",
                            "balance": "0x2e",
                            "code": "0x6000355415600957005b60203560003555",
                            "storage": {}
                        },
                        "0x288d777f7c9009f9177b5255d6eaf11587b5835d": {
                            "nonce": "0x00",
                            "balance": "0x2beb343b",
                            "code": "0x7f00000000000000000000000000000000000000000000000000000000000000017f00000000000000000000000000000000000000000000000000000000000000007f00000000000000000000000000000000000000000000000000000000000000007f00000000000000000000000000000000000000000000000000000000000000007ffffffffffffffffffffffffffffffffffffffffffffffffffffffffffffffffe7ffffffffffffffffffffffffffffffffffffffffffffffffffffffffffffffffe417f00000000000000000000000000000000000000000000000000000000000000016f97543c343476cb7c8c84066217f1025560005155",
                            "storage": {
                                "0x00": "0x97543c343476cb7c8c84066217f10255"
                            }
                        }
                    }
                }
            ]
        },
        "config": {
            "blobSchedule": {
                "Cancun": {
                    "target": "0x03",
                    "max": "0x06",
                    "baseFeeUpdateFraction": "0x32f0ed"
                }
            },
            "chainid": "0x01"
        },
        "_info": {
            "hash": "0xf1607f42ab1ddcaebdb25cbe07afcaa633d31b0511ea148d745e79dad82a16d1",
            "comment": "`execution-specs` generated test",
            "filling-transition-tool": "2.18.0rc6",
            "description": "No description available - add a docstring to the python test class or function.",
            "url": "",
            "fixture-format": "state_test"
        }
    },
    "tests/static/state_tests/stRandom/randomStatetest110Filler.json::randomStatetest110[fork_Osaka-state_test-]": {
        "env": {
            "currentCoinbase": "0x288d777f7c9009f9177b5255d6eaf11587b5825d",
            "currentGasLimit": "0x7fffffffffffffff",
            "currentNumber": "0x01",
            "currentTimestamp": "0x03e8",
            "currentRandom": "0x0000000000000000000000000000000000000000000000000000000000020000",
            "currentDifficulty": "0x00",
            "currentBaseFee": "0x0a",
            "currentExcessBlobGas": "0x00"
        },
        "pre": {
            "0x35c740e7bf229628b71f56b9832a771c617ad072": {
                "nonce": "0x00",
                "balance": "0x0de0b6b3a7640000",
                "code": "0x",
                "storage": {}
            },
            "0x288d777f7c9009f9177b5255d6eaf11587b5825d": {
                "nonce": "0x00",
                "balance": "0x2e",
                "code": "0x6000355415600957005b60203560003555",
                "storage": {}
            },
            "0x288d777f7c9009f9177b5255d6eaf11587b5835d": {
                "nonce": "0x00",
                "balance": "0x00",
                "code": "0x7f00000000000000000000000000000000000000000000000000000000000000017f00000000000000000000000000000000000000000000000000000000000000007f00000000000000000000000000000000000000000000000000000000000000007f00000000000000000000000000000000000000000000000000000000000000007ffffffffffffffffffffffffffffffffffffffffffffffffffffffffffffffffe7ffffffffffffffffffffffffffffffffffffffffffffffffffffffffffffffffe417f00000000000000000000000000000000000000000000000000000000000000016f97543c343476cb7c8c84066217f1025560005155",
                "storage": {}
            }
        },
        "transaction": {
            "nonce": "0x00",
            "gasPrice": "0x0a",
            "gasLimit": [
                "0x0186a0"
            ],
            "to": "0x288d777f7c9009f9177b5255d6eaf11587b5835d",
            "value": [
                "0x2beb343b"
            ],
            "data": [
                "0x7f00000000000000000000000000000000000000000000000000000000000000017f00000000000000000000000000000000000000000000000000000000000000007f00000000000000000000000000000000000000000000000000000000000000007f00000000000000000000000000000000000000000000000000000000000000007ffffffffffffffffffffffffffffffffffffffffffffffffffffffffffffffffe7ffffffffffffffffffffffffffffffffffffffffffffffffffffffffffffffffe417f00000000000000000000000000000000000000000000000000000000000000016f97543c343476cb7c8c84066217f102"
            ],
            "sender": "0x35c740e7bf229628b71f56b9832a771c617ad072",
            "secretKey": "0xad3bce2c450559cdc1c237b3288d777f7c9009f9177b5255d6eaf11587b5825d"
        },
        "post": {
            "Osaka": [
                {
                    "hash": "0x106189474299d90d493a281bdd1f05aa54a866b3694a65975ac6e3e19d4f078c",
                    "logs": "0x1dcc4de8dec75d7aab85b567b6ccd41ad312451b948a7413f0a142fd40d49347",
                    "txbytes": "0xf9015d800a830186a094288d777f7c9009f9177b5255d6eaf11587b5835d842beb343bb8f87f00000000000000000000000000000000000000000000000000000000000000017f00000000000000000000000000000000000000000000000000000000000000007f00000000000000000000000000000000000000000000000000000000000000007f00000000000000000000000000000000000000000000000000000000000000007ffffffffffffffffffffffffffffffffffffffffffffffffffffffffffffffffe7ffffffffffffffffffffffffffffffffffffffffffffffffffffffffffffffffe417f00000000000000000000000000000000000000000000000000000000000000016f97543c343476cb7c8c84066217f10225a031c4c60c15ed532a539c1bcd035472db0d910e289fcf98280909cd0c85a57d27a012b12f9768fb075d81d322d9f2c605c51bd212a633a839347970adf3f9c59f59",
                    "indexes": {
                        "data": 0,
                        "gas": 0,
                        "value": 0
                    },
                    "state": {
                        "0x35c740e7bf229628b71f56b9832a771c617ad072": {
                            "nonce": "0x01",
                            "balance": "0x0de0b6b37b71e5df",
                            "code": "0x",
                            "storage": {}
                        },
                        "0x288d777f7c9009f9177b5255d6eaf11587b5825d": {
                            "nonce": "0x00",
                            "balance": "0x2e",
                            "code": "0x6000355415600957005b60203560003555",
                            "storage": {}
                        },
                        "0x288d777f7c9009f9177b5255d6eaf11587b5835d": {
                            "nonce": "0x00",
                            "balance": "0x2beb343b",
                            "code": "0x7f00000000000000000000000000000000000000000000000000000000000000017f00000000000000000000000000000000000000000000000000000000000000007f00000000000000000000000000000000000000000000000000000000000000007f00000000000000000000000000000000000000000000000000000000000000007ffffffffffffffffffffffffffffffffffffffffffffffffffffffffffffffffe7ffffffffffffffffffffffffffffffffffffffffffffffffffffffffffffffffe417f00000000000000000000000000000000000000000000000000000000000000016f97543c343476cb7c8c84066217f1025560005155",
                            "storage": {
                                "0x00": "0x97543c343476cb7c8c84066217f10255"
                            }
                        }
                    }
                }
            ]
        },
        "config": {
            "blobSchedule": {
                "Cancun": {
                    "target": "0x03",
                    "max": "0x06",
                    "baseFeeUpdateFraction": "0x32f0ed"
                },
                "Prague": {
                    "target": "0x06",
                    "max": "0x09",
                    "baseFeeUpdateFraction": "0x4c6964"
                },
                "Osaka": {
                    "target": "0x06",
                    "max": "0x09",
                    "baseFeeUpdateFraction": "0x4c6964"
                }
            },
            "chainid": "0x01"
        },
        "_info": {
            "hash": "0x553ad4b3b60c29b62ac29aa84321acadd4f6f29952baf9c8a96db57d195a777f",
            "comment": "`execution-specs` generated test",
            "filling-transition-tool": "2.18.0rc6",
            "description": "No description available - add a docstring to the python test class or function.",
            "url": "",
            "fixture-format": "state_test"
        }
    },
    "tests/static/state_tests/stRandom/randomStatetest110Filler.json::randomStatetest110[fork_Prague-state_test-]": {
        "env": {
            "currentCoinbase": "0x288d777f7c9009f9177b5255d6eaf11587b5825d",
            "currentGasLimit": "0x7fffffffffffffff",
            "currentNumber": "0x01",
            "currentTimestamp": "0x03e8",
            "currentRandom": "0x0000000000000000000000000000000000000000000000000000000000020000",
            "currentDifficulty": "0x00",
            "currentBaseFee": "0x0a",
            "currentExcessBlobGas": "0x00"
        },
        "pre": {
            "0x35c740e7bf229628b71f56b9832a771c617ad072": {
                "nonce": "0x00",
                "balance": "0x0de0b6b3a7640000",
                "code": "0x",
                "storage": {}
            },
            "0x288d777f7c9009f9177b5255d6eaf11587b5825d": {
                "nonce": "0x00",
                "balance": "0x2e",
                "code": "0x6000355415600957005b60203560003555",
                "storage": {}
            },
            "0x288d777f7c9009f9177b5255d6eaf11587b5835d": {
                "nonce": "0x00",
                "balance": "0x00",
                "code": "0x7f00000000000000000000000000000000000000000000000000000000000000017f00000000000000000000000000000000000000000000000000000000000000007f00000000000000000000000000000000000000000000000000000000000000007f00000000000000000000000000000000000000000000000000000000000000007ffffffffffffffffffffffffffffffffffffffffffffffffffffffffffffffffe7ffffffffffffffffffffffffffffffffffffffffffffffffffffffffffffffffe417f00000000000000000000000000000000000000000000000000000000000000016f97543c343476cb7c8c84066217f1025560005155",
                "storage": {}
            }
        },
        "transaction": {
            "nonce": "0x00",
            "gasPrice": "0x0a",
            "gasLimit": [
                "0x0186a0"
            ],
            "to": "0x288d777f7c9009f9177b5255d6eaf11587b5835d",
            "value": [
                "0x2beb343b"
            ],
            "data": [
                "0x7f00000000000000000000000000000000000000000000000000000000000000017f00000000000000000000000000000000000000000000000000000000000000007f00000000000000000000000000000000000000000000000000000000000000007f00000000000000000000000000000000000000000000000000000000000000007ffffffffffffffffffffffffffffffffffffffffffffffffffffffffffffffffe7ffffffffffffffffffffffffffffffffffffffffffffffffffffffffffffffffe417f00000000000000000000000000000000000000000000000000000000000000016f97543c343476cb7c8c84066217f102"
            ],
            "sender": "0x35c740e7bf229628b71f56b9832a771c617ad072",
            "secretKey": "0xad3bce2c450559cdc1c237b3288d777f7c9009f9177b5255d6eaf11587b5825d"
        },
        "post": {
            "Prague": [
                {
                    "hash": "0x106189474299d90d493a281bdd1f05aa54a866b3694a65975ac6e3e19d4f078c",
                    "logs": "0x1dcc4de8dec75d7aab85b567b6ccd41ad312451b948a7413f0a142fd40d49347",
                    "txbytes": "0xf9015d800a830186a094288d777f7c9009f9177b5255d6eaf11587b5835d842beb343bb8f87f00000000000000000000000000000000000000000000000000000000000000017f00000000000000000000000000000000000000000000000000000000000000007f00000000000000000000000000000000000000000000000000000000000000007f00000000000000000000000000000000000000000000000000000000000000007ffffffffffffffffffffffffffffffffffffffffffffffffffffffffffffffffe7ffffffffffffffffffffffffffffffffffffffffffffffffffffffffffffffffe417f00000000000000000000000000000000000000000000000000000000000000016f97543c343476cb7c8c84066217f10225a031c4c60c15ed532a539c1bcd035472db0d910e289fcf98280909cd0c85a57d27a012b12f9768fb075d81d322d9f2c605c51bd212a633a839347970adf3f9c59f59",
                    "indexes": {
                        "data": 0,
                        "gas": 0,
                        "value": 0
                    },
                    "state": {
                        "0x35c740e7bf229628b71f56b9832a771c617ad072": {
                            "nonce": "0x01",
                            "balance": "0x0de0b6b37b71e5df",
                            "code": "0x",
                            "storage": {}
                        },
                        "0x288d777f7c9009f9177b5255d6eaf11587b5825d": {
                            "nonce": "0x00",
                            "balance": "0x2e",
                            "code": "0x6000355415600957005b60203560003555",
                            "storage": {}
                        },
                        "0x288d777f7c9009f9177b5255d6eaf11587b5835d": {
                            "nonce": "0x00",
                            "balance": "0x2beb343b",
                            "code": "0x7f00000000000000000000000000000000000000000000000000000000000000017f00000000000000000000000000000000000000000000000000000000000000007f00000000000000000000000000000000000000000000000000000000000000007f00000000000000000000000000000000000000000000000000000000000000007ffffffffffffffffffffffffffffffffffffffffffffffffffffffffffffffffe7ffffffffffffffffffffffffffffffffffffffffffffffffffffffffffffffffe417f00000000000000000000000000000000000000000000000000000000000000016f97543c343476cb7c8c84066217f1025560005155",
                            "storage": {
                                "0x00": "0x97543c343476cb7c8c84066217f10255"
                            }
                        }
                    }
                }
            ]
        },
        "config": {
            "blobSchedule": {
                "Cancun": {
                    "target": "0x03",
                    "max": "0x06",
                    "baseFeeUpdateFraction": "0x32f0ed"
                },
                "Prague": {
                    "target": "0x06",
                    "max": "0x09",
                    "baseFeeUpdateFraction": "0x4c6964"
                }
            },
            "chainid": "0x01"
        },
        "_info": {
            "hash": "0xb45c046b1b65abfce426d5a6085960f976a41005e3751060152b57a147338096",
            "comment": "`execution-specs` generated test",
            "filling-transition-tool": "2.18.0rc6",
            "description": "No description available - add a docstring to the python test class or function.",
            "url": "",
            "fixture-format": "state_test"
        }
    }
}