{
    "tests/static/state_tests/stRandom/randomStatetest13Filler.json::randomStatetest13[fork_Cancun-state_test-]": {
        "env": {
            "currentCoinbase": "0x589e594629b10eddcde3b3b7eeb6ecf4f92d8097",
            "currentGasLimit": "0x7fffffffffffffff",
            "currentNumber": "0x01",
            "currentTimestamp": "0x03e8",
            "currentRandom": "0x0000000000000000000000000000000000000000000000000000000000020000",
            "currentDifficulty": "0x00",
            "currentBaseFee": "0x0a",
            "currentExcessBlobGas": "0x00"
        },
        "pre": {
            "0x2884c2cbfb2b0b29f80ac7072c1636dbb9199584": {
                "nonce": "0x00",
                "balance": "0x0de0b6b3a7640000",
                "code": "0x",
                "storage": {}
            },
            "0x589e594629b10eddcde3b3b7eeb6ecf4f92d8097": {
                "nonce": "0x00",
                "balance": "0x2e",
                "code": "0x6000355415600957005b60203560003555",
                "storage": {}
            },
            "0x589e594629b10eddcde3b3b7eeb6ecf4f92d8197": {
                "nonce": "0x00",
                "balance": "0x00",
                "code": "0x7f000000000000000000000000589e594629b10eddcde3b3b7eeb6ecf4f92d80977fffffffffffffffffffffffffffffffffffffffffffffffffffffffffffffffff7f0000000000000000000000000000000000000000000000000000000000000000027ffffffffffffffffffffffffffffffffffffffffffffffffffffffffffffffffe307f00000000000000000000000100000000000000000000000000000000000000007f00000000000000000000000100000000000000000000000000000000000000005255",
                "storage": {}
            }
        },
        "transaction": {
            "nonce": "0x00",
            "gasPrice": "0x0a",
            "gasLimit": [
                "0x0186a0"
            ],
            "to": "0x589e594629b10eddcde3b3b7eeb6ecf4f92d8197",
            "value": [
                "0x37d68e6c"
            ],
            "data": [
                "0x7f000000000000000000000000589e594629b10eddcde3b3b7eeb6ecf4f92d80977fffffffffffffffffffffffffffffffffffffffffffffffffffffffffffffffff7f0000000000000000000000000000000000000000000000000000000000000000027ffffffffffffffffffffffffffffffffffffffffffffffffffffffffffffffffe307f00000000000000000000000100000000000000000000000000000000000000007f000000000000000000000001000000000000000000000000000000000000000052"
            ],
            "sender": "0x2884c2cbfb2b0b29f80ac7072c1636dbb9199584",
            "secretKey": "0x416da5968e90a6d4dbf40b9e589e594629b10eddcde3b3b7eeb6ecf4f92d8097"
        },
        "post": {
            "Cancun": [
                {
                    "hash": "0x2c05106b9d5828a0f0c266815ef3818e4f30c7ce526411ce862936367cbf9922",
                    "logs": "0x1dcc4de8dec75d7aab85b567b6ccd41ad312451b948a7413f0a142fd40d49347",
                    "txbytes": "0xf9012e800a830186a094589e594629b10eddcde3b3b7eeb6ecf4f92d81978437d68e6cb8c97f000000000000000000000000589e594629b10eddcde3b3b7eeb6ecf4f92d80977fffffffffffffffffffffffffffffffffffffffffffffffffffffffffffffffff7f0000000000000000000000000000000000000000000000000000000000000000027ffffffffffffffffffffffffffffffffffffffffffffffffffffffffffffffffe307f00000000000000000000000100000000000000000000000000000000000000007f00000000000000000000000100000000000000000000000000000000000000005225a0f77d9f8563fea3acc7a44005f5ddf1b35c110824f45e4b903789df5d08e16ea9a04cd3991ddc0c2dad95995c8bc857f8c2c8464197c345360b55a890de7f847b3c",
                    "indexes": {
                        "data": 0,
                        "gas": 0,
                        "value": 0
                    },
                    "state": {
                        "0x2884c2cbfb2b0b29f80ac7072c1636dbb9199584": {
                            "nonce": "0x01",
                            "balance": "0x0de0b6b3a754bdc0",
                            "code": "0x",
                            "storage": {}
                        },
                        "0x589e594629b10eddcde3b3b7eeb6ecf4f92d8097": {
                            "nonce": "0x00",
                            "balance": "0x2e",
                            "code": "0x6000355415600957005b60203560003555",
                            "storage": {}
                        },
                        "0x589e594629b10eddcde3b3b7eeb6ecf4f92d8197": {
                            "nonce": "0x00",
                            "balance": "0x00",
                            "code": "0x7f000000000000000000000000589e594629b10eddcde3b3b7eeb6ecf4f92d80977fffffffffffffffffffffffffffffffffffffffffffffffffffffffffffffffff7f0000000000000000000000000000000000000000000000000000000000000000027ffffffffffffffffffffffffffffffffffffffffffffffffffffffffffffffffe307f00000000000000000000000100000000000000000000000000000000000000007f00000000000000000000000100000000000000000000000000000000000000005255",
                            "storage": {}
                        }
                    }
                }
            ]
        },
        "config": {
            "blobSchedule": {
                "Cancun": {
                    "target": "0x03",
                    "max": "0x06",
                    "baseFeeUpdateFraction": "0x32f0ed"
                }
            },
            "chainid": "0x01"
        },
        "_info": {
            "hash": "0x31b0b43387737df928de953b2a3899b2e7601a9b625d1326dac66818c5e5375c",
            "comment": "`execution-specs` generated test",
            "filling-transition-tool": "2.18.0rc6",
            "description": "No description available - add a docstring to the python test class or function.",
            "url": "",
            "fixture-format": "state_test"
        }
    },
    "tests/static/state_tests/stRandom/randomStatetest13Filler.json::randomStatetest13[fork_Osaka-state_test-]": {
        "env": {
            "currentCoinbase": "0x589e594629b10eddcde3b3b7eeb6ecf4f92d8097",
            "currentGasLimit": "0x7fffffffffffffff",
            "currentNumber": "0x01",
            "currentTimestamp": "0x03e8",
            "currentRandom": "0x0000000000000000000000000000000000000000000000000000000000020000",
            "currentDifficulty": "0x00",
            "currentBaseFee": "0x0a",
            "currentExcessBlobGas": "0x00"
        },
        "pre": {
            "0x2884c2cbfb2b0b29f80ac7072c1636dbb9199584": {
                "nonce": "0x00",
                "balance": "0x0de0b6b3a7640000",
                "code": "0x",
                "storage": {}
            },
            "0x589e594629b10eddcde3b3b7eeb6ecf4f92d8097": {
                "nonce": "0x00",
                "balance": "0x2e",
                "code": "0x6000355415600957005b60203560003555",
                "storage": {}
            },
            "0x589e594629b10eddcde3b3b7eeb6ecf4f92d8197": {
                "nonce": "0x00",
                "balance": "0x00",
                "code": "0x7f000000000000000000000000589e594629b10eddcde3b3b7eeb6ecf4f92d80977fffffffffffffffffffffffffffffffffffffffffffffffffffffffffffffffff7f0000000000000000000000000000000000000000000000000000000000000000027ffffffffffffffffffffffffffffffffffffffffffffffffffffffffffffffffe307f00000000000000000000000100000000000000000000000000000000000000007f00000000000000000000000100000000000000000000000000000000000000005255",
                "storage": {}
            }
        },
        "transaction": {
            "nonce": "0x00",
            "gasPrice": "0x0a",
            "gasLimit": [
                "0x0186a0"
            ],
            "to": "0x589e594629b10eddcde3b3b7eeb6ecf4f92d8197",
            "value": [
                "0x37d68e6c"
            ],
            "data": [
                "0x7f000000000000000000000000589e594629b10eddcde3b3b7eeb6ecf4f92d80977fffffffffffffffffffffffffffffffffffffffffffffffffffffffffffffffff7f0000000000000000000000000000000000000000000000000000000000000000027ffffffffffffffffffffffffffffffffffffffffffffffffffffffffffffffffe307f00000000000000000000000100000000000000000000000000000000000000007f000000000000000000000001000000000000000000000000000000000000000052"
            ],
            "sender": "0x2884c2cbfb2b0b29f80ac7072c1636dbb9199584",
            "secretKey": "0x416da5968e90a6d4dbf40b9e589e594629b10eddcde3b3b7eeb6ecf4f92d8097"
        },
        "post": {
            "Osaka": [
                {
                    "hash": "0x2c05106b9d5828a0f0c266815ef3818e4f30c7ce526411ce862936367cbf9922",
                    "logs": "0x1dcc4de8dec75d7aab85b567b6ccd41ad312451b948a7413f0a142fd40d49347",
                    "txbytes": "0xf9012e800a830186a094589e594629b10eddcde3b3b7eeb6ecf4f92d81978437d68e6cb8c97f000000000000000000000000589e594629b10eddcde3b3b7eeb6ecf4f92d80977fffffffffffffffffffffffffffffffffffffffffffffffffffffffffffffffff7f0000000000000000000000000000000000000000000000000000000000000000027ffffffffffffffffffffffffffffffffffffffffffffffffffffffffffffffffe307f00000000000000000000000100000000000000000000000000000000000000007f00000000000000000000000100000000000000000000000000000000000000005225a0f77d9f8563fea3acc7a44005f5ddf1b35c110824f45e4b903789df5d08e16ea9a04cd3991ddc0c2dad95995c8bc857f8c2c8464197c345360b55a890de7f847b3c",
                    "indexes": {
                        "data": 0,
                        "gas": 0,
                        "value": 0
                    },
                    "state": {
                        "0x2884c2cbfb2b0b29f80ac7072c1636dbb9199584": {
                            "nonce": "0x01",
                            "balance": "0x0de0b6b3a754bdc0",
                            "code": "0x",
                            "storage": {}
                        },
                        "0x589e594629b10eddcde3b3b7eeb6ecf4f92d8097": {
                            "nonce": "0x00",
                            "balance": "0x2e",
                            "code": "0x6000355415600957005b60203560003555",
                            "storage": {}
                        },
                        "0x589e594629b10eddcde3b3b7eeb6ecf4f92d8197": {
                            "nonce": "0x00",
                            "balance": "0x00",
                            "code": "0x7f000000000000000000000000589e594629b10eddcde3b3b7eeb6ecf4f92d80977fffffffffffffffffffffffffffffffffffffffffffffffffffffffffffffffff7f0000000000000000000000000000000000000000000000000000000000000000027ffffffffffffffffffffffffffffffffffffffffffffffffffffffffffffffffe307f00000000000000000000000100000000000000000000000000000000000000007f00000000000000000000000100000000000000000000000000000000000000005255",
                            "storage": {}
                        }
                    }
                }
            ]
        },
        "config": {
            "blobSchedule": {
                "Cancun": {
                    "target": "0x03",
                    "max": "0x06",
                    "baseFeeUpdateFraction": "0x32f0ed"
                },
                "Prague": {
                    "target": "0x06",
                    "max": "0x09",
                    "baseFeeUpdateFraction": "0x4c6964"
                },
                "Osaka": {
                    "target": "0x06",
                    "max": "0x09",
                    "baseFeeUpdateFraction": "0x4c6964"
                }
            },
            "chainid": "0x01"
        },
        "_info": {
            "hash": "0x6e1de0be5dd1a57141c05e5543213220c281f6093d880045f0c5a364ed873449",
            "comment": "`execution-specs` generated test",
            "filling-transition-tool": "2.18.0rc6",
            "description": "No description available - add a docstring to the python test class or function.",
            "url": "",
            "fixture-format": "state_test"
        }
    },
    "tests/static/state_tests/stRandom/randomStatetest13Filler.json::randomStatetest13[fork_Prague-state_test-]": {
        "env": {
            "currentCoinbase": "0x589e594629b10eddcde3b3b7eeb6ecf4f92d8097",
            "currentGasLimit": "0x7fffffffffffffff",
            "currentNumber": "0x01",
            "currentTimestamp": "0x03e8",
            "currentRandom": "0x0000000000000000000000000000000000000000000000000000000000020000",
            "currentDifficulty": "0x00",
            "currentBaseFee": "0x0a",
            "currentExcessBlobGas": "0x00"
        },
        "pre": {
            "0x2884c2cbfb2b0b29f80ac7072c1636dbb9199584": {
                "nonce": "0x00",
                "balance": "0x0de0b6b3a7640000",
                "code": "0x",
                "storage": {}
            },
            "0x589e594629b10eddcde3b3b7eeb6ecf4f92d8097": {
                "nonce": "0x00",
                "balance": "0x2e",
                "code": "0x6000355415600957005b60203560003555",
                "storage": {}
            },
            "0x589e594629b10eddcde3b3b7eeb6ecf4f92d8197": {
                "nonce": "0x00",
                "balance": "0x00",
                "code": "0x7f000000000000000000000000589e594629b10eddcde3b3b7eeb6ecf4f92d80977fffffffffffffffffffffffffffffffffffffffffffffffffffffffffffffffff7f0000000000000000000000000000000000000000000000000000000000000000027ffffffffffffffffffffffffffffffffffffffffffffffffffffffffffffffffe307f00000000000000000000000100000000000000000000000000000000000000007f00000000000000000000000100000000000000000000000000000000000000005255",
                "storage": {}
            }
        },
        "transaction": {
            "nonce": "0x00",
            "gasPrice": "0x0a",
            "gasLimit": [
                "0x0186a0"
            ],
            "to": "0x589e594629b10eddcde3b3b7eeb6ecf4f92d8197",
            "value": [
                "0x37d68e6c"
            ],
            "data": [
                "0x7f000000000000000000000000589e594629b10eddcde3b3b7eeb6ecf4f92d80977fffffffffffffffffffffffffffffffffffffffffffffffffffffffffffffffff7f0000000000000000000000000000000000000000000000000000000000000000027ffffffffffffffffffffffffffffffffffffffffffffffffffffffffffffffffe307f00000000000000000000000100000000000000000000000000000000000000007f000000000000000000000001000000000000000000000000000000000000000052"
            ],
            "sender": "0x2884c2cbfb2b0b29f80ac7072c1636dbb9199584",
            "secretKey": "0x416da5968e90a6d4dbf40b9e589e594629b10eddcde3b3b7eeb6ecf4f92d8097"
        },
        "post": {
            "Prague": [
                {
                    "hash": "0x2c05106b9d5828a0f0c266815ef3818e4f30c7ce526411ce862936367cbf9922",
                    "logs": "0x1dcc4de8dec75d7aab85b567b6ccd41ad312451b948a7413f0a142fd40d49347",
                    "txbytes": "0xf9012e800a830186a094589e594629b10eddcde3b3b7eeb6ecf4f92d81978437d68e6cb8c97f000000000000000000000000589e594629b10eddcde3b3b7eeb6ecf4f92d80977fffffffffffffffffffffffffffffffffffffffffffffffffffffffffffffffff7f0000000000000000000000000000000000000000000000000000000000000000027ffffffffffffffffffffffffffffffffffffffffffffffffffffffffffffffffe307f00000000000000000000000100000000000000000000000000000000000000007f00000000000000000000000100000000000000000000000000000000000000005225a0f77d9f8563fea3acc7a44005f5ddf1b35c110824f45e4b903789df5d08e16ea9a04cd3991ddc0c2dad95995c8bc857f8c2c8464197c345360b55a890de7f847b3c",
                    "indexes": {
                        "data": 0,
                        "gas": 0,
                        "value": 0
                    },
                    "state": {
                        "0x2884c2cbfb2b0b29f80ac7072c1636dbb9199584": {
                            "nonce": "0x01",
                            "balance": "0x0de0b6b3a754bdc0",
                            "code": "0x",
                            "storage": {}
                        },
                        "0x589e594629b10eddcde3b3b7eeb6ecf4f92d8097": {
                            "nonce": "0x00",
                            "balance": "0x2e",
                            "code": "0x6000355415600957005b60203560003555",
                            "storage": {}
                        },
                        "0x589e594629b10eddcde3b3b7eeb6ecf4f92d8197": {
                            "nonce": "0x00",
                            "balance": "0x00",
                            "code": "0x7f000000000000000000000000589e594629b10eddcde3b3b7eeb6ecf4f92d80977fffffffffffffffffffffffffffffffffffffffffffffffffffffffffffffffff7f0000000000000000000000000000000000000000000000000000000000000000027ffffffffffffffffffffffffffffffffffffffffffffffffffffffffffffffffe307f00000000000000000000000100000000000000000000000000000000000000007f00000000000000000000000100000000000000000000000000000000000000005255",
                            "storage": {}
                        }
                    }
                }
            ]
        },
        "config": {
            "blobSchedule": {
                "Cancun": {
                    "target": "0x03",
                    "max": "0x06",
                    "baseFeeUpdateFraction": "0x32f0ed"
                },
                "Prague": {
                    "target": "0x06",
                    "max": "0x09",
                    "baseFeeUpdateFraction": "0x4c6964"
                }
            },
            "chainid": "0x01"
        },
        "_info": {
            "hash": "0x764cd3020bd93a9d7eebd65c239f78f307b7ff12300247d537c0bbe43cec117c",
            "comment": "`execution-specs` generated test",
            "filling-transition-tool": "2.18.0rc6",
            "description": "No description available - add a docstring to the python test class or function.",
            "url": "",
            "fixture-format": "state_test"
        }
    }
}